{
    "contractName": "PlatypusPool",
    "abi": [
        {
            "inputs": [
                {
                    "internalType": "address",
                    "name": "target",
                    "type": "address"
                }
            ],
            "name": "AddressEmptyCode",
            "type": "error"
        },
        {
            "inputs": [
                {
                    "internalType": "address",
                    "name": "account",
                    "type": "address"
                }
            ],
            "name": "AddressInsufficientBalance",
            "type": "error"
        },
        {
            "inputs": [],
            "name": "EnforcedPause",
            "type": "error"
        },
        {
            "inputs": [],
            "name": "ExpectedPause",
            "type": "error"
        },
        {
            "inputs": [],
            "name": "FailedInnerCall",
            "type": "error"
        },
        {
            "inputs": [],
            "name": "InvalidInitialization",
            "type": "error"
        },
        {
            "inputs": [],
            "name": "NotInitializing",
            "type": "error"
        },
        {
            "inputs": [
                {
                    "internalType": "address",
                    "name": "owner",
                    "type": "address"
                }
            ],
            "name": "OwnableInvalidOwner",
            "type": "error"
        },
        {
            "inputs": [
                {
                    "internalType": "address",
                    "name": "account",
                    "type": "address"
                }
            ],
            "name": "OwnableUnauthorizedAccount",
            "type": "error"
        },
        {
            "inputs": [],
            "name": "ReentrancyGuardReentrantCall",
            "type": "error"
        },
        {
            "inputs": [
                {
                    "internalType": "address",
                    "name": "token",
                    "type": "address"
                }
            ],
            "name": "SafeERC20FailedOperation",
            "type": "error"
        },
        {
            "anonymous": false,
            "inputs": [
                {
                    "indexed": true,
                    "internalType": "address",
                    "name": "token",
                    "type": "address"
                },
                {
                    "indexed": true,
                    "internalType": "address",
                    "name": "asset",
                    "type": "address"
                }
            ],
            "name": "AssetAdded",
            "type": "event"
        },
        {
            "anonymous": false,
            "inputs": [
                {
                    "indexed": true,
                    "internalType": "address",
                    "name": "sender",
                    "type": "address"
                },
                {
                    "indexed": false,
                    "internalType": "address",
                    "name": "token",
                    "type": "address"
                },
                {
                    "indexed": false,
                    "internalType": "uint256",
                    "name": "amount",
                    "type": "uint256"
                },
                {
                    "indexed": false,
                    "internalType": "uint256",
                    "name": "liquidity",
                    "type": "uint256"
                },
                {
                    "indexed": true,
                    "internalType": "address",
                    "name": "to",
                    "type": "address"
                }
            ],
            "name": "Deposit",
            "type": "event"
        },
        {
            "anonymous": false,
            "inputs": [
                {
                    "indexed": true,
                    "internalType": "address",
                    "name": "previousDev",
                    "type": "address"
                },
                {
                    "indexed": true,
                    "internalType": "address",
                    "name": "newDev",
                    "type": "address"
                }
            ],
            "name": "DevUpdated",
            "type": "event"
        },
        {
            "anonymous": false,
            "inputs": [
                {
                    "indexed": false,
                    "internalType": "uint256",
                    "name": "previousHaircut",
                    "type": "uint256"
                },
                {
                    "indexed": false,
                    "internalType": "uint256",
                    "name": "newHaircut",
                    "type": "uint256"
                }
            ],
            "name": "HaircutRateUpdated",
            "type": "event"
        },
        {
            "anonymous": false,
            "inputs": [
                {
                    "indexed": false,
                    "internalType": "uint64",
                    "name": "version",
                    "type": "uint64"
                }
            ],
            "name": "Initialized",
            "type": "event"
        },
        {
            "anonymous": false,
            "inputs": [
                {
                    "indexed": true,
                    "internalType": "address",
                    "name": "previousOracle",
                    "type": "address"
                },
                {
                    "indexed": true,
                    "internalType": "address",
                    "name": "newOracle",
                    "type": "address"
                }
            ],
            "name": "OracleUpdated",
            "type": "event"
        },
        {
            "anonymous": false,
            "inputs": [
                {
                    "indexed": true,
                    "internalType": "address",
                    "name": "previousOwner",
                    "type": "address"
                },
                {
                    "indexed": true,
                    "internalType": "address",
                    "name": "newOwner",
                    "type": "address"
                }
            ],
            "name": "OwnershipTransferred",
            "type": "event"
        },
        {
            "anonymous": false,
            "inputs": [
                {
                    "indexed": false,
                    "internalType": "address",
                    "name": "account",
                    "type": "address"
                }
            ],
            "name": "Paused",
            "type": "event"
        },
        {
            "anonymous": false,
            "inputs": [
                {
                    "indexed": false,
                    "internalType": "uint256",
                    "name": "previousPriceDeviation",
                    "type": "uint256"
                },
                {
                    "indexed": false,
                    "internalType": "uint256",
                    "name": "newPriceDeviation",
                    "type": "uint256"
                }
            ],
            "name": "PriceDeviationUpdated",
            "type": "event"
        },
        {
            "anonymous": false,
            "inputs": [
                {
                    "indexed": false,
                    "internalType": "uint256",
                    "name": "previousRetentionRatio",
                    "type": "uint256"
                },
                {
                    "indexed": false,
                    "internalType": "uint256",
                    "name": "newRetentionRatio",
                    "type": "uint256"
                }
            ],
            "name": "RetentionRatioUpdated",
            "type": "event"
        },
        {
            "anonymous": false,
            "inputs": [
                {
                    "indexed": false,
                    "internalType": "uint256",
                    "name": "previousK",
                    "type": "uint256"
                },
                {
                    "indexed": false,
                    "internalType": "uint256",
                    "name": "newK",
                    "type": "uint256"
                },
                {
                    "indexed": false,
                    "internalType": "uint256",
                    "name": "previousN",
                    "type": "uint256"
                },
                {
                    "indexed": false,
                    "internalType": "uint256",
                    "name": "newN",
                    "type": "uint256"
                },
                {
                    "indexed": false,
                    "internalType": "uint256",
                    "name": "previousC1",
                    "type": "uint256"
                },
                {
                    "indexed": false,
                    "internalType": "uint256",
                    "name": "newC1",
                    "type": "uint256"
                },
                {
                    "indexed": false,
                    "internalType": "uint256",
                    "name": "previousXThreshold",
                    "type": "uint256"
                },
                {
                    "indexed": false,
                    "internalType": "uint256",
                    "name": "newXThreshold",
                    "type": "uint256"
                }
            ],
            "name": "SlippageParamsUpdated",
            "type": "event"
        },
        {
            "anonymous": false,
            "inputs": [
                {
                    "indexed": true,
                    "internalType": "address",
                    "name": "sender",
                    "type": "address"
                },
                {
                    "indexed": false,
                    "internalType": "address",
                    "name": "fromToken",
                    "type": "address"
                },
                {
                    "indexed": false,
                    "internalType": "address",
                    "name": "toToken",
                    "type": "address"
                },
                {
                    "indexed": false,
                    "internalType": "uint256",
                    "name": "fromAmount",
                    "type": "uint256"
                },
                {
                    "indexed": false,
                    "internalType": "uint256",
                    "name": "toAmount",
                    "type": "uint256"
                },
                {
                    "indexed": true,
                    "internalType": "address",
                    "name": "to",
                    "type": "address"
                }
            ],
            "name": "Swap",
            "type": "event"
        },
        {
            "anonymous": false,
            "inputs": [
                {
                    "indexed": false,
                    "internalType": "address",
                    "name": "account",
                    "type": "address"
                }
            ],
            "name": "Unpaused",
            "type": "event"
        },
        {
            "anonymous": false,
            "inputs": [
                {
                    "indexed": true,
                    "internalType": "address",
                    "name": "sender",
                    "type": "address"
                },
                {
                    "indexed": false,
                    "internalType": "address",
                    "name": "token",
                    "type": "address"
                },
                {
                    "indexed": false,
                    "internalType": "uint256",
                    "name": "amount",
                    "type": "uint256"
                },
                {
                    "indexed": false,
                    "internalType": "uint256",
                    "name": "liquidity",
                    "type": "uint256"
                },
                {
                    "indexed": true,
                    "internalType": "address",
                    "name": "to",
                    "type": "address"
                }
            ],
            "name": "Withdraw",
            "type": "event"
        },
        {
            "inputs": [],
            "name": "USDC",
            "outputs": [
                {
                    "internalType": "address",
                    "name": "",
                    "type": "address"
                }
            ],
            "stateMutability": "view",
            "type": "function"
        },
        {
            "inputs": [
                {
                    "internalType": "address",
                    "name": "token",
                    "type": "address"
                },
                {
                    "internalType": "address",
                    "name": "asset",
                    "type": "address"
                }
            ],
            "name": "addAsset",
            "outputs": [],
            "stateMutability": "nonpayable",
            "type": "function"
        },
        {
            "inputs": [
                {
                    "internalType": "address",
                    "name": "token",
                    "type": "address"
                }
            ],
            "name": "assetOf",
            "outputs": [
                {
                    "internalType": "address",
                    "name": "",
                    "type": "address"
                }
            ],
            "stateMutability": "view",
            "type": "function"
        },
        {
            "inputs": [
                {
                    "internalType": "address",
                    "name": "token",
                    "type": "address"
                },
                {
                    "internalType": "uint256",
                    "name": "amount",
                    "type": "uint256"
                },
                {
                    "internalType": "address",
                    "name": "to",
                    "type": "address"
                },
                {
                    "internalType": "uint256",
                    "name": "deadline",
                    "type": "uint256"
                }
            ],
            "name": "deposit",
            "outputs": [
                {
                    "internalType": "uint256",
                    "name": "liquidity",
                    "type": "uint256"
                }
            ],
            "stateMutability": "nonpayable",
            "type": "function"
        },
        {
            "inputs": [],
            "name": "getAssets",
            "outputs": [
                {
                    "internalType": "address[]",
                    "name": "",
                    "type": "address[]"
                }
            ],
            "stateMutability": "view",
            "type": "function"
        },
        {
            "inputs": [],
            "name": "getC1",
            "outputs": [
                {
                    "internalType": "uint256",
                    "name": "",
                    "type": "uint256"
                }
            ],
            "stateMutability": "view",
            "type": "function"
        },
        {
            "inputs": [],
            "name": "getDev",
            "outputs": [
                {
                    "internalType": "address",
                    "name": "",
                    "type": "address"
                }
            ],
            "stateMutability": "view",
            "type": "function"
        },
        {
            "inputs": [],
            "name": "getEquilibriumCoverageRatio",
            "outputs": [
                {
                    "internalType": "uint256",
                    "name": "",
                    "type": "uint256"
                }
            ],
            "stateMutability": "view",
            "type": "function"
        },
        {
            "inputs": [],
            "name": "getHaircutRate",
            "outputs": [
                {
                    "internalType": "uint256",
                    "name": "",
                    "type": "uint256"
                }
            ],
            "stateMutability": "view",
            "type": "function"
        },
        {
            "inputs": [],
            "name": "getMaxPriceDeviation",
            "outputs": [
                {
                    "internalType": "uint256",
                    "name": "",
                    "type": "uint256"
                }
            ],
            "stateMutability": "view",
            "type": "function"
        },
        {
            "inputs": [],
            "name": "getPriceOracle",
            "outputs": [
                {
                    "internalType": "address",
                    "name": "",
                    "type": "address"
                }
            ],
            "stateMutability": "view",
            "type": "function"
        },
        {
            "inputs": [],
            "name": "getRetentionRatio",
            "outputs": [
                {
                    "internalType": "uint256",
                    "name": "",
                    "type": "uint256"
                }
            ],
            "stateMutability": "view",
            "type": "function"
        },
        {
            "inputs": [],
            "name": "getSlippageParamK",
            "outputs": [
                {
                    "internalType": "uint256",
                    "name": "",
                    "type": "uint256"
                }
            ],
            "stateMutability": "view",
            "type": "function"
        },
        {
            "inputs": [],
            "name": "getSlippageParamN",
            "outputs": [
                {
                    "internalType": "uint256",
                    "name": "",
                    "type": "uint256"
                }
            ],
            "stateMutability": "view",
            "type": "function"
        },
        {
            "inputs": [],
            "name": "getTokenAddresses",
            "outputs": [
                {
                    "internalType": "address[]",
                    "name": "",
                    "type": "address[]"
                }
            ],
            "stateMutability": "view",
            "type": "function"
        },
        {
            "inputs": [],
            "name": "getXThreshold",
            "outputs": [
                {
                    "internalType": "uint256",
                    "name": "",
                    "type": "uint256"
                }
            ],
            "stateMutability": "view",
            "type": "function"
        },
        {
            "inputs": [
                {
                    "internalType": "address",
                    "name": "_registry",
                    "type": "address"
                }
            ],
            "name": "initialize",
            "outputs": [],
            "stateMutability": "nonpayable",
            "type": "function"
        },
        {
            "inputs": [],
            "name": "owner",
            "outputs": [
                {
                    "internalType": "address",
                    "name": "",
                    "type": "address"
                }
            ],
            "stateMutability": "view",
            "type": "function"
        },
        {
            "inputs": [],
            "name": "pause",
            "outputs": [],
            "stateMutability": "nonpayable",
            "type": "function"
        },
        {
            "inputs": [],
            "name": "paused",
            "outputs": [
                {
                    "internalType": "bool",
                    "name": "",
                    "type": "bool"
                }
            ],
            "stateMutability": "view",
            "type": "function"
        },
        {
            "inputs": [
                {
                    "internalType": "address",
                    "name": "initialToken",
                    "type": "address"
                },
                {
                    "internalType": "address",
                    "name": "wantedToken",
                    "type": "address"
                }
            ],
            "name": "quoteMaxInitialAssetWithdrawable",
            "outputs": [
                {
                    "internalType": "uint256",
                    "name": "maxInitialAssetAmount",
                    "type": "uint256"
                }
            ],
            "stateMutability": "view",
            "type": "function"
        },
        {
            "inputs": [
                {
                    "internalType": "address",
                    "name": "fromToken",
                    "type": "address"
                },
                {
                    "internalType": "address",
                    "name": "toToken",
                    "type": "address"
                },
                {
                    "internalType": "uint256",
                    "name": "fromAmount",
                    "type": "uint256"
                }
            ],
            "name": "quotePotentialSwap",
            "outputs": [
                {
                    "internalType": "uint256",
                    "name": "potentialOutcome",
                    "type": "uint256"
                },
                {
                    "internalType": "uint256",
                    "name": "haircut",
                    "type": "uint256"
                }
            ],
            "stateMutability": "view",
            "type": "function"
        },
        {
            "inputs": [
                {
                    "internalType": "address",
                    "name": "token",
                    "type": "address"
                },
                {
                    "internalType": "uint256",
                    "name": "liquidity",
                    "type": "uint256"
                }
            ],
            "name": "quotePotentialWithdraw",
            "outputs": [
                {
                    "internalType": "uint256",
                    "name": "amount",
                    "type": "uint256"
                },
                {
                    "internalType": "uint256",
                    "name": "fee",
                    "type": "uint256"
                },
                {
                    "internalType": "bool",
                    "name": "enoughCash",
                    "type": "bool"
                }
            ],
            "stateMutability": "view",
            "type": "function"
        },
        {
            "inputs": [
                {
                    "internalType": "address",
                    "name": "initialToken",
                    "type": "address"
                },
                {
                    "internalType": "address",
                    "name": "wantedToken",
                    "type": "address"
                },
                {
                    "internalType": "uint256",
                    "name": "liquidity",
                    "type": "uint256"
                }
            ],
            "name": "quotePotentialWithdrawFromOtherAsset",
            "outputs": [
                {
                    "internalType": "uint256",
                    "name": "amount",
                    "type": "uint256"
                },
                {
                    "internalType": "uint256",
                    "name": "fee",
                    "type": "uint256"
                }
            ],
            "stateMutability": "view",
            "type": "function"
        },
        {
            "inputs": [
                {
                    "internalType": "address",
                    "name": "token",
                    "type": "address"
                }
            ],
            "name": "recoverUserFunds",
            "outputs": [],
            "stateMutability": "nonpayable",
            "type": "function"
        },
        {
            "inputs": [],
            "name": "registry",
            "outputs": [
                {
                    "internalType": "address",
                    "name": "",
                    "type": "address"
                }
            ],
            "stateMutability": "view",
            "type": "function"
        },
        {
            "inputs": [
                {
                    "internalType": "address",
                    "name": "key",
                    "type": "address"
                }
            ],
            "name": "removeAsset",
            "outputs": [],
            "stateMutability": "nonpayable",
            "type": "function"
        },
        {
            "inputs": [],
            "name": "renounceOwnership",
            "outputs": [],
            "stateMutability": "nonpayable",
            "type": "function"
        },
        {
            "inputs": [
                {
                    "internalType": "address",
                    "name": "dev",
                    "type": "address"
                }
            ],
            "name": "setDev",
            "outputs": [],
            "stateMutability": "nonpayable",
            "type": "function"
        },
        {
            "inputs": [
                {
                    "internalType": "uint256",
                    "name": "haircutRate_",
                    "type": "uint256"
                }
            ],
            "name": "setHaircutRate",
            "outputs": [],
            "stateMutability": "nonpayable",
            "type": "function"
        },
        {
            "inputs": [
                {
                    "internalType": "uint256",
                    "name": "maxPriceDeviation_",
                    "type": "uint256"
                }
            ],
            "name": "setMaxPriceDeviation",
            "outputs": [],
            "stateMutability": "nonpayable",
            "type": "function"
        },
        {
            "inputs": [],
            "name": "setPriceOracle",
            "outputs": [],
            "stateMutability": "nonpayable",
            "type": "function"
        },
        {
            "inputs": [
                {
                    "internalType": "uint256",
                    "name": "retentionRatio_",
                    "type": "uint256"
                }
            ],
            "name": "setRetentionRatio",
            "outputs": [],
            "stateMutability": "nonpayable",
            "type": "function"
        },
        {
            "inputs": [
                {
                    "internalType": "uint256",
                    "name": "k_",
                    "type": "uint256"
                },
                {
                    "internalType": "uint256",
                    "name": "n_",
                    "type": "uint256"
                },
                {
                    "internalType": "uint256",
                    "name": "c1_",
                    "type": "uint256"
                },
                {
                    "internalType": "uint256",
                    "name": "xThreshold_",
                    "type": "uint256"
                }
            ],
            "name": "setSlippageParams",
            "outputs": [],
            "stateMutability": "nonpayable",
            "type": "function"
        },
        {
            "inputs": [
                {
                    "internalType": "address",
                    "name": "fromToken",
                    "type": "address"
                },
                {
                    "internalType": "address",
                    "name": "toToken",
                    "type": "address"
                },
                {
                    "internalType": "uint256",
                    "name": "fromAmount",
                    "type": "uint256"
                },
                {
                    "internalType": "uint256",
                    "name": "minimumToAmount",
                    "type": "uint256"
                },
                {
                    "internalType": "address",
                    "name": "to",
                    "type": "address"
                },
                {
                    "internalType": "uint256",
                    "name": "deadline",
                    "type": "uint256"
                }
            ],
            "name": "swap",
            "outputs": [
                {
                    "internalType": "uint256",
                    "name": "actualToAmount",
                    "type": "uint256"
                },
                {
                    "internalType": "uint256",
                    "name": "haircut",
                    "type": "uint256"
                }
            ],
            "stateMutability": "nonpayable",
            "type": "function"
        },
        {
            "inputs": [
                {
                    "internalType": "address",
                    "name": "newOwner",
                    "type": "address"
                }
            ],
            "name": "transferOwnership",
            "outputs": [],
            "stateMutability": "nonpayable",
            "type": "function"
        },
        {
            "inputs": [],
            "name": "unpause",
            "outputs": [],
            "stateMutability": "nonpayable",
            "type": "function"
        },
        {
            "inputs": [
                {
                    "internalType": "address",
                    "name": "token",
                    "type": "address"
                },
                {
                    "internalType": "uint256",
                    "name": "liquidity",
                    "type": "uint256"
                },
                {
                    "internalType": "uint256",
                    "name": "minimumAmount",
                    "type": "uint256"
                },
                {
                    "internalType": "address",
                    "name": "to",
                    "type": "address"
                },
                {
                    "internalType": "uint256",
                    "name": "deadline",
                    "type": "uint256"
                }
            ],
            "name": "withdraw",
            "outputs": [
                {
                    "internalType": "uint256",
                    "name": "amount",
                    "type": "uint256"
                }
            ],
            "stateMutability": "nonpayable",
            "type": "function"
        },
        {
            "inputs": [
                {
                    "internalType": "address",
                    "name": "initialToken",
                    "type": "address"
                },
                {
                    "internalType": "address",
                    "name": "wantedToken",
                    "type": "address"
                },
                {
                    "internalType": "uint256",
                    "name": "liquidity",
                    "type": "uint256"
                },
                {
                    "internalType": "uint256",
                    "name": "minimumAmount",
                    "type": "uint256"
                },
                {
                    "internalType": "address",
                    "name": "to",
                    "type": "address"
                },
                {
                    "internalType": "uint256",
                    "name": "deadline",
                    "type": "uint256"
                }
            ],
            "name": "withdrawFromOtherAsset",
            "outputs": [
                {
                    "internalType": "uint256",
                    "name": "amount",
                    "type": "uint256"
                }
            ],
            "stateMutability": "nonpayable",
            "type": "function"
        }
    ],
    "bytecode": "6080604052348015600e575f80fd5b506148468061001c5f395ff3fe608060405234801561000f575f80fd5b5060043610610234575f3560e01c80638456cb5911610135578063c4d66de8116100b4578063df22018111610079578063df220181146104c1578063ee8c24b814610346578063f2fde38b146104d4578063f57e84d5146104e7578063fca513a8146104fa575f80fd5b8063c4d66de814610478578063cb733d7a1461048b578063d477f05f14610493578063da489997146104a6578063ddcbc516146104b9575f80fd5b80639908fc8b116100fa5780639908fc8b1461042f5780639a55ea8e146104425780639ee4c0571461044a578063a4275ceb1461045d578063a76f54d214610470575f80fd5b80638456cb59146103a157806389a30271146103a95780638da5cb5b146103bc578063907448ed146103ec57806390d250741461041c575f80fd5b80634a5e42b1116101c157806371f962111161018657806371f96211146103635780637727c655146103765780637a1c36d11461037e5780637b103999146103865780637fdd5a8e14610399575f80fd5b80634a5e42b11461030957806355af008a1461031c5780635c975abb1461032457806367e4ac2c14610346578063715018a61461035b575f80fd5b80630f91f06f116102075780630f91f06f146102a05780632a803b5e146102b35780633f4ba83a146102c657806343c2e2f5146102ce57806344db964a146102f6575f80fd5b806305f7bc261461023857806309a5fca31461025357806309bb9267146102665780630d4636b51461028b575b5f80fd5b610240610502565b6040519081526020015b60405180910390f35b610240610261366004614279565b610510565b6049546001600160a01b03165b6040516001600160a01b03909116815260200161024a565b61029e6102993660046142c7565b610666565b005b6102406102ae3660046142e2565b610712565b6102406102c1366004614345565b610e9e565b61029e611118565b6102e16102dc36600461437c565b61114c565b6040805192835260208301919091520161024a565b61029e6103043660046143ba565b611354565b61029e6103173660046142c7565b6113b1565b604254610240565b5f805160206147d18339815191525460ff16604051901515815260200161024a565b61034e6114ee565b60405161024a91906143d1565b61029e611550565b6102736103713660046142c7565b611561565b604354610240565b604554610240565b604054610273906001600160a01b031681565b604654610240565b61029e611571565b604154610273906001600160a01b031681565b7f9016d09d72d40fdae2fd8ceac6b6234c7706214fd39c1cd1e609a0528c199300546001600160a01b0316610273565b6103ff6103fa36600461441d565b6115a3565b60408051938452602084019290925215159082015260600161024a565b61024061042a366004614447565b611632565b6102e161043d3660046142e2565b61178e565b61029e611c18565b61029e6104583660046143ba565b611cd5565b6102e161046b36600461437c565b611d32565b604454610240565b61029e6104863660046142c7565b61200c565b604754610240565b61029e6104a13660046142c7565b612294565b61029e6104b4366004614345565b61231d565b604854610240565b61029e6104cf36600461448c565b612416565b61029e6104e23660046142c7565b6124be565b61029e6104f53660046143ba565b6124f8565b610273612555565b5f61050b6125ca565b905090565b5f814281101561053b5760405162461bcd60e51b8152600401610532906144bb565b60405180910390fd5b6105436128aa565b61054b6128e1565b5f861161058e5760405162461bcd60e51b815260206004820152601160248201527016915493d7d054d4d15517d05353d55395607a1b6044820152606401610532565b6001600160a01b0387166105b45760405162461bcd60e51b8152600401610532906144dc565b6001600160a01b0384166105da5760405162461bcd60e51b8152600401610532906144dc565b5f6105e488612911565b90506105f281888888612973565b604080516001600160a01b038b81168252602082018490529181018a905291945086169033907ffb80d861da582b723be2d19507ce3e03851820c464abea89156ec77e089b1ad99060600160405180910390a35061065c60015f805160206147f183398151915255565b5095945050505050565b6049546001600160a01b031633146106905760405162461bcd60e51b8152600401610532906144fa565b6040516370a0823160e01b81523060048201525f906001600160a01b038316906370a0823190602401602060405180830381865afa1580156106d4573d5f803e3d5ffd5b505050506040513d601f19601f820116820180604052508101906106f8919061451d565b905061070e6001600160a01b0383163383612b24565b5050565b5f81428110156107345760405162461bcd60e51b8152600401610532906144bb565b61073c6128aa565b6107446128e1565b5f86116107875760405162461bcd60e51b815260206004820152601160248201527016915493d7d054d4d15517d05353d55395607a1b6044820152606401610532565b6001600160a01b0387166107ad5760405162461bcd60e51b8152600401610532906144dc565b6001600160a01b0388166107d35760405162461bcd60e51b8152600401610532906144dc565b6001600160a01b0384166107f95760405162461bcd60e51b8152600401610532906144dc565b5f61080389612911565b90505f61080f89612911565b9050816001600160a01b0316637e1317fa6040518163ffffffff1660e01b8152600401602060405180830381865afa15801561084d573d5f803e3d5ffd5b505050506040513d601f19601f820116820180604052508101906108719190614534565b6001600160a01b0316816001600160a01b0316637e1317fa6040518163ffffffff1660e01b8152600401602060405180830381865afa1580156108b6573d5f803e3d5ffd5b505050506040513d601f19601f820116820180604052508101906108da9190614534565b6001600160a01b0316146109005760405162461bcd60e51b81526004016105329061454f565b61090a8a8a612b88565b5f816001600160a01b031663313ce5676040518163ffffffff1660e01b8152600401602060405180830381865afa158015610947573d5f803e3d5ffd5b505050506040513d601f19601f8201168201806040525081019061096b9190614575565b61097690600a614689565b836001600160a01b031663313ce5676040518163ffffffff1660e01b8152600401602060405180830381865afa1580156109b2573d5f803e3d5ffd5b505050506040513d601f19601f820116820180604052508101906109d69190614575565b6109e190600a614689565b6109eb908b614697565b6109f591906146c2565b90505f8111610a2e5760405162461bcd60e51b8152602060048201526005602482015264445553543f60d81b6044820152606401610532565b610a436001600160a01b038416338584612ebb565b5f610a4e838b612ee9565b929850919250829150610a9790505760405162461bcd60e51b815260206004820152600f60248201526e09c9ea8be8a9c9eaa8e90be8682a69608b1b6044820152606401610532565b670de0b6b3a7640000610b74846001600160a01b031663705727b56040518163ffffffff1660e01b8152600401602060405180830381865afa158015610adf573d5f803e3d5ffd5b505050506040513d601f19601f82011682018060405250810190610b03919061451d565b88866001600160a01b031663961be3916040518163ffffffff1660e01b8152600401602060405180830381865afa158015610b40573d5f803e3d5ffd5b505050506040513d601f19601f82011682018060405250810190610b64919061451d565b610b6e91906146d5565b90613214565b1015610bb25760405162461bcd60e51b815260206004820152600d60248201526c434f565f524154494f5f4c4f5760981b6044820152606401610532565b85891115610bd25760405162461bcd60e51b8152600401610532906146e8565b5f846001600160a01b03166318160ddd6040518163ffffffff1660e01b8152600401602060405180830381865afa158015610c0f573d5f803e3d5ffd5b505050506040513d601f19601f82011682018060405250810190610c33919061451d565b83866001600160a01b031663705727b56040518163ffffffff1660e01b8152600401602060405180830381865afa158015610c70573d5f803e3d5ffd5b505050506040513d601f19601f82011682018060405250810190610c94919061451d565b610c9e9190614697565b610ca891906146c2565b604051632770a7eb60e21b81526001600160a01b0387166004820181905260248201869052919250639dc29fac906044015f604051808303815f87803b158015610cf0575f80fd5b505af1158015610d02573d5f803e3d5ffd5b505060405163d8b8785360e01b8152600481018490526001600160a01b038816925063d8b8785391506024015f604051808303815f87803b158015610d45575f80fd5b505af1158015610d57573d5f803e3d5ffd5b50506040516313f3df3160e31b8152600481018a90526001600160a01b0387169250639f9ef98891506024015f604051808303815f87803b158015610d9a575f80fd5b505af1158015610dac573d5f803e3d5ffd5b5050604051639e79eaa560e01b81526001600160a01b038c81166004830152602482018b905287169250639e79eaa591506044015f604051808303815f87803b158015610df7575f80fd5b505af1158015610e09573d5f803e3d5ffd5b50505050886001600160a01b0316336001600160a01b03167ffb80d861da582b723be2d19507ce3e03851820c464abea89156ec77e089b1ad98e8a87604051610e70939291906001600160a01b039390931683526020830191909152604082015260600190565b60405180910390a35050505050610e9360015f805160206147f183398151915255565b509695505050505050565b5f610ea76128e1565b610eb18383612b88565b5f610ebb84612911565b90505f610ec784612911565b90505f610f8d826001600160a01b031663705727b56040518163ffffffff1660e01b8152600401602060405180830381865afa158015610f09573d5f803e3d5ffd5b505050506040513d601f19601f82011682018060405250810190610f2d919061451d565b836001600160a01b031663961be3916040518163ffffffff1660e01b8152600401602060405180830381865afa158015610f69573d5f803e3d5ffd5b505050506040513d601f19601f82011682018060405250810190610b6e919061451d565b9050670de0b6b3a764000081111561110b57816001600160a01b031663313ce5676040518163ffffffff1660e01b8152600401602060405180830381865afa158015610fdb573d5f803e3d5ffd5b505050506040513d601f19601f82011682018060405250810190610fff9190614575565b61100a90600a614689565b836001600160a01b031663313ce5676040518163ffffffff1660e01b8152600401602060405180830381865afa158015611046573d5f803e3d5ffd5b505050506040513d601f19601f8201168201806040525081019061106a9190614575565b61107590600a614689565b6110f0846001600160a01b03166318160ddd6040518163ffffffff1660e01b8152600401602060405180830381865afa1580156110b4573d5f803e3d5ffd5b505050506040513d601f19601f820116820180604052508101906110d8919061451d565b6110ea670de0b6b3a7640000866146d5565b9061324e565b6110fa9190614697565b61110491906146c2565b935061110f565b5f93505b50505092915050565b6049546001600160a01b031633146111425760405162461bcd60e51b8152600401610532906144fa565b61114a61326d565b565b5f806111566128e1565b6001600160a01b03851661117c5760405162461bcd60e51b8152600401610532906144dc565b6001600160a01b0384166111a25760405162461bcd60e51b8152600401610532906144dc565b836001600160a01b0316856001600160a01b0316036111f25760405162461bcd60e51b815260206004820152600c60248201526b53414d455f4144445245535360a01b6044820152606401610532565b5f83116112345760405162461bcd60e51b815260206004820152601060248201526f16915493d7d19493d357d05353d5539560821b6044820152606401610532565b5f61123e86612911565b90505f61124a86612911565b9050816001600160a01b0316637e1317fa6040518163ffffffff1660e01b8152600401602060405180830381865afa158015611288573d5f803e3d5ffd5b505050506040513d601f19601f820116820180604052508101906112ac9190614534565b6001600160a01b0316816001600160a01b0316637e1317fa6040518163ffffffff1660e01b8152600401602060405180830381865afa1580156112f1573d5f803e3d5ffd5b505050506040513d601f19601f820116820180604052508101906113159190614534565b6001600160a01b03161461133b5760405162461bcd60e51b81526004016105329061454f565b6113468282876132cc565b909890975095505050505050565b61135c613573565b670de0b6b3a7640000811115611370575f80fd5b60475460408051918252602082018390527fbc341359e3658046c114365fc4bf0a6bfe11e53d72faf8ac4fe19b53aec6b3f9910160405180910390a1604755565b6113b9613573565b6001600160a01b0381165f908152604e602052604090205460ff16156114eb576001600160a01b0381165f908152604e60209081526040808320805460ff19169055604c825280832080546001600160a01b0319169055604d909152812054604b5490919061142a906001906146d5565b90505f604b5f01828154811061144257611442614710565b5f9182526020808320909101546001600160a01b03908116808452604d90925260408084208790559087168352822091909155604b805491925082918590811061148e5761148e614710565b5f91825260209091200180546001600160a01b0319166001600160a01b0392909216919091179055604b8054806114c7576114c7614724565b5f8281526020902081015f1990810180546001600160a01b03191690550190555050505b50565b6060604b5f0180548060200260200160405190810160405280929190818152602001828054801561154657602002820191905f5260205f20905b81546001600160a01b03168152600190910190602001808311611528575b5050505050905090565b611558613573565b61114a5f6135ce565b5f61156b82612911565b92915050565b6049546001600160a01b0316331461159b5760405162461bcd60e51b8152600401610532906144fa565b61114a61363e565b5f805f6115ae6128e1565b6001600160a01b0385166115d45760405162461bcd60e51b8152600401610532906144dc565b5f841161160b5760405162461bcd60e51b815260206004820152600560248201526404c49513d360dc1b6044820152606401610532565b5f61161586612911565b90506116218186612ee9565b929990985091965090945050505050565b5f81428110156116545760405162461bcd60e51b8152600401610532906144bb565b61165c6128aa565b6116646128e1565b5f85116116a15760405162461bcd60e51b815260206004820152600b60248201526a16915493d7d05353d5539560aa1b6044820152606401610532565b6001600160a01b0386166116c75760405162461bcd60e51b8152600401610532906144dc565b6001600160a01b0384166116ed5760405162461bcd60e51b8152600401610532906144dc565b855f6116f882612911565b905061170f6001600160a01b03831633838a612ebb565b61171a818888613686565b604080516001600160a01b038b81168252602082018b905291810183905291955087169033907ff5dd9317b9e63ac316ce44acc85f670b54b339cfa3e9076e1dd55065b922314b9060600160405180910390a3505061178560015f805160206147f183398151915255565b50949350505050565b5f8082428110156117b15760405162461bcd60e51b8152600401610532906144bb565b6117b96128aa565b6117c16128e1565b6001600160a01b0389166117e75760405162461bcd60e51b8152600401610532906144dc565b6001600160a01b03881661180d5760405162461bcd60e51b8152600401610532906144dc565b876001600160a01b0316896001600160a01b03160361185d5760405162461bcd60e51b815260206004820152600c60248201526b53414d455f4144445245535360a01b6044820152606401610532565b5f871161189f5760405162461bcd60e51b815260206004820152601060248201526f16915493d7d19493d357d05353d5539560821b6044820152606401610532565b6001600160a01b0385166118c55760405162461bcd60e51b8152600401610532906144dc565b885f6118d082612911565b90505f6118dc8b612911565b9050816001600160a01b0316637e1317fa6040518163ffffffff1660e01b8152600401602060405180830381865afa15801561191a573d5f803e3d5ffd5b505050506040513d601f19601f8201168201806040525081019061193e9190614534565b6001600160a01b0316816001600160a01b0316637e1317fa6040518163ffffffff1660e01b8152600401602060405180830381865afa158015611983573d5f803e3d5ffd5b505050506040513d601f19601f820116820180604052508101906119a79190614534565b6001600160a01b0316146119cd5760405162461bcd60e51b81526004016105329061454f565b6119d882828c6132cc565b9096509450858911156119fd5760405162461bcd60e51b8152600401610532906146e8565b611a126001600160a01b03841633848d612ebb565b60405162b64f3d60e51b8152600481018b90526001600160a01b038316906316c9e7a0906024015f604051808303815f87803b158015611a50575f80fd5b505af1158015611a62573d5f803e3d5ffd5b50506040516313f3df3160e31b8152600481018990526001600160a01b0384169250639f9ef98891506024015f604051808303815f87803b158015611aa5575f80fd5b505af1158015611ab7573d5f803e3d5ffd5b50505050806001600160a01b031663a0f0f604611ad687604754613992565b6040518263ffffffff1660e01b8152600401611af491815260200190565b5f604051808303815f87803b158015611b0b575f80fd5b505af1158015611b1d573d5f803e3d5ffd5b5050604051639e79eaa560e01b81526001600160a01b038b81166004830152602482018a905284169250639e79eaa591506044015f604051808303815f87803b158015611b68575f80fd5b505af1158015611b7a573d5f803e3d5ffd5b50505050876001600160a01b0316336001600160a01b03167f54787c404bb33c88e86f4baf88183a3b0141d0a848e6a9f7a13b66ae3a9b73d18e8e8e8b604051611beb94939291906001600160a01b0394851681529290931660208301526040820152606081019190915260800190565b60405180910390a3505050611c0c60015f805160206147f183398151915255565b50965096945050505050565b611c20613573565b604080548151632ecee81360e21b815291516001600160a01b039091169163bb3ba04c9160048083019260209291908290030181865afa158015611c66573d5f803e3d5ffd5b505050506040513d601f19601f82011682018060405250810190611c8a9190614534565b604a80546001600160a01b0319166001600160a01b0392909216918217905560405181907f078c3b417dadf69374a59793b829c52001247130433427049317bde56607b1b7905f90a3565b611cdd613573565b670de0b6b3a7640000811115611cf1575f80fd5b60485460408051918252602082018390527f193a6231bcc3d7de036c920f05884fe0d8e1dad662793abd049d33b4d83a45cd910160405180910390a1604855565b5f80611d3c6128e1565b6001600160a01b038516611d625760405162461bcd60e51b8152600401610532906144dc565b6001600160a01b038416611d885760405162461bcd60e51b8152600401610532906144dc565b5f8311611dbf5760405162461bcd60e51b815260206004820152600560248201526404c49513d360dc1b6044820152606401610532565b5f611dc986612911565b90505f611dd586612911565b9050816001600160a01b0316637e1317fa6040518163ffffffff1660e01b8152600401602060405180830381865afa158015611e13573d5f803e3d5ffd5b505050506040513d601f19601f82011682018060405250810190611e379190614534565b6001600160a01b0316816001600160a01b0316637e1317fa6040518163ffffffff1660e01b8152600401602060405180830381865afa158015611e7c573d5f803e3d5ffd5b505050506040513d601f19601f82011682018060405250810190611ea09190614534565b6001600160a01b031614611ec65760405162461bcd60e51b81526004016105329061454f565b5f611ed18287612ee9565b9297509550909150819050611f1a5760405162461bcd60e51b815260206004820152600f60248201526e09c9ea8be8a9c9eaa8e90be8682a69608b1b6044820152606401610532565b670de0b6b3a7640000611fc3836001600160a01b031663705727b56040518163ffffffff1660e01b8152600401602060405180830381865afa158015611f62573d5f803e3d5ffd5b505050506040513d601f19601f82011682018060405250810190611f86919061451d565b87856001600160a01b031663961be3916040518163ffffffff1660e01b8152600401602060405180830381865afa158015610b40573d5f803e3d5ffd5b10156120015760405162461bcd60e51b815260206004820152600d60248201526c434f565f524154494f5f4c4f5760981b6044820152606401610532565b505050935093915050565b7ff0c57e16840df040f15088dc2f81fe391c3923bec73e23a9662efc9c229c6a008054600160401b810460ff16159067ffffffffffffffff165f811580156120515750825b90505f8267ffffffffffffffff16600114801561206d5750303b155b90508115801561207b575080155b156120995760405163f92ee8a960e01b815260040160405180910390fd5b845467ffffffffffffffff1916600117855583156120c357845460ff60401b1916600160401b1785555b6120cc336139af565b6120d46139c0565b6120dc6139c8565b604080546001600160a01b0319166001600160a01b03881690811782558151632ecee81360e21b81529151909163bb3ba04c9160048083019260209291908290030181865afa158015612131573d5f803e3d5ffd5b505050506040513d601f19601f820116820180604052508101906121559190614534565b604a80546001600160a01b0319166001600160a01b03928316179055604080548151631bf01e9b60e01b81529151921691631bf01e9b916004808201926020929091908290030181865afa1580156121af573d5f803e3d5ffd5b505050506040513d601f19601f820116820180604052508101906121d39190614534565b604180546001600160a01b03929092166001600160a01b03199283161790556512309ce54000604255600760435567053b1daa2fd98364604455670493b9f4e9de52f760455566016bcc41e90000604655670de0b6b3a764000060475566470de4df8200006048556049805490911633179055831561228c57845460ff60401b19168555604051600181527fc7f505b2f371ae2175ee4913f4499e1f2633a7b5936321eed1cdaeb6115181d29060200160405180910390a15b505050505050565b61229c613573565b6001600160a01b0381166122c25760405162461bcd60e51b8152600401610532906144dc565b6049546040516001600160a01b038084169216907faa37e6ba252409ccb1daf704a52d3f2fb61265b2f480371d6041193f1cf16ac2905f90a3604980546001600160a01b0319166001600160a01b0392909216919091179055565b612325613573565b6001600160a01b03821661234b5760405162461bcd60e51b8152600401610532906144dc565b6001600160a01b0381166123715760405162461bcd60e51b8152600401610532906144dc565b6001600160a01b0382165f908152604e602052604090205460ff16156123c85760405162461bcd60e51b815260206004820152600c60248201526b41535345545f45584953545360a01b6044820152606401610532565b6123d282826139e8565b806001600160a01b0316826001600160a01b03167f0bb5715f0f217c2fe9a0c877ea87d474380c641102f3440ee2a4c8b9d979091860405160405180910390a35050565b61241e613573565b670de0b6b3a7640000841115612432575f80fd5b5f831161243d575f80fd5b604254604354604454604554604080519485526020850189905284019290925260608301869052608083015260a0820184905260c082015260e081018290527f4f79edc127ae2274ce8320073956fad0b9e727d4ed275b2d3665a75edaffb7a3906101000160405180910390a1604293909355604391909155604455604555565b6124c6613573565b6001600160a01b0381166124ef57604051631e4fbdf760e01b81525f6004820152602401610532565b6114eb816135ce565b612500613573565b670de0b6b3a7640000811115612514575f80fd5b60465460408051918252602082018390527fbb59363309f944f517c724d17a8f3c89d62efc951e2d7768f7a9d7f307bcad7f910160405180910390a1604655565b5f60405f9054906101000a90046001600160a01b03166001600160a01b031663bb3ba04c6040518163ffffffff1660e01b8152600401602060405180830381865afa1580156125a6573d5f803e3d5ffd5b505050506040513d601f19601f8201168201806040525081019061050b9190614534565b5f8080805b604b54811015612878575f6125e382613abd565b604a546041549192505f916001600160a01b039182169163248391ff9185911661260c82613aed565b6001600160a01b031663313ce5676040518163ffffffff1660e01b8152600401602060405180830381865afa158015612647573d5f803e3d5ffd5b505050506040513d601f19601f8201168201806040525081019061266b9190614575565b61267690600a614689565b6040518463ffffffff1660e01b815260040161269493929190614738565b602060405180830381865afa1580156126af573d5f803e3d5ffd5b505050506040513d601f19601f820116820180604052508101906126d3919061451d565b90505f6126df83613aed565b6001600160a01b031663313ce5676040518163ffffffff1660e01b8152600401602060405180830381865afa15801561271a573d5f803e3d5ffd5b505050506040513d601f19601f8201168201806040525081019061273e9190614575565b61274990601261475c565b61275490600a614689565b9050818161276185613aed565b6001600160a01b031663961be3916040518163ffffffff1660e01b8152600401602060405180830381865afa15801561279c573d5f803e3d5ffd5b505050506040513d601f19601f820116820180604052508101906127c0919061451d565b6127ca9190614697565b6127d49190614697565b6127de9087614775565b955081816127eb85613aed565b6001600160a01b031663705727b56040518163ffffffff1660e01b8152600401602060405180830381865afa158015612826573d5f803e3d5ffd5b505050506040513d601f19601f8201168201806040525081019061284a919061451d565b6128549190614697565b61285e9190614697565b6128689086614775565b94505050508060010190506125cf565b50801580612884575081155b1561289957670de0b6b3a76400009250505090565b6128a38282613214565b9250505090565b5f805160206147f18339815191528054600119016128db57604051633ee5aeb560e01b815260040160405180910390fd5b60029055565b5f805160206147d18339815191525460ff161561114a5760405163d93c066560e01b815260040160405180910390fd5b6001600160a01b0381165f908152604e602052604081205460ff1661296a5760405162461bcd60e51b815260206004820152600f60248201526e1054d4d15517d393d517d1561254d5608a1b6044820152606401610532565b61156b82613aed565b5f8061297f8686612ee9565b50919350915050818411156129a65760405162461bcd60e51b8152600401610532906146e8565b604051632770a7eb60e21b8152336004820152602481018690526001600160a01b03871690639dc29fac906044015f604051808303815f87803b1580156129eb575f80fd5b505af11580156129fd573d5f803e3d5ffd5b50506040516313f3df3160e31b8152600481018590526001600160a01b0389169250639f9ef98891506024015f604051808303815f87803b158015612a40575f80fd5b505af1158015612a52573d5f803e3d5ffd5b505060405163d8b8785360e01b8152600481018490526001600160a01b038916925063d8b8785391506024015f604051808303815f87803b158015612a95575f80fd5b505af1158015612aa7573d5f803e3d5ffd5b5050604051639e79eaa560e01b81526001600160a01b0386811660048301526024820186905289169250639e79eaa591506044015f604051808303815f87803b158015612af2575f80fd5b505af1158015612b04573d5f803e3d5ffd5b5050505050949350505050565b60015f805160206147f183398151915255565b6040516001600160a01b03838116602483015260448201839052612b8391859182169063a9059cbb906064015b604051602081830303815290604052915060e01b6020820180516001600160e01b038381831617835250505050613b0a565b505050565b5f60405f9054906101000a90046001600160a01b03166001600160a01b031663bb3ba04c6040518163ffffffff1660e01b8152600401602060405180830381865afa158015612bd9573d5f803e3d5ffd5b505050506040513d601f19601f82011682018060405250810190612bfd9190614534565b90505f612c0984613aed565b6001600160a01b031663313ce5676040518163ffffffff1660e01b8152600401602060405180830381865afa158015612c44573d5f803e3d5ffd5b505050506040513d601f19601f82011682018060405250810190612c689190614575565b612c7390600a614689565b90505f612c7f84613aed565b6001600160a01b031663313ce5676040518163ffffffff1660e01b8152600401602060405180830381865afa158015612cba573d5f803e3d5ffd5b505050506040513d601f19601f82011682018060405250810190612cde9190614575565b612ce990600a614689565b60415460405163248391ff60e01b81529192505f916001600160a01b038087169263248391ff92612d22928b9216908890600401614738565b602060405180830381865afa158015612d3d573d5f803e3d5ffd5b505050506040513d601f19601f82011682018060405250810190612d61919061451d565b60415460405163248391ff60e01b81529192505f916001600160a01b038088169263248391ff92612d9a928b9216908890600401614738565b602060405180830381865afa158015612db5573d5f803e3d5ffd5b505050506040513d601f19601f82011682018060405250810190612dd9919061451d565b905081811115612e4d5760485481670de0b6b3a7640000612dfa85836146d5565b612e049190614697565b612e0e91906146c2565b1115612e485760405162461bcd60e51b8152602060048201526009602482015268282924a1a2afa222ab60b91b6044820152606401610532565b612eb2565b60485482670de0b6b3a7640000612e6484836146d5565b612e6e9190614697565b612e7891906146c2565b1115612eb25760405162461bcd60e51b8152602060048201526009602482015268282924a1a2afa222ab60b91b6044820152606401610532565b50505050505050565b612ee384856001600160a01b03166323b872dd868686604051602401612b5193929190614738565b50505050565b5f805f80856001600160a01b03166318160ddd6040518163ffffffff1660e01b8152600401602060405180830381865afa158015612f29573d5f803e3d5ffd5b505050506040513d601f19601f82011682018060405250810190612f4d919061451d565b85876001600160a01b031663705727b56040518163ffffffff1660e01b8152600401602060405180830381865afa158015612f8a573d5f803e3d5ffd5b505050506040513d601f19601f82011682018060405250810190612fae919061451d565b612fb89190614697565b612fc291906146c2565b92505f831161300b5760405162461bcd60e51b815260206004820152601560248201527424a729aaa32324a1a4a2a72a2fa624a8afa12aa92760591b6044820152606401610532565b6130e06042546043546044546045548a6001600160a01b031663961be3916040518163ffffffff1660e01b8152600401602060405180830381865afa158015613056573d5f803e3d5ffd5b505050506040513d601f19601f8201168201806040525081019061307a919061451d565b8b6001600160a01b031663705727b56040518163ffffffff1660e01b8152600401602060405180830381865afa1580156130b6573d5f803e3d5ffd5b505050506040513d601f19601f820116820180604052508101906130da919061451d565b89613b6b565b91505f6130eb6125ca565b9050600191505f670de0b6b3a76400008210156131135761310c858361324e565b9050613116565b50835b838111156131ff5761312884826146d5565b955085886001600160a01b031663961be3916040518163ffffffff1660e01b8152600401602060405180830381865afa158015613167573d5f803e3d5ffd5b505050506040513d601f19601f8201168201806040525081019061318b919061451d565b10156131fa57876001600160a01b031663961be3916040518163ffffffff1660e01b8152600401602060405180830381865afa1580156131cd573d5f803e3d5ffd5b505050506040513d601f19601f820116820180604052508101906131f1919061451d565b95505f93505f92505b613209565b8093505f95505f92505b505092959194509250565b5f816132216002826146c2565b613233670de0b6b3a764000086614697565b61323d9190614775565b61324791906146c2565b9392505050565b5f670de0b6b3a76400006132636002826146c2565b6132338486614697565b613275613c77565b5f805160206147d1833981519152805460ff191681557f5db9ee0a495bf2e6ff9c91a7834c1ba4fdd244a5e8aa4e537bd38aeae4b073aa335b6040516001600160a01b03909116815260200160405180910390a150565b5f805f6132da868686613ca6565b905080856001600160a01b031663961be3916040518163ffffffff1660e01b8152600401602060405180830381865afa158015613319573d5f803e3d5ffd5b505050506040513d601f19601f8201168201806040525081019061333d919061451d565b101561337f5760405162461bcd60e51b81526020600482015260116024820152700929ca6aa8c8c9286928a9ca8be8682a69607b1b6044820152606401610532565b5f6134576042546043546044546045548b6001600160a01b031663961be3916040518163ffffffff1660e01b8152600401602060405180830381865afa1580156133cb573d5f803e3d5ffd5b505050506040513d601f19601f820116820180604052508101906133ef919061451d565b8c6001600160a01b031663705727b56040518163ffffffff1660e01b8152600401602060405180830381865afa15801561342b573d5f803e3d5ffd5b505050506040513d601f19601f8201168201806040525081019061344f919061451d565b8b6001613e61565b90505f6135306042546043546044546045548b6001600160a01b031663961be3916040518163ffffffff1660e01b8152600401602060405180830381865afa1580156134a5573d5f803e3d5ffd5b505050506040513d601f19601f820116820180604052508101906134c9919061451d565b8c6001600160a01b031663705727b56040518163ffffffff1660e01b8152600401602060405180830381865afa158015613505573d5f803e3d5ffd5b505050506040513d601f19601f82011682018060405250810190613529919061451d565b895f613e61565b90505f61353d8383613f1a565b90505f61354a858361324e565b905061355881604654613f38565b955061356486826146d5565b96505050505050935093915050565b336135a57f9016d09d72d40fdae2fd8ceac6b6234c7706214fd39c1cd1e609a0528c199300546001600160a01b031690565b6001600160a01b03161461114a5760405163118cdaa760e01b8152336004820152602401610532565b7f9016d09d72d40fdae2fd8ceac6b6234c7706214fd39c1cd1e609a0528c19930080546001600160a01b031981166001600160a01b03848116918217845560405192169182907f8be0079c531659141344cd1fd0a4f28419497f9722a3daafe3b4186f6b6457e0905f90a3505050565b6136466128e1565b5f805160206147d1833981519152805460ff191660011781557f62e78cea01bee320cd4e420270b5ea74000d11b0c9f74754ebdbfc544b05a258336132ae565b5f80846001600160a01b03166318160ddd6040518163ffffffff1660e01b8152600401602060405180830381865afa1580156136c4573d5f803e3d5ffd5b505050506040513d601f19601f820116820180604052508101906136e8919061451d565b90505f856001600160a01b031663705727b56040518163ffffffff1660e01b8152600401602060405180830381865afa158015613727573d5f803e3d5ffd5b505050506040513d601f19601f8201168201806040525081019061374b919061451d565b90505f6137c46042546043546044546045548b6001600160a01b031663961be3916040518163ffffffff1660e01b8152600401602060405180830381865afa158015613799573d5f803e3d5ffd5b505050506040513d601f19601f820116820180604052508101906137bd919061451d565b878c613f43565b9050815f036137de576137d781876146d5565b9350613801565b81836137ea83896146d5565b6137f49190614697565b6137fe91906146c2565b93505b5f61380a6125ca565b9050670de0b6b3a7640000811015613829576138268582613214565b94505b5f85116138705760405162461bcd60e51b8152602060048201526015602482015274125394d551919250d251539517d3125457d3525395605a1b6044820152606401610532565b60405162b64f3d60e51b8152600481018890526001600160a01b038916906316c9e7a0906024015f604051808303815f87803b1580156138ae575f80fd5b505af11580156138c0573d5f803e3d5ffd5b50505050876001600160a01b031663a0f0f60483896138df91906146d5565b6040518263ffffffff1660e01b81526004016138fd91815260200190565b5f604051808303815f87803b158015613914575f80fd5b505af1158015613926573d5f803e3d5ffd5b50506040516340c10f1960e01b81526001600160a01b038981166004830152602482018990528b1692506340c10f1991506044015f604051808303815f87803b158015613971575f80fd5b505af1158015613983573d5f803e3d5ffd5b50505050505050509392505050565b5f6132476139a883670de0b6b3a76400006146d5565b849061324e565b6139b7613fe3565b6114eb8161402c565b612b11613fe3565b6139d0613fe3565b5f805160206147d1833981519152805460ff19169055565b6001600160a01b0382165f908152604e602052604090205460ff1615613a35576001600160a01b039182165f908152604c6020526040902080546001600160a01b03191691909216179055565b6001600160a01b038083165f818152604e60209081526040808320805460ff19166001908117909155604c835281842080549688166001600160a01b0319978816179055604b8054604d909452918420839055820181559091527f17b0af156a929edf60c351f3df2d53ed643fdd750aef9eda90dc7c8759a104a80180549092161790555050565b5f604b5f018281548110613ad357613ad3614710565b5f918252602090912001546001600160a01b031692915050565b6001600160a01b039081165f908152604c60205260409020541690565b5f613b1e6001600160a01b03841683614034565b905080515f14158015613b42575080806020019051810190613b409190614788565b155b15612b8357604051635274afe760e01b81526001600160a01b0384166004820152602401610532565b5f80613b778585613214565b9050670de0b6b3a76400008110613b91575f915050613c6c565b828411613ba1575f915050613c6c565b5f83861115613bbb57613bb484876146d5565b9050613bbe565b505f5b5f613bd3613bcc86886146d5565b8390613214565b90505f613be38c8c8c8c88614041565b90505f613bf38d8d8d8d87614041565b90505f613c0b8e8e8e8e670de0b6b3a7640000614041565b90505f613c18828a61324e565b613c26846110ea8c8e6146d5565b613c309190614775565b90505f613c3d8b8661324e565b905080821115613c6057613c5181836146d5565b98505050505050505050613c6c565b5f985050505050505050505b979650505050505050565b5f805160206147d18339815191525460ff1661114a57604051638dfc202b60e01b815260040160405180910390fd5b5f613d6f846001600160a01b0316632495a5996040518163ffffffff1660e01b8152600401602060405180830381865afa158015613ce6573d5f803e3d5ffd5b505050506040513d601f19601f82011682018060405250810190613d0a9190614534565b846001600160a01b0316632495a5996040518163ffffffff1660e01b8152600401602060405180830381865afa158015613d46573d5f803e3d5ffd5b505050506040513d601f19601f82011682018060405250810190613d6a9190614534565b612b88565b836001600160a01b031663313ce5676040518163ffffffff1660e01b8152600401602060405180830381865afa158015613dab573d5f803e3d5ffd5b505050506040513d601f19601f82011682018060405250810190613dcf9190614575565b613dda90600a614689565b836001600160a01b031663313ce5676040518163ffffffff1660e01b8152600401602060405180830381865afa158015613e16573d5f803e3d5ffd5b505050506040513d601f19601f82011682018060405250810190613e3a9190614575565b613e4590600a614689565b613e4f9084614697565b613e5991906146c2565b949350505050565b5f80613e6d8686613214565b90505f8315613e8b57613e8486610b6e878a614775565b9050613e9c565b613e9986610b6e878a6146d5565b90505b808203613ead575f92505050613f0e565b5f613ebb8c8c8c8c87614041565b90505f613ecb8d8d8d8d87614041565b905082841115613ef757613eec613ee284866146d5565b610b6e84846146d5565b945050505050613f0e565b613eec613f0485856146d5565b610b6e83856146d5565b98975050505050505050565b5f81613f2e84670de0b6b3a7640000614775565b61324791906146d5565b5f613247838361324e565b5f825f03613f5257505f613c6c565b5f613f5d8585613214565b9050670de0b6b3a76400008111613f77575f915050613c6c565b5f613f8f613f858587614775565b610b6e8689614775565b90505f613f9f8b8b8b8b87614041565b90505f613faf8c8c8c8c87614041565b9050613fbb878361324e565b613fc9826110ea898b614775565b613fd391906146d5565b9c9b505050505050505050505050565b7ff0c57e16840df040f15088dc2f81fe391c3923bec73e23a9662efc9c229c6a0054600160401b900460ff1661114a57604051631afcd79f60e31b815260040160405180910390fd5b6124c6613fe3565b606061324783835f6140b7565b5f8282101561405b5761405482856146d5565b90506140ae565b6140546b033b2e3c9fd0803ce8000000670de0b6b3a764000061409388826140838589614697565b61408d91906146c2565b90614150565b61409d9190614697565b6140a791906146c2565b8790613214565b95945050505050565b6060814710156140dc5760405163cd78605960e01b8152306004820152602401610532565b5f80856001600160a01b031684866040516140f791906147a7565b5f6040518083038185875af1925050503d805f8114614131576040519150601f19603f3d011682016040523d82523d5f602084013e614136565b606091505b50915091506141468683836141c7565b9695505050505050565b5f61415c6002836147bd565b5f03614174576b033b2e3c9fd0803ce8000000614176565b825b90506141836002836146c2565b91505b811561156b576141968384614223565b92506141a36002836147bd565b156141b5576141b28184614223565b90505b6141c06002836146c2565b9150614186565b6060826141dc576141d78261423c565b613247565b81511580156141f357506001600160a01b0384163b155b1561421c57604051639996b31560e01b81526001600160a01b0385166004820152602401610532565b5080613247565b5f6b033b2e3c9fd0803ce80000006132636002826146c2565b80511561424c5780518082602001fd5b604051630a12f52160e11b815260040160405180910390fd5b6001600160a01b03811681146114eb575f80fd5b5f805f805f60a0868803121561428d575f80fd5b853561429881614265565b9450602086013593506040860135925060608601356142b681614265565b949793965091946080013592915050565b5f602082840312156142d7575f80fd5b813561324781614265565b5f805f805f8060c087890312156142f7575f80fd5b863561430281614265565b9550602087013561431281614265565b94506040870135935060608701359250608087013561433081614265565b8092505060a087013590509295509295509295565b5f8060408385031215614356575f80fd5b823561436181614265565b9150602083013561437181614265565b809150509250929050565b5f805f6060848603121561438e575f80fd5b833561439981614265565b925060208401356143a981614265565b929592945050506040919091013590565b5f602082840312156143ca575f80fd5b5035919050565b602080825282518282018190525f9190848201906040850190845b818110156144115783516001600160a01b0316835292840192918401916001016143ec565b50909695505050505050565b5f806040838503121561442e575f80fd5b823561443981614265565b946020939093013593505050565b5f805f806080858703121561445a575f80fd5b843561446581614265565b935060208501359250604085013561447c81614265565b9396929550929360600135925050565b5f805f806080858703121561449f575f80fd5b5050823594602084013594506040840135936060013592509050565b6020808252600790820152661156141254915160ca1b604082015260600190565b6020808252600490820152635a45524f60e01b604082015260600190565b6020808252600990820152682327a92124a22222a760b91b604082015260600190565b5f6020828403121561452d575f80fd5b5051919050565b5f60208284031215614544575f80fd5b815161324781614265565b6020808252600c908201526b444946465f4147475f41434360a01b604082015260600190565b5f60208284031215614585575f80fd5b815160ff81168114613247575f80fd5b634e487b7160e01b5f52601160045260245ffd5b600181815b808511156145e357815f19048211156145c9576145c9614595565b808516156145d657918102915b93841c93908002906145ae565b509250929050565b5f826145f95750600161156b565b8161460557505f61156b565b816001811461461b576002811461462557614641565b600191505061156b565b60ff84111561463657614636614595565b50506001821b61156b565b5060208310610133831016604e8410600b8410161715614664575081810a61156b565b61466e83836145a9565b805f190482111561468157614681614595565b029392505050565b5f61324760ff8416836145eb565b808202811582820484141761156b5761156b614595565b634e487b7160e01b5f52601260045260245ffd5b5f826146d0576146d06146ae565b500490565b8181038181111561156b5761156b614595565b6020808252600e908201526d414d4f554e545f544f4f5f4c4f5760901b604082015260600190565b634e487b7160e01b5f52603260045260245ffd5b634e487b7160e01b5f52603160045260245ffd5b6001600160a01b039384168152919092166020820152604081019190915260600190565b60ff828116828216039081111561156b5761156b614595565b8082018082111561156b5761156b614595565b5f60208284031215614798575f80fd5b81518015158114613247575f80fd5b5f82518060208501845e5f920191825250919050565b5f826147cb576147cb6146ae565b50069056fecd5ed15c6e187e77e9aee88184c21f4f2182ab5827cb3b7e07fbedcd63f033009b779b17422d0df92223018b32b4d1fa46e071723d6817e2486d003becc55f00a264697066735822122010b7b66d635fb33e65d256906434a91f7aeee3b9d971f2b8f993d0617b197f8764736f6c63430008190033",
    "sourcePath": "c:/Users/Utente/Source/repos/baluni-contracts/contracts/pools/platypus/PlatypusPool.sol",
    "compiler": {
        "name": "solc",
        "version": "0.8.25+commit.b61c2a91"
    },
    "functionHashes": {
        "USDC()": "89a30271",
        "addAsset(address,address)": "da489997",
        "assetOf(address)": "71f96211",
        "deposit(address,uint256,address,uint256)": "90d25074",
        "getAssets()": "67e4ac2c",
        "getC1()": "a76f54d2",
        "getDev()": "09bb9267",
        "getEquilibriumCoverageRatio()": "05f7bc26",
        "getHaircutRate()": "7fdd5a8e",
        "getMaxPriceDeviation()": "ddcbc516",
        "getPriceOracle()": "fca513a8",
        "getRetentionRatio()": "cb733d7a",
        "getSlippageParamK()": "55af008a",
        "getSlippageParamN()": "7727c655",
        "getTokenAddresses()": "ee8c24b8",
        "getXThreshold()": "7a1c36d1",
        "initialize(address)": "c4d66de8",
        "owner()": "8da5cb5b",
        "pause()": "8456cb59",
        "paused()": "5c975abb",
        "quoteMaxInitialAssetWithdrawable(address,address)": "2a803b5e",
        "quotePotentialSwap(address,address,uint256)": "43c2e2f5",
        "quotePotentialWithdraw(address,uint256)": "907448ed",
        "quotePotentialWithdrawFromOtherAsset(address,address,uint256)": "a4275ceb",
        "recoverUserFunds(address)": "0d4636b5",
        "registry()": "7b103999",
        "removeAsset(address)": "4a5e42b1",
        "renounceOwnership()": "715018a6",
        "setDev(address)": "d477f05f",
        "setHaircutRate(uint256)": "f57e84d5",
        "setMaxPriceDeviation(uint256)": "9ee4c057",
        "setPriceOracle()": "9a55ea8e",
        "setRetentionRatio(uint256)": "44db964a",
        "setSlippageParams(uint256,uint256,uint256,uint256)": "df220181",
        "swap(address,address,uint256,uint256,address,uint256)": "9908fc8b",
        "transferOwnership(address)": "f2fde38b",
        "unpause()": "3f4ba83a",
        "withdraw(address,uint256,uint256,address,uint256)": "09a5fca3",
        "withdrawFromOtherAsset(address,address,uint256,uint256,address,uint256)": "0f91f06f"
    },
    "gasEstimates": {
        "creation": {
            "codeDepositCost": "3700400",
            "executionCost": "4177",
            "totalCost": "3704577"
        },
        "external": {
            "USDC()": "2404",
            "addAsset(address,address)": "infinite",
            "assetOf(address)": "infinite",
            "deposit(address,uint256,address,uint256)": "infinite",
            "getAssets()": "infinite",
            "getC1()": "2413",
            "getDev()": "2410",
            "getEquilibriumCoverageRatio()": "infinite",
            "getHaircutRate()": "2413",
            "getMaxPriceDeviation()": "2413",
            "getPriceOracle()": "infinite",
            "getRetentionRatio()": "2347",
            "getSlippageParamK()": "2348",
            "getSlippageParamN()": "2347",
            "getTokenAddresses()": "infinite",
            "getXThreshold()": "2369",
            "initialize(address)": "infinite",
            "owner()": "2420",
            "pause()": "infinite",
            "paused()": "infinite",
            "quoteMaxInitialAssetWithdrawable(address,address)": "infinite",
            "quotePotentialSwap(address,address,uint256)": "infinite",
            "quotePotentialWithdraw(address,uint256)": "infinite",
            "quotePotentialWithdrawFromOtherAsset(address,address,uint256)": "infinite",
            "recoverUserFunds(address)": "infinite",
            "registry()": "2447",
            "removeAsset(address)": "infinite",
            "renounceOwnership()": "infinite",
            "setDev(address)": "30537",
            "setHaircutRate(uint256)": "28092",
            "setMaxPriceDeviation(uint256)": "28071",
            "setPriceOracle()": "infinite",
            "setRetentionRatio(uint256)": "28116",
            "setSlippageParams(uint256,uint256,uint256,uint256)": "102396",
            "swap(address,address,uint256,uint256,address,uint256)": "infinite",
            "transferOwnership(address)": "infinite",
            "unpause()": "infinite",
            "withdraw(address,uint256,uint256,address,uint256)": "infinite",
            "withdrawFromOtherAsset(address,address,uint256,uint256,address,uint256)": "infinite"
        },
        "internal": {
            "_addAsset(address,contract Asset)": "121478",
            "_assetOf(address)": "infinite",
            "_checkPriceDeviation(address,address)": "infinite",
            "_containsAsset(address)": "infinite",
            "_deposit(contract Asset,uint256,address)": "infinite",
            "_getAsset(address)": "2213",
            "_getEquilibriumCoverageRatio()": "infinite",
            "_getKeyAtIndex(uint256)": "4335",
            "_quoteFrom(contract Asset,contract Asset,uint256)": "infinite",
            "_quoteIdealToAmount(contract Asset,contract Asset,uint256)": "infinite",
            "_sizeOfAssetList()": "infinite",
            "_withdraw(contract Asset,uint256,uint256,address)": "infinite",
            "_withdrawFrom(contract Asset,uint256)": "infinite"
        }
    }
}