{
  "_format": "hh-sol-artifact-1",
  "contractName": "BaluniV1AgentFactory",
  "sourceName": "contracts/BaluniV1AgentFactory.sol",
  "abi": [
    {
      "inputs": [
        {
          "internalType": "address",
          "name": "target",
          "type": "address"
        }
      ],
      "name": "AddressEmptyCode",
      "type": "error"
    },
    {
      "inputs": [
        {
          "internalType": "address",
          "name": "implementation",
          "type": "address"
        }
      ],
      "name": "ERC1967InvalidImplementation",
      "type": "error"
    },
    {
      "inputs": [],
      "name": "ERC1967NonPayable",
      "type": "error"
    },
    {
      "inputs": [],
      "name": "FailedInnerCall",
      "type": "error"
    },
    {
      "inputs": [],
      "name": "InvalidInitialization",
      "type": "error"
    },
    {
      "inputs": [],
      "name": "NotInitializing",
      "type": "error"
    },
    {
      "inputs": [
        {
          "internalType": "address",
          "name": "owner",
          "type": "address"
        }
      ],
      "name": "OwnableInvalidOwner",
      "type": "error"
    },
    {
      "inputs": [
        {
          "internalType": "address",
          "name": "account",
          "type": "address"
        }
      ],
      "name": "OwnableUnauthorizedAccount",
      "type": "error"
    },
    {
      "inputs": [],
      "name": "UUPSUnauthorizedCallContext",
      "type": "error"
    },
    {
      "inputs": [
        {
          "internalType": "bytes32",
          "name": "slot",
          "type": "bytes32"
        }
      ],
      "name": "UUPSUnsupportedProxiableUUID",
      "type": "error"
    },
    {
      "anonymous": false,
      "inputs": [
        {
          "indexed": false,
          "internalType": "address",
          "name": "user",
          "type": "address"
        },
        {
          "indexed": false,
          "internalType": "address",
          "name": "agent",
          "type": "address"
        }
      ],
      "name": "AgentCreated",
      "type": "event"
    },
    {
      "anonymous": false,
      "inputs": [
        {
          "indexed": false,
          "internalType": "uint64",
          "name": "version",
          "type": "uint64"
        }
      ],
      "name": "Initialized",
      "type": "event"
    },
    {
      "anonymous": false,
      "inputs": [
        {
          "indexed": true,
          "internalType": "address",
          "name": "previousOwner",
          "type": "address"
        },
        {
          "indexed": true,
          "internalType": "address",
          "name": "newOwner",
          "type": "address"
        }
      ],
      "name": "OwnershipTransferred",
      "type": "event"
    },
    {
      "anonymous": false,
      "inputs": [
        {
          "indexed": true,
          "internalType": "address",
          "name": "implementation",
          "type": "address"
        }
      ],
      "name": "Upgraded",
      "type": "event"
    },
    {
      "inputs": [],
      "name": "UPGRADE_INTERFACE_VERSION",
      "outputs": [
        {
          "internalType": "string",
          "name": "",
          "type": "string"
        }
      ],
      "stateMutability": "view",
      "type": "function"
    },
    {
      "inputs": [],
      "name": "changeImplementation",
      "outputs": [],
      "stateMutability": "nonpayable",
      "type": "function"
    },
    {
      "inputs": [
        {
          "internalType": "address",
          "name": "user",
          "type": "address"
        }
      ],
      "name": "getAgentAddress",
      "outputs": [
        {
          "internalType": "address",
          "name": "",
          "type": "address"
        }
      ],
      "stateMutability": "view",
      "type": "function"
    },
    {
      "inputs": [
        {
          "internalType": "address",
          "name": "user",
          "type": "address"
        }
      ],
      "name": "getOrCreateAgent",
      "outputs": [
        {
          "internalType": "address",
          "name": "",
          "type": "address"
        }
      ],
      "stateMutability": "nonpayable",
      "type": "function"
    },
    {
      "inputs": [
        {
          "internalType": "address",
          "name": "_registry",
          "type": "address"
        }
      ],
      "name": "initialize",
      "outputs": [],
      "stateMutability": "nonpayable",
      "type": "function"
    },
    {
      "inputs": [],
      "name": "owner",
      "outputs": [
        {
          "internalType": "address",
          "name": "",
          "type": "address"
        }
      ],
      "stateMutability": "view",
      "type": "function"
    },
    {
      "inputs": [],
      "name": "proxiableUUID",
      "outputs": [
        {
          "internalType": "bytes32",
          "name": "",
          "type": "bytes32"
        }
      ],
      "stateMutability": "view",
      "type": "function"
    },
    {
      "inputs": [],
      "name": "registry",
      "outputs": [
        {
          "internalType": "contract IBaluniV1Registry",
          "name": "",
          "type": "address"
        }
      ],
      "stateMutability": "view",
      "type": "function"
    },
    {
      "inputs": [
        {
          "internalType": "address",
          "name": "_registry",
          "type": "address"
        },
        {
          "internalType": "uint64",
          "name": "version",
          "type": "uint64"
        }
      ],
      "name": "reinitialize",
      "outputs": [],
      "stateMutability": "nonpayable",
      "type": "function"
    },
    {
      "inputs": [],
      "name": "renounceOwnership",
      "outputs": [],
      "stateMutability": "nonpayable",
      "type": "function"
    },
    {
      "inputs": [
        {
          "internalType": "address",
          "name": "newOwner",
          "type": "address"
        }
      ],
      "name": "transferOwnership",
      "outputs": [],
      "stateMutability": "nonpayable",
      "type": "function"
    },
    {
      "inputs": [
        {
          "internalType": "address",
          "name": "newImplementation",
          "type": "address"
        },
        {
          "internalType": "bytes",
          "name": "data",
          "type": "bytes"
        }
      ],
      "name": "upgradeToAndCall",
      "outputs": [],
      "stateMutability": "payable",
      "type": "function"
    },
    {
      "inputs": [
        {
          "internalType": "address",
          "name": "",
          "type": "address"
        }
      ],
      "name": "userAgents",
      "outputs": [
        {
          "internalType": "contract BaluniV1Agent",
          "name": "",
          "type": "address"
        }
      ],
      "stateMutability": "view",
      "type": "function"
    }
  ],
  "bytecode": "0x60a0604052306080523480156012575f80fd5b506080516127566100395f395f8181610b8601528181610baf0152610dd001526127565ff3fe6080604052600436106100ce575f3560e01c80637b1039991161007c5780639b76a5cd116100575780639b76a5cd14610274578063ad3cb1cc14610293578063c4d66de8146102e8578063f2fde38b14610307575f80fd5b80637b103999146101e05780638da5cb5b1461020c5780638f2248bc14610255575f80fd5b80636c6be5f3116100ac5780636c6be5f314610177578063715018a61461018b5780637811a7851461019f575f80fd5b806327d54a92146100d25780634f1ef2861461014057806352d1902d14610155575b5f80fd5b3480156100dd575f80fd5b506101166100ec366004611457565b73ffffffffffffffffffffffffffffffffffffffff9081165f908152600160205260409020541690565b60405173ffffffffffffffffffffffffffffffffffffffff90911681526020015b60405180910390f35b61015361014e36600461149d565b610326565b005b348015610160575f80fd5b50610169610345565b604051908152602001610137565b348015610182575f80fd5b50610153610373565b348015610196575f80fd5b50610153610407565b3480156101aa575f80fd5b506101166101b9366004611457565b60016020525f908152604090205473ffffffffffffffffffffffffffffffffffffffff1681565b3480156101eb575f80fd5b506002546101169073ffffffffffffffffffffffffffffffffffffffff1681565b348015610217575f80fd5b507f9016d09d72d40fdae2fd8ceac6b6234c7706214fd39c1cd1e609a0528c1993005473ffffffffffffffffffffffffffffffffffffffff16610116565b348015610260575f80fd5b5061015361026f366004611577565b61041a565b34801561027f575f80fd5b5061011661028e366004611457565b610622565b34801561029e575f80fd5b506102db6040518060400160405280600581526020017f352e302e3000000000000000000000000000000000000000000000000000000081525081565b60405161013791906115b8565b3480156102f3575f80fd5b50610153610302366004611457565b6108b9565b348015610312575f80fd5b50610153610321366004611457565b610b0b565b61032e610b6e565b61033782610c72565b6103418282610c7a565b5050565b5f61034e610db8565b507f360894a13ba1a3210667c828492db98dca3e2076cc3735a920a3ca505d382bbc90565b61037b610e27565b5f3060405161038990611422565b73ffffffffffffffffffffffffffffffffffffffff9091168152602001604051809103905ff0801580156103bf573d5f803e3d5ffd5b505f80547fffffffffffffffffffffffff00000000000000000000000000000000000000001673ffffffffffffffffffffffffffffffffffffffff9290921691909117905550565b61040f610e27565b6104185f610eb5565b565b7ff0c57e16840df040f15088dc2f81fe391c3923bec73e23a9662efc9c229c6a00805482919068010000000000000000900460ff16806104685750805467ffffffffffffffff808416911610155b1561049f576040517ff92ee8a900000000000000000000000000000000000000000000000000000000815260040160405180910390fd5b80547fffffffffffffffffffffffffffffffffffffffffffffff0000000000000000001667ffffffffffffffff831617680100000000000000001781556104e533610f4a565b6104ed610f5b565b600280547fffffffffffffffffffffffff00000000000000000000000000000000000000001673ffffffffffffffffffffffffffffffffffffffff86161790556040515f90309061053d90611422565b73ffffffffffffffffffffffffffffffffffffffff9091168152602001604051809103905ff080158015610573573d5f803e3d5ffd5b505f80547fffffffffffffffffffffffff00000000000000000000000000000000000000001673ffffffffffffffffffffffffffffffffffffffff929092169190911790555080547fffffffffffffffffffffffffffffffffffffffffffffff00ffffffffffffffff16815560405167ffffffffffffffff831681527fc7f505b2f371ae2175ee4913f4499e1f2633a7b5936321eed1cdaeb6115181d29060200160405180910390a150505050565b5f3061068f576040517f08c379a000000000000000000000000000000000000000000000000000000000815260206004820152601560248201527f4167656e7420666163746f7279206e6f7420736574000000000000000000000060448201526064015b60405180910390fd5b6040517fffffffffffffffffffffffffffffffffffffffff000000000000000000000000606084901b1660208201525f90603401604080517fffffffffffffffffffffffffffffffffffffffffffffffffffffffffffffffe0818403018152918152815160209283012073ffffffffffffffffffffffffffffffffffffffff8681165f9081526001909452919092205491925016158061075a575073ffffffffffffffffffffffffffffffffffffffff8381165f90815260016020526040902054163b63ffffffff16155b1561088d575f61076a8285610f63565b9050803b63ffffffff16610800576040517f08c379a000000000000000000000000000000000000000000000000000000000815260206004820152602560248201527f4167656e74206372656174696f6e206661696c65642c206e6f74206120636f6e60448201527f74726163740000000000000000000000000000000000000000000000000000006064820152608401610686565b73ffffffffffffffffffffffffffffffffffffffff8481165f8181526001602090815260409182902080547fffffffffffffffffffffffff000000000000000000000000000000000000000016948616948517905581519283528201929092527f8c6e353968e7ffd60dba22ff7d2a4354af301f9d41858a35668e7292ec1301b6910160405180910390a1505b505073ffffffffffffffffffffffffffffffffffffffff9081165f908152600160205260409020541690565b7ff0c57e16840df040f15088dc2f81fe391c3923bec73e23a9662efc9c229c6a00805468010000000000000000810460ff16159067ffffffffffffffff165f811580156109035750825b90505f8267ffffffffffffffff16600114801561091f5750303b155b90508115801561092d575080155b15610964576040517ff92ee8a900000000000000000000000000000000000000000000000000000000815260040160405180910390fd5b84547fffffffffffffffffffffffffffffffffffffffffffffffff000000000000000016600117855583156109c55784547fffffffffffffffffffffffffffffffffffffffffffffff00ffffffffffffffff16680100000000000000001785555b6109ce33610f4a565b6109d6610f5b565b600280547fffffffffffffffffffffffff00000000000000000000000000000000000000001673ffffffffffffffffffffffffffffffffffffffff88161790556040515f903090610a2690611422565b73ffffffffffffffffffffffffffffffffffffffff9091168152602001604051809103905ff080158015610a5c573d5f803e3d5ffd5b505f80547fffffffffffffffffffffffff00000000000000000000000000000000000000001673ffffffffffffffffffffffffffffffffffffffff92909216919091179055508315610b035784547fffffffffffffffffffffffffffffffffffffffffffffff00ffffffffffffffff168555604051600181527fc7f505b2f371ae2175ee4913f4499e1f2633a7b5936321eed1cdaeb6115181d29060200160405180910390a15b505050505050565b610b13610e27565b73ffffffffffffffffffffffffffffffffffffffff8116610b62576040517f1e4fbdf70000000000000000000000000000000000000000000000000000000081525f6004820152602401610686565b610b6b81610eb5565b50565b3073ffffffffffffffffffffffffffffffffffffffff7f0000000000000000000000000000000000000000000000000000000000000000161480610c3b57507f000000000000000000000000000000000000000000000000000000000000000073ffffffffffffffffffffffffffffffffffffffff16610c227f360894a13ba1a3210667c828492db98dca3e2076cc3735a920a3ca505d382bbc5473ffffffffffffffffffffffffffffffffffffffff1690565b73ffffffffffffffffffffffffffffffffffffffff1614155b15610418576040517fe07c8dba00000000000000000000000000000000000000000000000000000000815260040160405180910390fd5b610b6b610e27565b8173ffffffffffffffffffffffffffffffffffffffff166352d1902d6040518163ffffffff1660e01b8152600401602060405180830381865afa925050508015610cff575060408051601f3d9081017fffffffffffffffffffffffffffffffffffffffffffffffffffffffffffffffe0168201909252610cfc9181019061160b565b60015b610d4d576040517f4c9c8ce300000000000000000000000000000000000000000000000000000000815273ffffffffffffffffffffffffffffffffffffffff83166004820152602401610686565b7f360894a13ba1a3210667c828492db98dca3e2076cc3735a920a3ca505d382bbc8114610da9576040517faa1d49a400000000000000000000000000000000000000000000000000000000815260048101829052602401610686565b610db3838361101c565b505050565b3073ffffffffffffffffffffffffffffffffffffffff7f00000000000000000000000000000000000000000000000000000000000000001614610418576040517fe07c8dba00000000000000000000000000000000000000000000000000000000815260040160405180910390fd5b33610e667f9016d09d72d40fdae2fd8ceac6b6234c7706214fd39c1cd1e609a0528c1993005473ffffffffffffffffffffffffffffffffffffffff1690565b73ffffffffffffffffffffffffffffffffffffffff1614610418576040517f118cdaa7000000000000000000000000000000000000000000000000000000008152336004820152602401610686565b7f9016d09d72d40fdae2fd8ceac6b6234c7706214fd39c1cd1e609a0528c19930080547fffffffffffffffffffffffff0000000000000000000000000000000000000000811673ffffffffffffffffffffffffffffffffffffffff848116918217845560405192169182907f8be0079c531659141344cd1fd0a4f28419497f9722a3daafe3b4186f6b6457e0905f90a3505050565b610f5261107e565b610b6b816110e5565b61041861107e565b5f80548190610f889073ffffffffffffffffffffffffffffffffffffffff16856110ed565b6002546040517f485cc95500000000000000000000000000000000000000000000000000000000815273ffffffffffffffffffffffffffffffffffffffff8681166004830152918216602482015291925082169063485cc955906044015f604051808303815f87803b158015610ffc575f80fd5b505af115801561100e573d5f803e3d5ffd5b509293505050505b92915050565b611025826111c9565b60405173ffffffffffffffffffffffffffffffffffffffff8316907fbc7cd75a20ee27fd9adebab32041f755214dbc6bffa90cc0225b39da2e5c2d3b905f90a280511561107657610db38282611297565b610341611316565b7ff0c57e16840df040f15088dc2f81fe391c3923bec73e23a9662efc9c229c6a005468010000000000000000900460ff16610418576040517fd7e6bcf800000000000000000000000000000000000000000000000000000000815260040160405180910390fd5b610b1361107e565b5f6040517f3d602d80600a3d3981f3363d3d373d3d3d363d7300000000000000000000000081528360601b60148201527f5af43d82803e903d91602b57fd5bf300000000000000000000000000000000006028820152826037825ff591505073ffffffffffffffffffffffffffffffffffffffff8116611016576040517f08c379a000000000000000000000000000000000000000000000000000000000815260206004820152601760248201527f455243313136373a2063726561746532206661696c65640000000000000000006044820152606401610686565b8073ffffffffffffffffffffffffffffffffffffffff163b5f03611231576040517f4c9c8ce300000000000000000000000000000000000000000000000000000000815273ffffffffffffffffffffffffffffffffffffffff82166004820152602401610686565b7f360894a13ba1a3210667c828492db98dca3e2076cc3735a920a3ca505d382bbc80547fffffffffffffffffffffffff00000000000000000000000000000000000000001673ffffffffffffffffffffffffffffffffffffffff92909216919091179055565b60605f808473ffffffffffffffffffffffffffffffffffffffff16846040516112c09190611622565b5f60405180830381855af49150503d805f81146112f8576040519150601f19603f3d011682016040523d82523d5f602084013e6112fd565b606091505b509150915061130d85838361134e565b95945050505050565b3415610418576040517fb398979f00000000000000000000000000000000000000000000000000000000815260040160405180910390fd5b6060826113635761135e826113e0565b6113d9565b8151158015611387575073ffffffffffffffffffffffffffffffffffffffff84163b155b156113d6576040517f9996b31500000000000000000000000000000000000000000000000000000000815273ffffffffffffffffffffffffffffffffffffffff85166004820152602401610686565b50805b9392505050565b8051156113f05780518082602001fd5b6040517f1425ea4200000000000000000000000000000000000000000000000000000000815260040160405180910390fd5b6110e88061163983390190565b803573ffffffffffffffffffffffffffffffffffffffff81168114611452575f80fd5b919050565b5f60208284031215611467575f80fd5b6113d98261142f565b7f4e487b71000000000000000000000000000000000000000000000000000000005f52604160045260245ffd5b5f80604083850312156114ae575f80fd5b6114b78361142f565b9150602083013567ffffffffffffffff808211156114d3575f80fd5b818501915085601f8301126114e6575f80fd5b8135818111156114f8576114f8611470565b604051601f82017fffffffffffffffffffffffffffffffffffffffffffffffffffffffffffffffe0908116603f0116810190838211818310171561153e5761153e611470565b81604052828152886020848701011115611556575f80fd5b826020860160208301375f6020848301015280955050505050509250929050565b5f8060408385031215611588575f80fd5b6115918361142f565b9150602083013567ffffffffffffffff811681146115ad575f80fd5b809150509250929050565b602081525f82518060208401528060208501604085015e5f6040828501015260407fffffffffffffffffffffffffffffffffffffffffffffffffffffffffffffffe0601f83011684010191505092915050565b5f6020828403121561161b575f80fd5b5051919050565b5f82518060208501845e5f92019182525091905056fe6080604052348015600e575f80fd5b506040516110e83803806110e8833981016040819052602b91604f565b600180546001600160a01b0319166001600160a01b0392909216919091179055607a565b5f60208284031215605e575f80fd5b81516001600160a01b03811681146073575f80fd5b9392505050565b611061806100875f395ff3fe608060405234801561000f575f80fd5b506004361061006f575f3560e01c80638da5cb5b1161004d5780638da5cb5b146100ef578063b0f479a11461010e578063eedc3c5014610116575f80fd5b8063485cc955146100735780637b1039991461008857806388cc58e4146100d1575b5f80fd5b610086610081366004610c18565b610129565b005b6002546100a89073ffffffffffffffffffffffffffffffffffffffff1681565b60405173ffffffffffffffffffffffffffffffffffffffff909116815260200160405180910390f35b60015473ffffffffffffffffffffffffffffffffffffffff166100a8565b5f546100a89073ffffffffffffffffffffffffffffffffffffffff1681565b6100a8610209565b610086610124366004610d8c565b61029f565b5f5473ffffffffffffffffffffffffffffffffffffffff16156101ad576040517f08c379a000000000000000000000000000000000000000000000000000000000815260206004820152601360248201527f416c726561647920696e697469616c697a65640000000000000000000000000060448201526064015b60405180910390fd5b5f805473ffffffffffffffffffffffffffffffffffffffff9384167fffffffffffffffffffffffff0000000000000000000000000000000000000000918216179091556001805482163317905560028054929093169116179055565b600254604080517f04cc732500000000000000000000000000000000000000000000000000000000815290515f9273ffffffffffffffffffffffffffffffffffffffff16916304cc73259160048083019260209291908290030181865afa158015610276573d5f803e3d5ffd5b505050506040513d601f19601f8201168201806040525081019061029a9190610f16565b905090565b600254604080517f04cc732500000000000000000000000000000000000000000000000000000000815290515f9273ffffffffffffffffffffffffffffffffffffffff16916304cc73259160048083019260209291908290030181865afa15801561030c573d5f803e3d5ffd5b505050506040513d601f19601f820116820180604052508101906103309190610f16565b90503373ffffffffffffffffffffffffffffffffffffffff8216146103b1576040517f08c379a000000000000000000000000000000000000000000000000000000000815260206004820152601b60248201527f43616c6c61626c65206f6e6c792062792074686520726f75746572000000000060448201526064016101a4565b5f5b83518110156104ec575f8482815181106103cf576103cf610f38565b60200260200101515f015173ffffffffffffffffffffffffffffffffffffffff1685838151811061040257610402610f38565b60200260200101516020015186848151811061042057610420610f38565b6020026020010151604001516040516104399190610f65565b5f6040518083038185875af1925050503d805f8114610473576040519150601f19603f3d011682016040523d82523d5f602084013e610478565b606091505b50509050806104e3576040517f08c379a000000000000000000000000000000000000000000000000000000000815260206004820152601160248201527f42617463682063616c6c206661696c656400000000000000000000000000000060448201526064016101a4565b506001016103b3565b506104f682610504565b6104ff826108b8565b505050565b600254604080517f04cc732500000000000000000000000000000000000000000000000000000000815290515f9273ffffffffffffffffffffffffffffffffffffffff16916304cc73259160048083019260209291908290030181865afa158015610571573d5f803e3d5ffd5b505050506040513d601f19601f820116820180604052508101906105959190610f16565b90505f8060025f9054906101000a900473ffffffffffffffffffffffffffffffffffffffff1673ffffffffffffffffffffffffffffffffffffffff166385462d6f6040518163ffffffff1660e01b8152600401602060405180830381865afa158015610603573d5f803e3d5ffd5b505050506040513d601f19601f820116820180604052508101906106279190610f7b565b90505f60025f9054906101000a900473ffffffffffffffffffffffffffffffffffffffff1673ffffffffffffffffffffffffffffffffffffffff16634f4608a26040518163ffffffff1660e01b8152600401602060405180830381865afa158015610694573d5f803e3d5ffd5b505050506040513d601f19601f820116820180604052508101906106b89190610f7b565b90505f5b85518110156108b0575f8682815181106106d8576106d8610f38565b6020026020010151905073eeeeeeeeeeeeeeeeeeeeeeeeeeeeeeeeeeeeeeee73ffffffffffffffffffffffffffffffffffffffff168173ffffffffffffffffffffffffffffffffffffffff160361076557826107348547610f92565b61073e9190610fd4565b945061076073ffffffffffffffffffffffffffffffffffffffff871686610a9e565b6108a7565b6040517f70a082310000000000000000000000000000000000000000000000000000000081523060048201525f9073ffffffffffffffffffffffffffffffffffffffff8316906370a0823190602401602060405180830381865afa1580156107cf573d5f803e3d5ffd5b505050506040513d601f19601f820116820180604052508101906107f39190610f7b565b9050836108008683610f92565b61080a9190610fd4565b6040517fa9059cbb00000000000000000000000000000000000000000000000000000000815273ffffffffffffffffffffffffffffffffffffffff8981166004830152602482018390529197509083169063a9059cbb906044016020604051808303815f875af1158015610880573d5f803e3d5ffd5b505050506040513d601f19601f820116820180604052508101906108a4919061100c565b50505b506001016106bc565b505050505050565b80518015610a9a575f5b818110156104ff575f8382815181106108dd576108dd610f38565b6020026020010151905073eeeeeeeeeeeeeeeeeeeeeeeeeeeeeeeeeeeeeeee73ffffffffffffffffffffffffffffffffffffffff168173ffffffffffffffffffffffffffffffffffffffff160361095b574715610956575f546109569073ffffffffffffffffffffffffffffffffffffffff1647610a9e565b610a91565b6040517f70a082310000000000000000000000000000000000000000000000000000000081523060048201525f9073ffffffffffffffffffffffffffffffffffffffff8316906370a0823190602401602060405180830381865afa1580156109c5573d5f803e3d5ffd5b505050506040513d601f19601f820116820180604052508101906109e99190610f7b565b9050600a811115610a8f575f546040517fa9059cbb00000000000000000000000000000000000000000000000000000000815273ffffffffffffffffffffffffffffffffffffffff9182166004820152602481018390529083169063a9059cbb906044016020604051808303815f875af1158015610a69573d5f803e3d5ffd5b505050506040513d601f19601f82011682018060405250810190610a8d919061100c565b505b505b506001016108c2565b5050565b80471015610b08576040517f08c379a000000000000000000000000000000000000000000000000000000000815260206004820152601d60248201527f416464726573733a20696e73756666696369656e742062616c616e636500000060448201526064016101a4565b5f8273ffffffffffffffffffffffffffffffffffffffff16826040515f6040518083038185875af1925050503d805f8114610b5e576040519150601f19603f3d011682016040523d82523d5f602084013e610b63565b606091505b50509050806104ff576040517f08c379a000000000000000000000000000000000000000000000000000000000815260206004820152603a60248201527f416464726573733a20756e61626c6520746f2073656e642076616c75652c207260448201527f6563697069656e74206d6179206861766520726576657274656400000000000060648201526084016101a4565b73ffffffffffffffffffffffffffffffffffffffff81168114610c15575f80fd5b50565b5f8060408385031215610c29575f80fd5b8235610c3481610bf4565b91506020830135610c4481610bf4565b809150509250929050565b7f4e487b71000000000000000000000000000000000000000000000000000000005f52604160045260245ffd5b6040516060810167ffffffffffffffff81118282101715610c9f57610c9f610c4f565b60405290565b604051601f82017fffffffffffffffffffffffffffffffffffffffffffffffffffffffffffffffe016810167ffffffffffffffff81118282101715610cec57610cec610c4f565b604052919050565b5f67ffffffffffffffff821115610d0d57610d0d610c4f565b5060051b60200190565b5f82601f830112610d26575f80fd5b81356020610d3b610d3683610cf4565b610ca5565b8083825260208201915060208460051b870101935086841115610d5c575f80fd5b602086015b84811015610d81578035610d7481610bf4565b8352918301918301610d61565b509695505050505050565b5f8060408385031215610d9d575f80fd5b823567ffffffffffffffff80821115610db4575f80fd5b818501915085601f830112610dc7575f80fd5b81356020610dd7610d3683610cf4565b82815260059290921b84018101918181019089841115610df5575f80fd5b8286015b84811015610ee957803586811115610e0f575f80fd5b87017fffffffffffffffffffffffffffffffffffffffffffffffffffffffffffffffe06060828e0382011215610e43575f80fd5b610e4b610c7c565b86830135610e5881610bf4565b8152604083013587820152606083013589811115610e74575f80fd5b8084019350508d603f840112610e88575f80fd5b8683013589811115610e9c57610e9c610c4f565b610eac8884601f84011601610ca5565b92508083528e888983870101011115610ec3575f80fd5b8060408501898501375f9083018801526040810191909152845250918301918301610df9565b5096505086013592505080821115610eff575f80fd5b50610f0c85828601610d17565b9150509250929050565b5f60208284031215610f26575f80fd5b8151610f3181610bf4565b9392505050565b7f4e487b71000000000000000000000000000000000000000000000000000000005f52603260045260245ffd5b5f82518060208501845e5f920191825250919050565b5f60208284031215610f8b575f80fd5b5051919050565b8082028115828204841417610fce577f4e487b71000000000000000000000000000000000000000000000000000000005f52601160045260245ffd5b92915050565b5f82611007577f4e487b71000000000000000000000000000000000000000000000000000000005f52601260045260245ffd5b500490565b5f6020828403121561101c575f80fd5b81518015158114610f31575f80fdfea2646970667358221220cb88a16f4f0963dc1eb28712dfe90e4f3161a13fb23fea42cbfa516a0f7a033664736f6c63430008190033a26469706673582212200f5a80b4c59c7bebcb044643fe29e4ee87852a4b5f6340bfed00e0396f72533964736f6c63430008190033",
  "linkReferences": {},
  "deployedLinkReferences": {}
}