{
  "_format": "hh-sol-artifact-1",
  "contractName": "BaluniV1AgentFactory",
  "sourceName": "contracts/BaluniV1AgentFactory.sol",
  "abi": [
    {
      "inputs": [
        {
          "internalType": "address",
          "name": "target",
          "type": "address"
        }
      ],
      "name": "AddressEmptyCode",
      "type": "error"
    },
    {
      "inputs": [
        {
          "internalType": "address",
          "name": "implementation",
          "type": "address"
        }
      ],
      "name": "ERC1967InvalidImplementation",
      "type": "error"
    },
    {
      "inputs": [],
      "name": "ERC1967NonPayable",
      "type": "error"
    },
    {
      "inputs": [],
      "name": "FailedInnerCall",
      "type": "error"
    },
    {
      "inputs": [],
      "name": "InvalidInitialization",
      "type": "error"
    },
    {
      "inputs": [],
      "name": "NotInitializing",
      "type": "error"
    },
    {
      "inputs": [
        {
          "internalType": "address",
          "name": "owner",
          "type": "address"
        }
      ],
      "name": "OwnableInvalidOwner",
      "type": "error"
    },
    {
      "inputs": [
        {
          "internalType": "address",
          "name": "account",
          "type": "address"
        }
      ],
      "name": "OwnableUnauthorizedAccount",
      "type": "error"
    },
    {
      "inputs": [],
      "name": "UUPSUnauthorizedCallContext",
      "type": "error"
    },
    {
      "inputs": [
        {
          "internalType": "bytes32",
          "name": "slot",
          "type": "bytes32"
        }
      ],
      "name": "UUPSUnsupportedProxiableUUID",
      "type": "error"
    },
    {
      "anonymous": false,
      "inputs": [
        {
          "indexed": false,
          "internalType": "address",
          "name": "user",
          "type": "address"
        },
        {
          "indexed": false,
          "internalType": "address",
          "name": "agent",
          "type": "address"
        }
      ],
      "name": "AgentCreated",
      "type": "event"
    },
    {
      "anonymous": false,
      "inputs": [
        {
          "indexed": false,
          "internalType": "uint64",
          "name": "version",
          "type": "uint64"
        }
      ],
      "name": "Initialized",
      "type": "event"
    },
    {
      "anonymous": false,
      "inputs": [
        {
          "indexed": true,
          "internalType": "address",
          "name": "previousOwner",
          "type": "address"
        },
        {
          "indexed": true,
          "internalType": "address",
          "name": "newOwner",
          "type": "address"
        }
      ],
      "name": "OwnershipTransferred",
      "type": "event"
    },
    {
      "anonymous": false,
      "inputs": [
        {
          "indexed": true,
          "internalType": "address",
          "name": "implementation",
          "type": "address"
        }
      ],
      "name": "Upgraded",
      "type": "event"
    },
    {
      "inputs": [],
      "name": "UPGRADE_INTERFACE_VERSION",
      "outputs": [
        {
          "internalType": "string",
          "name": "",
          "type": "string"
        }
      ],
      "stateMutability": "view",
      "type": "function"
    },
    {
      "inputs": [],
      "name": "changeImplementation",
      "outputs": [],
      "stateMutability": "nonpayable",
      "type": "function"
    },
    {
      "inputs": [
        {
          "internalType": "address",
          "name": "_router",
          "type": "address"
        }
      ],
      "name": "changeRouter",
      "outputs": [],
      "stateMutability": "nonpayable",
      "type": "function"
    },
    {
      "inputs": [
        {
          "internalType": "address",
          "name": "user",
          "type": "address"
        }
      ],
      "name": "getAgentAddress",
      "outputs": [
        {
          "internalType": "address",
          "name": "",
          "type": "address"
        }
      ],
      "stateMutability": "view",
      "type": "function"
    },
    {
      "inputs": [
        {
          "internalType": "address",
          "name": "user",
          "type": "address"
        }
      ],
      "name": "getOrCreateAgent",
      "outputs": [
        {
          "internalType": "address",
          "name": "",
          "type": "address"
        }
      ],
      "stateMutability": "nonpayable",
      "type": "function"
    },
    {
      "inputs": [],
      "name": "initialize",
      "outputs": [],
      "stateMutability": "nonpayable",
      "type": "function"
    },
    {
      "inputs": [],
      "name": "owner",
      "outputs": [
        {
          "internalType": "address",
          "name": "",
          "type": "address"
        }
      ],
      "stateMutability": "view",
      "type": "function"
    },
    {
      "inputs": [],
      "name": "proxiableUUID",
      "outputs": [
        {
          "internalType": "bytes32",
          "name": "",
          "type": "bytes32"
        }
      ],
      "stateMutability": "view",
      "type": "function"
    },
    {
      "inputs": [
        {
          "internalType": "uint64",
          "name": "version",
          "type": "uint64"
        }
      ],
      "name": "reinitialize",
      "outputs": [],
      "stateMutability": "nonpayable",
      "type": "function"
    },
    {
      "inputs": [],
      "name": "renounceOwnership",
      "outputs": [],
      "stateMutability": "nonpayable",
      "type": "function"
    },
    {
      "inputs": [],
      "name": "router",
      "outputs": [
        {
          "internalType": "address",
          "name": "",
          "type": "address"
        }
      ],
      "stateMutability": "view",
      "type": "function"
    },
    {
      "inputs": [
        {
          "internalType": "address",
          "name": "newOwner",
          "type": "address"
        }
      ],
      "name": "transferOwnership",
      "outputs": [],
      "stateMutability": "nonpayable",
      "type": "function"
    },
    {
      "inputs": [
        {
          "internalType": "address",
          "name": "newImplementation",
          "type": "address"
        },
        {
          "internalType": "bytes",
          "name": "data",
          "type": "bytes"
        }
      ],
      "name": "upgradeToAndCall",
      "outputs": [],
      "stateMutability": "payable",
      "type": "function"
    },
    {
      "inputs": [
        {
          "internalType": "address",
          "name": "",
          "type": "address"
        }
      ],
      "name": "userAgents",
      "outputs": [
        {
          "internalType": "contract BaluniV1Agent",
          "name": "",
          "type": "address"
        }
      ],
      "stateMutability": "view",
      "type": "function"
    }
  ],
  "bytecode": "0x60a080604052346029573060805261173d908161002e823960805181818161079201526108700152f35b5f80fdfe6080604081815260049182361015610015575f80fd5b5f925f3560e01c91826327d54a9214610a9157508163340ac20f14610a4e5781634f1ef286146107f657816352d1902d1461077f5781636c6be5f3146106f0578163715018a6146106895781637811a785146106505781638129fc1c146105405781638da5cb5b1461050c5781639a1b97df146104335781639b76a5cd1461017057508063ad3cb1cc14610117578063f2fde38b146100e75763f887ea40146100bc575f80fd5b346100e357816003193601126100e35760015490516001600160a01b039091168152602090f35b5080fd5b823461011457602036600319011261011457610111610104610ac8565b61010c610c3e565b610bcd565b80f35b80fd5b50346100e357816003193601126100e357805161013381610ade565b6005815260208101640352e302e360dc1b81528251938492602084525180928160208601528585015e828201840152601f01601f19168101030190f35b9050346103a157602092836003193601126103a15761018d610ac8565b30156103f8579083918251938685019160018060a01b038096818316946bffffffffffffffffffffffff1991828560601b168252601481526101ce81610ade565b51902090855f5260028b5282885f20541680159081156103e8575b50610204575b50505050508152600285522054169051908152f35b603791929394959697505f54908a5191733d602d80600a3d3981f3363d3d373d3d3d363d7360601b835260601b1660148201526e5af43d82803e903d91602b57fd5bf360881b60288201525ff5169182156103a5578560015416833b156103a157875163485cc95560e01b81526001600160a01b0380851684830190815292166020830152905f9082908190604001038183885af1801561039757610368575b5063ffffffff833b161561031757508284526002875285842080546001600160a01b0319168317905585516001600160a01b03918216815291166020820152849291907f8c6e353968e7ffd60dba22ff7d2a4354af301f9d41858a35668e7292ec1301b690604090a15f808581806101ef565b865162461bcd60e51b8152908101889052602560248201527f4167656e74206372656174696f6e206661696c65642c206e6f74206120636f6e6044820152641d1c9858dd60da1b6064820152608490fd5b90945067ffffffffffffffff81116103845786525f935f6102a4565b604185634e487b7160e01b5f525260245ffd5b88513d5f823e3d90fd5b5f80fd5b865162461bcd60e51b8152908101889052601760248201527f455243313136373a2063726561746532206661696c65640000000000000000006044820152606490fd5b63ffffffff91503b16155f6101e9565b835162461bcd60e51b815280840186905260156024820152741059d95b9d08199858dd1bdc9e481b9bdd081cd95d605a1b6044820152606490fd5b82346103a15760203660031901126103a15781359167ffffffffffffffff8084168094036103a1577ff0c57e16840df040f15088dc2f81fe391c3923bec73e23a9662efc9c229c6a00918254918560ff84871c169182156104ff575b50506104f15768ffffffffffffffffff1982168517680100000000000000001783557fc7f505b2f371ae2175ee4913f4499e1f2633a7b5936321eed1cdaeb6115181d260208686866104df610b4c565b805460ff60401b1916905551908152a1005b835163f92ee8a960e01b8152fd5b841610159050858761048f565b82346103a1575f3660031901126103a1575f805160206116e88339815191525490516001600160a01b039091168152602090f35b9050346103a1575f3660031901126103a1577ff0c57e16840df040f15088dc2f81fe391c3923bec73e23a9662efc9c229c6a0090815460ff81851c16159167ffffffffffffffff821680159081610648575b600114908161063e575b159081610635575b50610627575067ffffffffffffffff198116600117835581610608575b506105ca610b4c565b6105d057005b805460ff60401b1916905551600181527fc7f505b2f371ae2175ee4913f4499e1f2633a7b5936321eed1cdaeb6115181d290602090a1005b68ffffffffffffffffff191668010000000000000001178255836105c1565b845163f92ee8a960e01b8152fd5b905015866105a4565b303b15915061059c565b849150610592565b82346103a15760203660031901126103a1576020906001600160a01b0380610676610ac8565b165f5260028352815f2054169051908152f35b346103a1575f3660031901126103a1576106a1610c3e565b5f805160206116e883398151915280546001600160a01b031981169091555f906001600160a01b03167f8be0079c531659141344cd1fd0a4f28419497f9722a3daafe3b4186f6b6457e08280a3005b9050346103a1575f3660031901126103a15761070a610c3e565b8151906109cd8083019183831067ffffffffffffffff84111761076c57506020918391610d1b83393081520301905ff090811561076357505f80546001600160a01b0319166001600160a01b0392909216919091179055005b513d5f823e3d90fd5b604190634e487b7160e01b5f525260245ffd5b82346103a1575f3660031901126103a1577f00000000000000000000000000000000000000000000000000000000000000006001600160a01b031630036107e957602090517f360894a13ba1a3210667c828492db98dca3e2076cc3735a920a3ca505d382bbc8152f35b5163703e46dd60e11b8152fd5b9050816003193601126103a15761080b610ac8565b602492833567ffffffffffffffff81116103a157366023820112156103a1578084013561083781610b30565b9361084484519586610b0e565b81855260209182860193368983830101116103a157815f928a8693018737870101526001600160a01b037f00000000000000000000000000000000000000000000000000000000000000008116308114908115610a20575b50610a10576108a9610c3e565b81169484516352d1902d60e01b8152838189818a5afa5f91816109e1575b506108e25750505050505191634c9c8ce360e01b8352820152fd5b9087878794938b7f360894a13ba1a3210667c828492db98dca3e2076cc3735a920a3ca505d382bbc918281036109cc5750853b156109b8575080546001600160a01b031916821790558451907fbc7cd75a20ee27fd9adebab32041f755214dbc6bffa90cc0225b39da2e5c2d3b5f80a282511561099e5750505f6109929581925190845af4913d15610994573d61098461097b82610b30565b92519283610b0e565b81525f81943d92013e610cb7565b005b5060609250610cb7565b94509450505050346109ac57005b63b398979f60e01b8152fd5b8651634c9c8ce360e01b8152808501849052fd5b8751632a87526960e21b815280860191909152fd5b9091508481813d8311610a09575b6109f98183610b0e565b810103126103a15751908a6108c7565b503d6109ef565b845163703e46dd60e11b81528790fd5b9050817f360894a13ba1a3210667c828492db98dca3e2076cc3735a920a3ca505d382bbc541614158961089c565b346103a15760203660031901126103a157610a67610ac8565b610a6f610c3e565b600180546001600160a01b0319166001600160a01b0392909216919091179055005b8390346103a15760203660031901126103a1576020916001600160a01b039081610ab9610ac8565b165f52600284525f2054168152f35b600435906001600160a01b03821682036103a157565b6040810190811067ffffffffffffffff821117610afa57604052565b634e487b7160e01b5f52604160045260245ffd5b90601f8019910116810190811067ffffffffffffffff821117610afa57604052565b67ffffffffffffffff8111610afa57601f01601f191660200190565b610b54610c76565b610b5c610c76565b610b6533610bcd565b610b6d610c76565b6040516109cd8082019082821067ffffffffffffffff831117610afa576020918391610d1b83393081520301905ff08015610bc25760018060a01b03166bffffffffffffffffffffffff60a01b5f5416175f55565b6040513d5f823e3d90fd5b6001600160a01b03908116908115610c26575f805160206116e883398151915280546001600160a01b031981168417909155167f8be0079c531659141344cd1fd0a4f28419497f9722a3daafe3b4186f6b6457e05f80a3565b604051631e4fbdf760e01b81525f6004820152602490fd5b5f805160206116e8833981519152546001600160a01b03163303610c5e57565b60405163118cdaa760e01b8152336004820152602490fd5b60ff7ff0c57e16840df040f15088dc2f81fe391c3923bec73e23a9662efc9c229c6a005460401c1615610ca557565b604051631afcd79f60e31b8152600490fd5b90610cde5750805115610ccc57805190602001fd5b604051630a12f52160e11b8152600490fd5b81511580610d11575b610cef575090565b604051639996b31560e01b81526001600160a01b039091166004820152602490fd5b50803b15610ce756fe608034607057601f6109cd38819003918201601f19168301916001600160401b03831184841017607457808492602094604052833981010312607057516001600160a01b03811690819003607057600280546001600160a01b03191691909117905560405161094490816100898239f35b5f80fd5b634e487b7160e01b5f52604160045260245ffdfe608060409080825260049081361015610016575f80fd5b5f3560e01c908163485cc9551461067b5750806388cc58e4146106535780638da5cb5b1461062c578063b0f479a1146106045763eedc3c5014610057575f80fd5b346102d157816003193601126102d15780359167ffffffffffffffff918284116102d157366023850112156102d15783810135906024926100978361076a565b956100a482519788610734565b838752602093858589019160051b830101913683116102d157868101915b838310610548575050505083359485116102d157366023860112156102d15784820135946100ef8661076a565b956100fc83519788610734565b808752858588019160051b830101913683116102d15786869101915b8383106105305750506001805490986001600160a01b039793509150861633036104f0575f885b610461575b505082848689541684519283809263b9f5e61760e01b82525afa908115610457579088915f91610426575b505f825b6102e6575b5050508551958661018557005b5f5b87811061019057005b808761019d8b938561079e565b511673eeeeeeeeeeeeeeeeeeeeeeeeeeeeeeeeeeeeeeee81036101da5750476101c7575b01610187565b6101d5885f54164790610834565b6101c1565b85516370a0823160e01b8152308882015291925087828681845afa9182156102dc579188918c94935f926102a3575b50600a821161021b575b5050506101c1565b5f8054895163a9059cbb60e01b8152908d166001600160a01b03168b820190815260208101949094529495508492839190829060400103925af1801561029957908a929161026c575b808891610213565b61028b90883d8a11610292575b6102838183610734565b81019061081c565b505f610264565b503d610279565b85513d5f823e3d90fd5b92839195508092503d83116102d5575b6102bd8183610734565b810103126102d1578a92889151905f610209565b5f80fd5b503d6102b3565b86513d5f823e3d90fd5b885181101561042157876102fa828b61079e565b511673eeeeeeeeeeeeeeeeeeeeeeeeeeeeeeeeeeeeeeee810361033b5750829061033461271061032a85476107f5565b048a845416610834565b0182610173565b85516370a0823160e01b81523088820152929350909187818681855afa9081156102dc57889185915f916103ec575b5061037c6103b39492612710926107f5565b04908a8d54165f8a8a519687958694859363a9059cbb60e01b8552840160209093929193604081019460018060a01b031681520152565b03925af1801561029957918a93929184926103cf575b50610334565b6103e590893d8b11610292576102838183610734565b505f6103c9565b928092508391503d831161041a575b6104058183610734565b810103126102d157518790849061037c61036a565b503d6103fb565b610178565b809250868092503d8311610450575b61043f8183610734565b810103126102d1578790515f61016f565b503d610435565b83513d5f823e3d90fd5b81518110156104eb575f8088610477848661079e565b51511688610485858761079e565b5101519087610494868861079e565b510151918a83519301915af16104a86107c6565b50156104b65788018861013f565b5050606493601192519362461bcd60e51b85528401528201527010985d18da0818d85b1b0819985a5b1959607a1b6044820152fd5b610144565b50606493601b92519362461bcd60e51b85528401528201527f43616c6c61626c65206f6e6c792062792074686520726f7574657200000000006044820152fd5b819061053b84610720565b8152019101908590610118565b82358981116102d1578201906060908160231984360301126102d15786519182018281108c8211176105f25787526105818a8401610720565b8252604492838101358a8401526064810135908c82116102d1570191366043840112156102d1578a830135926105b684610782565b906105c38a519283610734565b848252368686830101116102d1578b8581979682975f94018386013783010152888201528152019201916100c2565b8a60418a634e487b7160e01b5f52525ffd5b82346102d1575f3660031901126102d15760015490516001600160a01b039091168152602090f35b82346102d1575f3660031901126102d1575f5490516001600160a01b039091168152602090f35b82346102d1575f3660031901126102d15760025490516001600160a01b039091168152602090f35b8284346102d1573660031901126102d1576001600160a01b0391813583811691908290036102d157602435928484168094036102d1575f549485166106e95750506bffffffffffffffffffffffff60a01b809316175f55816001541617600155339060025416176002555f80f35b62461bcd60e51b82526020908201526013602482015272105b1c9958591e481a5b9a5d1a585b1a5e9959606a1b6044820152606490fd5b35906001600160a01b03821682036102d157565b90601f8019910116810190811067ffffffffffffffff82111761075657604052565b634e487b7160e01b5f52604160045260245ffd5b67ffffffffffffffff81116107565760051b60200190565b67ffffffffffffffff811161075657601f01601f191660200190565b80518210156107b25760209160051b010190565b634e487b7160e01b5f52603260045260245ffd5b3d156107f0573d906107d782610782565b916107e56040519384610734565b82523d5f602084013e565b606090565b8181029291811591840414171561080857565b634e487b7160e01b5f52601160045260245ffd5b908160209103126102d1575180151581036102d15790565b8147106108c9575f918291829182916001600160a01b03165af16108566107c6565b501561085e57565b60405162461bcd60e51b815260206004820152603a60248201527f416464726573733a20756e61626c6520746f2073656e642076616c75652c207260448201527f6563697069656e74206d617920686176652072657665727465640000000000006064820152608490fd5b60405162461bcd60e51b815260206004820152601d60248201527f416464726573733a20696e73756666696369656e742062616c616e63650000006044820152606490fdfea2646970667358221220bd039c673e0168e8f77762b700b1e3472cb3905f5d6928a9196c30f480e0c0f264736f6c634300081900339016d09d72d40fdae2fd8ceac6b6234c7706214fd39c1cd1e609a0528c199300a26469706673582212200555ec0c0a2060432d2091a56c14d0e50f5c850c3351416d095fdf0a1c73f51a64736f6c63430008190033",
  "linkReferences": {},
  "deployedLinkReferences": {}
}