{
  "_format": "hh-sol-artifact-1",
  "contractName": "BaluniV1Pool",
  "sourceName": "contracts/pools/BaluniV1Pool.sol",
  "abi": [
    {
      "inputs": [
        {
          "internalType": "address",
          "name": "target",
          "type": "address"
        }
      ],
      "name": "AddressEmptyCode",
      "type": "error"
    },
    {
      "inputs": [
        {
          "internalType": "address",
          "name": "implementation",
          "type": "address"
        }
      ],
      "name": "ERC1967InvalidImplementation",
      "type": "error"
    },
    {
      "inputs": [],
      "name": "ERC1967NonPayable",
      "type": "error"
    },
    {
      "inputs": [
        {
          "internalType": "address",
          "name": "spender",
          "type": "address"
        },
        {
          "internalType": "uint256",
          "name": "allowance",
          "type": "uint256"
        },
        {
          "internalType": "uint256",
          "name": "needed",
          "type": "uint256"
        }
      ],
      "name": "ERC20InsufficientAllowance",
      "type": "error"
    },
    {
      "inputs": [
        {
          "internalType": "address",
          "name": "sender",
          "type": "address"
        },
        {
          "internalType": "uint256",
          "name": "balance",
          "type": "uint256"
        },
        {
          "internalType": "uint256",
          "name": "needed",
          "type": "uint256"
        }
      ],
      "name": "ERC20InsufficientBalance",
      "type": "error"
    },
    {
      "inputs": [
        {
          "internalType": "address",
          "name": "approver",
          "type": "address"
        }
      ],
      "name": "ERC20InvalidApprover",
      "type": "error"
    },
    {
      "inputs": [
        {
          "internalType": "address",
          "name": "receiver",
          "type": "address"
        }
      ],
      "name": "ERC20InvalidReceiver",
      "type": "error"
    },
    {
      "inputs": [
        {
          "internalType": "address",
          "name": "sender",
          "type": "address"
        }
      ],
      "name": "ERC20InvalidSender",
      "type": "error"
    },
    {
      "inputs": [
        {
          "internalType": "address",
          "name": "spender",
          "type": "address"
        }
      ],
      "name": "ERC20InvalidSpender",
      "type": "error"
    },
    {
      "inputs": [],
      "name": "EnforcedPause",
      "type": "error"
    },
    {
      "inputs": [],
      "name": "ExpectedPause",
      "type": "error"
    },
    {
      "inputs": [],
      "name": "FailedInnerCall",
      "type": "error"
    },
    {
      "inputs": [],
      "name": "InvalidInitialization",
      "type": "error"
    },
    {
      "inputs": [],
      "name": "NotInitializing",
      "type": "error"
    },
    {
      "inputs": [
        {
          "internalType": "address",
          "name": "owner",
          "type": "address"
        }
      ],
      "name": "OwnableInvalidOwner",
      "type": "error"
    },
    {
      "inputs": [
        {
          "internalType": "address",
          "name": "account",
          "type": "address"
        }
      ],
      "name": "OwnableUnauthorizedAccount",
      "type": "error"
    },
    {
      "inputs": [],
      "name": "ReentrancyGuardReentrantCall",
      "type": "error"
    },
    {
      "inputs": [],
      "name": "UUPSUnauthorizedCallContext",
      "type": "error"
    },
    {
      "inputs": [
        {
          "internalType": "bytes32",
          "name": "slot",
          "type": "bytes32"
        }
      ],
      "name": "UUPSUnsupportedProxiableUUID",
      "type": "error"
    },
    {
      "anonymous": false,
      "inputs": [
        {
          "indexed": true,
          "internalType": "address",
          "name": "owner",
          "type": "address"
        },
        {
          "indexed": true,
          "internalType": "address",
          "name": "spender",
          "type": "address"
        },
        {
          "indexed": false,
          "internalType": "uint256",
          "name": "value",
          "type": "uint256"
        }
      ],
      "name": "Approval",
      "type": "event"
    },
    {
      "anonymous": false,
      "inputs": [
        {
          "indexed": true,
          "internalType": "address",
          "name": "user",
          "type": "address"
        },
        {
          "indexed": false,
          "internalType": "uint256",
          "name": "amount",
          "type": "uint256"
        }
      ],
      "name": "Deposit",
      "type": "event"
    },
    {
      "anonymous": false,
      "inputs": [
        {
          "indexed": false,
          "internalType": "uint64",
          "name": "version",
          "type": "uint64"
        }
      ],
      "name": "Initialized",
      "type": "event"
    },
    {
      "anonymous": false,
      "inputs": [
        {
          "indexed": true,
          "internalType": "address",
          "name": "previousOwner",
          "type": "address"
        },
        {
          "indexed": true,
          "internalType": "address",
          "name": "newOwner",
          "type": "address"
        }
      ],
      "name": "OwnershipTransferred",
      "type": "event"
    },
    {
      "anonymous": false,
      "inputs": [
        {
          "indexed": false,
          "internalType": "address",
          "name": "account",
          "type": "address"
        }
      ],
      "name": "Paused",
      "type": "event"
    },
    {
      "anonymous": false,
      "inputs": [
        {
          "indexed": true,
          "internalType": "address",
          "name": "user",
          "type": "address"
        },
        {
          "indexed": false,
          "internalType": "address[]",
          "name": "assets",
          "type": "address[]"
        }
      ],
      "name": "RebalancePerformed",
      "type": "event"
    },
    {
      "anonymous": false,
      "inputs": [
        {
          "indexed": true,
          "internalType": "address",
          "name": "user",
          "type": "address"
        },
        {
          "indexed": false,
          "internalType": "address",
          "name": "fromToken",
          "type": "address"
        },
        {
          "indexed": false,
          "internalType": "address",
          "name": "toToken",
          "type": "address"
        },
        {
          "indexed": false,
          "internalType": "uint256",
          "name": "amountIn",
          "type": "uint256"
        },
        {
          "indexed": false,
          "internalType": "uint256",
          "name": "amountOut",
          "type": "uint256"
        }
      ],
      "name": "Swap",
      "type": "event"
    },
    {
      "anonymous": false,
      "inputs": [
        {
          "indexed": true,
          "internalType": "address",
          "name": "from",
          "type": "address"
        },
        {
          "indexed": true,
          "internalType": "address",
          "name": "to",
          "type": "address"
        },
        {
          "indexed": false,
          "internalType": "uint256",
          "name": "value",
          "type": "uint256"
        }
      ],
      "name": "Transfer",
      "type": "event"
    },
    {
      "anonymous": false,
      "inputs": [
        {
          "indexed": false,
          "internalType": "address",
          "name": "account",
          "type": "address"
        }
      ],
      "name": "Unpaused",
      "type": "event"
    },
    {
      "anonymous": false,
      "inputs": [
        {
          "indexed": true,
          "internalType": "address",
          "name": "implementation",
          "type": "address"
        }
      ],
      "name": "Upgraded",
      "type": "event"
    },
    {
      "anonymous": false,
      "inputs": [
        {
          "indexed": true,
          "internalType": "address",
          "name": "user",
          "type": "address"
        },
        {
          "indexed": false,
          "internalType": "uint256[]",
          "name": "amountsToAdd",
          "type": "uint256[]"
        }
      ],
      "name": "WeightsRebalanced",
      "type": "event"
    },
    {
      "anonymous": false,
      "inputs": [
        {
          "indexed": true,
          "internalType": "address",
          "name": "user",
          "type": "address"
        },
        {
          "indexed": false,
          "internalType": "uint256",
          "name": "amount",
          "type": "uint256"
        }
      ],
      "name": "Withdraw",
      "type": "event"
    },
    {
      "inputs": [],
      "name": "ONE",
      "outputs": [
        {
          "internalType": "uint256",
          "name": "",
          "type": "uint256"
        }
      ],
      "stateMutability": "view",
      "type": "function"
    },
    {
      "inputs": [],
      "name": "UPGRADE_INTERFACE_VERSION",
      "outputs": [
        {
          "internalType": "string",
          "name": "",
          "type": "string"
        }
      ],
      "stateMutability": "view",
      "type": "function"
    },
    {
      "inputs": [
        {
          "internalType": "address",
          "name": "owner",
          "type": "address"
        },
        {
          "internalType": "address",
          "name": "spender",
          "type": "address"
        }
      ],
      "name": "allowance",
      "outputs": [
        {
          "internalType": "uint256",
          "name": "",
          "type": "uint256"
        }
      ],
      "stateMutability": "view",
      "type": "function"
    },
    {
      "inputs": [
        {
          "internalType": "address",
          "name": "spender",
          "type": "address"
        },
        {
          "internalType": "uint256",
          "name": "value",
          "type": "uint256"
        }
      ],
      "name": "approve",
      "outputs": [
        {
          "internalType": "bool",
          "name": "",
          "type": "bool"
        }
      ],
      "stateMutability": "nonpayable",
      "type": "function"
    },
    {
      "inputs": [
        {
          "internalType": "uint256",
          "name": "",
          "type": "uint256"
        }
      ],
      "name": "assetInfos",
      "outputs": [
        {
          "internalType": "address",
          "name": "asset",
          "type": "address"
        },
        {
          "internalType": "uint256",
          "name": "weight",
          "type": "uint256"
        },
        {
          "internalType": "uint256",
          "name": "slippage",
          "type": "uint256"
        },
        {
          "internalType": "uint256",
          "name": "reserve",
          "type": "uint256"
        }
      ],
      "stateMutability": "view",
      "type": "function"
    },
    {
      "inputs": [
        {
          "internalType": "uint256",
          "name": "assetIndex",
          "type": "uint256"
        }
      ],
      "name": "assetLiquidity",
      "outputs": [
        {
          "internalType": "uint256",
          "name": "",
          "type": "uint256"
        }
      ],
      "stateMutability": "view",
      "type": "function"
    },
    {
      "inputs": [
        {
          "internalType": "address",
          "name": "account",
          "type": "address"
        }
      ],
      "name": "balanceOf",
      "outputs": [
        {
          "internalType": "uint256",
          "name": "",
          "type": "uint256"
        }
      ],
      "stateMutability": "view",
      "type": "function"
    },
    {
      "inputs": [],
      "name": "baseAsset",
      "outputs": [
        {
          "internalType": "address",
          "name": "",
          "type": "address"
        }
      ],
      "stateMutability": "view",
      "type": "function"
    },
    {
      "inputs": [
        {
          "internalType": "uint256",
          "name": "share",
          "type": "uint256"
        }
      ],
      "name": "calculateAssetShare",
      "outputs": [
        {
          "internalType": "uint256[]",
          "name": "",
          "type": "uint256[]"
        }
      ],
      "stateMutability": "view",
      "type": "function"
    },
    {
      "inputs": [],
      "name": "decimals",
      "outputs": [
        {
          "internalType": "uint8",
          "name": "",
          "type": "uint8"
        }
      ],
      "stateMutability": "view",
      "type": "function"
    },
    {
      "inputs": [
        {
          "internalType": "address",
          "name": "to",
          "type": "address"
        },
        {
          "internalType": "uint256[]",
          "name": "amounts",
          "type": "uint256[]"
        },
        {
          "internalType": "uint256",
          "name": "deadline",
          "type": "uint256"
        }
      ],
      "name": "deposit",
      "outputs": [
        {
          "internalType": "uint256",
          "name": "",
          "type": "uint256"
        }
      ],
      "stateMutability": "nonpayable",
      "type": "function"
    },
    {
      "inputs": [
        {
          "internalType": "address",
          "name": "fromToken",
          "type": "address"
        },
        {
          "internalType": "address",
          "name": "toToken",
          "type": "address"
        },
        {
          "internalType": "uint256",
          "name": "amount",
          "type": "uint256"
        }
      ],
      "name": "getAmountOut",
      "outputs": [
        {
          "internalType": "uint256",
          "name": "",
          "type": "uint256"
        }
      ],
      "stateMutability": "view",
      "type": "function"
    },
    {
      "inputs": [
        {
          "internalType": "address",
          "name": "asset",
          "type": "address"
        }
      ],
      "name": "getAssetReserve",
      "outputs": [
        {
          "internalType": "uint256",
          "name": "",
          "type": "uint256"
        }
      ],
      "stateMutability": "view",
      "type": "function"
    },
    {
      "inputs": [],
      "name": "getAssets",
      "outputs": [
        {
          "internalType": "address[]",
          "name": "",
          "type": "address[]"
        }
      ],
      "stateMutability": "view",
      "type": "function"
    },
    {
      "inputs": [
        {
          "internalType": "address",
          "name": "token",
          "type": "address"
        }
      ],
      "name": "getDeviationForToken",
      "outputs": [
        {
          "internalType": "uint256",
          "name": "",
          "type": "uint256"
        }
      ],
      "stateMutability": "view",
      "type": "function"
    },
    {
      "inputs": [],
      "name": "getDeviations",
      "outputs": [
        {
          "internalType": "bool[]",
          "name": "directions",
          "type": "bool[]"
        },
        {
          "internalType": "uint256[]",
          "name": "deviations",
          "type": "uint256[]"
        }
      ],
      "stateMutability": "view",
      "type": "function"
    },
    {
      "inputs": [],
      "name": "getReserves",
      "outputs": [
        {
          "internalType": "uint256[]",
          "name": "",
          "type": "uint256[]"
        }
      ],
      "stateMutability": "view",
      "type": "function"
    },
    {
      "inputs": [
        {
          "internalType": "address",
          "name": "token",
          "type": "address"
        }
      ],
      "name": "getSlippage",
      "outputs": [
        {
          "internalType": "uint256",
          "name": "",
          "type": "uint256"
        }
      ],
      "stateMutability": "view",
      "type": "function"
    },
    {
      "inputs": [],
      "name": "getSlippageParams",
      "outputs": [
        {
          "internalType": "uint256[]",
          "name": "",
          "type": "uint256[]"
        }
      ],
      "stateMutability": "view",
      "type": "function"
    },
    {
      "inputs": [
        {
          "internalType": "address",
          "name": "token",
          "type": "address"
        }
      ],
      "name": "getTokenWeight",
      "outputs": [
        {
          "internalType": "uint256",
          "name": "",
          "type": "uint256"
        }
      ],
      "stateMutability": "view",
      "type": "function"
    },
    {
      "inputs": [],
      "name": "getWeights",
      "outputs": [
        {
          "internalType": "uint256[]",
          "name": "",
          "type": "uint256[]"
        }
      ],
      "stateMutability": "view",
      "type": "function"
    },
    {
      "inputs": [
        {
          "internalType": "string",
          "name": "_name",
          "type": "string"
        },
        {
          "internalType": "string",
          "name": "_symbol",
          "type": "string"
        },
        {
          "internalType": "address[]",
          "name": "_assets",
          "type": "address[]"
        },
        {
          "internalType": "uint256[]",
          "name": "_weights",
          "type": "uint256[]"
        },
        {
          "internalType": "address",
          "name": "_registry",
          "type": "address"
        }
      ],
      "name": "initialize",
      "outputs": [],
      "stateMutability": "nonpayable",
      "type": "function"
    },
    {
      "inputs": [],
      "name": "isRebalanceNeeded",
      "outputs": [
        {
          "internalType": "bool",
          "name": "",
          "type": "bool"
        }
      ],
      "stateMutability": "view",
      "type": "function"
    },
    {
      "inputs": [],
      "name": "liquidity",
      "outputs": [
        {
          "internalType": "uint256",
          "name": "",
          "type": "uint256"
        }
      ],
      "stateMutability": "view",
      "type": "function"
    },
    {
      "inputs": [],
      "name": "name",
      "outputs": [
        {
          "internalType": "string",
          "name": "",
          "type": "string"
        }
      ],
      "stateMutability": "view",
      "type": "function"
    },
    {
      "inputs": [],
      "name": "owner",
      "outputs": [
        {
          "internalType": "address",
          "name": "",
          "type": "address"
        }
      ],
      "stateMutability": "view",
      "type": "function"
    },
    {
      "inputs": [],
      "name": "pause",
      "outputs": [],
      "stateMutability": "nonpayable",
      "type": "function"
    },
    {
      "inputs": [],
      "name": "paused",
      "outputs": [
        {
          "internalType": "bool",
          "name": "",
          "type": "bool"
        }
      ],
      "stateMutability": "view",
      "type": "function"
    },
    {
      "inputs": [],
      "name": "proxiableUUID",
      "outputs": [
        {
          "internalType": "bytes32",
          "name": "",
          "type": "bytes32"
        }
      ],
      "stateMutability": "view",
      "type": "function"
    },
    {
      "inputs": [
        {
          "internalType": "address",
          "name": "fromToken",
          "type": "address"
        },
        {
          "internalType": "address",
          "name": "toToken",
          "type": "address"
        },
        {
          "internalType": "uint256",
          "name": "amount",
          "type": "uint256"
        }
      ],
      "name": "quotePotentialSwap",
      "outputs": [
        {
          "internalType": "uint256",
          "name": "",
          "type": "uint256"
        }
      ],
      "stateMutability": "view",
      "type": "function"
    },
    {
      "inputs": [],
      "name": "rebalance",
      "outputs": [],
      "stateMutability": "nonpayable",
      "type": "function"
    },
    {
      "inputs": [
        {
          "internalType": "address",
          "name": "receiver",
          "type": "address"
        }
      ],
      "name": "rebalanceAndDeposit",
      "outputs": [
        {
          "internalType": "uint256[]",
          "name": "",
          "type": "uint256[]"
        }
      ],
      "stateMutability": "nonpayable",
      "type": "function"
    },
    {
      "inputs": [],
      "name": "registry",
      "outputs": [
        {
          "internalType": "contract IBaluniV1Registry",
          "name": "",
          "type": "address"
        }
      ],
      "stateMutability": "view",
      "type": "function"
    },
    {
      "inputs": [
        {
          "internalType": "string",
          "name": "_name",
          "type": "string"
        },
        {
          "internalType": "string",
          "name": "_symbol",
          "type": "string"
        },
        {
          "internalType": "address[]",
          "name": "_assets",
          "type": "address[]"
        },
        {
          "internalType": "uint256[]",
          "name": "_weights",
          "type": "uint256[]"
        },
        {
          "internalType": "address",
          "name": "_registry",
          "type": "address"
        },
        {
          "internalType": "uint64",
          "name": "_version",
          "type": "uint64"
        }
      ],
      "name": "reinitialize",
      "outputs": [],
      "stateMutability": "nonpayable",
      "type": "function"
    },
    {
      "inputs": [],
      "name": "renounceOwnership",
      "outputs": [],
      "stateMutability": "nonpayable",
      "type": "function"
    },
    {
      "inputs": [
        {
          "internalType": "address",
          "name": "",
          "type": "address"
        }
      ],
      "name": "reserves",
      "outputs": [
        {
          "internalType": "uint256",
          "name": "",
          "type": "uint256"
        }
      ],
      "stateMutability": "view",
      "type": "function"
    },
    {
      "inputs": [
        {
          "internalType": "address",
          "name": "fromToken",
          "type": "address"
        },
        {
          "internalType": "address",
          "name": "toToken",
          "type": "address"
        },
        {
          "internalType": "uint256",
          "name": "amount",
          "type": "uint256"
        },
        {
          "internalType": "uint256",
          "name": "minAmount",
          "type": "uint256"
        },
        {
          "internalType": "address",
          "name": "receiver",
          "type": "address"
        },
        {
          "internalType": "uint256",
          "name": "deadline",
          "type": "uint256"
        }
      ],
      "name": "swap",
      "outputs": [
        {
          "internalType": "uint256",
          "name": "amountOut",
          "type": "uint256"
        },
        {
          "internalType": "uint256",
          "name": "fee",
          "type": "uint256"
        }
      ],
      "stateMutability": "nonpayable",
      "type": "function"
    },
    {
      "inputs": [],
      "name": "symbol",
      "outputs": [
        {
          "internalType": "string",
          "name": "",
          "type": "string"
        }
      ],
      "stateMutability": "view",
      "type": "function"
    },
    {
      "inputs": [],
      "name": "totalSupply",
      "outputs": [
        {
          "internalType": "uint256",
          "name": "",
          "type": "uint256"
        }
      ],
      "stateMutability": "view",
      "type": "function"
    },
    {
      "inputs": [],
      "name": "totalValuation",
      "outputs": [
        {
          "internalType": "uint256",
          "name": "totalVal",
          "type": "uint256"
        },
        {
          "internalType": "uint256[]",
          "name": "valuations",
          "type": "uint256[]"
        }
      ],
      "stateMutability": "view",
      "type": "function"
    },
    {
      "inputs": [
        {
          "internalType": "address",
          "name": "to",
          "type": "address"
        },
        {
          "internalType": "uint256",
          "name": "value",
          "type": "uint256"
        }
      ],
      "name": "transfer",
      "outputs": [
        {
          "internalType": "bool",
          "name": "",
          "type": "bool"
        }
      ],
      "stateMutability": "nonpayable",
      "type": "function"
    },
    {
      "inputs": [
        {
          "internalType": "address",
          "name": "from",
          "type": "address"
        },
        {
          "internalType": "address",
          "name": "to",
          "type": "address"
        },
        {
          "internalType": "uint256",
          "name": "value",
          "type": "uint256"
        }
      ],
      "name": "transferFrom",
      "outputs": [
        {
          "internalType": "bool",
          "name": "",
          "type": "bool"
        }
      ],
      "stateMutability": "nonpayable",
      "type": "function"
    },
    {
      "inputs": [
        {
          "internalType": "address",
          "name": "newOwner",
          "type": "address"
        }
      ],
      "name": "transferOwnership",
      "outputs": [],
      "stateMutability": "nonpayable",
      "type": "function"
    },
    {
      "inputs": [],
      "name": "unitPrice",
      "outputs": [
        {
          "internalType": "uint256",
          "name": "",
          "type": "uint256"
        }
      ],
      "stateMutability": "view",
      "type": "function"
    },
    {
      "inputs": [],
      "name": "unpause",
      "outputs": [],
      "stateMutability": "nonpayable",
      "type": "function"
    },
    {
      "inputs": [
        {
          "internalType": "address",
          "name": "newImplementation",
          "type": "address"
        },
        {
          "internalType": "bytes",
          "name": "data",
          "type": "bytes"
        }
      ],
      "name": "upgradeToAndCall",
      "outputs": [],
      "stateMutability": "payable",
      "type": "function"
    },
    {
      "inputs": [
        {
          "internalType": "uint256",
          "name": "share",
          "type": "uint256"
        },
        {
          "internalType": "address",
          "name": "to",
          "type": "address"
        },
        {
          "internalType": "uint256",
          "name": "deadline",
          "type": "uint256"
        }
      ],
      "name": "withdraw",
      "outputs": [
        {
          "internalType": "uint256",
          "name": "",
          "type": "uint256"
        }
      ],
      "stateMutability": "nonpayable",
      "type": "function"
    }
  ],
  "bytecode": "0x60a06040523461003e5761001161004d565b610019610043565b618aef6101028239608051818181616d1401528181616d990152616f940152618aef90f35b610049565b60405190565b5f80fd5b610055610057565b565b61005f610061565b565b61006961006b565b565b610073610075565b565b61007d61007f565b565b610087610089565b565b610091610093565b565b61009b61009d565b565b6100a56100a7565b565b6100af6100f3565b565b60018060a01b031690565b90565b6100d36100ce6100d8926100b1565b6100bc565b6100b1565b90565b6100e4906100bf565b90565b6100f0906100db565b90565b6100fc306100e7565b60805256fe60806040526004361015610013575b611a3e565b61001d5f3561030c565b806306fdde03146103075780630902f1ac14610302578063095ea7b3146102fd57806312899068146102f857806318160ddd146102f35780631a686502146102ee57806322acb867146102e957806323b872dd146102e4578063250aa683146102df578063295b9300146102da578063313ce567146102d557806334de9b8d146102d05780633f4ba83a146102cb57806343c2e2f5146102c65780634aa06652146102c15780634f1ef286146102bc57806352d1902d146102b75780635c975abb146102b257806367e4ac2c146102ad57806370a08231146102a8578063715018a6146102a35780637b1039991461029e5780637d7c2a1c146102995780637ff1c179146102945780638456cb591461028f57806389b3179b1461028a5780638a77c8dc146102855780638da5cb5b146102805780638de30f301461027b57806395d89b41146102765780639908fc8b14610271578063a9059cbb1461026c578063ad3cb1cc14610267578063b2b55d7014610262578063b3bf9d321461025d578063b7110e1314610258578063c2ee3a0814610253578063cdf456e11461024e578063cf8fa76414610249578063d14ef46d14610244578063d66bd5241461023f578063dd62ed3e1461023a578063e63697c814610235578063e64ebdd214610230578063e73faa2d1461022b578063f2fde38b146102265763fb33a6c00361000e57611a04565b6118dd565b6118a8565b611873565b61183d565b6117cd565b61176b565b6116f7565b611586565b611533565b6114b0565b611442565b61135a565b6112d2565b61129d565b6111ef565b6111b2565b6110f6565b6110c1565b61108c565b611035565b611000565b610fcd565b610f98565b610f65565b610f30565b610e52565b610e1d565b610de8565b610d14565b610cdf565b610c90565b610b99565b610b63565b610b30565b610af9565b6107dc565b61077e565b610723565b6106ed565b61067e565b610649565b610614565b6105df565b610569565b610471565b61039a565b60e01c90565b60405190565b5f80fd5b5f80fd5b5f91031261032a57565b61031c565b5190565b60209181520190565b90825f9392825e0152565b601f801991011690565b61037061037960209361037e936103678161032f565b93848093610333565b9586910161033c565b610347565b0190565b6103979160208201915f818403910152610351565b90565b346103ca576103aa366004610320565b6103c66103b5611b77565b6103bd610312565b91829182610382565b0390f35b610318565b5190565b60209181520190565b60200190565b90565b6103ee906103e2565b9052565b906103ff816020936103e5565b0190565b60200190565b90610426610420610419846103cf565b80936103d3565b926103dc565b905f5b8181106104365750505090565b90919261044f61044960019286516103f2565b94610403565b9101919091610429565b61046e9160208201915f818403910152610409565b90565b346104a157610481366004610320565b61049d61048c611cb1565b610494610312565b91829182610459565b0390f35b610318565b5f80fd5b73ffffffffffffffffffffffffffffffffffffffff1690565b6104cc906104aa565b90565b6104d8816104c3565b036104df57565b5f80fd5b905035906104f0826104cf565b565b6104fb816103e2565b0361050257565b5f80fd5b90503590610513826104f2565b565b919060408382031261053d578061053161053a925f86016104e3565b93602001610506565b90565b61031c565b151590565b61055090610542565b9052565b9190610567905f60208501940190610547565b565b3461059a5761059661058561057f366004610515565b90611dc6565b61058d610312565b91829182610554565b0390f35b610318565b906020828203126105b8576105b5915f016104e3565b90565b61031c565b6105c6906103e2565b9052565b91906105dd905f602085019401906105bd565b565b3461060f5761060b6105fa6105f536600461059f565b611dec565b610602610312565b918291826105ca565b0390f35b610318565b3461064457610624366004610320565b61064061062f611e84565b610637610312565b918291826105ca565b0390f35b610318565b3461067957610659366004610320565b610675610664611ea3565b61066c610312565b918291826105ca565b0390f35b610318565b346106ae5761068e366004610320565b6106aa610699611eb8565b6106a1610312565b91829182610459565b0390f35b610318565b90916060828403126106e8576106e56106ce845f85016104e3565b936106dc81602086016104e3565b93604001610506565b90565b61031c565b3461071e5761071a6107096107033660046106b3565b91611f3b565b610711610312565b91829182610554565b0390f35b610318565b346107535761074f61073e61073936600461059f565b611f6a565b610746610312565b918291826105ca565b0390f35b610318565b9161077b9261076e60408201935f8301906105bd565b6020818403910152610409565b90565b346107af5761078e366004610320565b610796612002565b906107ab6107a2610312565b92839283610758565b0390f35b610318565b60ff1690565b6107c3906107b4565b9052565b91906107da905f602085019401906107ba565b565b3461080c576107ec366004610320565b6108086107f7612045565b6107ff610312565b918291826107c7565b0390f35b610318565b5f80fd5b5f80fd5b7f4e487b71000000000000000000000000000000000000000000000000000000005f52604160045260245ffd5b9061085090610347565b810190811067ffffffffffffffff82111761086a57604052565b610819565b9061088261087b610312565b9283610846565b565b67ffffffffffffffff81116108a25761089e602091610347565b0190565b610819565b90825f939282370152565b909291926108c76108c282610884565b61086f565b938185526020850190828401116108e3576108e1926108a7565b565b610815565b9080601f8301121561090657816020610903933591016108b2565b90565b610811565b67ffffffffffffffff81116109235760208091020190565b610819565b5f80fd5b9092919261094161093c8261090b565b61086f565b938185526020808601920283019281841161097e57915b8383106109655750505050565b6020809161097384866104e3565b815201920191610958565b610928565b9080601f830112156109a15781602061099e9335910161092c565b90565b610811565b67ffffffffffffffff81116109be5760208091020190565b610819565b909291926109d86109d3826109a6565b61086f565b9381855260208086019202830192818411610a1557915b8383106109fc5750505050565b60208091610a0a8486610506565b8152019201916109ef565b610928565b9080601f83011215610a3857816020610a35933591016109c3565b90565b610811565b919060a083820312610aef575f83013567ffffffffffffffff8111610aea5781610a689185016108e8565b92602081013567ffffffffffffffff8111610ae55782610a899183016108e8565b92604082013567ffffffffffffffff8111610ae05783610aaa918401610983565b9260608301359067ffffffffffffffff8211610adb57610acf81610ad8938601610a1a565b936080016104e3565b90565b6104a6565b6104a6565b6104a6565b6104a6565b61031c565b5f0190565b34610b2b57610b15610b0c366004610a3d565b93929092612928565b610b1d610312565b80610b2781610af4565b0390f35b610318565b34610b5e57610b40366004610320565b610b48612953565b610b50610312565b80610b5a81610af4565b0390f35b610318565b34610b9457610b90610b7f610b793660046106b3565b91612a06565b610b87610312565b918291826105ca565b0390f35b610318565b34610bca57610bc6610bb5610baf3660046106b3565b91612beb565b610bbd610312565b918291826105ca565b0390f35b610318565b67ffffffffffffffff8111610bed57610be9602091610347565b0190565b610819565b90929192610c07610c0282610bcf565b61086f565b93818552602085019082840111610c2357610c21926108a7565b565b610815565b9080601f83011215610c4657816020610c4393359101610bf2565b90565b610811565b919091604081840312610c8b57610c64835f83016104e3565b92602082013567ffffffffffffffff8111610c8657610c839201610c28565b90565b6104a6565b61031c565b610ca4610c9e366004610c4b565b90612dd3565b610cac610312565b80610cb681610af4565b0390f35b90565b610cc690610cba565b9052565b9190610cdd905f60208501940190610cbd565b565b34610d0f57610cef366004610320565b610d0b610cfa612e4e565b610d02610312565b91829182610cca565b0390f35b610318565b34610d4457610d24366004610320565b610d40610d2f612e82565b610d37610312565b91829182610554565b0390f35b610318565b5190565b60209181520190565b60200190565b610d65906104c3565b9052565b90610d7681602093610d5c565b0190565b60200190565b90610d9d610d97610d9084610d49565b8093610d4d565b92610d56565b905f5b818110610dad5750505090565b909192610dc6610dc06001928651610d69565b94610d7a565b9101919091610da0565b610de59160208201915f818403910152610d80565b90565b34610e1857610df8366004610320565b610e14610e03612f16565b610e0b610312565b91829182610dd0565b0390f35b610318565b34610e4d57610e49610e38610e3336600461059f565b612f98565b610e40610312565b918291826105ca565b0390f35b610318565b34610e8057610e62366004610320565b610e6a612fe4565b610e72610312565b80610e7c81610af4565b0390f35b610318565b1c90565b73ffffffffffffffffffffffffffffffffffffffff1690565b610eb2906008610eb79302610e85565b610e89565b90565b90610ec59154610ea2565b90565b610ed460045f90610eba565b90565b90565b610eee610ee9610ef3926104aa565b610ed7565b6104aa565b90565b610eff90610eda565b90565b610f0b90610ef6565b90565b610f1790610f02565b9052565b9190610f2e905f60208501940190610f0e565b565b34610f6057610f40366004610320565b610f5c610f4b610ec8565b610f53610312565b91829182610f1b565b0390f35b610318565b34610f9357610f75366004610320565b610f7d61308a565b610f85610312565b80610f8f81610af4565b0390f35b610318565b34610fc857610fa8366004610320565b610fc4610fb36130a4565b610fbb610312565b91829182610459565b0390f35b610318565b34610ffb57610fdd366004610320565b610fe5613143565b610fed610312565b80610ff781610af4565b0390f35b610318565b346110305761102c61101b61101636600461059f565b61314d565b611023610312565b918291826105ca565b0390f35b610318565b3461106557611045366004610320565b611061611050613218565b611058610312565b91829182610554565b0390f35b610318565b611073906104c3565b9052565b919061108a905f6020850194019061106a565b565b346110bc5761109c366004610320565b6110b86110a7613347565b6110af610312565b91829182611077565b0390f35b610318565b346110f1576110ed6110dc6110d736600461059f565b6133a6565b6110e4610312565b91829182610459565b0390f35b610318565b3461112657611106366004610320565b6111226111116135bb565b611119610312565b91829182610382565b0390f35b610318565b909160c08284031261118a57611143835f84016104e3565b9261115181602085016104e3565b9261115f8260408301610506565b926111876111708460608501610506565b9361117e81608086016104e3565b9360a001610506565b90565b61031c565b9160206111b09294936111a960408201965f8301906105bd565b01906105bd565b565b346111ea576111d16111c536600461112b565b94939093929192613f1a565b906111e66111dd610312565b9283928361118f565b0390f35b610318565b346112205761121c61120b611205366004610515565b90613f3d565b611213610312565b91829182610554565b0390f35b610318565b9061123761123283610884565b61086f565b918252565b5f7f352e302e30000000000000000000000000000000000000000000000000000000910152565b61126d6005611225565b9061127a6020830161123c565b565b611284611263565b90565b61128f61127c565b90565b61129a611287565b90565b346112cd576112ad366004610320565b6112c96112b8611292565b6112c0610312565b91829182610382565b0390f35b610318565b34611302576112fe6112ed6112e836600461059f565b613f5f565b6112f5610312565b918291826105ca565b0390f35b610318565b90916060828403126113555761131f835f84016104e3565b9260208301359067ffffffffffffffff8211611350576113448161134d938601610a1a565b93604001610506565b90565b6104a6565b61031c565b3461138b57611387611376611370366004611307565b91614807565b61137e610312565b918291826105ca565b0390f35b610318565b5190565b60209181520190565b60200190565b6113ac90610542565b9052565b906113bd816020936113a3565b0190565b60200190565b906113e46113de6113d784611390565b8093611394565b9261139d565b905f5b8181106113f45750505090565b90919261140d61140760019286516113b0565b946113c1565b91019190916113e7565b909161143161143f9360408401908482035f8601526113c7565b916020818403910152610409565b90565b3461147357611452366004610320565b61145a614890565b9061146f611466610312565b92839283611417565b0390f35b610318565b90565b61148b9060086114909302610e85565b611478565b90565b9061149e915461147b565b90565b6114ad60015f90611493565b90565b346114e0576114c0366004610320565b6114dc6114cb6114a1565b6114d3610312565b918291826105ca565b0390f35b610318565b73ffffffffffffffffffffffffffffffffffffffff1690565b61150e9060086115139302610e85565b6114e5565b90565b9061152191546114fe565b90565b61153060025f90611516565b90565b3461156357611543366004610320565b61155f61154e611524565b611556610312565b91829182611077565b0390f35b610318565b906020828203126115815761157e915f01610506565b90565b61031c565b346115b6576115b26115a161159c366004611568565b614a72565b6115a9610312565b918291826105ca565b0390f35b610318565b7f4e487b71000000000000000000000000000000000000000000000000000000005f52603260045260245ffd5b5490565b5f5260205f2090565b6115fe816115e8565b821015611618576116106004916115ec565b910201905f90565b6115bb565b5f1c90565b61162e6116339161161d565b6114e5565b90565b6116409054611622565b90565b61164f6116549161161d565b611478565b90565b6116619054611643565b90565b5f9061166f826115e8565b8110156116b55761167f916115f5565b509061168c5f8301611636565b9161169960018201611657565b916116b260036116ab60028501611657565b9301611657565b90565b5f80fd5b6116ee6116f5946116e46060949897956116da608086019a5f87019061106a565b60208501906105bd565b60408301906105bd565b01906105bd565b565b3461172b5761172761171261170d366004611568565b611664565b9061171e949294610312565b948594856116b9565b0390f35b610318565b61173990610ef6565b90565b9061174690611730565b5f5260205260405f2090565b611768906117636005915f9261173c565b611493565b90565b3461179b5761179761178661178136600461059f565b611752565b61178e610312565b918291826105ca565b0390f35b610318565b91906040838203126117c857806117bc6117c5925f86016104e3565b936020016104e3565b90565b61031c565b346117fe576117fa6117e96117e33660046117a0565b90614ad3565b6117f1610312565b918291826105ca565b0390f35b610318565b90916060828403126118385761183561181e845f8501610506565b9361182c81602086016104e3565b93604001610506565b90565b61031c565b3461186e5761186a611859611853366004611803565b9161578e565b611861610312565b918291826105ca565b0390f35b610318565b346118a35761189f61188e611889366004611568565b6157a4565b611896610312565b91829182610459565b0390f35b610318565b346118d8576118b8366004610320565b6118d46118c36159bf565b6118cb610312565b918291826105ca565b0390f35b610318565b3461190b576118f56118f036600461059f565b615b82565b6118fd610312565b8061190781610af4565b0390f35b610318565b67ffffffffffffffff1690565b61192681611910565b0361192d57565b5f80fd5b9050359061193e8261191d565b565b909160c0828403126119ff575f82013567ffffffffffffffff81116119fa578361196b9184016108e8565b92602083013567ffffffffffffffff81116119f5578161198c9185016108e8565b92604081013567ffffffffffffffff81116119f057826119ad918301610983565b92606082013567ffffffffffffffff81116119eb576119d1846119e8928501610a1a565b936119df81608086016104e3565b9360a001611931565b90565b6104a6565b6104a6565b6104a6565b6104a6565b61031c565b34611a3957611a23611a17366004611940565b94939093929192615e6a565b611a2b610312565b80611a3581610af4565b0390f35b610318565b5f80fd5b606090565b7f4e487b71000000000000000000000000000000000000000000000000000000005f52602260045260245ffd5b9060016002830492168015611a94575b6020831014611a8f57565b611a47565b91607f1691611a84565b60209181520190565b5f5260205f2090565b905f9291805490611aca611ac383611a74565b8094611a9e565b916001811690815f14611b215750600114611ae5575b505050565b611af29192939450611aa7565b915f925b818410611b0957505001905f8080611ae0565b60018160209295939554848601520191019290611af6565b92949550505060ff19168252151560200201905f8080611ae0565b90611b4691611ab0565b90565b90611b69611b6292611b59610312565b93848092611b3c565b0383610846565b565b611b7490611b49565b90565b611b7f611a42565b50611b936003611b8d615e7a565b01611b6b565b90565b606090565b90611bad611ba8836109a6565b61086f565b918252565b369037565b90611bdc611bc483611b9b565b92602080611bd286936109a6565b9201910390611bb2565b565b90565b611bf5611bf0611bfa92611bde565b610ed7565b6103e2565b90565b6001611c0991016103e2565b90565b611c1590610eda565b90565b611c2190611c0c565b90565b611c2d90610ef6565b90565b611c3990610ef6565b90565b5f80fd5b60e01b90565b90505190611c53826104f2565b565b90602082820312611c6e57611c6b915f01611c46565b90565b61031c565b611c7b610312565b3d5f823e3d90fd5b90611c8d826103cf565b811015611c9e576020809102010190565b6115bb565b90611cad906103e2565b9052565b611cb9611b96565b50611ccb611cc65f6115e8565b611bb7565b90611cd55f611be1565b5b80611cf1611ceb611ce65f6115e8565b6103e2565b916103e2565b1015611dbf57611d55906020611d23611d1e611d195f611d128187906115f5565b5001611636565b611c18565b611c24565b6370a0823190611d4a611d3530611c30565b92611d3e610312565b96879485938493611c40565b835260048301611077565b03915afa918215611dba57611d8792611d82915f91611d8c575b50611d7d8691849092611c83565b611ca3565b611bfd565b611cd6565b611dad915060203d8111611db3575b611da58183610846565b810190611c55565b5f611d6f565b503d611d9b565b611c73565b50565b5f90565b611de391611dd2611dc2565b50611ddb615e9e565b919091615eab565b600190565b5f90565b611df4611de8565b50611dfe5f611be1565b5b80611e1a611e14611e0f5f6115e8565b6103e2565b916103e2565b1015611e7657611e365f611e2f8184906115f5565b5001611636565b611e48611e42846104c3565b916104c3565b14611e5b57611e5690611bfd565b611dff565b611e739150611e6c6002915f6115f5565b5001611657565b90565b5050611e815f611be1565b90565b611e8c611de8565b50611ea06002611e9a615e7a565b01611657565b90565b611eab611de8565b50611eb4615ebb565b5090565b611ec0611b96565b50611ed2611ecd5f6115e8565b611bb7565b611edb5f611be1565b5b80611ef7611ef1611eec5f6115e8565b6103e2565b916103e2565b1015611f3757611f3290611f2d611f1b6001611f145f85906115f5565b5001611657565b611f288591849092611c83565b611ca3565b611bfd565b611edc565b5090565b91611f6592611f48611dc2565b50611f5d611f54615e9e565b8290849161601e565b9190916160e9565b600190565b611f72611de8565b50611f7c5f611be1565b5b80611f98611f92611f8d5f6115e8565b6103e2565b916103e2565b1015611ff457611fb45f611fad8184906115f5565b5001611636565b611fc6611fc0846104c3565b916104c3565b14611fd957611fd490611bfd565b611f7d565b611ff19150611fea6001915f6115f5565b5001611657565b90565b5050611fff5f611be1565b90565b61200a611de8565b50612013611b96565b5061201c615ebb565b91909190565b5f90565b90565b61203d61203861204292612026565b610ed7565b6107b4565b90565b61204d612022565b506120586012612029565b90565b60401c90565b60ff1690565b6120736120789161205b565b612061565b90565b6120859054612067565b90565b67ffffffffffffffff1690565b6120a16120a69161161d565b612088565b90565b6120b39054612095565b90565b6120ca6120c56120cf92611bde565b610ed7565b611910565b90565b90565b6120e96120e46120ee926120d2565b610ed7565b611910565b90565b6120fa90610ef6565b90565b5f1b90565b9061211567ffffffffffffffff916120fd565b9181191691161790565b61213361212e61213892611910565b610ed7565b611910565b90565b90565b9061215361214e61215a9261211f565b61213b565b8254612102565b9055565b60401b90565b9061217868ff00000000000000009161215e565b9181191691161790565b61218b90610542565b90565b90565b906121a66121a16121ad92612182565b61218e565b8254612164565b9055565b6121ba906120d5565b9052565b91906121d1905f602085019401906121b1565b565b919390926121df6161c6565b946121f46121ee5f880161207b565b15610542565b946122005f88016120a9565b8061221361220d5f6120b6565b91611910565b148061234d575b9061222e61222860016120d5565b91611910565b1480612325575b612240909115610542565b9081612314575b506122d8576122709461226561225d60016120d5565b5f8a0161213e565b866122c6575b612761565b612278575b50565b612285905f809101612191565b60016122bd7fc7f505b2f371ae2175ee4913f4499e1f2633a7b5936321eed1cdaeb6115181d2916122b4610312565b918291826121be565b0390a15f612275565b6122d360015f8a01612191565b61226b565b6122e0610312565b7ff92ee8a90000000000000000000000000000000000000000000000000000000081528061231060048201610af4565b0390fd5b61231f915015610542565b5f612247565b50612240612332306120f1565b3b61234561233f5f611be1565b916103e2565b149050612235565b508661221a565b61235d90610eda565b90565b61236990612354565b90565b9061238b73ffffffffffffffffffffffffffffffffffffffff916120fd565b9181191691161790565b61239e90612354565b90565b90565b906123b96123b46123c092612395565b6123a1565b825461236c565b9055565b90565b6123db6123d66123e0926123c4565b610ed7565b6103e2565b90565b9061240e7fffffffffffffffffffffffffffffffffffffffffffffffffffffffffffffffff916120fd565b9181191691161790565b61242c612427612431926103e2565b610ed7565b6103e2565b90565b90565b9061244c61244761245392612418565b612434565b82546123e3565b9055565b6124636124689161161d565b610e89565b90565b6124759054612457565b90565b90505190612485826104cf565b565b906020828203126124a05761249d915f01612478565b90565b61031c565b90565b906124bd6124b86124c492611730565b6124a5565b825461236c565b9055565b90565b6124df6124da6124e4926124c8565b610ed7565b6103e2565b90565b6124fb6124f661250092611bde565b610ed7565b6104aa565b90565b61250c906124e7565b90565b5f7f496e76616c696420626173652061737365742061646472657373000000000000910152565b612543601a602092610333565b61254c8161250f565b0190565b6125659060208101905f818303910152612536565b90565b1561256f57565b612577610312565b7f08c379a0000000000000000000000000000000000000000000000000000000008152806125a760048201612550565b0390fd5b5f7f496e697469616c697a6174696f6e206661696c65640000000000000000000000910152565b6125df6015602092610333565b6125e8816125ab565b0190565b6126019060208101905f8183039101526125d2565b90565b1561260b57565b612613610312565b7f08c379a000000000000000000000000000000000000000000000000000000000815280612643600482016125ec565b0390fd5b61265190516103e2565b90565b7f4e487b71000000000000000000000000000000000000000000000000000000005f52601160045260245ffd5b612690612696919392936103e2565b926103e2565b82018092116126a157565b612654565b90565b6126bd6126b86126c2926126a6565b610ed7565b6103e2565b90565b5f7f496e76616c696420776569676874730000000000000000000000000000000000910152565b6126f9600f602092610333565b612702816126c5565b0190565b61271b9060208101905f8183039101526126ec565b90565b1561272557565b61272d610312565b7f08c379a00000000000000000000000000000000000000000000000000000000081528061275d60048201612706565b0390fd5b6127e99395946127806127a49361279d9361277b33616208565b616233565b612788616249565b61279061626f565b612798616295565b612360565b60046123a4565b6127bf6127b8670de0b6b3a76400006123c7565b6001612437565b60206127d36127ce600461246b565b610f02565b631bf01e9b906127e1610312565b948592611c40565b825281806127f960048201610af4565b03915afa9081156129235761281e61286b92612870945f916128f5575b5060026124a8565b61283661282f64e8d4a510006124cb565b6003612437565b6128646128436002611636565b61285d6128576128525f612503565b6104c3565b916104c3565b1415612568565b84906167e4565b612604565b6128795f611be1565b6128825f611be1565b905b8161289f612899612894876103cf565b6103e2565b916103e2565b10156128d1576128c56128cb916128bf6128ba878690611c83565b612647565b90612681565b91611bfd565b90612884565b90506128f39192506128ed6128e76127106126a9565b916103e2565b1461271e565b565b612916915060203d811161291c575b61290e8183610846565b810190612487565b5f612816565b503d612904565b611c73565b90612935949392916121d3565b565b61293f616be0565b612947612949565b565b612951616ced565b565b61295b612937565b565b61296c612972919392936103e2565b926103e2565b9161297e8382026103e2565b92818404149015171561298d57565b612654565b7f4e487b71000000000000000000000000000000000000000000000000000000005f52601260045260245ffd5b6129cb6129d1916103e2565b916103e2565b9081156129dc570490565b612992565b6129f06129f6919392936103e2565b926103e2565b8203918211612a0157565b612654565b91612ac8612ac2612abd612a288594612a1d611de8565b508790869091612beb565b612a3187611dec565b96612a3b86611dec565b90612aa5612a9f612a9a612a93612a82612a7b612a6a612a63612a5d89611f6a565b9f611f6a565b9f8a61295d565b612a756127106126a9565b906129bf565b968861295d565b612a8d6127106126a9565b906129bf565b9a9361314d565b6103e2565b916103e2565b115f14612aea57612ab5916129e1565b955b9361314d565b6103e2565b916103e2565b105f14612adc57612ad891612681565b5b90565b612ae5916129e1565b612ad9565b612af391612681565b95612ab7565b612b0290610eda565b90565b612b0e90612af9565b90565b5f7f496e76616c6964206f7261636c65206164647265737300000000000000000000910152565b612b456016602092610333565b612b4e81612b11565b0190565b612b679060208101905f818303910152612b38565b90565b15612b7157565b612b79610312565b7f08c379a000000000000000000000000000000000000000000000000000000000815280612ba960048201612b52565b0390fd5b612bb690610ef6565b90565b604090612be2612be99496959396612bd860608401985f85019061106a565b602083019061106a565b01906105bd565b565b90612bf4611de8565b50612c226020612c0c612c07600461246b565b610f02565b63bb3ba04c90612c1a610312565b938492611c40565b82528180612c3260048201610af4565b03915afa8015612da557612c4d915f91612d77575b50612b05565b91612c7b6020612c65612c60600461246b565b610f02565b63bb3ba04c90612c73610312565b938492611c40565b82528180612c8b60048201610af4565b03915afa8015612d7257602094612ccc612cd192612cf1945f91612d45575b50612cc5612cbf612cba5f612503565b6104c3565b916104c3565b1415612b6a565b612bad565b91612cfc63248391ff919496612ce5610312565b97889687958695611c40565b855260048501612bb9565b03915afa908115612d40575f91612d12575b5090565b612d33915060203d8111612d39575b612d2b8183610846565b810190611c55565b5f612d0e565b503d612d21565b611c73565b612d659150883d8111612d6b575b612d5d8183610846565b810190612487565b5f612caa565b503d612d53565b611c73565b612d98915060203d8111612d9e575b612d908183610846565b810190612487565b5f612c47565b503d612d86565b611c73565b90612dbc91612db7616d03565b612dbe565b565b90612dd191612dcc81616dd5565b616e45565b565b90612ddd91612daa565b565b5f90565b612df490612def616f83565b612e42565b90565b90565b612e0e612e09612e1392612df7565b6120fd565b610cba565b90565b612e3f7f360894a13ba1a3210667c828492db98dca3e2076cc3735a920a3ca505d382bbc612dfa565b90565b50612e4b612e16565b90565b612e5e612e59612ddf565b612de3565b90565b612e6d612e729161161d565b612061565b90565b612e7f9054612e61565b90565b612e8a611dc2565b50612e9d5f612e97617001565b01612e75565b90565b606090565b90612eb7612eb28361090b565b61086f565b918252565b369037565b90612ee6612ece83612ea5565b92602080612edc869361090b565b9201910390612ebc565b565b90612ef282610d49565b811015612f03576020809102010190565b6115bb565b90612f12906104c3565b9052565b612f1e612ea0565b50612f30612f2b5f6115e8565b612ec1565b612f395f611be1565b5b80612f55612f4f612f4a5f6115e8565b6103e2565b916103e2565b1015612f9457612f8f90612f8a612f785f612f718185906115f5565b5001611636565b612f858591849092612ee8565b612f08565b611bfd565b612f3a565b5090565b612fb7612fbc91612fa7611de8565b505f612fb1615e7a565b0161173c565b611657565b90565b612fc7616be0565b612fcf612fd1565b565b612fe2612fdd5f612503565b617025565b565b612fec612fbf565b565b5f7f526562616c616e6365206e6f74206e6565646564000000000000000000000000910152565b6130226014602092610333565b61302b81612fee565b0190565b6130449060208101905f818303910152613015565b90565b1561304e57565b613056610312565b7f08c379a0000000000000000000000000000000000000000000000000000000008152806130866004820161302f565b0390fd5b61309a613095613218565b613047565b6130a261713a565b565b6130ac611b96565b506130be6130b95f6115e8565b611bb7565b6130c75f611be1565b5b806130e36130dd6130d85f6115e8565b6103e2565b916103e2565b10156131235761311e9061311961310760026131005f85906115f5565b5001611657565b6131148591849092611c83565b611ca3565b611bfd565b6130c8565b5090565b61312f616be0565b613137613139565b565b6131416175ab565b565b61314b613127565b565b613155611de8565b5061315e614890565b90506131695f611be1565b5b8061318561317f61317a5f6115e8565b6103e2565b916103e2565b10156131dc576131a15f61319a8184906115f5565b5001611636565b6131b36131ad856104c3565b916104c3565b146131c6576131c190611bfd565b61316a565b6131d992506131d491611c83565b612647565b90565b5050506131e85f611be1565b90565b906131f582611390565b811015613206576020809102010190565b6115bb565b6132159051610542565b90565b613220611dc2565b5061324e6020613238613233600461246b565b610f02565b63ea233c0590613246610312565b938492611c40565b8252818061325e60048201610af4565b03915afa90811561333e575f91613310575b50613279614890565b919091906132865f611be1565b5b806132a261329c613297866103cf565b6103e2565b916103e2565b1015613308576132bb6132b68583906131eb565b61320b565b806132dc575b6132d3576132ce90611bfd565b613287565b50505050600190565b506132f06132eb848390611c83565b612647565b6133026132fc846103e2565b916103e2565b116132c1565b505050505f90565b613331915060203d8111613337575b6133298183610846565b810190611c55565b5f613270565b503d61331f565b611c73565b5f90565b61334f613343565b506133625f61335c6175b5565b01611636565b90565b61336e81610542565b0361337557565b5f80fd5b9050519061338682613365565b565b906020828203126133a15761339e915f01613379565b90565b61031c565b6133ae611b96565b506133bf6133ba613218565b613047565b6133d06133ca615ebb565b906175d9565b916133e26133dd5f6115e8565b611bb7565b906133ff6133ef856176cf565b6133f96003611657565b9061295d565b6134085f611be1565b5b8061342461341e613419896103cf565b6103e2565b916103e2565b101561355857859061343f61343a838390611c83565b612647565b61345161344b5f611be1565b916103e2565b11613466575b6134619150611bfd565b613409565b6134986134868261348061347b868690611c83565b612647565b906177d2565b6134938791849092611c83565b611ca3565b60206134c06134bb6134b65f6134af8187906115f5565b5001611636565b611c18565b611c24565b6323b872dd906134ff5f339361350a6134eb6134e66134de30611c30565b9a8a90611c83565b612647565b6134f3610312565b998a9788968795611c40565b855260048501612bb9565b03925af19182156135535761346192613527575b50869150613457565b6135479060203d811161354c575b61353f8183610846565b810190613388565b61351e565b503d613535565b611c73565b5061356591949293617852565b61356d617a27565b613575617ce2565b336135b56135a37fa95ad530009c6f929555e70a66aadbeae7231e45756c5b028ca77fbaa376e73e92611730565b926135ac610312565b91829182610459565b0390a290565b6135c3611a42565b506135d760046135d1615e7a565b01611b6b565b90565b5f7f4558504952454400000000000000000000000000000000000000000000000000910152565b61360e6007602092610333565b613617816135da565b0190565b6136309060208101905f818303910152613601565b90565b1561363a57565b613642610312565b7f08c379a0000000000000000000000000000000000000000000000000000000008152806136726004820161361b565b0390fd5b906136a39796959493929161369e88613697613691426103e2565b916103e2565b1015613633565b6136a7565b9091565b906136bf979695949392916136ba617e06565b613c57565b90916136c9617eb2565b565b5f7f496e76616c696420746f6b656e20616464726573730000000000000000000000910152565b6136ff6015602092610333565b613708816136cb565b0190565b6137219060208101905f8183039101526136f2565b90565b1561372b57565b613733610312565b7f08c379a0000000000000000000000000000000000000000000000000000000008152806137636004820161370c565b0390fd5b5f7f43616e6e6f742073776170207468652073616d6520746f6b656e000000000000910152565b61379b601a602092610333565b6137a481613767565b0190565b6137bd9060208101905f81830391015261378e565b90565b156137c757565b6137cf610312565b7f08c379a0000000000000000000000000000000000000000000000000000000008152806137ff600482016137a8565b0390fd5b5f7f416d6f756e74206d7573742062652067726561746572207468616e207a65726f910152565b61383660208092610333565b61383f81613803565b0190565b6138589060208101905f81830391015261382a565b90565b1561386257565b61386a610312565b7f08c379a00000000000000000000000000000000000000000000000000000000081528061389a60048201613843565b0390fd5b5f7f496e76616c696420726563656976657220616464726573730000000000000000910152565b6138d26018602092610333565b6138db8161389e565b0190565b6138f49060208101905f8183039101526138c5565b90565b156138fe57565b613906610312565b7f08c379a000000000000000000000000000000000000000000000000000000000815280613936600482016138df565b0390fd5b5f7f546f6b656e207472616e73666572206661696c65640000000000000000000000910152565b61396e6015602092610333565b6139778161393a565b0190565b6139909060208101905f818303910152613961565b90565b1561399a57565b6139a2610312565b7f08c379a0000000000000000000000000000000000000000000000000000000008152806139d26004820161397b565b0390fd5b5f7f496e73756666696369656e74204c697175696469747900000000000000000000910152565b613a0a6016602092610333565b613a13816139d6565b0190565b613a2c9060208101905f8183039101526139fd565b90565b15613a3657565b613a3e610312565b7f08c379a000000000000000000000000000000000000000000000000000000000815280613a6e60048201613a17565b0390fd5b60207f68616e2030000000000000000000000000000000000000000000000000000000917f416d6f756e7420746f2073656e64206d757374206265206772656174657220745f8201520152565b613acc6025604092610333565b613ad581613a72565b0190565b613aee9060208101905f818303910152613abf565b90565b15613af857565b613b00610312565b7f08c379a000000000000000000000000000000000000000000000000000000000815280613b3060048201613ad9565b0390fd5b60207f6d696e20616d6f756e7400000000000000000000000000000000000000000000917f416d6f756e74206f7574206d7573742062652067726561746572207468616e205f8201520152565b613b8e602a604092610333565b613b9781613b34565b0190565b613bb09060208101905f818303910152613b81565b90565b15613bba57565b613bc2610312565b7f08c379a000000000000000000000000000000000000000000000000000000000815280613bf260048201613b9b565b0390fd5b916020613c17929493613c1060408201965f83019061106a565b01906105bd565b565b613c4e613c5594613c44606094989795613c3a608086019a5f87019061106a565b602085019061106a565b60408301906105bd565b01906105bd565b565b909193929495979650505081613c7d613c77613c725f612503565b6104c3565b916104c3565b141580613ef2575b613c8e90613724565b613cab82613ca4613c9e866104c3565b916104c3565b14156137c0565b613cc781613cc1613cbb5f611be1565b916103e2565b1161385b565b613cec86613ce5613cdf613cda5f612503565b6104c3565b916104c3565b14156138f7565b613cfd613cf883611c18565b611c24565b60206323b872dd913390613d2d5f613d1430611c30565b95613d3888613d21610312565b98899788968795611c40565b855260048501612bb9565b03925af18015613eed57613d53915f91613ebf575b50613993565b613d5f82848391612a06565b95613d85613d6c85613f5f565b613d7e613d788a6103e2565b916103e2565b1015613a2f565b613dd3613d9c613d9489617ecf565b9889906129e1565b95613db987613db3613dad5f611be1565b916103e2565b11613af1565b613dcc613dc688926103e2565b916103e2565b1015613bb3565b613de4613ddf85611c18565b611c24565b602063a9059cbb918390613e0b5f8a95613e16613dff610312565b97889687958694611c40565b845260048401613bf6565b03925af18015613eba57613e31915f91613e8c575b50613993565b613e39617a27565b613e41617ce2565b91929092613e8585613e737fcd3829a3813dc3cdd188fd3d01dcf3268c16be2fdd2dd21d0665418816e4606295611730565b95613e7c610312565b94859485613c19565b0390a29190565b613ead915060203d8111613eb3575b613ea58183610846565b810190613388565b5f613e2b565b503d613e9b565b611c73565b613ee0915060203d8111613ee6575b613ed88183610846565b810190613388565b5f613d4d565b503d613ece565b611c73565b50613c8e83613f11613f0b613f065f612503565b6104c3565b916104c3565b14159050613c85565b90613f399594939291613f2b611de8565b613f33611de8565b90613676565b9091565b613f5a91613f49611dc2565b50613f52615e9e565b9190916160e9565b600190565b613f67611de8565b90613f715f611be1565b5b80613f8d613f87613f825f6115e8565b6103e2565b916103e2565b10156140625781613fbb613fb5613fb05f613fa98187906115f5565b5001611636565b6104c3565b916104c3565b14613fce57613fc990611bfd565b613f72565b506140199150613fe7613fe2602092611c18565b611c24565b6370a082319061400e613ff930611c30565b92614002610312565b95869485938493611c40565b835260048301611077565b03915afa90811561405d575f9161402f575b5090565b614050915060203d8111614056575b6140488183610846565b810190611c55565b5f61402b565b503d61403e565b611c73565b505090565b9061409093929161408b8461408461407e426103e2565b916103e2565b1015613633565b614093565b90565b906140a79392916140a2617e06565b6140b2565b906140b0617eb2565b565b906140c69392916140c1617ff5565b6144e3565b90565b5f7f496e76616c6964207265736572766573206c656e677468000000000000000000910152565b6140fd6017602092610333565b614106816140c9565b0190565b61411f9060208101905f8183039101526140f0565b90565b1561412957565b614131610312565b7f08c379a0000000000000000000000000000000000000000000000000000000008152806141616004820161410a565b0390fd5b5f7f4e6f206173736574730000000000000000000000000000000000000000000000910152565b6141996009602092610333565b6141a281614165565b0190565b6141bb9060208101905f81830391015261418c565b90565b156141c557565b6141cd610312565b7f08c379a0000000000000000000000000000000000000000000000000000000008152806141fd600482016141a6565b0390fd5b60207f6564000000000000000000000000000000000000000000000000000000000000917f42616c756e695631506f6f6c3a205472616e736665722066726f6d206661696c5f8201520152565b61425b6022604092610333565b61426481614201565b0190565b61427d9060208101905f81830391015261424e565b90565b1561428757565b61428f610312565b7f08c379a0000000000000000000000000000000000000000000000000000000008152806142bf60048201614268565b0390fd5b60207f2030000000000000000000000000000000000000000000000000000000000000917f546f74616c2076616c7565206d7573742062652067726561746572207468616e5f8201520152565b61431d6022604092610333565b614326816142c3565b0190565b61433f9060208101905f818303910152614310565b90565b1561434957565b614351610312565b7f08c379a0000000000000000000000000000000000000000000000000000000008152806143816004820161432a565b0390fd5b60207f7468616e20300000000000000000000000000000000000000000000000000000917f546f74616c206c6971756964697479206d7573742062652067726561746572205f8201520152565b6143df6026604092610333565b6143e881614385565b0190565b6144019060208101905f8183039101526143d2565b90565b1561440b57565b614413610312565b7f08c379a000000000000000000000000000000000000000000000000000000000815280614443600482016143ec565b0390fd5b5f7f4d696e7420717479206973203000000000000000000000000000000000000000910152565b61447b600d602092610333565b61448481614447565b0190565b61449d9060208101905f81830391015261446e565b90565b156144a757565b6144af610312565b7f08c379a0000000000000000000000000000000000000000000000000000000008152806144df60048201614488565b0390fd5b90939250506144f0611e84565b916144fa5f611be1565b9361452f614506611cb1565b61452961452361451e6145185f6115e8565b936103cf565b6103e2565b916103e2565b14614122565b61455361453b5f6115e8565b61454d6145475f611be1565b916103e2565b116141be565b61455c5f611be1565b945b8561457961457361456e5f6115e8565b6103e2565b916103e2565b10156146c75783906145975f614590818a906115f5565b5001611636565b906020886145ac6145a785611c18565b611c24565b6145e85f6323b872dd6145f36145d46145cf33976145c930611c30565b9c611c83565b612647565b6145dc610312565b9a8b9788968795611c40565b855260048501612bb9565b03925af19283156146c25761466a93614613915f91614694575b50614280565b61461b611de8565b508161463861463261462d6002611636565b6104c3565b916104c3565b146146705761465d61466392614657614652898c90611c83565b612647565b9061803f565b90612681565b955b611bfd565b9461455e565b61468e9150614688614683878a90611c83565b612647565b90612681565b95614665565b6146b5915060203d81116146bb575b6146ad8183610846565b810190613388565b5f61460d565b503d6146a3565b611c73565b9194509291506146e9816146e36146dd5f611be1565b916103e2565b11614342565b6146f1611de8565b50816147056146ff5f611be1565b916103e2565b145f146147a257614721915061471b6003611657565b9061295d565b905b614740826147396147335f611be1565b916103e2565b14156144a0565b61474b818390617852565b614753617a27565b61475b617ce2565b819061479c61478a7fe1fffcc4923d04b559f4d29a8bfc6cda04eb5b0d3c460751c2402c5c5cc9109c92611730565b92614793610312565b918291826105ca565b0390a290565b6147fb6147ea614801936147e56147b7615ebb565b50946147d5866147cf6147c95f611be1565b916103e2565b11614404565b6147df6003611657565b9061295d565b61295d565b916147f56003611657565b9061295d565b906129bf565b90614723565b9061481a9291614815611de8565b614067565b90565b606090565b67ffffffffffffffff811161483a5760208091020190565b610819565b9061485161484c83614822565b61086f565b918252565b369037565b906148806148688361483f565b926020806148768693614822565b9201910390614856565b565b9061488c90610542565b9052565b61489861481d565b506148a1611b96565b506148aa615ebb565b6148b35f6115e8565b916148bd8361485b565b916148c784611bb7565b946148d15f611be1565b5b806148e56148df886103e2565b916103e2565b10156149cd5761498e90614920614919614908614903878590611c83565b612647565b6149136127106126a9565b9061295d565b86906129bf565b61493760016149305f85906115f5565b5001611657565b908061494b614945846103e2565b916103e2565b115f14614993576149719161495f916129e1565b61496c8a91849092611c83565b611ca3565b614988600161498388918490926131eb565b614882565b5b611bfd565b6148d2565b6149a0906149b2926129e1565b6149ad8a91849092611c83565b611ca3565b6149c85f6149c388918490926131eb565b614882565b614989565b50935050509190565b5f7f496e76616c696420617373657420696e64657800000000000000000000000000910152565b614a0a6013602092610333565b614a13816149d6565b0190565b614a2c9060208101905f8183039101526149fd565b90565b15614a3657565b614a3e610312565b7f08c379a000000000000000000000000000000000000000000000000000000000815280614a6e60048201614a17565b0390fd5b614ab5614aba91614a81611de8565b50614a8a615ebb565b9050614ab082614aaa614aa4614a9f856103cf565b6103e2565b916103e2565b10614a2f565b611c83565b612647565b90565b90614ac790611730565b5f5260205260405f2090565b614b0191614af7614afc92614ae6611de8565b506001614af1615e7a565b01614abd565b61173c565b611657565b90565b90614b2d939291614b2884614b21614b1b426103e2565b916103e2565b1015613633565b614b30565b90565b90614b44939291614b3f617e06565b614b4f565b90614b4d617eb2565b565b90614b63939291614b5e617ff5565b615213565b90565b5f7f496e76616c696420616464726573730000000000000000000000000000000000910152565b614b9a600f602092610333565b614ba381614b66565b0190565b614bbc9060208101905f818303910152614b8d565b90565b15614bc657565b614bce610312565b7f08c379a000000000000000000000000000000000000000000000000000000000815280614bfe60048201614ba7565b0390fd5b5f7f5368617265206d7573742062652067726561746572207468616e203000000000910152565b614c36601c602092610333565b614c3f81614c02565b0190565b614c589060208101905f818303910152614c29565b90565b15614c6257565b614c6a610312565b7f08c379a000000000000000000000000000000000000000000000000000000000815280614c9a60048201614c43565b0390fd5b916020614cbf929493614cb860408201965f83019061106a565b019061106a565b565b60207f616e636500000000000000000000000000000000000000000000000000000000917f42616c756e695631506f6f6c3a20496e73756666696369656e7420416c6c6f775f8201520152565b614d1b6024604092610333565b614d2481614cc1565b0190565b614d3d9060208101905f818303910152614d0e565b90565b15614d4757565b614d4f610312565b7f08c379a000000000000000000000000000000000000000000000000000000000815280614d7f60048201614d28565b0390fd5b5f7f5472616e736665722046726f6d204661696c6564000000000000000000000000910152565b614db76014602092610333565b614dc081614d83565b0190565b614dd99060208101905f818303910152614daa565b90565b15614de357565b614deb610312565b7f08c379a000000000000000000000000000000000000000000000000000000000815280614e1b60048201614dc4565b0390fd5b5f7f4e6f206c69717569646974790000000000000000000000000000000000000000910152565b614e53600c602092610333565b614e5c81614e1f565b0190565b614e759060208101905f818303910152614e46565b90565b15614e7f57565b614e87610312565b7f08c379a000000000000000000000000000000000000000000000000000000000815280614eb760048201614e60565b0390fd5b5f7f496e76616c696420747265617375727920616464726573730000000000000000910152565b614eef6018602092610333565b614ef881614ebb565b0190565b614f119060208101905f818303910152614ee2565b90565b15614f1b57565b614f23610312565b7f08c379a000000000000000000000000000000000000000000000000000000000815280614f5360048201614efc565b0390fd5b60207f2042616c616e6365000000000000000000000000000000000000000000000000917f42616c756e695631506f6f6c3a20496e73756666696369656e742041737365745f8201520152565b614fb16028604092610333565b614fba81614f57565b0190565b614fd39060208101905f818303910152614fa4565b90565b15614fdd57565b614fe5610312565b7f08c379a00000000000000000000000000000000000000000000000000000000081528061501560048201614fbe565b0390fd5b60207f6400000000000000000000000000000000000000000000000000000000000000917f42616c756e695631506f6f6c3a20466565205472616e73666572204661696c655f8201520152565b6150736021604092610333565b61507c81615019565b0190565b6150959060208101905f818303910152615066565b90565b1561509f57565b6150a7610312565b7f08c379a0000000000000000000000000000000000000000000000000000000008152806150d760048201615080565b0390fd5b5f7f4173736574207472616e73666572206661696c65640000000000000000000000910152565b61510f6015602092610333565b615118816150db565b0190565b6151319060208101905f818303910152615102565b90565b1561513b57565b615143610312565b7f08c379a0000000000000000000000000000000000000000000000000000000008152806151736004820161511c565b0390fd5b5f7f496e73756666696369656e742042414c554e49206c6971756964697479000000910152565b6151ab601d602092610333565b6151b481615177565b0190565b6151cd9060208101905f81830391015261519e565b90565b156151d757565b6151df610312565b7f08c379a00000000000000000000000000000000000000000000000000000000081528061520f600482016151b8565b0390fd5b90919392505061523e8361523761523161522c5f612503565b6104c3565b916104c3565b1415614bbf565b61525a8161525461524e5f611be1565b916103e2565b11614c5b565b61527361526e61526930611c30565b611c18565b611c24565b602063dd62ed3e9133906152a161528930611c30565b946152ac615295610312565b96879586948594611c40565b845260048401614c9e565b03915afa8015615789576152db915f9161575b575b506152d46152ce846103e2565b916103e2565b1015614d40565b6152f46152ef6152ea30611c30565b611c18565b611c24565b60206323b872dd9133906153245f61530b30611c30565b9561532f88615318610312565b98899788968795611c40565b855260048501612bb9565b03925af180156157565761534a915f91615728575b50614ddc565b61536d615355611e84565b6153676153615f611be1565b916103e2565b11614e78565b61539a602061538461537f600461246b565b610f02565b633b19e84a90615392610312565b938492611c40565b825281806153aa60048201610af4565b03915afa908115615723575f916156f5575b50906153e3826153dc6153d66153d15f612503565b6104c3565b916104c3565b1415614f14565b6153ec5f611be1565b5b806154086154026153fd5f6115e8565b6103e2565b916103e2565b10156156595761542961542461541d846157a4565b8390611c83565b612647565b90615487602061545561545061544b5f6154448188906115f5565b5001611636565b611c18565b611c24565b6370a082319061547c61546730611c30565b92615470610312565b95869485938493611c40565b835260048301611077565b03915afa8015615654576154b6915f91615626575b506154af6154a9856103e2565b916103e2565b1015614fd6565b6154ca6154c283617ecf565b9283906129e1565b9160206154f36154ee6154e95f6154e28188906115f5565b5001611636565b611c18565b611c24565b9163a9059cbb926155185f89939561552361550c610312565b97889687958694611c40565b845260048401613bf6565b03925af180156156215761553e915f916155f3575b50615098565b602061556661556161555c5f6155558187906115f5565b5001611636565b611c18565b611c24565b9263a9059cbb9361558b5f8a939661559661557f610312565b98899687958694611c40565b845260048401613bf6565b03925af19182156155ee576155bb926155b6915f916155c0575b50615134565b611bfd565b6153ed565b6155e1915060203d81116155e7575b6155d98183610846565b810190613388565b5f6155b0565b503d6155cf565b611c73565b615614915060203d811161561a575b61560c8183610846565b810190613388565b5f615538565b503d615602565b611c73565b615647915060203d811161564d575b61563f8183610846565b810190611c55565b5f61549c565b503d615635565b611c73565b509192905061568b61567261566d30611c30565b612f98565b61568461567e856103e2565b916103e2565b10156151d0565b61569e61569730611c30565b8390618062565b6156a6617a27565b6156ae617ce2565b81906156ef6156dd7f884edad9ce6fa2440d8a54cc123490eb96d2768479d49ff9c7366125a942436492611730565b926156e6610312565b918291826105ca565b0390a290565b615716915060203d811161571c575b61570e8183610846565b810190612487565b5f6153bc565b503d615704565b611c73565b615749915060203d811161574f575b6157418183610846565b810190613388565b5f615344565b503d615737565b611c73565b61577c915060203d8111615782575b6157748183610846565b810190611c55565b5f6152c1565b503d61576a565b611c73565b906157a1929161579c611de8565b614b04565b90565b6157c0906157b0611b96565b506157ba81617ecf565b906129e1565b906157d26157cd5f6115e8565b611bb7565b6157db5f611be1565b5b806157f76157f16157ec5f6115e8565b6103e2565b916103e2565b10156158e05761585b90602061582961582461581f5f6158188187906115f5565b5001611636565b611c18565b611c24565b6370a082319061585061583b30611c30565b92615844610312565b96879485938493611c40565b835260048301611077565b03915afa9182156158db576158916158836158a8946158a3935f916158ad575b50889061295d565b61588b611e84565b906129bf565b61589e8591849092611c83565b611ca3565b611bfd565b6157dc565b6158ce915060203d81116158d4575b6158c68183610846565b810190611c55565b5f61587b565b503d6158bc565b611c73565b5090915090565b6158f090610eda565b90565b6158fc906158e7565b90565b61590890610ef6565b90565b615914816107b4565b0361591b57565b5f80fd5b9050519061592c8261590b565b565b9060208282031261594757615944915f0161591f565b90565b61031c565b61596061595b615965926107b4565b610ed7565b6103e2565b90565b61597c61597761598192612026565b610ed7565b6103e2565b90565b90565b61599b6159966159a092615984565b610ed7565b6103e2565b90565b6159ac906103e2565b604d81116159ba57600a0a90565b612654565b6159c7611de8565b506159fd60206159e76159e26159dd6002611636565b6158f3565b6158ff565b63313ce567906159f5610312565b938492611c40565b82528180615a0d60048201610af4565b03915afa8015615af857615a2f615a3e91615a43935f91615aca575b5061594c565b615a396012615968565b6129e1565b6159a3565b615a4b611e84565b80615a5e615a585f611be1565b916103e2565b14615abc57615a6b615ebb565b509182615a80615a7a5f611be1565b916103e2565b14615aad57615a95615aa591615aaa9461295d565b615a9f6001611657565b9061295d565b6129bf565b90565b505050615ab95f611be1565b90565b5050615ac75f611be1565b90565b615aeb915060203d8111615af1575b615ae38183610846565b81019061592e565b5f615a29565b503d615ad9565b611c73565b615b0e90615b09616be0565b615b10565b565b80615b2b615b25615b205f612503565b6104c3565b916104c3565b14615b3b57615b3990617025565b565b615b7e615b475f612503565b615b4f610312565b9182917f1e4fbdf700000000000000000000000000000000000000000000000000000000835260048301611077565b0390fd5b615b8b90615afd565b565b615b9690611910565b9052565b9190615bad905f60208501940190615b8d565b565b91929490938195615bbe6161c6565b94615bca5f870161207b565b8015615c7b575b615c3f57615c0496615bfb95615be98a5f8a0161213e565b615bf660015f8a01612191565b615ca0565b5f809101612191565b615c3a7fc7f505b2f371ae2175ee4913f4499e1f2633a7b5936321eed1cdaeb6115181d291615c31610312565b91829182615b9a565b0390a1565b615c47610312565b7ff92ee8a900000000000000000000000000000000000000000000000000000000815280615c7760048201610af4565b0390fd5b50615c875f87016120a9565b615c99615c938a611910565b91611910565b1015615bd1565b615ce6929396955093615cc2615cdf92615d2b96615cbd33616208565b616233565b615cca616249565b615cd261626f565b615cda616295565b612360565b60046123a4565b615d01615cfa670de0b6b3a76400006123c7565b6001612437565b6020615d15615d10600461246b565b610f02565b631bf01e9b90615d23610312565b948592611c40565b82528180615d3b60048201610af4565b03915afa908115615e6557615d60615dad92615db2945f91615e37575b5060026124a8565b615d78615d7164e8d4a510006124cb565b6003612437565b615da6615d856002611636565b615d9f615d99615d945f612503565b6104c3565b916104c3565b1415612568565b84906167e4565b612604565b615dbb5f611be1565b615dc45f611be1565b905b81615de1615ddb615dd6876103cf565b6103e2565b916103e2565b1015615e1357615e07615e0d91615e01615dfc878690611c83565b612647565b90612681565b91611bfd565b90615dc6565b9050615e35919250615e2f615e296127106126a9565b916103e2565b1461271e565b565b615e58915060203d8111615e5e575b615e508183610846565b810190612487565b5f615d58565b503d615e46565b611c73565b90615e789594939291615baf565b565b7f52c63247e1f47db19d5ce0460030c497f067ca4cebf71ba98eeadabe20bace0090565b615ea6613343565b503390565b91615eb992916001926180e1565b565b615ec3611de8565b615ecb611b96565b50615ed55f6115e8565b90615edf82611bb7565b92615ee95f611be1565b915b82615efe615ef8866103e2565b916103e2565b1015615fd657615f1a5f615f138186906115f5565b5001611636565b615f2381613f5f565b9081615f37615f315f611be1565b916103e2565b14615fca5791615f999183615fa094615f61615f5b615f566002611636565b6104c3565b916104c3565b145f14615fa65750615f7f90615f7a8991889092611c83565b611ca3565b5b615f93615f8e888790611c83565b612647565b90612681565b925b611bfd565b91615eeb565b615fc591615fb39161803f565b615fc08991889092611c83565b611ca3565b615f80565b505091615fa090615f9b565b915091509190565b60409061600761600e9496959396615ffd60608401985f85019061106a565b60208301906105bd565b01906105bd565b565b9061601b91036103e2565b90565b92919261602c818390614ad3565b908161606061605a7fffffffffffffffffffffffffffffffffffffffffffffffffffffffffffffffff6103e2565b916103e2565b0361606d575b5050509050565b8161608061607a876103e2565b916103e2565b106160a65761609d9394616095919392616010565b905f926180e1565b805f8080616066565b506160e5849291926160b6610312565b9384937ffb8f41b200000000000000000000000000000000000000000000000000000000855260048501615fde565b0390fd5b91826161056160ff6160fa5f612503565b6104c3565b916104c3565b1461617f578161612561611f61611a5f612503565b6104c3565b916104c3565b146161385761613692919091618249565b565b61617b6161445f612503565b61614c610312565b9182917fec442f0500000000000000000000000000000000000000000000000000000000835260048301611077565b0390fd5b6161c261618b5f612503565b616193610312565b9182917f96c6fd1e00000000000000000000000000000000000000000000000000000000835260048301611077565b0390fd5b7ff0c57e16840df040f15088dc2f81fe391c3923bec73e23a9662efc9c229c6a0090565b6161fb906161f66183ef565b6161fd565b565b616206906184c7565b565b616211906161ea565b565b90616225916162206183ef565b616227565b565b906162319161868c565b565b9061623d91616213565b565b6162476183ef565b565b61625161623f565b565b61625b6183ef565b616263616265565b565b61626d6186c7565b565b616277616253565b565b6162816183ef565b61628961628b565b565b6162936186f9565b565b61629d616279565b565b5f7f496e76616c696420726562616c616e6365722061646472657373000000000000910152565b6162d3601a602092610333565b6162dc8161629f565b0190565b6162f59060208101905f8183039101526162c6565b90565b156162ff57565b616307610312565b7f08c379a000000000000000000000000000000000000000000000000000000000815280616337600482016162e0565b0390fd5b60207f6368000000000000000000000000000000000000000000000000000000000000917f41737365747320616e642077656967687473206c656e677468206d69736d61745f8201520152565b6163956022604092610333565b61639e8161633b565b0190565b6163b79060208101905f818303910152616388565b90565b156163c157565b6163c9610312565b7f08c379a0000000000000000000000000000000000000000000000000000000008152806163f9600482016163a2565b0390fd5b61640890600461295d565b90565b1b90565b919060086164499102916164437fffffffffffffffffffffffffffffffffffffffffffffffffffffffffffffffff8461640b565b9261640b565b9181191691161790565b919061646961646461647193612418565b612434565b90835461640f565b9055565b61648791616481611de8565b91616453565b565b5f60036164b59282808201556164a28360018301616475565b6164af8360028301616475565b01616475565b565b7f4e487b71000000000000000000000000000000000000000000000000000000005f525f60045260245ffd5b905f036164f5576164f390616489565b565b6164b7565b5b818110616506575050565b806165135f6004936164e3565b016164fb565b9091828110616528575b505050565b61654661654061653a616551956163fd565b926163fd565b926115ec565b9182019101906164fa565b5f8080616523565b906801000000000000000081116165825781616577616580936115e8565b90828155616519565b565b610819565b5f61659191616559565b565b905f036165a5576165a390616587565b565b6164b7565b6165b490516104c3565b90565b5f7f496e76616c696420617373657420616464726573730000000000000000000000910152565b6165eb6015602092610333565b6165f4816165b7565b0190565b61660d9060208101905f8183039101526165de565b90565b1561661757565b61661f610312565b7f08c379a00000000000000000000000000000000000000000000000000000000081528061664f600482016165f8565b0390fd5b5f7f496e76616c696420776569676874000000000000000000000000000000000000910152565b616687600e602092610333565b61669081616653565b0190565b6166a99060208101905f81830391015261667a565b90565b156166b357565b6166bb610312565b7f08c379a0000000000000000000000000000000000000000000000000000000008152806166eb60048201616694565b0390fd5b90565b6166fc608061086f565b90565b5f5260205f2090565b5490565b61671581616708565b82101561672f576167276004916166ff565b910201905f90565b6115bb565b9061679160606003616797946167575f82016167515f88016165aa565b906124a8565b6167706001820161676a60208801612647565b90612437565b6167896002820161678360408801612647565b90612437565b019201612647565b90612437565b565b91906167aa576167a891616734565b565b6164b7565b90815491680100000000000000008310156167df57826167d79160016167dd9501815561670c565b90616799565b565b610819565b9190916167ef611dc2565b5061681d6020616807616802600461246b565b610f02565b63cff49d6890616815610312565b938492611c40565b8252818061682d60048201610af4565b03915afa908115616bdb575f91616bad575b509261686e6020616858616853600461246b565b610f02565b63cff49d6890616866610312565b938492611c40565b8252818061687e60048201610af4565b03915afa8015616ba8576168b5915f91616b7a575b506168ae6168a86168a35f612503565b6104c3565b916104c3565b14156162f8565b6168e16168c183610d49565b6168db6168d56168d0856103cf565b6103e2565b916103e2565b146163ba565b6168eb5f80616593565b6168f45f611be1565b5b8061691061690a61690586610d49565b6103e2565b916103e2565b1015616b705761694d61692c616927858490612ee8565b6165aa565b61694661694061693b5f612503565b6104c3565b916104c3565b1415616610565b61697b61696361695e848490611c83565b612647565b61697561696f5f611be1565b916103e2565b116166ac565b6169fe6169875f6166ef565b61699a616995868590612ee8565b6165aa565b906169f96169f06169b46169af888890611c83565b612647565b6169eb6169e25f6169dd5f946169d46169cb6166f2565b9a5f8c01612f08565b60208a01611ca3565b611be1565b60408701611ca3565b611be1565b60608401611ca3565b6167af565b616a19616a14616a0f858490612ee8565b6165aa565b611c18565b616a2281611c24565b602063dd62ed3e91616a3330611c30565b90616a508a94616a5b616a44610312565b96879586948594611c40565b845260048401614c9e565b03915afa908115616b6b575f91616b3d575b50616a80616a7a5f611be1565b916103e2565b14616a95575b50616a9090611bfd565b6168f5565b616a9e90611c24565b90602063095ea7b3928790616ae65f7fffffffffffffffffffffffffffffffffffffffffffffffffffffffffffffffff96616af1616ada610312565b98899687958694611c40565b845260048401613bf6565b03925af1918215616b3857616a9092616b0c575b5090616a86565b616b2c9060203d8111616b31575b616b248183610846565b810190613388565b616b05565b503d616b1a565b611c73565b616b5e915060203d8111616b64575b616b568183610846565b810190611c55565b5f616a6d565b503d616b4c565b611c73565b5050509050600190565b616b9b915060203d8111616ba1575b616b938183610846565b810190612487565b5f616893565b503d616b89565b611c73565b616bce915060203d8111616bd4575b616bc68183610846565b810190612487565b5f61683f565b503d616bbc565b611c73565b616be8613347565b616c01616bfb616bf6615e9e565b6104c3565b916104c3565b03616c0857565b616c4a616c13615e9e565b616c1b610312565b9182917f118cdaa700000000000000000000000000000000000000000000000000000000835260048301611077565b0390fd5b616c56618703565b616c5e616c96565b565b90616c6c60ff916120fd565b9181191691161790565b90616c8b616c86616c9292612182565b61218e565b8254616c60565b9055565b616caa616ca1617001565b5f809101616c76565b616cb2615e9e565b616ce87f5db9ee0a495bf2e6ff9c91a7834c1ba4fdd244a5e8aa4e537bd38aeae4b073aa91616cdf610312565b91829182611077565b0390a1565b616cf5616c4e565b565b616d0090610ef6565b90565b616d0c30616cf7565b616d3e616d387f00000000000000000000000000000000000000000000000000000000000000006104c3565b916104c3565b148015616d88575b616d4c57565b616d54610312565b7fe07c8dba00000000000000000000000000000000000000000000000000000000815280616d8460048201610af4565b0390fd5b50616d91618756565b616dc3616dbd7f00000000000000000000000000000000000000000000000000000000000000006104c3565b916104c3565b1415616d46565b50616dd3616be0565b565b616dde90616dca565b565b616de990610eda565b90565b616df590616de0565b90565b616e0190610ef6565b90565b616e0d81610cba565b03616e1457565b5f80fd5b90505190616e2582616e04565b565b90602082820312616e4057616e3d915f01616e18565b90565b61031c565b9190616e736020616e5d616e5886616dec565b616df8565b6352d1902d90616e6b610312565b938492611c40565b82528180616e8360048201610af4565b03915afa80915f92616f53575b50155f14616ee4575050906001616ea557505b565b616ee090616eb1610312565b9182917f4c9c8ce300000000000000000000000000000000000000000000000000000000835260048301611077565b0390fd5b9283616eff616ef9616ef4612e16565b610cba565b91610cba565b03616f1457616f0f929350618780565b616ea3565b616f4f84616f20610312565b9182917faa1d49a400000000000000000000000000000000000000000000000000000000835260048301610cca565b0390fd5b616f7591925060203d8111616f7c575b616f6d8183610846565b810190616e27565b905f616e90565b503d616f63565b616f8c30616cf7565b616fbe616fb87f00000000000000000000000000000000000000000000000000000000000000006104c3565b916104c3565b03616fc557565b616fcd610312565b7fe07c8dba00000000000000000000000000000000000000000000000000000000815280616ffd60048201610af4565b0390fd5b7fcd5ed15c6e187e77e9aee88184c21f4f2182ab5827cb3b7e07fbedcd63f0330090565b61702d6175b5565b61704561703b5f8301611636565b915f8491016124a8565b906170796170737f8be0079c531659141344cd1fd0a4f28419497f9722a3daafe3b4186f6b6457e093611730565b91611730565b91617082610312565b8061708c81610af4565b0390a3565b61709a90610eda565b90565b6170a690617091565b90565b6170b290610ef6565b90565b5f9103126170bf57565b61031c565b9260c09498979561711d61711261712793617104617131976170f66171389d9860e08c01908c5f818403910152610409565b908a820360208c0152610d80565b9088820360408a0152610409565b9a60608701906105bd565b608085019061106a565b60a083019061106a565b019061106a565b565b617167602061715161714c600461246b565b610f02565b63cff49d689061715f610312565b938492611c40565b8252818061717760048201610af4565b03915afa90811561753c575f9161750e575b5090617193612f16565b9061719c611eb8565b916171a65f611be1565b5b806171c26171bc6171b75f6115e8565b6103e2565b916103e2565b1015617379576171ee6171e96171e45f6171dd8186906115f5565b5001611636565b611c18565b611c24565b602063dd62ed3e916171ff30611c30565b9061721c8994617227617210610312565b96879586948594611c40565b845260048401614c9e565b03915afa908115617374575f91617346575b5061726c6172667fffffffffffffffffffffffffffffffffffffffffffffffffffffffffffffffff6103e2565b916103e2565b10617280575b61727b90611bfd565b6171a7565b6172a66172a161729c5f6172958186906115f5565b5001611636565b611c18565b611c24565b90602063095ea7b39287906172ee5f7fffffffffffffffffffffffffffffffffffffffffffffffffffffffffffffffff966172f96172e2610312565b98899687958694611c40565b845260048401613bf6565b03925af19182156173415761727b92617315575b509050617272565b6173359060203d811161733a575b61732d8183610846565b810190613388565b61730d565b503d617323565b611c73565b617367915060203d811161736d575b61735f8183610846565b810190611c55565b5f617239565b503d617355565b611c73565b50919092617385611cb1565b6173b2602061739c617397600461246b565b610f02565b63ea233c05906173aa610312565b938492611c40565b825281806173c260048201610af4565b03915afa908115617509576173e8916173e3915f916174db575b509361709d565b6170a9565b63f0bf77148594936173f930611c30565b9161740330611c30565b9561740e6002611636565b853b156174d6575f9761743595899561744094617429610312565b9c8d9b8c9a8b99611c40565b8952600489016170c4565b03925af180156174d1576174a5575b50617458617a27565b617460617ce2565b336174a061748e7f279b343370f587af7fb675ae7c8578e9c8abcc373236ad02c501a4771fe7a7b892611730565b92617497610312565b91829182610dd0565b0390a2565b6174c4905f3d81116174ca575b6174bc8183610846565b8101906170b5565b5f61744f565b503d6174b2565b611c73565b611c3c565b6174fc915060203d8111617502575b6174f48183610846565b810190611c55565b5f6173dc565b503d6174ea565b611c73565b61752f915060203d8111617535575b6175278183610846565b810190612487565b5f617189565b503d61751d565b611c73565b617549617ff5565b617551617553565b565b61756861755e617001565b5f60019101616c76565b617570615e9e565b6175a67f62e78cea01bee320cd4e420270b5ea74000d11b0c9f74754ebdbfc544b05a2589161759d610312565b91829182611077565b0390a1565b6175b3617541565b565b7f9016d09d72d40fdae2fd8ceac6b6234c7706214fd39c1cd1e609a0528c19930090565b91906175e3611b96565b506175f56175f05f6115e8565b611bb7565b6175fe5f611be1565b5b8061761a61761461760f5f6115e8565b6103e2565b916103e2565b10156176c75761768a9061765961764887617642600161763b5f87906115f5565b5001611657565b9061295d565b6176536127106126a9565b906129bf565b61766c617667868490611c83565b612647565b61767e617678836103e2565b916103e2565b1061768f575b50611bfd565b6175ff565b6176af6176c1916176a96176a4888690611c83565b612647565b906129e1565b6176bc8591849092611c83565b611ca3565b5f617684565b509192505090565b6176d7611de8565b906176e15f611be1565b915b826176fe6176f86176f35f6115e8565b6103e2565b916103e2565b10156177305761772461772a9161771e617719858790611c83565b612647565b90612681565b92611bfd565b916176e3565b91505090565b5f7f496e76616c696420746f6b656e20616d6f756e7420746f206164640000000000910152565b61776a601b602092610333565b61777381617736565b0190565b61778c9060208101905f81830391015261775d565b90565b1561779657565b61779e610312565b7f08c379a0000000000000000000000000000000000000000000000000000000008152806177ce60048201617777565b0390fd5b6177da611de8565b506177f15f6177ea8184906115f5565b5001611636565b61780c6178066178016002611636565b6104c3565b916104c3565b1461784e579061782a5f61782361782f94826115f5565b5001611636565b618809565b61784b8161784561783f5f611be1565b916103e2565b1161778f565b90565b5090565b8061786d6178676178625f612503565b6104c3565b916104c3565b14617889576178879161787f5f612503565b919091618249565b565b6178cc6178955f612503565b61789d610312565b9182917fec442f0500000000000000000000000000000000000000000000000000000000835260048301611077565b0390fd5b90565b6178e76178e26178ec926178d0565b610ed7565b6103e2565b90565b5f7f556e646572666c6f772064656372656d656e74696e6720736c69707061676500910152565b617923601f602092610333565b61792c816178ef565b0190565b6179459060208101905f818303910152617916565b90565b1561794f57565b617957610312565b7f08c379a00000000000000000000000000000000000000000000000000000000081528061798760048201617930565b0390fd5b5f7f4f766572666c6f7720696e6372656d656e74696e6720736c6970706167650000910152565b6179bf601e602092610333565b6179c88161798b565b0190565b6179e19060208101905f8183039101526179b2565b90565b156179eb57565b6179f3610312565b7f08c379a000000000000000000000000000000000000000000000000000000000815280617a23600482016179cc565b0390fd5b617a2f614890565b90617a3a60646178d3565b91617a45600a615987565b91617a4f5f611be1565b5b80617a6b617a65617a605f6115e8565b6103e2565b916103e2565b1015617cdb57617b8190617a8c6002617a855f84906115f5565b5001611657565b617a9f617a9a868490611c83565b612647565b617ab1617aab896103e2565b916103e2565b1115617cbd57617aca617ac58584906131eb565b61320b565b5f14617ba357617b4b90617b1b617af4617aed617ae8898790611c83565b612647565b8a906129bf565b617b156002617b045f88906115f5565b500191617b1083611657565b612681565b90612437565b617b44617b3e617b386002617b315f88906115f5565b5001611657565b926103e2565b916103e2565b10156179e4565b5b617b636002617b5c5f84906115f5565b5001611657565b617b75617b6f876103e2565b916103e2565b11617b86575b5b611bfd565b617a50565b617b9e856002617b975f85906115f5565b5001612437565b617b7b565b617bba6002617bb35f85906115f5565b5001611657565b617be8617be2617bdd617bd6617bd18a8890611c83565b612647565b8b906129bf565b6103e2565b916103e2565b115f14617c7057617c6a90617c3a617c13617c0c617c07898790611c83565b612647565b8a906129bf565b617c346002617c235f88906115f5565b500191617c2f83611657565b6129e1565b90612437565b617c63617c5d617c576002617c505f88906115f5565b5001611657565b926103e2565b916103e2565b1115617948565b5b617b4c565b50617cb8617c91617c8a617c85878590611c83565b612647565b88906129bf565b617cb26002617ca15f86906115f5565b500191617cad83611657565b612681565b90612437565b617c6b565b50617cd6856002617ccf5f85906115f5565b5001612437565b617b7c565b5050505050565b617ceb5f611be1565b5b80617d07617d01617cfc5f6115e8565b6103e2565b916103e2565b1015617dd757617d6b906020617d39617d34617d2f5f617d288187906115f5565b5001611636565b611c18565b611c24565b6370a0823190617d60617d4b30611c30565b92617d54610312565b96879485938493611c40565b835260048301611077565b03915afa918215617dd257617d9f92617d9a915f91617da4575b506003617d935f85906115f5565b5001612437565b611bfd565b617cec565b617dc5915060203d8111617dcb575b617dbd8183610846565b810190611c55565b5f617d85565b503d617db3565b611c73565b50565b90565b617df1617dec617df692617dda565b610ed7565b6103e2565b90565b617e036002617ddd565b90565b617e0e61882b565b617e195f8201611657565b617e32617e2c617e27617df9565b6103e2565b916103e2565b14617e4d57617e4b905f617e44617df9565b9101612437565b565b617e55610312565b7f3ee5aeb500000000000000000000000000000000000000000000000000000000815280617e8560048201610af4565b0390fd5b617e9d617e98617ea2926120d2565b610ed7565b6103e2565b90565b617eaf6001617e89565b90565b617ecd617ebd61882b565b5f617ec6617ea5565b9101612437565b565b617ed7611de8565b50617f056020617eef617eea600461246b565b610f02565b6385462d6f90617efd610312565b938492611c40565b82528180617f1560048201610af4565b03915afa908115617ff0575f91617fc2575b5090617f566020617f40617f3b600461246b565b610f02565b634f4608a290617f4e610312565b938492611c40565b82528180617f6660048201610af4565b03915afa928315617fbd57617f8c93617f87925f91617f8f575b509261295d565b6129bf565b90565b617fb0915060203d8111617fb6575b617fa88183610846565b810190611c55565b5f617f80565b503d617f9e565b611c73565b617fe3915060203d8111617fe9575b617fdb8183610846565b810190611c55565b5f617f27565b503d617fd1565b611c73565b617ffd612e82565b61800357565b61800b610312565b7fd93c06650000000000000000000000000000000000000000000000000000000081528061803b60048201610af4565b0390fd5b9061805f9161804c611de8565b50906180586002611636565b9091612beb565b90565b908161807e6180786180735f612503565b6104c3565b916104c3565b1461809a5761809891906180915f612503565b9091618249565b565b6180dd6180a65f612503565b6180ae610312565b9182917f96c6fd1e00000000000000000000000000000000000000000000000000000000835260048301611077565b0390fd5b90926180eb615e7a565b826181066181006180fb5f612503565b6104c3565b916104c3565b146181f4578461812661812061811b5f612503565b6104c3565b916104c3565b146181ad5761814d9061814861814160018793018690614abd565b879061173c565b612437565b618157575b505050565b9190916181a261819061818a7f8c5be1e5ebec7d5bd14f71427d1e84f3dd0314c0f7b2291e5b200ac8c7c3b92593611730565b93611730565b93618199610312565b918291826105ca565b0390a35f8080618152565b6181f06181b95f612503565b6181c1610312565b9182917f94280d6200000000000000000000000000000000000000000000000000000000835260048301611077565b0390fd5b6182376182005f612503565b618208610312565b9182917fe602df0500000000000000000000000000000000000000000000000000000000835260048301611077565b0390fd5b9061824691016103e2565b90565b919091618254615e7a565b8161826f6182696182645f612503565b6104c3565b916104c3565b145f1461835a5761829683618290600284019161828b83611657565b612681565b90612437565b5b836182b26182ac6182a75f612503565b6104c3565b916104c3565b145f1461832b576182da906182d46002859201916182cf83611657565b616010565b90612437565b5b91909161832661831461830e7fddf252ad1be2c89b69c2b068fc378daa952ba7f163c4a11628f55a4df523b3ef93611730565b93611730565b9361831d610312565b918291826105ca565b0390a3565b6183559061834f6183405f869301879061173c565b9161834a83611657565b61823b565b90612437565b6182db565b61836f61836a5f8301849061173c565b611657565b8061838261837c866103e2565b916103e2565b106183ac576183956183a7918590616010565b6183a25f8401859061173c565b612437565b618297565b916183eb915091926183bc610312565b9384937fe450d38c00000000000000000000000000000000000000000000000000000000855260048501615fde565b0390fd5b6184006183fa61884f565b15610542565b61840657565b61840e610312565b7fd7e6bcf80000000000000000000000000000000000000000000000000000000081528061843e60048201610af4565b0390fd5b6184539061844e6183ef565b618455565b565b8061847061846a6184655f612503565b6104c3565b916104c3565b146184805761847e90617025565b565b6184c361848c5f612503565b618494610312565b9182917f1e4fbdf700000000000000000000000000000000000000000000000000000000835260048301611077565b0390fd5b6184d090618442565b565b906184e4916184df6183ef565b618668565b565b601f602091010490565b5b8181106184fc575050565b806185095f600193616475565b016184f1565b9190601f811161851f575b505050565b61852b61855093611aa7565b906020618537846184e6565b83019310618558575b618549906184e6565b01906184f0565b5f808061851a565b915061854981929050618540565b90618576905f1990600802610e85565b191690565b8161858591618566565b906002021790565b906185978161032f565b9067ffffffffffffffff8211618657576185bb826185b58554611a74565b8561850f565b602090601f83116001146185ef579180916185de935f926185e3575b505061857b565b90555b565b90915001515f806185d7565b601f198316916185fe85611aa7565b925f5b81811061863f57509160029391856001969410618625575b505050020190556185e1565b618635910151601f841690618566565b90555f8080618619565b91936020600181928787015181550195019201618601565b610819565b906186669161858d565b565b600461868a92618683618679615e7a565b936003850161865c565b910161865c565b565b90618696916184d2565b565b6186a06183ef565b6186a86186aa565b565b6186c56186b561882b565b5f6186be617ea5565b9101612437565b565b6186cf618698565b565b6186d96183ef565b6186e16186e3565b565b6186f76186ee617001565b5f809101616c76565b565b6187016186d1565b565b61871461870e612e82565b15610542565b61871a57565b618722610312565b7f8dfc202b0000000000000000000000000000000000000000000000000000000081528061875260048201610af4565b0390fd5b61875e613343565b506187795f61877361876e612e16565b61886d565b01611636565b90565b5190565b9061878a82618870565b816187b57fbc7cd75a20ee27fd9adebab32041f755214dbc6bffa90cc0225b39da2e5c2d3b91611730565b906187be610312565b806187c881610af4565b0390a26187d48161877c565b6187e66187e05f611be1565b916103e2565b115f146187fa576187f691618980565b505b565b50506188046188e5565b6187f8565b61882891618815611de8565b506188206002611636565b919091612beb565b90565b7f9b779b17422d0df92223018b32b4d1fa46e071723d6817e2486d003becc55f0090565b618857611dc2565b5061886a5f6188646161c6565b0161207b565b90565b90565b803b61888461887e5f611be1565b916103e2565b146188a6576188a4905f61889e618899612e16565b61886d565b016124a8565b565b6188e1906188b2610312565b9182917f4c9c8ce300000000000000000000000000000000000000000000000000000000835260048301611077565b0390fd5b346188f86188f25f611be1565b916103e2565b116188ff57565b618907610312565b7fb398979f0000000000000000000000000000000000000000000000000000000081528061893760048201610af4565b0390fd5b606090565b9061895261894d83610bcf565b61086f565b918252565b3d5f14618972576189673d618940565b903d5f602084013e5b565b61897a61893b565b90618970565b5f806189ac9361898e61893b565b508390602081019051915af4906189a3618957565b909190916189af565b90565b906189c3906189bc61893b565b5015610542565b5f146189cf5750618a53565b6189d88261877c565b6189ea6189e45f611be1565b916103e2565b1480618a38575b6189f9575090565b618a3490618a05610312565b9182917f9996b31500000000000000000000000000000000000000000000000000000000835260048301611077565b0390fd5b50803b618a4d618a475f611be1565b916103e2565b146189f1565b618a5c8161877c565b618a6e618a685f611be1565b916103e2565b115f14618a7d57805190602001fd5b618a85610312565b7f1425ea4200000000000000000000000000000000000000000000000000000000815280618ab560048201610af4565b0390fdfea2646970667358221220c9917cfc9bfdd74b7291619426fceb93e7bfca689514990ecb531a91c62de1db64736f6c63430008190033",
  "linkReferences": {},
  "deployedLinkReferences": {}
}