{
  "_format": "hh-sol-artifact-1",
  "contractName": "BaluniV1Pool",
  "sourceName": "contracts/pools/BaluniV1Pool.sol",
  "abi": [
    {
      "inputs": [
        {
          "internalType": "address",
          "name": "target",
          "type": "address"
        }
      ],
      "name": "AddressEmptyCode",
      "type": "error"
    },
    {
      "inputs": [
        {
          "internalType": "address",
          "name": "implementation",
          "type": "address"
        }
      ],
      "name": "ERC1967InvalidImplementation",
      "type": "error"
    },
    {
      "inputs": [],
      "name": "ERC1967NonPayable",
      "type": "error"
    },
    {
      "inputs": [
        {
          "internalType": "address",
          "name": "spender",
          "type": "address"
        },
        {
          "internalType": "uint256",
          "name": "allowance",
          "type": "uint256"
        },
        {
          "internalType": "uint256",
          "name": "needed",
          "type": "uint256"
        }
      ],
      "name": "ERC20InsufficientAllowance",
      "type": "error"
    },
    {
      "inputs": [
        {
          "internalType": "address",
          "name": "sender",
          "type": "address"
        },
        {
          "internalType": "uint256",
          "name": "balance",
          "type": "uint256"
        },
        {
          "internalType": "uint256",
          "name": "needed",
          "type": "uint256"
        }
      ],
      "name": "ERC20InsufficientBalance",
      "type": "error"
    },
    {
      "inputs": [
        {
          "internalType": "address",
          "name": "approver",
          "type": "address"
        }
      ],
      "name": "ERC20InvalidApprover",
      "type": "error"
    },
    {
      "inputs": [
        {
          "internalType": "address",
          "name": "receiver",
          "type": "address"
        }
      ],
      "name": "ERC20InvalidReceiver",
      "type": "error"
    },
    {
      "inputs": [
        {
          "internalType": "address",
          "name": "sender",
          "type": "address"
        }
      ],
      "name": "ERC20InvalidSender",
      "type": "error"
    },
    {
      "inputs": [
        {
          "internalType": "address",
          "name": "spender",
          "type": "address"
        }
      ],
      "name": "ERC20InvalidSpender",
      "type": "error"
    },
    {
      "inputs": [],
      "name": "EnforcedPause",
      "type": "error"
    },
    {
      "inputs": [],
      "name": "ExpectedPause",
      "type": "error"
    },
    {
      "inputs": [],
      "name": "FailedInnerCall",
      "type": "error"
    },
    {
      "inputs": [],
      "name": "InvalidInitialization",
      "type": "error"
    },
    {
      "inputs": [],
      "name": "NotInitializing",
      "type": "error"
    },
    {
      "inputs": [
        {
          "internalType": "address",
          "name": "owner",
          "type": "address"
        }
      ],
      "name": "OwnableInvalidOwner",
      "type": "error"
    },
    {
      "inputs": [
        {
          "internalType": "address",
          "name": "account",
          "type": "address"
        }
      ],
      "name": "OwnableUnauthorizedAccount",
      "type": "error"
    },
    {
      "inputs": [],
      "name": "ReentrancyGuardReentrantCall",
      "type": "error"
    },
    {
      "inputs": [],
      "name": "UUPSUnauthorizedCallContext",
      "type": "error"
    },
    {
      "inputs": [
        {
          "internalType": "bytes32",
          "name": "slot",
          "type": "bytes32"
        }
      ],
      "name": "UUPSUnsupportedProxiableUUID",
      "type": "error"
    },
    {
      "anonymous": false,
      "inputs": [
        {
          "indexed": true,
          "internalType": "address",
          "name": "owner",
          "type": "address"
        },
        {
          "indexed": true,
          "internalType": "address",
          "name": "spender",
          "type": "address"
        },
        {
          "indexed": false,
          "internalType": "uint256",
          "name": "value",
          "type": "uint256"
        }
      ],
      "name": "Approval",
      "type": "event"
    },
    {
      "anonymous": false,
      "inputs": [
        {
          "indexed": true,
          "internalType": "address",
          "name": "user",
          "type": "address"
        },
        {
          "indexed": false,
          "internalType": "uint256",
          "name": "amount",
          "type": "uint256"
        }
      ],
      "name": "Deposit",
      "type": "event"
    },
    {
      "anonymous": false,
      "inputs": [
        {
          "indexed": false,
          "internalType": "uint64",
          "name": "version",
          "type": "uint64"
        }
      ],
      "name": "Initialized",
      "type": "event"
    },
    {
      "anonymous": false,
      "inputs": [
        {
          "indexed": true,
          "internalType": "address",
          "name": "previousOwner",
          "type": "address"
        },
        {
          "indexed": true,
          "internalType": "address",
          "name": "newOwner",
          "type": "address"
        }
      ],
      "name": "OwnershipTransferred",
      "type": "event"
    },
    {
      "anonymous": false,
      "inputs": [
        {
          "indexed": false,
          "internalType": "address",
          "name": "account",
          "type": "address"
        }
      ],
      "name": "Paused",
      "type": "event"
    },
    {
      "anonymous": false,
      "inputs": [
        {
          "indexed": true,
          "internalType": "address",
          "name": "user",
          "type": "address"
        },
        {
          "indexed": false,
          "internalType": "address[]",
          "name": "assets",
          "type": "address[]"
        }
      ],
      "name": "RebalancePerformed",
      "type": "event"
    },
    {
      "anonymous": false,
      "inputs": [
        {
          "indexed": true,
          "internalType": "address",
          "name": "user",
          "type": "address"
        },
        {
          "indexed": false,
          "internalType": "address",
          "name": "fromToken",
          "type": "address"
        },
        {
          "indexed": false,
          "internalType": "address",
          "name": "toToken",
          "type": "address"
        },
        {
          "indexed": false,
          "internalType": "uint256",
          "name": "amountIn",
          "type": "uint256"
        },
        {
          "indexed": false,
          "internalType": "uint256",
          "name": "amountOut",
          "type": "uint256"
        }
      ],
      "name": "Swap",
      "type": "event"
    },
    {
      "anonymous": false,
      "inputs": [
        {
          "indexed": true,
          "internalType": "address",
          "name": "from",
          "type": "address"
        },
        {
          "indexed": true,
          "internalType": "address",
          "name": "to",
          "type": "address"
        },
        {
          "indexed": false,
          "internalType": "uint256",
          "name": "value",
          "type": "uint256"
        }
      ],
      "name": "Transfer",
      "type": "event"
    },
    {
      "anonymous": false,
      "inputs": [
        {
          "indexed": false,
          "internalType": "address",
          "name": "account",
          "type": "address"
        }
      ],
      "name": "Unpaused",
      "type": "event"
    },
    {
      "anonymous": false,
      "inputs": [
        {
          "indexed": true,
          "internalType": "address",
          "name": "implementation",
          "type": "address"
        }
      ],
      "name": "Upgraded",
      "type": "event"
    },
    {
      "anonymous": false,
      "inputs": [
        {
          "indexed": true,
          "internalType": "address",
          "name": "user",
          "type": "address"
        },
        {
          "indexed": false,
          "internalType": "uint256[]",
          "name": "amountsToAdd",
          "type": "uint256[]"
        }
      ],
      "name": "WeightsRebalanced",
      "type": "event"
    },
    {
      "anonymous": false,
      "inputs": [
        {
          "indexed": true,
          "internalType": "address",
          "name": "user",
          "type": "address"
        },
        {
          "indexed": false,
          "internalType": "uint256",
          "name": "amount",
          "type": "uint256"
        }
      ],
      "name": "Withdraw",
      "type": "event"
    },
    {
      "inputs": [],
      "name": "ONE",
      "outputs": [
        {
          "internalType": "uint256",
          "name": "",
          "type": "uint256"
        }
      ],
      "stateMutability": "view",
      "type": "function"
    },
    {
      "inputs": [],
      "name": "UPGRADE_INTERFACE_VERSION",
      "outputs": [
        {
          "internalType": "string",
          "name": "",
          "type": "string"
        }
      ],
      "stateMutability": "view",
      "type": "function"
    },
    {
      "inputs": [
        {
          "internalType": "address",
          "name": "owner",
          "type": "address"
        },
        {
          "internalType": "address",
          "name": "spender",
          "type": "address"
        }
      ],
      "name": "allowance",
      "outputs": [
        {
          "internalType": "uint256",
          "name": "",
          "type": "uint256"
        }
      ],
      "stateMutability": "view",
      "type": "function"
    },
    {
      "inputs": [
        {
          "internalType": "address",
          "name": "spender",
          "type": "address"
        },
        {
          "internalType": "uint256",
          "name": "value",
          "type": "uint256"
        }
      ],
      "name": "approve",
      "outputs": [
        {
          "internalType": "bool",
          "name": "",
          "type": "bool"
        }
      ],
      "stateMutability": "nonpayable",
      "type": "function"
    },
    {
      "inputs": [
        {
          "internalType": "uint256",
          "name": "",
          "type": "uint256"
        }
      ],
      "name": "assetInfos",
      "outputs": [
        {
          "internalType": "address",
          "name": "asset",
          "type": "address"
        },
        {
          "internalType": "uint256",
          "name": "weight",
          "type": "uint256"
        },
        {
          "internalType": "uint256",
          "name": "slippage",
          "type": "uint256"
        },
        {
          "internalType": "uint256",
          "name": "reserve",
          "type": "uint256"
        }
      ],
      "stateMutability": "view",
      "type": "function"
    },
    {
      "inputs": [
        {
          "internalType": "uint256",
          "name": "assetIndex",
          "type": "uint256"
        }
      ],
      "name": "assetLiquidity",
      "outputs": [
        {
          "internalType": "uint256",
          "name": "",
          "type": "uint256"
        }
      ],
      "stateMutability": "view",
      "type": "function"
    },
    {
      "inputs": [
        {
          "internalType": "address",
          "name": "account",
          "type": "address"
        }
      ],
      "name": "balanceOf",
      "outputs": [
        {
          "internalType": "uint256",
          "name": "",
          "type": "uint256"
        }
      ],
      "stateMutability": "view",
      "type": "function"
    },
    {
      "inputs": [],
      "name": "baseAsset",
      "outputs": [
        {
          "internalType": "address",
          "name": "",
          "type": "address"
        }
      ],
      "stateMutability": "view",
      "type": "function"
    },
    {
      "inputs": [
        {
          "internalType": "uint256",
          "name": "share",
          "type": "uint256"
        }
      ],
      "name": "calculateAssetShare",
      "outputs": [
        {
          "internalType": "uint256[]",
          "name": "",
          "type": "uint256[]"
        }
      ],
      "stateMutability": "view",
      "type": "function"
    },
    {
      "inputs": [],
      "name": "decimals",
      "outputs": [
        {
          "internalType": "uint8",
          "name": "",
          "type": "uint8"
        }
      ],
      "stateMutability": "view",
      "type": "function"
    },
    {
      "inputs": [
        {
          "internalType": "address",
          "name": "to",
          "type": "address"
        },
        {
          "internalType": "uint256[]",
          "name": "amounts",
          "type": "uint256[]"
        },
        {
          "internalType": "uint256",
          "name": "deadline",
          "type": "uint256"
        }
      ],
      "name": "deposit",
      "outputs": [
        {
          "internalType": "uint256",
          "name": "",
          "type": "uint256"
        }
      ],
      "stateMutability": "nonpayable",
      "type": "function"
    },
    {
      "inputs": [
        {
          "internalType": "address",
          "name": "fromToken",
          "type": "address"
        },
        {
          "internalType": "address",
          "name": "toToken",
          "type": "address"
        },
        {
          "internalType": "uint256",
          "name": "amount",
          "type": "uint256"
        }
      ],
      "name": "getAmountOut",
      "outputs": [
        {
          "internalType": "uint256",
          "name": "",
          "type": "uint256"
        }
      ],
      "stateMutability": "view",
      "type": "function"
    },
    {
      "inputs": [
        {
          "internalType": "address",
          "name": "asset",
          "type": "address"
        }
      ],
      "name": "getAssetReserve",
      "outputs": [
        {
          "internalType": "uint256",
          "name": "",
          "type": "uint256"
        }
      ],
      "stateMutability": "view",
      "type": "function"
    },
    {
      "inputs": [],
      "name": "getAssets",
      "outputs": [
        {
          "internalType": "address[]",
          "name": "",
          "type": "address[]"
        }
      ],
      "stateMutability": "view",
      "type": "function"
    },
    {
      "inputs": [
        {
          "internalType": "address",
          "name": "token",
          "type": "address"
        }
      ],
      "name": "getDeviationForToken",
      "outputs": [
        {
          "internalType": "uint256",
          "name": "",
          "type": "uint256"
        }
      ],
      "stateMutability": "view",
      "type": "function"
    },
    {
      "inputs": [],
      "name": "getDeviations",
      "outputs": [
        {
          "internalType": "bool[]",
          "name": "directions",
          "type": "bool[]"
        },
        {
          "internalType": "uint256[]",
          "name": "deviations",
          "type": "uint256[]"
        }
      ],
      "stateMutability": "view",
      "type": "function"
    },
    {
      "inputs": [],
      "name": "getReserves",
      "outputs": [
        {
          "internalType": "uint256[]",
          "name": "",
          "type": "uint256[]"
        }
      ],
      "stateMutability": "view",
      "type": "function"
    },
    {
      "inputs": [
        {
          "internalType": "address",
          "name": "token",
          "type": "address"
        }
      ],
      "name": "getSlippage",
      "outputs": [
        {
          "internalType": "uint256",
          "name": "",
          "type": "uint256"
        }
      ],
      "stateMutability": "view",
      "type": "function"
    },
    {
      "inputs": [],
      "name": "getSlippageParams",
      "outputs": [
        {
          "internalType": "uint256[]",
          "name": "",
          "type": "uint256[]"
        }
      ],
      "stateMutability": "view",
      "type": "function"
    },
    {
      "inputs": [
        {
          "internalType": "address",
          "name": "token",
          "type": "address"
        }
      ],
      "name": "getTokenWeight",
      "outputs": [
        {
          "internalType": "uint256",
          "name": "",
          "type": "uint256"
        }
      ],
      "stateMutability": "view",
      "type": "function"
    },
    {
      "inputs": [],
      "name": "getWeights",
      "outputs": [
        {
          "internalType": "uint256[]",
          "name": "",
          "type": "uint256[]"
        }
      ],
      "stateMutability": "view",
      "type": "function"
    },
    {
      "inputs": [
        {
          "internalType": "address[]",
          "name": "_assets",
          "type": "address[]"
        },
        {
          "internalType": "uint256[]",
          "name": "_weights",
          "type": "uint256[]"
        },
        {
          "internalType": "uint256",
          "name": "_trigger",
          "type": "uint256"
        },
        {
          "internalType": "address",
          "name": "_registry",
          "type": "address"
        }
      ],
      "name": "initialize",
      "outputs": [],
      "stateMutability": "nonpayable",
      "type": "function"
    },
    {
      "inputs": [],
      "name": "isRebalanceNeeded",
      "outputs": [
        {
          "internalType": "bool",
          "name": "",
          "type": "bool"
        }
      ],
      "stateMutability": "view",
      "type": "function"
    },
    {
      "inputs": [],
      "name": "k",
      "outputs": [
        {
          "internalType": "uint256",
          "name": "",
          "type": "uint256"
        }
      ],
      "stateMutability": "view",
      "type": "function"
    },
    {
      "inputs": [],
      "name": "liquidity",
      "outputs": [
        {
          "internalType": "uint256",
          "name": "",
          "type": "uint256"
        }
      ],
      "stateMutability": "view",
      "type": "function"
    },
    {
      "inputs": [],
      "name": "n",
      "outputs": [
        {
          "internalType": "uint256",
          "name": "",
          "type": "uint256"
        }
      ],
      "stateMutability": "view",
      "type": "function"
    },
    {
      "inputs": [],
      "name": "name",
      "outputs": [
        {
          "internalType": "string",
          "name": "",
          "type": "string"
        }
      ],
      "stateMutability": "view",
      "type": "function"
    },
    {
      "inputs": [],
      "name": "owner",
      "outputs": [
        {
          "internalType": "address",
          "name": "",
          "type": "address"
        }
      ],
      "stateMutability": "view",
      "type": "function"
    },
    {
      "inputs": [],
      "name": "pause",
      "outputs": [],
      "stateMutability": "nonpayable",
      "type": "function"
    },
    {
      "inputs": [],
      "name": "paused",
      "outputs": [
        {
          "internalType": "bool",
          "name": "",
          "type": "bool"
        }
      ],
      "stateMutability": "view",
      "type": "function"
    },
    {
      "inputs": [],
      "name": "proxiableUUID",
      "outputs": [
        {
          "internalType": "bytes32",
          "name": "",
          "type": "bytes32"
        }
      ],
      "stateMutability": "view",
      "type": "function"
    },
    {
      "inputs": [
        {
          "internalType": "address",
          "name": "fromToken",
          "type": "address"
        },
        {
          "internalType": "address",
          "name": "toToken",
          "type": "address"
        },
        {
          "internalType": "uint256",
          "name": "amount",
          "type": "uint256"
        }
      ],
      "name": "quotePotentialSwap",
      "outputs": [
        {
          "internalType": "uint256",
          "name": "",
          "type": "uint256"
        }
      ],
      "stateMutability": "view",
      "type": "function"
    },
    {
      "inputs": [],
      "name": "rebalance",
      "outputs": [],
      "stateMutability": "nonpayable",
      "type": "function"
    },
    {
      "inputs": [
        {
          "internalType": "address",
          "name": "receiver",
          "type": "address"
        }
      ],
      "name": "rebalanceAndDeposit",
      "outputs": [
        {
          "internalType": "uint256[]",
          "name": "",
          "type": "uint256[]"
        }
      ],
      "stateMutability": "nonpayable",
      "type": "function"
    },
    {
      "inputs": [],
      "name": "registry",
      "outputs": [
        {
          "internalType": "contract IBaluniV1Registry",
          "name": "",
          "type": "address"
        }
      ],
      "stateMutability": "view",
      "type": "function"
    },
    {
      "inputs": [],
      "name": "renounceOwnership",
      "outputs": [],
      "stateMutability": "nonpayable",
      "type": "function"
    },
    {
      "inputs": [
        {
          "internalType": "address",
          "name": "",
          "type": "address"
        }
      ],
      "name": "reserves",
      "outputs": [
        {
          "internalType": "uint256",
          "name": "",
          "type": "uint256"
        }
      ],
      "stateMutability": "view",
      "type": "function"
    },
    {
      "inputs": [
        {
          "internalType": "address",
          "name": "fromToken",
          "type": "address"
        },
        {
          "internalType": "address",
          "name": "toToken",
          "type": "address"
        },
        {
          "internalType": "uint256",
          "name": "amount",
          "type": "uint256"
        },
        {
          "internalType": "uint256",
          "name": "minAmount",
          "type": "uint256"
        },
        {
          "internalType": "address",
          "name": "receiver",
          "type": "address"
        },
        {
          "internalType": "uint256",
          "name": "deadline",
          "type": "uint256"
        }
      ],
      "name": "swap",
      "outputs": [
        {
          "internalType": "uint256",
          "name": "amountOut",
          "type": "uint256"
        },
        {
          "internalType": "uint256",
          "name": "fee",
          "type": "uint256"
        }
      ],
      "stateMutability": "nonpayable",
      "type": "function"
    },
    {
      "inputs": [],
      "name": "symbol",
      "outputs": [
        {
          "internalType": "string",
          "name": "",
          "type": "string"
        }
      ],
      "stateMutability": "view",
      "type": "function"
    },
    {
      "inputs": [],
      "name": "totalSupply",
      "outputs": [
        {
          "internalType": "uint256",
          "name": "",
          "type": "uint256"
        }
      ],
      "stateMutability": "view",
      "type": "function"
    },
    {
      "inputs": [],
      "name": "totalValuation",
      "outputs": [
        {
          "internalType": "uint256",
          "name": "totalVal",
          "type": "uint256"
        },
        {
          "internalType": "uint256[]",
          "name": "valuations",
          "type": "uint256[]"
        }
      ],
      "stateMutability": "view",
      "type": "function"
    },
    {
      "inputs": [
        {
          "internalType": "address",
          "name": "to",
          "type": "address"
        },
        {
          "internalType": "uint256",
          "name": "value",
          "type": "uint256"
        }
      ],
      "name": "transfer",
      "outputs": [
        {
          "internalType": "bool",
          "name": "",
          "type": "bool"
        }
      ],
      "stateMutability": "nonpayable",
      "type": "function"
    },
    {
      "inputs": [
        {
          "internalType": "address",
          "name": "from",
          "type": "address"
        },
        {
          "internalType": "address",
          "name": "to",
          "type": "address"
        },
        {
          "internalType": "uint256",
          "name": "value",
          "type": "uint256"
        }
      ],
      "name": "transferFrom",
      "outputs": [
        {
          "internalType": "bool",
          "name": "",
          "type": "bool"
        }
      ],
      "stateMutability": "nonpayable",
      "type": "function"
    },
    {
      "inputs": [
        {
          "internalType": "address",
          "name": "newOwner",
          "type": "address"
        }
      ],
      "name": "transferOwnership",
      "outputs": [],
      "stateMutability": "nonpayable",
      "type": "function"
    },
    {
      "inputs": [],
      "name": "trigger",
      "outputs": [
        {
          "internalType": "uint256",
          "name": "",
          "type": "uint256"
        }
      ],
      "stateMutability": "view",
      "type": "function"
    },
    {
      "inputs": [],
      "name": "unitPrice",
      "outputs": [
        {
          "internalType": "uint256",
          "name": "",
          "type": "uint256"
        }
      ],
      "stateMutability": "view",
      "type": "function"
    },
    {
      "inputs": [],
      "name": "unpause",
      "outputs": [],
      "stateMutability": "nonpayable",
      "type": "function"
    },
    {
      "inputs": [
        {
          "internalType": "address",
          "name": "newImplementation",
          "type": "address"
        },
        {
          "internalType": "bytes",
          "name": "data",
          "type": "bytes"
        }
      ],
      "name": "upgradeToAndCall",
      "outputs": [],
      "stateMutability": "payable",
      "type": "function"
    },
    {
      "inputs": [
        {
          "internalType": "uint256",
          "name": "share",
          "type": "uint256"
        },
        {
          "internalType": "address",
          "name": "to",
          "type": "address"
        },
        {
          "internalType": "uint256",
          "name": "deadline",
          "type": "uint256"
        }
      ],
      "name": "withdraw",
      "outputs": [
        {
          "internalType": "uint256",
          "name": "",
          "type": "uint256"
        }
      ],
      "stateMutability": "nonpayable",
      "type": "function"
    }
  ],
  "bytecode": "0x60a0604052306080523480156012575f80fd5b50608051615ca36100395f395f8181613ca301528181613ccc0152613e7c0152615ca35ff3fe60806040526004361061030e575f3560e01c80637fec8d381161019c578063b3bf9d32116100e7578063d14ef46d11610092578063e63697c81161006d578063e63697c814610963578063e64ebdd214610982578063e73faa2d146109a1578063f2fde38b146109b5575f80fd5b8063d14ef46d1461088c578063d66bd524146108d5578063dd62ed3e14610900575f80fd5b8063c2ee3a08116100c2578063c2ee3a0814610839578063cdf456e11461084e578063cf8fa7641461086d575f80fd5b8063b3bf9d32146107df578063b4f40c61146107fe578063b7110e1314610817575f80fd5b80638de30f3011610147578063a9059cbb11610122578063a9059cbb14610759578063ad3cb1cc14610778578063b2b55d70146107c0575f80fd5b80638de30f30146106f257806395d89b41146107115780639908fc8b14610725575f80fd5b806389b3179b1161017757806389b3179b146106835780638a77c8dc146106a25780638da5cb5b146106b6575f80fd5b80637fec8d38146106465780637ff1c1791461065b5780638456cb591461066f575f80fd5b8063313ce5671161025c5780635c975abb11610207578063715018a6116101e2578063715018a6146105e75780637b103999146105fb5780637d7c2a1c14610632575f80fd5b80635c975abb1461053d57806367e4ac2c1461057357806370a0823114610594575f80fd5b80634aa06652116102375780634aa06652146104f75780634f1ef2861461051657806352d1902d14610529575f80fd5b8063313ce567146104a95780633f4ba83a146104c457806343c2e2f5146104d8575f80fd5b8063228835ac116102bc578063250aa68311610297578063250aa68314610454578063295b9300146104735780632e52d60614610495575f80fd5b8063228835ac1461040057806322acb8671461042157806323b872dd14610435575f80fd5b806312899068116102ec578063128990681461038c57806318160ddd146103b95780631a686502146103ec575f80fd5b806306fdde03146103125780630902f1ac1461033c578063095ea7b31461035d575b5f80fd5b34801561031d575f80fd5b506103266109d4565b60405161033391906152b9565b60405180910390f35b348015610347575f80fd5b50610350610aa7565b6040516103339190615328565b348015610368575f80fd5b5061037c61037736600461535e565b610b4a565b6040519015158152602001610333565b348015610397575f80fd5b506103ab6103a6366004615388565b610b63565b604051908152602001610333565b3480156103c4575f80fd5b507f52c63247e1f47db19d5ce0460030c497f067ca4cebf71ba98eeadabe20bace02546103ab565b3480156103f7575f80fd5b506103ab610be3565b34801561040b575f80fd5b5061041f61041a366004615477565b610bf4565b005b34801561042c575f80fd5b50610350610f7f565b348015610440575f80fd5b5061037c61044f36600461554c565b61101c565b34801561045f575f80fd5b506103ab61046e366004615388565b611041565b34801561047e575f80fd5b506104876110b9565b60405161033392919061558a565b3480156104a0575f80fd5b506103ab600781565b3480156104b4575f80fd5b5060405160128152602001610333565b3480156104cf575f80fd5b5061041f6110cd565b3480156104e3575f80fd5b506103ab6104f236600461554c565b6110df565b348015610502575f80fd5b506103ab61051136600461554c565b6111bd565b61041f6105243660046155c9565b6113a6565b348015610534575f80fd5b506103ab6113c5565b348015610548575f80fd5b507fcd5ed15c6e187e77e9aee88184c21f4f2182ab5827cb3b7e07fbedcd63f033005460ff1661037c565b34801561057e575f80fd5b506105876113f3565b6040516103339190615689565b34801561059f575f80fd5b506103ab6105ae366004615388565b6001600160a01b03165f9081527f52c63247e1f47db19d5ce0460030c497f067ca4cebf71ba98eeadabe20bace00602052604090205490565b3480156105f2575f80fd5b5061041f6114ab565b348015610606575f80fd5b5060055461061a906001600160a01b031681565b6040516001600160a01b039091168152602001610333565b34801561063d575f80fd5b5061041f6114bc565b348015610651575f80fd5b506103ab60015481565b348015610666575f80fd5b50610350611518565b34801561067a575f80fd5b5061041f6115b5565b34801561068e575f80fd5b506103ab61069d366004615388565b6115c5565b3480156106ad575f80fd5b5061037c61164b565b3480156106c1575f80fd5b507f9016d09d72d40fdae2fd8ceac6b6234c7706214fd39c1cd1e609a0528c199300546001600160a01b031661061a565b3480156106fd575f80fd5b5061035061070c366004615388565b6116c5565b34801561071c575f80fd5b50610326611965565b348015610730575f80fd5b5061074461073f36600461569b565b6119b6565b60408051928352602083019190915201610333565b348015610764575f80fd5b5061037c61077336600461535e565b611f2d565b348015610783575f80fd5b506103266040518060400160405280600581526020017f352e302e3000000000000000000000000000000000000000000000000000000081525081565b3480156107cb575f80fd5b506103ab6107da366004615388565b611f3a565b3480156107ea575f80fd5b506103ab6107f93660046156fe565b611fad565b348015610809575f80fd5b506103ab6512309ce5400081565b348015610822575f80fd5b5061082b6124d2565b604051610333929190615753565b348015610844575f80fd5b506103ab60025481565b348015610859575f80fd5b5060035461061a906001600160a01b031681565b348015610878575f80fd5b506103ab6108873660046157a2565b61268b565b348015610897575f80fd5b506108ab6108a63660046157a2565b61270a565b604080516001600160a01b0390951685526020850193909352918301526060820152608001610333565b3480156108e0575f80fd5b506103ab6108ef366004615388565b60066020525f908152604090205481565b34801561090b575f80fd5b506103ab61091a3660046157b9565b6001600160a01b039182165f9081527f52c63247e1f47db19d5ce0460030c497f067ca4cebf71ba98eeadabe20bace016020908152604080832093909416825291909152205490565b34801561096e575f80fd5b506103ab61097d3660046157f0565b61274b565b34801561098d575f80fd5b5061035061099c3660046157a2565b61301e565b3480156109ac575f80fd5b506103ab61311d565b3480156109c0575f80fd5b5061041f6109cf366004615388565b61323c565b7f52c63247e1f47db19d5ce0460030c497f067ca4cebf71ba98eeadabe20bace0380546060917f52c63247e1f47db19d5ce0460030c497f067ca4cebf71ba98eeadabe20bace0091610a2590615814565b80601f0160208091040260200160405190810160405280929190818152602001828054610a5190615814565b8015610a9c5780601f10610a7357610100808354040283529160200191610a9c565b820191905f5260205f20905b815481529060010190602001808311610a7f57829003601f168201915b505050505091505090565b5f80546060919067ffffffffffffffff811115610ac657610ac66153a3565b604051908082528060200260200182016040528015610aef578160200160208202803683370190505b5090505f5b5f54811015610b44575f8181548110610b0f57610b0f615846565b905f5260205f20906004020160030154828281518110610b3157610b31615846565b6020908102919091010152600101610af4565b50919050565b5f33610b57818585613292565b60019150505b92915050565b5f805b5f54811015610bdb57826001600160a01b03165f8281548110610b8b57610b8b615846565b5f9182526020909120600490910201546001600160a01b031603610bd3575f8181548110610bbb57610bbb615846565b905f5260205f20906004020160020154915050919050565b600101610b66565b505f92915050565b5f80610bed6132a4565b5092915050565b7ff0c57e16840df040f15088dc2f81fe391c3923bec73e23a9662efc9c229c6a00805468010000000000000000810460ff16159067ffffffffffffffff165f81158015610c3e5750825b90505f8267ffffffffffffffff166001148015610c5a5750303b155b905081158015610c68575080155b15610c9f576040517ff92ee8a900000000000000000000000000000000000000000000000000000000815260040160405180910390fd5b84547fffffffffffffffffffffffffffffffffffffffffffffffff00000000000000001660011785558315610cea57845468ff00000000000000001916680100000000000000001785555b610cf3336133d1565b610d0d610cff8a6133e2565b610d088b6134cb565b6135b4565b6005805473ffffffffffffffffffffffffffffffffffffffff19166001600160a01b038816908117909155670de0b6b3a76400006002556001889055604080517f1bf01e9b0000000000000000000000000000000000000000000000000000000081529051631bf01e9b916004818101926020929091908290030181865afa158015610d9b573d5f803e3d5ffd5b505050506040513d601f19601f82011682018060405250810190610dbf919061585a565b6003805473ffffffffffffffffffffffffffffffffffffffff19166001600160a01b0392909216918217905564e8d4a51000600455610e455760405162461bcd60e51b815260206004820152601a60248201527f496e76616c69642062617365206173736574206164647265737300000000000060448201526064015b60405180910390fd5b610e4f89896135c6565b610e9b5760405162461bcd60e51b815260206004820152601560248201527f496e697469616c697a6174696f6e206661696c656400000000000000000000006044820152606401610e3c565b5f805b8951811015610ed657898181518110610eb957610eb9615846565b602002602001015182610ecc9190615889565b9150600101610e9e565b508061271014610f285760405162461bcd60e51b815260206004820152600f60248201527f496e76616c6964207765696768747300000000000000000000000000000000006044820152606401610e3c565b508315610f7457845468ff000000000000000019168555604051600181527fc7f505b2f371ae2175ee4913f4499e1f2633a7b5936321eed1cdaeb6115181d29060200160405180910390a15b505050505050505050565b5f80546060919067ffffffffffffffff811115610f9e57610f9e6153a3565b604051908082528060200260200182016040528015610fc7578160200160208202803683370190505b5090505f5b5f54811015610b44575f8181548110610fe757610fe7615846565b905f5260205f2090600402016001015482828151811061100957611009615846565b6020908102919091010152600101610fcc565b5f33611029858285613a70565b611034858585613b23565b60019150505b9392505050565b5f805b5f54811015610bdb57826001600160a01b03165f828154811061106957611069615846565b5f9182526020909120600490910201546001600160a01b0316036110b1575f818154811061109957611099615846565b905f5260205f20906004020160010154915050919050565b600101611044565b5f60606110c46132a4565b90939092509050565b6110d5613bb2565b6110dd613c26565b565b5f806110ec8585856111bd565b90505f6110f886610b63565b90505f61110486610b63565b90505f61111088611041565b90505f61111c88611041565b90505f61271061112c868861589c565b61113691906158b3565b90505f612710611146868961589c565b61115091906158b3565b905061115b8b6115c5565b8411156111735761116c82886158d2565b9650611180565b61117d8288615889565b96505b6111898a6115c5565b8310156111a15761119a8188615889565b96506111ae565b6111ab81886158d2565b96505b50949998505050505050505050565b5f8060055f9054906101000a90046001600160a01b03166001600160a01b031663bb3ba04c6040518163ffffffff1660e01b8152600401602060405180830381865afa15801561120f573d5f803e3d5ffd5b505050506040513d601f19601f82011682018060405250810190611233919061585a565b90505f6001600160a01b031660055f9054906101000a90046001600160a01b03166001600160a01b031663bb3ba04c6040518163ffffffff1660e01b8152600401602060405180830381865afa15801561128f573d5f803e3d5ffd5b505050506040513d601f19601f820116820180604052508101906112b3919061585a565b6001600160a01b0316036113095760405162461bcd60e51b815260206004820152601660248201527f496e76616c6964206f7261636c652061646472657373000000000000000000006044820152606401610e3c565b6040517f248391ff0000000000000000000000000000000000000000000000000000000081526001600160a01b0386811660048301528581166024830152604482018590525f919083169063248391ff90606401602060405180830381865afa158015611378573d5f803e3d5ffd5b505050506040513d601f19601f8201168201806040525081019061139c91906158e5565b9695505050505050565b6113ae613c98565b6113b782613d68565b6113c18282613d70565b5050565b5f6113ce613e71565b507f360894a13ba1a3210667c828492db98dca3e2076cc3735a920a3ca505d382bbc90565b5f80546060919067ffffffffffffffff811115611412576114126153a3565b60405190808252806020026020018201604052801561143b578160200160208202803683370190505b5090505f5b5f54811015610b44575f818154811061145b5761145b615846565b5f91825260209091206004909102015482516001600160a01b039091169083908390811061148b5761148b615846565b6001600160a01b0390921660209283029190910190910152600101611440565b6114b3613bb2565b6110dd5f613ed3565b6114c461164b565b6115105760405162461bcd60e51b815260206004820152601460248201527f526562616c616e6365206e6f74206e65656465640000000000000000000000006044820152606401610e3c565b6110dd613f50565b5f80546060919067ffffffffffffffff811115611537576115376153a3565b604051908082528060200260200182016040528015611560578160200160208202803683370190505b5090505f5b5f54811015610b44575f818154811061158057611580615846565b905f5260205f209060040201600201548282815181106115a2576115a2615846565b6020908102919091010152600101611565565b6115bd613bb2565b6110dd614366565b5f806115cf6124d2565b9150505f5b5f5481101561164257836001600160a01b03165f82815481106115f9576115f9615846565b5f9182526020909120600490910201546001600160a01b03160361163a5781818151811061162957611629615846565b602002602001015192505050919050565b6001016115d4565b505f9392505050565b5f805f6116566124d2565b915091505f5b81518110156116bc5782818151811061167757611677615846565b602002602001015180156116a5575060015482828151811061169b5761169b615846565b6020026020010151115b156116b4576001935050505090565b60010161165c565b505f9250505090565b60606116cf61164b565b61171b5760405162461bcd60e51b815260206004820152601460248201527f526562616c616e6365206e6f74206e65656465640000000000000000000000006044820152606401610e3c565b5f806117256132a4565b915091505f61173483836143c1565b5f80549192509067ffffffffffffffff811115611753576117536153a3565b60405190808252806020026020018201604052801561177c578160200160208202803683370190505b5090505f611789836144c0565b905060045481611799919061589c565b90505f5b83518110156118ff575f8482815181106117b9576117b9615846565b602002602001015111156118f7576117ea818583815181106117dd576117dd615846565b60200260200101516144fb565b8382815181106117fc576117fc615846565b6020026020010181815250505f818154811061181a5761181a615846565b905f5260205f2090600402015f015f9054906101000a90046001600160a01b03166001600160a01b03166323b872dd333087858151811061185d5761185d615846565b60209081029190910101516040517fffffffff0000000000000000000000000000000000000000000000000000000060e086901b1681526001600160a01b03938416600482015292909116602483015260448201526064016020604051808303815f875af11580156118d1573d5f803e3d5ffd5b505050506040513d601f19601f820116820180604052508101906118f591906158fc565b505b60010161179d565b5061190a87826145ca565b611912614617565b61191a61496a565b336001600160a01b03167fa95ad530009c6f929555e70a66aadbeae7231e45756c5b028ca77fbaa376e73e846040516119539190615328565b60405180910390a25095945050505050565b7f52c63247e1f47db19d5ce0460030c497f067ca4cebf71ba98eeadabe20bace0480546060917f52c63247e1f47db19d5ce0460030c497f067ca4cebf71ba98eeadabe20bace0091610a2590615814565b5f8082428110156119f35760405162461bcd60e51b81526020600482015260076024820152661156141254915160ca1b6044820152606401610e3c565b6119fb614a44565b6001600160a01b03891615801590611a1b57506001600160a01b03881615155b611a675760405162461bcd60e51b815260206004820152601560248201527f496e76616c696420746f6b656e206164647265737300000000000000000000006044820152606401610e3c565b876001600160a01b0316896001600160a01b031603611ac85760405162461bcd60e51b815260206004820152601a60248201527f43616e6e6f742073776170207468652073616d6520746f6b656e0000000000006044820152606401610e3c565b5f8711611b175760405162461bcd60e51b815260206004820181905260248201527f416d6f756e74206d7573742062652067726561746572207468616e207a65726f6044820152606401610e3c565b6001600160a01b038516611b6d5760405162461bcd60e51b815260206004820152601860248201527f496e76616c6964207265636569766572206164647265737300000000000000006044820152606401610e3c565b6040517f23b872dd000000000000000000000000000000000000000000000000000000008152336004820152306024820152604481018890525f906001600160a01b038b16906323b872dd906064016020604051808303815f875af1158015611bd8573d5f803e3d5ffd5b505050506040513d601f19601f82011682018060405250810190611bfc91906158fc565b905080611c4b5760405162461bcd60e51b815260206004820152601560248201527f546f6b656e207472616e73666572206661696c656400000000000000000000006044820152606401610e3c565b5f611c578b8b8b6110df565b905080611c638b611f3a565b1015611cb15760405162461bcd60e51b815260206004820152601660248201527f496e73756666696369656e74204c6971756964697479000000000000000000006044820152606401610e3c565b611cba81614ac5565b9350611cc684826158d2565b94505f8511611d3d5760405162461bcd60e51b815260206004820152602560248201527f416d6f756e7420746f2073656e64206d7573742062652067726561746572207460448201527f68616e20300000000000000000000000000000000000000000000000000000006064820152608401610e3c565b87851015611db35760405162461bcd60e51b815260206004820152602a60248201527f416d6f756e74206f7574206d7573742062652067726561746572207468616e2060448201527f6d696e20616d6f756e74000000000000000000000000000000000000000000006064820152608401610e3c565b6040517fa9059cbb0000000000000000000000000000000000000000000000000000000081526001600160a01b038881166004830152602482018790525f91908c169063a9059cbb906044016020604051808303815f875af1158015611e1b573d5f803e3d5ffd5b505050506040513d601f19601f82011682018060405250810190611e3f91906158fc565b905080611e8e5760405162461bcd60e51b815260206004820152601560248201527f546f6b656e207472616e73666572206661696c656400000000000000000000006044820152606401610e3c565b611e96614617565b611e9e61496a565b604080516001600160a01b038e811682528d811660208301529181018c905260608101889052908916907fcd3829a3813dc3cdd188fd3d01dcf3268c16be2fdd2dd21d0665418816e460629060800160405180910390a2505050611f2160017f9b779b17422d0df92223018b32b4d1fa46e071723d6817e2486d003becc55f0055565b50965096945050505050565b5f33610b57818585613b23565b5f805b5f54811015610b44575f8181548110611f5857611f58615846565b5f9182526020909120600490910201546001600160a01b0390811690841603611fa5575f8181548110611f8d57611f8d615846565b905f5260205f20906004020160030154915050919050565b600101611f3d565b5f8142811015611fe95760405162461bcd60e51b81526020600482015260076024820152661156141254915160ca1b6044820152606401610e3c565b611ff1614a44565b611ff9614bd1565b5f6120227f52c63247e1f47db19d5ce0460030c497f067ca4cebf71ba98eeadabe20bace025490565b90505f8061202e610aa7565b80515f54919250146120825760405162461bcd60e51b815260206004820152601760248201527f496e76616c6964207265736572766573206c656e6774680000000000000000006044820152606401610e3c565b5f546120d05760405162461bcd60e51b815260206004820152600960248201527f4e6f2061737365747300000000000000000000000000000000000000000000006044820152606401610e3c565b5f5b5f548110156122a9575f8082815481106120ee576120ee615846565b5f91825260208220600490910201548a516001600160a01b03909116925082906323b872dd90339030908e908890811061212a5761212a615846565b60209081029190910101516040517fffffffff0000000000000000000000000000000000000000000000000000000060e086901b1681526001600160a01b03938416600482015292909116602483015260448201526064016020604051808303815f875af115801561219e573d5f803e3d5ffd5b505050506040513d601f19601f820116820180604052508101906121c291906158fc565b9050806122375760405162461bcd60e51b815260206004820152602260248201527f42616c756e695631506f6f6c3a205472616e736665722066726f6d206661696c60448201527f65640000000000000000000000000000000000000000000000000000000000006064820152608401610e3c565b6003545f906001600160a01b039081169084160361226c578a848151811061226157612261615846565b506122a19350505050565b61228f838c868151811061228257612282615846565b6020026020010151614c2d565b905061229b8187615889565b95505050505b6001016120d2565b505f821161231f5760405162461bcd60e51b815260206004820152602260248201527f546f74616c2076616c7565206d7573742062652067726561746572207468616e60448201527f20300000000000000000000000000000000000000000000000000000000000006064820152608401610e3c565b5f835f0361233b57600454612334908461589c565b90506123f0565b5f6123446132a4565b5090505f81116123bc5760405162461bcd60e51b815260206004820152602660248201527f546f74616c206c6971756964697479206d75737420626520677265617465722060448201527f7468616e203000000000000000000000000000000000000000000000000000006064820152608401610e3c565b6004546123c9908261589c565b85600454866123d8919061589c565b6123e2919061589c565b6123ec91906158b3565b9150505b805f0361243f5760405162461bcd60e51b815260206004820152600d60248201527f4d696e74207174792069732030000000000000000000000000000000000000006044820152606401610e3c565b61244989826145ca565b612451614617565b61245961496a565b886001600160a01b03167fe1fffcc4923d04b559f4d29a8bfc6cda04eb5b0d3c460751c2402c5c5cc9109c8260405161249491815260200190565b60405180910390a294505050506124ca60017f9b779b17422d0df92223018b32b4d1fa46e071723d6817e2486d003becc55f0055565b509392505050565b6060805f806124df6132a4565b5f5491935091508067ffffffffffffffff8111156124ff576124ff6153a3565b604051908082528060200260200182016040528015612528578160200160208202803683370190505b5094508067ffffffffffffffff811115612544576125446153a3565b60405190808252806020026020018201604052801561256d578160200160208202803683370190505b5093505f5b81811015612683575f8484838151811061258e5761258e615846565b60200260200101516127106125a3919061589c565b6125ad91906158b3565b90505f8083815481106125c2576125c2615846565b905f5260205f2090600402016001015490508082111561262d576125e681836158d2565b8784815181106125f8576125f8615846565b602002602001018181525050600188848151811061261857612618615846565b91151560209283029190910190910152612679565b61263782826158d2565b87848151811061264957612649615846565b6020026020010181815250505f88848151811061266857612668615846565b911515602092830291909101909101525b5050600101612572565b505050509091565b5f806126956132a4565b915050805183106126e85760405162461bcd60e51b815260206004820152601360248201527f496e76616c696420617373657420696e646578000000000000000000000000006044820152606401610e3c565b8083815181106126fa576126fa615846565b6020026020010151915050919050565b5f8181548110612718575f80fd5b5f91825260209091206004909102018054600182015460028301546003909301546001600160a01b039092169350919084565b5f81428110156127875760405162461bcd60e51b81526020600482015260076024820152661156141254915160ca1b6044820152606401610e3c565b61278f614a44565b612797614bd1565b6001600160a01b0384166127ed5760405162461bcd60e51b815260206004820152600f60248201527f496e76616c6964206164647265737300000000000000000000000000000000006044820152606401610e3c565b5f851161283c5760405162461bcd60e51b815260206004820152601c60248201527f5368617265206d7573742062652067726561746572207468616e2030000000006044820152606401610e3c565b604051636eb1769f60e11b815233600482015230602482018190525f9163dd62ed3e90604401602060405180830381865afa15801561287d573d5f803e3d5ffd5b505050506040513d601f19601f820116820180604052508101906128a191906158e5565b9050858110156129185760405162461bcd60e51b8152602060048201526024808201527f42616c756e695631506f6f6c3a20496e73756666696369656e7420416c6c6f7760448201527f616e6365000000000000000000000000000000000000000000000000000000006064820152608401610e3c565b6040517f23b872dd0000000000000000000000000000000000000000000000000000000081523360048201523060248201819052604482018890525f916323b872dd906064016020604051808303815f875af115801561297a573d5f803e3d5ffd5b505050506040513d601f19601f8201168201806040525081019061299e91906158fc565b9050806129ed5760405162461bcd60e51b815260206004820152601460248201527f5472616e736665722046726f6d204661696c65640000000000000000000000006044820152606401610e3c565b5f612a167f52c63247e1f47db19d5ce0460030c497f067ca4cebf71ba98eeadabe20bace025490565b90505f8111612a675760405162461bcd60e51b815260206004820152600c60248201527f4e6f206c697175696469747900000000000000000000000000000000000000006044820152606401610e3c565b5f612a7189614ac5565b90505f612a7e828b6158d2565b90505f5b5f54811015612ce057612a948261301e565b8181518110612aa557612aa5615846565b60200260200101515f8281548110612abf57612abf615846565b5f9182526020909120600491820201546040517f70a0823100000000000000000000000000000000000000000000000000000000815230928101929092526001600160a01b0316906370a0823190602401602060405180830381865afa158015612b2b573d5f803e3d5ffd5b505050506040513d601f19601f82011682018060405250810190612b4f91906158e5565b1015612bc35760405162461bcd60e51b815260206004820152602860248201527f42616c756e695631506f6f6c3a20496e73756666696369656e7420417373657460448201527f2042616c616e63650000000000000000000000000000000000000000000000006064820152608401610e3c565b5f808281548110612bd657612bd6615846565b5f9182526020909120600490910201546001600160a01b031663a9059cbb8c612bfe8661301e565b8581518110612c0f57612c0f615846565b60200260200101516040518363ffffffff1660e01b8152600401612c489291906001600160a01b03929092168252602082015260400190565b6020604051808303815f875af1158015612c64573d5f803e3d5ffd5b505050506040513d601f19601f82011682018060405250810190612c8891906158fc565b905080612cd75760405162461bcd60e51b815260206004820152601560248201527f4173736574207472616e73666572206661696c656400000000000000000000006044820152606401610e3c565b50600101612a82565b50305f9081527f52c63247e1f47db19d5ce0460030c497f067ca4cebf71ba98eeadabe20bace006020526040902054811115612d5e5760405162461bcd60e51b815260206004820152601d60248201527f496e73756666696369656e742042414c554e49206c69717569646974790000006044820152606401610e3c565b600554604080517f3b19e84a00000000000000000000000000000000000000000000000000000000815290515f926001600160a01b031691633b19e84a9160048083019260209291908290030181865afa158015612dbe573d5f803e3d5ffd5b505050506040513d601f19601f82011682018060405250810190612de2919061585a565b90506001600160a01b038116612e3a5760405162461bcd60e51b815260206004820152601860248201527f496e76616c6964207472656173757279206164647265737300000000000000006044820152606401610e3c565b305f9081527f52c63247e1f47db19d5ce0460030c497f067ca4cebf71ba98eeadabe20bace006020526040902054831115612eb75760405162461bcd60e51b815260206004820152601b60248201527f496e73756666696369656e742042414c554e4920666f722066656500000000006044820152606401610e3c565b6040517fa9059cbb0000000000000000000000000000000000000000000000000000000081526001600160a01b0382166004820152602481018490525f90309063a9059cbb906044016020604051808303815f875af1158015612f1c573d5f803e3d5ffd5b505050506040513d601f19601f82011682018060405250810190612f4091906158fc565b905080612f8f5760405162461bcd60e51b815260206004820152601360248201527f466565207472616e73666572206661696c6564000000000000000000000000006044820152606401610e3c565b612f993084614c47565b612fa1614617565b612fa961496a565b8a6001600160a01b03167f884edad9ce6fa2440d8a54cc123490eb96d2768479d49ff9c7366125a942436484604051612fe491815260200190565b60405180910390a25090965050505050506124ca60017f9b779b17422d0df92223018b32b4d1fa46e071723d6817e2486d003becc55f0055565b60605f61302a83614ac5565b90505f61303782856158d2565b5f80549192509067ffffffffffffffff811115613056576130566153a3565b60405190808252806020026020018201604052801561307f578160200160208202803683370190505b5090505f5b5f54811015613114575f8082815481106130a0576130a0615846565b905f5260205f2090600402016003015490506130da7f52c63247e1f47db19d5ce0460030c497f067ca4cebf71ba98eeadabe20bace025490565b6130e4858361589c565b6130ee91906158b3565b83838151811061310057613100615846565b602090810291909101015250600101613084565b50949350505050565b5f8060035f9054906101000a90046001600160a01b03166001600160a01b031663313ce5676040518163ffffffff1660e01b8152600401602060405180830381865afa15801561316f573d5f803e3d5ffd5b505050506040513d601f19601f82011682018060405250810190613193919061591b565b60ff1690505f6131a48260126158d2565b6131af90600a615a1b565b90505f6131ba6132a4565b5090505f6131e67f52c63247e1f47db19d5ce0460030c497f067ca4cebf71ba98eeadabe20bace025490565b9050805f036131f9575f94505050505090565b815f0361320a575f94505050505090565b5f613215848461589c565b90505f8260025483613227919061589c565b61323191906158b3565b979650505050505050565b613244613bb2565b6001600160a01b038116613286576040517f1e4fbdf70000000000000000000000000000000000000000000000000000000081525f6004820152602401610e3c565b61328f81613ed3565b50565b61329f8383836001614c94565b505050565b5f80546060908067ffffffffffffffff8111156132c3576132c36153a3565b6040519080825280602002602001820160405280156132ec578160200160208202803683370190505b5091505f5b818110156133cb575f80828154811061330c5761330c615846565b5f91825260208220600490910201546001600160a01b0316915061332f82611f3a565b6003549091506001600160a01b039081169083160361336c578085848151811061335b5761335b615846565b60200260200101818152505061339a565b5f6133778383614c2d565b90508086858151811061338c5761338c615846565b602002602001018181525050505b8483815181106133ac576133ac615846565b6020026020010151866133bf9190615889565b955050506001016132f1565b50509091565b6133d9614dbc565b61328f81614e23565b60408051808201909152600d81527f42616c756e6920506f6f6c3a200000000000000000000000000000000000000060208201526060905f5b8351811015610bed578184828151811061343757613437615846565b60200260200101516001600160a01b03166395d89b416040518163ffffffff1660e01b81526004015f60405180830381865afa158015613479573d5f803e3d5ffd5b505050506040513d5f823e601f3d908101601f191682016040526134a09190810190615a26565b6040516020016134b1929190615ab2565b60408051601f19818403018152919052915060010161341b565b60408051808201909152600781527f42414c554e492d0000000000000000000000000000000000000000000000000060208201526060905f5b8351811015610bed578184828151811061352057613520615846565b60200260200101516001600160a01b03166395d89b416040518163ffffffff1660e01b81526004015f60405180830381865afa158015613562573d5f803e3d5ffd5b505050506040513d5f823e601f3d908101601f191682016040526135899190810190615a26565b60405160200161359a929190615ab2565b60408051601f198184030181529190529150600101613504565b6135bc614dbc565b6113c18282614e2b565b5f8060055f9054906101000a90046001600160a01b03166001600160a01b031663cff49d686040518163ffffffff1660e01b8152600401602060405180830381865afa158015613618573d5f803e3d5ffd5b505050506040513d601f19601f8201168201806040525081019061363c919061585a565b90505f6001600160a01b031660055f9054906101000a90046001600160a01b03166001600160a01b031663cff49d686040518163ffffffff1660e01b8152600401602060405180830381865afa158015613698573d5f803e3d5ffd5b505050506040513d601f19601f820116820180604052508101906136bc919061585a565b6001600160a01b0316036137125760405162461bcd60e51b815260206004820152601a60248201527f496e76616c696420726562616c616e63657220616464726573730000000000006044820152606401610e3c565b82518451146137895760405162461bcd60e51b815260206004820152602260248201527f41737365747320616e642077656967687473206c656e677468206d69736d617460448201527f63680000000000000000000000000000000000000000000000000000000000006064820152608401610e3c565b5f5b8451811015613a65575f6001600160a01b03168582815181106137b0576137b0615846565b60200260200101516001600160a01b03160361380e5760405162461bcd60e51b815260206004820152601560248201527f496e76616c6964206173736574206164647265737300000000000000000000006044820152606401610e3c565b5f84828151811061382157613821615846565b6020026020010151116138765760405162461bcd60e51b815260206004820152600e60248201527f496e76616c6964207765696768740000000000000000000000000000000000006044820152606401610e3c565b5f604051806080016040528087848151811061389457613894615846565b60200260200101516001600160a01b031681526020018684815181106138bc576138bc615846565b60209081029190910181015182525f82820181905260409283018190528454600180820187559582528282208551600490920201805473ffffffffffffffffffffffffffffffffffffffff19166001600160a01b039092169190911781559184015194820194909455908201516002820155606090910151600390910155855186908390811061394e5761394e615846565b6020908102919091010151604051636eb1769f60e11b81523060048201526001600160a01b0385811660248301529192509082169063dd62ed3e90604401602060405180830381865afa1580156139a7573d5f803e3d5ffd5b505050506040513d601f19601f820116820180604052508101906139cb91906158e5565b5f03613a5c576040517f095ea7b30000000000000000000000000000000000000000000000000000000081526001600160a01b0384811660048301525f19602483015282169063095ea7b3906044016020604051808303815f875af1158015613a36573d5f803e3d5ffd5b505050506040513d601f19601f82011682018060405250810190613a5a91906158fc565b505b5060010161378b565b506001949350505050565b6001600160a01b038381165f9081527f52c63247e1f47db19d5ce0460030c497f067ca4cebf71ba98eeadabe20bace0160209081526040808320938616835292905220545f198114613b1d5781811015613b0f576040517ffb8f41b20000000000000000000000000000000000000000000000000000000081526001600160a01b03841660048201526024810182905260448101839052606401610e3c565b613b1d84848484035f614c94565b50505050565b6001600160a01b038316613b65576040517f96c6fd1e0000000000000000000000000000000000000000000000000000000081525f6004820152602401610e3c565b6001600160a01b038216613ba7576040517fec442f050000000000000000000000000000000000000000000000000000000081525f6004820152602401610e3c565b61329f838383614e8e565b33613be47f9016d09d72d40fdae2fd8ceac6b6234c7706214fd39c1cd1e609a0528c199300546001600160a01b031690565b6001600160a01b0316146110dd576040517f118cdaa7000000000000000000000000000000000000000000000000000000008152336004820152602401610e3c565b613c2e614ff3565b7fcd5ed15c6e187e77e9aee88184c21f4f2182ab5827cb3b7e07fbedcd63f03300805460ff191681557f5db9ee0a495bf2e6ff9c91a7834c1ba4fdd244a5e8aa4e537bd38aeae4b073aa335b6040516001600160a01b03909116815260200160405180910390a150565b306001600160a01b037f0000000000000000000000000000000000000000000000000000000000000000161480613d3157507f00000000000000000000000000000000000000000000000000000000000000006001600160a01b0316613d257f360894a13ba1a3210667c828492db98dca3e2076cc3735a920a3ca505d382bbc546001600160a01b031690565b6001600160a01b031614155b156110dd576040517fe07c8dba00000000000000000000000000000000000000000000000000000000815260040160405180910390fd5b61328f613bb2565b816001600160a01b03166352d1902d6040518163ffffffff1660e01b8152600401602060405180830381865afa925050508015613dca575060408051601f3d908101601f19168201909252613dc7918101906158e5565b60015b613e0b576040517f4c9c8ce30000000000000000000000000000000000000000000000000000000081526001600160a01b0383166004820152602401610e3c565b7f360894a13ba1a3210667c828492db98dca3e2076cc3735a920a3ca505d382bbc8114613e67576040517faa1d49a400000000000000000000000000000000000000000000000000000000815260048101829052602401610e3c565b61329f838361504e565b306001600160a01b037f000000000000000000000000000000000000000000000000000000000000000016146110dd576040517fe07c8dba00000000000000000000000000000000000000000000000000000000815260040160405180910390fd5b7f9016d09d72d40fdae2fd8ceac6b6234c7706214fd39c1cd1e609a0528c199300805473ffffffffffffffffffffffffffffffffffffffff1981166001600160a01b03848116918217845560405192169182907f8be0079c531659141344cd1fd0a4f28419497f9722a3daafe3b4186f6b6457e0905f90a3505050565b600554604080517fcff49d6800000000000000000000000000000000000000000000000000000000815290515f926001600160a01b03169163cff49d689160048083019260209291908290030181865afa158015613fb0573d5f803e3d5ffd5b505050506040513d601f19601f82011682018060405250810190613fd4919061585a565b90505f613fdf6113f3565b90505f613fea610f7f565b90505f60055f9054906101000a90046001600160a01b03166001600160a01b0316634f4608a26040518163ffffffff1660e01b8152600401602060405180830381865afa15801561403d573d5f803e3d5ffd5b505050506040513d601f19601f8201168201806040525081019061406191906158e5565b335f9081527f52c63247e1f47db19d5ce0460030c497f067ca4cebf71ba98eeadabe20bace0060205260409020547f52c63247e1f47db19d5ce0460030c497f067ca4cebf71ba98eeadabe20bace0254919250906064816140c2858561589c565b6140cc91906158b3565b101561411a5760405162461bcd60e51b815260206004820152601460248201527f496e73756666696369656e742062616c616e63650000000000000000000000006044820152606401610e3c565b5f5b5f5481101561427a575f80828154811061413857614138615846565b5f918252602090912060049182020154604051636eb1769f60e11b815230928101929092526001600160a01b038a81166024840152169063dd62ed3e90604401602060405180830381865afa158015614193573d5f803e3d5ffd5b505050506040513d601f19601f820116820180604052508101906141b791906158e5565b90505f19811015614271575f82815481106141d4576141d4615846565b5f9182526020909120600491820201546040517f095ea7b30000000000000000000000000000000000000000000000000000000081526001600160a01b038b8116938201939093525f19602482015291169063095ea7b3906044016020604051808303815f875af115801561424b573d5f803e3d5ffd5b505050506040513d601f19601f8201168201806040525081019061426f91906158fc565b505b5060010161411c565b505f614284610aa7565b6001546003546040517ff0bf77140000000000000000000000000000000000000000000000000000000081529293506001600160a01b03808b169363f0bf7714936142df9387938d938d939230928392911690600401615af4565b5f604051808303815f87803b1580156142f6575f80fd5b505af1158015614308573d5f803e3d5ffd5b50505050614314614617565b61431c61496a565b336001600160a01b03167f279b343370f587af7fb675ae7c8578e9c8abcc373236ad02c501a4771fe7a7b8876040516143559190615689565b60405180910390a250505050505050565b61436e614bd1565b7fcd5ed15c6e187e77e9aee88184c21f4f2182ab5827cb3b7e07fbedcd63f03300805460ff191660011781557f62e78cea01bee320cd4e420270b5ea74000d11b0c9f74754ebdbfc544b05a25833613c7a565b5f5460609067ffffffffffffffff8111156143de576143de6153a3565b604051908082528060200260200182016040528015614407578160200160208202803683370190505b5090505f5b5f54811015610bed575f6127105f838154811061442b5761442b615846565b905f5260205f2090600402016001015486614446919061589c565b61445091906158b3565b90508084838151811061446557614465615846565b602002602001015110156144b75783828151811061448557614485615846565b60200260200101518161449891906158d2565b8383815181106144aa576144aa615846565b6020026020010181815250505b5060010161440c565b5f805b5f54811015610b44578281815181106144de576144de615846565b6020026020010151826144f19190615889565b91506001016144c3565b6003545f805490916001600160a01b03169082908590811061451f5761451f615846565b5f9182526020909120600490910201546001600160a01b031603614544575080610b5d565b5f6145795f858154811061455a5761455a615846565b5f9182526020909120600490910201546001600160a01b0316846150a3565b90505f811161103a5760405162461bcd60e51b815260206004820152601b60248201527f496e76616c696420746f6b656e20616d6f756e7420746f2061646400000000006044820152606401610e3c565b6001600160a01b03821661460c576040517fec442f050000000000000000000000000000000000000000000000000000000081525f6004820152602401610e3c565b6113c15f8383614e8e565b5f806146216124d2565b90925090506064600a5f5b5f54811015614963575f80828154811061464857614648615846565b905f5260205f2090600402016002015490508385838151811061466d5761466d615846565b6020026020010151116146a657825f838154811061468d5761468d615846565b905f5260205f209060040201600201819055505061495b565b8582815181106146b8576146b8615846565b60200260200101511561479657838583815181106146d8576146d8615846565b60200260200101516146ea91906158b3565b5f83815481106146fc576146fc615846565b905f5260205f2090600402016002015f8282546147199190615889565b92505081905550805f838154811061473357614733615846565b905f5260205f2090600402016002015410156147915760405162461bcd60e51b815260206004820152601e60248201527f4f766572666c6f7720696e6372656d656e74696e6720736c69707061676500006044820152606401610e3c565b614909565b838583815181106147a9576147a9615846565b60200260200101516147bb91906158b3565b5f83815481106147cd576147cd615846565b905f5260205f2090600402016002015411156148af57838583815181106147f6576147f6615846565b602002602001015161480891906158b3565b5f838154811061481a5761481a615846565b905f5260205f2090600402016002015f82825461483791906158d2565b92505081905550805f838154811061485157614851615846565b905f5260205f2090600402016002015411156147915760405162461bcd60e51b815260206004820152601f60248201527f556e646572666c6f772064656372656d656e74696e6720736c697070616765006044820152606401610e3c565b838583815181106148c2576148c2615846565b60200260200101516148d491906158b3565b5f83815481106148e6576148e6615846565b905f5260205f2090600402016002015f8282546149039190615889565b90915550505b825f838154811061491c5761491c615846565b905f5260205f20906004020160020154111561495957825f838154811061494557614945615846565b905f5260205f209060040201600201819055505b505b60010161462c565b5050505050565b5f5b5f5481101561328f575f818154811061498757614987615846565b5f9182526020909120600491820201546040517f70a0823100000000000000000000000000000000000000000000000000000000815230928101929092526001600160a01b0316906370a0823190602401602060405180830381865afa1580156149f3573d5f803e3d5ffd5b505050506040513d601f19601f82011682018060405250810190614a1791906158e5565b5f8281548110614a2957614a29615846565b5f91825260209091206003600490920201015560010161496c565b7f9b779b17422d0df92223018b32b4d1fa46e071723d6817e2486d003becc55f0080547ffffffffffffffffffffffffffffffffffffffffffffffffffffffffffffffffe01614abf576040517f3ee5aeb500000000000000000000000000000000000000000000000000000000815260040160405180910390fd5b60029055565b5f8060055f9054906101000a90046001600160a01b03166001600160a01b03166385462d6f6040518163ffffffff1660e01b8152600401602060405180830381865afa158015614b17573d5f803e3d5ffd5b505050506040513d601f19601f82011682018060405250810190614b3b91906158e5565b90505f60055f9054906101000a90046001600160a01b03166001600160a01b0316634f4608a26040518163ffffffff1660e01b8152600401602060405180830381865afa158015614b8e573d5f803e3d5ffd5b505050506040513d601f19601f82011682018060405250810190614bb291906158e5565b905080614bbf838661589c565b614bc991906158b3565b949350505050565b7fcd5ed15c6e187e77e9aee88184c21f4f2182ab5827cb3b7e07fbedcd63f033005460ff16156110dd576040517fd93c066500000000000000000000000000000000000000000000000000000000815260040160405180910390fd5b6003545f9061103a9084906001600160a01b0316846111bd565b6001600160a01b038216614c89576040517f96c6fd1e0000000000000000000000000000000000000000000000000000000081525f6004820152602401610e3c565b6113c1825f83614e8e565b7f52c63247e1f47db19d5ce0460030c497f067ca4cebf71ba98eeadabe20bace006001600160a01b038516614cf7576040517fe602df050000000000000000000000000000000000000000000000000000000081525f6004820152602401610e3c565b6001600160a01b038416614d39576040517f94280d620000000000000000000000000000000000000000000000000000000081525f6004820152602401610e3c565b6001600160a01b038086165f9081526001830160209081526040808320938816835292905220839055811561496357836001600160a01b0316856001600160a01b03167f8c5be1e5ebec7d5bd14f71427d1e84f3dd0314c0f7b2291e5b200ac8c7c3b92585604051614dad91815260200190565b60405180910390a35050505050565b7ff0c57e16840df040f15088dc2f81fe391c3923bec73e23a9662efc9c229c6a005468010000000000000000900460ff166110dd576040517fd7e6bcf800000000000000000000000000000000000000000000000000000000815260040160405180910390fd5b613244614dbc565b614e33614dbc565b7f52c63247e1f47db19d5ce0460030c497f067ca4cebf71ba98eeadabe20bace007f52c63247e1f47db19d5ce0460030c497f067ca4cebf71ba98eeadabe20bace03614e7f8482615ba2565b5060048101613b1d8382615ba2565b7f52c63247e1f47db19d5ce0460030c497f067ca4cebf71ba98eeadabe20bace006001600160a01b038416614edb5781816002015f828254614ed09190615889565b90915550614f649050565b6001600160a01b0384165f9081526020829052604090205482811015614f46576040517fe450d38c0000000000000000000000000000000000000000000000000000000081526001600160a01b03861660048201526024810182905260448101849052606401610e3c565b6001600160a01b0385165f9081526020839052604090209083900390555b6001600160a01b038316614f82576002810180548390039055614fa0565b6001600160a01b0383165f9081526020829052604090208054830190555b826001600160a01b0316846001600160a01b03167fddf252ad1be2c89b69c2b068fc378daa952ba7f163c4a11628f55a4df523b3ef84604051614fe591815260200190565b60405180910390a350505050565b7fcd5ed15c6e187e77e9aee88184c21f4f2182ab5827cb3b7e07fbedcd63f033005460ff166110dd576040517f8dfc202b00000000000000000000000000000000000000000000000000000000815260040160405180910390fd5b615057826150bc565b6040516001600160a01b038316907fbc7cd75a20ee27fd9adebab32041f755214dbc6bffa90cc0225b39da2e5c2d3b905f90a280511561509b5761329f8282615158565b6113c16151ca565b6003545f9061103a906001600160a01b031684846111bd565b806001600160a01b03163b5f0361510a576040517f4c9c8ce30000000000000000000000000000000000000000000000000000000081526001600160a01b0382166004820152602401610e3c565b7f360894a13ba1a3210667c828492db98dca3e2076cc3735a920a3ca505d382bbc805473ffffffffffffffffffffffffffffffffffffffff19166001600160a01b0392909216919091179055565b60605f80846001600160a01b0316846040516151749190615c62565b5f60405180830381855af49150503d805f81146151ac576040519150601f19603f3d011682016040523d82523d5f602084013e6151b1565b606091505b50915091506151c1858383615202565b95945050505050565b34156110dd576040517fb398979f00000000000000000000000000000000000000000000000000000000815260040160405180910390fd5b6060826152175761521282615277565b61103a565b815115801561522e57506001600160a01b0384163b155b15615270576040517f9996b3150000000000000000000000000000000000000000000000000000000081526001600160a01b0385166004820152602401610e3c565b508061103a565b8051156152875780518082602001fd5b6040517f1425ea4200000000000000000000000000000000000000000000000000000000815260040160405180910390fd5b602081525f82518060208401528060208501604085015e5f604082850101526040601f19601f83011684010191505092915050565b5f815180845260208085019450602084015f5b8381101561531d57815187529582019590820190600101615301565b509495945050505050565b602081525f61103a60208301846152ee565b6001600160a01b038116811461328f575f80fd5b80356153598161533a565b919050565b5f806040838503121561536f575f80fd5b823561537a8161533a565b946020939093013593505050565b5f60208284031215615398575f80fd5b813561103a8161533a565b634e487b7160e01b5f52604160045260245ffd5b604051601f8201601f1916810167ffffffffffffffff811182821017156153e0576153e06153a3565b604052919050565b5f67ffffffffffffffff821115615401576154016153a3565b5060051b60200190565b5f82601f83011261541a575f80fd5b8135602061542f61542a836153e8565b6153b7565b8083825260208201915060208460051b870101935086841115615450575f80fd5b602086015b8481101561546c5780358352918301918301615455565b509695505050505050565b5f805f806080858703121561548a575f80fd5b843567ffffffffffffffff808211156154a1575f80fd5b818701915087601f8301126154b4575f80fd5b813560206154c461542a836153e8565b82815260059290921b8401810191818101908b8411156154e2575f80fd5b948201945b838610156155095785356154fa8161533a565b825294820194908201906154e7565b9850508801359250508082111561551e575f80fd5b5061552b8782880161540b565b935050604085013591506155416060860161534e565b905092959194509250565b5f805f6060848603121561555e575f80fd5b83356155698161533a565b925060208401356155798161533a565b929592945050506040919091013590565b828152604060208201525f614bc960408301846152ee565b5f67ffffffffffffffff8211156155bb576155bb6153a3565b50601f01601f191660200190565b5f80604083850312156155da575f80fd5b82356155e58161533a565b9150602083013567ffffffffffffffff811115615600575f80fd5b8301601f81018513615610575f80fd5b803561561e61542a826155a2565b818152866020838501011115615632575f80fd5b816020840160208301375f602083830101528093505050509250929050565b5f815180845260208085019450602084015f5b8381101561531d5781516001600160a01b031687529582019590820190600101615664565b602081525f61103a6020830184615651565b5f805f805f8060c087890312156156b0575f80fd5b86356156bb8161533a565b955060208701356156cb8161533a565b9450604087013593506060870135925060808701356156e98161533a565b8092505060a087013590509295509295509295565b5f805f60608486031215615710575f80fd5b833561571b8161533a565b9250602084013567ffffffffffffffff811115615736575f80fd5b6157428682870161540b565b925050604084013590509250925092565b604080825283519082018190525f906020906060840190828701845b8281101561578d57815115158452928401929084019060010161576f565b505050838103602085015261139c81866152ee565b5f602082840312156157b2575f80fd5b5035919050565b5f80604083850312156157ca575f80fd5b82356157d58161533a565b915060208301356157e58161533a565b809150509250929050565b5f805f60608486031215615802575f80fd5b8335925060208401356155798161533a565b600181811c9082168061582857607f821691505b602082108103610b4457634e487b7160e01b5f52602260045260245ffd5b634e487b7160e01b5f52603260045260245ffd5b5f6020828403121561586a575f80fd5b815161103a8161533a565b634e487b7160e01b5f52601160045260245ffd5b80820180821115610b5d57610b5d615875565b8082028115828204841417610b5d57610b5d615875565b5f826158cd57634e487b7160e01b5f52601260045260245ffd5b500490565b81810381811115610b5d57610b5d615875565b5f602082840312156158f5575f80fd5b5051919050565b5f6020828403121561590c575f80fd5b8151801515811461103a575f80fd5b5f6020828403121561592b575f80fd5b815160ff8116811461103a575f80fd5b600181815b8085111561597557815f190482111561595b5761595b615875565b8085161561596857918102915b93841c9390800290615940565b509250929050565b5f8261598b57506001610b5d565b8161599757505f610b5d565b81600181146159ad57600281146159b7576159d3565b6001915050610b5d565b60ff8411156159c8576159c8615875565b50506001821b610b5d565b5060208310610133831016604e8410600b84101617156159f6575081810a610b5d565b615a00838361593b565b805f1904821115615a1357615a13615875565b029392505050565b5f61103a838361597d565b5f60208284031215615a36575f80fd5b815167ffffffffffffffff811115615a4c575f80fd5b8201601f81018413615a5c575f80fd5b8051615a6a61542a826155a2565b818152856020838501011115615a7e575f80fd5b8160208401602083015e5f91810160200191909152949350505050565b5f81518060208401855e5f93019283525090919050565b5f615ac6615ac08386615a9b565b84615a9b565b7f2d000000000000000000000000000000000000000000000000000000000000008152600101949350505050565b60e081525f615b0660e083018a6152ee565b8281036020840152615b18818a615651565b90508281036040840152615b2c81896152ee565b606084019790975250506001600160a01b03938416608082015291831660a083015290911660c0909101529392505050565b601f82111561329f57805f5260205f20601f840160051c81016020851015615b835750805b601f840160051c820191505b81811015614963575f8155600101615b8f565b815167ffffffffffffffff811115615bbc57615bbc6153a3565b615bd081615bca8454615814565b84615b5e565b602080601f831160018114615c03575f8415615bec5750858301515b5f19600386901b1c1916600185901b178555615c5a565b5f85815260208120601f198616915b82811015615c3157888601518255948401946001909101908401615c12565b5085821015615c4e57878501515f19600388901b60f8161c191681555b505060018460011b0185555b505050505050565b5f61103a8284615a9b56fea2646970667358221220f1cc05fce0a8a5c1f816de187caf67d3941b885a3f65fecbdba43a901336ad4664736f6c63430008190033",
  "linkReferences": {},
  "deployedLinkReferences": {}
}