{
  "_format": "hh-sol-artifact-1",
  "contractName": "BaluniV1Pool",
  "sourceName": "contracts/pools/BaluniV1Pool.sol",
  "abi": [
    {
      "inputs": [
        {
          "internalType": "address",
          "name": "target",
          "type": "address"
        }
      ],
      "name": "AddressEmptyCode",
      "type": "error"
    },
    {
      "inputs": [
        {
          "internalType": "address",
          "name": "implementation",
          "type": "address"
        }
      ],
      "name": "ERC1967InvalidImplementation",
      "type": "error"
    },
    {
      "inputs": [],
      "name": "ERC1967NonPayable",
      "type": "error"
    },
    {
      "inputs": [
        {
          "internalType": "address",
          "name": "spender",
          "type": "address"
        },
        {
          "internalType": "uint256",
          "name": "allowance",
          "type": "uint256"
        },
        {
          "internalType": "uint256",
          "name": "needed",
          "type": "uint256"
        }
      ],
      "name": "ERC20InsufficientAllowance",
      "type": "error"
    },
    {
      "inputs": [
        {
          "internalType": "address",
          "name": "sender",
          "type": "address"
        },
        {
          "internalType": "uint256",
          "name": "balance",
          "type": "uint256"
        },
        {
          "internalType": "uint256",
          "name": "needed",
          "type": "uint256"
        }
      ],
      "name": "ERC20InsufficientBalance",
      "type": "error"
    },
    {
      "inputs": [
        {
          "internalType": "address",
          "name": "approver",
          "type": "address"
        }
      ],
      "name": "ERC20InvalidApprover",
      "type": "error"
    },
    {
      "inputs": [
        {
          "internalType": "address",
          "name": "receiver",
          "type": "address"
        }
      ],
      "name": "ERC20InvalidReceiver",
      "type": "error"
    },
    {
      "inputs": [
        {
          "internalType": "address",
          "name": "sender",
          "type": "address"
        }
      ],
      "name": "ERC20InvalidSender",
      "type": "error"
    },
    {
      "inputs": [
        {
          "internalType": "address",
          "name": "spender",
          "type": "address"
        }
      ],
      "name": "ERC20InvalidSpender",
      "type": "error"
    },
    {
      "inputs": [],
      "name": "EnforcedPause",
      "type": "error"
    },
    {
      "inputs": [],
      "name": "ExpectedPause",
      "type": "error"
    },
    {
      "inputs": [],
      "name": "FailedInnerCall",
      "type": "error"
    },
    {
      "inputs": [],
      "name": "InvalidInitialization",
      "type": "error"
    },
    {
      "inputs": [],
      "name": "NotInitializing",
      "type": "error"
    },
    {
      "inputs": [
        {
          "internalType": "address",
          "name": "owner",
          "type": "address"
        }
      ],
      "name": "OwnableInvalidOwner",
      "type": "error"
    },
    {
      "inputs": [
        {
          "internalType": "address",
          "name": "account",
          "type": "address"
        }
      ],
      "name": "OwnableUnauthorizedAccount",
      "type": "error"
    },
    {
      "inputs": [],
      "name": "ReentrancyGuardReentrantCall",
      "type": "error"
    },
    {
      "inputs": [],
      "name": "UUPSUnauthorizedCallContext",
      "type": "error"
    },
    {
      "inputs": [
        {
          "internalType": "bytes32",
          "name": "slot",
          "type": "bytes32"
        }
      ],
      "name": "UUPSUnsupportedProxiableUUID",
      "type": "error"
    },
    {
      "anonymous": false,
      "inputs": [
        {
          "indexed": true,
          "internalType": "address",
          "name": "owner",
          "type": "address"
        },
        {
          "indexed": true,
          "internalType": "address",
          "name": "spender",
          "type": "address"
        },
        {
          "indexed": false,
          "internalType": "uint256",
          "name": "value",
          "type": "uint256"
        }
      ],
      "name": "Approval",
      "type": "event"
    },
    {
      "anonymous": false,
      "inputs": [
        {
          "indexed": true,
          "internalType": "address",
          "name": "user",
          "type": "address"
        },
        {
          "indexed": false,
          "internalType": "uint256",
          "name": "amount",
          "type": "uint256"
        }
      ],
      "name": "Deposit",
      "type": "event"
    },
    {
      "anonymous": false,
      "inputs": [
        {
          "indexed": false,
          "internalType": "uint64",
          "name": "version",
          "type": "uint64"
        }
      ],
      "name": "Initialized",
      "type": "event"
    },
    {
      "anonymous": false,
      "inputs": [
        {
          "indexed": true,
          "internalType": "address",
          "name": "previousOwner",
          "type": "address"
        },
        {
          "indexed": true,
          "internalType": "address",
          "name": "newOwner",
          "type": "address"
        }
      ],
      "name": "OwnershipTransferred",
      "type": "event"
    },
    {
      "anonymous": false,
      "inputs": [
        {
          "indexed": false,
          "internalType": "address",
          "name": "account",
          "type": "address"
        }
      ],
      "name": "Paused",
      "type": "event"
    },
    {
      "anonymous": false,
      "inputs": [
        {
          "indexed": true,
          "internalType": "address",
          "name": "user",
          "type": "address"
        },
        {
          "indexed": false,
          "internalType": "address[]",
          "name": "assets",
          "type": "address[]"
        }
      ],
      "name": "RebalancePerformed",
      "type": "event"
    },
    {
      "anonymous": false,
      "inputs": [
        {
          "indexed": true,
          "internalType": "address",
          "name": "user",
          "type": "address"
        },
        {
          "indexed": false,
          "internalType": "address",
          "name": "fromToken",
          "type": "address"
        },
        {
          "indexed": false,
          "internalType": "address",
          "name": "toToken",
          "type": "address"
        },
        {
          "indexed": false,
          "internalType": "uint256",
          "name": "amountIn",
          "type": "uint256"
        },
        {
          "indexed": false,
          "internalType": "uint256",
          "name": "amountOut",
          "type": "uint256"
        }
      ],
      "name": "Swap",
      "type": "event"
    },
    {
      "anonymous": false,
      "inputs": [
        {
          "indexed": true,
          "internalType": "address",
          "name": "from",
          "type": "address"
        },
        {
          "indexed": true,
          "internalType": "address",
          "name": "to",
          "type": "address"
        },
        {
          "indexed": false,
          "internalType": "uint256",
          "name": "value",
          "type": "uint256"
        }
      ],
      "name": "Transfer",
      "type": "event"
    },
    {
      "anonymous": false,
      "inputs": [
        {
          "indexed": false,
          "internalType": "address",
          "name": "account",
          "type": "address"
        }
      ],
      "name": "Unpaused",
      "type": "event"
    },
    {
      "anonymous": false,
      "inputs": [
        {
          "indexed": true,
          "internalType": "address",
          "name": "implementation",
          "type": "address"
        }
      ],
      "name": "Upgraded",
      "type": "event"
    },
    {
      "anonymous": false,
      "inputs": [
        {
          "indexed": true,
          "internalType": "address",
          "name": "user",
          "type": "address"
        },
        {
          "indexed": false,
          "internalType": "uint256[]",
          "name": "amountsToAdd",
          "type": "uint256[]"
        }
      ],
      "name": "WeightsRebalanced",
      "type": "event"
    },
    {
      "anonymous": false,
      "inputs": [
        {
          "indexed": true,
          "internalType": "address",
          "name": "user",
          "type": "address"
        },
        {
          "indexed": false,
          "internalType": "uint256",
          "name": "amount",
          "type": "uint256"
        }
      ],
      "name": "Withdraw",
      "type": "event"
    },
    {
      "inputs": [],
      "name": "ONE",
      "outputs": [
        {
          "internalType": "uint256",
          "name": "",
          "type": "uint256"
        }
      ],
      "stateMutability": "view",
      "type": "function"
    },
    {
      "inputs": [],
      "name": "UPGRADE_INTERFACE_VERSION",
      "outputs": [
        {
          "internalType": "string",
          "name": "",
          "type": "string"
        }
      ],
      "stateMutability": "view",
      "type": "function"
    },
    {
      "inputs": [
        {
          "internalType": "address",
          "name": "owner",
          "type": "address"
        },
        {
          "internalType": "address",
          "name": "spender",
          "type": "address"
        }
      ],
      "name": "allowance",
      "outputs": [
        {
          "internalType": "uint256",
          "name": "",
          "type": "uint256"
        }
      ],
      "stateMutability": "view",
      "type": "function"
    },
    {
      "inputs": [
        {
          "internalType": "address",
          "name": "spender",
          "type": "address"
        },
        {
          "internalType": "uint256",
          "name": "value",
          "type": "uint256"
        }
      ],
      "name": "approve",
      "outputs": [
        {
          "internalType": "bool",
          "name": "",
          "type": "bool"
        }
      ],
      "stateMutability": "nonpayable",
      "type": "function"
    },
    {
      "inputs": [
        {
          "internalType": "uint256",
          "name": "",
          "type": "uint256"
        }
      ],
      "name": "assetInfos",
      "outputs": [
        {
          "internalType": "address",
          "name": "asset",
          "type": "address"
        },
        {
          "internalType": "uint256",
          "name": "weight",
          "type": "uint256"
        },
        {
          "internalType": "uint256",
          "name": "slippage",
          "type": "uint256"
        },
        {
          "internalType": "uint256",
          "name": "reserve",
          "type": "uint256"
        }
      ],
      "stateMutability": "view",
      "type": "function"
    },
    {
      "inputs": [
        {
          "internalType": "uint256",
          "name": "assetIndex",
          "type": "uint256"
        }
      ],
      "name": "assetLiquidity",
      "outputs": [
        {
          "internalType": "uint256",
          "name": "",
          "type": "uint256"
        }
      ],
      "stateMutability": "view",
      "type": "function"
    },
    {
      "inputs": [
        {
          "internalType": "address",
          "name": "account",
          "type": "address"
        }
      ],
      "name": "balanceOf",
      "outputs": [
        {
          "internalType": "uint256",
          "name": "",
          "type": "uint256"
        }
      ],
      "stateMutability": "view",
      "type": "function"
    },
    {
      "inputs": [],
      "name": "baseAsset",
      "outputs": [
        {
          "internalType": "address",
          "name": "",
          "type": "address"
        }
      ],
      "stateMutability": "view",
      "type": "function"
    },
    {
      "inputs": [
        {
          "internalType": "uint256",
          "name": "share",
          "type": "uint256"
        }
      ],
      "name": "calculateAssetShare",
      "outputs": [
        {
          "internalType": "uint256[]",
          "name": "",
          "type": "uint256[]"
        }
      ],
      "stateMutability": "view",
      "type": "function"
    },
    {
      "inputs": [],
      "name": "decimals",
      "outputs": [
        {
          "internalType": "uint8",
          "name": "",
          "type": "uint8"
        }
      ],
      "stateMutability": "view",
      "type": "function"
    },
    {
      "inputs": [
        {
          "internalType": "address",
          "name": "to",
          "type": "address"
        },
        {
          "internalType": "uint256[]",
          "name": "amounts",
          "type": "uint256[]"
        },
        {
          "internalType": "uint256",
          "name": "deadline",
          "type": "uint256"
        }
      ],
      "name": "deposit",
      "outputs": [
        {
          "internalType": "uint256",
          "name": "",
          "type": "uint256"
        }
      ],
      "stateMutability": "nonpayable",
      "type": "function"
    },
    {
      "inputs": [
        {
          "internalType": "address",
          "name": "fromToken",
          "type": "address"
        },
        {
          "internalType": "address",
          "name": "toToken",
          "type": "address"
        },
        {
          "internalType": "uint256",
          "name": "amount",
          "type": "uint256"
        }
      ],
      "name": "getAmountOut",
      "outputs": [
        {
          "internalType": "uint256",
          "name": "",
          "type": "uint256"
        }
      ],
      "stateMutability": "view",
      "type": "function"
    },
    {
      "inputs": [
        {
          "internalType": "address",
          "name": "asset",
          "type": "address"
        }
      ],
      "name": "getAssetReserve",
      "outputs": [
        {
          "internalType": "uint256",
          "name": "",
          "type": "uint256"
        }
      ],
      "stateMutability": "view",
      "type": "function"
    },
    {
      "inputs": [],
      "name": "getAssets",
      "outputs": [
        {
          "internalType": "address[]",
          "name": "",
          "type": "address[]"
        }
      ],
      "stateMutability": "view",
      "type": "function"
    },
    {
      "inputs": [
        {
          "internalType": "address",
          "name": "token",
          "type": "address"
        }
      ],
      "name": "getDeviationForToken",
      "outputs": [
        {
          "internalType": "uint256",
          "name": "",
          "type": "uint256"
        }
      ],
      "stateMutability": "view",
      "type": "function"
    },
    {
      "inputs": [],
      "name": "getDeviations",
      "outputs": [
        {
          "internalType": "bool[]",
          "name": "directions",
          "type": "bool[]"
        },
        {
          "internalType": "uint256[]",
          "name": "deviations",
          "type": "uint256[]"
        }
      ],
      "stateMutability": "view",
      "type": "function"
    },
    {
      "inputs": [],
      "name": "getReserves",
      "outputs": [
        {
          "internalType": "uint256[]",
          "name": "",
          "type": "uint256[]"
        }
      ],
      "stateMutability": "view",
      "type": "function"
    },
    {
      "inputs": [
        {
          "internalType": "address",
          "name": "token",
          "type": "address"
        }
      ],
      "name": "getSlippage",
      "outputs": [
        {
          "internalType": "uint256",
          "name": "",
          "type": "uint256"
        }
      ],
      "stateMutability": "view",
      "type": "function"
    },
    {
      "inputs": [],
      "name": "getSlippageParams",
      "outputs": [
        {
          "internalType": "uint256[]",
          "name": "",
          "type": "uint256[]"
        }
      ],
      "stateMutability": "view",
      "type": "function"
    },
    {
      "inputs": [
        {
          "internalType": "address",
          "name": "token",
          "type": "address"
        }
      ],
      "name": "getTokenWeight",
      "outputs": [
        {
          "internalType": "uint256",
          "name": "",
          "type": "uint256"
        }
      ],
      "stateMutability": "view",
      "type": "function"
    },
    {
      "inputs": [],
      "name": "getWeights",
      "outputs": [
        {
          "internalType": "uint256[]",
          "name": "",
          "type": "uint256[]"
        }
      ],
      "stateMutability": "view",
      "type": "function"
    },
    {
      "inputs": [
        {
          "internalType": "address[]",
          "name": "_assets",
          "type": "address[]"
        },
        {
          "internalType": "uint256[]",
          "name": "_weights",
          "type": "uint256[]"
        },
        {
          "internalType": "uint256",
          "name": "_trigger",
          "type": "uint256"
        },
        {
          "internalType": "address",
          "name": "_registry",
          "type": "address"
        }
      ],
      "name": "initialize",
      "outputs": [],
      "stateMutability": "nonpayable",
      "type": "function"
    },
    {
      "inputs": [],
      "name": "isRebalanceNeeded",
      "outputs": [
        {
          "internalType": "bool",
          "name": "",
          "type": "bool"
        }
      ],
      "stateMutability": "view",
      "type": "function"
    },
    {
      "inputs": [],
      "name": "k",
      "outputs": [
        {
          "internalType": "uint256",
          "name": "",
          "type": "uint256"
        }
      ],
      "stateMutability": "view",
      "type": "function"
    },
    {
      "inputs": [],
      "name": "liquidity",
      "outputs": [
        {
          "internalType": "uint256",
          "name": "",
          "type": "uint256"
        }
      ],
      "stateMutability": "view",
      "type": "function"
    },
    {
      "inputs": [],
      "name": "n",
      "outputs": [
        {
          "internalType": "uint256",
          "name": "",
          "type": "uint256"
        }
      ],
      "stateMutability": "view",
      "type": "function"
    },
    {
      "inputs": [],
      "name": "name",
      "outputs": [
        {
          "internalType": "string",
          "name": "",
          "type": "string"
        }
      ],
      "stateMutability": "view",
      "type": "function"
    },
    {
      "inputs": [],
      "name": "owner",
      "outputs": [
        {
          "internalType": "address",
          "name": "",
          "type": "address"
        }
      ],
      "stateMutability": "view",
      "type": "function"
    },
    {
      "inputs": [],
      "name": "pause",
      "outputs": [],
      "stateMutability": "nonpayable",
      "type": "function"
    },
    {
      "inputs": [],
      "name": "paused",
      "outputs": [
        {
          "internalType": "bool",
          "name": "",
          "type": "bool"
        }
      ],
      "stateMutability": "view",
      "type": "function"
    },
    {
      "inputs": [],
      "name": "proxiableUUID",
      "outputs": [
        {
          "internalType": "bytes32",
          "name": "",
          "type": "bytes32"
        }
      ],
      "stateMutability": "view",
      "type": "function"
    },
    {
      "inputs": [
        {
          "internalType": "address",
          "name": "fromToken",
          "type": "address"
        },
        {
          "internalType": "address",
          "name": "toToken",
          "type": "address"
        },
        {
          "internalType": "uint256",
          "name": "amount",
          "type": "uint256"
        }
      ],
      "name": "quotePotentialSwap",
      "outputs": [
        {
          "internalType": "uint256",
          "name": "",
          "type": "uint256"
        }
      ],
      "stateMutability": "view",
      "type": "function"
    },
    {
      "inputs": [],
      "name": "rebalance",
      "outputs": [],
      "stateMutability": "nonpayable",
      "type": "function"
    },
    {
      "inputs": [
        {
          "internalType": "address",
          "name": "receiver",
          "type": "address"
        }
      ],
      "name": "rebalanceAndDeposit",
      "outputs": [
        {
          "internalType": "uint256[]",
          "name": "",
          "type": "uint256[]"
        }
      ],
      "stateMutability": "nonpayable",
      "type": "function"
    },
    {
      "inputs": [],
      "name": "registry",
      "outputs": [
        {
          "internalType": "contract IBaluniV1Registry",
          "name": "",
          "type": "address"
        }
      ],
      "stateMutability": "view",
      "type": "function"
    },
    {
      "inputs": [],
      "name": "renounceOwnership",
      "outputs": [],
      "stateMutability": "nonpayable",
      "type": "function"
    },
    {
      "inputs": [
        {
          "internalType": "address",
          "name": "",
          "type": "address"
        }
      ],
      "name": "reserves",
      "outputs": [
        {
          "internalType": "uint256",
          "name": "",
          "type": "uint256"
        }
      ],
      "stateMutability": "view",
      "type": "function"
    },
    {
      "inputs": [
        {
          "internalType": "address",
          "name": "fromToken",
          "type": "address"
        },
        {
          "internalType": "address",
          "name": "toToken",
          "type": "address"
        },
        {
          "internalType": "uint256",
          "name": "amount",
          "type": "uint256"
        },
        {
          "internalType": "uint256",
          "name": "minAmount",
          "type": "uint256"
        },
        {
          "internalType": "address",
          "name": "receiver",
          "type": "address"
        },
        {
          "internalType": "uint256",
          "name": "deadline",
          "type": "uint256"
        }
      ],
      "name": "swap",
      "outputs": [
        {
          "internalType": "uint256",
          "name": "amountOut",
          "type": "uint256"
        },
        {
          "internalType": "uint256",
          "name": "fee",
          "type": "uint256"
        }
      ],
      "stateMutability": "nonpayable",
      "type": "function"
    },
    {
      "inputs": [],
      "name": "symbol",
      "outputs": [
        {
          "internalType": "string",
          "name": "",
          "type": "string"
        }
      ],
      "stateMutability": "view",
      "type": "function"
    },
    {
      "inputs": [],
      "name": "totalSupply",
      "outputs": [
        {
          "internalType": "uint256",
          "name": "",
          "type": "uint256"
        }
      ],
      "stateMutability": "view",
      "type": "function"
    },
    {
      "inputs": [],
      "name": "totalValuation",
      "outputs": [
        {
          "internalType": "uint256",
          "name": "totalVal",
          "type": "uint256"
        },
        {
          "internalType": "uint256[]",
          "name": "valuations",
          "type": "uint256[]"
        }
      ],
      "stateMutability": "view",
      "type": "function"
    },
    {
      "inputs": [
        {
          "internalType": "address",
          "name": "to",
          "type": "address"
        },
        {
          "internalType": "uint256",
          "name": "value",
          "type": "uint256"
        }
      ],
      "name": "transfer",
      "outputs": [
        {
          "internalType": "bool",
          "name": "",
          "type": "bool"
        }
      ],
      "stateMutability": "nonpayable",
      "type": "function"
    },
    {
      "inputs": [
        {
          "internalType": "address",
          "name": "from",
          "type": "address"
        },
        {
          "internalType": "address",
          "name": "to",
          "type": "address"
        },
        {
          "internalType": "uint256",
          "name": "value",
          "type": "uint256"
        }
      ],
      "name": "transferFrom",
      "outputs": [
        {
          "internalType": "bool",
          "name": "",
          "type": "bool"
        }
      ],
      "stateMutability": "nonpayable",
      "type": "function"
    },
    {
      "inputs": [
        {
          "internalType": "address",
          "name": "newOwner",
          "type": "address"
        }
      ],
      "name": "transferOwnership",
      "outputs": [],
      "stateMutability": "nonpayable",
      "type": "function"
    },
    {
      "inputs": [],
      "name": "trigger",
      "outputs": [
        {
          "internalType": "uint256",
          "name": "",
          "type": "uint256"
        }
      ],
      "stateMutability": "view",
      "type": "function"
    },
    {
      "inputs": [],
      "name": "unitPrice",
      "outputs": [
        {
          "internalType": "uint256",
          "name": "",
          "type": "uint256"
        }
      ],
      "stateMutability": "view",
      "type": "function"
    },
    {
      "inputs": [],
      "name": "unpause",
      "outputs": [],
      "stateMutability": "nonpayable",
      "type": "function"
    },
    {
      "inputs": [
        {
          "internalType": "address",
          "name": "newImplementation",
          "type": "address"
        },
        {
          "internalType": "bytes",
          "name": "data",
          "type": "bytes"
        }
      ],
      "name": "upgradeToAndCall",
      "outputs": [],
      "stateMutability": "payable",
      "type": "function"
    },
    {
      "inputs": [
        {
          "internalType": "uint256",
          "name": "share",
          "type": "uint256"
        },
        {
          "internalType": "address",
          "name": "to",
          "type": "address"
        },
        {
          "internalType": "uint256",
          "name": "deadline",
          "type": "uint256"
        }
      ],
      "name": "withdraw",
      "outputs": [
        {
          "internalType": "uint256",
          "name": "",
          "type": "uint256"
        }
      ],
      "stateMutability": "nonpayable",
      "type": "function"
    }
  ],
  "bytecode": "0x60a0604052306080523480156012575f80fd5b50608051615c8b6100395f395f8181613c8b01528181613cb40152613e640152615c8b5ff3fe60806040526004361061030e575f3560e01c80637fec8d381161019c578063b3bf9d32116100e7578063d14ef46d11610092578063e63697c81161006d578063e63697c814610963578063e64ebdd214610982578063e73faa2d146109a1578063f2fde38b146109b5575f80fd5b8063d14ef46d1461088c578063d66bd524146108d5578063dd62ed3e14610900575f80fd5b8063c2ee3a08116100c2578063c2ee3a0814610839578063cdf456e11461084e578063cf8fa7641461086d575f80fd5b8063b3bf9d32146107df578063b4f40c61146107fe578063b7110e1314610817575f80fd5b80638de30f3011610147578063a9059cbb11610122578063a9059cbb14610759578063ad3cb1cc14610778578063b2b55d70146107c0575f80fd5b80638de30f30146106f257806395d89b41146107115780639908fc8b14610725575f80fd5b806389b3179b1161017757806389b3179b146106835780638a77c8dc146106a25780638da5cb5b146106b6575f80fd5b80637fec8d38146106465780637ff1c1791461065b5780638456cb591461066f575f80fd5b8063313ce5671161025c5780635c975abb11610207578063715018a6116101e2578063715018a6146105e75780637b103999146105fb5780637d7c2a1c14610632575f80fd5b80635c975abb1461053d57806367e4ac2c1461057357806370a0823114610594575f80fd5b80634aa06652116102375780634aa06652146104f75780634f1ef2861461051657806352d1902d14610529575f80fd5b8063313ce567146104a95780633f4ba83a146104c457806343c2e2f5146104d8575f80fd5b8063228835ac116102bc578063250aa68311610297578063250aa68314610454578063295b9300146104735780632e52d60614610495575f80fd5b8063228835ac1461040057806322acb8671461042157806323b872dd14610435575f80fd5b806312899068116102ec578063128990681461038c57806318160ddd146103b95780631a686502146103ec575f80fd5b806306fdde03146103125780630902f1ac1461033c578063095ea7b31461035d575b5f80fd5b34801561031d575f80fd5b506103266109d4565b60405161033391906152a1565b60405180910390f35b348015610347575f80fd5b50610350610aa7565b6040516103339190615310565b348015610368575f80fd5b5061037c610377366004615346565b610b4a565b6040519015158152602001610333565b348015610397575f80fd5b506103ab6103a6366004615370565b610b63565b604051908152602001610333565b3480156103c4575f80fd5b507f52c63247e1f47db19d5ce0460030c497f067ca4cebf71ba98eeadabe20bace02546103ab565b3480156103f7575f80fd5b506103ab610be3565b34801561040b575f80fd5b5061041f61041a36600461545f565b610bf4565b005b34801561042c575f80fd5b50610350610f7f565b348015610440575f80fd5b5061037c61044f366004615534565b61101c565b34801561045f575f80fd5b506103ab61046e366004615370565b611041565b34801561047e575f80fd5b506104876110b9565b604051610333929190615572565b3480156104a0575f80fd5b506103ab600781565b3480156104b4575f80fd5b5060405160128152602001610333565b3480156104cf575f80fd5b5061041f6110cd565b3480156104e3575f80fd5b506103ab6104f2366004615534565b6110df565b348015610502575f80fd5b506103ab610511366004615534565b6111bd565b61041f6105243660046155b1565b6113a6565b348015610534575f80fd5b506103ab6113c5565b348015610548575f80fd5b507fcd5ed15c6e187e77e9aee88184c21f4f2182ab5827cb3b7e07fbedcd63f033005460ff1661037c565b34801561057e575f80fd5b506105876113f3565b6040516103339190615671565b34801561059f575f80fd5b506103ab6105ae366004615370565b6001600160a01b03165f9081527f52c63247e1f47db19d5ce0460030c497f067ca4cebf71ba98eeadabe20bace00602052604090205490565b3480156105f2575f80fd5b5061041f6114ab565b348015610606575f80fd5b5060055461061a906001600160a01b031681565b6040516001600160a01b039091168152602001610333565b34801561063d575f80fd5b5061041f6114bc565b348015610651575f80fd5b506103ab60015481565b348015610666575f80fd5b50610350611518565b34801561067a575f80fd5b5061041f6115b5565b34801561068e575f80fd5b506103ab61069d366004615370565b6115c5565b3480156106ad575f80fd5b5061037c61164b565b3480156106c1575f80fd5b507f9016d09d72d40fdae2fd8ceac6b6234c7706214fd39c1cd1e609a0528c199300546001600160a01b031661061a565b3480156106fd575f80fd5b5061035061070c366004615370565b6116c5565b34801561071c575f80fd5b50610326611965565b348015610730575f80fd5b5061074461073f366004615683565b6119b6565b60408051928352602083019190915201610333565b348015610764575f80fd5b5061037c610773366004615346565b611f2d565b348015610783575f80fd5b506103266040518060400160405280600581526020017f352e302e3000000000000000000000000000000000000000000000000000000081525081565b3480156107cb575f80fd5b506103ab6107da366004615370565b611f3a565b3480156107ea575f80fd5b506103ab6107f93660046156e6565b611fad565b348015610809575f80fd5b506103ab6512309ce5400081565b348015610822575f80fd5b5061082b6124d2565b60405161033392919061573b565b348015610844575f80fd5b506103ab60025481565b348015610859575f80fd5b5060035461061a906001600160a01b031681565b348015610878575f80fd5b506103ab61088736600461578a565b61268b565b348015610897575f80fd5b506108ab6108a636600461578a565b61270a565b604080516001600160a01b0390951685526020850193909352918301526060820152608001610333565b3480156108e0575f80fd5b506103ab6108ef366004615370565b60066020525f908152604090205481565b34801561090b575f80fd5b506103ab61091a3660046157a1565b6001600160a01b039182165f9081527f52c63247e1f47db19d5ce0460030c497f067ca4cebf71ba98eeadabe20bace016020908152604080832093909416825291909152205490565b34801561096e575f80fd5b506103ab61097d3660046157d8565b61274b565b34801561098d575f80fd5b5061035061099c36600461578a565b61301e565b3480156109ac575f80fd5b506103ab61311d565b3480156109c0575f80fd5b5061041f6109cf366004615370565b613224565b7f52c63247e1f47db19d5ce0460030c497f067ca4cebf71ba98eeadabe20bace0380546060917f52c63247e1f47db19d5ce0460030c497f067ca4cebf71ba98eeadabe20bace0091610a25906157fc565b80601f0160208091040260200160405190810160405280929190818152602001828054610a51906157fc565b8015610a9c5780601f10610a7357610100808354040283529160200191610a9c565b820191905f5260205f20905b815481529060010190602001808311610a7f57829003601f168201915b505050505091505090565b5f80546060919067ffffffffffffffff811115610ac657610ac661538b565b604051908082528060200260200182016040528015610aef578160200160208202803683370190505b5090505f5b5f54811015610b44575f8181548110610b0f57610b0f61582e565b905f5260205f20906004020160030154828281518110610b3157610b3161582e565b6020908102919091010152600101610af4565b50919050565b5f33610b5781858561327a565b60019150505b92915050565b5f805b5f54811015610bdb57826001600160a01b03165f8281548110610b8b57610b8b61582e565b5f9182526020909120600490910201546001600160a01b031603610bd3575f8181548110610bbb57610bbb61582e565b905f5260205f20906004020160020154915050919050565b600101610b66565b505f92915050565b5f80610bed61328c565b5092915050565b7ff0c57e16840df040f15088dc2f81fe391c3923bec73e23a9662efc9c229c6a00805468010000000000000000810460ff16159067ffffffffffffffff165f81158015610c3e5750825b90505f8267ffffffffffffffff166001148015610c5a5750303b155b905081158015610c68575080155b15610c9f576040517ff92ee8a900000000000000000000000000000000000000000000000000000000815260040160405180910390fd5b84547fffffffffffffffffffffffffffffffffffffffffffffffff00000000000000001660011785558315610cea57845468ff00000000000000001916680100000000000000001785555b610cf3336133b9565b610d0d610cff8a6133ca565b610d088b6134b3565b61359c565b6005805473ffffffffffffffffffffffffffffffffffffffff19166001600160a01b038816908117909155670de0b6b3a76400006002556001889055604080517f1bf01e9b0000000000000000000000000000000000000000000000000000000081529051631bf01e9b916004818101926020929091908290030181865afa158015610d9b573d5f803e3d5ffd5b505050506040513d601f19601f82011682018060405250810190610dbf9190615842565b6003805473ffffffffffffffffffffffffffffffffffffffff19166001600160a01b0392909216918217905564e8d4a51000600455610e455760405162461bcd60e51b815260206004820152601a60248201527f496e76616c69642062617365206173736574206164647265737300000000000060448201526064015b60405180910390fd5b610e4f89896135ae565b610e9b5760405162461bcd60e51b815260206004820152601560248201527f496e697469616c697a6174696f6e206661696c656400000000000000000000006044820152606401610e3c565b5f805b8951811015610ed657898181518110610eb957610eb961582e565b602002602001015182610ecc9190615871565b9150600101610e9e565b508061271014610f285760405162461bcd60e51b815260206004820152600f60248201527f496e76616c6964207765696768747300000000000000000000000000000000006044820152606401610e3c565b508315610f7457845468ff000000000000000019168555604051600181527fc7f505b2f371ae2175ee4913f4499e1f2633a7b5936321eed1cdaeb6115181d29060200160405180910390a15b505050505050505050565b5f80546060919067ffffffffffffffff811115610f9e57610f9e61538b565b604051908082528060200260200182016040528015610fc7578160200160208202803683370190505b5090505f5b5f54811015610b44575f8181548110610fe757610fe761582e565b905f5260205f209060040201600101548282815181106110095761100961582e565b6020908102919091010152600101610fcc565b5f33611029858285613a58565b611034858585613b0b565b60019150505b9392505050565b5f805b5f54811015610bdb57826001600160a01b03165f82815481106110695761106961582e565b5f9182526020909120600490910201546001600160a01b0316036110b1575f81815481106110995761109961582e565b905f5260205f20906004020160010154915050919050565b600101611044565b5f60606110c461328c565b90939092509050565b6110d5613b9a565b6110dd613c0e565b565b5f806110ec8585856111bd565b90505f6110f886610b63565b90505f61110486610b63565b90505f61111088611041565b90505f61111c88611041565b90505f61271061112c8688615884565b611136919061589b565b90505f6127106111468689615884565b611150919061589b565b905061115b8b6115c5565b8411156111735761116c82886158ba565b9650611180565b61117d8288615871565b96505b6111898a6115c5565b8310156111a15761119a8188615871565b96506111ae565b6111ab81886158ba565b96505b50949998505050505050505050565b5f8060055f9054906101000a90046001600160a01b03166001600160a01b031663bb3ba04c6040518163ffffffff1660e01b8152600401602060405180830381865afa15801561120f573d5f803e3d5ffd5b505050506040513d601f19601f820116820180604052508101906112339190615842565b90505f6001600160a01b031660055f9054906101000a90046001600160a01b03166001600160a01b031663bb3ba04c6040518163ffffffff1660e01b8152600401602060405180830381865afa15801561128f573d5f803e3d5ffd5b505050506040513d601f19601f820116820180604052508101906112b39190615842565b6001600160a01b0316036113095760405162461bcd60e51b815260206004820152601660248201527f496e76616c6964206f7261636c652061646472657373000000000000000000006044820152606401610e3c565b6040517f248391ff0000000000000000000000000000000000000000000000000000000081526001600160a01b0386811660048301528581166024830152604482018590525f919083169063248391ff90606401602060405180830381865afa158015611378573d5f803e3d5ffd5b505050506040513d601f19601f8201168201806040525081019061139c91906158cd565b9695505050505050565b6113ae613c80565b6113b782613d50565b6113c18282613d58565b5050565b5f6113ce613e59565b507f360894a13ba1a3210667c828492db98dca3e2076cc3735a920a3ca505d382bbc90565b5f80546060919067ffffffffffffffff8111156114125761141261538b565b60405190808252806020026020018201604052801561143b578160200160208202803683370190505b5090505f5b5f54811015610b44575f818154811061145b5761145b61582e565b5f91825260209091206004909102015482516001600160a01b039091169083908390811061148b5761148b61582e565b6001600160a01b0390921660209283029190910190910152600101611440565b6114b3613b9a565b6110dd5f613ebb565b6114c461164b565b6115105760405162461bcd60e51b815260206004820152601460248201527f526562616c616e6365206e6f74206e65656465640000000000000000000000006044820152606401610e3c565b6110dd613f38565b5f80546060919067ffffffffffffffff8111156115375761153761538b565b604051908082528060200260200182016040528015611560578160200160208202803683370190505b5090505f5b5f54811015610b44575f81815481106115805761158061582e565b905f5260205f209060040201600201548282815181106115a2576115a261582e565b6020908102919091010152600101611565565b6115bd613b9a565b6110dd61434e565b5f806115cf6124d2565b9150505f5b5f5481101561164257836001600160a01b03165f82815481106115f9576115f961582e565b5f9182526020909120600490910201546001600160a01b03160361163a578181815181106116295761162961582e565b602002602001015192505050919050565b6001016115d4565b505f9392505050565b5f805f6116566124d2565b915091505f5b81518110156116bc578281815181106116775761167761582e565b602002602001015180156116a5575060015482828151811061169b5761169b61582e565b6020026020010151115b156116b4576001935050505090565b60010161165c565b505f9250505090565b60606116cf61164b565b61171b5760405162461bcd60e51b815260206004820152601460248201527f526562616c616e6365206e6f74206e65656465640000000000000000000000006044820152606401610e3c565b5f8061172561328c565b915091505f61173483836143a9565b5f80549192509067ffffffffffffffff8111156117535761175361538b565b60405190808252806020026020018201604052801561177c578160200160208202803683370190505b5090505f611789836144a8565b9050600454816117999190615884565b90505f5b83518110156118ff575f8482815181106117b9576117b961582e565b602002602001015111156118f7576117ea818583815181106117dd576117dd61582e565b60200260200101516144e3565b8382815181106117fc576117fc61582e565b6020026020010181815250505f818154811061181a5761181a61582e565b905f5260205f2090600402015f015f9054906101000a90046001600160a01b03166001600160a01b03166323b872dd333087858151811061185d5761185d61582e565b60209081029190910101516040517fffffffff0000000000000000000000000000000000000000000000000000000060e086901b1681526001600160a01b03938416600482015292909116602483015260448201526064016020604051808303815f875af11580156118d1573d5f803e3d5ffd5b505050506040513d601f19601f820116820180604052508101906118f591906158e4565b505b60010161179d565b5061190a87826145b2565b6119126145ff565b61191a614952565b336001600160a01b03167fa95ad530009c6f929555e70a66aadbeae7231e45756c5b028ca77fbaa376e73e846040516119539190615310565b60405180910390a25095945050505050565b7f52c63247e1f47db19d5ce0460030c497f067ca4cebf71ba98eeadabe20bace0480546060917f52c63247e1f47db19d5ce0460030c497f067ca4cebf71ba98eeadabe20bace0091610a25906157fc565b5f8082428110156119f35760405162461bcd60e51b81526020600482015260076024820152661156141254915160ca1b6044820152606401610e3c565b6119fb614a2c565b6001600160a01b03891615801590611a1b57506001600160a01b03881615155b611a675760405162461bcd60e51b815260206004820152601560248201527f496e76616c696420746f6b656e206164647265737300000000000000000000006044820152606401610e3c565b876001600160a01b0316896001600160a01b031603611ac85760405162461bcd60e51b815260206004820152601a60248201527f43616e6e6f742073776170207468652073616d6520746f6b656e0000000000006044820152606401610e3c565b5f8711611b175760405162461bcd60e51b815260206004820181905260248201527f416d6f756e74206d7573742062652067726561746572207468616e207a65726f6044820152606401610e3c565b6001600160a01b038516611b6d5760405162461bcd60e51b815260206004820152601860248201527f496e76616c6964207265636569766572206164647265737300000000000000006044820152606401610e3c565b6040517f23b872dd000000000000000000000000000000000000000000000000000000008152336004820152306024820152604481018890525f906001600160a01b038b16906323b872dd906064016020604051808303815f875af1158015611bd8573d5f803e3d5ffd5b505050506040513d601f19601f82011682018060405250810190611bfc91906158e4565b905080611c4b5760405162461bcd60e51b815260206004820152601560248201527f546f6b656e207472616e73666572206661696c656400000000000000000000006044820152606401610e3c565b5f611c578b8b8b6110df565b905080611c638b611f3a565b1015611cb15760405162461bcd60e51b815260206004820152601660248201527f496e73756666696369656e74204c6971756964697479000000000000000000006044820152606401610e3c565b611cba81614aad565b9350611cc684826158ba565b94505f8511611d3d5760405162461bcd60e51b815260206004820152602560248201527f416d6f756e7420746f2073656e64206d7573742062652067726561746572207460448201527f68616e20300000000000000000000000000000000000000000000000000000006064820152608401610e3c565b87851015611db35760405162461bcd60e51b815260206004820152602a60248201527f416d6f756e74206f7574206d7573742062652067726561746572207468616e2060448201527f6d696e20616d6f756e74000000000000000000000000000000000000000000006064820152608401610e3c565b6040517fa9059cbb0000000000000000000000000000000000000000000000000000000081526001600160a01b038881166004830152602482018790525f91908c169063a9059cbb906044016020604051808303815f875af1158015611e1b573d5f803e3d5ffd5b505050506040513d601f19601f82011682018060405250810190611e3f91906158e4565b905080611e8e5760405162461bcd60e51b815260206004820152601560248201527f546f6b656e207472616e73666572206661696c656400000000000000000000006044820152606401610e3c565b611e966145ff565b611e9e614952565b604080516001600160a01b038e811682528d811660208301529181018c905260608101889052908916907fcd3829a3813dc3cdd188fd3d01dcf3268c16be2fdd2dd21d0665418816e460629060800160405180910390a2505050611f2160017f9b779b17422d0df92223018b32b4d1fa46e071723d6817e2486d003becc55f0055565b50965096945050505050565b5f33610b57818585613b0b565b5f805b5f54811015610b44575f8181548110611f5857611f5861582e565b5f9182526020909120600490910201546001600160a01b0390811690841603611fa5575f8181548110611f8d57611f8d61582e565b905f5260205f20906004020160030154915050919050565b600101611f3d565b5f8142811015611fe95760405162461bcd60e51b81526020600482015260076024820152661156141254915160ca1b6044820152606401610e3c565b611ff1614a2c565b611ff9614bb9565b5f6120227f52c63247e1f47db19d5ce0460030c497f067ca4cebf71ba98eeadabe20bace025490565b90505f8061202e610aa7565b80515f54919250146120825760405162461bcd60e51b815260206004820152601760248201527f496e76616c6964207265736572766573206c656e6774680000000000000000006044820152606401610e3c565b5f546120d05760405162461bcd60e51b815260206004820152600960248201527f4e6f2061737365747300000000000000000000000000000000000000000000006044820152606401610e3c565b5f5b5f548110156122a9575f8082815481106120ee576120ee61582e565b5f91825260208220600490910201548a516001600160a01b03909116925082906323b872dd90339030908e908890811061212a5761212a61582e565b60209081029190910101516040517fffffffff0000000000000000000000000000000000000000000000000000000060e086901b1681526001600160a01b03938416600482015292909116602483015260448201526064016020604051808303815f875af115801561219e573d5f803e3d5ffd5b505050506040513d601f19601f820116820180604052508101906121c291906158e4565b9050806122375760405162461bcd60e51b815260206004820152602260248201527f42616c756e695631506f6f6c3a205472616e736665722066726f6d206661696c60448201527f65640000000000000000000000000000000000000000000000000000000000006064820152608401610e3c565b6003545f906001600160a01b039081169084160361226c578a84815181106122615761226161582e565b506122a19350505050565b61228f838c86815181106122825761228261582e565b6020026020010151614c15565b905061229b8187615871565b95505050505b6001016120d2565b505f821161231f5760405162461bcd60e51b815260206004820152602260248201527f546f74616c2076616c7565206d7573742062652067726561746572207468616e60448201527f20300000000000000000000000000000000000000000000000000000000000006064820152608401610e3c565b5f835f0361233b576004546123349084615884565b90506123f0565b5f61234461328c565b5090505f81116123bc5760405162461bcd60e51b815260206004820152602660248201527f546f74616c206c6971756964697479206d75737420626520677265617465722060448201527f7468616e203000000000000000000000000000000000000000000000000000006064820152608401610e3c565b6004546123c99082615884565b85600454866123d89190615884565b6123e29190615884565b6123ec919061589b565b9150505b805f0361243f5760405162461bcd60e51b815260206004820152600d60248201527f4d696e74207174792069732030000000000000000000000000000000000000006044820152606401610e3c565b61244989826145b2565b6124516145ff565b612459614952565b886001600160a01b03167fe1fffcc4923d04b559f4d29a8bfc6cda04eb5b0d3c460751c2402c5c5cc9109c8260405161249491815260200190565b60405180910390a294505050506124ca60017f9b779b17422d0df92223018b32b4d1fa46e071723d6817e2486d003becc55f0055565b509392505050565b6060805f806124df61328c565b5f5491935091508067ffffffffffffffff8111156124ff576124ff61538b565b604051908082528060200260200182016040528015612528578160200160208202803683370190505b5094508067ffffffffffffffff8111156125445761254461538b565b60405190808252806020026020018201604052801561256d578160200160208202803683370190505b5093505f5b81811015612683575f8484838151811061258e5761258e61582e565b60200260200101516127106125a39190615884565b6125ad919061589b565b90505f8083815481106125c2576125c261582e565b905f5260205f2090600402016001015490508082111561262d576125e681836158ba565b8784815181106125f8576125f861582e565b60200260200101818152505060018884815181106126185761261861582e565b91151560209283029190910190910152612679565b61263782826158ba565b8784815181106126495761264961582e565b6020026020010181815250505f8884815181106126685761266861582e565b911515602092830291909101909101525b5050600101612572565b505050509091565b5f8061269561328c565b915050805183106126e85760405162461bcd60e51b815260206004820152601360248201527f496e76616c696420617373657420696e646578000000000000000000000000006044820152606401610e3c565b8083815181106126fa576126fa61582e565b6020026020010151915050919050565b5f8181548110612718575f80fd5b5f91825260209091206004909102018054600182015460028301546003909301546001600160a01b039092169350919084565b5f81428110156127875760405162461bcd60e51b81526020600482015260076024820152661156141254915160ca1b6044820152606401610e3c565b61278f614a2c565b612797614bb9565b6001600160a01b0384166127ed5760405162461bcd60e51b815260206004820152600f60248201527f496e76616c6964206164647265737300000000000000000000000000000000006044820152606401610e3c565b5f851161283c5760405162461bcd60e51b815260206004820152601c60248201527f5368617265206d7573742062652067726561746572207468616e2030000000006044820152606401610e3c565b604051636eb1769f60e11b815233600482015230602482018190525f9163dd62ed3e90604401602060405180830381865afa15801561287d573d5f803e3d5ffd5b505050506040513d601f19601f820116820180604052508101906128a191906158cd565b9050858110156129185760405162461bcd60e51b8152602060048201526024808201527f42616c756e695631506f6f6c3a20496e73756666696369656e7420416c6c6f7760448201527f616e6365000000000000000000000000000000000000000000000000000000006064820152608401610e3c565b6040517f23b872dd0000000000000000000000000000000000000000000000000000000081523360048201523060248201819052604482018890525f916323b872dd906064016020604051808303815f875af115801561297a573d5f803e3d5ffd5b505050506040513d601f19601f8201168201806040525081019061299e91906158e4565b9050806129ed5760405162461bcd60e51b815260206004820152601460248201527f5472616e736665722046726f6d204661696c65640000000000000000000000006044820152606401610e3c565b5f612a167f52c63247e1f47db19d5ce0460030c497f067ca4cebf71ba98eeadabe20bace025490565b90505f8111612a675760405162461bcd60e51b815260206004820152600c60248201527f4e6f206c697175696469747900000000000000000000000000000000000000006044820152606401610e3c565b5f612a7189614aad565b90505f612a7e828b6158ba565b90505f5b5f54811015612ce057612a948261301e565b8181518110612aa557612aa561582e565b60200260200101515f8281548110612abf57612abf61582e565b5f9182526020909120600491820201546040517f70a0823100000000000000000000000000000000000000000000000000000000815230928101929092526001600160a01b0316906370a0823190602401602060405180830381865afa158015612b2b573d5f803e3d5ffd5b505050506040513d601f19601f82011682018060405250810190612b4f91906158cd565b1015612bc35760405162461bcd60e51b815260206004820152602860248201527f42616c756e695631506f6f6c3a20496e73756666696369656e7420417373657460448201527f2042616c616e63650000000000000000000000000000000000000000000000006064820152608401610e3c565b5f808281548110612bd657612bd661582e565b5f9182526020909120600490910201546001600160a01b031663a9059cbb8c612bfe8661301e565b8581518110612c0f57612c0f61582e565b60200260200101516040518363ffffffff1660e01b8152600401612c489291906001600160a01b03929092168252602082015260400190565b6020604051808303815f875af1158015612c64573d5f803e3d5ffd5b505050506040513d601f19601f82011682018060405250810190612c8891906158e4565b905080612cd75760405162461bcd60e51b815260206004820152601560248201527f4173736574207472616e73666572206661696c656400000000000000000000006044820152606401610e3c565b50600101612a82565b50305f9081527f52c63247e1f47db19d5ce0460030c497f067ca4cebf71ba98eeadabe20bace006020526040902054811115612d5e5760405162461bcd60e51b815260206004820152601d60248201527f496e73756666696369656e742042414c554e49206c69717569646974790000006044820152606401610e3c565b600554604080517f3b19e84a00000000000000000000000000000000000000000000000000000000815290515f926001600160a01b031691633b19e84a9160048083019260209291908290030181865afa158015612dbe573d5f803e3d5ffd5b505050506040513d601f19601f82011682018060405250810190612de29190615842565b90506001600160a01b038116612e3a5760405162461bcd60e51b815260206004820152601860248201527f496e76616c6964207472656173757279206164647265737300000000000000006044820152606401610e3c565b305f9081527f52c63247e1f47db19d5ce0460030c497f067ca4cebf71ba98eeadabe20bace006020526040902054831115612eb75760405162461bcd60e51b815260206004820152601b60248201527f496e73756666696369656e742042414c554e4920666f722066656500000000006044820152606401610e3c565b6040517fa9059cbb0000000000000000000000000000000000000000000000000000000081526001600160a01b0382166004820152602481018490525f90309063a9059cbb906044016020604051808303815f875af1158015612f1c573d5f803e3d5ffd5b505050506040513d601f19601f82011682018060405250810190612f4091906158e4565b905080612f8f5760405162461bcd60e51b815260206004820152601360248201527f466565207472616e73666572206661696c6564000000000000000000000000006044820152606401610e3c565b612f993084614c2f565b612fa16145ff565b612fa9614952565b8a6001600160a01b03167f884edad9ce6fa2440d8a54cc123490eb96d2768479d49ff9c7366125a942436484604051612fe491815260200190565b60405180910390a25090965050505050506124ca60017f9b779b17422d0df92223018b32b4d1fa46e071723d6817e2486d003becc55f0055565b60605f61302a83614aad565b90505f61303782856158ba565b5f80549192509067ffffffffffffffff8111156130565761305661538b565b60405190808252806020026020018201604052801561307f578160200160208202803683370190505b5090505f5b5f54811015613114575f8082815481106130a0576130a061582e565b905f5260205f2090600402016003015490506130da7f52c63247e1f47db19d5ce0460030c497f067ca4cebf71ba98eeadabe20bace025490565b6130e48583615884565b6130ee919061589b565b8383815181106131005761310061582e565b602090810291909101015250600101613084565b50949350505050565b5f8060035f9054906101000a90046001600160a01b03166001600160a01b031663313ce5676040518163ffffffff1660e01b8152600401602060405180830381865afa15801561316f573d5f803e3d5ffd5b505050506040513d601f19601f820116820180604052508101906131939190615903565b60ff1690505f6131a48260126158ba565b6131af90600a615a03565b90505f6131ba61328c565b5090505f6131e67f52c63247e1f47db19d5ce0460030c497f067ca4cebf71ba98eeadabe20bace025490565b9050805f036131f9575f94505050505090565b600254816132078585615884565b613211919061589b565b61321b9190615884565b94505050505090565b61322c613b9a565b6001600160a01b03811661326e576040517f1e4fbdf70000000000000000000000000000000000000000000000000000000081525f6004820152602401610e3c565b61327781613ebb565b50565b6132878383836001614c7c565b505050565b5f80546060908067ffffffffffffffff8111156132ab576132ab61538b565b6040519080825280602002602001820160405280156132d4578160200160208202803683370190505b5091505f5b818110156133b3575f8082815481106132f4576132f461582e565b5f91825260208220600490910201546001600160a01b0316915061331782611f3a565b6003549091506001600160a01b039081169083160361335457808584815181106133435761334361582e565b602002602001018181525050613382565b5f61335f8383614c15565b9050808685815181106133745761337461582e565b602002602001018181525050505b8483815181106133945761339461582e565b6020026020010151866133a79190615871565b955050506001016132d9565b50509091565b6133c1614da4565b61327781614e0b565b60408051808201909152600d81527f42616c756e6920506f6f6c3a200000000000000000000000000000000000000060208201526060905f5b8351811015610bed578184828151811061341f5761341f61582e565b60200260200101516001600160a01b03166395d89b416040518163ffffffff1660e01b81526004015f60405180830381865afa158015613461573d5f803e3d5ffd5b505050506040513d5f823e601f3d908101601f191682016040526134889190810190615a0e565b604051602001613499929190615a9a565b60408051601f198184030181529190529150600101613403565b60408051808201909152600781527f42414c554e492d0000000000000000000000000000000000000000000000000060208201526060905f5b8351811015610bed57818482815181106135085761350861582e565b60200260200101516001600160a01b03166395d89b416040518163ffffffff1660e01b81526004015f60405180830381865afa15801561354a573d5f803e3d5ffd5b505050506040513d5f823e601f3d908101601f191682016040526135719190810190615a0e565b604051602001613582929190615a9a565b60408051601f1981840301815291905291506001016134ec565b6135a4614da4565b6113c18282614e13565b5f8060055f9054906101000a90046001600160a01b03166001600160a01b031663cff49d686040518163ffffffff1660e01b8152600401602060405180830381865afa158015613600573d5f803e3d5ffd5b505050506040513d601f19601f820116820180604052508101906136249190615842565b90505f6001600160a01b031660055f9054906101000a90046001600160a01b03166001600160a01b031663cff49d686040518163ffffffff1660e01b8152600401602060405180830381865afa158015613680573d5f803e3d5ffd5b505050506040513d601f19601f820116820180604052508101906136a49190615842565b6001600160a01b0316036136fa5760405162461bcd60e51b815260206004820152601a60248201527f496e76616c696420726562616c616e63657220616464726573730000000000006044820152606401610e3c565b82518451146137715760405162461bcd60e51b815260206004820152602260248201527f41737365747320616e642077656967687473206c656e677468206d69736d617460448201527f63680000000000000000000000000000000000000000000000000000000000006064820152608401610e3c565b5f5b8451811015613a4d575f6001600160a01b03168582815181106137985761379861582e565b60200260200101516001600160a01b0316036137f65760405162461bcd60e51b815260206004820152601560248201527f496e76616c6964206173736574206164647265737300000000000000000000006044820152606401610e3c565b5f8482815181106138095761380961582e565b60200260200101511161385e5760405162461bcd60e51b815260206004820152600e60248201527f496e76616c6964207765696768740000000000000000000000000000000000006044820152606401610e3c565b5f604051806080016040528087848151811061387c5761387c61582e565b60200260200101516001600160a01b031681526020018684815181106138a4576138a461582e565b60209081029190910181015182525f82820181905260409283018190528454600180820187559582528282208551600490920201805473ffffffffffffffffffffffffffffffffffffffff19166001600160a01b03909216919091178155918401519482019490945590820151600282015560609091015160039091015585518690839081106139365761393661582e565b6020908102919091010151604051636eb1769f60e11b81523060048201526001600160a01b0385811660248301529192509082169063dd62ed3e90604401602060405180830381865afa15801561398f573d5f803e3d5ffd5b505050506040513d601f19601f820116820180604052508101906139b391906158cd565b5f03613a44576040517f095ea7b30000000000000000000000000000000000000000000000000000000081526001600160a01b0384811660048301525f19602483015282169063095ea7b3906044016020604051808303815f875af1158015613a1e573d5f803e3d5ffd5b505050506040513d601f19601f82011682018060405250810190613a4291906158e4565b505b50600101613773565b506001949350505050565b6001600160a01b038381165f9081527f52c63247e1f47db19d5ce0460030c497f067ca4cebf71ba98eeadabe20bace0160209081526040808320938616835292905220545f198114613b055781811015613af7576040517ffb8f41b20000000000000000000000000000000000000000000000000000000081526001600160a01b03841660048201526024810182905260448101839052606401610e3c565b613b0584848484035f614c7c565b50505050565b6001600160a01b038316613b4d576040517f96c6fd1e0000000000000000000000000000000000000000000000000000000081525f6004820152602401610e3c565b6001600160a01b038216613b8f576040517fec442f050000000000000000000000000000000000000000000000000000000081525f6004820152602401610e3c565b613287838383614e76565b33613bcc7f9016d09d72d40fdae2fd8ceac6b6234c7706214fd39c1cd1e609a0528c199300546001600160a01b031690565b6001600160a01b0316146110dd576040517f118cdaa7000000000000000000000000000000000000000000000000000000008152336004820152602401610e3c565b613c16614fdb565b7fcd5ed15c6e187e77e9aee88184c21f4f2182ab5827cb3b7e07fbedcd63f03300805460ff191681557f5db9ee0a495bf2e6ff9c91a7834c1ba4fdd244a5e8aa4e537bd38aeae4b073aa335b6040516001600160a01b03909116815260200160405180910390a150565b306001600160a01b037f0000000000000000000000000000000000000000000000000000000000000000161480613d1957507f00000000000000000000000000000000000000000000000000000000000000006001600160a01b0316613d0d7f360894a13ba1a3210667c828492db98dca3e2076cc3735a920a3ca505d382bbc546001600160a01b031690565b6001600160a01b031614155b156110dd576040517fe07c8dba00000000000000000000000000000000000000000000000000000000815260040160405180910390fd5b613277613b9a565b816001600160a01b03166352d1902d6040518163ffffffff1660e01b8152600401602060405180830381865afa925050508015613db2575060408051601f3d908101601f19168201909252613daf918101906158cd565b60015b613df3576040517f4c9c8ce30000000000000000000000000000000000000000000000000000000081526001600160a01b0383166004820152602401610e3c565b7f360894a13ba1a3210667c828492db98dca3e2076cc3735a920a3ca505d382bbc8114613e4f576040517faa1d49a400000000000000000000000000000000000000000000000000000000815260048101829052602401610e3c565b6132878383615036565b306001600160a01b037f000000000000000000000000000000000000000000000000000000000000000016146110dd576040517fe07c8dba00000000000000000000000000000000000000000000000000000000815260040160405180910390fd5b7f9016d09d72d40fdae2fd8ceac6b6234c7706214fd39c1cd1e609a0528c199300805473ffffffffffffffffffffffffffffffffffffffff1981166001600160a01b03848116918217845560405192169182907f8be0079c531659141344cd1fd0a4f28419497f9722a3daafe3b4186f6b6457e0905f90a3505050565b600554604080517fcff49d6800000000000000000000000000000000000000000000000000000000815290515f926001600160a01b03169163cff49d689160048083019260209291908290030181865afa158015613f98573d5f803e3d5ffd5b505050506040513d601f19601f82011682018060405250810190613fbc9190615842565b90505f613fc76113f3565b90505f613fd2610f7f565b90505f60055f9054906101000a90046001600160a01b03166001600160a01b0316634f4608a26040518163ffffffff1660e01b8152600401602060405180830381865afa158015614025573d5f803e3d5ffd5b505050506040513d601f19601f8201168201806040525081019061404991906158cd565b335f9081527f52c63247e1f47db19d5ce0460030c497f067ca4cebf71ba98eeadabe20bace0060205260409020547f52c63247e1f47db19d5ce0460030c497f067ca4cebf71ba98eeadabe20bace0254919250906064816140aa8585615884565b6140b4919061589b565b10156141025760405162461bcd60e51b815260206004820152601460248201527f496e73756666696369656e742062616c616e63650000000000000000000000006044820152606401610e3c565b5f5b5f54811015614262575f8082815481106141205761412061582e565b5f918252602090912060049182020154604051636eb1769f60e11b815230928101929092526001600160a01b038a81166024840152169063dd62ed3e90604401602060405180830381865afa15801561417b573d5f803e3d5ffd5b505050506040513d601f19601f8201168201806040525081019061419f91906158cd565b90505f19811015614259575f82815481106141bc576141bc61582e565b5f9182526020909120600491820201546040517f095ea7b30000000000000000000000000000000000000000000000000000000081526001600160a01b038b8116938201939093525f19602482015291169063095ea7b3906044016020604051808303815f875af1158015614233573d5f803e3d5ffd5b505050506040513d601f19601f8201168201806040525081019061425791906158e4565b505b50600101614104565b505f61426c610aa7565b6001546003546040517ff0bf77140000000000000000000000000000000000000000000000000000000081529293506001600160a01b03808b169363f0bf7714936142c79387938d938d939230928392911690600401615adc565b5f604051808303815f87803b1580156142de575f80fd5b505af11580156142f0573d5f803e3d5ffd5b505050506142fc6145ff565b614304614952565b336001600160a01b03167f279b343370f587af7fb675ae7c8578e9c8abcc373236ad02c501a4771fe7a7b88760405161433d9190615671565b60405180910390a250505050505050565b614356614bb9565b7fcd5ed15c6e187e77e9aee88184c21f4f2182ab5827cb3b7e07fbedcd63f03300805460ff191660011781557f62e78cea01bee320cd4e420270b5ea74000d11b0c9f74754ebdbfc544b05a25833613c62565b5f5460609067ffffffffffffffff8111156143c6576143c661538b565b6040519080825280602002602001820160405280156143ef578160200160208202803683370190505b5090505f5b5f54811015610bed575f6127105f83815481106144135761441361582e565b905f5260205f209060040201600101548661442e9190615884565b614438919061589b565b90508084838151811061444d5761444d61582e565b6020026020010151101561449f5783828151811061446d5761446d61582e565b60200260200101518161448091906158ba565b8383815181106144925761449261582e565b6020026020010181815250505b506001016143f4565b5f805b5f54811015610b44578281815181106144c6576144c661582e565b6020026020010151826144d99190615871565b91506001016144ab565b6003545f805490916001600160a01b0316908290859081106145075761450761582e565b5f9182526020909120600490910201546001600160a01b03160361452c575080610b5d565b5f6145615f85815481106145425761454261582e565b5f9182526020909120600490910201546001600160a01b03168461508b565b90505f811161103a5760405162461bcd60e51b815260206004820152601b60248201527f496e76616c696420746f6b656e20616d6f756e7420746f2061646400000000006044820152606401610e3c565b6001600160a01b0382166145f4576040517fec442f050000000000000000000000000000000000000000000000000000000081525f6004820152602401610e3c565b6113c15f8383614e76565b5f806146096124d2565b90925090506064600a5f5b5f5481101561494b575f8082815481106146305761463061582e565b905f5260205f209060040201600201549050838583815181106146555761465561582e565b60200260200101511161468e57825f83815481106146755761467561582e565b905f5260205f2090600402016002018190555050614943565b8582815181106146a0576146a061582e565b60200260200101511561477e57838583815181106146c0576146c061582e565b60200260200101516146d2919061589b565b5f83815481106146e4576146e461582e565b905f5260205f2090600402016002015f8282546147019190615871565b92505081905550805f838154811061471b5761471b61582e565b905f5260205f2090600402016002015410156147795760405162461bcd60e51b815260206004820152601e60248201527f4f766572666c6f7720696e6372656d656e74696e6720736c69707061676500006044820152606401610e3c565b6148f1565b838583815181106147915761479161582e565b60200260200101516147a3919061589b565b5f83815481106147b5576147b561582e565b905f5260205f20906004020160020154111561489757838583815181106147de576147de61582e565b60200260200101516147f0919061589b565b5f83815481106148025761480261582e565b905f5260205f2090600402016002015f82825461481f91906158ba565b92505081905550805f83815481106148395761483961582e565b905f5260205f2090600402016002015411156147795760405162461bcd60e51b815260206004820152601f60248201527f556e646572666c6f772064656372656d656e74696e6720736c697070616765006044820152606401610e3c565b838583815181106148aa576148aa61582e565b60200260200101516148bc919061589b565b5f83815481106148ce576148ce61582e565b905f5260205f2090600402016002015f8282546148eb9190615871565b90915550505b825f83815481106149045761490461582e565b905f5260205f20906004020160020154111561494157825f838154811061492d5761492d61582e565b905f5260205f209060040201600201819055505b505b600101614614565b5050505050565b5f5b5f54811015613277575f818154811061496f5761496f61582e565b5f9182526020909120600491820201546040517f70a0823100000000000000000000000000000000000000000000000000000000815230928101929092526001600160a01b0316906370a0823190602401602060405180830381865afa1580156149db573d5f803e3d5ffd5b505050506040513d601f19601f820116820180604052508101906149ff91906158cd565b5f8281548110614a1157614a1161582e565b5f918252602090912060036004909202010155600101614954565b7f9b779b17422d0df92223018b32b4d1fa46e071723d6817e2486d003becc55f0080547ffffffffffffffffffffffffffffffffffffffffffffffffffffffffffffffffe01614aa7576040517f3ee5aeb500000000000000000000000000000000000000000000000000000000815260040160405180910390fd5b60029055565b5f8060055f9054906101000a90046001600160a01b03166001600160a01b03166385462d6f6040518163ffffffff1660e01b8152600401602060405180830381865afa158015614aff573d5f803e3d5ffd5b505050506040513d601f19601f82011682018060405250810190614b2391906158cd565b90505f60055f9054906101000a90046001600160a01b03166001600160a01b0316634f4608a26040518163ffffffff1660e01b8152600401602060405180830381865afa158015614b76573d5f803e3d5ffd5b505050506040513d601f19601f82011682018060405250810190614b9a91906158cd565b905080614ba78386615884565b614bb1919061589b565b949350505050565b7fcd5ed15c6e187e77e9aee88184c21f4f2182ab5827cb3b7e07fbedcd63f033005460ff16156110dd576040517fd93c066500000000000000000000000000000000000000000000000000000000815260040160405180910390fd5b6003545f9061103a9084906001600160a01b0316846111bd565b6001600160a01b038216614c71576040517f96c6fd1e0000000000000000000000000000000000000000000000000000000081525f6004820152602401610e3c565b6113c1825f83614e76565b7f52c63247e1f47db19d5ce0460030c497f067ca4cebf71ba98eeadabe20bace006001600160a01b038516614cdf576040517fe602df050000000000000000000000000000000000000000000000000000000081525f6004820152602401610e3c565b6001600160a01b038416614d21576040517f94280d620000000000000000000000000000000000000000000000000000000081525f6004820152602401610e3c565b6001600160a01b038086165f9081526001830160209081526040808320938816835292905220839055811561494b57836001600160a01b0316856001600160a01b03167f8c5be1e5ebec7d5bd14f71427d1e84f3dd0314c0f7b2291e5b200ac8c7c3b92585604051614d9591815260200190565b60405180910390a35050505050565b7ff0c57e16840df040f15088dc2f81fe391c3923bec73e23a9662efc9c229c6a005468010000000000000000900460ff166110dd576040517fd7e6bcf800000000000000000000000000000000000000000000000000000000815260040160405180910390fd5b61322c614da4565b614e1b614da4565b7f52c63247e1f47db19d5ce0460030c497f067ca4cebf71ba98eeadabe20bace007f52c63247e1f47db19d5ce0460030c497f067ca4cebf71ba98eeadabe20bace03614e678482615b8a565b5060048101613b058382615b8a565b7f52c63247e1f47db19d5ce0460030c497f067ca4cebf71ba98eeadabe20bace006001600160a01b038416614ec35781816002015f828254614eb89190615871565b90915550614f4c9050565b6001600160a01b0384165f9081526020829052604090205482811015614f2e576040517fe450d38c0000000000000000000000000000000000000000000000000000000081526001600160a01b03861660048201526024810182905260448101849052606401610e3c565b6001600160a01b0385165f9081526020839052604090209083900390555b6001600160a01b038316614f6a576002810180548390039055614f88565b6001600160a01b0383165f9081526020829052604090208054830190555b826001600160a01b0316846001600160a01b03167fddf252ad1be2c89b69c2b068fc378daa952ba7f163c4a11628f55a4df523b3ef84604051614fcd91815260200190565b60405180910390a350505050565b7fcd5ed15c6e187e77e9aee88184c21f4f2182ab5827cb3b7e07fbedcd63f033005460ff166110dd576040517f8dfc202b00000000000000000000000000000000000000000000000000000000815260040160405180910390fd5b61503f826150a4565b6040516001600160a01b038316907fbc7cd75a20ee27fd9adebab32041f755214dbc6bffa90cc0225b39da2e5c2d3b905f90a2805115615083576132878282615140565b6113c16151b2565b6003545f9061103a906001600160a01b031684846111bd565b806001600160a01b03163b5f036150f2576040517f4c9c8ce30000000000000000000000000000000000000000000000000000000081526001600160a01b0382166004820152602401610e3c565b7f360894a13ba1a3210667c828492db98dca3e2076cc3735a920a3ca505d382bbc805473ffffffffffffffffffffffffffffffffffffffff19166001600160a01b0392909216919091179055565b60605f80846001600160a01b03168460405161515c9190615c4a565b5f60405180830381855af49150503d805f8114615194576040519150601f19603f3d011682016040523d82523d5f602084013e615199565b606091505b50915091506151a98583836151ea565b95945050505050565b34156110dd576040517fb398979f00000000000000000000000000000000000000000000000000000000815260040160405180910390fd5b6060826151ff576151fa8261525f565b61103a565b815115801561521657506001600160a01b0384163b155b15615258576040517f9996b3150000000000000000000000000000000000000000000000000000000081526001600160a01b0385166004820152602401610e3c565b508061103a565b80511561526f5780518082602001fd5b6040517f1425ea4200000000000000000000000000000000000000000000000000000000815260040160405180910390fd5b602081525f82518060208401528060208501604085015e5f604082850101526040601f19601f83011684010191505092915050565b5f815180845260208085019450602084015f5b83811015615305578151875295820195908201906001016152e9565b509495945050505050565b602081525f61103a60208301846152d6565b6001600160a01b0381168114613277575f80fd5b803561534181615322565b919050565b5f8060408385031215615357575f80fd5b823561536281615322565b946020939093013593505050565b5f60208284031215615380575f80fd5b813561103a81615322565b634e487b7160e01b5f52604160045260245ffd5b604051601f8201601f1916810167ffffffffffffffff811182821017156153c8576153c861538b565b604052919050565b5f67ffffffffffffffff8211156153e9576153e961538b565b5060051b60200190565b5f82601f830112615402575f80fd5b81356020615417615412836153d0565b61539f565b8083825260208201915060208460051b870101935086841115615438575f80fd5b602086015b84811015615454578035835291830191830161543d565b509695505050505050565b5f805f8060808587031215615472575f80fd5b843567ffffffffffffffff80821115615489575f80fd5b818701915087601f83011261549c575f80fd5b813560206154ac615412836153d0565b82815260059290921b8401810191818101908b8411156154ca575f80fd5b948201945b838610156154f15785356154e281615322565b825294820194908201906154cf565b98505088013592505080821115615506575f80fd5b50615513878288016153f3565b9350506040850135915061552960608601615336565b905092959194509250565b5f805f60608486031215615546575f80fd5b833561555181615322565b9250602084013561556181615322565b929592945050506040919091013590565b828152604060208201525f614bb160408301846152d6565b5f67ffffffffffffffff8211156155a3576155a361538b565b50601f01601f191660200190565b5f80604083850312156155c2575f80fd5b82356155cd81615322565b9150602083013567ffffffffffffffff8111156155e8575f80fd5b8301601f810185136155f8575f80fd5b80356156066154128261558a565b81815286602083850101111561561a575f80fd5b816020840160208301375f602083830101528093505050509250929050565b5f815180845260208085019450602084015f5b838110156153055781516001600160a01b03168752958201959082019060010161564c565b602081525f61103a6020830184615639565b5f805f805f8060c08789031215615698575f80fd5b86356156a381615322565b955060208701356156b381615322565b9450604087013593506060870135925060808701356156d181615322565b8092505060a087013590509295509295509295565b5f805f606084860312156156f8575f80fd5b833561570381615322565b9250602084013567ffffffffffffffff81111561571e575f80fd5b61572a868287016153f3565b925050604084013590509250925092565b604080825283519082018190525f906020906060840190828701845b82811015615775578151151584529284019290840190600101615757565b505050838103602085015261139c81866152d6565b5f6020828403121561579a575f80fd5b5035919050565b5f80604083850312156157b2575f80fd5b82356157bd81615322565b915060208301356157cd81615322565b809150509250929050565b5f805f606084860312156157ea575f80fd5b83359250602084013561556181615322565b600181811c9082168061581057607f821691505b602082108103610b4457634e487b7160e01b5f52602260045260245ffd5b634e487b7160e01b5f52603260045260245ffd5b5f60208284031215615852575f80fd5b815161103a81615322565b634e487b7160e01b5f52601160045260245ffd5b80820180821115610b5d57610b5d61585d565b8082028115828204841417610b5d57610b5d61585d565b5f826158b557634e487b7160e01b5f52601260045260245ffd5b500490565b81810381811115610b5d57610b5d61585d565b5f602082840312156158dd575f80fd5b5051919050565b5f602082840312156158f4575f80fd5b8151801515811461103a575f80fd5b5f60208284031215615913575f80fd5b815160ff8116811461103a575f80fd5b600181815b8085111561595d57815f19048211156159435761594361585d565b8085161561595057918102915b93841c9390800290615928565b509250929050565b5f8261597357506001610b5d565b8161597f57505f610b5d565b8160018114615995576002811461599f576159bb565b6001915050610b5d565b60ff8411156159b0576159b061585d565b50506001821b610b5d565b5060208310610133831016604e8410600b84101617156159de575081810a610b5d565b6159e88383615923565b805f19048211156159fb576159fb61585d565b029392505050565b5f61103a8383615965565b5f60208284031215615a1e575f80fd5b815167ffffffffffffffff811115615a34575f80fd5b8201601f81018413615a44575f80fd5b8051615a526154128261558a565b818152856020838501011115615a66575f80fd5b8160208401602083015e5f91810160200191909152949350505050565b5f81518060208401855e5f93019283525090919050565b5f615aae615aa88386615a83565b84615a83565b7f2d000000000000000000000000000000000000000000000000000000000000008152600101949350505050565b60e081525f615aee60e083018a6152d6565b8281036020840152615b00818a615639565b90508281036040840152615b1481896152d6565b606084019790975250506001600160a01b03938416608082015291831660a083015290911660c0909101529392505050565b601f82111561328757805f5260205f20601f840160051c81016020851015615b6b5750805b601f840160051c820191505b8181101561494b575f8155600101615b77565b815167ffffffffffffffff811115615ba457615ba461538b565b615bb881615bb284546157fc565b84615b46565b602080601f831160018114615beb575f8415615bd45750858301515b5f19600386901b1c1916600185901b178555615c42565b5f85815260208120601f198616915b82811015615c1957888601518255948401946001909101908401615bfa565b5085821015615c3657878501515f19600388901b60f8161c191681555b505060018460011b0185555b505050505050565b5f61103a8284615a8356fea26469706673582212205f056d30f206f09cd2e0bbcf238c1668ce9e8393f2dd16ecbd04e37351dc897264736f6c63430008190033",
  "linkReferences": {},
  "deployedLinkReferences": {}
}