{
  "_format": "hh-sol-artifact-1",
  "contractName": "BaluniV1Pool",
  "sourceName": "contracts/pools/BaluniV1Pool.sol",
  "abi": [
    {
      "inputs": [
        {
          "internalType": "address",
          "name": "target",
          "type": "address"
        }
      ],
      "name": "AddressEmptyCode",
      "type": "error"
    },
    {
      "inputs": [
        {
          "internalType": "address",
          "name": "implementation",
          "type": "address"
        }
      ],
      "name": "ERC1967InvalidImplementation",
      "type": "error"
    },
    {
      "inputs": [],
      "name": "ERC1967NonPayable",
      "type": "error"
    },
    {
      "inputs": [
        {
          "internalType": "address",
          "name": "spender",
          "type": "address"
        },
        {
          "internalType": "uint256",
          "name": "allowance",
          "type": "uint256"
        },
        {
          "internalType": "uint256",
          "name": "needed",
          "type": "uint256"
        }
      ],
      "name": "ERC20InsufficientAllowance",
      "type": "error"
    },
    {
      "inputs": [
        {
          "internalType": "address",
          "name": "sender",
          "type": "address"
        },
        {
          "internalType": "uint256",
          "name": "balance",
          "type": "uint256"
        },
        {
          "internalType": "uint256",
          "name": "needed",
          "type": "uint256"
        }
      ],
      "name": "ERC20InsufficientBalance",
      "type": "error"
    },
    {
      "inputs": [
        {
          "internalType": "address",
          "name": "approver",
          "type": "address"
        }
      ],
      "name": "ERC20InvalidApprover",
      "type": "error"
    },
    {
      "inputs": [
        {
          "internalType": "address",
          "name": "receiver",
          "type": "address"
        }
      ],
      "name": "ERC20InvalidReceiver",
      "type": "error"
    },
    {
      "inputs": [
        {
          "internalType": "address",
          "name": "sender",
          "type": "address"
        }
      ],
      "name": "ERC20InvalidSender",
      "type": "error"
    },
    {
      "inputs": [
        {
          "internalType": "address",
          "name": "spender",
          "type": "address"
        }
      ],
      "name": "ERC20InvalidSpender",
      "type": "error"
    },
    {
      "inputs": [],
      "name": "EnforcedPause",
      "type": "error"
    },
    {
      "inputs": [],
      "name": "ExpectedPause",
      "type": "error"
    },
    {
      "inputs": [],
      "name": "FailedInnerCall",
      "type": "error"
    },
    {
      "inputs": [],
      "name": "InvalidInitialization",
      "type": "error"
    },
    {
      "inputs": [],
      "name": "NotInitializing",
      "type": "error"
    },
    {
      "inputs": [
        {
          "internalType": "address",
          "name": "owner",
          "type": "address"
        }
      ],
      "name": "OwnableInvalidOwner",
      "type": "error"
    },
    {
      "inputs": [
        {
          "internalType": "address",
          "name": "account",
          "type": "address"
        }
      ],
      "name": "OwnableUnauthorizedAccount",
      "type": "error"
    },
    {
      "inputs": [],
      "name": "ReentrancyGuardReentrantCall",
      "type": "error"
    },
    {
      "inputs": [],
      "name": "UUPSUnauthorizedCallContext",
      "type": "error"
    },
    {
      "inputs": [
        {
          "internalType": "bytes32",
          "name": "slot",
          "type": "bytes32"
        }
      ],
      "name": "UUPSUnsupportedProxiableUUID",
      "type": "error"
    },
    {
      "anonymous": false,
      "inputs": [
        {
          "indexed": true,
          "internalType": "address",
          "name": "owner",
          "type": "address"
        },
        {
          "indexed": true,
          "internalType": "address",
          "name": "spender",
          "type": "address"
        },
        {
          "indexed": false,
          "internalType": "uint256",
          "name": "value",
          "type": "uint256"
        }
      ],
      "name": "Approval",
      "type": "event"
    },
    {
      "anonymous": false,
      "inputs": [
        {
          "indexed": true,
          "internalType": "address",
          "name": "user",
          "type": "address"
        },
        {
          "indexed": false,
          "internalType": "uint256",
          "name": "amount",
          "type": "uint256"
        }
      ],
      "name": "Deposit",
      "type": "event"
    },
    {
      "anonymous": false,
      "inputs": [
        {
          "indexed": false,
          "internalType": "uint64",
          "name": "version",
          "type": "uint64"
        }
      ],
      "name": "Initialized",
      "type": "event"
    },
    {
      "anonymous": false,
      "inputs": [
        {
          "indexed": true,
          "internalType": "address",
          "name": "previousOwner",
          "type": "address"
        },
        {
          "indexed": true,
          "internalType": "address",
          "name": "newOwner",
          "type": "address"
        }
      ],
      "name": "OwnershipTransferred",
      "type": "event"
    },
    {
      "anonymous": false,
      "inputs": [
        {
          "indexed": false,
          "internalType": "address",
          "name": "account",
          "type": "address"
        }
      ],
      "name": "Paused",
      "type": "event"
    },
    {
      "anonymous": false,
      "inputs": [
        {
          "indexed": true,
          "internalType": "address",
          "name": "user",
          "type": "address"
        },
        {
          "indexed": false,
          "internalType": "address[]",
          "name": "assets",
          "type": "address[]"
        }
      ],
      "name": "RebalancePerformed",
      "type": "event"
    },
    {
      "anonymous": false,
      "inputs": [
        {
          "indexed": true,
          "internalType": "address",
          "name": "user",
          "type": "address"
        },
        {
          "indexed": false,
          "internalType": "address",
          "name": "fromToken",
          "type": "address"
        },
        {
          "indexed": false,
          "internalType": "address",
          "name": "toToken",
          "type": "address"
        },
        {
          "indexed": false,
          "internalType": "uint256",
          "name": "amountIn",
          "type": "uint256"
        },
        {
          "indexed": false,
          "internalType": "uint256",
          "name": "amountOut",
          "type": "uint256"
        }
      ],
      "name": "Swap",
      "type": "event"
    },
    {
      "anonymous": false,
      "inputs": [
        {
          "indexed": true,
          "internalType": "address",
          "name": "from",
          "type": "address"
        },
        {
          "indexed": true,
          "internalType": "address",
          "name": "to",
          "type": "address"
        },
        {
          "indexed": false,
          "internalType": "uint256",
          "name": "value",
          "type": "uint256"
        }
      ],
      "name": "Transfer",
      "type": "event"
    },
    {
      "anonymous": false,
      "inputs": [
        {
          "indexed": false,
          "internalType": "address",
          "name": "account",
          "type": "address"
        }
      ],
      "name": "Unpaused",
      "type": "event"
    },
    {
      "anonymous": false,
      "inputs": [
        {
          "indexed": true,
          "internalType": "address",
          "name": "implementation",
          "type": "address"
        }
      ],
      "name": "Upgraded",
      "type": "event"
    },
    {
      "anonymous": false,
      "inputs": [
        {
          "indexed": true,
          "internalType": "address",
          "name": "user",
          "type": "address"
        },
        {
          "indexed": false,
          "internalType": "uint256[]",
          "name": "amountsToAdd",
          "type": "uint256[]"
        }
      ],
      "name": "WeightsRebalanced",
      "type": "event"
    },
    {
      "anonymous": false,
      "inputs": [
        {
          "indexed": true,
          "internalType": "address",
          "name": "user",
          "type": "address"
        },
        {
          "indexed": false,
          "internalType": "uint256",
          "name": "amount",
          "type": "uint256"
        }
      ],
      "name": "Withdraw",
      "type": "event"
    },
    {
      "inputs": [],
      "name": "ONE",
      "outputs": [
        {
          "internalType": "uint256",
          "name": "",
          "type": "uint256"
        }
      ],
      "stateMutability": "view",
      "type": "function"
    },
    {
      "inputs": [],
      "name": "UPGRADE_INTERFACE_VERSION",
      "outputs": [
        {
          "internalType": "string",
          "name": "",
          "type": "string"
        }
      ],
      "stateMutability": "view",
      "type": "function"
    },
    {
      "inputs": [
        {
          "internalType": "address",
          "name": "owner",
          "type": "address"
        },
        {
          "internalType": "address",
          "name": "spender",
          "type": "address"
        }
      ],
      "name": "allowance",
      "outputs": [
        {
          "internalType": "uint256",
          "name": "",
          "type": "uint256"
        }
      ],
      "stateMutability": "view",
      "type": "function"
    },
    {
      "inputs": [
        {
          "internalType": "address",
          "name": "spender",
          "type": "address"
        },
        {
          "internalType": "uint256",
          "name": "value",
          "type": "uint256"
        }
      ],
      "name": "approve",
      "outputs": [
        {
          "internalType": "bool",
          "name": "",
          "type": "bool"
        }
      ],
      "stateMutability": "nonpayable",
      "type": "function"
    },
    {
      "inputs": [
        {
          "internalType": "uint256",
          "name": "",
          "type": "uint256"
        }
      ],
      "name": "assetInfos",
      "outputs": [
        {
          "internalType": "address",
          "name": "asset",
          "type": "address"
        },
        {
          "internalType": "uint256",
          "name": "weight",
          "type": "uint256"
        },
        {
          "internalType": "uint256",
          "name": "slippage",
          "type": "uint256"
        },
        {
          "internalType": "uint256",
          "name": "reserve",
          "type": "uint256"
        }
      ],
      "stateMutability": "view",
      "type": "function"
    },
    {
      "inputs": [
        {
          "internalType": "uint256",
          "name": "assetIndex",
          "type": "uint256"
        }
      ],
      "name": "assetLiquidity",
      "outputs": [
        {
          "internalType": "uint256",
          "name": "",
          "type": "uint256"
        }
      ],
      "stateMutability": "view",
      "type": "function"
    },
    {
      "inputs": [
        {
          "internalType": "address",
          "name": "account",
          "type": "address"
        }
      ],
      "name": "balanceOf",
      "outputs": [
        {
          "internalType": "uint256",
          "name": "",
          "type": "uint256"
        }
      ],
      "stateMutability": "view",
      "type": "function"
    },
    {
      "inputs": [],
      "name": "baseAsset",
      "outputs": [
        {
          "internalType": "address",
          "name": "",
          "type": "address"
        }
      ],
      "stateMutability": "view",
      "type": "function"
    },
    {
      "inputs": [
        {
          "internalType": "uint256",
          "name": "share",
          "type": "uint256"
        }
      ],
      "name": "calculateAssetShare",
      "outputs": [
        {
          "internalType": "uint256[]",
          "name": "",
          "type": "uint256[]"
        }
      ],
      "stateMutability": "view",
      "type": "function"
    },
    {
      "inputs": [],
      "name": "decimals",
      "outputs": [
        {
          "internalType": "uint8",
          "name": "",
          "type": "uint8"
        }
      ],
      "stateMutability": "view",
      "type": "function"
    },
    {
      "inputs": [
        {
          "internalType": "address",
          "name": "to",
          "type": "address"
        },
        {
          "internalType": "uint256[]",
          "name": "amounts",
          "type": "uint256[]"
        },
        {
          "internalType": "uint256",
          "name": "deadline",
          "type": "uint256"
        }
      ],
      "name": "deposit",
      "outputs": [
        {
          "internalType": "uint256",
          "name": "",
          "type": "uint256"
        }
      ],
      "stateMutability": "nonpayable",
      "type": "function"
    },
    {
      "inputs": [
        {
          "internalType": "address",
          "name": "fromToken",
          "type": "address"
        },
        {
          "internalType": "address",
          "name": "toToken",
          "type": "address"
        },
        {
          "internalType": "uint256",
          "name": "amount",
          "type": "uint256"
        }
      ],
      "name": "getAmountOut",
      "outputs": [
        {
          "internalType": "uint256",
          "name": "",
          "type": "uint256"
        }
      ],
      "stateMutability": "view",
      "type": "function"
    },
    {
      "inputs": [
        {
          "internalType": "address",
          "name": "asset",
          "type": "address"
        }
      ],
      "name": "getAssetReserve",
      "outputs": [
        {
          "internalType": "uint256",
          "name": "",
          "type": "uint256"
        }
      ],
      "stateMutability": "view",
      "type": "function"
    },
    {
      "inputs": [],
      "name": "getAssets",
      "outputs": [
        {
          "internalType": "address[]",
          "name": "",
          "type": "address[]"
        }
      ],
      "stateMutability": "view",
      "type": "function"
    },
    {
      "inputs": [
        {
          "internalType": "address",
          "name": "token",
          "type": "address"
        }
      ],
      "name": "getDeviationForToken",
      "outputs": [
        {
          "internalType": "uint256",
          "name": "",
          "type": "uint256"
        }
      ],
      "stateMutability": "view",
      "type": "function"
    },
    {
      "inputs": [],
      "name": "getDeviations",
      "outputs": [
        {
          "internalType": "bool[]",
          "name": "directions",
          "type": "bool[]"
        },
        {
          "internalType": "uint256[]",
          "name": "deviations",
          "type": "uint256[]"
        }
      ],
      "stateMutability": "view",
      "type": "function"
    },
    {
      "inputs": [],
      "name": "getReserves",
      "outputs": [
        {
          "internalType": "uint256[]",
          "name": "",
          "type": "uint256[]"
        }
      ],
      "stateMutability": "view",
      "type": "function"
    },
    {
      "inputs": [
        {
          "internalType": "address",
          "name": "token",
          "type": "address"
        }
      ],
      "name": "getSlippage",
      "outputs": [
        {
          "internalType": "uint256",
          "name": "",
          "type": "uint256"
        }
      ],
      "stateMutability": "view",
      "type": "function"
    },
    {
      "inputs": [],
      "name": "getSlippageParams",
      "outputs": [
        {
          "internalType": "uint256[]",
          "name": "",
          "type": "uint256[]"
        }
      ],
      "stateMutability": "view",
      "type": "function"
    },
    {
      "inputs": [
        {
          "internalType": "address",
          "name": "token",
          "type": "address"
        }
      ],
      "name": "getTokenWeight",
      "outputs": [
        {
          "internalType": "uint256",
          "name": "",
          "type": "uint256"
        }
      ],
      "stateMutability": "view",
      "type": "function"
    },
    {
      "inputs": [],
      "name": "getWeights",
      "outputs": [
        {
          "internalType": "uint256[]",
          "name": "",
          "type": "uint256[]"
        }
      ],
      "stateMutability": "view",
      "type": "function"
    },
    {
      "inputs": [
        {
          "internalType": "string",
          "name": "_name",
          "type": "string"
        },
        {
          "internalType": "string",
          "name": "_symbol",
          "type": "string"
        },
        {
          "internalType": "address[]",
          "name": "_assets",
          "type": "address[]"
        },
        {
          "internalType": "uint256[]",
          "name": "_weights",
          "type": "uint256[]"
        },
        {
          "internalType": "address",
          "name": "_registry",
          "type": "address"
        }
      ],
      "name": "initialize",
      "outputs": [],
      "stateMutability": "nonpayable",
      "type": "function"
    },
    {
      "inputs": [],
      "name": "isRebalanceNeeded",
      "outputs": [
        {
          "internalType": "bool",
          "name": "",
          "type": "bool"
        }
      ],
      "stateMutability": "view",
      "type": "function"
    },
    {
      "inputs": [],
      "name": "liquidity",
      "outputs": [
        {
          "internalType": "uint256",
          "name": "",
          "type": "uint256"
        }
      ],
      "stateMutability": "view",
      "type": "function"
    },
    {
      "inputs": [],
      "name": "name",
      "outputs": [
        {
          "internalType": "string",
          "name": "",
          "type": "string"
        }
      ],
      "stateMutability": "view",
      "type": "function"
    },
    {
      "inputs": [],
      "name": "owner",
      "outputs": [
        {
          "internalType": "address",
          "name": "",
          "type": "address"
        }
      ],
      "stateMutability": "view",
      "type": "function"
    },
    {
      "inputs": [],
      "name": "pause",
      "outputs": [],
      "stateMutability": "nonpayable",
      "type": "function"
    },
    {
      "inputs": [],
      "name": "paused",
      "outputs": [
        {
          "internalType": "bool",
          "name": "",
          "type": "bool"
        }
      ],
      "stateMutability": "view",
      "type": "function"
    },
    {
      "inputs": [],
      "name": "proxiableUUID",
      "outputs": [
        {
          "internalType": "bytes32",
          "name": "",
          "type": "bytes32"
        }
      ],
      "stateMutability": "view",
      "type": "function"
    },
    {
      "inputs": [
        {
          "internalType": "address",
          "name": "fromToken",
          "type": "address"
        },
        {
          "internalType": "address",
          "name": "toToken",
          "type": "address"
        },
        {
          "internalType": "uint256",
          "name": "amount",
          "type": "uint256"
        }
      ],
      "name": "quotePotentialSwap",
      "outputs": [
        {
          "internalType": "uint256",
          "name": "",
          "type": "uint256"
        }
      ],
      "stateMutability": "view",
      "type": "function"
    },
    {
      "inputs": [],
      "name": "rebalance",
      "outputs": [],
      "stateMutability": "nonpayable",
      "type": "function"
    },
    {
      "inputs": [
        {
          "internalType": "address",
          "name": "receiver",
          "type": "address"
        }
      ],
      "name": "rebalanceAndDeposit",
      "outputs": [
        {
          "internalType": "uint256[]",
          "name": "",
          "type": "uint256[]"
        }
      ],
      "stateMutability": "nonpayable",
      "type": "function"
    },
    {
      "inputs": [],
      "name": "registry",
      "outputs": [
        {
          "internalType": "contract IBaluniV1Registry",
          "name": "",
          "type": "address"
        }
      ],
      "stateMutability": "view",
      "type": "function"
    },
    {
      "inputs": [
        {
          "internalType": "string",
          "name": "_name",
          "type": "string"
        },
        {
          "internalType": "string",
          "name": "_symbol",
          "type": "string"
        },
        {
          "internalType": "address[]",
          "name": "_assets",
          "type": "address[]"
        },
        {
          "internalType": "uint256[]",
          "name": "_weights",
          "type": "uint256[]"
        },
        {
          "internalType": "address",
          "name": "_registry",
          "type": "address"
        },
        {
          "internalType": "uint64",
          "name": "_version",
          "type": "uint64"
        }
      ],
      "name": "reinitialize",
      "outputs": [],
      "stateMutability": "nonpayable",
      "type": "function"
    },
    {
      "inputs": [],
      "name": "renounceOwnership",
      "outputs": [],
      "stateMutability": "nonpayable",
      "type": "function"
    },
    {
      "inputs": [
        {
          "internalType": "address",
          "name": "",
          "type": "address"
        }
      ],
      "name": "reserves",
      "outputs": [
        {
          "internalType": "uint256",
          "name": "",
          "type": "uint256"
        }
      ],
      "stateMutability": "view",
      "type": "function"
    },
    {
      "inputs": [
        {
          "internalType": "address",
          "name": "fromToken",
          "type": "address"
        },
        {
          "internalType": "address",
          "name": "toToken",
          "type": "address"
        },
        {
          "internalType": "uint256",
          "name": "amount",
          "type": "uint256"
        },
        {
          "internalType": "uint256",
          "name": "minAmount",
          "type": "uint256"
        },
        {
          "internalType": "address",
          "name": "receiver",
          "type": "address"
        },
        {
          "internalType": "uint256",
          "name": "deadline",
          "type": "uint256"
        }
      ],
      "name": "swap",
      "outputs": [
        {
          "internalType": "uint256",
          "name": "amountOut",
          "type": "uint256"
        },
        {
          "internalType": "uint256",
          "name": "fee",
          "type": "uint256"
        }
      ],
      "stateMutability": "nonpayable",
      "type": "function"
    },
    {
      "inputs": [],
      "name": "symbol",
      "outputs": [
        {
          "internalType": "string",
          "name": "",
          "type": "string"
        }
      ],
      "stateMutability": "view",
      "type": "function"
    },
    {
      "inputs": [],
      "name": "totalSupply",
      "outputs": [
        {
          "internalType": "uint256",
          "name": "",
          "type": "uint256"
        }
      ],
      "stateMutability": "view",
      "type": "function"
    },
    {
      "inputs": [],
      "name": "totalValuation",
      "outputs": [
        {
          "internalType": "uint256",
          "name": "totalVal",
          "type": "uint256"
        },
        {
          "internalType": "uint256[]",
          "name": "valuations",
          "type": "uint256[]"
        }
      ],
      "stateMutability": "view",
      "type": "function"
    },
    {
      "inputs": [
        {
          "internalType": "address",
          "name": "to",
          "type": "address"
        },
        {
          "internalType": "uint256",
          "name": "value",
          "type": "uint256"
        }
      ],
      "name": "transfer",
      "outputs": [
        {
          "internalType": "bool",
          "name": "",
          "type": "bool"
        }
      ],
      "stateMutability": "nonpayable",
      "type": "function"
    },
    {
      "inputs": [
        {
          "internalType": "address",
          "name": "from",
          "type": "address"
        },
        {
          "internalType": "address",
          "name": "to",
          "type": "address"
        },
        {
          "internalType": "uint256",
          "name": "value",
          "type": "uint256"
        }
      ],
      "name": "transferFrom",
      "outputs": [
        {
          "internalType": "bool",
          "name": "",
          "type": "bool"
        }
      ],
      "stateMutability": "nonpayable",
      "type": "function"
    },
    {
      "inputs": [
        {
          "internalType": "address",
          "name": "newOwner",
          "type": "address"
        }
      ],
      "name": "transferOwnership",
      "outputs": [],
      "stateMutability": "nonpayable",
      "type": "function"
    },
    {
      "inputs": [],
      "name": "unitPrice",
      "outputs": [
        {
          "internalType": "uint256",
          "name": "",
          "type": "uint256"
        }
      ],
      "stateMutability": "view",
      "type": "function"
    },
    {
      "inputs": [],
      "name": "unpause",
      "outputs": [],
      "stateMutability": "nonpayable",
      "type": "function"
    },
    {
      "inputs": [
        {
          "internalType": "address",
          "name": "newImplementation",
          "type": "address"
        },
        {
          "internalType": "bytes",
          "name": "data",
          "type": "bytes"
        }
      ],
      "name": "upgradeToAndCall",
      "outputs": [],
      "stateMutability": "payable",
      "type": "function"
    },
    {
      "inputs": [
        {
          "internalType": "uint256",
          "name": "share",
          "type": "uint256"
        },
        {
          "internalType": "address",
          "name": "to",
          "type": "address"
        },
        {
          "internalType": "uint256",
          "name": "deadline",
          "type": "uint256"
        }
      ],
      "name": "withdraw",
      "outputs": [
        {
          "internalType": "uint256",
          "name": "",
          "type": "uint256"
        }
      ],
      "stateMutability": "nonpayable",
      "type": "function"
    }
  ],
  "bytecode": "0x60a0806040523460295730608052615b2f908161002e8239608051818181612abf0152612b930152f35b5f80fdfe6080604081815260049081361015610015575f80fd5b5f925f3560e01c90816306fdde0314613a17575080630902f1ac146139fa578063095ea7b3146138d657806312899068146138b157806318160ddd146138745780631a6865021461385057806322acb8671461383357806323b872dd14613684578063250aa6831461365f578063295b93001461362b578063313ce5671461361057806334de9b8d14612f365780633f4ba83a14612e7757806343c2e2f514612e5c5780634aa0665214612e415780634f1ef28614612b3457806352d1902d14612a975780635c975abb14612a5557806367e4ac2c14612a2557806370a08231146129c2578063715018a6146129245780637b103999146128f25780637d7c2a1c146123e35780637ff1c179146123865780638456cb59146122ee57806389b3179b146122c85780638a77c8dc146122a25780638da5cb5b1461224e5780638de30f3014611ffa57806395d89b4114611edb5780639908fc8b14611a4d578063a9059cbb14611a1c578063ad3cb1cc14611989578063b2b55d7014611963578063b3bf9d32146114cc578063b7110e1314611460578063c2ee3a0814611441578063cdf456e11461140c578063cf8fa76414611389578063d14ef46d1461131f578063d66bd524146112db578063dd62ed3e14611249578063e63697c8146109b7578063e64ebdd21461097f578063e73faa2d14610957578063f2fde38b146109275763fb33a6c014610226575f80fd5b346109235760c06003193601126109235767ffffffffffffffff90823582811161091f576102579036908501613d2c565b60243583811161091b5761026e9036908601613d2c565b93604435848111610917576102869036908301613d62565b906064358581116109135761029e9036908301613ddf565b916102a7613bc6565b9160a43597878916890361090f577ff0c57e16840df040f15088dc2f81fe391c3923bec73e23a9662efc9c229c6a0095865460ff818a1c168015610901575b6108d9577fffffffffffffffffffffffffffffffffffffffffffffff000000000000000000168a8a161768010000000000000000178755610325615a00565b61032d615a00565b61033633614bce565b61033e615a00565b610346615a00565b80518981116108ad57808c7f52c63247e1f47db19d5ce0460030c497f067ca4cebf71ba98eeadabe20bace039361037d8554613eeb565b85601f821161083c575b5050602091601f84116001146107a05792610795575b50505f198260011b9260031b1c19161790555b805188811161076957807f52c63247e1f47db19d5ce0460030c497f067ca4cebf71ba98eeadabe20bace04926103e68454613eeb565b601f81116106f9575b506020908d601f841160011461065d5792610652575b50505f198260011b9260031b1c19161790555b610420615a00565b610428615a00565b610430615a00565b8860019360017f9b779b17422d0df92223018b32b4d1fa46e071723d6817e2486d003becc55f0055610460615a00565b610468615a00565b7fcd5ed15c6e187e77e9aee88184c21f4f2182ab5827cb3b7e07fbedcd63f033007fffffffffffffffffffffffffffffffffffffffffffffffffffffffffffffff00815416905573ffffffffffffffffffffffffffffffffffffffff8091166020838554957fffffffffffffffffffffffff00000000000000000000000000000000000000009684888216178255670de0b6b3a76400006001558c5194859384927f1bf01e9b00000000000000000000000000000000000000000000000000000000845216175afa908115610648579383610578969361056e93610573978b9791610619575b501691826002549182161760025564e8d4a5100060035516171515614186565b614ea4565b6141d1565b80879288925b6105e7575b887fc7f505b2f371ae2175ee4913f4499e1f2633a7b5936321eed1cdaeb6115181d260208a8a8a8a6105b86127108c14614256565b7fffffffffffffffffffffffffffffffffffffffffffffff00ffffffffffffffff81541690555191168152a180f35b909192815184101561061357908261060b81936106048785613f8b565b519061421c565b94019261057e565b92610583565b61063b915060203d602011610641575b6106338183613c4e565b81019061415a565b5f61054e565b503d610629565b89513d85823e3d90fd5b015190505f80610405565b927fffffffffffffffffffffffffffffffffffffffffffffffffffffffffffffffe0168584527f46a2803e59a4de4e7a4c574b1243f25977ac4c77d5a1a4a609b5394cebb4a2aa935b8181106106e157509084600195949392106106c9575b505050811b019055610418565b01515f1960f88460031b161c191690555f80806106bc565b929360206001819287860151815501950193016106a6565b909150838d527f46a2803e59a4de4e7a4c574b1243f25977ac4c77d5a1a4a609b5394cebb4a2aa601f840160051c8101916020851061075f575b849392918f91601f0160051c0191905b8282106107515750506103ef565b81558493506001018e610743565b9091508190610733565b60248b6041857f4e487b7100000000000000000000000000000000000000000000000000000000835252fd5b015190505f8061039d565b927fffffffffffffffffffffffffffffffffffffffffffffffffffffffffffffffe0168584527f2ae08a8e29253f69ac5d979a101956ab8f8d9d7ded63fa7a83b16fc47648eab0935b818110610824575090846001959493921061080c575b505050811b0190556103b0565b01515f1960f88460031b161c191690555f80806107ff565b929360206001819287860151815501950193016107e9565b91935091527f2ae08a8e29253f69ac5d979a101956ab8f8d9d7ded63fa7a83b16fc47648eab0601f840160051c810191602085106108a3575b918f9291601f8695930160051c01905b818110610893575085610387565b9283558493508f92600101610885565b9091508190610875565b60248c6041867f4e487b7100000000000000000000000000000000000000000000000000000000835252fd5b8389517ff92ee8a9000000000000000000000000000000000000000000000000000000008152fd5b50898b168a821610156102e6565b8980fd5b8780fd5b8680fd5b8580fd5b8480fd5b8280fd5b833461095457602060031936011261095457610951610944613ba3565b61094c6153ef565b614bce565b80f35b80fd5b83823461097b578160031936011261097b57602090610974614ac2565b9051908152f35b5080fd5b50823461095457602060031936011261095457506109a06109b392356149a2565b9051918291602083526020830190613b70565b0390f35b5091903461097b57606060031936011261097b578035926109d6613be9565b926044916109e7428435101561476d565b6109ef615849565b6109f76159ab565b73ffffffffffffffffffffffffffffffffffffffff918286169586156112075787156111c55782517fdd62ed3e00000000000000000000000000000000000000000000000000000000815233878201908152306020828101919091529591908690829081906040010381305afa90811561112457908a918591611194575b501061112e5783517f23b872dd00000000000000000000000000000000000000000000000000000000815233888201908152306020820152604081018b9052869082908190606001038187305af1908115611124578491611107575b50156110c6577f52c63247e1f47db19d5ce0460030c497f067ca4cebf71ba98eeadabe20bace029788541561108557879086838354168751938480927f3b19e84a0000000000000000000000000000000000000000000000000000000082525afa91821561107b57859261105c575b508282161561101b57845b8554811015610e7157610b6681610b618e6149a2565b613f8b565b5184610b7183613e88565b505416908b8a8a51809481937f70a08231000000000000000000000000000000000000000000000000000000008352309083015260249586915afa908115610e67579082918a91610e32575b5010610dcc578b610c438b610bdb610bd4856158a3565b80956142eb565b938c898d8c610be98b613e88565b50541692518096819582947fa9059cbb000000000000000000000000000000000000000000000000000000009a8b855284016020909392919373ffffffffffffffffffffffffffffffffffffffff60408201951681520152565b03925af1908115610dc2578a91610da5575b5015610d3e57878a8e8b8e94610ca68c610c6e8b613e88565b505416945197889687958694855284016020909392919373ffffffffffffffffffffffffffffffffffffffff60408201951681520152565b03925af1908115610d34578891610d07575b5015610cc75750600101610b4b565b8a7f4173736574207472616e73666572206661696c656400000000000000000000008b60156064948d8d519562461bcd60e51b8752860152840152820152fd5b610d2791508a3d8c11610d2d575b610d1f8183613c4e565b810190614755565b5f610cb8565b503d610d15565b89513d8a823e3d90fd5b5060848c7f42616c756e695631506f6f6c3a20466565205472616e73666572204661696c658d6021868f8f519562461bcd60e51b87528601528401528201527f64000000000000000000000000000000000000000000000000000000000000006064820152fd5b610dbc91508c8d3d10610d2d57610d1f8183613c4e565b5f610c55565b8b513d8c823e3d90fd5b60848c7f42616c756e695631506f6f6c3a20496e73756666696369656e742041737365748d6028868f8f519562461bcd60e51b87528601528401528201527f2042616c616e63650000000000000000000000000000000000000000000000006064820152fd5b8092508c8092503d8311610e60575b610e4b8183613c4e565b81010312610e5c578190515f610bbd565b5f80fd5b503d610e41565b8a513d8b823e3d90fd5b878c88848e8e8e8c3081527f52c63247e1f47db19d5ce0460030c497f067ca4cebf71ba98eeadabe20bace0091828952878783205410610fda57503015610fab5750305f52808752845f205491868310610f665750908591305f52875203835f20558381540390555f82518481527fddf252ad1be2c89b69c2b068fc378daa952ba7f163c4a11628f55a4df523b3ef863092a3610f0c6155a1565b610f14615789565b7f884edad9ce6fa2440d8a54cc123490eb96d2768479d49ff9c7366125a9424364848351858152a260017f9b779b17422d0df92223018b32b4d1fa46e071723d6817e2486d003becc55f005551908152f35b85517fe450d38c000000000000000000000000000000000000000000000000000000008152309181019182526020820193909352604081018790528291506060010390fd5b826024918751917f96c6fd1e000000000000000000000000000000000000000000000000000000008352820152fd5b837f496e73756666696369656e742042414c554e49206c69717569646974790000006064928b8a519362461bcd60e51b8552840152601d6024840152820152fd5b6064897f496e76616c6964207472656173757279206164647265737300000000000000008a8a8a519362461bcd60e51b855284015260186024840152820152fd5b611074919250873d8911610641576106338183613c4e565b905f610b40565b86513d87823e3d90fd5b6064887f4e6f206c69717569646974790000000000000000000000000000000000000000898989519362461bcd60e51b8552840152600c6024840152820152fd5b6064877f5472616e736665722046726f6d204661696c6564000000000000000000000000888888519362461bcd60e51b855284015260146024840152820152fd5b61111e9150863d8811610d2d57610d1f8183613c4e565b5f610ad1565b85513d86823e3d90fd5b6084877f42616c756e695631506f6f6c3a20496e73756666696369656e7420416c6c6f77888888519362461bcd60e51b85528401526024808401528201527f616e6365000000000000000000000000000000000000000000000000000000006064820152fd5b809250878092503d83116111be575b6111ad8183613c4e565b81010312610e5c578990515f610a75565b503d6111a3565b6064867f5368617265206d7573742062652067726561746572207468616e20300000000087602087519362461bcd60e51b8552840152601c6024840152820152fd5b6064867f496e76616c69642061646472657373000000000000000000000000000000000087602087519362461bcd60e51b8552840152600f6024840152820152fd5b83823461097b578060031936011261097b57602090611266613ba3565b73ffffffffffffffffffffffffffffffffffffffff6112ca611286613be9565b9273ffffffffffffffffffffffffffffffffffffffff165f527f52c63247e1f47db19d5ce0460030c497f067ca4cebf71ba98eeadabe20bace0160205260405f2090565b91165f528252805f20549051908152f35b83823461097b57602060031936011261097b578060209273ffffffffffffffffffffffffffffffffffffffff61130f613ba3565b1681526005845220549051908152f35b50903461092357602060031936011261092357359180548310156109545750611349608092613e88565b509073ffffffffffffffffffffffffffffffffffffffff825416916001810154916003600283015492015492815194855260208501528301526060820152f35b50913461095457602060031936011261095457508035906113a8614c8f565b80929150518310156113c9576020846113c18585613f8b565b519051908152f35b606490602085519162461bcd60e51b8352820152601360248201527f496e76616c696420617373657420696e646578000000000000000000000000006044820152fd5b83823461097b578160031936011261097b5760209073ffffffffffffffffffffffffffffffffffffffff600254169051908152f35b83823461097b578160031936011261097b576020906001549051908152f35b50823461095457806003193601126109545761147a61489e565b92908151938285938401908452825180915260608401926020809101955b8281106114b35785806109b387878382036020850152613b70565b8651151585529581019587955093810193600101611498565b5034610923576060600319360112610923576114e6613ba3565b602492833567ffffffffffffffff811161091b576115079036908301613ddf565b906044611517428235101561476d565b61151f615849565b6115276159ab565b7f52c63247e1f47db19d5ce0460030c497f067ca4cebf71ba98eeadabe20bace0254958794611554613f9f565b89549051810361192257156118e15788955b89548710156116e05761157887613e88565b509073ffffffffffffffffffffffffffffffffffffffff809254169161159e8989613f8b565b518a517f23b872dd000000000000000000000000000000000000000000000000000000008152338982019081523060208281019190915260408201939093528e91908390829081906060010381858a5af19182156116d557916116b8575b5015611651575090600192916002541680831461163b576116329261162c916116258c8c613f8b565b5191614388565b9061421c565b965b0195611566565b5061164b91506106048989613f8b565b96611634565b877f42616c756e695631506f6f6c3a205472616e736665722066726f6d206661696c886022898f95608496519562461bcd60e51b87528601528401528201527f65640000000000000000000000000000000000000000000000000000000000006064820152fd5b6116cf9150823d8411610d2d57610d1f8183613c4e565b5f6115fc565b8d51903d90823e3d90fd5b93888893958b811561187a5750816117d3576117009150600354906142a1565b935b84156117925750506020935061171883826154f8565b6117206155a1565b611728615789565b7fe1fffcc4923d04b559f4d29a8bfc6cda04eb5b0d3c460751c2402c5c5cc9109c8473ffffffffffffffffffffffffffffffffffffffff8451938685521692a260017f9b779b17422d0df92223018b32b4d1fa46e071723d6817e2486d003becc55f005551908152f35b907f4d696e7420717479206973203000000000000000000000000000000000000000606492600d88602088519562461bcd60e51b8752860152840152820152fd5b6117db614c8f565b509182156118135761180d9291611801611807926117fc60035480946142a1565b6142a1565b926142a1565b906142b4565b93611702565b6084847f546f74616c206c6971756964697479206d7573742062652067726561746572208960268c60208c519562461bcd60e51b87528601528401528201527f7468616e203000000000000000000000000000000000000000000000000000006064820152fd5b6084847f546f74616c2076616c7565206d7573742062652067726561746572207468616e8960228c60208c519562461bcd60e51b87528601528401528201527f20300000000000000000000000000000000000000000000000000000000000006064820152fd5b6064847f4e6f2061737365747300000000000000000000000000000000000000000000008560098660208d519562461bcd60e51b8752860152840152820152fd5b6064857f496e76616c6964207265736572766573206c656e6774680000000000000000008660178760208e519562461bcd60e51b8752860152840152820152fd5b83823461097b57602060031936011261097b57602090610974611984613ba3565b614803565b5082346109545780600319360112610954575080519080820182811067ffffffffffffffff8211176119f0576109b393508152600582527f352e302e3000000000000000000000000000000000000000000000000000000060208301525191829182613b28565b6041847f4e487b71000000000000000000000000000000000000000000000000000000005f525260245ffd5b83823461097b578060031936011261097b57602090611a46611a3c613ba3565b6024359033614d45565b5160018152f35b5090346109235760c060031936011261092357611a68613ba3565b92611a71613be9565b906044928335606492611a82613bc6565b90611a914260a435101561476d565b611a99615849565b73ffffffffffffffffffffffffffffffffffffffff91828a169485151580611ed0575b15611e8f5783881693848714611e4e578515611e0d578216968715611dcd578a517f23b872dd0000000000000000000000000000000000000000000000000000000081523383820190815230602082810191909152604082018990529a91908b90829081906060010381898d5af1908115611dc35782611b5e9d9e9f611b51611b56948f948d958c92611da6575b50506147b8565b6142f8565b9a8b91614803565b10611d6757611b76611b6f8b6158a3565b809b6142eb565b9a8b15611d005781358c10611c995750508a517fa9059cbb00000000000000000000000000000000000000000000000000000000815273ffffffffffffffffffffffffffffffffffffffff909216908201908152602081018a9052879082908190604001038185875af1918215611c8e57608094927fcd3829a3813dc3cdd188fd3d01dcf3268c16be2fdd2dd21d0665418816e46062969492611c1f9291611c71575b506147b8565b611c276155a1565b611c2f615789565b89519283528683015288820152866060820152a260017f9b779b17422d0df92223018b32b4d1fa46e071723d6817e2486d003becc55f00558351928352820152f35b611c889150893d8b11610d2d57610d1f8183613c4e565b5f611c19565b8a51903d90823e3d90fd5b60849350907f416d6f756e74206f7574206d7573742062652067726561746572207468616e207f6d696e20616d6f756e7400000000000000000000000000000000000000000000928b8f519562461bcd60e51b8752860152602a6024860152840152820152fd5b60849350907f416d6f756e7420746f2073656e64206d757374206265206772656174657220747f68616e2030000000000000000000000000000000000000000000000000000000928b8f519562461bcd60e51b875286015260256024860152840152820152fd5b907f496e73756666696369656e74204c6971756964697479000000000000000000008b8a8e519362461bcd60e51b855284015260166024840152820152fd5b611dbc9250803d10610d2d57610d1f8183613c4e565b8f80611b4a565b8d513d88823e3d90fd5b907f496e76616c6964207265636569766572206164647265737300000000000000008a60208d519362461bcd60e51b855284015260186024840152820152fd5b87827f416d6f756e74206d7573742062652067726561746572207468616e207a65726f8c60208f519362461bcd60e51b855284015260206024840152820152fd5b87827f43616e6e6f742073776170207468652073616d6520746f6b656e0000000000008c60208f519362461bcd60e51b8552840152601a6024840152820152fd5b86907f496e76616c696420746f6b656e206164647265737300000000000000000000008a60208d519362461bcd60e51b855284015260156024840152820152fd5b508388161515611abc565b508234610954578060031936011261095457815190807f52c63247e1f47db19d5ce0460030c497f067ca4cebf71ba98eeadabe20bace048054611f1d81613eeb565b80865292602092600192808416908115611fac5750600114611f55575b6109b38789611f4b828a0383613c4e565b5191829182613b28565b815293507f46a2803e59a4de4e7a4c574b1243f25977ac4c77d5a1a4a609b5394cebb4a2aa5b838510611f9957505050508101602001611f4b826109b38680611f3a565b8054868601840152938201938101611f7b565b90506109b398965087945060209350611f4b9592507fffffffffffffffffffffffffffffffffffffffffffffffffffffffffffffff0091501682840152151560051b82010192948680611f3a565b5034610923576020908160031936011261224a57612016613ba3565b92612027612022614669565b6145bc565b61202f614c8f565b9086549061203c82613f3c565b92885b8381106121ee5750505061205281613f3c565b908788915b8083106121d4575061206d9150600354906142a1565b875b835181101561216c576120828185613f8b565b51612090575b60010161206f565b6120a461209d8286613f8b565b518261545f565b6120ae8285613f8b565b52888761212973ffffffffffffffffffffffffffffffffffffffff6120d285613e88565b5054166120df8589613f8b565b518a517f23b872dd000000000000000000000000000000000000000000000000000000008152338b8201908152306020820152604081019290925294859384928391606090910190565b03925af18015612162579060019291612145575b509050612088565b61215b90893d8b11610d2d57610d1f8183613c4e565b505f61213d565b87513d8c823e3d90fd5b506109b394935061217d91966154f8565b6121856155a1565b61218d615789565b7fa95ad530009c6f929555e70a66aadbeae7231e45756c5b028ca77fbaa376e73e8251858152806121c2339488830190613b70565b0390a251928284938452830190613b70565b906121e56001916106048588613f8b565b92019190612057565b8061271061220a60016122018195613e88565b500154866142a1565b04806122168386613f8b565b5110612224575b500161203f565b612239906122328386613f8b565b51906142eb565b6122438288613f8b565b525f61221d565b8380fd5b83823461097b578160031936011261097b5760209073ffffffffffffffffffffffffffffffffffffffff7f9016d09d72d40fdae2fd8ceac6b6234c7706214fd39c1cd1e609a0528c19930054169051908152f35b83823461097b578160031936011261097b576020906122bf614669565b90519015158152f35b83823461097b57602060031936011261097b576020906109746122e9613ba3565b614607565b83823461097b578160031936011261097b5760207f62e78cea01bee320cd4e420270b5ea74000d11b0c9f74754ebdbfc544b05a2589161232c6153ef565b6123346159ab565b7fcd5ed15c6e187e77e9aee88184c21f4f2182ab5827cb3b7e07fbedcd63f0330060017fffffffffffffffffffffffffffffffffffffffffffffffffffffffffffffff0082541617905551338152a180f35b50823461095457806003193601126109545780546123a381613f3c565b915b8181106123c1578351602080825281906109b390820186613b70565b8060026123cf600193613e88565b5001546123dc8286613f8b565b52016123a5565b50919034610e5c57600319905f82360112610e5c57612403612022614669565b73ffffffffffffffffffffffffffffffffffffffff80825416938551907fcff49d68000000000000000000000000000000000000000000000000000000008252602094858386818a5afa92831561284e575f936128d3575b5061246461452c565b90858761246f6140cb565b998b51928380927f4f4608a20000000000000000000000000000000000000000000000000000000082525afa9081156128c9575f9161289a575b5061250b606491335f527f52c63247e1f47db19d5ce0460030c497f067ca4cebf71ba98eeadabe20bace008a526125068c5f2054917f52c63247e1f47db19d5ce0460030c497f067ca4cebf71ba98eeadabe20bace0254926142a1565b6142b4565b10612858575f5b5f5481101561268757808a89878961252c61258996613e88565b505484517fdd62ed3e00000000000000000000000000000000000000000000000000000000815230818f0190815273ffffffffffffffffffffffffffffffffffffffff909416602085015296879392909116918391829160400190565b03915afa801561267d57878b928a928c965f91612647575b505f198091106125bb575b50505050506001915001612512565b604492915f91856125cb89613e88565b505416915198899687957f095ea7b3000000000000000000000000000000000000000000000000000000008752169085015260248401525af191821561263d57600192612620575b88925087878d8c936125ac565b612636908a3d8c11610d2d57610d1f8183613c4e565b505f612613565b8b513d5f823e3d90fd5b96505050505082813d8311612676575b6126618183613c4e565b81010312610e5c578887878d8b95515f6125a1565b503d612657565b50513d5f823e3d90fd5b50928894869398969296612699613f9f565b9289838654168951968780927fea233c050000000000000000000000000000000000000000000000000000000082525afa94851561284e575f9561281f575b508216916002541690823b15610e5c57855f9560e0936127536127349a89956127448f8f519e8f9c8d9b8c9a7ff0bf7714000000000000000000000000000000000000000000000000000000008c528b015260e48a0190613b70565b90848983030160248a0152613e3f565b91868303016044870152613b70565b9160648401523060848401523060a484015260c483015203925af18015612815576127c8575b50507f279b343370f587af7fb675ae7c8578e9c8abcc373236ad02c501a4771fe7a7b8916127c2916127a96155a1565b6127b1615789565b519182918583523395830190613e3f565b0390a280f35b9091945067ffffffffffffffff82116127e9575083525f92816127c2612779565b6041907f4e487b71000000000000000000000000000000000000000000000000000000005f525260245ffd5b83513d5f823e3d90fd5b9094508981813d8311612847575b6128378183613c4e565b81010312610e5c575193826126d8565b503d61282d565b88513d5f823e3d90fd5b606486888b519162461bcd60e51b8352820152601460248201527f496e73756666696369656e742062616c616e63650000000000000000000000006044820152fd5b90508781813d83116128c2575b6128b18183613c4e565b81010312610e5c575161250b6124a9565b503d6128a7565b8a513d5f823e3d90fd5b6128eb919350863d8811610641576106338183613c4e565b915f61245b565b5034610e5c575f600319360112610e5c5773ffffffffffffffffffffffffffffffffffffffff60209254169051908152f35b34610e5c575f600319360112610e5c5761293c6153ef565b5f73ffffffffffffffffffffffffffffffffffffffff7f9016d09d72d40fdae2fd8ceac6b6234c7706214fd39c1cd1e609a0528c1993008054907fffffffffffffffffffffffff000000000000000000000000000000000000000082169055167f8be0079c531659141344cd1fd0a4f28419497f9722a3daafe3b4186f6b6457e08280a3005b5034610e5c576020600319360112610e5c5760209073ffffffffffffffffffffffffffffffffffffffff6129f4613ba3565b165f527f52c63247e1f47db19d5ce0460030c497f067ca4cebf71ba98eeadabe20bace008252805f20549051908152f35b5034610e5c575f600319360112610e5c576109b390612a4261452c565b9051918291602083526020830190613e3f565b5034610e5c575f600319360112610e5c5760209060ff7fcd5ed15c6e187e77e9aee88184c21f4f2182ab5827cb3b7e07fbedcd63f03300541690519015158152f35b5034610e5c575f600319360112610e5c5773ffffffffffffffffffffffffffffffffffffffff7f0000000000000000000000000000000000000000000000000000000000000000163003612b0e57602090517f360894a13ba1a3210667c828492db98dca3e2076cc3735a920a3ca505d382bbc8152f35b517fe07c8dba000000000000000000000000000000000000000000000000000000008152fd5b509081600319360112610e5c57612b49613ba3565b9160243567ffffffffffffffff8111610e5c5736602382011215610e5c57612b7a9036906024818601359101613cf6565b9073ffffffffffffffffffffffffffffffffffffffff807f000000000000000000000000000000000000000000000000000000000000000016803014908115612e13575b50612deb57612bcb6153ef565b8416918151947f52d1902d00000000000000000000000000000000000000000000000000000000865260209081878781885afa5f9781612dbc575b50612c3a57602486868651917f4c9c8ce3000000000000000000000000000000000000000000000000000000008352820152fd5b919490937f360894a13ba1a3210667c828492db98dca3e2076cc3735a920a3ca505d382bbc877fc9f76b5ec45e5cdef99837d7b6d2467235c1df8933c8ca56df5c35afa2c7d4448101612d8d5750833b15612d5e57817fffffffffffffffffffffffff00000000000000000000000000000000000000008254161790558351907fbc7cd75a20ee27fd9adebab32041f755214dbc6bffa90cc0225b39da2e5c2d3b5f80a2855115612d2c5750505f808585612d2097519101845af4913d15612d22573d612d12612d0982613cbc565b92519283613c4e565b81525f81943d92013e615a59565b005b5060609250615a59565b93509350505034612d3957005b7fb398979f000000000000000000000000000000000000000000000000000000008152fd5b602483838751917f4c9c8ce3000000000000000000000000000000000000000000000000000000008352820152fd5b836024918751917faa1d49a4000000000000000000000000000000000000000000000000000000008352820152fd5b9097508281813d8311612de4575b612dd48183613c4e565b81010312610e5c57519688612c06565b503d612dca565b8382517fe07c8dba000000000000000000000000000000000000000000000000000000008152fd5b9050817f360894a13ba1a3210667c828492db98dca3e2076cc3735a920a3ca505d382bbc5416141586612bbe565b5034610e5c57602090610974612e5636613c0c565b91614388565b5034610e5c57602090610974612e7136613c0c565b916142f8565b5034610e5c575f600319360112610e5c57612e906153ef565b7fcd5ed15c6e187e77e9aee88184c21f4f2182ab5827cb3b7e07fbedcd63f033009182549060ff821615612f0f577f5db9ee0a495bf2e6ff9c91a7834c1ba4fdd244a5e8aa4e537bd38aeae4b073aa602084867fffffffffffffffffffffffffffffffffffffffffffffffffffffffffffffff008616905551338152a1005b82517f8dfc202b000000000000000000000000000000000000000000000000000000008152fd5b509034610e5c5760a0600319360112610e5c5767ffffffffffffffff8135818111610e5c57612f689036908401613d2c565b602435828111610e5c57612f7f9036908501613d2c565b92604435838111610e5c57612f979036908301613d62565b606435848111610e5c57612fae9036908401613ddf565b91612fb7613bc6565b907ff0c57e16840df040f15088dc2f81fe391c3923bec73e23a9662efc9c229c6a009687549660ff888b1c16159681891698891580613609575b6001809b1490816135ff575b1590816135f6575b506135ce57888a7fffffffffffffffffffffffffffffffffffffffffffffffff00000000000000008316178c55613599575b50613040615a00565b613048615a00565b61305133614bce565b613059615a00565b613061615a00565b805182811161356d577f52c63247e1f47db19d5ce0460030c497f067ca4cebf71ba98eeadabe20bace0390806130978354613eeb565b93601f94858111613500575b5060209085831160011461345d575f92613452575b50505f19828d1b9260031b1c19161790555b82519182116119f05781907f52c63247e1f47db19d5ce0460030c497f067ca4cebf71ba98eeadabe20bace04936131018554613eeb565b8281116133e3575b50602091831160011461334a575f9261333f575b50505f19828a1b9260031b1c19161790555b613137615a00565b61313f615a00565b613147615a00565b857f9b779b17422d0df92223018b32b4d1fa46e071723d6817e2486d003becc55f0055613172615a00565b61317a615a00565b7fcd5ed15c6e187e77e9aee88184c21f4f2182ab5827cb3b7e07fbedcd63f033007fffffffffffffffffffffffffffffffffffffffffffffffffffffffffffffff00815416905573ffffffffffffffffffffffffffffffffffffffff8092169260207fffffffffffffffffffffffff0000000000000000000000000000000000000000948086855416178455670de0b6b3a764000089558a51938480927f1bf01e9b0000000000000000000000000000000000000000000000000000000082525afa918215613335576132749461057394879461056e935f91613316575b50168091600254161760025564e8d4a510006003551515614186565b82805f925f925b6132e8575b5050506127106132909114614256565b61329657005b7fc7f505b2f371ae2175ee4913f4499e1f2633a7b5936321eed1cdaeb6115181d292827fffffffffffffffffffffffffffffffffffffffffffffff00ffffffffffffffff6020945416905551908152a1005b909192815184101561330d5761330383916106048685613f8b565b930191908161327b565b92829150613280565b61332f915060203d602011610641576106338183613c4e565b8d613258565b89513d5f823e3d90fd5b015190508b8061311d565b907fffffffffffffffffffffffffffffffffffffffffffffffffffffffffffffffe08b941691855f527f46a2803e59a4de4e7a4c574b1243f25977ac4c77d5a1a4a609b5394cebb4a2aa925f5b8181106133cb575084116133b3575b505050811b01905561312f565b01515f1960f88460031b161c191690558b80806133a6565b8284015185558d969094019360209384019301613397565b90919250845f527f46a2803e59a4de4e7a4c574b1243f25977ac4c77d5a1a4a609b5394cebb4a2aa8380860160051c82019260208710613449575b9186958e929594930160051c01915b82811061343b575050613109565b5f81558695508d910161342d565b9250819261341e565b015190508e806130b8565b907fffffffffffffffffffffffffffffffffffffffffffffffffffffffffffffffe08e941691855f527f2ae08a8e29253f69ac5d979a101956ab8f8d9d7ded63fa7a83b16fc47648eab0925f5b8181106134de575084116134c6575b505050811b0190556130ca565b01515f1960f88460031b161c191690558e80806134b9565b93839596602092939491839286015181550195019301908f95949392916134aa565b909150835f527f2ae08a8e29253f69ac5d979a101956ab8f8d9d7ded63fa7a83b16fc47648eab08580850160051c82019260208610613564575b918f91869594930160051c01915b8281106135565750506130a3565b5f81558594508f9101613548565b9250819261353a565b6041857f4e487b71000000000000000000000000000000000000000000000000000000005f525260245ffd5b7fffffffffffffffffffffffffffffffffffffffffffffff0000000000000000001668010000000000000001178a558b613037565b848c517ff92ee8a9000000000000000000000000000000000000000000000000000000008152fd5b9050158d613005565b303b159150612ffd565b5088612ff1565b5034610e5c575f600319360112610e5c576020905160128152f35b5034610e5c575f600319360112610e5c576109b3613647614c8f565b83929192519384938452806020850152830190613b70565b5034610e5c576020600319360112610e5c5760209061097461367f613ba3565b614106565b509034610e5c5761369436613c0c565b926136de83929373ffffffffffffffffffffffffffffffffffffffff165f527f52c63247e1f47db19d5ce0460030c497f067ca4cebf71ba98eeadabe20bace0160205260405f2090565b335f52602052845f2054905f198203613700575b602086611a46878787614d45565b8482106137ef5773ffffffffffffffffffffffffffffffffffffffff8316156137c05733156137915750918184611a469461377c602098979573ffffffffffffffffffffffffffffffffffffffff165f527f52c63247e1f47db19d5ce0460030c497f067ca4cebf71ba98eeadabe20bace0160205260405f2090565b335f52885203855f20559193948193506136f2565b6024905f8751917f94280d62000000000000000000000000000000000000000000000000000000008352820152fd5b6024905f8751917fe602df05000000000000000000000000000000000000000000000000000000008352820152fd5b85517ffb8f41b20000000000000000000000000000000000000000000000000000000081523391810191825260208201929092526040810185905281906060010390fd5b5034610e5c575f600319360112610e5c576109b3906109a06140cb565b5034610e5c575f600319360112610e5c5760209061386c614c8f565b509051908152f35b5034610e5c575f600319360112610e5c576020907f52c63247e1f47db19d5ce0460030c497f067ca4cebf71ba98eeadabe20bace02549051908152f35b5034610e5c576020600319360112610e5c576020906109746138d1613ba3565b614071565b5034610e5c5780600319360112610e5c576138ef613ba3565b6024359033156139cb5773ffffffffffffffffffffffffffffffffffffffff1690811561399c57602093506139613373ffffffffffffffffffffffffffffffffffffffff165f527f52c63247e1f47db19d5ce0460030c497f067ca4cebf71ba98eeadabe20bace0160205260405f2090565b825f52845280835f205582519081527f8c5be1e5ebec7d5bd14f71427d1e84f3dd0314c0f7b2291e5b200ac8c7c3b925843392a35160018152f35b6024845f8551917f94280d62000000000000000000000000000000000000000000000000000000008352820152fd5b6024845f8551917fe602df05000000000000000000000000000000000000000000000000000000008352820152fd5b5034610e5c575f600319360112610e5c576109b3906109a0613f9f565b905034610e5c575f600319360112610e5c575f7f52c63247e1f47db19d5ce0460030c497f067ca4cebf71ba98eeadabe20bace03805490613a5782613eeb565b80855291602091600191828116908115613add5750600114613a85575b6109b38688611f4b82890383613c4e565b5f90815293507f2ae08a8e29253f69ac5d979a101956ab8f8d9d7ded63fa7a83b16fc47648eab05b838510613aca57505050508101602001611f4b826109b386613a74565b8054868601840152938201938101613aad565b6109b398965087945060209350611f4b9592507fffffffffffffffffffffffffffffffffffffffffffffffffffffffffffffff0091501682840152151560051b820101929486613a74565b7fffffffffffffffffffffffffffffffffffffffffffffffffffffffffffffffe0601f602060409481855280519182918282880152018686015e5f8582860101520116010190565b9081518082526020808093019301915f5b828110613b8f575050505090565b835185529381019392810192600101613b81565b6004359073ffffffffffffffffffffffffffffffffffffffff82168203610e5c57565b6084359073ffffffffffffffffffffffffffffffffffffffff82168203610e5c57565b6024359073ffffffffffffffffffffffffffffffffffffffff82168203610e5c57565b6003196060910112610e5c5773ffffffffffffffffffffffffffffffffffffffff906004358281168103610e5c57916024359081168103610e5c579060443590565b90601f7fffffffffffffffffffffffffffffffffffffffffffffffffffffffffffffffe0910116810190811067ffffffffffffffff821117613c8f57604052565b7f4e487b71000000000000000000000000000000000000000000000000000000005f52604160045260245ffd5b67ffffffffffffffff8111613c8f57601f017fffffffffffffffffffffffffffffffffffffffffffffffffffffffffffffffe01660200190565b929192613d0282613cbc565b91613d106040519384613c4e565b829481845281830111610e5c578281602093845f960137010152565b9080601f83011215610e5c57816020613d4793359101613cf6565b90565b67ffffffffffffffff8111613c8f5760051b60200190565b9080601f83011215610e5c576020908235613d7c81613d4a565b93613d8a6040519586613c4e565b81855260208086019260051b820101928311610e5c57602001905b828210613db3575050505090565b813573ffffffffffffffffffffffffffffffffffffffff81168103610e5c578152908301908301613da5565b9080601f83011215610e5c576020908235613df981613d4a565b93613e076040519586613c4e565b81855260208086019260051b820101928311610e5c57602001905b828210613e30575050505090565b81358152908301908301613e22565b9081518082526020808093019301915f5b828110613e5e575050505090565b835173ffffffffffffffffffffffffffffffffffffffff1685529381019392810192600101613e50565b5f54811015613ebe575f805260021b7f290decd9548b62a8d60345a988386fc84ba6bc95484008f6362f93160ef3e56301905f90565b7f4e487b71000000000000000000000000000000000000000000000000000000005f52603260045260245ffd5b90600182811c92168015613f32575b6020831014613f0557565b7f4e487b71000000000000000000000000000000000000000000000000000000005f52602260045260245ffd5b91607f1691613efa565b90613f4682613d4a565b613f536040519182613c4e565b8281527fffffffffffffffffffffffffffffffffffffffffffffffffffffffffffffffe0613f818294613d4a565b0190602036910137565b8051821015613ebe5760209160051b010190565b5f54613faa81613f3c565b905f5b818110613fb957505090565b73ffffffffffffffffffffffffffffffffffffffff613fd782613e88565b505416906040805180937f70a0823100000000000000000000000000000000000000000000000000000000825230600483015281602460209384935afa91821561406857505f91614039575b50600192506140328286613f8b565b5201613fad565b905082813d8311614061575b61404f8183613c4e565b81010312610e5c57600191515f614023565b503d614045565b513d5f823e3d90fd5b5f905f54915b828110614085575050505f90565b61408e81613e88565b505473ffffffffffffffffffffffffffffffffffffffff8381169116146140b757600101614077565b600292506140c59150613e88565b50015490565b5f546140d681613f3c565b905f5b8181106140e557505090565b8060016140f28193613e88565b5001546140ff8286613f8b565b52016140d9565b5f905f54915b82811061411a575050505f90565b61412381613e88565b505473ffffffffffffffffffffffffffffffffffffffff83811691161461414c5760010161410c565b600192506140c59150613e88565b90816020910312610e5c575173ffffffffffffffffffffffffffffffffffffffff81168103610e5c5790565b1561418d57565b606460405162461bcd60e51b815260206004820152601a60248201527f496e76616c6964206261736520617373657420616464726573730000000000006044820152fd5b156141d857565b606460405162461bcd60e51b815260206004820152601560248201527f496e697469616c697a6174696f6e206661696c656400000000000000000000006044820152fd5b9190820180921161422957565b7f4e487b71000000000000000000000000000000000000000000000000000000005f52601160045260245ffd5b1561425d57565b606460405162461bcd60e51b815260206004820152600f60248201527f496e76616c6964207765696768747300000000000000000000000000000000006044820152fd5b8181029291811591840414171561422957565b81156142be570490565b7f4e487b71000000000000000000000000000000000000000000000000000000005f52601260045260245ffd5b9190820391821161422957565b9091614305908383614388565b61436761431183614071565b9161431b85614071565b61432485614106565b61435261434361434b6143368a614106565b97612710928391886142a1565b0494866142a1565b0496614607565b101561437f57614361916142eb565b93614607565b111561437657613d479161421c565b613d47916142eb565b6143619161421c565b9173ffffffffffffffffffffffffffffffffffffffff928360045416926040948551927fbb3ba04c00000000000000000000000000000000000000000000000000000000958685526020968786600481855afa958615613335579088915f9761450d575b5060048a518094819382525afa90811561284e579083915f916144f0575b5016156144ad5786517f248391ff00000000000000000000000000000000000000000000000000000000815273ffffffffffffffffffffffffffffffffffffffff91821660048201529216602483015260448201939093529291829184916064918391165afa92831561406857505f9261448357505090565b90809250813d83116144a6575b61449a8183613c4e565b81010312610e5c575190565b503d614490565b60648688519062461bcd60e51b82526004820152601660248201527f496e76616c6964206f7261636c652061646472657373000000000000000000006044820152fd5b6145079150883d8a11610641576106338183613c4e565b5f61440a565b614525919750823d8411610641576106338183613c4e565b955f6143ec565b5f5461453781613d4a565b906145456040519283613c4e565b8082527fffffffffffffffffffffffffffffffffffffffffffffffffffffffffffffffe061457282613d4a565b013660208401375f5b81811061458757505090565b8073ffffffffffffffffffffffffffffffffffffffff6145a8600193613e88565b5054166145b58286613f8b565b520161457b565b156145c357565b606460405162461bcd60e51b815260206004820152601460248201527f526562616c616e6365206e6f74206e65656465640000000000000000000000006044820152fd5b61460f61489e565b90505f915f54925b83811061462657505050505f90565b61462f81613e88565b505473ffffffffffffffffffffffffffffffffffffffff83811691161461465857600101614617565b9190506146659250613f8b565b5190565b6004602073ffffffffffffffffffffffffffffffffffffffff825416604051928380927fea233c050000000000000000000000000000000000000000000000000000000082525afa90811561474a575f91614718575b506146c861489e565b90915f5b8251811015614710576146df8185613f8b565b511515806146fd575b6146f4576001016146cc565b50505050600190565b50816147098285613f8b565b51116146e8565b505050505f90565b90506020813d602011614742575b8161473360209383613c4e565b81010312610e5c57515f6146bf565b3d9150614726565b6040513d5f823e3d90fd5b90816020910312610e5c57518015158103610e5c5790565b1561477457565b606460405162461bcd60e51b815260206004820152600760248201527f45585049524544000000000000000000000000000000000000000000000000006044820152fd5b156147bf57565b606460405162461bcd60e51b815260206004820152601560248201527f546f6b656e207472616e73666572206661696c656400000000000000000000006044820152fd5b5f8054909291835b82811061481757505050565b61482081613e88565b505473ffffffffffffffffffffffffffffffffffffffff8381169116811461484b575060010161480b565b939450505050604090815180917f70a0823100000000000000000000000000000000000000000000000000000000825230600483015281602460209384935afa92831561406857505f9261448357505090565b6148a6614c8f565b91905f54906148b482613d4a565b916148c26040519384613c4e565b8083527fffffffffffffffffffffffffffffffffffffffffffffffffffffffffffffffe06148ef82613d4a565b013660208501376148ff81613f3c565b945f5b82811061491157505050509190565b61491b8183613f8b565b5190612710918281029281840414901517156142295761493d856001936142b4565b61494682613e88565b5083015483918181111561497b579061495e916142eb565b614968838b613f8b565b526149738288613f8b565b525b01614902565b9061498692506142eb565b614990828a613f8b565b525f61499c8288613f8b565b52614975565b6149b5906149af816158a3565b906142eb565b5f54906149c182613f3c565b915f7f52c63247e1f47db19d5ce0460030c497f067ca4cebf71ba98eeadabe20bace0254905b8281106149f5575050505090565b73ffffffffffffffffffffffffffffffffffffffff614a1382613e88565b505416604090815180917f70a0823100000000000000000000000000000000000000000000000000000000825230600483015281602460209384935afa92831561406857509186918594935f92614a88575b505092612506614a77926001956142a1565b614a818288613f8b565b52016149e7565b925093505082813d8311614abb575b614aa18183613c4e565b81010312610e5c5790518291908590612506614a77614a65565b503d614a97565b6004602073ffffffffffffffffffffffffffffffffffffffff60025416604051928380927f313ce5670000000000000000000000000000000000000000000000000000000082525afa801561474a575f90614b91575b60ff9150166012036012811161422957604d8111614229577f52c63247e1f47db19d5ce0460030c497f067ca4cebf71ba98eeadabe20bace02548015614b8b57614b60614c8f565b508015614b8457614b7b61250691613d4794600a0a906142a1565b600154906142a1565b5050505f90565b50505f90565b506020813d602011614bc6575b81614bab60209383613c4e565b81010312610e5c575160ff81168103610e5c5760ff90614b18565b3d9150614b9e565b73ffffffffffffffffffffffffffffffffffffffff809116908115614c5f577f9016d09d72d40fdae2fd8ceac6b6234c7706214fd39c1cd1e609a0528c199300805490837fffffffffffffffffffffffff00000000000000000000000000000000000000008316179055167f8be0079c531659141344cd1fd0a4f28419497f9722a3daafe3b4186f6b6457e05f80a3565b60246040517f1e4fbdf70000000000000000000000000000000000000000000000000000000081525f6004820152fd5b5f905f5491614c9d83613f3c565b925f9073ffffffffffffffffffffffffffffffffffffffff8060025416905b828410614ccb57505050509190565b9091929381614cd986613e88565b505416614ce581614803565b8015614d3a5791816001938680614d1695145f14614d2157509050614d0a888b613f8b565b525b610604878a613f8b565b945b01929190614cbc565b614d2a92614388565b614d34888b613f8b565b52614d0c565b505093600190614d18565b9173ffffffffffffffffffffffffffffffffffffffff808416928315614e745716928315614e4457825f527f52c63247e1f47db19d5ce0460030c497f067ca4cebf71ba98eeadabe20bace008060205260405f205491838310614deb575091806020927fddf252ad1be2c89b69c2b068fc378daa952ba7f163c4a11628f55a4df523b3ef94865f5284520360405f2055845f5260405f20818154019055604051908152a3565b6040517fe450d38c00000000000000000000000000000000000000000000000000000000815273ffffffffffffffffffffffffffffffffffffffff91909116600482015260248101929092525060448101829052606490fd5b60246040517fec442f050000000000000000000000000000000000000000000000000000000081525f6004820152fd5b60246040517f96c6fd1e0000000000000000000000000000000000000000000000000000000081525f6004820152fd5b919073ffffffffffffffffffffffffffffffffffffffff600490808254166040958651947fcff49d68000000000000000000000000000000000000000000000000000000009283875260209687818881855afa9485156128c95788915f966153d0575b50878b518094819382525afa80156133355785915f916153b3575b501615615371578151815103615309575f545f80558061525a575b505f5b825181101561524d5784614f548285613f8b565b51161561520b57614f658183613f8b565b51156151c95784614f768285613f8b565b5116614f828284613f8b565b518a51916080830183811067ffffffffffffffff82111761519d578c5282528882019081528a82015f815260608301915f83525f54906801000000000000000082101561517157614fd96001928381015f55613e88565b959095615146575185547fffffffffffffffffffffffff000000000000000000000000000000000000000016908b1617855551908401555160028301555160039190910155846150298285613f8b565b518a517fdd62ed3e0000000000000000000000000000000000000000000000000000000081523089820190815273ffffffffffffffffffffffffffffffffffffffff881660208201529290911692918990829081906040010381865afa801561263d5789915f91615117575b50156150a7575b506001915001614f40565b5f9260448c51809581937f095ea7b30000000000000000000000000000000000000000000000000000000083528b8b168d8401525f1960248401525af19182156128c9576001926150fa575b508761509c565b61511090893d8b11610d2d57610d1f8183613c4e565b505f6150f3565b82819392503d831161513f575b61512e8183613c4e565b81010312610e5c578890515f615095565b503d615124565b5f8c7f4e487b710000000000000000000000000000000000000000000000000000000082525260245ffd5b60418b7f4e487b71000000000000000000000000000000000000000000000000000000005f525260245ffd5b60418a7f4e487b71000000000000000000000000000000000000000000000000000000005f525260245ffd5b606486888b519162461bcd60e51b8352820152600e60248201527f496e76616c6964207765696768740000000000000000000000000000000000006044820152fd5b606486888b519162461bcd60e51b8352820152601560248201527f496e76616c6964206173736574206164647265737300000000000000000000006044820152fd5b5060019750505050505050565b60027f3fffffffffffffffffffffffffffffffffffffffffffffffffffffffffffffff821682036152dd575f8052867f290decd9548b62a8d60345a988386fc84ba6bc95484008f6362f93160ef3e5639260021b8301925b8381106152c157505050614f3d565b5f81555f60018201555f838201555f60038201550187906152b2565b6011877f4e487b71000000000000000000000000000000000000000000000000000000005f525260245ffd5b608485878a519162461bcd60e51b8352820152602260248201527f41737365747320616e642077656967687473206c656e677468206d69736d617460448201527f63680000000000000000000000000000000000000000000000000000000000006064820152fd5b606485878a519162461bcd60e51b8352820152601a60248201527f496e76616c696420726562616c616e63657220616464726573730000000000006044820152fd5b6153ca9150883d8a11610641576106338183613c4e565b5f614f22565b6153e8919650823d8411610641576106338183613c4e565b945f614f07565b73ffffffffffffffffffffffffffffffffffffffff7f9016d09d72d40fdae2fd8ceac6b6234c7706214fd39c1cd1e609a0528c1993005416330361542f57565b60246040517f118cdaa7000000000000000000000000000000000000000000000000000000008152336004820152fd5b9061546982613e88565b505460025473ffffffffffffffffffffffffffffffffffffffff90811691811682146154f15761549b6154a494613e88565b50541690614388565b80156154ad5790565b606460405162461bcd60e51b815260206004820152601b60248201527f496e76616c696420746f6b656e20616d6f756e7420746f2061646400000000006044820152fd5b5050905090565b73ffffffffffffffffffffffffffffffffffffffff16908115614e44577fddf252ad1be2c89b69c2b068fc378daa952ba7f163c4a11628f55a4df523b3ef60205f927f52c63247e1f47db19d5ce0460030c497f067ca4cebf71ba98eeadabe20bace0261556682825461421c565b90558484527f52c63247e1f47db19d5ce0460030c497f067ca4cebf71ba98eeadabe20bace00825260408420818154019055604051908152a3565b6155a961489e565b5f9291925b5f54811015615783576155c081613e88565b50600280910154606490816155d58587613f8b565b51111561576a576155e68488613f8b565b51156156a057816155f78587613f8b565b51046156108461560687613e88565b500191825461421c565b90558261561c85613e88565b5001541061565e5750906001915b8061563483613e88565b50600a92839101541161564b575b50505b016155ae565b61565483613e88565b5001555f80615642565b60405162461bcd60e51b815260206004820152601e60248201527f4f766572666c6f7720696e6372656d656e74696e6720736c69707061676500006044820152fd5b826156aa85613e88565b500154826156b88688613f8b565b5104101561574457816156cb8587613f8b565b51046156e4846156da87613e88565b50019182546142eb565b9055826156f085613e88565b5001541161570257509060019161562a565b60405162461bcd60e51b815260206004820152601f60248201527f556e646572666c6f772064656372656d656e74696e6720736c697070616765006044820152fd5b5090829161575460019486613f8b565b51046157638261560685613e88565b905561562a565b505090600a60019261577b83613e88565b500155615645565b50509050565b5f5b5f548110156158465773ffffffffffffffffffffffffffffffffffffffff6157b282613e88565b505416906040805180937f70a0823100000000000000000000000000000000000000000000000000000000825230600483015281602460209384935afa91821561406857505f91615817575b5060019250600361580e83613e88565b5001550161578b565b905082813d831161583f575b61582d8183613c4e565b81010312610e5c57600191515f6157fe565b503d615823565b50565b7f9b779b17422d0df92223018b32b4d1fa46e071723d6817e2486d003becc55f0060028154146158795760029055565b60046040517f3ee5aeb5000000000000000000000000000000000000000000000000000000008152fd5b73ffffffffffffffffffffffffffffffffffffffff60045416604051917f85462d6f0000000000000000000000000000000000000000000000000000000083526020918284600481845afa93841561474a575f9461597c575b5082600491604051928380927f4f4608a20000000000000000000000000000000000000000000000000000000082525afa92831561474a575f9361594a575b5050613d4792612506916142a1565b9080929350813d8311615975575b6159628183613c4e565b81010312610e5c5751908261250661593b565b503d615958565b9093508281813d83116159a4575b6159948183613c4e565b81010312610e5c575192826158fc565b503d61598a565b60ff7fcd5ed15c6e187e77e9aee88184c21f4f2182ab5827cb3b7e07fbedcd63f0330054166159d657565b60046040517fd93c0665000000000000000000000000000000000000000000000000000000008152fd5b60ff7ff0c57e16840df040f15088dc2f81fe391c3923bec73e23a9662efc9c229c6a005460401c1615615a2f57565b60046040517fd7e6bcf8000000000000000000000000000000000000000000000000000000008152fd5b90615a985750805115615a6e57805190602001fd5b60046040517f1425ea42000000000000000000000000000000000000000000000000000000008152fd5b81511580615af0575b615aa9575090565b60249073ffffffffffffffffffffffffffffffffffffffff604051917f9996b315000000000000000000000000000000000000000000000000000000008352166004820152fd5b50803b15615aa156fea26469706673582212200f187d44e54a070a0add98dc4c558786c479aaa6d69acb566640a543ece379c164736f6c63430008190033",
  "linkReferences": {},
  "deployedLinkReferences": {}
}