{
  "_format": "hh-sol-artifact-1",
  "contractName": "BaluniV1Pool",
  "sourceName": "contracts/pools/BaluniV1Pool.sol",
  "abi": [
    {
      "inputs": [
        {
          "internalType": "address",
          "name": "target",
          "type": "address"
        }
      ],
      "name": "AddressEmptyCode",
      "type": "error"
    },
    {
      "inputs": [
        {
          "internalType": "address",
          "name": "implementation",
          "type": "address"
        }
      ],
      "name": "ERC1967InvalidImplementation",
      "type": "error"
    },
    {
      "inputs": [],
      "name": "ERC1967NonPayable",
      "type": "error"
    },
    {
      "inputs": [
        {
          "internalType": "address",
          "name": "spender",
          "type": "address"
        },
        {
          "internalType": "uint256",
          "name": "allowance",
          "type": "uint256"
        },
        {
          "internalType": "uint256",
          "name": "needed",
          "type": "uint256"
        }
      ],
      "name": "ERC20InsufficientAllowance",
      "type": "error"
    },
    {
      "inputs": [
        {
          "internalType": "address",
          "name": "sender",
          "type": "address"
        },
        {
          "internalType": "uint256",
          "name": "balance",
          "type": "uint256"
        },
        {
          "internalType": "uint256",
          "name": "needed",
          "type": "uint256"
        }
      ],
      "name": "ERC20InsufficientBalance",
      "type": "error"
    },
    {
      "inputs": [
        {
          "internalType": "address",
          "name": "approver",
          "type": "address"
        }
      ],
      "name": "ERC20InvalidApprover",
      "type": "error"
    },
    {
      "inputs": [
        {
          "internalType": "address",
          "name": "receiver",
          "type": "address"
        }
      ],
      "name": "ERC20InvalidReceiver",
      "type": "error"
    },
    {
      "inputs": [
        {
          "internalType": "address",
          "name": "sender",
          "type": "address"
        }
      ],
      "name": "ERC20InvalidSender",
      "type": "error"
    },
    {
      "inputs": [
        {
          "internalType": "address",
          "name": "spender",
          "type": "address"
        }
      ],
      "name": "ERC20InvalidSpender",
      "type": "error"
    },
    {
      "inputs": [],
      "name": "EnforcedPause",
      "type": "error"
    },
    {
      "inputs": [],
      "name": "ExpectedPause",
      "type": "error"
    },
    {
      "inputs": [],
      "name": "FailedInnerCall",
      "type": "error"
    },
    {
      "inputs": [],
      "name": "InvalidInitialization",
      "type": "error"
    },
    {
      "inputs": [],
      "name": "NotInitializing",
      "type": "error"
    },
    {
      "inputs": [
        {
          "internalType": "address",
          "name": "owner",
          "type": "address"
        }
      ],
      "name": "OwnableInvalidOwner",
      "type": "error"
    },
    {
      "inputs": [
        {
          "internalType": "address",
          "name": "account",
          "type": "address"
        }
      ],
      "name": "OwnableUnauthorizedAccount",
      "type": "error"
    },
    {
      "inputs": [],
      "name": "ReentrancyGuardReentrantCall",
      "type": "error"
    },
    {
      "inputs": [],
      "name": "UUPSUnauthorizedCallContext",
      "type": "error"
    },
    {
      "inputs": [
        {
          "internalType": "bytes32",
          "name": "slot",
          "type": "bytes32"
        }
      ],
      "name": "UUPSUnsupportedProxiableUUID",
      "type": "error"
    },
    {
      "anonymous": false,
      "inputs": [
        {
          "indexed": true,
          "internalType": "address",
          "name": "owner",
          "type": "address"
        },
        {
          "indexed": true,
          "internalType": "address",
          "name": "spender",
          "type": "address"
        },
        {
          "indexed": false,
          "internalType": "uint256",
          "name": "value",
          "type": "uint256"
        }
      ],
      "name": "Approval",
      "type": "event"
    },
    {
      "anonymous": false,
      "inputs": [
        {
          "indexed": true,
          "internalType": "address",
          "name": "user",
          "type": "address"
        },
        {
          "indexed": false,
          "internalType": "uint256",
          "name": "amount",
          "type": "uint256"
        }
      ],
      "name": "Deposit",
      "type": "event"
    },
    {
      "anonymous": false,
      "inputs": [
        {
          "indexed": false,
          "internalType": "uint64",
          "name": "version",
          "type": "uint64"
        }
      ],
      "name": "Initialized",
      "type": "event"
    },
    {
      "anonymous": false,
      "inputs": [
        {
          "indexed": true,
          "internalType": "address",
          "name": "previousOwner",
          "type": "address"
        },
        {
          "indexed": true,
          "internalType": "address",
          "name": "newOwner",
          "type": "address"
        }
      ],
      "name": "OwnershipTransferred",
      "type": "event"
    },
    {
      "anonymous": false,
      "inputs": [
        {
          "indexed": false,
          "internalType": "address",
          "name": "account",
          "type": "address"
        }
      ],
      "name": "Paused",
      "type": "event"
    },
    {
      "anonymous": false,
      "inputs": [
        {
          "indexed": true,
          "internalType": "address",
          "name": "user",
          "type": "address"
        },
        {
          "indexed": false,
          "internalType": "address[]",
          "name": "assets",
          "type": "address[]"
        }
      ],
      "name": "RebalancePerformed",
      "type": "event"
    },
    {
      "anonymous": false,
      "inputs": [
        {
          "indexed": true,
          "internalType": "address",
          "name": "user",
          "type": "address"
        },
        {
          "indexed": false,
          "internalType": "address",
          "name": "fromToken",
          "type": "address"
        },
        {
          "indexed": false,
          "internalType": "address",
          "name": "toToken",
          "type": "address"
        },
        {
          "indexed": false,
          "internalType": "uint256",
          "name": "amountIn",
          "type": "uint256"
        },
        {
          "indexed": false,
          "internalType": "uint256",
          "name": "amountOut",
          "type": "uint256"
        }
      ],
      "name": "Swap",
      "type": "event"
    },
    {
      "anonymous": false,
      "inputs": [
        {
          "indexed": true,
          "internalType": "address",
          "name": "from",
          "type": "address"
        },
        {
          "indexed": true,
          "internalType": "address",
          "name": "to",
          "type": "address"
        },
        {
          "indexed": false,
          "internalType": "uint256",
          "name": "value",
          "type": "uint256"
        }
      ],
      "name": "Transfer",
      "type": "event"
    },
    {
      "anonymous": false,
      "inputs": [
        {
          "indexed": false,
          "internalType": "address",
          "name": "account",
          "type": "address"
        }
      ],
      "name": "Unpaused",
      "type": "event"
    },
    {
      "anonymous": false,
      "inputs": [
        {
          "indexed": true,
          "internalType": "address",
          "name": "implementation",
          "type": "address"
        }
      ],
      "name": "Upgraded",
      "type": "event"
    },
    {
      "anonymous": false,
      "inputs": [
        {
          "indexed": true,
          "internalType": "address",
          "name": "user",
          "type": "address"
        },
        {
          "indexed": false,
          "internalType": "uint256[]",
          "name": "amountsToAdd",
          "type": "uint256[]"
        }
      ],
      "name": "WeightsRebalanced",
      "type": "event"
    },
    {
      "anonymous": false,
      "inputs": [
        {
          "indexed": true,
          "internalType": "address",
          "name": "user",
          "type": "address"
        },
        {
          "indexed": false,
          "internalType": "uint256",
          "name": "amount",
          "type": "uint256"
        }
      ],
      "name": "Withdraw",
      "type": "event"
    },
    {
      "inputs": [],
      "name": "ONE",
      "outputs": [
        {
          "internalType": "uint256",
          "name": "",
          "type": "uint256"
        }
      ],
      "stateMutability": "view",
      "type": "function"
    },
    {
      "inputs": [],
      "name": "UPGRADE_INTERFACE_VERSION",
      "outputs": [
        {
          "internalType": "string",
          "name": "",
          "type": "string"
        }
      ],
      "stateMutability": "view",
      "type": "function"
    },
    {
      "inputs": [
        {
          "internalType": "address",
          "name": "owner",
          "type": "address"
        },
        {
          "internalType": "address",
          "name": "spender",
          "type": "address"
        }
      ],
      "name": "allowance",
      "outputs": [
        {
          "internalType": "uint256",
          "name": "",
          "type": "uint256"
        }
      ],
      "stateMutability": "view",
      "type": "function"
    },
    {
      "inputs": [
        {
          "internalType": "address",
          "name": "spender",
          "type": "address"
        },
        {
          "internalType": "uint256",
          "name": "value",
          "type": "uint256"
        }
      ],
      "name": "approve",
      "outputs": [
        {
          "internalType": "bool",
          "name": "",
          "type": "bool"
        }
      ],
      "stateMutability": "nonpayable",
      "type": "function"
    },
    {
      "inputs": [
        {
          "internalType": "uint256",
          "name": "",
          "type": "uint256"
        }
      ],
      "name": "assetInfos",
      "outputs": [
        {
          "internalType": "address",
          "name": "asset",
          "type": "address"
        },
        {
          "internalType": "uint256",
          "name": "weight",
          "type": "uint256"
        },
        {
          "internalType": "uint256",
          "name": "slippage",
          "type": "uint256"
        },
        {
          "internalType": "uint256",
          "name": "reserve",
          "type": "uint256"
        }
      ],
      "stateMutability": "view",
      "type": "function"
    },
    {
      "inputs": [
        {
          "internalType": "uint256",
          "name": "assetIndex",
          "type": "uint256"
        }
      ],
      "name": "assetLiquidity",
      "outputs": [
        {
          "internalType": "uint256",
          "name": "",
          "type": "uint256"
        }
      ],
      "stateMutability": "view",
      "type": "function"
    },
    {
      "inputs": [
        {
          "internalType": "address",
          "name": "account",
          "type": "address"
        }
      ],
      "name": "balanceOf",
      "outputs": [
        {
          "internalType": "uint256",
          "name": "",
          "type": "uint256"
        }
      ],
      "stateMutability": "view",
      "type": "function"
    },
    {
      "inputs": [],
      "name": "baseAsset",
      "outputs": [
        {
          "internalType": "address",
          "name": "",
          "type": "address"
        }
      ],
      "stateMutability": "view",
      "type": "function"
    },
    {
      "inputs": [
        {
          "internalType": "uint256",
          "name": "share",
          "type": "uint256"
        }
      ],
      "name": "calculateAssetShare",
      "outputs": [
        {
          "internalType": "uint256[]",
          "name": "",
          "type": "uint256[]"
        }
      ],
      "stateMutability": "view",
      "type": "function"
    },
    {
      "inputs": [],
      "name": "decimals",
      "outputs": [
        {
          "internalType": "uint8",
          "name": "",
          "type": "uint8"
        }
      ],
      "stateMutability": "view",
      "type": "function"
    },
    {
      "inputs": [
        {
          "internalType": "address",
          "name": "to",
          "type": "address"
        },
        {
          "internalType": "uint256[]",
          "name": "amounts",
          "type": "uint256[]"
        },
        {
          "internalType": "uint256",
          "name": "deadline",
          "type": "uint256"
        }
      ],
      "name": "deposit",
      "outputs": [
        {
          "internalType": "uint256",
          "name": "",
          "type": "uint256"
        }
      ],
      "stateMutability": "nonpayable",
      "type": "function"
    },
    {
      "inputs": [
        {
          "internalType": "address",
          "name": "fromToken",
          "type": "address"
        },
        {
          "internalType": "address",
          "name": "toToken",
          "type": "address"
        },
        {
          "internalType": "uint256",
          "name": "amount",
          "type": "uint256"
        }
      ],
      "name": "getAmountOut",
      "outputs": [
        {
          "internalType": "uint256",
          "name": "",
          "type": "uint256"
        }
      ],
      "stateMutability": "view",
      "type": "function"
    },
    {
      "inputs": [
        {
          "internalType": "address",
          "name": "asset",
          "type": "address"
        }
      ],
      "name": "getAssetReserve",
      "outputs": [
        {
          "internalType": "uint256",
          "name": "",
          "type": "uint256"
        }
      ],
      "stateMutability": "view",
      "type": "function"
    },
    {
      "inputs": [],
      "name": "getAssets",
      "outputs": [
        {
          "internalType": "address[]",
          "name": "",
          "type": "address[]"
        }
      ],
      "stateMutability": "view",
      "type": "function"
    },
    {
      "inputs": [
        {
          "internalType": "address",
          "name": "token",
          "type": "address"
        }
      ],
      "name": "getDeviationForToken",
      "outputs": [
        {
          "internalType": "uint256",
          "name": "",
          "type": "uint256"
        }
      ],
      "stateMutability": "view",
      "type": "function"
    },
    {
      "inputs": [],
      "name": "getDeviations",
      "outputs": [
        {
          "internalType": "bool[]",
          "name": "directions",
          "type": "bool[]"
        },
        {
          "internalType": "uint256[]",
          "name": "deviations",
          "type": "uint256[]"
        }
      ],
      "stateMutability": "view",
      "type": "function"
    },
    {
      "inputs": [],
      "name": "getReserves",
      "outputs": [
        {
          "internalType": "uint256[]",
          "name": "",
          "type": "uint256[]"
        }
      ],
      "stateMutability": "view",
      "type": "function"
    },
    {
      "inputs": [
        {
          "internalType": "address",
          "name": "token",
          "type": "address"
        }
      ],
      "name": "getSlippage",
      "outputs": [
        {
          "internalType": "uint256",
          "name": "",
          "type": "uint256"
        }
      ],
      "stateMutability": "view",
      "type": "function"
    },
    {
      "inputs": [],
      "name": "getSlippageParams",
      "outputs": [
        {
          "internalType": "uint256[]",
          "name": "",
          "type": "uint256[]"
        }
      ],
      "stateMutability": "view",
      "type": "function"
    },
    {
      "inputs": [
        {
          "internalType": "address",
          "name": "token",
          "type": "address"
        }
      ],
      "name": "getTokenWeight",
      "outputs": [
        {
          "internalType": "uint256",
          "name": "",
          "type": "uint256"
        }
      ],
      "stateMutability": "view",
      "type": "function"
    },
    {
      "inputs": [],
      "name": "getWeights",
      "outputs": [
        {
          "internalType": "uint256[]",
          "name": "",
          "type": "uint256[]"
        }
      ],
      "stateMutability": "view",
      "type": "function"
    },
    {
      "inputs": [
        {
          "internalType": "address[]",
          "name": "_assets",
          "type": "address[]"
        },
        {
          "internalType": "uint256[]",
          "name": "_weights",
          "type": "uint256[]"
        },
        {
          "internalType": "uint256",
          "name": "_trigger",
          "type": "uint256"
        },
        {
          "internalType": "address",
          "name": "_registry",
          "type": "address"
        }
      ],
      "name": "initialize",
      "outputs": [],
      "stateMutability": "nonpayable",
      "type": "function"
    },
    {
      "inputs": [],
      "name": "isRebalanceNeeded",
      "outputs": [
        {
          "internalType": "bool",
          "name": "",
          "type": "bool"
        }
      ],
      "stateMutability": "view",
      "type": "function"
    },
    {
      "inputs": [],
      "name": "liquidity",
      "outputs": [
        {
          "internalType": "uint256",
          "name": "",
          "type": "uint256"
        }
      ],
      "stateMutability": "view",
      "type": "function"
    },
    {
      "inputs": [],
      "name": "name",
      "outputs": [
        {
          "internalType": "string",
          "name": "",
          "type": "string"
        }
      ],
      "stateMutability": "view",
      "type": "function"
    },
    {
      "inputs": [],
      "name": "owner",
      "outputs": [
        {
          "internalType": "address",
          "name": "",
          "type": "address"
        }
      ],
      "stateMutability": "view",
      "type": "function"
    },
    {
      "inputs": [],
      "name": "pause",
      "outputs": [],
      "stateMutability": "nonpayable",
      "type": "function"
    },
    {
      "inputs": [],
      "name": "paused",
      "outputs": [
        {
          "internalType": "bool",
          "name": "",
          "type": "bool"
        }
      ],
      "stateMutability": "view",
      "type": "function"
    },
    {
      "inputs": [],
      "name": "proxiableUUID",
      "outputs": [
        {
          "internalType": "bytes32",
          "name": "",
          "type": "bytes32"
        }
      ],
      "stateMutability": "view",
      "type": "function"
    },
    {
      "inputs": [
        {
          "internalType": "address",
          "name": "fromToken",
          "type": "address"
        },
        {
          "internalType": "address",
          "name": "toToken",
          "type": "address"
        },
        {
          "internalType": "uint256",
          "name": "amount",
          "type": "uint256"
        }
      ],
      "name": "quotePotentialSwap",
      "outputs": [
        {
          "internalType": "uint256",
          "name": "",
          "type": "uint256"
        }
      ],
      "stateMutability": "view",
      "type": "function"
    },
    {
      "inputs": [],
      "name": "rebalance",
      "outputs": [],
      "stateMutability": "nonpayable",
      "type": "function"
    },
    {
      "inputs": [
        {
          "internalType": "address",
          "name": "receiver",
          "type": "address"
        }
      ],
      "name": "rebalanceAndDeposit",
      "outputs": [
        {
          "internalType": "uint256[]",
          "name": "",
          "type": "uint256[]"
        }
      ],
      "stateMutability": "nonpayable",
      "type": "function"
    },
    {
      "inputs": [],
      "name": "registry",
      "outputs": [
        {
          "internalType": "contract IBaluniV1Registry",
          "name": "",
          "type": "address"
        }
      ],
      "stateMutability": "view",
      "type": "function"
    },
    {
      "inputs": [],
      "name": "renounceOwnership",
      "outputs": [],
      "stateMutability": "nonpayable",
      "type": "function"
    },
    {
      "inputs": [
        {
          "internalType": "address",
          "name": "",
          "type": "address"
        }
      ],
      "name": "reserves",
      "outputs": [
        {
          "internalType": "uint256",
          "name": "",
          "type": "uint256"
        }
      ],
      "stateMutability": "view",
      "type": "function"
    },
    {
      "inputs": [
        {
          "internalType": "address",
          "name": "fromToken",
          "type": "address"
        },
        {
          "internalType": "address",
          "name": "toToken",
          "type": "address"
        },
        {
          "internalType": "uint256",
          "name": "amount",
          "type": "uint256"
        },
        {
          "internalType": "uint256",
          "name": "minAmount",
          "type": "uint256"
        },
        {
          "internalType": "address",
          "name": "receiver",
          "type": "address"
        },
        {
          "internalType": "uint256",
          "name": "deadline",
          "type": "uint256"
        }
      ],
      "name": "swap",
      "outputs": [
        {
          "internalType": "uint256",
          "name": "amountOut",
          "type": "uint256"
        },
        {
          "internalType": "uint256",
          "name": "fee",
          "type": "uint256"
        }
      ],
      "stateMutability": "nonpayable",
      "type": "function"
    },
    {
      "inputs": [],
      "name": "symbol",
      "outputs": [
        {
          "internalType": "string",
          "name": "",
          "type": "string"
        }
      ],
      "stateMutability": "view",
      "type": "function"
    },
    {
      "inputs": [],
      "name": "totalSupply",
      "outputs": [
        {
          "internalType": "uint256",
          "name": "",
          "type": "uint256"
        }
      ],
      "stateMutability": "view",
      "type": "function"
    },
    {
      "inputs": [],
      "name": "totalValuation",
      "outputs": [
        {
          "internalType": "uint256",
          "name": "totalVal",
          "type": "uint256"
        },
        {
          "internalType": "uint256[]",
          "name": "valuations",
          "type": "uint256[]"
        }
      ],
      "stateMutability": "view",
      "type": "function"
    },
    {
      "inputs": [
        {
          "internalType": "address",
          "name": "to",
          "type": "address"
        },
        {
          "internalType": "uint256",
          "name": "value",
          "type": "uint256"
        }
      ],
      "name": "transfer",
      "outputs": [
        {
          "internalType": "bool",
          "name": "",
          "type": "bool"
        }
      ],
      "stateMutability": "nonpayable",
      "type": "function"
    },
    {
      "inputs": [
        {
          "internalType": "address",
          "name": "from",
          "type": "address"
        },
        {
          "internalType": "address",
          "name": "to",
          "type": "address"
        },
        {
          "internalType": "uint256",
          "name": "value",
          "type": "uint256"
        }
      ],
      "name": "transferFrom",
      "outputs": [
        {
          "internalType": "bool",
          "name": "",
          "type": "bool"
        }
      ],
      "stateMutability": "nonpayable",
      "type": "function"
    },
    {
      "inputs": [
        {
          "internalType": "address",
          "name": "newOwner",
          "type": "address"
        }
      ],
      "name": "transferOwnership",
      "outputs": [],
      "stateMutability": "nonpayable",
      "type": "function"
    },
    {
      "inputs": [],
      "name": "trigger",
      "outputs": [
        {
          "internalType": "uint256",
          "name": "",
          "type": "uint256"
        }
      ],
      "stateMutability": "view",
      "type": "function"
    },
    {
      "inputs": [],
      "name": "unitPrice",
      "outputs": [
        {
          "internalType": "uint256",
          "name": "",
          "type": "uint256"
        }
      ],
      "stateMutability": "view",
      "type": "function"
    },
    {
      "inputs": [],
      "name": "unpause",
      "outputs": [],
      "stateMutability": "nonpayable",
      "type": "function"
    },
    {
      "inputs": [
        {
          "internalType": "address",
          "name": "newImplementation",
          "type": "address"
        },
        {
          "internalType": "bytes",
          "name": "data",
          "type": "bytes"
        }
      ],
      "name": "upgradeToAndCall",
      "outputs": [],
      "stateMutability": "payable",
      "type": "function"
    },
    {
      "inputs": [
        {
          "internalType": "uint256",
          "name": "share",
          "type": "uint256"
        },
        {
          "internalType": "address",
          "name": "to",
          "type": "address"
        },
        {
          "internalType": "uint256",
          "name": "deadline",
          "type": "uint256"
        }
      ],
      "name": "withdraw",
      "outputs": [
        {
          "internalType": "uint256",
          "name": "",
          "type": "uint256"
        }
      ],
      "stateMutability": "nonpayable",
      "type": "function"
    }
  ],
  "bytecode": "0x60a0604052306080523480156012575f80fd5b506080516156336100395f395f8181613778015281816137a101526138e001526156335ff3fe608060405260043610610280575f3560e01c80637fec8d3811610155578063b3bf9d32116100be578063d66bd52411610078578063d66bd524146107a8578063dd62ed3e146107d3578063e63697c8146107f2578063e64ebdd214610811578063e73faa2d14610830578063f2fde38b14610844575f80fd5b8063b3bf9d32146106cb578063b7110e13146106ea578063c2ee3a081461070c578063cdf456e114610721578063cf8fa76414610740578063d14ef46d1461075f575f80fd5b80638de30f301161010f5780638de30f30146105f657806395d89b41146106155780639908fc8b14610629578063a9059cbb1461065d578063ad3cb1cc1461067c578063b2b55d70146106ac575f80fd5b80637fec8d381461054a5780637ff1c1791461055f5780638456cb591461057357806389b3179b146105875780638a77c8dc146105a65780638da5cb5b146105ba575f80fd5b8063313ce567116101f75780635c975abb116101b15780635c975abb1461048857806367e4ac2c146104ab57806370a08231146104cc578063715018a6146104eb5780637b103999146104ff5780637d7c2a1c14610536575f80fd5b8063313ce567146103f45780633f4ba83a1461040f57806343c2e2f5146104235780634aa06652146104425780634f1ef2861461046157806352d1902d14610474575f80fd5b80631a686502116102485780631a6865021461034b578063228835ac1461035f57806322acb8671461038057806323b872dd14610394578063250aa683146103b3578063295b9300146103d2575f80fd5b806306fdde03146102845780630902f1ac146102ae578063095ea7b3146102cf57806312899068146102fe57806318160ddd1461032b575b5f80fd5b34801561028f575f80fd5b50610298610863565b6040516102a59190614b88565b60405180910390f35b3480156102b9575f80fd5b506102c2610923565b6040516102a59190614bf7565b3480156102da575f80fd5b506102ee6102e9366004614c2d565b6109c5565b60405190151581526020016102a5565b348015610309575f80fd5b5061031d610318366004614c57565b6109de565b6040519081526020016102a5565b348015610336575f80fd5b505f8051602061557e8339815191525461031d565b348015610356575f80fd5b5061031d610a5e565b34801561036a575f80fd5b5061037e610379366004614d44565b610a6f565b005b34801561038b575f80fd5b506102c2610d6b565b34801561039f575f80fd5b506102ee6103ae366004614e18565b610e07565b3480156103be575f80fd5b5061031d6103cd366004614c57565b610e2c565b3480156103dd575f80fd5b506103e6610ea4565b6040516102a5929190614e56565b3480156103ff575f80fd5b50604051601281526020016102a5565b34801561041a575f80fd5b5061037e610eb8565b34801561042e575f80fd5b5061031d61043d366004614e18565b610eca565b34801561044d575f80fd5b5061031d61045c366004614e18565b610fa8565b61037e61046f366004614e94565b611168565b34801561047f575f80fd5b5061031d611187565b348015610493575f80fd5b505f805160206155be8339815191525460ff166102ee565b3480156104b6575f80fd5b506104bf6111a2565b6040516102a59190614f53565b3480156104d7575f80fd5b5061031d6104e6366004614c57565b611259565b3480156104f6575f80fd5b5061037e61127f565b34801561050a575f80fd5b5060055461051e906001600160a01b031681565b6040516001600160a01b0390911681526020016102a5565b348015610541575f80fd5b5061037e611290565b348015610555575f80fd5b5061031d60015481565b34801561056a575f80fd5b506102c26112e3565b34801561057e575f80fd5b5061037e61137f565b348015610592575f80fd5b5061031d6105a1366004614c57565b61138f565b3480156105b1575f80fd5b506102ee611415565b3480156105c5575f80fd5b507f9016d09d72d40fdae2fd8ceac6b6234c7706214fd39c1cd1e609a0528c199300546001600160a01b031661051e565b348015610601575f80fd5b506102c2610610366004614c57565b61148f565b348015610620575f80fd5b506102986116eb565b348015610634575f80fd5b50610648610643366004614f65565b611729565b604080519283526020830191909152016102a5565b348015610668575f80fd5b506102ee610677366004614c2d565b611cf3565b348015610687575f80fd5b50610298604051806040016040528060058152602001640352e302e360dc1b81525081565b3480156106b7575f80fd5b5061031d6106c6366004614c57565b611d00565b3480156106d6575f80fd5b5061031d6106e5366004614fc8565b611d73565b3480156106f5575f80fd5b506106fe6121fb565b6040516102a592919061501c565b348015610717575f80fd5b5061031d60025481565b34801561072c575f80fd5b5060035461051e906001600160a01b031681565b34801561074b575f80fd5b5061031d61075a36600461506b565b6123b2565b34801561076a575f80fd5b5061077e61077936600461506b565b612427565b604080516001600160a01b03909516855260208501939093529183015260608201526080016102a5565b3480156107b3575f80fd5b5061031d6107c2366004614c57565b60066020525f908152604090205481565b3480156107de575f80fd5b5061031d6107ed366004615082565b612468565b3480156107fd575f80fd5b5061031d61080c3660046150b9565b6124b1565b34801561081c575f80fd5b506102c261082b36600461506b565b612c78565b34801561083b575f80fd5b5061031d612d63565b34801561084f575f80fd5b5061037e61085e366004614c57565b612e57565b7f52c63247e1f47db19d5ce0460030c497f067ca4cebf71ba98eeadabe20bace0380546060915f8051602061555e833981519152916108a1906150dd565b80601f01602080910402602001604051908101604052809291908181526020018280546108cd906150dd565b80156109185780601f106108ef57610100808354040283529160200191610918565b820191905f5260205f20905b8154815290600101906020018083116108fb57829003601f168201915b505050505091505090565b5f8054606091906001600160401b0381111561094157610941614c72565b60405190808252806020026020018201604052801561096a578160200160208202803683370190505b5090505f5b5f548110156109bf575f818154811061098a5761098a61510f565b905f5260205f209060040201600301548282815181106109ac576109ac61510f565b602090810291909101015260010161096f565b50919050565b5f336109d2818585612e94565b60019150505b92915050565b5f805b5f54811015610a5657826001600160a01b03165f8281548110610a0657610a0661510f565b5f9182526020909120600490910201546001600160a01b031603610a4e575f8181548110610a3657610a3661510f565b905f5260205f20906004020160020154915050919050565b6001016109e1565b505f92915050565b5f80610a68612ea6565b5092915050565b7ff0c57e16840df040f15088dc2f81fe391c3923bec73e23a9662efc9c229c6a008054600160401b810460ff1615906001600160401b03165f81158015610ab35750825b90505f826001600160401b03166001148015610ace5750303b155b905081158015610adc575080155b15610afa5760405163f92ee8a960e01b815260040160405180910390fd5b845467ffffffffffffffff191660011785558315610b2457845460ff60401b1916600160401b1785555b610b2d33612fd2565b610b47610b398a612fe3565b610b428b6130bc565b61318f565b600580546001600160a01b0319166001600160a01b038816908117909155670de0b6b3a7640000600255600188905560408051631bf01e9b60e01b81529051631bf01e9b916004818101926020929091908290030181865afa158015610baf573d5f803e3d5ffd5b505050506040513d601f19601f82011682018060405250810190610bd39190615123565b600380546001600160a01b0319166001600160a01b0392909216918217905564e8d4a51000600455610c4c5760405162461bcd60e51b815260206004820152601a60248201527f496e76616c69642062617365206173736574206164647265737300000000000060448201526064015b60405180910390fd5b610c5689896131a1565b610c9a5760405162461bcd60e51b8152602060048201526015602482015274125b9a5d1a585b1a5e985d1a5bdb8819985a5b1959605a1b6044820152606401610c43565b5f805b8951811015610cd557898181518110610cb857610cb861510f565b602002602001015182610ccb9190615152565b9150600101610c9d565b508061271014610d195760405162461bcd60e51b815260206004820152600f60248201526e496e76616c6964207765696768747360881b6044820152606401610c43565b508315610d6057845460ff60401b19168555604051600181527fc7f505b2f371ae2175ee4913f4499e1f2633a7b5936321eed1cdaeb6115181d29060200160405180910390a15b505050505050505050565b5f8054606091906001600160401b03811115610d8957610d89614c72565b604051908082528060200260200182016040528015610db2578160200160208202803683370190505b5090505f5b5f548110156109bf575f8181548110610dd257610dd261510f565b905f5260205f20906004020160010154828281518110610df457610df461510f565b6020908102919091010152600101610db7565b5f33610e148582856135f3565b610e1f858585613656565b60019150505b9392505050565b5f805b5f54811015610a5657826001600160a01b03165f8281548110610e5457610e5461510f565b5f9182526020909120600490910201546001600160a01b031603610e9c575f8181548110610e8457610e8461510f565b905f5260205f20906004020160010154915050919050565b600101610e2f565b5f6060610eaf612ea6565b90939092509050565b610ec06136b3565b610ec861370e565b565b5f80610ed7858585610fa8565b90505f610ee3866109de565b90505f610eef866109de565b90505f610efb88610e2c565b90505f610f0788610e2c565b90505f612710610f178688615165565b610f21919061517c565b90505f612710610f318689615165565b610f3b919061517c565b9050610f468b61138f565b841115610f5e57610f57828861519b565b9650610f6b565b610f688288615152565b96505b610f748a61138f565b831015610f8c57610f858188615152565b9650610f99565b610f96818861519b565b96505b50949998505050505050505050565b5f8060055f9054906101000a90046001600160a01b03166001600160a01b031663bb3ba04c6040518163ffffffff1660e01b8152600401602060405180830381865afa158015610ffa573d5f803e3d5ffd5b505050506040513d601f19601f8201168201806040525081019061101e9190615123565b90505f6001600160a01b031660055f9054906101000a90046001600160a01b03166001600160a01b031663bb3ba04c6040518163ffffffff1660e01b8152600401602060405180830381865afa15801561107a573d5f803e3d5ffd5b505050506040513d601f19601f8201168201806040525081019061109e9190615123565b6001600160a01b0316036110ed5760405162461bcd60e51b8152602060048201526016602482015275496e76616c6964206f7261636c65206164647265737360501b6044820152606401610c43565b60405163248391ff60e01b81525f906001600160a01b0383169063248391ff9061111f908990899089906004016151ae565b602060405180830381865afa15801561113a573d5f803e3d5ffd5b505050506040513d601f19601f8201168201806040525081019061115e91906151d2565b9695505050505050565b61117061376d565b61117982613811565b6111838282613819565b5050565b5f6111906138d5565b505f8051602061559e83398151915290565b5f8054606091906001600160401b038111156111c0576111c0614c72565b6040519080825280602002602001820160405280156111e9578160200160208202803683370190505b5090505f5b5f548110156109bf575f81815481106112095761120961510f565b5f91825260209091206004909102015482516001600160a01b03909116908390839081106112395761123961510f565b6001600160a01b03909216602092830291909101909101526001016111ee565b6001600160a01b03165f9081525f8051602061555e833981519152602052604090205490565b6112876136b3565b610ec85f61391e565b611298611415565b6112db5760405162461bcd60e51b8152602060048201526014602482015273149958985b185b98d9481b9bdd081b995959195960621b6044820152606401610c43565b610ec861398e565b5f8054606091906001600160401b0381111561130157611301614c72565b60405190808252806020026020018201604052801561132a578160200160208202803683370190505b5090505f5b5f548110156109bf575f818154811061134a5761134a61510f565b905f5260205f2090600402016002015482828151811061136c5761136c61510f565b602090810291909101015260010161132f565b6113876136b3565b610ec8613f4f565b5f806113996121fb565b9150505f5b5f5481101561140c57836001600160a01b03165f82815481106113c3576113c361510f565b5f9182526020909120600490910201546001600160a01b031603611404578181815181106113f3576113f361510f565b602002602001015192505050919050565b60010161139e565b505f9392505050565b5f805f6114206121fb565b915091505f5b8151811015611486578281815181106114415761144161510f565b6020026020010151801561146f57506001548282815181106114655761146561510f565b6020026020010151115b1561147e576001935050505090565b600101611426565b505f9250505090565b6060611499611415565b6114dc5760405162461bcd60e51b8152602060048201526014602482015273149958985b185b98d9481b9bdd081b995959195960621b6044820152606401610c43565b5f806114e6612ea6565b915091505f6114f58383613f97565b5f8054919250906001600160401b0381111561151357611513614c72565b60405190808252806020026020018201604052801561153c578160200160208202803683370190505b5090505f61154983614095565b9050600454816115599190615165565b90505f5b835181101561168d575f8482815181106115795761157961510f565b60200260200101511115611685576115aa8185838151811061159d5761159d61510f565b60200260200101516140d0565b8382815181106115bc576115bc61510f565b6020026020010181815250505f81815481106115da576115da61510f565b905f5260205f2090600402015f015f9054906101000a90046001600160a01b03166001600160a01b03166323b872dd333087858151811061161d5761161d61510f565b60200260200101516040518463ffffffff1660e01b8152600401611643939291906151ae565b6020604051808303815f875af115801561165f573d5f803e3d5ffd5b505050506040513d601f19601f8201168201806040525081019061168391906151e9565b505b60010161155d565b50611698878261419f565b6116a06141d3565b336001600160a01b03167fa95ad530009c6f929555e70a66aadbeae7231e45756c5b028ca77fbaa376e73e846040516116d99190614bf7565b60405180910390a25095945050505050565b7f52c63247e1f47db19d5ce0460030c497f067ca4cebf71ba98eeadabe20bace0480546060915f8051602061555e833981519152916108a1906150dd565b5f80824281101561174c5760405162461bcd60e51b8152600401610c4390615208565b6117546144f4565b6001600160a01b0389161580159061177457506001600160a01b03881615155b6117b85760405162461bcd60e51b8152602060048201526015602482015274496e76616c696420746f6b656e206164647265737360581b6044820152606401610c43565b876001600160a01b0316896001600160a01b0316036118195760405162461bcd60e51b815260206004820152601a60248201527f43616e6e6f742073776170207468652073616d6520746f6b656e0000000000006044820152606401610c43565b5f87116118685760405162461bcd60e51b815260206004820181905260248201527f416d6f756e74206d7573742062652067726561746572207468616e207a65726f6044820152606401610c43565b6001600160a01b0385166118be5760405162461bcd60e51b815260206004820152601860248201527f496e76616c6964207265636569766572206164647265737300000000000000006044820152606401610c43565b6040516323b872dd60e01b81525f906001600160a01b038b16906323b872dd906118f090339030908d906004016151ae565b6020604051808303815f875af115801561190c573d5f803e3d5ffd5b505050506040513d601f19601f8201168201806040525081019061193091906151e9565b9050806119775760405162461bcd60e51b8152602060048201526015602482015274151bdad95b881d1c985b9cd9995c8819985a5b1959605a1b6044820152606401610c43565b5f5b5f548110156119fa578a6001600160a01b03165f828154811061199e5761199e61510f565b5f9182526020909120600490910201546001600160a01b0316036119f257885f82815481106119cf576119cf61510f565b905f5260205f2090600402016003015f8282546119ec9190615152565b90915550505b600101611979565b505f611a078b8b8b610eca565b905080611a138b611d00565b1015611a5a5760405162461bcd60e51b8152602060048201526016602482015275496e73756666696369656e74204c697175696469747960501b6044820152606401610c43565b611a638161452b565b9350611a6f848261519b565b94505f8511611ace5760405162461bcd60e51b815260206004820152602560248201527f416d6f756e7420746f2073656e64206d75737420626520677265617465722074604482015264068616e20360dc1b6064820152608401610c43565b87851015611b315760405162461bcd60e51b815260206004820152602a60248201527f416d6f756e74206f7574206d7573742062652067726561746572207468616e206044820152691b5a5b88185b5bdd5b9d60b21b6064820152608401610c43565b5f5b5f54811015611bb4578a6001600160a01b03165f8281548110611b5857611b5861510f565b5f9182526020909120600490910201546001600160a01b031603611bac57855f8281548110611b8957611b8961510f565b905f5260205f2090600402016003015f828254611ba6919061519b565b90915550505b600101611b33565b50611bbd6141d3565b60405163a9059cbb60e01b81526001600160a01b038881166004830152602482018790525f91908c169063a9059cbb906044016020604051808303815f875af1158015611c0c573d5f803e3d5ffd5b505050506040513d601f19601f82011682018060405250810190611c3091906151e9565b905080611c775760405162461bcd60e51b8152602060048201526015602482015274151bdad95b881d1c985b9cd9995c8819985a5b1959605a1b6044820152606401610c43565b604080516001600160a01b038e811682528d811660208301529181018c905260608101889052908916907fcd3829a3813dc3cdd188fd3d01dcf3268c16be2fdd2dd21d0665418816e460629060800160405180910390a2505050611ce760015f805160206155de83398151915255565b50965096945050505050565b5f336109d2818585613656565b5f805b5f548110156109bf575f8181548110611d1e57611d1e61510f565b5f9182526020909120600490910201546001600160a01b0390811690841603611d6b575f8181548110611d5357611d5361510f565b905f5260205f20906004020160030154915050919050565b600101611d03565b5f8142811015611d955760405162461bcd60e51b8152600401610c4390615208565b611d9d6144f4565b611da5614637565b5f611dbb5f8051602061557e8339815191525490565b90505f80611dc7610923565b80515f5491925014611e1b5760405162461bcd60e51b815260206004820152601760248201527f496e76616c6964207265736572766573206c656e6774680000000000000000006044820152606401610c43565b5f54611e555760405162461bcd60e51b81526020600482015260096024820152684e6f2061737365747360b81b6044820152606401610c43565b5f5b5f5481101561202f575f808281548110611e7357611e7361510f565b5f91825260208220600490910201548a516001600160a01b03909116925082906323b872dd90339030908e9088908110611eaf57611eaf61510f565b60200260200101516040518463ffffffff1660e01b8152600401611ed5939291906151ae565b6020604051808303815f875af1158015611ef1573d5f803e3d5ffd5b505050506040513d601f19601f82011682018060405250810190611f1591906151e9565b905080611f6f5760405162461bcd60e51b815260206004820152602260248201527f42616c756e695631506f6f6c3a205472616e736665722066726f6d206661696c604482015261195960f21b6064820152608401610c43565b898381518110611f8157611f8161510f565b60200260200101515f8481548110611f9b57611f9b61510f565b905f5260205f2090600402016003015f828254611fb89190615152565b90915550506003545f906001600160a01b0390811690841603611ff2578a8481518110611fe757611fe761510f565b506120279350505050565b612015838c86815181106120085761200861510f565b6020026020010151614667565b90506120218187615152565b95505050505b600101611e57565b505f821161208a5760405162461bcd60e51b815260206004820152602260248201527f546f74616c2076616c7565206d7573742062652067726561746572207468616e604482015261020360f41b6064820152608401610c43565b5f835f036120a65760045461209f9084615165565b9050612144565b5f6120af612ea6565b5090505f81116121105760405162461bcd60e51b815260206004820152602660248201527f546f74616c206c6971756964697479206d75737420626520677265617465722060448201526507468616e20360d41b6064820152608401610c43565b60045461211d9082615165565b856004548661212c9190615165565b6121369190615165565b612140919061517c565b9150505b805f036121835760405162461bcd60e51b815260206004820152600d60248201526c04d696e7420717479206973203609c1b6044820152606401610c43565b61218d898261419f565b6121956141d3565b886001600160a01b03167fe1fffcc4923d04b559f4d29a8bfc6cda04eb5b0d3c460751c2402c5c5cc9109c826040516121d091815260200190565b60405180910390a294505050506121f360015f805160206155de83398151915255565b509392505050565b6060805f80612208612ea6565b5f549193509150806001600160401b0381111561222757612227614c72565b604051908082528060200260200182016040528015612250578160200160208202803683370190505b509450806001600160401b0381111561226b5761226b614c72565b604051908082528060200260200182016040528015612294578160200160208202803683370190505b5093505f5b818110156123aa575f848483815181106122b5576122b561510f565b60200260200101516127106122ca9190615165565b6122d4919061517c565b90505f8083815481106122e9576122e961510f565b905f5260205f209060040201600101549050808211156123545761230d818361519b565b87848151811061231f5761231f61510f565b602002602001018181525050600188848151811061233f5761233f61510f565b911515602092830291909101909101526123a0565b61235e828261519b565b8784815181106123705761237061510f565b6020026020010181815250505f88848151811061238f5761238f61510f565b911515602092830291909101909101525b5050600101612299565b505050509091565b5f806123bc612ea6565b915050805183106124055760405162461bcd60e51b8152602060048201526013602482015272092dcecc2d8d2c840c2e6e6cae840d2dcc8caf606b1b6044820152606401610c43565b8083815181106124175761241761510f565b6020026020010151915050919050565b5f8181548110612435575f80fd5b5f91825260209091206004909102018054600182015460028301546003909301546001600160a01b039092169350919084565b6001600160a01b039182165f9081527f52c63247e1f47db19d5ce0460030c497f067ca4cebf71ba98eeadabe20bace016020908152604080832093909416825291909152205490565b5f81428110156124d35760405162461bcd60e51b8152600401610c4390615208565b6124db6144f4565b6124e3614637565b6001600160a01b03841661252b5760405162461bcd60e51b815260206004820152600f60248201526e496e76616c6964206164647265737360881b6044820152606401610c43565b5f851161257a5760405162461bcd60e51b815260206004820152601c60248201527f5368617265206d7573742062652067726561746572207468616e2030000000006044820152606401610c43565b604051636eb1769f60e11b815233600482015230602482018190525f9163dd62ed3e90604401602060405180830381865afa1580156125bb573d5f803e3d5ffd5b505050506040513d601f19601f820116820180604052508101906125df91906151d2565b90508581101561263d5760405162461bcd60e51b8152602060048201526024808201527f42616c756e695631506f6f6c3a20496e73756666696369656e7420416c6c6f77604482015263616e636560e01b6064820152608401610c43565b6040516323b872dd60e01b81525f9030906323b872dd9061266690339084908c906004016151ae565b6020604051808303815f875af1158015612682573d5f803e3d5ffd5b505050506040513d601f19601f820116820180604052508101906126a691906151e9565b9050806126ec5760405162461bcd60e51b8152602060048201526014602482015273151c985b9cd9995c88119c9bdb4811985a5b195960621b6044820152606401610c43565b5f6127025f8051602061557e8339815191525490565b90505f81116127425760405162461bcd60e51b815260206004820152600c60248201526b4e6f206c697175696469747960a01b6044820152606401610c43565b5f61274c8961452b565b90505f612759828b61519b565b90505f5b5f548110156129db5761276f82612c78565b81815181106127805761278061510f565b60200260200101515f828154811061279a5761279a61510f565b5f9182526020909120600491820201546040516370a0823160e01b815230928101929092526001600160a01b0316906370a0823190602401602060405180830381865afa1580156127ed573d5f803e3d5ffd5b505050506040513d601f19601f8201168201806040525081019061281191906151d2565b10156128705760405162461bcd60e51b815260206004820152602860248201527f42616c756e695631506f6f6c3a20496e73756666696369656e742041737365746044820152672042616c616e636560c01b6064820152608401610c43565b5f8082815481106128835761288361510f565b5f9182526020909120600490910201546001600160a01b031663a9059cbb8c6128ab86612c78565b85815181106128bc576128bc61510f565b60200260200101516040518363ffffffff1660e01b81526004016128f59291906001600160a01b03929092168252602082015260400190565b6020604051808303815f875af1158015612911573d5f803e3d5ffd5b505050506040513d601f19601f8201168201806040525081019061293591906151e9565b90508061297c5760405162461bcd60e51b8152602060048201526015602482015274105cdcd95d081d1c985b9cd9995c8819985a5b1959605a1b6044820152606401610c43565b61298583612c78565b82815181106129965761299661510f565b60200260200101515f83815481106129b0576129b061510f565b905f5260205f2090600402016003015f8282546129cd919061519b565b90915550505060010161275d565b50806129e630611259565b1015612a345760405162461bcd60e51b815260206004820152601d60248201527f496e73756666696369656e742042414c554e49206c69717569646974790000006044820152606401610c43565b60055460408051631d8cf42560e11b815290515f926001600160a01b031691633b19e84a9160048083019260209291908290030181865afa158015612a7b573d5f803e3d5ffd5b505050506040513d601f19601f82011682018060405250810190612a9f9190615123565b90506001600160a01b038116612af75760405162461bcd60e51b815260206004820152601860248201527f496e76616c6964207472656173757279206164647265737300000000000000006044820152606401610c43565b82612b0130611259565b1015612b4f5760405162461bcd60e51b815260206004820152601b60248201527f496e73756666696369656e742042414c554e4920666f722066656500000000006044820152606401610c43565b60405163a9059cbb60e01b81526001600160a01b0382166004820152602481018490525f90309063a9059cbb906044016020604051808303815f875af1158015612b9b573d5f803e3d5ffd5b505050506040513d601f19601f82011682018060405250810190612bbf91906151e9565b905080612c045760405162461bcd60e51b8152602060048201526013602482015272119959481d1c985b9cd9995c8819985a5b1959606a1b6044820152606401610c43565b612c0e3084614681565b612c166141d3565b8a6001600160a01b03167f884edad9ce6fa2440d8a54cc123490eb96d2768479d49ff9c7366125a942436484604051612c5191815260200190565b60405180910390a25090965050505050506121f360015f805160206155de83398151915255565b60605f612c848361452b565b90505f612c91828561519b565b5f8054919250906001600160401b03811115612caf57612caf614c72565b604051908082528060200260200182016040528015612cd8578160200160208202803683370190505b5090505f5b5f54811015612d5a575f808281548110612cf957612cf961510f565b905f5260205f209060040201600301549050612d205f8051602061557e8339815191525490565b612d2a8583615165565b612d34919061517c565b838381518110612d4657612d4661510f565b602090810291909101015250600101612cdd565b50949350505050565b5f8060035f9054906101000a90046001600160a01b03166001600160a01b031663313ce5676040518163ffffffff1660e01b8152600401602060405180830381865afa158015612db5573d5f803e3d5ffd5b505050506040513d601f19601f82011682018060405250810190612dd99190615229565b60ff1690505f612dea82601261519b565b612df590600a615329565b90505f612e00612ea6565b5090505f612e195f8051602061557e8339815191525490565b9050805f03612e2c575f94505050505090565b60025481612e3a8585615165565b612e44919061517c565b612e4e9190615165565b94505050505090565b612e5f6136b3565b6001600160a01b038116612e8857604051631e4fbdf760e01b81525f6004820152602401610c43565b612e918161391e565b50565b612ea183838360016146b5565b505050565b5f8054606090806001600160401b03811115612ec457612ec4614c72565b604051908082528060200260200182016040528015612eed578160200160208202803683370190505b5091505f5b81811015612fcc575f808281548110612f0d57612f0d61510f565b5f91825260208220600490910201546001600160a01b03169150612f3082611d00565b6003549091506001600160a01b0390811690831603612f6d5780858481518110612f5c57612f5c61510f565b602002602001018181525050612f9b565b5f612f788383614667565b905080868581518110612f8d57612f8d61510f565b602002602001018181525050505b848381518110612fad57612fad61510f565b602002602001015186612fc09190615152565b95505050600101612ef2565b50509091565b612fda614798565b612e91816147e1565b60408051808201909152600d81526c02130b63ab734902837b7b61d1609d1b60208201526060905f5b8351811015610a6857818482815181106130285761302861510f565b60200260200101516001600160a01b03166395d89b416040518163ffffffff1660e01b81526004015f60405180830381865afa15801561306a573d5f803e3d5ffd5b505050506040513d5f823e601f3d908101601f191682016040526130919190810190615334565b6040516020016130a29291906153bf565b60408051601f19818403018152919052915060010161300c565b60408051808201909152600781526642414c554e492d60c81b60208201526060905f5b8351811015610a6857818482815181106130fb576130fb61510f565b60200260200101516001600160a01b03166395d89b416040518163ffffffff1660e01b81526004015f60405180830381865afa15801561313d573d5f803e3d5ffd5b505050506040513d5f823e601f3d908101601f191682016040526131649190810190615334565b6040516020016131759291906153bf565b60408051601f1981840301815291905291506001016130df565b613197614798565b61118382826147e9565b5f8060055f9054906101000a90046001600160a01b03166001600160a01b031663cff49d686040518163ffffffff1660e01b8152600401602060405180830381865afa1580156131f3573d5f803e3d5ffd5b505050506040513d601f19601f820116820180604052508101906132179190615123565b90505f6001600160a01b031660055f9054906101000a90046001600160a01b03166001600160a01b031663cff49d686040518163ffffffff1660e01b8152600401602060405180830381865afa158015613273573d5f803e3d5ffd5b505050506040513d601f19601f820116820180604052508101906132979190615123565b6001600160a01b0316036132ed5760405162461bcd60e51b815260206004820152601a60248201527f496e76616c696420726562616c616e63657220616464726573730000000000006044820152606401610c43565b82518451146133495760405162461bcd60e51b815260206004820152602260248201527f41737365747320616e642077656967687473206c656e677468206d69736d61746044820152610c6d60f31b6064820152608401610c43565b5f5b84518110156135e8575f6001600160a01b03168582815181106133705761337061510f565b60200260200101516001600160a01b0316036133c65760405162461bcd60e51b8152602060048201526015602482015274496e76616c6964206173736574206164647265737360581b6044820152606401610c43565b5f8482815181106133d9576133d961510f565b60200260200101511161341f5760405162461bcd60e51b815260206004820152600e60248201526d125b9d985b1a59081dd95a59da1d60921b6044820152606401610c43565b5f604051806080016040528087848151811061343d5761343d61510f565b60200260200101516001600160a01b031681526020018684815181106134655761346561510f565b60209081029190910181015182525f8282018190526040928301819052845460018082018755958252828220855160049092020180546001600160a01b0319166001600160a01b03909216919091178155918401519482019490945590820151600282015560609091015160039091015585518690839081106134ea576134ea61510f565b6020908102919091010151604051636eb1769f60e11b81523060048201526001600160a01b0385811660248301529192509082169063dd62ed3e90604401602060405180830381865afa158015613543573d5f803e3d5ffd5b505050506040513d601f19601f8201168201806040525081019061356791906151d2565b5f036135df5760405163095ea7b360e01b81526001600160a01b0384811660048301525f19602483015282169063095ea7b3906044016020604051808303815f875af11580156135b9573d5f803e3d5ffd5b505050506040513d601f19601f820116820180604052508101906135dd91906151e9565b505b5060010161334b565b506001949350505050565b5f6135fe8484612468565b90505f198114613650578181101561364257604051637dc7a0d960e11b81526001600160a01b03841660048201526024810182905260448101839052606401610c43565b61365084848484035f6146b5565b50505050565b6001600160a01b03831661367f57604051634b637e8f60e11b81525f6004820152602401610c43565b6001600160a01b0382166136a85760405163ec442f0560e01b81525f6004820152602401610c43565b612ea1838383614839565b336136e57f9016d09d72d40fdae2fd8ceac6b6234c7706214fd39c1cd1e609a0528c199300546001600160a01b031690565b6001600160a01b031614610ec85760405163118cdaa760e01b8152336004820152602401610c43565b613716614972565b5f805160206155be833981519152805460ff191681557f5db9ee0a495bf2e6ff9c91a7834c1ba4fdd244a5e8aa4e537bd38aeae4b073aa335b6040516001600160a01b03909116815260200160405180910390a150565b306001600160a01b037f00000000000000000000000000000000000000000000000000000000000000001614806137f357507f00000000000000000000000000000000000000000000000000000000000000006001600160a01b03166137e75f8051602061559e833981519152546001600160a01b031690565b6001600160a01b031614155b15610ec85760405163703e46dd60e11b815260040160405180910390fd5b612e916136b3565b816001600160a01b03166352d1902d6040518163ffffffff1660e01b8152600401602060405180830381865afa925050508015613873575060408051601f3d908101601f19168201909252613870918101906151d2565b60015b61389b57604051634c9c8ce360e01b81526001600160a01b0383166004820152602401610c43565b5f8051602061559e83398151915281146138cb57604051632a87526960e21b815260048101829052602401610c43565b612ea183836149a1565b306001600160a01b037f00000000000000000000000000000000000000000000000000000000000000001614610ec85760405163703e46dd60e11b815260040160405180910390fd5b7f9016d09d72d40fdae2fd8ceac6b6234c7706214fd39c1cd1e609a0528c19930080546001600160a01b031981166001600160a01b03848116918217845560405192169182907f8be0079c531659141344cd1fd0a4f28419497f9722a3daafe3b4186f6b6457e0905f90a3505050565b60055460408051631acb614160e01b815290515f926001600160a01b031691631acb61419160048083019260209291908290030181865afa1580156139d5573d5f803e3d5ffd5b505050506040513d601f19601f820116820180604052508101906139f99190615123565b90505f60055f9054906101000a90046001600160a01b03166001600160a01b031663cff49d686040518163ffffffff1660e01b8152600401602060405180830381865afa158015613a4c573d5f803e3d5ffd5b505050506040513d601f19601f82011682018060405250810190613a709190615123565b90505f613a7b6111a2565b90505f613a86610d6b565b90505f60055f9054906101000a90046001600160a01b03166001600160a01b0316634f4608a26040518163ffffffff1660e01b8152600401602060405180830381865afa158015613ad9573d5f803e3d5ffd5b505050506040513d601f19601f82011682018060405250810190613afd91906151d2565b90505f613b0933611259565b90505f613b215f8051602061557e8339815191525490565b9050606481613b308585615165565b613b3a919061517c565b1015613b7f5760405162461bcd60e51b8152602060048201526014602482015273496e73756666696369656e742062616c616e636560601b6044820152606401610c43565b5f5b5f54811015613cc6575f808281548110613b9d57613b9d61510f565b5f918252602090912060049182020154604051636eb1769f60e11b815230928101929092526001600160a01b038a81166024840152169063dd62ed3e90604401602060405180830381865afa158015613bf8573d5f803e3d5ffd5b505050506040513d601f19601f82011682018060405250810190613c1c91906151d2565b90505f19811015613cbd575f8281548110613c3957613c3961510f565b5f91825260209091206004918202015460405163095ea7b360e01b81526001600160a01b038b8116938201939093525f19602482015291169063095ea7b3906044016020604051808303815f875af1158015613c97573d5f803e3d5ffd5b505050506040513d601f19601f82011682018060405250810190613cbb91906151e9565b505b50600101613b81565b505f613cd0610923565b9050866001600160a01b031663f0bf77148288886001548d8e60035f9054906101000a90046001600160a01b03166040518863ffffffff1660e01b8152600401613d2097969594939291906153e5565b5f604051808303815f87803b158015613d37575f80fd5b505af1158015613d49573d5f803e3d5ffd5b505050505f5b5f54811015613f03575f808281548110613d6b57613d6b61510f565b5f9182526020909120600491820201546040516370a0823160e01b815230928101929092526001600160a01b0316906370a0823190602401602060405180830381865afa158015613dbe573d5f803e3d5ffd5b505050506040513d601f19601f82011682018060405250810190613de291906151d2565b9050828281518110613df657613df661510f565b6020026020010151811115613e825780838381518110613e1857613e1861510f565b6020026020010151613e2a919061519b565b60065f808581548110613e3f57613e3f61510f565b5f91825260208083206004909202909101546001600160a01b0316835282019290925260400181208054909190613e77908490615152565b90915550613efa9050565b828281518110613e9457613e9461510f565b602002602001015181613ea7919061519b565b60065f808581548110613ebc57613ebc61510f565b5f91825260208083206004909202909101546001600160a01b0316835282019290925260400181208054909190613ef490849061519b565b90915550505b50600101613d4f565b50336001600160a01b03167f279b343370f587af7fb675ae7c8578e9c8abcc373236ad02c501a4771fe7a7b887604051613f3d9190614f53565b60405180910390a25050505050505050565b613f57614637565b5f805160206155be833981519152805460ff191660011781557f62e78cea01bee320cd4e420270b5ea74000d11b0c9f74754ebdbfc544b05a2583361374f565b5f546060906001600160401b03811115613fb357613fb3614c72565b604051908082528060200260200182016040528015613fdc578160200160208202803683370190505b5090505f5b5f54811015610a68575f6127105f83815481106140005761400061510f565b905f5260205f209060040201600101548661401b9190615165565b614025919061517c565b90508084838151811061403a5761403a61510f565b6020026020010151101561408c5783828151811061405a5761405a61510f565b60200260200101518161406d919061519b565b83838151811061407f5761407f61510f565b6020026020010181815250505b50600101613fe1565b5f805b5f548110156109bf578281815181106140b3576140b361510f565b6020026020010151826140c69190615152565b9150600101614098565b6003545f805490916001600160a01b0316908290859081106140f4576140f461510f565b5f9182526020909120600490910201546001600160a01b0316036141195750806109d8565b5f61414e5f858154811061412f5761412f61510f565b5f9182526020909120600490910201546001600160a01b0316846149f6565b90505f8111610e255760405162461bcd60e51b815260206004820152601b60248201527f496e76616c696420746f6b656e20616d6f756e7420746f2061646400000000006044820152606401610c43565b6001600160a01b0382166141c85760405163ec442f0560e01b81525f6004820152602401610c43565b6111835f8383614839565b5f806141dd6121fb565b9092509050606461012c5f5b5f548110156144ed575f8082815481106142055761420561510f565b905f5260205f2090600402016002015490508385838151811061422a5761422a61510f565b60200260200101511161426357835f838154811061424a5761424a61510f565b905f5260205f20906004020160020181905550506144e5565b8582815181106142755761427561510f565b60200260200101511561435357838583815181106142955761429561510f565b60200260200101516142a7919061517c565b5f83815481106142b9576142b961510f565b905f5260205f2090600402016002015f8282546142d69190615152565b92505081905550805f83815481106142f0576142f061510f565b905f5260205f20906004020160020154101561434e5760405162461bcd60e51b815260206004820152601e60248201527f4f766572666c6f7720696e6372656d656e74696e6720736c69707061676500006044820152606401610c43565b614493565b838583815181106143665761436661510f565b6020026020010151614378919061517c565b5f838154811061438a5761438a61510f565b905f5260205f20906004020160020154111561446c57838583815181106143b3576143b361510f565b60200260200101516143c5919061517c565b5f83815481106143d7576143d761510f565b905f5260205f2090600402016002015f8282546143f4919061519b565b92505081905550805f838154811061440e5761440e61510f565b905f5260205f20906004020160020154111561434e5760405162461bcd60e51b815260206004820152601f60248201527f556e646572666c6f772064656372656d656e74696e6720736c697070616765006044820152606401610c43565b835f838154811061447f5761447f61510f565b905f5260205f209060040201600201819055505b825f83815481106144a6576144a661510f565b905f5260205f2090600402016002015411156144e357825f83815481106144cf576144cf61510f565b905f5260205f209060040201600201819055505b505b6001016141e9565b5050505050565b5f805160206155de83398151915280546001190161452557604051633ee5aeb560e01b815260040160405180910390fd5b60029055565b5f8060055f9054906101000a90046001600160a01b03166001600160a01b03166385462d6f6040518163ffffffff1660e01b8152600401602060405180830381865afa15801561457d573d5f803e3d5ffd5b505050506040513d601f19601f820116820180604052508101906145a191906151d2565b90505f60055f9054906101000a90046001600160a01b03166001600160a01b0316634f4608a26040518163ffffffff1660e01b8152600401602060405180830381865afa1580156145f4573d5f803e3d5ffd5b505050506040513d601f19601f8201168201806040525081019061461891906151d2565b9050806146258386615165565b61462f919061517c565b949350505050565b5f805160206155be8339815191525460ff1615610ec85760405163d93c066560e01b815260040160405180910390fd5b6003545f90610e259084906001600160a01b031684610fa8565b6001600160a01b0382166146aa57604051634b637e8f60e11b81525f6004820152602401610c43565b611183825f83614839565b5f8051602061555e8339815191526001600160a01b0385166146ec5760405163e602df0560e01b81525f6004820152602401610c43565b6001600160a01b03841661471557604051634a1406b160e11b81525f6004820152602401610c43565b6001600160a01b038086165f908152600183016020908152604080832093881683529290522083905581156144ed57836001600160a01b0316856001600160a01b03167f8c5be1e5ebec7d5bd14f71427d1e84f3dd0314c0f7b2291e5b200ac8c7c3b9258560405161478991815260200190565b60405180910390a35050505050565b7ff0c57e16840df040f15088dc2f81fe391c3923bec73e23a9662efc9c229c6a0054600160401b900460ff16610ec857604051631afcd79f60e31b815260040160405180910390fd5b612e5f614798565b6147f1614798565b5f8051602061555e8339815191527f52c63247e1f47db19d5ce0460030c497f067ca4cebf71ba98eeadabe20bace0361482a8482615493565b50600481016136508382615493565b5f8051602061555e8339815191526001600160a01b0384166148735781816002015f8282546148689190615152565b909155506148e39050565b6001600160a01b0384165f90815260208290526040902054828110156148c55760405163391434e360e21b81526001600160a01b03861660048201526024810182905260448101849052606401610c43565b6001600160a01b0385165f9081526020839052604090209083900390555b6001600160a01b03831661490157600281018054839003905561491f565b6001600160a01b0383165f9081526020829052604090208054830190555b826001600160a01b0316846001600160a01b03167fddf252ad1be2c89b69c2b068fc378daa952ba7f163c4a11628f55a4df523b3ef8460405161496491815260200190565b60405180910390a350505050565b5f805160206155be8339815191525460ff16610ec857604051638dfc202b60e01b815260040160405180910390fd5b6149aa82614a0f565b6040516001600160a01b038316907fbc7cd75a20ee27fd9adebab32041f755214dbc6bffa90cc0225b39da2e5c2d3b905f90a28051156149ee57612ea18282614a72565b611183614ae4565b6003545f90610e25906001600160a01b03168484610fa8565b806001600160a01b03163b5f03614a4457604051634c9c8ce360e01b81526001600160a01b0382166004820152602401610c43565b5f8051602061559e83398151915280546001600160a01b0319166001600160a01b0392909216919091179055565b60605f80846001600160a01b031684604051614a8e9190615552565b5f60405180830381855af49150503d805f8114614ac6576040519150601f19603f3d011682016040523d82523d5f602084013e614acb565b606091505b5091509150614adb858383614b03565b95945050505050565b3415610ec85760405163b398979f60e01b815260040160405180910390fd5b606082614b1857614b1382614b5f565b610e25565b8151158015614b2f57506001600160a01b0384163b155b15614b5857604051639996b31560e01b81526001600160a01b0385166004820152602401610c43565b5080610e25565b805115614b6f5780518082602001fd5b604051630a12f52160e11b815260040160405180910390fd5b602081525f82518060208401528060208501604085015e5f604082850101526040601f19601f83011684010191505092915050565b5f815180845260208085019450602084015f5b83811015614bec57815187529582019590820190600101614bd0565b509495945050505050565b602081525f610e256020830184614bbd565b6001600160a01b0381168114612e91575f80fd5b8035614c2881614c09565b919050565b5f8060408385031215614c3e575f80fd5b8235614c4981614c09565b946020939093013593505050565b5f60208284031215614c67575f80fd5b8135610e2581614c09565b634e487b7160e01b5f52604160045260245ffd5b604051601f8201601f191681016001600160401b0381118282101715614cae57614cae614c72565b604052919050565b5f6001600160401b03821115614cce57614cce614c72565b5060051b60200190565b5f82601f830112614ce7575f80fd5b81356020614cfc614cf783614cb6565b614c86565b8083825260208201915060208460051b870101935086841115614d1d575f80fd5b602086015b84811015614d395780358352918301918301614d22565b509695505050505050565b5f805f8060808587031215614d57575f80fd5b84356001600160401b0380821115614d6d575f80fd5b818701915087601f830112614d80575f80fd5b81356020614d90614cf783614cb6565b82815260059290921b8401810191818101908b841115614dae575f80fd5b948201945b83861015614dd5578535614dc681614c09565b82529482019490820190614db3565b98505088013592505080821115614dea575f80fd5b50614df787828801614cd8565b93505060408501359150614e0d60608601614c1d565b905092959194509250565b5f805f60608486031215614e2a575f80fd5b8335614e3581614c09565b92506020840135614e4581614c09565b929592945050506040919091013590565b828152604060208201525f61462f6040830184614bbd565b5f6001600160401b03821115614e8657614e86614c72565b50601f01601f191660200190565b5f8060408385031215614ea5575f80fd5b8235614eb081614c09565b915060208301356001600160401b03811115614eca575f80fd5b8301601f81018513614eda575f80fd5b8035614ee8614cf782614e6e565b818152866020838501011115614efc575f80fd5b816020840160208301375f602083830101528093505050509250929050565b5f815180845260208085019450602084015f5b83811015614bec5781516001600160a01b031687529582019590820190600101614f2e565b602081525f610e256020830184614f1b565b5f805f805f8060c08789031215614f7a575f80fd5b8635614f8581614c09565b95506020870135614f9581614c09565b945060408701359350606087013592506080870135614fb381614c09565b8092505060a087013590509295509295509295565b5f805f60608486031215614fda575f80fd5b8335614fe581614c09565b925060208401356001600160401b03811115614fff575f80fd5b61500b86828701614cd8565b925050604084013590509250925092565b604080825283519082018190525f906020906060840190828701845b82811015615056578151151584529284019290840190600101615038565b505050838103602085015261115e8186614bbd565b5f6020828403121561507b575f80fd5b5035919050565b5f8060408385031215615093575f80fd5b823561509e81614c09565b915060208301356150ae81614c09565b809150509250929050565b5f805f606084860312156150cb575f80fd5b833592506020840135614e4581614c09565b600181811c908216806150f157607f821691505b6020821081036109bf57634e487b7160e01b5f52602260045260245ffd5b634e487b7160e01b5f52603260045260245ffd5b5f60208284031215615133575f80fd5b8151610e2581614c09565b634e487b7160e01b5f52601160045260245ffd5b808201808211156109d8576109d861513e565b80820281158282048414176109d8576109d861513e565b5f8261519657634e487b7160e01b5f52601260045260245ffd5b500490565b818103818111156109d8576109d861513e565b6001600160a01b039384168152919092166020820152604081019190915260600190565b5f602082840312156151e2575f80fd5b5051919050565b5f602082840312156151f9575f80fd5b81518015158114610e25575f80fd5b6020808252600790820152661156141254915160ca1b604082015260600190565b5f60208284031215615239575f80fd5b815160ff81168114610e25575f80fd5b600181815b8085111561528357815f19048211156152695761526961513e565b8085161561527657918102915b93841c939080029061524e565b509250929050565b5f82615299575060016109d8565b816152a557505f6109d8565b81600181146152bb57600281146152c5576152e1565b60019150506109d8565b60ff8411156152d6576152d661513e565b50506001821b6109d8565b5060208310610133831016604e8410600b8410161715615304575081810a6109d8565b61530e8383615249565b805f19048211156153215761532161513e565b029392505050565b5f610e25838361528b565b5f60208284031215615344575f80fd5b81516001600160401b03811115615359575f80fd5b8201601f81018413615369575f80fd5b8051615377614cf782614e6e565b81815285602083850101111561538b575f80fd5b8160208401602083015e5f91810160200191909152949350505050565b5f81518060208401855e5f93019283525090919050565b5f6153d36153cd83866153a8565b846153a8565b602d60f81b8152600101949350505050565b60e081525f6153f760e083018a614bbd565b8281036020840152615409818a614f1b565b9050828103604084015261541d8189614bbd565b606084019790975250506001600160a01b03938416608082015291831660a083015290911660c0909101529392505050565b601f821115612ea157805f5260205f20601f840160051c810160208510156154745750805b601f840160051c820191505b818110156144ed575f8155600101615480565b81516001600160401b038111156154ac576154ac614c72565b6154c0816154ba84546150dd565b8461544f565b602080601f8311600181146154f3575f84156154dc5750858301515b5f19600386901b1c1916600185901b17855561554a565b5f85815260208120601f198616915b8281101561552157888601518255948401946001909101908401615502565b508582101561553e57878501515f19600388901b60f8161c191681555b505060018460011b0185555b505050505050565b5f610e2582846153a856fe52c63247e1f47db19d5ce0460030c497f067ca4cebf71ba98eeadabe20bace0052c63247e1f47db19d5ce0460030c497f067ca4cebf71ba98eeadabe20bace02360894a13ba1a3210667c828492db98dca3e2076cc3735a920a3ca505d382bbccd5ed15c6e187e77e9aee88184c21f4f2182ab5827cb3b7e07fbedcd63f033009b779b17422d0df92223018b32b4d1fa46e071723d6817e2486d003becc55f00a2646970667358221220ef02a7a81d799b06bcde3fd300ebe7c75af3f870cdd266dedc460805ddb6266c64736f6c63430008190033",
  "linkReferences": {},
  "deployedLinkReferences": {}
}