{
  "_format": "hh-sol-artifact-1",
  "contractName": "BaluniV1PoolRegistry",
  "sourceName": "contracts/BaluniV1PoolRegistry.sol",
  "abi": [
    {
      "inputs": [
        {
          "internalType": "address",
          "name": "target",
          "type": "address"
        }
      ],
      "name": "AddressEmptyCode",
      "type": "error"
    },
    {
      "inputs": [
        {
          "internalType": "address",
          "name": "implementation",
          "type": "address"
        }
      ],
      "name": "ERC1967InvalidImplementation",
      "type": "error"
    },
    {
      "inputs": [],
      "name": "ERC1967NonPayable",
      "type": "error"
    },
    {
      "inputs": [],
      "name": "FailedInnerCall",
      "type": "error"
    },
    {
      "inputs": [],
      "name": "InvalidInitialization",
      "type": "error"
    },
    {
      "inputs": [],
      "name": "NotInitializing",
      "type": "error"
    },
    {
      "inputs": [
        {
          "internalType": "address",
          "name": "owner",
          "type": "address"
        }
      ],
      "name": "OwnableInvalidOwner",
      "type": "error"
    },
    {
      "inputs": [
        {
          "internalType": "address",
          "name": "account",
          "type": "address"
        }
      ],
      "name": "OwnableUnauthorizedAccount",
      "type": "error"
    },
    {
      "inputs": [],
      "name": "UUPSUnauthorizedCallContext",
      "type": "error"
    },
    {
      "inputs": [
        {
          "internalType": "bytes32",
          "name": "slot",
          "type": "bytes32"
        }
      ],
      "name": "UUPSUnsupportedProxiableUUID",
      "type": "error"
    },
    {
      "anonymous": false,
      "inputs": [
        {
          "indexed": false,
          "internalType": "uint64",
          "name": "version",
          "type": "uint64"
        }
      ],
      "name": "Initialized",
      "type": "event"
    },
    {
      "anonymous": false,
      "inputs": [
        {
          "indexed": true,
          "internalType": "address",
          "name": "previousOwner",
          "type": "address"
        },
        {
          "indexed": true,
          "internalType": "address",
          "name": "newOwner",
          "type": "address"
        }
      ],
      "name": "OwnershipTransferred",
      "type": "event"
    },
    {
      "anonymous": false,
      "inputs": [
        {
          "indexed": true,
          "internalType": "address",
          "name": "pool",
          "type": "address"
        },
        {
          "indexed": false,
          "internalType": "address[]",
          "name": "assets",
          "type": "address[]"
        }
      ],
      "name": "PoolCreated",
      "type": "event"
    },
    {
      "anonymous": false,
      "inputs": [
        {
          "indexed": true,
          "internalType": "address",
          "name": "implementation",
          "type": "address"
        }
      ],
      "name": "Upgraded",
      "type": "event"
    },
    {
      "inputs": [],
      "name": "UPGRADE_INTERFACE_VERSION",
      "outputs": [
        {
          "internalType": "string",
          "name": "",
          "type": "string"
        }
      ],
      "stateMutability": "view",
      "type": "function"
    },
    {
      "inputs": [
        {
          "internalType": "address",
          "name": "poolAddress",
          "type": "address"
        }
      ],
      "name": "addPool",
      "outputs": [],
      "stateMutability": "nonpayable",
      "type": "function"
    },
    {
      "inputs": [
        {
          "internalType": "uint256",
          "name": "",
          "type": "uint256"
        }
      ],
      "name": "allPools",
      "outputs": [
        {
          "internalType": "address",
          "name": "",
          "type": "address"
        }
      ],
      "stateMutability": "view",
      "type": "function"
    },
    {
      "inputs": [],
      "name": "getAllPools",
      "outputs": [
        {
          "internalType": "address[]",
          "name": "",
          "type": "address[]"
        }
      ],
      "stateMutability": "view",
      "type": "function"
    },
    {
      "inputs": [
        {
          "internalType": "address",
          "name": "",
          "type": "address"
        },
        {
          "internalType": "address",
          "name": "",
          "type": "address"
        }
      ],
      "name": "getPool",
      "outputs": [
        {
          "internalType": "address",
          "name": "",
          "type": "address"
        }
      ],
      "stateMutability": "view",
      "type": "function"
    },
    {
      "inputs": [
        {
          "internalType": "address",
          "name": "poolAddress",
          "type": "address"
        }
      ],
      "name": "getPoolAssets",
      "outputs": [
        {
          "internalType": "address[]",
          "name": "",
          "type": "address[]"
        }
      ],
      "stateMutability": "view",
      "type": "function"
    },
    {
      "inputs": [
        {
          "internalType": "address",
          "name": "asset1",
          "type": "address"
        },
        {
          "internalType": "address",
          "name": "asset2",
          "type": "address"
        }
      ],
      "name": "getPoolByAssets",
      "outputs": [
        {
          "internalType": "address",
          "name": "",
          "type": "address"
        }
      ],
      "stateMutability": "view",
      "type": "function"
    },
    {
      "inputs": [
        {
          "internalType": "address",
          "name": "token",
          "type": "address"
        }
      ],
      "name": "getPoolsByAsset",
      "outputs": [
        {
          "internalType": "address[]",
          "name": "",
          "type": "address[]"
        }
      ],
      "stateMutability": "view",
      "type": "function"
    },
    {
      "inputs": [],
      "name": "getPoolsCount",
      "outputs": [
        {
          "internalType": "uint256",
          "name": "",
          "type": "uint256"
        }
      ],
      "stateMutability": "view",
      "type": "function"
    },
    {
      "inputs": [
        {
          "internalType": "address",
          "name": "_register",
          "type": "address"
        }
      ],
      "name": "initialize",
      "outputs": [],
      "stateMutability": "nonpayable",
      "type": "function"
    },
    {
      "inputs": [],
      "name": "owner",
      "outputs": [
        {
          "internalType": "address",
          "name": "",
          "type": "address"
        }
      ],
      "stateMutability": "view",
      "type": "function"
    },
    {
      "inputs": [
        {
          "internalType": "address",
          "name": "_pool",
          "type": "address"
        }
      ],
      "name": "poolExist",
      "outputs": [
        {
          "internalType": "bool",
          "name": "",
          "type": "bool"
        }
      ],
      "stateMutability": "view",
      "type": "function"
    },
    {
      "inputs": [],
      "name": "proxiableUUID",
      "outputs": [
        {
          "internalType": "bytes32",
          "name": "",
          "type": "bytes32"
        }
      ],
      "stateMutability": "view",
      "type": "function"
    },
    {
      "inputs": [],
      "name": "registry",
      "outputs": [
        {
          "internalType": "contract IBaluniV1Registry",
          "name": "",
          "type": "address"
        }
      ],
      "stateMutability": "view",
      "type": "function"
    },
    {
      "inputs": [
        {
          "internalType": "address",
          "name": "_register",
          "type": "address"
        },
        {
          "internalType": "uint64",
          "name": "_version",
          "type": "uint64"
        }
      ],
      "name": "reinitialize",
      "outputs": [],
      "stateMutability": "nonpayable",
      "type": "function"
    },
    {
      "inputs": [],
      "name": "renounceOwnership",
      "outputs": [],
      "stateMutability": "nonpayable",
      "type": "function"
    },
    {
      "inputs": [
        {
          "internalType": "address",
          "name": "newOwner",
          "type": "address"
        }
      ],
      "name": "transferOwnership",
      "outputs": [],
      "stateMutability": "nonpayable",
      "type": "function"
    },
    {
      "inputs": [
        {
          "internalType": "address",
          "name": "newImplementation",
          "type": "address"
        },
        {
          "internalType": "bytes",
          "name": "data",
          "type": "bytes"
        }
      ],
      "name": "upgradeToAndCall",
      "outputs": [],
      "stateMutability": "payable",
      "type": "function"
    }
  ],
  "bytecode": "0x60a0604052306080523480156012575f80fd5b506080516112eb6100395f395f8181610ab801528181610ae10152610c2501526112eb5ff3fe608060405260043610610105575f3560e01c80638da5cb5b11610092578063b4ac686011610062578063b4ac686014610343578063c4d66de814610356578063d88ff1f414610375578063d914cd4b14610389578063f2fde38b146103a8575f80fd5b80638da5cb5b1461028c5780638f2248bc146102c8578063ad3cb1cc146102e7578063b4340e6a14610324575f80fd5b806352d1902d116100d857806352d1902d146101c9578063531aa03e146101eb578063715018a61461022a5780637b1039991461023e57806389345efb1461025d575f80fd5b80632d5e94a71461010957806341d1de97146101695780634276b97b146101885780634f1ef286146101b4575b5f80fd5b348015610114575f80fd5b5061014c610123366004610f7a565b6001600160a01b039182165f908152600260209081526040808320938516835292905220541690565b6040516001600160a01b0390911681526020015b60405180910390f35b348015610174575f80fd5b5061014c610183366004610fb1565b6103c7565b348015610193575f80fd5b506101a76101a2366004610fc8565b6103ee565b6040516101609190610fe3565b6101c76101c2366004611074565b61045d565b005b3480156101d4575f80fd5b506101dd61047c565b604051908152602001610160565b3480156101f6575f80fd5b5061014c610205366004610f7a565b600260209081525f92835260408084209091529082529020546001600160a01b031681565b348015610235575f80fd5b506101c7610497565b348015610249575f80fd5b5060015461014c906001600160a01b031681565b348015610268575f80fd5b5061027c610277366004610fc8565b6104aa565b6040519015158152602001610160565b348015610297575f80fd5b507f9016d09d72d40fdae2fd8ceac6b6234c7706214fd39c1cd1e609a0528c199300546001600160a01b031661014c565b3480156102d3575f80fd5b506101c76102e2366004611116565b610504565b3480156102f2575f80fd5b50610317604051806040016040528060058152602001640352e302e360dc1b81525081565b604051610160919061114e565b34801561032f575f80fd5b506101a761033e366004610fc8565b6105ef565b34801561034e575f80fd5b505f546101dd565b348015610361575f80fd5b506101c7610370366004610fc8565b61081d565b348015610380575f80fd5b506101a761094e565b348015610394575f80fd5b506101c76103a3366004610fc8565b6109ad565b3480156103b3575f80fd5b506101c76103c2366004610fc8565b610a70565b5f81815481106103d5575f80fd5b5f918252602090912001546001600160a01b0316905081565b60605f829050806001600160a01b03166367e4ac2c6040518163ffffffff1660e01b81526004015f60405180830381865afa15801561042f573d5f803e3d5ffd5b505050506040513d5f823e601f3d908101601f191682016040526104569190810190611183565b9392505050565b610465610aad565b61046e82610b51565b6104788282610b59565b5050565b5f610485610c1a565b505f8051602061129683398151915290565b61049f610c63565b6104a85f610cbe565b565b5f805b5f548110156104fc57826001600160a01b03165f82815481106104d2576104d2611230565b5f918252602090912001546001600160a01b0316036104f45750600192915050565b6001016104ad565b505f92915050565b7ff0c57e16840df040f15088dc2f81fe391c3923bec73e23a9662efc9c229c6a008054829190600160401b900460ff168061054d5750805467ffffffffffffffff808416911610155b1561056b5760405163f92ee8a960e01b815260040160405180910390fd5b8054600160401b67ffffffffffffffff841668ffffffffffffffffff199092168217178255600180546001600160a01b0319166001600160a01b038716179055815460ff60401b191682556040519081527fc7f505b2f371ae2175ee4913f4499e1f2633a7b5936321eed1cdaeb6115181d29060200160405180910390a150505050565b5f80546060919067ffffffffffffffff81111561060e5761060e61102f565b604051908082528060200260200182016040528015610637578160200160208202803683370190505b5090505f805b5f54811015610777575f80828154811061065957610659611230565b905f5260205f20015f9054906101000a90046001600160a01b031690505f816001600160a01b03166367e4ac2c6040518163ffffffff1660e01b81526004015f60405180830381865afa1580156106b2573d5f803e3d5ffd5b505050506040513d5f823e601f3d908101601f191682016040526106d99190810190611183565b90505f5b815181101561075d57876001600160a01b031682828151811061070257610702611230565b60200260200101516001600160a01b031603610755578286868151811061072b5761072b611230565b6001600160a01b03909216602092830291909101909101528461074d81611244565b95505061075d565b6001016106dd565b508451840361076d575050610777565b505060010161063d565b505f8167ffffffffffffffff8111156107925761079261102f565b6040519080825280602002602001820160405280156107bb578160200160208202803683370190505b5090505f5b82811015610814578381815181106107da576107da611230565b60200260200101518282815181106107f4576107f4611230565b6001600160a01b03909216602092830291909101909101526001016107c0565b50949350505050565b7ff0c57e16840df040f15088dc2f81fe391c3923bec73e23a9662efc9c229c6a008054600160401b810460ff16159067ffffffffffffffff165f811580156108625750825b90505f8267ffffffffffffffff16600114801561087e5750303b155b90508115801561088c575080155b156108aa5760405163f92ee8a960e01b815260040160405180910390fd5b845467ffffffffffffffff1916600117855583156108d457845460ff60401b1916600160401b1785555b6108dc610d2e565b6108e533610d36565b600180546001600160a01b0319166001600160a01b038816179055831561094657845460ff60401b19168555604051600181527fc7f505b2f371ae2175ee4913f4499e1f2633a7b5936321eed1cdaeb6115181d29060200160405180910390a15b505050505050565b60605f8054806020026020016040519081016040528092919081815260200182805480156109a357602002820191905f5260205f20905b81546001600160a01b03168152600190910190602001808311610985575b5050505050905090565b6109b5610c63565b6001600160a01b038116610a225760405162461bcd60e51b815260206004820152602960248201527f42616c756e695631506f6f6c466163746f72793a20494e56414c49445f504f4f6044820152684c5f4144445245535360b81b60648201526084015b60405180910390fd5b5f80546001810182559080527f290decd9548b62a8d60345a988386fc84ba6bc95484008f6362f93160ef3e5630180546001600160a01b0319166001600160a01b0392909216919091179055565b610a78610c63565b6001600160a01b038116610aa157604051631e4fbdf760e01b81525f6004820152602401610a19565b610aaa81610cbe565b50565b306001600160a01b037f0000000000000000000000000000000000000000000000000000000000000000161480610b3357507f00000000000000000000000000000000000000000000000000000000000000006001600160a01b0316610b275f80516020611296833981519152546001600160a01b031690565b6001600160a01b031614155b156104a85760405163703e46dd60e11b815260040160405180910390fd5b610aaa610c63565b816001600160a01b03166352d1902d6040518163ffffffff1660e01b8152600401602060405180830381865afa925050508015610bb3575060408051601f3d908101601f19168201909252610bb091810190611268565b60015b610bdb57604051634c9c8ce360e01b81526001600160a01b0383166004820152602401610a19565b5f805160206112968339815191528114610c0b57604051632a87526960e21b815260048101829052602401610a19565b610c158383610d47565b505050565b306001600160a01b037f000000000000000000000000000000000000000000000000000000000000000016146104a85760405163703e46dd60e11b815260040160405180910390fd5b33610c957f9016d09d72d40fdae2fd8ceac6b6234c7706214fd39c1cd1e609a0528c199300546001600160a01b031690565b6001600160a01b0316146104a85760405163118cdaa760e01b8152336004820152602401610a19565b7f9016d09d72d40fdae2fd8ceac6b6234c7706214fd39c1cd1e609a0528c19930080546001600160a01b031981166001600160a01b03848116918217845560405192169182907f8be0079c531659141344cd1fd0a4f28419497f9722a3daafe3b4186f6b6457e0905f90a3505050565b6104a8610d9c565b610d3e610d9c565b610aaa81610de5565b610d5082610ded565b6040516001600160a01b038316907fbc7cd75a20ee27fd9adebab32041f755214dbc6bffa90cc0225b39da2e5c2d3b905f90a2805115610d9457610c158282610e50565b610478610ec2565b7ff0c57e16840df040f15088dc2f81fe391c3923bec73e23a9662efc9c229c6a0054600160401b900460ff166104a857604051631afcd79f60e31b815260040160405180910390fd5b610a78610d9c565b806001600160a01b03163b5f03610e2257604051634c9c8ce360e01b81526001600160a01b0382166004820152602401610a19565b5f8051602061129683398151915280546001600160a01b0319166001600160a01b0392909216919091179055565b60605f80846001600160a01b031684604051610e6c919061127f565b5f60405180830381855af49150503d805f8114610ea4576040519150601f19603f3d011682016040523d82523d5f602084013e610ea9565b606091505b5091509150610eb9858383610ee1565b95945050505050565b34156104a85760405163b398979f60e01b815260040160405180910390fd5b606082610ef657610ef182610f3d565b610456565b8151158015610f0d57506001600160a01b0384163b155b15610f3657604051639996b31560e01b81526001600160a01b0385166004820152602401610a19565b5092915050565b805115610f4d5780518082602001fd5b604051630a12f52160e11b815260040160405180910390fd5b6001600160a01b0381168114610aaa575f80fd5b5f8060408385031215610f8b575f80fd5b8235610f9681610f66565b91506020830135610fa681610f66565b809150509250929050565b5f60208284031215610fc1575f80fd5b5035919050565b5f60208284031215610fd8575f80fd5b813561045681610f66565b602080825282518282018190525f9190848201906040850190845b818110156110235783516001600160a01b031683529284019291840191600101610ffe565b50909695505050505050565b634e487b7160e01b5f52604160045260245ffd5b604051601f8201601f1916810167ffffffffffffffff8111828210171561106c5761106c61102f565b604052919050565b5f8060408385031215611085575f80fd5b823561109081610f66565b915060208381013567ffffffffffffffff808211156110ad575f80fd5b818601915086601f8301126110c0575f80fd5b8135818111156110d2576110d261102f565b6110e4601f8201601f19168501611043565b915080825287848285010111156110f9575f80fd5b80848401858401375f848284010152508093505050509250929050565b5f8060408385031215611127575f80fd5b823561113281610f66565b9150602083013567ffffffffffffffff81168114610fa6575f80fd5b602081525f82518060208401528060208501604085015e5f604082850101526040601f19601f83011684010191505092915050565b5f6020808385031215611194575f80fd5b825167ffffffffffffffff808211156111ab575f80fd5b818501915085601f8301126111be575f80fd5b8151818111156111d0576111d061102f565b8060051b91506111e1848301611043565b81815291830184019184810190888411156111fa575f80fd5b938501935b83851015611224578451925061121483610f66565b82825293850193908501906111ff565b98975050505050505050565b634e487b7160e01b5f52603260045260245ffd5b5f6001820161126157634e487b7160e01b5f52601160045260245ffd5b5060010190565b5f60208284031215611278575f80fd5b5051919050565b5f82518060208501845e5f92019182525091905056fe360894a13ba1a3210667c828492db98dca3e2076cc3735a920a3ca505d382bbca264697066735822122078e1256cdc08b6ed411cff706531fe4543d3bfc39a1d69f46f44afe1563f6a8964736f6c63430008190033",
  "linkReferences": {},
  "deployedLinkReferences": {}
}