{"contracts/mock/MockRebalancer.sol":{"MockRebalancer":{"abi":[{"inputs":[{"internalType":"address","name":"usdt","type":"address"},{"internalType":"address","name":"_usdc","type":"address"},{"internalType":"address","name":"_wmatic","type":"address"},{"internalType":"address","name":"weth","type":"address"},{"internalType":"address","name":"wbtc","type":"address"}],"stateMutability":"nonpayable","type":"constructor"},{"inputs":[],"name":"USDC_TO_USDT_RATE","outputs":[{"internalType":"uint256","name":"","type":"uint256"}],"stateMutability":"view","type":"function"},{"inputs":[],"name":"USDC_TO_WBTC_RATE","outputs":[{"internalType":"uint256","name":"","type":"uint256"}],"stateMutability":"view","type":"function"},{"inputs":[],"name":"USDC_TO_WETH_RATE","outputs":[{"internalType":"uint256","name":"","type":"uint256"}],"stateMutability":"view","type":"function"},{"inputs":[],"name":"USDC_TO_WMATIC_RATE","outputs":[{"internalType":"uint256","name":"","type":"uint256"}],"stateMutability":"view","type":"function"},{"inputs":[],"name":"USDT_TO_USDC_RATE","outputs":[{"internalType":"uint256","name":"","type":"uint256"}],"stateMutability":"view","type":"function"},{"inputs":[],"name":"USDT_TO_WBTC_RATE","outputs":[{"internalType":"uint256","name":"","type":"uint256"}],"stateMutability":"view","type":"function"},{"inputs":[],"name":"USDT_TO_WETH_RATE","outputs":[{"internalType":"uint256","name":"","type":"uint256"}],"stateMutability":"view","type":"function"},{"inputs":[],"name":"USDT_TO_WMATIC_RATE","outputs":[{"internalType":"uint256","name":"","type":"uint256"}],"stateMutability":"view","type":"function"},{"inputs":[],"name":"WBTC_TO_USDC_RATE","outputs":[{"internalType":"uint256","name":"","type":"uint256"}],"stateMutability":"view","type":"function"},{"inputs":[],"name":"WBTC_TO_USDT_RATE","outputs":[{"internalType":"uint256","name":"","type":"uint256"}],"stateMutability":"view","type":"function"},{"inputs":[],"name":"WBTC_TO_WETH_RATE","outputs":[{"internalType":"uint256","name":"","type":"uint256"}],"stateMutability":"view","type":"function"},{"inputs":[],"name":"WBTC_TO_WMATIC_RATE","outputs":[{"internalType":"uint256","name":"","type":"uint256"}],"stateMutability":"view","type":"function"},{"inputs":[],"name":"WETH_TO_USDC_RATE","outputs":[{"internalType":"uint256","name":"","type":"uint256"}],"stateMutability":"view","type":"function"},{"inputs":[],"name":"WETH_TO_WMATIC_RATE","outputs":[{"internalType":"uint256","name":"","type":"uint256"}],"stateMutability":"view","type":"function"},{"inputs":[],"name":"WMATIC_TO_USDC_RATE","outputs":[{"internalType":"uint256","name":"","type":"uint256"}],"stateMutability":"view","type":"function"},{"inputs":[],"name":"WMATIC_TO_USDT_RATE","outputs":[{"internalType":"uint256","name":"","type":"uint256"}],"stateMutability":"view","type":"function"},{"inputs":[],"name":"WMATIC_TO_WBTC_RATE","outputs":[{"internalType":"uint256","name":"","type":"uint256"}],"stateMutability":"view","type":"function"},{"inputs":[],"name":"WMATIC_TO_WETH_RATE","outputs":[{"internalType":"uint256","name":"","type":"uint256"}],"stateMutability":"view","type":"function"},{"inputs":[{"internalType":"address[]","name":"","type":"address[]"},{"internalType":"uint256[]","name":"","type":"uint256[]"},{"internalType":"uint256[]","name":"","type":"uint256[]"}],"name":"checkRebalance","outputs":[{"internalType":"bool","name":"","type":"bool"}],"stateMutability":"view","type":"function"},{"inputs":[{"internalType":"address","name":"fromToken","type":"address"},{"internalType":"address","name":"toToken","type":"address"},{"internalType":"uint256","name":"amount","type":"uint256"}],"name":"convert","outputs":[{"internalType":"uint256","name":"","type":"uint256"}],"stateMutability":"view","type":"function"},{"inputs":[],"name":"getBaluniRouter","outputs":[{"internalType":"address","name":"","type":"address"}],"stateMutability":"view","type":"function"},{"inputs":[{"internalType":"contract IERC20","name":"fromToken","type":"address"},{"internalType":"contract IERC20","name":"toToken","type":"address"},{"internalType":"bool","name":"","type":"bool"}],"name":"getRate","outputs":[{"internalType":"uint256","name":"","type":"uint256"}],"stateMutability":"view","type":"function"},{"inputs":[{"internalType":"contract IERC20","name":"fromToken","type":"address"},{"internalType":"bool","name":"","type":"bool"}],"name":"getRateToEth","outputs":[{"internalType":"uint256","name":"","type":"uint256"}],"stateMutability":"view","type":"function"},{"inputs":[],"name":"getTreasury","outputs":[{"internalType":"address","name":"","type":"address"}],"stateMutability":"view","type":"function"},{"inputs":[],"name":"getUSDCAddress","outputs":[{"internalType":"address","name":"","type":"address"}],"stateMutability":"view","type":"function"},{"inputs":[],"name":"getWNATIVEAddress","outputs":[{"internalType":"address","name":"","type":"address"}],"stateMutability":"view","type":"function"},{"inputs":[{"internalType":"address","name":"","type":"address"},{"internalType":"address","name":"","type":"address"}],"name":"rates","outputs":[{"internalType":"uint256","name":"","type":"uint256"}],"stateMutability":"view","type":"function"},{"inputs":[{"internalType":"address[]","name":"","type":"address[]"},{"internalType":"uint256[]","name":"","type":"uint256[]"},{"internalType":"address","name":"","type":"address"},{"internalType":"address","name":"","type":"address"},{"internalType":"uint256","name":"","type":"uint256"}],"name":"rebalance","outputs":[],"stateMutability":"nonpayable","type":"function"},{"inputs":[{"internalType":"address","name":"fromToken","type":"address"},{"internalType":"address","name":"toToken","type":"address"},{"internalType":"uint256","name":"rate","type":"uint256"}],"name":"setRate","outputs":[],"stateMutability":"nonpayable","type":"function"},{"inputs":[{"internalType":"address","name":"_treasury","type":"address"}],"name":"setTreasury","outputs":[],"stateMutability":"nonpayable","type":"function"},{"inputs":[],"name":"treasury","outputs":[{"internalType":"address","name":"","type":"address"}],"stateMutability":"view","type":"function"},{"inputs":[],"name":"usdc","outputs":[{"internalType":"address","name":"","type":"address"}],"stateMutability":"view","type":"function"},{"inputs":[],"name":"wmatic","outputs":[{"internalType":"address","name":"","type":"address"}],"stateMutability":"view","type":"function"}],"devdoc":{"kind":"dev","methods":{},"version":1},"evm":{"bytecode":{"linkReferences":{},"object":"6080346102d757601f61122538819003918201601f191683019291906001600160401b038411838510176102db578160a092849260409687528339810103126102d75761004b816102ef565b6020906100598284016102ef565b926100658582016102ef565b61007d6080610076606085016102ef565b93016102ef565b9260018060a01b0393848060018060a01b03199881600196168a8754161786551692836002998a54161789551691825f525f8752885f20905f528652670ddbb3130051477a885f2055815f525f865284885f20911690815f52865266052de6f3e9958f885f2055815f525f865284885f20941693845f5286526ad47d67cce9223fad7de347885f2055815f525f8652875f20858454165f5286526c110f11bc46bc3efcc5b8ff1223885f2055805f525f8652875f20825f5286526824efc5d2223b2ab2b2885f2055805f525f8652875f20858454165f5286526d2d9856fc421a9fd095f8b44c49db885f2055805f525f8652875f20858854165f528652682506936e734ac2f926885f2055805f525f8652875f20845f5286526c0236febc16a26943df322289be885f2055848754165f525f8652875f20825f528652670de435a2a433cf48885f2055848754165f525f8652875f20815f528652660533304f826d31885f2055848754165f525f8652875f20858454165f5286526c110dcba2e6f97b2a41a7eba1b8885f2055848754165f525f8652875f20845f5286526ad4801858112018c8850bae885f2055848354165f525f8652875f20905f528552610438875f2055838254165f525f8552865f20835f52855265ac76a57eb9a4875f2055838254165f525f8552865f20848754165f528552620b32d1875f2055838254165f525f8552865f20905f528452620b68f7865f2055815f525f845282865f209154165f52835269011de1930ce9ab44b5a1855f20555f525f8252835f209254165f525263e4ac0516815f205551610f2190816103048239f35b5f80fd5b634e487b7160e01b5f52604160045260245ffd5b51906001600160a01b03821682036102d75756fe6080604090808252600480361015610015575f80fd5b5f3560e01c9182630209871914610b155750816304cc732514610add5781630e09176214610aa2578163187029b814610a6857816318cdc49a146109dc5781631a1e4a1f14610997578163248391ff146109755781633b19e84a1461078c5781633e413bee146109235781634039e687146108e7578163443dc789146108a45781635107e94e1461085f57816353ff493e1461081e5781635911fb9a146107de57816361d027b31461078c5781637b0cf44d146107185781637de4fd101461069e578163802431fb1461061e57816384db1dfb14610587575080638e5139ed14610541578063956fb510146104ef57806397db8e02146104b0578063a58a7f8a14610470578063ae3bcc9614610432578063b537d24b146103f2578063b9e93810146103ad578063bc06e81d1461035b578063c018498314610320578063d135e3be146102df578063e2338e721461029c578063e30f68921461025a578063f0f44260146101e05763fb41be161461018b575f80fd5b346101dc575f7ffffffffffffffffffffffffffffffffffffffffffffffffffffffffffffffffc3601126101dc5760209073ffffffffffffffffffffffffffffffffffffffff600154169051908152f35b5f80fd5b346101dc5760207ffffffffffffffffffffffffffffffffffffffffffffffffffffffffffffffffc3601126101dc5773ffffffffffffffffffffffffffffffffffffffff61022c610b83565b167fffffffffffffffffffffffff000000000000000000000000000000000000000060035416176003555f80f35b50346101dc575f7ffffffffffffffffffffffffffffffffffffffffffffffffffffffffffffffffc3601126101dc576020905169011de1930ce9ab44b5a18152f35b50346101dc575f7ffffffffffffffffffffffffffffffffffffffffffffffffffffffffffffffffc3601126101dc57602090516ad4801858112018c8850bae8152f35b50346101dc575f7ffffffffffffffffffffffffffffffffffffffffffffffffffffffffffffffffc3601126101dc57602090516824efc5d2223b2ab2b28152f35b50346101dc575f7ffffffffffffffffffffffffffffffffffffffffffffffffffffffffffffffffc3601126101dc5760209051620b32d18152f35b50346101dc575f7ffffffffffffffffffffffffffffffffffffffffffffffffffffffffffffffffc3601126101dc5760209073ffffffffffffffffffffffffffffffffffffffff600254169051908152f35b50346101dc575f7ffffffffffffffffffffffffffffffffffffffffffffffffffffffffffffffffc3601126101dc57602090516c0236febc16a26943df322289be8152f35b50346101dc575f7ffffffffffffffffffffffffffffffffffffffffffffffffffffffffffffffffc3601126101dc5760209051670de435a2a433cf488152f35b50346101dc575f7ffffffffffffffffffffffffffffffffffffffffffffffffffffffffffffffffc3601126101dc576020905165ac76a57eb9a48152f35b50346101dc575f7ffffffffffffffffffffffffffffffffffffffffffffffffffffffffffffffffc3601126101dc5760209051670ddbb3130051477a8152f35b50346101dc575f7ffffffffffffffffffffffffffffffffffffffffffffffffffffffffffffffffc3601126101dc576020905166052de6f3e9958f8152f35b50346101dc575f7ffffffffffffffffffffffffffffffffffffffffffffffffffffffffffffffffc3601126101dc5760209073ffffffffffffffffffffffffffffffffffffffff600154169051908152f35b50346101dc575f7ffffffffffffffffffffffffffffffffffffffffffffffffffffffffffffffffc3601126101dc57602090516d2d9856fc421a9fd095f8b44c49db8152f35b346101dc5760a07ffffffffffffffffffffffffffffffffffffffffffffffffffffffffffffffffc3601126101dc5767ffffffffffffffff9080358281116101dc576105d69036908301610b52565b50506024359182116101dc576105ee91369101610b52565b505060443573ffffffffffffffffffffffffffffffffffffffff90818116036101dc57606435908116036101dc57005b82346101dc5760607ffffffffffffffffffffffffffffffffffffffffffffffffffffffffffffffffc3601126101dc57610656610b83565b9061065f610ba6565b604435801515036101dc5760209273ffffffffffffffffffffffffffffffffffffffff8091165f525f8452825f2091165f528252805f20549051908152f35b82346101dc57807ffffffffffffffffffffffffffffffffffffffffffffffffffffffffffffffffc3601126101dc576106d5610b83565b90602435801515036101dc5760209173ffffffffffffffffffffffffffffffffffffffff8091165f525f8352815f2090600154165f528252805f20549051908152f35b82346101dc57807ffffffffffffffffffffffffffffffffffffffffffffffffffffffffffffffffc3601126101dc57602090610752610b83565b61075a610ba6565b9073ffffffffffffffffffffffffffffffffffffffff8091165f525f8452825f2091165f528252805f20549051908152f35b82346101dc575f7ffffffffffffffffffffffffffffffffffffffffffffffffffffffffffffffffc3601126101dc5760209073ffffffffffffffffffffffffffffffffffffffff600354169051908152f35b82346101dc576107ed36610bc9565b929173ffffffffffffffffffffffffffffffffffffffff8091165f525f602052825f2091165f526020525f20555f80f35b82346101dc575f7ffffffffffffffffffffffffffffffffffffffffffffffffffffffffffffffffc3601126101dc5760209051682506936e734ac2f9268152f35b82346101dc575f7ffffffffffffffffffffffffffffffffffffffffffffffffffffffffffffffffc3601126101dc57602090516c110dcba2e6f97b2a41a7eba1b88152f35b82346101dc575f7ffffffffffffffffffffffffffffffffffffffffffffffffffffffffffffffffc3601126101dc57602090516ad47d67cce9223fad7de3478152f35b82346101dc575f7ffffffffffffffffffffffffffffffffffffffffffffffffffffffffffffffffc3601126101dc576020905163e4ac05168152f35b82346101dc575f7ffffffffffffffffffffffffffffffffffffffffffffffffffffffffffffffffc3601126101dc5760209073ffffffffffffffffffffffffffffffffffffffff600254169051908152f35b82346101dc5760209061099061098a36610bc9565b91610d4c565b9051908152f35b82346101dc575f7ffffffffffffffffffffffffffffffffffffffffffffffffffffffffffffffffc3601126101dc57602090516c110f11bc46bc3efcc5b8ff12238152f35b82346101dc5760607ffffffffffffffffffffffffffffffffffffffffffffffffffffffffffffffffc3601126101dc5767ffffffffffffffff82358181116101dc57610a2b9036908501610b52565b50506024358181116101dc57610a449036908501610b52565b50506044359081116101dc57602092610a5f91369101610b52565b50505160018152f35b82346101dc575f7ffffffffffffffffffffffffffffffffffffffffffffffffffffffffffffffffc3601126101dc57602090516104388152f35b82346101dc575f7ffffffffffffffffffffffffffffffffffffffffffffffffffffffffffffffffc3601126101dc5760209051620b68f78152f35b82346101dc575f7ffffffffffffffffffffffffffffffffffffffffffffffffffffffffffffffffc3601126101dc57602090515f8152f35b346101dc575f7ffffffffffffffffffffffffffffffffffffffffffffffffffffffffffffffffc3601126101dc5780660533304f826d3160209252f35b9181601f840112156101dc5782359167ffffffffffffffff83116101dc576020808501948460051b0101116101dc57565b6004359073ffffffffffffffffffffffffffffffffffffffff821682036101dc57565b6024359073ffffffffffffffffffffffffffffffffffffffff821682036101dc57565b7ffffffffffffffffffffffffffffffffffffffffffffffffffffffffffffffffc60609101126101dc5773ffffffffffffffffffffffffffffffffffffffff9060043582811681036101dc579160243590811681036101dc579060443590565b90601f7fffffffffffffffffffffffffffffffffffffffffffffffffffffffffffffffe0910116810190811067ffffffffffffffff821117610c6a57604052565b7f4e487b71000000000000000000000000000000000000000000000000000000005f52604160045260245ffd5b908160209103126101dc575160ff811681036101dc5790565b60ff16604d8111610cc157600a0a90565b7f4e487b71000000000000000000000000000000000000000000000000000000005f52601160045260245ffd5b81810292918115918404141715610cc157565b8115610d0b570490565b7f4e487b71000000000000000000000000000000000000000000000000000000005f52601260045260245ffd5b9060ff8091169116039060ff8211610cc157565b9173ffffffffffffffffffffffffffffffffffffffff8093166040928351937f313ce56700000000000000000000000000000000000000000000000000000000958686526020928387600481885afa968715610ee1575f97610ec2575b501681519687528287600481845afa968715610eb8575f97610e6b575b5092610e06670de0b6b3a76400009593610e0b93610e1196610de78a610cb0565b92610df18c610cb0565b955f525f8152825f20915f52525f2054610cee565b610d01565b90610cee565b049160ff81169060ff831691808314610e6457610e40921192835f14610e5b5790610e3b91610d38565b610cb0565b9015610e5257610e4f91610d01565b90565b610e4f91610cee565b610e3b91610d38565b5050505090565b610e119491975083610e0b93610ea3610e0693670de0b6b3a764000099973d8511610eb1575b610e9b8183610c29565b810190610c97565b999396509350939550610dc6565b503d610e91565b82513d5f823e3d90fd5b610eda919750843d8611610eb157610e9b8183610c29565b955f610da9565b83513d5f823e3d90fdfea2646970667358221220ad1b7b56147bada4b0c17000d38c769c1d25faa2ec3f20154ad3945722ce6b2564736f6c63430008190033","opcodes":"PUSH1 0x80 CALLVALUE PUSH2 0x2D7 JUMPI PUSH1 0x1F PUSH2 0x1225 CODESIZE DUP2 SWAP1 SUB SWAP2 DUP3 ADD PUSH1 0x1F NOT AND DUP4 ADD SWAP3 SWAP2 SWAP1 PUSH1 0x1 PUSH1 0x1 PUSH1 0x40 SHL SUB DUP5 GT DUP4 DUP6 LT OR PUSH2 0x2DB JUMPI DUP2 PUSH1 0xA0 SWAP3 DUP5 SWAP3 PUSH1 0x40 SWAP7 DUP8 MSTORE DUP4 CODECOPY DUP2 ADD SUB SLT PUSH2 0x2D7 JUMPI PUSH2 0x4B DUP2 PUSH2 0x2EF JUMP JUMPDEST PUSH1 0x20 SWAP1 PUSH2 0x59 DUP3 DUP5 ADD PUSH2 0x2EF JUMP JUMPDEST SWAP3 PUSH2 0x65 DUP6 DUP3 ADD PUSH2 0x2EF JUMP JUMPDEST PUSH2 0x7D PUSH1 0x80 PUSH2 0x76 PUSH1 0x60 DUP6 ADD PUSH2 0x2EF JUMP JUMPDEST SWAP4 ADD PUSH2 0x2EF JUMP JUMPDEST SWAP3 PUSH1 0x1 DUP1 PUSH1 0xA0 SHL SUB SWAP4 DUP5 DUP1 PUSH1 0x1 DUP1 PUSH1 0xA0 SHL SUB NOT SWAP9 DUP2 PUSH1 0x1 SWAP7 AND DUP11 DUP8 SLOAD AND OR DUP7 SSTORE AND SWAP3 DUP4 PUSH1 0x2 SWAP10 DUP11 SLOAD AND OR DUP10 SSTORE AND SWAP2 DUP3 PUSH0 MSTORE PUSH0 DUP8 MSTORE DUP9 PUSH0 KECCAK256 SWAP1 PUSH0 MSTORE DUP7 MSTORE PUSH8 0xDDBB3130051477A DUP9 PUSH0 KECCAK256 SSTORE DUP2 PUSH0 MSTORE PUSH0 DUP7 MSTORE DUP5 DUP9 PUSH0 KECCAK256 SWAP2 AND SWAP1 DUP2 PUSH0 MSTORE DUP7 MSTORE PUSH7 0x52DE6F3E9958F DUP9 PUSH0 KECCAK256 SSTORE DUP2 PUSH0 MSTORE PUSH0 DUP7 MSTORE DUP5 DUP9 PUSH0 KECCAK256 SWAP5 AND SWAP4 DUP5 PUSH0 MSTORE DUP7 MSTORE PUSH11 0xD47D67CCE9223FAD7DE347 DUP9 PUSH0 KECCAK256 SSTORE DUP2 PUSH0 MSTORE PUSH0 DUP7 MSTORE DUP8 PUSH0 KECCAK256 DUP6 DUP5 SLOAD AND PUSH0 MSTORE DUP7 MSTORE PUSH13 0x110F11BC46BC3EFCC5B8FF1223 DUP9 PUSH0 KECCAK256 SSTORE DUP1 PUSH0 MSTORE PUSH0 DUP7 MSTORE DUP8 PUSH0 KECCAK256 DUP3 PUSH0 MSTORE DUP7 MSTORE PUSH9 0x24EFC5D2223B2AB2B2 DUP9 PUSH0 KECCAK256 SSTORE DUP1 PUSH0 MSTORE PUSH0 DUP7 MSTORE DUP8 PUSH0 KECCAK256 DUP6 DUP5 SLOAD AND PUSH0 MSTORE DUP7 MSTORE PUSH14 0x2D9856FC421A9FD095F8B44C49DB DUP9 PUSH0 KECCAK256 SSTORE DUP1 PUSH0 MSTORE PUSH0 DUP7 MSTORE DUP8 PUSH0 KECCAK256 DUP6 DUP9 SLOAD AND PUSH0 MSTORE DUP7 MSTORE PUSH9 0x2506936E734AC2F926 DUP9 PUSH0 KECCAK256 SSTORE DUP1 PUSH0 MSTORE PUSH0 DUP7 MSTORE DUP8 PUSH0 KECCAK256 DUP5 PUSH0 MSTORE DUP7 MSTORE PUSH13 0x236FEBC16A26943DF322289BE DUP9 PUSH0 KECCAK256 SSTORE DUP5 DUP8 SLOAD AND PUSH0 MSTORE PUSH0 DUP7 MSTORE DUP8 PUSH0 KECCAK256 DUP3 PUSH0 MSTORE DUP7 MSTORE PUSH8 0xDE435A2A433CF48 DUP9 PUSH0 KECCAK256 SSTORE DUP5 DUP8 SLOAD AND PUSH0 MSTORE PUSH0 DUP7 MSTORE DUP8 PUSH0 KECCAK256 DUP2 PUSH0 MSTORE DUP7 MSTORE PUSH7 0x533304F826D31 DUP9 PUSH0 KECCAK256 SSTORE DUP5 DUP8 SLOAD AND PUSH0 MSTORE PUSH0 DUP7 MSTORE DUP8 PUSH0 KECCAK256 DUP6 DUP5 SLOAD AND PUSH0 MSTORE DUP7 MSTORE PUSH13 0x110DCBA2E6F97B2A41A7EBA1B8 DUP9 PUSH0 KECCAK256 SSTORE DUP5 DUP8 SLOAD AND PUSH0 MSTORE PUSH0 DUP7 MSTORE DUP8 PUSH0 KECCAK256 DUP5 PUSH0 MSTORE DUP7 MSTORE PUSH11 0xD4801858112018C8850BAE DUP9 PUSH0 KECCAK256 SSTORE DUP5 DUP4 SLOAD AND PUSH0 MSTORE PUSH0 DUP7 MSTORE DUP8 PUSH0 KECCAK256 SWAP1 PUSH0 MSTORE DUP6 MSTORE PUSH2 0x438 DUP8 PUSH0 KECCAK256 SSTORE DUP4 DUP3 SLOAD AND PUSH0 MSTORE PUSH0 DUP6 MSTORE DUP7 PUSH0 KECCAK256 DUP4 PUSH0 MSTORE DUP6 MSTORE PUSH6 0xAC76A57EB9A4 DUP8 PUSH0 KECCAK256 SSTORE DUP4 DUP3 SLOAD AND PUSH0 MSTORE PUSH0 DUP6 MSTORE DUP7 PUSH0 KECCAK256 DUP5 DUP8 SLOAD AND PUSH0 MSTORE DUP6 MSTORE PUSH3 0xB32D1 DUP8 PUSH0 KECCAK256 SSTORE DUP4 DUP3 SLOAD AND PUSH0 MSTORE PUSH0 DUP6 MSTORE DUP7 PUSH0 KECCAK256 SWAP1 PUSH0 MSTORE DUP5 MSTORE PUSH3 0xB68F7 DUP7 PUSH0 KECCAK256 SSTORE DUP2 PUSH0 MSTORE PUSH0 DUP5 MSTORE DUP3 DUP7 PUSH0 KECCAK256 SWAP2 SLOAD AND PUSH0 MSTORE DUP4 MSTORE PUSH10 0x11DE1930CE9AB44B5A1 DUP6 PUSH0 KECCAK256 SSTORE PUSH0 MSTORE PUSH0 DUP3 MSTORE DUP4 PUSH0 KECCAK256 SWAP3 SLOAD AND PUSH0 MSTORE MSTORE PUSH4 0xE4AC0516 DUP2 PUSH0 KECCAK256 SSTORE MLOAD PUSH2 0xF21 SWAP1 DUP2 PUSH2 0x304 DUP3 CODECOPY RETURN JUMPDEST PUSH0 DUP1 REVERT JUMPDEST PUSH4 0x4E487B71 PUSH1 0xE0 SHL PUSH0 MSTORE PUSH1 0x41 PUSH1 0x4 MSTORE PUSH1 0x24 PUSH0 REVERT JUMPDEST MLOAD SWAP1 PUSH1 0x1 PUSH1 0x1 PUSH1 0xA0 SHL SUB DUP3 AND DUP3 SUB PUSH2 0x2D7 JUMPI JUMP INVALID PUSH1 0x80 PUSH1 0x40 SWAP1 DUP1 DUP3 MSTORE PUSH1 0x4 DUP1 CALLDATASIZE LT ISZERO PUSH2 0x15 JUMPI PUSH0 DUP1 REVERT JUMPDEST PUSH0 CALLDATALOAD PUSH1 0xE0 SHR SWAP2 DUP3 PUSH4 0x2098719 EQ PUSH2 0xB15 JUMPI POP DUP2 PUSH4 0x4CC7325 EQ PUSH2 0xADD JUMPI DUP2 PUSH4 0xE091762 EQ PUSH2 0xAA2 JUMPI DUP2 PUSH4 0x187029B8 EQ PUSH2 0xA68 JUMPI DUP2 PUSH4 0x18CDC49A EQ PUSH2 0x9DC JUMPI DUP2 PUSH4 0x1A1E4A1F EQ PUSH2 0x997 JUMPI DUP2 PUSH4 0x248391FF EQ PUSH2 0x975 JUMPI DUP2 PUSH4 0x3B19E84A EQ PUSH2 0x78C JUMPI DUP2 PUSH4 0x3E413BEE EQ PUSH2 0x923 JUMPI DUP2 PUSH4 0x4039E687 EQ PUSH2 0x8E7 JUMPI DUP2 PUSH4 0x443DC789 EQ PUSH2 0x8A4 JUMPI DUP2 PUSH4 0x5107E94E EQ PUSH2 0x85F JUMPI DUP2 PUSH4 0x53FF493E EQ PUSH2 0x81E JUMPI DUP2 PUSH4 0x5911FB9A EQ PUSH2 0x7DE JUMPI DUP2 PUSH4 0x61D027B3 EQ PUSH2 0x78C JUMPI DUP2 PUSH4 0x7B0CF44D EQ PUSH2 0x718 JUMPI DUP2 PUSH4 0x7DE4FD10 EQ PUSH2 0x69E JUMPI DUP2 PUSH4 0x802431FB EQ PUSH2 0x61E JUMPI DUP2 PUSH4 0x84DB1DFB EQ PUSH2 0x587 JUMPI POP DUP1 PUSH4 0x8E5139ED EQ PUSH2 0x541 JUMPI DUP1 PUSH4 0x956FB510 EQ PUSH2 0x4EF JUMPI DUP1 PUSH4 0x97DB8E02 EQ PUSH2 0x4B0 JUMPI DUP1 PUSH4 0xA58A7F8A EQ PUSH2 0x470 JUMPI DUP1 PUSH4 0xAE3BCC96 EQ PUSH2 0x432 JUMPI DUP1 PUSH4 0xB537D24B EQ PUSH2 0x3F2 JUMPI DUP1 PUSH4 0xB9E93810 EQ PUSH2 0x3AD JUMPI DUP1 PUSH4 0xBC06E81D EQ PUSH2 0x35B JUMPI DUP1 PUSH4 0xC0184983 EQ PUSH2 0x320 JUMPI DUP1 PUSH4 0xD135E3BE EQ PUSH2 0x2DF JUMPI DUP1 PUSH4 0xE2338E72 EQ PUSH2 0x29C JUMPI DUP1 PUSH4 0xE30F6892 EQ PUSH2 0x25A JUMPI DUP1 PUSH4 0xF0F44260 EQ PUSH2 0x1E0 JUMPI PUSH4 0xFB41BE16 EQ PUSH2 0x18B JUMPI PUSH0 DUP1 REVERT JUMPDEST CALLVALUE PUSH2 0x1DC JUMPI PUSH0 PUSH32 0xFFFFFFFFFFFFFFFFFFFFFFFFFFFFFFFFFFFFFFFFFFFFFFFFFFFFFFFFFFFFFFFC CALLDATASIZE ADD SLT PUSH2 0x1DC JUMPI PUSH1 0x20 SWAP1 PUSH20 0xFFFFFFFFFFFFFFFFFFFFFFFFFFFFFFFFFFFFFFFF PUSH1 0x1 SLOAD AND SWAP1 MLOAD SWAP1 DUP2 MSTORE RETURN JUMPDEST PUSH0 DUP1 REVERT JUMPDEST CALLVALUE PUSH2 0x1DC JUMPI PUSH1 0x20 PUSH32 0xFFFFFFFFFFFFFFFFFFFFFFFFFFFFFFFFFFFFFFFFFFFFFFFFFFFFFFFFFFFFFFFC CALLDATASIZE ADD SLT PUSH2 0x1DC JUMPI PUSH20 0xFFFFFFFFFFFFFFFFFFFFFFFFFFFFFFFFFFFFFFFF PUSH2 0x22C PUSH2 0xB83 JUMP JUMPDEST AND PUSH32 0xFFFFFFFFFFFFFFFFFFFFFFFF0000000000000000000000000000000000000000 PUSH1 0x3 SLOAD AND OR PUSH1 0x3 SSTORE PUSH0 DUP1 RETURN JUMPDEST POP CALLVALUE PUSH2 0x1DC JUMPI PUSH0 PUSH32 0xFFFFFFFFFFFFFFFFFFFFFFFFFFFFFFFFFFFFFFFFFFFFFFFFFFFFFFFFFFFFFFFC CALLDATASIZE ADD SLT PUSH2 0x1DC JUMPI PUSH1 0x20 SWAP1 MLOAD PUSH10 0x11DE1930CE9AB44B5A1 DUP2 MSTORE RETURN JUMPDEST POP CALLVALUE PUSH2 0x1DC JUMPI PUSH0 PUSH32 0xFFFFFFFFFFFFFFFFFFFFFFFFFFFFFFFFFFFFFFFFFFFFFFFFFFFFFFFFFFFFFFFC CALLDATASIZE ADD SLT PUSH2 0x1DC JUMPI PUSH1 0x20 SWAP1 MLOAD PUSH11 0xD4801858112018C8850BAE DUP2 MSTORE RETURN JUMPDEST POP CALLVALUE PUSH2 0x1DC JUMPI PUSH0 PUSH32 0xFFFFFFFFFFFFFFFFFFFFFFFFFFFFFFFFFFFFFFFFFFFFFFFFFFFFFFFFFFFFFFFC CALLDATASIZE ADD SLT PUSH2 0x1DC JUMPI PUSH1 0x20 SWAP1 MLOAD PUSH9 0x24EFC5D2223B2AB2B2 DUP2 MSTORE RETURN JUMPDEST POP CALLVALUE PUSH2 0x1DC JUMPI PUSH0 PUSH32 0xFFFFFFFFFFFFFFFFFFFFFFFFFFFFFFFFFFFFFFFFFFFFFFFFFFFFFFFFFFFFFFFC CALLDATASIZE ADD SLT PUSH2 0x1DC JUMPI PUSH1 0x20 SWAP1 MLOAD PUSH3 0xB32D1 DUP2 MSTORE RETURN JUMPDEST POP CALLVALUE PUSH2 0x1DC JUMPI PUSH0 PUSH32 0xFFFFFFFFFFFFFFFFFFFFFFFFFFFFFFFFFFFFFFFFFFFFFFFFFFFFFFFFFFFFFFFC CALLDATASIZE ADD SLT PUSH2 0x1DC JUMPI PUSH1 0x20 SWAP1 PUSH20 0xFFFFFFFFFFFFFFFFFFFFFFFFFFFFFFFFFFFFFFFF PUSH1 0x2 SLOAD AND SWAP1 MLOAD SWAP1 DUP2 MSTORE RETURN JUMPDEST POP CALLVALUE PUSH2 0x1DC JUMPI PUSH0 PUSH32 0xFFFFFFFFFFFFFFFFFFFFFFFFFFFFFFFFFFFFFFFFFFFFFFFFFFFFFFFFFFFFFFFC CALLDATASIZE ADD SLT PUSH2 0x1DC JUMPI PUSH1 0x20 SWAP1 MLOAD PUSH13 0x236FEBC16A26943DF322289BE DUP2 MSTORE RETURN JUMPDEST POP CALLVALUE PUSH2 0x1DC JUMPI PUSH0 PUSH32 0xFFFFFFFFFFFFFFFFFFFFFFFFFFFFFFFFFFFFFFFFFFFFFFFFFFFFFFFFFFFFFFFC CALLDATASIZE ADD SLT PUSH2 0x1DC JUMPI PUSH1 0x20 SWAP1 MLOAD PUSH8 0xDE435A2A433CF48 DUP2 MSTORE RETURN JUMPDEST POP CALLVALUE PUSH2 0x1DC JUMPI PUSH0 PUSH32 0xFFFFFFFFFFFFFFFFFFFFFFFFFFFFFFFFFFFFFFFFFFFFFFFFFFFFFFFFFFFFFFFC CALLDATASIZE ADD SLT PUSH2 0x1DC JUMPI PUSH1 0x20 SWAP1 MLOAD PUSH6 0xAC76A57EB9A4 DUP2 MSTORE RETURN JUMPDEST POP CALLVALUE PUSH2 0x1DC JUMPI PUSH0 PUSH32 0xFFFFFFFFFFFFFFFFFFFFFFFFFFFFFFFFFFFFFFFFFFFFFFFFFFFFFFFFFFFFFFFC CALLDATASIZE ADD SLT PUSH2 0x1DC JUMPI PUSH1 0x20 SWAP1 MLOAD PUSH8 0xDDBB3130051477A DUP2 MSTORE RETURN JUMPDEST POP CALLVALUE PUSH2 0x1DC JUMPI PUSH0 PUSH32 0xFFFFFFFFFFFFFFFFFFFFFFFFFFFFFFFFFFFFFFFFFFFFFFFFFFFFFFFFFFFFFFFC CALLDATASIZE ADD SLT PUSH2 0x1DC JUMPI PUSH1 0x20 SWAP1 MLOAD PUSH7 0x52DE6F3E9958F DUP2 MSTORE RETURN JUMPDEST POP CALLVALUE PUSH2 0x1DC JUMPI PUSH0 PUSH32 0xFFFFFFFFFFFFFFFFFFFFFFFFFFFFFFFFFFFFFFFFFFFFFFFFFFFFFFFFFFFFFFFC CALLDATASIZE ADD SLT PUSH2 0x1DC JUMPI PUSH1 0x20 SWAP1 PUSH20 0xFFFFFFFFFFFFFFFFFFFFFFFFFFFFFFFFFFFFFFFF PUSH1 0x1 SLOAD AND SWAP1 MLOAD SWAP1 DUP2 MSTORE RETURN JUMPDEST POP CALLVALUE PUSH2 0x1DC JUMPI PUSH0 PUSH32 0xFFFFFFFFFFFFFFFFFFFFFFFFFFFFFFFFFFFFFFFFFFFFFFFFFFFFFFFFFFFFFFFC CALLDATASIZE ADD SLT PUSH2 0x1DC JUMPI PUSH1 0x20 SWAP1 MLOAD PUSH14 0x2D9856FC421A9FD095F8B44C49DB DUP2 MSTORE RETURN JUMPDEST CALLVALUE PUSH2 0x1DC JUMPI PUSH1 0xA0 PUSH32 0xFFFFFFFFFFFFFFFFFFFFFFFFFFFFFFFFFFFFFFFFFFFFFFFFFFFFFFFFFFFFFFFC CALLDATASIZE ADD SLT PUSH2 0x1DC JUMPI PUSH8 0xFFFFFFFFFFFFFFFF SWAP1 DUP1 CALLDATALOAD DUP3 DUP2 GT PUSH2 0x1DC JUMPI PUSH2 0x5D6 SWAP1 CALLDATASIZE SWAP1 DUP4 ADD PUSH2 0xB52 JUMP JUMPDEST POP POP PUSH1 0x24 CALLDATALOAD SWAP2 DUP3 GT PUSH2 0x1DC JUMPI PUSH2 0x5EE SWAP2 CALLDATASIZE SWAP2 ADD PUSH2 0xB52 JUMP JUMPDEST POP POP PUSH1 0x44 CALLDATALOAD PUSH20 0xFFFFFFFFFFFFFFFFFFFFFFFFFFFFFFFFFFFFFFFF SWAP1 DUP2 DUP2 AND SUB PUSH2 0x1DC JUMPI PUSH1 0x64 CALLDATALOAD SWAP1 DUP2 AND SUB PUSH2 0x1DC JUMPI STOP JUMPDEST DUP3 CALLVALUE PUSH2 0x1DC JUMPI PUSH1 0x60 PUSH32 0xFFFFFFFFFFFFFFFFFFFFFFFFFFFFFFFFFFFFFFFFFFFFFFFFFFFFFFFFFFFFFFFC CALLDATASIZE ADD SLT PUSH2 0x1DC JUMPI PUSH2 0x656 PUSH2 0xB83 JUMP JUMPDEST SWAP1 PUSH2 0x65F PUSH2 0xBA6 JUMP JUMPDEST PUSH1 0x44 CALLDATALOAD DUP1 ISZERO ISZERO SUB PUSH2 0x1DC JUMPI PUSH1 0x20 SWAP3 PUSH20 0xFFFFFFFFFFFFFFFFFFFFFFFFFFFFFFFFFFFFFFFF DUP1 SWAP2 AND PUSH0 MSTORE PUSH0 DUP5 MSTORE DUP3 PUSH0 KECCAK256 SWAP2 AND PUSH0 MSTORE DUP3 MSTORE DUP1 PUSH0 KECCAK256 SLOAD SWAP1 MLOAD SWAP1 DUP2 MSTORE RETURN JUMPDEST DUP3 CALLVALUE PUSH2 0x1DC JUMPI DUP1 PUSH32 0xFFFFFFFFFFFFFFFFFFFFFFFFFFFFFFFFFFFFFFFFFFFFFFFFFFFFFFFFFFFFFFFC CALLDATASIZE ADD SLT PUSH2 0x1DC JUMPI PUSH2 0x6D5 PUSH2 0xB83 JUMP JUMPDEST SWAP1 PUSH1 0x24 CALLDATALOAD DUP1 ISZERO ISZERO SUB PUSH2 0x1DC JUMPI PUSH1 0x20 SWAP2 PUSH20 0xFFFFFFFFFFFFFFFFFFFFFFFFFFFFFFFFFFFFFFFF DUP1 SWAP2 AND PUSH0 MSTORE PUSH0 DUP4 MSTORE DUP2 PUSH0 KECCAK256 SWAP1 PUSH1 0x1 SLOAD AND PUSH0 MSTORE DUP3 MSTORE DUP1 PUSH0 KECCAK256 SLOAD SWAP1 MLOAD SWAP1 DUP2 MSTORE RETURN JUMPDEST DUP3 CALLVALUE PUSH2 0x1DC JUMPI DUP1 PUSH32 0xFFFFFFFFFFFFFFFFFFFFFFFFFFFFFFFFFFFFFFFFFFFFFFFFFFFFFFFFFFFFFFFC CALLDATASIZE ADD SLT PUSH2 0x1DC JUMPI PUSH1 0x20 SWAP1 PUSH2 0x752 PUSH2 0xB83 JUMP JUMPDEST PUSH2 0x75A PUSH2 0xBA6 JUMP JUMPDEST SWAP1 PUSH20 0xFFFFFFFFFFFFFFFFFFFFFFFFFFFFFFFFFFFFFFFF DUP1 SWAP2 AND PUSH0 MSTORE PUSH0 DUP5 MSTORE DUP3 PUSH0 KECCAK256 SWAP2 AND PUSH0 MSTORE DUP3 MSTORE DUP1 PUSH0 KECCAK256 SLOAD SWAP1 MLOAD SWAP1 DUP2 MSTORE RETURN JUMPDEST DUP3 CALLVALUE PUSH2 0x1DC JUMPI PUSH0 PUSH32 0xFFFFFFFFFFFFFFFFFFFFFFFFFFFFFFFFFFFFFFFFFFFFFFFFFFFFFFFFFFFFFFFC CALLDATASIZE ADD SLT PUSH2 0x1DC JUMPI PUSH1 0x20 SWAP1 PUSH20 0xFFFFFFFFFFFFFFFFFFFFFFFFFFFFFFFFFFFFFFFF PUSH1 0x3 SLOAD AND SWAP1 MLOAD SWAP1 DUP2 MSTORE RETURN JUMPDEST DUP3 CALLVALUE PUSH2 0x1DC JUMPI PUSH2 0x7ED CALLDATASIZE PUSH2 0xBC9 JUMP JUMPDEST SWAP3 SWAP2 PUSH20 0xFFFFFFFFFFFFFFFFFFFFFFFFFFFFFFFFFFFFFFFF DUP1 SWAP2 AND PUSH0 MSTORE PUSH0 PUSH1 0x20 MSTORE DUP3 PUSH0 KECCAK256 SWAP2 AND PUSH0 MSTORE PUSH1 0x20 MSTORE PUSH0 KECCAK256 SSTORE PUSH0 DUP1 RETURN JUMPDEST DUP3 CALLVALUE PUSH2 0x1DC JUMPI PUSH0 PUSH32 0xFFFFFFFFFFFFFFFFFFFFFFFFFFFFFFFFFFFFFFFFFFFFFFFFFFFFFFFFFFFFFFFC CALLDATASIZE ADD SLT PUSH2 0x1DC JUMPI PUSH1 0x20 SWAP1 MLOAD PUSH9 0x2506936E734AC2F926 DUP2 MSTORE RETURN JUMPDEST DUP3 CALLVALUE PUSH2 0x1DC JUMPI PUSH0 PUSH32 0xFFFFFFFFFFFFFFFFFFFFFFFFFFFFFFFFFFFFFFFFFFFFFFFFFFFFFFFFFFFFFFFC CALLDATASIZE ADD SLT PUSH2 0x1DC JUMPI PUSH1 0x20 SWAP1 MLOAD PUSH13 0x110DCBA2E6F97B2A41A7EBA1B8 DUP2 MSTORE RETURN JUMPDEST DUP3 CALLVALUE PUSH2 0x1DC JUMPI PUSH0 PUSH32 0xFFFFFFFFFFFFFFFFFFFFFFFFFFFFFFFFFFFFFFFFFFFFFFFFFFFFFFFFFFFFFFFC CALLDATASIZE ADD SLT PUSH2 0x1DC JUMPI PUSH1 0x20 SWAP1 MLOAD PUSH11 0xD47D67CCE9223FAD7DE347 DUP2 MSTORE RETURN JUMPDEST DUP3 CALLVALUE PUSH2 0x1DC JUMPI PUSH0 PUSH32 0xFFFFFFFFFFFFFFFFFFFFFFFFFFFFFFFFFFFFFFFFFFFFFFFFFFFFFFFFFFFFFFFC CALLDATASIZE ADD SLT PUSH2 0x1DC JUMPI PUSH1 0x20 SWAP1 MLOAD PUSH4 0xE4AC0516 DUP2 MSTORE RETURN JUMPDEST DUP3 CALLVALUE PUSH2 0x1DC JUMPI PUSH0 PUSH32 0xFFFFFFFFFFFFFFFFFFFFFFFFFFFFFFFFFFFFFFFFFFFFFFFFFFFFFFFFFFFFFFFC CALLDATASIZE ADD SLT PUSH2 0x1DC JUMPI PUSH1 0x20 SWAP1 PUSH20 0xFFFFFFFFFFFFFFFFFFFFFFFFFFFFFFFFFFFFFFFF PUSH1 0x2 SLOAD AND SWAP1 MLOAD SWAP1 DUP2 MSTORE RETURN JUMPDEST DUP3 CALLVALUE PUSH2 0x1DC JUMPI PUSH1 0x20 SWAP1 PUSH2 0x990 PUSH2 0x98A CALLDATASIZE PUSH2 0xBC9 JUMP JUMPDEST SWAP2 PUSH2 0xD4C JUMP JUMPDEST SWAP1 MLOAD SWAP1 DUP2 MSTORE RETURN JUMPDEST DUP3 CALLVALUE PUSH2 0x1DC JUMPI PUSH0 PUSH32 0xFFFFFFFFFFFFFFFFFFFFFFFFFFFFFFFFFFFFFFFFFFFFFFFFFFFFFFFFFFFFFFFC CALLDATASIZE ADD SLT PUSH2 0x1DC JUMPI PUSH1 0x20 SWAP1 MLOAD PUSH13 0x110F11BC46BC3EFCC5B8FF1223 DUP2 MSTORE RETURN JUMPDEST DUP3 CALLVALUE PUSH2 0x1DC JUMPI PUSH1 0x60 PUSH32 0xFFFFFFFFFFFFFFFFFFFFFFFFFFFFFFFFFFFFFFFFFFFFFFFFFFFFFFFFFFFFFFFC CALLDATASIZE ADD SLT PUSH2 0x1DC JUMPI PUSH8 0xFFFFFFFFFFFFFFFF DUP3 CALLDATALOAD DUP2 DUP2 GT PUSH2 0x1DC JUMPI PUSH2 0xA2B SWAP1 CALLDATASIZE SWAP1 DUP6 ADD PUSH2 0xB52 JUMP JUMPDEST POP POP PUSH1 0x24 CALLDATALOAD DUP2 DUP2 GT PUSH2 0x1DC JUMPI PUSH2 0xA44 SWAP1 CALLDATASIZE SWAP1 DUP6 ADD PUSH2 0xB52 JUMP JUMPDEST POP POP PUSH1 0x44 CALLDATALOAD SWAP1 DUP2 GT PUSH2 0x1DC JUMPI PUSH1 0x20 SWAP3 PUSH2 0xA5F SWAP2 CALLDATASIZE SWAP2 ADD PUSH2 0xB52 JUMP JUMPDEST POP POP MLOAD PUSH1 0x1 DUP2 MSTORE RETURN JUMPDEST DUP3 CALLVALUE PUSH2 0x1DC JUMPI PUSH0 PUSH32 0xFFFFFFFFFFFFFFFFFFFFFFFFFFFFFFFFFFFFFFFFFFFFFFFFFFFFFFFFFFFFFFFC CALLDATASIZE ADD SLT PUSH2 0x1DC JUMPI PUSH1 0x20 SWAP1 MLOAD PUSH2 0x438 DUP2 MSTORE RETURN JUMPDEST DUP3 CALLVALUE PUSH2 0x1DC JUMPI PUSH0 PUSH32 0xFFFFFFFFFFFFFFFFFFFFFFFFFFFFFFFFFFFFFFFFFFFFFFFFFFFFFFFFFFFFFFFC CALLDATASIZE ADD SLT PUSH2 0x1DC JUMPI PUSH1 0x20 SWAP1 MLOAD PUSH3 0xB68F7 DUP2 MSTORE RETURN JUMPDEST DUP3 CALLVALUE PUSH2 0x1DC JUMPI PUSH0 PUSH32 0xFFFFFFFFFFFFFFFFFFFFFFFFFFFFFFFFFFFFFFFFFFFFFFFFFFFFFFFFFFFFFFFC CALLDATASIZE ADD SLT PUSH2 0x1DC JUMPI PUSH1 0x20 SWAP1 MLOAD PUSH0 DUP2 MSTORE RETURN JUMPDEST CALLVALUE PUSH2 0x1DC JUMPI PUSH0 PUSH32 0xFFFFFFFFFFFFFFFFFFFFFFFFFFFFFFFFFFFFFFFFFFFFFFFFFFFFFFFFFFFFFFFC CALLDATASIZE ADD SLT PUSH2 0x1DC JUMPI DUP1 PUSH7 0x533304F826D31 PUSH1 0x20 SWAP3 MSTORE RETURN JUMPDEST SWAP2 DUP2 PUSH1 0x1F DUP5 ADD SLT ISZERO PUSH2 0x1DC JUMPI DUP3 CALLDATALOAD SWAP2 PUSH8 0xFFFFFFFFFFFFFFFF DUP4 GT PUSH2 0x1DC JUMPI PUSH1 0x20 DUP1 DUP6 ADD SWAP5 DUP5 PUSH1 0x5 SHL ADD ADD GT PUSH2 0x1DC JUMPI JUMP JUMPDEST PUSH1 0x4 CALLDATALOAD SWAP1 PUSH20 0xFFFFFFFFFFFFFFFFFFFFFFFFFFFFFFFFFFFFFFFF DUP3 AND DUP3 SUB PUSH2 0x1DC JUMPI JUMP JUMPDEST PUSH1 0x24 CALLDATALOAD SWAP1 PUSH20 0xFFFFFFFFFFFFFFFFFFFFFFFFFFFFFFFFFFFFFFFF DUP3 AND DUP3 SUB PUSH2 0x1DC JUMPI JUMP JUMPDEST PUSH32 0xFFFFFFFFFFFFFFFFFFFFFFFFFFFFFFFFFFFFFFFFFFFFFFFFFFFFFFFFFFFFFFFC PUSH1 0x60 SWAP2 ADD SLT PUSH2 0x1DC JUMPI PUSH20 0xFFFFFFFFFFFFFFFFFFFFFFFFFFFFFFFFFFFFFFFF SWAP1 PUSH1 0x4 CALLDATALOAD DUP3 DUP2 AND DUP2 SUB PUSH2 0x1DC JUMPI SWAP2 PUSH1 0x24 CALLDATALOAD SWAP1 DUP2 AND DUP2 SUB PUSH2 0x1DC JUMPI SWAP1 PUSH1 0x44 CALLDATALOAD SWAP1 JUMP JUMPDEST SWAP1 PUSH1 0x1F PUSH32 0xFFFFFFFFFFFFFFFFFFFFFFFFFFFFFFFFFFFFFFFFFFFFFFFFFFFFFFFFFFFFFFE0 SWAP2 ADD AND DUP2 ADD SWAP1 DUP2 LT PUSH8 0xFFFFFFFFFFFFFFFF DUP3 GT OR PUSH2 0xC6A JUMPI PUSH1 0x40 MSTORE JUMP JUMPDEST PUSH32 0x4E487B7100000000000000000000000000000000000000000000000000000000 PUSH0 MSTORE PUSH1 0x41 PUSH1 0x4 MSTORE PUSH1 0x24 PUSH0 REVERT JUMPDEST SWAP1 DUP2 PUSH1 0x20 SWAP2 SUB SLT PUSH2 0x1DC JUMPI MLOAD PUSH1 0xFF DUP2 AND DUP2 SUB PUSH2 0x1DC JUMPI SWAP1 JUMP JUMPDEST PUSH1 0xFF AND PUSH1 0x4D DUP2 GT PUSH2 0xCC1 JUMPI PUSH1 0xA EXP SWAP1 JUMP JUMPDEST PUSH32 0x4E487B7100000000000000000000000000000000000000000000000000000000 PUSH0 MSTORE PUSH1 0x11 PUSH1 0x4 MSTORE PUSH1 0x24 PUSH0 REVERT JUMPDEST DUP2 DUP2 MUL SWAP3 SWAP2 DUP2 ISZERO SWAP2 DUP5 DIV EQ OR ISZERO PUSH2 0xCC1 JUMPI JUMP JUMPDEST DUP2 ISZERO PUSH2 0xD0B JUMPI DIV SWAP1 JUMP JUMPDEST PUSH32 0x4E487B7100000000000000000000000000000000000000000000000000000000 PUSH0 MSTORE PUSH1 0x12 PUSH1 0x4 MSTORE PUSH1 0x24 PUSH0 REVERT JUMPDEST SWAP1 PUSH1 0xFF DUP1 SWAP2 AND SWAP2 AND SUB SWAP1 PUSH1 0xFF DUP3 GT PUSH2 0xCC1 JUMPI JUMP JUMPDEST SWAP2 PUSH20 0xFFFFFFFFFFFFFFFFFFFFFFFFFFFFFFFFFFFFFFFF DUP1 SWAP4 AND PUSH1 0x40 SWAP3 DUP4 MLOAD SWAP4 PUSH32 0x313CE56700000000000000000000000000000000000000000000000000000000 SWAP6 DUP7 DUP7 MSTORE PUSH1 0x20 SWAP3 DUP4 DUP8 PUSH1 0x4 DUP2 DUP9 GAS STATICCALL SWAP7 DUP8 ISZERO PUSH2 0xEE1 JUMPI PUSH0 SWAP8 PUSH2 0xEC2 JUMPI JUMPDEST POP AND DUP2 MLOAD SWAP7 DUP8 MSTORE DUP3 DUP8 PUSH1 0x4 DUP2 DUP5 GAS STATICCALL SWAP7 DUP8 ISZERO PUSH2 0xEB8 JUMPI PUSH0 SWAP8 PUSH2 0xE6B JUMPI JUMPDEST POP SWAP3 PUSH2 0xE06 PUSH8 0xDE0B6B3A7640000 SWAP6 SWAP4 PUSH2 0xE0B SWAP4 PUSH2 0xE11 SWAP7 PUSH2 0xDE7 DUP11 PUSH2 0xCB0 JUMP JUMPDEST SWAP3 PUSH2 0xDF1 DUP13 PUSH2 0xCB0 JUMP JUMPDEST SWAP6 PUSH0 MSTORE PUSH0 DUP2 MSTORE DUP3 PUSH0 KECCAK256 SWAP2 PUSH0 MSTORE MSTORE PUSH0 KECCAK256 SLOAD PUSH2 0xCEE JUMP JUMPDEST PUSH2 0xD01 JUMP JUMPDEST SWAP1 PUSH2 0xCEE JUMP JUMPDEST DIV SWAP2 PUSH1 0xFF DUP2 AND SWAP1 PUSH1 0xFF DUP4 AND SWAP2 DUP1 DUP4 EQ PUSH2 0xE64 JUMPI PUSH2 0xE40 SWAP3 GT SWAP3 DUP4 PUSH0 EQ PUSH2 0xE5B JUMPI SWAP1 PUSH2 0xE3B SWAP2 PUSH2 0xD38 JUMP JUMPDEST PUSH2 0xCB0 JUMP JUMPDEST SWAP1 ISZERO PUSH2 0xE52 JUMPI PUSH2 0xE4F SWAP2 PUSH2 0xD01 JUMP JUMPDEST SWAP1 JUMP JUMPDEST PUSH2 0xE4F SWAP2 PUSH2 0xCEE JUMP JUMPDEST PUSH2 0xE3B SWAP2 PUSH2 0xD38 JUMP JUMPDEST POP POP POP POP SWAP1 JUMP JUMPDEST PUSH2 0xE11 SWAP5 SWAP2 SWAP8 POP DUP4 PUSH2 0xE0B SWAP4 PUSH2 0xEA3 PUSH2 0xE06 SWAP4 PUSH8 0xDE0B6B3A7640000 SWAP10 SWAP8 RETURNDATASIZE DUP6 GT PUSH2 0xEB1 JUMPI JUMPDEST PUSH2 0xE9B DUP2 DUP4 PUSH2 0xC29 JUMP JUMPDEST DUP2 ADD SWAP1 PUSH2 0xC97 JUMP JUMPDEST SWAP10 SWAP4 SWAP7 POP SWAP4 POP SWAP4 SWAP6 POP PUSH2 0xDC6 JUMP JUMPDEST POP RETURNDATASIZE PUSH2 0xE91 JUMP JUMPDEST DUP3 MLOAD RETURNDATASIZE PUSH0 DUP3 RETURNDATACOPY RETURNDATASIZE SWAP1 REVERT JUMPDEST PUSH2 0xEDA SWAP2 SWAP8 POP DUP5 RETURNDATASIZE DUP7 GT PUSH2 0xEB1 JUMPI PUSH2 0xE9B DUP2 DUP4 PUSH2 0xC29 JUMP JUMPDEST SWAP6 PUSH0 PUSH2 0xDA9 JUMP JUMPDEST DUP4 MLOAD RETURNDATASIZE PUSH0 DUP3 RETURNDATACOPY RETURNDATASIZE SWAP1 REVERT INVALID LOG2 PUSH5 0x6970667358 0x22 SLT KECCAK256 0xAD SHL PUSH28 0x56147BADA4B0C17000D38C769C1D25FAA2EC3F20154AD3945722CE6B 0x25 PUSH5 0x736F6C6343 STOP ADDMOD NOT STOP CALLER "},"gasEstimates":{"creation":{"codeDepositCost":"774600","executionCost":"infinite","totalCost":"infinite"},"external":{"USDC_TO_USDT_RATE()":"691","USDC_TO_WBTC_RATE()":"154","USDC_TO_WETH_RATE()":"801","USDC_TO_WMATIC_RATE()":"404","USDT_TO_USDC_RATE()":"647","USDT_TO_WBTC_RATE()":"625","USDT_TO_WETH_RATE()":"382","USDT_TO_WMATIC_RATE()":"272","WBTC_TO_USDC_RATE()":"426","WBTC_TO_USDT_RATE()":"779","WBTC_TO_WETH_RATE()":"713","WBTC_TO_WMATIC_RATE()":"581","WETH_TO_USDC_RATE()":"360","WETH_TO_WMATIC_RATE()":"823","WMATIC_TO_USDC_RATE()":"757","WMATIC_TO_USDT_RATE()":"206","WMATIC_TO_WBTC_RATE()":"228","WMATIC_TO_WETH_RATE()":"669","checkRebalance(address[],uint256[],uint256[])":"infinite","convert(address,address,uint256)":"infinite","getBaluniRouter()":"183","getRate(address,address,bool)":"2932","getRateToEth(address,bool)":"4952","getTreasury()":"2428","getUSDCAddress()":"2847","getWNATIVEAddress()":"2715","rates(address,address)":"2857","rebalance(address[],uint256[],address,address,uint256)":"infinite","setRate(address,address,uint256)":"22785","setTreasury(address)":"25107","treasury()":"2582","usdc()":"2450","wmatic()":"2974"}},"methodIdentifiers":{"USDC_TO_USDT_RATE()":"b537d24b","USDC_TO_WBTC_RATE()":"02098719","USDC_TO_WETH_RATE()":"e2338e72","USDC_TO_WMATIC_RATE()":"5107e94e","USDT_TO_USDC_RATE()":"a58a7f8a","USDT_TO_WBTC_RATE()":"97db8e02","USDT_TO_WETH_RATE()":"443dc789","USDT_TO_WMATIC_RATE()":"1a1e4a1f","WBTC_TO_USDC_RATE()":"53ff493e","WBTC_TO_USDT_RATE()":"d135e3be","WBTC_TO_WETH_RATE()":"b9e93810","WBTC_TO_WMATIC_RATE()":"8e5139ed","WETH_TO_USDC_RATE()":"4039e687","WETH_TO_WMATIC_RATE()":"e30f6892","WMATIC_TO_USDC_RATE()":"c0184983","WMATIC_TO_USDT_RATE()":"0e091762","WMATIC_TO_WBTC_RATE()":"187029b8","WMATIC_TO_WETH_RATE()":"ae3bcc96","checkRebalance(address[],uint256[],uint256[])":"18cdc49a","convert(address,address,uint256)":"248391ff","getBaluniRouter()":"04cc7325","getRate(address,address,bool)":"802431fb","getRateToEth(address,bool)":"7de4fd10","getTreasury()":"3b19e84a","getUSDCAddress()":"bc06e81d","getWNATIVEAddress()":"956fb510","rates(address,address)":"7b0cf44d","rebalance(address[],uint256[],address,address,uint256)":"84db1dfb","setRate(address,address,uint256)":"5911fb9a","setTreasury(address)":"f0f44260","treasury()":"61d027b3","usdc()":"3e413bee","wmatic()":"fb41be16"}},"storageLayout":{"storage":[{"astId":240,"contract":"contracts/mock/MockRebalancer.sol:MockRebalancer","label":"rates","offset":0,"slot":"0","type":"t_mapping(t_address,t_mapping(t_address,t_uint256))"},{"astId":296,"contract":"contracts/mock/MockRebalancer.sol:MockRebalancer","label":"wmatic","offset":0,"slot":"1","type":"t_address"},{"astId":298,"contract":"contracts/mock/MockRebalancer.sol:MockRebalancer","label":"usdc","offset":0,"slot":"2","type":"t_address"},{"astId":300,"contract":"contracts/mock/MockRebalancer.sol:MockRebalancer","label":"treasury","offset":0,"slot":"3","type":"t_address"}],"types":{"t_address":{"encoding":"inplace","label":"address","numberOfBytes":"20"},"t_mapping(t_address,t_mapping(t_address,t_uint256))":{"encoding":"mapping","key":"t_address","label":"mapping(address => mapping(address => uint256))","numberOfBytes":"32","value":"t_mapping(t_address,t_uint256)"},"t_mapping(t_address,t_uint256)":{"encoding":"mapping","key":"t_address","label":"mapping(address => uint256)","numberOfBytes":"32","value":"t_uint256"},"t_uint256":{"encoding":"inplace","label":"uint256","numberOfBytes":"32"}}},"userdoc":{"kind":"user","methods":{},"version":1}}}}