{"contracts/BaluniV1Registry.sol":{"BaluniV1Registry":{"abi":[{"inputs":[{"internalType":"address","name":"target","type":"address"}],"name":"AddressEmptyCode","type":"error"},{"inputs":[{"internalType":"address","name":"implementation","type":"address"}],"name":"ERC1967InvalidImplementation","type":"error"},{"inputs":[],"name":"ERC1967NonPayable","type":"error"},{"inputs":[],"name":"FailedInnerCall","type":"error"},{"inputs":[],"name":"InvalidInitialization","type":"error"},{"inputs":[],"name":"NotInitializing","type":"error"},{"inputs":[{"internalType":"address","name":"owner","type":"address"}],"name":"OwnableInvalidOwner","type":"error"},{"inputs":[{"internalType":"address","name":"account","type":"address"}],"name":"OwnableUnauthorizedAccount","type":"error"},{"inputs":[],"name":"UUPSUnauthorizedCallContext","type":"error"},{"inputs":[{"internalType":"bytes32","name":"slot","type":"bytes32"}],"name":"UUPSUnsupportedProxiableUUID","type":"error"},{"anonymous":false,"inputs":[{"indexed":false,"internalType":"uint64","name":"version","type":"uint64"}],"name":"Initialized","type":"event"},{"anonymous":false,"inputs":[{"indexed":true,"internalType":"address","name":"previousOwner","type":"address"},{"indexed":true,"internalType":"address","name":"newOwner","type":"address"}],"name":"OwnershipTransferred","type":"event"},{"anonymous":false,"inputs":[{"indexed":true,"internalType":"address","name":"implementation","type":"address"}],"name":"Upgraded","type":"event"},{"inputs":[],"name":"UPGRADE_INTERFACE_VERSION","outputs":[{"internalType":"string","name":"","type":"string"}],"stateMutability":"view","type":"function"},{"inputs":[],"name":"USDC","outputs":[{"internalType":"address","name":"","type":"address"}],"stateMutability":"view","type":"function"},{"inputs":[],"name":"WNATIVE","outputs":[{"internalType":"address","name":"","type":"address"}],"stateMutability":"view","type":"function"},{"inputs":[],"name":"_1inchSpotAgg","outputs":[{"internalType":"address","name":"","type":"address"}],"stateMutability":"view","type":"function"},{"inputs":[],"name":"_BPS_BASE","outputs":[{"internalType":"uint256","name":"","type":"uint256"}],"stateMutability":"view","type":"function"},{"inputs":[],"name":"_BPS_FEE","outputs":[{"internalType":"uint256","name":"","type":"uint256"}],"stateMutability":"view","type":"function"},{"inputs":[],"name":"_MAX_BPS_FEE","outputs":[{"internalType":"uint256","name":"","type":"uint256"}],"stateMutability":"view","type":"function"},{"inputs":[],"name":"baluniAgentFactory","outputs":[{"internalType":"address","name":"","type":"address"}],"stateMutability":"view","type":"function"},{"inputs":[],"name":"baluniOracle","outputs":[{"internalType":"address","name":"","type":"address"}],"stateMutability":"view","type":"function"},{"inputs":[],"name":"baluniPoolFactory","outputs":[{"internalType":"address","name":"","type":"address"}],"stateMutability":"view","type":"function"},{"inputs":[],"name":"baluniPoolPeriphery","outputs":[{"internalType":"address","name":"","type":"address"}],"stateMutability":"view","type":"function"},{"inputs":[],"name":"baluniRebalancer","outputs":[{"internalType":"address","name":"","type":"address"}],"stateMutability":"view","type":"function"},{"inputs":[],"name":"baluniRegistry","outputs":[{"internalType":"address","name":"","type":"address"}],"stateMutability":"view","type":"function"},{"inputs":[],"name":"baluniRouter","outputs":[{"internalType":"address","name":"","type":"address"}],"stateMutability":"view","type":"function"},{"inputs":[],"name":"baluniSwapper","outputs":[{"internalType":"address","name":"","type":"address"}],"stateMutability":"view","type":"function"},{"inputs":[],"name":"get1inchSpotAgg","outputs":[{"internalType":"address","name":"","type":"address"}],"stateMutability":"view","type":"function"},{"inputs":[],"name":"getBPS_BASE","outputs":[{"internalType":"uint256","name":"","type":"uint256"}],"stateMutability":"view","type":"function"},{"inputs":[],"name":"getBPS_FEE","outputs":[{"internalType":"uint256","name":"","type":"uint256"}],"stateMutability":"view","type":"function"},{"inputs":[],"name":"getBaluniAgentFactory","outputs":[{"internalType":"address","name":"","type":"address"}],"stateMutability":"view","type":"function"},{"inputs":[],"name":"getBaluniOracle","outputs":[{"internalType":"address","name":"","type":"address"}],"stateMutability":"view","type":"function"},{"inputs":[],"name":"getBaluniPoolFactory","outputs":[{"internalType":"address","name":"","type":"address"}],"stateMutability":"view","type":"function"},{"inputs":[],"name":"getBaluniPoolPeriphery","outputs":[{"internalType":"address","name":"","type":"address"}],"stateMutability":"view","type":"function"},{"inputs":[],"name":"getBaluniRebalancer","outputs":[{"internalType":"address","name":"","type":"address"}],"stateMutability":"view","type":"function"},{"inputs":[],"name":"getBaluniRegistry","outputs":[{"internalType":"address","name":"","type":"address"}],"stateMutability":"view","type":"function"},{"inputs":[],"name":"getBaluniRouter","outputs":[{"internalType":"address","name":"","type":"address"}],"stateMutability":"view","type":"function"},{"inputs":[],"name":"getBaluniSwapper","outputs":[{"internalType":"address","name":"","type":"address"}],"stateMutability":"view","type":"function"},{"inputs":[],"name":"getMAX_BPS_FEE","outputs":[{"internalType":"uint256","name":"","type":"uint256"}],"stateMutability":"view","type":"function"},{"inputs":[],"name":"getStaticOracle","outputs":[{"internalType":"address","name":"","type":"address"}],"stateMutability":"view","type":"function"},{"inputs":[],"name":"getTreasury","outputs":[{"internalType":"address","name":"","type":"address"}],"stateMutability":"view","type":"function"},{"inputs":[],"name":"getUSDC","outputs":[{"internalType":"address","name":"","type":"address"}],"stateMutability":"view","type":"function"},{"inputs":[],"name":"getUniswapFactory","outputs":[{"internalType":"address","name":"","type":"address"}],"stateMutability":"view","type":"function"},{"inputs":[],"name":"getUniswapRouter","outputs":[{"internalType":"address","name":"","type":"address"}],"stateMutability":"view","type":"function"},{"inputs":[],"name":"getWNATIVE","outputs":[{"internalType":"address","name":"","type":"address"}],"stateMutability":"view","type":"function"},{"inputs":[],"name":"initialize","outputs":[],"stateMutability":"nonpayable","type":"function"},{"inputs":[],"name":"owner","outputs":[{"internalType":"address","name":"","type":"address"}],"stateMutability":"view","type":"function"},{"inputs":[],"name":"proxiableUUID","outputs":[{"internalType":"bytes32","name":"","type":"bytes32"}],"stateMutability":"view","type":"function"},{"inputs":[],"name":"renounceOwnership","outputs":[],"stateMutability":"nonpayable","type":"function"},{"inputs":[{"internalType":"address","name":"__1inchSpotAgg","type":"address"}],"name":"set1inchSpotAgg","outputs":[],"stateMutability":"nonpayable","type":"function"},{"inputs":[{"internalType":"uint256","name":"__BPS_FEE","type":"uint256"}],"name":"setBPS_FEE","outputs":[],"stateMutability":"nonpayable","type":"function"},{"inputs":[{"internalType":"address","name":"_baluniAgentFactory","type":"address"}],"name":"setBaluniAgentFactory","outputs":[],"stateMutability":"nonpayable","type":"function"},{"inputs":[{"internalType":"address","name":"_baluniOracle","type":"address"}],"name":"setBaluniOracle","outputs":[],"stateMutability":"nonpayable","type":"function"},{"inputs":[{"internalType":"address","name":"_baluniPoolFactory","type":"address"}],"name":"setBaluniPoolFactory","outputs":[],"stateMutability":"nonpayable","type":"function"},{"inputs":[{"internalType":"address","name":"_baluniPoolPeriphery","type":"address"}],"name":"setBaluniPoolPeriphery","outputs":[],"stateMutability":"nonpayable","type":"function"},{"inputs":[{"internalType":"address","name":"_baluniRebalancer","type":"address"}],"name":"setBaluniRebalancer","outputs":[],"stateMutability":"nonpayable","type":"function"},{"inputs":[{"internalType":"address","name":"_baluniRegistry","type":"address"}],"name":"setBaluniRegistry","outputs":[],"stateMutability":"nonpayable","type":"function"},{"inputs":[{"internalType":"address","name":"_baluniRouter","type":"address"}],"name":"setBaluniRouter","outputs":[],"stateMutability":"nonpayable","type":"function"},{"inputs":[{"internalType":"address","name":"_baluniSwapper","type":"address"}],"name":"setBaluniSwapper","outputs":[],"stateMutability":"nonpayable","type":"function"},{"inputs":[{"internalType":"address","name":"_staticOracle","type":"address"}],"name":"setStaticOracle","outputs":[],"stateMutability":"nonpayable","type":"function"},{"inputs":[{"internalType":"address","name":"_treasury","type":"address"}],"name":"setTreasury","outputs":[],"stateMutability":"nonpayable","type":"function"},{"inputs":[{"internalType":"address","name":"_USDC","type":"address"}],"name":"setUSDC","outputs":[],"stateMutability":"nonpayable","type":"function"},{"inputs":[{"internalType":"address","name":"_uniswapFactory","type":"address"}],"name":"setUniswapFactory","outputs":[],"stateMutability":"nonpayable","type":"function"},{"inputs":[{"internalType":"address","name":"_uniswapRouter","type":"address"}],"name":"setUniswapRouter","outputs":[],"stateMutability":"nonpayable","type":"function"},{"inputs":[{"internalType":"address","name":"_WNATIVE","type":"address"}],"name":"setWNATIVE","outputs":[],"stateMutability":"nonpayable","type":"function"},{"inputs":[],"name":"staticOracle","outputs":[{"internalType":"address","name":"","type":"address"}],"stateMutability":"view","type":"function"},{"inputs":[{"internalType":"address","name":"newOwner","type":"address"}],"name":"transferOwnership","outputs":[],"stateMutability":"nonpayable","type":"function"},{"inputs":[],"name":"treasury","outputs":[{"internalType":"address","name":"","type":"address"}],"stateMutability":"view","type":"function"},{"inputs":[],"name":"uniswapFactory","outputs":[{"internalType":"address","name":"","type":"address"}],"stateMutability":"view","type":"function"},{"inputs":[],"name":"uniswapRouter","outputs":[{"internalType":"address","name":"","type":"address"}],"stateMutability":"view","type":"function"},{"inputs":[{"internalType":"address","name":"newImplementation","type":"address"},{"internalType":"bytes","name":"data","type":"bytes"}],"name":"upgradeToAndCall","outputs":[],"stateMutability":"payable","type":"function"}],"devdoc":{"errors":{"AddressEmptyCode(address)":[{"details":"There's no code at `target` (it is not a contract)."}],"ERC1967InvalidImplementation(address)":[{"details":"The `implementation` of the proxy is invalid."}],"ERC1967NonPayable()":[{"details":"An upgrade function sees `msg.value > 0` that may be lost."}],"FailedInnerCall()":[{"details":"A call to an address target failed. The target may have reverted."}],"InvalidInitialization()":[{"details":"The contract is already initialized."}],"NotInitializing()":[{"details":"The contract is not initializing."}],"OwnableInvalidOwner(address)":[{"details":"The owner is not a valid owner account. (eg. `address(0)`)"}],"OwnableUnauthorizedAccount(address)":[{"details":"The caller account is not authorized to perform an operation."}],"UUPSUnauthorizedCallContext()":[{"details":"The call is from an unauthorized context."}],"UUPSUnsupportedProxiableUUID(bytes32)":[{"details":"The storage `slot` is unsupported as a UUID."}]},"events":{"Initialized(uint64)":{"details":"Triggered when the contract has been initialized or reinitialized."},"Upgraded(address)":{"details":"Emitted when the implementation is upgraded."}},"kind":"dev","methods":{"owner()":{"details":"Returns the address of the current owner."},"proxiableUUID()":{"details":"Implementation of the ERC1822 {proxiableUUID} function. This returns the storage slot used by the implementation. It is used to validate the implementation's compatibility when performing an upgrade. IMPORTANT: A proxy pointing at a proxiable contract should not be considered proxiable itself, because this risks bricking a proxy that upgrades to it, by delegating to itself until out of gas. Thus it is critical that this function revert if invoked through a proxy. This is guaranteed by the `notDelegated` modifier."},"renounceOwnership()":{"details":"Leaves the contract without owner. It will not be possible to call `onlyOwner` functions. Can only be called by the current owner. NOTE: Renouncing ownership will leave the contract without an owner, thereby disabling any functionality that is only available to the owner."},"transferOwnership(address)":{"details":"Transfers ownership of the contract to a new account (`newOwner`). Can only be called by the current owner."},"upgradeToAndCall(address,bytes)":{"custom:oz-upgrades-unsafe-allow-reachable":"delegatecall","details":"Upgrade the implementation of the proxy to `newImplementation`, and subsequently execute the function call encoded in `data`. Calls {_authorizeUpgrade}. Emits an {Upgraded} event."}},"version":1},"evm":{"bytecode":{"linkReferences":{},"object":"60a0604052306080523480156012575f80fd5b5060805161185e6100395f395f81816110a9015281816110d201526112a5015261185e5ff3fe60806040526004361061037c575f3560e01c806385377188116101d3578063b9f5e617116100fd578063cff49d681161009d578063f1dccde71161006d578063f1dccde714610a1b578063f2fde38b14610a3a578063f5b84f6414610a59578063f5d2d99814610a78575f80fd5b8063cff49d68146109a1578063e04b677f146109be578063e528ca12146109dd578063f0f44260146109fc575f80fd5b8063c08f786b116100d8578063c08f786b14610927578063c3f5df5c14610946578063c9aba8ae14610965578063cc01e9a614610982575f80fd5b8063b9f5e617146108d6578063bb3ba04c146108eb578063bea9849e14610908575f80fd5b80639454705f11610173578063b381cf4011610143578063b381cf401461085a578063b3e089a214610879578063b691a41914610898578063b6fe9cc7146108b7575f80fd5b80639454705f146107aa5780639e6453f8146107c9578063a5d2236f146107e8578063ad3cb1cc14610805575f80fd5b80638bdb2afa116101ae5780638bdb2afa1461071f5780638da5cb5b1461073d5780638e1c3a8a146107795780639380fb6f14610796575f80fd5b806385377188146106d757806385462d6f146106ec57806389a3027114610700575f80fd5b8063524900b5116102b4578063715018a6116102545780637dfb7ea1116102245780637dfb7ea1146106685780638129fc1c146106875780638267c2c81461069b57806382755ebb146106ba575f80fd5b8063715018a6146105f9578063735de9f71461060d578063782dd9021461062c5780637c6fd3081461064b575f80fd5b806358a672331161028f57806358a672331461057f57806361d027b31461059e5780636c43274c146105bd5780636c9c0078146105dc575f80fd5b8063524900b51461052f57806352d1902d1461054c578063588c5b7014610560575f80fd5b806339b651401161031f578063400fb668116102fa578063400fb668146104ca578063468a7071146104e95780634f1ef286146105085780634f4608a21461051b575f80fd5b806339b65140146104725780633b19e84a146104915780633e6dfa36146104ae575f80fd5b80631acb61411161035a5780631acb6141146103f65780631bf01e9b14610413578063219ce3391461043057806334decfc91461044f575f80fd5b80630241bffa1461038057806304cc7325146103a15780631292f02e146103d7575b5f80fd5b34801561038b575f80fd5b5061039f61039a366004611671565b610a95565b005b3480156103ac575f80fd5b506006546001600160a01b03165b6040516001600160a01b0390911681526020015b60405180910390f35b3480156103e2575f80fd5b506002546103ba906001600160a01b031681565b348015610401575f80fd5b506003546001600160a01b03166103ba565b34801561041e575f80fd5b50600c546001600160a01b03166103ba565b34801561043b575f80fd5b506004546103ba906001600160a01b031681565b34801561045a575f80fd5b50610464600e5481565b6040519081526020016103ce565b34801561047d575f80fd5b506006546103ba906001600160a01b031681565b34801561049c575f80fd5b50600a546001600160a01b03166103ba565b3480156104b9575f80fd5b505f546001600160a01b03166103ba565b3480156104d5575f80fd5b5061039f6104e4366004611671565b610acc565b3480156104f4575f80fd5b506008546103ba906001600160a01b031681565b61039f6105163660046116b7565b610b03565b348015610526575f80fd5b50601054610464565b34801561053a575f80fd5b506001546001600160a01b03166103ba565b348015610557575f80fd5b50610464610b22565b34801561056b575f80fd5b5061039f61057a366004611671565b610b50565b34801561058a575f80fd5b506003546103ba906001600160a01b031681565b3480156105a9575f80fd5b50600a546103ba906001600160a01b031681565b3480156105c8575f80fd5b5061039f6105d7366004611671565b610b87565b3480156105e7575f80fd5b50600b546001600160a01b03166103ba565b348015610604575f80fd5b5061039f610bbe565b348015610618575f80fd5b506001546103ba906001600160a01b031681565b348015610637575f80fd5b50600d546103ba906001600160a01b031681565b348015610656575f80fd5b506004546001600160a01b03166103ba565b348015610673575f80fd5b506009546103ba906001600160a01b031681565b348015610692575f80fd5b5061039f610bd1565b3480156106a6575f80fd5b5061039f6106b5366004611671565b610d66565b3480156106c5575f80fd5b506009546001600160a01b03166103ba565b3480156106e2575f80fd5b5061046460105481565b3480156106f7575f80fd5b50600f54610464565b34801561070b575f80fd5b50600c546103ba906001600160a01b031681565b34801561072a575f80fd5b505f546103ba906001600160a01b031681565b348015610748575f80fd5b507f9016d09d72d40fdae2fd8ceac6b6234c7706214fd39c1cd1e609a0528c199300546001600160a01b03166103ba565b348015610784575f80fd5b50600d546001600160a01b03166103ba565b3480156107a1575f80fd5b50600e54610464565b3480156107b5575f80fd5b506011546103ba906001600160a01b031681565b3480156107d4575f80fd5b5061039f6107e3366004611791565b610d9d565b3480156107f3575f80fd5b506011546001600160a01b03166103ba565b348015610810575f80fd5b5061084d6040518060400160405280600581526020017f352e302e3000000000000000000000000000000000000000000000000000000081525081565b6040516103ce91906117a8565b348015610865575f80fd5b50600b546103ba906001600160a01b031681565b348015610884575f80fd5b5061039f610893366004611671565b610daa565b3480156108a3575f80fd5b506005546103ba906001600160a01b031681565b3480156108c2575f80fd5b5061039f6108d1366004611671565b610de1565b3480156108e1575f80fd5b50610464600f5481565b3480156108f6575f80fd5b506008546001600160a01b03166103ba565b348015610913575f80fd5b5061039f610922366004611671565b610e18565b348015610932575f80fd5b5061039f610941366004611671565b610e4f565b348015610951575f80fd5b5061039f610960366004611671565b610e86565b348015610970575f80fd5b506007546001600160a01b03166103ba565b34801561098d575f80fd5b5061039f61099c366004611671565b610ebd565b3480156109ac575f80fd5b506005546001600160a01b03166103ba565b3480156109c9575f80fd5b5061039f6109d8366004611671565b610ef4565b3480156109e8575f80fd5b506007546103ba906001600160a01b031681565b348015610a07575f80fd5b5061039f610a16366004611671565b610f2a565b348015610a26575f80fd5b5061039f610a35366004611671565b610f61565b348015610a45575f80fd5b5061039f610a54366004611671565b610f98565b348015610a64575f80fd5b5061039f610a73366004611671565b610ff3565b348015610a83575f80fd5b506002546001600160a01b03166103ba565b610a9d61102a565b6005805473ffffffffffffffffffffffffffffffffffffffff19166001600160a01b0392909216919091179055565b610ad461102a565b6006805473ffffffffffffffffffffffffffffffffffffffff19166001600160a01b0392909216919091179055565b610b0b61109e565b610b148261116e565b610b1e8282611176565b5050565b5f610b2b61129a565b507f360894a13ba1a3210667c828492db98dca3e2076cc3735a920a3ca505d382bbc90565b610b5861102a565b6003805473ffffffffffffffffffffffffffffffffffffffff19166001600160a01b0392909216919091179055565b610b8f61102a565b6007805473ffffffffffffffffffffffffffffffffffffffff19166001600160a01b0392909216919091179055565b610bc661102a565b610bcf5f6112fc565b565b7ff0c57e16840df040f15088dc2f81fe391c3923bec73e23a9662efc9c229c6a00805468010000000000000000810460ff16159067ffffffffffffffff165f81158015610c1b5750825b90505f8267ffffffffffffffff166001148015610c375750303b155b905081158015610c45575080155b15610c7c576040517ff92ee8a900000000000000000000000000000000000000000000000000000000815260040160405180910390fd5b84547fffffffffffffffffffffffffffffffffffffffffffffffff00000000000000001660011785558315610cdd5784547fffffffffffffffffffffffffffffffffffffffffffffff00ffffffffffffffff16680100000000000000001785555b610ce633611379565b610cee61138a565b6064600e55601e600f556127106010558315610d5f5784547fffffffffffffffffffffffffffffffffffffffffffffff00ffffffffffffffff168555604051600181527fc7f505b2f371ae2175ee4913f4499e1f2633a7b5936321eed1cdaeb6115181d29060200160405180910390a15b5050505050565b610d6e61102a565b6004805473ffffffffffffffffffffffffffffffffffffffff19166001600160a01b0392909216919091179055565b610da561102a565b600f55565b610db261102a565b600c805473ffffffffffffffffffffffffffffffffffffffff19166001600160a01b0392909216919091179055565b610de961102a565b600b805473ffffffffffffffffffffffffffffffffffffffff19166001600160a01b0392909216919091179055565b610e2061102a565b6001805473ffffffffffffffffffffffffffffffffffffffff19166001600160a01b0392909216919091179055565b610e5761102a565b600d805473ffffffffffffffffffffffffffffffffffffffff19166001600160a01b0392909216919091179055565b610e8e61102a565b6009805473ffffffffffffffffffffffffffffffffffffffff19166001600160a01b0392909216919091179055565b610ec561102a565b6011805473ffffffffffffffffffffffffffffffffffffffff19166001600160a01b0392909216919091179055565b610efc61102a565b5f805473ffffffffffffffffffffffffffffffffffffffff19166001600160a01b0392909216919091179055565b610f3261102a565b600a805473ffffffffffffffffffffffffffffffffffffffff19166001600160a01b0392909216919091179055565b610f6961102a565b6002805473ffffffffffffffffffffffffffffffffffffffff19166001600160a01b0392909216919091179055565b610fa061102a565b6001600160a01b038116610fe7576040517f1e4fbdf70000000000000000000000000000000000000000000000000000000081525f60048201526024015b60405180910390fd5b610ff0816112fc565b50565b610ffb61102a565b6008805473ffffffffffffffffffffffffffffffffffffffff19166001600160a01b0392909216919091179055565b3361105c7f9016d09d72d40fdae2fd8ceac6b6234c7706214fd39c1cd1e609a0528c199300546001600160a01b031690565b6001600160a01b031614610bcf576040517f118cdaa7000000000000000000000000000000000000000000000000000000008152336004820152602401610fde565b306001600160a01b037f000000000000000000000000000000000000000000000000000000000000000016148061113757507f00000000000000000000000000000000000000000000000000000000000000006001600160a01b031661112b7f360894a13ba1a3210667c828492db98dca3e2076cc3735a920a3ca505d382bbc546001600160a01b031690565b6001600160a01b031614155b15610bcf576040517fe07c8dba00000000000000000000000000000000000000000000000000000000815260040160405180910390fd5b610ff061102a565b816001600160a01b03166352d1902d6040518163ffffffff1660e01b8152600401602060405180830381865afa9250505080156111ee575060408051601f3d9081017fffffffffffffffffffffffffffffffffffffffffffffffffffffffffffffffe01682019092526111eb918101906117fb565b60015b61122f576040517f4c9c8ce30000000000000000000000000000000000000000000000000000000081526001600160a01b0383166004820152602401610fde565b7f360894a13ba1a3210667c828492db98dca3e2076cc3735a920a3ca505d382bbc811461128b576040517faa1d49a400000000000000000000000000000000000000000000000000000000815260048101829052602401610fde565b6112958383611392565b505050565b306001600160a01b037f00000000000000000000000000000000000000000000000000000000000000001614610bcf576040517fe07c8dba00000000000000000000000000000000000000000000000000000000815260040160405180910390fd5b7f9016d09d72d40fdae2fd8ceac6b6234c7706214fd39c1cd1e609a0528c199300805473ffffffffffffffffffffffffffffffffffffffff1981166001600160a01b03848116918217845560405192169182907f8be0079c531659141344cd1fd0a4f28419497f9722a3daafe3b4186f6b6457e0905f90a3505050565b6113816113e7565b610ff08161144e565b610bcf6113e7565b61139b82611456565b6040516001600160a01b038316907fbc7cd75a20ee27fd9adebab32041f755214dbc6bffa90cc0225b39da2e5c2d3b905f90a28051156113df5761129582826114f2565b610b1e611564565b7ff0c57e16840df040f15088dc2f81fe391c3923bec73e23a9662efc9c229c6a005468010000000000000000900460ff16610bcf576040517fd7e6bcf800000000000000000000000000000000000000000000000000000000815260040160405180910390fd5b610fa06113e7565b806001600160a01b03163b5f036114a4576040517f4c9c8ce30000000000000000000000000000000000000000000000000000000081526001600160a01b0382166004820152602401610fde565b7f360894a13ba1a3210667c828492db98dca3e2076cc3735a920a3ca505d382bbc805473ffffffffffffffffffffffffffffffffffffffff19166001600160a01b0392909216919091179055565b60605f80846001600160a01b03168460405161150e9190611812565b5f60405180830381855af49150503d805f8114611546576040519150601f19603f3d011682016040523d82523d5f602084013e61154b565b606091505b509150915061155b85838361159c565b95945050505050565b3415610bcf576040517fb398979f00000000000000000000000000000000000000000000000000000000815260040160405180910390fd5b6060826115b1576115ac82611614565b61160d565b81511580156115c857506001600160a01b0384163b155b1561160a576040517f9996b3150000000000000000000000000000000000000000000000000000000081526001600160a01b0385166004820152602401610fde565b50805b9392505050565b8051156116245780518082602001fd5b6040517f1425ea4200000000000000000000000000000000000000000000000000000000815260040160405180910390fd5b80356001600160a01b038116811461166c575f80fd5b919050565b5f60208284031215611681575f80fd5b61160d82611656565b7f4e487b71000000000000000000000000000000000000000000000000000000005f52604160045260245ffd5b5f80604083850312156116c8575f80fd5b6116d183611656565b9150602083013567ffffffffffffffff808211156116ed575f80fd5b818501915085601f830112611700575f80fd5b8135818111156117125761171261168a565b604051601f82017fffffffffffffffffffffffffffffffffffffffffffffffffffffffffffffffe0908116603f011681019083821181831017156117585761175861168a565b81604052828152886020848701011115611770575f80fd5b826020860160208301375f6020848301015280955050505050509250929050565b5f602082840312156117a1575f80fd5b5035919050565b602081525f82518060208401528060208501604085015e5f6040828501015260407fffffffffffffffffffffffffffffffffffffffffffffffffffffffffffffffe0601f83011684010191505092915050565b5f6020828403121561180b575f80fd5b5051919050565b5f82518060208501845e5f92019182525091905056fea2646970667358221220e3db4a4a0876ba2635b75e36ba27cd9624ca82d0a6ce98368cab4c6b127ed1e264736f6c63430008190033","opcodes":"PUSH1 0xA0 PUSH1 0x40 MSTORE ADDRESS PUSH1 0x80 MSTORE CALLVALUE DUP1 ISZERO PUSH1 0x12 JUMPI PUSH0 DUP1 REVERT JUMPDEST POP PUSH1 0x80 MLOAD PUSH2 0x185E PUSH2 0x39 PUSH0 CODECOPY PUSH0 DUP2 DUP2 PUSH2 0x10A9 ADD MSTORE DUP2 DUP2 PUSH2 0x10D2 ADD MSTORE PUSH2 0x12A5 ADD MSTORE PUSH2 0x185E PUSH0 RETURN INVALID PUSH1 0x80 PUSH1 0x40 MSTORE PUSH1 0x4 CALLDATASIZE LT PUSH2 0x37C JUMPI PUSH0 CALLDATALOAD PUSH1 0xE0 SHR DUP1 PUSH4 0x85377188 GT PUSH2 0x1D3 JUMPI DUP1 PUSH4 0xB9F5E617 GT PUSH2 0xFD JUMPI DUP1 PUSH4 0xCFF49D68 GT PUSH2 0x9D JUMPI DUP1 PUSH4 0xF1DCCDE7 GT PUSH2 0x6D JUMPI DUP1 PUSH4 0xF1DCCDE7 EQ PUSH2 0xA1B JUMPI DUP1 PUSH4 0xF2FDE38B EQ PUSH2 0xA3A JUMPI DUP1 PUSH4 0xF5B84F64 EQ PUSH2 0xA59 JUMPI DUP1 PUSH4 0xF5D2D998 EQ PUSH2 0xA78 JUMPI PUSH0 DUP1 REVERT JUMPDEST DUP1 PUSH4 0xCFF49D68 EQ PUSH2 0x9A1 JUMPI DUP1 PUSH4 0xE04B677F EQ PUSH2 0x9BE JUMPI DUP1 PUSH4 0xE528CA12 EQ PUSH2 0x9DD JUMPI DUP1 PUSH4 0xF0F44260 EQ PUSH2 0x9FC JUMPI PUSH0 DUP1 REVERT JUMPDEST DUP1 PUSH4 0xC08F786B GT PUSH2 0xD8 JUMPI DUP1 PUSH4 0xC08F786B EQ PUSH2 0x927 JUMPI DUP1 PUSH4 0xC3F5DF5C EQ PUSH2 0x946 JUMPI DUP1 PUSH4 0xC9ABA8AE EQ PUSH2 0x965 JUMPI DUP1 PUSH4 0xCC01E9A6 EQ PUSH2 0x982 JUMPI PUSH0 DUP1 REVERT JUMPDEST DUP1 PUSH4 0xB9F5E617 EQ PUSH2 0x8D6 JUMPI DUP1 PUSH4 0xBB3BA04C EQ PUSH2 0x8EB JUMPI DUP1 PUSH4 0xBEA9849E EQ PUSH2 0x908 JUMPI PUSH0 DUP1 REVERT JUMPDEST DUP1 PUSH4 0x9454705F GT PUSH2 0x173 JUMPI DUP1 PUSH4 0xB381CF40 GT PUSH2 0x143 JUMPI DUP1 PUSH4 0xB381CF40 EQ PUSH2 0x85A JUMPI DUP1 PUSH4 0xB3E089A2 EQ PUSH2 0x879 JUMPI DUP1 PUSH4 0xB691A419 EQ PUSH2 0x898 JUMPI DUP1 PUSH4 0xB6FE9CC7 EQ PUSH2 0x8B7 JUMPI PUSH0 DUP1 REVERT JUMPDEST DUP1 PUSH4 0x9454705F EQ PUSH2 0x7AA JUMPI DUP1 PUSH4 0x9E6453F8 EQ PUSH2 0x7C9 JUMPI DUP1 PUSH4 0xA5D2236F EQ PUSH2 0x7E8 JUMPI DUP1 PUSH4 0xAD3CB1CC EQ PUSH2 0x805 JUMPI PUSH0 DUP1 REVERT JUMPDEST DUP1 PUSH4 0x8BDB2AFA GT PUSH2 0x1AE JUMPI DUP1 PUSH4 0x8BDB2AFA EQ PUSH2 0x71F JUMPI DUP1 PUSH4 0x8DA5CB5B EQ PUSH2 0x73D JUMPI DUP1 PUSH4 0x8E1C3A8A EQ PUSH2 0x779 JUMPI DUP1 PUSH4 0x9380FB6F EQ PUSH2 0x796 JUMPI PUSH0 DUP1 REVERT JUMPDEST DUP1 PUSH4 0x85377188 EQ PUSH2 0x6D7 JUMPI DUP1 PUSH4 0x85462D6F EQ PUSH2 0x6EC JUMPI DUP1 PUSH4 0x89A30271 EQ PUSH2 0x700 JUMPI PUSH0 DUP1 REVERT JUMPDEST DUP1 PUSH4 0x524900B5 GT PUSH2 0x2B4 JUMPI DUP1 PUSH4 0x715018A6 GT PUSH2 0x254 JUMPI DUP1 PUSH4 0x7DFB7EA1 GT PUSH2 0x224 JUMPI DUP1 PUSH4 0x7DFB7EA1 EQ PUSH2 0x668 JUMPI DUP1 PUSH4 0x8129FC1C EQ PUSH2 0x687 JUMPI DUP1 PUSH4 0x8267C2C8 EQ PUSH2 0x69B JUMPI DUP1 PUSH4 0x82755EBB EQ PUSH2 0x6BA JUMPI PUSH0 DUP1 REVERT JUMPDEST DUP1 PUSH4 0x715018A6 EQ PUSH2 0x5F9 JUMPI DUP1 PUSH4 0x735DE9F7 EQ PUSH2 0x60D JUMPI DUP1 PUSH4 0x782DD902 EQ PUSH2 0x62C JUMPI DUP1 PUSH4 0x7C6FD308 EQ PUSH2 0x64B JUMPI PUSH0 DUP1 REVERT JUMPDEST DUP1 PUSH4 0x58A67233 GT PUSH2 0x28F JUMPI DUP1 PUSH4 0x58A67233 EQ PUSH2 0x57F JUMPI DUP1 PUSH4 0x61D027B3 EQ PUSH2 0x59E JUMPI DUP1 PUSH4 0x6C43274C EQ PUSH2 0x5BD JUMPI DUP1 PUSH4 0x6C9C0078 EQ PUSH2 0x5DC JUMPI PUSH0 DUP1 REVERT JUMPDEST DUP1 PUSH4 0x524900B5 EQ PUSH2 0x52F JUMPI DUP1 PUSH4 0x52D1902D EQ PUSH2 0x54C JUMPI DUP1 PUSH4 0x588C5B70 EQ PUSH2 0x560 JUMPI PUSH0 DUP1 REVERT JUMPDEST DUP1 PUSH4 0x39B65140 GT PUSH2 0x31F JUMPI DUP1 PUSH4 0x400FB668 GT PUSH2 0x2FA JUMPI DUP1 PUSH4 0x400FB668 EQ PUSH2 0x4CA JUMPI DUP1 PUSH4 0x468A7071 EQ PUSH2 0x4E9 JUMPI DUP1 PUSH4 0x4F1EF286 EQ PUSH2 0x508 JUMPI DUP1 PUSH4 0x4F4608A2 EQ PUSH2 0x51B JUMPI PUSH0 DUP1 REVERT JUMPDEST DUP1 PUSH4 0x39B65140 EQ PUSH2 0x472 JUMPI DUP1 PUSH4 0x3B19E84A EQ PUSH2 0x491 JUMPI DUP1 PUSH4 0x3E6DFA36 EQ PUSH2 0x4AE JUMPI PUSH0 DUP1 REVERT JUMPDEST DUP1 PUSH4 0x1ACB6141 GT PUSH2 0x35A JUMPI DUP1 PUSH4 0x1ACB6141 EQ PUSH2 0x3F6 JUMPI DUP1 PUSH4 0x1BF01E9B EQ PUSH2 0x413 JUMPI DUP1 PUSH4 0x219CE339 EQ PUSH2 0x430 JUMPI DUP1 PUSH4 0x34DECFC9 EQ PUSH2 0x44F JUMPI PUSH0 DUP1 REVERT JUMPDEST DUP1 PUSH4 0x241BFFA EQ PUSH2 0x380 JUMPI DUP1 PUSH4 0x4CC7325 EQ PUSH2 0x3A1 JUMPI DUP1 PUSH4 0x1292F02E EQ PUSH2 0x3D7 JUMPI JUMPDEST PUSH0 DUP1 REVERT JUMPDEST CALLVALUE DUP1 ISZERO PUSH2 0x38B JUMPI PUSH0 DUP1 REVERT JUMPDEST POP PUSH2 0x39F PUSH2 0x39A CALLDATASIZE PUSH1 0x4 PUSH2 0x1671 JUMP JUMPDEST PUSH2 0xA95 JUMP JUMPDEST STOP JUMPDEST CALLVALUE DUP1 ISZERO PUSH2 0x3AC JUMPI PUSH0 DUP1 REVERT JUMPDEST POP PUSH1 0x6 SLOAD PUSH1 0x1 PUSH1 0x1 PUSH1 0xA0 SHL SUB AND JUMPDEST PUSH1 0x40 MLOAD PUSH1 0x1 PUSH1 0x1 PUSH1 0xA0 SHL SUB SWAP1 SWAP2 AND DUP2 MSTORE PUSH1 0x20 ADD JUMPDEST PUSH1 0x40 MLOAD DUP1 SWAP2 SUB SWAP1 RETURN JUMPDEST CALLVALUE DUP1 ISZERO PUSH2 0x3E2 JUMPI PUSH0 DUP1 REVERT JUMPDEST POP PUSH1 0x2 SLOAD PUSH2 0x3BA SWAP1 PUSH1 0x1 PUSH1 0x1 PUSH1 0xA0 SHL SUB AND DUP2 JUMP JUMPDEST CALLVALUE DUP1 ISZERO PUSH2 0x401 JUMPI PUSH0 DUP1 REVERT JUMPDEST POP PUSH1 0x3 SLOAD PUSH1 0x1 PUSH1 0x1 PUSH1 0xA0 SHL SUB AND PUSH2 0x3BA JUMP JUMPDEST CALLVALUE DUP1 ISZERO PUSH2 0x41E JUMPI PUSH0 DUP1 REVERT JUMPDEST POP PUSH1 0xC SLOAD PUSH1 0x1 PUSH1 0x1 PUSH1 0xA0 SHL SUB AND PUSH2 0x3BA JUMP JUMPDEST CALLVALUE DUP1 ISZERO PUSH2 0x43B JUMPI PUSH0 DUP1 REVERT JUMPDEST POP PUSH1 0x4 SLOAD PUSH2 0x3BA SWAP1 PUSH1 0x1 PUSH1 0x1 PUSH1 0xA0 SHL SUB AND DUP2 JUMP JUMPDEST CALLVALUE DUP1 ISZERO PUSH2 0x45A JUMPI PUSH0 DUP1 REVERT JUMPDEST POP PUSH2 0x464 PUSH1 0xE SLOAD DUP2 JUMP JUMPDEST PUSH1 0x40 MLOAD SWAP1 DUP2 MSTORE PUSH1 0x20 ADD PUSH2 0x3CE JUMP JUMPDEST CALLVALUE DUP1 ISZERO PUSH2 0x47D JUMPI PUSH0 DUP1 REVERT JUMPDEST POP PUSH1 0x6 SLOAD PUSH2 0x3BA SWAP1 PUSH1 0x1 PUSH1 0x1 PUSH1 0xA0 SHL SUB AND DUP2 JUMP JUMPDEST CALLVALUE DUP1 ISZERO PUSH2 0x49C JUMPI PUSH0 DUP1 REVERT JUMPDEST POP PUSH1 0xA SLOAD PUSH1 0x1 PUSH1 0x1 PUSH1 0xA0 SHL SUB AND PUSH2 0x3BA JUMP JUMPDEST CALLVALUE DUP1 ISZERO PUSH2 0x4B9 JUMPI PUSH0 DUP1 REVERT JUMPDEST POP PUSH0 SLOAD PUSH1 0x1 PUSH1 0x1 PUSH1 0xA0 SHL SUB AND PUSH2 0x3BA JUMP JUMPDEST CALLVALUE DUP1 ISZERO PUSH2 0x4D5 JUMPI PUSH0 DUP1 REVERT JUMPDEST POP PUSH2 0x39F PUSH2 0x4E4 CALLDATASIZE PUSH1 0x4 PUSH2 0x1671 JUMP JUMPDEST PUSH2 0xACC JUMP JUMPDEST CALLVALUE DUP1 ISZERO PUSH2 0x4F4 JUMPI PUSH0 DUP1 REVERT JUMPDEST POP PUSH1 0x8 SLOAD PUSH2 0x3BA SWAP1 PUSH1 0x1 PUSH1 0x1 PUSH1 0xA0 SHL SUB AND DUP2 JUMP JUMPDEST PUSH2 0x39F PUSH2 0x516 CALLDATASIZE PUSH1 0x4 PUSH2 0x16B7 JUMP JUMPDEST PUSH2 0xB03 JUMP JUMPDEST CALLVALUE DUP1 ISZERO PUSH2 0x526 JUMPI PUSH0 DUP1 REVERT JUMPDEST POP PUSH1 0x10 SLOAD PUSH2 0x464 JUMP JUMPDEST CALLVALUE DUP1 ISZERO PUSH2 0x53A JUMPI PUSH0 DUP1 REVERT JUMPDEST POP PUSH1 0x1 SLOAD PUSH1 0x1 PUSH1 0x1 PUSH1 0xA0 SHL SUB AND PUSH2 0x3BA JUMP JUMPDEST CALLVALUE DUP1 ISZERO PUSH2 0x557 JUMPI PUSH0 DUP1 REVERT JUMPDEST POP PUSH2 0x464 PUSH2 0xB22 JUMP JUMPDEST CALLVALUE DUP1 ISZERO PUSH2 0x56B JUMPI PUSH0 DUP1 REVERT JUMPDEST POP PUSH2 0x39F PUSH2 0x57A CALLDATASIZE PUSH1 0x4 PUSH2 0x1671 JUMP JUMPDEST PUSH2 0xB50 JUMP JUMPDEST CALLVALUE DUP1 ISZERO PUSH2 0x58A JUMPI PUSH0 DUP1 REVERT JUMPDEST POP PUSH1 0x3 SLOAD PUSH2 0x3BA SWAP1 PUSH1 0x1 PUSH1 0x1 PUSH1 0xA0 SHL SUB AND DUP2 JUMP JUMPDEST CALLVALUE DUP1 ISZERO PUSH2 0x5A9 JUMPI PUSH0 DUP1 REVERT JUMPDEST POP PUSH1 0xA SLOAD PUSH2 0x3BA SWAP1 PUSH1 0x1 PUSH1 0x1 PUSH1 0xA0 SHL SUB AND DUP2 JUMP JUMPDEST CALLVALUE DUP1 ISZERO PUSH2 0x5C8 JUMPI PUSH0 DUP1 REVERT JUMPDEST POP PUSH2 0x39F PUSH2 0x5D7 CALLDATASIZE PUSH1 0x4 PUSH2 0x1671 JUMP JUMPDEST PUSH2 0xB87 JUMP JUMPDEST CALLVALUE DUP1 ISZERO PUSH2 0x5E7 JUMPI PUSH0 DUP1 REVERT JUMPDEST POP PUSH1 0xB SLOAD PUSH1 0x1 PUSH1 0x1 PUSH1 0xA0 SHL SUB AND PUSH2 0x3BA JUMP JUMPDEST CALLVALUE DUP1 ISZERO PUSH2 0x604 JUMPI PUSH0 DUP1 REVERT JUMPDEST POP PUSH2 0x39F PUSH2 0xBBE JUMP JUMPDEST CALLVALUE DUP1 ISZERO PUSH2 0x618 JUMPI PUSH0 DUP1 REVERT JUMPDEST POP PUSH1 0x1 SLOAD PUSH2 0x3BA SWAP1 PUSH1 0x1 PUSH1 0x1 PUSH1 0xA0 SHL SUB AND DUP2 JUMP JUMPDEST CALLVALUE DUP1 ISZERO PUSH2 0x637 JUMPI PUSH0 DUP1 REVERT JUMPDEST POP PUSH1 0xD SLOAD PUSH2 0x3BA SWAP1 PUSH1 0x1 PUSH1 0x1 PUSH1 0xA0 SHL SUB AND DUP2 JUMP JUMPDEST CALLVALUE DUP1 ISZERO PUSH2 0x656 JUMPI PUSH0 DUP1 REVERT JUMPDEST POP PUSH1 0x4 SLOAD PUSH1 0x1 PUSH1 0x1 PUSH1 0xA0 SHL SUB AND PUSH2 0x3BA JUMP JUMPDEST CALLVALUE DUP1 ISZERO PUSH2 0x673 JUMPI PUSH0 DUP1 REVERT JUMPDEST POP PUSH1 0x9 SLOAD PUSH2 0x3BA SWAP1 PUSH1 0x1 PUSH1 0x1 PUSH1 0xA0 SHL SUB AND DUP2 JUMP JUMPDEST CALLVALUE DUP1 ISZERO PUSH2 0x692 JUMPI PUSH0 DUP1 REVERT JUMPDEST POP PUSH2 0x39F PUSH2 0xBD1 JUMP JUMPDEST CALLVALUE DUP1 ISZERO PUSH2 0x6A6 JUMPI PUSH0 DUP1 REVERT JUMPDEST POP PUSH2 0x39F PUSH2 0x6B5 CALLDATASIZE PUSH1 0x4 PUSH2 0x1671 JUMP JUMPDEST PUSH2 0xD66 JUMP JUMPDEST CALLVALUE DUP1 ISZERO PUSH2 0x6C5 JUMPI PUSH0 DUP1 REVERT JUMPDEST POP PUSH1 0x9 SLOAD PUSH1 0x1 PUSH1 0x1 PUSH1 0xA0 SHL SUB AND PUSH2 0x3BA JUMP JUMPDEST CALLVALUE DUP1 ISZERO PUSH2 0x6E2 JUMPI PUSH0 DUP1 REVERT JUMPDEST POP PUSH2 0x464 PUSH1 0x10 SLOAD DUP2 JUMP JUMPDEST CALLVALUE DUP1 ISZERO PUSH2 0x6F7 JUMPI PUSH0 DUP1 REVERT JUMPDEST POP PUSH1 0xF SLOAD PUSH2 0x464 JUMP JUMPDEST CALLVALUE DUP1 ISZERO PUSH2 0x70B JUMPI PUSH0 DUP1 REVERT JUMPDEST POP PUSH1 0xC SLOAD PUSH2 0x3BA SWAP1 PUSH1 0x1 PUSH1 0x1 PUSH1 0xA0 SHL SUB AND DUP2 JUMP JUMPDEST CALLVALUE DUP1 ISZERO PUSH2 0x72A JUMPI PUSH0 DUP1 REVERT JUMPDEST POP PUSH0 SLOAD PUSH2 0x3BA SWAP1 PUSH1 0x1 PUSH1 0x1 PUSH1 0xA0 SHL SUB AND DUP2 JUMP JUMPDEST CALLVALUE DUP1 ISZERO PUSH2 0x748 JUMPI PUSH0 DUP1 REVERT JUMPDEST POP PUSH32 0x9016D09D72D40FDAE2FD8CEAC6B6234C7706214FD39C1CD1E609A0528C199300 SLOAD PUSH1 0x1 PUSH1 0x1 PUSH1 0xA0 SHL SUB AND PUSH2 0x3BA JUMP JUMPDEST CALLVALUE DUP1 ISZERO PUSH2 0x784 JUMPI PUSH0 DUP1 REVERT JUMPDEST POP PUSH1 0xD SLOAD PUSH1 0x1 PUSH1 0x1 PUSH1 0xA0 SHL SUB AND PUSH2 0x3BA JUMP JUMPDEST CALLVALUE DUP1 ISZERO PUSH2 0x7A1 JUMPI PUSH0 DUP1 REVERT JUMPDEST POP PUSH1 0xE SLOAD PUSH2 0x464 JUMP JUMPDEST CALLVALUE DUP1 ISZERO PUSH2 0x7B5 JUMPI PUSH0 DUP1 REVERT JUMPDEST POP PUSH1 0x11 SLOAD PUSH2 0x3BA SWAP1 PUSH1 0x1 PUSH1 0x1 PUSH1 0xA0 SHL SUB AND DUP2 JUMP JUMPDEST CALLVALUE DUP1 ISZERO PUSH2 0x7D4 JUMPI PUSH0 DUP1 REVERT JUMPDEST POP PUSH2 0x39F PUSH2 0x7E3 CALLDATASIZE PUSH1 0x4 PUSH2 0x1791 JUMP JUMPDEST PUSH2 0xD9D JUMP JUMPDEST CALLVALUE DUP1 ISZERO PUSH2 0x7F3 JUMPI PUSH0 DUP1 REVERT JUMPDEST POP PUSH1 0x11 SLOAD PUSH1 0x1 PUSH1 0x1 PUSH1 0xA0 SHL SUB AND PUSH2 0x3BA JUMP JUMPDEST CALLVALUE DUP1 ISZERO PUSH2 0x810 JUMPI PUSH0 DUP1 REVERT JUMPDEST POP PUSH2 0x84D PUSH1 0x40 MLOAD DUP1 PUSH1 0x40 ADD PUSH1 0x40 MSTORE DUP1 PUSH1 0x5 DUP2 MSTORE PUSH1 0x20 ADD PUSH32 0x352E302E30000000000000000000000000000000000000000000000000000000 DUP2 MSTORE POP DUP2 JUMP JUMPDEST PUSH1 0x40 MLOAD PUSH2 0x3CE SWAP2 SWAP1 PUSH2 0x17A8 JUMP JUMPDEST CALLVALUE DUP1 ISZERO PUSH2 0x865 JUMPI PUSH0 DUP1 REVERT JUMPDEST POP PUSH1 0xB SLOAD PUSH2 0x3BA SWAP1 PUSH1 0x1 PUSH1 0x1 PUSH1 0xA0 SHL SUB AND DUP2 JUMP JUMPDEST CALLVALUE DUP1 ISZERO PUSH2 0x884 JUMPI PUSH0 DUP1 REVERT JUMPDEST POP PUSH2 0x39F PUSH2 0x893 CALLDATASIZE PUSH1 0x4 PUSH2 0x1671 JUMP JUMPDEST PUSH2 0xDAA JUMP JUMPDEST CALLVALUE DUP1 ISZERO PUSH2 0x8A3 JUMPI PUSH0 DUP1 REVERT JUMPDEST POP PUSH1 0x5 SLOAD PUSH2 0x3BA SWAP1 PUSH1 0x1 PUSH1 0x1 PUSH1 0xA0 SHL SUB AND DUP2 JUMP JUMPDEST CALLVALUE DUP1 ISZERO PUSH2 0x8C2 JUMPI PUSH0 DUP1 REVERT JUMPDEST POP PUSH2 0x39F PUSH2 0x8D1 CALLDATASIZE PUSH1 0x4 PUSH2 0x1671 JUMP JUMPDEST PUSH2 0xDE1 JUMP JUMPDEST CALLVALUE DUP1 ISZERO PUSH2 0x8E1 JUMPI PUSH0 DUP1 REVERT JUMPDEST POP PUSH2 0x464 PUSH1 0xF SLOAD DUP2 JUMP JUMPDEST CALLVALUE DUP1 ISZERO PUSH2 0x8F6 JUMPI PUSH0 DUP1 REVERT JUMPDEST POP PUSH1 0x8 SLOAD PUSH1 0x1 PUSH1 0x1 PUSH1 0xA0 SHL SUB AND PUSH2 0x3BA JUMP JUMPDEST CALLVALUE DUP1 ISZERO PUSH2 0x913 JUMPI PUSH0 DUP1 REVERT JUMPDEST POP PUSH2 0x39F PUSH2 0x922 CALLDATASIZE PUSH1 0x4 PUSH2 0x1671 JUMP JUMPDEST PUSH2 0xE18 JUMP JUMPDEST CALLVALUE DUP1 ISZERO PUSH2 0x932 JUMPI PUSH0 DUP1 REVERT JUMPDEST POP PUSH2 0x39F PUSH2 0x941 CALLDATASIZE PUSH1 0x4 PUSH2 0x1671 JUMP JUMPDEST PUSH2 0xE4F JUMP JUMPDEST CALLVALUE DUP1 ISZERO PUSH2 0x951 JUMPI PUSH0 DUP1 REVERT JUMPDEST POP PUSH2 0x39F PUSH2 0x960 CALLDATASIZE PUSH1 0x4 PUSH2 0x1671 JUMP JUMPDEST PUSH2 0xE86 JUMP JUMPDEST CALLVALUE DUP1 ISZERO PUSH2 0x970 JUMPI PUSH0 DUP1 REVERT JUMPDEST POP PUSH1 0x7 SLOAD PUSH1 0x1 PUSH1 0x1 PUSH1 0xA0 SHL SUB AND PUSH2 0x3BA JUMP JUMPDEST CALLVALUE DUP1 ISZERO PUSH2 0x98D JUMPI PUSH0 DUP1 REVERT JUMPDEST POP PUSH2 0x39F PUSH2 0x99C CALLDATASIZE PUSH1 0x4 PUSH2 0x1671 JUMP JUMPDEST PUSH2 0xEBD JUMP JUMPDEST CALLVALUE DUP1 ISZERO PUSH2 0x9AC JUMPI PUSH0 DUP1 REVERT JUMPDEST POP PUSH1 0x5 SLOAD PUSH1 0x1 PUSH1 0x1 PUSH1 0xA0 SHL SUB AND PUSH2 0x3BA JUMP JUMPDEST CALLVALUE DUP1 ISZERO PUSH2 0x9C9 JUMPI PUSH0 DUP1 REVERT JUMPDEST POP PUSH2 0x39F PUSH2 0x9D8 CALLDATASIZE PUSH1 0x4 PUSH2 0x1671 JUMP JUMPDEST PUSH2 0xEF4 JUMP JUMPDEST CALLVALUE DUP1 ISZERO PUSH2 0x9E8 JUMPI PUSH0 DUP1 REVERT JUMPDEST POP PUSH1 0x7 SLOAD PUSH2 0x3BA SWAP1 PUSH1 0x1 PUSH1 0x1 PUSH1 0xA0 SHL SUB AND DUP2 JUMP JUMPDEST CALLVALUE DUP1 ISZERO PUSH2 0xA07 JUMPI PUSH0 DUP1 REVERT JUMPDEST POP PUSH2 0x39F PUSH2 0xA16 CALLDATASIZE PUSH1 0x4 PUSH2 0x1671 JUMP JUMPDEST PUSH2 0xF2A JUMP JUMPDEST CALLVALUE DUP1 ISZERO PUSH2 0xA26 JUMPI PUSH0 DUP1 REVERT JUMPDEST POP PUSH2 0x39F PUSH2 0xA35 CALLDATASIZE PUSH1 0x4 PUSH2 0x1671 JUMP JUMPDEST PUSH2 0xF61 JUMP JUMPDEST CALLVALUE DUP1 ISZERO PUSH2 0xA45 JUMPI PUSH0 DUP1 REVERT JUMPDEST POP PUSH2 0x39F PUSH2 0xA54 CALLDATASIZE PUSH1 0x4 PUSH2 0x1671 JUMP JUMPDEST PUSH2 0xF98 JUMP JUMPDEST CALLVALUE DUP1 ISZERO PUSH2 0xA64 JUMPI PUSH0 DUP1 REVERT JUMPDEST POP PUSH2 0x39F PUSH2 0xA73 CALLDATASIZE PUSH1 0x4 PUSH2 0x1671 JUMP JUMPDEST PUSH2 0xFF3 JUMP JUMPDEST CALLVALUE DUP1 ISZERO PUSH2 0xA83 JUMPI PUSH0 DUP1 REVERT JUMPDEST POP PUSH1 0x2 SLOAD PUSH1 0x1 PUSH1 0x1 PUSH1 0xA0 SHL SUB AND PUSH2 0x3BA JUMP JUMPDEST PUSH2 0xA9D PUSH2 0x102A JUMP JUMPDEST PUSH1 0x5 DUP1 SLOAD PUSH20 0xFFFFFFFFFFFFFFFFFFFFFFFFFFFFFFFFFFFFFFFF NOT AND PUSH1 0x1 PUSH1 0x1 PUSH1 0xA0 SHL SUB SWAP3 SWAP1 SWAP3 AND SWAP2 SWAP1 SWAP2 OR SWAP1 SSTORE JUMP JUMPDEST PUSH2 0xAD4 PUSH2 0x102A JUMP JUMPDEST PUSH1 0x6 DUP1 SLOAD PUSH20 0xFFFFFFFFFFFFFFFFFFFFFFFFFFFFFFFFFFFFFFFF NOT AND PUSH1 0x1 PUSH1 0x1 PUSH1 0xA0 SHL SUB SWAP3 SWAP1 SWAP3 AND SWAP2 SWAP1 SWAP2 OR SWAP1 SSTORE JUMP JUMPDEST PUSH2 0xB0B PUSH2 0x109E JUMP JUMPDEST PUSH2 0xB14 DUP3 PUSH2 0x116E JUMP JUMPDEST PUSH2 0xB1E DUP3 DUP3 PUSH2 0x1176 JUMP JUMPDEST POP POP JUMP JUMPDEST PUSH0 PUSH2 0xB2B PUSH2 0x129A JUMP JUMPDEST POP PUSH32 0x360894A13BA1A3210667C828492DB98DCA3E2076CC3735A920A3CA505D382BBC SWAP1 JUMP JUMPDEST PUSH2 0xB58 PUSH2 0x102A JUMP JUMPDEST PUSH1 0x3 DUP1 SLOAD PUSH20 0xFFFFFFFFFFFFFFFFFFFFFFFFFFFFFFFFFFFFFFFF NOT AND PUSH1 0x1 PUSH1 0x1 PUSH1 0xA0 SHL SUB SWAP3 SWAP1 SWAP3 AND SWAP2 SWAP1 SWAP2 OR SWAP1 SSTORE JUMP JUMPDEST PUSH2 0xB8F PUSH2 0x102A JUMP JUMPDEST PUSH1 0x7 DUP1 SLOAD PUSH20 0xFFFFFFFFFFFFFFFFFFFFFFFFFFFFFFFFFFFFFFFF NOT AND PUSH1 0x1 PUSH1 0x1 PUSH1 0xA0 SHL SUB SWAP3 SWAP1 SWAP3 AND SWAP2 SWAP1 SWAP2 OR SWAP1 SSTORE JUMP JUMPDEST PUSH2 0xBC6 PUSH2 0x102A JUMP JUMPDEST PUSH2 0xBCF PUSH0 PUSH2 0x12FC JUMP JUMPDEST JUMP JUMPDEST PUSH32 0xF0C57E16840DF040F15088DC2F81FE391C3923BEC73E23A9662EFC9C229C6A00 DUP1 SLOAD PUSH9 0x10000000000000000 DUP2 DIV PUSH1 0xFF AND ISZERO SWAP1 PUSH8 0xFFFFFFFFFFFFFFFF AND PUSH0 DUP2 ISZERO DUP1 ISZERO PUSH2 0xC1B JUMPI POP DUP3 JUMPDEST SWAP1 POP PUSH0 DUP3 PUSH8 0xFFFFFFFFFFFFFFFF AND PUSH1 0x1 EQ DUP1 ISZERO PUSH2 0xC37 JUMPI POP ADDRESS EXTCODESIZE ISZERO JUMPDEST SWAP1 POP DUP2 ISZERO DUP1 ISZERO PUSH2 0xC45 JUMPI POP DUP1 ISZERO JUMPDEST ISZERO PUSH2 0xC7C JUMPI PUSH1 0x40 MLOAD PUSH32 0xF92EE8A900000000000000000000000000000000000000000000000000000000 DUP2 MSTORE PUSH1 0x4 ADD PUSH1 0x40 MLOAD DUP1 SWAP2 SUB SWAP1 REVERT JUMPDEST DUP5 SLOAD PUSH32 0xFFFFFFFFFFFFFFFFFFFFFFFFFFFFFFFFFFFFFFFFFFFFFFFF0000000000000000 AND PUSH1 0x1 OR DUP6 SSTORE DUP4 ISZERO PUSH2 0xCDD JUMPI DUP5 SLOAD PUSH32 0xFFFFFFFFFFFFFFFFFFFFFFFFFFFFFFFFFFFFFFFFFFFFFF00FFFFFFFFFFFFFFFF AND PUSH9 0x10000000000000000 OR DUP6 SSTORE JUMPDEST PUSH2 0xCE6 CALLER PUSH2 0x1379 JUMP JUMPDEST PUSH2 0xCEE PUSH2 0x138A JUMP JUMPDEST PUSH1 0x64 PUSH1 0xE SSTORE PUSH1 0x1E PUSH1 0xF SSTORE PUSH2 0x2710 PUSH1 0x10 SSTORE DUP4 ISZERO PUSH2 0xD5F JUMPI DUP5 SLOAD PUSH32 0xFFFFFFFFFFFFFFFFFFFFFFFFFFFFFFFFFFFFFFFFFFFFFF00FFFFFFFFFFFFFFFF AND DUP6 SSTORE PUSH1 0x40 MLOAD PUSH1 0x1 DUP2 MSTORE PUSH32 0xC7F505B2F371AE2175EE4913F4499E1F2633A7B5936321EED1CDAEB6115181D2 SWAP1 PUSH1 0x20 ADD PUSH1 0x40 MLOAD DUP1 SWAP2 SUB SWAP1 LOG1 JUMPDEST POP POP POP POP POP JUMP JUMPDEST PUSH2 0xD6E PUSH2 0x102A JUMP JUMPDEST PUSH1 0x4 DUP1 SLOAD PUSH20 0xFFFFFFFFFFFFFFFFFFFFFFFFFFFFFFFFFFFFFFFF NOT AND PUSH1 0x1 PUSH1 0x1 PUSH1 0xA0 SHL SUB SWAP3 SWAP1 SWAP3 AND SWAP2 SWAP1 SWAP2 OR SWAP1 SSTORE JUMP JUMPDEST PUSH2 0xDA5 PUSH2 0x102A JUMP JUMPDEST PUSH1 0xF SSTORE JUMP JUMPDEST PUSH2 0xDB2 PUSH2 0x102A JUMP JUMPDEST PUSH1 0xC DUP1 SLOAD PUSH20 0xFFFFFFFFFFFFFFFFFFFFFFFFFFFFFFFFFFFFFFFF NOT AND PUSH1 0x1 PUSH1 0x1 PUSH1 0xA0 SHL SUB SWAP3 SWAP1 SWAP3 AND SWAP2 SWAP1 SWAP2 OR SWAP1 SSTORE JUMP JUMPDEST PUSH2 0xDE9 PUSH2 0x102A JUMP JUMPDEST PUSH1 0xB DUP1 SLOAD PUSH20 0xFFFFFFFFFFFFFFFFFFFFFFFFFFFFFFFFFFFFFFFF NOT AND PUSH1 0x1 PUSH1 0x1 PUSH1 0xA0 SHL SUB SWAP3 SWAP1 SWAP3 AND SWAP2 SWAP1 SWAP2 OR SWAP1 SSTORE JUMP JUMPDEST PUSH2 0xE20 PUSH2 0x102A JUMP JUMPDEST PUSH1 0x1 DUP1 SLOAD PUSH20 0xFFFFFFFFFFFFFFFFFFFFFFFFFFFFFFFFFFFFFFFF NOT AND PUSH1 0x1 PUSH1 0x1 PUSH1 0xA0 SHL SUB SWAP3 SWAP1 SWAP3 AND SWAP2 SWAP1 SWAP2 OR SWAP1 SSTORE JUMP JUMPDEST PUSH2 0xE57 PUSH2 0x102A JUMP JUMPDEST PUSH1 0xD DUP1 SLOAD PUSH20 0xFFFFFFFFFFFFFFFFFFFFFFFFFFFFFFFFFFFFFFFF NOT AND PUSH1 0x1 PUSH1 0x1 PUSH1 0xA0 SHL SUB SWAP3 SWAP1 SWAP3 AND SWAP2 SWAP1 SWAP2 OR SWAP1 SSTORE JUMP JUMPDEST PUSH2 0xE8E PUSH2 0x102A JUMP JUMPDEST PUSH1 0x9 DUP1 SLOAD PUSH20 0xFFFFFFFFFFFFFFFFFFFFFFFFFFFFFFFFFFFFFFFF NOT AND PUSH1 0x1 PUSH1 0x1 PUSH1 0xA0 SHL SUB SWAP3 SWAP1 SWAP3 AND SWAP2 SWAP1 SWAP2 OR SWAP1 SSTORE JUMP JUMPDEST PUSH2 0xEC5 PUSH2 0x102A JUMP JUMPDEST PUSH1 0x11 DUP1 SLOAD PUSH20 0xFFFFFFFFFFFFFFFFFFFFFFFFFFFFFFFFFFFFFFFF NOT AND PUSH1 0x1 PUSH1 0x1 PUSH1 0xA0 SHL SUB SWAP3 SWAP1 SWAP3 AND SWAP2 SWAP1 SWAP2 OR SWAP1 SSTORE JUMP JUMPDEST PUSH2 0xEFC PUSH2 0x102A JUMP JUMPDEST PUSH0 DUP1 SLOAD PUSH20 0xFFFFFFFFFFFFFFFFFFFFFFFFFFFFFFFFFFFFFFFF NOT AND PUSH1 0x1 PUSH1 0x1 PUSH1 0xA0 SHL SUB SWAP3 SWAP1 SWAP3 AND SWAP2 SWAP1 SWAP2 OR SWAP1 SSTORE JUMP JUMPDEST PUSH2 0xF32 PUSH2 0x102A JUMP JUMPDEST PUSH1 0xA DUP1 SLOAD PUSH20 0xFFFFFFFFFFFFFFFFFFFFFFFFFFFFFFFFFFFFFFFF NOT AND PUSH1 0x1 PUSH1 0x1 PUSH1 0xA0 SHL SUB SWAP3 SWAP1 SWAP3 AND SWAP2 SWAP1 SWAP2 OR SWAP1 SSTORE JUMP JUMPDEST PUSH2 0xF69 PUSH2 0x102A JUMP JUMPDEST PUSH1 0x2 DUP1 SLOAD PUSH20 0xFFFFFFFFFFFFFFFFFFFFFFFFFFFFFFFFFFFFFFFF NOT AND PUSH1 0x1 PUSH1 0x1 PUSH1 0xA0 SHL SUB SWAP3 SWAP1 SWAP3 AND SWAP2 SWAP1 SWAP2 OR SWAP1 SSTORE JUMP JUMPDEST PUSH2 0xFA0 PUSH2 0x102A JUMP JUMPDEST PUSH1 0x1 PUSH1 0x1 PUSH1 0xA0 SHL SUB DUP2 AND PUSH2 0xFE7 JUMPI PUSH1 0x40 MLOAD PUSH32 0x1E4FBDF700000000000000000000000000000000000000000000000000000000 DUP2 MSTORE PUSH0 PUSH1 0x4 DUP3 ADD MSTORE PUSH1 0x24 ADD JUMPDEST PUSH1 0x40 MLOAD DUP1 SWAP2 SUB SWAP1 REVERT JUMPDEST PUSH2 0xFF0 DUP2 PUSH2 0x12FC JUMP JUMPDEST POP JUMP JUMPDEST PUSH2 0xFFB PUSH2 0x102A JUMP JUMPDEST PUSH1 0x8 DUP1 SLOAD PUSH20 0xFFFFFFFFFFFFFFFFFFFFFFFFFFFFFFFFFFFFFFFF NOT AND PUSH1 0x1 PUSH1 0x1 PUSH1 0xA0 SHL SUB SWAP3 SWAP1 SWAP3 AND SWAP2 SWAP1 SWAP2 OR SWAP1 SSTORE JUMP JUMPDEST CALLER PUSH2 0x105C PUSH32 0x9016D09D72D40FDAE2FD8CEAC6B6234C7706214FD39C1CD1E609A0528C199300 SLOAD PUSH1 0x1 PUSH1 0x1 PUSH1 0xA0 SHL SUB AND SWAP1 JUMP JUMPDEST PUSH1 0x1 PUSH1 0x1 PUSH1 0xA0 SHL SUB AND EQ PUSH2 0xBCF JUMPI PUSH1 0x40 MLOAD PUSH32 0x118CDAA700000000000000000000000000000000000000000000000000000000 DUP2 MSTORE CALLER PUSH1 0x4 DUP3 ADD MSTORE PUSH1 0x24 ADD PUSH2 0xFDE JUMP JUMPDEST ADDRESS PUSH1 0x1 PUSH1 0x1 PUSH1 0xA0 SHL SUB PUSH32 0x0 AND EQ DUP1 PUSH2 0x1137 JUMPI POP PUSH32 0x0 PUSH1 0x1 PUSH1 0x1 PUSH1 0xA0 SHL SUB AND PUSH2 0x112B PUSH32 0x360894A13BA1A3210667C828492DB98DCA3E2076CC3735A920A3CA505D382BBC SLOAD PUSH1 0x1 PUSH1 0x1 PUSH1 0xA0 SHL SUB AND SWAP1 JUMP JUMPDEST PUSH1 0x1 PUSH1 0x1 PUSH1 0xA0 SHL SUB AND EQ ISZERO JUMPDEST ISZERO PUSH2 0xBCF JUMPI PUSH1 0x40 MLOAD PUSH32 0xE07C8DBA00000000000000000000000000000000000000000000000000000000 DUP2 MSTORE PUSH1 0x4 ADD PUSH1 0x40 MLOAD DUP1 SWAP2 SUB SWAP1 REVERT JUMPDEST PUSH2 0xFF0 PUSH2 0x102A JUMP JUMPDEST DUP2 PUSH1 0x1 PUSH1 0x1 PUSH1 0xA0 SHL SUB AND PUSH4 0x52D1902D PUSH1 0x40 MLOAD DUP2 PUSH4 0xFFFFFFFF AND PUSH1 0xE0 SHL DUP2 MSTORE PUSH1 0x4 ADD PUSH1 0x20 PUSH1 0x40 MLOAD DUP1 DUP4 SUB DUP2 DUP7 GAS STATICCALL SWAP3 POP POP POP DUP1 ISZERO PUSH2 0x11EE JUMPI POP PUSH1 0x40 DUP1 MLOAD PUSH1 0x1F RETURNDATASIZE SWAP1 DUP2 ADD PUSH32 0xFFFFFFFFFFFFFFFFFFFFFFFFFFFFFFFFFFFFFFFFFFFFFFFFFFFFFFFFFFFFFFE0 AND DUP3 ADD SWAP1 SWAP3 MSTORE PUSH2 0x11EB SWAP2 DUP2 ADD SWAP1 PUSH2 0x17FB JUMP JUMPDEST PUSH1 0x1 JUMPDEST PUSH2 0x122F JUMPI PUSH1 0x40 MLOAD PUSH32 0x4C9C8CE300000000000000000000000000000000000000000000000000000000 DUP2 MSTORE PUSH1 0x1 PUSH1 0x1 PUSH1 0xA0 SHL SUB DUP4 AND PUSH1 0x4 DUP3 ADD MSTORE PUSH1 0x24 ADD PUSH2 0xFDE JUMP JUMPDEST PUSH32 0x360894A13BA1A3210667C828492DB98DCA3E2076CC3735A920A3CA505D382BBC DUP2 EQ PUSH2 0x128B JUMPI PUSH1 0x40 MLOAD PUSH32 0xAA1D49A400000000000000000000000000000000000000000000000000000000 DUP2 MSTORE PUSH1 0x4 DUP2 ADD DUP3 SWAP1 MSTORE PUSH1 0x24 ADD PUSH2 0xFDE JUMP JUMPDEST PUSH2 0x1295 DUP4 DUP4 PUSH2 0x1392 JUMP JUMPDEST POP POP POP JUMP JUMPDEST ADDRESS PUSH1 0x1 PUSH1 0x1 PUSH1 0xA0 SHL SUB PUSH32 0x0 AND EQ PUSH2 0xBCF JUMPI PUSH1 0x40 MLOAD PUSH32 0xE07C8DBA00000000000000000000000000000000000000000000000000000000 DUP2 MSTORE PUSH1 0x4 ADD PUSH1 0x40 MLOAD DUP1 SWAP2 SUB SWAP1 REVERT JUMPDEST PUSH32 0x9016D09D72D40FDAE2FD8CEAC6B6234C7706214FD39C1CD1E609A0528C199300 DUP1 SLOAD PUSH20 0xFFFFFFFFFFFFFFFFFFFFFFFFFFFFFFFFFFFFFFFF NOT DUP2 AND PUSH1 0x1 PUSH1 0x1 PUSH1 0xA0 SHL SUB DUP5 DUP2 AND SWAP2 DUP3 OR DUP5 SSTORE PUSH1 0x40 MLOAD SWAP3 AND SWAP2 DUP3 SWAP1 PUSH32 0x8BE0079C531659141344CD1FD0A4F28419497F9722A3DAAFE3B4186F6B6457E0 SWAP1 PUSH0 SWAP1 LOG3 POP POP POP JUMP JUMPDEST PUSH2 0x1381 PUSH2 0x13E7 JUMP JUMPDEST PUSH2 0xFF0 DUP2 PUSH2 0x144E JUMP JUMPDEST PUSH2 0xBCF PUSH2 0x13E7 JUMP JUMPDEST PUSH2 0x139B DUP3 PUSH2 0x1456 JUMP JUMPDEST PUSH1 0x40 MLOAD PUSH1 0x1 PUSH1 0x1 PUSH1 0xA0 SHL SUB DUP4 AND SWAP1 PUSH32 0xBC7CD75A20EE27FD9ADEBAB32041F755214DBC6BFFA90CC0225B39DA2E5C2D3B SWAP1 PUSH0 SWAP1 LOG2 DUP1 MLOAD ISZERO PUSH2 0x13DF JUMPI PUSH2 0x1295 DUP3 DUP3 PUSH2 0x14F2 JUMP JUMPDEST PUSH2 0xB1E PUSH2 0x1564 JUMP JUMPDEST PUSH32 0xF0C57E16840DF040F15088DC2F81FE391C3923BEC73E23A9662EFC9C229C6A00 SLOAD PUSH9 0x10000000000000000 SWAP1 DIV PUSH1 0xFF AND PUSH2 0xBCF JUMPI PUSH1 0x40 MLOAD PUSH32 0xD7E6BCF800000000000000000000000000000000000000000000000000000000 DUP2 MSTORE PUSH1 0x4 ADD PUSH1 0x40 MLOAD DUP1 SWAP2 SUB SWAP1 REVERT JUMPDEST PUSH2 0xFA0 PUSH2 0x13E7 JUMP JUMPDEST DUP1 PUSH1 0x1 PUSH1 0x1 PUSH1 0xA0 SHL SUB AND EXTCODESIZE PUSH0 SUB PUSH2 0x14A4 JUMPI PUSH1 0x40 MLOAD PUSH32 0x4C9C8CE300000000000000000000000000000000000000000000000000000000 DUP2 MSTORE PUSH1 0x1 PUSH1 0x1 PUSH1 0xA0 SHL SUB DUP3 AND PUSH1 0x4 DUP3 ADD MSTORE PUSH1 0x24 ADD PUSH2 0xFDE JUMP JUMPDEST PUSH32 0x360894A13BA1A3210667C828492DB98DCA3E2076CC3735A920A3CA505D382BBC DUP1 SLOAD PUSH20 0xFFFFFFFFFFFFFFFFFFFFFFFFFFFFFFFFFFFFFFFF NOT AND PUSH1 0x1 PUSH1 0x1 PUSH1 0xA0 SHL SUB SWAP3 SWAP1 SWAP3 AND SWAP2 SWAP1 SWAP2 OR SWAP1 SSTORE JUMP JUMPDEST PUSH1 0x60 PUSH0 DUP1 DUP5 PUSH1 0x1 PUSH1 0x1 PUSH1 0xA0 SHL SUB AND DUP5 PUSH1 0x40 MLOAD PUSH2 0x150E SWAP2 SWAP1 PUSH2 0x1812 JUMP JUMPDEST PUSH0 PUSH1 0x40 MLOAD DUP1 DUP4 SUB DUP2 DUP6 GAS DELEGATECALL SWAP2 POP POP RETURNDATASIZE DUP1 PUSH0 DUP2 EQ PUSH2 0x1546 JUMPI PUSH1 0x40 MLOAD SWAP2 POP PUSH1 0x1F NOT PUSH1 0x3F RETURNDATASIZE ADD AND DUP3 ADD PUSH1 0x40 MSTORE RETURNDATASIZE DUP3 MSTORE RETURNDATASIZE PUSH0 PUSH1 0x20 DUP5 ADD RETURNDATACOPY PUSH2 0x154B JUMP JUMPDEST PUSH1 0x60 SWAP2 POP JUMPDEST POP SWAP2 POP SWAP2 POP PUSH2 0x155B DUP6 DUP4 DUP4 PUSH2 0x159C JUMP JUMPDEST SWAP6 SWAP5 POP POP POP POP POP JUMP JUMPDEST CALLVALUE ISZERO PUSH2 0xBCF JUMPI PUSH1 0x40 MLOAD PUSH32 0xB398979F00000000000000000000000000000000000000000000000000000000 DUP2 MSTORE PUSH1 0x4 ADD PUSH1 0x40 MLOAD DUP1 SWAP2 SUB SWAP1 REVERT JUMPDEST PUSH1 0x60 DUP3 PUSH2 0x15B1 JUMPI PUSH2 0x15AC DUP3 PUSH2 0x1614 JUMP JUMPDEST PUSH2 0x160D JUMP JUMPDEST DUP2 MLOAD ISZERO DUP1 ISZERO PUSH2 0x15C8 JUMPI POP PUSH1 0x1 PUSH1 0x1 PUSH1 0xA0 SHL SUB DUP5 AND EXTCODESIZE ISZERO JUMPDEST ISZERO PUSH2 0x160A JUMPI PUSH1 0x40 MLOAD PUSH32 0x9996B31500000000000000000000000000000000000000000000000000000000 DUP2 MSTORE PUSH1 0x1 PUSH1 0x1 PUSH1 0xA0 SHL SUB DUP6 AND PUSH1 0x4 DUP3 ADD MSTORE PUSH1 0x24 ADD PUSH2 0xFDE JUMP JUMPDEST POP DUP1 JUMPDEST SWAP4 SWAP3 POP POP POP JUMP JUMPDEST DUP1 MLOAD ISZERO PUSH2 0x1624 JUMPI DUP1 MLOAD DUP1 DUP3 PUSH1 0x20 ADD REVERT JUMPDEST PUSH1 0x40 MLOAD PUSH32 0x1425EA4200000000000000000000000000000000000000000000000000000000 DUP2 MSTORE PUSH1 0x4 ADD PUSH1 0x40 MLOAD DUP1 SWAP2 SUB SWAP1 REVERT JUMPDEST DUP1 CALLDATALOAD PUSH1 0x1 PUSH1 0x1 PUSH1 0xA0 SHL SUB DUP2 AND DUP2 EQ PUSH2 0x166C JUMPI PUSH0 DUP1 REVERT JUMPDEST SWAP2 SWAP1 POP JUMP JUMPDEST PUSH0 PUSH1 0x20 DUP3 DUP5 SUB SLT ISZERO PUSH2 0x1681 JUMPI PUSH0 DUP1 REVERT JUMPDEST PUSH2 0x160D DUP3 PUSH2 0x1656 JUMP JUMPDEST PUSH32 0x4E487B7100000000000000000000000000000000000000000000000000000000 PUSH0 MSTORE PUSH1 0x41 PUSH1 0x4 MSTORE PUSH1 0x24 PUSH0 REVERT JUMPDEST PUSH0 DUP1 PUSH1 0x40 DUP4 DUP6 SUB SLT ISZERO PUSH2 0x16C8 JUMPI PUSH0 DUP1 REVERT JUMPDEST PUSH2 0x16D1 DUP4 PUSH2 0x1656 JUMP JUMPDEST SWAP2 POP PUSH1 0x20 DUP4 ADD CALLDATALOAD PUSH8 0xFFFFFFFFFFFFFFFF DUP1 DUP3 GT ISZERO PUSH2 0x16ED JUMPI PUSH0 DUP1 REVERT JUMPDEST DUP2 DUP6 ADD SWAP2 POP DUP6 PUSH1 0x1F DUP4 ADD SLT PUSH2 0x1700 JUMPI PUSH0 DUP1 REVERT JUMPDEST DUP2 CALLDATALOAD DUP2 DUP2 GT ISZERO PUSH2 0x1712 JUMPI PUSH2 0x1712 PUSH2 0x168A JUMP JUMPDEST PUSH1 0x40 MLOAD PUSH1 0x1F DUP3 ADD PUSH32 0xFFFFFFFFFFFFFFFFFFFFFFFFFFFFFFFFFFFFFFFFFFFFFFFFFFFFFFFFFFFFFFE0 SWAP1 DUP2 AND PUSH1 0x3F ADD AND DUP2 ADD SWAP1 DUP4 DUP3 GT DUP2 DUP4 LT OR ISZERO PUSH2 0x1758 JUMPI PUSH2 0x1758 PUSH2 0x168A JUMP JUMPDEST DUP2 PUSH1 0x40 MSTORE DUP3 DUP2 MSTORE DUP9 PUSH1 0x20 DUP5 DUP8 ADD ADD GT ISZERO PUSH2 0x1770 JUMPI PUSH0 DUP1 REVERT JUMPDEST DUP3 PUSH1 0x20 DUP7 ADD PUSH1 0x20 DUP4 ADD CALLDATACOPY PUSH0 PUSH1 0x20 DUP5 DUP4 ADD ADD MSTORE DUP1 SWAP6 POP POP POP POP POP POP SWAP3 POP SWAP3 SWAP1 POP JUMP JUMPDEST PUSH0 PUSH1 0x20 DUP3 DUP5 SUB SLT ISZERO PUSH2 0x17A1 JUMPI PUSH0 DUP1 REVERT JUMPDEST POP CALLDATALOAD SWAP2 SWAP1 POP JUMP JUMPDEST PUSH1 0x20 DUP2 MSTORE PUSH0 DUP3 MLOAD DUP1 PUSH1 0x20 DUP5 ADD MSTORE DUP1 PUSH1 0x20 DUP6 ADD PUSH1 0x40 DUP6 ADD MCOPY PUSH0 PUSH1 0x40 DUP3 DUP6 ADD ADD MSTORE PUSH1 0x40 PUSH32 0xFFFFFFFFFFFFFFFFFFFFFFFFFFFFFFFFFFFFFFFFFFFFFFFFFFFFFFFFFFFFFFE0 PUSH1 0x1F DUP4 ADD AND DUP5 ADD ADD SWAP2 POP POP SWAP3 SWAP2 POP POP JUMP JUMPDEST PUSH0 PUSH1 0x20 DUP3 DUP5 SUB SLT ISZERO PUSH2 0x180B JUMPI PUSH0 DUP1 REVERT JUMPDEST POP MLOAD SWAP2 SWAP1 POP JUMP JUMPDEST PUSH0 DUP3 MLOAD DUP1 PUSH1 0x20 DUP6 ADD DUP5 MCOPY PUSH0 SWAP3 ADD SWAP2 DUP3 MSTORE POP SWAP2 SWAP1 POP JUMP INVALID LOG2 PUSH5 0x6970667358 0x22 SLT KECCAK256 0xE3 0xDB BLOBBASEFEE BLOBBASEFEE ADDMOD PUSH23 0xBA2635B75E36BA27CD9624CA82D0A6CE98368CAB4C6B12 PUSH31 0xD1E264736F6C63430008190033000000000000000000000000000000000000 "},"gasEstimates":{"creation":{"codeDepositCost":"1247600","executionCost":"infinite","totalCost":"infinite"},"external":{"UPGRADE_INTERFACE_VERSION()":"infinite","USDC()":"2438","WNATIVE()":"2392","_1inchSpotAgg()":"2437","_BPS_BASE()":"2363","_BPS_FEE()":"2362","_MAX_BPS_FEE()":"2429","baluniAgentFactory()":"2439","baluniOracle()":"2415","baluniPoolFactory()":"2438","baluniPoolPeriphery()":"2393","baluniRebalancer()":"2436","baluniRegistry()":"2436","baluniRouter()":"2394","baluniSwapper()":"2392","get1inchSpotAgg()":"2431","getBPS_BASE()":"2425","getBPS_FEE()":"2382","getBaluniAgentFactory()":"2451","getBaluniOracle()":"2409","getBaluniPoolFactory()":"2453","getBaluniPoolPeriphery()":"2388","getBaluniRebalancer()":"2386","getBaluniRegistry()":"2430","getBaluniRouter()":"2400","getBaluniSwapper()":"2452","getMAX_BPS_FEE()":"2425","getStaticOracle()":"2431","getTreasury()":"2410","getUSDC()":"2410","getUniswapFactory()":"2431","getUniswapRouter()":"2388","getWNATIVE()":"2453","initialize()":"infinite","owner()":"2409","proxiableUUID()":"infinite","renounceOwnership()":"infinite","set1inchSpotAgg(address)":"26821","setBPS_FEE(uint256)":"24609","setBaluniAgentFactory(address)":"26820","setBaluniOracle(address)":"26864","setBaluniPoolFactory(address)":"26865","setBaluniPoolPeriphery(address)":"26867","setBaluniRebalancer(address)":"26824","setBaluniRegistry(address)":"26866","setBaluniRouter(address)":"26822","setBaluniSwapper(address)":"26843","setStaticOracle(address)":"26887","setTreasury(address)":"26887","setUSDC(address)":"26843","setUniswapFactory(address)":"26842","setUniswapRouter(address)":"26866","setWNATIVE(address)":"26887","staticOracle()":"2393","transferOwnership(address)":"28441","treasury()":"2415","uniswapFactory()":"2392","uniswapRouter()":"2415","upgradeToAndCall(address,bytes)":"infinite"},"internal":{"_authorizeUpgrade(address)":"infinite"}},"methodIdentifiers":{"UPGRADE_INTERFACE_VERSION()":"ad3cb1cc","USDC()":"89a30271","WNATIVE()":"b381cf40","_1inchSpotAgg()":"782dd902","_BPS_BASE()":"85377188","_BPS_FEE()":"b9f5e617","_MAX_BPS_FEE()":"34decfc9","baluniAgentFactory()":"1292f02e","baluniOracle()":"468a7071","baluniPoolFactory()":"219ce339","baluniPoolPeriphery()":"58a67233","baluniRebalancer()":"b691a419","baluniRegistry()":"e528ca12","baluniRouter()":"39b65140","baluniSwapper()":"7dfb7ea1","get1inchSpotAgg()":"8e1c3a8a","getBPS_BASE()":"4f4608a2","getBPS_FEE()":"85462d6f","getBaluniAgentFactory()":"f5d2d998","getBaluniOracle()":"bb3ba04c","getBaluniPoolFactory()":"7c6fd308","getBaluniPoolPeriphery()":"1acb6141","getBaluniRebalancer()":"cff49d68","getBaluniRegistry()":"c9aba8ae","getBaluniRouter()":"04cc7325","getBaluniSwapper()":"82755ebb","getMAX_BPS_FEE()":"9380fb6f","getStaticOracle()":"a5d2236f","getTreasury()":"3b19e84a","getUSDC()":"1bf01e9b","getUniswapFactory()":"3e6dfa36","getUniswapRouter()":"524900b5","getWNATIVE()":"6c9c0078","initialize()":"8129fc1c","owner()":"8da5cb5b","proxiableUUID()":"52d1902d","renounceOwnership()":"715018a6","set1inchSpotAgg(address)":"c08f786b","setBPS_FEE(uint256)":"9e6453f8","setBaluniAgentFactory(address)":"f1dccde7","setBaluniOracle(address)":"f5b84f64","setBaluniPoolFactory(address)":"8267c2c8","setBaluniPoolPeriphery(address)":"588c5b70","setBaluniRebalancer(address)":"0241bffa","setBaluniRegistry(address)":"6c43274c","setBaluniRouter(address)":"400fb668","setBaluniSwapper(address)":"c3f5df5c","setStaticOracle(address)":"cc01e9a6","setTreasury(address)":"f0f44260","setUSDC(address)":"b3e089a2","setUniswapFactory(address)":"e04b677f","setUniswapRouter(address)":"bea9849e","setWNATIVE(address)":"b6fe9cc7","staticOracle()":"9454705f","transferOwnership(address)":"f2fde38b","treasury()":"61d027b3","uniswapFactory()":"8bdb2afa","uniswapRouter()":"735de9f7","upgradeToAndCall(address,bytes)":"4f1ef286"}},"storageLayout":{"storage":[{"astId":1378,"contract":"contracts/BaluniV1Registry.sol:BaluniV1Registry","label":"uniswapFactory","offset":0,"slot":"0","type":"t_address"},{"astId":1380,"contract":"contracts/BaluniV1Registry.sol:BaluniV1Registry","label":"uniswapRouter","offset":0,"slot":"1","type":"t_address"},{"astId":1382,"contract":"contracts/BaluniV1Registry.sol:BaluniV1Registry","label":"baluniAgentFactory","offset":0,"slot":"2","type":"t_address"},{"astId":1384,"contract":"contracts/BaluniV1Registry.sol:BaluniV1Registry","label":"baluniPoolPeriphery","offset":0,"slot":"3","type":"t_address"},{"astId":1386,"contract":"contracts/BaluniV1Registry.sol:BaluniV1Registry","label":"baluniPoolFactory","offset":0,"slot":"4","type":"t_address"},{"astId":1388,"contract":"contracts/BaluniV1Registry.sol:BaluniV1Registry","label":"baluniRebalancer","offset":0,"slot":"5","type":"t_address"},{"astId":1390,"contract":"contracts/BaluniV1Registry.sol:BaluniV1Registry","label":"baluniRouter","offset":0,"slot":"6","type":"t_address"},{"astId":1392,"contract":"contracts/BaluniV1Registry.sol:BaluniV1Registry","label":"baluniRegistry","offset":0,"slot":"7","type":"t_address"},{"astId":1394,"contract":"contracts/BaluniV1Registry.sol:BaluniV1Registry","label":"baluniOracle","offset":0,"slot":"8","type":"t_address"},{"astId":1396,"contract":"contracts/BaluniV1Registry.sol:BaluniV1Registry","label":"baluniSwapper","offset":0,"slot":"9","type":"t_address"},{"astId":1398,"contract":"contracts/BaluniV1Registry.sol:BaluniV1Registry","label":"treasury","offset":0,"slot":"10","type":"t_address"},{"astId":1400,"contract":"contracts/BaluniV1Registry.sol:BaluniV1Registry","label":"WNATIVE","offset":0,"slot":"11","type":"t_address"},{"astId":1402,"contract":"contracts/BaluniV1Registry.sol:BaluniV1Registry","label":"USDC","offset":0,"slot":"12","type":"t_address"},{"astId":1404,"contract":"contracts/BaluniV1Registry.sol:BaluniV1Registry","label":"_1inchSpotAgg","offset":0,"slot":"13","type":"t_address"},{"astId":1406,"contract":"contracts/BaluniV1Registry.sol:BaluniV1Registry","label":"_MAX_BPS_FEE","offset":0,"slot":"14","type":"t_uint256"},{"astId":1408,"contract":"contracts/BaluniV1Registry.sol:BaluniV1Registry","label":"_BPS_FEE","offset":0,"slot":"15","type":"t_uint256"},{"astId":1410,"contract":"contracts/BaluniV1Registry.sol:BaluniV1Registry","label":"_BPS_BASE","offset":0,"slot":"16","type":"t_uint256"},{"astId":1795,"contract":"contracts/BaluniV1Registry.sol:BaluniV1Registry","label":"staticOracle","offset":0,"slot":"17","type":"t_address"}],"types":{"t_address":{"encoding":"inplace","label":"address","numberOfBytes":"20"},"t_uint256":{"encoding":"inplace","label":"uint256","numberOfBytes":"32"}}},"userdoc":{"kind":"user","methods":{},"version":1}}}}