{"contracts/managers/BaluniV1HyperPoolZap.sol":{"BaluniV1PoolZap":{"abi":[{"inputs":[{"internalType":"address","name":"target","type":"address"}],"name":"AddressEmptyCode","type":"error"},{"inputs":[{"internalType":"address","name":"implementation","type":"address"}],"name":"ERC1967InvalidImplementation","type":"error"},{"inputs":[],"name":"ERC1967NonPayable","type":"error"},{"inputs":[],"name":"FailedInnerCall","type":"error"},{"inputs":[],"name":"InvalidInitialization","type":"error"},{"inputs":[],"name":"NotInitializing","type":"error"},{"inputs":[{"internalType":"address","name":"owner","type":"address"}],"name":"OwnableInvalidOwner","type":"error"},{"inputs":[{"internalType":"address","name":"account","type":"address"}],"name":"OwnableUnauthorizedAccount","type":"error"},{"inputs":[],"name":"ReentrancyGuardReentrantCall","type":"error"},{"inputs":[],"name":"UUPSUnauthorizedCallContext","type":"error"},{"inputs":[{"internalType":"bytes32","name":"slot","type":"bytes32"}],"name":"UUPSUnsupportedProxiableUUID","type":"error"},{"anonymous":false,"inputs":[{"indexed":false,"internalType":"uint64","name":"version","type":"uint64"}],"name":"Initialized","type":"event"},{"anonymous":false,"inputs":[{"indexed":true,"internalType":"address","name":"previousOwner","type":"address"},{"indexed":true,"internalType":"address","name":"newOwner","type":"address"}],"name":"OwnershipTransferred","type":"event"},{"anonymous":false,"inputs":[{"indexed":true,"internalType":"address","name":"implementation","type":"address"}],"name":"Upgraded","type":"event"},{"inputs":[],"name":"UPGRADE_INTERFACE_VERSION","outputs":[{"internalType":"string","name":"","type":"string"}],"stateMutability":"view","type":"function"},{"inputs":[],"name":"WETH9","outputs":[{"internalType":"address","name":"","type":"address"}],"stateMutability":"view","type":"function"},{"inputs":[],"name":"baluniHyperUniProxy","outputs":[{"internalType":"contract IBaluniV1HyperUniProxy","name":"","type":"address"}],"stateMutability":"view","type":"function"},{"inputs":[],"name":"baluniSwapper","outputs":[{"internalType":"contract IBaluniV1Swapper","name":"","type":"address"}],"stateMutability":"view","type":"function"},{"inputs":[{"internalType":"address","name":"_registry","type":"address"}],"name":"changeRegistry","outputs":[],"stateMutability":"nonpayable","type":"function"},{"inputs":[{"internalType":"address","name":"_swapper","type":"address"}],"name":"changeSwapper","outputs":[],"stateMutability":"nonpayable","type":"function"},{"inputs":[{"internalType":"address","name":"_uniProxy","type":"address"}],"name":"changeUniProxy","outputs":[],"stateMutability":"nonpayable","type":"function"},{"inputs":[{"internalType":"address","name":"_registry","type":"address"},{"internalType":"address","name":"_uniProxy","type":"address"}],"name":"initialize","outputs":[],"stateMutability":"nonpayable","type":"function"},{"inputs":[],"name":"owner","outputs":[{"internalType":"address","name":"","type":"address"}],"stateMutability":"view","type":"function"},{"inputs":[],"name":"proxiableUUID","outputs":[{"internalType":"bytes32","name":"","type":"bytes32"}],"stateMutability":"view","type":"function"},{"inputs":[],"name":"registry","outputs":[{"internalType":"contract IBaluniV1Registry","name":"","type":"address"}],"stateMutability":"view","type":"function"},{"inputs":[],"name":"renounceOwnership","outputs":[],"stateMutability":"nonpayable","type":"function"},{"inputs":[{"internalType":"address","name":"newOwner","type":"address"}],"name":"transferOwnership","outputs":[],"stateMutability":"nonpayable","type":"function"},{"inputs":[{"internalType":"address","name":"newImplementation","type":"address"},{"internalType":"bytes","name":"data","type":"bytes"}],"name":"upgradeToAndCall","outputs":[],"stateMutability":"payable","type":"function"},{"inputs":[{"internalType":"address","name":"hypervisor","type":"address"},{"internalType":"address","name":"tokenIn","type":"address"},{"internalType":"uint256","name":"amountIn","type":"uint256"},{"internalType":"uint256","name":"minAmountsOut","type":"uint256"},{"internalType":"address","name":"receiver","type":"address"}],"name":"zapIn","outputs":[],"stateMutability":"payable","type":"function"},{"inputs":[{"internalType":"address","name":"hypervisor","type":"address"},{"internalType":"uint256","name":"share","type":"uint256"},{"internalType":"address","name":"tokenOut","type":"address"},{"internalType":"uint256","name":"minAmountOut","type":"uint256"},{"internalType":"address","name":"receiver","type":"address"}],"name":"zapOut","outputs":[],"stateMutability":"nonpayable","type":"function"},{"stateMutability":"payable","type":"receive"}],"devdoc":{"errors":{"AddressEmptyCode(address)":[{"details":"There's no code at `target` (it is not a contract)."}],"ERC1967InvalidImplementation(address)":[{"details":"The `implementation` of the proxy is invalid."}],"ERC1967NonPayable()":[{"details":"An upgrade function sees `msg.value > 0` that may be lost."}],"FailedInnerCall()":[{"details":"A call to an address target failed. The target may have reverted."}],"InvalidInitialization()":[{"details":"The contract is already initialized."}],"NotInitializing()":[{"details":"The contract is not initializing."}],"OwnableInvalidOwner(address)":[{"details":"The owner is not a valid owner account. (eg. `address(0)`)"}],"OwnableUnauthorizedAccount(address)":[{"details":"The caller account is not authorized to perform an operation."}],"ReentrancyGuardReentrantCall()":[{"details":"Unauthorized reentrant call."}],"UUPSUnauthorizedCallContext()":[{"details":"The call is from an unauthorized context."}],"UUPSUnsupportedProxiableUUID(bytes32)":[{"details":"The storage `slot` is unsupported as a UUID."}]},"events":{"Initialized(uint64)":{"details":"Triggered when the contract has been initialized or reinitialized."},"Upgraded(address)":{"details":"Emitted when the implementation is upgraded."}},"kind":"dev","methods":{"owner()":{"details":"Returns the address of the current owner."},"proxiableUUID()":{"details":"Implementation of the ERC1822 {proxiableUUID} function. This returns the storage slot used by the implementation. It is used to validate the implementation's compatibility when performing an upgrade. IMPORTANT: A proxy pointing at a proxiable contract should not be considered proxiable itself, because this risks bricking a proxy that upgrades to it, by delegating to itself until out of gas. Thus it is critical that this function revert if invoked through a proxy. This is guaranteed by the `notDelegated` modifier."},"renounceOwnership()":{"details":"Leaves the contract without owner. It will not be possible to call `onlyOwner` functions. Can only be called by the current owner. NOTE: Renouncing ownership will leave the contract without an owner, thereby disabling any functionality that is only available to the owner."},"transferOwnership(address)":{"details":"Transfers ownership of the contract to a new account (`newOwner`). Can only be called by the current owner."},"upgradeToAndCall(address,bytes)":{"custom:oz-upgrades-unsafe-allow-reachable":"delegatecall","details":"Upgrade the implementation of the proxy to `newImplementation`, and subsequently execute the function call encoded in `data`. Calls {_authorizeUpgrade}. Emits an {Upgraded} event."}},"version":1},"evm":{"bytecode":{"linkReferences":{},"object":"60a08060405234602957306080526122b9908161002e82396080518181816112f601526113f90152f35b5f80fdfe6080604052600436101561001a575b3615610018575f80fd5b005b5f803560e01c806315554c5514611a415780633ebb287c146119dd57806345b1cb8014611979578063485cc9551461168f5780634aa4a4fc1461165c5780634f1ef2861461137057806352d1902d146112cf578063715018a6146112315780637b103999146111ff5780637dfb7ea1146111cc5780638af90292146111995780638da5cb5b14611147578063ad3cb1cc146110a3578063b1aa8cd114610650578063b487c54a146101045763f2fde38b146100d5575061000e565b34610101576020600319360112610101576100fe6100f1611aa3565b6100f9611de8565b611d27565b80f35b80fd5b5060a060031936011261010157610119611aa3565b610121611ac6565b60443592606435610130611ae9565b93610139611e58565b839261012c420142116106235773ffffffffffffffffffffffffffffffffffffffff90818316604051957f0dfe16810000000000000000000000000000000000000000000000000000000087526020908188600481865afa9788156104e6578498610604575b506040517fd21220a70000000000000000000000000000000000000000000000000000000081528281600481875afa9081156105cc5785916105d7575b50604051986101ea8a611b20565b60028a52604036858c0137866101ff8b611c08565b911690528561020d8a611c42565b91169052846040519961021f8b611b20565b60028b52604036858d0137168b816105535791505034036104f5578360035416803b156104f157838b916004604051809481937fd0e30db00000000000000000000000000000000000000000000000000000000083525af180156104e6579084916104ce575b50508360035416945b835b885181101561032657808989888f948e6001968d846102af8589611c52565b5116858216145f146102de575093505050506102cc915190611cf0565b6102d6828d611c52565b525b01610290565b8661030161030993610319976102f7886103219c611c52565b5116925190611cf0565b903092611eb2565b6103138383611c52565b52611c52565b511015611c8b565b6102d8565b508885898c87805b8351811015610401578088866103476103af9488611c52565b5116610353838a611c52565b51908a866040518097819582947f095ea7b3000000000000000000000000000000000000000000000000000000008452600484016020909392919373ffffffffffffffffffffffffffffffffffffffff60408201951681520152565b03925af19182156103f6576001926103c9575b500161032e565b6103e8908a3d8c116103ef575b6103e08183611b3c565b810190611c66565b508b6103c2565b503d6103d6565b6040513d85823e3d90fd5b508682818660a489868e84600254169061042461041d85611c08565b5194611c42565b519560405198899788967fe6d7b8760000000000000000000000000000000000000000000000000000000088526004880152602487015216604485015230606485015260848401525af180156103f6576104a1575b8260017f9b779b17422d0df92223018b32b4d1fa46e071723d6817e2486d003becc55f005580f35b813d83116104c7575b6104b48183611b3c565b810103126104c3578180610479565b5f80fd5b503d6104aa565b6104d790611b0c565b6104e257825f610285565b8280fd5b6040513d86823e3d90fd5b8380fd5b606490604051907f08c379a00000000000000000000000000000000000000000000000000000000082526004820152601460248201527f496e636f72726563742045544820616d6f756e740000000000000000000000006044820152fd5b6040517f23b872dd00000000000000000000000000000000000000000000000000000000815233600482015230602482015260448101919091529196919083908290606490829089905af180156105cc576105af575b5061028e565b6105c590833d85116103ef576103e08183611b3c565b505f6105a9565b6040513d87823e3d90fd5b6105f79150833d85116105fd575b6105ef8183611b3c565b810190611bb7565b5f6101dc565b503d6105e5565b61061c919850823d84116105fd576105ef8183611b3c565b965f61019f565b807f4e487b7100000000000000000000000000000000000000000000000000000000602492526011600452fd5b50346104c35760a06003193601126104c35761066a611aa3565b73ffffffffffffffffffffffffffffffffffffffff60443516604435036104c357610693611ae9565b9061069c611e58565b61012c4201421161107657604051927f0dfe168100000000000000000000000000000000000000000000000000000000845260208460048173ffffffffffffffffffffffffffffffffffffffff86165afa9384156108cb575f94611055575b506040517fd21220a700000000000000000000000000000000000000000000000000000000815260208160048173ffffffffffffffffffffffffffffffffffffffff87165afa9081156108cb575f91611036575b506040519461075d86611b20565b60028652604036602088013773ffffffffffffffffffffffffffffffffffffffff61078787611c08565b9116905273ffffffffffffffffffffffffffffffffffffffff6107a986611c42565b91169052604051916107ba83611b20565b6002835260403660208501378451927fffffffffffffffffffffffffffffffffffffffffffffffffffffffffffffffe061080c6107f686611bf0565b956108046040519788611b3c565b808752611bf0565b013660208601375f5b86518110156108d65780602073ffffffffffffffffffffffffffffffffffffffff6108426024948b611c52565b5116604051938480927f70a082310000000000000000000000000000000000000000000000000000000082523060048301525afa80156108cb575f90610898575b600192506108918288611c52565b5201610815565b506020823d6020116108c3575b816108b260209383611b3c565b810103126104c35760019151610883565b3d91506108a5565b6040513d5f823e3d90fd5b50838686604051947f70a0823100000000000000000000000000000000000000000000000000000000865230600487015260208660248173ffffffffffffffffffffffffffffffffffffffff604435165afa9586156108cb575f96611002575b506040517f23b872dd000000000000000000000000000000000000000000000000000000008152336004820152306024808301919091523560448201526020816064815f73ffffffffffffffffffffffffffffffffffffffff87165af180156108cb57610fe3575b506040517f095ea7b300000000000000000000000000000000000000000000000000000000815273ffffffffffffffffffffffffffffffffffffffff821660048201526024803590820152602081806044810103815f73ffffffffffffffffffffffffffffffffffffffff87165af180156108cb57610fc4575b50604051906080820182811067ffffffffffffffff821117610f975760405260803683375f82525f60208301525f60408301525f606083015260405180927fa85598720000000000000000000000000000000000000000000000000000000082526024356004830152336024830152306044830152606482015f905b60048210610f7d5750505060e4815f73ffffffffffffffffffffffffffffffffffffffff604095165af180156108cb57610f52575b505f95865b8351881015610cee5773ffffffffffffffffffffffffffffffffffffffff6044351673ffffffffffffffffffffffffffffffffffffffff610b0f8a87611c52565b511603610bef576024602073ffffffffffffffffffffffffffffffffffffffff610b398b88611c52565b5116604051928380927f70a082310000000000000000000000000000000000000000000000000000000082523060048301525afa9081156108cb575f91610bbc575b50600191610b97610bb392610b908c8a611c52565b5190611c7e565b610ba18b8a611c52565b52610bac8a89611c52565b5190611be3565b975b0196610ace565b90506020813d602011610be7575b81610bd760209383611b3c565b810103126104c357516001610b7b565b3d9150610bca565b6024602073ffffffffffffffffffffffffffffffffffffffff610c128b88611c52565b5116604051928380927f70a082310000000000000000000000000000000000000000000000000000000082523060048301525afa9081156108cb575f91610cbb575b50600191610c69610cb592610b908c8a611c52565b610c738b8a611c52565b52610caf73ffffffffffffffffffffffffffffffffffffffff610c968c89611c52565b51163390610ca48d8c611c52565b519060443590611eb2565b90611be3565b97610bb5565b90506020813d602011610ce6575b81610cd660209383611b3c565b810103126104c357516001610c54565b3d9150610cc9565b506040517f70a082310000000000000000000000000000000000000000000000000000000081523060048201528660208260248160443573ffffffffffffffffffffffffffffffffffffffff165afa80156108cb575f90610f1e575b610d549250611c7e565b91610d63606435841015611c8b565b73ffffffffffffffffffffffffffffffffffffffff6003541673ffffffffffffffffffffffffffffffffffffffff60443516145f14610e7c5773ffffffffffffffffffffffffffffffffffffffff60035416803b156104c3575f80916024604051809481937f2e1a7d4d0000000000000000000000000000000000000000000000000000000083528960048401525af180156108cb57610e69575b5081808094819382908215610e5f575b73ffffffffffffffffffffffffffffffffffffffff1690f115610e53575b60017f9b779b17422d0df92223018b32b4d1fa46e071723d6817e2486d003becc55f005580f35b604051903d90823e3d90fd5b6108fc9150610e0e565b610e74919250611b0c565b5f9083610dfe565b6040517fa9059cbb00000000000000000000000000000000000000000000000000000000815273ffffffffffffffffffffffffffffffffffffffff9091166004820152602481019290925290602081806044810103815f73ffffffffffffffffffffffffffffffffffffffff604435165af180156108cb57610eff575b50610e2c565b610f179060203d6020116103ef576103e08183611b3c565b5081610ef9565b506020823d602011610f4a575b81610f3860209383611b3c565b810103126104c357610d549151610d4a565b3d9150610f2b565b604090813d8311610f76575b610f688183611b3c565b810103126104c35786610ac9565b503d610f5e565b829350602080916001939451815201930191018492610a94565b7f4e487b71000000000000000000000000000000000000000000000000000000005f52604160045260245ffd5b610fdc9060203d6020116103ef576103e08183611b3c565b5087610a18565b610ffb9060203d6020116103ef576103e08183611b3c565b508761099e565b9095506020813d60201161102e575b8161101e60209383611b3c565b810103126104c357519487610936565b3d9150611011565b61104f915060203d6020116105fd576105ef8183611b3c565b5f61074f565b61106f91945060203d6020116105fd576105ef8183611b3c565b925f6106fb565b7f4e487b71000000000000000000000000000000000000000000000000000000005f52601160045260245ffd5b346104c3575f6003193601126104c3576040516040810181811067ffffffffffffffff821117610f975760405260058152604060208201917f352e302e3000000000000000000000000000000000000000000000000000000083527fffffffffffffffffffffffffffffffffffffffffffffffffffffffffffffffe0601f8351948593602085525180918160208701528686015e5f85828601015201168101030190f35b346104c3575f6003193601126104c357602073ffffffffffffffffffffffffffffffffffffffff7f9016d09d72d40fdae2fd8ceac6b6234c7706214fd39c1cd1e609a0528c1993005416604051908152f35b346104c3575f6003193601126104c357602073ffffffffffffffffffffffffffffffffffffffff60025416604051908152f35b346104c3575f6003193601126104c357602073ffffffffffffffffffffffffffffffffffffffff60015416604051908152f35b346104c3575f6003193601126104c357602073ffffffffffffffffffffffffffffffffffffffff5f5416604051908152f35b346104c3575f6003193601126104c357611249611de8565b5f73ffffffffffffffffffffffffffffffffffffffff7f9016d09d72d40fdae2fd8ceac6b6234c7706214fd39c1cd1e609a0528c1993008054907fffffffffffffffffffffffff000000000000000000000000000000000000000082169055167f8be0079c531659141344cd1fd0a4f28419497f9722a3daafe3b4186f6b6457e08280a3005b346104c3575f6003193601126104c35773ffffffffffffffffffffffffffffffffffffffff7f00000000000000000000000000000000000000000000000000000000000000001630036113465760206040517f360894a13ba1a3210667c828492db98dca3e2076cc3735a920a3ca505d382bbc8152f35b60046040517fe07c8dba000000000000000000000000000000000000000000000000000000008152fd5b60406003193601126104c357611384611aa3565b602490813567ffffffffffffffff81116104c357366023820112156104c35780600401356113b181611b7d565b926113bf6040519485611b3c565b81845260209182850193368783830101116104c357815f928886930187378601015273ffffffffffffffffffffffffffffffffffffffff807f00000000000000000000000000000000000000000000000000000000000000001680301490811561162e575b5061134657611431611de8565b8116936040517f52d1902d0000000000000000000000000000000000000000000000000000000081528381600481895afa5f91816115ff575b5061149f578686604051907f4c9c8ce30000000000000000000000000000000000000000000000000000000082526004820152fd5b8590877f360894a13ba1a3210667c828492db98dca3e2076cc3735a920a3ca505d382bbc918281036115d15750843b156115a25750817fffffffffffffffffffffffff0000000000000000000000000000000000000000825416179055604051907fbc7cd75a20ee27fd9adebab32041f755214dbc6bffa90cc0225b39da2e5c2d3b5f80a281511561156e57505f6100189481925190845af4903d15611565573d61154981611b7d565b906115576040519283611b3c565b81525f81943d92013e6121e3565b606092506121e3565b93505050503461157a57005b807fb398979f0000000000000000000000000000000000000000000000000000000060049252fd5b82604051907f4c9c8ce30000000000000000000000000000000000000000000000000000000082526004820152fd5b604051907faa1d49a40000000000000000000000000000000000000000000000000000000082526004820152fd5b9091508481813d8311611627575b6116178183611b3c565b810103126104c35751908861146a565b503d61160d565b9050817f360894a13ba1a3210667c828492db98dca3e2076cc3735a920a3ca505d382bbc5416141587611424565b346104c3575f6003193601126104c357602073ffffffffffffffffffffffffffffffffffffffff60035416604051908152f35b346104c35760406003193601126104c3576116a8611aa3565b6116b0611ac6565b907ff0c57e16840df040f15088dc2f81fe391c3923bec73e23a9662efc9c229c6a009182549060ff8260401c16159067ffffffffffffffff831692831580611972575b60018095149081611968575b15908161195f575b506119355782847fffffffffffffffffffffffffffffffffffffffffffffffff00000000000000008316178755611900575b5061174261218a565b61174a61218a565b61175333611d27565b61175b61218a565b61176361218a565b827f9b779b17422d0df92223018b32b4d1fa46e071723d6817e2486d003becc55f005561178e61218a565b73ffffffffffffffffffffffffffffffffffffffff809416937fffffffffffffffffffffffff00000000000000000000000000000000000000009185835f5416175f556040517f82755ebb0000000000000000000000000000000000000000000000000000000081526020968782600481845afa80156108cb576004938580928b955f916118e3575b5016878a541617895516856002541617600255604051928380927f6c9c00780000000000000000000000000000000000000000000000000000000082525afa9081156108cb575f916118c6575b501690600354161760035561187557005b827fffffffffffffffffffffffffffffffffffffffffffffff00ffffffffffffffff7fc7f505b2f371ae2175ee4913f4499e1f2633a7b5936321eed1cdaeb6115181d29454169055604051908152a1005b6118dd9150863d88116105fd576105ef8183611b3c565b87611864565b6118fa9150863d88116105fd576105ef8183611b3c565b8d611817565b7fffffffffffffffffffffffffffffffffffffffffffffff000000000000000000166801000000000000000117855585611739565b60046040517ff92ee8a9000000000000000000000000000000000000000000000000000000008152fd5b90501587611707565b303b1591506116ff565b50826116f3565b346104c35760206003193601126104c35773ffffffffffffffffffffffffffffffffffffffff6119a7611aa3565b6119af611de8565b167fffffffffffffffffffffffff000000000000000000000000000000000000000060025416176002555f80f35b346104c35760206003193601126104c35773ffffffffffffffffffffffffffffffffffffffff611a0b611aa3565b611a13611de8565b167fffffffffffffffffffffffff000000000000000000000000000000000000000060015416176001555f80f35b346104c35760206003193601126104c35773ffffffffffffffffffffffffffffffffffffffff611a6f611aa3565b611a77611de8565b167fffffffffffffffffffffffff00000000000000000000000000000000000000005f5416175f555f80f35b6004359073ffffffffffffffffffffffffffffffffffffffff821682036104c357565b6024359073ffffffffffffffffffffffffffffffffffffffff821682036104c357565b6084359073ffffffffffffffffffffffffffffffffffffffff821682036104c357565b67ffffffffffffffff8111610f9757604052565b6060810190811067ffffffffffffffff821117610f9757604052565b90601f7fffffffffffffffffffffffffffffffffffffffffffffffffffffffffffffffe0910116810190811067ffffffffffffffff821117610f9757604052565b67ffffffffffffffff8111610f9757601f017fffffffffffffffffffffffffffffffffffffffffffffffffffffffffffffffe01660200190565b908160209103126104c3575173ffffffffffffffffffffffffffffffffffffffff811681036104c35790565b9190820180921161107657565b67ffffffffffffffff8111610f975760051b60200190565b805115611c155760200190565b7f4e487b71000000000000000000000000000000000000000000000000000000005f52603260045260245ffd5b805160011015611c155760400190565b8051821015611c155760209160051b010190565b908160209103126104c3575180151581036104c35790565b9190820391821161107657565b15611c9257565b60646040517f08c379a000000000000000000000000000000000000000000000000000000000815260206004820152601a60248201527f496e73756666696369656e74206f757470757420616d6f756e740000000000006044820152fd5b8115611cfa570490565b7f4e487b71000000000000000000000000000000000000000000000000000000005f52601260045260245ffd5b73ffffffffffffffffffffffffffffffffffffffff809116908115611db8577f9016d09d72d40fdae2fd8ceac6b6234c7706214fd39c1cd1e609a0528c199300805490837fffffffffffffffffffffffff00000000000000000000000000000000000000008316179055167f8be0079c531659141344cd1fd0a4f28419497f9722a3daafe3b4186f6b6457e05f80a3565b60246040517f1e4fbdf70000000000000000000000000000000000000000000000000000000081525f6004820152fd5b73ffffffffffffffffffffffffffffffffffffffff7f9016d09d72d40fdae2fd8ceac6b6234c7706214fd39c1cd1e609a0528c19930054163303611e2857565b60246040517f118cdaa7000000000000000000000000000000000000000000000000000000008152336004820152fd5b7f9b779b17422d0df92223018b32b4d1fa46e071723d6817e2486d003becc55f006002815414611e885760029055565b60046040517f3ee5aeb5000000000000000000000000000000000000000000000000000000008152fd5b91939273ffffffffffffffffffffffffffffffffffffffff90815f54169060409485519485937f6c9c007800000000000000000000000000000000000000000000000000000000855284600460209889935afa938415612180579085915f9561215f575b5081169116918183146121565760015487517f095ea7b300000000000000000000000000000000000000000000000000000000815290861673ffffffffffffffffffffffffffffffffffffffff166004820152602481018a905298868a6044815f885af1998a1561214c578798999a97969761212f575b505f868860848160015416958d5194859384927f2d6bc8ea0000000000000000000000000000000000000000000000000000000084528b60048501528a602485015288604485015216978860648401525af15f91816120fe575b506120f05750915f9160a494938860015416928b51998a9889977f5efaaebb00000000000000000000000000000000000000000000000000000000895260048901521660248701526044860152606485015260848401525af19081156120e6575f916120b9575b50915b821561205c57505090565b6064925051907f08c379a00000000000000000000000000000000000000000000000000000000082526004820152600b60248201527f53776170206661696c65640000000000000000000000000000000000000000006044820152fd5b90508181813d83116120df575b6120d08183611b3c565b810103126104c357515f61204e565b503d6120c6565b83513d5f823e3d90fd5b965050505050505091612051565b8881999293503d8311612128575b6121168183611b3c565b810103126104c357889651905f611fe7565b503d61210c565b61214590873d89116103ef576103e08183611b3c565b505f611f8d565b88513d5f823e3d90fd5b50505050505050565b8291955061217990883d8a116105fd576105ef8183611b3c565b9490611f16565b87513d5f823e3d90fd5b60ff7ff0c57e16840df040f15088dc2f81fe391c3923bec73e23a9662efc9c229c6a005460401c16156121b957565b60046040517fd7e6bcf8000000000000000000000000000000000000000000000000000000008152fd5b9061222257508051156121f857805190602001fd5b60046040517f1425ea42000000000000000000000000000000000000000000000000000000008152fd5b8151158061227a575b612233575090565b60249073ffffffffffffffffffffffffffffffffffffffff604051917f9996b315000000000000000000000000000000000000000000000000000000008352166004820152fd5b50803b1561222b56fea2646970667358221220ffde047f4c06c7f768bf5d19483e84ddff2d85608db17f69446e6e65f2ee9a9b64736f6c63430008190033","opcodes":"PUSH1 0xA0 DUP1 PUSH1 0x40 MSTORE CALLVALUE PUSH1 0x29 JUMPI ADDRESS PUSH1 0x80 MSTORE PUSH2 0x22B9 SWAP1 DUP2 PUSH2 0x2E DUP3 CODECOPY PUSH1 0x80 MLOAD DUP2 DUP2 DUP2 PUSH2 0x12F6 ADD MSTORE PUSH2 0x13F9 ADD MSTORE RETURN JUMPDEST PUSH0 DUP1 REVERT INVALID PUSH1 0x80 PUSH1 0x40 MSTORE PUSH1 0x4 CALLDATASIZE LT ISZERO PUSH2 0x1A JUMPI JUMPDEST CALLDATASIZE ISZERO PUSH2 0x18 JUMPI PUSH0 DUP1 REVERT JUMPDEST STOP JUMPDEST PUSH0 DUP1 CALLDATALOAD PUSH1 0xE0 SHR DUP1 PUSH4 0x15554C55 EQ PUSH2 0x1A41 JUMPI DUP1 PUSH4 0x3EBB287C EQ PUSH2 0x19DD JUMPI DUP1 PUSH4 0x45B1CB80 EQ PUSH2 0x1979 JUMPI DUP1 PUSH4 0x485CC955 EQ PUSH2 0x168F JUMPI DUP1 PUSH4 0x4AA4A4FC EQ PUSH2 0x165C JUMPI DUP1 PUSH4 0x4F1EF286 EQ PUSH2 0x1370 JUMPI DUP1 PUSH4 0x52D1902D EQ PUSH2 0x12CF JUMPI DUP1 PUSH4 0x715018A6 EQ PUSH2 0x1231 JUMPI DUP1 PUSH4 0x7B103999 EQ PUSH2 0x11FF JUMPI DUP1 PUSH4 0x7DFB7EA1 EQ PUSH2 0x11CC JUMPI DUP1 PUSH4 0x8AF90292 EQ PUSH2 0x1199 JUMPI DUP1 PUSH4 0x8DA5CB5B EQ PUSH2 0x1147 JUMPI DUP1 PUSH4 0xAD3CB1CC EQ PUSH2 0x10A3 JUMPI DUP1 PUSH4 0xB1AA8CD1 EQ PUSH2 0x650 JUMPI DUP1 PUSH4 0xB487C54A EQ PUSH2 0x104 JUMPI PUSH4 0xF2FDE38B EQ PUSH2 0xD5 JUMPI POP PUSH2 0xE JUMP JUMPDEST CALLVALUE PUSH2 0x101 JUMPI PUSH1 0x20 PUSH1 0x3 NOT CALLDATASIZE ADD SLT PUSH2 0x101 JUMPI PUSH2 0xFE PUSH2 0xF1 PUSH2 0x1AA3 JUMP JUMPDEST PUSH2 0xF9 PUSH2 0x1DE8 JUMP JUMPDEST PUSH2 0x1D27 JUMP JUMPDEST DUP1 RETURN JUMPDEST DUP1 REVERT JUMPDEST POP PUSH1 0xA0 PUSH1 0x3 NOT CALLDATASIZE ADD SLT PUSH2 0x101 JUMPI PUSH2 0x119 PUSH2 0x1AA3 JUMP JUMPDEST PUSH2 0x121 PUSH2 0x1AC6 JUMP JUMPDEST PUSH1 0x44 CALLDATALOAD SWAP3 PUSH1 0x64 CALLDATALOAD PUSH2 0x130 PUSH2 0x1AE9 JUMP JUMPDEST SWAP4 PUSH2 0x139 PUSH2 0x1E58 JUMP JUMPDEST DUP4 SWAP3 PUSH2 0x12C TIMESTAMP ADD TIMESTAMP GT PUSH2 0x623 JUMPI PUSH20 0xFFFFFFFFFFFFFFFFFFFFFFFFFFFFFFFFFFFFFFFF SWAP1 DUP2 DUP4 AND PUSH1 0x40 MLOAD SWAP6 PUSH32 0xDFE168100000000000000000000000000000000000000000000000000000000 DUP8 MSTORE PUSH1 0x20 SWAP1 DUP2 DUP9 PUSH1 0x4 DUP2 DUP7 GAS STATICCALL SWAP8 DUP9 ISZERO PUSH2 0x4E6 JUMPI DUP5 SWAP9 PUSH2 0x604 JUMPI JUMPDEST POP PUSH1 0x40 MLOAD PUSH32 0xD21220A700000000000000000000000000000000000000000000000000000000 DUP2 MSTORE DUP3 DUP2 PUSH1 0x4 DUP2 DUP8 GAS STATICCALL SWAP1 DUP2 ISZERO PUSH2 0x5CC JUMPI DUP6 SWAP2 PUSH2 0x5D7 JUMPI JUMPDEST POP PUSH1 0x40 MLOAD SWAP9 PUSH2 0x1EA DUP11 PUSH2 0x1B20 JUMP JUMPDEST PUSH1 0x2 DUP11 MSTORE PUSH1 0x40 CALLDATASIZE DUP6 DUP13 ADD CALLDATACOPY DUP7 PUSH2 0x1FF DUP12 PUSH2 0x1C08 JUMP JUMPDEST SWAP2 AND SWAP1 MSTORE DUP6 PUSH2 0x20D DUP11 PUSH2 0x1C42 JUMP JUMPDEST SWAP2 AND SWAP1 MSTORE DUP5 PUSH1 0x40 MLOAD SWAP10 PUSH2 0x21F DUP12 PUSH2 0x1B20 JUMP JUMPDEST PUSH1 0x2 DUP12 MSTORE PUSH1 0x40 CALLDATASIZE DUP6 DUP14 ADD CALLDATACOPY AND DUP12 DUP2 PUSH2 0x553 JUMPI SWAP2 POP POP CALLVALUE SUB PUSH2 0x4F5 JUMPI DUP4 PUSH1 0x3 SLOAD AND DUP1 EXTCODESIZE ISZERO PUSH2 0x4F1 JUMPI DUP4 DUP12 SWAP2 PUSH1 0x4 PUSH1 0x40 MLOAD DUP1 SWAP5 DUP2 SWAP4 PUSH32 0xD0E30DB000000000000000000000000000000000000000000000000000000000 DUP4 MSTORE GAS CALL DUP1 ISZERO PUSH2 0x4E6 JUMPI SWAP1 DUP5 SWAP2 PUSH2 0x4CE JUMPI JUMPDEST POP POP DUP4 PUSH1 0x3 SLOAD AND SWAP5 JUMPDEST DUP4 JUMPDEST DUP9 MLOAD DUP2 LT ISZERO PUSH2 0x326 JUMPI DUP1 DUP10 DUP10 DUP9 DUP16 SWAP5 DUP15 PUSH1 0x1 SWAP7 DUP14 DUP5 PUSH2 0x2AF DUP6 DUP10 PUSH2 0x1C52 JUMP JUMPDEST MLOAD AND DUP6 DUP3 AND EQ PUSH0 EQ PUSH2 0x2DE JUMPI POP SWAP4 POP POP POP POP PUSH2 0x2CC SWAP2 MLOAD SWAP1 PUSH2 0x1CF0 JUMP JUMPDEST PUSH2 0x2D6 DUP3 DUP14 PUSH2 0x1C52 JUMP JUMPDEST MSTORE JUMPDEST ADD PUSH2 0x290 JUMP JUMPDEST DUP7 PUSH2 0x301 PUSH2 0x309 SWAP4 PUSH2 0x319 SWAP8 PUSH2 0x2F7 DUP9 PUSH2 0x321 SWAP13 PUSH2 0x1C52 JUMP JUMPDEST MLOAD AND SWAP3 MLOAD SWAP1 PUSH2 0x1CF0 JUMP JUMPDEST SWAP1 ADDRESS SWAP3 PUSH2 0x1EB2 JUMP JUMPDEST PUSH2 0x313 DUP4 DUP4 PUSH2 0x1C52 JUMP JUMPDEST MSTORE PUSH2 0x1C52 JUMP JUMPDEST MLOAD LT ISZERO PUSH2 0x1C8B JUMP JUMPDEST PUSH2 0x2D8 JUMP JUMPDEST POP DUP9 DUP6 DUP10 DUP13 DUP8 DUP1 JUMPDEST DUP4 MLOAD DUP2 LT ISZERO PUSH2 0x401 JUMPI DUP1 DUP9 DUP7 PUSH2 0x347 PUSH2 0x3AF SWAP5 DUP9 PUSH2 0x1C52 JUMP JUMPDEST MLOAD AND PUSH2 0x353 DUP4 DUP11 PUSH2 0x1C52 JUMP JUMPDEST MLOAD SWAP1 DUP11 DUP7 PUSH1 0x40 MLOAD DUP1 SWAP8 DUP2 SWAP6 DUP3 SWAP5 PUSH32 0x95EA7B300000000000000000000000000000000000000000000000000000000 DUP5 MSTORE PUSH1 0x4 DUP5 ADD PUSH1 0x20 SWAP1 SWAP4 SWAP3 SWAP2 SWAP4 PUSH20 0xFFFFFFFFFFFFFFFFFFFFFFFFFFFFFFFFFFFFFFFF PUSH1 0x40 DUP3 ADD SWAP6 AND DUP2 MSTORE ADD MSTORE JUMP JUMPDEST SUB SWAP3 GAS CALL SWAP2 DUP3 ISZERO PUSH2 0x3F6 JUMPI PUSH1 0x1 SWAP3 PUSH2 0x3C9 JUMPI JUMPDEST POP ADD PUSH2 0x32E JUMP JUMPDEST PUSH2 0x3E8 SWAP1 DUP11 RETURNDATASIZE DUP13 GT PUSH2 0x3EF JUMPI JUMPDEST PUSH2 0x3E0 DUP2 DUP4 PUSH2 0x1B3C JUMP JUMPDEST DUP2 ADD SWAP1 PUSH2 0x1C66 JUMP JUMPDEST POP DUP12 PUSH2 0x3C2 JUMP JUMPDEST POP RETURNDATASIZE PUSH2 0x3D6 JUMP JUMPDEST PUSH1 0x40 MLOAD RETURNDATASIZE DUP6 DUP3 RETURNDATACOPY RETURNDATASIZE SWAP1 REVERT JUMPDEST POP DUP7 DUP3 DUP2 DUP7 PUSH1 0xA4 DUP10 DUP7 DUP15 DUP5 PUSH1 0x2 SLOAD AND SWAP1 PUSH2 0x424 PUSH2 0x41D DUP6 PUSH2 0x1C08 JUMP JUMPDEST MLOAD SWAP5 PUSH2 0x1C42 JUMP JUMPDEST MLOAD SWAP6 PUSH1 0x40 MLOAD SWAP9 DUP10 SWAP8 DUP9 SWAP7 PUSH32 0xE6D7B87600000000000000000000000000000000000000000000000000000000 DUP9 MSTORE PUSH1 0x4 DUP9 ADD MSTORE PUSH1 0x24 DUP8 ADD MSTORE AND PUSH1 0x44 DUP6 ADD MSTORE ADDRESS PUSH1 0x64 DUP6 ADD MSTORE PUSH1 0x84 DUP5 ADD MSTORE GAS CALL DUP1 ISZERO PUSH2 0x3F6 JUMPI PUSH2 0x4A1 JUMPI JUMPDEST DUP3 PUSH1 0x1 PUSH32 0x9B779B17422D0DF92223018B32B4D1FA46E071723D6817E2486D003BECC55F00 SSTORE DUP1 RETURN JUMPDEST DUP2 RETURNDATASIZE DUP4 GT PUSH2 0x4C7 JUMPI JUMPDEST PUSH2 0x4B4 DUP2 DUP4 PUSH2 0x1B3C JUMP JUMPDEST DUP2 ADD SUB SLT PUSH2 0x4C3 JUMPI DUP2 DUP1 PUSH2 0x479 JUMP JUMPDEST PUSH0 DUP1 REVERT JUMPDEST POP RETURNDATASIZE PUSH2 0x4AA JUMP JUMPDEST PUSH2 0x4D7 SWAP1 PUSH2 0x1B0C JUMP JUMPDEST PUSH2 0x4E2 JUMPI DUP3 PUSH0 PUSH2 0x285 JUMP JUMPDEST DUP3 DUP1 REVERT JUMPDEST PUSH1 0x40 MLOAD RETURNDATASIZE DUP7 DUP3 RETURNDATACOPY RETURNDATASIZE SWAP1 REVERT JUMPDEST DUP4 DUP1 REVERT JUMPDEST PUSH1 0x64 SWAP1 PUSH1 0x40 MLOAD SWAP1 PUSH32 0x8C379A000000000000000000000000000000000000000000000000000000000 DUP3 MSTORE PUSH1 0x4 DUP3 ADD MSTORE PUSH1 0x14 PUSH1 0x24 DUP3 ADD MSTORE PUSH32 0x496E636F72726563742045544820616D6F756E74000000000000000000000000 PUSH1 0x44 DUP3 ADD MSTORE REVERT JUMPDEST PUSH1 0x40 MLOAD PUSH32 0x23B872DD00000000000000000000000000000000000000000000000000000000 DUP2 MSTORE CALLER PUSH1 0x4 DUP3 ADD MSTORE ADDRESS PUSH1 0x24 DUP3 ADD MSTORE PUSH1 0x44 DUP2 ADD SWAP2 SWAP1 SWAP2 MSTORE SWAP2 SWAP7 SWAP2 SWAP1 DUP4 SWAP1 DUP3 SWAP1 PUSH1 0x64 SWAP1 DUP3 SWAP1 DUP10 SWAP1 GAS CALL DUP1 ISZERO PUSH2 0x5CC JUMPI PUSH2 0x5AF JUMPI JUMPDEST POP PUSH2 0x28E JUMP JUMPDEST PUSH2 0x5C5 SWAP1 DUP4 RETURNDATASIZE DUP6 GT PUSH2 0x3EF JUMPI PUSH2 0x3E0 DUP2 DUP4 PUSH2 0x1B3C JUMP JUMPDEST POP PUSH0 PUSH2 0x5A9 JUMP JUMPDEST PUSH1 0x40 MLOAD RETURNDATASIZE DUP8 DUP3 RETURNDATACOPY RETURNDATASIZE SWAP1 REVERT JUMPDEST PUSH2 0x5F7 SWAP2 POP DUP4 RETURNDATASIZE DUP6 GT PUSH2 0x5FD JUMPI JUMPDEST PUSH2 0x5EF DUP2 DUP4 PUSH2 0x1B3C JUMP JUMPDEST DUP2 ADD SWAP1 PUSH2 0x1BB7 JUMP JUMPDEST PUSH0 PUSH2 0x1DC JUMP JUMPDEST POP RETURNDATASIZE PUSH2 0x5E5 JUMP JUMPDEST PUSH2 0x61C SWAP2 SWAP9 POP DUP3 RETURNDATASIZE DUP5 GT PUSH2 0x5FD JUMPI PUSH2 0x5EF DUP2 DUP4 PUSH2 0x1B3C JUMP JUMPDEST SWAP7 PUSH0 PUSH2 0x19F JUMP JUMPDEST DUP1 PUSH32 0x4E487B7100000000000000000000000000000000000000000000000000000000 PUSH1 0x24 SWAP3 MSTORE PUSH1 0x11 PUSH1 0x4 MSTORE REVERT JUMPDEST POP CALLVALUE PUSH2 0x4C3 JUMPI PUSH1 0xA0 PUSH1 0x3 NOT CALLDATASIZE ADD SLT PUSH2 0x4C3 JUMPI PUSH2 0x66A PUSH2 0x1AA3 JUMP JUMPDEST PUSH20 0xFFFFFFFFFFFFFFFFFFFFFFFFFFFFFFFFFFFFFFFF PUSH1 0x44 CALLDATALOAD AND PUSH1 0x44 CALLDATALOAD SUB PUSH2 0x4C3 JUMPI PUSH2 0x693 PUSH2 0x1AE9 JUMP JUMPDEST SWAP1 PUSH2 0x69C PUSH2 0x1E58 JUMP JUMPDEST PUSH2 0x12C TIMESTAMP ADD TIMESTAMP GT PUSH2 0x1076 JUMPI PUSH1 0x40 MLOAD SWAP3 PUSH32 0xDFE168100000000000000000000000000000000000000000000000000000000 DUP5 MSTORE PUSH1 0x20 DUP5 PUSH1 0x4 DUP2 PUSH20 0xFFFFFFFFFFFFFFFFFFFFFFFFFFFFFFFFFFFFFFFF DUP7 AND GAS STATICCALL SWAP4 DUP5 ISZERO PUSH2 0x8CB JUMPI PUSH0 SWAP5 PUSH2 0x1055 JUMPI JUMPDEST POP PUSH1 0x40 MLOAD PUSH32 0xD21220A700000000000000000000000000000000000000000000000000000000 DUP2 MSTORE PUSH1 0x20 DUP2 PUSH1 0x4 DUP2 PUSH20 0xFFFFFFFFFFFFFFFFFFFFFFFFFFFFFFFFFFFFFFFF DUP8 AND GAS STATICCALL SWAP1 DUP2 ISZERO PUSH2 0x8CB JUMPI PUSH0 SWAP2 PUSH2 0x1036 JUMPI JUMPDEST POP PUSH1 0x40 MLOAD SWAP5 PUSH2 0x75D DUP7 PUSH2 0x1B20 JUMP JUMPDEST PUSH1 0x2 DUP7 MSTORE PUSH1 0x40 CALLDATASIZE PUSH1 0x20 DUP9 ADD CALLDATACOPY PUSH20 0xFFFFFFFFFFFFFFFFFFFFFFFFFFFFFFFFFFFFFFFF PUSH2 0x787 DUP8 PUSH2 0x1C08 JUMP JUMPDEST SWAP2 AND SWAP1 MSTORE PUSH20 0xFFFFFFFFFFFFFFFFFFFFFFFFFFFFFFFFFFFFFFFF PUSH2 0x7A9 DUP7 PUSH2 0x1C42 JUMP JUMPDEST SWAP2 AND SWAP1 MSTORE PUSH1 0x40 MLOAD SWAP2 PUSH2 0x7BA DUP4 PUSH2 0x1B20 JUMP JUMPDEST PUSH1 0x2 DUP4 MSTORE PUSH1 0x40 CALLDATASIZE PUSH1 0x20 DUP6 ADD CALLDATACOPY DUP5 MLOAD SWAP3 PUSH32 0xFFFFFFFFFFFFFFFFFFFFFFFFFFFFFFFFFFFFFFFFFFFFFFFFFFFFFFFFFFFFFFE0 PUSH2 0x80C PUSH2 0x7F6 DUP7 PUSH2 0x1BF0 JUMP JUMPDEST SWAP6 PUSH2 0x804 PUSH1 0x40 MLOAD SWAP8 DUP9 PUSH2 0x1B3C JUMP JUMPDEST DUP1 DUP8 MSTORE PUSH2 0x1BF0 JUMP JUMPDEST ADD CALLDATASIZE PUSH1 0x20 DUP7 ADD CALLDATACOPY PUSH0 JUMPDEST DUP7 MLOAD DUP2 LT ISZERO PUSH2 0x8D6 JUMPI DUP1 PUSH1 0x20 PUSH20 0xFFFFFFFFFFFFFFFFFFFFFFFFFFFFFFFFFFFFFFFF PUSH2 0x842 PUSH1 0x24 SWAP5 DUP12 PUSH2 0x1C52 JUMP JUMPDEST MLOAD AND PUSH1 0x40 MLOAD SWAP4 DUP5 DUP1 SWAP3 PUSH32 0x70A0823100000000000000000000000000000000000000000000000000000000 DUP3 MSTORE ADDRESS PUSH1 0x4 DUP4 ADD MSTORE GAS STATICCALL DUP1 ISZERO PUSH2 0x8CB JUMPI PUSH0 SWAP1 PUSH2 0x898 JUMPI JUMPDEST PUSH1 0x1 SWAP3 POP PUSH2 0x891 DUP3 DUP9 PUSH2 0x1C52 JUMP JUMPDEST MSTORE ADD PUSH2 0x815 JUMP JUMPDEST POP PUSH1 0x20 DUP3 RETURNDATASIZE PUSH1 0x20 GT PUSH2 0x8C3 JUMPI JUMPDEST DUP2 PUSH2 0x8B2 PUSH1 0x20 SWAP4 DUP4 PUSH2 0x1B3C JUMP JUMPDEST DUP2 ADD SUB SLT PUSH2 0x4C3 JUMPI PUSH1 0x1 SWAP2 MLOAD PUSH2 0x883 JUMP JUMPDEST RETURNDATASIZE SWAP2 POP PUSH2 0x8A5 JUMP JUMPDEST PUSH1 0x40 MLOAD RETURNDATASIZE PUSH0 DUP3 RETURNDATACOPY RETURNDATASIZE SWAP1 REVERT JUMPDEST POP DUP4 DUP7 DUP7 PUSH1 0x40 MLOAD SWAP5 PUSH32 0x70A0823100000000000000000000000000000000000000000000000000000000 DUP7 MSTORE ADDRESS PUSH1 0x4 DUP8 ADD MSTORE PUSH1 0x20 DUP7 PUSH1 0x24 DUP2 PUSH20 0xFFFFFFFFFFFFFFFFFFFFFFFFFFFFFFFFFFFFFFFF PUSH1 0x44 CALLDATALOAD AND GAS STATICCALL SWAP6 DUP7 ISZERO PUSH2 0x8CB JUMPI PUSH0 SWAP7 PUSH2 0x1002 JUMPI JUMPDEST POP PUSH1 0x40 MLOAD PUSH32 0x23B872DD00000000000000000000000000000000000000000000000000000000 DUP2 MSTORE CALLER PUSH1 0x4 DUP3 ADD MSTORE ADDRESS PUSH1 0x24 DUP1 DUP4 ADD SWAP2 SWAP1 SWAP2 MSTORE CALLDATALOAD PUSH1 0x44 DUP3 ADD MSTORE PUSH1 0x20 DUP2 PUSH1 0x64 DUP2 PUSH0 PUSH20 0xFFFFFFFFFFFFFFFFFFFFFFFFFFFFFFFFFFFFFFFF DUP8 AND GAS CALL DUP1 ISZERO PUSH2 0x8CB JUMPI PUSH2 0xFE3 JUMPI JUMPDEST POP PUSH1 0x40 MLOAD PUSH32 0x95EA7B300000000000000000000000000000000000000000000000000000000 DUP2 MSTORE PUSH20 0xFFFFFFFFFFFFFFFFFFFFFFFFFFFFFFFFFFFFFFFF DUP3 AND PUSH1 0x4 DUP3 ADD MSTORE PUSH1 0x24 DUP1 CALLDATALOAD SWAP1 DUP3 ADD MSTORE PUSH1 0x20 DUP2 DUP1 PUSH1 0x44 DUP2 ADD SUB DUP2 PUSH0 PUSH20 0xFFFFFFFFFFFFFFFFFFFFFFFFFFFFFFFFFFFFFFFF DUP8 AND GAS CALL DUP1 ISZERO PUSH2 0x8CB JUMPI PUSH2 0xFC4 JUMPI JUMPDEST POP PUSH1 0x40 MLOAD SWAP1 PUSH1 0x80 DUP3 ADD DUP3 DUP2 LT PUSH8 0xFFFFFFFFFFFFFFFF DUP3 GT OR PUSH2 0xF97 JUMPI PUSH1 0x40 MSTORE PUSH1 0x80 CALLDATASIZE DUP4 CALLDATACOPY PUSH0 DUP3 MSTORE PUSH0 PUSH1 0x20 DUP4 ADD MSTORE PUSH0 PUSH1 0x40 DUP4 ADD MSTORE PUSH0 PUSH1 0x60 DUP4 ADD MSTORE PUSH1 0x40 MLOAD DUP1 SWAP3 PUSH32 0xA855987200000000000000000000000000000000000000000000000000000000 DUP3 MSTORE PUSH1 0x24 CALLDATALOAD PUSH1 0x4 DUP4 ADD MSTORE CALLER PUSH1 0x24 DUP4 ADD MSTORE ADDRESS PUSH1 0x44 DUP4 ADD MSTORE PUSH1 0x64 DUP3 ADD PUSH0 SWAP1 JUMPDEST PUSH1 0x4 DUP3 LT PUSH2 0xF7D JUMPI POP POP POP PUSH1 0xE4 DUP2 PUSH0 PUSH20 0xFFFFFFFFFFFFFFFFFFFFFFFFFFFFFFFFFFFFFFFF PUSH1 0x40 SWAP6 AND GAS CALL DUP1 ISZERO PUSH2 0x8CB JUMPI PUSH2 0xF52 JUMPI JUMPDEST POP PUSH0 SWAP6 DUP7 JUMPDEST DUP4 MLOAD DUP9 LT ISZERO PUSH2 0xCEE JUMPI PUSH20 0xFFFFFFFFFFFFFFFFFFFFFFFFFFFFFFFFFFFFFFFF PUSH1 0x44 CALLDATALOAD AND PUSH20 0xFFFFFFFFFFFFFFFFFFFFFFFFFFFFFFFFFFFFFFFF PUSH2 0xB0F DUP11 DUP8 PUSH2 0x1C52 JUMP JUMPDEST MLOAD AND SUB PUSH2 0xBEF JUMPI PUSH1 0x24 PUSH1 0x20 PUSH20 0xFFFFFFFFFFFFFFFFFFFFFFFFFFFFFFFFFFFFFFFF PUSH2 0xB39 DUP12 DUP9 PUSH2 0x1C52 JUMP JUMPDEST MLOAD AND PUSH1 0x40 MLOAD SWAP3 DUP4 DUP1 SWAP3 PUSH32 0x70A0823100000000000000000000000000000000000000000000000000000000 DUP3 MSTORE ADDRESS PUSH1 0x4 DUP4 ADD MSTORE GAS STATICCALL SWAP1 DUP2 ISZERO PUSH2 0x8CB JUMPI PUSH0 SWAP2 PUSH2 0xBBC JUMPI JUMPDEST POP PUSH1 0x1 SWAP2 PUSH2 0xB97 PUSH2 0xBB3 SWAP3 PUSH2 0xB90 DUP13 DUP11 PUSH2 0x1C52 JUMP JUMPDEST MLOAD SWAP1 PUSH2 0x1C7E JUMP JUMPDEST PUSH2 0xBA1 DUP12 DUP11 PUSH2 0x1C52 JUMP JUMPDEST MSTORE PUSH2 0xBAC DUP11 DUP10 PUSH2 0x1C52 JUMP JUMPDEST MLOAD SWAP1 PUSH2 0x1BE3 JUMP JUMPDEST SWAP8 JUMPDEST ADD SWAP7 PUSH2 0xACE JUMP JUMPDEST SWAP1 POP PUSH1 0x20 DUP2 RETURNDATASIZE PUSH1 0x20 GT PUSH2 0xBE7 JUMPI JUMPDEST DUP2 PUSH2 0xBD7 PUSH1 0x20 SWAP4 DUP4 PUSH2 0x1B3C JUMP JUMPDEST DUP2 ADD SUB SLT PUSH2 0x4C3 JUMPI MLOAD PUSH1 0x1 PUSH2 0xB7B JUMP JUMPDEST RETURNDATASIZE SWAP2 POP PUSH2 0xBCA JUMP JUMPDEST PUSH1 0x24 PUSH1 0x20 PUSH20 0xFFFFFFFFFFFFFFFFFFFFFFFFFFFFFFFFFFFFFFFF PUSH2 0xC12 DUP12 DUP9 PUSH2 0x1C52 JUMP JUMPDEST MLOAD AND PUSH1 0x40 MLOAD SWAP3 DUP4 DUP1 SWAP3 PUSH32 0x70A0823100000000000000000000000000000000000000000000000000000000 DUP3 MSTORE ADDRESS PUSH1 0x4 DUP4 ADD MSTORE GAS STATICCALL SWAP1 DUP2 ISZERO PUSH2 0x8CB JUMPI PUSH0 SWAP2 PUSH2 0xCBB JUMPI JUMPDEST POP PUSH1 0x1 SWAP2 PUSH2 0xC69 PUSH2 0xCB5 SWAP3 PUSH2 0xB90 DUP13 DUP11 PUSH2 0x1C52 JUMP JUMPDEST PUSH2 0xC73 DUP12 DUP11 PUSH2 0x1C52 JUMP JUMPDEST MSTORE PUSH2 0xCAF PUSH20 0xFFFFFFFFFFFFFFFFFFFFFFFFFFFFFFFFFFFFFFFF PUSH2 0xC96 DUP13 DUP10 PUSH2 0x1C52 JUMP JUMPDEST MLOAD AND CALLER SWAP1 PUSH2 0xCA4 DUP14 DUP13 PUSH2 0x1C52 JUMP JUMPDEST MLOAD SWAP1 PUSH1 0x44 CALLDATALOAD SWAP1 PUSH2 0x1EB2 JUMP JUMPDEST SWAP1 PUSH2 0x1BE3 JUMP JUMPDEST SWAP8 PUSH2 0xBB5 JUMP JUMPDEST SWAP1 POP PUSH1 0x20 DUP2 RETURNDATASIZE PUSH1 0x20 GT PUSH2 0xCE6 JUMPI JUMPDEST DUP2 PUSH2 0xCD6 PUSH1 0x20 SWAP4 DUP4 PUSH2 0x1B3C JUMP JUMPDEST DUP2 ADD SUB SLT PUSH2 0x4C3 JUMPI MLOAD PUSH1 0x1 PUSH2 0xC54 JUMP JUMPDEST RETURNDATASIZE SWAP2 POP PUSH2 0xCC9 JUMP JUMPDEST POP PUSH1 0x40 MLOAD PUSH32 0x70A0823100000000000000000000000000000000000000000000000000000000 DUP2 MSTORE ADDRESS PUSH1 0x4 DUP3 ADD MSTORE DUP7 PUSH1 0x20 DUP3 PUSH1 0x24 DUP2 PUSH1 0x44 CALLDATALOAD PUSH20 0xFFFFFFFFFFFFFFFFFFFFFFFFFFFFFFFFFFFFFFFF AND GAS STATICCALL DUP1 ISZERO PUSH2 0x8CB JUMPI PUSH0 SWAP1 PUSH2 0xF1E JUMPI JUMPDEST PUSH2 0xD54 SWAP3 POP PUSH2 0x1C7E JUMP JUMPDEST SWAP2 PUSH2 0xD63 PUSH1 0x64 CALLDATALOAD DUP5 LT ISZERO PUSH2 0x1C8B JUMP JUMPDEST PUSH20 0xFFFFFFFFFFFFFFFFFFFFFFFFFFFFFFFFFFFFFFFF PUSH1 0x3 SLOAD AND PUSH20 0xFFFFFFFFFFFFFFFFFFFFFFFFFFFFFFFFFFFFFFFF PUSH1 0x44 CALLDATALOAD AND EQ PUSH0 EQ PUSH2 0xE7C JUMPI PUSH20 0xFFFFFFFFFFFFFFFFFFFFFFFFFFFFFFFFFFFFFFFF PUSH1 0x3 SLOAD AND DUP1 EXTCODESIZE ISZERO PUSH2 0x4C3 JUMPI PUSH0 DUP1 SWAP2 PUSH1 0x24 PUSH1 0x40 MLOAD DUP1 SWAP5 DUP2 SWAP4 PUSH32 0x2E1A7D4D00000000000000000000000000000000000000000000000000000000 DUP4 MSTORE DUP10 PUSH1 0x4 DUP5 ADD MSTORE GAS CALL DUP1 ISZERO PUSH2 0x8CB JUMPI PUSH2 0xE69 JUMPI JUMPDEST POP DUP2 DUP1 DUP1 SWAP5 DUP2 SWAP4 DUP3 SWAP1 DUP3 ISZERO PUSH2 0xE5F JUMPI JUMPDEST PUSH20 0xFFFFFFFFFFFFFFFFFFFFFFFFFFFFFFFFFFFFFFFF AND SWAP1 CALL ISZERO PUSH2 0xE53 JUMPI JUMPDEST PUSH1 0x1 PUSH32 0x9B779B17422D0DF92223018B32B4D1FA46E071723D6817E2486D003BECC55F00 SSTORE DUP1 RETURN JUMPDEST PUSH1 0x40 MLOAD SWAP1 RETURNDATASIZE SWAP1 DUP3 RETURNDATACOPY RETURNDATASIZE SWAP1 REVERT JUMPDEST PUSH2 0x8FC SWAP2 POP PUSH2 0xE0E JUMP JUMPDEST PUSH2 0xE74 SWAP2 SWAP3 POP PUSH2 0x1B0C JUMP JUMPDEST PUSH0 SWAP1 DUP4 PUSH2 0xDFE JUMP JUMPDEST PUSH1 0x40 MLOAD PUSH32 0xA9059CBB00000000000000000000000000000000000000000000000000000000 DUP2 MSTORE PUSH20 0xFFFFFFFFFFFFFFFFFFFFFFFFFFFFFFFFFFFFFFFF SWAP1 SWAP2 AND PUSH1 0x4 DUP3 ADD MSTORE PUSH1 0x24 DUP2 ADD SWAP3 SWAP1 SWAP3 MSTORE SWAP1 PUSH1 0x20 DUP2 DUP1 PUSH1 0x44 DUP2 ADD SUB DUP2 PUSH0 PUSH20 0xFFFFFFFFFFFFFFFFFFFFFFFFFFFFFFFFFFFFFFFF PUSH1 0x44 CALLDATALOAD AND GAS CALL DUP1 ISZERO PUSH2 0x8CB JUMPI PUSH2 0xEFF JUMPI JUMPDEST POP PUSH2 0xE2C JUMP JUMPDEST PUSH2 0xF17 SWAP1 PUSH1 0x20 RETURNDATASIZE PUSH1 0x20 GT PUSH2 0x3EF JUMPI PUSH2 0x3E0 DUP2 DUP4 PUSH2 0x1B3C JUMP JUMPDEST POP DUP2 PUSH2 0xEF9 JUMP JUMPDEST POP PUSH1 0x20 DUP3 RETURNDATASIZE PUSH1 0x20 GT PUSH2 0xF4A JUMPI JUMPDEST DUP2 PUSH2 0xF38 PUSH1 0x20 SWAP4 DUP4 PUSH2 0x1B3C JUMP JUMPDEST DUP2 ADD SUB SLT PUSH2 0x4C3 JUMPI PUSH2 0xD54 SWAP2 MLOAD PUSH2 0xD4A JUMP JUMPDEST RETURNDATASIZE SWAP2 POP PUSH2 0xF2B JUMP JUMPDEST PUSH1 0x40 SWAP1 DUP2 RETURNDATASIZE DUP4 GT PUSH2 0xF76 JUMPI JUMPDEST PUSH2 0xF68 DUP2 DUP4 PUSH2 0x1B3C JUMP JUMPDEST DUP2 ADD SUB SLT PUSH2 0x4C3 JUMPI DUP7 PUSH2 0xAC9 JUMP JUMPDEST POP RETURNDATASIZE PUSH2 0xF5E JUMP JUMPDEST DUP3 SWAP4 POP PUSH1 0x20 DUP1 SWAP2 PUSH1 0x1 SWAP4 SWAP5 MLOAD DUP2 MSTORE ADD SWAP4 ADD SWAP2 ADD DUP5 SWAP3 PUSH2 0xA94 JUMP JUMPDEST PUSH32 0x4E487B7100000000000000000000000000000000000000000000000000000000 PUSH0 MSTORE PUSH1 0x41 PUSH1 0x4 MSTORE PUSH1 0x24 PUSH0 REVERT JUMPDEST PUSH2 0xFDC SWAP1 PUSH1 0x20 RETURNDATASIZE PUSH1 0x20 GT PUSH2 0x3EF JUMPI PUSH2 0x3E0 DUP2 DUP4 PUSH2 0x1B3C JUMP JUMPDEST POP DUP8 PUSH2 0xA18 JUMP JUMPDEST PUSH2 0xFFB SWAP1 PUSH1 0x20 RETURNDATASIZE PUSH1 0x20 GT PUSH2 0x3EF JUMPI PUSH2 0x3E0 DUP2 DUP4 PUSH2 0x1B3C JUMP JUMPDEST POP DUP8 PUSH2 0x99E JUMP JUMPDEST SWAP1 SWAP6 POP PUSH1 0x20 DUP2 RETURNDATASIZE PUSH1 0x20 GT PUSH2 0x102E JUMPI JUMPDEST DUP2 PUSH2 0x101E PUSH1 0x20 SWAP4 DUP4 PUSH2 0x1B3C JUMP JUMPDEST DUP2 ADD SUB SLT PUSH2 0x4C3 JUMPI MLOAD SWAP5 DUP8 PUSH2 0x936 JUMP JUMPDEST RETURNDATASIZE SWAP2 POP PUSH2 0x1011 JUMP JUMPDEST PUSH2 0x104F SWAP2 POP PUSH1 0x20 RETURNDATASIZE PUSH1 0x20 GT PUSH2 0x5FD JUMPI PUSH2 0x5EF DUP2 DUP4 PUSH2 0x1B3C JUMP JUMPDEST PUSH0 PUSH2 0x74F JUMP JUMPDEST PUSH2 0x106F SWAP2 SWAP5 POP PUSH1 0x20 RETURNDATASIZE PUSH1 0x20 GT PUSH2 0x5FD JUMPI PUSH2 0x5EF DUP2 DUP4 PUSH2 0x1B3C JUMP JUMPDEST SWAP3 PUSH0 PUSH2 0x6FB JUMP JUMPDEST PUSH32 0x4E487B7100000000000000000000000000000000000000000000000000000000 PUSH0 MSTORE PUSH1 0x11 PUSH1 0x4 MSTORE PUSH1 0x24 PUSH0 REVERT JUMPDEST CALLVALUE PUSH2 0x4C3 JUMPI PUSH0 PUSH1 0x3 NOT CALLDATASIZE ADD SLT PUSH2 0x4C3 JUMPI PUSH1 0x40 MLOAD PUSH1 0x40 DUP2 ADD DUP2 DUP2 LT PUSH8 0xFFFFFFFFFFFFFFFF DUP3 GT OR PUSH2 0xF97 JUMPI PUSH1 0x40 MSTORE PUSH1 0x5 DUP2 MSTORE PUSH1 0x40 PUSH1 0x20 DUP3 ADD SWAP2 PUSH32 0x352E302E30000000000000000000000000000000000000000000000000000000 DUP4 MSTORE PUSH32 0xFFFFFFFFFFFFFFFFFFFFFFFFFFFFFFFFFFFFFFFFFFFFFFFFFFFFFFFFFFFFFFE0 PUSH1 0x1F DUP4 MLOAD SWAP5 DUP6 SWAP4 PUSH1 0x20 DUP6 MSTORE MLOAD DUP1 SWAP2 DUP2 PUSH1 0x20 DUP8 ADD MSTORE DUP7 DUP7 ADD MCOPY PUSH0 DUP6 DUP3 DUP7 ADD ADD MSTORE ADD AND DUP2 ADD SUB ADD SWAP1 RETURN JUMPDEST CALLVALUE PUSH2 0x4C3 JUMPI PUSH0 PUSH1 0x3 NOT CALLDATASIZE ADD SLT PUSH2 0x4C3 JUMPI PUSH1 0x20 PUSH20 0xFFFFFFFFFFFFFFFFFFFFFFFFFFFFFFFFFFFFFFFF PUSH32 0x9016D09D72D40FDAE2FD8CEAC6B6234C7706214FD39C1CD1E609A0528C199300 SLOAD AND PUSH1 0x40 MLOAD SWAP1 DUP2 MSTORE RETURN JUMPDEST CALLVALUE PUSH2 0x4C3 JUMPI PUSH0 PUSH1 0x3 NOT CALLDATASIZE ADD SLT PUSH2 0x4C3 JUMPI PUSH1 0x20 PUSH20 0xFFFFFFFFFFFFFFFFFFFFFFFFFFFFFFFFFFFFFFFF PUSH1 0x2 SLOAD AND PUSH1 0x40 MLOAD SWAP1 DUP2 MSTORE RETURN JUMPDEST CALLVALUE PUSH2 0x4C3 JUMPI PUSH0 PUSH1 0x3 NOT CALLDATASIZE ADD SLT PUSH2 0x4C3 JUMPI PUSH1 0x20 PUSH20 0xFFFFFFFFFFFFFFFFFFFFFFFFFFFFFFFFFFFFFFFF PUSH1 0x1 SLOAD AND PUSH1 0x40 MLOAD SWAP1 DUP2 MSTORE RETURN JUMPDEST CALLVALUE PUSH2 0x4C3 JUMPI PUSH0 PUSH1 0x3 NOT CALLDATASIZE ADD SLT PUSH2 0x4C3 JUMPI PUSH1 0x20 PUSH20 0xFFFFFFFFFFFFFFFFFFFFFFFFFFFFFFFFFFFFFFFF PUSH0 SLOAD AND PUSH1 0x40 MLOAD SWAP1 DUP2 MSTORE RETURN JUMPDEST CALLVALUE PUSH2 0x4C3 JUMPI PUSH0 PUSH1 0x3 NOT CALLDATASIZE ADD SLT PUSH2 0x4C3 JUMPI PUSH2 0x1249 PUSH2 0x1DE8 JUMP JUMPDEST PUSH0 PUSH20 0xFFFFFFFFFFFFFFFFFFFFFFFFFFFFFFFFFFFFFFFF PUSH32 0x9016D09D72D40FDAE2FD8CEAC6B6234C7706214FD39C1CD1E609A0528C199300 DUP1 SLOAD SWAP1 PUSH32 0xFFFFFFFFFFFFFFFFFFFFFFFF0000000000000000000000000000000000000000 DUP3 AND SWAP1 SSTORE AND PUSH32 0x8BE0079C531659141344CD1FD0A4F28419497F9722A3DAAFE3B4186F6B6457E0 DUP3 DUP1 LOG3 STOP JUMPDEST CALLVALUE PUSH2 0x4C3 JUMPI PUSH0 PUSH1 0x3 NOT CALLDATASIZE ADD SLT PUSH2 0x4C3 JUMPI PUSH20 0xFFFFFFFFFFFFFFFFFFFFFFFFFFFFFFFFFFFFFFFF PUSH32 0x0 AND ADDRESS SUB PUSH2 0x1346 JUMPI PUSH1 0x20 PUSH1 0x40 MLOAD PUSH32 0x360894A13BA1A3210667C828492DB98DCA3E2076CC3735A920A3CA505D382BBC DUP2 MSTORE RETURN JUMPDEST PUSH1 0x4 PUSH1 0x40 MLOAD PUSH32 0xE07C8DBA00000000000000000000000000000000000000000000000000000000 DUP2 MSTORE REVERT JUMPDEST PUSH1 0x40 PUSH1 0x3 NOT CALLDATASIZE ADD SLT PUSH2 0x4C3 JUMPI PUSH2 0x1384 PUSH2 0x1AA3 JUMP JUMPDEST PUSH1 0x24 SWAP1 DUP2 CALLDATALOAD PUSH8 0xFFFFFFFFFFFFFFFF DUP2 GT PUSH2 0x4C3 JUMPI CALLDATASIZE PUSH1 0x23 DUP3 ADD SLT ISZERO PUSH2 0x4C3 JUMPI DUP1 PUSH1 0x4 ADD CALLDATALOAD PUSH2 0x13B1 DUP2 PUSH2 0x1B7D JUMP JUMPDEST SWAP3 PUSH2 0x13BF PUSH1 0x40 MLOAD SWAP5 DUP6 PUSH2 0x1B3C JUMP JUMPDEST DUP2 DUP5 MSTORE PUSH1 0x20 SWAP2 DUP3 DUP6 ADD SWAP4 CALLDATASIZE DUP8 DUP4 DUP4 ADD ADD GT PUSH2 0x4C3 JUMPI DUP2 PUSH0 SWAP3 DUP9 DUP7 SWAP4 ADD DUP8 CALLDATACOPY DUP7 ADD ADD MSTORE PUSH20 0xFFFFFFFFFFFFFFFFFFFFFFFFFFFFFFFFFFFFFFFF DUP1 PUSH32 0x0 AND DUP1 ADDRESS EQ SWAP1 DUP2 ISZERO PUSH2 0x162E JUMPI JUMPDEST POP PUSH2 0x1346 JUMPI PUSH2 0x1431 PUSH2 0x1DE8 JUMP JUMPDEST DUP2 AND SWAP4 PUSH1 0x40 MLOAD PUSH32 0x52D1902D00000000000000000000000000000000000000000000000000000000 DUP2 MSTORE DUP4 DUP2 PUSH1 0x4 DUP2 DUP10 GAS STATICCALL PUSH0 SWAP2 DUP2 PUSH2 0x15FF JUMPI JUMPDEST POP PUSH2 0x149F JUMPI DUP7 DUP7 PUSH1 0x40 MLOAD SWAP1 PUSH32 0x4C9C8CE300000000000000000000000000000000000000000000000000000000 DUP3 MSTORE PUSH1 0x4 DUP3 ADD MSTORE REVERT JUMPDEST DUP6 SWAP1 DUP8 PUSH32 0x360894A13BA1A3210667C828492DB98DCA3E2076CC3735A920A3CA505D382BBC SWAP2 DUP3 DUP2 SUB PUSH2 0x15D1 JUMPI POP DUP5 EXTCODESIZE ISZERO PUSH2 0x15A2 JUMPI POP DUP2 PUSH32 0xFFFFFFFFFFFFFFFFFFFFFFFF0000000000000000000000000000000000000000 DUP3 SLOAD AND OR SWAP1 SSTORE PUSH1 0x40 MLOAD SWAP1 PUSH32 0xBC7CD75A20EE27FD9ADEBAB32041F755214DBC6BFFA90CC0225B39DA2E5C2D3B PUSH0 DUP1 LOG2 DUP2 MLOAD ISZERO PUSH2 0x156E JUMPI POP PUSH0 PUSH2 0x18 SWAP5 DUP2 SWAP3 MLOAD SWAP1 DUP5 GAS DELEGATECALL SWAP1 RETURNDATASIZE ISZERO PUSH2 0x1565 JUMPI RETURNDATASIZE PUSH2 0x1549 DUP2 PUSH2 0x1B7D JUMP JUMPDEST SWAP1 PUSH2 0x1557 PUSH1 0x40 MLOAD SWAP3 DUP4 PUSH2 0x1B3C JUMP JUMPDEST DUP2 MSTORE PUSH0 DUP2 SWAP5 RETURNDATASIZE SWAP3 ADD RETURNDATACOPY PUSH2 0x21E3 JUMP JUMPDEST PUSH1 0x60 SWAP3 POP PUSH2 0x21E3 JUMP JUMPDEST SWAP4 POP POP POP POP CALLVALUE PUSH2 0x157A JUMPI STOP JUMPDEST DUP1 PUSH32 0xB398979F00000000000000000000000000000000000000000000000000000000 PUSH1 0x4 SWAP3 MSTORE REVERT JUMPDEST DUP3 PUSH1 0x40 MLOAD SWAP1 PUSH32 0x4C9C8CE300000000000000000000000000000000000000000000000000000000 DUP3 MSTORE PUSH1 0x4 DUP3 ADD MSTORE REVERT JUMPDEST PUSH1 0x40 MLOAD SWAP1 PUSH32 0xAA1D49A400000000000000000000000000000000000000000000000000000000 DUP3 MSTORE PUSH1 0x4 DUP3 ADD MSTORE REVERT JUMPDEST SWAP1 SWAP2 POP DUP5 DUP2 DUP2 RETURNDATASIZE DUP4 GT PUSH2 0x1627 JUMPI JUMPDEST PUSH2 0x1617 DUP2 DUP4 PUSH2 0x1B3C JUMP JUMPDEST DUP2 ADD SUB SLT PUSH2 0x4C3 JUMPI MLOAD SWAP1 DUP9 PUSH2 0x146A JUMP JUMPDEST POP RETURNDATASIZE PUSH2 0x160D JUMP JUMPDEST SWAP1 POP DUP2 PUSH32 0x360894A13BA1A3210667C828492DB98DCA3E2076CC3735A920A3CA505D382BBC SLOAD AND EQ ISZERO DUP8 PUSH2 0x1424 JUMP JUMPDEST CALLVALUE PUSH2 0x4C3 JUMPI PUSH0 PUSH1 0x3 NOT CALLDATASIZE ADD SLT PUSH2 0x4C3 JUMPI PUSH1 0x20 PUSH20 0xFFFFFFFFFFFFFFFFFFFFFFFFFFFFFFFFFFFFFFFF PUSH1 0x3 SLOAD AND PUSH1 0x40 MLOAD SWAP1 DUP2 MSTORE RETURN JUMPDEST CALLVALUE PUSH2 0x4C3 JUMPI PUSH1 0x40 PUSH1 0x3 NOT CALLDATASIZE ADD SLT PUSH2 0x4C3 JUMPI PUSH2 0x16A8 PUSH2 0x1AA3 JUMP JUMPDEST PUSH2 0x16B0 PUSH2 0x1AC6 JUMP JUMPDEST SWAP1 PUSH32 0xF0C57E16840DF040F15088DC2F81FE391C3923BEC73E23A9662EFC9C229C6A00 SWAP2 DUP3 SLOAD SWAP1 PUSH1 0xFF DUP3 PUSH1 0x40 SHR AND ISZERO SWAP1 PUSH8 0xFFFFFFFFFFFFFFFF DUP4 AND SWAP3 DUP4 ISZERO DUP1 PUSH2 0x1972 JUMPI JUMPDEST PUSH1 0x1 DUP1 SWAP6 EQ SWAP1 DUP2 PUSH2 0x1968 JUMPI JUMPDEST ISZERO SWAP1 DUP2 PUSH2 0x195F JUMPI JUMPDEST POP PUSH2 0x1935 JUMPI DUP3 DUP5 PUSH32 0xFFFFFFFFFFFFFFFFFFFFFFFFFFFFFFFFFFFFFFFFFFFFFFFF0000000000000000 DUP4 AND OR DUP8 SSTORE PUSH2 0x1900 JUMPI JUMPDEST POP PUSH2 0x1742 PUSH2 0x218A JUMP JUMPDEST PUSH2 0x174A PUSH2 0x218A JUMP JUMPDEST PUSH2 0x1753 CALLER PUSH2 0x1D27 JUMP JUMPDEST PUSH2 0x175B PUSH2 0x218A JUMP JUMPDEST PUSH2 0x1763 PUSH2 0x218A JUMP JUMPDEST DUP3 PUSH32 0x9B779B17422D0DF92223018B32B4D1FA46E071723D6817E2486D003BECC55F00 SSTORE PUSH2 0x178E PUSH2 0x218A JUMP JUMPDEST PUSH20 0xFFFFFFFFFFFFFFFFFFFFFFFFFFFFFFFFFFFFFFFF DUP1 SWAP5 AND SWAP4 PUSH32 0xFFFFFFFFFFFFFFFFFFFFFFFF0000000000000000000000000000000000000000 SWAP2 DUP6 DUP4 PUSH0 SLOAD AND OR PUSH0 SSTORE PUSH1 0x40 MLOAD PUSH32 0x82755EBB00000000000000000000000000000000000000000000000000000000 DUP2 MSTORE PUSH1 0x20 SWAP7 DUP8 DUP3 PUSH1 0x4 DUP2 DUP5 GAS STATICCALL DUP1 ISZERO PUSH2 0x8CB JUMPI PUSH1 0x4 SWAP4 DUP6 DUP1 SWAP3 DUP12 SWAP6 PUSH0 SWAP2 PUSH2 0x18E3 JUMPI JUMPDEST POP AND DUP8 DUP11 SLOAD AND OR DUP10 SSTORE AND DUP6 PUSH1 0x2 SLOAD AND OR PUSH1 0x2 SSTORE PUSH1 0x40 MLOAD SWAP3 DUP4 DUP1 SWAP3 PUSH32 0x6C9C007800000000000000000000000000000000000000000000000000000000 DUP3 MSTORE GAS STATICCALL SWAP1 DUP2 ISZERO PUSH2 0x8CB JUMPI PUSH0 SWAP2 PUSH2 0x18C6 JUMPI JUMPDEST POP AND SWAP1 PUSH1 0x3 SLOAD AND OR PUSH1 0x3 SSTORE PUSH2 0x1875 JUMPI STOP JUMPDEST DUP3 PUSH32 0xFFFFFFFFFFFFFFFFFFFFFFFFFFFFFFFFFFFFFFFFFFFFFF00FFFFFFFFFFFFFFFF PUSH32 0xC7F505B2F371AE2175EE4913F4499E1F2633A7B5936321EED1CDAEB6115181D2 SWAP5 SLOAD AND SWAP1 SSTORE PUSH1 0x40 MLOAD SWAP1 DUP2 MSTORE LOG1 STOP JUMPDEST PUSH2 0x18DD SWAP2 POP DUP7 RETURNDATASIZE DUP9 GT PUSH2 0x5FD JUMPI PUSH2 0x5EF DUP2 DUP4 PUSH2 0x1B3C JUMP JUMPDEST DUP8 PUSH2 0x1864 JUMP JUMPDEST PUSH2 0x18FA SWAP2 POP DUP7 RETURNDATASIZE DUP9 GT PUSH2 0x5FD JUMPI PUSH2 0x5EF DUP2 DUP4 PUSH2 0x1B3C JUMP JUMPDEST DUP14 PUSH2 0x1817 JUMP JUMPDEST PUSH32 0xFFFFFFFFFFFFFFFFFFFFFFFFFFFFFFFFFFFFFFFFFFFFFF000000000000000000 AND PUSH9 0x10000000000000001 OR DUP6 SSTORE DUP6 PUSH2 0x1739 JUMP JUMPDEST PUSH1 0x4 PUSH1 0x40 MLOAD PUSH32 0xF92EE8A900000000000000000000000000000000000000000000000000000000 DUP2 MSTORE REVERT JUMPDEST SWAP1 POP ISZERO DUP8 PUSH2 0x1707 JUMP JUMPDEST ADDRESS EXTCODESIZE ISZERO SWAP2 POP PUSH2 0x16FF JUMP JUMPDEST POP DUP3 PUSH2 0x16F3 JUMP JUMPDEST CALLVALUE PUSH2 0x4C3 JUMPI PUSH1 0x20 PUSH1 0x3 NOT CALLDATASIZE ADD SLT PUSH2 0x4C3 JUMPI PUSH20 0xFFFFFFFFFFFFFFFFFFFFFFFFFFFFFFFFFFFFFFFF PUSH2 0x19A7 PUSH2 0x1AA3 JUMP JUMPDEST PUSH2 0x19AF PUSH2 0x1DE8 JUMP JUMPDEST AND PUSH32 0xFFFFFFFFFFFFFFFFFFFFFFFF0000000000000000000000000000000000000000 PUSH1 0x2 SLOAD AND OR PUSH1 0x2 SSTORE PUSH0 DUP1 RETURN JUMPDEST CALLVALUE PUSH2 0x4C3 JUMPI PUSH1 0x20 PUSH1 0x3 NOT CALLDATASIZE ADD SLT PUSH2 0x4C3 JUMPI PUSH20 0xFFFFFFFFFFFFFFFFFFFFFFFFFFFFFFFFFFFFFFFF PUSH2 0x1A0B PUSH2 0x1AA3 JUMP JUMPDEST PUSH2 0x1A13 PUSH2 0x1DE8 JUMP JUMPDEST AND PUSH32 0xFFFFFFFFFFFFFFFFFFFFFFFF0000000000000000000000000000000000000000 PUSH1 0x1 SLOAD AND OR PUSH1 0x1 SSTORE PUSH0 DUP1 RETURN JUMPDEST CALLVALUE PUSH2 0x4C3 JUMPI PUSH1 0x20 PUSH1 0x3 NOT CALLDATASIZE ADD SLT PUSH2 0x4C3 JUMPI PUSH20 0xFFFFFFFFFFFFFFFFFFFFFFFFFFFFFFFFFFFFFFFF PUSH2 0x1A6F PUSH2 0x1AA3 JUMP JUMPDEST PUSH2 0x1A77 PUSH2 0x1DE8 JUMP JUMPDEST AND PUSH32 0xFFFFFFFFFFFFFFFFFFFFFFFF0000000000000000000000000000000000000000 PUSH0 SLOAD AND OR PUSH0 SSTORE PUSH0 DUP1 RETURN JUMPDEST PUSH1 0x4 CALLDATALOAD SWAP1 PUSH20 0xFFFFFFFFFFFFFFFFFFFFFFFFFFFFFFFFFFFFFFFF DUP3 AND DUP3 SUB PUSH2 0x4C3 JUMPI JUMP JUMPDEST PUSH1 0x24 CALLDATALOAD SWAP1 PUSH20 0xFFFFFFFFFFFFFFFFFFFFFFFFFFFFFFFFFFFFFFFF DUP3 AND DUP3 SUB PUSH2 0x4C3 JUMPI JUMP JUMPDEST PUSH1 0x84 CALLDATALOAD SWAP1 PUSH20 0xFFFFFFFFFFFFFFFFFFFFFFFFFFFFFFFFFFFFFFFF DUP3 AND DUP3 SUB PUSH2 0x4C3 JUMPI JUMP JUMPDEST PUSH8 0xFFFFFFFFFFFFFFFF DUP2 GT PUSH2 0xF97 JUMPI PUSH1 0x40 MSTORE JUMP JUMPDEST PUSH1 0x60 DUP2 ADD SWAP1 DUP2 LT PUSH8 0xFFFFFFFFFFFFFFFF DUP3 GT OR PUSH2 0xF97 JUMPI PUSH1 0x40 MSTORE JUMP JUMPDEST SWAP1 PUSH1 0x1F PUSH32 0xFFFFFFFFFFFFFFFFFFFFFFFFFFFFFFFFFFFFFFFFFFFFFFFFFFFFFFFFFFFFFFE0 SWAP2 ADD AND DUP2 ADD SWAP1 DUP2 LT PUSH8 0xFFFFFFFFFFFFFFFF DUP3 GT OR PUSH2 0xF97 JUMPI PUSH1 0x40 MSTORE JUMP JUMPDEST PUSH8 0xFFFFFFFFFFFFFFFF DUP2 GT PUSH2 0xF97 JUMPI PUSH1 0x1F ADD PUSH32 0xFFFFFFFFFFFFFFFFFFFFFFFFFFFFFFFFFFFFFFFFFFFFFFFFFFFFFFFFFFFFFFE0 AND PUSH1 0x20 ADD SWAP1 JUMP JUMPDEST SWAP1 DUP2 PUSH1 0x20 SWAP2 SUB SLT PUSH2 0x4C3 JUMPI MLOAD PUSH20 0xFFFFFFFFFFFFFFFFFFFFFFFFFFFFFFFFFFFFFFFF DUP2 AND DUP2 SUB PUSH2 0x4C3 JUMPI SWAP1 JUMP JUMPDEST SWAP2 SWAP1 DUP3 ADD DUP1 SWAP3 GT PUSH2 0x1076 JUMPI JUMP JUMPDEST PUSH8 0xFFFFFFFFFFFFFFFF DUP2 GT PUSH2 0xF97 JUMPI PUSH1 0x5 SHL PUSH1 0x20 ADD SWAP1 JUMP JUMPDEST DUP1 MLOAD ISZERO PUSH2 0x1C15 JUMPI PUSH1 0x20 ADD SWAP1 JUMP JUMPDEST PUSH32 0x4E487B7100000000000000000000000000000000000000000000000000000000 PUSH0 MSTORE PUSH1 0x32 PUSH1 0x4 MSTORE PUSH1 0x24 PUSH0 REVERT JUMPDEST DUP1 MLOAD PUSH1 0x1 LT ISZERO PUSH2 0x1C15 JUMPI PUSH1 0x40 ADD SWAP1 JUMP JUMPDEST DUP1 MLOAD DUP3 LT ISZERO PUSH2 0x1C15 JUMPI PUSH1 0x20 SWAP2 PUSH1 0x5 SHL ADD ADD SWAP1 JUMP JUMPDEST SWAP1 DUP2 PUSH1 0x20 SWAP2 SUB SLT PUSH2 0x4C3 JUMPI MLOAD DUP1 ISZERO ISZERO DUP2 SUB PUSH2 0x4C3 JUMPI SWAP1 JUMP JUMPDEST SWAP2 SWAP1 DUP3 SUB SWAP2 DUP3 GT PUSH2 0x1076 JUMPI JUMP JUMPDEST ISZERO PUSH2 0x1C92 JUMPI JUMP JUMPDEST PUSH1 0x64 PUSH1 0x40 MLOAD PUSH32 0x8C379A000000000000000000000000000000000000000000000000000000000 DUP2 MSTORE PUSH1 0x20 PUSH1 0x4 DUP3 ADD MSTORE PUSH1 0x1A PUSH1 0x24 DUP3 ADD MSTORE PUSH32 0x496E73756666696369656E74206F757470757420616D6F756E74000000000000 PUSH1 0x44 DUP3 ADD MSTORE REVERT JUMPDEST DUP2 ISZERO PUSH2 0x1CFA JUMPI DIV SWAP1 JUMP JUMPDEST PUSH32 0x4E487B7100000000000000000000000000000000000000000000000000000000 PUSH0 MSTORE PUSH1 0x12 PUSH1 0x4 MSTORE PUSH1 0x24 PUSH0 REVERT JUMPDEST PUSH20 0xFFFFFFFFFFFFFFFFFFFFFFFFFFFFFFFFFFFFFFFF DUP1 SWAP2 AND SWAP1 DUP2 ISZERO PUSH2 0x1DB8 JUMPI PUSH32 0x9016D09D72D40FDAE2FD8CEAC6B6234C7706214FD39C1CD1E609A0528C199300 DUP1 SLOAD SWAP1 DUP4 PUSH32 0xFFFFFFFFFFFFFFFFFFFFFFFF0000000000000000000000000000000000000000 DUP4 AND OR SWAP1 SSTORE AND PUSH32 0x8BE0079C531659141344CD1FD0A4F28419497F9722A3DAAFE3B4186F6B6457E0 PUSH0 DUP1 LOG3 JUMP JUMPDEST PUSH1 0x24 PUSH1 0x40 MLOAD PUSH32 0x1E4FBDF700000000000000000000000000000000000000000000000000000000 DUP2 MSTORE PUSH0 PUSH1 0x4 DUP3 ADD MSTORE REVERT JUMPDEST PUSH20 0xFFFFFFFFFFFFFFFFFFFFFFFFFFFFFFFFFFFFFFFF PUSH32 0x9016D09D72D40FDAE2FD8CEAC6B6234C7706214FD39C1CD1E609A0528C199300 SLOAD AND CALLER SUB PUSH2 0x1E28 JUMPI JUMP JUMPDEST PUSH1 0x24 PUSH1 0x40 MLOAD PUSH32 0x118CDAA700000000000000000000000000000000000000000000000000000000 DUP2 MSTORE CALLER PUSH1 0x4 DUP3 ADD MSTORE REVERT JUMPDEST PUSH32 0x9B779B17422D0DF92223018B32B4D1FA46E071723D6817E2486D003BECC55F00 PUSH1 0x2 DUP2 SLOAD EQ PUSH2 0x1E88 JUMPI PUSH1 0x2 SWAP1 SSTORE JUMP JUMPDEST PUSH1 0x4 PUSH1 0x40 MLOAD PUSH32 0x3EE5AEB500000000000000000000000000000000000000000000000000000000 DUP2 MSTORE REVERT JUMPDEST SWAP2 SWAP4 SWAP3 PUSH20 0xFFFFFFFFFFFFFFFFFFFFFFFFFFFFFFFFFFFFFFFF SWAP1 DUP2 PUSH0 SLOAD AND SWAP1 PUSH1 0x40 SWAP5 DUP6 MLOAD SWAP5 DUP6 SWAP4 PUSH32 0x6C9C007800000000000000000000000000000000000000000000000000000000 DUP6 MSTORE DUP5 PUSH1 0x4 PUSH1 0x20 SWAP9 DUP10 SWAP4 GAS STATICCALL SWAP4 DUP5 ISZERO PUSH2 0x2180 JUMPI SWAP1 DUP6 SWAP2 PUSH0 SWAP6 PUSH2 0x215F JUMPI JUMPDEST POP DUP2 AND SWAP2 AND SWAP2 DUP2 DUP4 EQ PUSH2 0x2156 JUMPI PUSH1 0x1 SLOAD DUP8 MLOAD PUSH32 0x95EA7B300000000000000000000000000000000000000000000000000000000 DUP2 MSTORE SWAP1 DUP7 AND PUSH20 0xFFFFFFFFFFFFFFFFFFFFFFFFFFFFFFFFFFFFFFFF AND PUSH1 0x4 DUP3 ADD MSTORE PUSH1 0x24 DUP2 ADD DUP11 SWAP1 MSTORE SWAP9 DUP7 DUP11 PUSH1 0x44 DUP2 PUSH0 DUP9 GAS CALL SWAP10 DUP11 ISZERO PUSH2 0x214C JUMPI DUP8 SWAP9 SWAP10 SWAP11 SWAP8 SWAP7 SWAP8 PUSH2 0x212F JUMPI JUMPDEST POP PUSH0 DUP7 DUP9 PUSH1 0x84 DUP2 PUSH1 0x1 SLOAD AND SWAP6 DUP14 MLOAD SWAP5 DUP6 SWAP4 DUP5 SWAP3 PUSH32 0x2D6BC8EA00000000000000000000000000000000000000000000000000000000 DUP5 MSTORE DUP12 PUSH1 0x4 DUP6 ADD MSTORE DUP11 PUSH1 0x24 DUP6 ADD MSTORE DUP9 PUSH1 0x44 DUP6 ADD MSTORE AND SWAP8 DUP9 PUSH1 0x64 DUP5 ADD MSTORE GAS CALL PUSH0 SWAP2 DUP2 PUSH2 0x20FE JUMPI JUMPDEST POP PUSH2 0x20F0 JUMPI POP SWAP2 PUSH0 SWAP2 PUSH1 0xA4 SWAP5 SWAP4 DUP9 PUSH1 0x1 SLOAD AND SWAP3 DUP12 MLOAD SWAP10 DUP11 SWAP9 DUP10 SWAP8 PUSH32 0x5EFAAEBB00000000000000000000000000000000000000000000000000000000 DUP10 MSTORE PUSH1 0x4 DUP10 ADD MSTORE AND PUSH1 0x24 DUP8 ADD MSTORE PUSH1 0x44 DUP7 ADD MSTORE PUSH1 0x64 DUP6 ADD MSTORE PUSH1 0x84 DUP5 ADD MSTORE GAS CALL SWAP1 DUP2 ISZERO PUSH2 0x20E6 JUMPI PUSH0 SWAP2 PUSH2 0x20B9 JUMPI JUMPDEST POP SWAP2 JUMPDEST DUP3 ISZERO PUSH2 0x205C JUMPI POP POP SWAP1 JUMP JUMPDEST PUSH1 0x64 SWAP3 POP MLOAD SWAP1 PUSH32 0x8C379A000000000000000000000000000000000000000000000000000000000 DUP3 MSTORE PUSH1 0x4 DUP3 ADD MSTORE PUSH1 0xB PUSH1 0x24 DUP3 ADD MSTORE PUSH32 0x53776170206661696C6564000000000000000000000000000000000000000000 PUSH1 0x44 DUP3 ADD MSTORE REVERT JUMPDEST SWAP1 POP DUP2 DUP2 DUP2 RETURNDATASIZE DUP4 GT PUSH2 0x20DF JUMPI JUMPDEST PUSH2 0x20D0 DUP2 DUP4 PUSH2 0x1B3C JUMP JUMPDEST DUP2 ADD SUB SLT PUSH2 0x4C3 JUMPI MLOAD PUSH0 PUSH2 0x204E JUMP JUMPDEST POP RETURNDATASIZE PUSH2 0x20C6 JUMP JUMPDEST DUP4 MLOAD RETURNDATASIZE PUSH0 DUP3 RETURNDATACOPY RETURNDATASIZE SWAP1 REVERT JUMPDEST SWAP7 POP POP POP POP POP POP POP SWAP2 PUSH2 0x2051 JUMP JUMPDEST DUP9 DUP2 SWAP10 SWAP3 SWAP4 POP RETURNDATASIZE DUP4 GT PUSH2 0x2128 JUMPI JUMPDEST PUSH2 0x2116 DUP2 DUP4 PUSH2 0x1B3C JUMP JUMPDEST DUP2 ADD SUB SLT PUSH2 0x4C3 JUMPI DUP9 SWAP7 MLOAD SWAP1 PUSH0 PUSH2 0x1FE7 JUMP JUMPDEST POP RETURNDATASIZE PUSH2 0x210C JUMP JUMPDEST PUSH2 0x2145 SWAP1 DUP8 RETURNDATASIZE DUP10 GT PUSH2 0x3EF JUMPI PUSH2 0x3E0 DUP2 DUP4 PUSH2 0x1B3C JUMP JUMPDEST POP PUSH0 PUSH2 0x1F8D JUMP JUMPDEST DUP9 MLOAD RETURNDATASIZE PUSH0 DUP3 RETURNDATACOPY RETURNDATASIZE SWAP1 REVERT JUMPDEST POP POP POP POP POP POP POP JUMP JUMPDEST DUP3 SWAP2 SWAP6 POP PUSH2 0x2179 SWAP1 DUP9 RETURNDATASIZE DUP11 GT PUSH2 0x5FD JUMPI PUSH2 0x5EF DUP2 DUP4 PUSH2 0x1B3C JUMP JUMPDEST SWAP5 SWAP1 PUSH2 0x1F16 JUMP JUMPDEST DUP8 MLOAD RETURNDATASIZE PUSH0 DUP3 RETURNDATACOPY RETURNDATASIZE SWAP1 REVERT JUMPDEST PUSH1 0xFF PUSH32 0xF0C57E16840DF040F15088DC2F81FE391C3923BEC73E23A9662EFC9C229C6A00 SLOAD PUSH1 0x40 SHR AND ISZERO PUSH2 0x21B9 JUMPI JUMP JUMPDEST PUSH1 0x4 PUSH1 0x40 MLOAD PUSH32 0xD7E6BCF800000000000000000000000000000000000000000000000000000000 DUP2 MSTORE REVERT JUMPDEST SWAP1 PUSH2 0x2222 JUMPI POP DUP1 MLOAD ISZERO PUSH2 0x21F8 JUMPI DUP1 MLOAD SWAP1 PUSH1 0x20 ADD REVERT JUMPDEST PUSH1 0x4 PUSH1 0x40 MLOAD PUSH32 0x1425EA4200000000000000000000000000000000000000000000000000000000 DUP2 MSTORE REVERT JUMPDEST DUP2 MLOAD ISZERO DUP1 PUSH2 0x227A JUMPI JUMPDEST PUSH2 0x2233 JUMPI POP SWAP1 JUMP JUMPDEST PUSH1 0x24 SWAP1 PUSH20 0xFFFFFFFFFFFFFFFFFFFFFFFFFFFFFFFFFFFFFFFF PUSH1 0x40 MLOAD SWAP2 PUSH32 0x9996B31500000000000000000000000000000000000000000000000000000000 DUP4 MSTORE AND PUSH1 0x4 DUP3 ADD MSTORE REVERT JUMPDEST POP DUP1 EXTCODESIZE ISZERO PUSH2 0x222B JUMP INVALID LOG2 PUSH5 0x6970667358 0x22 SLT KECCAK256 SELFDESTRUCT 0xDE DIV PUSH32 0x4C06C7F768BF5D19483E84DDFF2D85608DB17F69446E6E65F2EE9A9B64736F6C PUSH4 0x43000819 STOP CALLER "},"gasEstimates":{"creation":{"codeDepositCost":"1777800","executionCost":"infinite","totalCost":"infinite"},"external":{"UPGRADE_INTERFACE_VERSION()":"607","WETH9()":"2345","baluniHyperUniProxy()":"2477","baluniSwapper()":"2455","changeRegistry(address)":"26561","changeSwapper(address)":"26585","changeUniProxy(address)":"26607","initialize(address,address)":"infinite","owner()":"2499","proxiableUUID()":"infinite","registry()":"2432","renounceOwnership()":"28167","transferOwnership(address)":"28463","upgradeToAndCall(address,bytes)":"infinite","zapIn(address,address,uint256,uint256,address)":"infinite","zapOut(address,uint256,address,uint256,address)":"infinite"},"internal":{"_authorizeUpgrade(address)":"infinite","_swap(address,address,uint256,address)":"infinite"}},"methodIdentifiers":{"UPGRADE_INTERFACE_VERSION()":"ad3cb1cc","WETH9()":"4aa4a4fc","baluniHyperUniProxy()":"8af90292","baluniSwapper()":"7dfb7ea1","changeRegistry(address)":"15554c55","changeSwapper(address)":"3ebb287c","changeUniProxy(address)":"45b1cb80","initialize(address,address)":"485cc955","owner()":"8da5cb5b","proxiableUUID()":"52d1902d","registry()":"7b103999","renounceOwnership()":"715018a6","transferOwnership(address)":"f2fde38b","upgradeToAndCall(address,bytes)":"4f1ef286","zapIn(address,address,uint256,uint256,address)":"b487c54a","zapOut(address,uint256,address,uint256,address)":"b1aa8cd1"}},"storageLayout":{"storage":[{"astId":3399,"contract":"contracts/managers/BaluniV1HyperPoolZap.sol:BaluniV1PoolZap","label":"registry","offset":0,"slot":"0","type":"t_contract(IBaluniV1Registry)3337"},{"astId":3402,"contract":"contracts/managers/BaluniV1HyperPoolZap.sol:BaluniV1PoolZap","label":"baluniSwapper","offset":0,"slot":"1","type":"t_contract(IBaluniV1Swapper)3368"},{"astId":3405,"contract":"contracts/managers/BaluniV1HyperPoolZap.sol:BaluniV1PoolZap","label":"baluniHyperUniProxy","offset":0,"slot":"2","type":"t_contract(IBaluniV1HyperUniProxy)2822"},{"astId":3407,"contract":"contracts/managers/BaluniV1HyperPoolZap.sol:BaluniV1PoolZap","label":"WETH9","offset":0,"slot":"3","type":"t_address"}],"types":{"t_address":{"encoding":"inplace","label":"address","numberOfBytes":"20"},"t_contract(IBaluniV1HyperUniProxy)2822":{"encoding":"inplace","label":"contract IBaluniV1HyperUniProxy","numberOfBytes":"20"},"t_contract(IBaluniV1Registry)3337":{"encoding":"inplace","label":"contract IBaluniV1Registry","numberOfBytes":"20"},"t_contract(IBaluniV1Swapper)3368":{"encoding":"inplace","label":"contract IBaluniV1Swapper","numberOfBytes":"20"}}},"userdoc":{"kind":"user","methods":{},"version":1}}}}