{"contracts/BaluniV1PoolPeriphery.sol":{"BaluniV1PoolPeriphery":{"abi":[{"inputs":[{"internalType":"address","name":"target","type":"address"}],"name":"AddressEmptyCode","type":"error"},{"inputs":[{"internalType":"address","name":"implementation","type":"address"}],"name":"ERC1967InvalidImplementation","type":"error"},{"inputs":[],"name":"ERC1967NonPayable","type":"error"},{"inputs":[],"name":"FailedInnerCall","type":"error"},{"inputs":[],"name":"InvalidInitialization","type":"error"},{"inputs":[],"name":"NotInitializing","type":"error"},{"inputs":[{"internalType":"address","name":"owner","type":"address"}],"name":"OwnableInvalidOwner","type":"error"},{"inputs":[{"internalType":"address","name":"account","type":"address"}],"name":"OwnableUnauthorizedAccount","type":"error"},{"inputs":[],"name":"UUPSUnauthorizedCallContext","type":"error"},{"inputs":[{"internalType":"bytes32","name":"slot","type":"bytes32"}],"name":"UUPSUnsupportedProxiableUUID","type":"error"},{"anonymous":false,"inputs":[{"indexed":false,"internalType":"uint64","name":"version","type":"uint64"}],"name":"Initialized","type":"event"},{"anonymous":false,"inputs":[{"indexed":true,"internalType":"address","name":"previousOwner","type":"address"},{"indexed":true,"internalType":"address","name":"newOwner","type":"address"}],"name":"OwnershipTransferred","type":"event"},{"anonymous":false,"inputs":[{"indexed":true,"internalType":"address","name":"implementation","type":"address"}],"name":"Upgraded","type":"event"},{"inputs":[],"name":"UPGRADE_INTERFACE_VERSION","outputs":[{"internalType":"string","name":"","type":"string"}],"stateMutability":"view","type":"function"},{"inputs":[{"internalType":"uint256[]","name":"amounts","type":"uint256[]"},{"internalType":"address","name":"poolAddress","type":"address"},{"internalType":"address","name":"receiver","type":"address"}],"name":"addLiquidity","outputs":[],"stateMutability":"nonpayable","type":"function"},{"inputs":[{"internalType":"address[]","name":"fromTokens","type":"address[]"},{"internalType":"address[]","name":"toTokens","type":"address[]"},{"internalType":"uint256[]","name":"amounts","type":"uint256[]"},{"internalType":"address[]","name":"receivers","type":"address[]"}],"name":"batchSwap","outputs":[{"internalType":"uint256[]","name":"","type":"uint256[]"}],"stateMutability":"nonpayable","type":"function"},{"inputs":[{"internalType":"address","name":"_poolFactory","type":"address"}],"name":"changePoolFactory","outputs":[],"stateMutability":"nonpayable","type":"function"},{"inputs":[{"internalType":"address","name":"fromToken","type":"address"},{"internalType":"address","name":"toToken","type":"address"},{"internalType":"uint256","name":"amount","type":"uint256"}],"name":"getAmountOut","outputs":[{"internalType":"uint256","name":"","type":"uint256"}],"stateMutability":"view","type":"function"},{"inputs":[{"internalType":"address","name":"token","type":"address"}],"name":"getPoolsContainingToken","outputs":[{"internalType":"address[]","name":"","type":"address[]"}],"stateMutability":"view","type":"function"},{"inputs":[],"name":"getVersion","outputs":[{"internalType":"uint64","name":"","type":"uint64"}],"stateMutability":"view","type":"function"},{"inputs":[{"internalType":"address","name":"_poolFactory","type":"address"}],"name":"initialize","outputs":[],"stateMutability":"nonpayable","type":"function"},{"inputs":[],"name":"moveAll","outputs":[],"stateMutability":"nonpayable","type":"function"},{"inputs":[{"internalType":"address","name":"asset","type":"address"},{"internalType":"address","name":"to","type":"address"},{"internalType":"uint256","name":"amount","type":"uint256"}],"name":"moveAsset","outputs":[],"stateMutability":"nonpayable","type":"function"},{"inputs":[],"name":"owner","outputs":[{"internalType":"address","name":"","type":"address"}],"stateMutability":"view","type":"function"},{"inputs":[{"internalType":"address","name":"poolAddress","type":"address"}],"name":"performRebalanceIfNeeded","outputs":[],"stateMutability":"nonpayable","type":"function"},{"inputs":[],"name":"poolFactory","outputs":[{"internalType":"contract IBaluniV1PoolFactory","name":"","type":"address"}],"stateMutability":"view","type":"function"},{"inputs":[],"name":"proxiableUUID","outputs":[{"internalType":"bytes32","name":"","type":"bytes32"}],"stateMutability":"view","type":"function"},{"inputs":[{"internalType":"address","name":"_poolFactory","type":"address"},{"internalType":"uint64","name":"version","type":"uint64"}],"name":"reinitialize","outputs":[],"stateMutability":"nonpayable","type":"function"},{"inputs":[{"internalType":"uint256","name":"share","type":"uint256"},{"internalType":"address","name":"poolAddress","type":"address"},{"internalType":"address","name":"receiver","type":"address"}],"name":"removeLiquidity","outputs":[],"stateMutability":"nonpayable","type":"function"},{"inputs":[],"name":"renounceOwnership","outputs":[],"stateMutability":"nonpayable","type":"function"},{"inputs":[{"internalType":"address","name":"fromToken","type":"address"},{"internalType":"address","name":"toToken","type":"address"},{"internalType":"uint256","name":"amount","type":"uint256"},{"internalType":"address","name":"receiver","type":"address"}],"name":"smartSwap","outputs":[{"internalType":"uint256","name":"","type":"uint256"}],"stateMutability":"nonpayable","type":"function"},{"inputs":[{"internalType":"address","name":"fromToken","type":"address"},{"internalType":"address","name":"toToken","type":"address"},{"internalType":"uint256","name":"amount","type":"uint256"},{"internalType":"address","name":"receiver","type":"address"}],"name":"swap","outputs":[{"internalType":"uint256","name":"","type":"uint256"}],"stateMutability":"nonpayable","type":"function"},{"inputs":[{"internalType":"address","name":"newOwner","type":"address"}],"name":"transferOwnership","outputs":[],"stateMutability":"nonpayable","type":"function"},{"inputs":[{"internalType":"address","name":"newImplementation","type":"address"},{"internalType":"bytes","name":"data","type":"bytes"}],"name":"upgradeToAndCall","outputs":[],"stateMutability":"payable","type":"function"}],"devdoc":{"details":"This contract serves as the periphery contract for interacting with BaluniV1Pool contracts. It provides functions for swapping tokens, adding liquidity, removing liquidity, and getting the amount out for a given swap.","errors":{"AddressEmptyCode(address)":[{"details":"There's no code at `target` (it is not a contract)."}],"ERC1967InvalidImplementation(address)":[{"details":"The `implementation` of the proxy is invalid."}],"ERC1967NonPayable()":[{"details":"An upgrade function sees `msg.value > 0` that may be lost."}],"FailedInnerCall()":[{"details":"A call to an address target failed. The target may have reverted."}],"InvalidInitialization()":[{"details":"The contract is already initialized."}],"NotInitializing()":[{"details":"The contract is not initializing."}],"OwnableInvalidOwner(address)":[{"details":"The owner is not a valid owner account. (eg. `address(0)`)"}],"OwnableUnauthorizedAccount(address)":[{"details":"The caller account is not authorized to perform an operation."}],"UUPSUnauthorizedCallContext()":[{"details":"The call is from an unauthorized context."}],"UUPSUnsupportedProxiableUUID(bytes32)":[{"details":"The storage `slot` is unsupported as a UUID."}]},"events":{"Initialized(uint64)":{"details":"Triggered when the contract has been initialized or reinitialized."},"Upgraded(address)":{"details":"Emitted when the implementation is upgraded."}},"kind":"dev","methods":{"addLiquidity(uint256[],address,address)":{"details":"Adds liquidity to a BaluniV1Pool.","params":{"amounts":"An array of amounts for each asset to add as liquidity."}},"batchSwap(address[],address[],uint256[],address[])":{"details":"Performs batch swaps between multiple token pairs.","params":{"amounts":"An array of amounts representing the amounts to swap.","fromTokens":"An array of addresses representing the tokens to swap from.","receivers":"An array of addresses representing the receivers of the swapped tokens.","toTokens":"An array of addresses representing the tokens to swap to."},"returns":{"_0":"An array of amounts representing the amounts of tokens received after the swaps."}},"changePoolFactory(address)":{"details":"Changes the address of the pool factory contract. Can only be called by the contract owner.","params":{"_poolFactory":"The new address of the pool factory contract."}},"getAmountOut(address,address,uint256)":{"details":"Gets the amount of tokens received after a swap in a BaluniV1Pool.","params":{"amount":"The amount of tokens to swap.","fromToken":"The address of the token to swap from.","toToken":"The address of the token to swap to."},"returns":{"_0":"The amount of tokens received after the swap."}},"getPoolsContainingToken(address)":{"details":"Returns an array of pool addresses that contain the given token.","params":{"token":"The address of the token to search for."},"returns":{"_0":"An array of pool addresses."}},"getVersion()":{"details":"Returns the version of the contract.","returns":{"_0":"The version string."}},"initialize(address)":{"details":"Initializes the contract by setting the pool factory address.","params":{"_poolFactory":"The address of the BaluniV1PoolFactory contract."}},"owner()":{"details":"Returns the address of the current owner."},"performRebalanceIfNeeded(address)":{"details":"Performs rebalance if needed for the given tokens.","params":{"poolAddress":"The address of the token pool to rebalance."}},"proxiableUUID()":{"details":"Implementation of the ERC1822 {proxiableUUID} function. This returns the storage slot used by the implementation. It is used to validate the implementation's compatibility when performing an upgrade. IMPORTANT: A proxy pointing at a proxiable contract should not be considered proxiable itself, because this risks bricking a proxy that upgrades to it, by delegating to itself until out of gas. Thus it is critical that this function revert if invoked through a proxy. This is guaranteed by the `notDelegated` modifier."},"reinitialize(address,uint64)":{"details":"Initializes the contract by setting the pool factory address.","params":{"_poolFactory":"The address of the BaluniV1PoolFactory contract."}},"removeLiquidity(uint256,address,address)":{"details":"Removes liquidity from a BaluniV1Pool.","params":{"poolAddress":"The address of the BaluniV1Pool.","share":"The amount of liquidity tokens to remove."}},"renounceOwnership()":{"details":"Leaves the contract without owner. It will not be possible to call `onlyOwner` functions. Can only be called by the current owner. NOTE: Renouncing ownership will leave the contract without an owner, thereby disabling any functionality that is only available to the owner."},"swap(address,address,uint256,address)":{"details":"Swaps tokens in a BaluniV1Pool.","params":{"amount":"The amount of tokens to swap.","fromToken":"The address of the token to swap from.","toToken":"The address of the token to swap to."},"returns":{"_0":"The amount of tokens received after the swap."}},"transferOwnership(address)":{"details":"Transfers ownership of the contract to a new account (`newOwner`). Can only be called by the current owner."},"upgradeToAndCall(address,bytes)":{"custom:oz-upgrades-unsafe-allow-reachable":"delegatecall","details":"Upgrade the implementation of the proxy to `newImplementation`, and subsequently execute the function call encoded in `data`. Calls {_authorizeUpgrade}. Emits an {Upgraded} event."}},"title":"BaluniV1PoolPeriphery","version":1},"evm":{"bytecode":{"linkReferences":{},"object":"60a0806040523460295730608052612f5c908161002e823960805181818161230401526124250152f35b5f80fdfe6080806040526004361015610012575f80fd5b5f905f3560e01c9081630d8e6e2c14612840575080634219dc40146127f05780634aa06652146126885780634f1ef2861461237e57806352d1902d146122bf5780635568081a1461220e5780636e81221c14611f69578063715018a614611eab57806372591be514611e2b5780637442eca6146117975780638da5cb5b146117265780638f2248bc146115d0578063ad3cb1cc146114e1578063ae3cce1c146113e2578063b997352714611168578063c4d66de814610f74578063e3898e9514610dfc578063e74e9b06146107d6578063ec0cd2eb14610565578063f2fde38b1461051a5763f31abcc414610105575f80fd5b346102da5760607ffffffffffffffffffffffffffffffffffffffffffffffffffffffffffffffffc3601126102da57600435906101406128c4565b916101496128e7565b81156104bc576040517fdd62ed3e00000000000000000000000000000000000000000000000000000000815233600482015230602482015260209473ffffffffffffffffffffffffffffffffffffffff8082169490929091908781604481895afa90811561042257908391889161048b575b501061042d576040517f70a082310000000000000000000000000000000000000000000000000000000081523360048201528781602481895afa9081156104225790839188916103ed575b501061038f576040517f23b872dd00000000000000000000000000000000000000000000000000000000815233600482015273ffffffffffffffffffffffffffffffffffffffff9190911660248201526044810191909152858160648188885af190811561038457859161034b575b50156102ed57839450823b156102e857602484928360405195869485937f89afcb440000000000000000000000000000000000000000000000000000000085521660048401525af180156102dd576102ca5750f35b6102d39061296a565b6102da5780f35b80fd5b6040513d84823e3d90fd5b505050fd5b606485604051907f08c379a00000000000000000000000000000000000000000000000000000000082526004820152600f60248201527f5472616e73666572206661696c656400000000000000000000000000000000006044820152fd5b90508581813d831161037d575b610362818361297e565b810103126103795761037390612b1d565b5f610275565b8480fd5b503d610358565b6040513d87823e3d90fd5b606487604051907f08c379a00000000000000000000000000000000000000000000000000000000082526004820152601460248201527f496e73756666696369656e742062616c616e63650000000000000000000000006044820152fd5b809250898092503d831161041b575b610406818361297e565b81010312610417578290515f610206565b5f80fd5b503d6103fc565b6040513d89823e3d90fd5b606487604051907f08c379a00000000000000000000000000000000000000000000000000000000082526004820152601660248201527f496e73756666696369656e7420616c6c6f77616e6365000000000000000000006044820152fd5b809250898092503d83116104b5575b6104a4818361297e565b81010312610417578290515f6101bb565b503d61049a565b60646040517f08c379a000000000000000000000000000000000000000000000000000000000815260206004820152601f60248201527f5368617265206d7573742062652067726561746572207468616e207a65726f006044820152fd5b50346102da5760207ffffffffffffffffffffffffffffffffffffffffffffffffffffffffffffffffc3601126102da576105626105556128a1565b61055d612dbd565b612cfc565b80f35b50346102da5760607ffffffffffffffffffffffffffffffffffffffffffffffffffffffffffffffffc3601126102da5760043567ffffffffffffffff81116107d2576105b5903690600401612a66565b90916105bf6128c4565b916105c86128e7565b6040517f67e4ac2c00000000000000000000000000000000000000000000000000000000815273ffffffffffffffffffffffffffffffffffffffff94851694918482600481895afa9182156103845785926107ae575b50845b82518110156106f257836106358285612bc4565b511661069361064583888c612ccb565b6040517f23b872dd00000000000000000000000000000000000000000000000000000000815233600482015230602482015290356044820152916020918291849182908c9082906064820190565b03925af180156106e7576106ac575b5050600101610621565b81813d83116106e0575b6106c0818361297e565b810103126106dc57906106d4600192612b1d565b50905f6106a2565b8680fd5b503d6106b6565b6040513d8a823e3d90fd5b8582818a8a8989604051957fde836ebd000000000000000000000000000000000000000000000000000000008752166004860152604060248601528060448601527f07ffffffffffffffffffffffffffffffffffffffffffffffffffffffffffffff81116107aa576020936064868095819460051b80918484013781010301925af180156102dd57610782575080f35b602090813d83116107a3575b610798818361297e565b810103126104175780f35b503d61078e565b8380fd5b6107cb9192503d8087833e6107c3818361297e565b810190612b42565b905f61061e565b5080fd5b50346102da5760807ffffffffffffffffffffffffffffffffffffffffffffffffffffffffffffffffc3601126102da5767ffffffffffffffff600435818111610df857610827903690600401612a66565b909160243581811161037957610841903690600401612a66565b916044358181116106dc5761085a903690600401612a66565b9091606435908111610df457610874903690600401612a66565b9285871480610deb575b80610de2575b15610d845761089887999798969598612b2a565b976108a6604051998a61297e565b8989527fffffffffffffffffffffffffffffffffffffffffffffffffffffffffffffffe06108d38b612b2a565b013660208b013787995b808b1061092a578989604051918291602083016020845282518091526020604085019301915b818110610911575050500390f35b8251845285945060209384019390920191600101610903565b8a8960206109cc73ffffffffffffffffffffffffffffffffffffffff839f8d9f9e9c9d81886109739261096e8f610978968f9161096692612ccb565b351515612ab8565b612ccb565b612cdb565b16610984858b8a612ccb565b6040517f23b872dd0000000000000000000000000000000000000000000000000000000081523360048201523060248201529035604482015293849283919082906064820190565b03925af1908115610c445782848b8f938e95610d0d575b5061097383610a18610973610a7998966020989673ffffffffffffffffffffffffffffffffffffffff610a1f97541697612ccb565b948a612ccb565b6040517f2d5e94a700000000000000000000000000000000000000000000000000000000815273ffffffffffffffffffffffffffffffffffffffff9384166004820152921660248301529092839190829081906044820190565b03915afa908115610c445782848e8c938495610c9f575b50610ab9610973602094610b1d9473ffffffffffffffffffffffffffffffffffffffff94612ccb565b16610ac5868c8b612ccb565b6040517f095ea7b300000000000000000000000000000000000000000000000000000000815273ffffffffffffffffffffffffffffffffffffffff871660048201529035602482015293849283919082906044820190565b03925af18015610c9457848e8592610c4f575b610b3a9350612ccb565b610b4390612cdb565b90610b4f838c87612ccb565b610b5890612cdb565b610b63848a89612ccb565b3590610b70858c8b612ccb565b610b7990612cdb565b6040517f6e81221c00000000000000000000000000000000000000000000000000000000815273ffffffffffffffffffffffffffffffffffffffff95861660048201529185166024830152604482019290925290831660648201529116816084818c5a94602095f1908115610c44578991610c0c575b5090600191610bfe828d612bc4565b52019a5098969597986108dd565b919850506020813d602011610c3c575b81610c296020938361297e565b8101031261041757518b97906001610bef565b3d9150610c1c565b6040513d8b823e3d90fd5b5050506020813d602011610c8c575b81610c6b6020938361297e565b81010312610c885782848e610c82610b3a94612b1d565b50610b30565b8980fd5b3d9150610c5e565b6040513d8c823e3d90fd5b9450505050506020813d602011610d05575b81610cbe6020938361297e565b81010312610d0157886020610b1d73ffffffffffffffffffffffffffffffffffffffff8f946109738789610cf4610ab994612a97565b9894509450945050610a90565b8880fd5b3d9150610cb1565b9450505050506020813d602011610d7c575b81610d2c6020938361297e565b81010312610d015760208a8d610a1f61097386610a188f828b73ffffffffffffffffffffffffffffffffffffffff61097393610d6a610a799d612b1d565b509750509698505050509395506109e3565b3d9150610d1f565b60646040517f08c379a000000000000000000000000000000000000000000000000000000000815260206004820152601c60248201527f496e70757420617272617973206c656e677468206d69736d61746368000000006044820152fd5b50838314610884565b5082861461087e565b8780fd5b8280fd5b50346102da57610e0b3661290a565b9173ffffffffffffffffffffffffffffffffffffffff9184838154169360405180957f89345efb00000000000000000000000000000000000000000000000000000000825233600483015281602460209889935afa908115610f1f578391610f2a575b5091610ed9969391610e81879694612c66565b6040518098819682957fa9059cbb000000000000000000000000000000000000000000000000000000008452600484016020909392919373ffffffffffffffffffffffffffffffffffffffff60408201951681520152565b0393165af18015610f1f57610eec578280f35b81813d8311610f18575b610f00818361297e565b810103126107d257610f1190612b1d565b505f808280f35b503d610ef6565b6040513d85823e3d90fd5b94929050858581989593983d8311610f6d575b610f47818361297e565b810103126102da57610ed996610e81610f608897612b1d565b9294965050919396610e6e565b503d610f3d565b50346102da5760207ffffffffffffffffffffffffffffffffffffffffffffffffffffffffffffffffc3601126102da57610fac6128a1565b7ff0c57e16840df040f15088dc2f81fe391c3923bec73e23a9662efc9c229c6a0090815460ff8160401c16159167ffffffffffffffff821680159081611160575b6001149081611156575b15908161114d575b5061112357818360017fffffffffffffffffffffffffffffffffffffffffffffffff000000000000000073ffffffffffffffffffffffffffffffffffffffff95161786556110ee575b50611051612e2d565b611059612e2d565b611061612e2d565b61106a33612cfc565b167fffffffffffffffffffffffff000000000000000000000000000000000000000084541617835561109a575080f35b7fffffffffffffffffffffffffffffffffffffffffffffff00ffffffffffffffff81541690557fc7f505b2f371ae2175ee4913f4499e1f2633a7b5936321eed1cdaeb6115181d2602060405160018152a180f35b7fffffffffffffffffffffffffffffffffffffffffffffff00000000000000000016680100000000000000011784555f611048565b60046040517ff92ee8a9000000000000000000000000000000000000000000000000000000008152fd5b9050155f610fff565b303b159150610ff7565b849150610fed565b50346102da57807ffffffffffffffffffffffffffffffffffffffffffffffffffffffffffffffffc3601126102da5773ffffffffffffffffffffffffffffffffffffffff818181541660405180917f89345efb00000000000000000000000000000000000000000000000000000000825233600483015281602460209485935afa8015610f1f5783906113ac575b6112009150612c66565b604051927f0902f1ac0000000000000000000000000000000000000000000000000000000084528284600481335afa938415610f1f57839461136d575b506040517f67e4ac2c0000000000000000000000000000000000000000000000000000000081528381600481335afa908115611362578491611348575b50835b81518110156113445780846112e785611297899587612bc4565b51166112a3848b612bc4565b516040517fa9059cbb000000000000000000000000000000000000000000000000000000008152336004820152602481019190915294859283919082906044820190565b03925af1801561133957611300575b600191500161127d565b8482813d8311611332575b611315818361297e565b8101031261132e57611328600192612b1d565b506112f6565b8580fd5b503d61130b565b6040513d88823e3d90fd5b8480f35b61135c91503d8086833e6107c3818361297e565b5f61127a565b6040513d86823e3d90fd5b9093503d8084833e61137f818361297e565b810182828203126107aa57815167ffffffffffffffff8111610379576113a59201612c05565b925f61123d565b508181813d83116113db575b6113c2818361297e565b81010312610df8576113d661120091612b1d565b6111f6565b503d6113b8565b50346102da576020807ffffffffffffffffffffffffffffffffffffffffffffffffffffffffffffffffc3601126107d25761141b6128a1565b73ffffffffffffffffffffffffffffffffffffffff9280846024818354169460405195869384927fb4340e6a0000000000000000000000000000000000000000000000000000000084521660048301525afa9182156114d45781926114b8575b506040519280840190808552835180925280604086019401925b8281106114a25785850386f35b8351871685529381019392810192600101611495565b6114cd9192503d8084833e6107c3818361297e565b905f61147b565b50604051903d90823e3d90fd5b50346102da57807ffffffffffffffffffffffffffffffffffffffffffffffffffffffffffffffffc3601126102da57604051604081019080821067ffffffffffffffff8311176115a3576040918252600581527fffffffffffffffffffffffffffffffffffffffffffffffffffffffffffffffe0601f602083017f352e302e3000000000000000000000000000000000000000000000000000000081528451958694602086525180928160208801528787015e85828601015201168101030190f35b7f4e487b71000000000000000000000000000000000000000000000000000000005f52604160045260245ffd5b50346102da5760407ffffffffffffffffffffffffffffffffffffffffffffffffffffffffffffffffc3601126102da576116086128a1565b6024359067ffffffffffffffff918281168091036107aa577ff0c57e16840df040f15088dc2f81fe391c3923bec73e23a9662efc9c229c6a008054938260ff8660401c16918215611719575b5050611123577fffffffffffffffffffffffffffffffffffffffffffffff00ffffffffffffffff68010000000000000000837fffffffffffffffffffffffffffffffffffffffffffffff0000000000000000007fc7f505b2f371ae2175ee4913f4499e1f2633a7b5936321eed1cdaeb6115181d29773ffffffffffffffffffffffffffffffffffffffff602098167fffffffffffffffffffffffff00000000000000000000000000000000000000005f5416175f55161717169055604051908152a180f35b861610159050825f611654565b50346102da57807ffffffffffffffffffffffffffffffffffffffffffffffffffffffffffffffffc3601126102da57602073ffffffffffffffffffffffffffffffffffffffff7f9016d09d72d40fdae2fd8ceac6b6234c7706214fd39c1cd1e609a0528c1993005416604051908152f35b50346102da5760246117a8366129f9565b6117b782959493921515612ab8565b8573ffffffffffffffffffffffffffffffffffffffff815416604051958680927fb4340e6a00000000000000000000000000000000000000000000000000000000825273ffffffffffffffffffffffffffffffffffffffff881660048301525afa938415611339578694611e0f575b5090939185908190815b8651841015611b695773ffffffffffffffffffffffffffffffffffffffff6118588589612bc4565b511697604051957f89ab35320000000000000000000000000000000000000000000000000000000087528a876004818d5afa968715611b5e578b97611a8f575b506004949596978b8b604051978880927f36bf6e390000000000000000000000000000000000000000000000000000000082525afa958615611a84578c96611a3d575b508b5b8c8a51821015611a2957602460408e8151928380927fd14ef46d0000000000000000000000000000000000000000000000000000000082528760048301525afa918215611a1d57916119b5575b5073ffffffffffffffffffffffffffffffffffffffff80881691511614611955575b6001016118de565b61195f8188612bc4565b5161196a828c612bc4565b511515806119ac575b61197e575b5061194d565b97509350600173ffffffffffffffffffffffffffffffffffffffff6119a38a8d612bc4565b51169490611978565b50888111611973565b90506040813d604011611a15575b816119d06040938361297e565b81010312611a1157604051906040820182811067ffffffffffffffff8211176115a3576040526119ff81612a97565b8252602080910151908201525f61192b565b8d80fd5b3d91506119c3565b604051903d90823e3d90fd5b50929a509750956001019493506118309050565b9095503d808d833e611a4f818361297e565b8101604082820312611a8057602082015167ffffffffffffffff8111611a1157611a799201612c05565b945f6118db565b8c80fd5b6040513d8e823e3d90fd5b949596503d94858c823e611aa3868261297e565b6040818781010312611b5a5780519567ffffffffffffffff96878111611a1157820191818101601f84011215611a1157825192602090611ae285612b2a565b94611af0604051968761297e565b808652828087019160051b830101918585018311611b545783809101915b838310611b3c5750505050810151978811611a1157600497611b339282019101612c05565b50969594611898565b8190611b4784612b1d565b8152019101908390611b0e565b50508f80fd5b8b80fd5b6040513d8d823e3d90fd5b888686928a73ffffffffffffffffffffffffffffffffffffffff821615611db1576040517f23b872dd000000000000000000000000000000000000000000000000000000008152336004820152306024820152604481018490526020816064818873ffffffffffffffffffffffffffffffffffffffff8c165af1801561038457611d78575b506040517f095ea7b300000000000000000000000000000000000000000000000000000000815273ffffffffffffffffffffffffffffffffffffffff8316600482015260248101849052602081806044810103818873ffffffffffffffffffffffffffffffffffffffff8c165af1801561038457611d20575b506040517f6e81221c00000000000000000000000000000000000000000000000000000000815273ffffffffffffffffffffffffffffffffffffffff9687166004820152908616602482015260448101929092529284166064820152929091602091849160849183918691165af1908115611a1d5790611ced575b602090604051908152f35b506020813d602011611d18575b81611d076020938361297e565b810103126104175760209051611ce2565b3d9150611cfa565b6020813d602011611d70575b81611d396020938361297e565b81010312610379579373ffffffffffffffffffffffffffffffffffffffff819697611d65602097612b1d565b509796955050611c67565b3d9150611d2c565b6020813d602011611da9575b81611d916020938361297e565b8101031261037957611da290612b1d565b5086611bee565b3d9150611d84565b60646040517f08c379a000000000000000000000000000000000000000000000000000000000815260206004820152601660248201527f4e6f207375697461626c6520706f6f6c20666f756e64000000000000000000006044820152fd5b611e249194503d8088833e6107c3818361297e565b925f611826565b50346102da5760207ffffffffffffffffffffffffffffffffffffffffffffffffffffffffffffffffc3601126102da5773ffffffffffffffffffffffffffffffffffffffff611e786128a1565b611e80612dbd565b167fffffffffffffffffffffffff00000000000000000000000000000000000000005f5416175f5580f35b50346102da57807ffffffffffffffffffffffffffffffffffffffffffffffffffffffffffffffffc3601126102da57611ee2612dbd565b5f73ffffffffffffffffffffffffffffffffffffffff7f9016d09d72d40fdae2fd8ceac6b6234c7706214fd39c1cd1e609a0528c1993008054907fffffffffffffffffffffffff000000000000000000000000000000000000000082169055167f8be0079c531659141344cd1fd0a4f28419497f9722a3daafe3b4186f6b6457e08280a380f35b50346102da57611f78366129f9565b91611f87829594951515612ab8565b83546040517f2d5e94a700000000000000000000000000000000000000000000000000000000815273ffffffffffffffffffffffffffffffffffffffff8781166004830152838116602483015260209791939290919088908590604490829086165afa9384156104225787946121d7575b506040517f23b872dd000000000000000000000000000000000000000000000000000000008152336004820152306024820152604481018690528282169089816064818c865af18015610c44576121a3575b506040517f095ea7b300000000000000000000000000000000000000000000000000000000815273ffffffffffffffffffffffffffffffffffffffff8616600482015260248101879052908990829060449082908c905af180156106e757918996959493918993612161575b506040517f6e81221c00000000000000000000000000000000000000000000000000000000815273ffffffffffffffffffffffffffffffffffffffff9182166004820152938116602485015260448401959095529590931660648201529384926084928492165af1918215611a1d5791612134575b50604051908152f35b90508181813d831161215a575b61214b818361297e565b8101031261041757515f61212b565b503d612141565b878193959697989294503d831161219c575b61217d818361297e565b81010312610df4579187916121958a97969594612b1d565b505f6120b6565b503d612173565b8981813d83116121d0575b6121b8818361297e565b81010312610d01576121c990612b1d565b505f61204a565b503d6121ae565b9093508781813d8311612207575b6121ef818361297e565b810103126106dc5761220090612a97565b925f611ff8565b503d6121e5565b50346104175760207ffffffffffffffffffffffffffffffffffffffffffffffffffffffffffffffffc3601126104175773ffffffffffffffffffffffffffffffffffffffff61225b6128a1565b16803b15610417575f80916024604051809481937f5568081a0000000000000000000000000000000000000000000000000000000083523360048401525af180156122b4576122a8575080f35b6122b2915061296a565b005b6040513d5f823e3d90fd5b34610417575f7ffffffffffffffffffffffffffffffffffffffffffffffffffffffffffffffffc3601126104175773ffffffffffffffffffffffffffffffffffffffff7f00000000000000000000000000000000000000000000000000000000000000001630036123545760206040517f360894a13ba1a3210667c828492db98dca3e2076cc3735a920a3ca505d382bbc8152f35b60046040517fe07c8dba000000000000000000000000000000000000000000000000000000008152fd5b60407ffffffffffffffffffffffffffffffffffffffffffffffffffffffffffffffffc360112610417576123b06128a1565b602490813567ffffffffffffffff811161041757366023820112156104175780600401356123dd816129bf565b926123eb604051948561297e565b818452602091828501933687838301011161041757815f928886930187378601015273ffffffffffffffffffffffffffffffffffffffff807f00000000000000000000000000000000000000000000000000000000000000001680301490811561265a575b506123545761245d612dbd565b8116936040517f52d1902d0000000000000000000000000000000000000000000000000000000081528381600481895afa5f918161262b575b506124cb578686604051907f4c9c8ce30000000000000000000000000000000000000000000000000000000082526004820152fd5b8590877f360894a13ba1a3210667c828492db98dca3e2076cc3735a920a3ca505d382bbc918281036125fd5750843b156125ce5750817fffffffffffffffffffffffff0000000000000000000000000000000000000000825416179055604051907fbc7cd75a20ee27fd9adebab32041f755214dbc6bffa90cc0225b39da2e5c2d3b5f80a281511561259a57505f6122b29481925190845af4903d15612591573d612575816129bf565b90612583604051928361297e565b81525f81943d92013e612e86565b60609250612e86565b9350505050346125a657005b807fb398979f0000000000000000000000000000000000000000000000000000000060049252fd5b82604051907f4c9c8ce30000000000000000000000000000000000000000000000000000000082526004820152fd5b604051907faa1d49a40000000000000000000000000000000000000000000000000000000082526004820152fd5b9091508481813d8311612653575b612643818361297e565b8101031261041757519088612496565b503d612639565b9050817f360894a13ba1a3210667c828492db98dca3e2076cc3735a920a3ca505d382bbc5416141587612450565b34610417576126963661290a565b5f546040517f2d5e94a700000000000000000000000000000000000000000000000000000000815273ffffffffffffffffffffffffffffffffffffffff85811660048301528481166024830152602095909491939290919086908590604490829089165afa9182156122b45786945f936127b3575b506040517f4aa0665200000000000000000000000000000000000000000000000000000000815273ffffffffffffffffffffffffffffffffffffffff91821660048201529116602482015260448101929092529092839190829081606481015b0392165afa9081156122b4575f916127865750604051908152f35b90508181813d83116127ac575b61279d818361297e565b8101031261041757518261212b565b503d612793565b8581969294503d83116127e9575b6127cb818361297e565b810103126104175761276b946127e18795612a97565b92909561270b565b503d6127c1565b34610417575f7ffffffffffffffffffffffffffffffffffffffffffffffffffffffffffffffffc36011261041757602073ffffffffffffffffffffffffffffffffffffffff5f5416604051908152f35b34610417575f7ffffffffffffffffffffffffffffffffffffffffffffffffffffffffffffffffc3601126104175760209067ffffffffffffffff7ff0c57e16840df040f15088dc2f81fe391c3923bec73e23a9662efc9c229c6a0054168152f35b6004359073ffffffffffffffffffffffffffffffffffffffff8216820361041757565b6024359073ffffffffffffffffffffffffffffffffffffffff8216820361041757565b6044359073ffffffffffffffffffffffffffffffffffffffff8216820361041757565b7ffffffffffffffffffffffffffffffffffffffffffffffffffffffffffffffffc60609101126104175773ffffffffffffffffffffffffffffffffffffffff90600435828116810361041757916024359081168103610417579060443590565b67ffffffffffffffff81116115a357604052565b90601f7fffffffffffffffffffffffffffffffffffffffffffffffffffffffffffffffe0910116810190811067ffffffffffffffff8211176115a357604052565b67ffffffffffffffff81116115a357601f017fffffffffffffffffffffffffffffffffffffffffffffffffffffffffffffffe01660200190565b7ffffffffffffffffffffffffffffffffffffffffffffffffffffffffffffffffc60809101126104175773ffffffffffffffffffffffffffffffffffffffff9060043582811681036104175791602435818116810361041757916044359160643590811681036104175790565b9181601f840112156104175782359167ffffffffffffffff8311610417576020808501948460051b01011161041757565b519073ffffffffffffffffffffffffffffffffffffffff8216820361041757565b15612abf57565b60646040517f08c379a000000000000000000000000000000000000000000000000000000000815260206004820152602060248201527f416d6f756e74206d7573742062652067726561746572207468616e207a65726f6044820152fd5b5190811515820361041757565b67ffffffffffffffff81116115a35760051b60200190565b60209081818403126104175780519067ffffffffffffffff821161041757019180601f84011215610417578251612b7881612b2a565b93612b86604051958661297e565b818552838086019260051b820101928311610417578301905b828210612bad575050505090565b838091612bb984612a97565b815201910190612b9f565b8051821015612bd85760209160051b010190565b7f4e487b71000000000000000000000000000000000000000000000000000000005f52603260045260245ffd5b9080601f8301121561041757815190602091612c2081612b2a565b93612c2e604051958661297e565b81855260208086019260051b82010192831161041757602001905b828210612c57575050505090565b81518152908301908301612c49565b15612c6d57565b60646040517f08c379a000000000000000000000000000000000000000000000000000000000815260206004820152600a60248201527f4f6e6c7920506f6f6c73000000000000000000000000000000000000000000006044820152fd5b9190811015612bd85760051b0190565b3573ffffffffffffffffffffffffffffffffffffffff811681036104175790565b73ffffffffffffffffffffffffffffffffffffffff809116908115612d8d577f9016d09d72d40fdae2fd8ceac6b6234c7706214fd39c1cd1e609a0528c199300805490837fffffffffffffffffffffffff00000000000000000000000000000000000000008316179055167f8be0079c531659141344cd1fd0a4f28419497f9722a3daafe3b4186f6b6457e05f80a3565b60246040517f1e4fbdf70000000000000000000000000000000000000000000000000000000081525f6004820152fd5b73ffffffffffffffffffffffffffffffffffffffff7f9016d09d72d40fdae2fd8ceac6b6234c7706214fd39c1cd1e609a0528c19930054163303612dfd57565b60246040517f118cdaa7000000000000000000000000000000000000000000000000000000008152336004820152fd5b60ff7ff0c57e16840df040f15088dc2f81fe391c3923bec73e23a9662efc9c229c6a005460401c1615612e5c57565b60046040517fd7e6bcf8000000000000000000000000000000000000000000000000000000008152fd5b90612ec55750805115612e9b57805190602001fd5b60046040517f1425ea42000000000000000000000000000000000000000000000000000000008152fd5b81511580612f1d575b612ed6575090565b60249073ffffffffffffffffffffffffffffffffffffffff604051917f9996b315000000000000000000000000000000000000000000000000000000008352166004820152fd5b50803b15612ece56fea26469706673582212206e0c701376ecf1f99b1c8720cc13cbaf7195d83adae4f37e8104e3ec588422a364736f6c63430008190033","opcodes":"PUSH1 0xA0 DUP1 PUSH1 0x40 MSTORE CALLVALUE PUSH1 0x29 JUMPI ADDRESS PUSH1 0x80 MSTORE PUSH2 0x2F5C SWAP1 DUP2 PUSH2 0x2E DUP3 CODECOPY PUSH1 0x80 MLOAD DUP2 DUP2 DUP2 PUSH2 0x2304 ADD MSTORE PUSH2 0x2425 ADD MSTORE RETURN JUMPDEST PUSH0 DUP1 REVERT INVALID PUSH1 0x80 DUP1 PUSH1 0x40 MSTORE PUSH1 0x4 CALLDATASIZE LT ISZERO PUSH2 0x12 JUMPI PUSH0 DUP1 REVERT JUMPDEST PUSH0 SWAP1 PUSH0 CALLDATALOAD PUSH1 0xE0 SHR SWAP1 DUP2 PUSH4 0xD8E6E2C EQ PUSH2 0x2840 JUMPI POP DUP1 PUSH4 0x4219DC40 EQ PUSH2 0x27F0 JUMPI DUP1 PUSH4 0x4AA06652 EQ PUSH2 0x2688 JUMPI DUP1 PUSH4 0x4F1EF286 EQ PUSH2 0x237E JUMPI DUP1 PUSH4 0x52D1902D EQ PUSH2 0x22BF JUMPI DUP1 PUSH4 0x5568081A EQ PUSH2 0x220E JUMPI DUP1 PUSH4 0x6E81221C EQ PUSH2 0x1F69 JUMPI DUP1 PUSH4 0x715018A6 EQ PUSH2 0x1EAB JUMPI DUP1 PUSH4 0x72591BE5 EQ PUSH2 0x1E2B JUMPI DUP1 PUSH4 0x7442ECA6 EQ PUSH2 0x1797 JUMPI DUP1 PUSH4 0x8DA5CB5B EQ PUSH2 0x1726 JUMPI DUP1 PUSH4 0x8F2248BC EQ PUSH2 0x15D0 JUMPI DUP1 PUSH4 0xAD3CB1CC EQ PUSH2 0x14E1 JUMPI DUP1 PUSH4 0xAE3CCE1C EQ PUSH2 0x13E2 JUMPI DUP1 PUSH4 0xB9973527 EQ PUSH2 0x1168 JUMPI DUP1 PUSH4 0xC4D66DE8 EQ PUSH2 0xF74 JUMPI DUP1 PUSH4 0xE3898E95 EQ PUSH2 0xDFC JUMPI DUP1 PUSH4 0xE74E9B06 EQ PUSH2 0x7D6 JUMPI DUP1 PUSH4 0xEC0CD2EB EQ PUSH2 0x565 JUMPI DUP1 PUSH4 0xF2FDE38B EQ PUSH2 0x51A JUMPI PUSH4 0xF31ABCC4 EQ PUSH2 0x105 JUMPI PUSH0 DUP1 REVERT JUMPDEST CALLVALUE PUSH2 0x2DA JUMPI PUSH1 0x60 PUSH32 0xFFFFFFFFFFFFFFFFFFFFFFFFFFFFFFFFFFFFFFFFFFFFFFFFFFFFFFFFFFFFFFFC CALLDATASIZE ADD SLT PUSH2 0x2DA JUMPI PUSH1 0x4 CALLDATALOAD SWAP1 PUSH2 0x140 PUSH2 0x28C4 JUMP JUMPDEST SWAP2 PUSH2 0x149 PUSH2 0x28E7 JUMP JUMPDEST DUP2 ISZERO PUSH2 0x4BC JUMPI PUSH1 0x40 MLOAD PUSH32 0xDD62ED3E00000000000000000000000000000000000000000000000000000000 DUP2 MSTORE CALLER PUSH1 0x4 DUP3 ADD MSTORE ADDRESS PUSH1 0x24 DUP3 ADD MSTORE PUSH1 0x20 SWAP5 PUSH20 0xFFFFFFFFFFFFFFFFFFFFFFFFFFFFFFFFFFFFFFFF DUP1 DUP3 AND SWAP5 SWAP1 SWAP3 SWAP1 SWAP2 SWAP1 DUP8 DUP2 PUSH1 0x44 DUP2 DUP10 GAS STATICCALL SWAP1 DUP2 ISZERO PUSH2 0x422 JUMPI SWAP1 DUP4 SWAP2 DUP9 SWAP2 PUSH2 0x48B JUMPI JUMPDEST POP LT PUSH2 0x42D JUMPI PUSH1 0x40 MLOAD PUSH32 0x70A0823100000000000000000000000000000000000000000000000000000000 DUP2 MSTORE CALLER PUSH1 0x4 DUP3 ADD MSTORE DUP8 DUP2 PUSH1 0x24 DUP2 DUP10 GAS STATICCALL SWAP1 DUP2 ISZERO PUSH2 0x422 JUMPI SWAP1 DUP4 SWAP2 DUP9 SWAP2 PUSH2 0x3ED JUMPI JUMPDEST POP LT PUSH2 0x38F JUMPI PUSH1 0x40 MLOAD PUSH32 0x23B872DD00000000000000000000000000000000000000000000000000000000 DUP2 MSTORE CALLER PUSH1 0x4 DUP3 ADD MSTORE PUSH20 0xFFFFFFFFFFFFFFFFFFFFFFFFFFFFFFFFFFFFFFFF SWAP2 SWAP1 SWAP2 AND PUSH1 0x24 DUP3 ADD MSTORE PUSH1 0x44 DUP2 ADD SWAP2 SWAP1 SWAP2 MSTORE DUP6 DUP2 PUSH1 0x64 DUP2 DUP9 DUP9 GAS CALL SWAP1 DUP2 ISZERO PUSH2 0x384 JUMPI DUP6 SWAP2 PUSH2 0x34B JUMPI JUMPDEST POP ISZERO PUSH2 0x2ED JUMPI DUP4 SWAP5 POP DUP3 EXTCODESIZE ISZERO PUSH2 0x2E8 JUMPI PUSH1 0x24 DUP5 SWAP3 DUP4 PUSH1 0x40 MLOAD SWAP6 DUP7 SWAP5 DUP6 SWAP4 PUSH32 0x89AFCB4400000000000000000000000000000000000000000000000000000000 DUP6 MSTORE AND PUSH1 0x4 DUP5 ADD MSTORE GAS CALL DUP1 ISZERO PUSH2 0x2DD JUMPI PUSH2 0x2CA JUMPI POP RETURN JUMPDEST PUSH2 0x2D3 SWAP1 PUSH2 0x296A JUMP JUMPDEST PUSH2 0x2DA JUMPI DUP1 RETURN JUMPDEST DUP1 REVERT JUMPDEST PUSH1 0x40 MLOAD RETURNDATASIZE DUP5 DUP3 RETURNDATACOPY RETURNDATASIZE SWAP1 REVERT JUMPDEST POP POP POP REVERT JUMPDEST PUSH1 0x64 DUP6 PUSH1 0x40 MLOAD SWAP1 PUSH32 0x8C379A000000000000000000000000000000000000000000000000000000000 DUP3 MSTORE PUSH1 0x4 DUP3 ADD MSTORE PUSH1 0xF PUSH1 0x24 DUP3 ADD MSTORE PUSH32 0x5472616E73666572206661696C65640000000000000000000000000000000000 PUSH1 0x44 DUP3 ADD MSTORE REVERT JUMPDEST SWAP1 POP DUP6 DUP2 DUP2 RETURNDATASIZE DUP4 GT PUSH2 0x37D JUMPI JUMPDEST PUSH2 0x362 DUP2 DUP4 PUSH2 0x297E JUMP JUMPDEST DUP2 ADD SUB SLT PUSH2 0x379 JUMPI PUSH2 0x373 SWAP1 PUSH2 0x2B1D JUMP JUMPDEST PUSH0 PUSH2 0x275 JUMP JUMPDEST DUP5 DUP1 REVERT JUMPDEST POP RETURNDATASIZE PUSH2 0x358 JUMP JUMPDEST PUSH1 0x40 MLOAD RETURNDATASIZE DUP8 DUP3 RETURNDATACOPY RETURNDATASIZE SWAP1 REVERT JUMPDEST PUSH1 0x64 DUP8 PUSH1 0x40 MLOAD SWAP1 PUSH32 0x8C379A000000000000000000000000000000000000000000000000000000000 DUP3 MSTORE PUSH1 0x4 DUP3 ADD MSTORE PUSH1 0x14 PUSH1 0x24 DUP3 ADD MSTORE PUSH32 0x496E73756666696369656E742062616C616E6365000000000000000000000000 PUSH1 0x44 DUP3 ADD MSTORE REVERT JUMPDEST DUP1 SWAP3 POP DUP10 DUP1 SWAP3 POP RETURNDATASIZE DUP4 GT PUSH2 0x41B JUMPI JUMPDEST PUSH2 0x406 DUP2 DUP4 PUSH2 0x297E JUMP JUMPDEST DUP2 ADD SUB SLT PUSH2 0x417 JUMPI DUP3 SWAP1 MLOAD PUSH0 PUSH2 0x206 JUMP JUMPDEST PUSH0 DUP1 REVERT JUMPDEST POP RETURNDATASIZE PUSH2 0x3FC JUMP JUMPDEST PUSH1 0x40 MLOAD RETURNDATASIZE DUP10 DUP3 RETURNDATACOPY RETURNDATASIZE SWAP1 REVERT JUMPDEST PUSH1 0x64 DUP8 PUSH1 0x40 MLOAD SWAP1 PUSH32 0x8C379A000000000000000000000000000000000000000000000000000000000 DUP3 MSTORE PUSH1 0x4 DUP3 ADD MSTORE PUSH1 0x16 PUSH1 0x24 DUP3 ADD MSTORE PUSH32 0x496E73756666696369656E7420616C6C6F77616E636500000000000000000000 PUSH1 0x44 DUP3 ADD MSTORE REVERT JUMPDEST DUP1 SWAP3 POP DUP10 DUP1 SWAP3 POP RETURNDATASIZE DUP4 GT PUSH2 0x4B5 JUMPI JUMPDEST PUSH2 0x4A4 DUP2 DUP4 PUSH2 0x297E JUMP JUMPDEST DUP2 ADD SUB SLT PUSH2 0x417 JUMPI DUP3 SWAP1 MLOAD PUSH0 PUSH2 0x1BB JUMP JUMPDEST POP RETURNDATASIZE PUSH2 0x49A JUMP JUMPDEST PUSH1 0x64 PUSH1 0x40 MLOAD PUSH32 0x8C379A000000000000000000000000000000000000000000000000000000000 DUP2 MSTORE PUSH1 0x20 PUSH1 0x4 DUP3 ADD MSTORE PUSH1 0x1F PUSH1 0x24 DUP3 ADD MSTORE PUSH32 0x5368617265206D7573742062652067726561746572207468616E207A65726F00 PUSH1 0x44 DUP3 ADD MSTORE REVERT JUMPDEST POP CALLVALUE PUSH2 0x2DA JUMPI PUSH1 0x20 PUSH32 0xFFFFFFFFFFFFFFFFFFFFFFFFFFFFFFFFFFFFFFFFFFFFFFFFFFFFFFFFFFFFFFFC CALLDATASIZE ADD SLT PUSH2 0x2DA JUMPI PUSH2 0x562 PUSH2 0x555 PUSH2 0x28A1 JUMP JUMPDEST PUSH2 0x55D PUSH2 0x2DBD JUMP JUMPDEST PUSH2 0x2CFC JUMP JUMPDEST DUP1 RETURN JUMPDEST POP CALLVALUE PUSH2 0x2DA JUMPI PUSH1 0x60 PUSH32 0xFFFFFFFFFFFFFFFFFFFFFFFFFFFFFFFFFFFFFFFFFFFFFFFFFFFFFFFFFFFFFFFC CALLDATASIZE ADD SLT PUSH2 0x2DA JUMPI PUSH1 0x4 CALLDATALOAD PUSH8 0xFFFFFFFFFFFFFFFF DUP2 GT PUSH2 0x7D2 JUMPI PUSH2 0x5B5 SWAP1 CALLDATASIZE SWAP1 PUSH1 0x4 ADD PUSH2 0x2A66 JUMP JUMPDEST SWAP1 SWAP2 PUSH2 0x5BF PUSH2 0x28C4 JUMP JUMPDEST SWAP2 PUSH2 0x5C8 PUSH2 0x28E7 JUMP JUMPDEST PUSH1 0x40 MLOAD PUSH32 0x67E4AC2C00000000000000000000000000000000000000000000000000000000 DUP2 MSTORE PUSH20 0xFFFFFFFFFFFFFFFFFFFFFFFFFFFFFFFFFFFFFFFF SWAP5 DUP6 AND SWAP5 SWAP2 DUP5 DUP3 PUSH1 0x4 DUP2 DUP10 GAS STATICCALL SWAP2 DUP3 ISZERO PUSH2 0x384 JUMPI DUP6 SWAP3 PUSH2 0x7AE JUMPI JUMPDEST POP DUP5 JUMPDEST DUP3 MLOAD DUP2 LT ISZERO PUSH2 0x6F2 JUMPI DUP4 PUSH2 0x635 DUP3 DUP6 PUSH2 0x2BC4 JUMP JUMPDEST MLOAD AND PUSH2 0x693 PUSH2 0x645 DUP4 DUP9 DUP13 PUSH2 0x2CCB JUMP JUMPDEST PUSH1 0x40 MLOAD PUSH32 0x23B872DD00000000000000000000000000000000000000000000000000000000 DUP2 MSTORE CALLER PUSH1 0x4 DUP3 ADD MSTORE ADDRESS PUSH1 0x24 DUP3 ADD MSTORE SWAP1 CALLDATALOAD PUSH1 0x44 DUP3 ADD MSTORE SWAP2 PUSH1 0x20 SWAP2 DUP3 SWAP2 DUP5 SWAP2 DUP3 SWAP1 DUP13 SWAP1 DUP3 SWAP1 PUSH1 0x64 DUP3 ADD SWAP1 JUMP JUMPDEST SUB SWAP3 GAS CALL DUP1 ISZERO PUSH2 0x6E7 JUMPI PUSH2 0x6AC JUMPI JUMPDEST POP POP PUSH1 0x1 ADD PUSH2 0x621 JUMP JUMPDEST DUP2 DUP2 RETURNDATASIZE DUP4 GT PUSH2 0x6E0 JUMPI JUMPDEST PUSH2 0x6C0 DUP2 DUP4 PUSH2 0x297E JUMP JUMPDEST DUP2 ADD SUB SLT PUSH2 0x6DC JUMPI SWAP1 PUSH2 0x6D4 PUSH1 0x1 SWAP3 PUSH2 0x2B1D JUMP JUMPDEST POP SWAP1 PUSH0 PUSH2 0x6A2 JUMP JUMPDEST DUP7 DUP1 REVERT JUMPDEST POP RETURNDATASIZE PUSH2 0x6B6 JUMP JUMPDEST PUSH1 0x40 MLOAD RETURNDATASIZE DUP11 DUP3 RETURNDATACOPY RETURNDATASIZE SWAP1 REVERT JUMPDEST DUP6 DUP3 DUP2 DUP11 DUP11 DUP10 DUP10 PUSH1 0x40 MLOAD SWAP6 PUSH32 0xDE836EBD00000000000000000000000000000000000000000000000000000000 DUP8 MSTORE AND PUSH1 0x4 DUP7 ADD MSTORE PUSH1 0x40 PUSH1 0x24 DUP7 ADD MSTORE DUP1 PUSH1 0x44 DUP7 ADD MSTORE PUSH32 0x7FFFFFFFFFFFFFFFFFFFFFFFFFFFFFFFFFFFFFFFFFFFFFFFFFFFFFFFFFFFFFF DUP2 GT PUSH2 0x7AA JUMPI PUSH1 0x20 SWAP4 PUSH1 0x64 DUP7 DUP1 SWAP6 DUP2 SWAP5 PUSH1 0x5 SHL DUP1 SWAP2 DUP5 DUP5 ADD CALLDATACOPY DUP2 ADD SUB ADD SWAP3 GAS CALL DUP1 ISZERO PUSH2 0x2DD JUMPI PUSH2 0x782 JUMPI POP DUP1 RETURN JUMPDEST PUSH1 0x20 SWAP1 DUP2 RETURNDATASIZE DUP4 GT PUSH2 0x7A3 JUMPI JUMPDEST PUSH2 0x798 DUP2 DUP4 PUSH2 0x297E JUMP JUMPDEST DUP2 ADD SUB SLT PUSH2 0x417 JUMPI DUP1 RETURN JUMPDEST POP RETURNDATASIZE PUSH2 0x78E JUMP JUMPDEST DUP4 DUP1 REVERT JUMPDEST PUSH2 0x7CB SWAP2 SWAP3 POP RETURNDATASIZE DUP1 DUP8 DUP4 RETURNDATACOPY PUSH2 0x7C3 DUP2 DUP4 PUSH2 0x297E JUMP JUMPDEST DUP2 ADD SWAP1 PUSH2 0x2B42 JUMP JUMPDEST SWAP1 PUSH0 PUSH2 0x61E JUMP JUMPDEST POP DUP1 REVERT JUMPDEST POP CALLVALUE PUSH2 0x2DA JUMPI PUSH1 0x80 PUSH32 0xFFFFFFFFFFFFFFFFFFFFFFFFFFFFFFFFFFFFFFFFFFFFFFFFFFFFFFFFFFFFFFFC CALLDATASIZE ADD SLT PUSH2 0x2DA JUMPI PUSH8 0xFFFFFFFFFFFFFFFF PUSH1 0x4 CALLDATALOAD DUP2 DUP2 GT PUSH2 0xDF8 JUMPI PUSH2 0x827 SWAP1 CALLDATASIZE SWAP1 PUSH1 0x4 ADD PUSH2 0x2A66 JUMP JUMPDEST SWAP1 SWAP2 PUSH1 0x24 CALLDATALOAD DUP2 DUP2 GT PUSH2 0x379 JUMPI PUSH2 0x841 SWAP1 CALLDATASIZE SWAP1 PUSH1 0x4 ADD PUSH2 0x2A66 JUMP JUMPDEST SWAP2 PUSH1 0x44 CALLDATALOAD DUP2 DUP2 GT PUSH2 0x6DC JUMPI PUSH2 0x85A SWAP1 CALLDATASIZE SWAP1 PUSH1 0x4 ADD PUSH2 0x2A66 JUMP JUMPDEST SWAP1 SWAP2 PUSH1 0x64 CALLDATALOAD SWAP1 DUP2 GT PUSH2 0xDF4 JUMPI PUSH2 0x874 SWAP1 CALLDATASIZE SWAP1 PUSH1 0x4 ADD PUSH2 0x2A66 JUMP JUMPDEST SWAP3 DUP6 DUP8 EQ DUP1 PUSH2 0xDEB JUMPI JUMPDEST DUP1 PUSH2 0xDE2 JUMPI JUMPDEST ISZERO PUSH2 0xD84 JUMPI PUSH2 0x898 DUP8 SWAP10 SWAP8 SWAP9 SWAP7 SWAP6 SWAP9 PUSH2 0x2B2A JUMP JUMPDEST SWAP8 PUSH2 0x8A6 PUSH1 0x40 MLOAD SWAP10 DUP11 PUSH2 0x297E JUMP JUMPDEST DUP10 DUP10 MSTORE PUSH32 0xFFFFFFFFFFFFFFFFFFFFFFFFFFFFFFFFFFFFFFFFFFFFFFFFFFFFFFFFFFFFFFE0 PUSH2 0x8D3 DUP12 PUSH2 0x2B2A JUMP JUMPDEST ADD CALLDATASIZE PUSH1 0x20 DUP12 ADD CALLDATACOPY DUP8 SWAP10 JUMPDEST DUP1 DUP12 LT PUSH2 0x92A JUMPI DUP10 DUP10 PUSH1 0x40 MLOAD SWAP2 DUP3 SWAP2 PUSH1 0x20 DUP4 ADD PUSH1 0x20 DUP5 MSTORE DUP3 MLOAD DUP1 SWAP2 MSTORE PUSH1 0x20 PUSH1 0x40 DUP6 ADD SWAP4 ADD SWAP2 JUMPDEST DUP2 DUP2 LT PUSH2 0x911 JUMPI POP POP POP SUB SWAP1 RETURN JUMPDEST DUP3 MLOAD DUP5 MSTORE DUP6 SWAP5 POP PUSH1 0x20 SWAP4 DUP5 ADD SWAP4 SWAP1 SWAP3 ADD SWAP2 PUSH1 0x1 ADD PUSH2 0x903 JUMP JUMPDEST DUP11 DUP10 PUSH1 0x20 PUSH2 0x9CC PUSH20 0xFFFFFFFFFFFFFFFFFFFFFFFFFFFFFFFFFFFFFFFF DUP4 SWAP16 DUP14 SWAP16 SWAP15 SWAP13 SWAP14 DUP2 DUP9 PUSH2 0x973 SWAP3 PUSH2 0x96E DUP16 PUSH2 0x978 SWAP7 DUP16 SWAP2 PUSH2 0x966 SWAP3 PUSH2 0x2CCB JUMP JUMPDEST CALLDATALOAD ISZERO ISZERO PUSH2 0x2AB8 JUMP JUMPDEST PUSH2 0x2CCB JUMP JUMPDEST PUSH2 0x2CDB JUMP JUMPDEST AND PUSH2 0x984 DUP6 DUP12 DUP11 PUSH2 0x2CCB JUMP JUMPDEST PUSH1 0x40 MLOAD PUSH32 0x23B872DD00000000000000000000000000000000000000000000000000000000 DUP2 MSTORE CALLER PUSH1 0x4 DUP3 ADD MSTORE ADDRESS PUSH1 0x24 DUP3 ADD MSTORE SWAP1 CALLDATALOAD PUSH1 0x44 DUP3 ADD MSTORE SWAP4 DUP5 SWAP3 DUP4 SWAP2 SWAP1 DUP3 SWAP1 PUSH1 0x64 DUP3 ADD SWAP1 JUMP JUMPDEST SUB SWAP3 GAS CALL SWAP1 DUP2 ISZERO PUSH2 0xC44 JUMPI DUP3 DUP5 DUP12 DUP16 SWAP4 DUP15 SWAP6 PUSH2 0xD0D JUMPI JUMPDEST POP PUSH2 0x973 DUP4 PUSH2 0xA18 PUSH2 0x973 PUSH2 0xA79 SWAP9 SWAP7 PUSH1 0x20 SWAP9 SWAP7 PUSH20 0xFFFFFFFFFFFFFFFFFFFFFFFFFFFFFFFFFFFFFFFF PUSH2 0xA1F SWAP8 SLOAD AND SWAP8 PUSH2 0x2CCB JUMP JUMPDEST SWAP5 DUP11 PUSH2 0x2CCB JUMP JUMPDEST PUSH1 0x40 MLOAD PUSH32 0x2D5E94A700000000000000000000000000000000000000000000000000000000 DUP2 MSTORE PUSH20 0xFFFFFFFFFFFFFFFFFFFFFFFFFFFFFFFFFFFFFFFF SWAP4 DUP5 AND PUSH1 0x4 DUP3 ADD MSTORE SWAP3 AND PUSH1 0x24 DUP4 ADD MSTORE SWAP1 SWAP3 DUP4 SWAP2 SWAP1 DUP3 SWAP1 DUP2 SWAP1 PUSH1 0x44 DUP3 ADD SWAP1 JUMP JUMPDEST SUB SWAP2 GAS STATICCALL SWAP1 DUP2 ISZERO PUSH2 0xC44 JUMPI DUP3 DUP5 DUP15 DUP13 SWAP4 DUP5 SWAP6 PUSH2 0xC9F JUMPI JUMPDEST POP PUSH2 0xAB9 PUSH2 0x973 PUSH1 0x20 SWAP5 PUSH2 0xB1D SWAP5 PUSH20 0xFFFFFFFFFFFFFFFFFFFFFFFFFFFFFFFFFFFFFFFF SWAP5 PUSH2 0x2CCB JUMP JUMPDEST AND PUSH2 0xAC5 DUP7 DUP13 DUP12 PUSH2 0x2CCB JUMP JUMPDEST PUSH1 0x40 MLOAD PUSH32 0x95EA7B300000000000000000000000000000000000000000000000000000000 DUP2 MSTORE PUSH20 0xFFFFFFFFFFFFFFFFFFFFFFFFFFFFFFFFFFFFFFFF DUP8 AND PUSH1 0x4 DUP3 ADD MSTORE SWAP1 CALLDATALOAD PUSH1 0x24 DUP3 ADD MSTORE SWAP4 DUP5 SWAP3 DUP4 SWAP2 SWAP1 DUP3 SWAP1 PUSH1 0x44 DUP3 ADD SWAP1 JUMP JUMPDEST SUB SWAP3 GAS CALL DUP1 ISZERO PUSH2 0xC94 JUMPI DUP5 DUP15 DUP6 SWAP3 PUSH2 0xC4F JUMPI JUMPDEST PUSH2 0xB3A SWAP4 POP PUSH2 0x2CCB JUMP JUMPDEST PUSH2 0xB43 SWAP1 PUSH2 0x2CDB JUMP JUMPDEST SWAP1 PUSH2 0xB4F DUP4 DUP13 DUP8 PUSH2 0x2CCB JUMP JUMPDEST PUSH2 0xB58 SWAP1 PUSH2 0x2CDB JUMP JUMPDEST PUSH2 0xB63 DUP5 DUP11 DUP10 PUSH2 0x2CCB JUMP JUMPDEST CALLDATALOAD SWAP1 PUSH2 0xB70 DUP6 DUP13 DUP12 PUSH2 0x2CCB JUMP JUMPDEST PUSH2 0xB79 SWAP1 PUSH2 0x2CDB JUMP JUMPDEST PUSH1 0x40 MLOAD PUSH32 0x6E81221C00000000000000000000000000000000000000000000000000000000 DUP2 MSTORE PUSH20 0xFFFFFFFFFFFFFFFFFFFFFFFFFFFFFFFFFFFFFFFF SWAP6 DUP7 AND PUSH1 0x4 DUP3 ADD MSTORE SWAP2 DUP6 AND PUSH1 0x24 DUP4 ADD MSTORE PUSH1 0x44 DUP3 ADD SWAP3 SWAP1 SWAP3 MSTORE SWAP1 DUP4 AND PUSH1 0x64 DUP3 ADD MSTORE SWAP2 AND DUP2 PUSH1 0x84 DUP2 DUP13 GAS SWAP5 PUSH1 0x20 SWAP6 CALL SWAP1 DUP2 ISZERO PUSH2 0xC44 JUMPI DUP10 SWAP2 PUSH2 0xC0C JUMPI JUMPDEST POP SWAP1 PUSH1 0x1 SWAP2 PUSH2 0xBFE DUP3 DUP14 PUSH2 0x2BC4 JUMP JUMPDEST MSTORE ADD SWAP11 POP SWAP9 SWAP7 SWAP6 SWAP8 SWAP9 PUSH2 0x8DD JUMP JUMPDEST SWAP2 SWAP9 POP POP PUSH1 0x20 DUP2 RETURNDATASIZE PUSH1 0x20 GT PUSH2 0xC3C JUMPI JUMPDEST DUP2 PUSH2 0xC29 PUSH1 0x20 SWAP4 DUP4 PUSH2 0x297E JUMP JUMPDEST DUP2 ADD SUB SLT PUSH2 0x417 JUMPI MLOAD DUP12 SWAP8 SWAP1 PUSH1 0x1 PUSH2 0xBEF JUMP JUMPDEST RETURNDATASIZE SWAP2 POP PUSH2 0xC1C JUMP JUMPDEST PUSH1 0x40 MLOAD RETURNDATASIZE DUP12 DUP3 RETURNDATACOPY RETURNDATASIZE SWAP1 REVERT JUMPDEST POP POP POP PUSH1 0x20 DUP2 RETURNDATASIZE PUSH1 0x20 GT PUSH2 0xC8C JUMPI JUMPDEST DUP2 PUSH2 0xC6B PUSH1 0x20 SWAP4 DUP4 PUSH2 0x297E JUMP JUMPDEST DUP2 ADD SUB SLT PUSH2 0xC88 JUMPI DUP3 DUP5 DUP15 PUSH2 0xC82 PUSH2 0xB3A SWAP5 PUSH2 0x2B1D JUMP JUMPDEST POP PUSH2 0xB30 JUMP JUMPDEST DUP10 DUP1 REVERT JUMPDEST RETURNDATASIZE SWAP2 POP PUSH2 0xC5E JUMP JUMPDEST PUSH1 0x40 MLOAD RETURNDATASIZE DUP13 DUP3 RETURNDATACOPY RETURNDATASIZE SWAP1 REVERT JUMPDEST SWAP5 POP POP POP POP POP PUSH1 0x20 DUP2 RETURNDATASIZE PUSH1 0x20 GT PUSH2 0xD05 JUMPI JUMPDEST DUP2 PUSH2 0xCBE PUSH1 0x20 SWAP4 DUP4 PUSH2 0x297E JUMP JUMPDEST DUP2 ADD SUB SLT PUSH2 0xD01 JUMPI DUP9 PUSH1 0x20 PUSH2 0xB1D PUSH20 0xFFFFFFFFFFFFFFFFFFFFFFFFFFFFFFFFFFFFFFFF DUP16 SWAP5 PUSH2 0x973 DUP8 DUP10 PUSH2 0xCF4 PUSH2 0xAB9 SWAP5 PUSH2 0x2A97 JUMP JUMPDEST SWAP9 SWAP5 POP SWAP5 POP SWAP5 POP POP PUSH2 0xA90 JUMP JUMPDEST DUP9 DUP1 REVERT JUMPDEST RETURNDATASIZE SWAP2 POP PUSH2 0xCB1 JUMP JUMPDEST SWAP5 POP POP POP POP POP PUSH1 0x20 DUP2 RETURNDATASIZE PUSH1 0x20 GT PUSH2 0xD7C JUMPI JUMPDEST DUP2 PUSH2 0xD2C PUSH1 0x20 SWAP4 DUP4 PUSH2 0x297E JUMP JUMPDEST DUP2 ADD SUB SLT PUSH2 0xD01 JUMPI PUSH1 0x20 DUP11 DUP14 PUSH2 0xA1F PUSH2 0x973 DUP7 PUSH2 0xA18 DUP16 DUP3 DUP12 PUSH20 0xFFFFFFFFFFFFFFFFFFFFFFFFFFFFFFFFFFFFFFFF PUSH2 0x973 SWAP4 PUSH2 0xD6A PUSH2 0xA79 SWAP14 PUSH2 0x2B1D JUMP JUMPDEST POP SWAP8 POP POP SWAP7 SWAP9 POP POP POP POP SWAP4 SWAP6 POP PUSH2 0x9E3 JUMP JUMPDEST RETURNDATASIZE SWAP2 POP PUSH2 0xD1F JUMP JUMPDEST PUSH1 0x64 PUSH1 0x40 MLOAD PUSH32 0x8C379A000000000000000000000000000000000000000000000000000000000 DUP2 MSTORE PUSH1 0x20 PUSH1 0x4 DUP3 ADD MSTORE PUSH1 0x1C PUSH1 0x24 DUP3 ADD MSTORE PUSH32 0x496E70757420617272617973206C656E677468206D69736D6174636800000000 PUSH1 0x44 DUP3 ADD MSTORE REVERT JUMPDEST POP DUP4 DUP4 EQ PUSH2 0x884 JUMP JUMPDEST POP DUP3 DUP7 EQ PUSH2 0x87E JUMP JUMPDEST DUP8 DUP1 REVERT JUMPDEST DUP3 DUP1 REVERT JUMPDEST POP CALLVALUE PUSH2 0x2DA JUMPI PUSH2 0xE0B CALLDATASIZE PUSH2 0x290A JUMP JUMPDEST SWAP2 PUSH20 0xFFFFFFFFFFFFFFFFFFFFFFFFFFFFFFFFFFFFFFFF SWAP2 DUP5 DUP4 DUP2 SLOAD AND SWAP4 PUSH1 0x40 MLOAD DUP1 SWAP6 PUSH32 0x89345EFB00000000000000000000000000000000000000000000000000000000 DUP3 MSTORE CALLER PUSH1 0x4 DUP4 ADD MSTORE DUP2 PUSH1 0x24 PUSH1 0x20 SWAP9 DUP10 SWAP4 GAS STATICCALL SWAP1 DUP2 ISZERO PUSH2 0xF1F JUMPI DUP4 SWAP2 PUSH2 0xF2A JUMPI JUMPDEST POP SWAP2 PUSH2 0xED9 SWAP7 SWAP4 SWAP2 PUSH2 0xE81 DUP8 SWAP7 SWAP5 PUSH2 0x2C66 JUMP JUMPDEST PUSH1 0x40 MLOAD DUP1 SWAP9 DUP2 SWAP7 DUP3 SWAP6 PUSH32 0xA9059CBB00000000000000000000000000000000000000000000000000000000 DUP5 MSTORE PUSH1 0x4 DUP5 ADD PUSH1 0x20 SWAP1 SWAP4 SWAP3 SWAP2 SWAP4 PUSH20 0xFFFFFFFFFFFFFFFFFFFFFFFFFFFFFFFFFFFFFFFF PUSH1 0x40 DUP3 ADD SWAP6 AND DUP2 MSTORE ADD MSTORE JUMP JUMPDEST SUB SWAP4 AND GAS CALL DUP1 ISZERO PUSH2 0xF1F JUMPI PUSH2 0xEEC JUMPI DUP3 DUP1 RETURN JUMPDEST DUP2 DUP2 RETURNDATASIZE DUP4 GT PUSH2 0xF18 JUMPI JUMPDEST PUSH2 0xF00 DUP2 DUP4 PUSH2 0x297E JUMP JUMPDEST DUP2 ADD SUB SLT PUSH2 0x7D2 JUMPI PUSH2 0xF11 SWAP1 PUSH2 0x2B1D JUMP JUMPDEST POP PUSH0 DUP1 DUP3 DUP1 RETURN JUMPDEST POP RETURNDATASIZE PUSH2 0xEF6 JUMP JUMPDEST PUSH1 0x40 MLOAD RETURNDATASIZE DUP6 DUP3 RETURNDATACOPY RETURNDATASIZE SWAP1 REVERT JUMPDEST SWAP5 SWAP3 SWAP1 POP DUP6 DUP6 DUP2 SWAP9 SWAP6 SWAP4 SWAP9 RETURNDATASIZE DUP4 GT PUSH2 0xF6D JUMPI JUMPDEST PUSH2 0xF47 DUP2 DUP4 PUSH2 0x297E JUMP JUMPDEST DUP2 ADD SUB SLT PUSH2 0x2DA JUMPI PUSH2 0xED9 SWAP7 PUSH2 0xE81 PUSH2 0xF60 DUP9 SWAP8 PUSH2 0x2B1D JUMP JUMPDEST SWAP3 SWAP5 SWAP7 POP POP SWAP2 SWAP4 SWAP7 PUSH2 0xE6E JUMP JUMPDEST POP RETURNDATASIZE PUSH2 0xF3D JUMP JUMPDEST POP CALLVALUE PUSH2 0x2DA JUMPI PUSH1 0x20 PUSH32 0xFFFFFFFFFFFFFFFFFFFFFFFFFFFFFFFFFFFFFFFFFFFFFFFFFFFFFFFFFFFFFFFC CALLDATASIZE ADD SLT PUSH2 0x2DA JUMPI PUSH2 0xFAC PUSH2 0x28A1 JUMP JUMPDEST PUSH32 0xF0C57E16840DF040F15088DC2F81FE391C3923BEC73E23A9662EFC9C229C6A00 SWAP1 DUP2 SLOAD PUSH1 0xFF DUP2 PUSH1 0x40 SHR AND ISZERO SWAP2 PUSH8 0xFFFFFFFFFFFFFFFF DUP3 AND DUP1 ISZERO SWAP1 DUP2 PUSH2 0x1160 JUMPI JUMPDEST PUSH1 0x1 EQ SWAP1 DUP2 PUSH2 0x1156 JUMPI JUMPDEST ISZERO SWAP1 DUP2 PUSH2 0x114D JUMPI JUMPDEST POP PUSH2 0x1123 JUMPI DUP2 DUP4 PUSH1 0x1 PUSH32 0xFFFFFFFFFFFFFFFFFFFFFFFFFFFFFFFFFFFFFFFFFFFFFFFF0000000000000000 PUSH20 0xFFFFFFFFFFFFFFFFFFFFFFFFFFFFFFFFFFFFFFFF SWAP6 AND OR DUP7 SSTORE PUSH2 0x10EE JUMPI JUMPDEST POP PUSH2 0x1051 PUSH2 0x2E2D JUMP JUMPDEST PUSH2 0x1059 PUSH2 0x2E2D JUMP JUMPDEST PUSH2 0x1061 PUSH2 0x2E2D JUMP JUMPDEST PUSH2 0x106A CALLER PUSH2 0x2CFC JUMP JUMPDEST AND PUSH32 0xFFFFFFFFFFFFFFFFFFFFFFFF0000000000000000000000000000000000000000 DUP5 SLOAD AND OR DUP4 SSTORE PUSH2 0x109A JUMPI POP DUP1 RETURN JUMPDEST PUSH32 0xFFFFFFFFFFFFFFFFFFFFFFFFFFFFFFFFFFFFFFFFFFFFFF00FFFFFFFFFFFFFFFF DUP2 SLOAD AND SWAP1 SSTORE PUSH32 0xC7F505B2F371AE2175EE4913F4499E1F2633A7B5936321EED1CDAEB6115181D2 PUSH1 0x20 PUSH1 0x40 MLOAD PUSH1 0x1 DUP2 MSTORE LOG1 DUP1 RETURN JUMPDEST PUSH32 0xFFFFFFFFFFFFFFFFFFFFFFFFFFFFFFFFFFFFFFFFFFFFFF000000000000000000 AND PUSH9 0x10000000000000001 OR DUP5 SSTORE PUSH0 PUSH2 0x1048 JUMP JUMPDEST PUSH1 0x4 PUSH1 0x40 MLOAD PUSH32 0xF92EE8A900000000000000000000000000000000000000000000000000000000 DUP2 MSTORE REVERT JUMPDEST SWAP1 POP ISZERO PUSH0 PUSH2 0xFFF JUMP JUMPDEST ADDRESS EXTCODESIZE ISZERO SWAP2 POP PUSH2 0xFF7 JUMP JUMPDEST DUP5 SWAP2 POP PUSH2 0xFED JUMP JUMPDEST POP CALLVALUE PUSH2 0x2DA JUMPI DUP1 PUSH32 0xFFFFFFFFFFFFFFFFFFFFFFFFFFFFFFFFFFFFFFFFFFFFFFFFFFFFFFFFFFFFFFFC CALLDATASIZE ADD SLT PUSH2 0x2DA JUMPI PUSH20 0xFFFFFFFFFFFFFFFFFFFFFFFFFFFFFFFFFFFFFFFF DUP2 DUP2 DUP2 SLOAD AND PUSH1 0x40 MLOAD DUP1 SWAP2 PUSH32 0x89345EFB00000000000000000000000000000000000000000000000000000000 DUP3 MSTORE CALLER PUSH1 0x4 DUP4 ADD MSTORE DUP2 PUSH1 0x24 PUSH1 0x20 SWAP5 DUP6 SWAP4 GAS STATICCALL DUP1 ISZERO PUSH2 0xF1F JUMPI DUP4 SWAP1 PUSH2 0x13AC JUMPI JUMPDEST PUSH2 0x1200 SWAP2 POP PUSH2 0x2C66 JUMP JUMPDEST PUSH1 0x40 MLOAD SWAP3 PUSH32 0x902F1AC00000000000000000000000000000000000000000000000000000000 DUP5 MSTORE DUP3 DUP5 PUSH1 0x4 DUP2 CALLER GAS STATICCALL SWAP4 DUP5 ISZERO PUSH2 0xF1F JUMPI DUP4 SWAP5 PUSH2 0x136D JUMPI JUMPDEST POP PUSH1 0x40 MLOAD PUSH32 0x67E4AC2C00000000000000000000000000000000000000000000000000000000 DUP2 MSTORE DUP4 DUP2 PUSH1 0x4 DUP2 CALLER GAS STATICCALL SWAP1 DUP2 ISZERO PUSH2 0x1362 JUMPI DUP5 SWAP2 PUSH2 0x1348 JUMPI JUMPDEST POP DUP4 JUMPDEST DUP2 MLOAD DUP2 LT ISZERO PUSH2 0x1344 JUMPI DUP1 DUP5 PUSH2 0x12E7 DUP6 PUSH2 0x1297 DUP10 SWAP6 DUP8 PUSH2 0x2BC4 JUMP JUMPDEST MLOAD AND PUSH2 0x12A3 DUP5 DUP12 PUSH2 0x2BC4 JUMP JUMPDEST MLOAD PUSH1 0x40 MLOAD PUSH32 0xA9059CBB00000000000000000000000000000000000000000000000000000000 DUP2 MSTORE CALLER PUSH1 0x4 DUP3 ADD MSTORE PUSH1 0x24 DUP2 ADD SWAP2 SWAP1 SWAP2 MSTORE SWAP5 DUP6 SWAP3 DUP4 SWAP2 SWAP1 DUP3 SWAP1 PUSH1 0x44 DUP3 ADD SWAP1 JUMP JUMPDEST SUB SWAP3 GAS CALL DUP1 ISZERO PUSH2 0x1339 JUMPI PUSH2 0x1300 JUMPI JUMPDEST PUSH1 0x1 SWAP2 POP ADD PUSH2 0x127D JUMP JUMPDEST DUP5 DUP3 DUP2 RETURNDATASIZE DUP4 GT PUSH2 0x1332 JUMPI JUMPDEST PUSH2 0x1315 DUP2 DUP4 PUSH2 0x297E JUMP JUMPDEST DUP2 ADD SUB SLT PUSH2 0x132E JUMPI PUSH2 0x1328 PUSH1 0x1 SWAP3 PUSH2 0x2B1D JUMP JUMPDEST POP PUSH2 0x12F6 JUMP JUMPDEST DUP6 DUP1 REVERT JUMPDEST POP RETURNDATASIZE PUSH2 0x130B JUMP JUMPDEST PUSH1 0x40 MLOAD RETURNDATASIZE DUP9 DUP3 RETURNDATACOPY RETURNDATASIZE SWAP1 REVERT JUMPDEST DUP5 DUP1 RETURN JUMPDEST PUSH2 0x135C SWAP2 POP RETURNDATASIZE DUP1 DUP7 DUP4 RETURNDATACOPY PUSH2 0x7C3 DUP2 DUP4 PUSH2 0x297E JUMP JUMPDEST PUSH0 PUSH2 0x127A JUMP JUMPDEST PUSH1 0x40 MLOAD RETURNDATASIZE DUP7 DUP3 RETURNDATACOPY RETURNDATASIZE SWAP1 REVERT JUMPDEST SWAP1 SWAP4 POP RETURNDATASIZE DUP1 DUP5 DUP4 RETURNDATACOPY PUSH2 0x137F DUP2 DUP4 PUSH2 0x297E JUMP JUMPDEST DUP2 ADD DUP3 DUP3 DUP3 SUB SLT PUSH2 0x7AA JUMPI DUP2 MLOAD PUSH8 0xFFFFFFFFFFFFFFFF DUP2 GT PUSH2 0x379 JUMPI PUSH2 0x13A5 SWAP3 ADD PUSH2 0x2C05 JUMP JUMPDEST SWAP3 PUSH0 PUSH2 0x123D JUMP JUMPDEST POP DUP2 DUP2 DUP2 RETURNDATASIZE DUP4 GT PUSH2 0x13DB JUMPI JUMPDEST PUSH2 0x13C2 DUP2 DUP4 PUSH2 0x297E JUMP JUMPDEST DUP2 ADD SUB SLT PUSH2 0xDF8 JUMPI PUSH2 0x13D6 PUSH2 0x1200 SWAP2 PUSH2 0x2B1D JUMP JUMPDEST PUSH2 0x11F6 JUMP JUMPDEST POP RETURNDATASIZE PUSH2 0x13B8 JUMP JUMPDEST POP CALLVALUE PUSH2 0x2DA JUMPI PUSH1 0x20 DUP1 PUSH32 0xFFFFFFFFFFFFFFFFFFFFFFFFFFFFFFFFFFFFFFFFFFFFFFFFFFFFFFFFFFFFFFFC CALLDATASIZE ADD SLT PUSH2 0x7D2 JUMPI PUSH2 0x141B PUSH2 0x28A1 JUMP JUMPDEST PUSH20 0xFFFFFFFFFFFFFFFFFFFFFFFFFFFFFFFFFFFFFFFF SWAP3 DUP1 DUP5 PUSH1 0x24 DUP2 DUP4 SLOAD AND SWAP5 PUSH1 0x40 MLOAD SWAP6 DUP7 SWAP4 DUP5 SWAP3 PUSH32 0xB4340E6A00000000000000000000000000000000000000000000000000000000 DUP5 MSTORE AND PUSH1 0x4 DUP4 ADD MSTORE GAS STATICCALL SWAP2 DUP3 ISZERO PUSH2 0x14D4 JUMPI DUP2 SWAP3 PUSH2 0x14B8 JUMPI JUMPDEST POP PUSH1 0x40 MLOAD SWAP3 DUP1 DUP5 ADD SWAP1 DUP1 DUP6 MSTORE DUP4 MLOAD DUP1 SWAP3 MSTORE DUP1 PUSH1 0x40 DUP7 ADD SWAP5 ADD SWAP3 JUMPDEST DUP3 DUP2 LT PUSH2 0x14A2 JUMPI DUP6 DUP6 SUB DUP7 RETURN JUMPDEST DUP4 MLOAD DUP8 AND DUP6 MSTORE SWAP4 DUP2 ADD SWAP4 SWAP3 DUP2 ADD SWAP3 PUSH1 0x1 ADD PUSH2 0x1495 JUMP JUMPDEST PUSH2 0x14CD SWAP2 SWAP3 POP RETURNDATASIZE DUP1 DUP5 DUP4 RETURNDATACOPY PUSH2 0x7C3 DUP2 DUP4 PUSH2 0x297E JUMP JUMPDEST SWAP1 PUSH0 PUSH2 0x147B JUMP JUMPDEST POP PUSH1 0x40 MLOAD SWAP1 RETURNDATASIZE SWAP1 DUP3 RETURNDATACOPY RETURNDATASIZE SWAP1 REVERT JUMPDEST POP CALLVALUE PUSH2 0x2DA JUMPI DUP1 PUSH32 0xFFFFFFFFFFFFFFFFFFFFFFFFFFFFFFFFFFFFFFFFFFFFFFFFFFFFFFFFFFFFFFFC CALLDATASIZE ADD SLT PUSH2 0x2DA JUMPI PUSH1 0x40 MLOAD PUSH1 0x40 DUP2 ADD SWAP1 DUP1 DUP3 LT PUSH8 0xFFFFFFFFFFFFFFFF DUP4 GT OR PUSH2 0x15A3 JUMPI PUSH1 0x40 SWAP2 DUP3 MSTORE PUSH1 0x5 DUP2 MSTORE PUSH32 0xFFFFFFFFFFFFFFFFFFFFFFFFFFFFFFFFFFFFFFFFFFFFFFFFFFFFFFFFFFFFFFE0 PUSH1 0x1F PUSH1 0x20 DUP4 ADD PUSH32 0x352E302E30000000000000000000000000000000000000000000000000000000 DUP2 MSTORE DUP5 MLOAD SWAP6 DUP7 SWAP5 PUSH1 0x20 DUP7 MSTORE MLOAD DUP1 SWAP3 DUP2 PUSH1 0x20 DUP9 ADD MSTORE DUP8 DUP8 ADD MCOPY DUP6 DUP3 DUP7 ADD ADD MSTORE ADD AND DUP2 ADD SUB ADD SWAP1 RETURN JUMPDEST PUSH32 0x4E487B7100000000000000000000000000000000000000000000000000000000 PUSH0 MSTORE PUSH1 0x41 PUSH1 0x4 MSTORE PUSH1 0x24 PUSH0 REVERT JUMPDEST POP CALLVALUE PUSH2 0x2DA JUMPI PUSH1 0x40 PUSH32 0xFFFFFFFFFFFFFFFFFFFFFFFFFFFFFFFFFFFFFFFFFFFFFFFFFFFFFFFFFFFFFFFC CALLDATASIZE ADD SLT PUSH2 0x2DA JUMPI PUSH2 0x1608 PUSH2 0x28A1 JUMP JUMPDEST PUSH1 0x24 CALLDATALOAD SWAP1 PUSH8 0xFFFFFFFFFFFFFFFF SWAP2 DUP3 DUP2 AND DUP1 SWAP2 SUB PUSH2 0x7AA JUMPI PUSH32 0xF0C57E16840DF040F15088DC2F81FE391C3923BEC73E23A9662EFC9C229C6A00 DUP1 SLOAD SWAP4 DUP3 PUSH1 0xFF DUP7 PUSH1 0x40 SHR AND SWAP2 DUP3 ISZERO PUSH2 0x1719 JUMPI JUMPDEST POP POP PUSH2 0x1123 JUMPI PUSH32 0xFFFFFFFFFFFFFFFFFFFFFFFFFFFFFFFFFFFFFFFFFFFFFF00FFFFFFFFFFFFFFFF PUSH9 0x10000000000000000 DUP4 PUSH32 0xFFFFFFFFFFFFFFFFFFFFFFFFFFFFFFFFFFFFFFFFFFFFFF000000000000000000 PUSH32 0xC7F505B2F371AE2175EE4913F4499E1F2633A7B5936321EED1CDAEB6115181D2 SWAP8 PUSH20 0xFFFFFFFFFFFFFFFFFFFFFFFFFFFFFFFFFFFFFFFF PUSH1 0x20 SWAP9 AND PUSH32 0xFFFFFFFFFFFFFFFFFFFFFFFF0000000000000000000000000000000000000000 PUSH0 SLOAD AND OR PUSH0 SSTORE AND OR OR AND SWAP1 SSTORE PUSH1 0x40 MLOAD SWAP1 DUP2 MSTORE LOG1 DUP1 RETURN JUMPDEST DUP7 AND LT ISZERO SWAP1 POP DUP3 PUSH0 PUSH2 0x1654 JUMP JUMPDEST POP CALLVALUE PUSH2 0x2DA JUMPI DUP1 PUSH32 0xFFFFFFFFFFFFFFFFFFFFFFFFFFFFFFFFFFFFFFFFFFFFFFFFFFFFFFFFFFFFFFFC CALLDATASIZE ADD SLT PUSH2 0x2DA JUMPI PUSH1 0x20 PUSH20 0xFFFFFFFFFFFFFFFFFFFFFFFFFFFFFFFFFFFFFFFF PUSH32 0x9016D09D72D40FDAE2FD8CEAC6B6234C7706214FD39C1CD1E609A0528C199300 SLOAD AND PUSH1 0x40 MLOAD SWAP1 DUP2 MSTORE RETURN JUMPDEST POP CALLVALUE PUSH2 0x2DA JUMPI PUSH1 0x24 PUSH2 0x17A8 CALLDATASIZE PUSH2 0x29F9 JUMP JUMPDEST PUSH2 0x17B7 DUP3 SWAP6 SWAP5 SWAP4 SWAP3 ISZERO ISZERO PUSH2 0x2AB8 JUMP JUMPDEST DUP6 PUSH20 0xFFFFFFFFFFFFFFFFFFFFFFFFFFFFFFFFFFFFFFFF DUP2 SLOAD AND PUSH1 0x40 MLOAD SWAP6 DUP7 DUP1 SWAP3 PUSH32 0xB4340E6A00000000000000000000000000000000000000000000000000000000 DUP3 MSTORE PUSH20 0xFFFFFFFFFFFFFFFFFFFFFFFFFFFFFFFFFFFFFFFF DUP9 AND PUSH1 0x4 DUP4 ADD MSTORE GAS STATICCALL SWAP4 DUP5 ISZERO PUSH2 0x1339 JUMPI DUP7 SWAP5 PUSH2 0x1E0F JUMPI JUMPDEST POP SWAP1 SWAP4 SWAP2 DUP6 SWAP1 DUP2 SWAP1 DUP2 JUMPDEST DUP7 MLOAD DUP5 LT ISZERO PUSH2 0x1B69 JUMPI PUSH20 0xFFFFFFFFFFFFFFFFFFFFFFFFFFFFFFFFFFFFFFFF PUSH2 0x1858 DUP6 DUP10 PUSH2 0x2BC4 JUMP JUMPDEST MLOAD AND SWAP8 PUSH1 0x40 MLOAD SWAP6 PUSH32 0x89AB353200000000000000000000000000000000000000000000000000000000 DUP8 MSTORE DUP11 DUP8 PUSH1 0x4 DUP2 DUP14 GAS STATICCALL SWAP7 DUP8 ISZERO PUSH2 0x1B5E JUMPI DUP12 SWAP8 PUSH2 0x1A8F JUMPI JUMPDEST POP PUSH1 0x4 SWAP5 SWAP6 SWAP7 SWAP8 DUP12 DUP12 PUSH1 0x40 MLOAD SWAP8 DUP9 DUP1 SWAP3 PUSH32 0x36BF6E3900000000000000000000000000000000000000000000000000000000 DUP3 MSTORE GAS STATICCALL SWAP6 DUP7 ISZERO PUSH2 0x1A84 JUMPI DUP13 SWAP7 PUSH2 0x1A3D JUMPI JUMPDEST POP DUP12 JUMPDEST DUP13 DUP11 MLOAD DUP3 LT ISZERO PUSH2 0x1A29 JUMPI PUSH1 0x24 PUSH1 0x40 DUP15 DUP2 MLOAD SWAP3 DUP4 DUP1 SWAP3 PUSH32 0xD14EF46D00000000000000000000000000000000000000000000000000000000 DUP3 MSTORE DUP8 PUSH1 0x4 DUP4 ADD MSTORE GAS STATICCALL SWAP2 DUP3 ISZERO PUSH2 0x1A1D JUMPI SWAP2 PUSH2 0x19B5 JUMPI JUMPDEST POP PUSH20 0xFFFFFFFFFFFFFFFFFFFFFFFFFFFFFFFFFFFFFFFF DUP1 DUP9 AND SWAP2 MLOAD AND EQ PUSH2 0x1955 JUMPI JUMPDEST PUSH1 0x1 ADD PUSH2 0x18DE JUMP JUMPDEST PUSH2 0x195F DUP2 DUP9 PUSH2 0x2BC4 JUMP JUMPDEST MLOAD PUSH2 0x196A DUP3 DUP13 PUSH2 0x2BC4 JUMP JUMPDEST MLOAD ISZERO ISZERO DUP1 PUSH2 0x19AC JUMPI JUMPDEST PUSH2 0x197E JUMPI JUMPDEST POP PUSH2 0x194D JUMP JUMPDEST SWAP8 POP SWAP4 POP PUSH1 0x1 PUSH20 0xFFFFFFFFFFFFFFFFFFFFFFFFFFFFFFFFFFFFFFFF PUSH2 0x19A3 DUP11 DUP14 PUSH2 0x2BC4 JUMP JUMPDEST MLOAD AND SWAP5 SWAP1 PUSH2 0x1978 JUMP JUMPDEST POP DUP9 DUP2 GT PUSH2 0x1973 JUMP JUMPDEST SWAP1 POP PUSH1 0x40 DUP2 RETURNDATASIZE PUSH1 0x40 GT PUSH2 0x1A15 JUMPI JUMPDEST DUP2 PUSH2 0x19D0 PUSH1 0x40 SWAP4 DUP4 PUSH2 0x297E JUMP JUMPDEST DUP2 ADD SUB SLT PUSH2 0x1A11 JUMPI PUSH1 0x40 MLOAD SWAP1 PUSH1 0x40 DUP3 ADD DUP3 DUP2 LT PUSH8 0xFFFFFFFFFFFFFFFF DUP3 GT OR PUSH2 0x15A3 JUMPI PUSH1 0x40 MSTORE PUSH2 0x19FF DUP2 PUSH2 0x2A97 JUMP JUMPDEST DUP3 MSTORE PUSH1 0x20 DUP1 SWAP2 ADD MLOAD SWAP1 DUP3 ADD MSTORE PUSH0 PUSH2 0x192B JUMP JUMPDEST DUP14 DUP1 REVERT JUMPDEST RETURNDATASIZE SWAP2 POP PUSH2 0x19C3 JUMP JUMPDEST PUSH1 0x40 MLOAD SWAP1 RETURNDATASIZE SWAP1 DUP3 RETURNDATACOPY RETURNDATASIZE SWAP1 REVERT JUMPDEST POP SWAP3 SWAP11 POP SWAP8 POP SWAP6 PUSH1 0x1 ADD SWAP5 SWAP4 POP PUSH2 0x1830 SWAP1 POP JUMP JUMPDEST SWAP1 SWAP6 POP RETURNDATASIZE DUP1 DUP14 DUP4 RETURNDATACOPY PUSH2 0x1A4F DUP2 DUP4 PUSH2 0x297E JUMP JUMPDEST DUP2 ADD PUSH1 0x40 DUP3 DUP3 SUB SLT PUSH2 0x1A80 JUMPI PUSH1 0x20 DUP3 ADD MLOAD PUSH8 0xFFFFFFFFFFFFFFFF DUP2 GT PUSH2 0x1A11 JUMPI PUSH2 0x1A79 SWAP3 ADD PUSH2 0x2C05 JUMP JUMPDEST SWAP5 PUSH0 PUSH2 0x18DB JUMP JUMPDEST DUP13 DUP1 REVERT JUMPDEST PUSH1 0x40 MLOAD RETURNDATASIZE DUP15 DUP3 RETURNDATACOPY RETURNDATASIZE SWAP1 REVERT JUMPDEST SWAP5 SWAP6 SWAP7 POP RETURNDATASIZE SWAP5 DUP6 DUP13 DUP3 RETURNDATACOPY PUSH2 0x1AA3 DUP7 DUP3 PUSH2 0x297E JUMP JUMPDEST PUSH1 0x40 DUP2 DUP8 DUP2 ADD SUB SLT PUSH2 0x1B5A JUMPI DUP1 MLOAD SWAP6 PUSH8 0xFFFFFFFFFFFFFFFF SWAP7 DUP8 DUP2 GT PUSH2 0x1A11 JUMPI DUP3 ADD SWAP2 DUP2 DUP2 ADD PUSH1 0x1F DUP5 ADD SLT ISZERO PUSH2 0x1A11 JUMPI DUP3 MLOAD SWAP3 PUSH1 0x20 SWAP1 PUSH2 0x1AE2 DUP6 PUSH2 0x2B2A JUMP JUMPDEST SWAP5 PUSH2 0x1AF0 PUSH1 0x40 MLOAD SWAP7 DUP8 PUSH2 0x297E JUMP JUMPDEST DUP1 DUP7 MSTORE DUP3 DUP1 DUP8 ADD SWAP2 PUSH1 0x5 SHL DUP4 ADD ADD SWAP2 DUP6 DUP6 ADD DUP4 GT PUSH2 0x1B54 JUMPI DUP4 DUP1 SWAP2 ADD SWAP2 JUMPDEST DUP4 DUP4 LT PUSH2 0x1B3C JUMPI POP POP POP POP DUP2 ADD MLOAD SWAP8 DUP9 GT PUSH2 0x1A11 JUMPI PUSH1 0x4 SWAP8 PUSH2 0x1B33 SWAP3 DUP3 ADD SWAP2 ADD PUSH2 0x2C05 JUMP JUMPDEST POP SWAP7 SWAP6 SWAP5 PUSH2 0x1898 JUMP JUMPDEST DUP2 SWAP1 PUSH2 0x1B47 DUP5 PUSH2 0x2B1D JUMP JUMPDEST DUP2 MSTORE ADD SWAP2 ADD SWAP1 DUP4 SWAP1 PUSH2 0x1B0E JUMP JUMPDEST POP POP DUP16 DUP1 REVERT JUMPDEST DUP12 DUP1 REVERT JUMPDEST PUSH1 0x40 MLOAD RETURNDATASIZE DUP14 DUP3 RETURNDATACOPY RETURNDATASIZE SWAP1 REVERT JUMPDEST DUP9 DUP7 DUP7 SWAP3 DUP11 PUSH20 0xFFFFFFFFFFFFFFFFFFFFFFFFFFFFFFFFFFFFFFFF DUP3 AND ISZERO PUSH2 0x1DB1 JUMPI PUSH1 0x40 MLOAD PUSH32 0x23B872DD00000000000000000000000000000000000000000000000000000000 DUP2 MSTORE CALLER PUSH1 0x4 DUP3 ADD MSTORE ADDRESS PUSH1 0x24 DUP3 ADD MSTORE PUSH1 0x44 DUP2 ADD DUP5 SWAP1 MSTORE PUSH1 0x20 DUP2 PUSH1 0x64 DUP2 DUP9 PUSH20 0xFFFFFFFFFFFFFFFFFFFFFFFFFFFFFFFFFFFFFFFF DUP13 AND GAS CALL DUP1 ISZERO PUSH2 0x384 JUMPI PUSH2 0x1D78 JUMPI JUMPDEST POP PUSH1 0x40 MLOAD PUSH32 0x95EA7B300000000000000000000000000000000000000000000000000000000 DUP2 MSTORE PUSH20 0xFFFFFFFFFFFFFFFFFFFFFFFFFFFFFFFFFFFFFFFF DUP4 AND PUSH1 0x4 DUP3 ADD MSTORE PUSH1 0x24 DUP2 ADD DUP5 SWAP1 MSTORE PUSH1 0x20 DUP2 DUP1 PUSH1 0x44 DUP2 ADD SUB DUP2 DUP9 PUSH20 0xFFFFFFFFFFFFFFFFFFFFFFFFFFFFFFFFFFFFFFFF DUP13 AND GAS CALL DUP1 ISZERO PUSH2 0x384 JUMPI PUSH2 0x1D20 JUMPI JUMPDEST POP PUSH1 0x40 MLOAD PUSH32 0x6E81221C00000000000000000000000000000000000000000000000000000000 DUP2 MSTORE PUSH20 0xFFFFFFFFFFFFFFFFFFFFFFFFFFFFFFFFFFFFFFFF SWAP7 DUP8 AND PUSH1 0x4 DUP3 ADD MSTORE SWAP1 DUP7 AND PUSH1 0x24 DUP3 ADD MSTORE PUSH1 0x44 DUP2 ADD SWAP3 SWAP1 SWAP3 MSTORE SWAP3 DUP5 AND PUSH1 0x64 DUP3 ADD MSTORE SWAP3 SWAP1 SWAP2 PUSH1 0x20 SWAP2 DUP5 SWAP2 PUSH1 0x84 SWAP2 DUP4 SWAP2 DUP7 SWAP2 AND GAS CALL SWAP1 DUP2 ISZERO PUSH2 0x1A1D JUMPI SWAP1 PUSH2 0x1CED JUMPI JUMPDEST PUSH1 0x20 SWAP1 PUSH1 0x40 MLOAD SWAP1 DUP2 MSTORE RETURN JUMPDEST POP PUSH1 0x20 DUP2 RETURNDATASIZE PUSH1 0x20 GT PUSH2 0x1D18 JUMPI JUMPDEST DUP2 PUSH2 0x1D07 PUSH1 0x20 SWAP4 DUP4 PUSH2 0x297E JUMP JUMPDEST DUP2 ADD SUB SLT PUSH2 0x417 JUMPI PUSH1 0x20 SWAP1 MLOAD PUSH2 0x1CE2 JUMP JUMPDEST RETURNDATASIZE SWAP2 POP PUSH2 0x1CFA JUMP JUMPDEST PUSH1 0x20 DUP2 RETURNDATASIZE PUSH1 0x20 GT PUSH2 0x1D70 JUMPI JUMPDEST DUP2 PUSH2 0x1D39 PUSH1 0x20 SWAP4 DUP4 PUSH2 0x297E JUMP JUMPDEST DUP2 ADD SUB SLT PUSH2 0x379 JUMPI SWAP4 PUSH20 0xFFFFFFFFFFFFFFFFFFFFFFFFFFFFFFFFFFFFFFFF DUP2 SWAP7 SWAP8 PUSH2 0x1D65 PUSH1 0x20 SWAP8 PUSH2 0x2B1D JUMP JUMPDEST POP SWAP8 SWAP7 SWAP6 POP POP PUSH2 0x1C67 JUMP JUMPDEST RETURNDATASIZE SWAP2 POP PUSH2 0x1D2C JUMP JUMPDEST PUSH1 0x20 DUP2 RETURNDATASIZE PUSH1 0x20 GT PUSH2 0x1DA9 JUMPI JUMPDEST DUP2 PUSH2 0x1D91 PUSH1 0x20 SWAP4 DUP4 PUSH2 0x297E JUMP JUMPDEST DUP2 ADD SUB SLT PUSH2 0x379 JUMPI PUSH2 0x1DA2 SWAP1 PUSH2 0x2B1D JUMP JUMPDEST POP DUP7 PUSH2 0x1BEE JUMP JUMPDEST RETURNDATASIZE SWAP2 POP PUSH2 0x1D84 JUMP JUMPDEST PUSH1 0x64 PUSH1 0x40 MLOAD PUSH32 0x8C379A000000000000000000000000000000000000000000000000000000000 DUP2 MSTORE PUSH1 0x20 PUSH1 0x4 DUP3 ADD MSTORE PUSH1 0x16 PUSH1 0x24 DUP3 ADD MSTORE PUSH32 0x4E6F207375697461626C6520706F6F6C20666F756E6400000000000000000000 PUSH1 0x44 DUP3 ADD MSTORE REVERT JUMPDEST PUSH2 0x1E24 SWAP2 SWAP5 POP RETURNDATASIZE DUP1 DUP9 DUP4 RETURNDATACOPY PUSH2 0x7C3 DUP2 DUP4 PUSH2 0x297E JUMP JUMPDEST SWAP3 PUSH0 PUSH2 0x1826 JUMP JUMPDEST POP CALLVALUE PUSH2 0x2DA JUMPI PUSH1 0x20 PUSH32 0xFFFFFFFFFFFFFFFFFFFFFFFFFFFFFFFFFFFFFFFFFFFFFFFFFFFFFFFFFFFFFFFC CALLDATASIZE ADD SLT PUSH2 0x2DA JUMPI PUSH20 0xFFFFFFFFFFFFFFFFFFFFFFFFFFFFFFFFFFFFFFFF PUSH2 0x1E78 PUSH2 0x28A1 JUMP JUMPDEST PUSH2 0x1E80 PUSH2 0x2DBD JUMP JUMPDEST AND PUSH32 0xFFFFFFFFFFFFFFFFFFFFFFFF0000000000000000000000000000000000000000 PUSH0 SLOAD AND OR PUSH0 SSTORE DUP1 RETURN JUMPDEST POP CALLVALUE PUSH2 0x2DA JUMPI DUP1 PUSH32 0xFFFFFFFFFFFFFFFFFFFFFFFFFFFFFFFFFFFFFFFFFFFFFFFFFFFFFFFFFFFFFFFC CALLDATASIZE ADD SLT PUSH2 0x2DA JUMPI PUSH2 0x1EE2 PUSH2 0x2DBD JUMP JUMPDEST PUSH0 PUSH20 0xFFFFFFFFFFFFFFFFFFFFFFFFFFFFFFFFFFFFFFFF PUSH32 0x9016D09D72D40FDAE2FD8CEAC6B6234C7706214FD39C1CD1E609A0528C199300 DUP1 SLOAD SWAP1 PUSH32 0xFFFFFFFFFFFFFFFFFFFFFFFF0000000000000000000000000000000000000000 DUP3 AND SWAP1 SSTORE AND PUSH32 0x8BE0079C531659141344CD1FD0A4F28419497F9722A3DAAFE3B4186F6B6457E0 DUP3 DUP1 LOG3 DUP1 RETURN JUMPDEST POP CALLVALUE PUSH2 0x2DA JUMPI PUSH2 0x1F78 CALLDATASIZE PUSH2 0x29F9 JUMP JUMPDEST SWAP2 PUSH2 0x1F87 DUP3 SWAP6 SWAP5 SWAP6 ISZERO ISZERO PUSH2 0x2AB8 JUMP JUMPDEST DUP4 SLOAD PUSH1 0x40 MLOAD PUSH32 0x2D5E94A700000000000000000000000000000000000000000000000000000000 DUP2 MSTORE PUSH20 0xFFFFFFFFFFFFFFFFFFFFFFFFFFFFFFFFFFFFFFFF DUP8 DUP2 AND PUSH1 0x4 DUP4 ADD MSTORE DUP4 DUP2 AND PUSH1 0x24 DUP4 ADD MSTORE PUSH1 0x20 SWAP8 SWAP2 SWAP4 SWAP3 SWAP1 SWAP2 SWAP1 DUP9 SWAP1 DUP6 SWAP1 PUSH1 0x44 SWAP1 DUP3 SWAP1 DUP7 AND GAS STATICCALL SWAP4 DUP5 ISZERO PUSH2 0x422 JUMPI DUP8 SWAP5 PUSH2 0x21D7 JUMPI JUMPDEST POP PUSH1 0x40 MLOAD PUSH32 0x23B872DD00000000000000000000000000000000000000000000000000000000 DUP2 MSTORE CALLER PUSH1 0x4 DUP3 ADD MSTORE ADDRESS PUSH1 0x24 DUP3 ADD MSTORE PUSH1 0x44 DUP2 ADD DUP7 SWAP1 MSTORE DUP3 DUP3 AND SWAP1 DUP10 DUP2 PUSH1 0x64 DUP2 DUP13 DUP7 GAS CALL DUP1 ISZERO PUSH2 0xC44 JUMPI PUSH2 0x21A3 JUMPI JUMPDEST POP PUSH1 0x40 MLOAD PUSH32 0x95EA7B300000000000000000000000000000000000000000000000000000000 DUP2 MSTORE PUSH20 0xFFFFFFFFFFFFFFFFFFFFFFFFFFFFFFFFFFFFFFFF DUP7 AND PUSH1 0x4 DUP3 ADD MSTORE PUSH1 0x24 DUP2 ADD DUP8 SWAP1 MSTORE SWAP1 DUP10 SWAP1 DUP3 SWAP1 PUSH1 0x44 SWAP1 DUP3 SWAP1 DUP13 SWAP1 GAS CALL DUP1 ISZERO PUSH2 0x6E7 JUMPI SWAP2 DUP10 SWAP7 SWAP6 SWAP5 SWAP4 SWAP2 DUP10 SWAP4 PUSH2 0x2161 JUMPI JUMPDEST POP PUSH1 0x40 MLOAD PUSH32 0x6E81221C00000000000000000000000000000000000000000000000000000000 DUP2 MSTORE PUSH20 0xFFFFFFFFFFFFFFFFFFFFFFFFFFFFFFFFFFFFFFFF SWAP2 DUP3 AND PUSH1 0x4 DUP3 ADD MSTORE SWAP4 DUP2 AND PUSH1 0x24 DUP6 ADD MSTORE PUSH1 0x44 DUP5 ADD SWAP6 SWAP1 SWAP6 MSTORE SWAP6 SWAP1 SWAP4 AND PUSH1 0x64 DUP3 ADD MSTORE SWAP4 DUP5 SWAP3 PUSH1 0x84 SWAP3 DUP5 SWAP3 AND GAS CALL SWAP2 DUP3 ISZERO PUSH2 0x1A1D JUMPI SWAP2 PUSH2 0x2134 JUMPI JUMPDEST POP PUSH1 0x40 MLOAD SWAP1 DUP2 MSTORE RETURN JUMPDEST SWAP1 POP DUP2 DUP2 DUP2 RETURNDATASIZE DUP4 GT PUSH2 0x215A JUMPI JUMPDEST PUSH2 0x214B DUP2 DUP4 PUSH2 0x297E JUMP JUMPDEST DUP2 ADD SUB SLT PUSH2 0x417 JUMPI MLOAD PUSH0 PUSH2 0x212B JUMP JUMPDEST POP RETURNDATASIZE PUSH2 0x2141 JUMP JUMPDEST DUP8 DUP2 SWAP4 SWAP6 SWAP7 SWAP8 SWAP9 SWAP3 SWAP5 POP RETURNDATASIZE DUP4 GT PUSH2 0x219C JUMPI JUMPDEST PUSH2 0x217D DUP2 DUP4 PUSH2 0x297E JUMP JUMPDEST DUP2 ADD SUB SLT PUSH2 0xDF4 JUMPI SWAP2 DUP8 SWAP2 PUSH2 0x2195 DUP11 SWAP8 SWAP7 SWAP6 SWAP5 PUSH2 0x2B1D JUMP JUMPDEST POP PUSH0 PUSH2 0x20B6 JUMP JUMPDEST POP RETURNDATASIZE PUSH2 0x2173 JUMP JUMPDEST DUP10 DUP2 DUP2 RETURNDATASIZE DUP4 GT PUSH2 0x21D0 JUMPI JUMPDEST PUSH2 0x21B8 DUP2 DUP4 PUSH2 0x297E JUMP JUMPDEST DUP2 ADD SUB SLT PUSH2 0xD01 JUMPI PUSH2 0x21C9 SWAP1 PUSH2 0x2B1D JUMP JUMPDEST POP PUSH0 PUSH2 0x204A JUMP JUMPDEST POP RETURNDATASIZE PUSH2 0x21AE JUMP JUMPDEST SWAP1 SWAP4 POP DUP8 DUP2 DUP2 RETURNDATASIZE DUP4 GT PUSH2 0x2207 JUMPI JUMPDEST PUSH2 0x21EF DUP2 DUP4 PUSH2 0x297E JUMP JUMPDEST DUP2 ADD SUB SLT PUSH2 0x6DC JUMPI PUSH2 0x2200 SWAP1 PUSH2 0x2A97 JUMP JUMPDEST SWAP3 PUSH0 PUSH2 0x1FF8 JUMP JUMPDEST POP RETURNDATASIZE PUSH2 0x21E5 JUMP JUMPDEST POP CALLVALUE PUSH2 0x417 JUMPI PUSH1 0x20 PUSH32 0xFFFFFFFFFFFFFFFFFFFFFFFFFFFFFFFFFFFFFFFFFFFFFFFFFFFFFFFFFFFFFFFC CALLDATASIZE ADD SLT PUSH2 0x417 JUMPI PUSH20 0xFFFFFFFFFFFFFFFFFFFFFFFFFFFFFFFFFFFFFFFF PUSH2 0x225B PUSH2 0x28A1 JUMP JUMPDEST AND DUP1 EXTCODESIZE ISZERO PUSH2 0x417 JUMPI PUSH0 DUP1 SWAP2 PUSH1 0x24 PUSH1 0x40 MLOAD DUP1 SWAP5 DUP2 SWAP4 PUSH32 0x5568081A00000000000000000000000000000000000000000000000000000000 DUP4 MSTORE CALLER PUSH1 0x4 DUP5 ADD MSTORE GAS CALL DUP1 ISZERO PUSH2 0x22B4 JUMPI PUSH2 0x22A8 JUMPI POP DUP1 RETURN JUMPDEST PUSH2 0x22B2 SWAP2 POP PUSH2 0x296A JUMP JUMPDEST STOP JUMPDEST PUSH1 0x40 MLOAD RETURNDATASIZE PUSH0 DUP3 RETURNDATACOPY RETURNDATASIZE SWAP1 REVERT JUMPDEST CALLVALUE PUSH2 0x417 JUMPI PUSH0 PUSH32 0xFFFFFFFFFFFFFFFFFFFFFFFFFFFFFFFFFFFFFFFFFFFFFFFFFFFFFFFFFFFFFFFC CALLDATASIZE ADD SLT PUSH2 0x417 JUMPI PUSH20 0xFFFFFFFFFFFFFFFFFFFFFFFFFFFFFFFFFFFFFFFF PUSH32 0x0 AND ADDRESS SUB PUSH2 0x2354 JUMPI PUSH1 0x20 PUSH1 0x40 MLOAD PUSH32 0x360894A13BA1A3210667C828492DB98DCA3E2076CC3735A920A3CA505D382BBC DUP2 MSTORE RETURN JUMPDEST PUSH1 0x4 PUSH1 0x40 MLOAD PUSH32 0xE07C8DBA00000000000000000000000000000000000000000000000000000000 DUP2 MSTORE REVERT JUMPDEST PUSH1 0x40 PUSH32 0xFFFFFFFFFFFFFFFFFFFFFFFFFFFFFFFFFFFFFFFFFFFFFFFFFFFFFFFFFFFFFFFC CALLDATASIZE ADD SLT PUSH2 0x417 JUMPI PUSH2 0x23B0 PUSH2 0x28A1 JUMP JUMPDEST PUSH1 0x24 SWAP1 DUP2 CALLDATALOAD PUSH8 0xFFFFFFFFFFFFFFFF DUP2 GT PUSH2 0x417 JUMPI CALLDATASIZE PUSH1 0x23 DUP3 ADD SLT ISZERO PUSH2 0x417 JUMPI DUP1 PUSH1 0x4 ADD CALLDATALOAD PUSH2 0x23DD DUP2 PUSH2 0x29BF JUMP JUMPDEST SWAP3 PUSH2 0x23EB PUSH1 0x40 MLOAD SWAP5 DUP6 PUSH2 0x297E JUMP JUMPDEST DUP2 DUP5 MSTORE PUSH1 0x20 SWAP2 DUP3 DUP6 ADD SWAP4 CALLDATASIZE DUP8 DUP4 DUP4 ADD ADD GT PUSH2 0x417 JUMPI DUP2 PUSH0 SWAP3 DUP9 DUP7 SWAP4 ADD DUP8 CALLDATACOPY DUP7 ADD ADD MSTORE PUSH20 0xFFFFFFFFFFFFFFFFFFFFFFFFFFFFFFFFFFFFFFFF DUP1 PUSH32 0x0 AND DUP1 ADDRESS EQ SWAP1 DUP2 ISZERO PUSH2 0x265A JUMPI JUMPDEST POP PUSH2 0x2354 JUMPI PUSH2 0x245D PUSH2 0x2DBD JUMP JUMPDEST DUP2 AND SWAP4 PUSH1 0x40 MLOAD PUSH32 0x52D1902D00000000000000000000000000000000000000000000000000000000 DUP2 MSTORE DUP4 DUP2 PUSH1 0x4 DUP2 DUP10 GAS STATICCALL PUSH0 SWAP2 DUP2 PUSH2 0x262B JUMPI JUMPDEST POP PUSH2 0x24CB JUMPI DUP7 DUP7 PUSH1 0x40 MLOAD SWAP1 PUSH32 0x4C9C8CE300000000000000000000000000000000000000000000000000000000 DUP3 MSTORE PUSH1 0x4 DUP3 ADD MSTORE REVERT JUMPDEST DUP6 SWAP1 DUP8 PUSH32 0x360894A13BA1A3210667C828492DB98DCA3E2076CC3735A920A3CA505D382BBC SWAP2 DUP3 DUP2 SUB PUSH2 0x25FD JUMPI POP DUP5 EXTCODESIZE ISZERO PUSH2 0x25CE JUMPI POP DUP2 PUSH32 0xFFFFFFFFFFFFFFFFFFFFFFFF0000000000000000000000000000000000000000 DUP3 SLOAD AND OR SWAP1 SSTORE PUSH1 0x40 MLOAD SWAP1 PUSH32 0xBC7CD75A20EE27FD9ADEBAB32041F755214DBC6BFFA90CC0225B39DA2E5C2D3B PUSH0 DUP1 LOG2 DUP2 MLOAD ISZERO PUSH2 0x259A JUMPI POP PUSH0 PUSH2 0x22B2 SWAP5 DUP2 SWAP3 MLOAD SWAP1 DUP5 GAS DELEGATECALL SWAP1 RETURNDATASIZE ISZERO PUSH2 0x2591 JUMPI RETURNDATASIZE PUSH2 0x2575 DUP2 PUSH2 0x29BF JUMP JUMPDEST SWAP1 PUSH2 0x2583 PUSH1 0x40 MLOAD SWAP3 DUP4 PUSH2 0x297E JUMP JUMPDEST DUP2 MSTORE PUSH0 DUP2 SWAP5 RETURNDATASIZE SWAP3 ADD RETURNDATACOPY PUSH2 0x2E86 JUMP JUMPDEST PUSH1 0x60 SWAP3 POP PUSH2 0x2E86 JUMP JUMPDEST SWAP4 POP POP POP POP CALLVALUE PUSH2 0x25A6 JUMPI STOP JUMPDEST DUP1 PUSH32 0xB398979F00000000000000000000000000000000000000000000000000000000 PUSH1 0x4 SWAP3 MSTORE REVERT JUMPDEST DUP3 PUSH1 0x40 MLOAD SWAP1 PUSH32 0x4C9C8CE300000000000000000000000000000000000000000000000000000000 DUP3 MSTORE PUSH1 0x4 DUP3 ADD MSTORE REVERT JUMPDEST PUSH1 0x40 MLOAD SWAP1 PUSH32 0xAA1D49A400000000000000000000000000000000000000000000000000000000 DUP3 MSTORE PUSH1 0x4 DUP3 ADD MSTORE REVERT JUMPDEST SWAP1 SWAP2 POP DUP5 DUP2 DUP2 RETURNDATASIZE DUP4 GT PUSH2 0x2653 JUMPI JUMPDEST PUSH2 0x2643 DUP2 DUP4 PUSH2 0x297E JUMP JUMPDEST DUP2 ADD SUB SLT PUSH2 0x417 JUMPI MLOAD SWAP1 DUP9 PUSH2 0x2496 JUMP JUMPDEST POP RETURNDATASIZE PUSH2 0x2639 JUMP JUMPDEST SWAP1 POP DUP2 PUSH32 0x360894A13BA1A3210667C828492DB98DCA3E2076CC3735A920A3CA505D382BBC SLOAD AND EQ ISZERO DUP8 PUSH2 0x2450 JUMP JUMPDEST CALLVALUE PUSH2 0x417 JUMPI PUSH2 0x2696 CALLDATASIZE PUSH2 0x290A JUMP JUMPDEST PUSH0 SLOAD PUSH1 0x40 MLOAD PUSH32 0x2D5E94A700000000000000000000000000000000000000000000000000000000 DUP2 MSTORE PUSH20 0xFFFFFFFFFFFFFFFFFFFFFFFFFFFFFFFFFFFFFFFF DUP6 DUP2 AND PUSH1 0x4 DUP4 ADD MSTORE DUP5 DUP2 AND PUSH1 0x24 DUP4 ADD MSTORE PUSH1 0x20 SWAP6 SWAP1 SWAP5 SWAP2 SWAP4 SWAP3 SWAP1 SWAP2 SWAP1 DUP7 SWAP1 DUP6 SWAP1 PUSH1 0x44 SWAP1 DUP3 SWAP1 DUP10 AND GAS STATICCALL SWAP2 DUP3 ISZERO PUSH2 0x22B4 JUMPI DUP7 SWAP5 PUSH0 SWAP4 PUSH2 0x27B3 JUMPI JUMPDEST POP PUSH1 0x40 MLOAD PUSH32 0x4AA0665200000000000000000000000000000000000000000000000000000000 DUP2 MSTORE PUSH20 0xFFFFFFFFFFFFFFFFFFFFFFFFFFFFFFFFFFFFFFFF SWAP2 DUP3 AND PUSH1 0x4 DUP3 ADD MSTORE SWAP2 AND PUSH1 0x24 DUP3 ADD MSTORE PUSH1 0x44 DUP2 ADD SWAP3 SWAP1 SWAP3 MSTORE SWAP1 SWAP3 DUP4 SWAP2 SWAP1 DUP3 SWAP1 DUP2 PUSH1 0x64 DUP2 ADD JUMPDEST SUB SWAP3 AND GAS STATICCALL SWAP1 DUP2 ISZERO PUSH2 0x22B4 JUMPI PUSH0 SWAP2 PUSH2 0x2786 JUMPI POP PUSH1 0x40 MLOAD SWAP1 DUP2 MSTORE RETURN JUMPDEST SWAP1 POP DUP2 DUP2 DUP2 RETURNDATASIZE DUP4 GT PUSH2 0x27AC JUMPI JUMPDEST PUSH2 0x279D DUP2 DUP4 PUSH2 0x297E JUMP JUMPDEST DUP2 ADD SUB SLT PUSH2 0x417 JUMPI MLOAD DUP3 PUSH2 0x212B JUMP JUMPDEST POP RETURNDATASIZE PUSH2 0x2793 JUMP JUMPDEST DUP6 DUP2 SWAP7 SWAP3 SWAP5 POP RETURNDATASIZE DUP4 GT PUSH2 0x27E9 JUMPI JUMPDEST PUSH2 0x27CB DUP2 DUP4 PUSH2 0x297E JUMP JUMPDEST DUP2 ADD SUB SLT PUSH2 0x417 JUMPI PUSH2 0x276B SWAP5 PUSH2 0x27E1 DUP8 SWAP6 PUSH2 0x2A97 JUMP JUMPDEST SWAP3 SWAP1 SWAP6 PUSH2 0x270B JUMP JUMPDEST POP RETURNDATASIZE PUSH2 0x27C1 JUMP JUMPDEST CALLVALUE PUSH2 0x417 JUMPI PUSH0 PUSH32 0xFFFFFFFFFFFFFFFFFFFFFFFFFFFFFFFFFFFFFFFFFFFFFFFFFFFFFFFFFFFFFFFC CALLDATASIZE ADD SLT PUSH2 0x417 JUMPI PUSH1 0x20 PUSH20 0xFFFFFFFFFFFFFFFFFFFFFFFFFFFFFFFFFFFFFFFF PUSH0 SLOAD AND PUSH1 0x40 MLOAD SWAP1 DUP2 MSTORE RETURN JUMPDEST CALLVALUE PUSH2 0x417 JUMPI PUSH0 PUSH32 0xFFFFFFFFFFFFFFFFFFFFFFFFFFFFFFFFFFFFFFFFFFFFFFFFFFFFFFFFFFFFFFFC CALLDATASIZE ADD SLT PUSH2 0x417 JUMPI PUSH1 0x20 SWAP1 PUSH8 0xFFFFFFFFFFFFFFFF PUSH32 0xF0C57E16840DF040F15088DC2F81FE391C3923BEC73E23A9662EFC9C229C6A00 SLOAD AND DUP2 MSTORE RETURN JUMPDEST PUSH1 0x4 CALLDATALOAD SWAP1 PUSH20 0xFFFFFFFFFFFFFFFFFFFFFFFFFFFFFFFFFFFFFFFF DUP3 AND DUP3 SUB PUSH2 0x417 JUMPI JUMP JUMPDEST PUSH1 0x24 CALLDATALOAD SWAP1 PUSH20 0xFFFFFFFFFFFFFFFFFFFFFFFFFFFFFFFFFFFFFFFF DUP3 AND DUP3 SUB PUSH2 0x417 JUMPI JUMP JUMPDEST PUSH1 0x44 CALLDATALOAD SWAP1 PUSH20 0xFFFFFFFFFFFFFFFFFFFFFFFFFFFFFFFFFFFFFFFF DUP3 AND DUP3 SUB PUSH2 0x417 JUMPI JUMP JUMPDEST PUSH32 0xFFFFFFFFFFFFFFFFFFFFFFFFFFFFFFFFFFFFFFFFFFFFFFFFFFFFFFFFFFFFFFFC PUSH1 0x60 SWAP2 ADD SLT PUSH2 0x417 JUMPI PUSH20 0xFFFFFFFFFFFFFFFFFFFFFFFFFFFFFFFFFFFFFFFF SWAP1 PUSH1 0x4 CALLDATALOAD DUP3 DUP2 AND DUP2 SUB PUSH2 0x417 JUMPI SWAP2 PUSH1 0x24 CALLDATALOAD SWAP1 DUP2 AND DUP2 SUB PUSH2 0x417 JUMPI SWAP1 PUSH1 0x44 CALLDATALOAD SWAP1 JUMP JUMPDEST PUSH8 0xFFFFFFFFFFFFFFFF DUP2 GT PUSH2 0x15A3 JUMPI PUSH1 0x40 MSTORE JUMP JUMPDEST SWAP1 PUSH1 0x1F PUSH32 0xFFFFFFFFFFFFFFFFFFFFFFFFFFFFFFFFFFFFFFFFFFFFFFFFFFFFFFFFFFFFFFE0 SWAP2 ADD AND DUP2 ADD SWAP1 DUP2 LT PUSH8 0xFFFFFFFFFFFFFFFF DUP3 GT OR PUSH2 0x15A3 JUMPI PUSH1 0x40 MSTORE JUMP JUMPDEST PUSH8 0xFFFFFFFFFFFFFFFF DUP2 GT PUSH2 0x15A3 JUMPI PUSH1 0x1F ADD PUSH32 0xFFFFFFFFFFFFFFFFFFFFFFFFFFFFFFFFFFFFFFFFFFFFFFFFFFFFFFFFFFFFFFE0 AND PUSH1 0x20 ADD SWAP1 JUMP JUMPDEST PUSH32 0xFFFFFFFFFFFFFFFFFFFFFFFFFFFFFFFFFFFFFFFFFFFFFFFFFFFFFFFFFFFFFFFC PUSH1 0x80 SWAP2 ADD SLT PUSH2 0x417 JUMPI PUSH20 0xFFFFFFFFFFFFFFFFFFFFFFFFFFFFFFFFFFFFFFFF SWAP1 PUSH1 0x4 CALLDATALOAD DUP3 DUP2 AND DUP2 SUB PUSH2 0x417 JUMPI SWAP2 PUSH1 0x24 CALLDATALOAD DUP2 DUP2 AND DUP2 SUB PUSH2 0x417 JUMPI SWAP2 PUSH1 0x44 CALLDATALOAD SWAP2 PUSH1 0x64 CALLDATALOAD SWAP1 DUP2 AND DUP2 SUB PUSH2 0x417 JUMPI SWAP1 JUMP JUMPDEST SWAP2 DUP2 PUSH1 0x1F DUP5 ADD SLT ISZERO PUSH2 0x417 JUMPI DUP3 CALLDATALOAD SWAP2 PUSH8 0xFFFFFFFFFFFFFFFF DUP4 GT PUSH2 0x417 JUMPI PUSH1 0x20 DUP1 DUP6 ADD SWAP5 DUP5 PUSH1 0x5 SHL ADD ADD GT PUSH2 0x417 JUMPI JUMP JUMPDEST MLOAD SWAP1 PUSH20 0xFFFFFFFFFFFFFFFFFFFFFFFFFFFFFFFFFFFFFFFF DUP3 AND DUP3 SUB PUSH2 0x417 JUMPI JUMP JUMPDEST ISZERO PUSH2 0x2ABF JUMPI JUMP JUMPDEST PUSH1 0x64 PUSH1 0x40 MLOAD PUSH32 0x8C379A000000000000000000000000000000000000000000000000000000000 DUP2 MSTORE PUSH1 0x20 PUSH1 0x4 DUP3 ADD MSTORE PUSH1 0x20 PUSH1 0x24 DUP3 ADD MSTORE PUSH32 0x416D6F756E74206D7573742062652067726561746572207468616E207A65726F PUSH1 0x44 DUP3 ADD MSTORE REVERT JUMPDEST MLOAD SWAP1 DUP2 ISZERO ISZERO DUP3 SUB PUSH2 0x417 JUMPI JUMP JUMPDEST PUSH8 0xFFFFFFFFFFFFFFFF DUP2 GT PUSH2 0x15A3 JUMPI PUSH1 0x5 SHL PUSH1 0x20 ADD SWAP1 JUMP JUMPDEST PUSH1 0x20 SWAP1 DUP2 DUP2 DUP5 SUB SLT PUSH2 0x417 JUMPI DUP1 MLOAD SWAP1 PUSH8 0xFFFFFFFFFFFFFFFF DUP3 GT PUSH2 0x417 JUMPI ADD SWAP2 DUP1 PUSH1 0x1F DUP5 ADD SLT ISZERO PUSH2 0x417 JUMPI DUP3 MLOAD PUSH2 0x2B78 DUP2 PUSH2 0x2B2A JUMP JUMPDEST SWAP4 PUSH2 0x2B86 PUSH1 0x40 MLOAD SWAP6 DUP7 PUSH2 0x297E JUMP JUMPDEST DUP2 DUP6 MSTORE DUP4 DUP1 DUP7 ADD SWAP3 PUSH1 0x5 SHL DUP3 ADD ADD SWAP3 DUP4 GT PUSH2 0x417 JUMPI DUP4 ADD SWAP1 JUMPDEST DUP3 DUP3 LT PUSH2 0x2BAD JUMPI POP POP POP POP SWAP1 JUMP JUMPDEST DUP4 DUP1 SWAP2 PUSH2 0x2BB9 DUP5 PUSH2 0x2A97 JUMP JUMPDEST DUP2 MSTORE ADD SWAP2 ADD SWAP1 PUSH2 0x2B9F JUMP JUMPDEST DUP1 MLOAD DUP3 LT ISZERO PUSH2 0x2BD8 JUMPI PUSH1 0x20 SWAP2 PUSH1 0x5 SHL ADD ADD SWAP1 JUMP JUMPDEST PUSH32 0x4E487B7100000000000000000000000000000000000000000000000000000000 PUSH0 MSTORE PUSH1 0x32 PUSH1 0x4 MSTORE PUSH1 0x24 PUSH0 REVERT JUMPDEST SWAP1 DUP1 PUSH1 0x1F DUP4 ADD SLT ISZERO PUSH2 0x417 JUMPI DUP2 MLOAD SWAP1 PUSH1 0x20 SWAP2 PUSH2 0x2C20 DUP2 PUSH2 0x2B2A JUMP JUMPDEST SWAP4 PUSH2 0x2C2E PUSH1 0x40 MLOAD SWAP6 DUP7 PUSH2 0x297E JUMP JUMPDEST DUP2 DUP6 MSTORE PUSH1 0x20 DUP1 DUP7 ADD SWAP3 PUSH1 0x5 SHL DUP3 ADD ADD SWAP3 DUP4 GT PUSH2 0x417 JUMPI PUSH1 0x20 ADD SWAP1 JUMPDEST DUP3 DUP3 LT PUSH2 0x2C57 JUMPI POP POP POP POP SWAP1 JUMP JUMPDEST DUP2 MLOAD DUP2 MSTORE SWAP1 DUP4 ADD SWAP1 DUP4 ADD PUSH2 0x2C49 JUMP JUMPDEST ISZERO PUSH2 0x2C6D JUMPI JUMP JUMPDEST PUSH1 0x64 PUSH1 0x40 MLOAD PUSH32 0x8C379A000000000000000000000000000000000000000000000000000000000 DUP2 MSTORE PUSH1 0x20 PUSH1 0x4 DUP3 ADD MSTORE PUSH1 0xA PUSH1 0x24 DUP3 ADD MSTORE PUSH32 0x4F6E6C7920506F6F6C7300000000000000000000000000000000000000000000 PUSH1 0x44 DUP3 ADD MSTORE REVERT JUMPDEST SWAP2 SWAP1 DUP2 LT ISZERO PUSH2 0x2BD8 JUMPI PUSH1 0x5 SHL ADD SWAP1 JUMP JUMPDEST CALLDATALOAD PUSH20 0xFFFFFFFFFFFFFFFFFFFFFFFFFFFFFFFFFFFFFFFF DUP2 AND DUP2 SUB PUSH2 0x417 JUMPI SWAP1 JUMP JUMPDEST PUSH20 0xFFFFFFFFFFFFFFFFFFFFFFFFFFFFFFFFFFFFFFFF DUP1 SWAP2 AND SWAP1 DUP2 ISZERO PUSH2 0x2D8D JUMPI PUSH32 0x9016D09D72D40FDAE2FD8CEAC6B6234C7706214FD39C1CD1E609A0528C199300 DUP1 SLOAD SWAP1 DUP4 PUSH32 0xFFFFFFFFFFFFFFFFFFFFFFFF0000000000000000000000000000000000000000 DUP4 AND OR SWAP1 SSTORE AND PUSH32 0x8BE0079C531659141344CD1FD0A4F28419497F9722A3DAAFE3B4186F6B6457E0 PUSH0 DUP1 LOG3 JUMP JUMPDEST PUSH1 0x24 PUSH1 0x40 MLOAD PUSH32 0x1E4FBDF700000000000000000000000000000000000000000000000000000000 DUP2 MSTORE PUSH0 PUSH1 0x4 DUP3 ADD MSTORE REVERT JUMPDEST PUSH20 0xFFFFFFFFFFFFFFFFFFFFFFFFFFFFFFFFFFFFFFFF PUSH32 0x9016D09D72D40FDAE2FD8CEAC6B6234C7706214FD39C1CD1E609A0528C199300 SLOAD AND CALLER SUB PUSH2 0x2DFD JUMPI JUMP JUMPDEST PUSH1 0x24 PUSH1 0x40 MLOAD PUSH32 0x118CDAA700000000000000000000000000000000000000000000000000000000 DUP2 MSTORE CALLER PUSH1 0x4 DUP3 ADD MSTORE REVERT JUMPDEST PUSH1 0xFF PUSH32 0xF0C57E16840DF040F15088DC2F81FE391C3923BEC73E23A9662EFC9C229C6A00 SLOAD PUSH1 0x40 SHR AND ISZERO PUSH2 0x2E5C JUMPI JUMP JUMPDEST PUSH1 0x4 PUSH1 0x40 MLOAD PUSH32 0xD7E6BCF800000000000000000000000000000000000000000000000000000000 DUP2 MSTORE REVERT JUMPDEST SWAP1 PUSH2 0x2EC5 JUMPI POP DUP1 MLOAD ISZERO PUSH2 0x2E9B JUMPI DUP1 MLOAD SWAP1 PUSH1 0x20 ADD REVERT JUMPDEST PUSH1 0x4 PUSH1 0x40 MLOAD PUSH32 0x1425EA4200000000000000000000000000000000000000000000000000000000 DUP2 MSTORE REVERT JUMPDEST DUP2 MLOAD ISZERO DUP1 PUSH2 0x2F1D JUMPI JUMPDEST PUSH2 0x2ED6 JUMPI POP SWAP1 JUMP JUMPDEST PUSH1 0x24 SWAP1 PUSH20 0xFFFFFFFFFFFFFFFFFFFFFFFFFFFFFFFFFFFFFFFF PUSH1 0x40 MLOAD SWAP2 PUSH32 0x9996B31500000000000000000000000000000000000000000000000000000000 DUP4 MSTORE AND PUSH1 0x4 DUP3 ADD MSTORE REVERT JUMPDEST POP DUP1 EXTCODESIZE ISZERO PUSH2 0x2ECE JUMP INVALID LOG2 PUSH5 0x6970667358 0x22 SLT KECCAK256 PUSH15 0xC701376ECF1F99B1C8720CC13CBAF PUSH18 0x95D83ADAE4F37E8104E3EC588422A364736F PUSH13 0x63430008190033000000000000 "},"gasEstimates":{"creation":{"codeDepositCost":"2424800","executionCost":"infinite","totalCost":"infinite"},"external":{"UPGRADE_INTERFACE_VERSION()":"618","addLiquidity(uint256[],address,address)":"infinite","batchSwap(address[],address[],uint256[],address[])":"infinite","changePoolFactory(address)":"26744","getAmountOut(address,address,uint256)":"infinite","getPoolsContainingToken(address)":"infinite","getVersion()":"2256","initialize(address)":"infinite","moveAll()":"infinite","moveAsset(address,address,uint256)":"infinite","owner()":"2487","performRebalanceIfNeeded(address)":"infinite","poolFactory()":"2285","proxiableUUID()":"infinite","reinitialize(address,uint64)":"50072","removeLiquidity(uint256,address,address)":"infinite","renounceOwnership()":"28180","smartSwap(address,address,uint256,address)":"infinite","swap(address,address,uint256,address)":"infinite","transferOwnership(address)":"28563","upgradeToAndCall(address,bytes)":"infinite"},"internal":{"_authorizeUpgrade(address)":"infinite"}},"methodIdentifiers":{"UPGRADE_INTERFACE_VERSION()":"ad3cb1cc","addLiquidity(uint256[],address,address)":"ec0cd2eb","batchSwap(address[],address[],uint256[],address[])":"e74e9b06","changePoolFactory(address)":"72591be5","getAmountOut(address,address,uint256)":"4aa06652","getPoolsContainingToken(address)":"ae3cce1c","getVersion()":"0d8e6e2c","initialize(address)":"c4d66de8","moveAll()":"b9973527","moveAsset(address,address,uint256)":"e3898e95","owner()":"8da5cb5b","performRebalanceIfNeeded(address)":"5568081a","poolFactory()":"4219dc40","proxiableUUID()":"52d1902d","reinitialize(address,uint64)":"8f2248bc","removeLiquidity(uint256,address,address)":"f31abcc4","renounceOwnership()":"715018a6","smartSwap(address,address,uint256,address)":"7442eca6","swap(address,address,uint256,address)":"6e81221c","transferOwnership(address)":"f2fde38b","upgradeToAndCall(address,bytes)":"4f1ef286"}},"storageLayout":{"storage":[{"astId":4577,"contract":"contracts/BaluniV1PoolPeriphery.sol:BaluniV1PoolPeriphery","label":"poolFactory","offset":0,"slot":"0","type":"t_contract(IBaluniV1PoolFactory)5613"}],"types":{"t_contract(IBaluniV1PoolFactory)5613":{"encoding":"inplace","label":"contract IBaluniV1PoolFactory","numberOfBytes":"20"}}},"userdoc":{"kind":"user","methods":{},"version":1}}}}