{"contracts/BaluniV1StablePool.sol":{"BaluniV1StablePool":{"abi":[{"inputs":[{"internalType":"address","name":"_oracle","type":"address"},{"internalType":"address","name":"_rebalancer","type":"address"},{"internalType":"address","name":"_asset1","type":"address"},{"internalType":"address","name":"_asset2","type":"address"}],"stateMutability":"nonpayable","type":"constructor"},{"inputs":[{"internalType":"address","name":"target","type":"address"}],"name":"AddressEmptyCode","type":"error"},{"inputs":[{"internalType":"address","name":"account","type":"address"}],"name":"AddressInsufficientBalance","type":"error"},{"inputs":[{"internalType":"address","name":"spender","type":"address"},{"internalType":"uint256","name":"allowance","type":"uint256"},{"internalType":"uint256","name":"needed","type":"uint256"}],"name":"ERC20InsufficientAllowance","type":"error"},{"inputs":[{"internalType":"address","name":"sender","type":"address"},{"internalType":"uint256","name":"balance","type":"uint256"},{"internalType":"uint256","name":"needed","type":"uint256"}],"name":"ERC20InsufficientBalance","type":"error"},{"inputs":[{"internalType":"address","name":"approver","type":"address"}],"name":"ERC20InvalidApprover","type":"error"},{"inputs":[{"internalType":"address","name":"receiver","type":"address"}],"name":"ERC20InvalidReceiver","type":"error"},{"inputs":[{"internalType":"address","name":"sender","type":"address"}],"name":"ERC20InvalidSender","type":"error"},{"inputs":[{"internalType":"address","name":"spender","type":"address"}],"name":"ERC20InvalidSpender","type":"error"},{"inputs":[],"name":"FailedInnerCall","type":"error"},{"inputs":[],"name":"ReentrancyGuardReentrantCall","type":"error"},{"inputs":[{"internalType":"address","name":"token","type":"address"}],"name":"SafeERC20FailedOperation","type":"error"},{"anonymous":false,"inputs":[{"indexed":true,"internalType":"address","name":"owner","type":"address"},{"indexed":true,"internalType":"address","name":"spender","type":"address"},{"indexed":false,"internalType":"uint256","name":"value","type":"uint256"}],"name":"Approval","type":"event"},{"anonymous":false,"inputs":[{"indexed":true,"internalType":"address","name":"from","type":"address"},{"indexed":true,"internalType":"address","name":"to","type":"address"},{"indexed":false,"internalType":"uint256","name":"value","type":"uint256"}],"name":"Transfer","type":"event"},{"inputs":[],"name":"SWAP_FEE_BPS","outputs":[{"internalType":"uint256","name":"","type":"uint256"}],"stateMutability":"view","type":"function"},{"inputs":[{"internalType":"address","name":"owner","type":"address"},{"internalType":"address","name":"spender","type":"address"}],"name":"allowance","outputs":[{"internalType":"uint256","name":"","type":"uint256"}],"stateMutability":"view","type":"function"},{"inputs":[{"internalType":"address","name":"spender","type":"address"},{"internalType":"uint256","name":"value","type":"uint256"}],"name":"approve","outputs":[{"internalType":"bool","name":"","type":"bool"}],"stateMutability":"nonpayable","type":"function"},{"inputs":[],"name":"asset1","outputs":[{"internalType":"contract IERC20","name":"","type":"address"}],"stateMutability":"view","type":"function"},{"inputs":[],"name":"asset2","outputs":[{"internalType":"contract IERC20","name":"","type":"address"}],"stateMutability":"view","type":"function"},{"inputs":[{"internalType":"address","name":"account","type":"address"}],"name":"balanceOf","outputs":[{"internalType":"uint256","name":"","type":"uint256"}],"stateMutability":"view","type":"function"},{"inputs":[{"internalType":"address","name":"fromToken","type":"address"},{"internalType":"address","name":"toToken","type":"address"},{"internalType":"uint256","name":"amountAfterFee","type":"uint256"}],"name":"calculateReceivedAmount","outputs":[{"internalType":"uint256","name":"","type":"uint256"}],"stateMutability":"view","type":"function"},{"inputs":[],"name":"decimals","outputs":[{"internalType":"uint8","name":"","type":"uint8"}],"stateMutability":"view","type":"function"},{"inputs":[],"name":"name","outputs":[{"internalType":"string","name":"","type":"string"}],"stateMutability":"view","type":"function"},{"inputs":[],"name":"oracle","outputs":[{"internalType":"contract IOracle","name":"","type":"address"}],"stateMutability":"view","type":"function"},{"inputs":[{"internalType":"uint256","name":"amount1","type":"uint256"},{"internalType":"uint256","name":"amount2","type":"uint256"}],"name":"provideLiquidity","outputs":[],"stateMutability":"nonpayable","type":"function"},{"inputs":[],"name":"rebalancer","outputs":[{"internalType":"contract IBaluniV1Rebalancer","name":"","type":"address"}],"stateMutability":"view","type":"function"},{"inputs":[{"internalType":"uint256","name":"share","type":"uint256"}],"name":"removeLiquidity","outputs":[],"stateMutability":"nonpayable","type":"function"},{"inputs":[{"internalType":"address","name":"fromToken","type":"address"},{"internalType":"address","name":"toToken","type":"address"},{"internalType":"uint256","name":"amount","type":"uint256"}],"name":"swap","outputs":[],"stateMutability":"nonpayable","type":"function"},{"inputs":[],"name":"symbol","outputs":[{"internalType":"string","name":"","type":"string"}],"stateMutability":"view","type":"function"},{"inputs":[],"name":"totalSupply","outputs":[{"internalType":"uint256","name":"","type":"uint256"}],"stateMutability":"view","type":"function"},{"inputs":[{"internalType":"address","name":"to","type":"address"},{"internalType":"uint256","name":"value","type":"uint256"}],"name":"transfer","outputs":[{"internalType":"bool","name":"","type":"bool"}],"stateMutability":"nonpayable","type":"function"},{"inputs":[{"internalType":"address","name":"from","type":"address"},{"internalType":"address","name":"to","type":"address"},{"internalType":"uint256","name":"value","type":"uint256"}],"name":"transferFrom","outputs":[{"internalType":"bool","name":"","type":"bool"}],"stateMutability":"nonpayable","type":"function"}],"devdoc":{"errors":{"AddressEmptyCode(address)":[{"details":"There's no code at `target` (it is not a contract)."}],"AddressInsufficientBalance(address)":[{"details":"The ETH balance of the account is not enough to perform the operation."}],"ERC20InsufficientAllowance(address,uint256,uint256)":[{"details":"Indicates a failure with the `spender`’s `allowance`. Used in transfers.","params":{"allowance":"Amount of tokens a `spender` is allowed to operate with.","needed":"Minimum amount required to perform a transfer.","spender":"Address that may be allowed to operate on tokens without being their owner."}}],"ERC20InsufficientBalance(address,uint256,uint256)":[{"details":"Indicates an error related to the current `balance` of a `sender`. Used in transfers.","params":{"balance":"Current balance for the interacting account.","needed":"Minimum amount required to perform a transfer.","sender":"Address whose tokens are being transferred."}}],"ERC20InvalidApprover(address)":[{"details":"Indicates a failure with the `approver` of a token to be approved. Used in approvals.","params":{"approver":"Address initiating an approval operation."}}],"ERC20InvalidReceiver(address)":[{"details":"Indicates a failure with the token `receiver`. Used in transfers.","params":{"receiver":"Address to which tokens are being transferred."}}],"ERC20InvalidSender(address)":[{"details":"Indicates a failure with the token `sender`. Used in transfers.","params":{"sender":"Address whose tokens are being transferred."}}],"ERC20InvalidSpender(address)":[{"details":"Indicates a failure with the `spender` to be approved. Used in approvals.","params":{"spender":"Address that may be allowed to operate on tokens without being their owner."}}],"FailedInnerCall()":[{"details":"A call to an address target failed. The target may have reverted."}],"ReentrancyGuardReentrantCall()":[{"details":"Unauthorized reentrant call."}],"SafeERC20FailedOperation(address)":[{"details":"An operation with an ERC20 token failed."}]},"events":{"Approval(address,address,uint256)":{"details":"Emitted when the allowance of a `spender` for an `owner` is set by a call to {approve}. `value` is the new allowance."},"Transfer(address,address,uint256)":{"details":"Emitted when `value` tokens are moved from one account (`from`) to another (`to`). Note that `value` may be zero."}},"kind":"dev","methods":{"allowance(address,address)":{"details":"See {IERC20-allowance}."},"approve(address,uint256)":{"details":"See {IERC20-approve}. NOTE: If `value` is the maximum `uint256`, the allowance is not updated on `transferFrom`. This is semantically equivalent to an infinite approval. Requirements: - `spender` cannot be the zero address."},"balanceOf(address)":{"details":"See {IERC20-balanceOf}."},"decimals()":{"details":"Returns the number of decimals used to get its user representation. For example, if `decimals` equals `2`, a balance of `505` tokens should be displayed to a user as `5.05` (`505 / 10 ** 2`). Tokens usually opt for a value of 18, imitating the relationship between Ether and Wei. This is the default value returned by this function, unless it's overridden. NOTE: This information is only used for _display_ purposes: it in no way affects any of the arithmetic of the contract, including {IERC20-balanceOf} and {IERC20-transfer}."},"name()":{"details":"Returns the name of the token."},"symbol()":{"details":"Returns the symbol of the token, usually a shorter version of the name."},"totalSupply()":{"details":"See {IERC20-totalSupply}."},"transfer(address,uint256)":{"details":"See {IERC20-transfer}. Requirements: - `to` cannot be the zero address. - the caller must have a balance of at least `value`."},"transferFrom(address,address,uint256)":{"details":"See {IERC20-transferFrom}. Emits an {Approval} event indicating the updated allowance. This is not required by the EIP. See the note at the beginning of {ERC20}. NOTE: Does not update the allowance if the current allowance is the maximum `uint256`. Requirements: - `from` and `to` cannot be the zero address. - `from` must have a balance of at least `value`. - the caller must have allowance for ``from``'s tokens of at least `value`."}},"version":1},"evm":{"bytecode":{"linkReferences":{},"object":"60806040908082523461044857608081611a1880380380916100218285610467565b833981010312610448576100348161048a565b60209161004283820161048a565b9061005a606061005387840161048a565b920161048a565b928551916100678361044c565b600f83526e042616c756e6920537461626c654c5608c1b8684015286519261008e8461044c565b600a845269042414c554e492d534c560b41b8785015280516001600160401b0390818111610350576003908154906001948583811c9316801561043e575b8c84101461042a5781908c601f948581116103d9575b50508c9084831160011461036f575f92610364575b50505f1982851b1c191690851b1782555b86519283116103505760049687548581811c91168015610346575b8c82101461033357908b828487969594116102de575b50508b91841160011461027a575f9361026f575b505082841b925f19911b1c19161784555b60055560018060a01b038080951692818060018060a01b03199486866006541617600655169788856007541617600755168360085416176008551690600954161760095585519063095ea7b360e01b908183528383015285826044815f8019998a60248401525af180156102655786946044935f92610248575b50806008541690600654169689519788968795865285015260248401525af1801561023e57610210575b825161156190816104b78239f35b8161022f92903d10610237575b6102278183610467565b81019061049e565b505f80610202565b503d61021d565b83513d5f823e3d90fd5b61025e90873d8911610237576102278183610467565b505f6101d8565b87513d5f823e3d90fd5b015191505f8061014d565b5f8981528c812087965093929190601f198616908e5b8282106102c757505085116102ae575b50505050811b01845561015e565b01519060f8845f19921b161c191690555f8080806102a0565b83850151875589989096019593840193018e610290565b909192939450895f5283825f209181880160051c830193881061032a575b9188918897969594930160051c01915b82811061031c57508d9150610139565b5f815587965088910161030c565b925081926102fc565b602289634e487b7160e01b5f525260245ffd5b90607f1690610123565b634e487b7160e01b5f52604160045260245ffd5b015190505f806100f7565b879350908d91601f198416875f52835f20935f905b8282106103b857505084116103a1575b505050811b018255610108565b01515f1983871b60f8161c191690555f8080610394565b91929395968291958786015181550195019301908f918a9695949392610384565b90919250855f5284825f209181860160051c8301938610610421575b918991869594930160051c01915b82811061041357508e91506100e2565b5f8155859450899101610403565b925081926103f5565b634e487b7160e01b5f52602260045260245ffd5b92607f16926100cc565b5f80fd5b604081019081106001600160401b0382111761035057604052565b601f909101601f19168101906001600160401b0382119082101761035057604052565b51906001600160a01b038216820361044857565b9081602091031261044857518015158103610448579056fe6080604090808252600480361015610015575f80fd5b5f3560e01c91826301d22ccd14610ccc5750816306fdde0314610bd8578163095ea7b314610b3057816318160ddd14610b1257816323b872dd14610a31578163313ce56714610a1657816367a6c440146109fb57816370a08231146109c55781637a16af7f146108ee5781637cd5f3f9146108c65781637dc0d1d01461089e57816395d89b411461079c5781639c8f9f2314610347578163a9059cbb14610317578163dd62ed3e146102ca578163df791e501461013357508063e4a4030f146101115763e9423bf2146100e6575f80fd5b3461010d575f36600319011261010d5760085490516001600160a01b039091168152602090f35b5f80fd5b503461010d5760209061012c61012636610d2f565b91610e64565b9051908152f35b823461010d5761014236610d2f565b90919361014d6110c9565b6007546001600160a01b038681169181168281149081156102bc575b81610298575b50156102615784169485821461021f5783156101dd5750826101949130903390611371565b601e820290828204601e036101ca5750916101266101c395926127106101bb950490610e08565b9033906113cc565b6001600555005b601190634e487b7160e01b5f525260245ffd5b5162461bcd60e51b8152602081840181905260248201527f416d6f756e74206d7573742062652067726561746572207468616e207a65726f6044820152606490fd5b5162461bcd60e51b8152602081840152601a60248201527f43616e6e6f742073776170207468652073616d6520746f6b656e0000000000006044820152606490fd5b855162461bcd60e51b815260208185015260116024820152702ab739bab83837b93a32b2103a37b5b2b760791b6044820152606490fd5b868316908114915081156102ae575b508861016f565b9050816008541614886102a7565b600854831684149150610169565b823461010d578060031936011261010d576102e3610d19565b906024356001600160a01b038181169182900361010d57602093165f5260018352815f20905f528252805f20549051908152f35b823461010d578060031936011261010d57602090610340610336610d19565b6024359033610fef565b5160018152f35b90503461010d576020918260031936011261010d5781356103666110c9565b335f525f845280825f2054106107655760025460075483516370a0823160e01b808252308783015290966001600160a01b0395909390928616918489602481865afa98891561064c575f99610736575b50835163313ce56760e01b808252999086818b81885afa9081156106dc576103ed6103f893926103f2925f91610719575b50610e2e565b610e53565b90610dd7565b9087600854168551918252308a8301528682602481845afa9081156106dc5785905f926106e6575b61042a9350610e64565b84518a815286818b81885afa9081156106dc5761046e610478946104686104be9897956103f26103ed610473978f978f5f926106bf575b5050610e2e565b90610db6565b610dd7565b610dea565b600954845163802431fb60e01b81526001600160a01b038416818b01818152602081019190915260016040820152929a9094909287928692908b16918391829160600190565b03915afa92831561064c575f93610690575b50835181815285818a81865afa908115610686579060ff915f91610669575b50166012019060ff82116106565785908986518095819382525afa91821561064c57916105269160ff935f9261061d575b50610e3f565b16604d811161060a5761054a9161047361054392600a0a8a610dd7565b8097610e08565b9433156105f557335f525f8352815f2054908482106105ca5750927fddf252ad1be2c89b69c2b068fc378daa952ba7f163c4a11628f55a4df523b3ef6105c297935f93836105b79733875286845203818620558360025403600255519283523392a33383600754166113cc565b3390600854166113cc565b6101c36111a4565b825163391434e360e21b81523391810191825260208201929092526040810185905281906060010390fd5b5f6024925191634b637e8f60e11b8352820152fd5b601187634e487b7160e01b5f525260245ffd5b61063e919250873d8911610645575b6106368183610d94565b810190610e15565b905f610520565b503d61062c565b84513d5f823e3d90fd5b601189634e487b7160e01b5f525260245ffd5b6106809150873d8911610645576106368183610d94565b5f6104ef565b85513d5f823e3d90fd5b9092508481813d83116106b8575b6106a88183610d94565b8101031261010d5751915f6104d0565b503d61069e565b6106d59250803d10610645576106368183610d94565b5f8f610461565b86513d5f823e3d90fd5b9150508682813d8311610712575b6106fe8183610d94565b8101031261010d578461042a925191610420565b503d6106f4565b61073091508a3d8c11610645576106368183610d94565b5f6103e7565b9098508481813d831161075e575b61074e8183610d94565b8101031261010d5751975f6103b6565b503d610744565b5091606492519162461bcd60e51b83528201526012602482015271496e73756666696369656e7420736861726560701b6044820152fd5b823461010d575f36600319011261010d578051905f9280549060018260011c9160018416938415610894575b60209485851081146108815784885290811561085f5750600114610806575b61080286866107f8828b0383610d94565b5191829182610cef565b0390f35b5f9081529295507f8a35acfbc15ff81a39ae7d344fd709f28e8600b4aa8c65c6b64bfe7fe36bd19b5b82841061084c5750505082610802946107f89282010194866107e7565b805486850188015292860192810161082f565b60ff191687860152505050151560051b83010192506107f882610802866107e7565b602283634e487b7160e01b5f525260245ffd5b92607f16926107c8565b823461010d575f36600319011261010d5760095490516001600160a01b039091168152602090f35b823461010d575f36600319011261010d5760075490516001600160a01b039091168152602090f35b823461010d578060031936011261010d5761095682356104686024356109126110c9565b61091a6111a4565b6007546001600160a01b0390610937908590309033908516611371565b6109478230338460085416611371565b60085460075482169116610e64565b9133156109b0575061096a82600254610db6565b600255335f525f602052805f20828154019055519081525f7fddf252ad1be2c89b69c2b068fc378daa952ba7f163c4a11628f55a4df523b3ef60203393a36101c36111a4565b5f602492519163ec442f0560e01b8352820152fd5b823461010d57602036600319011261010d576020906001600160a01b036109ea610d19565b165f525f8252805f20549051908152f35b823461010d575f36600319011261010d5760209051601e8152f35b823461010d575f36600319011261010d576020905160128152f35b90503461010d57610a4136610d2f565b6001600160a01b0383165f81815260016020818152888320338452905290879020549295939493908301610a7e575b602087610340888888610fef565b858310610ae6578115610ad0573315610aba57505f90815260016020908152868220338352815290869020918590039091558290610340610a70565b6024905f885191634a1406b160e11b8352820152fd5b6024905f88519163e602df0560e01b8352820152fd5b8651637dc7a0d960e11b8152339181019182526020820193909352604081018690528291506060010390fd5b823461010d575f36600319011261010d576020906002549051908152f35b823461010d578060031936011261010d57610b49610d19565b602435903315610bc2576001600160a01b0316908115610bac5760209350335f5260018452825f20825f52845280835f205582519081527f8c5be1e5ebec7d5bd14f71427d1e84f3dd0314c0f7b2291e5b200ac8c7c3b925843392a35160018152f35b8251634a1406b160e11b81525f81860152602490fd5b825163e602df0560e01b81525f81860152602490fd5b823461010d575f36600319011261010d578051905f9260035460018160011c91600181168015610cc2575b6020948585108214610caf5750838752908115610c8f5750600114610c35575b5050506107f882610802940383610d94565b60035f9081529295507fc2575a0e9e593c00f959f8c92f12db2869c3395a3b0502d05e2516446f71f85b5b828410610c7c5750505082610802946107f89282010194610c23565b8054868501880152928601928101610c60565b60ff1916868501525050151560051b83010192506107f882610802610c23565b602290634e487b7160e01b5f525260245ffd5b92607f1692610c03565b3461010d575f36600319011261010d576006546001600160a01b03168152602090f35b602060409281835280519182918282860152018484015e5f828201840152601f01601f1916010190565b600435906001600160a01b038216820361010d57565b606090600319011261010d576001600160a01b0390600435828116810361010d5791602435908116810361010d579060443590565b6060810190811067ffffffffffffffff821117610d8057604052565b634e487b7160e01b5f52604160045260245ffd5b90601f8019910116810190811067ffffffffffffffff821117610d8057604052565b91908201809211610dc357565b634e487b7160e01b5f52601160045260245ffd5b81810292918115918404141715610dc357565b8115610df4570490565b634e487b7160e01b5f52601260045260245ffd5b91908203918211610dc357565b9081602091031261010d575160ff8116810361010d5790565b60ff166012039060ff8211610dc357565b9060ff8091169116039060ff8211610dc357565b60ff16604d8111610dc357600a0a90565b6009546040805163802431fb60e01b81526001600160a01b039384166004820181905294841660248201819052600160448301529196959493602093919291849184916064918391165afa918215610f8b575f92610fc0575b50865193838560048163313ce56760e01b948582525afa948515610fb6575f95610f95575b508390600489518094819382525afa928315610f8b57670de0b6b3a76400009697505f93610f6c575b505060ff83811690831680821115610f43575050610f3991610f336103ed92610f3f96610dd7565b93610e3f565b90610dea565b0490565b9293921115610f60576103f291610f336103ed92610f3f96610dd7565b915050610f3f91610dd7565b610f83929350803d10610645576106368183610d94565b905f80610f0b565b87513d5f823e3d90fd5b84919550610faf90823d8411610645576106368183610d94565b9490610ee2565b88513d5f823e3d90fd5b9091508281813d8311610fe8575b610fd88183610d94565b8101031261010d5751905f610ebd565b503d610fce565b916001600160a01b038084169283156110b1571692831561109957825f525f60205260405f2054908282106110675750817fddf252ad1be2c89b69c2b068fc378daa952ba7f163c4a11628f55a4df523b3ef92602092855f525f84520360405f2055845f5260405f20818154019055604051908152a3565b60405163391434e360e21b81526001600160a01b03919091166004820152602481019190915260448101829052606490fd5b60405163ec442f0560e01b81525f6004820152602490fd5b604051634b637e8f60e11b81525f6004820152602490fd5b6002600554146110da576002600555565b604051633ee5aeb560e01b8152600490fd5b8051156110f95760200190565b634e487b7160e01b5f52603260045260245ffd5b8051600110156110f95760400190565b9081518082526020808093019301915f5b82811061113c575050505090565b83516001600160a01b03168552938101939281019260010161112e565b9081518082526020808093019301915f5b828110611178575050505090565b83518552938101939281019260010161116a565b9081602091031261010d5751801515810361010d5790565b604080516111b181610d64565b600281526020918036848401378051916111ca83610d64565b600283528136858501376007546001600160a01b039081166111eb836110ec565b5280600854166111fa8361110d565b5261138880611208866110ec565b526112128561110d565b526006548351638957698960e01b815260806004820152949116611239608486018461111d565b94868180611254600319998a83820301602484015287611159565b600560448301523060648301520381855afa908115610686575f9161133b575b5060038110156113275760020361128e575b505050505050565b6112bb5f87946112ca8751988996879586946303978bed60e31b865260806004870152608486019061111d565b91848303016024850152611159565b30604483015230606483015203925af190811561131e57506112f0575b80808080611286565b8161130f92903d10611317575b6113078183610d94565b81019061118c565b505f806112e7565b503d6112fd565b513d5f823e3d90fd5b634e487b7160e01b5f52602160045260245ffd5b90508681813d831161136a575b6113528183610d94565b8101031261010d5751600381101561010d575f611274565b503d611348565b6040516323b872dd60e01b60208201526001600160a01b03928316602482015292909116604483015260648083019390935291815260a081019181831067ffffffffffffffff841117610d80576113ca92604052611418565b565b60405163a9059cbb60e01b60208201526001600160a01b039092166024830152604480830193909352918152608081019167ffffffffffffffff831182841017610d80576113ca926040525b81516001600160a01b03909116915f91829160200182855af13d156114bc573d67ffffffffffffffff8111610d805761147391604051916114636020601f19601f8401160184610d94565b82523d5f602084013e5b836114c8565b80519081151591826114a1575b50506114895750565b60249060405190635274afe760e01b82526004820152fd5b6114b4925060208091830101910161118c565b155f80611480565b6114739060609061146d565b906114ef57508051156114dd57805190602001fd5b604051630a12f52160e11b8152600490fd5b81511580611522575b611500575090565b604051639996b31560e01b81526001600160a01b039091166004820152602490fd5b50803b156114f856fea2646970667358221220cd25308d6e5760ec9eec6fb5d0c2d9730a1164bd521bdc13bca14c586b2815f464736f6c63430008190033","opcodes":"PUSH1 0x80 PUSH1 0x40 SWAP1 DUP1 DUP3 MSTORE CALLVALUE PUSH2 0x448 JUMPI PUSH1 0x80 DUP2 PUSH2 0x1A18 DUP1 CODESIZE SUB DUP1 SWAP2 PUSH2 0x21 DUP3 DUP6 PUSH2 0x467 JUMP JUMPDEST DUP4 CODECOPY DUP2 ADD SUB SLT PUSH2 0x448 JUMPI PUSH2 0x34 DUP2 PUSH2 0x48A JUMP JUMPDEST PUSH1 0x20 SWAP2 PUSH2 0x42 DUP4 DUP3 ADD PUSH2 0x48A JUMP JUMPDEST SWAP1 PUSH2 0x5A PUSH1 0x60 PUSH2 0x53 DUP8 DUP5 ADD PUSH2 0x48A JUMP JUMPDEST SWAP3 ADD PUSH2 0x48A JUMP JUMPDEST SWAP3 DUP6 MLOAD SWAP2 PUSH2 0x67 DUP4 PUSH2 0x44C JUMP JUMPDEST PUSH1 0xF DUP4 MSTORE PUSH15 0x42616C756E6920537461626C654C5 PUSH1 0x8C SHL DUP7 DUP5 ADD MSTORE DUP7 MLOAD SWAP3 PUSH2 0x8E DUP5 PUSH2 0x44C JUMP JUMPDEST PUSH1 0xA DUP5 MSTORE PUSH10 0x42414C554E492D534C5 PUSH1 0xB4 SHL DUP8 DUP6 ADD MSTORE DUP1 MLOAD PUSH1 0x1 PUSH1 0x1 PUSH1 0x40 SHL SUB SWAP1 DUP2 DUP2 GT PUSH2 0x350 JUMPI PUSH1 0x3 SWAP1 DUP2 SLOAD SWAP1 PUSH1 0x1 SWAP5 DUP6 DUP4 DUP2 SHR SWAP4 AND DUP1 ISZERO PUSH2 0x43E JUMPI JUMPDEST DUP13 DUP5 LT EQ PUSH2 0x42A JUMPI DUP2 SWAP1 DUP13 PUSH1 0x1F SWAP5 DUP6 DUP2 GT PUSH2 0x3D9 JUMPI JUMPDEST POP POP DUP13 SWAP1 DUP5 DUP4 GT PUSH1 0x1 EQ PUSH2 0x36F JUMPI PUSH0 SWAP3 PUSH2 0x364 JUMPI JUMPDEST POP POP PUSH0 NOT DUP3 DUP6 SHL SHR NOT AND SWAP1 DUP6 SHL OR DUP3 SSTORE JUMPDEST DUP7 MLOAD SWAP3 DUP4 GT PUSH2 0x350 JUMPI PUSH1 0x4 SWAP7 DUP8 SLOAD DUP6 DUP2 DUP2 SHR SWAP2 AND DUP1 ISZERO PUSH2 0x346 JUMPI JUMPDEST DUP13 DUP3 LT EQ PUSH2 0x333 JUMPI SWAP1 DUP12 DUP3 DUP5 DUP8 SWAP7 SWAP6 SWAP5 GT PUSH2 0x2DE JUMPI JUMPDEST POP POP DUP12 SWAP2 DUP5 GT PUSH1 0x1 EQ PUSH2 0x27A JUMPI PUSH0 SWAP4 PUSH2 0x26F JUMPI JUMPDEST POP POP DUP3 DUP5 SHL SWAP3 PUSH0 NOT SWAP2 SHL SHR NOT AND OR DUP5 SSTORE JUMPDEST PUSH1 0x5 SSTORE PUSH1 0x1 DUP1 PUSH1 0xA0 SHL SUB DUP1 DUP1 SWAP6 AND SWAP3 DUP2 DUP1 PUSH1 0x1 DUP1 PUSH1 0xA0 SHL SUB NOT SWAP5 DUP7 DUP7 PUSH1 0x6 SLOAD AND OR PUSH1 0x6 SSTORE AND SWAP8 DUP9 DUP6 PUSH1 0x7 SLOAD AND OR PUSH1 0x7 SSTORE AND DUP4 PUSH1 0x8 SLOAD AND OR PUSH1 0x8 SSTORE AND SWAP1 PUSH1 0x9 SLOAD AND OR PUSH1 0x9 SSTORE DUP6 MLOAD SWAP1 PUSH4 0x95EA7B3 PUSH1 0xE0 SHL SWAP1 DUP2 DUP4 MSTORE DUP4 DUP4 ADD MSTORE DUP6 DUP3 PUSH1 0x44 DUP2 PUSH0 DUP1 NOT SWAP10 DUP11 PUSH1 0x24 DUP5 ADD MSTORE GAS CALL DUP1 ISZERO PUSH2 0x265 JUMPI DUP7 SWAP5 PUSH1 0x44 SWAP4 PUSH0 SWAP3 PUSH2 0x248 JUMPI JUMPDEST POP DUP1 PUSH1 0x8 SLOAD AND SWAP1 PUSH1 0x6 SLOAD AND SWAP7 DUP10 MLOAD SWAP8 DUP9 SWAP7 DUP8 SWAP6 DUP7 MSTORE DUP6 ADD MSTORE PUSH1 0x24 DUP5 ADD MSTORE GAS CALL DUP1 ISZERO PUSH2 0x23E JUMPI PUSH2 0x210 JUMPI JUMPDEST DUP3 MLOAD PUSH2 0x1561 SWAP1 DUP2 PUSH2 0x4B7 DUP3 CODECOPY RETURN JUMPDEST DUP2 PUSH2 0x22F SWAP3 SWAP1 RETURNDATASIZE LT PUSH2 0x237 JUMPI JUMPDEST PUSH2 0x227 DUP2 DUP4 PUSH2 0x467 JUMP JUMPDEST DUP2 ADD SWAP1 PUSH2 0x49E JUMP JUMPDEST POP PUSH0 DUP1 PUSH2 0x202 JUMP JUMPDEST POP RETURNDATASIZE PUSH2 0x21D JUMP JUMPDEST DUP4 MLOAD RETURNDATASIZE PUSH0 DUP3 RETURNDATACOPY RETURNDATASIZE SWAP1 REVERT JUMPDEST PUSH2 0x25E SWAP1 DUP8 RETURNDATASIZE DUP10 GT PUSH2 0x237 JUMPI PUSH2 0x227 DUP2 DUP4 PUSH2 0x467 JUMP JUMPDEST POP PUSH0 PUSH2 0x1D8 JUMP JUMPDEST DUP8 MLOAD RETURNDATASIZE PUSH0 DUP3 RETURNDATACOPY RETURNDATASIZE SWAP1 REVERT JUMPDEST ADD MLOAD SWAP2 POP PUSH0 DUP1 PUSH2 0x14D JUMP JUMPDEST PUSH0 DUP10 DUP2 MSTORE DUP13 DUP2 KECCAK256 DUP8 SWAP7 POP SWAP4 SWAP3 SWAP2 SWAP1 PUSH1 0x1F NOT DUP7 AND SWAP1 DUP15 JUMPDEST DUP3 DUP3 LT PUSH2 0x2C7 JUMPI POP POP DUP6 GT PUSH2 0x2AE JUMPI JUMPDEST POP POP POP POP DUP2 SHL ADD DUP5 SSTORE PUSH2 0x15E JUMP JUMPDEST ADD MLOAD SWAP1 PUSH1 0xF8 DUP5 PUSH0 NOT SWAP3 SHL AND SHR NOT AND SWAP1 SSTORE PUSH0 DUP1 DUP1 DUP1 PUSH2 0x2A0 JUMP JUMPDEST DUP4 DUP6 ADD MLOAD DUP8 SSTORE DUP10 SWAP9 SWAP1 SWAP7 ADD SWAP6 SWAP4 DUP5 ADD SWAP4 ADD DUP15 PUSH2 0x290 JUMP JUMPDEST SWAP1 SWAP2 SWAP3 SWAP4 SWAP5 POP DUP10 PUSH0 MSTORE DUP4 DUP3 PUSH0 KECCAK256 SWAP2 DUP2 DUP9 ADD PUSH1 0x5 SHR DUP4 ADD SWAP4 DUP9 LT PUSH2 0x32A JUMPI JUMPDEST SWAP2 DUP9 SWAP2 DUP9 SWAP8 SWAP7 SWAP6 SWAP5 SWAP4 ADD PUSH1 0x5 SHR ADD SWAP2 JUMPDEST DUP3 DUP2 LT PUSH2 0x31C JUMPI POP DUP14 SWAP2 POP PUSH2 0x139 JUMP JUMPDEST PUSH0 DUP2 SSTORE DUP8 SWAP7 POP DUP9 SWAP2 ADD PUSH2 0x30C JUMP JUMPDEST SWAP3 POP DUP2 SWAP3 PUSH2 0x2FC JUMP JUMPDEST PUSH1 0x22 DUP10 PUSH4 0x4E487B71 PUSH1 0xE0 SHL PUSH0 MSTORE MSTORE PUSH1 0x24 PUSH0 REVERT JUMPDEST SWAP1 PUSH1 0x7F AND SWAP1 PUSH2 0x123 JUMP JUMPDEST PUSH4 0x4E487B71 PUSH1 0xE0 SHL PUSH0 MSTORE PUSH1 0x41 PUSH1 0x4 MSTORE PUSH1 0x24 PUSH0 REVERT JUMPDEST ADD MLOAD SWAP1 POP PUSH0 DUP1 PUSH2 0xF7 JUMP JUMPDEST DUP8 SWAP4 POP SWAP1 DUP14 SWAP2 PUSH1 0x1F NOT DUP5 AND DUP8 PUSH0 MSTORE DUP4 PUSH0 KECCAK256 SWAP4 PUSH0 SWAP1 JUMPDEST DUP3 DUP3 LT PUSH2 0x3B8 JUMPI POP POP DUP5 GT PUSH2 0x3A1 JUMPI JUMPDEST POP POP POP DUP2 SHL ADD DUP3 SSTORE PUSH2 0x108 JUMP JUMPDEST ADD MLOAD PUSH0 NOT DUP4 DUP8 SHL PUSH1 0xF8 AND SHR NOT AND SWAP1 SSTORE PUSH0 DUP1 DUP1 PUSH2 0x394 JUMP JUMPDEST SWAP2 SWAP3 SWAP4 SWAP6 SWAP7 DUP3 SWAP2 SWAP6 DUP8 DUP7 ADD MLOAD DUP2 SSTORE ADD SWAP6 ADD SWAP4 ADD SWAP1 DUP16 SWAP2 DUP11 SWAP7 SWAP6 SWAP5 SWAP4 SWAP3 PUSH2 0x384 JUMP JUMPDEST SWAP1 SWAP2 SWAP3 POP DUP6 PUSH0 MSTORE DUP5 DUP3 PUSH0 KECCAK256 SWAP2 DUP2 DUP7 ADD PUSH1 0x5 SHR DUP4 ADD SWAP4 DUP7 LT PUSH2 0x421 JUMPI JUMPDEST SWAP2 DUP10 SWAP2 DUP7 SWAP6 SWAP5 SWAP4 ADD PUSH1 0x5 SHR ADD SWAP2 JUMPDEST DUP3 DUP2 LT PUSH2 0x413 JUMPI POP DUP15 SWAP2 POP PUSH2 0xE2 JUMP JUMPDEST PUSH0 DUP2 SSTORE DUP6 SWAP5 POP DUP10 SWAP2 ADD PUSH2 0x403 JUMP JUMPDEST SWAP3 POP DUP2 SWAP3 PUSH2 0x3F5 JUMP JUMPDEST PUSH4 0x4E487B71 PUSH1 0xE0 SHL PUSH0 MSTORE PUSH1 0x22 PUSH1 0x4 MSTORE PUSH1 0x24 PUSH0 REVERT JUMPDEST SWAP3 PUSH1 0x7F AND SWAP3 PUSH2 0xCC JUMP JUMPDEST PUSH0 DUP1 REVERT JUMPDEST PUSH1 0x40 DUP2 ADD SWAP1 DUP2 LT PUSH1 0x1 PUSH1 0x1 PUSH1 0x40 SHL SUB DUP3 GT OR PUSH2 0x350 JUMPI PUSH1 0x40 MSTORE JUMP JUMPDEST PUSH1 0x1F SWAP1 SWAP2 ADD PUSH1 0x1F NOT AND DUP2 ADD SWAP1 PUSH1 0x1 PUSH1 0x1 PUSH1 0x40 SHL SUB DUP3 GT SWAP1 DUP3 LT OR PUSH2 0x350 JUMPI PUSH1 0x40 MSTORE JUMP JUMPDEST MLOAD SWAP1 PUSH1 0x1 PUSH1 0x1 PUSH1 0xA0 SHL SUB DUP3 AND DUP3 SUB PUSH2 0x448 JUMPI JUMP JUMPDEST SWAP1 DUP2 PUSH1 0x20 SWAP2 SUB SLT PUSH2 0x448 JUMPI MLOAD DUP1 ISZERO ISZERO DUP2 SUB PUSH2 0x448 JUMPI SWAP1 JUMP INVALID PUSH1 0x80 PUSH1 0x40 SWAP1 DUP1 DUP3 MSTORE PUSH1 0x4 DUP1 CALLDATASIZE LT ISZERO PUSH2 0x15 JUMPI PUSH0 DUP1 REVERT JUMPDEST PUSH0 CALLDATALOAD PUSH1 0xE0 SHR SWAP2 DUP3 PUSH4 0x1D22CCD EQ PUSH2 0xCCC JUMPI POP DUP2 PUSH4 0x6FDDE03 EQ PUSH2 0xBD8 JUMPI DUP2 PUSH4 0x95EA7B3 EQ PUSH2 0xB30 JUMPI DUP2 PUSH4 0x18160DDD EQ PUSH2 0xB12 JUMPI DUP2 PUSH4 0x23B872DD EQ PUSH2 0xA31 JUMPI DUP2 PUSH4 0x313CE567 EQ PUSH2 0xA16 JUMPI DUP2 PUSH4 0x67A6C440 EQ PUSH2 0x9FB JUMPI DUP2 PUSH4 0x70A08231 EQ PUSH2 0x9C5 JUMPI DUP2 PUSH4 0x7A16AF7F EQ PUSH2 0x8EE JUMPI DUP2 PUSH4 0x7CD5F3F9 EQ PUSH2 0x8C6 JUMPI DUP2 PUSH4 0x7DC0D1D0 EQ PUSH2 0x89E JUMPI DUP2 PUSH4 0x95D89B41 EQ PUSH2 0x79C JUMPI DUP2 PUSH4 0x9C8F9F23 EQ PUSH2 0x347 JUMPI DUP2 PUSH4 0xA9059CBB EQ PUSH2 0x317 JUMPI DUP2 PUSH4 0xDD62ED3E EQ PUSH2 0x2CA JUMPI DUP2 PUSH4 0xDF791E50 EQ PUSH2 0x133 JUMPI POP DUP1 PUSH4 0xE4A4030F EQ PUSH2 0x111 JUMPI PUSH4 0xE9423BF2 EQ PUSH2 0xE6 JUMPI PUSH0 DUP1 REVERT JUMPDEST CALLVALUE PUSH2 0x10D JUMPI PUSH0 CALLDATASIZE PUSH1 0x3 NOT ADD SLT PUSH2 0x10D JUMPI PUSH1 0x8 SLOAD SWAP1 MLOAD PUSH1 0x1 PUSH1 0x1 PUSH1 0xA0 SHL SUB SWAP1 SWAP2 AND DUP2 MSTORE PUSH1 0x20 SWAP1 RETURN JUMPDEST PUSH0 DUP1 REVERT JUMPDEST POP CALLVALUE PUSH2 0x10D JUMPI PUSH1 0x20 SWAP1 PUSH2 0x12C PUSH2 0x126 CALLDATASIZE PUSH2 0xD2F JUMP JUMPDEST SWAP2 PUSH2 0xE64 JUMP JUMPDEST SWAP1 MLOAD SWAP1 DUP2 MSTORE RETURN JUMPDEST DUP3 CALLVALUE PUSH2 0x10D JUMPI PUSH2 0x142 CALLDATASIZE PUSH2 0xD2F JUMP JUMPDEST SWAP1 SWAP2 SWAP4 PUSH2 0x14D PUSH2 0x10C9 JUMP JUMPDEST PUSH1 0x7 SLOAD PUSH1 0x1 PUSH1 0x1 PUSH1 0xA0 SHL SUB DUP7 DUP2 AND SWAP2 DUP2 AND DUP3 DUP2 EQ SWAP1 DUP2 ISZERO PUSH2 0x2BC JUMPI JUMPDEST DUP2 PUSH2 0x298 JUMPI JUMPDEST POP ISZERO PUSH2 0x261 JUMPI DUP5 AND SWAP5 DUP6 DUP3 EQ PUSH2 0x21F JUMPI DUP4 ISZERO PUSH2 0x1DD JUMPI POP DUP3 PUSH2 0x194 SWAP2 ADDRESS SWAP1 CALLER SWAP1 PUSH2 0x1371 JUMP JUMPDEST PUSH1 0x1E DUP3 MUL SWAP1 DUP3 DUP3 DIV PUSH1 0x1E SUB PUSH2 0x1CA JUMPI POP SWAP2 PUSH2 0x126 PUSH2 0x1C3 SWAP6 SWAP3 PUSH2 0x2710 PUSH2 0x1BB SWAP6 DIV SWAP1 PUSH2 0xE08 JUMP JUMPDEST SWAP1 CALLER SWAP1 PUSH2 0x13CC JUMP JUMPDEST PUSH1 0x1 PUSH1 0x5 SSTORE STOP JUMPDEST PUSH1 0x11 SWAP1 PUSH4 0x4E487B71 PUSH1 0xE0 SHL PUSH0 MSTORE MSTORE PUSH1 0x24 PUSH0 REVERT JUMPDEST MLOAD PUSH3 0x461BCD PUSH1 0xE5 SHL DUP2 MSTORE PUSH1 0x20 DUP2 DUP5 ADD DUP2 SWAP1 MSTORE PUSH1 0x24 DUP3 ADD MSTORE PUSH32 0x416D6F756E74206D7573742062652067726561746572207468616E207A65726F PUSH1 0x44 DUP3 ADD MSTORE PUSH1 0x64 SWAP1 REVERT JUMPDEST MLOAD PUSH3 0x461BCD PUSH1 0xE5 SHL DUP2 MSTORE PUSH1 0x20 DUP2 DUP5 ADD MSTORE PUSH1 0x1A PUSH1 0x24 DUP3 ADD MSTORE PUSH32 0x43616E6E6F742073776170207468652073616D6520746F6B656E000000000000 PUSH1 0x44 DUP3 ADD MSTORE PUSH1 0x64 SWAP1 REVERT JUMPDEST DUP6 MLOAD PUSH3 0x461BCD PUSH1 0xE5 SHL DUP2 MSTORE PUSH1 0x20 DUP2 DUP6 ADD MSTORE PUSH1 0x11 PUSH1 0x24 DUP3 ADD MSTORE PUSH17 0x2AB739BAB83837B93A32B2103A37B5B2B7 PUSH1 0x79 SHL PUSH1 0x44 DUP3 ADD MSTORE PUSH1 0x64 SWAP1 REVERT JUMPDEST DUP7 DUP4 AND SWAP1 DUP2 EQ SWAP2 POP DUP2 ISZERO PUSH2 0x2AE JUMPI JUMPDEST POP DUP9 PUSH2 0x16F JUMP JUMPDEST SWAP1 POP DUP2 PUSH1 0x8 SLOAD AND EQ DUP9 PUSH2 0x2A7 JUMP JUMPDEST PUSH1 0x8 SLOAD DUP4 AND DUP5 EQ SWAP2 POP PUSH2 0x169 JUMP JUMPDEST DUP3 CALLVALUE PUSH2 0x10D JUMPI DUP1 PUSH1 0x3 NOT CALLDATASIZE ADD SLT PUSH2 0x10D JUMPI PUSH2 0x2E3 PUSH2 0xD19 JUMP JUMPDEST SWAP1 PUSH1 0x24 CALLDATALOAD PUSH1 0x1 PUSH1 0x1 PUSH1 0xA0 SHL SUB DUP2 DUP2 AND SWAP2 DUP3 SWAP1 SUB PUSH2 0x10D JUMPI PUSH1 0x20 SWAP4 AND PUSH0 MSTORE PUSH1 0x1 DUP4 MSTORE DUP2 PUSH0 KECCAK256 SWAP1 PUSH0 MSTORE DUP3 MSTORE DUP1 PUSH0 KECCAK256 SLOAD SWAP1 MLOAD SWAP1 DUP2 MSTORE RETURN JUMPDEST DUP3 CALLVALUE PUSH2 0x10D JUMPI DUP1 PUSH1 0x3 NOT CALLDATASIZE ADD SLT PUSH2 0x10D JUMPI PUSH1 0x20 SWAP1 PUSH2 0x340 PUSH2 0x336 PUSH2 0xD19 JUMP JUMPDEST PUSH1 0x24 CALLDATALOAD SWAP1 CALLER PUSH2 0xFEF JUMP JUMPDEST MLOAD PUSH1 0x1 DUP2 MSTORE RETURN JUMPDEST SWAP1 POP CALLVALUE PUSH2 0x10D JUMPI PUSH1 0x20 SWAP2 DUP3 PUSH1 0x3 NOT CALLDATASIZE ADD SLT PUSH2 0x10D JUMPI DUP2 CALLDATALOAD PUSH2 0x366 PUSH2 0x10C9 JUMP JUMPDEST CALLER PUSH0 MSTORE PUSH0 DUP5 MSTORE DUP1 DUP3 PUSH0 KECCAK256 SLOAD LT PUSH2 0x765 JUMPI PUSH1 0x2 SLOAD PUSH1 0x7 SLOAD DUP4 MLOAD PUSH4 0x70A08231 PUSH1 0xE0 SHL DUP1 DUP3 MSTORE ADDRESS DUP8 DUP4 ADD MSTORE SWAP1 SWAP7 PUSH1 0x1 PUSH1 0x1 PUSH1 0xA0 SHL SUB SWAP6 SWAP1 SWAP4 SWAP1 SWAP3 DUP7 AND SWAP2 DUP5 DUP10 PUSH1 0x24 DUP2 DUP7 GAS STATICCALL SWAP9 DUP10 ISZERO PUSH2 0x64C JUMPI PUSH0 SWAP10 PUSH2 0x736 JUMPI JUMPDEST POP DUP4 MLOAD PUSH4 0x313CE567 PUSH1 0xE0 SHL DUP1 DUP3 MSTORE SWAP10 SWAP1 DUP7 DUP2 DUP12 DUP2 DUP9 GAS STATICCALL SWAP1 DUP2 ISZERO PUSH2 0x6DC JUMPI PUSH2 0x3ED PUSH2 0x3F8 SWAP4 SWAP3 PUSH2 0x3F2 SWAP3 PUSH0 SWAP2 PUSH2 0x719 JUMPI JUMPDEST POP PUSH2 0xE2E JUMP JUMPDEST PUSH2 0xE53 JUMP JUMPDEST SWAP1 PUSH2 0xDD7 JUMP JUMPDEST SWAP1 DUP8 PUSH1 0x8 SLOAD AND DUP6 MLOAD SWAP2 DUP3 MSTORE ADDRESS DUP11 DUP4 ADD MSTORE DUP7 DUP3 PUSH1 0x24 DUP2 DUP5 GAS STATICCALL SWAP1 DUP2 ISZERO PUSH2 0x6DC JUMPI DUP6 SWAP1 PUSH0 SWAP3 PUSH2 0x6E6 JUMPI JUMPDEST PUSH2 0x42A SWAP4 POP PUSH2 0xE64 JUMP JUMPDEST DUP5 MLOAD DUP11 DUP2 MSTORE DUP7 DUP2 DUP12 DUP2 DUP9 GAS STATICCALL SWAP1 DUP2 ISZERO PUSH2 0x6DC JUMPI PUSH2 0x46E PUSH2 0x478 SWAP5 PUSH2 0x468 PUSH2 0x4BE SWAP9 SWAP8 SWAP6 PUSH2 0x3F2 PUSH2 0x3ED PUSH2 0x473 SWAP8 DUP16 SWAP8 DUP16 PUSH0 SWAP3 PUSH2 0x6BF JUMPI JUMPDEST POP POP PUSH2 0xE2E JUMP JUMPDEST SWAP1 PUSH2 0xDB6 JUMP JUMPDEST PUSH2 0xDD7 JUMP JUMPDEST PUSH2 0xDEA JUMP JUMPDEST PUSH1 0x9 SLOAD DUP5 MLOAD PUSH4 0x802431FB PUSH1 0xE0 SHL DUP2 MSTORE PUSH1 0x1 PUSH1 0x1 PUSH1 0xA0 SHL SUB DUP5 AND DUP2 DUP12 ADD DUP2 DUP2 MSTORE PUSH1 0x20 DUP2 ADD SWAP2 SWAP1 SWAP2 MSTORE PUSH1 0x1 PUSH1 0x40 DUP3 ADD MSTORE SWAP3 SWAP11 SWAP1 SWAP5 SWAP1 SWAP3 DUP8 SWAP3 DUP7 SWAP3 SWAP1 DUP12 AND SWAP2 DUP4 SWAP2 DUP3 SWAP2 PUSH1 0x60 ADD SWAP1 JUMP JUMPDEST SUB SWAP2 GAS STATICCALL SWAP3 DUP4 ISZERO PUSH2 0x64C JUMPI PUSH0 SWAP4 PUSH2 0x690 JUMPI JUMPDEST POP DUP4 MLOAD DUP2 DUP2 MSTORE DUP6 DUP2 DUP11 DUP2 DUP7 GAS STATICCALL SWAP1 DUP2 ISZERO PUSH2 0x686 JUMPI SWAP1 PUSH1 0xFF SWAP2 PUSH0 SWAP2 PUSH2 0x669 JUMPI JUMPDEST POP AND PUSH1 0x12 ADD SWAP1 PUSH1 0xFF DUP3 GT PUSH2 0x656 JUMPI DUP6 SWAP1 DUP10 DUP7 MLOAD DUP1 SWAP6 DUP2 SWAP4 DUP3 MSTORE GAS STATICCALL SWAP2 DUP3 ISZERO PUSH2 0x64C JUMPI SWAP2 PUSH2 0x526 SWAP2 PUSH1 0xFF SWAP4 PUSH0 SWAP3 PUSH2 0x61D JUMPI JUMPDEST POP PUSH2 0xE3F JUMP JUMPDEST AND PUSH1 0x4D DUP2 GT PUSH2 0x60A JUMPI PUSH2 0x54A SWAP2 PUSH2 0x473 PUSH2 0x543 SWAP3 PUSH1 0xA EXP DUP11 PUSH2 0xDD7 JUMP JUMPDEST DUP1 SWAP8 PUSH2 0xE08 JUMP JUMPDEST SWAP5 CALLER ISZERO PUSH2 0x5F5 JUMPI CALLER PUSH0 MSTORE PUSH0 DUP4 MSTORE DUP2 PUSH0 KECCAK256 SLOAD SWAP1 DUP5 DUP3 LT PUSH2 0x5CA JUMPI POP SWAP3 PUSH32 0xDDF252AD1BE2C89B69C2B068FC378DAA952BA7F163C4A11628F55A4DF523B3EF PUSH2 0x5C2 SWAP8 SWAP4 PUSH0 SWAP4 DUP4 PUSH2 0x5B7 SWAP8 CALLER DUP8 MSTORE DUP7 DUP5 MSTORE SUB DUP2 DUP7 KECCAK256 SSTORE DUP4 PUSH1 0x2 SLOAD SUB PUSH1 0x2 SSTORE MLOAD SWAP3 DUP4 MSTORE CALLER SWAP3 LOG3 CALLER DUP4 PUSH1 0x7 SLOAD AND PUSH2 0x13CC JUMP JUMPDEST CALLER SWAP1 PUSH1 0x8 SLOAD AND PUSH2 0x13CC JUMP JUMPDEST PUSH2 0x1C3 PUSH2 0x11A4 JUMP JUMPDEST DUP3 MLOAD PUSH4 0x391434E3 PUSH1 0xE2 SHL DUP2 MSTORE CALLER SWAP2 DUP2 ADD SWAP2 DUP3 MSTORE PUSH1 0x20 DUP3 ADD SWAP3 SWAP1 SWAP3 MSTORE PUSH1 0x40 DUP2 ADD DUP6 SWAP1 MSTORE DUP2 SWAP1 PUSH1 0x60 ADD SUB SWAP1 REVERT JUMPDEST PUSH0 PUSH1 0x24 SWAP3 MLOAD SWAP2 PUSH4 0x4B637E8F PUSH1 0xE1 SHL DUP4 MSTORE DUP3 ADD MSTORE REVERT JUMPDEST PUSH1 0x11 DUP8 PUSH4 0x4E487B71 PUSH1 0xE0 SHL PUSH0 MSTORE MSTORE PUSH1 0x24 PUSH0 REVERT JUMPDEST PUSH2 0x63E SWAP2 SWAP3 POP DUP8 RETURNDATASIZE DUP10 GT PUSH2 0x645 JUMPI JUMPDEST PUSH2 0x636 DUP2 DUP4 PUSH2 0xD94 JUMP JUMPDEST DUP2 ADD SWAP1 PUSH2 0xE15 JUMP JUMPDEST SWAP1 PUSH0 PUSH2 0x520 JUMP JUMPDEST POP RETURNDATASIZE PUSH2 0x62C JUMP JUMPDEST DUP5 MLOAD RETURNDATASIZE PUSH0 DUP3 RETURNDATACOPY RETURNDATASIZE SWAP1 REVERT JUMPDEST PUSH1 0x11 DUP10 PUSH4 0x4E487B71 PUSH1 0xE0 SHL PUSH0 MSTORE MSTORE PUSH1 0x24 PUSH0 REVERT JUMPDEST PUSH2 0x680 SWAP2 POP DUP8 RETURNDATASIZE DUP10 GT PUSH2 0x645 JUMPI PUSH2 0x636 DUP2 DUP4 PUSH2 0xD94 JUMP JUMPDEST PUSH0 PUSH2 0x4EF JUMP JUMPDEST DUP6 MLOAD RETURNDATASIZE PUSH0 DUP3 RETURNDATACOPY RETURNDATASIZE SWAP1 REVERT JUMPDEST SWAP1 SWAP3 POP DUP5 DUP2 DUP2 RETURNDATASIZE DUP4 GT PUSH2 0x6B8 JUMPI JUMPDEST PUSH2 0x6A8 DUP2 DUP4 PUSH2 0xD94 JUMP JUMPDEST DUP2 ADD SUB SLT PUSH2 0x10D JUMPI MLOAD SWAP2 PUSH0 PUSH2 0x4D0 JUMP JUMPDEST POP RETURNDATASIZE PUSH2 0x69E JUMP JUMPDEST PUSH2 0x6D5 SWAP3 POP DUP1 RETURNDATASIZE LT PUSH2 0x645 JUMPI PUSH2 0x636 DUP2 DUP4 PUSH2 0xD94 JUMP JUMPDEST PUSH0 DUP16 PUSH2 0x461 JUMP JUMPDEST DUP7 MLOAD RETURNDATASIZE PUSH0 DUP3 RETURNDATACOPY RETURNDATASIZE SWAP1 REVERT JUMPDEST SWAP2 POP POP DUP7 DUP3 DUP2 RETURNDATASIZE DUP4 GT PUSH2 0x712 JUMPI JUMPDEST PUSH2 0x6FE DUP2 DUP4 PUSH2 0xD94 JUMP JUMPDEST DUP2 ADD SUB SLT PUSH2 0x10D JUMPI DUP5 PUSH2 0x42A SWAP3 MLOAD SWAP2 PUSH2 0x420 JUMP JUMPDEST POP RETURNDATASIZE PUSH2 0x6F4 JUMP JUMPDEST PUSH2 0x730 SWAP2 POP DUP11 RETURNDATASIZE DUP13 GT PUSH2 0x645 JUMPI PUSH2 0x636 DUP2 DUP4 PUSH2 0xD94 JUMP JUMPDEST PUSH0 PUSH2 0x3E7 JUMP JUMPDEST SWAP1 SWAP9 POP DUP5 DUP2 DUP2 RETURNDATASIZE DUP4 GT PUSH2 0x75E JUMPI JUMPDEST PUSH2 0x74E DUP2 DUP4 PUSH2 0xD94 JUMP JUMPDEST DUP2 ADD SUB SLT PUSH2 0x10D JUMPI MLOAD SWAP8 PUSH0 PUSH2 0x3B6 JUMP JUMPDEST POP RETURNDATASIZE PUSH2 0x744 JUMP JUMPDEST POP SWAP2 PUSH1 0x64 SWAP3 MLOAD SWAP2 PUSH3 0x461BCD PUSH1 0xE5 SHL DUP4 MSTORE DUP3 ADD MSTORE PUSH1 0x12 PUSH1 0x24 DUP3 ADD MSTORE PUSH18 0x496E73756666696369656E74207368617265 PUSH1 0x70 SHL PUSH1 0x44 DUP3 ADD MSTORE REVERT JUMPDEST DUP3 CALLVALUE PUSH2 0x10D JUMPI PUSH0 CALLDATASIZE PUSH1 0x3 NOT ADD SLT PUSH2 0x10D JUMPI DUP1 MLOAD SWAP1 PUSH0 SWAP3 DUP1 SLOAD SWAP1 PUSH1 0x1 DUP3 PUSH1 0x1 SHR SWAP2 PUSH1 0x1 DUP5 AND SWAP4 DUP5 ISZERO PUSH2 0x894 JUMPI JUMPDEST PUSH1 0x20 SWAP5 DUP6 DUP6 LT DUP2 EQ PUSH2 0x881 JUMPI DUP5 DUP9 MSTORE SWAP1 DUP2 ISZERO PUSH2 0x85F JUMPI POP PUSH1 0x1 EQ PUSH2 0x806 JUMPI JUMPDEST PUSH2 0x802 DUP7 DUP7 PUSH2 0x7F8 DUP3 DUP12 SUB DUP4 PUSH2 0xD94 JUMP JUMPDEST MLOAD SWAP2 DUP3 SWAP2 DUP3 PUSH2 0xCEF JUMP JUMPDEST SUB SWAP1 RETURN JUMPDEST PUSH0 SWAP1 DUP2 MSTORE SWAP3 SWAP6 POP PUSH32 0x8A35ACFBC15FF81A39AE7D344FD709F28E8600B4AA8C65C6B64BFE7FE36BD19B JUMPDEST DUP3 DUP5 LT PUSH2 0x84C JUMPI POP POP POP DUP3 PUSH2 0x802 SWAP5 PUSH2 0x7F8 SWAP3 DUP3 ADD ADD SWAP5 DUP7 PUSH2 0x7E7 JUMP JUMPDEST DUP1 SLOAD DUP7 DUP6 ADD DUP9 ADD MSTORE SWAP3 DUP7 ADD SWAP3 DUP2 ADD PUSH2 0x82F JUMP JUMPDEST PUSH1 0xFF NOT AND DUP8 DUP7 ADD MSTORE POP POP POP ISZERO ISZERO PUSH1 0x5 SHL DUP4 ADD ADD SWAP3 POP PUSH2 0x7F8 DUP3 PUSH2 0x802 DUP7 PUSH2 0x7E7 JUMP JUMPDEST PUSH1 0x22 DUP4 PUSH4 0x4E487B71 PUSH1 0xE0 SHL PUSH0 MSTORE MSTORE PUSH1 0x24 PUSH0 REVERT JUMPDEST SWAP3 PUSH1 0x7F AND SWAP3 PUSH2 0x7C8 JUMP JUMPDEST DUP3 CALLVALUE PUSH2 0x10D JUMPI PUSH0 CALLDATASIZE PUSH1 0x3 NOT ADD SLT PUSH2 0x10D JUMPI PUSH1 0x9 SLOAD SWAP1 MLOAD PUSH1 0x1 PUSH1 0x1 PUSH1 0xA0 SHL SUB SWAP1 SWAP2 AND DUP2 MSTORE PUSH1 0x20 SWAP1 RETURN JUMPDEST DUP3 CALLVALUE PUSH2 0x10D JUMPI PUSH0 CALLDATASIZE PUSH1 0x3 NOT ADD SLT PUSH2 0x10D JUMPI PUSH1 0x7 SLOAD SWAP1 MLOAD PUSH1 0x1 PUSH1 0x1 PUSH1 0xA0 SHL SUB SWAP1 SWAP2 AND DUP2 MSTORE PUSH1 0x20 SWAP1 RETURN JUMPDEST DUP3 CALLVALUE PUSH2 0x10D JUMPI DUP1 PUSH1 0x3 NOT CALLDATASIZE ADD SLT PUSH2 0x10D JUMPI PUSH2 0x956 DUP3 CALLDATALOAD PUSH2 0x468 PUSH1 0x24 CALLDATALOAD PUSH2 0x912 PUSH2 0x10C9 JUMP JUMPDEST PUSH2 0x91A PUSH2 0x11A4 JUMP JUMPDEST PUSH1 0x7 SLOAD PUSH1 0x1 PUSH1 0x1 PUSH1 0xA0 SHL SUB SWAP1 PUSH2 0x937 SWAP1 DUP6 SWAP1 ADDRESS SWAP1 CALLER SWAP1 DUP6 AND PUSH2 0x1371 JUMP JUMPDEST PUSH2 0x947 DUP3 ADDRESS CALLER DUP5 PUSH1 0x8 SLOAD AND PUSH2 0x1371 JUMP JUMPDEST PUSH1 0x8 SLOAD PUSH1 0x7 SLOAD DUP3 AND SWAP2 AND PUSH2 0xE64 JUMP JUMPDEST SWAP2 CALLER ISZERO PUSH2 0x9B0 JUMPI POP PUSH2 0x96A DUP3 PUSH1 0x2 SLOAD PUSH2 0xDB6 JUMP JUMPDEST PUSH1 0x2 SSTORE CALLER PUSH0 MSTORE PUSH0 PUSH1 0x20 MSTORE DUP1 PUSH0 KECCAK256 DUP3 DUP2 SLOAD ADD SWAP1 SSTORE MLOAD SWAP1 DUP2 MSTORE PUSH0 PUSH32 0xDDF252AD1BE2C89B69C2B068FC378DAA952BA7F163C4A11628F55A4DF523B3EF PUSH1 0x20 CALLER SWAP4 LOG3 PUSH2 0x1C3 PUSH2 0x11A4 JUMP JUMPDEST PUSH0 PUSH1 0x24 SWAP3 MLOAD SWAP2 PUSH4 0xEC442F05 PUSH1 0xE0 SHL DUP4 MSTORE DUP3 ADD MSTORE REVERT JUMPDEST DUP3 CALLVALUE PUSH2 0x10D JUMPI PUSH1 0x20 CALLDATASIZE PUSH1 0x3 NOT ADD SLT PUSH2 0x10D JUMPI PUSH1 0x20 SWAP1 PUSH1 0x1 PUSH1 0x1 PUSH1 0xA0 SHL SUB PUSH2 0x9EA PUSH2 0xD19 JUMP JUMPDEST AND PUSH0 MSTORE PUSH0 DUP3 MSTORE DUP1 PUSH0 KECCAK256 SLOAD SWAP1 MLOAD SWAP1 DUP2 MSTORE RETURN JUMPDEST DUP3 CALLVALUE PUSH2 0x10D JUMPI PUSH0 CALLDATASIZE PUSH1 0x3 NOT ADD SLT PUSH2 0x10D JUMPI PUSH1 0x20 SWAP1 MLOAD PUSH1 0x1E DUP2 MSTORE RETURN JUMPDEST DUP3 CALLVALUE PUSH2 0x10D JUMPI PUSH0 CALLDATASIZE PUSH1 0x3 NOT ADD SLT PUSH2 0x10D JUMPI PUSH1 0x20 SWAP1 MLOAD PUSH1 0x12 DUP2 MSTORE RETURN JUMPDEST SWAP1 POP CALLVALUE PUSH2 0x10D JUMPI PUSH2 0xA41 CALLDATASIZE PUSH2 0xD2F JUMP JUMPDEST PUSH1 0x1 PUSH1 0x1 PUSH1 0xA0 SHL SUB DUP4 AND PUSH0 DUP2 DUP2 MSTORE PUSH1 0x1 PUSH1 0x20 DUP2 DUP2 MSTORE DUP9 DUP4 KECCAK256 CALLER DUP5 MSTORE SWAP1 MSTORE SWAP1 DUP8 SWAP1 KECCAK256 SLOAD SWAP3 SWAP6 SWAP4 SWAP5 SWAP4 SWAP1 DUP4 ADD PUSH2 0xA7E JUMPI JUMPDEST PUSH1 0x20 DUP8 PUSH2 0x340 DUP9 DUP9 DUP9 PUSH2 0xFEF JUMP JUMPDEST DUP6 DUP4 LT PUSH2 0xAE6 JUMPI DUP2 ISZERO PUSH2 0xAD0 JUMPI CALLER ISZERO PUSH2 0xABA JUMPI POP PUSH0 SWAP1 DUP2 MSTORE PUSH1 0x1 PUSH1 0x20 SWAP1 DUP2 MSTORE DUP7 DUP3 KECCAK256 CALLER DUP4 MSTORE DUP2 MSTORE SWAP1 DUP7 SWAP1 KECCAK256 SWAP2 DUP6 SWAP1 SUB SWAP1 SWAP2 SSTORE DUP3 SWAP1 PUSH2 0x340 PUSH2 0xA70 JUMP JUMPDEST PUSH1 0x24 SWAP1 PUSH0 DUP9 MLOAD SWAP2 PUSH4 0x4A1406B1 PUSH1 0xE1 SHL DUP4 MSTORE DUP3 ADD MSTORE REVERT JUMPDEST PUSH1 0x24 SWAP1 PUSH0 DUP9 MLOAD SWAP2 PUSH4 0xE602DF05 PUSH1 0xE0 SHL DUP4 MSTORE DUP3 ADD MSTORE REVERT JUMPDEST DUP7 MLOAD PUSH4 0x7DC7A0D9 PUSH1 0xE1 SHL DUP2 MSTORE CALLER SWAP2 DUP2 ADD SWAP2 DUP3 MSTORE PUSH1 0x20 DUP3 ADD SWAP4 SWAP1 SWAP4 MSTORE PUSH1 0x40 DUP2 ADD DUP7 SWAP1 MSTORE DUP3 SWAP2 POP PUSH1 0x60 ADD SUB SWAP1 REVERT JUMPDEST DUP3 CALLVALUE PUSH2 0x10D JUMPI PUSH0 CALLDATASIZE PUSH1 0x3 NOT ADD SLT PUSH2 0x10D JUMPI PUSH1 0x20 SWAP1 PUSH1 0x2 SLOAD SWAP1 MLOAD SWAP1 DUP2 MSTORE RETURN JUMPDEST DUP3 CALLVALUE PUSH2 0x10D JUMPI DUP1 PUSH1 0x3 NOT CALLDATASIZE ADD SLT PUSH2 0x10D JUMPI PUSH2 0xB49 PUSH2 0xD19 JUMP JUMPDEST PUSH1 0x24 CALLDATALOAD SWAP1 CALLER ISZERO PUSH2 0xBC2 JUMPI PUSH1 0x1 PUSH1 0x1 PUSH1 0xA0 SHL SUB AND SWAP1 DUP2 ISZERO PUSH2 0xBAC JUMPI PUSH1 0x20 SWAP4 POP CALLER PUSH0 MSTORE PUSH1 0x1 DUP5 MSTORE DUP3 PUSH0 KECCAK256 DUP3 PUSH0 MSTORE DUP5 MSTORE DUP1 DUP4 PUSH0 KECCAK256 SSTORE DUP3 MLOAD SWAP1 DUP2 MSTORE PUSH32 0x8C5BE1E5EBEC7D5BD14F71427D1E84F3DD0314C0F7B2291E5B200AC8C7C3B925 DUP5 CALLER SWAP3 LOG3 MLOAD PUSH1 0x1 DUP2 MSTORE RETURN JUMPDEST DUP3 MLOAD PUSH4 0x4A1406B1 PUSH1 0xE1 SHL DUP2 MSTORE PUSH0 DUP2 DUP7 ADD MSTORE PUSH1 0x24 SWAP1 REVERT JUMPDEST DUP3 MLOAD PUSH4 0xE602DF05 PUSH1 0xE0 SHL DUP2 MSTORE PUSH0 DUP2 DUP7 ADD MSTORE PUSH1 0x24 SWAP1 REVERT JUMPDEST DUP3 CALLVALUE PUSH2 0x10D JUMPI PUSH0 CALLDATASIZE PUSH1 0x3 NOT ADD SLT PUSH2 0x10D JUMPI DUP1 MLOAD SWAP1 PUSH0 SWAP3 PUSH1 0x3 SLOAD PUSH1 0x1 DUP2 PUSH1 0x1 SHR SWAP2 PUSH1 0x1 DUP2 AND DUP1 ISZERO PUSH2 0xCC2 JUMPI JUMPDEST PUSH1 0x20 SWAP5 DUP6 DUP6 LT DUP3 EQ PUSH2 0xCAF JUMPI POP DUP4 DUP8 MSTORE SWAP1 DUP2 ISZERO PUSH2 0xC8F JUMPI POP PUSH1 0x1 EQ PUSH2 0xC35 JUMPI JUMPDEST POP POP POP PUSH2 0x7F8 DUP3 PUSH2 0x802 SWAP5 SUB DUP4 PUSH2 0xD94 JUMP JUMPDEST PUSH1 0x3 PUSH0 SWAP1 DUP2 MSTORE SWAP3 SWAP6 POP PUSH32 0xC2575A0E9E593C00F959F8C92F12DB2869C3395A3B0502D05E2516446F71F85B JUMPDEST DUP3 DUP5 LT PUSH2 0xC7C JUMPI POP POP POP DUP3 PUSH2 0x802 SWAP5 PUSH2 0x7F8 SWAP3 DUP3 ADD ADD SWAP5 PUSH2 0xC23 JUMP JUMPDEST DUP1 SLOAD DUP7 DUP6 ADD DUP9 ADD MSTORE SWAP3 DUP7 ADD SWAP3 DUP2 ADD PUSH2 0xC60 JUMP JUMPDEST PUSH1 0xFF NOT AND DUP7 DUP6 ADD MSTORE POP POP ISZERO ISZERO PUSH1 0x5 SHL DUP4 ADD ADD SWAP3 POP PUSH2 0x7F8 DUP3 PUSH2 0x802 PUSH2 0xC23 JUMP JUMPDEST PUSH1 0x22 SWAP1 PUSH4 0x4E487B71 PUSH1 0xE0 SHL PUSH0 MSTORE MSTORE PUSH1 0x24 PUSH0 REVERT JUMPDEST SWAP3 PUSH1 0x7F AND SWAP3 PUSH2 0xC03 JUMP JUMPDEST CALLVALUE PUSH2 0x10D JUMPI PUSH0 CALLDATASIZE PUSH1 0x3 NOT ADD SLT PUSH2 0x10D JUMPI PUSH1 0x6 SLOAD PUSH1 0x1 PUSH1 0x1 PUSH1 0xA0 SHL SUB AND DUP2 MSTORE PUSH1 0x20 SWAP1 RETURN JUMPDEST PUSH1 0x20 PUSH1 0x40 SWAP3 DUP2 DUP4 MSTORE DUP1 MLOAD SWAP2 DUP3 SWAP2 DUP3 DUP3 DUP7 ADD MSTORE ADD DUP5 DUP5 ADD MCOPY PUSH0 DUP3 DUP3 ADD DUP5 ADD MSTORE PUSH1 0x1F ADD PUSH1 0x1F NOT AND ADD ADD SWAP1 JUMP JUMPDEST PUSH1 0x4 CALLDATALOAD SWAP1 PUSH1 0x1 PUSH1 0x1 PUSH1 0xA0 SHL SUB DUP3 AND DUP3 SUB PUSH2 0x10D JUMPI JUMP JUMPDEST PUSH1 0x60 SWAP1 PUSH1 0x3 NOT ADD SLT PUSH2 0x10D JUMPI PUSH1 0x1 PUSH1 0x1 PUSH1 0xA0 SHL SUB SWAP1 PUSH1 0x4 CALLDATALOAD DUP3 DUP2 AND DUP2 SUB PUSH2 0x10D JUMPI SWAP2 PUSH1 0x24 CALLDATALOAD SWAP1 DUP2 AND DUP2 SUB PUSH2 0x10D JUMPI SWAP1 PUSH1 0x44 CALLDATALOAD SWAP1 JUMP JUMPDEST PUSH1 0x60 DUP2 ADD SWAP1 DUP2 LT PUSH8 0xFFFFFFFFFFFFFFFF DUP3 GT OR PUSH2 0xD80 JUMPI PUSH1 0x40 MSTORE JUMP JUMPDEST PUSH4 0x4E487B71 PUSH1 0xE0 SHL PUSH0 MSTORE PUSH1 0x41 PUSH1 0x4 MSTORE PUSH1 0x24 PUSH0 REVERT JUMPDEST SWAP1 PUSH1 0x1F DUP1 NOT SWAP2 ADD AND DUP2 ADD SWAP1 DUP2 LT PUSH8 0xFFFFFFFFFFFFFFFF DUP3 GT OR PUSH2 0xD80 JUMPI PUSH1 0x40 MSTORE JUMP JUMPDEST SWAP2 SWAP1 DUP3 ADD DUP1 SWAP3 GT PUSH2 0xDC3 JUMPI JUMP JUMPDEST PUSH4 0x4E487B71 PUSH1 0xE0 SHL PUSH0 MSTORE PUSH1 0x11 PUSH1 0x4 MSTORE PUSH1 0x24 PUSH0 REVERT JUMPDEST DUP2 DUP2 MUL SWAP3 SWAP2 DUP2 ISZERO SWAP2 DUP5 DIV EQ OR ISZERO PUSH2 0xDC3 JUMPI JUMP JUMPDEST DUP2 ISZERO PUSH2 0xDF4 JUMPI DIV SWAP1 JUMP JUMPDEST PUSH4 0x4E487B71 PUSH1 0xE0 SHL PUSH0 MSTORE PUSH1 0x12 PUSH1 0x4 MSTORE PUSH1 0x24 PUSH0 REVERT JUMPDEST SWAP2 SWAP1 DUP3 SUB SWAP2 DUP3 GT PUSH2 0xDC3 JUMPI JUMP JUMPDEST SWAP1 DUP2 PUSH1 0x20 SWAP2 SUB SLT PUSH2 0x10D JUMPI MLOAD PUSH1 0xFF DUP2 AND DUP2 SUB PUSH2 0x10D JUMPI SWAP1 JUMP JUMPDEST PUSH1 0xFF AND PUSH1 0x12 SUB SWAP1 PUSH1 0xFF DUP3 GT PUSH2 0xDC3 JUMPI JUMP JUMPDEST SWAP1 PUSH1 0xFF DUP1 SWAP2 AND SWAP2 AND SUB SWAP1 PUSH1 0xFF DUP3 GT PUSH2 0xDC3 JUMPI JUMP JUMPDEST PUSH1 0xFF AND PUSH1 0x4D DUP2 GT PUSH2 0xDC3 JUMPI PUSH1 0xA EXP SWAP1 JUMP JUMPDEST PUSH1 0x9 SLOAD PUSH1 0x40 DUP1 MLOAD PUSH4 0x802431FB PUSH1 0xE0 SHL DUP2 MSTORE PUSH1 0x1 PUSH1 0x1 PUSH1 0xA0 SHL SUB SWAP4 DUP5 AND PUSH1 0x4 DUP3 ADD DUP2 SWAP1 MSTORE SWAP5 DUP5 AND PUSH1 0x24 DUP3 ADD DUP2 SWAP1 MSTORE PUSH1 0x1 PUSH1 0x44 DUP4 ADD MSTORE SWAP2 SWAP7 SWAP6 SWAP5 SWAP4 PUSH1 0x20 SWAP4 SWAP2 SWAP3 SWAP2 DUP5 SWAP2 DUP5 SWAP2 PUSH1 0x64 SWAP2 DUP4 SWAP2 AND GAS STATICCALL SWAP2 DUP3 ISZERO PUSH2 0xF8B JUMPI PUSH0 SWAP3 PUSH2 0xFC0 JUMPI JUMPDEST POP DUP7 MLOAD SWAP4 DUP4 DUP6 PUSH1 0x4 DUP2 PUSH4 0x313CE567 PUSH1 0xE0 SHL SWAP5 DUP6 DUP3 MSTORE GAS STATICCALL SWAP5 DUP6 ISZERO PUSH2 0xFB6 JUMPI PUSH0 SWAP6 PUSH2 0xF95 JUMPI JUMPDEST POP DUP4 SWAP1 PUSH1 0x4 DUP10 MLOAD DUP1 SWAP5 DUP2 SWAP4 DUP3 MSTORE GAS STATICCALL SWAP3 DUP4 ISZERO PUSH2 0xF8B JUMPI PUSH8 0xDE0B6B3A7640000 SWAP7 SWAP8 POP PUSH0 SWAP4 PUSH2 0xF6C JUMPI JUMPDEST POP POP PUSH1 0xFF DUP4 DUP2 AND SWAP1 DUP4 AND DUP1 DUP3 GT ISZERO PUSH2 0xF43 JUMPI POP POP PUSH2 0xF39 SWAP2 PUSH2 0xF33 PUSH2 0x3ED SWAP3 PUSH2 0xF3F SWAP7 PUSH2 0xDD7 JUMP JUMPDEST SWAP4 PUSH2 0xE3F JUMP JUMPDEST SWAP1 PUSH2 0xDEA JUMP JUMPDEST DIV SWAP1 JUMP JUMPDEST SWAP3 SWAP4 SWAP3 GT ISZERO PUSH2 0xF60 JUMPI PUSH2 0x3F2 SWAP2 PUSH2 0xF33 PUSH2 0x3ED SWAP3 PUSH2 0xF3F SWAP7 PUSH2 0xDD7 JUMP JUMPDEST SWAP2 POP POP PUSH2 0xF3F SWAP2 PUSH2 0xDD7 JUMP JUMPDEST PUSH2 0xF83 SWAP3 SWAP4 POP DUP1 RETURNDATASIZE LT PUSH2 0x645 JUMPI PUSH2 0x636 DUP2 DUP4 PUSH2 0xD94 JUMP JUMPDEST SWAP1 PUSH0 DUP1 PUSH2 0xF0B JUMP JUMPDEST DUP8 MLOAD RETURNDATASIZE PUSH0 DUP3 RETURNDATACOPY RETURNDATASIZE SWAP1 REVERT JUMPDEST DUP5 SWAP2 SWAP6 POP PUSH2 0xFAF SWAP1 DUP3 RETURNDATASIZE DUP5 GT PUSH2 0x645 JUMPI PUSH2 0x636 DUP2 DUP4 PUSH2 0xD94 JUMP JUMPDEST SWAP5 SWAP1 PUSH2 0xEE2 JUMP JUMPDEST DUP9 MLOAD RETURNDATASIZE PUSH0 DUP3 RETURNDATACOPY RETURNDATASIZE SWAP1 REVERT JUMPDEST SWAP1 SWAP2 POP DUP3 DUP2 DUP2 RETURNDATASIZE DUP4 GT PUSH2 0xFE8 JUMPI JUMPDEST PUSH2 0xFD8 DUP2 DUP4 PUSH2 0xD94 JUMP JUMPDEST DUP2 ADD SUB SLT PUSH2 0x10D JUMPI MLOAD SWAP1 PUSH0 PUSH2 0xEBD JUMP JUMPDEST POP RETURNDATASIZE PUSH2 0xFCE JUMP JUMPDEST SWAP2 PUSH1 0x1 PUSH1 0x1 PUSH1 0xA0 SHL SUB DUP1 DUP5 AND SWAP3 DUP4 ISZERO PUSH2 0x10B1 JUMPI AND SWAP3 DUP4 ISZERO PUSH2 0x1099 JUMPI DUP3 PUSH0 MSTORE PUSH0 PUSH1 0x20 MSTORE PUSH1 0x40 PUSH0 KECCAK256 SLOAD SWAP1 DUP3 DUP3 LT PUSH2 0x1067 JUMPI POP DUP2 PUSH32 0xDDF252AD1BE2C89B69C2B068FC378DAA952BA7F163C4A11628F55A4DF523B3EF SWAP3 PUSH1 0x20 SWAP3 DUP6 PUSH0 MSTORE PUSH0 DUP5 MSTORE SUB PUSH1 0x40 PUSH0 KECCAK256 SSTORE DUP5 PUSH0 MSTORE PUSH1 0x40 PUSH0 KECCAK256 DUP2 DUP2 SLOAD ADD SWAP1 SSTORE PUSH1 0x40 MLOAD SWAP1 DUP2 MSTORE LOG3 JUMP JUMPDEST PUSH1 0x40 MLOAD PUSH4 0x391434E3 PUSH1 0xE2 SHL DUP2 MSTORE PUSH1 0x1 PUSH1 0x1 PUSH1 0xA0 SHL SUB SWAP2 SWAP1 SWAP2 AND PUSH1 0x4 DUP3 ADD MSTORE PUSH1 0x24 DUP2 ADD SWAP2 SWAP1 SWAP2 MSTORE PUSH1 0x44 DUP2 ADD DUP3 SWAP1 MSTORE PUSH1 0x64 SWAP1 REVERT JUMPDEST PUSH1 0x40 MLOAD PUSH4 0xEC442F05 PUSH1 0xE0 SHL DUP2 MSTORE PUSH0 PUSH1 0x4 DUP3 ADD MSTORE PUSH1 0x24 SWAP1 REVERT JUMPDEST PUSH1 0x40 MLOAD PUSH4 0x4B637E8F PUSH1 0xE1 SHL DUP2 MSTORE PUSH0 PUSH1 0x4 DUP3 ADD MSTORE PUSH1 0x24 SWAP1 REVERT JUMPDEST PUSH1 0x2 PUSH1 0x5 SLOAD EQ PUSH2 0x10DA JUMPI PUSH1 0x2 PUSH1 0x5 SSTORE JUMP JUMPDEST PUSH1 0x40 MLOAD PUSH4 0x3EE5AEB5 PUSH1 0xE0 SHL DUP2 MSTORE PUSH1 0x4 SWAP1 REVERT JUMPDEST DUP1 MLOAD ISZERO PUSH2 0x10F9 JUMPI PUSH1 0x20 ADD SWAP1 JUMP JUMPDEST PUSH4 0x4E487B71 PUSH1 0xE0 SHL PUSH0 MSTORE PUSH1 0x32 PUSH1 0x4 MSTORE PUSH1 0x24 PUSH0 REVERT JUMPDEST DUP1 MLOAD PUSH1 0x1 LT ISZERO PUSH2 0x10F9 JUMPI PUSH1 0x40 ADD SWAP1 JUMP JUMPDEST SWAP1 DUP2 MLOAD DUP1 DUP3 MSTORE PUSH1 0x20 DUP1 DUP1 SWAP4 ADD SWAP4 ADD SWAP2 PUSH0 JUMPDEST DUP3 DUP2 LT PUSH2 0x113C JUMPI POP POP POP POP SWAP1 JUMP JUMPDEST DUP4 MLOAD PUSH1 0x1 PUSH1 0x1 PUSH1 0xA0 SHL SUB AND DUP6 MSTORE SWAP4 DUP2 ADD SWAP4 SWAP3 DUP2 ADD SWAP3 PUSH1 0x1 ADD PUSH2 0x112E JUMP JUMPDEST SWAP1 DUP2 MLOAD DUP1 DUP3 MSTORE PUSH1 0x20 DUP1 DUP1 SWAP4 ADD SWAP4 ADD SWAP2 PUSH0 JUMPDEST DUP3 DUP2 LT PUSH2 0x1178 JUMPI POP POP POP POP SWAP1 JUMP JUMPDEST DUP4 MLOAD DUP6 MSTORE SWAP4 DUP2 ADD SWAP4 SWAP3 DUP2 ADD SWAP3 PUSH1 0x1 ADD PUSH2 0x116A JUMP JUMPDEST SWAP1 DUP2 PUSH1 0x20 SWAP2 SUB SLT PUSH2 0x10D JUMPI MLOAD DUP1 ISZERO ISZERO DUP2 SUB PUSH2 0x10D JUMPI SWAP1 JUMP JUMPDEST PUSH1 0x40 DUP1 MLOAD PUSH2 0x11B1 DUP2 PUSH2 0xD64 JUMP JUMPDEST PUSH1 0x2 DUP2 MSTORE PUSH1 0x20 SWAP2 DUP1 CALLDATASIZE DUP5 DUP5 ADD CALLDATACOPY DUP1 MLOAD SWAP2 PUSH2 0x11CA DUP4 PUSH2 0xD64 JUMP JUMPDEST PUSH1 0x2 DUP4 MSTORE DUP2 CALLDATASIZE DUP6 DUP6 ADD CALLDATACOPY PUSH1 0x7 SLOAD PUSH1 0x1 PUSH1 0x1 PUSH1 0xA0 SHL SUB SWAP1 DUP2 AND PUSH2 0x11EB DUP4 PUSH2 0x10EC JUMP JUMPDEST MSTORE DUP1 PUSH1 0x8 SLOAD AND PUSH2 0x11FA DUP4 PUSH2 0x110D JUMP JUMPDEST MSTORE PUSH2 0x1388 DUP1 PUSH2 0x1208 DUP7 PUSH2 0x10EC JUMP JUMPDEST MSTORE PUSH2 0x1212 DUP6 PUSH2 0x110D JUMP JUMPDEST MSTORE PUSH1 0x6 SLOAD DUP4 MLOAD PUSH4 0x89576989 PUSH1 0xE0 SHL DUP2 MSTORE PUSH1 0x80 PUSH1 0x4 DUP3 ADD MSTORE SWAP5 SWAP2 AND PUSH2 0x1239 PUSH1 0x84 DUP7 ADD DUP5 PUSH2 0x111D JUMP JUMPDEST SWAP5 DUP7 DUP2 DUP1 PUSH2 0x1254 PUSH1 0x3 NOT SWAP10 DUP11 DUP4 DUP3 SUB ADD PUSH1 0x24 DUP5 ADD MSTORE DUP8 PUSH2 0x1159 JUMP JUMPDEST PUSH1 0x5 PUSH1 0x44 DUP4 ADD MSTORE ADDRESS PUSH1 0x64 DUP4 ADD MSTORE SUB DUP2 DUP6 GAS STATICCALL SWAP1 DUP2 ISZERO PUSH2 0x686 JUMPI PUSH0 SWAP2 PUSH2 0x133B JUMPI JUMPDEST POP PUSH1 0x3 DUP2 LT ISZERO PUSH2 0x1327 JUMPI PUSH1 0x2 SUB PUSH2 0x128E JUMPI JUMPDEST POP POP POP POP POP POP JUMP JUMPDEST PUSH2 0x12BB PUSH0 DUP8 SWAP5 PUSH2 0x12CA DUP8 MLOAD SWAP9 DUP10 SWAP7 DUP8 SWAP6 DUP7 SWAP5 PUSH4 0x3978BED PUSH1 0xE3 SHL DUP7 MSTORE PUSH1 0x80 PUSH1 0x4 DUP8 ADD MSTORE PUSH1 0x84 DUP7 ADD SWAP1 PUSH2 0x111D JUMP JUMPDEST SWAP2 DUP5 DUP4 SUB ADD PUSH1 0x24 DUP6 ADD MSTORE PUSH2 0x1159 JUMP JUMPDEST ADDRESS PUSH1 0x44 DUP4 ADD MSTORE ADDRESS PUSH1 0x64 DUP4 ADD MSTORE SUB SWAP3 GAS CALL SWAP1 DUP2 ISZERO PUSH2 0x131E JUMPI POP PUSH2 0x12F0 JUMPI JUMPDEST DUP1 DUP1 DUP1 DUP1 PUSH2 0x1286 JUMP JUMPDEST DUP2 PUSH2 0x130F SWAP3 SWAP1 RETURNDATASIZE LT PUSH2 0x1317 JUMPI JUMPDEST PUSH2 0x1307 DUP2 DUP4 PUSH2 0xD94 JUMP JUMPDEST DUP2 ADD SWAP1 PUSH2 0x118C JUMP JUMPDEST POP PUSH0 DUP1 PUSH2 0x12E7 JUMP JUMPDEST POP RETURNDATASIZE PUSH2 0x12FD JUMP JUMPDEST MLOAD RETURNDATASIZE PUSH0 DUP3 RETURNDATACOPY RETURNDATASIZE SWAP1 REVERT JUMPDEST PUSH4 0x4E487B71 PUSH1 0xE0 SHL PUSH0 MSTORE PUSH1 0x21 PUSH1 0x4 MSTORE PUSH1 0x24 PUSH0 REVERT JUMPDEST SWAP1 POP DUP7 DUP2 DUP2 RETURNDATASIZE DUP4 GT PUSH2 0x136A JUMPI JUMPDEST PUSH2 0x1352 DUP2 DUP4 PUSH2 0xD94 JUMP JUMPDEST DUP2 ADD SUB SLT PUSH2 0x10D JUMPI MLOAD PUSH1 0x3 DUP2 LT ISZERO PUSH2 0x10D JUMPI PUSH0 PUSH2 0x1274 JUMP JUMPDEST POP RETURNDATASIZE PUSH2 0x1348 JUMP JUMPDEST PUSH1 0x40 MLOAD PUSH4 0x23B872DD PUSH1 0xE0 SHL PUSH1 0x20 DUP3 ADD MSTORE PUSH1 0x1 PUSH1 0x1 PUSH1 0xA0 SHL SUB SWAP3 DUP4 AND PUSH1 0x24 DUP3 ADD MSTORE SWAP3 SWAP1 SWAP2 AND PUSH1 0x44 DUP4 ADD MSTORE PUSH1 0x64 DUP1 DUP4 ADD SWAP4 SWAP1 SWAP4 MSTORE SWAP2 DUP2 MSTORE PUSH1 0xA0 DUP2 ADD SWAP2 DUP2 DUP4 LT PUSH8 0xFFFFFFFFFFFFFFFF DUP5 GT OR PUSH2 0xD80 JUMPI PUSH2 0x13CA SWAP3 PUSH1 0x40 MSTORE PUSH2 0x1418 JUMP JUMPDEST JUMP JUMPDEST PUSH1 0x40 MLOAD PUSH4 0xA9059CBB PUSH1 0xE0 SHL PUSH1 0x20 DUP3 ADD MSTORE PUSH1 0x1 PUSH1 0x1 PUSH1 0xA0 SHL SUB SWAP1 SWAP3 AND PUSH1 0x24 DUP4 ADD MSTORE PUSH1 0x44 DUP1 DUP4 ADD SWAP4 SWAP1 SWAP4 MSTORE SWAP2 DUP2 MSTORE PUSH1 0x80 DUP2 ADD SWAP2 PUSH8 0xFFFFFFFFFFFFFFFF DUP4 GT DUP3 DUP5 LT OR PUSH2 0xD80 JUMPI PUSH2 0x13CA SWAP3 PUSH1 0x40 MSTORE JUMPDEST DUP2 MLOAD PUSH1 0x1 PUSH1 0x1 PUSH1 0xA0 SHL SUB SWAP1 SWAP2 AND SWAP2 PUSH0 SWAP2 DUP3 SWAP2 PUSH1 0x20 ADD DUP3 DUP6 GAS CALL RETURNDATASIZE ISZERO PUSH2 0x14BC JUMPI RETURNDATASIZE PUSH8 0xFFFFFFFFFFFFFFFF DUP2 GT PUSH2 0xD80 JUMPI PUSH2 0x1473 SWAP2 PUSH1 0x40 MLOAD SWAP2 PUSH2 0x1463 PUSH1 0x20 PUSH1 0x1F NOT PUSH1 0x1F DUP5 ADD AND ADD DUP5 PUSH2 0xD94 JUMP JUMPDEST DUP3 MSTORE RETURNDATASIZE PUSH0 PUSH1 0x20 DUP5 ADD RETURNDATACOPY JUMPDEST DUP4 PUSH2 0x14C8 JUMP JUMPDEST DUP1 MLOAD SWAP1 DUP2 ISZERO ISZERO SWAP2 DUP3 PUSH2 0x14A1 JUMPI JUMPDEST POP POP PUSH2 0x1489 JUMPI POP JUMP JUMPDEST PUSH1 0x24 SWAP1 PUSH1 0x40 MLOAD SWAP1 PUSH4 0x5274AFE7 PUSH1 0xE0 SHL DUP3 MSTORE PUSH1 0x4 DUP3 ADD MSTORE REVERT JUMPDEST PUSH2 0x14B4 SWAP3 POP PUSH1 0x20 DUP1 SWAP2 DUP4 ADD ADD SWAP2 ADD PUSH2 0x118C JUMP JUMPDEST ISZERO PUSH0 DUP1 PUSH2 0x1480 JUMP JUMPDEST PUSH2 0x1473 SWAP1 PUSH1 0x60 SWAP1 PUSH2 0x146D JUMP JUMPDEST SWAP1 PUSH2 0x14EF JUMPI POP DUP1 MLOAD ISZERO PUSH2 0x14DD JUMPI DUP1 MLOAD SWAP1 PUSH1 0x20 ADD REVERT JUMPDEST PUSH1 0x40 MLOAD PUSH4 0xA12F521 PUSH1 0xE1 SHL DUP2 MSTORE PUSH1 0x4 SWAP1 REVERT JUMPDEST DUP2 MLOAD ISZERO DUP1 PUSH2 0x1522 JUMPI JUMPDEST PUSH2 0x1500 JUMPI POP SWAP1 JUMP JUMPDEST PUSH1 0x40 MLOAD PUSH4 0x9996B315 PUSH1 0xE0 SHL DUP2 MSTORE PUSH1 0x1 PUSH1 0x1 PUSH1 0xA0 SHL SUB SWAP1 SWAP2 AND PUSH1 0x4 DUP3 ADD MSTORE PUSH1 0x24 SWAP1 REVERT JUMPDEST POP DUP1 EXTCODESIZE ISZERO PUSH2 0x14F8 JUMP INVALID LOG2 PUSH5 0x6970667358 0x22 SLT KECCAK256 0xCD 0x25 ADDRESS DUP14 PUSH15 0x5760EC9EEC6FB5D0C2D9730A1164BD MSTORE SHL 0xDC SGT 0xBC LOG1 0x4C PC PUSH12 0x2815F464736F6C6343000819 STOP CALLER "},"gasEstimates":{"creation":{"codeDepositCost":"1094600","executionCost":"infinite","totalCost":"infinite"},"external":{"SWAP_FEE_BPS()":"297","allowance(address,address)":"2833","approve(address,uint256)":"24361","asset1()":"2490","asset2()":"2662","balanceOf(address)":"2574","calculateReceivedAmount(address,address,uint256)":"infinite","decimals()":"275","name()":"infinite","oracle()":"2512","provideLiquidity(uint256,uint256)":"infinite","rebalancer()":"2275","removeLiquidity(uint256)":"infinite","swap(address,address,uint256)":"infinite","symbol()":"infinite","totalSupply()":"2337","transfer(address,uint256)":"51043","transferFrom(address,address,uint256)":"75537"},"internal":{"calculateAssetShareFromValue(uint256,address)":"infinite","calculatePoolValue()":"infinite","performRebalanceIfNeeded()":"infinite"}},"methodIdentifiers":{"SWAP_FEE_BPS()":"67a6c440","allowance(address,address)":"dd62ed3e","approve(address,uint256)":"095ea7b3","asset1()":"7cd5f3f9","asset2()":"e9423bf2","balanceOf(address)":"70a08231","calculateReceivedAmount(address,address,uint256)":"e4a4030f","decimals()":"313ce567","name()":"06fdde03","oracle()":"7dc0d1d0","provideLiquidity(uint256,uint256)":"7a16af7f","rebalancer()":"01d22ccd","removeLiquidity(uint256)":"9c8f9f23","swap(address,address,uint256)":"df791e50","symbol()":"95d89b41","totalSupply()":"18160ddd","transfer(address,uint256)":"a9059cbb","transferFrom(address,address,uint256)":"23b872dd"}},"storageLayout":{"storage":[{"astId":159,"contract":"contracts/BaluniV1StablePool.sol:BaluniV1StablePool","label":"_balances","offset":0,"slot":"0","type":"t_mapping(t_address,t_uint256)"},{"astId":165,"contract":"contracts/BaluniV1StablePool.sol:BaluniV1StablePool","label":"_allowances","offset":0,"slot":"1","type":"t_mapping(t_address,t_mapping(t_address,t_uint256))"},{"astId":167,"contract":"contracts/BaluniV1StablePool.sol:BaluniV1StablePool","label":"_totalSupply","offset":0,"slot":"2","type":"t_uint256"},{"astId":169,"contract":"contracts/BaluniV1StablePool.sol:BaluniV1StablePool","label":"_name","offset":0,"slot":"3","type":"t_string_storage"},{"astId":171,"contract":"contracts/BaluniV1StablePool.sol:BaluniV1StablePool","label":"_symbol","offset":0,"slot":"4","type":"t_string_storage"},{"astId":1375,"contract":"contracts/BaluniV1StablePool.sol:BaluniV1StablePool","label":"_status","offset":0,"slot":"5","type":"t_uint256"},{"astId":1466,"contract":"contracts/BaluniV1StablePool.sol:BaluniV1StablePool","label":"rebalancer","offset":0,"slot":"6","type":"t_contract(IBaluniV1Rebalancer)2146"},{"astId":1469,"contract":"contracts/BaluniV1StablePool.sol:BaluniV1StablePool","label":"asset1","offset":0,"slot":"7","type":"t_contract(IERC20)729"},{"astId":1472,"contract":"contracts/BaluniV1StablePool.sol:BaluniV1StablePool","label":"asset2","offset":0,"slot":"8","type":"t_contract(IERC20)729"},{"astId":1475,"contract":"contracts/BaluniV1StablePool.sol:BaluniV1StablePool","label":"oracle","offset":0,"slot":"9","type":"t_contract(IOracle)1455"}],"types":{"t_address":{"encoding":"inplace","label":"address","numberOfBytes":"20"},"t_contract(IBaluniV1Rebalancer)2146":{"encoding":"inplace","label":"contract IBaluniV1Rebalancer","numberOfBytes":"20"},"t_contract(IERC20)729":{"encoding":"inplace","label":"contract IERC20","numberOfBytes":"20"},"t_contract(IOracle)1455":{"encoding":"inplace","label":"contract IOracle","numberOfBytes":"20"},"t_mapping(t_address,t_mapping(t_address,t_uint256))":{"encoding":"mapping","key":"t_address","label":"mapping(address => mapping(address => uint256))","numberOfBytes":"32","value":"t_mapping(t_address,t_uint256)"},"t_mapping(t_address,t_uint256)":{"encoding":"mapping","key":"t_address","label":"mapping(address => uint256)","numberOfBytes":"32","value":"t_uint256"},"t_string_storage":{"encoding":"bytes","label":"string","numberOfBytes":"32"},"t_uint256":{"encoding":"inplace","label":"uint256","numberOfBytes":"32"}}},"userdoc":{"kind":"user","methods":{},"version":1}}}}