{"contracts/BaluniV1PoolPeriphery.sol":{"BaluniV1PoolPeriphery":{"abi":[{"inputs":[{"internalType":"address","name":"target","type":"address"}],"name":"AddressEmptyCode","type":"error"},{"inputs":[{"internalType":"address","name":"implementation","type":"address"}],"name":"ERC1967InvalidImplementation","type":"error"},{"inputs":[],"name":"ERC1967NonPayable","type":"error"},{"inputs":[],"name":"FailedInnerCall","type":"error"},{"inputs":[],"name":"InvalidInitialization","type":"error"},{"inputs":[],"name":"NotInitializing","type":"error"},{"inputs":[{"internalType":"address","name":"owner","type":"address"}],"name":"OwnableInvalidOwner","type":"error"},{"inputs":[{"internalType":"address","name":"account","type":"address"}],"name":"OwnableUnauthorizedAccount","type":"error"},{"inputs":[],"name":"UUPSUnauthorizedCallContext","type":"error"},{"inputs":[{"internalType":"bytes32","name":"slot","type":"bytes32"}],"name":"UUPSUnsupportedProxiableUUID","type":"error"},{"anonymous":false,"inputs":[{"indexed":false,"internalType":"uint64","name":"version","type":"uint64"}],"name":"Initialized","type":"event"},{"anonymous":false,"inputs":[{"indexed":true,"internalType":"address","name":"previousOwner","type":"address"},{"indexed":true,"internalType":"address","name":"newOwner","type":"address"}],"name":"OwnershipTransferred","type":"event"},{"anonymous":false,"inputs":[{"indexed":true,"internalType":"address","name":"implementation","type":"address"}],"name":"Upgraded","type":"event"},{"inputs":[],"name":"UPGRADE_INTERFACE_VERSION","outputs":[{"internalType":"string","name":"","type":"string"}],"stateMutability":"view","type":"function"},{"inputs":[{"internalType":"uint256[]","name":"amounts","type":"uint256[]"},{"internalType":"address","name":"poolAddress","type":"address"},{"internalType":"address","name":"receiver","type":"address"}],"name":"addLiquidity","outputs":[],"stateMutability":"nonpayable","type":"function"},{"inputs":[{"internalType":"address[]","name":"fromTokens","type":"address[]"},{"internalType":"address[]","name":"toTokens","type":"address[]"},{"internalType":"uint256[]","name":"amounts","type":"uint256[]"},{"internalType":"address[]","name":"receivers","type":"address[]"}],"name":"batchSwap","outputs":[{"internalType":"uint256[]","name":"","type":"uint256[]"}],"stateMutability":"nonpayable","type":"function"},{"inputs":[{"internalType":"address","name":"_poolFactory","type":"address"}],"name":"changePoolFactory","outputs":[],"stateMutability":"nonpayable","type":"function"},{"inputs":[{"internalType":"address","name":"fromToken","type":"address"},{"internalType":"address","name":"toToken","type":"address"},{"internalType":"uint256","name":"amount","type":"uint256"}],"name":"getAmountOut","outputs":[{"internalType":"uint256","name":"","type":"uint256"}],"stateMutability":"view","type":"function"},{"inputs":[{"internalType":"address","name":"pool","type":"address"},{"internalType":"address","name":"asset","type":"address"}],"name":"getAssetReserves","outputs":[{"internalType":"uint256","name":"","type":"uint256"}],"stateMutability":"view","type":"function"},{"inputs":[{"internalType":"address","name":"token","type":"address"}],"name":"getPoolsContainingToken","outputs":[{"internalType":"address[]","name":"","type":"address[]"}],"stateMutability":"view","type":"function"},{"inputs":[{"internalType":"address","name":"pool","type":"address"}],"name":"getReserves","outputs":[{"internalType":"uint256[]","name":"","type":"uint256[]"}],"stateMutability":"view","type":"function"},{"inputs":[],"name":"getVersion","outputs":[{"internalType":"uint64","name":"","type":"uint64"}],"stateMutability":"view","type":"function"},{"inputs":[{"internalType":"address","name":"_poolFactory","type":"address"}],"name":"initialize","outputs":[],"stateMutability":"nonpayable","type":"function"},{"inputs":[],"name":"owner","outputs":[{"internalType":"address","name":"","type":"address"}],"stateMutability":"view","type":"function"},{"inputs":[{"internalType":"address","name":"poolAddress","type":"address"}],"name":"performRebalanceIfNeeded","outputs":[],"stateMutability":"nonpayable","type":"function"},{"inputs":[],"name":"poolFactory","outputs":[{"internalType":"contract IBaluniV1PoolFactory","name":"","type":"address"}],"stateMutability":"view","type":"function"},{"inputs":[{"internalType":"address","name":"","type":"address"},{"internalType":"address","name":"","type":"address"}],"name":"poolsReserves","outputs":[{"internalType":"uint256","name":"","type":"uint256"}],"stateMutability":"view","type":"function"},{"inputs":[],"name":"proxiableUUID","outputs":[{"internalType":"bytes32","name":"","type":"bytes32"}],"stateMutability":"view","type":"function"},{"inputs":[{"internalType":"address","name":"receiver","type":"address"},{"internalType":"address","name":"poolAddress","type":"address"}],"name":"rebalanceWeights","outputs":[],"stateMutability":"nonpayable","type":"function"},{"inputs":[{"internalType":"address","name":"_poolFactory","type":"address"},{"internalType":"uint64","name":"version","type":"uint64"}],"name":"reinitialize","outputs":[],"stateMutability":"nonpayable","type":"function"},{"inputs":[{"internalType":"uint256","name":"share","type":"uint256"},{"internalType":"address","name":"poolAddress","type":"address"},{"internalType":"address","name":"receiver","type":"address"}],"name":"removeLiquidity","outputs":[],"stateMutability":"nonpayable","type":"function"},{"inputs":[],"name":"renounceOwnership","outputs":[],"stateMutability":"nonpayable","type":"function"},{"inputs":[{"internalType":"address","name":"fromToken","type":"address"},{"internalType":"address","name":"toToken","type":"address"},{"internalType":"uint256","name":"amount","type":"uint256"},{"internalType":"address","name":"receiver","type":"address"}],"name":"smartSwap","outputs":[{"internalType":"uint256","name":"","type":"uint256"}],"stateMutability":"nonpayable","type":"function"},{"inputs":[{"internalType":"address","name":"fromToken","type":"address"},{"internalType":"address","name":"toToken","type":"address"},{"internalType":"uint256","name":"amount","type":"uint256"},{"internalType":"address","name":"receiver","type":"address"}],"name":"swap","outputs":[{"internalType":"uint256","name":"","type":"uint256"}],"stateMutability":"nonpayable","type":"function"},{"inputs":[{"internalType":"address","name":"newOwner","type":"address"}],"name":"transferOwnership","outputs":[],"stateMutability":"nonpayable","type":"function"},{"inputs":[{"internalType":"address","name":"newImplementation","type":"address"},{"internalType":"bytes","name":"data","type":"bytes"}],"name":"upgradeToAndCall","outputs":[],"stateMutability":"payable","type":"function"}],"devdoc":{"details":"This contract serves as the periphery contract for interacting with BaluniV1Pool contracts. It provides functions for swapping tokens, adding liquidity, removing liquidity, and getting the amount out for a given swap.","errors":{"AddressEmptyCode(address)":[{"details":"There's no code at `target` (it is not a contract)."}],"ERC1967InvalidImplementation(address)":[{"details":"The `implementation` of the proxy is invalid."}],"ERC1967NonPayable()":[{"details":"An upgrade function sees `msg.value > 0` that may be lost."}],"FailedInnerCall()":[{"details":"A call to an address target failed. The target may have reverted."}],"InvalidInitialization()":[{"details":"The contract is already initialized."}],"NotInitializing()":[{"details":"The contract is not initializing."}],"OwnableInvalidOwner(address)":[{"details":"The owner is not a valid owner account. (eg. `address(0)`)"}],"OwnableUnauthorizedAccount(address)":[{"details":"The caller account is not authorized to perform an operation."}],"UUPSUnauthorizedCallContext()":[{"details":"The call is from an unauthorized context."}],"UUPSUnsupportedProxiableUUID(bytes32)":[{"details":"The storage `slot` is unsupported as a UUID."}]},"events":{"Initialized(uint64)":{"details":"Triggered when the contract has been initialized or reinitialized."},"Upgraded(address)":{"details":"Emitted when the implementation is upgraded."}},"kind":"dev","methods":{"addLiquidity(uint256[],address,address)":{"details":"Adds liquidity to a BaluniV1Pool.","params":{"amounts":"An array of amounts for each asset to add as liquidity."}},"batchSwap(address[],address[],uint256[],address[])":{"details":"Performs batch swaps between multiple token pairs.","params":{"amounts":"An array of amounts representing the amounts to swap.","fromTokens":"An array of addresses representing the tokens to swap from.","receivers":"An array of addresses representing the receivers of the swapped tokens.","toTokens":"An array of addresses representing the tokens to swap to."},"returns":{"_0":"An array of amounts representing the amounts of tokens received after the swaps."}},"changePoolFactory(address)":{"details":"Changes the address of the pool factory contract. Can only be called by the contract owner.","params":{"_poolFactory":"The new address of the pool factory contract."}},"getAmountOut(address,address,uint256)":{"details":"Gets the amount of tokens received after a swap in a BaluniV1Pool.","params":{"amount":"The amount of tokens to swap.","fromToken":"The address of the token to swap from.","toToken":"The address of the token to swap to."},"returns":{"_0":"The amount of tokens received after the swap."}},"getPoolsContainingToken(address)":{"details":"Returns an array of pool addresses that contain the given token.","params":{"token":"The address of the token to search for."},"returns":{"_0":"An array of pool addresses."}},"getVersion()":{"details":"Returns the version of the contract.","returns":{"_0":"The version string."}},"initialize(address)":{"details":"Initializes the contract by setting the pool factory address.","params":{"_poolFactory":"The address of the BaluniV1PoolFactory contract."}},"owner()":{"details":"Returns the address of the current owner."},"performRebalanceIfNeeded(address)":{"details":"Performs rebalance if needed for the given tokens.","params":{"poolAddress":"The address of the token pool to rebalance."}},"proxiableUUID()":{"details":"Implementation of the ERC1822 {proxiableUUID} function. This returns the storage slot used by the implementation. It is used to validate the implementation's compatibility when performing an upgrade. IMPORTANT: A proxy pointing at a proxiable contract should not be considered proxiable itself, because this risks bricking a proxy that upgrades to it, by delegating to itself until out of gas. Thus it is critical that this function revert if invoked through a proxy. This is guaranteed by the `notDelegated` modifier."},"reinitialize(address,uint64)":{"details":"Initializes the contract by setting the pool factory address.","params":{"_poolFactory":"The address of the BaluniV1PoolFactory contract."}},"removeLiquidity(uint256,address,address)":{"details":"Removes liquidity from a BaluniV1Pool.","params":{"poolAddress":"The address of the BaluniV1Pool.","share":"The amount of liquidity tokens to remove."}},"renounceOwnership()":{"details":"Leaves the contract without owner. It will not be possible to call `onlyOwner` functions. Can only be called by the current owner. NOTE: Renouncing ownership will leave the contract without an owner, thereby disabling any functionality that is only available to the owner."},"swap(address,address,uint256,address)":{"details":"Swaps tokens in a BaluniV1Pool.","params":{"amount":"The amount of tokens to swap.","fromToken":"The address of the token to swap from.","toToken":"The address of the token to swap to."},"returns":{"_0":"The amount of tokens received after the swap."}},"transferOwnership(address)":{"details":"Transfers ownership of the contract to a new account (`newOwner`). Can only be called by the current owner."},"upgradeToAndCall(address,bytes)":{"custom:oz-upgrades-unsafe-allow-reachable":"delegatecall","details":"Upgrade the implementation of the proxy to `newImplementation`, and subsequently execute the function call encoded in `data`. Calls {_authorizeUpgrade}. Emits an {Upgraded} event."}},"title":"BaluniV1PoolPeriphery","version":1},"evm":{"bytecode":{"linkReferences":{},"object":"60a08060405234602957306080526136e9908161002e82396080518181816123ed015261250e0152f35b5f80fdfe6080806040526004361015610012575f80fd5b5f905f3560e01c9081630d8e6e2c14612a1c575080633e99c1e4146129ce5780634056c37f146129555780634219dc40146129055780634aa06652146127735780634f1ef2861461246757806352d1902d146123a85780635568081a146121905780636e81221c14611eb3578063715018a614611df557806372591be514611d755780637442eca6146118615780638628991e146117e85780638da5cb5b146117775780638f2248bc14611621578063ad3cb1cc14611532578063ad41426314611311578063ae3cce1c1461121f578063c4d66de81461102b578063e74e9b0614610a2d578063ec0cd2eb146107bc578063f2fde38b146107715763f31abcc41461011b575f80fd5b3461076e5760607ffffffffffffffffffffffffffffffffffffffffffffffffffffffffffffffffc36011261076e5760043590610156612aa0565b61015e612ac3565b918315610710576040517fdd62ed3e0000000000000000000000000000000000000000000000000000000081523360048201523060248201526020939073ffffffffffffffffffffffffffffffffffffffff848116918681604481865afa9081156105be5790889186916106df575b501061068157604051947f70a08231000000000000000000000000000000000000000000000000000000009788875233600488015260249688818981885afa90811561067657908992918891610643575b509261022f8261028c951015612e4e565b6040517f23b872dd00000000000000000000000000000000000000000000000000000000815233600482015273ffffffffffffffffffffffffffffffffffffffff9091166024820152604481019190915291829081906064820190565b038188875af19081156105be578591610626575b50156105c957604051917f89afcb4400000000000000000000000000000000000000000000000000000000835281841660048401528483878183855af19283156105be57859361059a575b50604051907f67e4ac2c0000000000000000000000000000000000000000000000000000000082528582600481845afa91821561058f57869261056b575b50855b825181101561056757836103408285612d44565b5116898b8a6040518094819382523060048301525afa9081156104ce578891610536575b5061036f8287612d44565b51116104d95761037f8186612d44565b5182885260018a5260408820856103968487612d44565b51165f528a526103ab60405f20918254612f3d565b905561042489856103bc8487612d44565b51166103c88489612d44565b5190898b6040518096819582947fa9059cbb000000000000000000000000000000000000000000000000000000008452600484016020909392919373ffffffffffffffffffffffffffffffffffffffff60408201951681520152565b03925af19081156104ce5788916104a1575b50156104445760010161032c565b60648960158a604051927f08c379a000000000000000000000000000000000000000000000000000000000845260048401528201527f4173736574207472616e73666572206661696c656400000000000000000000006044820152fd5b6104c191508a3d8c116104c7575b6104b98183612b21565b810190612f18565b5f610436565b503d6104af565b6040513d8a823e3d90fd5b60648960168a604051927f08c379a000000000000000000000000000000000000000000000000000000000845260048401528201527f496e73756666696369656e74204c6971756964697479000000000000000000006044820152fd5b90508981813d8311610560575b61054d8183612b21565b8101031261055c57515f610364565b5f80fd5b503d610543565b8680f35b6105889192503d8088833e6105808183612b21565b810190612c73565b905f610329565b6040513d88823e3d90fd5b6105b79193503d8087833e6105af8183612b21565b810190612f4a565b915f6102eb565b6040513d87823e3d90fd5b606486600f87604051927f08c379a000000000000000000000000000000000000000000000000000000000845260048401528201527f5472616e73666572206661696c656400000000000000000000000000000000006044820152fd5b61063d9150873d89116104c7576104b98183612b21565b5f6102a0565b83819492503d831161066f575b61065a8183612b21565b8101031261055c57905188919061022f61021e565b503d610650565b6040513d89823e3d90fd5b606486604051907f08c379a00000000000000000000000000000000000000000000000000000000082526004820152601660248201527f496e73756666696369656e7420616c6c6f77616e6365000000000000000000006044820152fd5b809250888092503d8311610709575b6106f88183612b21565b8101031261055c578790515f6101cd565b503d6106ee565b60646040517f08c379a000000000000000000000000000000000000000000000000000000000815260206004820152601f60248201527f5368617265206d7573742062652067726561746572207468616e207a65726f006044820152fd5b80fd5b503461076e5760207ffffffffffffffffffffffffffffffffffffffffffffffffffffffffffffffffc36011261076e576107b96107ac612a7d565b6107b46130b6565b612ff5565b80f35b503461076e5760607ffffffffffffffffffffffffffffffffffffffffffffffffffffffffffffffffc36011261076e5760043567ffffffffffffffff8111610a295761080c903690600401612c09565b9082610816612aa0565b61081e612ac3565b9373ffffffffffffffffffffffffffffffffffffffff809216916040517f67e4ac2c0000000000000000000000000000000000000000000000000000000081528481600481875afa9081156105be578591610a0f575b508495945b815181101561094d5795868361089183989985612d44565b511661089e82878b612fc4565b3587845261091160209283926001845260408720825f52845260405f206108c6828254612f30565b90556040517f23b872dd000000000000000000000000000000000000000000000000000000008152336004820152306024820152604481019190915295869283919082906064820190565b03925af19283156104ce5760019361092f575b505001959495610879565b8161094592903d106104c7576104b98183612b21565b505f80610924565b5050604051957fde836ebd000000000000000000000000000000000000000000000000000000008752166004860152604060248601528060448601527f07ffffffffffffffffffffffffffffffffffffffffffffffffffffffffffffff8111610a0b576020936064868095819460051b80918484013781010301925af18015610a00576109d8575080f35b602090813d83116109f9575b6109ee8183612b21565b8101031261055c5780f35b503d6109e4565b6040513d84823e3d90fd5b8380fd5b610a2391503d8087833e6105808183612b21565b5f610874565b5080fd5b503461076e5760807ffffffffffffffffffffffffffffffffffffffffffffffffffffffffffffffffc36011261076e5767ffffffffffffffff60043581811161102757610a7e903690600401612c09565b9160243581811161102357610a97903690600401612c09565b91909360443582811161101f57610ab2903690600401612c09565b95909260643590811161101b57610acd903690600401612c09565b91909285811480611012575b80611009575b15610fab57610aed81612cf5565b97895b828110610b095760405180610b058c82612ae6565b0390f35b80610b23610b1b610bbb93858b612fc4565b351515612eb3565b8b60208a8c610b61610b5586610b5a610b55828d73ffffffffffffffffffffffffffffffffffffffff8b541697612fc4565b612fd4565b948c612fc4565b6040517f2d5e94a700000000000000000000000000000000000000000000000000000000815273ffffffffffffffffffffffffffffffffffffffff9384166004820152921660248301529094859190829081906044820190565b03915afa928315610f9e5784868d8c938597610f2b575b5085610c509373ffffffffffffffffffffffffffffffffffffffff610c01610b558460209997610c0897612fc4565b1693612fc4565b6040517f23b872dd0000000000000000000000000000000000000000000000000000000081523360048201523060248201529035604482015293849283919082906064820190565b03925af18015610f2057610f01575b50610c6b81858c612fc4565b610c7490612fd4565b918c610c81838c89612fc4565b610c8a90612fd4565b610c9584878d612fc4565b3590610ca2858b8d612fc4565b610cab90612fd4565b6040517f6e81221c00000000000000000000000000000000000000000000000000000000815273ffffffffffffffffffffffffffffffffffffffff97881660048201529187166024830152604482019290925294166064850152838060848101038173ffffffffffffffffffffffffffffffffffffffff8516935a94602095f1908d8215610ef557888c898f948a8f968f978c90889a610e96575b610e529c508b610df997610b55978b73ffffffffffffffffffffffffffffffffffffffff60209f9e9d9c9899859a829983610da7610b558a610d8f81610df29f610b559f612fc4565b35958488168a52604060019a60208c90522095612fc4565b165f52602052610dbc60405f20918254612f30565b9055168c528e5260408b2086610dd6610b55868686612fc4565b165f528e528c610deb60405f20918254612f3d565b9055612fc4565b1695612fc4565b906040518097819582947fa9059cbb000000000000000000000000000000000000000000000000000000008452600484016020909392919373ffffffffffffffffffffffffffffffffffffffff60408201951681520152565b03925af1918215610e8b57600192610e6c575b5001610af0565b610e849060203d6020116104c7576104b98183612b21565b505f610e65565b6040513d8e823e3d90fd5b50505050955050505050506020833d602011610eed575b81610eba60209383612b21565b8101031261055c578c8881878e868f8f99828f928f8e918394918492519d9750979450979498505090508b989798610d46565b3d9150610ead565b604051903d90823e3d90fd5b610f199060203d6020116104c7576104b98183612b21565b505f610c5f565b6040513d8f823e3d90fd5b9650505050506020833d602011610f96575b81610f4a60209383612b21565b8101031261076e576020610c508a610c08858f9773ffffffffffffffffffffffffffffffffffffffff610c01610b55848e610f858f96612c52565b9d9750979950505050509350610bd2565b3d9150610f3d565b50604051903d90823e3d90fd5b60646040517f08c379a000000000000000000000000000000000000000000000000000000000815260206004820152601c60248201527f496e70757420617272617973206c656e677468206d69736d61746368000000006044820152fd5b50828814610adf565b50878614610ad9565b8780fd5b8680fd5b8480fd5b8280fd5b503461076e5760207ffffffffffffffffffffffffffffffffffffffffffffffffffffffffffffffffc36011261076e57611063612a7d565b7ff0c57e16840df040f15088dc2f81fe391c3923bec73e23a9662efc9c229c6a0090815460ff8160401c16159167ffffffffffffffff821680159081611217575b600114908161120d575b159081611204575b506111da57818360017fffffffffffffffffffffffffffffffffffffffffffffffff000000000000000073ffffffffffffffffffffffffffffffffffffffff95161786556111a5575b506111086135ba565b6111106135ba565b6111186135ba565b61112133612ff5565b167fffffffffffffffffffffffff0000000000000000000000000000000000000000845416178355611151575080f35b7fffffffffffffffffffffffffffffffffffffffffffffff00ffffffffffffffff81541690557fc7f505b2f371ae2175ee4913f4499e1f2633a7b5936321eed1cdaeb6115181d2602060405160018152a180f35b7fffffffffffffffffffffffffffffffffffffffffffffff00000000000000000016680100000000000000011784555f6110ff565b60046040517ff92ee8a9000000000000000000000000000000000000000000000000000000008152fd5b9050155f6110b6565b303b1591506110ae565b8491506110a4565b503461076e576020807ffffffffffffffffffffffffffffffffffffffffffffffffffffffffffffffffc360112610a2957611258612a7d565b73ffffffffffffffffffffffffffffffffffffffff9280846024818354169460405195869384927fb4340e6a0000000000000000000000000000000000000000000000000000000084521660048301525afa918215610f9e5781926112f5575b506040519280840190808552835180925280604086019401925b8281106112df5785850386f35b83518716855293810193928101926001016112d2565b61130a9192503d8084833e6105808183612b21565b905f6112b8565b503461076e5760407ffffffffffffffffffffffffffffffffffffffffffffffffffffffffffffffffc36011261076e57611349612a7d565b73ffffffffffffffffffffffffffffffffffffffff80611367612aa0565b169083604051937f0723c9990000000000000000000000000000000000000000000000000000000085528281166004860152818560248183885af1948515610a00578295611516575b50604051947f67e4ac2c0000000000000000000000000000000000000000000000000000000086528286600481885afa95861561150b5783966114ef575b50825b86518110156114eb5780611406859284612d44565b51878352602090600182526040842088611420858d612d44565b51165f52825261143560405f20918254612f30565b9055806114b288611446858d612d44565b51166114528588612d44565b516040517f23b872dd00000000000000000000000000000000000000000000000000000000815273ffffffffffffffffffffffffffffffffffffffff8a166004820152306024820152604481019190915295869283919082906064820190565b03925af192831561058f576001936114cd575b5050016113f1565b816114e392903d106104c7576104b98183612b21565b505f806114c5565b8380f35b6115049196503d8085833e6105808183612b21565b945f6113ee565b6040513d85823e3d90fd5b61152b9195503d8084833e6105af8183612b21565b935f6113b0565b503461076e57807ffffffffffffffffffffffffffffffffffffffffffffffffffffffffffffffffc36011261076e57604051604081019080821067ffffffffffffffff8311176115f4576040918252600581527fffffffffffffffffffffffffffffffffffffffffffffffffffffffffffffffe0601f602083017f352e302e3000000000000000000000000000000000000000000000000000000081528451958694602086525180928160208801528787015e85828601015201168101030190f35b7f4e487b71000000000000000000000000000000000000000000000000000000005f52604160045260245ffd5b503461076e5760407ffffffffffffffffffffffffffffffffffffffffffffffffffffffffffffffffc36011261076e57611659612a7d565b6024359067ffffffffffffffff91828116809103610a0b577ff0c57e16840df040f15088dc2f81fe391c3923bec73e23a9662efc9c229c6a008054938260ff8660401c1691821561176a575b50506111da577fffffffffffffffffffffffffffffffffffffffffffffff00ffffffffffffffff68010000000000000000837fffffffffffffffffffffffffffffffffffffffffffffff0000000000000000007fc7f505b2f371ae2175ee4913f4499e1f2633a7b5936321eed1cdaeb6115181d29773ffffffffffffffffffffffffffffffffffffffff602098167fffffffffffffffffffffffff00000000000000000000000000000000000000005f5416175f55161717169055604051908152a180f35b861610159050825f6116a5565b503461076e57807ffffffffffffffffffffffffffffffffffffffffffffffffffffffffffffffffc36011261076e57602073ffffffffffffffffffffffffffffffffffffffff7f9016d09d72d40fdae2fd8ceac6b6234c7706214fd39c1cd1e609a0528c1993005416604051908152f35b503461076e5760407ffffffffffffffffffffffffffffffffffffffffffffffffffffffffffffffffc36011261076e57611820612a7d565b604061182a612aa0565b9273ffffffffffffffffffffffffffffffffffffffff809316815260016020522091165f52602052602060405f2054604051908152f35b503461076e5761188b9061187436612b9c565b939190809591611885821515612eb3565b84613153565b91825115611d17576040517f23b872dd0000000000000000000000000000000000000000000000000000000081523360048201523060248201526044810186905260209573ffffffffffffffffffffffffffffffffffffffff9591878160648188888c165af180156105be57611cfa575b509195835b8551851015611cf157866119158688612d44565b511697604051977f67e4ac2c00000000000000000000000000000000000000000000000000000000895282896004818d5afa98891561150b578399611cd5575b5061196b81611964898b612d44565b5116612d85565b988399845b8251811015611cc657836119848285612d44565b5116848616141580611cb3575b61199d57600101611970565b90508299989793949a506119b091612d44565b5116915b878316918215611c5557848b604051918280927fb2b55d7000000000000000000000000000000000000000000000000000000000825287600483015260249485915afa908115610e8b579083918d91611c24575b5010611ba1578851907fffffffffffffffffffffffffffffffffffffffffffffffffffffffffffffffff8201918211611b765750611abb8b9c87928d9b9c9d508a145f14611b7057885b6040517f6e81221c00000000000000000000000000000000000000000000000000000000815273ffffffffffffffffffffffffffffffffffffffff8088166004830152808a1660248301526044820187905290911660648201529d8e9283919082906084820190565b03925af19a8b156104ce57889b611b38575b509060019392918a611adf898c612d44565b5116895284918287528b60408b2091165f528652611b0260405f20918254612f30565b905589611b0f888b612d44565b51168852845260408720905f52835260405f20611b2d8a8254612f3d565b905597930193611901565b939291909a508484813d8311611b69575b611b538183612b21565b8101031261055c57600193519a90919293611acd565b503d611b49565b30611a52565b8b7f4e487b710000000000000000000000000000000000000000000000000000000081526011600452fd5b856027608492604051927f08c379a000000000000000000000000000000000000000000000000000000000845260048401528201527f496e73756666696369656e74206c697175696469747920696e20706f6f6c206660448201527f6f722073776170000000000000000000000000000000000000000000000000006064820152fd5b809250888092503d8311611c4e575b611c3d8183612b21565b8101031261055c578290515f611a08565b503d611c33565b606485604051907f08c379a00000000000000000000000000000000000000000000000000000000082526004820152601960248201527f4e6f2076616c6964206e65787420746f6b656e20666f756e64000000000000006044820152fd5b50611cbe8183612d44565b511515611991565b505050969594909791976119b4565b611cea9199503d8085833e6105808183612b21565b975f611955565b50604051838152f35b611d1090883d8a116104c7576104b98183612b21565b505f6118fc565b60646040517f08c379a000000000000000000000000000000000000000000000000000000000815260206004820152600e60248201527f4e6f20726f75746520666f756e640000000000000000000000000000000000006044820152fd5b503461076e5760207ffffffffffffffffffffffffffffffffffffffffffffffffffffffffffffffffc36011261076e5773ffffffffffffffffffffffffffffffffffffffff611dc2612a7d565b611dca6130b6565b167fffffffffffffffffffffffff00000000000000000000000000000000000000005f5416175f5580f35b503461076e57807ffffffffffffffffffffffffffffffffffffffffffffffffffffffffffffffffc36011261076e57611e2c6130b6565b5f73ffffffffffffffffffffffffffffffffffffffff7f9016d09d72d40fdae2fd8ceac6b6234c7706214fd39c1cd1e609a0528c1993008054907fffffffffffffffffffffffff000000000000000000000000000000000000000082169055167f8be0079c531659141344cd1fd0a4f28419497f9722a3daafe3b4186f6b6457e08280a380f35b503461076e57611ec236612b9c565b611ed182939495921515612eb3565b81546040517f2d5e94a700000000000000000000000000000000000000000000000000000000815273ffffffffffffffffffffffffffffffffffffffff87811660048301528681166024830152602097909290919088908290604490829087165afa9081156105be579083918691612158575b506040517f23b872dd000000000000000000000000000000000000000000000000000000008152336004820152306024820152604481018890529116918381169189816064818a875af18015610676578893928b928b9261213b575b506040517f6e81221c00000000000000000000000000000000000000000000000000000000815273ffffffffffffffffffffffffffffffffffffffff91821660048201529181166024830152604482019990995297861660648901528760848189875af196871561058f579089959493929187986120f9575b5091879893916120c29895938289526001885260408920905f52875261204460405f20918254612f30565b905586526001855260408620921691825f52845260405f20612067848254612f3d565b9055846040518097819582947fa9059cbb000000000000000000000000000000000000000000000000000000008452600484016020909392919373ffffffffffffffffffffffffffffffffffffffff60408201951681520152565b03925af1908115610ef557506120dc575b50604051908152f35b6120f290833d85116104c7576104b98183612b21565b505f6120d3565b8681979296949950999492993d8311612134575b6121178183612b21565b8101031261055c576120c296899551979891939894909294612019565b503d61210d565b61215190843d86116104c7576104b98183612b21565b505f611fa0565b809250898092503d8311612189575b6121718183612b21565b81010312611023576121838391612c52565b5f611f44565b503d612167565b503461055c576020807ffffffffffffffffffffffffffffffffffffffffffffffffffffffffffffffffc36011261055c5773ffffffffffffffffffffffffffffffffffffffff6121de612a7d565b16906040517f70a082310000000000000000000000000000000000000000000000000000000081523360048201528181602481865afa9081156122e6575f9161237b575b506040517f18160ddd0000000000000000000000000000000000000000000000000000000081528281600481875afa9283156122e6575f9361234b575b50506127109081810291818304149015171561231e5781156122f15761228a91606491041015612e4e565b803b1561055c575f80916004604051809481937ff47b45e80000000000000000000000000000000000000000000000000000000083525af180156122e6576122d0575080f35b905067ffffffffffffffff81116115f457604052005b6040513d5f823e3d90fd5b7f4e487b71000000000000000000000000000000000000000000000000000000005f52601260045260245ffd5b7f4e487b71000000000000000000000000000000000000000000000000000000005f52601160045260245ffd5b9080929350813d8311612374575b6123638183612b21565b8101031261055c5751905f8061225f565b503d612359565b90508181813d83116123a1575b6123928183612b21565b8101031261055c57515f612222565b503d612388565b3461055c575f7ffffffffffffffffffffffffffffffffffffffffffffffffffffffffffffffffc36011261055c5773ffffffffffffffffffffffffffffffffffffffff7f000000000000000000000000000000000000000000000000000000000000000016300361243d5760206040517f360894a13ba1a3210667c828492db98dca3e2076cc3735a920a3ca505d382bbc8152f35b60046040517fe07c8dba000000000000000000000000000000000000000000000000000000008152fd5b60407ffffffffffffffffffffffffffffffffffffffffffffffffffffffffffffffffc36011261055c57612499612a7d565b602490813567ffffffffffffffff811161055c573660238201121561055c5780600401356124c681612b62565b926124d46040519485612b21565b818452602091828501933687838301011161055c57815f928886930187378601015273ffffffffffffffffffffffffffffffffffffffff807f000000000000000000000000000000000000000000000000000000000000000016803014908115612745575b5061243d576125466130b6565b8116936040517f52d1902d0000000000000000000000000000000000000000000000000000000081528381600481895afa5f9181612716575b506125b4578686604051907f4c9c8ce30000000000000000000000000000000000000000000000000000000082526004820152fd5b8590877f360894a13ba1a3210667c828492db98dca3e2076cc3735a920a3ca505d382bbc918281036126e85750843b156126b95750817fffffffffffffffffffffffff0000000000000000000000000000000000000000825416179055604051907fbc7cd75a20ee27fd9adebab32041f755214dbc6bffa90cc0225b39da2e5c2d3b5f80a281511561268557505f61267a9481925190845af4903d1561267c573d61265e81612b62565b9061266c6040519283612b21565b81525f81943d92013e613613565b005b60609250613613565b93505050503461269157005b807fb398979f0000000000000000000000000000000000000000000000000000000060049252fd5b82604051907f4c9c8ce30000000000000000000000000000000000000000000000000000000082526004820152fd5b604051907faa1d49a40000000000000000000000000000000000000000000000000000000082526004820152fd5b9091508481813d831161273e575b61272e8183612b21565b8101031261055c5751908861257f565b503d612724565b9050817f360894a13ba1a3210667c828492db98dca3e2076cc3735a920a3ca505d382bbc5416141587612539565b3461055c5760607ffffffffffffffffffffffffffffffffffffffffffffffffffffffffffffffffc36011261055c576127aa612a7d565b6127b2612aa0565b5f546040517f2d5e94a700000000000000000000000000000000000000000000000000000000815273ffffffffffffffffffffffffffffffffffffffff84811660048301528381166024830152602094919285908490604490829085165afa9081156122e65785935f926128c8575b506040517f4aa0665200000000000000000000000000000000000000000000000000000000815273ffffffffffffffffffffffffffffffffffffffff938416600482015294909216602485015260448035908501528391829081606481015b0392165afa9081156122e6575f9161289b5750604051908152f35b90508181813d83116128c1575b6128b28183612b21565b8101031261055c5751826120d3565b503d6128a8565b8481959293503d83116128fe575b6128e08183612b21565b8101031261055c57612880936128f68694612c52565b919094612821565b503d6128d6565b3461055c575f7ffffffffffffffffffffffffffffffffffffffffffffffffffffffffffffffffc36011261055c57602073ffffffffffffffffffffffffffffffffffffffff5f5416604051908152f35b3461055c5760407ffffffffffffffffffffffffffffffffffffffffffffffffffffffffffffffffc36011261055c5761298c612a7d565b612994612aa0565b9073ffffffffffffffffffffffffffffffffffffffff8091165f52600160205260405f2091165f52602052602060405f2054604051908152f35b3461055c5760207ffffffffffffffffffffffffffffffffffffffffffffffffffffffffffffffffc36011261055c57610b05612a10612a0b612a7d565b612d85565b60405191829182612ae6565b3461055c575f7ffffffffffffffffffffffffffffffffffffffffffffffffffffffffffffffffc36011261055c5760209067ffffffffffffffff7ff0c57e16840df040f15088dc2f81fe391c3923bec73e23a9662efc9c229c6a0054168152f35b6004359073ffffffffffffffffffffffffffffffffffffffff8216820361055c57565b6024359073ffffffffffffffffffffffffffffffffffffffff8216820361055c57565b6044359073ffffffffffffffffffffffffffffffffffffffff8216820361055c57565b60209060206040818301928281528551809452019301915f5b828110612b0d575050505090565b835185529381019392810192600101612aff565b90601f7fffffffffffffffffffffffffffffffffffffffffffffffffffffffffffffffe0910116810190811067ffffffffffffffff8211176115f457604052565b67ffffffffffffffff81116115f457601f017fffffffffffffffffffffffffffffffffffffffffffffffffffffffffffffffe01660200190565b7ffffffffffffffffffffffffffffffffffffffffffffffffffffffffffffffffc608091011261055c5773ffffffffffffffffffffffffffffffffffffffff90600435828116810361055c5791602435818116810361055c579160443591606435908116810361055c5790565b9181601f8401121561055c5782359167ffffffffffffffff831161055c576020808501948460051b01011161055c57565b67ffffffffffffffff81116115f45760051b60200190565b519073ffffffffffffffffffffffffffffffffffffffff8216820361055c57565b602090818184031261055c5780519067ffffffffffffffff821161055c57019180601f8401121561055c578251612ca981612c3a565b93612cb76040519586612b21565b818552838086019260051b82010192831161055c578301905b828210612cde575050505090565b838091612cea84612c52565b815201910190612cd0565b90612cff82612c3a565b612d0c6040519182612b21565b8281527fffffffffffffffffffffffffffffffffffffffffffffffffffffffffffffffe0612d3a8294612c3a565b0190602036910137565b8051821015612d585760209160051b010190565b7f4e487b71000000000000000000000000000000000000000000000000000000005f52603260045260245ffd5b9073ffffffffffffffffffffffffffffffffffffffff809216604092604051907f67e4ac2c0000000000000000000000000000000000000000000000000000000082525f82600481865afa9182156122e6575f92612e32575b50612de98251612cf5565b925f5b8351811015612e2957600190825f526020828152885f209085612e0f8489612d44565b51165f5252875f2054612e228288612d44565b5201612dec565b50929450505050565b612e479192503d805f833e6105808183612b21565b905f612dde565b15612e5557565b60646040517f08c379a000000000000000000000000000000000000000000000000000000000815260206004820152601460248201527f496e73756666696369656e742062616c616e63650000000000000000000000006044820152fd5b15612eba57565b60646040517f08c379a000000000000000000000000000000000000000000000000000000000815260206004820152602060248201527f416d6f756e74206d7573742062652067726561746572207468616e207a65726f6044820152fd5b9081602091031261055c5751801515810361055c5790565b9190820180921161231e57565b9190820391821161231e57565b602090818184031261055c5780519067ffffffffffffffff821161055c57019180601f8401121561055c578251612f8081612c3a565b93612f8e6040519586612b21565b818552838086019260051b82010192831161055c578301905b828210612fb5575050505090565b81518152908301908301612fa7565b9190811015612d585760051b0190565b3573ffffffffffffffffffffffffffffffffffffffff8116810361055c5790565b73ffffffffffffffffffffffffffffffffffffffff809116908115613086577f9016d09d72d40fdae2fd8ceac6b6234c7706214fd39c1cd1e609a0528c199300805490837fffffffffffffffffffffffff00000000000000000000000000000000000000008316179055167f8be0079c531659141344cd1fd0a4f28419497f9722a3daafe3b4186f6b6457e05f80a3565b60246040517f1e4fbdf70000000000000000000000000000000000000000000000000000000081525f6004820152fd5b73ffffffffffffffffffffffffffffffffffffffff7f9016d09d72d40fdae2fd8ceac6b6234c7706214fd39c1cd1e609a0528c199300541633036130f657565b60246040517f118cdaa7000000000000000000000000000000000000000000000000000000008152336004820152fd5b7fffffffffffffffffffffffffffffffffffffffffffffffffffffffffffffffff811461231e5760010190565b73ffffffffffffffffffffffffffffffffffffffff60045f82815416604051928380927fd88ff1f40000000000000000000000000000000000000000000000000000000082525afa9081156122e6575f916133e0575b508051936131b685612cf5565b915f936131c287612c3a565b926131d06040519485612b21565b8784527fffffffffffffffffffffffffffffffffffffffffffffffffffffffffffffffe06131fd89612c3a565b0136602086013761320d88612cf5565b965f600191895115612d5857841660208a01525b81811061325a5750505050505050505050506040516020810181811067ffffffffffffffff8211176115f4576040525f81525f36813790565b8361326e61326783613126565b928b612d44565b51168484168114613399575f5b8b8110613289575050613221565b6132938189612d44565b51156132a2575b60010161327b565b856132ad8289612d44565b5116604051907f67e4ac2c0000000000000000000000000000000000000000000000000000000082525f82600481845afa9081156122e6578f85935f9361337d575b50836132fb81856133fa565b928361336b575b505050613311575b505061329a565b9061331b9161350d565b86613326838a612d44565b51166133318c613126565b9b61333c908c612d44565b52868c61334887613126565b9661335291612d44565b911690526133608189612d44565b60019052815f61330a565b6133759350613447565b8f835f613302565b6133929193503d805f833e6105808183612b21565b915f6132ef565b5050505094505050935091506133ae82612cf5565b925f5b8381106133bf575050505090565b80836133cd60019385612d44565b51166133d98288612d44565b52016133b1565b6133f491503d805f833e6105808183612b21565b5f6131a9565b905f5b82518110156134405773ffffffffffffffffffffffffffffffffffffffff806134268386612d44565b511690831614613438576001016133fd565b505050600190565b5050505f90565b6004929173ffffffffffffffffffffffffffffffffffffffff809216915f61346e84612d85565b93604051968780927f67e4ac2c0000000000000000000000000000000000000000000000000000000082525afa9485156122e6575f956134f1575b505f5b85518110156134e757816134c08288612d44565b5116828416146134d2576001016134ac565b929150506134e1929350612d44565b51101590565b5050505050505f90565b6135069195503d805f833e6105808183612b21565b935f6134a9565b905f5b825181101561355c5773ffffffffffffffffffffffffffffffffffffffff806135398386612d44565b51168184160361354c5750600101613510565b926135579250612d44565b511690565b60646040517f08c379a000000000000000000000000000000000000000000000000000000000815260206004820152601760248201527f546f6b656e206e6f7420666f756e6420696e20706f6f6c0000000000000000006044820152fd5b60ff7ff0c57e16840df040f15088dc2f81fe391c3923bec73e23a9662efc9c229c6a005460401c16156135e957565b60046040517fd7e6bcf8000000000000000000000000000000000000000000000000000000008152fd5b90613652575080511561362857805190602001fd5b60046040517f1425ea42000000000000000000000000000000000000000000000000000000008152fd5b815115806136aa575b613663575090565b60249073ffffffffffffffffffffffffffffffffffffffff604051917f9996b315000000000000000000000000000000000000000000000000000000008352166004820152fd5b50803b1561365b56fea2646970667358221220623ed6678501a6aed735ec557d4bf3e4f2fbd7fe940f1f38395c9c0fc10d3ad564736f6c63430008190033","opcodes":"PUSH1 0xA0 DUP1 PUSH1 0x40 MSTORE CALLVALUE PUSH1 0x29 JUMPI ADDRESS PUSH1 0x80 MSTORE PUSH2 0x36E9 SWAP1 DUP2 PUSH2 0x2E DUP3 CODECOPY PUSH1 0x80 MLOAD DUP2 DUP2 DUP2 PUSH2 0x23ED ADD MSTORE PUSH2 0x250E ADD MSTORE RETURN JUMPDEST PUSH0 DUP1 REVERT INVALID PUSH1 0x80 DUP1 PUSH1 0x40 MSTORE PUSH1 0x4 CALLDATASIZE LT ISZERO PUSH2 0x12 JUMPI PUSH0 DUP1 REVERT JUMPDEST PUSH0 SWAP1 PUSH0 CALLDATALOAD PUSH1 0xE0 SHR SWAP1 DUP2 PUSH4 0xD8E6E2C EQ PUSH2 0x2A1C JUMPI POP DUP1 PUSH4 0x3E99C1E4 EQ PUSH2 0x29CE JUMPI DUP1 PUSH4 0x4056C37F EQ PUSH2 0x2955 JUMPI DUP1 PUSH4 0x4219DC40 EQ PUSH2 0x2905 JUMPI DUP1 PUSH4 0x4AA06652 EQ PUSH2 0x2773 JUMPI DUP1 PUSH4 0x4F1EF286 EQ PUSH2 0x2467 JUMPI DUP1 PUSH4 0x52D1902D EQ PUSH2 0x23A8 JUMPI DUP1 PUSH4 0x5568081A EQ PUSH2 0x2190 JUMPI DUP1 PUSH4 0x6E81221C EQ PUSH2 0x1EB3 JUMPI DUP1 PUSH4 0x715018A6 EQ PUSH2 0x1DF5 JUMPI DUP1 PUSH4 0x72591BE5 EQ PUSH2 0x1D75 JUMPI DUP1 PUSH4 0x7442ECA6 EQ PUSH2 0x1861 JUMPI DUP1 PUSH4 0x8628991E EQ PUSH2 0x17E8 JUMPI DUP1 PUSH4 0x8DA5CB5B EQ PUSH2 0x1777 JUMPI DUP1 PUSH4 0x8F2248BC EQ PUSH2 0x1621 JUMPI DUP1 PUSH4 0xAD3CB1CC EQ PUSH2 0x1532 JUMPI DUP1 PUSH4 0xAD414263 EQ PUSH2 0x1311 JUMPI DUP1 PUSH4 0xAE3CCE1C EQ PUSH2 0x121F JUMPI DUP1 PUSH4 0xC4D66DE8 EQ PUSH2 0x102B JUMPI DUP1 PUSH4 0xE74E9B06 EQ PUSH2 0xA2D JUMPI DUP1 PUSH4 0xEC0CD2EB EQ PUSH2 0x7BC JUMPI DUP1 PUSH4 0xF2FDE38B EQ PUSH2 0x771 JUMPI PUSH4 0xF31ABCC4 EQ PUSH2 0x11B JUMPI PUSH0 DUP1 REVERT JUMPDEST CALLVALUE PUSH2 0x76E JUMPI PUSH1 0x60 PUSH32 0xFFFFFFFFFFFFFFFFFFFFFFFFFFFFFFFFFFFFFFFFFFFFFFFFFFFFFFFFFFFFFFFC CALLDATASIZE ADD SLT PUSH2 0x76E JUMPI PUSH1 0x4 CALLDATALOAD SWAP1 PUSH2 0x156 PUSH2 0x2AA0 JUMP JUMPDEST PUSH2 0x15E PUSH2 0x2AC3 JUMP JUMPDEST SWAP2 DUP4 ISZERO PUSH2 0x710 JUMPI PUSH1 0x40 MLOAD PUSH32 0xDD62ED3E00000000000000000000000000000000000000000000000000000000 DUP2 MSTORE CALLER PUSH1 0x4 DUP3 ADD MSTORE ADDRESS PUSH1 0x24 DUP3 ADD MSTORE PUSH1 0x20 SWAP4 SWAP1 PUSH20 0xFFFFFFFFFFFFFFFFFFFFFFFFFFFFFFFFFFFFFFFF DUP5 DUP2 AND SWAP2 DUP7 DUP2 PUSH1 0x44 DUP2 DUP7 GAS STATICCALL SWAP1 DUP2 ISZERO PUSH2 0x5BE JUMPI SWAP1 DUP9 SWAP2 DUP7 SWAP2 PUSH2 0x6DF JUMPI JUMPDEST POP LT PUSH2 0x681 JUMPI PUSH1 0x40 MLOAD SWAP5 PUSH32 0x70A0823100000000000000000000000000000000000000000000000000000000 SWAP8 DUP9 DUP8 MSTORE CALLER PUSH1 0x4 DUP9 ADD MSTORE PUSH1 0x24 SWAP7 DUP9 DUP2 DUP10 DUP2 DUP9 GAS STATICCALL SWAP1 DUP2 ISZERO PUSH2 0x676 JUMPI SWAP1 DUP10 SWAP3 SWAP2 DUP9 SWAP2 PUSH2 0x643 JUMPI JUMPDEST POP SWAP3 PUSH2 0x22F DUP3 PUSH2 0x28C SWAP6 LT ISZERO PUSH2 0x2E4E JUMP JUMPDEST PUSH1 0x40 MLOAD PUSH32 0x23B872DD00000000000000000000000000000000000000000000000000000000 DUP2 MSTORE CALLER PUSH1 0x4 DUP3 ADD MSTORE PUSH20 0xFFFFFFFFFFFFFFFFFFFFFFFFFFFFFFFFFFFFFFFF SWAP1 SWAP2 AND PUSH1 0x24 DUP3 ADD MSTORE PUSH1 0x44 DUP2 ADD SWAP2 SWAP1 SWAP2 MSTORE SWAP2 DUP3 SWAP1 DUP2 SWAP1 PUSH1 0x64 DUP3 ADD SWAP1 JUMP JUMPDEST SUB DUP2 DUP9 DUP8 GAS CALL SWAP1 DUP2 ISZERO PUSH2 0x5BE JUMPI DUP6 SWAP2 PUSH2 0x626 JUMPI JUMPDEST POP ISZERO PUSH2 0x5C9 JUMPI PUSH1 0x40 MLOAD SWAP2 PUSH32 0x89AFCB4400000000000000000000000000000000000000000000000000000000 DUP4 MSTORE DUP2 DUP5 AND PUSH1 0x4 DUP5 ADD MSTORE DUP5 DUP4 DUP8 DUP2 DUP4 DUP6 GAS CALL SWAP3 DUP4 ISZERO PUSH2 0x5BE JUMPI DUP6 SWAP4 PUSH2 0x59A JUMPI JUMPDEST POP PUSH1 0x40 MLOAD SWAP1 PUSH32 0x67E4AC2C00000000000000000000000000000000000000000000000000000000 DUP3 MSTORE DUP6 DUP3 PUSH1 0x4 DUP2 DUP5 GAS STATICCALL SWAP2 DUP3 ISZERO PUSH2 0x58F JUMPI DUP7 SWAP3 PUSH2 0x56B JUMPI JUMPDEST POP DUP6 JUMPDEST DUP3 MLOAD DUP2 LT ISZERO PUSH2 0x567 JUMPI DUP4 PUSH2 0x340 DUP3 DUP6 PUSH2 0x2D44 JUMP JUMPDEST MLOAD AND DUP10 DUP12 DUP11 PUSH1 0x40 MLOAD DUP1 SWAP5 DUP2 SWAP4 DUP3 MSTORE ADDRESS PUSH1 0x4 DUP4 ADD MSTORE GAS STATICCALL SWAP1 DUP2 ISZERO PUSH2 0x4CE JUMPI DUP9 SWAP2 PUSH2 0x536 JUMPI JUMPDEST POP PUSH2 0x36F DUP3 DUP8 PUSH2 0x2D44 JUMP JUMPDEST MLOAD GT PUSH2 0x4D9 JUMPI PUSH2 0x37F DUP2 DUP7 PUSH2 0x2D44 JUMP JUMPDEST MLOAD DUP3 DUP9 MSTORE PUSH1 0x1 DUP11 MSTORE PUSH1 0x40 DUP9 KECCAK256 DUP6 PUSH2 0x396 DUP5 DUP8 PUSH2 0x2D44 JUMP JUMPDEST MLOAD AND PUSH0 MSTORE DUP11 MSTORE PUSH2 0x3AB PUSH1 0x40 PUSH0 KECCAK256 SWAP2 DUP3 SLOAD PUSH2 0x2F3D JUMP JUMPDEST SWAP1 SSTORE PUSH2 0x424 DUP10 DUP6 PUSH2 0x3BC DUP5 DUP8 PUSH2 0x2D44 JUMP JUMPDEST MLOAD AND PUSH2 0x3C8 DUP5 DUP10 PUSH2 0x2D44 JUMP JUMPDEST MLOAD SWAP1 DUP10 DUP12 PUSH1 0x40 MLOAD DUP1 SWAP7 DUP2 SWAP6 DUP3 SWAP5 PUSH32 0xA9059CBB00000000000000000000000000000000000000000000000000000000 DUP5 MSTORE PUSH1 0x4 DUP5 ADD PUSH1 0x20 SWAP1 SWAP4 SWAP3 SWAP2 SWAP4 PUSH20 0xFFFFFFFFFFFFFFFFFFFFFFFFFFFFFFFFFFFFFFFF PUSH1 0x40 DUP3 ADD SWAP6 AND DUP2 MSTORE ADD MSTORE JUMP JUMPDEST SUB SWAP3 GAS CALL SWAP1 DUP2 ISZERO PUSH2 0x4CE JUMPI DUP9 SWAP2 PUSH2 0x4A1 JUMPI JUMPDEST POP ISZERO PUSH2 0x444 JUMPI PUSH1 0x1 ADD PUSH2 0x32C JUMP JUMPDEST PUSH1 0x64 DUP10 PUSH1 0x15 DUP11 PUSH1 0x40 MLOAD SWAP3 PUSH32 0x8C379A000000000000000000000000000000000000000000000000000000000 DUP5 MSTORE PUSH1 0x4 DUP5 ADD MSTORE DUP3 ADD MSTORE PUSH32 0x4173736574207472616E73666572206661696C65640000000000000000000000 PUSH1 0x44 DUP3 ADD MSTORE REVERT JUMPDEST PUSH2 0x4C1 SWAP2 POP DUP11 RETURNDATASIZE DUP13 GT PUSH2 0x4C7 JUMPI JUMPDEST PUSH2 0x4B9 DUP2 DUP4 PUSH2 0x2B21 JUMP JUMPDEST DUP2 ADD SWAP1 PUSH2 0x2F18 JUMP JUMPDEST PUSH0 PUSH2 0x436 JUMP JUMPDEST POP RETURNDATASIZE PUSH2 0x4AF JUMP JUMPDEST PUSH1 0x40 MLOAD RETURNDATASIZE DUP11 DUP3 RETURNDATACOPY RETURNDATASIZE SWAP1 REVERT JUMPDEST PUSH1 0x64 DUP10 PUSH1 0x16 DUP11 PUSH1 0x40 MLOAD SWAP3 PUSH32 0x8C379A000000000000000000000000000000000000000000000000000000000 DUP5 MSTORE PUSH1 0x4 DUP5 ADD MSTORE DUP3 ADD MSTORE PUSH32 0x496E73756666696369656E74204C697175696469747900000000000000000000 PUSH1 0x44 DUP3 ADD MSTORE REVERT JUMPDEST SWAP1 POP DUP10 DUP2 DUP2 RETURNDATASIZE DUP4 GT PUSH2 0x560 JUMPI JUMPDEST PUSH2 0x54D DUP2 DUP4 PUSH2 0x2B21 JUMP JUMPDEST DUP2 ADD SUB SLT PUSH2 0x55C JUMPI MLOAD PUSH0 PUSH2 0x364 JUMP JUMPDEST PUSH0 DUP1 REVERT JUMPDEST POP RETURNDATASIZE PUSH2 0x543 JUMP JUMPDEST DUP7 DUP1 RETURN JUMPDEST PUSH2 0x588 SWAP2 SWAP3 POP RETURNDATASIZE DUP1 DUP9 DUP4 RETURNDATACOPY PUSH2 0x580 DUP2 DUP4 PUSH2 0x2B21 JUMP JUMPDEST DUP2 ADD SWAP1 PUSH2 0x2C73 JUMP JUMPDEST SWAP1 PUSH0 PUSH2 0x329 JUMP JUMPDEST PUSH1 0x40 MLOAD RETURNDATASIZE DUP9 DUP3 RETURNDATACOPY RETURNDATASIZE SWAP1 REVERT JUMPDEST PUSH2 0x5B7 SWAP2 SWAP4 POP RETURNDATASIZE DUP1 DUP8 DUP4 RETURNDATACOPY PUSH2 0x5AF DUP2 DUP4 PUSH2 0x2B21 JUMP JUMPDEST DUP2 ADD SWAP1 PUSH2 0x2F4A JUMP JUMPDEST SWAP2 PUSH0 PUSH2 0x2EB JUMP JUMPDEST PUSH1 0x40 MLOAD RETURNDATASIZE DUP8 DUP3 RETURNDATACOPY RETURNDATASIZE SWAP1 REVERT JUMPDEST PUSH1 0x64 DUP7 PUSH1 0xF DUP8 PUSH1 0x40 MLOAD SWAP3 PUSH32 0x8C379A000000000000000000000000000000000000000000000000000000000 DUP5 MSTORE PUSH1 0x4 DUP5 ADD MSTORE DUP3 ADD MSTORE PUSH32 0x5472616E73666572206661696C65640000000000000000000000000000000000 PUSH1 0x44 DUP3 ADD MSTORE REVERT JUMPDEST PUSH2 0x63D SWAP2 POP DUP8 RETURNDATASIZE DUP10 GT PUSH2 0x4C7 JUMPI PUSH2 0x4B9 DUP2 DUP4 PUSH2 0x2B21 JUMP JUMPDEST PUSH0 PUSH2 0x2A0 JUMP JUMPDEST DUP4 DUP2 SWAP5 SWAP3 POP RETURNDATASIZE DUP4 GT PUSH2 0x66F JUMPI JUMPDEST PUSH2 0x65A DUP2 DUP4 PUSH2 0x2B21 JUMP JUMPDEST DUP2 ADD SUB SLT PUSH2 0x55C JUMPI SWAP1 MLOAD DUP9 SWAP2 SWAP1 PUSH2 0x22F PUSH2 0x21E JUMP JUMPDEST POP RETURNDATASIZE PUSH2 0x650 JUMP JUMPDEST PUSH1 0x40 MLOAD RETURNDATASIZE DUP10 DUP3 RETURNDATACOPY RETURNDATASIZE SWAP1 REVERT JUMPDEST PUSH1 0x64 DUP7 PUSH1 0x40 MLOAD SWAP1 PUSH32 0x8C379A000000000000000000000000000000000000000000000000000000000 DUP3 MSTORE PUSH1 0x4 DUP3 ADD MSTORE PUSH1 0x16 PUSH1 0x24 DUP3 ADD MSTORE PUSH32 0x496E73756666696369656E7420616C6C6F77616E636500000000000000000000 PUSH1 0x44 DUP3 ADD MSTORE REVERT JUMPDEST DUP1 SWAP3 POP DUP9 DUP1 SWAP3 POP RETURNDATASIZE DUP4 GT PUSH2 0x709 JUMPI JUMPDEST PUSH2 0x6F8 DUP2 DUP4 PUSH2 0x2B21 JUMP JUMPDEST DUP2 ADD SUB SLT PUSH2 0x55C JUMPI DUP8 SWAP1 MLOAD PUSH0 PUSH2 0x1CD JUMP JUMPDEST POP RETURNDATASIZE PUSH2 0x6EE JUMP JUMPDEST PUSH1 0x64 PUSH1 0x40 MLOAD PUSH32 0x8C379A000000000000000000000000000000000000000000000000000000000 DUP2 MSTORE PUSH1 0x20 PUSH1 0x4 DUP3 ADD MSTORE PUSH1 0x1F PUSH1 0x24 DUP3 ADD MSTORE PUSH32 0x5368617265206D7573742062652067726561746572207468616E207A65726F00 PUSH1 0x44 DUP3 ADD MSTORE REVERT JUMPDEST DUP1 REVERT JUMPDEST POP CALLVALUE PUSH2 0x76E JUMPI PUSH1 0x20 PUSH32 0xFFFFFFFFFFFFFFFFFFFFFFFFFFFFFFFFFFFFFFFFFFFFFFFFFFFFFFFFFFFFFFFC CALLDATASIZE ADD SLT PUSH2 0x76E JUMPI PUSH2 0x7B9 PUSH2 0x7AC PUSH2 0x2A7D JUMP JUMPDEST PUSH2 0x7B4 PUSH2 0x30B6 JUMP JUMPDEST PUSH2 0x2FF5 JUMP JUMPDEST DUP1 RETURN JUMPDEST POP CALLVALUE PUSH2 0x76E JUMPI PUSH1 0x60 PUSH32 0xFFFFFFFFFFFFFFFFFFFFFFFFFFFFFFFFFFFFFFFFFFFFFFFFFFFFFFFFFFFFFFFC CALLDATASIZE ADD SLT PUSH2 0x76E JUMPI PUSH1 0x4 CALLDATALOAD PUSH8 0xFFFFFFFFFFFFFFFF DUP2 GT PUSH2 0xA29 JUMPI PUSH2 0x80C SWAP1 CALLDATASIZE SWAP1 PUSH1 0x4 ADD PUSH2 0x2C09 JUMP JUMPDEST SWAP1 DUP3 PUSH2 0x816 PUSH2 0x2AA0 JUMP JUMPDEST PUSH2 0x81E PUSH2 0x2AC3 JUMP JUMPDEST SWAP4 PUSH20 0xFFFFFFFFFFFFFFFFFFFFFFFFFFFFFFFFFFFFFFFF DUP1 SWAP3 AND SWAP2 PUSH1 0x40 MLOAD PUSH32 0x67E4AC2C00000000000000000000000000000000000000000000000000000000 DUP2 MSTORE DUP5 DUP2 PUSH1 0x4 DUP2 DUP8 GAS STATICCALL SWAP1 DUP2 ISZERO PUSH2 0x5BE JUMPI DUP6 SWAP2 PUSH2 0xA0F JUMPI JUMPDEST POP DUP5 SWAP6 SWAP5 JUMPDEST DUP2 MLOAD DUP2 LT ISZERO PUSH2 0x94D JUMPI SWAP6 DUP7 DUP4 PUSH2 0x891 DUP4 SWAP9 SWAP10 DUP6 PUSH2 0x2D44 JUMP JUMPDEST MLOAD AND PUSH2 0x89E DUP3 DUP8 DUP12 PUSH2 0x2FC4 JUMP JUMPDEST CALLDATALOAD DUP8 DUP5 MSTORE PUSH2 0x911 PUSH1 0x20 SWAP3 DUP4 SWAP3 PUSH1 0x1 DUP5 MSTORE PUSH1 0x40 DUP8 KECCAK256 DUP3 PUSH0 MSTORE DUP5 MSTORE PUSH1 0x40 PUSH0 KECCAK256 PUSH2 0x8C6 DUP3 DUP3 SLOAD PUSH2 0x2F30 JUMP JUMPDEST SWAP1 SSTORE PUSH1 0x40 MLOAD PUSH32 0x23B872DD00000000000000000000000000000000000000000000000000000000 DUP2 MSTORE CALLER PUSH1 0x4 DUP3 ADD MSTORE ADDRESS PUSH1 0x24 DUP3 ADD MSTORE PUSH1 0x44 DUP2 ADD SWAP2 SWAP1 SWAP2 MSTORE SWAP6 DUP7 SWAP3 DUP4 SWAP2 SWAP1 DUP3 SWAP1 PUSH1 0x64 DUP3 ADD SWAP1 JUMP JUMPDEST SUB SWAP3 GAS CALL SWAP3 DUP4 ISZERO PUSH2 0x4CE JUMPI PUSH1 0x1 SWAP4 PUSH2 0x92F JUMPI JUMPDEST POP POP ADD SWAP6 SWAP5 SWAP6 PUSH2 0x879 JUMP JUMPDEST DUP2 PUSH2 0x945 SWAP3 SWAP1 RETURNDATASIZE LT PUSH2 0x4C7 JUMPI PUSH2 0x4B9 DUP2 DUP4 PUSH2 0x2B21 JUMP JUMPDEST POP PUSH0 DUP1 PUSH2 0x924 JUMP JUMPDEST POP POP PUSH1 0x40 MLOAD SWAP6 PUSH32 0xDE836EBD00000000000000000000000000000000000000000000000000000000 DUP8 MSTORE AND PUSH1 0x4 DUP7 ADD MSTORE PUSH1 0x40 PUSH1 0x24 DUP7 ADD MSTORE DUP1 PUSH1 0x44 DUP7 ADD MSTORE PUSH32 0x7FFFFFFFFFFFFFFFFFFFFFFFFFFFFFFFFFFFFFFFFFFFFFFFFFFFFFFFFFFFFFF DUP2 GT PUSH2 0xA0B JUMPI PUSH1 0x20 SWAP4 PUSH1 0x64 DUP7 DUP1 SWAP6 DUP2 SWAP5 PUSH1 0x5 SHL DUP1 SWAP2 DUP5 DUP5 ADD CALLDATACOPY DUP2 ADD SUB ADD SWAP3 GAS CALL DUP1 ISZERO PUSH2 0xA00 JUMPI PUSH2 0x9D8 JUMPI POP DUP1 RETURN JUMPDEST PUSH1 0x20 SWAP1 DUP2 RETURNDATASIZE DUP4 GT PUSH2 0x9F9 JUMPI JUMPDEST PUSH2 0x9EE DUP2 DUP4 PUSH2 0x2B21 JUMP JUMPDEST DUP2 ADD SUB SLT PUSH2 0x55C JUMPI DUP1 RETURN JUMPDEST POP RETURNDATASIZE PUSH2 0x9E4 JUMP JUMPDEST PUSH1 0x40 MLOAD RETURNDATASIZE DUP5 DUP3 RETURNDATACOPY RETURNDATASIZE SWAP1 REVERT JUMPDEST DUP4 DUP1 REVERT JUMPDEST PUSH2 0xA23 SWAP2 POP RETURNDATASIZE DUP1 DUP8 DUP4 RETURNDATACOPY PUSH2 0x580 DUP2 DUP4 PUSH2 0x2B21 JUMP JUMPDEST PUSH0 PUSH2 0x874 JUMP JUMPDEST POP DUP1 REVERT JUMPDEST POP CALLVALUE PUSH2 0x76E JUMPI PUSH1 0x80 PUSH32 0xFFFFFFFFFFFFFFFFFFFFFFFFFFFFFFFFFFFFFFFFFFFFFFFFFFFFFFFFFFFFFFFC CALLDATASIZE ADD SLT PUSH2 0x76E JUMPI PUSH8 0xFFFFFFFFFFFFFFFF PUSH1 0x4 CALLDATALOAD DUP2 DUP2 GT PUSH2 0x1027 JUMPI PUSH2 0xA7E SWAP1 CALLDATASIZE SWAP1 PUSH1 0x4 ADD PUSH2 0x2C09 JUMP JUMPDEST SWAP2 PUSH1 0x24 CALLDATALOAD DUP2 DUP2 GT PUSH2 0x1023 JUMPI PUSH2 0xA97 SWAP1 CALLDATASIZE SWAP1 PUSH1 0x4 ADD PUSH2 0x2C09 JUMP JUMPDEST SWAP2 SWAP1 SWAP4 PUSH1 0x44 CALLDATALOAD DUP3 DUP2 GT PUSH2 0x101F JUMPI PUSH2 0xAB2 SWAP1 CALLDATASIZE SWAP1 PUSH1 0x4 ADD PUSH2 0x2C09 JUMP JUMPDEST SWAP6 SWAP1 SWAP3 PUSH1 0x64 CALLDATALOAD SWAP1 DUP2 GT PUSH2 0x101B JUMPI PUSH2 0xACD SWAP1 CALLDATASIZE SWAP1 PUSH1 0x4 ADD PUSH2 0x2C09 JUMP JUMPDEST SWAP2 SWAP1 SWAP3 DUP6 DUP2 EQ DUP1 PUSH2 0x1012 JUMPI JUMPDEST DUP1 PUSH2 0x1009 JUMPI JUMPDEST ISZERO PUSH2 0xFAB JUMPI PUSH2 0xAED DUP2 PUSH2 0x2CF5 JUMP JUMPDEST SWAP8 DUP10 JUMPDEST DUP3 DUP2 LT PUSH2 0xB09 JUMPI PUSH1 0x40 MLOAD DUP1 PUSH2 0xB05 DUP13 DUP3 PUSH2 0x2AE6 JUMP JUMPDEST SUB SWAP1 RETURN JUMPDEST DUP1 PUSH2 0xB23 PUSH2 0xB1B PUSH2 0xBBB SWAP4 DUP6 DUP12 PUSH2 0x2FC4 JUMP JUMPDEST CALLDATALOAD ISZERO ISZERO PUSH2 0x2EB3 JUMP JUMPDEST DUP12 PUSH1 0x20 DUP11 DUP13 PUSH2 0xB61 PUSH2 0xB55 DUP7 PUSH2 0xB5A PUSH2 0xB55 DUP3 DUP14 PUSH20 0xFFFFFFFFFFFFFFFFFFFFFFFFFFFFFFFFFFFFFFFF DUP12 SLOAD AND SWAP8 PUSH2 0x2FC4 JUMP JUMPDEST PUSH2 0x2FD4 JUMP JUMPDEST SWAP5 DUP13 PUSH2 0x2FC4 JUMP JUMPDEST PUSH1 0x40 MLOAD PUSH32 0x2D5E94A700000000000000000000000000000000000000000000000000000000 DUP2 MSTORE PUSH20 0xFFFFFFFFFFFFFFFFFFFFFFFFFFFFFFFFFFFFFFFF SWAP4 DUP5 AND PUSH1 0x4 DUP3 ADD MSTORE SWAP3 AND PUSH1 0x24 DUP4 ADD MSTORE SWAP1 SWAP5 DUP6 SWAP2 SWAP1 DUP3 SWAP1 DUP2 SWAP1 PUSH1 0x44 DUP3 ADD SWAP1 JUMP JUMPDEST SUB SWAP2 GAS STATICCALL SWAP3 DUP4 ISZERO PUSH2 0xF9E JUMPI DUP5 DUP7 DUP14 DUP13 SWAP4 DUP6 SWAP8 PUSH2 0xF2B JUMPI JUMPDEST POP DUP6 PUSH2 0xC50 SWAP4 PUSH20 0xFFFFFFFFFFFFFFFFFFFFFFFFFFFFFFFFFFFFFFFF PUSH2 0xC01 PUSH2 0xB55 DUP5 PUSH1 0x20 SWAP10 SWAP8 PUSH2 0xC08 SWAP8 PUSH2 0x2FC4 JUMP JUMPDEST AND SWAP4 PUSH2 0x2FC4 JUMP JUMPDEST PUSH1 0x40 MLOAD PUSH32 0x23B872DD00000000000000000000000000000000000000000000000000000000 DUP2 MSTORE CALLER PUSH1 0x4 DUP3 ADD MSTORE ADDRESS PUSH1 0x24 DUP3 ADD MSTORE SWAP1 CALLDATALOAD PUSH1 0x44 DUP3 ADD MSTORE SWAP4 DUP5 SWAP3 DUP4 SWAP2 SWAP1 DUP3 SWAP1 PUSH1 0x64 DUP3 ADD SWAP1 JUMP JUMPDEST SUB SWAP3 GAS CALL DUP1 ISZERO PUSH2 0xF20 JUMPI PUSH2 0xF01 JUMPI JUMPDEST POP PUSH2 0xC6B DUP2 DUP6 DUP13 PUSH2 0x2FC4 JUMP JUMPDEST PUSH2 0xC74 SWAP1 PUSH2 0x2FD4 JUMP JUMPDEST SWAP2 DUP13 PUSH2 0xC81 DUP4 DUP13 DUP10 PUSH2 0x2FC4 JUMP JUMPDEST PUSH2 0xC8A SWAP1 PUSH2 0x2FD4 JUMP JUMPDEST PUSH2 0xC95 DUP5 DUP8 DUP14 PUSH2 0x2FC4 JUMP JUMPDEST CALLDATALOAD SWAP1 PUSH2 0xCA2 DUP6 DUP12 DUP14 PUSH2 0x2FC4 JUMP JUMPDEST PUSH2 0xCAB SWAP1 PUSH2 0x2FD4 JUMP JUMPDEST PUSH1 0x40 MLOAD PUSH32 0x6E81221C00000000000000000000000000000000000000000000000000000000 DUP2 MSTORE PUSH20 0xFFFFFFFFFFFFFFFFFFFFFFFFFFFFFFFFFFFFFFFF SWAP8 DUP9 AND PUSH1 0x4 DUP3 ADD MSTORE SWAP2 DUP8 AND PUSH1 0x24 DUP4 ADD MSTORE PUSH1 0x44 DUP3 ADD SWAP3 SWAP1 SWAP3 MSTORE SWAP5 AND PUSH1 0x64 DUP6 ADD MSTORE DUP4 DUP1 PUSH1 0x84 DUP2 ADD SUB DUP2 PUSH20 0xFFFFFFFFFFFFFFFFFFFFFFFFFFFFFFFFFFFFFFFF DUP6 AND SWAP4 GAS SWAP5 PUSH1 0x20 SWAP6 CALL SWAP1 DUP14 DUP3 ISZERO PUSH2 0xEF5 JUMPI DUP9 DUP13 DUP10 DUP16 SWAP5 DUP11 DUP16 SWAP7 DUP16 SWAP8 DUP13 SWAP1 DUP9 SWAP11 PUSH2 0xE96 JUMPI JUMPDEST PUSH2 0xE52 SWAP13 POP DUP12 PUSH2 0xDF9 SWAP8 PUSH2 0xB55 SWAP8 DUP12 PUSH20 0xFFFFFFFFFFFFFFFFFFFFFFFFFFFFFFFFFFFFFFFF PUSH1 0x20 SWAP16 SWAP15 SWAP14 SWAP13 SWAP9 SWAP10 DUP6 SWAP11 DUP3 SWAP10 DUP4 PUSH2 0xDA7 PUSH2 0xB55 DUP11 PUSH2 0xD8F DUP2 PUSH2 0xDF2 SWAP16 PUSH2 0xB55 SWAP16 PUSH2 0x2FC4 JUMP JUMPDEST CALLDATALOAD SWAP6 DUP5 DUP9 AND DUP11 MSTORE PUSH1 0x40 PUSH1 0x1 SWAP11 PUSH1 0x20 DUP13 SWAP1 MSTORE KECCAK256 SWAP6 PUSH2 0x2FC4 JUMP JUMPDEST AND PUSH0 MSTORE PUSH1 0x20 MSTORE PUSH2 0xDBC PUSH1 0x40 PUSH0 KECCAK256 SWAP2 DUP3 SLOAD PUSH2 0x2F30 JUMP JUMPDEST SWAP1 SSTORE AND DUP13 MSTORE DUP15 MSTORE PUSH1 0x40 DUP12 KECCAK256 DUP7 PUSH2 0xDD6 PUSH2 0xB55 DUP7 DUP7 DUP7 PUSH2 0x2FC4 JUMP JUMPDEST AND PUSH0 MSTORE DUP15 MSTORE DUP13 PUSH2 0xDEB PUSH1 0x40 PUSH0 KECCAK256 SWAP2 DUP3 SLOAD PUSH2 0x2F3D JUMP JUMPDEST SWAP1 SSTORE PUSH2 0x2FC4 JUMP JUMPDEST AND SWAP6 PUSH2 0x2FC4 JUMP JUMPDEST SWAP1 PUSH1 0x40 MLOAD DUP1 SWAP8 DUP2 SWAP6 DUP3 SWAP5 PUSH32 0xA9059CBB00000000000000000000000000000000000000000000000000000000 DUP5 MSTORE PUSH1 0x4 DUP5 ADD PUSH1 0x20 SWAP1 SWAP4 SWAP3 SWAP2 SWAP4 PUSH20 0xFFFFFFFFFFFFFFFFFFFFFFFFFFFFFFFFFFFFFFFF PUSH1 0x40 DUP3 ADD SWAP6 AND DUP2 MSTORE ADD MSTORE JUMP JUMPDEST SUB SWAP3 GAS CALL SWAP2 DUP3 ISZERO PUSH2 0xE8B JUMPI PUSH1 0x1 SWAP3 PUSH2 0xE6C JUMPI JUMPDEST POP ADD PUSH2 0xAF0 JUMP JUMPDEST PUSH2 0xE84 SWAP1 PUSH1 0x20 RETURNDATASIZE PUSH1 0x20 GT PUSH2 0x4C7 JUMPI PUSH2 0x4B9 DUP2 DUP4 PUSH2 0x2B21 JUMP JUMPDEST POP PUSH0 PUSH2 0xE65 JUMP JUMPDEST PUSH1 0x40 MLOAD RETURNDATASIZE DUP15 DUP3 RETURNDATACOPY RETURNDATASIZE SWAP1 REVERT JUMPDEST POP POP POP POP SWAP6 POP POP POP POP POP POP PUSH1 0x20 DUP4 RETURNDATASIZE PUSH1 0x20 GT PUSH2 0xEED JUMPI JUMPDEST DUP2 PUSH2 0xEBA PUSH1 0x20 SWAP4 DUP4 PUSH2 0x2B21 JUMP JUMPDEST DUP2 ADD SUB SLT PUSH2 0x55C JUMPI DUP13 DUP9 DUP2 DUP8 DUP15 DUP7 DUP16 DUP16 SWAP10 DUP3 DUP16 SWAP3 DUP16 DUP15 SWAP2 DUP4 SWAP5 SWAP2 DUP5 SWAP3 MLOAD SWAP14 SWAP8 POP SWAP8 SWAP5 POP SWAP8 SWAP5 SWAP9 POP POP SWAP1 POP DUP12 SWAP9 SWAP8 SWAP9 PUSH2 0xD46 JUMP JUMPDEST RETURNDATASIZE SWAP2 POP PUSH2 0xEAD JUMP JUMPDEST PUSH1 0x40 MLOAD SWAP1 RETURNDATASIZE SWAP1 DUP3 RETURNDATACOPY RETURNDATASIZE SWAP1 REVERT JUMPDEST PUSH2 0xF19 SWAP1 PUSH1 0x20 RETURNDATASIZE PUSH1 0x20 GT PUSH2 0x4C7 JUMPI PUSH2 0x4B9 DUP2 DUP4 PUSH2 0x2B21 JUMP JUMPDEST POP PUSH0 PUSH2 0xC5F JUMP JUMPDEST PUSH1 0x40 MLOAD RETURNDATASIZE DUP16 DUP3 RETURNDATACOPY RETURNDATASIZE SWAP1 REVERT JUMPDEST SWAP7 POP POP POP POP POP PUSH1 0x20 DUP4 RETURNDATASIZE PUSH1 0x20 GT PUSH2 0xF96 JUMPI JUMPDEST DUP2 PUSH2 0xF4A PUSH1 0x20 SWAP4 DUP4 PUSH2 0x2B21 JUMP JUMPDEST DUP2 ADD SUB SLT PUSH2 0x76E JUMPI PUSH1 0x20 PUSH2 0xC50 DUP11 PUSH2 0xC08 DUP6 DUP16 SWAP8 PUSH20 0xFFFFFFFFFFFFFFFFFFFFFFFFFFFFFFFFFFFFFFFF PUSH2 0xC01 PUSH2 0xB55 DUP5 DUP15 PUSH2 0xF85 DUP16 SWAP7 PUSH2 0x2C52 JUMP JUMPDEST SWAP14 SWAP8 POP SWAP8 SWAP10 POP POP POP POP POP SWAP4 POP PUSH2 0xBD2 JUMP JUMPDEST RETURNDATASIZE SWAP2 POP PUSH2 0xF3D JUMP JUMPDEST POP PUSH1 0x40 MLOAD SWAP1 RETURNDATASIZE SWAP1 DUP3 RETURNDATACOPY RETURNDATASIZE SWAP1 REVERT JUMPDEST PUSH1 0x64 PUSH1 0x40 MLOAD PUSH32 0x8C379A000000000000000000000000000000000000000000000000000000000 DUP2 MSTORE PUSH1 0x20 PUSH1 0x4 DUP3 ADD MSTORE PUSH1 0x1C PUSH1 0x24 DUP3 ADD MSTORE PUSH32 0x496E70757420617272617973206C656E677468206D69736D6174636800000000 PUSH1 0x44 DUP3 ADD MSTORE REVERT JUMPDEST POP DUP3 DUP9 EQ PUSH2 0xADF JUMP JUMPDEST POP DUP8 DUP7 EQ PUSH2 0xAD9 JUMP JUMPDEST DUP8 DUP1 REVERT JUMPDEST DUP7 DUP1 REVERT JUMPDEST DUP5 DUP1 REVERT JUMPDEST DUP3 DUP1 REVERT JUMPDEST POP CALLVALUE PUSH2 0x76E JUMPI PUSH1 0x20 PUSH32 0xFFFFFFFFFFFFFFFFFFFFFFFFFFFFFFFFFFFFFFFFFFFFFFFFFFFFFFFFFFFFFFFC CALLDATASIZE ADD SLT PUSH2 0x76E JUMPI PUSH2 0x1063 PUSH2 0x2A7D JUMP JUMPDEST PUSH32 0xF0C57E16840DF040F15088DC2F81FE391C3923BEC73E23A9662EFC9C229C6A00 SWAP1 DUP2 SLOAD PUSH1 0xFF DUP2 PUSH1 0x40 SHR AND ISZERO SWAP2 PUSH8 0xFFFFFFFFFFFFFFFF DUP3 AND DUP1 ISZERO SWAP1 DUP2 PUSH2 0x1217 JUMPI JUMPDEST PUSH1 0x1 EQ SWAP1 DUP2 PUSH2 0x120D JUMPI JUMPDEST ISZERO SWAP1 DUP2 PUSH2 0x1204 JUMPI JUMPDEST POP PUSH2 0x11DA JUMPI DUP2 DUP4 PUSH1 0x1 PUSH32 0xFFFFFFFFFFFFFFFFFFFFFFFFFFFFFFFFFFFFFFFFFFFFFFFF0000000000000000 PUSH20 0xFFFFFFFFFFFFFFFFFFFFFFFFFFFFFFFFFFFFFFFF SWAP6 AND OR DUP7 SSTORE PUSH2 0x11A5 JUMPI JUMPDEST POP PUSH2 0x1108 PUSH2 0x35BA JUMP JUMPDEST PUSH2 0x1110 PUSH2 0x35BA JUMP JUMPDEST PUSH2 0x1118 PUSH2 0x35BA JUMP JUMPDEST PUSH2 0x1121 CALLER PUSH2 0x2FF5 JUMP JUMPDEST AND PUSH32 0xFFFFFFFFFFFFFFFFFFFFFFFF0000000000000000000000000000000000000000 DUP5 SLOAD AND OR DUP4 SSTORE PUSH2 0x1151 JUMPI POP DUP1 RETURN JUMPDEST PUSH32 0xFFFFFFFFFFFFFFFFFFFFFFFFFFFFFFFFFFFFFFFFFFFFFF00FFFFFFFFFFFFFFFF DUP2 SLOAD AND SWAP1 SSTORE PUSH32 0xC7F505B2F371AE2175EE4913F4499E1F2633A7B5936321EED1CDAEB6115181D2 PUSH1 0x20 PUSH1 0x40 MLOAD PUSH1 0x1 DUP2 MSTORE LOG1 DUP1 RETURN JUMPDEST PUSH32 0xFFFFFFFFFFFFFFFFFFFFFFFFFFFFFFFFFFFFFFFFFFFFFF000000000000000000 AND PUSH9 0x10000000000000001 OR DUP5 SSTORE PUSH0 PUSH2 0x10FF JUMP JUMPDEST PUSH1 0x4 PUSH1 0x40 MLOAD PUSH32 0xF92EE8A900000000000000000000000000000000000000000000000000000000 DUP2 MSTORE REVERT JUMPDEST SWAP1 POP ISZERO PUSH0 PUSH2 0x10B6 JUMP JUMPDEST ADDRESS EXTCODESIZE ISZERO SWAP2 POP PUSH2 0x10AE JUMP JUMPDEST DUP5 SWAP2 POP PUSH2 0x10A4 JUMP JUMPDEST POP CALLVALUE PUSH2 0x76E JUMPI PUSH1 0x20 DUP1 PUSH32 0xFFFFFFFFFFFFFFFFFFFFFFFFFFFFFFFFFFFFFFFFFFFFFFFFFFFFFFFFFFFFFFFC CALLDATASIZE ADD SLT PUSH2 0xA29 JUMPI PUSH2 0x1258 PUSH2 0x2A7D JUMP JUMPDEST PUSH20 0xFFFFFFFFFFFFFFFFFFFFFFFFFFFFFFFFFFFFFFFF SWAP3 DUP1 DUP5 PUSH1 0x24 DUP2 DUP4 SLOAD AND SWAP5 PUSH1 0x40 MLOAD SWAP6 DUP7 SWAP4 DUP5 SWAP3 PUSH32 0xB4340E6A00000000000000000000000000000000000000000000000000000000 DUP5 MSTORE AND PUSH1 0x4 DUP4 ADD MSTORE GAS STATICCALL SWAP2 DUP3 ISZERO PUSH2 0xF9E JUMPI DUP2 SWAP3 PUSH2 0x12F5 JUMPI JUMPDEST POP PUSH1 0x40 MLOAD SWAP3 DUP1 DUP5 ADD SWAP1 DUP1 DUP6 MSTORE DUP4 MLOAD DUP1 SWAP3 MSTORE DUP1 PUSH1 0x40 DUP7 ADD SWAP5 ADD SWAP3 JUMPDEST DUP3 DUP2 LT PUSH2 0x12DF JUMPI DUP6 DUP6 SUB DUP7 RETURN JUMPDEST DUP4 MLOAD DUP8 AND DUP6 MSTORE SWAP4 DUP2 ADD SWAP4 SWAP3 DUP2 ADD SWAP3 PUSH1 0x1 ADD PUSH2 0x12D2 JUMP JUMPDEST PUSH2 0x130A SWAP2 SWAP3 POP RETURNDATASIZE DUP1 DUP5 DUP4 RETURNDATACOPY PUSH2 0x580 DUP2 DUP4 PUSH2 0x2B21 JUMP JUMPDEST SWAP1 PUSH0 PUSH2 0x12B8 JUMP JUMPDEST POP CALLVALUE PUSH2 0x76E JUMPI PUSH1 0x40 PUSH32 0xFFFFFFFFFFFFFFFFFFFFFFFFFFFFFFFFFFFFFFFFFFFFFFFFFFFFFFFFFFFFFFFC CALLDATASIZE ADD SLT PUSH2 0x76E JUMPI PUSH2 0x1349 PUSH2 0x2A7D JUMP JUMPDEST PUSH20 0xFFFFFFFFFFFFFFFFFFFFFFFFFFFFFFFFFFFFFFFF DUP1 PUSH2 0x1367 PUSH2 0x2AA0 JUMP JUMPDEST AND SWAP1 DUP4 PUSH1 0x40 MLOAD SWAP4 PUSH32 0x723C99900000000000000000000000000000000000000000000000000000000 DUP6 MSTORE DUP3 DUP2 AND PUSH1 0x4 DUP7 ADD MSTORE DUP2 DUP6 PUSH1 0x24 DUP2 DUP4 DUP9 GAS CALL SWAP5 DUP6 ISZERO PUSH2 0xA00 JUMPI DUP3 SWAP6 PUSH2 0x1516 JUMPI JUMPDEST POP PUSH1 0x40 MLOAD SWAP5 PUSH32 0x67E4AC2C00000000000000000000000000000000000000000000000000000000 DUP7 MSTORE DUP3 DUP7 PUSH1 0x4 DUP2 DUP9 GAS STATICCALL SWAP6 DUP7 ISZERO PUSH2 0x150B JUMPI DUP4 SWAP7 PUSH2 0x14EF JUMPI JUMPDEST POP DUP3 JUMPDEST DUP7 MLOAD DUP2 LT ISZERO PUSH2 0x14EB JUMPI DUP1 PUSH2 0x1406 DUP6 SWAP3 DUP5 PUSH2 0x2D44 JUMP JUMPDEST MLOAD DUP8 DUP4 MSTORE PUSH1 0x20 SWAP1 PUSH1 0x1 DUP3 MSTORE PUSH1 0x40 DUP5 KECCAK256 DUP9 PUSH2 0x1420 DUP6 DUP14 PUSH2 0x2D44 JUMP JUMPDEST MLOAD AND PUSH0 MSTORE DUP3 MSTORE PUSH2 0x1435 PUSH1 0x40 PUSH0 KECCAK256 SWAP2 DUP3 SLOAD PUSH2 0x2F30 JUMP JUMPDEST SWAP1 SSTORE DUP1 PUSH2 0x14B2 DUP9 PUSH2 0x1446 DUP6 DUP14 PUSH2 0x2D44 JUMP JUMPDEST MLOAD AND PUSH2 0x1452 DUP6 DUP9 PUSH2 0x2D44 JUMP JUMPDEST MLOAD PUSH1 0x40 MLOAD PUSH32 0x23B872DD00000000000000000000000000000000000000000000000000000000 DUP2 MSTORE PUSH20 0xFFFFFFFFFFFFFFFFFFFFFFFFFFFFFFFFFFFFFFFF DUP11 AND PUSH1 0x4 DUP3 ADD MSTORE ADDRESS PUSH1 0x24 DUP3 ADD MSTORE PUSH1 0x44 DUP2 ADD SWAP2 SWAP1 SWAP2 MSTORE SWAP6 DUP7 SWAP3 DUP4 SWAP2 SWAP1 DUP3 SWAP1 PUSH1 0x64 DUP3 ADD SWAP1 JUMP JUMPDEST SUB SWAP3 GAS CALL SWAP3 DUP4 ISZERO PUSH2 0x58F JUMPI PUSH1 0x1 SWAP4 PUSH2 0x14CD JUMPI JUMPDEST POP POP ADD PUSH2 0x13F1 JUMP JUMPDEST DUP2 PUSH2 0x14E3 SWAP3 SWAP1 RETURNDATASIZE LT PUSH2 0x4C7 JUMPI PUSH2 0x4B9 DUP2 DUP4 PUSH2 0x2B21 JUMP JUMPDEST POP PUSH0 DUP1 PUSH2 0x14C5 JUMP JUMPDEST DUP4 DUP1 RETURN JUMPDEST PUSH2 0x1504 SWAP2 SWAP7 POP RETURNDATASIZE DUP1 DUP6 DUP4 RETURNDATACOPY PUSH2 0x580 DUP2 DUP4 PUSH2 0x2B21 JUMP JUMPDEST SWAP5 PUSH0 PUSH2 0x13EE JUMP JUMPDEST PUSH1 0x40 MLOAD RETURNDATASIZE DUP6 DUP3 RETURNDATACOPY RETURNDATASIZE SWAP1 REVERT JUMPDEST PUSH2 0x152B SWAP2 SWAP6 POP RETURNDATASIZE DUP1 DUP5 DUP4 RETURNDATACOPY PUSH2 0x5AF DUP2 DUP4 PUSH2 0x2B21 JUMP JUMPDEST SWAP4 PUSH0 PUSH2 0x13B0 JUMP JUMPDEST POP CALLVALUE PUSH2 0x76E JUMPI DUP1 PUSH32 0xFFFFFFFFFFFFFFFFFFFFFFFFFFFFFFFFFFFFFFFFFFFFFFFFFFFFFFFFFFFFFFFC CALLDATASIZE ADD SLT PUSH2 0x76E JUMPI PUSH1 0x40 MLOAD PUSH1 0x40 DUP2 ADD SWAP1 DUP1 DUP3 LT PUSH8 0xFFFFFFFFFFFFFFFF DUP4 GT OR PUSH2 0x15F4 JUMPI PUSH1 0x40 SWAP2 DUP3 MSTORE PUSH1 0x5 DUP2 MSTORE PUSH32 0xFFFFFFFFFFFFFFFFFFFFFFFFFFFFFFFFFFFFFFFFFFFFFFFFFFFFFFFFFFFFFFE0 PUSH1 0x1F PUSH1 0x20 DUP4 ADD PUSH32 0x352E302E30000000000000000000000000000000000000000000000000000000 DUP2 MSTORE DUP5 MLOAD SWAP6 DUP7 SWAP5 PUSH1 0x20 DUP7 MSTORE MLOAD DUP1 SWAP3 DUP2 PUSH1 0x20 DUP9 ADD MSTORE DUP8 DUP8 ADD MCOPY DUP6 DUP3 DUP7 ADD ADD MSTORE ADD AND DUP2 ADD SUB ADD SWAP1 RETURN JUMPDEST PUSH32 0x4E487B7100000000000000000000000000000000000000000000000000000000 PUSH0 MSTORE PUSH1 0x41 PUSH1 0x4 MSTORE PUSH1 0x24 PUSH0 REVERT JUMPDEST POP CALLVALUE PUSH2 0x76E JUMPI PUSH1 0x40 PUSH32 0xFFFFFFFFFFFFFFFFFFFFFFFFFFFFFFFFFFFFFFFFFFFFFFFFFFFFFFFFFFFFFFFC CALLDATASIZE ADD SLT PUSH2 0x76E JUMPI PUSH2 0x1659 PUSH2 0x2A7D JUMP JUMPDEST PUSH1 0x24 CALLDATALOAD SWAP1 PUSH8 0xFFFFFFFFFFFFFFFF SWAP2 DUP3 DUP2 AND DUP1 SWAP2 SUB PUSH2 0xA0B JUMPI PUSH32 0xF0C57E16840DF040F15088DC2F81FE391C3923BEC73E23A9662EFC9C229C6A00 DUP1 SLOAD SWAP4 DUP3 PUSH1 0xFF DUP7 PUSH1 0x40 SHR AND SWAP2 DUP3 ISZERO PUSH2 0x176A JUMPI JUMPDEST POP POP PUSH2 0x11DA JUMPI PUSH32 0xFFFFFFFFFFFFFFFFFFFFFFFFFFFFFFFFFFFFFFFFFFFFFF00FFFFFFFFFFFFFFFF PUSH9 0x10000000000000000 DUP4 PUSH32 0xFFFFFFFFFFFFFFFFFFFFFFFFFFFFFFFFFFFFFFFFFFFFFF000000000000000000 PUSH32 0xC7F505B2F371AE2175EE4913F4499E1F2633A7B5936321EED1CDAEB6115181D2 SWAP8 PUSH20 0xFFFFFFFFFFFFFFFFFFFFFFFFFFFFFFFFFFFFFFFF PUSH1 0x20 SWAP9 AND PUSH32 0xFFFFFFFFFFFFFFFFFFFFFFFF0000000000000000000000000000000000000000 PUSH0 SLOAD AND OR PUSH0 SSTORE AND OR OR AND SWAP1 SSTORE PUSH1 0x40 MLOAD SWAP1 DUP2 MSTORE LOG1 DUP1 RETURN JUMPDEST DUP7 AND LT ISZERO SWAP1 POP DUP3 PUSH0 PUSH2 0x16A5 JUMP JUMPDEST POP CALLVALUE PUSH2 0x76E JUMPI DUP1 PUSH32 0xFFFFFFFFFFFFFFFFFFFFFFFFFFFFFFFFFFFFFFFFFFFFFFFFFFFFFFFFFFFFFFFC CALLDATASIZE ADD SLT PUSH2 0x76E JUMPI PUSH1 0x20 PUSH20 0xFFFFFFFFFFFFFFFFFFFFFFFFFFFFFFFFFFFFFFFF PUSH32 0x9016D09D72D40FDAE2FD8CEAC6B6234C7706214FD39C1CD1E609A0528C199300 SLOAD AND PUSH1 0x40 MLOAD SWAP1 DUP2 MSTORE RETURN JUMPDEST POP CALLVALUE PUSH2 0x76E JUMPI PUSH1 0x40 PUSH32 0xFFFFFFFFFFFFFFFFFFFFFFFFFFFFFFFFFFFFFFFFFFFFFFFFFFFFFFFFFFFFFFFC CALLDATASIZE ADD SLT PUSH2 0x76E JUMPI PUSH2 0x1820 PUSH2 0x2A7D JUMP JUMPDEST PUSH1 0x40 PUSH2 0x182A PUSH2 0x2AA0 JUMP JUMPDEST SWAP3 PUSH20 0xFFFFFFFFFFFFFFFFFFFFFFFFFFFFFFFFFFFFFFFF DUP1 SWAP4 AND DUP2 MSTORE PUSH1 0x1 PUSH1 0x20 MSTORE KECCAK256 SWAP2 AND PUSH0 MSTORE PUSH1 0x20 MSTORE PUSH1 0x20 PUSH1 0x40 PUSH0 KECCAK256 SLOAD PUSH1 0x40 MLOAD SWAP1 DUP2 MSTORE RETURN JUMPDEST POP CALLVALUE PUSH2 0x76E JUMPI PUSH2 0x188B SWAP1 PUSH2 0x1874 CALLDATASIZE PUSH2 0x2B9C JUMP JUMPDEST SWAP4 SWAP2 SWAP1 DUP1 SWAP6 SWAP2 PUSH2 0x1885 DUP3 ISZERO ISZERO PUSH2 0x2EB3 JUMP JUMPDEST DUP5 PUSH2 0x3153 JUMP JUMPDEST SWAP2 DUP3 MLOAD ISZERO PUSH2 0x1D17 JUMPI PUSH1 0x40 MLOAD PUSH32 0x23B872DD00000000000000000000000000000000000000000000000000000000 DUP2 MSTORE CALLER PUSH1 0x4 DUP3 ADD MSTORE ADDRESS PUSH1 0x24 DUP3 ADD MSTORE PUSH1 0x44 DUP2 ADD DUP7 SWAP1 MSTORE PUSH1 0x20 SWAP6 PUSH20 0xFFFFFFFFFFFFFFFFFFFFFFFFFFFFFFFFFFFFFFFF SWAP6 SWAP2 DUP8 DUP2 PUSH1 0x64 DUP2 DUP9 DUP9 DUP13 AND GAS CALL DUP1 ISZERO PUSH2 0x5BE JUMPI PUSH2 0x1CFA JUMPI JUMPDEST POP SWAP2 SWAP6 DUP4 JUMPDEST DUP6 MLOAD DUP6 LT ISZERO PUSH2 0x1CF1 JUMPI DUP7 PUSH2 0x1915 DUP7 DUP9 PUSH2 0x2D44 JUMP JUMPDEST MLOAD AND SWAP8 PUSH1 0x40 MLOAD SWAP8 PUSH32 0x67E4AC2C00000000000000000000000000000000000000000000000000000000 DUP10 MSTORE DUP3 DUP10 PUSH1 0x4 DUP2 DUP14 GAS STATICCALL SWAP9 DUP10 ISZERO PUSH2 0x150B JUMPI DUP4 SWAP10 PUSH2 0x1CD5 JUMPI JUMPDEST POP PUSH2 0x196B DUP2 PUSH2 0x1964 DUP10 DUP12 PUSH2 0x2D44 JUMP JUMPDEST MLOAD AND PUSH2 0x2D85 JUMP JUMPDEST SWAP9 DUP4 SWAP10 DUP5 JUMPDEST DUP3 MLOAD DUP2 LT ISZERO PUSH2 0x1CC6 JUMPI DUP4 PUSH2 0x1984 DUP3 DUP6 PUSH2 0x2D44 JUMP JUMPDEST MLOAD AND DUP5 DUP7 AND EQ ISZERO DUP1 PUSH2 0x1CB3 JUMPI JUMPDEST PUSH2 0x199D JUMPI PUSH1 0x1 ADD PUSH2 0x1970 JUMP JUMPDEST SWAP1 POP DUP3 SWAP10 SWAP9 SWAP8 SWAP4 SWAP5 SWAP11 POP PUSH2 0x19B0 SWAP2 PUSH2 0x2D44 JUMP JUMPDEST MLOAD AND SWAP2 JUMPDEST DUP8 DUP4 AND SWAP2 DUP3 ISZERO PUSH2 0x1C55 JUMPI DUP5 DUP12 PUSH1 0x40 MLOAD SWAP2 DUP3 DUP1 SWAP3 PUSH32 0xB2B55D7000000000000000000000000000000000000000000000000000000000 DUP3 MSTORE DUP8 PUSH1 0x4 DUP4 ADD MSTORE PUSH1 0x24 SWAP5 DUP6 SWAP2 GAS STATICCALL SWAP1 DUP2 ISZERO PUSH2 0xE8B JUMPI SWAP1 DUP4 SWAP2 DUP14 SWAP2 PUSH2 0x1C24 JUMPI JUMPDEST POP LT PUSH2 0x1BA1 JUMPI DUP9 MLOAD SWAP1 PUSH32 0xFFFFFFFFFFFFFFFFFFFFFFFFFFFFFFFFFFFFFFFFFFFFFFFFFFFFFFFFFFFFFFFF DUP3 ADD SWAP2 DUP3 GT PUSH2 0x1B76 JUMPI POP PUSH2 0x1ABB DUP12 SWAP13 DUP8 SWAP3 DUP14 SWAP12 SWAP13 SWAP14 POP DUP11 EQ PUSH0 EQ PUSH2 0x1B70 JUMPI DUP9 JUMPDEST PUSH1 0x40 MLOAD PUSH32 0x6E81221C00000000000000000000000000000000000000000000000000000000 DUP2 MSTORE PUSH20 0xFFFFFFFFFFFFFFFFFFFFFFFFFFFFFFFFFFFFFFFF DUP1 DUP9 AND PUSH1 0x4 DUP4 ADD MSTORE DUP1 DUP11 AND PUSH1 0x24 DUP4 ADD MSTORE PUSH1 0x44 DUP3 ADD DUP8 SWAP1 MSTORE SWAP1 SWAP2 AND PUSH1 0x64 DUP3 ADD MSTORE SWAP14 DUP15 SWAP3 DUP4 SWAP2 SWAP1 DUP3 SWAP1 PUSH1 0x84 DUP3 ADD SWAP1 JUMP JUMPDEST SUB SWAP3 GAS CALL SWAP11 DUP12 ISZERO PUSH2 0x4CE JUMPI DUP9 SWAP12 PUSH2 0x1B38 JUMPI JUMPDEST POP SWAP1 PUSH1 0x1 SWAP4 SWAP3 SWAP2 DUP11 PUSH2 0x1ADF DUP10 DUP13 PUSH2 0x2D44 JUMP JUMPDEST MLOAD AND DUP10 MSTORE DUP5 SWAP2 DUP3 DUP8 MSTORE DUP12 PUSH1 0x40 DUP12 KECCAK256 SWAP2 AND PUSH0 MSTORE DUP7 MSTORE PUSH2 0x1B02 PUSH1 0x40 PUSH0 KECCAK256 SWAP2 DUP3 SLOAD PUSH2 0x2F30 JUMP JUMPDEST SWAP1 SSTORE DUP10 PUSH2 0x1B0F DUP9 DUP12 PUSH2 0x2D44 JUMP JUMPDEST MLOAD AND DUP9 MSTORE DUP5 MSTORE PUSH1 0x40 DUP8 KECCAK256 SWAP1 PUSH0 MSTORE DUP4 MSTORE PUSH1 0x40 PUSH0 KECCAK256 PUSH2 0x1B2D DUP11 DUP3 SLOAD PUSH2 0x2F3D JUMP JUMPDEST SWAP1 SSTORE SWAP8 SWAP4 ADD SWAP4 PUSH2 0x1901 JUMP JUMPDEST SWAP4 SWAP3 SWAP2 SWAP1 SWAP11 POP DUP5 DUP5 DUP2 RETURNDATASIZE DUP4 GT PUSH2 0x1B69 JUMPI JUMPDEST PUSH2 0x1B53 DUP2 DUP4 PUSH2 0x2B21 JUMP JUMPDEST DUP2 ADD SUB SLT PUSH2 0x55C JUMPI PUSH1 0x1 SWAP4 MLOAD SWAP11 SWAP1 SWAP2 SWAP3 SWAP4 PUSH2 0x1ACD JUMP JUMPDEST POP RETURNDATASIZE PUSH2 0x1B49 JUMP JUMPDEST ADDRESS PUSH2 0x1A52 JUMP JUMPDEST DUP12 PUSH32 0x4E487B7100000000000000000000000000000000000000000000000000000000 DUP2 MSTORE PUSH1 0x11 PUSH1 0x4 MSTORE REVERT JUMPDEST DUP6 PUSH1 0x27 PUSH1 0x84 SWAP3 PUSH1 0x40 MLOAD SWAP3 PUSH32 0x8C379A000000000000000000000000000000000000000000000000000000000 DUP5 MSTORE PUSH1 0x4 DUP5 ADD MSTORE DUP3 ADD MSTORE PUSH32 0x496E73756666696369656E74206C697175696469747920696E20706F6F6C2066 PUSH1 0x44 DUP3 ADD MSTORE PUSH32 0x6F72207377617000000000000000000000000000000000000000000000000000 PUSH1 0x64 DUP3 ADD MSTORE REVERT JUMPDEST DUP1 SWAP3 POP DUP9 DUP1 SWAP3 POP RETURNDATASIZE DUP4 GT PUSH2 0x1C4E JUMPI JUMPDEST PUSH2 0x1C3D DUP2 DUP4 PUSH2 0x2B21 JUMP JUMPDEST DUP2 ADD SUB SLT PUSH2 0x55C JUMPI DUP3 SWAP1 MLOAD PUSH0 PUSH2 0x1A08 JUMP JUMPDEST POP RETURNDATASIZE PUSH2 0x1C33 JUMP JUMPDEST PUSH1 0x64 DUP6 PUSH1 0x40 MLOAD SWAP1 PUSH32 0x8C379A000000000000000000000000000000000000000000000000000000000 DUP3 MSTORE PUSH1 0x4 DUP3 ADD MSTORE PUSH1 0x19 PUSH1 0x24 DUP3 ADD MSTORE PUSH32 0x4E6F2076616C6964206E65787420746F6B656E20666F756E6400000000000000 PUSH1 0x44 DUP3 ADD MSTORE REVERT JUMPDEST POP PUSH2 0x1CBE DUP2 DUP4 PUSH2 0x2D44 JUMP JUMPDEST MLOAD ISZERO ISZERO PUSH2 0x1991 JUMP JUMPDEST POP POP POP SWAP7 SWAP6 SWAP5 SWAP1 SWAP8 SWAP2 SWAP8 PUSH2 0x19B4 JUMP JUMPDEST PUSH2 0x1CEA SWAP2 SWAP10 POP RETURNDATASIZE DUP1 DUP6 DUP4 RETURNDATACOPY PUSH2 0x580 DUP2 DUP4 PUSH2 0x2B21 JUMP JUMPDEST SWAP8 PUSH0 PUSH2 0x1955 JUMP JUMPDEST POP PUSH1 0x40 MLOAD DUP4 DUP2 MSTORE RETURN JUMPDEST PUSH2 0x1D10 SWAP1 DUP9 RETURNDATASIZE DUP11 GT PUSH2 0x4C7 JUMPI PUSH2 0x4B9 DUP2 DUP4 PUSH2 0x2B21 JUMP JUMPDEST POP PUSH0 PUSH2 0x18FC JUMP JUMPDEST PUSH1 0x64 PUSH1 0x40 MLOAD PUSH32 0x8C379A000000000000000000000000000000000000000000000000000000000 DUP2 MSTORE PUSH1 0x20 PUSH1 0x4 DUP3 ADD MSTORE PUSH1 0xE PUSH1 0x24 DUP3 ADD MSTORE PUSH32 0x4E6F20726F75746520666F756E64000000000000000000000000000000000000 PUSH1 0x44 DUP3 ADD MSTORE REVERT JUMPDEST POP CALLVALUE PUSH2 0x76E JUMPI PUSH1 0x20 PUSH32 0xFFFFFFFFFFFFFFFFFFFFFFFFFFFFFFFFFFFFFFFFFFFFFFFFFFFFFFFFFFFFFFFC CALLDATASIZE ADD SLT PUSH2 0x76E JUMPI PUSH20 0xFFFFFFFFFFFFFFFFFFFFFFFFFFFFFFFFFFFFFFFF PUSH2 0x1DC2 PUSH2 0x2A7D JUMP JUMPDEST PUSH2 0x1DCA PUSH2 0x30B6 JUMP JUMPDEST AND PUSH32 0xFFFFFFFFFFFFFFFFFFFFFFFF0000000000000000000000000000000000000000 PUSH0 SLOAD AND OR PUSH0 SSTORE DUP1 RETURN JUMPDEST POP CALLVALUE PUSH2 0x76E JUMPI DUP1 PUSH32 0xFFFFFFFFFFFFFFFFFFFFFFFFFFFFFFFFFFFFFFFFFFFFFFFFFFFFFFFFFFFFFFFC CALLDATASIZE ADD SLT PUSH2 0x76E JUMPI PUSH2 0x1E2C PUSH2 0x30B6 JUMP JUMPDEST PUSH0 PUSH20 0xFFFFFFFFFFFFFFFFFFFFFFFFFFFFFFFFFFFFFFFF PUSH32 0x9016D09D72D40FDAE2FD8CEAC6B6234C7706214FD39C1CD1E609A0528C199300 DUP1 SLOAD SWAP1 PUSH32 0xFFFFFFFFFFFFFFFFFFFFFFFF0000000000000000000000000000000000000000 DUP3 AND SWAP1 SSTORE AND PUSH32 0x8BE0079C531659141344CD1FD0A4F28419497F9722A3DAAFE3B4186F6B6457E0 DUP3 DUP1 LOG3 DUP1 RETURN JUMPDEST POP CALLVALUE PUSH2 0x76E JUMPI PUSH2 0x1EC2 CALLDATASIZE PUSH2 0x2B9C JUMP JUMPDEST PUSH2 0x1ED1 DUP3 SWAP4 SWAP5 SWAP6 SWAP3 ISZERO ISZERO PUSH2 0x2EB3 JUMP JUMPDEST DUP2 SLOAD PUSH1 0x40 MLOAD PUSH32 0x2D5E94A700000000000000000000000000000000000000000000000000000000 DUP2 MSTORE PUSH20 0xFFFFFFFFFFFFFFFFFFFFFFFFFFFFFFFFFFFFFFFF DUP8 DUP2 AND PUSH1 0x4 DUP4 ADD MSTORE DUP7 DUP2 AND PUSH1 0x24 DUP4 ADD MSTORE PUSH1 0x20 SWAP8 SWAP1 SWAP3 SWAP1 SWAP2 SWAP1 DUP9 SWAP1 DUP3 SWAP1 PUSH1 0x44 SWAP1 DUP3 SWAP1 DUP8 AND GAS STATICCALL SWAP1 DUP2 ISZERO PUSH2 0x5BE JUMPI SWAP1 DUP4 SWAP2 DUP7 SWAP2 PUSH2 0x2158 JUMPI JUMPDEST POP PUSH1 0x40 MLOAD PUSH32 0x23B872DD00000000000000000000000000000000000000000000000000000000 DUP2 MSTORE CALLER PUSH1 0x4 DUP3 ADD MSTORE ADDRESS PUSH1 0x24 DUP3 ADD MSTORE PUSH1 0x44 DUP2 ADD DUP9 SWAP1 MSTORE SWAP2 AND SWAP2 DUP4 DUP2 AND SWAP2 DUP10 DUP2 PUSH1 0x64 DUP2 DUP11 DUP8 GAS CALL DUP1 ISZERO PUSH2 0x676 JUMPI DUP9 SWAP4 SWAP3 DUP12 SWAP3 DUP12 SWAP3 PUSH2 0x213B JUMPI JUMPDEST POP PUSH1 0x40 MLOAD PUSH32 0x6E81221C00000000000000000000000000000000000000000000000000000000 DUP2 MSTORE PUSH20 0xFFFFFFFFFFFFFFFFFFFFFFFFFFFFFFFFFFFFFFFF SWAP2 DUP3 AND PUSH1 0x4 DUP3 ADD MSTORE SWAP2 DUP2 AND PUSH1 0x24 DUP4 ADD MSTORE PUSH1 0x44 DUP3 ADD SWAP10 SWAP1 SWAP10 MSTORE SWAP8 DUP7 AND PUSH1 0x64 DUP10 ADD MSTORE DUP8 PUSH1 0x84 DUP2 DUP10 DUP8 GAS CALL SWAP7 DUP8 ISZERO PUSH2 0x58F JUMPI SWAP1 DUP10 SWAP6 SWAP5 SWAP4 SWAP3 SWAP2 DUP8 SWAP9 PUSH2 0x20F9 JUMPI JUMPDEST POP SWAP2 DUP8 SWAP9 SWAP4 SWAP2 PUSH2 0x20C2 SWAP9 SWAP6 SWAP4 DUP3 DUP10 MSTORE PUSH1 0x1 DUP9 MSTORE PUSH1 0x40 DUP10 KECCAK256 SWAP1 PUSH0 MSTORE DUP8 MSTORE PUSH2 0x2044 PUSH1 0x40 PUSH0 KECCAK256 SWAP2 DUP3 SLOAD PUSH2 0x2F30 JUMP JUMPDEST SWAP1 SSTORE DUP7 MSTORE PUSH1 0x1 DUP6 MSTORE PUSH1 0x40 DUP7 KECCAK256 SWAP3 AND SWAP2 DUP3 PUSH0 MSTORE DUP5 MSTORE PUSH1 0x40 PUSH0 KECCAK256 PUSH2 0x2067 DUP5 DUP3 SLOAD PUSH2 0x2F3D JUMP JUMPDEST SWAP1 SSTORE DUP5 PUSH1 0x40 MLOAD DUP1 SWAP8 DUP2 SWAP6 DUP3 SWAP5 PUSH32 0xA9059CBB00000000000000000000000000000000000000000000000000000000 DUP5 MSTORE PUSH1 0x4 DUP5 ADD PUSH1 0x20 SWAP1 SWAP4 SWAP3 SWAP2 SWAP4 PUSH20 0xFFFFFFFFFFFFFFFFFFFFFFFFFFFFFFFFFFFFFFFF PUSH1 0x40 DUP3 ADD SWAP6 AND DUP2 MSTORE ADD MSTORE JUMP JUMPDEST SUB SWAP3 GAS CALL SWAP1 DUP2 ISZERO PUSH2 0xEF5 JUMPI POP PUSH2 0x20DC JUMPI JUMPDEST POP PUSH1 0x40 MLOAD SWAP1 DUP2 MSTORE RETURN JUMPDEST PUSH2 0x20F2 SWAP1 DUP4 RETURNDATASIZE DUP6 GT PUSH2 0x4C7 JUMPI PUSH2 0x4B9 DUP2 DUP4 PUSH2 0x2B21 JUMP JUMPDEST POP PUSH0 PUSH2 0x20D3 JUMP JUMPDEST DUP7 DUP2 SWAP8 SWAP3 SWAP7 SWAP5 SWAP10 POP SWAP10 SWAP5 SWAP3 SWAP10 RETURNDATASIZE DUP4 GT PUSH2 0x2134 JUMPI JUMPDEST PUSH2 0x2117 DUP2 DUP4 PUSH2 0x2B21 JUMP JUMPDEST DUP2 ADD SUB SLT PUSH2 0x55C JUMPI PUSH2 0x20C2 SWAP7 DUP10 SWAP6 MLOAD SWAP8 SWAP9 SWAP2 SWAP4 SWAP9 SWAP5 SWAP1 SWAP3 SWAP5 PUSH2 0x2019 JUMP JUMPDEST POP RETURNDATASIZE PUSH2 0x210D JUMP JUMPDEST PUSH2 0x2151 SWAP1 DUP5 RETURNDATASIZE DUP7 GT PUSH2 0x4C7 JUMPI PUSH2 0x4B9 DUP2 DUP4 PUSH2 0x2B21 JUMP JUMPDEST POP PUSH0 PUSH2 0x1FA0 JUMP JUMPDEST DUP1 SWAP3 POP DUP10 DUP1 SWAP3 POP RETURNDATASIZE DUP4 GT PUSH2 0x2189 JUMPI JUMPDEST PUSH2 0x2171 DUP2 DUP4 PUSH2 0x2B21 JUMP JUMPDEST DUP2 ADD SUB SLT PUSH2 0x1023 JUMPI PUSH2 0x2183 DUP4 SWAP2 PUSH2 0x2C52 JUMP JUMPDEST PUSH0 PUSH2 0x1F44 JUMP JUMPDEST POP RETURNDATASIZE PUSH2 0x2167 JUMP JUMPDEST POP CALLVALUE PUSH2 0x55C JUMPI PUSH1 0x20 DUP1 PUSH32 0xFFFFFFFFFFFFFFFFFFFFFFFFFFFFFFFFFFFFFFFFFFFFFFFFFFFFFFFFFFFFFFFC CALLDATASIZE ADD SLT PUSH2 0x55C JUMPI PUSH20 0xFFFFFFFFFFFFFFFFFFFFFFFFFFFFFFFFFFFFFFFF PUSH2 0x21DE PUSH2 0x2A7D JUMP JUMPDEST AND SWAP1 PUSH1 0x40 MLOAD PUSH32 0x70A0823100000000000000000000000000000000000000000000000000000000 DUP2 MSTORE CALLER PUSH1 0x4 DUP3 ADD MSTORE DUP2 DUP2 PUSH1 0x24 DUP2 DUP7 GAS STATICCALL SWAP1 DUP2 ISZERO PUSH2 0x22E6 JUMPI PUSH0 SWAP2 PUSH2 0x237B JUMPI JUMPDEST POP PUSH1 0x40 MLOAD PUSH32 0x18160DDD00000000000000000000000000000000000000000000000000000000 DUP2 MSTORE DUP3 DUP2 PUSH1 0x4 DUP2 DUP8 GAS STATICCALL SWAP3 DUP4 ISZERO PUSH2 0x22E6 JUMPI PUSH0 SWAP4 PUSH2 0x234B JUMPI JUMPDEST POP POP PUSH2 0x2710 SWAP1 DUP2 DUP2 MUL SWAP2 DUP2 DUP4 DIV EQ SWAP1 ISZERO OR ISZERO PUSH2 0x231E JUMPI DUP2 ISZERO PUSH2 0x22F1 JUMPI PUSH2 0x228A SWAP2 PUSH1 0x64 SWAP2 DIV LT ISZERO PUSH2 0x2E4E JUMP JUMPDEST DUP1 EXTCODESIZE ISZERO PUSH2 0x55C JUMPI PUSH0 DUP1 SWAP2 PUSH1 0x4 PUSH1 0x40 MLOAD DUP1 SWAP5 DUP2 SWAP4 PUSH32 0xF47B45E800000000000000000000000000000000000000000000000000000000 DUP4 MSTORE GAS CALL DUP1 ISZERO PUSH2 0x22E6 JUMPI PUSH2 0x22D0 JUMPI POP DUP1 RETURN JUMPDEST SWAP1 POP PUSH8 0xFFFFFFFFFFFFFFFF DUP2 GT PUSH2 0x15F4 JUMPI PUSH1 0x40 MSTORE STOP JUMPDEST PUSH1 0x40 MLOAD RETURNDATASIZE PUSH0 DUP3 RETURNDATACOPY RETURNDATASIZE SWAP1 REVERT JUMPDEST PUSH32 0x4E487B7100000000000000000000000000000000000000000000000000000000 PUSH0 MSTORE PUSH1 0x12 PUSH1 0x4 MSTORE PUSH1 0x24 PUSH0 REVERT JUMPDEST PUSH32 0x4E487B7100000000000000000000000000000000000000000000000000000000 PUSH0 MSTORE PUSH1 0x11 PUSH1 0x4 MSTORE PUSH1 0x24 PUSH0 REVERT JUMPDEST SWAP1 DUP1 SWAP3 SWAP4 POP DUP2 RETURNDATASIZE DUP4 GT PUSH2 0x2374 JUMPI JUMPDEST PUSH2 0x2363 DUP2 DUP4 PUSH2 0x2B21 JUMP JUMPDEST DUP2 ADD SUB SLT PUSH2 0x55C JUMPI MLOAD SWAP1 PUSH0 DUP1 PUSH2 0x225F JUMP JUMPDEST POP RETURNDATASIZE PUSH2 0x2359 JUMP JUMPDEST SWAP1 POP DUP2 DUP2 DUP2 RETURNDATASIZE DUP4 GT PUSH2 0x23A1 JUMPI JUMPDEST PUSH2 0x2392 DUP2 DUP4 PUSH2 0x2B21 JUMP JUMPDEST DUP2 ADD SUB SLT PUSH2 0x55C JUMPI MLOAD PUSH0 PUSH2 0x2222 JUMP JUMPDEST POP RETURNDATASIZE PUSH2 0x2388 JUMP JUMPDEST CALLVALUE PUSH2 0x55C JUMPI PUSH0 PUSH32 0xFFFFFFFFFFFFFFFFFFFFFFFFFFFFFFFFFFFFFFFFFFFFFFFFFFFFFFFFFFFFFFFC CALLDATASIZE ADD SLT PUSH2 0x55C JUMPI PUSH20 0xFFFFFFFFFFFFFFFFFFFFFFFFFFFFFFFFFFFFFFFF PUSH32 0x0 AND ADDRESS SUB PUSH2 0x243D JUMPI PUSH1 0x20 PUSH1 0x40 MLOAD PUSH32 0x360894A13BA1A3210667C828492DB98DCA3E2076CC3735A920A3CA505D382BBC DUP2 MSTORE RETURN JUMPDEST PUSH1 0x4 PUSH1 0x40 MLOAD PUSH32 0xE07C8DBA00000000000000000000000000000000000000000000000000000000 DUP2 MSTORE REVERT JUMPDEST PUSH1 0x40 PUSH32 0xFFFFFFFFFFFFFFFFFFFFFFFFFFFFFFFFFFFFFFFFFFFFFFFFFFFFFFFFFFFFFFFC CALLDATASIZE ADD SLT PUSH2 0x55C JUMPI PUSH2 0x2499 PUSH2 0x2A7D JUMP JUMPDEST PUSH1 0x24 SWAP1 DUP2 CALLDATALOAD PUSH8 0xFFFFFFFFFFFFFFFF DUP2 GT PUSH2 0x55C JUMPI CALLDATASIZE PUSH1 0x23 DUP3 ADD SLT ISZERO PUSH2 0x55C JUMPI DUP1 PUSH1 0x4 ADD CALLDATALOAD PUSH2 0x24C6 DUP2 PUSH2 0x2B62 JUMP JUMPDEST SWAP3 PUSH2 0x24D4 PUSH1 0x40 MLOAD SWAP5 DUP6 PUSH2 0x2B21 JUMP JUMPDEST DUP2 DUP5 MSTORE PUSH1 0x20 SWAP2 DUP3 DUP6 ADD SWAP4 CALLDATASIZE DUP8 DUP4 DUP4 ADD ADD GT PUSH2 0x55C JUMPI DUP2 PUSH0 SWAP3 DUP9 DUP7 SWAP4 ADD DUP8 CALLDATACOPY DUP7 ADD ADD MSTORE PUSH20 0xFFFFFFFFFFFFFFFFFFFFFFFFFFFFFFFFFFFFFFFF DUP1 PUSH32 0x0 AND DUP1 ADDRESS EQ SWAP1 DUP2 ISZERO PUSH2 0x2745 JUMPI JUMPDEST POP PUSH2 0x243D JUMPI PUSH2 0x2546 PUSH2 0x30B6 JUMP JUMPDEST DUP2 AND SWAP4 PUSH1 0x40 MLOAD PUSH32 0x52D1902D00000000000000000000000000000000000000000000000000000000 DUP2 MSTORE DUP4 DUP2 PUSH1 0x4 DUP2 DUP10 GAS STATICCALL PUSH0 SWAP2 DUP2 PUSH2 0x2716 JUMPI JUMPDEST POP PUSH2 0x25B4 JUMPI DUP7 DUP7 PUSH1 0x40 MLOAD SWAP1 PUSH32 0x4C9C8CE300000000000000000000000000000000000000000000000000000000 DUP3 MSTORE PUSH1 0x4 DUP3 ADD MSTORE REVERT JUMPDEST DUP6 SWAP1 DUP8 PUSH32 0x360894A13BA1A3210667C828492DB98DCA3E2076CC3735A920A3CA505D382BBC SWAP2 DUP3 DUP2 SUB PUSH2 0x26E8 JUMPI POP DUP5 EXTCODESIZE ISZERO PUSH2 0x26B9 JUMPI POP DUP2 PUSH32 0xFFFFFFFFFFFFFFFFFFFFFFFF0000000000000000000000000000000000000000 DUP3 SLOAD AND OR SWAP1 SSTORE PUSH1 0x40 MLOAD SWAP1 PUSH32 0xBC7CD75A20EE27FD9ADEBAB32041F755214DBC6BFFA90CC0225B39DA2E5C2D3B PUSH0 DUP1 LOG2 DUP2 MLOAD ISZERO PUSH2 0x2685 JUMPI POP PUSH0 PUSH2 0x267A SWAP5 DUP2 SWAP3 MLOAD SWAP1 DUP5 GAS DELEGATECALL SWAP1 RETURNDATASIZE ISZERO PUSH2 0x267C JUMPI RETURNDATASIZE PUSH2 0x265E DUP2 PUSH2 0x2B62 JUMP JUMPDEST SWAP1 PUSH2 0x266C PUSH1 0x40 MLOAD SWAP3 DUP4 PUSH2 0x2B21 JUMP JUMPDEST DUP2 MSTORE PUSH0 DUP2 SWAP5 RETURNDATASIZE SWAP3 ADD RETURNDATACOPY PUSH2 0x3613 JUMP JUMPDEST STOP JUMPDEST PUSH1 0x60 SWAP3 POP PUSH2 0x3613 JUMP JUMPDEST SWAP4 POP POP POP POP CALLVALUE PUSH2 0x2691 JUMPI STOP JUMPDEST DUP1 PUSH32 0xB398979F00000000000000000000000000000000000000000000000000000000 PUSH1 0x4 SWAP3 MSTORE REVERT JUMPDEST DUP3 PUSH1 0x40 MLOAD SWAP1 PUSH32 0x4C9C8CE300000000000000000000000000000000000000000000000000000000 DUP3 MSTORE PUSH1 0x4 DUP3 ADD MSTORE REVERT JUMPDEST PUSH1 0x40 MLOAD SWAP1 PUSH32 0xAA1D49A400000000000000000000000000000000000000000000000000000000 DUP3 MSTORE PUSH1 0x4 DUP3 ADD MSTORE REVERT JUMPDEST SWAP1 SWAP2 POP DUP5 DUP2 DUP2 RETURNDATASIZE DUP4 GT PUSH2 0x273E JUMPI JUMPDEST PUSH2 0x272E DUP2 DUP4 PUSH2 0x2B21 JUMP JUMPDEST DUP2 ADD SUB SLT PUSH2 0x55C JUMPI MLOAD SWAP1 DUP9 PUSH2 0x257F JUMP JUMPDEST POP RETURNDATASIZE PUSH2 0x2724 JUMP JUMPDEST SWAP1 POP DUP2 PUSH32 0x360894A13BA1A3210667C828492DB98DCA3E2076CC3735A920A3CA505D382BBC SLOAD AND EQ ISZERO DUP8 PUSH2 0x2539 JUMP JUMPDEST CALLVALUE PUSH2 0x55C JUMPI PUSH1 0x60 PUSH32 0xFFFFFFFFFFFFFFFFFFFFFFFFFFFFFFFFFFFFFFFFFFFFFFFFFFFFFFFFFFFFFFFC CALLDATASIZE ADD SLT PUSH2 0x55C JUMPI PUSH2 0x27AA PUSH2 0x2A7D JUMP JUMPDEST PUSH2 0x27B2 PUSH2 0x2AA0 JUMP JUMPDEST PUSH0 SLOAD PUSH1 0x40 MLOAD PUSH32 0x2D5E94A700000000000000000000000000000000000000000000000000000000 DUP2 MSTORE PUSH20 0xFFFFFFFFFFFFFFFFFFFFFFFFFFFFFFFFFFFFFFFF DUP5 DUP2 AND PUSH1 0x4 DUP4 ADD MSTORE DUP4 DUP2 AND PUSH1 0x24 DUP4 ADD MSTORE PUSH1 0x20 SWAP5 SWAP2 SWAP3 DUP6 SWAP1 DUP5 SWAP1 PUSH1 0x44 SWAP1 DUP3 SWAP1 DUP6 AND GAS STATICCALL SWAP1 DUP2 ISZERO PUSH2 0x22E6 JUMPI DUP6 SWAP4 PUSH0 SWAP3 PUSH2 0x28C8 JUMPI JUMPDEST POP PUSH1 0x40 MLOAD PUSH32 0x4AA0665200000000000000000000000000000000000000000000000000000000 DUP2 MSTORE PUSH20 0xFFFFFFFFFFFFFFFFFFFFFFFFFFFFFFFFFFFFFFFF SWAP4 DUP5 AND PUSH1 0x4 DUP3 ADD MSTORE SWAP5 SWAP1 SWAP3 AND PUSH1 0x24 DUP6 ADD MSTORE PUSH1 0x44 DUP1 CALLDATALOAD SWAP1 DUP6 ADD MSTORE DUP4 SWAP2 DUP3 SWAP1 DUP2 PUSH1 0x64 DUP2 ADD JUMPDEST SUB SWAP3 AND GAS STATICCALL SWAP1 DUP2 ISZERO PUSH2 0x22E6 JUMPI PUSH0 SWAP2 PUSH2 0x289B JUMPI POP PUSH1 0x40 MLOAD SWAP1 DUP2 MSTORE RETURN JUMPDEST SWAP1 POP DUP2 DUP2 DUP2 RETURNDATASIZE DUP4 GT PUSH2 0x28C1 JUMPI JUMPDEST PUSH2 0x28B2 DUP2 DUP4 PUSH2 0x2B21 JUMP JUMPDEST DUP2 ADD SUB SLT PUSH2 0x55C JUMPI MLOAD DUP3 PUSH2 0x20D3 JUMP JUMPDEST POP RETURNDATASIZE PUSH2 0x28A8 JUMP JUMPDEST DUP5 DUP2 SWAP6 SWAP3 SWAP4 POP RETURNDATASIZE DUP4 GT PUSH2 0x28FE JUMPI JUMPDEST PUSH2 0x28E0 DUP2 DUP4 PUSH2 0x2B21 JUMP JUMPDEST DUP2 ADD SUB SLT PUSH2 0x55C JUMPI PUSH2 0x2880 SWAP4 PUSH2 0x28F6 DUP7 SWAP5 PUSH2 0x2C52 JUMP JUMPDEST SWAP2 SWAP1 SWAP5 PUSH2 0x2821 JUMP JUMPDEST POP RETURNDATASIZE PUSH2 0x28D6 JUMP JUMPDEST CALLVALUE PUSH2 0x55C JUMPI PUSH0 PUSH32 0xFFFFFFFFFFFFFFFFFFFFFFFFFFFFFFFFFFFFFFFFFFFFFFFFFFFFFFFFFFFFFFFC CALLDATASIZE ADD SLT PUSH2 0x55C JUMPI PUSH1 0x20 PUSH20 0xFFFFFFFFFFFFFFFFFFFFFFFFFFFFFFFFFFFFFFFF PUSH0 SLOAD AND PUSH1 0x40 MLOAD SWAP1 DUP2 MSTORE RETURN JUMPDEST CALLVALUE PUSH2 0x55C JUMPI PUSH1 0x40 PUSH32 0xFFFFFFFFFFFFFFFFFFFFFFFFFFFFFFFFFFFFFFFFFFFFFFFFFFFFFFFFFFFFFFFC CALLDATASIZE ADD SLT PUSH2 0x55C JUMPI PUSH2 0x298C PUSH2 0x2A7D JUMP JUMPDEST PUSH2 0x2994 PUSH2 0x2AA0 JUMP JUMPDEST SWAP1 PUSH20 0xFFFFFFFFFFFFFFFFFFFFFFFFFFFFFFFFFFFFFFFF DUP1 SWAP2 AND PUSH0 MSTORE PUSH1 0x1 PUSH1 0x20 MSTORE PUSH1 0x40 PUSH0 KECCAK256 SWAP2 AND PUSH0 MSTORE PUSH1 0x20 MSTORE PUSH1 0x20 PUSH1 0x40 PUSH0 KECCAK256 SLOAD PUSH1 0x40 MLOAD SWAP1 DUP2 MSTORE RETURN JUMPDEST CALLVALUE PUSH2 0x55C JUMPI PUSH1 0x20 PUSH32 0xFFFFFFFFFFFFFFFFFFFFFFFFFFFFFFFFFFFFFFFFFFFFFFFFFFFFFFFFFFFFFFFC CALLDATASIZE ADD SLT PUSH2 0x55C JUMPI PUSH2 0xB05 PUSH2 0x2A10 PUSH2 0x2A0B PUSH2 0x2A7D JUMP JUMPDEST PUSH2 0x2D85 JUMP JUMPDEST PUSH1 0x40 MLOAD SWAP2 DUP3 SWAP2 DUP3 PUSH2 0x2AE6 JUMP JUMPDEST CALLVALUE PUSH2 0x55C JUMPI PUSH0 PUSH32 0xFFFFFFFFFFFFFFFFFFFFFFFFFFFFFFFFFFFFFFFFFFFFFFFFFFFFFFFFFFFFFFFC CALLDATASIZE ADD SLT PUSH2 0x55C JUMPI PUSH1 0x20 SWAP1 PUSH8 0xFFFFFFFFFFFFFFFF PUSH32 0xF0C57E16840DF040F15088DC2F81FE391C3923BEC73E23A9662EFC9C229C6A00 SLOAD AND DUP2 MSTORE RETURN JUMPDEST PUSH1 0x4 CALLDATALOAD SWAP1 PUSH20 0xFFFFFFFFFFFFFFFFFFFFFFFFFFFFFFFFFFFFFFFF DUP3 AND DUP3 SUB PUSH2 0x55C JUMPI JUMP JUMPDEST PUSH1 0x24 CALLDATALOAD SWAP1 PUSH20 0xFFFFFFFFFFFFFFFFFFFFFFFFFFFFFFFFFFFFFFFF DUP3 AND DUP3 SUB PUSH2 0x55C JUMPI JUMP JUMPDEST PUSH1 0x44 CALLDATALOAD SWAP1 PUSH20 0xFFFFFFFFFFFFFFFFFFFFFFFFFFFFFFFFFFFFFFFF DUP3 AND DUP3 SUB PUSH2 0x55C JUMPI JUMP JUMPDEST PUSH1 0x20 SWAP1 PUSH1 0x20 PUSH1 0x40 DUP2 DUP4 ADD SWAP3 DUP3 DUP2 MSTORE DUP6 MLOAD DUP1 SWAP5 MSTORE ADD SWAP4 ADD SWAP2 PUSH0 JUMPDEST DUP3 DUP2 LT PUSH2 0x2B0D JUMPI POP POP POP POP SWAP1 JUMP JUMPDEST DUP4 MLOAD DUP6 MSTORE SWAP4 DUP2 ADD SWAP4 SWAP3 DUP2 ADD SWAP3 PUSH1 0x1 ADD PUSH2 0x2AFF JUMP JUMPDEST SWAP1 PUSH1 0x1F PUSH32 0xFFFFFFFFFFFFFFFFFFFFFFFFFFFFFFFFFFFFFFFFFFFFFFFFFFFFFFFFFFFFFFE0 SWAP2 ADD AND DUP2 ADD SWAP1 DUP2 LT PUSH8 0xFFFFFFFFFFFFFFFF DUP3 GT OR PUSH2 0x15F4 JUMPI PUSH1 0x40 MSTORE JUMP JUMPDEST PUSH8 0xFFFFFFFFFFFFFFFF DUP2 GT PUSH2 0x15F4 JUMPI PUSH1 0x1F ADD PUSH32 0xFFFFFFFFFFFFFFFFFFFFFFFFFFFFFFFFFFFFFFFFFFFFFFFFFFFFFFFFFFFFFFE0 AND PUSH1 0x20 ADD SWAP1 JUMP JUMPDEST PUSH32 0xFFFFFFFFFFFFFFFFFFFFFFFFFFFFFFFFFFFFFFFFFFFFFFFFFFFFFFFFFFFFFFFC PUSH1 0x80 SWAP2 ADD SLT PUSH2 0x55C JUMPI PUSH20 0xFFFFFFFFFFFFFFFFFFFFFFFFFFFFFFFFFFFFFFFF SWAP1 PUSH1 0x4 CALLDATALOAD DUP3 DUP2 AND DUP2 SUB PUSH2 0x55C JUMPI SWAP2 PUSH1 0x24 CALLDATALOAD DUP2 DUP2 AND DUP2 SUB PUSH2 0x55C JUMPI SWAP2 PUSH1 0x44 CALLDATALOAD SWAP2 PUSH1 0x64 CALLDATALOAD SWAP1 DUP2 AND DUP2 SUB PUSH2 0x55C JUMPI SWAP1 JUMP JUMPDEST SWAP2 DUP2 PUSH1 0x1F DUP5 ADD SLT ISZERO PUSH2 0x55C JUMPI DUP3 CALLDATALOAD SWAP2 PUSH8 0xFFFFFFFFFFFFFFFF DUP4 GT PUSH2 0x55C JUMPI PUSH1 0x20 DUP1 DUP6 ADD SWAP5 DUP5 PUSH1 0x5 SHL ADD ADD GT PUSH2 0x55C JUMPI JUMP JUMPDEST PUSH8 0xFFFFFFFFFFFFFFFF DUP2 GT PUSH2 0x15F4 JUMPI PUSH1 0x5 SHL PUSH1 0x20 ADD SWAP1 JUMP JUMPDEST MLOAD SWAP1 PUSH20 0xFFFFFFFFFFFFFFFFFFFFFFFFFFFFFFFFFFFFFFFF DUP3 AND DUP3 SUB PUSH2 0x55C JUMPI JUMP JUMPDEST PUSH1 0x20 SWAP1 DUP2 DUP2 DUP5 SUB SLT PUSH2 0x55C JUMPI DUP1 MLOAD SWAP1 PUSH8 0xFFFFFFFFFFFFFFFF DUP3 GT PUSH2 0x55C JUMPI ADD SWAP2 DUP1 PUSH1 0x1F DUP5 ADD SLT ISZERO PUSH2 0x55C JUMPI DUP3 MLOAD PUSH2 0x2CA9 DUP2 PUSH2 0x2C3A JUMP JUMPDEST SWAP4 PUSH2 0x2CB7 PUSH1 0x40 MLOAD SWAP6 DUP7 PUSH2 0x2B21 JUMP JUMPDEST DUP2 DUP6 MSTORE DUP4 DUP1 DUP7 ADD SWAP3 PUSH1 0x5 SHL DUP3 ADD ADD SWAP3 DUP4 GT PUSH2 0x55C JUMPI DUP4 ADD SWAP1 JUMPDEST DUP3 DUP3 LT PUSH2 0x2CDE JUMPI POP POP POP POP SWAP1 JUMP JUMPDEST DUP4 DUP1 SWAP2 PUSH2 0x2CEA DUP5 PUSH2 0x2C52 JUMP JUMPDEST DUP2 MSTORE ADD SWAP2 ADD SWAP1 PUSH2 0x2CD0 JUMP JUMPDEST SWAP1 PUSH2 0x2CFF DUP3 PUSH2 0x2C3A JUMP JUMPDEST PUSH2 0x2D0C PUSH1 0x40 MLOAD SWAP2 DUP3 PUSH2 0x2B21 JUMP JUMPDEST DUP3 DUP2 MSTORE PUSH32 0xFFFFFFFFFFFFFFFFFFFFFFFFFFFFFFFFFFFFFFFFFFFFFFFFFFFFFFFFFFFFFFE0 PUSH2 0x2D3A DUP3 SWAP5 PUSH2 0x2C3A JUMP JUMPDEST ADD SWAP1 PUSH1 0x20 CALLDATASIZE SWAP2 ADD CALLDATACOPY JUMP JUMPDEST DUP1 MLOAD DUP3 LT ISZERO PUSH2 0x2D58 JUMPI PUSH1 0x20 SWAP2 PUSH1 0x5 SHL ADD ADD SWAP1 JUMP JUMPDEST PUSH32 0x4E487B7100000000000000000000000000000000000000000000000000000000 PUSH0 MSTORE PUSH1 0x32 PUSH1 0x4 MSTORE PUSH1 0x24 PUSH0 REVERT JUMPDEST SWAP1 PUSH20 0xFFFFFFFFFFFFFFFFFFFFFFFFFFFFFFFFFFFFFFFF DUP1 SWAP3 AND PUSH1 0x40 SWAP3 PUSH1 0x40 MLOAD SWAP1 PUSH32 0x67E4AC2C00000000000000000000000000000000000000000000000000000000 DUP3 MSTORE PUSH0 DUP3 PUSH1 0x4 DUP2 DUP7 GAS STATICCALL SWAP2 DUP3 ISZERO PUSH2 0x22E6 JUMPI PUSH0 SWAP3 PUSH2 0x2E32 JUMPI JUMPDEST POP PUSH2 0x2DE9 DUP3 MLOAD PUSH2 0x2CF5 JUMP JUMPDEST SWAP3 PUSH0 JUMPDEST DUP4 MLOAD DUP2 LT ISZERO PUSH2 0x2E29 JUMPI PUSH1 0x1 SWAP1 DUP3 PUSH0 MSTORE PUSH1 0x20 DUP3 DUP2 MSTORE DUP9 PUSH0 KECCAK256 SWAP1 DUP6 PUSH2 0x2E0F DUP5 DUP10 PUSH2 0x2D44 JUMP JUMPDEST MLOAD AND PUSH0 MSTORE MSTORE DUP8 PUSH0 KECCAK256 SLOAD PUSH2 0x2E22 DUP3 DUP9 PUSH2 0x2D44 JUMP JUMPDEST MSTORE ADD PUSH2 0x2DEC JUMP JUMPDEST POP SWAP3 SWAP5 POP POP POP POP JUMP JUMPDEST PUSH2 0x2E47 SWAP2 SWAP3 POP RETURNDATASIZE DUP1 PUSH0 DUP4 RETURNDATACOPY PUSH2 0x580 DUP2 DUP4 PUSH2 0x2B21 JUMP JUMPDEST SWAP1 PUSH0 PUSH2 0x2DDE JUMP JUMPDEST ISZERO PUSH2 0x2E55 JUMPI JUMP JUMPDEST PUSH1 0x64 PUSH1 0x40 MLOAD PUSH32 0x8C379A000000000000000000000000000000000000000000000000000000000 DUP2 MSTORE PUSH1 0x20 PUSH1 0x4 DUP3 ADD MSTORE PUSH1 0x14 PUSH1 0x24 DUP3 ADD MSTORE PUSH32 0x496E73756666696369656E742062616C616E6365000000000000000000000000 PUSH1 0x44 DUP3 ADD MSTORE REVERT JUMPDEST ISZERO PUSH2 0x2EBA JUMPI JUMP JUMPDEST PUSH1 0x64 PUSH1 0x40 MLOAD PUSH32 0x8C379A000000000000000000000000000000000000000000000000000000000 DUP2 MSTORE PUSH1 0x20 PUSH1 0x4 DUP3 ADD MSTORE PUSH1 0x20 PUSH1 0x24 DUP3 ADD MSTORE PUSH32 0x416D6F756E74206D7573742062652067726561746572207468616E207A65726F PUSH1 0x44 DUP3 ADD MSTORE REVERT JUMPDEST SWAP1 DUP2 PUSH1 0x20 SWAP2 SUB SLT PUSH2 0x55C JUMPI MLOAD DUP1 ISZERO ISZERO DUP2 SUB PUSH2 0x55C JUMPI SWAP1 JUMP JUMPDEST SWAP2 SWAP1 DUP3 ADD DUP1 SWAP3 GT PUSH2 0x231E JUMPI JUMP JUMPDEST SWAP2 SWAP1 DUP3 SUB SWAP2 DUP3 GT PUSH2 0x231E JUMPI JUMP JUMPDEST PUSH1 0x20 SWAP1 DUP2 DUP2 DUP5 SUB SLT PUSH2 0x55C JUMPI DUP1 MLOAD SWAP1 PUSH8 0xFFFFFFFFFFFFFFFF DUP3 GT PUSH2 0x55C JUMPI ADD SWAP2 DUP1 PUSH1 0x1F DUP5 ADD SLT ISZERO PUSH2 0x55C JUMPI DUP3 MLOAD PUSH2 0x2F80 DUP2 PUSH2 0x2C3A JUMP JUMPDEST SWAP4 PUSH2 0x2F8E PUSH1 0x40 MLOAD SWAP6 DUP7 PUSH2 0x2B21 JUMP JUMPDEST DUP2 DUP6 MSTORE DUP4 DUP1 DUP7 ADD SWAP3 PUSH1 0x5 SHL DUP3 ADD ADD SWAP3 DUP4 GT PUSH2 0x55C JUMPI DUP4 ADD SWAP1 JUMPDEST DUP3 DUP3 LT PUSH2 0x2FB5 JUMPI POP POP POP POP SWAP1 JUMP JUMPDEST DUP2 MLOAD DUP2 MSTORE SWAP1 DUP4 ADD SWAP1 DUP4 ADD PUSH2 0x2FA7 JUMP JUMPDEST SWAP2 SWAP1 DUP2 LT ISZERO PUSH2 0x2D58 JUMPI PUSH1 0x5 SHL ADD SWAP1 JUMP JUMPDEST CALLDATALOAD PUSH20 0xFFFFFFFFFFFFFFFFFFFFFFFFFFFFFFFFFFFFFFFF DUP2 AND DUP2 SUB PUSH2 0x55C JUMPI SWAP1 JUMP JUMPDEST PUSH20 0xFFFFFFFFFFFFFFFFFFFFFFFFFFFFFFFFFFFFFFFF DUP1 SWAP2 AND SWAP1 DUP2 ISZERO PUSH2 0x3086 JUMPI PUSH32 0x9016D09D72D40FDAE2FD8CEAC6B6234C7706214FD39C1CD1E609A0528C199300 DUP1 SLOAD SWAP1 DUP4 PUSH32 0xFFFFFFFFFFFFFFFFFFFFFFFF0000000000000000000000000000000000000000 DUP4 AND OR SWAP1 SSTORE AND PUSH32 0x8BE0079C531659141344CD1FD0A4F28419497F9722A3DAAFE3B4186F6B6457E0 PUSH0 DUP1 LOG3 JUMP JUMPDEST PUSH1 0x24 PUSH1 0x40 MLOAD PUSH32 0x1E4FBDF700000000000000000000000000000000000000000000000000000000 DUP2 MSTORE PUSH0 PUSH1 0x4 DUP3 ADD MSTORE REVERT JUMPDEST PUSH20 0xFFFFFFFFFFFFFFFFFFFFFFFFFFFFFFFFFFFFFFFF PUSH32 0x9016D09D72D40FDAE2FD8CEAC6B6234C7706214FD39C1CD1E609A0528C199300 SLOAD AND CALLER SUB PUSH2 0x30F6 JUMPI JUMP JUMPDEST PUSH1 0x24 PUSH1 0x40 MLOAD PUSH32 0x118CDAA700000000000000000000000000000000000000000000000000000000 DUP2 MSTORE CALLER PUSH1 0x4 DUP3 ADD MSTORE REVERT JUMPDEST PUSH32 0xFFFFFFFFFFFFFFFFFFFFFFFFFFFFFFFFFFFFFFFFFFFFFFFFFFFFFFFFFFFFFFFF DUP2 EQ PUSH2 0x231E JUMPI PUSH1 0x1 ADD SWAP1 JUMP JUMPDEST PUSH20 0xFFFFFFFFFFFFFFFFFFFFFFFFFFFFFFFFFFFFFFFF PUSH1 0x4 PUSH0 DUP3 DUP2 SLOAD AND PUSH1 0x40 MLOAD SWAP3 DUP4 DUP1 SWAP3 PUSH32 0xD88FF1F400000000000000000000000000000000000000000000000000000000 DUP3 MSTORE GAS STATICCALL SWAP1 DUP2 ISZERO PUSH2 0x22E6 JUMPI PUSH0 SWAP2 PUSH2 0x33E0 JUMPI JUMPDEST POP DUP1 MLOAD SWAP4 PUSH2 0x31B6 DUP6 PUSH2 0x2CF5 JUMP JUMPDEST SWAP2 PUSH0 SWAP4 PUSH2 0x31C2 DUP8 PUSH2 0x2C3A JUMP JUMPDEST SWAP3 PUSH2 0x31D0 PUSH1 0x40 MLOAD SWAP5 DUP6 PUSH2 0x2B21 JUMP JUMPDEST DUP8 DUP5 MSTORE PUSH32 0xFFFFFFFFFFFFFFFFFFFFFFFFFFFFFFFFFFFFFFFFFFFFFFFFFFFFFFFFFFFFFFE0 PUSH2 0x31FD DUP10 PUSH2 0x2C3A JUMP JUMPDEST ADD CALLDATASIZE PUSH1 0x20 DUP7 ADD CALLDATACOPY PUSH2 0x320D DUP9 PUSH2 0x2CF5 JUMP JUMPDEST SWAP7 PUSH0 PUSH1 0x1 SWAP2 DUP10 MLOAD ISZERO PUSH2 0x2D58 JUMPI DUP5 AND PUSH1 0x20 DUP11 ADD MSTORE JUMPDEST DUP2 DUP2 LT PUSH2 0x325A JUMPI POP POP POP POP POP POP POP POP POP POP POP PUSH1 0x40 MLOAD PUSH1 0x20 DUP2 ADD DUP2 DUP2 LT PUSH8 0xFFFFFFFFFFFFFFFF DUP3 GT OR PUSH2 0x15F4 JUMPI PUSH1 0x40 MSTORE PUSH0 DUP2 MSTORE PUSH0 CALLDATASIZE DUP2 CALLDATACOPY SWAP1 JUMP JUMPDEST DUP4 PUSH2 0x326E PUSH2 0x3267 DUP4 PUSH2 0x3126 JUMP JUMPDEST SWAP3 DUP12 PUSH2 0x2D44 JUMP JUMPDEST MLOAD AND DUP5 DUP5 AND DUP2 EQ PUSH2 0x3399 JUMPI PUSH0 JUMPDEST DUP12 DUP2 LT PUSH2 0x3289 JUMPI POP POP PUSH2 0x3221 JUMP JUMPDEST PUSH2 0x3293 DUP2 DUP10 PUSH2 0x2D44 JUMP JUMPDEST MLOAD ISZERO PUSH2 0x32A2 JUMPI JUMPDEST PUSH1 0x1 ADD PUSH2 0x327B JUMP JUMPDEST DUP6 PUSH2 0x32AD DUP3 DUP10 PUSH2 0x2D44 JUMP JUMPDEST MLOAD AND PUSH1 0x40 MLOAD SWAP1 PUSH32 0x67E4AC2C00000000000000000000000000000000000000000000000000000000 DUP3 MSTORE PUSH0 DUP3 PUSH1 0x4 DUP2 DUP5 GAS STATICCALL SWAP1 DUP2 ISZERO PUSH2 0x22E6 JUMPI DUP16 DUP6 SWAP4 PUSH0 SWAP4 PUSH2 0x337D JUMPI JUMPDEST POP DUP4 PUSH2 0x32FB DUP2 DUP6 PUSH2 0x33FA JUMP JUMPDEST SWAP3 DUP4 PUSH2 0x336B JUMPI JUMPDEST POP POP POP PUSH2 0x3311 JUMPI JUMPDEST POP POP PUSH2 0x329A JUMP JUMPDEST SWAP1 PUSH2 0x331B SWAP2 PUSH2 0x350D JUMP JUMPDEST DUP7 PUSH2 0x3326 DUP4 DUP11 PUSH2 0x2D44 JUMP JUMPDEST MLOAD AND PUSH2 0x3331 DUP13 PUSH2 0x3126 JUMP JUMPDEST SWAP12 PUSH2 0x333C SWAP1 DUP13 PUSH2 0x2D44 JUMP JUMPDEST MSTORE DUP7 DUP13 PUSH2 0x3348 DUP8 PUSH2 0x3126 JUMP JUMPDEST SWAP7 PUSH2 0x3352 SWAP2 PUSH2 0x2D44 JUMP JUMPDEST SWAP2 AND SWAP1 MSTORE PUSH2 0x3360 DUP2 DUP10 PUSH2 0x2D44 JUMP JUMPDEST PUSH1 0x1 SWAP1 MSTORE DUP2 PUSH0 PUSH2 0x330A JUMP JUMPDEST PUSH2 0x3375 SWAP4 POP PUSH2 0x3447 JUMP JUMPDEST DUP16 DUP4 PUSH0 PUSH2 0x3302 JUMP JUMPDEST PUSH2 0x3392 SWAP2 SWAP4 POP RETURNDATASIZE DUP1 PUSH0 DUP4 RETURNDATACOPY PUSH2 0x580 DUP2 DUP4 PUSH2 0x2B21 JUMP JUMPDEST SWAP2 PUSH0 PUSH2 0x32EF JUMP JUMPDEST POP POP POP POP SWAP5 POP POP POP SWAP4 POP SWAP2 POP PUSH2 0x33AE DUP3 PUSH2 0x2CF5 JUMP JUMPDEST SWAP3 PUSH0 JUMPDEST DUP4 DUP2 LT PUSH2 0x33BF JUMPI POP POP POP POP SWAP1 JUMP JUMPDEST DUP1 DUP4 PUSH2 0x33CD PUSH1 0x1 SWAP4 DUP6 PUSH2 0x2D44 JUMP JUMPDEST MLOAD AND PUSH2 0x33D9 DUP3 DUP9 PUSH2 0x2D44 JUMP JUMPDEST MSTORE ADD PUSH2 0x33B1 JUMP JUMPDEST PUSH2 0x33F4 SWAP2 POP RETURNDATASIZE DUP1 PUSH0 DUP4 RETURNDATACOPY PUSH2 0x580 DUP2 DUP4 PUSH2 0x2B21 JUMP JUMPDEST PUSH0 PUSH2 0x31A9 JUMP JUMPDEST SWAP1 PUSH0 JUMPDEST DUP3 MLOAD DUP2 LT ISZERO PUSH2 0x3440 JUMPI PUSH20 0xFFFFFFFFFFFFFFFFFFFFFFFFFFFFFFFFFFFFFFFF DUP1 PUSH2 0x3426 DUP4 DUP7 PUSH2 0x2D44 JUMP JUMPDEST MLOAD AND SWAP1 DUP4 AND EQ PUSH2 0x3438 JUMPI PUSH1 0x1 ADD PUSH2 0x33FD JUMP JUMPDEST POP POP POP PUSH1 0x1 SWAP1 JUMP JUMPDEST POP POP POP PUSH0 SWAP1 JUMP JUMPDEST PUSH1 0x4 SWAP3 SWAP2 PUSH20 0xFFFFFFFFFFFFFFFFFFFFFFFFFFFFFFFFFFFFFFFF DUP1 SWAP3 AND SWAP2 PUSH0 PUSH2 0x346E DUP5 PUSH2 0x2D85 JUMP JUMPDEST SWAP4 PUSH1 0x40 MLOAD SWAP7 DUP8 DUP1 SWAP3 PUSH32 0x67E4AC2C00000000000000000000000000000000000000000000000000000000 DUP3 MSTORE GAS STATICCALL SWAP5 DUP6 ISZERO PUSH2 0x22E6 JUMPI PUSH0 SWAP6 PUSH2 0x34F1 JUMPI JUMPDEST POP PUSH0 JUMPDEST DUP6 MLOAD DUP2 LT ISZERO PUSH2 0x34E7 JUMPI DUP2 PUSH2 0x34C0 DUP3 DUP9 PUSH2 0x2D44 JUMP JUMPDEST MLOAD AND DUP3 DUP5 AND EQ PUSH2 0x34D2 JUMPI PUSH1 0x1 ADD PUSH2 0x34AC JUMP JUMPDEST SWAP3 SWAP2 POP POP PUSH2 0x34E1 SWAP3 SWAP4 POP PUSH2 0x2D44 JUMP JUMPDEST MLOAD LT ISZERO SWAP1 JUMP JUMPDEST POP POP POP POP POP POP PUSH0 SWAP1 JUMP JUMPDEST PUSH2 0x3506 SWAP2 SWAP6 POP RETURNDATASIZE DUP1 PUSH0 DUP4 RETURNDATACOPY PUSH2 0x580 DUP2 DUP4 PUSH2 0x2B21 JUMP JUMPDEST SWAP4 PUSH0 PUSH2 0x34A9 JUMP JUMPDEST SWAP1 PUSH0 JUMPDEST DUP3 MLOAD DUP2 LT ISZERO PUSH2 0x355C JUMPI PUSH20 0xFFFFFFFFFFFFFFFFFFFFFFFFFFFFFFFFFFFFFFFF DUP1 PUSH2 0x3539 DUP4 DUP7 PUSH2 0x2D44 JUMP JUMPDEST MLOAD AND DUP2 DUP5 AND SUB PUSH2 0x354C JUMPI POP PUSH1 0x1 ADD PUSH2 0x3510 JUMP JUMPDEST SWAP3 PUSH2 0x3557 SWAP3 POP PUSH2 0x2D44 JUMP JUMPDEST MLOAD AND SWAP1 JUMP JUMPDEST PUSH1 0x64 PUSH1 0x40 MLOAD PUSH32 0x8C379A000000000000000000000000000000000000000000000000000000000 DUP2 MSTORE PUSH1 0x20 PUSH1 0x4 DUP3 ADD MSTORE PUSH1 0x17 PUSH1 0x24 DUP3 ADD MSTORE PUSH32 0x546F6B656E206E6F7420666F756E6420696E20706F6F6C000000000000000000 PUSH1 0x44 DUP3 ADD MSTORE REVERT JUMPDEST PUSH1 0xFF PUSH32 0xF0C57E16840DF040F15088DC2F81FE391C3923BEC73E23A9662EFC9C229C6A00 SLOAD PUSH1 0x40 SHR AND ISZERO PUSH2 0x35E9 JUMPI JUMP JUMPDEST PUSH1 0x4 PUSH1 0x40 MLOAD PUSH32 0xD7E6BCF800000000000000000000000000000000000000000000000000000000 DUP2 MSTORE REVERT JUMPDEST SWAP1 PUSH2 0x3652 JUMPI POP DUP1 MLOAD ISZERO PUSH2 0x3628 JUMPI DUP1 MLOAD SWAP1 PUSH1 0x20 ADD REVERT JUMPDEST PUSH1 0x4 PUSH1 0x40 MLOAD PUSH32 0x1425EA4200000000000000000000000000000000000000000000000000000000 DUP2 MSTORE REVERT JUMPDEST DUP2 MLOAD ISZERO DUP1 PUSH2 0x36AA JUMPI JUMPDEST PUSH2 0x3663 JUMPI POP SWAP1 JUMP JUMPDEST PUSH1 0x24 SWAP1 PUSH20 0xFFFFFFFFFFFFFFFFFFFFFFFFFFFFFFFFFFFFFFFF PUSH1 0x40 MLOAD SWAP2 PUSH32 0x9996B31500000000000000000000000000000000000000000000000000000000 DUP4 MSTORE AND PUSH1 0x4 DUP3 ADD MSTORE REVERT JUMPDEST POP DUP1 EXTCODESIZE ISZERO PUSH2 0x365B JUMP INVALID LOG2 PUSH5 0x6970667358 0x22 SLT KECCAK256 PUSH3 0x3ED667 DUP6 ADD 0xA6 0xAE 0xD7 CALLDATALOAD 0xEC SSTORE PUSH30 0x4BF3E4F2FBD7FE940F1F38395C9C0FC10D3AD564736F6C63430008190033 "},"gasEstimates":{"creation":{"codeDepositCost":"2811400","executionCost":"infinite","totalCost":"infinite"},"external":{"UPGRADE_INTERFACE_VERSION()":"684","addLiquidity(uint256[],address,address)":"infinite","batchSwap(address[],address[],uint256[],address[])":"infinite","changePoolFactory(address)":"26788","getAmountOut(address,address,uint256)":"infinite","getAssetReserves(address,address)":"2783","getPoolsContainingToken(address)":"infinite","getReserves(address)":"infinite","getVersion()":"2256","initialize(address)":"infinite","owner()":"2553","performRebalanceIfNeeded(address)":"infinite","poolFactory()":"2329","poolsReserves(address,address)":"2562","proxiableUUID()":"infinite","rebalanceWeights(address,address)":"infinite","reinitialize(address,uint64)":"50138","removeLiquidity(uint256,address,address)":"infinite","renounceOwnership()":"28224","smartSwap(address,address,uint256,address)":"infinite","swap(address,address,uint256,address)":"infinite","transferOwnership(address)":"28607","upgradeToAndCall(address,bytes)":"infinite"},"internal":{"_authorizeUpgrade(address)":"infinite","_containsToken(address[] memory,address)":"infinite","_findOptimalRoute(address,address,uint256)":"infinite","_getOtherTokenInPool(address[] memory,address)":"infinite","_hasSufficientLiquidity(contract IBaluniV1Pool,address,uint256)":"infinite"}},"methodIdentifiers":{"UPGRADE_INTERFACE_VERSION()":"ad3cb1cc","addLiquidity(uint256[],address,address)":"ec0cd2eb","batchSwap(address[],address[],uint256[],address[])":"e74e9b06","changePoolFactory(address)":"72591be5","getAmountOut(address,address,uint256)":"4aa06652","getAssetReserves(address,address)":"8628991e","getPoolsContainingToken(address)":"ae3cce1c","getReserves(address)":"3e99c1e4","getVersion()":"0d8e6e2c","initialize(address)":"c4d66de8","owner()":"8da5cb5b","performRebalanceIfNeeded(address)":"5568081a","poolFactory()":"4219dc40","poolsReserves(address,address)":"4056c37f","proxiableUUID()":"52d1902d","rebalanceWeights(address,address)":"ad414263","reinitialize(address,uint64)":"8f2248bc","removeLiquidity(uint256,address,address)":"f31abcc4","renounceOwnership()":"715018a6","smartSwap(address,address,uint256,address)":"7442eca6","swap(address,address,uint256,address)":"6e81221c","transferOwnership(address)":"f2fde38b","upgradeToAndCall(address,bytes)":"4f1ef286"}},"storageLayout":{"storage":[{"astId":4508,"contract":"contracts/BaluniV1PoolPeriphery.sol:BaluniV1PoolPeriphery","label":"poolFactory","offset":0,"slot":"0","type":"t_contract(IBaluniV1PoolFactory)6201"},{"astId":4514,"contract":"contracts/BaluniV1PoolPeriphery.sol:BaluniV1PoolPeriphery","label":"poolsReserves","offset":0,"slot":"1","type":"t_mapping(t_address,t_mapping(t_address,t_uint256))"}],"types":{"t_address":{"encoding":"inplace","label":"address","numberOfBytes":"20"},"t_contract(IBaluniV1PoolFactory)6201":{"encoding":"inplace","label":"contract IBaluniV1PoolFactory","numberOfBytes":"20"},"t_mapping(t_address,t_mapping(t_address,t_uint256))":{"encoding":"mapping","key":"t_address","label":"mapping(address => mapping(address => uint256))","numberOfBytes":"32","value":"t_mapping(t_address,t_uint256)"},"t_mapping(t_address,t_uint256)":{"encoding":"mapping","key":"t_address","label":"mapping(address => uint256)","numberOfBytes":"32","value":"t_uint256"},"t_uint256":{"encoding":"inplace","label":"uint256","numberOfBytes":"32"}}},"userdoc":{"kind":"user","methods":{},"version":1}}}}