{"contracts/BaluniV1Pool.sol":{"BaluniV1Pool":{"abi":[{"inputs":[{"internalType":"address","name":"_rebalancer","type":"address"},{"internalType":"address[]","name":"_assets","type":"address[]"},{"internalType":"uint256[]","name":"_weights","type":"uint256[]"},{"internalType":"uint256","name":"_trigger","type":"uint256"},{"internalType":"address","name":"_periphery","type":"address"}],"stateMutability":"nonpayable","type":"constructor"},{"inputs":[{"internalType":"address","name":"spender","type":"address"},{"internalType":"uint256","name":"allowance","type":"uint256"},{"internalType":"uint256","name":"needed","type":"uint256"}],"name":"ERC20InsufficientAllowance","type":"error"},{"inputs":[{"internalType":"address","name":"sender","type":"address"},{"internalType":"uint256","name":"balance","type":"uint256"},{"internalType":"uint256","name":"needed","type":"uint256"}],"name":"ERC20InsufficientBalance","type":"error"},{"inputs":[{"internalType":"address","name":"approver","type":"address"}],"name":"ERC20InvalidApprover","type":"error"},{"inputs":[{"internalType":"address","name":"receiver","type":"address"}],"name":"ERC20InvalidReceiver","type":"error"},{"inputs":[{"internalType":"address","name":"sender","type":"address"}],"name":"ERC20InvalidSender","type":"error"},{"inputs":[{"internalType":"address","name":"spender","type":"address"}],"name":"ERC20InvalidSpender","type":"error"},{"inputs":[],"name":"ReentrancyGuardReentrantCall","type":"error"},{"anonymous":false,"inputs":[{"indexed":true,"internalType":"address","name":"owner","type":"address"},{"indexed":true,"internalType":"address","name":"spender","type":"address"},{"indexed":false,"internalType":"uint256","name":"value","type":"uint256"}],"name":"Approval","type":"event"},{"anonymous":false,"inputs":[{"indexed":true,"internalType":"address","name":"user","type":"address"},{"indexed":false,"internalType":"uint256","name":"sharesBurned","type":"uint256"}],"name":"Burn","type":"event"},{"anonymous":false,"inputs":[{"indexed":true,"internalType":"address","name":"to","type":"address"},{"indexed":false,"internalType":"uint256","name":"sharesMinted","type":"uint256"}],"name":"Mint","type":"event"},{"anonymous":false,"inputs":[{"indexed":true,"internalType":"address","name":"by","type":"address"},{"indexed":false,"internalType":"address[]","name":"assets","type":"address[]"}],"name":"RebalancePerformed","type":"event"},{"anonymous":false,"inputs":[{"indexed":true,"internalType":"address","name":"user","type":"address"},{"indexed":true,"internalType":"address","name":"fromToken","type":"address"},{"indexed":true,"internalType":"address","name":"toToken","type":"address"},{"indexed":false,"internalType":"uint256","name":"amountIn","type":"uint256"},{"indexed":false,"internalType":"uint256","name":"amountOut","type":"uint256"}],"name":"Swap","type":"event"},{"anonymous":false,"inputs":[{"indexed":true,"internalType":"address","name":"from","type":"address"},{"indexed":true,"internalType":"address","name":"to","type":"address"},{"indexed":false,"internalType":"uint256","name":"value","type":"uint256"}],"name":"Transfer","type":"event"},{"anonymous":false,"inputs":[{"indexed":true,"internalType":"address","name":"user","type":"address"},{"indexed":false,"internalType":"uint256[]","name":"amountsAdded","type":"uint256[]"}],"name":"WeightsRebalanced","type":"event"},{"inputs":[],"name":"ONE","outputs":[{"internalType":"uint256","name":"","type":"uint256"}],"stateMutability":"view","type":"function"},{"inputs":[],"name":"SWAP_FEE_BPS","outputs":[{"internalType":"uint256","name":"","type":"uint256"}],"stateMutability":"view","type":"function"},{"inputs":[{"internalType":"address","name":"owner","type":"address"},{"internalType":"address","name":"spender","type":"address"}],"name":"allowance","outputs":[{"internalType":"uint256","name":"","type":"uint256"}],"stateMutability":"view","type":"function"},{"inputs":[{"internalType":"address","name":"spender","type":"address"},{"internalType":"uint256","name":"value","type":"uint256"}],"name":"approve","outputs":[{"internalType":"bool","name":"","type":"bool"}],"stateMutability":"nonpayable","type":"function"},{"inputs":[{"internalType":"uint256","name":"","type":"uint256"}],"name":"assetInfos","outputs":[{"internalType":"address","name":"asset","type":"address"},{"internalType":"uint256","name":"weight","type":"uint256"}],"stateMutability":"view","type":"function"},{"inputs":[{"internalType":"uint256","name":"assetIndex","type":"uint256"}],"name":"assetLiquidity","outputs":[{"internalType":"uint256","name":"","type":"uint256"}],"stateMutability":"view","type":"function"},{"inputs":[{"internalType":"address","name":"account","type":"address"}],"name":"balanceOf","outputs":[{"internalType":"uint256","name":"","type":"uint256"}],"stateMutability":"view","type":"function"},{"inputs":[],"name":"baseAsset","outputs":[{"internalType":"address","name":"","type":"address"}],"stateMutability":"view","type":"function"},{"inputs":[{"internalType":"address","name":"to","type":"address"}],"name":"burn","outputs":[{"internalType":"uint256[]","name":"","type":"uint256[]"}],"stateMutability":"nonpayable","type":"function"},{"inputs":[],"name":"computeTotalValuation","outputs":[{"internalType":"uint256","name":"totalVal","type":"uint256"},{"internalType":"uint256[]","name":"valuations","type":"uint256[]"}],"stateMutability":"view","type":"function"},{"inputs":[],"name":"decimals","outputs":[{"internalType":"uint8","name":"","type":"uint8"}],"stateMutability":"view","type":"function"},{"inputs":[],"name":"factory","outputs":[{"internalType":"address","name":"","type":"address"}],"stateMutability":"view","type":"function"},{"inputs":[{"internalType":"address","name":"fromToken","type":"address"},{"internalType":"address","name":"toToken","type":"address"},{"internalType":"uint256","name":"amount","type":"uint256"}],"name":"getAmountOut","outputs":[{"internalType":"uint256","name":"","type":"uint256"}],"stateMutability":"view","type":"function"},{"inputs":[{"internalType":"address","name":"asset","type":"address"}],"name":"getAssetReserve","outputs":[{"internalType":"uint256","name":"","type":"uint256"}],"stateMutability":"view","type":"function"},{"inputs":[],"name":"getAssets","outputs":[{"internalType":"address[]","name":"","type":"address[]"}],"stateMutability":"view","type":"function"},{"inputs":[],"name":"getDeviation","outputs":[{"internalType":"bool[]","name":"directions","type":"bool[]"},{"internalType":"uint256[]","name":"deviations","type":"uint256[]"}],"stateMutability":"view","type":"function"},{"inputs":[],"name":"getReserves","outputs":[{"internalType":"uint256[]","name":"","type":"uint256[]"}],"stateMutability":"view","type":"function"},{"inputs":[],"name":"getWeights","outputs":[{"internalType":"uint256[]","name":"","type":"uint256[]"}],"stateMutability":"view","type":"function"},{"inputs":[],"name":"isRebalanceNeeded","outputs":[{"internalType":"bool","name":"","type":"bool"}],"stateMutability":"view","type":"function"},{"inputs":[],"name":"liquidity","outputs":[{"internalType":"uint256","name":"","type":"uint256"}],"stateMutability":"view","type":"function"},{"inputs":[{"internalType":"address","name":"to","type":"address"},{"internalType":"uint256[]","name":"amounts","type":"uint256[]"}],"name":"mint","outputs":[{"internalType":"uint256","name":"","type":"uint256"}],"stateMutability":"nonpayable","type":"function"},{"inputs":[],"name":"name","outputs":[{"internalType":"string","name":"","type":"string"}],"stateMutability":"view","type":"function"},{"inputs":[],"name":"performRebalanceIfNeeded","outputs":[],"stateMutability":"nonpayable","type":"function"},{"inputs":[],"name":"periphery","outputs":[{"internalType":"address","name":"","type":"address"}],"stateMutability":"view","type":"function"},{"inputs":[{"internalType":"address","name":"receiver","type":"address"}],"name":"rebalanceWeights","outputs":[{"internalType":"uint256[]","name":"","type":"uint256[]"}],"stateMutability":"nonpayable","type":"function"},{"inputs":[],"name":"rebalancer","outputs":[{"internalType":"address","name":"","type":"address"}],"stateMutability":"view","type":"function"},{"inputs":[{"internalType":"address","name":"","type":"address"}],"name":"reserves","outputs":[{"internalType":"uint256","name":"","type":"uint256"}],"stateMutability":"view","type":"function"},{"inputs":[{"internalType":"address","name":"fromToken","type":"address"},{"internalType":"address","name":"toToken","type":"address"},{"internalType":"uint256","name":"amount","type":"uint256"},{"internalType":"address","name":"receiver","type":"address"}],"name":"swap","outputs":[{"internalType":"uint256","name":"toSend","type":"uint256"}],"stateMutability":"nonpayable","type":"function"},{"inputs":[],"name":"symbol","outputs":[{"internalType":"string","name":"","type":"string"}],"stateMutability":"view","type":"function"},{"inputs":[],"name":"totalSupply","outputs":[{"internalType":"uint256","name":"","type":"uint256"}],"stateMutability":"view","type":"function"},{"inputs":[{"internalType":"address","name":"to","type":"address"},{"internalType":"uint256","name":"value","type":"uint256"}],"name":"transfer","outputs":[{"internalType":"bool","name":"","type":"bool"}],"stateMutability":"nonpayable","type":"function"},{"inputs":[{"internalType":"address","name":"from","type":"address"},{"internalType":"address","name":"to","type":"address"},{"internalType":"uint256","name":"value","type":"uint256"}],"name":"transferFrom","outputs":[{"internalType":"bool","name":"","type":"bool"}],"stateMutability":"nonpayable","type":"function"},{"inputs":[],"name":"trigger","outputs":[{"internalType":"uint256","name":"","type":"uint256"}],"stateMutability":"view","type":"function"},{"inputs":[],"name":"unitPrice","outputs":[{"internalType":"uint256","name":"","type":"uint256"}],"stateMutability":"view","type":"function"},{"inputs":[{"internalType":"uint256[]","name":"amounts","type":"uint256[]"},{"internalType":"bool","name":"increase","type":"bool"}],"name":"updateReserves","outputs":[],"stateMutability":"nonpayable","type":"function"}],"devdoc":{"errors":{"ERC20InsufficientAllowance(address,uint256,uint256)":[{"details":"Indicates a failure with the `spender`’s `allowance`. Used in transfers.","params":{"allowance":"Amount of tokens a `spender` is allowed to operate with.","needed":"Minimum amount required to perform a transfer.","spender":"Address that may be allowed to operate on tokens without being their owner."}}],"ERC20InsufficientBalance(address,uint256,uint256)":[{"details":"Indicates an error related to the current `balance` of a `sender`. Used in transfers.","params":{"balance":"Current balance for the interacting account.","needed":"Minimum amount required to perform a transfer.","sender":"Address whose tokens are being transferred."}}],"ERC20InvalidApprover(address)":[{"details":"Indicates a failure with the `approver` of a token to be approved. Used in approvals.","params":{"approver":"Address initiating an approval operation."}}],"ERC20InvalidReceiver(address)":[{"details":"Indicates a failure with the token `receiver`. Used in transfers.","params":{"receiver":"Address to which tokens are being transferred."}}],"ERC20InvalidSender(address)":[{"details":"Indicates a failure with the token `sender`. Used in transfers.","params":{"sender":"Address whose tokens are being transferred."}}],"ERC20InvalidSpender(address)":[{"details":"Indicates a failure with the `spender` to be approved. Used in approvals.","params":{"spender":"Address that may be allowed to operate on tokens without being their owner."}}],"ReentrancyGuardReentrantCall()":[{"details":"Unauthorized reentrant call."}]},"events":{"Approval(address,address,uint256)":{"details":"Emitted when the allowance of a `spender` for an `owner` is set by a call to {approve}. `value` is the new allowance."},"Transfer(address,address,uint256)":{"details":"Emitted when `value` tokens are moved from one account (`from`) to another (`to`). Note that `value` may be zero."}},"kind":"dev","methods":{"allowance(address,address)":{"details":"See {IERC20-allowance}."},"approve(address,uint256)":{"details":"See {IERC20-approve}. NOTE: If `value` is the maximum `uint256`, the allowance is not updated on `transferFrom`. This is semantically equivalent to an infinite approval. Requirements: - `spender` cannot be the zero address."},"assetLiquidity(uint256)":{"details":"Returns the liquidity of a specific asset in the pool.","params":{"assetIndex":"The index of the asset."},"returns":{"_0":"The liquidity of the asset."}},"balanceOf(address)":{"details":"See {IERC20-balanceOf}."},"burn(address)":{"details":"Burns the pool tokens and transfers the underlying assets to the specified address.","params":{"to":"The address to transfer the underlying assets to."}},"computeTotalValuation()":{"details":"Computes the total valuation of the pool and returns the total valuation and an array of individual valuations.","returns":{"totalVal":"The total valuation of the pool.","valuations":"An array of individual valuations."}},"constructor":{"details":"Initializes a new instance of the BaluniV1Pool contract.","params":{"_assets":"An array of addresses representing the assets in the pool.","_periphery":"The address of the periphery contract.","_rebalancer":"The address of the rebalancer contract.","_trigger":"The trigger value for rebalancing the pool.","_weights":"An array of weights corresponding to the assets in the pool."}},"decimals()":{"details":"Returns the number of decimals used to get its user representation. For example, if `decimals` equals `2`, a balance of `505` tokens should be displayed to a user as `5.05` (`505 / 10 ** 2`). Tokens usually opt for a value of 18, imitating the relationship between Ether and Wei. This is the default value returned by this function, unless it's overridden. NOTE: This information is only used for _display_ purposes: it in no way affects any of the arithmetic of the contract, including {IERC20-balanceOf} and {IERC20-transfer}."},"getAmountOut(address,address,uint256)":{"details":"Calculates the amount of `toToken` that will be received when swapping `fromToken` for `toToken`.","params":{"amount":"The amount of `fromToken` being swapped.","fromToken":"The address of the token being swapped from.","toToken":"The address of the token being swapped to."},"returns":{"_0":"The amount of `toToken` that will be received."}},"getAssetReserve(address)":{"details":"Returns the reserve amount of the specified asset.","params":{"asset":"The address of the asset."},"returns":{"_0":"The reserve amount of the asset."}},"getAssets()":{"details":"Retrieves the list of assets in the pool.","returns":{"_0":"An array of addresses representing the assets."}},"getDeviation()":{"details":"Returns the deviation between the current weights and target weights of the assets in the pool.","returns":{"directions":"An array of boolean values indicating whether the current weight is higher (true) or lower (false) than the target weight."}},"getReserves()":{"details":"Returns an array of reserves for each asset in the pool.","returns":{"_0":"An array of reserves."}},"getWeights()":{"details":"Retrieves the list of weights associated with the assets in the pool.","returns":{"_0":"An array of uint256 values representing the weights."}},"isRebalanceNeeded()":{"details":"Checks if rebalancing is needed for the pool.","returns":{"_0":"A boolean value indicating whether rebalancing is needed or not."}},"liquidity()":{"details":"Returns the total liquidity of the pool.","returns":{"_0":"The total liquidity of the pool."}},"mint(address,uint256[])":{"details":"Mints new tokens and adds them to the specified address.","params":{"to":"The address to which the new tokens will be minted."},"returns":{"_0":"The amount of tokens minted."}},"name()":{"details":"Returns the name of the token."},"performRebalanceIfNeeded()":{"details":"Performs rebalance"},"rebalanceWeights(address)":{"details":"Rebalances the weights of the pool by calculating the amounts to add for each token, transferring the calculated amounts from the user to the pool, minting the total added liquidity, updating the reserves, and emitting an event to indicate the rebalancing of weights.","params":{"receiver":"The address to receive the minted liquidity tokens."}},"swap(address,address,uint256,address)":{"details":"Swaps `amount` of `fromToken` to `toToken` and transfers the received amount to `receiver`. Requirements: - `fromToken` and `toToken` must be different tokens. - `amount` must be greater than zero. - Sufficient liquidity of `toToken` must be available in the contract. Emits a `Swap` event with the details of the swap. Updates the reserves after the swap.","params":{"amount":"The amount of `fromToken` to swap.","fromToken":"The address of the token to swap from.","receiver":"The address to receive the swapped tokens.","toToken":"The address of the token to swap to."},"returns":{"toSend":"The amount of `toToken` received after the swap."}},"symbol()":{"details":"Returns the symbol of the token, usually a shorter version of the name."},"totalSupply()":{"details":"See {IERC20-totalSupply}."},"transfer(address,uint256)":{"details":"See {IERC20-transfer}. Requirements: - `to` cannot be the zero address. - the caller must have a balance of at least `value`."},"transferFrom(address,address,uint256)":{"details":"See {IERC20-transferFrom}. Emits an {Approval} event indicating the updated allowance. This is not required by the EIP. See the note at the beginning of {ERC20}. NOTE: Does not update the allowance if the current allowance is the maximum `uint256`. Requirements: - `from` and `to` cannot be the zero address. - `from` must have a balance of at least `value`. - the caller must have allowance for ``from``'s tokens of at least `value`."},"unitPrice()":{"details":"Returns the unit price of the pool.","returns":{"_0":"The unit price of the pool."}},"updateReserves(uint256[],bool)":{"details":"Updates the reserves of the pool with the given amounts.","params":{"amounts":"An array of amounts to update the reserves with.","increase":"A boolean indicating whether to increase or decrease the reserves."}}},"version":1},"evm":{"bytecode":{"linkReferences":{},"object":"6080806040523461043957613700803803809161001c82856108fe565b8339810160a0828203126104395761003382610921565b60208301519091906001600160401b0381116104395783019181601f840112156104395782519261006384610935565b9361007160405195866108fe565b80855260208086019160051b8301019184831161043957602001905b8282106108cb5750505060408401516001600160401b0381116104395784019180601f840112156104395782516100c381610935565b936100d160405195866108fe565b81855260208086019260051b82010192831161043957602001905b8282106108bb57505050610107608060608601519501610921565b604051610113816108e3565b6009815268042616c756e69204c560bc1b602082015260405190610136826108e3565b6009825268042414c554e492d4c560bc1b60208301528051906001600160401b0382116104965760035490600182811c921680156108b1575b60208310146107925781601f849311610843575b50602090601f83116001146107bb575f926107b0575b50508160011b915f199060031b1c1916176003555b8051906001600160401b0382116104965760045490600182811c921680156107a6575b60208310146107925781601f849311610724575b50602090601f83116001146106a0575f92610695575b50508160011b915f199060031b1c1916176004555b6001600555600980546001600160a01b03199081166001600160a01b0393841617909155600a8054821633179055600c8054909116918316919091179055670de0b6b3a76400006008558251825103610645575f5b8351811015610525576001600160a01b03610280828661094c565b5116156104e057610291818461094c565b51156104aa576001600160a01b036102a9828661094c565b51166102b5828561094c565b5160408051929083018084116001600160401b0390911117610496576040830160405282526020820152600654680100000000000000008110156104965760018101806006558110156104825760065f5281517ff652222313e28459528d920b65115c16c04f3efc82aaedc97be59f3f377c0d3f60019290921b91820180546001600160a01b039283166001600160a01b03199091161790556020909201517ff652222313e28459528d920b65115c16c04f3efc82aaedc97be59f3f377c0d4090910155610383828661094c565b511660018060a01b03600c5416604051636eb1769f60e11b8152306004820152816024820152602081604481865afa908115610445575f91610450575b50156103d1575b5050600101610265565b5f916044602092604051948593849263095ea7b360e01b84526004840152811960248401525af1801561044557610409575b806103c7565b6020813d60201161043d575b81610422602093836108fe565b81010312610439575180151503610439575f610403565b5f80fd5b3d9150610415565b6040513d5f823e3d90fd5b90506020813d60201161047a575b8161046b602093836108fe565b8101031261043957515f6103c0565b3d915061045e565b634e487b7160e01b5f52603260045260245ffd5b634e487b7160e01b5f52604160045260245ffd5b60405162461bcd60e51b815260206004820152600e60248201526d125b9d985b1a59081dd95a59da1d60921b6044820152606490fd5b60405162461bcd60e51b815260206004820152601560248201527f496e76616c6964206173736574206164647265737300000000000000000000006044820152606490fd5b5060078490556040516389a3027160e01b815290602090829060049082906001600160a01b03165afa908115610445575f9161060b575b50600b80546001600160a01b0319166001600160a01b03929092169190911790555f90815b81518310156105bd57610594838361094c565b5181018091116105a957600190920191610581565b634e487b7160e01b5f52601160045260245ffd5b612710036105d457604051612d9f90816109618239f35b60405162461bcd60e51b815260206004820152600f60248201526e496e76616c6964207765696768747360881b6044820152606490fd5b90506020813d60201161063d575b81610626602093836108fe565b810103126104395761063790610921565b8261055c565b3d9150610619565b60405162461bcd60e51b815260206004820152602260248201527f41737365747320616e642077656967687473206c656e677468206d69736d61746044820152610c6d60f31b6064820152608490fd5b015190505f806101fb565b60045f9081527f8a35acfbc15ff81a39ae7d344fd709f28e8600b4aa8c65c6b64bfe7fe36bd19b9350601f198516905b81811061070c57509084600195949392106106f4575b505050811b01600455610210565b01515f1960f88460031b161c191690555f80806106e6565b929360206001819287860151815501950193016106d0565b60045f529091507f8a35acfbc15ff81a39ae7d344fd709f28e8600b4aa8c65c6b64bfe7fe36bd19b601f840160051c81019160208510610788575b90601f859493920160051c01905b81811061077a57506101e5565b5f815584935060010161076d565b909150819061075f565b634e487b7160e01b5f52602260045260245ffd5b91607f16916101d1565b015190505f80610199565b60035f90815293507fc2575a0e9e593c00f959f8c92f12db2869c3395a3b0502d05e2516446f71f85b91905b601f1984168510610828576001945083601f19811610610810575b505050811b016003556101ae565b01515f1960f88460031b161c191690555f8080610802565b818101518355602094850194600190930192909101906107e7565b60035f529091507fc2575a0e9e593c00f959f8c92f12db2869c3395a3b0502d05e2516446f71f85b601f840160051c810191602085106108a7575b90601f859493920160051c01905b8181106108995750610183565b5f815584935060010161088c565b909150819061087e565b91607f169161016f565b81518152602091820191016100ec565b602080916108d884610921565b81520191019061008d565b604081019081106001600160401b0382111761049657604052565b601f909101601f19168101906001600160401b0382119082101761049657604052565b51906001600160a01b038216820361043957565b6001600160401b0381116104965760051b60200190565b80518210156104825760209160051b01019056fe60806040818152600480361015610014575f80fd5b5f925f3560e01c90816301d22ccd1461225e5750806306fdde03146121145780630723c99914611e3a5780630902f1ac14611dec578063095ea7b314611ce657806318160ddd14611caa5780631a68650214611c6857806322acb86714611bed57806323b872dd14611a99578063313ce56714611a6057806336bf6e3914611a0e5780633dff5b7f146119255780634aa066521461190a57806367a6c440146118d157806367e4ac2c146118425780636e81221c146115cf57806370a082311461156e57806377aace1a1461151c5780637fec8d38146114e057806389ab35321461145857806389afcb4414610f3f5780638a77c8dc14610efc57806395d89b4114610da8578063a9059cbb14610d5a578063b2b55d7014610ae5578063c2ee3a0814610d1e578063c45a015514610ccc578063cdf456e114610c7a578063cf8fa76414610bc1578063d14ef46d14610b47578063d66bd52414610ae5578063dd62ed3e14610a70578063de836ebd14610675578063e73faa2d146106345763f47b45e8146101a1575f80fd5b346104f1577ffffffffffffffffffffffffffffffffffffffffffffffffffffffffffffffffc915f833601126104f15773ffffffffffffffffffffffffffffffffffffffff938460095416926101f8843314612561565b610208610203612a1d565b6125c6565b600691600654916102188361262b565b966102228461262b565b61022b8561262b565b908a6102368761262b565b936102408861262b565b9a61024a8961262b565b985f8e5b8282106105585750505061026061268e565b9083600c54169060075494600b541693823b156104f1578f966102c7968f9660e0946102e85f99958f956102d98c98519d8e9c8d9b8c9a7ff0bf7714000000000000000000000000000000000000000000000000000000008c528b015260e48a019061233a565b60249f848a83030160248b01526124b3565b9187830301604488015261233a565b92606485015280608485015260a484015260c483015203925af1801561054e57610506575b5084600654948c60095416915b8d8d8883106103f3578d8d8d8d8d5f5b835481101561036c5780886103406001936124fc565b50541661034d828961267a565b51905f52600d602052610364875f20918254612a73565b90550161032a565b50928693865f5b85548110156103b55780876103896001936124fc565b505416610396828861267a565b51905f52600d6020526103ad865f209182546128a6565b905501610373565b507f279b343370f587af7fb675ae7c8578e9c8abcc373236ad02c501a4771fe7a7b8835160208152806103ed339460208301906124b3565b0390a280f35b826103fd9161267a565b5116908b5180927f70a082310000000000000000000000000000000000000000000000000000000082528585830152818760209384935afa9081156104fc578a916104c9575b5060019250610452828961267a565b5261045d818861267a565b51610468828861267a565b5110156104a1578c61049982610493610481828c61267a565b5161048c838c61267a565b51906128a6565b9261267a565b525b0161031a565b6104b96104ae828861267a565b5161048c838a61267a565b6104c3828c61267a565b5261049b565b905082813d83116104f5575b6104df81836123cd565b810103126104f157600191515f610443565b5f80fd5b503d6104d5565b8d513d8c823e3d90fd5b90945067ffffffffffffffff81116105225787525f935f61030d565b6041847f4e487b71000000000000000000000000000000000000000000000000000000005f525260245ffd5b89513d5f823e3d90fd5b81610598918761056c8396979899956124fc565b505416610579838361267a565b526001610585836124fc565b500154610592838b61267a565b5261267a565b5116908c5180927f70a08231000000000000000000000000000000000000000000000000000000008252858b83015281602460209384935afa90811561062a575f916105fb575b50600192506105ee828961267a565b5201908e9392918e61024e565b905082813d8311610623575b61061181836123cd565b810103126104f157600191515f6105df565b503d610607565b8e513d5f823e3d90fd5b82346104f1575f7ffffffffffffffffffffffffffffffffffffffffffffffffffffffffffffffffc3601126104f15760209061066e612a80565b9051908152f35b50346104f157817ffffffffffffffffffffffffffffffffffffffffffffffffffffffffffffffffc3601126104f1576106ac6122f4565b91602492833567ffffffffffffffff81116104f1576106ce9036908501612453565b9273ffffffffffffffffffffffffffffffffffffffff936106f485600954163314612561565b6002545f9161070161268e565b9060065491518203610a145781156109b857905f915b81831061097f5750505081156108fd57806108525750935b84156107f6576107628591335f525f602052855f2054946107508482612b58565b1693845f525f602052855f20546128a6565b0361079a5750602093507f0f6798a560793a54c3bcfe86a93cde1e73087d944c0ea20544137d4121396885848351858152a251908152f35b606490600b8660208651937f08c379a00000000000000000000000000000000000000000000000000000000085528401528201527f4d696e74204661696c65640000000000000000000000000000000000000000006044820152fd5b606482600d8860208851937f08c379a00000000000000000000000000000000000000000000000000000000085528401528201527f4d696e74207174792069732030000000000000000000000000000000000000006044820152fd5b61085a612aab565b5091821561087b5761087592916108709161282f565b61286f565b9361072f565b60848460268a60208a51937f08c379a00000000000000000000000000000000000000000000000000000000085528401528201527f546f74616c206c6971756964697479206d75737420626520677265617465722060448201527f7468616e203000000000000000000000000000000000000000000000000000006064820152fd5b60848360228960208951937f08c379a00000000000000000000000000000000000000000000000000000000085528401528201527f546f74616c2076616c7565206d7573742062652067726561746572207468616e60448201527f20300000000000000000000000000000000000000000000000000000000000006064820152fd5b9091936109af6001916109a98b610995896124fc565b5054166109a2898761267a565b5190612cff565b90612a73565b94019190610717565b60648560098b60208b51937f08c379a00000000000000000000000000000000000000000000000000000000085528401528201527f4e6f2061737365747300000000000000000000000000000000000000000000006044820152fd5b60648560178b60208b51937f08c379a00000000000000000000000000000000000000000000000000000000085528401528201527f496e76616c6964207265736572766573206c656e6774680000000000000000006044820152fd5b82346104f157807ffffffffffffffffffffffffffffffffffffffffffffffffffffffffffffffffc3601126104f157602090610aaa6122f4565b610ab2612317565b9073ffffffffffffffffffffffffffffffffffffffff8091165f5260018452825f2091165f528252805f20549051908152f35b82346104f15760207ffffffffffffffffffffffffffffffffffffffffffffffffffffffffffffffffc3601126104f15760209073ffffffffffffffffffffffffffffffffffffffff610b356122f4565b165f52600d8252805f20549051908152f35b50346104f15760207ffffffffffffffffffffffffffffffffffffffffffffffffffffffffffffffffc3601126104f157356006548110156104f157610b8b906124fc565b508054600190910154915173ffffffffffffffffffffffffffffffffffffffff90911681526020810191909152604090f35b0390f35b50346104f15760207ffffffffffffffffffffffffffffffffffffffffffffffffffffffffffffffffc3601126104f157803590610bfc612aab565b8092915051831015610c1d57602084610c15858561267a565b519051908152f35b60649060208551917f08c379a0000000000000000000000000000000000000000000000000000000008352820152601360248201527f496e76616c696420617373657420696e646578000000000000000000000000006044820152fd5b82346104f1575f7ffffffffffffffffffffffffffffffffffffffffffffffffffffffffffffffffc3601126104f15760209073ffffffffffffffffffffffffffffffffffffffff600b54169051908152f35b82346104f1575f7ffffffffffffffffffffffffffffffffffffffffffffffffffffffffffffffffc3601126104f15760209073ffffffffffffffffffffffffffffffffffffffff600a54169051908152f35b82346104f1575f7ffffffffffffffffffffffffffffffffffffffffffffffffffffffffffffffffc3601126104f1576020906008549051908152f35b82346104f157807ffffffffffffffffffffffffffffffffffffffffffffffffffffffffffffffffc3601126104f157602090610da1610d976122f4565b6024359033612bf2565b5160018152f35b5090346104f1575f7ffffffffffffffffffffffffffffffffffffffffffffffffffffffffffffffffc3601126104f1578051905f9280549060018260011c9160018416938415610ef2575b6020948585108114610ec657848852908115610e865750600114610e2d575b610bbd8686610e23828b03836123cd565b51918291826122ac565b5f9081529295507f8a35acfbc15ff81a39ae7d344fd709f28e8600b4aa8c65c6b64bfe7fe36bd19b5b828410610e735750505082610bbd94610e23928201019486610e12565b8054868501880152928601928101610e56565b7fffffffffffffffffffffffffffffffffffffffffffffffffffffffffffffff001687860152505050151560051b8301019250610e2382610bbd86610e12565b6022837f4e487b71000000000000000000000000000000000000000000000000000000005f525260245ffd5b92607f1692610df3565b82346104f1575f7ffffffffffffffffffffffffffffffffffffffffffffffffffffffffffffffffc3601126104f157602090610f36612a1d565b90519015158152f35b5090346104f157602090817ffffffffffffffffffffffffffffffffffffffffffffffffffffffffffffffffc3601126104f157610f7a6122f4565b73ffffffffffffffffffffffffffffffffffffffff806009541691610fa0833314612561565b305f525f8552835f20549586156113fc576002549687156113a057600654610fc78161262b565b98601e8302838104601e0361137457612710610fe5910480946128a6565b965f5b8381106112bb5750505050305f525f875261100885875f205410156129b8565b818785600c54168851928380927f61d027b30000000000000000000000000000000000000000000000000000000082525afa9081156112b1579088915f91611277575b5087517fa9059cbb00000000000000000000000000000000000000000000000000000000815273ffffffffffffffffffffffffffffffffffffffff909116848201908152602081019390935291829081906040015b03815f305af190811561126d575f91611237575b50156111db57305f525f86526110cf84865f205410156129b8565b30156111ac57305f525f8652845f205490848210611168575083927fcc16f5dbb4873280815c1ee09dbd06736cffcc184412cf7a71a0fdb75d397ca592610bbd96958893305f525f855203865f205584600254036002555f86518681527fddf252ad1be2c89b69c2b068fc378daa952ba7f163c4a11628f55a4df523b3ef853092a385519485521692a25192828493845283019061233a565b85517fe450d38c0000000000000000000000000000000000000000000000000000000081523091810191825260208201929092526040810185905281906060010390fd5b6024905f8651917f96c6fd1e000000000000000000000000000000000000000000000000000000008352820152fd5b606490868651917f08c379a0000000000000000000000000000000000000000000000000000000008352820152601360248201527f466565207472616e73666572206661696c6564000000000000000000000000006044820152fd5b90508681813d8311611266575b61124e81836123cd565b810103126104f1575180151581036104f157886110b4565b503d611244565b86513d5f823e3d90fd5b82819392503d83116112aa575b61128e81836123cd565b810103126104f1575184811681036104f15787906110a061104b565b503d611284565b87513d5f823e3d90fd5b876112c5826124fc565b5054168a51907fa3e113fb000000000000000000000000000000000000000000000000000000008252308883015260248201528b81604481865afa90811561136a578a8593928f925f91611330575b5061049360019561087061132994879461282f565b5201610fe8565b94505050508b82813d8311611363575b61134a81836123cd565b810103126104f15790518391908d908b90610493611314565b503d611340565b8b513d5f823e3d90fd5b6011857f4e487b71000000000000000000000000000000000000000000000000000000005f525260245ffd5b606482888851917f08c379a0000000000000000000000000000000000000000000000000000000008352820152600c60248201527f4e6f206c697175696469747900000000000000000000000000000000000000006044820152fd5b606490868651917f08c379a0000000000000000000000000000000000000000000000000000000008352820152601c60248201527f5368617265206d7573742062652067726561746572207468616e2030000000006044820152fd5b82346104f1575f7ffffffffffffffffffffffffffffffffffffffffffffffffffffffffffffffffc3601126104f15761148f6128b3565b8251928391818301918352835180925260608301916020809501945f5b8281106114c7578580610bbd8787838203602085015261233a565b86511515855295810195879550938101936001016114ac565b82346104f1575f7ffffffffffffffffffffffffffffffffffffffffffffffffffffffffffffffffc3601126104f1576020906007549051908152f35b82346104f1575f7ffffffffffffffffffffffffffffffffffffffffffffffffffffffffffffffffc3601126104f15760209073ffffffffffffffffffffffffffffffffffffffff600954169051908152f35b82346104f15760207ffffffffffffffffffffffffffffffffffffffffffffffffffffffffffffffffc3601126104f15760209073ffffffffffffffffffffffffffffffffffffffff6115be6122f4565b165f525f8252805f20549051908152f35b5090346104f15760807ffffffffffffffffffffffffffffffffffffffffffffffffffffffffffffffffc3601126104f1576116086122f4565b90611611612317565b6044359260643573ffffffffffffffffffffffffffffffffffffffff928382168092036104f15760026005541461181a576002600555838116938316928484146117bd57861561176057611666918791612786565b95835f52600d60205286855f20541061170357601e870290878204601e14881517156116d75750846116c06020986127107fcd3829a3813dc3cdd188fd3d01dcf3268c16be2fdd2dd21d0665418816e460629404906128a6565b9681519081528789820152a4600160055551908152f35b6011907f4e487b71000000000000000000000000000000000000000000000000000000005f525260245ffd5b60649060208651917f08c379a0000000000000000000000000000000000000000000000000000000008352820152601660248201527f496e73756666696369656e74204c6971756964697479000000000000000000006044820152fd5b60648860208851917f08c379a0000000000000000000000000000000000000000000000000000000008352820152602060248201527f416d6f756e74206d7573742062652067726561746572207468616e207a65726f6044820152fd5b60648860208851917f08c379a0000000000000000000000000000000000000000000000000000000008352820152601a60248201527f43616e6e6f742073776170207468652073616d6520746f6b656e0000000000006044820152fd5b8685517f3ee5aeb5000000000000000000000000000000000000000000000000000000008152fd5b82346104f1575f7ffffffffffffffffffffffffffffffffffffffffffffffffffffffffffffffffc3601126104f15760065461187d8161262b565b905f5b81811061189c57835160208082528190610bbd908201866124b3565b8073ffffffffffffffffffffffffffffffffffffffff6118bd6001936124fc565b5054166118ca828661267a565b5201611880565b82346104f1575f7ffffffffffffffffffffffffffffffffffffffffffffffffffffffffffffffffc3601126104f15760209051601e8152f35b82346104f15760209061066e61191f3661236d565b91612786565b50346104f157817ffffffffffffffffffffffffffffffffffffffffffffffffffffffffffffffffc3601126104f15780359067ffffffffffffffff82116104f15761197291369101612453565b9060243580151581036104f15773ffffffffffffffffffffffffffffffffffffffff926119a484600954163314612561565b5f5b600654811015611a0c5780856119bd6001936124fc565b5054166119ca828561267a565b519085156119f0575f52600d6020526119e7865f20918254612a73565b90555b016119a6565b5f52600d602052611a05865f209182546128a6565b90556119ea565b005b82346104f1575f7ffffffffffffffffffffffffffffffffffffffffffffffffffffffffffffffffc3601126104f157610bbd611a48612aab565b8392919251938493845280602085015283019061233a565b82346104f1575f7ffffffffffffffffffffffffffffffffffffffffffffffffffffffffffffffffc3601126104f1576020905160128152f35b50346104f157611aa83661236d565b9273ffffffffffffffffffffffffffffffffffffffff83929316805f526001602052855f20335f52602052855f2054917fffffffffffffffffffffffffffffffffffffffffffffffffffffffffffffffff8303611b0e575b602087610da1888888612bf2565b858310611ba8578115611b79573315611b4a57505f90815260016020908152868220338352815290869020918590039091558290610da1611b00565b6024905f8851917f94280d62000000000000000000000000000000000000000000000000000000008352820152fd5b6024905f8851917fe602df05000000000000000000000000000000000000000000000000000000008352820152fd5b86517ffb8f41b2000000000000000000000000000000000000000000000000000000008152339181019182526020820193909352604081018690528291506060010390fd5b82346104f1575f7ffffffffffffffffffffffffffffffffffffffffffffffffffffffffffffffffc3601126104f157600654611c288161262b565b905f5b818110611c4757835160208082528190610bbd9082018661233a565b806001611c5481936124fc565b500154611c61828661267a565b5201611c2b565b82346104f1575f7ffffffffffffffffffffffffffffffffffffffffffffffffffffffffffffffffc3601126104f157602090611ca2612aab565b509051908152f35b82346104f1575f7ffffffffffffffffffffffffffffffffffffffffffffffffffffffffffffffffc3601126104f1576020906002549051908152f35b5090346104f157807ffffffffffffffffffffffffffffffffffffffffffffffffffffffffffffffffc3601126104f157611d1e6122f4565b602435903315611dbd5773ffffffffffffffffffffffffffffffffffffffff16908115611d8e5760209350335f5260018452825f20825f52845280835f205582519081527f8c5be1e5ebec7d5bd14f71427d1e84f3dd0314c0f7b2291e5b200ac8c7c3b925843392a35160018152f35b6024845f8551917f94280d62000000000000000000000000000000000000000000000000000000008352820152fd5b6024845f8551917fe602df05000000000000000000000000000000000000000000000000000000008352820152fd5b82346104f1575f7ffffffffffffffffffffffffffffffffffffffffffffffffffffffffffffffffc3601126104f157610bbd90611e2761268e565b905191829160208352602083019061233a565b50346104f157602091827ffffffffffffffffffffffffffffffffffffffffffffffffffffffffffffffffc3601126104f157611e746122f4565b9173ffffffffffffffffffffffffffffffffffffffff93611e9a85600954163314612561565b611ea5610203612a1d565b611ead612aab565b6006549491611ebb8661262b565b915f5b8781106120bf575050505f945f5b8181106120a05750611edd9061262b565b945f5b825181101561204857611ef3818461267a565b51611f01575b600101611ee0565b611f0b818461267a565b51858a611f17846124fc565b5054168b600c54168c600b54168a611f868a51968795869485947f248391ff000000000000000000000000000000000000000000000000000000008652850160409194939294606082019573ffffffffffffffffffffffffffffffffffffffff80921683521660208201520152565b03915afa90811561203e575f91612011575b508015611fb55790600191611fad828a61267a565b529050611ef9565b606487878751917f08c379a0000000000000000000000000000000000000000000000000000000008352820152601b60248201527f496e76616c696420746f6b656e20616d6f756e7420746f2061646400000000006044820152fd5b90508581813d8311612037575b61202881836123cd565b810103126104f157518a611f98565b503d61201e565b85513d5f823e3d90fd5b50610bbd9394506120599087612b58565b7fa95ad530009c6f929555e70a66aadbeae7231e45756c5b028ca77fbaa376e73e82518581528061208e33948883019061233a565b0390a25192828493845283019061233a565b956120b86001916120b1898661267a565b5190612a73565b9601611ecc565b806127106120db60016120d281956124fc565b5001548661282f565b04806120e7838661267a565b51106120f5575b5001611ebe565b6121039061048c838661267a565b61210d828761267a565b528b6120ee565b5090346104f1575f7ffffffffffffffffffffffffffffffffffffffffffffffffffffffffffffffffc3601126104f1578051905f9260035460018160011c91600181168015612254575b602094858510821461222857508387529081156121ea5750600114612190575b505050610e2382610bbd9403836123cd565b60035f9081529295507fc2575a0e9e593c00f959f8c92f12db2869c3395a3b0502d05e2516446f71f85b5b8284106121d75750505082610bbd94610e23928201019461217e565b80548685018801529286019281016121bb565b7fffffffffffffffffffffffffffffffffffffffffffffffffffffffffffffff0016868501525050151560051b8301019250610e2382610bbd61217e565b6022907f4e487b71000000000000000000000000000000000000000000000000000000005f525260245ffd5b92607f169261215e565b346104f1575f7ffffffffffffffffffffffffffffffffffffffffffffffffffffffffffffffffc3601126104f15760209073ffffffffffffffffffffffffffffffffffffffff600c54168152f35b7fffffffffffffffffffffffffffffffffffffffffffffffffffffffffffffffe0601f602060409481855280519182918282880152018686015e5f8582860101520116010190565b6004359073ffffffffffffffffffffffffffffffffffffffff821682036104f157565b6024359073ffffffffffffffffffffffffffffffffffffffff821682036104f157565b9081518082526020808093019301915f5b828110612359575050505090565b83518552938101939281019260010161234b565b7ffffffffffffffffffffffffffffffffffffffffffffffffffffffffffffffffc60609101126104f15773ffffffffffffffffffffffffffffffffffffffff9060043582811681036104f1579160243590811681036104f1579060443590565b90601f7fffffffffffffffffffffffffffffffffffffffffffffffffffffffffffffffe0910116810190811067ffffffffffffffff82111761240e57604052565b7f4e487b71000000000000000000000000000000000000000000000000000000005f52604160045260245ffd5b67ffffffffffffffff811161240e5760051b60200190565b9080601f830112156104f157602090823561246d8161243b565b9361247b60405195866123cd565b81855260208086019260051b8201019283116104f157602001905b8282106124a4575050505090565b81358152908301908301612496565b9081518082526020808093019301915f5b8281106124d2575050505090565b835173ffffffffffffffffffffffffffffffffffffffff16855293810193928101926001016124c4565b6006548110156125345760065f5260011b7ff652222313e28459528d920b65115c16c04f3efc82aaedc97be59f3f377c0d3f01905f90565b7f4e487b71000000000000000000000000000000000000000000000000000000005f52603260045260245ffd5b1561256857565b60646040517f08c379a000000000000000000000000000000000000000000000000000000000815260206004820152600e60248201527f4f6e6c79205065726970686572790000000000000000000000000000000000006044820152fd5b156125cd57565b60646040517f08c379a000000000000000000000000000000000000000000000000000000000815260206004820152601460248201527f526562616c616e6365206e6f74206e65656465640000000000000000000000006044820152fd5b906126358261243b565b61264260405191826123cd565b8281527fffffffffffffffffffffffffffffffffffffffffffffffffffffffffffffffe0612670829461243b565b0190602036910137565b80518210156125345760209160051b010190565b60245f73ffffffffffffffffffffffffffffffffffffffff60095416604051928380927f3e99c1e40000000000000000000000000000000000000000000000000000000082523060048301525afa90811561277b575f916126ed575090565b90503d805f833e6126fe81836123cd565b81019060209081818403126104f15780519067ffffffffffffffff82116104f157019180601f840112156104f15782516127378161243b565b9361274560405195866123cd565b818552838086019260051b8201019283116104f1578301905b82821061276c575050505090565b8151815290830190830161275e565b6040513d5f823e3d90fd5b600c546040517f248391ff00000000000000000000000000000000000000000000000000000000815273ffffffffffffffffffffffffffffffffffffffff92831660048201529282166024840152604483019390935290916020918391168180606481015b03915afa90811561277b575f91612800575090565b90506020813d602011612827575b8161281b602093836123cd565b810103126104f1575190565b3d915061280e565b8181029291811591840414171561284257565b7f4e487b71000000000000000000000000000000000000000000000000000000005f52601160045260245ffd5b8115612879570490565b7f4e487b71000000000000000000000000000000000000000000000000000000005f52601260045260245ffd5b9190820391821161284257565b6128bb612aab565b9190600654906128ca8261243b565b916128d860405193846123cd565b8083527fffffffffffffffffffffffffffffffffffffffffffffffffffffffffffffffe06129058261243b565b013660208501376129158161262b565b945f5b82811061292757505050509190565b612931818361267a565b519061271091828102928184041490151715612842576129538560019361286f565b61295c826124fc565b508301548391818111156129915790612974916128a6565b61297e838b61267a565b52612989828861267a565b525b01612918565b9061299c92506128a6565b6129a6828a61267a565b525f6129b2828861267a565b5261298b565b156129bf57565b60646040517f08c379a000000000000000000000000000000000000000000000000000000000815260206004820152601660248201527f496e73756666696369656e74206c6971756964697479000000000000000000006044820152fd5b612a256128b3565b5f5b8151811015612a6c57612a3a818461267a565b51151580612a57575b612a4f57600101612a27565b505050600190565b50612a62818361267a565b5160075410612a43565b5050505f90565b9190820180921161284257565b612a88612aab565b506002548015612aa557610870612aa2926008549061282f565b90565b50505f90565b600654905f612ab98361262b565b925f9073ffffffffffffffffffffffffffffffffffffffff80600b5416905b828410612ae757505050509190565b90919293612b2760019183612afb886124fc565b505416858103612b31575f52600d60205260405f2054612b1b888b61267a565b525b6120b1878a61267a565b9401929190612ad8565b80612b48915f52600d60205260405f205490612cff565b612b52888b61267a565b52612b1d565b73ffffffffffffffffffffffffffffffffffffffff16908115612bc2577fddf252ad1be2c89b69c2b068fc378daa952ba7f163c4a11628f55a4df523b3ef602082612ba65f94600254612a73565b60025584845283825260408420818154019055604051908152a3565b60246040517fec442f050000000000000000000000000000000000000000000000000000000081525f6004820152fd5b9173ffffffffffffffffffffffffffffffffffffffff808416928315612ccf5716928315612bc257825f525f60205260405f205490828210612c775750817fddf252ad1be2c89b69c2b068fc378daa952ba7f163c4a11628f55a4df523b3ef92602092855f525f84520360405f2055845f5260405f20818154019055604051908152a3565b6040517fe450d38c00000000000000000000000000000000000000000000000000000000815273ffffffffffffffffffffffffffffffffffffffff919091166004820152602481019190915260448101829052606490fd5b60246040517f96c6fd1e0000000000000000000000000000000000000000000000000000000081525f6004820152fd5b600c54600b546040517f248391ff00000000000000000000000000000000000000000000000000000000815273ffffffffffffffffffffffffffffffffffffffff9384166004820152908316602482015260448101939093526020918391168180606481016127eb56fea264697066735822122002fb5f90be03d678677ac304ec3f491eda7f0caccb27a4d0da4f22dcce0a35b064736f6c63430008190033","opcodes":"PUSH1 0x80 DUP1 PUSH1 0x40 MSTORE CALLVALUE PUSH2 0x439 JUMPI PUSH2 0x3700 DUP1 CODESIZE SUB DUP1 SWAP2 PUSH2 0x1C DUP3 DUP6 PUSH2 0x8FE JUMP JUMPDEST DUP4 CODECOPY DUP2 ADD PUSH1 0xA0 DUP3 DUP3 SUB SLT PUSH2 0x439 JUMPI PUSH2 0x33 DUP3 PUSH2 0x921 JUMP JUMPDEST PUSH1 0x20 DUP4 ADD MLOAD SWAP1 SWAP2 SWAP1 PUSH1 0x1 PUSH1 0x1 PUSH1 0x40 SHL SUB DUP2 GT PUSH2 0x439 JUMPI DUP4 ADD SWAP2 DUP2 PUSH1 0x1F DUP5 ADD SLT ISZERO PUSH2 0x439 JUMPI DUP3 MLOAD SWAP3 PUSH2 0x63 DUP5 PUSH2 0x935 JUMP JUMPDEST SWAP4 PUSH2 0x71 PUSH1 0x40 MLOAD SWAP6 DUP7 PUSH2 0x8FE JUMP JUMPDEST DUP1 DUP6 MSTORE PUSH1 0x20 DUP1 DUP7 ADD SWAP2 PUSH1 0x5 SHL DUP4 ADD ADD SWAP2 DUP5 DUP4 GT PUSH2 0x439 JUMPI PUSH1 0x20 ADD SWAP1 JUMPDEST DUP3 DUP3 LT PUSH2 0x8CB JUMPI POP POP POP PUSH1 0x40 DUP5 ADD MLOAD PUSH1 0x1 PUSH1 0x1 PUSH1 0x40 SHL SUB DUP2 GT PUSH2 0x439 JUMPI DUP5 ADD SWAP2 DUP1 PUSH1 0x1F DUP5 ADD SLT ISZERO PUSH2 0x439 JUMPI DUP3 MLOAD PUSH2 0xC3 DUP2 PUSH2 0x935 JUMP JUMPDEST SWAP4 PUSH2 0xD1 PUSH1 0x40 MLOAD SWAP6 DUP7 PUSH2 0x8FE JUMP JUMPDEST DUP2 DUP6 MSTORE PUSH1 0x20 DUP1 DUP7 ADD SWAP3 PUSH1 0x5 SHL DUP3 ADD ADD SWAP3 DUP4 GT PUSH2 0x439 JUMPI PUSH1 0x20 ADD SWAP1 JUMPDEST DUP3 DUP3 LT PUSH2 0x8BB JUMPI POP POP POP PUSH2 0x107 PUSH1 0x80 PUSH1 0x60 DUP7 ADD MLOAD SWAP6 ADD PUSH2 0x921 JUMP JUMPDEST PUSH1 0x40 MLOAD PUSH2 0x113 DUP2 PUSH2 0x8E3 JUMP JUMPDEST PUSH1 0x9 DUP2 MSTORE PUSH9 0x42616C756E69204C5 PUSH1 0xBC SHL PUSH1 0x20 DUP3 ADD MSTORE PUSH1 0x40 MLOAD SWAP1 PUSH2 0x136 DUP3 PUSH2 0x8E3 JUMP JUMPDEST PUSH1 0x9 DUP3 MSTORE PUSH9 0x42414C554E492D4C5 PUSH1 0xBC SHL PUSH1 0x20 DUP4 ADD MSTORE DUP1 MLOAD SWAP1 PUSH1 0x1 PUSH1 0x1 PUSH1 0x40 SHL SUB DUP3 GT PUSH2 0x496 JUMPI PUSH1 0x3 SLOAD SWAP1 PUSH1 0x1 DUP3 DUP2 SHR SWAP3 AND DUP1 ISZERO PUSH2 0x8B1 JUMPI JUMPDEST PUSH1 0x20 DUP4 LT EQ PUSH2 0x792 JUMPI DUP2 PUSH1 0x1F DUP5 SWAP4 GT PUSH2 0x843 JUMPI JUMPDEST POP PUSH1 0x20 SWAP1 PUSH1 0x1F DUP4 GT PUSH1 0x1 EQ PUSH2 0x7BB JUMPI PUSH0 SWAP3 PUSH2 0x7B0 JUMPI JUMPDEST POP POP DUP2 PUSH1 0x1 SHL SWAP2 PUSH0 NOT SWAP1 PUSH1 0x3 SHL SHR NOT AND OR PUSH1 0x3 SSTORE JUMPDEST DUP1 MLOAD SWAP1 PUSH1 0x1 PUSH1 0x1 PUSH1 0x40 SHL SUB DUP3 GT PUSH2 0x496 JUMPI PUSH1 0x4 SLOAD SWAP1 PUSH1 0x1 DUP3 DUP2 SHR SWAP3 AND DUP1 ISZERO PUSH2 0x7A6 JUMPI JUMPDEST PUSH1 0x20 DUP4 LT EQ PUSH2 0x792 JUMPI DUP2 PUSH1 0x1F DUP5 SWAP4 GT PUSH2 0x724 JUMPI JUMPDEST POP PUSH1 0x20 SWAP1 PUSH1 0x1F DUP4 GT PUSH1 0x1 EQ PUSH2 0x6A0 JUMPI PUSH0 SWAP3 PUSH2 0x695 JUMPI JUMPDEST POP POP DUP2 PUSH1 0x1 SHL SWAP2 PUSH0 NOT SWAP1 PUSH1 0x3 SHL SHR NOT AND OR PUSH1 0x4 SSTORE JUMPDEST PUSH1 0x1 PUSH1 0x5 SSTORE PUSH1 0x9 DUP1 SLOAD PUSH1 0x1 PUSH1 0x1 PUSH1 0xA0 SHL SUB NOT SWAP1 DUP2 AND PUSH1 0x1 PUSH1 0x1 PUSH1 0xA0 SHL SUB SWAP4 DUP5 AND OR SWAP1 SWAP2 SSTORE PUSH1 0xA DUP1 SLOAD DUP3 AND CALLER OR SWAP1 SSTORE PUSH1 0xC DUP1 SLOAD SWAP1 SWAP2 AND SWAP2 DUP4 AND SWAP2 SWAP1 SWAP2 OR SWAP1 SSTORE PUSH8 0xDE0B6B3A7640000 PUSH1 0x8 SSTORE DUP3 MLOAD DUP3 MLOAD SUB PUSH2 0x645 JUMPI PUSH0 JUMPDEST DUP4 MLOAD DUP2 LT ISZERO PUSH2 0x525 JUMPI PUSH1 0x1 PUSH1 0x1 PUSH1 0xA0 SHL SUB PUSH2 0x280 DUP3 DUP7 PUSH2 0x94C JUMP JUMPDEST MLOAD AND ISZERO PUSH2 0x4E0 JUMPI PUSH2 0x291 DUP2 DUP5 PUSH2 0x94C JUMP JUMPDEST MLOAD ISZERO PUSH2 0x4AA JUMPI PUSH1 0x1 PUSH1 0x1 PUSH1 0xA0 SHL SUB PUSH2 0x2A9 DUP3 DUP7 PUSH2 0x94C JUMP JUMPDEST MLOAD AND PUSH2 0x2B5 DUP3 DUP6 PUSH2 0x94C JUMP JUMPDEST MLOAD PUSH1 0x40 DUP1 MLOAD SWAP3 SWAP1 DUP4 ADD DUP1 DUP5 GT PUSH1 0x1 PUSH1 0x1 PUSH1 0x40 SHL SUB SWAP1 SWAP2 GT OR PUSH2 0x496 JUMPI PUSH1 0x40 DUP4 ADD PUSH1 0x40 MSTORE DUP3 MSTORE PUSH1 0x20 DUP3 ADD MSTORE PUSH1 0x6 SLOAD PUSH9 0x10000000000000000 DUP2 LT ISZERO PUSH2 0x496 JUMPI PUSH1 0x1 DUP2 ADD DUP1 PUSH1 0x6 SSTORE DUP2 LT ISZERO PUSH2 0x482 JUMPI PUSH1 0x6 PUSH0 MSTORE DUP2 MLOAD PUSH32 0xF652222313E28459528D920B65115C16C04F3EFC82AAEDC97BE59F3F377C0D3F PUSH1 0x1 SWAP3 SWAP1 SWAP3 SHL SWAP2 DUP3 ADD DUP1 SLOAD PUSH1 0x1 PUSH1 0x1 PUSH1 0xA0 SHL SUB SWAP3 DUP4 AND PUSH1 0x1 PUSH1 0x1 PUSH1 0xA0 SHL SUB NOT SWAP1 SWAP2 AND OR SWAP1 SSTORE PUSH1 0x20 SWAP1 SWAP3 ADD MLOAD PUSH32 0xF652222313E28459528D920B65115C16C04F3EFC82AAEDC97BE59F3F377C0D40 SWAP1 SWAP2 ADD SSTORE PUSH2 0x383 DUP3 DUP7 PUSH2 0x94C JUMP JUMPDEST MLOAD AND PUSH1 0x1 DUP1 PUSH1 0xA0 SHL SUB PUSH1 0xC SLOAD AND PUSH1 0x40 MLOAD PUSH4 0x6EB1769F PUSH1 0xE1 SHL DUP2 MSTORE ADDRESS PUSH1 0x4 DUP3 ADD MSTORE DUP2 PUSH1 0x24 DUP3 ADD MSTORE PUSH1 0x20 DUP2 PUSH1 0x44 DUP2 DUP7 GAS STATICCALL SWAP1 DUP2 ISZERO PUSH2 0x445 JUMPI PUSH0 SWAP2 PUSH2 0x450 JUMPI JUMPDEST POP ISZERO PUSH2 0x3D1 JUMPI JUMPDEST POP POP PUSH1 0x1 ADD PUSH2 0x265 JUMP JUMPDEST PUSH0 SWAP2 PUSH1 0x44 PUSH1 0x20 SWAP3 PUSH1 0x40 MLOAD SWAP5 DUP6 SWAP4 DUP5 SWAP3 PUSH4 0x95EA7B3 PUSH1 0xE0 SHL DUP5 MSTORE PUSH1 0x4 DUP5 ADD MSTORE DUP2 NOT PUSH1 0x24 DUP5 ADD MSTORE GAS CALL DUP1 ISZERO PUSH2 0x445 JUMPI PUSH2 0x409 JUMPI JUMPDEST DUP1 PUSH2 0x3C7 JUMP JUMPDEST PUSH1 0x20 DUP2 RETURNDATASIZE PUSH1 0x20 GT PUSH2 0x43D JUMPI JUMPDEST DUP2 PUSH2 0x422 PUSH1 0x20 SWAP4 DUP4 PUSH2 0x8FE JUMP JUMPDEST DUP2 ADD SUB SLT PUSH2 0x439 JUMPI MLOAD DUP1 ISZERO ISZERO SUB PUSH2 0x439 JUMPI PUSH0 PUSH2 0x403 JUMP JUMPDEST PUSH0 DUP1 REVERT JUMPDEST RETURNDATASIZE SWAP2 POP PUSH2 0x415 JUMP JUMPDEST PUSH1 0x40 MLOAD RETURNDATASIZE PUSH0 DUP3 RETURNDATACOPY RETURNDATASIZE SWAP1 REVERT JUMPDEST SWAP1 POP PUSH1 0x20 DUP2 RETURNDATASIZE PUSH1 0x20 GT PUSH2 0x47A JUMPI JUMPDEST DUP2 PUSH2 0x46B PUSH1 0x20 SWAP4 DUP4 PUSH2 0x8FE JUMP JUMPDEST DUP2 ADD SUB SLT PUSH2 0x439 JUMPI MLOAD PUSH0 PUSH2 0x3C0 JUMP JUMPDEST RETURNDATASIZE SWAP2 POP PUSH2 0x45E JUMP JUMPDEST PUSH4 0x4E487B71 PUSH1 0xE0 SHL PUSH0 MSTORE PUSH1 0x32 PUSH1 0x4 MSTORE PUSH1 0x24 PUSH0 REVERT JUMPDEST PUSH4 0x4E487B71 PUSH1 0xE0 SHL PUSH0 MSTORE PUSH1 0x41 PUSH1 0x4 MSTORE PUSH1 0x24 PUSH0 REVERT JUMPDEST PUSH1 0x40 MLOAD PUSH3 0x461BCD PUSH1 0xE5 SHL DUP2 MSTORE PUSH1 0x20 PUSH1 0x4 DUP3 ADD MSTORE PUSH1 0xE PUSH1 0x24 DUP3 ADD MSTORE PUSH14 0x125B9D985B1A59081DD95A59DA1D PUSH1 0x92 SHL PUSH1 0x44 DUP3 ADD MSTORE PUSH1 0x64 SWAP1 REVERT JUMPDEST PUSH1 0x40 MLOAD PUSH3 0x461BCD PUSH1 0xE5 SHL DUP2 MSTORE PUSH1 0x20 PUSH1 0x4 DUP3 ADD MSTORE PUSH1 0x15 PUSH1 0x24 DUP3 ADD MSTORE PUSH32 0x496E76616C696420617373657420616464726573730000000000000000000000 PUSH1 0x44 DUP3 ADD MSTORE PUSH1 0x64 SWAP1 REVERT JUMPDEST POP PUSH1 0x7 DUP5 SWAP1 SSTORE PUSH1 0x40 MLOAD PUSH4 0x89A30271 PUSH1 0xE0 SHL DUP2 MSTORE SWAP1 PUSH1 0x20 SWAP1 DUP3 SWAP1 PUSH1 0x4 SWAP1 DUP3 SWAP1 PUSH1 0x1 PUSH1 0x1 PUSH1 0xA0 SHL SUB AND GAS STATICCALL SWAP1 DUP2 ISZERO PUSH2 0x445 JUMPI PUSH0 SWAP2 PUSH2 0x60B JUMPI JUMPDEST POP PUSH1 0xB DUP1 SLOAD PUSH1 0x1 PUSH1 0x1 PUSH1 0xA0 SHL SUB NOT AND PUSH1 0x1 PUSH1 0x1 PUSH1 0xA0 SHL SUB SWAP3 SWAP1 SWAP3 AND SWAP2 SWAP1 SWAP2 OR SWAP1 SSTORE PUSH0 SWAP1 DUP2 JUMPDEST DUP2 MLOAD DUP4 LT ISZERO PUSH2 0x5BD JUMPI PUSH2 0x594 DUP4 DUP4 PUSH2 0x94C JUMP JUMPDEST MLOAD DUP2 ADD DUP1 SWAP2 GT PUSH2 0x5A9 JUMPI PUSH1 0x1 SWAP1 SWAP3 ADD SWAP2 PUSH2 0x581 JUMP JUMPDEST PUSH4 0x4E487B71 PUSH1 0xE0 SHL PUSH0 MSTORE PUSH1 0x11 PUSH1 0x4 MSTORE PUSH1 0x24 PUSH0 REVERT JUMPDEST PUSH2 0x2710 SUB PUSH2 0x5D4 JUMPI PUSH1 0x40 MLOAD PUSH2 0x2D9F SWAP1 DUP2 PUSH2 0x961 DUP3 CODECOPY RETURN JUMPDEST PUSH1 0x40 MLOAD PUSH3 0x461BCD PUSH1 0xE5 SHL DUP2 MSTORE PUSH1 0x20 PUSH1 0x4 DUP3 ADD MSTORE PUSH1 0xF PUSH1 0x24 DUP3 ADD MSTORE PUSH15 0x496E76616C69642077656967687473 PUSH1 0x88 SHL PUSH1 0x44 DUP3 ADD MSTORE PUSH1 0x64 SWAP1 REVERT JUMPDEST SWAP1 POP PUSH1 0x20 DUP2 RETURNDATASIZE PUSH1 0x20 GT PUSH2 0x63D JUMPI JUMPDEST DUP2 PUSH2 0x626 PUSH1 0x20 SWAP4 DUP4 PUSH2 0x8FE JUMP JUMPDEST DUP2 ADD SUB SLT PUSH2 0x439 JUMPI PUSH2 0x637 SWAP1 PUSH2 0x921 JUMP JUMPDEST DUP3 PUSH2 0x55C JUMP JUMPDEST RETURNDATASIZE SWAP2 POP PUSH2 0x619 JUMP JUMPDEST PUSH1 0x40 MLOAD PUSH3 0x461BCD PUSH1 0xE5 SHL DUP2 MSTORE PUSH1 0x20 PUSH1 0x4 DUP3 ADD MSTORE PUSH1 0x22 PUSH1 0x24 DUP3 ADD MSTORE PUSH32 0x41737365747320616E642077656967687473206C656E677468206D69736D6174 PUSH1 0x44 DUP3 ADD MSTORE PUSH2 0xC6D PUSH1 0xF3 SHL PUSH1 0x64 DUP3 ADD MSTORE PUSH1 0x84 SWAP1 REVERT JUMPDEST ADD MLOAD SWAP1 POP PUSH0 DUP1 PUSH2 0x1FB JUMP JUMPDEST PUSH1 0x4 PUSH0 SWAP1 DUP2 MSTORE PUSH32 0x8A35ACFBC15FF81A39AE7D344FD709F28E8600B4AA8C65C6B64BFE7FE36BD19B SWAP4 POP PUSH1 0x1F NOT DUP6 AND SWAP1 JUMPDEST DUP2 DUP2 LT PUSH2 0x70C JUMPI POP SWAP1 DUP5 PUSH1 0x1 SWAP6 SWAP5 SWAP4 SWAP3 LT PUSH2 0x6F4 JUMPI JUMPDEST POP POP POP DUP2 SHL ADD PUSH1 0x4 SSTORE PUSH2 0x210 JUMP JUMPDEST ADD MLOAD PUSH0 NOT PUSH1 0xF8 DUP5 PUSH1 0x3 SHL AND SHR NOT AND SWAP1 SSTORE PUSH0 DUP1 DUP1 PUSH2 0x6E6 JUMP JUMPDEST SWAP3 SWAP4 PUSH1 0x20 PUSH1 0x1 DUP2 SWAP3 DUP8 DUP7 ADD MLOAD DUP2 SSTORE ADD SWAP6 ADD SWAP4 ADD PUSH2 0x6D0 JUMP JUMPDEST PUSH1 0x4 PUSH0 MSTORE SWAP1 SWAP2 POP PUSH32 0x8A35ACFBC15FF81A39AE7D344FD709F28E8600B4AA8C65C6B64BFE7FE36BD19B PUSH1 0x1F DUP5 ADD PUSH1 0x5 SHR DUP2 ADD SWAP2 PUSH1 0x20 DUP6 LT PUSH2 0x788 JUMPI JUMPDEST SWAP1 PUSH1 0x1F DUP6 SWAP5 SWAP4 SWAP3 ADD PUSH1 0x5 SHR ADD SWAP1 JUMPDEST DUP2 DUP2 LT PUSH2 0x77A JUMPI POP PUSH2 0x1E5 JUMP JUMPDEST PUSH0 DUP2 SSTORE DUP5 SWAP4 POP PUSH1 0x1 ADD PUSH2 0x76D JUMP JUMPDEST SWAP1 SWAP2 POP DUP2 SWAP1 PUSH2 0x75F JUMP JUMPDEST PUSH4 0x4E487B71 PUSH1 0xE0 SHL PUSH0 MSTORE PUSH1 0x22 PUSH1 0x4 MSTORE PUSH1 0x24 PUSH0 REVERT JUMPDEST SWAP2 PUSH1 0x7F AND SWAP2 PUSH2 0x1D1 JUMP JUMPDEST ADD MLOAD SWAP1 POP PUSH0 DUP1 PUSH2 0x199 JUMP JUMPDEST PUSH1 0x3 PUSH0 SWAP1 DUP2 MSTORE SWAP4 POP PUSH32 0xC2575A0E9E593C00F959F8C92F12DB2869C3395A3B0502D05E2516446F71F85B SWAP2 SWAP1 JUMPDEST PUSH1 0x1F NOT DUP5 AND DUP6 LT PUSH2 0x828 JUMPI PUSH1 0x1 SWAP5 POP DUP4 PUSH1 0x1F NOT DUP2 AND LT PUSH2 0x810 JUMPI JUMPDEST POP POP POP DUP2 SHL ADD PUSH1 0x3 SSTORE PUSH2 0x1AE JUMP JUMPDEST ADD MLOAD PUSH0 NOT PUSH1 0xF8 DUP5 PUSH1 0x3 SHL AND SHR NOT AND SWAP1 SSTORE PUSH0 DUP1 DUP1 PUSH2 0x802 JUMP JUMPDEST DUP2 DUP2 ADD MLOAD DUP4 SSTORE PUSH1 0x20 SWAP5 DUP6 ADD SWAP5 PUSH1 0x1 SWAP1 SWAP4 ADD SWAP3 SWAP1 SWAP2 ADD SWAP1 PUSH2 0x7E7 JUMP JUMPDEST PUSH1 0x3 PUSH0 MSTORE SWAP1 SWAP2 POP PUSH32 0xC2575A0E9E593C00F959F8C92F12DB2869C3395A3B0502D05E2516446F71F85B PUSH1 0x1F DUP5 ADD PUSH1 0x5 SHR DUP2 ADD SWAP2 PUSH1 0x20 DUP6 LT PUSH2 0x8A7 JUMPI JUMPDEST SWAP1 PUSH1 0x1F DUP6 SWAP5 SWAP4 SWAP3 ADD PUSH1 0x5 SHR ADD SWAP1 JUMPDEST DUP2 DUP2 LT PUSH2 0x899 JUMPI POP PUSH2 0x183 JUMP JUMPDEST PUSH0 DUP2 SSTORE DUP5 SWAP4 POP PUSH1 0x1 ADD PUSH2 0x88C JUMP JUMPDEST SWAP1 SWAP2 POP DUP2 SWAP1 PUSH2 0x87E JUMP JUMPDEST SWAP2 PUSH1 0x7F AND SWAP2 PUSH2 0x16F JUMP JUMPDEST DUP2 MLOAD DUP2 MSTORE PUSH1 0x20 SWAP2 DUP3 ADD SWAP2 ADD PUSH2 0xEC JUMP JUMPDEST PUSH1 0x20 DUP1 SWAP2 PUSH2 0x8D8 DUP5 PUSH2 0x921 JUMP JUMPDEST DUP2 MSTORE ADD SWAP2 ADD SWAP1 PUSH2 0x8D JUMP JUMPDEST PUSH1 0x40 DUP2 ADD SWAP1 DUP2 LT PUSH1 0x1 PUSH1 0x1 PUSH1 0x40 SHL SUB DUP3 GT OR PUSH2 0x496 JUMPI PUSH1 0x40 MSTORE JUMP JUMPDEST PUSH1 0x1F SWAP1 SWAP2 ADD PUSH1 0x1F NOT AND DUP2 ADD SWAP1 PUSH1 0x1 PUSH1 0x1 PUSH1 0x40 SHL SUB DUP3 GT SWAP1 DUP3 LT OR PUSH2 0x496 JUMPI PUSH1 0x40 MSTORE JUMP JUMPDEST MLOAD SWAP1 PUSH1 0x1 PUSH1 0x1 PUSH1 0xA0 SHL SUB DUP3 AND DUP3 SUB PUSH2 0x439 JUMPI JUMP JUMPDEST PUSH1 0x1 PUSH1 0x1 PUSH1 0x40 SHL SUB DUP2 GT PUSH2 0x496 JUMPI PUSH1 0x5 SHL PUSH1 0x20 ADD SWAP1 JUMP JUMPDEST DUP1 MLOAD DUP3 LT ISZERO PUSH2 0x482 JUMPI PUSH1 0x20 SWAP2 PUSH1 0x5 SHL ADD ADD SWAP1 JUMP INVALID PUSH1 0x80 PUSH1 0x40 DUP2 DUP2 MSTORE PUSH1 0x4 DUP1 CALLDATASIZE LT ISZERO PUSH2 0x14 JUMPI PUSH0 DUP1 REVERT JUMPDEST PUSH0 SWAP3 PUSH0 CALLDATALOAD PUSH1 0xE0 SHR SWAP1 DUP2 PUSH4 0x1D22CCD EQ PUSH2 0x225E JUMPI POP DUP1 PUSH4 0x6FDDE03 EQ PUSH2 0x2114 JUMPI DUP1 PUSH4 0x723C999 EQ PUSH2 0x1E3A JUMPI DUP1 PUSH4 0x902F1AC EQ PUSH2 0x1DEC JUMPI DUP1 PUSH4 0x95EA7B3 EQ PUSH2 0x1CE6 JUMPI DUP1 PUSH4 0x18160DDD EQ PUSH2 0x1CAA JUMPI DUP1 PUSH4 0x1A686502 EQ PUSH2 0x1C68 JUMPI DUP1 PUSH4 0x22ACB867 EQ PUSH2 0x1BED JUMPI DUP1 PUSH4 0x23B872DD EQ PUSH2 0x1A99 JUMPI DUP1 PUSH4 0x313CE567 EQ PUSH2 0x1A60 JUMPI DUP1 PUSH4 0x36BF6E39 EQ PUSH2 0x1A0E JUMPI DUP1 PUSH4 0x3DFF5B7F EQ PUSH2 0x1925 JUMPI DUP1 PUSH4 0x4AA06652 EQ PUSH2 0x190A JUMPI DUP1 PUSH4 0x67A6C440 EQ PUSH2 0x18D1 JUMPI DUP1 PUSH4 0x67E4AC2C EQ PUSH2 0x1842 JUMPI DUP1 PUSH4 0x6E81221C EQ PUSH2 0x15CF JUMPI DUP1 PUSH4 0x70A08231 EQ PUSH2 0x156E JUMPI DUP1 PUSH4 0x77AACE1A EQ PUSH2 0x151C JUMPI DUP1 PUSH4 0x7FEC8D38 EQ PUSH2 0x14E0 JUMPI DUP1 PUSH4 0x89AB3532 EQ PUSH2 0x1458 JUMPI DUP1 PUSH4 0x89AFCB44 EQ PUSH2 0xF3F JUMPI DUP1 PUSH4 0x8A77C8DC EQ PUSH2 0xEFC JUMPI DUP1 PUSH4 0x95D89B41 EQ PUSH2 0xDA8 JUMPI DUP1 PUSH4 0xA9059CBB EQ PUSH2 0xD5A JUMPI DUP1 PUSH4 0xB2B55D70 EQ PUSH2 0xAE5 JUMPI DUP1 PUSH4 0xC2EE3A08 EQ PUSH2 0xD1E JUMPI DUP1 PUSH4 0xC45A0155 EQ PUSH2 0xCCC JUMPI DUP1 PUSH4 0xCDF456E1 EQ PUSH2 0xC7A JUMPI DUP1 PUSH4 0xCF8FA764 EQ PUSH2 0xBC1 JUMPI DUP1 PUSH4 0xD14EF46D EQ PUSH2 0xB47 JUMPI DUP1 PUSH4 0xD66BD524 EQ PUSH2 0xAE5 JUMPI DUP1 PUSH4 0xDD62ED3E EQ PUSH2 0xA70 JUMPI DUP1 PUSH4 0xDE836EBD EQ PUSH2 0x675 JUMPI DUP1 PUSH4 0xE73FAA2D EQ PUSH2 0x634 JUMPI PUSH4 0xF47B45E8 EQ PUSH2 0x1A1 JUMPI PUSH0 DUP1 REVERT JUMPDEST CALLVALUE PUSH2 0x4F1 JUMPI PUSH32 0xFFFFFFFFFFFFFFFFFFFFFFFFFFFFFFFFFFFFFFFFFFFFFFFFFFFFFFFFFFFFFFFC SWAP2 PUSH0 DUP4 CALLDATASIZE ADD SLT PUSH2 0x4F1 JUMPI PUSH20 0xFFFFFFFFFFFFFFFFFFFFFFFFFFFFFFFFFFFFFFFF SWAP4 DUP5 PUSH1 0x9 SLOAD AND SWAP3 PUSH2 0x1F8 DUP5 CALLER EQ PUSH2 0x2561 JUMP JUMPDEST PUSH2 0x208 PUSH2 0x203 PUSH2 0x2A1D JUMP JUMPDEST PUSH2 0x25C6 JUMP JUMPDEST PUSH1 0x6 SWAP2 PUSH1 0x6 SLOAD SWAP2 PUSH2 0x218 DUP4 PUSH2 0x262B JUMP JUMPDEST SWAP7 PUSH2 0x222 DUP5 PUSH2 0x262B JUMP JUMPDEST PUSH2 0x22B DUP6 PUSH2 0x262B JUMP JUMPDEST SWAP1 DUP11 PUSH2 0x236 DUP8 PUSH2 0x262B JUMP JUMPDEST SWAP4 PUSH2 0x240 DUP9 PUSH2 0x262B JUMP JUMPDEST SWAP11 PUSH2 0x24A DUP10 PUSH2 0x262B JUMP JUMPDEST SWAP9 PUSH0 DUP15 JUMPDEST DUP3 DUP3 LT PUSH2 0x558 JUMPI POP POP POP PUSH2 0x260 PUSH2 0x268E JUMP JUMPDEST SWAP1 DUP4 PUSH1 0xC SLOAD AND SWAP1 PUSH1 0x7 SLOAD SWAP5 PUSH1 0xB SLOAD AND SWAP4 DUP3 EXTCODESIZE ISZERO PUSH2 0x4F1 JUMPI DUP16 SWAP7 PUSH2 0x2C7 SWAP7 DUP16 SWAP7 PUSH1 0xE0 SWAP5 PUSH2 0x2E8 PUSH0 SWAP10 SWAP6 DUP16 SWAP6 PUSH2 0x2D9 DUP13 SWAP9 MLOAD SWAP14 DUP15 SWAP13 DUP14 SWAP12 DUP13 SWAP11 PUSH32 0xF0BF771400000000000000000000000000000000000000000000000000000000 DUP13 MSTORE DUP12 ADD MSTORE PUSH1 0xE4 DUP11 ADD SWAP1 PUSH2 0x233A JUMP JUMPDEST PUSH1 0x24 SWAP16 DUP5 DUP11 DUP4 SUB ADD PUSH1 0x24 DUP12 ADD MSTORE PUSH2 0x24B3 JUMP JUMPDEST SWAP2 DUP8 DUP4 SUB ADD PUSH1 0x44 DUP9 ADD MSTORE PUSH2 0x233A JUMP JUMPDEST SWAP3 PUSH1 0x64 DUP6 ADD MSTORE DUP1 PUSH1 0x84 DUP6 ADD MSTORE PUSH1 0xA4 DUP5 ADD MSTORE PUSH1 0xC4 DUP4 ADD MSTORE SUB SWAP3 GAS CALL DUP1 ISZERO PUSH2 0x54E JUMPI PUSH2 0x506 JUMPI JUMPDEST POP DUP5 PUSH1 0x6 SLOAD SWAP5 DUP13 PUSH1 0x9 SLOAD AND SWAP2 JUMPDEST DUP14 DUP14 DUP9 DUP4 LT PUSH2 0x3F3 JUMPI DUP14 DUP14 DUP14 DUP14 DUP14 PUSH0 JUMPDEST DUP4 SLOAD DUP2 LT ISZERO PUSH2 0x36C JUMPI DUP1 DUP9 PUSH2 0x340 PUSH1 0x1 SWAP4 PUSH2 0x24FC JUMP JUMPDEST POP SLOAD AND PUSH2 0x34D DUP3 DUP10 PUSH2 0x267A JUMP JUMPDEST MLOAD SWAP1 PUSH0 MSTORE PUSH1 0xD PUSH1 0x20 MSTORE PUSH2 0x364 DUP8 PUSH0 KECCAK256 SWAP2 DUP3 SLOAD PUSH2 0x2A73 JUMP JUMPDEST SWAP1 SSTORE ADD PUSH2 0x32A JUMP JUMPDEST POP SWAP3 DUP7 SWAP4 DUP7 PUSH0 JUMPDEST DUP6 SLOAD DUP2 LT ISZERO PUSH2 0x3B5 JUMPI DUP1 DUP8 PUSH2 0x389 PUSH1 0x1 SWAP4 PUSH2 0x24FC JUMP JUMPDEST POP SLOAD AND PUSH2 0x396 DUP3 DUP9 PUSH2 0x267A JUMP JUMPDEST MLOAD SWAP1 PUSH0 MSTORE PUSH1 0xD PUSH1 0x20 MSTORE PUSH2 0x3AD DUP7 PUSH0 KECCAK256 SWAP2 DUP3 SLOAD PUSH2 0x28A6 JUMP JUMPDEST SWAP1 SSTORE ADD PUSH2 0x373 JUMP JUMPDEST POP PUSH32 0x279B343370F587AF7FB675AE7C8578E9C8ABCC373236AD02C501A4771FE7A7B8 DUP4 MLOAD PUSH1 0x20 DUP2 MSTORE DUP1 PUSH2 0x3ED CALLER SWAP5 PUSH1 0x20 DUP4 ADD SWAP1 PUSH2 0x24B3 JUMP JUMPDEST SUB SWAP1 LOG2 DUP1 RETURN JUMPDEST DUP3 PUSH2 0x3FD SWAP2 PUSH2 0x267A JUMP JUMPDEST MLOAD AND SWAP1 DUP12 MLOAD DUP1 SWAP3 PUSH32 0x70A0823100000000000000000000000000000000000000000000000000000000 DUP3 MSTORE DUP6 DUP6 DUP4 ADD MSTORE DUP2 DUP8 PUSH1 0x20 SWAP4 DUP5 SWAP4 GAS STATICCALL SWAP1 DUP2 ISZERO PUSH2 0x4FC JUMPI DUP11 SWAP2 PUSH2 0x4C9 JUMPI JUMPDEST POP PUSH1 0x1 SWAP3 POP PUSH2 0x452 DUP3 DUP10 PUSH2 0x267A JUMP JUMPDEST MSTORE PUSH2 0x45D DUP2 DUP9 PUSH2 0x267A JUMP JUMPDEST MLOAD PUSH2 0x468 DUP3 DUP9 PUSH2 0x267A JUMP JUMPDEST MLOAD LT ISZERO PUSH2 0x4A1 JUMPI DUP13 PUSH2 0x499 DUP3 PUSH2 0x493 PUSH2 0x481 DUP3 DUP13 PUSH2 0x267A JUMP JUMPDEST MLOAD PUSH2 0x48C DUP4 DUP13 PUSH2 0x267A JUMP JUMPDEST MLOAD SWAP1 PUSH2 0x28A6 JUMP JUMPDEST SWAP3 PUSH2 0x267A JUMP JUMPDEST MSTORE JUMPDEST ADD PUSH2 0x31A JUMP JUMPDEST PUSH2 0x4B9 PUSH2 0x4AE DUP3 DUP9 PUSH2 0x267A JUMP JUMPDEST MLOAD PUSH2 0x48C DUP4 DUP11 PUSH2 0x267A JUMP JUMPDEST PUSH2 0x4C3 DUP3 DUP13 PUSH2 0x267A JUMP JUMPDEST MSTORE PUSH2 0x49B JUMP JUMPDEST SWAP1 POP DUP3 DUP2 RETURNDATASIZE DUP4 GT PUSH2 0x4F5 JUMPI JUMPDEST PUSH2 0x4DF DUP2 DUP4 PUSH2 0x23CD JUMP JUMPDEST DUP2 ADD SUB SLT PUSH2 0x4F1 JUMPI PUSH1 0x1 SWAP2 MLOAD PUSH0 PUSH2 0x443 JUMP JUMPDEST PUSH0 DUP1 REVERT JUMPDEST POP RETURNDATASIZE PUSH2 0x4D5 JUMP JUMPDEST DUP14 MLOAD RETURNDATASIZE DUP13 DUP3 RETURNDATACOPY RETURNDATASIZE SWAP1 REVERT JUMPDEST SWAP1 SWAP5 POP PUSH8 0xFFFFFFFFFFFFFFFF DUP2 GT PUSH2 0x522 JUMPI DUP8 MSTORE PUSH0 SWAP4 PUSH0 PUSH2 0x30D JUMP JUMPDEST PUSH1 0x41 DUP5 PUSH32 0x4E487B7100000000000000000000000000000000000000000000000000000000 PUSH0 MSTORE MSTORE PUSH1 0x24 PUSH0 REVERT JUMPDEST DUP10 MLOAD RETURNDATASIZE PUSH0 DUP3 RETURNDATACOPY RETURNDATASIZE SWAP1 REVERT JUMPDEST DUP2 PUSH2 0x598 SWAP2 DUP8 PUSH2 0x56C DUP4 SWAP7 SWAP8 SWAP9 SWAP10 SWAP6 PUSH2 0x24FC JUMP JUMPDEST POP SLOAD AND PUSH2 0x579 DUP4 DUP4 PUSH2 0x267A JUMP JUMPDEST MSTORE PUSH1 0x1 PUSH2 0x585 DUP4 PUSH2 0x24FC JUMP JUMPDEST POP ADD SLOAD PUSH2 0x592 DUP4 DUP12 PUSH2 0x267A JUMP JUMPDEST MSTORE PUSH2 0x267A JUMP JUMPDEST MLOAD AND SWAP1 DUP13 MLOAD DUP1 SWAP3 PUSH32 0x70A0823100000000000000000000000000000000000000000000000000000000 DUP3 MSTORE DUP6 DUP12 DUP4 ADD MSTORE DUP2 PUSH1 0x24 PUSH1 0x20 SWAP4 DUP5 SWAP4 GAS STATICCALL SWAP1 DUP2 ISZERO PUSH2 0x62A JUMPI PUSH0 SWAP2 PUSH2 0x5FB JUMPI JUMPDEST POP PUSH1 0x1 SWAP3 POP PUSH2 0x5EE DUP3 DUP10 PUSH2 0x267A JUMP JUMPDEST MSTORE ADD SWAP1 DUP15 SWAP4 SWAP3 SWAP2 DUP15 PUSH2 0x24E JUMP JUMPDEST SWAP1 POP DUP3 DUP2 RETURNDATASIZE DUP4 GT PUSH2 0x623 JUMPI JUMPDEST PUSH2 0x611 DUP2 DUP4 PUSH2 0x23CD JUMP JUMPDEST DUP2 ADD SUB SLT PUSH2 0x4F1 JUMPI PUSH1 0x1 SWAP2 MLOAD PUSH0 PUSH2 0x5DF JUMP JUMPDEST POP RETURNDATASIZE PUSH2 0x607 JUMP JUMPDEST DUP15 MLOAD RETURNDATASIZE PUSH0 DUP3 RETURNDATACOPY RETURNDATASIZE SWAP1 REVERT JUMPDEST DUP3 CALLVALUE PUSH2 0x4F1 JUMPI PUSH0 PUSH32 0xFFFFFFFFFFFFFFFFFFFFFFFFFFFFFFFFFFFFFFFFFFFFFFFFFFFFFFFFFFFFFFFC CALLDATASIZE ADD SLT PUSH2 0x4F1 JUMPI PUSH1 0x20 SWAP1 PUSH2 0x66E PUSH2 0x2A80 JUMP JUMPDEST SWAP1 MLOAD SWAP1 DUP2 MSTORE RETURN JUMPDEST POP CALLVALUE PUSH2 0x4F1 JUMPI DUP2 PUSH32 0xFFFFFFFFFFFFFFFFFFFFFFFFFFFFFFFFFFFFFFFFFFFFFFFFFFFFFFFFFFFFFFFC CALLDATASIZE ADD SLT PUSH2 0x4F1 JUMPI PUSH2 0x6AC PUSH2 0x22F4 JUMP JUMPDEST SWAP2 PUSH1 0x24 SWAP3 DUP4 CALLDATALOAD PUSH8 0xFFFFFFFFFFFFFFFF DUP2 GT PUSH2 0x4F1 JUMPI PUSH2 0x6CE SWAP1 CALLDATASIZE SWAP1 DUP6 ADD PUSH2 0x2453 JUMP JUMPDEST SWAP3 PUSH20 0xFFFFFFFFFFFFFFFFFFFFFFFFFFFFFFFFFFFFFFFF SWAP4 PUSH2 0x6F4 DUP6 PUSH1 0x9 SLOAD AND CALLER EQ PUSH2 0x2561 JUMP JUMPDEST PUSH1 0x2 SLOAD PUSH0 SWAP2 PUSH2 0x701 PUSH2 0x268E JUMP JUMPDEST SWAP1 PUSH1 0x6 SLOAD SWAP2 MLOAD DUP3 SUB PUSH2 0xA14 JUMPI DUP2 ISZERO PUSH2 0x9B8 JUMPI SWAP1 PUSH0 SWAP2 JUMPDEST DUP2 DUP4 LT PUSH2 0x97F JUMPI POP POP POP DUP2 ISZERO PUSH2 0x8FD JUMPI DUP1 PUSH2 0x852 JUMPI POP SWAP4 JUMPDEST DUP5 ISZERO PUSH2 0x7F6 JUMPI PUSH2 0x762 DUP6 SWAP2 CALLER PUSH0 MSTORE PUSH0 PUSH1 0x20 MSTORE DUP6 PUSH0 KECCAK256 SLOAD SWAP5 PUSH2 0x750 DUP5 DUP3 PUSH2 0x2B58 JUMP JUMPDEST AND SWAP4 DUP5 PUSH0 MSTORE PUSH0 PUSH1 0x20 MSTORE DUP6 PUSH0 KECCAK256 SLOAD PUSH2 0x28A6 JUMP JUMPDEST SUB PUSH2 0x79A JUMPI POP PUSH1 0x20 SWAP4 POP PUSH32 0xF6798A560793A54C3BCFE86A93CDE1E73087D944C0EA20544137D4121396885 DUP5 DUP4 MLOAD DUP6 DUP2 MSTORE LOG2 MLOAD SWAP1 DUP2 MSTORE RETURN JUMPDEST PUSH1 0x64 SWAP1 PUSH1 0xB DUP7 PUSH1 0x20 DUP7 MLOAD SWAP4 PUSH32 0x8C379A000000000000000000000000000000000000000000000000000000000 DUP6 MSTORE DUP5 ADD MSTORE DUP3 ADD MSTORE PUSH32 0x4D696E74204661696C6564000000000000000000000000000000000000000000 PUSH1 0x44 DUP3 ADD MSTORE REVERT JUMPDEST PUSH1 0x64 DUP3 PUSH1 0xD DUP9 PUSH1 0x20 DUP9 MLOAD SWAP4 PUSH32 0x8C379A000000000000000000000000000000000000000000000000000000000 DUP6 MSTORE DUP5 ADD MSTORE DUP3 ADD MSTORE PUSH32 0x4D696E7420717479206973203000000000000000000000000000000000000000 PUSH1 0x44 DUP3 ADD MSTORE REVERT JUMPDEST PUSH2 0x85A PUSH2 0x2AAB JUMP JUMPDEST POP SWAP2 DUP3 ISZERO PUSH2 0x87B JUMPI PUSH2 0x875 SWAP3 SWAP2 PUSH2 0x870 SWAP2 PUSH2 0x282F JUMP JUMPDEST PUSH2 0x286F JUMP JUMPDEST SWAP4 PUSH2 0x72F JUMP JUMPDEST PUSH1 0x84 DUP5 PUSH1 0x26 DUP11 PUSH1 0x20 DUP11 MLOAD SWAP4 PUSH32 0x8C379A000000000000000000000000000000000000000000000000000000000 DUP6 MSTORE DUP5 ADD MSTORE DUP3 ADD MSTORE PUSH32 0x546F74616C206C6971756964697479206D757374206265206772656174657220 PUSH1 0x44 DUP3 ADD MSTORE PUSH32 0x7468616E20300000000000000000000000000000000000000000000000000000 PUSH1 0x64 DUP3 ADD MSTORE REVERT JUMPDEST PUSH1 0x84 DUP4 PUSH1 0x22 DUP10 PUSH1 0x20 DUP10 MLOAD SWAP4 PUSH32 0x8C379A000000000000000000000000000000000000000000000000000000000 DUP6 MSTORE DUP5 ADD MSTORE DUP3 ADD MSTORE PUSH32 0x546F74616C2076616C7565206D7573742062652067726561746572207468616E PUSH1 0x44 DUP3 ADD MSTORE PUSH32 0x2030000000000000000000000000000000000000000000000000000000000000 PUSH1 0x64 DUP3 ADD MSTORE REVERT JUMPDEST SWAP1 SWAP2 SWAP4 PUSH2 0x9AF PUSH1 0x1 SWAP2 PUSH2 0x9A9 DUP12 PUSH2 0x995 DUP10 PUSH2 0x24FC JUMP JUMPDEST POP SLOAD AND PUSH2 0x9A2 DUP10 DUP8 PUSH2 0x267A JUMP JUMPDEST MLOAD SWAP1 PUSH2 0x2CFF JUMP JUMPDEST SWAP1 PUSH2 0x2A73 JUMP JUMPDEST SWAP5 ADD SWAP2 SWAP1 PUSH2 0x717 JUMP JUMPDEST PUSH1 0x64 DUP6 PUSH1 0x9 DUP12 PUSH1 0x20 DUP12 MLOAD SWAP4 PUSH32 0x8C379A000000000000000000000000000000000000000000000000000000000 DUP6 MSTORE DUP5 ADD MSTORE DUP3 ADD MSTORE PUSH32 0x4E6F206173736574730000000000000000000000000000000000000000000000 PUSH1 0x44 DUP3 ADD MSTORE REVERT JUMPDEST PUSH1 0x64 DUP6 PUSH1 0x17 DUP12 PUSH1 0x20 DUP12 MLOAD SWAP4 PUSH32 0x8C379A000000000000000000000000000000000000000000000000000000000 DUP6 MSTORE DUP5 ADD MSTORE DUP3 ADD MSTORE PUSH32 0x496E76616C6964207265736572766573206C656E677468000000000000000000 PUSH1 0x44 DUP3 ADD MSTORE REVERT JUMPDEST DUP3 CALLVALUE PUSH2 0x4F1 JUMPI DUP1 PUSH32 0xFFFFFFFFFFFFFFFFFFFFFFFFFFFFFFFFFFFFFFFFFFFFFFFFFFFFFFFFFFFFFFFC CALLDATASIZE ADD SLT PUSH2 0x4F1 JUMPI PUSH1 0x20 SWAP1 PUSH2 0xAAA PUSH2 0x22F4 JUMP JUMPDEST PUSH2 0xAB2 PUSH2 0x2317 JUMP JUMPDEST SWAP1 PUSH20 0xFFFFFFFFFFFFFFFFFFFFFFFFFFFFFFFFFFFFFFFF DUP1 SWAP2 AND PUSH0 MSTORE PUSH1 0x1 DUP5 MSTORE DUP3 PUSH0 KECCAK256 SWAP2 AND PUSH0 MSTORE DUP3 MSTORE DUP1 PUSH0 KECCAK256 SLOAD SWAP1 MLOAD SWAP1 DUP2 MSTORE RETURN JUMPDEST DUP3 CALLVALUE PUSH2 0x4F1 JUMPI PUSH1 0x20 PUSH32 0xFFFFFFFFFFFFFFFFFFFFFFFFFFFFFFFFFFFFFFFFFFFFFFFFFFFFFFFFFFFFFFFC CALLDATASIZE ADD SLT PUSH2 0x4F1 JUMPI PUSH1 0x20 SWAP1 PUSH20 0xFFFFFFFFFFFFFFFFFFFFFFFFFFFFFFFFFFFFFFFF PUSH2 0xB35 PUSH2 0x22F4 JUMP JUMPDEST AND PUSH0 MSTORE PUSH1 0xD DUP3 MSTORE DUP1 PUSH0 KECCAK256 SLOAD SWAP1 MLOAD SWAP1 DUP2 MSTORE RETURN JUMPDEST POP CALLVALUE PUSH2 0x4F1 JUMPI PUSH1 0x20 PUSH32 0xFFFFFFFFFFFFFFFFFFFFFFFFFFFFFFFFFFFFFFFFFFFFFFFFFFFFFFFFFFFFFFFC CALLDATASIZE ADD SLT PUSH2 0x4F1 JUMPI CALLDATALOAD PUSH1 0x6 SLOAD DUP2 LT ISZERO PUSH2 0x4F1 JUMPI PUSH2 0xB8B SWAP1 PUSH2 0x24FC JUMP JUMPDEST POP DUP1 SLOAD PUSH1 0x1 SWAP1 SWAP2 ADD SLOAD SWAP2 MLOAD PUSH20 0xFFFFFFFFFFFFFFFFFFFFFFFFFFFFFFFFFFFFFFFF SWAP1 SWAP2 AND DUP2 MSTORE PUSH1 0x20 DUP2 ADD SWAP2 SWAP1 SWAP2 MSTORE PUSH1 0x40 SWAP1 RETURN JUMPDEST SUB SWAP1 RETURN JUMPDEST POP CALLVALUE PUSH2 0x4F1 JUMPI PUSH1 0x20 PUSH32 0xFFFFFFFFFFFFFFFFFFFFFFFFFFFFFFFFFFFFFFFFFFFFFFFFFFFFFFFFFFFFFFFC CALLDATASIZE ADD SLT PUSH2 0x4F1 JUMPI DUP1 CALLDATALOAD SWAP1 PUSH2 0xBFC PUSH2 0x2AAB JUMP JUMPDEST DUP1 SWAP3 SWAP2 POP MLOAD DUP4 LT ISZERO PUSH2 0xC1D JUMPI PUSH1 0x20 DUP5 PUSH2 0xC15 DUP6 DUP6 PUSH2 0x267A JUMP JUMPDEST MLOAD SWAP1 MLOAD SWAP1 DUP2 MSTORE RETURN JUMPDEST PUSH1 0x64 SWAP1 PUSH1 0x20 DUP6 MLOAD SWAP2 PUSH32 0x8C379A000000000000000000000000000000000000000000000000000000000 DUP4 MSTORE DUP3 ADD MSTORE PUSH1 0x13 PUSH1 0x24 DUP3 ADD MSTORE PUSH32 0x496E76616C696420617373657420696E64657800000000000000000000000000 PUSH1 0x44 DUP3 ADD MSTORE REVERT JUMPDEST DUP3 CALLVALUE PUSH2 0x4F1 JUMPI PUSH0 PUSH32 0xFFFFFFFFFFFFFFFFFFFFFFFFFFFFFFFFFFFFFFFFFFFFFFFFFFFFFFFFFFFFFFFC CALLDATASIZE ADD SLT PUSH2 0x4F1 JUMPI PUSH1 0x20 SWAP1 PUSH20 0xFFFFFFFFFFFFFFFFFFFFFFFFFFFFFFFFFFFFFFFF PUSH1 0xB SLOAD AND SWAP1 MLOAD SWAP1 DUP2 MSTORE RETURN JUMPDEST DUP3 CALLVALUE PUSH2 0x4F1 JUMPI PUSH0 PUSH32 0xFFFFFFFFFFFFFFFFFFFFFFFFFFFFFFFFFFFFFFFFFFFFFFFFFFFFFFFFFFFFFFFC CALLDATASIZE ADD SLT PUSH2 0x4F1 JUMPI PUSH1 0x20 SWAP1 PUSH20 0xFFFFFFFFFFFFFFFFFFFFFFFFFFFFFFFFFFFFFFFF PUSH1 0xA SLOAD AND SWAP1 MLOAD SWAP1 DUP2 MSTORE RETURN JUMPDEST DUP3 CALLVALUE PUSH2 0x4F1 JUMPI PUSH0 PUSH32 0xFFFFFFFFFFFFFFFFFFFFFFFFFFFFFFFFFFFFFFFFFFFFFFFFFFFFFFFFFFFFFFFC CALLDATASIZE ADD SLT PUSH2 0x4F1 JUMPI PUSH1 0x20 SWAP1 PUSH1 0x8 SLOAD SWAP1 MLOAD SWAP1 DUP2 MSTORE RETURN JUMPDEST DUP3 CALLVALUE PUSH2 0x4F1 JUMPI DUP1 PUSH32 0xFFFFFFFFFFFFFFFFFFFFFFFFFFFFFFFFFFFFFFFFFFFFFFFFFFFFFFFFFFFFFFFC CALLDATASIZE ADD SLT PUSH2 0x4F1 JUMPI PUSH1 0x20 SWAP1 PUSH2 0xDA1 PUSH2 0xD97 PUSH2 0x22F4 JUMP JUMPDEST PUSH1 0x24 CALLDATALOAD SWAP1 CALLER PUSH2 0x2BF2 JUMP JUMPDEST MLOAD PUSH1 0x1 DUP2 MSTORE RETURN JUMPDEST POP SWAP1 CALLVALUE PUSH2 0x4F1 JUMPI PUSH0 PUSH32 0xFFFFFFFFFFFFFFFFFFFFFFFFFFFFFFFFFFFFFFFFFFFFFFFFFFFFFFFFFFFFFFFC CALLDATASIZE ADD SLT PUSH2 0x4F1 JUMPI DUP1 MLOAD SWAP1 PUSH0 SWAP3 DUP1 SLOAD SWAP1 PUSH1 0x1 DUP3 PUSH1 0x1 SHR SWAP2 PUSH1 0x1 DUP5 AND SWAP4 DUP5 ISZERO PUSH2 0xEF2 JUMPI JUMPDEST PUSH1 0x20 SWAP5 DUP6 DUP6 LT DUP2 EQ PUSH2 0xEC6 JUMPI DUP5 DUP9 MSTORE SWAP1 DUP2 ISZERO PUSH2 0xE86 JUMPI POP PUSH1 0x1 EQ PUSH2 0xE2D JUMPI JUMPDEST PUSH2 0xBBD DUP7 DUP7 PUSH2 0xE23 DUP3 DUP12 SUB DUP4 PUSH2 0x23CD JUMP JUMPDEST MLOAD SWAP2 DUP3 SWAP2 DUP3 PUSH2 0x22AC JUMP JUMPDEST PUSH0 SWAP1 DUP2 MSTORE SWAP3 SWAP6 POP PUSH32 0x8A35ACFBC15FF81A39AE7D344FD709F28E8600B4AA8C65C6B64BFE7FE36BD19B JUMPDEST DUP3 DUP5 LT PUSH2 0xE73 JUMPI POP POP POP DUP3 PUSH2 0xBBD SWAP5 PUSH2 0xE23 SWAP3 DUP3 ADD ADD SWAP5 DUP7 PUSH2 0xE12 JUMP JUMPDEST DUP1 SLOAD DUP7 DUP6 ADD DUP9 ADD MSTORE SWAP3 DUP7 ADD SWAP3 DUP2 ADD PUSH2 0xE56 JUMP JUMPDEST PUSH32 0xFFFFFFFFFFFFFFFFFFFFFFFFFFFFFFFFFFFFFFFFFFFFFFFFFFFFFFFFFFFFFF00 AND DUP8 DUP7 ADD MSTORE POP POP POP ISZERO ISZERO PUSH1 0x5 SHL DUP4 ADD ADD SWAP3 POP PUSH2 0xE23 DUP3 PUSH2 0xBBD DUP7 PUSH2 0xE12 JUMP JUMPDEST PUSH1 0x22 DUP4 PUSH32 0x4E487B7100000000000000000000000000000000000000000000000000000000 PUSH0 MSTORE MSTORE PUSH1 0x24 PUSH0 REVERT JUMPDEST SWAP3 PUSH1 0x7F AND SWAP3 PUSH2 0xDF3 JUMP JUMPDEST DUP3 CALLVALUE PUSH2 0x4F1 JUMPI PUSH0 PUSH32 0xFFFFFFFFFFFFFFFFFFFFFFFFFFFFFFFFFFFFFFFFFFFFFFFFFFFFFFFFFFFFFFFC CALLDATASIZE ADD SLT PUSH2 0x4F1 JUMPI PUSH1 0x20 SWAP1 PUSH2 0xF36 PUSH2 0x2A1D JUMP JUMPDEST SWAP1 MLOAD SWAP1 ISZERO ISZERO DUP2 MSTORE RETURN JUMPDEST POP SWAP1 CALLVALUE PUSH2 0x4F1 JUMPI PUSH1 0x20 SWAP1 DUP2 PUSH32 0xFFFFFFFFFFFFFFFFFFFFFFFFFFFFFFFFFFFFFFFFFFFFFFFFFFFFFFFFFFFFFFFC CALLDATASIZE ADD SLT PUSH2 0x4F1 JUMPI PUSH2 0xF7A PUSH2 0x22F4 JUMP JUMPDEST PUSH20 0xFFFFFFFFFFFFFFFFFFFFFFFFFFFFFFFFFFFFFFFF DUP1 PUSH1 0x9 SLOAD AND SWAP2 PUSH2 0xFA0 DUP4 CALLER EQ PUSH2 0x2561 JUMP JUMPDEST ADDRESS PUSH0 MSTORE PUSH0 DUP6 MSTORE DUP4 PUSH0 KECCAK256 SLOAD SWAP6 DUP7 ISZERO PUSH2 0x13FC JUMPI PUSH1 0x2 SLOAD SWAP7 DUP8 ISZERO PUSH2 0x13A0 JUMPI PUSH1 0x6 SLOAD PUSH2 0xFC7 DUP2 PUSH2 0x262B JUMP JUMPDEST SWAP9 PUSH1 0x1E DUP4 MUL DUP4 DUP2 DIV PUSH1 0x1E SUB PUSH2 0x1374 JUMPI PUSH2 0x2710 PUSH2 0xFE5 SWAP2 DIV DUP1 SWAP5 PUSH2 0x28A6 JUMP JUMPDEST SWAP7 PUSH0 JUMPDEST DUP4 DUP2 LT PUSH2 0x12BB JUMPI POP POP POP POP ADDRESS PUSH0 MSTORE PUSH0 DUP8 MSTORE PUSH2 0x1008 DUP6 DUP8 PUSH0 KECCAK256 SLOAD LT ISZERO PUSH2 0x29B8 JUMP JUMPDEST DUP2 DUP8 DUP6 PUSH1 0xC SLOAD AND DUP9 MLOAD SWAP3 DUP4 DUP1 SWAP3 PUSH32 0x61D027B300000000000000000000000000000000000000000000000000000000 DUP3 MSTORE GAS STATICCALL SWAP1 DUP2 ISZERO PUSH2 0x12B1 JUMPI SWAP1 DUP9 SWAP2 PUSH0 SWAP2 PUSH2 0x1277 JUMPI JUMPDEST POP DUP8 MLOAD PUSH32 0xA9059CBB00000000000000000000000000000000000000000000000000000000 DUP2 MSTORE PUSH20 0xFFFFFFFFFFFFFFFFFFFFFFFFFFFFFFFFFFFFFFFF SWAP1 SWAP2 AND DUP5 DUP3 ADD SWAP1 DUP2 MSTORE PUSH1 0x20 DUP2 ADD SWAP4 SWAP1 SWAP4 MSTORE SWAP2 DUP3 SWAP1 DUP2 SWAP1 PUSH1 0x40 ADD JUMPDEST SUB DUP2 PUSH0 ADDRESS GAS CALL SWAP1 DUP2 ISZERO PUSH2 0x126D JUMPI PUSH0 SWAP2 PUSH2 0x1237 JUMPI JUMPDEST POP ISZERO PUSH2 0x11DB JUMPI ADDRESS PUSH0 MSTORE PUSH0 DUP7 MSTORE PUSH2 0x10CF DUP5 DUP7 PUSH0 KECCAK256 SLOAD LT ISZERO PUSH2 0x29B8 JUMP JUMPDEST ADDRESS ISZERO PUSH2 0x11AC JUMPI ADDRESS PUSH0 MSTORE PUSH0 DUP7 MSTORE DUP5 PUSH0 KECCAK256 SLOAD SWAP1 DUP5 DUP3 LT PUSH2 0x1168 JUMPI POP DUP4 SWAP3 PUSH32 0xCC16F5DBB4873280815C1EE09DBD06736CFFCC184412CF7A71A0FDB75D397CA5 SWAP3 PUSH2 0xBBD SWAP7 SWAP6 DUP9 SWAP4 ADDRESS PUSH0 MSTORE PUSH0 DUP6 MSTORE SUB DUP7 PUSH0 KECCAK256 SSTORE DUP5 PUSH1 0x2 SLOAD SUB PUSH1 0x2 SSTORE PUSH0 DUP7 MLOAD DUP7 DUP2 MSTORE PUSH32 0xDDF252AD1BE2C89B69C2B068FC378DAA952BA7F163C4A11628F55A4DF523B3EF DUP6 ADDRESS SWAP3 LOG3 DUP6 MLOAD SWAP5 DUP6 MSTORE AND SWAP3 LOG2 MLOAD SWAP3 DUP3 DUP5 SWAP4 DUP5 MSTORE DUP4 ADD SWAP1 PUSH2 0x233A JUMP JUMPDEST DUP6 MLOAD PUSH32 0xE450D38C00000000000000000000000000000000000000000000000000000000 DUP2 MSTORE ADDRESS SWAP2 DUP2 ADD SWAP2 DUP3 MSTORE PUSH1 0x20 DUP3 ADD SWAP3 SWAP1 SWAP3 MSTORE PUSH1 0x40 DUP2 ADD DUP6 SWAP1 MSTORE DUP2 SWAP1 PUSH1 0x60 ADD SUB SWAP1 REVERT JUMPDEST PUSH1 0x24 SWAP1 PUSH0 DUP7 MLOAD SWAP2 PUSH32 0x96C6FD1E00000000000000000000000000000000000000000000000000000000 DUP4 MSTORE DUP3 ADD MSTORE REVERT JUMPDEST PUSH1 0x64 SWAP1 DUP7 DUP7 MLOAD SWAP2 PUSH32 0x8C379A000000000000000000000000000000000000000000000000000000000 DUP4 MSTORE DUP3 ADD MSTORE PUSH1 0x13 PUSH1 0x24 DUP3 ADD MSTORE PUSH32 0x466565207472616E73666572206661696C656400000000000000000000000000 PUSH1 0x44 DUP3 ADD MSTORE REVERT JUMPDEST SWAP1 POP DUP7 DUP2 DUP2 RETURNDATASIZE DUP4 GT PUSH2 0x1266 JUMPI JUMPDEST PUSH2 0x124E DUP2 DUP4 PUSH2 0x23CD JUMP JUMPDEST DUP2 ADD SUB SLT PUSH2 0x4F1 JUMPI MLOAD DUP1 ISZERO ISZERO DUP2 SUB PUSH2 0x4F1 JUMPI DUP9 PUSH2 0x10B4 JUMP JUMPDEST POP RETURNDATASIZE PUSH2 0x1244 JUMP JUMPDEST DUP7 MLOAD RETURNDATASIZE PUSH0 DUP3 RETURNDATACOPY RETURNDATASIZE SWAP1 REVERT JUMPDEST DUP3 DUP2 SWAP4 SWAP3 POP RETURNDATASIZE DUP4 GT PUSH2 0x12AA JUMPI JUMPDEST PUSH2 0x128E DUP2 DUP4 PUSH2 0x23CD JUMP JUMPDEST DUP2 ADD SUB SLT PUSH2 0x4F1 JUMPI MLOAD DUP5 DUP2 AND DUP2 SUB PUSH2 0x4F1 JUMPI DUP8 SWAP1 PUSH2 0x10A0 PUSH2 0x104B JUMP JUMPDEST POP RETURNDATASIZE PUSH2 0x1284 JUMP JUMPDEST DUP8 MLOAD RETURNDATASIZE PUSH0 DUP3 RETURNDATACOPY RETURNDATASIZE SWAP1 REVERT JUMPDEST DUP8 PUSH2 0x12C5 DUP3 PUSH2 0x24FC JUMP JUMPDEST POP SLOAD AND DUP11 MLOAD SWAP1 PUSH32 0xA3E113FB00000000000000000000000000000000000000000000000000000000 DUP3 MSTORE ADDRESS DUP9 DUP4 ADD MSTORE PUSH1 0x24 DUP3 ADD MSTORE DUP12 DUP2 PUSH1 0x44 DUP2 DUP7 GAS STATICCALL SWAP1 DUP2 ISZERO PUSH2 0x136A JUMPI DUP11 DUP6 SWAP4 SWAP3 DUP16 SWAP3 PUSH0 SWAP2 PUSH2 0x1330 JUMPI JUMPDEST POP PUSH2 0x493 PUSH1 0x1 SWAP6 PUSH2 0x870 PUSH2 0x1329 SWAP5 DUP8 SWAP5 PUSH2 0x282F JUMP JUMPDEST MSTORE ADD PUSH2 0xFE8 JUMP JUMPDEST SWAP5 POP POP POP POP DUP12 DUP3 DUP2 RETURNDATASIZE DUP4 GT PUSH2 0x1363 JUMPI JUMPDEST PUSH2 0x134A DUP2 DUP4 PUSH2 0x23CD JUMP JUMPDEST DUP2 ADD SUB SLT PUSH2 0x4F1 JUMPI SWAP1 MLOAD DUP4 SWAP2 SWAP1 DUP14 SWAP1 DUP12 SWAP1 PUSH2 0x493 PUSH2 0x1314 JUMP JUMPDEST POP RETURNDATASIZE PUSH2 0x1340 JUMP JUMPDEST DUP12 MLOAD RETURNDATASIZE PUSH0 DUP3 RETURNDATACOPY RETURNDATASIZE SWAP1 REVERT JUMPDEST PUSH1 0x11 DUP6 PUSH32 0x4E487B7100000000000000000000000000000000000000000000000000000000 PUSH0 MSTORE MSTORE PUSH1 0x24 PUSH0 REVERT JUMPDEST PUSH1 0x64 DUP3 DUP9 DUP9 MLOAD SWAP2 PUSH32 0x8C379A000000000000000000000000000000000000000000000000000000000 DUP4 MSTORE DUP3 ADD MSTORE PUSH1 0xC PUSH1 0x24 DUP3 ADD MSTORE PUSH32 0x4E6F206C69717569646974790000000000000000000000000000000000000000 PUSH1 0x44 DUP3 ADD MSTORE REVERT JUMPDEST PUSH1 0x64 SWAP1 DUP7 DUP7 MLOAD SWAP2 PUSH32 0x8C379A000000000000000000000000000000000000000000000000000000000 DUP4 MSTORE DUP3 ADD MSTORE PUSH1 0x1C PUSH1 0x24 DUP3 ADD MSTORE PUSH32 0x5368617265206D7573742062652067726561746572207468616E203000000000 PUSH1 0x44 DUP3 ADD MSTORE REVERT JUMPDEST DUP3 CALLVALUE PUSH2 0x4F1 JUMPI PUSH0 PUSH32 0xFFFFFFFFFFFFFFFFFFFFFFFFFFFFFFFFFFFFFFFFFFFFFFFFFFFFFFFFFFFFFFFC CALLDATASIZE ADD SLT PUSH2 0x4F1 JUMPI PUSH2 0x148F PUSH2 0x28B3 JUMP JUMPDEST DUP3 MLOAD SWAP3 DUP4 SWAP2 DUP2 DUP4 ADD SWAP2 DUP4 MSTORE DUP4 MLOAD DUP1 SWAP3 MSTORE PUSH1 0x60 DUP4 ADD SWAP2 PUSH1 0x20 DUP1 SWAP6 ADD SWAP5 PUSH0 JUMPDEST DUP3 DUP2 LT PUSH2 0x14C7 JUMPI DUP6 DUP1 PUSH2 0xBBD DUP8 DUP8 DUP4 DUP3 SUB PUSH1 0x20 DUP6 ADD MSTORE PUSH2 0x233A JUMP JUMPDEST DUP7 MLOAD ISZERO ISZERO DUP6 MSTORE SWAP6 DUP2 ADD SWAP6 DUP8 SWAP6 POP SWAP4 DUP2 ADD SWAP4 PUSH1 0x1 ADD PUSH2 0x14AC JUMP JUMPDEST DUP3 CALLVALUE PUSH2 0x4F1 JUMPI PUSH0 PUSH32 0xFFFFFFFFFFFFFFFFFFFFFFFFFFFFFFFFFFFFFFFFFFFFFFFFFFFFFFFFFFFFFFFC CALLDATASIZE ADD SLT PUSH2 0x4F1 JUMPI PUSH1 0x20 SWAP1 PUSH1 0x7 SLOAD SWAP1 MLOAD SWAP1 DUP2 MSTORE RETURN JUMPDEST DUP3 CALLVALUE PUSH2 0x4F1 JUMPI PUSH0 PUSH32 0xFFFFFFFFFFFFFFFFFFFFFFFFFFFFFFFFFFFFFFFFFFFFFFFFFFFFFFFFFFFFFFFC CALLDATASIZE ADD SLT PUSH2 0x4F1 JUMPI PUSH1 0x20 SWAP1 PUSH20 0xFFFFFFFFFFFFFFFFFFFFFFFFFFFFFFFFFFFFFFFF PUSH1 0x9 SLOAD AND SWAP1 MLOAD SWAP1 DUP2 MSTORE RETURN JUMPDEST DUP3 CALLVALUE PUSH2 0x4F1 JUMPI PUSH1 0x20 PUSH32 0xFFFFFFFFFFFFFFFFFFFFFFFFFFFFFFFFFFFFFFFFFFFFFFFFFFFFFFFFFFFFFFFC CALLDATASIZE ADD SLT PUSH2 0x4F1 JUMPI PUSH1 0x20 SWAP1 PUSH20 0xFFFFFFFFFFFFFFFFFFFFFFFFFFFFFFFFFFFFFFFF PUSH2 0x15BE PUSH2 0x22F4 JUMP JUMPDEST AND PUSH0 MSTORE PUSH0 DUP3 MSTORE DUP1 PUSH0 KECCAK256 SLOAD SWAP1 MLOAD SWAP1 DUP2 MSTORE RETURN JUMPDEST POP SWAP1 CALLVALUE PUSH2 0x4F1 JUMPI PUSH1 0x80 PUSH32 0xFFFFFFFFFFFFFFFFFFFFFFFFFFFFFFFFFFFFFFFFFFFFFFFFFFFFFFFFFFFFFFFC CALLDATASIZE ADD SLT PUSH2 0x4F1 JUMPI PUSH2 0x1608 PUSH2 0x22F4 JUMP JUMPDEST SWAP1 PUSH2 0x1611 PUSH2 0x2317 JUMP JUMPDEST PUSH1 0x44 CALLDATALOAD SWAP3 PUSH1 0x64 CALLDATALOAD PUSH20 0xFFFFFFFFFFFFFFFFFFFFFFFFFFFFFFFFFFFFFFFF SWAP3 DUP4 DUP3 AND DUP1 SWAP3 SUB PUSH2 0x4F1 JUMPI PUSH1 0x2 PUSH1 0x5 SLOAD EQ PUSH2 0x181A JUMPI PUSH1 0x2 PUSH1 0x5 SSTORE DUP4 DUP2 AND SWAP4 DUP4 AND SWAP3 DUP5 DUP5 EQ PUSH2 0x17BD JUMPI DUP7 ISZERO PUSH2 0x1760 JUMPI PUSH2 0x1666 SWAP2 DUP8 SWAP2 PUSH2 0x2786 JUMP JUMPDEST SWAP6 DUP4 PUSH0 MSTORE PUSH1 0xD PUSH1 0x20 MSTORE DUP7 DUP6 PUSH0 KECCAK256 SLOAD LT PUSH2 0x1703 JUMPI PUSH1 0x1E DUP8 MUL SWAP1 DUP8 DUP3 DIV PUSH1 0x1E EQ DUP9 ISZERO OR ISZERO PUSH2 0x16D7 JUMPI POP DUP5 PUSH2 0x16C0 PUSH1 0x20 SWAP9 PUSH2 0x2710 PUSH32 0xCD3829A3813DC3CDD188FD3D01DCF3268C16BE2FDD2DD21D0665418816E46062 SWAP5 DIV SWAP1 PUSH2 0x28A6 JUMP JUMPDEST SWAP7 DUP2 MLOAD SWAP1 DUP2 MSTORE DUP8 DUP10 DUP3 ADD MSTORE LOG4 PUSH1 0x1 PUSH1 0x5 SSTORE MLOAD SWAP1 DUP2 MSTORE RETURN JUMPDEST PUSH1 0x11 SWAP1 PUSH32 0x4E487B7100000000000000000000000000000000000000000000000000000000 PUSH0 MSTORE MSTORE PUSH1 0x24 PUSH0 REVERT JUMPDEST PUSH1 0x64 SWAP1 PUSH1 0x20 DUP7 MLOAD SWAP2 PUSH32 0x8C379A000000000000000000000000000000000000000000000000000000000 DUP4 MSTORE DUP3 ADD MSTORE PUSH1 0x16 PUSH1 0x24 DUP3 ADD MSTORE PUSH32 0x496E73756666696369656E74204C697175696469747900000000000000000000 PUSH1 0x44 DUP3 ADD MSTORE REVERT JUMPDEST PUSH1 0x64 DUP9 PUSH1 0x20 DUP9 MLOAD SWAP2 PUSH32 0x8C379A000000000000000000000000000000000000000000000000000000000 DUP4 MSTORE DUP3 ADD MSTORE PUSH1 0x20 PUSH1 0x24 DUP3 ADD MSTORE PUSH32 0x416D6F756E74206D7573742062652067726561746572207468616E207A65726F PUSH1 0x44 DUP3 ADD MSTORE REVERT JUMPDEST PUSH1 0x64 DUP9 PUSH1 0x20 DUP9 MLOAD SWAP2 PUSH32 0x8C379A000000000000000000000000000000000000000000000000000000000 DUP4 MSTORE DUP3 ADD MSTORE PUSH1 0x1A PUSH1 0x24 DUP3 ADD MSTORE PUSH32 0x43616E6E6F742073776170207468652073616D6520746F6B656E000000000000 PUSH1 0x44 DUP3 ADD MSTORE REVERT JUMPDEST DUP7 DUP6 MLOAD PUSH32 0x3EE5AEB500000000000000000000000000000000000000000000000000000000 DUP2 MSTORE REVERT JUMPDEST DUP3 CALLVALUE PUSH2 0x4F1 JUMPI PUSH0 PUSH32 0xFFFFFFFFFFFFFFFFFFFFFFFFFFFFFFFFFFFFFFFFFFFFFFFFFFFFFFFFFFFFFFFC CALLDATASIZE ADD SLT PUSH2 0x4F1 JUMPI PUSH1 0x6 SLOAD PUSH2 0x187D DUP2 PUSH2 0x262B JUMP JUMPDEST SWAP1 PUSH0 JUMPDEST DUP2 DUP2 LT PUSH2 0x189C JUMPI DUP4 MLOAD PUSH1 0x20 DUP1 DUP3 MSTORE DUP2 SWAP1 PUSH2 0xBBD SWAP1 DUP3 ADD DUP7 PUSH2 0x24B3 JUMP JUMPDEST DUP1 PUSH20 0xFFFFFFFFFFFFFFFFFFFFFFFFFFFFFFFFFFFFFFFF PUSH2 0x18BD PUSH1 0x1 SWAP4 PUSH2 0x24FC JUMP JUMPDEST POP SLOAD AND PUSH2 0x18CA DUP3 DUP7 PUSH2 0x267A JUMP JUMPDEST MSTORE ADD PUSH2 0x1880 JUMP JUMPDEST DUP3 CALLVALUE PUSH2 0x4F1 JUMPI PUSH0 PUSH32 0xFFFFFFFFFFFFFFFFFFFFFFFFFFFFFFFFFFFFFFFFFFFFFFFFFFFFFFFFFFFFFFFC CALLDATASIZE ADD SLT PUSH2 0x4F1 JUMPI PUSH1 0x20 SWAP1 MLOAD PUSH1 0x1E DUP2 MSTORE RETURN JUMPDEST DUP3 CALLVALUE PUSH2 0x4F1 JUMPI PUSH1 0x20 SWAP1 PUSH2 0x66E PUSH2 0x191F CALLDATASIZE PUSH2 0x236D JUMP JUMPDEST SWAP2 PUSH2 0x2786 JUMP JUMPDEST POP CALLVALUE PUSH2 0x4F1 JUMPI DUP2 PUSH32 0xFFFFFFFFFFFFFFFFFFFFFFFFFFFFFFFFFFFFFFFFFFFFFFFFFFFFFFFFFFFFFFFC CALLDATASIZE ADD SLT PUSH2 0x4F1 JUMPI DUP1 CALLDATALOAD SWAP1 PUSH8 0xFFFFFFFFFFFFFFFF DUP3 GT PUSH2 0x4F1 JUMPI PUSH2 0x1972 SWAP2 CALLDATASIZE SWAP2 ADD PUSH2 0x2453 JUMP JUMPDEST SWAP1 PUSH1 0x24 CALLDATALOAD DUP1 ISZERO ISZERO DUP2 SUB PUSH2 0x4F1 JUMPI PUSH20 0xFFFFFFFFFFFFFFFFFFFFFFFFFFFFFFFFFFFFFFFF SWAP3 PUSH2 0x19A4 DUP5 PUSH1 0x9 SLOAD AND CALLER EQ PUSH2 0x2561 JUMP JUMPDEST PUSH0 JUMPDEST PUSH1 0x6 SLOAD DUP2 LT ISZERO PUSH2 0x1A0C JUMPI DUP1 DUP6 PUSH2 0x19BD PUSH1 0x1 SWAP4 PUSH2 0x24FC JUMP JUMPDEST POP SLOAD AND PUSH2 0x19CA DUP3 DUP6 PUSH2 0x267A JUMP JUMPDEST MLOAD SWAP1 DUP6 ISZERO PUSH2 0x19F0 JUMPI PUSH0 MSTORE PUSH1 0xD PUSH1 0x20 MSTORE PUSH2 0x19E7 DUP7 PUSH0 KECCAK256 SWAP2 DUP3 SLOAD PUSH2 0x2A73 JUMP JUMPDEST SWAP1 SSTORE JUMPDEST ADD PUSH2 0x19A6 JUMP JUMPDEST PUSH0 MSTORE PUSH1 0xD PUSH1 0x20 MSTORE PUSH2 0x1A05 DUP7 PUSH0 KECCAK256 SWAP2 DUP3 SLOAD PUSH2 0x28A6 JUMP JUMPDEST SWAP1 SSTORE PUSH2 0x19EA JUMP JUMPDEST STOP JUMPDEST DUP3 CALLVALUE PUSH2 0x4F1 JUMPI PUSH0 PUSH32 0xFFFFFFFFFFFFFFFFFFFFFFFFFFFFFFFFFFFFFFFFFFFFFFFFFFFFFFFFFFFFFFFC CALLDATASIZE ADD SLT PUSH2 0x4F1 JUMPI PUSH2 0xBBD PUSH2 0x1A48 PUSH2 0x2AAB JUMP JUMPDEST DUP4 SWAP3 SWAP2 SWAP3 MLOAD SWAP4 DUP5 SWAP4 DUP5 MSTORE DUP1 PUSH1 0x20 DUP6 ADD MSTORE DUP4 ADD SWAP1 PUSH2 0x233A JUMP JUMPDEST DUP3 CALLVALUE PUSH2 0x4F1 JUMPI PUSH0 PUSH32 0xFFFFFFFFFFFFFFFFFFFFFFFFFFFFFFFFFFFFFFFFFFFFFFFFFFFFFFFFFFFFFFFC CALLDATASIZE ADD SLT PUSH2 0x4F1 JUMPI PUSH1 0x20 SWAP1 MLOAD PUSH1 0x12 DUP2 MSTORE RETURN JUMPDEST POP CALLVALUE PUSH2 0x4F1 JUMPI PUSH2 0x1AA8 CALLDATASIZE PUSH2 0x236D JUMP JUMPDEST SWAP3 PUSH20 0xFFFFFFFFFFFFFFFFFFFFFFFFFFFFFFFFFFFFFFFF DUP4 SWAP3 SWAP4 AND DUP1 PUSH0 MSTORE PUSH1 0x1 PUSH1 0x20 MSTORE DUP6 PUSH0 KECCAK256 CALLER PUSH0 MSTORE PUSH1 0x20 MSTORE DUP6 PUSH0 KECCAK256 SLOAD SWAP2 PUSH32 0xFFFFFFFFFFFFFFFFFFFFFFFFFFFFFFFFFFFFFFFFFFFFFFFFFFFFFFFFFFFFFFFF DUP4 SUB PUSH2 0x1B0E JUMPI JUMPDEST PUSH1 0x20 DUP8 PUSH2 0xDA1 DUP9 DUP9 DUP9 PUSH2 0x2BF2 JUMP JUMPDEST DUP6 DUP4 LT PUSH2 0x1BA8 JUMPI DUP2 ISZERO PUSH2 0x1B79 JUMPI CALLER ISZERO PUSH2 0x1B4A JUMPI POP PUSH0 SWAP1 DUP2 MSTORE PUSH1 0x1 PUSH1 0x20 SWAP1 DUP2 MSTORE DUP7 DUP3 KECCAK256 CALLER DUP4 MSTORE DUP2 MSTORE SWAP1 DUP7 SWAP1 KECCAK256 SWAP2 DUP6 SWAP1 SUB SWAP1 SWAP2 SSTORE DUP3 SWAP1 PUSH2 0xDA1 PUSH2 0x1B00 JUMP JUMPDEST PUSH1 0x24 SWAP1 PUSH0 DUP9 MLOAD SWAP2 PUSH32 0x94280D6200000000000000000000000000000000000000000000000000000000 DUP4 MSTORE DUP3 ADD MSTORE REVERT JUMPDEST PUSH1 0x24 SWAP1 PUSH0 DUP9 MLOAD SWAP2 PUSH32 0xE602DF0500000000000000000000000000000000000000000000000000000000 DUP4 MSTORE DUP3 ADD MSTORE REVERT JUMPDEST DUP7 MLOAD PUSH32 0xFB8F41B200000000000000000000000000000000000000000000000000000000 DUP2 MSTORE CALLER SWAP2 DUP2 ADD SWAP2 DUP3 MSTORE PUSH1 0x20 DUP3 ADD SWAP4 SWAP1 SWAP4 MSTORE PUSH1 0x40 DUP2 ADD DUP7 SWAP1 MSTORE DUP3 SWAP2 POP PUSH1 0x60 ADD SUB SWAP1 REVERT JUMPDEST DUP3 CALLVALUE PUSH2 0x4F1 JUMPI PUSH0 PUSH32 0xFFFFFFFFFFFFFFFFFFFFFFFFFFFFFFFFFFFFFFFFFFFFFFFFFFFFFFFFFFFFFFFC CALLDATASIZE ADD SLT PUSH2 0x4F1 JUMPI PUSH1 0x6 SLOAD PUSH2 0x1C28 DUP2 PUSH2 0x262B JUMP JUMPDEST SWAP1 PUSH0 JUMPDEST DUP2 DUP2 LT PUSH2 0x1C47 JUMPI DUP4 MLOAD PUSH1 0x20 DUP1 DUP3 MSTORE DUP2 SWAP1 PUSH2 0xBBD SWAP1 DUP3 ADD DUP7 PUSH2 0x233A JUMP JUMPDEST DUP1 PUSH1 0x1 PUSH2 0x1C54 DUP2 SWAP4 PUSH2 0x24FC JUMP JUMPDEST POP ADD SLOAD PUSH2 0x1C61 DUP3 DUP7 PUSH2 0x267A JUMP JUMPDEST MSTORE ADD PUSH2 0x1C2B JUMP JUMPDEST DUP3 CALLVALUE PUSH2 0x4F1 JUMPI PUSH0 PUSH32 0xFFFFFFFFFFFFFFFFFFFFFFFFFFFFFFFFFFFFFFFFFFFFFFFFFFFFFFFFFFFFFFFC CALLDATASIZE ADD SLT PUSH2 0x4F1 JUMPI PUSH1 0x20 SWAP1 PUSH2 0x1CA2 PUSH2 0x2AAB JUMP JUMPDEST POP SWAP1 MLOAD SWAP1 DUP2 MSTORE RETURN JUMPDEST DUP3 CALLVALUE PUSH2 0x4F1 JUMPI PUSH0 PUSH32 0xFFFFFFFFFFFFFFFFFFFFFFFFFFFFFFFFFFFFFFFFFFFFFFFFFFFFFFFFFFFFFFFC CALLDATASIZE ADD SLT PUSH2 0x4F1 JUMPI PUSH1 0x20 SWAP1 PUSH1 0x2 SLOAD SWAP1 MLOAD SWAP1 DUP2 MSTORE RETURN JUMPDEST POP SWAP1 CALLVALUE PUSH2 0x4F1 JUMPI DUP1 PUSH32 0xFFFFFFFFFFFFFFFFFFFFFFFFFFFFFFFFFFFFFFFFFFFFFFFFFFFFFFFFFFFFFFFC CALLDATASIZE ADD SLT PUSH2 0x4F1 JUMPI PUSH2 0x1D1E PUSH2 0x22F4 JUMP JUMPDEST PUSH1 0x24 CALLDATALOAD SWAP1 CALLER ISZERO PUSH2 0x1DBD JUMPI PUSH20 0xFFFFFFFFFFFFFFFFFFFFFFFFFFFFFFFFFFFFFFFF AND SWAP1 DUP2 ISZERO PUSH2 0x1D8E JUMPI PUSH1 0x20 SWAP4 POP CALLER PUSH0 MSTORE PUSH1 0x1 DUP5 MSTORE DUP3 PUSH0 KECCAK256 DUP3 PUSH0 MSTORE DUP5 MSTORE DUP1 DUP4 PUSH0 KECCAK256 SSTORE DUP3 MLOAD SWAP1 DUP2 MSTORE PUSH32 0x8C5BE1E5EBEC7D5BD14F71427D1E84F3DD0314C0F7B2291E5B200AC8C7C3B925 DUP5 CALLER SWAP3 LOG3 MLOAD PUSH1 0x1 DUP2 MSTORE RETURN JUMPDEST PUSH1 0x24 DUP5 PUSH0 DUP6 MLOAD SWAP2 PUSH32 0x94280D6200000000000000000000000000000000000000000000000000000000 DUP4 MSTORE DUP3 ADD MSTORE REVERT JUMPDEST PUSH1 0x24 DUP5 PUSH0 DUP6 MLOAD SWAP2 PUSH32 0xE602DF0500000000000000000000000000000000000000000000000000000000 DUP4 MSTORE DUP3 ADD MSTORE REVERT JUMPDEST DUP3 CALLVALUE PUSH2 0x4F1 JUMPI PUSH0 PUSH32 0xFFFFFFFFFFFFFFFFFFFFFFFFFFFFFFFFFFFFFFFFFFFFFFFFFFFFFFFFFFFFFFFC CALLDATASIZE ADD SLT PUSH2 0x4F1 JUMPI PUSH2 0xBBD SWAP1 PUSH2 0x1E27 PUSH2 0x268E JUMP JUMPDEST SWAP1 MLOAD SWAP2 DUP3 SWAP2 PUSH1 0x20 DUP4 MSTORE PUSH1 0x20 DUP4 ADD SWAP1 PUSH2 0x233A JUMP JUMPDEST POP CALLVALUE PUSH2 0x4F1 JUMPI PUSH1 0x20 SWAP2 DUP3 PUSH32 0xFFFFFFFFFFFFFFFFFFFFFFFFFFFFFFFFFFFFFFFFFFFFFFFFFFFFFFFFFFFFFFFC CALLDATASIZE ADD SLT PUSH2 0x4F1 JUMPI PUSH2 0x1E74 PUSH2 0x22F4 JUMP JUMPDEST SWAP2 PUSH20 0xFFFFFFFFFFFFFFFFFFFFFFFFFFFFFFFFFFFFFFFF SWAP4 PUSH2 0x1E9A DUP6 PUSH1 0x9 SLOAD AND CALLER EQ PUSH2 0x2561 JUMP JUMPDEST PUSH2 0x1EA5 PUSH2 0x203 PUSH2 0x2A1D JUMP JUMPDEST PUSH2 0x1EAD PUSH2 0x2AAB JUMP JUMPDEST PUSH1 0x6 SLOAD SWAP5 SWAP2 PUSH2 0x1EBB DUP7 PUSH2 0x262B JUMP JUMPDEST SWAP2 PUSH0 JUMPDEST DUP8 DUP2 LT PUSH2 0x20BF JUMPI POP POP POP PUSH0 SWAP5 PUSH0 JUMPDEST DUP2 DUP2 LT PUSH2 0x20A0 JUMPI POP PUSH2 0x1EDD SWAP1 PUSH2 0x262B JUMP JUMPDEST SWAP5 PUSH0 JUMPDEST DUP3 MLOAD DUP2 LT ISZERO PUSH2 0x2048 JUMPI PUSH2 0x1EF3 DUP2 DUP5 PUSH2 0x267A JUMP JUMPDEST MLOAD PUSH2 0x1F01 JUMPI JUMPDEST PUSH1 0x1 ADD PUSH2 0x1EE0 JUMP JUMPDEST PUSH2 0x1F0B DUP2 DUP5 PUSH2 0x267A JUMP JUMPDEST MLOAD DUP6 DUP11 PUSH2 0x1F17 DUP5 PUSH2 0x24FC JUMP JUMPDEST POP SLOAD AND DUP12 PUSH1 0xC SLOAD AND DUP13 PUSH1 0xB SLOAD AND DUP11 PUSH2 0x1F86 DUP11 MLOAD SWAP7 DUP8 SWAP6 DUP7 SWAP5 DUP6 SWAP5 PUSH32 0x248391FF00000000000000000000000000000000000000000000000000000000 DUP7 MSTORE DUP6 ADD PUSH1 0x40 SWAP2 SWAP5 SWAP4 SWAP3 SWAP5 PUSH1 0x60 DUP3 ADD SWAP6 PUSH20 0xFFFFFFFFFFFFFFFFFFFFFFFFFFFFFFFFFFFFFFFF DUP1 SWAP3 AND DUP4 MSTORE AND PUSH1 0x20 DUP3 ADD MSTORE ADD MSTORE JUMP JUMPDEST SUB SWAP2 GAS STATICCALL SWAP1 DUP2 ISZERO PUSH2 0x203E JUMPI PUSH0 SWAP2 PUSH2 0x2011 JUMPI JUMPDEST POP DUP1 ISZERO PUSH2 0x1FB5 JUMPI SWAP1 PUSH1 0x1 SWAP2 PUSH2 0x1FAD DUP3 DUP11 PUSH2 0x267A JUMP JUMPDEST MSTORE SWAP1 POP PUSH2 0x1EF9 JUMP JUMPDEST PUSH1 0x64 DUP8 DUP8 DUP8 MLOAD SWAP2 PUSH32 0x8C379A000000000000000000000000000000000000000000000000000000000 DUP4 MSTORE DUP3 ADD MSTORE PUSH1 0x1B PUSH1 0x24 DUP3 ADD MSTORE PUSH32 0x496E76616C696420746F6B656E20616D6F756E7420746F206164640000000000 PUSH1 0x44 DUP3 ADD MSTORE REVERT JUMPDEST SWAP1 POP DUP6 DUP2 DUP2 RETURNDATASIZE DUP4 GT PUSH2 0x2037 JUMPI JUMPDEST PUSH2 0x2028 DUP2 DUP4 PUSH2 0x23CD JUMP JUMPDEST DUP2 ADD SUB SLT PUSH2 0x4F1 JUMPI MLOAD DUP11 PUSH2 0x1F98 JUMP JUMPDEST POP RETURNDATASIZE PUSH2 0x201E JUMP JUMPDEST DUP6 MLOAD RETURNDATASIZE PUSH0 DUP3 RETURNDATACOPY RETURNDATASIZE SWAP1 REVERT JUMPDEST POP PUSH2 0xBBD SWAP4 SWAP5 POP PUSH2 0x2059 SWAP1 DUP8 PUSH2 0x2B58 JUMP JUMPDEST PUSH32 0xA95AD530009C6F929555E70A66AADBEAE7231E45756C5B028CA77FBAA376E73E DUP3 MLOAD DUP6 DUP2 MSTORE DUP1 PUSH2 0x208E CALLER SWAP5 DUP9 DUP4 ADD SWAP1 PUSH2 0x233A JUMP JUMPDEST SUB SWAP1 LOG2 MLOAD SWAP3 DUP3 DUP5 SWAP4 DUP5 MSTORE DUP4 ADD SWAP1 PUSH2 0x233A JUMP JUMPDEST SWAP6 PUSH2 0x20B8 PUSH1 0x1 SWAP2 PUSH2 0x20B1 DUP10 DUP7 PUSH2 0x267A JUMP JUMPDEST MLOAD SWAP1 PUSH2 0x2A73 JUMP JUMPDEST SWAP7 ADD PUSH2 0x1ECC JUMP JUMPDEST DUP1 PUSH2 0x2710 PUSH2 0x20DB PUSH1 0x1 PUSH2 0x20D2 DUP2 SWAP6 PUSH2 0x24FC JUMP JUMPDEST POP ADD SLOAD DUP7 PUSH2 0x282F JUMP JUMPDEST DIV DUP1 PUSH2 0x20E7 DUP4 DUP7 PUSH2 0x267A JUMP JUMPDEST MLOAD LT PUSH2 0x20F5 JUMPI JUMPDEST POP ADD PUSH2 0x1EBE JUMP JUMPDEST PUSH2 0x2103 SWAP1 PUSH2 0x48C DUP4 DUP7 PUSH2 0x267A JUMP JUMPDEST PUSH2 0x210D DUP3 DUP8 PUSH2 0x267A JUMP JUMPDEST MSTORE DUP12 PUSH2 0x20EE JUMP JUMPDEST POP SWAP1 CALLVALUE PUSH2 0x4F1 JUMPI PUSH0 PUSH32 0xFFFFFFFFFFFFFFFFFFFFFFFFFFFFFFFFFFFFFFFFFFFFFFFFFFFFFFFFFFFFFFFC CALLDATASIZE ADD SLT PUSH2 0x4F1 JUMPI DUP1 MLOAD SWAP1 PUSH0 SWAP3 PUSH1 0x3 SLOAD PUSH1 0x1 DUP2 PUSH1 0x1 SHR SWAP2 PUSH1 0x1 DUP2 AND DUP1 ISZERO PUSH2 0x2254 JUMPI JUMPDEST PUSH1 0x20 SWAP5 DUP6 DUP6 LT DUP3 EQ PUSH2 0x2228 JUMPI POP DUP4 DUP8 MSTORE SWAP1 DUP2 ISZERO PUSH2 0x21EA JUMPI POP PUSH1 0x1 EQ PUSH2 0x2190 JUMPI JUMPDEST POP POP POP PUSH2 0xE23 DUP3 PUSH2 0xBBD SWAP5 SUB DUP4 PUSH2 0x23CD JUMP JUMPDEST PUSH1 0x3 PUSH0 SWAP1 DUP2 MSTORE SWAP3 SWAP6 POP PUSH32 0xC2575A0E9E593C00F959F8C92F12DB2869C3395A3B0502D05E2516446F71F85B JUMPDEST DUP3 DUP5 LT PUSH2 0x21D7 JUMPI POP POP POP DUP3 PUSH2 0xBBD SWAP5 PUSH2 0xE23 SWAP3 DUP3 ADD ADD SWAP5 PUSH2 0x217E JUMP JUMPDEST DUP1 SLOAD DUP7 DUP6 ADD DUP9 ADD MSTORE SWAP3 DUP7 ADD SWAP3 DUP2 ADD PUSH2 0x21BB JUMP JUMPDEST PUSH32 0xFFFFFFFFFFFFFFFFFFFFFFFFFFFFFFFFFFFFFFFFFFFFFFFFFFFFFFFFFFFFFF00 AND DUP7 DUP6 ADD MSTORE POP POP ISZERO ISZERO PUSH1 0x5 SHL DUP4 ADD ADD SWAP3 POP PUSH2 0xE23 DUP3 PUSH2 0xBBD PUSH2 0x217E JUMP JUMPDEST PUSH1 0x22 SWAP1 PUSH32 0x4E487B7100000000000000000000000000000000000000000000000000000000 PUSH0 MSTORE MSTORE PUSH1 0x24 PUSH0 REVERT JUMPDEST SWAP3 PUSH1 0x7F AND SWAP3 PUSH2 0x215E JUMP JUMPDEST CALLVALUE PUSH2 0x4F1 JUMPI PUSH0 PUSH32 0xFFFFFFFFFFFFFFFFFFFFFFFFFFFFFFFFFFFFFFFFFFFFFFFFFFFFFFFFFFFFFFFC CALLDATASIZE ADD SLT PUSH2 0x4F1 JUMPI PUSH1 0x20 SWAP1 PUSH20 0xFFFFFFFFFFFFFFFFFFFFFFFFFFFFFFFFFFFFFFFF PUSH1 0xC SLOAD AND DUP2 MSTORE RETURN JUMPDEST PUSH32 0xFFFFFFFFFFFFFFFFFFFFFFFFFFFFFFFFFFFFFFFFFFFFFFFFFFFFFFFFFFFFFFE0 PUSH1 0x1F PUSH1 0x20 PUSH1 0x40 SWAP5 DUP2 DUP6 MSTORE DUP1 MLOAD SWAP2 DUP3 SWAP2 DUP3 DUP3 DUP9 ADD MSTORE ADD DUP7 DUP7 ADD MCOPY PUSH0 DUP6 DUP3 DUP7 ADD ADD MSTORE ADD AND ADD ADD SWAP1 JUMP JUMPDEST PUSH1 0x4 CALLDATALOAD SWAP1 PUSH20 0xFFFFFFFFFFFFFFFFFFFFFFFFFFFFFFFFFFFFFFFF DUP3 AND DUP3 SUB PUSH2 0x4F1 JUMPI JUMP JUMPDEST PUSH1 0x24 CALLDATALOAD SWAP1 PUSH20 0xFFFFFFFFFFFFFFFFFFFFFFFFFFFFFFFFFFFFFFFF DUP3 AND DUP3 SUB PUSH2 0x4F1 JUMPI JUMP JUMPDEST SWAP1 DUP2 MLOAD DUP1 DUP3 MSTORE PUSH1 0x20 DUP1 DUP1 SWAP4 ADD SWAP4 ADD SWAP2 PUSH0 JUMPDEST DUP3 DUP2 LT PUSH2 0x2359 JUMPI POP POP POP POP SWAP1 JUMP JUMPDEST DUP4 MLOAD DUP6 MSTORE SWAP4 DUP2 ADD SWAP4 SWAP3 DUP2 ADD SWAP3 PUSH1 0x1 ADD PUSH2 0x234B JUMP JUMPDEST PUSH32 0xFFFFFFFFFFFFFFFFFFFFFFFFFFFFFFFFFFFFFFFFFFFFFFFFFFFFFFFFFFFFFFFC PUSH1 0x60 SWAP2 ADD SLT PUSH2 0x4F1 JUMPI PUSH20 0xFFFFFFFFFFFFFFFFFFFFFFFFFFFFFFFFFFFFFFFF SWAP1 PUSH1 0x4 CALLDATALOAD DUP3 DUP2 AND DUP2 SUB PUSH2 0x4F1 JUMPI SWAP2 PUSH1 0x24 CALLDATALOAD SWAP1 DUP2 AND DUP2 SUB PUSH2 0x4F1 JUMPI SWAP1 PUSH1 0x44 CALLDATALOAD SWAP1 JUMP JUMPDEST SWAP1 PUSH1 0x1F PUSH32 0xFFFFFFFFFFFFFFFFFFFFFFFFFFFFFFFFFFFFFFFFFFFFFFFFFFFFFFFFFFFFFFE0 SWAP2 ADD AND DUP2 ADD SWAP1 DUP2 LT PUSH8 0xFFFFFFFFFFFFFFFF DUP3 GT OR PUSH2 0x240E JUMPI PUSH1 0x40 MSTORE JUMP JUMPDEST PUSH32 0x4E487B7100000000000000000000000000000000000000000000000000000000 PUSH0 MSTORE PUSH1 0x41 PUSH1 0x4 MSTORE PUSH1 0x24 PUSH0 REVERT JUMPDEST PUSH8 0xFFFFFFFFFFFFFFFF DUP2 GT PUSH2 0x240E JUMPI PUSH1 0x5 SHL PUSH1 0x20 ADD SWAP1 JUMP JUMPDEST SWAP1 DUP1 PUSH1 0x1F DUP4 ADD SLT ISZERO PUSH2 0x4F1 JUMPI PUSH1 0x20 SWAP1 DUP3 CALLDATALOAD PUSH2 0x246D DUP2 PUSH2 0x243B JUMP JUMPDEST SWAP4 PUSH2 0x247B PUSH1 0x40 MLOAD SWAP6 DUP7 PUSH2 0x23CD JUMP JUMPDEST DUP2 DUP6 MSTORE PUSH1 0x20 DUP1 DUP7 ADD SWAP3 PUSH1 0x5 SHL DUP3 ADD ADD SWAP3 DUP4 GT PUSH2 0x4F1 JUMPI PUSH1 0x20 ADD SWAP1 JUMPDEST DUP3 DUP3 LT PUSH2 0x24A4 JUMPI POP POP POP POP SWAP1 JUMP JUMPDEST DUP2 CALLDATALOAD DUP2 MSTORE SWAP1 DUP4 ADD SWAP1 DUP4 ADD PUSH2 0x2496 JUMP JUMPDEST SWAP1 DUP2 MLOAD DUP1 DUP3 MSTORE PUSH1 0x20 DUP1 DUP1 SWAP4 ADD SWAP4 ADD SWAP2 PUSH0 JUMPDEST DUP3 DUP2 LT PUSH2 0x24D2 JUMPI POP POP POP POP SWAP1 JUMP JUMPDEST DUP4 MLOAD PUSH20 0xFFFFFFFFFFFFFFFFFFFFFFFFFFFFFFFFFFFFFFFF AND DUP6 MSTORE SWAP4 DUP2 ADD SWAP4 SWAP3 DUP2 ADD SWAP3 PUSH1 0x1 ADD PUSH2 0x24C4 JUMP JUMPDEST PUSH1 0x6 SLOAD DUP2 LT ISZERO PUSH2 0x2534 JUMPI PUSH1 0x6 PUSH0 MSTORE PUSH1 0x1 SHL PUSH32 0xF652222313E28459528D920B65115C16C04F3EFC82AAEDC97BE59F3F377C0D3F ADD SWAP1 PUSH0 SWAP1 JUMP JUMPDEST PUSH32 0x4E487B7100000000000000000000000000000000000000000000000000000000 PUSH0 MSTORE PUSH1 0x32 PUSH1 0x4 MSTORE PUSH1 0x24 PUSH0 REVERT JUMPDEST ISZERO PUSH2 0x2568 JUMPI JUMP JUMPDEST PUSH1 0x64 PUSH1 0x40 MLOAD PUSH32 0x8C379A000000000000000000000000000000000000000000000000000000000 DUP2 MSTORE PUSH1 0x20 PUSH1 0x4 DUP3 ADD MSTORE PUSH1 0xE PUSH1 0x24 DUP3 ADD MSTORE PUSH32 0x4F6E6C7920506572697068657279000000000000000000000000000000000000 PUSH1 0x44 DUP3 ADD MSTORE REVERT JUMPDEST ISZERO PUSH2 0x25CD JUMPI JUMP JUMPDEST PUSH1 0x64 PUSH1 0x40 MLOAD PUSH32 0x8C379A000000000000000000000000000000000000000000000000000000000 DUP2 MSTORE PUSH1 0x20 PUSH1 0x4 DUP3 ADD MSTORE PUSH1 0x14 PUSH1 0x24 DUP3 ADD MSTORE PUSH32 0x526562616C616E6365206E6F74206E6565646564000000000000000000000000 PUSH1 0x44 DUP3 ADD MSTORE REVERT JUMPDEST SWAP1 PUSH2 0x2635 DUP3 PUSH2 0x243B JUMP JUMPDEST PUSH2 0x2642 PUSH1 0x40 MLOAD SWAP2 DUP3 PUSH2 0x23CD JUMP JUMPDEST DUP3 DUP2 MSTORE PUSH32 0xFFFFFFFFFFFFFFFFFFFFFFFFFFFFFFFFFFFFFFFFFFFFFFFFFFFFFFFFFFFFFFE0 PUSH2 0x2670 DUP3 SWAP5 PUSH2 0x243B JUMP JUMPDEST ADD SWAP1 PUSH1 0x20 CALLDATASIZE SWAP2 ADD CALLDATACOPY JUMP JUMPDEST DUP1 MLOAD DUP3 LT ISZERO PUSH2 0x2534 JUMPI PUSH1 0x20 SWAP2 PUSH1 0x5 SHL ADD ADD SWAP1 JUMP JUMPDEST PUSH1 0x24 PUSH0 PUSH20 0xFFFFFFFFFFFFFFFFFFFFFFFFFFFFFFFFFFFFFFFF PUSH1 0x9 SLOAD AND PUSH1 0x40 MLOAD SWAP3 DUP4 DUP1 SWAP3 PUSH32 0x3E99C1E400000000000000000000000000000000000000000000000000000000 DUP3 MSTORE ADDRESS PUSH1 0x4 DUP4 ADD MSTORE GAS STATICCALL SWAP1 DUP2 ISZERO PUSH2 0x277B JUMPI PUSH0 SWAP2 PUSH2 0x26ED JUMPI POP SWAP1 JUMP JUMPDEST SWAP1 POP RETURNDATASIZE DUP1 PUSH0 DUP4 RETURNDATACOPY PUSH2 0x26FE DUP2 DUP4 PUSH2 0x23CD JUMP JUMPDEST DUP2 ADD SWAP1 PUSH1 0x20 SWAP1 DUP2 DUP2 DUP5 SUB SLT PUSH2 0x4F1 JUMPI DUP1 MLOAD SWAP1 PUSH8 0xFFFFFFFFFFFFFFFF DUP3 GT PUSH2 0x4F1 JUMPI ADD SWAP2 DUP1 PUSH1 0x1F DUP5 ADD SLT ISZERO PUSH2 0x4F1 JUMPI DUP3 MLOAD PUSH2 0x2737 DUP2 PUSH2 0x243B JUMP JUMPDEST SWAP4 PUSH2 0x2745 PUSH1 0x40 MLOAD SWAP6 DUP7 PUSH2 0x23CD JUMP JUMPDEST DUP2 DUP6 MSTORE DUP4 DUP1 DUP7 ADD SWAP3 PUSH1 0x5 SHL DUP3 ADD ADD SWAP3 DUP4 GT PUSH2 0x4F1 JUMPI DUP4 ADD SWAP1 JUMPDEST DUP3 DUP3 LT PUSH2 0x276C JUMPI POP POP POP POP SWAP1 JUMP JUMPDEST DUP2 MLOAD DUP2 MSTORE SWAP1 DUP4 ADD SWAP1 DUP4 ADD PUSH2 0x275E JUMP JUMPDEST PUSH1 0x40 MLOAD RETURNDATASIZE PUSH0 DUP3 RETURNDATACOPY RETURNDATASIZE SWAP1 REVERT JUMPDEST PUSH1 0xC SLOAD PUSH1 0x40 MLOAD PUSH32 0x248391FF00000000000000000000000000000000000000000000000000000000 DUP2 MSTORE PUSH20 0xFFFFFFFFFFFFFFFFFFFFFFFFFFFFFFFFFFFFFFFF SWAP3 DUP4 AND PUSH1 0x4 DUP3 ADD MSTORE SWAP3 DUP3 AND PUSH1 0x24 DUP5 ADD MSTORE PUSH1 0x44 DUP4 ADD SWAP4 SWAP1 SWAP4 MSTORE SWAP1 SWAP2 PUSH1 0x20 SWAP2 DUP4 SWAP2 AND DUP2 DUP1 PUSH1 0x64 DUP2 ADD JUMPDEST SUB SWAP2 GAS STATICCALL SWAP1 DUP2 ISZERO PUSH2 0x277B JUMPI PUSH0 SWAP2 PUSH2 0x2800 JUMPI POP SWAP1 JUMP JUMPDEST SWAP1 POP PUSH1 0x20 DUP2 RETURNDATASIZE PUSH1 0x20 GT PUSH2 0x2827 JUMPI JUMPDEST DUP2 PUSH2 0x281B PUSH1 0x20 SWAP4 DUP4 PUSH2 0x23CD JUMP JUMPDEST DUP2 ADD SUB SLT PUSH2 0x4F1 JUMPI MLOAD SWAP1 JUMP JUMPDEST RETURNDATASIZE SWAP2 POP PUSH2 0x280E JUMP JUMPDEST DUP2 DUP2 MUL SWAP3 SWAP2 DUP2 ISZERO SWAP2 DUP5 DIV EQ OR ISZERO PUSH2 0x2842 JUMPI JUMP JUMPDEST PUSH32 0x4E487B7100000000000000000000000000000000000000000000000000000000 PUSH0 MSTORE PUSH1 0x11 PUSH1 0x4 MSTORE PUSH1 0x24 PUSH0 REVERT JUMPDEST DUP2 ISZERO PUSH2 0x2879 JUMPI DIV SWAP1 JUMP JUMPDEST PUSH32 0x4E487B7100000000000000000000000000000000000000000000000000000000 PUSH0 MSTORE PUSH1 0x12 PUSH1 0x4 MSTORE PUSH1 0x24 PUSH0 REVERT JUMPDEST SWAP2 SWAP1 DUP3 SUB SWAP2 DUP3 GT PUSH2 0x2842 JUMPI JUMP JUMPDEST PUSH2 0x28BB PUSH2 0x2AAB JUMP JUMPDEST SWAP2 SWAP1 PUSH1 0x6 SLOAD SWAP1 PUSH2 0x28CA DUP3 PUSH2 0x243B JUMP JUMPDEST SWAP2 PUSH2 0x28D8 PUSH1 0x40 MLOAD SWAP4 DUP5 PUSH2 0x23CD JUMP JUMPDEST DUP1 DUP4 MSTORE PUSH32 0xFFFFFFFFFFFFFFFFFFFFFFFFFFFFFFFFFFFFFFFFFFFFFFFFFFFFFFFFFFFFFFE0 PUSH2 0x2905 DUP3 PUSH2 0x243B JUMP JUMPDEST ADD CALLDATASIZE PUSH1 0x20 DUP6 ADD CALLDATACOPY PUSH2 0x2915 DUP2 PUSH2 0x262B JUMP JUMPDEST SWAP5 PUSH0 JUMPDEST DUP3 DUP2 LT PUSH2 0x2927 JUMPI POP POP POP POP SWAP2 SWAP1 JUMP JUMPDEST PUSH2 0x2931 DUP2 DUP4 PUSH2 0x267A JUMP JUMPDEST MLOAD SWAP1 PUSH2 0x2710 SWAP2 DUP3 DUP2 MUL SWAP3 DUP2 DUP5 DIV EQ SWAP1 ISZERO OR ISZERO PUSH2 0x2842 JUMPI PUSH2 0x2953 DUP6 PUSH1 0x1 SWAP4 PUSH2 0x286F JUMP JUMPDEST PUSH2 0x295C DUP3 PUSH2 0x24FC JUMP JUMPDEST POP DUP4 ADD SLOAD DUP4 SWAP2 DUP2 DUP2 GT ISZERO PUSH2 0x2991 JUMPI SWAP1 PUSH2 0x2974 SWAP2 PUSH2 0x28A6 JUMP JUMPDEST PUSH2 0x297E DUP4 DUP12 PUSH2 0x267A JUMP JUMPDEST MSTORE PUSH2 0x2989 DUP3 DUP9 PUSH2 0x267A JUMP JUMPDEST MSTORE JUMPDEST ADD PUSH2 0x2918 JUMP JUMPDEST SWAP1 PUSH2 0x299C SWAP3 POP PUSH2 0x28A6 JUMP JUMPDEST PUSH2 0x29A6 DUP3 DUP11 PUSH2 0x267A JUMP JUMPDEST MSTORE PUSH0 PUSH2 0x29B2 DUP3 DUP9 PUSH2 0x267A JUMP JUMPDEST MSTORE PUSH2 0x298B JUMP JUMPDEST ISZERO PUSH2 0x29BF JUMPI JUMP JUMPDEST PUSH1 0x64 PUSH1 0x40 MLOAD PUSH32 0x8C379A000000000000000000000000000000000000000000000000000000000 DUP2 MSTORE PUSH1 0x20 PUSH1 0x4 DUP3 ADD MSTORE PUSH1 0x16 PUSH1 0x24 DUP3 ADD MSTORE PUSH32 0x496E73756666696369656E74206C697175696469747900000000000000000000 PUSH1 0x44 DUP3 ADD MSTORE REVERT JUMPDEST PUSH2 0x2A25 PUSH2 0x28B3 JUMP JUMPDEST PUSH0 JUMPDEST DUP2 MLOAD DUP2 LT ISZERO PUSH2 0x2A6C JUMPI PUSH2 0x2A3A DUP2 DUP5 PUSH2 0x267A JUMP JUMPDEST MLOAD ISZERO ISZERO DUP1 PUSH2 0x2A57 JUMPI JUMPDEST PUSH2 0x2A4F JUMPI PUSH1 0x1 ADD PUSH2 0x2A27 JUMP JUMPDEST POP POP POP PUSH1 0x1 SWAP1 JUMP JUMPDEST POP PUSH2 0x2A62 DUP2 DUP4 PUSH2 0x267A JUMP JUMPDEST MLOAD PUSH1 0x7 SLOAD LT PUSH2 0x2A43 JUMP JUMPDEST POP POP POP PUSH0 SWAP1 JUMP JUMPDEST SWAP2 SWAP1 DUP3 ADD DUP1 SWAP3 GT PUSH2 0x2842 JUMPI JUMP JUMPDEST PUSH2 0x2A88 PUSH2 0x2AAB JUMP JUMPDEST POP PUSH1 0x2 SLOAD DUP1 ISZERO PUSH2 0x2AA5 JUMPI PUSH2 0x870 PUSH2 0x2AA2 SWAP3 PUSH1 0x8 SLOAD SWAP1 PUSH2 0x282F JUMP JUMPDEST SWAP1 JUMP JUMPDEST POP POP PUSH0 SWAP1 JUMP JUMPDEST PUSH1 0x6 SLOAD SWAP1 PUSH0 PUSH2 0x2AB9 DUP4 PUSH2 0x262B JUMP JUMPDEST SWAP3 PUSH0 SWAP1 PUSH20 0xFFFFFFFFFFFFFFFFFFFFFFFFFFFFFFFFFFFFFFFF DUP1 PUSH1 0xB SLOAD AND SWAP1 JUMPDEST DUP3 DUP5 LT PUSH2 0x2AE7 JUMPI POP POP POP POP SWAP2 SWAP1 JUMP JUMPDEST SWAP1 SWAP2 SWAP3 SWAP4 PUSH2 0x2B27 PUSH1 0x1 SWAP2 DUP4 PUSH2 0x2AFB DUP9 PUSH2 0x24FC JUMP JUMPDEST POP SLOAD AND DUP6 DUP2 SUB PUSH2 0x2B31 JUMPI PUSH0 MSTORE PUSH1 0xD PUSH1 0x20 MSTORE PUSH1 0x40 PUSH0 KECCAK256 SLOAD PUSH2 0x2B1B DUP9 DUP12 PUSH2 0x267A JUMP JUMPDEST MSTORE JUMPDEST PUSH2 0x20B1 DUP8 DUP11 PUSH2 0x267A JUMP JUMPDEST SWAP5 ADD SWAP3 SWAP2 SWAP1 PUSH2 0x2AD8 JUMP JUMPDEST DUP1 PUSH2 0x2B48 SWAP2 PUSH0 MSTORE PUSH1 0xD PUSH1 0x20 MSTORE PUSH1 0x40 PUSH0 KECCAK256 SLOAD SWAP1 PUSH2 0x2CFF JUMP JUMPDEST PUSH2 0x2B52 DUP9 DUP12 PUSH2 0x267A JUMP JUMPDEST MSTORE PUSH2 0x2B1D JUMP JUMPDEST PUSH20 0xFFFFFFFFFFFFFFFFFFFFFFFFFFFFFFFFFFFFFFFF AND SWAP1 DUP2 ISZERO PUSH2 0x2BC2 JUMPI PUSH32 0xDDF252AD1BE2C89B69C2B068FC378DAA952BA7F163C4A11628F55A4DF523B3EF PUSH1 0x20 DUP3 PUSH2 0x2BA6 PUSH0 SWAP5 PUSH1 0x2 SLOAD PUSH2 0x2A73 JUMP JUMPDEST PUSH1 0x2 SSTORE DUP5 DUP5 MSTORE DUP4 DUP3 MSTORE PUSH1 0x40 DUP5 KECCAK256 DUP2 DUP2 SLOAD ADD SWAP1 SSTORE PUSH1 0x40 MLOAD SWAP1 DUP2 MSTORE LOG3 JUMP JUMPDEST PUSH1 0x24 PUSH1 0x40 MLOAD PUSH32 0xEC442F0500000000000000000000000000000000000000000000000000000000 DUP2 MSTORE PUSH0 PUSH1 0x4 DUP3 ADD MSTORE REVERT JUMPDEST SWAP2 PUSH20 0xFFFFFFFFFFFFFFFFFFFFFFFFFFFFFFFFFFFFFFFF DUP1 DUP5 AND SWAP3 DUP4 ISZERO PUSH2 0x2CCF JUMPI AND SWAP3 DUP4 ISZERO PUSH2 0x2BC2 JUMPI DUP3 PUSH0 MSTORE PUSH0 PUSH1 0x20 MSTORE PUSH1 0x40 PUSH0 KECCAK256 SLOAD SWAP1 DUP3 DUP3 LT PUSH2 0x2C77 JUMPI POP DUP2 PUSH32 0xDDF252AD1BE2C89B69C2B068FC378DAA952BA7F163C4A11628F55A4DF523B3EF SWAP3 PUSH1 0x20 SWAP3 DUP6 PUSH0 MSTORE PUSH0 DUP5 MSTORE SUB PUSH1 0x40 PUSH0 KECCAK256 SSTORE DUP5 PUSH0 MSTORE PUSH1 0x40 PUSH0 KECCAK256 DUP2 DUP2 SLOAD ADD SWAP1 SSTORE PUSH1 0x40 MLOAD SWAP1 DUP2 MSTORE LOG3 JUMP JUMPDEST PUSH1 0x40 MLOAD PUSH32 0xE450D38C00000000000000000000000000000000000000000000000000000000 DUP2 MSTORE PUSH20 0xFFFFFFFFFFFFFFFFFFFFFFFFFFFFFFFFFFFFFFFF SWAP2 SWAP1 SWAP2 AND PUSH1 0x4 DUP3 ADD MSTORE PUSH1 0x24 DUP2 ADD SWAP2 SWAP1 SWAP2 MSTORE PUSH1 0x44 DUP2 ADD DUP3 SWAP1 MSTORE PUSH1 0x64 SWAP1 REVERT JUMPDEST PUSH1 0x24 PUSH1 0x40 MLOAD PUSH32 0x96C6FD1E00000000000000000000000000000000000000000000000000000000 DUP2 MSTORE PUSH0 PUSH1 0x4 DUP3 ADD MSTORE REVERT JUMPDEST PUSH1 0xC SLOAD PUSH1 0xB SLOAD PUSH1 0x40 MLOAD PUSH32 0x248391FF00000000000000000000000000000000000000000000000000000000 DUP2 MSTORE PUSH20 0xFFFFFFFFFFFFFFFFFFFFFFFFFFFFFFFFFFFFFFFF SWAP4 DUP5 AND PUSH1 0x4 DUP3 ADD MSTORE SWAP1 DUP4 AND PUSH1 0x24 DUP3 ADD MSTORE PUSH1 0x44 DUP2 ADD SWAP4 SWAP1 SWAP4 MSTORE PUSH1 0x20 SWAP2 DUP4 SWAP2 AND DUP2 DUP1 PUSH1 0x64 DUP2 ADD PUSH2 0x27EB JUMP INVALID LOG2 PUSH5 0x6970667358 0x22 SLT KECCAK256 MUL 0xFB PUSH0 SWAP1 0xBE SUB 0xD6 PUSH25 0x677AC304EC3F491EDA7F0CACCB27A4D0DA4F22DCCE0A35B064 PUSH20 0x6F6C634300081900330000000000000000000000 "},"gasEstimates":{"creation":{"codeDepositCost":"2335800","executionCost":"infinite","totalCost":"infinite"},"external":{"ONE()":"2820","SWAP_FEE_BPS()":"450","allowance(address,address)":"3212","approve(address,uint256)":"24382","assetInfos(uint256)":"9363","assetLiquidity(uint256)":"infinite","balanceOf(address)":"2747","baseAsset()":"2870","burn(address)":"infinite","computeTotalValuation()":"infinite","decimals()":"362","factory()":"2848","getAmountOut(address,address,uint256)":"infinite","getAssetReserve(address)":"2924","getAssets()":"infinite","getDeviation()":"infinite","getReserves()":"infinite","getWeights()":"infinite","isRebalanceNeeded()":"infinite","liquidity()":"infinite","mint(address,uint256[])":"infinite","name()":"infinite","performRebalanceIfNeeded()":"infinite","periphery()":"2650","rebalanceWeights(address)":"infinite","rebalancer()":"2262","reserves(address)":"3056","swap(address,address,uint256,address)":"infinite","symbol()":"infinite","totalSupply()":"2380","transfer(address,uint256)":"51238","transferFrom(address,address,uint256)":"75567","trigger()":"2666","unitPrice()":"infinite","updateReserves(uint256[],bool)":"infinite"},"internal":{"_calculateAmountsToAdd(uint256,uint256[] memory)":"infinite","_calculateLiquidity(uint256,uint256)":"infinite","_calculateTotalAddedLiquidity(uint256[] memory)":"infinite","_computeTotalValuation()":"infinite","_convertBaseToToken(address,uint256)":"infinite","_convertTokenToBase(address,uint256)":"infinite","_performRebalanceIfNeeded()":"infinite","_updateReserves(uint256[] memory,bool)":"infinite","initializeAssets(address[] memory,uint256[] memory)":"infinite","max(uint8,uint8)":"infinite","min(uint8,uint8)":"infinite"}},"methodIdentifiers":{"ONE()":"c2ee3a08","SWAP_FEE_BPS()":"67a6c440","allowance(address,address)":"dd62ed3e","approve(address,uint256)":"095ea7b3","assetInfos(uint256)":"d14ef46d","assetLiquidity(uint256)":"cf8fa764","balanceOf(address)":"70a08231","baseAsset()":"cdf456e1","burn(address)":"89afcb44","computeTotalValuation()":"36bf6e39","decimals()":"313ce567","factory()":"c45a0155","getAmountOut(address,address,uint256)":"4aa06652","getAssetReserve(address)":"b2b55d70","getAssets()":"67e4ac2c","getDeviation()":"89ab3532","getReserves()":"0902f1ac","getWeights()":"22acb867","isRebalanceNeeded()":"8a77c8dc","liquidity()":"1a686502","mint(address,uint256[])":"de836ebd","name()":"06fdde03","performRebalanceIfNeeded()":"f47b45e8","periphery()":"77aace1a","rebalanceWeights(address)":"0723c999","rebalancer()":"01d22ccd","reserves(address)":"d66bd524","swap(address,address,uint256,address)":"6e81221c","symbol()":"95d89b41","totalSupply()":"18160ddd","transfer(address,uint256)":"a9059cbb","transferFrom(address,address,uint256)":"23b872dd","trigger()":"7fec8d38","unitPrice()":"e73faa2d","updateReserves(uint256[],bool)":"3dff5b7f"}},"storageLayout":{"storage":[{"astId":1159,"contract":"contracts/BaluniV1Pool.sol:BaluniV1Pool","label":"_balances","offset":0,"slot":"0","type":"t_mapping(t_address,t_uint256)"},{"astId":1165,"contract":"contracts/BaluniV1Pool.sol:BaluniV1Pool","label":"_allowances","offset":0,"slot":"1","type":"t_mapping(t_address,t_mapping(t_address,t_uint256))"},{"astId":1167,"contract":"contracts/BaluniV1Pool.sol:BaluniV1Pool","label":"_totalSupply","offset":0,"slot":"2","type":"t_uint256"},{"astId":1169,"contract":"contracts/BaluniV1Pool.sol:BaluniV1Pool","label":"_name","offset":0,"slot":"3","type":"t_string_storage"},{"astId":1171,"contract":"contracts/BaluniV1Pool.sol:BaluniV1Pool","label":"_symbol","offset":0,"slot":"4","type":"t_string_storage"},{"astId":2049,"contract":"contracts/BaluniV1Pool.sol:BaluniV1Pool","label":"_status","offset":0,"slot":"5","type":"t_uint256"},{"astId":2232,"contract":"contracts/BaluniV1Pool.sol:BaluniV1Pool","label":"assetInfos","offset":0,"slot":"6","type":"t_array(t_struct(AssetInfo)2256_storage)dyn_storage"},{"astId":2234,"contract":"contracts/BaluniV1Pool.sol:BaluniV1Pool","label":"trigger","offset":0,"slot":"7","type":"t_uint256"},{"astId":2236,"contract":"contracts/BaluniV1Pool.sol:BaluniV1Pool","label":"ONE","offset":0,"slot":"8","type":"t_uint256"},{"astId":2238,"contract":"contracts/BaluniV1Pool.sol:BaluniV1Pool","label":"periphery","offset":0,"slot":"9","type":"t_address"},{"astId":2240,"contract":"contracts/BaluniV1Pool.sol:BaluniV1Pool","label":"factory","offset":0,"slot":"10","type":"t_address"},{"astId":2245,"contract":"contracts/BaluniV1Pool.sol:BaluniV1Pool","label":"baseAsset","offset":0,"slot":"11","type":"t_address"},{"astId":2247,"contract":"contracts/BaluniV1Pool.sol:BaluniV1Pool","label":"rebalancer","offset":0,"slot":"12","type":"t_address"},{"astId":2251,"contract":"contracts/BaluniV1Pool.sol:BaluniV1Pool","label":"reserves","offset":0,"slot":"13","type":"t_mapping(t_address,t_uint256)"}],"types":{"t_address":{"encoding":"inplace","label":"address","numberOfBytes":"20"},"t_array(t_struct(AssetInfo)2256_storage)dyn_storage":{"base":"t_struct(AssetInfo)2256_storage","encoding":"dynamic_array","label":"struct BaluniV1Pool.AssetInfo[]","numberOfBytes":"32"},"t_mapping(t_address,t_mapping(t_address,t_uint256))":{"encoding":"mapping","key":"t_address","label":"mapping(address => mapping(address => uint256))","numberOfBytes":"32","value":"t_mapping(t_address,t_uint256)"},"t_mapping(t_address,t_uint256)":{"encoding":"mapping","key":"t_address","label":"mapping(address => uint256)","numberOfBytes":"32","value":"t_uint256"},"t_string_storage":{"encoding":"bytes","label":"string","numberOfBytes":"32"},"t_struct(AssetInfo)2256_storage":{"encoding":"inplace","label":"struct BaluniV1Pool.AssetInfo","members":[{"astId":2253,"contract":"contracts/BaluniV1Pool.sol:BaluniV1Pool","label":"asset","offset":0,"slot":"0","type":"t_address"},{"astId":2255,"contract":"contracts/BaluniV1Pool.sol:BaluniV1Pool","label":"weight","offset":0,"slot":"1","type":"t_uint256"}],"numberOfBytes":"64"},"t_uint256":{"encoding":"inplace","label":"uint256","numberOfBytes":"32"}}},"userdoc":{"kind":"user","methods":{"burn(address)":{"notice":"This function can only be called by the periphery contract.The pool tokens must have a balance greater than 0.The total supply of pool tokens must be greater than 0.The function calculates the amounts of each underlying asset to transfer based on the share of pool tokens being burned.A fee is deducted from the share of pool tokens being burned and transferred to the treasury address.The function checks if the pool has sufficient liquidity before performing any transfers.If any transfer fails, the function reverts the entire operation.After the transfers, the function updates the reserves of the pool.Emits a `Burn` event with the address and share of pool tokens burned."},"updateReserves(uint256[],bool)":{"notice":"This function can only be called by the periphery contract."}},"version":1}}}}