{"contracts/balancer/BMath.sol":{"BMath":{"abi":[{"inputs":[],"name":"BONE","outputs":[{"internalType":"uint256","name":"","type":"uint256"}],"stateMutability":"view","type":"function"},{"inputs":[],"name":"BPOW_PRECISION","outputs":[{"internalType":"uint256","name":"","type":"uint256"}],"stateMutability":"view","type":"function"},{"inputs":[],"name":"EXIT_FEE","outputs":[{"internalType":"uint256","name":"","type":"uint256"}],"stateMutability":"view","type":"function"},{"inputs":[],"name":"INIT_POOL_SUPPLY","outputs":[{"internalType":"uint256","name":"","type":"uint256"}],"stateMutability":"view","type":"function"},{"inputs":[],"name":"MAX_BOUND_TOKENS","outputs":[{"internalType":"uint256","name":"","type":"uint256"}],"stateMutability":"view","type":"function"},{"inputs":[],"name":"MAX_BPOW_BASE","outputs":[{"internalType":"uint256","name":"","type":"uint256"}],"stateMutability":"view","type":"function"},{"inputs":[],"name":"MAX_FEE","outputs":[{"internalType":"uint256","name":"","type":"uint256"}],"stateMutability":"view","type":"function"},{"inputs":[],"name":"MAX_IN_RATIO","outputs":[{"internalType":"uint256","name":"","type":"uint256"}],"stateMutability":"view","type":"function"},{"inputs":[],"name":"MAX_OUT_RATIO","outputs":[{"internalType":"uint256","name":"","type":"uint256"}],"stateMutability":"view","type":"function"},{"inputs":[],"name":"MAX_TOTAL_WEIGHT","outputs":[{"internalType":"uint256","name":"","type":"uint256"}],"stateMutability":"view","type":"function"},{"inputs":[],"name":"MAX_WEIGHT","outputs":[{"internalType":"uint256","name":"","type":"uint256"}],"stateMutability":"view","type":"function"},{"inputs":[],"name":"MIN_BALANCE","outputs":[{"internalType":"uint256","name":"","type":"uint256"}],"stateMutability":"view","type":"function"},{"inputs":[],"name":"MIN_BOUND_TOKENS","outputs":[{"internalType":"uint256","name":"","type":"uint256"}],"stateMutability":"view","type":"function"},{"inputs":[],"name":"MIN_BPOW_BASE","outputs":[{"internalType":"uint256","name":"","type":"uint256"}],"stateMutability":"view","type":"function"},{"inputs":[],"name":"MIN_FEE","outputs":[{"internalType":"uint256","name":"","type":"uint256"}],"stateMutability":"view","type":"function"},{"inputs":[],"name":"MIN_WEIGHT","outputs":[{"internalType":"uint256","name":"","type":"uint256"}],"stateMutability":"view","type":"function"},{"inputs":[{"internalType":"uint256","name":"tokenBalanceIn","type":"uint256"},{"internalType":"uint256","name":"tokenWeightIn","type":"uint256"},{"internalType":"uint256","name":"tokenBalanceOut","type":"uint256"},{"internalType":"uint256","name":"tokenWeightOut","type":"uint256"},{"internalType":"uint256","name":"tokenAmountOut","type":"uint256"},{"internalType":"uint256","name":"swapFee","type":"uint256"}],"name":"calcInGivenOut","outputs":[{"internalType":"uint256","name":"tokenAmountIn","type":"uint256"}],"stateMutability":"pure","type":"function"},{"inputs":[{"internalType":"uint256","name":"tokenBalanceIn","type":"uint256"},{"internalType":"uint256","name":"tokenWeightIn","type":"uint256"},{"internalType":"uint256","name":"tokenBalanceOut","type":"uint256"},{"internalType":"uint256","name":"tokenWeightOut","type":"uint256"},{"internalType":"uint256","name":"tokenAmountIn","type":"uint256"},{"internalType":"uint256","name":"swapFee","type":"uint256"}],"name":"calcOutGivenIn","outputs":[{"internalType":"uint256","name":"tokenAmountOut","type":"uint256"}],"stateMutability":"pure","type":"function"},{"inputs":[{"internalType":"uint256","name":"tokenBalanceOut","type":"uint256"},{"internalType":"uint256","name":"tokenWeightOut","type":"uint256"},{"internalType":"uint256","name":"poolSupply","type":"uint256"},{"internalType":"uint256","name":"totalWeight","type":"uint256"},{"internalType":"uint256","name":"tokenAmountOut","type":"uint256"},{"internalType":"uint256","name":"swapFee","type":"uint256"}],"name":"calcPoolInGivenSingleOut","outputs":[{"internalType":"uint256","name":"poolAmountIn","type":"uint256"}],"stateMutability":"pure","type":"function"},{"inputs":[{"internalType":"uint256","name":"tokenBalanceIn","type":"uint256"},{"internalType":"uint256","name":"tokenWeightIn","type":"uint256"},{"internalType":"uint256","name":"poolSupply","type":"uint256"},{"internalType":"uint256","name":"totalWeight","type":"uint256"},{"internalType":"uint256","name":"tokenAmountIn","type":"uint256"},{"internalType":"uint256","name":"swapFee","type":"uint256"}],"name":"calcPoolOutGivenSingleIn","outputs":[{"internalType":"uint256","name":"poolAmountOut","type":"uint256"}],"stateMutability":"pure","type":"function"},{"inputs":[{"internalType":"uint256","name":"tokenBalanceIn","type":"uint256"},{"internalType":"uint256","name":"tokenWeightIn","type":"uint256"},{"internalType":"uint256","name":"poolSupply","type":"uint256"},{"internalType":"uint256","name":"totalWeight","type":"uint256"},{"internalType":"uint256","name":"poolAmountOut","type":"uint256"},{"internalType":"uint256","name":"swapFee","type":"uint256"}],"name":"calcSingleInGivenPoolOut","outputs":[{"internalType":"uint256","name":"tokenAmountIn","type":"uint256"}],"stateMutability":"pure","type":"function"},{"inputs":[{"internalType":"uint256","name":"tokenBalanceOut","type":"uint256"},{"internalType":"uint256","name":"tokenWeightOut","type":"uint256"},{"internalType":"uint256","name":"poolSupply","type":"uint256"},{"internalType":"uint256","name":"totalWeight","type":"uint256"},{"internalType":"uint256","name":"poolAmountIn","type":"uint256"},{"internalType":"uint256","name":"swapFee","type":"uint256"}],"name":"calcSingleOutGivenPoolIn","outputs":[{"internalType":"uint256","name":"tokenAmountOut","type":"uint256"}],"stateMutability":"pure","type":"function"},{"inputs":[{"internalType":"uint256","name":"tokenBalanceIn","type":"uint256"},{"internalType":"uint256","name":"tokenWeightIn","type":"uint256"},{"internalType":"uint256","name":"tokenBalanceOut","type":"uint256"},{"internalType":"uint256","name":"tokenWeightOut","type":"uint256"},{"internalType":"uint256","name":"swapFee","type":"uint256"}],"name":"calcSpotPrice","outputs":[{"internalType":"uint256","name":"spotPrice","type":"uint256"}],"stateMutability":"pure","type":"function"},{"inputs":[],"name":"getColor","outputs":[{"internalType":"bytes32","name":"","type":"bytes32"}],"stateMutability":"view","type":"function"}],"devdoc":{"kind":"dev","methods":{},"version":1},"evm":{"bytecode":{"linkReferences":{},"object":"60808060405234601557610bc9908161001a8239f35b5f80fdfe604060808152600480361015610013575f80fd5b5f3560e01c90816309a3bbe4146105fb578163189d00ca146105dd578163218b5382146101cf5781635c1bbaf71461059657816376c7a3c71461057757816382f652ad146104c45781638656b65314610479578163867378c51461045c57816389298012146103685781639381cd2b14610345578163992e2a92146103235781639a86139b14610300578163a221ee49146102b757508063b0e0d1361461029c578063b7b800a414610281578063ba019dab14610266578063ba9530a614610218578063bc063e1a146101f6578063bc694ea2146101d4578063c36596a6146101cf578063c6580d12146101b5578063e4a28a52146101b0578063ec0930211461018e5763f8d6aed414610125575f80fd5b3461018a5760209061018361016261017e61016861017861017261016d61015b61014e3661065e565b99949b9293909591610760565b9382610af2565b90610760565b610812565b610ae9565b91610aa0565b92610a3d565b610760565b9051908152f35b5f80fd5b503461018a575f36600319011261018a57602090516706f05b59d3b200008152f35b6105fb565b503461018a575f36600319011261018a57602090515f8152f35b61063c565b503461018a575f36600319011261018a5760209051671bc16d674ec7ffff8152f35b503461018a575f36600319011261018a576020905167016345785d8a00008152f35b503461018a5760209061018361024f61025561026161025b6101686102556101626102423661065e565b989496929b919093610760565b96610aa0565b90610a3d565b826107c5565b610aa0565b503461018a575f36600319011261018a576020905160018152f35b503461018a575f36600319011261018a576020905160028152f35b503461018a575f36600319011261018a576020905160088152f35b823461018a5760a036600319011261018a576101836102ed6102df6020946024359035610760565b610162606435604435610760565b6102556102fb608435610aa0565b6106f1565b823461018a575f36600319011261018a57516542524f4e5a4560d01b8152602090f35b823461018a575f36600319011261018a57602090516704a03ce68d2155568152f35b823461018a575f36600319011261018a576020905168056bc75e2d631000008152f35b823461018a5761038461037a3661065e565b9591909293610760565b95670de0b6b3a7640000918281029080159080830485148217156104495790846103b6928215610435575b50506109fe565b6706f05b59d3b20000810191828211610422575061041c8561041660209a976104116104026102559961017e6102619a8a6101839f9b6104119b6103fb9110156109fe565b0482610af2565b61040b8b6106f1565b90610812565b610a3d565b90610af2565b94610aa0565b601190634e487b7160e01b5f525260245ffd5b6104419192508461061e565b14848b6103af565b601184634e487b7160e01b5f525260245ffd5b823461018a575f36600319011261018a5760209051620f42408152f35b823461018a576020906101836102616104bf6104b561041161025b61016861025561017e6104a63661065e565b989496929c918d9b9194610760565b9761041189610aa0565b610af2565b90503461018a576104f56102616104166104b56104116104ef61016861016261017e6104a63661065e565b82610af2565b91670de0b6b3a764000090818402938015908086048414821715610564579083610527928215610550575b50506106b2565b6706f05b59d3b2000084019283851161042257506105496020948410156106b2565b5191048152f35b61055c9192508761061e565b14835f610520565b601185634e487b7160e01b5f525260245ffd5b823461018a575f36600319011261018a576020905164e8d4a510008152f35b823461018a576020906101836105d661016261026161041161041161041c6104026104bf61017e6105c63661065e565b9a949793918896929e919e610760565b9c826107c5565b823461018a575f36600319011261018a57602090516305f5e1008152f35b3461018a575f36600319011261018a5760206040516802b5e3af16b18800008152f35b8115610628570490565b634e487b7160e01b5f52601260045260245ffd5b3461018a575f36600319011261018a576020604051670de0b6b3a76400008152f35b60c090600319011261018a57600435906024359060443590606435906084359060a43590565b9190820180921161069157565b634e487b7160e01b5f52601160045260245ffd5b9190820391821161069157565b156106b957565b60405162461bcd60e51b815260206004820152601060248201526f11549497d1125597d25395115493905360821b6044820152606490fd5b801561072c576ec097ce7bc90715b34b9f1000000000908060011c820180831161069157610724610729938210156106b2565b61061e565b90565b60405162461bcd60e51b815260206004820152600c60248201526b4552525f4449565f5a45524f60a01b6044820152606490fd5b90801561072c57670de0b6b3a764000091828102908015818304851481171561069157610729946107989282156107b15750506106b2565b6107246107a88360011c83610684565b918210156106b2565b6107bd9192508461061e565b145f80610520565b906107d09082610684565b9081106107da5790565b60405162461bcd60e51b815260206004820152601060248201526f4552525f4144445f4f564552464c4f5760801b6044820152606490fd5b91906001928381106109c157671bc16d674ec7ffff811161098357670de0b6b3a764000091828104908382029180830485149015171561069157610857828592610af2565b910491808684161561097d57815b93871c90815b61095057505081156109485761088390939193610afc565b82949183915f9289955b6305f5e1008210156108ac575b50505050505050610729929350610a3d565b909192939495978189029289840483148a151715610691578361017e6108e9926102556108e26108dc8b99610ae9565b8d610b6e565b9890610a3d565b9283156109415784610939575b610931575b8286156109225761090b91610af2565b975b5f198114610691578a0195949392919061088d565b61092b916107c5565b9761090d565b9415946108fb565b9515956108f6565b509761089a565b509093505050565b8061095a91610a3d565b9087811661096c575b871c908161086b565b938161097791610a3d565b93610963565b84610865565b60405162461bcd60e51b815260206004820152601660248201527508aa4a4be84a09eaebe8482a68abea89e9ebe90928e960531b6044820152606490fd5b60405162461bcd60e51b81526020600482015260156024820152744552525f42504f575f424153455f544f4f5f4c4f5760581b6044820152606490fd5b15610a0557565b60405162461bcd60e51b815260206004820152601060248201526f4552525f4d554c5f4f564552464c4f5760801b6044820152606490fd5b81810291811590828404811482171561069157610a61928215610a8c5750506109fe565b6706f05b59d3b20000810180821161069157610a88670de0b6b3a7640000928210156109fe565b0490565b610a989192508461061e565b145f806103af565b610aa990610b35565b610ab05790565b60405162461bcd60e51b81526020600482015260116024820152704552525f5355425f554e444552464c4f5760781b6044820152606490fd5b610aa990610afc565b90610aa991610b6e565b670de0b6b3a7640000808210610b255750670de0b6b3a763ffff19810190811161069157905f90565b9081039081116106915790600190565b670de0b6b3a764000090808210610b5457810390811161069157905f90565b670de0b6b3a763ffff198101915081116106915790600190565b818110610b845790610b7f916106a5565b905f90565b610b8d916106a5565b9060019056fea26469706673582212201bf0c51113e645e3eff4a3d111f52bfea0af04cc6d2b51d668a82644bf68aab764736f6c63430008190033","opcodes":"PUSH1 0x80 DUP1 PUSH1 0x40 MSTORE CALLVALUE PUSH1 0x15 JUMPI PUSH2 0xBC9 SWAP1 DUP2 PUSH2 0x1A DUP3 CODECOPY RETURN JUMPDEST PUSH0 DUP1 REVERT INVALID PUSH1 0x40 PUSH1 0x80 DUP2 MSTORE PUSH1 0x4 DUP1 CALLDATASIZE LT ISZERO PUSH2 0x13 JUMPI PUSH0 DUP1 REVERT JUMPDEST PUSH0 CALLDATALOAD PUSH1 0xE0 SHR SWAP1 DUP2 PUSH4 0x9A3BBE4 EQ PUSH2 0x5FB JUMPI DUP2 PUSH4 0x189D00CA EQ PUSH2 0x5DD JUMPI DUP2 PUSH4 0x218B5382 EQ PUSH2 0x1CF JUMPI DUP2 PUSH4 0x5C1BBAF7 EQ PUSH2 0x596 JUMPI DUP2 PUSH4 0x76C7A3C7 EQ PUSH2 0x577 JUMPI DUP2 PUSH4 0x82F652AD EQ PUSH2 0x4C4 JUMPI DUP2 PUSH4 0x8656B653 EQ PUSH2 0x479 JUMPI DUP2 PUSH4 0x867378C5 EQ PUSH2 0x45C JUMPI DUP2 PUSH4 0x89298012 EQ PUSH2 0x368 JUMPI DUP2 PUSH4 0x9381CD2B EQ PUSH2 0x345 JUMPI DUP2 PUSH4 0x992E2A92 EQ PUSH2 0x323 JUMPI DUP2 PUSH4 0x9A86139B EQ PUSH2 0x300 JUMPI DUP2 PUSH4 0xA221EE49 EQ PUSH2 0x2B7 JUMPI POP DUP1 PUSH4 0xB0E0D136 EQ PUSH2 0x29C JUMPI DUP1 PUSH4 0xB7B800A4 EQ PUSH2 0x281 JUMPI DUP1 PUSH4 0xBA019DAB EQ PUSH2 0x266 JUMPI DUP1 PUSH4 0xBA9530A6 EQ PUSH2 0x218 JUMPI DUP1 PUSH4 0xBC063E1A EQ PUSH2 0x1F6 JUMPI DUP1 PUSH4 0xBC694EA2 EQ PUSH2 0x1D4 JUMPI DUP1 PUSH4 0xC36596A6 EQ PUSH2 0x1CF JUMPI DUP1 PUSH4 0xC6580D12 EQ PUSH2 0x1B5 JUMPI DUP1 PUSH4 0xE4A28A52 EQ PUSH2 0x1B0 JUMPI DUP1 PUSH4 0xEC093021 EQ PUSH2 0x18E JUMPI PUSH4 0xF8D6AED4 EQ PUSH2 0x125 JUMPI PUSH0 DUP1 REVERT JUMPDEST CALLVALUE PUSH2 0x18A JUMPI PUSH1 0x20 SWAP1 PUSH2 0x183 PUSH2 0x162 PUSH2 0x17E PUSH2 0x168 PUSH2 0x178 PUSH2 0x172 PUSH2 0x16D PUSH2 0x15B PUSH2 0x14E CALLDATASIZE PUSH2 0x65E JUMP JUMPDEST SWAP10 SWAP5 SWAP12 SWAP3 SWAP4 SWAP1 SWAP6 SWAP2 PUSH2 0x760 JUMP JUMPDEST SWAP4 DUP3 PUSH2 0xAF2 JUMP JUMPDEST SWAP1 PUSH2 0x760 JUMP JUMPDEST PUSH2 0x812 JUMP JUMPDEST PUSH2 0xAE9 JUMP JUMPDEST SWAP2 PUSH2 0xAA0 JUMP JUMPDEST SWAP3 PUSH2 0xA3D JUMP JUMPDEST PUSH2 0x760 JUMP JUMPDEST SWAP1 MLOAD SWAP1 DUP2 MSTORE RETURN JUMPDEST PUSH0 DUP1 REVERT JUMPDEST POP CALLVALUE PUSH2 0x18A JUMPI PUSH0 CALLDATASIZE PUSH1 0x3 NOT ADD SLT PUSH2 0x18A JUMPI PUSH1 0x20 SWAP1 MLOAD PUSH8 0x6F05B59D3B20000 DUP2 MSTORE RETURN JUMPDEST PUSH2 0x5FB JUMP JUMPDEST POP CALLVALUE PUSH2 0x18A JUMPI PUSH0 CALLDATASIZE PUSH1 0x3 NOT ADD SLT PUSH2 0x18A JUMPI PUSH1 0x20 SWAP1 MLOAD PUSH0 DUP2 MSTORE RETURN JUMPDEST PUSH2 0x63C JUMP JUMPDEST POP CALLVALUE PUSH2 0x18A JUMPI PUSH0 CALLDATASIZE PUSH1 0x3 NOT ADD SLT PUSH2 0x18A JUMPI PUSH1 0x20 SWAP1 MLOAD PUSH8 0x1BC16D674EC7FFFF DUP2 MSTORE RETURN JUMPDEST POP CALLVALUE PUSH2 0x18A JUMPI PUSH0 CALLDATASIZE PUSH1 0x3 NOT ADD SLT PUSH2 0x18A JUMPI PUSH1 0x20 SWAP1 MLOAD PUSH8 0x16345785D8A0000 DUP2 MSTORE RETURN JUMPDEST POP CALLVALUE PUSH2 0x18A JUMPI PUSH1 0x20 SWAP1 PUSH2 0x183 PUSH2 0x24F PUSH2 0x255 PUSH2 0x261 PUSH2 0x25B PUSH2 0x168 PUSH2 0x255 PUSH2 0x162 PUSH2 0x242 CALLDATASIZE PUSH2 0x65E JUMP JUMPDEST SWAP9 SWAP5 SWAP7 SWAP3 SWAP12 SWAP2 SWAP1 SWAP4 PUSH2 0x760 JUMP JUMPDEST SWAP7 PUSH2 0xAA0 JUMP JUMPDEST SWAP1 PUSH2 0xA3D JUMP JUMPDEST DUP3 PUSH2 0x7C5 JUMP JUMPDEST PUSH2 0xAA0 JUMP JUMPDEST POP CALLVALUE PUSH2 0x18A JUMPI PUSH0 CALLDATASIZE PUSH1 0x3 NOT ADD SLT PUSH2 0x18A JUMPI PUSH1 0x20 SWAP1 MLOAD PUSH1 0x1 DUP2 MSTORE RETURN JUMPDEST POP CALLVALUE PUSH2 0x18A JUMPI PUSH0 CALLDATASIZE PUSH1 0x3 NOT ADD SLT PUSH2 0x18A JUMPI PUSH1 0x20 SWAP1 MLOAD PUSH1 0x2 DUP2 MSTORE RETURN JUMPDEST POP CALLVALUE PUSH2 0x18A JUMPI PUSH0 CALLDATASIZE PUSH1 0x3 NOT ADD SLT PUSH2 0x18A JUMPI PUSH1 0x20 SWAP1 MLOAD PUSH1 0x8 DUP2 MSTORE RETURN JUMPDEST DUP3 CALLVALUE PUSH2 0x18A JUMPI PUSH1 0xA0 CALLDATASIZE PUSH1 0x3 NOT ADD SLT PUSH2 0x18A JUMPI PUSH2 0x183 PUSH2 0x2ED PUSH2 0x2DF PUSH1 0x20 SWAP5 PUSH1 0x24 CALLDATALOAD SWAP1 CALLDATALOAD PUSH2 0x760 JUMP JUMPDEST PUSH2 0x162 PUSH1 0x64 CALLDATALOAD PUSH1 0x44 CALLDATALOAD PUSH2 0x760 JUMP JUMPDEST PUSH2 0x255 PUSH2 0x2FB PUSH1 0x84 CALLDATALOAD PUSH2 0xAA0 JUMP JUMPDEST PUSH2 0x6F1 JUMP JUMPDEST DUP3 CALLVALUE PUSH2 0x18A JUMPI PUSH0 CALLDATASIZE PUSH1 0x3 NOT ADD SLT PUSH2 0x18A JUMPI MLOAD PUSH6 0x42524F4E5A45 PUSH1 0xD0 SHL DUP2 MSTORE PUSH1 0x20 SWAP1 RETURN JUMPDEST DUP3 CALLVALUE PUSH2 0x18A JUMPI PUSH0 CALLDATASIZE PUSH1 0x3 NOT ADD SLT PUSH2 0x18A JUMPI PUSH1 0x20 SWAP1 MLOAD PUSH8 0x4A03CE68D215556 DUP2 MSTORE RETURN JUMPDEST DUP3 CALLVALUE PUSH2 0x18A JUMPI PUSH0 CALLDATASIZE PUSH1 0x3 NOT ADD SLT PUSH2 0x18A JUMPI PUSH1 0x20 SWAP1 MLOAD PUSH9 0x56BC75E2D63100000 DUP2 MSTORE RETURN JUMPDEST DUP3 CALLVALUE PUSH2 0x18A JUMPI PUSH2 0x384 PUSH2 0x37A CALLDATASIZE PUSH2 0x65E JUMP JUMPDEST SWAP6 SWAP2 SWAP1 SWAP3 SWAP4 PUSH2 0x760 JUMP JUMPDEST SWAP6 PUSH8 0xDE0B6B3A7640000 SWAP2 DUP3 DUP2 MUL SWAP1 DUP1 ISZERO SWAP1 DUP1 DUP4 DIV DUP6 EQ DUP3 OR ISZERO PUSH2 0x449 JUMPI SWAP1 DUP5 PUSH2 0x3B6 SWAP3 DUP3 ISZERO PUSH2 0x435 JUMPI JUMPDEST POP POP PUSH2 0x9FE JUMP JUMPDEST PUSH8 0x6F05B59D3B20000 DUP2 ADD SWAP2 DUP3 DUP3 GT PUSH2 0x422 JUMPI POP PUSH2 0x41C DUP6 PUSH2 0x416 PUSH1 0x20 SWAP11 SWAP8 PUSH2 0x411 PUSH2 0x402 PUSH2 0x255 SWAP10 PUSH2 0x17E PUSH2 0x261 SWAP11 DUP11 PUSH2 0x183 SWAP16 SWAP12 PUSH2 0x411 SWAP12 PUSH2 0x3FB SWAP2 LT ISZERO PUSH2 0x9FE JUMP JUMPDEST DIV DUP3 PUSH2 0xAF2 JUMP JUMPDEST PUSH2 0x40B DUP12 PUSH2 0x6F1 JUMP JUMPDEST SWAP1 PUSH2 0x812 JUMP JUMPDEST PUSH2 0xA3D JUMP JUMPDEST SWAP1 PUSH2 0xAF2 JUMP JUMPDEST SWAP5 PUSH2 0xAA0 JUMP JUMPDEST PUSH1 0x11 SWAP1 PUSH4 0x4E487B71 PUSH1 0xE0 SHL PUSH0 MSTORE MSTORE PUSH1 0x24 PUSH0 REVERT JUMPDEST PUSH2 0x441 SWAP2 SWAP3 POP DUP5 PUSH2 0x61E JUMP JUMPDEST EQ DUP5 DUP12 PUSH2 0x3AF JUMP JUMPDEST PUSH1 0x11 DUP5 PUSH4 0x4E487B71 PUSH1 0xE0 SHL PUSH0 MSTORE MSTORE PUSH1 0x24 PUSH0 REVERT JUMPDEST DUP3 CALLVALUE PUSH2 0x18A JUMPI PUSH0 CALLDATASIZE PUSH1 0x3 NOT ADD SLT PUSH2 0x18A JUMPI PUSH1 0x20 SWAP1 MLOAD PUSH3 0xF4240 DUP2 MSTORE RETURN JUMPDEST DUP3 CALLVALUE PUSH2 0x18A JUMPI PUSH1 0x20 SWAP1 PUSH2 0x183 PUSH2 0x261 PUSH2 0x4BF PUSH2 0x4B5 PUSH2 0x411 PUSH2 0x25B PUSH2 0x168 PUSH2 0x255 PUSH2 0x17E PUSH2 0x4A6 CALLDATASIZE PUSH2 0x65E JUMP JUMPDEST SWAP9 SWAP5 SWAP7 SWAP3 SWAP13 SWAP2 DUP14 SWAP12 SWAP2 SWAP5 PUSH2 0x760 JUMP JUMPDEST SWAP8 PUSH2 0x411 DUP10 PUSH2 0xAA0 JUMP JUMPDEST PUSH2 0xAF2 JUMP JUMPDEST SWAP1 POP CALLVALUE PUSH2 0x18A JUMPI PUSH2 0x4F5 PUSH2 0x261 PUSH2 0x416 PUSH2 0x4B5 PUSH2 0x411 PUSH2 0x4EF PUSH2 0x168 PUSH2 0x162 PUSH2 0x17E PUSH2 0x4A6 CALLDATASIZE PUSH2 0x65E JUMP JUMPDEST DUP3 PUSH2 0xAF2 JUMP JUMPDEST SWAP2 PUSH8 0xDE0B6B3A7640000 SWAP1 DUP2 DUP5 MUL SWAP4 DUP1 ISZERO SWAP1 DUP1 DUP7 DIV DUP5 EQ DUP3 OR ISZERO PUSH2 0x564 JUMPI SWAP1 DUP4 PUSH2 0x527 SWAP3 DUP3 ISZERO PUSH2 0x550 JUMPI JUMPDEST POP POP PUSH2 0x6B2 JUMP JUMPDEST PUSH8 0x6F05B59D3B20000 DUP5 ADD SWAP3 DUP4 DUP6 GT PUSH2 0x422 JUMPI POP PUSH2 0x549 PUSH1 0x20 SWAP5 DUP5 LT ISZERO PUSH2 0x6B2 JUMP JUMPDEST MLOAD SWAP2 DIV DUP2 MSTORE RETURN JUMPDEST PUSH2 0x55C SWAP2 SWAP3 POP DUP8 PUSH2 0x61E JUMP JUMPDEST EQ DUP4 PUSH0 PUSH2 0x520 JUMP JUMPDEST PUSH1 0x11 DUP6 PUSH4 0x4E487B71 PUSH1 0xE0 SHL PUSH0 MSTORE MSTORE PUSH1 0x24 PUSH0 REVERT JUMPDEST DUP3 CALLVALUE PUSH2 0x18A JUMPI PUSH0 CALLDATASIZE PUSH1 0x3 NOT ADD SLT PUSH2 0x18A JUMPI PUSH1 0x20 SWAP1 MLOAD PUSH5 0xE8D4A51000 DUP2 MSTORE RETURN JUMPDEST DUP3 CALLVALUE PUSH2 0x18A JUMPI PUSH1 0x20 SWAP1 PUSH2 0x183 PUSH2 0x5D6 PUSH2 0x162 PUSH2 0x261 PUSH2 0x411 PUSH2 0x411 PUSH2 0x41C PUSH2 0x402 PUSH2 0x4BF PUSH2 0x17E PUSH2 0x5C6 CALLDATASIZE PUSH2 0x65E JUMP JUMPDEST SWAP11 SWAP5 SWAP8 SWAP4 SWAP2 DUP9 SWAP7 SWAP3 SWAP15 SWAP2 SWAP15 PUSH2 0x760 JUMP JUMPDEST SWAP13 DUP3 PUSH2 0x7C5 JUMP JUMPDEST DUP3 CALLVALUE PUSH2 0x18A JUMPI PUSH0 CALLDATASIZE PUSH1 0x3 NOT ADD SLT PUSH2 0x18A JUMPI PUSH1 0x20 SWAP1 MLOAD PUSH4 0x5F5E100 DUP2 MSTORE RETURN JUMPDEST CALLVALUE PUSH2 0x18A JUMPI PUSH0 CALLDATASIZE PUSH1 0x3 NOT ADD SLT PUSH2 0x18A JUMPI PUSH1 0x20 PUSH1 0x40 MLOAD PUSH9 0x2B5E3AF16B1880000 DUP2 MSTORE RETURN JUMPDEST DUP2 ISZERO PUSH2 0x628 JUMPI DIV SWAP1 JUMP JUMPDEST PUSH4 0x4E487B71 PUSH1 0xE0 SHL PUSH0 MSTORE PUSH1 0x12 PUSH1 0x4 MSTORE PUSH1 0x24 PUSH0 REVERT JUMPDEST CALLVALUE PUSH2 0x18A JUMPI PUSH0 CALLDATASIZE PUSH1 0x3 NOT ADD SLT PUSH2 0x18A JUMPI PUSH1 0x20 PUSH1 0x40 MLOAD PUSH8 0xDE0B6B3A7640000 DUP2 MSTORE RETURN JUMPDEST PUSH1 0xC0 SWAP1 PUSH1 0x3 NOT ADD SLT PUSH2 0x18A JUMPI PUSH1 0x4 CALLDATALOAD SWAP1 PUSH1 0x24 CALLDATALOAD SWAP1 PUSH1 0x44 CALLDATALOAD SWAP1 PUSH1 0x64 CALLDATALOAD SWAP1 PUSH1 0x84 CALLDATALOAD SWAP1 PUSH1 0xA4 CALLDATALOAD SWAP1 JUMP JUMPDEST SWAP2 SWAP1 DUP3 ADD DUP1 SWAP3 GT PUSH2 0x691 JUMPI JUMP JUMPDEST PUSH4 0x4E487B71 PUSH1 0xE0 SHL PUSH0 MSTORE PUSH1 0x11 PUSH1 0x4 MSTORE PUSH1 0x24 PUSH0 REVERT JUMPDEST SWAP2 SWAP1 DUP3 SUB SWAP2 DUP3 GT PUSH2 0x691 JUMPI JUMP JUMPDEST ISZERO PUSH2 0x6B9 JUMPI JUMP JUMPDEST PUSH1 0x40 MLOAD PUSH3 0x461BCD PUSH1 0xE5 SHL DUP2 MSTORE PUSH1 0x20 PUSH1 0x4 DUP3 ADD MSTORE PUSH1 0x10 PUSH1 0x24 DUP3 ADD MSTORE PUSH16 0x11549497D1125597D253951154939053 PUSH1 0x82 SHL PUSH1 0x44 DUP3 ADD MSTORE PUSH1 0x64 SWAP1 REVERT JUMPDEST DUP1 ISZERO PUSH2 0x72C JUMPI PUSH15 0xC097CE7BC90715B34B9F1000000000 SWAP1 DUP1 PUSH1 0x1 SHR DUP3 ADD DUP1 DUP4 GT PUSH2 0x691 JUMPI PUSH2 0x724 PUSH2 0x729 SWAP4 DUP3 LT ISZERO PUSH2 0x6B2 JUMP JUMPDEST PUSH2 0x61E JUMP JUMPDEST SWAP1 JUMP JUMPDEST PUSH1 0x40 MLOAD PUSH3 0x461BCD PUSH1 0xE5 SHL DUP2 MSTORE PUSH1 0x20 PUSH1 0x4 DUP3 ADD MSTORE PUSH1 0xC PUSH1 0x24 DUP3 ADD MSTORE PUSH12 0x4552525F4449565F5A45524F PUSH1 0xA0 SHL PUSH1 0x44 DUP3 ADD MSTORE PUSH1 0x64 SWAP1 REVERT JUMPDEST SWAP1 DUP1 ISZERO PUSH2 0x72C JUMPI PUSH8 0xDE0B6B3A7640000 SWAP2 DUP3 DUP2 MUL SWAP1 DUP1 ISZERO DUP2 DUP4 DIV DUP6 EQ DUP2 OR ISZERO PUSH2 0x691 JUMPI PUSH2 0x729 SWAP5 PUSH2 0x798 SWAP3 DUP3 ISZERO PUSH2 0x7B1 JUMPI POP POP PUSH2 0x6B2 JUMP JUMPDEST PUSH2 0x724 PUSH2 0x7A8 DUP4 PUSH1 0x1 SHR DUP4 PUSH2 0x684 JUMP JUMPDEST SWAP2 DUP3 LT ISZERO PUSH2 0x6B2 JUMP JUMPDEST PUSH2 0x7BD SWAP2 SWAP3 POP DUP5 PUSH2 0x61E JUMP JUMPDEST EQ PUSH0 DUP1 PUSH2 0x520 JUMP JUMPDEST SWAP1 PUSH2 0x7D0 SWAP1 DUP3 PUSH2 0x684 JUMP JUMPDEST SWAP1 DUP2 LT PUSH2 0x7DA JUMPI SWAP1 JUMP JUMPDEST PUSH1 0x40 MLOAD PUSH3 0x461BCD PUSH1 0xE5 SHL DUP2 MSTORE PUSH1 0x20 PUSH1 0x4 DUP3 ADD MSTORE PUSH1 0x10 PUSH1 0x24 DUP3 ADD MSTORE PUSH16 0x4552525F4144445F4F564552464C4F57 PUSH1 0x80 SHL PUSH1 0x44 DUP3 ADD MSTORE PUSH1 0x64 SWAP1 REVERT JUMPDEST SWAP2 SWAP1 PUSH1 0x1 SWAP3 DUP4 DUP2 LT PUSH2 0x9C1 JUMPI PUSH8 0x1BC16D674EC7FFFF DUP2 GT PUSH2 0x983 JUMPI PUSH8 0xDE0B6B3A7640000 SWAP2 DUP3 DUP2 DIV SWAP1 DUP4 DUP3 MUL SWAP2 DUP1 DUP4 DIV DUP6 EQ SWAP1 ISZERO OR ISZERO PUSH2 0x691 JUMPI PUSH2 0x857 DUP3 DUP6 SWAP3 PUSH2 0xAF2 JUMP JUMPDEST SWAP2 DIV SWAP2 DUP1 DUP7 DUP5 AND ISZERO PUSH2 0x97D JUMPI DUP2 JUMPDEST SWAP4 DUP8 SHR SWAP1 DUP2 JUMPDEST PUSH2 0x950 JUMPI POP POP DUP2 ISZERO PUSH2 0x948 JUMPI PUSH2 0x883 SWAP1 SWAP4 SWAP2 SWAP4 PUSH2 0xAFC JUMP JUMPDEST DUP3 SWAP5 SWAP2 DUP4 SWAP2 PUSH0 SWAP3 DUP10 SWAP6 JUMPDEST PUSH4 0x5F5E100 DUP3 LT ISZERO PUSH2 0x8AC JUMPI JUMPDEST POP POP POP POP POP POP POP PUSH2 0x729 SWAP3 SWAP4 POP PUSH2 0xA3D JUMP JUMPDEST SWAP1 SWAP2 SWAP3 SWAP4 SWAP5 SWAP6 SWAP8 DUP2 DUP10 MUL SWAP3 DUP10 DUP5 DIV DUP4 EQ DUP11 ISZERO OR ISZERO PUSH2 0x691 JUMPI DUP4 PUSH2 0x17E PUSH2 0x8E9 SWAP3 PUSH2 0x255 PUSH2 0x8E2 PUSH2 0x8DC DUP12 SWAP10 PUSH2 0xAE9 JUMP JUMPDEST DUP14 PUSH2 0xB6E JUMP JUMPDEST SWAP9 SWAP1 PUSH2 0xA3D JUMP JUMPDEST SWAP3 DUP4 ISZERO PUSH2 0x941 JUMPI DUP5 PUSH2 0x939 JUMPI JUMPDEST PUSH2 0x931 JUMPI JUMPDEST DUP3 DUP7 ISZERO PUSH2 0x922 JUMPI PUSH2 0x90B SWAP2 PUSH2 0xAF2 JUMP JUMPDEST SWAP8 JUMPDEST PUSH0 NOT DUP2 EQ PUSH2 0x691 JUMPI DUP11 ADD SWAP6 SWAP5 SWAP4 SWAP3 SWAP2 SWAP1 PUSH2 0x88D JUMP JUMPDEST PUSH2 0x92B SWAP2 PUSH2 0x7C5 JUMP JUMPDEST SWAP8 PUSH2 0x90D JUMP JUMPDEST SWAP5 ISZERO SWAP5 PUSH2 0x8FB JUMP JUMPDEST SWAP6 ISZERO SWAP6 PUSH2 0x8F6 JUMP JUMPDEST POP SWAP8 PUSH2 0x89A JUMP JUMPDEST POP SWAP1 SWAP4 POP POP POP JUMP JUMPDEST DUP1 PUSH2 0x95A SWAP2 PUSH2 0xA3D JUMP JUMPDEST SWAP1 DUP8 DUP2 AND PUSH2 0x96C JUMPI JUMPDEST DUP8 SHR SWAP1 DUP2 PUSH2 0x86B JUMP JUMPDEST SWAP4 DUP2 PUSH2 0x977 SWAP2 PUSH2 0xA3D JUMP JUMPDEST SWAP4 PUSH2 0x963 JUMP JUMPDEST DUP5 PUSH2 0x865 JUMP JUMPDEST PUSH1 0x40 MLOAD PUSH3 0x461BCD PUSH1 0xE5 SHL DUP2 MSTORE PUSH1 0x20 PUSH1 0x4 DUP3 ADD MSTORE PUSH1 0x16 PUSH1 0x24 DUP3 ADD MSTORE PUSH22 0x8AA4A4BE84A09EAEBE8482A68ABEA89E9EBE90928E9 PUSH1 0x53 SHL PUSH1 0x44 DUP3 ADD MSTORE PUSH1 0x64 SWAP1 REVERT JUMPDEST PUSH1 0x40 MLOAD PUSH3 0x461BCD PUSH1 0xE5 SHL DUP2 MSTORE PUSH1 0x20 PUSH1 0x4 DUP3 ADD MSTORE PUSH1 0x15 PUSH1 0x24 DUP3 ADD MSTORE PUSH21 0x4552525F42504F575F424153455F544F4F5F4C4F57 PUSH1 0x58 SHL PUSH1 0x44 DUP3 ADD MSTORE PUSH1 0x64 SWAP1 REVERT JUMPDEST ISZERO PUSH2 0xA05 JUMPI JUMP JUMPDEST PUSH1 0x40 MLOAD PUSH3 0x461BCD PUSH1 0xE5 SHL DUP2 MSTORE PUSH1 0x20 PUSH1 0x4 DUP3 ADD MSTORE PUSH1 0x10 PUSH1 0x24 DUP3 ADD MSTORE PUSH16 0x4552525F4D554C5F4F564552464C4F57 PUSH1 0x80 SHL PUSH1 0x44 DUP3 ADD MSTORE PUSH1 0x64 SWAP1 REVERT JUMPDEST DUP2 DUP2 MUL SWAP2 DUP2 ISZERO SWAP1 DUP3 DUP5 DIV DUP2 EQ DUP3 OR ISZERO PUSH2 0x691 JUMPI PUSH2 0xA61 SWAP3 DUP3 ISZERO PUSH2 0xA8C JUMPI POP POP PUSH2 0x9FE JUMP JUMPDEST PUSH8 0x6F05B59D3B20000 DUP2 ADD DUP1 DUP3 GT PUSH2 0x691 JUMPI PUSH2 0xA88 PUSH8 0xDE0B6B3A7640000 SWAP3 DUP3 LT ISZERO PUSH2 0x9FE JUMP JUMPDEST DIV SWAP1 JUMP JUMPDEST PUSH2 0xA98 SWAP2 SWAP3 POP DUP5 PUSH2 0x61E JUMP JUMPDEST EQ PUSH0 DUP1 PUSH2 0x3AF JUMP JUMPDEST PUSH2 0xAA9 SWAP1 PUSH2 0xB35 JUMP JUMPDEST PUSH2 0xAB0 JUMPI SWAP1 JUMP JUMPDEST PUSH1 0x40 MLOAD PUSH3 0x461BCD PUSH1 0xE5 SHL DUP2 MSTORE PUSH1 0x20 PUSH1 0x4 DUP3 ADD MSTORE PUSH1 0x11 PUSH1 0x24 DUP3 ADD MSTORE PUSH17 0x4552525F5355425F554E444552464C4F57 PUSH1 0x78 SHL PUSH1 0x44 DUP3 ADD MSTORE PUSH1 0x64 SWAP1 REVERT JUMPDEST PUSH2 0xAA9 SWAP1 PUSH2 0xAFC JUMP JUMPDEST SWAP1 PUSH2 0xAA9 SWAP2 PUSH2 0xB6E JUMP JUMPDEST PUSH8 0xDE0B6B3A7640000 DUP1 DUP3 LT PUSH2 0xB25 JUMPI POP PUSH8 0xDE0B6B3A763FFFF NOT DUP2 ADD SWAP1 DUP2 GT PUSH2 0x691 JUMPI SWAP1 PUSH0 SWAP1 JUMP JUMPDEST SWAP1 DUP2 SUB SWAP1 DUP2 GT PUSH2 0x691 JUMPI SWAP1 PUSH1 0x1 SWAP1 JUMP JUMPDEST PUSH8 0xDE0B6B3A7640000 SWAP1 DUP1 DUP3 LT PUSH2 0xB54 JUMPI DUP2 SUB SWAP1 DUP2 GT PUSH2 0x691 JUMPI SWAP1 PUSH0 SWAP1 JUMP JUMPDEST PUSH8 0xDE0B6B3A763FFFF NOT DUP2 ADD SWAP2 POP DUP2 GT PUSH2 0x691 JUMPI SWAP1 PUSH1 0x1 SWAP1 JUMP JUMPDEST DUP2 DUP2 LT PUSH2 0xB84 JUMPI SWAP1 PUSH2 0xB7F SWAP2 PUSH2 0x6A5 JUMP JUMPDEST SWAP1 PUSH0 SWAP1 JUMP JUMPDEST PUSH2 0xB8D SWAP2 PUSH2 0x6A5 JUMP JUMPDEST SWAP1 PUSH1 0x1 SWAP1 JUMP INVALID LOG2 PUSH5 0x6970667358 0x22 SLT KECCAK256 SHL CREATE 0xC5 GT SGT 0xE6 GASLIMIT 0xE3 0xEF DELEGATECALL LOG3 0xD1 GT CREATE2 0x2B INVALID LOG0 0xAF DIV 0xCC PUSH14 0x2B51D668A82644BF68AAB764736F PUSH13 0x63430008190033000000000000 "},"gasEstimates":{"creation":{"codeDepositCost":"603400","executionCost":"646","totalCost":"604046"},"external":{"BONE()":"586","BPOW_PRECISION()":"179","EXIT_FEE()":"597","INIT_POOL_SUPPLY()":"355","MAX_BOUND_TOKENS()":"444","MAX_BPOW_BASE()":"554","MAX_FEE()":"532","MAX_IN_RATIO()":"642","MAX_OUT_RATIO()":"377","MAX_TOTAL_WEIGHT()":"154","MAX_WEIGHT()":"630","MIN_BALANCE()":"311","MIN_BOUND_TOKENS()":"466","MIN_BPOW_BASE()":"488","MIN_FEE()":"245","MIN_WEIGHT()":"210","calcInGivenOut(uint256,uint256,uint256,uint256,uint256,uint256)":"infinite","calcOutGivenIn(uint256,uint256,uint256,uint256,uint256,uint256)":"infinite","calcPoolInGivenSingleOut(uint256,uint256,uint256,uint256,uint256,uint256)":"infinite","calcPoolOutGivenSingleIn(uint256,uint256,uint256,uint256,uint256,uint256)":"infinite","calcSingleInGivenPoolOut(uint256,uint256,uint256,uint256,uint256,uint256)":"infinite","calcSingleOutGivenPoolIn(uint256,uint256,uint256,uint256,uint256,uint256)":"infinite","calcSpotPrice(uint256,uint256,uint256,uint256,uint256)":"infinite","getColor()":"405"}},"methodIdentifiers":{"BONE()":"c36596a6","BPOW_PRECISION()":"189d00ca","EXIT_FEE()":"c6580d12","INIT_POOL_SUPPLY()":"9381cd2b","MAX_BOUND_TOKENS()":"b0e0d136","MAX_BPOW_BASE()":"bc694ea2","MAX_FEE()":"bc063e1a","MAX_IN_RATIO()":"ec093021","MAX_OUT_RATIO()":"992e2a92","MAX_TOTAL_WEIGHT()":"09a3bbe4","MAX_WEIGHT()":"e4a28a52","MIN_BALANCE()":"867378c5","MIN_BOUND_TOKENS()":"b7b800a4","MIN_BPOW_BASE()":"ba019dab","MIN_FEE()":"76c7a3c7","MIN_WEIGHT()":"218b5382","calcInGivenOut(uint256,uint256,uint256,uint256,uint256,uint256)":"f8d6aed4","calcOutGivenIn(uint256,uint256,uint256,uint256,uint256,uint256)":"ba9530a6","calcPoolInGivenSingleOut(uint256,uint256,uint256,uint256,uint256,uint256)":"82f652ad","calcPoolOutGivenSingleIn(uint256,uint256,uint256,uint256,uint256,uint256)":"8656b653","calcSingleInGivenPoolOut(uint256,uint256,uint256,uint256,uint256,uint256)":"5c1bbaf7","calcSingleOutGivenPoolIn(uint256,uint256,uint256,uint256,uint256,uint256)":"89298012","calcSpotPrice(uint256,uint256,uint256,uint256,uint256)":"a221ee49","getColor()":"9a86139b"}},"storageLayout":{"storage":[],"types":null},"userdoc":{"kind":"user","methods":{},"version":1}}}}