{"contracts/balancer/BConst.sol":{"BConst":{"abi":[{"inputs":[],"name":"BONE","outputs":[{"internalType":"uint256","name":"","type":"uint256"}],"stateMutability":"view","type":"function"},{"inputs":[],"name":"BPOW_PRECISION","outputs":[{"internalType":"uint256","name":"","type":"uint256"}],"stateMutability":"view","type":"function"},{"inputs":[],"name":"EXIT_FEE","outputs":[{"internalType":"uint256","name":"","type":"uint256"}],"stateMutability":"view","type":"function"},{"inputs":[],"name":"INIT_POOL_SUPPLY","outputs":[{"internalType":"uint256","name":"","type":"uint256"}],"stateMutability":"view","type":"function"},{"inputs":[],"name":"MAX_BOUND_TOKENS","outputs":[{"internalType":"uint256","name":"","type":"uint256"}],"stateMutability":"view","type":"function"},{"inputs":[],"name":"MAX_BPOW_BASE","outputs":[{"internalType":"uint256","name":"","type":"uint256"}],"stateMutability":"view","type":"function"},{"inputs":[],"name":"MAX_FEE","outputs":[{"internalType":"uint256","name":"","type":"uint256"}],"stateMutability":"view","type":"function"},{"inputs":[],"name":"MAX_IN_RATIO","outputs":[{"internalType":"uint256","name":"","type":"uint256"}],"stateMutability":"view","type":"function"},{"inputs":[],"name":"MAX_OUT_RATIO","outputs":[{"internalType":"uint256","name":"","type":"uint256"}],"stateMutability":"view","type":"function"},{"inputs":[],"name":"MAX_TOTAL_WEIGHT","outputs":[{"internalType":"uint256","name":"","type":"uint256"}],"stateMutability":"view","type":"function"},{"inputs":[],"name":"MAX_WEIGHT","outputs":[{"internalType":"uint256","name":"","type":"uint256"}],"stateMutability":"view","type":"function"},{"inputs":[],"name":"MIN_BALANCE","outputs":[{"internalType":"uint256","name":"","type":"uint256"}],"stateMutability":"view","type":"function"},{"inputs":[],"name":"MIN_BOUND_TOKENS","outputs":[{"internalType":"uint256","name":"","type":"uint256"}],"stateMutability":"view","type":"function"},{"inputs":[],"name":"MIN_BPOW_BASE","outputs":[{"internalType":"uint256","name":"","type":"uint256"}],"stateMutability":"view","type":"function"},{"inputs":[],"name":"MIN_FEE","outputs":[{"internalType":"uint256","name":"","type":"uint256"}],"stateMutability":"view","type":"function"},{"inputs":[],"name":"MIN_WEIGHT","outputs":[{"internalType":"uint256","name":"","type":"uint256"}],"stateMutability":"view","type":"function"},{"inputs":[],"name":"getColor","outputs":[{"internalType":"bytes32","name":"","type":"bytes32"}],"stateMutability":"view","type":"function"}],"devdoc":{"kind":"dev","methods":{},"version":1},"evm":{"bytecode":{"linkReferences":{},"object":"608080604052346015576102f0908161001a8239f35b5f80fdfe6040608081526004361015610012575f80fd5b5f3560e01c806309a3bbe414610275578063189d00ca14610257578063218b53821461011957806376c7a3c714610238578063867378c51461021b5780639381cd2b146101f8578063992e2a92146101d65780639a86139b146101b3578063b0e0d13614610198578063b7b800a41461017d578063ba019dab14610162578063bc063e1a14610140578063bc694ea21461011e578063c36596a614610119578063c6580d12146100ff578063e4a28a52146100fa5763ec093021146100d5575f80fd5b346100f6575f3660031901126100f657602090516706f05b59d3b200008152f35b5f80fd5b610275565b50346100f6575f3660031901126100f657602090515f8152f35b610298565b50346100f6575f3660031901126100f65760209051671bc16d674ec7ffff8152f35b50346100f6575f3660031901126100f6576020905167016345785d8a00008152f35b50346100f6575f3660031901126100f6576020905160018152f35b50346100f6575f3660031901126100f6576020905160028152f35b50346100f6575f3660031901126100f6576020905160088152f35b50346100f6575f3660031901126100f657516542524f4e5a4560d01b8152602090f35b50346100f6575f3660031901126100f657602090516704a03ce68d2155568152f35b50346100f6575f3660031901126100f6576020905168056bc75e2d631000008152f35b50346100f6575f3660031901126100f65760209051620f42408152f35b50346100f6575f3660031901126100f6576020905164e8d4a510008152f35b50346100f6575f3660031901126100f657602090516305f5e1008152f35b346100f6575f3660031901126100f65760206040516802b5e3af16b18800008152f35b346100f6575f3660031901126100f6576020604051670de0b6b3a76400008152f3fea2646970667358221220d129abf2d95ac4c8a133863179fe1c4bd5ac7e9331fce3a9e95ac216a67a32c964736f6c63430008190033","opcodes":"PUSH1 0x80 DUP1 PUSH1 0x40 MSTORE CALLVALUE PUSH1 0x15 JUMPI PUSH2 0x2F0 SWAP1 DUP2 PUSH2 0x1A DUP3 CODECOPY RETURN JUMPDEST PUSH0 DUP1 REVERT INVALID PUSH1 0x40 PUSH1 0x80 DUP2 MSTORE PUSH1 0x4 CALLDATASIZE LT ISZERO PUSH2 0x12 JUMPI PUSH0 DUP1 REVERT JUMPDEST PUSH0 CALLDATALOAD PUSH1 0xE0 SHR DUP1 PUSH4 0x9A3BBE4 EQ PUSH2 0x275 JUMPI DUP1 PUSH4 0x189D00CA EQ PUSH2 0x257 JUMPI DUP1 PUSH4 0x218B5382 EQ PUSH2 0x119 JUMPI DUP1 PUSH4 0x76C7A3C7 EQ PUSH2 0x238 JUMPI DUP1 PUSH4 0x867378C5 EQ PUSH2 0x21B JUMPI DUP1 PUSH4 0x9381CD2B EQ PUSH2 0x1F8 JUMPI DUP1 PUSH4 0x992E2A92 EQ PUSH2 0x1D6 JUMPI DUP1 PUSH4 0x9A86139B EQ PUSH2 0x1B3 JUMPI DUP1 PUSH4 0xB0E0D136 EQ PUSH2 0x198 JUMPI DUP1 PUSH4 0xB7B800A4 EQ PUSH2 0x17D JUMPI DUP1 PUSH4 0xBA019DAB EQ PUSH2 0x162 JUMPI DUP1 PUSH4 0xBC063E1A EQ PUSH2 0x140 JUMPI DUP1 PUSH4 0xBC694EA2 EQ PUSH2 0x11E JUMPI DUP1 PUSH4 0xC36596A6 EQ PUSH2 0x119 JUMPI DUP1 PUSH4 0xC6580D12 EQ PUSH2 0xFF JUMPI DUP1 PUSH4 0xE4A28A52 EQ PUSH2 0xFA JUMPI PUSH4 0xEC093021 EQ PUSH2 0xD5 JUMPI PUSH0 DUP1 REVERT JUMPDEST CALLVALUE PUSH2 0xF6 JUMPI PUSH0 CALLDATASIZE PUSH1 0x3 NOT ADD SLT PUSH2 0xF6 JUMPI PUSH1 0x20 SWAP1 MLOAD PUSH8 0x6F05B59D3B20000 DUP2 MSTORE RETURN JUMPDEST PUSH0 DUP1 REVERT JUMPDEST PUSH2 0x275 JUMP JUMPDEST POP CALLVALUE PUSH2 0xF6 JUMPI PUSH0 CALLDATASIZE PUSH1 0x3 NOT ADD SLT PUSH2 0xF6 JUMPI PUSH1 0x20 SWAP1 MLOAD PUSH0 DUP2 MSTORE RETURN JUMPDEST PUSH2 0x298 JUMP JUMPDEST POP CALLVALUE PUSH2 0xF6 JUMPI PUSH0 CALLDATASIZE PUSH1 0x3 NOT ADD SLT PUSH2 0xF6 JUMPI PUSH1 0x20 SWAP1 MLOAD PUSH8 0x1BC16D674EC7FFFF DUP2 MSTORE RETURN JUMPDEST POP CALLVALUE PUSH2 0xF6 JUMPI PUSH0 CALLDATASIZE PUSH1 0x3 NOT ADD SLT PUSH2 0xF6 JUMPI PUSH1 0x20 SWAP1 MLOAD PUSH8 0x16345785D8A0000 DUP2 MSTORE RETURN JUMPDEST POP CALLVALUE PUSH2 0xF6 JUMPI PUSH0 CALLDATASIZE PUSH1 0x3 NOT ADD SLT PUSH2 0xF6 JUMPI PUSH1 0x20 SWAP1 MLOAD PUSH1 0x1 DUP2 MSTORE RETURN JUMPDEST POP CALLVALUE PUSH2 0xF6 JUMPI PUSH0 CALLDATASIZE PUSH1 0x3 NOT ADD SLT PUSH2 0xF6 JUMPI PUSH1 0x20 SWAP1 MLOAD PUSH1 0x2 DUP2 MSTORE RETURN JUMPDEST POP CALLVALUE PUSH2 0xF6 JUMPI PUSH0 CALLDATASIZE PUSH1 0x3 NOT ADD SLT PUSH2 0xF6 JUMPI PUSH1 0x20 SWAP1 MLOAD PUSH1 0x8 DUP2 MSTORE RETURN JUMPDEST POP CALLVALUE PUSH2 0xF6 JUMPI PUSH0 CALLDATASIZE PUSH1 0x3 NOT ADD SLT PUSH2 0xF6 JUMPI MLOAD PUSH6 0x42524F4E5A45 PUSH1 0xD0 SHL DUP2 MSTORE PUSH1 0x20 SWAP1 RETURN JUMPDEST POP CALLVALUE PUSH2 0xF6 JUMPI PUSH0 CALLDATASIZE PUSH1 0x3 NOT ADD SLT PUSH2 0xF6 JUMPI PUSH1 0x20 SWAP1 MLOAD PUSH8 0x4A03CE68D215556 DUP2 MSTORE RETURN JUMPDEST POP CALLVALUE PUSH2 0xF6 JUMPI PUSH0 CALLDATASIZE PUSH1 0x3 NOT ADD SLT PUSH2 0xF6 JUMPI PUSH1 0x20 SWAP1 MLOAD PUSH9 0x56BC75E2D63100000 DUP2 MSTORE RETURN JUMPDEST POP CALLVALUE PUSH2 0xF6 JUMPI PUSH0 CALLDATASIZE PUSH1 0x3 NOT ADD SLT PUSH2 0xF6 JUMPI PUSH1 0x20 SWAP1 MLOAD PUSH3 0xF4240 DUP2 MSTORE RETURN JUMPDEST POP CALLVALUE PUSH2 0xF6 JUMPI PUSH0 CALLDATASIZE PUSH1 0x3 NOT ADD SLT PUSH2 0xF6 JUMPI PUSH1 0x20 SWAP1 MLOAD PUSH5 0xE8D4A51000 DUP2 MSTORE RETURN JUMPDEST POP CALLVALUE PUSH2 0xF6 JUMPI PUSH0 CALLDATASIZE PUSH1 0x3 NOT ADD SLT PUSH2 0xF6 JUMPI PUSH1 0x20 SWAP1 MLOAD PUSH4 0x5F5E100 DUP2 MSTORE RETURN JUMPDEST CALLVALUE PUSH2 0xF6 JUMPI PUSH0 CALLDATASIZE PUSH1 0x3 NOT ADD SLT PUSH2 0xF6 JUMPI PUSH1 0x20 PUSH1 0x40 MLOAD PUSH9 0x2B5E3AF16B1880000 DUP2 MSTORE RETURN JUMPDEST CALLVALUE PUSH2 0xF6 JUMPI PUSH0 CALLDATASIZE PUSH1 0x3 NOT ADD SLT PUSH2 0xF6 JUMPI PUSH1 0x20 PUSH1 0x40 MLOAD PUSH8 0xDE0B6B3A7640000 DUP2 MSTORE RETURN INVALID LOG2 PUSH5 0x6970667358 0x22 SLT KECCAK256 0xD1 0x29 0xAB CALLCODE 0xD9 GAS 0xC4 0xC8 LOG1 CALLER DUP7 BALANCE PUSH26 0xFE1C4BD5AC7E9331FCE3A9E95AC216A67A32C964736F6C634300 ADDMOD NOT STOP CALLER "},"gasEstimates":{"creation":{"codeDepositCost":"150400","executionCost":"202","totalCost":"150602"},"external":{"BONE()":"446","BPOW_PRECISION()":"172","EXIT_FEE()":"457","INIT_POOL_SUPPLY()":"260","MAX_BOUND_TOKENS()":"326","MAX_BPOW_BASE()":"414","MAX_FEE()":"392","MAX_IN_RATIO()":"497","MAX_OUT_RATIO()":"282","MAX_TOTAL_WEIGHT()":"148","MAX_WEIGHT()":"490","MIN_BALANCE()":"238","MIN_BOUND_TOKENS()":"348","MIN_BPOW_BASE()":"370","MIN_FEE()":"216","MIN_WEIGHT()":"204","getColor()":"310"}},"methodIdentifiers":{"BONE()":"c36596a6","BPOW_PRECISION()":"189d00ca","EXIT_FEE()":"c6580d12","INIT_POOL_SUPPLY()":"9381cd2b","MAX_BOUND_TOKENS()":"b0e0d136","MAX_BPOW_BASE()":"bc694ea2","MAX_FEE()":"bc063e1a","MAX_IN_RATIO()":"ec093021","MAX_OUT_RATIO()":"992e2a92","MAX_TOTAL_WEIGHT()":"09a3bbe4","MAX_WEIGHT()":"e4a28a52","MIN_BALANCE()":"867378c5","MIN_BOUND_TOKENS()":"b7b800a4","MIN_BPOW_BASE()":"ba019dab","MIN_FEE()":"76c7a3c7","MIN_WEIGHT()":"218b5382","getColor()":"9a86139b"}},"storageLayout":{"storage":[],"types":null},"userdoc":{"kind":"user","methods":{},"version":1}}}}