{"contracts/BaluniV1Pool.sol":{"BaluniV1Pool":{"abi":[{"inputs":[{"internalType":"address","name":"_rebalancer","type":"address"},{"internalType":"address[]","name":"_assets","type":"address[]"},{"internalType":"uint256[]","name":"_weights","type":"uint256[]"},{"internalType":"uint256","name":"_trigger","type":"uint256"},{"internalType":"address","name":"_periphery","type":"address"}],"stateMutability":"nonpayable","type":"constructor"},{"inputs":[{"internalType":"address","name":"spender","type":"address"},{"internalType":"uint256","name":"allowance","type":"uint256"},{"internalType":"uint256","name":"needed","type":"uint256"}],"name":"ERC20InsufficientAllowance","type":"error"},{"inputs":[{"internalType":"address","name":"sender","type":"address"},{"internalType":"uint256","name":"balance","type":"uint256"},{"internalType":"uint256","name":"needed","type":"uint256"}],"name":"ERC20InsufficientBalance","type":"error"},{"inputs":[{"internalType":"address","name":"approver","type":"address"}],"name":"ERC20InvalidApprover","type":"error"},{"inputs":[{"internalType":"address","name":"receiver","type":"address"}],"name":"ERC20InvalidReceiver","type":"error"},{"inputs":[{"internalType":"address","name":"sender","type":"address"}],"name":"ERC20InvalidSender","type":"error"},{"inputs":[{"internalType":"address","name":"spender","type":"address"}],"name":"ERC20InvalidSpender","type":"error"},{"inputs":[],"name":"ReentrancyGuardReentrantCall","type":"error"},{"anonymous":false,"inputs":[{"indexed":true,"internalType":"address","name":"owner","type":"address"},{"indexed":true,"internalType":"address","name":"spender","type":"address"},{"indexed":false,"internalType":"uint256","name":"value","type":"uint256"}],"name":"Approval","type":"event"},{"anonymous":false,"inputs":[{"indexed":true,"internalType":"address","name":"user","type":"address"},{"indexed":false,"internalType":"uint256","name":"sharesBurned","type":"uint256"}],"name":"Burn","type":"event"},{"anonymous":false,"inputs":[{"indexed":true,"internalType":"address","name":"to","type":"address"},{"indexed":false,"internalType":"uint256","name":"sharesMinted","type":"uint256"}],"name":"Mint","type":"event"},{"anonymous":false,"inputs":[{"indexed":true,"internalType":"address","name":"by","type":"address"},{"indexed":false,"internalType":"address[]","name":"assets","type":"address[]"}],"name":"RebalancePerformed","type":"event"},{"anonymous":false,"inputs":[{"indexed":true,"internalType":"address","name":"user","type":"address"},{"indexed":true,"internalType":"address","name":"fromToken","type":"address"},{"indexed":true,"internalType":"address","name":"toToken","type":"address"},{"indexed":false,"internalType":"uint256","name":"amountIn","type":"uint256"},{"indexed":false,"internalType":"uint256","name":"amountOut","type":"uint256"}],"name":"Swap","type":"event"},{"anonymous":false,"inputs":[{"indexed":true,"internalType":"address","name":"from","type":"address"},{"indexed":true,"internalType":"address","name":"to","type":"address"},{"indexed":false,"internalType":"uint256","name":"value","type":"uint256"}],"name":"Transfer","type":"event"},{"anonymous":false,"inputs":[{"indexed":true,"internalType":"address","name":"user","type":"address"},{"indexed":false,"internalType":"uint256[]","name":"amountsAdded","type":"uint256[]"}],"name":"WeightsRebalanced","type":"event"},{"inputs":[],"name":"BONE","outputs":[{"internalType":"uint256","name":"","type":"uint256"}],"stateMutability":"view","type":"function"},{"inputs":[],"name":"BPOW_PRECISION","outputs":[{"internalType":"uint256","name":"","type":"uint256"}],"stateMutability":"view","type":"function"},{"inputs":[],"name":"EXIT_FEE","outputs":[{"internalType":"uint256","name":"","type":"uint256"}],"stateMutability":"view","type":"function"},{"inputs":[],"name":"INIT_POOL_SUPPLY","outputs":[{"internalType":"uint256","name":"","type":"uint256"}],"stateMutability":"view","type":"function"},{"inputs":[],"name":"MAX_BOUND_TOKENS","outputs":[{"internalType":"uint256","name":"","type":"uint256"}],"stateMutability":"view","type":"function"},{"inputs":[],"name":"MAX_BPOW_BASE","outputs":[{"internalType":"uint256","name":"","type":"uint256"}],"stateMutability":"view","type":"function"},{"inputs":[],"name":"MAX_FEE","outputs":[{"internalType":"uint256","name":"","type":"uint256"}],"stateMutability":"view","type":"function"},{"inputs":[],"name":"MAX_IN_RATIO","outputs":[{"internalType":"uint256","name":"","type":"uint256"}],"stateMutability":"view","type":"function"},{"inputs":[],"name":"MAX_OUT_RATIO","outputs":[{"internalType":"uint256","name":"","type":"uint256"}],"stateMutability":"view","type":"function"},{"inputs":[],"name":"MAX_TOTAL_WEIGHT","outputs":[{"internalType":"uint256","name":"","type":"uint256"}],"stateMutability":"view","type":"function"},{"inputs":[],"name":"MAX_WEIGHT","outputs":[{"internalType":"uint256","name":"","type":"uint256"}],"stateMutability":"view","type":"function"},{"inputs":[],"name":"MIN_BALANCE","outputs":[{"internalType":"uint256","name":"","type":"uint256"}],"stateMutability":"view","type":"function"},{"inputs":[],"name":"MIN_BOUND_TOKENS","outputs":[{"internalType":"uint256","name":"","type":"uint256"}],"stateMutability":"view","type":"function"},{"inputs":[],"name":"MIN_BPOW_BASE","outputs":[{"internalType":"uint256","name":"","type":"uint256"}],"stateMutability":"view","type":"function"},{"inputs":[],"name":"MIN_FEE","outputs":[{"internalType":"uint256","name":"","type":"uint256"}],"stateMutability":"view","type":"function"},{"inputs":[],"name":"MIN_WEIGHT","outputs":[{"internalType":"uint256","name":"","type":"uint256"}],"stateMutability":"view","type":"function"},{"inputs":[],"name":"ONE","outputs":[{"internalType":"uint256","name":"","type":"uint256"}],"stateMutability":"view","type":"function"},{"inputs":[],"name":"SWAP_FEE_BPS","outputs":[{"internalType":"uint256","name":"","type":"uint256"}],"stateMutability":"view","type":"function"},{"inputs":[{"internalType":"address","name":"owner","type":"address"},{"internalType":"address","name":"spender","type":"address"}],"name":"allowance","outputs":[{"internalType":"uint256","name":"","type":"uint256"}],"stateMutability":"view","type":"function"},{"inputs":[{"internalType":"address","name":"spender","type":"address"},{"internalType":"uint256","name":"value","type":"uint256"}],"name":"approve","outputs":[{"internalType":"bool","name":"","type":"bool"}],"stateMutability":"nonpayable","type":"function"},{"inputs":[{"internalType":"uint256","name":"","type":"uint256"}],"name":"assetInfos","outputs":[{"internalType":"address","name":"asset","type":"address"},{"internalType":"uint256","name":"weight","type":"uint256"}],"stateMutability":"view","type":"function"},{"inputs":[{"internalType":"uint256","name":"assetIndex","type":"uint256"}],"name":"assetLiquidity","outputs":[{"internalType":"uint256","name":"","type":"uint256"}],"stateMutability":"view","type":"function"},{"inputs":[{"internalType":"address","name":"account","type":"address"}],"name":"balanceOf","outputs":[{"internalType":"uint256","name":"","type":"uint256"}],"stateMutability":"view","type":"function"},{"inputs":[],"name":"baseAsset","outputs":[{"internalType":"address","name":"","type":"address"}],"stateMutability":"view","type":"function"},{"inputs":[{"internalType":"address","name":"to","type":"address"}],"name":"burn","outputs":[{"internalType":"uint256[]","name":"","type":"uint256[]"}],"stateMutability":"nonpayable","type":"function"},{"inputs":[{"internalType":"uint256","name":"tokenBalanceIn","type":"uint256"},{"internalType":"uint256","name":"tokenWeightIn","type":"uint256"},{"internalType":"uint256","name":"tokenBalanceOut","type":"uint256"},{"internalType":"uint256","name":"tokenWeightOut","type":"uint256"},{"internalType":"uint256","name":"tokenAmountOut","type":"uint256"},{"internalType":"uint256","name":"swapFee","type":"uint256"}],"name":"calcInGivenOut","outputs":[{"internalType":"uint256","name":"tokenAmountIn","type":"uint256"}],"stateMutability":"pure","type":"function"},{"inputs":[{"internalType":"address","name":"fromToken","type":"address"},{"internalType":"address","name":"toToken","type":"address"}],"name":"calcOraclePrice","outputs":[{"internalType":"uint256","name":"","type":"uint256"}],"stateMutability":"view","type":"function"},{"inputs":[{"internalType":"uint256","name":"tokenBalanceIn","type":"uint256"},{"internalType":"uint256","name":"tokenWeightIn","type":"uint256"},{"internalType":"uint256","name":"tokenBalanceOut","type":"uint256"},{"internalType":"uint256","name":"tokenWeightOut","type":"uint256"},{"internalType":"uint256","name":"tokenAmountIn","type":"uint256"},{"internalType":"uint256","name":"swapFee","type":"uint256"}],"name":"calcOutGivenIn","outputs":[{"internalType":"uint256","name":"tokenAmountOut","type":"uint256"}],"stateMutability":"pure","type":"function"},{"inputs":[{"internalType":"uint256","name":"tokenBalanceOut","type":"uint256"},{"internalType":"uint256","name":"tokenWeightOut","type":"uint256"},{"internalType":"uint256","name":"poolSupply","type":"uint256"},{"internalType":"uint256","name":"totalWeight","type":"uint256"},{"internalType":"uint256","name":"tokenAmountOut","type":"uint256"},{"internalType":"uint256","name":"swapFee","type":"uint256"}],"name":"calcPoolInGivenSingleOut","outputs":[{"internalType":"uint256","name":"poolAmountIn","type":"uint256"}],"stateMutability":"pure","type":"function"},{"inputs":[{"internalType":"uint256","name":"tokenBalanceIn","type":"uint256"},{"internalType":"uint256","name":"tokenWeightIn","type":"uint256"},{"internalType":"uint256","name":"poolSupply","type":"uint256"},{"internalType":"uint256","name":"totalWeight","type":"uint256"},{"internalType":"uint256","name":"tokenAmountIn","type":"uint256"},{"internalType":"uint256","name":"swapFee","type":"uint256"}],"name":"calcPoolOutGivenSingleIn","outputs":[{"internalType":"uint256","name":"poolAmountOut","type":"uint256"}],"stateMutability":"pure","type":"function"},{"inputs":[{"internalType":"uint256","name":"tokenBalanceIn","type":"uint256"},{"internalType":"uint256","name":"tokenWeightIn","type":"uint256"},{"internalType":"uint256","name":"poolSupply","type":"uint256"},{"internalType":"uint256","name":"totalWeight","type":"uint256"},{"internalType":"uint256","name":"poolAmountOut","type":"uint256"},{"internalType":"uint256","name":"swapFee","type":"uint256"}],"name":"calcSingleInGivenPoolOut","outputs":[{"internalType":"uint256","name":"tokenAmountIn","type":"uint256"}],"stateMutability":"pure","type":"function"},{"inputs":[{"internalType":"uint256","name":"tokenBalanceOut","type":"uint256"},{"internalType":"uint256","name":"tokenWeightOut","type":"uint256"},{"internalType":"uint256","name":"poolSupply","type":"uint256"},{"internalType":"uint256","name":"totalWeight","type":"uint256"},{"internalType":"uint256","name":"poolAmountIn","type":"uint256"},{"internalType":"uint256","name":"swapFee","type":"uint256"}],"name":"calcSingleOutGivenPoolIn","outputs":[{"internalType":"uint256","name":"tokenAmountOut","type":"uint256"}],"stateMutability":"pure","type":"function"},{"inputs":[{"internalType":"address","name":"fromToken","type":"address"},{"internalType":"address","name":"toToken","type":"address"}],"name":"calcSpotPrice","outputs":[{"internalType":"uint256","name":"","type":"uint256"}],"stateMutability":"view","type":"function"},{"inputs":[{"internalType":"uint256","name":"tokenBalanceIn","type":"uint256"},{"internalType":"uint256","name":"tokenWeightIn","type":"uint256"},{"internalType":"uint256","name":"tokenBalanceOut","type":"uint256"},{"internalType":"uint256","name":"tokenWeightOut","type":"uint256"},{"internalType":"uint256","name":"swapFee","type":"uint256"}],"name":"calcSpotPrice","outputs":[{"internalType":"uint256","name":"spotPrice","type":"uint256"}],"stateMutability":"pure","type":"function"},{"inputs":[],"name":"computeTotalValuation","outputs":[{"internalType":"uint256","name":"totalVal","type":"uint256"},{"internalType":"uint256[]","name":"valuations","type":"uint256[]"}],"stateMutability":"view","type":"function"},{"inputs":[],"name":"decimals","outputs":[{"internalType":"uint8","name":"","type":"uint8"}],"stateMutability":"view","type":"function"},{"inputs":[],"name":"factory","outputs":[{"internalType":"address","name":"","type":"address"}],"stateMutability":"view","type":"function"},{"inputs":[{"internalType":"address","name":"fromToken","type":"address"},{"internalType":"address","name":"toToken","type":"address"},{"internalType":"uint256","name":"amount","type":"uint256"}],"name":"getAmountOut","outputs":[{"internalType":"uint256","name":"","type":"uint256"}],"stateMutability":"view","type":"function"},{"inputs":[{"internalType":"address","name":"asset","type":"address"}],"name":"getAssetReserve","outputs":[{"internalType":"uint256","name":"","type":"uint256"}],"stateMutability":"view","type":"function"},{"inputs":[],"name":"getAssets","outputs":[{"internalType":"address[]","name":"","type":"address[]"}],"stateMutability":"view","type":"function"},{"inputs":[],"name":"getColor","outputs":[{"internalType":"bytes32","name":"","type":"bytes32"}],"stateMutability":"view","type":"function"},{"inputs":[],"name":"getDeviation","outputs":[{"internalType":"bool[]","name":"directions","type":"bool[]"},{"internalType":"uint256[]","name":"deviations","type":"uint256[]"}],"stateMutability":"view","type":"function"},{"inputs":[],"name":"getReserves","outputs":[{"internalType":"uint256[]","name":"","type":"uint256[]"}],"stateMutability":"view","type":"function"},{"inputs":[],"name":"getWeights","outputs":[{"internalType":"uint256[]","name":"","type":"uint256[]"}],"stateMutability":"view","type":"function"},{"inputs":[],"name":"isRebalanceNeeded","outputs":[{"internalType":"bool","name":"","type":"bool"}],"stateMutability":"view","type":"function"},{"inputs":[],"name":"liquidity","outputs":[{"internalType":"uint256","name":"","type":"uint256"}],"stateMutability":"view","type":"function"},{"inputs":[{"internalType":"address","name":"to","type":"address"},{"internalType":"uint256[]","name":"amounts","type":"uint256[]"}],"name":"mint","outputs":[{"internalType":"uint256","name":"","type":"uint256"}],"stateMutability":"nonpayable","type":"function"},{"inputs":[],"name":"name","outputs":[{"internalType":"string","name":"","type":"string"}],"stateMutability":"view","type":"function"},{"inputs":[],"name":"performRebalanceIfNeeded","outputs":[{"internalType":"uint256[]","name":"amountsToAdd","type":"uint256[]"},{"internalType":"uint256[]","name":"amountsToRemove","type":"uint256[]"}],"stateMutability":"nonpayable","type":"function"},{"inputs":[],"name":"periphery","outputs":[{"internalType":"address","name":"","type":"address"}],"stateMutability":"view","type":"function"},{"inputs":[{"internalType":"address","name":"receiver","type":"address"}],"name":"rebalanceWeights","outputs":[{"internalType":"uint256[]","name":"","type":"uint256[]"}],"stateMutability":"nonpayable","type":"function"},{"inputs":[],"name":"rebalancer","outputs":[{"internalType":"address","name":"","type":"address"}],"stateMutability":"view","type":"function"},{"inputs":[{"internalType":"address","name":"fromToken","type":"address"},{"internalType":"address","name":"toToken","type":"address"},{"internalType":"uint256","name":"amount","type":"uint256"},{"internalType":"address","name":"receiver","type":"address"}],"name":"swap","outputs":[{"internalType":"uint256","name":"toSend","type":"uint256"}],"stateMutability":"nonpayable","type":"function"},{"inputs":[],"name":"symbol","outputs":[{"internalType":"string","name":"","type":"string"}],"stateMutability":"view","type":"function"},{"inputs":[],"name":"totalSupply","outputs":[{"internalType":"uint256","name":"","type":"uint256"}],"stateMutability":"view","type":"function"},{"inputs":[{"internalType":"address","name":"to","type":"address"},{"internalType":"uint256","name":"value","type":"uint256"}],"name":"transfer","outputs":[{"internalType":"bool","name":"","type":"bool"}],"stateMutability":"nonpayable","type":"function"},{"inputs":[{"internalType":"address","name":"from","type":"address"},{"internalType":"address","name":"to","type":"address"},{"internalType":"uint256","name":"value","type":"uint256"}],"name":"transferFrom","outputs":[{"internalType":"bool","name":"","type":"bool"}],"stateMutability":"nonpayable","type":"function"},{"inputs":[],"name":"trigger","outputs":[{"internalType":"uint256","name":"","type":"uint256"}],"stateMutability":"view","type":"function"},{"inputs":[],"name":"unitPrice","outputs":[{"internalType":"uint256","name":"","type":"uint256"}],"stateMutability":"view","type":"function"}],"devdoc":{"errors":{"ERC20InsufficientAllowance(address,uint256,uint256)":[{"details":"Indicates a failure with the `spender`’s `allowance`. Used in transfers.","params":{"allowance":"Amount of tokens a `spender` is allowed to operate with.","needed":"Minimum amount required to perform a transfer.","spender":"Address that may be allowed to operate on tokens without being their owner."}}],"ERC20InsufficientBalance(address,uint256,uint256)":[{"details":"Indicates an error related to the current `balance` of a `sender`. Used in transfers.","params":{"balance":"Current balance for the interacting account.","needed":"Minimum amount required to perform a transfer.","sender":"Address whose tokens are being transferred."}}],"ERC20InvalidApprover(address)":[{"details":"Indicates a failure with the `approver` of a token to be approved. Used in approvals.","params":{"approver":"Address initiating an approval operation."}}],"ERC20InvalidReceiver(address)":[{"details":"Indicates a failure with the token `receiver`. Used in transfers.","params":{"receiver":"Address to which tokens are being transferred."}}],"ERC20InvalidSender(address)":[{"details":"Indicates a failure with the token `sender`. Used in transfers.","params":{"sender":"Address whose tokens are being transferred."}}],"ERC20InvalidSpender(address)":[{"details":"Indicates a failure with the `spender` to be approved. Used in approvals.","params":{"spender":"Address that may be allowed to operate on tokens without being their owner."}}],"ReentrancyGuardReentrantCall()":[{"details":"Unauthorized reentrant call."}]},"events":{"Approval(address,address,uint256)":{"details":"Emitted when the allowance of a `spender` for an `owner` is set by a call to {approve}. `value` is the new allowance."},"Transfer(address,address,uint256)":{"details":"Emitted when `value` tokens are moved from one account (`from`) to another (`to`). Note that `value` may be zero."}},"kind":"dev","methods":{"allowance(address,address)":{"details":"See {IERC20-allowance}."},"approve(address,uint256)":{"details":"See {IERC20-approve}. NOTE: If `value` is the maximum `uint256`, the allowance is not updated on `transferFrom`. This is semantically equivalent to an infinite approval. Requirements: - `spender` cannot be the zero address."},"assetLiquidity(uint256)":{"details":"Returns the liquidity of a specific asset in the pool.","params":{"assetIndex":"The index of the asset."},"returns":{"_0":"The liquidity of the asset."}},"balanceOf(address)":{"details":"See {IERC20-balanceOf}."},"burn(address)":{"details":"Burns the pool tokens and transfers the underlying assets to the specified address.","params":{"to":"The address to transfer the underlying assets to."}},"computeTotalValuation()":{"details":"Computes the total valuation of the pool and returns the total valuation and an array of individual valuations.","returns":{"totalVal":"The total valuation of the pool.","valuations":"An array of individual valuations."}},"constructor":{"details":"Initializes a new instance of the BaluniV1Pool contract.","params":{"_assets":"An array of addresses representing the assets in the pool.","_periphery":"The address of the periphery contract.","_rebalancer":"The address of the rebalancer contract.","_trigger":"The trigger value for rebalancing the pool.","_weights":"An array of weights corresponding to the assets in the pool."}},"decimals()":{"details":"Returns the number of decimals used to get its user representation. For example, if `decimals` equals `2`, a balance of `505` tokens should be displayed to a user as `5.05` (`505 / 10 ** 2`). Tokens usually opt for a value of 18, imitating the relationship between Ether and Wei. This is the default value returned by this function, unless it's overridden. NOTE: This information is only used for _display_ purposes: it in no way affects any of the arithmetic of the contract, including {IERC20-balanceOf} and {IERC20-transfer}."},"getAmountOut(address,address,uint256)":{"details":"Calculates the amount of `toToken` that will be received when swapping `fromToken` for `toToken`.","params":{"amount":"The amount of `fromToken` being swapped.","fromToken":"The address of the token being swapped from.","toToken":"The address of the token being swapped to."},"returns":{"_0":"The amount of `toToken` that will be received."}},"getAssetReserve(address)":{"details":"Returns the reserve amount of the specified asset.","params":{"asset":"The address of the asset."},"returns":{"_0":"The reserve amount of the asset."}},"getAssets()":{"details":"Retrieves the list of assets in the pool.","returns":{"_0":"An array of addresses representing the assets."}},"getDeviation()":{"details":"Returns the deviation between the current weights and target weights of the assets in the pool.","returns":{"directions":"An array of boolean values indicating whether the current weight is higher (true) or lower (false) than the target weight."}},"getReserves()":{"details":"Returns an array of reserves for each asset in the pool.","returns":{"_0":"An array of reserves."}},"getWeights()":{"details":"Retrieves the list of weights associated with the assets in the pool.","returns":{"_0":"An array of uint256 values representing the weights."}},"isRebalanceNeeded()":{"details":"Checks if rebalancing is needed for the pool.","returns":{"_0":"A boolean value indicating whether rebalancing is needed or not."}},"liquidity()":{"details":"Returns the total liquidity of the pool.","returns":{"_0":"The total liquidity of the pool."}},"mint(address,uint256[])":{"details":"Mints new tokens and adds them to the specified address.","params":{"to":"The address to which the new tokens will be minted."},"returns":{"_0":"The amount of tokens minted."}},"name()":{"details":"Returns the name of the token."},"performRebalanceIfNeeded()":{"details":"Performs rebalance"},"rebalanceWeights(address)":{"details":"Rebalances the weights of the pool by calculating the amounts to add for each token, transferring the calculated amounts from the user to the pool, minting the total added liquidity, updating the reserves, and emitting an event to indicate the rebalancing of weights.","params":{"receiver":"The address to receive the minted liquidity tokens."}},"swap(address,address,uint256,address)":{"details":"Swaps `amount` of `fromToken` to `toToken` and transfers the received amount to `receiver`. Requirements: - `fromToken` and `toToken` must be different tokens. - `amount` must be greater than zero. - Sufficient liquidity of `toToken` must be available in the contract. Emits a `Swap` event with the details of the swap. Updates the reserves after the swap.","params":{"amount":"The amount of `fromToken` to swap.","fromToken":"The address of the token to swap from.","receiver":"The address to receive the swapped tokens.","toToken":"The address of the token to swap to."},"returns":{"toSend":"The amount of `toToken` received after the swap."}},"symbol()":{"details":"Returns the symbol of the token, usually a shorter version of the name."},"totalSupply()":{"details":"See {IERC20-totalSupply}."},"transfer(address,uint256)":{"details":"See {IERC20-transfer}. Requirements: - `to` cannot be the zero address. - the caller must have a balance of at least `value`."},"transferFrom(address,address,uint256)":{"details":"See {IERC20-transferFrom}. Emits an {Approval} event indicating the updated allowance. This is not required by the EIP. See the note at the beginning of {ERC20}. NOTE: Does not update the allowance if the current allowance is the maximum `uint256`. Requirements: - `from` and `to` cannot be the zero address. - `from` must have a balance of at least `value`. - the caller must have allowance for ``from``'s tokens of at least `value`."},"unitPrice()":{"details":"Returns the unit price of the pool.","returns":{"_0":"The unit price of the pool."}}},"version":1},"evm":{"bytecode":{"linkReferences":{},"object":"6080806040523461043957613cd5803803809161001c82856108fe565b8339810160a0828203126104395761003382610921565b60208301519091906001600160401b0381116104395783019181601f840112156104395782519261006384610935565b9361007160405195866108fe565b80855260208086019160051b8301019184831161043957602001905b8282106108cb5750505060408401516001600160401b0381116104395784019180601f840112156104395782516100c381610935565b936100d160405195866108fe565b81855260208086019260051b82010192831161043957602001905b8282106108bb57505050610107608060608601519501610921565b604051610113816108e3565b6009815268042616c756e69204c560bc1b602082015260405190610136826108e3565b6009825268042414c554e492d4c560bc1b60208301528051906001600160401b0382116104965760035490600182811c921680156108b1575b60208310146107925781601f849311610843575b50602090601f83116001146107bb575f926107b0575b50508160011b915f199060031b1c1916176003555b8051906001600160401b0382116104965760045490600182811c921680156107a6575b60208310146107925781601f849311610724575b50602090601f83116001146106a0575f92610695575b50508160011b915f199060031b1c1916176004555b6001600555600980546001600160a01b03199081166001600160a01b0393841617909155600a8054821633179055600c8054909116918316919091179055670de0b6b3a76400006008558251825103610645575f5b8351811015610525576001600160a01b03610280828661094c565b5116156104e057610291818461094c565b51156104aa576001600160a01b036102a9828661094c565b51166102b5828561094c565b5160408051929083018084116001600160401b0390911117610496576040830160405282526020820152600654680100000000000000008110156104965760018101806006558110156104825760065f5281517ff652222313e28459528d920b65115c16c04f3efc82aaedc97be59f3f377c0d3f60019290921b91820180546001600160a01b039283166001600160a01b03199091161790556020909201517ff652222313e28459528d920b65115c16c04f3efc82aaedc97be59f3f377c0d4090910155610383828661094c565b511660018060a01b03600c5416604051636eb1769f60e11b8152306004820152816024820152602081604481865afa908115610445575f91610450575b50156103d1575b5050600101610265565b5f916044602092604051948593849263095ea7b360e01b84526004840152811960248401525af1801561044557610409575b806103c7565b6020813d60201161043d575b81610422602093836108fe565b81010312610439575180151503610439575f610403565b5f80fd5b3d9150610415565b6040513d5f823e3d90fd5b90506020813d60201161047a575b8161046b602093836108fe565b8101031261043957515f6103c0565b3d915061045e565b634e487b7160e01b5f52603260045260245ffd5b634e487b7160e01b5f52604160045260245ffd5b60405162461bcd60e51b815260206004820152600e60248201526d125b9d985b1a59081dd95a59da1d60921b6044820152606490fd5b60405162461bcd60e51b815260206004820152601560248201527f496e76616c6964206173736574206164647265737300000000000000000000006044820152606490fd5b5060078490556040516389a3027160e01b815290602090829060049082906001600160a01b03165afa908115610445575f9161060b575b50600b80546001600160a01b0319166001600160a01b03929092169190911790555f90815b81518310156105bd57610594838361094c565b5181018091116105a957600190920191610581565b634e487b7160e01b5f52601160045260245ffd5b612710036105d45760405161337490816109618239f35b60405162461bcd60e51b815260206004820152600f60248201526e496e76616c6964207765696768747360881b6044820152606490fd5b90506020813d60201161063d575b81610626602093836108fe565b810103126104395761063790610921565b8261055c565b3d9150610619565b60405162461bcd60e51b815260206004820152602260248201527f41737365747320616e642077656967687473206c656e677468206d69736d61746044820152610c6d60f31b6064820152608490fd5b015190505f806101fb565b60045f9081527f8a35acfbc15ff81a39ae7d344fd709f28e8600b4aa8c65c6b64bfe7fe36bd19b9350601f198516905b81811061070c57509084600195949392106106f4575b505050811b01600455610210565b01515f1960f88460031b161c191690555f80806106e6565b929360206001819287860151815501950193016106d0565b60045f529091507f8a35acfbc15ff81a39ae7d344fd709f28e8600b4aa8c65c6b64bfe7fe36bd19b601f840160051c81019160208510610788575b90601f859493920160051c01905b81811061077a57506101e5565b5f815584935060010161076d565b909150819061075f565b634e487b7160e01b5f52602260045260245ffd5b91607f16916101d1565b015190505f80610199565b60035f90815293507fc2575a0e9e593c00f959f8c92f12db2869c3395a3b0502d05e2516446f71f85b91905b601f1984168510610828576001945083601f19811610610810575b505050811b016003556101ae565b01515f1960f88460031b161c191690555f8080610802565b818101518355602094850194600190930192909101906107e7565b60035f529091507fc2575a0e9e593c00f959f8c92f12db2869c3395a3b0502d05e2516446f71f85b601f840160051c810191602085106108a7575b90601f859493920160051c01905b8181106108995750610183565b5f815584935060010161088c565b909150819061087e565b91607f169161016f565b81518152602091820191016100ec565b602080916108d884610921565b81520191019061008d565b604081019081106001600160401b0382111761049657604052565b601f909101601f19168101906001600160401b0382119082101761049657604052565b51906001600160a01b038216820361043957565b6001600160401b0381116104965760051b60200190565b80518210156104825760209160051b01019056fe6080604081815260049182361015610015575f80fd5b5f925f3560e01c91826301d22ccd1461258d5750816306fdde03146124995781630723c999146121d25781630902f1ac146121a2578163095ea7b3146120fa57816309a3bbe4146106ec5781630d0fa02914611f7957816318160ddd14611f5b578163189d00ca14611f3d5781631a68650214611f19578163218b538214610c3d57816322acb86714611ebc57816323b872dd14611ddb578163313ce56714611dc057816336bf6e3914611d8c5781634aa0665214611ce457816358d1969814611ba35781635c1bbaf714611b5c57816367a6c44014611b4157816367e4ac2c14611ade5781636e81221c1461168c57816370a082311461165657816376c7a3c71461163757816377aace1a1461160f5781637fec8d38146115f157816382f652ad146115515781638656b65314611506578163867378c5146114e957816389298012146113f557816389ab35321461138b57816389afcb4414610f6c5781638a77c8dc14610f475781639381cd2b14610f2457816395d89b4114610e26578163992e2a9214610e045781639a86139b14610de1578163a221ee4914610d98578163a9059cbb14610d68578163b0e0d13614610d4d578163b2b55d7014610d28578163b7b800a414610d0d578163ba019dab14610cf2578163ba9530a614610ca4578163bc063e1a14610c82578163bc694ea214610c60578163c2ee3a0814610c42578163c36596a614610c3d578163c45a015514610c15578163c6580d1214610bfb578163cdf456e114610bd3578163cf8fa76414610b5b578163d14ef46d14610b0f578163dd62ed3e14610ac6578163de836ebd146106f1578163e4a28a52146106ec578163e73faa2d146106d0578163ec093021146106ae578163f47b45e814610314575063f8d6aed4146102ab575f80fd5b34610310576020906103096102e86103046102ee6102fe6102f86102f36102e16102d4366126f8565b99949b9293909591612e60565b938261321b565b90612e60565b612f12565b613212565b916131c9565b926131aa565b612e60565b9051908152f35b5080fd5b8284346105a9576003195f368201126105a9576009546001600160a01b03949085169161034233841461280e565b61035261034d612aa9565b61284b565b6006549361035f856128a7565b93610369866128a7565b97610373876128a7565b9261037d886128a7565b94610387896128a7565b9a6103918a6128a7565b995f5b8181106105f55750506103a56128ed565b84600c54169160075486600b5416843b156105a9578e51633c2fddc560e21b815260e0818e01528d9990968795869591906103e49060e4880190612606565b9b60249c828882030160248901526103fb9161271e565b9086820301604487015261040e91612606565b92606485015280608485015260a484015260c483015203815a5f948591f180156105eb576105be575b50600654600954909690831692825b8881106104b3578c8c6104af8d8d7f279b343370f587af7fb675ae7c8578e9c8abcc373236ad02c501a4771fe7a7b88451602081528061048b3394602083019061271e565b0390a26104a18351948486958652850190612606565b908382036020850152612606565b0390f35b816104be828c6128d9565b51168c5180916370a0823160e01b82528786830152818960209485935afa9182156105b4578f908a94938f91938d948a92610573575b505094849160019661050684876128d9565b5261051183866128d9565b5161051c84846128d9565b5110156105565750610548906105418361053a8161054e97986128d9565b51926128d9565b5190612767565b926128d9565b525b01610446565b9361056d93506105418361053a81610548956128d9565b52610550565b9450955050505082813d83116105ad575b61058e81836127c0565b810103126105a957888e828a8f6001965191968193506104f4565b5f80fd5b503d610584565b8e513d88823e3d90fd5b905067ffffffffffffffff81116105d85788525f8a610437565b604186634e487b7160e01b5f525260245ffd5b8a513d5f823e3d90fd5b856105ff82612774565b50541661060c828d6128d9565b52600161061882612774565b50015461062582856128d9565b5285610631828d6128d9565b5116908d5180926370a0823160e01b8252898d83015281602460209384935afa9081156106a4575f91610675575b506001925061066e828b6128d9565b5201610394565b905082813d831161069d575b61068b81836127c0565b810103126105a957600191515f61065f565b503d610681565b8f513d5f823e3d90fd5b82346105a9575f3660031901126105a957602090516706f05b59d3b200008152f35b82346105a9575f3660031901126105a957602090610309612b77565b612660565b82346105a957806003193601126105a95761070a6125da565b9060249182359367ffffffffffffffff85116105a957366023860112156105a9578481013593610739856127f6565b94610746855196876127c0565b808652602096828888019260051b820101913683116105a95783899201905b838210610ab75750506009546001600160a01b0397925061078a91508716331461280e565b600254905f906107986128ed565b9060065491518203610a75578115610a4757905f915b818310610a0e5750505080156109c157838888600b541688519283809263313ce56760e01b82525afa9081156109b7579060ff915f9161098a575b501691806108ec5750670de0b6b3a7640000808202918204036108da579061081091612767565b945b85156108a8576108438691335f525f8952865f2054956108328482612c36565b1694855f525f8952865f2054612767565b036108785750507f0f6798a560793a54c3bcfe86a93cde1e73087d944c0ea20544137d4121396885848351858152a251908152f35b835162461bcd60e51b8152918201869052600b908201526a135a5b9d0811985a5b195960aa1b6044820152606490fd5b845162461bcd60e51b8152808401889052600d818401526c04d696e7420717479206973203609c1b6044820152606490fd5b82601185634e487b7160e01b5f52525ffd5b6108f4612ba2565b509182156109395761090f929161090a91612639565b612683565b670de0b6b3a7640000908181029181830414901517156108da579061093391612767565b94610812565b875162461bcd60e51b81528087018b90526026818701527f546f74616c206c6971756964697479206d75737420626520677265617465722060448201526507468616e20360d41b6064820152608490fd5b6109aa91508a3d8c116109b0575b6109a281836127c0565b81019061288e565b8a6107e9565b503d610998565b87513d5f823e3d90fd5b855162461bcd60e51b81528085018990526022818501527f546f74616c2076616c7565206d7573742062652067726561746572207468616e604482015261020360f41b6064820152608490fd5b909192610a3e600191610a388c610a2488612774565b505416610a3188876128d9565b5190613263565b9061275a565b930191906107ae565b875162461bcd60e51b81528087018b9052600981870152684e6f2061737365747360b81b6044820152606490fd5b875162461bcd60e51b81528087018b90526017818701527f496e76616c6964207265736572766573206c656e6774680000000000000000006044820152606490fd5b81358152908201908201610765565b82346105a957806003193601126105a957602090610ae26125da565b610aea6125f0565b9060018060a01b038091165f5260018452825f2091165f528252805f20549051908152f35b9050346105a95760203660031901126105a957356006548110156105a957610b3690612774565b50805460019091015491516001600160a01b0390911681526020810191909152604090f35b9050346105a95760203660031901126105a957803590610b79612ba2565b8092915051831015610b9a57602084610b9285856128d9565b519051908152f35b606490602085519162461bcd60e51b83528201526013602482015272092dcecc2d8d2c840c2e6e6cae840d2dcc8caf606b1b6044820152fd5b82346105a9575f3660031901126105a957600b5490516001600160a01b039091168152602090f35b82346105a9575f3660031901126105a957602090515f8152f35b82346105a9575f3660031901126105a957600a5490516001600160a01b039091168152602090f35b6126a1565b82346105a9575f3660031901126105a9576020906008549051908152f35b82346105a9575f3660031901126105a95760209051671bc16d674ec7ffff8152f35b82346105a9575f3660031901126105a9576020905167016345785d8a00008152f35b82346105a957602090610309610cdb610ce1610ced610ce76102ee610ce16102e8610cce366126f8565b989496929b919093612e60565b966131c9565b906131aa565b82612ec5565b6131c9565b82346105a9575f3660031901126105a9576020905160018152f35b82346105a9575f3660031901126105a9576020905160028152f35b82346105a95760203660031901126105a957602090610309610d486125da565b612aff565b82346105a9575f3660031901126105a9576020905160088152f35b82346105a957806003193601126105a957602090610d91610d876125da565b6024359033612cf8565b5160018152f35b82346105a95760a03660031901126105a957610309610dce610dc06020946024359035612e60565b6102e8606435604435612e60565b610ce1610ddc6084356131c9565b612df9565b82346105a9575f3660031901126105a957516542524f4e5a4560d01b8152602090f35b82346105a9575f3660031901126105a957602090516704a03ce68d2155568152f35b82346105a9575f3660031901126105a9578051905f9280549060018260011c9160018416938415610f1a575b6020948585108114610f0757848852908115610ee55750600114610e8c575b6104af8686610e82828b03836127c0565b51918291826125b0565b5f9081529295507f8a35acfbc15ff81a39ae7d344fd709f28e8600b4aa8c65c6b64bfe7fe36bd19b5b828410610ed257505050826104af94610e82928201019486610e71565b8054868501880152928601928101610eb5565b60ff191687860152505050151560051b8301019250610e82826104af86610e71565b602283634e487b7160e01b5f525260245ffd5b92607f1692610e52565b82346105a9575f3660031901126105a9576020905168056bc75e2d631000008152f35b82346105a9575f3660031901126105a957602090610f63612aa9565b90519015158152f35b82346105a957602090816003193601126105a957610f886125da565b6009546001600160a01b0390811691610fa233841461280e565b305f525f8552835f20549586156113485760025496871561131657600654610fc9816128a7565b98601e8302838104601e0361130357612710610fe791048094612767565b965f5b8381106112485750505050305f525f875284865f20541061120557818785600c54168851928380926361d027b360e01b82525afa9081156109b7579088915f916111cb575b50875163a9059cbb60e01b81526001600160a01b03909116848201908152602081019390935291829081906040015b03815f305af19081156111c1575f9161118b575b501561115257301561113c57305f525f8652845f205490848210611111575083927fcc16f5dbb4873280815c1ee09dbd06736cffcc184412cf7a71a0fdb75d397ca5926104af96958893305f525f855203865f205584600254036002555f86518681527fddf252ad1be2c89b69c2b068fc378daa952ba7f163c4a11628f55a4df523b3ef853092a385519485521692a251928284938452830190612606565b855163391434e360e21b81523091810191825260208201929092526040810185905281906060010390fd5b6024905f865191634b637e8f60e11b8352820152fd5b845162461bcd60e51b81529081018690526013602482015272119959481d1c985b9cd9995c8819985a5b1959606a1b6044820152606490fd5b90508681813d83116111ba575b6111a281836127c0565b810103126105a9575180151581036105a95788611072565b503d611198565b86513d5f823e3d90fd5b82819392503d83116111fe575b6111e281836127c0565b810103126105a9575184811681036105a957879061105e61102f565b503d6111d8565b855162461bcd60e51b8152808301889052601d60248201527f496e73756666696369656e742042414c554e49206c69717569646974790000006044820152606490fd5b61128a8b8961125684612774565b50548d5163a3e113fb60e01b8152308b8201908152929091166001600160a01b031660208301529283918291604090910190565b0381865afa9081156112f9578a8593928f925f916112bf575b5061054860019561090a6112b8948794612639565b5201610fea565b94505050508b82813d83116112f2575b6112d981836127c0565b810103126105a95790518391908d908b906105486112a3565b503d6112cf565b8b513d5f823e3d90fd5b601185634e487b7160e01b5f525260245ffd5b855162461bcd60e51b8152808301889052600c60248201526b4e6f206c697175696469747960a01b6044820152606490fd5b845162461bcd60e51b8152908101869052601c60248201527f5368617265206d7573742062652067726561746572207468616e2030000000006044820152606490fd5b82346105a9575f3660031901126105a9576113a46129c2565b8251928391818301918352835180925260608301916020809501945f5b8281106113dc5785806104af87878382036020850152612606565b86511515855295810195879550938101936001016113c1565b82346105a957611411611407366126f8565b9591909293612e60565b95670de0b6b3a7640000918281029080159080830485148217156114d65790846114439282156114c2575b50506130fe565b6706f05b59d3b200008101918282116114af57506114a9856114a360209a9761149e61148f610ce199610304610ced9a8a6103099f9b61149e9b6114889110156130fe565b048261321b565b6114988b612df9565b90612f12565b6131aa565b9061321b565b946131c9565b601190634e487b7160e01b5f525260245ffd5b6114ce91925084612683565b14848b61143c565b601184634e487b7160e01b5f525260245ffd5b82346105a9575f3660031901126105a95760209051620f42408152f35b82346105a957602090610309610ced61154c61154261149e610ce76102ee610ce1610304611533366126f8565b989496929c918d9b9194612e60565b9761149e896131c9565b61321b565b9050346105a957611582610ced6114a361154261149e61157c6102ee6102e8610304611533366126f8565b8261321b565b91670de0b6b3a7640000908184029380159080860484148217156113035790836115b49282156115dd575b5050612dba565b6706f05b59d3b200008401928385116114af57506115d6602094841015612dba565b5191048152f35b6115e991925087612683565b1483876115ad565b82346105a9575f3660031901126105a9576020906007549051908152f35b82346105a9575f3660031901126105a95760095490516001600160a01b039091168152602090f35b82346105a9575f3660031901126105a9576020905164e8d4a510008152f35b82346105a95760203660031901126105a9576020906001600160a01b0361167b6125da565b165f525f8252805f20549051908152f35b9050346105a95760803660031901126105a9576116a76125da565b916116b06125f0565b604435926001600160a01b03919060643583811691908290036105a957600260055414611ad057600260055583831693871692848414611a8d578615611a4a576116f981612aff565b9761170381612aff565b906103e8908161171282612cab565b049a670de0b6b3a76400009b8c8102908d8183041490151715611a37578c908461173b88612cab565b048281029281840414901517156119cb5761176c916102e86117606117679389612e60565b9185612e60565b61313d565b928c8161177885612cab565b048181029181830414901517156119cb578d908261179589612cab565b04828102928184041490151715611a2457906117b091612e60565b8c670de0b6b3a763ffe28082029182048103611a11576117db908f6117d59084612683565b146130fe565b6706f05b59d3b20000810190818111611a11578f926102ee611814611820958561180d610ced9661181a9810156130fe565b048b612ec5565b8a612e60565b836131aa565b94600186106119de57908061184c8f94938f6118408a9161184693612ec5565b9561321b565b95612cab565b048381029381850414901517156119cb57908d929161186a88612cab565b048381029381850414901517156119cb5761176785946102e86118a5956118986118af999661189e96612e60565b92612e60565b1015613225565b61189e838b612e60565b865163313ce56760e01b8152602099908a8186818b5afa9081156119c1579060ff915f916119a4575b5016900367ffffffffffffffff9081811161130357916118ff916119079594931690612683565b928391612aff565b1061196857601e820290828204601e14831517156114af57506119517fcd3829a3813dc3cdd188fd3d01dcf3268c16be2fdd2dd21d0665418816e460629261271088930490612767565b9681519081528789820152a4600160055551908152f35b855162461bcd60e51b81529081018890526016602482015275496e73756666696369656e74204c697175696469747960501b6044820152606490fd5b6119bb91508c8d3d106109b0576109a281836127c0565b8c6118d8565b89513d5f823e3d90fd5b601188634e487b7160e01b5f525260245ffd5b8b5162461bcd60e51b81526020818a0152600d60248201526c11549497d31253525517d3d555609a1b6044820152606490fd5b60118a634e487b7160e01b5f525260245ffd5b601189634e487b7160e01b5f525260245ffd5b601187634e487b7160e01b5f525260245ffd5b855162461bcd60e51b8152602081840181905260248201527f416d6f756e74206d7573742062652067726561746572207468616e207a65726f6044820152606490fd5b855162461bcd60e51b8152602081840152601a60248201527f43616e6e6f742073776170207468652073616d6520746f6b656e0000000000006044820152606490fd5b8451633ee5aeb560e01b8152fd5b82346105a9575f3660031901126105a957600654611afb816128a7565b905f5b818110611b1a578351602080825281906104af9082018661271e565b80611b26600192612774565b50828060a01b03905416611b3a82866128d9565b5201611afe565b82346105a9575f3660031901126105a95760209051601e8152f35b82346105a957602090610309611b9c6102e8610ced61149e61149e6114a961148f61154c610304611b8c366126f8565b9a949793918896929e919e612e60565b9c82612ec5565b9050346105a957816003193601126105a957611bbd6125da565b91611bc66125f0565b611bcf84612aff565b50611bd981612aff565b50815163313ce56760e01b81526020946001600160a01b0391868187818587165afa908115611cda579060ff915f91611cbd575b501691600c541691604d8111611caa57845163248391ff60e01b81526001600160a01b03928316968101968752939091166020860152600a0a60408501529092849184918290819060600103915afa918215611ca0575f92611c71575b5051908152f35b9091508281813d8311611c99575b611c8981836127c0565b810103126105a957519083611c6a565b503d611c7f565b50513d5f823e3d90fd5b601186634e487b7160e01b5f525260245ffd5b611cd49150883d8a116109b0576109a281836127c0565b88611c0d565b85513d5f823e3d90fd5b82346105a9576020611cf5366126c3565b600c54855163248391ff60e01b81526001600160a01b03948516978101978852928416602088015260408701919091529094859290839003606001918391165afa908115611d83575f91611d4e575b6020925051908152f35b90506020823d602011611d7b575b81611d69602093836127c0565b810103126105a9576020915190611d44565b3d9150611d5c565b513d5f823e3d90fd5b82346105a9575f3660031901126105a9576104af611da8612ba2565b83929192519384938452806020850152830190612606565b82346105a9575f3660031901126105a9576020905160128152f35b9050346105a957611deb366126c3565b6001600160a01b0383165f81815260016020818152888320338452905290879020549295939493908301611e28575b602087610d91888888612cf8565b858310611e90578115611e7a573315611e6457505f90815260016020908152868220338352815290869020918590039091558290610d91611e1a565b6024905f885191634a1406b160e11b8352820152fd5b6024905f88519163e602df0560e01b8352820152fd5b8651637dc7a0d960e11b8152339181019182526020820193909352604081018690528291506060010390fd5b82346105a9575f3660031901126105a957600654611ed9816128a7565b905f5b818110611ef8578351602080825281906104af90820186612606565b806001611f058193612774565b500154611f1282866128d9565b5201611edc565b82346105a9575f3660031901126105a957602090611f35612ba2565b509051908152f35b82346105a9575f3660031901126105a957602090516305f5e1008152f35b82346105a9575f3660031901126105a9576020906002549051908152f35b82346105a957806003193601126105a957611f926125da565b611f9a6125f0565b92611fa482612aff565b93611fae81612aff565b845163313ce56760e01b80825260209791946001600160a01b039390929091898785818b89165afa9687156119c157908a915f986120db575b50848a5180978193825289165afa9384156120d1575f946120b2575b50670de0b6b3a764000095868202918083048814901517156114d6579060ff61202d921690612767565b928582029180830487149015171561209f5761205c9160ff612050921690612767565b956103e8918291612cab565b04938585029480860487149015171561209f5761207890612cab565b048481029481860414901517156114af57506117679261189861030995936102e893612e60565b601183634e487b7160e01b5f525260245ffd5b6120ca919450893d8b116109b0576109a281836127c0565b9289612003565b88513d5f823e3d90fd5b6120f3919850823d84116109b0576109a281836127c0565b968b611fe7565b82346105a957806003193601126105a9576121136125da565b60243590331561218c576001600160a01b03169081156121765760209350335f5260018452825f20825f52845280835f205582519081527f8c5be1e5ebec7d5bd14f71427d1e84f3dd0314c0f7b2291e5b200ac8c7c3b925843392a35160018152f35b8251634a1406b160e11b81525f81860152602490fd5b825163e602df0560e01b81525f81860152602490fd5b82346105a9575f3660031901126105a9576104af906121bf6128ed565b9051918291602083526020830190612606565b9050346105a957602091826003193601126105a9576121ef6125da565b9160018060a01b03936122078560095416331461280e565b61221261034d612aa9565b61221a612ba2565b6006549491612228866128a7565b915f5b878110612444575050505f905f5b8681106124255750600b54835163313ce56760e01b81529089169285828881875afa918215611cda575f92612406575b5060ff670de0b6b3a764000092168203918211611a37576122939161228d91612639565b966128a7565b955f5b82518110156123ae576122a981846128d9565b516122b7575b600101612296565b6122c181846128d9565b51868b6122cd84612774565b5054600c54895163248391ff60e01b81526001600160a01b038a81168e830190815294909316909216602084015260408301949094529283918290036060019082908f165afa9081156111c1575f91612381575b50801561233e5790600191612336828b6128d9565b5290506122af565b855162461bcd60e51b8152808901889052601b60248201527f496e76616c696420746f6b656e20616d6f756e7420746f2061646400000000006044820152606490fd5b90508681813d83116123a7575b61239881836127c0565b810103126105a957518b612321565b503d61238e565b87866104af87866123bf878f612c36565b7fa95ad530009c6f929555e70a66aadbeae7231e45756c5b028ca77fbaa376e73e8251858152806123f4339488830190612606565b0390a251928284938452830190612606565b61241e919250863d88116109b0576109a281836127c0565b908a612269565b9161243d60019161243685856128d9565b519061275a565b9201612239565b8061271061246060016124578195612774565b50015486612639565b048061246c83866128d9565b511061247a575b500161222b565b6124889061054183866128d9565b61249282876128d9565b528b612473565b82346105a9575f3660031901126105a9578051905f9260035460018160011c91600181168015612583575b6020948585108214612570575083875290811561255057506001146124f6575b505050610e82826104af9403836127c0565b60035f9081529295507fc2575a0e9e593c00f959f8c92f12db2869c3395a3b0502d05e2516446f71f85b5b82841061253d57505050826104af94610e8292820101946124e4565b8054868501880152928601928101612521565b60ff1916868501525050151560051b8301019250610e82826104af6124e4565b602290634e487b7160e01b5f525260245ffd5b92607f16926124c4565b346105a9575f3660031901126105a957600c546001600160a01b03168152602090f35b602060409281835280519182918282860152018484015e5f828201840152601f01601f1916010190565b600435906001600160a01b03821682036105a957565b602435906001600160a01b03821682036105a957565b9081518082526020808093019301915f5b828110612625575050505090565b835185529381019392810192600101612617565b8181029291811591840414171561264c57565b634e487b7160e01b5f52601160045260245ffd5b346105a9575f3660031901126105a95760206040516802b5e3af16b18800008152f35b811561268d570490565b634e487b7160e01b5f52601260045260245ffd5b346105a9575f3660031901126105a9576020604051670de0b6b3a76400008152f35b60609060031901126105a9576001600160a01b039060043582811681036105a9579160243590811681036105a9579060443590565b60c09060031901126105a957600435906024359060443590606435906084359060a43590565b9081518082526020808093019301915f5b82811061273d575050505090565b83516001600160a01b03168552938101939281019260010161272f565b9190820180921161264c57565b9190820391821161264c57565b6006548110156127ac5760065f5260011b7ff652222313e28459528d920b65115c16c04f3efc82aaedc97be59f3f377c0d3f01905f90565b634e487b7160e01b5f52603260045260245ffd5b90601f8019910116810190811067ffffffffffffffff8211176127e257604052565b634e487b7160e01b5f52604160045260245ffd5b67ffffffffffffffff81116127e25760051b60200190565b1561281557565b60405162461bcd60e51b815260206004820152600e60248201526d4f6e6c792050657269706865727960901b6044820152606490fd5b1561285257565b60405162461bcd60e51b8152602060048201526014602482015273149958985b185b98d9481b9bdd081b995959195960621b6044820152606490fd5b908160209103126105a9575160ff811681036105a95790565b906128b1826127f6565b6128be60405191826127c0565b82815280926128cf601f19916127f6565b0190602036910137565b80518210156127ac5760209160051b010190565b600954604051630fa6707960e21b8152306004820152905f90829060249082906001600160a01b03165afa9081156129b7575f91612929575090565b90503d805f833e61293a81836127c0565b81019060209081818403126105a95780519067ffffffffffffffff82116105a957019180601f840112156105a9578251612973816127f6565b9361298160405195866127c0565b818552838086019260051b8201019283116105a9578301905b8282106129a8575050505090565b8151815290830190830161299a565b6040513d5f823e3d90fd5b6129ca612ba2565b9190600654906129d9826127f6565b916129e760405193846127c0565b808352601f196129f6826127f6565b01366020850137612a06816128a7565b945f5b828110612a1857505050509190565b612a2281836128d9565b51906127109182810292818404149015171561264c57612a4485600193612683565b612a4d82612774565b50830154839181811115612a825790612a6591612767565b612a6f838b6128d9565b52612a7a82886128d9565b525b01612a09565b90612a8d9250612767565b612a97828a6128d9565b525f612aa382886128d9565b52612a7c565b612ab16129c2565b5f5b8151811015612af857612ac681846128d9565b51151580612ae3575b612adb57600101612ab3565b505050600190565b50612aee81836128d9565b5160075410612acf565b5050505f90565b60095460405163a3e113fb60e01b81523060048201526001600160a01b039283166024820152916020918391168180604481015b03915afa9081156129b7575f91612b48575090565b90506020813d602011612b6f575b81612b63602093836127c0565b810103126105a9575190565b3d9150612b56565b612b7f612ba2565b506002548015612b9c5761090a612b999260085490612639565b90565b50505f90565b600654905f612bb0836128a7565b600b5490935f916001600160a01b03908116905b828410612bd357505050509190565b90919293612c1260019183612be788612774565b505416612bf381612aff565b90868103612c1c5750612c06888b6128d9565b525b612436878a6128d9565b9401929190612bc4565b90612c2691613263565b612c30888b6128d9565b52612c08565b6001600160a01b0316908115612c93577fddf252ad1be2c89b69c2b068fc378daa952ba7f163c4a11628f55a4df523b3ef602082612c775f9460025461275a565b60025584845283825260408420818154019055604051908152a3565b60405163ec442f0560e01b81525f6004820152602490fd5b600654905f5b828110612cbf575050505f90565b612cc881612774565b50546001600160a01b03838116911614612ce457600101612cb1565b60019250612cf29150612774565b50015490565b916001600160a01b03808416928315612da25716928315612c9357825f525f60205260405f205490828210612d705750817fddf252ad1be2c89b69c2b068fc378daa952ba7f163c4a11628f55a4df523b3ef92602092855f525f84520360405f2055845f5260405f20818154019055604051908152a3565b60405163391434e360e21b81526001600160a01b03919091166004820152602481019190915260448101829052606490fd5b604051634b637e8f60e11b81525f6004820152602490fd5b15612dc157565b60405162461bcd60e51b815260206004820152601060248201526f11549497d1125597d25395115493905360821b6044820152606490fd5b8015612e2c576ec097ce7bc90715b34b9f1000000000908060011c820180831161264c5761090a612b9993821015612dba565b60405162461bcd60e51b815260206004820152600c60248201526b4552525f4449565f5a45524f60a01b6044820152606490fd5b908015612e2c57670de0b6b3a764000091828102908015818304851481171561264c57612b9994612e98928215612eb1575050612dba565b61090a612ea88360011c8361275a565b91821015612dba565b612ebd91925084612683565b145f806115ad565b90612ed0908261275a565b908110612eda5790565b60405162461bcd60e51b815260206004820152601060248201526f4552525f4144445f4f564552464c4f5760801b6044820152606490fd5b91906001928381106130c157671bc16d674ec7ffff811161308357670de0b6b3a764000091828104908382029180830485149015171561264c57612f5782859261321b565b910491808684161561307d57815b93871c90815b613050575050811561304857612f83909391936132a7565b82949183915f9289955b6305f5e100821015612fac575b50505050505050612b999293506131aa565b909192939495978189029289840483148a15171561264c5783610304612fe992610ce1612fe2612fdc8b99613212565b8d613319565b98906131aa565b9283156130415784613039575b613031575b8286156130225761300b9161321b565b975b5f19811461264c578a01959493929190612f8d565b61302b91612ec5565b9761300d565b941594612ffb565b951595612ff6565b5097612f9a565b509093505050565b8061305a916131aa565b9087811661306c575b871c9081612f6b565b9381613077916131aa565b93613063565b84612f65565b60405162461bcd60e51b815260206004820152601660248201527508aa4a4be84a09eaebe8482a68abea89e9ebe90928e960531b6044820152606490fd5b60405162461bcd60e51b81526020600482015260156024820152744552525f42504f575f424153455f544f4f5f4c4f5760581b6044820152606490fd5b1561310557565b60405162461bcd60e51b815260206004820152601060248201526f4552525f4d554c5f4f564552464c4f5760801b6044820152606490fd5b670de0b6b3a764001e9081810291811590828404811482171561264c5761316b9282156131965750506130fe565b6706f05b59d3b20000810180821161264c57613192670de0b6b3a7640000928210156130fe565b0490565b6131a291925084612683565b145f8061143c565b61316b906131b88382612639565b9281159182156131965750506130fe565b6131d2906132e0565b6131d95790565b60405162461bcd60e51b81526020600482015260116024820152704552525f5355425f554e444552464c4f5760781b6044820152606490fd5b6131d2906132a7565b906131d291613319565b1561322c57565b60405162461bcd60e51b815260206004820152600f60248201526e08aa4a4be9a82a890be82a0a0a49eb608b1b6044820152606490fd5b600c54600b5460405163248391ff60e01b81526001600160a01b03938416600482015290831660248201526044810193909352602091839116818060648101612b33565b670de0b6b3a76400008082106132d05750670de0b6b3a763ffff19810190811161264c57905f90565b90810390811161264c5790600190565b670de0b6b3a7640000908082106132ff57810390811161264c57905f90565b670de0b6b3a763ffff1981019150811161264c5790600190565b81811061332f579061332a91612767565b905f90565b61333891612767565b9060019056fea2646970667358221220b71b02d2c9c67070abd5edd7aed54964fa1025337a855a655ba976286c7bc78b64736f6c63430008190033","opcodes":"PUSH1 0x80 DUP1 PUSH1 0x40 MSTORE CALLVALUE PUSH2 0x439 JUMPI PUSH2 0x3CD5 DUP1 CODESIZE SUB DUP1 SWAP2 PUSH2 0x1C DUP3 DUP6 PUSH2 0x8FE JUMP JUMPDEST DUP4 CODECOPY DUP2 ADD PUSH1 0xA0 DUP3 DUP3 SUB SLT PUSH2 0x439 JUMPI PUSH2 0x33 DUP3 PUSH2 0x921 JUMP JUMPDEST PUSH1 0x20 DUP4 ADD MLOAD SWAP1 SWAP2 SWAP1 PUSH1 0x1 PUSH1 0x1 PUSH1 0x40 SHL SUB DUP2 GT PUSH2 0x439 JUMPI DUP4 ADD SWAP2 DUP2 PUSH1 0x1F DUP5 ADD SLT ISZERO PUSH2 0x439 JUMPI DUP3 MLOAD SWAP3 PUSH2 0x63 DUP5 PUSH2 0x935 JUMP JUMPDEST SWAP4 PUSH2 0x71 PUSH1 0x40 MLOAD SWAP6 DUP7 PUSH2 0x8FE JUMP JUMPDEST DUP1 DUP6 MSTORE PUSH1 0x20 DUP1 DUP7 ADD SWAP2 PUSH1 0x5 SHL DUP4 ADD ADD SWAP2 DUP5 DUP4 GT PUSH2 0x439 JUMPI PUSH1 0x20 ADD SWAP1 JUMPDEST DUP3 DUP3 LT PUSH2 0x8CB JUMPI POP POP POP PUSH1 0x40 DUP5 ADD MLOAD PUSH1 0x1 PUSH1 0x1 PUSH1 0x40 SHL SUB DUP2 GT PUSH2 0x439 JUMPI DUP5 ADD SWAP2 DUP1 PUSH1 0x1F DUP5 ADD SLT ISZERO PUSH2 0x439 JUMPI DUP3 MLOAD PUSH2 0xC3 DUP2 PUSH2 0x935 JUMP JUMPDEST SWAP4 PUSH2 0xD1 PUSH1 0x40 MLOAD SWAP6 DUP7 PUSH2 0x8FE JUMP JUMPDEST DUP2 DUP6 MSTORE PUSH1 0x20 DUP1 DUP7 ADD SWAP3 PUSH1 0x5 SHL DUP3 ADD ADD SWAP3 DUP4 GT PUSH2 0x439 JUMPI PUSH1 0x20 ADD SWAP1 JUMPDEST DUP3 DUP3 LT PUSH2 0x8BB JUMPI POP POP POP PUSH2 0x107 PUSH1 0x80 PUSH1 0x60 DUP7 ADD MLOAD SWAP6 ADD PUSH2 0x921 JUMP JUMPDEST PUSH1 0x40 MLOAD PUSH2 0x113 DUP2 PUSH2 0x8E3 JUMP JUMPDEST PUSH1 0x9 DUP2 MSTORE PUSH9 0x42616C756E69204C5 PUSH1 0xBC SHL PUSH1 0x20 DUP3 ADD MSTORE PUSH1 0x40 MLOAD SWAP1 PUSH2 0x136 DUP3 PUSH2 0x8E3 JUMP JUMPDEST PUSH1 0x9 DUP3 MSTORE PUSH9 0x42414C554E492D4C5 PUSH1 0xBC SHL PUSH1 0x20 DUP4 ADD MSTORE DUP1 MLOAD SWAP1 PUSH1 0x1 PUSH1 0x1 PUSH1 0x40 SHL SUB DUP3 GT PUSH2 0x496 JUMPI PUSH1 0x3 SLOAD SWAP1 PUSH1 0x1 DUP3 DUP2 SHR SWAP3 AND DUP1 ISZERO PUSH2 0x8B1 JUMPI JUMPDEST PUSH1 0x20 DUP4 LT EQ PUSH2 0x792 JUMPI DUP2 PUSH1 0x1F DUP5 SWAP4 GT PUSH2 0x843 JUMPI JUMPDEST POP PUSH1 0x20 SWAP1 PUSH1 0x1F DUP4 GT PUSH1 0x1 EQ PUSH2 0x7BB JUMPI PUSH0 SWAP3 PUSH2 0x7B0 JUMPI JUMPDEST POP POP DUP2 PUSH1 0x1 SHL SWAP2 PUSH0 NOT SWAP1 PUSH1 0x3 SHL SHR NOT AND OR PUSH1 0x3 SSTORE JUMPDEST DUP1 MLOAD SWAP1 PUSH1 0x1 PUSH1 0x1 PUSH1 0x40 SHL SUB DUP3 GT PUSH2 0x496 JUMPI PUSH1 0x4 SLOAD SWAP1 PUSH1 0x1 DUP3 DUP2 SHR SWAP3 AND DUP1 ISZERO PUSH2 0x7A6 JUMPI JUMPDEST PUSH1 0x20 DUP4 LT EQ PUSH2 0x792 JUMPI DUP2 PUSH1 0x1F DUP5 SWAP4 GT PUSH2 0x724 JUMPI JUMPDEST POP PUSH1 0x20 SWAP1 PUSH1 0x1F DUP4 GT PUSH1 0x1 EQ PUSH2 0x6A0 JUMPI PUSH0 SWAP3 PUSH2 0x695 JUMPI JUMPDEST POP POP DUP2 PUSH1 0x1 SHL SWAP2 PUSH0 NOT SWAP1 PUSH1 0x3 SHL SHR NOT AND OR PUSH1 0x4 SSTORE JUMPDEST PUSH1 0x1 PUSH1 0x5 SSTORE PUSH1 0x9 DUP1 SLOAD PUSH1 0x1 PUSH1 0x1 PUSH1 0xA0 SHL SUB NOT SWAP1 DUP2 AND PUSH1 0x1 PUSH1 0x1 PUSH1 0xA0 SHL SUB SWAP4 DUP5 AND OR SWAP1 SWAP2 SSTORE PUSH1 0xA DUP1 SLOAD DUP3 AND CALLER OR SWAP1 SSTORE PUSH1 0xC DUP1 SLOAD SWAP1 SWAP2 AND SWAP2 DUP4 AND SWAP2 SWAP1 SWAP2 OR SWAP1 SSTORE PUSH8 0xDE0B6B3A7640000 PUSH1 0x8 SSTORE DUP3 MLOAD DUP3 MLOAD SUB PUSH2 0x645 JUMPI PUSH0 JUMPDEST DUP4 MLOAD DUP2 LT ISZERO PUSH2 0x525 JUMPI PUSH1 0x1 PUSH1 0x1 PUSH1 0xA0 SHL SUB PUSH2 0x280 DUP3 DUP7 PUSH2 0x94C JUMP JUMPDEST MLOAD AND ISZERO PUSH2 0x4E0 JUMPI PUSH2 0x291 DUP2 DUP5 PUSH2 0x94C JUMP JUMPDEST MLOAD ISZERO PUSH2 0x4AA JUMPI PUSH1 0x1 PUSH1 0x1 PUSH1 0xA0 SHL SUB PUSH2 0x2A9 DUP3 DUP7 PUSH2 0x94C JUMP JUMPDEST MLOAD AND PUSH2 0x2B5 DUP3 DUP6 PUSH2 0x94C JUMP JUMPDEST MLOAD PUSH1 0x40 DUP1 MLOAD SWAP3 SWAP1 DUP4 ADD DUP1 DUP5 GT PUSH1 0x1 PUSH1 0x1 PUSH1 0x40 SHL SUB SWAP1 SWAP2 GT OR PUSH2 0x496 JUMPI PUSH1 0x40 DUP4 ADD PUSH1 0x40 MSTORE DUP3 MSTORE PUSH1 0x20 DUP3 ADD MSTORE PUSH1 0x6 SLOAD PUSH9 0x10000000000000000 DUP2 LT ISZERO PUSH2 0x496 JUMPI PUSH1 0x1 DUP2 ADD DUP1 PUSH1 0x6 SSTORE DUP2 LT ISZERO PUSH2 0x482 JUMPI PUSH1 0x6 PUSH0 MSTORE DUP2 MLOAD PUSH32 0xF652222313E28459528D920B65115C16C04F3EFC82AAEDC97BE59F3F377C0D3F PUSH1 0x1 SWAP3 SWAP1 SWAP3 SHL SWAP2 DUP3 ADD DUP1 SLOAD PUSH1 0x1 PUSH1 0x1 PUSH1 0xA0 SHL SUB SWAP3 DUP4 AND PUSH1 0x1 PUSH1 0x1 PUSH1 0xA0 SHL SUB NOT SWAP1 SWAP2 AND OR SWAP1 SSTORE PUSH1 0x20 SWAP1 SWAP3 ADD MLOAD PUSH32 0xF652222313E28459528D920B65115C16C04F3EFC82AAEDC97BE59F3F377C0D40 SWAP1 SWAP2 ADD SSTORE PUSH2 0x383 DUP3 DUP7 PUSH2 0x94C JUMP JUMPDEST MLOAD AND PUSH1 0x1 DUP1 PUSH1 0xA0 SHL SUB PUSH1 0xC SLOAD AND PUSH1 0x40 MLOAD PUSH4 0x6EB1769F PUSH1 0xE1 SHL DUP2 MSTORE ADDRESS PUSH1 0x4 DUP3 ADD MSTORE DUP2 PUSH1 0x24 DUP3 ADD MSTORE PUSH1 0x20 DUP2 PUSH1 0x44 DUP2 DUP7 GAS STATICCALL SWAP1 DUP2 ISZERO PUSH2 0x445 JUMPI PUSH0 SWAP2 PUSH2 0x450 JUMPI JUMPDEST POP ISZERO PUSH2 0x3D1 JUMPI JUMPDEST POP POP PUSH1 0x1 ADD PUSH2 0x265 JUMP JUMPDEST PUSH0 SWAP2 PUSH1 0x44 PUSH1 0x20 SWAP3 PUSH1 0x40 MLOAD SWAP5 DUP6 SWAP4 DUP5 SWAP3 PUSH4 0x95EA7B3 PUSH1 0xE0 SHL DUP5 MSTORE PUSH1 0x4 DUP5 ADD MSTORE DUP2 NOT PUSH1 0x24 DUP5 ADD MSTORE GAS CALL DUP1 ISZERO PUSH2 0x445 JUMPI PUSH2 0x409 JUMPI JUMPDEST DUP1 PUSH2 0x3C7 JUMP JUMPDEST PUSH1 0x20 DUP2 RETURNDATASIZE PUSH1 0x20 GT PUSH2 0x43D JUMPI JUMPDEST DUP2 PUSH2 0x422 PUSH1 0x20 SWAP4 DUP4 PUSH2 0x8FE JUMP JUMPDEST DUP2 ADD SUB SLT PUSH2 0x439 JUMPI MLOAD DUP1 ISZERO ISZERO SUB PUSH2 0x439 JUMPI PUSH0 PUSH2 0x403 JUMP JUMPDEST PUSH0 DUP1 REVERT JUMPDEST RETURNDATASIZE SWAP2 POP PUSH2 0x415 JUMP JUMPDEST PUSH1 0x40 MLOAD RETURNDATASIZE PUSH0 DUP3 RETURNDATACOPY RETURNDATASIZE SWAP1 REVERT JUMPDEST SWAP1 POP PUSH1 0x20 DUP2 RETURNDATASIZE PUSH1 0x20 GT PUSH2 0x47A JUMPI JUMPDEST DUP2 PUSH2 0x46B PUSH1 0x20 SWAP4 DUP4 PUSH2 0x8FE JUMP JUMPDEST DUP2 ADD SUB SLT PUSH2 0x439 JUMPI MLOAD PUSH0 PUSH2 0x3C0 JUMP JUMPDEST RETURNDATASIZE SWAP2 POP PUSH2 0x45E JUMP JUMPDEST PUSH4 0x4E487B71 PUSH1 0xE0 SHL PUSH0 MSTORE PUSH1 0x32 PUSH1 0x4 MSTORE PUSH1 0x24 PUSH0 REVERT JUMPDEST PUSH4 0x4E487B71 PUSH1 0xE0 SHL PUSH0 MSTORE PUSH1 0x41 PUSH1 0x4 MSTORE PUSH1 0x24 PUSH0 REVERT JUMPDEST PUSH1 0x40 MLOAD PUSH3 0x461BCD PUSH1 0xE5 SHL DUP2 MSTORE PUSH1 0x20 PUSH1 0x4 DUP3 ADD MSTORE PUSH1 0xE PUSH1 0x24 DUP3 ADD MSTORE PUSH14 0x125B9D985B1A59081DD95A59DA1D PUSH1 0x92 SHL PUSH1 0x44 DUP3 ADD MSTORE PUSH1 0x64 SWAP1 REVERT JUMPDEST PUSH1 0x40 MLOAD PUSH3 0x461BCD PUSH1 0xE5 SHL DUP2 MSTORE PUSH1 0x20 PUSH1 0x4 DUP3 ADD MSTORE PUSH1 0x15 PUSH1 0x24 DUP3 ADD MSTORE PUSH32 0x496E76616C696420617373657420616464726573730000000000000000000000 PUSH1 0x44 DUP3 ADD MSTORE PUSH1 0x64 SWAP1 REVERT JUMPDEST POP PUSH1 0x7 DUP5 SWAP1 SSTORE PUSH1 0x40 MLOAD PUSH4 0x89A30271 PUSH1 0xE0 SHL DUP2 MSTORE SWAP1 PUSH1 0x20 SWAP1 DUP3 SWAP1 PUSH1 0x4 SWAP1 DUP3 SWAP1 PUSH1 0x1 PUSH1 0x1 PUSH1 0xA0 SHL SUB AND GAS STATICCALL SWAP1 DUP2 ISZERO PUSH2 0x445 JUMPI PUSH0 SWAP2 PUSH2 0x60B JUMPI JUMPDEST POP PUSH1 0xB DUP1 SLOAD PUSH1 0x1 PUSH1 0x1 PUSH1 0xA0 SHL SUB NOT AND PUSH1 0x1 PUSH1 0x1 PUSH1 0xA0 SHL SUB SWAP3 SWAP1 SWAP3 AND SWAP2 SWAP1 SWAP2 OR SWAP1 SSTORE PUSH0 SWAP1 DUP2 JUMPDEST DUP2 MLOAD DUP4 LT ISZERO PUSH2 0x5BD JUMPI PUSH2 0x594 DUP4 DUP4 PUSH2 0x94C JUMP JUMPDEST MLOAD DUP2 ADD DUP1 SWAP2 GT PUSH2 0x5A9 JUMPI PUSH1 0x1 SWAP1 SWAP3 ADD SWAP2 PUSH2 0x581 JUMP JUMPDEST PUSH4 0x4E487B71 PUSH1 0xE0 SHL PUSH0 MSTORE PUSH1 0x11 PUSH1 0x4 MSTORE PUSH1 0x24 PUSH0 REVERT JUMPDEST PUSH2 0x2710 SUB PUSH2 0x5D4 JUMPI PUSH1 0x40 MLOAD PUSH2 0x3374 SWAP1 DUP2 PUSH2 0x961 DUP3 CODECOPY RETURN JUMPDEST PUSH1 0x40 MLOAD PUSH3 0x461BCD PUSH1 0xE5 SHL DUP2 MSTORE PUSH1 0x20 PUSH1 0x4 DUP3 ADD MSTORE PUSH1 0xF PUSH1 0x24 DUP3 ADD MSTORE PUSH15 0x496E76616C69642077656967687473 PUSH1 0x88 SHL PUSH1 0x44 DUP3 ADD MSTORE PUSH1 0x64 SWAP1 REVERT JUMPDEST SWAP1 POP PUSH1 0x20 DUP2 RETURNDATASIZE PUSH1 0x20 GT PUSH2 0x63D JUMPI JUMPDEST DUP2 PUSH2 0x626 PUSH1 0x20 SWAP4 DUP4 PUSH2 0x8FE JUMP JUMPDEST DUP2 ADD SUB SLT PUSH2 0x439 JUMPI PUSH2 0x637 SWAP1 PUSH2 0x921 JUMP JUMPDEST DUP3 PUSH2 0x55C JUMP JUMPDEST RETURNDATASIZE SWAP2 POP PUSH2 0x619 JUMP JUMPDEST PUSH1 0x40 MLOAD PUSH3 0x461BCD PUSH1 0xE5 SHL DUP2 MSTORE PUSH1 0x20 PUSH1 0x4 DUP3 ADD MSTORE PUSH1 0x22 PUSH1 0x24 DUP3 ADD MSTORE PUSH32 0x41737365747320616E642077656967687473206C656E677468206D69736D6174 PUSH1 0x44 DUP3 ADD MSTORE PUSH2 0xC6D PUSH1 0xF3 SHL PUSH1 0x64 DUP3 ADD MSTORE PUSH1 0x84 SWAP1 REVERT JUMPDEST ADD MLOAD SWAP1 POP PUSH0 DUP1 PUSH2 0x1FB JUMP JUMPDEST PUSH1 0x4 PUSH0 SWAP1 DUP2 MSTORE PUSH32 0x8A35ACFBC15FF81A39AE7D344FD709F28E8600B4AA8C65C6B64BFE7FE36BD19B SWAP4 POP PUSH1 0x1F NOT DUP6 AND SWAP1 JUMPDEST DUP2 DUP2 LT PUSH2 0x70C JUMPI POP SWAP1 DUP5 PUSH1 0x1 SWAP6 SWAP5 SWAP4 SWAP3 LT PUSH2 0x6F4 JUMPI JUMPDEST POP POP POP DUP2 SHL ADD PUSH1 0x4 SSTORE PUSH2 0x210 JUMP JUMPDEST ADD MLOAD PUSH0 NOT PUSH1 0xF8 DUP5 PUSH1 0x3 SHL AND SHR NOT AND SWAP1 SSTORE PUSH0 DUP1 DUP1 PUSH2 0x6E6 JUMP JUMPDEST SWAP3 SWAP4 PUSH1 0x20 PUSH1 0x1 DUP2 SWAP3 DUP8 DUP7 ADD MLOAD DUP2 SSTORE ADD SWAP6 ADD SWAP4 ADD PUSH2 0x6D0 JUMP JUMPDEST PUSH1 0x4 PUSH0 MSTORE SWAP1 SWAP2 POP PUSH32 0x8A35ACFBC15FF81A39AE7D344FD709F28E8600B4AA8C65C6B64BFE7FE36BD19B PUSH1 0x1F DUP5 ADD PUSH1 0x5 SHR DUP2 ADD SWAP2 PUSH1 0x20 DUP6 LT PUSH2 0x788 JUMPI JUMPDEST SWAP1 PUSH1 0x1F DUP6 SWAP5 SWAP4 SWAP3 ADD PUSH1 0x5 SHR ADD SWAP1 JUMPDEST DUP2 DUP2 LT PUSH2 0x77A JUMPI POP PUSH2 0x1E5 JUMP JUMPDEST PUSH0 DUP2 SSTORE DUP5 SWAP4 POP PUSH1 0x1 ADD PUSH2 0x76D JUMP JUMPDEST SWAP1 SWAP2 POP DUP2 SWAP1 PUSH2 0x75F JUMP JUMPDEST PUSH4 0x4E487B71 PUSH1 0xE0 SHL PUSH0 MSTORE PUSH1 0x22 PUSH1 0x4 MSTORE PUSH1 0x24 PUSH0 REVERT JUMPDEST SWAP2 PUSH1 0x7F AND SWAP2 PUSH2 0x1D1 JUMP JUMPDEST ADD MLOAD SWAP1 POP PUSH0 DUP1 PUSH2 0x199 JUMP JUMPDEST PUSH1 0x3 PUSH0 SWAP1 DUP2 MSTORE SWAP4 POP PUSH32 0xC2575A0E9E593C00F959F8C92F12DB2869C3395A3B0502D05E2516446F71F85B SWAP2 SWAP1 JUMPDEST PUSH1 0x1F NOT DUP5 AND DUP6 LT PUSH2 0x828 JUMPI PUSH1 0x1 SWAP5 POP DUP4 PUSH1 0x1F NOT DUP2 AND LT PUSH2 0x810 JUMPI JUMPDEST POP POP POP DUP2 SHL ADD PUSH1 0x3 SSTORE PUSH2 0x1AE JUMP JUMPDEST ADD MLOAD PUSH0 NOT PUSH1 0xF8 DUP5 PUSH1 0x3 SHL AND SHR NOT AND SWAP1 SSTORE PUSH0 DUP1 DUP1 PUSH2 0x802 JUMP JUMPDEST DUP2 DUP2 ADD MLOAD DUP4 SSTORE PUSH1 0x20 SWAP5 DUP6 ADD SWAP5 PUSH1 0x1 SWAP1 SWAP4 ADD SWAP3 SWAP1 SWAP2 ADD SWAP1 PUSH2 0x7E7 JUMP JUMPDEST PUSH1 0x3 PUSH0 MSTORE SWAP1 SWAP2 POP PUSH32 0xC2575A0E9E593C00F959F8C92F12DB2869C3395A3B0502D05E2516446F71F85B PUSH1 0x1F DUP5 ADD PUSH1 0x5 SHR DUP2 ADD SWAP2 PUSH1 0x20 DUP6 LT PUSH2 0x8A7 JUMPI JUMPDEST SWAP1 PUSH1 0x1F DUP6 SWAP5 SWAP4 SWAP3 ADD PUSH1 0x5 SHR ADD SWAP1 JUMPDEST DUP2 DUP2 LT PUSH2 0x899 JUMPI POP PUSH2 0x183 JUMP JUMPDEST PUSH0 DUP2 SSTORE DUP5 SWAP4 POP PUSH1 0x1 ADD PUSH2 0x88C JUMP JUMPDEST SWAP1 SWAP2 POP DUP2 SWAP1 PUSH2 0x87E JUMP JUMPDEST SWAP2 PUSH1 0x7F AND SWAP2 PUSH2 0x16F JUMP JUMPDEST DUP2 MLOAD DUP2 MSTORE PUSH1 0x20 SWAP2 DUP3 ADD SWAP2 ADD PUSH2 0xEC JUMP JUMPDEST PUSH1 0x20 DUP1 SWAP2 PUSH2 0x8D8 DUP5 PUSH2 0x921 JUMP JUMPDEST DUP2 MSTORE ADD SWAP2 ADD SWAP1 PUSH2 0x8D JUMP JUMPDEST PUSH1 0x40 DUP2 ADD SWAP1 DUP2 LT PUSH1 0x1 PUSH1 0x1 PUSH1 0x40 SHL SUB DUP3 GT OR PUSH2 0x496 JUMPI PUSH1 0x40 MSTORE JUMP JUMPDEST PUSH1 0x1F SWAP1 SWAP2 ADD PUSH1 0x1F NOT AND DUP2 ADD SWAP1 PUSH1 0x1 PUSH1 0x1 PUSH1 0x40 SHL SUB DUP3 GT SWAP1 DUP3 LT OR PUSH2 0x496 JUMPI PUSH1 0x40 MSTORE JUMP JUMPDEST MLOAD SWAP1 PUSH1 0x1 PUSH1 0x1 PUSH1 0xA0 SHL SUB DUP3 AND DUP3 SUB PUSH2 0x439 JUMPI JUMP JUMPDEST PUSH1 0x1 PUSH1 0x1 PUSH1 0x40 SHL SUB DUP2 GT PUSH2 0x496 JUMPI PUSH1 0x5 SHL PUSH1 0x20 ADD SWAP1 JUMP JUMPDEST DUP1 MLOAD DUP3 LT ISZERO PUSH2 0x482 JUMPI PUSH1 0x20 SWAP2 PUSH1 0x5 SHL ADD ADD SWAP1 JUMP INVALID PUSH1 0x80 PUSH1 0x40 DUP2 DUP2 MSTORE PUSH1 0x4 SWAP2 DUP3 CALLDATASIZE LT ISZERO PUSH2 0x15 JUMPI PUSH0 DUP1 REVERT JUMPDEST PUSH0 SWAP3 PUSH0 CALLDATALOAD PUSH1 0xE0 SHR SWAP2 DUP3 PUSH4 0x1D22CCD EQ PUSH2 0x258D JUMPI POP DUP2 PUSH4 0x6FDDE03 EQ PUSH2 0x2499 JUMPI DUP2 PUSH4 0x723C999 EQ PUSH2 0x21D2 JUMPI DUP2 PUSH4 0x902F1AC EQ PUSH2 0x21A2 JUMPI DUP2 PUSH4 0x95EA7B3 EQ PUSH2 0x20FA JUMPI DUP2 PUSH4 0x9A3BBE4 EQ PUSH2 0x6EC JUMPI DUP2 PUSH4 0xD0FA029 EQ PUSH2 0x1F79 JUMPI DUP2 PUSH4 0x18160DDD EQ PUSH2 0x1F5B JUMPI DUP2 PUSH4 0x189D00CA EQ PUSH2 0x1F3D JUMPI DUP2 PUSH4 0x1A686502 EQ PUSH2 0x1F19 JUMPI DUP2 PUSH4 0x218B5382 EQ PUSH2 0xC3D JUMPI DUP2 PUSH4 0x22ACB867 EQ PUSH2 0x1EBC JUMPI DUP2 PUSH4 0x23B872DD EQ PUSH2 0x1DDB JUMPI DUP2 PUSH4 0x313CE567 EQ PUSH2 0x1DC0 JUMPI DUP2 PUSH4 0x36BF6E39 EQ PUSH2 0x1D8C JUMPI DUP2 PUSH4 0x4AA06652 EQ PUSH2 0x1CE4 JUMPI DUP2 PUSH4 0x58D19698 EQ PUSH2 0x1BA3 JUMPI DUP2 PUSH4 0x5C1BBAF7 EQ PUSH2 0x1B5C JUMPI DUP2 PUSH4 0x67A6C440 EQ PUSH2 0x1B41 JUMPI DUP2 PUSH4 0x67E4AC2C EQ PUSH2 0x1ADE JUMPI DUP2 PUSH4 0x6E81221C EQ PUSH2 0x168C JUMPI DUP2 PUSH4 0x70A08231 EQ PUSH2 0x1656 JUMPI DUP2 PUSH4 0x76C7A3C7 EQ PUSH2 0x1637 JUMPI DUP2 PUSH4 0x77AACE1A EQ PUSH2 0x160F JUMPI DUP2 PUSH4 0x7FEC8D38 EQ PUSH2 0x15F1 JUMPI DUP2 PUSH4 0x82F652AD EQ PUSH2 0x1551 JUMPI DUP2 PUSH4 0x8656B653 EQ PUSH2 0x1506 JUMPI DUP2 PUSH4 0x867378C5 EQ PUSH2 0x14E9 JUMPI DUP2 PUSH4 0x89298012 EQ PUSH2 0x13F5 JUMPI DUP2 PUSH4 0x89AB3532 EQ PUSH2 0x138B JUMPI DUP2 PUSH4 0x89AFCB44 EQ PUSH2 0xF6C JUMPI DUP2 PUSH4 0x8A77C8DC EQ PUSH2 0xF47 JUMPI DUP2 PUSH4 0x9381CD2B EQ PUSH2 0xF24 JUMPI DUP2 PUSH4 0x95D89B41 EQ PUSH2 0xE26 JUMPI DUP2 PUSH4 0x992E2A92 EQ PUSH2 0xE04 JUMPI DUP2 PUSH4 0x9A86139B EQ PUSH2 0xDE1 JUMPI DUP2 PUSH4 0xA221EE49 EQ PUSH2 0xD98 JUMPI DUP2 PUSH4 0xA9059CBB EQ PUSH2 0xD68 JUMPI DUP2 PUSH4 0xB0E0D136 EQ PUSH2 0xD4D JUMPI DUP2 PUSH4 0xB2B55D70 EQ PUSH2 0xD28 JUMPI DUP2 PUSH4 0xB7B800A4 EQ PUSH2 0xD0D JUMPI DUP2 PUSH4 0xBA019DAB EQ PUSH2 0xCF2 JUMPI DUP2 PUSH4 0xBA9530A6 EQ PUSH2 0xCA4 JUMPI DUP2 PUSH4 0xBC063E1A EQ PUSH2 0xC82 JUMPI DUP2 PUSH4 0xBC694EA2 EQ PUSH2 0xC60 JUMPI DUP2 PUSH4 0xC2EE3A08 EQ PUSH2 0xC42 JUMPI DUP2 PUSH4 0xC36596A6 EQ PUSH2 0xC3D JUMPI DUP2 PUSH4 0xC45A0155 EQ PUSH2 0xC15 JUMPI DUP2 PUSH4 0xC6580D12 EQ PUSH2 0xBFB JUMPI DUP2 PUSH4 0xCDF456E1 EQ PUSH2 0xBD3 JUMPI DUP2 PUSH4 0xCF8FA764 EQ PUSH2 0xB5B JUMPI DUP2 PUSH4 0xD14EF46D EQ PUSH2 0xB0F JUMPI DUP2 PUSH4 0xDD62ED3E EQ PUSH2 0xAC6 JUMPI DUP2 PUSH4 0xDE836EBD EQ PUSH2 0x6F1 JUMPI DUP2 PUSH4 0xE4A28A52 EQ PUSH2 0x6EC JUMPI DUP2 PUSH4 0xE73FAA2D EQ PUSH2 0x6D0 JUMPI DUP2 PUSH4 0xEC093021 EQ PUSH2 0x6AE JUMPI DUP2 PUSH4 0xF47B45E8 EQ PUSH2 0x314 JUMPI POP PUSH4 0xF8D6AED4 EQ PUSH2 0x2AB JUMPI PUSH0 DUP1 REVERT JUMPDEST CALLVALUE PUSH2 0x310 JUMPI PUSH1 0x20 SWAP1 PUSH2 0x309 PUSH2 0x2E8 PUSH2 0x304 PUSH2 0x2EE PUSH2 0x2FE PUSH2 0x2F8 PUSH2 0x2F3 PUSH2 0x2E1 PUSH2 0x2D4 CALLDATASIZE PUSH2 0x26F8 JUMP JUMPDEST SWAP10 SWAP5 SWAP12 SWAP3 SWAP4 SWAP1 SWAP6 SWAP2 PUSH2 0x2E60 JUMP JUMPDEST SWAP4 DUP3 PUSH2 0x321B JUMP JUMPDEST SWAP1 PUSH2 0x2E60 JUMP JUMPDEST PUSH2 0x2F12 JUMP JUMPDEST PUSH2 0x3212 JUMP JUMPDEST SWAP2 PUSH2 0x31C9 JUMP JUMPDEST SWAP3 PUSH2 0x31AA JUMP JUMPDEST PUSH2 0x2E60 JUMP JUMPDEST SWAP1 MLOAD SWAP1 DUP2 MSTORE RETURN JUMPDEST POP DUP1 REVERT JUMPDEST DUP3 DUP5 CALLVALUE PUSH2 0x5A9 JUMPI PUSH1 0x3 NOT PUSH0 CALLDATASIZE DUP3 ADD SLT PUSH2 0x5A9 JUMPI PUSH1 0x9 SLOAD PUSH1 0x1 PUSH1 0x1 PUSH1 0xA0 SHL SUB SWAP5 SWAP1 DUP6 AND SWAP2 PUSH2 0x342 CALLER DUP5 EQ PUSH2 0x280E JUMP JUMPDEST PUSH2 0x352 PUSH2 0x34D PUSH2 0x2AA9 JUMP JUMPDEST PUSH2 0x284B JUMP JUMPDEST PUSH1 0x6 SLOAD SWAP4 PUSH2 0x35F DUP6 PUSH2 0x28A7 JUMP JUMPDEST SWAP4 PUSH2 0x369 DUP7 PUSH2 0x28A7 JUMP JUMPDEST SWAP8 PUSH2 0x373 DUP8 PUSH2 0x28A7 JUMP JUMPDEST SWAP3 PUSH2 0x37D DUP9 PUSH2 0x28A7 JUMP JUMPDEST SWAP5 PUSH2 0x387 DUP10 PUSH2 0x28A7 JUMP JUMPDEST SWAP11 PUSH2 0x391 DUP11 PUSH2 0x28A7 JUMP JUMPDEST SWAP10 PUSH0 JUMPDEST DUP2 DUP2 LT PUSH2 0x5F5 JUMPI POP POP PUSH2 0x3A5 PUSH2 0x28ED JUMP JUMPDEST DUP5 PUSH1 0xC SLOAD AND SWAP2 PUSH1 0x7 SLOAD DUP7 PUSH1 0xB SLOAD AND DUP5 EXTCODESIZE ISZERO PUSH2 0x5A9 JUMPI DUP15 MLOAD PUSH4 0x3C2FDDC5 PUSH1 0xE2 SHL DUP2 MSTORE PUSH1 0xE0 DUP2 DUP15 ADD MSTORE DUP14 SWAP10 SWAP1 SWAP7 DUP8 SWAP6 DUP7 SWAP6 SWAP2 SWAP1 PUSH2 0x3E4 SWAP1 PUSH1 0xE4 DUP9 ADD SWAP1 PUSH2 0x2606 JUMP JUMPDEST SWAP12 PUSH1 0x24 SWAP13 DUP3 DUP9 DUP3 SUB ADD PUSH1 0x24 DUP10 ADD MSTORE PUSH2 0x3FB SWAP2 PUSH2 0x271E JUMP JUMPDEST SWAP1 DUP7 DUP3 SUB ADD PUSH1 0x44 DUP8 ADD MSTORE PUSH2 0x40E SWAP2 PUSH2 0x2606 JUMP JUMPDEST SWAP3 PUSH1 0x64 DUP6 ADD MSTORE DUP1 PUSH1 0x84 DUP6 ADD MSTORE PUSH1 0xA4 DUP5 ADD MSTORE PUSH1 0xC4 DUP4 ADD MSTORE SUB DUP2 GAS PUSH0 SWAP5 DUP6 SWAP2 CALL DUP1 ISZERO PUSH2 0x5EB JUMPI PUSH2 0x5BE JUMPI JUMPDEST POP PUSH1 0x6 SLOAD PUSH1 0x9 SLOAD SWAP1 SWAP7 SWAP1 DUP4 AND SWAP3 DUP3 JUMPDEST DUP9 DUP2 LT PUSH2 0x4B3 JUMPI DUP13 DUP13 PUSH2 0x4AF DUP14 DUP14 PUSH32 0x279B343370F587AF7FB675AE7C8578E9C8ABCC373236AD02C501A4771FE7A7B8 DUP5 MLOAD PUSH1 0x20 DUP2 MSTORE DUP1 PUSH2 0x48B CALLER SWAP5 PUSH1 0x20 DUP4 ADD SWAP1 PUSH2 0x271E JUMP JUMPDEST SUB SWAP1 LOG2 PUSH2 0x4A1 DUP4 MLOAD SWAP5 DUP5 DUP7 SWAP6 DUP7 MSTORE DUP6 ADD SWAP1 PUSH2 0x2606 JUMP JUMPDEST SWAP1 DUP4 DUP3 SUB PUSH1 0x20 DUP6 ADD MSTORE PUSH2 0x2606 JUMP JUMPDEST SUB SWAP1 RETURN JUMPDEST DUP2 PUSH2 0x4BE DUP3 DUP13 PUSH2 0x28D9 JUMP JUMPDEST MLOAD AND DUP13 MLOAD DUP1 SWAP2 PUSH4 0x70A08231 PUSH1 0xE0 SHL DUP3 MSTORE DUP8 DUP7 DUP4 ADD MSTORE DUP2 DUP10 PUSH1 0x20 SWAP5 DUP6 SWAP4 GAS STATICCALL SWAP2 DUP3 ISZERO PUSH2 0x5B4 JUMPI DUP16 SWAP1 DUP11 SWAP5 SWAP4 DUP16 SWAP2 SWAP4 DUP14 SWAP5 DUP11 SWAP3 PUSH2 0x573 JUMPI JUMPDEST POP POP SWAP5 DUP5 SWAP2 PUSH1 0x1 SWAP7 PUSH2 0x506 DUP5 DUP8 PUSH2 0x28D9 JUMP JUMPDEST MSTORE PUSH2 0x511 DUP4 DUP7 PUSH2 0x28D9 JUMP JUMPDEST MLOAD PUSH2 0x51C DUP5 DUP5 PUSH2 0x28D9 JUMP JUMPDEST MLOAD LT ISZERO PUSH2 0x556 JUMPI POP PUSH2 0x548 SWAP1 PUSH2 0x541 DUP4 PUSH2 0x53A DUP2 PUSH2 0x54E SWAP8 SWAP9 PUSH2 0x28D9 JUMP JUMPDEST MLOAD SWAP3 PUSH2 0x28D9 JUMP JUMPDEST MLOAD SWAP1 PUSH2 0x2767 JUMP JUMPDEST SWAP3 PUSH2 0x28D9 JUMP JUMPDEST MSTORE JUMPDEST ADD PUSH2 0x446 JUMP JUMPDEST SWAP4 PUSH2 0x56D SWAP4 POP PUSH2 0x541 DUP4 PUSH2 0x53A DUP2 PUSH2 0x548 SWAP6 PUSH2 0x28D9 JUMP JUMPDEST MSTORE PUSH2 0x550 JUMP JUMPDEST SWAP5 POP SWAP6 POP POP POP POP DUP3 DUP2 RETURNDATASIZE DUP4 GT PUSH2 0x5AD JUMPI JUMPDEST PUSH2 0x58E DUP2 DUP4 PUSH2 0x27C0 JUMP JUMPDEST DUP2 ADD SUB SLT PUSH2 0x5A9 JUMPI DUP9 DUP15 DUP3 DUP11 DUP16 PUSH1 0x1 SWAP7 MLOAD SWAP2 SWAP7 DUP2 SWAP4 POP PUSH2 0x4F4 JUMP JUMPDEST PUSH0 DUP1 REVERT JUMPDEST POP RETURNDATASIZE PUSH2 0x584 JUMP JUMPDEST DUP15 MLOAD RETURNDATASIZE DUP9 DUP3 RETURNDATACOPY RETURNDATASIZE SWAP1 REVERT JUMPDEST SWAP1 POP PUSH8 0xFFFFFFFFFFFFFFFF DUP2 GT PUSH2 0x5D8 JUMPI DUP9 MSTORE PUSH0 DUP11 PUSH2 0x437 JUMP JUMPDEST PUSH1 0x41 DUP7 PUSH4 0x4E487B71 PUSH1 0xE0 SHL PUSH0 MSTORE MSTORE PUSH1 0x24 PUSH0 REVERT JUMPDEST DUP11 MLOAD RETURNDATASIZE PUSH0 DUP3 RETURNDATACOPY RETURNDATASIZE SWAP1 REVERT JUMPDEST DUP6 PUSH2 0x5FF DUP3 PUSH2 0x2774 JUMP JUMPDEST POP SLOAD AND PUSH2 0x60C DUP3 DUP14 PUSH2 0x28D9 JUMP JUMPDEST MSTORE PUSH1 0x1 PUSH2 0x618 DUP3 PUSH2 0x2774 JUMP JUMPDEST POP ADD SLOAD PUSH2 0x625 DUP3 DUP6 PUSH2 0x28D9 JUMP JUMPDEST MSTORE DUP6 PUSH2 0x631 DUP3 DUP14 PUSH2 0x28D9 JUMP JUMPDEST MLOAD AND SWAP1 DUP14 MLOAD DUP1 SWAP3 PUSH4 0x70A08231 PUSH1 0xE0 SHL DUP3 MSTORE DUP10 DUP14 DUP4 ADD MSTORE DUP2 PUSH1 0x24 PUSH1 0x20 SWAP4 DUP5 SWAP4 GAS STATICCALL SWAP1 DUP2 ISZERO PUSH2 0x6A4 JUMPI PUSH0 SWAP2 PUSH2 0x675 JUMPI JUMPDEST POP PUSH1 0x1 SWAP3 POP PUSH2 0x66E DUP3 DUP12 PUSH2 0x28D9 JUMP JUMPDEST MSTORE ADD PUSH2 0x394 JUMP JUMPDEST SWAP1 POP DUP3 DUP2 RETURNDATASIZE DUP4 GT PUSH2 0x69D JUMPI JUMPDEST PUSH2 0x68B DUP2 DUP4 PUSH2 0x27C0 JUMP JUMPDEST DUP2 ADD SUB SLT PUSH2 0x5A9 JUMPI PUSH1 0x1 SWAP2 MLOAD PUSH0 PUSH2 0x65F JUMP JUMPDEST POP RETURNDATASIZE PUSH2 0x681 JUMP JUMPDEST DUP16 MLOAD RETURNDATASIZE PUSH0 DUP3 RETURNDATACOPY RETURNDATASIZE SWAP1 REVERT JUMPDEST DUP3 CALLVALUE PUSH2 0x5A9 JUMPI PUSH0 CALLDATASIZE PUSH1 0x3 NOT ADD SLT PUSH2 0x5A9 JUMPI PUSH1 0x20 SWAP1 MLOAD PUSH8 0x6F05B59D3B20000 DUP2 MSTORE RETURN JUMPDEST DUP3 CALLVALUE PUSH2 0x5A9 JUMPI PUSH0 CALLDATASIZE PUSH1 0x3 NOT ADD SLT PUSH2 0x5A9 JUMPI PUSH1 0x20 SWAP1 PUSH2 0x309 PUSH2 0x2B77 JUMP JUMPDEST PUSH2 0x2660 JUMP JUMPDEST DUP3 CALLVALUE PUSH2 0x5A9 JUMPI DUP1 PUSH1 0x3 NOT CALLDATASIZE ADD SLT PUSH2 0x5A9 JUMPI PUSH2 0x70A PUSH2 0x25DA JUMP JUMPDEST SWAP1 PUSH1 0x24 SWAP2 DUP3 CALLDATALOAD SWAP4 PUSH8 0xFFFFFFFFFFFFFFFF DUP6 GT PUSH2 0x5A9 JUMPI CALLDATASIZE PUSH1 0x23 DUP7 ADD SLT ISZERO PUSH2 0x5A9 JUMPI DUP5 DUP2 ADD CALLDATALOAD SWAP4 PUSH2 0x739 DUP6 PUSH2 0x27F6 JUMP JUMPDEST SWAP5 PUSH2 0x746 DUP6 MLOAD SWAP7 DUP8 PUSH2 0x27C0 JUMP JUMPDEST DUP1 DUP7 MSTORE PUSH1 0x20 SWAP7 DUP3 DUP9 DUP9 ADD SWAP3 PUSH1 0x5 SHL DUP3 ADD ADD SWAP2 CALLDATASIZE DUP4 GT PUSH2 0x5A9 JUMPI DUP4 DUP10 SWAP3 ADD SWAP1 JUMPDEST DUP4 DUP3 LT PUSH2 0xAB7 JUMPI POP POP PUSH1 0x9 SLOAD PUSH1 0x1 PUSH1 0x1 PUSH1 0xA0 SHL SUB SWAP8 SWAP3 POP PUSH2 0x78A SWAP2 POP DUP8 AND CALLER EQ PUSH2 0x280E JUMP JUMPDEST PUSH1 0x2 SLOAD SWAP1 PUSH0 SWAP1 PUSH2 0x798 PUSH2 0x28ED JUMP JUMPDEST SWAP1 PUSH1 0x6 SLOAD SWAP2 MLOAD DUP3 SUB PUSH2 0xA75 JUMPI DUP2 ISZERO PUSH2 0xA47 JUMPI SWAP1 PUSH0 SWAP2 JUMPDEST DUP2 DUP4 LT PUSH2 0xA0E JUMPI POP POP POP DUP1 ISZERO PUSH2 0x9C1 JUMPI DUP4 DUP9 DUP9 PUSH1 0xB SLOAD AND DUP9 MLOAD SWAP3 DUP4 DUP1 SWAP3 PUSH4 0x313CE567 PUSH1 0xE0 SHL DUP3 MSTORE GAS STATICCALL SWAP1 DUP2 ISZERO PUSH2 0x9B7 JUMPI SWAP1 PUSH1 0xFF SWAP2 PUSH0 SWAP2 PUSH2 0x98A JUMPI JUMPDEST POP AND SWAP2 DUP1 PUSH2 0x8EC JUMPI POP PUSH8 0xDE0B6B3A7640000 DUP1 DUP3 MUL SWAP2 DUP3 DIV SUB PUSH2 0x8DA JUMPI SWAP1 PUSH2 0x810 SWAP2 PUSH2 0x2767 JUMP JUMPDEST SWAP5 JUMPDEST DUP6 ISZERO PUSH2 0x8A8 JUMPI PUSH2 0x843 DUP7 SWAP2 CALLER PUSH0 MSTORE PUSH0 DUP10 MSTORE DUP7 PUSH0 KECCAK256 SLOAD SWAP6 PUSH2 0x832 DUP5 DUP3 PUSH2 0x2C36 JUMP JUMPDEST AND SWAP5 DUP6 PUSH0 MSTORE PUSH0 DUP10 MSTORE DUP7 PUSH0 KECCAK256 SLOAD PUSH2 0x2767 JUMP JUMPDEST SUB PUSH2 0x878 JUMPI POP POP PUSH32 0xF6798A560793A54C3BCFE86A93CDE1E73087D944C0EA20544137D4121396885 DUP5 DUP4 MLOAD DUP6 DUP2 MSTORE LOG2 MLOAD SWAP1 DUP2 MSTORE RETURN JUMPDEST DUP4 MLOAD PUSH3 0x461BCD PUSH1 0xE5 SHL DUP2 MSTORE SWAP2 DUP3 ADD DUP7 SWAP1 MSTORE PUSH1 0xB SWAP1 DUP3 ADD MSTORE PUSH11 0x135A5B9D0811985A5B1959 PUSH1 0xAA SHL PUSH1 0x44 DUP3 ADD MSTORE PUSH1 0x64 SWAP1 REVERT JUMPDEST DUP5 MLOAD PUSH3 0x461BCD PUSH1 0xE5 SHL DUP2 MSTORE DUP1 DUP5 ADD DUP9 SWAP1 MSTORE PUSH1 0xD DUP2 DUP5 ADD MSTORE PUSH13 0x4D696E7420717479206973203 PUSH1 0x9C SHL PUSH1 0x44 DUP3 ADD MSTORE PUSH1 0x64 SWAP1 REVERT JUMPDEST DUP3 PUSH1 0x11 DUP6 PUSH4 0x4E487B71 PUSH1 0xE0 SHL PUSH0 MSTORE MSTORE PUSH0 REVERT JUMPDEST PUSH2 0x8F4 PUSH2 0x2BA2 JUMP JUMPDEST POP SWAP2 DUP3 ISZERO PUSH2 0x939 JUMPI PUSH2 0x90F SWAP3 SWAP2 PUSH2 0x90A SWAP2 PUSH2 0x2639 JUMP JUMPDEST PUSH2 0x2683 JUMP JUMPDEST PUSH8 0xDE0B6B3A7640000 SWAP1 DUP2 DUP2 MUL SWAP2 DUP2 DUP4 DIV EQ SWAP1 ISZERO OR ISZERO PUSH2 0x8DA JUMPI SWAP1 PUSH2 0x933 SWAP2 PUSH2 0x2767 JUMP JUMPDEST SWAP5 PUSH2 0x812 JUMP JUMPDEST DUP8 MLOAD PUSH3 0x461BCD PUSH1 0xE5 SHL DUP2 MSTORE DUP1 DUP8 ADD DUP12 SWAP1 MSTORE PUSH1 0x26 DUP2 DUP8 ADD MSTORE PUSH32 0x546F74616C206C6971756964697479206D757374206265206772656174657220 PUSH1 0x44 DUP3 ADD MSTORE PUSH6 0x7468616E203 PUSH1 0xD4 SHL PUSH1 0x64 DUP3 ADD MSTORE PUSH1 0x84 SWAP1 REVERT JUMPDEST PUSH2 0x9AA SWAP2 POP DUP11 RETURNDATASIZE DUP13 GT PUSH2 0x9B0 JUMPI JUMPDEST PUSH2 0x9A2 DUP2 DUP4 PUSH2 0x27C0 JUMP JUMPDEST DUP2 ADD SWAP1 PUSH2 0x288E JUMP JUMPDEST DUP11 PUSH2 0x7E9 JUMP JUMPDEST POP RETURNDATASIZE PUSH2 0x998 JUMP JUMPDEST DUP8 MLOAD RETURNDATASIZE PUSH0 DUP3 RETURNDATACOPY RETURNDATASIZE SWAP1 REVERT JUMPDEST DUP6 MLOAD PUSH3 0x461BCD PUSH1 0xE5 SHL DUP2 MSTORE DUP1 DUP6 ADD DUP10 SWAP1 MSTORE PUSH1 0x22 DUP2 DUP6 ADD MSTORE PUSH32 0x546F74616C2076616C7565206D7573742062652067726561746572207468616E PUSH1 0x44 DUP3 ADD MSTORE PUSH2 0x203 PUSH1 0xF4 SHL PUSH1 0x64 DUP3 ADD MSTORE PUSH1 0x84 SWAP1 REVERT JUMPDEST SWAP1 SWAP2 SWAP3 PUSH2 0xA3E PUSH1 0x1 SWAP2 PUSH2 0xA38 DUP13 PUSH2 0xA24 DUP9 PUSH2 0x2774 JUMP JUMPDEST POP SLOAD AND PUSH2 0xA31 DUP9 DUP8 PUSH2 0x28D9 JUMP JUMPDEST MLOAD SWAP1 PUSH2 0x3263 JUMP JUMPDEST SWAP1 PUSH2 0x275A JUMP JUMPDEST SWAP4 ADD SWAP2 SWAP1 PUSH2 0x7AE JUMP JUMPDEST DUP8 MLOAD PUSH3 0x461BCD PUSH1 0xE5 SHL DUP2 MSTORE DUP1 DUP8 ADD DUP12 SWAP1 MSTORE PUSH1 0x9 DUP2 DUP8 ADD MSTORE PUSH9 0x4E6F20617373657473 PUSH1 0xB8 SHL PUSH1 0x44 DUP3 ADD MSTORE PUSH1 0x64 SWAP1 REVERT JUMPDEST DUP8 MLOAD PUSH3 0x461BCD PUSH1 0xE5 SHL DUP2 MSTORE DUP1 DUP8 ADD DUP12 SWAP1 MSTORE PUSH1 0x17 DUP2 DUP8 ADD MSTORE PUSH32 0x496E76616C6964207265736572766573206C656E677468000000000000000000 PUSH1 0x44 DUP3 ADD MSTORE PUSH1 0x64 SWAP1 REVERT JUMPDEST DUP2 CALLDATALOAD DUP2 MSTORE SWAP1 DUP3 ADD SWAP1 DUP3 ADD PUSH2 0x765 JUMP JUMPDEST DUP3 CALLVALUE PUSH2 0x5A9 JUMPI DUP1 PUSH1 0x3 NOT CALLDATASIZE ADD SLT PUSH2 0x5A9 JUMPI PUSH1 0x20 SWAP1 PUSH2 0xAE2 PUSH2 0x25DA JUMP JUMPDEST PUSH2 0xAEA PUSH2 0x25F0 JUMP JUMPDEST SWAP1 PUSH1 0x1 DUP1 PUSH1 0xA0 SHL SUB DUP1 SWAP2 AND PUSH0 MSTORE PUSH1 0x1 DUP5 MSTORE DUP3 PUSH0 KECCAK256 SWAP2 AND PUSH0 MSTORE DUP3 MSTORE DUP1 PUSH0 KECCAK256 SLOAD SWAP1 MLOAD SWAP1 DUP2 MSTORE RETURN JUMPDEST SWAP1 POP CALLVALUE PUSH2 0x5A9 JUMPI PUSH1 0x20 CALLDATASIZE PUSH1 0x3 NOT ADD SLT PUSH2 0x5A9 JUMPI CALLDATALOAD PUSH1 0x6 SLOAD DUP2 LT ISZERO PUSH2 0x5A9 JUMPI PUSH2 0xB36 SWAP1 PUSH2 0x2774 JUMP JUMPDEST POP DUP1 SLOAD PUSH1 0x1 SWAP1 SWAP2 ADD SLOAD SWAP2 MLOAD PUSH1 0x1 PUSH1 0x1 PUSH1 0xA0 SHL SUB SWAP1 SWAP2 AND DUP2 MSTORE PUSH1 0x20 DUP2 ADD SWAP2 SWAP1 SWAP2 MSTORE PUSH1 0x40 SWAP1 RETURN JUMPDEST SWAP1 POP CALLVALUE PUSH2 0x5A9 JUMPI PUSH1 0x20 CALLDATASIZE PUSH1 0x3 NOT ADD SLT PUSH2 0x5A9 JUMPI DUP1 CALLDATALOAD SWAP1 PUSH2 0xB79 PUSH2 0x2BA2 JUMP JUMPDEST DUP1 SWAP3 SWAP2 POP MLOAD DUP4 LT ISZERO PUSH2 0xB9A JUMPI PUSH1 0x20 DUP5 PUSH2 0xB92 DUP6 DUP6 PUSH2 0x28D9 JUMP JUMPDEST MLOAD SWAP1 MLOAD SWAP1 DUP2 MSTORE RETURN JUMPDEST PUSH1 0x64 SWAP1 PUSH1 0x20 DUP6 MLOAD SWAP2 PUSH3 0x461BCD PUSH1 0xE5 SHL DUP4 MSTORE DUP3 ADD MSTORE PUSH1 0x13 PUSH1 0x24 DUP3 ADD MSTORE PUSH19 0x92DCECC2D8D2C840C2E6E6CAE840D2DCC8CAF PUSH1 0x6B SHL PUSH1 0x44 DUP3 ADD MSTORE REVERT JUMPDEST DUP3 CALLVALUE PUSH2 0x5A9 JUMPI PUSH0 CALLDATASIZE PUSH1 0x3 NOT ADD SLT PUSH2 0x5A9 JUMPI PUSH1 0xB SLOAD SWAP1 MLOAD PUSH1 0x1 PUSH1 0x1 PUSH1 0xA0 SHL SUB SWAP1 SWAP2 AND DUP2 MSTORE PUSH1 0x20 SWAP1 RETURN JUMPDEST DUP3 CALLVALUE PUSH2 0x5A9 JUMPI PUSH0 CALLDATASIZE PUSH1 0x3 NOT ADD SLT PUSH2 0x5A9 JUMPI PUSH1 0x20 SWAP1 MLOAD PUSH0 DUP2 MSTORE RETURN JUMPDEST DUP3 CALLVALUE PUSH2 0x5A9 JUMPI PUSH0 CALLDATASIZE PUSH1 0x3 NOT ADD SLT PUSH2 0x5A9 JUMPI PUSH1 0xA SLOAD SWAP1 MLOAD PUSH1 0x1 PUSH1 0x1 PUSH1 0xA0 SHL SUB SWAP1 SWAP2 AND DUP2 MSTORE PUSH1 0x20 SWAP1 RETURN JUMPDEST PUSH2 0x26A1 JUMP JUMPDEST DUP3 CALLVALUE PUSH2 0x5A9 JUMPI PUSH0 CALLDATASIZE PUSH1 0x3 NOT ADD SLT PUSH2 0x5A9 JUMPI PUSH1 0x20 SWAP1 PUSH1 0x8 SLOAD SWAP1 MLOAD SWAP1 DUP2 MSTORE RETURN JUMPDEST DUP3 CALLVALUE PUSH2 0x5A9 JUMPI PUSH0 CALLDATASIZE PUSH1 0x3 NOT ADD SLT PUSH2 0x5A9 JUMPI PUSH1 0x20 SWAP1 MLOAD PUSH8 0x1BC16D674EC7FFFF DUP2 MSTORE RETURN JUMPDEST DUP3 CALLVALUE PUSH2 0x5A9 JUMPI PUSH0 CALLDATASIZE PUSH1 0x3 NOT ADD SLT PUSH2 0x5A9 JUMPI PUSH1 0x20 SWAP1 MLOAD PUSH8 0x16345785D8A0000 DUP2 MSTORE RETURN JUMPDEST DUP3 CALLVALUE PUSH2 0x5A9 JUMPI PUSH1 0x20 SWAP1 PUSH2 0x309 PUSH2 0xCDB PUSH2 0xCE1 PUSH2 0xCED PUSH2 0xCE7 PUSH2 0x2EE PUSH2 0xCE1 PUSH2 0x2E8 PUSH2 0xCCE CALLDATASIZE PUSH2 0x26F8 JUMP JUMPDEST SWAP9 SWAP5 SWAP7 SWAP3 SWAP12 SWAP2 SWAP1 SWAP4 PUSH2 0x2E60 JUMP JUMPDEST SWAP7 PUSH2 0x31C9 JUMP JUMPDEST SWAP1 PUSH2 0x31AA JUMP JUMPDEST DUP3 PUSH2 0x2EC5 JUMP JUMPDEST PUSH2 0x31C9 JUMP JUMPDEST DUP3 CALLVALUE PUSH2 0x5A9 JUMPI PUSH0 CALLDATASIZE PUSH1 0x3 NOT ADD SLT PUSH2 0x5A9 JUMPI PUSH1 0x20 SWAP1 MLOAD PUSH1 0x1 DUP2 MSTORE RETURN JUMPDEST DUP3 CALLVALUE PUSH2 0x5A9 JUMPI PUSH0 CALLDATASIZE PUSH1 0x3 NOT ADD SLT PUSH2 0x5A9 JUMPI PUSH1 0x20 SWAP1 MLOAD PUSH1 0x2 DUP2 MSTORE RETURN JUMPDEST DUP3 CALLVALUE PUSH2 0x5A9 JUMPI PUSH1 0x20 CALLDATASIZE PUSH1 0x3 NOT ADD SLT PUSH2 0x5A9 JUMPI PUSH1 0x20 SWAP1 PUSH2 0x309 PUSH2 0xD48 PUSH2 0x25DA JUMP JUMPDEST PUSH2 0x2AFF JUMP JUMPDEST DUP3 CALLVALUE PUSH2 0x5A9 JUMPI PUSH0 CALLDATASIZE PUSH1 0x3 NOT ADD SLT PUSH2 0x5A9 JUMPI PUSH1 0x20 SWAP1 MLOAD PUSH1 0x8 DUP2 MSTORE RETURN JUMPDEST DUP3 CALLVALUE PUSH2 0x5A9 JUMPI DUP1 PUSH1 0x3 NOT CALLDATASIZE ADD SLT PUSH2 0x5A9 JUMPI PUSH1 0x20 SWAP1 PUSH2 0xD91 PUSH2 0xD87 PUSH2 0x25DA JUMP JUMPDEST PUSH1 0x24 CALLDATALOAD SWAP1 CALLER PUSH2 0x2CF8 JUMP JUMPDEST MLOAD PUSH1 0x1 DUP2 MSTORE RETURN JUMPDEST DUP3 CALLVALUE PUSH2 0x5A9 JUMPI PUSH1 0xA0 CALLDATASIZE PUSH1 0x3 NOT ADD SLT PUSH2 0x5A9 JUMPI PUSH2 0x309 PUSH2 0xDCE PUSH2 0xDC0 PUSH1 0x20 SWAP5 PUSH1 0x24 CALLDATALOAD SWAP1 CALLDATALOAD PUSH2 0x2E60 JUMP JUMPDEST PUSH2 0x2E8 PUSH1 0x64 CALLDATALOAD PUSH1 0x44 CALLDATALOAD PUSH2 0x2E60 JUMP JUMPDEST PUSH2 0xCE1 PUSH2 0xDDC PUSH1 0x84 CALLDATALOAD PUSH2 0x31C9 JUMP JUMPDEST PUSH2 0x2DF9 JUMP JUMPDEST DUP3 CALLVALUE PUSH2 0x5A9 JUMPI PUSH0 CALLDATASIZE PUSH1 0x3 NOT ADD SLT PUSH2 0x5A9 JUMPI MLOAD PUSH6 0x42524F4E5A45 PUSH1 0xD0 SHL DUP2 MSTORE PUSH1 0x20 SWAP1 RETURN JUMPDEST DUP3 CALLVALUE PUSH2 0x5A9 JUMPI PUSH0 CALLDATASIZE PUSH1 0x3 NOT ADD SLT PUSH2 0x5A9 JUMPI PUSH1 0x20 SWAP1 MLOAD PUSH8 0x4A03CE68D215556 DUP2 MSTORE RETURN JUMPDEST DUP3 CALLVALUE PUSH2 0x5A9 JUMPI PUSH0 CALLDATASIZE PUSH1 0x3 NOT ADD SLT PUSH2 0x5A9 JUMPI DUP1 MLOAD SWAP1 PUSH0 SWAP3 DUP1 SLOAD SWAP1 PUSH1 0x1 DUP3 PUSH1 0x1 SHR SWAP2 PUSH1 0x1 DUP5 AND SWAP4 DUP5 ISZERO PUSH2 0xF1A JUMPI JUMPDEST PUSH1 0x20 SWAP5 DUP6 DUP6 LT DUP2 EQ PUSH2 0xF07 JUMPI DUP5 DUP9 MSTORE SWAP1 DUP2 ISZERO PUSH2 0xEE5 JUMPI POP PUSH1 0x1 EQ PUSH2 0xE8C JUMPI JUMPDEST PUSH2 0x4AF DUP7 DUP7 PUSH2 0xE82 DUP3 DUP12 SUB DUP4 PUSH2 0x27C0 JUMP JUMPDEST MLOAD SWAP2 DUP3 SWAP2 DUP3 PUSH2 0x25B0 JUMP JUMPDEST PUSH0 SWAP1 DUP2 MSTORE SWAP3 SWAP6 POP PUSH32 0x8A35ACFBC15FF81A39AE7D344FD709F28E8600B4AA8C65C6B64BFE7FE36BD19B JUMPDEST DUP3 DUP5 LT PUSH2 0xED2 JUMPI POP POP POP DUP3 PUSH2 0x4AF SWAP5 PUSH2 0xE82 SWAP3 DUP3 ADD ADD SWAP5 DUP7 PUSH2 0xE71 JUMP JUMPDEST DUP1 SLOAD DUP7 DUP6 ADD DUP9 ADD MSTORE SWAP3 DUP7 ADD SWAP3 DUP2 ADD PUSH2 0xEB5 JUMP JUMPDEST PUSH1 0xFF NOT AND DUP8 DUP7 ADD MSTORE POP POP POP ISZERO ISZERO PUSH1 0x5 SHL DUP4 ADD ADD SWAP3 POP PUSH2 0xE82 DUP3 PUSH2 0x4AF DUP7 PUSH2 0xE71 JUMP JUMPDEST PUSH1 0x22 DUP4 PUSH4 0x4E487B71 PUSH1 0xE0 SHL PUSH0 MSTORE MSTORE PUSH1 0x24 PUSH0 REVERT JUMPDEST SWAP3 PUSH1 0x7F AND SWAP3 PUSH2 0xE52 JUMP JUMPDEST DUP3 CALLVALUE PUSH2 0x5A9 JUMPI PUSH0 CALLDATASIZE PUSH1 0x3 NOT ADD SLT PUSH2 0x5A9 JUMPI PUSH1 0x20 SWAP1 MLOAD PUSH9 0x56BC75E2D63100000 DUP2 MSTORE RETURN JUMPDEST DUP3 CALLVALUE PUSH2 0x5A9 JUMPI PUSH0 CALLDATASIZE PUSH1 0x3 NOT ADD SLT PUSH2 0x5A9 JUMPI PUSH1 0x20 SWAP1 PUSH2 0xF63 PUSH2 0x2AA9 JUMP JUMPDEST SWAP1 MLOAD SWAP1 ISZERO ISZERO DUP2 MSTORE RETURN JUMPDEST DUP3 CALLVALUE PUSH2 0x5A9 JUMPI PUSH1 0x20 SWAP1 DUP2 PUSH1 0x3 NOT CALLDATASIZE ADD SLT PUSH2 0x5A9 JUMPI PUSH2 0xF88 PUSH2 0x25DA JUMP JUMPDEST PUSH1 0x9 SLOAD PUSH1 0x1 PUSH1 0x1 PUSH1 0xA0 SHL SUB SWAP1 DUP2 AND SWAP2 PUSH2 0xFA2 CALLER DUP5 EQ PUSH2 0x280E JUMP JUMPDEST ADDRESS PUSH0 MSTORE PUSH0 DUP6 MSTORE DUP4 PUSH0 KECCAK256 SLOAD SWAP6 DUP7 ISZERO PUSH2 0x1348 JUMPI PUSH1 0x2 SLOAD SWAP7 DUP8 ISZERO PUSH2 0x1316 JUMPI PUSH1 0x6 SLOAD PUSH2 0xFC9 DUP2 PUSH2 0x28A7 JUMP JUMPDEST SWAP9 PUSH1 0x1E DUP4 MUL DUP4 DUP2 DIV PUSH1 0x1E SUB PUSH2 0x1303 JUMPI PUSH2 0x2710 PUSH2 0xFE7 SWAP2 DIV DUP1 SWAP5 PUSH2 0x2767 JUMP JUMPDEST SWAP7 PUSH0 JUMPDEST DUP4 DUP2 LT PUSH2 0x1248 JUMPI POP POP POP POP ADDRESS PUSH0 MSTORE PUSH0 DUP8 MSTORE DUP5 DUP7 PUSH0 KECCAK256 SLOAD LT PUSH2 0x1205 JUMPI DUP2 DUP8 DUP6 PUSH1 0xC SLOAD AND DUP9 MLOAD SWAP3 DUP4 DUP1 SWAP3 PUSH4 0x61D027B3 PUSH1 0xE0 SHL DUP3 MSTORE GAS STATICCALL SWAP1 DUP2 ISZERO PUSH2 0x9B7 JUMPI SWAP1 DUP9 SWAP2 PUSH0 SWAP2 PUSH2 0x11CB JUMPI JUMPDEST POP DUP8 MLOAD PUSH4 0xA9059CBB PUSH1 0xE0 SHL DUP2 MSTORE PUSH1 0x1 PUSH1 0x1 PUSH1 0xA0 SHL SUB SWAP1 SWAP2 AND DUP5 DUP3 ADD SWAP1 DUP2 MSTORE PUSH1 0x20 DUP2 ADD SWAP4 SWAP1 SWAP4 MSTORE SWAP2 DUP3 SWAP1 DUP2 SWAP1 PUSH1 0x40 ADD JUMPDEST SUB DUP2 PUSH0 ADDRESS GAS CALL SWAP1 DUP2 ISZERO PUSH2 0x11C1 JUMPI PUSH0 SWAP2 PUSH2 0x118B JUMPI JUMPDEST POP ISZERO PUSH2 0x1152 JUMPI ADDRESS ISZERO PUSH2 0x113C JUMPI ADDRESS PUSH0 MSTORE PUSH0 DUP7 MSTORE DUP5 PUSH0 KECCAK256 SLOAD SWAP1 DUP5 DUP3 LT PUSH2 0x1111 JUMPI POP DUP4 SWAP3 PUSH32 0xCC16F5DBB4873280815C1EE09DBD06736CFFCC184412CF7A71A0FDB75D397CA5 SWAP3 PUSH2 0x4AF SWAP7 SWAP6 DUP9 SWAP4 ADDRESS PUSH0 MSTORE PUSH0 DUP6 MSTORE SUB DUP7 PUSH0 KECCAK256 SSTORE DUP5 PUSH1 0x2 SLOAD SUB PUSH1 0x2 SSTORE PUSH0 DUP7 MLOAD DUP7 DUP2 MSTORE PUSH32 0xDDF252AD1BE2C89B69C2B068FC378DAA952BA7F163C4A11628F55A4DF523B3EF DUP6 ADDRESS SWAP3 LOG3 DUP6 MLOAD SWAP5 DUP6 MSTORE AND SWAP3 LOG2 MLOAD SWAP3 DUP3 DUP5 SWAP4 DUP5 MSTORE DUP4 ADD SWAP1 PUSH2 0x2606 JUMP JUMPDEST DUP6 MLOAD PUSH4 0x391434E3 PUSH1 0xE2 SHL DUP2 MSTORE ADDRESS SWAP2 DUP2 ADD SWAP2 DUP3 MSTORE PUSH1 0x20 DUP3 ADD SWAP3 SWAP1 SWAP3 MSTORE PUSH1 0x40 DUP2 ADD DUP6 SWAP1 MSTORE DUP2 SWAP1 PUSH1 0x60 ADD SUB SWAP1 REVERT JUMPDEST PUSH1 0x24 SWAP1 PUSH0 DUP7 MLOAD SWAP2 PUSH4 0x4B637E8F PUSH1 0xE1 SHL DUP4 MSTORE DUP3 ADD MSTORE REVERT JUMPDEST DUP5 MLOAD PUSH3 0x461BCD PUSH1 0xE5 SHL DUP2 MSTORE SWAP1 DUP2 ADD DUP7 SWAP1 MSTORE PUSH1 0x13 PUSH1 0x24 DUP3 ADD MSTORE PUSH19 0x119959481D1C985B9CD9995C8819985A5B1959 PUSH1 0x6A SHL PUSH1 0x44 DUP3 ADD MSTORE PUSH1 0x64 SWAP1 REVERT JUMPDEST SWAP1 POP DUP7 DUP2 DUP2 RETURNDATASIZE DUP4 GT PUSH2 0x11BA JUMPI JUMPDEST PUSH2 0x11A2 DUP2 DUP4 PUSH2 0x27C0 JUMP JUMPDEST DUP2 ADD SUB SLT PUSH2 0x5A9 JUMPI MLOAD DUP1 ISZERO ISZERO DUP2 SUB PUSH2 0x5A9 JUMPI DUP9 PUSH2 0x1072 JUMP JUMPDEST POP RETURNDATASIZE PUSH2 0x1198 JUMP JUMPDEST DUP7 MLOAD RETURNDATASIZE PUSH0 DUP3 RETURNDATACOPY RETURNDATASIZE SWAP1 REVERT JUMPDEST DUP3 DUP2 SWAP4 SWAP3 POP RETURNDATASIZE DUP4 GT PUSH2 0x11FE JUMPI JUMPDEST PUSH2 0x11E2 DUP2 DUP4 PUSH2 0x27C0 JUMP JUMPDEST DUP2 ADD SUB SLT PUSH2 0x5A9 JUMPI MLOAD DUP5 DUP2 AND DUP2 SUB PUSH2 0x5A9 JUMPI DUP8 SWAP1 PUSH2 0x105E PUSH2 0x102F JUMP JUMPDEST POP RETURNDATASIZE PUSH2 0x11D8 JUMP JUMPDEST DUP6 MLOAD PUSH3 0x461BCD PUSH1 0xE5 SHL DUP2 MSTORE DUP1 DUP4 ADD DUP9 SWAP1 MSTORE PUSH1 0x1D PUSH1 0x24 DUP3 ADD MSTORE PUSH32 0x496E73756666696369656E742042414C554E49206C6971756964697479000000 PUSH1 0x44 DUP3 ADD MSTORE PUSH1 0x64 SWAP1 REVERT JUMPDEST PUSH2 0x128A DUP12 DUP10 PUSH2 0x1256 DUP5 PUSH2 0x2774 JUMP JUMPDEST POP SLOAD DUP14 MLOAD PUSH4 0xA3E113FB PUSH1 0xE0 SHL DUP2 MSTORE ADDRESS DUP12 DUP3 ADD SWAP1 DUP2 MSTORE SWAP3 SWAP1 SWAP2 AND PUSH1 0x1 PUSH1 0x1 PUSH1 0xA0 SHL SUB AND PUSH1 0x20 DUP4 ADD MSTORE SWAP3 DUP4 SWAP2 DUP3 SWAP2 PUSH1 0x40 SWAP1 SWAP2 ADD SWAP1 JUMP JUMPDEST SUB DUP2 DUP7 GAS STATICCALL SWAP1 DUP2 ISZERO PUSH2 0x12F9 JUMPI DUP11 DUP6 SWAP4 SWAP3 DUP16 SWAP3 PUSH0 SWAP2 PUSH2 0x12BF JUMPI JUMPDEST POP PUSH2 0x548 PUSH1 0x1 SWAP6 PUSH2 0x90A PUSH2 0x12B8 SWAP5 DUP8 SWAP5 PUSH2 0x2639 JUMP JUMPDEST MSTORE ADD PUSH2 0xFEA JUMP JUMPDEST SWAP5 POP POP POP POP DUP12 DUP3 DUP2 RETURNDATASIZE DUP4 GT PUSH2 0x12F2 JUMPI JUMPDEST PUSH2 0x12D9 DUP2 DUP4 PUSH2 0x27C0 JUMP JUMPDEST DUP2 ADD SUB SLT PUSH2 0x5A9 JUMPI SWAP1 MLOAD DUP4 SWAP2 SWAP1 DUP14 SWAP1 DUP12 SWAP1 PUSH2 0x548 PUSH2 0x12A3 JUMP JUMPDEST POP RETURNDATASIZE PUSH2 0x12CF JUMP JUMPDEST DUP12 MLOAD RETURNDATASIZE PUSH0 DUP3 RETURNDATACOPY RETURNDATASIZE SWAP1 REVERT JUMPDEST PUSH1 0x11 DUP6 PUSH4 0x4E487B71 PUSH1 0xE0 SHL PUSH0 MSTORE MSTORE PUSH1 0x24 PUSH0 REVERT JUMPDEST DUP6 MLOAD PUSH3 0x461BCD PUSH1 0xE5 SHL DUP2 MSTORE DUP1 DUP4 ADD DUP9 SWAP1 MSTORE PUSH1 0xC PUSH1 0x24 DUP3 ADD MSTORE PUSH12 0x4E6F206C6971756964697479 PUSH1 0xA0 SHL PUSH1 0x44 DUP3 ADD MSTORE PUSH1 0x64 SWAP1 REVERT JUMPDEST DUP5 MLOAD PUSH3 0x461BCD PUSH1 0xE5 SHL DUP2 MSTORE SWAP1 DUP2 ADD DUP7 SWAP1 MSTORE PUSH1 0x1C PUSH1 0x24 DUP3 ADD MSTORE PUSH32 0x5368617265206D7573742062652067726561746572207468616E203000000000 PUSH1 0x44 DUP3 ADD MSTORE PUSH1 0x64 SWAP1 REVERT JUMPDEST DUP3 CALLVALUE PUSH2 0x5A9 JUMPI PUSH0 CALLDATASIZE PUSH1 0x3 NOT ADD SLT PUSH2 0x5A9 JUMPI PUSH2 0x13A4 PUSH2 0x29C2 JUMP JUMPDEST DUP3 MLOAD SWAP3 DUP4 SWAP2 DUP2 DUP4 ADD SWAP2 DUP4 MSTORE DUP4 MLOAD DUP1 SWAP3 MSTORE PUSH1 0x60 DUP4 ADD SWAP2 PUSH1 0x20 DUP1 SWAP6 ADD SWAP5 PUSH0 JUMPDEST DUP3 DUP2 LT PUSH2 0x13DC JUMPI DUP6 DUP1 PUSH2 0x4AF DUP8 DUP8 DUP4 DUP3 SUB PUSH1 0x20 DUP6 ADD MSTORE PUSH2 0x2606 JUMP JUMPDEST DUP7 MLOAD ISZERO ISZERO DUP6 MSTORE SWAP6 DUP2 ADD SWAP6 DUP8 SWAP6 POP SWAP4 DUP2 ADD SWAP4 PUSH1 0x1 ADD PUSH2 0x13C1 JUMP JUMPDEST DUP3 CALLVALUE PUSH2 0x5A9 JUMPI PUSH2 0x1411 PUSH2 0x1407 CALLDATASIZE PUSH2 0x26F8 JUMP JUMPDEST SWAP6 SWAP2 SWAP1 SWAP3 SWAP4 PUSH2 0x2E60 JUMP JUMPDEST SWAP6 PUSH8 0xDE0B6B3A7640000 SWAP2 DUP3 DUP2 MUL SWAP1 DUP1 ISZERO SWAP1 DUP1 DUP4 DIV DUP6 EQ DUP3 OR ISZERO PUSH2 0x14D6 JUMPI SWAP1 DUP5 PUSH2 0x1443 SWAP3 DUP3 ISZERO PUSH2 0x14C2 JUMPI JUMPDEST POP POP PUSH2 0x30FE JUMP JUMPDEST PUSH8 0x6F05B59D3B20000 DUP2 ADD SWAP2 DUP3 DUP3 GT PUSH2 0x14AF JUMPI POP PUSH2 0x14A9 DUP6 PUSH2 0x14A3 PUSH1 0x20 SWAP11 SWAP8 PUSH2 0x149E PUSH2 0x148F PUSH2 0xCE1 SWAP10 PUSH2 0x304 PUSH2 0xCED SWAP11 DUP11 PUSH2 0x309 SWAP16 SWAP12 PUSH2 0x149E SWAP12 PUSH2 0x1488 SWAP2 LT ISZERO PUSH2 0x30FE JUMP JUMPDEST DIV DUP3 PUSH2 0x321B JUMP JUMPDEST PUSH2 0x1498 DUP12 PUSH2 0x2DF9 JUMP JUMPDEST SWAP1 PUSH2 0x2F12 JUMP JUMPDEST PUSH2 0x31AA JUMP JUMPDEST SWAP1 PUSH2 0x321B JUMP JUMPDEST SWAP5 PUSH2 0x31C9 JUMP JUMPDEST PUSH1 0x11 SWAP1 PUSH4 0x4E487B71 PUSH1 0xE0 SHL PUSH0 MSTORE MSTORE PUSH1 0x24 PUSH0 REVERT JUMPDEST PUSH2 0x14CE SWAP2 SWAP3 POP DUP5 PUSH2 0x2683 JUMP JUMPDEST EQ DUP5 DUP12 PUSH2 0x143C JUMP JUMPDEST PUSH1 0x11 DUP5 PUSH4 0x4E487B71 PUSH1 0xE0 SHL PUSH0 MSTORE MSTORE PUSH1 0x24 PUSH0 REVERT JUMPDEST DUP3 CALLVALUE PUSH2 0x5A9 JUMPI PUSH0 CALLDATASIZE PUSH1 0x3 NOT ADD SLT PUSH2 0x5A9 JUMPI PUSH1 0x20 SWAP1 MLOAD PUSH3 0xF4240 DUP2 MSTORE RETURN JUMPDEST DUP3 CALLVALUE PUSH2 0x5A9 JUMPI PUSH1 0x20 SWAP1 PUSH2 0x309 PUSH2 0xCED PUSH2 0x154C PUSH2 0x1542 PUSH2 0x149E PUSH2 0xCE7 PUSH2 0x2EE PUSH2 0xCE1 PUSH2 0x304 PUSH2 0x1533 CALLDATASIZE PUSH2 0x26F8 JUMP JUMPDEST SWAP9 SWAP5 SWAP7 SWAP3 SWAP13 SWAP2 DUP14 SWAP12 SWAP2 SWAP5 PUSH2 0x2E60 JUMP JUMPDEST SWAP8 PUSH2 0x149E DUP10 PUSH2 0x31C9 JUMP JUMPDEST PUSH2 0x321B JUMP JUMPDEST SWAP1 POP CALLVALUE PUSH2 0x5A9 JUMPI PUSH2 0x1582 PUSH2 0xCED PUSH2 0x14A3 PUSH2 0x1542 PUSH2 0x149E PUSH2 0x157C PUSH2 0x2EE PUSH2 0x2E8 PUSH2 0x304 PUSH2 0x1533 CALLDATASIZE PUSH2 0x26F8 JUMP JUMPDEST DUP3 PUSH2 0x321B JUMP JUMPDEST SWAP2 PUSH8 0xDE0B6B3A7640000 SWAP1 DUP2 DUP5 MUL SWAP4 DUP1 ISZERO SWAP1 DUP1 DUP7 DIV DUP5 EQ DUP3 OR ISZERO PUSH2 0x1303 JUMPI SWAP1 DUP4 PUSH2 0x15B4 SWAP3 DUP3 ISZERO PUSH2 0x15DD JUMPI JUMPDEST POP POP PUSH2 0x2DBA JUMP JUMPDEST PUSH8 0x6F05B59D3B20000 DUP5 ADD SWAP3 DUP4 DUP6 GT PUSH2 0x14AF JUMPI POP PUSH2 0x15D6 PUSH1 0x20 SWAP5 DUP5 LT ISZERO PUSH2 0x2DBA JUMP JUMPDEST MLOAD SWAP2 DIV DUP2 MSTORE RETURN JUMPDEST PUSH2 0x15E9 SWAP2 SWAP3 POP DUP8 PUSH2 0x2683 JUMP JUMPDEST EQ DUP4 DUP8 PUSH2 0x15AD JUMP JUMPDEST DUP3 CALLVALUE PUSH2 0x5A9 JUMPI PUSH0 CALLDATASIZE PUSH1 0x3 NOT ADD SLT PUSH2 0x5A9 JUMPI PUSH1 0x20 SWAP1 PUSH1 0x7 SLOAD SWAP1 MLOAD SWAP1 DUP2 MSTORE RETURN JUMPDEST DUP3 CALLVALUE PUSH2 0x5A9 JUMPI PUSH0 CALLDATASIZE PUSH1 0x3 NOT ADD SLT PUSH2 0x5A9 JUMPI PUSH1 0x9 SLOAD SWAP1 MLOAD PUSH1 0x1 PUSH1 0x1 PUSH1 0xA0 SHL SUB SWAP1 SWAP2 AND DUP2 MSTORE PUSH1 0x20 SWAP1 RETURN JUMPDEST DUP3 CALLVALUE PUSH2 0x5A9 JUMPI PUSH0 CALLDATASIZE PUSH1 0x3 NOT ADD SLT PUSH2 0x5A9 JUMPI PUSH1 0x20 SWAP1 MLOAD PUSH5 0xE8D4A51000 DUP2 MSTORE RETURN JUMPDEST DUP3 CALLVALUE PUSH2 0x5A9 JUMPI PUSH1 0x20 CALLDATASIZE PUSH1 0x3 NOT ADD SLT PUSH2 0x5A9 JUMPI PUSH1 0x20 SWAP1 PUSH1 0x1 PUSH1 0x1 PUSH1 0xA0 SHL SUB PUSH2 0x167B PUSH2 0x25DA JUMP JUMPDEST AND PUSH0 MSTORE PUSH0 DUP3 MSTORE DUP1 PUSH0 KECCAK256 SLOAD SWAP1 MLOAD SWAP1 DUP2 MSTORE RETURN JUMPDEST SWAP1 POP CALLVALUE PUSH2 0x5A9 JUMPI PUSH1 0x80 CALLDATASIZE PUSH1 0x3 NOT ADD SLT PUSH2 0x5A9 JUMPI PUSH2 0x16A7 PUSH2 0x25DA JUMP JUMPDEST SWAP2 PUSH2 0x16B0 PUSH2 0x25F0 JUMP JUMPDEST PUSH1 0x44 CALLDATALOAD SWAP3 PUSH1 0x1 PUSH1 0x1 PUSH1 0xA0 SHL SUB SWAP2 SWAP1 PUSH1 0x64 CALLDATALOAD DUP4 DUP2 AND SWAP2 SWAP1 DUP3 SWAP1 SUB PUSH2 0x5A9 JUMPI PUSH1 0x2 PUSH1 0x5 SLOAD EQ PUSH2 0x1AD0 JUMPI PUSH1 0x2 PUSH1 0x5 SSTORE DUP4 DUP4 AND SWAP4 DUP8 AND SWAP3 DUP5 DUP5 EQ PUSH2 0x1A8D JUMPI DUP7 ISZERO PUSH2 0x1A4A JUMPI PUSH2 0x16F9 DUP2 PUSH2 0x2AFF JUMP JUMPDEST SWAP8 PUSH2 0x1703 DUP2 PUSH2 0x2AFF JUMP JUMPDEST SWAP1 PUSH2 0x3E8 SWAP1 DUP2 PUSH2 0x1712 DUP3 PUSH2 0x2CAB JUMP JUMPDEST DIV SWAP11 PUSH8 0xDE0B6B3A7640000 SWAP12 DUP13 DUP2 MUL SWAP1 DUP14 DUP2 DUP4 DIV EQ SWAP1 ISZERO OR ISZERO PUSH2 0x1A37 JUMPI DUP13 SWAP1 DUP5 PUSH2 0x173B DUP9 PUSH2 0x2CAB JUMP JUMPDEST DIV DUP3 DUP2 MUL SWAP3 DUP2 DUP5 DIV EQ SWAP1 ISZERO OR ISZERO PUSH2 0x19CB JUMPI PUSH2 0x176C SWAP2 PUSH2 0x2E8 PUSH2 0x1760 PUSH2 0x1767 SWAP4 DUP10 PUSH2 0x2E60 JUMP JUMPDEST SWAP2 DUP6 PUSH2 0x2E60 JUMP JUMPDEST PUSH2 0x313D JUMP JUMPDEST SWAP3 DUP13 DUP2 PUSH2 0x1778 DUP6 PUSH2 0x2CAB JUMP JUMPDEST DIV DUP2 DUP2 MUL SWAP2 DUP2 DUP4 DIV EQ SWAP1 ISZERO OR ISZERO PUSH2 0x19CB JUMPI DUP14 SWAP1 DUP3 PUSH2 0x1795 DUP10 PUSH2 0x2CAB JUMP JUMPDEST DIV DUP3 DUP2 MUL SWAP3 DUP2 DUP5 DIV EQ SWAP1 ISZERO OR ISZERO PUSH2 0x1A24 JUMPI SWAP1 PUSH2 0x17B0 SWAP2 PUSH2 0x2E60 JUMP JUMPDEST DUP13 PUSH8 0xDE0B6B3A763FFE2 DUP1 DUP3 MUL SWAP2 DUP3 DIV DUP2 SUB PUSH2 0x1A11 JUMPI PUSH2 0x17DB SWAP1 DUP16 PUSH2 0x17D5 SWAP1 DUP5 PUSH2 0x2683 JUMP JUMPDEST EQ PUSH2 0x30FE JUMP JUMPDEST PUSH8 0x6F05B59D3B20000 DUP2 ADD SWAP1 DUP2 DUP2 GT PUSH2 0x1A11 JUMPI DUP16 SWAP3 PUSH2 0x2EE PUSH2 0x1814 PUSH2 0x1820 SWAP6 DUP6 PUSH2 0x180D PUSH2 0xCED SWAP7 PUSH2 0x181A SWAP9 LT ISZERO PUSH2 0x30FE JUMP JUMPDEST DIV DUP12 PUSH2 0x2EC5 JUMP JUMPDEST DUP11 PUSH2 0x2E60 JUMP JUMPDEST DUP4 PUSH2 0x31AA JUMP JUMPDEST SWAP5 PUSH1 0x1 DUP7 LT PUSH2 0x19DE JUMPI SWAP1 DUP1 PUSH2 0x184C DUP16 SWAP5 SWAP4 DUP16 PUSH2 0x1840 DUP11 SWAP2 PUSH2 0x1846 SWAP4 PUSH2 0x2EC5 JUMP JUMPDEST SWAP6 PUSH2 0x321B JUMP JUMPDEST SWAP6 PUSH2 0x2CAB JUMP JUMPDEST DIV DUP4 DUP2 MUL SWAP4 DUP2 DUP6 DIV EQ SWAP1 ISZERO OR ISZERO PUSH2 0x19CB JUMPI SWAP1 DUP14 SWAP3 SWAP2 PUSH2 0x186A DUP9 PUSH2 0x2CAB JUMP JUMPDEST DIV DUP4 DUP2 MUL SWAP4 DUP2 DUP6 DIV EQ SWAP1 ISZERO OR ISZERO PUSH2 0x19CB JUMPI PUSH2 0x1767 DUP6 SWAP5 PUSH2 0x2E8 PUSH2 0x18A5 SWAP6 PUSH2 0x1898 PUSH2 0x18AF SWAP10 SWAP7 PUSH2 0x189E SWAP7 PUSH2 0x2E60 JUMP JUMPDEST SWAP3 PUSH2 0x2E60 JUMP JUMPDEST LT ISZERO PUSH2 0x3225 JUMP JUMPDEST PUSH2 0x189E DUP4 DUP12 PUSH2 0x2E60 JUMP JUMPDEST DUP7 MLOAD PUSH4 0x313CE567 PUSH1 0xE0 SHL DUP2 MSTORE PUSH1 0x20 SWAP10 SWAP1 DUP11 DUP2 DUP7 DUP2 DUP12 GAS STATICCALL SWAP1 DUP2 ISZERO PUSH2 0x19C1 JUMPI SWAP1 PUSH1 0xFF SWAP2 PUSH0 SWAP2 PUSH2 0x19A4 JUMPI JUMPDEST POP AND SWAP1 SUB PUSH8 0xFFFFFFFFFFFFFFFF SWAP1 DUP2 DUP2 GT PUSH2 0x1303 JUMPI SWAP2 PUSH2 0x18FF SWAP2 PUSH2 0x1907 SWAP6 SWAP5 SWAP4 AND SWAP1 PUSH2 0x2683 JUMP JUMPDEST SWAP3 DUP4 SWAP2 PUSH2 0x2AFF JUMP JUMPDEST LT PUSH2 0x1968 JUMPI PUSH1 0x1E DUP3 MUL SWAP1 DUP3 DUP3 DIV PUSH1 0x1E EQ DUP4 ISZERO OR ISZERO PUSH2 0x14AF JUMPI POP PUSH2 0x1951 PUSH32 0xCD3829A3813DC3CDD188FD3D01DCF3268C16BE2FDD2DD21D0665418816E46062 SWAP3 PUSH2 0x2710 DUP9 SWAP4 DIV SWAP1 PUSH2 0x2767 JUMP JUMPDEST SWAP7 DUP2 MLOAD SWAP1 DUP2 MSTORE DUP8 DUP10 DUP3 ADD MSTORE LOG4 PUSH1 0x1 PUSH1 0x5 SSTORE MLOAD SWAP1 DUP2 MSTORE RETURN JUMPDEST DUP6 MLOAD PUSH3 0x461BCD PUSH1 0xE5 SHL DUP2 MSTORE SWAP1 DUP2 ADD DUP9 SWAP1 MSTORE PUSH1 0x16 PUSH1 0x24 DUP3 ADD MSTORE PUSH22 0x496E73756666696369656E74204C6971756964697479 PUSH1 0x50 SHL PUSH1 0x44 DUP3 ADD MSTORE PUSH1 0x64 SWAP1 REVERT JUMPDEST PUSH2 0x19BB SWAP2 POP DUP13 DUP14 RETURNDATASIZE LT PUSH2 0x9B0 JUMPI PUSH2 0x9A2 DUP2 DUP4 PUSH2 0x27C0 JUMP JUMPDEST DUP13 PUSH2 0x18D8 JUMP JUMPDEST DUP10 MLOAD RETURNDATASIZE PUSH0 DUP3 RETURNDATACOPY RETURNDATASIZE SWAP1 REVERT JUMPDEST PUSH1 0x11 DUP9 PUSH4 0x4E487B71 PUSH1 0xE0 SHL PUSH0 MSTORE MSTORE PUSH1 0x24 PUSH0 REVERT JUMPDEST DUP12 MLOAD PUSH3 0x461BCD PUSH1 0xE5 SHL DUP2 MSTORE PUSH1 0x20 DUP2 DUP11 ADD MSTORE PUSH1 0xD PUSH1 0x24 DUP3 ADD MSTORE PUSH13 0x11549497D31253525517D3D555 PUSH1 0x9A SHL PUSH1 0x44 DUP3 ADD MSTORE PUSH1 0x64 SWAP1 REVERT JUMPDEST PUSH1 0x11 DUP11 PUSH4 0x4E487B71 PUSH1 0xE0 SHL PUSH0 MSTORE MSTORE PUSH1 0x24 PUSH0 REVERT JUMPDEST PUSH1 0x11 DUP10 PUSH4 0x4E487B71 PUSH1 0xE0 SHL PUSH0 MSTORE MSTORE PUSH1 0x24 PUSH0 REVERT JUMPDEST PUSH1 0x11 DUP8 PUSH4 0x4E487B71 PUSH1 0xE0 SHL PUSH0 MSTORE MSTORE PUSH1 0x24 PUSH0 REVERT JUMPDEST DUP6 MLOAD PUSH3 0x461BCD PUSH1 0xE5 SHL DUP2 MSTORE PUSH1 0x20 DUP2 DUP5 ADD DUP2 SWAP1 MSTORE PUSH1 0x24 DUP3 ADD MSTORE PUSH32 0x416D6F756E74206D7573742062652067726561746572207468616E207A65726F PUSH1 0x44 DUP3 ADD MSTORE PUSH1 0x64 SWAP1 REVERT JUMPDEST DUP6 MLOAD PUSH3 0x461BCD PUSH1 0xE5 SHL DUP2 MSTORE PUSH1 0x20 DUP2 DUP5 ADD MSTORE PUSH1 0x1A PUSH1 0x24 DUP3 ADD MSTORE PUSH32 0x43616E6E6F742073776170207468652073616D6520746F6B656E000000000000 PUSH1 0x44 DUP3 ADD MSTORE PUSH1 0x64 SWAP1 REVERT JUMPDEST DUP5 MLOAD PUSH4 0x3EE5AEB5 PUSH1 0xE0 SHL DUP2 MSTORE REVERT JUMPDEST DUP3 CALLVALUE PUSH2 0x5A9 JUMPI PUSH0 CALLDATASIZE PUSH1 0x3 NOT ADD SLT PUSH2 0x5A9 JUMPI PUSH1 0x6 SLOAD PUSH2 0x1AFB DUP2 PUSH2 0x28A7 JUMP JUMPDEST SWAP1 PUSH0 JUMPDEST DUP2 DUP2 LT PUSH2 0x1B1A JUMPI DUP4 MLOAD PUSH1 0x20 DUP1 DUP3 MSTORE DUP2 SWAP1 PUSH2 0x4AF SWAP1 DUP3 ADD DUP7 PUSH2 0x271E JUMP JUMPDEST DUP1 PUSH2 0x1B26 PUSH1 0x1 SWAP3 PUSH2 0x2774 JUMP JUMPDEST POP DUP3 DUP1 PUSH1 0xA0 SHL SUB SWAP1 SLOAD AND PUSH2 0x1B3A DUP3 DUP7 PUSH2 0x28D9 JUMP JUMPDEST MSTORE ADD PUSH2 0x1AFE JUMP JUMPDEST DUP3 CALLVALUE PUSH2 0x5A9 JUMPI PUSH0 CALLDATASIZE PUSH1 0x3 NOT ADD SLT PUSH2 0x5A9 JUMPI PUSH1 0x20 SWAP1 MLOAD PUSH1 0x1E DUP2 MSTORE RETURN JUMPDEST DUP3 CALLVALUE PUSH2 0x5A9 JUMPI PUSH1 0x20 SWAP1 PUSH2 0x309 PUSH2 0x1B9C PUSH2 0x2E8 PUSH2 0xCED PUSH2 0x149E PUSH2 0x149E PUSH2 0x14A9 PUSH2 0x148F PUSH2 0x154C PUSH2 0x304 PUSH2 0x1B8C CALLDATASIZE PUSH2 0x26F8 JUMP JUMPDEST SWAP11 SWAP5 SWAP8 SWAP4 SWAP2 DUP9 SWAP7 SWAP3 SWAP15 SWAP2 SWAP15 PUSH2 0x2E60 JUMP JUMPDEST SWAP13 DUP3 PUSH2 0x2EC5 JUMP JUMPDEST SWAP1 POP CALLVALUE PUSH2 0x5A9 JUMPI DUP2 PUSH1 0x3 NOT CALLDATASIZE ADD SLT PUSH2 0x5A9 JUMPI PUSH2 0x1BBD PUSH2 0x25DA JUMP JUMPDEST SWAP2 PUSH2 0x1BC6 PUSH2 0x25F0 JUMP JUMPDEST PUSH2 0x1BCF DUP5 PUSH2 0x2AFF JUMP JUMPDEST POP PUSH2 0x1BD9 DUP2 PUSH2 0x2AFF JUMP JUMPDEST POP DUP2 MLOAD PUSH4 0x313CE567 PUSH1 0xE0 SHL DUP2 MSTORE PUSH1 0x20 SWAP5 PUSH1 0x1 PUSH1 0x1 PUSH1 0xA0 SHL SUB SWAP2 DUP7 DUP2 DUP8 DUP2 DUP6 DUP8 AND GAS STATICCALL SWAP1 DUP2 ISZERO PUSH2 0x1CDA JUMPI SWAP1 PUSH1 0xFF SWAP2 PUSH0 SWAP2 PUSH2 0x1CBD JUMPI JUMPDEST POP AND SWAP2 PUSH1 0xC SLOAD AND SWAP2 PUSH1 0x4D DUP2 GT PUSH2 0x1CAA JUMPI DUP5 MLOAD PUSH4 0x248391FF PUSH1 0xE0 SHL DUP2 MSTORE PUSH1 0x1 PUSH1 0x1 PUSH1 0xA0 SHL SUB SWAP3 DUP4 AND SWAP7 DUP2 ADD SWAP7 DUP8 MSTORE SWAP4 SWAP1 SWAP2 AND PUSH1 0x20 DUP7 ADD MSTORE PUSH1 0xA EXP PUSH1 0x40 DUP6 ADD MSTORE SWAP1 SWAP3 DUP5 SWAP2 DUP5 SWAP2 DUP3 SWAP1 DUP2 SWAP1 PUSH1 0x60 ADD SUB SWAP2 GAS STATICCALL SWAP2 DUP3 ISZERO PUSH2 0x1CA0 JUMPI PUSH0 SWAP3 PUSH2 0x1C71 JUMPI JUMPDEST POP MLOAD SWAP1 DUP2 MSTORE RETURN JUMPDEST SWAP1 SWAP2 POP DUP3 DUP2 DUP2 RETURNDATASIZE DUP4 GT PUSH2 0x1C99 JUMPI JUMPDEST PUSH2 0x1C89 DUP2 DUP4 PUSH2 0x27C0 JUMP JUMPDEST DUP2 ADD SUB SLT PUSH2 0x5A9 JUMPI MLOAD SWAP1 DUP4 PUSH2 0x1C6A JUMP JUMPDEST POP RETURNDATASIZE PUSH2 0x1C7F JUMP JUMPDEST POP MLOAD RETURNDATASIZE PUSH0 DUP3 RETURNDATACOPY RETURNDATASIZE SWAP1 REVERT JUMPDEST PUSH1 0x11 DUP7 PUSH4 0x4E487B71 PUSH1 0xE0 SHL PUSH0 MSTORE MSTORE PUSH1 0x24 PUSH0 REVERT JUMPDEST PUSH2 0x1CD4 SWAP2 POP DUP9 RETURNDATASIZE DUP11 GT PUSH2 0x9B0 JUMPI PUSH2 0x9A2 DUP2 DUP4 PUSH2 0x27C0 JUMP JUMPDEST DUP9 PUSH2 0x1C0D JUMP JUMPDEST DUP6 MLOAD RETURNDATASIZE PUSH0 DUP3 RETURNDATACOPY RETURNDATASIZE SWAP1 REVERT JUMPDEST DUP3 CALLVALUE PUSH2 0x5A9 JUMPI PUSH1 0x20 PUSH2 0x1CF5 CALLDATASIZE PUSH2 0x26C3 JUMP JUMPDEST PUSH1 0xC SLOAD DUP6 MLOAD PUSH4 0x248391FF PUSH1 0xE0 SHL DUP2 MSTORE PUSH1 0x1 PUSH1 0x1 PUSH1 0xA0 SHL SUB SWAP5 DUP6 AND SWAP8 DUP2 ADD SWAP8 DUP9 MSTORE SWAP3 DUP5 AND PUSH1 0x20 DUP9 ADD MSTORE PUSH1 0x40 DUP8 ADD SWAP2 SWAP1 SWAP2 MSTORE SWAP1 SWAP5 DUP6 SWAP3 SWAP1 DUP4 SWAP1 SUB PUSH1 0x60 ADD SWAP2 DUP4 SWAP2 AND GAS STATICCALL SWAP1 DUP2 ISZERO PUSH2 0x1D83 JUMPI PUSH0 SWAP2 PUSH2 0x1D4E JUMPI JUMPDEST PUSH1 0x20 SWAP3 POP MLOAD SWAP1 DUP2 MSTORE RETURN JUMPDEST SWAP1 POP PUSH1 0x20 DUP3 RETURNDATASIZE PUSH1 0x20 GT PUSH2 0x1D7B JUMPI JUMPDEST DUP2 PUSH2 0x1D69 PUSH1 0x20 SWAP4 DUP4 PUSH2 0x27C0 JUMP JUMPDEST DUP2 ADD SUB SLT PUSH2 0x5A9 JUMPI PUSH1 0x20 SWAP2 MLOAD SWAP1 PUSH2 0x1D44 JUMP JUMPDEST RETURNDATASIZE SWAP2 POP PUSH2 0x1D5C JUMP JUMPDEST MLOAD RETURNDATASIZE PUSH0 DUP3 RETURNDATACOPY RETURNDATASIZE SWAP1 REVERT JUMPDEST DUP3 CALLVALUE PUSH2 0x5A9 JUMPI PUSH0 CALLDATASIZE PUSH1 0x3 NOT ADD SLT PUSH2 0x5A9 JUMPI PUSH2 0x4AF PUSH2 0x1DA8 PUSH2 0x2BA2 JUMP JUMPDEST DUP4 SWAP3 SWAP2 SWAP3 MLOAD SWAP4 DUP5 SWAP4 DUP5 MSTORE DUP1 PUSH1 0x20 DUP6 ADD MSTORE DUP4 ADD SWAP1 PUSH2 0x2606 JUMP JUMPDEST DUP3 CALLVALUE PUSH2 0x5A9 JUMPI PUSH0 CALLDATASIZE PUSH1 0x3 NOT ADD SLT PUSH2 0x5A9 JUMPI PUSH1 0x20 SWAP1 MLOAD PUSH1 0x12 DUP2 MSTORE RETURN JUMPDEST SWAP1 POP CALLVALUE PUSH2 0x5A9 JUMPI PUSH2 0x1DEB CALLDATASIZE PUSH2 0x26C3 JUMP JUMPDEST PUSH1 0x1 PUSH1 0x1 PUSH1 0xA0 SHL SUB DUP4 AND PUSH0 DUP2 DUP2 MSTORE PUSH1 0x1 PUSH1 0x20 DUP2 DUP2 MSTORE DUP9 DUP4 KECCAK256 CALLER DUP5 MSTORE SWAP1 MSTORE SWAP1 DUP8 SWAP1 KECCAK256 SLOAD SWAP3 SWAP6 SWAP4 SWAP5 SWAP4 SWAP1 DUP4 ADD PUSH2 0x1E28 JUMPI JUMPDEST PUSH1 0x20 DUP8 PUSH2 0xD91 DUP9 DUP9 DUP9 PUSH2 0x2CF8 JUMP JUMPDEST DUP6 DUP4 LT PUSH2 0x1E90 JUMPI DUP2 ISZERO PUSH2 0x1E7A JUMPI CALLER ISZERO PUSH2 0x1E64 JUMPI POP PUSH0 SWAP1 DUP2 MSTORE PUSH1 0x1 PUSH1 0x20 SWAP1 DUP2 MSTORE DUP7 DUP3 KECCAK256 CALLER DUP4 MSTORE DUP2 MSTORE SWAP1 DUP7 SWAP1 KECCAK256 SWAP2 DUP6 SWAP1 SUB SWAP1 SWAP2 SSTORE DUP3 SWAP1 PUSH2 0xD91 PUSH2 0x1E1A JUMP JUMPDEST PUSH1 0x24 SWAP1 PUSH0 DUP9 MLOAD SWAP2 PUSH4 0x4A1406B1 PUSH1 0xE1 SHL DUP4 MSTORE DUP3 ADD MSTORE REVERT JUMPDEST PUSH1 0x24 SWAP1 PUSH0 DUP9 MLOAD SWAP2 PUSH4 0xE602DF05 PUSH1 0xE0 SHL DUP4 MSTORE DUP3 ADD MSTORE REVERT JUMPDEST DUP7 MLOAD PUSH4 0x7DC7A0D9 PUSH1 0xE1 SHL DUP2 MSTORE CALLER SWAP2 DUP2 ADD SWAP2 DUP3 MSTORE PUSH1 0x20 DUP3 ADD SWAP4 SWAP1 SWAP4 MSTORE PUSH1 0x40 DUP2 ADD DUP7 SWAP1 MSTORE DUP3 SWAP2 POP PUSH1 0x60 ADD SUB SWAP1 REVERT JUMPDEST DUP3 CALLVALUE PUSH2 0x5A9 JUMPI PUSH0 CALLDATASIZE PUSH1 0x3 NOT ADD SLT PUSH2 0x5A9 JUMPI PUSH1 0x6 SLOAD PUSH2 0x1ED9 DUP2 PUSH2 0x28A7 JUMP JUMPDEST SWAP1 PUSH0 JUMPDEST DUP2 DUP2 LT PUSH2 0x1EF8 JUMPI DUP4 MLOAD PUSH1 0x20 DUP1 DUP3 MSTORE DUP2 SWAP1 PUSH2 0x4AF SWAP1 DUP3 ADD DUP7 PUSH2 0x2606 JUMP JUMPDEST DUP1 PUSH1 0x1 PUSH2 0x1F05 DUP2 SWAP4 PUSH2 0x2774 JUMP JUMPDEST POP ADD SLOAD PUSH2 0x1F12 DUP3 DUP7 PUSH2 0x28D9 JUMP JUMPDEST MSTORE ADD PUSH2 0x1EDC JUMP JUMPDEST DUP3 CALLVALUE PUSH2 0x5A9 JUMPI PUSH0 CALLDATASIZE PUSH1 0x3 NOT ADD SLT PUSH2 0x5A9 JUMPI PUSH1 0x20 SWAP1 PUSH2 0x1F35 PUSH2 0x2BA2 JUMP JUMPDEST POP SWAP1 MLOAD SWAP1 DUP2 MSTORE RETURN JUMPDEST DUP3 CALLVALUE PUSH2 0x5A9 JUMPI PUSH0 CALLDATASIZE PUSH1 0x3 NOT ADD SLT PUSH2 0x5A9 JUMPI PUSH1 0x20 SWAP1 MLOAD PUSH4 0x5F5E100 DUP2 MSTORE RETURN JUMPDEST DUP3 CALLVALUE PUSH2 0x5A9 JUMPI PUSH0 CALLDATASIZE PUSH1 0x3 NOT ADD SLT PUSH2 0x5A9 JUMPI PUSH1 0x20 SWAP1 PUSH1 0x2 SLOAD SWAP1 MLOAD SWAP1 DUP2 MSTORE RETURN JUMPDEST DUP3 CALLVALUE PUSH2 0x5A9 JUMPI DUP1 PUSH1 0x3 NOT CALLDATASIZE ADD SLT PUSH2 0x5A9 JUMPI PUSH2 0x1F92 PUSH2 0x25DA JUMP JUMPDEST PUSH2 0x1F9A PUSH2 0x25F0 JUMP JUMPDEST SWAP3 PUSH2 0x1FA4 DUP3 PUSH2 0x2AFF JUMP JUMPDEST SWAP4 PUSH2 0x1FAE DUP2 PUSH2 0x2AFF JUMP JUMPDEST DUP5 MLOAD PUSH4 0x313CE567 PUSH1 0xE0 SHL DUP1 DUP3 MSTORE PUSH1 0x20 SWAP8 SWAP2 SWAP5 PUSH1 0x1 PUSH1 0x1 PUSH1 0xA0 SHL SUB SWAP4 SWAP1 SWAP3 SWAP1 SWAP2 DUP10 DUP8 DUP6 DUP2 DUP12 DUP10 AND GAS STATICCALL SWAP7 DUP8 ISZERO PUSH2 0x19C1 JUMPI SWAP1 DUP11 SWAP2 PUSH0 SWAP9 PUSH2 0x20DB JUMPI JUMPDEST POP DUP5 DUP11 MLOAD DUP1 SWAP8 DUP2 SWAP4 DUP3 MSTORE DUP10 AND GAS STATICCALL SWAP4 DUP5 ISZERO PUSH2 0x20D1 JUMPI PUSH0 SWAP5 PUSH2 0x20B2 JUMPI JUMPDEST POP PUSH8 0xDE0B6B3A7640000 SWAP6 DUP7 DUP3 MUL SWAP2 DUP1 DUP4 DIV DUP9 EQ SWAP1 ISZERO OR ISZERO PUSH2 0x14D6 JUMPI SWAP1 PUSH1 0xFF PUSH2 0x202D SWAP3 AND SWAP1 PUSH2 0x2767 JUMP JUMPDEST SWAP3 DUP6 DUP3 MUL SWAP2 DUP1 DUP4 DIV DUP8 EQ SWAP1 ISZERO OR ISZERO PUSH2 0x209F JUMPI PUSH2 0x205C SWAP2 PUSH1 0xFF PUSH2 0x2050 SWAP3 AND SWAP1 PUSH2 0x2767 JUMP JUMPDEST SWAP6 PUSH2 0x3E8 SWAP2 DUP3 SWAP2 PUSH2 0x2CAB JUMP JUMPDEST DIV SWAP4 DUP6 DUP6 MUL SWAP5 DUP1 DUP7 DIV DUP8 EQ SWAP1 ISZERO OR ISZERO PUSH2 0x209F JUMPI PUSH2 0x2078 SWAP1 PUSH2 0x2CAB JUMP JUMPDEST DIV DUP5 DUP2 MUL SWAP5 DUP2 DUP7 DIV EQ SWAP1 ISZERO OR ISZERO PUSH2 0x14AF JUMPI POP PUSH2 0x1767 SWAP3 PUSH2 0x1898 PUSH2 0x309 SWAP6 SWAP4 PUSH2 0x2E8 SWAP4 PUSH2 0x2E60 JUMP JUMPDEST PUSH1 0x11 DUP4 PUSH4 0x4E487B71 PUSH1 0xE0 SHL PUSH0 MSTORE MSTORE PUSH1 0x24 PUSH0 REVERT JUMPDEST PUSH2 0x20CA SWAP2 SWAP5 POP DUP10 RETURNDATASIZE DUP12 GT PUSH2 0x9B0 JUMPI PUSH2 0x9A2 DUP2 DUP4 PUSH2 0x27C0 JUMP JUMPDEST SWAP3 DUP10 PUSH2 0x2003 JUMP JUMPDEST DUP9 MLOAD RETURNDATASIZE PUSH0 DUP3 RETURNDATACOPY RETURNDATASIZE SWAP1 REVERT JUMPDEST PUSH2 0x20F3 SWAP2 SWAP9 POP DUP3 RETURNDATASIZE DUP5 GT PUSH2 0x9B0 JUMPI PUSH2 0x9A2 DUP2 DUP4 PUSH2 0x27C0 JUMP JUMPDEST SWAP7 DUP12 PUSH2 0x1FE7 JUMP JUMPDEST DUP3 CALLVALUE PUSH2 0x5A9 JUMPI DUP1 PUSH1 0x3 NOT CALLDATASIZE ADD SLT PUSH2 0x5A9 JUMPI PUSH2 0x2113 PUSH2 0x25DA JUMP JUMPDEST PUSH1 0x24 CALLDATALOAD SWAP1 CALLER ISZERO PUSH2 0x218C JUMPI PUSH1 0x1 PUSH1 0x1 PUSH1 0xA0 SHL SUB AND SWAP1 DUP2 ISZERO PUSH2 0x2176 JUMPI PUSH1 0x20 SWAP4 POP CALLER PUSH0 MSTORE PUSH1 0x1 DUP5 MSTORE DUP3 PUSH0 KECCAK256 DUP3 PUSH0 MSTORE DUP5 MSTORE DUP1 DUP4 PUSH0 KECCAK256 SSTORE DUP3 MLOAD SWAP1 DUP2 MSTORE PUSH32 0x8C5BE1E5EBEC7D5BD14F71427D1E84F3DD0314C0F7B2291E5B200AC8C7C3B925 DUP5 CALLER SWAP3 LOG3 MLOAD PUSH1 0x1 DUP2 MSTORE RETURN JUMPDEST DUP3 MLOAD PUSH4 0x4A1406B1 PUSH1 0xE1 SHL DUP2 MSTORE PUSH0 DUP2 DUP7 ADD MSTORE PUSH1 0x24 SWAP1 REVERT JUMPDEST DUP3 MLOAD PUSH4 0xE602DF05 PUSH1 0xE0 SHL DUP2 MSTORE PUSH0 DUP2 DUP7 ADD MSTORE PUSH1 0x24 SWAP1 REVERT JUMPDEST DUP3 CALLVALUE PUSH2 0x5A9 JUMPI PUSH0 CALLDATASIZE PUSH1 0x3 NOT ADD SLT PUSH2 0x5A9 JUMPI PUSH2 0x4AF SWAP1 PUSH2 0x21BF PUSH2 0x28ED JUMP JUMPDEST SWAP1 MLOAD SWAP2 DUP3 SWAP2 PUSH1 0x20 DUP4 MSTORE PUSH1 0x20 DUP4 ADD SWAP1 PUSH2 0x2606 JUMP JUMPDEST SWAP1 POP CALLVALUE PUSH2 0x5A9 JUMPI PUSH1 0x20 SWAP2 DUP3 PUSH1 0x3 NOT CALLDATASIZE ADD SLT PUSH2 0x5A9 JUMPI PUSH2 0x21EF PUSH2 0x25DA JUMP JUMPDEST SWAP2 PUSH1 0x1 DUP1 PUSH1 0xA0 SHL SUB SWAP4 PUSH2 0x2207 DUP6 PUSH1 0x9 SLOAD AND CALLER EQ PUSH2 0x280E JUMP JUMPDEST PUSH2 0x2212 PUSH2 0x34D PUSH2 0x2AA9 JUMP JUMPDEST PUSH2 0x221A PUSH2 0x2BA2 JUMP JUMPDEST PUSH1 0x6 SLOAD SWAP5 SWAP2 PUSH2 0x2228 DUP7 PUSH2 0x28A7 JUMP JUMPDEST SWAP2 PUSH0 JUMPDEST DUP8 DUP2 LT PUSH2 0x2444 JUMPI POP POP POP PUSH0 SWAP1 PUSH0 JUMPDEST DUP7 DUP2 LT PUSH2 0x2425 JUMPI POP PUSH1 0xB SLOAD DUP4 MLOAD PUSH4 0x313CE567 PUSH1 0xE0 SHL DUP2 MSTORE SWAP1 DUP10 AND SWAP3 DUP6 DUP3 DUP9 DUP2 DUP8 GAS STATICCALL SWAP2 DUP3 ISZERO PUSH2 0x1CDA JUMPI PUSH0 SWAP3 PUSH2 0x2406 JUMPI JUMPDEST POP PUSH1 0xFF PUSH8 0xDE0B6B3A7640000 SWAP3 AND DUP3 SUB SWAP2 DUP3 GT PUSH2 0x1A37 JUMPI PUSH2 0x2293 SWAP2 PUSH2 0x228D SWAP2 PUSH2 0x2639 JUMP JUMPDEST SWAP7 PUSH2 0x28A7 JUMP JUMPDEST SWAP6 PUSH0 JUMPDEST DUP3 MLOAD DUP2 LT ISZERO PUSH2 0x23AE JUMPI PUSH2 0x22A9 DUP2 DUP5 PUSH2 0x28D9 JUMP JUMPDEST MLOAD PUSH2 0x22B7 JUMPI JUMPDEST PUSH1 0x1 ADD PUSH2 0x2296 JUMP JUMPDEST PUSH2 0x22C1 DUP2 DUP5 PUSH2 0x28D9 JUMP JUMPDEST MLOAD DUP7 DUP12 PUSH2 0x22CD DUP5 PUSH2 0x2774 JUMP JUMPDEST POP SLOAD PUSH1 0xC SLOAD DUP10 MLOAD PUSH4 0x248391FF PUSH1 0xE0 SHL DUP2 MSTORE PUSH1 0x1 PUSH1 0x1 PUSH1 0xA0 SHL SUB DUP11 DUP2 AND DUP15 DUP4 ADD SWAP1 DUP2 MSTORE SWAP5 SWAP1 SWAP4 AND SWAP1 SWAP3 AND PUSH1 0x20 DUP5 ADD MSTORE PUSH1 0x40 DUP4 ADD SWAP5 SWAP1 SWAP5 MSTORE SWAP3 DUP4 SWAP2 DUP3 SWAP1 SUB PUSH1 0x60 ADD SWAP1 DUP3 SWAP1 DUP16 AND GAS STATICCALL SWAP1 DUP2 ISZERO PUSH2 0x11C1 JUMPI PUSH0 SWAP2 PUSH2 0x2381 JUMPI JUMPDEST POP DUP1 ISZERO PUSH2 0x233E JUMPI SWAP1 PUSH1 0x1 SWAP2 PUSH2 0x2336 DUP3 DUP12 PUSH2 0x28D9 JUMP JUMPDEST MSTORE SWAP1 POP PUSH2 0x22AF JUMP JUMPDEST DUP6 MLOAD PUSH3 0x461BCD PUSH1 0xE5 SHL DUP2 MSTORE DUP1 DUP10 ADD DUP9 SWAP1 MSTORE PUSH1 0x1B PUSH1 0x24 DUP3 ADD MSTORE PUSH32 0x496E76616C696420746F6B656E20616D6F756E7420746F206164640000000000 PUSH1 0x44 DUP3 ADD MSTORE PUSH1 0x64 SWAP1 REVERT JUMPDEST SWAP1 POP DUP7 DUP2 DUP2 RETURNDATASIZE DUP4 GT PUSH2 0x23A7 JUMPI JUMPDEST PUSH2 0x2398 DUP2 DUP4 PUSH2 0x27C0 JUMP JUMPDEST DUP2 ADD SUB SLT PUSH2 0x5A9 JUMPI MLOAD DUP12 PUSH2 0x2321 JUMP JUMPDEST POP RETURNDATASIZE PUSH2 0x238E JUMP JUMPDEST DUP8 DUP7 PUSH2 0x4AF DUP8 DUP7 PUSH2 0x23BF DUP8 DUP16 PUSH2 0x2C36 JUMP JUMPDEST PUSH32 0xA95AD530009C6F929555E70A66AADBEAE7231E45756C5B028CA77FBAA376E73E DUP3 MLOAD DUP6 DUP2 MSTORE DUP1 PUSH2 0x23F4 CALLER SWAP5 DUP9 DUP4 ADD SWAP1 PUSH2 0x2606 JUMP JUMPDEST SUB SWAP1 LOG2 MLOAD SWAP3 DUP3 DUP5 SWAP4 DUP5 MSTORE DUP4 ADD SWAP1 PUSH2 0x2606 JUMP JUMPDEST PUSH2 0x241E SWAP2 SWAP3 POP DUP7 RETURNDATASIZE DUP9 GT PUSH2 0x9B0 JUMPI PUSH2 0x9A2 DUP2 DUP4 PUSH2 0x27C0 JUMP JUMPDEST SWAP1 DUP11 PUSH2 0x2269 JUMP JUMPDEST SWAP2 PUSH2 0x243D PUSH1 0x1 SWAP2 PUSH2 0x2436 DUP6 DUP6 PUSH2 0x28D9 JUMP JUMPDEST MLOAD SWAP1 PUSH2 0x275A JUMP JUMPDEST SWAP3 ADD PUSH2 0x2239 JUMP JUMPDEST DUP1 PUSH2 0x2710 PUSH2 0x2460 PUSH1 0x1 PUSH2 0x2457 DUP2 SWAP6 PUSH2 0x2774 JUMP JUMPDEST POP ADD SLOAD DUP7 PUSH2 0x2639 JUMP JUMPDEST DIV DUP1 PUSH2 0x246C DUP4 DUP7 PUSH2 0x28D9 JUMP JUMPDEST MLOAD LT PUSH2 0x247A JUMPI JUMPDEST POP ADD PUSH2 0x222B JUMP JUMPDEST PUSH2 0x2488 SWAP1 PUSH2 0x541 DUP4 DUP7 PUSH2 0x28D9 JUMP JUMPDEST PUSH2 0x2492 DUP3 DUP8 PUSH2 0x28D9 JUMP JUMPDEST MSTORE DUP12 PUSH2 0x2473 JUMP JUMPDEST DUP3 CALLVALUE PUSH2 0x5A9 JUMPI PUSH0 CALLDATASIZE PUSH1 0x3 NOT ADD SLT PUSH2 0x5A9 JUMPI DUP1 MLOAD SWAP1 PUSH0 SWAP3 PUSH1 0x3 SLOAD PUSH1 0x1 DUP2 PUSH1 0x1 SHR SWAP2 PUSH1 0x1 DUP2 AND DUP1 ISZERO PUSH2 0x2583 JUMPI JUMPDEST PUSH1 0x20 SWAP5 DUP6 DUP6 LT DUP3 EQ PUSH2 0x2570 JUMPI POP DUP4 DUP8 MSTORE SWAP1 DUP2 ISZERO PUSH2 0x2550 JUMPI POP PUSH1 0x1 EQ PUSH2 0x24F6 JUMPI JUMPDEST POP POP POP PUSH2 0xE82 DUP3 PUSH2 0x4AF SWAP5 SUB DUP4 PUSH2 0x27C0 JUMP JUMPDEST PUSH1 0x3 PUSH0 SWAP1 DUP2 MSTORE SWAP3 SWAP6 POP PUSH32 0xC2575A0E9E593C00F959F8C92F12DB2869C3395A3B0502D05E2516446F71F85B JUMPDEST DUP3 DUP5 LT PUSH2 0x253D JUMPI POP POP POP DUP3 PUSH2 0x4AF SWAP5 PUSH2 0xE82 SWAP3 DUP3 ADD ADD SWAP5 PUSH2 0x24E4 JUMP JUMPDEST DUP1 SLOAD DUP7 DUP6 ADD DUP9 ADD MSTORE SWAP3 DUP7 ADD SWAP3 DUP2 ADD PUSH2 0x2521 JUMP JUMPDEST PUSH1 0xFF NOT AND DUP7 DUP6 ADD MSTORE POP POP ISZERO ISZERO PUSH1 0x5 SHL DUP4 ADD ADD SWAP3 POP PUSH2 0xE82 DUP3 PUSH2 0x4AF PUSH2 0x24E4 JUMP JUMPDEST PUSH1 0x22 SWAP1 PUSH4 0x4E487B71 PUSH1 0xE0 SHL PUSH0 MSTORE MSTORE PUSH1 0x24 PUSH0 REVERT JUMPDEST SWAP3 PUSH1 0x7F AND SWAP3 PUSH2 0x24C4 JUMP JUMPDEST CALLVALUE PUSH2 0x5A9 JUMPI PUSH0 CALLDATASIZE PUSH1 0x3 NOT ADD SLT PUSH2 0x5A9 JUMPI PUSH1 0xC SLOAD PUSH1 0x1 PUSH1 0x1 PUSH1 0xA0 SHL SUB AND DUP2 MSTORE PUSH1 0x20 SWAP1 RETURN JUMPDEST PUSH1 0x20 PUSH1 0x40 SWAP3 DUP2 DUP4 MSTORE DUP1 MLOAD SWAP2 DUP3 SWAP2 DUP3 DUP3 DUP7 ADD MSTORE ADD DUP5 DUP5 ADD MCOPY PUSH0 DUP3 DUP3 ADD DUP5 ADD MSTORE PUSH1 0x1F ADD PUSH1 0x1F NOT AND ADD ADD SWAP1 JUMP JUMPDEST PUSH1 0x4 CALLDATALOAD SWAP1 PUSH1 0x1 PUSH1 0x1 PUSH1 0xA0 SHL SUB DUP3 AND DUP3 SUB PUSH2 0x5A9 JUMPI JUMP JUMPDEST PUSH1 0x24 CALLDATALOAD SWAP1 PUSH1 0x1 PUSH1 0x1 PUSH1 0xA0 SHL SUB DUP3 AND DUP3 SUB PUSH2 0x5A9 JUMPI JUMP JUMPDEST SWAP1 DUP2 MLOAD DUP1 DUP3 MSTORE PUSH1 0x20 DUP1 DUP1 SWAP4 ADD SWAP4 ADD SWAP2 PUSH0 JUMPDEST DUP3 DUP2 LT PUSH2 0x2625 JUMPI POP POP POP POP SWAP1 JUMP JUMPDEST DUP4 MLOAD DUP6 MSTORE SWAP4 DUP2 ADD SWAP4 SWAP3 DUP2 ADD SWAP3 PUSH1 0x1 ADD PUSH2 0x2617 JUMP JUMPDEST DUP2 DUP2 MUL SWAP3 SWAP2 DUP2 ISZERO SWAP2 DUP5 DIV EQ OR ISZERO PUSH2 0x264C JUMPI JUMP JUMPDEST PUSH4 0x4E487B71 PUSH1 0xE0 SHL PUSH0 MSTORE PUSH1 0x11 PUSH1 0x4 MSTORE PUSH1 0x24 PUSH0 REVERT JUMPDEST CALLVALUE PUSH2 0x5A9 JUMPI PUSH0 CALLDATASIZE PUSH1 0x3 NOT ADD SLT PUSH2 0x5A9 JUMPI PUSH1 0x20 PUSH1 0x40 MLOAD PUSH9 0x2B5E3AF16B1880000 DUP2 MSTORE RETURN JUMPDEST DUP2 ISZERO PUSH2 0x268D JUMPI DIV SWAP1 JUMP JUMPDEST PUSH4 0x4E487B71 PUSH1 0xE0 SHL PUSH0 MSTORE PUSH1 0x12 PUSH1 0x4 MSTORE PUSH1 0x24 PUSH0 REVERT JUMPDEST CALLVALUE PUSH2 0x5A9 JUMPI PUSH0 CALLDATASIZE PUSH1 0x3 NOT ADD SLT PUSH2 0x5A9 JUMPI PUSH1 0x20 PUSH1 0x40 MLOAD PUSH8 0xDE0B6B3A7640000 DUP2 MSTORE RETURN JUMPDEST PUSH1 0x60 SWAP1 PUSH1 0x3 NOT ADD SLT PUSH2 0x5A9 JUMPI PUSH1 0x1 PUSH1 0x1 PUSH1 0xA0 SHL SUB SWAP1 PUSH1 0x4 CALLDATALOAD DUP3 DUP2 AND DUP2 SUB PUSH2 0x5A9 JUMPI SWAP2 PUSH1 0x24 CALLDATALOAD SWAP1 DUP2 AND DUP2 SUB PUSH2 0x5A9 JUMPI SWAP1 PUSH1 0x44 CALLDATALOAD SWAP1 JUMP JUMPDEST PUSH1 0xC0 SWAP1 PUSH1 0x3 NOT ADD SLT PUSH2 0x5A9 JUMPI PUSH1 0x4 CALLDATALOAD SWAP1 PUSH1 0x24 CALLDATALOAD SWAP1 PUSH1 0x44 CALLDATALOAD SWAP1 PUSH1 0x64 CALLDATALOAD SWAP1 PUSH1 0x84 CALLDATALOAD SWAP1 PUSH1 0xA4 CALLDATALOAD SWAP1 JUMP JUMPDEST SWAP1 DUP2 MLOAD DUP1 DUP3 MSTORE PUSH1 0x20 DUP1 DUP1 SWAP4 ADD SWAP4 ADD SWAP2 PUSH0 JUMPDEST DUP3 DUP2 LT PUSH2 0x273D JUMPI POP POP POP POP SWAP1 JUMP JUMPDEST DUP4 MLOAD PUSH1 0x1 PUSH1 0x1 PUSH1 0xA0 SHL SUB AND DUP6 MSTORE SWAP4 DUP2 ADD SWAP4 SWAP3 DUP2 ADD SWAP3 PUSH1 0x1 ADD PUSH2 0x272F JUMP JUMPDEST SWAP2 SWAP1 DUP3 ADD DUP1 SWAP3 GT PUSH2 0x264C JUMPI JUMP JUMPDEST SWAP2 SWAP1 DUP3 SUB SWAP2 DUP3 GT PUSH2 0x264C JUMPI JUMP JUMPDEST PUSH1 0x6 SLOAD DUP2 LT ISZERO PUSH2 0x27AC JUMPI PUSH1 0x6 PUSH0 MSTORE PUSH1 0x1 SHL PUSH32 0xF652222313E28459528D920B65115C16C04F3EFC82AAEDC97BE59F3F377C0D3F ADD SWAP1 PUSH0 SWAP1 JUMP JUMPDEST PUSH4 0x4E487B71 PUSH1 0xE0 SHL PUSH0 MSTORE PUSH1 0x32 PUSH1 0x4 MSTORE PUSH1 0x24 PUSH0 REVERT JUMPDEST SWAP1 PUSH1 0x1F DUP1 NOT SWAP2 ADD AND DUP2 ADD SWAP1 DUP2 LT PUSH8 0xFFFFFFFFFFFFFFFF DUP3 GT OR PUSH2 0x27E2 JUMPI PUSH1 0x40 MSTORE JUMP JUMPDEST PUSH4 0x4E487B71 PUSH1 0xE0 SHL PUSH0 MSTORE PUSH1 0x41 PUSH1 0x4 MSTORE PUSH1 0x24 PUSH0 REVERT JUMPDEST PUSH8 0xFFFFFFFFFFFFFFFF DUP2 GT PUSH2 0x27E2 JUMPI PUSH1 0x5 SHL PUSH1 0x20 ADD SWAP1 JUMP JUMPDEST ISZERO PUSH2 0x2815 JUMPI JUMP JUMPDEST PUSH1 0x40 MLOAD PUSH3 0x461BCD PUSH1 0xE5 SHL DUP2 MSTORE PUSH1 0x20 PUSH1 0x4 DUP3 ADD MSTORE PUSH1 0xE PUSH1 0x24 DUP3 ADD MSTORE PUSH14 0x4F6E6C7920506572697068657279 PUSH1 0x90 SHL PUSH1 0x44 DUP3 ADD MSTORE PUSH1 0x64 SWAP1 REVERT JUMPDEST ISZERO PUSH2 0x2852 JUMPI JUMP JUMPDEST PUSH1 0x40 MLOAD PUSH3 0x461BCD PUSH1 0xE5 SHL DUP2 MSTORE PUSH1 0x20 PUSH1 0x4 DUP3 ADD MSTORE PUSH1 0x14 PUSH1 0x24 DUP3 ADD MSTORE PUSH20 0x149958985B185B98D9481B9BDD081B9959591959 PUSH1 0x62 SHL PUSH1 0x44 DUP3 ADD MSTORE PUSH1 0x64 SWAP1 REVERT JUMPDEST SWAP1 DUP2 PUSH1 0x20 SWAP2 SUB SLT PUSH2 0x5A9 JUMPI MLOAD PUSH1 0xFF DUP2 AND DUP2 SUB PUSH2 0x5A9 JUMPI SWAP1 JUMP JUMPDEST SWAP1 PUSH2 0x28B1 DUP3 PUSH2 0x27F6 JUMP JUMPDEST PUSH2 0x28BE PUSH1 0x40 MLOAD SWAP2 DUP3 PUSH2 0x27C0 JUMP JUMPDEST DUP3 DUP2 MSTORE DUP1 SWAP3 PUSH2 0x28CF PUSH1 0x1F NOT SWAP2 PUSH2 0x27F6 JUMP JUMPDEST ADD SWAP1 PUSH1 0x20 CALLDATASIZE SWAP2 ADD CALLDATACOPY JUMP JUMPDEST DUP1 MLOAD DUP3 LT ISZERO PUSH2 0x27AC JUMPI PUSH1 0x20 SWAP2 PUSH1 0x5 SHL ADD ADD SWAP1 JUMP JUMPDEST PUSH1 0x9 SLOAD PUSH1 0x40 MLOAD PUSH4 0xFA67079 PUSH1 0xE2 SHL DUP2 MSTORE ADDRESS PUSH1 0x4 DUP3 ADD MSTORE SWAP1 PUSH0 SWAP1 DUP3 SWAP1 PUSH1 0x24 SWAP1 DUP3 SWAP1 PUSH1 0x1 PUSH1 0x1 PUSH1 0xA0 SHL SUB AND GAS STATICCALL SWAP1 DUP2 ISZERO PUSH2 0x29B7 JUMPI PUSH0 SWAP2 PUSH2 0x2929 JUMPI POP SWAP1 JUMP JUMPDEST SWAP1 POP RETURNDATASIZE DUP1 PUSH0 DUP4 RETURNDATACOPY PUSH2 0x293A DUP2 DUP4 PUSH2 0x27C0 JUMP JUMPDEST DUP2 ADD SWAP1 PUSH1 0x20 SWAP1 DUP2 DUP2 DUP5 SUB SLT PUSH2 0x5A9 JUMPI DUP1 MLOAD SWAP1 PUSH8 0xFFFFFFFFFFFFFFFF DUP3 GT PUSH2 0x5A9 JUMPI ADD SWAP2 DUP1 PUSH1 0x1F DUP5 ADD SLT ISZERO PUSH2 0x5A9 JUMPI DUP3 MLOAD PUSH2 0x2973 DUP2 PUSH2 0x27F6 JUMP JUMPDEST SWAP4 PUSH2 0x2981 PUSH1 0x40 MLOAD SWAP6 DUP7 PUSH2 0x27C0 JUMP JUMPDEST DUP2 DUP6 MSTORE DUP4 DUP1 DUP7 ADD SWAP3 PUSH1 0x5 SHL DUP3 ADD ADD SWAP3 DUP4 GT PUSH2 0x5A9 JUMPI DUP4 ADD SWAP1 JUMPDEST DUP3 DUP3 LT PUSH2 0x29A8 JUMPI POP POP POP POP SWAP1 JUMP JUMPDEST DUP2 MLOAD DUP2 MSTORE SWAP1 DUP4 ADD SWAP1 DUP4 ADD PUSH2 0x299A JUMP JUMPDEST PUSH1 0x40 MLOAD RETURNDATASIZE PUSH0 DUP3 RETURNDATACOPY RETURNDATASIZE SWAP1 REVERT JUMPDEST PUSH2 0x29CA PUSH2 0x2BA2 JUMP JUMPDEST SWAP2 SWAP1 PUSH1 0x6 SLOAD SWAP1 PUSH2 0x29D9 DUP3 PUSH2 0x27F6 JUMP JUMPDEST SWAP2 PUSH2 0x29E7 PUSH1 0x40 MLOAD SWAP4 DUP5 PUSH2 0x27C0 JUMP JUMPDEST DUP1 DUP4 MSTORE PUSH1 0x1F NOT PUSH2 0x29F6 DUP3 PUSH2 0x27F6 JUMP JUMPDEST ADD CALLDATASIZE PUSH1 0x20 DUP6 ADD CALLDATACOPY PUSH2 0x2A06 DUP2 PUSH2 0x28A7 JUMP JUMPDEST SWAP5 PUSH0 JUMPDEST DUP3 DUP2 LT PUSH2 0x2A18 JUMPI POP POP POP POP SWAP2 SWAP1 JUMP JUMPDEST PUSH2 0x2A22 DUP2 DUP4 PUSH2 0x28D9 JUMP JUMPDEST MLOAD SWAP1 PUSH2 0x2710 SWAP2 DUP3 DUP2 MUL SWAP3 DUP2 DUP5 DIV EQ SWAP1 ISZERO OR ISZERO PUSH2 0x264C JUMPI PUSH2 0x2A44 DUP6 PUSH1 0x1 SWAP4 PUSH2 0x2683 JUMP JUMPDEST PUSH2 0x2A4D DUP3 PUSH2 0x2774 JUMP JUMPDEST POP DUP4 ADD SLOAD DUP4 SWAP2 DUP2 DUP2 GT ISZERO PUSH2 0x2A82 JUMPI SWAP1 PUSH2 0x2A65 SWAP2 PUSH2 0x2767 JUMP JUMPDEST PUSH2 0x2A6F DUP4 DUP12 PUSH2 0x28D9 JUMP JUMPDEST MSTORE PUSH2 0x2A7A DUP3 DUP9 PUSH2 0x28D9 JUMP JUMPDEST MSTORE JUMPDEST ADD PUSH2 0x2A09 JUMP JUMPDEST SWAP1 PUSH2 0x2A8D SWAP3 POP PUSH2 0x2767 JUMP JUMPDEST PUSH2 0x2A97 DUP3 DUP11 PUSH2 0x28D9 JUMP JUMPDEST MSTORE PUSH0 PUSH2 0x2AA3 DUP3 DUP9 PUSH2 0x28D9 JUMP JUMPDEST MSTORE PUSH2 0x2A7C JUMP JUMPDEST PUSH2 0x2AB1 PUSH2 0x29C2 JUMP JUMPDEST PUSH0 JUMPDEST DUP2 MLOAD DUP2 LT ISZERO PUSH2 0x2AF8 JUMPI PUSH2 0x2AC6 DUP2 DUP5 PUSH2 0x28D9 JUMP JUMPDEST MLOAD ISZERO ISZERO DUP1 PUSH2 0x2AE3 JUMPI JUMPDEST PUSH2 0x2ADB JUMPI PUSH1 0x1 ADD PUSH2 0x2AB3 JUMP JUMPDEST POP POP POP PUSH1 0x1 SWAP1 JUMP JUMPDEST POP PUSH2 0x2AEE DUP2 DUP4 PUSH2 0x28D9 JUMP JUMPDEST MLOAD PUSH1 0x7 SLOAD LT PUSH2 0x2ACF JUMP JUMPDEST POP POP POP PUSH0 SWAP1 JUMP JUMPDEST PUSH1 0x9 SLOAD PUSH1 0x40 MLOAD PUSH4 0xA3E113FB PUSH1 0xE0 SHL DUP2 MSTORE ADDRESS PUSH1 0x4 DUP3 ADD MSTORE PUSH1 0x1 PUSH1 0x1 PUSH1 0xA0 SHL SUB SWAP3 DUP4 AND PUSH1 0x24 DUP3 ADD MSTORE SWAP2 PUSH1 0x20 SWAP2 DUP4 SWAP2 AND DUP2 DUP1 PUSH1 0x44 DUP2 ADD JUMPDEST SUB SWAP2 GAS STATICCALL SWAP1 DUP2 ISZERO PUSH2 0x29B7 JUMPI PUSH0 SWAP2 PUSH2 0x2B48 JUMPI POP SWAP1 JUMP JUMPDEST SWAP1 POP PUSH1 0x20 DUP2 RETURNDATASIZE PUSH1 0x20 GT PUSH2 0x2B6F JUMPI JUMPDEST DUP2 PUSH2 0x2B63 PUSH1 0x20 SWAP4 DUP4 PUSH2 0x27C0 JUMP JUMPDEST DUP2 ADD SUB SLT PUSH2 0x5A9 JUMPI MLOAD SWAP1 JUMP JUMPDEST RETURNDATASIZE SWAP2 POP PUSH2 0x2B56 JUMP JUMPDEST PUSH2 0x2B7F PUSH2 0x2BA2 JUMP JUMPDEST POP PUSH1 0x2 SLOAD DUP1 ISZERO PUSH2 0x2B9C JUMPI PUSH2 0x90A PUSH2 0x2B99 SWAP3 PUSH1 0x8 SLOAD SWAP1 PUSH2 0x2639 JUMP JUMPDEST SWAP1 JUMP JUMPDEST POP POP PUSH0 SWAP1 JUMP JUMPDEST PUSH1 0x6 SLOAD SWAP1 PUSH0 PUSH2 0x2BB0 DUP4 PUSH2 0x28A7 JUMP JUMPDEST PUSH1 0xB SLOAD SWAP1 SWAP4 PUSH0 SWAP2 PUSH1 0x1 PUSH1 0x1 PUSH1 0xA0 SHL SUB SWAP1 DUP2 AND SWAP1 JUMPDEST DUP3 DUP5 LT PUSH2 0x2BD3 JUMPI POP POP POP POP SWAP2 SWAP1 JUMP JUMPDEST SWAP1 SWAP2 SWAP3 SWAP4 PUSH2 0x2C12 PUSH1 0x1 SWAP2 DUP4 PUSH2 0x2BE7 DUP9 PUSH2 0x2774 JUMP JUMPDEST POP SLOAD AND PUSH2 0x2BF3 DUP2 PUSH2 0x2AFF JUMP JUMPDEST SWAP1 DUP7 DUP2 SUB PUSH2 0x2C1C JUMPI POP PUSH2 0x2C06 DUP9 DUP12 PUSH2 0x28D9 JUMP JUMPDEST MSTORE JUMPDEST PUSH2 0x2436 DUP8 DUP11 PUSH2 0x28D9 JUMP JUMPDEST SWAP5 ADD SWAP3 SWAP2 SWAP1 PUSH2 0x2BC4 JUMP JUMPDEST SWAP1 PUSH2 0x2C26 SWAP2 PUSH2 0x3263 JUMP JUMPDEST PUSH2 0x2C30 DUP9 DUP12 PUSH2 0x28D9 JUMP JUMPDEST MSTORE PUSH2 0x2C08 JUMP JUMPDEST PUSH1 0x1 PUSH1 0x1 PUSH1 0xA0 SHL SUB AND SWAP1 DUP2 ISZERO PUSH2 0x2C93 JUMPI PUSH32 0xDDF252AD1BE2C89B69C2B068FC378DAA952BA7F163C4A11628F55A4DF523B3EF PUSH1 0x20 DUP3 PUSH2 0x2C77 PUSH0 SWAP5 PUSH1 0x2 SLOAD PUSH2 0x275A JUMP JUMPDEST PUSH1 0x2 SSTORE DUP5 DUP5 MSTORE DUP4 DUP3 MSTORE PUSH1 0x40 DUP5 KECCAK256 DUP2 DUP2 SLOAD ADD SWAP1 SSTORE PUSH1 0x40 MLOAD SWAP1 DUP2 MSTORE LOG3 JUMP JUMPDEST PUSH1 0x40 MLOAD PUSH4 0xEC442F05 PUSH1 0xE0 SHL DUP2 MSTORE PUSH0 PUSH1 0x4 DUP3 ADD MSTORE PUSH1 0x24 SWAP1 REVERT JUMPDEST PUSH1 0x6 SLOAD SWAP1 PUSH0 JUMPDEST DUP3 DUP2 LT PUSH2 0x2CBF JUMPI POP POP POP PUSH0 SWAP1 JUMP JUMPDEST PUSH2 0x2CC8 DUP2 PUSH2 0x2774 JUMP JUMPDEST POP SLOAD PUSH1 0x1 PUSH1 0x1 PUSH1 0xA0 SHL SUB DUP4 DUP2 AND SWAP2 AND EQ PUSH2 0x2CE4 JUMPI PUSH1 0x1 ADD PUSH2 0x2CB1 JUMP JUMPDEST PUSH1 0x1 SWAP3 POP PUSH2 0x2CF2 SWAP2 POP PUSH2 0x2774 JUMP JUMPDEST POP ADD SLOAD SWAP1 JUMP JUMPDEST SWAP2 PUSH1 0x1 PUSH1 0x1 PUSH1 0xA0 SHL SUB DUP1 DUP5 AND SWAP3 DUP4 ISZERO PUSH2 0x2DA2 JUMPI AND SWAP3 DUP4 ISZERO PUSH2 0x2C93 JUMPI DUP3 PUSH0 MSTORE PUSH0 PUSH1 0x20 MSTORE PUSH1 0x40 PUSH0 KECCAK256 SLOAD SWAP1 DUP3 DUP3 LT PUSH2 0x2D70 JUMPI POP DUP2 PUSH32 0xDDF252AD1BE2C89B69C2B068FC378DAA952BA7F163C4A11628F55A4DF523B3EF SWAP3 PUSH1 0x20 SWAP3 DUP6 PUSH0 MSTORE PUSH0 DUP5 MSTORE SUB PUSH1 0x40 PUSH0 KECCAK256 SSTORE DUP5 PUSH0 MSTORE PUSH1 0x40 PUSH0 KECCAK256 DUP2 DUP2 SLOAD ADD SWAP1 SSTORE PUSH1 0x40 MLOAD SWAP1 DUP2 MSTORE LOG3 JUMP JUMPDEST PUSH1 0x40 MLOAD PUSH4 0x391434E3 PUSH1 0xE2 SHL DUP2 MSTORE PUSH1 0x1 PUSH1 0x1 PUSH1 0xA0 SHL SUB SWAP2 SWAP1 SWAP2 AND PUSH1 0x4 DUP3 ADD MSTORE PUSH1 0x24 DUP2 ADD SWAP2 SWAP1 SWAP2 MSTORE PUSH1 0x44 DUP2 ADD DUP3 SWAP1 MSTORE PUSH1 0x64 SWAP1 REVERT JUMPDEST PUSH1 0x40 MLOAD PUSH4 0x4B637E8F PUSH1 0xE1 SHL DUP2 MSTORE PUSH0 PUSH1 0x4 DUP3 ADD MSTORE PUSH1 0x24 SWAP1 REVERT JUMPDEST ISZERO PUSH2 0x2DC1 JUMPI JUMP JUMPDEST PUSH1 0x40 MLOAD PUSH3 0x461BCD PUSH1 0xE5 SHL DUP2 MSTORE PUSH1 0x20 PUSH1 0x4 DUP3 ADD MSTORE PUSH1 0x10 PUSH1 0x24 DUP3 ADD MSTORE PUSH16 0x11549497D1125597D253951154939053 PUSH1 0x82 SHL PUSH1 0x44 DUP3 ADD MSTORE PUSH1 0x64 SWAP1 REVERT JUMPDEST DUP1 ISZERO PUSH2 0x2E2C JUMPI PUSH15 0xC097CE7BC90715B34B9F1000000000 SWAP1 DUP1 PUSH1 0x1 SHR DUP3 ADD DUP1 DUP4 GT PUSH2 0x264C JUMPI PUSH2 0x90A PUSH2 0x2B99 SWAP4 DUP3 LT ISZERO PUSH2 0x2DBA JUMP JUMPDEST PUSH1 0x40 MLOAD PUSH3 0x461BCD PUSH1 0xE5 SHL DUP2 MSTORE PUSH1 0x20 PUSH1 0x4 DUP3 ADD MSTORE PUSH1 0xC PUSH1 0x24 DUP3 ADD MSTORE PUSH12 0x4552525F4449565F5A45524F PUSH1 0xA0 SHL PUSH1 0x44 DUP3 ADD MSTORE PUSH1 0x64 SWAP1 REVERT JUMPDEST SWAP1 DUP1 ISZERO PUSH2 0x2E2C JUMPI PUSH8 0xDE0B6B3A7640000 SWAP2 DUP3 DUP2 MUL SWAP1 DUP1 ISZERO DUP2 DUP4 DIV DUP6 EQ DUP2 OR ISZERO PUSH2 0x264C JUMPI PUSH2 0x2B99 SWAP5 PUSH2 0x2E98 SWAP3 DUP3 ISZERO PUSH2 0x2EB1 JUMPI POP POP PUSH2 0x2DBA JUMP JUMPDEST PUSH2 0x90A PUSH2 0x2EA8 DUP4 PUSH1 0x1 SHR DUP4 PUSH2 0x275A JUMP JUMPDEST SWAP2 DUP3 LT ISZERO PUSH2 0x2DBA JUMP JUMPDEST PUSH2 0x2EBD SWAP2 SWAP3 POP DUP5 PUSH2 0x2683 JUMP JUMPDEST EQ PUSH0 DUP1 PUSH2 0x15AD JUMP JUMPDEST SWAP1 PUSH2 0x2ED0 SWAP1 DUP3 PUSH2 0x275A JUMP JUMPDEST SWAP1 DUP2 LT PUSH2 0x2EDA JUMPI SWAP1 JUMP JUMPDEST PUSH1 0x40 MLOAD PUSH3 0x461BCD PUSH1 0xE5 SHL DUP2 MSTORE PUSH1 0x20 PUSH1 0x4 DUP3 ADD MSTORE PUSH1 0x10 PUSH1 0x24 DUP3 ADD MSTORE PUSH16 0x4552525F4144445F4F564552464C4F57 PUSH1 0x80 SHL PUSH1 0x44 DUP3 ADD MSTORE PUSH1 0x64 SWAP1 REVERT JUMPDEST SWAP2 SWAP1 PUSH1 0x1 SWAP3 DUP4 DUP2 LT PUSH2 0x30C1 JUMPI PUSH8 0x1BC16D674EC7FFFF DUP2 GT PUSH2 0x3083 JUMPI PUSH8 0xDE0B6B3A7640000 SWAP2 DUP3 DUP2 DIV SWAP1 DUP4 DUP3 MUL SWAP2 DUP1 DUP4 DIV DUP6 EQ SWAP1 ISZERO OR ISZERO PUSH2 0x264C JUMPI PUSH2 0x2F57 DUP3 DUP6 SWAP3 PUSH2 0x321B JUMP JUMPDEST SWAP2 DIV SWAP2 DUP1 DUP7 DUP5 AND ISZERO PUSH2 0x307D JUMPI DUP2 JUMPDEST SWAP4 DUP8 SHR SWAP1 DUP2 JUMPDEST PUSH2 0x3050 JUMPI POP POP DUP2 ISZERO PUSH2 0x3048 JUMPI PUSH2 0x2F83 SWAP1 SWAP4 SWAP2 SWAP4 PUSH2 0x32A7 JUMP JUMPDEST DUP3 SWAP5 SWAP2 DUP4 SWAP2 PUSH0 SWAP3 DUP10 SWAP6 JUMPDEST PUSH4 0x5F5E100 DUP3 LT ISZERO PUSH2 0x2FAC JUMPI JUMPDEST POP POP POP POP POP POP POP PUSH2 0x2B99 SWAP3 SWAP4 POP PUSH2 0x31AA JUMP JUMPDEST SWAP1 SWAP2 SWAP3 SWAP4 SWAP5 SWAP6 SWAP8 DUP2 DUP10 MUL SWAP3 DUP10 DUP5 DIV DUP4 EQ DUP11 ISZERO OR ISZERO PUSH2 0x264C JUMPI DUP4 PUSH2 0x304 PUSH2 0x2FE9 SWAP3 PUSH2 0xCE1 PUSH2 0x2FE2 PUSH2 0x2FDC DUP12 SWAP10 PUSH2 0x3212 JUMP JUMPDEST DUP14 PUSH2 0x3319 JUMP JUMPDEST SWAP9 SWAP1 PUSH2 0x31AA JUMP JUMPDEST SWAP3 DUP4 ISZERO PUSH2 0x3041 JUMPI DUP5 PUSH2 0x3039 JUMPI JUMPDEST PUSH2 0x3031 JUMPI JUMPDEST DUP3 DUP7 ISZERO PUSH2 0x3022 JUMPI PUSH2 0x300B SWAP2 PUSH2 0x321B JUMP JUMPDEST SWAP8 JUMPDEST PUSH0 NOT DUP2 EQ PUSH2 0x264C JUMPI DUP11 ADD SWAP6 SWAP5 SWAP4 SWAP3 SWAP2 SWAP1 PUSH2 0x2F8D JUMP JUMPDEST PUSH2 0x302B SWAP2 PUSH2 0x2EC5 JUMP JUMPDEST SWAP8 PUSH2 0x300D JUMP JUMPDEST SWAP5 ISZERO SWAP5 PUSH2 0x2FFB JUMP JUMPDEST SWAP6 ISZERO SWAP6 PUSH2 0x2FF6 JUMP JUMPDEST POP SWAP8 PUSH2 0x2F9A JUMP JUMPDEST POP SWAP1 SWAP4 POP POP POP JUMP JUMPDEST DUP1 PUSH2 0x305A SWAP2 PUSH2 0x31AA JUMP JUMPDEST SWAP1 DUP8 DUP2 AND PUSH2 0x306C JUMPI JUMPDEST DUP8 SHR SWAP1 DUP2 PUSH2 0x2F6B JUMP JUMPDEST SWAP4 DUP2 PUSH2 0x3077 SWAP2 PUSH2 0x31AA JUMP JUMPDEST SWAP4 PUSH2 0x3063 JUMP JUMPDEST DUP5 PUSH2 0x2F65 JUMP JUMPDEST PUSH1 0x40 MLOAD PUSH3 0x461BCD PUSH1 0xE5 SHL DUP2 MSTORE PUSH1 0x20 PUSH1 0x4 DUP3 ADD MSTORE PUSH1 0x16 PUSH1 0x24 DUP3 ADD MSTORE PUSH22 0x8AA4A4BE84A09EAEBE8482A68ABEA89E9EBE90928E9 PUSH1 0x53 SHL PUSH1 0x44 DUP3 ADD MSTORE PUSH1 0x64 SWAP1 REVERT JUMPDEST PUSH1 0x40 MLOAD PUSH3 0x461BCD PUSH1 0xE5 SHL DUP2 MSTORE PUSH1 0x20 PUSH1 0x4 DUP3 ADD MSTORE PUSH1 0x15 PUSH1 0x24 DUP3 ADD MSTORE PUSH21 0x4552525F42504F575F424153455F544F4F5F4C4F57 PUSH1 0x58 SHL PUSH1 0x44 DUP3 ADD MSTORE PUSH1 0x64 SWAP1 REVERT JUMPDEST ISZERO PUSH2 0x3105 JUMPI JUMP JUMPDEST PUSH1 0x40 MLOAD PUSH3 0x461BCD PUSH1 0xE5 SHL DUP2 MSTORE PUSH1 0x20 PUSH1 0x4 DUP3 ADD MSTORE PUSH1 0x10 PUSH1 0x24 DUP3 ADD MSTORE PUSH16 0x4552525F4D554C5F4F564552464C4F57 PUSH1 0x80 SHL PUSH1 0x44 DUP3 ADD MSTORE PUSH1 0x64 SWAP1 REVERT JUMPDEST PUSH8 0xDE0B6B3A764001E SWAP1 DUP2 DUP2 MUL SWAP2 DUP2 ISZERO SWAP1 DUP3 DUP5 DIV DUP2 EQ DUP3 OR ISZERO PUSH2 0x264C JUMPI PUSH2 0x316B SWAP3 DUP3 ISZERO PUSH2 0x3196 JUMPI POP POP PUSH2 0x30FE JUMP JUMPDEST PUSH8 0x6F05B59D3B20000 DUP2 ADD DUP1 DUP3 GT PUSH2 0x264C JUMPI PUSH2 0x3192 PUSH8 0xDE0B6B3A7640000 SWAP3 DUP3 LT ISZERO PUSH2 0x30FE JUMP JUMPDEST DIV SWAP1 JUMP JUMPDEST PUSH2 0x31A2 SWAP2 SWAP3 POP DUP5 PUSH2 0x2683 JUMP JUMPDEST EQ PUSH0 DUP1 PUSH2 0x143C JUMP JUMPDEST PUSH2 0x316B SWAP1 PUSH2 0x31B8 DUP4 DUP3 PUSH2 0x2639 JUMP JUMPDEST SWAP3 DUP2 ISZERO SWAP2 DUP3 ISZERO PUSH2 0x3196 JUMPI POP POP PUSH2 0x30FE JUMP JUMPDEST PUSH2 0x31D2 SWAP1 PUSH2 0x32E0 JUMP JUMPDEST PUSH2 0x31D9 JUMPI SWAP1 JUMP JUMPDEST PUSH1 0x40 MLOAD PUSH3 0x461BCD PUSH1 0xE5 SHL DUP2 MSTORE PUSH1 0x20 PUSH1 0x4 DUP3 ADD MSTORE PUSH1 0x11 PUSH1 0x24 DUP3 ADD MSTORE PUSH17 0x4552525F5355425F554E444552464C4F57 PUSH1 0x78 SHL PUSH1 0x44 DUP3 ADD MSTORE PUSH1 0x64 SWAP1 REVERT JUMPDEST PUSH2 0x31D2 SWAP1 PUSH2 0x32A7 JUMP JUMPDEST SWAP1 PUSH2 0x31D2 SWAP2 PUSH2 0x3319 JUMP JUMPDEST ISZERO PUSH2 0x322C JUMPI JUMP JUMPDEST PUSH1 0x40 MLOAD PUSH3 0x461BCD PUSH1 0xE5 SHL DUP2 MSTORE PUSH1 0x20 PUSH1 0x4 DUP3 ADD MSTORE PUSH1 0xF PUSH1 0x24 DUP3 ADD MSTORE PUSH15 0x8AA4A4BE9A82A890BE82A0A0A49EB PUSH1 0x8B SHL PUSH1 0x44 DUP3 ADD MSTORE PUSH1 0x64 SWAP1 REVERT JUMPDEST PUSH1 0xC SLOAD PUSH1 0xB SLOAD PUSH1 0x40 MLOAD PUSH4 0x248391FF PUSH1 0xE0 SHL DUP2 MSTORE PUSH1 0x1 PUSH1 0x1 PUSH1 0xA0 SHL SUB SWAP4 DUP5 AND PUSH1 0x4 DUP3 ADD MSTORE SWAP1 DUP4 AND PUSH1 0x24 DUP3 ADD MSTORE PUSH1 0x44 DUP2 ADD SWAP4 SWAP1 SWAP4 MSTORE PUSH1 0x20 SWAP2 DUP4 SWAP2 AND DUP2 DUP1 PUSH1 0x64 DUP2 ADD PUSH2 0x2B33 JUMP JUMPDEST PUSH8 0xDE0B6B3A7640000 DUP1 DUP3 LT PUSH2 0x32D0 JUMPI POP PUSH8 0xDE0B6B3A763FFFF NOT DUP2 ADD SWAP1 DUP2 GT PUSH2 0x264C JUMPI SWAP1 PUSH0 SWAP1 JUMP JUMPDEST SWAP1 DUP2 SUB SWAP1 DUP2 GT PUSH2 0x264C JUMPI SWAP1 PUSH1 0x1 SWAP1 JUMP JUMPDEST PUSH8 0xDE0B6B3A7640000 SWAP1 DUP1 DUP3 LT PUSH2 0x32FF JUMPI DUP2 SUB SWAP1 DUP2 GT PUSH2 0x264C JUMPI SWAP1 PUSH0 SWAP1 JUMP JUMPDEST PUSH8 0xDE0B6B3A763FFFF NOT DUP2 ADD SWAP2 POP DUP2 GT PUSH2 0x264C JUMPI SWAP1 PUSH1 0x1 SWAP1 JUMP JUMPDEST DUP2 DUP2 LT PUSH2 0x332F JUMPI SWAP1 PUSH2 0x332A SWAP2 PUSH2 0x2767 JUMP JUMPDEST SWAP1 PUSH0 SWAP1 JUMP JUMPDEST PUSH2 0x3338 SWAP2 PUSH2 0x2767 JUMP JUMPDEST SWAP1 PUSH1 0x1 SWAP1 JUMP INVALID LOG2 PUSH5 0x6970667358 0x22 SLT KECCAK256 0xB7 SHL MUL 0xD2 0xC9 0xC6 PUSH17 0x70ABD5EDD7AED54964FA1025337A855A65 JUMPDEST 0xA9 PUSH23 0x286C7BC78B64736F6C6343000819003300000000000000 "},"gasEstimates":{"creation":{"codeDepositCost":"2634400","executionCost":"infinite","totalCost":"infinite"},"external":{"BONE()":"1191","BPOW_PRECISION()":"346","EXIT_FEE()":"1225","INIT_POOL_SUPPLY()":"874","MAX_BOUND_TOKENS()":"1006","MAX_BPOW_BASE()":"1138","MAX_FEE()":"1116","MAX_IN_RATIO()":"1402","MAX_OUT_RATIO()":"918","MAX_TOTAL_WEIGHT()":"289","MAX_WEIGHT()":"1367","MIN_BALANCE()":"764","MIN_BOUND_TOKENS()":"1050","MIN_BPOW_BASE()":"1072","MIN_FEE()":"654","MIN_WEIGHT()":"399","ONE()":"3266","SWAP_FEE_BPS()":"566","allowance(address,address)":"3716","approve(address,uint256)":"24410","assetInfos(uint256)":"9868","assetLiquidity(uint256)":"infinite","balanceOf(address)":"2887","baseAsset()":"3375","burn(address)":"infinite","calcInGivenOut(uint256,uint256,uint256,uint256,uint256,uint256)":"infinite","calcOraclePrice(address,address)":"infinite","calcOutGivenIn(uint256,uint256,uint256,uint256,uint256,uint256)":"infinite","calcPoolInGivenSingleOut(uint256,uint256,uint256,uint256,uint256,uint256)":"infinite","calcPoolOutGivenSingleIn(uint256,uint256,uint256,uint256,uint256,uint256)":"infinite","calcSingleInGivenPoolOut(uint256,uint256,uint256,uint256,uint256,uint256)":"infinite","calcSingleOutGivenPoolIn(uint256,uint256,uint256,uint256,uint256,uint256)":"infinite","calcSpotPrice(address,address)":"infinite","calcSpotPrice(uint256,uint256,uint256,uint256,uint256)":"infinite","computeTotalValuation()":"infinite","decimals()":"456","factory()":"3331","getAmountOut(address,address,uint256)":"infinite","getAssetReserve(address)":"infinite","getAssets()":"infinite","getColor()":"946","getDeviation()":"infinite","getReserves()":"infinite","getWeights()":"infinite","isRebalanceNeeded()":"infinite","liquidity()":"infinite","mint(address,uint256[])":"infinite","name()":"infinite","performRebalanceIfNeeded()":"infinite","periphery()":"2803","rebalanceWeights(address)":"infinite","rebalancer()":"2280","swap(address,address,uint256,address)":"infinite","symbol()":"infinite","totalSupply()":"2430","transfer(address,uint256)":"51576","transferFrom(address,address,uint256)":"75718","trigger()":"2804","unitPrice()":"infinite"},"internal":{"_calculateAmountsToAdd(uint256,uint256[] memory)":"infinite","_calculateLiquidity(uint256,uint256)":"infinite","_calculateTotalAddedLiquidity(uint256[] memory)":"infinite","_computeTotalValuation()":"infinite","_convertBaseToToken(address,uint256)":"infinite","_convertTokenToBase(address,uint256)":"infinite","_getTargetWeight(address)":"infinite","_performRebalanceIfNeeded()":"infinite","_swapExactAmountIn(address,uint256,address,uint256,uint256)":"infinite","_swapExactAmountOut(address,uint256,address,uint256,uint256)":"infinite","initializeAssets(address[] memory,uint256[] memory)":"infinite","max(uint8,uint8)":"infinite","min(uint8,uint8)":"infinite"}},"methodIdentifiers":{"BONE()":"c36596a6","BPOW_PRECISION()":"189d00ca","EXIT_FEE()":"c6580d12","INIT_POOL_SUPPLY()":"9381cd2b","MAX_BOUND_TOKENS()":"b0e0d136","MAX_BPOW_BASE()":"bc694ea2","MAX_FEE()":"bc063e1a","MAX_IN_RATIO()":"ec093021","MAX_OUT_RATIO()":"992e2a92","MAX_TOTAL_WEIGHT()":"09a3bbe4","MAX_WEIGHT()":"e4a28a52","MIN_BALANCE()":"867378c5","MIN_BOUND_TOKENS()":"b7b800a4","MIN_BPOW_BASE()":"ba019dab","MIN_FEE()":"76c7a3c7","MIN_WEIGHT()":"218b5382","ONE()":"c2ee3a08","SWAP_FEE_BPS()":"67a6c440","allowance(address,address)":"dd62ed3e","approve(address,uint256)":"095ea7b3","assetInfos(uint256)":"d14ef46d","assetLiquidity(uint256)":"cf8fa764","balanceOf(address)":"70a08231","baseAsset()":"cdf456e1","burn(address)":"89afcb44","calcInGivenOut(uint256,uint256,uint256,uint256,uint256,uint256)":"f8d6aed4","calcOraclePrice(address,address)":"58d19698","calcOutGivenIn(uint256,uint256,uint256,uint256,uint256,uint256)":"ba9530a6","calcPoolInGivenSingleOut(uint256,uint256,uint256,uint256,uint256,uint256)":"82f652ad","calcPoolOutGivenSingleIn(uint256,uint256,uint256,uint256,uint256,uint256)":"8656b653","calcSingleInGivenPoolOut(uint256,uint256,uint256,uint256,uint256,uint256)":"5c1bbaf7","calcSingleOutGivenPoolIn(uint256,uint256,uint256,uint256,uint256,uint256)":"89298012","calcSpotPrice(address,address)":"0d0fa029","calcSpotPrice(uint256,uint256,uint256,uint256,uint256)":"a221ee49","computeTotalValuation()":"36bf6e39","decimals()":"313ce567","factory()":"c45a0155","getAmountOut(address,address,uint256)":"4aa06652","getAssetReserve(address)":"b2b55d70","getAssets()":"67e4ac2c","getColor()":"9a86139b","getDeviation()":"89ab3532","getReserves()":"0902f1ac","getWeights()":"22acb867","isRebalanceNeeded()":"8a77c8dc","liquidity()":"1a686502","mint(address,uint256[])":"de836ebd","name()":"06fdde03","performRebalanceIfNeeded()":"f47b45e8","periphery()":"77aace1a","rebalanceWeights(address)":"0723c999","rebalancer()":"01d22ccd","swap(address,address,uint256,address)":"6e81221c","symbol()":"95d89b41","totalSupply()":"18160ddd","transfer(address,uint256)":"a9059cbb","transferFrom(address,address,uint256)":"23b872dd","trigger()":"7fec8d38","unitPrice()":"e73faa2d"}},"storageLayout":{"storage":[{"astId":1159,"contract":"contracts/BaluniV1Pool.sol:BaluniV1Pool","label":"_balances","offset":0,"slot":"0","type":"t_mapping(t_address,t_uint256)"},{"astId":1165,"contract":"contracts/BaluniV1Pool.sol:BaluniV1Pool","label":"_allowances","offset":0,"slot":"1","type":"t_mapping(t_address,t_mapping(t_address,t_uint256))"},{"astId":1167,"contract":"contracts/BaluniV1Pool.sol:BaluniV1Pool","label":"_totalSupply","offset":0,"slot":"2","type":"t_uint256"},{"astId":1169,"contract":"contracts/BaluniV1Pool.sol:BaluniV1Pool","label":"_name","offset":0,"slot":"3","type":"t_string_storage"},{"astId":1171,"contract":"contracts/BaluniV1Pool.sol:BaluniV1Pool","label":"_symbol","offset":0,"slot":"4","type":"t_string_storage"},{"astId":2049,"contract":"contracts/BaluniV1Pool.sol:BaluniV1Pool","label":"_status","offset":0,"slot":"5","type":"t_uint256"},{"astId":2235,"contract":"contracts/BaluniV1Pool.sol:BaluniV1Pool","label":"assetInfos","offset":0,"slot":"6","type":"t_array(t_struct(AssetInfo)2255_storage)dyn_storage"},{"astId":2237,"contract":"contracts/BaluniV1Pool.sol:BaluniV1Pool","label":"trigger","offset":0,"slot":"7","type":"t_uint256"},{"astId":2239,"contract":"contracts/BaluniV1Pool.sol:BaluniV1Pool","label":"ONE","offset":0,"slot":"8","type":"t_uint256"},{"astId":2241,"contract":"contracts/BaluniV1Pool.sol:BaluniV1Pool","label":"periphery","offset":0,"slot":"9","type":"t_address"},{"astId":2243,"contract":"contracts/BaluniV1Pool.sol:BaluniV1Pool","label":"factory","offset":0,"slot":"10","type":"t_address"},{"astId":2248,"contract":"contracts/BaluniV1Pool.sol:BaluniV1Pool","label":"baseAsset","offset":0,"slot":"11","type":"t_address"},{"astId":2250,"contract":"contracts/BaluniV1Pool.sol:BaluniV1Pool","label":"rebalancer","offset":0,"slot":"12","type":"t_address"}],"types":{"t_address":{"encoding":"inplace","label":"address","numberOfBytes":"20"},"t_array(t_struct(AssetInfo)2255_storage)dyn_storage":{"base":"t_struct(AssetInfo)2255_storage","encoding":"dynamic_array","label":"struct BaluniV1Pool.AssetInfo[]","numberOfBytes":"32"},"t_mapping(t_address,t_mapping(t_address,t_uint256))":{"encoding":"mapping","key":"t_address","label":"mapping(address => mapping(address => uint256))","numberOfBytes":"32","value":"t_mapping(t_address,t_uint256)"},"t_mapping(t_address,t_uint256)":{"encoding":"mapping","key":"t_address","label":"mapping(address => uint256)","numberOfBytes":"32","value":"t_uint256"},"t_string_storage":{"encoding":"bytes","label":"string","numberOfBytes":"32"},"t_struct(AssetInfo)2255_storage":{"encoding":"inplace","label":"struct BaluniV1Pool.AssetInfo","members":[{"astId":2252,"contract":"contracts/BaluniV1Pool.sol:BaluniV1Pool","label":"asset","offset":0,"slot":"0","type":"t_address"},{"astId":2254,"contract":"contracts/BaluniV1Pool.sol:BaluniV1Pool","label":"weight","offset":0,"slot":"1","type":"t_uint256"}],"numberOfBytes":"64"},"t_uint256":{"encoding":"inplace","label":"uint256","numberOfBytes":"32"}}},"userdoc":{"kind":"user","methods":{"burn(address)":{"notice":"This function can only be called by the periphery contract.The pool tokens must have a balance greater than 0.The total supply of pool tokens must be greater than 0.The function calculates the amounts of each underlying asset to transfer based on the share of pool tokens being burned.A fee is deducted from the share of pool tokens being burned and transferred to the treasury address.The function checks if the pool has sufficient liquidity before performing any transfers.If any transfer fails, the function reverts the entire operation.After the transfers, the function updates the reserves of the pool.Emits a `Burn` event with the address and share of pool tokens burned."}},"version":1}}}}