{"contracts/balancer/BColor.sol":{"BBronze":{"abi":[{"inputs":[],"name":"getColor","outputs":[{"internalType":"bytes32","name":"","type":"bytes32"}],"stateMutability":"view","type":"function"}],"devdoc":{"kind":"dev","methods":{},"version":1},"evm":{"bytecode":{"linkReferences":{},"object":"60808060405234601357607c908160188239f35b5f80fdfe60808060405260043610156011575f80fd5b5f3560e01c639a86139b146023575f80fd5b346042575f3660031901126042576542524f4e5a4560d01b8152602090f35b5f80fdfea2646970667358221220e197f4d1a676911ee8ad38cdb1a5502a5970b5522d2fc327ad69babb1cb7aa8864736f6c63430008190033","opcodes":"PUSH1 0x80 DUP1 PUSH1 0x40 MSTORE CALLVALUE PUSH1 0x13 JUMPI PUSH1 0x7C SWAP1 DUP2 PUSH1 0x18 DUP3 CODECOPY RETURN JUMPDEST PUSH0 DUP1 REVERT INVALID PUSH1 0x80 DUP1 PUSH1 0x40 MSTORE PUSH1 0x4 CALLDATASIZE LT ISZERO PUSH1 0x11 JUMPI PUSH0 DUP1 REVERT JUMPDEST PUSH0 CALLDATALOAD PUSH1 0xE0 SHR PUSH4 0x9A86139B EQ PUSH1 0x23 JUMPI PUSH0 DUP1 REVERT JUMPDEST CALLVALUE PUSH1 0x42 JUMPI PUSH0 CALLDATASIZE PUSH1 0x3 NOT ADD SLT PUSH1 0x42 JUMPI PUSH6 0x42524F4E5A45 PUSH1 0xD0 SHL DUP2 MSTORE PUSH1 0x20 SWAP1 RETURN JUMPDEST PUSH0 DUP1 REVERT INVALID LOG2 PUSH5 0x6970667358 0x22 SLT KECCAK256 0xE1 SWAP8 DELEGATECALL 0xD1 0xA6 PUSH23 0x911EE8AD38CDB1A5502A5970B5522D2FC327AD69BABB1C 0xB7 0xAA DUP9 PUSH5 0x736F6C6343 STOP ADDMOD NOT STOP CALLER "},"gasEstimates":{"creation":{"codeDepositCost":"24800","executionCost":"81","totalCost":"24881"},"external":{"getColor()":"148"}},"methodIdentifiers":{"getColor()":"9a86139b"}},"storageLayout":{"storage":[],"types":null},"userdoc":{"kind":"user","methods":{},"version":1}}}}