{"contracts/BaluniV1Router.sol":{"BaluniV1Router":{"abi":[{"inputs":[{"internalType":"address","name":"target","type":"address"}],"name":"AddressEmptyCode","type":"error"},{"inputs":[{"internalType":"address","name":"implementation","type":"address"}],"name":"ERC1967InvalidImplementation","type":"error"},{"inputs":[],"name":"ERC1967NonPayable","type":"error"},{"inputs":[{"internalType":"address","name":"spender","type":"address"},{"internalType":"uint256","name":"allowance","type":"uint256"},{"internalType":"uint256","name":"needed","type":"uint256"}],"name":"ERC20InsufficientAllowance","type":"error"},{"inputs":[{"internalType":"address","name":"sender","type":"address"},{"internalType":"uint256","name":"balance","type":"uint256"},{"internalType":"uint256","name":"needed","type":"uint256"}],"name":"ERC20InsufficientBalance","type":"error"},{"inputs":[{"internalType":"address","name":"approver","type":"address"}],"name":"ERC20InvalidApprover","type":"error"},{"inputs":[{"internalType":"address","name":"receiver","type":"address"}],"name":"ERC20InvalidReceiver","type":"error"},{"inputs":[{"internalType":"address","name":"sender","type":"address"}],"name":"ERC20InvalidSender","type":"error"},{"inputs":[{"internalType":"address","name":"spender","type":"address"}],"name":"ERC20InvalidSpender","type":"error"},{"inputs":[],"name":"FailedInnerCall","type":"error"},{"inputs":[],"name":"InvalidInitialization","type":"error"},{"inputs":[],"name":"NotInitializing","type":"error"},{"inputs":[{"internalType":"address","name":"owner","type":"address"}],"name":"OwnableInvalidOwner","type":"error"},{"inputs":[{"internalType":"address","name":"account","type":"address"}],"name":"OwnableUnauthorizedAccount","type":"error"},{"inputs":[],"name":"ReentrancyGuardReentrantCall","type":"error"},{"inputs":[],"name":"UUPSUnauthorizedCallContext","type":"error"},{"inputs":[{"internalType":"bytes32","name":"slot","type":"bytes32"}],"name":"UUPSUnsupportedProxiableUUID","type":"error"},{"anonymous":false,"inputs":[{"indexed":true,"internalType":"address","name":"owner","type":"address"},{"indexed":true,"internalType":"address","name":"spender","type":"address"},{"indexed":false,"internalType":"uint256","name":"value","type":"uint256"}],"name":"Approval","type":"event"},{"anonymous":false,"inputs":[{"indexed":false,"internalType":"address","name":"user","type":"address"},{"indexed":false,"internalType":"uint256","name":"value","type":"uint256"}],"name":"Burn","type":"event"},{"anonymous":false,"inputs":[{"indexed":false,"internalType":"address","name":"user","type":"address"},{"components":[{"internalType":"address","name":"to","type":"address"},{"internalType":"uint256","name":"value","type":"uint256"},{"internalType":"bytes","name":"data","type":"bytes"}],"indexed":false,"internalType":"struct IBaluniV1Agent.Call[]","name":"calls","type":"tuple[]"},{"indexed":false,"internalType":"address[]","name":"tokensReturn","type":"address[]"}],"name":"Execute","type":"event"},{"anonymous":false,"inputs":[{"indexed":false,"internalType":"uint64","name":"version","type":"uint64"}],"name":"Initialized","type":"event"},{"anonymous":false,"inputs":[{"indexed":false,"internalType":"string","name":"message","type":"string"},{"indexed":false,"internalType":"uint256","name":"value","type":"uint256"}],"name":"Log","type":"event"},{"anonymous":false,"inputs":[{"indexed":false,"internalType":"address","name":"user","type":"address"},{"indexed":false,"internalType":"uint256","name":"value","type":"uint256"}],"name":"Mint","type":"event"},{"anonymous":false,"inputs":[{"indexed":true,"internalType":"address","name":"previousOwner","type":"address"},{"indexed":true,"internalType":"address","name":"newOwner","type":"address"}],"name":"OwnershipTransferred","type":"event"},{"anonymous":false,"inputs":[{"indexed":true,"internalType":"address","name":"from","type":"address"},{"indexed":true,"internalType":"address","name":"to","type":"address"},{"indexed":false,"internalType":"uint256","name":"value","type":"uint256"}],"name":"Transfer","type":"event"},{"anonymous":false,"inputs":[{"indexed":true,"internalType":"address","name":"implementation","type":"address"}],"name":"Upgraded","type":"event"},{"inputs":[],"name":"UPGRADE_INTERFACE_VERSION","outputs":[{"internalType":"string","name":"","type":"string"}],"stateMutability":"view","type":"function"},{"inputs":[{"internalType":"address","name":"_token","type":"address"}],"name":"addToken","outputs":[],"stateMutability":"nonpayable","type":"function"},{"inputs":[{"internalType":"address","name":"owner","type":"address"},{"internalType":"address","name":"spender","type":"address"}],"name":"allowance","outputs":[{"internalType":"uint256","name":"","type":"uint256"}],"stateMutability":"view","type":"function"},{"inputs":[{"internalType":"address","name":"spender","type":"address"},{"internalType":"uint256","name":"value","type":"uint256"}],"name":"approve","outputs":[{"internalType":"bool","name":"","type":"bool"}],"stateMutability":"nonpayable","type":"function"},{"inputs":[{"internalType":"address","name":"account","type":"address"}],"name":"balanceOf","outputs":[{"internalType":"uint256","name":"","type":"uint256"}],"stateMutability":"view","type":"function"},{"inputs":[],"name":"baseAsset","outputs":[{"internalType":"address","name":"","type":"address"}],"stateMutability":"view","type":"function"},{"inputs":[{"internalType":"uint256","name":"burnAmount","type":"uint256"}],"name":"burnERC20","outputs":[],"stateMutability":"nonpayable","type":"function"},{"inputs":[{"internalType":"uint256","name":"burnAmount","type":"uint256"}],"name":"burnUSDC","outputs":[],"stateMutability":"nonpayable","type":"function"},{"inputs":[{"internalType":"uint256","name":"totalBaluni","type":"uint256"},{"internalType":"uint256","name":"totalERC20Balance","type":"uint256"},{"internalType":"uint256","name":"baluniAmount","type":"uint256"},{"internalType":"uint256","name":"tokenDecimals","type":"uint256"}],"name":"calculateTokenShare","outputs":[{"internalType":"uint256","name":"","type":"uint256"}],"stateMutability":"pure","type":"function"},{"inputs":[{"internalType":"address[]","name":"assets","type":"address[]"},{"internalType":"uint256[]","name":"weights","type":"uint256[]"},{"internalType":"address","name":"sender","type":"address"},{"internalType":"address","name":"receiver","type":"address"},{"internalType":"uint256","name":"limit","type":"uint256"},{"internalType":"address","name":"","type":"address"}],"name":"callRebalance","outputs":[],"stateMutability":"nonpayable","type":"function"},{"inputs":[],"name":"decimals","outputs":[{"internalType":"uint8","name":"","type":"uint8"}],"stateMutability":"view","type":"function"},{"inputs":[{"components":[{"internalType":"address","name":"to","type":"address"},{"internalType":"uint256","name":"value","type":"uint256"},{"internalType":"bytes","name":"data","type":"bytes"}],"internalType":"struct IBaluniV1Agent.Call[]","name":"calls","type":"tuple[]"},{"internalType":"address[]","name":"tokensReturn","type":"address[]"}],"name":"execute","outputs":[],"stateMutability":"nonpayable","type":"function"},{"inputs":[{"internalType":"address","name":"_user","type":"address"}],"name":"getAgentAddress","outputs":[{"internalType":"address","name":"","type":"address"}],"stateMutability":"view","type":"function"},{"inputs":[],"name":"getTokens","outputs":[{"internalType":"address[]","name":"","type":"address[]"}],"stateMutability":"view","type":"function"},{"inputs":[{"internalType":"uint256","name":"amount","type":"uint256"}],"name":"getUSDCShareValue","outputs":[{"internalType":"uint256","name":"","type":"uint256"}],"stateMutability":"view","type":"function"},{"inputs":[],"name":"getVersion","outputs":[{"internalType":"uint64","name":"","type":"uint64"}],"stateMutability":"view","type":"function"},{"inputs":[{"internalType":"address","name":"_registry","type":"address"}],"name":"initialize","outputs":[],"stateMutability":"nonpayable","type":"function"},{"inputs":[{"internalType":"address","name":"token","type":"address"}],"name":"liquidate","outputs":[],"stateMutability":"nonpayable","type":"function"},{"inputs":[],"name":"liquidateAll","outputs":[],"stateMutability":"nonpayable","type":"function"},{"inputs":[{"internalType":"uint256","name":"balAmountToMint","type":"uint256"}],"name":"mintWithUSDC","outputs":[],"stateMutability":"nonpayable","type":"function"},{"inputs":[],"name":"name","outputs":[{"internalType":"string","name":"","type":"string"}],"stateMutability":"view","type":"function"},{"inputs":[],"name":"owner","outputs":[{"internalType":"address","name":"","type":"address"}],"stateMutability":"view","type":"function"},{"inputs":[],"name":"proxiableUUID","outputs":[{"internalType":"bytes32","name":"","type":"bytes32"}],"stateMutability":"view","type":"function"},{"inputs":[],"name":"registry","outputs":[{"internalType":"contract IBaluniV1Registry","name":"","type":"address"}],"stateMutability":"view","type":"function"},{"inputs":[{"internalType":"address","name":"_registry","type":"address"},{"internalType":"uint64","name":"version","type":"uint64"}],"name":"reinitialize","outputs":[],"stateMutability":"nonpayable","type":"function"},{"inputs":[],"name":"renounceOwnership","outputs":[],"stateMutability":"nonpayable","type":"function"},{"inputs":[{"internalType":"uint256","name":"balAmountToMint","type":"uint256"}],"name":"requiredUSDCtoMint","outputs":[{"internalType":"uint256","name":"","type":"uint256"}],"stateMutability":"view","type":"function"},{"inputs":[{"internalType":"address","name":"_registry","type":"address"}],"name":"resetContract","outputs":[],"stateMutability":"nonpayable","type":"function"},{"inputs":[],"name":"symbol","outputs":[{"internalType":"string","name":"","type":"string"}],"stateMutability":"view","type":"function"},{"inputs":[{"internalType":"uint256","name":"amount","type":"uint256"},{"internalType":"address","name":"token","type":"address"}],"name":"tokenValuation","outputs":[{"internalType":"uint256","name":"","type":"uint256"}],"stateMutability":"view","type":"function"},{"inputs":[],"name":"totalSupply","outputs":[{"internalType":"uint256","name":"","type":"uint256"}],"stateMutability":"view","type":"function"},{"inputs":[],"name":"totalValuation","outputs":[{"internalType":"uint256","name":"","type":"uint256"}],"stateMutability":"view","type":"function"},{"inputs":[{"internalType":"address","name":"to","type":"address"},{"internalType":"uint256","name":"value","type":"uint256"}],"name":"transfer","outputs":[{"internalType":"bool","name":"","type":"bool"}],"stateMutability":"nonpayable","type":"function"},{"inputs":[{"internalType":"address","name":"from","type":"address"},{"internalType":"address","name":"to","type":"address"},{"internalType":"uint256","name":"value","type":"uint256"}],"name":"transferFrom","outputs":[{"internalType":"bool","name":"","type":"bool"}],"stateMutability":"nonpayable","type":"function"},{"inputs":[{"internalType":"address","name":"newOwner","type":"address"}],"name":"transferOwnership","outputs":[],"stateMutability":"nonpayable","type":"function"},{"inputs":[],"name":"unitPrice","outputs":[{"internalType":"uint256","name":"","type":"uint256"}],"stateMutability":"view","type":"function"},{"inputs":[{"internalType":"address","name":"newImplementation","type":"address"},{"internalType":"bytes","name":"data","type":"bytes"}],"name":"upgradeToAndCall","outputs":[],"stateMutability":"payable","type":"function"}],"devdoc":{"errors":{"AddressEmptyCode(address)":[{"details":"There's no code at `target` (it is not a contract)."}],"ERC1967InvalidImplementation(address)":[{"details":"The `implementation` of the proxy is invalid."}],"ERC1967NonPayable()":[{"details":"An upgrade function sees `msg.value > 0` that may be lost."}],"ERC20InsufficientAllowance(address,uint256,uint256)":[{"details":"Indicates a failure with the `spender`’s `allowance`. Used in transfers.","params":{"allowance":"Amount of tokens a `spender` is allowed to operate with.","needed":"Minimum amount required to perform a transfer.","spender":"Address that may be allowed to operate on tokens without being their owner."}}],"ERC20InsufficientBalance(address,uint256,uint256)":[{"details":"Indicates an error related to the current `balance` of a `sender`. Used in transfers.","params":{"balance":"Current balance for the interacting account.","needed":"Minimum amount required to perform a transfer.","sender":"Address whose tokens are being transferred."}}],"ERC20InvalidApprover(address)":[{"details":"Indicates a failure with the `approver` of a token to be approved. Used in approvals.","params":{"approver":"Address initiating an approval operation."}}],"ERC20InvalidReceiver(address)":[{"details":"Indicates a failure with the token `receiver`. Used in transfers.","params":{"receiver":"Address to which tokens are being transferred."}}],"ERC20InvalidSender(address)":[{"details":"Indicates a failure with the token `sender`. Used in transfers.","params":{"sender":"Address whose tokens are being transferred."}}],"ERC20InvalidSpender(address)":[{"details":"Indicates a failure with the `spender` to be approved. Used in approvals.","params":{"spender":"Address that may be allowed to operate on tokens without being their owner."}}],"FailedInnerCall()":[{"details":"A call to an address target failed. The target may have reverted."}],"InvalidInitialization()":[{"details":"The contract is already initialized."}],"NotInitializing()":[{"details":"The contract is not initializing."}],"OwnableInvalidOwner(address)":[{"details":"The owner is not a valid owner account. (eg. `address(0)`)"}],"OwnableUnauthorizedAccount(address)":[{"details":"The caller account is not authorized to perform an operation."}],"ReentrancyGuardReentrantCall()":[{"details":"Unauthorized reentrant call."}],"UUPSUnauthorizedCallContext()":[{"details":"The call is from an unauthorized context."}],"UUPSUnsupportedProxiableUUID(bytes32)":[{"details":"The storage `slot` is unsupported as a UUID."}]},"events":{"Approval(address,address,uint256)":{"details":"Emitted when the allowance of a `spender` for an `owner` is set by a call to {approve}. `value` is the new allowance."},"Initialized(uint64)":{"details":"Triggered when the contract has been initialized or reinitialized."},"Transfer(address,address,uint256)":{"details":"Emitted when `value` tokens are moved from one account (`from`) to another (`to`). Note that `value` may be zero."},"Upgraded(address)":{"details":"Emitted when the implementation is upgraded."}},"kind":"dev","methods":{"allowance(address,address)":{"details":"See {IERC20-allowance}."},"approve(address,uint256)":{"details":"See {IERC20-approve}. NOTE: If `value` is the maximum `uint256`, the allowance is not updated on `transferFrom`. This is semantically equivalent to an infinite approval. Requirements: - `spender` cannot be the zero address."},"balanceOf(address)":{"details":"See {IERC20-balanceOf}."},"burnERC20(uint256)":{"details":"Burns a specified amount of BALUNI tokens from the caller's balance.","params":{"burnAmount":"The amount of BALUNI tokens to burn."}},"burnUSDC(uint256)":{"details":"Burns a specified amount of BAL tokens and performs token swaps on multiple tokens.","params":{"burnAmount":"The amount of BAL tokens to burn."}},"calculateTokenShare(uint256,uint256,uint256,uint256)":{"details":"Calculates the token share based on the total Baluni supply, total ERC20 balance, Baluni amount, and token decimals.","params":{"baluniAmount":"The amount of Baluni tokens.","tokenDecimals":"The number of decimals for the ERC20 token.","totalBaluni":"The total supply of Baluni tokens.","totalERC20Balance":"The total balance of the ERC20 token."},"returns":{"_0":"The calculated token share."}},"callRebalance(address[],uint256[],address,address,uint256,address)":{"details":"Calls the `rebalance` function of the `rebalancer` contract.","params":{"assets":"An array of addresses representing the assets to rebalance.","limit":"The maximum number of assets to rebalance.","receiver":"The address of the receiver.","sender":"The address of the sender.","weights":"An array of uint256 values representing the weights of the assets."}},"decimals()":{"details":"Returns the number of decimals used to get its user representation. For example, if `decimals` equals `2`, a balance of `505` tokens should be displayed to a user as `5.05` (`505 / 10 ** 2`). Tokens usually opt for a value of 18, imitating the relationship between Ether and Wei. This is the default value returned by this function, unless it's overridden. NOTE: This information is only used for _display_ purposes: it in no way affects any of the arithmetic of the contract, including {IERC20-balanceOf} and {IERC20-transfer}."},"execute((address,uint256,bytes)[],address[])":{"details":"Executes a series of calls to a BaluniV1Agent contract and handles token returns.","params":{"calls":"An array of IBaluniV1Agent.Call structs representing the calls to be executed.","tokensReturn":"An array of addresses representing the tokens to be returned."}},"getAgentAddress(address)":{"details":"Retrieves the agent address associated with a user.","params":{"_user":"The user's address."},"returns":{"_0":"The agent address."}},"getTokens()":{"details":"Returns an array of addresses representing the tokens.","returns":{"_0":"An array of addresses representing the tokens."}},"getUSDCShareValue(uint256)":{"details":"Calculates the value of a given amount of Baluni tokens in USDC.","params":{"amount":"The amount of Baluni tokens."},"returns":{"_0":"The calculated value of the Baluni tokens in USDC."}},"getVersion()":{"details":"Returns the version of the contract.","returns":{"_0":"The version string."}},"initialize(address)":{"details":"Initializes the BaluniV1Router contract. It sets the initial values for various variables and mints 1 ether to the contract's address. It also sets the USDC token address, WNATIVE token address, oracle address, Uniswap router address, and Uniswap factory address. Finally, it adds the USDC token address to the tokens set."},"liquidate(address)":{"details":"Liquidates the specified token by swapping it for USDC.","params":{"token":"The address of the token to be liquidated."}},"liquidateAll()":{"details":"Liquidates all tokens in the contract. This function iterates through all the tokens in the contract and calls the `liquidate` function for each token. Can only be called by the contract owner."},"mintWithUSDC(uint256)":{"details":"Mints a specified amount of BALUNI tokens in exchange for USDC.","params":{"balAmountToMint":"The amount of BALUNI tokens to mint."}},"name()":{"details":"Returns the name of the token."},"owner()":{"details":"Returns the address of the current owner."},"proxiableUUID()":{"details":"Implementation of the ERC1822 {proxiableUUID} function. This returns the storage slot used by the implementation. It is used to validate the implementation's compatibility when performing an upgrade. IMPORTANT: A proxy pointing at a proxiable contract should not be considered proxiable itself, because this risks bricking a proxy that upgrades to it, by delegating to itself until out of gas. Thus it is critical that this function revert if invoked through a proxy. This is guaranteed by the `notDelegated` modifier."},"renounceOwnership()":{"details":"Leaves the contract without owner. It will not be possible to call `onlyOwner` functions. Can only be called by the current owner. NOTE: Renouncing ownership will leave the contract without an owner, thereby disabling any functionality that is only available to the owner."},"requiredUSDCtoMint(uint256)":{"details":"Calculates the amount of USDC required to mint a given amount of BAL tokens.","params":{"balAmountToMint":"The amount of BAL tokens to be minted."},"returns":{"_0":"The amount of USDC required to mint the specified amount of BAL tokens."}},"symbol()":{"details":"Returns the symbol of the token, usually a shorter version of the name."},"tokenValuation(uint256,address)":{"details":"Calculates the valuation of a given amount of a specific ERC20 token.","params":{"amount":"The amount of the ERC20 token.","token":"The address of the ERC20 token."},"returns":{"_0":"The calculated valuation of the ERC20 token."}},"totalSupply()":{"details":"See {IERC20-totalSupply}."},"totalValuation()":{"details":"Returns the total valuation of the Baluni ecosystem.","returns":{"_0":"The total valuation of the Baluni ecosystem."}},"transfer(address,uint256)":{"details":"See {IERC20-transfer}. Requirements: - `to` cannot be the zero address. - the caller must have a balance of at least `value`."},"transferFrom(address,address,uint256)":{"details":"See {IERC20-transferFrom}. Emits an {Approval} event indicating the updated allowance. This is not required by the EIP. See the note at the beginning of {ERC20}. NOTE: Does not update the allowance if the current allowance is the maximum `uint256`. Requirements: - `from` and `to` cannot be the zero address. - `from` must have a balance of at least `value`. - the caller must have allowance for ``from``'s tokens of at least `value`."},"transferOwnership(address)":{"details":"Transfers ownership of the contract to a new account (`newOwner`). Can only be called by the current owner."},"unitPrice()":{"details":"Returns the unit price of the token in USDC.","returns":{"_0":"The unit price of the token in USDC."}},"upgradeToAndCall(address,bytes)":{"custom:oz-upgrades-unsafe-allow-reachable":"delegatecall","details":"Upgrade the implementation of the proxy to `newImplementation`, and subsequently execute the function call encoded in `data`. Calls {_authorizeUpgrade}. Emits an {Upgraded} event."}},"version":1},"evm":{"bytecode":{"linkReferences":{},"object":"60a0604052306080523480156012575f80fd5b506080516153246100395f395f8181613c4601528181613c6f0152613e1f01526153245ff3fe60806040526004361061025d575f3560e01c806371ddcfb81161014b578063c4d66de8116100c6578063e73faa2d1161007c578063f2fde38b11610062578063f2fde38b1461074e578063fe0a4dd11461076d578063fe330a511461078c575f80fd5b8063e73faa2d1461071b578063eedc3c501461072f575f80fd5b8063d48bfca7116100ac578063d48bfca71461067a578063dd62ed3e14610699578063e67ad759146106fc575f80fd5b8063c4d66de81461063c578063cdf456e11461065b575f80fd5b806395d89b411161011b578063aa6ca80811610101578063aa6ca808146105b4578063aa95d893146105d5578063ad3cb1cc146105f4575f80fd5b806395d89b4114610581578063a9059cbb14610595575f80fd5b806371ddcfb8146104e85780637b103999146105075780638da5cb5b146105265780638f2248bc14610562575f80fd5b80632bdd955a116101db5780634f1ef286116101ab578063599f69f711610191578063599f69f71461046257806370a0823114610481578063715018a6146104d4575f80fd5b80634f1ef2861461043b57806352d1902d1461044e575f80fd5b80632bdd955a146103ce5780632f865568146103ed578063313ce5671461040c5780633c2066a914610427575f80fd5b806318160ddd1161023057806323b872dd1161021657806323b872dd1461036457806327d54a9214610383578063295b9300146103ba575f80fd5b806318160ddd146103085780631a168da214610345575f80fd5b806306fdde0314610261578063095ea7b31461028b5780630cfc7386146102ba5780630d8e6e2c146102db575b5f80fd5b34801561026c575f80fd5b506102756107ab565b6040516102829190614757565b60405180910390f35b348015610296575f80fd5b506102aa6102a536600461477d565b61087e565b6040519015158152602001610282565b3480156102c5575f80fd5b506102d96102d43660046147a7565b610897565b005b3480156102e6575f80fd5b506102ef610f44565b60405167ffffffffffffffff9091168152602001610282565b348015610313575f80fd5b507f52c63247e1f47db19d5ce0460030c497f067ca4cebf71ba98eeadabe20bace02545b604051908152602001610282565b348015610350575f80fd5b506102d961035f3660046147a7565b610f7c565b34801561036f575f80fd5b506102aa61037e3660046147be565b611328565b34801561038e575f80fd5b506103a261039d3660046147fc565b61134d565b6040516001600160a01b039091168152602001610282565b3480156103c5575f80fd5b50610337611448565b3480156103d9575f80fd5b506103376103e8366004614817565b611451565b3480156103f8575f80fd5b506102d96104073660046147fc565b611565565b348015610417575f80fd5b5060405160128152602001610282565b348015610432575f80fd5b506102d9611938565b6102d9610449366004614938565b6119c0565b348015610459575f80fd5b506103376119df565b34801561046d575f80fd5b506102d961047c3660046149cd565b611a0d565b34801561048c575f80fd5b5061033761049b3660046147fc565b6001600160a01b03165f9081527f52c63247e1f47db19d5ce0460030c497f067ca4cebf71ba98eeadabe20bace00602052604090205490565b3480156104df575f80fd5b506102d9611b9c565b3480156104f3575f80fd5b506103376105023660046147a7565b611bad565b348015610512575f80fd5b506002546103a2906001600160a01b031681565b348015610531575f80fd5b507f9016d09d72d40fdae2fd8ceac6b6234c7706214fd39c1cd1e609a0528c199300546001600160a01b03166103a2565b34801561056d575f80fd5b506102d961057c366004614a78565b611bb7565b34801561058c575f80fd5b50610275611d0e565b3480156105a0575f80fd5b506102aa6105af36600461477d565b611d5f565b3480156105bf575f80fd5b506105c8611d6c565b6040516102829190614af3565b3480156105e0575f80fd5b506103376105ef3660046147a7565b611d77565b3480156105ff575f80fd5b506102756040518060400160405280600581526020017f352e302e3000000000000000000000000000000000000000000000000000000081525081565b348015610647575f80fd5b506102d96106563660046147fc565b611dde565b348015610666575f80fd5b506003546103a2906001600160a01b031681565b348015610685575f80fd5b506102d96106943660046147fc565b6120d5565b3480156106a4575f80fd5b506103376106b3366004614b05565b6001600160a01b039182165f9081527f52c63247e1f47db19d5ce0460030c497f067ca4cebf71ba98eeadabe20bace016020908152604080832093909416825291909152205490565b348015610707575f80fd5b506102d96107163660046147fc565b6120e7565b348015610726575f80fd5b50610337612129565b34801561073a575f80fd5b506102d9610749366004614bc9565b61213b565b348015610759575f80fd5b506102d96107683660046147fc565b612d0b565b348015610778575f80fd5b506102d96107873660046147a7565b612d5e565b348015610797575f80fd5b506103376107a6366004614cd8565b613644565b7f52c63247e1f47db19d5ce0460030c497f067ca4cebf71ba98eeadabe20bace0380546060917f52c63247e1f47db19d5ce0460030c497f067ca4cebf71ba98eeadabe20bace00916107fc90614d07565b80601f016020809104026020016040519081016040528092919081815260200182805461082890614d07565b80156108735780601f1061084a57610100808354040283529160200191610873565b820191905f5260205f20905b81548152906001019060200180831161085657829003601f168201915b505050505091505090565b5f3361088b818585613651565b60019150505b92915050565b61089f613663565b600254604080517f3b19e84a00000000000000000000000000000000000000000000000000000000815290515f926001600160a01b031691633b19e84a9160048083019260209291908290030181865afa1580156108ff573d5f803e3d5ffd5b505050506040513d601f19601f820116820180604052508101906109239190614d52565b90505f60025f9054906101000a90046001600160a01b03166001600160a01b0316631bf01e9b6040518163ffffffff1660e01b8152600401602060405180830381865afa158015610976573d5f803e3d5ffd5b505050506040513d601f19601f8201168201806040525081019061099a9190614d52565b90505f60025f9054906101000a90046001600160a01b03166001600160a01b03166385462d6f6040518163ffffffff1660e01b8152600401602060405180830381865afa1580156109ed573d5f803e3d5ffd5b505050506040513d601f19601f82011682018060405250810190610a119190614d6d565b90505f60025f9054906101000a90046001600160a01b03166001600160a01b0316634f4608a26040518163ffffffff1660e01b8152600401602060405180830381865afa158015610a64573d5f803e3d5ffd5b505050506040513d601f19601f82011682018060405250810190610a889190614d6d565b90505f610a936136e4565b90505f610abe7f52c63247e1f47db19d5ce0460030c497f067ca4cebf71ba98eeadabe20bace025490565b90505f81610acc848a614db1565b610ad69190614dc8565b90506001600160a01b0386166323b872dd3330610af864e8d4a5100086614dc8565b6040517fffffffff0000000000000000000000000000000000000000000000000000000060e086901b1681526001600160a01b03938416600482015292909116602483015260448201526064016020604051808303815f875af1158015610b61573d5f803e3d5ffd5b505050506040513d601f19601f82011682018060405250810190610b859190614e00565b506040517f70a082310000000000000000000000000000000000000000000000000000000081523360048201525f906001600160a01b038816906370a0823190602401602060405180830381865afa158015610be3573d5f803e3d5ffd5b505050506040513d601f19601f82011682018060405250810190610c079190614d6d565b6040517fdd62ed3e0000000000000000000000000000000000000000000000000000000081523360048201523060248201529091505f906001600160a01b0389169063dd62ed3e90604401602060405180830381865afa158015610c6d573d5f803e3d5ffd5b505050506040513d601f19601f82011682018060405250810190610c919190614d6d565b90505f8411610d27576040517f08c379a000000000000000000000000000000000000000000000000000000000815260206004820152602260248201527f546f74616c2042414c554e4920737570706c792063616e6e6f74206265207a6560448201527f726f00000000000000000000000000000000000000000000000000000000000060648201526084015b60405180910390fd5b610d3664e8d4a5100084614dc8565b821015610d9f576040517f08c379a000000000000000000000000000000000000000000000000000000000815260206004820152601c60248201527f555344432062616c616e636520697320696e73756666696369656e74000000006044820152606401610d1e565b610dae64e8d4a5100084614dc8565b811015610e17576040517f08c379a000000000000000000000000000000000000000000000000000000000815260206004820152601960248201527f436865636b2074686520746f6b656e20616c6c6f77616e6365000000000000006044820152606401610d1e565b610e21338b6137b7565b60408051338152602081018c90527f0f6798a560793a54c3bcfe86a93cde1e73087d944c0ea20544137d4121396885910160405180910390a15f8688610e6c64e8d4a5100087614dc8565b610e769190614db1565b610e809190614dc8565b6040517fa9059cbb0000000000000000000000000000000000000000000000000000000081526001600160a01b038c8116600483015260248201839052919250908a169063a9059cbb906044016020604051808303815f875af1158015610ee9573d5f803e3d5ffd5b505050506040513d601f19601f82011682018060405250810190610f0d9190614e00565b5050505050505050505050610f4160017f9b779b17422d0df92223018b32b4d1fa46e071723d6817e2486d003becc55f0055565b50565b5f610f777ff0c57e16840df040f15088dc2f81fe391c3923bec73e23a9662efc9c229c6a005467ffffffffffffffff1690565b905090565b610f84613663565b600254604080517f3b19e84a00000000000000000000000000000000000000000000000000000000815290515f926001600160a01b031691633b19e84a9160048083019260209291908290030181865afa158015610fe4573d5f803e3d5ffd5b505050506040513d601f19601f820116820180604052508101906110089190614d52565b335f9081527f52c63247e1f47db19d5ce0460030c497f067ca4cebf71ba98eeadabe20bace0060205260409020549091508211156110a2576040517f08c379a000000000000000000000000000000000000000000000000000000000815260206004820152601060248201527f496e73756666696369656e742042414c000000000000000000000000000000006044820152606401610d1e565b5f6110ac8361382a565b90505f5b6110b95f613939565b8110156112b9575f6110cb8183613942565b90505f6110f67f52c63247e1f47db19d5ce0460030c497f067ca4cebf71ba98eeadabe20bace025490565b6040517f70a082310000000000000000000000000000000000000000000000000000000081523060048201529091505f906001600160a01b038416906370a0823190602401602060405180830381865afa158015611156573d5f803e3d5ffd5b505050506040513d601f19601f8201168201806040525081019061117a9190614d6d565b905080158061119157506001600160a01b03831630145b1561119e575050506112b1565b5f836001600160a01b031663313ce5676040518163ffffffff1660e01b8152600401602060405180830381865afa1580156111db573d5f803e3d5ffd5b505050506040513d601f19601f820116820180604052508101906111ff9190614e1f565b60ff169050611212876105af888b614e3f565b505f6112208484898561394d565b6040517fa9059cbb000000000000000000000000000000000000000000000000000000008152336004820152602481018290529091506001600160a01b0386169063a9059cbb906044016020604051808303815f875af1158015611286573d5f803e3d5ffd5b505050506040513d601f19601f820116820180604052508101906112aa9190614e00565b5050505050505b6001016110b0565b506112c43382613a8d565b60408051338152602081018390527fcc16f5dbb4873280815c1ee09dbd06736cffcc184412cf7a71a0fdb75d397ca5910160405180910390a15050610f4160017f9b779b17422d0df92223018b32b4d1fa46e071723d6817e2486d003becc55f0055565b5f33611335858285613ada565b611340858585613bac565b60019150505b9392505050565b5f8060025f9054906101000a90046001600160a01b03166001600160a01b031663f5d2d9986040518163ffffffff1660e01b8152600401602060405180830381865afa15801561139f573d5f803e3d5ffd5b505050506040513d601f19601f820116820180604052508101906113c39190614d52565b6040517f27d54a920000000000000000000000000000000000000000000000000000000081526001600160a01b038581166004830152919250908216906327d54a9290602401602060405180830381865afa158015611424573d5f803e3d5ffd5b505050506040513d601f19601f820116820180604052508101906113469190614d52565b5f610f776136e4565b5f8060025f9054906101000a90046001600160a01b03166001600160a01b031663bb3ba04c6040518163ffffffff1660e01b8152600401602060405180830381865afa1580156114a3573d5f803e3d5ffd5b505050506040513d601f19601f820116820180604052508101906114c79190614d52565b6003546040517fb27b5e750000000000000000000000000000000000000000000000000000000081526001600160a01b03868116600483015291821660248201526044810187905291925082169063b27b5e7590606401602060405180830381865afa158015611539573d5f803e3d5ffd5b505050506040513d601f19601f8201168201806040525081019061155d9190614d6d565b949350505050565b600254604080517f6c9c007800000000000000000000000000000000000000000000000000000000815290515f926001600160a01b031691636c9c00789160048083019260209291908290030181865afa1580156115c5573d5f803e3d5ffd5b505050506040513d601f19601f820116820180604052508101906115e99190614d52565b90505f60025f9054906101000a90046001600160a01b03166001600160a01b03166382755ebb6040518163ffffffff1660e01b8152600401602060405180830381865afa15801561163c573d5f803e3d5ffd5b505050506040513d601f19601f820116820180604052508101906116609190614d52565b6040517f70a082310000000000000000000000000000000000000000000000000000000081523060048201529091505f906001600160a01b038516906370a0823190602401602060405180830381865afa1580156116c0573d5f803e3d5ffd5b505050506040513d601f19601f820116820180604052508101906116e49190614d6d565b6040517f095ea7b30000000000000000000000000000000000000000000000000000000081526001600160a01b038481166004830152602482018390529192508215159186169063095ea7b3906044016020604051808303815f875af1158015611750573d5f803e3d5ffd5b505050506040513d601f19601f820116820180604052508101906117749190614e00565b5080611781575050505050565b6003546040517f2d6bc8ea0000000000000000000000000000000000000000000000000000000081526001600160a01b03878116600483015291821660248201526044810184905230606482015290841690632d6bc8ea906084016020604051808303815f875af1925050508015611816575060408051601f3d908101601f1916820190925261181391810190614d6d565b60015b611929576003546040517f5efaaebb0000000000000000000000000000000000000000000000000000000081526001600160a01b03878116600483015286811660248301529182166044820152606481018490523060848201525f91851690635efaaebb9060a4016020604051808303815f875af115801561189a573d5f803e3d5ffd5b505050506040513d601f19601f820116820180604052508101906118be9190614d6d565b90505f8111611929576040517f08c379a000000000000000000000000000000000000000000000000000000000815260206004820181905260248201527f4d75746920486f702053776170204661696c65642c20547279204275726e28296044820152606401610d1e565b505050505050565b5050505050565b611940613663565b5f61194a5f613939565b90505f5b81811015611993575f6119618183613942565b6003549091506001600160a01b0390811690821603611980575061198b565b61198981611565565b505b60010161194e565b50506119be60017f9b779b17422d0df92223018b32b4d1fa46e071723d6817e2486d003becc55f0055565b565b6119c8613c3b565b6119d182613d0b565b6119db8282613d13565b5050565b5f6119e8613e14565b507f360894a13ba1a3210667c828492db98dca3e2076cc3735a920a3ca505d382bbc90565b600254604080517f1bf01e9b00000000000000000000000000000000000000000000000000000000815290515f926001600160a01b031691631bf01e9b9160048083019260209291908290030181865afa158015611a6d573d5f803e3d5ffd5b505050506040513d601f19601f82011682018060405250810190611a919190614d52565b90505f60025f9054906101000a90046001600160a01b03166001600160a01b031663cff49d686040518163ffffffff1660e01b8152600401602060405180830381865afa158015611ae4573d5f803e3d5ffd5b505050506040513d601f19601f82011682018060405250810190611b089190614d52565b604080515f815260208101918290527ff0bf7714000000000000000000000000000000000000000000000000000000009091529091506001600160a01b03821663f0bf7714611b62838e8e8e8e8c8f8f8d60248901614ed7565b5f604051808303815f87803b158015611b79575f80fd5b505af1158015611b8b573d5f803e3d5ffd5b505050505050505050505050505050565b611ba4613e76565b6119be5f613eea565b5f61089182613f72565b7ff0c57e16840df040f15088dc2f81fe391c3923bec73e23a9662efc9c229c6a00805482919068010000000000000000900460ff1680611c055750805467ffffffffffffffff808416911610155b15611c3c576040517ff92ee8a900000000000000000000000000000000000000000000000000000000815260040160405180910390fd5b80546801000000000000000067ffffffffffffffff84167fffffffffffffffffffffffffffffffffffffffffffffff0000000000000000009092168217178255600280547fffffffffffffffffffffffff0000000000000000000000000000000000000000166001600160a01b03871617905581547fffffffffffffffffffffffffffffffffffffffffffffff00ffffffffffffffff1682556040519081527fc7f505b2f371ae2175ee4913f4499e1f2633a7b5936321eed1cdaeb6115181d29060200160405180910390a150505050565b7f52c63247e1f47db19d5ce0460030c497f067ca4cebf71ba98eeadabe20bace0480546060917f52c63247e1f47db19d5ce0460030c497f067ca4cebf71ba98eeadabe20bace00916107fc90614d07565b5f3361088b818585613bac565b6060610f775f614027565b5f80611d816136e4565b90505f611dac7f52c63247e1f47db19d5ce0460030c497f067ca4cebf71ba98eeadabe20bace025490565b90505f81611dba8487614db1565b611dc49190614dc8565b9050611dd564e8d4a5100082614dc8565b95945050505050565b7ff0c57e16840df040f15088dc2f81fe391c3923bec73e23a9662efc9c229c6a00805468010000000000000000810460ff16159067ffffffffffffffff165f81158015611e285750825b90505f8267ffffffffffffffff166001148015611e445750303b155b905081158015611e52575080155b15611e89576040517ff92ee8a900000000000000000000000000000000000000000000000000000000815260040160405180910390fd5b84547fffffffffffffffffffffffffffffffffffffffffffffffff00000000000000001660011785558315611eea5784547fffffffffffffffffffffffffffffffffffffffffffffff00ffffffffffffffff16680100000000000000001785555b611f5e6040518060400160405280600681526020017f42616c756e6900000000000000000000000000000000000000000000000000008152506040518060400160405280600681526020017f42414c554e490000000000000000000000000000000000000000000000000000815250614033565b611f6733614045565b611f6f614056565b611f77614066565b611f8930670de0b6b3a76400006137b7565b600280547fffffffffffffffffffffffff0000000000000000000000000000000000000000166001600160a01b038816908117909155604080517f1bf01e9b0000000000000000000000000000000000000000000000000000000081529051631bf01e9b916004808201926020929091908290030181865afa158015612011573d5f803e3d5ffd5b505050506040513d601f19601f820116820180604052508101906120359190614d52565b600380547fffffffffffffffffffffffff0000000000000000000000000000000000000000166001600160a01b039290921691909117905583156119295784547fffffffffffffffffffffffffffffffffffffffffffffff00ffffffffffffffff168555604051600181527fc7f505b2f371ae2175ee4913f4499e1f2633a7b5936321eed1cdaeb6115181d29060200160405180910390a1505050505050565b6120dd613e76565b6119db5f8261406e565b6120ef613e76565b600280547fffffffffffffffffffffffff0000000000000000000000000000000000000000166001600160a01b0392909216919091179055565b5f610f77670de0b6b3a7640000613f72565b612143613663565b600254604080517ff5d2d99800000000000000000000000000000000000000000000000000000000815290515f926001600160a01b03169163f5d2d9989160048083019260209291908290030181865afa1580156121a3573d5f803e3d5ffd5b505050506040513d601f19601f820116820180604052508101906121c79190614d52565b90505f60025f9054906101000a90046001600160a01b03166001600160a01b0316633e6dfa366040518163ffffffff1660e01b8152600401602060405180830381865afa15801561221a573d5f803e3d5ffd5b505050506040513d601f19601f8201168201806040525081019061223e9190614d52565b90505f60025f9054906101000a90046001600160a01b03166001600160a01b0316636c9c00786040518163ffffffff1660e01b8152600401602060405180830381865afa158015612291573d5f803e3d5ffd5b505050506040513d601f19601f820116820180604052508101906122b59190614d52565b90505f60025f9054906101000a90046001600160a01b03166001600160a01b0316631bf01e9b6040518163ffffffff1660e01b8152600401602060405180830381865afa158015612308573d5f803e3d5ffd5b505050506040513d601f19601f8201168201806040525081019061232c9190614d52565b90506001600160a01b03841661239e576040517f08c379a000000000000000000000000000000000000000000000000000000000815260206004820152601560248201527f4167656e7420666163746f7279206e6f742073657400000000000000000000006044820152606401610d1e565b6040517f9b76a5cd0000000000000000000000000000000000000000000000000000000081523360048201525f906001600160a01b03861690639b76a5cd906024016020604051808303815f875af11580156123fc573d5f803e3d5ffd5b505050506040513d601f19601f820116820180604052508101906124209190614d52565b90505f865167ffffffffffffffff81111561243d5761243d614845565b604051908082528060200260200182016040528015612466578160200160208202803683370190505b5090505f875167ffffffffffffffff81111561248457612484614845565b6040519080825280602002602001820160405280156124ad578160200160208202803683370190505b5090505f5b88518110156125c5576124de5f8a83815181106124d1576124d1614f86565b6020026020010151614082565b158382815181106124f1576124f1614f86565b60200260200101901515908115158152505088818151811061251557612515614f86565b60209081029190910101516040517f70a082310000000000000000000000000000000000000000000000000000000081523060048201526001600160a01b03909116906370a0823190602401602060405180830381865afa15801561257c573d5f803e3d5ffd5b505050506040513d601f19601f820116820180604052508101906125a09190614d6d565b8282815181106125b2576125b2614f86565b60209081029190910101526001016124b2565b506040517feedc3c500000000000000000000000000000000000000000000000000000000081526001600160a01b0384169063eedc3c509061260d908c908c90600401614fb3565b5f604051808303815f87803b158015612624575f80fd5b505af1158015612636573d5f803e3d5ffd5b505050505f5b8851811015612cd9575f89828151811061265857612658614f86565b60209081029190910101516040517f70a082310000000000000000000000000000000000000000000000000000000081523060048201529091505f906001600160a01b038316906370a0823190602401602060405180830381865afa1580156126c3573d5f803e3d5ffd5b505050506040513d601f19601f820116820180604052508101906126e79190614d6d565b6040517f1698ee820000000000000000000000000000000000000000000000000000000081526001600160a01b0384811660048301528a81166024830152610bb860448301529192505f918b1690631698ee8290606401602060405180830381865afa158015612759573d5f803e3d5ffd5b505050506040513d601f19601f8201168201806040525081019061277d9190614d52565b6040517f1698ee820000000000000000000000000000000000000000000000000000000081526001600160a01b0385811660048301528b811660248301526101f460448301529192505f918c1690631698ee8290606401602060405180830381865afa1580156127ef573d5f803e3d5ffd5b505050506040513d601f19601f820116820180604052508101906128139190614d52565b6040517f1698ee820000000000000000000000000000000000000000000000000000000081526001600160a01b0386811660048301528b811660248301526101f460448301529192505f918d1690631698ee8290606401602060405180830381865afa158015612885573d5f803e3d5ffd5b505050506040513d601f19601f820116820180604052508101906128a99190614d52565b6040517f1698ee820000000000000000000000000000000000000000000000000000000081526001600160a01b0387811660048301528c81166024830152610bb860448301529192505f918e1690631698ee8290606401602060405180830381865afa15801561291b573d5f803e3d5ffd5b505050506040513d601f19601f8201168201806040525081019061293f9190614d52565b90505f6001600160a01b03851615158061296157506001600160a01b03841615155b8061297457506001600160a01b03821615155b8061298757506001600160a01b03831615155b905089888151811061299b5761299b614f86565b602002602001015180156129ac5750805b156129bd576129bb5f8861406e565b505b5f8989815181106129d0576129d0614f86565b6020026020010151876129e39190614e3f565b905081612a87576040517fa9059cbb000000000000000000000000000000000000000000000000000000008152336004820152602481018290526001600160a01b0389169063a9059cbb906044016020604051808303815f875af1158015612a4d573d5f803e3d5ffd5b505050506040513d601f19601f82011682018060405250810190612a719190614e00565b5050505050505050505050505050505050612ce2565b600254604080517f3b19e84a00000000000000000000000000000000000000000000000000000000815290515f926001600160a01b031691633b19e84a9160048083019260209291908290030181865afa158015612ae7573d5f803e3d5ffd5b505050506040513d601f19601f82011682018060405250810190612b0b9190614d52565b90505f60025f9054906101000a90046001600160a01b03166001600160a01b03166385462d6f6040518163ffffffff1660e01b8152600401602060405180830381865afa158015612b5e573d5f803e3d5ffd5b505050506040513d601f19601f82011682018060405250810190612b829190614d6d565b90505f60025f9054906101000a90046001600160a01b03166001600160a01b0316634f4608a26040518163ffffffff1660e01b8152600401602060405180830381865afa158015612bd5573d5f803e3d5ffd5b505050506040513d601f19601f82011682018060405250810190612bf99190614d6d565b90508c8c81518110612c0d57612c0d614f86565b60200260200101518a1115612cc2575f81612c288487614db1565b612c329190614dc8565b6040517fa9059cbb0000000000000000000000000000000000000000000000000000000081526001600160a01b03868116600483015260248201839052919250908d169063a9059cbb906044016020604051808303815f875af1158015612c9b573d5f803e3d5ffd5b505050506040513d601f19601f82011682018060405250810190612cbf9190614e00565b50505b50506001909901985061263c975050505050505050565b50505050505050505b6119db60017f9b779b17422d0df92223018b32b4d1fa46e071723d6817e2486d003becc55f0055565b612d13613e76565b6001600160a01b038116612d55576040517f1e4fbdf70000000000000000000000000000000000000000000000000000000081525f6004820152602401610d1e565b610f4181613eea565b612d66613663565b600254604080517f3e6dfa3600000000000000000000000000000000000000000000000000000000815290515f926001600160a01b031691633e6dfa369160048083019260209291908290030181865afa158015612dc6573d5f803e3d5ffd5b505050506040513d601f19601f82011682018060405250810190612dea9190614d52565b90505f60025f9054906101000a90046001600160a01b03166001600160a01b0316633b19e84a6040518163ffffffff1660e01b8152600401602060405180830381865afa158015612e3d573d5f803e3d5ffd5b505050506040513d601f19601f82011682018060405250810190612e619190614d52565b90505f60025f9054906101000a90046001600160a01b03166001600160a01b0316631bf01e9b6040518163ffffffff1660e01b8152600401602060405180830381865afa158015612eb4573d5f803e3d5ffd5b505050506040513d601f19601f82011682018060405250810190612ed89190614d52565b90505f60025f9054906101000a90046001600160a01b03166001600160a01b0316636c9c00786040518163ffffffff1660e01b8152600401602060405180830381865afa158015612f2b573d5f803e3d5ffd5b505050506040513d601f19601f82011682018060405250810190612f4f9190614d52565b90505f8511612fba576040517f08c379a000000000000000000000000000000000000000000000000000000000815260206004820152601060248201527f496e73756666696369656e742042414c000000000000000000000000000000006044820152606401610d1e565b5f612fc48661382a565b90505f5b612fd15f613939565b8110156135d2575f612fe38183613942565b90505f61300e7f52c63247e1f47db19d5ce0460030c497f067ca4cebf71ba98eeadabe20bace025490565b6040517f70a082310000000000000000000000000000000000000000000000000000000081523060048201529091505f906001600160a01b038416906370a0823190602401602060405180830381865afa15801561306e573d5f803e3d5ffd5b505050506040513d601f19601f820116820180604052508101906130929190614d6d565b90508015155f036130a5575050506135ca565b306001600160a01b038416036130bd575050506135ca565b5f836001600160a01b031663313ce5676040518163ffffffff1660e01b8152600401602060405180830381865afa1580156130fa573d5f803e3d5ffd5b505050506040513d601f19601f8201168201806040525081019061311e9190614e1f565b60ff169050613131896105af888e614e3f565b505f61313f8484898561394d565b6003549091506001600160a01b03908116908616036131ea576040517fa9059cbb000000000000000000000000000000000000000000000000000000008152336004820152602481018290526001600160a01b038a169063a9059cbb906044016020604051808303815f875af11580156131bb573d5f803e3d5ffd5b505050506040513d601f19601f820116820180604052508101906131df9190614e00565b5050505050506135ca565b600254604080517f82755ebb00000000000000000000000000000000000000000000000000000000815290515f926001600160a01b0316916382755ebb9160048083019260209291908290030181865afa15801561324a573d5f803e3d5ffd5b505050506040513d601f19601f8201168201806040525081019061326e9190614d52565b6040517f095ea7b30000000000000000000000000000000000000000000000000000000081526001600160a01b038083166004830152602482018590529192509087169063095ea7b3906044016020604051808303815f875af11580156132d7573d5f803e3d5ffd5b505050506040513d601f19601f820116820180604052508101906132fb9190614e00565b506003546040517f2d6bc8ea0000000000000000000000000000000000000000000000000000000081526001600160a01b03888116600483015291821660248201526044810184905233606482015290821690632d6bc8ea906084016020604051808303815f875af1925050508015613391575060408051601f3d908101601f1916820190925261338e91810190614d6d565b60015b613535576003546040517f5efaaebb0000000000000000000000000000000000000000000000000000000081526001600160a01b0388811660048301528b811660248301529182166044820152606481018490523360848201525f91831690635efaaebb9060a4016020604051808303815f875af1158015613415573d5f803e3d5ffd5b505050506040513d601f19601f820116820180604052508101906134399190614d6d565b6003546040517fa9059cbb000000000000000000000000000000000000000000000000000000008152336004820152602481018390529192506001600160a01b03169063a9059cbb906044016020604051808303815f875af11580156134a1573d5f803e3d5ffd5b505050506040513d601f19601f820116820180604052508101906134c59190614e00565b505f811161352f576040517f08c379a000000000000000000000000000000000000000000000000000000000815260206004820152601760248201527f53776170204661696c65642c20547279204275726e28290000000000000000006044820152606401610d1e565b506135c3565b6003546040517fa9059cbb000000000000000000000000000000000000000000000000000000008152336004820152602481018390526001600160a01b039091169063a9059cbb906044016020604051808303815f875af115801561359c573d5f803e3d5ffd5b505050506040513d601f19601f820116820180604052508101906135c09190614e00565b50505b5050505050505b600101612fc8565b506135dd3382613a8d565b60408051338152602081018390527fcc16f5dbb4873280815c1ee09dbd06736cffcc184412cf7a71a0fdb75d397ca5910160405180910390a15050505050610f4160017f9b779b17422d0df92223018b32b4d1fa46e071723d6817e2486d003becc55f0055565b5f611dd58585858561394d565b61365e83838360016140a3565b505050565b7f9b779b17422d0df92223018b32b4d1fa46e071723d6817e2486d003becc55f0080547ffffffffffffffffffffffffffffffffffffffffffffffffffffffffffffffffe016136de576040517f3ee5aeb500000000000000000000000000000000000000000000000000000000815260040160405180910390fd5b60029055565b5f805f5b6136f15f613939565b8110156137b1575f6137038183613942565b6040517f70a082310000000000000000000000000000000000000000000000000000000081523060048201529091505f906001600160a01b038316906370a0823190602401602060405180830381865afa158015613763573d5f803e3d5ffd5b505050506040513d601f19601f820116820180604052508101906137879190614d6d565b90505f6137948284611451565b90506137a0818661505e565b945050600190920191506136e89050565b50919050565b6001600160a01b0382166137f9576040517fec442f050000000000000000000000000000000000000000000000000000000081525f6004820152602401610d1e565b6119db5f83836141cb565b60017f9b779b17422d0df92223018b32b4d1fa46e071723d6817e2486d003becc55f0055565b5f8060025f9054906101000a90046001600160a01b03166001600160a01b03166385462d6f6040518163ffffffff1660e01b8152600401602060405180830381865afa15801561387c573d5f803e3d5ffd5b505050506040513d601f19601f820116820180604052508101906138a09190614d6d565b90505f60025f9054906101000a90046001600160a01b03166001600160a01b0316634f4608a26040518163ffffffff1660e01b8152600401602060405180830381865afa1580156138f3573d5f803e3d5ffd5b505050506040513d601f19601f820116820180604052508101906139179190614d6d565b90505f816139258482614e3f565b61392f9087614db1565b611dd59190614dc8565b5f610891825490565b5f6113468383614330565b5f8085116139b7576040517f08c379a000000000000000000000000000000000000000000000000000000000815260206004820152601b60248201527f546f74616c20737570706c792063616e6e6f74206265207a65726f00000000006044820152606401610d1e565b6012821115613a22576040517f08c379a000000000000000000000000000000000000000000000000000000000815260206004820152601e60248201527f546f6b656e20646563696d616c732073686f756c64206265203c3d20313800006044820152606401610d1e565b5f8080613a30856012614e3f565b613a3b90600a61518f565b90506012851015613a6357613a508189614dc8565b9250613a5c8187614dc8565b9150613a6a565b8792508591505b5f83613a768985614db1565b613a809190614dc8565b9998505050505050505050565b6001600160a01b038216613acf576040517f96c6fd1e0000000000000000000000000000000000000000000000000000000081525f6004820152602401610d1e565b6119db825f836141cb565b6001600160a01b038381165f9081527f52c63247e1f47db19d5ce0460030c497f067ca4cebf71ba98eeadabe20bace0160209081526040808320938616835292905220547fffffffffffffffffffffffffffffffffffffffffffffffffffffffffffffffff8114613ba65781811015613b98576040517ffb8f41b20000000000000000000000000000000000000000000000000000000081526001600160a01b03841660048201526024810182905260448101839052606401610d1e565b613ba684848484035f6140a3565b50505050565b6001600160a01b038316613bee576040517f96c6fd1e0000000000000000000000000000000000000000000000000000000081525f6004820152602401610d1e565b6001600160a01b038216613c30576040517fec442f050000000000000000000000000000000000000000000000000000000081525f6004820152602401610d1e565b61365e8383836141cb565b306001600160a01b037f0000000000000000000000000000000000000000000000000000000000000000161480613cd457507f00000000000000000000000000000000000000000000000000000000000000006001600160a01b0316613cc87f360894a13ba1a3210667c828492db98dca3e2076cc3735a920a3ca505d382bbc546001600160a01b031690565b6001600160a01b031614155b156119be576040517fe07c8dba00000000000000000000000000000000000000000000000000000000815260040160405180910390fd5b610f41613e76565b816001600160a01b03166352d1902d6040518163ffffffff1660e01b8152600401602060405180830381865afa925050508015613d6d575060408051601f3d908101601f19168201909252613d6a91810190614d6d565b60015b613dae576040517f4c9c8ce30000000000000000000000000000000000000000000000000000000081526001600160a01b0383166004820152602401610d1e565b7f360894a13ba1a3210667c828492db98dca3e2076cc3735a920a3ca505d382bbc8114613e0a576040517faa1d49a400000000000000000000000000000000000000000000000000000000815260048101829052602401610d1e565b61365e8383614356565b306001600160a01b037f000000000000000000000000000000000000000000000000000000000000000016146119be576040517fe07c8dba00000000000000000000000000000000000000000000000000000000815260040160405180910390fd5b33613ea87f9016d09d72d40fdae2fd8ceac6b6234c7706214fd39c1cd1e609a0528c199300546001600160a01b031690565b6001600160a01b0316146119be576040517f118cdaa7000000000000000000000000000000000000000000000000000000008152336004820152602401610d1e565b7f9016d09d72d40fdae2fd8ceac6b6234c7706214fd39c1cd1e609a0528c19930080547fffffffffffffffffffffffff000000000000000000000000000000000000000081166001600160a01b03848116918217845560405192169182907f8be0079c531659141344cd1fd0a4f28419497f9722a3daafe3b4186f6b6457e0905f90a3505050565b5f80613f9c7f52c63247e1f47db19d5ce0460030c497f067ca4cebf71ba98eeadabe20bace025490565b90505f8111614007576040517f08c379a000000000000000000000000000000000000000000000000000000000815260206004820152601b60248201527f546f74616c20737570706c792063616e6e6f74206265207a65726f00000000006044820152606401610d1e565b5f6140106136e4565b90508161401d8286614db1565b61155d9190614dc8565b60605f611346836143ab565b61403b614404565b6119db828261446b565b61404d614404565b610f41816144ce565b61405e614404565b6119be6144d6565b6119be614404565b5f611346836001600160a01b0384166144de565b6001600160a01b0381165f9081526001830160205260408120541515611346565b7f52c63247e1f47db19d5ce0460030c497f067ca4cebf71ba98eeadabe20bace006001600160a01b038516614106576040517fe602df050000000000000000000000000000000000000000000000000000000081525f6004820152602401610d1e565b6001600160a01b038416614148576040517f94280d620000000000000000000000000000000000000000000000000000000081525f6004820152602401610d1e565b6001600160a01b038086165f9081526001830160209081526040808320938816835292905220839055811561193157836001600160a01b0316856001600160a01b03167f8c5be1e5ebec7d5bd14f71427d1e84f3dd0314c0f7b2291e5b200ac8c7c3b925856040516141bc91815260200190565b60405180910390a35050505050565b7f52c63247e1f47db19d5ce0460030c497f067ca4cebf71ba98eeadabe20bace006001600160a01b0384166142185781816002015f82825461420d919061505e565b909155506142a19050565b6001600160a01b0384165f9081526020829052604090205482811015614283576040517fe450d38c0000000000000000000000000000000000000000000000000000000081526001600160a01b03861660048201526024810182905260448101849052606401610d1e565b6001600160a01b0385165f9081526020839052604090209083900390555b6001600160a01b0383166142bf5760028101805483900390556142dd565b6001600160a01b0383165f9081526020829052604090208054830190555b826001600160a01b0316846001600160a01b03167fddf252ad1be2c89b69c2b068fc378daa952ba7f163c4a11628f55a4df523b3ef8460405161432291815260200190565b60405180910390a350505050565b5f825f01828154811061434557614345614f86565b905f5260205f200154905092915050565b61435f8261452a565b6040516001600160a01b038316907fbc7cd75a20ee27fd9adebab32041f755214dbc6bffa90cc0225b39da2e5c2d3b905f90a28051156143a35761365e82826145d1565b6119db61463a565b6060815f018054806020026020016040519081016040528092919081815260200182805480156143f857602002820191905f5260205f20905b8154815260200190600101908083116143e4575b50505050509050919050565b7ff0c57e16840df040f15088dc2f81fe391c3923bec73e23a9662efc9c229c6a005468010000000000000000900460ff166119be576040517fd7e6bcf800000000000000000000000000000000000000000000000000000000815260040160405180910390fd5b614473614404565b7f52c63247e1f47db19d5ce0460030c497f067ca4cebf71ba98eeadabe20bace007f52c63247e1f47db19d5ce0460030c497f067ca4cebf71ba98eeadabe20bace036144bf84826151de565b5060048101613ba683826151de565b612d13614404565b613804614404565b5f81815260018301602052604081205461452357508154600181810184555f848152602080822090930184905584548482528286019093526040902091909155610891565b505f610891565b806001600160a01b03163b5f03614578576040517f4c9c8ce30000000000000000000000000000000000000000000000000000000081526001600160a01b0382166004820152602401610d1e565b7f360894a13ba1a3210667c828492db98dca3e2076cc3735a920a3ca505d382bbc80547fffffffffffffffffffffffff0000000000000000000000000000000000000000166001600160a01b0392909216919091179055565b60605f80846001600160a01b0316846040516145ed91906152d8565b5f60405180830381855af49150503d805f8114614625576040519150601f19603f3d011682016040523d82523d5f602084013e61462a565b606091505b5091509150611dd5858383614672565b34156119be576040517fb398979f00000000000000000000000000000000000000000000000000000000815260040160405180910390fd5b60608261468757614682826146e7565b611346565b815115801561469e57506001600160a01b0384163b155b156146e0576040517f9996b3150000000000000000000000000000000000000000000000000000000081526001600160a01b0385166004820152602401610d1e565b5080611346565b8051156146f75780518082602001fd5b6040517f1425ea4200000000000000000000000000000000000000000000000000000000815260040160405180910390fd5b5f81518084528060208401602086015e5f602082860101526020601f19601f83011685010191505092915050565b602081525f6113466020830184614729565b6001600160a01b0381168114610f41575f80fd5b5f806040838503121561478e575f80fd5b823561479981614769565b946020939093013593505050565b5f602082840312156147b7575f80fd5b5035919050565b5f805f606084860312156147d0575f80fd5b83356147db81614769565b925060208401356147eb81614769565b929592945050506040919091013590565b5f6020828403121561480c575f80fd5b813561134681614769565b5f8060408385031215614828575f80fd5b82359150602083013561483a81614769565b809150509250929050565b7f4e487b71000000000000000000000000000000000000000000000000000000005f52604160045260245ffd5b6040516060810167ffffffffffffffff8111828210171561489557614895614845565b60405290565b604051601f8201601f1916810167ffffffffffffffff811182821017156148c4576148c4614845565b604052919050565b5f82601f8301126148db575f80fd5b813567ffffffffffffffff8111156148f5576148f5614845565b6149086020601f19601f8401160161489b565b81815284602083860101111561491c575f80fd5b816020850160208301375f918101602001919091529392505050565b5f8060408385031215614949575f80fd5b823561495481614769565b9150602083013567ffffffffffffffff81111561496f575f80fd5b61497b858286016148cc565b9150509250929050565b5f8083601f840112614995575f80fd5b50813567ffffffffffffffff8111156149ac575f80fd5b6020830191508360208260051b85010111156149c6575f80fd5b9250929050565b5f805f805f805f8060c0898b0312156149e4575f80fd5b883567ffffffffffffffff808211156149fb575f80fd5b614a078c838d01614985565b909a50985060208b0135915080821115614a1f575f80fd5b50614a2c8b828c01614985565b9097509550506040890135614a4081614769565b93506060890135614a5081614769565b92506080890135915060a0890135614a6781614769565b809150509295985092959890939650565b5f8060408385031215614a89575f80fd5b8235614a9481614769565b9150602083013567ffffffffffffffff8116811461483a575f80fd5b5f815180845260208085019450602084015f5b83811015614ae85781516001600160a01b031687529582019590820190600101614ac3565b509495945050505050565b602081525f6113466020830184614ab0565b5f8060408385031215614b16575f80fd5b8235614b2181614769565b9150602083013561483a81614769565b5f67ffffffffffffffff821115614b4a57614b4a614845565b5060051b60200190565b5f82601f830112614b63575f80fd5b81356020614b78614b7383614b31565b61489b565b8083825260208201915060208460051b870101935086841115614b99575f80fd5b602086015b84811015614bbe578035614bb181614769565b8352918301918301614b9e565b509695505050505050565b5f8060408385031215614bda575f80fd5b823567ffffffffffffffff80821115614bf1575f80fd5b818501915085601f830112614c04575f80fd5b81356020614c14614b7383614b31565b82815260059290921b84018101918181019089841115614c32575f80fd5b8286015b84811015614cb557803586811115614c4c575f80fd5b87016060818d03601f1901811315614c62575f80fd5b614c6a614872565b86830135614c7781614769565b8152604083013587820152908201359088821115614c93575f80fd5b614ca18e88848601016148cc565b604082015285525050918301918301614c36565b5096505086013592505080821115614ccb575f80fd5b5061497b85828601614b54565b5f805f8060808587031215614ceb575f80fd5b5050823594602084013594506040840135936060013592509050565b600181811c90821680614d1b57607f821691505b6020821081036137b1577f4e487b71000000000000000000000000000000000000000000000000000000005f52602260045260245ffd5b5f60208284031215614d62575f80fd5b815161134681614769565b5f60208284031215614d7d575f80fd5b5051919050565b7f4e487b71000000000000000000000000000000000000000000000000000000005f52601160045260245ffd5b808202811582820484141761089157610891614d84565b5f82614dfb577f4e487b71000000000000000000000000000000000000000000000000000000005f52601260045260245ffd5b500490565b5f60208284031215614e10575f80fd5b81518015158114611346575f80fd5b5f60208284031215614e2f575f80fd5b815160ff81168114611346575f80fd5b8181038181111561089157610891614d84565b8183525f60208085019450825f5b85811015614ae8578135614e7381614769565b6001600160a01b031687529582019590820190600101614e60565b8183525f7f07ffffffffffffffffffffffffffffffffffffffffffffffffffffffffffffff831115614ebe575f80fd5b8260051b80836020870137939093016020019392505050565b60e08082528a519082018190525f90602090610100840190828e01845b82811015614f1057815184529284019290840190600101614ef4565b5050508381036020850152614f26818c8e614e52565b9150508281036040840152614f3c81898b614e8e565b915050856060830152614f5a60808301866001600160a01b03169052565b6001600160a01b03841660a08301526001600160a01b03831660c08301529a9950505050505050505050565b7f4e487b71000000000000000000000000000000000000000000000000000000005f52603260045260245ffd5b5f6040808301604084528086518083526060925060608601915060608160051b8701016020808a015f5b8481101561504b578984037fffffffffffffffffffffffffffffffffffffffffffffffffffffffffffffffa0018652815180516001600160a01b03168552838101518486015288015188850188905261503888860182614729565b9684019694505090820190600101614fdd565b505087820390880152613a808189614ab0565b8082018082111561089157610891614d84565b600181815b808511156150ca57817fffffffffffffffffffffffffffffffffffffffffffffffffffffffffffffffff048211156150b0576150b0614d84565b808516156150bd57918102915b93841c9390800290615076565b509250929050565b5f826150e057506001610891565b816150ec57505f610891565b8160018114615102576002811461510c57615128565b6001915050610891565b60ff84111561511d5761511d614d84565b50506001821b610891565b5060208310610133831016604e8410600b841016171561514b575081810a610891565b6151558383615071565b807fffffffffffffffffffffffffffffffffffffffffffffffffffffffffffffffff0482111561518757615187614d84565b029392505050565b5f61134683836150d2565b601f82111561365e57805f5260205f20601f840160051c810160208510156151bf5750805b601f840160051c820191505b81811015611931575f81556001016151cb565b815167ffffffffffffffff8111156151f8576151f8614845565b61520c816152068454614d07565b8461519a565b602080601f83116001811461525e575f84156152285750858301515b7fffffffffffffffffffffffffffffffffffffffffffffffffffffffffffffffff600386901b1c1916600185901b178555611929565b5f85815260208120601f198616915b8281101561528c5788860151825594840194600190910190840161526d565b50858210156152c857878501517fffffffffffffffffffffffffffffffffffffffffffffffffffffffffffffffff600388901b60f8161c191681555b5050505050600190811b01905550565b5f82518060208501845e5f92019182525091905056fea2646970667358221220bd7a500e9d6050da78452aaee67d7d29a6dd8d4bc6e81c7ad0936efd24aad0ed64736f6c63430008190033","opcodes":"PUSH1 0xA0 PUSH1 0x40 MSTORE ADDRESS PUSH1 0x80 MSTORE CALLVALUE DUP1 ISZERO PUSH1 0x12 JUMPI PUSH0 DUP1 REVERT JUMPDEST POP PUSH1 0x80 MLOAD PUSH2 0x5324 PUSH2 0x39 PUSH0 CODECOPY PUSH0 DUP2 DUP2 PUSH2 0x3C46 ADD MSTORE DUP2 DUP2 PUSH2 0x3C6F ADD MSTORE PUSH2 0x3E1F ADD MSTORE PUSH2 0x5324 PUSH0 RETURN INVALID PUSH1 0x80 PUSH1 0x40 MSTORE PUSH1 0x4 CALLDATASIZE LT PUSH2 0x25D JUMPI PUSH0 CALLDATALOAD PUSH1 0xE0 SHR DUP1 PUSH4 0x71DDCFB8 GT PUSH2 0x14B JUMPI DUP1 PUSH4 0xC4D66DE8 GT PUSH2 0xC6 JUMPI DUP1 PUSH4 0xE73FAA2D GT PUSH2 0x7C JUMPI DUP1 PUSH4 0xF2FDE38B GT PUSH2 0x62 JUMPI DUP1 PUSH4 0xF2FDE38B EQ PUSH2 0x74E JUMPI DUP1 PUSH4 0xFE0A4DD1 EQ PUSH2 0x76D JUMPI DUP1 PUSH4 0xFE330A51 EQ PUSH2 0x78C JUMPI PUSH0 DUP1 REVERT JUMPDEST DUP1 PUSH4 0xE73FAA2D EQ PUSH2 0x71B JUMPI DUP1 PUSH4 0xEEDC3C50 EQ PUSH2 0x72F JUMPI PUSH0 DUP1 REVERT JUMPDEST DUP1 PUSH4 0xD48BFCA7 GT PUSH2 0xAC JUMPI DUP1 PUSH4 0xD48BFCA7 EQ PUSH2 0x67A JUMPI DUP1 PUSH4 0xDD62ED3E EQ PUSH2 0x699 JUMPI DUP1 PUSH4 0xE67AD759 EQ PUSH2 0x6FC JUMPI PUSH0 DUP1 REVERT JUMPDEST DUP1 PUSH4 0xC4D66DE8 EQ PUSH2 0x63C JUMPI DUP1 PUSH4 0xCDF456E1 EQ PUSH2 0x65B JUMPI PUSH0 DUP1 REVERT JUMPDEST DUP1 PUSH4 0x95D89B41 GT PUSH2 0x11B JUMPI DUP1 PUSH4 0xAA6CA808 GT PUSH2 0x101 JUMPI DUP1 PUSH4 0xAA6CA808 EQ PUSH2 0x5B4 JUMPI DUP1 PUSH4 0xAA95D893 EQ PUSH2 0x5D5 JUMPI DUP1 PUSH4 0xAD3CB1CC EQ PUSH2 0x5F4 JUMPI PUSH0 DUP1 REVERT JUMPDEST DUP1 PUSH4 0x95D89B41 EQ PUSH2 0x581 JUMPI DUP1 PUSH4 0xA9059CBB EQ PUSH2 0x595 JUMPI PUSH0 DUP1 REVERT JUMPDEST DUP1 PUSH4 0x71DDCFB8 EQ PUSH2 0x4E8 JUMPI DUP1 PUSH4 0x7B103999 EQ PUSH2 0x507 JUMPI DUP1 PUSH4 0x8DA5CB5B EQ PUSH2 0x526 JUMPI DUP1 PUSH4 0x8F2248BC EQ PUSH2 0x562 JUMPI PUSH0 DUP1 REVERT JUMPDEST DUP1 PUSH4 0x2BDD955A GT PUSH2 0x1DB JUMPI DUP1 PUSH4 0x4F1EF286 GT PUSH2 0x1AB JUMPI DUP1 PUSH4 0x599F69F7 GT PUSH2 0x191 JUMPI DUP1 PUSH4 0x599F69F7 EQ PUSH2 0x462 JUMPI DUP1 PUSH4 0x70A08231 EQ PUSH2 0x481 JUMPI DUP1 PUSH4 0x715018A6 EQ PUSH2 0x4D4 JUMPI PUSH0 DUP1 REVERT JUMPDEST DUP1 PUSH4 0x4F1EF286 EQ PUSH2 0x43B JUMPI DUP1 PUSH4 0x52D1902D EQ PUSH2 0x44E JUMPI PUSH0 DUP1 REVERT JUMPDEST DUP1 PUSH4 0x2BDD955A EQ PUSH2 0x3CE JUMPI DUP1 PUSH4 0x2F865568 EQ PUSH2 0x3ED JUMPI DUP1 PUSH4 0x313CE567 EQ PUSH2 0x40C JUMPI DUP1 PUSH4 0x3C2066A9 EQ PUSH2 0x427 JUMPI PUSH0 DUP1 REVERT JUMPDEST DUP1 PUSH4 0x18160DDD GT PUSH2 0x230 JUMPI DUP1 PUSH4 0x23B872DD GT PUSH2 0x216 JUMPI DUP1 PUSH4 0x23B872DD EQ PUSH2 0x364 JUMPI DUP1 PUSH4 0x27D54A92 EQ PUSH2 0x383 JUMPI DUP1 PUSH4 0x295B9300 EQ PUSH2 0x3BA JUMPI PUSH0 DUP1 REVERT JUMPDEST DUP1 PUSH4 0x18160DDD EQ PUSH2 0x308 JUMPI DUP1 PUSH4 0x1A168DA2 EQ PUSH2 0x345 JUMPI PUSH0 DUP1 REVERT JUMPDEST DUP1 PUSH4 0x6FDDE03 EQ PUSH2 0x261 JUMPI DUP1 PUSH4 0x95EA7B3 EQ PUSH2 0x28B JUMPI DUP1 PUSH4 0xCFC7386 EQ PUSH2 0x2BA JUMPI DUP1 PUSH4 0xD8E6E2C EQ PUSH2 0x2DB JUMPI JUMPDEST PUSH0 DUP1 REVERT JUMPDEST CALLVALUE DUP1 ISZERO PUSH2 0x26C JUMPI PUSH0 DUP1 REVERT JUMPDEST POP PUSH2 0x275 PUSH2 0x7AB JUMP JUMPDEST PUSH1 0x40 MLOAD PUSH2 0x282 SWAP2 SWAP1 PUSH2 0x4757 JUMP JUMPDEST PUSH1 0x40 MLOAD DUP1 SWAP2 SUB SWAP1 RETURN JUMPDEST CALLVALUE DUP1 ISZERO PUSH2 0x296 JUMPI PUSH0 DUP1 REVERT JUMPDEST POP PUSH2 0x2AA PUSH2 0x2A5 CALLDATASIZE PUSH1 0x4 PUSH2 0x477D JUMP JUMPDEST PUSH2 0x87E JUMP JUMPDEST PUSH1 0x40 MLOAD SWAP1 ISZERO ISZERO DUP2 MSTORE PUSH1 0x20 ADD PUSH2 0x282 JUMP JUMPDEST CALLVALUE DUP1 ISZERO PUSH2 0x2C5 JUMPI PUSH0 DUP1 REVERT JUMPDEST POP PUSH2 0x2D9 PUSH2 0x2D4 CALLDATASIZE PUSH1 0x4 PUSH2 0x47A7 JUMP JUMPDEST PUSH2 0x897 JUMP JUMPDEST STOP JUMPDEST CALLVALUE DUP1 ISZERO PUSH2 0x2E6 JUMPI PUSH0 DUP1 REVERT JUMPDEST POP PUSH2 0x2EF PUSH2 0xF44 JUMP JUMPDEST PUSH1 0x40 MLOAD PUSH8 0xFFFFFFFFFFFFFFFF SWAP1 SWAP2 AND DUP2 MSTORE PUSH1 0x20 ADD PUSH2 0x282 JUMP JUMPDEST CALLVALUE DUP1 ISZERO PUSH2 0x313 JUMPI PUSH0 DUP1 REVERT JUMPDEST POP PUSH32 0x52C63247E1F47DB19D5CE0460030C497F067CA4CEBF71BA98EEADABE20BACE02 SLOAD JUMPDEST PUSH1 0x40 MLOAD SWAP1 DUP2 MSTORE PUSH1 0x20 ADD PUSH2 0x282 JUMP JUMPDEST CALLVALUE DUP1 ISZERO PUSH2 0x350 JUMPI PUSH0 DUP1 REVERT JUMPDEST POP PUSH2 0x2D9 PUSH2 0x35F CALLDATASIZE PUSH1 0x4 PUSH2 0x47A7 JUMP JUMPDEST PUSH2 0xF7C JUMP JUMPDEST CALLVALUE DUP1 ISZERO PUSH2 0x36F JUMPI PUSH0 DUP1 REVERT JUMPDEST POP PUSH2 0x2AA PUSH2 0x37E CALLDATASIZE PUSH1 0x4 PUSH2 0x47BE JUMP JUMPDEST PUSH2 0x1328 JUMP JUMPDEST CALLVALUE DUP1 ISZERO PUSH2 0x38E JUMPI PUSH0 DUP1 REVERT JUMPDEST POP PUSH2 0x3A2 PUSH2 0x39D CALLDATASIZE PUSH1 0x4 PUSH2 0x47FC JUMP JUMPDEST PUSH2 0x134D JUMP JUMPDEST PUSH1 0x40 MLOAD PUSH1 0x1 PUSH1 0x1 PUSH1 0xA0 SHL SUB SWAP1 SWAP2 AND DUP2 MSTORE PUSH1 0x20 ADD PUSH2 0x282 JUMP JUMPDEST CALLVALUE DUP1 ISZERO PUSH2 0x3C5 JUMPI PUSH0 DUP1 REVERT JUMPDEST POP PUSH2 0x337 PUSH2 0x1448 JUMP JUMPDEST CALLVALUE DUP1 ISZERO PUSH2 0x3D9 JUMPI PUSH0 DUP1 REVERT JUMPDEST POP PUSH2 0x337 PUSH2 0x3E8 CALLDATASIZE PUSH1 0x4 PUSH2 0x4817 JUMP JUMPDEST PUSH2 0x1451 JUMP JUMPDEST CALLVALUE DUP1 ISZERO PUSH2 0x3F8 JUMPI PUSH0 DUP1 REVERT JUMPDEST POP PUSH2 0x2D9 PUSH2 0x407 CALLDATASIZE PUSH1 0x4 PUSH2 0x47FC JUMP JUMPDEST PUSH2 0x1565 JUMP JUMPDEST CALLVALUE DUP1 ISZERO PUSH2 0x417 JUMPI PUSH0 DUP1 REVERT JUMPDEST POP PUSH1 0x40 MLOAD PUSH1 0x12 DUP2 MSTORE PUSH1 0x20 ADD PUSH2 0x282 JUMP JUMPDEST CALLVALUE DUP1 ISZERO PUSH2 0x432 JUMPI PUSH0 DUP1 REVERT JUMPDEST POP PUSH2 0x2D9 PUSH2 0x1938 JUMP JUMPDEST PUSH2 0x2D9 PUSH2 0x449 CALLDATASIZE PUSH1 0x4 PUSH2 0x4938 JUMP JUMPDEST PUSH2 0x19C0 JUMP JUMPDEST CALLVALUE DUP1 ISZERO PUSH2 0x459 JUMPI PUSH0 DUP1 REVERT JUMPDEST POP PUSH2 0x337 PUSH2 0x19DF JUMP JUMPDEST CALLVALUE DUP1 ISZERO PUSH2 0x46D JUMPI PUSH0 DUP1 REVERT JUMPDEST POP PUSH2 0x2D9 PUSH2 0x47C CALLDATASIZE PUSH1 0x4 PUSH2 0x49CD JUMP JUMPDEST PUSH2 0x1A0D JUMP JUMPDEST CALLVALUE DUP1 ISZERO PUSH2 0x48C JUMPI PUSH0 DUP1 REVERT JUMPDEST POP PUSH2 0x337 PUSH2 0x49B CALLDATASIZE PUSH1 0x4 PUSH2 0x47FC JUMP JUMPDEST PUSH1 0x1 PUSH1 0x1 PUSH1 0xA0 SHL SUB AND PUSH0 SWAP1 DUP2 MSTORE PUSH32 0x52C63247E1F47DB19D5CE0460030C497F067CA4CEBF71BA98EEADABE20BACE00 PUSH1 0x20 MSTORE PUSH1 0x40 SWAP1 KECCAK256 SLOAD SWAP1 JUMP JUMPDEST CALLVALUE DUP1 ISZERO PUSH2 0x4DF JUMPI PUSH0 DUP1 REVERT JUMPDEST POP PUSH2 0x2D9 PUSH2 0x1B9C JUMP JUMPDEST CALLVALUE DUP1 ISZERO PUSH2 0x4F3 JUMPI PUSH0 DUP1 REVERT JUMPDEST POP PUSH2 0x337 PUSH2 0x502 CALLDATASIZE PUSH1 0x4 PUSH2 0x47A7 JUMP JUMPDEST PUSH2 0x1BAD JUMP JUMPDEST CALLVALUE DUP1 ISZERO PUSH2 0x512 JUMPI PUSH0 DUP1 REVERT JUMPDEST POP PUSH1 0x2 SLOAD PUSH2 0x3A2 SWAP1 PUSH1 0x1 PUSH1 0x1 PUSH1 0xA0 SHL SUB AND DUP2 JUMP JUMPDEST CALLVALUE DUP1 ISZERO PUSH2 0x531 JUMPI PUSH0 DUP1 REVERT JUMPDEST POP PUSH32 0x9016D09D72D40FDAE2FD8CEAC6B6234C7706214FD39C1CD1E609A0528C199300 SLOAD PUSH1 0x1 PUSH1 0x1 PUSH1 0xA0 SHL SUB AND PUSH2 0x3A2 JUMP JUMPDEST CALLVALUE DUP1 ISZERO PUSH2 0x56D JUMPI PUSH0 DUP1 REVERT JUMPDEST POP PUSH2 0x2D9 PUSH2 0x57C CALLDATASIZE PUSH1 0x4 PUSH2 0x4A78 JUMP JUMPDEST PUSH2 0x1BB7 JUMP JUMPDEST CALLVALUE DUP1 ISZERO PUSH2 0x58C JUMPI PUSH0 DUP1 REVERT JUMPDEST POP PUSH2 0x275 PUSH2 0x1D0E JUMP JUMPDEST CALLVALUE DUP1 ISZERO PUSH2 0x5A0 JUMPI PUSH0 DUP1 REVERT JUMPDEST POP PUSH2 0x2AA PUSH2 0x5AF CALLDATASIZE PUSH1 0x4 PUSH2 0x477D JUMP JUMPDEST PUSH2 0x1D5F JUMP JUMPDEST CALLVALUE DUP1 ISZERO PUSH2 0x5BF JUMPI PUSH0 DUP1 REVERT JUMPDEST POP PUSH2 0x5C8 PUSH2 0x1D6C JUMP JUMPDEST PUSH1 0x40 MLOAD PUSH2 0x282 SWAP2 SWAP1 PUSH2 0x4AF3 JUMP JUMPDEST CALLVALUE DUP1 ISZERO PUSH2 0x5E0 JUMPI PUSH0 DUP1 REVERT JUMPDEST POP PUSH2 0x337 PUSH2 0x5EF CALLDATASIZE PUSH1 0x4 PUSH2 0x47A7 JUMP JUMPDEST PUSH2 0x1D77 JUMP JUMPDEST CALLVALUE DUP1 ISZERO PUSH2 0x5FF JUMPI PUSH0 DUP1 REVERT JUMPDEST POP PUSH2 0x275 PUSH1 0x40 MLOAD DUP1 PUSH1 0x40 ADD PUSH1 0x40 MSTORE DUP1 PUSH1 0x5 DUP2 MSTORE PUSH1 0x20 ADD PUSH32 0x352E302E30000000000000000000000000000000000000000000000000000000 DUP2 MSTORE POP DUP2 JUMP JUMPDEST CALLVALUE DUP1 ISZERO PUSH2 0x647 JUMPI PUSH0 DUP1 REVERT JUMPDEST POP PUSH2 0x2D9 PUSH2 0x656 CALLDATASIZE PUSH1 0x4 PUSH2 0x47FC JUMP JUMPDEST PUSH2 0x1DDE JUMP JUMPDEST CALLVALUE DUP1 ISZERO PUSH2 0x666 JUMPI PUSH0 DUP1 REVERT JUMPDEST POP PUSH1 0x3 SLOAD PUSH2 0x3A2 SWAP1 PUSH1 0x1 PUSH1 0x1 PUSH1 0xA0 SHL SUB AND DUP2 JUMP JUMPDEST CALLVALUE DUP1 ISZERO PUSH2 0x685 JUMPI PUSH0 DUP1 REVERT JUMPDEST POP PUSH2 0x2D9 PUSH2 0x694 CALLDATASIZE PUSH1 0x4 PUSH2 0x47FC JUMP JUMPDEST PUSH2 0x20D5 JUMP JUMPDEST CALLVALUE DUP1 ISZERO PUSH2 0x6A4 JUMPI PUSH0 DUP1 REVERT JUMPDEST POP PUSH2 0x337 PUSH2 0x6B3 CALLDATASIZE PUSH1 0x4 PUSH2 0x4B05 JUMP JUMPDEST PUSH1 0x1 PUSH1 0x1 PUSH1 0xA0 SHL SUB SWAP2 DUP3 AND PUSH0 SWAP1 DUP2 MSTORE PUSH32 0x52C63247E1F47DB19D5CE0460030C497F067CA4CEBF71BA98EEADABE20BACE01 PUSH1 0x20 SWAP1 DUP2 MSTORE PUSH1 0x40 DUP1 DUP4 KECCAK256 SWAP4 SWAP1 SWAP5 AND DUP3 MSTORE SWAP2 SWAP1 SWAP2 MSTORE KECCAK256 SLOAD SWAP1 JUMP JUMPDEST CALLVALUE DUP1 ISZERO PUSH2 0x707 JUMPI PUSH0 DUP1 REVERT JUMPDEST POP PUSH2 0x2D9 PUSH2 0x716 CALLDATASIZE PUSH1 0x4 PUSH2 0x47FC JUMP JUMPDEST PUSH2 0x20E7 JUMP JUMPDEST CALLVALUE DUP1 ISZERO PUSH2 0x726 JUMPI PUSH0 DUP1 REVERT JUMPDEST POP PUSH2 0x337 PUSH2 0x2129 JUMP JUMPDEST CALLVALUE DUP1 ISZERO PUSH2 0x73A JUMPI PUSH0 DUP1 REVERT JUMPDEST POP PUSH2 0x2D9 PUSH2 0x749 CALLDATASIZE PUSH1 0x4 PUSH2 0x4BC9 JUMP JUMPDEST PUSH2 0x213B JUMP JUMPDEST CALLVALUE DUP1 ISZERO PUSH2 0x759 JUMPI PUSH0 DUP1 REVERT JUMPDEST POP PUSH2 0x2D9 PUSH2 0x768 CALLDATASIZE PUSH1 0x4 PUSH2 0x47FC JUMP JUMPDEST PUSH2 0x2D0B JUMP JUMPDEST CALLVALUE DUP1 ISZERO PUSH2 0x778 JUMPI PUSH0 DUP1 REVERT JUMPDEST POP PUSH2 0x2D9 PUSH2 0x787 CALLDATASIZE PUSH1 0x4 PUSH2 0x47A7 JUMP JUMPDEST PUSH2 0x2D5E JUMP JUMPDEST CALLVALUE DUP1 ISZERO PUSH2 0x797 JUMPI PUSH0 DUP1 REVERT JUMPDEST POP PUSH2 0x337 PUSH2 0x7A6 CALLDATASIZE PUSH1 0x4 PUSH2 0x4CD8 JUMP JUMPDEST PUSH2 0x3644 JUMP JUMPDEST PUSH32 0x52C63247E1F47DB19D5CE0460030C497F067CA4CEBF71BA98EEADABE20BACE03 DUP1 SLOAD PUSH1 0x60 SWAP2 PUSH32 0x52C63247E1F47DB19D5CE0460030C497F067CA4CEBF71BA98EEADABE20BACE00 SWAP2 PUSH2 0x7FC SWAP1 PUSH2 0x4D07 JUMP JUMPDEST DUP1 PUSH1 0x1F ADD PUSH1 0x20 DUP1 SWAP2 DIV MUL PUSH1 0x20 ADD PUSH1 0x40 MLOAD SWAP1 DUP2 ADD PUSH1 0x40 MSTORE DUP1 SWAP3 SWAP2 SWAP1 DUP2 DUP2 MSTORE PUSH1 0x20 ADD DUP3 DUP1 SLOAD PUSH2 0x828 SWAP1 PUSH2 0x4D07 JUMP JUMPDEST DUP1 ISZERO PUSH2 0x873 JUMPI DUP1 PUSH1 0x1F LT PUSH2 0x84A JUMPI PUSH2 0x100 DUP1 DUP4 SLOAD DIV MUL DUP4 MSTORE SWAP2 PUSH1 0x20 ADD SWAP2 PUSH2 0x873 JUMP JUMPDEST DUP3 ADD SWAP2 SWAP1 PUSH0 MSTORE PUSH1 0x20 PUSH0 KECCAK256 SWAP1 JUMPDEST DUP2 SLOAD DUP2 MSTORE SWAP1 PUSH1 0x1 ADD SWAP1 PUSH1 0x20 ADD DUP1 DUP4 GT PUSH2 0x856 JUMPI DUP3 SWAP1 SUB PUSH1 0x1F AND DUP3 ADD SWAP2 JUMPDEST POP POP POP POP POP SWAP2 POP POP SWAP1 JUMP JUMPDEST PUSH0 CALLER PUSH2 0x88B DUP2 DUP6 DUP6 PUSH2 0x3651 JUMP JUMPDEST PUSH1 0x1 SWAP2 POP POP JUMPDEST SWAP3 SWAP2 POP POP JUMP JUMPDEST PUSH2 0x89F PUSH2 0x3663 JUMP JUMPDEST PUSH1 0x2 SLOAD PUSH1 0x40 DUP1 MLOAD PUSH32 0x3B19E84A00000000000000000000000000000000000000000000000000000000 DUP2 MSTORE SWAP1 MLOAD PUSH0 SWAP3 PUSH1 0x1 PUSH1 0x1 PUSH1 0xA0 SHL SUB AND SWAP2 PUSH4 0x3B19E84A SWAP2 PUSH1 0x4 DUP1 DUP4 ADD SWAP3 PUSH1 0x20 SWAP3 SWAP2 SWAP1 DUP3 SWAP1 SUB ADD DUP2 DUP7 GAS STATICCALL ISZERO DUP1 ISZERO PUSH2 0x8FF JUMPI RETURNDATASIZE PUSH0 DUP1 RETURNDATACOPY RETURNDATASIZE PUSH0 REVERT JUMPDEST POP POP POP POP PUSH1 0x40 MLOAD RETURNDATASIZE PUSH1 0x1F NOT PUSH1 0x1F DUP3 ADD AND DUP3 ADD DUP1 PUSH1 0x40 MSTORE POP DUP2 ADD SWAP1 PUSH2 0x923 SWAP2 SWAP1 PUSH2 0x4D52 JUMP JUMPDEST SWAP1 POP PUSH0 PUSH1 0x2 PUSH0 SWAP1 SLOAD SWAP1 PUSH2 0x100 EXP SWAP1 DIV PUSH1 0x1 PUSH1 0x1 PUSH1 0xA0 SHL SUB AND PUSH1 0x1 PUSH1 0x1 PUSH1 0xA0 SHL SUB AND PUSH4 0x1BF01E9B PUSH1 0x40 MLOAD DUP2 PUSH4 0xFFFFFFFF AND PUSH1 0xE0 SHL DUP2 MSTORE PUSH1 0x4 ADD PUSH1 0x20 PUSH1 0x40 MLOAD DUP1 DUP4 SUB DUP2 DUP7 GAS STATICCALL ISZERO DUP1 ISZERO PUSH2 0x976 JUMPI RETURNDATASIZE PUSH0 DUP1 RETURNDATACOPY RETURNDATASIZE PUSH0 REVERT JUMPDEST POP POP POP POP PUSH1 0x40 MLOAD RETURNDATASIZE PUSH1 0x1F NOT PUSH1 0x1F DUP3 ADD AND DUP3 ADD DUP1 PUSH1 0x40 MSTORE POP DUP2 ADD SWAP1 PUSH2 0x99A SWAP2 SWAP1 PUSH2 0x4D52 JUMP JUMPDEST SWAP1 POP PUSH0 PUSH1 0x2 PUSH0 SWAP1 SLOAD SWAP1 PUSH2 0x100 EXP SWAP1 DIV PUSH1 0x1 PUSH1 0x1 PUSH1 0xA0 SHL SUB AND PUSH1 0x1 PUSH1 0x1 PUSH1 0xA0 SHL SUB AND PUSH4 0x85462D6F PUSH1 0x40 MLOAD DUP2 PUSH4 0xFFFFFFFF AND PUSH1 0xE0 SHL DUP2 MSTORE PUSH1 0x4 ADD PUSH1 0x20 PUSH1 0x40 MLOAD DUP1 DUP4 SUB DUP2 DUP7 GAS STATICCALL ISZERO DUP1 ISZERO PUSH2 0x9ED JUMPI RETURNDATASIZE PUSH0 DUP1 RETURNDATACOPY RETURNDATASIZE PUSH0 REVERT JUMPDEST POP POP POP POP PUSH1 0x40 MLOAD RETURNDATASIZE PUSH1 0x1F NOT PUSH1 0x1F DUP3 ADD AND DUP3 ADD DUP1 PUSH1 0x40 MSTORE POP DUP2 ADD SWAP1 PUSH2 0xA11 SWAP2 SWAP1 PUSH2 0x4D6D JUMP JUMPDEST SWAP1 POP PUSH0 PUSH1 0x2 PUSH0 SWAP1 SLOAD SWAP1 PUSH2 0x100 EXP SWAP1 DIV PUSH1 0x1 PUSH1 0x1 PUSH1 0xA0 SHL SUB AND PUSH1 0x1 PUSH1 0x1 PUSH1 0xA0 SHL SUB AND PUSH4 0x4F4608A2 PUSH1 0x40 MLOAD DUP2 PUSH4 0xFFFFFFFF AND PUSH1 0xE0 SHL DUP2 MSTORE PUSH1 0x4 ADD PUSH1 0x20 PUSH1 0x40 MLOAD DUP1 DUP4 SUB DUP2 DUP7 GAS STATICCALL ISZERO DUP1 ISZERO PUSH2 0xA64 JUMPI RETURNDATASIZE PUSH0 DUP1 RETURNDATACOPY RETURNDATASIZE PUSH0 REVERT JUMPDEST POP POP POP POP PUSH1 0x40 MLOAD RETURNDATASIZE PUSH1 0x1F NOT PUSH1 0x1F DUP3 ADD AND DUP3 ADD DUP1 PUSH1 0x40 MSTORE POP DUP2 ADD SWAP1 PUSH2 0xA88 SWAP2 SWAP1 PUSH2 0x4D6D JUMP JUMPDEST SWAP1 POP PUSH0 PUSH2 0xA93 PUSH2 0x36E4 JUMP JUMPDEST SWAP1 POP PUSH0 PUSH2 0xABE PUSH32 0x52C63247E1F47DB19D5CE0460030C497F067CA4CEBF71BA98EEADABE20BACE02 SLOAD SWAP1 JUMP JUMPDEST SWAP1 POP PUSH0 DUP2 PUSH2 0xACC DUP5 DUP11 PUSH2 0x4DB1 JUMP JUMPDEST PUSH2 0xAD6 SWAP2 SWAP1 PUSH2 0x4DC8 JUMP JUMPDEST SWAP1 POP PUSH1 0x1 PUSH1 0x1 PUSH1 0xA0 SHL SUB DUP7 AND PUSH4 0x23B872DD CALLER ADDRESS PUSH2 0xAF8 PUSH5 0xE8D4A51000 DUP7 PUSH2 0x4DC8 JUMP JUMPDEST PUSH1 0x40 MLOAD PUSH32 0xFFFFFFFF00000000000000000000000000000000000000000000000000000000 PUSH1 0xE0 DUP7 SWAP1 SHL AND DUP2 MSTORE PUSH1 0x1 PUSH1 0x1 PUSH1 0xA0 SHL SUB SWAP4 DUP5 AND PUSH1 0x4 DUP3 ADD MSTORE SWAP3 SWAP1 SWAP2 AND PUSH1 0x24 DUP4 ADD MSTORE PUSH1 0x44 DUP3 ADD MSTORE PUSH1 0x64 ADD PUSH1 0x20 PUSH1 0x40 MLOAD DUP1 DUP4 SUB DUP2 PUSH0 DUP8 GAS CALL ISZERO DUP1 ISZERO PUSH2 0xB61 JUMPI RETURNDATASIZE PUSH0 DUP1 RETURNDATACOPY RETURNDATASIZE PUSH0 REVERT JUMPDEST POP POP POP POP PUSH1 0x40 MLOAD RETURNDATASIZE PUSH1 0x1F NOT PUSH1 0x1F DUP3 ADD AND DUP3 ADD DUP1 PUSH1 0x40 MSTORE POP DUP2 ADD SWAP1 PUSH2 0xB85 SWAP2 SWAP1 PUSH2 0x4E00 JUMP JUMPDEST POP PUSH1 0x40 MLOAD PUSH32 0x70A0823100000000000000000000000000000000000000000000000000000000 DUP2 MSTORE CALLER PUSH1 0x4 DUP3 ADD MSTORE PUSH0 SWAP1 PUSH1 0x1 PUSH1 0x1 PUSH1 0xA0 SHL SUB DUP9 AND SWAP1 PUSH4 0x70A08231 SWAP1 PUSH1 0x24 ADD PUSH1 0x20 PUSH1 0x40 MLOAD DUP1 DUP4 SUB DUP2 DUP7 GAS STATICCALL ISZERO DUP1 ISZERO PUSH2 0xBE3 JUMPI RETURNDATASIZE PUSH0 DUP1 RETURNDATACOPY RETURNDATASIZE PUSH0 REVERT JUMPDEST POP POP POP POP PUSH1 0x40 MLOAD RETURNDATASIZE PUSH1 0x1F NOT PUSH1 0x1F DUP3 ADD AND DUP3 ADD DUP1 PUSH1 0x40 MSTORE POP DUP2 ADD SWAP1 PUSH2 0xC07 SWAP2 SWAP1 PUSH2 0x4D6D JUMP JUMPDEST PUSH1 0x40 MLOAD PUSH32 0xDD62ED3E00000000000000000000000000000000000000000000000000000000 DUP2 MSTORE CALLER PUSH1 0x4 DUP3 ADD MSTORE ADDRESS PUSH1 0x24 DUP3 ADD MSTORE SWAP1 SWAP2 POP PUSH0 SWAP1 PUSH1 0x1 PUSH1 0x1 PUSH1 0xA0 SHL SUB DUP10 AND SWAP1 PUSH4 0xDD62ED3E SWAP1 PUSH1 0x44 ADD PUSH1 0x20 PUSH1 0x40 MLOAD DUP1 DUP4 SUB DUP2 DUP7 GAS STATICCALL ISZERO DUP1 ISZERO PUSH2 0xC6D JUMPI RETURNDATASIZE PUSH0 DUP1 RETURNDATACOPY RETURNDATASIZE PUSH0 REVERT JUMPDEST POP POP POP POP PUSH1 0x40 MLOAD RETURNDATASIZE PUSH1 0x1F NOT PUSH1 0x1F DUP3 ADD AND DUP3 ADD DUP1 PUSH1 0x40 MSTORE POP DUP2 ADD SWAP1 PUSH2 0xC91 SWAP2 SWAP1 PUSH2 0x4D6D JUMP JUMPDEST SWAP1 POP PUSH0 DUP5 GT PUSH2 0xD27 JUMPI PUSH1 0x40 MLOAD PUSH32 0x8C379A000000000000000000000000000000000000000000000000000000000 DUP2 MSTORE PUSH1 0x20 PUSH1 0x4 DUP3 ADD MSTORE PUSH1 0x22 PUSH1 0x24 DUP3 ADD MSTORE PUSH32 0x546F74616C2042414C554E4920737570706C792063616E6E6F74206265207A65 PUSH1 0x44 DUP3 ADD MSTORE PUSH32 0x726F000000000000000000000000000000000000000000000000000000000000 PUSH1 0x64 DUP3 ADD MSTORE PUSH1 0x84 ADD JUMPDEST PUSH1 0x40 MLOAD DUP1 SWAP2 SUB SWAP1 REVERT JUMPDEST PUSH2 0xD36 PUSH5 0xE8D4A51000 DUP5 PUSH2 0x4DC8 JUMP JUMPDEST DUP3 LT ISZERO PUSH2 0xD9F JUMPI PUSH1 0x40 MLOAD PUSH32 0x8C379A000000000000000000000000000000000000000000000000000000000 DUP2 MSTORE PUSH1 0x20 PUSH1 0x4 DUP3 ADD MSTORE PUSH1 0x1C PUSH1 0x24 DUP3 ADD MSTORE PUSH32 0x555344432062616C616E636520697320696E73756666696369656E7400000000 PUSH1 0x44 DUP3 ADD MSTORE PUSH1 0x64 ADD PUSH2 0xD1E JUMP JUMPDEST PUSH2 0xDAE PUSH5 0xE8D4A51000 DUP5 PUSH2 0x4DC8 JUMP JUMPDEST DUP2 LT ISZERO PUSH2 0xE17 JUMPI PUSH1 0x40 MLOAD PUSH32 0x8C379A000000000000000000000000000000000000000000000000000000000 DUP2 MSTORE PUSH1 0x20 PUSH1 0x4 DUP3 ADD MSTORE PUSH1 0x19 PUSH1 0x24 DUP3 ADD MSTORE PUSH32 0x436865636B2074686520746F6B656E20616C6C6F77616E636500000000000000 PUSH1 0x44 DUP3 ADD MSTORE PUSH1 0x64 ADD PUSH2 0xD1E JUMP JUMPDEST PUSH2 0xE21 CALLER DUP12 PUSH2 0x37B7 JUMP JUMPDEST PUSH1 0x40 DUP1 MLOAD CALLER DUP2 MSTORE PUSH1 0x20 DUP2 ADD DUP13 SWAP1 MSTORE PUSH32 0xF6798A560793A54C3BCFE86A93CDE1E73087D944C0EA20544137D4121396885 SWAP2 ADD PUSH1 0x40 MLOAD DUP1 SWAP2 SUB SWAP1 LOG1 PUSH0 DUP7 DUP9 PUSH2 0xE6C PUSH5 0xE8D4A51000 DUP8 PUSH2 0x4DC8 JUMP JUMPDEST PUSH2 0xE76 SWAP2 SWAP1 PUSH2 0x4DB1 JUMP JUMPDEST PUSH2 0xE80 SWAP2 SWAP1 PUSH2 0x4DC8 JUMP JUMPDEST PUSH1 0x40 MLOAD PUSH32 0xA9059CBB00000000000000000000000000000000000000000000000000000000 DUP2 MSTORE PUSH1 0x1 PUSH1 0x1 PUSH1 0xA0 SHL SUB DUP13 DUP2 AND PUSH1 0x4 DUP4 ADD MSTORE PUSH1 0x24 DUP3 ADD DUP4 SWAP1 MSTORE SWAP2 SWAP3 POP SWAP1 DUP11 AND SWAP1 PUSH4 0xA9059CBB SWAP1 PUSH1 0x44 ADD PUSH1 0x20 PUSH1 0x40 MLOAD DUP1 DUP4 SUB DUP2 PUSH0 DUP8 GAS CALL ISZERO DUP1 ISZERO PUSH2 0xEE9 JUMPI RETURNDATASIZE PUSH0 DUP1 RETURNDATACOPY RETURNDATASIZE PUSH0 REVERT JUMPDEST POP POP POP POP PUSH1 0x40 MLOAD RETURNDATASIZE PUSH1 0x1F NOT PUSH1 0x1F DUP3 ADD AND DUP3 ADD DUP1 PUSH1 0x40 MSTORE POP DUP2 ADD SWAP1 PUSH2 0xF0D SWAP2 SWAP1 PUSH2 0x4E00 JUMP JUMPDEST POP POP POP POP POP POP POP POP POP POP POP PUSH2 0xF41 PUSH1 0x1 PUSH32 0x9B779B17422D0DF92223018B32B4D1FA46E071723D6817E2486D003BECC55F00 SSTORE JUMP JUMPDEST POP JUMP JUMPDEST PUSH0 PUSH2 0xF77 PUSH32 0xF0C57E16840DF040F15088DC2F81FE391C3923BEC73E23A9662EFC9C229C6A00 SLOAD PUSH8 0xFFFFFFFFFFFFFFFF AND SWAP1 JUMP JUMPDEST SWAP1 POP SWAP1 JUMP JUMPDEST PUSH2 0xF84 PUSH2 0x3663 JUMP JUMPDEST PUSH1 0x2 SLOAD PUSH1 0x40 DUP1 MLOAD PUSH32 0x3B19E84A00000000000000000000000000000000000000000000000000000000 DUP2 MSTORE SWAP1 MLOAD PUSH0 SWAP3 PUSH1 0x1 PUSH1 0x1 PUSH1 0xA0 SHL SUB AND SWAP2 PUSH4 0x3B19E84A SWAP2 PUSH1 0x4 DUP1 DUP4 ADD SWAP3 PUSH1 0x20 SWAP3 SWAP2 SWAP1 DUP3 SWAP1 SUB ADD DUP2 DUP7 GAS STATICCALL ISZERO DUP1 ISZERO PUSH2 0xFE4 JUMPI RETURNDATASIZE PUSH0 DUP1 RETURNDATACOPY RETURNDATASIZE PUSH0 REVERT JUMPDEST POP POP POP POP PUSH1 0x40 MLOAD RETURNDATASIZE PUSH1 0x1F NOT PUSH1 0x1F DUP3 ADD AND DUP3 ADD DUP1 PUSH1 0x40 MSTORE POP DUP2 ADD SWAP1 PUSH2 0x1008 SWAP2 SWAP1 PUSH2 0x4D52 JUMP JUMPDEST CALLER PUSH0 SWAP1 DUP2 MSTORE PUSH32 0x52C63247E1F47DB19D5CE0460030C497F067CA4CEBF71BA98EEADABE20BACE00 PUSH1 0x20 MSTORE PUSH1 0x40 SWAP1 KECCAK256 SLOAD SWAP1 SWAP2 POP DUP3 GT ISZERO PUSH2 0x10A2 JUMPI PUSH1 0x40 MLOAD PUSH32 0x8C379A000000000000000000000000000000000000000000000000000000000 DUP2 MSTORE PUSH1 0x20 PUSH1 0x4 DUP3 ADD MSTORE PUSH1 0x10 PUSH1 0x24 DUP3 ADD MSTORE PUSH32 0x496E73756666696369656E742042414C00000000000000000000000000000000 PUSH1 0x44 DUP3 ADD MSTORE PUSH1 0x64 ADD PUSH2 0xD1E JUMP JUMPDEST PUSH0 PUSH2 0x10AC DUP4 PUSH2 0x382A JUMP JUMPDEST SWAP1 POP PUSH0 JUMPDEST PUSH2 0x10B9 PUSH0 PUSH2 0x3939 JUMP JUMPDEST DUP2 LT ISZERO PUSH2 0x12B9 JUMPI PUSH0 PUSH2 0x10CB DUP2 DUP4 PUSH2 0x3942 JUMP JUMPDEST SWAP1 POP PUSH0 PUSH2 0x10F6 PUSH32 0x52C63247E1F47DB19D5CE0460030C497F067CA4CEBF71BA98EEADABE20BACE02 SLOAD SWAP1 JUMP JUMPDEST PUSH1 0x40 MLOAD PUSH32 0x70A0823100000000000000000000000000000000000000000000000000000000 DUP2 MSTORE ADDRESS PUSH1 0x4 DUP3 ADD MSTORE SWAP1 SWAP2 POP PUSH0 SWAP1 PUSH1 0x1 PUSH1 0x1 PUSH1 0xA0 SHL SUB DUP5 AND SWAP1 PUSH4 0x70A08231 SWAP1 PUSH1 0x24 ADD PUSH1 0x20 PUSH1 0x40 MLOAD DUP1 DUP4 SUB DUP2 DUP7 GAS STATICCALL ISZERO DUP1 ISZERO PUSH2 0x1156 JUMPI RETURNDATASIZE PUSH0 DUP1 RETURNDATACOPY RETURNDATASIZE PUSH0 REVERT JUMPDEST POP POP POP POP PUSH1 0x40 MLOAD RETURNDATASIZE PUSH1 0x1F NOT PUSH1 0x1F DUP3 ADD AND DUP3 ADD DUP1 PUSH1 0x40 MSTORE POP DUP2 ADD SWAP1 PUSH2 0x117A SWAP2 SWAP1 PUSH2 0x4D6D JUMP JUMPDEST SWAP1 POP DUP1 ISZERO DUP1 PUSH2 0x1191 JUMPI POP PUSH1 0x1 PUSH1 0x1 PUSH1 0xA0 SHL SUB DUP4 AND ADDRESS EQ JUMPDEST ISZERO PUSH2 0x119E JUMPI POP POP POP PUSH2 0x12B1 JUMP JUMPDEST PUSH0 DUP4 PUSH1 0x1 PUSH1 0x1 PUSH1 0xA0 SHL SUB AND PUSH4 0x313CE567 PUSH1 0x40 MLOAD DUP2 PUSH4 0xFFFFFFFF AND PUSH1 0xE0 SHL DUP2 MSTORE PUSH1 0x4 ADD PUSH1 0x20 PUSH1 0x40 MLOAD DUP1 DUP4 SUB DUP2 DUP7 GAS STATICCALL ISZERO DUP1 ISZERO PUSH2 0x11DB JUMPI RETURNDATASIZE PUSH0 DUP1 RETURNDATACOPY RETURNDATASIZE PUSH0 REVERT JUMPDEST POP POP POP POP PUSH1 0x40 MLOAD RETURNDATASIZE PUSH1 0x1F NOT PUSH1 0x1F DUP3 ADD AND DUP3 ADD DUP1 PUSH1 0x40 MSTORE POP DUP2 ADD SWAP1 PUSH2 0x11FF SWAP2 SWAP1 PUSH2 0x4E1F JUMP JUMPDEST PUSH1 0xFF AND SWAP1 POP PUSH2 0x1212 DUP8 PUSH2 0x5AF DUP9 DUP12 PUSH2 0x4E3F JUMP JUMPDEST POP PUSH0 PUSH2 0x1220 DUP5 DUP5 DUP10 DUP6 PUSH2 0x394D JUMP JUMPDEST PUSH1 0x40 MLOAD PUSH32 0xA9059CBB00000000000000000000000000000000000000000000000000000000 DUP2 MSTORE CALLER PUSH1 0x4 DUP3 ADD MSTORE PUSH1 0x24 DUP2 ADD DUP3 SWAP1 MSTORE SWAP1 SWAP2 POP PUSH1 0x1 PUSH1 0x1 PUSH1 0xA0 SHL SUB DUP7 AND SWAP1 PUSH4 0xA9059CBB SWAP1 PUSH1 0x44 ADD PUSH1 0x20 PUSH1 0x40 MLOAD DUP1 DUP4 SUB DUP2 PUSH0 DUP8 GAS CALL ISZERO DUP1 ISZERO PUSH2 0x1286 JUMPI RETURNDATASIZE PUSH0 DUP1 RETURNDATACOPY RETURNDATASIZE PUSH0 REVERT JUMPDEST POP POP POP POP PUSH1 0x40 MLOAD RETURNDATASIZE PUSH1 0x1F NOT PUSH1 0x1F DUP3 ADD AND DUP3 ADD DUP1 PUSH1 0x40 MSTORE POP DUP2 ADD SWAP1 PUSH2 0x12AA SWAP2 SWAP1 PUSH2 0x4E00 JUMP JUMPDEST POP POP POP POP POP POP JUMPDEST PUSH1 0x1 ADD PUSH2 0x10B0 JUMP JUMPDEST POP PUSH2 0x12C4 CALLER DUP3 PUSH2 0x3A8D JUMP JUMPDEST PUSH1 0x40 DUP1 MLOAD CALLER DUP2 MSTORE PUSH1 0x20 DUP2 ADD DUP4 SWAP1 MSTORE PUSH32 0xCC16F5DBB4873280815C1EE09DBD06736CFFCC184412CF7A71A0FDB75D397CA5 SWAP2 ADD PUSH1 0x40 MLOAD DUP1 SWAP2 SUB SWAP1 LOG1 POP POP PUSH2 0xF41 PUSH1 0x1 PUSH32 0x9B779B17422D0DF92223018B32B4D1FA46E071723D6817E2486D003BECC55F00 SSTORE JUMP JUMPDEST PUSH0 CALLER PUSH2 0x1335 DUP6 DUP3 DUP6 PUSH2 0x3ADA JUMP JUMPDEST PUSH2 0x1340 DUP6 DUP6 DUP6 PUSH2 0x3BAC JUMP JUMPDEST PUSH1 0x1 SWAP2 POP POP JUMPDEST SWAP4 SWAP3 POP POP POP JUMP JUMPDEST PUSH0 DUP1 PUSH1 0x2 PUSH0 SWAP1 SLOAD SWAP1 PUSH2 0x100 EXP SWAP1 DIV PUSH1 0x1 PUSH1 0x1 PUSH1 0xA0 SHL SUB AND PUSH1 0x1 PUSH1 0x1 PUSH1 0xA0 SHL SUB AND PUSH4 0xF5D2D998 PUSH1 0x40 MLOAD DUP2 PUSH4 0xFFFFFFFF AND PUSH1 0xE0 SHL DUP2 MSTORE PUSH1 0x4 ADD PUSH1 0x20 PUSH1 0x40 MLOAD DUP1 DUP4 SUB DUP2 DUP7 GAS STATICCALL ISZERO DUP1 ISZERO PUSH2 0x139F JUMPI RETURNDATASIZE PUSH0 DUP1 RETURNDATACOPY RETURNDATASIZE PUSH0 REVERT JUMPDEST POP POP POP POP PUSH1 0x40 MLOAD RETURNDATASIZE PUSH1 0x1F NOT PUSH1 0x1F DUP3 ADD AND DUP3 ADD DUP1 PUSH1 0x40 MSTORE POP DUP2 ADD SWAP1 PUSH2 0x13C3 SWAP2 SWAP1 PUSH2 0x4D52 JUMP JUMPDEST PUSH1 0x40 MLOAD PUSH32 0x27D54A9200000000000000000000000000000000000000000000000000000000 DUP2 MSTORE PUSH1 0x1 PUSH1 0x1 PUSH1 0xA0 SHL SUB DUP6 DUP2 AND PUSH1 0x4 DUP4 ADD MSTORE SWAP2 SWAP3 POP SWAP1 DUP3 AND SWAP1 PUSH4 0x27D54A92 SWAP1 PUSH1 0x24 ADD PUSH1 0x20 PUSH1 0x40 MLOAD DUP1 DUP4 SUB DUP2 DUP7 GAS STATICCALL ISZERO DUP1 ISZERO PUSH2 0x1424 JUMPI RETURNDATASIZE PUSH0 DUP1 RETURNDATACOPY RETURNDATASIZE PUSH0 REVERT JUMPDEST POP POP POP POP PUSH1 0x40 MLOAD RETURNDATASIZE PUSH1 0x1F NOT PUSH1 0x1F DUP3 ADD AND DUP3 ADD DUP1 PUSH1 0x40 MSTORE POP DUP2 ADD SWAP1 PUSH2 0x1346 SWAP2 SWAP1 PUSH2 0x4D52 JUMP JUMPDEST PUSH0 PUSH2 0xF77 PUSH2 0x36E4 JUMP JUMPDEST PUSH0 DUP1 PUSH1 0x2 PUSH0 SWAP1 SLOAD SWAP1 PUSH2 0x100 EXP SWAP1 DIV PUSH1 0x1 PUSH1 0x1 PUSH1 0xA0 SHL SUB AND PUSH1 0x1 PUSH1 0x1 PUSH1 0xA0 SHL SUB AND PUSH4 0xBB3BA04C PUSH1 0x40 MLOAD DUP2 PUSH4 0xFFFFFFFF AND PUSH1 0xE0 SHL DUP2 MSTORE PUSH1 0x4 ADD PUSH1 0x20 PUSH1 0x40 MLOAD DUP1 DUP4 SUB DUP2 DUP7 GAS STATICCALL ISZERO DUP1 ISZERO PUSH2 0x14A3 JUMPI RETURNDATASIZE PUSH0 DUP1 RETURNDATACOPY RETURNDATASIZE PUSH0 REVERT JUMPDEST POP POP POP POP PUSH1 0x40 MLOAD RETURNDATASIZE PUSH1 0x1F NOT PUSH1 0x1F DUP3 ADD AND DUP3 ADD DUP1 PUSH1 0x40 MSTORE POP DUP2 ADD SWAP1 PUSH2 0x14C7 SWAP2 SWAP1 PUSH2 0x4D52 JUMP JUMPDEST PUSH1 0x3 SLOAD PUSH1 0x40 MLOAD PUSH32 0xB27B5E7500000000000000000000000000000000000000000000000000000000 DUP2 MSTORE PUSH1 0x1 PUSH1 0x1 PUSH1 0xA0 SHL SUB DUP7 DUP2 AND PUSH1 0x4 DUP4 ADD MSTORE SWAP2 DUP3 AND PUSH1 0x24 DUP3 ADD MSTORE PUSH1 0x44 DUP2 ADD DUP8 SWAP1 MSTORE SWAP2 SWAP3 POP DUP3 AND SWAP1 PUSH4 0xB27B5E75 SWAP1 PUSH1 0x64 ADD PUSH1 0x20 PUSH1 0x40 MLOAD DUP1 DUP4 SUB DUP2 DUP7 GAS STATICCALL ISZERO DUP1 ISZERO PUSH2 0x1539 JUMPI RETURNDATASIZE PUSH0 DUP1 RETURNDATACOPY RETURNDATASIZE PUSH0 REVERT JUMPDEST POP POP POP POP PUSH1 0x40 MLOAD RETURNDATASIZE PUSH1 0x1F NOT PUSH1 0x1F DUP3 ADD AND DUP3 ADD DUP1 PUSH1 0x40 MSTORE POP DUP2 ADD SWAP1 PUSH2 0x155D SWAP2 SWAP1 PUSH2 0x4D6D JUMP JUMPDEST SWAP5 SWAP4 POP POP POP POP JUMP JUMPDEST PUSH1 0x2 SLOAD PUSH1 0x40 DUP1 MLOAD PUSH32 0x6C9C007800000000000000000000000000000000000000000000000000000000 DUP2 MSTORE SWAP1 MLOAD PUSH0 SWAP3 PUSH1 0x1 PUSH1 0x1 PUSH1 0xA0 SHL SUB AND SWAP2 PUSH4 0x6C9C0078 SWAP2 PUSH1 0x4 DUP1 DUP4 ADD SWAP3 PUSH1 0x20 SWAP3 SWAP2 SWAP1 DUP3 SWAP1 SUB ADD DUP2 DUP7 GAS STATICCALL ISZERO DUP1 ISZERO PUSH2 0x15C5 JUMPI RETURNDATASIZE PUSH0 DUP1 RETURNDATACOPY RETURNDATASIZE PUSH0 REVERT JUMPDEST POP POP POP POP PUSH1 0x40 MLOAD RETURNDATASIZE PUSH1 0x1F NOT PUSH1 0x1F DUP3 ADD AND DUP3 ADD DUP1 PUSH1 0x40 MSTORE POP DUP2 ADD SWAP1 PUSH2 0x15E9 SWAP2 SWAP1 PUSH2 0x4D52 JUMP JUMPDEST SWAP1 POP PUSH0 PUSH1 0x2 PUSH0 SWAP1 SLOAD SWAP1 PUSH2 0x100 EXP SWAP1 DIV PUSH1 0x1 PUSH1 0x1 PUSH1 0xA0 SHL SUB AND PUSH1 0x1 PUSH1 0x1 PUSH1 0xA0 SHL SUB AND PUSH4 0x82755EBB PUSH1 0x40 MLOAD DUP2 PUSH4 0xFFFFFFFF AND PUSH1 0xE0 SHL DUP2 MSTORE PUSH1 0x4 ADD PUSH1 0x20 PUSH1 0x40 MLOAD DUP1 DUP4 SUB DUP2 DUP7 GAS STATICCALL ISZERO DUP1 ISZERO PUSH2 0x163C JUMPI RETURNDATASIZE PUSH0 DUP1 RETURNDATACOPY RETURNDATASIZE PUSH0 REVERT JUMPDEST POP POP POP POP PUSH1 0x40 MLOAD RETURNDATASIZE PUSH1 0x1F NOT PUSH1 0x1F DUP3 ADD AND DUP3 ADD DUP1 PUSH1 0x40 MSTORE POP DUP2 ADD SWAP1 PUSH2 0x1660 SWAP2 SWAP1 PUSH2 0x4D52 JUMP JUMPDEST PUSH1 0x40 MLOAD PUSH32 0x70A0823100000000000000000000000000000000000000000000000000000000 DUP2 MSTORE ADDRESS PUSH1 0x4 DUP3 ADD MSTORE SWAP1 SWAP2 POP PUSH0 SWAP1 PUSH1 0x1 PUSH1 0x1 PUSH1 0xA0 SHL SUB DUP6 AND SWAP1 PUSH4 0x70A08231 SWAP1 PUSH1 0x24 ADD PUSH1 0x20 PUSH1 0x40 MLOAD DUP1 DUP4 SUB DUP2 DUP7 GAS STATICCALL ISZERO DUP1 ISZERO PUSH2 0x16C0 JUMPI RETURNDATASIZE PUSH0 DUP1 RETURNDATACOPY RETURNDATASIZE PUSH0 REVERT JUMPDEST POP POP POP POP PUSH1 0x40 MLOAD RETURNDATASIZE PUSH1 0x1F NOT PUSH1 0x1F DUP3 ADD AND DUP3 ADD DUP1 PUSH1 0x40 MSTORE POP DUP2 ADD SWAP1 PUSH2 0x16E4 SWAP2 SWAP1 PUSH2 0x4D6D JUMP JUMPDEST PUSH1 0x40 MLOAD PUSH32 0x95EA7B300000000000000000000000000000000000000000000000000000000 DUP2 MSTORE PUSH1 0x1 PUSH1 0x1 PUSH1 0xA0 SHL SUB DUP5 DUP2 AND PUSH1 0x4 DUP4 ADD MSTORE PUSH1 0x24 DUP3 ADD DUP4 SWAP1 MSTORE SWAP2 SWAP3 POP DUP3 ISZERO ISZERO SWAP2 DUP7 AND SWAP1 PUSH4 0x95EA7B3 SWAP1 PUSH1 0x44 ADD PUSH1 0x20 PUSH1 0x40 MLOAD DUP1 DUP4 SUB DUP2 PUSH0 DUP8 GAS CALL ISZERO DUP1 ISZERO PUSH2 0x1750 JUMPI RETURNDATASIZE PUSH0 DUP1 RETURNDATACOPY RETURNDATASIZE PUSH0 REVERT JUMPDEST POP POP POP POP PUSH1 0x40 MLOAD RETURNDATASIZE PUSH1 0x1F NOT PUSH1 0x1F DUP3 ADD AND DUP3 ADD DUP1 PUSH1 0x40 MSTORE POP DUP2 ADD SWAP1 PUSH2 0x1774 SWAP2 SWAP1 PUSH2 0x4E00 JUMP JUMPDEST POP DUP1 PUSH2 0x1781 JUMPI POP POP POP POP POP JUMP JUMPDEST PUSH1 0x3 SLOAD PUSH1 0x40 MLOAD PUSH32 0x2D6BC8EA00000000000000000000000000000000000000000000000000000000 DUP2 MSTORE PUSH1 0x1 PUSH1 0x1 PUSH1 0xA0 SHL SUB DUP8 DUP2 AND PUSH1 0x4 DUP4 ADD MSTORE SWAP2 DUP3 AND PUSH1 0x24 DUP3 ADD MSTORE PUSH1 0x44 DUP2 ADD DUP5 SWAP1 MSTORE ADDRESS PUSH1 0x64 DUP3 ADD MSTORE SWAP1 DUP5 AND SWAP1 PUSH4 0x2D6BC8EA SWAP1 PUSH1 0x84 ADD PUSH1 0x20 PUSH1 0x40 MLOAD DUP1 DUP4 SUB DUP2 PUSH0 DUP8 GAS CALL SWAP3 POP POP POP DUP1 ISZERO PUSH2 0x1816 JUMPI POP PUSH1 0x40 DUP1 MLOAD PUSH1 0x1F RETURNDATASIZE SWAP1 DUP2 ADD PUSH1 0x1F NOT AND DUP3 ADD SWAP1 SWAP3 MSTORE PUSH2 0x1813 SWAP2 DUP2 ADD SWAP1 PUSH2 0x4D6D JUMP JUMPDEST PUSH1 0x1 JUMPDEST PUSH2 0x1929 JUMPI PUSH1 0x3 SLOAD PUSH1 0x40 MLOAD PUSH32 0x5EFAAEBB00000000000000000000000000000000000000000000000000000000 DUP2 MSTORE PUSH1 0x1 PUSH1 0x1 PUSH1 0xA0 SHL SUB DUP8 DUP2 AND PUSH1 0x4 DUP4 ADD MSTORE DUP7 DUP2 AND PUSH1 0x24 DUP4 ADD MSTORE SWAP2 DUP3 AND PUSH1 0x44 DUP3 ADD MSTORE PUSH1 0x64 DUP2 ADD DUP5 SWAP1 MSTORE ADDRESS PUSH1 0x84 DUP3 ADD MSTORE PUSH0 SWAP2 DUP6 AND SWAP1 PUSH4 0x5EFAAEBB SWAP1 PUSH1 0xA4 ADD PUSH1 0x20 PUSH1 0x40 MLOAD DUP1 DUP4 SUB DUP2 PUSH0 DUP8 GAS CALL ISZERO DUP1 ISZERO PUSH2 0x189A JUMPI RETURNDATASIZE PUSH0 DUP1 RETURNDATACOPY RETURNDATASIZE PUSH0 REVERT JUMPDEST POP POP POP POP PUSH1 0x40 MLOAD RETURNDATASIZE PUSH1 0x1F NOT PUSH1 0x1F DUP3 ADD AND DUP3 ADD DUP1 PUSH1 0x40 MSTORE POP DUP2 ADD SWAP1 PUSH2 0x18BE SWAP2 SWAP1 PUSH2 0x4D6D JUMP JUMPDEST SWAP1 POP PUSH0 DUP2 GT PUSH2 0x1929 JUMPI PUSH1 0x40 MLOAD PUSH32 0x8C379A000000000000000000000000000000000000000000000000000000000 DUP2 MSTORE PUSH1 0x20 PUSH1 0x4 DUP3 ADD DUP2 SWAP1 MSTORE PUSH1 0x24 DUP3 ADD MSTORE PUSH32 0x4D75746920486F702053776170204661696C65642C20547279204275726E2829 PUSH1 0x44 DUP3 ADD MSTORE PUSH1 0x64 ADD PUSH2 0xD1E JUMP JUMPDEST POP POP POP POP POP POP JUMP JUMPDEST POP POP POP POP POP JUMP JUMPDEST PUSH2 0x1940 PUSH2 0x3663 JUMP JUMPDEST PUSH0 PUSH2 0x194A PUSH0 PUSH2 0x3939 JUMP JUMPDEST SWAP1 POP PUSH0 JUMPDEST DUP2 DUP2 LT ISZERO PUSH2 0x1993 JUMPI PUSH0 PUSH2 0x1961 DUP2 DUP4 PUSH2 0x3942 JUMP JUMPDEST PUSH1 0x3 SLOAD SWAP1 SWAP2 POP PUSH1 0x1 PUSH1 0x1 PUSH1 0xA0 SHL SUB SWAP1 DUP2 AND SWAP1 DUP3 AND SUB PUSH2 0x1980 JUMPI POP PUSH2 0x198B JUMP JUMPDEST PUSH2 0x1989 DUP2 PUSH2 0x1565 JUMP JUMPDEST POP JUMPDEST PUSH1 0x1 ADD PUSH2 0x194E JUMP JUMPDEST POP POP PUSH2 0x19BE PUSH1 0x1 PUSH32 0x9B779B17422D0DF92223018B32B4D1FA46E071723D6817E2486D003BECC55F00 SSTORE JUMP JUMPDEST JUMP JUMPDEST PUSH2 0x19C8 PUSH2 0x3C3B JUMP JUMPDEST PUSH2 0x19D1 DUP3 PUSH2 0x3D0B JUMP JUMPDEST PUSH2 0x19DB DUP3 DUP3 PUSH2 0x3D13 JUMP JUMPDEST POP POP JUMP JUMPDEST PUSH0 PUSH2 0x19E8 PUSH2 0x3E14 JUMP JUMPDEST POP PUSH32 0x360894A13BA1A3210667C828492DB98DCA3E2076CC3735A920A3CA505D382BBC SWAP1 JUMP JUMPDEST PUSH1 0x2 SLOAD PUSH1 0x40 DUP1 MLOAD PUSH32 0x1BF01E9B00000000000000000000000000000000000000000000000000000000 DUP2 MSTORE SWAP1 MLOAD PUSH0 SWAP3 PUSH1 0x1 PUSH1 0x1 PUSH1 0xA0 SHL SUB AND SWAP2 PUSH4 0x1BF01E9B SWAP2 PUSH1 0x4 DUP1 DUP4 ADD SWAP3 PUSH1 0x20 SWAP3 SWAP2 SWAP1 DUP3 SWAP1 SUB ADD DUP2 DUP7 GAS STATICCALL ISZERO DUP1 ISZERO PUSH2 0x1A6D JUMPI RETURNDATASIZE PUSH0 DUP1 RETURNDATACOPY RETURNDATASIZE PUSH0 REVERT JUMPDEST POP POP POP POP PUSH1 0x40 MLOAD RETURNDATASIZE PUSH1 0x1F NOT PUSH1 0x1F DUP3 ADD AND DUP3 ADD DUP1 PUSH1 0x40 MSTORE POP DUP2 ADD SWAP1 PUSH2 0x1A91 SWAP2 SWAP1 PUSH2 0x4D52 JUMP JUMPDEST SWAP1 POP PUSH0 PUSH1 0x2 PUSH0 SWAP1 SLOAD SWAP1 PUSH2 0x100 EXP SWAP1 DIV PUSH1 0x1 PUSH1 0x1 PUSH1 0xA0 SHL SUB AND PUSH1 0x1 PUSH1 0x1 PUSH1 0xA0 SHL SUB AND PUSH4 0xCFF49D68 PUSH1 0x40 MLOAD DUP2 PUSH4 0xFFFFFFFF AND PUSH1 0xE0 SHL DUP2 MSTORE PUSH1 0x4 ADD PUSH1 0x20 PUSH1 0x40 MLOAD DUP1 DUP4 SUB DUP2 DUP7 GAS STATICCALL ISZERO DUP1 ISZERO PUSH2 0x1AE4 JUMPI RETURNDATASIZE PUSH0 DUP1 RETURNDATACOPY RETURNDATASIZE PUSH0 REVERT JUMPDEST POP POP POP POP PUSH1 0x40 MLOAD RETURNDATASIZE PUSH1 0x1F NOT PUSH1 0x1F DUP3 ADD AND DUP3 ADD DUP1 PUSH1 0x40 MSTORE POP DUP2 ADD SWAP1 PUSH2 0x1B08 SWAP2 SWAP1 PUSH2 0x4D52 JUMP JUMPDEST PUSH1 0x40 DUP1 MLOAD PUSH0 DUP2 MSTORE PUSH1 0x20 DUP2 ADD SWAP2 DUP3 SWAP1 MSTORE PUSH32 0xF0BF771400000000000000000000000000000000000000000000000000000000 SWAP1 SWAP2 MSTORE SWAP1 SWAP2 POP PUSH1 0x1 PUSH1 0x1 PUSH1 0xA0 SHL SUB DUP3 AND PUSH4 0xF0BF7714 PUSH2 0x1B62 DUP4 DUP15 DUP15 DUP15 DUP15 DUP13 DUP16 DUP16 DUP14 PUSH1 0x24 DUP10 ADD PUSH2 0x4ED7 JUMP JUMPDEST PUSH0 PUSH1 0x40 MLOAD DUP1 DUP4 SUB DUP2 PUSH0 DUP8 DUP1 EXTCODESIZE ISZERO DUP1 ISZERO PUSH2 0x1B79 JUMPI PUSH0 DUP1 REVERT JUMPDEST POP GAS CALL ISZERO DUP1 ISZERO PUSH2 0x1B8B JUMPI RETURNDATASIZE PUSH0 DUP1 RETURNDATACOPY RETURNDATASIZE PUSH0 REVERT JUMPDEST POP POP POP POP POP POP POP POP POP POP POP POP POP POP POP JUMP JUMPDEST PUSH2 0x1BA4 PUSH2 0x3E76 JUMP JUMPDEST PUSH2 0x19BE PUSH0 PUSH2 0x3EEA JUMP JUMPDEST PUSH0 PUSH2 0x891 DUP3 PUSH2 0x3F72 JUMP JUMPDEST PUSH32 0xF0C57E16840DF040F15088DC2F81FE391C3923BEC73E23A9662EFC9C229C6A00 DUP1 SLOAD DUP3 SWAP2 SWAP1 PUSH9 0x10000000000000000 SWAP1 DIV PUSH1 0xFF AND DUP1 PUSH2 0x1C05 JUMPI POP DUP1 SLOAD PUSH8 0xFFFFFFFFFFFFFFFF DUP1 DUP5 AND SWAP2 AND LT ISZERO JUMPDEST ISZERO PUSH2 0x1C3C JUMPI PUSH1 0x40 MLOAD PUSH32 0xF92EE8A900000000000000000000000000000000000000000000000000000000 DUP2 MSTORE PUSH1 0x4 ADD PUSH1 0x40 MLOAD DUP1 SWAP2 SUB SWAP1 REVERT JUMPDEST DUP1 SLOAD PUSH9 0x10000000000000000 PUSH8 0xFFFFFFFFFFFFFFFF DUP5 AND PUSH32 0xFFFFFFFFFFFFFFFFFFFFFFFFFFFFFFFFFFFFFFFFFFFFFF000000000000000000 SWAP1 SWAP3 AND DUP3 OR OR DUP3 SSTORE PUSH1 0x2 DUP1 SLOAD PUSH32 0xFFFFFFFFFFFFFFFFFFFFFFFF0000000000000000000000000000000000000000 AND PUSH1 0x1 PUSH1 0x1 PUSH1 0xA0 SHL SUB DUP8 AND OR SWAP1 SSTORE DUP2 SLOAD PUSH32 0xFFFFFFFFFFFFFFFFFFFFFFFFFFFFFFFFFFFFFFFFFFFFFF00FFFFFFFFFFFFFFFF AND DUP3 SSTORE PUSH1 0x40 MLOAD SWAP1 DUP2 MSTORE PUSH32 0xC7F505B2F371AE2175EE4913F4499E1F2633A7B5936321EED1CDAEB6115181D2 SWAP1 PUSH1 0x20 ADD PUSH1 0x40 MLOAD DUP1 SWAP2 SUB SWAP1 LOG1 POP POP POP POP JUMP JUMPDEST PUSH32 0x52C63247E1F47DB19D5CE0460030C497F067CA4CEBF71BA98EEADABE20BACE04 DUP1 SLOAD PUSH1 0x60 SWAP2 PUSH32 0x52C63247E1F47DB19D5CE0460030C497F067CA4CEBF71BA98EEADABE20BACE00 SWAP2 PUSH2 0x7FC SWAP1 PUSH2 0x4D07 JUMP JUMPDEST PUSH0 CALLER PUSH2 0x88B DUP2 DUP6 DUP6 PUSH2 0x3BAC JUMP JUMPDEST PUSH1 0x60 PUSH2 0xF77 PUSH0 PUSH2 0x4027 JUMP JUMPDEST PUSH0 DUP1 PUSH2 0x1D81 PUSH2 0x36E4 JUMP JUMPDEST SWAP1 POP PUSH0 PUSH2 0x1DAC PUSH32 0x52C63247E1F47DB19D5CE0460030C497F067CA4CEBF71BA98EEADABE20BACE02 SLOAD SWAP1 JUMP JUMPDEST SWAP1 POP PUSH0 DUP2 PUSH2 0x1DBA DUP5 DUP8 PUSH2 0x4DB1 JUMP JUMPDEST PUSH2 0x1DC4 SWAP2 SWAP1 PUSH2 0x4DC8 JUMP JUMPDEST SWAP1 POP PUSH2 0x1DD5 PUSH5 0xE8D4A51000 DUP3 PUSH2 0x4DC8 JUMP JUMPDEST SWAP6 SWAP5 POP POP POP POP POP JUMP JUMPDEST PUSH32 0xF0C57E16840DF040F15088DC2F81FE391C3923BEC73E23A9662EFC9C229C6A00 DUP1 SLOAD PUSH9 0x10000000000000000 DUP2 DIV PUSH1 0xFF AND ISZERO SWAP1 PUSH8 0xFFFFFFFFFFFFFFFF AND PUSH0 DUP2 ISZERO DUP1 ISZERO PUSH2 0x1E28 JUMPI POP DUP3 JUMPDEST SWAP1 POP PUSH0 DUP3 PUSH8 0xFFFFFFFFFFFFFFFF AND PUSH1 0x1 EQ DUP1 ISZERO PUSH2 0x1E44 JUMPI POP ADDRESS EXTCODESIZE ISZERO JUMPDEST SWAP1 POP DUP2 ISZERO DUP1 ISZERO PUSH2 0x1E52 JUMPI POP DUP1 ISZERO JUMPDEST ISZERO PUSH2 0x1E89 JUMPI PUSH1 0x40 MLOAD PUSH32 0xF92EE8A900000000000000000000000000000000000000000000000000000000 DUP2 MSTORE PUSH1 0x4 ADD PUSH1 0x40 MLOAD DUP1 SWAP2 SUB SWAP1 REVERT JUMPDEST DUP5 SLOAD PUSH32 0xFFFFFFFFFFFFFFFFFFFFFFFFFFFFFFFFFFFFFFFFFFFFFFFF0000000000000000 AND PUSH1 0x1 OR DUP6 SSTORE DUP4 ISZERO PUSH2 0x1EEA JUMPI DUP5 SLOAD PUSH32 0xFFFFFFFFFFFFFFFFFFFFFFFFFFFFFFFFFFFFFFFFFFFFFF00FFFFFFFFFFFFFFFF AND PUSH9 0x10000000000000000 OR DUP6 SSTORE JUMPDEST PUSH2 0x1F5E PUSH1 0x40 MLOAD DUP1 PUSH1 0x40 ADD PUSH1 0x40 MSTORE DUP1 PUSH1 0x6 DUP2 MSTORE PUSH1 0x20 ADD PUSH32 0x42616C756E690000000000000000000000000000000000000000000000000000 DUP2 MSTORE POP PUSH1 0x40 MLOAD DUP1 PUSH1 0x40 ADD PUSH1 0x40 MSTORE DUP1 PUSH1 0x6 DUP2 MSTORE PUSH1 0x20 ADD PUSH32 0x42414C554E490000000000000000000000000000000000000000000000000000 DUP2 MSTORE POP PUSH2 0x4033 JUMP JUMPDEST PUSH2 0x1F67 CALLER PUSH2 0x4045 JUMP JUMPDEST PUSH2 0x1F6F PUSH2 0x4056 JUMP JUMPDEST PUSH2 0x1F77 PUSH2 0x4066 JUMP JUMPDEST PUSH2 0x1F89 ADDRESS PUSH8 0xDE0B6B3A7640000 PUSH2 0x37B7 JUMP JUMPDEST PUSH1 0x2 DUP1 SLOAD PUSH32 0xFFFFFFFFFFFFFFFFFFFFFFFF0000000000000000000000000000000000000000 AND PUSH1 0x1 PUSH1 0x1 PUSH1 0xA0 SHL SUB DUP9 AND SWAP1 DUP2 OR SWAP1 SWAP2 SSTORE PUSH1 0x40 DUP1 MLOAD PUSH32 0x1BF01E9B00000000000000000000000000000000000000000000000000000000 DUP2 MSTORE SWAP1 MLOAD PUSH4 0x1BF01E9B SWAP2 PUSH1 0x4 DUP1 DUP3 ADD SWAP3 PUSH1 0x20 SWAP3 SWAP1 SWAP2 SWAP1 DUP3 SWAP1 SUB ADD DUP2 DUP7 GAS STATICCALL ISZERO DUP1 ISZERO PUSH2 0x2011 JUMPI RETURNDATASIZE PUSH0 DUP1 RETURNDATACOPY RETURNDATASIZE PUSH0 REVERT JUMPDEST POP POP POP POP PUSH1 0x40 MLOAD RETURNDATASIZE PUSH1 0x1F NOT PUSH1 0x1F DUP3 ADD AND DUP3 ADD DUP1 PUSH1 0x40 MSTORE POP DUP2 ADD SWAP1 PUSH2 0x2035 SWAP2 SWAP1 PUSH2 0x4D52 JUMP JUMPDEST PUSH1 0x3 DUP1 SLOAD PUSH32 0xFFFFFFFFFFFFFFFFFFFFFFFF0000000000000000000000000000000000000000 AND PUSH1 0x1 PUSH1 0x1 PUSH1 0xA0 SHL SUB SWAP3 SWAP1 SWAP3 AND SWAP2 SWAP1 SWAP2 OR SWAP1 SSTORE DUP4 ISZERO PUSH2 0x1929 JUMPI DUP5 SLOAD PUSH32 0xFFFFFFFFFFFFFFFFFFFFFFFFFFFFFFFFFFFFFFFFFFFFFF00FFFFFFFFFFFFFFFF AND DUP6 SSTORE PUSH1 0x40 MLOAD PUSH1 0x1 DUP2 MSTORE PUSH32 0xC7F505B2F371AE2175EE4913F4499E1F2633A7B5936321EED1CDAEB6115181D2 SWAP1 PUSH1 0x20 ADD PUSH1 0x40 MLOAD DUP1 SWAP2 SUB SWAP1 LOG1 POP POP POP POP POP POP JUMP JUMPDEST PUSH2 0x20DD PUSH2 0x3E76 JUMP JUMPDEST PUSH2 0x19DB PUSH0 DUP3 PUSH2 0x406E JUMP JUMPDEST PUSH2 0x20EF PUSH2 0x3E76 JUMP JUMPDEST PUSH1 0x2 DUP1 SLOAD PUSH32 0xFFFFFFFFFFFFFFFFFFFFFFFF0000000000000000000000000000000000000000 AND PUSH1 0x1 PUSH1 0x1 PUSH1 0xA0 SHL SUB SWAP3 SWAP1 SWAP3 AND SWAP2 SWAP1 SWAP2 OR SWAP1 SSTORE JUMP JUMPDEST PUSH0 PUSH2 0xF77 PUSH8 0xDE0B6B3A7640000 PUSH2 0x3F72 JUMP JUMPDEST PUSH2 0x2143 PUSH2 0x3663 JUMP JUMPDEST PUSH1 0x2 SLOAD PUSH1 0x40 DUP1 MLOAD PUSH32 0xF5D2D99800000000000000000000000000000000000000000000000000000000 DUP2 MSTORE SWAP1 MLOAD PUSH0 SWAP3 PUSH1 0x1 PUSH1 0x1 PUSH1 0xA0 SHL SUB AND SWAP2 PUSH4 0xF5D2D998 SWAP2 PUSH1 0x4 DUP1 DUP4 ADD SWAP3 PUSH1 0x20 SWAP3 SWAP2 SWAP1 DUP3 SWAP1 SUB ADD DUP2 DUP7 GAS STATICCALL ISZERO DUP1 ISZERO PUSH2 0x21A3 JUMPI RETURNDATASIZE PUSH0 DUP1 RETURNDATACOPY RETURNDATASIZE PUSH0 REVERT JUMPDEST POP POP POP POP PUSH1 0x40 MLOAD RETURNDATASIZE PUSH1 0x1F NOT PUSH1 0x1F DUP3 ADD AND DUP3 ADD DUP1 PUSH1 0x40 MSTORE POP DUP2 ADD SWAP1 PUSH2 0x21C7 SWAP2 SWAP1 PUSH2 0x4D52 JUMP JUMPDEST SWAP1 POP PUSH0 PUSH1 0x2 PUSH0 SWAP1 SLOAD SWAP1 PUSH2 0x100 EXP SWAP1 DIV PUSH1 0x1 PUSH1 0x1 PUSH1 0xA0 SHL SUB AND PUSH1 0x1 PUSH1 0x1 PUSH1 0xA0 SHL SUB AND PUSH4 0x3E6DFA36 PUSH1 0x40 MLOAD DUP2 PUSH4 0xFFFFFFFF AND PUSH1 0xE0 SHL DUP2 MSTORE PUSH1 0x4 ADD PUSH1 0x20 PUSH1 0x40 MLOAD DUP1 DUP4 SUB DUP2 DUP7 GAS STATICCALL ISZERO DUP1 ISZERO PUSH2 0x221A JUMPI RETURNDATASIZE PUSH0 DUP1 RETURNDATACOPY RETURNDATASIZE PUSH0 REVERT JUMPDEST POP POP POP POP PUSH1 0x40 MLOAD RETURNDATASIZE PUSH1 0x1F NOT PUSH1 0x1F DUP3 ADD AND DUP3 ADD DUP1 PUSH1 0x40 MSTORE POP DUP2 ADD SWAP1 PUSH2 0x223E SWAP2 SWAP1 PUSH2 0x4D52 JUMP JUMPDEST SWAP1 POP PUSH0 PUSH1 0x2 PUSH0 SWAP1 SLOAD SWAP1 PUSH2 0x100 EXP SWAP1 DIV PUSH1 0x1 PUSH1 0x1 PUSH1 0xA0 SHL SUB AND PUSH1 0x1 PUSH1 0x1 PUSH1 0xA0 SHL SUB AND PUSH4 0x6C9C0078 PUSH1 0x40 MLOAD DUP2 PUSH4 0xFFFFFFFF AND PUSH1 0xE0 SHL DUP2 MSTORE PUSH1 0x4 ADD PUSH1 0x20 PUSH1 0x40 MLOAD DUP1 DUP4 SUB DUP2 DUP7 GAS STATICCALL ISZERO DUP1 ISZERO PUSH2 0x2291 JUMPI RETURNDATASIZE PUSH0 DUP1 RETURNDATACOPY RETURNDATASIZE PUSH0 REVERT JUMPDEST POP POP POP POP PUSH1 0x40 MLOAD RETURNDATASIZE PUSH1 0x1F NOT PUSH1 0x1F DUP3 ADD AND DUP3 ADD DUP1 PUSH1 0x40 MSTORE POP DUP2 ADD SWAP1 PUSH2 0x22B5 SWAP2 SWAP1 PUSH2 0x4D52 JUMP JUMPDEST SWAP1 POP PUSH0 PUSH1 0x2 PUSH0 SWAP1 SLOAD SWAP1 PUSH2 0x100 EXP SWAP1 DIV PUSH1 0x1 PUSH1 0x1 PUSH1 0xA0 SHL SUB AND PUSH1 0x1 PUSH1 0x1 PUSH1 0xA0 SHL SUB AND PUSH4 0x1BF01E9B PUSH1 0x40 MLOAD DUP2 PUSH4 0xFFFFFFFF AND PUSH1 0xE0 SHL DUP2 MSTORE PUSH1 0x4 ADD PUSH1 0x20 PUSH1 0x40 MLOAD DUP1 DUP4 SUB DUP2 DUP7 GAS STATICCALL ISZERO DUP1 ISZERO PUSH2 0x2308 JUMPI RETURNDATASIZE PUSH0 DUP1 RETURNDATACOPY RETURNDATASIZE PUSH0 REVERT JUMPDEST POP POP POP POP PUSH1 0x40 MLOAD RETURNDATASIZE PUSH1 0x1F NOT PUSH1 0x1F DUP3 ADD AND DUP3 ADD DUP1 PUSH1 0x40 MSTORE POP DUP2 ADD SWAP1 PUSH2 0x232C SWAP2 SWAP1 PUSH2 0x4D52 JUMP JUMPDEST SWAP1 POP PUSH1 0x1 PUSH1 0x1 PUSH1 0xA0 SHL SUB DUP5 AND PUSH2 0x239E JUMPI PUSH1 0x40 MLOAD PUSH32 0x8C379A000000000000000000000000000000000000000000000000000000000 DUP2 MSTORE PUSH1 0x20 PUSH1 0x4 DUP3 ADD MSTORE PUSH1 0x15 PUSH1 0x24 DUP3 ADD MSTORE PUSH32 0x4167656E7420666163746F7279206E6F74207365740000000000000000000000 PUSH1 0x44 DUP3 ADD MSTORE PUSH1 0x64 ADD PUSH2 0xD1E JUMP JUMPDEST PUSH1 0x40 MLOAD PUSH32 0x9B76A5CD00000000000000000000000000000000000000000000000000000000 DUP2 MSTORE CALLER PUSH1 0x4 DUP3 ADD MSTORE PUSH0 SWAP1 PUSH1 0x1 PUSH1 0x1 PUSH1 0xA0 SHL SUB DUP7 AND SWAP1 PUSH4 0x9B76A5CD SWAP1 PUSH1 0x24 ADD PUSH1 0x20 PUSH1 0x40 MLOAD DUP1 DUP4 SUB DUP2 PUSH0 DUP8 GAS CALL ISZERO DUP1 ISZERO PUSH2 0x23FC JUMPI RETURNDATASIZE PUSH0 DUP1 RETURNDATACOPY RETURNDATASIZE PUSH0 REVERT JUMPDEST POP POP POP POP PUSH1 0x40 MLOAD RETURNDATASIZE PUSH1 0x1F NOT PUSH1 0x1F DUP3 ADD AND DUP3 ADD DUP1 PUSH1 0x40 MSTORE POP DUP2 ADD SWAP1 PUSH2 0x2420 SWAP2 SWAP1 PUSH2 0x4D52 JUMP JUMPDEST SWAP1 POP PUSH0 DUP7 MLOAD PUSH8 0xFFFFFFFFFFFFFFFF DUP2 GT ISZERO PUSH2 0x243D JUMPI PUSH2 0x243D PUSH2 0x4845 JUMP JUMPDEST PUSH1 0x40 MLOAD SWAP1 DUP1 DUP3 MSTORE DUP1 PUSH1 0x20 MUL PUSH1 0x20 ADD DUP3 ADD PUSH1 0x40 MSTORE DUP1 ISZERO PUSH2 0x2466 JUMPI DUP2 PUSH1 0x20 ADD PUSH1 0x20 DUP3 MUL DUP1 CALLDATASIZE DUP4 CALLDATACOPY ADD SWAP1 POP JUMPDEST POP SWAP1 POP PUSH0 DUP8 MLOAD PUSH8 0xFFFFFFFFFFFFFFFF DUP2 GT ISZERO PUSH2 0x2484 JUMPI PUSH2 0x2484 PUSH2 0x4845 JUMP JUMPDEST PUSH1 0x40 MLOAD SWAP1 DUP1 DUP3 MSTORE DUP1 PUSH1 0x20 MUL PUSH1 0x20 ADD DUP3 ADD PUSH1 0x40 MSTORE DUP1 ISZERO PUSH2 0x24AD JUMPI DUP2 PUSH1 0x20 ADD PUSH1 0x20 DUP3 MUL DUP1 CALLDATASIZE DUP4 CALLDATACOPY ADD SWAP1 POP JUMPDEST POP SWAP1 POP PUSH0 JUMPDEST DUP9 MLOAD DUP2 LT ISZERO PUSH2 0x25C5 JUMPI PUSH2 0x24DE PUSH0 DUP11 DUP4 DUP2 MLOAD DUP2 LT PUSH2 0x24D1 JUMPI PUSH2 0x24D1 PUSH2 0x4F86 JUMP JUMPDEST PUSH1 0x20 MUL PUSH1 0x20 ADD ADD MLOAD PUSH2 0x4082 JUMP JUMPDEST ISZERO DUP4 DUP3 DUP2 MLOAD DUP2 LT PUSH2 0x24F1 JUMPI PUSH2 0x24F1 PUSH2 0x4F86 JUMP JUMPDEST PUSH1 0x20 MUL PUSH1 0x20 ADD ADD SWAP1 ISZERO ISZERO SWAP1 DUP2 ISZERO ISZERO DUP2 MSTORE POP POP DUP9 DUP2 DUP2 MLOAD DUP2 LT PUSH2 0x2515 JUMPI PUSH2 0x2515 PUSH2 0x4F86 JUMP JUMPDEST PUSH1 0x20 SWAP1 DUP2 MUL SWAP2 SWAP1 SWAP2 ADD ADD MLOAD PUSH1 0x40 MLOAD PUSH32 0x70A0823100000000000000000000000000000000000000000000000000000000 DUP2 MSTORE ADDRESS PUSH1 0x4 DUP3 ADD MSTORE PUSH1 0x1 PUSH1 0x1 PUSH1 0xA0 SHL SUB SWAP1 SWAP2 AND SWAP1 PUSH4 0x70A08231 SWAP1 PUSH1 0x24 ADD PUSH1 0x20 PUSH1 0x40 MLOAD DUP1 DUP4 SUB DUP2 DUP7 GAS STATICCALL ISZERO DUP1 ISZERO PUSH2 0x257C JUMPI RETURNDATASIZE PUSH0 DUP1 RETURNDATACOPY RETURNDATASIZE PUSH0 REVERT JUMPDEST POP POP POP POP PUSH1 0x40 MLOAD RETURNDATASIZE PUSH1 0x1F NOT PUSH1 0x1F DUP3 ADD AND DUP3 ADD DUP1 PUSH1 0x40 MSTORE POP DUP2 ADD SWAP1 PUSH2 0x25A0 SWAP2 SWAP1 PUSH2 0x4D6D JUMP JUMPDEST DUP3 DUP3 DUP2 MLOAD DUP2 LT PUSH2 0x25B2 JUMPI PUSH2 0x25B2 PUSH2 0x4F86 JUMP JUMPDEST PUSH1 0x20 SWAP1 DUP2 MUL SWAP2 SWAP1 SWAP2 ADD ADD MSTORE PUSH1 0x1 ADD PUSH2 0x24B2 JUMP JUMPDEST POP PUSH1 0x40 MLOAD PUSH32 0xEEDC3C5000000000000000000000000000000000000000000000000000000000 DUP2 MSTORE PUSH1 0x1 PUSH1 0x1 PUSH1 0xA0 SHL SUB DUP5 AND SWAP1 PUSH4 0xEEDC3C50 SWAP1 PUSH2 0x260D SWAP1 DUP13 SWAP1 DUP13 SWAP1 PUSH1 0x4 ADD PUSH2 0x4FB3 JUMP JUMPDEST PUSH0 PUSH1 0x40 MLOAD DUP1 DUP4 SUB DUP2 PUSH0 DUP8 DUP1 EXTCODESIZE ISZERO DUP1 ISZERO PUSH2 0x2624 JUMPI PUSH0 DUP1 REVERT JUMPDEST POP GAS CALL ISZERO DUP1 ISZERO PUSH2 0x2636 JUMPI RETURNDATASIZE PUSH0 DUP1 RETURNDATACOPY RETURNDATASIZE PUSH0 REVERT JUMPDEST POP POP POP POP PUSH0 JUMPDEST DUP9 MLOAD DUP2 LT ISZERO PUSH2 0x2CD9 JUMPI PUSH0 DUP10 DUP3 DUP2 MLOAD DUP2 LT PUSH2 0x2658 JUMPI PUSH2 0x2658 PUSH2 0x4F86 JUMP JUMPDEST PUSH1 0x20 SWAP1 DUP2 MUL SWAP2 SWAP1 SWAP2 ADD ADD MLOAD PUSH1 0x40 MLOAD PUSH32 0x70A0823100000000000000000000000000000000000000000000000000000000 DUP2 MSTORE ADDRESS PUSH1 0x4 DUP3 ADD MSTORE SWAP1 SWAP2 POP PUSH0 SWAP1 PUSH1 0x1 PUSH1 0x1 PUSH1 0xA0 SHL SUB DUP4 AND SWAP1 PUSH4 0x70A08231 SWAP1 PUSH1 0x24 ADD PUSH1 0x20 PUSH1 0x40 MLOAD DUP1 DUP4 SUB DUP2 DUP7 GAS STATICCALL ISZERO DUP1 ISZERO PUSH2 0x26C3 JUMPI RETURNDATASIZE PUSH0 DUP1 RETURNDATACOPY RETURNDATASIZE PUSH0 REVERT JUMPDEST POP POP POP POP PUSH1 0x40 MLOAD RETURNDATASIZE PUSH1 0x1F NOT PUSH1 0x1F DUP3 ADD AND DUP3 ADD DUP1 PUSH1 0x40 MSTORE POP DUP2 ADD SWAP1 PUSH2 0x26E7 SWAP2 SWAP1 PUSH2 0x4D6D JUMP JUMPDEST PUSH1 0x40 MLOAD PUSH32 0x1698EE8200000000000000000000000000000000000000000000000000000000 DUP2 MSTORE PUSH1 0x1 PUSH1 0x1 PUSH1 0xA0 SHL SUB DUP5 DUP2 AND PUSH1 0x4 DUP4 ADD MSTORE DUP11 DUP2 AND PUSH1 0x24 DUP4 ADD MSTORE PUSH2 0xBB8 PUSH1 0x44 DUP4 ADD MSTORE SWAP2 SWAP3 POP PUSH0 SWAP2 DUP12 AND SWAP1 PUSH4 0x1698EE82 SWAP1 PUSH1 0x64 ADD PUSH1 0x20 PUSH1 0x40 MLOAD DUP1 DUP4 SUB DUP2 DUP7 GAS STATICCALL ISZERO DUP1 ISZERO PUSH2 0x2759 JUMPI RETURNDATASIZE PUSH0 DUP1 RETURNDATACOPY RETURNDATASIZE PUSH0 REVERT JUMPDEST POP POP POP POP PUSH1 0x40 MLOAD RETURNDATASIZE PUSH1 0x1F NOT PUSH1 0x1F DUP3 ADD AND DUP3 ADD DUP1 PUSH1 0x40 MSTORE POP DUP2 ADD SWAP1 PUSH2 0x277D SWAP2 SWAP1 PUSH2 0x4D52 JUMP JUMPDEST PUSH1 0x40 MLOAD PUSH32 0x1698EE8200000000000000000000000000000000000000000000000000000000 DUP2 MSTORE PUSH1 0x1 PUSH1 0x1 PUSH1 0xA0 SHL SUB DUP6 DUP2 AND PUSH1 0x4 DUP4 ADD MSTORE DUP12 DUP2 AND PUSH1 0x24 DUP4 ADD MSTORE PUSH2 0x1F4 PUSH1 0x44 DUP4 ADD MSTORE SWAP2 SWAP3 POP PUSH0 SWAP2 DUP13 AND SWAP1 PUSH4 0x1698EE82 SWAP1 PUSH1 0x64 ADD PUSH1 0x20 PUSH1 0x40 MLOAD DUP1 DUP4 SUB DUP2 DUP7 GAS STATICCALL ISZERO DUP1 ISZERO PUSH2 0x27EF JUMPI RETURNDATASIZE PUSH0 DUP1 RETURNDATACOPY RETURNDATASIZE PUSH0 REVERT JUMPDEST POP POP POP POP PUSH1 0x40 MLOAD RETURNDATASIZE PUSH1 0x1F NOT PUSH1 0x1F DUP3 ADD AND DUP3 ADD DUP1 PUSH1 0x40 MSTORE POP DUP2 ADD SWAP1 PUSH2 0x2813 SWAP2 SWAP1 PUSH2 0x4D52 JUMP JUMPDEST PUSH1 0x40 MLOAD PUSH32 0x1698EE8200000000000000000000000000000000000000000000000000000000 DUP2 MSTORE PUSH1 0x1 PUSH1 0x1 PUSH1 0xA0 SHL SUB DUP7 DUP2 AND PUSH1 0x4 DUP4 ADD MSTORE DUP12 DUP2 AND PUSH1 0x24 DUP4 ADD MSTORE PUSH2 0x1F4 PUSH1 0x44 DUP4 ADD MSTORE SWAP2 SWAP3 POP PUSH0 SWAP2 DUP14 AND SWAP1 PUSH4 0x1698EE82 SWAP1 PUSH1 0x64 ADD PUSH1 0x20 PUSH1 0x40 MLOAD DUP1 DUP4 SUB DUP2 DUP7 GAS STATICCALL ISZERO DUP1 ISZERO PUSH2 0x2885 JUMPI RETURNDATASIZE PUSH0 DUP1 RETURNDATACOPY RETURNDATASIZE PUSH0 REVERT JUMPDEST POP POP POP POP PUSH1 0x40 MLOAD RETURNDATASIZE PUSH1 0x1F NOT PUSH1 0x1F DUP3 ADD AND DUP3 ADD DUP1 PUSH1 0x40 MSTORE POP DUP2 ADD SWAP1 PUSH2 0x28A9 SWAP2 SWAP1 PUSH2 0x4D52 JUMP JUMPDEST PUSH1 0x40 MLOAD PUSH32 0x1698EE8200000000000000000000000000000000000000000000000000000000 DUP2 MSTORE PUSH1 0x1 PUSH1 0x1 PUSH1 0xA0 SHL SUB DUP8 DUP2 AND PUSH1 0x4 DUP4 ADD MSTORE DUP13 DUP2 AND PUSH1 0x24 DUP4 ADD MSTORE PUSH2 0xBB8 PUSH1 0x44 DUP4 ADD MSTORE SWAP2 SWAP3 POP PUSH0 SWAP2 DUP15 AND SWAP1 PUSH4 0x1698EE82 SWAP1 PUSH1 0x64 ADD PUSH1 0x20 PUSH1 0x40 MLOAD DUP1 DUP4 SUB DUP2 DUP7 GAS STATICCALL ISZERO DUP1 ISZERO PUSH2 0x291B JUMPI RETURNDATASIZE PUSH0 DUP1 RETURNDATACOPY RETURNDATASIZE PUSH0 REVERT JUMPDEST POP POP POP POP PUSH1 0x40 MLOAD RETURNDATASIZE PUSH1 0x1F NOT PUSH1 0x1F DUP3 ADD AND DUP3 ADD DUP1 PUSH1 0x40 MSTORE POP DUP2 ADD SWAP1 PUSH2 0x293F SWAP2 SWAP1 PUSH2 0x4D52 JUMP JUMPDEST SWAP1 POP PUSH0 PUSH1 0x1 PUSH1 0x1 PUSH1 0xA0 SHL SUB DUP6 AND ISZERO ISZERO DUP1 PUSH2 0x2961 JUMPI POP PUSH1 0x1 PUSH1 0x1 PUSH1 0xA0 SHL SUB DUP5 AND ISZERO ISZERO JUMPDEST DUP1 PUSH2 0x2974 JUMPI POP PUSH1 0x1 PUSH1 0x1 PUSH1 0xA0 SHL SUB DUP3 AND ISZERO ISZERO JUMPDEST DUP1 PUSH2 0x2987 JUMPI POP PUSH1 0x1 PUSH1 0x1 PUSH1 0xA0 SHL SUB DUP4 AND ISZERO ISZERO JUMPDEST SWAP1 POP DUP10 DUP9 DUP2 MLOAD DUP2 LT PUSH2 0x299B JUMPI PUSH2 0x299B PUSH2 0x4F86 JUMP JUMPDEST PUSH1 0x20 MUL PUSH1 0x20 ADD ADD MLOAD DUP1 ISZERO PUSH2 0x29AC JUMPI POP DUP1 JUMPDEST ISZERO PUSH2 0x29BD JUMPI PUSH2 0x29BB PUSH0 DUP9 PUSH2 0x406E JUMP JUMPDEST POP JUMPDEST PUSH0 DUP10 DUP10 DUP2 MLOAD DUP2 LT PUSH2 0x29D0 JUMPI PUSH2 0x29D0 PUSH2 0x4F86 JUMP JUMPDEST PUSH1 0x20 MUL PUSH1 0x20 ADD ADD MLOAD DUP8 PUSH2 0x29E3 SWAP2 SWAP1 PUSH2 0x4E3F JUMP JUMPDEST SWAP1 POP DUP2 PUSH2 0x2A87 JUMPI PUSH1 0x40 MLOAD PUSH32 0xA9059CBB00000000000000000000000000000000000000000000000000000000 DUP2 MSTORE CALLER PUSH1 0x4 DUP3 ADD MSTORE PUSH1 0x24 DUP2 ADD DUP3 SWAP1 MSTORE PUSH1 0x1 PUSH1 0x1 PUSH1 0xA0 SHL SUB DUP10 AND SWAP1 PUSH4 0xA9059CBB SWAP1 PUSH1 0x44 ADD PUSH1 0x20 PUSH1 0x40 MLOAD DUP1 DUP4 SUB DUP2 PUSH0 DUP8 GAS CALL ISZERO DUP1 ISZERO PUSH2 0x2A4D JUMPI RETURNDATASIZE PUSH0 DUP1 RETURNDATACOPY RETURNDATASIZE PUSH0 REVERT JUMPDEST POP POP POP POP PUSH1 0x40 MLOAD RETURNDATASIZE PUSH1 0x1F NOT PUSH1 0x1F DUP3 ADD AND DUP3 ADD DUP1 PUSH1 0x40 MSTORE POP DUP2 ADD SWAP1 PUSH2 0x2A71 SWAP2 SWAP1 PUSH2 0x4E00 JUMP JUMPDEST POP POP POP POP POP POP POP POP POP POP POP POP POP POP POP POP POP PUSH2 0x2CE2 JUMP JUMPDEST PUSH1 0x2 SLOAD PUSH1 0x40 DUP1 MLOAD PUSH32 0x3B19E84A00000000000000000000000000000000000000000000000000000000 DUP2 MSTORE SWAP1 MLOAD PUSH0 SWAP3 PUSH1 0x1 PUSH1 0x1 PUSH1 0xA0 SHL SUB AND SWAP2 PUSH4 0x3B19E84A SWAP2 PUSH1 0x4 DUP1 DUP4 ADD SWAP3 PUSH1 0x20 SWAP3 SWAP2 SWAP1 DUP3 SWAP1 SUB ADD DUP2 DUP7 GAS STATICCALL ISZERO DUP1 ISZERO PUSH2 0x2AE7 JUMPI RETURNDATASIZE PUSH0 DUP1 RETURNDATACOPY RETURNDATASIZE PUSH0 REVERT JUMPDEST POP POP POP POP PUSH1 0x40 MLOAD RETURNDATASIZE PUSH1 0x1F NOT PUSH1 0x1F DUP3 ADD AND DUP3 ADD DUP1 PUSH1 0x40 MSTORE POP DUP2 ADD SWAP1 PUSH2 0x2B0B SWAP2 SWAP1 PUSH2 0x4D52 JUMP JUMPDEST SWAP1 POP PUSH0 PUSH1 0x2 PUSH0 SWAP1 SLOAD SWAP1 PUSH2 0x100 EXP SWAP1 DIV PUSH1 0x1 PUSH1 0x1 PUSH1 0xA0 SHL SUB AND PUSH1 0x1 PUSH1 0x1 PUSH1 0xA0 SHL SUB AND PUSH4 0x85462D6F PUSH1 0x40 MLOAD DUP2 PUSH4 0xFFFFFFFF AND PUSH1 0xE0 SHL DUP2 MSTORE PUSH1 0x4 ADD PUSH1 0x20 PUSH1 0x40 MLOAD DUP1 DUP4 SUB DUP2 DUP7 GAS STATICCALL ISZERO DUP1 ISZERO PUSH2 0x2B5E JUMPI RETURNDATASIZE PUSH0 DUP1 RETURNDATACOPY RETURNDATASIZE PUSH0 REVERT JUMPDEST POP POP POP POP PUSH1 0x40 MLOAD RETURNDATASIZE PUSH1 0x1F NOT PUSH1 0x1F DUP3 ADD AND DUP3 ADD DUP1 PUSH1 0x40 MSTORE POP DUP2 ADD SWAP1 PUSH2 0x2B82 SWAP2 SWAP1 PUSH2 0x4D6D JUMP JUMPDEST SWAP1 POP PUSH0 PUSH1 0x2 PUSH0 SWAP1 SLOAD SWAP1 PUSH2 0x100 EXP SWAP1 DIV PUSH1 0x1 PUSH1 0x1 PUSH1 0xA0 SHL SUB AND PUSH1 0x1 PUSH1 0x1 PUSH1 0xA0 SHL SUB AND PUSH4 0x4F4608A2 PUSH1 0x40 MLOAD DUP2 PUSH4 0xFFFFFFFF AND PUSH1 0xE0 SHL DUP2 MSTORE PUSH1 0x4 ADD PUSH1 0x20 PUSH1 0x40 MLOAD DUP1 DUP4 SUB DUP2 DUP7 GAS STATICCALL ISZERO DUP1 ISZERO PUSH2 0x2BD5 JUMPI RETURNDATASIZE PUSH0 DUP1 RETURNDATACOPY RETURNDATASIZE PUSH0 REVERT JUMPDEST POP POP POP POP PUSH1 0x40 MLOAD RETURNDATASIZE PUSH1 0x1F NOT PUSH1 0x1F DUP3 ADD AND DUP3 ADD DUP1 PUSH1 0x40 MSTORE POP DUP2 ADD SWAP1 PUSH2 0x2BF9 SWAP2 SWAP1 PUSH2 0x4D6D JUMP JUMPDEST SWAP1 POP DUP13 DUP13 DUP2 MLOAD DUP2 LT PUSH2 0x2C0D JUMPI PUSH2 0x2C0D PUSH2 0x4F86 JUMP JUMPDEST PUSH1 0x20 MUL PUSH1 0x20 ADD ADD MLOAD DUP11 GT ISZERO PUSH2 0x2CC2 JUMPI PUSH0 DUP2 PUSH2 0x2C28 DUP5 DUP8 PUSH2 0x4DB1 JUMP JUMPDEST PUSH2 0x2C32 SWAP2 SWAP1 PUSH2 0x4DC8 JUMP JUMPDEST PUSH1 0x40 MLOAD PUSH32 0xA9059CBB00000000000000000000000000000000000000000000000000000000 DUP2 MSTORE PUSH1 0x1 PUSH1 0x1 PUSH1 0xA0 SHL SUB DUP7 DUP2 AND PUSH1 0x4 DUP4 ADD MSTORE PUSH1 0x24 DUP3 ADD DUP4 SWAP1 MSTORE SWAP2 SWAP3 POP SWAP1 DUP14 AND SWAP1 PUSH4 0xA9059CBB SWAP1 PUSH1 0x44 ADD PUSH1 0x20 PUSH1 0x40 MLOAD DUP1 DUP4 SUB DUP2 PUSH0 DUP8 GAS CALL ISZERO DUP1 ISZERO PUSH2 0x2C9B JUMPI RETURNDATASIZE PUSH0 DUP1 RETURNDATACOPY RETURNDATASIZE PUSH0 REVERT JUMPDEST POP POP POP POP PUSH1 0x40 MLOAD RETURNDATASIZE PUSH1 0x1F NOT PUSH1 0x1F DUP3 ADD AND DUP3 ADD DUP1 PUSH1 0x40 MSTORE POP DUP2 ADD SWAP1 PUSH2 0x2CBF SWAP2 SWAP1 PUSH2 0x4E00 JUMP JUMPDEST POP POP JUMPDEST POP POP PUSH1 0x1 SWAP1 SWAP10 ADD SWAP9 POP PUSH2 0x263C SWAP8 POP POP POP POP POP POP POP POP JUMP JUMPDEST POP POP POP POP POP POP POP POP JUMPDEST PUSH2 0x19DB PUSH1 0x1 PUSH32 0x9B779B17422D0DF92223018B32B4D1FA46E071723D6817E2486D003BECC55F00 SSTORE JUMP JUMPDEST PUSH2 0x2D13 PUSH2 0x3E76 JUMP JUMPDEST PUSH1 0x1 PUSH1 0x1 PUSH1 0xA0 SHL SUB DUP2 AND PUSH2 0x2D55 JUMPI PUSH1 0x40 MLOAD PUSH32 0x1E4FBDF700000000000000000000000000000000000000000000000000000000 DUP2 MSTORE PUSH0 PUSH1 0x4 DUP3 ADD MSTORE PUSH1 0x24 ADD PUSH2 0xD1E JUMP JUMPDEST PUSH2 0xF41 DUP2 PUSH2 0x3EEA JUMP JUMPDEST PUSH2 0x2D66 PUSH2 0x3663 JUMP JUMPDEST PUSH1 0x2 SLOAD PUSH1 0x40 DUP1 MLOAD PUSH32 0x3E6DFA3600000000000000000000000000000000000000000000000000000000 DUP2 MSTORE SWAP1 MLOAD PUSH0 SWAP3 PUSH1 0x1 PUSH1 0x1 PUSH1 0xA0 SHL SUB AND SWAP2 PUSH4 0x3E6DFA36 SWAP2 PUSH1 0x4 DUP1 DUP4 ADD SWAP3 PUSH1 0x20 SWAP3 SWAP2 SWAP1 DUP3 SWAP1 SUB ADD DUP2 DUP7 GAS STATICCALL ISZERO DUP1 ISZERO PUSH2 0x2DC6 JUMPI RETURNDATASIZE PUSH0 DUP1 RETURNDATACOPY RETURNDATASIZE PUSH0 REVERT JUMPDEST POP POP POP POP PUSH1 0x40 MLOAD RETURNDATASIZE PUSH1 0x1F NOT PUSH1 0x1F DUP3 ADD AND DUP3 ADD DUP1 PUSH1 0x40 MSTORE POP DUP2 ADD SWAP1 PUSH2 0x2DEA SWAP2 SWAP1 PUSH2 0x4D52 JUMP JUMPDEST SWAP1 POP PUSH0 PUSH1 0x2 PUSH0 SWAP1 SLOAD SWAP1 PUSH2 0x100 EXP SWAP1 DIV PUSH1 0x1 PUSH1 0x1 PUSH1 0xA0 SHL SUB AND PUSH1 0x1 PUSH1 0x1 PUSH1 0xA0 SHL SUB AND PUSH4 0x3B19E84A PUSH1 0x40 MLOAD DUP2 PUSH4 0xFFFFFFFF AND PUSH1 0xE0 SHL DUP2 MSTORE PUSH1 0x4 ADD PUSH1 0x20 PUSH1 0x40 MLOAD DUP1 DUP4 SUB DUP2 DUP7 GAS STATICCALL ISZERO DUP1 ISZERO PUSH2 0x2E3D JUMPI RETURNDATASIZE PUSH0 DUP1 RETURNDATACOPY RETURNDATASIZE PUSH0 REVERT JUMPDEST POP POP POP POP PUSH1 0x40 MLOAD RETURNDATASIZE PUSH1 0x1F NOT PUSH1 0x1F DUP3 ADD AND DUP3 ADD DUP1 PUSH1 0x40 MSTORE POP DUP2 ADD SWAP1 PUSH2 0x2E61 SWAP2 SWAP1 PUSH2 0x4D52 JUMP JUMPDEST SWAP1 POP PUSH0 PUSH1 0x2 PUSH0 SWAP1 SLOAD SWAP1 PUSH2 0x100 EXP SWAP1 DIV PUSH1 0x1 PUSH1 0x1 PUSH1 0xA0 SHL SUB AND PUSH1 0x1 PUSH1 0x1 PUSH1 0xA0 SHL SUB AND PUSH4 0x1BF01E9B PUSH1 0x40 MLOAD DUP2 PUSH4 0xFFFFFFFF AND PUSH1 0xE0 SHL DUP2 MSTORE PUSH1 0x4 ADD PUSH1 0x20 PUSH1 0x40 MLOAD DUP1 DUP4 SUB DUP2 DUP7 GAS STATICCALL ISZERO DUP1 ISZERO PUSH2 0x2EB4 JUMPI RETURNDATASIZE PUSH0 DUP1 RETURNDATACOPY RETURNDATASIZE PUSH0 REVERT JUMPDEST POP POP POP POP PUSH1 0x40 MLOAD RETURNDATASIZE PUSH1 0x1F NOT PUSH1 0x1F DUP3 ADD AND DUP3 ADD DUP1 PUSH1 0x40 MSTORE POP DUP2 ADD SWAP1 PUSH2 0x2ED8 SWAP2 SWAP1 PUSH2 0x4D52 JUMP JUMPDEST SWAP1 POP PUSH0 PUSH1 0x2 PUSH0 SWAP1 SLOAD SWAP1 PUSH2 0x100 EXP SWAP1 DIV PUSH1 0x1 PUSH1 0x1 PUSH1 0xA0 SHL SUB AND PUSH1 0x1 PUSH1 0x1 PUSH1 0xA0 SHL SUB AND PUSH4 0x6C9C0078 PUSH1 0x40 MLOAD DUP2 PUSH4 0xFFFFFFFF AND PUSH1 0xE0 SHL DUP2 MSTORE PUSH1 0x4 ADD PUSH1 0x20 PUSH1 0x40 MLOAD DUP1 DUP4 SUB DUP2 DUP7 GAS STATICCALL ISZERO DUP1 ISZERO PUSH2 0x2F2B JUMPI RETURNDATASIZE PUSH0 DUP1 RETURNDATACOPY RETURNDATASIZE PUSH0 REVERT JUMPDEST POP POP POP POP PUSH1 0x40 MLOAD RETURNDATASIZE PUSH1 0x1F NOT PUSH1 0x1F DUP3 ADD AND DUP3 ADD DUP1 PUSH1 0x40 MSTORE POP DUP2 ADD SWAP1 PUSH2 0x2F4F SWAP2 SWAP1 PUSH2 0x4D52 JUMP JUMPDEST SWAP1 POP PUSH0 DUP6 GT PUSH2 0x2FBA JUMPI PUSH1 0x40 MLOAD PUSH32 0x8C379A000000000000000000000000000000000000000000000000000000000 DUP2 MSTORE PUSH1 0x20 PUSH1 0x4 DUP3 ADD MSTORE PUSH1 0x10 PUSH1 0x24 DUP3 ADD MSTORE PUSH32 0x496E73756666696369656E742042414C00000000000000000000000000000000 PUSH1 0x44 DUP3 ADD MSTORE PUSH1 0x64 ADD PUSH2 0xD1E JUMP JUMPDEST PUSH0 PUSH2 0x2FC4 DUP7 PUSH2 0x382A JUMP JUMPDEST SWAP1 POP PUSH0 JUMPDEST PUSH2 0x2FD1 PUSH0 PUSH2 0x3939 JUMP JUMPDEST DUP2 LT ISZERO PUSH2 0x35D2 JUMPI PUSH0 PUSH2 0x2FE3 DUP2 DUP4 PUSH2 0x3942 JUMP JUMPDEST SWAP1 POP PUSH0 PUSH2 0x300E PUSH32 0x52C63247E1F47DB19D5CE0460030C497F067CA4CEBF71BA98EEADABE20BACE02 SLOAD SWAP1 JUMP JUMPDEST PUSH1 0x40 MLOAD PUSH32 0x70A0823100000000000000000000000000000000000000000000000000000000 DUP2 MSTORE ADDRESS PUSH1 0x4 DUP3 ADD MSTORE SWAP1 SWAP2 POP PUSH0 SWAP1 PUSH1 0x1 PUSH1 0x1 PUSH1 0xA0 SHL SUB DUP5 AND SWAP1 PUSH4 0x70A08231 SWAP1 PUSH1 0x24 ADD PUSH1 0x20 PUSH1 0x40 MLOAD DUP1 DUP4 SUB DUP2 DUP7 GAS STATICCALL ISZERO DUP1 ISZERO PUSH2 0x306E JUMPI RETURNDATASIZE PUSH0 DUP1 RETURNDATACOPY RETURNDATASIZE PUSH0 REVERT JUMPDEST POP POP POP POP PUSH1 0x40 MLOAD RETURNDATASIZE PUSH1 0x1F NOT PUSH1 0x1F DUP3 ADD AND DUP3 ADD DUP1 PUSH1 0x40 MSTORE POP DUP2 ADD SWAP1 PUSH2 0x3092 SWAP2 SWAP1 PUSH2 0x4D6D JUMP JUMPDEST SWAP1 POP DUP1 ISZERO ISZERO PUSH0 SUB PUSH2 0x30A5 JUMPI POP POP POP PUSH2 0x35CA JUMP JUMPDEST ADDRESS PUSH1 0x1 PUSH1 0x1 PUSH1 0xA0 SHL SUB DUP5 AND SUB PUSH2 0x30BD JUMPI POP POP POP PUSH2 0x35CA JUMP JUMPDEST PUSH0 DUP4 PUSH1 0x1 PUSH1 0x1 PUSH1 0xA0 SHL SUB AND PUSH4 0x313CE567 PUSH1 0x40 MLOAD DUP2 PUSH4 0xFFFFFFFF AND PUSH1 0xE0 SHL DUP2 MSTORE PUSH1 0x4 ADD PUSH1 0x20 PUSH1 0x40 MLOAD DUP1 DUP4 SUB DUP2 DUP7 GAS STATICCALL ISZERO DUP1 ISZERO PUSH2 0x30FA JUMPI RETURNDATASIZE PUSH0 DUP1 RETURNDATACOPY RETURNDATASIZE PUSH0 REVERT JUMPDEST POP POP POP POP PUSH1 0x40 MLOAD RETURNDATASIZE PUSH1 0x1F NOT PUSH1 0x1F DUP3 ADD AND DUP3 ADD DUP1 PUSH1 0x40 MSTORE POP DUP2 ADD SWAP1 PUSH2 0x311E SWAP2 SWAP1 PUSH2 0x4E1F JUMP JUMPDEST PUSH1 0xFF AND SWAP1 POP PUSH2 0x3131 DUP10 PUSH2 0x5AF DUP9 DUP15 PUSH2 0x4E3F JUMP JUMPDEST POP PUSH0 PUSH2 0x313F DUP5 DUP5 DUP10 DUP6 PUSH2 0x394D JUMP JUMPDEST PUSH1 0x3 SLOAD SWAP1 SWAP2 POP PUSH1 0x1 PUSH1 0x1 PUSH1 0xA0 SHL SUB SWAP1 DUP2 AND SWAP1 DUP7 AND SUB PUSH2 0x31EA JUMPI PUSH1 0x40 MLOAD PUSH32 0xA9059CBB00000000000000000000000000000000000000000000000000000000 DUP2 MSTORE CALLER PUSH1 0x4 DUP3 ADD MSTORE PUSH1 0x24 DUP2 ADD DUP3 SWAP1 MSTORE PUSH1 0x1 PUSH1 0x1 PUSH1 0xA0 SHL SUB DUP11 AND SWAP1 PUSH4 0xA9059CBB SWAP1 PUSH1 0x44 ADD PUSH1 0x20 PUSH1 0x40 MLOAD DUP1 DUP4 SUB DUP2 PUSH0 DUP8 GAS CALL ISZERO DUP1 ISZERO PUSH2 0x31BB JUMPI RETURNDATASIZE PUSH0 DUP1 RETURNDATACOPY RETURNDATASIZE PUSH0 REVERT JUMPDEST POP POP POP POP PUSH1 0x40 MLOAD RETURNDATASIZE PUSH1 0x1F NOT PUSH1 0x1F DUP3 ADD AND DUP3 ADD DUP1 PUSH1 0x40 MSTORE POP DUP2 ADD SWAP1 PUSH2 0x31DF SWAP2 SWAP1 PUSH2 0x4E00 JUMP JUMPDEST POP POP POP POP POP POP PUSH2 0x35CA JUMP JUMPDEST PUSH1 0x2 SLOAD PUSH1 0x40 DUP1 MLOAD PUSH32 0x82755EBB00000000000000000000000000000000000000000000000000000000 DUP2 MSTORE SWAP1 MLOAD PUSH0 SWAP3 PUSH1 0x1 PUSH1 0x1 PUSH1 0xA0 SHL SUB AND SWAP2 PUSH4 0x82755EBB SWAP2 PUSH1 0x4 DUP1 DUP4 ADD SWAP3 PUSH1 0x20 SWAP3 SWAP2 SWAP1 DUP3 SWAP1 SUB ADD DUP2 DUP7 GAS STATICCALL ISZERO DUP1 ISZERO PUSH2 0x324A JUMPI RETURNDATASIZE PUSH0 DUP1 RETURNDATACOPY RETURNDATASIZE PUSH0 REVERT JUMPDEST POP POP POP POP PUSH1 0x40 MLOAD RETURNDATASIZE PUSH1 0x1F NOT PUSH1 0x1F DUP3 ADD AND DUP3 ADD DUP1 PUSH1 0x40 MSTORE POP DUP2 ADD SWAP1 PUSH2 0x326E SWAP2 SWAP1 PUSH2 0x4D52 JUMP JUMPDEST PUSH1 0x40 MLOAD PUSH32 0x95EA7B300000000000000000000000000000000000000000000000000000000 DUP2 MSTORE PUSH1 0x1 PUSH1 0x1 PUSH1 0xA0 SHL SUB DUP1 DUP4 AND PUSH1 0x4 DUP4 ADD MSTORE PUSH1 0x24 DUP3 ADD DUP6 SWAP1 MSTORE SWAP2 SWAP3 POP SWAP1 DUP8 AND SWAP1 PUSH4 0x95EA7B3 SWAP1 PUSH1 0x44 ADD PUSH1 0x20 PUSH1 0x40 MLOAD DUP1 DUP4 SUB DUP2 PUSH0 DUP8 GAS CALL ISZERO DUP1 ISZERO PUSH2 0x32D7 JUMPI RETURNDATASIZE PUSH0 DUP1 RETURNDATACOPY RETURNDATASIZE PUSH0 REVERT JUMPDEST POP POP POP POP PUSH1 0x40 MLOAD RETURNDATASIZE PUSH1 0x1F NOT PUSH1 0x1F DUP3 ADD AND DUP3 ADD DUP1 PUSH1 0x40 MSTORE POP DUP2 ADD SWAP1 PUSH2 0x32FB SWAP2 SWAP1 PUSH2 0x4E00 JUMP JUMPDEST POP PUSH1 0x3 SLOAD PUSH1 0x40 MLOAD PUSH32 0x2D6BC8EA00000000000000000000000000000000000000000000000000000000 DUP2 MSTORE PUSH1 0x1 PUSH1 0x1 PUSH1 0xA0 SHL SUB DUP9 DUP2 AND PUSH1 0x4 DUP4 ADD MSTORE SWAP2 DUP3 AND PUSH1 0x24 DUP3 ADD MSTORE PUSH1 0x44 DUP2 ADD DUP5 SWAP1 MSTORE CALLER PUSH1 0x64 DUP3 ADD MSTORE SWAP1 DUP3 AND SWAP1 PUSH4 0x2D6BC8EA SWAP1 PUSH1 0x84 ADD PUSH1 0x20 PUSH1 0x40 MLOAD DUP1 DUP4 SUB DUP2 PUSH0 DUP8 GAS CALL SWAP3 POP POP POP DUP1 ISZERO PUSH2 0x3391 JUMPI POP PUSH1 0x40 DUP1 MLOAD PUSH1 0x1F RETURNDATASIZE SWAP1 DUP2 ADD PUSH1 0x1F NOT AND DUP3 ADD SWAP1 SWAP3 MSTORE PUSH2 0x338E SWAP2 DUP2 ADD SWAP1 PUSH2 0x4D6D JUMP JUMPDEST PUSH1 0x1 JUMPDEST PUSH2 0x3535 JUMPI PUSH1 0x3 SLOAD PUSH1 0x40 MLOAD PUSH32 0x5EFAAEBB00000000000000000000000000000000000000000000000000000000 DUP2 MSTORE PUSH1 0x1 PUSH1 0x1 PUSH1 0xA0 SHL SUB DUP9 DUP2 AND PUSH1 0x4 DUP4 ADD MSTORE DUP12 DUP2 AND PUSH1 0x24 DUP4 ADD MSTORE SWAP2 DUP3 AND PUSH1 0x44 DUP3 ADD MSTORE PUSH1 0x64 DUP2 ADD DUP5 SWAP1 MSTORE CALLER PUSH1 0x84 DUP3 ADD MSTORE PUSH0 SWAP2 DUP4 AND SWAP1 PUSH4 0x5EFAAEBB SWAP1 PUSH1 0xA4 ADD PUSH1 0x20 PUSH1 0x40 MLOAD DUP1 DUP4 SUB DUP2 PUSH0 DUP8 GAS CALL ISZERO DUP1 ISZERO PUSH2 0x3415 JUMPI RETURNDATASIZE PUSH0 DUP1 RETURNDATACOPY RETURNDATASIZE PUSH0 REVERT JUMPDEST POP POP POP POP PUSH1 0x40 MLOAD RETURNDATASIZE PUSH1 0x1F NOT PUSH1 0x1F DUP3 ADD AND DUP3 ADD DUP1 PUSH1 0x40 MSTORE POP DUP2 ADD SWAP1 PUSH2 0x3439 SWAP2 SWAP1 PUSH2 0x4D6D JUMP JUMPDEST PUSH1 0x3 SLOAD PUSH1 0x40 MLOAD PUSH32 0xA9059CBB00000000000000000000000000000000000000000000000000000000 DUP2 MSTORE CALLER PUSH1 0x4 DUP3 ADD MSTORE PUSH1 0x24 DUP2 ADD DUP4 SWAP1 MSTORE SWAP2 SWAP3 POP PUSH1 0x1 PUSH1 0x1 PUSH1 0xA0 SHL SUB AND SWAP1 PUSH4 0xA9059CBB SWAP1 PUSH1 0x44 ADD PUSH1 0x20 PUSH1 0x40 MLOAD DUP1 DUP4 SUB DUP2 PUSH0 DUP8 GAS CALL ISZERO DUP1 ISZERO PUSH2 0x34A1 JUMPI RETURNDATASIZE PUSH0 DUP1 RETURNDATACOPY RETURNDATASIZE PUSH0 REVERT JUMPDEST POP POP POP POP PUSH1 0x40 MLOAD RETURNDATASIZE PUSH1 0x1F NOT PUSH1 0x1F DUP3 ADD AND DUP3 ADD DUP1 PUSH1 0x40 MSTORE POP DUP2 ADD SWAP1 PUSH2 0x34C5 SWAP2 SWAP1 PUSH2 0x4E00 JUMP JUMPDEST POP PUSH0 DUP2 GT PUSH2 0x352F JUMPI PUSH1 0x40 MLOAD PUSH32 0x8C379A000000000000000000000000000000000000000000000000000000000 DUP2 MSTORE PUSH1 0x20 PUSH1 0x4 DUP3 ADD MSTORE PUSH1 0x17 PUSH1 0x24 DUP3 ADD MSTORE PUSH32 0x53776170204661696C65642C20547279204275726E2829000000000000000000 PUSH1 0x44 DUP3 ADD MSTORE PUSH1 0x64 ADD PUSH2 0xD1E JUMP JUMPDEST POP PUSH2 0x35C3 JUMP JUMPDEST PUSH1 0x3 SLOAD PUSH1 0x40 MLOAD PUSH32 0xA9059CBB00000000000000000000000000000000000000000000000000000000 DUP2 MSTORE CALLER PUSH1 0x4 DUP3 ADD MSTORE PUSH1 0x24 DUP2 ADD DUP4 SWAP1 MSTORE PUSH1 0x1 PUSH1 0x1 PUSH1 0xA0 SHL SUB SWAP1 SWAP2 AND SWAP1 PUSH4 0xA9059CBB SWAP1 PUSH1 0x44 ADD PUSH1 0x20 PUSH1 0x40 MLOAD DUP1 DUP4 SUB DUP2 PUSH0 DUP8 GAS CALL ISZERO DUP1 ISZERO PUSH2 0x359C JUMPI RETURNDATASIZE PUSH0 DUP1 RETURNDATACOPY RETURNDATASIZE PUSH0 REVERT JUMPDEST POP POP POP POP PUSH1 0x40 MLOAD RETURNDATASIZE PUSH1 0x1F NOT PUSH1 0x1F DUP3 ADD AND DUP3 ADD DUP1 PUSH1 0x40 MSTORE POP DUP2 ADD SWAP1 PUSH2 0x35C0 SWAP2 SWAP1 PUSH2 0x4E00 JUMP JUMPDEST POP POP JUMPDEST POP POP POP POP POP POP JUMPDEST PUSH1 0x1 ADD PUSH2 0x2FC8 JUMP JUMPDEST POP PUSH2 0x35DD CALLER DUP3 PUSH2 0x3A8D JUMP JUMPDEST PUSH1 0x40 DUP1 MLOAD CALLER DUP2 MSTORE PUSH1 0x20 DUP2 ADD DUP4 SWAP1 MSTORE PUSH32 0xCC16F5DBB4873280815C1EE09DBD06736CFFCC184412CF7A71A0FDB75D397CA5 SWAP2 ADD PUSH1 0x40 MLOAD DUP1 SWAP2 SUB SWAP1 LOG1 POP POP POP POP POP PUSH2 0xF41 PUSH1 0x1 PUSH32 0x9B779B17422D0DF92223018B32B4D1FA46E071723D6817E2486D003BECC55F00 SSTORE JUMP JUMPDEST PUSH0 PUSH2 0x1DD5 DUP6 DUP6 DUP6 DUP6 PUSH2 0x394D JUMP JUMPDEST PUSH2 0x365E DUP4 DUP4 DUP4 PUSH1 0x1 PUSH2 0x40A3 JUMP JUMPDEST POP POP POP JUMP JUMPDEST PUSH32 0x9B779B17422D0DF92223018B32B4D1FA46E071723D6817E2486D003BECC55F00 DUP1 SLOAD PUSH32 0xFFFFFFFFFFFFFFFFFFFFFFFFFFFFFFFFFFFFFFFFFFFFFFFFFFFFFFFFFFFFFFFE ADD PUSH2 0x36DE JUMPI PUSH1 0x40 MLOAD PUSH32 0x3EE5AEB500000000000000000000000000000000000000000000000000000000 DUP2 MSTORE PUSH1 0x4 ADD PUSH1 0x40 MLOAD DUP1 SWAP2 SUB SWAP1 REVERT JUMPDEST PUSH1 0x2 SWAP1 SSTORE JUMP JUMPDEST PUSH0 DUP1 PUSH0 JUMPDEST PUSH2 0x36F1 PUSH0 PUSH2 0x3939 JUMP JUMPDEST DUP2 LT ISZERO PUSH2 0x37B1 JUMPI PUSH0 PUSH2 0x3703 DUP2 DUP4 PUSH2 0x3942 JUMP JUMPDEST PUSH1 0x40 MLOAD PUSH32 0x70A0823100000000000000000000000000000000000000000000000000000000 DUP2 MSTORE ADDRESS PUSH1 0x4 DUP3 ADD MSTORE SWAP1 SWAP2 POP PUSH0 SWAP1 PUSH1 0x1 PUSH1 0x1 PUSH1 0xA0 SHL SUB DUP4 AND SWAP1 PUSH4 0x70A08231 SWAP1 PUSH1 0x24 ADD PUSH1 0x20 PUSH1 0x40 MLOAD DUP1 DUP4 SUB DUP2 DUP7 GAS STATICCALL ISZERO DUP1 ISZERO PUSH2 0x3763 JUMPI RETURNDATASIZE PUSH0 DUP1 RETURNDATACOPY RETURNDATASIZE PUSH0 REVERT JUMPDEST POP POP POP POP PUSH1 0x40 MLOAD RETURNDATASIZE PUSH1 0x1F NOT PUSH1 0x1F DUP3 ADD AND DUP3 ADD DUP1 PUSH1 0x40 MSTORE POP DUP2 ADD SWAP1 PUSH2 0x3787 SWAP2 SWAP1 PUSH2 0x4D6D JUMP JUMPDEST SWAP1 POP PUSH0 PUSH2 0x3794 DUP3 DUP5 PUSH2 0x1451 JUMP JUMPDEST SWAP1 POP PUSH2 0x37A0 DUP2 DUP7 PUSH2 0x505E JUMP JUMPDEST SWAP5 POP POP PUSH1 0x1 SWAP1 SWAP3 ADD SWAP2 POP PUSH2 0x36E8 SWAP1 POP JUMP JUMPDEST POP SWAP2 SWAP1 POP JUMP JUMPDEST PUSH1 0x1 PUSH1 0x1 PUSH1 0xA0 SHL SUB DUP3 AND PUSH2 0x37F9 JUMPI PUSH1 0x40 MLOAD PUSH32 0xEC442F0500000000000000000000000000000000000000000000000000000000 DUP2 MSTORE PUSH0 PUSH1 0x4 DUP3 ADD MSTORE PUSH1 0x24 ADD PUSH2 0xD1E JUMP JUMPDEST PUSH2 0x19DB PUSH0 DUP4 DUP4 PUSH2 0x41CB JUMP JUMPDEST PUSH1 0x1 PUSH32 0x9B779B17422D0DF92223018B32B4D1FA46E071723D6817E2486D003BECC55F00 SSTORE JUMP JUMPDEST PUSH0 DUP1 PUSH1 0x2 PUSH0 SWAP1 SLOAD SWAP1 PUSH2 0x100 EXP SWAP1 DIV PUSH1 0x1 PUSH1 0x1 PUSH1 0xA0 SHL SUB AND PUSH1 0x1 PUSH1 0x1 PUSH1 0xA0 SHL SUB AND PUSH4 0x85462D6F PUSH1 0x40 MLOAD DUP2 PUSH4 0xFFFFFFFF AND PUSH1 0xE0 SHL DUP2 MSTORE PUSH1 0x4 ADD PUSH1 0x20 PUSH1 0x40 MLOAD DUP1 DUP4 SUB DUP2 DUP7 GAS STATICCALL ISZERO DUP1 ISZERO PUSH2 0x387C JUMPI RETURNDATASIZE PUSH0 DUP1 RETURNDATACOPY RETURNDATASIZE PUSH0 REVERT JUMPDEST POP POP POP POP PUSH1 0x40 MLOAD RETURNDATASIZE PUSH1 0x1F NOT PUSH1 0x1F DUP3 ADD AND DUP3 ADD DUP1 PUSH1 0x40 MSTORE POP DUP2 ADD SWAP1 PUSH2 0x38A0 SWAP2 SWAP1 PUSH2 0x4D6D JUMP JUMPDEST SWAP1 POP PUSH0 PUSH1 0x2 PUSH0 SWAP1 SLOAD SWAP1 PUSH2 0x100 EXP SWAP1 DIV PUSH1 0x1 PUSH1 0x1 PUSH1 0xA0 SHL SUB AND PUSH1 0x1 PUSH1 0x1 PUSH1 0xA0 SHL SUB AND PUSH4 0x4F4608A2 PUSH1 0x40 MLOAD DUP2 PUSH4 0xFFFFFFFF AND PUSH1 0xE0 SHL DUP2 MSTORE PUSH1 0x4 ADD PUSH1 0x20 PUSH1 0x40 MLOAD DUP1 DUP4 SUB DUP2 DUP7 GAS STATICCALL ISZERO DUP1 ISZERO PUSH2 0x38F3 JUMPI RETURNDATASIZE PUSH0 DUP1 RETURNDATACOPY RETURNDATASIZE PUSH0 REVERT JUMPDEST POP POP POP POP PUSH1 0x40 MLOAD RETURNDATASIZE PUSH1 0x1F NOT PUSH1 0x1F DUP3 ADD AND DUP3 ADD DUP1 PUSH1 0x40 MSTORE POP DUP2 ADD SWAP1 PUSH2 0x3917 SWAP2 SWAP1 PUSH2 0x4D6D JUMP JUMPDEST SWAP1 POP PUSH0 DUP2 PUSH2 0x3925 DUP5 DUP3 PUSH2 0x4E3F JUMP JUMPDEST PUSH2 0x392F SWAP1 DUP8 PUSH2 0x4DB1 JUMP JUMPDEST PUSH2 0x1DD5 SWAP2 SWAP1 PUSH2 0x4DC8 JUMP JUMPDEST PUSH0 PUSH2 0x891 DUP3 SLOAD SWAP1 JUMP JUMPDEST PUSH0 PUSH2 0x1346 DUP4 DUP4 PUSH2 0x4330 JUMP JUMPDEST PUSH0 DUP1 DUP6 GT PUSH2 0x39B7 JUMPI PUSH1 0x40 MLOAD PUSH32 0x8C379A000000000000000000000000000000000000000000000000000000000 DUP2 MSTORE PUSH1 0x20 PUSH1 0x4 DUP3 ADD MSTORE PUSH1 0x1B PUSH1 0x24 DUP3 ADD MSTORE PUSH32 0x546F74616C20737570706C792063616E6E6F74206265207A65726F0000000000 PUSH1 0x44 DUP3 ADD MSTORE PUSH1 0x64 ADD PUSH2 0xD1E JUMP JUMPDEST PUSH1 0x12 DUP3 GT ISZERO PUSH2 0x3A22 JUMPI PUSH1 0x40 MLOAD PUSH32 0x8C379A000000000000000000000000000000000000000000000000000000000 DUP2 MSTORE PUSH1 0x20 PUSH1 0x4 DUP3 ADD MSTORE PUSH1 0x1E PUSH1 0x24 DUP3 ADD MSTORE PUSH32 0x546F6B656E20646563696D616C732073686F756C64206265203C3D2031380000 PUSH1 0x44 DUP3 ADD MSTORE PUSH1 0x64 ADD PUSH2 0xD1E JUMP JUMPDEST PUSH0 DUP1 DUP1 PUSH2 0x3A30 DUP6 PUSH1 0x12 PUSH2 0x4E3F JUMP JUMPDEST PUSH2 0x3A3B SWAP1 PUSH1 0xA PUSH2 0x518F JUMP JUMPDEST SWAP1 POP PUSH1 0x12 DUP6 LT ISZERO PUSH2 0x3A63 JUMPI PUSH2 0x3A50 DUP2 DUP10 PUSH2 0x4DC8 JUMP JUMPDEST SWAP3 POP PUSH2 0x3A5C DUP2 DUP8 PUSH2 0x4DC8 JUMP JUMPDEST SWAP2 POP PUSH2 0x3A6A JUMP JUMPDEST DUP8 SWAP3 POP DUP6 SWAP2 POP JUMPDEST PUSH0 DUP4 PUSH2 0x3A76 DUP10 DUP6 PUSH2 0x4DB1 JUMP JUMPDEST PUSH2 0x3A80 SWAP2 SWAP1 PUSH2 0x4DC8 JUMP JUMPDEST SWAP10 SWAP9 POP POP POP POP POP POP POP POP POP JUMP JUMPDEST PUSH1 0x1 PUSH1 0x1 PUSH1 0xA0 SHL SUB DUP3 AND PUSH2 0x3ACF JUMPI PUSH1 0x40 MLOAD PUSH32 0x96C6FD1E00000000000000000000000000000000000000000000000000000000 DUP2 MSTORE PUSH0 PUSH1 0x4 DUP3 ADD MSTORE PUSH1 0x24 ADD PUSH2 0xD1E JUMP JUMPDEST PUSH2 0x19DB DUP3 PUSH0 DUP4 PUSH2 0x41CB JUMP JUMPDEST PUSH1 0x1 PUSH1 0x1 PUSH1 0xA0 SHL SUB DUP4 DUP2 AND PUSH0 SWAP1 DUP2 MSTORE PUSH32 0x52C63247E1F47DB19D5CE0460030C497F067CA4CEBF71BA98EEADABE20BACE01 PUSH1 0x20 SWAP1 DUP2 MSTORE PUSH1 0x40 DUP1 DUP4 KECCAK256 SWAP4 DUP7 AND DUP4 MSTORE SWAP3 SWAP1 MSTORE KECCAK256 SLOAD PUSH32 0xFFFFFFFFFFFFFFFFFFFFFFFFFFFFFFFFFFFFFFFFFFFFFFFFFFFFFFFFFFFFFFFF DUP2 EQ PUSH2 0x3BA6 JUMPI DUP2 DUP2 LT ISZERO PUSH2 0x3B98 JUMPI PUSH1 0x40 MLOAD PUSH32 0xFB8F41B200000000000000000000000000000000000000000000000000000000 DUP2 MSTORE PUSH1 0x1 PUSH1 0x1 PUSH1 0xA0 SHL SUB DUP5 AND PUSH1 0x4 DUP3 ADD MSTORE PUSH1 0x24 DUP2 ADD DUP3 SWAP1 MSTORE PUSH1 0x44 DUP2 ADD DUP4 SWAP1 MSTORE PUSH1 0x64 ADD PUSH2 0xD1E JUMP JUMPDEST PUSH2 0x3BA6 DUP5 DUP5 DUP5 DUP5 SUB PUSH0 PUSH2 0x40A3 JUMP JUMPDEST POP POP POP POP JUMP JUMPDEST PUSH1 0x1 PUSH1 0x1 PUSH1 0xA0 SHL SUB DUP4 AND PUSH2 0x3BEE JUMPI PUSH1 0x40 MLOAD PUSH32 0x96C6FD1E00000000000000000000000000000000000000000000000000000000 DUP2 MSTORE PUSH0 PUSH1 0x4 DUP3 ADD MSTORE PUSH1 0x24 ADD PUSH2 0xD1E JUMP JUMPDEST PUSH1 0x1 PUSH1 0x1 PUSH1 0xA0 SHL SUB DUP3 AND PUSH2 0x3C30 JUMPI PUSH1 0x40 MLOAD PUSH32 0xEC442F0500000000000000000000000000000000000000000000000000000000 DUP2 MSTORE PUSH0 PUSH1 0x4 DUP3 ADD MSTORE PUSH1 0x24 ADD PUSH2 0xD1E JUMP JUMPDEST PUSH2 0x365E DUP4 DUP4 DUP4 PUSH2 0x41CB JUMP JUMPDEST ADDRESS PUSH1 0x1 PUSH1 0x1 PUSH1 0xA0 SHL SUB PUSH32 0x0 AND EQ DUP1 PUSH2 0x3CD4 JUMPI POP PUSH32 0x0 PUSH1 0x1 PUSH1 0x1 PUSH1 0xA0 SHL SUB AND PUSH2 0x3CC8 PUSH32 0x360894A13BA1A3210667C828492DB98DCA3E2076CC3735A920A3CA505D382BBC SLOAD PUSH1 0x1 PUSH1 0x1 PUSH1 0xA0 SHL SUB AND SWAP1 JUMP JUMPDEST PUSH1 0x1 PUSH1 0x1 PUSH1 0xA0 SHL SUB AND EQ ISZERO JUMPDEST ISZERO PUSH2 0x19BE JUMPI PUSH1 0x40 MLOAD PUSH32 0xE07C8DBA00000000000000000000000000000000000000000000000000000000 DUP2 MSTORE PUSH1 0x4 ADD PUSH1 0x40 MLOAD DUP1 SWAP2 SUB SWAP1 REVERT JUMPDEST PUSH2 0xF41 PUSH2 0x3E76 JUMP JUMPDEST DUP2 PUSH1 0x1 PUSH1 0x1 PUSH1 0xA0 SHL SUB AND PUSH4 0x52D1902D PUSH1 0x40 MLOAD DUP2 PUSH4 0xFFFFFFFF AND PUSH1 0xE0 SHL DUP2 MSTORE PUSH1 0x4 ADD PUSH1 0x20 PUSH1 0x40 MLOAD DUP1 DUP4 SUB DUP2 DUP7 GAS STATICCALL SWAP3 POP POP POP DUP1 ISZERO PUSH2 0x3D6D JUMPI POP PUSH1 0x40 DUP1 MLOAD PUSH1 0x1F RETURNDATASIZE SWAP1 DUP2 ADD PUSH1 0x1F NOT AND DUP3 ADD SWAP1 SWAP3 MSTORE PUSH2 0x3D6A SWAP2 DUP2 ADD SWAP1 PUSH2 0x4D6D JUMP JUMPDEST PUSH1 0x1 JUMPDEST PUSH2 0x3DAE JUMPI PUSH1 0x40 MLOAD PUSH32 0x4C9C8CE300000000000000000000000000000000000000000000000000000000 DUP2 MSTORE PUSH1 0x1 PUSH1 0x1 PUSH1 0xA0 SHL SUB DUP4 AND PUSH1 0x4 DUP3 ADD MSTORE PUSH1 0x24 ADD PUSH2 0xD1E JUMP JUMPDEST PUSH32 0x360894A13BA1A3210667C828492DB98DCA3E2076CC3735A920A3CA505D382BBC DUP2 EQ PUSH2 0x3E0A JUMPI PUSH1 0x40 MLOAD PUSH32 0xAA1D49A400000000000000000000000000000000000000000000000000000000 DUP2 MSTORE PUSH1 0x4 DUP2 ADD DUP3 SWAP1 MSTORE PUSH1 0x24 ADD PUSH2 0xD1E JUMP JUMPDEST PUSH2 0x365E DUP4 DUP4 PUSH2 0x4356 JUMP JUMPDEST ADDRESS PUSH1 0x1 PUSH1 0x1 PUSH1 0xA0 SHL SUB PUSH32 0x0 AND EQ PUSH2 0x19BE JUMPI PUSH1 0x40 MLOAD PUSH32 0xE07C8DBA00000000000000000000000000000000000000000000000000000000 DUP2 MSTORE PUSH1 0x4 ADD PUSH1 0x40 MLOAD DUP1 SWAP2 SUB SWAP1 REVERT JUMPDEST CALLER PUSH2 0x3EA8 PUSH32 0x9016D09D72D40FDAE2FD8CEAC6B6234C7706214FD39C1CD1E609A0528C199300 SLOAD PUSH1 0x1 PUSH1 0x1 PUSH1 0xA0 SHL SUB AND SWAP1 JUMP JUMPDEST PUSH1 0x1 PUSH1 0x1 PUSH1 0xA0 SHL SUB AND EQ PUSH2 0x19BE JUMPI PUSH1 0x40 MLOAD PUSH32 0x118CDAA700000000000000000000000000000000000000000000000000000000 DUP2 MSTORE CALLER PUSH1 0x4 DUP3 ADD MSTORE PUSH1 0x24 ADD PUSH2 0xD1E JUMP JUMPDEST PUSH32 0x9016D09D72D40FDAE2FD8CEAC6B6234C7706214FD39C1CD1E609A0528C199300 DUP1 SLOAD PUSH32 0xFFFFFFFFFFFFFFFFFFFFFFFF0000000000000000000000000000000000000000 DUP2 AND PUSH1 0x1 PUSH1 0x1 PUSH1 0xA0 SHL SUB DUP5 DUP2 AND SWAP2 DUP3 OR DUP5 SSTORE PUSH1 0x40 MLOAD SWAP3 AND SWAP2 DUP3 SWAP1 PUSH32 0x8BE0079C531659141344CD1FD0A4F28419497F9722A3DAAFE3B4186F6B6457E0 SWAP1 PUSH0 SWAP1 LOG3 POP POP POP JUMP JUMPDEST PUSH0 DUP1 PUSH2 0x3F9C PUSH32 0x52C63247E1F47DB19D5CE0460030C497F067CA4CEBF71BA98EEADABE20BACE02 SLOAD SWAP1 JUMP JUMPDEST SWAP1 POP PUSH0 DUP2 GT PUSH2 0x4007 JUMPI PUSH1 0x40 MLOAD PUSH32 0x8C379A000000000000000000000000000000000000000000000000000000000 DUP2 MSTORE PUSH1 0x20 PUSH1 0x4 DUP3 ADD MSTORE PUSH1 0x1B PUSH1 0x24 DUP3 ADD MSTORE PUSH32 0x546F74616C20737570706C792063616E6E6F74206265207A65726F0000000000 PUSH1 0x44 DUP3 ADD MSTORE PUSH1 0x64 ADD PUSH2 0xD1E JUMP JUMPDEST PUSH0 PUSH2 0x4010 PUSH2 0x36E4 JUMP JUMPDEST SWAP1 POP DUP2 PUSH2 0x401D DUP3 DUP7 PUSH2 0x4DB1 JUMP JUMPDEST PUSH2 0x155D SWAP2 SWAP1 PUSH2 0x4DC8 JUMP JUMPDEST PUSH1 0x60 PUSH0 PUSH2 0x1346 DUP4 PUSH2 0x43AB JUMP JUMPDEST PUSH2 0x403B PUSH2 0x4404 JUMP JUMPDEST PUSH2 0x19DB DUP3 DUP3 PUSH2 0x446B JUMP JUMPDEST PUSH2 0x404D PUSH2 0x4404 JUMP JUMPDEST PUSH2 0xF41 DUP2 PUSH2 0x44CE JUMP JUMPDEST PUSH2 0x405E PUSH2 0x4404 JUMP JUMPDEST PUSH2 0x19BE PUSH2 0x44D6 JUMP JUMPDEST PUSH2 0x19BE PUSH2 0x4404 JUMP JUMPDEST PUSH0 PUSH2 0x1346 DUP4 PUSH1 0x1 PUSH1 0x1 PUSH1 0xA0 SHL SUB DUP5 AND PUSH2 0x44DE JUMP JUMPDEST PUSH1 0x1 PUSH1 0x1 PUSH1 0xA0 SHL SUB DUP2 AND PUSH0 SWAP1 DUP2 MSTORE PUSH1 0x1 DUP4 ADD PUSH1 0x20 MSTORE PUSH1 0x40 DUP2 KECCAK256 SLOAD ISZERO ISZERO PUSH2 0x1346 JUMP JUMPDEST PUSH32 0x52C63247E1F47DB19D5CE0460030C497F067CA4CEBF71BA98EEADABE20BACE00 PUSH1 0x1 PUSH1 0x1 PUSH1 0xA0 SHL SUB DUP6 AND PUSH2 0x4106 JUMPI PUSH1 0x40 MLOAD PUSH32 0xE602DF0500000000000000000000000000000000000000000000000000000000 DUP2 MSTORE PUSH0 PUSH1 0x4 DUP3 ADD MSTORE PUSH1 0x24 ADD PUSH2 0xD1E JUMP JUMPDEST PUSH1 0x1 PUSH1 0x1 PUSH1 0xA0 SHL SUB DUP5 AND PUSH2 0x4148 JUMPI PUSH1 0x40 MLOAD PUSH32 0x94280D6200000000000000000000000000000000000000000000000000000000 DUP2 MSTORE PUSH0 PUSH1 0x4 DUP3 ADD MSTORE PUSH1 0x24 ADD PUSH2 0xD1E JUMP JUMPDEST PUSH1 0x1 PUSH1 0x1 PUSH1 0xA0 SHL SUB DUP1 DUP7 AND PUSH0 SWAP1 DUP2 MSTORE PUSH1 0x1 DUP4 ADD PUSH1 0x20 SWAP1 DUP2 MSTORE PUSH1 0x40 DUP1 DUP4 KECCAK256 SWAP4 DUP9 AND DUP4 MSTORE SWAP3 SWAP1 MSTORE KECCAK256 DUP4 SWAP1 SSTORE DUP2 ISZERO PUSH2 0x1931 JUMPI DUP4 PUSH1 0x1 PUSH1 0x1 PUSH1 0xA0 SHL SUB AND DUP6 PUSH1 0x1 PUSH1 0x1 PUSH1 0xA0 SHL SUB AND PUSH32 0x8C5BE1E5EBEC7D5BD14F71427D1E84F3DD0314C0F7B2291E5B200AC8C7C3B925 DUP6 PUSH1 0x40 MLOAD PUSH2 0x41BC SWAP2 DUP2 MSTORE PUSH1 0x20 ADD SWAP1 JUMP JUMPDEST PUSH1 0x40 MLOAD DUP1 SWAP2 SUB SWAP1 LOG3 POP POP POP POP POP JUMP JUMPDEST PUSH32 0x52C63247E1F47DB19D5CE0460030C497F067CA4CEBF71BA98EEADABE20BACE00 PUSH1 0x1 PUSH1 0x1 PUSH1 0xA0 SHL SUB DUP5 AND PUSH2 0x4218 JUMPI DUP2 DUP2 PUSH1 0x2 ADD PUSH0 DUP3 DUP3 SLOAD PUSH2 0x420D SWAP2 SWAP1 PUSH2 0x505E JUMP JUMPDEST SWAP1 SWAP2 SSTORE POP PUSH2 0x42A1 SWAP1 POP JUMP JUMPDEST PUSH1 0x1 PUSH1 0x1 PUSH1 0xA0 SHL SUB DUP5 AND PUSH0 SWAP1 DUP2 MSTORE PUSH1 0x20 DUP3 SWAP1 MSTORE PUSH1 0x40 SWAP1 KECCAK256 SLOAD DUP3 DUP2 LT ISZERO PUSH2 0x4283 JUMPI PUSH1 0x40 MLOAD PUSH32 0xE450D38C00000000000000000000000000000000000000000000000000000000 DUP2 MSTORE PUSH1 0x1 PUSH1 0x1 PUSH1 0xA0 SHL SUB DUP7 AND PUSH1 0x4 DUP3 ADD MSTORE PUSH1 0x24 DUP2 ADD DUP3 SWAP1 MSTORE PUSH1 0x44 DUP2 ADD DUP5 SWAP1 MSTORE PUSH1 0x64 ADD PUSH2 0xD1E JUMP JUMPDEST PUSH1 0x1 PUSH1 0x1 PUSH1 0xA0 SHL SUB DUP6 AND PUSH0 SWAP1 DUP2 MSTORE PUSH1 0x20 DUP4 SWAP1 MSTORE PUSH1 0x40 SWAP1 KECCAK256 SWAP1 DUP4 SWAP1 SUB SWAP1 SSTORE JUMPDEST PUSH1 0x1 PUSH1 0x1 PUSH1 0xA0 SHL SUB DUP4 AND PUSH2 0x42BF JUMPI PUSH1 0x2 DUP2 ADD DUP1 SLOAD DUP4 SWAP1 SUB SWAP1 SSTORE PUSH2 0x42DD JUMP JUMPDEST PUSH1 0x1 PUSH1 0x1 PUSH1 0xA0 SHL SUB DUP4 AND PUSH0 SWAP1 DUP2 MSTORE PUSH1 0x20 DUP3 SWAP1 MSTORE PUSH1 0x40 SWAP1 KECCAK256 DUP1 SLOAD DUP4 ADD SWAP1 SSTORE JUMPDEST DUP3 PUSH1 0x1 PUSH1 0x1 PUSH1 0xA0 SHL SUB AND DUP5 PUSH1 0x1 PUSH1 0x1 PUSH1 0xA0 SHL SUB AND PUSH32 0xDDF252AD1BE2C89B69C2B068FC378DAA952BA7F163C4A11628F55A4DF523B3EF DUP5 PUSH1 0x40 MLOAD PUSH2 0x4322 SWAP2 DUP2 MSTORE PUSH1 0x20 ADD SWAP1 JUMP JUMPDEST PUSH1 0x40 MLOAD DUP1 SWAP2 SUB SWAP1 LOG3 POP POP POP POP JUMP JUMPDEST PUSH0 DUP3 PUSH0 ADD DUP3 DUP2 SLOAD DUP2 LT PUSH2 0x4345 JUMPI PUSH2 0x4345 PUSH2 0x4F86 JUMP JUMPDEST SWAP1 PUSH0 MSTORE PUSH1 0x20 PUSH0 KECCAK256 ADD SLOAD SWAP1 POP SWAP3 SWAP2 POP POP JUMP JUMPDEST PUSH2 0x435F DUP3 PUSH2 0x452A JUMP JUMPDEST PUSH1 0x40 MLOAD PUSH1 0x1 PUSH1 0x1 PUSH1 0xA0 SHL SUB DUP4 AND SWAP1 PUSH32 0xBC7CD75A20EE27FD9ADEBAB32041F755214DBC6BFFA90CC0225B39DA2E5C2D3B SWAP1 PUSH0 SWAP1 LOG2 DUP1 MLOAD ISZERO PUSH2 0x43A3 JUMPI PUSH2 0x365E DUP3 DUP3 PUSH2 0x45D1 JUMP JUMPDEST PUSH2 0x19DB PUSH2 0x463A JUMP JUMPDEST PUSH1 0x60 DUP2 PUSH0 ADD DUP1 SLOAD DUP1 PUSH1 0x20 MUL PUSH1 0x20 ADD PUSH1 0x40 MLOAD SWAP1 DUP2 ADD PUSH1 0x40 MSTORE DUP1 SWAP3 SWAP2 SWAP1 DUP2 DUP2 MSTORE PUSH1 0x20 ADD DUP3 DUP1 SLOAD DUP1 ISZERO PUSH2 0x43F8 JUMPI PUSH1 0x20 MUL DUP3 ADD SWAP2 SWAP1 PUSH0 MSTORE PUSH1 0x20 PUSH0 KECCAK256 SWAP1 JUMPDEST DUP2 SLOAD DUP2 MSTORE PUSH1 0x20 ADD SWAP1 PUSH1 0x1 ADD SWAP1 DUP1 DUP4 GT PUSH2 0x43E4 JUMPI JUMPDEST POP POP POP POP POP SWAP1 POP SWAP2 SWAP1 POP JUMP JUMPDEST PUSH32 0xF0C57E16840DF040F15088DC2F81FE391C3923BEC73E23A9662EFC9C229C6A00 SLOAD PUSH9 0x10000000000000000 SWAP1 DIV PUSH1 0xFF AND PUSH2 0x19BE JUMPI PUSH1 0x40 MLOAD PUSH32 0xD7E6BCF800000000000000000000000000000000000000000000000000000000 DUP2 MSTORE PUSH1 0x4 ADD PUSH1 0x40 MLOAD DUP1 SWAP2 SUB SWAP1 REVERT JUMPDEST PUSH2 0x4473 PUSH2 0x4404 JUMP JUMPDEST PUSH32 0x52C63247E1F47DB19D5CE0460030C497F067CA4CEBF71BA98EEADABE20BACE00 PUSH32 0x52C63247E1F47DB19D5CE0460030C497F067CA4CEBF71BA98EEADABE20BACE03 PUSH2 0x44BF DUP5 DUP3 PUSH2 0x51DE JUMP JUMPDEST POP PUSH1 0x4 DUP2 ADD PUSH2 0x3BA6 DUP4 DUP3 PUSH2 0x51DE JUMP JUMPDEST PUSH2 0x2D13 PUSH2 0x4404 JUMP JUMPDEST PUSH2 0x3804 PUSH2 0x4404 JUMP JUMPDEST PUSH0 DUP2 DUP2 MSTORE PUSH1 0x1 DUP4 ADD PUSH1 0x20 MSTORE PUSH1 0x40 DUP2 KECCAK256 SLOAD PUSH2 0x4523 JUMPI POP DUP2 SLOAD PUSH1 0x1 DUP2 DUP2 ADD DUP5 SSTORE PUSH0 DUP5 DUP2 MSTORE PUSH1 0x20 DUP1 DUP3 KECCAK256 SWAP1 SWAP4 ADD DUP5 SWAP1 SSTORE DUP5 SLOAD DUP5 DUP3 MSTORE DUP3 DUP7 ADD SWAP1 SWAP4 MSTORE PUSH1 0x40 SWAP1 KECCAK256 SWAP2 SWAP1 SWAP2 SSTORE PUSH2 0x891 JUMP JUMPDEST POP PUSH0 PUSH2 0x891 JUMP JUMPDEST DUP1 PUSH1 0x1 PUSH1 0x1 PUSH1 0xA0 SHL SUB AND EXTCODESIZE PUSH0 SUB PUSH2 0x4578 JUMPI PUSH1 0x40 MLOAD PUSH32 0x4C9C8CE300000000000000000000000000000000000000000000000000000000 DUP2 MSTORE PUSH1 0x1 PUSH1 0x1 PUSH1 0xA0 SHL SUB DUP3 AND PUSH1 0x4 DUP3 ADD MSTORE PUSH1 0x24 ADD PUSH2 0xD1E JUMP JUMPDEST PUSH32 0x360894A13BA1A3210667C828492DB98DCA3E2076CC3735A920A3CA505D382BBC DUP1 SLOAD PUSH32 0xFFFFFFFFFFFFFFFFFFFFFFFF0000000000000000000000000000000000000000 AND PUSH1 0x1 PUSH1 0x1 PUSH1 0xA0 SHL SUB SWAP3 SWAP1 SWAP3 AND SWAP2 SWAP1 SWAP2 OR SWAP1 SSTORE JUMP JUMPDEST PUSH1 0x60 PUSH0 DUP1 DUP5 PUSH1 0x1 PUSH1 0x1 PUSH1 0xA0 SHL SUB AND DUP5 PUSH1 0x40 MLOAD PUSH2 0x45ED SWAP2 SWAP1 PUSH2 0x52D8 JUMP JUMPDEST PUSH0 PUSH1 0x40 MLOAD DUP1 DUP4 SUB DUP2 DUP6 GAS DELEGATECALL SWAP2 POP POP RETURNDATASIZE DUP1 PUSH0 DUP2 EQ PUSH2 0x4625 JUMPI PUSH1 0x40 MLOAD SWAP2 POP PUSH1 0x1F NOT PUSH1 0x3F RETURNDATASIZE ADD AND DUP3 ADD PUSH1 0x40 MSTORE RETURNDATASIZE DUP3 MSTORE RETURNDATASIZE PUSH0 PUSH1 0x20 DUP5 ADD RETURNDATACOPY PUSH2 0x462A JUMP JUMPDEST PUSH1 0x60 SWAP2 POP JUMPDEST POP SWAP2 POP SWAP2 POP PUSH2 0x1DD5 DUP6 DUP4 DUP4 PUSH2 0x4672 JUMP JUMPDEST CALLVALUE ISZERO PUSH2 0x19BE JUMPI PUSH1 0x40 MLOAD PUSH32 0xB398979F00000000000000000000000000000000000000000000000000000000 DUP2 MSTORE PUSH1 0x4 ADD PUSH1 0x40 MLOAD DUP1 SWAP2 SUB SWAP1 REVERT JUMPDEST PUSH1 0x60 DUP3 PUSH2 0x4687 JUMPI PUSH2 0x4682 DUP3 PUSH2 0x46E7 JUMP JUMPDEST PUSH2 0x1346 JUMP JUMPDEST DUP2 MLOAD ISZERO DUP1 ISZERO PUSH2 0x469E JUMPI POP PUSH1 0x1 PUSH1 0x1 PUSH1 0xA0 SHL SUB DUP5 AND EXTCODESIZE ISZERO JUMPDEST ISZERO PUSH2 0x46E0 JUMPI PUSH1 0x40 MLOAD PUSH32 0x9996B31500000000000000000000000000000000000000000000000000000000 DUP2 MSTORE PUSH1 0x1 PUSH1 0x1 PUSH1 0xA0 SHL SUB DUP6 AND PUSH1 0x4 DUP3 ADD MSTORE PUSH1 0x24 ADD PUSH2 0xD1E JUMP JUMPDEST POP DUP1 PUSH2 0x1346 JUMP JUMPDEST DUP1 MLOAD ISZERO PUSH2 0x46F7 JUMPI DUP1 MLOAD DUP1 DUP3 PUSH1 0x20 ADD REVERT JUMPDEST PUSH1 0x40 MLOAD PUSH32 0x1425EA4200000000000000000000000000000000000000000000000000000000 DUP2 MSTORE PUSH1 0x4 ADD PUSH1 0x40 MLOAD DUP1 SWAP2 SUB SWAP1 REVERT JUMPDEST PUSH0 DUP2 MLOAD DUP1 DUP5 MSTORE DUP1 PUSH1 0x20 DUP5 ADD PUSH1 0x20 DUP7 ADD MCOPY PUSH0 PUSH1 0x20 DUP3 DUP7 ADD ADD MSTORE PUSH1 0x20 PUSH1 0x1F NOT PUSH1 0x1F DUP4 ADD AND DUP6 ADD ADD SWAP2 POP POP SWAP3 SWAP2 POP POP JUMP JUMPDEST PUSH1 0x20 DUP2 MSTORE PUSH0 PUSH2 0x1346 PUSH1 0x20 DUP4 ADD DUP5 PUSH2 0x4729 JUMP JUMPDEST PUSH1 0x1 PUSH1 0x1 PUSH1 0xA0 SHL SUB DUP2 AND DUP2 EQ PUSH2 0xF41 JUMPI PUSH0 DUP1 REVERT JUMPDEST PUSH0 DUP1 PUSH1 0x40 DUP4 DUP6 SUB SLT ISZERO PUSH2 0x478E JUMPI PUSH0 DUP1 REVERT JUMPDEST DUP3 CALLDATALOAD PUSH2 0x4799 DUP2 PUSH2 0x4769 JUMP JUMPDEST SWAP5 PUSH1 0x20 SWAP4 SWAP1 SWAP4 ADD CALLDATALOAD SWAP4 POP POP POP JUMP JUMPDEST PUSH0 PUSH1 0x20 DUP3 DUP5 SUB SLT ISZERO PUSH2 0x47B7 JUMPI PUSH0 DUP1 REVERT JUMPDEST POP CALLDATALOAD SWAP2 SWAP1 POP JUMP JUMPDEST PUSH0 DUP1 PUSH0 PUSH1 0x60 DUP5 DUP7 SUB SLT ISZERO PUSH2 0x47D0 JUMPI PUSH0 DUP1 REVERT JUMPDEST DUP4 CALLDATALOAD PUSH2 0x47DB DUP2 PUSH2 0x4769 JUMP JUMPDEST SWAP3 POP PUSH1 0x20 DUP5 ADD CALLDATALOAD PUSH2 0x47EB DUP2 PUSH2 0x4769 JUMP JUMPDEST SWAP3 SWAP6 SWAP3 SWAP5 POP POP POP PUSH1 0x40 SWAP2 SWAP1 SWAP2 ADD CALLDATALOAD SWAP1 JUMP JUMPDEST PUSH0 PUSH1 0x20 DUP3 DUP5 SUB SLT ISZERO PUSH2 0x480C JUMPI PUSH0 DUP1 REVERT JUMPDEST DUP2 CALLDATALOAD PUSH2 0x1346 DUP2 PUSH2 0x4769 JUMP JUMPDEST PUSH0 DUP1 PUSH1 0x40 DUP4 DUP6 SUB SLT ISZERO PUSH2 0x4828 JUMPI PUSH0 DUP1 REVERT JUMPDEST DUP3 CALLDATALOAD SWAP2 POP PUSH1 0x20 DUP4 ADD CALLDATALOAD PUSH2 0x483A DUP2 PUSH2 0x4769 JUMP JUMPDEST DUP1 SWAP2 POP POP SWAP3 POP SWAP3 SWAP1 POP JUMP JUMPDEST PUSH32 0x4E487B7100000000000000000000000000000000000000000000000000000000 PUSH0 MSTORE PUSH1 0x41 PUSH1 0x4 MSTORE PUSH1 0x24 PUSH0 REVERT JUMPDEST PUSH1 0x40 MLOAD PUSH1 0x60 DUP2 ADD PUSH8 0xFFFFFFFFFFFFFFFF DUP2 GT DUP3 DUP3 LT OR ISZERO PUSH2 0x4895 JUMPI PUSH2 0x4895 PUSH2 0x4845 JUMP JUMPDEST PUSH1 0x40 MSTORE SWAP1 JUMP JUMPDEST PUSH1 0x40 MLOAD PUSH1 0x1F DUP3 ADD PUSH1 0x1F NOT AND DUP2 ADD PUSH8 0xFFFFFFFFFFFFFFFF DUP2 GT DUP3 DUP3 LT OR ISZERO PUSH2 0x48C4 JUMPI PUSH2 0x48C4 PUSH2 0x4845 JUMP JUMPDEST PUSH1 0x40 MSTORE SWAP2 SWAP1 POP JUMP JUMPDEST PUSH0 DUP3 PUSH1 0x1F DUP4 ADD SLT PUSH2 0x48DB JUMPI PUSH0 DUP1 REVERT JUMPDEST DUP2 CALLDATALOAD PUSH8 0xFFFFFFFFFFFFFFFF DUP2 GT ISZERO PUSH2 0x48F5 JUMPI PUSH2 0x48F5 PUSH2 0x4845 JUMP JUMPDEST PUSH2 0x4908 PUSH1 0x20 PUSH1 0x1F NOT PUSH1 0x1F DUP5 ADD AND ADD PUSH2 0x489B JUMP JUMPDEST DUP2 DUP2 MSTORE DUP5 PUSH1 0x20 DUP4 DUP7 ADD ADD GT ISZERO PUSH2 0x491C JUMPI PUSH0 DUP1 REVERT JUMPDEST DUP2 PUSH1 0x20 DUP6 ADD PUSH1 0x20 DUP4 ADD CALLDATACOPY PUSH0 SWAP2 DUP2 ADD PUSH1 0x20 ADD SWAP2 SWAP1 SWAP2 MSTORE SWAP4 SWAP3 POP POP POP JUMP JUMPDEST PUSH0 DUP1 PUSH1 0x40 DUP4 DUP6 SUB SLT ISZERO PUSH2 0x4949 JUMPI PUSH0 DUP1 REVERT JUMPDEST DUP3 CALLDATALOAD PUSH2 0x4954 DUP2 PUSH2 0x4769 JUMP JUMPDEST SWAP2 POP PUSH1 0x20 DUP4 ADD CALLDATALOAD PUSH8 0xFFFFFFFFFFFFFFFF DUP2 GT ISZERO PUSH2 0x496F JUMPI PUSH0 DUP1 REVERT JUMPDEST PUSH2 0x497B DUP6 DUP3 DUP7 ADD PUSH2 0x48CC JUMP JUMPDEST SWAP2 POP POP SWAP3 POP SWAP3 SWAP1 POP JUMP JUMPDEST PUSH0 DUP1 DUP4 PUSH1 0x1F DUP5 ADD SLT PUSH2 0x4995 JUMPI PUSH0 DUP1 REVERT JUMPDEST POP DUP2 CALLDATALOAD PUSH8 0xFFFFFFFFFFFFFFFF DUP2 GT ISZERO PUSH2 0x49AC JUMPI PUSH0 DUP1 REVERT JUMPDEST PUSH1 0x20 DUP4 ADD SWAP2 POP DUP4 PUSH1 0x20 DUP3 PUSH1 0x5 SHL DUP6 ADD ADD GT ISZERO PUSH2 0x49C6 JUMPI PUSH0 DUP1 REVERT JUMPDEST SWAP3 POP SWAP3 SWAP1 POP JUMP JUMPDEST PUSH0 DUP1 PUSH0 DUP1 PUSH0 DUP1 PUSH0 DUP1 PUSH1 0xC0 DUP10 DUP12 SUB SLT ISZERO PUSH2 0x49E4 JUMPI PUSH0 DUP1 REVERT JUMPDEST DUP9 CALLDATALOAD PUSH8 0xFFFFFFFFFFFFFFFF DUP1 DUP3 GT ISZERO PUSH2 0x49FB JUMPI PUSH0 DUP1 REVERT JUMPDEST PUSH2 0x4A07 DUP13 DUP4 DUP14 ADD PUSH2 0x4985 JUMP JUMPDEST SWAP1 SWAP11 POP SWAP9 POP PUSH1 0x20 DUP12 ADD CALLDATALOAD SWAP2 POP DUP1 DUP3 GT ISZERO PUSH2 0x4A1F JUMPI PUSH0 DUP1 REVERT JUMPDEST POP PUSH2 0x4A2C DUP12 DUP3 DUP13 ADD PUSH2 0x4985 JUMP JUMPDEST SWAP1 SWAP8 POP SWAP6 POP POP PUSH1 0x40 DUP10 ADD CALLDATALOAD PUSH2 0x4A40 DUP2 PUSH2 0x4769 JUMP JUMPDEST SWAP4 POP PUSH1 0x60 DUP10 ADD CALLDATALOAD PUSH2 0x4A50 DUP2 PUSH2 0x4769 JUMP JUMPDEST SWAP3 POP PUSH1 0x80 DUP10 ADD CALLDATALOAD SWAP2 POP PUSH1 0xA0 DUP10 ADD CALLDATALOAD PUSH2 0x4A67 DUP2 PUSH2 0x4769 JUMP JUMPDEST DUP1 SWAP2 POP POP SWAP3 SWAP6 SWAP9 POP SWAP3 SWAP6 SWAP9 SWAP1 SWAP4 SWAP7 POP JUMP JUMPDEST PUSH0 DUP1 PUSH1 0x40 DUP4 DUP6 SUB SLT ISZERO PUSH2 0x4A89 JUMPI PUSH0 DUP1 REVERT JUMPDEST DUP3 CALLDATALOAD PUSH2 0x4A94 DUP2 PUSH2 0x4769 JUMP JUMPDEST SWAP2 POP PUSH1 0x20 DUP4 ADD CALLDATALOAD PUSH8 0xFFFFFFFFFFFFFFFF DUP2 AND DUP2 EQ PUSH2 0x483A JUMPI PUSH0 DUP1 REVERT JUMPDEST PUSH0 DUP2 MLOAD DUP1 DUP5 MSTORE PUSH1 0x20 DUP1 DUP6 ADD SWAP5 POP PUSH1 0x20 DUP5 ADD PUSH0 JUMPDEST DUP4 DUP2 LT ISZERO PUSH2 0x4AE8 JUMPI DUP2 MLOAD PUSH1 0x1 PUSH1 0x1 PUSH1 0xA0 SHL SUB AND DUP8 MSTORE SWAP6 DUP3 ADD SWAP6 SWAP1 DUP3 ADD SWAP1 PUSH1 0x1 ADD PUSH2 0x4AC3 JUMP JUMPDEST POP SWAP5 SWAP6 SWAP5 POP POP POP POP POP JUMP JUMPDEST PUSH1 0x20 DUP2 MSTORE PUSH0 PUSH2 0x1346 PUSH1 0x20 DUP4 ADD DUP5 PUSH2 0x4AB0 JUMP JUMPDEST PUSH0 DUP1 PUSH1 0x40 DUP4 DUP6 SUB SLT ISZERO PUSH2 0x4B16 JUMPI PUSH0 DUP1 REVERT JUMPDEST DUP3 CALLDATALOAD PUSH2 0x4B21 DUP2 PUSH2 0x4769 JUMP JUMPDEST SWAP2 POP PUSH1 0x20 DUP4 ADD CALLDATALOAD PUSH2 0x483A DUP2 PUSH2 0x4769 JUMP JUMPDEST PUSH0 PUSH8 0xFFFFFFFFFFFFFFFF DUP3 GT ISZERO PUSH2 0x4B4A JUMPI PUSH2 0x4B4A PUSH2 0x4845 JUMP JUMPDEST POP PUSH1 0x5 SHL PUSH1 0x20 ADD SWAP1 JUMP JUMPDEST PUSH0 DUP3 PUSH1 0x1F DUP4 ADD SLT PUSH2 0x4B63 JUMPI PUSH0 DUP1 REVERT JUMPDEST DUP2 CALLDATALOAD PUSH1 0x20 PUSH2 0x4B78 PUSH2 0x4B73 DUP4 PUSH2 0x4B31 JUMP JUMPDEST PUSH2 0x489B JUMP JUMPDEST DUP1 DUP4 DUP3 MSTORE PUSH1 0x20 DUP3 ADD SWAP2 POP PUSH1 0x20 DUP5 PUSH1 0x5 SHL DUP8 ADD ADD SWAP4 POP DUP7 DUP5 GT ISZERO PUSH2 0x4B99 JUMPI PUSH0 DUP1 REVERT JUMPDEST PUSH1 0x20 DUP7 ADD JUMPDEST DUP5 DUP2 LT ISZERO PUSH2 0x4BBE JUMPI DUP1 CALLDATALOAD PUSH2 0x4BB1 DUP2 PUSH2 0x4769 JUMP JUMPDEST DUP4 MSTORE SWAP2 DUP4 ADD SWAP2 DUP4 ADD PUSH2 0x4B9E JUMP JUMPDEST POP SWAP7 SWAP6 POP POP POP POP POP POP JUMP JUMPDEST PUSH0 DUP1 PUSH1 0x40 DUP4 DUP6 SUB SLT ISZERO PUSH2 0x4BDA JUMPI PUSH0 DUP1 REVERT JUMPDEST DUP3 CALLDATALOAD PUSH8 0xFFFFFFFFFFFFFFFF DUP1 DUP3 GT ISZERO PUSH2 0x4BF1 JUMPI PUSH0 DUP1 REVERT JUMPDEST DUP2 DUP6 ADD SWAP2 POP DUP6 PUSH1 0x1F DUP4 ADD SLT PUSH2 0x4C04 JUMPI PUSH0 DUP1 REVERT JUMPDEST DUP2 CALLDATALOAD PUSH1 0x20 PUSH2 0x4C14 PUSH2 0x4B73 DUP4 PUSH2 0x4B31 JUMP JUMPDEST DUP3 DUP2 MSTORE PUSH1 0x5 SWAP3 SWAP1 SWAP3 SHL DUP5 ADD DUP2 ADD SWAP2 DUP2 DUP2 ADD SWAP1 DUP10 DUP5 GT ISZERO PUSH2 0x4C32 JUMPI PUSH0 DUP1 REVERT JUMPDEST DUP3 DUP7 ADD JUMPDEST DUP5 DUP2 LT ISZERO PUSH2 0x4CB5 JUMPI DUP1 CALLDATALOAD DUP7 DUP2 GT ISZERO PUSH2 0x4C4C JUMPI PUSH0 DUP1 REVERT JUMPDEST DUP8 ADD PUSH1 0x60 DUP2 DUP14 SUB PUSH1 0x1F NOT ADD DUP2 SGT ISZERO PUSH2 0x4C62 JUMPI PUSH0 DUP1 REVERT JUMPDEST PUSH2 0x4C6A PUSH2 0x4872 JUMP JUMPDEST DUP7 DUP4 ADD CALLDATALOAD PUSH2 0x4C77 DUP2 PUSH2 0x4769 JUMP JUMPDEST DUP2 MSTORE PUSH1 0x40 DUP4 ADD CALLDATALOAD DUP8 DUP3 ADD MSTORE SWAP1 DUP3 ADD CALLDATALOAD SWAP1 DUP9 DUP3 GT ISZERO PUSH2 0x4C93 JUMPI PUSH0 DUP1 REVERT JUMPDEST PUSH2 0x4CA1 DUP15 DUP9 DUP5 DUP7 ADD ADD PUSH2 0x48CC JUMP JUMPDEST PUSH1 0x40 DUP3 ADD MSTORE DUP6 MSTORE POP POP SWAP2 DUP4 ADD SWAP2 DUP4 ADD PUSH2 0x4C36 JUMP JUMPDEST POP SWAP7 POP POP DUP7 ADD CALLDATALOAD SWAP3 POP POP DUP1 DUP3 GT ISZERO PUSH2 0x4CCB JUMPI PUSH0 DUP1 REVERT JUMPDEST POP PUSH2 0x497B DUP6 DUP3 DUP7 ADD PUSH2 0x4B54 JUMP JUMPDEST PUSH0 DUP1 PUSH0 DUP1 PUSH1 0x80 DUP6 DUP8 SUB SLT ISZERO PUSH2 0x4CEB JUMPI PUSH0 DUP1 REVERT JUMPDEST POP POP DUP3 CALLDATALOAD SWAP5 PUSH1 0x20 DUP5 ADD CALLDATALOAD SWAP5 POP PUSH1 0x40 DUP5 ADD CALLDATALOAD SWAP4 PUSH1 0x60 ADD CALLDATALOAD SWAP3 POP SWAP1 POP JUMP JUMPDEST PUSH1 0x1 DUP2 DUP2 SHR SWAP1 DUP3 AND DUP1 PUSH2 0x4D1B JUMPI PUSH1 0x7F DUP3 AND SWAP2 POP JUMPDEST PUSH1 0x20 DUP3 LT DUP2 SUB PUSH2 0x37B1 JUMPI PUSH32 0x4E487B7100000000000000000000000000000000000000000000000000000000 PUSH0 MSTORE PUSH1 0x22 PUSH1 0x4 MSTORE PUSH1 0x24 PUSH0 REVERT JUMPDEST PUSH0 PUSH1 0x20 DUP3 DUP5 SUB SLT ISZERO PUSH2 0x4D62 JUMPI PUSH0 DUP1 REVERT JUMPDEST DUP2 MLOAD PUSH2 0x1346 DUP2 PUSH2 0x4769 JUMP JUMPDEST PUSH0 PUSH1 0x20 DUP3 DUP5 SUB SLT ISZERO PUSH2 0x4D7D JUMPI PUSH0 DUP1 REVERT JUMPDEST POP MLOAD SWAP2 SWAP1 POP JUMP JUMPDEST PUSH32 0x4E487B7100000000000000000000000000000000000000000000000000000000 PUSH0 MSTORE PUSH1 0x11 PUSH1 0x4 MSTORE PUSH1 0x24 PUSH0 REVERT JUMPDEST DUP1 DUP3 MUL DUP2 ISZERO DUP3 DUP3 DIV DUP5 EQ OR PUSH2 0x891 JUMPI PUSH2 0x891 PUSH2 0x4D84 JUMP JUMPDEST PUSH0 DUP3 PUSH2 0x4DFB JUMPI PUSH32 0x4E487B7100000000000000000000000000000000000000000000000000000000 PUSH0 MSTORE PUSH1 0x12 PUSH1 0x4 MSTORE PUSH1 0x24 PUSH0 REVERT JUMPDEST POP DIV SWAP1 JUMP JUMPDEST PUSH0 PUSH1 0x20 DUP3 DUP5 SUB SLT ISZERO PUSH2 0x4E10 JUMPI PUSH0 DUP1 REVERT JUMPDEST DUP2 MLOAD DUP1 ISZERO ISZERO DUP2 EQ PUSH2 0x1346 JUMPI PUSH0 DUP1 REVERT JUMPDEST PUSH0 PUSH1 0x20 DUP3 DUP5 SUB SLT ISZERO PUSH2 0x4E2F JUMPI PUSH0 DUP1 REVERT JUMPDEST DUP2 MLOAD PUSH1 0xFF DUP2 AND DUP2 EQ PUSH2 0x1346 JUMPI PUSH0 DUP1 REVERT JUMPDEST DUP2 DUP2 SUB DUP2 DUP2 GT ISZERO PUSH2 0x891 JUMPI PUSH2 0x891 PUSH2 0x4D84 JUMP JUMPDEST DUP2 DUP4 MSTORE PUSH0 PUSH1 0x20 DUP1 DUP6 ADD SWAP5 POP DUP3 PUSH0 JUMPDEST DUP6 DUP2 LT ISZERO PUSH2 0x4AE8 JUMPI DUP2 CALLDATALOAD PUSH2 0x4E73 DUP2 PUSH2 0x4769 JUMP JUMPDEST PUSH1 0x1 PUSH1 0x1 PUSH1 0xA0 SHL SUB AND DUP8 MSTORE SWAP6 DUP3 ADD SWAP6 SWAP1 DUP3 ADD SWAP1 PUSH1 0x1 ADD PUSH2 0x4E60 JUMP JUMPDEST DUP2 DUP4 MSTORE PUSH0 PUSH32 0x7FFFFFFFFFFFFFFFFFFFFFFFFFFFFFFFFFFFFFFFFFFFFFFFFFFFFFFFFFFFFFF DUP4 GT ISZERO PUSH2 0x4EBE JUMPI PUSH0 DUP1 REVERT JUMPDEST DUP3 PUSH1 0x5 SHL DUP1 DUP4 PUSH1 0x20 DUP8 ADD CALLDATACOPY SWAP4 SWAP1 SWAP4 ADD PUSH1 0x20 ADD SWAP4 SWAP3 POP POP POP JUMP JUMPDEST PUSH1 0xE0 DUP1 DUP3 MSTORE DUP11 MLOAD SWAP1 DUP3 ADD DUP2 SWAP1 MSTORE PUSH0 SWAP1 PUSH1 0x20 SWAP1 PUSH2 0x100 DUP5 ADD SWAP1 DUP3 DUP15 ADD DUP5 JUMPDEST DUP3 DUP2 LT ISZERO PUSH2 0x4F10 JUMPI DUP2 MLOAD DUP5 MSTORE SWAP3 DUP5 ADD SWAP3 SWAP1 DUP5 ADD SWAP1 PUSH1 0x1 ADD PUSH2 0x4EF4 JUMP JUMPDEST POP POP POP DUP4 DUP2 SUB PUSH1 0x20 DUP6 ADD MSTORE PUSH2 0x4F26 DUP2 DUP13 DUP15 PUSH2 0x4E52 JUMP JUMPDEST SWAP2 POP POP DUP3 DUP2 SUB PUSH1 0x40 DUP5 ADD MSTORE PUSH2 0x4F3C DUP2 DUP10 DUP12 PUSH2 0x4E8E JUMP JUMPDEST SWAP2 POP POP DUP6 PUSH1 0x60 DUP4 ADD MSTORE PUSH2 0x4F5A PUSH1 0x80 DUP4 ADD DUP7 PUSH1 0x1 PUSH1 0x1 PUSH1 0xA0 SHL SUB AND SWAP1 MSTORE JUMP JUMPDEST PUSH1 0x1 PUSH1 0x1 PUSH1 0xA0 SHL SUB DUP5 AND PUSH1 0xA0 DUP4 ADD MSTORE PUSH1 0x1 PUSH1 0x1 PUSH1 0xA0 SHL SUB DUP4 AND PUSH1 0xC0 DUP4 ADD MSTORE SWAP11 SWAP10 POP POP POP POP POP POP POP POP POP POP JUMP JUMPDEST PUSH32 0x4E487B7100000000000000000000000000000000000000000000000000000000 PUSH0 MSTORE PUSH1 0x32 PUSH1 0x4 MSTORE PUSH1 0x24 PUSH0 REVERT JUMPDEST PUSH0 PUSH1 0x40 DUP1 DUP4 ADD PUSH1 0x40 DUP5 MSTORE DUP1 DUP7 MLOAD DUP1 DUP4 MSTORE PUSH1 0x60 SWAP3 POP PUSH1 0x60 DUP7 ADD SWAP2 POP PUSH1 0x60 DUP2 PUSH1 0x5 SHL DUP8 ADD ADD PUSH1 0x20 DUP1 DUP11 ADD PUSH0 JUMPDEST DUP5 DUP2 LT ISZERO PUSH2 0x504B JUMPI DUP10 DUP5 SUB PUSH32 0xFFFFFFFFFFFFFFFFFFFFFFFFFFFFFFFFFFFFFFFFFFFFFFFFFFFFFFFFFFFFFFA0 ADD DUP7 MSTORE DUP2 MLOAD DUP1 MLOAD PUSH1 0x1 PUSH1 0x1 PUSH1 0xA0 SHL SUB AND DUP6 MSTORE DUP4 DUP2 ADD MLOAD DUP5 DUP7 ADD MSTORE DUP9 ADD MLOAD DUP9 DUP6 ADD DUP9 SWAP1 MSTORE PUSH2 0x5038 DUP9 DUP7 ADD DUP3 PUSH2 0x4729 JUMP JUMPDEST SWAP7 DUP5 ADD SWAP7 SWAP5 POP POP SWAP1 DUP3 ADD SWAP1 PUSH1 0x1 ADD PUSH2 0x4FDD JUMP JUMPDEST POP POP DUP8 DUP3 SUB SWAP1 DUP9 ADD MSTORE PUSH2 0x3A80 DUP2 DUP10 PUSH2 0x4AB0 JUMP JUMPDEST DUP1 DUP3 ADD DUP1 DUP3 GT ISZERO PUSH2 0x891 JUMPI PUSH2 0x891 PUSH2 0x4D84 JUMP JUMPDEST PUSH1 0x1 DUP2 DUP2 JUMPDEST DUP1 DUP6 GT ISZERO PUSH2 0x50CA JUMPI DUP2 PUSH32 0xFFFFFFFFFFFFFFFFFFFFFFFFFFFFFFFFFFFFFFFFFFFFFFFFFFFFFFFFFFFFFFFF DIV DUP3 GT ISZERO PUSH2 0x50B0 JUMPI PUSH2 0x50B0 PUSH2 0x4D84 JUMP JUMPDEST DUP1 DUP6 AND ISZERO PUSH2 0x50BD JUMPI SWAP2 DUP2 MUL SWAP2 JUMPDEST SWAP4 DUP5 SHR SWAP4 SWAP1 DUP1 MUL SWAP1 PUSH2 0x5076 JUMP JUMPDEST POP SWAP3 POP SWAP3 SWAP1 POP JUMP JUMPDEST PUSH0 DUP3 PUSH2 0x50E0 JUMPI POP PUSH1 0x1 PUSH2 0x891 JUMP JUMPDEST DUP2 PUSH2 0x50EC JUMPI POP PUSH0 PUSH2 0x891 JUMP JUMPDEST DUP2 PUSH1 0x1 DUP2 EQ PUSH2 0x5102 JUMPI PUSH1 0x2 DUP2 EQ PUSH2 0x510C JUMPI PUSH2 0x5128 JUMP JUMPDEST PUSH1 0x1 SWAP2 POP POP PUSH2 0x891 JUMP JUMPDEST PUSH1 0xFF DUP5 GT ISZERO PUSH2 0x511D JUMPI PUSH2 0x511D PUSH2 0x4D84 JUMP JUMPDEST POP POP PUSH1 0x1 DUP3 SHL PUSH2 0x891 JUMP JUMPDEST POP PUSH1 0x20 DUP4 LT PUSH2 0x133 DUP4 LT AND PUSH1 0x4E DUP5 LT PUSH1 0xB DUP5 LT AND OR ISZERO PUSH2 0x514B JUMPI POP DUP2 DUP2 EXP PUSH2 0x891 JUMP JUMPDEST PUSH2 0x5155 DUP4 DUP4 PUSH2 0x5071 JUMP JUMPDEST DUP1 PUSH32 0xFFFFFFFFFFFFFFFFFFFFFFFFFFFFFFFFFFFFFFFFFFFFFFFFFFFFFFFFFFFFFFFF DIV DUP3 GT ISZERO PUSH2 0x5187 JUMPI PUSH2 0x5187 PUSH2 0x4D84 JUMP JUMPDEST MUL SWAP4 SWAP3 POP POP POP JUMP JUMPDEST PUSH0 PUSH2 0x1346 DUP4 DUP4 PUSH2 0x50D2 JUMP JUMPDEST PUSH1 0x1F DUP3 GT ISZERO PUSH2 0x365E JUMPI DUP1 PUSH0 MSTORE PUSH1 0x20 PUSH0 KECCAK256 PUSH1 0x1F DUP5 ADD PUSH1 0x5 SHR DUP2 ADD PUSH1 0x20 DUP6 LT ISZERO PUSH2 0x51BF JUMPI POP DUP1 JUMPDEST PUSH1 0x1F DUP5 ADD PUSH1 0x5 SHR DUP3 ADD SWAP2 POP JUMPDEST DUP2 DUP2 LT ISZERO PUSH2 0x1931 JUMPI PUSH0 DUP2 SSTORE PUSH1 0x1 ADD PUSH2 0x51CB JUMP JUMPDEST DUP2 MLOAD PUSH8 0xFFFFFFFFFFFFFFFF DUP2 GT ISZERO PUSH2 0x51F8 JUMPI PUSH2 0x51F8 PUSH2 0x4845 JUMP JUMPDEST PUSH2 0x520C DUP2 PUSH2 0x5206 DUP5 SLOAD PUSH2 0x4D07 JUMP JUMPDEST DUP5 PUSH2 0x519A JUMP JUMPDEST PUSH1 0x20 DUP1 PUSH1 0x1F DUP4 GT PUSH1 0x1 DUP2 EQ PUSH2 0x525E JUMPI PUSH0 DUP5 ISZERO PUSH2 0x5228 JUMPI POP DUP6 DUP4 ADD MLOAD JUMPDEST PUSH32 0xFFFFFFFFFFFFFFFFFFFFFFFFFFFFFFFFFFFFFFFFFFFFFFFFFFFFFFFFFFFFFFFF PUSH1 0x3 DUP7 SWAP1 SHL SHR NOT AND PUSH1 0x1 DUP6 SWAP1 SHL OR DUP6 SSTORE PUSH2 0x1929 JUMP JUMPDEST PUSH0 DUP6 DUP2 MSTORE PUSH1 0x20 DUP2 KECCAK256 PUSH1 0x1F NOT DUP7 AND SWAP2 JUMPDEST DUP3 DUP2 LT ISZERO PUSH2 0x528C JUMPI DUP9 DUP7 ADD MLOAD DUP3 SSTORE SWAP5 DUP5 ADD SWAP5 PUSH1 0x1 SWAP1 SWAP2 ADD SWAP1 DUP5 ADD PUSH2 0x526D JUMP JUMPDEST POP DUP6 DUP3 LT ISZERO PUSH2 0x52C8 JUMPI DUP8 DUP6 ADD MLOAD PUSH32 0xFFFFFFFFFFFFFFFFFFFFFFFFFFFFFFFFFFFFFFFFFFFFFFFFFFFFFFFFFFFFFFFF PUSH1 0x3 DUP9 SWAP1 SHL PUSH1 0xF8 AND SHR NOT AND DUP2 SSTORE JUMPDEST POP POP POP POP POP PUSH1 0x1 SWAP1 DUP2 SHL ADD SWAP1 SSTORE POP JUMP JUMPDEST PUSH0 DUP3 MLOAD DUP1 PUSH1 0x20 DUP6 ADD DUP5 MCOPY PUSH0 SWAP3 ADD SWAP2 DUP3 MSTORE POP SWAP2 SWAP1 POP JUMP INVALID LOG2 PUSH5 0x6970667358 0x22 SLT KECCAK256 0xBD PUSH27 0x500E9D6050DA78452AAEE67D7D29A6DD8D4BC6E81C7AD0936EFD24 0xAA 0xD0 0xED PUSH5 0x736F6C6343 STOP ADDMOD NOT STOP CALLER "},"gasEstimates":{"creation":{"codeDepositCost":"4256800","executionCost":"infinite","totalCost":"infinite"},"external":{"UPGRADE_INTERFACE_VERSION()":"infinite","addToken(address)":"infinite","allowance(address,address)":"infinite","approve(address,uint256)":"24786","balanceOf(address)":"2617","baseAsset()":"2426","burnERC20(uint256)":"infinite","burnUSDC(uint256)":"infinite","calculateTokenShare(uint256,uint256,uint256,uint256)":"infinite","callRebalance(address[],uint256[],address,address,uint256,address)":"infinite","decimals()":"266","execute((address,uint256,bytes)[],address[])":"infinite","getAgentAddress(address)":"infinite","getTokens()":"infinite","getUSDCShareValue(uint256)":"infinite","getVersion()":"2456","initialize(address)":"infinite","liquidate(address)":"infinite","liquidateAll()":"infinite","mintWithUSDC(uint256)":"infinite","name()":"infinite","owner()":"2420","proxiableUUID()":"infinite","registry()":"2404","reinitialize(address,uint64)":"78516","renounceOwnership()":"infinite","requiredUSDCtoMint(uint256)":"infinite","resetContract(address)":"26856","symbol()":"infinite","tokenValuation(uint256,address)":"infinite","totalSupply()":"2349","totalValuation()":"infinite","transfer(address,uint256)":"51305","transferFrom(address,address,uint256)":"infinite","transferOwnership(address)":"infinite","unitPrice()":"infinite","upgradeToAndCall(address,bytes)":"infinite"},"internal":{"_authorizeUpgrade(address)":"infinite","_calculateBaluniToUSDC(uint256)":"infinite","_calculateERC20Share(uint256,uint256,uint256,uint256)":"infinite","_calculateERC20ValuationScaled(uint256,address)":"infinite","_calculateNetAmountAfterFee(uint256)":"infinite","_resize(uint256[] memory,uint256)":"infinite","_totalValuation()":"infinite"}},"methodIdentifiers":{"UPGRADE_INTERFACE_VERSION()":"ad3cb1cc","addToken(address)":"d48bfca7","allowance(address,address)":"dd62ed3e","approve(address,uint256)":"095ea7b3","balanceOf(address)":"70a08231","baseAsset()":"cdf456e1","burnERC20(uint256)":"1a168da2","burnUSDC(uint256)":"fe0a4dd1","calculateTokenShare(uint256,uint256,uint256,uint256)":"fe330a51","callRebalance(address[],uint256[],address,address,uint256,address)":"599f69f7","decimals()":"313ce567","execute((address,uint256,bytes)[],address[])":"eedc3c50","getAgentAddress(address)":"27d54a92","getTokens()":"aa6ca808","getUSDCShareValue(uint256)":"71ddcfb8","getVersion()":"0d8e6e2c","initialize(address)":"c4d66de8","liquidate(address)":"2f865568","liquidateAll()":"3c2066a9","mintWithUSDC(uint256)":"0cfc7386","name()":"06fdde03","owner()":"8da5cb5b","proxiableUUID()":"52d1902d","registry()":"7b103999","reinitialize(address,uint64)":"8f2248bc","renounceOwnership()":"715018a6","requiredUSDCtoMint(uint256)":"aa95d893","resetContract(address)":"e67ad759","symbol()":"95d89b41","tokenValuation(uint256,address)":"2bdd955a","totalSupply()":"18160ddd","totalValuation()":"295b9300","transfer(address,uint256)":"a9059cbb","transferFrom(address,address,uint256)":"23b872dd","transferOwnership(address)":"f2fde38b","unitPrice()":"e73faa2d","upgradeToAndCall(address,bytes)":"4f1ef286"}},"storageLayout":{"storage":[{"astId":2583,"contract":"contracts/BaluniV1Router.sol:BaluniV1Router","label":"tokens","offset":0,"slot":"0","type":"t_struct(AddressSet)4870_storage"},{"astId":2586,"contract":"contracts/BaluniV1Router.sol:BaluniV1Router","label":"registry","offset":0,"slot":"2","type":"t_contract(IBaluniV1Registry)4527"},{"astId":2592,"contract":"contracts/BaluniV1Router.sol:BaluniV1Router","label":"baseAsset","offset":0,"slot":"3","type":"t_address"}],"types":{"t_address":{"encoding":"inplace","label":"address","numberOfBytes":"20"},"t_array(t_bytes32)dyn_storage":{"base":"t_bytes32","encoding":"dynamic_array","label":"bytes32[]","numberOfBytes":"32"},"t_bytes32":{"encoding":"inplace","label":"bytes32","numberOfBytes":"32"},"t_contract(IBaluniV1Registry)4527":{"encoding":"inplace","label":"contract IBaluniV1Registry","numberOfBytes":"20"},"t_mapping(t_bytes32,t_uint256)":{"encoding":"mapping","key":"t_bytes32","label":"mapping(bytes32 => uint256)","numberOfBytes":"32","value":"t_uint256"},"t_struct(AddressSet)4870_storage":{"encoding":"inplace","label":"struct EnumerableSetUpgradeable.AddressSet","members":[{"astId":4869,"contract":"contracts/BaluniV1Router.sol:BaluniV1Router","label":"_inner","offset":0,"slot":"0","type":"t_struct(Set)4569_storage"}],"numberOfBytes":"64"},"t_struct(Set)4569_storage":{"encoding":"inplace","label":"struct EnumerableSetUpgradeable.Set","members":[{"astId":4564,"contract":"contracts/BaluniV1Router.sol:BaluniV1Router","label":"_values","offset":0,"slot":"0","type":"t_array(t_bytes32)dyn_storage"},{"astId":4568,"contract":"contracts/BaluniV1Router.sol:BaluniV1Router","label":"_indexes","offset":0,"slot":"1","type":"t_mapping(t_bytes32,t_uint256)"}],"numberOfBytes":"64"},"t_uint256":{"encoding":"inplace","label":"uint256","numberOfBytes":"32"}}},"userdoc":{"kind":"user","methods":{"burnERC20(uint256)":{"notice":"This function requires the caller to have a balance of at least `burnAmount` BAL tokens.The function also checks the USDC balance before burning the tokens.After burning the tokens, the function transfers a proportional share of each ERC20 token held by the contract to the caller.The share is calculated based on the total supply of BAL tokens, the balance of each ERC20 token, and the decimals of each token.Finally, the function emits a `Burn` event with the caller's address and the amount of tokens burned."},"execute((address,uint256,bytes)[],address[])":{"notice":"This function requires the agentFactory to be set and creates a new agent if necessary.If a token is new and a Uniswap pool exists for it, the token is added to the tokens set.If no Uniswap pool exists for a token, the token balance is transferred back to the caller."},"liquidate(address)":{"notice":"The contract must have sufficient approval to spend the specified token.If a pool exists for the token and USDC on Uniswap, a direct swap is performed.If no pool exists, a multi-hop swap is performed through the WNATIVE token.If the swap fails, the `burn` function should be called to handle the failed swap."}},"version":1}}}}