{"contracts/oracles/BaluniV1Oracle.sol":{"BaluniV1Oracle":{"abi":[{"inputs":[{"internalType":"address","name":"target","type":"address"}],"name":"AddressEmptyCode","type":"error"},{"inputs":[{"internalType":"address","name":"implementation","type":"address"}],"name":"ERC1967InvalidImplementation","type":"error"},{"inputs":[],"name":"ERC1967NonPayable","type":"error"},{"inputs":[],"name":"FailedInnerCall","type":"error"},{"inputs":[],"name":"InvalidInitialization","type":"error"},{"inputs":[],"name":"NotInitializing","type":"error"},{"inputs":[{"internalType":"address","name":"owner","type":"address"}],"name":"OwnableInvalidOwner","type":"error"},{"inputs":[{"internalType":"address","name":"account","type":"address"}],"name":"OwnableUnauthorizedAccount","type":"error"},{"inputs":[],"name":"UUPSUnauthorizedCallContext","type":"error"},{"inputs":[{"internalType":"bytes32","name":"slot","type":"bytes32"}],"name":"UUPSUnsupportedProxiableUUID","type":"error"},{"anonymous":false,"inputs":[{"indexed":false,"internalType":"uint64","name":"version","type":"uint64"}],"name":"Initialized","type":"event"},{"anonymous":false,"inputs":[{"indexed":true,"internalType":"address","name":"previousOwner","type":"address"},{"indexed":true,"internalType":"address","name":"newOwner","type":"address"}],"name":"OwnershipTransferred","type":"event"},{"anonymous":false,"inputs":[{"indexed":true,"internalType":"address","name":"implementation","type":"address"}],"name":"Upgraded","type":"event"},{"inputs":[],"name":"UPGRADE_INTERFACE_VERSION","outputs":[{"internalType":"string","name":"","type":"string"}],"stateMutability":"view","type":"function"},{"inputs":[{"internalType":"address","name":"fromToken","type":"address"},{"internalType":"address","name":"toToken","type":"address"},{"internalType":"uint256","name":"amount","type":"uint256"}],"name":"convert","outputs":[{"internalType":"uint256","name":"valuation","type":"uint256"}],"stateMutability":"view","type":"function"},{"inputs":[{"internalType":"address","name":"fromToken","type":"address"},{"internalType":"address","name":"toToken","type":"address"},{"internalType":"uint256","name":"amount","type":"uint256"}],"name":"convertScaled","outputs":[{"internalType":"uint256","name":"valuation","type":"uint256"}],"stateMutability":"view","type":"function"},{"inputs":[{"internalType":"address","name":"fromToken","type":"address"},{"internalType":"address","name":"toToken","type":"address"},{"internalType":"uint256","name":"amount","type":"uint256"}],"name":"convertScaledWithAgg","outputs":[{"internalType":"uint256","name":"valuation","type":"uint256"}],"stateMutability":"view","type":"function"},{"inputs":[{"internalType":"address","name":"fromToken","type":"address"},{"internalType":"address","name":"toToken","type":"address"},{"internalType":"uint256","name":"amount","type":"uint256"}],"name":"convertScaledWithStaticOracle","outputs":[{"internalType":"uint256","name":"valuation","type":"uint256"}],"stateMutability":"view","type":"function"},{"inputs":[{"internalType":"address","name":"fromToken","type":"address"},{"internalType":"address","name":"toToken","type":"address"},{"internalType":"uint256","name":"amount","type":"uint256"}],"name":"convertWithAgg","outputs":[{"internalType":"uint256","name":"valuation","type":"uint256"}],"stateMutability":"view","type":"function"},{"inputs":[{"internalType":"address","name":"fromToken","type":"address"},{"internalType":"address","name":"toToken","type":"address"},{"internalType":"uint256","name":"amount","type":"uint256"}],"name":"convertWithStaticOracle","outputs":[{"internalType":"uint256","name":"valuation","type":"uint256"}],"stateMutability":"view","type":"function"},{"inputs":[{"internalType":"address","name":"_registry","type":"address"}],"name":"initialize","outputs":[],"stateMutability":"nonpayable","type":"function"},{"inputs":[{"internalType":"address","name":"_address","type":"address"},{"internalType":"uint256","name":"amount","type":"uint256"}],"name":"isYearnVault","outputs":[{"internalType":"address","name":"","type":"address"},{"internalType":"uint256","name":"","type":"uint256"}],"stateMutability":"view","type":"function"},{"inputs":[],"name":"owner","outputs":[{"internalType":"address","name":"","type":"address"}],"stateMutability":"view","type":"function"},{"inputs":[],"name":"proxiableUUID","outputs":[{"internalType":"bytes32","name":"","type":"bytes32"}],"stateMutability":"view","type":"function"},{"inputs":[],"name":"registry","outputs":[{"internalType":"contract IBaluniV1Registry","name":"","type":"address"}],"stateMutability":"view","type":"function"},{"inputs":[{"internalType":"address","name":"_registry","type":"address"},{"internalType":"uint64","name":"version","type":"uint64"}],"name":"reinitialize","outputs":[],"stateMutability":"nonpayable","type":"function"},{"inputs":[],"name":"renounceOwnership","outputs":[],"stateMutability":"nonpayable","type":"function"},{"inputs":[{"internalType":"address","name":"newOwner","type":"address"}],"name":"transferOwnership","outputs":[],"stateMutability":"nonpayable","type":"function"},{"inputs":[{"internalType":"address","name":"newImplementation","type":"address"},{"internalType":"bytes","name":"data","type":"bytes"}],"name":"upgradeToAndCall","outputs":[],"stateMutability":"payable","type":"function"}],"devdoc":{"errors":{"AddressEmptyCode(address)":[{"details":"There's no code at `target` (it is not a contract)."}],"ERC1967InvalidImplementation(address)":[{"details":"The `implementation` of the proxy is invalid."}],"ERC1967NonPayable()":[{"details":"An upgrade function sees `msg.value > 0` that may be lost."}],"FailedInnerCall()":[{"details":"A call to an address target failed. The target may have reverted."}],"InvalidInitialization()":[{"details":"The contract is already initialized."}],"NotInitializing()":[{"details":"The contract is not initializing."}],"OwnableInvalidOwner(address)":[{"details":"The owner is not a valid owner account. (eg. `address(0)`)"}],"OwnableUnauthorizedAccount(address)":[{"details":"The caller account is not authorized to perform an operation."}],"UUPSUnauthorizedCallContext()":[{"details":"The call is from an unauthorized context."}],"UUPSUnsupportedProxiableUUID(bytes32)":[{"details":"The storage `slot` is unsupported as a UUID."}]},"events":{"Initialized(uint64)":{"details":"Triggered when the contract has been initialized or reinitialized."},"Upgraded(address)":{"details":"Emitted when the implementation is upgraded."}},"kind":"dev","methods":{"convert(address,address,uint256)":{"details":"Converts the specified amount of `fromToken` to `toToken` using the available oracle. If the conversion fails with the static oracle, it falls back to the aggregator oracle.","params":{"amount":"The amount of `fromToken` to convert.","fromToken":"The address of the token to convert from.","toToken":"The address of the token to convert to."},"returns":{"valuation":"The converted valuation of `amount` in `toToken`."}},"convertScaled(address,address,uint256)":{"details":"Converts the specified amount of `fromToken` to `toToken` using the available oracle. If the conversion fails with the static oracle, it falls back to the aggregator oracle. This function is externally callable.","params":{"amount":"The amount of `fromToken` to convert.","fromToken":"The address of the token to convert from.","toToken":"The address of the token to convert to."},"returns":{"valuation":"The converted valuation of `amount` in `toToken`."}},"convertScaledWithAgg(address,address,uint256)":{"details":"Converts the specified amount of `fromToken` to `toToken` using the 1inch aggregator and scales the result.","params":{"amount":"The amount of `fromToken` to convert.","fromToken":"The address of the token to convert from.","toToken":"The address of the token to convert to."},"returns":{"valuation":" The scaled converted valuation of `amount` in `toToken`."}},"convertScaledWithStaticOracle(address,address,uint256)":{"details":"Converts the given amount of tokens from one token to another using a static oracle.","params":{"amount":"The amount of tokens to convert.","fromToken":"The address of the token to convert from.","toToken":"The address of the token to convert to."},"returns":{"valuation":"of the converted tokens."}},"convertWithAgg(address,address,uint256)":{"details":"Converts the specified amount of `fromToken` to `toToken` using the 1inch aggregator.","params":{"amount":"The amount of `fromToken` to convert.","fromToken":"The address of the token to convert from.","toToken":"The address of the token to convert to."},"returns":{"valuation":"The converted valuation of `amount` in `toToken`."}},"convertWithStaticOracle(address,address,uint256)":{"details":"Converts the specified amount of `fromToken` to `toToken` using the static oracle.","params":{"amount":"The amount of `fromToken` to convert.","fromToken":"The address of the token to convert from.","toToken":"The address of the token to convert to."},"returns":{"valuation":"of the converted amount."}},"owner()":{"details":"Returns the address of the current owner."},"proxiableUUID()":{"details":"Implementation of the ERC1822 {proxiableUUID} function. This returns the storage slot used by the implementation. It is used to validate the implementation's compatibility when performing an upgrade. IMPORTANT: A proxy pointing at a proxiable contract should not be considered proxiable itself, because this risks bricking a proxy that upgrades to it, by delegating to itself until out of gas. Thus it is critical that this function revert if invoked through a proxy. This is guaranteed by the `notDelegated` modifier."},"renounceOwnership()":{"details":"Leaves the contract without owner. It will not be possible to call `onlyOwner` functions. Can only be called by the current owner. NOTE: Renouncing ownership will leave the contract without an owner, thereby disabling any functionality that is only available to the owner."},"transferOwnership(address)":{"details":"Transfers ownership of the contract to a new account (`newOwner`). Can only be called by the current owner."},"upgradeToAndCall(address,bytes)":{"custom:oz-upgrades-unsafe-allow-reachable":"delegatecall","details":"Upgrade the implementation of the proxy to `newImplementation`, and subsequently execute the function call encoded in `data`. Calls {_authorizeUpgrade}. Emits an {Upgraded} event."}},"version":1},"evm":{"bytecode":{"linkReferences":{},"object":"60a0604052306080523480156012575f80fd5b50608051611f9e6100395f395f81816114c1015281816114ea015261169f0152611f9e5ff3fe6080604052600436106100ef575f3560e01c80638da5cb5b11610087578063c4d66de811610057578063c4d66de8146102e3578063ca66d9a814610302578063f2fde38b14610321578063fac0ba7414610340575f80fd5b80638da5cb5b146102145780638f2248bc14610250578063ad3cb1cc1461026f578063b27b5e75146102c4575f80fd5b8063715018a6116100c2578063715018a61461016d5780637b10399914610181578063805df6c4146101b75780638c41a354146101f5575f80fd5b80631f0e3cd2146100f3578063248391ff146101255780634f1ef2861461014457806352d1902d14610159575b5f80fd5b3480156100fe575f80fd5b5061011261010d366004611af6565b61035f565b6040519081526020015b60405180910390f35b348015610130575f80fd5b5061011261013f366004611af6565b61061f565b610157610152366004611b79565b6107dc565b005b348015610164575f80fd5b506101126107fb565b348015610178575f80fd5b50610157610829565b34801561018c575f80fd5b505f5461019f906001600160a01b031681565b6040516001600160a01b03909116815260200161011c565b3480156101c2575f80fd5b506101d66101d1366004611c1b565b61083c565b604080516001600160a01b03909316835260208301919091520161011c565b348015610200575f80fd5b5061011261020f366004611af6565b610a1c565b34801561021f575f80fd5b507f9016d09d72d40fdae2fd8ceac6b6234c7706214fd39c1cd1e609a0528c199300546001600160a01b031661019f565b34801561025b575f80fd5b5061015761026a366004611c45565b610da5565b34801561027a575f80fd5b506102b76040518060400160405280600581526020017f352e302e3000000000000000000000000000000000000000000000000000000081525081565b60405161011c9190611c88565b3480156102cf575f80fd5b506101126102de366004611af6565b610ef2565b3480156102ee575f80fd5b506101576102fd366004611cbd565b611040565b34801561030d575f80fd5b5061011261031c366004611af6565b6111c1565b34801561032c575f80fd5b5061015761033b366004611cbd565b6112b1565b34801561034b575f80fd5b5061011261035a366004611af6565b61130c565b5f826001600160a01b0316846001600160a01b031603610380575080610618565b5f805f9054906101000a90046001600160a01b03166001600160a01b0316638e1c3a8a6040518163ffffffff1660e01b8152600401602060405180830381865afa1580156103d0573d5f803e3d5ffd5b505050506040513d601f19601f820116820180604052508101906103f49190611cd8565b90505f856001600160a01b031663313ce5676040518163ffffffff1660e01b8152600401602060405180830381865afa158015610433573d5f803e3d5ffd5b505050506040513d601f19601f820116820180604052508101906104579190611cf3565b90505f856001600160a01b031663313ce5676040518163ffffffff1660e01b8152600401602060405180830381865afa158015610496573d5f803e3d5ffd5b505050506040513d601f19601f820116820180604052508101906104ba9190611cf3565b6040517f802431fb0000000000000000000000000000000000000000000000000000000081526001600160a01b03898116600483015288811660248301525f6044830181905292935085169063802431fb90606401602060405180830381865afa15801561052a573d5f803e3d5ffd5b505050506040513d601f19601f8201168201806040525081019061054e9190611d13565b905061055b82600a611e1e565b61056684600a611e1e565b6105709083611e2c565b61057a9190611e43565b90505f8260ff168460ff16106105d0576105948385611e62565b61059f90600a611e1e565b9050670de0b6b3a7640000826105b5838a611e43565b6105bf9190611e2c565b6105c99190611e43565b9550610612565b6105da8484611e62565b6105e590600a611e1e565b9050670de0b6b3a7640000826105fb838a611e2c565b6106059190611e2c565b61060f9190611e43565b95505b50505050505b9392505050565b5f805f61062c868561083c565b915091505f61063b865f61083c565b5090506001600160a01b0383161580159061065e57506001600160a01b03811615155b156106e357604051633eb02e9d60e21b81526001600160a01b0380851660048301528216602482015260448101839052309063fac0ba74906064015b602060405180830381865afa1580156106b5573d5f803e3d5ffd5b505050506040513d601f19601f820116820180604052508101906106d99190611d13565b9350505050610618565b6001600160a01b0383161580159061070257506001600160a01b038116155b1561074257604051633eb02e9d60e21b81526001600160a01b0380851660048301528716602482015260448101839052309063fac0ba749060640161069a565b6001600160a01b0381161580159061076157506001600160a01b038316155b156107a157604051633eb02e9d60e21b81526001600160a01b0380891660048301528216602482015260448101869052309063fac0ba749060640161069a565b604051633eb02e9d60e21b81526001600160a01b0380891660048301528716602482015260448101869052309063fac0ba749060640161069a565b6107e46114b6565b6107ed82611586565b6107f7828261158e565b5050565b5f610804611694565b507f360894a13ba1a3210667c828492db98dca3e2076cc3735a920a3ca505d382bbc90565b6108316116f6565b61083a5f61176a565b565b5f805f8490505f6001600160a01b0316816001600160a01b0316639db5df466040518163ffffffff1660e01b8152600401602060405180830381865afa158015610888573d5f803e3d5ffd5b505050506040513d601f19601f820116820180604052508101906108ac9190611cd8565b6001600160a01b0316036108c6575f809250925050610a15565b5f816001600160a01b0316639db5df466040518163ffffffff1660e01b8152600401602060405180830381865afa158015610903573d5f803e3d5ffd5b505050506040513d601f19601f820116820180604052508101906109279190611cd8565b6040517f07a2d13a000000000000000000000000000000000000000000000000000000008152600481018790529091505f906001600160a01b038316906307a2d13a90602401602060405180830381865afa158015610988573d5f803e3d5ffd5b505050506040513d601f19601f820116820180604052508101906109ac9190611d13565b9050816001600160a01b03166338d52e0f6040518163ffffffff1660e01b8152600401602060405180830381865afa1580156109ea573d5f803e3d5ffd5b505050506040513d601f19601f82011682018060405250810190610a0e9190611cd8565b9450925050505b9250929050565b5f826001600160a01b0316846001600160a01b031603610abd57826001600160a01b031663313ce5676040518163ffffffff1660e01b8152600401602060405180830381865afa158015610a72573d5f803e3d5ffd5b505050506040513d601f19601f82011682018060405250810190610a969190611cf3565b610aa1906012611e62565b610aac90600a611e1e565b610ab69083611e2c565b9050610618565b5f805f9054906101000a90046001600160a01b03166001600160a01b0316638e1c3a8a6040518163ffffffff1660e01b8152600401602060405180830381865afa158015610b0d573d5f803e3d5ffd5b505050506040513d601f19601f82011682018060405250810190610b319190611cd8565b90505f856001600160a01b031663313ce5676040518163ffffffff1660e01b8152600401602060405180830381865afa158015610b70573d5f803e3d5ffd5b505050506040513d601f19601f82011682018060405250810190610b949190611cf3565b90505f856001600160a01b031663313ce5676040518163ffffffff1660e01b8152600401602060405180830381865afa158015610bd3573d5f803e3d5ffd5b505050506040513d601f19601f82011682018060405250810190610bf79190611cf3565b6040517f802431fb0000000000000000000000000000000000000000000000000000000081526001600160a01b03898116600483015288811660248301525f6044830181905292935085169063802431fb90606401602060405180830381865afa158015610c67573d5f803e3d5ffd5b505050506040513d601f19601f82011682018060405250810190610c8b9190611d13565b9050610c9882600a611e1e565b610ca384600a611e1e565b610cad9083611e2c565b610cb79190611e43565b90505f8080610cc7856012611e62565b610cd290600a611e1e565b90508460ff168660ff1603610d0557670de0b6b3a7640000610cf4858b611e2c565b610cfe9190611e43565b9750610d8c565b8460ff168660ff161115610d4957610d1d8587611e62565b610d2890600a611e1e565b9250610d34838a611e43565b9150670de0b6b3a7640000610cf48584611e2c565b610d538686611e62565b610d5e90600a611e1e565b9250610d6a838a611e2c565b9150670de0b6b3a7640000610d7f8584611e2c565b610d899190611e43565b97505b610d968189611e2c565b9b9a5050505050505050505050565b7ff0c57e16840df040f15088dc2f81fe391c3923bec73e23a9662efc9c229c6a00805482919068010000000000000000900460ff1680610df35750805467ffffffffffffffff808416911610155b15610e2a576040517ff92ee8a900000000000000000000000000000000000000000000000000000000815260040160405180910390fd5b80547fffffffffffffffffffffffffffffffffffffffffffffff0000000000000000001667ffffffffffffffff83161768010000000000000000178155610e70336117e7565b610e786117f8565b5f805473ffffffffffffffffffffffffffffffffffffffff19166001600160a01b038616179055805468ff00000000000000001916815560405167ffffffffffffffff831681527fc7f505b2f371ae2175ee4913f4499e1f2633a7b5936321eed1cdaeb6115181d29060200160405180910390a150505050565b5f805f610eff868561083c565b915091505f610f0e865f61083c565b5090506001600160a01b03831615801590610f3157506001600160a01b03811615155b15610f715760405163194cdb3560e31b81526001600160a01b0380851660048301528216602482015260448101839052309063ca66d9a89060640161069a565b6001600160a01b03831615610fbb5760405163194cdb3560e31b81526001600160a01b0380851660048301528716602482015260448101839052309063ca66d9a89060640161069a565b6001600160a01b038116156110055760405163194cdb3560e31b81526001600160a01b0380891660048301528216602482015260448101869052309063ca66d9a89060640161069a565b60405163194cdb3560e31b81526001600160a01b0380891660048301528716602482015260448101869052309063ca66d9a89060640161069a565b7ff0c57e16840df040f15088dc2f81fe391c3923bec73e23a9662efc9c229c6a00805468010000000000000000810460ff16159067ffffffffffffffff165f8115801561108a5750825b90505f8267ffffffffffffffff1660011480156110a65750303b155b9050811580156110b4575080155b156110eb576040517ff92ee8a900000000000000000000000000000000000000000000000000000000815260040160405180910390fd5b84547fffffffffffffffffffffffffffffffffffffffffffffffff0000000000000000166001178555831561113657845468ff00000000000000001916680100000000000000001785555b61113f336117e7565b6111476117f8565b5f805473ffffffffffffffffffffffffffffffffffffffff19166001600160a01b03881617905583156111b957845468ff000000000000000019168555604051600181527fc7f505b2f371ae2175ee4913f4499e1f2633a7b5936321eed1cdaeb6115181d29060200160405180910390a15b505050505050565b604051633eb02e9d60e21b81526001600160a01b03808516600483015283166024820152604481018290525f908190309063fac0ba7490606401602060405180830381865afa158015611216573d5f803e3d5ffd5b505050506040513d601f19601f8201168201806040525081019061123a9190611d13565b90506112a881856001600160a01b031663313ce5676040518163ffffffff1660e01b8152600401602060405180830381865afa15801561127c573d5f803e3d5ffd5b505050506040513d601f19601f820116820180604052508101906112a09190611cf3565b60ff16611800565b95945050505050565b6112b96116f6565b6001600160a01b038116611300576040517f1e4fbdf70000000000000000000000000000000000000000000000000000000081525f60048201526024015b60405180910390fd5b6113098161176a565b50565b5f8054604080517fa5d2236f000000000000000000000000000000000000000000000000000000008152905183926001600160a01b03169163a5d2236f9160048083019260209291908290030181865afa15801561136c573d5f803e3d5ffd5b505050506040513d601f19601f820116820180604052508101906113909190611cd8565b90506001600160a01b038116611402576040517f08c379a000000000000000000000000000000000000000000000000000000000815260206004820152601460248201527f5374617469634f7261636c65206e6f742073657400000000000000000000000060448201526064016112f7565b6040517f0757bc810000000000000000000000000000000000000000000000000000000081526fffffffffffffffffffffffffffffffff841660048201526001600160a01b0386811660248301528581166044830152603c6064830152821690630757bc81906084015f60405180830381865afa158015611485573d5f803e3d5ffd5b505050506040513d5f823e601f3d908101601f191682016040526114ac9190810190611e7b565b5095945050505050565b306001600160a01b037f000000000000000000000000000000000000000000000000000000000000000016148061154f57507f00000000000000000000000000000000000000000000000000000000000000006001600160a01b03166115437f360894a13ba1a3210667c828492db98dca3e2076cc3735a920a3ca505d382bbc546001600160a01b031690565b6001600160a01b031614155b1561083a576040517fe07c8dba00000000000000000000000000000000000000000000000000000000815260040160405180910390fd5b6113096116f6565b816001600160a01b03166352d1902d6040518163ffffffff1660e01b8152600401602060405180830381865afa9250505080156115e8575060408051601f3d908101601f191682019092526115e591810190611d13565b60015b611629576040517f4c9c8ce30000000000000000000000000000000000000000000000000000000081526001600160a01b03831660048201526024016112f7565b7f360894a13ba1a3210667c828492db98dca3e2076cc3735a920a3ca505d382bbc8114611685576040517faa1d49a4000000000000000000000000000000000000000000000000000000008152600481018290526024016112f7565b61168f838361182a565b505050565b306001600160a01b037f0000000000000000000000000000000000000000000000000000000000000000161461083a576040517fe07c8dba00000000000000000000000000000000000000000000000000000000815260040160405180910390fd5b336117287f9016d09d72d40fdae2fd8ceac6b6234c7706214fd39c1cd1e609a0528c199300546001600160a01b031690565b6001600160a01b03161461083a576040517f118cdaa70000000000000000000000000000000000000000000000000000000081523360048201526024016112f7565b7f9016d09d72d40fdae2fd8ceac6b6234c7706214fd39c1cd1e609a0528c199300805473ffffffffffffffffffffffffffffffffffffffff1981166001600160a01b03848116918217845560405192169182907f8be0079c531659141344cd1fd0a4f28419497f9722a3daafe3b4186f6b6457e0905f90a3505050565b6117ef61187f565b611309816118e6565b61083a61187f565b5f61180c826012611f34565b61181790600a611f47565b6118219084611e2c565b90505b92915050565b611833826118ee565b6040516001600160a01b038316907fbc7cd75a20ee27fd9adebab32041f755214dbc6bffa90cc0225b39da2e5c2d3b905f90a28051156118775761168f828261198a565b6107f76119f3565b7ff0c57e16840df040f15088dc2f81fe391c3923bec73e23a9662efc9c229c6a005468010000000000000000900460ff1661083a576040517fd7e6bcf800000000000000000000000000000000000000000000000000000000815260040160405180910390fd5b6112b961187f565b806001600160a01b03163b5f0361193c576040517f4c9c8ce30000000000000000000000000000000000000000000000000000000081526001600160a01b03821660048201526024016112f7565b7f360894a13ba1a3210667c828492db98dca3e2076cc3735a920a3ca505d382bbc805473ffffffffffffffffffffffffffffffffffffffff19166001600160a01b0392909216919091179055565b60605f80846001600160a01b0316846040516119a69190611f52565b5f60405180830381855af49150503d805f81146119de576040519150601f19603f3d011682016040523d82523d5f602084013e6119e3565b606091505b50915091506112a8858383611a2b565b341561083a576040517fb398979f00000000000000000000000000000000000000000000000000000000815260040160405180910390fd5b606082611a4057611a3b82611aa0565b610618565b8151158015611a5757506001600160a01b0384163b155b15611a99576040517f9996b3150000000000000000000000000000000000000000000000000000000081526001600160a01b03851660048201526024016112f7565b5080610618565b805115611ab05780518082602001fd5b6040517f1425ea4200000000000000000000000000000000000000000000000000000000815260040160405180910390fd5b6001600160a01b0381168114611309575f80fd5b5f805f60608486031215611b08575f80fd5b8335611b1381611ae2565b92506020840135611b2381611ae2565b929592945050506040919091013590565b634e487b7160e01b5f52604160045260245ffd5b604051601f8201601f1916810167ffffffffffffffff81118282101715611b7157611b71611b34565b604052919050565b5f8060408385031215611b8a575f80fd5b8235611b9581611ae2565b915060208381013567ffffffffffffffff80821115611bb2575f80fd5b818601915086601f830112611bc5575f80fd5b813581811115611bd757611bd7611b34565b611be984601f19601f84011601611b48565b91508082528784828501011115611bfe575f80fd5b80848401858401375f848284010152508093505050509250929050565b5f8060408385031215611c2c575f80fd5b8235611c3781611ae2565b946020939093013593505050565b5f8060408385031215611c56575f80fd5b8235611c6181611ae2565b9150602083013567ffffffffffffffff81168114611c7d575f80fd5b809150509250929050565b602081525f82518060208401528060208501604085015e5f604082850101526040601f19601f83011684010191505092915050565b5f60208284031215611ccd575f80fd5b813561061881611ae2565b5f60208284031215611ce8575f80fd5b815161061881611ae2565b5f60208284031215611d03575f80fd5b815160ff81168114610618575f80fd5b5f60208284031215611d23575f80fd5b5051919050565b634e487b7160e01b5f52601160045260245ffd5b600181815b80851115611d7857815f1904821115611d5e57611d5e611d2a565b80851615611d6b57918102915b93841c9390800290611d43565b509250929050565b5f82611d8e57506001611824565b81611d9a57505f611824565b8160018114611db05760028114611dba57611dd6565b6001915050611824565b60ff841115611dcb57611dcb611d2a565b50506001821b611824565b5060208310610133831016604e8410600b8410161715611df9575081810a611824565b611e038383611d3e565b805f1904821115611e1657611e16611d2a565b029392505050565b5f61182160ff841683611d80565b808202811582820484141761182457611824611d2a565b5f82611e5d57634e487b7160e01b5f52601260045260245ffd5b500490565b60ff828116828216039081111561182457611824611d2a565b5f8060408385031215611e8c575f80fd5b8251915060208084015167ffffffffffffffff80821115611eab575f80fd5b818601915086601f830112611ebe575f80fd5b815181811115611ed057611ed0611b34565b8060051b9150611ee1848301611b48565b8181529183018401918481019089841115611efa575f80fd5b938501935b83851015611f245784519250611f1483611ae2565b8282529385019390850190611eff565b8096505050505050509250929050565b8181038181111561182457611824611d2a565b5f6118218383611d80565b5f82518060208501845e5f92019182525091905056fea2646970667358221220c7292250c371bdd092de358a9e5e5ba9be503610d9f86d569453f26c55b049b464736f6c63430008190033","opcodes":"PUSH1 0xA0 PUSH1 0x40 MSTORE ADDRESS PUSH1 0x80 MSTORE CALLVALUE DUP1 ISZERO PUSH1 0x12 JUMPI PUSH0 DUP1 REVERT JUMPDEST POP PUSH1 0x80 MLOAD PUSH2 0x1F9E PUSH2 0x39 PUSH0 CODECOPY PUSH0 DUP2 DUP2 PUSH2 0x14C1 ADD MSTORE DUP2 DUP2 PUSH2 0x14EA ADD MSTORE PUSH2 0x169F ADD MSTORE PUSH2 0x1F9E PUSH0 RETURN INVALID PUSH1 0x80 PUSH1 0x40 MSTORE PUSH1 0x4 CALLDATASIZE LT PUSH2 0xEF JUMPI PUSH0 CALLDATALOAD PUSH1 0xE0 SHR DUP1 PUSH4 0x8DA5CB5B GT PUSH2 0x87 JUMPI DUP1 PUSH4 0xC4D66DE8 GT PUSH2 0x57 JUMPI DUP1 PUSH4 0xC4D66DE8 EQ PUSH2 0x2E3 JUMPI DUP1 PUSH4 0xCA66D9A8 EQ PUSH2 0x302 JUMPI DUP1 PUSH4 0xF2FDE38B EQ PUSH2 0x321 JUMPI DUP1 PUSH4 0xFAC0BA74 EQ PUSH2 0x340 JUMPI PUSH0 DUP1 REVERT JUMPDEST DUP1 PUSH4 0x8DA5CB5B EQ PUSH2 0x214 JUMPI DUP1 PUSH4 0x8F2248BC EQ PUSH2 0x250 JUMPI DUP1 PUSH4 0xAD3CB1CC EQ PUSH2 0x26F JUMPI DUP1 PUSH4 0xB27B5E75 EQ PUSH2 0x2C4 JUMPI PUSH0 DUP1 REVERT JUMPDEST DUP1 PUSH4 0x715018A6 GT PUSH2 0xC2 JUMPI DUP1 PUSH4 0x715018A6 EQ PUSH2 0x16D JUMPI DUP1 PUSH4 0x7B103999 EQ PUSH2 0x181 JUMPI DUP1 PUSH4 0x805DF6C4 EQ PUSH2 0x1B7 JUMPI DUP1 PUSH4 0x8C41A354 EQ PUSH2 0x1F5 JUMPI PUSH0 DUP1 REVERT JUMPDEST DUP1 PUSH4 0x1F0E3CD2 EQ PUSH2 0xF3 JUMPI DUP1 PUSH4 0x248391FF EQ PUSH2 0x125 JUMPI DUP1 PUSH4 0x4F1EF286 EQ PUSH2 0x144 JUMPI DUP1 PUSH4 0x52D1902D EQ PUSH2 0x159 JUMPI JUMPDEST PUSH0 DUP1 REVERT JUMPDEST CALLVALUE DUP1 ISZERO PUSH2 0xFE JUMPI PUSH0 DUP1 REVERT JUMPDEST POP PUSH2 0x112 PUSH2 0x10D CALLDATASIZE PUSH1 0x4 PUSH2 0x1AF6 JUMP JUMPDEST PUSH2 0x35F JUMP JUMPDEST PUSH1 0x40 MLOAD SWAP1 DUP2 MSTORE PUSH1 0x20 ADD JUMPDEST PUSH1 0x40 MLOAD DUP1 SWAP2 SUB SWAP1 RETURN JUMPDEST CALLVALUE DUP1 ISZERO PUSH2 0x130 JUMPI PUSH0 DUP1 REVERT JUMPDEST POP PUSH2 0x112 PUSH2 0x13F CALLDATASIZE PUSH1 0x4 PUSH2 0x1AF6 JUMP JUMPDEST PUSH2 0x61F JUMP JUMPDEST PUSH2 0x157 PUSH2 0x152 CALLDATASIZE PUSH1 0x4 PUSH2 0x1B79 JUMP JUMPDEST PUSH2 0x7DC JUMP JUMPDEST STOP JUMPDEST CALLVALUE DUP1 ISZERO PUSH2 0x164 JUMPI PUSH0 DUP1 REVERT JUMPDEST POP PUSH2 0x112 PUSH2 0x7FB JUMP JUMPDEST CALLVALUE DUP1 ISZERO PUSH2 0x178 JUMPI PUSH0 DUP1 REVERT JUMPDEST POP PUSH2 0x157 PUSH2 0x829 JUMP JUMPDEST CALLVALUE DUP1 ISZERO PUSH2 0x18C JUMPI PUSH0 DUP1 REVERT JUMPDEST POP PUSH0 SLOAD PUSH2 0x19F SWAP1 PUSH1 0x1 PUSH1 0x1 PUSH1 0xA0 SHL SUB AND DUP2 JUMP JUMPDEST PUSH1 0x40 MLOAD PUSH1 0x1 PUSH1 0x1 PUSH1 0xA0 SHL SUB SWAP1 SWAP2 AND DUP2 MSTORE PUSH1 0x20 ADD PUSH2 0x11C JUMP JUMPDEST CALLVALUE DUP1 ISZERO PUSH2 0x1C2 JUMPI PUSH0 DUP1 REVERT JUMPDEST POP PUSH2 0x1D6 PUSH2 0x1D1 CALLDATASIZE PUSH1 0x4 PUSH2 0x1C1B JUMP JUMPDEST PUSH2 0x83C JUMP JUMPDEST PUSH1 0x40 DUP1 MLOAD PUSH1 0x1 PUSH1 0x1 PUSH1 0xA0 SHL SUB SWAP1 SWAP4 AND DUP4 MSTORE PUSH1 0x20 DUP4 ADD SWAP2 SWAP1 SWAP2 MSTORE ADD PUSH2 0x11C JUMP JUMPDEST CALLVALUE DUP1 ISZERO PUSH2 0x200 JUMPI PUSH0 DUP1 REVERT JUMPDEST POP PUSH2 0x112 PUSH2 0x20F CALLDATASIZE PUSH1 0x4 PUSH2 0x1AF6 JUMP JUMPDEST PUSH2 0xA1C JUMP JUMPDEST CALLVALUE DUP1 ISZERO PUSH2 0x21F JUMPI PUSH0 DUP1 REVERT JUMPDEST POP PUSH32 0x9016D09D72D40FDAE2FD8CEAC6B6234C7706214FD39C1CD1E609A0528C199300 SLOAD PUSH1 0x1 PUSH1 0x1 PUSH1 0xA0 SHL SUB AND PUSH2 0x19F JUMP JUMPDEST CALLVALUE DUP1 ISZERO PUSH2 0x25B JUMPI PUSH0 DUP1 REVERT JUMPDEST POP PUSH2 0x157 PUSH2 0x26A CALLDATASIZE PUSH1 0x4 PUSH2 0x1C45 JUMP JUMPDEST PUSH2 0xDA5 JUMP JUMPDEST CALLVALUE DUP1 ISZERO PUSH2 0x27A JUMPI PUSH0 DUP1 REVERT JUMPDEST POP PUSH2 0x2B7 PUSH1 0x40 MLOAD DUP1 PUSH1 0x40 ADD PUSH1 0x40 MSTORE DUP1 PUSH1 0x5 DUP2 MSTORE PUSH1 0x20 ADD PUSH32 0x352E302E30000000000000000000000000000000000000000000000000000000 DUP2 MSTORE POP DUP2 JUMP JUMPDEST PUSH1 0x40 MLOAD PUSH2 0x11C SWAP2 SWAP1 PUSH2 0x1C88 JUMP JUMPDEST CALLVALUE DUP1 ISZERO PUSH2 0x2CF JUMPI PUSH0 DUP1 REVERT JUMPDEST POP PUSH2 0x112 PUSH2 0x2DE CALLDATASIZE PUSH1 0x4 PUSH2 0x1AF6 JUMP JUMPDEST PUSH2 0xEF2 JUMP JUMPDEST CALLVALUE DUP1 ISZERO PUSH2 0x2EE JUMPI PUSH0 DUP1 REVERT JUMPDEST POP PUSH2 0x157 PUSH2 0x2FD CALLDATASIZE PUSH1 0x4 PUSH2 0x1CBD JUMP JUMPDEST PUSH2 0x1040 JUMP JUMPDEST CALLVALUE DUP1 ISZERO PUSH2 0x30D JUMPI PUSH0 DUP1 REVERT JUMPDEST POP PUSH2 0x112 PUSH2 0x31C CALLDATASIZE PUSH1 0x4 PUSH2 0x1AF6 JUMP JUMPDEST PUSH2 0x11C1 JUMP JUMPDEST CALLVALUE DUP1 ISZERO PUSH2 0x32C JUMPI PUSH0 DUP1 REVERT JUMPDEST POP PUSH2 0x157 PUSH2 0x33B CALLDATASIZE PUSH1 0x4 PUSH2 0x1CBD JUMP JUMPDEST PUSH2 0x12B1 JUMP JUMPDEST CALLVALUE DUP1 ISZERO PUSH2 0x34B JUMPI PUSH0 DUP1 REVERT JUMPDEST POP PUSH2 0x112 PUSH2 0x35A CALLDATASIZE PUSH1 0x4 PUSH2 0x1AF6 JUMP JUMPDEST PUSH2 0x130C JUMP JUMPDEST PUSH0 DUP3 PUSH1 0x1 PUSH1 0x1 PUSH1 0xA0 SHL SUB AND DUP5 PUSH1 0x1 PUSH1 0x1 PUSH1 0xA0 SHL SUB AND SUB PUSH2 0x380 JUMPI POP DUP1 PUSH2 0x618 JUMP JUMPDEST PUSH0 DUP1 PUSH0 SWAP1 SLOAD SWAP1 PUSH2 0x100 EXP SWAP1 DIV PUSH1 0x1 PUSH1 0x1 PUSH1 0xA0 SHL SUB AND PUSH1 0x1 PUSH1 0x1 PUSH1 0xA0 SHL SUB AND PUSH4 0x8E1C3A8A PUSH1 0x40 MLOAD DUP2 PUSH4 0xFFFFFFFF AND PUSH1 0xE0 SHL DUP2 MSTORE PUSH1 0x4 ADD PUSH1 0x20 PUSH1 0x40 MLOAD DUP1 DUP4 SUB DUP2 DUP7 GAS STATICCALL ISZERO DUP1 ISZERO PUSH2 0x3D0 JUMPI RETURNDATASIZE PUSH0 DUP1 RETURNDATACOPY RETURNDATASIZE PUSH0 REVERT JUMPDEST POP POP POP POP PUSH1 0x40 MLOAD RETURNDATASIZE PUSH1 0x1F NOT PUSH1 0x1F DUP3 ADD AND DUP3 ADD DUP1 PUSH1 0x40 MSTORE POP DUP2 ADD SWAP1 PUSH2 0x3F4 SWAP2 SWAP1 PUSH2 0x1CD8 JUMP JUMPDEST SWAP1 POP PUSH0 DUP6 PUSH1 0x1 PUSH1 0x1 PUSH1 0xA0 SHL SUB AND PUSH4 0x313CE567 PUSH1 0x40 MLOAD DUP2 PUSH4 0xFFFFFFFF AND PUSH1 0xE0 SHL DUP2 MSTORE PUSH1 0x4 ADD PUSH1 0x20 PUSH1 0x40 MLOAD DUP1 DUP4 SUB DUP2 DUP7 GAS STATICCALL ISZERO DUP1 ISZERO PUSH2 0x433 JUMPI RETURNDATASIZE PUSH0 DUP1 RETURNDATACOPY RETURNDATASIZE PUSH0 REVERT JUMPDEST POP POP POP POP PUSH1 0x40 MLOAD RETURNDATASIZE PUSH1 0x1F NOT PUSH1 0x1F DUP3 ADD AND DUP3 ADD DUP1 PUSH1 0x40 MSTORE POP DUP2 ADD SWAP1 PUSH2 0x457 SWAP2 SWAP1 PUSH2 0x1CF3 JUMP JUMPDEST SWAP1 POP PUSH0 DUP6 PUSH1 0x1 PUSH1 0x1 PUSH1 0xA0 SHL SUB AND PUSH4 0x313CE567 PUSH1 0x40 MLOAD DUP2 PUSH4 0xFFFFFFFF AND PUSH1 0xE0 SHL DUP2 MSTORE PUSH1 0x4 ADD PUSH1 0x20 PUSH1 0x40 MLOAD DUP1 DUP4 SUB DUP2 DUP7 GAS STATICCALL ISZERO DUP1 ISZERO PUSH2 0x496 JUMPI RETURNDATASIZE PUSH0 DUP1 RETURNDATACOPY RETURNDATASIZE PUSH0 REVERT JUMPDEST POP POP POP POP PUSH1 0x40 MLOAD RETURNDATASIZE PUSH1 0x1F NOT PUSH1 0x1F DUP3 ADD AND DUP3 ADD DUP1 PUSH1 0x40 MSTORE POP DUP2 ADD SWAP1 PUSH2 0x4BA SWAP2 SWAP1 PUSH2 0x1CF3 JUMP JUMPDEST PUSH1 0x40 MLOAD PUSH32 0x802431FB00000000000000000000000000000000000000000000000000000000 DUP2 MSTORE PUSH1 0x1 PUSH1 0x1 PUSH1 0xA0 SHL SUB DUP10 DUP2 AND PUSH1 0x4 DUP4 ADD MSTORE DUP9 DUP2 AND PUSH1 0x24 DUP4 ADD MSTORE PUSH0 PUSH1 0x44 DUP4 ADD DUP2 SWAP1 MSTORE SWAP3 SWAP4 POP DUP6 AND SWAP1 PUSH4 0x802431FB SWAP1 PUSH1 0x64 ADD PUSH1 0x20 PUSH1 0x40 MLOAD DUP1 DUP4 SUB DUP2 DUP7 GAS STATICCALL ISZERO DUP1 ISZERO PUSH2 0x52A JUMPI RETURNDATASIZE PUSH0 DUP1 RETURNDATACOPY RETURNDATASIZE PUSH0 REVERT JUMPDEST POP POP POP POP PUSH1 0x40 MLOAD RETURNDATASIZE PUSH1 0x1F NOT PUSH1 0x1F DUP3 ADD AND DUP3 ADD DUP1 PUSH1 0x40 MSTORE POP DUP2 ADD SWAP1 PUSH2 0x54E SWAP2 SWAP1 PUSH2 0x1D13 JUMP JUMPDEST SWAP1 POP PUSH2 0x55B DUP3 PUSH1 0xA PUSH2 0x1E1E JUMP JUMPDEST PUSH2 0x566 DUP5 PUSH1 0xA PUSH2 0x1E1E JUMP JUMPDEST PUSH2 0x570 SWAP1 DUP4 PUSH2 0x1E2C JUMP JUMPDEST PUSH2 0x57A SWAP2 SWAP1 PUSH2 0x1E43 JUMP JUMPDEST SWAP1 POP PUSH0 DUP3 PUSH1 0xFF AND DUP5 PUSH1 0xFF AND LT PUSH2 0x5D0 JUMPI PUSH2 0x594 DUP4 DUP6 PUSH2 0x1E62 JUMP JUMPDEST PUSH2 0x59F SWAP1 PUSH1 0xA PUSH2 0x1E1E JUMP JUMPDEST SWAP1 POP PUSH8 0xDE0B6B3A7640000 DUP3 PUSH2 0x5B5 DUP4 DUP11 PUSH2 0x1E43 JUMP JUMPDEST PUSH2 0x5BF SWAP2 SWAP1 PUSH2 0x1E2C JUMP JUMPDEST PUSH2 0x5C9 SWAP2 SWAP1 PUSH2 0x1E43 JUMP JUMPDEST SWAP6 POP PUSH2 0x612 JUMP JUMPDEST PUSH2 0x5DA DUP5 DUP5 PUSH2 0x1E62 JUMP JUMPDEST PUSH2 0x5E5 SWAP1 PUSH1 0xA PUSH2 0x1E1E JUMP JUMPDEST SWAP1 POP PUSH8 0xDE0B6B3A7640000 DUP3 PUSH2 0x5FB DUP4 DUP11 PUSH2 0x1E2C JUMP JUMPDEST PUSH2 0x605 SWAP2 SWAP1 PUSH2 0x1E2C JUMP JUMPDEST PUSH2 0x60F SWAP2 SWAP1 PUSH2 0x1E43 JUMP JUMPDEST SWAP6 POP JUMPDEST POP POP POP POP POP JUMPDEST SWAP4 SWAP3 POP POP POP JUMP JUMPDEST PUSH0 DUP1 PUSH0 PUSH2 0x62C DUP7 DUP6 PUSH2 0x83C JUMP JUMPDEST SWAP2 POP SWAP2 POP PUSH0 PUSH2 0x63B DUP7 PUSH0 PUSH2 0x83C JUMP JUMPDEST POP SWAP1 POP PUSH1 0x1 PUSH1 0x1 PUSH1 0xA0 SHL SUB DUP4 AND ISZERO DUP1 ISZERO SWAP1 PUSH2 0x65E JUMPI POP PUSH1 0x1 PUSH1 0x1 PUSH1 0xA0 SHL SUB DUP2 AND ISZERO ISZERO JUMPDEST ISZERO PUSH2 0x6E3 JUMPI PUSH1 0x40 MLOAD PUSH4 0x3EB02E9D PUSH1 0xE2 SHL DUP2 MSTORE PUSH1 0x1 PUSH1 0x1 PUSH1 0xA0 SHL SUB DUP1 DUP6 AND PUSH1 0x4 DUP4 ADD MSTORE DUP3 AND PUSH1 0x24 DUP3 ADD MSTORE PUSH1 0x44 DUP2 ADD DUP4 SWAP1 MSTORE ADDRESS SWAP1 PUSH4 0xFAC0BA74 SWAP1 PUSH1 0x64 ADD JUMPDEST PUSH1 0x20 PUSH1 0x40 MLOAD DUP1 DUP4 SUB DUP2 DUP7 GAS STATICCALL ISZERO DUP1 ISZERO PUSH2 0x6B5 JUMPI RETURNDATASIZE PUSH0 DUP1 RETURNDATACOPY RETURNDATASIZE PUSH0 REVERT JUMPDEST POP POP POP POP PUSH1 0x40 MLOAD RETURNDATASIZE PUSH1 0x1F NOT PUSH1 0x1F DUP3 ADD AND DUP3 ADD DUP1 PUSH1 0x40 MSTORE POP DUP2 ADD SWAP1 PUSH2 0x6D9 SWAP2 SWAP1 PUSH2 0x1D13 JUMP JUMPDEST SWAP4 POP POP POP POP PUSH2 0x618 JUMP JUMPDEST PUSH1 0x1 PUSH1 0x1 PUSH1 0xA0 SHL SUB DUP4 AND ISZERO DUP1 ISZERO SWAP1 PUSH2 0x702 JUMPI POP PUSH1 0x1 PUSH1 0x1 PUSH1 0xA0 SHL SUB DUP2 AND ISZERO JUMPDEST ISZERO PUSH2 0x742 JUMPI PUSH1 0x40 MLOAD PUSH4 0x3EB02E9D PUSH1 0xE2 SHL DUP2 MSTORE PUSH1 0x1 PUSH1 0x1 PUSH1 0xA0 SHL SUB DUP1 DUP6 AND PUSH1 0x4 DUP4 ADD MSTORE DUP8 AND PUSH1 0x24 DUP3 ADD MSTORE PUSH1 0x44 DUP2 ADD DUP4 SWAP1 MSTORE ADDRESS SWAP1 PUSH4 0xFAC0BA74 SWAP1 PUSH1 0x64 ADD PUSH2 0x69A JUMP JUMPDEST PUSH1 0x1 PUSH1 0x1 PUSH1 0xA0 SHL SUB DUP2 AND ISZERO DUP1 ISZERO SWAP1 PUSH2 0x761 JUMPI POP PUSH1 0x1 PUSH1 0x1 PUSH1 0xA0 SHL SUB DUP4 AND ISZERO JUMPDEST ISZERO PUSH2 0x7A1 JUMPI PUSH1 0x40 MLOAD PUSH4 0x3EB02E9D PUSH1 0xE2 SHL DUP2 MSTORE PUSH1 0x1 PUSH1 0x1 PUSH1 0xA0 SHL SUB DUP1 DUP10 AND PUSH1 0x4 DUP4 ADD MSTORE DUP3 AND PUSH1 0x24 DUP3 ADD MSTORE PUSH1 0x44 DUP2 ADD DUP7 SWAP1 MSTORE ADDRESS SWAP1 PUSH4 0xFAC0BA74 SWAP1 PUSH1 0x64 ADD PUSH2 0x69A JUMP JUMPDEST PUSH1 0x40 MLOAD PUSH4 0x3EB02E9D PUSH1 0xE2 SHL DUP2 MSTORE PUSH1 0x1 PUSH1 0x1 PUSH1 0xA0 SHL SUB DUP1 DUP10 AND PUSH1 0x4 DUP4 ADD MSTORE DUP8 AND PUSH1 0x24 DUP3 ADD MSTORE PUSH1 0x44 DUP2 ADD DUP7 SWAP1 MSTORE ADDRESS SWAP1 PUSH4 0xFAC0BA74 SWAP1 PUSH1 0x64 ADD PUSH2 0x69A JUMP JUMPDEST PUSH2 0x7E4 PUSH2 0x14B6 JUMP JUMPDEST PUSH2 0x7ED DUP3 PUSH2 0x1586 JUMP JUMPDEST PUSH2 0x7F7 DUP3 DUP3 PUSH2 0x158E JUMP JUMPDEST POP POP JUMP JUMPDEST PUSH0 PUSH2 0x804 PUSH2 0x1694 JUMP JUMPDEST POP PUSH32 0x360894A13BA1A3210667C828492DB98DCA3E2076CC3735A920A3CA505D382BBC SWAP1 JUMP JUMPDEST PUSH2 0x831 PUSH2 0x16F6 JUMP JUMPDEST PUSH2 0x83A PUSH0 PUSH2 0x176A JUMP JUMPDEST JUMP JUMPDEST PUSH0 DUP1 PUSH0 DUP5 SWAP1 POP PUSH0 PUSH1 0x1 PUSH1 0x1 PUSH1 0xA0 SHL SUB AND DUP2 PUSH1 0x1 PUSH1 0x1 PUSH1 0xA0 SHL SUB AND PUSH4 0x9DB5DF46 PUSH1 0x40 MLOAD DUP2 PUSH4 0xFFFFFFFF AND PUSH1 0xE0 SHL DUP2 MSTORE PUSH1 0x4 ADD PUSH1 0x20 PUSH1 0x40 MLOAD DUP1 DUP4 SUB DUP2 DUP7 GAS STATICCALL ISZERO DUP1 ISZERO PUSH2 0x888 JUMPI RETURNDATASIZE PUSH0 DUP1 RETURNDATACOPY RETURNDATASIZE PUSH0 REVERT JUMPDEST POP POP POP POP PUSH1 0x40 MLOAD RETURNDATASIZE PUSH1 0x1F NOT PUSH1 0x1F DUP3 ADD AND DUP3 ADD DUP1 PUSH1 0x40 MSTORE POP DUP2 ADD SWAP1 PUSH2 0x8AC SWAP2 SWAP1 PUSH2 0x1CD8 JUMP JUMPDEST PUSH1 0x1 PUSH1 0x1 PUSH1 0xA0 SHL SUB AND SUB PUSH2 0x8C6 JUMPI PUSH0 DUP1 SWAP3 POP SWAP3 POP POP PUSH2 0xA15 JUMP JUMPDEST PUSH0 DUP2 PUSH1 0x1 PUSH1 0x1 PUSH1 0xA0 SHL SUB AND PUSH4 0x9DB5DF46 PUSH1 0x40 MLOAD DUP2 PUSH4 0xFFFFFFFF AND PUSH1 0xE0 SHL DUP2 MSTORE PUSH1 0x4 ADD PUSH1 0x20 PUSH1 0x40 MLOAD DUP1 DUP4 SUB DUP2 DUP7 GAS STATICCALL ISZERO DUP1 ISZERO PUSH2 0x903 JUMPI RETURNDATASIZE PUSH0 DUP1 RETURNDATACOPY RETURNDATASIZE PUSH0 REVERT JUMPDEST POP POP POP POP PUSH1 0x40 MLOAD RETURNDATASIZE PUSH1 0x1F NOT PUSH1 0x1F DUP3 ADD AND DUP3 ADD DUP1 PUSH1 0x40 MSTORE POP DUP2 ADD SWAP1 PUSH2 0x927 SWAP2 SWAP1 PUSH2 0x1CD8 JUMP JUMPDEST PUSH1 0x40 MLOAD PUSH32 0x7A2D13A00000000000000000000000000000000000000000000000000000000 DUP2 MSTORE PUSH1 0x4 DUP2 ADD DUP8 SWAP1 MSTORE SWAP1 SWAP2 POP PUSH0 SWAP1 PUSH1 0x1 PUSH1 0x1 PUSH1 0xA0 SHL SUB DUP4 AND SWAP1 PUSH4 0x7A2D13A SWAP1 PUSH1 0x24 ADD PUSH1 0x20 PUSH1 0x40 MLOAD DUP1 DUP4 SUB DUP2 DUP7 GAS STATICCALL ISZERO DUP1 ISZERO PUSH2 0x988 JUMPI RETURNDATASIZE PUSH0 DUP1 RETURNDATACOPY RETURNDATASIZE PUSH0 REVERT JUMPDEST POP POP POP POP PUSH1 0x40 MLOAD RETURNDATASIZE PUSH1 0x1F NOT PUSH1 0x1F DUP3 ADD AND DUP3 ADD DUP1 PUSH1 0x40 MSTORE POP DUP2 ADD SWAP1 PUSH2 0x9AC SWAP2 SWAP1 PUSH2 0x1D13 JUMP JUMPDEST SWAP1 POP DUP2 PUSH1 0x1 PUSH1 0x1 PUSH1 0xA0 SHL SUB AND PUSH4 0x38D52E0F PUSH1 0x40 MLOAD DUP2 PUSH4 0xFFFFFFFF AND PUSH1 0xE0 SHL DUP2 MSTORE PUSH1 0x4 ADD PUSH1 0x20 PUSH1 0x40 MLOAD DUP1 DUP4 SUB DUP2 DUP7 GAS STATICCALL ISZERO DUP1 ISZERO PUSH2 0x9EA JUMPI RETURNDATASIZE PUSH0 DUP1 RETURNDATACOPY RETURNDATASIZE PUSH0 REVERT JUMPDEST POP POP POP POP PUSH1 0x40 MLOAD RETURNDATASIZE PUSH1 0x1F NOT PUSH1 0x1F DUP3 ADD AND DUP3 ADD DUP1 PUSH1 0x40 MSTORE POP DUP2 ADD SWAP1 PUSH2 0xA0E SWAP2 SWAP1 PUSH2 0x1CD8 JUMP JUMPDEST SWAP5 POP SWAP3 POP POP POP JUMPDEST SWAP3 POP SWAP3 SWAP1 POP JUMP JUMPDEST PUSH0 DUP3 PUSH1 0x1 PUSH1 0x1 PUSH1 0xA0 SHL SUB AND DUP5 PUSH1 0x1 PUSH1 0x1 PUSH1 0xA0 SHL SUB AND SUB PUSH2 0xABD JUMPI DUP3 PUSH1 0x1 PUSH1 0x1 PUSH1 0xA0 SHL SUB AND PUSH4 0x313CE567 PUSH1 0x40 MLOAD DUP2 PUSH4 0xFFFFFFFF AND PUSH1 0xE0 SHL DUP2 MSTORE PUSH1 0x4 ADD PUSH1 0x20 PUSH1 0x40 MLOAD DUP1 DUP4 SUB DUP2 DUP7 GAS STATICCALL ISZERO DUP1 ISZERO PUSH2 0xA72 JUMPI RETURNDATASIZE PUSH0 DUP1 RETURNDATACOPY RETURNDATASIZE PUSH0 REVERT JUMPDEST POP POP POP POP PUSH1 0x40 MLOAD RETURNDATASIZE PUSH1 0x1F NOT PUSH1 0x1F DUP3 ADD AND DUP3 ADD DUP1 PUSH1 0x40 MSTORE POP DUP2 ADD SWAP1 PUSH2 0xA96 SWAP2 SWAP1 PUSH2 0x1CF3 JUMP JUMPDEST PUSH2 0xAA1 SWAP1 PUSH1 0x12 PUSH2 0x1E62 JUMP JUMPDEST PUSH2 0xAAC SWAP1 PUSH1 0xA PUSH2 0x1E1E JUMP JUMPDEST PUSH2 0xAB6 SWAP1 DUP4 PUSH2 0x1E2C JUMP JUMPDEST SWAP1 POP PUSH2 0x618 JUMP JUMPDEST PUSH0 DUP1 PUSH0 SWAP1 SLOAD SWAP1 PUSH2 0x100 EXP SWAP1 DIV PUSH1 0x1 PUSH1 0x1 PUSH1 0xA0 SHL SUB AND PUSH1 0x1 PUSH1 0x1 PUSH1 0xA0 SHL SUB AND PUSH4 0x8E1C3A8A PUSH1 0x40 MLOAD DUP2 PUSH4 0xFFFFFFFF AND PUSH1 0xE0 SHL DUP2 MSTORE PUSH1 0x4 ADD PUSH1 0x20 PUSH1 0x40 MLOAD DUP1 DUP4 SUB DUP2 DUP7 GAS STATICCALL ISZERO DUP1 ISZERO PUSH2 0xB0D JUMPI RETURNDATASIZE PUSH0 DUP1 RETURNDATACOPY RETURNDATASIZE PUSH0 REVERT JUMPDEST POP POP POP POP PUSH1 0x40 MLOAD RETURNDATASIZE PUSH1 0x1F NOT PUSH1 0x1F DUP3 ADD AND DUP3 ADD DUP1 PUSH1 0x40 MSTORE POP DUP2 ADD SWAP1 PUSH2 0xB31 SWAP2 SWAP1 PUSH2 0x1CD8 JUMP JUMPDEST SWAP1 POP PUSH0 DUP6 PUSH1 0x1 PUSH1 0x1 PUSH1 0xA0 SHL SUB AND PUSH4 0x313CE567 PUSH1 0x40 MLOAD DUP2 PUSH4 0xFFFFFFFF AND PUSH1 0xE0 SHL DUP2 MSTORE PUSH1 0x4 ADD PUSH1 0x20 PUSH1 0x40 MLOAD DUP1 DUP4 SUB DUP2 DUP7 GAS STATICCALL ISZERO DUP1 ISZERO PUSH2 0xB70 JUMPI RETURNDATASIZE PUSH0 DUP1 RETURNDATACOPY RETURNDATASIZE PUSH0 REVERT JUMPDEST POP POP POP POP PUSH1 0x40 MLOAD RETURNDATASIZE PUSH1 0x1F NOT PUSH1 0x1F DUP3 ADD AND DUP3 ADD DUP1 PUSH1 0x40 MSTORE POP DUP2 ADD SWAP1 PUSH2 0xB94 SWAP2 SWAP1 PUSH2 0x1CF3 JUMP JUMPDEST SWAP1 POP PUSH0 DUP6 PUSH1 0x1 PUSH1 0x1 PUSH1 0xA0 SHL SUB AND PUSH4 0x313CE567 PUSH1 0x40 MLOAD DUP2 PUSH4 0xFFFFFFFF AND PUSH1 0xE0 SHL DUP2 MSTORE PUSH1 0x4 ADD PUSH1 0x20 PUSH1 0x40 MLOAD DUP1 DUP4 SUB DUP2 DUP7 GAS STATICCALL ISZERO DUP1 ISZERO PUSH2 0xBD3 JUMPI RETURNDATASIZE PUSH0 DUP1 RETURNDATACOPY RETURNDATASIZE PUSH0 REVERT JUMPDEST POP POP POP POP PUSH1 0x40 MLOAD RETURNDATASIZE PUSH1 0x1F NOT PUSH1 0x1F DUP3 ADD AND DUP3 ADD DUP1 PUSH1 0x40 MSTORE POP DUP2 ADD SWAP1 PUSH2 0xBF7 SWAP2 SWAP1 PUSH2 0x1CF3 JUMP JUMPDEST PUSH1 0x40 MLOAD PUSH32 0x802431FB00000000000000000000000000000000000000000000000000000000 DUP2 MSTORE PUSH1 0x1 PUSH1 0x1 PUSH1 0xA0 SHL SUB DUP10 DUP2 AND PUSH1 0x4 DUP4 ADD MSTORE DUP9 DUP2 AND PUSH1 0x24 DUP4 ADD MSTORE PUSH0 PUSH1 0x44 DUP4 ADD DUP2 SWAP1 MSTORE SWAP3 SWAP4 POP DUP6 AND SWAP1 PUSH4 0x802431FB SWAP1 PUSH1 0x64 ADD PUSH1 0x20 PUSH1 0x40 MLOAD DUP1 DUP4 SUB DUP2 DUP7 GAS STATICCALL ISZERO DUP1 ISZERO PUSH2 0xC67 JUMPI RETURNDATASIZE PUSH0 DUP1 RETURNDATACOPY RETURNDATASIZE PUSH0 REVERT JUMPDEST POP POP POP POP PUSH1 0x40 MLOAD RETURNDATASIZE PUSH1 0x1F NOT PUSH1 0x1F DUP3 ADD AND DUP3 ADD DUP1 PUSH1 0x40 MSTORE POP DUP2 ADD SWAP1 PUSH2 0xC8B SWAP2 SWAP1 PUSH2 0x1D13 JUMP JUMPDEST SWAP1 POP PUSH2 0xC98 DUP3 PUSH1 0xA PUSH2 0x1E1E JUMP JUMPDEST PUSH2 0xCA3 DUP5 PUSH1 0xA PUSH2 0x1E1E JUMP JUMPDEST PUSH2 0xCAD SWAP1 DUP4 PUSH2 0x1E2C JUMP JUMPDEST PUSH2 0xCB7 SWAP2 SWAP1 PUSH2 0x1E43 JUMP JUMPDEST SWAP1 POP PUSH0 DUP1 DUP1 PUSH2 0xCC7 DUP6 PUSH1 0x12 PUSH2 0x1E62 JUMP JUMPDEST PUSH2 0xCD2 SWAP1 PUSH1 0xA PUSH2 0x1E1E JUMP JUMPDEST SWAP1 POP DUP5 PUSH1 0xFF AND DUP7 PUSH1 0xFF AND SUB PUSH2 0xD05 JUMPI PUSH8 0xDE0B6B3A7640000 PUSH2 0xCF4 DUP6 DUP12 PUSH2 0x1E2C JUMP JUMPDEST PUSH2 0xCFE SWAP2 SWAP1 PUSH2 0x1E43 JUMP JUMPDEST SWAP8 POP PUSH2 0xD8C JUMP JUMPDEST DUP5 PUSH1 0xFF AND DUP7 PUSH1 0xFF AND GT ISZERO PUSH2 0xD49 JUMPI PUSH2 0xD1D DUP6 DUP8 PUSH2 0x1E62 JUMP JUMPDEST PUSH2 0xD28 SWAP1 PUSH1 0xA PUSH2 0x1E1E JUMP JUMPDEST SWAP3 POP PUSH2 0xD34 DUP4 DUP11 PUSH2 0x1E43 JUMP JUMPDEST SWAP2 POP PUSH8 0xDE0B6B3A7640000 PUSH2 0xCF4 DUP6 DUP5 PUSH2 0x1E2C JUMP JUMPDEST PUSH2 0xD53 DUP7 DUP7 PUSH2 0x1E62 JUMP JUMPDEST PUSH2 0xD5E SWAP1 PUSH1 0xA PUSH2 0x1E1E JUMP JUMPDEST SWAP3 POP PUSH2 0xD6A DUP4 DUP11 PUSH2 0x1E2C JUMP JUMPDEST SWAP2 POP PUSH8 0xDE0B6B3A7640000 PUSH2 0xD7F DUP6 DUP5 PUSH2 0x1E2C JUMP JUMPDEST PUSH2 0xD89 SWAP2 SWAP1 PUSH2 0x1E43 JUMP JUMPDEST SWAP8 POP JUMPDEST PUSH2 0xD96 DUP2 DUP10 PUSH2 0x1E2C JUMP JUMPDEST SWAP12 SWAP11 POP POP POP POP POP POP POP POP POP POP POP JUMP JUMPDEST PUSH32 0xF0C57E16840DF040F15088DC2F81FE391C3923BEC73E23A9662EFC9C229C6A00 DUP1 SLOAD DUP3 SWAP2 SWAP1 PUSH9 0x10000000000000000 SWAP1 DIV PUSH1 0xFF AND DUP1 PUSH2 0xDF3 JUMPI POP DUP1 SLOAD PUSH8 0xFFFFFFFFFFFFFFFF DUP1 DUP5 AND SWAP2 AND LT ISZERO JUMPDEST ISZERO PUSH2 0xE2A JUMPI PUSH1 0x40 MLOAD PUSH32 0xF92EE8A900000000000000000000000000000000000000000000000000000000 DUP2 MSTORE PUSH1 0x4 ADD PUSH1 0x40 MLOAD DUP1 SWAP2 SUB SWAP1 REVERT JUMPDEST DUP1 SLOAD PUSH32 0xFFFFFFFFFFFFFFFFFFFFFFFFFFFFFFFFFFFFFFFFFFFFFF000000000000000000 AND PUSH8 0xFFFFFFFFFFFFFFFF DUP4 AND OR PUSH9 0x10000000000000000 OR DUP2 SSTORE PUSH2 0xE70 CALLER PUSH2 0x17E7 JUMP JUMPDEST PUSH2 0xE78 PUSH2 0x17F8 JUMP JUMPDEST PUSH0 DUP1 SLOAD PUSH20 0xFFFFFFFFFFFFFFFFFFFFFFFFFFFFFFFFFFFFFFFF NOT AND PUSH1 0x1 PUSH1 0x1 PUSH1 0xA0 SHL SUB DUP7 AND OR SWAP1 SSTORE DUP1 SLOAD PUSH9 0xFF0000000000000000 NOT AND DUP2 SSTORE PUSH1 0x40 MLOAD PUSH8 0xFFFFFFFFFFFFFFFF DUP4 AND DUP2 MSTORE PUSH32 0xC7F505B2F371AE2175EE4913F4499E1F2633A7B5936321EED1CDAEB6115181D2 SWAP1 PUSH1 0x20 ADD PUSH1 0x40 MLOAD DUP1 SWAP2 SUB SWAP1 LOG1 POP POP POP POP JUMP JUMPDEST PUSH0 DUP1 PUSH0 PUSH2 0xEFF DUP7 DUP6 PUSH2 0x83C JUMP JUMPDEST SWAP2 POP SWAP2 POP PUSH0 PUSH2 0xF0E DUP7 PUSH0 PUSH2 0x83C JUMP JUMPDEST POP SWAP1 POP PUSH1 0x1 PUSH1 0x1 PUSH1 0xA0 SHL SUB DUP4 AND ISZERO DUP1 ISZERO SWAP1 PUSH2 0xF31 JUMPI POP PUSH1 0x1 PUSH1 0x1 PUSH1 0xA0 SHL SUB DUP2 AND ISZERO ISZERO JUMPDEST ISZERO PUSH2 0xF71 JUMPI PUSH1 0x40 MLOAD PUSH4 0x194CDB35 PUSH1 0xE3 SHL DUP2 MSTORE PUSH1 0x1 PUSH1 0x1 PUSH1 0xA0 SHL SUB DUP1 DUP6 AND PUSH1 0x4 DUP4 ADD MSTORE DUP3 AND PUSH1 0x24 DUP3 ADD MSTORE PUSH1 0x44 DUP2 ADD DUP4 SWAP1 MSTORE ADDRESS SWAP1 PUSH4 0xCA66D9A8 SWAP1 PUSH1 0x64 ADD PUSH2 0x69A JUMP JUMPDEST PUSH1 0x1 PUSH1 0x1 PUSH1 0xA0 SHL SUB DUP4 AND ISZERO PUSH2 0xFBB JUMPI PUSH1 0x40 MLOAD PUSH4 0x194CDB35 PUSH1 0xE3 SHL DUP2 MSTORE PUSH1 0x1 PUSH1 0x1 PUSH1 0xA0 SHL SUB DUP1 DUP6 AND PUSH1 0x4 DUP4 ADD MSTORE DUP8 AND PUSH1 0x24 DUP3 ADD MSTORE PUSH1 0x44 DUP2 ADD DUP4 SWAP1 MSTORE ADDRESS SWAP1 PUSH4 0xCA66D9A8 SWAP1 PUSH1 0x64 ADD PUSH2 0x69A JUMP JUMPDEST PUSH1 0x1 PUSH1 0x1 PUSH1 0xA0 SHL SUB DUP2 AND ISZERO PUSH2 0x1005 JUMPI PUSH1 0x40 MLOAD PUSH4 0x194CDB35 PUSH1 0xE3 SHL DUP2 MSTORE PUSH1 0x1 PUSH1 0x1 PUSH1 0xA0 SHL SUB DUP1 DUP10 AND PUSH1 0x4 DUP4 ADD MSTORE DUP3 AND PUSH1 0x24 DUP3 ADD MSTORE PUSH1 0x44 DUP2 ADD DUP7 SWAP1 MSTORE ADDRESS SWAP1 PUSH4 0xCA66D9A8 SWAP1 PUSH1 0x64 ADD PUSH2 0x69A JUMP JUMPDEST PUSH1 0x40 MLOAD PUSH4 0x194CDB35 PUSH1 0xE3 SHL DUP2 MSTORE PUSH1 0x1 PUSH1 0x1 PUSH1 0xA0 SHL SUB DUP1 DUP10 AND PUSH1 0x4 DUP4 ADD MSTORE DUP8 AND PUSH1 0x24 DUP3 ADD MSTORE PUSH1 0x44 DUP2 ADD DUP7 SWAP1 MSTORE ADDRESS SWAP1 PUSH4 0xCA66D9A8 SWAP1 PUSH1 0x64 ADD PUSH2 0x69A JUMP JUMPDEST PUSH32 0xF0C57E16840DF040F15088DC2F81FE391C3923BEC73E23A9662EFC9C229C6A00 DUP1 SLOAD PUSH9 0x10000000000000000 DUP2 DIV PUSH1 0xFF AND ISZERO SWAP1 PUSH8 0xFFFFFFFFFFFFFFFF AND PUSH0 DUP2 ISZERO DUP1 ISZERO PUSH2 0x108A JUMPI POP DUP3 JUMPDEST SWAP1 POP PUSH0 DUP3 PUSH8 0xFFFFFFFFFFFFFFFF AND PUSH1 0x1 EQ DUP1 ISZERO PUSH2 0x10A6 JUMPI POP ADDRESS EXTCODESIZE ISZERO JUMPDEST SWAP1 POP DUP2 ISZERO DUP1 ISZERO PUSH2 0x10B4 JUMPI POP DUP1 ISZERO JUMPDEST ISZERO PUSH2 0x10EB JUMPI PUSH1 0x40 MLOAD PUSH32 0xF92EE8A900000000000000000000000000000000000000000000000000000000 DUP2 MSTORE PUSH1 0x4 ADD PUSH1 0x40 MLOAD DUP1 SWAP2 SUB SWAP1 REVERT JUMPDEST DUP5 SLOAD PUSH32 0xFFFFFFFFFFFFFFFFFFFFFFFFFFFFFFFFFFFFFFFFFFFFFFFF0000000000000000 AND PUSH1 0x1 OR DUP6 SSTORE DUP4 ISZERO PUSH2 0x1136 JUMPI DUP5 SLOAD PUSH9 0xFF0000000000000000 NOT AND PUSH9 0x10000000000000000 OR DUP6 SSTORE JUMPDEST PUSH2 0x113F CALLER PUSH2 0x17E7 JUMP JUMPDEST PUSH2 0x1147 PUSH2 0x17F8 JUMP JUMPDEST PUSH0 DUP1 SLOAD PUSH20 0xFFFFFFFFFFFFFFFFFFFFFFFFFFFFFFFFFFFFFFFF NOT AND PUSH1 0x1 PUSH1 0x1 PUSH1 0xA0 SHL SUB DUP9 AND OR SWAP1 SSTORE DUP4 ISZERO PUSH2 0x11B9 JUMPI DUP5 SLOAD PUSH9 0xFF0000000000000000 NOT AND DUP6 SSTORE PUSH1 0x40 MLOAD PUSH1 0x1 DUP2 MSTORE PUSH32 0xC7F505B2F371AE2175EE4913F4499E1F2633A7B5936321EED1CDAEB6115181D2 SWAP1 PUSH1 0x20 ADD PUSH1 0x40 MLOAD DUP1 SWAP2 SUB SWAP1 LOG1 JUMPDEST POP POP POP POP POP POP JUMP JUMPDEST PUSH1 0x40 MLOAD PUSH4 0x3EB02E9D PUSH1 0xE2 SHL DUP2 MSTORE PUSH1 0x1 PUSH1 0x1 PUSH1 0xA0 SHL SUB DUP1 DUP6 AND PUSH1 0x4 DUP4 ADD MSTORE DUP4 AND PUSH1 0x24 DUP3 ADD MSTORE PUSH1 0x44 DUP2 ADD DUP3 SWAP1 MSTORE PUSH0 SWAP1 DUP2 SWAP1 ADDRESS SWAP1 PUSH4 0xFAC0BA74 SWAP1 PUSH1 0x64 ADD PUSH1 0x20 PUSH1 0x40 MLOAD DUP1 DUP4 SUB DUP2 DUP7 GAS STATICCALL ISZERO DUP1 ISZERO PUSH2 0x1216 JUMPI RETURNDATASIZE PUSH0 DUP1 RETURNDATACOPY RETURNDATASIZE PUSH0 REVERT JUMPDEST POP POP POP POP PUSH1 0x40 MLOAD RETURNDATASIZE PUSH1 0x1F NOT PUSH1 0x1F DUP3 ADD AND DUP3 ADD DUP1 PUSH1 0x40 MSTORE POP DUP2 ADD SWAP1 PUSH2 0x123A SWAP2 SWAP1 PUSH2 0x1D13 JUMP JUMPDEST SWAP1 POP PUSH2 0x12A8 DUP2 DUP6 PUSH1 0x1 PUSH1 0x1 PUSH1 0xA0 SHL SUB AND PUSH4 0x313CE567 PUSH1 0x40 MLOAD DUP2 PUSH4 0xFFFFFFFF AND PUSH1 0xE0 SHL DUP2 MSTORE PUSH1 0x4 ADD PUSH1 0x20 PUSH1 0x40 MLOAD DUP1 DUP4 SUB DUP2 DUP7 GAS STATICCALL ISZERO DUP1 ISZERO PUSH2 0x127C JUMPI RETURNDATASIZE PUSH0 DUP1 RETURNDATACOPY RETURNDATASIZE PUSH0 REVERT JUMPDEST POP POP POP POP PUSH1 0x40 MLOAD RETURNDATASIZE PUSH1 0x1F NOT PUSH1 0x1F DUP3 ADD AND DUP3 ADD DUP1 PUSH1 0x40 MSTORE POP DUP2 ADD SWAP1 PUSH2 0x12A0 SWAP2 SWAP1 PUSH2 0x1CF3 JUMP JUMPDEST PUSH1 0xFF AND PUSH2 0x1800 JUMP JUMPDEST SWAP6 SWAP5 POP POP POP POP POP JUMP JUMPDEST PUSH2 0x12B9 PUSH2 0x16F6 JUMP JUMPDEST PUSH1 0x1 PUSH1 0x1 PUSH1 0xA0 SHL SUB DUP2 AND PUSH2 0x1300 JUMPI PUSH1 0x40 MLOAD PUSH32 0x1E4FBDF700000000000000000000000000000000000000000000000000000000 DUP2 MSTORE PUSH0 PUSH1 0x4 DUP3 ADD MSTORE PUSH1 0x24 ADD JUMPDEST PUSH1 0x40 MLOAD DUP1 SWAP2 SUB SWAP1 REVERT JUMPDEST PUSH2 0x1309 DUP2 PUSH2 0x176A JUMP JUMPDEST POP JUMP JUMPDEST PUSH0 DUP1 SLOAD PUSH1 0x40 DUP1 MLOAD PUSH32 0xA5D2236F00000000000000000000000000000000000000000000000000000000 DUP2 MSTORE SWAP1 MLOAD DUP4 SWAP3 PUSH1 0x1 PUSH1 0x1 PUSH1 0xA0 SHL SUB AND SWAP2 PUSH4 0xA5D2236F SWAP2 PUSH1 0x4 DUP1 DUP4 ADD SWAP3 PUSH1 0x20 SWAP3 SWAP2 SWAP1 DUP3 SWAP1 SUB ADD DUP2 DUP7 GAS STATICCALL ISZERO DUP1 ISZERO PUSH2 0x136C JUMPI RETURNDATASIZE PUSH0 DUP1 RETURNDATACOPY RETURNDATASIZE PUSH0 REVERT JUMPDEST POP POP POP POP PUSH1 0x40 MLOAD RETURNDATASIZE PUSH1 0x1F NOT PUSH1 0x1F DUP3 ADD AND DUP3 ADD DUP1 PUSH1 0x40 MSTORE POP DUP2 ADD SWAP1 PUSH2 0x1390 SWAP2 SWAP1 PUSH2 0x1CD8 JUMP JUMPDEST SWAP1 POP PUSH1 0x1 PUSH1 0x1 PUSH1 0xA0 SHL SUB DUP2 AND PUSH2 0x1402 JUMPI PUSH1 0x40 MLOAD PUSH32 0x8C379A000000000000000000000000000000000000000000000000000000000 DUP2 MSTORE PUSH1 0x20 PUSH1 0x4 DUP3 ADD MSTORE PUSH1 0x14 PUSH1 0x24 DUP3 ADD MSTORE PUSH32 0x5374617469634F7261636C65206E6F7420736574000000000000000000000000 PUSH1 0x44 DUP3 ADD MSTORE PUSH1 0x64 ADD PUSH2 0x12F7 JUMP JUMPDEST PUSH1 0x40 MLOAD PUSH32 0x757BC8100000000000000000000000000000000000000000000000000000000 DUP2 MSTORE PUSH16 0xFFFFFFFFFFFFFFFFFFFFFFFFFFFFFFFF DUP5 AND PUSH1 0x4 DUP3 ADD MSTORE PUSH1 0x1 PUSH1 0x1 PUSH1 0xA0 SHL SUB DUP7 DUP2 AND PUSH1 0x24 DUP4 ADD MSTORE DUP6 DUP2 AND PUSH1 0x44 DUP4 ADD MSTORE PUSH1 0x3C PUSH1 0x64 DUP4 ADD MSTORE DUP3 AND SWAP1 PUSH4 0x757BC81 SWAP1 PUSH1 0x84 ADD PUSH0 PUSH1 0x40 MLOAD DUP1 DUP4 SUB DUP2 DUP7 GAS STATICCALL ISZERO DUP1 ISZERO PUSH2 0x1485 JUMPI RETURNDATASIZE PUSH0 DUP1 RETURNDATACOPY RETURNDATASIZE PUSH0 REVERT JUMPDEST POP POP POP POP PUSH1 0x40 MLOAD RETURNDATASIZE PUSH0 DUP3 RETURNDATACOPY PUSH1 0x1F RETURNDATASIZE SWAP1 DUP2 ADD PUSH1 0x1F NOT AND DUP3 ADD PUSH1 0x40 MSTORE PUSH2 0x14AC SWAP2 SWAP1 DUP2 ADD SWAP1 PUSH2 0x1E7B JUMP JUMPDEST POP SWAP6 SWAP5 POP POP POP POP POP JUMP JUMPDEST ADDRESS PUSH1 0x1 PUSH1 0x1 PUSH1 0xA0 SHL SUB PUSH32 0x0 AND EQ DUP1 PUSH2 0x154F JUMPI POP PUSH32 0x0 PUSH1 0x1 PUSH1 0x1 PUSH1 0xA0 SHL SUB AND PUSH2 0x1543 PUSH32 0x360894A13BA1A3210667C828492DB98DCA3E2076CC3735A920A3CA505D382BBC SLOAD PUSH1 0x1 PUSH1 0x1 PUSH1 0xA0 SHL SUB AND SWAP1 JUMP JUMPDEST PUSH1 0x1 PUSH1 0x1 PUSH1 0xA0 SHL SUB AND EQ ISZERO JUMPDEST ISZERO PUSH2 0x83A JUMPI PUSH1 0x40 MLOAD PUSH32 0xE07C8DBA00000000000000000000000000000000000000000000000000000000 DUP2 MSTORE PUSH1 0x4 ADD PUSH1 0x40 MLOAD DUP1 SWAP2 SUB SWAP1 REVERT JUMPDEST PUSH2 0x1309 PUSH2 0x16F6 JUMP JUMPDEST DUP2 PUSH1 0x1 PUSH1 0x1 PUSH1 0xA0 SHL SUB AND PUSH4 0x52D1902D PUSH1 0x40 MLOAD DUP2 PUSH4 0xFFFFFFFF AND PUSH1 0xE0 SHL DUP2 MSTORE PUSH1 0x4 ADD PUSH1 0x20 PUSH1 0x40 MLOAD DUP1 DUP4 SUB DUP2 DUP7 GAS STATICCALL SWAP3 POP POP POP DUP1 ISZERO PUSH2 0x15E8 JUMPI POP PUSH1 0x40 DUP1 MLOAD PUSH1 0x1F RETURNDATASIZE SWAP1 DUP2 ADD PUSH1 0x1F NOT AND DUP3 ADD SWAP1 SWAP3 MSTORE PUSH2 0x15E5 SWAP2 DUP2 ADD SWAP1 PUSH2 0x1D13 JUMP JUMPDEST PUSH1 0x1 JUMPDEST PUSH2 0x1629 JUMPI PUSH1 0x40 MLOAD PUSH32 0x4C9C8CE300000000000000000000000000000000000000000000000000000000 DUP2 MSTORE PUSH1 0x1 PUSH1 0x1 PUSH1 0xA0 SHL SUB DUP4 AND PUSH1 0x4 DUP3 ADD MSTORE PUSH1 0x24 ADD PUSH2 0x12F7 JUMP JUMPDEST PUSH32 0x360894A13BA1A3210667C828492DB98DCA3E2076CC3735A920A3CA505D382BBC DUP2 EQ PUSH2 0x1685 JUMPI PUSH1 0x40 MLOAD PUSH32 0xAA1D49A400000000000000000000000000000000000000000000000000000000 DUP2 MSTORE PUSH1 0x4 DUP2 ADD DUP3 SWAP1 MSTORE PUSH1 0x24 ADD PUSH2 0x12F7 JUMP JUMPDEST PUSH2 0x168F DUP4 DUP4 PUSH2 0x182A JUMP JUMPDEST POP POP POP JUMP JUMPDEST ADDRESS PUSH1 0x1 PUSH1 0x1 PUSH1 0xA0 SHL SUB PUSH32 0x0 AND EQ PUSH2 0x83A JUMPI PUSH1 0x40 MLOAD PUSH32 0xE07C8DBA00000000000000000000000000000000000000000000000000000000 DUP2 MSTORE PUSH1 0x4 ADD PUSH1 0x40 MLOAD DUP1 SWAP2 SUB SWAP1 REVERT JUMPDEST CALLER PUSH2 0x1728 PUSH32 0x9016D09D72D40FDAE2FD8CEAC6B6234C7706214FD39C1CD1E609A0528C199300 SLOAD PUSH1 0x1 PUSH1 0x1 PUSH1 0xA0 SHL SUB AND SWAP1 JUMP JUMPDEST PUSH1 0x1 PUSH1 0x1 PUSH1 0xA0 SHL SUB AND EQ PUSH2 0x83A JUMPI PUSH1 0x40 MLOAD PUSH32 0x118CDAA700000000000000000000000000000000000000000000000000000000 DUP2 MSTORE CALLER PUSH1 0x4 DUP3 ADD MSTORE PUSH1 0x24 ADD PUSH2 0x12F7 JUMP JUMPDEST PUSH32 0x9016D09D72D40FDAE2FD8CEAC6B6234C7706214FD39C1CD1E609A0528C199300 DUP1 SLOAD PUSH20 0xFFFFFFFFFFFFFFFFFFFFFFFFFFFFFFFFFFFFFFFF NOT DUP2 AND PUSH1 0x1 PUSH1 0x1 PUSH1 0xA0 SHL SUB DUP5 DUP2 AND SWAP2 DUP3 OR DUP5 SSTORE PUSH1 0x40 MLOAD SWAP3 AND SWAP2 DUP3 SWAP1 PUSH32 0x8BE0079C531659141344CD1FD0A4F28419497F9722A3DAAFE3B4186F6B6457E0 SWAP1 PUSH0 SWAP1 LOG3 POP POP POP JUMP JUMPDEST PUSH2 0x17EF PUSH2 0x187F JUMP JUMPDEST PUSH2 0x1309 DUP2 PUSH2 0x18E6 JUMP JUMPDEST PUSH2 0x83A PUSH2 0x187F JUMP JUMPDEST PUSH0 PUSH2 0x180C DUP3 PUSH1 0x12 PUSH2 0x1F34 JUMP JUMPDEST PUSH2 0x1817 SWAP1 PUSH1 0xA PUSH2 0x1F47 JUMP JUMPDEST PUSH2 0x1821 SWAP1 DUP5 PUSH2 0x1E2C JUMP JUMPDEST SWAP1 POP JUMPDEST SWAP3 SWAP2 POP POP JUMP JUMPDEST PUSH2 0x1833 DUP3 PUSH2 0x18EE JUMP JUMPDEST PUSH1 0x40 MLOAD PUSH1 0x1 PUSH1 0x1 PUSH1 0xA0 SHL SUB DUP4 AND SWAP1 PUSH32 0xBC7CD75A20EE27FD9ADEBAB32041F755214DBC6BFFA90CC0225B39DA2E5C2D3B SWAP1 PUSH0 SWAP1 LOG2 DUP1 MLOAD ISZERO PUSH2 0x1877 JUMPI PUSH2 0x168F DUP3 DUP3 PUSH2 0x198A JUMP JUMPDEST PUSH2 0x7F7 PUSH2 0x19F3 JUMP JUMPDEST PUSH32 0xF0C57E16840DF040F15088DC2F81FE391C3923BEC73E23A9662EFC9C229C6A00 SLOAD PUSH9 0x10000000000000000 SWAP1 DIV PUSH1 0xFF AND PUSH2 0x83A JUMPI PUSH1 0x40 MLOAD PUSH32 0xD7E6BCF800000000000000000000000000000000000000000000000000000000 DUP2 MSTORE PUSH1 0x4 ADD PUSH1 0x40 MLOAD DUP1 SWAP2 SUB SWAP1 REVERT JUMPDEST PUSH2 0x12B9 PUSH2 0x187F JUMP JUMPDEST DUP1 PUSH1 0x1 PUSH1 0x1 PUSH1 0xA0 SHL SUB AND EXTCODESIZE PUSH0 SUB PUSH2 0x193C JUMPI PUSH1 0x40 MLOAD PUSH32 0x4C9C8CE300000000000000000000000000000000000000000000000000000000 DUP2 MSTORE PUSH1 0x1 PUSH1 0x1 PUSH1 0xA0 SHL SUB DUP3 AND PUSH1 0x4 DUP3 ADD MSTORE PUSH1 0x24 ADD PUSH2 0x12F7 JUMP JUMPDEST PUSH32 0x360894A13BA1A3210667C828492DB98DCA3E2076CC3735A920A3CA505D382BBC DUP1 SLOAD PUSH20 0xFFFFFFFFFFFFFFFFFFFFFFFFFFFFFFFFFFFFFFFF NOT AND PUSH1 0x1 PUSH1 0x1 PUSH1 0xA0 SHL SUB SWAP3 SWAP1 SWAP3 AND SWAP2 SWAP1 SWAP2 OR SWAP1 SSTORE JUMP JUMPDEST PUSH1 0x60 PUSH0 DUP1 DUP5 PUSH1 0x1 PUSH1 0x1 PUSH1 0xA0 SHL SUB AND DUP5 PUSH1 0x40 MLOAD PUSH2 0x19A6 SWAP2 SWAP1 PUSH2 0x1F52 JUMP JUMPDEST PUSH0 PUSH1 0x40 MLOAD DUP1 DUP4 SUB DUP2 DUP6 GAS DELEGATECALL SWAP2 POP POP RETURNDATASIZE DUP1 PUSH0 DUP2 EQ PUSH2 0x19DE JUMPI PUSH1 0x40 MLOAD SWAP2 POP PUSH1 0x1F NOT PUSH1 0x3F RETURNDATASIZE ADD AND DUP3 ADD PUSH1 0x40 MSTORE RETURNDATASIZE DUP3 MSTORE RETURNDATASIZE PUSH0 PUSH1 0x20 DUP5 ADD RETURNDATACOPY PUSH2 0x19E3 JUMP JUMPDEST PUSH1 0x60 SWAP2 POP JUMPDEST POP SWAP2 POP SWAP2 POP PUSH2 0x12A8 DUP6 DUP4 DUP4 PUSH2 0x1A2B JUMP JUMPDEST CALLVALUE ISZERO PUSH2 0x83A JUMPI PUSH1 0x40 MLOAD PUSH32 0xB398979F00000000000000000000000000000000000000000000000000000000 DUP2 MSTORE PUSH1 0x4 ADD PUSH1 0x40 MLOAD DUP1 SWAP2 SUB SWAP1 REVERT JUMPDEST PUSH1 0x60 DUP3 PUSH2 0x1A40 JUMPI PUSH2 0x1A3B DUP3 PUSH2 0x1AA0 JUMP JUMPDEST PUSH2 0x618 JUMP JUMPDEST DUP2 MLOAD ISZERO DUP1 ISZERO PUSH2 0x1A57 JUMPI POP PUSH1 0x1 PUSH1 0x1 PUSH1 0xA0 SHL SUB DUP5 AND EXTCODESIZE ISZERO JUMPDEST ISZERO PUSH2 0x1A99 JUMPI PUSH1 0x40 MLOAD PUSH32 0x9996B31500000000000000000000000000000000000000000000000000000000 DUP2 MSTORE PUSH1 0x1 PUSH1 0x1 PUSH1 0xA0 SHL SUB DUP6 AND PUSH1 0x4 DUP3 ADD MSTORE PUSH1 0x24 ADD PUSH2 0x12F7 JUMP JUMPDEST POP DUP1 PUSH2 0x618 JUMP JUMPDEST DUP1 MLOAD ISZERO PUSH2 0x1AB0 JUMPI DUP1 MLOAD DUP1 DUP3 PUSH1 0x20 ADD REVERT JUMPDEST PUSH1 0x40 MLOAD PUSH32 0x1425EA4200000000000000000000000000000000000000000000000000000000 DUP2 MSTORE PUSH1 0x4 ADD PUSH1 0x40 MLOAD DUP1 SWAP2 SUB SWAP1 REVERT JUMPDEST PUSH1 0x1 PUSH1 0x1 PUSH1 0xA0 SHL SUB DUP2 AND DUP2 EQ PUSH2 0x1309 JUMPI PUSH0 DUP1 REVERT JUMPDEST PUSH0 DUP1 PUSH0 PUSH1 0x60 DUP5 DUP7 SUB SLT ISZERO PUSH2 0x1B08 JUMPI PUSH0 DUP1 REVERT JUMPDEST DUP4 CALLDATALOAD PUSH2 0x1B13 DUP2 PUSH2 0x1AE2 JUMP JUMPDEST SWAP3 POP PUSH1 0x20 DUP5 ADD CALLDATALOAD PUSH2 0x1B23 DUP2 PUSH2 0x1AE2 JUMP JUMPDEST SWAP3 SWAP6 SWAP3 SWAP5 POP POP POP PUSH1 0x40 SWAP2 SWAP1 SWAP2 ADD CALLDATALOAD SWAP1 JUMP JUMPDEST PUSH4 0x4E487B71 PUSH1 0xE0 SHL PUSH0 MSTORE PUSH1 0x41 PUSH1 0x4 MSTORE PUSH1 0x24 PUSH0 REVERT JUMPDEST PUSH1 0x40 MLOAD PUSH1 0x1F DUP3 ADD PUSH1 0x1F NOT AND DUP2 ADD PUSH8 0xFFFFFFFFFFFFFFFF DUP2 GT DUP3 DUP3 LT OR ISZERO PUSH2 0x1B71 JUMPI PUSH2 0x1B71 PUSH2 0x1B34 JUMP JUMPDEST PUSH1 0x40 MSTORE SWAP2 SWAP1 POP JUMP JUMPDEST PUSH0 DUP1 PUSH1 0x40 DUP4 DUP6 SUB SLT ISZERO PUSH2 0x1B8A JUMPI PUSH0 DUP1 REVERT JUMPDEST DUP3 CALLDATALOAD PUSH2 0x1B95 DUP2 PUSH2 0x1AE2 JUMP JUMPDEST SWAP2 POP PUSH1 0x20 DUP4 DUP2 ADD CALLDATALOAD PUSH8 0xFFFFFFFFFFFFFFFF DUP1 DUP3 GT ISZERO PUSH2 0x1BB2 JUMPI PUSH0 DUP1 REVERT JUMPDEST DUP2 DUP7 ADD SWAP2 POP DUP7 PUSH1 0x1F DUP4 ADD SLT PUSH2 0x1BC5 JUMPI PUSH0 DUP1 REVERT JUMPDEST DUP2 CALLDATALOAD DUP2 DUP2 GT ISZERO PUSH2 0x1BD7 JUMPI PUSH2 0x1BD7 PUSH2 0x1B34 JUMP JUMPDEST PUSH2 0x1BE9 DUP5 PUSH1 0x1F NOT PUSH1 0x1F DUP5 ADD AND ADD PUSH2 0x1B48 JUMP JUMPDEST SWAP2 POP DUP1 DUP3 MSTORE DUP8 DUP5 DUP3 DUP6 ADD ADD GT ISZERO PUSH2 0x1BFE JUMPI PUSH0 DUP1 REVERT JUMPDEST DUP1 DUP5 DUP5 ADD DUP6 DUP5 ADD CALLDATACOPY PUSH0 DUP5 DUP3 DUP5 ADD ADD MSTORE POP DUP1 SWAP4 POP POP POP POP SWAP3 POP SWAP3 SWAP1 POP JUMP JUMPDEST PUSH0 DUP1 PUSH1 0x40 DUP4 DUP6 SUB SLT ISZERO PUSH2 0x1C2C JUMPI PUSH0 DUP1 REVERT JUMPDEST DUP3 CALLDATALOAD PUSH2 0x1C37 DUP2 PUSH2 0x1AE2 JUMP JUMPDEST SWAP5 PUSH1 0x20 SWAP4 SWAP1 SWAP4 ADD CALLDATALOAD SWAP4 POP POP POP JUMP JUMPDEST PUSH0 DUP1 PUSH1 0x40 DUP4 DUP6 SUB SLT ISZERO PUSH2 0x1C56 JUMPI PUSH0 DUP1 REVERT JUMPDEST DUP3 CALLDATALOAD PUSH2 0x1C61 DUP2 PUSH2 0x1AE2 JUMP JUMPDEST SWAP2 POP PUSH1 0x20 DUP4 ADD CALLDATALOAD PUSH8 0xFFFFFFFFFFFFFFFF DUP2 AND DUP2 EQ PUSH2 0x1C7D JUMPI PUSH0 DUP1 REVERT JUMPDEST DUP1 SWAP2 POP POP SWAP3 POP SWAP3 SWAP1 POP JUMP JUMPDEST PUSH1 0x20 DUP2 MSTORE PUSH0 DUP3 MLOAD DUP1 PUSH1 0x20 DUP5 ADD MSTORE DUP1 PUSH1 0x20 DUP6 ADD PUSH1 0x40 DUP6 ADD MCOPY PUSH0 PUSH1 0x40 DUP3 DUP6 ADD ADD MSTORE PUSH1 0x40 PUSH1 0x1F NOT PUSH1 0x1F DUP4 ADD AND DUP5 ADD ADD SWAP2 POP POP SWAP3 SWAP2 POP POP JUMP JUMPDEST PUSH0 PUSH1 0x20 DUP3 DUP5 SUB SLT ISZERO PUSH2 0x1CCD JUMPI PUSH0 DUP1 REVERT JUMPDEST DUP2 CALLDATALOAD PUSH2 0x618 DUP2 PUSH2 0x1AE2 JUMP JUMPDEST PUSH0 PUSH1 0x20 DUP3 DUP5 SUB SLT ISZERO PUSH2 0x1CE8 JUMPI PUSH0 DUP1 REVERT JUMPDEST DUP2 MLOAD PUSH2 0x618 DUP2 PUSH2 0x1AE2 JUMP JUMPDEST PUSH0 PUSH1 0x20 DUP3 DUP5 SUB SLT ISZERO PUSH2 0x1D03 JUMPI PUSH0 DUP1 REVERT JUMPDEST DUP2 MLOAD PUSH1 0xFF DUP2 AND DUP2 EQ PUSH2 0x618 JUMPI PUSH0 DUP1 REVERT JUMPDEST PUSH0 PUSH1 0x20 DUP3 DUP5 SUB SLT ISZERO PUSH2 0x1D23 JUMPI PUSH0 DUP1 REVERT JUMPDEST POP MLOAD SWAP2 SWAP1 POP JUMP JUMPDEST PUSH4 0x4E487B71 PUSH1 0xE0 SHL PUSH0 MSTORE PUSH1 0x11 PUSH1 0x4 MSTORE PUSH1 0x24 PUSH0 REVERT JUMPDEST PUSH1 0x1 DUP2 DUP2 JUMPDEST DUP1 DUP6 GT ISZERO PUSH2 0x1D78 JUMPI DUP2 PUSH0 NOT DIV DUP3 GT ISZERO PUSH2 0x1D5E JUMPI PUSH2 0x1D5E PUSH2 0x1D2A JUMP JUMPDEST DUP1 DUP6 AND ISZERO PUSH2 0x1D6B JUMPI SWAP2 DUP2 MUL SWAP2 JUMPDEST SWAP4 DUP5 SHR SWAP4 SWAP1 DUP1 MUL SWAP1 PUSH2 0x1D43 JUMP JUMPDEST POP SWAP3 POP SWAP3 SWAP1 POP JUMP JUMPDEST PUSH0 DUP3 PUSH2 0x1D8E JUMPI POP PUSH1 0x1 PUSH2 0x1824 JUMP JUMPDEST DUP2 PUSH2 0x1D9A JUMPI POP PUSH0 PUSH2 0x1824 JUMP JUMPDEST DUP2 PUSH1 0x1 DUP2 EQ PUSH2 0x1DB0 JUMPI PUSH1 0x2 DUP2 EQ PUSH2 0x1DBA JUMPI PUSH2 0x1DD6 JUMP JUMPDEST PUSH1 0x1 SWAP2 POP POP PUSH2 0x1824 JUMP JUMPDEST PUSH1 0xFF DUP5 GT ISZERO PUSH2 0x1DCB JUMPI PUSH2 0x1DCB PUSH2 0x1D2A JUMP JUMPDEST POP POP PUSH1 0x1 DUP3 SHL PUSH2 0x1824 JUMP JUMPDEST POP PUSH1 0x20 DUP4 LT PUSH2 0x133 DUP4 LT AND PUSH1 0x4E DUP5 LT PUSH1 0xB DUP5 LT AND OR ISZERO PUSH2 0x1DF9 JUMPI POP DUP2 DUP2 EXP PUSH2 0x1824 JUMP JUMPDEST PUSH2 0x1E03 DUP4 DUP4 PUSH2 0x1D3E JUMP JUMPDEST DUP1 PUSH0 NOT DIV DUP3 GT ISZERO PUSH2 0x1E16 JUMPI PUSH2 0x1E16 PUSH2 0x1D2A JUMP JUMPDEST MUL SWAP4 SWAP3 POP POP POP JUMP JUMPDEST PUSH0 PUSH2 0x1821 PUSH1 0xFF DUP5 AND DUP4 PUSH2 0x1D80 JUMP JUMPDEST DUP1 DUP3 MUL DUP2 ISZERO DUP3 DUP3 DIV DUP5 EQ OR PUSH2 0x1824 JUMPI PUSH2 0x1824 PUSH2 0x1D2A JUMP JUMPDEST PUSH0 DUP3 PUSH2 0x1E5D JUMPI PUSH4 0x4E487B71 PUSH1 0xE0 SHL PUSH0 MSTORE PUSH1 0x12 PUSH1 0x4 MSTORE PUSH1 0x24 PUSH0 REVERT JUMPDEST POP DIV SWAP1 JUMP JUMPDEST PUSH1 0xFF DUP3 DUP2 AND DUP3 DUP3 AND SUB SWAP1 DUP2 GT ISZERO PUSH2 0x1824 JUMPI PUSH2 0x1824 PUSH2 0x1D2A JUMP JUMPDEST PUSH0 DUP1 PUSH1 0x40 DUP4 DUP6 SUB SLT ISZERO PUSH2 0x1E8C JUMPI PUSH0 DUP1 REVERT JUMPDEST DUP3 MLOAD SWAP2 POP PUSH1 0x20 DUP1 DUP5 ADD MLOAD PUSH8 0xFFFFFFFFFFFFFFFF DUP1 DUP3 GT ISZERO PUSH2 0x1EAB JUMPI PUSH0 DUP1 REVERT JUMPDEST DUP2 DUP7 ADD SWAP2 POP DUP7 PUSH1 0x1F DUP4 ADD SLT PUSH2 0x1EBE JUMPI PUSH0 DUP1 REVERT JUMPDEST DUP2 MLOAD DUP2 DUP2 GT ISZERO PUSH2 0x1ED0 JUMPI PUSH2 0x1ED0 PUSH2 0x1B34 JUMP JUMPDEST DUP1 PUSH1 0x5 SHL SWAP2 POP PUSH2 0x1EE1 DUP5 DUP4 ADD PUSH2 0x1B48 JUMP JUMPDEST DUP2 DUP2 MSTORE SWAP2 DUP4 ADD DUP5 ADD SWAP2 DUP5 DUP2 ADD SWAP1 DUP10 DUP5 GT ISZERO PUSH2 0x1EFA JUMPI PUSH0 DUP1 REVERT JUMPDEST SWAP4 DUP6 ADD SWAP4 JUMPDEST DUP4 DUP6 LT ISZERO PUSH2 0x1F24 JUMPI DUP5 MLOAD SWAP3 POP PUSH2 0x1F14 DUP4 PUSH2 0x1AE2 JUMP JUMPDEST DUP3 DUP3 MSTORE SWAP4 DUP6 ADD SWAP4 SWAP1 DUP6 ADD SWAP1 PUSH2 0x1EFF JUMP JUMPDEST DUP1 SWAP7 POP POP POP POP POP POP POP SWAP3 POP SWAP3 SWAP1 POP JUMP JUMPDEST DUP2 DUP2 SUB DUP2 DUP2 GT ISZERO PUSH2 0x1824 JUMPI PUSH2 0x1824 PUSH2 0x1D2A JUMP JUMPDEST PUSH0 PUSH2 0x1821 DUP4 DUP4 PUSH2 0x1D80 JUMP JUMPDEST PUSH0 DUP3 MLOAD DUP1 PUSH1 0x20 DUP6 ADD DUP5 MCOPY PUSH0 SWAP3 ADD SWAP2 DUP3 MSTORE POP SWAP2 SWAP1 POP JUMP INVALID LOG2 PUSH5 0x6970667358 0x22 SLT KECCAK256 0xC7 0x29 0x22 POP 0xC3 PUSH18 0xBDD092DE358A9E5E5BA9BE503610D9F86D56 SWAP5 MSTORE8 CALLCODE PUSH13 0x55B049B464736F6C6343000819 STOP CALLER "},"gasEstimates":{"creation":{"codeDepositCost":"1618800","executionCost":"infinite","totalCost":"infinite"},"external":{"UPGRADE_INTERFACE_VERSION()":"infinite","convert(address,address,uint256)":"infinite","convertScaled(address,address,uint256)":"infinite","convertScaledWithAgg(address,address,uint256)":"infinite","convertScaledWithStaticOracle(address,address,uint256)":"infinite","convertWithAgg(address,address,uint256)":"infinite","convertWithStaticOracle(address,address,uint256)":"infinite","initialize(address)":"infinite","isYearnVault(address,uint256)":"infinite","owner()":"2353","proxiableUUID()":"infinite","registry()":"2380","reinitialize(address,uint64)":"infinite","renounceOwnership()":"infinite","transferOwnership(address)":"infinite","upgradeToAndCall(address,bytes)":"infinite"},"internal":{"_authorizeUpgrade(address)":"infinite","scaleDown(uint256,uint256)":"infinite","scaleUp(uint256,uint256)":"infinite"}},"methodIdentifiers":{"UPGRADE_INTERFACE_VERSION()":"ad3cb1cc","convert(address,address,uint256)":"248391ff","convertScaled(address,address,uint256)":"b27b5e75","convertScaledWithAgg(address,address,uint256)":"8c41a354","convertScaledWithStaticOracle(address,address,uint256)":"ca66d9a8","convertWithAgg(address,address,uint256)":"1f0e3cd2","convertWithStaticOracle(address,address,uint256)":"fac0ba74","initialize(address)":"c4d66de8","isYearnVault(address,uint256)":"805df6c4","owner()":"8da5cb5b","proxiableUUID()":"52d1902d","registry()":"7b103999","reinitialize(address,uint64)":"8f2248bc","renounceOwnership()":"715018a6","transferOwnership(address)":"f2fde38b","upgradeToAndCall(address,bytes)":"4f1ef286"}},"storageLayout":{"storage":[{"astId":2885,"contract":"contracts/oracles/BaluniV1Oracle.sol:BaluniV1Oracle","label":"registry","offset":0,"slot":"0","type":"t_contract(IBaluniV1Registry)2539"}],"types":{"t_contract(IBaluniV1Registry)2539":{"encoding":"inplace","label":"contract IBaluniV1Registry","numberOfBytes":"20"}}},"userdoc":{"kind":"user","methods":{},"version":1}}}}