{"contracts/libs/DSMath.sol":{"DSMath":{"abi":[{"inputs":[],"name":"RAY","outputs":[{"internalType":"uint256","name":"","type":"uint256"}],"stateMutability":"view","type":"function"},{"inputs":[],"name":"WAD","outputs":[{"internalType":"uint256","name":"","type":"uint256"}],"stateMutability":"view","type":"function"}],"devdoc":{"kind":"dev","methods":{},"version":1},"evm":{"bytecode":{"linkReferences":{},"object":"60a86032600b8282823980515f1a607314602657634e487b7160e01b5f525f60045260245ffd5b305f52607381538281f3fe7300000000000000000000000000000000000000003014608060405260043610603c575f3560e01c8063552033c41460405780636a146024146064575b5f80fd5b60526b033b2e3c9fd0803ce800000081565b60405190815260200160405180910390f35b6052670de0b6b3a76400008156fea26469706673582212202fda6cb9fce9e465fc2a86db5e53e6197def5a27618a2f28b4fa596bb96cad6e64736f6c63430008190033","opcodes":"PUSH1 0xA8 PUSH1 0x32 PUSH1 0xB DUP3 DUP3 DUP3 CODECOPY DUP1 MLOAD PUSH0 BYTE PUSH1 0x73 EQ PUSH1 0x26 JUMPI PUSH4 0x4E487B71 PUSH1 0xE0 SHL PUSH0 MSTORE PUSH0 PUSH1 0x4 MSTORE PUSH1 0x24 PUSH0 REVERT JUMPDEST ADDRESS PUSH0 MSTORE PUSH1 0x73 DUP2 MSTORE8 DUP3 DUP2 RETURN INVALID PUSH20 0x0 ADDRESS EQ PUSH1 0x80 PUSH1 0x40 MSTORE PUSH1 0x4 CALLDATASIZE LT PUSH1 0x3C JUMPI PUSH0 CALLDATALOAD PUSH1 0xE0 SHR DUP1 PUSH4 0x552033C4 EQ PUSH1 0x40 JUMPI DUP1 PUSH4 0x6A146024 EQ PUSH1 0x64 JUMPI JUMPDEST PUSH0 DUP1 REVERT JUMPDEST PUSH1 0x52 PUSH12 0x33B2E3C9FD0803CE8000000 DUP2 JUMP JUMPDEST PUSH1 0x40 MLOAD SWAP1 DUP2 MSTORE PUSH1 0x20 ADD PUSH1 0x40 MLOAD DUP1 SWAP2 SUB SWAP1 RETURN JUMPDEST PUSH1 0x52 PUSH8 0xDE0B6B3A7640000 DUP2 JUMP INVALID LOG2 PUSH5 0x6970667358 0x22 SLT KECCAK256 0x2F 0xDA PUSH13 0xB9FCE9E465FC2A86DB5E53E619 PUSH30 0xEF5A27618A2F28B4FA596BB96CAD6E64736F6C6343000819003300000000 "},"gasEstimates":{"creation":{"codeDepositCost":"33600","executionCost":"114","totalCost":"33714"},"external":{"RAY()":"144","WAD()":"166"},"internal":{"reciprocal(uint256)":"infinite","rmul(uint256,uint256)":"infinite","rpow(uint256,uint256)":"infinite","wdiv(uint256,uint256)":"infinite","wmul(uint256,uint256)":"infinite"}},"methodIdentifiers":{"RAY()":"552033c4","WAD()":"6a146024"}},"storageLayout":{"storage":[],"types":null},"userdoc":{"kind":"user","methods":{},"version":1}}}}