{"contracts/BaluniV1Pool.sol":{"BaluniV1Pool":{"abi":[{"inputs":[{"internalType":"address[]","name":"_assets","type":"address[]"},{"internalType":"uint256[]","name":"_weights","type":"uint256[]"},{"internalType":"uint256","name":"_trigger","type":"uint256"},{"internalType":"address","name":"_registry","type":"address"}],"stateMutability":"nonpayable","type":"constructor"},{"inputs":[{"internalType":"address","name":"spender","type":"address"},{"internalType":"uint256","name":"allowance","type":"uint256"},{"internalType":"uint256","name":"needed","type":"uint256"}],"name":"ERC20InsufficientAllowance","type":"error"},{"inputs":[{"internalType":"address","name":"sender","type":"address"},{"internalType":"uint256","name":"balance","type":"uint256"},{"internalType":"uint256","name":"needed","type":"uint256"}],"name":"ERC20InsufficientBalance","type":"error"},{"inputs":[{"internalType":"address","name":"approver","type":"address"}],"name":"ERC20InvalidApprover","type":"error"},{"inputs":[{"internalType":"address","name":"receiver","type":"address"}],"name":"ERC20InvalidReceiver","type":"error"},{"inputs":[{"internalType":"address","name":"sender","type":"address"}],"name":"ERC20InvalidSender","type":"error"},{"inputs":[{"internalType":"address","name":"spender","type":"address"}],"name":"ERC20InvalidSpender","type":"error"},{"inputs":[],"name":"ReentrancyGuardReentrantCall","type":"error"},{"anonymous":false,"inputs":[{"indexed":true,"internalType":"address","name":"owner","type":"address"},{"indexed":true,"internalType":"address","name":"spender","type":"address"},{"indexed":false,"internalType":"uint256","name":"value","type":"uint256"}],"name":"Approval","type":"event"},{"anonymous":false,"inputs":[{"indexed":true,"internalType":"address","name":"user","type":"address"},{"indexed":false,"internalType":"uint256","name":"sharesBurned","type":"uint256"}],"name":"Burn","type":"event"},{"anonymous":false,"inputs":[{"indexed":true,"internalType":"address","name":"to","type":"address"},{"indexed":false,"internalType":"uint256","name":"sharesMinted","type":"uint256"}],"name":"Mint","type":"event"},{"anonymous":false,"inputs":[{"indexed":true,"internalType":"address","name":"by","type":"address"},{"indexed":false,"internalType":"address[]","name":"assets","type":"address[]"}],"name":"RebalancePerformed","type":"event"},{"anonymous":false,"inputs":[{"indexed":true,"internalType":"address","name":"user","type":"address"},{"indexed":true,"internalType":"address","name":"fromToken","type":"address"},{"indexed":true,"internalType":"address","name":"toToken","type":"address"},{"indexed":false,"internalType":"uint256","name":"amountIn","type":"uint256"},{"indexed":false,"internalType":"uint256","name":"amountOut","type":"uint256"}],"name":"Swap","type":"event"},{"anonymous":false,"inputs":[{"indexed":true,"internalType":"address","name":"from","type":"address"},{"indexed":true,"internalType":"address","name":"to","type":"address"},{"indexed":false,"internalType":"uint256","name":"value","type":"uint256"}],"name":"Transfer","type":"event"},{"anonymous":false,"inputs":[{"indexed":true,"internalType":"address","name":"user","type":"address"},{"indexed":false,"internalType":"uint256[]","name":"amountsAdded","type":"uint256[]"}],"name":"WeightsRebalanced","type":"event"},{"inputs":[],"name":"ONE","outputs":[{"internalType":"uint256","name":"","type":"uint256"}],"stateMutability":"view","type":"function"},{"inputs":[{"internalType":"address","name":"owner","type":"address"},{"internalType":"address","name":"spender","type":"address"}],"name":"allowance","outputs":[{"internalType":"uint256","name":"","type":"uint256"}],"stateMutability":"view","type":"function"},{"inputs":[{"internalType":"address","name":"spender","type":"address"},{"internalType":"uint256","name":"value","type":"uint256"}],"name":"approve","outputs":[{"internalType":"bool","name":"","type":"bool"}],"stateMutability":"nonpayable","type":"function"},{"inputs":[{"internalType":"uint256","name":"","type":"uint256"}],"name":"assetInfos","outputs":[{"internalType":"address","name":"asset","type":"address"},{"internalType":"uint256","name":"weight","type":"uint256"},{"internalType":"uint256","name":"slippage","type":"uint256"}],"stateMutability":"view","type":"function"},{"inputs":[{"internalType":"uint256","name":"assetIndex","type":"uint256"}],"name":"assetLiquidity","outputs":[{"internalType":"uint256","name":"","type":"uint256"}],"stateMutability":"view","type":"function"},{"inputs":[{"internalType":"address","name":"account","type":"address"}],"name":"balanceOf","outputs":[{"internalType":"uint256","name":"","type":"uint256"}],"stateMutability":"view","type":"function"},{"inputs":[],"name":"baseAsset","outputs":[{"internalType":"address","name":"","type":"address"}],"stateMutability":"view","type":"function"},{"inputs":[{"internalType":"address","name":"to","type":"address"}],"name":"burn","outputs":[{"internalType":"uint256[]","name":"","type":"uint256[]"}],"stateMutability":"nonpayable","type":"function"},{"inputs":[],"name":"computeTotalValuation","outputs":[{"internalType":"uint256","name":"totalVal","type":"uint256"},{"internalType":"uint256[]","name":"valuations","type":"uint256[]"}],"stateMutability":"view","type":"function"},{"inputs":[],"name":"decimals","outputs":[{"internalType":"uint8","name":"","type":"uint8"}],"stateMutability":"view","type":"function"},{"inputs":[{"internalType":"address","name":"fromToken","type":"address"},{"internalType":"address","name":"toToken","type":"address"},{"internalType":"uint256","name":"amount","type":"uint256"}],"name":"getAmountOut","outputs":[{"internalType":"uint256","name":"","type":"uint256"}],"stateMutability":"view","type":"function"},{"inputs":[{"internalType":"address","name":"fromToken","type":"address"},{"internalType":"address","name":"toToken","type":"address"},{"internalType":"uint256","name":"amount","type":"uint256"}],"name":"getAmountOutWithSlippage","outputs":[{"internalType":"uint256","name":"","type":"uint256"}],"stateMutability":"view","type":"function"},{"inputs":[{"internalType":"address","name":"asset","type":"address"}],"name":"getAssetReserve","outputs":[{"internalType":"uint256","name":"","type":"uint256"}],"stateMutability":"view","type":"function"},{"inputs":[],"name":"getAssets","outputs":[{"internalType":"address[]","name":"","type":"address[]"}],"stateMutability":"view","type":"function"},{"inputs":[],"name":"getDeviation","outputs":[{"internalType":"bool[]","name":"directions","type":"bool[]"},{"internalType":"uint256[]","name":"deviations","type":"uint256[]"}],"stateMutability":"view","type":"function"},{"inputs":[],"name":"getReserves","outputs":[{"internalType":"uint256[]","name":"","type":"uint256[]"}],"stateMutability":"view","type":"function"},{"inputs":[{"internalType":"address","name":"token","type":"address"}],"name":"getSlippage","outputs":[{"internalType":"uint256","name":"","type":"uint256"}],"stateMutability":"view","type":"function"},{"inputs":[],"name":"getSlippages","outputs":[{"internalType":"uint256[]","name":"","type":"uint256[]"}],"stateMutability":"view","type":"function"},{"inputs":[{"internalType":"address","name":"token","type":"address"}],"name":"getTokenWeight","outputs":[{"internalType":"uint256","name":"","type":"uint256"}],"stateMutability":"view","type":"function"},{"inputs":[],"name":"getWeights","outputs":[{"internalType":"uint256[]","name":"","type":"uint256[]"}],"stateMutability":"view","type":"function"},{"inputs":[],"name":"isRebalanceNeeded","outputs":[{"internalType":"bool","name":"","type":"bool"}],"stateMutability":"view","type":"function"},{"inputs":[],"name":"liquidity","outputs":[{"internalType":"uint256","name":"","type":"uint256"}],"stateMutability":"view","type":"function"},{"inputs":[{"internalType":"address","name":"to","type":"address"},{"internalType":"uint256[]","name":"amounts","type":"uint256[]"}],"name":"mint","outputs":[{"internalType":"uint256","name":"","type":"uint256"}],"stateMutability":"nonpayable","type":"function"},{"inputs":[],"name":"name","outputs":[{"internalType":"string","name":"","type":"string"}],"stateMutability":"view","type":"function"},{"inputs":[],"name":"performRebalanceIfNeeded","outputs":[{"internalType":"uint256[]","name":"amountsToAdd","type":"uint256[]"},{"internalType":"uint256[]","name":"amountsToRemove","type":"uint256[]"}],"stateMutability":"nonpayable","type":"function"},{"inputs":[{"internalType":"address","name":"receiver","type":"address"}],"name":"rebalanceWeights","outputs":[{"internalType":"uint256[]","name":"","type":"uint256[]"}],"stateMutability":"nonpayable","type":"function"},{"inputs":[],"name":"registry","outputs":[{"internalType":"contract IBaluniV1Registry","name":"","type":"address"}],"stateMutability":"view","type":"function"},{"inputs":[{"internalType":"address","name":"fromToken","type":"address"},{"internalType":"address","name":"toToken","type":"address"},{"internalType":"uint256","name":"amount","type":"uint256"},{"internalType":"address","name":"receiver","type":"address"}],"name":"swap","outputs":[{"internalType":"uint256","name":"amountOut","type":"uint256"}],"stateMutability":"nonpayable","type":"function"},{"inputs":[],"name":"symbol","outputs":[{"internalType":"string","name":"","type":"string"}],"stateMutability":"view","type":"function"},{"inputs":[],"name":"totalSupply","outputs":[{"internalType":"uint256","name":"","type":"uint256"}],"stateMutability":"view","type":"function"},{"inputs":[{"internalType":"address","name":"to","type":"address"},{"internalType":"uint256","name":"value","type":"uint256"}],"name":"transfer","outputs":[{"internalType":"bool","name":"","type":"bool"}],"stateMutability":"nonpayable","type":"function"},{"inputs":[{"internalType":"address","name":"from","type":"address"},{"internalType":"address","name":"to","type":"address"},{"internalType":"uint256","name":"value","type":"uint256"}],"name":"transferFrom","outputs":[{"internalType":"bool","name":"","type":"bool"}],"stateMutability":"nonpayable","type":"function"},{"inputs":[],"name":"trigger","outputs":[{"internalType":"uint256","name":"","type":"uint256"}],"stateMutability":"view","type":"function"},{"inputs":[],"name":"unitPrice","outputs":[{"internalType":"uint256","name":"","type":"uint256"}],"stateMutability":"view","type":"function"}],"devdoc":{"errors":{"ERC20InsufficientAllowance(address,uint256,uint256)":[{"details":"Indicates a failure with the `spender`’s `allowance`. Used in transfers.","params":{"allowance":"Amount of tokens a `spender` is allowed to operate with.","needed":"Minimum amount required to perform a transfer.","spender":"Address that may be allowed to operate on tokens without being their owner."}}],"ERC20InsufficientBalance(address,uint256,uint256)":[{"details":"Indicates an error related to the current `balance` of a `sender`. Used in transfers.","params":{"balance":"Current balance for the interacting account.","needed":"Minimum amount required to perform a transfer.","sender":"Address whose tokens are being transferred."}}],"ERC20InvalidApprover(address)":[{"details":"Indicates a failure with the `approver` of a token to be approved. Used in approvals.","params":{"approver":"Address initiating an approval operation."}}],"ERC20InvalidReceiver(address)":[{"details":"Indicates a failure with the token `receiver`. Used in transfers.","params":{"receiver":"Address to which tokens are being transferred."}}],"ERC20InvalidSender(address)":[{"details":"Indicates a failure with the token `sender`. Used in transfers.","params":{"sender":"Address whose tokens are being transferred."}}],"ERC20InvalidSpender(address)":[{"details":"Indicates a failure with the `spender` to be approved. Used in approvals.","params":{"spender":"Address that may be allowed to operate on tokens without being their owner."}}],"ReentrancyGuardReentrantCall()":[{"details":"Unauthorized reentrant call."}]},"events":{"Approval(address,address,uint256)":{"details":"Emitted when the allowance of a `spender` for an `owner` is set by a call to {approve}. `value` is the new allowance."},"Transfer(address,address,uint256)":{"details":"Emitted when `value` tokens are moved from one account (`from`) to another (`to`). Note that `value` may be zero."}},"kind":"dev","methods":{"allowance(address,address)":{"details":"See {IERC20-allowance}."},"approve(address,uint256)":{"details":"See {IERC20-approve}. NOTE: If `value` is the maximum `uint256`, the allowance is not updated on `transferFrom`. This is semantically equivalent to an infinite approval. Requirements: - `spender` cannot be the zero address."},"assetLiquidity(uint256)":{"details":"Returns the liquidity of a specific asset in the pool.","params":{"assetIndex":"The index of the asset."},"returns":{"_0":"The liquidity of the asset."}},"balanceOf(address)":{"details":"See {IERC20-balanceOf}."},"burn(address)":{"details":"Burns the pool tokens and transfers the underlying assets to the specified address.","params":{"to":"The address to transfer the underlying assets to."}},"computeTotalValuation()":{"details":"Computes the total valuation of the pool and returns the total valuation and an array of individual valuations.","returns":{"totalVal":"The total valuation of the pool.","valuations":"An array of individual valuations."}},"decimals()":{"details":"Returns the number of decimals used to get its user representation. For example, if `decimals` equals `2`, a balance of `505` tokens should be displayed to a user as `5.05` (`505 / 10 ** 2`). Tokens usually opt for a value of 18, imitating the relationship between Ether and Wei. This is the default value returned by this function, unless it's overridden. NOTE: This information is only used for _display_ purposes: it in no way affects any of the arithmetic of the contract, including {IERC20-balanceOf} and {IERC20-transfer}."},"getAmountOut(address,address,uint256)":{"details":"Calculates the amount of `toToken` that will be received when swapping `fromToken` for `toToken`.","params":{"amount":"The amount of `fromToken` being swapped.","fromToken":"The address of the token being swapped from.","toToken":"The address of the token being swapped to."},"returns":{"_0":"The amount of `toToken` that will be received."}},"getAmountOutWithSlippage(address,address,uint256)":{"details":"Calcola l'importo effettivo di `toToken` ricevuto tenendo conto dello slippage.","params":{"amount":"The amount of `fromToken` being swapped.","fromToken":"The address of the token being swapped from.","toToken":"The address of the token being swapped to."},"returns":{"_0":"The amount of `toToken` received after applying slippage."}},"getAssetReserve(address)":{"details":"Returns the reserve amount of the specified asset.","params":{"asset":"The address of the asset."},"returns":{"_0":"The reserve amount of the asset."}},"getAssets()":{"details":"Retrieves the list of assets in the pool.","returns":{"_0":"An array of addresses representing the assets."}},"getDeviation()":{"details":"Returns the deviation between the current weights and target weights of the assets in the pool.","returns":{"directions":"An array of boolean values indicating whether the current weight is higher (true) or lower (false) than the target weight."}},"getReserves()":{"details":"Returns an array of reserves for each asset in the pool.","returns":{"_0":"An array of reserves."}},"getSlippage(address)":{"details":"Restituisce lo slippage attuale per un dato token.","params":{"token":"The address of the token."},"returns":{"_0":"Lo slippage attuale per il token."}},"getWeights()":{"details":"Retrieves the list of weights associated with the assets in the pool.","returns":{"_0":"An array of uint256 values representing the weights."}},"isRebalanceNeeded()":{"details":"Checks if rebalancing is needed for the pool.","returns":{"_0":"A boolean value indicating whether rebalancing is needed or not."}},"liquidity()":{"details":"Returns the total liquidity of the pool.","returns":{"_0":"The total liquidity of the pool."}},"mint(address,uint256[])":{"details":"Mints new tokens and adds them to the specified address.","params":{"to":"The address to which the new tokens will be minted."},"returns":{"_0":"The amount of tokens minted."}},"name()":{"details":"Returns the name of the token."},"performRebalanceIfNeeded()":{"details":"Performs rebalance"},"rebalanceWeights(address)":{"details":"Rebalances the weights of the pool by calculating the amounts to add for each token, transferring the calculated amounts from the user to the pool, minting the total added liquidity, updating the reserves, and emitting an event to indicate the rebalancing of weights.","params":{"receiver":"The address to receive the minted liquidity tokens."}},"swap(address,address,uint256,address)":{"details":"Swaps `amount` of `fromToken` to `toToken` and transfers the received amount to `receiver`. Requirements: - `fromToken` and `toToken` must be different tokens. - `amount` must be greater than zero. - Sufficient liquidity of `toToken` must be available in the contract. Emits a `Swap` event with the details of the swap. Updates the reserves after the swap.","params":{"amount":"The amount of `fromToken` to swap.","fromToken":"The address of the token to swap from.","receiver":"The address to receive the swapped tokens.","toToken":"The address of the token to swap to."},"returns":{"amountOut":"The amount of `toToken` received after the swap."}},"symbol()":{"details":"Returns the symbol of the token, usually a shorter version of the name."},"totalSupply()":{"details":"See {IERC20-totalSupply}."},"transfer(address,uint256)":{"details":"See {IERC20-transfer}. Requirements: - `to` cannot be the zero address. - the caller must have a balance of at least `value`."},"transferFrom(address,address,uint256)":{"details":"See {IERC20-transferFrom}. Emits an {Approval} event indicating the updated allowance. This is not required by the EIP. See the note at the beginning of {ERC20}. NOTE: Does not update the allowance if the current allowance is the maximum `uint256`. Requirements: - `from` and `to` cannot be the zero address. - `from` must have a balance of at least `value`. - the caller must have allowance for ``from``'s tokens of at least `value`."},"unitPrice()":{"details":"Returns the unit price of the pool.","returns":{"_0":"The unit price of the pool."}}},"version":1},"evm":{"bytecode":{"linkReferences":{},"object":"60806040526512309ce54000600c556007600d5567053b1daa2fd98364600e55670493b9f4e9de52f7600f5566016bcc41e90000601055670de0b6b3a764000060115566470de4df820000601255348015610058575f80fd5b5060405161440f38038061440f83398101604081905261007791610810565b60405180604001604052806009815260200168042616c756e69204c560bc1b81525060405180604001604052806009815260200168042414c554e492d4c560bc1b81525081600390816100ca9190610969565b5060046100d78282610969565b5050600160055550600b80546001600160a01b0319166001600160a01b038316179055670de0b6b3a76400006008555f61011185856102d4565b9050806101655760405162461bcd60e51b815260206004820152601560248201527f496e697469616c697a6174696f6e206661696c6564000000000000000000000060448201526064015b60405180910390fd5b6007839055600b5460408051631bf01e9b60e01b815290516001600160a01b0390921691631bf01e9b916004808201926020929091908290030181865afa1580156101b2573d5f803e3d5ffd5b505050506040513d601f19601f820116820180604052508101906101d69190610a28565b600980546001600160a01b0319166001600160a01b0392909216918217905564e8d4a51000600a5561024a5760405162461bcd60e51b815260206004820152601a60248201527f496e76616c696420626173652061737365742061646472657373000000000000604482015260640161015c565b5f805b85518110156102855785818151811061026857610268610a48565b60200260200101518261027b9190610a5c565b915060010161024d565b5080612710146102c95760405162461bcd60e51b815260206004820152600f60248201526e496e76616c6964207765696768747360881b604482015260640161015c565b505050505050610ab1565b5f80600b5f9054906101000a90046001600160a01b03166001600160a01b031663cff49d686040518163ffffffff1660e01b8152600401602060405180830381865afa158015610326573d5f803e3d5ffd5b505050506040513d601f19601f8201168201806040525081019061034a9190610a28565b90505f6001600160a01b0316600b5f9054906101000a90046001600160a01b03166001600160a01b031663cff49d686040518163ffffffff1660e01b8152600401602060405180830381865afa1580156103a6573d5f803e3d5ffd5b505050506040513d601f19601f820116820180604052508101906103ca9190610a28565b6001600160a01b0316036104205760405162461bcd60e51b815260206004820152601a60248201527f496e76616c696420726562616c616e6365722061646472657373000000000000604482015260640161015c565b825184511461047c5760405162461bcd60e51b815260206004820152602260248201527f41737365747320616e642077656967687473206c656e677468206d69736d61746044820152610c6d60f31b606482015260840161015c565b5f5b8451811015610716575f6001600160a01b03168582815181106104a3576104a3610a48565b60200260200101516001600160a01b0316036105015760405162461bcd60e51b815260206004820152601560248201527f496e76616c696420617373657420616464726573730000000000000000000000604482015260640161015c565b5f84828151811061051457610514610a48565b60200260200101511161055a5760405162461bcd60e51b815260206004820152600e60248201526d125b9d985b1a59081dd95a59da1d60921b604482015260640161015c565b6006604051806060016040528087848151811061057957610579610a48565b60200260200101516001600160a01b031681526020018684815181106105a1576105a1610a48565b60209081029190910181015182525f918101829052835460018082018655948352818320845160039092020180546001600160a01b0319166001600160a01b039092169190911781559083015193810193909355604090910151600290920191909155855186908390811061061857610618610a48565b6020908102919091010151604051636eb1769f60e11b81523060048201526001600160a01b0385811660248301529192509082169063dd62ed3e90604401602060405180830381865afa158015610671573d5f803e3d5ffd5b505050506040513d601f19601f820116820180604052508101906106959190610a7b565b5f0361070d5760405163095ea7b360e01b81526001600160a01b0384811660048301525f19602483015282169063095ea7b3906044016020604051808303815f875af11580156106e7573d5f803e3d5ffd5b505050506040513d601f19601f8201168201806040525081019061070b9190610a92565b505b5060010161047e565b5060019150505b92915050565b634e487b7160e01b5f52604160045260245ffd5b604051601f8201601f191681016001600160401b038111828210171561075f5761075f610723565b604052919050565b5f6001600160401b0382111561077f5761077f610723565b5060051b60200190565b80516001600160a01b038116811461079f575f80fd5b919050565b5f82601f8301126107b3575f80fd5b815160206107c86107c383610767565b610737565b8083825260208201915060208460051b8701019350868411156107e9575f80fd5b602086015b8481101561080557805183529183019183016107ee565b509695505050505050565b5f805f8060808587031215610823575f80fd5b84516001600160401b0380821115610839575f80fd5b818701915087601f83011261084c575f80fd5b8151602061085c6107c383610767565b82815260059290921b8401810191818101908b84111561087a575f80fd5b948201945b8386101561089f5761089086610789565b8252948201949082019061087f565b918a01519198509093505050808211156108b7575f80fd5b506108c4878288016107a4565b935050604085015191506108da60608601610789565b905092959194509250565b600181811c908216806108f957607f821691505b60208210810361091757634e487b7160e01b5f52602260045260245ffd5b50919050565b601f82111561096457805f5260205f20601f840160051c810160208510156109425750805b601f840160051c820191505b81811015610961575f815560010161094e565b50505b505050565b81516001600160401b0381111561098257610982610723565b6109968161099084546108e5565b8461091d565b602080601f8311600181146109c9575f84156109b25750858301515b5f19600386901b1c1916600185901b178555610a20565b5f85815260208120601f198616915b828110156109f7578886015182559484019460019091019084016109d8565b5085821015610a1457878501515f19600388901b60f8161c191681555b505060018460011b0185555b505050505050565b5f60208284031215610a38575f80fd5b610a4182610789565b9392505050565b634e487b7160e01b5f52603260045260245ffd5b8082018082111561071d57634e487b7160e01b5f52601160045260245ffd5b5f60208284031215610a8b575f80fd5b5051919050565b5f60208284031215610aa2575f80fd5b81518015158114610a41575f80fd5b61395180610abe5f395ff3fe608060405234801561000f575f80fd5b50600436106101fd575f3560e01c80637b10399911610114578063b2b55d70116100a9578063d14ef46d11610079578063d14ef46d1461042e578063dd62ed3e14610466578063de836ebd1461049e578063e73faa2d146104b1578063f47b45e8146104b9575f80fd5b8063b2b55d70146103ec578063c2ee3a08146103ff578063cdf456e114610408578063cf8fa7641461041b575f80fd5b80638a77c8dc116100e45780638a77c8dc146103b657806395d89b41146103be578063a1f241cc146103c6578063a9059cbb146103d9575f80fd5b80637b103999146103595780637fec8d381461038457806389ab35321461038d57806389afcb44146103a3575f80fd5b806322acb8671161019557806336bf6e391161016557806336bf6e39146102e05780634aa06652146102f657806367e4ac2c146103095780636e81221c1461031e57806370a0823114610331575f80fd5b806322acb867146102a357806323b872dd146102ab578063250aa683146102be578063313ce567146102d1575f80fd5b806312899068116101d0578063128990681461026a57806318160ddd1461028b57806318904ea4146102935780631a6865021461029b575f80fd5b806306fdde03146102015780630723c9991461021f5780630902f1ac1461023f578063095ea7b314610247575b5f80fd5b6102096104cf565b6040516102169190613238565b60405180910390f35b61023261022d366004613284565b61055f565b60405161021691906132d9565b6102326107ab565b61025a6102553660046132eb565b610893565b6040519015158152602001610216565b61027d610278366004613284565b6108ac565b604051908152602001610216565b60025461027d565b61023261092f565b61027d6109ce565b6102326109df565b61025a6102b9366004613315565b610a7e565b61027d6102cc366004613284565b610aa1565b60405160128152602001610216565b6102e8610b1c565b604051610216929190613353565b61027d610304366004613315565b610b30565b610311610cf9565b60405161021691906133a3565b61027d61032c3660046133b5565b610db3565b61027d61033f366004613284565b6001600160a01b03165f9081526020819052604090205490565b600b5461036c906001600160a01b031681565b6040516001600160a01b039091168152602001610216565b61027d60075481565b610395611040565b604051610216929190613405565b6102326103b1366004613284565b6111f9565b61025a611765565b6102096117df565b61027d6103d4366004613315565b6117ee565b61025a6103e73660046132eb565b611909565b61027d6103fa366004613284565b611916565b61027d60085481565b60095461036c906001600160a01b031681565b61027d610429366004613454565b611a05565b61044161043c366004613454565b611a7a565b604080516001600160a01b039094168452602084019290925290820152606001610216565b61027d61047436600461346b565b6001600160a01b039182165f90815260016020908152604080832093909416825291909152205490565b61027d6104ac366004613508565b611ab5565b61027d611e4d565b6104c1611f35565b6040516102169291906135ad565b6060600380546104de906135d1565b80601f016020809104026020016040519081016040528092919081815260200182805461050a906135d1565b80156105555780601f1061052c57610100808354040283529160200191610555565b820191905f5260205f20905b81548152906001019060200180831161053857829003601f168201915b5050505050905090565b60605f600b5f9054906101000a90046001600160a01b03166001600160a01b0316631acb61416040518163ffffffff1660e01b8152600401602060405180830381865afa1580156105b2573d5f803e3d5ffd5b505050506040513d601f19601f820116820180604052508101906105d69190613603565b9050336001600160a01b038216146106095760405162461bcd60e51b81526004016106009061361e565b60405180910390fd5b610611611765565b6106545760405162461bcd60e51b8152602060048201526014602482015273149958985b185b98d9481b9bdd081b995959195960621b6044820152606401610600565b5f8061065e612033565b915091505f61066d8383612162565b90505f61067982612263565b9050600a5481610689919061365a565b6006549091505f906001600160401b038111156106a8576106a86134a2565b6040519080825280602002602001820160405280156106d1578160200160208202803683370190505b5090505f5b835181101561074a575f8482815181106106f2576106f2613671565b60200260200101511115610742576107238185838151811061071657610716613671565b602002602001015161229f565b82828151811061073557610735613671565b6020026020010181815250505b6001016106d6565b50610755888361236f565b61075d6123a7565b336001600160a01b03167fa95ad530009c6f929555e70a66aadbeae7231e45756c5b028ca77fbaa376e73e8460405161079691906132d9565b60405180910390a29550505050505b50919050565b60605f600b5f9054906101000a90046001600160a01b03166001600160a01b0316631acb61416040518163ffffffff1660e01b8152600401602060405180830381865afa1580156107fe573d5f803e3d5ffd5b505050506040513d601f19601f820116820180604052508101906108229190613603565b604051630fa6707960e21b81523060048201529091506001600160a01b03821690633e99c1e4906024015f60405180830381865afa158015610866573d5f803e3d5ffd5b505050506040513d5f823e601f3d908101601f1916820160405261088d9190810190613685565b91505090565b5f336108a081858561260a565b60019150505b92915050565b5f805b60065481101561092757826001600160a01b0316600682815481106108d6576108d6613671565b5f9182526020909120600390910201546001600160a01b03160361091f576006818154811061090757610907613671565b905f5260205f20906003020160020154915050919050565b6001016108af565b505f92915050565b6006546060905f906001600160401b0381111561094e5761094e6134a2565b604051908082528060200260200182016040528015610977578160200160208202803683370190505b5090505f5b6006548110156107a5576006818154811061099957610999613671565b905f5260205f209060030201600201548282815181106109bb576109bb613671565b602090810291909101015260010161097c565b5f806109d8612033565b5092915050565b6006546060905f906001600160401b038111156109fe576109fe6134a2565b604051908082528060200260200182016040528015610a27578160200160208202803683370190505b5090505f5b6006548110156107a55760068181548110610a4957610a49613671565b905f5260205f20906003020160010154828281518110610a6b57610a6b613671565b6020908102919091010152600101610a2c565b5f33610a8b858285612617565b610a96858585612692565b506001949350505050565b5f805b60065481101561092757826001600160a01b031660068281548110610acb57610acb613671565b5f9182526020909120600390910201546001600160a01b031603610b145760068181548110610afc57610afc613671565b905f5260205f20906003020160010154915050919050565b600101610aa4565b5f6060610b27612033565b90939092509050565b5f80600b5f9054906101000a90046001600160a01b03166001600160a01b031663bb3ba04c6040518163ffffffff1660e01b8152600401602060405180830381865afa158015610b82573d5f803e3d5ffd5b505050506040513d601f19601f82011682018060405250810190610ba69190613603565b90505f6001600160a01b0316600b5f9054906101000a90046001600160a01b03166001600160a01b031663bb3ba04c6040518163ffffffff1660e01b8152600401602060405180830381865afa158015610c02573d5f803e3d5ffd5b505050506040513d601f19601f82011682018060405250810190610c269190613603565b6001600160a01b031603610c755760405162461bcd60e51b8152602060048201526016602482015275496e76616c6964206f7261636c65206164647265737360501b6044820152606401610600565b60405163248391ff60e01b81526001600160a01b0386811660048301528581166024830152604482018590525f919083169063248391ff90606401602060405180830381865afa158015610ccb573d5f803e3d5ffd5b505050506040513d601f19601f82011682018060405250810190610cef9190613710565b9695505050505050565b6006546060905f906001600160401b03811115610d1857610d186134a2565b604051908082528060200260200182016040528015610d41578160200160208202803683370190505b5090505f5b6006548110156107a55760068181548110610d6357610d63613671565b5f91825260209091206003909102015482516001600160a01b0390911690839083908110610d9357610d93613671565b6001600160a01b0390921660209283029190910190910152600101610d46565b5f610dbc6126ef565b600b54604080516385462d6f60e01b815290515f926001600160a01b0316916385462d6f9160048083019260209291908290030181865afa158015610e03573d5f803e3d5ffd5b505050506040513d601f19601f82011682018060405250810190610e279190613710565b9050846001600160a01b0316866001600160a01b031603610e8a5760405162461bcd60e51b815260206004820152601a60248201527f43616e6e6f742073776170207468652073616d6520746f6b656e0000000000006044820152606401610600565b5f8411610ed95760405162461bcd60e51b815260206004820181905260248201527f416d6f756e74206d7573742062652067726561746572207468616e207a65726f6044820152606401610600565b610ee16123a7565b5f610eed8787876117ee565b905080610ef987611916565b1015610f405760405162461bcd60e51b8152602060048201526016602482015275496e73756666696369656e74204c697175696469747960501b6044820152606401610600565b5f612710610f4e848461365a565b610f58919061373b565b9050610f64818361374e565b93505f8411610fc35760405162461bcd60e51b815260206004820152602560248201527f416d6f756e7420746f2073656e64206d75737420626520677265617465722074604482015264068616e20360dc1b6064820152608401610600565b610fcb6123a7565b866001600160a01b0316886001600160a01b0316866001600160a01b03167fcd3829a3813dc3cdd188fd3d01dcf3268c16be2fdd2dd21d0665418816e460628988604051611023929190918252602082015260400190565b60405180910390a45050506110386001600555565b949350505050565b6060805f8061104d612033565b6006549193509150806001600160401b0381111561106d5761106d6134a2565b604051908082528060200260200182016040528015611096578160200160208202803683370190505b509450806001600160401b038111156110b1576110b16134a2565b6040519080825280602002602001820160405280156110da578160200160208202803683370190505b5093505f5b818110156111f1575f848483815181106110fb576110fb613671565b6020026020010151612710611110919061365a565b61111a919061373b565b90505f6006838154811061113057611130613671565b905f5260205f2090600302016001015490508082111561119b57611154818361374e565b87848151811061116657611166613671565b602002602001018181525050600188848151811061118657611186613671565b911515602092830291909101909101526111e7565b6111a5828261374e565b8784815181106111b7576111b7613671565b6020026020010181815250505f8884815181106111d6576111d6613671565b911515602092830291909101909101525b50506001016110df565b505050509091565b60605f600b5f9054906101000a90046001600160a01b03166001600160a01b0316631acb61416040518163ffffffff1660e01b8152600401602060405180830381865afa15801561124c573d5f803e3d5ffd5b505050506040513d601f19601f820116820180604052508101906112709190613603565b9050336001600160a01b0382161461129a5760405162461bcd60e51b81526004016106009061361e565b600b54604080516385462d6f60e01b815290515f926001600160a01b0316916385462d6f9160048083019260209291908290030181865afa1580156112e1573d5f803e3d5ffd5b505050506040513d601f19601f820116820180604052508101906113059190613710565b90505f600b5f9054906101000a90046001600160a01b03166001600160a01b0316631acb61416040518163ffffffff1660e01b8152600401602060405180830381865afa158015611358573d5f803e3d5ffd5b505050506040513d601f19601f8201168201806040525081019061137c9190613603565b305f90815260208190526040902054909150806113db5760405162461bcd60e51b815260206004820152601c60248201527f5368617265206d7573742062652067726561746572207468616e2030000000006044820152606401610600565b5f6113e560025490565b90505f81116114255760405162461bcd60e51b815260206004820152600c60248201526b4e6f206c697175696469747960a01b6044820152606401610600565b6006545f906001600160401b03811115611441576114416134a2565b60405190808252806020026020018201604052801561146a578160200160208202803683370190505b5090505f61271061147b878661365a565b611485919061373b565b90505f611492828661374e565b90505f5b60065481101561157e575f876001600160a01b031663a3e113fb30600685815481106114c4576114c4613671565b5f91825260209091206003909102015460405160e084901b6001600160e01b03191681526001600160a01b03928316600482015291166024820152604401602060405180830381865afa15801561151d573d5f803e3d5ffd5b505050506040513d601f19601f820116820180604052508101906115419190613710565b90508561154e848361365a565b611558919061373b565b85838151811061156a5761156a613671565b602090810291909101015250600101611496565b50305f908152602081905260409020548111156115dd5760405162461bcd60e51b815260206004820152601d60248201527f496e73756666696369656e742042414c554e49206c69717569646974790000006044820152606401610600565b600b5460408051631d8cf42560e11b815290515f926001600160a01b031691633b19e84a9160048083019260209291908290030181865afa158015611624573d5f803e3d5ffd5b505050506040513d601f19601f820116820180604052508101906116489190613603565b60405163a9059cbb60e01b81526001600160a01b0382166004820152602481018590529091505f90309063a9059cbb906044016020604051808303815f875af1158015611697573d5f803e3d5ffd5b505050506040513d601f19601f820116820180604052508101906116bb9190613761565b9050806117005760405162461bcd60e51b8152602060048201526013602482015272119959481d1c985b9cd9995c8819985a5b1959606a1b6044820152606401610600565b61170a3084612719565b6117126123a7565b8b6001600160a01b03167fcc16f5dbb4873280815c1ee09dbd06736cffcc184412cf7a71a0fdb75d397ca58460405161174d91815260200190565b60405180910390a250929a9950505050505050505050565b5f805f611770611040565b915091505f5b81518110156117d65782818151811061179157611791613671565b602002602001015180156117bf57506007548282815181106117b5576117b5613671565b6020026020010151115b156117ce576001935050505090565b600101611776565b505f9250505090565b6060600480546104de906135d1565b5f806117fb858585610b30565b905083855f606061180a612033565b90925090505f6127108361181d87610aa1565b611827919061365a565b611831919061373b565b90505f6127108461184188610aa1565b61184b919061365a565b611855919061373b565b90505f8990505f611874600c54600d54600e54600f548888885f61274d565b90505f612710876118848a610aa1565b61188e919061365a565b611898919061373b565b90505f612710886118a88b610aa1565b6118b2919061365a565b6118bc919061373b565b90505f6118d8600c54600d54600e54600f5487878b600161274d565b90505f6118e5828661280c565b90505f6118f2878361282a565b9e5050505050505050505050505050509392505050565b5f336108a0818585612692565b5f80600b5f9054906101000a90046001600160a01b03166001600160a01b0316631acb61416040518163ffffffff1660e01b8152600401602060405180830381865afa158015611968573d5f803e3d5ffd5b505050506040513d601f19601f8201168201806040525081019061198c9190613603565b60405163a3e113fb60e01b81523060048201526001600160a01b0385811660248301529192509082169063a3e113fb90604401602060405180830381865afa1580156119da573d5f803e3d5ffd5b505050506040513d601f19601f820116820180604052508101906119fe9190613710565b9392505050565b5f80611a0f612033565b91505080518310611a585760405162461bcd60e51b8152602060048201526013602482015272092dcecc2d8d2c840c2e6e6cae840d2dcc8caf606b1b6044820152606401610600565b808381518110611a6a57611a6a613671565b6020026020010151915050919050565b60068181548110611a89575f80fd5b5f9182526020909120600390910201805460018201546002909201546001600160a01b03909116925083565b5f80600b5f9054906101000a90046001600160a01b03166001600160a01b0316631acb61416040518163ffffffff1660e01b8152600401602060405180830381865afa158015611b07573d5f803e3d5ffd5b505050506040513d601f19601f82011682018060405250810190611b2b9190613603565b9050336001600160a01b03821614611b555760405162461bcd60e51b81526004016106009061361e565b5f611b5f60025490565b90505f80611b6b6107ab565b805160065491925014611bc05760405162461bcd60e51b815260206004820152601760248201527f496e76616c6964207265736572766573206c656e6774680000000000000000006044820152606401610600565b600654611bfb5760405162461bcd60e51b81526020600482015260096024820152684e6f2061737365747360b81b6044820152606401610600565b5f5b600654811015611c99575f60068281548110611c1b57611c1b613671565b5f91825260208220600390910201546009546001600160a01b039182169350168203611c5d57888381518110611c5357611c53613671565b50611c9192505050565b611c80828a8581518110611c7357611c73613671565b602002602001015161285d565b9050611c8c8186613780565b945050505b600101611bfd565b505f8211611cf45760405162461bcd60e51b815260206004820152602260248201527f546f74616c2076616c7565206d7573742062652067726561746572207468616e604482015261020360f41b6064820152608401610600565b5f835f03611d1057600a54611d09908461365a565b9050611dae565b5f611d19612033565b5090505f8111611d7a5760405162461bcd60e51b815260206004820152602660248201527f546f74616c206c6971756964697479206d75737420626520677265617465722060448201526507468616e20360d41b6064820152608401610600565b600a54611d87908261365a565b85600a5486611d96919061365a565b611da0919061365a565b611daa919061373b565b9150505b805f03611ded5760405162461bcd60e51b815260206004820152600d60248201526c04d696e7420717479206973203609c1b6044820152606401610600565b611df7888261236f565b611dff6123a7565b876001600160a01b03167f0f6798a560793a54c3bcfe86a93cde1e73087d944c0ea20544137d412139688582604051611e3a91815260200190565b60405180910390a2979650505050505050565b5f8060095f9054906101000a90046001600160a01b03166001600160a01b031663313ce5676040518163ffffffff1660e01b8152600401602060405180830381865afa158015611e9f573d5f803e3d5ffd5b505050506040513d601f19601f82011682018060405250810190611ec39190613793565b60ff1690505f611ed482601261374e565b611edf90600a613893565b90505f611eea612033565b5090505f611ef760025490565b9050805f03611f0a575f94505050505090565b60085481611f18858561365a565b611f22919061373b565b611f2c919061365a565b94505050505090565b6060805f600b5f9054906101000a90046001600160a01b03166001600160a01b0316631acb61416040518163ffffffff1660e01b8152600401602060405180830381865afa158015611f89573d5f803e3d5ffd5b505050506040513d601f19601f82011682018060405250810190611fad9190613603565b9050336001600160a01b03821614611fd75760405162461bcd60e51b81526004016106009061361e565b611fdf611765565b6120225760405162461bcd60e51b8152602060048201526014602482015273149958985b185b98d9481b9bdd081b995959195960621b6044820152606401610600565b61202a612877565b92509250509091565b6006545f90606090806001600160401b03811115612053576120536134a2565b60405190808252806020026020018201604052801561207c578160200160208202803683370190505b5091505f5b8181101561215c575f6006828154811061209d5761209d613671565b5f91825260208220600390910201546001600160a01b031691506120c082611916565b6009549091506001600160a01b03908116908316036120fd57808584815181106120ec576120ec613671565b60200260200101818152505061212b565b5f612108838361285d565b90508086858151811061211d5761211d613671565b602002602001018181525050505b84838151811061213d5761213d613671565b6020026020010151866121509190613780565b95505050600101612081565b50509091565b6006546060906001600160401b0381111561217f5761217f6134a2565b6040519080825280602002602001820160405280156121a8578160200160208202803683370190505b5090505f5b6006548110156109d8575f612710600683815481106121ce576121ce613671565b905f5260205f20906003020160010154866121e9919061365a565b6121f3919061373b565b90508084838151811061220857612208613671565b6020026020010151101561225a5783828151811061222857612228613671565b60200260200101518161223b919061374e565b83838151811061224d5761224d613671565b6020026020010181815250505b506001016121ad565b5f805b6006548110156107a55782818151811061228257612282613671565b6020026020010151826122959190613780565b9150600101612266565b600954600680545f926001600160a01b03169190859081106122c3576122c3613671565b5f9182526020909120600390910201546001600160a01b0316036122e85750806108a6565b5f61231e600685815481106122ff576122ff613671565b5f9182526020909120600390910201546001600160a01b031684612f02565b90505f81116119fe5760405162461bcd60e51b815260206004820152601b60248201527f496e76616c696420746f6b656e20616d6f756e7420746f2061646400000000006044820152606401610600565b6001600160a01b0382166123985760405163ec442f0560e01b81525f6004820152602401610600565b6123a35f8383612f1b565b5050565b5f806123b1611040565b915091505f5b600654811015612605575f600682815481106123d5576123d5613671565b905f5260205f2090600302016002015490508382815181106123f9576123f9613671565b6020026020010151156124ce5782828151811061241857612418613671565b60200260200101516006838154811061243357612433613671565b905f5260205f2090600302016002015f8282546124509190613780565b92505081905550806006838154811061246b5761246b613671565b905f5260205f2090600302016002015410156124c95760405162461bcd60e51b815260206004820152601e60248201527f4f766572666c6f7720696e6372656d656e74696e6720736c69707061676500006044820152606401610600565b6125fc565b8282815181106124e0576124e0613671565b6020026020010151600683815481106124fb576124fb613671565b905f5260205f2090600302016002015411156125d45782828151811061252357612523613671565b60200260200101516006838154811061253e5761253e613671565b905f5260205f2090600302016002015f82825461255b919061374e565b92505081905550806006838154811061257657612576613671565b905f5260205f2090600302016002015411156124c95760405162461bcd60e51b815260206004820152601f60248201527f556e646572666c6f772064656372656d656e74696e6720736c697070616765006044820152606401610600565b5f600683815481106125e8576125e8613671565b905f5260205f209060030201600201819055505b506001016123b7565b505050565b6126058383836001613041565b6001600160a01b038381165f908152600160209081526040808320938616835292905220545f19811461268c578181101561267e57604051637dc7a0d960e11b81526001600160a01b03841660048201526024810182905260448101839052606401610600565b61268c84848484035f613041565b50505050565b6001600160a01b0383166126bb57604051634b637e8f60e11b81525f6004820152602401610600565b6001600160a01b0382166126e45760405163ec442f0560e01b81525f6004820152602401610600565b612605838383612f1b565b60026005540361271257604051633ee5aeb560e01b815260040160405180910390fd5b6002600555565b6001600160a01b03821661274257604051634b637e8f60e11b81525f6004820152602401610600565b6123a3825f83612f1b565b5f806127598686613113565b90505f831561277d5761277686612770878a613780565b90613113565b905061278e565b61278b86612770878a61374e565b90505b80820361279f575f92505050612800565b5f6127ad8c8c8c8c87613132565b90505f6127bd8d8d8d8d87613132565b9050828411156127e9576127de6127d4848661374e565b612770848461374e565b945050505050612800565b6127de6127f6858561374e565b612770838561374e565b98975050505050505050565b5f8161282084670de0b6b3a7640000613780565b6119fe919061374e565b5f670de0b6b3a764000061283f60028261373b565b612849848661365a565b6128539190613780565b6119fe919061373b565b6009545f906119fe9084906001600160a01b031684610b30565b6060805f600b5f9054906101000a90046001600160a01b03166001600160a01b0316631acb61416040518163ffffffff1660e01b8152600401602060405180830381865afa1580156128cb573d5f803e3d5ffd5b505050506040513d601f19601f820116820180604052508101906128ef9190613603565b90505f600b5f9054906101000a90046001600160a01b03166001600160a01b031663cff49d686040518163ffffffff1660e01b8152600401602060405180830381865afa158015612942573d5f803e3d5ffd5b505050506040513d601f19601f820116820180604052508101906129669190613603565b6006549091505f906001600160401b03811115612985576129856134a2565b6040519080825280602002602001820160405280156129ae578160200160208202803683370190505b506006549091505f906001600160401b038111156129ce576129ce6134a2565b6040519080825280602002602001820160405280156129f7578160200160208202803683370190505b506006549091505f906001600160401b03811115612a1757612a176134a2565b604051908082528060200260200182016040528015612a40578160200160208202803683370190505b506006549091505f906001600160401b03811115612a6057612a606134a2565b604051908082528060200260200182016040528015612a89578160200160208202803683370190505b506006549091505f906001600160401b03811115612aa957612aa96134a2565b604051908082528060200260200182016040528015612ad2578160200160208202803683370190505b506006549091505f906001600160401b03811115612af257612af26134a2565b604051908082528060200260200182016040528015612b1b578160200160208202803683370190505b5090505f5b600654811015612c795760068181548110612b3d57612b3d613671565b5f91825260209091206003909102015487516001600160a01b0390911690889083908110612b6d57612b6d613671565b60200260200101906001600160a01b031690816001600160a01b03168152505060068181548110612ba057612ba0613671565b905f5260205f20906003020160010154868281518110612bc257612bc2613671565b602002602001018181525050868181518110612be057612be0613671565b60209081029190910101516040516370a0823160e01b81526001600160a01b038b81166004830152909116906370a0823190602401602060405180830381865afa158015612c30573d5f803e3d5ffd5b505050506040513d601f19601f82011682018060405250810190612c549190613710565b858281518110612c6657612c66613671565b6020908102919091010152600101612b20565b505f612c836107ab565b9050876001600160a01b031663f0bf77148289896007548e8f60095f9054906101000a90046001600160a01b03166040518863ffffffff1660e01b8152600401612cd3979695949392919061389e565b5f604051808303815f87803b158015612cea575f80fd5b505af1158015612cfc573d5f803e3d5ffd5b505050505f5b600654811015612eb057878181518110612d1e57612d1e613671565b60209081029190910101516040516370a0823160e01b81526001600160a01b038c81166004830152909116906370a0823190602401602060405180830381865afa158015612d6e573d5f803e3d5ffd5b505050506040513d601f19601f82011682018060405250810190612d929190613710565b858281518110612da457612da4613671565b602002602001018181525050858181518110612dc257612dc2613671565b6020026020010151858281518110612ddc57612ddc613671565b60200260200101511115612e4b57858181518110612dfc57612dfc613671565b6020026020010151858281518110612e1657612e16613671565b6020026020010151612e28919061374e565b848281518110612e3a57612e3a613671565b602002602001018181525050612ea8565b848181518110612e5d57612e5d613671565b6020026020010151868281518110612e7757612e77613671565b6020026020010151612e89919061374e565b838281518110612e9b57612e9b613671565b6020026020010181815250505b600101612d02565b50336001600160a01b03167f279b343370f587af7fb675ae7c8578e9c8abcc373236ad02c501a4771fe7a7b888604051612eea91906133a3565b60405180910390a25090999098509650505050505050565b6009545f906119fe906001600160a01b03168484610b30565b6001600160a01b038316612f45578060025f828254612f3a9190613780565b90915550612fb59050565b6001600160a01b0383165f9081526020819052604090205481811015612f975760405163391434e360e21b81526001600160a01b03851660048201526024810182905260448101839052606401610600565b6001600160a01b0384165f9081526020819052604090209082900390555b6001600160a01b038216612fd157600280548290039055612fef565b6001600160a01b0382165f9081526020819052604090208054820190555b816001600160a01b0316836001600160a01b03167fddf252ad1be2c89b69c2b068fc378daa952ba7f163c4a11628f55a4df523b3ef8360405161303491815260200190565b60405180910390a3505050565b6001600160a01b03841661306a5760405163e602df0560e01b81525f6004820152602401610600565b6001600160a01b03831661309357604051634a1406b160e11b81525f6004820152602401610600565b6001600160a01b038085165f908152600160209081526040808320938716835292905220829055801561268c57826001600160a01b0316846001600160a01b03167f8c5be1e5ebec7d5bd14f71427d1e84f3dd0314c0f7b2291e5b200ac8c7c3b9258460405161310591815260200190565b60405180910390a350505050565b5f8161312060028261373b565b612849670de0b6b3a76400008661365a565b5f8282101561314c57613145828561374e565b905061319f565b6131456b033b2e3c9fd0803ce8000000670de0b6b3a76400006131848882613174858961365a565b61317e919061373b565b906131a8565b61318e919061365a565b613198919061373b565b8790613113565b95945050505050565b5f6131b4600283613908565b5f036131cc576b033b2e3c9fd0803ce80000006131ce565b825b90506131db60028361373b565b91505b81156108a6576131ee838461321f565b92506131fb600283613908565b1561320d5761320a818461321f565b90505b61321860028361373b565b91506131de565b5f6b033b2e3c9fd0803ce800000061283f60028261373b565b602081525f82518060208401528060208501604085015e5f604082850101526040601f19601f83011684010191505092915050565b6001600160a01b0381168114613281575f80fd5b50565b5f60208284031215613294575f80fd5b81356119fe8161326d565b5f815180845260208085019450602084015f5b838110156132ce578151875295820195908201906001016132b2565b509495945050505050565b602081525f6119fe602083018461329f565b5f80604083850312156132fc575f80fd5b82356133078161326d565b946020939093013593505050565b5f805f60608486031215613327575f80fd5b83356133328161326d565b925060208401356133428161326d565b929592945050506040919091013590565b828152604060208201525f611038604083018461329f565b5f815180845260208085019450602084015f5b838110156132ce5781516001600160a01b03168752958201959082019060010161337e565b602081525f6119fe602083018461336b565b5f805f80608085870312156133c8575f80fd5b84356133d38161326d565b935060208501356133e38161326d565b92506040850135915060608501356133fa8161326d565b939692955090935050565b604080825283519082018190525f906020906060840190828701845b8281101561343f578151151584529284019290840190600101613421565b5050508381036020850152610cef818661329f565b5f60208284031215613464575f80fd5b5035919050565b5f806040838503121561347c575f80fd5b82356134878161326d565b915060208301356134978161326d565b809150509250929050565b634e487b7160e01b5f52604160045260245ffd5b604051601f8201601f191681016001600160401b03811182821017156134de576134de6134a2565b604052919050565b5f6001600160401b038211156134fe576134fe6134a2565b5060051b60200190565b5f8060408385031215613519575f80fd5b82356135248161326d565b91506020838101356001600160401b0381111561353f575f80fd5b8401601f8101861361354f575f80fd5b803561356261355d826134e6565b6134b6565b81815260059190911b82018301908381019088831115613580575f80fd5b928401925b8284101561359e57833582529284019290840190613585565b80955050505050509250929050565b604081525f6135bf604083018561329f565b828103602084015261319f818561329f565b600181811c908216806135e557607f821691505b6020821081036107a557634e487b7160e01b5f52602260045260245ffd5b5f60208284031215613613575f80fd5b81516119fe8161326d565b6020808252600e908201526d4f6e6c792050657269706865727960901b604082015260600190565b634e487b7160e01b5f52601160045260245ffd5b80820281158282048414176108a6576108a6613646565b634e487b7160e01b5f52603260045260245ffd5b5f6020808385031215613696575f80fd5b82516001600160401b038111156136ab575f80fd5b8301601f810185136136bb575f80fd5b80516136c961355d826134e6565b81815260059190911b820183019083810190878311156136e7575f80fd5b928401925b82841015613705578351825292840192908401906136ec565b979650505050505050565b5f60208284031215613720575f80fd5b5051919050565b634e487b7160e01b5f52601260045260245ffd5b5f8261374957613749613727565b500490565b818103818111156108a6576108a6613646565b5f60208284031215613771575f80fd5b815180151581146119fe575f80fd5b808201808211156108a6576108a6613646565b5f602082840312156137a3575f80fd5b815160ff811681146119fe575f80fd5b600181815b808511156137ed57815f19048211156137d3576137d3613646565b808516156137e057918102915b93841c93908002906137b8565b509250929050565b5f82613803575060016108a6565b8161380f57505f6108a6565b8160018114613825576002811461382f5761384b565b60019150506108a6565b60ff84111561384057613840613646565b50506001821b6108a6565b5060208310610133831016604e8410600b841016171561386e575081810a6108a6565b61387883836137b3565b805f190482111561388b5761388b613646565b029392505050565b5f6119fe83836137f5565b60e081525f6138b060e083018a61329f565b82810360208401526138c2818a61336b565b905082810360408401526138d6818961329f565b606084019790975250506001600160a01b03938416608082015291831660a083015290911660c0909101529392505050565b5f8261391657613916613727565b50069056fea26469706673582212201ccd53b54c134b34e4ebd8d2ff63d2d5f0ce5f0a9f6fe046ebff11ffa5e6b42f64736f6c63430008190033","opcodes":"PUSH1 0x80 PUSH1 0x40 MSTORE PUSH6 0x12309CE54000 PUSH1 0xC SSTORE PUSH1 0x7 PUSH1 0xD SSTORE PUSH8 0x53B1DAA2FD98364 PUSH1 0xE SSTORE PUSH8 0x493B9F4E9DE52F7 PUSH1 0xF SSTORE PUSH7 0x16BCC41E90000 PUSH1 0x10 SSTORE PUSH8 0xDE0B6B3A7640000 PUSH1 0x11 SSTORE PUSH7 0x470DE4DF820000 PUSH1 0x12 SSTORE CALLVALUE DUP1 ISZERO PUSH2 0x58 JUMPI PUSH0 DUP1 REVERT JUMPDEST POP PUSH1 0x40 MLOAD PUSH2 0x440F CODESIZE SUB DUP1 PUSH2 0x440F DUP4 CODECOPY DUP2 ADD PUSH1 0x40 DUP2 SWAP1 MSTORE PUSH2 0x77 SWAP2 PUSH2 0x810 JUMP JUMPDEST PUSH1 0x40 MLOAD DUP1 PUSH1 0x40 ADD PUSH1 0x40 MSTORE DUP1 PUSH1 0x9 DUP2 MSTORE PUSH1 0x20 ADD PUSH9 0x42616C756E69204C5 PUSH1 0xBC SHL DUP2 MSTORE POP PUSH1 0x40 MLOAD DUP1 PUSH1 0x40 ADD PUSH1 0x40 MSTORE DUP1 PUSH1 0x9 DUP2 MSTORE PUSH1 0x20 ADD PUSH9 0x42414C554E492D4C5 PUSH1 0xBC SHL DUP2 MSTORE POP DUP2 PUSH1 0x3 SWAP1 DUP2 PUSH2 0xCA SWAP2 SWAP1 PUSH2 0x969 JUMP JUMPDEST POP PUSH1 0x4 PUSH2 0xD7 DUP3 DUP3 PUSH2 0x969 JUMP JUMPDEST POP POP PUSH1 0x1 PUSH1 0x5 SSTORE POP PUSH1 0xB DUP1 SLOAD PUSH1 0x1 PUSH1 0x1 PUSH1 0xA0 SHL SUB NOT AND PUSH1 0x1 PUSH1 0x1 PUSH1 0xA0 SHL SUB DUP4 AND OR SWAP1 SSTORE PUSH8 0xDE0B6B3A7640000 PUSH1 0x8 SSTORE PUSH0 PUSH2 0x111 DUP6 DUP6 PUSH2 0x2D4 JUMP JUMPDEST SWAP1 POP DUP1 PUSH2 0x165 JUMPI PUSH1 0x40 MLOAD PUSH3 0x461BCD PUSH1 0xE5 SHL DUP2 MSTORE PUSH1 0x20 PUSH1 0x4 DUP3 ADD MSTORE PUSH1 0x15 PUSH1 0x24 DUP3 ADD MSTORE PUSH32 0x496E697469616C697A6174696F6E206661696C65640000000000000000000000 PUSH1 0x44 DUP3 ADD MSTORE PUSH1 0x64 ADD JUMPDEST PUSH1 0x40 MLOAD DUP1 SWAP2 SUB SWAP1 REVERT JUMPDEST PUSH1 0x7 DUP4 SWAP1 SSTORE PUSH1 0xB SLOAD PUSH1 0x40 DUP1 MLOAD PUSH4 0x1BF01E9B PUSH1 0xE0 SHL DUP2 MSTORE SWAP1 MLOAD PUSH1 0x1 PUSH1 0x1 PUSH1 0xA0 SHL SUB SWAP1 SWAP3 AND SWAP2 PUSH4 0x1BF01E9B SWAP2 PUSH1 0x4 DUP1 DUP3 ADD SWAP3 PUSH1 0x20 SWAP3 SWAP1 SWAP2 SWAP1 DUP3 SWAP1 SUB ADD DUP2 DUP7 GAS STATICCALL ISZERO DUP1 ISZERO PUSH2 0x1B2 JUMPI RETURNDATASIZE PUSH0 DUP1 RETURNDATACOPY RETURNDATASIZE PUSH0 REVERT JUMPDEST POP POP POP POP PUSH1 0x40 MLOAD RETURNDATASIZE PUSH1 0x1F NOT PUSH1 0x1F DUP3 ADD AND DUP3 ADD DUP1 PUSH1 0x40 MSTORE POP DUP2 ADD SWAP1 PUSH2 0x1D6 SWAP2 SWAP1 PUSH2 0xA28 JUMP JUMPDEST PUSH1 0x9 DUP1 SLOAD PUSH1 0x1 PUSH1 0x1 PUSH1 0xA0 SHL SUB NOT AND PUSH1 0x1 PUSH1 0x1 PUSH1 0xA0 SHL SUB SWAP3 SWAP1 SWAP3 AND SWAP2 DUP3 OR SWAP1 SSTORE PUSH5 0xE8D4A51000 PUSH1 0xA SSTORE PUSH2 0x24A JUMPI PUSH1 0x40 MLOAD PUSH3 0x461BCD PUSH1 0xE5 SHL DUP2 MSTORE PUSH1 0x20 PUSH1 0x4 DUP3 ADD MSTORE PUSH1 0x1A PUSH1 0x24 DUP3 ADD MSTORE PUSH32 0x496E76616C696420626173652061737365742061646472657373000000000000 PUSH1 0x44 DUP3 ADD MSTORE PUSH1 0x64 ADD PUSH2 0x15C JUMP JUMPDEST PUSH0 DUP1 JUMPDEST DUP6 MLOAD DUP2 LT ISZERO PUSH2 0x285 JUMPI DUP6 DUP2 DUP2 MLOAD DUP2 LT PUSH2 0x268 JUMPI PUSH2 0x268 PUSH2 0xA48 JUMP JUMPDEST PUSH1 0x20 MUL PUSH1 0x20 ADD ADD MLOAD DUP3 PUSH2 0x27B SWAP2 SWAP1 PUSH2 0xA5C JUMP JUMPDEST SWAP2 POP PUSH1 0x1 ADD PUSH2 0x24D JUMP JUMPDEST POP DUP1 PUSH2 0x2710 EQ PUSH2 0x2C9 JUMPI PUSH1 0x40 MLOAD PUSH3 0x461BCD PUSH1 0xE5 SHL DUP2 MSTORE PUSH1 0x20 PUSH1 0x4 DUP3 ADD MSTORE PUSH1 0xF PUSH1 0x24 DUP3 ADD MSTORE PUSH15 0x496E76616C69642077656967687473 PUSH1 0x88 SHL PUSH1 0x44 DUP3 ADD MSTORE PUSH1 0x64 ADD PUSH2 0x15C JUMP JUMPDEST POP POP POP POP POP POP PUSH2 0xAB1 JUMP JUMPDEST PUSH0 DUP1 PUSH1 0xB PUSH0 SWAP1 SLOAD SWAP1 PUSH2 0x100 EXP SWAP1 DIV PUSH1 0x1 PUSH1 0x1 PUSH1 0xA0 SHL SUB AND PUSH1 0x1 PUSH1 0x1 PUSH1 0xA0 SHL SUB AND PUSH4 0xCFF49D68 PUSH1 0x40 MLOAD DUP2 PUSH4 0xFFFFFFFF AND PUSH1 0xE0 SHL DUP2 MSTORE PUSH1 0x4 ADD PUSH1 0x20 PUSH1 0x40 MLOAD DUP1 DUP4 SUB DUP2 DUP7 GAS STATICCALL ISZERO DUP1 ISZERO PUSH2 0x326 JUMPI RETURNDATASIZE PUSH0 DUP1 RETURNDATACOPY RETURNDATASIZE PUSH0 REVERT JUMPDEST POP POP POP POP PUSH1 0x40 MLOAD RETURNDATASIZE PUSH1 0x1F NOT PUSH1 0x1F DUP3 ADD AND DUP3 ADD DUP1 PUSH1 0x40 MSTORE POP DUP2 ADD SWAP1 PUSH2 0x34A SWAP2 SWAP1 PUSH2 0xA28 JUMP JUMPDEST SWAP1 POP PUSH0 PUSH1 0x1 PUSH1 0x1 PUSH1 0xA0 SHL SUB AND PUSH1 0xB PUSH0 SWAP1 SLOAD SWAP1 PUSH2 0x100 EXP SWAP1 DIV PUSH1 0x1 PUSH1 0x1 PUSH1 0xA0 SHL SUB AND PUSH1 0x1 PUSH1 0x1 PUSH1 0xA0 SHL SUB AND PUSH4 0xCFF49D68 PUSH1 0x40 MLOAD DUP2 PUSH4 0xFFFFFFFF AND PUSH1 0xE0 SHL DUP2 MSTORE PUSH1 0x4 ADD PUSH1 0x20 PUSH1 0x40 MLOAD DUP1 DUP4 SUB DUP2 DUP7 GAS STATICCALL ISZERO DUP1 ISZERO PUSH2 0x3A6 JUMPI RETURNDATASIZE PUSH0 DUP1 RETURNDATACOPY RETURNDATASIZE PUSH0 REVERT JUMPDEST POP POP POP POP PUSH1 0x40 MLOAD RETURNDATASIZE PUSH1 0x1F NOT PUSH1 0x1F DUP3 ADD AND DUP3 ADD DUP1 PUSH1 0x40 MSTORE POP DUP2 ADD SWAP1 PUSH2 0x3CA SWAP2 SWAP1 PUSH2 0xA28 JUMP JUMPDEST PUSH1 0x1 PUSH1 0x1 PUSH1 0xA0 SHL SUB AND SUB PUSH2 0x420 JUMPI PUSH1 0x40 MLOAD PUSH3 0x461BCD PUSH1 0xE5 SHL DUP2 MSTORE PUSH1 0x20 PUSH1 0x4 DUP3 ADD MSTORE PUSH1 0x1A PUSH1 0x24 DUP3 ADD MSTORE PUSH32 0x496E76616C696420726562616C616E6365722061646472657373000000000000 PUSH1 0x44 DUP3 ADD MSTORE PUSH1 0x64 ADD PUSH2 0x15C JUMP JUMPDEST DUP3 MLOAD DUP5 MLOAD EQ PUSH2 0x47C JUMPI PUSH1 0x40 MLOAD PUSH3 0x461BCD PUSH1 0xE5 SHL DUP2 MSTORE PUSH1 0x20 PUSH1 0x4 DUP3 ADD MSTORE PUSH1 0x22 PUSH1 0x24 DUP3 ADD MSTORE PUSH32 0x41737365747320616E642077656967687473206C656E677468206D69736D6174 PUSH1 0x44 DUP3 ADD MSTORE PUSH2 0xC6D PUSH1 0xF3 SHL PUSH1 0x64 DUP3 ADD MSTORE PUSH1 0x84 ADD PUSH2 0x15C JUMP JUMPDEST PUSH0 JUMPDEST DUP5 MLOAD DUP2 LT ISZERO PUSH2 0x716 JUMPI PUSH0 PUSH1 0x1 PUSH1 0x1 PUSH1 0xA0 SHL SUB AND DUP6 DUP3 DUP2 MLOAD DUP2 LT PUSH2 0x4A3 JUMPI PUSH2 0x4A3 PUSH2 0xA48 JUMP JUMPDEST PUSH1 0x20 MUL PUSH1 0x20 ADD ADD MLOAD PUSH1 0x1 PUSH1 0x1 PUSH1 0xA0 SHL SUB AND SUB PUSH2 0x501 JUMPI PUSH1 0x40 MLOAD PUSH3 0x461BCD PUSH1 0xE5 SHL DUP2 MSTORE PUSH1 0x20 PUSH1 0x4 DUP3 ADD MSTORE PUSH1 0x15 PUSH1 0x24 DUP3 ADD MSTORE PUSH32 0x496E76616C696420617373657420616464726573730000000000000000000000 PUSH1 0x44 DUP3 ADD MSTORE PUSH1 0x64 ADD PUSH2 0x15C JUMP JUMPDEST PUSH0 DUP5 DUP3 DUP2 MLOAD DUP2 LT PUSH2 0x514 JUMPI PUSH2 0x514 PUSH2 0xA48 JUMP JUMPDEST PUSH1 0x20 MUL PUSH1 0x20 ADD ADD MLOAD GT PUSH2 0x55A JUMPI PUSH1 0x40 MLOAD PUSH3 0x461BCD PUSH1 0xE5 SHL DUP2 MSTORE PUSH1 0x20 PUSH1 0x4 DUP3 ADD MSTORE PUSH1 0xE PUSH1 0x24 DUP3 ADD MSTORE PUSH14 0x125B9D985B1A59081DD95A59DA1D PUSH1 0x92 SHL PUSH1 0x44 DUP3 ADD MSTORE PUSH1 0x64 ADD PUSH2 0x15C JUMP JUMPDEST PUSH1 0x6 PUSH1 0x40 MLOAD DUP1 PUSH1 0x60 ADD PUSH1 0x40 MSTORE DUP1 DUP8 DUP5 DUP2 MLOAD DUP2 LT PUSH2 0x579 JUMPI PUSH2 0x579 PUSH2 0xA48 JUMP JUMPDEST PUSH1 0x20 MUL PUSH1 0x20 ADD ADD MLOAD PUSH1 0x1 PUSH1 0x1 PUSH1 0xA0 SHL SUB AND DUP2 MSTORE PUSH1 0x20 ADD DUP7 DUP5 DUP2 MLOAD DUP2 LT PUSH2 0x5A1 JUMPI PUSH2 0x5A1 PUSH2 0xA48 JUMP JUMPDEST PUSH1 0x20 SWAP1 DUP2 MUL SWAP2 SWAP1 SWAP2 ADD DUP2 ADD MLOAD DUP3 MSTORE PUSH0 SWAP2 DUP2 ADD DUP3 SWAP1 MSTORE DUP4 SLOAD PUSH1 0x1 DUP1 DUP3 ADD DUP7 SSTORE SWAP5 DUP4 MSTORE DUP2 DUP4 KECCAK256 DUP5 MLOAD PUSH1 0x3 SWAP1 SWAP3 MUL ADD DUP1 SLOAD PUSH1 0x1 PUSH1 0x1 PUSH1 0xA0 SHL SUB NOT AND PUSH1 0x1 PUSH1 0x1 PUSH1 0xA0 SHL SUB SWAP1 SWAP3 AND SWAP2 SWAP1 SWAP2 OR DUP2 SSTORE SWAP1 DUP4 ADD MLOAD SWAP4 DUP2 ADD SWAP4 SWAP1 SWAP4 SSTORE PUSH1 0x40 SWAP1 SWAP2 ADD MLOAD PUSH1 0x2 SWAP1 SWAP3 ADD SWAP2 SWAP1 SWAP2 SSTORE DUP6 MLOAD DUP7 SWAP1 DUP4 SWAP1 DUP2 LT PUSH2 0x618 JUMPI PUSH2 0x618 PUSH2 0xA48 JUMP JUMPDEST PUSH1 0x20 SWAP1 DUP2 MUL SWAP2 SWAP1 SWAP2 ADD ADD MLOAD PUSH1 0x40 MLOAD PUSH4 0x6EB1769F PUSH1 0xE1 SHL DUP2 MSTORE ADDRESS PUSH1 0x4 DUP3 ADD MSTORE PUSH1 0x1 PUSH1 0x1 PUSH1 0xA0 SHL SUB DUP6 DUP2 AND PUSH1 0x24 DUP4 ADD MSTORE SWAP2 SWAP3 POP SWAP1 DUP3 AND SWAP1 PUSH4 0xDD62ED3E SWAP1 PUSH1 0x44 ADD PUSH1 0x20 PUSH1 0x40 MLOAD DUP1 DUP4 SUB DUP2 DUP7 GAS STATICCALL ISZERO DUP1 ISZERO PUSH2 0x671 JUMPI RETURNDATASIZE PUSH0 DUP1 RETURNDATACOPY RETURNDATASIZE PUSH0 REVERT JUMPDEST POP POP POP POP PUSH1 0x40 MLOAD RETURNDATASIZE PUSH1 0x1F NOT PUSH1 0x1F DUP3 ADD AND DUP3 ADD DUP1 PUSH1 0x40 MSTORE POP DUP2 ADD SWAP1 PUSH2 0x695 SWAP2 SWAP1 PUSH2 0xA7B JUMP JUMPDEST PUSH0 SUB PUSH2 0x70D JUMPI PUSH1 0x40 MLOAD PUSH4 0x95EA7B3 PUSH1 0xE0 SHL DUP2 MSTORE PUSH1 0x1 PUSH1 0x1 PUSH1 0xA0 SHL SUB DUP5 DUP2 AND PUSH1 0x4 DUP4 ADD MSTORE PUSH0 NOT PUSH1 0x24 DUP4 ADD MSTORE DUP3 AND SWAP1 PUSH4 0x95EA7B3 SWAP1 PUSH1 0x44 ADD PUSH1 0x20 PUSH1 0x40 MLOAD DUP1 DUP4 SUB DUP2 PUSH0 DUP8 GAS CALL ISZERO DUP1 ISZERO PUSH2 0x6E7 JUMPI RETURNDATASIZE PUSH0 DUP1 RETURNDATACOPY RETURNDATASIZE PUSH0 REVERT JUMPDEST POP POP POP POP PUSH1 0x40 MLOAD RETURNDATASIZE PUSH1 0x1F NOT PUSH1 0x1F DUP3 ADD AND DUP3 ADD DUP1 PUSH1 0x40 MSTORE POP DUP2 ADD SWAP1 PUSH2 0x70B SWAP2 SWAP1 PUSH2 0xA92 JUMP JUMPDEST POP JUMPDEST POP PUSH1 0x1 ADD PUSH2 0x47E JUMP JUMPDEST POP PUSH1 0x1 SWAP2 POP POP JUMPDEST SWAP3 SWAP2 POP POP JUMP JUMPDEST PUSH4 0x4E487B71 PUSH1 0xE0 SHL PUSH0 MSTORE PUSH1 0x41 PUSH1 0x4 MSTORE PUSH1 0x24 PUSH0 REVERT JUMPDEST PUSH1 0x40 MLOAD PUSH1 0x1F DUP3 ADD PUSH1 0x1F NOT AND DUP2 ADD PUSH1 0x1 PUSH1 0x1 PUSH1 0x40 SHL SUB DUP2 GT DUP3 DUP3 LT OR ISZERO PUSH2 0x75F JUMPI PUSH2 0x75F PUSH2 0x723 JUMP JUMPDEST PUSH1 0x40 MSTORE SWAP2 SWAP1 POP JUMP JUMPDEST PUSH0 PUSH1 0x1 PUSH1 0x1 PUSH1 0x40 SHL SUB DUP3 GT ISZERO PUSH2 0x77F JUMPI PUSH2 0x77F PUSH2 0x723 JUMP JUMPDEST POP PUSH1 0x5 SHL PUSH1 0x20 ADD SWAP1 JUMP JUMPDEST DUP1 MLOAD PUSH1 0x1 PUSH1 0x1 PUSH1 0xA0 SHL SUB DUP2 AND DUP2 EQ PUSH2 0x79F JUMPI PUSH0 DUP1 REVERT JUMPDEST SWAP2 SWAP1 POP JUMP JUMPDEST PUSH0 DUP3 PUSH1 0x1F DUP4 ADD SLT PUSH2 0x7B3 JUMPI PUSH0 DUP1 REVERT JUMPDEST DUP2 MLOAD PUSH1 0x20 PUSH2 0x7C8 PUSH2 0x7C3 DUP4 PUSH2 0x767 JUMP JUMPDEST PUSH2 0x737 JUMP JUMPDEST DUP1 DUP4 DUP3 MSTORE PUSH1 0x20 DUP3 ADD SWAP2 POP PUSH1 0x20 DUP5 PUSH1 0x5 SHL DUP8 ADD ADD SWAP4 POP DUP7 DUP5 GT ISZERO PUSH2 0x7E9 JUMPI PUSH0 DUP1 REVERT JUMPDEST PUSH1 0x20 DUP7 ADD JUMPDEST DUP5 DUP2 LT ISZERO PUSH2 0x805 JUMPI DUP1 MLOAD DUP4 MSTORE SWAP2 DUP4 ADD SWAP2 DUP4 ADD PUSH2 0x7EE JUMP JUMPDEST POP SWAP7 SWAP6 POP POP POP POP POP POP JUMP JUMPDEST PUSH0 DUP1 PUSH0 DUP1 PUSH1 0x80 DUP6 DUP8 SUB SLT ISZERO PUSH2 0x823 JUMPI PUSH0 DUP1 REVERT JUMPDEST DUP5 MLOAD PUSH1 0x1 PUSH1 0x1 PUSH1 0x40 SHL SUB DUP1 DUP3 GT ISZERO PUSH2 0x839 JUMPI PUSH0 DUP1 REVERT JUMPDEST DUP2 DUP8 ADD SWAP2 POP DUP8 PUSH1 0x1F DUP4 ADD SLT PUSH2 0x84C JUMPI PUSH0 DUP1 REVERT JUMPDEST DUP2 MLOAD PUSH1 0x20 PUSH2 0x85C PUSH2 0x7C3 DUP4 PUSH2 0x767 JUMP JUMPDEST DUP3 DUP2 MSTORE PUSH1 0x5 SWAP3 SWAP1 SWAP3 SHL DUP5 ADD DUP2 ADD SWAP2 DUP2 DUP2 ADD SWAP1 DUP12 DUP5 GT ISZERO PUSH2 0x87A JUMPI PUSH0 DUP1 REVERT JUMPDEST SWAP5 DUP3 ADD SWAP5 JUMPDEST DUP4 DUP7 LT ISZERO PUSH2 0x89F JUMPI PUSH2 0x890 DUP7 PUSH2 0x789 JUMP JUMPDEST DUP3 MSTORE SWAP5 DUP3 ADD SWAP5 SWAP1 DUP3 ADD SWAP1 PUSH2 0x87F JUMP JUMPDEST SWAP2 DUP11 ADD MLOAD SWAP2 SWAP9 POP SWAP1 SWAP4 POP POP POP DUP1 DUP3 GT ISZERO PUSH2 0x8B7 JUMPI PUSH0 DUP1 REVERT JUMPDEST POP PUSH2 0x8C4 DUP8 DUP3 DUP9 ADD PUSH2 0x7A4 JUMP JUMPDEST SWAP4 POP POP PUSH1 0x40 DUP6 ADD MLOAD SWAP2 POP PUSH2 0x8DA PUSH1 0x60 DUP7 ADD PUSH2 0x789 JUMP JUMPDEST SWAP1 POP SWAP3 SWAP6 SWAP2 SWAP5 POP SWAP3 POP JUMP JUMPDEST PUSH1 0x1 DUP2 DUP2 SHR SWAP1 DUP3 AND DUP1 PUSH2 0x8F9 JUMPI PUSH1 0x7F DUP3 AND SWAP2 POP JUMPDEST PUSH1 0x20 DUP3 LT DUP2 SUB PUSH2 0x917 JUMPI PUSH4 0x4E487B71 PUSH1 0xE0 SHL PUSH0 MSTORE PUSH1 0x22 PUSH1 0x4 MSTORE PUSH1 0x24 PUSH0 REVERT JUMPDEST POP SWAP2 SWAP1 POP JUMP JUMPDEST PUSH1 0x1F DUP3 GT ISZERO PUSH2 0x964 JUMPI DUP1 PUSH0 MSTORE PUSH1 0x20 PUSH0 KECCAK256 PUSH1 0x1F DUP5 ADD PUSH1 0x5 SHR DUP2 ADD PUSH1 0x20 DUP6 LT ISZERO PUSH2 0x942 JUMPI POP DUP1 JUMPDEST PUSH1 0x1F DUP5 ADD PUSH1 0x5 SHR DUP3 ADD SWAP2 POP JUMPDEST DUP2 DUP2 LT ISZERO PUSH2 0x961 JUMPI PUSH0 DUP2 SSTORE PUSH1 0x1 ADD PUSH2 0x94E JUMP JUMPDEST POP POP JUMPDEST POP POP POP JUMP JUMPDEST DUP2 MLOAD PUSH1 0x1 PUSH1 0x1 PUSH1 0x40 SHL SUB DUP2 GT ISZERO PUSH2 0x982 JUMPI PUSH2 0x982 PUSH2 0x723 JUMP JUMPDEST PUSH2 0x996 DUP2 PUSH2 0x990 DUP5 SLOAD PUSH2 0x8E5 JUMP JUMPDEST DUP5 PUSH2 0x91D JUMP JUMPDEST PUSH1 0x20 DUP1 PUSH1 0x1F DUP4 GT PUSH1 0x1 DUP2 EQ PUSH2 0x9C9 JUMPI PUSH0 DUP5 ISZERO PUSH2 0x9B2 JUMPI POP DUP6 DUP4 ADD MLOAD JUMPDEST PUSH0 NOT PUSH1 0x3 DUP7 SWAP1 SHL SHR NOT AND PUSH1 0x1 DUP6 SWAP1 SHL OR DUP6 SSTORE PUSH2 0xA20 JUMP JUMPDEST PUSH0 DUP6 DUP2 MSTORE PUSH1 0x20 DUP2 KECCAK256 PUSH1 0x1F NOT DUP7 AND SWAP2 JUMPDEST DUP3 DUP2 LT ISZERO PUSH2 0x9F7 JUMPI DUP9 DUP7 ADD MLOAD DUP3 SSTORE SWAP5 DUP5 ADD SWAP5 PUSH1 0x1 SWAP1 SWAP2 ADD SWAP1 DUP5 ADD PUSH2 0x9D8 JUMP JUMPDEST POP DUP6 DUP3 LT ISZERO PUSH2 0xA14 JUMPI DUP8 DUP6 ADD MLOAD PUSH0 NOT PUSH1 0x3 DUP9 SWAP1 SHL PUSH1 0xF8 AND SHR NOT AND DUP2 SSTORE JUMPDEST POP POP PUSH1 0x1 DUP5 PUSH1 0x1 SHL ADD DUP6 SSTORE JUMPDEST POP POP POP POP POP POP JUMP JUMPDEST PUSH0 PUSH1 0x20 DUP3 DUP5 SUB SLT ISZERO PUSH2 0xA38 JUMPI PUSH0 DUP1 REVERT JUMPDEST PUSH2 0xA41 DUP3 PUSH2 0x789 JUMP JUMPDEST SWAP4 SWAP3 POP POP POP JUMP JUMPDEST PUSH4 0x4E487B71 PUSH1 0xE0 SHL PUSH0 MSTORE PUSH1 0x32 PUSH1 0x4 MSTORE PUSH1 0x24 PUSH0 REVERT JUMPDEST DUP1 DUP3 ADD DUP1 DUP3 GT ISZERO PUSH2 0x71D JUMPI PUSH4 0x4E487B71 PUSH1 0xE0 SHL PUSH0 MSTORE PUSH1 0x11 PUSH1 0x4 MSTORE PUSH1 0x24 PUSH0 REVERT JUMPDEST PUSH0 PUSH1 0x20 DUP3 DUP5 SUB SLT ISZERO PUSH2 0xA8B JUMPI PUSH0 DUP1 REVERT JUMPDEST POP MLOAD SWAP2 SWAP1 POP JUMP JUMPDEST PUSH0 PUSH1 0x20 DUP3 DUP5 SUB SLT ISZERO PUSH2 0xAA2 JUMPI PUSH0 DUP1 REVERT JUMPDEST DUP2 MLOAD DUP1 ISZERO ISZERO DUP2 EQ PUSH2 0xA41 JUMPI PUSH0 DUP1 REVERT JUMPDEST PUSH2 0x3951 DUP1 PUSH2 0xABE PUSH0 CODECOPY PUSH0 RETURN INVALID PUSH1 0x80 PUSH1 0x40 MSTORE CALLVALUE DUP1 ISZERO PUSH2 0xF JUMPI PUSH0 DUP1 REVERT JUMPDEST POP PUSH1 0x4 CALLDATASIZE LT PUSH2 0x1FD JUMPI PUSH0 CALLDATALOAD PUSH1 0xE0 SHR DUP1 PUSH4 0x7B103999 GT PUSH2 0x114 JUMPI DUP1 PUSH4 0xB2B55D70 GT PUSH2 0xA9 JUMPI DUP1 PUSH4 0xD14EF46D GT PUSH2 0x79 JUMPI DUP1 PUSH4 0xD14EF46D EQ PUSH2 0x42E JUMPI DUP1 PUSH4 0xDD62ED3E EQ PUSH2 0x466 JUMPI DUP1 PUSH4 0xDE836EBD EQ PUSH2 0x49E JUMPI DUP1 PUSH4 0xE73FAA2D EQ PUSH2 0x4B1 JUMPI DUP1 PUSH4 0xF47B45E8 EQ PUSH2 0x4B9 JUMPI PUSH0 DUP1 REVERT JUMPDEST DUP1 PUSH4 0xB2B55D70 EQ PUSH2 0x3EC JUMPI DUP1 PUSH4 0xC2EE3A08 EQ PUSH2 0x3FF JUMPI DUP1 PUSH4 0xCDF456E1 EQ PUSH2 0x408 JUMPI DUP1 PUSH4 0xCF8FA764 EQ PUSH2 0x41B JUMPI PUSH0 DUP1 REVERT JUMPDEST DUP1 PUSH4 0x8A77C8DC GT PUSH2 0xE4 JUMPI DUP1 PUSH4 0x8A77C8DC EQ PUSH2 0x3B6 JUMPI DUP1 PUSH4 0x95D89B41 EQ PUSH2 0x3BE JUMPI DUP1 PUSH4 0xA1F241CC EQ PUSH2 0x3C6 JUMPI DUP1 PUSH4 0xA9059CBB EQ PUSH2 0x3D9 JUMPI PUSH0 DUP1 REVERT JUMPDEST DUP1 PUSH4 0x7B103999 EQ PUSH2 0x359 JUMPI DUP1 PUSH4 0x7FEC8D38 EQ PUSH2 0x384 JUMPI DUP1 PUSH4 0x89AB3532 EQ PUSH2 0x38D JUMPI DUP1 PUSH4 0x89AFCB44 EQ PUSH2 0x3A3 JUMPI PUSH0 DUP1 REVERT JUMPDEST DUP1 PUSH4 0x22ACB867 GT PUSH2 0x195 JUMPI DUP1 PUSH4 0x36BF6E39 GT PUSH2 0x165 JUMPI DUP1 PUSH4 0x36BF6E39 EQ PUSH2 0x2E0 JUMPI DUP1 PUSH4 0x4AA06652 EQ PUSH2 0x2F6 JUMPI DUP1 PUSH4 0x67E4AC2C EQ PUSH2 0x309 JUMPI DUP1 PUSH4 0x6E81221C EQ PUSH2 0x31E JUMPI DUP1 PUSH4 0x70A08231 EQ PUSH2 0x331 JUMPI PUSH0 DUP1 REVERT JUMPDEST DUP1 PUSH4 0x22ACB867 EQ PUSH2 0x2A3 JUMPI DUP1 PUSH4 0x23B872DD EQ PUSH2 0x2AB JUMPI DUP1 PUSH4 0x250AA683 EQ PUSH2 0x2BE JUMPI DUP1 PUSH4 0x313CE567 EQ PUSH2 0x2D1 JUMPI PUSH0 DUP1 REVERT JUMPDEST DUP1 PUSH4 0x12899068 GT PUSH2 0x1D0 JUMPI DUP1 PUSH4 0x12899068 EQ PUSH2 0x26A JUMPI DUP1 PUSH4 0x18160DDD EQ PUSH2 0x28B JUMPI DUP1 PUSH4 0x18904EA4 EQ PUSH2 0x293 JUMPI DUP1 PUSH4 0x1A686502 EQ PUSH2 0x29B JUMPI PUSH0 DUP1 REVERT JUMPDEST DUP1 PUSH4 0x6FDDE03 EQ PUSH2 0x201 JUMPI DUP1 PUSH4 0x723C999 EQ PUSH2 0x21F JUMPI DUP1 PUSH4 0x902F1AC EQ PUSH2 0x23F JUMPI DUP1 PUSH4 0x95EA7B3 EQ PUSH2 0x247 JUMPI JUMPDEST PUSH0 DUP1 REVERT JUMPDEST PUSH2 0x209 PUSH2 0x4CF JUMP JUMPDEST PUSH1 0x40 MLOAD PUSH2 0x216 SWAP2 SWAP1 PUSH2 0x3238 JUMP JUMPDEST PUSH1 0x40 MLOAD DUP1 SWAP2 SUB SWAP1 RETURN JUMPDEST PUSH2 0x232 PUSH2 0x22D CALLDATASIZE PUSH1 0x4 PUSH2 0x3284 JUMP JUMPDEST PUSH2 0x55F JUMP JUMPDEST PUSH1 0x40 MLOAD PUSH2 0x216 SWAP2 SWAP1 PUSH2 0x32D9 JUMP JUMPDEST PUSH2 0x232 PUSH2 0x7AB JUMP JUMPDEST PUSH2 0x25A PUSH2 0x255 CALLDATASIZE PUSH1 0x4 PUSH2 0x32EB JUMP JUMPDEST PUSH2 0x893 JUMP JUMPDEST PUSH1 0x40 MLOAD SWAP1 ISZERO ISZERO DUP2 MSTORE PUSH1 0x20 ADD PUSH2 0x216 JUMP JUMPDEST PUSH2 0x27D PUSH2 0x278 CALLDATASIZE PUSH1 0x4 PUSH2 0x3284 JUMP JUMPDEST PUSH2 0x8AC JUMP JUMPDEST PUSH1 0x40 MLOAD SWAP1 DUP2 MSTORE PUSH1 0x20 ADD PUSH2 0x216 JUMP JUMPDEST PUSH1 0x2 SLOAD PUSH2 0x27D JUMP JUMPDEST PUSH2 0x232 PUSH2 0x92F JUMP JUMPDEST PUSH2 0x27D PUSH2 0x9CE JUMP JUMPDEST PUSH2 0x232 PUSH2 0x9DF JUMP JUMPDEST PUSH2 0x25A PUSH2 0x2B9 CALLDATASIZE PUSH1 0x4 PUSH2 0x3315 JUMP JUMPDEST PUSH2 0xA7E JUMP JUMPDEST PUSH2 0x27D PUSH2 0x2CC CALLDATASIZE PUSH1 0x4 PUSH2 0x3284 JUMP JUMPDEST PUSH2 0xAA1 JUMP JUMPDEST PUSH1 0x40 MLOAD PUSH1 0x12 DUP2 MSTORE PUSH1 0x20 ADD PUSH2 0x216 JUMP JUMPDEST PUSH2 0x2E8 PUSH2 0xB1C JUMP JUMPDEST PUSH1 0x40 MLOAD PUSH2 0x216 SWAP3 SWAP2 SWAP1 PUSH2 0x3353 JUMP JUMPDEST PUSH2 0x27D PUSH2 0x304 CALLDATASIZE PUSH1 0x4 PUSH2 0x3315 JUMP JUMPDEST PUSH2 0xB30 JUMP JUMPDEST PUSH2 0x311 PUSH2 0xCF9 JUMP JUMPDEST PUSH1 0x40 MLOAD PUSH2 0x216 SWAP2 SWAP1 PUSH2 0x33A3 JUMP JUMPDEST PUSH2 0x27D PUSH2 0x32C CALLDATASIZE PUSH1 0x4 PUSH2 0x33B5 JUMP JUMPDEST PUSH2 0xDB3 JUMP JUMPDEST PUSH2 0x27D PUSH2 0x33F CALLDATASIZE PUSH1 0x4 PUSH2 0x3284 JUMP JUMPDEST PUSH1 0x1 PUSH1 0x1 PUSH1 0xA0 SHL SUB AND PUSH0 SWAP1 DUP2 MSTORE PUSH1 0x20 DUP2 SWAP1 MSTORE PUSH1 0x40 SWAP1 KECCAK256 SLOAD SWAP1 JUMP JUMPDEST PUSH1 0xB SLOAD PUSH2 0x36C SWAP1 PUSH1 0x1 PUSH1 0x1 PUSH1 0xA0 SHL SUB AND DUP2 JUMP JUMPDEST PUSH1 0x40 MLOAD PUSH1 0x1 PUSH1 0x1 PUSH1 0xA0 SHL SUB SWAP1 SWAP2 AND DUP2 MSTORE PUSH1 0x20 ADD PUSH2 0x216 JUMP JUMPDEST PUSH2 0x27D PUSH1 0x7 SLOAD DUP2 JUMP JUMPDEST PUSH2 0x395 PUSH2 0x1040 JUMP JUMPDEST PUSH1 0x40 MLOAD PUSH2 0x216 SWAP3 SWAP2 SWAP1 PUSH2 0x3405 JUMP JUMPDEST PUSH2 0x232 PUSH2 0x3B1 CALLDATASIZE PUSH1 0x4 PUSH2 0x3284 JUMP JUMPDEST PUSH2 0x11F9 JUMP JUMPDEST PUSH2 0x25A PUSH2 0x1765 JUMP JUMPDEST PUSH2 0x209 PUSH2 0x17DF JUMP JUMPDEST PUSH2 0x27D PUSH2 0x3D4 CALLDATASIZE PUSH1 0x4 PUSH2 0x3315 JUMP JUMPDEST PUSH2 0x17EE JUMP JUMPDEST PUSH2 0x25A PUSH2 0x3E7 CALLDATASIZE PUSH1 0x4 PUSH2 0x32EB JUMP JUMPDEST PUSH2 0x1909 JUMP JUMPDEST PUSH2 0x27D PUSH2 0x3FA CALLDATASIZE PUSH1 0x4 PUSH2 0x3284 JUMP JUMPDEST PUSH2 0x1916 JUMP JUMPDEST PUSH2 0x27D PUSH1 0x8 SLOAD DUP2 JUMP JUMPDEST PUSH1 0x9 SLOAD PUSH2 0x36C SWAP1 PUSH1 0x1 PUSH1 0x1 PUSH1 0xA0 SHL SUB AND DUP2 JUMP JUMPDEST PUSH2 0x27D PUSH2 0x429 CALLDATASIZE PUSH1 0x4 PUSH2 0x3454 JUMP JUMPDEST PUSH2 0x1A05 JUMP JUMPDEST PUSH2 0x441 PUSH2 0x43C CALLDATASIZE PUSH1 0x4 PUSH2 0x3454 JUMP JUMPDEST PUSH2 0x1A7A JUMP JUMPDEST PUSH1 0x40 DUP1 MLOAD PUSH1 0x1 PUSH1 0x1 PUSH1 0xA0 SHL SUB SWAP1 SWAP5 AND DUP5 MSTORE PUSH1 0x20 DUP5 ADD SWAP3 SWAP1 SWAP3 MSTORE SWAP1 DUP3 ADD MSTORE PUSH1 0x60 ADD PUSH2 0x216 JUMP JUMPDEST PUSH2 0x27D PUSH2 0x474 CALLDATASIZE PUSH1 0x4 PUSH2 0x346B JUMP JUMPDEST PUSH1 0x1 PUSH1 0x1 PUSH1 0xA0 SHL SUB SWAP2 DUP3 AND PUSH0 SWAP1 DUP2 MSTORE PUSH1 0x1 PUSH1 0x20 SWAP1 DUP2 MSTORE PUSH1 0x40 DUP1 DUP4 KECCAK256 SWAP4 SWAP1 SWAP5 AND DUP3 MSTORE SWAP2 SWAP1 SWAP2 MSTORE KECCAK256 SLOAD SWAP1 JUMP JUMPDEST PUSH2 0x27D PUSH2 0x4AC CALLDATASIZE PUSH1 0x4 PUSH2 0x3508 JUMP JUMPDEST PUSH2 0x1AB5 JUMP JUMPDEST PUSH2 0x27D PUSH2 0x1E4D JUMP JUMPDEST PUSH2 0x4C1 PUSH2 0x1F35 JUMP JUMPDEST PUSH1 0x40 MLOAD PUSH2 0x216 SWAP3 SWAP2 SWAP1 PUSH2 0x35AD JUMP JUMPDEST PUSH1 0x60 PUSH1 0x3 DUP1 SLOAD PUSH2 0x4DE SWAP1 PUSH2 0x35D1 JUMP JUMPDEST DUP1 PUSH1 0x1F ADD PUSH1 0x20 DUP1 SWAP2 DIV MUL PUSH1 0x20 ADD PUSH1 0x40 MLOAD SWAP1 DUP2 ADD PUSH1 0x40 MSTORE DUP1 SWAP3 SWAP2 SWAP1 DUP2 DUP2 MSTORE PUSH1 0x20 ADD DUP3 DUP1 SLOAD PUSH2 0x50A SWAP1 PUSH2 0x35D1 JUMP JUMPDEST DUP1 ISZERO PUSH2 0x555 JUMPI DUP1 PUSH1 0x1F LT PUSH2 0x52C JUMPI PUSH2 0x100 DUP1 DUP4 SLOAD DIV MUL DUP4 MSTORE SWAP2 PUSH1 0x20 ADD SWAP2 PUSH2 0x555 JUMP JUMPDEST DUP3 ADD SWAP2 SWAP1 PUSH0 MSTORE PUSH1 0x20 PUSH0 KECCAK256 SWAP1 JUMPDEST DUP2 SLOAD DUP2 MSTORE SWAP1 PUSH1 0x1 ADD SWAP1 PUSH1 0x20 ADD DUP1 DUP4 GT PUSH2 0x538 JUMPI DUP3 SWAP1 SUB PUSH1 0x1F AND DUP3 ADD SWAP2 JUMPDEST POP POP POP POP POP SWAP1 POP SWAP1 JUMP JUMPDEST PUSH1 0x60 PUSH0 PUSH1 0xB PUSH0 SWAP1 SLOAD SWAP1 PUSH2 0x100 EXP SWAP1 DIV PUSH1 0x1 PUSH1 0x1 PUSH1 0xA0 SHL SUB AND PUSH1 0x1 PUSH1 0x1 PUSH1 0xA0 SHL SUB AND PUSH4 0x1ACB6141 PUSH1 0x40 MLOAD DUP2 PUSH4 0xFFFFFFFF AND PUSH1 0xE0 SHL DUP2 MSTORE PUSH1 0x4 ADD PUSH1 0x20 PUSH1 0x40 MLOAD DUP1 DUP4 SUB DUP2 DUP7 GAS STATICCALL ISZERO DUP1 ISZERO PUSH2 0x5B2 JUMPI RETURNDATASIZE PUSH0 DUP1 RETURNDATACOPY RETURNDATASIZE PUSH0 REVERT JUMPDEST POP POP POP POP PUSH1 0x40 MLOAD RETURNDATASIZE PUSH1 0x1F NOT PUSH1 0x1F DUP3 ADD AND DUP3 ADD DUP1 PUSH1 0x40 MSTORE POP DUP2 ADD SWAP1 PUSH2 0x5D6 SWAP2 SWAP1 PUSH2 0x3603 JUMP JUMPDEST SWAP1 POP CALLER PUSH1 0x1 PUSH1 0x1 PUSH1 0xA0 SHL SUB DUP3 AND EQ PUSH2 0x609 JUMPI PUSH1 0x40 MLOAD PUSH3 0x461BCD PUSH1 0xE5 SHL DUP2 MSTORE PUSH1 0x4 ADD PUSH2 0x600 SWAP1 PUSH2 0x361E JUMP JUMPDEST PUSH1 0x40 MLOAD DUP1 SWAP2 SUB SWAP1 REVERT JUMPDEST PUSH2 0x611 PUSH2 0x1765 JUMP JUMPDEST PUSH2 0x654 JUMPI PUSH1 0x40 MLOAD PUSH3 0x461BCD PUSH1 0xE5 SHL DUP2 MSTORE PUSH1 0x20 PUSH1 0x4 DUP3 ADD MSTORE PUSH1 0x14 PUSH1 0x24 DUP3 ADD MSTORE PUSH20 0x149958985B185B98D9481B9BDD081B9959591959 PUSH1 0x62 SHL PUSH1 0x44 DUP3 ADD MSTORE PUSH1 0x64 ADD PUSH2 0x600 JUMP JUMPDEST PUSH0 DUP1 PUSH2 0x65E PUSH2 0x2033 JUMP JUMPDEST SWAP2 POP SWAP2 POP PUSH0 PUSH2 0x66D DUP4 DUP4 PUSH2 0x2162 JUMP JUMPDEST SWAP1 POP PUSH0 PUSH2 0x679 DUP3 PUSH2 0x2263 JUMP JUMPDEST SWAP1 POP PUSH1 0xA SLOAD DUP2 PUSH2 0x689 SWAP2 SWAP1 PUSH2 0x365A JUMP JUMPDEST PUSH1 0x6 SLOAD SWAP1 SWAP2 POP PUSH0 SWAP1 PUSH1 0x1 PUSH1 0x1 PUSH1 0x40 SHL SUB DUP2 GT ISZERO PUSH2 0x6A8 JUMPI PUSH2 0x6A8 PUSH2 0x34A2 JUMP JUMPDEST PUSH1 0x40 MLOAD SWAP1 DUP1 DUP3 MSTORE DUP1 PUSH1 0x20 MUL PUSH1 0x20 ADD DUP3 ADD PUSH1 0x40 MSTORE DUP1 ISZERO PUSH2 0x6D1 JUMPI DUP2 PUSH1 0x20 ADD PUSH1 0x20 DUP3 MUL DUP1 CALLDATASIZE DUP4 CALLDATACOPY ADD SWAP1 POP JUMPDEST POP SWAP1 POP PUSH0 JUMPDEST DUP4 MLOAD DUP2 LT ISZERO PUSH2 0x74A JUMPI PUSH0 DUP5 DUP3 DUP2 MLOAD DUP2 LT PUSH2 0x6F2 JUMPI PUSH2 0x6F2 PUSH2 0x3671 JUMP JUMPDEST PUSH1 0x20 MUL PUSH1 0x20 ADD ADD MLOAD GT ISZERO PUSH2 0x742 JUMPI PUSH2 0x723 DUP2 DUP6 DUP4 DUP2 MLOAD DUP2 LT PUSH2 0x716 JUMPI PUSH2 0x716 PUSH2 0x3671 JUMP JUMPDEST PUSH1 0x20 MUL PUSH1 0x20 ADD ADD MLOAD PUSH2 0x229F JUMP JUMPDEST DUP3 DUP3 DUP2 MLOAD DUP2 LT PUSH2 0x735 JUMPI PUSH2 0x735 PUSH2 0x3671 JUMP JUMPDEST PUSH1 0x20 MUL PUSH1 0x20 ADD ADD DUP2 DUP2 MSTORE POP POP JUMPDEST PUSH1 0x1 ADD PUSH2 0x6D6 JUMP JUMPDEST POP PUSH2 0x755 DUP9 DUP4 PUSH2 0x236F JUMP JUMPDEST PUSH2 0x75D PUSH2 0x23A7 JUMP JUMPDEST CALLER PUSH1 0x1 PUSH1 0x1 PUSH1 0xA0 SHL SUB AND PUSH32 0xA95AD530009C6F929555E70A66AADBEAE7231E45756C5B028CA77FBAA376E73E DUP5 PUSH1 0x40 MLOAD PUSH2 0x796 SWAP2 SWAP1 PUSH2 0x32D9 JUMP JUMPDEST PUSH1 0x40 MLOAD DUP1 SWAP2 SUB SWAP1 LOG2 SWAP6 POP POP POP POP POP JUMPDEST POP SWAP2 SWAP1 POP JUMP JUMPDEST PUSH1 0x60 PUSH0 PUSH1 0xB PUSH0 SWAP1 SLOAD SWAP1 PUSH2 0x100 EXP SWAP1 DIV PUSH1 0x1 PUSH1 0x1 PUSH1 0xA0 SHL SUB AND PUSH1 0x1 PUSH1 0x1 PUSH1 0xA0 SHL SUB AND PUSH4 0x1ACB6141 PUSH1 0x40 MLOAD DUP2 PUSH4 0xFFFFFFFF AND PUSH1 0xE0 SHL DUP2 MSTORE PUSH1 0x4 ADD PUSH1 0x20 PUSH1 0x40 MLOAD DUP1 DUP4 SUB DUP2 DUP7 GAS STATICCALL ISZERO DUP1 ISZERO PUSH2 0x7FE JUMPI RETURNDATASIZE PUSH0 DUP1 RETURNDATACOPY RETURNDATASIZE PUSH0 REVERT JUMPDEST POP POP POP POP PUSH1 0x40 MLOAD RETURNDATASIZE PUSH1 0x1F NOT PUSH1 0x1F DUP3 ADD AND DUP3 ADD DUP1 PUSH1 0x40 MSTORE POP DUP2 ADD SWAP1 PUSH2 0x822 SWAP2 SWAP1 PUSH2 0x3603 JUMP JUMPDEST PUSH1 0x40 MLOAD PUSH4 0xFA67079 PUSH1 0xE2 SHL DUP2 MSTORE ADDRESS PUSH1 0x4 DUP3 ADD MSTORE SWAP1 SWAP2 POP PUSH1 0x1 PUSH1 0x1 PUSH1 0xA0 SHL SUB DUP3 AND SWAP1 PUSH4 0x3E99C1E4 SWAP1 PUSH1 0x24 ADD PUSH0 PUSH1 0x40 MLOAD DUP1 DUP4 SUB DUP2 DUP7 GAS STATICCALL ISZERO DUP1 ISZERO PUSH2 0x866 JUMPI RETURNDATASIZE PUSH0 DUP1 RETURNDATACOPY RETURNDATASIZE PUSH0 REVERT JUMPDEST POP POP POP POP PUSH1 0x40 MLOAD RETURNDATASIZE PUSH0 DUP3 RETURNDATACOPY PUSH1 0x1F RETURNDATASIZE SWAP1 DUP2 ADD PUSH1 0x1F NOT AND DUP3 ADD PUSH1 0x40 MSTORE PUSH2 0x88D SWAP2 SWAP1 DUP2 ADD SWAP1 PUSH2 0x3685 JUMP JUMPDEST SWAP2 POP POP SWAP1 JUMP JUMPDEST PUSH0 CALLER PUSH2 0x8A0 DUP2 DUP6 DUP6 PUSH2 0x260A JUMP JUMPDEST PUSH1 0x1 SWAP2 POP POP JUMPDEST SWAP3 SWAP2 POP POP JUMP JUMPDEST PUSH0 DUP1 JUMPDEST PUSH1 0x6 SLOAD DUP2 LT ISZERO PUSH2 0x927 JUMPI DUP3 PUSH1 0x1 PUSH1 0x1 PUSH1 0xA0 SHL SUB AND PUSH1 0x6 DUP3 DUP2 SLOAD DUP2 LT PUSH2 0x8D6 JUMPI PUSH2 0x8D6 PUSH2 0x3671 JUMP JUMPDEST PUSH0 SWAP2 DUP3 MSTORE PUSH1 0x20 SWAP1 SWAP2 KECCAK256 PUSH1 0x3 SWAP1 SWAP2 MUL ADD SLOAD PUSH1 0x1 PUSH1 0x1 PUSH1 0xA0 SHL SUB AND SUB PUSH2 0x91F JUMPI PUSH1 0x6 DUP2 DUP2 SLOAD DUP2 LT PUSH2 0x907 JUMPI PUSH2 0x907 PUSH2 0x3671 JUMP JUMPDEST SWAP1 PUSH0 MSTORE PUSH1 0x20 PUSH0 KECCAK256 SWAP1 PUSH1 0x3 MUL ADD PUSH1 0x2 ADD SLOAD SWAP2 POP POP SWAP2 SWAP1 POP JUMP JUMPDEST PUSH1 0x1 ADD PUSH2 0x8AF JUMP JUMPDEST POP PUSH0 SWAP3 SWAP2 POP POP JUMP JUMPDEST PUSH1 0x6 SLOAD PUSH1 0x60 SWAP1 PUSH0 SWAP1 PUSH1 0x1 PUSH1 0x1 PUSH1 0x40 SHL SUB DUP2 GT ISZERO PUSH2 0x94E JUMPI PUSH2 0x94E PUSH2 0x34A2 JUMP JUMPDEST PUSH1 0x40 MLOAD SWAP1 DUP1 DUP3 MSTORE DUP1 PUSH1 0x20 MUL PUSH1 0x20 ADD DUP3 ADD PUSH1 0x40 MSTORE DUP1 ISZERO PUSH2 0x977 JUMPI DUP2 PUSH1 0x20 ADD PUSH1 0x20 DUP3 MUL DUP1 CALLDATASIZE DUP4 CALLDATACOPY ADD SWAP1 POP JUMPDEST POP SWAP1 POP PUSH0 JUMPDEST PUSH1 0x6 SLOAD DUP2 LT ISZERO PUSH2 0x7A5 JUMPI PUSH1 0x6 DUP2 DUP2 SLOAD DUP2 LT PUSH2 0x999 JUMPI PUSH2 0x999 PUSH2 0x3671 JUMP JUMPDEST SWAP1 PUSH0 MSTORE PUSH1 0x20 PUSH0 KECCAK256 SWAP1 PUSH1 0x3 MUL ADD PUSH1 0x2 ADD SLOAD DUP3 DUP3 DUP2 MLOAD DUP2 LT PUSH2 0x9BB JUMPI PUSH2 0x9BB PUSH2 0x3671 JUMP JUMPDEST PUSH1 0x20 SWAP1 DUP2 MUL SWAP2 SWAP1 SWAP2 ADD ADD MSTORE PUSH1 0x1 ADD PUSH2 0x97C JUMP JUMPDEST PUSH0 DUP1 PUSH2 0x9D8 PUSH2 0x2033 JUMP JUMPDEST POP SWAP3 SWAP2 POP POP JUMP JUMPDEST PUSH1 0x6 SLOAD PUSH1 0x60 SWAP1 PUSH0 SWAP1 PUSH1 0x1 PUSH1 0x1 PUSH1 0x40 SHL SUB DUP2 GT ISZERO PUSH2 0x9FE JUMPI PUSH2 0x9FE PUSH2 0x34A2 JUMP JUMPDEST PUSH1 0x40 MLOAD SWAP1 DUP1 DUP3 MSTORE DUP1 PUSH1 0x20 MUL PUSH1 0x20 ADD DUP3 ADD PUSH1 0x40 MSTORE DUP1 ISZERO PUSH2 0xA27 JUMPI DUP2 PUSH1 0x20 ADD PUSH1 0x20 DUP3 MUL DUP1 CALLDATASIZE DUP4 CALLDATACOPY ADD SWAP1 POP JUMPDEST POP SWAP1 POP PUSH0 JUMPDEST PUSH1 0x6 SLOAD DUP2 LT ISZERO PUSH2 0x7A5 JUMPI PUSH1 0x6 DUP2 DUP2 SLOAD DUP2 LT PUSH2 0xA49 JUMPI PUSH2 0xA49 PUSH2 0x3671 JUMP JUMPDEST SWAP1 PUSH0 MSTORE PUSH1 0x20 PUSH0 KECCAK256 SWAP1 PUSH1 0x3 MUL ADD PUSH1 0x1 ADD SLOAD DUP3 DUP3 DUP2 MLOAD DUP2 LT PUSH2 0xA6B JUMPI PUSH2 0xA6B PUSH2 0x3671 JUMP JUMPDEST PUSH1 0x20 SWAP1 DUP2 MUL SWAP2 SWAP1 SWAP2 ADD ADD MSTORE PUSH1 0x1 ADD PUSH2 0xA2C JUMP JUMPDEST PUSH0 CALLER PUSH2 0xA8B DUP6 DUP3 DUP6 PUSH2 0x2617 JUMP JUMPDEST PUSH2 0xA96 DUP6 DUP6 DUP6 PUSH2 0x2692 JUMP JUMPDEST POP PUSH1 0x1 SWAP5 SWAP4 POP POP POP POP JUMP JUMPDEST PUSH0 DUP1 JUMPDEST PUSH1 0x6 SLOAD DUP2 LT ISZERO PUSH2 0x927 JUMPI DUP3 PUSH1 0x1 PUSH1 0x1 PUSH1 0xA0 SHL SUB AND PUSH1 0x6 DUP3 DUP2 SLOAD DUP2 LT PUSH2 0xACB JUMPI PUSH2 0xACB PUSH2 0x3671 JUMP JUMPDEST PUSH0 SWAP2 DUP3 MSTORE PUSH1 0x20 SWAP1 SWAP2 KECCAK256 PUSH1 0x3 SWAP1 SWAP2 MUL ADD SLOAD PUSH1 0x1 PUSH1 0x1 PUSH1 0xA0 SHL SUB AND SUB PUSH2 0xB14 JUMPI PUSH1 0x6 DUP2 DUP2 SLOAD DUP2 LT PUSH2 0xAFC JUMPI PUSH2 0xAFC PUSH2 0x3671 JUMP JUMPDEST SWAP1 PUSH0 MSTORE PUSH1 0x20 PUSH0 KECCAK256 SWAP1 PUSH1 0x3 MUL ADD PUSH1 0x1 ADD SLOAD SWAP2 POP POP SWAP2 SWAP1 POP JUMP JUMPDEST PUSH1 0x1 ADD PUSH2 0xAA4 JUMP JUMPDEST PUSH0 PUSH1 0x60 PUSH2 0xB27 PUSH2 0x2033 JUMP JUMPDEST SWAP1 SWAP4 SWAP1 SWAP3 POP SWAP1 POP JUMP JUMPDEST PUSH0 DUP1 PUSH1 0xB PUSH0 SWAP1 SLOAD SWAP1 PUSH2 0x100 EXP SWAP1 DIV PUSH1 0x1 PUSH1 0x1 PUSH1 0xA0 SHL SUB AND PUSH1 0x1 PUSH1 0x1 PUSH1 0xA0 SHL SUB AND PUSH4 0xBB3BA04C PUSH1 0x40 MLOAD DUP2 PUSH4 0xFFFFFFFF AND PUSH1 0xE0 SHL DUP2 MSTORE PUSH1 0x4 ADD PUSH1 0x20 PUSH1 0x40 MLOAD DUP1 DUP4 SUB DUP2 DUP7 GAS STATICCALL ISZERO DUP1 ISZERO PUSH2 0xB82 JUMPI RETURNDATASIZE PUSH0 DUP1 RETURNDATACOPY RETURNDATASIZE PUSH0 REVERT JUMPDEST POP POP POP POP PUSH1 0x40 MLOAD RETURNDATASIZE PUSH1 0x1F NOT PUSH1 0x1F DUP3 ADD AND DUP3 ADD DUP1 PUSH1 0x40 MSTORE POP DUP2 ADD SWAP1 PUSH2 0xBA6 SWAP2 SWAP1 PUSH2 0x3603 JUMP JUMPDEST SWAP1 POP PUSH0 PUSH1 0x1 PUSH1 0x1 PUSH1 0xA0 SHL SUB AND PUSH1 0xB PUSH0 SWAP1 SLOAD SWAP1 PUSH2 0x100 EXP SWAP1 DIV PUSH1 0x1 PUSH1 0x1 PUSH1 0xA0 SHL SUB AND PUSH1 0x1 PUSH1 0x1 PUSH1 0xA0 SHL SUB AND PUSH4 0xBB3BA04C PUSH1 0x40 MLOAD DUP2 PUSH4 0xFFFFFFFF AND PUSH1 0xE0 SHL DUP2 MSTORE PUSH1 0x4 ADD PUSH1 0x20 PUSH1 0x40 MLOAD DUP1 DUP4 SUB DUP2 DUP7 GAS STATICCALL ISZERO DUP1 ISZERO PUSH2 0xC02 JUMPI RETURNDATASIZE PUSH0 DUP1 RETURNDATACOPY RETURNDATASIZE PUSH0 REVERT JUMPDEST POP POP POP POP PUSH1 0x40 MLOAD RETURNDATASIZE PUSH1 0x1F NOT PUSH1 0x1F DUP3 ADD AND DUP3 ADD DUP1 PUSH1 0x40 MSTORE POP DUP2 ADD SWAP1 PUSH2 0xC26 SWAP2 SWAP1 PUSH2 0x3603 JUMP JUMPDEST PUSH1 0x1 PUSH1 0x1 PUSH1 0xA0 SHL SUB AND SUB PUSH2 0xC75 JUMPI PUSH1 0x40 MLOAD PUSH3 0x461BCD PUSH1 0xE5 SHL DUP2 MSTORE PUSH1 0x20 PUSH1 0x4 DUP3 ADD MSTORE PUSH1 0x16 PUSH1 0x24 DUP3 ADD MSTORE PUSH22 0x496E76616C6964206F7261636C652061646472657373 PUSH1 0x50 SHL PUSH1 0x44 DUP3 ADD MSTORE PUSH1 0x64 ADD PUSH2 0x600 JUMP JUMPDEST PUSH1 0x40 MLOAD PUSH4 0x248391FF PUSH1 0xE0 SHL DUP2 MSTORE PUSH1 0x1 PUSH1 0x1 PUSH1 0xA0 SHL SUB DUP7 DUP2 AND PUSH1 0x4 DUP4 ADD MSTORE DUP6 DUP2 AND PUSH1 0x24 DUP4 ADD MSTORE PUSH1 0x44 DUP3 ADD DUP6 SWAP1 MSTORE PUSH0 SWAP2 SWAP1 DUP4 AND SWAP1 PUSH4 0x248391FF SWAP1 PUSH1 0x64 ADD PUSH1 0x20 PUSH1 0x40 MLOAD DUP1 DUP4 SUB DUP2 DUP7 GAS STATICCALL ISZERO DUP1 ISZERO PUSH2 0xCCB JUMPI RETURNDATASIZE PUSH0 DUP1 RETURNDATACOPY RETURNDATASIZE PUSH0 REVERT JUMPDEST POP POP POP POP PUSH1 0x40 MLOAD RETURNDATASIZE PUSH1 0x1F NOT PUSH1 0x1F DUP3 ADD AND DUP3 ADD DUP1 PUSH1 0x40 MSTORE POP DUP2 ADD SWAP1 PUSH2 0xCEF SWAP2 SWAP1 PUSH2 0x3710 JUMP JUMPDEST SWAP7 SWAP6 POP POP POP POP POP POP JUMP JUMPDEST PUSH1 0x6 SLOAD PUSH1 0x60 SWAP1 PUSH0 SWAP1 PUSH1 0x1 PUSH1 0x1 PUSH1 0x40 SHL SUB DUP2 GT ISZERO PUSH2 0xD18 JUMPI PUSH2 0xD18 PUSH2 0x34A2 JUMP JUMPDEST PUSH1 0x40 MLOAD SWAP1 DUP1 DUP3 MSTORE DUP1 PUSH1 0x20 MUL PUSH1 0x20 ADD DUP3 ADD PUSH1 0x40 MSTORE DUP1 ISZERO PUSH2 0xD41 JUMPI DUP2 PUSH1 0x20 ADD PUSH1 0x20 DUP3 MUL DUP1 CALLDATASIZE DUP4 CALLDATACOPY ADD SWAP1 POP JUMPDEST POP SWAP1 POP PUSH0 JUMPDEST PUSH1 0x6 SLOAD DUP2 LT ISZERO PUSH2 0x7A5 JUMPI PUSH1 0x6 DUP2 DUP2 SLOAD DUP2 LT PUSH2 0xD63 JUMPI PUSH2 0xD63 PUSH2 0x3671 JUMP JUMPDEST PUSH0 SWAP2 DUP3 MSTORE PUSH1 0x20 SWAP1 SWAP2 KECCAK256 PUSH1 0x3 SWAP1 SWAP2 MUL ADD SLOAD DUP3 MLOAD PUSH1 0x1 PUSH1 0x1 PUSH1 0xA0 SHL SUB SWAP1 SWAP2 AND SWAP1 DUP4 SWAP1 DUP4 SWAP1 DUP2 LT PUSH2 0xD93 JUMPI PUSH2 0xD93 PUSH2 0x3671 JUMP JUMPDEST PUSH1 0x1 PUSH1 0x1 PUSH1 0xA0 SHL SUB SWAP1 SWAP3 AND PUSH1 0x20 SWAP3 DUP4 MUL SWAP2 SWAP1 SWAP2 ADD SWAP1 SWAP2 ADD MSTORE PUSH1 0x1 ADD PUSH2 0xD46 JUMP JUMPDEST PUSH0 PUSH2 0xDBC PUSH2 0x26EF JUMP JUMPDEST PUSH1 0xB SLOAD PUSH1 0x40 DUP1 MLOAD PUSH4 0x85462D6F PUSH1 0xE0 SHL DUP2 MSTORE SWAP1 MLOAD PUSH0 SWAP3 PUSH1 0x1 PUSH1 0x1 PUSH1 0xA0 SHL SUB AND SWAP2 PUSH4 0x85462D6F SWAP2 PUSH1 0x4 DUP1 DUP4 ADD SWAP3 PUSH1 0x20 SWAP3 SWAP2 SWAP1 DUP3 SWAP1 SUB ADD DUP2 DUP7 GAS STATICCALL ISZERO DUP1 ISZERO PUSH2 0xE03 JUMPI RETURNDATASIZE PUSH0 DUP1 RETURNDATACOPY RETURNDATASIZE PUSH0 REVERT JUMPDEST POP POP POP POP PUSH1 0x40 MLOAD RETURNDATASIZE PUSH1 0x1F NOT PUSH1 0x1F DUP3 ADD AND DUP3 ADD DUP1 PUSH1 0x40 MSTORE POP DUP2 ADD SWAP1 PUSH2 0xE27 SWAP2 SWAP1 PUSH2 0x3710 JUMP JUMPDEST SWAP1 POP DUP5 PUSH1 0x1 PUSH1 0x1 PUSH1 0xA0 SHL SUB AND DUP7 PUSH1 0x1 PUSH1 0x1 PUSH1 0xA0 SHL SUB AND SUB PUSH2 0xE8A JUMPI PUSH1 0x40 MLOAD PUSH3 0x461BCD PUSH1 0xE5 SHL DUP2 MSTORE PUSH1 0x20 PUSH1 0x4 DUP3 ADD MSTORE PUSH1 0x1A PUSH1 0x24 DUP3 ADD MSTORE PUSH32 0x43616E6E6F742073776170207468652073616D6520746F6B656E000000000000 PUSH1 0x44 DUP3 ADD MSTORE PUSH1 0x64 ADD PUSH2 0x600 JUMP JUMPDEST PUSH0 DUP5 GT PUSH2 0xED9 JUMPI PUSH1 0x40 MLOAD PUSH3 0x461BCD PUSH1 0xE5 SHL DUP2 MSTORE PUSH1 0x20 PUSH1 0x4 DUP3 ADD DUP2 SWAP1 MSTORE PUSH1 0x24 DUP3 ADD MSTORE PUSH32 0x416D6F756E74206D7573742062652067726561746572207468616E207A65726F PUSH1 0x44 DUP3 ADD MSTORE PUSH1 0x64 ADD PUSH2 0x600 JUMP JUMPDEST PUSH2 0xEE1 PUSH2 0x23A7 JUMP JUMPDEST PUSH0 PUSH2 0xEED DUP8 DUP8 DUP8 PUSH2 0x17EE JUMP JUMPDEST SWAP1 POP DUP1 PUSH2 0xEF9 DUP8 PUSH2 0x1916 JUMP JUMPDEST LT ISZERO PUSH2 0xF40 JUMPI PUSH1 0x40 MLOAD PUSH3 0x461BCD PUSH1 0xE5 SHL DUP2 MSTORE PUSH1 0x20 PUSH1 0x4 DUP3 ADD MSTORE PUSH1 0x16 PUSH1 0x24 DUP3 ADD MSTORE PUSH22 0x496E73756666696369656E74204C6971756964697479 PUSH1 0x50 SHL PUSH1 0x44 DUP3 ADD MSTORE PUSH1 0x64 ADD PUSH2 0x600 JUMP JUMPDEST PUSH0 PUSH2 0x2710 PUSH2 0xF4E DUP5 DUP5 PUSH2 0x365A JUMP JUMPDEST PUSH2 0xF58 SWAP2 SWAP1 PUSH2 0x373B JUMP JUMPDEST SWAP1 POP PUSH2 0xF64 DUP2 DUP4 PUSH2 0x374E JUMP JUMPDEST SWAP4 POP PUSH0 DUP5 GT PUSH2 0xFC3 JUMPI PUSH1 0x40 MLOAD PUSH3 0x461BCD PUSH1 0xE5 SHL DUP2 MSTORE PUSH1 0x20 PUSH1 0x4 DUP3 ADD MSTORE PUSH1 0x25 PUSH1 0x24 DUP3 ADD MSTORE PUSH32 0x416D6F756E7420746F2073656E64206D75737420626520677265617465722074 PUSH1 0x44 DUP3 ADD MSTORE PUSH5 0x68616E203 PUSH1 0xDC SHL PUSH1 0x64 DUP3 ADD MSTORE PUSH1 0x84 ADD PUSH2 0x600 JUMP JUMPDEST PUSH2 0xFCB PUSH2 0x23A7 JUMP JUMPDEST DUP7 PUSH1 0x1 PUSH1 0x1 PUSH1 0xA0 SHL SUB AND DUP9 PUSH1 0x1 PUSH1 0x1 PUSH1 0xA0 SHL SUB AND DUP7 PUSH1 0x1 PUSH1 0x1 PUSH1 0xA0 SHL SUB AND PUSH32 0xCD3829A3813DC3CDD188FD3D01DCF3268C16BE2FDD2DD21D0665418816E46062 DUP10 DUP9 PUSH1 0x40 MLOAD PUSH2 0x1023 SWAP3 SWAP2 SWAP1 SWAP2 DUP3 MSTORE PUSH1 0x20 DUP3 ADD MSTORE PUSH1 0x40 ADD SWAP1 JUMP JUMPDEST PUSH1 0x40 MLOAD DUP1 SWAP2 SUB SWAP1 LOG4 POP POP POP PUSH2 0x1038 PUSH1 0x1 PUSH1 0x5 SSTORE JUMP JUMPDEST SWAP5 SWAP4 POP POP POP POP JUMP JUMPDEST PUSH1 0x60 DUP1 PUSH0 DUP1 PUSH2 0x104D PUSH2 0x2033 JUMP JUMPDEST PUSH1 0x6 SLOAD SWAP2 SWAP4 POP SWAP2 POP DUP1 PUSH1 0x1 PUSH1 0x1 PUSH1 0x40 SHL SUB DUP2 GT ISZERO PUSH2 0x106D JUMPI PUSH2 0x106D PUSH2 0x34A2 JUMP JUMPDEST PUSH1 0x40 MLOAD SWAP1 DUP1 DUP3 MSTORE DUP1 PUSH1 0x20 MUL PUSH1 0x20 ADD DUP3 ADD PUSH1 0x40 MSTORE DUP1 ISZERO PUSH2 0x1096 JUMPI DUP2 PUSH1 0x20 ADD PUSH1 0x20 DUP3 MUL DUP1 CALLDATASIZE DUP4 CALLDATACOPY ADD SWAP1 POP JUMPDEST POP SWAP5 POP DUP1 PUSH1 0x1 PUSH1 0x1 PUSH1 0x40 SHL SUB DUP2 GT ISZERO PUSH2 0x10B1 JUMPI PUSH2 0x10B1 PUSH2 0x34A2 JUMP JUMPDEST PUSH1 0x40 MLOAD SWAP1 DUP1 DUP3 MSTORE DUP1 PUSH1 0x20 MUL PUSH1 0x20 ADD DUP3 ADD PUSH1 0x40 MSTORE DUP1 ISZERO PUSH2 0x10DA JUMPI DUP2 PUSH1 0x20 ADD PUSH1 0x20 DUP3 MUL DUP1 CALLDATASIZE DUP4 CALLDATACOPY ADD SWAP1 POP JUMPDEST POP SWAP4 POP PUSH0 JUMPDEST DUP2 DUP2 LT ISZERO PUSH2 0x11F1 JUMPI PUSH0 DUP5 DUP5 DUP4 DUP2 MLOAD DUP2 LT PUSH2 0x10FB JUMPI PUSH2 0x10FB PUSH2 0x3671 JUMP JUMPDEST PUSH1 0x20 MUL PUSH1 0x20 ADD ADD MLOAD PUSH2 0x2710 PUSH2 0x1110 SWAP2 SWAP1 PUSH2 0x365A JUMP JUMPDEST PUSH2 0x111A SWAP2 SWAP1 PUSH2 0x373B JUMP JUMPDEST SWAP1 POP PUSH0 PUSH1 0x6 DUP4 DUP2 SLOAD DUP2 LT PUSH2 0x1130 JUMPI PUSH2 0x1130 PUSH2 0x3671 JUMP JUMPDEST SWAP1 PUSH0 MSTORE PUSH1 0x20 PUSH0 KECCAK256 SWAP1 PUSH1 0x3 MUL ADD PUSH1 0x1 ADD SLOAD SWAP1 POP DUP1 DUP3 GT ISZERO PUSH2 0x119B JUMPI PUSH2 0x1154 DUP2 DUP4 PUSH2 0x374E JUMP JUMPDEST DUP8 DUP5 DUP2 MLOAD DUP2 LT PUSH2 0x1166 JUMPI PUSH2 0x1166 PUSH2 0x3671 JUMP JUMPDEST PUSH1 0x20 MUL PUSH1 0x20 ADD ADD DUP2 DUP2 MSTORE POP POP PUSH1 0x1 DUP9 DUP5 DUP2 MLOAD DUP2 LT PUSH2 0x1186 JUMPI PUSH2 0x1186 PUSH2 0x3671 JUMP JUMPDEST SWAP2 ISZERO ISZERO PUSH1 0x20 SWAP3 DUP4 MUL SWAP2 SWAP1 SWAP2 ADD SWAP1 SWAP2 ADD MSTORE PUSH2 0x11E7 JUMP JUMPDEST PUSH2 0x11A5 DUP3 DUP3 PUSH2 0x374E JUMP JUMPDEST DUP8 DUP5 DUP2 MLOAD DUP2 LT PUSH2 0x11B7 JUMPI PUSH2 0x11B7 PUSH2 0x3671 JUMP JUMPDEST PUSH1 0x20 MUL PUSH1 0x20 ADD ADD DUP2 DUP2 MSTORE POP POP PUSH0 DUP9 DUP5 DUP2 MLOAD DUP2 LT PUSH2 0x11D6 JUMPI PUSH2 0x11D6 PUSH2 0x3671 JUMP JUMPDEST SWAP2 ISZERO ISZERO PUSH1 0x20 SWAP3 DUP4 MUL SWAP2 SWAP1 SWAP2 ADD SWAP1 SWAP2 ADD MSTORE JUMPDEST POP POP PUSH1 0x1 ADD PUSH2 0x10DF JUMP JUMPDEST POP POP POP POP SWAP1 SWAP2 JUMP JUMPDEST PUSH1 0x60 PUSH0 PUSH1 0xB PUSH0 SWAP1 SLOAD SWAP1 PUSH2 0x100 EXP SWAP1 DIV PUSH1 0x1 PUSH1 0x1 PUSH1 0xA0 SHL SUB AND PUSH1 0x1 PUSH1 0x1 PUSH1 0xA0 SHL SUB AND PUSH4 0x1ACB6141 PUSH1 0x40 MLOAD DUP2 PUSH4 0xFFFFFFFF AND PUSH1 0xE0 SHL DUP2 MSTORE PUSH1 0x4 ADD PUSH1 0x20 PUSH1 0x40 MLOAD DUP1 DUP4 SUB DUP2 DUP7 GAS STATICCALL ISZERO DUP1 ISZERO PUSH2 0x124C JUMPI RETURNDATASIZE PUSH0 DUP1 RETURNDATACOPY RETURNDATASIZE PUSH0 REVERT JUMPDEST POP POP POP POP PUSH1 0x40 MLOAD RETURNDATASIZE PUSH1 0x1F NOT PUSH1 0x1F DUP3 ADD AND DUP3 ADD DUP1 PUSH1 0x40 MSTORE POP DUP2 ADD SWAP1 PUSH2 0x1270 SWAP2 SWAP1 PUSH2 0x3603 JUMP JUMPDEST SWAP1 POP CALLER PUSH1 0x1 PUSH1 0x1 PUSH1 0xA0 SHL SUB DUP3 AND EQ PUSH2 0x129A JUMPI PUSH1 0x40 MLOAD PUSH3 0x461BCD PUSH1 0xE5 SHL DUP2 MSTORE PUSH1 0x4 ADD PUSH2 0x600 SWAP1 PUSH2 0x361E JUMP JUMPDEST PUSH1 0xB SLOAD PUSH1 0x40 DUP1 MLOAD PUSH4 0x85462D6F PUSH1 0xE0 SHL DUP2 MSTORE SWAP1 MLOAD PUSH0 SWAP3 PUSH1 0x1 PUSH1 0x1 PUSH1 0xA0 SHL SUB AND SWAP2 PUSH4 0x85462D6F SWAP2 PUSH1 0x4 DUP1 DUP4 ADD SWAP3 PUSH1 0x20 SWAP3 SWAP2 SWAP1 DUP3 SWAP1 SUB ADD DUP2 DUP7 GAS STATICCALL ISZERO DUP1 ISZERO PUSH2 0x12E1 JUMPI RETURNDATASIZE PUSH0 DUP1 RETURNDATACOPY RETURNDATASIZE PUSH0 REVERT JUMPDEST POP POP POP POP PUSH1 0x40 MLOAD RETURNDATASIZE PUSH1 0x1F NOT PUSH1 0x1F DUP3 ADD AND DUP3 ADD DUP1 PUSH1 0x40 MSTORE POP DUP2 ADD SWAP1 PUSH2 0x1305 SWAP2 SWAP1 PUSH2 0x3710 JUMP JUMPDEST SWAP1 POP PUSH0 PUSH1 0xB PUSH0 SWAP1 SLOAD SWAP1 PUSH2 0x100 EXP SWAP1 DIV PUSH1 0x1 PUSH1 0x1 PUSH1 0xA0 SHL SUB AND PUSH1 0x1 PUSH1 0x1 PUSH1 0xA0 SHL SUB AND PUSH4 0x1ACB6141 PUSH1 0x40 MLOAD DUP2 PUSH4 0xFFFFFFFF AND PUSH1 0xE0 SHL DUP2 MSTORE PUSH1 0x4 ADD PUSH1 0x20 PUSH1 0x40 MLOAD DUP1 DUP4 SUB DUP2 DUP7 GAS STATICCALL ISZERO DUP1 ISZERO PUSH2 0x1358 JUMPI RETURNDATASIZE PUSH0 DUP1 RETURNDATACOPY RETURNDATASIZE PUSH0 REVERT JUMPDEST POP POP POP POP PUSH1 0x40 MLOAD RETURNDATASIZE PUSH1 0x1F NOT PUSH1 0x1F DUP3 ADD AND DUP3 ADD DUP1 PUSH1 0x40 MSTORE POP DUP2 ADD SWAP1 PUSH2 0x137C SWAP2 SWAP1 PUSH2 0x3603 JUMP JUMPDEST ADDRESS PUSH0 SWAP1 DUP2 MSTORE PUSH1 0x20 DUP2 SWAP1 MSTORE PUSH1 0x40 SWAP1 KECCAK256 SLOAD SWAP1 SWAP2 POP DUP1 PUSH2 0x13DB JUMPI PUSH1 0x40 MLOAD PUSH3 0x461BCD PUSH1 0xE5 SHL DUP2 MSTORE PUSH1 0x20 PUSH1 0x4 DUP3 ADD MSTORE PUSH1 0x1C PUSH1 0x24 DUP3 ADD MSTORE PUSH32 0x5368617265206D7573742062652067726561746572207468616E203000000000 PUSH1 0x44 DUP3 ADD MSTORE PUSH1 0x64 ADD PUSH2 0x600 JUMP JUMPDEST PUSH0 PUSH2 0x13E5 PUSH1 0x2 SLOAD SWAP1 JUMP JUMPDEST SWAP1 POP PUSH0 DUP2 GT PUSH2 0x1425 JUMPI PUSH1 0x40 MLOAD PUSH3 0x461BCD PUSH1 0xE5 SHL DUP2 MSTORE PUSH1 0x20 PUSH1 0x4 DUP3 ADD MSTORE PUSH1 0xC PUSH1 0x24 DUP3 ADD MSTORE PUSH12 0x4E6F206C6971756964697479 PUSH1 0xA0 SHL PUSH1 0x44 DUP3 ADD MSTORE PUSH1 0x64 ADD PUSH2 0x600 JUMP JUMPDEST PUSH1 0x6 SLOAD PUSH0 SWAP1 PUSH1 0x1 PUSH1 0x1 PUSH1 0x40 SHL SUB DUP2 GT ISZERO PUSH2 0x1441 JUMPI PUSH2 0x1441 PUSH2 0x34A2 JUMP JUMPDEST PUSH1 0x40 MLOAD SWAP1 DUP1 DUP3 MSTORE DUP1 PUSH1 0x20 MUL PUSH1 0x20 ADD DUP3 ADD PUSH1 0x40 MSTORE DUP1 ISZERO PUSH2 0x146A JUMPI DUP2 PUSH1 0x20 ADD PUSH1 0x20 DUP3 MUL DUP1 CALLDATASIZE DUP4 CALLDATACOPY ADD SWAP1 POP JUMPDEST POP SWAP1 POP PUSH0 PUSH2 0x2710 PUSH2 0x147B DUP8 DUP7 PUSH2 0x365A JUMP JUMPDEST PUSH2 0x1485 SWAP2 SWAP1 PUSH2 0x373B JUMP JUMPDEST SWAP1 POP PUSH0 PUSH2 0x1492 DUP3 DUP7 PUSH2 0x374E JUMP JUMPDEST SWAP1 POP PUSH0 JUMPDEST PUSH1 0x6 SLOAD DUP2 LT ISZERO PUSH2 0x157E JUMPI PUSH0 DUP8 PUSH1 0x1 PUSH1 0x1 PUSH1 0xA0 SHL SUB AND PUSH4 0xA3E113FB ADDRESS PUSH1 0x6 DUP6 DUP2 SLOAD DUP2 LT PUSH2 0x14C4 JUMPI PUSH2 0x14C4 PUSH2 0x3671 JUMP JUMPDEST PUSH0 SWAP2 DUP3 MSTORE PUSH1 0x20 SWAP1 SWAP2 KECCAK256 PUSH1 0x3 SWAP1 SWAP2 MUL ADD SLOAD PUSH1 0x40 MLOAD PUSH1 0xE0 DUP5 SWAP1 SHL PUSH1 0x1 PUSH1 0x1 PUSH1 0xE0 SHL SUB NOT AND DUP2 MSTORE PUSH1 0x1 PUSH1 0x1 PUSH1 0xA0 SHL SUB SWAP3 DUP4 AND PUSH1 0x4 DUP3 ADD MSTORE SWAP2 AND PUSH1 0x24 DUP3 ADD MSTORE PUSH1 0x44 ADD PUSH1 0x20 PUSH1 0x40 MLOAD DUP1 DUP4 SUB DUP2 DUP7 GAS STATICCALL ISZERO DUP1 ISZERO PUSH2 0x151D JUMPI RETURNDATASIZE PUSH0 DUP1 RETURNDATACOPY RETURNDATASIZE PUSH0 REVERT JUMPDEST POP POP POP POP PUSH1 0x40 MLOAD RETURNDATASIZE PUSH1 0x1F NOT PUSH1 0x1F DUP3 ADD AND DUP3 ADD DUP1 PUSH1 0x40 MSTORE POP DUP2 ADD SWAP1 PUSH2 0x1541 SWAP2 SWAP1 PUSH2 0x3710 JUMP JUMPDEST SWAP1 POP DUP6 PUSH2 0x154E DUP5 DUP4 PUSH2 0x365A JUMP JUMPDEST PUSH2 0x1558 SWAP2 SWAP1 PUSH2 0x373B JUMP JUMPDEST DUP6 DUP4 DUP2 MLOAD DUP2 LT PUSH2 0x156A JUMPI PUSH2 0x156A PUSH2 0x3671 JUMP JUMPDEST PUSH1 0x20 SWAP1 DUP2 MUL SWAP2 SWAP1 SWAP2 ADD ADD MSTORE POP PUSH1 0x1 ADD PUSH2 0x1496 JUMP JUMPDEST POP ADDRESS PUSH0 SWAP1 DUP2 MSTORE PUSH1 0x20 DUP2 SWAP1 MSTORE PUSH1 0x40 SWAP1 KECCAK256 SLOAD DUP2 GT ISZERO PUSH2 0x15DD JUMPI PUSH1 0x40 MLOAD PUSH3 0x461BCD PUSH1 0xE5 SHL DUP2 MSTORE PUSH1 0x20 PUSH1 0x4 DUP3 ADD MSTORE PUSH1 0x1D PUSH1 0x24 DUP3 ADD MSTORE PUSH32 0x496E73756666696369656E742042414C554E49206C6971756964697479000000 PUSH1 0x44 DUP3 ADD MSTORE PUSH1 0x64 ADD PUSH2 0x600 JUMP JUMPDEST PUSH1 0xB SLOAD PUSH1 0x40 DUP1 MLOAD PUSH4 0x1D8CF425 PUSH1 0xE1 SHL DUP2 MSTORE SWAP1 MLOAD PUSH0 SWAP3 PUSH1 0x1 PUSH1 0x1 PUSH1 0xA0 SHL SUB AND SWAP2 PUSH4 0x3B19E84A SWAP2 PUSH1 0x4 DUP1 DUP4 ADD SWAP3 PUSH1 0x20 SWAP3 SWAP2 SWAP1 DUP3 SWAP1 SUB ADD DUP2 DUP7 GAS STATICCALL ISZERO DUP1 ISZERO PUSH2 0x1624 JUMPI RETURNDATASIZE PUSH0 DUP1 RETURNDATACOPY RETURNDATASIZE PUSH0 REVERT JUMPDEST POP POP POP POP PUSH1 0x40 MLOAD RETURNDATASIZE PUSH1 0x1F NOT PUSH1 0x1F DUP3 ADD AND DUP3 ADD DUP1 PUSH1 0x40 MSTORE POP DUP2 ADD SWAP1 PUSH2 0x1648 SWAP2 SWAP1 PUSH2 0x3603 JUMP JUMPDEST PUSH1 0x40 MLOAD PUSH4 0xA9059CBB PUSH1 0xE0 SHL DUP2 MSTORE PUSH1 0x1 PUSH1 0x1 PUSH1 0xA0 SHL SUB DUP3 AND PUSH1 0x4 DUP3 ADD MSTORE PUSH1 0x24 DUP2 ADD DUP6 SWAP1 MSTORE SWAP1 SWAP2 POP PUSH0 SWAP1 ADDRESS SWAP1 PUSH4 0xA9059CBB SWAP1 PUSH1 0x44 ADD PUSH1 0x20 PUSH1 0x40 MLOAD DUP1 DUP4 SUB DUP2 PUSH0 DUP8 GAS CALL ISZERO DUP1 ISZERO PUSH2 0x1697 JUMPI RETURNDATASIZE PUSH0 DUP1 RETURNDATACOPY RETURNDATASIZE PUSH0 REVERT JUMPDEST POP POP POP POP PUSH1 0x40 MLOAD RETURNDATASIZE PUSH1 0x1F NOT PUSH1 0x1F DUP3 ADD AND DUP3 ADD DUP1 PUSH1 0x40 MSTORE POP DUP2 ADD SWAP1 PUSH2 0x16BB SWAP2 SWAP1 PUSH2 0x3761 JUMP JUMPDEST SWAP1 POP DUP1 PUSH2 0x1700 JUMPI PUSH1 0x40 MLOAD PUSH3 0x461BCD PUSH1 0xE5 SHL DUP2 MSTORE PUSH1 0x20 PUSH1 0x4 DUP3 ADD MSTORE PUSH1 0x13 PUSH1 0x24 DUP3 ADD MSTORE PUSH19 0x119959481D1C985B9CD9995C8819985A5B1959 PUSH1 0x6A SHL PUSH1 0x44 DUP3 ADD MSTORE PUSH1 0x64 ADD PUSH2 0x600 JUMP JUMPDEST PUSH2 0x170A ADDRESS DUP5 PUSH2 0x2719 JUMP JUMPDEST PUSH2 0x1712 PUSH2 0x23A7 JUMP JUMPDEST DUP12 PUSH1 0x1 PUSH1 0x1 PUSH1 0xA0 SHL SUB AND PUSH32 0xCC16F5DBB4873280815C1EE09DBD06736CFFCC184412CF7A71A0FDB75D397CA5 DUP5 PUSH1 0x40 MLOAD PUSH2 0x174D SWAP2 DUP2 MSTORE PUSH1 0x20 ADD SWAP1 JUMP JUMPDEST PUSH1 0x40 MLOAD DUP1 SWAP2 SUB SWAP1 LOG2 POP SWAP3 SWAP11 SWAP10 POP POP POP POP POP POP POP POP POP POP JUMP JUMPDEST PUSH0 DUP1 PUSH0 PUSH2 0x1770 PUSH2 0x1040 JUMP JUMPDEST SWAP2 POP SWAP2 POP PUSH0 JUMPDEST DUP2 MLOAD DUP2 LT ISZERO PUSH2 0x17D6 JUMPI DUP3 DUP2 DUP2 MLOAD DUP2 LT PUSH2 0x1791 JUMPI PUSH2 0x1791 PUSH2 0x3671 JUMP JUMPDEST PUSH1 0x20 MUL PUSH1 0x20 ADD ADD MLOAD DUP1 ISZERO PUSH2 0x17BF JUMPI POP PUSH1 0x7 SLOAD DUP3 DUP3 DUP2 MLOAD DUP2 LT PUSH2 0x17B5 JUMPI PUSH2 0x17B5 PUSH2 0x3671 JUMP JUMPDEST PUSH1 0x20 MUL PUSH1 0x20 ADD ADD MLOAD GT JUMPDEST ISZERO PUSH2 0x17CE JUMPI PUSH1 0x1 SWAP4 POP POP POP POP SWAP1 JUMP JUMPDEST PUSH1 0x1 ADD PUSH2 0x1776 JUMP JUMPDEST POP PUSH0 SWAP3 POP POP POP SWAP1 JUMP JUMPDEST PUSH1 0x60 PUSH1 0x4 DUP1 SLOAD PUSH2 0x4DE SWAP1 PUSH2 0x35D1 JUMP JUMPDEST PUSH0 DUP1 PUSH2 0x17FB DUP6 DUP6 DUP6 PUSH2 0xB30 JUMP JUMPDEST SWAP1 POP DUP4 DUP6 PUSH0 PUSH1 0x60 PUSH2 0x180A PUSH2 0x2033 JUMP JUMPDEST SWAP1 SWAP3 POP SWAP1 POP PUSH0 PUSH2 0x2710 DUP4 PUSH2 0x181D DUP8 PUSH2 0xAA1 JUMP JUMPDEST PUSH2 0x1827 SWAP2 SWAP1 PUSH2 0x365A JUMP JUMPDEST PUSH2 0x1831 SWAP2 SWAP1 PUSH2 0x373B JUMP JUMPDEST SWAP1 POP PUSH0 PUSH2 0x2710 DUP5 PUSH2 0x1841 DUP9 PUSH2 0xAA1 JUMP JUMPDEST PUSH2 0x184B SWAP2 SWAP1 PUSH2 0x365A JUMP JUMPDEST PUSH2 0x1855 SWAP2 SWAP1 PUSH2 0x373B JUMP JUMPDEST SWAP1 POP PUSH0 DUP10 SWAP1 POP PUSH0 PUSH2 0x1874 PUSH1 0xC SLOAD PUSH1 0xD SLOAD PUSH1 0xE SLOAD PUSH1 0xF SLOAD DUP9 DUP9 DUP9 PUSH0 PUSH2 0x274D JUMP JUMPDEST SWAP1 POP PUSH0 PUSH2 0x2710 DUP8 PUSH2 0x1884 DUP11 PUSH2 0xAA1 JUMP JUMPDEST PUSH2 0x188E SWAP2 SWAP1 PUSH2 0x365A JUMP JUMPDEST PUSH2 0x1898 SWAP2 SWAP1 PUSH2 0x373B JUMP JUMPDEST SWAP1 POP PUSH0 PUSH2 0x2710 DUP9 PUSH2 0x18A8 DUP12 PUSH2 0xAA1 JUMP JUMPDEST PUSH2 0x18B2 SWAP2 SWAP1 PUSH2 0x365A JUMP JUMPDEST PUSH2 0x18BC SWAP2 SWAP1 PUSH2 0x373B JUMP JUMPDEST SWAP1 POP PUSH0 PUSH2 0x18D8 PUSH1 0xC SLOAD PUSH1 0xD SLOAD PUSH1 0xE SLOAD PUSH1 0xF SLOAD DUP8 DUP8 DUP12 PUSH1 0x1 PUSH2 0x274D JUMP JUMPDEST SWAP1 POP PUSH0 PUSH2 0x18E5 DUP3 DUP7 PUSH2 0x280C JUMP JUMPDEST SWAP1 POP PUSH0 PUSH2 0x18F2 DUP8 DUP4 PUSH2 0x282A JUMP JUMPDEST SWAP15 POP POP POP POP POP POP POP POP POP POP POP POP POP POP POP SWAP4 SWAP3 POP POP POP JUMP JUMPDEST PUSH0 CALLER PUSH2 0x8A0 DUP2 DUP6 DUP6 PUSH2 0x2692 JUMP JUMPDEST PUSH0 DUP1 PUSH1 0xB PUSH0 SWAP1 SLOAD SWAP1 PUSH2 0x100 EXP SWAP1 DIV PUSH1 0x1 PUSH1 0x1 PUSH1 0xA0 SHL SUB AND PUSH1 0x1 PUSH1 0x1 PUSH1 0xA0 SHL SUB AND PUSH4 0x1ACB6141 PUSH1 0x40 MLOAD DUP2 PUSH4 0xFFFFFFFF AND PUSH1 0xE0 SHL DUP2 MSTORE PUSH1 0x4 ADD PUSH1 0x20 PUSH1 0x40 MLOAD DUP1 DUP4 SUB DUP2 DUP7 GAS STATICCALL ISZERO DUP1 ISZERO PUSH2 0x1968 JUMPI RETURNDATASIZE PUSH0 DUP1 RETURNDATACOPY RETURNDATASIZE PUSH0 REVERT JUMPDEST POP POP POP POP PUSH1 0x40 MLOAD RETURNDATASIZE PUSH1 0x1F NOT PUSH1 0x1F DUP3 ADD AND DUP3 ADD DUP1 PUSH1 0x40 MSTORE POP DUP2 ADD SWAP1 PUSH2 0x198C SWAP2 SWAP1 PUSH2 0x3603 JUMP JUMPDEST PUSH1 0x40 MLOAD PUSH4 0xA3E113FB PUSH1 0xE0 SHL DUP2 MSTORE ADDRESS PUSH1 0x4 DUP3 ADD MSTORE PUSH1 0x1 PUSH1 0x1 PUSH1 0xA0 SHL SUB DUP6 DUP2 AND PUSH1 0x24 DUP4 ADD MSTORE SWAP2 SWAP3 POP SWAP1 DUP3 AND SWAP1 PUSH4 0xA3E113FB SWAP1 PUSH1 0x44 ADD PUSH1 0x20 PUSH1 0x40 MLOAD DUP1 DUP4 SUB DUP2 DUP7 GAS STATICCALL ISZERO DUP1 ISZERO PUSH2 0x19DA JUMPI RETURNDATASIZE PUSH0 DUP1 RETURNDATACOPY RETURNDATASIZE PUSH0 REVERT JUMPDEST POP POP POP POP PUSH1 0x40 MLOAD RETURNDATASIZE PUSH1 0x1F NOT PUSH1 0x1F DUP3 ADD AND DUP3 ADD DUP1 PUSH1 0x40 MSTORE POP DUP2 ADD SWAP1 PUSH2 0x19FE SWAP2 SWAP1 PUSH2 0x3710 JUMP JUMPDEST SWAP4 SWAP3 POP POP POP JUMP JUMPDEST PUSH0 DUP1 PUSH2 0x1A0F PUSH2 0x2033 JUMP JUMPDEST SWAP2 POP POP DUP1 MLOAD DUP4 LT PUSH2 0x1A58 JUMPI PUSH1 0x40 MLOAD PUSH3 0x461BCD PUSH1 0xE5 SHL DUP2 MSTORE PUSH1 0x20 PUSH1 0x4 DUP3 ADD MSTORE PUSH1 0x13 PUSH1 0x24 DUP3 ADD MSTORE PUSH19 0x92DCECC2D8D2C840C2E6E6CAE840D2DCC8CAF PUSH1 0x6B SHL PUSH1 0x44 DUP3 ADD MSTORE PUSH1 0x64 ADD PUSH2 0x600 JUMP JUMPDEST DUP1 DUP4 DUP2 MLOAD DUP2 LT PUSH2 0x1A6A JUMPI PUSH2 0x1A6A PUSH2 0x3671 JUMP JUMPDEST PUSH1 0x20 MUL PUSH1 0x20 ADD ADD MLOAD SWAP2 POP POP SWAP2 SWAP1 POP JUMP JUMPDEST PUSH1 0x6 DUP2 DUP2 SLOAD DUP2 LT PUSH2 0x1A89 JUMPI PUSH0 DUP1 REVERT JUMPDEST PUSH0 SWAP2 DUP3 MSTORE PUSH1 0x20 SWAP1 SWAP2 KECCAK256 PUSH1 0x3 SWAP1 SWAP2 MUL ADD DUP1 SLOAD PUSH1 0x1 DUP3 ADD SLOAD PUSH1 0x2 SWAP1 SWAP3 ADD SLOAD PUSH1 0x1 PUSH1 0x1 PUSH1 0xA0 SHL SUB SWAP1 SWAP2 AND SWAP3 POP DUP4 JUMP JUMPDEST PUSH0 DUP1 PUSH1 0xB PUSH0 SWAP1 SLOAD SWAP1 PUSH2 0x100 EXP SWAP1 DIV PUSH1 0x1 PUSH1 0x1 PUSH1 0xA0 SHL SUB AND PUSH1 0x1 PUSH1 0x1 PUSH1 0xA0 SHL SUB AND PUSH4 0x1ACB6141 PUSH1 0x40 MLOAD DUP2 PUSH4 0xFFFFFFFF AND PUSH1 0xE0 SHL DUP2 MSTORE PUSH1 0x4 ADD PUSH1 0x20 PUSH1 0x40 MLOAD DUP1 DUP4 SUB DUP2 DUP7 GAS STATICCALL ISZERO DUP1 ISZERO PUSH2 0x1B07 JUMPI RETURNDATASIZE PUSH0 DUP1 RETURNDATACOPY RETURNDATASIZE PUSH0 REVERT JUMPDEST POP POP POP POP PUSH1 0x40 MLOAD RETURNDATASIZE PUSH1 0x1F NOT PUSH1 0x1F DUP3 ADD AND DUP3 ADD DUP1 PUSH1 0x40 MSTORE POP DUP2 ADD SWAP1 PUSH2 0x1B2B SWAP2 SWAP1 PUSH2 0x3603 JUMP JUMPDEST SWAP1 POP CALLER PUSH1 0x1 PUSH1 0x1 PUSH1 0xA0 SHL SUB DUP3 AND EQ PUSH2 0x1B55 JUMPI PUSH1 0x40 MLOAD PUSH3 0x461BCD PUSH1 0xE5 SHL DUP2 MSTORE PUSH1 0x4 ADD PUSH2 0x600 SWAP1 PUSH2 0x361E JUMP JUMPDEST PUSH0 PUSH2 0x1B5F PUSH1 0x2 SLOAD SWAP1 JUMP JUMPDEST SWAP1 POP PUSH0 DUP1 PUSH2 0x1B6B PUSH2 0x7AB JUMP JUMPDEST DUP1 MLOAD PUSH1 0x6 SLOAD SWAP2 SWAP3 POP EQ PUSH2 0x1BC0 JUMPI PUSH1 0x40 MLOAD PUSH3 0x461BCD PUSH1 0xE5 SHL DUP2 MSTORE PUSH1 0x20 PUSH1 0x4 DUP3 ADD MSTORE PUSH1 0x17 PUSH1 0x24 DUP3 ADD MSTORE PUSH32 0x496E76616C6964207265736572766573206C656E677468000000000000000000 PUSH1 0x44 DUP3 ADD MSTORE PUSH1 0x64 ADD PUSH2 0x600 JUMP JUMPDEST PUSH1 0x6 SLOAD PUSH2 0x1BFB JUMPI PUSH1 0x40 MLOAD PUSH3 0x461BCD PUSH1 0xE5 SHL DUP2 MSTORE PUSH1 0x20 PUSH1 0x4 DUP3 ADD MSTORE PUSH1 0x9 PUSH1 0x24 DUP3 ADD MSTORE PUSH9 0x4E6F20617373657473 PUSH1 0xB8 SHL PUSH1 0x44 DUP3 ADD MSTORE PUSH1 0x64 ADD PUSH2 0x600 JUMP JUMPDEST PUSH0 JUMPDEST PUSH1 0x6 SLOAD DUP2 LT ISZERO PUSH2 0x1C99 JUMPI PUSH0 PUSH1 0x6 DUP3 DUP2 SLOAD DUP2 LT PUSH2 0x1C1B JUMPI PUSH2 0x1C1B PUSH2 0x3671 JUMP JUMPDEST PUSH0 SWAP2 DUP3 MSTORE PUSH1 0x20 DUP3 KECCAK256 PUSH1 0x3 SWAP1 SWAP2 MUL ADD SLOAD PUSH1 0x9 SLOAD PUSH1 0x1 PUSH1 0x1 PUSH1 0xA0 SHL SUB SWAP2 DUP3 AND SWAP4 POP AND DUP3 SUB PUSH2 0x1C5D JUMPI DUP9 DUP4 DUP2 MLOAD DUP2 LT PUSH2 0x1C53 JUMPI PUSH2 0x1C53 PUSH2 0x3671 JUMP JUMPDEST POP PUSH2 0x1C91 SWAP3 POP POP POP JUMP JUMPDEST PUSH2 0x1C80 DUP3 DUP11 DUP6 DUP2 MLOAD DUP2 LT PUSH2 0x1C73 JUMPI PUSH2 0x1C73 PUSH2 0x3671 JUMP JUMPDEST PUSH1 0x20 MUL PUSH1 0x20 ADD ADD MLOAD PUSH2 0x285D JUMP JUMPDEST SWAP1 POP PUSH2 0x1C8C DUP2 DUP7 PUSH2 0x3780 JUMP JUMPDEST SWAP5 POP POP POP JUMPDEST PUSH1 0x1 ADD PUSH2 0x1BFD JUMP JUMPDEST POP PUSH0 DUP3 GT PUSH2 0x1CF4 JUMPI PUSH1 0x40 MLOAD PUSH3 0x461BCD PUSH1 0xE5 SHL DUP2 MSTORE PUSH1 0x20 PUSH1 0x4 DUP3 ADD MSTORE PUSH1 0x22 PUSH1 0x24 DUP3 ADD MSTORE PUSH32 0x546F74616C2076616C7565206D7573742062652067726561746572207468616E PUSH1 0x44 DUP3 ADD MSTORE PUSH2 0x203 PUSH1 0xF4 SHL PUSH1 0x64 DUP3 ADD MSTORE PUSH1 0x84 ADD PUSH2 0x600 JUMP JUMPDEST PUSH0 DUP4 PUSH0 SUB PUSH2 0x1D10 JUMPI PUSH1 0xA SLOAD PUSH2 0x1D09 SWAP1 DUP5 PUSH2 0x365A JUMP JUMPDEST SWAP1 POP PUSH2 0x1DAE JUMP JUMPDEST PUSH0 PUSH2 0x1D19 PUSH2 0x2033 JUMP JUMPDEST POP SWAP1 POP PUSH0 DUP2 GT PUSH2 0x1D7A JUMPI PUSH1 0x40 MLOAD PUSH3 0x461BCD PUSH1 0xE5 SHL DUP2 MSTORE PUSH1 0x20 PUSH1 0x4 DUP3 ADD MSTORE PUSH1 0x26 PUSH1 0x24 DUP3 ADD MSTORE PUSH32 0x546F74616C206C6971756964697479206D757374206265206772656174657220 PUSH1 0x44 DUP3 ADD MSTORE PUSH6 0x7468616E203 PUSH1 0xD4 SHL PUSH1 0x64 DUP3 ADD MSTORE PUSH1 0x84 ADD PUSH2 0x600 JUMP JUMPDEST PUSH1 0xA SLOAD PUSH2 0x1D87 SWAP1 DUP3 PUSH2 0x365A JUMP JUMPDEST DUP6 PUSH1 0xA SLOAD DUP7 PUSH2 0x1D96 SWAP2 SWAP1 PUSH2 0x365A JUMP JUMPDEST PUSH2 0x1DA0 SWAP2 SWAP1 PUSH2 0x365A JUMP JUMPDEST PUSH2 0x1DAA SWAP2 SWAP1 PUSH2 0x373B JUMP JUMPDEST SWAP2 POP POP JUMPDEST DUP1 PUSH0 SUB PUSH2 0x1DED JUMPI PUSH1 0x40 MLOAD PUSH3 0x461BCD PUSH1 0xE5 SHL DUP2 MSTORE PUSH1 0x20 PUSH1 0x4 DUP3 ADD MSTORE PUSH1 0xD PUSH1 0x24 DUP3 ADD MSTORE PUSH13 0x4D696E7420717479206973203 PUSH1 0x9C SHL PUSH1 0x44 DUP3 ADD MSTORE PUSH1 0x64 ADD PUSH2 0x600 JUMP JUMPDEST PUSH2 0x1DF7 DUP9 DUP3 PUSH2 0x236F JUMP JUMPDEST PUSH2 0x1DFF PUSH2 0x23A7 JUMP JUMPDEST DUP8 PUSH1 0x1 PUSH1 0x1 PUSH1 0xA0 SHL SUB AND PUSH32 0xF6798A560793A54C3BCFE86A93CDE1E73087D944C0EA20544137D4121396885 DUP3 PUSH1 0x40 MLOAD PUSH2 0x1E3A SWAP2 DUP2 MSTORE PUSH1 0x20 ADD SWAP1 JUMP JUMPDEST PUSH1 0x40 MLOAD DUP1 SWAP2 SUB SWAP1 LOG2 SWAP8 SWAP7 POP POP POP POP POP POP POP JUMP JUMPDEST PUSH0 DUP1 PUSH1 0x9 PUSH0 SWAP1 SLOAD SWAP1 PUSH2 0x100 EXP SWAP1 DIV PUSH1 0x1 PUSH1 0x1 PUSH1 0xA0 SHL SUB AND PUSH1 0x1 PUSH1 0x1 PUSH1 0xA0 SHL SUB AND PUSH4 0x313CE567 PUSH1 0x40 MLOAD DUP2 PUSH4 0xFFFFFFFF AND PUSH1 0xE0 SHL DUP2 MSTORE PUSH1 0x4 ADD PUSH1 0x20 PUSH1 0x40 MLOAD DUP1 DUP4 SUB DUP2 DUP7 GAS STATICCALL ISZERO DUP1 ISZERO PUSH2 0x1E9F JUMPI RETURNDATASIZE PUSH0 DUP1 RETURNDATACOPY RETURNDATASIZE PUSH0 REVERT JUMPDEST POP POP POP POP PUSH1 0x40 MLOAD RETURNDATASIZE PUSH1 0x1F NOT PUSH1 0x1F DUP3 ADD AND DUP3 ADD DUP1 PUSH1 0x40 MSTORE POP DUP2 ADD SWAP1 PUSH2 0x1EC3 SWAP2 SWAP1 PUSH2 0x3793 JUMP JUMPDEST PUSH1 0xFF AND SWAP1 POP PUSH0 PUSH2 0x1ED4 DUP3 PUSH1 0x12 PUSH2 0x374E JUMP JUMPDEST PUSH2 0x1EDF SWAP1 PUSH1 0xA PUSH2 0x3893 JUMP JUMPDEST SWAP1 POP PUSH0 PUSH2 0x1EEA PUSH2 0x2033 JUMP JUMPDEST POP SWAP1 POP PUSH0 PUSH2 0x1EF7 PUSH1 0x2 SLOAD SWAP1 JUMP JUMPDEST SWAP1 POP DUP1 PUSH0 SUB PUSH2 0x1F0A JUMPI PUSH0 SWAP5 POP POP POP POP POP SWAP1 JUMP JUMPDEST PUSH1 0x8 SLOAD DUP2 PUSH2 0x1F18 DUP6 DUP6 PUSH2 0x365A JUMP JUMPDEST PUSH2 0x1F22 SWAP2 SWAP1 PUSH2 0x373B JUMP JUMPDEST PUSH2 0x1F2C SWAP2 SWAP1 PUSH2 0x365A JUMP JUMPDEST SWAP5 POP POP POP POP POP SWAP1 JUMP JUMPDEST PUSH1 0x60 DUP1 PUSH0 PUSH1 0xB PUSH0 SWAP1 SLOAD SWAP1 PUSH2 0x100 EXP SWAP1 DIV PUSH1 0x1 PUSH1 0x1 PUSH1 0xA0 SHL SUB AND PUSH1 0x1 PUSH1 0x1 PUSH1 0xA0 SHL SUB AND PUSH4 0x1ACB6141 PUSH1 0x40 MLOAD DUP2 PUSH4 0xFFFFFFFF AND PUSH1 0xE0 SHL DUP2 MSTORE PUSH1 0x4 ADD PUSH1 0x20 PUSH1 0x40 MLOAD DUP1 DUP4 SUB DUP2 DUP7 GAS STATICCALL ISZERO DUP1 ISZERO PUSH2 0x1F89 JUMPI RETURNDATASIZE PUSH0 DUP1 RETURNDATACOPY RETURNDATASIZE PUSH0 REVERT JUMPDEST POP POP POP POP PUSH1 0x40 MLOAD RETURNDATASIZE PUSH1 0x1F NOT PUSH1 0x1F DUP3 ADD AND DUP3 ADD DUP1 PUSH1 0x40 MSTORE POP DUP2 ADD SWAP1 PUSH2 0x1FAD SWAP2 SWAP1 PUSH2 0x3603 JUMP JUMPDEST SWAP1 POP CALLER PUSH1 0x1 PUSH1 0x1 PUSH1 0xA0 SHL SUB DUP3 AND EQ PUSH2 0x1FD7 JUMPI PUSH1 0x40 MLOAD PUSH3 0x461BCD PUSH1 0xE5 SHL DUP2 MSTORE PUSH1 0x4 ADD PUSH2 0x600 SWAP1 PUSH2 0x361E JUMP JUMPDEST PUSH2 0x1FDF PUSH2 0x1765 JUMP JUMPDEST PUSH2 0x2022 JUMPI PUSH1 0x40 MLOAD PUSH3 0x461BCD PUSH1 0xE5 SHL DUP2 MSTORE PUSH1 0x20 PUSH1 0x4 DUP3 ADD MSTORE PUSH1 0x14 PUSH1 0x24 DUP3 ADD MSTORE PUSH20 0x149958985B185B98D9481B9BDD081B9959591959 PUSH1 0x62 SHL PUSH1 0x44 DUP3 ADD MSTORE PUSH1 0x64 ADD PUSH2 0x600 JUMP JUMPDEST PUSH2 0x202A PUSH2 0x2877 JUMP JUMPDEST SWAP3 POP SWAP3 POP POP SWAP1 SWAP2 JUMP JUMPDEST PUSH1 0x6 SLOAD PUSH0 SWAP1 PUSH1 0x60 SWAP1 DUP1 PUSH1 0x1 PUSH1 0x1 PUSH1 0x40 SHL SUB DUP2 GT ISZERO PUSH2 0x2053 JUMPI PUSH2 0x2053 PUSH2 0x34A2 JUMP JUMPDEST PUSH1 0x40 MLOAD SWAP1 DUP1 DUP3 MSTORE DUP1 PUSH1 0x20 MUL PUSH1 0x20 ADD DUP3 ADD PUSH1 0x40 MSTORE DUP1 ISZERO PUSH2 0x207C JUMPI DUP2 PUSH1 0x20 ADD PUSH1 0x20 DUP3 MUL DUP1 CALLDATASIZE DUP4 CALLDATACOPY ADD SWAP1 POP JUMPDEST POP SWAP2 POP PUSH0 JUMPDEST DUP2 DUP2 LT ISZERO PUSH2 0x215C JUMPI PUSH0 PUSH1 0x6 DUP3 DUP2 SLOAD DUP2 LT PUSH2 0x209D JUMPI PUSH2 0x209D PUSH2 0x3671 JUMP JUMPDEST PUSH0 SWAP2 DUP3 MSTORE PUSH1 0x20 DUP3 KECCAK256 PUSH1 0x3 SWAP1 SWAP2 MUL ADD SLOAD PUSH1 0x1 PUSH1 0x1 PUSH1 0xA0 SHL SUB AND SWAP2 POP PUSH2 0x20C0 DUP3 PUSH2 0x1916 JUMP JUMPDEST PUSH1 0x9 SLOAD SWAP1 SWAP2 POP PUSH1 0x1 PUSH1 0x1 PUSH1 0xA0 SHL SUB SWAP1 DUP2 AND SWAP1 DUP4 AND SUB PUSH2 0x20FD JUMPI DUP1 DUP6 DUP5 DUP2 MLOAD DUP2 LT PUSH2 0x20EC JUMPI PUSH2 0x20EC PUSH2 0x3671 JUMP JUMPDEST PUSH1 0x20 MUL PUSH1 0x20 ADD ADD DUP2 DUP2 MSTORE POP POP PUSH2 0x212B JUMP JUMPDEST PUSH0 PUSH2 0x2108 DUP4 DUP4 PUSH2 0x285D JUMP JUMPDEST SWAP1 POP DUP1 DUP7 DUP6 DUP2 MLOAD DUP2 LT PUSH2 0x211D JUMPI PUSH2 0x211D PUSH2 0x3671 JUMP JUMPDEST PUSH1 0x20 MUL PUSH1 0x20 ADD ADD DUP2 DUP2 MSTORE POP POP POP JUMPDEST DUP5 DUP4 DUP2 MLOAD DUP2 LT PUSH2 0x213D JUMPI PUSH2 0x213D PUSH2 0x3671 JUMP JUMPDEST PUSH1 0x20 MUL PUSH1 0x20 ADD ADD MLOAD DUP7 PUSH2 0x2150 SWAP2 SWAP1 PUSH2 0x3780 JUMP JUMPDEST SWAP6 POP POP POP PUSH1 0x1 ADD PUSH2 0x2081 JUMP JUMPDEST POP POP SWAP1 SWAP2 JUMP JUMPDEST PUSH1 0x6 SLOAD PUSH1 0x60 SWAP1 PUSH1 0x1 PUSH1 0x1 PUSH1 0x40 SHL SUB DUP2 GT ISZERO PUSH2 0x217F JUMPI PUSH2 0x217F PUSH2 0x34A2 JUMP JUMPDEST PUSH1 0x40 MLOAD SWAP1 DUP1 DUP3 MSTORE DUP1 PUSH1 0x20 MUL PUSH1 0x20 ADD DUP3 ADD PUSH1 0x40 MSTORE DUP1 ISZERO PUSH2 0x21A8 JUMPI DUP2 PUSH1 0x20 ADD PUSH1 0x20 DUP3 MUL DUP1 CALLDATASIZE DUP4 CALLDATACOPY ADD SWAP1 POP JUMPDEST POP SWAP1 POP PUSH0 JUMPDEST PUSH1 0x6 SLOAD DUP2 LT ISZERO PUSH2 0x9D8 JUMPI PUSH0 PUSH2 0x2710 PUSH1 0x6 DUP4 DUP2 SLOAD DUP2 LT PUSH2 0x21CE JUMPI PUSH2 0x21CE PUSH2 0x3671 JUMP JUMPDEST SWAP1 PUSH0 MSTORE PUSH1 0x20 PUSH0 KECCAK256 SWAP1 PUSH1 0x3 MUL ADD PUSH1 0x1 ADD SLOAD DUP7 PUSH2 0x21E9 SWAP2 SWAP1 PUSH2 0x365A JUMP JUMPDEST PUSH2 0x21F3 SWAP2 SWAP1 PUSH2 0x373B JUMP JUMPDEST SWAP1 POP DUP1 DUP5 DUP4 DUP2 MLOAD DUP2 LT PUSH2 0x2208 JUMPI PUSH2 0x2208 PUSH2 0x3671 JUMP JUMPDEST PUSH1 0x20 MUL PUSH1 0x20 ADD ADD MLOAD LT ISZERO PUSH2 0x225A JUMPI DUP4 DUP3 DUP2 MLOAD DUP2 LT PUSH2 0x2228 JUMPI PUSH2 0x2228 PUSH2 0x3671 JUMP JUMPDEST PUSH1 0x20 MUL PUSH1 0x20 ADD ADD MLOAD DUP2 PUSH2 0x223B SWAP2 SWAP1 PUSH2 0x374E JUMP JUMPDEST DUP4 DUP4 DUP2 MLOAD DUP2 LT PUSH2 0x224D JUMPI PUSH2 0x224D PUSH2 0x3671 JUMP JUMPDEST PUSH1 0x20 MUL PUSH1 0x20 ADD ADD DUP2 DUP2 MSTORE POP POP JUMPDEST POP PUSH1 0x1 ADD PUSH2 0x21AD JUMP JUMPDEST PUSH0 DUP1 JUMPDEST PUSH1 0x6 SLOAD DUP2 LT ISZERO PUSH2 0x7A5 JUMPI DUP3 DUP2 DUP2 MLOAD DUP2 LT PUSH2 0x2282 JUMPI PUSH2 0x2282 PUSH2 0x3671 JUMP JUMPDEST PUSH1 0x20 MUL PUSH1 0x20 ADD ADD MLOAD DUP3 PUSH2 0x2295 SWAP2 SWAP1 PUSH2 0x3780 JUMP JUMPDEST SWAP2 POP PUSH1 0x1 ADD PUSH2 0x2266 JUMP JUMPDEST PUSH1 0x9 SLOAD PUSH1 0x6 DUP1 SLOAD PUSH0 SWAP3 PUSH1 0x1 PUSH1 0x1 PUSH1 0xA0 SHL SUB AND SWAP2 SWAP1 DUP6 SWAP1 DUP2 LT PUSH2 0x22C3 JUMPI PUSH2 0x22C3 PUSH2 0x3671 JUMP JUMPDEST PUSH0 SWAP2 DUP3 MSTORE PUSH1 0x20 SWAP1 SWAP2 KECCAK256 PUSH1 0x3 SWAP1 SWAP2 MUL ADD SLOAD PUSH1 0x1 PUSH1 0x1 PUSH1 0xA0 SHL SUB AND SUB PUSH2 0x22E8 JUMPI POP DUP1 PUSH2 0x8A6 JUMP JUMPDEST PUSH0 PUSH2 0x231E PUSH1 0x6 DUP6 DUP2 SLOAD DUP2 LT PUSH2 0x22FF JUMPI PUSH2 0x22FF PUSH2 0x3671 JUMP JUMPDEST PUSH0 SWAP2 DUP3 MSTORE PUSH1 0x20 SWAP1 SWAP2 KECCAK256 PUSH1 0x3 SWAP1 SWAP2 MUL ADD SLOAD PUSH1 0x1 PUSH1 0x1 PUSH1 0xA0 SHL SUB AND DUP5 PUSH2 0x2F02 JUMP JUMPDEST SWAP1 POP PUSH0 DUP2 GT PUSH2 0x19FE JUMPI PUSH1 0x40 MLOAD PUSH3 0x461BCD PUSH1 0xE5 SHL DUP2 MSTORE PUSH1 0x20 PUSH1 0x4 DUP3 ADD MSTORE PUSH1 0x1B PUSH1 0x24 DUP3 ADD MSTORE PUSH32 0x496E76616C696420746F6B656E20616D6F756E7420746F206164640000000000 PUSH1 0x44 DUP3 ADD MSTORE PUSH1 0x64 ADD PUSH2 0x600 JUMP JUMPDEST PUSH1 0x1 PUSH1 0x1 PUSH1 0xA0 SHL SUB DUP3 AND PUSH2 0x2398 JUMPI PUSH1 0x40 MLOAD PUSH4 0xEC442F05 PUSH1 0xE0 SHL DUP2 MSTORE PUSH0 PUSH1 0x4 DUP3 ADD MSTORE PUSH1 0x24 ADD PUSH2 0x600 JUMP JUMPDEST PUSH2 0x23A3 PUSH0 DUP4 DUP4 PUSH2 0x2F1B JUMP JUMPDEST POP POP JUMP JUMPDEST PUSH0 DUP1 PUSH2 0x23B1 PUSH2 0x1040 JUMP JUMPDEST SWAP2 POP SWAP2 POP PUSH0 JUMPDEST PUSH1 0x6 SLOAD DUP2 LT ISZERO PUSH2 0x2605 JUMPI PUSH0 PUSH1 0x6 DUP3 DUP2 SLOAD DUP2 LT PUSH2 0x23D5 JUMPI PUSH2 0x23D5 PUSH2 0x3671 JUMP JUMPDEST SWAP1 PUSH0 MSTORE PUSH1 0x20 PUSH0 KECCAK256 SWAP1 PUSH1 0x3 MUL ADD PUSH1 0x2 ADD SLOAD SWAP1 POP DUP4 DUP3 DUP2 MLOAD DUP2 LT PUSH2 0x23F9 JUMPI PUSH2 0x23F9 PUSH2 0x3671 JUMP JUMPDEST PUSH1 0x20 MUL PUSH1 0x20 ADD ADD MLOAD ISZERO PUSH2 0x24CE JUMPI DUP3 DUP3 DUP2 MLOAD DUP2 LT PUSH2 0x2418 JUMPI PUSH2 0x2418 PUSH2 0x3671 JUMP JUMPDEST PUSH1 0x20 MUL PUSH1 0x20 ADD ADD MLOAD PUSH1 0x6 DUP4 DUP2 SLOAD DUP2 LT PUSH2 0x2433 JUMPI PUSH2 0x2433 PUSH2 0x3671 JUMP JUMPDEST SWAP1 PUSH0 MSTORE PUSH1 0x20 PUSH0 KECCAK256 SWAP1 PUSH1 0x3 MUL ADD PUSH1 0x2 ADD PUSH0 DUP3 DUP3 SLOAD PUSH2 0x2450 SWAP2 SWAP1 PUSH2 0x3780 JUMP JUMPDEST SWAP3 POP POP DUP2 SWAP1 SSTORE POP DUP1 PUSH1 0x6 DUP4 DUP2 SLOAD DUP2 LT PUSH2 0x246B JUMPI PUSH2 0x246B PUSH2 0x3671 JUMP JUMPDEST SWAP1 PUSH0 MSTORE PUSH1 0x20 PUSH0 KECCAK256 SWAP1 PUSH1 0x3 MUL ADD PUSH1 0x2 ADD SLOAD LT ISZERO PUSH2 0x24C9 JUMPI PUSH1 0x40 MLOAD PUSH3 0x461BCD PUSH1 0xE5 SHL DUP2 MSTORE PUSH1 0x20 PUSH1 0x4 DUP3 ADD MSTORE PUSH1 0x1E PUSH1 0x24 DUP3 ADD MSTORE PUSH32 0x4F766572666C6F7720696E6372656D656E74696E6720736C6970706167650000 PUSH1 0x44 DUP3 ADD MSTORE PUSH1 0x64 ADD PUSH2 0x600 JUMP JUMPDEST PUSH2 0x25FC JUMP JUMPDEST DUP3 DUP3 DUP2 MLOAD DUP2 LT PUSH2 0x24E0 JUMPI PUSH2 0x24E0 PUSH2 0x3671 JUMP JUMPDEST PUSH1 0x20 MUL PUSH1 0x20 ADD ADD MLOAD PUSH1 0x6 DUP4 DUP2 SLOAD DUP2 LT PUSH2 0x24FB JUMPI PUSH2 0x24FB PUSH2 0x3671 JUMP JUMPDEST SWAP1 PUSH0 MSTORE PUSH1 0x20 PUSH0 KECCAK256 SWAP1 PUSH1 0x3 MUL ADD PUSH1 0x2 ADD SLOAD GT ISZERO PUSH2 0x25D4 JUMPI DUP3 DUP3 DUP2 MLOAD DUP2 LT PUSH2 0x2523 JUMPI PUSH2 0x2523 PUSH2 0x3671 JUMP JUMPDEST PUSH1 0x20 MUL PUSH1 0x20 ADD ADD MLOAD PUSH1 0x6 DUP4 DUP2 SLOAD DUP2 LT PUSH2 0x253E JUMPI PUSH2 0x253E PUSH2 0x3671 JUMP JUMPDEST SWAP1 PUSH0 MSTORE PUSH1 0x20 PUSH0 KECCAK256 SWAP1 PUSH1 0x3 MUL ADD PUSH1 0x2 ADD PUSH0 DUP3 DUP3 SLOAD PUSH2 0x255B SWAP2 SWAP1 PUSH2 0x374E JUMP JUMPDEST SWAP3 POP POP DUP2 SWAP1 SSTORE POP DUP1 PUSH1 0x6 DUP4 DUP2 SLOAD DUP2 LT PUSH2 0x2576 JUMPI PUSH2 0x2576 PUSH2 0x3671 JUMP JUMPDEST SWAP1 PUSH0 MSTORE PUSH1 0x20 PUSH0 KECCAK256 SWAP1 PUSH1 0x3 MUL ADD PUSH1 0x2 ADD SLOAD GT ISZERO PUSH2 0x24C9 JUMPI PUSH1 0x40 MLOAD PUSH3 0x461BCD PUSH1 0xE5 SHL DUP2 MSTORE PUSH1 0x20 PUSH1 0x4 DUP3 ADD MSTORE PUSH1 0x1F PUSH1 0x24 DUP3 ADD MSTORE PUSH32 0x556E646572666C6F772064656372656D656E74696E6720736C69707061676500 PUSH1 0x44 DUP3 ADD MSTORE PUSH1 0x64 ADD PUSH2 0x600 JUMP JUMPDEST PUSH0 PUSH1 0x6 DUP4 DUP2 SLOAD DUP2 LT PUSH2 0x25E8 JUMPI PUSH2 0x25E8 PUSH2 0x3671 JUMP JUMPDEST SWAP1 PUSH0 MSTORE PUSH1 0x20 PUSH0 KECCAK256 SWAP1 PUSH1 0x3 MUL ADD PUSH1 0x2 ADD DUP2 SWAP1 SSTORE POP JUMPDEST POP PUSH1 0x1 ADD PUSH2 0x23B7 JUMP JUMPDEST POP POP POP JUMP JUMPDEST PUSH2 0x2605 DUP4 DUP4 DUP4 PUSH1 0x1 PUSH2 0x3041 JUMP JUMPDEST PUSH1 0x1 PUSH1 0x1 PUSH1 0xA0 SHL SUB DUP4 DUP2 AND PUSH0 SWAP1 DUP2 MSTORE PUSH1 0x1 PUSH1 0x20 SWAP1 DUP2 MSTORE PUSH1 0x40 DUP1 DUP4 KECCAK256 SWAP4 DUP7 AND DUP4 MSTORE SWAP3 SWAP1 MSTORE KECCAK256 SLOAD PUSH0 NOT DUP2 EQ PUSH2 0x268C JUMPI DUP2 DUP2 LT ISZERO PUSH2 0x267E JUMPI PUSH1 0x40 MLOAD PUSH4 0x7DC7A0D9 PUSH1 0xE1 SHL DUP2 MSTORE PUSH1 0x1 PUSH1 0x1 PUSH1 0xA0 SHL SUB DUP5 AND PUSH1 0x4 DUP3 ADD MSTORE PUSH1 0x24 DUP2 ADD DUP3 SWAP1 MSTORE PUSH1 0x44 DUP2 ADD DUP4 SWAP1 MSTORE PUSH1 0x64 ADD PUSH2 0x600 JUMP JUMPDEST PUSH2 0x268C DUP5 DUP5 DUP5 DUP5 SUB PUSH0 PUSH2 0x3041 JUMP JUMPDEST POP POP POP POP JUMP JUMPDEST PUSH1 0x1 PUSH1 0x1 PUSH1 0xA0 SHL SUB DUP4 AND PUSH2 0x26BB JUMPI PUSH1 0x40 MLOAD PUSH4 0x4B637E8F PUSH1 0xE1 SHL DUP2 MSTORE PUSH0 PUSH1 0x4 DUP3 ADD MSTORE PUSH1 0x24 ADD PUSH2 0x600 JUMP JUMPDEST PUSH1 0x1 PUSH1 0x1 PUSH1 0xA0 SHL SUB DUP3 AND PUSH2 0x26E4 JUMPI PUSH1 0x40 MLOAD PUSH4 0xEC442F05 PUSH1 0xE0 SHL DUP2 MSTORE PUSH0 PUSH1 0x4 DUP3 ADD MSTORE PUSH1 0x24 ADD PUSH2 0x600 JUMP JUMPDEST PUSH2 0x2605 DUP4 DUP4 DUP4 PUSH2 0x2F1B JUMP JUMPDEST PUSH1 0x2 PUSH1 0x5 SLOAD SUB PUSH2 0x2712 JUMPI PUSH1 0x40 MLOAD PUSH4 0x3EE5AEB5 PUSH1 0xE0 SHL DUP2 MSTORE PUSH1 0x4 ADD PUSH1 0x40 MLOAD DUP1 SWAP2 SUB SWAP1 REVERT JUMPDEST PUSH1 0x2 PUSH1 0x5 SSTORE JUMP JUMPDEST PUSH1 0x1 PUSH1 0x1 PUSH1 0xA0 SHL SUB DUP3 AND PUSH2 0x2742 JUMPI PUSH1 0x40 MLOAD PUSH4 0x4B637E8F PUSH1 0xE1 SHL DUP2 MSTORE PUSH0 PUSH1 0x4 DUP3 ADD MSTORE PUSH1 0x24 ADD PUSH2 0x600 JUMP JUMPDEST PUSH2 0x23A3 DUP3 PUSH0 DUP4 PUSH2 0x2F1B JUMP JUMPDEST PUSH0 DUP1 PUSH2 0x2759 DUP7 DUP7 PUSH2 0x3113 JUMP JUMPDEST SWAP1 POP PUSH0 DUP4 ISZERO PUSH2 0x277D JUMPI PUSH2 0x2776 DUP7 PUSH2 0x2770 DUP8 DUP11 PUSH2 0x3780 JUMP JUMPDEST SWAP1 PUSH2 0x3113 JUMP JUMPDEST SWAP1 POP PUSH2 0x278E JUMP JUMPDEST PUSH2 0x278B DUP7 PUSH2 0x2770 DUP8 DUP11 PUSH2 0x374E JUMP JUMPDEST SWAP1 POP JUMPDEST DUP1 DUP3 SUB PUSH2 0x279F JUMPI PUSH0 SWAP3 POP POP POP PUSH2 0x2800 JUMP JUMPDEST PUSH0 PUSH2 0x27AD DUP13 DUP13 DUP13 DUP13 DUP8 PUSH2 0x3132 JUMP JUMPDEST SWAP1 POP PUSH0 PUSH2 0x27BD DUP14 DUP14 DUP14 DUP14 DUP8 PUSH2 0x3132 JUMP JUMPDEST SWAP1 POP DUP3 DUP5 GT ISZERO PUSH2 0x27E9 JUMPI PUSH2 0x27DE PUSH2 0x27D4 DUP5 DUP7 PUSH2 0x374E JUMP JUMPDEST PUSH2 0x2770 DUP5 DUP5 PUSH2 0x374E JUMP JUMPDEST SWAP5 POP POP POP POP POP PUSH2 0x2800 JUMP JUMPDEST PUSH2 0x27DE PUSH2 0x27F6 DUP6 DUP6 PUSH2 0x374E JUMP JUMPDEST PUSH2 0x2770 DUP4 DUP6 PUSH2 0x374E JUMP JUMPDEST SWAP9 SWAP8 POP POP POP POP POP POP POP POP JUMP JUMPDEST PUSH0 DUP2 PUSH2 0x2820 DUP5 PUSH8 0xDE0B6B3A7640000 PUSH2 0x3780 JUMP JUMPDEST PUSH2 0x19FE SWAP2 SWAP1 PUSH2 0x374E JUMP JUMPDEST PUSH0 PUSH8 0xDE0B6B3A7640000 PUSH2 0x283F PUSH1 0x2 DUP3 PUSH2 0x373B JUMP JUMPDEST PUSH2 0x2849 DUP5 DUP7 PUSH2 0x365A JUMP JUMPDEST PUSH2 0x2853 SWAP2 SWAP1 PUSH2 0x3780 JUMP JUMPDEST PUSH2 0x19FE SWAP2 SWAP1 PUSH2 0x373B JUMP JUMPDEST PUSH1 0x9 SLOAD PUSH0 SWAP1 PUSH2 0x19FE SWAP1 DUP5 SWAP1 PUSH1 0x1 PUSH1 0x1 PUSH1 0xA0 SHL SUB AND DUP5 PUSH2 0xB30 JUMP JUMPDEST PUSH1 0x60 DUP1 PUSH0 PUSH1 0xB PUSH0 SWAP1 SLOAD SWAP1 PUSH2 0x100 EXP SWAP1 DIV PUSH1 0x1 PUSH1 0x1 PUSH1 0xA0 SHL SUB AND PUSH1 0x1 PUSH1 0x1 PUSH1 0xA0 SHL SUB AND PUSH4 0x1ACB6141 PUSH1 0x40 MLOAD DUP2 PUSH4 0xFFFFFFFF AND PUSH1 0xE0 SHL DUP2 MSTORE PUSH1 0x4 ADD PUSH1 0x20 PUSH1 0x40 MLOAD DUP1 DUP4 SUB DUP2 DUP7 GAS STATICCALL ISZERO DUP1 ISZERO PUSH2 0x28CB JUMPI RETURNDATASIZE PUSH0 DUP1 RETURNDATACOPY RETURNDATASIZE PUSH0 REVERT JUMPDEST POP POP POP POP PUSH1 0x40 MLOAD RETURNDATASIZE PUSH1 0x1F NOT PUSH1 0x1F DUP3 ADD AND DUP3 ADD DUP1 PUSH1 0x40 MSTORE POP DUP2 ADD SWAP1 PUSH2 0x28EF SWAP2 SWAP1 PUSH2 0x3603 JUMP JUMPDEST SWAP1 POP PUSH0 PUSH1 0xB PUSH0 SWAP1 SLOAD SWAP1 PUSH2 0x100 EXP SWAP1 DIV PUSH1 0x1 PUSH1 0x1 PUSH1 0xA0 SHL SUB AND PUSH1 0x1 PUSH1 0x1 PUSH1 0xA0 SHL SUB AND PUSH4 0xCFF49D68 PUSH1 0x40 MLOAD DUP2 PUSH4 0xFFFFFFFF AND PUSH1 0xE0 SHL DUP2 MSTORE PUSH1 0x4 ADD PUSH1 0x20 PUSH1 0x40 MLOAD DUP1 DUP4 SUB DUP2 DUP7 GAS STATICCALL ISZERO DUP1 ISZERO PUSH2 0x2942 JUMPI RETURNDATASIZE PUSH0 DUP1 RETURNDATACOPY RETURNDATASIZE PUSH0 REVERT JUMPDEST POP POP POP POP PUSH1 0x40 MLOAD RETURNDATASIZE PUSH1 0x1F NOT PUSH1 0x1F DUP3 ADD AND DUP3 ADD DUP1 PUSH1 0x40 MSTORE POP DUP2 ADD SWAP1 PUSH2 0x2966 SWAP2 SWAP1 PUSH2 0x3603 JUMP JUMPDEST PUSH1 0x6 SLOAD SWAP1 SWAP2 POP PUSH0 SWAP1 PUSH1 0x1 PUSH1 0x1 PUSH1 0x40 SHL SUB DUP2 GT ISZERO PUSH2 0x2985 JUMPI PUSH2 0x2985 PUSH2 0x34A2 JUMP JUMPDEST PUSH1 0x40 MLOAD SWAP1 DUP1 DUP3 MSTORE DUP1 PUSH1 0x20 MUL PUSH1 0x20 ADD DUP3 ADD PUSH1 0x40 MSTORE DUP1 ISZERO PUSH2 0x29AE JUMPI DUP2 PUSH1 0x20 ADD PUSH1 0x20 DUP3 MUL DUP1 CALLDATASIZE DUP4 CALLDATACOPY ADD SWAP1 POP JUMPDEST POP PUSH1 0x6 SLOAD SWAP1 SWAP2 POP PUSH0 SWAP1 PUSH1 0x1 PUSH1 0x1 PUSH1 0x40 SHL SUB DUP2 GT ISZERO PUSH2 0x29CE JUMPI PUSH2 0x29CE PUSH2 0x34A2 JUMP JUMPDEST PUSH1 0x40 MLOAD SWAP1 DUP1 DUP3 MSTORE DUP1 PUSH1 0x20 MUL PUSH1 0x20 ADD DUP3 ADD PUSH1 0x40 MSTORE DUP1 ISZERO PUSH2 0x29F7 JUMPI DUP2 PUSH1 0x20 ADD PUSH1 0x20 DUP3 MUL DUP1 CALLDATASIZE DUP4 CALLDATACOPY ADD SWAP1 POP JUMPDEST POP PUSH1 0x6 SLOAD SWAP1 SWAP2 POP PUSH0 SWAP1 PUSH1 0x1 PUSH1 0x1 PUSH1 0x40 SHL SUB DUP2 GT ISZERO PUSH2 0x2A17 JUMPI PUSH2 0x2A17 PUSH2 0x34A2 JUMP JUMPDEST PUSH1 0x40 MLOAD SWAP1 DUP1 DUP3 MSTORE DUP1 PUSH1 0x20 MUL PUSH1 0x20 ADD DUP3 ADD PUSH1 0x40 MSTORE DUP1 ISZERO PUSH2 0x2A40 JUMPI DUP2 PUSH1 0x20 ADD PUSH1 0x20 DUP3 MUL DUP1 CALLDATASIZE DUP4 CALLDATACOPY ADD SWAP1 POP JUMPDEST POP PUSH1 0x6 SLOAD SWAP1 SWAP2 POP PUSH0 SWAP1 PUSH1 0x1 PUSH1 0x1 PUSH1 0x40 SHL SUB DUP2 GT ISZERO PUSH2 0x2A60 JUMPI PUSH2 0x2A60 PUSH2 0x34A2 JUMP JUMPDEST PUSH1 0x40 MLOAD SWAP1 DUP1 DUP3 MSTORE DUP1 PUSH1 0x20 MUL PUSH1 0x20 ADD DUP3 ADD PUSH1 0x40 MSTORE DUP1 ISZERO PUSH2 0x2A89 JUMPI DUP2 PUSH1 0x20 ADD PUSH1 0x20 DUP3 MUL DUP1 CALLDATASIZE DUP4 CALLDATACOPY ADD SWAP1 POP JUMPDEST POP PUSH1 0x6 SLOAD SWAP1 SWAP2 POP PUSH0 SWAP1 PUSH1 0x1 PUSH1 0x1 PUSH1 0x40 SHL SUB DUP2 GT ISZERO PUSH2 0x2AA9 JUMPI PUSH2 0x2AA9 PUSH2 0x34A2 JUMP JUMPDEST PUSH1 0x40 MLOAD SWAP1 DUP1 DUP3 MSTORE DUP1 PUSH1 0x20 MUL PUSH1 0x20 ADD DUP3 ADD PUSH1 0x40 MSTORE DUP1 ISZERO PUSH2 0x2AD2 JUMPI DUP2 PUSH1 0x20 ADD PUSH1 0x20 DUP3 MUL DUP1 CALLDATASIZE DUP4 CALLDATACOPY ADD SWAP1 POP JUMPDEST POP PUSH1 0x6 SLOAD SWAP1 SWAP2 POP PUSH0 SWAP1 PUSH1 0x1 PUSH1 0x1 PUSH1 0x40 SHL SUB DUP2 GT ISZERO PUSH2 0x2AF2 JUMPI PUSH2 0x2AF2 PUSH2 0x34A2 JUMP JUMPDEST PUSH1 0x40 MLOAD SWAP1 DUP1 DUP3 MSTORE DUP1 PUSH1 0x20 MUL PUSH1 0x20 ADD DUP3 ADD PUSH1 0x40 MSTORE DUP1 ISZERO PUSH2 0x2B1B JUMPI DUP2 PUSH1 0x20 ADD PUSH1 0x20 DUP3 MUL DUP1 CALLDATASIZE DUP4 CALLDATACOPY ADD SWAP1 POP JUMPDEST POP SWAP1 POP PUSH0 JUMPDEST PUSH1 0x6 SLOAD DUP2 LT ISZERO PUSH2 0x2C79 JUMPI PUSH1 0x6 DUP2 DUP2 SLOAD DUP2 LT PUSH2 0x2B3D JUMPI PUSH2 0x2B3D PUSH2 0x3671 JUMP JUMPDEST PUSH0 SWAP2 DUP3 MSTORE PUSH1 0x20 SWAP1 SWAP2 KECCAK256 PUSH1 0x3 SWAP1 SWAP2 MUL ADD SLOAD DUP8 MLOAD PUSH1 0x1 PUSH1 0x1 PUSH1 0xA0 SHL SUB SWAP1 SWAP2 AND SWAP1 DUP9 SWAP1 DUP4 SWAP1 DUP2 LT PUSH2 0x2B6D JUMPI PUSH2 0x2B6D PUSH2 0x3671 JUMP JUMPDEST PUSH1 0x20 MUL PUSH1 0x20 ADD ADD SWAP1 PUSH1 0x1 PUSH1 0x1 PUSH1 0xA0 SHL SUB AND SWAP1 DUP2 PUSH1 0x1 PUSH1 0x1 PUSH1 0xA0 SHL SUB AND DUP2 MSTORE POP POP PUSH1 0x6 DUP2 DUP2 SLOAD DUP2 LT PUSH2 0x2BA0 JUMPI PUSH2 0x2BA0 PUSH2 0x3671 JUMP JUMPDEST SWAP1 PUSH0 MSTORE PUSH1 0x20 PUSH0 KECCAK256 SWAP1 PUSH1 0x3 MUL ADD PUSH1 0x1 ADD SLOAD DUP7 DUP3 DUP2 MLOAD DUP2 LT PUSH2 0x2BC2 JUMPI PUSH2 0x2BC2 PUSH2 0x3671 JUMP JUMPDEST PUSH1 0x20 MUL PUSH1 0x20 ADD ADD DUP2 DUP2 MSTORE POP POP DUP7 DUP2 DUP2 MLOAD DUP2 LT PUSH2 0x2BE0 JUMPI PUSH2 0x2BE0 PUSH2 0x3671 JUMP JUMPDEST PUSH1 0x20 SWAP1 DUP2 MUL SWAP2 SWAP1 SWAP2 ADD ADD MLOAD PUSH1 0x40 MLOAD PUSH4 0x70A08231 PUSH1 0xE0 SHL DUP2 MSTORE PUSH1 0x1 PUSH1 0x1 PUSH1 0xA0 SHL SUB DUP12 DUP2 AND PUSH1 0x4 DUP4 ADD MSTORE SWAP1 SWAP2 AND SWAP1 PUSH4 0x70A08231 SWAP1 PUSH1 0x24 ADD PUSH1 0x20 PUSH1 0x40 MLOAD DUP1 DUP4 SUB DUP2 DUP7 GAS STATICCALL ISZERO DUP1 ISZERO PUSH2 0x2C30 JUMPI RETURNDATASIZE PUSH0 DUP1 RETURNDATACOPY RETURNDATASIZE PUSH0 REVERT JUMPDEST POP POP POP POP PUSH1 0x40 MLOAD RETURNDATASIZE PUSH1 0x1F NOT PUSH1 0x1F DUP3 ADD AND DUP3 ADD DUP1 PUSH1 0x40 MSTORE POP DUP2 ADD SWAP1 PUSH2 0x2C54 SWAP2 SWAP1 PUSH2 0x3710 JUMP JUMPDEST DUP6 DUP3 DUP2 MLOAD DUP2 LT PUSH2 0x2C66 JUMPI PUSH2 0x2C66 PUSH2 0x3671 JUMP JUMPDEST PUSH1 0x20 SWAP1 DUP2 MUL SWAP2 SWAP1 SWAP2 ADD ADD MSTORE PUSH1 0x1 ADD PUSH2 0x2B20 JUMP JUMPDEST POP PUSH0 PUSH2 0x2C83 PUSH2 0x7AB JUMP JUMPDEST SWAP1 POP DUP8 PUSH1 0x1 PUSH1 0x1 PUSH1 0xA0 SHL SUB AND PUSH4 0xF0BF7714 DUP3 DUP10 DUP10 PUSH1 0x7 SLOAD DUP15 DUP16 PUSH1 0x9 PUSH0 SWAP1 SLOAD SWAP1 PUSH2 0x100 EXP SWAP1 DIV PUSH1 0x1 PUSH1 0x1 PUSH1 0xA0 SHL SUB AND PUSH1 0x40 MLOAD DUP9 PUSH4 0xFFFFFFFF AND PUSH1 0xE0 SHL DUP2 MSTORE PUSH1 0x4 ADD PUSH2 0x2CD3 SWAP8 SWAP7 SWAP6 SWAP5 SWAP4 SWAP3 SWAP2 SWAP1 PUSH2 0x389E JUMP JUMPDEST PUSH0 PUSH1 0x40 MLOAD DUP1 DUP4 SUB DUP2 PUSH0 DUP8 DUP1 EXTCODESIZE ISZERO DUP1 ISZERO PUSH2 0x2CEA JUMPI PUSH0 DUP1 REVERT JUMPDEST POP GAS CALL ISZERO DUP1 ISZERO PUSH2 0x2CFC JUMPI RETURNDATASIZE PUSH0 DUP1 RETURNDATACOPY RETURNDATASIZE PUSH0 REVERT JUMPDEST POP POP POP POP PUSH0 JUMPDEST PUSH1 0x6 SLOAD DUP2 LT ISZERO PUSH2 0x2EB0 JUMPI DUP8 DUP2 DUP2 MLOAD DUP2 LT PUSH2 0x2D1E JUMPI PUSH2 0x2D1E PUSH2 0x3671 JUMP JUMPDEST PUSH1 0x20 SWAP1 DUP2 MUL SWAP2 SWAP1 SWAP2 ADD ADD MLOAD PUSH1 0x40 MLOAD PUSH4 0x70A08231 PUSH1 0xE0 SHL DUP2 MSTORE PUSH1 0x1 PUSH1 0x1 PUSH1 0xA0 SHL SUB DUP13 DUP2 AND PUSH1 0x4 DUP4 ADD MSTORE SWAP1 SWAP2 AND SWAP1 PUSH4 0x70A08231 SWAP1 PUSH1 0x24 ADD PUSH1 0x20 PUSH1 0x40 MLOAD DUP1 DUP4 SUB DUP2 DUP7 GAS STATICCALL ISZERO DUP1 ISZERO PUSH2 0x2D6E JUMPI RETURNDATASIZE PUSH0 DUP1 RETURNDATACOPY RETURNDATASIZE PUSH0 REVERT JUMPDEST POP POP POP POP PUSH1 0x40 MLOAD RETURNDATASIZE PUSH1 0x1F NOT PUSH1 0x1F DUP3 ADD AND DUP3 ADD DUP1 PUSH1 0x40 MSTORE POP DUP2 ADD SWAP1 PUSH2 0x2D92 SWAP2 SWAP1 PUSH2 0x3710 JUMP JUMPDEST DUP6 DUP3 DUP2 MLOAD DUP2 LT PUSH2 0x2DA4 JUMPI PUSH2 0x2DA4 PUSH2 0x3671 JUMP JUMPDEST PUSH1 0x20 MUL PUSH1 0x20 ADD ADD DUP2 DUP2 MSTORE POP POP DUP6 DUP2 DUP2 MLOAD DUP2 LT PUSH2 0x2DC2 JUMPI PUSH2 0x2DC2 PUSH2 0x3671 JUMP JUMPDEST PUSH1 0x20 MUL PUSH1 0x20 ADD ADD MLOAD DUP6 DUP3 DUP2 MLOAD DUP2 LT PUSH2 0x2DDC JUMPI PUSH2 0x2DDC PUSH2 0x3671 JUMP JUMPDEST PUSH1 0x20 MUL PUSH1 0x20 ADD ADD MLOAD GT ISZERO PUSH2 0x2E4B JUMPI DUP6 DUP2 DUP2 MLOAD DUP2 LT PUSH2 0x2DFC JUMPI PUSH2 0x2DFC PUSH2 0x3671 JUMP JUMPDEST PUSH1 0x20 MUL PUSH1 0x20 ADD ADD MLOAD DUP6 DUP3 DUP2 MLOAD DUP2 LT PUSH2 0x2E16 JUMPI PUSH2 0x2E16 PUSH2 0x3671 JUMP JUMPDEST PUSH1 0x20 MUL PUSH1 0x20 ADD ADD MLOAD PUSH2 0x2E28 SWAP2 SWAP1 PUSH2 0x374E JUMP JUMPDEST DUP5 DUP3 DUP2 MLOAD DUP2 LT PUSH2 0x2E3A JUMPI PUSH2 0x2E3A PUSH2 0x3671 JUMP JUMPDEST PUSH1 0x20 MUL PUSH1 0x20 ADD ADD DUP2 DUP2 MSTORE POP POP PUSH2 0x2EA8 JUMP JUMPDEST DUP5 DUP2 DUP2 MLOAD DUP2 LT PUSH2 0x2E5D JUMPI PUSH2 0x2E5D PUSH2 0x3671 JUMP JUMPDEST PUSH1 0x20 MUL PUSH1 0x20 ADD ADD MLOAD DUP7 DUP3 DUP2 MLOAD DUP2 LT PUSH2 0x2E77 JUMPI PUSH2 0x2E77 PUSH2 0x3671 JUMP JUMPDEST PUSH1 0x20 MUL PUSH1 0x20 ADD ADD MLOAD PUSH2 0x2E89 SWAP2 SWAP1 PUSH2 0x374E JUMP JUMPDEST DUP4 DUP3 DUP2 MLOAD DUP2 LT PUSH2 0x2E9B JUMPI PUSH2 0x2E9B PUSH2 0x3671 JUMP JUMPDEST PUSH1 0x20 MUL PUSH1 0x20 ADD ADD DUP2 DUP2 MSTORE POP POP JUMPDEST PUSH1 0x1 ADD PUSH2 0x2D02 JUMP JUMPDEST POP CALLER PUSH1 0x1 PUSH1 0x1 PUSH1 0xA0 SHL SUB AND PUSH32 0x279B343370F587AF7FB675AE7C8578E9C8ABCC373236AD02C501A4771FE7A7B8 DUP9 PUSH1 0x40 MLOAD PUSH2 0x2EEA SWAP2 SWAP1 PUSH2 0x33A3 JUMP JUMPDEST PUSH1 0x40 MLOAD DUP1 SWAP2 SUB SWAP1 LOG2 POP SWAP1 SWAP10 SWAP1 SWAP9 POP SWAP7 POP POP POP POP POP POP POP JUMP JUMPDEST PUSH1 0x9 SLOAD PUSH0 SWAP1 PUSH2 0x19FE SWAP1 PUSH1 0x1 PUSH1 0x1 PUSH1 0xA0 SHL SUB AND DUP5 DUP5 PUSH2 0xB30 JUMP JUMPDEST PUSH1 0x1 PUSH1 0x1 PUSH1 0xA0 SHL SUB DUP4 AND PUSH2 0x2F45 JUMPI DUP1 PUSH1 0x2 PUSH0 DUP3 DUP3 SLOAD PUSH2 0x2F3A SWAP2 SWAP1 PUSH2 0x3780 JUMP JUMPDEST SWAP1 SWAP2 SSTORE POP PUSH2 0x2FB5 SWAP1 POP JUMP JUMPDEST PUSH1 0x1 PUSH1 0x1 PUSH1 0xA0 SHL SUB DUP4 AND PUSH0 SWAP1 DUP2 MSTORE PUSH1 0x20 DUP2 SWAP1 MSTORE PUSH1 0x40 SWAP1 KECCAK256 SLOAD DUP2 DUP2 LT ISZERO PUSH2 0x2F97 JUMPI PUSH1 0x40 MLOAD PUSH4 0x391434E3 PUSH1 0xE2 SHL DUP2 MSTORE PUSH1 0x1 PUSH1 0x1 PUSH1 0xA0 SHL SUB DUP6 AND PUSH1 0x4 DUP3 ADD MSTORE PUSH1 0x24 DUP2 ADD DUP3 SWAP1 MSTORE PUSH1 0x44 DUP2 ADD DUP4 SWAP1 MSTORE PUSH1 0x64 ADD PUSH2 0x600 JUMP JUMPDEST PUSH1 0x1 PUSH1 0x1 PUSH1 0xA0 SHL SUB DUP5 AND PUSH0 SWAP1 DUP2 MSTORE PUSH1 0x20 DUP2 SWAP1 MSTORE PUSH1 0x40 SWAP1 KECCAK256 SWAP1 DUP3 SWAP1 SUB SWAP1 SSTORE JUMPDEST PUSH1 0x1 PUSH1 0x1 PUSH1 0xA0 SHL SUB DUP3 AND PUSH2 0x2FD1 JUMPI PUSH1 0x2 DUP1 SLOAD DUP3 SWAP1 SUB SWAP1 SSTORE PUSH2 0x2FEF JUMP JUMPDEST PUSH1 0x1 PUSH1 0x1 PUSH1 0xA0 SHL SUB DUP3 AND PUSH0 SWAP1 DUP2 MSTORE PUSH1 0x20 DUP2 SWAP1 MSTORE PUSH1 0x40 SWAP1 KECCAK256 DUP1 SLOAD DUP3 ADD SWAP1 SSTORE JUMPDEST DUP2 PUSH1 0x1 PUSH1 0x1 PUSH1 0xA0 SHL SUB AND DUP4 PUSH1 0x1 PUSH1 0x1 PUSH1 0xA0 SHL SUB AND PUSH32 0xDDF252AD1BE2C89B69C2B068FC378DAA952BA7F163C4A11628F55A4DF523B3EF DUP4 PUSH1 0x40 MLOAD PUSH2 0x3034 SWAP2 DUP2 MSTORE PUSH1 0x20 ADD SWAP1 JUMP JUMPDEST PUSH1 0x40 MLOAD DUP1 SWAP2 SUB SWAP1 LOG3 POP POP POP JUMP JUMPDEST PUSH1 0x1 PUSH1 0x1 PUSH1 0xA0 SHL SUB DUP5 AND PUSH2 0x306A JUMPI PUSH1 0x40 MLOAD PUSH4 0xE602DF05 PUSH1 0xE0 SHL DUP2 MSTORE PUSH0 PUSH1 0x4 DUP3 ADD MSTORE PUSH1 0x24 ADD PUSH2 0x600 JUMP JUMPDEST PUSH1 0x1 PUSH1 0x1 PUSH1 0xA0 SHL SUB DUP4 AND PUSH2 0x3093 JUMPI PUSH1 0x40 MLOAD PUSH4 0x4A1406B1 PUSH1 0xE1 SHL DUP2 MSTORE PUSH0 PUSH1 0x4 DUP3 ADD MSTORE PUSH1 0x24 ADD PUSH2 0x600 JUMP JUMPDEST PUSH1 0x1 PUSH1 0x1 PUSH1 0xA0 SHL SUB DUP1 DUP6 AND PUSH0 SWAP1 DUP2 MSTORE PUSH1 0x1 PUSH1 0x20 SWAP1 DUP2 MSTORE PUSH1 0x40 DUP1 DUP4 KECCAK256 SWAP4 DUP8 AND DUP4 MSTORE SWAP3 SWAP1 MSTORE KECCAK256 DUP3 SWAP1 SSTORE DUP1 ISZERO PUSH2 0x268C JUMPI DUP3 PUSH1 0x1 PUSH1 0x1 PUSH1 0xA0 SHL SUB AND DUP5 PUSH1 0x1 PUSH1 0x1 PUSH1 0xA0 SHL SUB AND PUSH32 0x8C5BE1E5EBEC7D5BD14F71427D1E84F3DD0314C0F7B2291E5B200AC8C7C3B925 DUP5 PUSH1 0x40 MLOAD PUSH2 0x3105 SWAP2 DUP2 MSTORE PUSH1 0x20 ADD SWAP1 JUMP JUMPDEST PUSH1 0x40 MLOAD DUP1 SWAP2 SUB SWAP1 LOG3 POP POP POP POP JUMP JUMPDEST PUSH0 DUP2 PUSH2 0x3120 PUSH1 0x2 DUP3 PUSH2 0x373B JUMP JUMPDEST PUSH2 0x2849 PUSH8 0xDE0B6B3A7640000 DUP7 PUSH2 0x365A JUMP JUMPDEST PUSH0 DUP3 DUP3 LT ISZERO PUSH2 0x314C JUMPI PUSH2 0x3145 DUP3 DUP6 PUSH2 0x374E JUMP JUMPDEST SWAP1 POP PUSH2 0x319F JUMP JUMPDEST PUSH2 0x3145 PUSH12 0x33B2E3C9FD0803CE8000000 PUSH8 0xDE0B6B3A7640000 PUSH2 0x3184 DUP9 DUP3 PUSH2 0x3174 DUP6 DUP10 PUSH2 0x365A JUMP JUMPDEST PUSH2 0x317E SWAP2 SWAP1 PUSH2 0x373B JUMP JUMPDEST SWAP1 PUSH2 0x31A8 JUMP JUMPDEST PUSH2 0x318E SWAP2 SWAP1 PUSH2 0x365A JUMP JUMPDEST PUSH2 0x3198 SWAP2 SWAP1 PUSH2 0x373B JUMP JUMPDEST DUP8 SWAP1 PUSH2 0x3113 JUMP JUMPDEST SWAP6 SWAP5 POP POP POP POP POP JUMP JUMPDEST PUSH0 PUSH2 0x31B4 PUSH1 0x2 DUP4 PUSH2 0x3908 JUMP JUMPDEST PUSH0 SUB PUSH2 0x31CC JUMPI PUSH12 0x33B2E3C9FD0803CE8000000 PUSH2 0x31CE JUMP JUMPDEST DUP3 JUMPDEST SWAP1 POP PUSH2 0x31DB PUSH1 0x2 DUP4 PUSH2 0x373B JUMP JUMPDEST SWAP2 POP JUMPDEST DUP2 ISZERO PUSH2 0x8A6 JUMPI PUSH2 0x31EE DUP4 DUP5 PUSH2 0x321F JUMP JUMPDEST SWAP3 POP PUSH2 0x31FB PUSH1 0x2 DUP4 PUSH2 0x3908 JUMP JUMPDEST ISZERO PUSH2 0x320D JUMPI PUSH2 0x320A DUP2 DUP5 PUSH2 0x321F JUMP JUMPDEST SWAP1 POP JUMPDEST PUSH2 0x3218 PUSH1 0x2 DUP4 PUSH2 0x373B JUMP JUMPDEST SWAP2 POP PUSH2 0x31DE JUMP JUMPDEST PUSH0 PUSH12 0x33B2E3C9FD0803CE8000000 PUSH2 0x283F PUSH1 0x2 DUP3 PUSH2 0x373B JUMP JUMPDEST PUSH1 0x20 DUP2 MSTORE PUSH0 DUP3 MLOAD DUP1 PUSH1 0x20 DUP5 ADD MSTORE DUP1 PUSH1 0x20 DUP6 ADD PUSH1 0x40 DUP6 ADD MCOPY PUSH0 PUSH1 0x40 DUP3 DUP6 ADD ADD MSTORE PUSH1 0x40 PUSH1 0x1F NOT PUSH1 0x1F DUP4 ADD AND DUP5 ADD ADD SWAP2 POP POP SWAP3 SWAP2 POP POP JUMP JUMPDEST PUSH1 0x1 PUSH1 0x1 PUSH1 0xA0 SHL SUB DUP2 AND DUP2 EQ PUSH2 0x3281 JUMPI PUSH0 DUP1 REVERT JUMPDEST POP JUMP JUMPDEST PUSH0 PUSH1 0x20 DUP3 DUP5 SUB SLT ISZERO PUSH2 0x3294 JUMPI PUSH0 DUP1 REVERT JUMPDEST DUP2 CALLDATALOAD PUSH2 0x19FE DUP2 PUSH2 0x326D JUMP JUMPDEST PUSH0 DUP2 MLOAD DUP1 DUP5 MSTORE PUSH1 0x20 DUP1 DUP6 ADD SWAP5 POP PUSH1 0x20 DUP5 ADD PUSH0 JUMPDEST DUP4 DUP2 LT ISZERO PUSH2 0x32CE JUMPI DUP2 MLOAD DUP8 MSTORE SWAP6 DUP3 ADD SWAP6 SWAP1 DUP3 ADD SWAP1 PUSH1 0x1 ADD PUSH2 0x32B2 JUMP JUMPDEST POP SWAP5 SWAP6 SWAP5 POP POP POP POP POP JUMP JUMPDEST PUSH1 0x20 DUP2 MSTORE PUSH0 PUSH2 0x19FE PUSH1 0x20 DUP4 ADD DUP5 PUSH2 0x329F JUMP JUMPDEST PUSH0 DUP1 PUSH1 0x40 DUP4 DUP6 SUB SLT ISZERO PUSH2 0x32FC JUMPI PUSH0 DUP1 REVERT JUMPDEST DUP3 CALLDATALOAD PUSH2 0x3307 DUP2 PUSH2 0x326D JUMP JUMPDEST SWAP5 PUSH1 0x20 SWAP4 SWAP1 SWAP4 ADD CALLDATALOAD SWAP4 POP POP POP JUMP JUMPDEST PUSH0 DUP1 PUSH0 PUSH1 0x60 DUP5 DUP7 SUB SLT ISZERO PUSH2 0x3327 JUMPI PUSH0 DUP1 REVERT JUMPDEST DUP4 CALLDATALOAD PUSH2 0x3332 DUP2 PUSH2 0x326D JUMP JUMPDEST SWAP3 POP PUSH1 0x20 DUP5 ADD CALLDATALOAD PUSH2 0x3342 DUP2 PUSH2 0x326D JUMP JUMPDEST SWAP3 SWAP6 SWAP3 SWAP5 POP POP POP PUSH1 0x40 SWAP2 SWAP1 SWAP2 ADD CALLDATALOAD SWAP1 JUMP JUMPDEST DUP3 DUP2 MSTORE PUSH1 0x40 PUSH1 0x20 DUP3 ADD MSTORE PUSH0 PUSH2 0x1038 PUSH1 0x40 DUP4 ADD DUP5 PUSH2 0x329F JUMP JUMPDEST PUSH0 DUP2 MLOAD DUP1 DUP5 MSTORE PUSH1 0x20 DUP1 DUP6 ADD SWAP5 POP PUSH1 0x20 DUP5 ADD PUSH0 JUMPDEST DUP4 DUP2 LT ISZERO PUSH2 0x32CE JUMPI DUP2 MLOAD PUSH1 0x1 PUSH1 0x1 PUSH1 0xA0 SHL SUB AND DUP8 MSTORE SWAP6 DUP3 ADD SWAP6 SWAP1 DUP3 ADD SWAP1 PUSH1 0x1 ADD PUSH2 0x337E JUMP JUMPDEST PUSH1 0x20 DUP2 MSTORE PUSH0 PUSH2 0x19FE PUSH1 0x20 DUP4 ADD DUP5 PUSH2 0x336B JUMP JUMPDEST PUSH0 DUP1 PUSH0 DUP1 PUSH1 0x80 DUP6 DUP8 SUB SLT ISZERO PUSH2 0x33C8 JUMPI PUSH0 DUP1 REVERT JUMPDEST DUP5 CALLDATALOAD PUSH2 0x33D3 DUP2 PUSH2 0x326D JUMP JUMPDEST SWAP4 POP PUSH1 0x20 DUP6 ADD CALLDATALOAD PUSH2 0x33E3 DUP2 PUSH2 0x326D JUMP JUMPDEST SWAP3 POP PUSH1 0x40 DUP6 ADD CALLDATALOAD SWAP2 POP PUSH1 0x60 DUP6 ADD CALLDATALOAD PUSH2 0x33FA DUP2 PUSH2 0x326D JUMP JUMPDEST SWAP4 SWAP7 SWAP3 SWAP6 POP SWAP1 SWAP4 POP POP JUMP JUMPDEST PUSH1 0x40 DUP1 DUP3 MSTORE DUP4 MLOAD SWAP1 DUP3 ADD DUP2 SWAP1 MSTORE PUSH0 SWAP1 PUSH1 0x20 SWAP1 PUSH1 0x60 DUP5 ADD SWAP1 DUP3 DUP8 ADD DUP5 JUMPDEST DUP3 DUP2 LT ISZERO PUSH2 0x343F JUMPI DUP2 MLOAD ISZERO ISZERO DUP5 MSTORE SWAP3 DUP5 ADD SWAP3 SWAP1 DUP5 ADD SWAP1 PUSH1 0x1 ADD PUSH2 0x3421 JUMP JUMPDEST POP POP POP DUP4 DUP2 SUB PUSH1 0x20 DUP6 ADD MSTORE PUSH2 0xCEF DUP2 DUP7 PUSH2 0x329F JUMP JUMPDEST PUSH0 PUSH1 0x20 DUP3 DUP5 SUB SLT ISZERO PUSH2 0x3464 JUMPI PUSH0 DUP1 REVERT JUMPDEST POP CALLDATALOAD SWAP2 SWAP1 POP JUMP JUMPDEST PUSH0 DUP1 PUSH1 0x40 DUP4 DUP6 SUB SLT ISZERO PUSH2 0x347C JUMPI PUSH0 DUP1 REVERT JUMPDEST DUP3 CALLDATALOAD PUSH2 0x3487 DUP2 PUSH2 0x326D JUMP JUMPDEST SWAP2 POP PUSH1 0x20 DUP4 ADD CALLDATALOAD PUSH2 0x3497 DUP2 PUSH2 0x326D JUMP JUMPDEST DUP1 SWAP2 POP POP SWAP3 POP SWAP3 SWAP1 POP JUMP JUMPDEST PUSH4 0x4E487B71 PUSH1 0xE0 SHL PUSH0 MSTORE PUSH1 0x41 PUSH1 0x4 MSTORE PUSH1 0x24 PUSH0 REVERT JUMPDEST PUSH1 0x40 MLOAD PUSH1 0x1F DUP3 ADD PUSH1 0x1F NOT AND DUP2 ADD PUSH1 0x1 PUSH1 0x1 PUSH1 0x40 SHL SUB DUP2 GT DUP3 DUP3 LT OR ISZERO PUSH2 0x34DE JUMPI PUSH2 0x34DE PUSH2 0x34A2 JUMP JUMPDEST PUSH1 0x40 MSTORE SWAP2 SWAP1 POP JUMP JUMPDEST PUSH0 PUSH1 0x1 PUSH1 0x1 PUSH1 0x40 SHL SUB DUP3 GT ISZERO PUSH2 0x34FE JUMPI PUSH2 0x34FE PUSH2 0x34A2 JUMP JUMPDEST POP PUSH1 0x5 SHL PUSH1 0x20 ADD SWAP1 JUMP JUMPDEST PUSH0 DUP1 PUSH1 0x40 DUP4 DUP6 SUB SLT ISZERO PUSH2 0x3519 JUMPI PUSH0 DUP1 REVERT JUMPDEST DUP3 CALLDATALOAD PUSH2 0x3524 DUP2 PUSH2 0x326D JUMP JUMPDEST SWAP2 POP PUSH1 0x20 DUP4 DUP2 ADD CALLDATALOAD PUSH1 0x1 PUSH1 0x1 PUSH1 0x40 SHL SUB DUP2 GT ISZERO PUSH2 0x353F JUMPI PUSH0 DUP1 REVERT JUMPDEST DUP5 ADD PUSH1 0x1F DUP2 ADD DUP7 SGT PUSH2 0x354F JUMPI PUSH0 DUP1 REVERT JUMPDEST DUP1 CALLDATALOAD PUSH2 0x3562 PUSH2 0x355D DUP3 PUSH2 0x34E6 JUMP JUMPDEST PUSH2 0x34B6 JUMP JUMPDEST DUP2 DUP2 MSTORE PUSH1 0x5 SWAP2 SWAP1 SWAP2 SHL DUP3 ADD DUP4 ADD SWAP1 DUP4 DUP2 ADD SWAP1 DUP9 DUP4 GT ISZERO PUSH2 0x3580 JUMPI PUSH0 DUP1 REVERT JUMPDEST SWAP3 DUP5 ADD SWAP3 JUMPDEST DUP3 DUP5 LT ISZERO PUSH2 0x359E JUMPI DUP4 CALLDATALOAD DUP3 MSTORE SWAP3 DUP5 ADD SWAP3 SWAP1 DUP5 ADD SWAP1 PUSH2 0x3585 JUMP JUMPDEST DUP1 SWAP6 POP POP POP POP POP POP SWAP3 POP SWAP3 SWAP1 POP JUMP JUMPDEST PUSH1 0x40 DUP2 MSTORE PUSH0 PUSH2 0x35BF PUSH1 0x40 DUP4 ADD DUP6 PUSH2 0x329F JUMP JUMPDEST DUP3 DUP2 SUB PUSH1 0x20 DUP5 ADD MSTORE PUSH2 0x319F DUP2 DUP6 PUSH2 0x329F JUMP JUMPDEST PUSH1 0x1 DUP2 DUP2 SHR SWAP1 DUP3 AND DUP1 PUSH2 0x35E5 JUMPI PUSH1 0x7F DUP3 AND SWAP2 POP JUMPDEST PUSH1 0x20 DUP3 LT DUP2 SUB PUSH2 0x7A5 JUMPI PUSH4 0x4E487B71 PUSH1 0xE0 SHL PUSH0 MSTORE PUSH1 0x22 PUSH1 0x4 MSTORE PUSH1 0x24 PUSH0 REVERT JUMPDEST PUSH0 PUSH1 0x20 DUP3 DUP5 SUB SLT ISZERO PUSH2 0x3613 JUMPI PUSH0 DUP1 REVERT JUMPDEST DUP2 MLOAD PUSH2 0x19FE DUP2 PUSH2 0x326D JUMP JUMPDEST PUSH1 0x20 DUP1 DUP3 MSTORE PUSH1 0xE SWAP1 DUP3 ADD MSTORE PUSH14 0x4F6E6C7920506572697068657279 PUSH1 0x90 SHL PUSH1 0x40 DUP3 ADD MSTORE PUSH1 0x60 ADD SWAP1 JUMP JUMPDEST PUSH4 0x4E487B71 PUSH1 0xE0 SHL PUSH0 MSTORE PUSH1 0x11 PUSH1 0x4 MSTORE PUSH1 0x24 PUSH0 REVERT JUMPDEST DUP1 DUP3 MUL DUP2 ISZERO DUP3 DUP3 DIV DUP5 EQ OR PUSH2 0x8A6 JUMPI PUSH2 0x8A6 PUSH2 0x3646 JUMP JUMPDEST PUSH4 0x4E487B71 PUSH1 0xE0 SHL PUSH0 MSTORE PUSH1 0x32 PUSH1 0x4 MSTORE PUSH1 0x24 PUSH0 REVERT JUMPDEST PUSH0 PUSH1 0x20 DUP1 DUP4 DUP6 SUB SLT ISZERO PUSH2 0x3696 JUMPI PUSH0 DUP1 REVERT JUMPDEST DUP3 MLOAD PUSH1 0x1 PUSH1 0x1 PUSH1 0x40 SHL SUB DUP2 GT ISZERO PUSH2 0x36AB JUMPI PUSH0 DUP1 REVERT JUMPDEST DUP4 ADD PUSH1 0x1F DUP2 ADD DUP6 SGT PUSH2 0x36BB JUMPI PUSH0 DUP1 REVERT JUMPDEST DUP1 MLOAD PUSH2 0x36C9 PUSH2 0x355D DUP3 PUSH2 0x34E6 JUMP JUMPDEST DUP2 DUP2 MSTORE PUSH1 0x5 SWAP2 SWAP1 SWAP2 SHL DUP3 ADD DUP4 ADD SWAP1 DUP4 DUP2 ADD SWAP1 DUP8 DUP4 GT ISZERO PUSH2 0x36E7 JUMPI PUSH0 DUP1 REVERT JUMPDEST SWAP3 DUP5 ADD SWAP3 JUMPDEST DUP3 DUP5 LT ISZERO PUSH2 0x3705 JUMPI DUP4 MLOAD DUP3 MSTORE SWAP3 DUP5 ADD SWAP3 SWAP1 DUP5 ADD SWAP1 PUSH2 0x36EC JUMP JUMPDEST SWAP8 SWAP7 POP POP POP POP POP POP POP JUMP JUMPDEST PUSH0 PUSH1 0x20 DUP3 DUP5 SUB SLT ISZERO PUSH2 0x3720 JUMPI PUSH0 DUP1 REVERT JUMPDEST POP MLOAD SWAP2 SWAP1 POP JUMP JUMPDEST PUSH4 0x4E487B71 PUSH1 0xE0 SHL PUSH0 MSTORE PUSH1 0x12 PUSH1 0x4 MSTORE PUSH1 0x24 PUSH0 REVERT JUMPDEST PUSH0 DUP3 PUSH2 0x3749 JUMPI PUSH2 0x3749 PUSH2 0x3727 JUMP JUMPDEST POP DIV SWAP1 JUMP JUMPDEST DUP2 DUP2 SUB DUP2 DUP2 GT ISZERO PUSH2 0x8A6 JUMPI PUSH2 0x8A6 PUSH2 0x3646 JUMP JUMPDEST PUSH0 PUSH1 0x20 DUP3 DUP5 SUB SLT ISZERO PUSH2 0x3771 JUMPI PUSH0 DUP1 REVERT JUMPDEST DUP2 MLOAD DUP1 ISZERO ISZERO DUP2 EQ PUSH2 0x19FE JUMPI PUSH0 DUP1 REVERT JUMPDEST DUP1 DUP3 ADD DUP1 DUP3 GT ISZERO PUSH2 0x8A6 JUMPI PUSH2 0x8A6 PUSH2 0x3646 JUMP JUMPDEST PUSH0 PUSH1 0x20 DUP3 DUP5 SUB SLT ISZERO PUSH2 0x37A3 JUMPI PUSH0 DUP1 REVERT JUMPDEST DUP2 MLOAD PUSH1 0xFF DUP2 AND DUP2 EQ PUSH2 0x19FE JUMPI PUSH0 DUP1 REVERT JUMPDEST PUSH1 0x1 DUP2 DUP2 JUMPDEST DUP1 DUP6 GT ISZERO PUSH2 0x37ED JUMPI DUP2 PUSH0 NOT DIV DUP3 GT ISZERO PUSH2 0x37D3 JUMPI PUSH2 0x37D3 PUSH2 0x3646 JUMP JUMPDEST DUP1 DUP6 AND ISZERO PUSH2 0x37E0 JUMPI SWAP2 DUP2 MUL SWAP2 JUMPDEST SWAP4 DUP5 SHR SWAP4 SWAP1 DUP1 MUL SWAP1 PUSH2 0x37B8 JUMP JUMPDEST POP SWAP3 POP SWAP3 SWAP1 POP JUMP JUMPDEST PUSH0 DUP3 PUSH2 0x3803 JUMPI POP PUSH1 0x1 PUSH2 0x8A6 JUMP JUMPDEST DUP2 PUSH2 0x380F JUMPI POP PUSH0 PUSH2 0x8A6 JUMP JUMPDEST DUP2 PUSH1 0x1 DUP2 EQ PUSH2 0x3825 JUMPI PUSH1 0x2 DUP2 EQ PUSH2 0x382F JUMPI PUSH2 0x384B JUMP JUMPDEST PUSH1 0x1 SWAP2 POP POP PUSH2 0x8A6 JUMP JUMPDEST PUSH1 0xFF DUP5 GT ISZERO PUSH2 0x3840 JUMPI PUSH2 0x3840 PUSH2 0x3646 JUMP JUMPDEST POP POP PUSH1 0x1 DUP3 SHL PUSH2 0x8A6 JUMP JUMPDEST POP PUSH1 0x20 DUP4 LT PUSH2 0x133 DUP4 LT AND PUSH1 0x4E DUP5 LT PUSH1 0xB DUP5 LT AND OR ISZERO PUSH2 0x386E JUMPI POP DUP2 DUP2 EXP PUSH2 0x8A6 JUMP JUMPDEST PUSH2 0x3878 DUP4 DUP4 PUSH2 0x37B3 JUMP JUMPDEST DUP1 PUSH0 NOT DIV DUP3 GT ISZERO PUSH2 0x388B JUMPI PUSH2 0x388B PUSH2 0x3646 JUMP JUMPDEST MUL SWAP4 SWAP3 POP POP POP JUMP JUMPDEST PUSH0 PUSH2 0x19FE DUP4 DUP4 PUSH2 0x37F5 JUMP JUMPDEST PUSH1 0xE0 DUP2 MSTORE PUSH0 PUSH2 0x38B0 PUSH1 0xE0 DUP4 ADD DUP11 PUSH2 0x329F JUMP JUMPDEST DUP3 DUP2 SUB PUSH1 0x20 DUP5 ADD MSTORE PUSH2 0x38C2 DUP2 DUP11 PUSH2 0x336B JUMP JUMPDEST SWAP1 POP DUP3 DUP2 SUB PUSH1 0x40 DUP5 ADD MSTORE PUSH2 0x38D6 DUP2 DUP10 PUSH2 0x329F JUMP JUMPDEST PUSH1 0x60 DUP5 ADD SWAP8 SWAP1 SWAP8 MSTORE POP POP PUSH1 0x1 PUSH1 0x1 PUSH1 0xA0 SHL SUB SWAP4 DUP5 AND PUSH1 0x80 DUP3 ADD MSTORE SWAP2 DUP4 AND PUSH1 0xA0 DUP4 ADD MSTORE SWAP1 SWAP2 AND PUSH1 0xC0 SWAP1 SWAP2 ADD MSTORE SWAP4 SWAP3 POP POP POP JUMP JUMPDEST PUSH0 DUP3 PUSH2 0x3916 JUMPI PUSH2 0x3916 PUSH2 0x3727 JUMP JUMPDEST POP MOD SWAP1 JUMP INVALID LOG2 PUSH5 0x6970667358 0x22 SLT KECCAK256 SHR 0xCD MSTORE8 0xB5 0x4C SGT 0x4B CALLVALUE 0xE4 0xEB 0xD8 0xD2 SELFDESTRUCT PUSH4 0xD2D5F0CE PUSH0 EXP SWAP16 PUSH16 0xE046EBFF11FFA5E6B42F64736F6C6343 STOP ADDMOD NOT STOP CALLER "},"gasEstimates":{"creation":{"codeDepositCost":"2934600","executionCost":"infinite","totalCost":"infinite"},"external":{"ONE()":"2361","allowance(address,address)":"infinite","approve(address,uint256)":"24819","assetInfos(uint256)":"8941","assetLiquidity(uint256)":"infinite","balanceOf(address)":"2664","baseAsset()":"2425","burn(address)":"infinite","computeTotalValuation()":"infinite","decimals()":"288","getAmountOut(address,address,uint256)":"infinite","getAmountOutWithSlippage(address,address,uint256)":"infinite","getAssetReserve(address)":"infinite","getAssets()":"infinite","getDeviation()":"infinite","getReserves()":"infinite","getSlippage(address)":"infinite","getSlippages()":"infinite","getTokenWeight(address)":"infinite","getWeights()":"infinite","isRebalanceNeeded()":"infinite","liquidity()":"infinite","mint(address,uint256[])":"infinite","name()":"infinite","performRebalanceIfNeeded()":"infinite","rebalanceWeights(address)":"infinite","registry()":"2382","swap(address,address,uint256,address)":"infinite","symbol()":"infinite","totalSupply()":"2359","transfer(address,uint256)":"51321","transferFrom(address,address,uint256)":"infinite","trigger()":"2362","unitPrice()":"infinite"},"internal":{"_calculateAmountsToAdd(uint256,uint256[] memory)":"infinite","_calculateLiquidity(uint256,uint256)":"infinite","_calculateTotalAddedLiquidity(uint256[] memory)":"infinite","_computeTotalValuation()":"infinite","_convertBaseToToken(address,uint256)":"infinite","_convertTokenToBase(address,uint256)":"infinite","_performRebalanceIfNeeded()":"infinite","_slippage(uint256,uint256,uint256,uint256,uint256,uint256,uint256,bool)":"infinite","_slippageFunc(uint256,uint256,uint256,uint256,uint256)":"infinite","_swappingSlippage(uint256,uint256)":"infinite","initializeAssets(address[] memory,uint256[] memory)":"infinite","updateSlippage()":"infinite"}},"methodIdentifiers":{"ONE()":"c2ee3a08","allowance(address,address)":"dd62ed3e","approve(address,uint256)":"095ea7b3","assetInfos(uint256)":"d14ef46d","assetLiquidity(uint256)":"cf8fa764","balanceOf(address)":"70a08231","baseAsset()":"cdf456e1","burn(address)":"89afcb44","computeTotalValuation()":"36bf6e39","decimals()":"313ce567","getAmountOut(address,address,uint256)":"4aa06652","getAmountOutWithSlippage(address,address,uint256)":"a1f241cc","getAssetReserve(address)":"b2b55d70","getAssets()":"67e4ac2c","getDeviation()":"89ab3532","getReserves()":"0902f1ac","getSlippage(address)":"12899068","getSlippages()":"18904ea4","getTokenWeight(address)":"250aa683","getWeights()":"22acb867","isRebalanceNeeded()":"8a77c8dc","liquidity()":"1a686502","mint(address,uint256[])":"de836ebd","name()":"06fdde03","performRebalanceIfNeeded()":"f47b45e8","rebalanceWeights(address)":"0723c999","registry()":"7b103999","swap(address,address,uint256,address)":"6e81221c","symbol()":"95d89b41","totalSupply()":"18160ddd","transfer(address,uint256)":"a9059cbb","transferFrom(address,address,uint256)":"23b872dd","trigger()":"7fec8d38","unitPrice()":"e73faa2d"}},"storageLayout":{"storage":[{"astId":1159,"contract":"contracts/BaluniV1Pool.sol:BaluniV1Pool","label":"_balances","offset":0,"slot":"0","type":"t_mapping(t_address,t_uint256)"},{"astId":1165,"contract":"contracts/BaluniV1Pool.sol:BaluniV1Pool","label":"_allowances","offset":0,"slot":"1","type":"t_mapping(t_address,t_mapping(t_address,t_uint256))"},{"astId":1167,"contract":"contracts/BaluniV1Pool.sol:BaluniV1Pool","label":"_totalSupply","offset":0,"slot":"2","type":"t_uint256"},{"astId":1169,"contract":"contracts/BaluniV1Pool.sol:BaluniV1Pool","label":"_name","offset":0,"slot":"3","type":"t_string_storage"},{"astId":1171,"contract":"contracts/BaluniV1Pool.sol:BaluniV1Pool","label":"_symbol","offset":0,"slot":"4","type":"t_string_storage"},{"astId":2049,"contract":"contracts/BaluniV1Pool.sol:BaluniV1Pool","label":"_status","offset":0,"slot":"5","type":"t_uint256"},{"astId":2234,"contract":"contracts/BaluniV1Pool.sol:BaluniV1Pool","label":"assetInfos","offset":0,"slot":"6","type":"t_array(t_struct(AssetInfo)2288_storage)dyn_storage"},{"astId":2239,"contract":"contracts/BaluniV1Pool.sol:BaluniV1Pool","label":"trigger","offset":0,"slot":"7","type":"t_uint256"},{"astId":2241,"contract":"contracts/BaluniV1Pool.sol:BaluniV1Pool","label":"ONE","offset":0,"slot":"8","type":"t_uint256"},{"astId":2243,"contract":"contracts/BaluniV1Pool.sol:BaluniV1Pool","label":"baseAsset","offset":0,"slot":"9","type":"t_address"},{"astId":2245,"contract":"contracts/BaluniV1Pool.sol:BaluniV1Pool","label":"scalingFactor","offset":0,"slot":"10","type":"t_uint256"},{"astId":2248,"contract":"contracts/BaluniV1Pool.sol:BaluniV1Pool","label":"registry","offset":0,"slot":"11","type":"t_contract(IBaluniV1Registry)5472"},{"astId":2263,"contract":"contracts/BaluniV1Pool.sol:BaluniV1Pool","label":"_slippageParamK","offset":0,"slot":"12","type":"t_uint256"},{"astId":2266,"contract":"contracts/BaluniV1Pool.sol:BaluniV1Pool","label":"_slippageParamN","offset":0,"slot":"13","type":"t_uint256"},{"astId":2269,"contract":"contracts/BaluniV1Pool.sol:BaluniV1Pool","label":"_c1","offset":0,"slot":"14","type":"t_uint256"},{"astId":2272,"contract":"contracts/BaluniV1Pool.sol:BaluniV1Pool","label":"_xThreshold","offset":0,"slot":"15","type":"t_uint256"},{"astId":2275,"contract":"contracts/BaluniV1Pool.sol:BaluniV1Pool","label":"_haircutRate","offset":0,"slot":"16","type":"t_uint256"},{"astId":2278,"contract":"contracts/BaluniV1Pool.sol:BaluniV1Pool","label":"_retentionRatio","offset":0,"slot":"17","type":"t_uint256"},{"astId":2281,"contract":"contracts/BaluniV1Pool.sol:BaluniV1Pool","label":"_maxPriceDeviation","offset":0,"slot":"18","type":"t_uint256"}],"types":{"t_address":{"encoding":"inplace","label":"address","numberOfBytes":"20"},"t_array(t_struct(AssetInfo)2288_storage)dyn_storage":{"base":"t_struct(AssetInfo)2288_storage","encoding":"dynamic_array","label":"struct BaluniV1Pool.AssetInfo[]","numberOfBytes":"32"},"t_contract(IBaluniV1Registry)5472":{"encoding":"inplace","label":"contract IBaluniV1Registry","numberOfBytes":"20"},"t_mapping(t_address,t_mapping(t_address,t_uint256))":{"encoding":"mapping","key":"t_address","label":"mapping(address => mapping(address => uint256))","numberOfBytes":"32","value":"t_mapping(t_address,t_uint256)"},"t_mapping(t_address,t_uint256)":{"encoding":"mapping","key":"t_address","label":"mapping(address => uint256)","numberOfBytes":"32","value":"t_uint256"},"t_string_storage":{"encoding":"bytes","label":"string","numberOfBytes":"32"},"t_struct(AssetInfo)2288_storage":{"encoding":"inplace","label":"struct BaluniV1Pool.AssetInfo","members":[{"astId":2283,"contract":"contracts/BaluniV1Pool.sol:BaluniV1Pool","label":"asset","offset":0,"slot":"0","type":"t_address"},{"astId":2285,"contract":"contracts/BaluniV1Pool.sol:BaluniV1Pool","label":"weight","offset":0,"slot":"1","type":"t_uint256"},{"astId":2287,"contract":"contracts/BaluniV1Pool.sol:BaluniV1Pool","label":"slippage","offset":0,"slot":"2","type":"t_uint256"}],"numberOfBytes":"96"},"t_uint256":{"encoding":"inplace","label":"uint256","numberOfBytes":"32"}}},"userdoc":{"kind":"user","methods":{"burn(address)":{"notice":"This function can only be called by the periphery contract.The pool tokens must have a balance greater than 0.The total supply of pool tokens must be greater than 0.The function calculates the amounts of each underlying asset to transfer based on the share of pool tokens being burned.A fee is deducted from the share of pool tokens being burned and transferred to the treasury address.The function checks if the pool has sufficient liquidity before performing any transfers.If any transfer fails, the function reverts the entire operation.After the transfers, the function updates the reserves of the pool.Emits a `Burn` event with the address and share of pool tokens burned."}},"version":1}}}}