{"contracts/BaluniV1Pool.sol":{"BaluniV1Pool":{"abi":[{"inputs":[{"internalType":"address","name":"_rebalancer","type":"address"},{"internalType":"address[]","name":"_assets","type":"address[]"},{"internalType":"uint256[]","name":"_weights","type":"uint256[]"},{"internalType":"uint256","name":"_trigger","type":"uint256"},{"internalType":"address","name":"_periphery","type":"address"}],"stateMutability":"nonpayable","type":"constructor"},{"inputs":[{"internalType":"address","name":"spender","type":"address"},{"internalType":"uint256","name":"allowance","type":"uint256"},{"internalType":"uint256","name":"needed","type":"uint256"}],"name":"ERC20InsufficientAllowance","type":"error"},{"inputs":[{"internalType":"address","name":"sender","type":"address"},{"internalType":"uint256","name":"balance","type":"uint256"},{"internalType":"uint256","name":"needed","type":"uint256"}],"name":"ERC20InsufficientBalance","type":"error"},{"inputs":[{"internalType":"address","name":"approver","type":"address"}],"name":"ERC20InvalidApprover","type":"error"},{"inputs":[{"internalType":"address","name":"receiver","type":"address"}],"name":"ERC20InvalidReceiver","type":"error"},{"inputs":[{"internalType":"address","name":"sender","type":"address"}],"name":"ERC20InvalidSender","type":"error"},{"inputs":[{"internalType":"address","name":"spender","type":"address"}],"name":"ERC20InvalidSpender","type":"error"},{"inputs":[],"name":"ReentrancyGuardReentrantCall","type":"error"},{"anonymous":false,"inputs":[{"indexed":true,"internalType":"address","name":"owner","type":"address"},{"indexed":true,"internalType":"address","name":"spender","type":"address"},{"indexed":false,"internalType":"uint256","name":"value","type":"uint256"}],"name":"Approval","type":"event"},{"anonymous":false,"inputs":[{"indexed":true,"internalType":"address","name":"user","type":"address"},{"indexed":false,"internalType":"uint256","name":"sharesBurned","type":"uint256"}],"name":"Burn","type":"event"},{"anonymous":false,"inputs":[{"indexed":true,"internalType":"address","name":"to","type":"address"},{"indexed":false,"internalType":"uint256","name":"sharesMinted","type":"uint256"}],"name":"Mint","type":"event"},{"anonymous":false,"inputs":[{"indexed":true,"internalType":"address","name":"by","type":"address"},{"indexed":false,"internalType":"address[]","name":"assets","type":"address[]"}],"name":"RebalancePerformed","type":"event"},{"anonymous":false,"inputs":[{"indexed":true,"internalType":"address","name":"user","type":"address"},{"indexed":true,"internalType":"address","name":"fromToken","type":"address"},{"indexed":true,"internalType":"address","name":"toToken","type":"address"},{"indexed":false,"internalType":"uint256","name":"amountIn","type":"uint256"},{"indexed":false,"internalType":"uint256","name":"amountOut","type":"uint256"}],"name":"Swap","type":"event"},{"anonymous":false,"inputs":[{"indexed":true,"internalType":"address","name":"from","type":"address"},{"indexed":true,"internalType":"address","name":"to","type":"address"},{"indexed":false,"internalType":"uint256","name":"value","type":"uint256"}],"name":"Transfer","type":"event"},{"anonymous":false,"inputs":[{"indexed":true,"internalType":"address","name":"user","type":"address"},{"indexed":false,"internalType":"uint256[]","name":"amountsAdded","type":"uint256[]"}],"name":"WeightsRebalanced","type":"event"},{"inputs":[],"name":"ONE","outputs":[{"internalType":"uint256","name":"","type":"uint256"}],"stateMutability":"view","type":"function"},{"inputs":[],"name":"SWAP_FEE_BPS","outputs":[{"internalType":"uint256","name":"","type":"uint256"}],"stateMutability":"view","type":"function"},{"inputs":[{"internalType":"address","name":"owner","type":"address"},{"internalType":"address","name":"spender","type":"address"}],"name":"allowance","outputs":[{"internalType":"uint256","name":"","type":"uint256"}],"stateMutability":"view","type":"function"},{"inputs":[{"internalType":"address","name":"spender","type":"address"},{"internalType":"uint256","name":"value","type":"uint256"}],"name":"approve","outputs":[{"internalType":"bool","name":"","type":"bool"}],"stateMutability":"nonpayable","type":"function"},{"inputs":[{"internalType":"uint256","name":"","type":"uint256"}],"name":"assetInfos","outputs":[{"internalType":"address","name":"asset","type":"address"},{"internalType":"uint256","name":"weight","type":"uint256"}],"stateMutability":"view","type":"function"},{"inputs":[{"internalType":"uint256","name":"assetIndex","type":"uint256"}],"name":"assetLiquidity","outputs":[{"internalType":"uint256","name":"","type":"uint256"}],"stateMutability":"view","type":"function"},{"inputs":[{"internalType":"address","name":"account","type":"address"}],"name":"balanceOf","outputs":[{"internalType":"uint256","name":"","type":"uint256"}],"stateMutability":"view","type":"function"},{"inputs":[],"name":"baseAsset","outputs":[{"internalType":"address","name":"","type":"address"}],"stateMutability":"view","type":"function"},{"inputs":[{"internalType":"address","name":"to","type":"address"}],"name":"burn","outputs":[{"internalType":"uint256[]","name":"","type":"uint256[]"}],"stateMutability":"nonpayable","type":"function"},{"inputs":[],"name":"computeTotalValuation","outputs":[{"internalType":"uint256","name":"totalVal","type":"uint256"},{"internalType":"uint256[]","name":"valuations","type":"uint256[]"}],"stateMutability":"view","type":"function"},{"inputs":[],"name":"decimals","outputs":[{"internalType":"uint8","name":"","type":"uint8"}],"stateMutability":"view","type":"function"},{"inputs":[],"name":"factory","outputs":[{"internalType":"address","name":"","type":"address"}],"stateMutability":"view","type":"function"},{"inputs":[{"internalType":"address","name":"fromToken","type":"address"},{"internalType":"address","name":"toToken","type":"address"},{"internalType":"uint256","name":"amount","type":"uint256"}],"name":"getAmountOut","outputs":[{"internalType":"uint256","name":"","type":"uint256"}],"stateMutability":"view","type":"function"},{"inputs":[{"internalType":"address","name":"asset","type":"address"}],"name":"getAssetReserve","outputs":[{"internalType":"uint256","name":"","type":"uint256"}],"stateMutability":"view","type":"function"},{"inputs":[],"name":"getAssets","outputs":[{"internalType":"address[]","name":"","type":"address[]"}],"stateMutability":"view","type":"function"},{"inputs":[],"name":"getDeviation","outputs":[{"internalType":"bool[]","name":"directions","type":"bool[]"},{"internalType":"uint256[]","name":"deviations","type":"uint256[]"}],"stateMutability":"view","type":"function"},{"inputs":[],"name":"getReserves","outputs":[{"internalType":"uint256[]","name":"","type":"uint256[]"}],"stateMutability":"view","type":"function"},{"inputs":[],"name":"getWeights","outputs":[{"internalType":"uint256[]","name":"","type":"uint256[]"}],"stateMutability":"view","type":"function"},{"inputs":[],"name":"isRebalanceNeeded","outputs":[{"internalType":"bool","name":"","type":"bool"}],"stateMutability":"view","type":"function"},{"inputs":[],"name":"liquidity","outputs":[{"internalType":"uint256","name":"","type":"uint256"}],"stateMutability":"view","type":"function"},{"inputs":[{"internalType":"address","name":"to","type":"address"},{"internalType":"uint256[]","name":"amounts","type":"uint256[]"}],"name":"mint","outputs":[{"internalType":"uint256","name":"","type":"uint256"}],"stateMutability":"nonpayable","type":"function"},{"inputs":[],"name":"name","outputs":[{"internalType":"string","name":"","type":"string"}],"stateMutability":"view","type":"function"},{"inputs":[],"name":"performRebalanceIfNeeded","outputs":[{"internalType":"uint256[]","name":"amountsToAdd","type":"uint256[]"},{"internalType":"uint256[]","name":"amountsToRemove","type":"uint256[]"}],"stateMutability":"nonpayable","type":"function"},{"inputs":[],"name":"periphery","outputs":[{"internalType":"address","name":"","type":"address"}],"stateMutability":"view","type":"function"},{"inputs":[{"internalType":"address","name":"receiver","type":"address"}],"name":"rebalanceWeights","outputs":[{"internalType":"uint256[]","name":"","type":"uint256[]"}],"stateMutability":"nonpayable","type":"function"},{"inputs":[],"name":"rebalancer","outputs":[{"internalType":"address","name":"","type":"address"}],"stateMutability":"view","type":"function"},{"inputs":[{"internalType":"address","name":"fromToken","type":"address"},{"internalType":"address","name":"toToken","type":"address"},{"internalType":"uint256","name":"amount","type":"uint256"},{"internalType":"address","name":"receiver","type":"address"}],"name":"swap","outputs":[{"internalType":"uint256","name":"toSend","type":"uint256"}],"stateMutability":"nonpayable","type":"function"},{"inputs":[],"name":"symbol","outputs":[{"internalType":"string","name":"","type":"string"}],"stateMutability":"view","type":"function"},{"inputs":[],"name":"totalSupply","outputs":[{"internalType":"uint256","name":"","type":"uint256"}],"stateMutability":"view","type":"function"},{"inputs":[{"internalType":"address","name":"to","type":"address"},{"internalType":"uint256","name":"value","type":"uint256"}],"name":"transfer","outputs":[{"internalType":"bool","name":"","type":"bool"}],"stateMutability":"nonpayable","type":"function"},{"inputs":[{"internalType":"address","name":"from","type":"address"},{"internalType":"address","name":"to","type":"address"},{"internalType":"uint256","name":"value","type":"uint256"}],"name":"transferFrom","outputs":[{"internalType":"bool","name":"","type":"bool"}],"stateMutability":"nonpayable","type":"function"},{"inputs":[],"name":"trigger","outputs":[{"internalType":"uint256","name":"","type":"uint256"}],"stateMutability":"view","type":"function"},{"inputs":[],"name":"unitPrice","outputs":[{"internalType":"uint256","name":"","type":"uint256"}],"stateMutability":"view","type":"function"}],"devdoc":{"errors":{"ERC20InsufficientAllowance(address,uint256,uint256)":[{"details":"Indicates a failure with the `spender`’s `allowance`. Used in transfers.","params":{"allowance":"Amount of tokens a `spender` is allowed to operate with.","needed":"Minimum amount required to perform a transfer.","spender":"Address that may be allowed to operate on tokens without being their owner."}}],"ERC20InsufficientBalance(address,uint256,uint256)":[{"details":"Indicates an error related to the current `balance` of a `sender`. Used in transfers.","params":{"balance":"Current balance for the interacting account.","needed":"Minimum amount required to perform a transfer.","sender":"Address whose tokens are being transferred."}}],"ERC20InvalidApprover(address)":[{"details":"Indicates a failure with the `approver` of a token to be approved. Used in approvals.","params":{"approver":"Address initiating an approval operation."}}],"ERC20InvalidReceiver(address)":[{"details":"Indicates a failure with the token `receiver`. Used in transfers.","params":{"receiver":"Address to which tokens are being transferred."}}],"ERC20InvalidSender(address)":[{"details":"Indicates a failure with the token `sender`. Used in transfers.","params":{"sender":"Address whose tokens are being transferred."}}],"ERC20InvalidSpender(address)":[{"details":"Indicates a failure with the `spender` to be approved. Used in approvals.","params":{"spender":"Address that may be allowed to operate on tokens without being their owner."}}],"ReentrancyGuardReentrantCall()":[{"details":"Unauthorized reentrant call."}]},"events":{"Approval(address,address,uint256)":{"details":"Emitted when the allowance of a `spender` for an `owner` is set by a call to {approve}. `value` is the new allowance."},"Transfer(address,address,uint256)":{"details":"Emitted when `value` tokens are moved from one account (`from`) to another (`to`). Note that `value` may be zero."}},"kind":"dev","methods":{"allowance(address,address)":{"details":"See {IERC20-allowance}."},"approve(address,uint256)":{"details":"See {IERC20-approve}. NOTE: If `value` is the maximum `uint256`, the allowance is not updated on `transferFrom`. This is semantically equivalent to an infinite approval. Requirements: - `spender` cannot be the zero address."},"assetLiquidity(uint256)":{"details":"Returns the liquidity of a specific asset in the pool.","params":{"assetIndex":"The index of the asset."},"returns":{"_0":"The liquidity of the asset."}},"balanceOf(address)":{"details":"See {IERC20-balanceOf}."},"burn(address)":{"details":"Burns the pool tokens and transfers the underlying assets to the specified address.","params":{"to":"The address to transfer the underlying assets to."}},"computeTotalValuation()":{"details":"Computes the total valuation of the pool and returns the total valuation and an array of individual valuations.","returns":{"totalVal":"The total valuation of the pool.","valuations":"An array of individual valuations."}},"constructor":{"details":"Initializes a new instance of the BaluniV1Pool contract.","params":{"_assets":"An array of addresses representing the assets in the pool.","_periphery":"The address of the periphery contract.","_rebalancer":"The address of the rebalancer contract.","_trigger":"The trigger value for rebalancing the pool.","_weights":"An array of weights corresponding to the assets in the pool."}},"decimals()":{"details":"Returns the number of decimals used to get its user representation. For example, if `decimals` equals `2`, a balance of `505` tokens should be displayed to a user as `5.05` (`505 / 10 ** 2`). Tokens usually opt for a value of 18, imitating the relationship between Ether and Wei. This is the default value returned by this function, unless it's overridden. NOTE: This information is only used for _display_ purposes: it in no way affects any of the arithmetic of the contract, including {IERC20-balanceOf} and {IERC20-transfer}."},"getAmountOut(address,address,uint256)":{"details":"Calculates the amount of `toToken` that will be received when swapping `fromToken` for `toToken`.","params":{"amount":"The amount of `fromToken` being swapped.","fromToken":"The address of the token being swapped from.","toToken":"The address of the token being swapped to."},"returns":{"_0":"The amount of `toToken` that will be received."}},"getAssetReserve(address)":{"details":"Returns the reserve amount of the specified asset.","params":{"asset":"The address of the asset."},"returns":{"_0":"The reserve amount of the asset."}},"getAssets()":{"details":"Retrieves the list of assets in the pool.","returns":{"_0":"An array of addresses representing the assets."}},"getDeviation()":{"details":"Returns the deviation between the current weights and target weights of the assets in the pool.","returns":{"directions":"An array of boolean values indicating whether the current weight is higher (true) or lower (false) than the target weight."}},"getReserves()":{"details":"Returns an array of reserves for each asset in the pool.","returns":{"_0":"An array of reserves."}},"getWeights()":{"details":"Retrieves the list of weights associated with the assets in the pool.","returns":{"_0":"An array of uint256 values representing the weights."}},"isRebalanceNeeded()":{"details":"Checks if rebalancing is needed for the pool.","returns":{"_0":"A boolean value indicating whether rebalancing is needed or not."}},"liquidity()":{"details":"Returns the total liquidity of the pool.","returns":{"_0":"The total liquidity of the pool."}},"mint(address,uint256[])":{"details":"Mints new tokens and adds them to the specified address.","params":{"to":"The address to which the new tokens will be minted."},"returns":{"_0":"The amount of tokens minted."}},"name()":{"details":"Returns the name of the token."},"performRebalanceIfNeeded()":{"details":"Performs rebalance"},"rebalanceWeights(address)":{"details":"Rebalances the weights of the pool by calculating the amounts to add for each token, transferring the calculated amounts from the user to the pool, minting the total added liquidity, updating the reserves, and emitting an event to indicate the rebalancing of weights.","params":{"receiver":"The address to receive the minted liquidity tokens."}},"swap(address,address,uint256,address)":{"details":"Swaps `amount` of `fromToken` to `toToken` and transfers the received amount to `receiver`. Requirements: - `fromToken` and `toToken` must be different tokens. - `amount` must be greater than zero. - Sufficient liquidity of `toToken` must be available in the contract. Emits a `Swap` event with the details of the swap. Updates the reserves after the swap.","params":{"amount":"The amount of `fromToken` to swap.","fromToken":"The address of the token to swap from.","receiver":"The address to receive the swapped tokens.","toToken":"The address of the token to swap to."},"returns":{"toSend":"The amount of `toToken` received after the swap."}},"symbol()":{"details":"Returns the symbol of the token, usually a shorter version of the name."},"totalSupply()":{"details":"See {IERC20-totalSupply}."},"transfer(address,uint256)":{"details":"See {IERC20-transfer}. Requirements: - `to` cannot be the zero address. - the caller must have a balance of at least `value`."},"transferFrom(address,address,uint256)":{"details":"See {IERC20-transferFrom}. Emits an {Approval} event indicating the updated allowance. This is not required by the EIP. See the note at the beginning of {ERC20}. NOTE: Does not update the allowance if the current allowance is the maximum `uint256`. Requirements: - `from` and `to` cannot be the zero address. - `from` must have a balance of at least `value`. - the caller must have allowance for ``from``'s tokens of at least `value`."},"unitPrice()":{"details":"Returns the unit price of the pool.","returns":{"_0":"The unit price of the pool."}}},"version":1},"evm":{"bytecode":{"linkReferences":{},"object":"6080806040523461043957612b1a803803809161001c82856108fe565b8339810160a0828203126104395761003382610921565b60208301519091906001600160401b0381116104395783019181601f840112156104395782519261006384610935565b9361007160405195866108fe565b80855260208086019160051b8301019184831161043957602001905b8282106108cb5750505060408401516001600160401b0381116104395784019180601f840112156104395782516100c381610935565b936100d160405195866108fe565b81855260208086019260051b82010192831161043957602001905b8282106108bb57505050610107608060608601519501610921565b604051610113816108e3565b6009815268042616c756e69204c560bc1b602082015260405190610136826108e3565b6009825268042414c554e492d4c560bc1b60208301528051906001600160401b0382116104965760035490600182811c921680156108b1575b60208310146107925781601f849311610843575b50602090601f83116001146107bb575f926107b0575b50508160011b915f199060031b1c1916176003555b8051906001600160401b0382116104965760045490600182811c921680156107a6575b60208310146107925781601f849311610724575b50602090601f83116001146106a0575f92610695575b50508160011b915f199060031b1c1916176004555b6001600555600980546001600160a01b03199081166001600160a01b0393841617909155600a8054821633179055600c8054909116918316919091179055670de0b6b3a76400006008558251825103610645575f5b8351811015610525576001600160a01b03610280828661094c565b5116156104e057610291818461094c565b51156104aa576001600160a01b036102a9828661094c565b51166102b5828561094c565b5160408051929083018084116001600160401b0390911117610496576040830160405282526020820152600654680100000000000000008110156104965760018101806006558110156104825760065f5281517ff652222313e28459528d920b65115c16c04f3efc82aaedc97be59f3f377c0d3f60019290921b91820180546001600160a01b039283166001600160a01b03199091161790556020909201517ff652222313e28459528d920b65115c16c04f3efc82aaedc97be59f3f377c0d4090910155610383828661094c565b511660018060a01b03600c5416604051636eb1769f60e11b8152306004820152816024820152602081604481865afa908115610445575f91610450575b50156103d1575b5050600101610265565b5f916044602092604051948593849263095ea7b360e01b84526004840152811960248401525af1801561044557610409575b806103c7565b6020813d60201161043d575b81610422602093836108fe565b81010312610439575180151503610439575f610403565b5f80fd5b3d9150610415565b6040513d5f823e3d90fd5b90506020813d60201161047a575b8161046b602093836108fe565b8101031261043957515f6103c0565b3d915061045e565b634e487b7160e01b5f52603260045260245ffd5b634e487b7160e01b5f52604160045260245ffd5b60405162461bcd60e51b815260206004820152600e60248201526d125b9d985b1a59081dd95a59da1d60921b6044820152606490fd5b60405162461bcd60e51b815260206004820152601560248201527f496e76616c6964206173736574206164647265737300000000000000000000006044820152606490fd5b5060078490556040516389a3027160e01b815290602090829060049082906001600160a01b03165afa908115610445575f9161060b575b50600b80546001600160a01b0319166001600160a01b03929092169190911790555f90815b81518310156105bd57610594838361094c565b5181018091116105a957600190920191610581565b634e487b7160e01b5f52601160045260245ffd5b612710036105d4576040516121b990816109618239f35b60405162461bcd60e51b815260206004820152600f60248201526e496e76616c6964207765696768747360881b6044820152606490fd5b90506020813d60201161063d575b81610626602093836108fe565b810103126104395761063790610921565b8261055c565b3d9150610619565b60405162461bcd60e51b815260206004820152602260248201527f41737365747320616e642077656967687473206c656e677468206d69736d61746044820152610c6d60f31b6064820152608490fd5b015190505f806101fb565b60045f9081527f8a35acfbc15ff81a39ae7d344fd709f28e8600b4aa8c65c6b64bfe7fe36bd19b9350601f198516905b81811061070c57509084600195949392106106f4575b505050811b01600455610210565b01515f1960f88460031b161c191690555f80806106e6565b929360206001819287860151815501950193016106d0565b60045f529091507f8a35acfbc15ff81a39ae7d344fd709f28e8600b4aa8c65c6b64bfe7fe36bd19b601f840160051c81019160208510610788575b90601f859493920160051c01905b81811061077a57506101e5565b5f815584935060010161076d565b909150819061075f565b634e487b7160e01b5f52602260045260245ffd5b91607f16916101d1565b015190505f80610199565b60035f90815293507fc2575a0e9e593c00f959f8c92f12db2869c3395a3b0502d05e2516446f71f85b91905b601f1984168510610828576001945083601f19811610610810575b505050811b016003556101ae565b01515f1960f88460031b161c191690555f8080610802565b818101518355602094850194600190930192909101906107e7565b60035f529091507fc2575a0e9e593c00f959f8c92f12db2869c3395a3b0502d05e2516446f71f85b601f840160051c810191602085106108a7575b90601f859493920160051c01905b8181106108995750610183565b5f815584935060010161088c565b909150819061087e565b91607f169161016f565b81518152602091820191016100ec565b602080916108d884610921565b81520191019061008d565b604081019081106001600160401b0382111761049657604052565b601f909101601f19168101906001600160401b0382119082101761049657604052565b51906001600160a01b038216820361043957565b6001600160401b0381116104965760051b60200190565b80518210156104825760209160051b01019056fe6080604081815260049182361015610015575f80fd5b5f905f3560e01c90816301d22ccd1461188e5750806306fdde03146117995780630723c9991461156f5780630902f1ac1461153f578063095ea7b31461149657806318160ddd146114785780631a6865021461145457806322acb867146113f757806323b872dd14611316578063313ce567146112fb57806336bf6e39146112c75780634aa06652146112ac57806367a6c4401461129157806367e4ac2c1461122e5780636e81221c1461101557806370a0823114610fdf57806377aace1a14610fb75780637fec8d3814610f9957806389ab353214610f2f57806389afcb4414610b055780638a77c8dc14610ae057806395d89b41146109e1578063a9059cbb146109b1578063b2b55d701461098c578063c2ee3a081461096e578063c45a015514610946578063cdf456e11461091e578063cf8fa764146108a6578063d14ef46d1461085a578063dd62ed3e14610811578063de836ebd14610547578063e73faa2d146105245763f47b45e81461018c575f80fd5b3461041f576003195f3682011261041f576009546001600160a01b0394908516916101b8338414611a45565b6101c86101c3611d9c565b611a82565b600654936101d585611af9565b936101df86611af9565b976101e987611af9565b926101f388611af9565b946101fd89611af9565b9a6102078a611af9565b995f5b81811061046b57505061021b611b3f565b84600c54169160075486600b5416843b1561041f578e51633c2fddc560e21b815260e0818e01528d99909687958695919061025a9060e4880190611907565b9b60249c828882030160248901526102719161196f565b9086820301604487015261028491611907565b92606485015280608485015260a484015260c483015203815a5f948591f1801561046157610434575b50600654600954909690831692825b888110610329578c8c6103258d8d7f279b343370f587af7fb675ae7c8578e9c8abcc373236ad02c501a4771fe7a7b8845160208152806103013394602083019061196f565b0390a26103178351948486958652850190611907565b908382036020850152611907565b0390f35b81610334828c611b2b565b51168c5180916370a0823160e01b82528786830152818960209485935afa91821561042a578f908a94938f91938d948a926103e9575b505094849160019661037c8487611b2b565b526103878386611b2b565b516103928484611b2b565b5110156103cc57506103be906103b7836103b0816103c49798611b2b565b5192611b2b565b5190611ac5565b92611b2b565b525b016102bc565b936103e393506103b7836103b0816103be95611b2b565b526103c6565b9450955050505082813d8311610423575b61040481836119f7565b8101031261041f57888e828a8f60019651919681935061036a565b5f80fd5b503d6103fa565b8e513d88823e3d90fd5b905067ffffffffffffffff811161044e5788525f806102ad565b604186634e487b7160e01b5f525260245ffd5b8a513d5f823e3d90fd5b85610475826119ab565b505416610482828d611b2b565b52600161048e826119ab565b50015461049b8285611b2b565b52856104a7828d611b2b565b5116908d5180926370a0823160e01b8252898d83015281602460209384935afa90811561051a575f916104eb575b50600192506104e4828b611b2b565b520161020a565b905082813d8311610513575b61050181836119f7565b8101031261041f57600191515f6104d5565b503d6104f7565b8f513d5f823e3d90fd5b823461041f575f36600319011261041f57602090610540611e37565b9051908152f35b50503461041f578060031936011261041f576105616118db565b9060249182359367ffffffffffffffff851161041f573660238601121561041f57848101359061059082611a2d565b9161059d855193846119f7565b808352602096868885019260051b8201019136831161041f5787899201905b8382106108025750506009546001600160a01b039492506105e1915084163314611a45565b6002545f916105ee611b3f565b90600654915182036107c057811561079257905f915b81831061075957505050811561070c57806106925750945b8515610660575050847f0f6798a560793a54c3bcfe86a93cde1e73087d944c0ea20544137d4121396885916106518685612008565b8451938685521692a251908152f35b845162461bcd60e51b8152918201879052600d908201526c04d696e7420717479206973203609c1b6044820152606490fd5b61069a611e62565b509182156106bb576106b592916106b091611ae6565b611c97565b9461061c565b865162461bcd60e51b81528085018a90526026818a01527f546f74616c206c6971756964697479206d75737420626520677265617465722060448201526507468616e20360d41b6064820152608490fd5b855162461bcd60e51b81528084018990526022818901527f546f74616c2076616c7565206d7573742062652067726561746572207468616e604482015261020360f41b6064820152608490fd5b9091936107896001916107838961076f896119ab565b50541661077c8987611b2b565b519061213f565b90611e2a565b94019190610604565b875162461bcd60e51b81528086018b90526009818b0152684e6f2061737365747360b81b6044820152606490fd5b875162461bcd60e51b81528086018b90526017818b01527f496e76616c6964207265736572766573206c656e6774680000000000000000006044820152606490fd5b813581529082019082016105bc565b823461041f578060031936011261041f5760209061082d6118db565b6108356118f1565b9060018060a01b038091165f5260018452825f2091165f528252805f20549051908152f35b82843461041f57602036600319011261041f573560065481101561041f57610881906119ab565b50805460019091015491516001600160a01b0390911681526020810191909152604090f35b82843461041f57602036600319011261041f578035906108c4611e62565b80929150518310156108e5576020846108dd8585611b2b565b519051908152f35b606490602085519162461bcd60e51b83528201526013602482015272092dcecc2d8d2c840c2e6e6cae840d2dcc8caf606b1b6044820152fd5b823461041f575f36600319011261041f57600b5490516001600160a01b039091168152602090f35b823461041f575f36600319011261041f57600a5490516001600160a01b039091168152602090f35b823461041f575f36600319011261041f576020906008549051908152f35b823461041f57602036600319011261041f576020906105406109ac6118db565b611df2565b823461041f578060031936011261041f576020906109da6109d06118db565b602435903361207d565b5160018152f35b50503461041f575f36600319011261041f578051905f9280549060018260011c9160018416938415610ad6575b6020948585108114610ac357848852908115610aa15750600114610a48575b6103258686610a3e828b03836119f7565b51918291826118b1565b5f9081529295507f8a35acfbc15ff81a39ae7d344fd709f28e8600b4aa8c65c6b64bfe7fe36bd19b5b828410610a8e575050508261032594610a3e92820101945f610a2d565b8054868501880152928601928101610a71565b60ff191687860152505050151560051b8301019250610a3e826103255f610a2d565b602283634e487b7160e01b5f525260245ffd5b92607f1692610a0e565b823461041f575f36600319011261041f57602090610afc611d9c565b90519015158152f35b50503461041f576020908160031936011261041f57610b226118db565b6009546001600160a01b0390811691610b3c338414611a45565b305f525f8552835f2054958615610eec57600254968715610eba57600654610b6381611af9565b98601e8302838104601e03610ea757612710610b8191048094611ac5565b965f5b838110610dec5750505050305f525f875284865f205410610da957818785600c54168851928380926361d027b360e01b82525afa908115610d9f579088915f91610d65575b50875163a9059cbb60e01b81526001600160a01b03909116848201908152602081019390935291829081906040015b03815f305af1908115610d5b575f91610d25575b5015610cec573015610cd657305f525f8652845f205490848210610cab575083927fcc16f5dbb4873280815c1ee09dbd06736cffcc184412cf7a71a0fdb75d397ca59261032596958893305f525f855203865f205584600254036002555f86518681527fddf252ad1be2c89b69c2b068fc378daa952ba7f163c4a11628f55a4df523b3ef853092a385519485521692a251928284938452830190611907565b855163391434e360e21b81523091810191825260208201929092526040810185905281906060010390fd5b6024905f865191634b637e8f60e11b8352820152fd5b845162461bcd60e51b81529081018690526013602482015272119959481d1c985b9cd9995c8819985a5b1959606a1b6044820152606490fd5b90508681813d8311610d54575b610d3c81836119f7565b8101031261041f5751801515810361041f575f610c0c565b503d610d32565b86513d5f823e3d90fd5b82819392503d8311610d98575b610d7c81836119f7565b8101031261041f5751848116810361041f578790610bf8610bc9565b503d610d72565b87513d5f823e3d90fd5b855162461bcd60e51b8152808301889052601d60248201527f496e73756666696369656e742042414c554e49206c69717569646974790000006044820152606490fd5b610e2e8b89610dfa846119ab565b50548d5163a3e113fb60e01b8152308b8201908152929091166001600160a01b031660208301529283918291604090910190565b0381865afa908115610e9d578a8593928f925f91610e63575b506103be6001956106b0610e5c948794611ae6565b5201610b84565b94505050508b82813d8311610e96575b610e7d81836119f7565b8101031261041f5790518391908d908b906103be610e47565b503d610e73565b8b513d5f823e3d90fd5b601185634e487b7160e01b5f525260245ffd5b855162461bcd60e51b8152808301889052600c60248201526b4e6f206c697175696469747960a01b6044820152606490fd5b845162461bcd60e51b8152908101869052601c60248201527f5368617265206d7573742062652067726561746572207468616e2030000000006044820152606490fd5b823461041f575f36600319011261041f57610f48611cb5565b8251928391818301918352835180925260608301916020809501945f5b828110610f8057858061032587878382036020850152611907565b8651151585529581019587955093810193600101610f65565b823461041f575f36600319011261041f576020906007549051908152f35b823461041f575f36600319011261041f5760095490516001600160a01b039091168152602090f35b823461041f57602036600319011261041f576020906001600160a01b036110046118db565b165f525f8252805f20549051908152f35b82843461041f57608036600319011261041f576110306118db565b916110396118f1565b604435936001600160a01b0391606435838116919082900361041f5760026005541461121e576002600555838116938316928484146111db5787156111985790611087888261108f94611c14565b918291611df2565b1061115c57601e8102818104601e148215171561114957906127106110b5920490611ac5565b9485156110f857507fcd3829a3813dc3cdd188fd3d01dcf3268c16be2fdd2dd21d0665418816e460628460209781519081528789820152a4600160055551908152f35b608490602086519162461bcd60e51b8352820152602560248201527f416d6f756e7420746f2073656e64206d75737420626520677265617465722074604482015264068616e20360dc1b6064820152fd5b601187634e487b7160e01b5f525260245ffd5b845162461bcd60e51b81526020818801526016602482015275496e73756666696369656e74204c697175696469747960501b6044820152606490fd5b855162461bcd60e51b8152602081890181905260248201527f416d6f756e74206d7573742062652067726561746572207468616e207a65726f6044820152606490fd5b855162461bcd60e51b8152602081890152601a60248201527f43616e6e6f742073776170207468652073616d6520746f6b656e0000000000006044820152606490fd5b8451633ee5aeb560e01b81528690fd5b823461041f575f36600319011261041f5760065461124b81611af9565b905f5b81811061126a578351602080825281906103259082018661196f565b806112766001926119ab565b50828060a01b0390541661128a8286611b2b565b520161124e565b823461041f575f36600319011261041f5760209051601e8152f35b823461041f576020906105406112c13661193a565b91611c14565b823461041f575f36600319011261041f576103256112e3611e62565b83929192519384938452806020850152830190611907565b823461041f575f36600319011261041f576020905160128152f35b82843461041f576113263661193a565b6001600160a01b0383165f81815260016020818152888320338452905290879020549295939493908301611363575b6020876109da88888861207d565b8583106113cb5781156113b557331561139f57505f908152600160209081528682203383528152908690209185900390915582906109da611355565b6024905f885191634a1406b160e11b8352820152fd5b6024905f88519163e602df0560e01b8352820152fd5b8651637dc7a0d960e11b8152339181019182526020820193909352604081018690528291506060010390fd5b823461041f575f36600319011261041f5760065461141481611af9565b905f5b8181106114335783516020808252819061032590820186611907565b80600161144081936119ab565b50015461144d8286611b2b565b5201611417565b823461041f575f36600319011261041f57602090611470611e62565b509051908152f35b823461041f575f36600319011261041f576020906002549051908152f35b50503461041f578060031936011261041f576114b06118db565b602435903315611529576001600160a01b03169081156115135760209350335f5260018452825f20825f52845280835f205582519081527f8c5be1e5ebec7d5bd14f71427d1e84f3dd0314c0f7b2291e5b200ac8c7c3b925843392a35160018152f35b8251634a1406b160e11b81525f81860152602490fd5b825163e602df0560e01b81525f81860152602490fd5b823461041f575f36600319011261041f576103259061155c611b3f565b9051918291602083526020830190611907565b50503461041f576020908160031936011261041f5761158c6118db565b9260018060a01b03926115a484600954163314611a45565b6115af6101c3611d9c565b6115b7611e62565b929094600654956115c787611af9565b945f5b8881106117445750505081835f925f5b89811061171d5750600b541687519485809263313ce56760e01b82525afa928315610d5b575f936116e4575b5060ff670de0b6b3a7640000931683039283116116d157506116319161162b91611ae6565b94611af9565b925f5b835181101561167a578061164a60019286611b2b565b51611656575b01611634565b61166a6116638287611b2b565b5182611ef6565b6116748288611b2b565b52611650565b50610325919261168a8688612008565b7fa95ad530009c6f929555e70a66aadbeae7231e45756c5b028ca77fbaa376e73e8251858152806116bf339488830190611907565b0390a251928284938452830190611907565b601190634e487b7160e01b5f525260245ffd5b9092508381813d8311611716575b6116fc81836119f7565b8101031261041f575160ff8116810361041f57915f611606565b503d6116f2565b93611739919350600192506117328589611b2b565b5190611e2a565b9201839185916115da565b80612710611760600161175781956119ab565b50015486611ae6565b048061176c8386611b2b565b511061177a575b50016115ca565b611788906103b78386611b2b565b611792828a611b2b565b525f611773565b50503461041f575f36600319011261041f578051905f9260035460018160011c91600181168015611884575b6020948585108214611871575083875290811561185157506001146117f7575b505050610a3e826103259403836119f7565b60035f9081529295507fc2575a0e9e593c00f959f8c92f12db2869c3395a3b0502d05e2516446f71f85b5b82841061183e575050508261032594610a3e92820101946117e5565b8054868501880152928601928101611822565b60ff1916868501525050151560051b8301019250610a3e826103256117e5565b602290634e487b7160e01b5f525260245ffd5b92607f16926117c5565b3461041f575f36600319011261041f57600c546001600160a01b03168152602090f35b602060409281835280519182918282860152018484015e5f828201840152601f01601f1916010190565b600435906001600160a01b038216820361041f57565b602435906001600160a01b038216820361041f57565b9081518082526020808093019301915f5b828110611926575050505090565b835185529381019392810192600101611918565b606090600319011261041f576001600160a01b0390600435828116810361041f5791602435908116810361041f579060443590565b9081518082526020808093019301915f5b82811061198e575050505090565b83516001600160a01b031685529381019392810192600101611980565b6006548110156119e35760065f5260011b7ff652222313e28459528d920b65115c16c04f3efc82aaedc97be59f3f377c0d3f01905f90565b634e487b7160e01b5f52603260045260245ffd5b90601f8019910116810190811067ffffffffffffffff821117611a1957604052565b634e487b7160e01b5f52604160045260245ffd5b67ffffffffffffffff8111611a195760051b60200190565b15611a4c57565b60405162461bcd60e51b815260206004820152600e60248201526d4f6e6c792050657269706865727960901b6044820152606490fd5b15611a8957565b60405162461bcd60e51b8152602060048201526014602482015273149958985b185b98d9481b9bdd081b995959195960621b6044820152606490fd5b91908203918211611ad257565b634e487b7160e01b5f52601160045260245ffd5b81810292918115918404141715611ad257565b90611b0382611a2d565b611b1060405191826119f7565b8281528092611b21601f1991611a2d565b0190602036910137565b80518210156119e35760209160051b010190565b600954604051630fa6707960e21b8152306004820152905f90829060249082906001600160a01b03165afa908115611c09575f91611b7b575090565b90503d805f833e611b8c81836119f7565b810190602090818184031261041f5780519067ffffffffffffffff821161041f57019180601f8401121561041f578251611bc581611a2d565b93611bd360405195866119f7565b818552838086019260051b82010192831161041f578301905b828210611bfa575050505090565b81518152908301908301611bec565b6040513d5f823e3d90fd5b600c5460405163248391ff60e01b81526001600160a01b0392831660048201529282166024840152604483019390935290916020918391168180606481015b03915afa908115611c09575f91611c68575090565b90506020813d602011611c8f575b81611c83602093836119f7565b8101031261041f575190565b3d9150611c76565b8115611ca1570490565b634e487b7160e01b5f52601260045260245ffd5b611cbd611e62565b919060065490611ccc82611a2d565b91611cda60405193846119f7565b808352601f19611ce982611a2d565b01366020850137611cf981611af9565b945f5b828110611d0b57505050509190565b611d158183611b2b565b519061271091828102928184041490151715611ad257611d3785600193611c97565b611d40826119ab565b50830154839181811115611d755790611d5891611ac5565b611d62838b611b2b565b52611d6d8288611b2b565b525b01611cfc565b90611d809250611ac5565b611d8a828a611b2b565b525f611d968288611b2b565b52611d6f565b611da4611cb5565b5f5b8151811015611deb57611db98184611b2b565b51151580611dd6575b611dce57600101611da6565b505050600190565b50611de18183611b2b565b5160075410611dc2565b5050505f90565b60095460405163a3e113fb60e01b81523060048201526001600160a01b03928316602482015291602091839116818060448101611c53565b91908201809211611ad257565b611e3f611e62565b506002548015611e5c576106b0611e599260085490611ae6565b90565b50505f90565b600654905f611e7083611af9565b600b5490935f916001600160a01b03908116905b828410611e9357505050509190565b90919293611ed260019183611ea7886119ab565b505416611eb381611df2565b90868103611edc5750611ec6888b611b2b565b525b611732878a611b2b565b9401929190611e84565b90611ee69161213f565b611ef0888b611b2b565b52611ec8565b611eff816119ab565b5054600b546001600160a01b0390811692909182168314612002579181611f6f9492611f2c6020956119ab565b50541690600c5416916040519586948593849363248391ff60e01b85526004850160409194939294606082019560018060a01b0380921683521660208201520152565b03915afa908115611c09575f91611fd0575b508015611f8b5790565b60405162461bcd60e51b815260206004820152601b60248201527f496e76616c696420746f6b656e20616d6f756e7420746f2061646400000000006044820152606490fd5b90506020813d602011611ffa575b81611feb602093836119f7565b8101031261041f57515f611f81565b3d9150611fde565b50505090565b6001600160a01b0316908115612065577fddf252ad1be2c89b69c2b068fc378daa952ba7f163c4a11628f55a4df523b3ef6020826120495f94600254611e2a565b60025584845283825260408420818154019055604051908152a3565b60405163ec442f0560e01b81525f6004820152602490fd5b916001600160a01b03808416928315612127571692831561206557825f525f60205260405f2054908282106120f55750817fddf252ad1be2c89b69c2b068fc378daa952ba7f163c4a11628f55a4df523b3ef92602092855f525f84520360405f2055845f5260405f20818154019055604051908152a3565b60405163391434e360e21b81526001600160a01b03919091166004820152602481019190915260448101829052606490fd5b604051634b637e8f60e11b81525f6004820152602490fd5b600c54600b5460405163248391ff60e01b81526001600160a01b03938416600482015290831660248201526044810193909352602091839116818060648101611c5356fea2646970667358221220184aa282213110066a9558ca1cae88e104122e88c8cc0a50dc05a3c65cc0fac464736f6c63430008190033","opcodes":"PUSH1 0x80 DUP1 PUSH1 0x40 MSTORE CALLVALUE PUSH2 0x439 JUMPI PUSH2 0x2B1A DUP1 CODESIZE SUB DUP1 SWAP2 PUSH2 0x1C DUP3 DUP6 PUSH2 0x8FE JUMP JUMPDEST DUP4 CODECOPY DUP2 ADD PUSH1 0xA0 DUP3 DUP3 SUB SLT PUSH2 0x439 JUMPI PUSH2 0x33 DUP3 PUSH2 0x921 JUMP JUMPDEST PUSH1 0x20 DUP4 ADD MLOAD SWAP1 SWAP2 SWAP1 PUSH1 0x1 PUSH1 0x1 PUSH1 0x40 SHL SUB DUP2 GT PUSH2 0x439 JUMPI DUP4 ADD SWAP2 DUP2 PUSH1 0x1F DUP5 ADD SLT ISZERO PUSH2 0x439 JUMPI DUP3 MLOAD SWAP3 PUSH2 0x63 DUP5 PUSH2 0x935 JUMP JUMPDEST SWAP4 PUSH2 0x71 PUSH1 0x40 MLOAD SWAP6 DUP7 PUSH2 0x8FE JUMP JUMPDEST DUP1 DUP6 MSTORE PUSH1 0x20 DUP1 DUP7 ADD SWAP2 PUSH1 0x5 SHL DUP4 ADD ADD SWAP2 DUP5 DUP4 GT PUSH2 0x439 JUMPI PUSH1 0x20 ADD SWAP1 JUMPDEST DUP3 DUP3 LT PUSH2 0x8CB JUMPI POP POP POP PUSH1 0x40 DUP5 ADD MLOAD PUSH1 0x1 PUSH1 0x1 PUSH1 0x40 SHL SUB DUP2 GT PUSH2 0x439 JUMPI DUP5 ADD SWAP2 DUP1 PUSH1 0x1F DUP5 ADD SLT ISZERO PUSH2 0x439 JUMPI DUP3 MLOAD PUSH2 0xC3 DUP2 PUSH2 0x935 JUMP JUMPDEST SWAP4 PUSH2 0xD1 PUSH1 0x40 MLOAD SWAP6 DUP7 PUSH2 0x8FE JUMP JUMPDEST DUP2 DUP6 MSTORE PUSH1 0x20 DUP1 DUP7 ADD SWAP3 PUSH1 0x5 SHL DUP3 ADD ADD SWAP3 DUP4 GT PUSH2 0x439 JUMPI PUSH1 0x20 ADD SWAP1 JUMPDEST DUP3 DUP3 LT PUSH2 0x8BB JUMPI POP POP POP PUSH2 0x107 PUSH1 0x80 PUSH1 0x60 DUP7 ADD MLOAD SWAP6 ADD PUSH2 0x921 JUMP JUMPDEST PUSH1 0x40 MLOAD PUSH2 0x113 DUP2 PUSH2 0x8E3 JUMP JUMPDEST PUSH1 0x9 DUP2 MSTORE PUSH9 0x42616C756E69204C5 PUSH1 0xBC SHL PUSH1 0x20 DUP3 ADD MSTORE PUSH1 0x40 MLOAD SWAP1 PUSH2 0x136 DUP3 PUSH2 0x8E3 JUMP JUMPDEST PUSH1 0x9 DUP3 MSTORE PUSH9 0x42414C554E492D4C5 PUSH1 0xBC SHL PUSH1 0x20 DUP4 ADD MSTORE DUP1 MLOAD SWAP1 PUSH1 0x1 PUSH1 0x1 PUSH1 0x40 SHL SUB DUP3 GT PUSH2 0x496 JUMPI PUSH1 0x3 SLOAD SWAP1 PUSH1 0x1 DUP3 DUP2 SHR SWAP3 AND DUP1 ISZERO PUSH2 0x8B1 JUMPI JUMPDEST PUSH1 0x20 DUP4 LT EQ PUSH2 0x792 JUMPI DUP2 PUSH1 0x1F DUP5 SWAP4 GT PUSH2 0x843 JUMPI JUMPDEST POP PUSH1 0x20 SWAP1 PUSH1 0x1F DUP4 GT PUSH1 0x1 EQ PUSH2 0x7BB JUMPI PUSH0 SWAP3 PUSH2 0x7B0 JUMPI JUMPDEST POP POP DUP2 PUSH1 0x1 SHL SWAP2 PUSH0 NOT SWAP1 PUSH1 0x3 SHL SHR NOT AND OR PUSH1 0x3 SSTORE JUMPDEST DUP1 MLOAD SWAP1 PUSH1 0x1 PUSH1 0x1 PUSH1 0x40 SHL SUB DUP3 GT PUSH2 0x496 JUMPI PUSH1 0x4 SLOAD SWAP1 PUSH1 0x1 DUP3 DUP2 SHR SWAP3 AND DUP1 ISZERO PUSH2 0x7A6 JUMPI JUMPDEST PUSH1 0x20 DUP4 LT EQ PUSH2 0x792 JUMPI DUP2 PUSH1 0x1F DUP5 SWAP4 GT PUSH2 0x724 JUMPI JUMPDEST POP PUSH1 0x20 SWAP1 PUSH1 0x1F DUP4 GT PUSH1 0x1 EQ PUSH2 0x6A0 JUMPI PUSH0 SWAP3 PUSH2 0x695 JUMPI JUMPDEST POP POP DUP2 PUSH1 0x1 SHL SWAP2 PUSH0 NOT SWAP1 PUSH1 0x3 SHL SHR NOT AND OR PUSH1 0x4 SSTORE JUMPDEST PUSH1 0x1 PUSH1 0x5 SSTORE PUSH1 0x9 DUP1 SLOAD PUSH1 0x1 PUSH1 0x1 PUSH1 0xA0 SHL SUB NOT SWAP1 DUP2 AND PUSH1 0x1 PUSH1 0x1 PUSH1 0xA0 SHL SUB SWAP4 DUP5 AND OR SWAP1 SWAP2 SSTORE PUSH1 0xA DUP1 SLOAD DUP3 AND CALLER OR SWAP1 SSTORE PUSH1 0xC DUP1 SLOAD SWAP1 SWAP2 AND SWAP2 DUP4 AND SWAP2 SWAP1 SWAP2 OR SWAP1 SSTORE PUSH8 0xDE0B6B3A7640000 PUSH1 0x8 SSTORE DUP3 MLOAD DUP3 MLOAD SUB PUSH2 0x645 JUMPI PUSH0 JUMPDEST DUP4 MLOAD DUP2 LT ISZERO PUSH2 0x525 JUMPI PUSH1 0x1 PUSH1 0x1 PUSH1 0xA0 SHL SUB PUSH2 0x280 DUP3 DUP7 PUSH2 0x94C JUMP JUMPDEST MLOAD AND ISZERO PUSH2 0x4E0 JUMPI PUSH2 0x291 DUP2 DUP5 PUSH2 0x94C JUMP JUMPDEST MLOAD ISZERO PUSH2 0x4AA JUMPI PUSH1 0x1 PUSH1 0x1 PUSH1 0xA0 SHL SUB PUSH2 0x2A9 DUP3 DUP7 PUSH2 0x94C JUMP JUMPDEST MLOAD AND PUSH2 0x2B5 DUP3 DUP6 PUSH2 0x94C JUMP JUMPDEST MLOAD PUSH1 0x40 DUP1 MLOAD SWAP3 SWAP1 DUP4 ADD DUP1 DUP5 GT PUSH1 0x1 PUSH1 0x1 PUSH1 0x40 SHL SUB SWAP1 SWAP2 GT OR PUSH2 0x496 JUMPI PUSH1 0x40 DUP4 ADD PUSH1 0x40 MSTORE DUP3 MSTORE PUSH1 0x20 DUP3 ADD MSTORE PUSH1 0x6 SLOAD PUSH9 0x10000000000000000 DUP2 LT ISZERO PUSH2 0x496 JUMPI PUSH1 0x1 DUP2 ADD DUP1 PUSH1 0x6 SSTORE DUP2 LT ISZERO PUSH2 0x482 JUMPI PUSH1 0x6 PUSH0 MSTORE DUP2 MLOAD PUSH32 0xF652222313E28459528D920B65115C16C04F3EFC82AAEDC97BE59F3F377C0D3F PUSH1 0x1 SWAP3 SWAP1 SWAP3 SHL SWAP2 DUP3 ADD DUP1 SLOAD PUSH1 0x1 PUSH1 0x1 PUSH1 0xA0 SHL SUB SWAP3 DUP4 AND PUSH1 0x1 PUSH1 0x1 PUSH1 0xA0 SHL SUB NOT SWAP1 SWAP2 AND OR SWAP1 SSTORE PUSH1 0x20 SWAP1 SWAP3 ADD MLOAD PUSH32 0xF652222313E28459528D920B65115C16C04F3EFC82AAEDC97BE59F3F377C0D40 SWAP1 SWAP2 ADD SSTORE PUSH2 0x383 DUP3 DUP7 PUSH2 0x94C JUMP JUMPDEST MLOAD AND PUSH1 0x1 DUP1 PUSH1 0xA0 SHL SUB PUSH1 0xC SLOAD AND PUSH1 0x40 MLOAD PUSH4 0x6EB1769F PUSH1 0xE1 SHL DUP2 MSTORE ADDRESS PUSH1 0x4 DUP3 ADD MSTORE DUP2 PUSH1 0x24 DUP3 ADD MSTORE PUSH1 0x20 DUP2 PUSH1 0x44 DUP2 DUP7 GAS STATICCALL SWAP1 DUP2 ISZERO PUSH2 0x445 JUMPI PUSH0 SWAP2 PUSH2 0x450 JUMPI JUMPDEST POP ISZERO PUSH2 0x3D1 JUMPI JUMPDEST POP POP PUSH1 0x1 ADD PUSH2 0x265 JUMP JUMPDEST PUSH0 SWAP2 PUSH1 0x44 PUSH1 0x20 SWAP3 PUSH1 0x40 MLOAD SWAP5 DUP6 SWAP4 DUP5 SWAP3 PUSH4 0x95EA7B3 PUSH1 0xE0 SHL DUP5 MSTORE PUSH1 0x4 DUP5 ADD MSTORE DUP2 NOT PUSH1 0x24 DUP5 ADD MSTORE GAS CALL DUP1 ISZERO PUSH2 0x445 JUMPI PUSH2 0x409 JUMPI JUMPDEST DUP1 PUSH2 0x3C7 JUMP JUMPDEST PUSH1 0x20 DUP2 RETURNDATASIZE PUSH1 0x20 GT PUSH2 0x43D JUMPI JUMPDEST DUP2 PUSH2 0x422 PUSH1 0x20 SWAP4 DUP4 PUSH2 0x8FE JUMP JUMPDEST DUP2 ADD SUB SLT PUSH2 0x439 JUMPI MLOAD DUP1 ISZERO ISZERO SUB PUSH2 0x439 JUMPI PUSH0 PUSH2 0x403 JUMP JUMPDEST PUSH0 DUP1 REVERT JUMPDEST RETURNDATASIZE SWAP2 POP PUSH2 0x415 JUMP JUMPDEST PUSH1 0x40 MLOAD RETURNDATASIZE PUSH0 DUP3 RETURNDATACOPY RETURNDATASIZE SWAP1 REVERT JUMPDEST SWAP1 POP PUSH1 0x20 DUP2 RETURNDATASIZE PUSH1 0x20 GT PUSH2 0x47A JUMPI JUMPDEST DUP2 PUSH2 0x46B PUSH1 0x20 SWAP4 DUP4 PUSH2 0x8FE JUMP JUMPDEST DUP2 ADD SUB SLT PUSH2 0x439 JUMPI MLOAD PUSH0 PUSH2 0x3C0 JUMP JUMPDEST RETURNDATASIZE SWAP2 POP PUSH2 0x45E JUMP JUMPDEST PUSH4 0x4E487B71 PUSH1 0xE0 SHL PUSH0 MSTORE PUSH1 0x32 PUSH1 0x4 MSTORE PUSH1 0x24 PUSH0 REVERT JUMPDEST PUSH4 0x4E487B71 PUSH1 0xE0 SHL PUSH0 MSTORE PUSH1 0x41 PUSH1 0x4 MSTORE PUSH1 0x24 PUSH0 REVERT JUMPDEST PUSH1 0x40 MLOAD PUSH3 0x461BCD PUSH1 0xE5 SHL DUP2 MSTORE PUSH1 0x20 PUSH1 0x4 DUP3 ADD MSTORE PUSH1 0xE PUSH1 0x24 DUP3 ADD MSTORE PUSH14 0x125B9D985B1A59081DD95A59DA1D PUSH1 0x92 SHL PUSH1 0x44 DUP3 ADD MSTORE PUSH1 0x64 SWAP1 REVERT JUMPDEST PUSH1 0x40 MLOAD PUSH3 0x461BCD PUSH1 0xE5 SHL DUP2 MSTORE PUSH1 0x20 PUSH1 0x4 DUP3 ADD MSTORE PUSH1 0x15 PUSH1 0x24 DUP3 ADD MSTORE PUSH32 0x496E76616C696420617373657420616464726573730000000000000000000000 PUSH1 0x44 DUP3 ADD MSTORE PUSH1 0x64 SWAP1 REVERT JUMPDEST POP PUSH1 0x7 DUP5 SWAP1 SSTORE PUSH1 0x40 MLOAD PUSH4 0x89A30271 PUSH1 0xE0 SHL DUP2 MSTORE SWAP1 PUSH1 0x20 SWAP1 DUP3 SWAP1 PUSH1 0x4 SWAP1 DUP3 SWAP1 PUSH1 0x1 PUSH1 0x1 PUSH1 0xA0 SHL SUB AND GAS STATICCALL SWAP1 DUP2 ISZERO PUSH2 0x445 JUMPI PUSH0 SWAP2 PUSH2 0x60B JUMPI JUMPDEST POP PUSH1 0xB DUP1 SLOAD PUSH1 0x1 PUSH1 0x1 PUSH1 0xA0 SHL SUB NOT AND PUSH1 0x1 PUSH1 0x1 PUSH1 0xA0 SHL SUB SWAP3 SWAP1 SWAP3 AND SWAP2 SWAP1 SWAP2 OR SWAP1 SSTORE PUSH0 SWAP1 DUP2 JUMPDEST DUP2 MLOAD DUP4 LT ISZERO PUSH2 0x5BD JUMPI PUSH2 0x594 DUP4 DUP4 PUSH2 0x94C JUMP JUMPDEST MLOAD DUP2 ADD DUP1 SWAP2 GT PUSH2 0x5A9 JUMPI PUSH1 0x1 SWAP1 SWAP3 ADD SWAP2 PUSH2 0x581 JUMP JUMPDEST PUSH4 0x4E487B71 PUSH1 0xE0 SHL PUSH0 MSTORE PUSH1 0x11 PUSH1 0x4 MSTORE PUSH1 0x24 PUSH0 REVERT JUMPDEST PUSH2 0x2710 SUB PUSH2 0x5D4 JUMPI PUSH1 0x40 MLOAD PUSH2 0x21B9 SWAP1 DUP2 PUSH2 0x961 DUP3 CODECOPY RETURN JUMPDEST PUSH1 0x40 MLOAD PUSH3 0x461BCD PUSH1 0xE5 SHL DUP2 MSTORE PUSH1 0x20 PUSH1 0x4 DUP3 ADD MSTORE PUSH1 0xF PUSH1 0x24 DUP3 ADD MSTORE PUSH15 0x496E76616C69642077656967687473 PUSH1 0x88 SHL PUSH1 0x44 DUP3 ADD MSTORE PUSH1 0x64 SWAP1 REVERT JUMPDEST SWAP1 POP PUSH1 0x20 DUP2 RETURNDATASIZE PUSH1 0x20 GT PUSH2 0x63D JUMPI JUMPDEST DUP2 PUSH2 0x626 PUSH1 0x20 SWAP4 DUP4 PUSH2 0x8FE JUMP JUMPDEST DUP2 ADD SUB SLT PUSH2 0x439 JUMPI PUSH2 0x637 SWAP1 PUSH2 0x921 JUMP JUMPDEST DUP3 PUSH2 0x55C JUMP JUMPDEST RETURNDATASIZE SWAP2 POP PUSH2 0x619 JUMP JUMPDEST PUSH1 0x40 MLOAD PUSH3 0x461BCD PUSH1 0xE5 SHL DUP2 MSTORE PUSH1 0x20 PUSH1 0x4 DUP3 ADD MSTORE PUSH1 0x22 PUSH1 0x24 DUP3 ADD MSTORE PUSH32 0x41737365747320616E642077656967687473206C656E677468206D69736D6174 PUSH1 0x44 DUP3 ADD MSTORE PUSH2 0xC6D PUSH1 0xF3 SHL PUSH1 0x64 DUP3 ADD MSTORE PUSH1 0x84 SWAP1 REVERT JUMPDEST ADD MLOAD SWAP1 POP PUSH0 DUP1 PUSH2 0x1FB JUMP JUMPDEST PUSH1 0x4 PUSH0 SWAP1 DUP2 MSTORE PUSH32 0x8A35ACFBC15FF81A39AE7D344FD709F28E8600B4AA8C65C6B64BFE7FE36BD19B SWAP4 POP PUSH1 0x1F NOT DUP6 AND SWAP1 JUMPDEST DUP2 DUP2 LT PUSH2 0x70C JUMPI POP SWAP1 DUP5 PUSH1 0x1 SWAP6 SWAP5 SWAP4 SWAP3 LT PUSH2 0x6F4 JUMPI JUMPDEST POP POP POP DUP2 SHL ADD PUSH1 0x4 SSTORE PUSH2 0x210 JUMP JUMPDEST ADD MLOAD PUSH0 NOT PUSH1 0xF8 DUP5 PUSH1 0x3 SHL AND SHR NOT AND SWAP1 SSTORE PUSH0 DUP1 DUP1 PUSH2 0x6E6 JUMP JUMPDEST SWAP3 SWAP4 PUSH1 0x20 PUSH1 0x1 DUP2 SWAP3 DUP8 DUP7 ADD MLOAD DUP2 SSTORE ADD SWAP6 ADD SWAP4 ADD PUSH2 0x6D0 JUMP JUMPDEST PUSH1 0x4 PUSH0 MSTORE SWAP1 SWAP2 POP PUSH32 0x8A35ACFBC15FF81A39AE7D344FD709F28E8600B4AA8C65C6B64BFE7FE36BD19B PUSH1 0x1F DUP5 ADD PUSH1 0x5 SHR DUP2 ADD SWAP2 PUSH1 0x20 DUP6 LT PUSH2 0x788 JUMPI JUMPDEST SWAP1 PUSH1 0x1F DUP6 SWAP5 SWAP4 SWAP3 ADD PUSH1 0x5 SHR ADD SWAP1 JUMPDEST DUP2 DUP2 LT PUSH2 0x77A JUMPI POP PUSH2 0x1E5 JUMP JUMPDEST PUSH0 DUP2 SSTORE DUP5 SWAP4 POP PUSH1 0x1 ADD PUSH2 0x76D JUMP JUMPDEST SWAP1 SWAP2 POP DUP2 SWAP1 PUSH2 0x75F JUMP JUMPDEST PUSH4 0x4E487B71 PUSH1 0xE0 SHL PUSH0 MSTORE PUSH1 0x22 PUSH1 0x4 MSTORE PUSH1 0x24 PUSH0 REVERT JUMPDEST SWAP2 PUSH1 0x7F AND SWAP2 PUSH2 0x1D1 JUMP JUMPDEST ADD MLOAD SWAP1 POP PUSH0 DUP1 PUSH2 0x199 JUMP JUMPDEST PUSH1 0x3 PUSH0 SWAP1 DUP2 MSTORE SWAP4 POP PUSH32 0xC2575A0E9E593C00F959F8C92F12DB2869C3395A3B0502D05E2516446F71F85B SWAP2 SWAP1 JUMPDEST PUSH1 0x1F NOT DUP5 AND DUP6 LT PUSH2 0x828 JUMPI PUSH1 0x1 SWAP5 POP DUP4 PUSH1 0x1F NOT DUP2 AND LT PUSH2 0x810 JUMPI JUMPDEST POP POP POP DUP2 SHL ADD PUSH1 0x3 SSTORE PUSH2 0x1AE JUMP JUMPDEST ADD MLOAD PUSH0 NOT PUSH1 0xF8 DUP5 PUSH1 0x3 SHL AND SHR NOT AND SWAP1 SSTORE PUSH0 DUP1 DUP1 PUSH2 0x802 JUMP JUMPDEST DUP2 DUP2 ADD MLOAD DUP4 SSTORE PUSH1 0x20 SWAP5 DUP6 ADD SWAP5 PUSH1 0x1 SWAP1 SWAP4 ADD SWAP3 SWAP1 SWAP2 ADD SWAP1 PUSH2 0x7E7 JUMP JUMPDEST PUSH1 0x3 PUSH0 MSTORE SWAP1 SWAP2 POP PUSH32 0xC2575A0E9E593C00F959F8C92F12DB2869C3395A3B0502D05E2516446F71F85B PUSH1 0x1F DUP5 ADD PUSH1 0x5 SHR DUP2 ADD SWAP2 PUSH1 0x20 DUP6 LT PUSH2 0x8A7 JUMPI JUMPDEST SWAP1 PUSH1 0x1F DUP6 SWAP5 SWAP4 SWAP3 ADD PUSH1 0x5 SHR ADD SWAP1 JUMPDEST DUP2 DUP2 LT PUSH2 0x899 JUMPI POP PUSH2 0x183 JUMP JUMPDEST PUSH0 DUP2 SSTORE DUP5 SWAP4 POP PUSH1 0x1 ADD PUSH2 0x88C JUMP JUMPDEST SWAP1 SWAP2 POP DUP2 SWAP1 PUSH2 0x87E JUMP JUMPDEST SWAP2 PUSH1 0x7F AND SWAP2 PUSH2 0x16F JUMP JUMPDEST DUP2 MLOAD DUP2 MSTORE PUSH1 0x20 SWAP2 DUP3 ADD SWAP2 ADD PUSH2 0xEC JUMP JUMPDEST PUSH1 0x20 DUP1 SWAP2 PUSH2 0x8D8 DUP5 PUSH2 0x921 JUMP JUMPDEST DUP2 MSTORE ADD SWAP2 ADD SWAP1 PUSH2 0x8D JUMP JUMPDEST PUSH1 0x40 DUP2 ADD SWAP1 DUP2 LT PUSH1 0x1 PUSH1 0x1 PUSH1 0x40 SHL SUB DUP3 GT OR PUSH2 0x496 JUMPI PUSH1 0x40 MSTORE JUMP JUMPDEST PUSH1 0x1F SWAP1 SWAP2 ADD PUSH1 0x1F NOT AND DUP2 ADD SWAP1 PUSH1 0x1 PUSH1 0x1 PUSH1 0x40 SHL SUB DUP3 GT SWAP1 DUP3 LT OR PUSH2 0x496 JUMPI PUSH1 0x40 MSTORE JUMP JUMPDEST MLOAD SWAP1 PUSH1 0x1 PUSH1 0x1 PUSH1 0xA0 SHL SUB DUP3 AND DUP3 SUB PUSH2 0x439 JUMPI JUMP JUMPDEST PUSH1 0x1 PUSH1 0x1 PUSH1 0x40 SHL SUB DUP2 GT PUSH2 0x496 JUMPI PUSH1 0x5 SHL PUSH1 0x20 ADD SWAP1 JUMP JUMPDEST DUP1 MLOAD DUP3 LT ISZERO PUSH2 0x482 JUMPI PUSH1 0x20 SWAP2 PUSH1 0x5 SHL ADD ADD SWAP1 JUMP INVALID PUSH1 0x80 PUSH1 0x40 DUP2 DUP2 MSTORE PUSH1 0x4 SWAP2 DUP3 CALLDATASIZE LT ISZERO PUSH2 0x15 JUMPI PUSH0 DUP1 REVERT JUMPDEST PUSH0 SWAP1 PUSH0 CALLDATALOAD PUSH1 0xE0 SHR SWAP1 DUP2 PUSH4 0x1D22CCD EQ PUSH2 0x188E JUMPI POP DUP1 PUSH4 0x6FDDE03 EQ PUSH2 0x1799 JUMPI DUP1 PUSH4 0x723C999 EQ PUSH2 0x156F JUMPI DUP1 PUSH4 0x902F1AC EQ PUSH2 0x153F JUMPI DUP1 PUSH4 0x95EA7B3 EQ PUSH2 0x1496 JUMPI DUP1 PUSH4 0x18160DDD EQ PUSH2 0x1478 JUMPI DUP1 PUSH4 0x1A686502 EQ PUSH2 0x1454 JUMPI DUP1 PUSH4 0x22ACB867 EQ PUSH2 0x13F7 JUMPI DUP1 PUSH4 0x23B872DD EQ PUSH2 0x1316 JUMPI DUP1 PUSH4 0x313CE567 EQ PUSH2 0x12FB JUMPI DUP1 PUSH4 0x36BF6E39 EQ PUSH2 0x12C7 JUMPI DUP1 PUSH4 0x4AA06652 EQ PUSH2 0x12AC JUMPI DUP1 PUSH4 0x67A6C440 EQ PUSH2 0x1291 JUMPI DUP1 PUSH4 0x67E4AC2C EQ PUSH2 0x122E JUMPI DUP1 PUSH4 0x6E81221C EQ PUSH2 0x1015 JUMPI DUP1 PUSH4 0x70A08231 EQ PUSH2 0xFDF JUMPI DUP1 PUSH4 0x77AACE1A EQ PUSH2 0xFB7 JUMPI DUP1 PUSH4 0x7FEC8D38 EQ PUSH2 0xF99 JUMPI DUP1 PUSH4 0x89AB3532 EQ PUSH2 0xF2F JUMPI DUP1 PUSH4 0x89AFCB44 EQ PUSH2 0xB05 JUMPI DUP1 PUSH4 0x8A77C8DC EQ PUSH2 0xAE0 JUMPI DUP1 PUSH4 0x95D89B41 EQ PUSH2 0x9E1 JUMPI DUP1 PUSH4 0xA9059CBB EQ PUSH2 0x9B1 JUMPI DUP1 PUSH4 0xB2B55D70 EQ PUSH2 0x98C JUMPI DUP1 PUSH4 0xC2EE3A08 EQ PUSH2 0x96E JUMPI DUP1 PUSH4 0xC45A0155 EQ PUSH2 0x946 JUMPI DUP1 PUSH4 0xCDF456E1 EQ PUSH2 0x91E JUMPI DUP1 PUSH4 0xCF8FA764 EQ PUSH2 0x8A6 JUMPI DUP1 PUSH4 0xD14EF46D EQ PUSH2 0x85A JUMPI DUP1 PUSH4 0xDD62ED3E EQ PUSH2 0x811 JUMPI DUP1 PUSH4 0xDE836EBD EQ PUSH2 0x547 JUMPI DUP1 PUSH4 0xE73FAA2D EQ PUSH2 0x524 JUMPI PUSH4 0xF47B45E8 EQ PUSH2 0x18C JUMPI PUSH0 DUP1 REVERT JUMPDEST CALLVALUE PUSH2 0x41F JUMPI PUSH1 0x3 NOT PUSH0 CALLDATASIZE DUP3 ADD SLT PUSH2 0x41F JUMPI PUSH1 0x9 SLOAD PUSH1 0x1 PUSH1 0x1 PUSH1 0xA0 SHL SUB SWAP5 SWAP1 DUP6 AND SWAP2 PUSH2 0x1B8 CALLER DUP5 EQ PUSH2 0x1A45 JUMP JUMPDEST PUSH2 0x1C8 PUSH2 0x1C3 PUSH2 0x1D9C JUMP JUMPDEST PUSH2 0x1A82 JUMP JUMPDEST PUSH1 0x6 SLOAD SWAP4 PUSH2 0x1D5 DUP6 PUSH2 0x1AF9 JUMP JUMPDEST SWAP4 PUSH2 0x1DF DUP7 PUSH2 0x1AF9 JUMP JUMPDEST SWAP8 PUSH2 0x1E9 DUP8 PUSH2 0x1AF9 JUMP JUMPDEST SWAP3 PUSH2 0x1F3 DUP9 PUSH2 0x1AF9 JUMP JUMPDEST SWAP5 PUSH2 0x1FD DUP10 PUSH2 0x1AF9 JUMP JUMPDEST SWAP11 PUSH2 0x207 DUP11 PUSH2 0x1AF9 JUMP JUMPDEST SWAP10 PUSH0 JUMPDEST DUP2 DUP2 LT PUSH2 0x46B JUMPI POP POP PUSH2 0x21B PUSH2 0x1B3F JUMP JUMPDEST DUP5 PUSH1 0xC SLOAD AND SWAP2 PUSH1 0x7 SLOAD DUP7 PUSH1 0xB SLOAD AND DUP5 EXTCODESIZE ISZERO PUSH2 0x41F JUMPI DUP15 MLOAD PUSH4 0x3C2FDDC5 PUSH1 0xE2 SHL DUP2 MSTORE PUSH1 0xE0 DUP2 DUP15 ADD MSTORE DUP14 SWAP10 SWAP1 SWAP7 DUP8 SWAP6 DUP7 SWAP6 SWAP2 SWAP1 PUSH2 0x25A SWAP1 PUSH1 0xE4 DUP9 ADD SWAP1 PUSH2 0x1907 JUMP JUMPDEST SWAP12 PUSH1 0x24 SWAP13 DUP3 DUP9 DUP3 SUB ADD PUSH1 0x24 DUP10 ADD MSTORE PUSH2 0x271 SWAP2 PUSH2 0x196F JUMP JUMPDEST SWAP1 DUP7 DUP3 SUB ADD PUSH1 0x44 DUP8 ADD MSTORE PUSH2 0x284 SWAP2 PUSH2 0x1907 JUMP JUMPDEST SWAP3 PUSH1 0x64 DUP6 ADD MSTORE DUP1 PUSH1 0x84 DUP6 ADD MSTORE PUSH1 0xA4 DUP5 ADD MSTORE PUSH1 0xC4 DUP4 ADD MSTORE SUB DUP2 GAS PUSH0 SWAP5 DUP6 SWAP2 CALL DUP1 ISZERO PUSH2 0x461 JUMPI PUSH2 0x434 JUMPI JUMPDEST POP PUSH1 0x6 SLOAD PUSH1 0x9 SLOAD SWAP1 SWAP7 SWAP1 DUP4 AND SWAP3 DUP3 JUMPDEST DUP9 DUP2 LT PUSH2 0x329 JUMPI DUP13 DUP13 PUSH2 0x325 DUP14 DUP14 PUSH32 0x279B343370F587AF7FB675AE7C8578E9C8ABCC373236AD02C501A4771FE7A7B8 DUP5 MLOAD PUSH1 0x20 DUP2 MSTORE DUP1 PUSH2 0x301 CALLER SWAP5 PUSH1 0x20 DUP4 ADD SWAP1 PUSH2 0x196F JUMP JUMPDEST SUB SWAP1 LOG2 PUSH2 0x317 DUP4 MLOAD SWAP5 DUP5 DUP7 SWAP6 DUP7 MSTORE DUP6 ADD SWAP1 PUSH2 0x1907 JUMP JUMPDEST SWAP1 DUP4 DUP3 SUB PUSH1 0x20 DUP6 ADD MSTORE PUSH2 0x1907 JUMP JUMPDEST SUB SWAP1 RETURN JUMPDEST DUP2 PUSH2 0x334 DUP3 DUP13 PUSH2 0x1B2B JUMP JUMPDEST MLOAD AND DUP13 MLOAD DUP1 SWAP2 PUSH4 0x70A08231 PUSH1 0xE0 SHL DUP3 MSTORE DUP8 DUP7 DUP4 ADD MSTORE DUP2 DUP10 PUSH1 0x20 SWAP5 DUP6 SWAP4 GAS STATICCALL SWAP2 DUP3 ISZERO PUSH2 0x42A JUMPI DUP16 SWAP1 DUP11 SWAP5 SWAP4 DUP16 SWAP2 SWAP4 DUP14 SWAP5 DUP11 SWAP3 PUSH2 0x3E9 JUMPI JUMPDEST POP POP SWAP5 DUP5 SWAP2 PUSH1 0x1 SWAP7 PUSH2 0x37C DUP5 DUP8 PUSH2 0x1B2B JUMP JUMPDEST MSTORE PUSH2 0x387 DUP4 DUP7 PUSH2 0x1B2B JUMP JUMPDEST MLOAD PUSH2 0x392 DUP5 DUP5 PUSH2 0x1B2B JUMP JUMPDEST MLOAD LT ISZERO PUSH2 0x3CC JUMPI POP PUSH2 0x3BE SWAP1 PUSH2 0x3B7 DUP4 PUSH2 0x3B0 DUP2 PUSH2 0x3C4 SWAP8 SWAP9 PUSH2 0x1B2B JUMP JUMPDEST MLOAD SWAP3 PUSH2 0x1B2B JUMP JUMPDEST MLOAD SWAP1 PUSH2 0x1AC5 JUMP JUMPDEST SWAP3 PUSH2 0x1B2B JUMP JUMPDEST MSTORE JUMPDEST ADD PUSH2 0x2BC JUMP JUMPDEST SWAP4 PUSH2 0x3E3 SWAP4 POP PUSH2 0x3B7 DUP4 PUSH2 0x3B0 DUP2 PUSH2 0x3BE SWAP6 PUSH2 0x1B2B JUMP JUMPDEST MSTORE PUSH2 0x3C6 JUMP JUMPDEST SWAP5 POP SWAP6 POP POP POP POP DUP3 DUP2 RETURNDATASIZE DUP4 GT PUSH2 0x423 JUMPI JUMPDEST PUSH2 0x404 DUP2 DUP4 PUSH2 0x19F7 JUMP JUMPDEST DUP2 ADD SUB SLT PUSH2 0x41F JUMPI DUP9 DUP15 DUP3 DUP11 DUP16 PUSH1 0x1 SWAP7 MLOAD SWAP2 SWAP7 DUP2 SWAP4 POP PUSH2 0x36A JUMP JUMPDEST PUSH0 DUP1 REVERT JUMPDEST POP RETURNDATASIZE PUSH2 0x3FA JUMP JUMPDEST DUP15 MLOAD RETURNDATASIZE DUP9 DUP3 RETURNDATACOPY RETURNDATASIZE SWAP1 REVERT JUMPDEST SWAP1 POP PUSH8 0xFFFFFFFFFFFFFFFF DUP2 GT PUSH2 0x44E JUMPI DUP9 MSTORE PUSH0 DUP1 PUSH2 0x2AD JUMP JUMPDEST PUSH1 0x41 DUP7 PUSH4 0x4E487B71 PUSH1 0xE0 SHL PUSH0 MSTORE MSTORE PUSH1 0x24 PUSH0 REVERT JUMPDEST DUP11 MLOAD RETURNDATASIZE PUSH0 DUP3 RETURNDATACOPY RETURNDATASIZE SWAP1 REVERT JUMPDEST DUP6 PUSH2 0x475 DUP3 PUSH2 0x19AB JUMP JUMPDEST POP SLOAD AND PUSH2 0x482 DUP3 DUP14 PUSH2 0x1B2B JUMP JUMPDEST MSTORE PUSH1 0x1 PUSH2 0x48E DUP3 PUSH2 0x19AB JUMP JUMPDEST POP ADD SLOAD PUSH2 0x49B DUP3 DUP6 PUSH2 0x1B2B JUMP JUMPDEST MSTORE DUP6 PUSH2 0x4A7 DUP3 DUP14 PUSH2 0x1B2B JUMP JUMPDEST MLOAD AND SWAP1 DUP14 MLOAD DUP1 SWAP3 PUSH4 0x70A08231 PUSH1 0xE0 SHL DUP3 MSTORE DUP10 DUP14 DUP4 ADD MSTORE DUP2 PUSH1 0x24 PUSH1 0x20 SWAP4 DUP5 SWAP4 GAS STATICCALL SWAP1 DUP2 ISZERO PUSH2 0x51A JUMPI PUSH0 SWAP2 PUSH2 0x4EB JUMPI JUMPDEST POP PUSH1 0x1 SWAP3 POP PUSH2 0x4E4 DUP3 DUP12 PUSH2 0x1B2B JUMP JUMPDEST MSTORE ADD PUSH2 0x20A JUMP JUMPDEST SWAP1 POP DUP3 DUP2 RETURNDATASIZE DUP4 GT PUSH2 0x513 JUMPI JUMPDEST PUSH2 0x501 DUP2 DUP4 PUSH2 0x19F7 JUMP JUMPDEST DUP2 ADD SUB SLT PUSH2 0x41F JUMPI PUSH1 0x1 SWAP2 MLOAD PUSH0 PUSH2 0x4D5 JUMP JUMPDEST POP RETURNDATASIZE PUSH2 0x4F7 JUMP JUMPDEST DUP16 MLOAD RETURNDATASIZE PUSH0 DUP3 RETURNDATACOPY RETURNDATASIZE SWAP1 REVERT JUMPDEST DUP3 CALLVALUE PUSH2 0x41F JUMPI PUSH0 CALLDATASIZE PUSH1 0x3 NOT ADD SLT PUSH2 0x41F JUMPI PUSH1 0x20 SWAP1 PUSH2 0x540 PUSH2 0x1E37 JUMP JUMPDEST SWAP1 MLOAD SWAP1 DUP2 MSTORE RETURN JUMPDEST POP POP CALLVALUE PUSH2 0x41F JUMPI DUP1 PUSH1 0x3 NOT CALLDATASIZE ADD SLT PUSH2 0x41F JUMPI PUSH2 0x561 PUSH2 0x18DB JUMP JUMPDEST SWAP1 PUSH1 0x24 SWAP2 DUP3 CALLDATALOAD SWAP4 PUSH8 0xFFFFFFFFFFFFFFFF DUP6 GT PUSH2 0x41F JUMPI CALLDATASIZE PUSH1 0x23 DUP7 ADD SLT ISZERO PUSH2 0x41F JUMPI DUP5 DUP2 ADD CALLDATALOAD SWAP1 PUSH2 0x590 DUP3 PUSH2 0x1A2D JUMP JUMPDEST SWAP2 PUSH2 0x59D DUP6 MLOAD SWAP4 DUP5 PUSH2 0x19F7 JUMP JUMPDEST DUP1 DUP4 MSTORE PUSH1 0x20 SWAP7 DUP7 DUP9 DUP6 ADD SWAP3 PUSH1 0x5 SHL DUP3 ADD ADD SWAP2 CALLDATASIZE DUP4 GT PUSH2 0x41F JUMPI DUP8 DUP10 SWAP3 ADD SWAP1 JUMPDEST DUP4 DUP3 LT PUSH2 0x802 JUMPI POP POP PUSH1 0x9 SLOAD PUSH1 0x1 PUSH1 0x1 PUSH1 0xA0 SHL SUB SWAP5 SWAP3 POP PUSH2 0x5E1 SWAP2 POP DUP5 AND CALLER EQ PUSH2 0x1A45 JUMP JUMPDEST PUSH1 0x2 SLOAD PUSH0 SWAP2 PUSH2 0x5EE PUSH2 0x1B3F JUMP JUMPDEST SWAP1 PUSH1 0x6 SLOAD SWAP2 MLOAD DUP3 SUB PUSH2 0x7C0 JUMPI DUP2 ISZERO PUSH2 0x792 JUMPI SWAP1 PUSH0 SWAP2 JUMPDEST DUP2 DUP4 LT PUSH2 0x759 JUMPI POP POP POP DUP2 ISZERO PUSH2 0x70C JUMPI DUP1 PUSH2 0x692 JUMPI POP SWAP5 JUMPDEST DUP6 ISZERO PUSH2 0x660 JUMPI POP POP DUP5 PUSH32 0xF6798A560793A54C3BCFE86A93CDE1E73087D944C0EA20544137D4121396885 SWAP2 PUSH2 0x651 DUP7 DUP6 PUSH2 0x2008 JUMP JUMPDEST DUP5 MLOAD SWAP4 DUP7 DUP6 MSTORE AND SWAP3 LOG2 MLOAD SWAP1 DUP2 MSTORE RETURN JUMPDEST DUP5 MLOAD PUSH3 0x461BCD PUSH1 0xE5 SHL DUP2 MSTORE SWAP2 DUP3 ADD DUP8 SWAP1 MSTORE PUSH1 0xD SWAP1 DUP3 ADD MSTORE PUSH13 0x4D696E7420717479206973203 PUSH1 0x9C SHL PUSH1 0x44 DUP3 ADD MSTORE PUSH1 0x64 SWAP1 REVERT JUMPDEST PUSH2 0x69A PUSH2 0x1E62 JUMP JUMPDEST POP SWAP2 DUP3 ISZERO PUSH2 0x6BB JUMPI PUSH2 0x6B5 SWAP3 SWAP2 PUSH2 0x6B0 SWAP2 PUSH2 0x1AE6 JUMP JUMPDEST PUSH2 0x1C97 JUMP JUMPDEST SWAP5 PUSH2 0x61C JUMP JUMPDEST DUP7 MLOAD PUSH3 0x461BCD PUSH1 0xE5 SHL DUP2 MSTORE DUP1 DUP6 ADD DUP11 SWAP1 MSTORE PUSH1 0x26 DUP2 DUP11 ADD MSTORE PUSH32 0x546F74616C206C6971756964697479206D757374206265206772656174657220 PUSH1 0x44 DUP3 ADD MSTORE PUSH6 0x7468616E203 PUSH1 0xD4 SHL PUSH1 0x64 DUP3 ADD MSTORE PUSH1 0x84 SWAP1 REVERT JUMPDEST DUP6 MLOAD PUSH3 0x461BCD PUSH1 0xE5 SHL DUP2 MSTORE DUP1 DUP5 ADD DUP10 SWAP1 MSTORE PUSH1 0x22 DUP2 DUP10 ADD MSTORE PUSH32 0x546F74616C2076616C7565206D7573742062652067726561746572207468616E PUSH1 0x44 DUP3 ADD MSTORE PUSH2 0x203 PUSH1 0xF4 SHL PUSH1 0x64 DUP3 ADD MSTORE PUSH1 0x84 SWAP1 REVERT JUMPDEST SWAP1 SWAP2 SWAP4 PUSH2 0x789 PUSH1 0x1 SWAP2 PUSH2 0x783 DUP10 PUSH2 0x76F DUP10 PUSH2 0x19AB JUMP JUMPDEST POP SLOAD AND PUSH2 0x77C DUP10 DUP8 PUSH2 0x1B2B JUMP JUMPDEST MLOAD SWAP1 PUSH2 0x213F JUMP JUMPDEST SWAP1 PUSH2 0x1E2A JUMP JUMPDEST SWAP5 ADD SWAP2 SWAP1 PUSH2 0x604 JUMP JUMPDEST DUP8 MLOAD PUSH3 0x461BCD PUSH1 0xE5 SHL DUP2 MSTORE DUP1 DUP7 ADD DUP12 SWAP1 MSTORE PUSH1 0x9 DUP2 DUP12 ADD MSTORE PUSH9 0x4E6F20617373657473 PUSH1 0xB8 SHL PUSH1 0x44 DUP3 ADD MSTORE PUSH1 0x64 SWAP1 REVERT JUMPDEST DUP8 MLOAD PUSH3 0x461BCD PUSH1 0xE5 SHL DUP2 MSTORE DUP1 DUP7 ADD DUP12 SWAP1 MSTORE PUSH1 0x17 DUP2 DUP12 ADD MSTORE PUSH32 0x496E76616C6964207265736572766573206C656E677468000000000000000000 PUSH1 0x44 DUP3 ADD MSTORE PUSH1 0x64 SWAP1 REVERT JUMPDEST DUP2 CALLDATALOAD DUP2 MSTORE SWAP1 DUP3 ADD SWAP1 DUP3 ADD PUSH2 0x5BC JUMP JUMPDEST DUP3 CALLVALUE PUSH2 0x41F JUMPI DUP1 PUSH1 0x3 NOT CALLDATASIZE ADD SLT PUSH2 0x41F JUMPI PUSH1 0x20 SWAP1 PUSH2 0x82D PUSH2 0x18DB JUMP JUMPDEST PUSH2 0x835 PUSH2 0x18F1 JUMP JUMPDEST SWAP1 PUSH1 0x1 DUP1 PUSH1 0xA0 SHL SUB DUP1 SWAP2 AND PUSH0 MSTORE PUSH1 0x1 DUP5 MSTORE DUP3 PUSH0 KECCAK256 SWAP2 AND PUSH0 MSTORE DUP3 MSTORE DUP1 PUSH0 KECCAK256 SLOAD SWAP1 MLOAD SWAP1 DUP2 MSTORE RETURN JUMPDEST DUP3 DUP5 CALLVALUE PUSH2 0x41F JUMPI PUSH1 0x20 CALLDATASIZE PUSH1 0x3 NOT ADD SLT PUSH2 0x41F JUMPI CALLDATALOAD PUSH1 0x6 SLOAD DUP2 LT ISZERO PUSH2 0x41F JUMPI PUSH2 0x881 SWAP1 PUSH2 0x19AB JUMP JUMPDEST POP DUP1 SLOAD PUSH1 0x1 SWAP1 SWAP2 ADD SLOAD SWAP2 MLOAD PUSH1 0x1 PUSH1 0x1 PUSH1 0xA0 SHL SUB SWAP1 SWAP2 AND DUP2 MSTORE PUSH1 0x20 DUP2 ADD SWAP2 SWAP1 SWAP2 MSTORE PUSH1 0x40 SWAP1 RETURN JUMPDEST DUP3 DUP5 CALLVALUE PUSH2 0x41F JUMPI PUSH1 0x20 CALLDATASIZE PUSH1 0x3 NOT ADD SLT PUSH2 0x41F JUMPI DUP1 CALLDATALOAD SWAP1 PUSH2 0x8C4 PUSH2 0x1E62 JUMP JUMPDEST DUP1 SWAP3 SWAP2 POP MLOAD DUP4 LT ISZERO PUSH2 0x8E5 JUMPI PUSH1 0x20 DUP5 PUSH2 0x8DD DUP6 DUP6 PUSH2 0x1B2B JUMP JUMPDEST MLOAD SWAP1 MLOAD SWAP1 DUP2 MSTORE RETURN JUMPDEST PUSH1 0x64 SWAP1 PUSH1 0x20 DUP6 MLOAD SWAP2 PUSH3 0x461BCD PUSH1 0xE5 SHL DUP4 MSTORE DUP3 ADD MSTORE PUSH1 0x13 PUSH1 0x24 DUP3 ADD MSTORE PUSH19 0x92DCECC2D8D2C840C2E6E6CAE840D2DCC8CAF PUSH1 0x6B SHL PUSH1 0x44 DUP3 ADD MSTORE REVERT JUMPDEST DUP3 CALLVALUE PUSH2 0x41F JUMPI PUSH0 CALLDATASIZE PUSH1 0x3 NOT ADD SLT PUSH2 0x41F JUMPI PUSH1 0xB SLOAD SWAP1 MLOAD PUSH1 0x1 PUSH1 0x1 PUSH1 0xA0 SHL SUB SWAP1 SWAP2 AND DUP2 MSTORE PUSH1 0x20 SWAP1 RETURN JUMPDEST DUP3 CALLVALUE PUSH2 0x41F JUMPI PUSH0 CALLDATASIZE PUSH1 0x3 NOT ADD SLT PUSH2 0x41F JUMPI PUSH1 0xA SLOAD SWAP1 MLOAD PUSH1 0x1 PUSH1 0x1 PUSH1 0xA0 SHL SUB SWAP1 SWAP2 AND DUP2 MSTORE PUSH1 0x20 SWAP1 RETURN JUMPDEST DUP3 CALLVALUE PUSH2 0x41F JUMPI PUSH0 CALLDATASIZE PUSH1 0x3 NOT ADD SLT PUSH2 0x41F JUMPI PUSH1 0x20 SWAP1 PUSH1 0x8 SLOAD SWAP1 MLOAD SWAP1 DUP2 MSTORE RETURN JUMPDEST DUP3 CALLVALUE PUSH2 0x41F JUMPI PUSH1 0x20 CALLDATASIZE PUSH1 0x3 NOT ADD SLT PUSH2 0x41F JUMPI PUSH1 0x20 SWAP1 PUSH2 0x540 PUSH2 0x9AC PUSH2 0x18DB JUMP JUMPDEST PUSH2 0x1DF2 JUMP JUMPDEST DUP3 CALLVALUE PUSH2 0x41F JUMPI DUP1 PUSH1 0x3 NOT CALLDATASIZE ADD SLT PUSH2 0x41F JUMPI PUSH1 0x20 SWAP1 PUSH2 0x9DA PUSH2 0x9D0 PUSH2 0x18DB JUMP JUMPDEST PUSH1 0x24 CALLDATALOAD SWAP1 CALLER PUSH2 0x207D JUMP JUMPDEST MLOAD PUSH1 0x1 DUP2 MSTORE RETURN JUMPDEST POP POP CALLVALUE PUSH2 0x41F JUMPI PUSH0 CALLDATASIZE PUSH1 0x3 NOT ADD SLT PUSH2 0x41F JUMPI DUP1 MLOAD SWAP1 PUSH0 SWAP3 DUP1 SLOAD SWAP1 PUSH1 0x1 DUP3 PUSH1 0x1 SHR SWAP2 PUSH1 0x1 DUP5 AND SWAP4 DUP5 ISZERO PUSH2 0xAD6 JUMPI JUMPDEST PUSH1 0x20 SWAP5 DUP6 DUP6 LT DUP2 EQ PUSH2 0xAC3 JUMPI DUP5 DUP9 MSTORE SWAP1 DUP2 ISZERO PUSH2 0xAA1 JUMPI POP PUSH1 0x1 EQ PUSH2 0xA48 JUMPI JUMPDEST PUSH2 0x325 DUP7 DUP7 PUSH2 0xA3E DUP3 DUP12 SUB DUP4 PUSH2 0x19F7 JUMP JUMPDEST MLOAD SWAP2 DUP3 SWAP2 DUP3 PUSH2 0x18B1 JUMP JUMPDEST PUSH0 SWAP1 DUP2 MSTORE SWAP3 SWAP6 POP PUSH32 0x8A35ACFBC15FF81A39AE7D344FD709F28E8600B4AA8C65C6B64BFE7FE36BD19B JUMPDEST DUP3 DUP5 LT PUSH2 0xA8E JUMPI POP POP POP DUP3 PUSH2 0x325 SWAP5 PUSH2 0xA3E SWAP3 DUP3 ADD ADD SWAP5 PUSH0 PUSH2 0xA2D JUMP JUMPDEST DUP1 SLOAD DUP7 DUP6 ADD DUP9 ADD MSTORE SWAP3 DUP7 ADD SWAP3 DUP2 ADD PUSH2 0xA71 JUMP JUMPDEST PUSH1 0xFF NOT AND DUP8 DUP7 ADD MSTORE POP POP POP ISZERO ISZERO PUSH1 0x5 SHL DUP4 ADD ADD SWAP3 POP PUSH2 0xA3E DUP3 PUSH2 0x325 PUSH0 PUSH2 0xA2D JUMP JUMPDEST PUSH1 0x22 DUP4 PUSH4 0x4E487B71 PUSH1 0xE0 SHL PUSH0 MSTORE MSTORE PUSH1 0x24 PUSH0 REVERT JUMPDEST SWAP3 PUSH1 0x7F AND SWAP3 PUSH2 0xA0E JUMP JUMPDEST DUP3 CALLVALUE PUSH2 0x41F JUMPI PUSH0 CALLDATASIZE PUSH1 0x3 NOT ADD SLT PUSH2 0x41F JUMPI PUSH1 0x20 SWAP1 PUSH2 0xAFC PUSH2 0x1D9C JUMP JUMPDEST SWAP1 MLOAD SWAP1 ISZERO ISZERO DUP2 MSTORE RETURN JUMPDEST POP POP CALLVALUE PUSH2 0x41F JUMPI PUSH1 0x20 SWAP1 DUP2 PUSH1 0x3 NOT CALLDATASIZE ADD SLT PUSH2 0x41F JUMPI PUSH2 0xB22 PUSH2 0x18DB JUMP JUMPDEST PUSH1 0x9 SLOAD PUSH1 0x1 PUSH1 0x1 PUSH1 0xA0 SHL SUB SWAP1 DUP2 AND SWAP2 PUSH2 0xB3C CALLER DUP5 EQ PUSH2 0x1A45 JUMP JUMPDEST ADDRESS PUSH0 MSTORE PUSH0 DUP6 MSTORE DUP4 PUSH0 KECCAK256 SLOAD SWAP6 DUP7 ISZERO PUSH2 0xEEC JUMPI PUSH1 0x2 SLOAD SWAP7 DUP8 ISZERO PUSH2 0xEBA JUMPI PUSH1 0x6 SLOAD PUSH2 0xB63 DUP2 PUSH2 0x1AF9 JUMP JUMPDEST SWAP9 PUSH1 0x1E DUP4 MUL DUP4 DUP2 DIV PUSH1 0x1E SUB PUSH2 0xEA7 JUMPI PUSH2 0x2710 PUSH2 0xB81 SWAP2 DIV DUP1 SWAP5 PUSH2 0x1AC5 JUMP JUMPDEST SWAP7 PUSH0 JUMPDEST DUP4 DUP2 LT PUSH2 0xDEC JUMPI POP POP POP POP ADDRESS PUSH0 MSTORE PUSH0 DUP8 MSTORE DUP5 DUP7 PUSH0 KECCAK256 SLOAD LT PUSH2 0xDA9 JUMPI DUP2 DUP8 DUP6 PUSH1 0xC SLOAD AND DUP9 MLOAD SWAP3 DUP4 DUP1 SWAP3 PUSH4 0x61D027B3 PUSH1 0xE0 SHL DUP3 MSTORE GAS STATICCALL SWAP1 DUP2 ISZERO PUSH2 0xD9F JUMPI SWAP1 DUP9 SWAP2 PUSH0 SWAP2 PUSH2 0xD65 JUMPI JUMPDEST POP DUP8 MLOAD PUSH4 0xA9059CBB PUSH1 0xE0 SHL DUP2 MSTORE PUSH1 0x1 PUSH1 0x1 PUSH1 0xA0 SHL SUB SWAP1 SWAP2 AND DUP5 DUP3 ADD SWAP1 DUP2 MSTORE PUSH1 0x20 DUP2 ADD SWAP4 SWAP1 SWAP4 MSTORE SWAP2 DUP3 SWAP1 DUP2 SWAP1 PUSH1 0x40 ADD JUMPDEST SUB DUP2 PUSH0 ADDRESS GAS CALL SWAP1 DUP2 ISZERO PUSH2 0xD5B JUMPI PUSH0 SWAP2 PUSH2 0xD25 JUMPI JUMPDEST POP ISZERO PUSH2 0xCEC JUMPI ADDRESS ISZERO PUSH2 0xCD6 JUMPI ADDRESS PUSH0 MSTORE PUSH0 DUP7 MSTORE DUP5 PUSH0 KECCAK256 SLOAD SWAP1 DUP5 DUP3 LT PUSH2 0xCAB JUMPI POP DUP4 SWAP3 PUSH32 0xCC16F5DBB4873280815C1EE09DBD06736CFFCC184412CF7A71A0FDB75D397CA5 SWAP3 PUSH2 0x325 SWAP7 SWAP6 DUP9 SWAP4 ADDRESS PUSH0 MSTORE PUSH0 DUP6 MSTORE SUB DUP7 PUSH0 KECCAK256 SSTORE DUP5 PUSH1 0x2 SLOAD SUB PUSH1 0x2 SSTORE PUSH0 DUP7 MLOAD DUP7 DUP2 MSTORE PUSH32 0xDDF252AD1BE2C89B69C2B068FC378DAA952BA7F163C4A11628F55A4DF523B3EF DUP6 ADDRESS SWAP3 LOG3 DUP6 MLOAD SWAP5 DUP6 MSTORE AND SWAP3 LOG2 MLOAD SWAP3 DUP3 DUP5 SWAP4 DUP5 MSTORE DUP4 ADD SWAP1 PUSH2 0x1907 JUMP JUMPDEST DUP6 MLOAD PUSH4 0x391434E3 PUSH1 0xE2 SHL DUP2 MSTORE ADDRESS SWAP2 DUP2 ADD SWAP2 DUP3 MSTORE PUSH1 0x20 DUP3 ADD SWAP3 SWAP1 SWAP3 MSTORE PUSH1 0x40 DUP2 ADD DUP6 SWAP1 MSTORE DUP2 SWAP1 PUSH1 0x60 ADD SUB SWAP1 REVERT JUMPDEST PUSH1 0x24 SWAP1 PUSH0 DUP7 MLOAD SWAP2 PUSH4 0x4B637E8F PUSH1 0xE1 SHL DUP4 MSTORE DUP3 ADD MSTORE REVERT JUMPDEST DUP5 MLOAD PUSH3 0x461BCD PUSH1 0xE5 SHL DUP2 MSTORE SWAP1 DUP2 ADD DUP7 SWAP1 MSTORE PUSH1 0x13 PUSH1 0x24 DUP3 ADD MSTORE PUSH19 0x119959481D1C985B9CD9995C8819985A5B1959 PUSH1 0x6A SHL PUSH1 0x44 DUP3 ADD MSTORE PUSH1 0x64 SWAP1 REVERT JUMPDEST SWAP1 POP DUP7 DUP2 DUP2 RETURNDATASIZE DUP4 GT PUSH2 0xD54 JUMPI JUMPDEST PUSH2 0xD3C DUP2 DUP4 PUSH2 0x19F7 JUMP JUMPDEST DUP2 ADD SUB SLT PUSH2 0x41F JUMPI MLOAD DUP1 ISZERO ISZERO DUP2 SUB PUSH2 0x41F JUMPI PUSH0 PUSH2 0xC0C JUMP JUMPDEST POP RETURNDATASIZE PUSH2 0xD32 JUMP JUMPDEST DUP7 MLOAD RETURNDATASIZE PUSH0 DUP3 RETURNDATACOPY RETURNDATASIZE SWAP1 REVERT JUMPDEST DUP3 DUP2 SWAP4 SWAP3 POP RETURNDATASIZE DUP4 GT PUSH2 0xD98 JUMPI JUMPDEST PUSH2 0xD7C DUP2 DUP4 PUSH2 0x19F7 JUMP JUMPDEST DUP2 ADD SUB SLT PUSH2 0x41F JUMPI MLOAD DUP5 DUP2 AND DUP2 SUB PUSH2 0x41F JUMPI DUP8 SWAP1 PUSH2 0xBF8 PUSH2 0xBC9 JUMP JUMPDEST POP RETURNDATASIZE PUSH2 0xD72 JUMP JUMPDEST DUP8 MLOAD RETURNDATASIZE PUSH0 DUP3 RETURNDATACOPY RETURNDATASIZE SWAP1 REVERT JUMPDEST DUP6 MLOAD PUSH3 0x461BCD PUSH1 0xE5 SHL DUP2 MSTORE DUP1 DUP4 ADD DUP9 SWAP1 MSTORE PUSH1 0x1D PUSH1 0x24 DUP3 ADD MSTORE PUSH32 0x496E73756666696369656E742042414C554E49206C6971756964697479000000 PUSH1 0x44 DUP3 ADD MSTORE PUSH1 0x64 SWAP1 REVERT JUMPDEST PUSH2 0xE2E DUP12 DUP10 PUSH2 0xDFA DUP5 PUSH2 0x19AB JUMP JUMPDEST POP SLOAD DUP14 MLOAD PUSH4 0xA3E113FB PUSH1 0xE0 SHL DUP2 MSTORE ADDRESS DUP12 DUP3 ADD SWAP1 DUP2 MSTORE SWAP3 SWAP1 SWAP2 AND PUSH1 0x1 PUSH1 0x1 PUSH1 0xA0 SHL SUB AND PUSH1 0x20 DUP4 ADD MSTORE SWAP3 DUP4 SWAP2 DUP3 SWAP2 PUSH1 0x40 SWAP1 SWAP2 ADD SWAP1 JUMP JUMPDEST SUB DUP2 DUP7 GAS STATICCALL SWAP1 DUP2 ISZERO PUSH2 0xE9D JUMPI DUP11 DUP6 SWAP4 SWAP3 DUP16 SWAP3 PUSH0 SWAP2 PUSH2 0xE63 JUMPI JUMPDEST POP PUSH2 0x3BE PUSH1 0x1 SWAP6 PUSH2 0x6B0 PUSH2 0xE5C SWAP5 DUP8 SWAP5 PUSH2 0x1AE6 JUMP JUMPDEST MSTORE ADD PUSH2 0xB84 JUMP JUMPDEST SWAP5 POP POP POP POP DUP12 DUP3 DUP2 RETURNDATASIZE DUP4 GT PUSH2 0xE96 JUMPI JUMPDEST PUSH2 0xE7D DUP2 DUP4 PUSH2 0x19F7 JUMP JUMPDEST DUP2 ADD SUB SLT PUSH2 0x41F JUMPI SWAP1 MLOAD DUP4 SWAP2 SWAP1 DUP14 SWAP1 DUP12 SWAP1 PUSH2 0x3BE PUSH2 0xE47 JUMP JUMPDEST POP RETURNDATASIZE PUSH2 0xE73 JUMP JUMPDEST DUP12 MLOAD RETURNDATASIZE PUSH0 DUP3 RETURNDATACOPY RETURNDATASIZE SWAP1 REVERT JUMPDEST PUSH1 0x11 DUP6 PUSH4 0x4E487B71 PUSH1 0xE0 SHL PUSH0 MSTORE MSTORE PUSH1 0x24 PUSH0 REVERT JUMPDEST DUP6 MLOAD PUSH3 0x461BCD PUSH1 0xE5 SHL DUP2 MSTORE DUP1 DUP4 ADD DUP9 SWAP1 MSTORE PUSH1 0xC PUSH1 0x24 DUP3 ADD MSTORE PUSH12 0x4E6F206C6971756964697479 PUSH1 0xA0 SHL PUSH1 0x44 DUP3 ADD MSTORE PUSH1 0x64 SWAP1 REVERT JUMPDEST DUP5 MLOAD PUSH3 0x461BCD PUSH1 0xE5 SHL DUP2 MSTORE SWAP1 DUP2 ADD DUP7 SWAP1 MSTORE PUSH1 0x1C PUSH1 0x24 DUP3 ADD MSTORE PUSH32 0x5368617265206D7573742062652067726561746572207468616E203000000000 PUSH1 0x44 DUP3 ADD MSTORE PUSH1 0x64 SWAP1 REVERT JUMPDEST DUP3 CALLVALUE PUSH2 0x41F JUMPI PUSH0 CALLDATASIZE PUSH1 0x3 NOT ADD SLT PUSH2 0x41F JUMPI PUSH2 0xF48 PUSH2 0x1CB5 JUMP JUMPDEST DUP3 MLOAD SWAP3 DUP4 SWAP2 DUP2 DUP4 ADD SWAP2 DUP4 MSTORE DUP4 MLOAD DUP1 SWAP3 MSTORE PUSH1 0x60 DUP4 ADD SWAP2 PUSH1 0x20 DUP1 SWAP6 ADD SWAP5 PUSH0 JUMPDEST DUP3 DUP2 LT PUSH2 0xF80 JUMPI DUP6 DUP1 PUSH2 0x325 DUP8 DUP8 DUP4 DUP3 SUB PUSH1 0x20 DUP6 ADD MSTORE PUSH2 0x1907 JUMP JUMPDEST DUP7 MLOAD ISZERO ISZERO DUP6 MSTORE SWAP6 DUP2 ADD SWAP6 DUP8 SWAP6 POP SWAP4 DUP2 ADD SWAP4 PUSH1 0x1 ADD PUSH2 0xF65 JUMP JUMPDEST DUP3 CALLVALUE PUSH2 0x41F JUMPI PUSH0 CALLDATASIZE PUSH1 0x3 NOT ADD SLT PUSH2 0x41F JUMPI PUSH1 0x20 SWAP1 PUSH1 0x7 SLOAD SWAP1 MLOAD SWAP1 DUP2 MSTORE RETURN JUMPDEST DUP3 CALLVALUE PUSH2 0x41F JUMPI PUSH0 CALLDATASIZE PUSH1 0x3 NOT ADD SLT PUSH2 0x41F JUMPI PUSH1 0x9 SLOAD SWAP1 MLOAD PUSH1 0x1 PUSH1 0x1 PUSH1 0xA0 SHL SUB SWAP1 SWAP2 AND DUP2 MSTORE PUSH1 0x20 SWAP1 RETURN JUMPDEST DUP3 CALLVALUE PUSH2 0x41F JUMPI PUSH1 0x20 CALLDATASIZE PUSH1 0x3 NOT ADD SLT PUSH2 0x41F JUMPI PUSH1 0x20 SWAP1 PUSH1 0x1 PUSH1 0x1 PUSH1 0xA0 SHL SUB PUSH2 0x1004 PUSH2 0x18DB JUMP JUMPDEST AND PUSH0 MSTORE PUSH0 DUP3 MSTORE DUP1 PUSH0 KECCAK256 SLOAD SWAP1 MLOAD SWAP1 DUP2 MSTORE RETURN JUMPDEST DUP3 DUP5 CALLVALUE PUSH2 0x41F JUMPI PUSH1 0x80 CALLDATASIZE PUSH1 0x3 NOT ADD SLT PUSH2 0x41F JUMPI PUSH2 0x1030 PUSH2 0x18DB JUMP JUMPDEST SWAP2 PUSH2 0x1039 PUSH2 0x18F1 JUMP JUMPDEST PUSH1 0x44 CALLDATALOAD SWAP4 PUSH1 0x1 PUSH1 0x1 PUSH1 0xA0 SHL SUB SWAP2 PUSH1 0x64 CALLDATALOAD DUP4 DUP2 AND SWAP2 SWAP1 DUP3 SWAP1 SUB PUSH2 0x41F JUMPI PUSH1 0x2 PUSH1 0x5 SLOAD EQ PUSH2 0x121E JUMPI PUSH1 0x2 PUSH1 0x5 SSTORE DUP4 DUP2 AND SWAP4 DUP4 AND SWAP3 DUP5 DUP5 EQ PUSH2 0x11DB JUMPI DUP8 ISZERO PUSH2 0x1198 JUMPI SWAP1 PUSH2 0x1087 DUP9 DUP3 PUSH2 0x108F SWAP5 PUSH2 0x1C14 JUMP JUMPDEST SWAP2 DUP3 SWAP2 PUSH2 0x1DF2 JUMP JUMPDEST LT PUSH2 0x115C JUMPI PUSH1 0x1E DUP2 MUL DUP2 DUP2 DIV PUSH1 0x1E EQ DUP3 ISZERO OR ISZERO PUSH2 0x1149 JUMPI SWAP1 PUSH2 0x2710 PUSH2 0x10B5 SWAP3 DIV SWAP1 PUSH2 0x1AC5 JUMP JUMPDEST SWAP5 DUP6 ISZERO PUSH2 0x10F8 JUMPI POP PUSH32 0xCD3829A3813DC3CDD188FD3D01DCF3268C16BE2FDD2DD21D0665418816E46062 DUP5 PUSH1 0x20 SWAP8 DUP2 MLOAD SWAP1 DUP2 MSTORE DUP8 DUP10 DUP3 ADD MSTORE LOG4 PUSH1 0x1 PUSH1 0x5 SSTORE MLOAD SWAP1 DUP2 MSTORE RETURN JUMPDEST PUSH1 0x84 SWAP1 PUSH1 0x20 DUP7 MLOAD SWAP2 PUSH3 0x461BCD PUSH1 0xE5 SHL DUP4 MSTORE DUP3 ADD MSTORE PUSH1 0x25 PUSH1 0x24 DUP3 ADD MSTORE PUSH32 0x416D6F756E7420746F2073656E64206D75737420626520677265617465722074 PUSH1 0x44 DUP3 ADD MSTORE PUSH5 0x68616E203 PUSH1 0xDC SHL PUSH1 0x64 DUP3 ADD MSTORE REVERT JUMPDEST PUSH1 0x11 DUP8 PUSH4 0x4E487B71 PUSH1 0xE0 SHL PUSH0 MSTORE MSTORE PUSH1 0x24 PUSH0 REVERT JUMPDEST DUP5 MLOAD PUSH3 0x461BCD PUSH1 0xE5 SHL DUP2 MSTORE PUSH1 0x20 DUP2 DUP9 ADD MSTORE PUSH1 0x16 PUSH1 0x24 DUP3 ADD MSTORE PUSH22 0x496E73756666696369656E74204C6971756964697479 PUSH1 0x50 SHL PUSH1 0x44 DUP3 ADD MSTORE PUSH1 0x64 SWAP1 REVERT JUMPDEST DUP6 MLOAD PUSH3 0x461BCD PUSH1 0xE5 SHL DUP2 MSTORE PUSH1 0x20 DUP2 DUP10 ADD DUP2 SWAP1 MSTORE PUSH1 0x24 DUP3 ADD MSTORE PUSH32 0x416D6F756E74206D7573742062652067726561746572207468616E207A65726F PUSH1 0x44 DUP3 ADD MSTORE PUSH1 0x64 SWAP1 REVERT JUMPDEST DUP6 MLOAD PUSH3 0x461BCD PUSH1 0xE5 SHL DUP2 MSTORE PUSH1 0x20 DUP2 DUP10 ADD MSTORE PUSH1 0x1A PUSH1 0x24 DUP3 ADD MSTORE PUSH32 0x43616E6E6F742073776170207468652073616D6520746F6B656E000000000000 PUSH1 0x44 DUP3 ADD MSTORE PUSH1 0x64 SWAP1 REVERT JUMPDEST DUP5 MLOAD PUSH4 0x3EE5AEB5 PUSH1 0xE0 SHL DUP2 MSTORE DUP7 SWAP1 REVERT JUMPDEST DUP3 CALLVALUE PUSH2 0x41F JUMPI PUSH0 CALLDATASIZE PUSH1 0x3 NOT ADD SLT PUSH2 0x41F JUMPI PUSH1 0x6 SLOAD PUSH2 0x124B DUP2 PUSH2 0x1AF9 JUMP JUMPDEST SWAP1 PUSH0 JUMPDEST DUP2 DUP2 LT PUSH2 0x126A JUMPI DUP4 MLOAD PUSH1 0x20 DUP1 DUP3 MSTORE DUP2 SWAP1 PUSH2 0x325 SWAP1 DUP3 ADD DUP7 PUSH2 0x196F JUMP JUMPDEST DUP1 PUSH2 0x1276 PUSH1 0x1 SWAP3 PUSH2 0x19AB JUMP JUMPDEST POP DUP3 DUP1 PUSH1 0xA0 SHL SUB SWAP1 SLOAD AND PUSH2 0x128A DUP3 DUP7 PUSH2 0x1B2B JUMP JUMPDEST MSTORE ADD PUSH2 0x124E JUMP JUMPDEST DUP3 CALLVALUE PUSH2 0x41F JUMPI PUSH0 CALLDATASIZE PUSH1 0x3 NOT ADD SLT PUSH2 0x41F JUMPI PUSH1 0x20 SWAP1 MLOAD PUSH1 0x1E DUP2 MSTORE RETURN JUMPDEST DUP3 CALLVALUE PUSH2 0x41F JUMPI PUSH1 0x20 SWAP1 PUSH2 0x540 PUSH2 0x12C1 CALLDATASIZE PUSH2 0x193A JUMP JUMPDEST SWAP2 PUSH2 0x1C14 JUMP JUMPDEST DUP3 CALLVALUE PUSH2 0x41F JUMPI PUSH0 CALLDATASIZE PUSH1 0x3 NOT ADD SLT PUSH2 0x41F JUMPI PUSH2 0x325 PUSH2 0x12E3 PUSH2 0x1E62 JUMP JUMPDEST DUP4 SWAP3 SWAP2 SWAP3 MLOAD SWAP4 DUP5 SWAP4 DUP5 MSTORE DUP1 PUSH1 0x20 DUP6 ADD MSTORE DUP4 ADD SWAP1 PUSH2 0x1907 JUMP JUMPDEST DUP3 CALLVALUE PUSH2 0x41F JUMPI PUSH0 CALLDATASIZE PUSH1 0x3 NOT ADD SLT PUSH2 0x41F JUMPI PUSH1 0x20 SWAP1 MLOAD PUSH1 0x12 DUP2 MSTORE RETURN JUMPDEST DUP3 DUP5 CALLVALUE PUSH2 0x41F JUMPI PUSH2 0x1326 CALLDATASIZE PUSH2 0x193A JUMP JUMPDEST PUSH1 0x1 PUSH1 0x1 PUSH1 0xA0 SHL SUB DUP4 AND PUSH0 DUP2 DUP2 MSTORE PUSH1 0x1 PUSH1 0x20 DUP2 DUP2 MSTORE DUP9 DUP4 KECCAK256 CALLER DUP5 MSTORE SWAP1 MSTORE SWAP1 DUP8 SWAP1 KECCAK256 SLOAD SWAP3 SWAP6 SWAP4 SWAP5 SWAP4 SWAP1 DUP4 ADD PUSH2 0x1363 JUMPI JUMPDEST PUSH1 0x20 DUP8 PUSH2 0x9DA DUP9 DUP9 DUP9 PUSH2 0x207D JUMP JUMPDEST DUP6 DUP4 LT PUSH2 0x13CB JUMPI DUP2 ISZERO PUSH2 0x13B5 JUMPI CALLER ISZERO PUSH2 0x139F JUMPI POP PUSH0 SWAP1 DUP2 MSTORE PUSH1 0x1 PUSH1 0x20 SWAP1 DUP2 MSTORE DUP7 DUP3 KECCAK256 CALLER DUP4 MSTORE DUP2 MSTORE SWAP1 DUP7 SWAP1 KECCAK256 SWAP2 DUP6 SWAP1 SUB SWAP1 SWAP2 SSTORE DUP3 SWAP1 PUSH2 0x9DA PUSH2 0x1355 JUMP JUMPDEST PUSH1 0x24 SWAP1 PUSH0 DUP9 MLOAD SWAP2 PUSH4 0x4A1406B1 PUSH1 0xE1 SHL DUP4 MSTORE DUP3 ADD MSTORE REVERT JUMPDEST PUSH1 0x24 SWAP1 PUSH0 DUP9 MLOAD SWAP2 PUSH4 0xE602DF05 PUSH1 0xE0 SHL DUP4 MSTORE DUP3 ADD MSTORE REVERT JUMPDEST DUP7 MLOAD PUSH4 0x7DC7A0D9 PUSH1 0xE1 SHL DUP2 MSTORE CALLER SWAP2 DUP2 ADD SWAP2 DUP3 MSTORE PUSH1 0x20 DUP3 ADD SWAP4 SWAP1 SWAP4 MSTORE PUSH1 0x40 DUP2 ADD DUP7 SWAP1 MSTORE DUP3 SWAP2 POP PUSH1 0x60 ADD SUB SWAP1 REVERT JUMPDEST DUP3 CALLVALUE PUSH2 0x41F JUMPI PUSH0 CALLDATASIZE PUSH1 0x3 NOT ADD SLT PUSH2 0x41F JUMPI PUSH1 0x6 SLOAD PUSH2 0x1414 DUP2 PUSH2 0x1AF9 JUMP JUMPDEST SWAP1 PUSH0 JUMPDEST DUP2 DUP2 LT PUSH2 0x1433 JUMPI DUP4 MLOAD PUSH1 0x20 DUP1 DUP3 MSTORE DUP2 SWAP1 PUSH2 0x325 SWAP1 DUP3 ADD DUP7 PUSH2 0x1907 JUMP JUMPDEST DUP1 PUSH1 0x1 PUSH2 0x1440 DUP2 SWAP4 PUSH2 0x19AB JUMP JUMPDEST POP ADD SLOAD PUSH2 0x144D DUP3 DUP7 PUSH2 0x1B2B JUMP JUMPDEST MSTORE ADD PUSH2 0x1417 JUMP JUMPDEST DUP3 CALLVALUE PUSH2 0x41F JUMPI PUSH0 CALLDATASIZE PUSH1 0x3 NOT ADD SLT PUSH2 0x41F JUMPI PUSH1 0x20 SWAP1 PUSH2 0x1470 PUSH2 0x1E62 JUMP JUMPDEST POP SWAP1 MLOAD SWAP1 DUP2 MSTORE RETURN JUMPDEST DUP3 CALLVALUE PUSH2 0x41F JUMPI PUSH0 CALLDATASIZE PUSH1 0x3 NOT ADD SLT PUSH2 0x41F JUMPI PUSH1 0x20 SWAP1 PUSH1 0x2 SLOAD SWAP1 MLOAD SWAP1 DUP2 MSTORE RETURN JUMPDEST POP POP CALLVALUE PUSH2 0x41F JUMPI DUP1 PUSH1 0x3 NOT CALLDATASIZE ADD SLT PUSH2 0x41F JUMPI PUSH2 0x14B0 PUSH2 0x18DB JUMP JUMPDEST PUSH1 0x24 CALLDATALOAD SWAP1 CALLER ISZERO PUSH2 0x1529 JUMPI PUSH1 0x1 PUSH1 0x1 PUSH1 0xA0 SHL SUB AND SWAP1 DUP2 ISZERO PUSH2 0x1513 JUMPI PUSH1 0x20 SWAP4 POP CALLER PUSH0 MSTORE PUSH1 0x1 DUP5 MSTORE DUP3 PUSH0 KECCAK256 DUP3 PUSH0 MSTORE DUP5 MSTORE DUP1 DUP4 PUSH0 KECCAK256 SSTORE DUP3 MLOAD SWAP1 DUP2 MSTORE PUSH32 0x8C5BE1E5EBEC7D5BD14F71427D1E84F3DD0314C0F7B2291E5B200AC8C7C3B925 DUP5 CALLER SWAP3 LOG3 MLOAD PUSH1 0x1 DUP2 MSTORE RETURN JUMPDEST DUP3 MLOAD PUSH4 0x4A1406B1 PUSH1 0xE1 SHL DUP2 MSTORE PUSH0 DUP2 DUP7 ADD MSTORE PUSH1 0x24 SWAP1 REVERT JUMPDEST DUP3 MLOAD PUSH4 0xE602DF05 PUSH1 0xE0 SHL DUP2 MSTORE PUSH0 DUP2 DUP7 ADD MSTORE PUSH1 0x24 SWAP1 REVERT JUMPDEST DUP3 CALLVALUE PUSH2 0x41F JUMPI PUSH0 CALLDATASIZE PUSH1 0x3 NOT ADD SLT PUSH2 0x41F JUMPI PUSH2 0x325 SWAP1 PUSH2 0x155C PUSH2 0x1B3F JUMP JUMPDEST SWAP1 MLOAD SWAP2 DUP3 SWAP2 PUSH1 0x20 DUP4 MSTORE PUSH1 0x20 DUP4 ADD SWAP1 PUSH2 0x1907 JUMP JUMPDEST POP POP CALLVALUE PUSH2 0x41F JUMPI PUSH1 0x20 SWAP1 DUP2 PUSH1 0x3 NOT CALLDATASIZE ADD SLT PUSH2 0x41F JUMPI PUSH2 0x158C PUSH2 0x18DB JUMP JUMPDEST SWAP3 PUSH1 0x1 DUP1 PUSH1 0xA0 SHL SUB SWAP3 PUSH2 0x15A4 DUP5 PUSH1 0x9 SLOAD AND CALLER EQ PUSH2 0x1A45 JUMP JUMPDEST PUSH2 0x15AF PUSH2 0x1C3 PUSH2 0x1D9C JUMP JUMPDEST PUSH2 0x15B7 PUSH2 0x1E62 JUMP JUMPDEST SWAP3 SWAP1 SWAP5 PUSH1 0x6 SLOAD SWAP6 PUSH2 0x15C7 DUP8 PUSH2 0x1AF9 JUMP JUMPDEST SWAP5 PUSH0 JUMPDEST DUP9 DUP2 LT PUSH2 0x1744 JUMPI POP POP POP DUP2 DUP4 PUSH0 SWAP3 PUSH0 JUMPDEST DUP10 DUP2 LT PUSH2 0x171D JUMPI POP PUSH1 0xB SLOAD AND DUP8 MLOAD SWAP5 DUP6 DUP1 SWAP3 PUSH4 0x313CE567 PUSH1 0xE0 SHL DUP3 MSTORE GAS STATICCALL SWAP3 DUP4 ISZERO PUSH2 0xD5B JUMPI PUSH0 SWAP4 PUSH2 0x16E4 JUMPI JUMPDEST POP PUSH1 0xFF PUSH8 0xDE0B6B3A7640000 SWAP4 AND DUP4 SUB SWAP3 DUP4 GT PUSH2 0x16D1 JUMPI POP PUSH2 0x1631 SWAP2 PUSH2 0x162B SWAP2 PUSH2 0x1AE6 JUMP JUMPDEST SWAP5 PUSH2 0x1AF9 JUMP JUMPDEST SWAP3 PUSH0 JUMPDEST DUP4 MLOAD DUP2 LT ISZERO PUSH2 0x167A JUMPI DUP1 PUSH2 0x164A PUSH1 0x1 SWAP3 DUP7 PUSH2 0x1B2B JUMP JUMPDEST MLOAD PUSH2 0x1656 JUMPI JUMPDEST ADD PUSH2 0x1634 JUMP JUMPDEST PUSH2 0x166A PUSH2 0x1663 DUP3 DUP8 PUSH2 0x1B2B JUMP JUMPDEST MLOAD DUP3 PUSH2 0x1EF6 JUMP JUMPDEST PUSH2 0x1674 DUP3 DUP9 PUSH2 0x1B2B JUMP JUMPDEST MSTORE PUSH2 0x1650 JUMP JUMPDEST POP PUSH2 0x325 SWAP2 SWAP3 PUSH2 0x168A DUP7 DUP9 PUSH2 0x2008 JUMP JUMPDEST PUSH32 0xA95AD530009C6F929555E70A66AADBEAE7231E45756C5B028CA77FBAA376E73E DUP3 MLOAD DUP6 DUP2 MSTORE DUP1 PUSH2 0x16BF CALLER SWAP5 DUP9 DUP4 ADD SWAP1 PUSH2 0x1907 JUMP JUMPDEST SUB SWAP1 LOG2 MLOAD SWAP3 DUP3 DUP5 SWAP4 DUP5 MSTORE DUP4 ADD SWAP1 PUSH2 0x1907 JUMP JUMPDEST PUSH1 0x11 SWAP1 PUSH4 0x4E487B71 PUSH1 0xE0 SHL PUSH0 MSTORE MSTORE PUSH1 0x24 PUSH0 REVERT JUMPDEST SWAP1 SWAP3 POP DUP4 DUP2 DUP2 RETURNDATASIZE DUP4 GT PUSH2 0x1716 JUMPI JUMPDEST PUSH2 0x16FC DUP2 DUP4 PUSH2 0x19F7 JUMP JUMPDEST DUP2 ADD SUB SLT PUSH2 0x41F JUMPI MLOAD PUSH1 0xFF DUP2 AND DUP2 SUB PUSH2 0x41F JUMPI SWAP2 PUSH0 PUSH2 0x1606 JUMP JUMPDEST POP RETURNDATASIZE PUSH2 0x16F2 JUMP JUMPDEST SWAP4 PUSH2 0x1739 SWAP2 SWAP4 POP PUSH1 0x1 SWAP3 POP PUSH2 0x1732 DUP6 DUP10 PUSH2 0x1B2B JUMP JUMPDEST MLOAD SWAP1 PUSH2 0x1E2A JUMP JUMPDEST SWAP3 ADD DUP4 SWAP2 DUP6 SWAP2 PUSH2 0x15DA JUMP JUMPDEST DUP1 PUSH2 0x2710 PUSH2 0x1760 PUSH1 0x1 PUSH2 0x1757 DUP2 SWAP6 PUSH2 0x19AB JUMP JUMPDEST POP ADD SLOAD DUP7 PUSH2 0x1AE6 JUMP JUMPDEST DIV DUP1 PUSH2 0x176C DUP4 DUP7 PUSH2 0x1B2B JUMP JUMPDEST MLOAD LT PUSH2 0x177A JUMPI JUMPDEST POP ADD PUSH2 0x15CA JUMP JUMPDEST PUSH2 0x1788 SWAP1 PUSH2 0x3B7 DUP4 DUP7 PUSH2 0x1B2B JUMP JUMPDEST PUSH2 0x1792 DUP3 DUP11 PUSH2 0x1B2B JUMP JUMPDEST MSTORE PUSH0 PUSH2 0x1773 JUMP JUMPDEST POP POP CALLVALUE PUSH2 0x41F JUMPI PUSH0 CALLDATASIZE PUSH1 0x3 NOT ADD SLT PUSH2 0x41F JUMPI DUP1 MLOAD SWAP1 PUSH0 SWAP3 PUSH1 0x3 SLOAD PUSH1 0x1 DUP2 PUSH1 0x1 SHR SWAP2 PUSH1 0x1 DUP2 AND DUP1 ISZERO PUSH2 0x1884 JUMPI JUMPDEST PUSH1 0x20 SWAP5 DUP6 DUP6 LT DUP3 EQ PUSH2 0x1871 JUMPI POP DUP4 DUP8 MSTORE SWAP1 DUP2 ISZERO PUSH2 0x1851 JUMPI POP PUSH1 0x1 EQ PUSH2 0x17F7 JUMPI JUMPDEST POP POP POP PUSH2 0xA3E DUP3 PUSH2 0x325 SWAP5 SUB DUP4 PUSH2 0x19F7 JUMP JUMPDEST PUSH1 0x3 PUSH0 SWAP1 DUP2 MSTORE SWAP3 SWAP6 POP PUSH32 0xC2575A0E9E593C00F959F8C92F12DB2869C3395A3B0502D05E2516446F71F85B JUMPDEST DUP3 DUP5 LT PUSH2 0x183E JUMPI POP POP POP DUP3 PUSH2 0x325 SWAP5 PUSH2 0xA3E SWAP3 DUP3 ADD ADD SWAP5 PUSH2 0x17E5 JUMP JUMPDEST DUP1 SLOAD DUP7 DUP6 ADD DUP9 ADD MSTORE SWAP3 DUP7 ADD SWAP3 DUP2 ADD PUSH2 0x1822 JUMP JUMPDEST PUSH1 0xFF NOT AND DUP7 DUP6 ADD MSTORE POP POP ISZERO ISZERO PUSH1 0x5 SHL DUP4 ADD ADD SWAP3 POP PUSH2 0xA3E DUP3 PUSH2 0x325 PUSH2 0x17E5 JUMP JUMPDEST PUSH1 0x22 SWAP1 PUSH4 0x4E487B71 PUSH1 0xE0 SHL PUSH0 MSTORE MSTORE PUSH1 0x24 PUSH0 REVERT JUMPDEST SWAP3 PUSH1 0x7F AND SWAP3 PUSH2 0x17C5 JUMP JUMPDEST CALLVALUE PUSH2 0x41F JUMPI PUSH0 CALLDATASIZE PUSH1 0x3 NOT ADD SLT PUSH2 0x41F JUMPI PUSH1 0xC SLOAD PUSH1 0x1 PUSH1 0x1 PUSH1 0xA0 SHL SUB AND DUP2 MSTORE PUSH1 0x20 SWAP1 RETURN JUMPDEST PUSH1 0x20 PUSH1 0x40 SWAP3 DUP2 DUP4 MSTORE DUP1 MLOAD SWAP2 DUP3 SWAP2 DUP3 DUP3 DUP7 ADD MSTORE ADD DUP5 DUP5 ADD MCOPY PUSH0 DUP3 DUP3 ADD DUP5 ADD MSTORE PUSH1 0x1F ADD PUSH1 0x1F NOT AND ADD ADD SWAP1 JUMP JUMPDEST PUSH1 0x4 CALLDATALOAD SWAP1 PUSH1 0x1 PUSH1 0x1 PUSH1 0xA0 SHL SUB DUP3 AND DUP3 SUB PUSH2 0x41F JUMPI JUMP JUMPDEST PUSH1 0x24 CALLDATALOAD SWAP1 PUSH1 0x1 PUSH1 0x1 PUSH1 0xA0 SHL SUB DUP3 AND DUP3 SUB PUSH2 0x41F JUMPI JUMP JUMPDEST SWAP1 DUP2 MLOAD DUP1 DUP3 MSTORE PUSH1 0x20 DUP1 DUP1 SWAP4 ADD SWAP4 ADD SWAP2 PUSH0 JUMPDEST DUP3 DUP2 LT PUSH2 0x1926 JUMPI POP POP POP POP SWAP1 JUMP JUMPDEST DUP4 MLOAD DUP6 MSTORE SWAP4 DUP2 ADD SWAP4 SWAP3 DUP2 ADD SWAP3 PUSH1 0x1 ADD PUSH2 0x1918 JUMP JUMPDEST PUSH1 0x60 SWAP1 PUSH1 0x3 NOT ADD SLT PUSH2 0x41F JUMPI PUSH1 0x1 PUSH1 0x1 PUSH1 0xA0 SHL SUB SWAP1 PUSH1 0x4 CALLDATALOAD DUP3 DUP2 AND DUP2 SUB PUSH2 0x41F JUMPI SWAP2 PUSH1 0x24 CALLDATALOAD SWAP1 DUP2 AND DUP2 SUB PUSH2 0x41F JUMPI SWAP1 PUSH1 0x44 CALLDATALOAD SWAP1 JUMP JUMPDEST SWAP1 DUP2 MLOAD DUP1 DUP3 MSTORE PUSH1 0x20 DUP1 DUP1 SWAP4 ADD SWAP4 ADD SWAP2 PUSH0 JUMPDEST DUP3 DUP2 LT PUSH2 0x198E JUMPI POP POP POP POP SWAP1 JUMP JUMPDEST DUP4 MLOAD PUSH1 0x1 PUSH1 0x1 PUSH1 0xA0 SHL SUB AND DUP6 MSTORE SWAP4 DUP2 ADD SWAP4 SWAP3 DUP2 ADD SWAP3 PUSH1 0x1 ADD PUSH2 0x1980 JUMP JUMPDEST PUSH1 0x6 SLOAD DUP2 LT ISZERO PUSH2 0x19E3 JUMPI PUSH1 0x6 PUSH0 MSTORE PUSH1 0x1 SHL PUSH32 0xF652222313E28459528D920B65115C16C04F3EFC82AAEDC97BE59F3F377C0D3F ADD SWAP1 PUSH0 SWAP1 JUMP JUMPDEST PUSH4 0x4E487B71 PUSH1 0xE0 SHL PUSH0 MSTORE PUSH1 0x32 PUSH1 0x4 MSTORE PUSH1 0x24 PUSH0 REVERT JUMPDEST SWAP1 PUSH1 0x1F DUP1 NOT SWAP2 ADD AND DUP2 ADD SWAP1 DUP2 LT PUSH8 0xFFFFFFFFFFFFFFFF DUP3 GT OR PUSH2 0x1A19 JUMPI PUSH1 0x40 MSTORE JUMP JUMPDEST PUSH4 0x4E487B71 PUSH1 0xE0 SHL PUSH0 MSTORE PUSH1 0x41 PUSH1 0x4 MSTORE PUSH1 0x24 PUSH0 REVERT JUMPDEST PUSH8 0xFFFFFFFFFFFFFFFF DUP2 GT PUSH2 0x1A19 JUMPI PUSH1 0x5 SHL PUSH1 0x20 ADD SWAP1 JUMP JUMPDEST ISZERO PUSH2 0x1A4C JUMPI JUMP JUMPDEST PUSH1 0x40 MLOAD PUSH3 0x461BCD PUSH1 0xE5 SHL DUP2 MSTORE PUSH1 0x20 PUSH1 0x4 DUP3 ADD MSTORE PUSH1 0xE PUSH1 0x24 DUP3 ADD MSTORE PUSH14 0x4F6E6C7920506572697068657279 PUSH1 0x90 SHL PUSH1 0x44 DUP3 ADD MSTORE PUSH1 0x64 SWAP1 REVERT JUMPDEST ISZERO PUSH2 0x1A89 JUMPI JUMP JUMPDEST PUSH1 0x40 MLOAD PUSH3 0x461BCD PUSH1 0xE5 SHL DUP2 MSTORE PUSH1 0x20 PUSH1 0x4 DUP3 ADD MSTORE PUSH1 0x14 PUSH1 0x24 DUP3 ADD MSTORE PUSH20 0x149958985B185B98D9481B9BDD081B9959591959 PUSH1 0x62 SHL PUSH1 0x44 DUP3 ADD MSTORE PUSH1 0x64 SWAP1 REVERT JUMPDEST SWAP2 SWAP1 DUP3 SUB SWAP2 DUP3 GT PUSH2 0x1AD2 JUMPI JUMP JUMPDEST PUSH4 0x4E487B71 PUSH1 0xE0 SHL PUSH0 MSTORE PUSH1 0x11 PUSH1 0x4 MSTORE PUSH1 0x24 PUSH0 REVERT JUMPDEST DUP2 DUP2 MUL SWAP3 SWAP2 DUP2 ISZERO SWAP2 DUP5 DIV EQ OR ISZERO PUSH2 0x1AD2 JUMPI JUMP JUMPDEST SWAP1 PUSH2 0x1B03 DUP3 PUSH2 0x1A2D JUMP JUMPDEST PUSH2 0x1B10 PUSH1 0x40 MLOAD SWAP2 DUP3 PUSH2 0x19F7 JUMP JUMPDEST DUP3 DUP2 MSTORE DUP1 SWAP3 PUSH2 0x1B21 PUSH1 0x1F NOT SWAP2 PUSH2 0x1A2D JUMP JUMPDEST ADD SWAP1 PUSH1 0x20 CALLDATASIZE SWAP2 ADD CALLDATACOPY JUMP JUMPDEST DUP1 MLOAD DUP3 LT ISZERO PUSH2 0x19E3 JUMPI PUSH1 0x20 SWAP2 PUSH1 0x5 SHL ADD ADD SWAP1 JUMP JUMPDEST PUSH1 0x9 SLOAD PUSH1 0x40 MLOAD PUSH4 0xFA67079 PUSH1 0xE2 SHL DUP2 MSTORE ADDRESS PUSH1 0x4 DUP3 ADD MSTORE SWAP1 PUSH0 SWAP1 DUP3 SWAP1 PUSH1 0x24 SWAP1 DUP3 SWAP1 PUSH1 0x1 PUSH1 0x1 PUSH1 0xA0 SHL SUB AND GAS STATICCALL SWAP1 DUP2 ISZERO PUSH2 0x1C09 JUMPI PUSH0 SWAP2 PUSH2 0x1B7B JUMPI POP SWAP1 JUMP JUMPDEST SWAP1 POP RETURNDATASIZE DUP1 PUSH0 DUP4 RETURNDATACOPY PUSH2 0x1B8C DUP2 DUP4 PUSH2 0x19F7 JUMP JUMPDEST DUP2 ADD SWAP1 PUSH1 0x20 SWAP1 DUP2 DUP2 DUP5 SUB SLT PUSH2 0x41F JUMPI DUP1 MLOAD SWAP1 PUSH8 0xFFFFFFFFFFFFFFFF DUP3 GT PUSH2 0x41F JUMPI ADD SWAP2 DUP1 PUSH1 0x1F DUP5 ADD SLT ISZERO PUSH2 0x41F JUMPI DUP3 MLOAD PUSH2 0x1BC5 DUP2 PUSH2 0x1A2D JUMP JUMPDEST SWAP4 PUSH2 0x1BD3 PUSH1 0x40 MLOAD SWAP6 DUP7 PUSH2 0x19F7 JUMP JUMPDEST DUP2 DUP6 MSTORE DUP4 DUP1 DUP7 ADD SWAP3 PUSH1 0x5 SHL DUP3 ADD ADD SWAP3 DUP4 GT PUSH2 0x41F JUMPI DUP4 ADD SWAP1 JUMPDEST DUP3 DUP3 LT PUSH2 0x1BFA JUMPI POP POP POP POP SWAP1 JUMP JUMPDEST DUP2 MLOAD DUP2 MSTORE SWAP1 DUP4 ADD SWAP1 DUP4 ADD PUSH2 0x1BEC JUMP JUMPDEST PUSH1 0x40 MLOAD RETURNDATASIZE PUSH0 DUP3 RETURNDATACOPY RETURNDATASIZE SWAP1 REVERT JUMPDEST PUSH1 0xC SLOAD PUSH1 0x40 MLOAD PUSH4 0x248391FF PUSH1 0xE0 SHL DUP2 MSTORE PUSH1 0x1 PUSH1 0x1 PUSH1 0xA0 SHL SUB SWAP3 DUP4 AND PUSH1 0x4 DUP3 ADD MSTORE SWAP3 DUP3 AND PUSH1 0x24 DUP5 ADD MSTORE PUSH1 0x44 DUP4 ADD SWAP4 SWAP1 SWAP4 MSTORE SWAP1 SWAP2 PUSH1 0x20 SWAP2 DUP4 SWAP2 AND DUP2 DUP1 PUSH1 0x64 DUP2 ADD JUMPDEST SUB SWAP2 GAS STATICCALL SWAP1 DUP2 ISZERO PUSH2 0x1C09 JUMPI PUSH0 SWAP2 PUSH2 0x1C68 JUMPI POP SWAP1 JUMP JUMPDEST SWAP1 POP PUSH1 0x20 DUP2 RETURNDATASIZE PUSH1 0x20 GT PUSH2 0x1C8F JUMPI JUMPDEST DUP2 PUSH2 0x1C83 PUSH1 0x20 SWAP4 DUP4 PUSH2 0x19F7 JUMP JUMPDEST DUP2 ADD SUB SLT PUSH2 0x41F JUMPI MLOAD SWAP1 JUMP JUMPDEST RETURNDATASIZE SWAP2 POP PUSH2 0x1C76 JUMP JUMPDEST DUP2 ISZERO PUSH2 0x1CA1 JUMPI DIV SWAP1 JUMP JUMPDEST PUSH4 0x4E487B71 PUSH1 0xE0 SHL PUSH0 MSTORE PUSH1 0x12 PUSH1 0x4 MSTORE PUSH1 0x24 PUSH0 REVERT JUMPDEST PUSH2 0x1CBD PUSH2 0x1E62 JUMP JUMPDEST SWAP2 SWAP1 PUSH1 0x6 SLOAD SWAP1 PUSH2 0x1CCC DUP3 PUSH2 0x1A2D JUMP JUMPDEST SWAP2 PUSH2 0x1CDA PUSH1 0x40 MLOAD SWAP4 DUP5 PUSH2 0x19F7 JUMP JUMPDEST DUP1 DUP4 MSTORE PUSH1 0x1F NOT PUSH2 0x1CE9 DUP3 PUSH2 0x1A2D JUMP JUMPDEST ADD CALLDATASIZE PUSH1 0x20 DUP6 ADD CALLDATACOPY PUSH2 0x1CF9 DUP2 PUSH2 0x1AF9 JUMP JUMPDEST SWAP5 PUSH0 JUMPDEST DUP3 DUP2 LT PUSH2 0x1D0B JUMPI POP POP POP POP SWAP2 SWAP1 JUMP JUMPDEST PUSH2 0x1D15 DUP2 DUP4 PUSH2 0x1B2B JUMP JUMPDEST MLOAD SWAP1 PUSH2 0x2710 SWAP2 DUP3 DUP2 MUL SWAP3 DUP2 DUP5 DIV EQ SWAP1 ISZERO OR ISZERO PUSH2 0x1AD2 JUMPI PUSH2 0x1D37 DUP6 PUSH1 0x1 SWAP4 PUSH2 0x1C97 JUMP JUMPDEST PUSH2 0x1D40 DUP3 PUSH2 0x19AB JUMP JUMPDEST POP DUP4 ADD SLOAD DUP4 SWAP2 DUP2 DUP2 GT ISZERO PUSH2 0x1D75 JUMPI SWAP1 PUSH2 0x1D58 SWAP2 PUSH2 0x1AC5 JUMP JUMPDEST PUSH2 0x1D62 DUP4 DUP12 PUSH2 0x1B2B JUMP JUMPDEST MSTORE PUSH2 0x1D6D DUP3 DUP9 PUSH2 0x1B2B JUMP JUMPDEST MSTORE JUMPDEST ADD PUSH2 0x1CFC JUMP JUMPDEST SWAP1 PUSH2 0x1D80 SWAP3 POP PUSH2 0x1AC5 JUMP JUMPDEST PUSH2 0x1D8A DUP3 DUP11 PUSH2 0x1B2B JUMP JUMPDEST MSTORE PUSH0 PUSH2 0x1D96 DUP3 DUP9 PUSH2 0x1B2B JUMP JUMPDEST MSTORE PUSH2 0x1D6F JUMP JUMPDEST PUSH2 0x1DA4 PUSH2 0x1CB5 JUMP JUMPDEST PUSH0 JUMPDEST DUP2 MLOAD DUP2 LT ISZERO PUSH2 0x1DEB JUMPI PUSH2 0x1DB9 DUP2 DUP5 PUSH2 0x1B2B JUMP JUMPDEST MLOAD ISZERO ISZERO DUP1 PUSH2 0x1DD6 JUMPI JUMPDEST PUSH2 0x1DCE JUMPI PUSH1 0x1 ADD PUSH2 0x1DA6 JUMP JUMPDEST POP POP POP PUSH1 0x1 SWAP1 JUMP JUMPDEST POP PUSH2 0x1DE1 DUP2 DUP4 PUSH2 0x1B2B JUMP JUMPDEST MLOAD PUSH1 0x7 SLOAD LT PUSH2 0x1DC2 JUMP JUMPDEST POP POP POP PUSH0 SWAP1 JUMP JUMPDEST PUSH1 0x9 SLOAD PUSH1 0x40 MLOAD PUSH4 0xA3E113FB PUSH1 0xE0 SHL DUP2 MSTORE ADDRESS PUSH1 0x4 DUP3 ADD MSTORE PUSH1 0x1 PUSH1 0x1 PUSH1 0xA0 SHL SUB SWAP3 DUP4 AND PUSH1 0x24 DUP3 ADD MSTORE SWAP2 PUSH1 0x20 SWAP2 DUP4 SWAP2 AND DUP2 DUP1 PUSH1 0x44 DUP2 ADD PUSH2 0x1C53 JUMP JUMPDEST SWAP2 SWAP1 DUP3 ADD DUP1 SWAP3 GT PUSH2 0x1AD2 JUMPI JUMP JUMPDEST PUSH2 0x1E3F PUSH2 0x1E62 JUMP JUMPDEST POP PUSH1 0x2 SLOAD DUP1 ISZERO PUSH2 0x1E5C JUMPI PUSH2 0x6B0 PUSH2 0x1E59 SWAP3 PUSH1 0x8 SLOAD SWAP1 PUSH2 0x1AE6 JUMP JUMPDEST SWAP1 JUMP JUMPDEST POP POP PUSH0 SWAP1 JUMP JUMPDEST PUSH1 0x6 SLOAD SWAP1 PUSH0 PUSH2 0x1E70 DUP4 PUSH2 0x1AF9 JUMP JUMPDEST PUSH1 0xB SLOAD SWAP1 SWAP4 PUSH0 SWAP2 PUSH1 0x1 PUSH1 0x1 PUSH1 0xA0 SHL SUB SWAP1 DUP2 AND SWAP1 JUMPDEST DUP3 DUP5 LT PUSH2 0x1E93 JUMPI POP POP POP POP SWAP2 SWAP1 JUMP JUMPDEST SWAP1 SWAP2 SWAP3 SWAP4 PUSH2 0x1ED2 PUSH1 0x1 SWAP2 DUP4 PUSH2 0x1EA7 DUP9 PUSH2 0x19AB JUMP JUMPDEST POP SLOAD AND PUSH2 0x1EB3 DUP2 PUSH2 0x1DF2 JUMP JUMPDEST SWAP1 DUP7 DUP2 SUB PUSH2 0x1EDC JUMPI POP PUSH2 0x1EC6 DUP9 DUP12 PUSH2 0x1B2B JUMP JUMPDEST MSTORE JUMPDEST PUSH2 0x1732 DUP8 DUP11 PUSH2 0x1B2B JUMP JUMPDEST SWAP5 ADD SWAP3 SWAP2 SWAP1 PUSH2 0x1E84 JUMP JUMPDEST SWAP1 PUSH2 0x1EE6 SWAP2 PUSH2 0x213F JUMP JUMPDEST PUSH2 0x1EF0 DUP9 DUP12 PUSH2 0x1B2B JUMP JUMPDEST MSTORE PUSH2 0x1EC8 JUMP JUMPDEST PUSH2 0x1EFF DUP2 PUSH2 0x19AB JUMP JUMPDEST POP SLOAD PUSH1 0xB SLOAD PUSH1 0x1 PUSH1 0x1 PUSH1 0xA0 SHL SUB SWAP1 DUP2 AND SWAP3 SWAP1 SWAP2 DUP3 AND DUP4 EQ PUSH2 0x2002 JUMPI SWAP2 DUP2 PUSH2 0x1F6F SWAP5 SWAP3 PUSH2 0x1F2C PUSH1 0x20 SWAP6 PUSH2 0x19AB JUMP JUMPDEST POP SLOAD AND SWAP1 PUSH1 0xC SLOAD AND SWAP2 PUSH1 0x40 MLOAD SWAP6 DUP7 SWAP5 DUP6 SWAP4 DUP5 SWAP4 PUSH4 0x248391FF PUSH1 0xE0 SHL DUP6 MSTORE PUSH1 0x4 DUP6 ADD PUSH1 0x40 SWAP2 SWAP5 SWAP4 SWAP3 SWAP5 PUSH1 0x60 DUP3 ADD SWAP6 PUSH1 0x1 DUP1 PUSH1 0xA0 SHL SUB DUP1 SWAP3 AND DUP4 MSTORE AND PUSH1 0x20 DUP3 ADD MSTORE ADD MSTORE JUMP JUMPDEST SUB SWAP2 GAS STATICCALL SWAP1 DUP2 ISZERO PUSH2 0x1C09 JUMPI PUSH0 SWAP2 PUSH2 0x1FD0 JUMPI JUMPDEST POP DUP1 ISZERO PUSH2 0x1F8B JUMPI SWAP1 JUMP JUMPDEST PUSH1 0x40 MLOAD PUSH3 0x461BCD PUSH1 0xE5 SHL DUP2 MSTORE PUSH1 0x20 PUSH1 0x4 DUP3 ADD MSTORE PUSH1 0x1B PUSH1 0x24 DUP3 ADD MSTORE PUSH32 0x496E76616C696420746F6B656E20616D6F756E7420746F206164640000000000 PUSH1 0x44 DUP3 ADD MSTORE PUSH1 0x64 SWAP1 REVERT JUMPDEST SWAP1 POP PUSH1 0x20 DUP2 RETURNDATASIZE PUSH1 0x20 GT PUSH2 0x1FFA JUMPI JUMPDEST DUP2 PUSH2 0x1FEB PUSH1 0x20 SWAP4 DUP4 PUSH2 0x19F7 JUMP JUMPDEST DUP2 ADD SUB SLT PUSH2 0x41F JUMPI MLOAD PUSH0 PUSH2 0x1F81 JUMP JUMPDEST RETURNDATASIZE SWAP2 POP PUSH2 0x1FDE JUMP JUMPDEST POP POP POP SWAP1 JUMP JUMPDEST PUSH1 0x1 PUSH1 0x1 PUSH1 0xA0 SHL SUB AND SWAP1 DUP2 ISZERO PUSH2 0x2065 JUMPI PUSH32 0xDDF252AD1BE2C89B69C2B068FC378DAA952BA7F163C4A11628F55A4DF523B3EF PUSH1 0x20 DUP3 PUSH2 0x2049 PUSH0 SWAP5 PUSH1 0x2 SLOAD PUSH2 0x1E2A JUMP JUMPDEST PUSH1 0x2 SSTORE DUP5 DUP5 MSTORE DUP4 DUP3 MSTORE PUSH1 0x40 DUP5 KECCAK256 DUP2 DUP2 SLOAD ADD SWAP1 SSTORE PUSH1 0x40 MLOAD SWAP1 DUP2 MSTORE LOG3 JUMP JUMPDEST PUSH1 0x40 MLOAD PUSH4 0xEC442F05 PUSH1 0xE0 SHL DUP2 MSTORE PUSH0 PUSH1 0x4 DUP3 ADD MSTORE PUSH1 0x24 SWAP1 REVERT JUMPDEST SWAP2 PUSH1 0x1 PUSH1 0x1 PUSH1 0xA0 SHL SUB DUP1 DUP5 AND SWAP3 DUP4 ISZERO PUSH2 0x2127 JUMPI AND SWAP3 DUP4 ISZERO PUSH2 0x2065 JUMPI DUP3 PUSH0 MSTORE PUSH0 PUSH1 0x20 MSTORE PUSH1 0x40 PUSH0 KECCAK256 SLOAD SWAP1 DUP3 DUP3 LT PUSH2 0x20F5 JUMPI POP DUP2 PUSH32 0xDDF252AD1BE2C89B69C2B068FC378DAA952BA7F163C4A11628F55A4DF523B3EF SWAP3 PUSH1 0x20 SWAP3 DUP6 PUSH0 MSTORE PUSH0 DUP5 MSTORE SUB PUSH1 0x40 PUSH0 KECCAK256 SSTORE DUP5 PUSH0 MSTORE PUSH1 0x40 PUSH0 KECCAK256 DUP2 DUP2 SLOAD ADD SWAP1 SSTORE PUSH1 0x40 MLOAD SWAP1 DUP2 MSTORE LOG3 JUMP JUMPDEST PUSH1 0x40 MLOAD PUSH4 0x391434E3 PUSH1 0xE2 SHL DUP2 MSTORE PUSH1 0x1 PUSH1 0x1 PUSH1 0xA0 SHL SUB SWAP2 SWAP1 SWAP2 AND PUSH1 0x4 DUP3 ADD MSTORE PUSH1 0x24 DUP2 ADD SWAP2 SWAP1 SWAP2 MSTORE PUSH1 0x44 DUP2 ADD DUP3 SWAP1 MSTORE PUSH1 0x64 SWAP1 REVERT JUMPDEST PUSH1 0x40 MLOAD PUSH4 0x4B637E8F PUSH1 0xE1 SHL DUP2 MSTORE PUSH0 PUSH1 0x4 DUP3 ADD MSTORE PUSH1 0x24 SWAP1 REVERT JUMPDEST PUSH1 0xC SLOAD PUSH1 0xB SLOAD PUSH1 0x40 MLOAD PUSH4 0x248391FF PUSH1 0xE0 SHL DUP2 MSTORE PUSH1 0x1 PUSH1 0x1 PUSH1 0xA0 SHL SUB SWAP4 DUP5 AND PUSH1 0x4 DUP3 ADD MSTORE SWAP1 DUP4 AND PUSH1 0x24 DUP3 ADD MSTORE PUSH1 0x44 DUP2 ADD SWAP4 SWAP1 SWAP4 MSTORE PUSH1 0x20 SWAP2 DUP4 SWAP2 AND DUP2 DUP1 PUSH1 0x64 DUP2 ADD PUSH2 0x1C53 JUMP INVALID LOG2 PUSH5 0x6970667358 0x22 SLT KECCAK256 XOR BLOBBASEFEE LOG2 DUP3 0x21 BALANCE LT MOD PUSH11 0x9558CA1CAE88E104122E88 0xC8 0xCC EXP POP 0xDC SDIV LOG3 0xC6 TLOAD 0xC0 STATICCALL 0xC4 PUSH5 0x736F6C6343 STOP ADDMOD NOT STOP CALLER "},"gasEstimates":{"creation":{"codeDepositCost":"1726600","executionCost":"infinite","totalCost":"infinite"},"external":{"ONE()":"2804","SWAP_FEE_BPS()":"434","allowance(address,address)":"3210","approve(address,uint256)":"24411","assetInfos(uint256)":"9363","assetLiquidity(uint256)":"infinite","balanceOf(address)":"2755","baseAsset()":"2869","burn(address)":"infinite","computeTotalValuation()":"infinite","decimals()":"368","factory()":"2847","getAmountOut(address,address,uint256)":"infinite","getAssetReserve(address)":"infinite","getAssets()":"infinite","getDeviation()":"infinite","getReserves()":"infinite","getWeights()":"infinite","isRebalanceNeeded()":"infinite","liquidity()":"infinite","mint(address,uint256[])":"infinite","name()":"infinite","performRebalanceIfNeeded()":"infinite","periphery()":"2649","rebalanceWeights(address)":"infinite","rebalancer()":"2280","swap(address,address,uint256,address)":"infinite","symbol()":"infinite","totalSupply()":"2386","transfer(address,uint256)":"51246","transferFrom(address,address,uint256)":"75631","trigger()":"2650","unitPrice()":"infinite"},"internal":{"_calculateAmountsToAdd(uint256,uint256[] memory)":"infinite","_calculateLiquidity(uint256,uint256)":"infinite","_calculateTotalAddedLiquidity(uint256[] memory)":"infinite","_computeTotalValuation()":"infinite","_convertBaseToToken(address,uint256)":"infinite","_convertTokenToBase(address,uint256)":"infinite","_getTargetWeight(address)":"infinite","_performRebalanceIfNeeded()":"infinite","initializeAssets(address[] memory,uint256[] memory)":"infinite","max(uint8,uint8)":"infinite","min(uint8,uint8)":"infinite"}},"methodIdentifiers":{"ONE()":"c2ee3a08","SWAP_FEE_BPS()":"67a6c440","allowance(address,address)":"dd62ed3e","approve(address,uint256)":"095ea7b3","assetInfos(uint256)":"d14ef46d","assetLiquidity(uint256)":"cf8fa764","balanceOf(address)":"70a08231","baseAsset()":"cdf456e1","burn(address)":"89afcb44","computeTotalValuation()":"36bf6e39","decimals()":"313ce567","factory()":"c45a0155","getAmountOut(address,address,uint256)":"4aa06652","getAssetReserve(address)":"b2b55d70","getAssets()":"67e4ac2c","getDeviation()":"89ab3532","getReserves()":"0902f1ac","getWeights()":"22acb867","isRebalanceNeeded()":"8a77c8dc","liquidity()":"1a686502","mint(address,uint256[])":"de836ebd","name()":"06fdde03","performRebalanceIfNeeded()":"f47b45e8","periphery()":"77aace1a","rebalanceWeights(address)":"0723c999","rebalancer()":"01d22ccd","swap(address,address,uint256,address)":"6e81221c","symbol()":"95d89b41","totalSupply()":"18160ddd","transfer(address,uint256)":"a9059cbb","transferFrom(address,address,uint256)":"23b872dd","trigger()":"7fec8d38","unitPrice()":"e73faa2d"}},"storageLayout":{"storage":[{"astId":1159,"contract":"contracts/BaluniV1Pool.sol:BaluniV1Pool","label":"_balances","offset":0,"slot":"0","type":"t_mapping(t_address,t_uint256)"},{"astId":1165,"contract":"contracts/BaluniV1Pool.sol:BaluniV1Pool","label":"_allowances","offset":0,"slot":"1","type":"t_mapping(t_address,t_mapping(t_address,t_uint256))"},{"astId":1167,"contract":"contracts/BaluniV1Pool.sol:BaluniV1Pool","label":"_totalSupply","offset":0,"slot":"2","type":"t_uint256"},{"astId":1169,"contract":"contracts/BaluniV1Pool.sol:BaluniV1Pool","label":"_name","offset":0,"slot":"3","type":"t_string_storage"},{"astId":1171,"contract":"contracts/BaluniV1Pool.sol:BaluniV1Pool","label":"_symbol","offset":0,"slot":"4","type":"t_string_storage"},{"astId":2049,"contract":"contracts/BaluniV1Pool.sol:BaluniV1Pool","label":"_status","offset":0,"slot":"5","type":"t_uint256"},{"astId":2232,"contract":"contracts/BaluniV1Pool.sol:BaluniV1Pool","label":"assetInfos","offset":0,"slot":"6","type":"t_array(t_struct(AssetInfo)2252_storage)dyn_storage"},{"astId":2234,"contract":"contracts/BaluniV1Pool.sol:BaluniV1Pool","label":"trigger","offset":0,"slot":"7","type":"t_uint256"},{"astId":2236,"contract":"contracts/BaluniV1Pool.sol:BaluniV1Pool","label":"ONE","offset":0,"slot":"8","type":"t_uint256"},{"astId":2238,"contract":"contracts/BaluniV1Pool.sol:BaluniV1Pool","label":"periphery","offset":0,"slot":"9","type":"t_address"},{"astId":2240,"contract":"contracts/BaluniV1Pool.sol:BaluniV1Pool","label":"factory","offset":0,"slot":"10","type":"t_address"},{"astId":2245,"contract":"contracts/BaluniV1Pool.sol:BaluniV1Pool","label":"baseAsset","offset":0,"slot":"11","type":"t_address"},{"astId":2247,"contract":"contracts/BaluniV1Pool.sol:BaluniV1Pool","label":"rebalancer","offset":0,"slot":"12","type":"t_address"}],"types":{"t_address":{"encoding":"inplace","label":"address","numberOfBytes":"20"},"t_array(t_struct(AssetInfo)2252_storage)dyn_storage":{"base":"t_struct(AssetInfo)2252_storage","encoding":"dynamic_array","label":"struct BaluniV1Pool.AssetInfo[]","numberOfBytes":"32"},"t_mapping(t_address,t_mapping(t_address,t_uint256))":{"encoding":"mapping","key":"t_address","label":"mapping(address => mapping(address => uint256))","numberOfBytes":"32","value":"t_mapping(t_address,t_uint256)"},"t_mapping(t_address,t_uint256)":{"encoding":"mapping","key":"t_address","label":"mapping(address => uint256)","numberOfBytes":"32","value":"t_uint256"},"t_string_storage":{"encoding":"bytes","label":"string","numberOfBytes":"32"},"t_struct(AssetInfo)2252_storage":{"encoding":"inplace","label":"struct BaluniV1Pool.AssetInfo","members":[{"astId":2249,"contract":"contracts/BaluniV1Pool.sol:BaluniV1Pool","label":"asset","offset":0,"slot":"0","type":"t_address"},{"astId":2251,"contract":"contracts/BaluniV1Pool.sol:BaluniV1Pool","label":"weight","offset":0,"slot":"1","type":"t_uint256"}],"numberOfBytes":"64"},"t_uint256":{"encoding":"inplace","label":"uint256","numberOfBytes":"32"}}},"userdoc":{"kind":"user","methods":{"burn(address)":{"notice":"This function can only be called by the periphery contract.The pool tokens must have a balance greater than 0.The total supply of pool tokens must be greater than 0.The function calculates the amounts of each underlying asset to transfer based on the share of pool tokens being burned.A fee is deducted from the share of pool tokens being burned and transferred to the treasury address.The function checks if the pool has sufficient liquidity before performing any transfers.If any transfer fails, the function reverts the entire operation.After the transfers, the function updates the reserves of the pool.Emits a `Burn` event with the address and share of pool tokens burned."}},"version":1}}}}