{"contracts/registry/BaluniV1Registry.sol":{"BaluniV1Registry":{"abi":[{"inputs":[{"internalType":"address","name":"target","type":"address"}],"name":"AddressEmptyCode","type":"error"},{"inputs":[{"internalType":"address","name":"implementation","type":"address"}],"name":"ERC1967InvalidImplementation","type":"error"},{"inputs":[],"name":"ERC1967NonPayable","type":"error"},{"inputs":[],"name":"FailedInnerCall","type":"error"},{"inputs":[],"name":"InvalidInitialization","type":"error"},{"inputs":[],"name":"NotInitializing","type":"error"},{"inputs":[{"internalType":"address","name":"owner","type":"address"}],"name":"OwnableInvalidOwner","type":"error"},{"inputs":[{"internalType":"address","name":"account","type":"address"}],"name":"OwnableUnauthorizedAccount","type":"error"},{"inputs":[],"name":"UUPSUnauthorizedCallContext","type":"error"},{"inputs":[{"internalType":"bytes32","name":"slot","type":"bytes32"}],"name":"UUPSUnsupportedProxiableUUID","type":"error"},{"anonymous":false,"inputs":[{"indexed":false,"internalType":"uint64","name":"version","type":"uint64"}],"name":"Initialized","type":"event"},{"anonymous":false,"inputs":[{"indexed":true,"internalType":"address","name":"previousOwner","type":"address"},{"indexed":true,"internalType":"address","name":"newOwner","type":"address"}],"name":"OwnershipTransferred","type":"event"},{"anonymous":false,"inputs":[{"indexed":true,"internalType":"address","name":"implementation","type":"address"}],"name":"Upgraded","type":"event"},{"inputs":[],"name":"UPGRADE_INTERFACE_VERSION","outputs":[{"internalType":"string","name":"","type":"string"}],"stateMutability":"view","type":"function"},{"inputs":[],"name":"USDC","outputs":[{"internalType":"address","name":"","type":"address"}],"stateMutability":"view","type":"function"},{"inputs":[],"name":"WNATIVE","outputs":[{"internalType":"address","name":"","type":"address"}],"stateMutability":"view","type":"function"},{"inputs":[],"name":"_1inchSpotAgg","outputs":[{"internalType":"address","name":"","type":"address"}],"stateMutability":"view","type":"function"},{"inputs":[],"name":"_BPS_BASE","outputs":[{"internalType":"uint256","name":"","type":"uint256"}],"stateMutability":"view","type":"function"},{"inputs":[],"name":"_BPS_FEE","outputs":[{"internalType":"uint256","name":"","type":"uint256"}],"stateMutability":"view","type":"function"},{"inputs":[],"name":"_MAX_BPS_FEE","outputs":[{"internalType":"uint256","name":"","type":"uint256"}],"stateMutability":"view","type":"function"},{"inputs":[],"name":"_REBALANCE_THRESHOLD","outputs":[{"internalType":"uint256","name":"","type":"uint256"}],"stateMutability":"view","type":"function"},{"inputs":[],"name":"baluniAgentFactory","outputs":[{"internalType":"address","name":"","type":"address"}],"stateMutability":"view","type":"function"},{"inputs":[],"name":"baluniDCAVaultRegistry","outputs":[{"internalType":"address","name":"","type":"address"}],"stateMutability":"view","type":"function"},{"inputs":[],"name":"baluniOracle","outputs":[{"internalType":"address","name":"","type":"address"}],"stateMutability":"view","type":"function"},{"inputs":[],"name":"baluniPoolPeriphery","outputs":[{"internalType":"address","name":"","type":"address"}],"stateMutability":"view","type":"function"},{"inputs":[],"name":"baluniPoolRegistry","outputs":[{"internalType":"address","name":"","type":"address"}],"stateMutability":"view","type":"function"},{"inputs":[],"name":"baluniRebalancer","outputs":[{"internalType":"address","name":"","type":"address"}],"stateMutability":"view","type":"function"},{"inputs":[],"name":"baluniRegistry","outputs":[{"internalType":"address","name":"","type":"address"}],"stateMutability":"view","type":"function"},{"inputs":[],"name":"baluniRouter","outputs":[{"internalType":"address","name":"","type":"address"}],"stateMutability":"view","type":"function"},{"inputs":[],"name":"baluniSwapper","outputs":[{"internalType":"address","name":"","type":"address"}],"stateMutability":"view","type":"function"},{"inputs":[],"name":"baluniYearnVaultRegistry","outputs":[{"internalType":"address","name":"","type":"address"}],"stateMutability":"view","type":"function"},{"inputs":[],"name":"get1inchSpotAgg","outputs":[{"internalType":"address","name":"","type":"address"}],"stateMutability":"view","type":"function"},{"inputs":[],"name":"getBPS_BASE","outputs":[{"internalType":"uint256","name":"","type":"uint256"}],"stateMutability":"view","type":"function"},{"inputs":[],"name":"getBPS_FEE","outputs":[{"internalType":"uint256","name":"","type":"uint256"}],"stateMutability":"view","type":"function"},{"inputs":[],"name":"getBaluniAgentFactory","outputs":[{"internalType":"address","name":"","type":"address"}],"stateMutability":"view","type":"function"},{"inputs":[],"name":"getBaluniDCAVaultRegistry","outputs":[{"internalType":"address","name":"","type":"address"}],"stateMutability":"view","type":"function"},{"inputs":[],"name":"getBaluniOracle","outputs":[{"internalType":"address","name":"","type":"address"}],"stateMutability":"view","type":"function"},{"inputs":[],"name":"getBaluniPoolPeriphery","outputs":[{"internalType":"address","name":"","type":"address"}],"stateMutability":"view","type":"function"},{"inputs":[],"name":"getBaluniPoolRegistry","outputs":[{"internalType":"address","name":"","type":"address"}],"stateMutability":"view","type":"function"},{"inputs":[],"name":"getBaluniRebalancer","outputs":[{"internalType":"address","name":"","type":"address"}],"stateMutability":"view","type":"function"},{"inputs":[],"name":"getBaluniRegistry","outputs":[{"internalType":"address","name":"","type":"address"}],"stateMutability":"view","type":"function"},{"inputs":[],"name":"getBaluniRouter","outputs":[{"internalType":"address","name":"","type":"address"}],"stateMutability":"view","type":"function"},{"inputs":[],"name":"getBaluniSwapper","outputs":[{"internalType":"address","name":"","type":"address"}],"stateMutability":"view","type":"function"},{"inputs":[],"name":"getBaluniYearnVaultRegistry","outputs":[{"internalType":"address","name":"","type":"address"}],"stateMutability":"view","type":"function"},{"inputs":[],"name":"getMAX_BPS_FEE","outputs":[{"internalType":"uint256","name":"","type":"uint256"}],"stateMutability":"view","type":"function"},{"inputs":[],"name":"getREBALANCE_THRESHOLD","outputs":[{"internalType":"uint256","name":"","type":"uint256"}],"stateMutability":"view","type":"function"},{"inputs":[],"name":"getStaticOracle","outputs":[{"internalType":"address","name":"","type":"address"}],"stateMutability":"view","type":"function"},{"inputs":[],"name":"getTreasury","outputs":[{"internalType":"address","name":"","type":"address"}],"stateMutability":"view","type":"function"},{"inputs":[],"name":"getUSDC","outputs":[{"internalType":"address","name":"","type":"address"}],"stateMutability":"view","type":"function"},{"inputs":[],"name":"getUniswapFactory","outputs":[{"internalType":"address","name":"","type":"address"}],"stateMutability":"view","type":"function"},{"inputs":[],"name":"getUniswapQuoter","outputs":[{"internalType":"address","name":"","type":"address"}],"stateMutability":"view","type":"function"},{"inputs":[],"name":"getUniswapRouter","outputs":[{"internalType":"address","name":"","type":"address"}],"stateMutability":"view","type":"function"},{"inputs":[],"name":"getWNATIVE","outputs":[{"internalType":"address","name":"","type":"address"}],"stateMutability":"view","type":"function"},{"inputs":[],"name":"initialize","outputs":[],"stateMutability":"nonpayable","type":"function"},{"inputs":[],"name":"owner","outputs":[{"internalType":"address","name":"","type":"address"}],"stateMutability":"view","type":"function"},{"inputs":[],"name":"proxiableUUID","outputs":[{"internalType":"bytes32","name":"","type":"bytes32"}],"stateMutability":"view","type":"function"},{"inputs":[],"name":"renounceOwnership","outputs":[],"stateMutability":"nonpayable","type":"function"},{"inputs":[{"internalType":"address","name":"__1inchSpotAgg","type":"address"}],"name":"set1inchSpotAgg","outputs":[],"stateMutability":"nonpayable","type":"function"},{"inputs":[{"internalType":"uint256","name":"__BPS_FEE","type":"uint256"}],"name":"setBPS_FEE","outputs":[],"stateMutability":"nonpayable","type":"function"},{"inputs":[{"internalType":"address","name":"_baluniAgentFactory","type":"address"}],"name":"setBaluniAgentFactory","outputs":[],"stateMutability":"nonpayable","type":"function"},{"inputs":[{"internalType":"address","name":"_baluniDCAVaultRegistry","type":"address"}],"name":"setBaluniDCAVaultRegistry","outputs":[],"stateMutability":"nonpayable","type":"function"},{"inputs":[{"internalType":"address","name":"_baluniOracle","type":"address"}],"name":"setBaluniOracle","outputs":[],"stateMutability":"nonpayable","type":"function"},{"inputs":[{"internalType":"address","name":"_baluniPoolPeriphery","type":"address"}],"name":"setBaluniPoolPeriphery","outputs":[],"stateMutability":"nonpayable","type":"function"},{"inputs":[{"internalType":"address","name":"_baluniPoolRegistry","type":"address"}],"name":"setBaluniPoolRegistry","outputs":[],"stateMutability":"nonpayable","type":"function"},{"inputs":[{"internalType":"address","name":"_baluniRebalancer","type":"address"}],"name":"setBaluniRebalancer","outputs":[],"stateMutability":"nonpayable","type":"function"},{"inputs":[{"internalType":"address","name":"_baluniRegistry","type":"address"}],"name":"setBaluniRegistry","outputs":[],"stateMutability":"nonpayable","type":"function"},{"inputs":[{"internalType":"address","name":"_baluniRouter","type":"address"}],"name":"setBaluniRouter","outputs":[],"stateMutability":"nonpayable","type":"function"},{"inputs":[{"internalType":"address","name":"_baluniSwapper","type":"address"}],"name":"setBaluniSwapper","outputs":[],"stateMutability":"nonpayable","type":"function"},{"inputs":[{"internalType":"address","name":"_baluniYearnVaultRegistry","type":"address"}],"name":"setBaluniYearnVaultRegistry","outputs":[],"stateMutability":"nonpayable","type":"function"},{"inputs":[{"internalType":"uint256","name":"__REBALANCE_THRESHOLD","type":"uint256"}],"name":"setREBALANCE_THRESHOLD","outputs":[],"stateMutability":"nonpayable","type":"function"},{"inputs":[{"internalType":"address","name":"_staticOracle","type":"address"}],"name":"setStaticOracle","outputs":[],"stateMutability":"nonpayable","type":"function"},{"inputs":[{"internalType":"address","name":"_treasury","type":"address"}],"name":"setTreasury","outputs":[],"stateMutability":"nonpayable","type":"function"},{"inputs":[{"internalType":"address","name":"_USDC","type":"address"}],"name":"setUSDC","outputs":[],"stateMutability":"nonpayable","type":"function"},{"inputs":[{"internalType":"address","name":"_uniswapFactory","type":"address"}],"name":"setUniswapFactory","outputs":[],"stateMutability":"nonpayable","type":"function"},{"inputs":[{"internalType":"address","name":"_uniswapQuoter","type":"address"}],"name":"setUniswapQuoter","outputs":[],"stateMutability":"nonpayable","type":"function"},{"inputs":[{"internalType":"address","name":"_uniswapRouter","type":"address"}],"name":"setUniswapRouter","outputs":[],"stateMutability":"nonpayable","type":"function"},{"inputs":[{"internalType":"address","name":"_WNATIVE","type":"address"}],"name":"setWNATIVE","outputs":[],"stateMutability":"nonpayable","type":"function"},{"inputs":[],"name":"staticOracle","outputs":[{"internalType":"address","name":"","type":"address"}],"stateMutability":"view","type":"function"},{"inputs":[{"internalType":"address","name":"newOwner","type":"address"}],"name":"transferOwnership","outputs":[],"stateMutability":"nonpayable","type":"function"},{"inputs":[],"name":"treasury","outputs":[{"internalType":"address","name":"","type":"address"}],"stateMutability":"view","type":"function"},{"inputs":[],"name":"uniswapFactory","outputs":[{"internalType":"address","name":"","type":"address"}],"stateMutability":"view","type":"function"},{"inputs":[],"name":"uniswapQuoter","outputs":[{"internalType":"address","name":"","type":"address"}],"stateMutability":"view","type":"function"},{"inputs":[],"name":"uniswapRouter","outputs":[{"internalType":"address","name":"","type":"address"}],"stateMutability":"view","type":"function"},{"inputs":[{"internalType":"address","name":"newImplementation","type":"address"},{"internalType":"bytes","name":"data","type":"bytes"}],"name":"upgradeToAndCall","outputs":[],"stateMutability":"payable","type":"function"}],"devdoc":{"errors":{"AddressEmptyCode(address)":[{"details":"There's no code at `target` (it is not a contract)."}],"ERC1967InvalidImplementation(address)":[{"details":"The `implementation` of the proxy is invalid."}],"ERC1967NonPayable()":[{"details":"An upgrade function sees `msg.value > 0` that may be lost."}],"FailedInnerCall()":[{"details":"A call to an address target failed. The target may have reverted."}],"InvalidInitialization()":[{"details":"The contract is already initialized."}],"NotInitializing()":[{"details":"The contract is not initializing."}],"OwnableInvalidOwner(address)":[{"details":"The owner is not a valid owner account. (eg. `address(0)`)"}],"OwnableUnauthorizedAccount(address)":[{"details":"The caller account is not authorized to perform an operation."}],"UUPSUnauthorizedCallContext()":[{"details":"The call is from an unauthorized context."}],"UUPSUnsupportedProxiableUUID(bytes32)":[{"details":"The storage `slot` is unsupported as a UUID."}]},"events":{"Initialized(uint64)":{"details":"Triggered when the contract has been initialized or reinitialized."},"Upgraded(address)":{"details":"Emitted when the implementation is upgraded."}},"kind":"dev","methods":{"owner()":{"details":"Returns the address of the current owner."},"proxiableUUID()":{"details":"Implementation of the ERC1822 {proxiableUUID} function. This returns the storage slot used by the implementation. It is used to validate the implementation's compatibility when performing an upgrade. IMPORTANT: A proxy pointing at a proxiable contract should not be considered proxiable itself, because this risks bricking a proxy that upgrades to it, by delegating to itself until out of gas. Thus it is critical that this function revert if invoked through a proxy. This is guaranteed by the `notDelegated` modifier."},"renounceOwnership()":{"details":"Leaves the contract without owner. It will not be possible to call `onlyOwner` functions. Can only be called by the current owner. NOTE: Renouncing ownership will leave the contract without an owner, thereby disabling any functionality that is only available to the owner."},"transferOwnership(address)":{"details":"Transfers ownership of the contract to a new account (`newOwner`). Can only be called by the current owner."},"upgradeToAndCall(address,bytes)":{"custom:oz-upgrades-unsafe-allow-reachable":"delegatecall","details":"Upgrade the implementation of the proxy to `newImplementation`, and subsequently execute the function call encoded in `data`. Calls {_authorizeUpgrade}. Emits an {Upgraded} event."}},"version":1},"evm":{"bytecode":{"linkReferences":{},"object":"60a080604052346029573060805261186c908161002e8239608051818181610fdf01526110dc0152f35b5f80fdfe6080604090808252600480361015610015575f80fd5b5f3560e01c9182630218ecd61461151c575081630241bffa146114c357816304cc7325146113e35781631292f02e146103ba5781631acb614114610f2a5781631bf01e9b14610bb1578163261581361461146a5781632da524421461144b57816332327d1f1461141757816332569e021461135857816334decfc914610ad957816339b65140146113e35781633b19e84a14610ef65781633e6dfa3614610b7e578163400fb6681461138a578163468a7071146107f25781634b66a135146113585781634db4a352146109835781634f1ef286146110545781634f4608a214610be5578163524900b514610dd657816352d1902d14610fb7578163588c5b7014610f5e57816358a6723314610f2a57816361d027b314610ef65781636c43274c14610e9d5781636c9c00781461094f578163715018a614610e0a578163735de9f714610dd6578163782dd90214610af75781637dfb7ea114610c035781638129fc1c14610c3757816382755ebb14610c035781638537718814610be557816385462d6f1461087f57816389a3027114610bb15781638bdb2afa14610b7e5781638da5cb5b14610b2b5781638e1c3a8a14610af75781639380fb6f14610ad95781639454705f14610a8657816399c22ca6146105245781639e6453f814610aba578163a5d2236f14610a86578163ad3cb1cc146109b7578163b0a7097514610983578163b381cf401461094f578163b3e089a2146108f6578163b691a4191461065a578163b6fe9cc71461089d578163b9f5e6171461087f578163ba535c5414610826578163bb3ba04c146107f2578163bea9849e14610799578163c08f786b14610740578163c3f5df5c146106e7578163c9aba8ae14610542578163cc01e9a61461068e578163cff49d681461065a578163d7e5367314610601578163e04b677f146105aa578163e23d837b14610576578163e528ca1214610542578163ea233c0514610524578163f0f44260146104cb578163f1dccde714610472578163f2fde38b14610447578163f5b84f64146103ee578163f5d2d998146103ba578163f98977a914610364575063ffa08e951461032d575f80fd5b34610360575f6003193601126103605760209073ffffffffffffffffffffffffffffffffffffffff600b54169051908152f35b5f80fd5b346103605760206003193601126103605773ffffffffffffffffffffffffffffffffffffffff61039261154c565b61039a6116cd565b825473ffffffffffffffffffffffffffffffffffffffff19169116179055005b8234610360575f6003193601126103605760209073ffffffffffffffffffffffffffffffffffffffff600254169051908152f35b346103605760206003193601126103605773ffffffffffffffffffffffffffffffffffffffff61041c61154c565b6104246116cd565b1673ffffffffffffffffffffffffffffffffffffffff1960085416176008555f80f35b346103605760206003193601126103605761047061046361154c565b61046b6116cd565b611617565b005b346103605760206003193601126103605773ffffffffffffffffffffffffffffffffffffffff6104a061154c565b6104a86116cd565b1673ffffffffffffffffffffffffffffffffffffffff1960025416176002555f80f35b346103605760206003193601126103605773ffffffffffffffffffffffffffffffffffffffff6104f961154c565b6105016116cd565b1673ffffffffffffffffffffffffffffffffffffffff19600c541617600c555f80f35b8234610360575f600319360112610360576020906014549051908152f35b8234610360575f6003193601126103605760209073ffffffffffffffffffffffffffffffffffffffff600754169051908152f35b8234610360575f6003193601126103605760209073ffffffffffffffffffffffffffffffffffffffff600b54169051908152f35b346103605760206003193601126103605773ffffffffffffffffffffffffffffffffffffffff6105d861154c565b6105e06116cd565b1673ffffffffffffffffffffffffffffffffffffffff195f5416175f555f80f35b346103605760206003193601126103605773ffffffffffffffffffffffffffffffffffffffff61062f61154c565b6106376116cd565b1673ffffffffffffffffffffffffffffffffffffffff19600b541617600b555f80f35b8234610360575f6003193601126103605760209073ffffffffffffffffffffffffffffffffffffffff600554169051908152f35b346103605760206003193601126103605773ffffffffffffffffffffffffffffffffffffffff6106bc61154c565b6106c46116cd565b1673ffffffffffffffffffffffffffffffffffffffff19600d541617600d555f80f35b346103605760206003193601126103605773ffffffffffffffffffffffffffffffffffffffff61071561154c565b61071d6116cd565b1673ffffffffffffffffffffffffffffffffffffffff1960095416176009555f80f35b346103605760206003193601126103605773ffffffffffffffffffffffffffffffffffffffff61076e61154c565b6107766116cd565b1673ffffffffffffffffffffffffffffffffffffffff1960105416176010555f80f35b346103605760206003193601126103605773ffffffffffffffffffffffffffffffffffffffff6107c761154c565b6107cf6116cd565b1673ffffffffffffffffffffffffffffffffffffffff1960015416176001555f80f35b8234610360575f6003193601126103605760209073ffffffffffffffffffffffffffffffffffffffff600854169051908152f35b346103605760206003193601126103605773ffffffffffffffffffffffffffffffffffffffff61085461154c565b61085c6116cd565b1673ffffffffffffffffffffffffffffffffffffffff19600a541617600a555f80f35b8234610360575f600319360112610360576020906012549051908152f35b346103605760206003193601126103605773ffffffffffffffffffffffffffffffffffffffff6108cb61154c565b6108d36116cd565b1673ffffffffffffffffffffffffffffffffffffffff19600e541617600e555f80f35b346103605760206003193601126103605773ffffffffffffffffffffffffffffffffffffffff61092461154c565b61092c6116cd565b1673ffffffffffffffffffffffffffffffffffffffff19600f541617600f555f80f35b8234610360575f6003193601126103605760209073ffffffffffffffffffffffffffffffffffffffff600e54169051908152f35b8234610360575f6003193601126103605760209073ffffffffffffffffffffffffffffffffffffffff601554169051908152f35b8234610360575f600319360112610360578051918183019083821067ffffffffffffffff831117610a5a575081526005825260208201917f352e302e3000000000000000000000000000000000000000000000000000000083527fffffffffffffffffffffffffffffffffffffffffffffffffffffffffffffffe0601f8351948593602085525180918160208701528686015e5f85828601015201168101030190f35b6041907f4e487b71000000000000000000000000000000000000000000000000000000005f525260245ffd5b8234610360575f6003193601126103605760209073ffffffffffffffffffffffffffffffffffffffff600d54169051908152f35b3461036057602060031936011261036057610ad36116cd565b35601255005b8234610360575f600319360112610360576020906011549051908152f35b8234610360575f6003193601126103605760209073ffffffffffffffffffffffffffffffffffffffff601054169051908152f35b8234610360575f6003193601126103605760209073ffffffffffffffffffffffffffffffffffffffff7f9016d09d72d40fdae2fd8ceac6b6234c7706214fd39c1cd1e609a0528c19930054169051908152f35b8234610360575f6003193601126103605760209073ffffffffffffffffffffffffffffffffffffffff5f54169051908152f35b8234610360575f6003193601126103605760209073ffffffffffffffffffffffffffffffffffffffff600f54169051908152f35b8234610360575f600319360112610360576020906013549051908152f35b8234610360575f6003193601126103605760209073ffffffffffffffffffffffffffffffffffffffff600954169051908152f35b905034610360575f600319360112610360577ff0c57e16840df040f15088dc2f81fe391c3923bec73e23a9662efc9c229c6a0090815460ff81851c16159167ffffffffffffffff821680159081610dce575b6001149081610dc4575b159081610dbb575b50610d9457508160017fffffffffffffffffffffffffffffffffffffffffffffffff00000000000000008316178455610d5f575b50610cd861173d565b610ce061173d565b610ce933611617565b610cf161173d565b6064601155601e6012556127106013556064601455610d0c57005b7fc7f505b2f371ae2175ee4913f4499e1f2633a7b5936321eed1cdaeb6115181d291817fffffffffffffffffffffffffffffffffffffffffffffff00ffffffffffffffff602093541690555160018152a1005b7fffffffffffffffffffffffffffffffffffffffffffffff00000000000000000016680100000000000000011782555f610ccf565b84517ff92ee8a9000000000000000000000000000000000000000000000000000000008152fd5b9050155f610c9b565b303b159150610c93565b849150610c89565b8234610360575f6003193601126103605760209073ffffffffffffffffffffffffffffffffffffffff600154169051908152f35b34610360575f60031936011261036057610e226116cd565b5f73ffffffffffffffffffffffffffffffffffffffff7f9016d09d72d40fdae2fd8ceac6b6234c7706214fd39c1cd1e609a0528c19930080549073ffffffffffffffffffffffffffffffffffffffff1982169055167f8be0079c531659141344cd1fd0a4f28419497f9722a3daafe3b4186f6b6457e08280a3005b346103605760206003193601126103605773ffffffffffffffffffffffffffffffffffffffff610ecb61154c565b610ed36116cd565b1673ffffffffffffffffffffffffffffffffffffffff1960075416176007555f80f35b8234610360575f6003193601126103605760209073ffffffffffffffffffffffffffffffffffffffff600c54169051908152f35b8234610360575f6003193601126103605760209073ffffffffffffffffffffffffffffffffffffffff600354169051908152f35b346103605760206003193601126103605773ffffffffffffffffffffffffffffffffffffffff610f8c61154c565b610f946116cd565b1673ffffffffffffffffffffffffffffffffffffffff1960035416176003555f80f35b8234610360575f6003193601126103605773ffffffffffffffffffffffffffffffffffffffff7f000000000000000000000000000000000000000000000000000000000000000016300361102e57602090517f360894a13ba1a3210667c828492db98dca3e2076cc3735a920a3ca505d382bbc8152f35b517fe07c8dba000000000000000000000000000000000000000000000000000000008152fd5b9050816003193601126103605761106961154c565b602492833567ffffffffffffffff811161036057366023820112156103605780840135611095816115dd565b936110a28451958661156f565b818552602091828601933689838301011161036057815f928a86930187378701015273ffffffffffffffffffffffffffffffffffffffff807f00000000000000000000000000000000000000000000000000000000000000001680301490811561132a575b50611302576111146116cd565b81169484517f52d1902d000000000000000000000000000000000000000000000000000000008152838189818a5afa5f91816112d3575b5061117f57505050505051917f4c9c8ce3000000000000000000000000000000000000000000000000000000008352820152fd5b9087878794938b7f360894a13ba1a3210667c828492db98dca3e2076cc3735a920a3ca505d382bbc918281036112a65750853b1561127957508173ffffffffffffffffffffffffffffffffffffffff198254161790558451907fbc7cd75a20ee27fd9adebab32041f755214dbc6bffa90cc0225b39da2e5c2d3b5f80a28251156112465750505f6104709581925190845af4913d1561123c573d61122e611225826115dd565b9251928361156f565b81525f81943d92013e611796565b5060609250611796565b945094505050503461125457005b7fb398979f000000000000000000000000000000000000000000000000000000008152fd5b83838851917f4c9c8ce3000000000000000000000000000000000000000000000000000000008352820152fd5b84908851917faa1d49a4000000000000000000000000000000000000000000000000000000008352820152fd5b9091508481813d83116112fb575b6112eb818361156f565b810103126103605751905f61114b565b503d6112e1565b8685517fe07c8dba000000000000000000000000000000000000000000000000000000008152fd5b9050817f360894a13ba1a3210667c828492db98dca3e2076cc3735a920a3ca505d382bbc541614155f611107565b8234610360575f6003193601126103605773ffffffffffffffffffffffffffffffffffffffff60209254169051908152f35b346103605760206003193601126103605773ffffffffffffffffffffffffffffffffffffffff6113b861154c565b6113c06116cd565b1673ffffffffffffffffffffffffffffffffffffffff1960065416176006555f80f35b8234610360575f6003193601126103605760209073ffffffffffffffffffffffffffffffffffffffff600654169051908152f35b8234610360575f6003193601126103605760209073ffffffffffffffffffffffffffffffffffffffff600a54169051908152f35b34610360576020600319360112610360576114646116cd565b35601455005b346103605760206003193601126103605773ffffffffffffffffffffffffffffffffffffffff61149861154c565b6114a06116cd565b1673ffffffffffffffffffffffffffffffffffffffff1960155416176015555f80f35b346103605760206003193601126103605773ffffffffffffffffffffffffffffffffffffffff6114f161154c565b6114f96116cd565b1673ffffffffffffffffffffffffffffffffffffffff1960055416176005555f80f35b34610360575f6003193601126103605760209073ffffffffffffffffffffffffffffffffffffffff600a54168152f35b6004359073ffffffffffffffffffffffffffffffffffffffff8216820361036057565b90601f7fffffffffffffffffffffffffffffffffffffffffffffffffffffffffffffffe0910116810190811067ffffffffffffffff8211176115b057604052565b7f4e487b71000000000000000000000000000000000000000000000000000000005f52604160045260245ffd5b67ffffffffffffffff81116115b057601f017fffffffffffffffffffffffffffffffffffffffffffffffffffffffffffffffe01660200190565b73ffffffffffffffffffffffffffffffffffffffff80911690811561169d577f9016d09d72d40fdae2fd8ceac6b6234c7706214fd39c1cd1e609a0528c1993008054908373ffffffffffffffffffffffffffffffffffffffff198316179055167f8be0079c531659141344cd1fd0a4f28419497f9722a3daafe3b4186f6b6457e05f80a3565b60246040517f1e4fbdf70000000000000000000000000000000000000000000000000000000081525f6004820152fd5b73ffffffffffffffffffffffffffffffffffffffff7f9016d09d72d40fdae2fd8ceac6b6234c7706214fd39c1cd1e609a0528c1993005416330361170d57565b60246040517f118cdaa7000000000000000000000000000000000000000000000000000000008152336004820152fd5b60ff7ff0c57e16840df040f15088dc2f81fe391c3923bec73e23a9662efc9c229c6a005460401c161561176c57565b60046040517fd7e6bcf8000000000000000000000000000000000000000000000000000000008152fd5b906117d557508051156117ab57805190602001fd5b60046040517f1425ea42000000000000000000000000000000000000000000000000000000008152fd5b8151158061182d575b6117e6575090565b60249073ffffffffffffffffffffffffffffffffffffffff604051917f9996b315000000000000000000000000000000000000000000000000000000008352166004820152fd5b50803b156117de56fea2646970667358221220ef62c2406be6d7bece15a4c360f4cb9d5812b81067891c166fc3e6b29603675264736f6c63430008190033","opcodes":"PUSH1 0xA0 DUP1 PUSH1 0x40 MSTORE CALLVALUE PUSH1 0x29 JUMPI ADDRESS PUSH1 0x80 MSTORE PUSH2 0x186C SWAP1 DUP2 PUSH2 0x2E DUP3 CODECOPY PUSH1 0x80 MLOAD DUP2 DUP2 DUP2 PUSH2 0xFDF ADD MSTORE PUSH2 0x10DC ADD MSTORE RETURN JUMPDEST PUSH0 DUP1 REVERT INVALID PUSH1 0x80 PUSH1 0x40 SWAP1 DUP1 DUP3 MSTORE PUSH1 0x4 DUP1 CALLDATASIZE LT ISZERO PUSH2 0x15 JUMPI PUSH0 DUP1 REVERT JUMPDEST PUSH0 CALLDATALOAD PUSH1 0xE0 SHR SWAP2 DUP3 PUSH4 0x218ECD6 EQ PUSH2 0x151C JUMPI POP DUP2 PUSH4 0x241BFFA EQ PUSH2 0x14C3 JUMPI DUP2 PUSH4 0x4CC7325 EQ PUSH2 0x13E3 JUMPI DUP2 PUSH4 0x1292F02E EQ PUSH2 0x3BA JUMPI DUP2 PUSH4 0x1ACB6141 EQ PUSH2 0xF2A JUMPI DUP2 PUSH4 0x1BF01E9B EQ PUSH2 0xBB1 JUMPI DUP2 PUSH4 0x26158136 EQ PUSH2 0x146A JUMPI DUP2 PUSH4 0x2DA52442 EQ PUSH2 0x144B JUMPI DUP2 PUSH4 0x32327D1F EQ PUSH2 0x1417 JUMPI DUP2 PUSH4 0x32569E02 EQ PUSH2 0x1358 JUMPI DUP2 PUSH4 0x34DECFC9 EQ PUSH2 0xAD9 JUMPI DUP2 PUSH4 0x39B65140 EQ PUSH2 0x13E3 JUMPI DUP2 PUSH4 0x3B19E84A EQ PUSH2 0xEF6 JUMPI DUP2 PUSH4 0x3E6DFA36 EQ PUSH2 0xB7E JUMPI DUP2 PUSH4 0x400FB668 EQ PUSH2 0x138A JUMPI DUP2 PUSH4 0x468A7071 EQ PUSH2 0x7F2 JUMPI DUP2 PUSH4 0x4B66A135 EQ PUSH2 0x1358 JUMPI DUP2 PUSH4 0x4DB4A352 EQ PUSH2 0x983 JUMPI DUP2 PUSH4 0x4F1EF286 EQ PUSH2 0x1054 JUMPI DUP2 PUSH4 0x4F4608A2 EQ PUSH2 0xBE5 JUMPI DUP2 PUSH4 0x524900B5 EQ PUSH2 0xDD6 JUMPI DUP2 PUSH4 0x52D1902D EQ PUSH2 0xFB7 JUMPI DUP2 PUSH4 0x588C5B70 EQ PUSH2 0xF5E JUMPI DUP2 PUSH4 0x58A67233 EQ PUSH2 0xF2A JUMPI DUP2 PUSH4 0x61D027B3 EQ PUSH2 0xEF6 JUMPI DUP2 PUSH4 0x6C43274C EQ PUSH2 0xE9D JUMPI DUP2 PUSH4 0x6C9C0078 EQ PUSH2 0x94F JUMPI DUP2 PUSH4 0x715018A6 EQ PUSH2 0xE0A JUMPI DUP2 PUSH4 0x735DE9F7 EQ PUSH2 0xDD6 JUMPI DUP2 PUSH4 0x782DD902 EQ PUSH2 0xAF7 JUMPI DUP2 PUSH4 0x7DFB7EA1 EQ PUSH2 0xC03 JUMPI DUP2 PUSH4 0x8129FC1C EQ PUSH2 0xC37 JUMPI DUP2 PUSH4 0x82755EBB EQ PUSH2 0xC03 JUMPI DUP2 PUSH4 0x85377188 EQ PUSH2 0xBE5 JUMPI DUP2 PUSH4 0x85462D6F EQ PUSH2 0x87F JUMPI DUP2 PUSH4 0x89A30271 EQ PUSH2 0xBB1 JUMPI DUP2 PUSH4 0x8BDB2AFA EQ PUSH2 0xB7E JUMPI DUP2 PUSH4 0x8DA5CB5B EQ PUSH2 0xB2B JUMPI DUP2 PUSH4 0x8E1C3A8A EQ PUSH2 0xAF7 JUMPI DUP2 PUSH4 0x9380FB6F EQ PUSH2 0xAD9 JUMPI DUP2 PUSH4 0x9454705F EQ PUSH2 0xA86 JUMPI DUP2 PUSH4 0x99C22CA6 EQ PUSH2 0x524 JUMPI DUP2 PUSH4 0x9E6453F8 EQ PUSH2 0xABA JUMPI DUP2 PUSH4 0xA5D2236F EQ PUSH2 0xA86 JUMPI DUP2 PUSH4 0xAD3CB1CC EQ PUSH2 0x9B7 JUMPI DUP2 PUSH4 0xB0A70975 EQ PUSH2 0x983 JUMPI DUP2 PUSH4 0xB381CF40 EQ PUSH2 0x94F JUMPI DUP2 PUSH4 0xB3E089A2 EQ PUSH2 0x8F6 JUMPI DUP2 PUSH4 0xB691A419 EQ PUSH2 0x65A JUMPI DUP2 PUSH4 0xB6FE9CC7 EQ PUSH2 0x89D JUMPI DUP2 PUSH4 0xB9F5E617 EQ PUSH2 0x87F JUMPI DUP2 PUSH4 0xBA535C54 EQ PUSH2 0x826 JUMPI DUP2 PUSH4 0xBB3BA04C EQ PUSH2 0x7F2 JUMPI DUP2 PUSH4 0xBEA9849E EQ PUSH2 0x799 JUMPI DUP2 PUSH4 0xC08F786B EQ PUSH2 0x740 JUMPI DUP2 PUSH4 0xC3F5DF5C EQ PUSH2 0x6E7 JUMPI DUP2 PUSH4 0xC9ABA8AE EQ PUSH2 0x542 JUMPI DUP2 PUSH4 0xCC01E9A6 EQ PUSH2 0x68E JUMPI DUP2 PUSH4 0xCFF49D68 EQ PUSH2 0x65A JUMPI DUP2 PUSH4 0xD7E53673 EQ PUSH2 0x601 JUMPI DUP2 PUSH4 0xE04B677F EQ PUSH2 0x5AA JUMPI DUP2 PUSH4 0xE23D837B EQ PUSH2 0x576 JUMPI DUP2 PUSH4 0xE528CA12 EQ PUSH2 0x542 JUMPI DUP2 PUSH4 0xEA233C05 EQ PUSH2 0x524 JUMPI DUP2 PUSH4 0xF0F44260 EQ PUSH2 0x4CB JUMPI DUP2 PUSH4 0xF1DCCDE7 EQ PUSH2 0x472 JUMPI DUP2 PUSH4 0xF2FDE38B EQ PUSH2 0x447 JUMPI DUP2 PUSH4 0xF5B84F64 EQ PUSH2 0x3EE JUMPI DUP2 PUSH4 0xF5D2D998 EQ PUSH2 0x3BA JUMPI DUP2 PUSH4 0xF98977A9 EQ PUSH2 0x364 JUMPI POP PUSH4 0xFFA08E95 EQ PUSH2 0x32D JUMPI PUSH0 DUP1 REVERT JUMPDEST CALLVALUE PUSH2 0x360 JUMPI PUSH0 PUSH1 0x3 NOT CALLDATASIZE ADD SLT PUSH2 0x360 JUMPI PUSH1 0x20 SWAP1 PUSH20 0xFFFFFFFFFFFFFFFFFFFFFFFFFFFFFFFFFFFFFFFF PUSH1 0xB SLOAD AND SWAP1 MLOAD SWAP1 DUP2 MSTORE RETURN JUMPDEST PUSH0 DUP1 REVERT JUMPDEST CALLVALUE PUSH2 0x360 JUMPI PUSH1 0x20 PUSH1 0x3 NOT CALLDATASIZE ADD SLT PUSH2 0x360 JUMPI PUSH20 0xFFFFFFFFFFFFFFFFFFFFFFFFFFFFFFFFFFFFFFFF PUSH2 0x392 PUSH2 0x154C JUMP JUMPDEST PUSH2 0x39A PUSH2 0x16CD JUMP JUMPDEST DUP3 SLOAD PUSH20 0xFFFFFFFFFFFFFFFFFFFFFFFFFFFFFFFFFFFFFFFF NOT AND SWAP2 AND OR SWAP1 SSTORE STOP JUMPDEST DUP3 CALLVALUE PUSH2 0x360 JUMPI PUSH0 PUSH1 0x3 NOT CALLDATASIZE ADD SLT PUSH2 0x360 JUMPI PUSH1 0x20 SWAP1 PUSH20 0xFFFFFFFFFFFFFFFFFFFFFFFFFFFFFFFFFFFFFFFF PUSH1 0x2 SLOAD AND SWAP1 MLOAD SWAP1 DUP2 MSTORE RETURN JUMPDEST CALLVALUE PUSH2 0x360 JUMPI PUSH1 0x20 PUSH1 0x3 NOT CALLDATASIZE ADD SLT PUSH2 0x360 JUMPI PUSH20 0xFFFFFFFFFFFFFFFFFFFFFFFFFFFFFFFFFFFFFFFF PUSH2 0x41C PUSH2 0x154C JUMP JUMPDEST PUSH2 0x424 PUSH2 0x16CD JUMP JUMPDEST AND PUSH20 0xFFFFFFFFFFFFFFFFFFFFFFFFFFFFFFFFFFFFFFFF NOT PUSH1 0x8 SLOAD AND OR PUSH1 0x8 SSTORE PUSH0 DUP1 RETURN JUMPDEST CALLVALUE PUSH2 0x360 JUMPI PUSH1 0x20 PUSH1 0x3 NOT CALLDATASIZE ADD SLT PUSH2 0x360 JUMPI PUSH2 0x470 PUSH2 0x463 PUSH2 0x154C JUMP JUMPDEST PUSH2 0x46B PUSH2 0x16CD JUMP JUMPDEST PUSH2 0x1617 JUMP JUMPDEST STOP JUMPDEST CALLVALUE PUSH2 0x360 JUMPI PUSH1 0x20 PUSH1 0x3 NOT CALLDATASIZE ADD SLT PUSH2 0x360 JUMPI PUSH20 0xFFFFFFFFFFFFFFFFFFFFFFFFFFFFFFFFFFFFFFFF PUSH2 0x4A0 PUSH2 0x154C JUMP JUMPDEST PUSH2 0x4A8 PUSH2 0x16CD JUMP JUMPDEST AND PUSH20 0xFFFFFFFFFFFFFFFFFFFFFFFFFFFFFFFFFFFFFFFF NOT PUSH1 0x2 SLOAD AND OR PUSH1 0x2 SSTORE PUSH0 DUP1 RETURN JUMPDEST CALLVALUE PUSH2 0x360 JUMPI PUSH1 0x20 PUSH1 0x3 NOT CALLDATASIZE ADD SLT PUSH2 0x360 JUMPI PUSH20 0xFFFFFFFFFFFFFFFFFFFFFFFFFFFFFFFFFFFFFFFF PUSH2 0x4F9 PUSH2 0x154C JUMP JUMPDEST PUSH2 0x501 PUSH2 0x16CD JUMP JUMPDEST AND PUSH20 0xFFFFFFFFFFFFFFFFFFFFFFFFFFFFFFFFFFFFFFFF NOT PUSH1 0xC SLOAD AND OR PUSH1 0xC SSTORE PUSH0 DUP1 RETURN JUMPDEST DUP3 CALLVALUE PUSH2 0x360 JUMPI PUSH0 PUSH1 0x3 NOT CALLDATASIZE ADD SLT PUSH2 0x360 JUMPI PUSH1 0x20 SWAP1 PUSH1 0x14 SLOAD SWAP1 MLOAD SWAP1 DUP2 MSTORE RETURN JUMPDEST DUP3 CALLVALUE PUSH2 0x360 JUMPI PUSH0 PUSH1 0x3 NOT CALLDATASIZE ADD SLT PUSH2 0x360 JUMPI PUSH1 0x20 SWAP1 PUSH20 0xFFFFFFFFFFFFFFFFFFFFFFFFFFFFFFFFFFFFFFFF PUSH1 0x7 SLOAD AND SWAP1 MLOAD SWAP1 DUP2 MSTORE RETURN JUMPDEST DUP3 CALLVALUE PUSH2 0x360 JUMPI PUSH0 PUSH1 0x3 NOT CALLDATASIZE ADD SLT PUSH2 0x360 JUMPI PUSH1 0x20 SWAP1 PUSH20 0xFFFFFFFFFFFFFFFFFFFFFFFFFFFFFFFFFFFFFFFF PUSH1 0xB SLOAD AND SWAP1 MLOAD SWAP1 DUP2 MSTORE RETURN JUMPDEST CALLVALUE PUSH2 0x360 JUMPI PUSH1 0x20 PUSH1 0x3 NOT CALLDATASIZE ADD SLT PUSH2 0x360 JUMPI PUSH20 0xFFFFFFFFFFFFFFFFFFFFFFFFFFFFFFFFFFFFFFFF PUSH2 0x5D8 PUSH2 0x154C JUMP JUMPDEST PUSH2 0x5E0 PUSH2 0x16CD JUMP JUMPDEST AND PUSH20 0xFFFFFFFFFFFFFFFFFFFFFFFFFFFFFFFFFFFFFFFF NOT PUSH0 SLOAD AND OR PUSH0 SSTORE PUSH0 DUP1 RETURN JUMPDEST CALLVALUE PUSH2 0x360 JUMPI PUSH1 0x20 PUSH1 0x3 NOT CALLDATASIZE ADD SLT PUSH2 0x360 JUMPI PUSH20 0xFFFFFFFFFFFFFFFFFFFFFFFFFFFFFFFFFFFFFFFF PUSH2 0x62F PUSH2 0x154C JUMP JUMPDEST PUSH2 0x637 PUSH2 0x16CD JUMP JUMPDEST AND PUSH20 0xFFFFFFFFFFFFFFFFFFFFFFFFFFFFFFFFFFFFFFFF NOT PUSH1 0xB SLOAD AND OR PUSH1 0xB SSTORE PUSH0 DUP1 RETURN JUMPDEST DUP3 CALLVALUE PUSH2 0x360 JUMPI PUSH0 PUSH1 0x3 NOT CALLDATASIZE ADD SLT PUSH2 0x360 JUMPI PUSH1 0x20 SWAP1 PUSH20 0xFFFFFFFFFFFFFFFFFFFFFFFFFFFFFFFFFFFFFFFF PUSH1 0x5 SLOAD AND SWAP1 MLOAD SWAP1 DUP2 MSTORE RETURN JUMPDEST CALLVALUE PUSH2 0x360 JUMPI PUSH1 0x20 PUSH1 0x3 NOT CALLDATASIZE ADD SLT PUSH2 0x360 JUMPI PUSH20 0xFFFFFFFFFFFFFFFFFFFFFFFFFFFFFFFFFFFFFFFF PUSH2 0x6BC PUSH2 0x154C JUMP JUMPDEST PUSH2 0x6C4 PUSH2 0x16CD JUMP JUMPDEST AND PUSH20 0xFFFFFFFFFFFFFFFFFFFFFFFFFFFFFFFFFFFFFFFF NOT PUSH1 0xD SLOAD AND OR PUSH1 0xD SSTORE PUSH0 DUP1 RETURN JUMPDEST CALLVALUE PUSH2 0x360 JUMPI PUSH1 0x20 PUSH1 0x3 NOT CALLDATASIZE ADD SLT PUSH2 0x360 JUMPI PUSH20 0xFFFFFFFFFFFFFFFFFFFFFFFFFFFFFFFFFFFFFFFF PUSH2 0x715 PUSH2 0x154C JUMP JUMPDEST PUSH2 0x71D PUSH2 0x16CD JUMP JUMPDEST AND PUSH20 0xFFFFFFFFFFFFFFFFFFFFFFFFFFFFFFFFFFFFFFFF NOT PUSH1 0x9 SLOAD AND OR PUSH1 0x9 SSTORE PUSH0 DUP1 RETURN JUMPDEST CALLVALUE PUSH2 0x360 JUMPI PUSH1 0x20 PUSH1 0x3 NOT CALLDATASIZE ADD SLT PUSH2 0x360 JUMPI PUSH20 0xFFFFFFFFFFFFFFFFFFFFFFFFFFFFFFFFFFFFFFFF PUSH2 0x76E PUSH2 0x154C JUMP JUMPDEST PUSH2 0x776 PUSH2 0x16CD JUMP JUMPDEST AND PUSH20 0xFFFFFFFFFFFFFFFFFFFFFFFFFFFFFFFFFFFFFFFF NOT PUSH1 0x10 SLOAD AND OR PUSH1 0x10 SSTORE PUSH0 DUP1 RETURN JUMPDEST CALLVALUE PUSH2 0x360 JUMPI PUSH1 0x20 PUSH1 0x3 NOT CALLDATASIZE ADD SLT PUSH2 0x360 JUMPI PUSH20 0xFFFFFFFFFFFFFFFFFFFFFFFFFFFFFFFFFFFFFFFF PUSH2 0x7C7 PUSH2 0x154C JUMP JUMPDEST PUSH2 0x7CF PUSH2 0x16CD JUMP JUMPDEST AND PUSH20 0xFFFFFFFFFFFFFFFFFFFFFFFFFFFFFFFFFFFFFFFF NOT PUSH1 0x1 SLOAD AND OR PUSH1 0x1 SSTORE PUSH0 DUP1 RETURN JUMPDEST DUP3 CALLVALUE PUSH2 0x360 JUMPI PUSH0 PUSH1 0x3 NOT CALLDATASIZE ADD SLT PUSH2 0x360 JUMPI PUSH1 0x20 SWAP1 PUSH20 0xFFFFFFFFFFFFFFFFFFFFFFFFFFFFFFFFFFFFFFFF PUSH1 0x8 SLOAD AND SWAP1 MLOAD SWAP1 DUP2 MSTORE RETURN JUMPDEST CALLVALUE PUSH2 0x360 JUMPI PUSH1 0x20 PUSH1 0x3 NOT CALLDATASIZE ADD SLT PUSH2 0x360 JUMPI PUSH20 0xFFFFFFFFFFFFFFFFFFFFFFFFFFFFFFFFFFFFFFFF PUSH2 0x854 PUSH2 0x154C JUMP JUMPDEST PUSH2 0x85C PUSH2 0x16CD JUMP JUMPDEST AND PUSH20 0xFFFFFFFFFFFFFFFFFFFFFFFFFFFFFFFFFFFFFFFF NOT PUSH1 0xA SLOAD AND OR PUSH1 0xA SSTORE PUSH0 DUP1 RETURN JUMPDEST DUP3 CALLVALUE PUSH2 0x360 JUMPI PUSH0 PUSH1 0x3 NOT CALLDATASIZE ADD SLT PUSH2 0x360 JUMPI PUSH1 0x20 SWAP1 PUSH1 0x12 SLOAD SWAP1 MLOAD SWAP1 DUP2 MSTORE RETURN JUMPDEST CALLVALUE PUSH2 0x360 JUMPI PUSH1 0x20 PUSH1 0x3 NOT CALLDATASIZE ADD SLT PUSH2 0x360 JUMPI PUSH20 0xFFFFFFFFFFFFFFFFFFFFFFFFFFFFFFFFFFFFFFFF PUSH2 0x8CB PUSH2 0x154C JUMP JUMPDEST PUSH2 0x8D3 PUSH2 0x16CD JUMP JUMPDEST AND PUSH20 0xFFFFFFFFFFFFFFFFFFFFFFFFFFFFFFFFFFFFFFFF NOT PUSH1 0xE SLOAD AND OR PUSH1 0xE SSTORE PUSH0 DUP1 RETURN JUMPDEST CALLVALUE PUSH2 0x360 JUMPI PUSH1 0x20 PUSH1 0x3 NOT CALLDATASIZE ADD SLT PUSH2 0x360 JUMPI PUSH20 0xFFFFFFFFFFFFFFFFFFFFFFFFFFFFFFFFFFFFFFFF PUSH2 0x924 PUSH2 0x154C JUMP JUMPDEST PUSH2 0x92C PUSH2 0x16CD JUMP JUMPDEST AND PUSH20 0xFFFFFFFFFFFFFFFFFFFFFFFFFFFFFFFFFFFFFFFF NOT PUSH1 0xF SLOAD AND OR PUSH1 0xF SSTORE PUSH0 DUP1 RETURN JUMPDEST DUP3 CALLVALUE PUSH2 0x360 JUMPI PUSH0 PUSH1 0x3 NOT CALLDATASIZE ADD SLT PUSH2 0x360 JUMPI PUSH1 0x20 SWAP1 PUSH20 0xFFFFFFFFFFFFFFFFFFFFFFFFFFFFFFFFFFFFFFFF PUSH1 0xE SLOAD AND SWAP1 MLOAD SWAP1 DUP2 MSTORE RETURN JUMPDEST DUP3 CALLVALUE PUSH2 0x360 JUMPI PUSH0 PUSH1 0x3 NOT CALLDATASIZE ADD SLT PUSH2 0x360 JUMPI PUSH1 0x20 SWAP1 PUSH20 0xFFFFFFFFFFFFFFFFFFFFFFFFFFFFFFFFFFFFFFFF PUSH1 0x15 SLOAD AND SWAP1 MLOAD SWAP1 DUP2 MSTORE RETURN JUMPDEST DUP3 CALLVALUE PUSH2 0x360 JUMPI PUSH0 PUSH1 0x3 NOT CALLDATASIZE ADD SLT PUSH2 0x360 JUMPI DUP1 MLOAD SWAP2 DUP2 DUP4 ADD SWAP1 DUP4 DUP3 LT PUSH8 0xFFFFFFFFFFFFFFFF DUP4 GT OR PUSH2 0xA5A JUMPI POP DUP2 MSTORE PUSH1 0x5 DUP3 MSTORE PUSH1 0x20 DUP3 ADD SWAP2 PUSH32 0x352E302E30000000000000000000000000000000000000000000000000000000 DUP4 MSTORE PUSH32 0xFFFFFFFFFFFFFFFFFFFFFFFFFFFFFFFFFFFFFFFFFFFFFFFFFFFFFFFFFFFFFFE0 PUSH1 0x1F DUP4 MLOAD SWAP5 DUP6 SWAP4 PUSH1 0x20 DUP6 MSTORE MLOAD DUP1 SWAP2 DUP2 PUSH1 0x20 DUP8 ADD MSTORE DUP7 DUP7 ADD MCOPY PUSH0 DUP6 DUP3 DUP7 ADD ADD MSTORE ADD AND DUP2 ADD SUB ADD SWAP1 RETURN JUMPDEST PUSH1 0x41 SWAP1 PUSH32 0x4E487B7100000000000000000000000000000000000000000000000000000000 PUSH0 MSTORE MSTORE PUSH1 0x24 PUSH0 REVERT JUMPDEST DUP3 CALLVALUE PUSH2 0x360 JUMPI PUSH0 PUSH1 0x3 NOT CALLDATASIZE ADD SLT PUSH2 0x360 JUMPI PUSH1 0x20 SWAP1 PUSH20 0xFFFFFFFFFFFFFFFFFFFFFFFFFFFFFFFFFFFFFFFF PUSH1 0xD SLOAD AND SWAP1 MLOAD SWAP1 DUP2 MSTORE RETURN JUMPDEST CALLVALUE PUSH2 0x360 JUMPI PUSH1 0x20 PUSH1 0x3 NOT CALLDATASIZE ADD SLT PUSH2 0x360 JUMPI PUSH2 0xAD3 PUSH2 0x16CD JUMP JUMPDEST CALLDATALOAD PUSH1 0x12 SSTORE STOP JUMPDEST DUP3 CALLVALUE PUSH2 0x360 JUMPI PUSH0 PUSH1 0x3 NOT CALLDATASIZE ADD SLT PUSH2 0x360 JUMPI PUSH1 0x20 SWAP1 PUSH1 0x11 SLOAD SWAP1 MLOAD SWAP1 DUP2 MSTORE RETURN JUMPDEST DUP3 CALLVALUE PUSH2 0x360 JUMPI PUSH0 PUSH1 0x3 NOT CALLDATASIZE ADD SLT PUSH2 0x360 JUMPI PUSH1 0x20 SWAP1 PUSH20 0xFFFFFFFFFFFFFFFFFFFFFFFFFFFFFFFFFFFFFFFF PUSH1 0x10 SLOAD AND SWAP1 MLOAD SWAP1 DUP2 MSTORE RETURN JUMPDEST DUP3 CALLVALUE PUSH2 0x360 JUMPI PUSH0 PUSH1 0x3 NOT CALLDATASIZE ADD SLT PUSH2 0x360 JUMPI PUSH1 0x20 SWAP1 PUSH20 0xFFFFFFFFFFFFFFFFFFFFFFFFFFFFFFFFFFFFFFFF PUSH32 0x9016D09D72D40FDAE2FD8CEAC6B6234C7706214FD39C1CD1E609A0528C199300 SLOAD AND SWAP1 MLOAD SWAP1 DUP2 MSTORE RETURN JUMPDEST DUP3 CALLVALUE PUSH2 0x360 JUMPI PUSH0 PUSH1 0x3 NOT CALLDATASIZE ADD SLT PUSH2 0x360 JUMPI PUSH1 0x20 SWAP1 PUSH20 0xFFFFFFFFFFFFFFFFFFFFFFFFFFFFFFFFFFFFFFFF PUSH0 SLOAD AND SWAP1 MLOAD SWAP1 DUP2 MSTORE RETURN JUMPDEST DUP3 CALLVALUE PUSH2 0x360 JUMPI PUSH0 PUSH1 0x3 NOT CALLDATASIZE ADD SLT PUSH2 0x360 JUMPI PUSH1 0x20 SWAP1 PUSH20 0xFFFFFFFFFFFFFFFFFFFFFFFFFFFFFFFFFFFFFFFF PUSH1 0xF SLOAD AND SWAP1 MLOAD SWAP1 DUP2 MSTORE RETURN JUMPDEST DUP3 CALLVALUE PUSH2 0x360 JUMPI PUSH0 PUSH1 0x3 NOT CALLDATASIZE ADD SLT PUSH2 0x360 JUMPI PUSH1 0x20 SWAP1 PUSH1 0x13 SLOAD SWAP1 MLOAD SWAP1 DUP2 MSTORE RETURN JUMPDEST DUP3 CALLVALUE PUSH2 0x360 JUMPI PUSH0 PUSH1 0x3 NOT CALLDATASIZE ADD SLT PUSH2 0x360 JUMPI PUSH1 0x20 SWAP1 PUSH20 0xFFFFFFFFFFFFFFFFFFFFFFFFFFFFFFFFFFFFFFFF PUSH1 0x9 SLOAD AND SWAP1 MLOAD SWAP1 DUP2 MSTORE RETURN JUMPDEST SWAP1 POP CALLVALUE PUSH2 0x360 JUMPI PUSH0 PUSH1 0x3 NOT CALLDATASIZE ADD SLT PUSH2 0x360 JUMPI PUSH32 0xF0C57E16840DF040F15088DC2F81FE391C3923BEC73E23A9662EFC9C229C6A00 SWAP1 DUP2 SLOAD PUSH1 0xFF DUP2 DUP6 SHR AND ISZERO SWAP2 PUSH8 0xFFFFFFFFFFFFFFFF DUP3 AND DUP1 ISZERO SWAP1 DUP2 PUSH2 0xDCE JUMPI JUMPDEST PUSH1 0x1 EQ SWAP1 DUP2 PUSH2 0xDC4 JUMPI JUMPDEST ISZERO SWAP1 DUP2 PUSH2 0xDBB JUMPI JUMPDEST POP PUSH2 0xD94 JUMPI POP DUP2 PUSH1 0x1 PUSH32 0xFFFFFFFFFFFFFFFFFFFFFFFFFFFFFFFFFFFFFFFFFFFFFFFF0000000000000000 DUP4 AND OR DUP5 SSTORE PUSH2 0xD5F JUMPI JUMPDEST POP PUSH2 0xCD8 PUSH2 0x173D JUMP JUMPDEST PUSH2 0xCE0 PUSH2 0x173D JUMP JUMPDEST PUSH2 0xCE9 CALLER PUSH2 0x1617 JUMP JUMPDEST PUSH2 0xCF1 PUSH2 0x173D JUMP JUMPDEST PUSH1 0x64 PUSH1 0x11 SSTORE PUSH1 0x1E PUSH1 0x12 SSTORE PUSH2 0x2710 PUSH1 0x13 SSTORE PUSH1 0x64 PUSH1 0x14 SSTORE PUSH2 0xD0C JUMPI STOP JUMPDEST PUSH32 0xC7F505B2F371AE2175EE4913F4499E1F2633A7B5936321EED1CDAEB6115181D2 SWAP2 DUP2 PUSH32 0xFFFFFFFFFFFFFFFFFFFFFFFFFFFFFFFFFFFFFFFFFFFFFF00FFFFFFFFFFFFFFFF PUSH1 0x20 SWAP4 SLOAD AND SWAP1 SSTORE MLOAD PUSH1 0x1 DUP2 MSTORE LOG1 STOP JUMPDEST PUSH32 0xFFFFFFFFFFFFFFFFFFFFFFFFFFFFFFFFFFFFFFFFFFFFFF000000000000000000 AND PUSH9 0x10000000000000001 OR DUP3 SSTORE PUSH0 PUSH2 0xCCF JUMP JUMPDEST DUP5 MLOAD PUSH32 0xF92EE8A900000000000000000000000000000000000000000000000000000000 DUP2 MSTORE REVERT JUMPDEST SWAP1 POP ISZERO PUSH0 PUSH2 0xC9B JUMP JUMPDEST ADDRESS EXTCODESIZE ISZERO SWAP2 POP PUSH2 0xC93 JUMP JUMPDEST DUP5 SWAP2 POP PUSH2 0xC89 JUMP JUMPDEST DUP3 CALLVALUE PUSH2 0x360 JUMPI PUSH0 PUSH1 0x3 NOT CALLDATASIZE ADD SLT PUSH2 0x360 JUMPI PUSH1 0x20 SWAP1 PUSH20 0xFFFFFFFFFFFFFFFFFFFFFFFFFFFFFFFFFFFFFFFF PUSH1 0x1 SLOAD AND SWAP1 MLOAD SWAP1 DUP2 MSTORE RETURN JUMPDEST CALLVALUE PUSH2 0x360 JUMPI PUSH0 PUSH1 0x3 NOT CALLDATASIZE ADD SLT PUSH2 0x360 JUMPI PUSH2 0xE22 PUSH2 0x16CD JUMP JUMPDEST PUSH0 PUSH20 0xFFFFFFFFFFFFFFFFFFFFFFFFFFFFFFFFFFFFFFFF PUSH32 0x9016D09D72D40FDAE2FD8CEAC6B6234C7706214FD39C1CD1E609A0528C199300 DUP1 SLOAD SWAP1 PUSH20 0xFFFFFFFFFFFFFFFFFFFFFFFFFFFFFFFFFFFFFFFF NOT DUP3 AND SWAP1 SSTORE AND PUSH32 0x8BE0079C531659141344CD1FD0A4F28419497F9722A3DAAFE3B4186F6B6457E0 DUP3 DUP1 LOG3 STOP JUMPDEST CALLVALUE PUSH2 0x360 JUMPI PUSH1 0x20 PUSH1 0x3 NOT CALLDATASIZE ADD SLT PUSH2 0x360 JUMPI PUSH20 0xFFFFFFFFFFFFFFFFFFFFFFFFFFFFFFFFFFFFFFFF PUSH2 0xECB PUSH2 0x154C JUMP JUMPDEST PUSH2 0xED3 PUSH2 0x16CD JUMP JUMPDEST AND PUSH20 0xFFFFFFFFFFFFFFFFFFFFFFFFFFFFFFFFFFFFFFFF NOT PUSH1 0x7 SLOAD AND OR PUSH1 0x7 SSTORE PUSH0 DUP1 RETURN JUMPDEST DUP3 CALLVALUE PUSH2 0x360 JUMPI PUSH0 PUSH1 0x3 NOT CALLDATASIZE ADD SLT PUSH2 0x360 JUMPI PUSH1 0x20 SWAP1 PUSH20 0xFFFFFFFFFFFFFFFFFFFFFFFFFFFFFFFFFFFFFFFF PUSH1 0xC SLOAD AND SWAP1 MLOAD SWAP1 DUP2 MSTORE RETURN JUMPDEST DUP3 CALLVALUE PUSH2 0x360 JUMPI PUSH0 PUSH1 0x3 NOT CALLDATASIZE ADD SLT PUSH2 0x360 JUMPI PUSH1 0x20 SWAP1 PUSH20 0xFFFFFFFFFFFFFFFFFFFFFFFFFFFFFFFFFFFFFFFF PUSH1 0x3 SLOAD AND SWAP1 MLOAD SWAP1 DUP2 MSTORE RETURN JUMPDEST CALLVALUE PUSH2 0x360 JUMPI PUSH1 0x20 PUSH1 0x3 NOT CALLDATASIZE ADD SLT PUSH2 0x360 JUMPI PUSH20 0xFFFFFFFFFFFFFFFFFFFFFFFFFFFFFFFFFFFFFFFF PUSH2 0xF8C PUSH2 0x154C JUMP JUMPDEST PUSH2 0xF94 PUSH2 0x16CD JUMP JUMPDEST AND PUSH20 0xFFFFFFFFFFFFFFFFFFFFFFFFFFFFFFFFFFFFFFFF NOT PUSH1 0x3 SLOAD AND OR PUSH1 0x3 SSTORE PUSH0 DUP1 RETURN JUMPDEST DUP3 CALLVALUE PUSH2 0x360 JUMPI PUSH0 PUSH1 0x3 NOT CALLDATASIZE ADD SLT PUSH2 0x360 JUMPI PUSH20 0xFFFFFFFFFFFFFFFFFFFFFFFFFFFFFFFFFFFFFFFF PUSH32 0x0 AND ADDRESS SUB PUSH2 0x102E JUMPI PUSH1 0x20 SWAP1 MLOAD PUSH32 0x360894A13BA1A3210667C828492DB98DCA3E2076CC3735A920A3CA505D382BBC DUP2 MSTORE RETURN JUMPDEST MLOAD PUSH32 0xE07C8DBA00000000000000000000000000000000000000000000000000000000 DUP2 MSTORE REVERT JUMPDEST SWAP1 POP DUP2 PUSH1 0x3 NOT CALLDATASIZE ADD SLT PUSH2 0x360 JUMPI PUSH2 0x1069 PUSH2 0x154C JUMP JUMPDEST PUSH1 0x24 SWAP3 DUP4 CALLDATALOAD PUSH8 0xFFFFFFFFFFFFFFFF DUP2 GT PUSH2 0x360 JUMPI CALLDATASIZE PUSH1 0x23 DUP3 ADD SLT ISZERO PUSH2 0x360 JUMPI DUP1 DUP5 ADD CALLDATALOAD PUSH2 0x1095 DUP2 PUSH2 0x15DD JUMP JUMPDEST SWAP4 PUSH2 0x10A2 DUP5 MLOAD SWAP6 DUP7 PUSH2 0x156F JUMP JUMPDEST DUP2 DUP6 MSTORE PUSH1 0x20 SWAP2 DUP3 DUP7 ADD SWAP4 CALLDATASIZE DUP10 DUP4 DUP4 ADD ADD GT PUSH2 0x360 JUMPI DUP2 PUSH0 SWAP3 DUP11 DUP7 SWAP4 ADD DUP8 CALLDATACOPY DUP8 ADD ADD MSTORE PUSH20 0xFFFFFFFFFFFFFFFFFFFFFFFFFFFFFFFFFFFFFFFF DUP1 PUSH32 0x0 AND DUP1 ADDRESS EQ SWAP1 DUP2 ISZERO PUSH2 0x132A JUMPI JUMPDEST POP PUSH2 0x1302 JUMPI PUSH2 0x1114 PUSH2 0x16CD JUMP JUMPDEST DUP2 AND SWAP5 DUP5 MLOAD PUSH32 0x52D1902D00000000000000000000000000000000000000000000000000000000 DUP2 MSTORE DUP4 DUP2 DUP10 DUP2 DUP11 GAS STATICCALL PUSH0 SWAP2 DUP2 PUSH2 0x12D3 JUMPI JUMPDEST POP PUSH2 0x117F JUMPI POP POP POP POP POP MLOAD SWAP2 PUSH32 0x4C9C8CE300000000000000000000000000000000000000000000000000000000 DUP4 MSTORE DUP3 ADD MSTORE REVERT JUMPDEST SWAP1 DUP8 DUP8 DUP8 SWAP5 SWAP4 DUP12 PUSH32 0x360894A13BA1A3210667C828492DB98DCA3E2076CC3735A920A3CA505D382BBC SWAP2 DUP3 DUP2 SUB PUSH2 0x12A6 JUMPI POP DUP6 EXTCODESIZE ISZERO PUSH2 0x1279 JUMPI POP DUP2 PUSH20 0xFFFFFFFFFFFFFFFFFFFFFFFFFFFFFFFFFFFFFFFF NOT DUP3 SLOAD AND OR SWAP1 SSTORE DUP5 MLOAD SWAP1 PUSH32 0xBC7CD75A20EE27FD9ADEBAB32041F755214DBC6BFFA90CC0225B39DA2E5C2D3B PUSH0 DUP1 LOG2 DUP3 MLOAD ISZERO PUSH2 0x1246 JUMPI POP POP PUSH0 PUSH2 0x470 SWAP6 DUP2 SWAP3 MLOAD SWAP1 DUP5 GAS DELEGATECALL SWAP2 RETURNDATASIZE ISZERO PUSH2 0x123C JUMPI RETURNDATASIZE PUSH2 0x122E PUSH2 0x1225 DUP3 PUSH2 0x15DD JUMP JUMPDEST SWAP3 MLOAD SWAP3 DUP4 PUSH2 0x156F JUMP JUMPDEST DUP2 MSTORE PUSH0 DUP2 SWAP5 RETURNDATASIZE SWAP3 ADD RETURNDATACOPY PUSH2 0x1796 JUMP JUMPDEST POP PUSH1 0x60 SWAP3 POP PUSH2 0x1796 JUMP JUMPDEST SWAP5 POP SWAP5 POP POP POP POP CALLVALUE PUSH2 0x1254 JUMPI STOP JUMPDEST PUSH32 0xB398979F00000000000000000000000000000000000000000000000000000000 DUP2 MSTORE REVERT JUMPDEST DUP4 DUP4 DUP9 MLOAD SWAP2 PUSH32 0x4C9C8CE300000000000000000000000000000000000000000000000000000000 DUP4 MSTORE DUP3 ADD MSTORE REVERT JUMPDEST DUP5 SWAP1 DUP9 MLOAD SWAP2 PUSH32 0xAA1D49A400000000000000000000000000000000000000000000000000000000 DUP4 MSTORE DUP3 ADD MSTORE REVERT JUMPDEST SWAP1 SWAP2 POP DUP5 DUP2 DUP2 RETURNDATASIZE DUP4 GT PUSH2 0x12FB JUMPI JUMPDEST PUSH2 0x12EB DUP2 DUP4 PUSH2 0x156F JUMP JUMPDEST DUP2 ADD SUB SLT PUSH2 0x360 JUMPI MLOAD SWAP1 PUSH0 PUSH2 0x114B JUMP JUMPDEST POP RETURNDATASIZE PUSH2 0x12E1 JUMP JUMPDEST DUP7 DUP6 MLOAD PUSH32 0xE07C8DBA00000000000000000000000000000000000000000000000000000000 DUP2 MSTORE REVERT JUMPDEST SWAP1 POP DUP2 PUSH32 0x360894A13BA1A3210667C828492DB98DCA3E2076CC3735A920A3CA505D382BBC SLOAD AND EQ ISZERO PUSH0 PUSH2 0x1107 JUMP JUMPDEST DUP3 CALLVALUE PUSH2 0x360 JUMPI PUSH0 PUSH1 0x3 NOT CALLDATASIZE ADD SLT PUSH2 0x360 JUMPI PUSH20 0xFFFFFFFFFFFFFFFFFFFFFFFFFFFFFFFFFFFFFFFF PUSH1 0x20 SWAP3 SLOAD AND SWAP1 MLOAD SWAP1 DUP2 MSTORE RETURN JUMPDEST CALLVALUE PUSH2 0x360 JUMPI PUSH1 0x20 PUSH1 0x3 NOT CALLDATASIZE ADD SLT PUSH2 0x360 JUMPI PUSH20 0xFFFFFFFFFFFFFFFFFFFFFFFFFFFFFFFFFFFFFFFF PUSH2 0x13B8 PUSH2 0x154C JUMP JUMPDEST PUSH2 0x13C0 PUSH2 0x16CD JUMP JUMPDEST AND PUSH20 0xFFFFFFFFFFFFFFFFFFFFFFFFFFFFFFFFFFFFFFFF NOT PUSH1 0x6 SLOAD AND OR PUSH1 0x6 SSTORE PUSH0 DUP1 RETURN JUMPDEST DUP3 CALLVALUE PUSH2 0x360 JUMPI PUSH0 PUSH1 0x3 NOT CALLDATASIZE ADD SLT PUSH2 0x360 JUMPI PUSH1 0x20 SWAP1 PUSH20 0xFFFFFFFFFFFFFFFFFFFFFFFFFFFFFFFFFFFFFFFF PUSH1 0x6 SLOAD AND SWAP1 MLOAD SWAP1 DUP2 MSTORE RETURN JUMPDEST DUP3 CALLVALUE PUSH2 0x360 JUMPI PUSH0 PUSH1 0x3 NOT CALLDATASIZE ADD SLT PUSH2 0x360 JUMPI PUSH1 0x20 SWAP1 PUSH20 0xFFFFFFFFFFFFFFFFFFFFFFFFFFFFFFFFFFFFFFFF PUSH1 0xA SLOAD AND SWAP1 MLOAD SWAP1 DUP2 MSTORE RETURN JUMPDEST CALLVALUE PUSH2 0x360 JUMPI PUSH1 0x20 PUSH1 0x3 NOT CALLDATASIZE ADD SLT PUSH2 0x360 JUMPI PUSH2 0x1464 PUSH2 0x16CD JUMP JUMPDEST CALLDATALOAD PUSH1 0x14 SSTORE STOP JUMPDEST CALLVALUE PUSH2 0x360 JUMPI PUSH1 0x20 PUSH1 0x3 NOT CALLDATASIZE ADD SLT PUSH2 0x360 JUMPI PUSH20 0xFFFFFFFFFFFFFFFFFFFFFFFFFFFFFFFFFFFFFFFF PUSH2 0x1498 PUSH2 0x154C JUMP JUMPDEST PUSH2 0x14A0 PUSH2 0x16CD JUMP JUMPDEST AND PUSH20 0xFFFFFFFFFFFFFFFFFFFFFFFFFFFFFFFFFFFFFFFF NOT PUSH1 0x15 SLOAD AND OR PUSH1 0x15 SSTORE PUSH0 DUP1 RETURN JUMPDEST CALLVALUE PUSH2 0x360 JUMPI PUSH1 0x20 PUSH1 0x3 NOT CALLDATASIZE ADD SLT PUSH2 0x360 JUMPI PUSH20 0xFFFFFFFFFFFFFFFFFFFFFFFFFFFFFFFFFFFFFFFF PUSH2 0x14F1 PUSH2 0x154C JUMP JUMPDEST PUSH2 0x14F9 PUSH2 0x16CD JUMP JUMPDEST AND PUSH20 0xFFFFFFFFFFFFFFFFFFFFFFFFFFFFFFFFFFFFFFFF NOT PUSH1 0x5 SLOAD AND OR PUSH1 0x5 SSTORE PUSH0 DUP1 RETURN JUMPDEST CALLVALUE PUSH2 0x360 JUMPI PUSH0 PUSH1 0x3 NOT CALLDATASIZE ADD SLT PUSH2 0x360 JUMPI PUSH1 0x20 SWAP1 PUSH20 0xFFFFFFFFFFFFFFFFFFFFFFFFFFFFFFFFFFFFFFFF PUSH1 0xA SLOAD AND DUP2 MSTORE RETURN JUMPDEST PUSH1 0x4 CALLDATALOAD SWAP1 PUSH20 0xFFFFFFFFFFFFFFFFFFFFFFFFFFFFFFFFFFFFFFFF DUP3 AND DUP3 SUB PUSH2 0x360 JUMPI JUMP JUMPDEST SWAP1 PUSH1 0x1F PUSH32 0xFFFFFFFFFFFFFFFFFFFFFFFFFFFFFFFFFFFFFFFFFFFFFFFFFFFFFFFFFFFFFFE0 SWAP2 ADD AND DUP2 ADD SWAP1 DUP2 LT PUSH8 0xFFFFFFFFFFFFFFFF DUP3 GT OR PUSH2 0x15B0 JUMPI PUSH1 0x40 MSTORE JUMP JUMPDEST PUSH32 0x4E487B7100000000000000000000000000000000000000000000000000000000 PUSH0 MSTORE PUSH1 0x41 PUSH1 0x4 MSTORE PUSH1 0x24 PUSH0 REVERT JUMPDEST PUSH8 0xFFFFFFFFFFFFFFFF DUP2 GT PUSH2 0x15B0 JUMPI PUSH1 0x1F ADD PUSH32 0xFFFFFFFFFFFFFFFFFFFFFFFFFFFFFFFFFFFFFFFFFFFFFFFFFFFFFFFFFFFFFFE0 AND PUSH1 0x20 ADD SWAP1 JUMP JUMPDEST PUSH20 0xFFFFFFFFFFFFFFFFFFFFFFFFFFFFFFFFFFFFFFFF DUP1 SWAP2 AND SWAP1 DUP2 ISZERO PUSH2 0x169D JUMPI PUSH32 0x9016D09D72D40FDAE2FD8CEAC6B6234C7706214FD39C1CD1E609A0528C199300 DUP1 SLOAD SWAP1 DUP4 PUSH20 0xFFFFFFFFFFFFFFFFFFFFFFFFFFFFFFFFFFFFFFFF NOT DUP4 AND OR SWAP1 SSTORE AND PUSH32 0x8BE0079C531659141344CD1FD0A4F28419497F9722A3DAAFE3B4186F6B6457E0 PUSH0 DUP1 LOG3 JUMP JUMPDEST PUSH1 0x24 PUSH1 0x40 MLOAD PUSH32 0x1E4FBDF700000000000000000000000000000000000000000000000000000000 DUP2 MSTORE PUSH0 PUSH1 0x4 DUP3 ADD MSTORE REVERT JUMPDEST PUSH20 0xFFFFFFFFFFFFFFFFFFFFFFFFFFFFFFFFFFFFFFFF PUSH32 0x9016D09D72D40FDAE2FD8CEAC6B6234C7706214FD39C1CD1E609A0528C199300 SLOAD AND CALLER SUB PUSH2 0x170D JUMPI JUMP JUMPDEST PUSH1 0x24 PUSH1 0x40 MLOAD PUSH32 0x118CDAA700000000000000000000000000000000000000000000000000000000 DUP2 MSTORE CALLER PUSH1 0x4 DUP3 ADD MSTORE REVERT JUMPDEST PUSH1 0xFF PUSH32 0xF0C57E16840DF040F15088DC2F81FE391C3923BEC73E23A9662EFC9C229C6A00 SLOAD PUSH1 0x40 SHR AND ISZERO PUSH2 0x176C JUMPI JUMP JUMPDEST PUSH1 0x4 PUSH1 0x40 MLOAD PUSH32 0xD7E6BCF800000000000000000000000000000000000000000000000000000000 DUP2 MSTORE REVERT JUMPDEST SWAP1 PUSH2 0x17D5 JUMPI POP DUP1 MLOAD ISZERO PUSH2 0x17AB JUMPI DUP1 MLOAD SWAP1 PUSH1 0x20 ADD REVERT JUMPDEST PUSH1 0x4 PUSH1 0x40 MLOAD PUSH32 0x1425EA4200000000000000000000000000000000000000000000000000000000 DUP2 MSTORE REVERT JUMPDEST DUP2 MLOAD ISZERO DUP1 PUSH2 0x182D JUMPI JUMPDEST PUSH2 0x17E6 JUMPI POP SWAP1 JUMP JUMPDEST PUSH1 0x24 SWAP1 PUSH20 0xFFFFFFFFFFFFFFFFFFFFFFFFFFFFFFFFFFFFFFFF PUSH1 0x40 MLOAD SWAP2 PUSH32 0x9996B31500000000000000000000000000000000000000000000000000000000 DUP4 MSTORE AND PUSH1 0x4 DUP3 ADD MSTORE REVERT JUMPDEST POP DUP1 EXTCODESIZE ISZERO PUSH2 0x17DE JUMP INVALID LOG2 PUSH5 0x6970667358 0x22 SLT KECCAK256 0xEF PUSH3 0xC2406B 0xE6 0xD7 0xBE 0xCE ISZERO LOG4 0xC3 PUSH1 0xF4 0xCB SWAP14 PC SLT 0xB8 LT PUSH8 0x891C166FC3E6B296 SUB PUSH8 0x5264736F6C634300 ADDMOD NOT STOP CALLER "},"gasEstimates":{"creation":{"codeDepositCost":"1250400","executionCost":"infinite","totalCost":"infinite"},"external":{"UPGRADE_INTERFACE_VERSION()":"1333","USDC()":"3047","WNATIVE()":"3289","_1inchSpotAgg()":"2915","_BPS_BASE()":"2997","_BPS_FEE()":"3371","_MAX_BPS_FEE()":"2491","_REBALANCE_THRESHOLD()":"3173","baluniAgentFactory()":"2343","baluniDCAVaultRegistry()":"3619","baluniOracle()":"2607","baluniPoolPeriphery()":"2783","baluniPoolRegistry()":"2626","baluniRebalancer()":"3333","baluniRegistry()":"3641","baluniRouter()":"2519","baluniSwapper()":"2937","baluniYearnVaultRegistry()":"2263","get1inchSpotAgg()":"3113","getBPS_BASE()":"2689","getBPS_FEE()":"3019","getBaluniAgentFactory()":"3773","getBaluniDCAVaultRegistry()":"3813","getBaluniOracle()":"3421","getBaluniPoolPeriphery()":"2365","getBaluniPoolRegistry()":"2472","getBaluniRebalancer()":"3553","getBaluniRegistry()":"3509","getBaluniRouter()":"2321","getBaluniSwapper()":"2981","getBaluniYearnVaultRegistry()":"2453","getMAX_BPS_FEE()":"3129","getREBALANCE_THRESHOLD()":"3657","getStaticOracle()":"3223","getTreasury()":"2541","getUSDC()":"2387","getUniswapFactory()":"2562","getUniswapQuoter()":"3267","getUniswapRouter()":"2717","getWNATIVE()":"2849","initialize()":"infinite","owner()":"3091","proxiableUUID()":"infinite","renounceOwnership()":"28624","set1inchSpotAgg(address)":"27768","setBPS_FEE(uint256)":"25320","setBaluniAgentFactory(address)":"28010","setBaluniDCAVaultRegistry(address)":"27878","setBaluniOracle(address)":"28054","setBaluniPoolPeriphery(address)":"27064","setBaluniPoolRegistry(address)":"28096","setBaluniRebalancer(address)":"26602","setBaluniRegistry(address)":"27130","setBaluniRouter(address)":"26888","setBaluniSwapper(address)":"27790","setBaluniYearnVaultRegistry(address)":"27702","setREBALANCE_THRESHOLD(uint256)":"24550","setStaticOracle(address)":"27834","setTreasury(address)":"27988","setUSDC(address)":"27614","setUniswapFactory(address)":"27898","setUniswapQuoter(address)":"26712","setUniswapRouter(address)":"27746","setWNATIVE(address)":"27658","staticOracle()":"3157","transferOwnership(address)":"29602","treasury()":"2805","uniswapFactory()":"3068","uniswapQuoter()":"2651","uniswapRouter()":"2893","upgradeToAndCall(address,bytes)":"infinite"},"internal":{"_authorizeUpgrade(address)":"infinite"}},"methodIdentifiers":{"UPGRADE_INTERFACE_VERSION()":"ad3cb1cc","USDC()":"89a30271","WNATIVE()":"b381cf40","_1inchSpotAgg()":"782dd902","_BPS_BASE()":"85377188","_BPS_FEE()":"b9f5e617","_MAX_BPS_FEE()":"34decfc9","_REBALANCE_THRESHOLD()":"99c22ca6","baluniAgentFactory()":"1292f02e","baluniDCAVaultRegistry()":"e23d837b","baluniOracle()":"468a7071","baluniPoolPeriphery()":"58a67233","baluniPoolRegistry()":"4b66a135","baluniRebalancer()":"b691a419","baluniRegistry()":"e528ca12","baluniRouter()":"39b65140","baluniSwapper()":"7dfb7ea1","baluniYearnVaultRegistry()":"0218ecd6","get1inchSpotAgg()":"8e1c3a8a","getBPS_BASE()":"4f4608a2","getBPS_FEE()":"85462d6f","getBaluniAgentFactory()":"f5d2d998","getBaluniDCAVaultRegistry()":"ffa08e95","getBaluniOracle()":"bb3ba04c","getBaluniPoolPeriphery()":"1acb6141","getBaluniPoolRegistry()":"32569e02","getBaluniRebalancer()":"cff49d68","getBaluniRegistry()":"c9aba8ae","getBaluniRouter()":"04cc7325","getBaluniSwapper()":"82755ebb","getBaluniYearnVaultRegistry()":"32327d1f","getMAX_BPS_FEE()":"9380fb6f","getREBALANCE_THRESHOLD()":"ea233c05","getStaticOracle()":"a5d2236f","getTreasury()":"3b19e84a","getUSDC()":"1bf01e9b","getUniswapFactory()":"3e6dfa36","getUniswapQuoter()":"b0a70975","getUniswapRouter()":"524900b5","getWNATIVE()":"6c9c0078","initialize()":"8129fc1c","owner()":"8da5cb5b","proxiableUUID()":"52d1902d","renounceOwnership()":"715018a6","set1inchSpotAgg(address)":"c08f786b","setBPS_FEE(uint256)":"9e6453f8","setBaluniAgentFactory(address)":"f1dccde7","setBaluniDCAVaultRegistry(address)":"d7e53673","setBaluniOracle(address)":"f5b84f64","setBaluniPoolPeriphery(address)":"588c5b70","setBaluniPoolRegistry(address)":"f98977a9","setBaluniRebalancer(address)":"0241bffa","setBaluniRegistry(address)":"6c43274c","setBaluniRouter(address)":"400fb668","setBaluniSwapper(address)":"c3f5df5c","setBaluniYearnVaultRegistry(address)":"ba535c54","setREBALANCE_THRESHOLD(uint256)":"2da52442","setStaticOracle(address)":"cc01e9a6","setTreasury(address)":"f0f44260","setUSDC(address)":"b3e089a2","setUniswapFactory(address)":"e04b677f","setUniswapQuoter(address)":"26158136","setUniswapRouter(address)":"bea9849e","setWNATIVE(address)":"b6fe9cc7","staticOracle()":"9454705f","transferOwnership(address)":"f2fde38b","treasury()":"61d027b3","uniswapFactory()":"8bdb2afa","uniswapQuoter()":"4db4a352","uniswapRouter()":"735de9f7","upgradeToAndCall(address,bytes)":"4f1ef286"}},"storageLayout":{"storage":[{"astId":1592,"contract":"contracts/registry/BaluniV1Registry.sol:BaluniV1Registry","label":"uniswapFactory","offset":0,"slot":"0","type":"t_address"},{"astId":1594,"contract":"contracts/registry/BaluniV1Registry.sol:BaluniV1Registry","label":"uniswapRouter","offset":0,"slot":"1","type":"t_address"},{"astId":1596,"contract":"contracts/registry/BaluniV1Registry.sol:BaluniV1Registry","label":"baluniAgentFactory","offset":0,"slot":"2","type":"t_address"},{"astId":1598,"contract":"contracts/registry/BaluniV1Registry.sol:BaluniV1Registry","label":"baluniPoolPeriphery","offset":0,"slot":"3","type":"t_address"},{"astId":1600,"contract":"contracts/registry/BaluniV1Registry.sol:BaluniV1Registry","label":"baluniPoolRegistry","offset":0,"slot":"4","type":"t_address"},{"astId":1602,"contract":"contracts/registry/BaluniV1Registry.sol:BaluniV1Registry","label":"baluniRebalancer","offset":0,"slot":"5","type":"t_address"},{"astId":1604,"contract":"contracts/registry/BaluniV1Registry.sol:BaluniV1Registry","label":"baluniRouter","offset":0,"slot":"6","type":"t_address"},{"astId":1606,"contract":"contracts/registry/BaluniV1Registry.sol:BaluniV1Registry","label":"baluniRegistry","offset":0,"slot":"7","type":"t_address"},{"astId":1608,"contract":"contracts/registry/BaluniV1Registry.sol:BaluniV1Registry","label":"baluniOracle","offset":0,"slot":"8","type":"t_address"},{"astId":1610,"contract":"contracts/registry/BaluniV1Registry.sol:BaluniV1Registry","label":"baluniSwapper","offset":0,"slot":"9","type":"t_address"},{"astId":1612,"contract":"contracts/registry/BaluniV1Registry.sol:BaluniV1Registry","label":"baluniYearnVaultRegistry","offset":0,"slot":"10","type":"t_address"},{"astId":1614,"contract":"contracts/registry/BaluniV1Registry.sol:BaluniV1Registry","label":"baluniDCAVaultRegistry","offset":0,"slot":"11","type":"t_address"},{"astId":1616,"contract":"contracts/registry/BaluniV1Registry.sol:BaluniV1Registry","label":"treasury","offset":0,"slot":"12","type":"t_address"},{"astId":1618,"contract":"contracts/registry/BaluniV1Registry.sol:BaluniV1Registry","label":"staticOracle","offset":0,"slot":"13","type":"t_address"},{"astId":1620,"contract":"contracts/registry/BaluniV1Registry.sol:BaluniV1Registry","label":"WNATIVE","offset":0,"slot":"14","type":"t_address"},{"astId":1622,"contract":"contracts/registry/BaluniV1Registry.sol:BaluniV1Registry","label":"USDC","offset":0,"slot":"15","type":"t_address"},{"astId":1624,"contract":"contracts/registry/BaluniV1Registry.sol:BaluniV1Registry","label":"_1inchSpotAgg","offset":0,"slot":"16","type":"t_address"},{"astId":1626,"contract":"contracts/registry/BaluniV1Registry.sol:BaluniV1Registry","label":"_MAX_BPS_FEE","offset":0,"slot":"17","type":"t_uint256"},{"astId":1628,"contract":"contracts/registry/BaluniV1Registry.sol:BaluniV1Registry","label":"_BPS_FEE","offset":0,"slot":"18","type":"t_uint256"},{"astId":1630,"contract":"contracts/registry/BaluniV1Registry.sol:BaluniV1Registry","label":"_BPS_BASE","offset":0,"slot":"19","type":"t_uint256"},{"astId":1632,"contract":"contracts/registry/BaluniV1Registry.sol:BaluniV1Registry","label":"_REBALANCE_THRESHOLD","offset":0,"slot":"20","type":"t_uint256"},{"astId":2109,"contract":"contracts/registry/BaluniV1Registry.sol:BaluniV1Registry","label":"uniswapQuoter","offset":0,"slot":"21","type":"t_address"}],"types":{"t_address":{"encoding":"inplace","label":"address","numberOfBytes":"20"},"t_uint256":{"encoding":"inplace","label":"uint256","numberOfBytes":"32"}}},"userdoc":{"kind":"user","methods":{},"version":1}}}}