{"contracts/mock/MockRebalancer.sol":{"MockRebalancer":{"abi":[{"inputs":[{"internalType":"address","name":"usdt","type":"address"},{"internalType":"address","name":"_usdc","type":"address"},{"internalType":"address","name":"_wmatic","type":"address"},{"internalType":"address","name":"weth","type":"address"},{"internalType":"address","name":"wbtc","type":"address"}],"stateMutability":"nonpayable","type":"constructor"},{"inputs":[],"name":"USDC","outputs":[{"internalType":"address","name":"","type":"address"}],"stateMutability":"view","type":"function"},{"inputs":[],"name":"USDC_TO_USDT_RATE","outputs":[{"internalType":"uint256","name":"","type":"uint256"}],"stateMutability":"view","type":"function"},{"inputs":[],"name":"USDC_TO_WBTC_RATE","outputs":[{"internalType":"uint256","name":"","type":"uint256"}],"stateMutability":"view","type":"function"},{"inputs":[],"name":"USDC_TO_WETH_RATE","outputs":[{"internalType":"uint256","name":"","type":"uint256"}],"stateMutability":"view","type":"function"},{"inputs":[],"name":"USDC_TO_WMATIC_RATE","outputs":[{"internalType":"uint256","name":"","type":"uint256"}],"stateMutability":"view","type":"function"},{"inputs":[],"name":"USDT_TO_USDC_RATE","outputs":[{"internalType":"uint256","name":"","type":"uint256"}],"stateMutability":"view","type":"function"},{"inputs":[],"name":"USDT_TO_WBTC_RATE","outputs":[{"internalType":"uint256","name":"","type":"uint256"}],"stateMutability":"view","type":"function"},{"inputs":[],"name":"USDT_TO_WETH_RATE","outputs":[{"internalType":"uint256","name":"","type":"uint256"}],"stateMutability":"view","type":"function"},{"inputs":[],"name":"USDT_TO_WMATIC_RATE","outputs":[{"internalType":"uint256","name":"","type":"uint256"}],"stateMutability":"view","type":"function"},{"inputs":[],"name":"WBTC_TO_USDC_RATE","outputs":[{"internalType":"uint256","name":"","type":"uint256"}],"stateMutability":"view","type":"function"},{"inputs":[],"name":"WBTC_TO_USDT_RATE","outputs":[{"internalType":"uint256","name":"","type":"uint256"}],"stateMutability":"view","type":"function"},{"inputs":[],"name":"WBTC_TO_WETH_RATE","outputs":[{"internalType":"uint256","name":"","type":"uint256"}],"stateMutability":"view","type":"function"},{"inputs":[],"name":"WBTC_TO_WMATIC_RATE","outputs":[{"internalType":"uint256","name":"","type":"uint256"}],"stateMutability":"view","type":"function"},{"inputs":[],"name":"WETH_TO_USDC_RATE","outputs":[{"internalType":"uint256","name":"","type":"uint256"}],"stateMutability":"view","type":"function"},{"inputs":[],"name":"WETH_TO_USDT_RATE","outputs":[{"internalType":"uint256","name":"","type":"uint256"}],"stateMutability":"view","type":"function"},{"inputs":[],"name":"WETH_TO_WBTC_RATE","outputs":[{"internalType":"uint256","name":"","type":"uint256"}],"stateMutability":"view","type":"function"},{"inputs":[],"name":"WETH_TO_WMATIC_RATE","outputs":[{"internalType":"uint256","name":"","type":"uint256"}],"stateMutability":"view","type":"function"},{"inputs":[],"name":"WMATIC_TO_USDC_RATE","outputs":[{"internalType":"uint256","name":"","type":"uint256"}],"stateMutability":"view","type":"function"},{"inputs":[],"name":"WMATIC_TO_USDT_RATE","outputs":[{"internalType":"uint256","name":"","type":"uint256"}],"stateMutability":"view","type":"function"},{"inputs":[],"name":"WMATIC_TO_WBTC_RATE","outputs":[{"internalType":"uint256","name":"","type":"uint256"}],"stateMutability":"view","type":"function"},{"inputs":[],"name":"WMATIC_TO_WETH_RATE","outputs":[{"internalType":"uint256","name":"","type":"uint256"}],"stateMutability":"view","type":"function"},{"inputs":[],"name":"WNATIVE","outputs":[{"internalType":"address","name":"","type":"address"}],"stateMutability":"view","type":"function"},{"inputs":[{"internalType":"address[]","name":"","type":"address[]"},{"internalType":"uint256[]","name":"","type":"uint256[]"},{"internalType":"uint256[]","name":"","type":"uint256[]"}],"name":"checkRebalance","outputs":[{"internalType":"bool","name":"","type":"bool"}],"stateMutability":"view","type":"function"},{"inputs":[{"internalType":"address","name":"fromToken","type":"address"},{"internalType":"address","name":"toToken","type":"address"},{"internalType":"uint256","name":"amount","type":"uint256"}],"name":"convert","outputs":[{"internalType":"uint256","name":"","type":"uint256"}],"stateMutability":"view","type":"function"},{"inputs":[],"name":"getBaluniRouter","outputs":[{"internalType":"address","name":"","type":"address"}],"stateMutability":"view","type":"function"},{"inputs":[{"internalType":"contract IERC20","name":"fromToken","type":"address"},{"internalType":"contract IERC20","name":"toToken","type":"address"},{"internalType":"bool","name":"","type":"bool"}],"name":"getRate","outputs":[{"internalType":"uint256","name":"","type":"uint256"}],"stateMutability":"view","type":"function"},{"inputs":[{"internalType":"contract IERC20","name":"fromToken","type":"address"},{"internalType":"bool","name":"","type":"bool"}],"name":"getRateToEth","outputs":[{"internalType":"uint256","name":"","type":"uint256"}],"stateMutability":"view","type":"function"},{"inputs":[],"name":"getTreasury","outputs":[{"internalType":"address","name":"","type":"address"}],"stateMutability":"view","type":"function"},{"inputs":[{"internalType":"address","name":"","type":"address"},{"internalType":"address","name":"","type":"address"}],"name":"rates","outputs":[{"internalType":"uint256","name":"","type":"uint256"}],"stateMutability":"view","type":"function"},{"inputs":[{"internalType":"address[]","name":"","type":"address[]"},{"internalType":"uint256[]","name":"","type":"uint256[]"},{"internalType":"address","name":"","type":"address"},{"internalType":"address","name":"","type":"address"},{"internalType":"uint256","name":"","type":"uint256"}],"name":"rebalance","outputs":[],"stateMutability":"nonpayable","type":"function"},{"inputs":[{"internalType":"address","name":"fromToken","type":"address"},{"internalType":"address","name":"toToken","type":"address"},{"internalType":"uint256","name":"rate","type":"uint256"}],"name":"setRate","outputs":[],"stateMutability":"nonpayable","type":"function"},{"inputs":[{"internalType":"address","name":"_treasury","type":"address"}],"name":"setTreasury","outputs":[],"stateMutability":"nonpayable","type":"function"},{"inputs":[],"name":"treasury","outputs":[{"internalType":"address","name":"","type":"address"}],"stateMutability":"view","type":"function"}],"devdoc":{"kind":"dev","methods":{},"version":1},"evm":{"bytecode":{"linkReferences":{},"object":"60803461030e57601f610d5038819003918201601f191683019291906001600160401b03841183851017610312578160a0928492604096875283398101031261030e5761004b81610326565b9060209061005a828201610326565b92610066858301610326565b9361007f608061007860608601610326565b9401610326565b9460018060a01b0390818060018060a01b03199481600294168685541617845516946001948681875416178655339060035416176003551693845f525f8752885f20905f528652670ddbb3130051477a885f2055835f525f8652875f20828254165f5286526c110f11bc46bc3efcc5b8ff1223885f2055835f525f865281885f20971696875f52865266052de6f3e9958f885f2055835f525f865281885f20951694855f5286526ad47d67cce9223fad7de347885f2055865f525f8652875f20845f5286526824efc5d2223b2ab2b2885f2055865f525f8652875f20828254165f5286526d2d9856fc421a9fd095f8b44c49db885f2055865f525f8652875f20828454165f528652682506936e734ac2f926885f2055865f525f8652875f20855f5286526c0236febc16a26943df322289be885f2055818354165f525f8652875f20845f528652670de435a2a433cf48885f2055818354165f525f8652875f20875f528652660533304f826d31885f2055818354165f525f8652875f20828254165f5286526c110dcba2e6f97b2a41a7eba1b8885f2055818354165f525f8652875f20855f5286526ad4801858112018c8850bae885f2055818154165f525f8652875f20875f528652610438885f2055818154165f525f8652875f20855f52865265ac76a57eb9a4885f2055818154165f525f8652875f20828454165f528652620b32d1885f2055818154165f525f8652875f20845f528652620b68f7885f2055845f525f865281885f209154165f52855269011de1930ce9ab44b5a1875f2055835f525f8552865f209154165f52835263e4ac05169081865f2055825f525f8452855f20905f528352845f20555f525f8152825f20915f52526254dddd815f205551610a15908161033b8239f35b5f80fd5b634e487b7160e01b5f52604160045260245ffd5b51906001600160a01b038216820361030e5756fe60806040818152600480361015610014575f80fd5b5f3560e01c92836302098719146106f45750826304cc7325146106da5782630e091762146106bd578263187029b8146106a157826318cdc49a146106335782631a1e4a1f1461060c578263248391ff146105ea5782633b19e84a146104c85782634039e687146105cc57826343146399146105af578263443dc7891461058a5782635107e94e1461056357826353ff493e146105405782635911fb9a1461050e5782635fc8cd69146104f057826361d027b3146104c85782637b0cf44d146104805782637de4fd101461042e578263802431fb146103da57826384db1dfb1461036e5750816389a30271146103475781638e5139ed1461032057816397db8e0214610300578163a58a7f8a146102df578163ae3bcc96146102c0578163b381cf4014610299578163b537d24b14610278578163b9e9381014610252578163c018498314610236578163d135e3be14610214578163e2338e72146101f0578163e30f6892146101cd575063f0f442601461018b575f80fd5b346101c95760203660031901126101c9576001600160a01b036101ac610744565b166bffffffffffffffffffffffff60a01b60035416176003555f80f35b5f80fd5b346101c9575f3660031901126101c9576020905169011de1930ce9ab44b5a18152f35b346101c9575f3660031901126101c957602090516ad4801858112018c8850bae8152f35b346101c9575f3660031901126101c957602090516824efc5d2223b2ab2b28152f35b346101c9575f3660031901126101c95760209051620b32d18152f35b346101c9575f3660031901126101c957602090516c0236febc16a26943df322289be8152f35b346101c9575f3660031901126101c95760209051670de435a2a433cf488152f35b346101c9575f3660031901126101c95760025490516001600160a01b039091168152602090f35b346101c9575f3660031901126101c9576020905165ac76a57eb9a48152f35b346101c9575f3660031901126101c95760209051670ddbb3130051477a8152f35b346101c9575f3660031901126101c9576020905166052de6f3e9958f8152f35b346101c9575f3660031901126101c957602090516d2d9856fc421a9fd095f8b44c49db8152f35b346101c9575f3660031901126101c95760015490516001600160a01b039091168152602090f35b346101c95760a03660031901126101c95767ffffffffffffffff9080358281116101c95761039f9036908301610713565b50506024359182116101c9576103b791369101610713565b506001600160a01b039050604435818116036101c957606435908116036101c957005b50346101c95760603660031901126101c9576103f4610744565b906103fd61075a565b604435801515036101c95760209260018060a01b038091165f525f8452825f2091165f528252805f20549051908152f35b50346101c957806003193601126101c957610447610744565b90602435801515036101c9576001600160a01b039182165f90815260208181528282206002549094168252928352819020549051908152f35b50346101c957806003193601126101c95760209061049c610744565b6104a461075a565b9060018060a01b038091165f525f8452825f2091165f528252805f20549051908152f35b50346101c9575f3660031901126101c95760035490516001600160a01b039091168152602090f35b50346101c9575f3660031901126101c9576020905163df77b36f8152f35b50346101c95761051d36610770565b929160018060a01b038091165f525f602052825f2091165f526020525f20555f80f35b50346101c9575f3660031901126101c95760209051682506936e734ac2f9268152f35b50346101c9575f3660031901126101c957602090516c110dcba2e6f97b2a41a7eba1b88152f35b50346101c9575f3660031901126101c957602090516ad47d67cce9223fad7de3478152f35b50346101c9575f3660031901126101c957602090516254dddd8152f35b50346101c9575f3660031901126101c9576020905163e4ac05168152f35b50346101c9576020906106056105ff36610770565b9161085e565b9051908152f35b50346101c9575f3660031901126101c957602090516c110f11bc46bc3efcc5b8ff12238152f35b90346101c95760603660031901126101c95767ffffffffffffffff82358181116101c9576106649036908501610713565b50506024358181116101c95761067d9036908501610713565b50506044359081116101c95760209261069891369101610713565b50505160018152f35b50346101c9575f3660031901126101c957602090516104388152f35b50346101c9575f3660031901126101c95760209051620b68f78152f35b50346101c9575f3660031901126101c957602090515f8152f35b346101c9575f3660031901126101c95780660533304f826d3160209252f35b9181601f840112156101c95782359167ffffffffffffffff83116101c9576020808501948460051b0101116101c957565b600435906001600160a01b03821682036101c957565b602435906001600160a01b03821682036101c957565b60609060031901126101c9576001600160a01b039060043582811681036101c9579160243590811681036101c9579060443590565b90601f8019910116810190811067ffffffffffffffff8211176107c757604052565b634e487b7160e01b5f52604160045260245ffd5b908160209103126101c9575160ff811681036101c95790565b60ff16604d811161080557600a0a90565b634e487b7160e01b5f52601160045260245ffd5b8181029291811591840414171561080557565b8115610836570490565b634e487b7160e01b5f52601260045260245ffd5b9060ff8091169116039060ff821161080557565b6040805163313ce56760e01b808252949390926001600160a01b03908116926020929091908386600481885afa9586156109d5575f966109b6575b501681519687528287600481845afa9687156109ac575f9761096f575b50916108e9916108ee94936108ca876107f4565b926108d48a6107f4565b955f525f8152825f20915f52525f2054610819565b61082c565b92670de0b6b3a764000093846109048286610819565b049360ff83169160ff85169183831461095b575094955011925061093791831561095257906109329161084a565b6107f4565b9015610949576109469161082c565b90565b61094691610819565b6109329161084a565b93509350505061096b9250610819565b0490565b839197509161099a6108e9936108ee96953d85116109a5575b61099281836107a5565b8101906107db565b9791939450916108b6565b503d610988565b82513d5f823e3d90fd5b6109ce919650843d86116109a55761099281836107a5565b945f610899565b83513d5f823e3d90fdfea26469706673582212208a391bea5095e0ba20a46d549998f1c63cf54caf6b68cff7aa2931afd3ceff4464736f6c63430008190033","opcodes":"PUSH1 0x80 CALLVALUE PUSH2 0x30E JUMPI PUSH1 0x1F PUSH2 0xD50 CODESIZE DUP2 SWAP1 SUB SWAP2 DUP3 ADD PUSH1 0x1F NOT AND DUP4 ADD SWAP3 SWAP2 SWAP1 PUSH1 0x1 PUSH1 0x1 PUSH1 0x40 SHL SUB DUP5 GT DUP4 DUP6 LT OR PUSH2 0x312 JUMPI DUP2 PUSH1 0xA0 SWAP3 DUP5 SWAP3 PUSH1 0x40 SWAP7 DUP8 MSTORE DUP4 CODECOPY DUP2 ADD SUB SLT PUSH2 0x30E JUMPI PUSH2 0x4B DUP2 PUSH2 0x326 JUMP JUMPDEST SWAP1 PUSH1 0x20 SWAP1 PUSH2 0x5A DUP3 DUP3 ADD PUSH2 0x326 JUMP JUMPDEST SWAP3 PUSH2 0x66 DUP6 DUP4 ADD PUSH2 0x326 JUMP JUMPDEST SWAP4 PUSH2 0x7F PUSH1 0x80 PUSH2 0x78 PUSH1 0x60 DUP7 ADD PUSH2 0x326 JUMP JUMPDEST SWAP5 ADD PUSH2 0x326 JUMP JUMPDEST SWAP5 PUSH1 0x1 DUP1 PUSH1 0xA0 SHL SUB SWAP1 DUP2 DUP1 PUSH1 0x1 DUP1 PUSH1 0xA0 SHL SUB NOT SWAP5 DUP2 PUSH1 0x2 SWAP5 AND DUP7 DUP6 SLOAD AND OR DUP5 SSTORE AND SWAP5 PUSH1 0x1 SWAP5 DUP7 DUP2 DUP8 SLOAD AND OR DUP7 SSTORE CALLER SWAP1 PUSH1 0x3 SLOAD AND OR PUSH1 0x3 SSTORE AND SWAP4 DUP5 PUSH0 MSTORE PUSH0 DUP8 MSTORE DUP9 PUSH0 KECCAK256 SWAP1 PUSH0 MSTORE DUP7 MSTORE PUSH8 0xDDBB3130051477A DUP9 PUSH0 KECCAK256 SSTORE DUP4 PUSH0 MSTORE PUSH0 DUP7 MSTORE DUP8 PUSH0 KECCAK256 DUP3 DUP3 SLOAD AND PUSH0 MSTORE DUP7 MSTORE PUSH13 0x110F11BC46BC3EFCC5B8FF1223 DUP9 PUSH0 KECCAK256 SSTORE DUP4 PUSH0 MSTORE PUSH0 DUP7 MSTORE DUP2 DUP9 PUSH0 KECCAK256 SWAP8 AND SWAP7 DUP8 PUSH0 MSTORE DUP7 MSTORE PUSH7 0x52DE6F3E9958F DUP9 PUSH0 KECCAK256 SSTORE DUP4 PUSH0 MSTORE PUSH0 DUP7 MSTORE DUP2 DUP9 PUSH0 KECCAK256 SWAP6 AND SWAP5 DUP6 PUSH0 MSTORE DUP7 MSTORE PUSH11 0xD47D67CCE9223FAD7DE347 DUP9 PUSH0 KECCAK256 SSTORE DUP7 PUSH0 MSTORE PUSH0 DUP7 MSTORE DUP8 PUSH0 KECCAK256 DUP5 PUSH0 MSTORE DUP7 MSTORE PUSH9 0x24EFC5D2223B2AB2B2 DUP9 PUSH0 KECCAK256 SSTORE DUP7 PUSH0 MSTORE PUSH0 DUP7 MSTORE DUP8 PUSH0 KECCAK256 DUP3 DUP3 SLOAD AND PUSH0 MSTORE DUP7 MSTORE PUSH14 0x2D9856FC421A9FD095F8B44C49DB DUP9 PUSH0 KECCAK256 SSTORE DUP7 PUSH0 MSTORE PUSH0 DUP7 MSTORE DUP8 PUSH0 KECCAK256 DUP3 DUP5 SLOAD AND PUSH0 MSTORE DUP7 MSTORE PUSH9 0x2506936E734AC2F926 DUP9 PUSH0 KECCAK256 SSTORE DUP7 PUSH0 MSTORE PUSH0 DUP7 MSTORE DUP8 PUSH0 KECCAK256 DUP6 PUSH0 MSTORE DUP7 MSTORE PUSH13 0x236FEBC16A26943DF322289BE DUP9 PUSH0 KECCAK256 SSTORE DUP2 DUP4 SLOAD AND PUSH0 MSTORE PUSH0 DUP7 MSTORE DUP8 PUSH0 KECCAK256 DUP5 PUSH0 MSTORE DUP7 MSTORE PUSH8 0xDE435A2A433CF48 DUP9 PUSH0 KECCAK256 SSTORE DUP2 DUP4 SLOAD AND PUSH0 MSTORE PUSH0 DUP7 MSTORE DUP8 PUSH0 KECCAK256 DUP8 PUSH0 MSTORE DUP7 MSTORE PUSH7 0x533304F826D31 DUP9 PUSH0 KECCAK256 SSTORE DUP2 DUP4 SLOAD AND PUSH0 MSTORE PUSH0 DUP7 MSTORE DUP8 PUSH0 KECCAK256 DUP3 DUP3 SLOAD AND PUSH0 MSTORE DUP7 MSTORE PUSH13 0x110DCBA2E6F97B2A41A7EBA1B8 DUP9 PUSH0 KECCAK256 SSTORE DUP2 DUP4 SLOAD AND PUSH0 MSTORE PUSH0 DUP7 MSTORE DUP8 PUSH0 KECCAK256 DUP6 PUSH0 MSTORE DUP7 MSTORE PUSH11 0xD4801858112018C8850BAE DUP9 PUSH0 KECCAK256 SSTORE DUP2 DUP2 SLOAD AND PUSH0 MSTORE PUSH0 DUP7 MSTORE DUP8 PUSH0 KECCAK256 DUP8 PUSH0 MSTORE DUP7 MSTORE PUSH2 0x438 DUP9 PUSH0 KECCAK256 SSTORE DUP2 DUP2 SLOAD AND PUSH0 MSTORE PUSH0 DUP7 MSTORE DUP8 PUSH0 KECCAK256 DUP6 PUSH0 MSTORE DUP7 MSTORE PUSH6 0xAC76A57EB9A4 DUP9 PUSH0 KECCAK256 SSTORE DUP2 DUP2 SLOAD AND PUSH0 MSTORE PUSH0 DUP7 MSTORE DUP8 PUSH0 KECCAK256 DUP3 DUP5 SLOAD AND PUSH0 MSTORE DUP7 MSTORE PUSH3 0xB32D1 DUP9 PUSH0 KECCAK256 SSTORE DUP2 DUP2 SLOAD AND PUSH0 MSTORE PUSH0 DUP7 MSTORE DUP8 PUSH0 KECCAK256 DUP5 PUSH0 MSTORE DUP7 MSTORE PUSH3 0xB68F7 DUP9 PUSH0 KECCAK256 SSTORE DUP5 PUSH0 MSTORE PUSH0 DUP7 MSTORE DUP2 DUP9 PUSH0 KECCAK256 SWAP2 SLOAD AND PUSH0 MSTORE DUP6 MSTORE PUSH10 0x11DE1930CE9AB44B5A1 DUP8 PUSH0 KECCAK256 SSTORE DUP4 PUSH0 MSTORE PUSH0 DUP6 MSTORE DUP7 PUSH0 KECCAK256 SWAP2 SLOAD AND PUSH0 MSTORE DUP4 MSTORE PUSH4 0xE4AC0516 SWAP1 DUP2 DUP7 PUSH0 KECCAK256 SSTORE DUP3 PUSH0 MSTORE PUSH0 DUP5 MSTORE DUP6 PUSH0 KECCAK256 SWAP1 PUSH0 MSTORE DUP4 MSTORE DUP5 PUSH0 KECCAK256 SSTORE PUSH0 MSTORE PUSH0 DUP2 MSTORE DUP3 PUSH0 KECCAK256 SWAP2 PUSH0 MSTORE MSTORE PUSH3 0x54DDDD DUP2 PUSH0 KECCAK256 SSTORE MLOAD PUSH2 0xA15 SWAP1 DUP2 PUSH2 0x33B DUP3 CODECOPY RETURN JUMPDEST PUSH0 DUP1 REVERT JUMPDEST PUSH4 0x4E487B71 PUSH1 0xE0 SHL PUSH0 MSTORE PUSH1 0x41 PUSH1 0x4 MSTORE PUSH1 0x24 PUSH0 REVERT JUMPDEST MLOAD SWAP1 PUSH1 0x1 PUSH1 0x1 PUSH1 0xA0 SHL SUB DUP3 AND DUP3 SUB PUSH2 0x30E JUMPI JUMP INVALID PUSH1 0x80 PUSH1 0x40 DUP2 DUP2 MSTORE PUSH1 0x4 DUP1 CALLDATASIZE LT ISZERO PUSH2 0x14 JUMPI PUSH0 DUP1 REVERT JUMPDEST PUSH0 CALLDATALOAD PUSH1 0xE0 SHR SWAP3 DUP4 PUSH4 0x2098719 EQ PUSH2 0x6F4 JUMPI POP DUP3 PUSH4 0x4CC7325 EQ PUSH2 0x6DA JUMPI DUP3 PUSH4 0xE091762 EQ PUSH2 0x6BD JUMPI DUP3 PUSH4 0x187029B8 EQ PUSH2 0x6A1 JUMPI DUP3 PUSH4 0x18CDC49A EQ PUSH2 0x633 JUMPI DUP3 PUSH4 0x1A1E4A1F EQ PUSH2 0x60C JUMPI DUP3 PUSH4 0x248391FF EQ PUSH2 0x5EA JUMPI DUP3 PUSH4 0x3B19E84A EQ PUSH2 0x4C8 JUMPI DUP3 PUSH4 0x4039E687 EQ PUSH2 0x5CC JUMPI DUP3 PUSH4 0x43146399 EQ PUSH2 0x5AF JUMPI DUP3 PUSH4 0x443DC789 EQ PUSH2 0x58A JUMPI DUP3 PUSH4 0x5107E94E EQ PUSH2 0x563 JUMPI DUP3 PUSH4 0x53FF493E EQ PUSH2 0x540 JUMPI DUP3 PUSH4 0x5911FB9A EQ PUSH2 0x50E JUMPI DUP3 PUSH4 0x5FC8CD69 EQ PUSH2 0x4F0 JUMPI DUP3 PUSH4 0x61D027B3 EQ PUSH2 0x4C8 JUMPI DUP3 PUSH4 0x7B0CF44D EQ PUSH2 0x480 JUMPI DUP3 PUSH4 0x7DE4FD10 EQ PUSH2 0x42E JUMPI DUP3 PUSH4 0x802431FB EQ PUSH2 0x3DA JUMPI DUP3 PUSH4 0x84DB1DFB EQ PUSH2 0x36E JUMPI POP DUP2 PUSH4 0x89A30271 EQ PUSH2 0x347 JUMPI DUP2 PUSH4 0x8E5139ED EQ PUSH2 0x320 JUMPI DUP2 PUSH4 0x97DB8E02 EQ PUSH2 0x300 JUMPI DUP2 PUSH4 0xA58A7F8A EQ PUSH2 0x2DF JUMPI DUP2 PUSH4 0xAE3BCC96 EQ PUSH2 0x2C0 JUMPI DUP2 PUSH4 0xB381CF40 EQ PUSH2 0x299 JUMPI DUP2 PUSH4 0xB537D24B EQ PUSH2 0x278 JUMPI DUP2 PUSH4 0xB9E93810 EQ PUSH2 0x252 JUMPI DUP2 PUSH4 0xC0184983 EQ PUSH2 0x236 JUMPI DUP2 PUSH4 0xD135E3BE EQ PUSH2 0x214 JUMPI DUP2 PUSH4 0xE2338E72 EQ PUSH2 0x1F0 JUMPI DUP2 PUSH4 0xE30F6892 EQ PUSH2 0x1CD JUMPI POP PUSH4 0xF0F44260 EQ PUSH2 0x18B JUMPI PUSH0 DUP1 REVERT JUMPDEST CALLVALUE PUSH2 0x1C9 JUMPI PUSH1 0x20 CALLDATASIZE PUSH1 0x3 NOT ADD SLT PUSH2 0x1C9 JUMPI PUSH1 0x1 PUSH1 0x1 PUSH1 0xA0 SHL SUB PUSH2 0x1AC PUSH2 0x744 JUMP JUMPDEST AND PUSH12 0xFFFFFFFFFFFFFFFFFFFFFFFF PUSH1 0xA0 SHL PUSH1 0x3 SLOAD AND OR PUSH1 0x3 SSTORE PUSH0 DUP1 RETURN JUMPDEST PUSH0 DUP1 REVERT JUMPDEST CALLVALUE PUSH2 0x1C9 JUMPI PUSH0 CALLDATASIZE PUSH1 0x3 NOT ADD SLT PUSH2 0x1C9 JUMPI PUSH1 0x20 SWAP1 MLOAD PUSH10 0x11DE1930CE9AB44B5A1 DUP2 MSTORE RETURN JUMPDEST CALLVALUE PUSH2 0x1C9 JUMPI PUSH0 CALLDATASIZE PUSH1 0x3 NOT ADD SLT PUSH2 0x1C9 JUMPI PUSH1 0x20 SWAP1 MLOAD PUSH11 0xD4801858112018C8850BAE DUP2 MSTORE RETURN JUMPDEST CALLVALUE PUSH2 0x1C9 JUMPI PUSH0 CALLDATASIZE PUSH1 0x3 NOT ADD SLT PUSH2 0x1C9 JUMPI PUSH1 0x20 SWAP1 MLOAD PUSH9 0x24EFC5D2223B2AB2B2 DUP2 MSTORE RETURN JUMPDEST CALLVALUE PUSH2 0x1C9 JUMPI PUSH0 CALLDATASIZE PUSH1 0x3 NOT ADD SLT PUSH2 0x1C9 JUMPI PUSH1 0x20 SWAP1 MLOAD PUSH3 0xB32D1 DUP2 MSTORE RETURN JUMPDEST CALLVALUE PUSH2 0x1C9 JUMPI PUSH0 CALLDATASIZE PUSH1 0x3 NOT ADD SLT PUSH2 0x1C9 JUMPI PUSH1 0x20 SWAP1 MLOAD PUSH13 0x236FEBC16A26943DF322289BE DUP2 MSTORE RETURN JUMPDEST CALLVALUE PUSH2 0x1C9 JUMPI PUSH0 CALLDATASIZE PUSH1 0x3 NOT ADD SLT PUSH2 0x1C9 JUMPI PUSH1 0x20 SWAP1 MLOAD PUSH8 0xDE435A2A433CF48 DUP2 MSTORE RETURN JUMPDEST CALLVALUE PUSH2 0x1C9 JUMPI PUSH0 CALLDATASIZE PUSH1 0x3 NOT ADD SLT PUSH2 0x1C9 JUMPI PUSH1 0x2 SLOAD SWAP1 MLOAD PUSH1 0x1 PUSH1 0x1 PUSH1 0xA0 SHL SUB SWAP1 SWAP2 AND DUP2 MSTORE PUSH1 0x20 SWAP1 RETURN JUMPDEST CALLVALUE PUSH2 0x1C9 JUMPI PUSH0 CALLDATASIZE PUSH1 0x3 NOT ADD SLT PUSH2 0x1C9 JUMPI PUSH1 0x20 SWAP1 MLOAD PUSH6 0xAC76A57EB9A4 DUP2 MSTORE RETURN JUMPDEST CALLVALUE PUSH2 0x1C9 JUMPI PUSH0 CALLDATASIZE PUSH1 0x3 NOT ADD SLT PUSH2 0x1C9 JUMPI PUSH1 0x20 SWAP1 MLOAD PUSH8 0xDDBB3130051477A DUP2 MSTORE RETURN JUMPDEST CALLVALUE PUSH2 0x1C9 JUMPI PUSH0 CALLDATASIZE PUSH1 0x3 NOT ADD SLT PUSH2 0x1C9 JUMPI PUSH1 0x20 SWAP1 MLOAD PUSH7 0x52DE6F3E9958F DUP2 MSTORE RETURN JUMPDEST CALLVALUE PUSH2 0x1C9 JUMPI PUSH0 CALLDATASIZE PUSH1 0x3 NOT ADD SLT PUSH2 0x1C9 JUMPI PUSH1 0x20 SWAP1 MLOAD PUSH14 0x2D9856FC421A9FD095F8B44C49DB DUP2 MSTORE RETURN JUMPDEST CALLVALUE PUSH2 0x1C9 JUMPI PUSH0 CALLDATASIZE PUSH1 0x3 NOT ADD SLT PUSH2 0x1C9 JUMPI PUSH1 0x1 SLOAD SWAP1 MLOAD PUSH1 0x1 PUSH1 0x1 PUSH1 0xA0 SHL SUB SWAP1 SWAP2 AND DUP2 MSTORE PUSH1 0x20 SWAP1 RETURN JUMPDEST CALLVALUE PUSH2 0x1C9 JUMPI PUSH1 0xA0 CALLDATASIZE PUSH1 0x3 NOT ADD SLT PUSH2 0x1C9 JUMPI PUSH8 0xFFFFFFFFFFFFFFFF SWAP1 DUP1 CALLDATALOAD DUP3 DUP2 GT PUSH2 0x1C9 JUMPI PUSH2 0x39F SWAP1 CALLDATASIZE SWAP1 DUP4 ADD PUSH2 0x713 JUMP JUMPDEST POP POP PUSH1 0x24 CALLDATALOAD SWAP2 DUP3 GT PUSH2 0x1C9 JUMPI PUSH2 0x3B7 SWAP2 CALLDATASIZE SWAP2 ADD PUSH2 0x713 JUMP JUMPDEST POP PUSH1 0x1 PUSH1 0x1 PUSH1 0xA0 SHL SUB SWAP1 POP PUSH1 0x44 CALLDATALOAD DUP2 DUP2 AND SUB PUSH2 0x1C9 JUMPI PUSH1 0x64 CALLDATALOAD SWAP1 DUP2 AND SUB PUSH2 0x1C9 JUMPI STOP JUMPDEST POP CALLVALUE PUSH2 0x1C9 JUMPI PUSH1 0x60 CALLDATASIZE PUSH1 0x3 NOT ADD SLT PUSH2 0x1C9 JUMPI PUSH2 0x3F4 PUSH2 0x744 JUMP JUMPDEST SWAP1 PUSH2 0x3FD PUSH2 0x75A JUMP JUMPDEST PUSH1 0x44 CALLDATALOAD DUP1 ISZERO ISZERO SUB PUSH2 0x1C9 JUMPI PUSH1 0x20 SWAP3 PUSH1 0x1 DUP1 PUSH1 0xA0 SHL SUB DUP1 SWAP2 AND PUSH0 MSTORE PUSH0 DUP5 MSTORE DUP3 PUSH0 KECCAK256 SWAP2 AND PUSH0 MSTORE DUP3 MSTORE DUP1 PUSH0 KECCAK256 SLOAD SWAP1 MLOAD SWAP1 DUP2 MSTORE RETURN JUMPDEST POP CALLVALUE PUSH2 0x1C9 JUMPI DUP1 PUSH1 0x3 NOT CALLDATASIZE ADD SLT PUSH2 0x1C9 JUMPI PUSH2 0x447 PUSH2 0x744 JUMP JUMPDEST SWAP1 PUSH1 0x24 CALLDATALOAD DUP1 ISZERO ISZERO SUB PUSH2 0x1C9 JUMPI PUSH1 0x1 PUSH1 0x1 PUSH1 0xA0 SHL SUB SWAP2 DUP3 AND PUSH0 SWAP1 DUP2 MSTORE PUSH1 0x20 DUP2 DUP2 MSTORE DUP3 DUP3 KECCAK256 PUSH1 0x2 SLOAD SWAP1 SWAP5 AND DUP3 MSTORE SWAP3 DUP4 MSTORE DUP2 SWAP1 KECCAK256 SLOAD SWAP1 MLOAD SWAP1 DUP2 MSTORE RETURN JUMPDEST POP CALLVALUE PUSH2 0x1C9 JUMPI DUP1 PUSH1 0x3 NOT CALLDATASIZE ADD SLT PUSH2 0x1C9 JUMPI PUSH1 0x20 SWAP1 PUSH2 0x49C PUSH2 0x744 JUMP JUMPDEST PUSH2 0x4A4 PUSH2 0x75A JUMP JUMPDEST SWAP1 PUSH1 0x1 DUP1 PUSH1 0xA0 SHL SUB DUP1 SWAP2 AND PUSH0 MSTORE PUSH0 DUP5 MSTORE DUP3 PUSH0 KECCAK256 SWAP2 AND PUSH0 MSTORE DUP3 MSTORE DUP1 PUSH0 KECCAK256 SLOAD SWAP1 MLOAD SWAP1 DUP2 MSTORE RETURN JUMPDEST POP CALLVALUE PUSH2 0x1C9 JUMPI PUSH0 CALLDATASIZE PUSH1 0x3 NOT ADD SLT PUSH2 0x1C9 JUMPI PUSH1 0x3 SLOAD SWAP1 MLOAD PUSH1 0x1 PUSH1 0x1 PUSH1 0xA0 SHL SUB SWAP1 SWAP2 AND DUP2 MSTORE PUSH1 0x20 SWAP1 RETURN JUMPDEST POP CALLVALUE PUSH2 0x1C9 JUMPI PUSH0 CALLDATASIZE PUSH1 0x3 NOT ADD SLT PUSH2 0x1C9 JUMPI PUSH1 0x20 SWAP1 MLOAD PUSH4 0xDF77B36F DUP2 MSTORE RETURN JUMPDEST POP CALLVALUE PUSH2 0x1C9 JUMPI PUSH2 0x51D CALLDATASIZE PUSH2 0x770 JUMP JUMPDEST SWAP3 SWAP2 PUSH1 0x1 DUP1 PUSH1 0xA0 SHL SUB DUP1 SWAP2 AND PUSH0 MSTORE PUSH0 PUSH1 0x20 MSTORE DUP3 PUSH0 KECCAK256 SWAP2 AND PUSH0 MSTORE PUSH1 0x20 MSTORE PUSH0 KECCAK256 SSTORE PUSH0 DUP1 RETURN JUMPDEST POP CALLVALUE PUSH2 0x1C9 JUMPI PUSH0 CALLDATASIZE PUSH1 0x3 NOT ADD SLT PUSH2 0x1C9 JUMPI PUSH1 0x20 SWAP1 MLOAD PUSH9 0x2506936E734AC2F926 DUP2 MSTORE RETURN JUMPDEST POP CALLVALUE PUSH2 0x1C9 JUMPI PUSH0 CALLDATASIZE PUSH1 0x3 NOT ADD SLT PUSH2 0x1C9 JUMPI PUSH1 0x20 SWAP1 MLOAD PUSH13 0x110DCBA2E6F97B2A41A7EBA1B8 DUP2 MSTORE RETURN JUMPDEST POP CALLVALUE PUSH2 0x1C9 JUMPI PUSH0 CALLDATASIZE PUSH1 0x3 NOT ADD SLT PUSH2 0x1C9 JUMPI PUSH1 0x20 SWAP1 MLOAD PUSH11 0xD47D67CCE9223FAD7DE347 DUP2 MSTORE RETURN JUMPDEST POP CALLVALUE PUSH2 0x1C9 JUMPI PUSH0 CALLDATASIZE PUSH1 0x3 NOT ADD SLT PUSH2 0x1C9 JUMPI PUSH1 0x20 SWAP1 MLOAD PUSH3 0x54DDDD DUP2 MSTORE RETURN JUMPDEST POP CALLVALUE PUSH2 0x1C9 JUMPI PUSH0 CALLDATASIZE PUSH1 0x3 NOT ADD SLT PUSH2 0x1C9 JUMPI PUSH1 0x20 SWAP1 MLOAD PUSH4 0xE4AC0516 DUP2 MSTORE RETURN JUMPDEST POP CALLVALUE PUSH2 0x1C9 JUMPI PUSH1 0x20 SWAP1 PUSH2 0x605 PUSH2 0x5FF CALLDATASIZE PUSH2 0x770 JUMP JUMPDEST SWAP2 PUSH2 0x85E JUMP JUMPDEST SWAP1 MLOAD SWAP1 DUP2 MSTORE RETURN JUMPDEST POP CALLVALUE PUSH2 0x1C9 JUMPI PUSH0 CALLDATASIZE PUSH1 0x3 NOT ADD SLT PUSH2 0x1C9 JUMPI PUSH1 0x20 SWAP1 MLOAD PUSH13 0x110F11BC46BC3EFCC5B8FF1223 DUP2 MSTORE RETURN JUMPDEST SWAP1 CALLVALUE PUSH2 0x1C9 JUMPI PUSH1 0x60 CALLDATASIZE PUSH1 0x3 NOT ADD SLT PUSH2 0x1C9 JUMPI PUSH8 0xFFFFFFFFFFFFFFFF DUP3 CALLDATALOAD DUP2 DUP2 GT PUSH2 0x1C9 JUMPI PUSH2 0x664 SWAP1 CALLDATASIZE SWAP1 DUP6 ADD PUSH2 0x713 JUMP JUMPDEST POP POP PUSH1 0x24 CALLDATALOAD DUP2 DUP2 GT PUSH2 0x1C9 JUMPI PUSH2 0x67D SWAP1 CALLDATASIZE SWAP1 DUP6 ADD PUSH2 0x713 JUMP JUMPDEST POP POP PUSH1 0x44 CALLDATALOAD SWAP1 DUP2 GT PUSH2 0x1C9 JUMPI PUSH1 0x20 SWAP3 PUSH2 0x698 SWAP2 CALLDATASIZE SWAP2 ADD PUSH2 0x713 JUMP JUMPDEST POP POP MLOAD PUSH1 0x1 DUP2 MSTORE RETURN JUMPDEST POP CALLVALUE PUSH2 0x1C9 JUMPI PUSH0 CALLDATASIZE PUSH1 0x3 NOT ADD SLT PUSH2 0x1C9 JUMPI PUSH1 0x20 SWAP1 MLOAD PUSH2 0x438 DUP2 MSTORE RETURN JUMPDEST POP CALLVALUE PUSH2 0x1C9 JUMPI PUSH0 CALLDATASIZE PUSH1 0x3 NOT ADD SLT PUSH2 0x1C9 JUMPI PUSH1 0x20 SWAP1 MLOAD PUSH3 0xB68F7 DUP2 MSTORE RETURN JUMPDEST POP CALLVALUE PUSH2 0x1C9 JUMPI PUSH0 CALLDATASIZE PUSH1 0x3 NOT ADD SLT PUSH2 0x1C9 JUMPI PUSH1 0x20 SWAP1 MLOAD PUSH0 DUP2 MSTORE RETURN JUMPDEST CALLVALUE PUSH2 0x1C9 JUMPI PUSH0 CALLDATASIZE PUSH1 0x3 NOT ADD SLT PUSH2 0x1C9 JUMPI DUP1 PUSH7 0x533304F826D31 PUSH1 0x20 SWAP3 MSTORE RETURN JUMPDEST SWAP2 DUP2 PUSH1 0x1F DUP5 ADD SLT ISZERO PUSH2 0x1C9 JUMPI DUP3 CALLDATALOAD SWAP2 PUSH8 0xFFFFFFFFFFFFFFFF DUP4 GT PUSH2 0x1C9 JUMPI PUSH1 0x20 DUP1 DUP6 ADD SWAP5 DUP5 PUSH1 0x5 SHL ADD ADD GT PUSH2 0x1C9 JUMPI JUMP JUMPDEST PUSH1 0x4 CALLDATALOAD SWAP1 PUSH1 0x1 PUSH1 0x1 PUSH1 0xA0 SHL SUB DUP3 AND DUP3 SUB PUSH2 0x1C9 JUMPI JUMP JUMPDEST PUSH1 0x24 CALLDATALOAD SWAP1 PUSH1 0x1 PUSH1 0x1 PUSH1 0xA0 SHL SUB DUP3 AND DUP3 SUB PUSH2 0x1C9 JUMPI JUMP JUMPDEST PUSH1 0x60 SWAP1 PUSH1 0x3 NOT ADD SLT PUSH2 0x1C9 JUMPI PUSH1 0x1 PUSH1 0x1 PUSH1 0xA0 SHL SUB SWAP1 PUSH1 0x4 CALLDATALOAD DUP3 DUP2 AND DUP2 SUB PUSH2 0x1C9 JUMPI SWAP2 PUSH1 0x24 CALLDATALOAD SWAP1 DUP2 AND DUP2 SUB PUSH2 0x1C9 JUMPI SWAP1 PUSH1 0x44 CALLDATALOAD SWAP1 JUMP JUMPDEST SWAP1 PUSH1 0x1F DUP1 NOT SWAP2 ADD AND DUP2 ADD SWAP1 DUP2 LT PUSH8 0xFFFFFFFFFFFFFFFF DUP3 GT OR PUSH2 0x7C7 JUMPI PUSH1 0x40 MSTORE JUMP JUMPDEST PUSH4 0x4E487B71 PUSH1 0xE0 SHL PUSH0 MSTORE PUSH1 0x41 PUSH1 0x4 MSTORE PUSH1 0x24 PUSH0 REVERT JUMPDEST SWAP1 DUP2 PUSH1 0x20 SWAP2 SUB SLT PUSH2 0x1C9 JUMPI MLOAD PUSH1 0xFF DUP2 AND DUP2 SUB PUSH2 0x1C9 JUMPI SWAP1 JUMP JUMPDEST PUSH1 0xFF AND PUSH1 0x4D DUP2 GT PUSH2 0x805 JUMPI PUSH1 0xA EXP SWAP1 JUMP JUMPDEST PUSH4 0x4E487B71 PUSH1 0xE0 SHL PUSH0 MSTORE PUSH1 0x11 PUSH1 0x4 MSTORE PUSH1 0x24 PUSH0 REVERT JUMPDEST DUP2 DUP2 MUL SWAP3 SWAP2 DUP2 ISZERO SWAP2 DUP5 DIV EQ OR ISZERO PUSH2 0x805 JUMPI JUMP JUMPDEST DUP2 ISZERO PUSH2 0x836 JUMPI DIV SWAP1 JUMP JUMPDEST PUSH4 0x4E487B71 PUSH1 0xE0 SHL PUSH0 MSTORE PUSH1 0x12 PUSH1 0x4 MSTORE PUSH1 0x24 PUSH0 REVERT JUMPDEST SWAP1 PUSH1 0xFF DUP1 SWAP2 AND SWAP2 AND SUB SWAP1 PUSH1 0xFF DUP3 GT PUSH2 0x805 JUMPI JUMP JUMPDEST PUSH1 0x40 DUP1 MLOAD PUSH4 0x313CE567 PUSH1 0xE0 SHL DUP1 DUP3 MSTORE SWAP5 SWAP4 SWAP1 SWAP3 PUSH1 0x1 PUSH1 0x1 PUSH1 0xA0 SHL SUB SWAP1 DUP2 AND SWAP3 PUSH1 0x20 SWAP3 SWAP1 SWAP2 SWAP1 DUP4 DUP7 PUSH1 0x4 DUP2 DUP9 GAS STATICCALL SWAP6 DUP7 ISZERO PUSH2 0x9D5 JUMPI PUSH0 SWAP7 PUSH2 0x9B6 JUMPI JUMPDEST POP AND DUP2 MLOAD SWAP7 DUP8 MSTORE DUP3 DUP8 PUSH1 0x4 DUP2 DUP5 GAS STATICCALL SWAP7 DUP8 ISZERO PUSH2 0x9AC JUMPI PUSH0 SWAP8 PUSH2 0x96F JUMPI JUMPDEST POP SWAP2 PUSH2 0x8E9 SWAP2 PUSH2 0x8EE SWAP5 SWAP4 PUSH2 0x8CA DUP8 PUSH2 0x7F4 JUMP JUMPDEST SWAP3 PUSH2 0x8D4 DUP11 PUSH2 0x7F4 JUMP JUMPDEST SWAP6 PUSH0 MSTORE PUSH0 DUP2 MSTORE DUP3 PUSH0 KECCAK256 SWAP2 PUSH0 MSTORE MSTORE PUSH0 KECCAK256 SLOAD PUSH2 0x819 JUMP JUMPDEST PUSH2 0x82C JUMP JUMPDEST SWAP3 PUSH8 0xDE0B6B3A7640000 SWAP4 DUP5 PUSH2 0x904 DUP3 DUP7 PUSH2 0x819 JUMP JUMPDEST DIV SWAP4 PUSH1 0xFF DUP4 AND SWAP2 PUSH1 0xFF DUP6 AND SWAP2 DUP4 DUP4 EQ PUSH2 0x95B JUMPI POP SWAP5 SWAP6 POP GT SWAP3 POP PUSH2 0x937 SWAP2 DUP4 ISZERO PUSH2 0x952 JUMPI SWAP1 PUSH2 0x932 SWAP2 PUSH2 0x84A JUMP JUMPDEST PUSH2 0x7F4 JUMP JUMPDEST SWAP1 ISZERO PUSH2 0x949 JUMPI PUSH2 0x946 SWAP2 PUSH2 0x82C JUMP JUMPDEST SWAP1 JUMP JUMPDEST PUSH2 0x946 SWAP2 PUSH2 0x819 JUMP JUMPDEST PUSH2 0x932 SWAP2 PUSH2 0x84A JUMP JUMPDEST SWAP4 POP SWAP4 POP POP POP PUSH2 0x96B SWAP3 POP PUSH2 0x819 JUMP JUMPDEST DIV SWAP1 JUMP JUMPDEST DUP4 SWAP2 SWAP8 POP SWAP2 PUSH2 0x99A PUSH2 0x8E9 SWAP4 PUSH2 0x8EE SWAP7 SWAP6 RETURNDATASIZE DUP6 GT PUSH2 0x9A5 JUMPI JUMPDEST PUSH2 0x992 DUP2 DUP4 PUSH2 0x7A5 JUMP JUMPDEST DUP2 ADD SWAP1 PUSH2 0x7DB JUMP JUMPDEST SWAP8 SWAP2 SWAP4 SWAP5 POP SWAP2 PUSH2 0x8B6 JUMP JUMPDEST POP RETURNDATASIZE PUSH2 0x988 JUMP JUMPDEST DUP3 MLOAD RETURNDATASIZE PUSH0 DUP3 RETURNDATACOPY RETURNDATASIZE SWAP1 REVERT JUMPDEST PUSH2 0x9CE SWAP2 SWAP7 POP DUP5 RETURNDATASIZE DUP7 GT PUSH2 0x9A5 JUMPI PUSH2 0x992 DUP2 DUP4 PUSH2 0x7A5 JUMP JUMPDEST SWAP5 PUSH0 PUSH2 0x899 JUMP JUMPDEST DUP4 MLOAD RETURNDATASIZE PUSH0 DUP3 RETURNDATACOPY RETURNDATASIZE SWAP1 REVERT INVALID LOG2 PUSH5 0x6970667358 0x22 SLT KECCAK256 DUP11 CODECOPY SHL 0xEA POP SWAP6 0xE0 0xBA KECCAK256 LOG4 PUSH14 0x549998F1C63CF54CAF6B68CFF7AA 0x29 BALANCE 0xAF 0xD3 0xCE SELFDESTRUCT PREVRANDAO PUSH5 0x736F6C6343 STOP ADDMOD NOT STOP CALLER "},"gasEstimates":{"creation":{"codeDepositCost":"516200","executionCost":"infinite","totalCost":"infinite"},"external":{"USDC()":"2728","USDC_TO_USDT_RATE()":"733","USDC_TO_WBTC_RATE()":"154","USDC_TO_WETH_RATE()":"821","USDC_TO_WMATIC_RATE()":"403","USDT_TO_USDC_RATE()":"667","USDT_TO_WBTC_RATE()":"645","USDT_TO_WETH_RATE()":"381","USDT_TO_WMATIC_RATE()":"271","WBTC_TO_USDC_RATE()":"425","WBTC_TO_USDT_RATE()":"799","WBTC_TO_WETH_RATE()":"755","WBTC_TO_WMATIC_RATE()":"623","WETH_TO_USDC_RATE()":"337","WETH_TO_USDT_RATE()":"469","WETH_TO_WBTC_RATE()":"359","WETH_TO_WMATIC_RATE()":"843","WMATIC_TO_USDC_RATE()":"777","WMATIC_TO_USDT_RATE()":"205","WMATIC_TO_WBTC_RATE()":"227","WMATIC_TO_WETH_RATE()":"689","WNATIVE()":"2838","checkRebalance(address[],uint256[],uint256[])":"infinite","convert(address,address,uint256)":"infinite","getBaluniRouter()":"182","getRate(address,address,bool)":"2989","getRateToEth(address,bool)":"5010","getTreasury()":"2442","rates(address,address)":"2914","rebalance(address[],uint256[],address,address,uint256)":"infinite","setRate(address,address,uint256)":"22808","setTreasury(address)":"25158","treasury()":"2618"}},"methodIdentifiers":{"USDC()":"89a30271","USDC_TO_USDT_RATE()":"b537d24b","USDC_TO_WBTC_RATE()":"02098719","USDC_TO_WETH_RATE()":"e2338e72","USDC_TO_WMATIC_RATE()":"5107e94e","USDT_TO_USDC_RATE()":"a58a7f8a","USDT_TO_WBTC_RATE()":"97db8e02","USDT_TO_WETH_RATE()":"443dc789","USDT_TO_WMATIC_RATE()":"1a1e4a1f","WBTC_TO_USDC_RATE()":"53ff493e","WBTC_TO_USDT_RATE()":"d135e3be","WBTC_TO_WETH_RATE()":"b9e93810","WBTC_TO_WMATIC_RATE()":"8e5139ed","WETH_TO_USDC_RATE()":"4039e687","WETH_TO_USDT_RATE()":"5fc8cd69","WETH_TO_WBTC_RATE()":"43146399","WETH_TO_WMATIC_RATE()":"e30f6892","WMATIC_TO_USDC_RATE()":"c0184983","WMATIC_TO_USDT_RATE()":"0e091762","WMATIC_TO_WBTC_RATE()":"187029b8","WMATIC_TO_WETH_RATE()":"ae3bcc96","WNATIVE()":"b381cf40","checkRebalance(address[],uint256[],uint256[])":"18cdc49a","convert(address,address,uint256)":"248391ff","getBaluniRouter()":"04cc7325","getRate(address,address,bool)":"802431fb","getRateToEth(address,bool)":"7de4fd10","getTreasury()":"3b19e84a","rates(address,address)":"7b0cf44d","rebalance(address[],uint256[],address,address,uint256)":"84db1dfb","setRate(address,address,uint256)":"5911fb9a","setTreasury(address)":"f0f44260","treasury()":"61d027b3"}},"storageLayout":{"storage":[{"astId":538,"contract":"contracts/mock/MockRebalancer.sol:MockRebalancer","label":"rates","offset":0,"slot":"0","type":"t_mapping(t_address,t_mapping(t_address,t_uint256))"},{"astId":600,"contract":"contracts/mock/MockRebalancer.sol:MockRebalancer","label":"USDC","offset":0,"slot":"1","type":"t_address"},{"astId":602,"contract":"contracts/mock/MockRebalancer.sol:MockRebalancer","label":"WNATIVE","offset":0,"slot":"2","type":"t_address"},{"astId":604,"contract":"contracts/mock/MockRebalancer.sol:MockRebalancer","label":"treasury","offset":0,"slot":"3","type":"t_address"}],"types":{"t_address":{"encoding":"inplace","label":"address","numberOfBytes":"20"},"t_mapping(t_address,t_mapping(t_address,t_uint256))":{"encoding":"mapping","key":"t_address","label":"mapping(address => mapping(address => uint256))","numberOfBytes":"32","value":"t_mapping(t_address,t_uint256)"},"t_mapping(t_address,t_uint256)":{"encoding":"mapping","key":"t_address","label":"mapping(address => uint256)","numberOfBytes":"32","value":"t_uint256"},"t_uint256":{"encoding":"inplace","label":"uint256","numberOfBytes":"32"}}},"userdoc":{"kind":"user","methods":{},"version":1}}}}