{"contracts/mock/MockRebalancer.sol":{"MockRebalancer":{"abi":[{"inputs":[{"internalType":"address","name":"usdt","type":"address"},{"internalType":"address","name":"_usdc","type":"address"},{"internalType":"address","name":"_wmatic","type":"address"},{"internalType":"address","name":"weth","type":"address"},{"internalType":"address","name":"wbtc","type":"address"}],"stateMutability":"nonpayable","type":"constructor"},{"inputs":[],"name":"USDC","outputs":[{"internalType":"address","name":"","type":"address"}],"stateMutability":"view","type":"function"},{"inputs":[],"name":"USDC_TO_USDT_RATE","outputs":[{"internalType":"uint256","name":"","type":"uint256"}],"stateMutability":"view","type":"function"},{"inputs":[],"name":"USDC_TO_WBTC_RATE","outputs":[{"internalType":"uint256","name":"","type":"uint256"}],"stateMutability":"view","type":"function"},{"inputs":[],"name":"USDC_TO_WETH_RATE","outputs":[{"internalType":"uint256","name":"","type":"uint256"}],"stateMutability":"view","type":"function"},{"inputs":[],"name":"USDC_TO_WMATIC_RATE","outputs":[{"internalType":"uint256","name":"","type":"uint256"}],"stateMutability":"view","type":"function"},{"inputs":[],"name":"USDT_TO_USDC_RATE","outputs":[{"internalType":"uint256","name":"","type":"uint256"}],"stateMutability":"view","type":"function"},{"inputs":[],"name":"USDT_TO_WBTC_RATE","outputs":[{"internalType":"uint256","name":"","type":"uint256"}],"stateMutability":"view","type":"function"},{"inputs":[],"name":"USDT_TO_WETH_RATE","outputs":[{"internalType":"uint256","name":"","type":"uint256"}],"stateMutability":"view","type":"function"},{"inputs":[],"name":"USDT_TO_WMATIC_RATE","outputs":[{"internalType":"uint256","name":"","type":"uint256"}],"stateMutability":"view","type":"function"},{"inputs":[],"name":"WBTC_TO_USDC_RATE","outputs":[{"internalType":"uint256","name":"","type":"uint256"}],"stateMutability":"view","type":"function"},{"inputs":[],"name":"WBTC_TO_USDT_RATE","outputs":[{"internalType":"uint256","name":"","type":"uint256"}],"stateMutability":"view","type":"function"},{"inputs":[],"name":"WBTC_TO_WETH_RATE","outputs":[{"internalType":"uint256","name":"","type":"uint256"}],"stateMutability":"view","type":"function"},{"inputs":[],"name":"WBTC_TO_WMATIC_RATE","outputs":[{"internalType":"uint256","name":"","type":"uint256"}],"stateMutability":"view","type":"function"},{"inputs":[],"name":"WETH_TO_USDC_RATE","outputs":[{"internalType":"uint256","name":"","type":"uint256"}],"stateMutability":"view","type":"function"},{"inputs":[],"name":"WETH_TO_USDT_RATE","outputs":[{"internalType":"uint256","name":"","type":"uint256"}],"stateMutability":"view","type":"function"},{"inputs":[],"name":"WETH_TO_WBTC_RATE","outputs":[{"internalType":"uint256","name":"","type":"uint256"}],"stateMutability":"view","type":"function"},{"inputs":[],"name":"WETH_TO_WMATIC_RATE","outputs":[{"internalType":"uint256","name":"","type":"uint256"}],"stateMutability":"view","type":"function"},{"inputs":[],"name":"WMATIC_TO_USDC_RATE","outputs":[{"internalType":"uint256","name":"","type":"uint256"}],"stateMutability":"view","type":"function"},{"inputs":[],"name":"WMATIC_TO_USDT_RATE","outputs":[{"internalType":"uint256","name":"","type":"uint256"}],"stateMutability":"view","type":"function"},{"inputs":[],"name":"WMATIC_TO_WBTC_RATE","outputs":[{"internalType":"uint256","name":"","type":"uint256"}],"stateMutability":"view","type":"function"},{"inputs":[],"name":"WMATIC_TO_WETH_RATE","outputs":[{"internalType":"uint256","name":"","type":"uint256"}],"stateMutability":"view","type":"function"},{"inputs":[],"name":"WNATIVE","outputs":[{"internalType":"address","name":"","type":"address"}],"stateMutability":"view","type":"function"},{"inputs":[{"internalType":"address[]","name":"","type":"address[]"},{"internalType":"uint256[]","name":"","type":"uint256[]"},{"internalType":"uint256[]","name":"","type":"uint256[]"}],"name":"checkRebalance","outputs":[{"internalType":"bool","name":"","type":"bool"}],"stateMutability":"view","type":"function"},{"inputs":[{"internalType":"address","name":"fromToken","type":"address"},{"internalType":"address","name":"toToken","type":"address"},{"internalType":"uint256","name":"amount","type":"uint256"}],"name":"convert","outputs":[{"internalType":"uint256","name":"","type":"uint256"}],"stateMutability":"view","type":"function"},{"inputs":[],"name":"getBaluniRouter","outputs":[{"internalType":"address","name":"","type":"address"}],"stateMutability":"view","type":"function"},{"inputs":[{"internalType":"contract IERC20","name":"fromToken","type":"address"},{"internalType":"contract IERC20","name":"toToken","type":"address"},{"internalType":"bool","name":"","type":"bool"}],"name":"getRate","outputs":[{"internalType":"uint256","name":"","type":"uint256"}],"stateMutability":"view","type":"function"},{"inputs":[{"internalType":"contract IERC20","name":"fromToken","type":"address"},{"internalType":"bool","name":"","type":"bool"}],"name":"getRateToEth","outputs":[{"internalType":"uint256","name":"","type":"uint256"}],"stateMutability":"view","type":"function"},{"inputs":[],"name":"getTreasury","outputs":[{"internalType":"address","name":"","type":"address"}],"stateMutability":"view","type":"function"},{"inputs":[{"internalType":"address","name":"","type":"address"},{"internalType":"address","name":"","type":"address"}],"name":"rates","outputs":[{"internalType":"uint256","name":"","type":"uint256"}],"stateMutability":"view","type":"function"},{"inputs":[{"internalType":"address[]","name":"","type":"address[]"},{"internalType":"uint256[]","name":"","type":"uint256[]"},{"internalType":"address","name":"","type":"address"},{"internalType":"address","name":"","type":"address"},{"internalType":"uint256","name":"","type":"uint256"}],"name":"rebalance","outputs":[],"stateMutability":"nonpayable","type":"function"},{"inputs":[{"internalType":"address","name":"fromToken","type":"address"},{"internalType":"address","name":"toToken","type":"address"},{"internalType":"uint256","name":"rate","type":"uint256"}],"name":"setRate","outputs":[],"stateMutability":"nonpayable","type":"function"},{"inputs":[{"internalType":"address","name":"_treasury","type":"address"}],"name":"setTreasury","outputs":[],"stateMutability":"nonpayable","type":"function"},{"inputs":[],"name":"treasury","outputs":[{"internalType":"address","name":"","type":"address"}],"stateMutability":"view","type":"function"}],"devdoc":{"kind":"dev","methods":{},"version":1},"evm":{"bytecode":{"linkReferences":{},"object":"60803461030e57601f61122438819003918201601f191683019291906001600160401b03841183851017610312578160a0928492604096875283398101031261030e5761004b81610326565b9060209061005a828201610326565b92610066858301610326565b9361007f608061007860608601610326565b9401610326565b9460018060a01b0390818060018060a01b03199481600294168685541617845516946001948681875416178655339060035416176003551693845f525f8752885f20905f528652670ddbb3130051477a885f2055835f525f8652875f20828254165f5286526c110f11bc46bc3efcc5b8ff1223885f2055835f525f865281885f20971696875f52865266052de6f3e9958f885f2055835f525f865281885f20951694855f5286526ad47d67cce9223fad7de347885f2055865f525f8652875f20845f5286526824efc5d2223b2ab2b2885f2055865f525f8652875f20828254165f5286526d2d9856fc421a9fd095f8b44c49db885f2055865f525f8652875f20828454165f528652682506936e734ac2f926885f2055865f525f8652875f20855f5286526c0236febc16a26943df322289be885f2055818354165f525f8652875f20845f528652670de435a2a433cf48885f2055818354165f525f8652875f20875f528652660533304f826d31885f2055818354165f525f8652875f20828254165f5286526c110dcba2e6f97b2a41a7eba1b8885f2055818354165f525f8652875f20855f5286526ad4801858112018c8850bae885f2055818154165f525f8652875f20875f528652610438885f2055818154165f525f8652875f20855f52865265ac76a57eb9a4885f2055818154165f525f8652875f20828454165f528652620b32d1885f2055818154165f525f8652875f20845f528652620b68f7885f2055845f525f865281885f209154165f52855269011de1930ce9ab44b5a1875f2055835f525f8552865f209154165f52835263e4ac05169081865f2055825f525f8452855f20905f528352845f20555f525f8152825f20915f52526254dddd815f205551610ee9908161033b8239f35b5f80fd5b634e487b7160e01b5f52604160045260245ffd5b51906001600160a01b038216820361030e5756fe60806040818152600480361015610014575f80fd5b5f3560e01c9283630209871914610add5750826304cc732514610aa55782630e09176214610a6a578263187029b814610a3057826318cdc49a146109a45782631a1e4a1f1461095f578263248391ff1461093d5782633b19e84a1461072f5782634039e6871461090157826343146399146108c6578263443dc789146108835782635107e94e1461083e57826353ff493e146107fd5782635911fb9a146107bd5782635fc8cd691461078157826361d027b31461072f5782637b0cf44d146106bb5782637de4fd1014610641578263802431fb146105c157826384db1dfb1461052a5750816389a30271146104d95781638e5139ed1461049457816397db8e0214610456578163a58a7f8a14610417578163ae3bcc96146103da578163b381cf4014610389578163b537d24b1461034a578163b9e9381014610306578163c0184983146102cc578163d135e3be1461028c578163e2338e721461024a578163e30f689214610209575063f0f442601461018b575f80fd5b346102055760207ffffffffffffffffffffffffffffffffffffffffffffffffffffffffffffffffc3601126102055773ffffffffffffffffffffffffffffffffffffffff6101d7610b4b565b167fffffffffffffffffffffffff000000000000000000000000000000000000000060035416176003555f80f35b5f80fd5b34610205575f7ffffffffffffffffffffffffffffffffffffffffffffffffffffffffffffffffc360112610205576020905169011de1930ce9ab44b5a18152f35b34610205575f7ffffffffffffffffffffffffffffffffffffffffffffffffffffffffffffffffc36011261020557602090516ad4801858112018c8850bae8152f35b34610205575f7ffffffffffffffffffffffffffffffffffffffffffffffffffffffffffffffffc36011261020557602090516824efc5d2223b2ab2b28152f35b34610205575f7ffffffffffffffffffffffffffffffffffffffffffffffffffffffffffffffffc3601126102055760209051620b32d18152f35b34610205575f7ffffffffffffffffffffffffffffffffffffffffffffffffffffffffffffffffc36011261020557602090516c0236febc16a26943df322289be8152f35b34610205575f7ffffffffffffffffffffffffffffffffffffffffffffffffffffffffffffffffc3601126102055760209051670de435a2a433cf488152f35b34610205575f7ffffffffffffffffffffffffffffffffffffffffffffffffffffffffffffffffc3601126102055760209073ffffffffffffffffffffffffffffffffffffffff600254169051908152f35b34610205575f7ffffffffffffffffffffffffffffffffffffffffffffffffffffffffffffffffc360112610205576020905165ac76a57eb9a48152f35b34610205575f7ffffffffffffffffffffffffffffffffffffffffffffffffffffffffffffffffc3601126102055760209051670ddbb3130051477a8152f35b34610205575f7ffffffffffffffffffffffffffffffffffffffffffffffffffffffffffffffffc360112610205576020905166052de6f3e9958f8152f35b34610205575f7ffffffffffffffffffffffffffffffffffffffffffffffffffffffffffffffffc36011261020557602090516d2d9856fc421a9fd095f8b44c49db8152f35b34610205575f7ffffffffffffffffffffffffffffffffffffffffffffffffffffffffffffffffc3601126102055760209073ffffffffffffffffffffffffffffffffffffffff600154169051908152f35b346102055760a07ffffffffffffffffffffffffffffffffffffffffffffffffffffffffffffffffc3601126102055767ffffffffffffffff908035828111610205576105799036908301610b1a565b50506024359182116102055761059191369101610b1a565b505060443573ffffffffffffffffffffffffffffffffffffffff9081811603610205576064359081160361020557005b50346102055760607ffffffffffffffffffffffffffffffffffffffffffffffffffffffffffffffffc360112610205576105f9610b4b565b90610602610b6e565b604435801515036102055760209273ffffffffffffffffffffffffffffffffffffffff8091165f525f8452825f2091165f528252805f20549051908152f35b503461020557807ffffffffffffffffffffffffffffffffffffffffffffffffffffffffffffffffc36011261020557610678610b4b565b90602435801515036102055760209173ffffffffffffffffffffffffffffffffffffffff8091165f525f8352815f2090600254165f528252805f20549051908152f35b503461020557807ffffffffffffffffffffffffffffffffffffffffffffffffffffffffffffffffc360112610205576020906106f5610b4b565b6106fd610b6e565b9073ffffffffffffffffffffffffffffffffffffffff8091165f525f8452825f2091165f528252805f20549051908152f35b5034610205575f7ffffffffffffffffffffffffffffffffffffffffffffffffffffffffffffffffc3601126102055760209073ffffffffffffffffffffffffffffffffffffffff600354169051908152f35b5034610205575f7ffffffffffffffffffffffffffffffffffffffffffffffffffffffffffffffffc360112610205576020905163df77b36f8152f35b5034610205576107cc36610b91565b929173ffffffffffffffffffffffffffffffffffffffff8091165f525f602052825f2091165f526020525f20555f80f35b5034610205575f7ffffffffffffffffffffffffffffffffffffffffffffffffffffffffffffffffc3601126102055760209051682506936e734ac2f9268152f35b5034610205575f7ffffffffffffffffffffffffffffffffffffffffffffffffffffffffffffffffc36011261020557602090516c110dcba2e6f97b2a41a7eba1b88152f35b5034610205575f7ffffffffffffffffffffffffffffffffffffffffffffffffffffffffffffffffc36011261020557602090516ad47d67cce9223fad7de3478152f35b5034610205575f7ffffffffffffffffffffffffffffffffffffffffffffffffffffffffffffffffc36011261020557602090516254dddd8152f35b5034610205575f7ffffffffffffffffffffffffffffffffffffffffffffffffffffffffffffffffc360112610205576020905163e4ac05168152f35b50346102055760209061095861095236610b91565b91610d14565b9051908152f35b5034610205575f7ffffffffffffffffffffffffffffffffffffffffffffffffffffffffffffffffc36011261020557602090516c110f11bc46bc3efcc5b8ff12238152f35b90346102055760607ffffffffffffffffffffffffffffffffffffffffffffffffffffffffffffffffc3601126102055767ffffffffffffffff8235818111610205576109f39036908501610b1a565b505060243581811161020557610a0c9036908501610b1a565b505060443590811161020557602092610a2791369101610b1a565b50505160018152f35b5034610205575f7ffffffffffffffffffffffffffffffffffffffffffffffffffffffffffffffffc36011261020557602090516104388152f35b5034610205575f7ffffffffffffffffffffffffffffffffffffffffffffffffffffffffffffffffc3601126102055760209051620b68f78152f35b5034610205575f7ffffffffffffffffffffffffffffffffffffffffffffffffffffffffffffffffc36011261020557602090515f8152f35b34610205575f7ffffffffffffffffffffffffffffffffffffffffffffffffffffffffffffffffc3601126102055780660533304f826d3160209252f35b9181601f840112156102055782359167ffffffffffffffff8311610205576020808501948460051b01011161020557565b6004359073ffffffffffffffffffffffffffffffffffffffff8216820361020557565b6024359073ffffffffffffffffffffffffffffffffffffffff8216820361020557565b7ffffffffffffffffffffffffffffffffffffffffffffffffffffffffffffffffc60609101126102055773ffffffffffffffffffffffffffffffffffffffff90600435828116810361020557916024359081168103610205579060443590565b90601f7fffffffffffffffffffffffffffffffffffffffffffffffffffffffffffffffe0910116810190811067ffffffffffffffff821117610c3257604052565b7f4e487b71000000000000000000000000000000000000000000000000000000005f52604160045260245ffd5b90816020910312610205575160ff811681036102055790565b60ff16604d8111610c8957600a0a90565b7f4e487b71000000000000000000000000000000000000000000000000000000005f52601160045260245ffd5b81810292918115918404141715610c8957565b8115610cd3570490565b7f4e487b71000000000000000000000000000000000000000000000000000000005f52601260045260245ffd5b9060ff8091169116039060ff8211610c8957565b9173ffffffffffffffffffffffffffffffffffffffff8093166040928351937f313ce56700000000000000000000000000000000000000000000000000000000958686526020928387600481885afa968715610ea9575f97610e8a575b501681519687528287600481845afa968715610e80575f97610e33575b5092610dce670de0b6b3a76400009593610dd393610dd996610daf8a610c78565b92610db98c610c78565b955f525f8152825f20915f52525f2054610cb6565b610cc9565b90610cb6565b049160ff81169060ff831691808314610e2c57610e08921192835f14610e235790610e0391610d00565b610c78565b9015610e1a57610e1791610cc9565b90565b610e1791610cb6565b610e0391610d00565b5050505090565b610dd99491975083610dd393610e6b610dce93670de0b6b3a764000099973d8511610e79575b610e638183610bf1565b810190610c5f565b999396509350939550610d8e565b503d610e59565b82513d5f823e3d90fd5b610ea2919750843d8611610e7957610e638183610bf1565b955f610d71565b83513d5f823e3d90fdfea2646970667358221220bd0d93ebd1f53655e0d0c85211db868f8d9f5e4a72a9e77e893d2d745878fdb664736f6c63430008190033","opcodes":"PUSH1 0x80 CALLVALUE PUSH2 0x30E JUMPI PUSH1 0x1F PUSH2 0x1224 CODESIZE DUP2 SWAP1 SUB SWAP2 DUP3 ADD PUSH1 0x1F NOT AND DUP4 ADD SWAP3 SWAP2 SWAP1 PUSH1 0x1 PUSH1 0x1 PUSH1 0x40 SHL SUB DUP5 GT DUP4 DUP6 LT OR PUSH2 0x312 JUMPI DUP2 PUSH1 0xA0 SWAP3 DUP5 SWAP3 PUSH1 0x40 SWAP7 DUP8 MSTORE DUP4 CODECOPY DUP2 ADD SUB SLT PUSH2 0x30E JUMPI PUSH2 0x4B DUP2 PUSH2 0x326 JUMP JUMPDEST SWAP1 PUSH1 0x20 SWAP1 PUSH2 0x5A DUP3 DUP3 ADD PUSH2 0x326 JUMP JUMPDEST SWAP3 PUSH2 0x66 DUP6 DUP4 ADD PUSH2 0x326 JUMP JUMPDEST SWAP4 PUSH2 0x7F PUSH1 0x80 PUSH2 0x78 PUSH1 0x60 DUP7 ADD PUSH2 0x326 JUMP JUMPDEST SWAP5 ADD PUSH2 0x326 JUMP JUMPDEST SWAP5 PUSH1 0x1 DUP1 PUSH1 0xA0 SHL SUB SWAP1 DUP2 DUP1 PUSH1 0x1 DUP1 PUSH1 0xA0 SHL SUB NOT SWAP5 DUP2 PUSH1 0x2 SWAP5 AND DUP7 DUP6 SLOAD AND OR DUP5 SSTORE AND SWAP5 PUSH1 0x1 SWAP5 DUP7 DUP2 DUP8 SLOAD AND OR DUP7 SSTORE CALLER SWAP1 PUSH1 0x3 SLOAD AND OR PUSH1 0x3 SSTORE AND SWAP4 DUP5 PUSH0 MSTORE PUSH0 DUP8 MSTORE DUP9 PUSH0 KECCAK256 SWAP1 PUSH0 MSTORE DUP7 MSTORE PUSH8 0xDDBB3130051477A DUP9 PUSH0 KECCAK256 SSTORE DUP4 PUSH0 MSTORE PUSH0 DUP7 MSTORE DUP8 PUSH0 KECCAK256 DUP3 DUP3 SLOAD AND PUSH0 MSTORE DUP7 MSTORE PUSH13 0x110F11BC46BC3EFCC5B8FF1223 DUP9 PUSH0 KECCAK256 SSTORE DUP4 PUSH0 MSTORE PUSH0 DUP7 MSTORE DUP2 DUP9 PUSH0 KECCAK256 SWAP8 AND SWAP7 DUP8 PUSH0 MSTORE DUP7 MSTORE PUSH7 0x52DE6F3E9958F DUP9 PUSH0 KECCAK256 SSTORE DUP4 PUSH0 MSTORE PUSH0 DUP7 MSTORE DUP2 DUP9 PUSH0 KECCAK256 SWAP6 AND SWAP5 DUP6 PUSH0 MSTORE DUP7 MSTORE PUSH11 0xD47D67CCE9223FAD7DE347 DUP9 PUSH0 KECCAK256 SSTORE DUP7 PUSH0 MSTORE PUSH0 DUP7 MSTORE DUP8 PUSH0 KECCAK256 DUP5 PUSH0 MSTORE DUP7 MSTORE PUSH9 0x24EFC5D2223B2AB2B2 DUP9 PUSH0 KECCAK256 SSTORE DUP7 PUSH0 MSTORE PUSH0 DUP7 MSTORE DUP8 PUSH0 KECCAK256 DUP3 DUP3 SLOAD AND PUSH0 MSTORE DUP7 MSTORE PUSH14 0x2D9856FC421A9FD095F8B44C49DB DUP9 PUSH0 KECCAK256 SSTORE DUP7 PUSH0 MSTORE PUSH0 DUP7 MSTORE DUP8 PUSH0 KECCAK256 DUP3 DUP5 SLOAD AND PUSH0 MSTORE DUP7 MSTORE PUSH9 0x2506936E734AC2F926 DUP9 PUSH0 KECCAK256 SSTORE DUP7 PUSH0 MSTORE PUSH0 DUP7 MSTORE DUP8 PUSH0 KECCAK256 DUP6 PUSH0 MSTORE DUP7 MSTORE PUSH13 0x236FEBC16A26943DF322289BE DUP9 PUSH0 KECCAK256 SSTORE DUP2 DUP4 SLOAD AND PUSH0 MSTORE PUSH0 DUP7 MSTORE DUP8 PUSH0 KECCAK256 DUP5 PUSH0 MSTORE DUP7 MSTORE PUSH8 0xDE435A2A433CF48 DUP9 PUSH0 KECCAK256 SSTORE DUP2 DUP4 SLOAD AND PUSH0 MSTORE PUSH0 DUP7 MSTORE DUP8 PUSH0 KECCAK256 DUP8 PUSH0 MSTORE DUP7 MSTORE PUSH7 0x533304F826D31 DUP9 PUSH0 KECCAK256 SSTORE DUP2 DUP4 SLOAD AND PUSH0 MSTORE PUSH0 DUP7 MSTORE DUP8 PUSH0 KECCAK256 DUP3 DUP3 SLOAD AND PUSH0 MSTORE DUP7 MSTORE PUSH13 0x110DCBA2E6F97B2A41A7EBA1B8 DUP9 PUSH0 KECCAK256 SSTORE DUP2 DUP4 SLOAD AND PUSH0 MSTORE PUSH0 DUP7 MSTORE DUP8 PUSH0 KECCAK256 DUP6 PUSH0 MSTORE DUP7 MSTORE PUSH11 0xD4801858112018C8850BAE DUP9 PUSH0 KECCAK256 SSTORE DUP2 DUP2 SLOAD AND PUSH0 MSTORE PUSH0 DUP7 MSTORE DUP8 PUSH0 KECCAK256 DUP8 PUSH0 MSTORE DUP7 MSTORE PUSH2 0x438 DUP9 PUSH0 KECCAK256 SSTORE DUP2 DUP2 SLOAD AND PUSH0 MSTORE PUSH0 DUP7 MSTORE DUP8 PUSH0 KECCAK256 DUP6 PUSH0 MSTORE DUP7 MSTORE PUSH6 0xAC76A57EB9A4 DUP9 PUSH0 KECCAK256 SSTORE DUP2 DUP2 SLOAD AND PUSH0 MSTORE PUSH0 DUP7 MSTORE DUP8 PUSH0 KECCAK256 DUP3 DUP5 SLOAD AND PUSH0 MSTORE DUP7 MSTORE PUSH3 0xB32D1 DUP9 PUSH0 KECCAK256 SSTORE DUP2 DUP2 SLOAD AND PUSH0 MSTORE PUSH0 DUP7 MSTORE DUP8 PUSH0 KECCAK256 DUP5 PUSH0 MSTORE DUP7 MSTORE PUSH3 0xB68F7 DUP9 PUSH0 KECCAK256 SSTORE DUP5 PUSH0 MSTORE PUSH0 DUP7 MSTORE DUP2 DUP9 PUSH0 KECCAK256 SWAP2 SLOAD AND PUSH0 MSTORE DUP6 MSTORE PUSH10 0x11DE1930CE9AB44B5A1 DUP8 PUSH0 KECCAK256 SSTORE DUP4 PUSH0 MSTORE PUSH0 DUP6 MSTORE DUP7 PUSH0 KECCAK256 SWAP2 SLOAD AND PUSH0 MSTORE DUP4 MSTORE PUSH4 0xE4AC0516 SWAP1 DUP2 DUP7 PUSH0 KECCAK256 SSTORE DUP3 PUSH0 MSTORE PUSH0 DUP5 MSTORE DUP6 PUSH0 KECCAK256 SWAP1 PUSH0 MSTORE DUP4 MSTORE DUP5 PUSH0 KECCAK256 SSTORE PUSH0 MSTORE PUSH0 DUP2 MSTORE DUP3 PUSH0 KECCAK256 SWAP2 PUSH0 MSTORE MSTORE PUSH3 0x54DDDD DUP2 PUSH0 KECCAK256 SSTORE MLOAD PUSH2 0xEE9 SWAP1 DUP2 PUSH2 0x33B DUP3 CODECOPY RETURN JUMPDEST PUSH0 DUP1 REVERT JUMPDEST PUSH4 0x4E487B71 PUSH1 0xE0 SHL PUSH0 MSTORE PUSH1 0x41 PUSH1 0x4 MSTORE PUSH1 0x24 PUSH0 REVERT JUMPDEST MLOAD SWAP1 PUSH1 0x1 PUSH1 0x1 PUSH1 0xA0 SHL SUB DUP3 AND DUP3 SUB PUSH2 0x30E JUMPI JUMP INVALID PUSH1 0x80 PUSH1 0x40 DUP2 DUP2 MSTORE PUSH1 0x4 DUP1 CALLDATASIZE LT ISZERO PUSH2 0x14 JUMPI PUSH0 DUP1 REVERT JUMPDEST PUSH0 CALLDATALOAD PUSH1 0xE0 SHR SWAP3 DUP4 PUSH4 0x2098719 EQ PUSH2 0xADD JUMPI POP DUP3 PUSH4 0x4CC7325 EQ PUSH2 0xAA5 JUMPI DUP3 PUSH4 0xE091762 EQ PUSH2 0xA6A JUMPI DUP3 PUSH4 0x187029B8 EQ PUSH2 0xA30 JUMPI DUP3 PUSH4 0x18CDC49A EQ PUSH2 0x9A4 JUMPI DUP3 PUSH4 0x1A1E4A1F EQ PUSH2 0x95F JUMPI DUP3 PUSH4 0x248391FF EQ PUSH2 0x93D JUMPI DUP3 PUSH4 0x3B19E84A EQ PUSH2 0x72F JUMPI DUP3 PUSH4 0x4039E687 EQ PUSH2 0x901 JUMPI DUP3 PUSH4 0x43146399 EQ PUSH2 0x8C6 JUMPI DUP3 PUSH4 0x443DC789 EQ PUSH2 0x883 JUMPI DUP3 PUSH4 0x5107E94E EQ PUSH2 0x83E JUMPI DUP3 PUSH4 0x53FF493E EQ PUSH2 0x7FD JUMPI DUP3 PUSH4 0x5911FB9A EQ PUSH2 0x7BD JUMPI DUP3 PUSH4 0x5FC8CD69 EQ PUSH2 0x781 JUMPI DUP3 PUSH4 0x61D027B3 EQ PUSH2 0x72F JUMPI DUP3 PUSH4 0x7B0CF44D EQ PUSH2 0x6BB JUMPI DUP3 PUSH4 0x7DE4FD10 EQ PUSH2 0x641 JUMPI DUP3 PUSH4 0x802431FB EQ PUSH2 0x5C1 JUMPI DUP3 PUSH4 0x84DB1DFB EQ PUSH2 0x52A JUMPI POP DUP2 PUSH4 0x89A30271 EQ PUSH2 0x4D9 JUMPI DUP2 PUSH4 0x8E5139ED EQ PUSH2 0x494 JUMPI DUP2 PUSH4 0x97DB8E02 EQ PUSH2 0x456 JUMPI DUP2 PUSH4 0xA58A7F8A EQ PUSH2 0x417 JUMPI DUP2 PUSH4 0xAE3BCC96 EQ PUSH2 0x3DA JUMPI DUP2 PUSH4 0xB381CF40 EQ PUSH2 0x389 JUMPI DUP2 PUSH4 0xB537D24B EQ PUSH2 0x34A JUMPI DUP2 PUSH4 0xB9E93810 EQ PUSH2 0x306 JUMPI DUP2 PUSH4 0xC0184983 EQ PUSH2 0x2CC JUMPI DUP2 PUSH4 0xD135E3BE EQ PUSH2 0x28C JUMPI DUP2 PUSH4 0xE2338E72 EQ PUSH2 0x24A JUMPI DUP2 PUSH4 0xE30F6892 EQ PUSH2 0x209 JUMPI POP PUSH4 0xF0F44260 EQ PUSH2 0x18B JUMPI PUSH0 DUP1 REVERT JUMPDEST CALLVALUE PUSH2 0x205 JUMPI PUSH1 0x20 PUSH32 0xFFFFFFFFFFFFFFFFFFFFFFFFFFFFFFFFFFFFFFFFFFFFFFFFFFFFFFFFFFFFFFFC CALLDATASIZE ADD SLT PUSH2 0x205 JUMPI PUSH20 0xFFFFFFFFFFFFFFFFFFFFFFFFFFFFFFFFFFFFFFFF PUSH2 0x1D7 PUSH2 0xB4B JUMP JUMPDEST AND PUSH32 0xFFFFFFFFFFFFFFFFFFFFFFFF0000000000000000000000000000000000000000 PUSH1 0x3 SLOAD AND OR PUSH1 0x3 SSTORE PUSH0 DUP1 RETURN JUMPDEST PUSH0 DUP1 REVERT JUMPDEST CALLVALUE PUSH2 0x205 JUMPI PUSH0 PUSH32 0xFFFFFFFFFFFFFFFFFFFFFFFFFFFFFFFFFFFFFFFFFFFFFFFFFFFFFFFFFFFFFFFC CALLDATASIZE ADD SLT PUSH2 0x205 JUMPI PUSH1 0x20 SWAP1 MLOAD PUSH10 0x11DE1930CE9AB44B5A1 DUP2 MSTORE RETURN JUMPDEST CALLVALUE PUSH2 0x205 JUMPI PUSH0 PUSH32 0xFFFFFFFFFFFFFFFFFFFFFFFFFFFFFFFFFFFFFFFFFFFFFFFFFFFFFFFFFFFFFFFC CALLDATASIZE ADD SLT PUSH2 0x205 JUMPI PUSH1 0x20 SWAP1 MLOAD PUSH11 0xD4801858112018C8850BAE DUP2 MSTORE RETURN JUMPDEST CALLVALUE PUSH2 0x205 JUMPI PUSH0 PUSH32 0xFFFFFFFFFFFFFFFFFFFFFFFFFFFFFFFFFFFFFFFFFFFFFFFFFFFFFFFFFFFFFFFC CALLDATASIZE ADD SLT PUSH2 0x205 JUMPI PUSH1 0x20 SWAP1 MLOAD PUSH9 0x24EFC5D2223B2AB2B2 DUP2 MSTORE RETURN JUMPDEST CALLVALUE PUSH2 0x205 JUMPI PUSH0 PUSH32 0xFFFFFFFFFFFFFFFFFFFFFFFFFFFFFFFFFFFFFFFFFFFFFFFFFFFFFFFFFFFFFFFC CALLDATASIZE ADD SLT PUSH2 0x205 JUMPI PUSH1 0x20 SWAP1 MLOAD PUSH3 0xB32D1 DUP2 MSTORE RETURN JUMPDEST CALLVALUE PUSH2 0x205 JUMPI PUSH0 PUSH32 0xFFFFFFFFFFFFFFFFFFFFFFFFFFFFFFFFFFFFFFFFFFFFFFFFFFFFFFFFFFFFFFFC CALLDATASIZE ADD SLT PUSH2 0x205 JUMPI PUSH1 0x20 SWAP1 MLOAD PUSH13 0x236FEBC16A26943DF322289BE DUP2 MSTORE RETURN JUMPDEST CALLVALUE PUSH2 0x205 JUMPI PUSH0 PUSH32 0xFFFFFFFFFFFFFFFFFFFFFFFFFFFFFFFFFFFFFFFFFFFFFFFFFFFFFFFFFFFFFFFC CALLDATASIZE ADD SLT PUSH2 0x205 JUMPI PUSH1 0x20 SWAP1 MLOAD PUSH8 0xDE435A2A433CF48 DUP2 MSTORE RETURN JUMPDEST CALLVALUE PUSH2 0x205 JUMPI PUSH0 PUSH32 0xFFFFFFFFFFFFFFFFFFFFFFFFFFFFFFFFFFFFFFFFFFFFFFFFFFFFFFFFFFFFFFFC CALLDATASIZE ADD SLT PUSH2 0x205 JUMPI PUSH1 0x20 SWAP1 PUSH20 0xFFFFFFFFFFFFFFFFFFFFFFFFFFFFFFFFFFFFFFFF PUSH1 0x2 SLOAD AND SWAP1 MLOAD SWAP1 DUP2 MSTORE RETURN JUMPDEST CALLVALUE PUSH2 0x205 JUMPI PUSH0 PUSH32 0xFFFFFFFFFFFFFFFFFFFFFFFFFFFFFFFFFFFFFFFFFFFFFFFFFFFFFFFFFFFFFFFC CALLDATASIZE ADD SLT PUSH2 0x205 JUMPI PUSH1 0x20 SWAP1 MLOAD PUSH6 0xAC76A57EB9A4 DUP2 MSTORE RETURN JUMPDEST CALLVALUE PUSH2 0x205 JUMPI PUSH0 PUSH32 0xFFFFFFFFFFFFFFFFFFFFFFFFFFFFFFFFFFFFFFFFFFFFFFFFFFFFFFFFFFFFFFFC CALLDATASIZE ADD SLT PUSH2 0x205 JUMPI PUSH1 0x20 SWAP1 MLOAD PUSH8 0xDDBB3130051477A DUP2 MSTORE RETURN JUMPDEST CALLVALUE PUSH2 0x205 JUMPI PUSH0 PUSH32 0xFFFFFFFFFFFFFFFFFFFFFFFFFFFFFFFFFFFFFFFFFFFFFFFFFFFFFFFFFFFFFFFC CALLDATASIZE ADD SLT PUSH2 0x205 JUMPI PUSH1 0x20 SWAP1 MLOAD PUSH7 0x52DE6F3E9958F DUP2 MSTORE RETURN JUMPDEST CALLVALUE PUSH2 0x205 JUMPI PUSH0 PUSH32 0xFFFFFFFFFFFFFFFFFFFFFFFFFFFFFFFFFFFFFFFFFFFFFFFFFFFFFFFFFFFFFFFC CALLDATASIZE ADD SLT PUSH2 0x205 JUMPI PUSH1 0x20 SWAP1 MLOAD PUSH14 0x2D9856FC421A9FD095F8B44C49DB DUP2 MSTORE RETURN JUMPDEST CALLVALUE PUSH2 0x205 JUMPI PUSH0 PUSH32 0xFFFFFFFFFFFFFFFFFFFFFFFFFFFFFFFFFFFFFFFFFFFFFFFFFFFFFFFFFFFFFFFC CALLDATASIZE ADD SLT PUSH2 0x205 JUMPI PUSH1 0x20 SWAP1 PUSH20 0xFFFFFFFFFFFFFFFFFFFFFFFFFFFFFFFFFFFFFFFF PUSH1 0x1 SLOAD AND SWAP1 MLOAD SWAP1 DUP2 MSTORE RETURN JUMPDEST CALLVALUE PUSH2 0x205 JUMPI PUSH1 0xA0 PUSH32 0xFFFFFFFFFFFFFFFFFFFFFFFFFFFFFFFFFFFFFFFFFFFFFFFFFFFFFFFFFFFFFFFC CALLDATASIZE ADD SLT PUSH2 0x205 JUMPI PUSH8 0xFFFFFFFFFFFFFFFF SWAP1 DUP1 CALLDATALOAD DUP3 DUP2 GT PUSH2 0x205 JUMPI PUSH2 0x579 SWAP1 CALLDATASIZE SWAP1 DUP4 ADD PUSH2 0xB1A JUMP JUMPDEST POP POP PUSH1 0x24 CALLDATALOAD SWAP2 DUP3 GT PUSH2 0x205 JUMPI PUSH2 0x591 SWAP2 CALLDATASIZE SWAP2 ADD PUSH2 0xB1A JUMP JUMPDEST POP POP PUSH1 0x44 CALLDATALOAD PUSH20 0xFFFFFFFFFFFFFFFFFFFFFFFFFFFFFFFFFFFFFFFF SWAP1 DUP2 DUP2 AND SUB PUSH2 0x205 JUMPI PUSH1 0x64 CALLDATALOAD SWAP1 DUP2 AND SUB PUSH2 0x205 JUMPI STOP JUMPDEST POP CALLVALUE PUSH2 0x205 JUMPI PUSH1 0x60 PUSH32 0xFFFFFFFFFFFFFFFFFFFFFFFFFFFFFFFFFFFFFFFFFFFFFFFFFFFFFFFFFFFFFFFC CALLDATASIZE ADD SLT PUSH2 0x205 JUMPI PUSH2 0x5F9 PUSH2 0xB4B JUMP JUMPDEST SWAP1 PUSH2 0x602 PUSH2 0xB6E JUMP JUMPDEST PUSH1 0x44 CALLDATALOAD DUP1 ISZERO ISZERO SUB PUSH2 0x205 JUMPI PUSH1 0x20 SWAP3 PUSH20 0xFFFFFFFFFFFFFFFFFFFFFFFFFFFFFFFFFFFFFFFF DUP1 SWAP2 AND PUSH0 MSTORE PUSH0 DUP5 MSTORE DUP3 PUSH0 KECCAK256 SWAP2 AND PUSH0 MSTORE DUP3 MSTORE DUP1 PUSH0 KECCAK256 SLOAD SWAP1 MLOAD SWAP1 DUP2 MSTORE RETURN JUMPDEST POP CALLVALUE PUSH2 0x205 JUMPI DUP1 PUSH32 0xFFFFFFFFFFFFFFFFFFFFFFFFFFFFFFFFFFFFFFFFFFFFFFFFFFFFFFFFFFFFFFFC CALLDATASIZE ADD SLT PUSH2 0x205 JUMPI PUSH2 0x678 PUSH2 0xB4B JUMP JUMPDEST SWAP1 PUSH1 0x24 CALLDATALOAD DUP1 ISZERO ISZERO SUB PUSH2 0x205 JUMPI PUSH1 0x20 SWAP2 PUSH20 0xFFFFFFFFFFFFFFFFFFFFFFFFFFFFFFFFFFFFFFFF DUP1 SWAP2 AND PUSH0 MSTORE PUSH0 DUP4 MSTORE DUP2 PUSH0 KECCAK256 SWAP1 PUSH1 0x2 SLOAD AND PUSH0 MSTORE DUP3 MSTORE DUP1 PUSH0 KECCAK256 SLOAD SWAP1 MLOAD SWAP1 DUP2 MSTORE RETURN JUMPDEST POP CALLVALUE PUSH2 0x205 JUMPI DUP1 PUSH32 0xFFFFFFFFFFFFFFFFFFFFFFFFFFFFFFFFFFFFFFFFFFFFFFFFFFFFFFFFFFFFFFFC CALLDATASIZE ADD SLT PUSH2 0x205 JUMPI PUSH1 0x20 SWAP1 PUSH2 0x6F5 PUSH2 0xB4B JUMP JUMPDEST PUSH2 0x6FD PUSH2 0xB6E JUMP JUMPDEST SWAP1 PUSH20 0xFFFFFFFFFFFFFFFFFFFFFFFFFFFFFFFFFFFFFFFF DUP1 SWAP2 AND PUSH0 MSTORE PUSH0 DUP5 MSTORE DUP3 PUSH0 KECCAK256 SWAP2 AND PUSH0 MSTORE DUP3 MSTORE DUP1 PUSH0 KECCAK256 SLOAD SWAP1 MLOAD SWAP1 DUP2 MSTORE RETURN JUMPDEST POP CALLVALUE PUSH2 0x205 JUMPI PUSH0 PUSH32 0xFFFFFFFFFFFFFFFFFFFFFFFFFFFFFFFFFFFFFFFFFFFFFFFFFFFFFFFFFFFFFFFC CALLDATASIZE ADD SLT PUSH2 0x205 JUMPI PUSH1 0x20 SWAP1 PUSH20 0xFFFFFFFFFFFFFFFFFFFFFFFFFFFFFFFFFFFFFFFF PUSH1 0x3 SLOAD AND SWAP1 MLOAD SWAP1 DUP2 MSTORE RETURN JUMPDEST POP CALLVALUE PUSH2 0x205 JUMPI PUSH0 PUSH32 0xFFFFFFFFFFFFFFFFFFFFFFFFFFFFFFFFFFFFFFFFFFFFFFFFFFFFFFFFFFFFFFFC CALLDATASIZE ADD SLT PUSH2 0x205 JUMPI PUSH1 0x20 SWAP1 MLOAD PUSH4 0xDF77B36F DUP2 MSTORE RETURN JUMPDEST POP CALLVALUE PUSH2 0x205 JUMPI PUSH2 0x7CC CALLDATASIZE PUSH2 0xB91 JUMP JUMPDEST SWAP3 SWAP2 PUSH20 0xFFFFFFFFFFFFFFFFFFFFFFFFFFFFFFFFFFFFFFFF DUP1 SWAP2 AND PUSH0 MSTORE PUSH0 PUSH1 0x20 MSTORE DUP3 PUSH0 KECCAK256 SWAP2 AND PUSH0 MSTORE PUSH1 0x20 MSTORE PUSH0 KECCAK256 SSTORE PUSH0 DUP1 RETURN JUMPDEST POP CALLVALUE PUSH2 0x205 JUMPI PUSH0 PUSH32 0xFFFFFFFFFFFFFFFFFFFFFFFFFFFFFFFFFFFFFFFFFFFFFFFFFFFFFFFFFFFFFFFC CALLDATASIZE ADD SLT PUSH2 0x205 JUMPI PUSH1 0x20 SWAP1 MLOAD PUSH9 0x2506936E734AC2F926 DUP2 MSTORE RETURN JUMPDEST POP CALLVALUE PUSH2 0x205 JUMPI PUSH0 PUSH32 0xFFFFFFFFFFFFFFFFFFFFFFFFFFFFFFFFFFFFFFFFFFFFFFFFFFFFFFFFFFFFFFFC CALLDATASIZE ADD SLT PUSH2 0x205 JUMPI PUSH1 0x20 SWAP1 MLOAD PUSH13 0x110DCBA2E6F97B2A41A7EBA1B8 DUP2 MSTORE RETURN JUMPDEST POP CALLVALUE PUSH2 0x205 JUMPI PUSH0 PUSH32 0xFFFFFFFFFFFFFFFFFFFFFFFFFFFFFFFFFFFFFFFFFFFFFFFFFFFFFFFFFFFFFFFC CALLDATASIZE ADD SLT PUSH2 0x205 JUMPI PUSH1 0x20 SWAP1 MLOAD PUSH11 0xD47D67CCE9223FAD7DE347 DUP2 MSTORE RETURN JUMPDEST POP CALLVALUE PUSH2 0x205 JUMPI PUSH0 PUSH32 0xFFFFFFFFFFFFFFFFFFFFFFFFFFFFFFFFFFFFFFFFFFFFFFFFFFFFFFFFFFFFFFFC CALLDATASIZE ADD SLT PUSH2 0x205 JUMPI PUSH1 0x20 SWAP1 MLOAD PUSH3 0x54DDDD DUP2 MSTORE RETURN JUMPDEST POP CALLVALUE PUSH2 0x205 JUMPI PUSH0 PUSH32 0xFFFFFFFFFFFFFFFFFFFFFFFFFFFFFFFFFFFFFFFFFFFFFFFFFFFFFFFFFFFFFFFC CALLDATASIZE ADD SLT PUSH2 0x205 JUMPI PUSH1 0x20 SWAP1 MLOAD PUSH4 0xE4AC0516 DUP2 MSTORE RETURN JUMPDEST POP CALLVALUE PUSH2 0x205 JUMPI PUSH1 0x20 SWAP1 PUSH2 0x958 PUSH2 0x952 CALLDATASIZE PUSH2 0xB91 JUMP JUMPDEST SWAP2 PUSH2 0xD14 JUMP JUMPDEST SWAP1 MLOAD SWAP1 DUP2 MSTORE RETURN JUMPDEST POP CALLVALUE PUSH2 0x205 JUMPI PUSH0 PUSH32 0xFFFFFFFFFFFFFFFFFFFFFFFFFFFFFFFFFFFFFFFFFFFFFFFFFFFFFFFFFFFFFFFC CALLDATASIZE ADD SLT PUSH2 0x205 JUMPI PUSH1 0x20 SWAP1 MLOAD PUSH13 0x110F11BC46BC3EFCC5B8FF1223 DUP2 MSTORE RETURN JUMPDEST SWAP1 CALLVALUE PUSH2 0x205 JUMPI PUSH1 0x60 PUSH32 0xFFFFFFFFFFFFFFFFFFFFFFFFFFFFFFFFFFFFFFFFFFFFFFFFFFFFFFFFFFFFFFFC CALLDATASIZE ADD SLT PUSH2 0x205 JUMPI PUSH8 0xFFFFFFFFFFFFFFFF DUP3 CALLDATALOAD DUP2 DUP2 GT PUSH2 0x205 JUMPI PUSH2 0x9F3 SWAP1 CALLDATASIZE SWAP1 DUP6 ADD PUSH2 0xB1A JUMP JUMPDEST POP POP PUSH1 0x24 CALLDATALOAD DUP2 DUP2 GT PUSH2 0x205 JUMPI PUSH2 0xA0C SWAP1 CALLDATASIZE SWAP1 DUP6 ADD PUSH2 0xB1A JUMP JUMPDEST POP POP PUSH1 0x44 CALLDATALOAD SWAP1 DUP2 GT PUSH2 0x205 JUMPI PUSH1 0x20 SWAP3 PUSH2 0xA27 SWAP2 CALLDATASIZE SWAP2 ADD PUSH2 0xB1A JUMP JUMPDEST POP POP MLOAD PUSH1 0x1 DUP2 MSTORE RETURN JUMPDEST POP CALLVALUE PUSH2 0x205 JUMPI PUSH0 PUSH32 0xFFFFFFFFFFFFFFFFFFFFFFFFFFFFFFFFFFFFFFFFFFFFFFFFFFFFFFFFFFFFFFFC CALLDATASIZE ADD SLT PUSH2 0x205 JUMPI PUSH1 0x20 SWAP1 MLOAD PUSH2 0x438 DUP2 MSTORE RETURN JUMPDEST POP CALLVALUE PUSH2 0x205 JUMPI PUSH0 PUSH32 0xFFFFFFFFFFFFFFFFFFFFFFFFFFFFFFFFFFFFFFFFFFFFFFFFFFFFFFFFFFFFFFFC CALLDATASIZE ADD SLT PUSH2 0x205 JUMPI PUSH1 0x20 SWAP1 MLOAD PUSH3 0xB68F7 DUP2 MSTORE RETURN JUMPDEST POP CALLVALUE PUSH2 0x205 JUMPI PUSH0 PUSH32 0xFFFFFFFFFFFFFFFFFFFFFFFFFFFFFFFFFFFFFFFFFFFFFFFFFFFFFFFFFFFFFFFC CALLDATASIZE ADD SLT PUSH2 0x205 JUMPI PUSH1 0x20 SWAP1 MLOAD PUSH0 DUP2 MSTORE RETURN JUMPDEST CALLVALUE PUSH2 0x205 JUMPI PUSH0 PUSH32 0xFFFFFFFFFFFFFFFFFFFFFFFFFFFFFFFFFFFFFFFFFFFFFFFFFFFFFFFFFFFFFFFC CALLDATASIZE ADD SLT PUSH2 0x205 JUMPI DUP1 PUSH7 0x533304F826D31 PUSH1 0x20 SWAP3 MSTORE RETURN JUMPDEST SWAP2 DUP2 PUSH1 0x1F DUP5 ADD SLT ISZERO PUSH2 0x205 JUMPI DUP3 CALLDATALOAD SWAP2 PUSH8 0xFFFFFFFFFFFFFFFF DUP4 GT PUSH2 0x205 JUMPI PUSH1 0x20 DUP1 DUP6 ADD SWAP5 DUP5 PUSH1 0x5 SHL ADD ADD GT PUSH2 0x205 JUMPI JUMP JUMPDEST PUSH1 0x4 CALLDATALOAD SWAP1 PUSH20 0xFFFFFFFFFFFFFFFFFFFFFFFFFFFFFFFFFFFFFFFF DUP3 AND DUP3 SUB PUSH2 0x205 JUMPI JUMP JUMPDEST PUSH1 0x24 CALLDATALOAD SWAP1 PUSH20 0xFFFFFFFFFFFFFFFFFFFFFFFFFFFFFFFFFFFFFFFF DUP3 AND DUP3 SUB PUSH2 0x205 JUMPI JUMP JUMPDEST PUSH32 0xFFFFFFFFFFFFFFFFFFFFFFFFFFFFFFFFFFFFFFFFFFFFFFFFFFFFFFFFFFFFFFFC PUSH1 0x60 SWAP2 ADD SLT PUSH2 0x205 JUMPI PUSH20 0xFFFFFFFFFFFFFFFFFFFFFFFFFFFFFFFFFFFFFFFF SWAP1 PUSH1 0x4 CALLDATALOAD DUP3 DUP2 AND DUP2 SUB PUSH2 0x205 JUMPI SWAP2 PUSH1 0x24 CALLDATALOAD SWAP1 DUP2 AND DUP2 SUB PUSH2 0x205 JUMPI SWAP1 PUSH1 0x44 CALLDATALOAD SWAP1 JUMP JUMPDEST SWAP1 PUSH1 0x1F PUSH32 0xFFFFFFFFFFFFFFFFFFFFFFFFFFFFFFFFFFFFFFFFFFFFFFFFFFFFFFFFFFFFFFE0 SWAP2 ADD AND DUP2 ADD SWAP1 DUP2 LT PUSH8 0xFFFFFFFFFFFFFFFF DUP3 GT OR PUSH2 0xC32 JUMPI PUSH1 0x40 MSTORE JUMP JUMPDEST PUSH32 0x4E487B7100000000000000000000000000000000000000000000000000000000 PUSH0 MSTORE PUSH1 0x41 PUSH1 0x4 MSTORE PUSH1 0x24 PUSH0 REVERT JUMPDEST SWAP1 DUP2 PUSH1 0x20 SWAP2 SUB SLT PUSH2 0x205 JUMPI MLOAD PUSH1 0xFF DUP2 AND DUP2 SUB PUSH2 0x205 JUMPI SWAP1 JUMP JUMPDEST PUSH1 0xFF AND PUSH1 0x4D DUP2 GT PUSH2 0xC89 JUMPI PUSH1 0xA EXP SWAP1 JUMP JUMPDEST PUSH32 0x4E487B7100000000000000000000000000000000000000000000000000000000 PUSH0 MSTORE PUSH1 0x11 PUSH1 0x4 MSTORE PUSH1 0x24 PUSH0 REVERT JUMPDEST DUP2 DUP2 MUL SWAP3 SWAP2 DUP2 ISZERO SWAP2 DUP5 DIV EQ OR ISZERO PUSH2 0xC89 JUMPI JUMP JUMPDEST DUP2 ISZERO PUSH2 0xCD3 JUMPI DIV SWAP1 JUMP JUMPDEST PUSH32 0x4E487B7100000000000000000000000000000000000000000000000000000000 PUSH0 MSTORE PUSH1 0x12 PUSH1 0x4 MSTORE PUSH1 0x24 PUSH0 REVERT JUMPDEST SWAP1 PUSH1 0xFF DUP1 SWAP2 AND SWAP2 AND SUB SWAP1 PUSH1 0xFF DUP3 GT PUSH2 0xC89 JUMPI JUMP JUMPDEST SWAP2 PUSH20 0xFFFFFFFFFFFFFFFFFFFFFFFFFFFFFFFFFFFFFFFF DUP1 SWAP4 AND PUSH1 0x40 SWAP3 DUP4 MLOAD SWAP4 PUSH32 0x313CE56700000000000000000000000000000000000000000000000000000000 SWAP6 DUP7 DUP7 MSTORE PUSH1 0x20 SWAP3 DUP4 DUP8 PUSH1 0x4 DUP2 DUP9 GAS STATICCALL SWAP7 DUP8 ISZERO PUSH2 0xEA9 JUMPI PUSH0 SWAP8 PUSH2 0xE8A JUMPI JUMPDEST POP AND DUP2 MLOAD SWAP7 DUP8 MSTORE DUP3 DUP8 PUSH1 0x4 DUP2 DUP5 GAS STATICCALL SWAP7 DUP8 ISZERO PUSH2 0xE80 JUMPI PUSH0 SWAP8 PUSH2 0xE33 JUMPI JUMPDEST POP SWAP3 PUSH2 0xDCE PUSH8 0xDE0B6B3A7640000 SWAP6 SWAP4 PUSH2 0xDD3 SWAP4 PUSH2 0xDD9 SWAP7 PUSH2 0xDAF DUP11 PUSH2 0xC78 JUMP JUMPDEST SWAP3 PUSH2 0xDB9 DUP13 PUSH2 0xC78 JUMP JUMPDEST SWAP6 PUSH0 MSTORE PUSH0 DUP2 MSTORE DUP3 PUSH0 KECCAK256 SWAP2 PUSH0 MSTORE MSTORE PUSH0 KECCAK256 SLOAD PUSH2 0xCB6 JUMP JUMPDEST PUSH2 0xCC9 JUMP JUMPDEST SWAP1 PUSH2 0xCB6 JUMP JUMPDEST DIV SWAP2 PUSH1 0xFF DUP2 AND SWAP1 PUSH1 0xFF DUP4 AND SWAP2 DUP1 DUP4 EQ PUSH2 0xE2C JUMPI PUSH2 0xE08 SWAP3 GT SWAP3 DUP4 PUSH0 EQ PUSH2 0xE23 JUMPI SWAP1 PUSH2 0xE03 SWAP2 PUSH2 0xD00 JUMP JUMPDEST PUSH2 0xC78 JUMP JUMPDEST SWAP1 ISZERO PUSH2 0xE1A JUMPI PUSH2 0xE17 SWAP2 PUSH2 0xCC9 JUMP JUMPDEST SWAP1 JUMP JUMPDEST PUSH2 0xE17 SWAP2 PUSH2 0xCB6 JUMP JUMPDEST PUSH2 0xE03 SWAP2 PUSH2 0xD00 JUMP JUMPDEST POP POP POP POP SWAP1 JUMP JUMPDEST PUSH2 0xDD9 SWAP5 SWAP2 SWAP8 POP DUP4 PUSH2 0xDD3 SWAP4 PUSH2 0xE6B PUSH2 0xDCE SWAP4 PUSH8 0xDE0B6B3A7640000 SWAP10 SWAP8 RETURNDATASIZE DUP6 GT PUSH2 0xE79 JUMPI JUMPDEST PUSH2 0xE63 DUP2 DUP4 PUSH2 0xBF1 JUMP JUMPDEST DUP2 ADD SWAP1 PUSH2 0xC5F JUMP JUMPDEST SWAP10 SWAP4 SWAP7 POP SWAP4 POP SWAP4 SWAP6 POP PUSH2 0xD8E JUMP JUMPDEST POP RETURNDATASIZE PUSH2 0xE59 JUMP JUMPDEST DUP3 MLOAD RETURNDATASIZE PUSH0 DUP3 RETURNDATACOPY RETURNDATASIZE SWAP1 REVERT JUMPDEST PUSH2 0xEA2 SWAP2 SWAP8 POP DUP5 RETURNDATASIZE DUP7 GT PUSH2 0xE79 JUMPI PUSH2 0xE63 DUP2 DUP4 PUSH2 0xBF1 JUMP JUMPDEST SWAP6 PUSH0 PUSH2 0xD71 JUMP JUMPDEST DUP4 MLOAD RETURNDATASIZE PUSH0 DUP3 RETURNDATACOPY RETURNDATASIZE SWAP1 REVERT INVALID LOG2 PUSH5 0x6970667358 0x22 SLT KECCAK256 0xBD 0xD SWAP4 0xEB 0xD1 CREATE2 CALLDATASIZE SSTORE 0xE0 0xD0 0xC8 MSTORE GT 0xDB DUP7 DUP16 DUP14 SWAP16 MCOPY BLOBBASEFEE PUSH19 0xA9E77E893D2D745878FDB664736F6C63430008 NOT STOP CALLER "},"gasEstimates":{"creation":{"codeDepositCost":"763400","executionCost":"infinite","totalCost":"infinite"},"external":{"USDC()":"2710","USDC_TO_USDT_RATE()":"730","USDC_TO_WBTC_RATE()":"151","USDC_TO_WETH_RATE()":"818","USDC_TO_WMATIC_RATE()":"400","USDT_TO_USDC_RATE()":"664","USDT_TO_WBTC_RATE()":"642","USDT_TO_WETH_RATE()":"378","USDT_TO_WMATIC_RATE()":"268","WBTC_TO_USDC_RATE()":"422","WBTC_TO_USDT_RATE()":"796","WBTC_TO_WETH_RATE()":"752","WBTC_TO_WMATIC_RATE()":"620","WETH_TO_USDC_RATE()":"334","WETH_TO_USDT_RATE()":"466","WETH_TO_WBTC_RATE()":"356","WETH_TO_WMATIC_RATE()":"840","WMATIC_TO_USDC_RATE()":"774","WMATIC_TO_USDT_RATE()":"202","WMATIC_TO_WBTC_RATE()":"224","WMATIC_TO_WETH_RATE()":"686","WNATIVE()":"2820","checkRebalance(address[],uint256[],uint256[])":"infinite","convert(address,address,uint256)":"infinite","getBaluniRouter()":"179","getRate(address,address,bool)":"2950","getRateToEth(address,bool)":"4970","getTreasury()":"2424","rates(address,address)":"2875","rebalance(address[],uint256[],address,address,uint256)":"infinite","setRate(address,address,uint256)":"22781","setTreasury(address)":"25125","treasury()":"2600"}},"methodIdentifiers":{"USDC()":"89a30271","USDC_TO_USDT_RATE()":"b537d24b","USDC_TO_WBTC_RATE()":"02098719","USDC_TO_WETH_RATE()":"e2338e72","USDC_TO_WMATIC_RATE()":"5107e94e","USDT_TO_USDC_RATE()":"a58a7f8a","USDT_TO_WBTC_RATE()":"97db8e02","USDT_TO_WETH_RATE()":"443dc789","USDT_TO_WMATIC_RATE()":"1a1e4a1f","WBTC_TO_USDC_RATE()":"53ff493e","WBTC_TO_USDT_RATE()":"d135e3be","WBTC_TO_WETH_RATE()":"b9e93810","WBTC_TO_WMATIC_RATE()":"8e5139ed","WETH_TO_USDC_RATE()":"4039e687","WETH_TO_USDT_RATE()":"5fc8cd69","WETH_TO_WBTC_RATE()":"43146399","WETH_TO_WMATIC_RATE()":"e30f6892","WMATIC_TO_USDC_RATE()":"c0184983","WMATIC_TO_USDT_RATE()":"0e091762","WMATIC_TO_WBTC_RATE()":"187029b8","WMATIC_TO_WETH_RATE()":"ae3bcc96","WNATIVE()":"b381cf40","checkRebalance(address[],uint256[],uint256[])":"18cdc49a","convert(address,address,uint256)":"248391ff","getBaluniRouter()":"04cc7325","getRate(address,address,bool)":"802431fb","getRateToEth(address,bool)":"7de4fd10","getTreasury()":"3b19e84a","rates(address,address)":"7b0cf44d","rebalance(address[],uint256[],address,address,uint256)":"84db1dfb","setRate(address,address,uint256)":"5911fb9a","setTreasury(address)":"f0f44260","treasury()":"61d027b3"}},"storageLayout":{"storage":[{"astId":4305,"contract":"contracts/mock/MockRebalancer.sol:MockRebalancer","label":"rates","offset":0,"slot":"0","type":"t_mapping(t_address,t_mapping(t_address,t_uint256))"},{"astId":4367,"contract":"contracts/mock/MockRebalancer.sol:MockRebalancer","label":"USDC","offset":0,"slot":"1","type":"t_address"},{"astId":4369,"contract":"contracts/mock/MockRebalancer.sol:MockRebalancer","label":"WNATIVE","offset":0,"slot":"2","type":"t_address"},{"astId":4371,"contract":"contracts/mock/MockRebalancer.sol:MockRebalancer","label":"treasury","offset":0,"slot":"3","type":"t_address"}],"types":{"t_address":{"encoding":"inplace","label":"address","numberOfBytes":"20"},"t_mapping(t_address,t_mapping(t_address,t_uint256))":{"encoding":"mapping","key":"t_address","label":"mapping(address => mapping(address => uint256))","numberOfBytes":"32","value":"t_mapping(t_address,t_uint256)"},"t_mapping(t_address,t_uint256)":{"encoding":"mapping","key":"t_address","label":"mapping(address => uint256)","numberOfBytes":"32","value":"t_uint256"},"t_uint256":{"encoding":"inplace","label":"uint256","numberOfBytes":"32"}}},"userdoc":{"kind":"user","methods":{},"version":1}}}}