{"contracts/BaluniV1PoolPeriphery.sol":{"BaluniV1PoolPeriphery":{"abi":[{"inputs":[{"internalType":"address","name":"target","type":"address"}],"name":"AddressEmptyCode","type":"error"},{"inputs":[{"internalType":"address","name":"implementation","type":"address"}],"name":"ERC1967InvalidImplementation","type":"error"},{"inputs":[],"name":"ERC1967NonPayable","type":"error"},{"inputs":[],"name":"FailedInnerCall","type":"error"},{"inputs":[],"name":"InvalidInitialization","type":"error"},{"inputs":[],"name":"NotInitializing","type":"error"},{"inputs":[{"internalType":"address","name":"owner","type":"address"}],"name":"OwnableInvalidOwner","type":"error"},{"inputs":[{"internalType":"address","name":"account","type":"address"}],"name":"OwnableUnauthorizedAccount","type":"error"},{"inputs":[],"name":"UUPSUnauthorizedCallContext","type":"error"},{"inputs":[{"internalType":"bytes32","name":"slot","type":"bytes32"}],"name":"UUPSUnsupportedProxiableUUID","type":"error"},{"anonymous":false,"inputs":[{"indexed":false,"internalType":"uint64","name":"version","type":"uint64"}],"name":"Initialized","type":"event"},{"anonymous":false,"inputs":[{"indexed":true,"internalType":"address","name":"previousOwner","type":"address"},{"indexed":true,"internalType":"address","name":"newOwner","type":"address"}],"name":"OwnershipTransferred","type":"event"},{"anonymous":false,"inputs":[{"indexed":true,"internalType":"address","name":"implementation","type":"address"}],"name":"Upgraded","type":"event"},{"inputs":[],"name":"UPGRADE_INTERFACE_VERSION","outputs":[{"internalType":"string","name":"","type":"string"}],"stateMutability":"view","type":"function"},{"inputs":[{"internalType":"uint256[]","name":"amounts","type":"uint256[]"},{"internalType":"address","name":"poolAddress","type":"address"},{"internalType":"address","name":"receiver","type":"address"}],"name":"addLiquidity","outputs":[],"stateMutability":"nonpayable","type":"function"},{"inputs":[{"internalType":"address[]","name":"fromTokens","type":"address[]"},{"internalType":"address[]","name":"toTokens","type":"address[]"},{"internalType":"uint256[]","name":"amounts","type":"uint256[]"},{"internalType":"address[]","name":"receivers","type":"address[]"}],"name":"batchSwap","outputs":[{"internalType":"uint256[]","name":"","type":"uint256[]"}],"stateMutability":"nonpayable","type":"function"},{"inputs":[{"internalType":"address","name":"_poolFactory","type":"address"}],"name":"changePoolFactory","outputs":[],"stateMutability":"nonpayable","type":"function"},{"inputs":[{"internalType":"address","name":"fromToken","type":"address"},{"internalType":"address","name":"toToken","type":"address"},{"internalType":"uint256","name":"amount","type":"uint256"}],"name":"getAmountOut","outputs":[{"internalType":"uint256","name":"","type":"uint256"}],"stateMutability":"view","type":"function"},{"inputs":[{"internalType":"address","name":"pool","type":"address"},{"internalType":"address","name":"asset","type":"address"}],"name":"getAssetReserves","outputs":[{"internalType":"uint256","name":"","type":"uint256"}],"stateMutability":"view","type":"function"},{"inputs":[{"internalType":"address","name":"token","type":"address"}],"name":"getPoolsContainingToken","outputs":[{"internalType":"address[]","name":"","type":"address[]"}],"stateMutability":"view","type":"function"},{"inputs":[{"internalType":"address","name":"pool","type":"address"}],"name":"getReserves","outputs":[{"internalType":"uint256[]","name":"","type":"uint256[]"}],"stateMutability":"view","type":"function"},{"inputs":[],"name":"getVersion","outputs":[{"internalType":"uint64","name":"","type":"uint64"}],"stateMutability":"view","type":"function"},{"inputs":[{"internalType":"address","name":"_poolFactory","type":"address"}],"name":"initialize","outputs":[],"stateMutability":"nonpayable","type":"function"},{"inputs":[],"name":"owner","outputs":[{"internalType":"address","name":"","type":"address"}],"stateMutability":"view","type":"function"},{"inputs":[{"internalType":"address","name":"poolAddress","type":"address"}],"name":"performRebalanceIfNeeded","outputs":[],"stateMutability":"nonpayable","type":"function"},{"inputs":[],"name":"poolFactory","outputs":[{"internalType":"contract IBaluniV1PoolFactory","name":"","type":"address"}],"stateMutability":"view","type":"function"},{"inputs":[{"internalType":"address","name":"","type":"address"},{"internalType":"address","name":"","type":"address"}],"name":"poolsReserves","outputs":[{"internalType":"uint256","name":"","type":"uint256"}],"stateMutability":"view","type":"function"},{"inputs":[],"name":"proxiableUUID","outputs":[{"internalType":"bytes32","name":"","type":"bytes32"}],"stateMutability":"view","type":"function"},{"inputs":[{"internalType":"address","name":"receiver","type":"address"},{"internalType":"address","name":"poolAddress","type":"address"}],"name":"rebalanceWeights","outputs":[],"stateMutability":"nonpayable","type":"function"},{"inputs":[{"internalType":"address","name":"_poolFactory","type":"address"},{"internalType":"uint64","name":"version","type":"uint64"}],"name":"reinitialize","outputs":[],"stateMutability":"nonpayable","type":"function"},{"inputs":[{"internalType":"uint256","name":"share","type":"uint256"},{"internalType":"address","name":"poolAddress","type":"address"},{"internalType":"address","name":"receiver","type":"address"}],"name":"removeLiquidity","outputs":[],"stateMutability":"nonpayable","type":"function"},{"inputs":[],"name":"renounceOwnership","outputs":[],"stateMutability":"nonpayable","type":"function"},{"inputs":[{"internalType":"address","name":"fromToken","type":"address"},{"internalType":"address","name":"toToken","type":"address"},{"internalType":"uint256","name":"amount","type":"uint256"},{"internalType":"address","name":"receiver","type":"address"}],"name":"smartSwap","outputs":[{"internalType":"uint256","name":"","type":"uint256"}],"stateMutability":"nonpayable","type":"function"},{"inputs":[{"internalType":"address","name":"fromToken","type":"address"},{"internalType":"address","name":"toToken","type":"address"},{"internalType":"uint256","name":"amount","type":"uint256"},{"internalType":"address","name":"receiver","type":"address"}],"name":"swap","outputs":[{"internalType":"uint256","name":"","type":"uint256"}],"stateMutability":"nonpayable","type":"function"},{"inputs":[{"internalType":"address","name":"newOwner","type":"address"}],"name":"transferOwnership","outputs":[],"stateMutability":"nonpayable","type":"function"},{"inputs":[{"internalType":"address","name":"newImplementation","type":"address"},{"internalType":"bytes","name":"data","type":"bytes"}],"name":"upgradeToAndCall","outputs":[],"stateMutability":"payable","type":"function"}],"devdoc":{"details":"This contract serves as the periphery contract for interacting with BaluniV1Pool contracts. It provides functions for swapping tokens, adding liquidity, removing liquidity, and getting the amount out for a given swap.","errors":{"AddressEmptyCode(address)":[{"details":"There's no code at `target` (it is not a contract)."}],"ERC1967InvalidImplementation(address)":[{"details":"The `implementation` of the proxy is invalid."}],"ERC1967NonPayable()":[{"details":"An upgrade function sees `msg.value > 0` that may be lost."}],"FailedInnerCall()":[{"details":"A call to an address target failed. The target may have reverted."}],"InvalidInitialization()":[{"details":"The contract is already initialized."}],"NotInitializing()":[{"details":"The contract is not initializing."}],"OwnableInvalidOwner(address)":[{"details":"The owner is not a valid owner account. (eg. `address(0)`)"}],"OwnableUnauthorizedAccount(address)":[{"details":"The caller account is not authorized to perform an operation."}],"UUPSUnauthorizedCallContext()":[{"details":"The call is from an unauthorized context."}],"UUPSUnsupportedProxiableUUID(bytes32)":[{"details":"The storage `slot` is unsupported as a UUID."}]},"events":{"Initialized(uint64)":{"details":"Triggered when the contract has been initialized or reinitialized."},"Upgraded(address)":{"details":"Emitted when the implementation is upgraded."}},"kind":"dev","methods":{"addLiquidity(uint256[],address,address)":{"details":"Adds liquidity to a BaluniV1Pool.","params":{"amounts":"An array of amounts for each asset to add as liquidity."}},"batchSwap(address[],address[],uint256[],address[])":{"details":"Performs batch swaps between multiple token pairs.","params":{"amounts":"An array of amounts representing the amounts to swap.","fromTokens":"An array of addresses representing the tokens to swap from.","receivers":"An array of addresses representing the receivers of the swapped tokens.","toTokens":"An array of addresses representing the tokens to swap to."},"returns":{"_0":"An array of amounts representing the amounts of tokens received after the swaps."}},"changePoolFactory(address)":{"details":"Changes the address of the pool factory contract. Can only be called by the contract owner.","params":{"_poolFactory":"The new address of the pool factory contract."}},"getAmountOut(address,address,uint256)":{"details":"Gets the amount of tokens received after a swap in a BaluniV1Pool.","params":{"amount":"The amount of tokens to swap.","fromToken":"The address of the token to swap from.","toToken":"The address of the token to swap to."},"returns":{"_0":"The amount of tokens received after the swap."}},"getPoolsContainingToken(address)":{"details":"Returns an array of pool addresses that contain the given token.","params":{"token":"The address of the token to search for."},"returns":{"_0":"An array of pool addresses."}},"getVersion()":{"details":"Returns the version of the contract.","returns":{"_0":"The version string."}},"initialize(address)":{"details":"Initializes the contract by setting the pool factory address.","params":{"_poolFactory":"The address of the BaluniV1PoolFactory contract."}},"owner()":{"details":"Returns the address of the current owner."},"performRebalanceIfNeeded(address)":{"details":"Performs rebalance if needed for the given tokens.","params":{"poolAddress":"The address of the token pool to rebalance."}},"proxiableUUID()":{"details":"Implementation of the ERC1822 {proxiableUUID} function. This returns the storage slot used by the implementation. It is used to validate the implementation's compatibility when performing an upgrade. IMPORTANT: A proxy pointing at a proxiable contract should not be considered proxiable itself, because this risks bricking a proxy that upgrades to it, by delegating to itself until out of gas. Thus it is critical that this function revert if invoked through a proxy. This is guaranteed by the `notDelegated` modifier."},"reinitialize(address,uint64)":{"details":"Initializes the contract by setting the pool factory address.","params":{"_poolFactory":"The address of the BaluniV1PoolFactory contract."}},"removeLiquidity(uint256,address,address)":{"details":"Removes liquidity from a BaluniV1Pool.","params":{"poolAddress":"The address of the BaluniV1Pool.","share":"The amount of liquidity tokens to remove."}},"renounceOwnership()":{"details":"Leaves the contract without owner. It will not be possible to call `onlyOwner` functions. Can only be called by the current owner. NOTE: Renouncing ownership will leave the contract without an owner, thereby disabling any functionality that is only available to the owner."},"swap(address,address,uint256,address)":{"details":"Swaps tokens in a BaluniV1Pool.","params":{"amount":"The amount of tokens to swap.","fromToken":"The address of the token to swap from.","toToken":"The address of the token to swap to."},"returns":{"_0":"The amount of tokens received after the swap."}},"transferOwnership(address)":{"details":"Transfers ownership of the contract to a new account (`newOwner`). Can only be called by the current owner."},"upgradeToAndCall(address,bytes)":{"custom:oz-upgrades-unsafe-allow-reachable":"delegatecall","details":"Upgrade the implementation of the proxy to `newImplementation`, and subsequently execute the function call encoded in `data`. Calls {_authorizeUpgrade}. Emits an {Upgraded} event."}},"title":"BaluniV1PoolPeriphery","version":1},"evm":{"bytecode":{"linkReferences":{},"object":"60a080604052346029573060805261384b908161002e823960805181818161250c01526126260152f35b5f80fdfe608060409080825260049081361015610016575f80fd5b5f3560e01c9081630d8e6e2c14612b09575080633e99c1e414612aba5780634056c37f146117925780634219dc4014612a695780634aa06652146128ad5780634f1ef2861461258157806352d1902d146124c55780635568081a146121a65780636e81221c14611ea4578063715018a614611de857806372591be514611d685780637442eca6146118075780638628991e146117925780638da5cb5b146117215780638f2248bc146115a3578063ad3cb1cc146114b5578063ad41426314611294578063ae3cce1c146111a3578063c4d66de814610fb3578063e74e9b0614610a0e578063ec0cd2eb146107a7578063f2fde38b146107605763f31abcc41461011d575f80fd5b346105585760607ffffffffffffffffffffffffffffffffffffffffffffffffffffffffffffffffc36011261055857803590610157612b8d565b91610160612bb0565b81156107035784517fdd62ed3e0000000000000000000000000000000000000000000000000000000081523384820190815230602082810191909152929173ffffffffffffffffffffffffffffffffffffffff878116929091908590829081906040010381865afa80156105b75786915f916106d2575b5010610676578751967f70a082310000000000000000000000000000000000000000000000000000000097888152338882015260249686828981885afa801561066c5787925f91610639575b509261023482610292951015612f73565b8b5193849283927f23b872dd000000000000000000000000000000000000000000000000000000008452338d850160409194939294606082019573ffffffffffffffffffffffffffffffffffffffff80921683521660208201520152565b03815f875af19081156105b7575f9161061c575b50156105c1578751917f89afcb44000000000000000000000000000000000000000000000000000000008352818416878401525f83878183855af19283156105b7575f93610593575b508851907f67e4ac2c0000000000000000000000000000000000000000000000000000000082525f828981845afa918215610589575f92610565575b505f5b8251811015610563578a878a8a8d88610347878a612e5e565b511694519485938492835230908301525afa9081156104cd575f91610532575b506103728287612e5e565b51116104d7576103828186612e5e565b51825f52600188528b5f20856103988487612e5e565b51165f5288526103ac8c5f20918254613073565b9055610425878c8b895f896103c1888b612e5e565b5116926103ce888d612e5e565b519451968795869485937fa9059cbb00000000000000000000000000000000000000000000000000000000855284016020909392919373ffffffffffffffffffffffffffffffffffffffff60408201951681520152565b03925af19081156104cd575f916104a0575b50156104455760010161032e565b60648960158a8a8f51937f08c379a00000000000000000000000000000000000000000000000000000000085528401528201527f4173736574207472616e73666572206661696c656400000000000000000000006044820152fd5b6104c09150883d8a116104c6575b6104b88183612c0e565b8101906130e5565b5f610437565b503d6104ae565b8c513d5f823e3d90fd5b60648960168a8a8f51937f08c379a00000000000000000000000000000000000000000000000000000000085528401528201527f496e73756666696369656e74204c6971756964697479000000000000000000006044820152fd5b90508781813d831161055c575b6105498183612c0e565b8101031261055857515f610367565b5f80fd5b503d61053f565b005b6105829192503d805f833e61057a8183612c0e565b810190612d8d565b905f61032b565b8a513d5f823e3d90fd5b6105b09193503d805f833e6105a88183612c0e565b8101906130fd565b915f6102ef565b89513d5f823e3d90fd5b606486601387878c51937f08c379a00000000000000000000000000000000000000000000000000000000085528401528201527f5472616e7366657246726f6d206661696c6564000000000000000000000000006044820152fd5b6106339150853d87116104c6576104b88183612c0e565b5f6102a6565b83819492503d8311610665575b6106508183612c0e565b81010312610558579051869190610234610223565b503d610646565b8b513d5f823e3d90fd5b606486858a51917f08c379a0000000000000000000000000000000000000000000000000000000008352820152601660248201527f496e73756666696369656e7420616c6c6f77616e6365000000000000000000006044820152fd5b809250868092503d83116106fc575b6106eb8183612c0e565b81010312610558578590515f6101d7565b503d6106e1565b60648360208751917f08c379a0000000000000000000000000000000000000000000000000000000008352820152601f60248201527f5368617265206d7573742062652067726561746572207468616e207a65726f006044820152fd5b346105585760207ffffffffffffffffffffffffffffffffffffffffffffffffffffffffffffffffc3601126105585761056361079a612b6a565b6107a2613218565b613157565b50346105585760607ffffffffffffffffffffffffffffffffffffffffffffffffffffffffffffffffc36011261055857803567ffffffffffffffff8111610558576107f59036908301612d23565b916107fe612b8d565b610806612bb0565b9373ffffffffffffffffffffffffffffffffffffffff8092169186517f67e4ac2c0000000000000000000000000000000000000000000000000000000081525f818681875afa908115610a04575f916109ea575b505f5b815181101561092d57805f8a856108776108f49587612e5e565b511661088484898d613126565b35908984528a60209485946001865280822084835286528082206108a9868254613039565b9055517f23b872dd0000000000000000000000000000000000000000000000000000000081523392810192835230602084015260408301949094529296879384929091839160600190565b03925af192831561066c5760019361090f575b50500161085d565b8161092592903d106104c6576104b88183612c0e565b505f80610907565b87898886888a888551967fde836ebd00000000000000000000000000000000000000000000000000000000885216908601528360248601528160448601527f07ffffffffffffffffffffffffffffffffffffffffffffffffffffffffffffff821161055857845f606482602096819660051b80918484013781010301925af19081156109e157506109ba57005b602090813d83116109da575b6109d08183612c0e565b8101031261055857005b503d6109c6565b513d5f823e3d90fd5b6109fe91503d805f833e61057a8183612c0e565b5f61085a565b88513d5f823e3d90fd5b50346105585760807ffffffffffffffffffffffffffffffffffffffffffffffffffffffffffffffffc3601126105585767ffffffffffffffff813581811161055857610a5d9036908401612d23565b91909260243582811161055857610a779036908301612d23565b92909160443582811161055857610a919036908301612d23565b91909260643590811161055857610aab9036908301612d23565b86889392931480610faa575b80610fa1575b15610f4457610acb88612e0f565b985f5b898110610ae6578b5180610ae28d82612bd3565b0390f35b80888b8e8786610b428f878f918f610b08610ba09c610b1092610b3796613126565b351515613080565b610b3c610b378373ffffffffffffffffffffffffffffffffffffffff9a8b5f541698613126565b613136565b98613126565b90835180809981947f2d5e94a70000000000000000000000000000000000000000000000000000000083526020998a97840190602090939293604083019473ffffffffffffffffffffffffffffffffffffffff809216845216910152565b03915afa9081156109e1578a8f88938e985f91610ee5575b5087879387610bd5610b3784610c279e9784610bdc98169b613126565b1693613126565b83517f23b872dd00000000000000000000000000000000000000000000000000000000815233818e01908152306020820152913560408301529889929183915f918391606090910190565b03925af18015610ebd578f8f8f908f8f938f918f948f9d908f610c5b8f8f9b968197938d83978496610ec7575b5050613126565b610c6490613136565b96610c6e92613126565b610c7790613136565b96610c8192613126565b359b610c8c92613126565b610c9590613136565b85517f6e81221c00000000000000000000000000000000000000000000000000000000815273ffffffffffffffffffffffffffffffffffffffff9283169381019384529382166020840152604083019a909a52909816606089015296879081906080010381855a905f91f1928315610ebd578f8f918f928f938f938f978f968f968f915f9c610e55575b610e129f508e610dbc978f9e9d9c9b9994978f8f908e610dae915f9f9a9b879c610b379e610d548a610db59d610b379d613126565b35905f8390528d610d72610b378d600197888a525f8b902095613126565b165f5284525f85610d869120918254613039565b90555f5281528f829020908a610da0610b378a8a8a613126565b165f52528e20918254613073565b9055613126565b1697613126565b9251988995869485937fa9059cbb00000000000000000000000000000000000000000000000000000000855284016020909392919373ffffffffffffffffffffffffffffffffffffffff60408201951681520152565b03925af1928315610e4b57600193610e2d575b505001610ace565b81610e4392903d106104c6576104b88183612c0e565b505f80610e25565b8e513d5f823e3d90fd5b5050509b975050505094505050508281813d8311610eb6575b610e788183612c0e565b81010312610558578f94858f8f8f938f958f8f968f94998f918f94938e8e9d8196938f8395519850509794999b9c9d929350979499959d5050610d1f565b503d610e6e565b50513d5f823e3d90fd5b81610edd92903d106104c6576104b88183612c0e565b508d5f610c54565b985050505050508184813d8311610f3d575b610f018183612c0e565b8101031261055857848f838f610bdc878f928f90610bd5610b37848b93610c279f610f2c8691612d6c565b985050979e50505050509350610bb8565b503d610ef7565b60648260208c51917f08c379a0000000000000000000000000000000000000000000000000000000008352820152601c60248201527f496e70757420617272617973206c656e677468206d69736d61746368000000006044820152fd5b50808414610abd565b50838714610ab7565b50346105585760207ffffffffffffffffffffffffffffffffffffffffffffffffffffffffffffffffc36011261055857610feb612b6a565b907ff0c57e16840df040f15088dc2f81fe391c3923bec73e23a9662efc9c229c6a0091825460ff81861c16159267ffffffffffffffff82168015908161119b575b6001149081611191575b159081611188575b50611161575090818360017fffffffffffffffffffffffffffffffffffffffffffffffff000000000000000073ffffffffffffffffffffffffffffffffffffffff951617865561112c575b5061109261371c565b61109a61371c565b6110a261371c565b6110ab33613157565b167fffffffffffffffffffffffff00000000000000000000000000000000000000005f5416175f556110d957005b7fc7f505b2f371ae2175ee4913f4499e1f2633a7b5936321eed1cdaeb6115181d291817fffffffffffffffffffffffffffffffffffffffffffffff00ffffffffffffffff602093541690555160018152a1005b7fffffffffffffffffffffffffffffffffffffffffffffff00000000000000000016680100000000000000011784555f611089565b85517ff92ee8a9000000000000000000000000000000000000000000000000000000008152fd5b9050155f61103e565b303b159150611036565b85915061102c565b503461055857602090817ffffffffffffffffffffffffffffffffffffffffffffffffffffffffffffffffc360112610558576024925f6111e1612b6a565b73ffffffffffffffffffffffffffffffffffffffff95869182845416855196879485937fb4340e6a00000000000000000000000000000000000000000000000000000000855216908301525afa918215610ebd575f92611278575b50918251928180850191818652845180935285019301915f5b8281106112625785850386f35b8351871685529381019392810192600101611255565b61128d9192503d805f833e61057a8183612c0e565b905f61123c565b503461055857817ffffffffffffffffffffffffffffffffffffffffffffffffffffffffffffffffc360112610558576112cb612b6a565b73ffffffffffffffffffffffffffffffffffffffff90816112ea612b8d565b168451917f0723c999000000000000000000000000000000000000000000000000000000008352838116858401525f8360248183865af19283156114ab575f9361148f575b508551927f67e4ac2c0000000000000000000000000000000000000000000000000000000084525f848781865afa938415611485575f94611469575b505f5b845181101561056357806113856114309284612e5e565b51855f52602090600182528a5f208961139e858b612e5e565b51165f5282526113b28b5f20918254613039565b9055808a896113c1858b612e5e565b51168b5f6113cf878a612e5e565b5193518098819582947f23b872dd0000000000000000000000000000000000000000000000000000000084528d3091850160409194939294606082019573ffffffffffffffffffffffffffffffffffffffff80921683521660208201520152565b03925af19283156105895760019361144b575b50500161136e565b8161146192903d106104c6576104b88183612c0e565b505f80611443565b61147e9194503d805f833e61057a8183612c0e565b925f61136b565b87513d5f823e3d90fd5b6114a49193503d805f833e6105a88183612c0e565b915f61132f565b86513d5f823e3d90fd5b509034610558575f7ffffffffffffffffffffffffffffffffffffffffffffffffffffffffffffffffc360112610558578051918183019083821067ffffffffffffffff831117611577575081526005825260208201917f352e302e3000000000000000000000000000000000000000000000000000000083527fffffffffffffffffffffffffffffffffffffffffffffffffffffffffffffffe0601f8351948593602085525180918160208701528686015e5f85828601015201168101030190f35b6041907f4e487b71000000000000000000000000000000000000000000000000000000005f525260245ffd5b50903461055857807ffffffffffffffffffffffffffffffffffffffffffffffffffffffffffffffffc360112610558576115db612b6a565b916024359267ffffffffffffffff90818516809503610558577ff0c57e16840df040f15088dc2f81fe391c3923bec73e23a9662efc9c229c6a00928354928660ff85881c16918215611714575b50506116ed577fc7f505b2f371ae2175ee4913f4499e1f2633a7b5936321eed1cdaeb6115181d260208787877fffffffffffffffffffffffffffffffffffffffffffffff00ffffffffffffffff68010000000000000000847fffffffffffffffffffffffffffffffffffffffffffffff0000000000000000008b73ffffffffffffffffffffffffffffffffffffffff8c167fffffffffffffffffffffffff00000000000000000000000000000000000000005f5416175f5516171716905551908152a1005b84517ff92ee8a9000000000000000000000000000000000000000000000000000000008152fd5b851610159050865f611628565b8234610558575f7ffffffffffffffffffffffffffffffffffffffffffffffffffffffffffffffffc3601126105585760209073ffffffffffffffffffffffffffffffffffffffff7f9016d09d72d40fdae2fd8ceac6b6234c7706214fd39c1cd1e609a0528c19930054169051908152f35b823461055857807ffffffffffffffffffffffffffffffffffffffffffffffffffffffffffffffffc360112610558576020906117cc612b6a565b6117d4612b8d565b9073ffffffffffffffffffffffffffffffffffffffff8091165f5260018452825f2091165f528252805f20549051908152f35b5090346105585761183261181a36612cb6565b9591908093949161182c821515613080565b856132b5565b94855115611d0b5773ffffffffffffffffffffffffffffffffffffffff948051937f23b872dd0000000000000000000000000000000000000000000000000000000085526020948581806118b58530338b850160409194939294606082019573ffffffffffffffffffffffffffffffffffffffff80921683521660208201520152565b03815f8c8c165af18015611d0157611ce4575b5094915f945b8851861015611cdd57876118e2878b612e5e565b5116938351987f67e4ac2c000000000000000000000000000000000000000000000000000000008a525f8a8881895afa998a15611b43578b905f9b611cb5575b50816119318a61193893612e5e565b5116612e9f565b995f9a5f5b8251811015611ca457836119518285612e5e565b5116848616141580611c91575b61196a5760010161193d565b9050829b50611981919a969594999a979397612e5e565b5116905b898216908115611c355784517fb2b55d7000000000000000000000000000000000000000000000000000000000815282898201526024908a818381865afa908115611485579088915f91611c04575b5010611b83578c51907fffffffffffffffffffffffffffffffffffffffffffffffffffffffffffffffff8201918211611b5957508387928b928d145f14611b4d57895f8c611a858a5b8c519d8e97889687957f6e81221c00000000000000000000000000000000000000000000000000000000875286019293606092919594608085019673ffffffffffffffffffffffffffffffffffffffff93848092168752166020860152604085015216910152565b03925af1958615611b43578a8d8b938e935f9a611b03575b50908291600198999a9b85611ab5611adc9685612e5e565b51165f528996878152868d5f2092165f5252611ad58b5f20918254613039565b9055612e5e565b51165f528852845f20905f528752835f20611af8868254613073565b9055939601946118ce565b94935096979850505081813d8311611b3c575b611b208183612c0e565b81010312610558575194939288908b908b908e90611adc611a9d565b503d611b16565b85513d5f823e3d90fd5b895f8c611a8530611a1d565b60118a7f4e487b71000000000000000000000000000000000000000000000000000000005f52525ffd5b8860276084928c8951937f08c379a00000000000000000000000000000000000000000000000000000000085528401528201527f496e73756666696369656e74206c697175696469747920696e20706f6f6c206660448201527f6f722073776170000000000000000000000000000000000000000000000000006064820152fd5b8092508c8092503d8311611c2e575b611c1d8183612c0e565b81010312610558578790515f6119d4565b503d611c13565b6064888a8751917f08c379a0000000000000000000000000000000000000000000000000000000008352820152601960248201527f4e6f2076616c6964206e65787420746f6b656e20666f756e64000000000000006044820152fd5b50611c9c8183612e5e565b51151561195e565b505050989094979392919697611985565b611938919b506119318a611cd385933d805f833e61057a8183612c0e565b9d93505050611922565b8251878152f35b611cfa90863d88116104c6576104b88183612c0e565b505f6118c8565b83513d5f823e3d90fd5b60648260208751917f08c379a0000000000000000000000000000000000000000000000000000000008352820152600e60248201527f4e6f20726f75746520666f756e640000000000000000000000000000000000006044820152fd5b346105585760207ffffffffffffffffffffffffffffffffffffffffffffffffffffffffffffffffc3601126105585773ffffffffffffffffffffffffffffffffffffffff611db4612b6a565b611dbc613218565b167fffffffffffffffffffffffff00000000000000000000000000000000000000005f5416175f555f80f35b34610558575f7ffffffffffffffffffffffffffffffffffffffffffffffffffffffffffffffffc36011261055857611e1e613218565b5f73ffffffffffffffffffffffffffffffffffffffff7f9016d09d72d40fdae2fd8ceac6b6234c7706214fd39c1cd1e609a0528c1993008054907fffffffffffffffffffffffff000000000000000000000000000000000000000082169055167f8be0079c531659141344cd1fd0a4f28419497f9722a3daafe3b4186f6b6457e08280a3005b503461055857611eb336612cb6565b611ec1829693921515613080565b73ffffffffffffffffffffffffffffffffffffffff94855f541695845180977f2d5e94a700000000000000000000000000000000000000000000000000000000825260209889918180611f3e8a8d8a840190602090939293604083019473ffffffffffffffffffffffffffffffffffffffff809216845216910152565b03915afa9081156114ab579082915f9161216e575b5086517f23b872dd00000000000000000000000000000000000000000000000000000000815233858201908152306020820152604081018c9052848a169992909316928a908290819060600103815f8d5af18015610a04578b928b928992612151575b5089517f6e81221c00000000000000000000000000000000000000000000000000000000815273ffffffffffffffffffffffffffffffffffffffff9182168882019081529282166020840152604083019d909d52871660608201528b90819060800103815f865af197881561148557899a5f9a9899612111575b5092826120d4989795928b97955f95865260018a528b8620908652895261205b8b8620918254613039565b9055835260018752888320941693848352865287822061207c868254613073565b90558751968795869485937fa9059cbb00000000000000000000000000000000000000000000000000000000855284016020909392919373ffffffffffffffffffffffffffffffffffffffff60408201951681520152565b03925af18015612107576120ea575b5051908152f35b61210090843d86116104c6576104b88183612c0e565b505f6120e3565b82513d5f823e3d90fd5b80939795929a5088919694983d831161214a575b61212f8183612c0e565b8101031261055857905197899693959294919392915f612030565b503d612125565b61216790843d86116104c6576104b88183612c0e565b505f611fb6565b809250898092503d831161219f575b6121878183612c0e565b81010312610558576121998291612d6c565b5f611f53565b503d61217d565b503461055857602091827ffffffffffffffffffffffffffffffffffffffffffffffffffffffffffffffffc3601126105585773ffffffffffffffffffffffffffffffffffffffff91826121f7612b6a565b169180517f70a0823100000000000000000000000000000000000000000000000000000000815233838201528581602481875afa908115612107575f91612498575b508151907f18160ddd00000000000000000000000000000000000000000000000000000000825286828581885afa918215611d01575f92612469575b506127109081810291818304149015171561243d5781156124115761229f91606491041015612f73565b8051917ff47b45e80000000000000000000000000000000000000000000000000000000083525f83828183885af1958615612107575f935f976123b5575b505f835180937f67e4ac2c00000000000000000000000000000000000000000000000000000000825281885afa918215611d01575f92612399575b505f5b8251811015610563578061233160019287612e5e565b51875f528290818552865f208a6123488589612e5e565b51165f52855261235c875f20918254613039565b9055612368828b612e5e565b5190885f528452855f208961237d8488612e5e565b51165f528452612391865f20918254613073565b90550161231b565b6123ae9192503d805f833e61057a8183612c0e565b905f612318565b935095503d805f853e6123c88185612c0e565b83019282818503126105585780519367ffffffffffffffff9485811161055857816123f4918401612fd8565b94888301519081116105585761240a9201612fd8565b955f6122dd565b6012847f4e487b71000000000000000000000000000000000000000000000000000000005f525260245ffd5b6011847f4e487b71000000000000000000000000000000000000000000000000000000005f525260245ffd5b9091508681813d8311612491575b6124818183612c0e565b810103126105585751905f612275565b503d612477565b90508581813d83116124be575b6124af8183612c0e565b8101031261055857515f612239565b503d6124a5565b509034610558575f7ffffffffffffffffffffffffffffffffffffffffffffffffffffffffffffffffc3601126105585773ffffffffffffffffffffffffffffffffffffffff7f000000000000000000000000000000000000000000000000000000000000000016300361255b57602090517f360894a13ba1a3210667c828492db98dca3e2076cc3735a920a3ca505d382bbc8152f35b517fe07c8dba000000000000000000000000000000000000000000000000000000008152fd5b50817ffffffffffffffffffffffffffffffffffffffffffffffffffffffffffffffffc360112610558576125b3612b6a565b602492833567ffffffffffffffff8111610558573660238201121561055857808401356125df81612c7c565b936125ec84519586612c0e565b818552602091828601933689838301011161055857815f928a86930187378701015273ffffffffffffffffffffffffffffffffffffffff807f00000000000000000000000000000000000000000000000000000000000000001680301490811561287f575b506128575761265e613218565b81169484517f52d1902d000000000000000000000000000000000000000000000000000000008152838189818a5afa5f9181612828575b506126c957505050505051917f4c9c8ce3000000000000000000000000000000000000000000000000000000008352820152fd5b9087878794938b7f360894a13ba1a3210667c828492db98dca3e2076cc3735a920a3ca505d382bbc918281036127fb5750853b156127ce5750817fffffffffffffffffffffffff00000000000000000000000000000000000000008254161790558451907fbc7cd75a20ee27fd9adebab32041f755214dbc6bffa90cc0225b39da2e5c2d3b5f80a282511561279b5750505f6105639581925190845af4913d15612791573d61278361277a82612c7c565b92519283612c0e565b81525f81943d92013e613775565b5060609250613775565b94509450505050346127a957005b7fb398979f000000000000000000000000000000000000000000000000000000008152fd5b83838851917f4c9c8ce3000000000000000000000000000000000000000000000000000000008352820152fd5b84908851917faa1d49a4000000000000000000000000000000000000000000000000000000008352820152fd5b9091508481813d8311612850575b6128408183612c0e565b810103126105585751905f612695565b503d612836565b8685517fe07c8dba000000000000000000000000000000000000000000000000000000008152fd5b9050817f360894a13ba1a3210667c828492db98dca3e2076cc3735a920a3ca505d382bbc541614155f612651565b50346105585760607ffffffffffffffffffffffffffffffffffffffffffffffffffffffffffffffffc360112610558576128e5612b6a565b916128ee612b8d565b9173ffffffffffffffffffffffffffffffffffffffff92835f54169083519586927f2d5e94a70000000000000000000000000000000000000000000000000000000084526020978891818061296d87878b840190602090939293604083019473ffffffffffffffffffffffffffffffffffffffff809216845216910152565b03915afa928315611b43579087949392915f93612a2c575b5085517f4aa0665200000000000000000000000000000000000000000000000000000000815273ffffffffffffffffffffffffffffffffffffffff91821694810194855291166020840152604435604084015294859283919082906060015b0392165afa918215610ebd575f926129fd575051908152f35b9091508281813d8311612a25575b612a158183612c0e565b810103126105585751905f6120e3565b503d612a0b565b8581969294503d8311612a62575b612a448183612c0e565b81010312610558576129e495612a5a8895612d6c565b929096612985565b503d612a3a565b8234610558575f7ffffffffffffffffffffffffffffffffffffffffffffffffffffffffffffffffc3601126105585760209073ffffffffffffffffffffffffffffffffffffffff5f54169051908152f35b82346105585760207ffffffffffffffffffffffffffffffffffffffffffffffffffffffffffffffffc36011261055857610ae290612afe612af9612b6a565b612e9f565b905191829182612bd3565b34610558575f7ffffffffffffffffffffffffffffffffffffffffffffffffffffffffffffffffc3601126105585760209067ffffffffffffffff7ff0c57e16840df040f15088dc2f81fe391c3923bec73e23a9662efc9c229c6a0054168152f35b6004359073ffffffffffffffffffffffffffffffffffffffff8216820361055857565b6024359073ffffffffffffffffffffffffffffffffffffffff8216820361055857565b6044359073ffffffffffffffffffffffffffffffffffffffff8216820361055857565b60209060206040818301928281528551809452019301915f5b828110612bfa575050505090565b835185529381019392810192600101612bec565b90601f7fffffffffffffffffffffffffffffffffffffffffffffffffffffffffffffffe0910116810190811067ffffffffffffffff821117612c4f57604052565b7f4e487b71000000000000000000000000000000000000000000000000000000005f52604160045260245ffd5b67ffffffffffffffff8111612c4f57601f017fffffffffffffffffffffffffffffffffffffffffffffffffffffffffffffffe01660200190565b7ffffffffffffffffffffffffffffffffffffffffffffffffffffffffffffffffc60809101126105585773ffffffffffffffffffffffffffffffffffffffff9060043582811681036105585791602435818116810361055857916044359160643590811681036105585790565b9181601f840112156105585782359167ffffffffffffffff8311610558576020808501948460051b01011161055857565b67ffffffffffffffff8111612c4f5760051b60200190565b519073ffffffffffffffffffffffffffffffffffffffff8216820361055857565b60209081818403126105585780519067ffffffffffffffff821161055857019180601f84011215610558578251612dc381612d54565b93612dd16040519586612c0e565b818552838086019260051b820101928311610558578301905b828210612df8575050505090565b838091612e0484612d6c565b815201910190612dea565b90612e1982612d54565b612e266040519182612c0e565b8281527fffffffffffffffffffffffffffffffffffffffffffffffffffffffffffffffe0612e548294612d54565b0190602036910137565b8051821015612e725760209160051b010190565b7f4e487b71000000000000000000000000000000000000000000000000000000005f52603260045260245ffd5b9073ffffffffffffffffffffffffffffffffffffffff809216604092604051907f67e4ac2c0000000000000000000000000000000000000000000000000000000082525f82600481865afa918215612f68575f92612f4c575b50612f038251612e0f565b925f5b8351811015612f4357600190825f526020828152885f209085612f298489612e5e565b51165f5252875f2054612f3c8288612e5e565b5201612f06565b50929450505050565b612f619192503d805f833e61057a8183612c0e565b905f612ef8565b6040513d5f823e3d90fd5b15612f7a57565b60646040517f08c379a000000000000000000000000000000000000000000000000000000000815260206004820152601460248201527f496e73756666696369656e742062616c616e63650000000000000000000000006044820152fd5b9080601f8301121561055857815190602091612ff381612d54565b936130016040519586612c0e565b81855260208086019260051b82010192831161055857602001905b82821061302a575050505090565b8151815290830190830161301c565b9190820180921161304657565b7f4e487b71000000000000000000000000000000000000000000000000000000005f52601160045260245ffd5b9190820391821161304657565b1561308757565b60646040517f08c379a000000000000000000000000000000000000000000000000000000000815260206004820152602060248201527f416d6f756e74206d7573742062652067726561746572207468616e207a65726f6044820152fd5b90816020910312610558575180151581036105585790565b9060208282031261055857815167ffffffffffffffff8111610558576131239201612fd8565b90565b9190811015612e725760051b0190565b3573ffffffffffffffffffffffffffffffffffffffff811681036105585790565b73ffffffffffffffffffffffffffffffffffffffff8091169081156131e8577f9016d09d72d40fdae2fd8ceac6b6234c7706214fd39c1cd1e609a0528c199300805490837fffffffffffffffffffffffff00000000000000000000000000000000000000008316179055167f8be0079c531659141344cd1fd0a4f28419497f9722a3daafe3b4186f6b6457e05f80a3565b60246040517f1e4fbdf70000000000000000000000000000000000000000000000000000000081525f6004820152fd5b73ffffffffffffffffffffffffffffffffffffffff7f9016d09d72d40fdae2fd8ceac6b6234c7706214fd39c1cd1e609a0528c1993005416330361325857565b60246040517f118cdaa7000000000000000000000000000000000000000000000000000000008152336004820152fd5b7fffffffffffffffffffffffffffffffffffffffffffffffffffffffffffffffff81146130465760010190565b73ffffffffffffffffffffffffffffffffffffffff60045f82815416604051928380927fd88ff1f40000000000000000000000000000000000000000000000000000000082525afa908115612f68575f91613542575b5080519361331885612e0f565b915f9361332487612d54565b926133326040519485612c0e565b8784527fffffffffffffffffffffffffffffffffffffffffffffffffffffffffffffffe061335f89612d54565b0136602086013761336f88612e0f565b965f600191895115612e7257841660208a01525b8181106133bc5750505050505050505050506040516020810181811067ffffffffffffffff821117612c4f576040525f81525f36813790565b836133d06133c983613288565b928b612e5e565b511684841681146134fb575f5b8b81106133eb575050613383565b6133f58189612e5e565b5115613404575b6001016133dd565b8561340f8289612e5e565b5116604051907f67e4ac2c0000000000000000000000000000000000000000000000000000000082525f82600481845afa908115612f68578f85935f936134df575b508361345d818561355c565b92836134cd575b505050613473575b50506133fc565b9061347d9161366f565b86613488838a612e5e565b51166134938c613288565b9b61349e908c612e5e565b52868c6134aa87613288565b966134b491612e5e565b911690526134c28189612e5e565b60019052815f61346c565b6134d793506135a9565b8f835f613464565b6134f49193503d805f833e61057a8183612c0e565b915f613451565b50505050945050509350915061351082612e0f565b925f5b838110613521575050505090565b808361352f60019385612e5e565b511661353b8288612e5e565b5201613513565b61355691503d805f833e61057a8183612c0e565b5f61330b565b905f5b82518110156135a25773ffffffffffffffffffffffffffffffffffffffff806135888386612e5e565b51169083161461359a5760010161355f565b505050600190565b5050505f90565b6004929173ffffffffffffffffffffffffffffffffffffffff809216915f6135d084612e9f565b93604051968780927f67e4ac2c0000000000000000000000000000000000000000000000000000000082525afa948515612f68575f95613653575b505f5b855181101561364957816136228288612e5e565b5116828416146136345760010161360e565b92915050613643929350612e5e565b51101590565b5050505050505f90565b6136689195503d805f833e61057a8183612c0e565b935f61360b565b905f5b82518110156136be5773ffffffffffffffffffffffffffffffffffffffff8061369b8386612e5e565b5116818416036136ae5750600101613672565b926136b99250612e5e565b511690565b60646040517f08c379a000000000000000000000000000000000000000000000000000000000815260206004820152601760248201527f546f6b656e206e6f7420666f756e6420696e20706f6f6c0000000000000000006044820152fd5b60ff7ff0c57e16840df040f15088dc2f81fe391c3923bec73e23a9662efc9c229c6a005460401c161561374b57565b60046040517fd7e6bcf8000000000000000000000000000000000000000000000000000000008152fd5b906137b4575080511561378a57805190602001fd5b60046040517f1425ea42000000000000000000000000000000000000000000000000000000008152fd5b8151158061380c575b6137c5575090565b60249073ffffffffffffffffffffffffffffffffffffffff604051917f9996b315000000000000000000000000000000000000000000000000000000008352166004820152fd5b50803b156137bd56fea2646970667358221220b2b5f43621235ca20b5f60045b9aba7f731fee953a8636e849ae9f04ab5f0cfc64736f6c63430008190033","opcodes":"PUSH1 0xA0 DUP1 PUSH1 0x40 MSTORE CALLVALUE PUSH1 0x29 JUMPI ADDRESS PUSH1 0x80 MSTORE PUSH2 0x384B SWAP1 DUP2 PUSH2 0x2E DUP3 CODECOPY PUSH1 0x80 MLOAD DUP2 DUP2 DUP2 PUSH2 0x250C ADD MSTORE PUSH2 0x2626 ADD MSTORE RETURN JUMPDEST PUSH0 DUP1 REVERT INVALID PUSH1 0x80 PUSH1 0x40 SWAP1 DUP1 DUP3 MSTORE PUSH1 0x4 SWAP1 DUP2 CALLDATASIZE LT ISZERO PUSH2 0x16 JUMPI PUSH0 DUP1 REVERT JUMPDEST PUSH0 CALLDATALOAD PUSH1 0xE0 SHR SWAP1 DUP2 PUSH4 0xD8E6E2C EQ PUSH2 0x2B09 JUMPI POP DUP1 PUSH4 0x3E99C1E4 EQ PUSH2 0x2ABA JUMPI DUP1 PUSH4 0x4056C37F EQ PUSH2 0x1792 JUMPI DUP1 PUSH4 0x4219DC40 EQ PUSH2 0x2A69 JUMPI DUP1 PUSH4 0x4AA06652 EQ PUSH2 0x28AD JUMPI DUP1 PUSH4 0x4F1EF286 EQ PUSH2 0x2581 JUMPI DUP1 PUSH4 0x52D1902D EQ PUSH2 0x24C5 JUMPI DUP1 PUSH4 0x5568081A EQ PUSH2 0x21A6 JUMPI DUP1 PUSH4 0x6E81221C EQ PUSH2 0x1EA4 JUMPI DUP1 PUSH4 0x715018A6 EQ PUSH2 0x1DE8 JUMPI DUP1 PUSH4 0x72591BE5 EQ PUSH2 0x1D68 JUMPI DUP1 PUSH4 0x7442ECA6 EQ PUSH2 0x1807 JUMPI DUP1 PUSH4 0x8628991E EQ PUSH2 0x1792 JUMPI DUP1 PUSH4 0x8DA5CB5B EQ PUSH2 0x1721 JUMPI DUP1 PUSH4 0x8F2248BC EQ PUSH2 0x15A3 JUMPI DUP1 PUSH4 0xAD3CB1CC EQ PUSH2 0x14B5 JUMPI DUP1 PUSH4 0xAD414263 EQ PUSH2 0x1294 JUMPI DUP1 PUSH4 0xAE3CCE1C EQ PUSH2 0x11A3 JUMPI DUP1 PUSH4 0xC4D66DE8 EQ PUSH2 0xFB3 JUMPI DUP1 PUSH4 0xE74E9B06 EQ PUSH2 0xA0E JUMPI DUP1 PUSH4 0xEC0CD2EB EQ PUSH2 0x7A7 JUMPI DUP1 PUSH4 0xF2FDE38B EQ PUSH2 0x760 JUMPI PUSH4 0xF31ABCC4 EQ PUSH2 0x11D JUMPI PUSH0 DUP1 REVERT JUMPDEST CALLVALUE PUSH2 0x558 JUMPI PUSH1 0x60 PUSH32 0xFFFFFFFFFFFFFFFFFFFFFFFFFFFFFFFFFFFFFFFFFFFFFFFFFFFFFFFFFFFFFFFC CALLDATASIZE ADD SLT PUSH2 0x558 JUMPI DUP1 CALLDATALOAD SWAP1 PUSH2 0x157 PUSH2 0x2B8D JUMP JUMPDEST SWAP2 PUSH2 0x160 PUSH2 0x2BB0 JUMP JUMPDEST DUP2 ISZERO PUSH2 0x703 JUMPI DUP5 MLOAD PUSH32 0xDD62ED3E00000000000000000000000000000000000000000000000000000000 DUP2 MSTORE CALLER DUP5 DUP3 ADD SWAP1 DUP2 MSTORE ADDRESS PUSH1 0x20 DUP3 DUP2 ADD SWAP2 SWAP1 SWAP2 MSTORE SWAP3 SWAP2 PUSH20 0xFFFFFFFFFFFFFFFFFFFFFFFFFFFFFFFFFFFFFFFF DUP8 DUP2 AND SWAP3 SWAP1 SWAP2 SWAP1 DUP6 SWAP1 DUP3 SWAP1 DUP2 SWAP1 PUSH1 0x40 ADD SUB DUP2 DUP7 GAS STATICCALL DUP1 ISZERO PUSH2 0x5B7 JUMPI DUP7 SWAP2 PUSH0 SWAP2 PUSH2 0x6D2 JUMPI JUMPDEST POP LT PUSH2 0x676 JUMPI DUP8 MLOAD SWAP7 PUSH32 0x70A0823100000000000000000000000000000000000000000000000000000000 SWAP8 DUP9 DUP2 MSTORE CALLER DUP9 DUP3 ADD MSTORE PUSH1 0x24 SWAP7 DUP7 DUP3 DUP10 DUP2 DUP9 GAS STATICCALL DUP1 ISZERO PUSH2 0x66C JUMPI DUP8 SWAP3 PUSH0 SWAP2 PUSH2 0x639 JUMPI JUMPDEST POP SWAP3 PUSH2 0x234 DUP3 PUSH2 0x292 SWAP6 LT ISZERO PUSH2 0x2F73 JUMP JUMPDEST DUP12 MLOAD SWAP4 DUP5 SWAP3 DUP4 SWAP3 PUSH32 0x23B872DD00000000000000000000000000000000000000000000000000000000 DUP5 MSTORE CALLER DUP14 DUP6 ADD PUSH1 0x40 SWAP2 SWAP5 SWAP4 SWAP3 SWAP5 PUSH1 0x60 DUP3 ADD SWAP6 PUSH20 0xFFFFFFFFFFFFFFFFFFFFFFFFFFFFFFFFFFFFFFFF DUP1 SWAP3 AND DUP4 MSTORE AND PUSH1 0x20 DUP3 ADD MSTORE ADD MSTORE JUMP JUMPDEST SUB DUP2 PUSH0 DUP8 GAS CALL SWAP1 DUP2 ISZERO PUSH2 0x5B7 JUMPI PUSH0 SWAP2 PUSH2 0x61C JUMPI JUMPDEST POP ISZERO PUSH2 0x5C1 JUMPI DUP8 MLOAD SWAP2 PUSH32 0x89AFCB4400000000000000000000000000000000000000000000000000000000 DUP4 MSTORE DUP2 DUP5 AND DUP8 DUP5 ADD MSTORE PUSH0 DUP4 DUP8 DUP2 DUP4 DUP6 GAS CALL SWAP3 DUP4 ISZERO PUSH2 0x5B7 JUMPI PUSH0 SWAP4 PUSH2 0x593 JUMPI JUMPDEST POP DUP9 MLOAD SWAP1 PUSH32 0x67E4AC2C00000000000000000000000000000000000000000000000000000000 DUP3 MSTORE PUSH0 DUP3 DUP10 DUP2 DUP5 GAS STATICCALL SWAP2 DUP3 ISZERO PUSH2 0x589 JUMPI PUSH0 SWAP3 PUSH2 0x565 JUMPI JUMPDEST POP PUSH0 JUMPDEST DUP3 MLOAD DUP2 LT ISZERO PUSH2 0x563 JUMPI DUP11 DUP8 DUP11 DUP11 DUP14 DUP9 PUSH2 0x347 DUP8 DUP11 PUSH2 0x2E5E JUMP JUMPDEST MLOAD AND SWAP5 MLOAD SWAP5 DUP6 SWAP4 DUP5 SWAP3 DUP4 MSTORE ADDRESS SWAP1 DUP4 ADD MSTORE GAS STATICCALL SWAP1 DUP2 ISZERO PUSH2 0x4CD JUMPI PUSH0 SWAP2 PUSH2 0x532 JUMPI JUMPDEST POP PUSH2 0x372 DUP3 DUP8 PUSH2 0x2E5E JUMP JUMPDEST MLOAD GT PUSH2 0x4D7 JUMPI PUSH2 0x382 DUP2 DUP7 PUSH2 0x2E5E JUMP JUMPDEST MLOAD DUP3 PUSH0 MSTORE PUSH1 0x1 DUP9 MSTORE DUP12 PUSH0 KECCAK256 DUP6 PUSH2 0x398 DUP5 DUP8 PUSH2 0x2E5E JUMP JUMPDEST MLOAD AND PUSH0 MSTORE DUP9 MSTORE PUSH2 0x3AC DUP13 PUSH0 KECCAK256 SWAP2 DUP3 SLOAD PUSH2 0x3073 JUMP JUMPDEST SWAP1 SSTORE PUSH2 0x425 DUP8 DUP13 DUP12 DUP10 PUSH0 DUP10 PUSH2 0x3C1 DUP9 DUP12 PUSH2 0x2E5E JUMP JUMPDEST MLOAD AND SWAP3 PUSH2 0x3CE DUP9 DUP14 PUSH2 0x2E5E JUMP JUMPDEST MLOAD SWAP5 MLOAD SWAP7 DUP8 SWAP6 DUP7 SWAP5 DUP6 SWAP4 PUSH32 0xA9059CBB00000000000000000000000000000000000000000000000000000000 DUP6 MSTORE DUP5 ADD PUSH1 0x20 SWAP1 SWAP4 SWAP3 SWAP2 SWAP4 PUSH20 0xFFFFFFFFFFFFFFFFFFFFFFFFFFFFFFFFFFFFFFFF PUSH1 0x40 DUP3 ADD SWAP6 AND DUP2 MSTORE ADD MSTORE JUMP JUMPDEST SUB SWAP3 GAS CALL SWAP1 DUP2 ISZERO PUSH2 0x4CD JUMPI PUSH0 SWAP2 PUSH2 0x4A0 JUMPI JUMPDEST POP ISZERO PUSH2 0x445 JUMPI PUSH1 0x1 ADD PUSH2 0x32E JUMP JUMPDEST PUSH1 0x64 DUP10 PUSH1 0x15 DUP11 DUP11 DUP16 MLOAD SWAP4 PUSH32 0x8C379A000000000000000000000000000000000000000000000000000000000 DUP6 MSTORE DUP5 ADD MSTORE DUP3 ADD MSTORE PUSH32 0x4173736574207472616E73666572206661696C65640000000000000000000000 PUSH1 0x44 DUP3 ADD MSTORE REVERT JUMPDEST PUSH2 0x4C0 SWAP2 POP DUP9 RETURNDATASIZE DUP11 GT PUSH2 0x4C6 JUMPI JUMPDEST PUSH2 0x4B8 DUP2 DUP4 PUSH2 0x2C0E JUMP JUMPDEST DUP2 ADD SWAP1 PUSH2 0x30E5 JUMP JUMPDEST PUSH0 PUSH2 0x437 JUMP JUMPDEST POP RETURNDATASIZE PUSH2 0x4AE JUMP JUMPDEST DUP13 MLOAD RETURNDATASIZE PUSH0 DUP3 RETURNDATACOPY RETURNDATASIZE SWAP1 REVERT JUMPDEST PUSH1 0x64 DUP10 PUSH1 0x16 DUP11 DUP11 DUP16 MLOAD SWAP4 PUSH32 0x8C379A000000000000000000000000000000000000000000000000000000000 DUP6 MSTORE DUP5 ADD MSTORE DUP3 ADD MSTORE PUSH32 0x496E73756666696369656E74204C697175696469747900000000000000000000 PUSH1 0x44 DUP3 ADD MSTORE REVERT JUMPDEST SWAP1 POP DUP8 DUP2 DUP2 RETURNDATASIZE DUP4 GT PUSH2 0x55C JUMPI JUMPDEST PUSH2 0x549 DUP2 DUP4 PUSH2 0x2C0E JUMP JUMPDEST DUP2 ADD SUB SLT PUSH2 0x558 JUMPI MLOAD PUSH0 PUSH2 0x367 JUMP JUMPDEST PUSH0 DUP1 REVERT JUMPDEST POP RETURNDATASIZE PUSH2 0x53F JUMP JUMPDEST STOP JUMPDEST PUSH2 0x582 SWAP2 SWAP3 POP RETURNDATASIZE DUP1 PUSH0 DUP4 RETURNDATACOPY PUSH2 0x57A DUP2 DUP4 PUSH2 0x2C0E JUMP JUMPDEST DUP2 ADD SWAP1 PUSH2 0x2D8D JUMP JUMPDEST SWAP1 PUSH0 PUSH2 0x32B JUMP JUMPDEST DUP11 MLOAD RETURNDATASIZE PUSH0 DUP3 RETURNDATACOPY RETURNDATASIZE SWAP1 REVERT JUMPDEST PUSH2 0x5B0 SWAP2 SWAP4 POP RETURNDATASIZE DUP1 PUSH0 DUP4 RETURNDATACOPY PUSH2 0x5A8 DUP2 DUP4 PUSH2 0x2C0E JUMP JUMPDEST DUP2 ADD SWAP1 PUSH2 0x30FD JUMP JUMPDEST SWAP2 PUSH0 PUSH2 0x2EF JUMP JUMPDEST DUP10 MLOAD RETURNDATASIZE PUSH0 DUP3 RETURNDATACOPY RETURNDATASIZE SWAP1 REVERT JUMPDEST PUSH1 0x64 DUP7 PUSH1 0x13 DUP8 DUP8 DUP13 MLOAD SWAP4 PUSH32 0x8C379A000000000000000000000000000000000000000000000000000000000 DUP6 MSTORE DUP5 ADD MSTORE DUP3 ADD MSTORE PUSH32 0x5472616E7366657246726F6D206661696C656400000000000000000000000000 PUSH1 0x44 DUP3 ADD MSTORE REVERT JUMPDEST PUSH2 0x633 SWAP2 POP DUP6 RETURNDATASIZE DUP8 GT PUSH2 0x4C6 JUMPI PUSH2 0x4B8 DUP2 DUP4 PUSH2 0x2C0E JUMP JUMPDEST PUSH0 PUSH2 0x2A6 JUMP JUMPDEST DUP4 DUP2 SWAP5 SWAP3 POP RETURNDATASIZE DUP4 GT PUSH2 0x665 JUMPI JUMPDEST PUSH2 0x650 DUP2 DUP4 PUSH2 0x2C0E JUMP JUMPDEST DUP2 ADD SUB SLT PUSH2 0x558 JUMPI SWAP1 MLOAD DUP7 SWAP2 SWAP1 PUSH2 0x234 PUSH2 0x223 JUMP JUMPDEST POP RETURNDATASIZE PUSH2 0x646 JUMP JUMPDEST DUP12 MLOAD RETURNDATASIZE PUSH0 DUP3 RETURNDATACOPY RETURNDATASIZE SWAP1 REVERT JUMPDEST PUSH1 0x64 DUP7 DUP6 DUP11 MLOAD SWAP2 PUSH32 0x8C379A000000000000000000000000000000000000000000000000000000000 DUP4 MSTORE DUP3 ADD MSTORE PUSH1 0x16 PUSH1 0x24 DUP3 ADD MSTORE PUSH32 0x496E73756666696369656E7420616C6C6F77616E636500000000000000000000 PUSH1 0x44 DUP3 ADD MSTORE REVERT JUMPDEST DUP1 SWAP3 POP DUP7 DUP1 SWAP3 POP RETURNDATASIZE DUP4 GT PUSH2 0x6FC JUMPI JUMPDEST PUSH2 0x6EB DUP2 DUP4 PUSH2 0x2C0E JUMP JUMPDEST DUP2 ADD SUB SLT PUSH2 0x558 JUMPI DUP6 SWAP1 MLOAD PUSH0 PUSH2 0x1D7 JUMP JUMPDEST POP RETURNDATASIZE PUSH2 0x6E1 JUMP JUMPDEST PUSH1 0x64 DUP4 PUSH1 0x20 DUP8 MLOAD SWAP2 PUSH32 0x8C379A000000000000000000000000000000000000000000000000000000000 DUP4 MSTORE DUP3 ADD MSTORE PUSH1 0x1F PUSH1 0x24 DUP3 ADD MSTORE PUSH32 0x5368617265206D7573742062652067726561746572207468616E207A65726F00 PUSH1 0x44 DUP3 ADD MSTORE REVERT JUMPDEST CALLVALUE PUSH2 0x558 JUMPI PUSH1 0x20 PUSH32 0xFFFFFFFFFFFFFFFFFFFFFFFFFFFFFFFFFFFFFFFFFFFFFFFFFFFFFFFFFFFFFFFC CALLDATASIZE ADD SLT PUSH2 0x558 JUMPI PUSH2 0x563 PUSH2 0x79A PUSH2 0x2B6A JUMP JUMPDEST PUSH2 0x7A2 PUSH2 0x3218 JUMP JUMPDEST PUSH2 0x3157 JUMP JUMPDEST POP CALLVALUE PUSH2 0x558 JUMPI PUSH1 0x60 PUSH32 0xFFFFFFFFFFFFFFFFFFFFFFFFFFFFFFFFFFFFFFFFFFFFFFFFFFFFFFFFFFFFFFFC CALLDATASIZE ADD SLT PUSH2 0x558 JUMPI DUP1 CALLDATALOAD PUSH8 0xFFFFFFFFFFFFFFFF DUP2 GT PUSH2 0x558 JUMPI PUSH2 0x7F5 SWAP1 CALLDATASIZE SWAP1 DUP4 ADD PUSH2 0x2D23 JUMP JUMPDEST SWAP2 PUSH2 0x7FE PUSH2 0x2B8D JUMP JUMPDEST PUSH2 0x806 PUSH2 0x2BB0 JUMP JUMPDEST SWAP4 PUSH20 0xFFFFFFFFFFFFFFFFFFFFFFFFFFFFFFFFFFFFFFFF DUP1 SWAP3 AND SWAP2 DUP7 MLOAD PUSH32 0x67E4AC2C00000000000000000000000000000000000000000000000000000000 DUP2 MSTORE PUSH0 DUP2 DUP7 DUP2 DUP8 GAS STATICCALL SWAP1 DUP2 ISZERO PUSH2 0xA04 JUMPI PUSH0 SWAP2 PUSH2 0x9EA JUMPI JUMPDEST POP PUSH0 JUMPDEST DUP2 MLOAD DUP2 LT ISZERO PUSH2 0x92D JUMPI DUP1 PUSH0 DUP11 DUP6 PUSH2 0x877 PUSH2 0x8F4 SWAP6 DUP8 PUSH2 0x2E5E JUMP JUMPDEST MLOAD AND PUSH2 0x884 DUP5 DUP10 DUP14 PUSH2 0x3126 JUMP JUMPDEST CALLDATALOAD SWAP1 DUP10 DUP5 MSTORE DUP11 PUSH1 0x20 SWAP5 DUP6 SWAP5 PUSH1 0x1 DUP7 MSTORE DUP1 DUP3 KECCAK256 DUP5 DUP4 MSTORE DUP7 MSTORE DUP1 DUP3 KECCAK256 PUSH2 0x8A9 DUP7 DUP3 SLOAD PUSH2 0x3039 JUMP JUMPDEST SWAP1 SSTORE MLOAD PUSH32 0x23B872DD00000000000000000000000000000000000000000000000000000000 DUP2 MSTORE CALLER SWAP3 DUP2 ADD SWAP3 DUP4 MSTORE ADDRESS PUSH1 0x20 DUP5 ADD MSTORE PUSH1 0x40 DUP4 ADD SWAP5 SWAP1 SWAP5 MSTORE SWAP3 SWAP7 DUP8 SWAP4 DUP5 SWAP3 SWAP1 SWAP2 DUP4 SWAP2 PUSH1 0x60 ADD SWAP1 JUMP JUMPDEST SUB SWAP3 GAS CALL SWAP3 DUP4 ISZERO PUSH2 0x66C JUMPI PUSH1 0x1 SWAP4 PUSH2 0x90F JUMPI JUMPDEST POP POP ADD PUSH2 0x85D JUMP JUMPDEST DUP2 PUSH2 0x925 SWAP3 SWAP1 RETURNDATASIZE LT PUSH2 0x4C6 JUMPI PUSH2 0x4B8 DUP2 DUP4 PUSH2 0x2C0E JUMP JUMPDEST POP PUSH0 DUP1 PUSH2 0x907 JUMP JUMPDEST DUP8 DUP10 DUP9 DUP7 DUP9 DUP11 DUP9 DUP6 MLOAD SWAP7 PUSH32 0xDE836EBD00000000000000000000000000000000000000000000000000000000 DUP9 MSTORE AND SWAP1 DUP7 ADD MSTORE DUP4 PUSH1 0x24 DUP7 ADD MSTORE DUP2 PUSH1 0x44 DUP7 ADD MSTORE PUSH32 0x7FFFFFFFFFFFFFFFFFFFFFFFFFFFFFFFFFFFFFFFFFFFFFFFFFFFFFFFFFFFFFF DUP3 GT PUSH2 0x558 JUMPI DUP5 PUSH0 PUSH1 0x64 DUP3 PUSH1 0x20 SWAP7 DUP2 SWAP7 PUSH1 0x5 SHL DUP1 SWAP2 DUP5 DUP5 ADD CALLDATACOPY DUP2 ADD SUB ADD SWAP3 GAS CALL SWAP1 DUP2 ISZERO PUSH2 0x9E1 JUMPI POP PUSH2 0x9BA JUMPI STOP JUMPDEST PUSH1 0x20 SWAP1 DUP2 RETURNDATASIZE DUP4 GT PUSH2 0x9DA JUMPI JUMPDEST PUSH2 0x9D0 DUP2 DUP4 PUSH2 0x2C0E JUMP JUMPDEST DUP2 ADD SUB SLT PUSH2 0x558 JUMPI STOP JUMPDEST POP RETURNDATASIZE PUSH2 0x9C6 JUMP JUMPDEST MLOAD RETURNDATASIZE PUSH0 DUP3 RETURNDATACOPY RETURNDATASIZE SWAP1 REVERT JUMPDEST PUSH2 0x9FE SWAP2 POP RETURNDATASIZE DUP1 PUSH0 DUP4 RETURNDATACOPY PUSH2 0x57A DUP2 DUP4 PUSH2 0x2C0E JUMP JUMPDEST PUSH0 PUSH2 0x85A JUMP JUMPDEST DUP9 MLOAD RETURNDATASIZE PUSH0 DUP3 RETURNDATACOPY RETURNDATASIZE SWAP1 REVERT JUMPDEST POP CALLVALUE PUSH2 0x558 JUMPI PUSH1 0x80 PUSH32 0xFFFFFFFFFFFFFFFFFFFFFFFFFFFFFFFFFFFFFFFFFFFFFFFFFFFFFFFFFFFFFFFC CALLDATASIZE ADD SLT PUSH2 0x558 JUMPI PUSH8 0xFFFFFFFFFFFFFFFF DUP2 CALLDATALOAD DUP2 DUP2 GT PUSH2 0x558 JUMPI PUSH2 0xA5D SWAP1 CALLDATASIZE SWAP1 DUP5 ADD PUSH2 0x2D23 JUMP JUMPDEST SWAP2 SWAP1 SWAP3 PUSH1 0x24 CALLDATALOAD DUP3 DUP2 GT PUSH2 0x558 JUMPI PUSH2 0xA77 SWAP1 CALLDATASIZE SWAP1 DUP4 ADD PUSH2 0x2D23 JUMP JUMPDEST SWAP3 SWAP1 SWAP2 PUSH1 0x44 CALLDATALOAD DUP3 DUP2 GT PUSH2 0x558 JUMPI PUSH2 0xA91 SWAP1 CALLDATASIZE SWAP1 DUP4 ADD PUSH2 0x2D23 JUMP JUMPDEST SWAP2 SWAP1 SWAP3 PUSH1 0x64 CALLDATALOAD SWAP1 DUP2 GT PUSH2 0x558 JUMPI PUSH2 0xAAB SWAP1 CALLDATASIZE SWAP1 DUP4 ADD PUSH2 0x2D23 JUMP JUMPDEST DUP7 DUP9 SWAP4 SWAP3 SWAP4 EQ DUP1 PUSH2 0xFAA JUMPI JUMPDEST DUP1 PUSH2 0xFA1 JUMPI JUMPDEST ISZERO PUSH2 0xF44 JUMPI PUSH2 0xACB DUP9 PUSH2 0x2E0F JUMP JUMPDEST SWAP9 PUSH0 JUMPDEST DUP10 DUP2 LT PUSH2 0xAE6 JUMPI DUP12 MLOAD DUP1 PUSH2 0xAE2 DUP14 DUP3 PUSH2 0x2BD3 JUMP JUMPDEST SUB SWAP1 RETURN JUMPDEST DUP1 DUP9 DUP12 DUP15 DUP8 DUP7 PUSH2 0xB42 DUP16 DUP8 DUP16 SWAP2 DUP16 PUSH2 0xB08 PUSH2 0xBA0 SWAP13 PUSH2 0xB10 SWAP3 PUSH2 0xB37 SWAP7 PUSH2 0x3126 JUMP JUMPDEST CALLDATALOAD ISZERO ISZERO PUSH2 0x3080 JUMP JUMPDEST PUSH2 0xB3C PUSH2 0xB37 DUP4 PUSH20 0xFFFFFFFFFFFFFFFFFFFFFFFFFFFFFFFFFFFFFFFF SWAP11 DUP12 PUSH0 SLOAD AND SWAP9 PUSH2 0x3126 JUMP JUMPDEST PUSH2 0x3136 JUMP JUMPDEST SWAP9 PUSH2 0x3126 JUMP JUMPDEST SWAP1 DUP4 MLOAD DUP1 DUP1 SWAP10 DUP2 SWAP5 PUSH32 0x2D5E94A700000000000000000000000000000000000000000000000000000000 DUP4 MSTORE PUSH1 0x20 SWAP10 DUP11 SWAP8 DUP5 ADD SWAP1 PUSH1 0x20 SWAP1 SWAP4 SWAP3 SWAP4 PUSH1 0x40 DUP4 ADD SWAP5 PUSH20 0xFFFFFFFFFFFFFFFFFFFFFFFFFFFFFFFFFFFFFFFF DUP1 SWAP3 AND DUP5 MSTORE AND SWAP2 ADD MSTORE JUMP JUMPDEST SUB SWAP2 GAS STATICCALL SWAP1 DUP2 ISZERO PUSH2 0x9E1 JUMPI DUP11 DUP16 DUP9 SWAP4 DUP15 SWAP9 PUSH0 SWAP2 PUSH2 0xEE5 JUMPI JUMPDEST POP DUP8 DUP8 SWAP4 DUP8 PUSH2 0xBD5 PUSH2 0xB37 DUP5 PUSH2 0xC27 SWAP15 SWAP8 DUP5 PUSH2 0xBDC SWAP9 AND SWAP12 PUSH2 0x3126 JUMP JUMPDEST AND SWAP4 PUSH2 0x3126 JUMP JUMPDEST DUP4 MLOAD PUSH32 0x23B872DD00000000000000000000000000000000000000000000000000000000 DUP2 MSTORE CALLER DUP2 DUP15 ADD SWAP1 DUP2 MSTORE ADDRESS PUSH1 0x20 DUP3 ADD MSTORE SWAP2 CALLDATALOAD PUSH1 0x40 DUP4 ADD MSTORE SWAP9 DUP10 SWAP3 SWAP2 DUP4 SWAP2 PUSH0 SWAP2 DUP4 SWAP2 PUSH1 0x60 SWAP1 SWAP2 ADD SWAP1 JUMP JUMPDEST SUB SWAP3 GAS CALL DUP1 ISZERO PUSH2 0xEBD JUMPI DUP16 DUP16 DUP16 SWAP1 DUP16 DUP16 SWAP4 DUP16 SWAP2 DUP16 SWAP5 DUP16 SWAP14 SWAP1 DUP16 PUSH2 0xC5B DUP16 DUP16 SWAP12 SWAP7 DUP2 SWAP8 SWAP4 DUP14 DUP4 SWAP8 DUP5 SWAP7 PUSH2 0xEC7 JUMPI JUMPDEST POP POP PUSH2 0x3126 JUMP JUMPDEST PUSH2 0xC64 SWAP1 PUSH2 0x3136 JUMP JUMPDEST SWAP7 PUSH2 0xC6E SWAP3 PUSH2 0x3126 JUMP JUMPDEST PUSH2 0xC77 SWAP1 PUSH2 0x3136 JUMP JUMPDEST SWAP7 PUSH2 0xC81 SWAP3 PUSH2 0x3126 JUMP JUMPDEST CALLDATALOAD SWAP12 PUSH2 0xC8C SWAP3 PUSH2 0x3126 JUMP JUMPDEST PUSH2 0xC95 SWAP1 PUSH2 0x3136 JUMP JUMPDEST DUP6 MLOAD PUSH32 0x6E81221C00000000000000000000000000000000000000000000000000000000 DUP2 MSTORE PUSH20 0xFFFFFFFFFFFFFFFFFFFFFFFFFFFFFFFFFFFFFFFF SWAP3 DUP4 AND SWAP4 DUP2 ADD SWAP4 DUP5 MSTORE SWAP4 DUP3 AND PUSH1 0x20 DUP5 ADD MSTORE PUSH1 0x40 DUP4 ADD SWAP11 SWAP1 SWAP11 MSTORE SWAP1 SWAP9 AND PUSH1 0x60 DUP10 ADD MSTORE SWAP7 DUP8 SWAP1 DUP2 SWAP1 PUSH1 0x80 ADD SUB DUP2 DUP6 GAS SWAP1 PUSH0 SWAP2 CALL SWAP3 DUP4 ISZERO PUSH2 0xEBD JUMPI DUP16 DUP16 SWAP2 DUP16 SWAP3 DUP16 SWAP4 DUP16 SWAP4 DUP16 SWAP8 DUP16 SWAP7 DUP16 SWAP7 DUP16 SWAP2 PUSH0 SWAP13 PUSH2 0xE55 JUMPI JUMPDEST PUSH2 0xE12 SWAP16 POP DUP15 PUSH2 0xDBC SWAP8 DUP16 SWAP15 SWAP14 SWAP13 SWAP12 SWAP10 SWAP5 SWAP8 DUP16 DUP16 SWAP1 DUP15 PUSH2 0xDAE SWAP2 PUSH0 SWAP16 SWAP11 SWAP12 DUP8 SWAP13 PUSH2 0xB37 SWAP15 PUSH2 0xD54 DUP11 PUSH2 0xDB5 SWAP14 PUSH2 0xB37 SWAP14 PUSH2 0x3126 JUMP JUMPDEST CALLDATALOAD SWAP1 PUSH0 DUP4 SWAP1 MSTORE DUP14 PUSH2 0xD72 PUSH2 0xB37 DUP14 PUSH1 0x1 SWAP8 DUP9 DUP11 MSTORE PUSH0 DUP12 SWAP1 KECCAK256 SWAP6 PUSH2 0x3126 JUMP JUMPDEST AND PUSH0 MSTORE DUP5 MSTORE PUSH0 DUP6 PUSH2 0xD86 SWAP2 KECCAK256 SWAP2 DUP3 SLOAD PUSH2 0x3039 JUMP JUMPDEST SWAP1 SSTORE PUSH0 MSTORE DUP2 MSTORE DUP16 DUP3 SWAP1 KECCAK256 SWAP1 DUP11 PUSH2 0xDA0 PUSH2 0xB37 DUP11 DUP11 DUP11 PUSH2 0x3126 JUMP JUMPDEST AND PUSH0 MSTORE MSTORE DUP15 KECCAK256 SWAP2 DUP3 SLOAD PUSH2 0x3073 JUMP JUMPDEST SWAP1 SSTORE PUSH2 0x3126 JUMP JUMPDEST AND SWAP8 PUSH2 0x3126 JUMP JUMPDEST SWAP3 MLOAD SWAP9 DUP10 SWAP6 DUP7 SWAP5 DUP6 SWAP4 PUSH32 0xA9059CBB00000000000000000000000000000000000000000000000000000000 DUP6 MSTORE DUP5 ADD PUSH1 0x20 SWAP1 SWAP4 SWAP3 SWAP2 SWAP4 PUSH20 0xFFFFFFFFFFFFFFFFFFFFFFFFFFFFFFFFFFFFFFFF PUSH1 0x40 DUP3 ADD SWAP6 AND DUP2 MSTORE ADD MSTORE JUMP JUMPDEST SUB SWAP3 GAS CALL SWAP3 DUP4 ISZERO PUSH2 0xE4B JUMPI PUSH1 0x1 SWAP4 PUSH2 0xE2D JUMPI JUMPDEST POP POP ADD PUSH2 0xACE JUMP JUMPDEST DUP2 PUSH2 0xE43 SWAP3 SWAP1 RETURNDATASIZE LT PUSH2 0x4C6 JUMPI PUSH2 0x4B8 DUP2 DUP4 PUSH2 0x2C0E JUMP JUMPDEST POP PUSH0 DUP1 PUSH2 0xE25 JUMP JUMPDEST DUP15 MLOAD RETURNDATASIZE PUSH0 DUP3 RETURNDATACOPY RETURNDATASIZE SWAP1 REVERT JUMPDEST POP POP POP SWAP12 SWAP8 POP POP POP POP SWAP5 POP POP POP POP DUP3 DUP2 DUP2 RETURNDATASIZE DUP4 GT PUSH2 0xEB6 JUMPI JUMPDEST PUSH2 0xE78 DUP2 DUP4 PUSH2 0x2C0E JUMP JUMPDEST DUP2 ADD SUB SLT PUSH2 0x558 JUMPI DUP16 SWAP5 DUP6 DUP16 DUP16 DUP16 SWAP4 DUP16 SWAP6 DUP16 DUP16 SWAP7 DUP16 SWAP5 SWAP10 DUP16 SWAP2 DUP16 SWAP5 SWAP4 DUP15 DUP15 SWAP14 DUP2 SWAP7 SWAP4 DUP16 DUP4 SWAP6 MLOAD SWAP9 POP POP SWAP8 SWAP5 SWAP10 SWAP12 SWAP13 SWAP14 SWAP3 SWAP4 POP SWAP8 SWAP5 SWAP10 SWAP6 SWAP14 POP POP PUSH2 0xD1F JUMP JUMPDEST POP RETURNDATASIZE PUSH2 0xE6E JUMP JUMPDEST POP MLOAD RETURNDATASIZE PUSH0 DUP3 RETURNDATACOPY RETURNDATASIZE SWAP1 REVERT JUMPDEST DUP2 PUSH2 0xEDD SWAP3 SWAP1 RETURNDATASIZE LT PUSH2 0x4C6 JUMPI PUSH2 0x4B8 DUP2 DUP4 PUSH2 0x2C0E JUMP JUMPDEST POP DUP14 PUSH0 PUSH2 0xC54 JUMP JUMPDEST SWAP9 POP POP POP POP POP POP DUP2 DUP5 DUP2 RETURNDATASIZE DUP4 GT PUSH2 0xF3D JUMPI JUMPDEST PUSH2 0xF01 DUP2 DUP4 PUSH2 0x2C0E JUMP JUMPDEST DUP2 ADD SUB SLT PUSH2 0x558 JUMPI DUP5 DUP16 DUP4 DUP16 PUSH2 0xBDC DUP8 DUP16 SWAP3 DUP16 SWAP1 PUSH2 0xBD5 PUSH2 0xB37 DUP5 DUP12 SWAP4 PUSH2 0xC27 SWAP16 PUSH2 0xF2C DUP7 SWAP2 PUSH2 0x2D6C JUMP JUMPDEST SWAP9 POP POP SWAP8 SWAP15 POP POP POP POP POP SWAP4 POP PUSH2 0xBB8 JUMP JUMPDEST POP RETURNDATASIZE PUSH2 0xEF7 JUMP JUMPDEST PUSH1 0x64 DUP3 PUSH1 0x20 DUP13 MLOAD SWAP2 PUSH32 0x8C379A000000000000000000000000000000000000000000000000000000000 DUP4 MSTORE DUP3 ADD MSTORE PUSH1 0x1C PUSH1 0x24 DUP3 ADD MSTORE PUSH32 0x496E70757420617272617973206C656E677468206D69736D6174636800000000 PUSH1 0x44 DUP3 ADD MSTORE REVERT JUMPDEST POP DUP1 DUP5 EQ PUSH2 0xABD JUMP JUMPDEST POP DUP4 DUP8 EQ PUSH2 0xAB7 JUMP JUMPDEST POP CALLVALUE PUSH2 0x558 JUMPI PUSH1 0x20 PUSH32 0xFFFFFFFFFFFFFFFFFFFFFFFFFFFFFFFFFFFFFFFFFFFFFFFFFFFFFFFFFFFFFFFC CALLDATASIZE ADD SLT PUSH2 0x558 JUMPI PUSH2 0xFEB PUSH2 0x2B6A JUMP JUMPDEST SWAP1 PUSH32 0xF0C57E16840DF040F15088DC2F81FE391C3923BEC73E23A9662EFC9C229C6A00 SWAP2 DUP3 SLOAD PUSH1 0xFF DUP2 DUP7 SHR AND ISZERO SWAP3 PUSH8 0xFFFFFFFFFFFFFFFF DUP3 AND DUP1 ISZERO SWAP1 DUP2 PUSH2 0x119B JUMPI JUMPDEST PUSH1 0x1 EQ SWAP1 DUP2 PUSH2 0x1191 JUMPI JUMPDEST ISZERO SWAP1 DUP2 PUSH2 0x1188 JUMPI JUMPDEST POP PUSH2 0x1161 JUMPI POP SWAP1 DUP2 DUP4 PUSH1 0x1 PUSH32 0xFFFFFFFFFFFFFFFFFFFFFFFFFFFFFFFFFFFFFFFFFFFFFFFF0000000000000000 PUSH20 0xFFFFFFFFFFFFFFFFFFFFFFFFFFFFFFFFFFFFFFFF SWAP6 AND OR DUP7 SSTORE PUSH2 0x112C JUMPI JUMPDEST POP PUSH2 0x1092 PUSH2 0x371C JUMP JUMPDEST PUSH2 0x109A PUSH2 0x371C JUMP JUMPDEST PUSH2 0x10A2 PUSH2 0x371C JUMP JUMPDEST PUSH2 0x10AB CALLER PUSH2 0x3157 JUMP JUMPDEST AND PUSH32 0xFFFFFFFFFFFFFFFFFFFFFFFF0000000000000000000000000000000000000000 PUSH0 SLOAD AND OR PUSH0 SSTORE PUSH2 0x10D9 JUMPI STOP JUMPDEST PUSH32 0xC7F505B2F371AE2175EE4913F4499E1F2633A7B5936321EED1CDAEB6115181D2 SWAP2 DUP2 PUSH32 0xFFFFFFFFFFFFFFFFFFFFFFFFFFFFFFFFFFFFFFFFFFFFFF00FFFFFFFFFFFFFFFF PUSH1 0x20 SWAP4 SLOAD AND SWAP1 SSTORE MLOAD PUSH1 0x1 DUP2 MSTORE LOG1 STOP JUMPDEST PUSH32 0xFFFFFFFFFFFFFFFFFFFFFFFFFFFFFFFFFFFFFFFFFFFFFF000000000000000000 AND PUSH9 0x10000000000000001 OR DUP5 SSTORE PUSH0 PUSH2 0x1089 JUMP JUMPDEST DUP6 MLOAD PUSH32 0xF92EE8A900000000000000000000000000000000000000000000000000000000 DUP2 MSTORE REVERT JUMPDEST SWAP1 POP ISZERO PUSH0 PUSH2 0x103E JUMP JUMPDEST ADDRESS EXTCODESIZE ISZERO SWAP2 POP PUSH2 0x1036 JUMP JUMPDEST DUP6 SWAP2 POP PUSH2 0x102C JUMP JUMPDEST POP CALLVALUE PUSH2 0x558 JUMPI PUSH1 0x20 SWAP1 DUP2 PUSH32 0xFFFFFFFFFFFFFFFFFFFFFFFFFFFFFFFFFFFFFFFFFFFFFFFFFFFFFFFFFFFFFFFC CALLDATASIZE ADD SLT PUSH2 0x558 JUMPI PUSH1 0x24 SWAP3 PUSH0 PUSH2 0x11E1 PUSH2 0x2B6A JUMP JUMPDEST PUSH20 0xFFFFFFFFFFFFFFFFFFFFFFFFFFFFFFFFFFFFFFFF SWAP6 DUP7 SWAP2 DUP3 DUP5 SLOAD AND DUP6 MLOAD SWAP7 DUP8 SWAP5 DUP6 SWAP4 PUSH32 0xB4340E6A00000000000000000000000000000000000000000000000000000000 DUP6 MSTORE AND SWAP1 DUP4 ADD MSTORE GAS STATICCALL SWAP2 DUP3 ISZERO PUSH2 0xEBD JUMPI PUSH0 SWAP3 PUSH2 0x1278 JUMPI JUMPDEST POP SWAP2 DUP3 MLOAD SWAP3 DUP2 DUP1 DUP6 ADD SWAP2 DUP2 DUP7 MSTORE DUP5 MLOAD DUP1 SWAP4 MSTORE DUP6 ADD SWAP4 ADD SWAP2 PUSH0 JUMPDEST DUP3 DUP2 LT PUSH2 0x1262 JUMPI DUP6 DUP6 SUB DUP7 RETURN JUMPDEST DUP4 MLOAD DUP8 AND DUP6 MSTORE SWAP4 DUP2 ADD SWAP4 SWAP3 DUP2 ADD SWAP3 PUSH1 0x1 ADD PUSH2 0x1255 JUMP JUMPDEST PUSH2 0x128D SWAP2 SWAP3 POP RETURNDATASIZE DUP1 PUSH0 DUP4 RETURNDATACOPY PUSH2 0x57A DUP2 DUP4 PUSH2 0x2C0E JUMP JUMPDEST SWAP1 PUSH0 PUSH2 0x123C JUMP JUMPDEST POP CALLVALUE PUSH2 0x558 JUMPI DUP2 PUSH32 0xFFFFFFFFFFFFFFFFFFFFFFFFFFFFFFFFFFFFFFFFFFFFFFFFFFFFFFFFFFFFFFFC CALLDATASIZE ADD SLT PUSH2 0x558 JUMPI PUSH2 0x12CB PUSH2 0x2B6A JUMP JUMPDEST PUSH20 0xFFFFFFFFFFFFFFFFFFFFFFFFFFFFFFFFFFFFFFFF SWAP1 DUP2 PUSH2 0x12EA PUSH2 0x2B8D JUMP JUMPDEST AND DUP5 MLOAD SWAP2 PUSH32 0x723C99900000000000000000000000000000000000000000000000000000000 DUP4 MSTORE DUP4 DUP2 AND DUP6 DUP5 ADD MSTORE PUSH0 DUP4 PUSH1 0x24 DUP2 DUP4 DUP7 GAS CALL SWAP3 DUP4 ISZERO PUSH2 0x14AB JUMPI PUSH0 SWAP4 PUSH2 0x148F JUMPI JUMPDEST POP DUP6 MLOAD SWAP3 PUSH32 0x67E4AC2C00000000000000000000000000000000000000000000000000000000 DUP5 MSTORE PUSH0 DUP5 DUP8 DUP2 DUP7 GAS STATICCALL SWAP4 DUP5 ISZERO PUSH2 0x1485 JUMPI PUSH0 SWAP5 PUSH2 0x1469 JUMPI JUMPDEST POP PUSH0 JUMPDEST DUP5 MLOAD DUP2 LT ISZERO PUSH2 0x563 JUMPI DUP1 PUSH2 0x1385 PUSH2 0x1430 SWAP3 DUP5 PUSH2 0x2E5E JUMP JUMPDEST MLOAD DUP6 PUSH0 MSTORE PUSH1 0x20 SWAP1 PUSH1 0x1 DUP3 MSTORE DUP11 PUSH0 KECCAK256 DUP10 PUSH2 0x139E DUP6 DUP12 PUSH2 0x2E5E JUMP JUMPDEST MLOAD AND PUSH0 MSTORE DUP3 MSTORE PUSH2 0x13B2 DUP12 PUSH0 KECCAK256 SWAP2 DUP3 SLOAD PUSH2 0x3039 JUMP JUMPDEST SWAP1 SSTORE DUP1 DUP11 DUP10 PUSH2 0x13C1 DUP6 DUP12 PUSH2 0x2E5E JUMP JUMPDEST MLOAD AND DUP12 PUSH0 PUSH2 0x13CF DUP8 DUP11 PUSH2 0x2E5E JUMP JUMPDEST MLOAD SWAP4 MLOAD DUP1 SWAP9 DUP2 SWAP6 DUP3 SWAP5 PUSH32 0x23B872DD00000000000000000000000000000000000000000000000000000000 DUP5 MSTORE DUP14 ADDRESS SWAP2 DUP6 ADD PUSH1 0x40 SWAP2 SWAP5 SWAP4 SWAP3 SWAP5 PUSH1 0x60 DUP3 ADD SWAP6 PUSH20 0xFFFFFFFFFFFFFFFFFFFFFFFFFFFFFFFFFFFFFFFF DUP1 SWAP3 AND DUP4 MSTORE AND PUSH1 0x20 DUP3 ADD MSTORE ADD MSTORE JUMP JUMPDEST SUB SWAP3 GAS CALL SWAP3 DUP4 ISZERO PUSH2 0x589 JUMPI PUSH1 0x1 SWAP4 PUSH2 0x144B JUMPI JUMPDEST POP POP ADD PUSH2 0x136E JUMP JUMPDEST DUP2 PUSH2 0x1461 SWAP3 SWAP1 RETURNDATASIZE LT PUSH2 0x4C6 JUMPI PUSH2 0x4B8 DUP2 DUP4 PUSH2 0x2C0E JUMP JUMPDEST POP PUSH0 DUP1 PUSH2 0x1443 JUMP JUMPDEST PUSH2 0x147E SWAP2 SWAP5 POP RETURNDATASIZE DUP1 PUSH0 DUP4 RETURNDATACOPY PUSH2 0x57A DUP2 DUP4 PUSH2 0x2C0E JUMP JUMPDEST SWAP3 PUSH0 PUSH2 0x136B JUMP JUMPDEST DUP8 MLOAD RETURNDATASIZE PUSH0 DUP3 RETURNDATACOPY RETURNDATASIZE SWAP1 REVERT JUMPDEST PUSH2 0x14A4 SWAP2 SWAP4 POP RETURNDATASIZE DUP1 PUSH0 DUP4 RETURNDATACOPY PUSH2 0x5A8 DUP2 DUP4 PUSH2 0x2C0E JUMP JUMPDEST SWAP2 PUSH0 PUSH2 0x132F JUMP JUMPDEST DUP7 MLOAD RETURNDATASIZE PUSH0 DUP3 RETURNDATACOPY RETURNDATASIZE SWAP1 REVERT JUMPDEST POP SWAP1 CALLVALUE PUSH2 0x558 JUMPI PUSH0 PUSH32 0xFFFFFFFFFFFFFFFFFFFFFFFFFFFFFFFFFFFFFFFFFFFFFFFFFFFFFFFFFFFFFFFC CALLDATASIZE ADD SLT PUSH2 0x558 JUMPI DUP1 MLOAD SWAP2 DUP2 DUP4 ADD SWAP1 DUP4 DUP3 LT PUSH8 0xFFFFFFFFFFFFFFFF DUP4 GT OR PUSH2 0x1577 JUMPI POP DUP2 MSTORE PUSH1 0x5 DUP3 MSTORE PUSH1 0x20 DUP3 ADD SWAP2 PUSH32 0x352E302E30000000000000000000000000000000000000000000000000000000 DUP4 MSTORE PUSH32 0xFFFFFFFFFFFFFFFFFFFFFFFFFFFFFFFFFFFFFFFFFFFFFFFFFFFFFFFFFFFFFFE0 PUSH1 0x1F DUP4 MLOAD SWAP5 DUP6 SWAP4 PUSH1 0x20 DUP6 MSTORE MLOAD DUP1 SWAP2 DUP2 PUSH1 0x20 DUP8 ADD MSTORE DUP7 DUP7 ADD MCOPY PUSH0 DUP6 DUP3 DUP7 ADD ADD MSTORE ADD AND DUP2 ADD SUB ADD SWAP1 RETURN JUMPDEST PUSH1 0x41 SWAP1 PUSH32 0x4E487B7100000000000000000000000000000000000000000000000000000000 PUSH0 MSTORE MSTORE PUSH1 0x24 PUSH0 REVERT JUMPDEST POP SWAP1 CALLVALUE PUSH2 0x558 JUMPI DUP1 PUSH32 0xFFFFFFFFFFFFFFFFFFFFFFFFFFFFFFFFFFFFFFFFFFFFFFFFFFFFFFFFFFFFFFFC CALLDATASIZE ADD SLT PUSH2 0x558 JUMPI PUSH2 0x15DB PUSH2 0x2B6A JUMP JUMPDEST SWAP2 PUSH1 0x24 CALLDATALOAD SWAP3 PUSH8 0xFFFFFFFFFFFFFFFF SWAP1 DUP2 DUP6 AND DUP1 SWAP6 SUB PUSH2 0x558 JUMPI PUSH32 0xF0C57E16840DF040F15088DC2F81FE391C3923BEC73E23A9662EFC9C229C6A00 SWAP3 DUP4 SLOAD SWAP3 DUP7 PUSH1 0xFF DUP6 DUP9 SHR AND SWAP2 DUP3 ISZERO PUSH2 0x1714 JUMPI JUMPDEST POP POP PUSH2 0x16ED JUMPI PUSH32 0xC7F505B2F371AE2175EE4913F4499E1F2633A7B5936321EED1CDAEB6115181D2 PUSH1 0x20 DUP8 DUP8 DUP8 PUSH32 0xFFFFFFFFFFFFFFFFFFFFFFFFFFFFFFFFFFFFFFFFFFFFFF00FFFFFFFFFFFFFFFF PUSH9 0x10000000000000000 DUP5 PUSH32 0xFFFFFFFFFFFFFFFFFFFFFFFFFFFFFFFFFFFFFFFFFFFFFF000000000000000000 DUP12 PUSH20 0xFFFFFFFFFFFFFFFFFFFFFFFFFFFFFFFFFFFFFFFF DUP13 AND PUSH32 0xFFFFFFFFFFFFFFFFFFFFFFFF0000000000000000000000000000000000000000 PUSH0 SLOAD AND OR PUSH0 SSTORE AND OR OR AND SWAP1 SSTORE MLOAD SWAP1 DUP2 MSTORE LOG1 STOP JUMPDEST DUP5 MLOAD PUSH32 0xF92EE8A900000000000000000000000000000000000000000000000000000000 DUP2 MSTORE REVERT JUMPDEST DUP6 AND LT ISZERO SWAP1 POP DUP7 PUSH0 PUSH2 0x1628 JUMP JUMPDEST DUP3 CALLVALUE PUSH2 0x558 JUMPI PUSH0 PUSH32 0xFFFFFFFFFFFFFFFFFFFFFFFFFFFFFFFFFFFFFFFFFFFFFFFFFFFFFFFFFFFFFFFC CALLDATASIZE ADD SLT PUSH2 0x558 JUMPI PUSH1 0x20 SWAP1 PUSH20 0xFFFFFFFFFFFFFFFFFFFFFFFFFFFFFFFFFFFFFFFF PUSH32 0x9016D09D72D40FDAE2FD8CEAC6B6234C7706214FD39C1CD1E609A0528C199300 SLOAD AND SWAP1 MLOAD SWAP1 DUP2 MSTORE RETURN JUMPDEST DUP3 CALLVALUE PUSH2 0x558 JUMPI DUP1 PUSH32 0xFFFFFFFFFFFFFFFFFFFFFFFFFFFFFFFFFFFFFFFFFFFFFFFFFFFFFFFFFFFFFFFC CALLDATASIZE ADD SLT PUSH2 0x558 JUMPI PUSH1 0x20 SWAP1 PUSH2 0x17CC PUSH2 0x2B6A JUMP JUMPDEST PUSH2 0x17D4 PUSH2 0x2B8D JUMP JUMPDEST SWAP1 PUSH20 0xFFFFFFFFFFFFFFFFFFFFFFFFFFFFFFFFFFFFFFFF DUP1 SWAP2 AND PUSH0 MSTORE PUSH1 0x1 DUP5 MSTORE DUP3 PUSH0 KECCAK256 SWAP2 AND PUSH0 MSTORE DUP3 MSTORE DUP1 PUSH0 KECCAK256 SLOAD SWAP1 MLOAD SWAP1 DUP2 MSTORE RETURN JUMPDEST POP SWAP1 CALLVALUE PUSH2 0x558 JUMPI PUSH2 0x1832 PUSH2 0x181A CALLDATASIZE PUSH2 0x2CB6 JUMP JUMPDEST SWAP6 SWAP2 SWAP1 DUP1 SWAP4 SWAP5 SWAP2 PUSH2 0x182C DUP3 ISZERO ISZERO PUSH2 0x3080 JUMP JUMPDEST DUP6 PUSH2 0x32B5 JUMP JUMPDEST SWAP5 DUP6 MLOAD ISZERO PUSH2 0x1D0B JUMPI PUSH20 0xFFFFFFFFFFFFFFFFFFFFFFFFFFFFFFFFFFFFFFFF SWAP5 DUP1 MLOAD SWAP4 PUSH32 0x23B872DD00000000000000000000000000000000000000000000000000000000 DUP6 MSTORE PUSH1 0x20 SWAP5 DUP6 DUP2 DUP1 PUSH2 0x18B5 DUP6 ADDRESS CALLER DUP12 DUP6 ADD PUSH1 0x40 SWAP2 SWAP5 SWAP4 SWAP3 SWAP5 PUSH1 0x60 DUP3 ADD SWAP6 PUSH20 0xFFFFFFFFFFFFFFFFFFFFFFFFFFFFFFFFFFFFFFFF DUP1 SWAP3 AND DUP4 MSTORE AND PUSH1 0x20 DUP3 ADD MSTORE ADD MSTORE JUMP JUMPDEST SUB DUP2 PUSH0 DUP13 DUP13 AND GAS CALL DUP1 ISZERO PUSH2 0x1D01 JUMPI PUSH2 0x1CE4 JUMPI JUMPDEST POP SWAP5 SWAP2 PUSH0 SWAP5 JUMPDEST DUP9 MLOAD DUP7 LT ISZERO PUSH2 0x1CDD JUMPI DUP8 PUSH2 0x18E2 DUP8 DUP12 PUSH2 0x2E5E JUMP JUMPDEST MLOAD AND SWAP4 DUP4 MLOAD SWAP9 PUSH32 0x67E4AC2C00000000000000000000000000000000000000000000000000000000 DUP11 MSTORE PUSH0 DUP11 DUP9 DUP2 DUP10 GAS STATICCALL SWAP10 DUP11 ISZERO PUSH2 0x1B43 JUMPI DUP12 SWAP1 PUSH0 SWAP12 PUSH2 0x1CB5 JUMPI JUMPDEST POP DUP2 PUSH2 0x1931 DUP11 PUSH2 0x1938 SWAP4 PUSH2 0x2E5E JUMP JUMPDEST MLOAD AND PUSH2 0x2E9F JUMP JUMPDEST SWAP10 PUSH0 SWAP11 PUSH0 JUMPDEST DUP3 MLOAD DUP2 LT ISZERO PUSH2 0x1CA4 JUMPI DUP4 PUSH2 0x1951 DUP3 DUP6 PUSH2 0x2E5E JUMP JUMPDEST MLOAD AND DUP5 DUP7 AND EQ ISZERO DUP1 PUSH2 0x1C91 JUMPI JUMPDEST PUSH2 0x196A JUMPI PUSH1 0x1 ADD PUSH2 0x193D JUMP JUMPDEST SWAP1 POP DUP3 SWAP12 POP PUSH2 0x1981 SWAP2 SWAP11 SWAP7 SWAP6 SWAP5 SWAP10 SWAP11 SWAP8 SWAP4 SWAP8 PUSH2 0x2E5E JUMP JUMPDEST MLOAD AND SWAP1 JUMPDEST DUP10 DUP3 AND SWAP1 DUP2 ISZERO PUSH2 0x1C35 JUMPI DUP5 MLOAD PUSH32 0xB2B55D7000000000000000000000000000000000000000000000000000000000 DUP2 MSTORE DUP3 DUP10 DUP3 ADD MSTORE PUSH1 0x24 SWAP1 DUP11 DUP2 DUP4 DUP2 DUP7 GAS STATICCALL SWAP1 DUP2 ISZERO PUSH2 0x1485 JUMPI SWAP1 DUP9 SWAP2 PUSH0 SWAP2 PUSH2 0x1C04 JUMPI JUMPDEST POP LT PUSH2 0x1B83 JUMPI DUP13 MLOAD SWAP1 PUSH32 0xFFFFFFFFFFFFFFFFFFFFFFFFFFFFFFFFFFFFFFFFFFFFFFFFFFFFFFFFFFFFFFFF DUP3 ADD SWAP2 DUP3 GT PUSH2 0x1B59 JUMPI POP DUP4 DUP8 SWAP3 DUP12 SWAP3 DUP14 EQ PUSH0 EQ PUSH2 0x1B4D JUMPI DUP10 PUSH0 DUP13 PUSH2 0x1A85 DUP11 JUMPDEST DUP13 MLOAD SWAP14 DUP15 SWAP8 DUP9 SWAP7 DUP8 SWAP6 PUSH32 0x6E81221C00000000000000000000000000000000000000000000000000000000 DUP8 MSTORE DUP7 ADD SWAP3 SWAP4 PUSH1 0x60 SWAP3 SWAP2 SWAP6 SWAP5 PUSH1 0x80 DUP6 ADD SWAP7 PUSH20 0xFFFFFFFFFFFFFFFFFFFFFFFFFFFFFFFFFFFFFFFF SWAP4 DUP5 DUP1 SWAP3 AND DUP8 MSTORE AND PUSH1 0x20 DUP7 ADD MSTORE PUSH1 0x40 DUP6 ADD MSTORE AND SWAP2 ADD MSTORE JUMP JUMPDEST SUB SWAP3 GAS CALL SWAP6 DUP7 ISZERO PUSH2 0x1B43 JUMPI DUP11 DUP14 DUP12 SWAP4 DUP15 SWAP4 PUSH0 SWAP11 PUSH2 0x1B03 JUMPI JUMPDEST POP SWAP1 DUP3 SWAP2 PUSH1 0x1 SWAP9 SWAP10 SWAP11 SWAP12 DUP6 PUSH2 0x1AB5 PUSH2 0x1ADC SWAP7 DUP6 PUSH2 0x2E5E JUMP JUMPDEST MLOAD AND PUSH0 MSTORE DUP10 SWAP7 DUP8 DUP2 MSTORE DUP7 DUP14 PUSH0 KECCAK256 SWAP3 AND PUSH0 MSTORE MSTORE PUSH2 0x1AD5 DUP12 PUSH0 KECCAK256 SWAP2 DUP3 SLOAD PUSH2 0x3039 JUMP JUMPDEST SWAP1 SSTORE PUSH2 0x2E5E JUMP JUMPDEST MLOAD AND PUSH0 MSTORE DUP9 MSTORE DUP5 PUSH0 KECCAK256 SWAP1 PUSH0 MSTORE DUP8 MSTORE DUP4 PUSH0 KECCAK256 PUSH2 0x1AF8 DUP7 DUP3 SLOAD PUSH2 0x3073 JUMP JUMPDEST SWAP1 SSTORE SWAP4 SWAP7 ADD SWAP5 PUSH2 0x18CE JUMP JUMPDEST SWAP5 SWAP4 POP SWAP7 SWAP8 SWAP9 POP POP POP DUP2 DUP2 RETURNDATASIZE DUP4 GT PUSH2 0x1B3C JUMPI JUMPDEST PUSH2 0x1B20 DUP2 DUP4 PUSH2 0x2C0E JUMP JUMPDEST DUP2 ADD SUB SLT PUSH2 0x558 JUMPI MLOAD SWAP5 SWAP4 SWAP3 DUP9 SWAP1 DUP12 SWAP1 DUP12 SWAP1 DUP15 SWAP1 PUSH2 0x1ADC PUSH2 0x1A9D JUMP JUMPDEST POP RETURNDATASIZE PUSH2 0x1B16 JUMP JUMPDEST DUP6 MLOAD RETURNDATASIZE PUSH0 DUP3 RETURNDATACOPY RETURNDATASIZE SWAP1 REVERT JUMPDEST DUP10 PUSH0 DUP13 PUSH2 0x1A85 ADDRESS PUSH2 0x1A1D JUMP JUMPDEST PUSH1 0x11 DUP11 PUSH32 0x4E487B7100000000000000000000000000000000000000000000000000000000 PUSH0 MSTORE MSTORE PUSH0 REVERT JUMPDEST DUP9 PUSH1 0x27 PUSH1 0x84 SWAP3 DUP13 DUP10 MLOAD SWAP4 PUSH32 0x8C379A000000000000000000000000000000000000000000000000000000000 DUP6 MSTORE DUP5 ADD MSTORE DUP3 ADD MSTORE PUSH32 0x496E73756666696369656E74206C697175696469747920696E20706F6F6C2066 PUSH1 0x44 DUP3 ADD MSTORE PUSH32 0x6F72207377617000000000000000000000000000000000000000000000000000 PUSH1 0x64 DUP3 ADD MSTORE REVERT JUMPDEST DUP1 SWAP3 POP DUP13 DUP1 SWAP3 POP RETURNDATASIZE DUP4 GT PUSH2 0x1C2E JUMPI JUMPDEST PUSH2 0x1C1D DUP2 DUP4 PUSH2 0x2C0E JUMP JUMPDEST DUP2 ADD SUB SLT PUSH2 0x558 JUMPI DUP8 SWAP1 MLOAD PUSH0 PUSH2 0x19D4 JUMP JUMPDEST POP RETURNDATASIZE PUSH2 0x1C13 JUMP JUMPDEST PUSH1 0x64 DUP9 DUP11 DUP8 MLOAD SWAP2 PUSH32 0x8C379A000000000000000000000000000000000000000000000000000000000 DUP4 MSTORE DUP3 ADD MSTORE PUSH1 0x19 PUSH1 0x24 DUP3 ADD MSTORE PUSH32 0x4E6F2076616C6964206E65787420746F6B656E20666F756E6400000000000000 PUSH1 0x44 DUP3 ADD MSTORE REVERT JUMPDEST POP PUSH2 0x1C9C DUP2 DUP4 PUSH2 0x2E5E JUMP JUMPDEST MLOAD ISZERO ISZERO PUSH2 0x195E JUMP JUMPDEST POP POP POP SWAP9 SWAP1 SWAP5 SWAP8 SWAP4 SWAP3 SWAP2 SWAP7 SWAP8 PUSH2 0x1985 JUMP JUMPDEST PUSH2 0x1938 SWAP2 SWAP12 POP PUSH2 0x1931 DUP11 PUSH2 0x1CD3 DUP6 SWAP4 RETURNDATASIZE DUP1 PUSH0 DUP4 RETURNDATACOPY PUSH2 0x57A DUP2 DUP4 PUSH2 0x2C0E JUMP JUMPDEST SWAP14 SWAP4 POP POP POP PUSH2 0x1922 JUMP JUMPDEST DUP3 MLOAD DUP8 DUP2 MSTORE RETURN JUMPDEST PUSH2 0x1CFA SWAP1 DUP7 RETURNDATASIZE DUP9 GT PUSH2 0x4C6 JUMPI PUSH2 0x4B8 DUP2 DUP4 PUSH2 0x2C0E JUMP JUMPDEST POP PUSH0 PUSH2 0x18C8 JUMP JUMPDEST DUP4 MLOAD RETURNDATASIZE PUSH0 DUP3 RETURNDATACOPY RETURNDATASIZE SWAP1 REVERT JUMPDEST PUSH1 0x64 DUP3 PUSH1 0x20 DUP8 MLOAD SWAP2 PUSH32 0x8C379A000000000000000000000000000000000000000000000000000000000 DUP4 MSTORE DUP3 ADD MSTORE PUSH1 0xE PUSH1 0x24 DUP3 ADD MSTORE PUSH32 0x4E6F20726F75746520666F756E64000000000000000000000000000000000000 PUSH1 0x44 DUP3 ADD MSTORE REVERT JUMPDEST CALLVALUE PUSH2 0x558 JUMPI PUSH1 0x20 PUSH32 0xFFFFFFFFFFFFFFFFFFFFFFFFFFFFFFFFFFFFFFFFFFFFFFFFFFFFFFFFFFFFFFFC CALLDATASIZE ADD SLT PUSH2 0x558 JUMPI PUSH20 0xFFFFFFFFFFFFFFFFFFFFFFFFFFFFFFFFFFFFFFFF PUSH2 0x1DB4 PUSH2 0x2B6A JUMP JUMPDEST PUSH2 0x1DBC PUSH2 0x3218 JUMP JUMPDEST AND PUSH32 0xFFFFFFFFFFFFFFFFFFFFFFFF0000000000000000000000000000000000000000 PUSH0 SLOAD AND OR PUSH0 SSTORE PUSH0 DUP1 RETURN JUMPDEST CALLVALUE PUSH2 0x558 JUMPI PUSH0 PUSH32 0xFFFFFFFFFFFFFFFFFFFFFFFFFFFFFFFFFFFFFFFFFFFFFFFFFFFFFFFFFFFFFFFC CALLDATASIZE ADD SLT PUSH2 0x558 JUMPI PUSH2 0x1E1E PUSH2 0x3218 JUMP JUMPDEST PUSH0 PUSH20 0xFFFFFFFFFFFFFFFFFFFFFFFFFFFFFFFFFFFFFFFF PUSH32 0x9016D09D72D40FDAE2FD8CEAC6B6234C7706214FD39C1CD1E609A0528C199300 DUP1 SLOAD SWAP1 PUSH32 0xFFFFFFFFFFFFFFFFFFFFFFFF0000000000000000000000000000000000000000 DUP3 AND SWAP1 SSTORE AND PUSH32 0x8BE0079C531659141344CD1FD0A4F28419497F9722A3DAAFE3B4186F6B6457E0 DUP3 DUP1 LOG3 STOP JUMPDEST POP CALLVALUE PUSH2 0x558 JUMPI PUSH2 0x1EB3 CALLDATASIZE PUSH2 0x2CB6 JUMP JUMPDEST PUSH2 0x1EC1 DUP3 SWAP7 SWAP4 SWAP3 ISZERO ISZERO PUSH2 0x3080 JUMP JUMPDEST PUSH20 0xFFFFFFFFFFFFFFFFFFFFFFFFFFFFFFFFFFFFFFFF SWAP5 DUP6 PUSH0 SLOAD AND SWAP6 DUP5 MLOAD DUP1 SWAP8 PUSH32 0x2D5E94A700000000000000000000000000000000000000000000000000000000 DUP3 MSTORE PUSH1 0x20 SWAP9 DUP10 SWAP2 DUP2 DUP1 PUSH2 0x1F3E DUP11 DUP14 DUP11 DUP5 ADD SWAP1 PUSH1 0x20 SWAP1 SWAP4 SWAP3 SWAP4 PUSH1 0x40 DUP4 ADD SWAP5 PUSH20 0xFFFFFFFFFFFFFFFFFFFFFFFFFFFFFFFFFFFFFFFF DUP1 SWAP3 AND DUP5 MSTORE AND SWAP2 ADD MSTORE JUMP JUMPDEST SUB SWAP2 GAS STATICCALL SWAP1 DUP2 ISZERO PUSH2 0x14AB JUMPI SWAP1 DUP3 SWAP2 PUSH0 SWAP2 PUSH2 0x216E JUMPI JUMPDEST POP DUP7 MLOAD PUSH32 0x23B872DD00000000000000000000000000000000000000000000000000000000 DUP2 MSTORE CALLER DUP6 DUP3 ADD SWAP1 DUP2 MSTORE ADDRESS PUSH1 0x20 DUP3 ADD MSTORE PUSH1 0x40 DUP2 ADD DUP13 SWAP1 MSTORE DUP5 DUP11 AND SWAP10 SWAP3 SWAP1 SWAP4 AND SWAP3 DUP11 SWAP1 DUP3 SWAP1 DUP2 SWAP1 PUSH1 0x60 ADD SUB DUP2 PUSH0 DUP14 GAS CALL DUP1 ISZERO PUSH2 0xA04 JUMPI DUP12 SWAP3 DUP12 SWAP3 DUP10 SWAP3 PUSH2 0x2151 JUMPI JUMPDEST POP DUP10 MLOAD PUSH32 0x6E81221C00000000000000000000000000000000000000000000000000000000 DUP2 MSTORE PUSH20 0xFFFFFFFFFFFFFFFFFFFFFFFFFFFFFFFFFFFFFFFF SWAP2 DUP3 AND DUP9 DUP3 ADD SWAP1 DUP2 MSTORE SWAP3 DUP3 AND PUSH1 0x20 DUP5 ADD MSTORE PUSH1 0x40 DUP4 ADD SWAP14 SWAP1 SWAP14 MSTORE DUP8 AND PUSH1 0x60 DUP3 ADD MSTORE DUP12 SWAP1 DUP2 SWAP1 PUSH1 0x80 ADD SUB DUP2 PUSH0 DUP7 GAS CALL SWAP8 DUP9 ISZERO PUSH2 0x1485 JUMPI DUP10 SWAP11 PUSH0 SWAP11 SWAP9 SWAP10 PUSH2 0x2111 JUMPI JUMPDEST POP SWAP3 DUP3 PUSH2 0x20D4 SWAP9 SWAP8 SWAP6 SWAP3 DUP12 SWAP8 SWAP6 PUSH0 SWAP6 DUP7 MSTORE PUSH1 0x1 DUP11 MSTORE DUP12 DUP7 KECCAK256 SWAP1 DUP7 MSTORE DUP10 MSTORE PUSH2 0x205B DUP12 DUP7 KECCAK256 SWAP2 DUP3 SLOAD PUSH2 0x3039 JUMP JUMPDEST SWAP1 SSTORE DUP4 MSTORE PUSH1 0x1 DUP8 MSTORE DUP9 DUP4 KECCAK256 SWAP5 AND SWAP4 DUP5 DUP4 MSTORE DUP7 MSTORE DUP8 DUP3 KECCAK256 PUSH2 0x207C DUP7 DUP3 SLOAD PUSH2 0x3073 JUMP JUMPDEST SWAP1 SSTORE DUP8 MLOAD SWAP7 DUP8 SWAP6 DUP7 SWAP5 DUP6 SWAP4 PUSH32 0xA9059CBB00000000000000000000000000000000000000000000000000000000 DUP6 MSTORE DUP5 ADD PUSH1 0x20 SWAP1 SWAP4 SWAP3 SWAP2 SWAP4 PUSH20 0xFFFFFFFFFFFFFFFFFFFFFFFFFFFFFFFFFFFFFFFF PUSH1 0x40 DUP3 ADD SWAP6 AND DUP2 MSTORE ADD MSTORE JUMP JUMPDEST SUB SWAP3 GAS CALL DUP1 ISZERO PUSH2 0x2107 JUMPI PUSH2 0x20EA JUMPI JUMPDEST POP MLOAD SWAP1 DUP2 MSTORE RETURN JUMPDEST PUSH2 0x2100 SWAP1 DUP5 RETURNDATASIZE DUP7 GT PUSH2 0x4C6 JUMPI PUSH2 0x4B8 DUP2 DUP4 PUSH2 0x2C0E JUMP JUMPDEST POP PUSH0 PUSH2 0x20E3 JUMP JUMPDEST DUP3 MLOAD RETURNDATASIZE PUSH0 DUP3 RETURNDATACOPY RETURNDATASIZE SWAP1 REVERT JUMPDEST DUP1 SWAP4 SWAP8 SWAP6 SWAP3 SWAP11 POP DUP9 SWAP2 SWAP7 SWAP5 SWAP9 RETURNDATASIZE DUP4 GT PUSH2 0x214A JUMPI JUMPDEST PUSH2 0x212F DUP2 DUP4 PUSH2 0x2C0E JUMP JUMPDEST DUP2 ADD SUB SLT PUSH2 0x558 JUMPI SWAP1 MLOAD SWAP8 DUP10 SWAP7 SWAP4 SWAP6 SWAP3 SWAP5 SWAP2 SWAP4 SWAP3 SWAP2 PUSH0 PUSH2 0x2030 JUMP JUMPDEST POP RETURNDATASIZE PUSH2 0x2125 JUMP JUMPDEST PUSH2 0x2167 SWAP1 DUP5 RETURNDATASIZE DUP7 GT PUSH2 0x4C6 JUMPI PUSH2 0x4B8 DUP2 DUP4 PUSH2 0x2C0E JUMP JUMPDEST POP PUSH0 PUSH2 0x1FB6 JUMP JUMPDEST DUP1 SWAP3 POP DUP10 DUP1 SWAP3 POP RETURNDATASIZE DUP4 GT PUSH2 0x219F JUMPI JUMPDEST PUSH2 0x2187 DUP2 DUP4 PUSH2 0x2C0E JUMP JUMPDEST DUP2 ADD SUB SLT PUSH2 0x558 JUMPI PUSH2 0x2199 DUP3 SWAP2 PUSH2 0x2D6C JUMP JUMPDEST PUSH0 PUSH2 0x1F53 JUMP JUMPDEST POP RETURNDATASIZE PUSH2 0x217D JUMP JUMPDEST POP CALLVALUE PUSH2 0x558 JUMPI PUSH1 0x20 SWAP2 DUP3 PUSH32 0xFFFFFFFFFFFFFFFFFFFFFFFFFFFFFFFFFFFFFFFFFFFFFFFFFFFFFFFFFFFFFFFC CALLDATASIZE ADD SLT PUSH2 0x558 JUMPI PUSH20 0xFFFFFFFFFFFFFFFFFFFFFFFFFFFFFFFFFFFFFFFF SWAP2 DUP3 PUSH2 0x21F7 PUSH2 0x2B6A JUMP JUMPDEST AND SWAP2 DUP1 MLOAD PUSH32 0x70A0823100000000000000000000000000000000000000000000000000000000 DUP2 MSTORE CALLER DUP4 DUP3 ADD MSTORE DUP6 DUP2 PUSH1 0x24 DUP2 DUP8 GAS STATICCALL SWAP1 DUP2 ISZERO PUSH2 0x2107 JUMPI PUSH0 SWAP2 PUSH2 0x2498 JUMPI JUMPDEST POP DUP2 MLOAD SWAP1 PUSH32 0x18160DDD00000000000000000000000000000000000000000000000000000000 DUP3 MSTORE DUP7 DUP3 DUP6 DUP2 DUP9 GAS STATICCALL SWAP2 DUP3 ISZERO PUSH2 0x1D01 JUMPI PUSH0 SWAP3 PUSH2 0x2469 JUMPI JUMPDEST POP PUSH2 0x2710 SWAP1 DUP2 DUP2 MUL SWAP2 DUP2 DUP4 DIV EQ SWAP1 ISZERO OR ISZERO PUSH2 0x243D JUMPI DUP2 ISZERO PUSH2 0x2411 JUMPI PUSH2 0x229F SWAP2 PUSH1 0x64 SWAP2 DIV LT ISZERO PUSH2 0x2F73 JUMP JUMPDEST DUP1 MLOAD SWAP2 PUSH32 0xF47B45E800000000000000000000000000000000000000000000000000000000 DUP4 MSTORE PUSH0 DUP4 DUP3 DUP2 DUP4 DUP9 GAS CALL SWAP6 DUP7 ISZERO PUSH2 0x2107 JUMPI PUSH0 SWAP4 PUSH0 SWAP8 PUSH2 0x23B5 JUMPI JUMPDEST POP PUSH0 DUP4 MLOAD DUP1 SWAP4 PUSH32 0x67E4AC2C00000000000000000000000000000000000000000000000000000000 DUP3 MSTORE DUP2 DUP9 GAS STATICCALL SWAP2 DUP3 ISZERO PUSH2 0x1D01 JUMPI PUSH0 SWAP3 PUSH2 0x2399 JUMPI JUMPDEST POP PUSH0 JUMPDEST DUP3 MLOAD DUP2 LT ISZERO PUSH2 0x563 JUMPI DUP1 PUSH2 0x2331 PUSH1 0x1 SWAP3 DUP8 PUSH2 0x2E5E JUMP JUMPDEST MLOAD DUP8 PUSH0 MSTORE DUP3 SWAP1 DUP2 DUP6 MSTORE DUP7 PUSH0 KECCAK256 DUP11 PUSH2 0x2348 DUP6 DUP10 PUSH2 0x2E5E JUMP JUMPDEST MLOAD AND PUSH0 MSTORE DUP6 MSTORE PUSH2 0x235C DUP8 PUSH0 KECCAK256 SWAP2 DUP3 SLOAD PUSH2 0x3039 JUMP JUMPDEST SWAP1 SSTORE PUSH2 0x2368 DUP3 DUP12 PUSH2 0x2E5E JUMP JUMPDEST MLOAD SWAP1 DUP9 PUSH0 MSTORE DUP5 MSTORE DUP6 PUSH0 KECCAK256 DUP10 PUSH2 0x237D DUP5 DUP9 PUSH2 0x2E5E JUMP JUMPDEST MLOAD AND PUSH0 MSTORE DUP5 MSTORE PUSH2 0x2391 DUP7 PUSH0 KECCAK256 SWAP2 DUP3 SLOAD PUSH2 0x3073 JUMP JUMPDEST SWAP1 SSTORE ADD PUSH2 0x231B JUMP JUMPDEST PUSH2 0x23AE SWAP2 SWAP3 POP RETURNDATASIZE DUP1 PUSH0 DUP4 RETURNDATACOPY PUSH2 0x57A DUP2 DUP4 PUSH2 0x2C0E JUMP JUMPDEST SWAP1 PUSH0 PUSH2 0x2318 JUMP JUMPDEST SWAP4 POP SWAP6 POP RETURNDATASIZE DUP1 PUSH0 DUP6 RETURNDATACOPY PUSH2 0x23C8 DUP2 DUP6 PUSH2 0x2C0E JUMP JUMPDEST DUP4 ADD SWAP3 DUP3 DUP2 DUP6 SUB SLT PUSH2 0x558 JUMPI DUP1 MLOAD SWAP4 PUSH8 0xFFFFFFFFFFFFFFFF SWAP5 DUP6 DUP2 GT PUSH2 0x558 JUMPI DUP2 PUSH2 0x23F4 SWAP2 DUP5 ADD PUSH2 0x2FD8 JUMP JUMPDEST SWAP5 DUP9 DUP4 ADD MLOAD SWAP1 DUP2 GT PUSH2 0x558 JUMPI PUSH2 0x240A SWAP3 ADD PUSH2 0x2FD8 JUMP JUMPDEST SWAP6 PUSH0 PUSH2 0x22DD JUMP JUMPDEST PUSH1 0x12 DUP5 PUSH32 0x4E487B7100000000000000000000000000000000000000000000000000000000 PUSH0 MSTORE MSTORE PUSH1 0x24 PUSH0 REVERT JUMPDEST PUSH1 0x11 DUP5 PUSH32 0x4E487B7100000000000000000000000000000000000000000000000000000000 PUSH0 MSTORE MSTORE PUSH1 0x24 PUSH0 REVERT JUMPDEST SWAP1 SWAP2 POP DUP7 DUP2 DUP2 RETURNDATASIZE DUP4 GT PUSH2 0x2491 JUMPI JUMPDEST PUSH2 0x2481 DUP2 DUP4 PUSH2 0x2C0E JUMP JUMPDEST DUP2 ADD SUB SLT PUSH2 0x558 JUMPI MLOAD SWAP1 PUSH0 PUSH2 0x2275 JUMP JUMPDEST POP RETURNDATASIZE PUSH2 0x2477 JUMP JUMPDEST SWAP1 POP DUP6 DUP2 DUP2 RETURNDATASIZE DUP4 GT PUSH2 0x24BE JUMPI JUMPDEST PUSH2 0x24AF DUP2 DUP4 PUSH2 0x2C0E JUMP JUMPDEST DUP2 ADD SUB SLT PUSH2 0x558 JUMPI MLOAD PUSH0 PUSH2 0x2239 JUMP JUMPDEST POP RETURNDATASIZE PUSH2 0x24A5 JUMP JUMPDEST POP SWAP1 CALLVALUE PUSH2 0x558 JUMPI PUSH0 PUSH32 0xFFFFFFFFFFFFFFFFFFFFFFFFFFFFFFFFFFFFFFFFFFFFFFFFFFFFFFFFFFFFFFFC CALLDATASIZE ADD SLT PUSH2 0x558 JUMPI PUSH20 0xFFFFFFFFFFFFFFFFFFFFFFFFFFFFFFFFFFFFFFFF PUSH32 0x0 AND ADDRESS SUB PUSH2 0x255B JUMPI PUSH1 0x20 SWAP1 MLOAD PUSH32 0x360894A13BA1A3210667C828492DB98DCA3E2076CC3735A920A3CA505D382BBC DUP2 MSTORE RETURN JUMPDEST MLOAD PUSH32 0xE07C8DBA00000000000000000000000000000000000000000000000000000000 DUP2 MSTORE REVERT JUMPDEST POP DUP2 PUSH32 0xFFFFFFFFFFFFFFFFFFFFFFFFFFFFFFFFFFFFFFFFFFFFFFFFFFFFFFFFFFFFFFFC CALLDATASIZE ADD SLT PUSH2 0x558 JUMPI PUSH2 0x25B3 PUSH2 0x2B6A JUMP JUMPDEST PUSH1 0x24 SWAP3 DUP4 CALLDATALOAD PUSH8 0xFFFFFFFFFFFFFFFF DUP2 GT PUSH2 0x558 JUMPI CALLDATASIZE PUSH1 0x23 DUP3 ADD SLT ISZERO PUSH2 0x558 JUMPI DUP1 DUP5 ADD CALLDATALOAD PUSH2 0x25DF DUP2 PUSH2 0x2C7C JUMP JUMPDEST SWAP4 PUSH2 0x25EC DUP5 MLOAD SWAP6 DUP7 PUSH2 0x2C0E JUMP JUMPDEST DUP2 DUP6 MSTORE PUSH1 0x20 SWAP2 DUP3 DUP7 ADD SWAP4 CALLDATASIZE DUP10 DUP4 DUP4 ADD ADD GT PUSH2 0x558 JUMPI DUP2 PUSH0 SWAP3 DUP11 DUP7 SWAP4 ADD DUP8 CALLDATACOPY DUP8 ADD ADD MSTORE PUSH20 0xFFFFFFFFFFFFFFFFFFFFFFFFFFFFFFFFFFFFFFFF DUP1 PUSH32 0x0 AND DUP1 ADDRESS EQ SWAP1 DUP2 ISZERO PUSH2 0x287F JUMPI JUMPDEST POP PUSH2 0x2857 JUMPI PUSH2 0x265E PUSH2 0x3218 JUMP JUMPDEST DUP2 AND SWAP5 DUP5 MLOAD PUSH32 0x52D1902D00000000000000000000000000000000000000000000000000000000 DUP2 MSTORE DUP4 DUP2 DUP10 DUP2 DUP11 GAS STATICCALL PUSH0 SWAP2 DUP2 PUSH2 0x2828 JUMPI JUMPDEST POP PUSH2 0x26C9 JUMPI POP POP POP POP POP MLOAD SWAP2 PUSH32 0x4C9C8CE300000000000000000000000000000000000000000000000000000000 DUP4 MSTORE DUP3 ADD MSTORE REVERT JUMPDEST SWAP1 DUP8 DUP8 DUP8 SWAP5 SWAP4 DUP12 PUSH32 0x360894A13BA1A3210667C828492DB98DCA3E2076CC3735A920A3CA505D382BBC SWAP2 DUP3 DUP2 SUB PUSH2 0x27FB JUMPI POP DUP6 EXTCODESIZE ISZERO PUSH2 0x27CE JUMPI POP DUP2 PUSH32 0xFFFFFFFFFFFFFFFFFFFFFFFF0000000000000000000000000000000000000000 DUP3 SLOAD AND OR SWAP1 SSTORE DUP5 MLOAD SWAP1 PUSH32 0xBC7CD75A20EE27FD9ADEBAB32041F755214DBC6BFFA90CC0225B39DA2E5C2D3B PUSH0 DUP1 LOG2 DUP3 MLOAD ISZERO PUSH2 0x279B JUMPI POP POP PUSH0 PUSH2 0x563 SWAP6 DUP2 SWAP3 MLOAD SWAP1 DUP5 GAS DELEGATECALL SWAP2 RETURNDATASIZE ISZERO PUSH2 0x2791 JUMPI RETURNDATASIZE PUSH2 0x2783 PUSH2 0x277A DUP3 PUSH2 0x2C7C JUMP JUMPDEST SWAP3 MLOAD SWAP3 DUP4 PUSH2 0x2C0E JUMP JUMPDEST DUP2 MSTORE PUSH0 DUP2 SWAP5 RETURNDATASIZE SWAP3 ADD RETURNDATACOPY PUSH2 0x3775 JUMP JUMPDEST POP PUSH1 0x60 SWAP3 POP PUSH2 0x3775 JUMP JUMPDEST SWAP5 POP SWAP5 POP POP POP POP CALLVALUE PUSH2 0x27A9 JUMPI STOP JUMPDEST PUSH32 0xB398979F00000000000000000000000000000000000000000000000000000000 DUP2 MSTORE REVERT JUMPDEST DUP4 DUP4 DUP9 MLOAD SWAP2 PUSH32 0x4C9C8CE300000000000000000000000000000000000000000000000000000000 DUP4 MSTORE DUP3 ADD MSTORE REVERT JUMPDEST DUP5 SWAP1 DUP9 MLOAD SWAP2 PUSH32 0xAA1D49A400000000000000000000000000000000000000000000000000000000 DUP4 MSTORE DUP3 ADD MSTORE REVERT JUMPDEST SWAP1 SWAP2 POP DUP5 DUP2 DUP2 RETURNDATASIZE DUP4 GT PUSH2 0x2850 JUMPI JUMPDEST PUSH2 0x2840 DUP2 DUP4 PUSH2 0x2C0E JUMP JUMPDEST DUP2 ADD SUB SLT PUSH2 0x558 JUMPI MLOAD SWAP1 PUSH0 PUSH2 0x2695 JUMP JUMPDEST POP RETURNDATASIZE PUSH2 0x2836 JUMP JUMPDEST DUP7 DUP6 MLOAD PUSH32 0xE07C8DBA00000000000000000000000000000000000000000000000000000000 DUP2 MSTORE REVERT JUMPDEST SWAP1 POP DUP2 PUSH32 0x360894A13BA1A3210667C828492DB98DCA3E2076CC3735A920A3CA505D382BBC SLOAD AND EQ ISZERO PUSH0 PUSH2 0x2651 JUMP JUMPDEST POP CALLVALUE PUSH2 0x558 JUMPI PUSH1 0x60 PUSH32 0xFFFFFFFFFFFFFFFFFFFFFFFFFFFFFFFFFFFFFFFFFFFFFFFFFFFFFFFFFFFFFFFC CALLDATASIZE ADD SLT PUSH2 0x558 JUMPI PUSH2 0x28E5 PUSH2 0x2B6A JUMP JUMPDEST SWAP2 PUSH2 0x28EE PUSH2 0x2B8D JUMP JUMPDEST SWAP2 PUSH20 0xFFFFFFFFFFFFFFFFFFFFFFFFFFFFFFFFFFFFFFFF SWAP3 DUP4 PUSH0 SLOAD AND SWAP1 DUP4 MLOAD SWAP6 DUP7 SWAP3 PUSH32 0x2D5E94A700000000000000000000000000000000000000000000000000000000 DUP5 MSTORE PUSH1 0x20 SWAP8 DUP9 SWAP2 DUP2 DUP1 PUSH2 0x296D DUP8 DUP8 DUP12 DUP5 ADD SWAP1 PUSH1 0x20 SWAP1 SWAP4 SWAP3 SWAP4 PUSH1 0x40 DUP4 ADD SWAP5 PUSH20 0xFFFFFFFFFFFFFFFFFFFFFFFFFFFFFFFFFFFFFFFF DUP1 SWAP3 AND DUP5 MSTORE AND SWAP2 ADD MSTORE JUMP JUMPDEST SUB SWAP2 GAS STATICCALL SWAP3 DUP4 ISZERO PUSH2 0x1B43 JUMPI SWAP1 DUP8 SWAP5 SWAP4 SWAP3 SWAP2 PUSH0 SWAP4 PUSH2 0x2A2C JUMPI JUMPDEST POP DUP6 MLOAD PUSH32 0x4AA0665200000000000000000000000000000000000000000000000000000000 DUP2 MSTORE PUSH20 0xFFFFFFFFFFFFFFFFFFFFFFFFFFFFFFFFFFFFFFFF SWAP2 DUP3 AND SWAP5 DUP2 ADD SWAP5 DUP6 MSTORE SWAP2 AND PUSH1 0x20 DUP5 ADD MSTORE PUSH1 0x44 CALLDATALOAD PUSH1 0x40 DUP5 ADD MSTORE SWAP5 DUP6 SWAP3 DUP4 SWAP2 SWAP1 DUP3 SWAP1 PUSH1 0x60 ADD JUMPDEST SUB SWAP3 AND GAS STATICCALL SWAP2 DUP3 ISZERO PUSH2 0xEBD JUMPI PUSH0 SWAP3 PUSH2 0x29FD JUMPI POP MLOAD SWAP1 DUP2 MSTORE RETURN JUMPDEST SWAP1 SWAP2 POP DUP3 DUP2 DUP2 RETURNDATASIZE DUP4 GT PUSH2 0x2A25 JUMPI JUMPDEST PUSH2 0x2A15 DUP2 DUP4 PUSH2 0x2C0E JUMP JUMPDEST DUP2 ADD SUB SLT PUSH2 0x558 JUMPI MLOAD SWAP1 PUSH0 PUSH2 0x20E3 JUMP JUMPDEST POP RETURNDATASIZE PUSH2 0x2A0B JUMP JUMPDEST DUP6 DUP2 SWAP7 SWAP3 SWAP5 POP RETURNDATASIZE DUP4 GT PUSH2 0x2A62 JUMPI JUMPDEST PUSH2 0x2A44 DUP2 DUP4 PUSH2 0x2C0E JUMP JUMPDEST DUP2 ADD SUB SLT PUSH2 0x558 JUMPI PUSH2 0x29E4 SWAP6 PUSH2 0x2A5A DUP9 SWAP6 PUSH2 0x2D6C JUMP JUMPDEST SWAP3 SWAP1 SWAP7 PUSH2 0x2985 JUMP JUMPDEST POP RETURNDATASIZE PUSH2 0x2A3A JUMP JUMPDEST DUP3 CALLVALUE PUSH2 0x558 JUMPI PUSH0 PUSH32 0xFFFFFFFFFFFFFFFFFFFFFFFFFFFFFFFFFFFFFFFFFFFFFFFFFFFFFFFFFFFFFFFC CALLDATASIZE ADD SLT PUSH2 0x558 JUMPI PUSH1 0x20 SWAP1 PUSH20 0xFFFFFFFFFFFFFFFFFFFFFFFFFFFFFFFFFFFFFFFF PUSH0 SLOAD AND SWAP1 MLOAD SWAP1 DUP2 MSTORE RETURN JUMPDEST DUP3 CALLVALUE PUSH2 0x558 JUMPI PUSH1 0x20 PUSH32 0xFFFFFFFFFFFFFFFFFFFFFFFFFFFFFFFFFFFFFFFFFFFFFFFFFFFFFFFFFFFFFFFC CALLDATASIZE ADD SLT PUSH2 0x558 JUMPI PUSH2 0xAE2 SWAP1 PUSH2 0x2AFE PUSH2 0x2AF9 PUSH2 0x2B6A JUMP JUMPDEST PUSH2 0x2E9F JUMP JUMPDEST SWAP1 MLOAD SWAP2 DUP3 SWAP2 DUP3 PUSH2 0x2BD3 JUMP JUMPDEST CALLVALUE PUSH2 0x558 JUMPI PUSH0 PUSH32 0xFFFFFFFFFFFFFFFFFFFFFFFFFFFFFFFFFFFFFFFFFFFFFFFFFFFFFFFFFFFFFFFC CALLDATASIZE ADD SLT PUSH2 0x558 JUMPI PUSH1 0x20 SWAP1 PUSH8 0xFFFFFFFFFFFFFFFF PUSH32 0xF0C57E16840DF040F15088DC2F81FE391C3923BEC73E23A9662EFC9C229C6A00 SLOAD AND DUP2 MSTORE RETURN JUMPDEST PUSH1 0x4 CALLDATALOAD SWAP1 PUSH20 0xFFFFFFFFFFFFFFFFFFFFFFFFFFFFFFFFFFFFFFFF DUP3 AND DUP3 SUB PUSH2 0x558 JUMPI JUMP JUMPDEST PUSH1 0x24 CALLDATALOAD SWAP1 PUSH20 0xFFFFFFFFFFFFFFFFFFFFFFFFFFFFFFFFFFFFFFFF DUP3 AND DUP3 SUB PUSH2 0x558 JUMPI JUMP JUMPDEST PUSH1 0x44 CALLDATALOAD SWAP1 PUSH20 0xFFFFFFFFFFFFFFFFFFFFFFFFFFFFFFFFFFFFFFFF DUP3 AND DUP3 SUB PUSH2 0x558 JUMPI JUMP JUMPDEST PUSH1 0x20 SWAP1 PUSH1 0x20 PUSH1 0x40 DUP2 DUP4 ADD SWAP3 DUP3 DUP2 MSTORE DUP6 MLOAD DUP1 SWAP5 MSTORE ADD SWAP4 ADD SWAP2 PUSH0 JUMPDEST DUP3 DUP2 LT PUSH2 0x2BFA JUMPI POP POP POP POP SWAP1 JUMP JUMPDEST DUP4 MLOAD DUP6 MSTORE SWAP4 DUP2 ADD SWAP4 SWAP3 DUP2 ADD SWAP3 PUSH1 0x1 ADD PUSH2 0x2BEC JUMP JUMPDEST SWAP1 PUSH1 0x1F PUSH32 0xFFFFFFFFFFFFFFFFFFFFFFFFFFFFFFFFFFFFFFFFFFFFFFFFFFFFFFFFFFFFFFE0 SWAP2 ADD AND DUP2 ADD SWAP1 DUP2 LT PUSH8 0xFFFFFFFFFFFFFFFF DUP3 GT OR PUSH2 0x2C4F JUMPI PUSH1 0x40 MSTORE JUMP JUMPDEST PUSH32 0x4E487B7100000000000000000000000000000000000000000000000000000000 PUSH0 MSTORE PUSH1 0x41 PUSH1 0x4 MSTORE PUSH1 0x24 PUSH0 REVERT JUMPDEST PUSH8 0xFFFFFFFFFFFFFFFF DUP2 GT PUSH2 0x2C4F JUMPI PUSH1 0x1F ADD PUSH32 0xFFFFFFFFFFFFFFFFFFFFFFFFFFFFFFFFFFFFFFFFFFFFFFFFFFFFFFFFFFFFFFE0 AND PUSH1 0x20 ADD SWAP1 JUMP JUMPDEST PUSH32 0xFFFFFFFFFFFFFFFFFFFFFFFFFFFFFFFFFFFFFFFFFFFFFFFFFFFFFFFFFFFFFFFC PUSH1 0x80 SWAP2 ADD SLT PUSH2 0x558 JUMPI PUSH20 0xFFFFFFFFFFFFFFFFFFFFFFFFFFFFFFFFFFFFFFFF SWAP1 PUSH1 0x4 CALLDATALOAD DUP3 DUP2 AND DUP2 SUB PUSH2 0x558 JUMPI SWAP2 PUSH1 0x24 CALLDATALOAD DUP2 DUP2 AND DUP2 SUB PUSH2 0x558 JUMPI SWAP2 PUSH1 0x44 CALLDATALOAD SWAP2 PUSH1 0x64 CALLDATALOAD SWAP1 DUP2 AND DUP2 SUB PUSH2 0x558 JUMPI SWAP1 JUMP JUMPDEST SWAP2 DUP2 PUSH1 0x1F DUP5 ADD SLT ISZERO PUSH2 0x558 JUMPI DUP3 CALLDATALOAD SWAP2 PUSH8 0xFFFFFFFFFFFFFFFF DUP4 GT PUSH2 0x558 JUMPI PUSH1 0x20 DUP1 DUP6 ADD SWAP5 DUP5 PUSH1 0x5 SHL ADD ADD GT PUSH2 0x558 JUMPI JUMP JUMPDEST PUSH8 0xFFFFFFFFFFFFFFFF DUP2 GT PUSH2 0x2C4F JUMPI PUSH1 0x5 SHL PUSH1 0x20 ADD SWAP1 JUMP JUMPDEST MLOAD SWAP1 PUSH20 0xFFFFFFFFFFFFFFFFFFFFFFFFFFFFFFFFFFFFFFFF DUP3 AND DUP3 SUB PUSH2 0x558 JUMPI JUMP JUMPDEST PUSH1 0x20 SWAP1 DUP2 DUP2 DUP5 SUB SLT PUSH2 0x558 JUMPI DUP1 MLOAD SWAP1 PUSH8 0xFFFFFFFFFFFFFFFF DUP3 GT PUSH2 0x558 JUMPI ADD SWAP2 DUP1 PUSH1 0x1F DUP5 ADD SLT ISZERO PUSH2 0x558 JUMPI DUP3 MLOAD PUSH2 0x2DC3 DUP2 PUSH2 0x2D54 JUMP JUMPDEST SWAP4 PUSH2 0x2DD1 PUSH1 0x40 MLOAD SWAP6 DUP7 PUSH2 0x2C0E JUMP JUMPDEST DUP2 DUP6 MSTORE DUP4 DUP1 DUP7 ADD SWAP3 PUSH1 0x5 SHL DUP3 ADD ADD SWAP3 DUP4 GT PUSH2 0x558 JUMPI DUP4 ADD SWAP1 JUMPDEST DUP3 DUP3 LT PUSH2 0x2DF8 JUMPI POP POP POP POP SWAP1 JUMP JUMPDEST DUP4 DUP1 SWAP2 PUSH2 0x2E04 DUP5 PUSH2 0x2D6C JUMP JUMPDEST DUP2 MSTORE ADD SWAP2 ADD SWAP1 PUSH2 0x2DEA JUMP JUMPDEST SWAP1 PUSH2 0x2E19 DUP3 PUSH2 0x2D54 JUMP JUMPDEST PUSH2 0x2E26 PUSH1 0x40 MLOAD SWAP2 DUP3 PUSH2 0x2C0E JUMP JUMPDEST DUP3 DUP2 MSTORE PUSH32 0xFFFFFFFFFFFFFFFFFFFFFFFFFFFFFFFFFFFFFFFFFFFFFFFFFFFFFFFFFFFFFFE0 PUSH2 0x2E54 DUP3 SWAP5 PUSH2 0x2D54 JUMP JUMPDEST ADD SWAP1 PUSH1 0x20 CALLDATASIZE SWAP2 ADD CALLDATACOPY JUMP JUMPDEST DUP1 MLOAD DUP3 LT ISZERO PUSH2 0x2E72 JUMPI PUSH1 0x20 SWAP2 PUSH1 0x5 SHL ADD ADD SWAP1 JUMP JUMPDEST PUSH32 0x4E487B7100000000000000000000000000000000000000000000000000000000 PUSH0 MSTORE PUSH1 0x32 PUSH1 0x4 MSTORE PUSH1 0x24 PUSH0 REVERT JUMPDEST SWAP1 PUSH20 0xFFFFFFFFFFFFFFFFFFFFFFFFFFFFFFFFFFFFFFFF DUP1 SWAP3 AND PUSH1 0x40 SWAP3 PUSH1 0x40 MLOAD SWAP1 PUSH32 0x67E4AC2C00000000000000000000000000000000000000000000000000000000 DUP3 MSTORE PUSH0 DUP3 PUSH1 0x4 DUP2 DUP7 GAS STATICCALL SWAP2 DUP3 ISZERO PUSH2 0x2F68 JUMPI PUSH0 SWAP3 PUSH2 0x2F4C JUMPI JUMPDEST POP PUSH2 0x2F03 DUP3 MLOAD PUSH2 0x2E0F JUMP JUMPDEST SWAP3 PUSH0 JUMPDEST DUP4 MLOAD DUP2 LT ISZERO PUSH2 0x2F43 JUMPI PUSH1 0x1 SWAP1 DUP3 PUSH0 MSTORE PUSH1 0x20 DUP3 DUP2 MSTORE DUP9 PUSH0 KECCAK256 SWAP1 DUP6 PUSH2 0x2F29 DUP5 DUP10 PUSH2 0x2E5E JUMP JUMPDEST MLOAD AND PUSH0 MSTORE MSTORE DUP8 PUSH0 KECCAK256 SLOAD PUSH2 0x2F3C DUP3 DUP9 PUSH2 0x2E5E JUMP JUMPDEST MSTORE ADD PUSH2 0x2F06 JUMP JUMPDEST POP SWAP3 SWAP5 POP POP POP POP JUMP JUMPDEST PUSH2 0x2F61 SWAP2 SWAP3 POP RETURNDATASIZE DUP1 PUSH0 DUP4 RETURNDATACOPY PUSH2 0x57A DUP2 DUP4 PUSH2 0x2C0E JUMP JUMPDEST SWAP1 PUSH0 PUSH2 0x2EF8 JUMP JUMPDEST PUSH1 0x40 MLOAD RETURNDATASIZE PUSH0 DUP3 RETURNDATACOPY RETURNDATASIZE SWAP1 REVERT JUMPDEST ISZERO PUSH2 0x2F7A JUMPI JUMP JUMPDEST PUSH1 0x64 PUSH1 0x40 MLOAD PUSH32 0x8C379A000000000000000000000000000000000000000000000000000000000 DUP2 MSTORE PUSH1 0x20 PUSH1 0x4 DUP3 ADD MSTORE PUSH1 0x14 PUSH1 0x24 DUP3 ADD MSTORE PUSH32 0x496E73756666696369656E742062616C616E6365000000000000000000000000 PUSH1 0x44 DUP3 ADD MSTORE REVERT JUMPDEST SWAP1 DUP1 PUSH1 0x1F DUP4 ADD SLT ISZERO PUSH2 0x558 JUMPI DUP2 MLOAD SWAP1 PUSH1 0x20 SWAP2 PUSH2 0x2FF3 DUP2 PUSH2 0x2D54 JUMP JUMPDEST SWAP4 PUSH2 0x3001 PUSH1 0x40 MLOAD SWAP6 DUP7 PUSH2 0x2C0E JUMP JUMPDEST DUP2 DUP6 MSTORE PUSH1 0x20 DUP1 DUP7 ADD SWAP3 PUSH1 0x5 SHL DUP3 ADD ADD SWAP3 DUP4 GT PUSH2 0x558 JUMPI PUSH1 0x20 ADD SWAP1 JUMPDEST DUP3 DUP3 LT PUSH2 0x302A JUMPI POP POP POP POP SWAP1 JUMP JUMPDEST DUP2 MLOAD DUP2 MSTORE SWAP1 DUP4 ADD SWAP1 DUP4 ADD PUSH2 0x301C JUMP JUMPDEST SWAP2 SWAP1 DUP3 ADD DUP1 SWAP3 GT PUSH2 0x3046 JUMPI JUMP JUMPDEST PUSH32 0x4E487B7100000000000000000000000000000000000000000000000000000000 PUSH0 MSTORE PUSH1 0x11 PUSH1 0x4 MSTORE PUSH1 0x24 PUSH0 REVERT JUMPDEST SWAP2 SWAP1 DUP3 SUB SWAP2 DUP3 GT PUSH2 0x3046 JUMPI JUMP JUMPDEST ISZERO PUSH2 0x3087 JUMPI JUMP JUMPDEST PUSH1 0x64 PUSH1 0x40 MLOAD PUSH32 0x8C379A000000000000000000000000000000000000000000000000000000000 DUP2 MSTORE PUSH1 0x20 PUSH1 0x4 DUP3 ADD MSTORE PUSH1 0x20 PUSH1 0x24 DUP3 ADD MSTORE PUSH32 0x416D6F756E74206D7573742062652067726561746572207468616E207A65726F PUSH1 0x44 DUP3 ADD MSTORE REVERT JUMPDEST SWAP1 DUP2 PUSH1 0x20 SWAP2 SUB SLT PUSH2 0x558 JUMPI MLOAD DUP1 ISZERO ISZERO DUP2 SUB PUSH2 0x558 JUMPI SWAP1 JUMP JUMPDEST SWAP1 PUSH1 0x20 DUP3 DUP3 SUB SLT PUSH2 0x558 JUMPI DUP2 MLOAD PUSH8 0xFFFFFFFFFFFFFFFF DUP2 GT PUSH2 0x558 JUMPI PUSH2 0x3123 SWAP3 ADD PUSH2 0x2FD8 JUMP JUMPDEST SWAP1 JUMP JUMPDEST SWAP2 SWAP1 DUP2 LT ISZERO PUSH2 0x2E72 JUMPI PUSH1 0x5 SHL ADD SWAP1 JUMP JUMPDEST CALLDATALOAD PUSH20 0xFFFFFFFFFFFFFFFFFFFFFFFFFFFFFFFFFFFFFFFF DUP2 AND DUP2 SUB PUSH2 0x558 JUMPI SWAP1 JUMP JUMPDEST PUSH20 0xFFFFFFFFFFFFFFFFFFFFFFFFFFFFFFFFFFFFFFFF DUP1 SWAP2 AND SWAP1 DUP2 ISZERO PUSH2 0x31E8 JUMPI PUSH32 0x9016D09D72D40FDAE2FD8CEAC6B6234C7706214FD39C1CD1E609A0528C199300 DUP1 SLOAD SWAP1 DUP4 PUSH32 0xFFFFFFFFFFFFFFFFFFFFFFFF0000000000000000000000000000000000000000 DUP4 AND OR SWAP1 SSTORE AND PUSH32 0x8BE0079C531659141344CD1FD0A4F28419497F9722A3DAAFE3B4186F6B6457E0 PUSH0 DUP1 LOG3 JUMP JUMPDEST PUSH1 0x24 PUSH1 0x40 MLOAD PUSH32 0x1E4FBDF700000000000000000000000000000000000000000000000000000000 DUP2 MSTORE PUSH0 PUSH1 0x4 DUP3 ADD MSTORE REVERT JUMPDEST PUSH20 0xFFFFFFFFFFFFFFFFFFFFFFFFFFFFFFFFFFFFFFFF PUSH32 0x9016D09D72D40FDAE2FD8CEAC6B6234C7706214FD39C1CD1E609A0528C199300 SLOAD AND CALLER SUB PUSH2 0x3258 JUMPI JUMP JUMPDEST PUSH1 0x24 PUSH1 0x40 MLOAD PUSH32 0x118CDAA700000000000000000000000000000000000000000000000000000000 DUP2 MSTORE CALLER PUSH1 0x4 DUP3 ADD MSTORE REVERT JUMPDEST PUSH32 0xFFFFFFFFFFFFFFFFFFFFFFFFFFFFFFFFFFFFFFFFFFFFFFFFFFFFFFFFFFFFFFFF DUP2 EQ PUSH2 0x3046 JUMPI PUSH1 0x1 ADD SWAP1 JUMP JUMPDEST PUSH20 0xFFFFFFFFFFFFFFFFFFFFFFFFFFFFFFFFFFFFFFFF PUSH1 0x4 PUSH0 DUP3 DUP2 SLOAD AND PUSH1 0x40 MLOAD SWAP3 DUP4 DUP1 SWAP3 PUSH32 0xD88FF1F400000000000000000000000000000000000000000000000000000000 DUP3 MSTORE GAS STATICCALL SWAP1 DUP2 ISZERO PUSH2 0x2F68 JUMPI PUSH0 SWAP2 PUSH2 0x3542 JUMPI JUMPDEST POP DUP1 MLOAD SWAP4 PUSH2 0x3318 DUP6 PUSH2 0x2E0F JUMP JUMPDEST SWAP2 PUSH0 SWAP4 PUSH2 0x3324 DUP8 PUSH2 0x2D54 JUMP JUMPDEST SWAP3 PUSH2 0x3332 PUSH1 0x40 MLOAD SWAP5 DUP6 PUSH2 0x2C0E JUMP JUMPDEST DUP8 DUP5 MSTORE PUSH32 0xFFFFFFFFFFFFFFFFFFFFFFFFFFFFFFFFFFFFFFFFFFFFFFFFFFFFFFFFFFFFFFE0 PUSH2 0x335F DUP10 PUSH2 0x2D54 JUMP JUMPDEST ADD CALLDATASIZE PUSH1 0x20 DUP7 ADD CALLDATACOPY PUSH2 0x336F DUP9 PUSH2 0x2E0F JUMP JUMPDEST SWAP7 PUSH0 PUSH1 0x1 SWAP2 DUP10 MLOAD ISZERO PUSH2 0x2E72 JUMPI DUP5 AND PUSH1 0x20 DUP11 ADD MSTORE JUMPDEST DUP2 DUP2 LT PUSH2 0x33BC JUMPI POP POP POP POP POP POP POP POP POP POP POP PUSH1 0x40 MLOAD PUSH1 0x20 DUP2 ADD DUP2 DUP2 LT PUSH8 0xFFFFFFFFFFFFFFFF DUP3 GT OR PUSH2 0x2C4F JUMPI PUSH1 0x40 MSTORE PUSH0 DUP2 MSTORE PUSH0 CALLDATASIZE DUP2 CALLDATACOPY SWAP1 JUMP JUMPDEST DUP4 PUSH2 0x33D0 PUSH2 0x33C9 DUP4 PUSH2 0x3288 JUMP JUMPDEST SWAP3 DUP12 PUSH2 0x2E5E JUMP JUMPDEST MLOAD AND DUP5 DUP5 AND DUP2 EQ PUSH2 0x34FB JUMPI PUSH0 JUMPDEST DUP12 DUP2 LT PUSH2 0x33EB JUMPI POP POP PUSH2 0x3383 JUMP JUMPDEST PUSH2 0x33F5 DUP2 DUP10 PUSH2 0x2E5E JUMP JUMPDEST MLOAD ISZERO PUSH2 0x3404 JUMPI JUMPDEST PUSH1 0x1 ADD PUSH2 0x33DD JUMP JUMPDEST DUP6 PUSH2 0x340F DUP3 DUP10 PUSH2 0x2E5E JUMP JUMPDEST MLOAD AND PUSH1 0x40 MLOAD SWAP1 PUSH32 0x67E4AC2C00000000000000000000000000000000000000000000000000000000 DUP3 MSTORE PUSH0 DUP3 PUSH1 0x4 DUP2 DUP5 GAS STATICCALL SWAP1 DUP2 ISZERO PUSH2 0x2F68 JUMPI DUP16 DUP6 SWAP4 PUSH0 SWAP4 PUSH2 0x34DF JUMPI JUMPDEST POP DUP4 PUSH2 0x345D DUP2 DUP6 PUSH2 0x355C JUMP JUMPDEST SWAP3 DUP4 PUSH2 0x34CD JUMPI JUMPDEST POP POP POP PUSH2 0x3473 JUMPI JUMPDEST POP POP PUSH2 0x33FC JUMP JUMPDEST SWAP1 PUSH2 0x347D SWAP2 PUSH2 0x366F JUMP JUMPDEST DUP7 PUSH2 0x3488 DUP4 DUP11 PUSH2 0x2E5E JUMP JUMPDEST MLOAD AND PUSH2 0x3493 DUP13 PUSH2 0x3288 JUMP JUMPDEST SWAP12 PUSH2 0x349E SWAP1 DUP13 PUSH2 0x2E5E JUMP JUMPDEST MSTORE DUP7 DUP13 PUSH2 0x34AA DUP8 PUSH2 0x3288 JUMP JUMPDEST SWAP7 PUSH2 0x34B4 SWAP2 PUSH2 0x2E5E JUMP JUMPDEST SWAP2 AND SWAP1 MSTORE PUSH2 0x34C2 DUP2 DUP10 PUSH2 0x2E5E JUMP JUMPDEST PUSH1 0x1 SWAP1 MSTORE DUP2 PUSH0 PUSH2 0x346C JUMP JUMPDEST PUSH2 0x34D7 SWAP4 POP PUSH2 0x35A9 JUMP JUMPDEST DUP16 DUP4 PUSH0 PUSH2 0x3464 JUMP JUMPDEST PUSH2 0x34F4 SWAP2 SWAP4 POP RETURNDATASIZE DUP1 PUSH0 DUP4 RETURNDATACOPY PUSH2 0x57A DUP2 DUP4 PUSH2 0x2C0E JUMP JUMPDEST SWAP2 PUSH0 PUSH2 0x3451 JUMP JUMPDEST POP POP POP POP SWAP5 POP POP POP SWAP4 POP SWAP2 POP PUSH2 0x3510 DUP3 PUSH2 0x2E0F JUMP JUMPDEST SWAP3 PUSH0 JUMPDEST DUP4 DUP2 LT PUSH2 0x3521 JUMPI POP POP POP POP SWAP1 JUMP JUMPDEST DUP1 DUP4 PUSH2 0x352F PUSH1 0x1 SWAP4 DUP6 PUSH2 0x2E5E JUMP JUMPDEST MLOAD AND PUSH2 0x353B DUP3 DUP9 PUSH2 0x2E5E JUMP JUMPDEST MSTORE ADD PUSH2 0x3513 JUMP JUMPDEST PUSH2 0x3556 SWAP2 POP RETURNDATASIZE DUP1 PUSH0 DUP4 RETURNDATACOPY PUSH2 0x57A DUP2 DUP4 PUSH2 0x2C0E JUMP JUMPDEST PUSH0 PUSH2 0x330B JUMP JUMPDEST SWAP1 PUSH0 JUMPDEST DUP3 MLOAD DUP2 LT ISZERO PUSH2 0x35A2 JUMPI PUSH20 0xFFFFFFFFFFFFFFFFFFFFFFFFFFFFFFFFFFFFFFFF DUP1 PUSH2 0x3588 DUP4 DUP7 PUSH2 0x2E5E JUMP JUMPDEST MLOAD AND SWAP1 DUP4 AND EQ PUSH2 0x359A JUMPI PUSH1 0x1 ADD PUSH2 0x355F JUMP JUMPDEST POP POP POP PUSH1 0x1 SWAP1 JUMP JUMPDEST POP POP POP PUSH0 SWAP1 JUMP JUMPDEST PUSH1 0x4 SWAP3 SWAP2 PUSH20 0xFFFFFFFFFFFFFFFFFFFFFFFFFFFFFFFFFFFFFFFF DUP1 SWAP3 AND SWAP2 PUSH0 PUSH2 0x35D0 DUP5 PUSH2 0x2E9F JUMP JUMPDEST SWAP4 PUSH1 0x40 MLOAD SWAP7 DUP8 DUP1 SWAP3 PUSH32 0x67E4AC2C00000000000000000000000000000000000000000000000000000000 DUP3 MSTORE GAS STATICCALL SWAP5 DUP6 ISZERO PUSH2 0x2F68 JUMPI PUSH0 SWAP6 PUSH2 0x3653 JUMPI JUMPDEST POP PUSH0 JUMPDEST DUP6 MLOAD DUP2 LT ISZERO PUSH2 0x3649 JUMPI DUP2 PUSH2 0x3622 DUP3 DUP9 PUSH2 0x2E5E JUMP JUMPDEST MLOAD AND DUP3 DUP5 AND EQ PUSH2 0x3634 JUMPI PUSH1 0x1 ADD PUSH2 0x360E JUMP JUMPDEST SWAP3 SWAP2 POP POP PUSH2 0x3643 SWAP3 SWAP4 POP PUSH2 0x2E5E JUMP JUMPDEST MLOAD LT ISZERO SWAP1 JUMP JUMPDEST POP POP POP POP POP POP PUSH0 SWAP1 JUMP JUMPDEST PUSH2 0x3668 SWAP2 SWAP6 POP RETURNDATASIZE DUP1 PUSH0 DUP4 RETURNDATACOPY PUSH2 0x57A DUP2 DUP4 PUSH2 0x2C0E JUMP JUMPDEST SWAP4 PUSH0 PUSH2 0x360B JUMP JUMPDEST SWAP1 PUSH0 JUMPDEST DUP3 MLOAD DUP2 LT ISZERO PUSH2 0x36BE JUMPI PUSH20 0xFFFFFFFFFFFFFFFFFFFFFFFFFFFFFFFFFFFFFFFF DUP1 PUSH2 0x369B DUP4 DUP7 PUSH2 0x2E5E JUMP JUMPDEST MLOAD AND DUP2 DUP5 AND SUB PUSH2 0x36AE JUMPI POP PUSH1 0x1 ADD PUSH2 0x3672 JUMP JUMPDEST SWAP3 PUSH2 0x36B9 SWAP3 POP PUSH2 0x2E5E JUMP JUMPDEST MLOAD AND SWAP1 JUMP JUMPDEST PUSH1 0x64 PUSH1 0x40 MLOAD PUSH32 0x8C379A000000000000000000000000000000000000000000000000000000000 DUP2 MSTORE PUSH1 0x20 PUSH1 0x4 DUP3 ADD MSTORE PUSH1 0x17 PUSH1 0x24 DUP3 ADD MSTORE PUSH32 0x546F6B656E206E6F7420666F756E6420696E20706F6F6C000000000000000000 PUSH1 0x44 DUP3 ADD MSTORE REVERT JUMPDEST PUSH1 0xFF PUSH32 0xF0C57E16840DF040F15088DC2F81FE391C3923BEC73E23A9662EFC9C229C6A00 SLOAD PUSH1 0x40 SHR AND ISZERO PUSH2 0x374B JUMPI JUMP JUMPDEST PUSH1 0x4 PUSH1 0x40 MLOAD PUSH32 0xD7E6BCF800000000000000000000000000000000000000000000000000000000 DUP2 MSTORE REVERT JUMPDEST SWAP1 PUSH2 0x37B4 JUMPI POP DUP1 MLOAD ISZERO PUSH2 0x378A JUMPI DUP1 MLOAD SWAP1 PUSH1 0x20 ADD REVERT JUMPDEST PUSH1 0x4 PUSH1 0x40 MLOAD PUSH32 0x1425EA4200000000000000000000000000000000000000000000000000000000 DUP2 MSTORE REVERT JUMPDEST DUP2 MLOAD ISZERO DUP1 PUSH2 0x380C JUMPI JUMPDEST PUSH2 0x37C5 JUMPI POP SWAP1 JUMP JUMPDEST PUSH1 0x24 SWAP1 PUSH20 0xFFFFFFFFFFFFFFFFFFFFFFFFFFFFFFFFFFFFFFFF PUSH1 0x40 MLOAD SWAP2 PUSH32 0x9996B31500000000000000000000000000000000000000000000000000000000 DUP4 MSTORE AND PUSH1 0x4 DUP3 ADD MSTORE REVERT JUMPDEST POP DUP1 EXTCODESIZE ISZERO PUSH2 0x37BD JUMP INVALID LOG2 PUSH5 0x6970667358 0x22 SLT KECCAK256 0xB2 0xB5 DELEGATECALL CALLDATASIZE 0x21 0x23 TLOAD LOG2 SIGNEXTEND PUSH0 PUSH1 0x4 JUMPDEST SWAP11 0xBA PUSH32 0x731FEE953A8636E849AE9F04AB5F0CFC64736F6C634300081900330000000000 "},"gasEstimates":{"creation":{"codeDepositCost":"2882200","executionCost":"infinite","totalCost":"infinite"},"external":{"UPGRADE_INTERFACE_VERSION()":"697","addLiquidity(uint256[],address,address)":"infinite","batchSwap(address[],address[],uint256[],address[])":"infinite","changePoolFactory(address)":"26795","getAmountOut(address,address,uint256)":"infinite","getAssetReserves(address,address)":"2795","getPoolsContainingToken(address)":"infinite","getReserves(address)":"infinite","getVersion()":"2263","initialize(address)":"infinite","owner()":"2563","performRebalanceIfNeeded(address)":"infinite","poolFactory()":"2342","poolsReserves(address,address)":"2575","proxiableUUID()":"infinite","rebalanceWeights(address,address)":"infinite","reinitialize(address,uint64)":"50157","removeLiquidity(uint256,address,address)":"infinite","renounceOwnership()":"28225","smartSwap(address,address,uint256,address)":"infinite","swap(address,address,uint256,address)":"infinite","transferOwnership(address)":"28609","upgradeToAndCall(address,bytes)":"infinite"},"internal":{"_authorizeUpgrade(address)":"infinite","_containsToken(address[] memory,address)":"infinite","_findOptimalRoute(address,address,uint256)":"infinite","_getOtherTokenInPool(address[] memory,address)":"infinite","_hasSufficientLiquidity(contract IBaluniV1Pool,address,uint256)":"infinite"}},"methodIdentifiers":{"UPGRADE_INTERFACE_VERSION()":"ad3cb1cc","addLiquidity(uint256[],address,address)":"ec0cd2eb","batchSwap(address[],address[],uint256[],address[])":"e74e9b06","changePoolFactory(address)":"72591be5","getAmountOut(address,address,uint256)":"4aa06652","getAssetReserves(address,address)":"8628991e","getPoolsContainingToken(address)":"ae3cce1c","getReserves(address)":"3e99c1e4","getVersion()":"0d8e6e2c","initialize(address)":"c4d66de8","owner()":"8da5cb5b","performRebalanceIfNeeded(address)":"5568081a","poolFactory()":"4219dc40","poolsReserves(address,address)":"4056c37f","proxiableUUID()":"52d1902d","rebalanceWeights(address,address)":"ad414263","reinitialize(address,uint64)":"8f2248bc","removeLiquidity(uint256,address,address)":"f31abcc4","renounceOwnership()":"715018a6","smartSwap(address,address,uint256,address)":"7442eca6","swap(address,address,uint256,address)":"6e81221c","transferOwnership(address)":"f2fde38b","upgradeToAndCall(address,bytes)":"4f1ef286"}},"storageLayout":{"storage":[{"astId":2165,"contract":"contracts/BaluniV1PoolPeriphery.sol:BaluniV1PoolPeriphery","label":"poolFactory","offset":0,"slot":"0","type":"t_contract(IBaluniV1PoolFactory)3917"},{"astId":2171,"contract":"contracts/BaluniV1PoolPeriphery.sol:BaluniV1PoolPeriphery","label":"poolsReserves","offset":0,"slot":"1","type":"t_mapping(t_address,t_mapping(t_address,t_uint256))"}],"types":{"t_address":{"encoding":"inplace","label":"address","numberOfBytes":"20"},"t_contract(IBaluniV1PoolFactory)3917":{"encoding":"inplace","label":"contract IBaluniV1PoolFactory","numberOfBytes":"20"},"t_mapping(t_address,t_mapping(t_address,t_uint256))":{"encoding":"mapping","key":"t_address","label":"mapping(address => mapping(address => uint256))","numberOfBytes":"32","value":"t_mapping(t_address,t_uint256)"},"t_mapping(t_address,t_uint256)":{"encoding":"mapping","key":"t_address","label":"mapping(address => uint256)","numberOfBytes":"32","value":"t_uint256"},"t_uint256":{"encoding":"inplace","label":"uint256","numberOfBytes":"32"}}},"userdoc":{"kind":"user","methods":{},"version":1}}}}