{"contracts/vaults/BaluniV1DCAVault.sol":{"BaluniV1DCAVault":{"abi":[{"inputs":[{"internalType":"address","name":"target","type":"address"}],"name":"AddressEmptyCode","type":"error"},{"inputs":[{"internalType":"address","name":"implementation","type":"address"}],"name":"ERC1967InvalidImplementation","type":"error"},{"inputs":[],"name":"ERC1967NonPayable","type":"error"},{"inputs":[{"internalType":"address","name":"spender","type":"address"},{"internalType":"uint256","name":"allowance","type":"uint256"},{"internalType":"uint256","name":"needed","type":"uint256"}],"name":"ERC20InsufficientAllowance","type":"error"},{"inputs":[{"internalType":"address","name":"sender","type":"address"},{"internalType":"uint256","name":"balance","type":"uint256"},{"internalType":"uint256","name":"needed","type":"uint256"}],"name":"ERC20InsufficientBalance","type":"error"},{"inputs":[{"internalType":"address","name":"approver","type":"address"}],"name":"ERC20InvalidApprover","type":"error"},{"inputs":[{"internalType":"address","name":"receiver","type":"address"}],"name":"ERC20InvalidReceiver","type":"error"},{"inputs":[{"internalType":"address","name":"sender","type":"address"}],"name":"ERC20InvalidSender","type":"error"},{"inputs":[{"internalType":"address","name":"spender","type":"address"}],"name":"ERC20InvalidSpender","type":"error"},{"inputs":[],"name":"EnforcedPause","type":"error"},{"inputs":[],"name":"ExpectedPause","type":"error"},{"inputs":[],"name":"FailedInnerCall","type":"error"},{"inputs":[],"name":"InvalidInitialization","type":"error"},{"inputs":[],"name":"NotInitializing","type":"error"},{"inputs":[{"internalType":"address","name":"owner","type":"address"}],"name":"OwnableInvalidOwner","type":"error"},{"inputs":[{"internalType":"address","name":"account","type":"address"}],"name":"OwnableUnauthorizedAccount","type":"error"},{"inputs":[],"name":"ReentrancyGuardReentrantCall","type":"error"},{"inputs":[],"name":"UUPSUnauthorizedCallContext","type":"error"},{"inputs":[{"internalType":"bytes32","name":"slot","type":"bytes32"}],"name":"UUPSUnsupportedProxiableUUID","type":"error"},{"anonymous":false,"inputs":[{"indexed":true,"internalType":"address","name":"owner","type":"address"},{"indexed":true,"internalType":"address","name":"spender","type":"address"},{"indexed":false,"internalType":"uint256","name":"value","type":"uint256"}],"name":"Approval","type":"event"},{"anonymous":false,"inputs":[{"indexed":true,"internalType":"address","name":"sender","type":"address"},{"indexed":false,"internalType":"uint256","name":"amountIn","type":"uint256"},{"indexed":false,"internalType":"uint256","name":"amountOut","type":"uint256"}],"name":"ExecuteTrade","type":"event"},{"anonymous":false,"inputs":[{"indexed":false,"internalType":"uint64","name":"version","type":"uint64"}],"name":"Initialized","type":"event"},{"anonymous":false,"inputs":[{"indexed":true,"internalType":"address","name":"previousOwner","type":"address"},{"indexed":true,"internalType":"address","name":"newOwner","type":"address"}],"name":"OwnershipTransferred","type":"event"},{"anonymous":false,"inputs":[{"indexed":false,"internalType":"address","name":"account","type":"address"}],"name":"Paused","type":"event"},{"anonymous":false,"inputs":[{"indexed":true,"internalType":"address","name":"from","type":"address"},{"indexed":true,"internalType":"address","name":"to","type":"address"},{"indexed":false,"internalType":"uint256","name":"value","type":"uint256"}],"name":"Transfer","type":"event"},{"anonymous":false,"inputs":[{"indexed":false,"internalType":"address","name":"account","type":"address"}],"name":"Unpaused","type":"event"},{"anonymous":false,"inputs":[{"indexed":true,"internalType":"address","name":"implementation","type":"address"}],"name":"Upgraded","type":"event"},{"inputs":[],"name":"UPGRADE_INTERFACE_VERSION","outputs":[{"internalType":"string","name":"","type":"string"}],"stateMutability":"view","type":"function"},{"inputs":[],"name":"accumulatedAssetB","outputs":[{"internalType":"uint256","name":"","type":"uint256"}],"stateMutability":"view","type":"function"},{"inputs":[{"internalType":"address","name":"owner","type":"address"},{"internalType":"address","name":"spender","type":"address"}],"name":"allowance","outputs":[{"internalType":"uint256","name":"","type":"uint256"}],"stateMutability":"view","type":"function"},{"inputs":[{"internalType":"address","name":"spender","type":"address"},{"internalType":"uint256","name":"value","type":"uint256"}],"name":"approve","outputs":[{"internalType":"bool","name":"","type":"bool"}],"stateMutability":"nonpayable","type":"function"},{"inputs":[{"internalType":"address","name":"account","type":"address"}],"name":"balanceOf","outputs":[{"internalType":"uint256","name":"","type":"uint256"}],"stateMutability":"view","type":"function"},{"inputs":[],"name":"baseAsset","outputs":[{"internalType":"address","name":"","type":"address"}],"stateMutability":"view","type":"function"},{"inputs":[],"name":"canSystemDeposit","outputs":[{"internalType":"bool","name":"","type":"bool"}],"stateMutability":"view","type":"function"},{"inputs":[{"internalType":"uint256","name":"_reinvestDuration","type":"uint256"}],"name":"changeReinvestDuration","outputs":[],"stateMutability":"nonpayable","type":"function"},{"inputs":[],"name":"decimals","outputs":[{"internalType":"uint8","name":"","type":"uint8"}],"stateMutability":"view","type":"function"},{"inputs":[{"internalType":"uint256","name":"amount","type":"uint256"},{"internalType":"address","name":"to","type":"address"}],"name":"deposit","outputs":[],"stateMutability":"nonpayable","type":"function"},{"inputs":[{"internalType":"address","name":"","type":"address"}],"name":"executors","outputs":[{"internalType":"bool","name":"","type":"bool"}],"stateMutability":"view","type":"function"},{"inputs":[],"name":"getAmountToSwap","outputs":[{"internalType":"uint256","name":"","type":"uint256"}],"stateMutability":"view","type":"function"},{"inputs":[{"internalType":"string","name":"_name","type":"string"},{"internalType":"string","name":"_symbol","type":"string"},{"internalType":"address","name":"_baseAsset","type":"address"},{"internalType":"address","name":"_quoteAsset","type":"address"},{"internalType":"address","name":"_registryAddress","type":"address"},{"internalType":"uint256","name":"_reinvestDuration","type":"uint256"}],"name":"initialize","outputs":[],"stateMutability":"nonpayable","type":"function"},{"inputs":[],"name":"lastDeposit","outputs":[{"internalType":"uint256","name":"","type":"uint256"}],"stateMutability":"view","type":"function"},{"inputs":[],"name":"lastInvestedBlock","outputs":[{"internalType":"uint256","name":"","type":"uint256"}],"stateMutability":"view","type":"function"},{"inputs":[],"name":"maxPerSwap","outputs":[{"internalType":"uint256","name":"","type":"uint256"}],"stateMutability":"view","type":"function"},{"inputs":[],"name":"name","outputs":[{"internalType":"string","name":"","type":"string"}],"stateMutability":"view","type":"function"},{"inputs":[],"name":"owner","outputs":[{"internalType":"address","name":"","type":"address"}],"stateMutability":"view","type":"function"},{"inputs":[],"name":"pause","outputs":[],"stateMutability":"nonpayable","type":"function"},{"inputs":[],"name":"paused","outputs":[{"internalType":"bool","name":"","type":"bool"}],"stateMutability":"view","type":"function"},{"inputs":[],"name":"proxiableUUID","outputs":[{"internalType":"bytes32","name":"","type":"bytes32"}],"stateMutability":"view","type":"function"},{"inputs":[],"name":"quoteAsset","outputs":[{"internalType":"address","name":"","type":"address"}],"stateMutability":"view","type":"function"},{"inputs":[],"name":"registry","outputs":[{"internalType":"address","name":"","type":"address"}],"stateMutability":"view","type":"function"},{"inputs":[{"internalType":"string","name":"_name","type":"string"},{"internalType":"string","name":"_symbol","type":"string"},{"internalType":"address","name":"_baseAsset","type":"address"},{"internalType":"address","name":"_quoteAsset","type":"address"},{"internalType":"address","name":"_registryAddress","type":"address"},{"internalType":"uint256","name":"_reinvestDuration","type":"uint256"},{"internalType":"uint64","name":"_version","type":"uint64"}],"name":"reinitialize","outputs":[],"stateMutability":"nonpayable","type":"function"},{"inputs":[],"name":"reinvestDuration","outputs":[{"internalType":"uint256","name":"","type":"uint256"}],"stateMutability":"view","type":"function"},{"inputs":[],"name":"renounceOwnership","outputs":[],"stateMutability":"nonpayable","type":"function"},{"inputs":[{"internalType":"address","name":"_wallet","type":"address"},{"internalType":"bool","name":"_allow","type":"bool"}],"name":"setExecutor","outputs":[],"stateMutability":"nonpayable","type":"function"},{"inputs":[],"name":"swapDuration","outputs":[{"internalType":"uint256","name":"","type":"uint256"}],"stateMutability":"view","type":"function"},{"inputs":[],"name":"symbol","outputs":[{"internalType":"string","name":"","type":"string"}],"stateMutability":"view","type":"function"},{"inputs":[],"name":"systemDeposit","outputs":[],"stateMutability":"nonpayable","type":"function"},{"inputs":[],"name":"totalSupply","outputs":[{"internalType":"uint256","name":"","type":"uint256"}],"stateMutability":"view","type":"function"},{"inputs":[],"name":"totalValuation","outputs":[{"internalType":"uint256","name":"","type":"uint256"}],"stateMutability":"view","type":"function"},{"inputs":[{"internalType":"address","name":"to","type":"address"},{"internalType":"uint256","name":"value","type":"uint256"}],"name":"transfer","outputs":[{"internalType":"bool","name":"","type":"bool"}],"stateMutability":"nonpayable","type":"function"},{"inputs":[{"internalType":"address","name":"from","type":"address"},{"internalType":"address","name":"to","type":"address"},{"internalType":"uint256","name":"value","type":"uint256"}],"name":"transferFrom","outputs":[{"internalType":"bool","name":"","type":"bool"}],"stateMutability":"nonpayable","type":"function"},{"inputs":[{"internalType":"address","name":"newOwner","type":"address"}],"name":"transferOwnership","outputs":[],"stateMutability":"nonpayable","type":"function"},{"inputs":[],"name":"unitPrice","outputs":[{"internalType":"uint256","name":"","type":"uint256"}],"stateMutability":"view","type":"function"},{"inputs":[],"name":"unpause","outputs":[],"stateMutability":"nonpayable","type":"function"},{"inputs":[{"internalType":"address","name":"newImplementation","type":"address"},{"internalType":"bytes","name":"data","type":"bytes"}],"name":"upgradeToAndCall","outputs":[],"stateMutability":"payable","type":"function"},{"inputs":[{"internalType":"uint256","name":"shares","type":"uint256"},{"internalType":"address","name":"to","type":"address"}],"name":"withdraw","outputs":[],"stateMutability":"nonpayable","type":"function"}],"devdoc":{"errors":{"AddressEmptyCode(address)":[{"details":"There's no code at `target` (it is not a contract)."}],"ERC1967InvalidImplementation(address)":[{"details":"The `implementation` of the proxy is invalid."}],"ERC1967NonPayable()":[{"details":"An upgrade function sees `msg.value > 0` that may be lost."}],"ERC20InsufficientAllowance(address,uint256,uint256)":[{"details":"Indicates a failure with the `spender`’s `allowance`. Used in transfers.","params":{"allowance":"Amount of tokens a `spender` is allowed to operate with.","needed":"Minimum amount required to perform a transfer.","spender":"Address that may be allowed to operate on tokens without being their owner."}}],"ERC20InsufficientBalance(address,uint256,uint256)":[{"details":"Indicates an error related to the current `balance` of a `sender`. Used in transfers.","params":{"balance":"Current balance for the interacting account.","needed":"Minimum amount required to perform a transfer.","sender":"Address whose tokens are being transferred."}}],"ERC20InvalidApprover(address)":[{"details":"Indicates a failure with the `approver` of a token to be approved. Used in approvals.","params":{"approver":"Address initiating an approval operation."}}],"ERC20InvalidReceiver(address)":[{"details":"Indicates a failure with the token `receiver`. Used in transfers.","params":{"receiver":"Address to which tokens are being transferred."}}],"ERC20InvalidSender(address)":[{"details":"Indicates a failure with the token `sender`. Used in transfers.","params":{"sender":"Address whose tokens are being transferred."}}],"ERC20InvalidSpender(address)":[{"details":"Indicates a failure with the `spender` to be approved. Used in approvals.","params":{"spender":"Address that may be allowed to operate on tokens without being their owner."}}],"EnforcedPause()":[{"details":"The operation failed because the contract is paused."}],"ExpectedPause()":[{"details":"The operation failed because the contract is not paused."}],"FailedInnerCall()":[{"details":"A call to an address target failed. The target may have reverted."}],"InvalidInitialization()":[{"details":"The contract is already initialized."}],"NotInitializing()":[{"details":"The contract is not initializing."}],"OwnableInvalidOwner(address)":[{"details":"The owner is not a valid owner account. (eg. `address(0)`)"}],"OwnableUnauthorizedAccount(address)":[{"details":"The caller account is not authorized to perform an operation."}],"ReentrancyGuardReentrantCall()":[{"details":"Unauthorized reentrant call."}],"UUPSUnauthorizedCallContext()":[{"details":"The call is from an unauthorized context."}],"UUPSUnsupportedProxiableUUID(bytes32)":[{"details":"The storage `slot` is unsupported as a UUID."}]},"events":{"Approval(address,address,uint256)":{"details":"Emitted when the allowance of a `spender` for an `owner` is set by a call to {approve}. `value` is the new allowance."},"Initialized(uint64)":{"details":"Triggered when the contract has been initialized or reinitialized."},"Paused(address)":{"details":"Emitted when the pause is triggered by `account`."},"Transfer(address,address,uint256)":{"details":"Emitted when `value` tokens are moved from one account (`from`) to another (`to`). Note that `value` may be zero."},"Unpaused(address)":{"details":"Emitted when the pause is lifted by `account`."},"Upgraded(address)":{"details":"Emitted when the implementation is upgraded."}},"kind":"dev","methods":{"allowance(address,address)":{"details":"See {IERC20-allowance}."},"approve(address,uint256)":{"details":"See {IERC20-approve}. NOTE: If `value` is the maximum `uint256`, the allowance is not updated on `transferFrom`. This is semantically equivalent to an infinite approval. Requirements: - `spender` cannot be the zero address."},"balanceOf(address)":{"details":"See {IERC20-balanceOf}."},"decimals()":{"details":"Returns the number of decimals used to get its user representation. For example, if `decimals` equals `2`, a balance of `505` tokens should be displayed to a user as `5.05` (`505 / 10 ** 2`). Tokens usually opt for a value of 18, imitating the relationship between Ether and Wei. This is the default value returned by this function, unless it's overridden. NOTE: This information is only used for _display_ purposes: it in no way affects any of the arithmetic of the contract, including {IERC20-balanceOf} and {IERC20-transfer}."},"deposit(uint256,address)":{"details":"Deposits assetA into the pool.","params":{"amount":"The amount of assetA to deposit.","to":"The address to receive pool tokens."}},"initialize(string,string,address,address,address,uint256)":{"details":"Initializes the BaluniV1DCA contract.","params":{"_baseAsset":"The address of the base asset.","_name":"The name of the token.","_quoteAsset":"The address of the quote asset.","_registryAddress":"The address of the registry contract.","_reinvestDuration":"The duration between reinvestments.","_symbol":"The symbol of the token."}},"name()":{"details":"Returns the name of the token."},"owner()":{"details":"Returns the address of the current owner."},"pause()":{"details":"pause pool, restricting certain operations"},"paused()":{"details":"Returns true if the contract is paused, and false otherwise."},"proxiableUUID()":{"details":"Implementation of the ERC1822 {proxiableUUID} function. This returns the storage slot used by the implementation. It is used to validate the implementation's compatibility when performing an upgrade. IMPORTANT: A proxy pointing at a proxiable contract should not be considered proxiable itself, because this risks bricking a proxy that upgrades to it, by delegating to itself until out of gas. Thus it is critical that this function revert if invoked through a proxy. This is guaranteed by the `notDelegated` modifier."},"renounceOwnership()":{"details":"Leaves the contract without owner. It will not be possible to call `onlyOwner` functions. Can only be called by the current owner. NOTE: Renouncing ownership will leave the contract without an owner, thereby disabling any functionality that is only available to the owner."},"symbol()":{"details":"Returns the symbol of the token, usually a shorter version of the name."},"totalSupply()":{"details":"See {IERC20-totalSupply}."},"transfer(address,uint256)":{"details":"See {IERC20-transfer}. Requirements: - `to` cannot be the zero address. - the caller must have a balance of at least `value`."},"transferFrom(address,address,uint256)":{"details":"See {IERC20-transferFrom}. Emits an {Approval} event indicating the updated allowance. This is not required by the EIP. See the note at the beginning of {ERC20}. NOTE: Does not update the allowance if the current allowance is the maximum `uint256`. Requirements: - `from` and `to` cannot be the zero address. - `from` must have a balance of at least `value`. - the caller must have allowance for ``from``'s tokens of at least `value`."},"transferOwnership(address)":{"details":"Transfers ownership of the contract to a new account (`newOwner`). Can only be called by the current owner."},"unpause()":{"details":"unpause pool, enabling certain operations"},"upgradeToAndCall(address,bytes)":{"custom:oz-upgrades-unsafe-allow-reachable":"delegatecall","details":"Upgrade the implementation of the proxy to `newImplementation`, and subsequently execute the function call encoded in `data`. Calls {_authorizeUpgrade}. Emits an {Upgraded} event."},"withdraw(uint256,address)":{"details":"Withdraws assetA and assetB from the pool.","params":{"shares":"The amount of pool tokens to redeem.","to":"The address to receive assetA and assetB."}}},"version":1},"evm":{"bytecode":{"linkReferences":{},"object":"60a08060405234602957306080526135d6908161002e8239608051818181611357015261143c0152f35b5f80fdfe604060808152600480361015610013575f80fd5b5f3560e01c908162f714ce14611c3657816306fdde0314611b70578163095ea7b314611a6657816318160ddd14611a295781631e1bff3f146119b657816323b872dd146117fa578163295b9300146117de578163313ce567146117c357816336b77107146117a75781633f4ba83a146116e85781634f1ef286146113ea5781634fe84c42146113cc57816352d1902d1461133c5781635c975abb146112fa5781636e553f6514610e8a57816370a0823114610e34578163715018a614610da35781637b10399914610d7c5781638456cb5914610ce65781638da5cb5b14610ca057816395d89b4114610b845781639ac2a01114610b48578163a9059cbb14610b18578163ad3cb1cc14610a83578163b3404efd14610a65578163bc4ba73114610a47578163c80b0baf146108d2578163cdf456e1146108ac578163d53419a31461057a578163d9d47d691461055e578163db48a5e314610540578163dd62ed3e146104c9578163e73faa2d146104a6578163edf3e29e146102e4578163f267d91b1461029d578163f2fde38b14610272578163f661af291461021157508063f7fde10f146101f35763fdf262b7146101c9575f80fd5b346101ef575f6003193601126101ef576020906001600160a01b03600154169051908152f35b5f80fd5b50346101ef575f6003193601126101ef576020906003549051908152f35b346101ef5760206003193601126101ef5780359061022d61330c565b8160085561016891808302928304036102465750600755005b6011907f4e487b71000000000000000000000000000000000000000000000000000000005f525260245ffd5b346101ef5760206003193601126101ef5761029b61028e612399565b61029661330c565b6130ae565b005b82346101ef575f6003193601126101ef576020906102b9612ec1565b906102c6600554436125e7565b6008541091826102da575b50519015158152f35b15159150836102d1565b82346101ef5760c06003193601126101ef5767ffffffffffffffff82358181116101ef576103159036908501612517565b906024358181116101ef5761032d9036908601612517565b916103366123af565b61033e6123c5565b6103466123db565b917ff0c57e16840df040f15088dc2f81fe391c3923bec73e23a9662efc9c229c6a0095865460ff818a1c16159681168015908161049e575b6001149081610494575b15908161048b575b5061046357866103d59798999a5060017fffffffffffffffffffffffffffffffffffffffffffffffff00000000000000008316178a5561042e575b5060a43594612999565b6103db57005b7fc7f505b2f371ae2175ee4913f4499e1f2633a7b5936321eed1cdaeb6115181d291817fffffffffffffffffffffffffffffffffffffffffffffff00ffffffffffffffff602093541690555160018152a1005b7fffffffffffffffffffffffffffffffffffffffffffffff0000000000000000001668010000000000000001178855896103cb565b8989517ff92ee8a9000000000000000000000000000000000000000000000000000000008152fd5b9050158b610390565b303b159150610388565b88915061037e565b82346101ef575f6003193601126101ef576020906104c2612f76565b9051908152f35b82346101ef57806003193601126101ef576020906104e5612399565b6001600160a01b0361052f6104f8612383565b926001600160a01b03165f527f52c63247e1f47db19d5ce0460030c497f067ca4cebf71ba98eeadabe20bace0160205260405f2090565b91165f528252805f20549051908152f35b82346101ef575f6003193601126101ef576020906006549051908152f35b82346101ef575f6003193601126101ef576020906104c2612ec1565b9050346101ef575f6003193601126101ef57610594613162565b61059c6131bc565b6105a8600554436125e7565b6008541015610850576105b9612ec1565b9182156107f3576001600160a01b03806002541690825180927f82755ebb000000000000000000000000000000000000000000000000000000008252818660209586935afa9081156107e9579082915f916107bc575b501693815f541683855180927f095ea7b3000000000000000000000000000000000000000000000000000000008252815f816106648d8d8a8401602090939291936001600160a01b0360408201951681520152565b03925af180156107b25791608491859493610785575b505f83815416936001541697875198899586947f2d6bc8ea00000000000000000000000000000000000000000000000000000000865285015260248401528960448401523060648401525af190811561077b575f9161072c575b7f129ac658e77b551b004790e5bd957532cef552c50852a1ee0e38dd3e23fe85db93504360055582519485528401523392a260017f9b779b17422d0df92223018b32b4d1fa46e071723d6817e2486d003becc55f0055005b80915083813d8311610774575b6107438183612439565b810103126101ef577f129ac658e77b551b004790e5bd957532cef552c50852a1ee0e38dd3e23fe85db9251906106d4565b503d610739565b82513d5f823e3d90fd5b6107a490853d87116107ab575b61079c8183612439565b8101906125f4565b505f61067a565b503d610792565b85513d5f823e3d90fd5b6107dc9150843d86116107e2575b6107d48183612439565b81019061260c565b5f61060f565b503d6107ca565b84513d5f823e3d90fd5b90602060649251917f08c379a0000000000000000000000000000000000000000000000000000000008352820152600f60248201527f4e6f7468696e6720746f207377617000000000000000000000000000000000006044820152fd5b602060649251917f08c379a0000000000000000000000000000000000000000000000000000000008352820152601d60248201527f776169742074696c6c206e657874207265696e76657374206379636c650000006044820152fd5b82346101ef575f6003193601126101ef576020906001600160a01b035f54169051908152f35b82346101ef5760e06003193601126101ef5767ffffffffffffffff9180358381116101ef576109049036908301612517565b6024358481116101ef5761091b9036908401612517565b6109236123af565b61092b6123c5565b906109346123db565b9260c435978089168099036101ef577ff0c57e16840df040f15088dc2f81fe391c3923bec73e23a9662efc9c229c6a00968754918a60ff848c1c16918215610a3a575b5050610a13577fc7f505b2f371ae2175ee4913f4499e1f2633a7b5936321eed1cdaeb6115181d260208b8b8b6109e68c8c8c8c8c68010000000000000000897fffffffffffffffffffffffffffffffffffffffffffffff0000000000000000008f161717875560a43594612999565b7fffffffffffffffffffffffffffffffffffffffffffffff00ffffffffffffffff815416905551908152a1005b88517ff92ee8a9000000000000000000000000000000000000000000000000000000008152fd5b8416101590508a8c610977565b82346101ef575f6003193601126101ef576020906005549051908152f35b82346101ef575f6003193601126101ef576020906007549051908152f35b82346101ef575f6003193601126101ef5780519080820182811067ffffffffffffffff821117610aec57610ae893508152600582527f352e302e30000000000000000000000000000000000000000000000000000000602083015251918291826123f1565b0390f35b6041847f4e487b71000000000000000000000000000000000000000000000000000000005f525260245ffd5b82346101ef57806003193601126101ef57602090610b41610b37612399565b602435903361336f565b5160018152f35b82346101ef5760206003193601126101ef576020906001600160a01b03610b6d612399565b165f526009825260ff815f20541690519015158152f35b82346101ef575f6003193601126101ef5780515f7f52c63247e1f47db19d5ce0460030c497f067ca4cebf71ba98eeadabe20bace04805490610bc58261262b565b80855291602091600191828116908115610c555750600114610bfd575b610ae88688610bf382890383612439565b51918291826123f1565b5f90815293507f46a2803e59a4de4e7a4c574b1243f25977ac4c77d5a1a4a609b5394cebb4a2aa5b838510610c4257505050508101602001610bf382610ae886610be2565b8054868601840152938201938101610c25565b610ae898965087945060209350610bf39592507fffffffffffffffffffffffffffffffffffffffffffffffffffffffffffffff0091501682840152151560051b820101929486610be2565b82346101ef575f6003193601126101ef576020906001600160a01b037f9016d09d72d40fdae2fd8ceac6b6234c7706214fd39c1cd1e609a0528c19930054169051908152f35b82346101ef575f6003193601126101ef5760207f62e78cea01bee320cd4e420270b5ea74000d11b0c9f74754ebdbfc544b05a25891610d2361330c565b610d2b6131bc565b7fcd5ed15c6e187e77e9aee88184c21f4f2182ab5827cb3b7e07fbedcd63f0330060017fffffffffffffffffffffffffffffffffffffffffffffffffffffffffffffff0082541617905551338152a1005b82346101ef575f6003193601126101ef576020906001600160a01b03600254169051908152f35b346101ef575f6003193601126101ef57610dbb61330c565b5f6001600160a01b037f9016d09d72d40fdae2fd8ceac6b6234c7706214fd39c1cd1e609a0528c1993008054907fffffffffffffffffffffffff000000000000000000000000000000000000000082169055167f8be0079c531659141344cd1fd0a4f28419497f9722a3daafe3b4186f6b6457e08280a3005b82346101ef5760206003193601126101ef576020906001600160a01b03610e59612399565b165f527f52c63247e1f47db19d5ce0460030c497f067ca4cebf71ba98eeadabe20bace008252805f20549051908152f35b9050346101ef57816003193601126101ef578035610ea6612383565b610eae613162565b610eb66131bc565b811561129d575f805485517f23b872dd0000000000000000000000000000000000000000000000000000000081523386820190815230602082810191909152604082018790526001600160a01b03969094909385928492918916918391829060600103925af180156111f457611280575b5083600254168651917f04cc732500000000000000000000000000000000000000000000000000000000835283838881855afa92831561121b57879285915f95611261575b508951938480927f3b19e84a0000000000000000000000000000000000000000000000000000000082525afa91821561121b575f92611242575b5086610fb182613211565b928961101b87610fc087613211565b978b5f5416610fcf8a8a6125e7565b915f86518096819582947fa9059cbb000000000000000000000000000000000000000000000000000000009c8d85528401602090939291936001600160a01b0360408201951681520152565b03925af1801561077b5788948c925f92611225575b506110608c8354169451998a968795869485528401602090939291936001600160a01b0360408201951681520152565b03925af192831561121b5761107a936111fe575b506125e7565b928482825f54168851928380927f313ce5670000000000000000000000000000000000000000000000000000000082525afa80156111f4576110ca6110cf916110d5935f916111c7575b5061254e565b61258c565b8561259d565b9216918215611198575f917fddf252ad1be2c89b69c2b068fc378daa952ba7f163c4a11628f55a4df523b3ef9161117096977f52c63247e1f47db19d5ce0460030c497f067ca4cebf71ba98eeadabe20bace0261113383825461267c565b90558585527f52c63247e1f47db19d5ce0460030c497f067ca4cebf71ba98eeadabe20bace00835280852082815401905551908152a3825461267c565b905560017f9b779b17422d0df92223018b32b4d1fa46e071723d6817e2486d003becc55f0055005b6024855f8851917fec442f05000000000000000000000000000000000000000000000000000000008352820152fd5b6111e79150863d88116111ed575b6111df8183612439565b810190612535565b5f6110c4565b503d6111d5565b87513d5f823e3d90fd5b61121490853d87116107ab5761079c8183612439565b505f611074565b88513d5f823e3d90fd5b61123b90873d89116107ab5761079c8183612439565b505f611030565b61125a919250843d86116107e2576107d48183612439565b905f610fa6565b611279919550823d84116107e2576107d48183612439565b935f610f6c565b61129690833d85116107ab5761079c8183612439565b505f610f27565b60648360208651917f08c379a0000000000000000000000000000000000000000000000000000000008352820152602060248201527f416d6f756e74206d7573742062652067726561746572207468616e207a65726f6044820152fd5b82346101ef575f6003193601126101ef5760209060ff7fcd5ed15c6e187e77e9aee88184c21f4f2182ab5827cb3b7e07fbedcd63f03300541690519015158152f35b82346101ef575f6003193601126101ef576001600160a01b037f00000000000000000000000000000000000000000000000000000000000000001630036113a657602090517f360894a13ba1a3210667c828492db98dca3e2076cc3735a920a3ca505d382bbc8152f35b517fe07c8dba000000000000000000000000000000000000000000000000000000008152fd5b82346101ef575f6003193601126101ef576020906008549051908152f35b9050816003193601126101ef576113ff612399565b9160243567ffffffffffffffff81116101ef57366023820112156101ef5761143090369060248186013591016124e1565b906001600160a01b03807f0000000000000000000000000000000000000000000000000000000000000000168030149081156116ba575b506116925761147461330c565b8416918151947f52d1902d00000000000000000000000000000000000000000000000000000000865260209081878781885afa5f9781611663575b506114e357602486868651917f4c9c8ce3000000000000000000000000000000000000000000000000000000008352820152fd5b919490937f360894a13ba1a3210667c828492db98dca3e2076cc3735a920a3ca505d382bbc877fc9f76b5ec45e5cdef99837d7b6d2467235c1df8933c8ca56df5c35afa2c7d44481016116345750833b1561160557817fffffffffffffffffffffffff00000000000000000000000000000000000000008254161790558351907fbc7cd75a20ee27fd9adebab32041f755214dbc6bffa90cc0225b39da2e5c2d3b5f80a28551156115d35750505f80858561029b97519101845af4913d156115c9573d6115bb6115b2826124a7565b92519283612439565b81525f81943d92013e61350d565b506060925061350d565b935093505050346115e057005b7fb398979f000000000000000000000000000000000000000000000000000000008152fd5b602483838751917f4c9c8ce3000000000000000000000000000000000000000000000000000000008352820152fd5b836024918751917faa1d49a4000000000000000000000000000000000000000000000000000000008352820152fd5b9097508281813d831161168b575b61167b8183612439565b810103126101ef5751965f6114af565b503d611671565b8382517fe07c8dba000000000000000000000000000000000000000000000000000000008152fd5b9050817f360894a13ba1a3210667c828492db98dca3e2076cc3735a920a3ca505d382bbc541614155f611467565b82346101ef575f6003193601126101ef5761170161330c565b7fcd5ed15c6e187e77e9aee88184c21f4f2182ab5827cb3b7e07fbedcd63f033009182549060ff821615611780577f5db9ee0a495bf2e6ff9c91a7834c1ba4fdd244a5e8aa4e537bd38aeae4b073aa602084867fffffffffffffffffffffffffffffffffffffffffffffffffffffffffffffff008616905551338152a1005b82517f8dfc202b000000000000000000000000000000000000000000000000000000008152fd5b82346101ef575f6003193601126101ef57602091549051908152f35b82346101ef575f6003193601126101ef576020905160128152f35b82346101ef575f6003193601126101ef576020906104c2612689565b9050346101ef5760606003193601126101ef57611815612399565b61181d612383565b906044359261185c826001600160a01b03165f527f52c63247e1f47db19d5ce0460030c497f067ca4cebf71ba98eeadabe20bace0160205260405f2090565b335f52602052845f2054907fffffffffffffffffffffffffffffffffffffffffffffffffffffffffffffffff820361189d575b602086610b4187878761336f565b848210611972576001600160a01b038316156119435733156119145750918184610b41946118ff60209897956001600160a01b03165f527f52c63247e1f47db19d5ce0460030c497f067ca4cebf71ba98eeadabe20bace0160205260405f2090565b335f52885203855f205591939481935061188f565b6024905f8751917f94280d62000000000000000000000000000000000000000000000000000000008352820152fd5b6024905f8751917fe602df05000000000000000000000000000000000000000000000000000000008352820152fd5b85517ffb8f41b20000000000000000000000000000000000000000000000000000000081523391810191825260208201929092526040810185905281906060010390fd5b82346101ef57806003193601126101ef576119cf612399565b90602435918215158093036101ef576001600160a01b03906119ef61330c565b165f5260096020525f209060ff7fffffffffffffffffffffffffffffffffffffffffffffffffffffffffffffff0083541691161790555f80f35b82346101ef575f6003193601126101ef576020907f52c63247e1f47db19d5ce0460030c497f067ca4cebf71ba98eeadabe20bace02549051908152f35b82346101ef57806003193601126101ef57611a7f612399565b602435903315611b41576001600160a01b0316908115611b125760209350611ad7336001600160a01b03165f527f52c63247e1f47db19d5ce0460030c497f067ca4cebf71ba98eeadabe20bace0160205260405f2090565b825f52845280835f205582519081527f8c5be1e5ebec7d5bd14f71427d1e84f3dd0314c0f7b2291e5b200ac8c7c3b925843392a35160018152f35b6024845f8551917f94280d62000000000000000000000000000000000000000000000000000000008352820152fd5b6024845f8551917fe602df05000000000000000000000000000000000000000000000000000000008352820152fd5b82346101ef575f6003193601126101ef5780515f7f52c63247e1f47db19d5ce0460030c497f067ca4cebf71ba98eeadabe20bace03805490611bb18261262b565b80855291602091600191828116908115610c555750600114611bde57610ae88688610bf382890383612439565b5f90815293507f2ae08a8e29253f69ac5d979a101956ab8f8d9d7ded63fa7a83b16fc47648eab05b838510611c2357505050508101602001610bf382610ae886610be2565b8054868601840152938201938101611c06565b9050346101ef57816003193601126101ef578035611c52612383565b611c5a613162565b611c626131bc565b811561232657335f527f52c63247e1f47db19d5ce0460030c497f067ca4cebf71ba98eeadabe20bace0060209181835283865f2054106122ca576001600160a01b03918260015416948751907f313ce567000000000000000000000000000000000000000000000000000000008252858289818a5afa9182156120fe575f926122ab575b50885186816024817f70a08231000000000000000000000000000000000000000000000000000000009b8c82528d30908301525afa9081156121ce575f9161227e575b5086865f54169860248c51809b819382528d30908301525afa9788156121ce575f9861224d575b50611d6a611d7191611d646110ca8661254e565b9061259d565b978261259d565b611db17f52c63247e1f47db19d5ce0460030c497f067ca4cebf71ba98eeadabe20bace0291611dac611da5845480936125b0565b9a8561259d565b6125b0565b93331561221e57335f528088528a5f2054908382106121d857836110ca938d611e1b96611e219998955f958e3388525203908420558181540390558c519081527fddf252ad1be2c89b69c2b068fc378daa952ba7f163c4a11628f55a4df523b3ef8a3392a361254e565b906125b0565b9085611e2c86613211565b5f86611e8a87835416611e3f858c6125e7565b8d519485809481938b7fa9059cbb000000000000000000000000000000000000000000000000000000009b8c85528401602090939291936001600160a01b0360408201951681520152565b03925af180156121ce576121b1575b50611ea381613211565b92898660025416948151957f04cc732500000000000000000000000000000000000000000000000000000000875289878d81845afa968715612169578c918b915f99612192575b508451928380927f3b19e84a0000000000000000000000000000000000000000000000000000000082525afa94851561216957878b918e935f98612173575b50611f38858d5f5416926125e7565b935f8a611f6689519788968795869485528401602090939291936001600160a01b0360408201951681520152565b03925af180156121695761214c575b508884895f54168d5f89611faa88519788968795869485528401602090939291936001600160a01b0360408201951681520152565b03925af1801561077b57612006978a928d9261212f575b50611fcb81613211565b945f611fdc878d60015416946125e7565b9386519b8c95869485938d85528401602090939291936001600160a01b0360408201951681520152565b03925af191821561212557612060968993612108575b5061202681613211565b955f8c612037898c845416956125e7565b9451998a95869485938b85528401602090939291936001600160a01b0360408201951681520152565b03925af180156120fe576120a59587955f926120e1575b50815416928a519687958694859384528c8401602090939291936001600160a01b0360408201951681520152565b03925af180156107b2576111709495506120c3575b505082546125e7565b816120d992903d106107ab5761079c8183612439565b505f806120ba565b6120f790873d89116107ab5761079c8183612439565b505f612077565b89513d5f823e3d90fd5b61211e90843d86116107ab5761079c8183612439565b505f61201c565b50513d5f823e3d90fd5b61214590843d86116107ab5761079c8183612439565b505f611fc1565b612162908a3d8c116107ab5761079c8183612439565b505f611f75565b83513d5f823e3d90fd5b61218b919850833d85116107e2576107d48183612439565b965f611f29565b6121aa919950823d84116107e2576107d48183612439565b975f611eea565b6121c790873d89116107ab5761079c8183612439565b505f611e99565b8a513d5f823e3d90fd5b508a517fe450d38c00000000000000000000000000000000000000000000000000000000815233818c019081526020810192909252604082018490529081906060010390fd5b60248a5f8d51917f96c6fd1e000000000000000000000000000000000000000000000000000000008352820152fd5b9097508681813d8311612277575b6122658183612439565b810103126101ef575196611d6a611d50565b503d61225b565b90508681813d83116122a4575b6122958183612439565b810103126101ef57515f611d29565b503d61228b565b6122c3919250863d88116111ed576111df8183612439565b905f611ce6565b606485848851917f08c379a0000000000000000000000000000000000000000000000000000000008352820152601460248201527f496e73756666696369656e742062616c616e63650000000000000000000000006044820152fd5b60648360208651917f08c379a0000000000000000000000000000000000000000000000000000000008352820152602060248201527f536861726573206d7573742062652067726561746572207468616e207a65726f6044820152fd5b602435906001600160a01b03821682036101ef57565b600435906001600160a01b03821682036101ef57565b604435906001600160a01b03821682036101ef57565b606435906001600160a01b03821682036101ef57565b608435906001600160a01b03821682036101ef57565b7fffffffffffffffffffffffffffffffffffffffffffffffffffffffffffffffe0601f602060409481855280519182918282880152018686015e5f8582860101520116010190565b90601f7fffffffffffffffffffffffffffffffffffffffffffffffffffffffffffffffe0910116810190811067ffffffffffffffff82111761247a57604052565b7f4e487b71000000000000000000000000000000000000000000000000000000005f52604160045260245ffd5b67ffffffffffffffff811161247a57601f017fffffffffffffffffffffffffffffffffffffffffffffffffffffffffffffffe01660200190565b9291926124ed826124a7565b916124fb6040519384612439565b8294818452818301116101ef578281602093845f960137010152565b9080601f830112156101ef57816020612532933591016124e1565b90565b908160209103126101ef575160ff811681036101ef5790565b60ff166012039060ff821161255f57565b7f4e487b71000000000000000000000000000000000000000000000000000000005f52601160045260245ffd5b60ff16604d811161255f57600a0a90565b8181029291811591840414171561255f57565b81156125ba570490565b7f4e487b71000000000000000000000000000000000000000000000000000000005f52601260045260245ffd5b9190820391821161255f57565b908160209103126101ef575180151581036101ef5790565b908160209103126101ef57516001600160a01b03811681036101ef5790565b90600182811c92168015612672575b602083101461264557565b7f4e487b71000000000000000000000000000000000000000000000000000000005f52602260045260245ffd5b91607f169161263a565b9190820180921161255f57565b6001600160a01b0380600254169060409081517fbb3ba04c00000000000000000000000000000000000000000000000000000000815260209260049184818481895afa90811561077b5784849287925f9161297c575b5016968351948580927f1bf01e9b0000000000000000000000000000000000000000000000000000000082525afa92831561077b575f9361295d575b50835f5416948251957f70a08231000000000000000000000000000000000000000000000000000000009788885230848901528288602481855afa9788156107b2575f9861292e575b508660015416938551998a5230818b0152838a602481885afa998a156128df575f9a6128ff575b508815806128f7575b6128e95785517f248391ff000000000000000000000000000000000000000000000000000000008082526001600160a01b039687168383019081529689166020880152604087019b909b52948490869081906060010381855afa9485156128df575f956128b0575b508497871683145f1461281a5750505050505050612532925061267c565b9193965091949761285785988796519a8b9687958695865285016040919493929460608201956001600160a01b0380921683521660208201520152565b03915afa9283156128a757505f92612875575b50612532925061267c565b90915082813d83116128a0575b61288c8183612439565b810103126101ef576125329151905f61286a565b503d612882565b513d5f823e3d90fd5b9094508381813d83116128d8575b6128c88183612439565b810103126101ef5751935f6127fc565b503d6128be565b86513d5f823e3d90fd5b505050505050505050505f90565b508915612794565b9099508381813d8311612927575b6129178183612439565b810103126101ef5751985f61278b565b503d61290d565b9097508281813d8311612956575b6129468183612439565b810103126101ef5751965f612764565b503d61293c565b612975919350853d87116107e2576107d48183612439565b915f61271b565b6129939150833d85116107e2576107d48183612439565b5f6126df565b6129a16134b4565b6129a96134b4565b6129b2336130ae565b6129ba6134b4565b6129c26134b4565b80519067ffffffffffffffff9182811161247a577f52c63247e1f47db19d5ce0460030c497f067ca4cebf71ba98eeadabe20bace039080612a03835461262b565b93601f94858111612e56575b50602090858311600114612d9a575f92612d8f575b50507fffffffffffffffffffffffffffffffffffffffffffffffffffffffffffffffff8260011b9260031b1c19161790555b825191821161247a5781907f52c63247e1f47db19d5ce0460030c497f067ca4cebf71ba98eeadabe20bace0493612a8d855461262b565b828111612d21575b506020918311600114612c65575f92612c5a575b50507fffffffffffffffffffffffffffffffffffffffffffffffffffffffffffffffff8260011b9260031b1c19161790555b612ae36134b4565b612aeb6134b4565b612af36134b4565b60017f9b779b17422d0df92223018b32b4d1fa46e071723d6817e2486d003becc55f0055612b1f6134b4565b612b276134b4565b7fcd5ed15c6e187e77e9aee88184c21f4f2182ab5827cb3b7e07fbedcd63f033007fffffffffffffffffffffffffffffffffffffffffffffffffffffffffffffff0081541690556001600160a01b0380911692817fffffffffffffffffffffffff00000000000000000000000000000000000000009385855f5416175f55168360015416176001551690600254161760025561016890828202918204830361255f5760049260209260075560085543600555604051928380927f313ce5670000000000000000000000000000000000000000000000000000000082525afa8015612c4f57612c1c915f91612c30575b5061258c565b612710908082029182040361255f57600655565b612c49915060203d6020116111ed576111df8183612439565b5f612c16565b6040513d5f823e3d90fd5b015190505f80612aa9565b5f8581527f46a2803e59a4de4e7a4c574b1243f25977ac4c77d5a1a4a609b5394cebb4a2aa937fffffffffffffffffffffffffffffffffffffffffffffffffffffffffffffffe016905b818110612d095750908460019594939210612cd2575b505050811b019055612adb565b01517fffffffffffffffffffffffffffffffffffffffffffffffffffffffffffffffff60f88460031b161c191690555f8080612cc5565b92936020600181928786015181550195019301612caf565b90919250845f527f46a2803e59a4de4e7a4c574b1243f25977ac4c77d5a1a4a609b5394cebb4a2aa8380860160051c82019260208710612d86575b94869594939291940160051c01905b818110612d785750612a95565b5f8155859450600101612d6b565b92508192612d5c565b015190505f80612a24565b5f8581527f2ae08a8e29253f69ac5d979a101956ab8f8d9d7ded63fa7a83b16fc47648eab0937fffffffffffffffffffffffffffffffffffffffffffffffffffffffffffffffe016905b818110612e3e5750908460019594939210612e07575b505050811b019055612a56565b01517fffffffffffffffffffffffffffffffffffffffffffffffffffffffffffffffff60f88460031b161c191690555f8080612dfa565b92936020600181928786015181550195019301612de4565b909150835f527f2ae08a8e29253f69ac5d979a101956ab8f8d9d7ded63fa7a83b16fc47648eab08580850160051c82019260208610612eb8575b9085949392910160051c01905b818110612eaa5750612a0f565b5f8155849350600101612e9d565b92508192612e90565b602460206001600160a01b035f5416604051928380927f70a082310000000000000000000000000000000000000000000000000000000082523060048301525afa908115612c4f575f91612f42575b50612f24612f2d91611d64600554436125e7565b600754906125b0565b6006549081811115612f3d575090565b905090565b90506020813d602011612f6e575b81612f5d60209383612439565b810103126101ef5751612f24612f10565b3d9150612f50565b7f52c63247e1f47db19d5ce0460030c497f067ca4cebf71ba98eeadabe20bace025480156130a9576001600160a01b0380600254169060405180927f1bf01e9b00000000000000000000000000000000000000000000000000000000825281600460209586935afa8015612c4f5783915f9161308c575b506004604051809481937f313ce567000000000000000000000000000000000000000000000000000000008352165afa918215612c4f5761304b9261303e926110ca925f9261306f575b505061254e565b613046612689565b61259d565b90670de0b6b3a76400009182810292818404149015171561255f57612532916125b0565b6130859250803d106111ed576111df8183612439565b5f80613037565b6130a39150823d84116107e2576107d48183612439565b5f612fed565b505f90565b6001600160a01b03809116908115613132577f9016d09d72d40fdae2fd8ceac6b6234c7706214fd39c1cd1e609a0528c199300805490837fffffffffffffffffffffffff00000000000000000000000000000000000000008316179055167f8be0079c531659141344cd1fd0a4f28419497f9722a3daafe3b4186f6b6457e05f80a3565b60246040517f1e4fbdf70000000000000000000000000000000000000000000000000000000081525f6004820152fd5b7f9b779b17422d0df92223018b32b4d1fa46e071723d6817e2486d003becc55f0060028154146131925760029055565b60046040517f3ee5aeb5000000000000000000000000000000000000000000000000000000008152fd5b60ff7fcd5ed15c6e187e77e9aee88184c21f4f2182ab5827cb3b7e07fbedcd63f0330054166131e757565b60046040517fd93c0665000000000000000000000000000000000000000000000000000000008152fd5b6001600160a01b0360025416604051917f85462d6f0000000000000000000000000000000000000000000000000000000083526020918284600481845afa938415612c4f575f946132dd575b5082600491604051928380927f4f4608a20000000000000000000000000000000000000000000000000000000082525afa928315612c4f575f936132ab575b505061253292611dac9161259d565b9080929350813d83116132d6575b6132c38183612439565b810103126101ef57519082611dac61329c565b503d6132b9565b9093508281813d8311613305575b6132f58183612439565b810103126101ef5751928261325d565b503d6132eb565b6001600160a01b037f9016d09d72d40fdae2fd8ceac6b6234c7706214fd39c1cd1e609a0528c1993005416330361333f57565b60246040517f118cdaa7000000000000000000000000000000000000000000000000000000008152336004820152fd5b916001600160a01b03808416928315613484571692831561345457825f527f52c63247e1f47db19d5ce0460030c497f067ca4cebf71ba98eeadabe20bace008060205260405f205491838310613408575091806020927fddf252ad1be2c89b69c2b068fc378daa952ba7f163c4a11628f55a4df523b3ef94865f5284520360405f2055845f5260405f20818154019055604051908152a3565b6040517fe450d38c0000000000000000000000000000000000000000000000000000000081526001600160a01b0391909116600482015260248101929092525060448101829052606490fd5b60246040517fec442f050000000000000000000000000000000000000000000000000000000081525f6004820152fd5b60246040517f96c6fd1e0000000000000000000000000000000000000000000000000000000081525f6004820152fd5b60ff7ff0c57e16840df040f15088dc2f81fe391c3923bec73e23a9662efc9c229c6a005460401c16156134e357565b60046040517fd7e6bcf8000000000000000000000000000000000000000000000000000000008152fd5b9061354c575080511561352257805190602001fd5b60046040517f1425ea42000000000000000000000000000000000000000000000000000000008152fd5b81511580613597575b61355d575090565b6024906001600160a01b03604051917f9996b315000000000000000000000000000000000000000000000000000000008352166004820152fd5b50803b1561355556fea264697066735822122030a2e456cb80e13d30bb3a9e1b451dd510494e2a522a2eb126b91ae802b3cfee64736f6c63430008190033","opcodes":"PUSH1 0xA0 DUP1 PUSH1 0x40 MSTORE CALLVALUE PUSH1 0x29 JUMPI ADDRESS PUSH1 0x80 MSTORE PUSH2 0x35D6 SWAP1 DUP2 PUSH2 0x2E DUP3 CODECOPY PUSH1 0x80 MLOAD DUP2 DUP2 DUP2 PUSH2 0x1357 ADD MSTORE PUSH2 0x143C ADD MSTORE RETURN JUMPDEST PUSH0 DUP1 REVERT INVALID PUSH1 0x40 PUSH1 0x80 DUP2 MSTORE PUSH1 0x4 DUP1 CALLDATASIZE LT ISZERO PUSH2 0x13 JUMPI PUSH0 DUP1 REVERT JUMPDEST PUSH0 CALLDATALOAD PUSH1 0xE0 SHR SWAP1 DUP2 PUSH3 0xF714CE EQ PUSH2 0x1C36 JUMPI DUP2 PUSH4 0x6FDDE03 EQ PUSH2 0x1B70 JUMPI DUP2 PUSH4 0x95EA7B3 EQ PUSH2 0x1A66 JUMPI DUP2 PUSH4 0x18160DDD EQ PUSH2 0x1A29 JUMPI DUP2 PUSH4 0x1E1BFF3F EQ PUSH2 0x19B6 JUMPI DUP2 PUSH4 0x23B872DD EQ PUSH2 0x17FA JUMPI DUP2 PUSH4 0x295B9300 EQ PUSH2 0x17DE JUMPI DUP2 PUSH4 0x313CE567 EQ PUSH2 0x17C3 JUMPI DUP2 PUSH4 0x36B77107 EQ PUSH2 0x17A7 JUMPI DUP2 PUSH4 0x3F4BA83A EQ PUSH2 0x16E8 JUMPI DUP2 PUSH4 0x4F1EF286 EQ PUSH2 0x13EA JUMPI DUP2 PUSH4 0x4FE84C42 EQ PUSH2 0x13CC JUMPI DUP2 PUSH4 0x52D1902D EQ PUSH2 0x133C JUMPI DUP2 PUSH4 0x5C975ABB EQ PUSH2 0x12FA JUMPI DUP2 PUSH4 0x6E553F65 EQ PUSH2 0xE8A JUMPI DUP2 PUSH4 0x70A08231 EQ PUSH2 0xE34 JUMPI DUP2 PUSH4 0x715018A6 EQ PUSH2 0xDA3 JUMPI DUP2 PUSH4 0x7B103999 EQ PUSH2 0xD7C JUMPI DUP2 PUSH4 0x8456CB59 EQ PUSH2 0xCE6 JUMPI DUP2 PUSH4 0x8DA5CB5B EQ PUSH2 0xCA0 JUMPI DUP2 PUSH4 0x95D89B41 EQ PUSH2 0xB84 JUMPI DUP2 PUSH4 0x9AC2A011 EQ PUSH2 0xB48 JUMPI DUP2 PUSH4 0xA9059CBB EQ PUSH2 0xB18 JUMPI DUP2 PUSH4 0xAD3CB1CC EQ PUSH2 0xA83 JUMPI DUP2 PUSH4 0xB3404EFD EQ PUSH2 0xA65 JUMPI DUP2 PUSH4 0xBC4BA731 EQ PUSH2 0xA47 JUMPI DUP2 PUSH4 0xC80B0BAF EQ PUSH2 0x8D2 JUMPI DUP2 PUSH4 0xCDF456E1 EQ PUSH2 0x8AC JUMPI DUP2 PUSH4 0xD53419A3 EQ PUSH2 0x57A JUMPI DUP2 PUSH4 0xD9D47D69 EQ PUSH2 0x55E JUMPI DUP2 PUSH4 0xDB48A5E3 EQ PUSH2 0x540 JUMPI DUP2 PUSH4 0xDD62ED3E EQ PUSH2 0x4C9 JUMPI DUP2 PUSH4 0xE73FAA2D EQ PUSH2 0x4A6 JUMPI DUP2 PUSH4 0xEDF3E29E EQ PUSH2 0x2E4 JUMPI DUP2 PUSH4 0xF267D91B EQ PUSH2 0x29D JUMPI DUP2 PUSH4 0xF2FDE38B EQ PUSH2 0x272 JUMPI DUP2 PUSH4 0xF661AF29 EQ PUSH2 0x211 JUMPI POP DUP1 PUSH4 0xF7FDE10F EQ PUSH2 0x1F3 JUMPI PUSH4 0xFDF262B7 EQ PUSH2 0x1C9 JUMPI PUSH0 DUP1 REVERT JUMPDEST CALLVALUE PUSH2 0x1EF JUMPI PUSH0 PUSH1 0x3 NOT CALLDATASIZE ADD SLT PUSH2 0x1EF JUMPI PUSH1 0x20 SWAP1 PUSH1 0x1 PUSH1 0x1 PUSH1 0xA0 SHL SUB PUSH1 0x1 SLOAD AND SWAP1 MLOAD SWAP1 DUP2 MSTORE RETURN JUMPDEST PUSH0 DUP1 REVERT JUMPDEST POP CALLVALUE PUSH2 0x1EF JUMPI PUSH0 PUSH1 0x3 NOT CALLDATASIZE ADD SLT PUSH2 0x1EF JUMPI PUSH1 0x20 SWAP1 PUSH1 0x3 SLOAD SWAP1 MLOAD SWAP1 DUP2 MSTORE RETURN JUMPDEST CALLVALUE PUSH2 0x1EF JUMPI PUSH1 0x20 PUSH1 0x3 NOT CALLDATASIZE ADD SLT PUSH2 0x1EF JUMPI DUP1 CALLDATALOAD SWAP1 PUSH2 0x22D PUSH2 0x330C JUMP JUMPDEST DUP2 PUSH1 0x8 SSTORE PUSH2 0x168 SWAP2 DUP1 DUP4 MUL SWAP3 DUP4 DIV SUB PUSH2 0x246 JUMPI POP PUSH1 0x7 SSTORE STOP JUMPDEST PUSH1 0x11 SWAP1 PUSH32 0x4E487B7100000000000000000000000000000000000000000000000000000000 PUSH0 MSTORE MSTORE PUSH1 0x24 PUSH0 REVERT JUMPDEST CALLVALUE PUSH2 0x1EF JUMPI PUSH1 0x20 PUSH1 0x3 NOT CALLDATASIZE ADD SLT PUSH2 0x1EF JUMPI PUSH2 0x29B PUSH2 0x28E PUSH2 0x2399 JUMP JUMPDEST PUSH2 0x296 PUSH2 0x330C JUMP JUMPDEST PUSH2 0x30AE JUMP JUMPDEST STOP JUMPDEST DUP3 CALLVALUE PUSH2 0x1EF JUMPI PUSH0 PUSH1 0x3 NOT CALLDATASIZE ADD SLT PUSH2 0x1EF JUMPI PUSH1 0x20 SWAP1 PUSH2 0x2B9 PUSH2 0x2EC1 JUMP JUMPDEST SWAP1 PUSH2 0x2C6 PUSH1 0x5 SLOAD NUMBER PUSH2 0x25E7 JUMP JUMPDEST PUSH1 0x8 SLOAD LT SWAP2 DUP3 PUSH2 0x2DA JUMPI JUMPDEST POP MLOAD SWAP1 ISZERO ISZERO DUP2 MSTORE RETURN JUMPDEST ISZERO ISZERO SWAP2 POP DUP4 PUSH2 0x2D1 JUMP JUMPDEST DUP3 CALLVALUE PUSH2 0x1EF JUMPI PUSH1 0xC0 PUSH1 0x3 NOT CALLDATASIZE ADD SLT PUSH2 0x1EF JUMPI PUSH8 0xFFFFFFFFFFFFFFFF DUP3 CALLDATALOAD DUP2 DUP2 GT PUSH2 0x1EF JUMPI PUSH2 0x315 SWAP1 CALLDATASIZE SWAP1 DUP6 ADD PUSH2 0x2517 JUMP JUMPDEST SWAP1 PUSH1 0x24 CALLDATALOAD DUP2 DUP2 GT PUSH2 0x1EF JUMPI PUSH2 0x32D SWAP1 CALLDATASIZE SWAP1 DUP7 ADD PUSH2 0x2517 JUMP JUMPDEST SWAP2 PUSH2 0x336 PUSH2 0x23AF JUMP JUMPDEST PUSH2 0x33E PUSH2 0x23C5 JUMP JUMPDEST PUSH2 0x346 PUSH2 0x23DB JUMP JUMPDEST SWAP2 PUSH32 0xF0C57E16840DF040F15088DC2F81FE391C3923BEC73E23A9662EFC9C229C6A00 SWAP6 DUP7 SLOAD PUSH1 0xFF DUP2 DUP11 SHR AND ISZERO SWAP7 DUP2 AND DUP1 ISZERO SWAP1 DUP2 PUSH2 0x49E JUMPI JUMPDEST PUSH1 0x1 EQ SWAP1 DUP2 PUSH2 0x494 JUMPI JUMPDEST ISZERO SWAP1 DUP2 PUSH2 0x48B JUMPI JUMPDEST POP PUSH2 0x463 JUMPI DUP7 PUSH2 0x3D5 SWAP8 SWAP9 SWAP10 SWAP11 POP PUSH1 0x1 PUSH32 0xFFFFFFFFFFFFFFFFFFFFFFFFFFFFFFFFFFFFFFFFFFFFFFFF0000000000000000 DUP4 AND OR DUP11 SSTORE PUSH2 0x42E JUMPI JUMPDEST POP PUSH1 0xA4 CALLDATALOAD SWAP5 PUSH2 0x2999 JUMP JUMPDEST PUSH2 0x3DB JUMPI STOP JUMPDEST PUSH32 0xC7F505B2F371AE2175EE4913F4499E1F2633A7B5936321EED1CDAEB6115181D2 SWAP2 DUP2 PUSH32 0xFFFFFFFFFFFFFFFFFFFFFFFFFFFFFFFFFFFFFFFFFFFFFF00FFFFFFFFFFFFFFFF PUSH1 0x20 SWAP4 SLOAD AND SWAP1 SSTORE MLOAD PUSH1 0x1 DUP2 MSTORE LOG1 STOP JUMPDEST PUSH32 0xFFFFFFFFFFFFFFFFFFFFFFFFFFFFFFFFFFFFFFFFFFFFFF000000000000000000 AND PUSH9 0x10000000000000001 OR DUP9 SSTORE DUP10 PUSH2 0x3CB JUMP JUMPDEST DUP10 DUP10 MLOAD PUSH32 0xF92EE8A900000000000000000000000000000000000000000000000000000000 DUP2 MSTORE REVERT JUMPDEST SWAP1 POP ISZERO DUP12 PUSH2 0x390 JUMP JUMPDEST ADDRESS EXTCODESIZE ISZERO SWAP2 POP PUSH2 0x388 JUMP JUMPDEST DUP9 SWAP2 POP PUSH2 0x37E JUMP JUMPDEST DUP3 CALLVALUE PUSH2 0x1EF JUMPI PUSH0 PUSH1 0x3 NOT CALLDATASIZE ADD SLT PUSH2 0x1EF JUMPI PUSH1 0x20 SWAP1 PUSH2 0x4C2 PUSH2 0x2F76 JUMP JUMPDEST SWAP1 MLOAD SWAP1 DUP2 MSTORE RETURN JUMPDEST DUP3 CALLVALUE PUSH2 0x1EF JUMPI DUP1 PUSH1 0x3 NOT CALLDATASIZE ADD SLT PUSH2 0x1EF JUMPI PUSH1 0x20 SWAP1 PUSH2 0x4E5 PUSH2 0x2399 JUMP JUMPDEST PUSH1 0x1 PUSH1 0x1 PUSH1 0xA0 SHL SUB PUSH2 0x52F PUSH2 0x4F8 PUSH2 0x2383 JUMP JUMPDEST SWAP3 PUSH1 0x1 PUSH1 0x1 PUSH1 0xA0 SHL SUB AND PUSH0 MSTORE PUSH32 0x52C63247E1F47DB19D5CE0460030C497F067CA4CEBF71BA98EEADABE20BACE01 PUSH1 0x20 MSTORE PUSH1 0x40 PUSH0 KECCAK256 SWAP1 JUMP JUMPDEST SWAP2 AND PUSH0 MSTORE DUP3 MSTORE DUP1 PUSH0 KECCAK256 SLOAD SWAP1 MLOAD SWAP1 DUP2 MSTORE RETURN JUMPDEST DUP3 CALLVALUE PUSH2 0x1EF JUMPI PUSH0 PUSH1 0x3 NOT CALLDATASIZE ADD SLT PUSH2 0x1EF JUMPI PUSH1 0x20 SWAP1 PUSH1 0x6 SLOAD SWAP1 MLOAD SWAP1 DUP2 MSTORE RETURN JUMPDEST DUP3 CALLVALUE PUSH2 0x1EF JUMPI PUSH0 PUSH1 0x3 NOT CALLDATASIZE ADD SLT PUSH2 0x1EF JUMPI PUSH1 0x20 SWAP1 PUSH2 0x4C2 PUSH2 0x2EC1 JUMP JUMPDEST SWAP1 POP CALLVALUE PUSH2 0x1EF JUMPI PUSH0 PUSH1 0x3 NOT CALLDATASIZE ADD SLT PUSH2 0x1EF JUMPI PUSH2 0x594 PUSH2 0x3162 JUMP JUMPDEST PUSH2 0x59C PUSH2 0x31BC JUMP JUMPDEST PUSH2 0x5A8 PUSH1 0x5 SLOAD NUMBER PUSH2 0x25E7 JUMP JUMPDEST PUSH1 0x8 SLOAD LT ISZERO PUSH2 0x850 JUMPI PUSH2 0x5B9 PUSH2 0x2EC1 JUMP JUMPDEST SWAP2 DUP3 ISZERO PUSH2 0x7F3 JUMPI PUSH1 0x1 PUSH1 0x1 PUSH1 0xA0 SHL SUB DUP1 PUSH1 0x2 SLOAD AND SWAP1 DUP3 MLOAD DUP1 SWAP3 PUSH32 0x82755EBB00000000000000000000000000000000000000000000000000000000 DUP3 MSTORE DUP2 DUP7 PUSH1 0x20 SWAP6 DUP7 SWAP4 GAS STATICCALL SWAP1 DUP2 ISZERO PUSH2 0x7E9 JUMPI SWAP1 DUP3 SWAP2 PUSH0 SWAP2 PUSH2 0x7BC JUMPI JUMPDEST POP AND SWAP4 DUP2 PUSH0 SLOAD AND DUP4 DUP6 MLOAD DUP1 SWAP3 PUSH32 0x95EA7B300000000000000000000000000000000000000000000000000000000 DUP3 MSTORE DUP2 PUSH0 DUP2 PUSH2 0x664 DUP14 DUP14 DUP11 DUP5 ADD PUSH1 0x20 SWAP1 SWAP4 SWAP3 SWAP2 SWAP4 PUSH1 0x1 PUSH1 0x1 PUSH1 0xA0 SHL SUB PUSH1 0x40 DUP3 ADD SWAP6 AND DUP2 MSTORE ADD MSTORE JUMP JUMPDEST SUB SWAP3 GAS CALL DUP1 ISZERO PUSH2 0x7B2 JUMPI SWAP2 PUSH1 0x84 SWAP2 DUP6 SWAP5 SWAP4 PUSH2 0x785 JUMPI JUMPDEST POP PUSH0 DUP4 DUP2 SLOAD AND SWAP4 PUSH1 0x1 SLOAD AND SWAP8 DUP8 MLOAD SWAP9 DUP10 SWAP6 DUP7 SWAP5 PUSH32 0x2D6BC8EA00000000000000000000000000000000000000000000000000000000 DUP7 MSTORE DUP6 ADD MSTORE PUSH1 0x24 DUP5 ADD MSTORE DUP10 PUSH1 0x44 DUP5 ADD MSTORE ADDRESS PUSH1 0x64 DUP5 ADD MSTORE GAS CALL SWAP1 DUP2 ISZERO PUSH2 0x77B JUMPI PUSH0 SWAP2 PUSH2 0x72C JUMPI JUMPDEST PUSH32 0x129AC658E77B551B004790E5BD957532CEF552C50852A1EE0E38DD3E23FE85DB SWAP4 POP NUMBER PUSH1 0x5 SSTORE DUP3 MLOAD SWAP5 DUP6 MSTORE DUP5 ADD MSTORE CALLER SWAP3 LOG2 PUSH1 0x1 PUSH32 0x9B779B17422D0DF92223018B32B4D1FA46E071723D6817E2486D003BECC55F00 SSTORE STOP JUMPDEST DUP1 SWAP2 POP DUP4 DUP2 RETURNDATASIZE DUP4 GT PUSH2 0x774 JUMPI JUMPDEST PUSH2 0x743 DUP2 DUP4 PUSH2 0x2439 JUMP JUMPDEST DUP2 ADD SUB SLT PUSH2 0x1EF JUMPI PUSH32 0x129AC658E77B551B004790E5BD957532CEF552C50852A1EE0E38DD3E23FE85DB SWAP3 MLOAD SWAP1 PUSH2 0x6D4 JUMP JUMPDEST POP RETURNDATASIZE PUSH2 0x739 JUMP JUMPDEST DUP3 MLOAD RETURNDATASIZE PUSH0 DUP3 RETURNDATACOPY RETURNDATASIZE SWAP1 REVERT JUMPDEST PUSH2 0x7A4 SWAP1 DUP6 RETURNDATASIZE DUP8 GT PUSH2 0x7AB JUMPI JUMPDEST PUSH2 0x79C DUP2 DUP4 PUSH2 0x2439 JUMP JUMPDEST DUP2 ADD SWAP1 PUSH2 0x25F4 JUMP JUMPDEST POP PUSH0 PUSH2 0x67A JUMP JUMPDEST POP RETURNDATASIZE PUSH2 0x792 JUMP JUMPDEST DUP6 MLOAD RETURNDATASIZE PUSH0 DUP3 RETURNDATACOPY RETURNDATASIZE SWAP1 REVERT JUMPDEST PUSH2 0x7DC SWAP2 POP DUP5 RETURNDATASIZE DUP7 GT PUSH2 0x7E2 JUMPI JUMPDEST PUSH2 0x7D4 DUP2 DUP4 PUSH2 0x2439 JUMP JUMPDEST DUP2 ADD SWAP1 PUSH2 0x260C JUMP JUMPDEST PUSH0 PUSH2 0x60F JUMP JUMPDEST POP RETURNDATASIZE PUSH2 0x7CA JUMP JUMPDEST DUP5 MLOAD RETURNDATASIZE PUSH0 DUP3 RETURNDATACOPY RETURNDATASIZE SWAP1 REVERT JUMPDEST SWAP1 PUSH1 0x20 PUSH1 0x64 SWAP3 MLOAD SWAP2 PUSH32 0x8C379A000000000000000000000000000000000000000000000000000000000 DUP4 MSTORE DUP3 ADD MSTORE PUSH1 0xF PUSH1 0x24 DUP3 ADD MSTORE PUSH32 0x4E6F7468696E6720746F20737761700000000000000000000000000000000000 PUSH1 0x44 DUP3 ADD MSTORE REVERT JUMPDEST PUSH1 0x20 PUSH1 0x64 SWAP3 MLOAD SWAP2 PUSH32 0x8C379A000000000000000000000000000000000000000000000000000000000 DUP4 MSTORE DUP3 ADD MSTORE PUSH1 0x1D PUSH1 0x24 DUP3 ADD MSTORE PUSH32 0x776169742074696C6C206E657874207265696E76657374206379636C65000000 PUSH1 0x44 DUP3 ADD MSTORE REVERT JUMPDEST DUP3 CALLVALUE PUSH2 0x1EF JUMPI PUSH0 PUSH1 0x3 NOT CALLDATASIZE ADD SLT PUSH2 0x1EF JUMPI PUSH1 0x20 SWAP1 PUSH1 0x1 PUSH1 0x1 PUSH1 0xA0 SHL SUB PUSH0 SLOAD AND SWAP1 MLOAD SWAP1 DUP2 MSTORE RETURN JUMPDEST DUP3 CALLVALUE PUSH2 0x1EF JUMPI PUSH1 0xE0 PUSH1 0x3 NOT CALLDATASIZE ADD SLT PUSH2 0x1EF JUMPI PUSH8 0xFFFFFFFFFFFFFFFF SWAP2 DUP1 CALLDATALOAD DUP4 DUP2 GT PUSH2 0x1EF JUMPI PUSH2 0x904 SWAP1 CALLDATASIZE SWAP1 DUP4 ADD PUSH2 0x2517 JUMP JUMPDEST PUSH1 0x24 CALLDATALOAD DUP5 DUP2 GT PUSH2 0x1EF JUMPI PUSH2 0x91B SWAP1 CALLDATASIZE SWAP1 DUP5 ADD PUSH2 0x2517 JUMP JUMPDEST PUSH2 0x923 PUSH2 0x23AF JUMP JUMPDEST PUSH2 0x92B PUSH2 0x23C5 JUMP JUMPDEST SWAP1 PUSH2 0x934 PUSH2 0x23DB JUMP JUMPDEST SWAP3 PUSH1 0xC4 CALLDATALOAD SWAP8 DUP1 DUP10 AND DUP1 SWAP10 SUB PUSH2 0x1EF JUMPI PUSH32 0xF0C57E16840DF040F15088DC2F81FE391C3923BEC73E23A9662EFC9C229C6A00 SWAP7 DUP8 SLOAD SWAP2 DUP11 PUSH1 0xFF DUP5 DUP13 SHR AND SWAP2 DUP3 ISZERO PUSH2 0xA3A JUMPI JUMPDEST POP POP PUSH2 0xA13 JUMPI PUSH32 0xC7F505B2F371AE2175EE4913F4499E1F2633A7B5936321EED1CDAEB6115181D2 PUSH1 0x20 DUP12 DUP12 DUP12 PUSH2 0x9E6 DUP13 DUP13 DUP13 DUP13 DUP13 PUSH9 0x10000000000000000 DUP10 PUSH32 0xFFFFFFFFFFFFFFFFFFFFFFFFFFFFFFFFFFFFFFFFFFFFFF000000000000000000 DUP16 AND OR OR DUP8 SSTORE PUSH1 0xA4 CALLDATALOAD SWAP5 PUSH2 0x2999 JUMP JUMPDEST PUSH32 0xFFFFFFFFFFFFFFFFFFFFFFFFFFFFFFFFFFFFFFFFFFFFFF00FFFFFFFFFFFFFFFF DUP2 SLOAD AND SWAP1 SSTORE MLOAD SWAP1 DUP2 MSTORE LOG1 STOP JUMPDEST DUP9 MLOAD PUSH32 0xF92EE8A900000000000000000000000000000000000000000000000000000000 DUP2 MSTORE REVERT JUMPDEST DUP5 AND LT ISZERO SWAP1 POP DUP11 DUP13 PUSH2 0x977 JUMP JUMPDEST DUP3 CALLVALUE PUSH2 0x1EF JUMPI PUSH0 PUSH1 0x3 NOT CALLDATASIZE ADD SLT PUSH2 0x1EF JUMPI PUSH1 0x20 SWAP1 PUSH1 0x5 SLOAD SWAP1 MLOAD SWAP1 DUP2 MSTORE RETURN JUMPDEST DUP3 CALLVALUE PUSH2 0x1EF JUMPI PUSH0 PUSH1 0x3 NOT CALLDATASIZE ADD SLT PUSH2 0x1EF JUMPI PUSH1 0x20 SWAP1 PUSH1 0x7 SLOAD SWAP1 MLOAD SWAP1 DUP2 MSTORE RETURN JUMPDEST DUP3 CALLVALUE PUSH2 0x1EF JUMPI PUSH0 PUSH1 0x3 NOT CALLDATASIZE ADD SLT PUSH2 0x1EF JUMPI DUP1 MLOAD SWAP1 DUP1 DUP3 ADD DUP3 DUP2 LT PUSH8 0xFFFFFFFFFFFFFFFF DUP3 GT OR PUSH2 0xAEC JUMPI PUSH2 0xAE8 SWAP4 POP DUP2 MSTORE PUSH1 0x5 DUP3 MSTORE PUSH32 0x352E302E30000000000000000000000000000000000000000000000000000000 PUSH1 0x20 DUP4 ADD MSTORE MLOAD SWAP2 DUP3 SWAP2 DUP3 PUSH2 0x23F1 JUMP JUMPDEST SUB SWAP1 RETURN JUMPDEST PUSH1 0x41 DUP5 PUSH32 0x4E487B7100000000000000000000000000000000000000000000000000000000 PUSH0 MSTORE MSTORE PUSH1 0x24 PUSH0 REVERT JUMPDEST DUP3 CALLVALUE PUSH2 0x1EF JUMPI DUP1 PUSH1 0x3 NOT CALLDATASIZE ADD SLT PUSH2 0x1EF JUMPI PUSH1 0x20 SWAP1 PUSH2 0xB41 PUSH2 0xB37 PUSH2 0x2399 JUMP JUMPDEST PUSH1 0x24 CALLDATALOAD SWAP1 CALLER PUSH2 0x336F JUMP JUMPDEST MLOAD PUSH1 0x1 DUP2 MSTORE RETURN JUMPDEST DUP3 CALLVALUE PUSH2 0x1EF JUMPI PUSH1 0x20 PUSH1 0x3 NOT CALLDATASIZE ADD SLT PUSH2 0x1EF JUMPI PUSH1 0x20 SWAP1 PUSH1 0x1 PUSH1 0x1 PUSH1 0xA0 SHL SUB PUSH2 0xB6D PUSH2 0x2399 JUMP JUMPDEST AND PUSH0 MSTORE PUSH1 0x9 DUP3 MSTORE PUSH1 0xFF DUP2 PUSH0 KECCAK256 SLOAD AND SWAP1 MLOAD SWAP1 ISZERO ISZERO DUP2 MSTORE RETURN JUMPDEST DUP3 CALLVALUE PUSH2 0x1EF JUMPI PUSH0 PUSH1 0x3 NOT CALLDATASIZE ADD SLT PUSH2 0x1EF JUMPI DUP1 MLOAD PUSH0 PUSH32 0x52C63247E1F47DB19D5CE0460030C497F067CA4CEBF71BA98EEADABE20BACE04 DUP1 SLOAD SWAP1 PUSH2 0xBC5 DUP3 PUSH2 0x262B JUMP JUMPDEST DUP1 DUP6 MSTORE SWAP2 PUSH1 0x20 SWAP2 PUSH1 0x1 SWAP2 DUP3 DUP2 AND SWAP1 DUP2 ISZERO PUSH2 0xC55 JUMPI POP PUSH1 0x1 EQ PUSH2 0xBFD JUMPI JUMPDEST PUSH2 0xAE8 DUP7 DUP9 PUSH2 0xBF3 DUP3 DUP10 SUB DUP4 PUSH2 0x2439 JUMP JUMPDEST MLOAD SWAP2 DUP3 SWAP2 DUP3 PUSH2 0x23F1 JUMP JUMPDEST PUSH0 SWAP1 DUP2 MSTORE SWAP4 POP PUSH32 0x46A2803E59A4DE4E7A4C574B1243F25977AC4C77D5A1A4A609B5394CEBB4A2AA JUMPDEST DUP4 DUP6 LT PUSH2 0xC42 JUMPI POP POP POP POP DUP2 ADD PUSH1 0x20 ADD PUSH2 0xBF3 DUP3 PUSH2 0xAE8 DUP7 PUSH2 0xBE2 JUMP JUMPDEST DUP1 SLOAD DUP7 DUP7 ADD DUP5 ADD MSTORE SWAP4 DUP3 ADD SWAP4 DUP2 ADD PUSH2 0xC25 JUMP JUMPDEST PUSH2 0xAE8 SWAP9 SWAP7 POP DUP8 SWAP5 POP PUSH1 0x20 SWAP4 POP PUSH2 0xBF3 SWAP6 SWAP3 POP PUSH32 0xFFFFFFFFFFFFFFFFFFFFFFFFFFFFFFFFFFFFFFFFFFFFFFFFFFFFFFFFFFFFFF00 SWAP2 POP AND DUP3 DUP5 ADD MSTORE ISZERO ISZERO PUSH1 0x5 SHL DUP3 ADD ADD SWAP3 SWAP5 DUP7 PUSH2 0xBE2 JUMP JUMPDEST DUP3 CALLVALUE PUSH2 0x1EF JUMPI PUSH0 PUSH1 0x3 NOT CALLDATASIZE ADD SLT PUSH2 0x1EF JUMPI PUSH1 0x20 SWAP1 PUSH1 0x1 PUSH1 0x1 PUSH1 0xA0 SHL SUB PUSH32 0x9016D09D72D40FDAE2FD8CEAC6B6234C7706214FD39C1CD1E609A0528C199300 SLOAD AND SWAP1 MLOAD SWAP1 DUP2 MSTORE RETURN JUMPDEST DUP3 CALLVALUE PUSH2 0x1EF JUMPI PUSH0 PUSH1 0x3 NOT CALLDATASIZE ADD SLT PUSH2 0x1EF JUMPI PUSH1 0x20 PUSH32 0x62E78CEA01BEE320CD4E420270B5EA74000D11B0C9F74754EBDBFC544B05A258 SWAP2 PUSH2 0xD23 PUSH2 0x330C JUMP JUMPDEST PUSH2 0xD2B PUSH2 0x31BC JUMP JUMPDEST PUSH32 0xCD5ED15C6E187E77E9AEE88184C21F4F2182AB5827CB3B7E07FBEDCD63F03300 PUSH1 0x1 PUSH32 0xFFFFFFFFFFFFFFFFFFFFFFFFFFFFFFFFFFFFFFFFFFFFFFFFFFFFFFFFFFFFFF00 DUP3 SLOAD AND OR SWAP1 SSTORE MLOAD CALLER DUP2 MSTORE LOG1 STOP JUMPDEST DUP3 CALLVALUE PUSH2 0x1EF JUMPI PUSH0 PUSH1 0x3 NOT CALLDATASIZE ADD SLT PUSH2 0x1EF JUMPI PUSH1 0x20 SWAP1 PUSH1 0x1 PUSH1 0x1 PUSH1 0xA0 SHL SUB PUSH1 0x2 SLOAD AND SWAP1 MLOAD SWAP1 DUP2 MSTORE RETURN JUMPDEST CALLVALUE PUSH2 0x1EF JUMPI PUSH0 PUSH1 0x3 NOT CALLDATASIZE ADD SLT PUSH2 0x1EF JUMPI PUSH2 0xDBB PUSH2 0x330C JUMP JUMPDEST PUSH0 PUSH1 0x1 PUSH1 0x1 PUSH1 0xA0 SHL SUB PUSH32 0x9016D09D72D40FDAE2FD8CEAC6B6234C7706214FD39C1CD1E609A0528C199300 DUP1 SLOAD SWAP1 PUSH32 0xFFFFFFFFFFFFFFFFFFFFFFFF0000000000000000000000000000000000000000 DUP3 AND SWAP1 SSTORE AND PUSH32 0x8BE0079C531659141344CD1FD0A4F28419497F9722A3DAAFE3B4186F6B6457E0 DUP3 DUP1 LOG3 STOP JUMPDEST DUP3 CALLVALUE PUSH2 0x1EF JUMPI PUSH1 0x20 PUSH1 0x3 NOT CALLDATASIZE ADD SLT PUSH2 0x1EF JUMPI PUSH1 0x20 SWAP1 PUSH1 0x1 PUSH1 0x1 PUSH1 0xA0 SHL SUB PUSH2 0xE59 PUSH2 0x2399 JUMP JUMPDEST AND PUSH0 MSTORE PUSH32 0x52C63247E1F47DB19D5CE0460030C497F067CA4CEBF71BA98EEADABE20BACE00 DUP3 MSTORE DUP1 PUSH0 KECCAK256 SLOAD SWAP1 MLOAD SWAP1 DUP2 MSTORE RETURN JUMPDEST SWAP1 POP CALLVALUE PUSH2 0x1EF JUMPI DUP2 PUSH1 0x3 NOT CALLDATASIZE ADD SLT PUSH2 0x1EF JUMPI DUP1 CALLDATALOAD PUSH2 0xEA6 PUSH2 0x2383 JUMP JUMPDEST PUSH2 0xEAE PUSH2 0x3162 JUMP JUMPDEST PUSH2 0xEB6 PUSH2 0x31BC JUMP JUMPDEST DUP2 ISZERO PUSH2 0x129D JUMPI PUSH0 DUP1 SLOAD DUP6 MLOAD PUSH32 0x23B872DD00000000000000000000000000000000000000000000000000000000 DUP2 MSTORE CALLER DUP7 DUP3 ADD SWAP1 DUP2 MSTORE ADDRESS PUSH1 0x20 DUP3 DUP2 ADD SWAP2 SWAP1 SWAP2 MSTORE PUSH1 0x40 DUP3 ADD DUP8 SWAP1 MSTORE PUSH1 0x1 PUSH1 0x1 PUSH1 0xA0 SHL SUB SWAP7 SWAP1 SWAP5 SWAP1 SWAP4 DUP6 SWAP3 DUP5 SWAP3 SWAP2 DUP10 AND SWAP2 DUP4 SWAP2 DUP3 SWAP1 PUSH1 0x60 ADD SUB SWAP3 GAS CALL DUP1 ISZERO PUSH2 0x11F4 JUMPI PUSH2 0x1280 JUMPI JUMPDEST POP DUP4 PUSH1 0x2 SLOAD AND DUP7 MLOAD SWAP2 PUSH32 0x4CC732500000000000000000000000000000000000000000000000000000000 DUP4 MSTORE DUP4 DUP4 DUP9 DUP2 DUP6 GAS STATICCALL SWAP3 DUP4 ISZERO PUSH2 0x121B JUMPI DUP8 SWAP3 DUP6 SWAP2 PUSH0 SWAP6 PUSH2 0x1261 JUMPI JUMPDEST POP DUP10 MLOAD SWAP4 DUP5 DUP1 SWAP3 PUSH32 0x3B19E84A00000000000000000000000000000000000000000000000000000000 DUP3 MSTORE GAS STATICCALL SWAP2 DUP3 ISZERO PUSH2 0x121B JUMPI PUSH0 SWAP3 PUSH2 0x1242 JUMPI JUMPDEST POP DUP7 PUSH2 0xFB1 DUP3 PUSH2 0x3211 JUMP JUMPDEST SWAP3 DUP10 PUSH2 0x101B DUP8 PUSH2 0xFC0 DUP8 PUSH2 0x3211 JUMP JUMPDEST SWAP8 DUP12 PUSH0 SLOAD AND PUSH2 0xFCF DUP11 DUP11 PUSH2 0x25E7 JUMP JUMPDEST SWAP2 PUSH0 DUP7 MLOAD DUP1 SWAP7 DUP2 SWAP6 DUP3 SWAP5 PUSH32 0xA9059CBB00000000000000000000000000000000000000000000000000000000 SWAP13 DUP14 DUP6 MSTORE DUP5 ADD PUSH1 0x20 SWAP1 SWAP4 SWAP3 SWAP2 SWAP4 PUSH1 0x1 PUSH1 0x1 PUSH1 0xA0 SHL SUB PUSH1 0x40 DUP3 ADD SWAP6 AND DUP2 MSTORE ADD MSTORE JUMP JUMPDEST SUB SWAP3 GAS CALL DUP1 ISZERO PUSH2 0x77B JUMPI DUP9 SWAP5 DUP13 SWAP3 PUSH0 SWAP3 PUSH2 0x1225 JUMPI JUMPDEST POP PUSH2 0x1060 DUP13 DUP4 SLOAD AND SWAP5 MLOAD SWAP10 DUP11 SWAP7 DUP8 SWAP6 DUP7 SWAP5 DUP6 MSTORE DUP5 ADD PUSH1 0x20 SWAP1 SWAP4 SWAP3 SWAP2 SWAP4 PUSH1 0x1 PUSH1 0x1 PUSH1 0xA0 SHL SUB PUSH1 0x40 DUP3 ADD SWAP6 AND DUP2 MSTORE ADD MSTORE JUMP JUMPDEST SUB SWAP3 GAS CALL SWAP3 DUP4 ISZERO PUSH2 0x121B JUMPI PUSH2 0x107A SWAP4 PUSH2 0x11FE JUMPI JUMPDEST POP PUSH2 0x25E7 JUMP JUMPDEST SWAP3 DUP5 DUP3 DUP3 PUSH0 SLOAD AND DUP9 MLOAD SWAP3 DUP4 DUP1 SWAP3 PUSH32 0x313CE56700000000000000000000000000000000000000000000000000000000 DUP3 MSTORE GAS STATICCALL DUP1 ISZERO PUSH2 0x11F4 JUMPI PUSH2 0x10CA PUSH2 0x10CF SWAP2 PUSH2 0x10D5 SWAP4 PUSH0 SWAP2 PUSH2 0x11C7 JUMPI JUMPDEST POP PUSH2 0x254E JUMP JUMPDEST PUSH2 0x258C JUMP JUMPDEST DUP6 PUSH2 0x259D JUMP JUMPDEST SWAP3 AND SWAP2 DUP3 ISZERO PUSH2 0x1198 JUMPI PUSH0 SWAP2 PUSH32 0xDDF252AD1BE2C89B69C2B068FC378DAA952BA7F163C4A11628F55A4DF523B3EF SWAP2 PUSH2 0x1170 SWAP7 SWAP8 PUSH32 0x52C63247E1F47DB19D5CE0460030C497F067CA4CEBF71BA98EEADABE20BACE02 PUSH2 0x1133 DUP4 DUP3 SLOAD PUSH2 0x267C JUMP JUMPDEST SWAP1 SSTORE DUP6 DUP6 MSTORE PUSH32 0x52C63247E1F47DB19D5CE0460030C497F067CA4CEBF71BA98EEADABE20BACE00 DUP4 MSTORE DUP1 DUP6 KECCAK256 DUP3 DUP2 SLOAD ADD SWAP1 SSTORE MLOAD SWAP1 DUP2 MSTORE LOG3 DUP3 SLOAD PUSH2 0x267C JUMP JUMPDEST SWAP1 SSTORE PUSH1 0x1 PUSH32 0x9B779B17422D0DF92223018B32B4D1FA46E071723D6817E2486D003BECC55F00 SSTORE STOP JUMPDEST PUSH1 0x24 DUP6 PUSH0 DUP9 MLOAD SWAP2 PUSH32 0xEC442F0500000000000000000000000000000000000000000000000000000000 DUP4 MSTORE DUP3 ADD MSTORE REVERT JUMPDEST PUSH2 0x11E7 SWAP2 POP DUP7 RETURNDATASIZE DUP9 GT PUSH2 0x11ED JUMPI JUMPDEST PUSH2 0x11DF DUP2 DUP4 PUSH2 0x2439 JUMP JUMPDEST DUP2 ADD SWAP1 PUSH2 0x2535 JUMP JUMPDEST PUSH0 PUSH2 0x10C4 JUMP JUMPDEST POP RETURNDATASIZE PUSH2 0x11D5 JUMP JUMPDEST DUP8 MLOAD RETURNDATASIZE PUSH0 DUP3 RETURNDATACOPY RETURNDATASIZE SWAP1 REVERT JUMPDEST PUSH2 0x1214 SWAP1 DUP6 RETURNDATASIZE DUP8 GT PUSH2 0x7AB JUMPI PUSH2 0x79C DUP2 DUP4 PUSH2 0x2439 JUMP JUMPDEST POP PUSH0 PUSH2 0x1074 JUMP JUMPDEST DUP9 MLOAD RETURNDATASIZE PUSH0 DUP3 RETURNDATACOPY RETURNDATASIZE SWAP1 REVERT JUMPDEST PUSH2 0x123B SWAP1 DUP8 RETURNDATASIZE DUP10 GT PUSH2 0x7AB JUMPI PUSH2 0x79C DUP2 DUP4 PUSH2 0x2439 JUMP JUMPDEST POP PUSH0 PUSH2 0x1030 JUMP JUMPDEST PUSH2 0x125A SWAP2 SWAP3 POP DUP5 RETURNDATASIZE DUP7 GT PUSH2 0x7E2 JUMPI PUSH2 0x7D4 DUP2 DUP4 PUSH2 0x2439 JUMP JUMPDEST SWAP1 PUSH0 PUSH2 0xFA6 JUMP JUMPDEST PUSH2 0x1279 SWAP2 SWAP6 POP DUP3 RETURNDATASIZE DUP5 GT PUSH2 0x7E2 JUMPI PUSH2 0x7D4 DUP2 DUP4 PUSH2 0x2439 JUMP JUMPDEST SWAP4 PUSH0 PUSH2 0xF6C JUMP JUMPDEST PUSH2 0x1296 SWAP1 DUP4 RETURNDATASIZE DUP6 GT PUSH2 0x7AB JUMPI PUSH2 0x79C DUP2 DUP4 PUSH2 0x2439 JUMP JUMPDEST POP PUSH0 PUSH2 0xF27 JUMP JUMPDEST PUSH1 0x64 DUP4 PUSH1 0x20 DUP7 MLOAD SWAP2 PUSH32 0x8C379A000000000000000000000000000000000000000000000000000000000 DUP4 MSTORE DUP3 ADD MSTORE PUSH1 0x20 PUSH1 0x24 DUP3 ADD MSTORE PUSH32 0x416D6F756E74206D7573742062652067726561746572207468616E207A65726F PUSH1 0x44 DUP3 ADD MSTORE REVERT JUMPDEST DUP3 CALLVALUE PUSH2 0x1EF JUMPI PUSH0 PUSH1 0x3 NOT CALLDATASIZE ADD SLT PUSH2 0x1EF JUMPI PUSH1 0x20 SWAP1 PUSH1 0xFF PUSH32 0xCD5ED15C6E187E77E9AEE88184C21F4F2182AB5827CB3B7E07FBEDCD63F03300 SLOAD AND SWAP1 MLOAD SWAP1 ISZERO ISZERO DUP2 MSTORE RETURN JUMPDEST DUP3 CALLVALUE PUSH2 0x1EF JUMPI PUSH0 PUSH1 0x3 NOT CALLDATASIZE ADD SLT PUSH2 0x1EF JUMPI PUSH1 0x1 PUSH1 0x1 PUSH1 0xA0 SHL SUB PUSH32 0x0 AND ADDRESS SUB PUSH2 0x13A6 JUMPI PUSH1 0x20 SWAP1 MLOAD PUSH32 0x360894A13BA1A3210667C828492DB98DCA3E2076CC3735A920A3CA505D382BBC DUP2 MSTORE RETURN JUMPDEST MLOAD PUSH32 0xE07C8DBA00000000000000000000000000000000000000000000000000000000 DUP2 MSTORE REVERT JUMPDEST DUP3 CALLVALUE PUSH2 0x1EF JUMPI PUSH0 PUSH1 0x3 NOT CALLDATASIZE ADD SLT PUSH2 0x1EF JUMPI PUSH1 0x20 SWAP1 PUSH1 0x8 SLOAD SWAP1 MLOAD SWAP1 DUP2 MSTORE RETURN JUMPDEST SWAP1 POP DUP2 PUSH1 0x3 NOT CALLDATASIZE ADD SLT PUSH2 0x1EF JUMPI PUSH2 0x13FF PUSH2 0x2399 JUMP JUMPDEST SWAP2 PUSH1 0x24 CALLDATALOAD PUSH8 0xFFFFFFFFFFFFFFFF DUP2 GT PUSH2 0x1EF JUMPI CALLDATASIZE PUSH1 0x23 DUP3 ADD SLT ISZERO PUSH2 0x1EF JUMPI PUSH2 0x1430 SWAP1 CALLDATASIZE SWAP1 PUSH1 0x24 DUP2 DUP7 ADD CALLDATALOAD SWAP2 ADD PUSH2 0x24E1 JUMP JUMPDEST SWAP1 PUSH1 0x1 PUSH1 0x1 PUSH1 0xA0 SHL SUB DUP1 PUSH32 0x0 AND DUP1 ADDRESS EQ SWAP1 DUP2 ISZERO PUSH2 0x16BA JUMPI JUMPDEST POP PUSH2 0x1692 JUMPI PUSH2 0x1474 PUSH2 0x330C JUMP JUMPDEST DUP5 AND SWAP2 DUP2 MLOAD SWAP5 PUSH32 0x52D1902D00000000000000000000000000000000000000000000000000000000 DUP7 MSTORE PUSH1 0x20 SWAP1 DUP2 DUP8 DUP8 DUP2 DUP9 GAS STATICCALL PUSH0 SWAP8 DUP2 PUSH2 0x1663 JUMPI JUMPDEST POP PUSH2 0x14E3 JUMPI PUSH1 0x24 DUP7 DUP7 DUP7 MLOAD SWAP2 PUSH32 0x4C9C8CE300000000000000000000000000000000000000000000000000000000 DUP4 MSTORE DUP3 ADD MSTORE REVERT JUMPDEST SWAP2 SWAP5 SWAP1 SWAP4 PUSH32 0x360894A13BA1A3210667C828492DB98DCA3E2076CC3735A920A3CA505D382BBC DUP8 PUSH32 0xC9F76B5EC45E5CDEF99837D7B6D2467235C1DF8933C8CA56DF5C35AFA2C7D444 DUP2 ADD PUSH2 0x1634 JUMPI POP DUP4 EXTCODESIZE ISZERO PUSH2 0x1605 JUMPI DUP2 PUSH32 0xFFFFFFFFFFFFFFFFFFFFFFFF0000000000000000000000000000000000000000 DUP3 SLOAD AND OR SWAP1 SSTORE DUP4 MLOAD SWAP1 PUSH32 0xBC7CD75A20EE27FD9ADEBAB32041F755214DBC6BFFA90CC0225B39DA2E5C2D3B PUSH0 DUP1 LOG2 DUP6 MLOAD ISZERO PUSH2 0x15D3 JUMPI POP POP PUSH0 DUP1 DUP6 DUP6 PUSH2 0x29B SWAP8 MLOAD SWAP2 ADD DUP5 GAS DELEGATECALL SWAP2 RETURNDATASIZE ISZERO PUSH2 0x15C9 JUMPI RETURNDATASIZE PUSH2 0x15BB PUSH2 0x15B2 DUP3 PUSH2 0x24A7 JUMP JUMPDEST SWAP3 MLOAD SWAP3 DUP4 PUSH2 0x2439 JUMP JUMPDEST DUP2 MSTORE PUSH0 DUP2 SWAP5 RETURNDATASIZE SWAP3 ADD RETURNDATACOPY PUSH2 0x350D JUMP JUMPDEST POP PUSH1 0x60 SWAP3 POP PUSH2 0x350D JUMP JUMPDEST SWAP4 POP SWAP4 POP POP POP CALLVALUE PUSH2 0x15E0 JUMPI STOP JUMPDEST PUSH32 0xB398979F00000000000000000000000000000000000000000000000000000000 DUP2 MSTORE REVERT JUMPDEST PUSH1 0x24 DUP4 DUP4 DUP8 MLOAD SWAP2 PUSH32 0x4C9C8CE300000000000000000000000000000000000000000000000000000000 DUP4 MSTORE DUP3 ADD MSTORE REVERT JUMPDEST DUP4 PUSH1 0x24 SWAP2 DUP8 MLOAD SWAP2 PUSH32 0xAA1D49A400000000000000000000000000000000000000000000000000000000 DUP4 MSTORE DUP3 ADD MSTORE REVERT JUMPDEST SWAP1 SWAP8 POP DUP3 DUP2 DUP2 RETURNDATASIZE DUP4 GT PUSH2 0x168B JUMPI JUMPDEST PUSH2 0x167B DUP2 DUP4 PUSH2 0x2439 JUMP JUMPDEST DUP2 ADD SUB SLT PUSH2 0x1EF JUMPI MLOAD SWAP7 PUSH0 PUSH2 0x14AF JUMP JUMPDEST POP RETURNDATASIZE PUSH2 0x1671 JUMP JUMPDEST DUP4 DUP3 MLOAD PUSH32 0xE07C8DBA00000000000000000000000000000000000000000000000000000000 DUP2 MSTORE REVERT JUMPDEST SWAP1 POP DUP2 PUSH32 0x360894A13BA1A3210667C828492DB98DCA3E2076CC3735A920A3CA505D382BBC SLOAD AND EQ ISZERO PUSH0 PUSH2 0x1467 JUMP JUMPDEST DUP3 CALLVALUE PUSH2 0x1EF JUMPI PUSH0 PUSH1 0x3 NOT CALLDATASIZE ADD SLT PUSH2 0x1EF JUMPI PUSH2 0x1701 PUSH2 0x330C JUMP JUMPDEST PUSH32 0xCD5ED15C6E187E77E9AEE88184C21F4F2182AB5827CB3B7E07FBEDCD63F03300 SWAP2 DUP3 SLOAD SWAP1 PUSH1 0xFF DUP3 AND ISZERO PUSH2 0x1780 JUMPI PUSH32 0x5DB9EE0A495BF2E6FF9C91A7834C1BA4FDD244A5E8AA4E537BD38AEAE4B073AA PUSH1 0x20 DUP5 DUP7 PUSH32 0xFFFFFFFFFFFFFFFFFFFFFFFFFFFFFFFFFFFFFFFFFFFFFFFFFFFFFFFFFFFFFF00 DUP7 AND SWAP1 SSTORE MLOAD CALLER DUP2 MSTORE LOG1 STOP JUMPDEST DUP3 MLOAD PUSH32 0x8DFC202B00000000000000000000000000000000000000000000000000000000 DUP2 MSTORE REVERT JUMPDEST DUP3 CALLVALUE PUSH2 0x1EF JUMPI PUSH0 PUSH1 0x3 NOT CALLDATASIZE ADD SLT PUSH2 0x1EF JUMPI PUSH1 0x20 SWAP2 SLOAD SWAP1 MLOAD SWAP1 DUP2 MSTORE RETURN JUMPDEST DUP3 CALLVALUE PUSH2 0x1EF JUMPI PUSH0 PUSH1 0x3 NOT CALLDATASIZE ADD SLT PUSH2 0x1EF JUMPI PUSH1 0x20 SWAP1 MLOAD PUSH1 0x12 DUP2 MSTORE RETURN JUMPDEST DUP3 CALLVALUE PUSH2 0x1EF JUMPI PUSH0 PUSH1 0x3 NOT CALLDATASIZE ADD SLT PUSH2 0x1EF JUMPI PUSH1 0x20 SWAP1 PUSH2 0x4C2 PUSH2 0x2689 JUMP JUMPDEST SWAP1 POP CALLVALUE PUSH2 0x1EF JUMPI PUSH1 0x60 PUSH1 0x3 NOT CALLDATASIZE ADD SLT PUSH2 0x1EF JUMPI PUSH2 0x1815 PUSH2 0x2399 JUMP JUMPDEST PUSH2 0x181D PUSH2 0x2383 JUMP JUMPDEST SWAP1 PUSH1 0x44 CALLDATALOAD SWAP3 PUSH2 0x185C DUP3 PUSH1 0x1 PUSH1 0x1 PUSH1 0xA0 SHL SUB AND PUSH0 MSTORE PUSH32 0x52C63247E1F47DB19D5CE0460030C497F067CA4CEBF71BA98EEADABE20BACE01 PUSH1 0x20 MSTORE PUSH1 0x40 PUSH0 KECCAK256 SWAP1 JUMP JUMPDEST CALLER PUSH0 MSTORE PUSH1 0x20 MSTORE DUP5 PUSH0 KECCAK256 SLOAD SWAP1 PUSH32 0xFFFFFFFFFFFFFFFFFFFFFFFFFFFFFFFFFFFFFFFFFFFFFFFFFFFFFFFFFFFFFFFF DUP3 SUB PUSH2 0x189D JUMPI JUMPDEST PUSH1 0x20 DUP7 PUSH2 0xB41 DUP8 DUP8 DUP8 PUSH2 0x336F JUMP JUMPDEST DUP5 DUP3 LT PUSH2 0x1972 JUMPI PUSH1 0x1 PUSH1 0x1 PUSH1 0xA0 SHL SUB DUP4 AND ISZERO PUSH2 0x1943 JUMPI CALLER ISZERO PUSH2 0x1914 JUMPI POP SWAP2 DUP2 DUP5 PUSH2 0xB41 SWAP5 PUSH2 0x18FF PUSH1 0x20 SWAP9 SWAP8 SWAP6 PUSH1 0x1 PUSH1 0x1 PUSH1 0xA0 SHL SUB AND PUSH0 MSTORE PUSH32 0x52C63247E1F47DB19D5CE0460030C497F067CA4CEBF71BA98EEADABE20BACE01 PUSH1 0x20 MSTORE PUSH1 0x40 PUSH0 KECCAK256 SWAP1 JUMP JUMPDEST CALLER PUSH0 MSTORE DUP9 MSTORE SUB DUP6 PUSH0 KECCAK256 SSTORE SWAP2 SWAP4 SWAP5 DUP2 SWAP4 POP PUSH2 0x188F JUMP JUMPDEST PUSH1 0x24 SWAP1 PUSH0 DUP8 MLOAD SWAP2 PUSH32 0x94280D6200000000000000000000000000000000000000000000000000000000 DUP4 MSTORE DUP3 ADD MSTORE REVERT JUMPDEST PUSH1 0x24 SWAP1 PUSH0 DUP8 MLOAD SWAP2 PUSH32 0xE602DF0500000000000000000000000000000000000000000000000000000000 DUP4 MSTORE DUP3 ADD MSTORE REVERT JUMPDEST DUP6 MLOAD PUSH32 0xFB8F41B200000000000000000000000000000000000000000000000000000000 DUP2 MSTORE CALLER SWAP2 DUP2 ADD SWAP2 DUP3 MSTORE PUSH1 0x20 DUP3 ADD SWAP3 SWAP1 SWAP3 MSTORE PUSH1 0x40 DUP2 ADD DUP6 SWAP1 MSTORE DUP2 SWAP1 PUSH1 0x60 ADD SUB SWAP1 REVERT JUMPDEST DUP3 CALLVALUE PUSH2 0x1EF JUMPI DUP1 PUSH1 0x3 NOT CALLDATASIZE ADD SLT PUSH2 0x1EF JUMPI PUSH2 0x19CF PUSH2 0x2399 JUMP JUMPDEST SWAP1 PUSH1 0x24 CALLDATALOAD SWAP2 DUP3 ISZERO ISZERO DUP1 SWAP4 SUB PUSH2 0x1EF JUMPI PUSH1 0x1 PUSH1 0x1 PUSH1 0xA0 SHL SUB SWAP1 PUSH2 0x19EF PUSH2 0x330C JUMP JUMPDEST AND PUSH0 MSTORE PUSH1 0x9 PUSH1 0x20 MSTORE PUSH0 KECCAK256 SWAP1 PUSH1 0xFF PUSH32 0xFFFFFFFFFFFFFFFFFFFFFFFFFFFFFFFFFFFFFFFFFFFFFFFFFFFFFFFFFFFFFF00 DUP4 SLOAD AND SWAP2 AND OR SWAP1 SSTORE PUSH0 DUP1 RETURN JUMPDEST DUP3 CALLVALUE PUSH2 0x1EF JUMPI PUSH0 PUSH1 0x3 NOT CALLDATASIZE ADD SLT PUSH2 0x1EF JUMPI PUSH1 0x20 SWAP1 PUSH32 0x52C63247E1F47DB19D5CE0460030C497F067CA4CEBF71BA98EEADABE20BACE02 SLOAD SWAP1 MLOAD SWAP1 DUP2 MSTORE RETURN JUMPDEST DUP3 CALLVALUE PUSH2 0x1EF JUMPI DUP1 PUSH1 0x3 NOT CALLDATASIZE ADD SLT PUSH2 0x1EF JUMPI PUSH2 0x1A7F PUSH2 0x2399 JUMP JUMPDEST PUSH1 0x24 CALLDATALOAD SWAP1 CALLER ISZERO PUSH2 0x1B41 JUMPI PUSH1 0x1 PUSH1 0x1 PUSH1 0xA0 SHL SUB AND SWAP1 DUP2 ISZERO PUSH2 0x1B12 JUMPI PUSH1 0x20 SWAP4 POP PUSH2 0x1AD7 CALLER PUSH1 0x1 PUSH1 0x1 PUSH1 0xA0 SHL SUB AND PUSH0 MSTORE PUSH32 0x52C63247E1F47DB19D5CE0460030C497F067CA4CEBF71BA98EEADABE20BACE01 PUSH1 0x20 MSTORE PUSH1 0x40 PUSH0 KECCAK256 SWAP1 JUMP JUMPDEST DUP3 PUSH0 MSTORE DUP5 MSTORE DUP1 DUP4 PUSH0 KECCAK256 SSTORE DUP3 MLOAD SWAP1 DUP2 MSTORE PUSH32 0x8C5BE1E5EBEC7D5BD14F71427D1E84F3DD0314C0F7B2291E5B200AC8C7C3B925 DUP5 CALLER SWAP3 LOG3 MLOAD PUSH1 0x1 DUP2 MSTORE RETURN JUMPDEST PUSH1 0x24 DUP5 PUSH0 DUP6 MLOAD SWAP2 PUSH32 0x94280D6200000000000000000000000000000000000000000000000000000000 DUP4 MSTORE DUP3 ADD MSTORE REVERT JUMPDEST PUSH1 0x24 DUP5 PUSH0 DUP6 MLOAD SWAP2 PUSH32 0xE602DF0500000000000000000000000000000000000000000000000000000000 DUP4 MSTORE DUP3 ADD MSTORE REVERT JUMPDEST DUP3 CALLVALUE PUSH2 0x1EF JUMPI PUSH0 PUSH1 0x3 NOT CALLDATASIZE ADD SLT PUSH2 0x1EF JUMPI DUP1 MLOAD PUSH0 PUSH32 0x52C63247E1F47DB19D5CE0460030C497F067CA4CEBF71BA98EEADABE20BACE03 DUP1 SLOAD SWAP1 PUSH2 0x1BB1 DUP3 PUSH2 0x262B JUMP JUMPDEST DUP1 DUP6 MSTORE SWAP2 PUSH1 0x20 SWAP2 PUSH1 0x1 SWAP2 DUP3 DUP2 AND SWAP1 DUP2 ISZERO PUSH2 0xC55 JUMPI POP PUSH1 0x1 EQ PUSH2 0x1BDE JUMPI PUSH2 0xAE8 DUP7 DUP9 PUSH2 0xBF3 DUP3 DUP10 SUB DUP4 PUSH2 0x2439 JUMP JUMPDEST PUSH0 SWAP1 DUP2 MSTORE SWAP4 POP PUSH32 0x2AE08A8E29253F69AC5D979A101956AB8F8D9D7DED63FA7A83B16FC47648EAB0 JUMPDEST DUP4 DUP6 LT PUSH2 0x1C23 JUMPI POP POP POP POP DUP2 ADD PUSH1 0x20 ADD PUSH2 0xBF3 DUP3 PUSH2 0xAE8 DUP7 PUSH2 0xBE2 JUMP JUMPDEST DUP1 SLOAD DUP7 DUP7 ADD DUP5 ADD MSTORE SWAP4 DUP3 ADD SWAP4 DUP2 ADD PUSH2 0x1C06 JUMP JUMPDEST SWAP1 POP CALLVALUE PUSH2 0x1EF JUMPI DUP2 PUSH1 0x3 NOT CALLDATASIZE ADD SLT PUSH2 0x1EF JUMPI DUP1 CALLDATALOAD PUSH2 0x1C52 PUSH2 0x2383 JUMP JUMPDEST PUSH2 0x1C5A PUSH2 0x3162 JUMP JUMPDEST PUSH2 0x1C62 PUSH2 0x31BC JUMP JUMPDEST DUP2 ISZERO PUSH2 0x2326 JUMPI CALLER PUSH0 MSTORE PUSH32 0x52C63247E1F47DB19D5CE0460030C497F067CA4CEBF71BA98EEADABE20BACE00 PUSH1 0x20 SWAP2 DUP2 DUP4 MSTORE DUP4 DUP7 PUSH0 KECCAK256 SLOAD LT PUSH2 0x22CA JUMPI PUSH1 0x1 PUSH1 0x1 PUSH1 0xA0 SHL SUB SWAP2 DUP3 PUSH1 0x1 SLOAD AND SWAP5 DUP8 MLOAD SWAP1 PUSH32 0x313CE56700000000000000000000000000000000000000000000000000000000 DUP3 MSTORE DUP6 DUP3 DUP10 DUP2 DUP11 GAS STATICCALL SWAP2 DUP3 ISZERO PUSH2 0x20FE JUMPI PUSH0 SWAP3 PUSH2 0x22AB JUMPI JUMPDEST POP DUP9 MLOAD DUP7 DUP2 PUSH1 0x24 DUP2 PUSH32 0x70A0823100000000000000000000000000000000000000000000000000000000 SWAP12 DUP13 DUP3 MSTORE DUP14 ADDRESS SWAP1 DUP4 ADD MSTORE GAS STATICCALL SWAP1 DUP2 ISZERO PUSH2 0x21CE JUMPI PUSH0 SWAP2 PUSH2 0x227E JUMPI JUMPDEST POP DUP7 DUP7 PUSH0 SLOAD AND SWAP9 PUSH1 0x24 DUP13 MLOAD DUP1 SWAP12 DUP2 SWAP4 DUP3 MSTORE DUP14 ADDRESS SWAP1 DUP4 ADD MSTORE GAS STATICCALL SWAP8 DUP9 ISZERO PUSH2 0x21CE JUMPI PUSH0 SWAP9 PUSH2 0x224D JUMPI JUMPDEST POP PUSH2 0x1D6A PUSH2 0x1D71 SWAP2 PUSH2 0x1D64 PUSH2 0x10CA DUP7 PUSH2 0x254E JUMP JUMPDEST SWAP1 PUSH2 0x259D JUMP JUMPDEST SWAP8 DUP3 PUSH2 0x259D JUMP JUMPDEST PUSH2 0x1DB1 PUSH32 0x52C63247E1F47DB19D5CE0460030C497F067CA4CEBF71BA98EEADABE20BACE02 SWAP2 PUSH2 0x1DAC PUSH2 0x1DA5 DUP5 SLOAD DUP1 SWAP4 PUSH2 0x25B0 JUMP JUMPDEST SWAP11 DUP6 PUSH2 0x259D JUMP JUMPDEST PUSH2 0x25B0 JUMP JUMPDEST SWAP4 CALLER ISZERO PUSH2 0x221E JUMPI CALLER PUSH0 MSTORE DUP1 DUP9 MSTORE DUP11 PUSH0 KECCAK256 SLOAD SWAP1 DUP4 DUP3 LT PUSH2 0x21D8 JUMPI DUP4 PUSH2 0x10CA SWAP4 DUP14 PUSH2 0x1E1B SWAP7 PUSH2 0x1E21 SWAP10 SWAP9 SWAP6 PUSH0 SWAP6 DUP15 CALLER DUP9 MSTORE MSTORE SUB SWAP1 DUP5 KECCAK256 SSTORE DUP2 DUP2 SLOAD SUB SWAP1 SSTORE DUP13 MLOAD SWAP1 DUP2 MSTORE PUSH32 0xDDF252AD1BE2C89B69C2B068FC378DAA952BA7F163C4A11628F55A4DF523B3EF DUP11 CALLER SWAP3 LOG3 PUSH2 0x254E JUMP JUMPDEST SWAP1 PUSH2 0x25B0 JUMP JUMPDEST SWAP1 DUP6 PUSH2 0x1E2C DUP7 PUSH2 0x3211 JUMP JUMPDEST PUSH0 DUP7 PUSH2 0x1E8A DUP8 DUP4 SLOAD AND PUSH2 0x1E3F DUP6 DUP13 PUSH2 0x25E7 JUMP JUMPDEST DUP14 MLOAD SWAP5 DUP6 DUP1 SWAP5 DUP2 SWAP4 DUP12 PUSH32 0xA9059CBB00000000000000000000000000000000000000000000000000000000 SWAP12 DUP13 DUP6 MSTORE DUP5 ADD PUSH1 0x20 SWAP1 SWAP4 SWAP3 SWAP2 SWAP4 PUSH1 0x1 PUSH1 0x1 PUSH1 0xA0 SHL SUB PUSH1 0x40 DUP3 ADD SWAP6 AND DUP2 MSTORE ADD MSTORE JUMP JUMPDEST SUB SWAP3 GAS CALL DUP1 ISZERO PUSH2 0x21CE JUMPI PUSH2 0x21B1 JUMPI JUMPDEST POP PUSH2 0x1EA3 DUP2 PUSH2 0x3211 JUMP JUMPDEST SWAP3 DUP10 DUP7 PUSH1 0x2 SLOAD AND SWAP5 DUP2 MLOAD SWAP6 PUSH32 0x4CC732500000000000000000000000000000000000000000000000000000000 DUP8 MSTORE DUP10 DUP8 DUP14 DUP2 DUP5 GAS STATICCALL SWAP7 DUP8 ISZERO PUSH2 0x2169 JUMPI DUP13 SWAP2 DUP12 SWAP2 PUSH0 SWAP10 PUSH2 0x2192 JUMPI JUMPDEST POP DUP5 MLOAD SWAP3 DUP4 DUP1 SWAP3 PUSH32 0x3B19E84A00000000000000000000000000000000000000000000000000000000 DUP3 MSTORE GAS STATICCALL SWAP5 DUP6 ISZERO PUSH2 0x2169 JUMPI DUP8 DUP12 SWAP2 DUP15 SWAP4 PUSH0 SWAP9 PUSH2 0x2173 JUMPI JUMPDEST POP PUSH2 0x1F38 DUP6 DUP14 PUSH0 SLOAD AND SWAP3 PUSH2 0x25E7 JUMP JUMPDEST SWAP4 PUSH0 DUP11 PUSH2 0x1F66 DUP10 MLOAD SWAP8 DUP9 SWAP7 DUP8 SWAP6 DUP7 SWAP5 DUP6 MSTORE DUP5 ADD PUSH1 0x20 SWAP1 SWAP4 SWAP3 SWAP2 SWAP4 PUSH1 0x1 PUSH1 0x1 PUSH1 0xA0 SHL SUB PUSH1 0x40 DUP3 ADD SWAP6 AND DUP2 MSTORE ADD MSTORE JUMP JUMPDEST SUB SWAP3 GAS CALL DUP1 ISZERO PUSH2 0x2169 JUMPI PUSH2 0x214C JUMPI JUMPDEST POP DUP9 DUP5 DUP10 PUSH0 SLOAD AND DUP14 PUSH0 DUP10 PUSH2 0x1FAA DUP9 MLOAD SWAP8 DUP9 SWAP7 DUP8 SWAP6 DUP7 SWAP5 DUP6 MSTORE DUP5 ADD PUSH1 0x20 SWAP1 SWAP4 SWAP3 SWAP2 SWAP4 PUSH1 0x1 PUSH1 0x1 PUSH1 0xA0 SHL SUB PUSH1 0x40 DUP3 ADD SWAP6 AND DUP2 MSTORE ADD MSTORE JUMP JUMPDEST SUB SWAP3 GAS CALL DUP1 ISZERO PUSH2 0x77B JUMPI PUSH2 0x2006 SWAP8 DUP11 SWAP3 DUP14 SWAP3 PUSH2 0x212F JUMPI JUMPDEST POP PUSH2 0x1FCB DUP2 PUSH2 0x3211 JUMP JUMPDEST SWAP5 PUSH0 PUSH2 0x1FDC DUP8 DUP14 PUSH1 0x1 SLOAD AND SWAP5 PUSH2 0x25E7 JUMP JUMPDEST SWAP4 DUP7 MLOAD SWAP12 DUP13 SWAP6 DUP7 SWAP5 DUP6 SWAP4 DUP14 DUP6 MSTORE DUP5 ADD PUSH1 0x20 SWAP1 SWAP4 SWAP3 SWAP2 SWAP4 PUSH1 0x1 PUSH1 0x1 PUSH1 0xA0 SHL SUB PUSH1 0x40 DUP3 ADD SWAP6 AND DUP2 MSTORE ADD MSTORE JUMP JUMPDEST SUB SWAP3 GAS CALL SWAP2 DUP3 ISZERO PUSH2 0x2125 JUMPI PUSH2 0x2060 SWAP7 DUP10 SWAP4 PUSH2 0x2108 JUMPI JUMPDEST POP PUSH2 0x2026 DUP2 PUSH2 0x3211 JUMP JUMPDEST SWAP6 PUSH0 DUP13 PUSH2 0x2037 DUP10 DUP13 DUP5 SLOAD AND SWAP6 PUSH2 0x25E7 JUMP JUMPDEST SWAP5 MLOAD SWAP10 DUP11 SWAP6 DUP7 SWAP5 DUP6 SWAP4 DUP12 DUP6 MSTORE DUP5 ADD PUSH1 0x20 SWAP1 SWAP4 SWAP3 SWAP2 SWAP4 PUSH1 0x1 PUSH1 0x1 PUSH1 0xA0 SHL SUB PUSH1 0x40 DUP3 ADD SWAP6 AND DUP2 MSTORE ADD MSTORE JUMP JUMPDEST SUB SWAP3 GAS CALL DUP1 ISZERO PUSH2 0x20FE JUMPI PUSH2 0x20A5 SWAP6 DUP8 SWAP6 PUSH0 SWAP3 PUSH2 0x20E1 JUMPI JUMPDEST POP DUP2 SLOAD AND SWAP3 DUP11 MLOAD SWAP7 DUP8 SWAP6 DUP7 SWAP5 DUP6 SWAP4 DUP5 MSTORE DUP13 DUP5 ADD PUSH1 0x20 SWAP1 SWAP4 SWAP3 SWAP2 SWAP4 PUSH1 0x1 PUSH1 0x1 PUSH1 0xA0 SHL SUB PUSH1 0x40 DUP3 ADD SWAP6 AND DUP2 MSTORE ADD MSTORE JUMP JUMPDEST SUB SWAP3 GAS CALL DUP1 ISZERO PUSH2 0x7B2 JUMPI PUSH2 0x1170 SWAP5 SWAP6 POP PUSH2 0x20C3 JUMPI JUMPDEST POP POP DUP3 SLOAD PUSH2 0x25E7 JUMP JUMPDEST DUP2 PUSH2 0x20D9 SWAP3 SWAP1 RETURNDATASIZE LT PUSH2 0x7AB JUMPI PUSH2 0x79C DUP2 DUP4 PUSH2 0x2439 JUMP JUMPDEST POP PUSH0 DUP1 PUSH2 0x20BA JUMP JUMPDEST PUSH2 0x20F7 SWAP1 DUP8 RETURNDATASIZE DUP10 GT PUSH2 0x7AB JUMPI PUSH2 0x79C DUP2 DUP4 PUSH2 0x2439 JUMP JUMPDEST POP PUSH0 PUSH2 0x2077 JUMP JUMPDEST DUP10 MLOAD RETURNDATASIZE PUSH0 DUP3 RETURNDATACOPY RETURNDATASIZE SWAP1 REVERT JUMPDEST PUSH2 0x211E SWAP1 DUP5 RETURNDATASIZE DUP7 GT PUSH2 0x7AB JUMPI PUSH2 0x79C DUP2 DUP4 PUSH2 0x2439 JUMP JUMPDEST POP PUSH0 PUSH2 0x201C JUMP JUMPDEST POP MLOAD RETURNDATASIZE PUSH0 DUP3 RETURNDATACOPY RETURNDATASIZE SWAP1 REVERT JUMPDEST PUSH2 0x2145 SWAP1 DUP5 RETURNDATASIZE DUP7 GT PUSH2 0x7AB JUMPI PUSH2 0x79C DUP2 DUP4 PUSH2 0x2439 JUMP JUMPDEST POP PUSH0 PUSH2 0x1FC1 JUMP JUMPDEST PUSH2 0x2162 SWAP1 DUP11 RETURNDATASIZE DUP13 GT PUSH2 0x7AB JUMPI PUSH2 0x79C DUP2 DUP4 PUSH2 0x2439 JUMP JUMPDEST POP PUSH0 PUSH2 0x1F75 JUMP JUMPDEST DUP4 MLOAD RETURNDATASIZE PUSH0 DUP3 RETURNDATACOPY RETURNDATASIZE SWAP1 REVERT JUMPDEST PUSH2 0x218B SWAP2 SWAP9 POP DUP4 RETURNDATASIZE DUP6 GT PUSH2 0x7E2 JUMPI PUSH2 0x7D4 DUP2 DUP4 PUSH2 0x2439 JUMP JUMPDEST SWAP7 PUSH0 PUSH2 0x1F29 JUMP JUMPDEST PUSH2 0x21AA SWAP2 SWAP10 POP DUP3 RETURNDATASIZE DUP5 GT PUSH2 0x7E2 JUMPI PUSH2 0x7D4 DUP2 DUP4 PUSH2 0x2439 JUMP JUMPDEST SWAP8 PUSH0 PUSH2 0x1EEA JUMP JUMPDEST PUSH2 0x21C7 SWAP1 DUP8 RETURNDATASIZE DUP10 GT PUSH2 0x7AB JUMPI PUSH2 0x79C DUP2 DUP4 PUSH2 0x2439 JUMP JUMPDEST POP PUSH0 PUSH2 0x1E99 JUMP JUMPDEST DUP11 MLOAD RETURNDATASIZE PUSH0 DUP3 RETURNDATACOPY RETURNDATASIZE SWAP1 REVERT JUMPDEST POP DUP11 MLOAD PUSH32 0xE450D38C00000000000000000000000000000000000000000000000000000000 DUP2 MSTORE CALLER DUP2 DUP13 ADD SWAP1 DUP2 MSTORE PUSH1 0x20 DUP2 ADD SWAP3 SWAP1 SWAP3 MSTORE PUSH1 0x40 DUP3 ADD DUP5 SWAP1 MSTORE SWAP1 DUP2 SWAP1 PUSH1 0x60 ADD SUB SWAP1 REVERT JUMPDEST PUSH1 0x24 DUP11 PUSH0 DUP14 MLOAD SWAP2 PUSH32 0x96C6FD1E00000000000000000000000000000000000000000000000000000000 DUP4 MSTORE DUP3 ADD MSTORE REVERT JUMPDEST SWAP1 SWAP8 POP DUP7 DUP2 DUP2 RETURNDATASIZE DUP4 GT PUSH2 0x2277 JUMPI JUMPDEST PUSH2 0x2265 DUP2 DUP4 PUSH2 0x2439 JUMP JUMPDEST DUP2 ADD SUB SLT PUSH2 0x1EF JUMPI MLOAD SWAP7 PUSH2 0x1D6A PUSH2 0x1D50 JUMP JUMPDEST POP RETURNDATASIZE PUSH2 0x225B JUMP JUMPDEST SWAP1 POP DUP7 DUP2 DUP2 RETURNDATASIZE DUP4 GT PUSH2 0x22A4 JUMPI JUMPDEST PUSH2 0x2295 DUP2 DUP4 PUSH2 0x2439 JUMP JUMPDEST DUP2 ADD SUB SLT PUSH2 0x1EF JUMPI MLOAD PUSH0 PUSH2 0x1D29 JUMP JUMPDEST POP RETURNDATASIZE PUSH2 0x228B JUMP JUMPDEST PUSH2 0x22C3 SWAP2 SWAP3 POP DUP7 RETURNDATASIZE DUP9 GT PUSH2 0x11ED JUMPI PUSH2 0x11DF DUP2 DUP4 PUSH2 0x2439 JUMP JUMPDEST SWAP1 PUSH0 PUSH2 0x1CE6 JUMP JUMPDEST PUSH1 0x64 DUP6 DUP5 DUP9 MLOAD SWAP2 PUSH32 0x8C379A000000000000000000000000000000000000000000000000000000000 DUP4 MSTORE DUP3 ADD MSTORE PUSH1 0x14 PUSH1 0x24 DUP3 ADD MSTORE PUSH32 0x496E73756666696369656E742062616C616E6365000000000000000000000000 PUSH1 0x44 DUP3 ADD MSTORE REVERT JUMPDEST PUSH1 0x64 DUP4 PUSH1 0x20 DUP7 MLOAD SWAP2 PUSH32 0x8C379A000000000000000000000000000000000000000000000000000000000 DUP4 MSTORE DUP3 ADD MSTORE PUSH1 0x20 PUSH1 0x24 DUP3 ADD MSTORE PUSH32 0x536861726573206D7573742062652067726561746572207468616E207A65726F PUSH1 0x44 DUP3 ADD MSTORE REVERT JUMPDEST PUSH1 0x24 CALLDATALOAD SWAP1 PUSH1 0x1 PUSH1 0x1 PUSH1 0xA0 SHL SUB DUP3 AND DUP3 SUB PUSH2 0x1EF JUMPI JUMP JUMPDEST PUSH1 0x4 CALLDATALOAD SWAP1 PUSH1 0x1 PUSH1 0x1 PUSH1 0xA0 SHL SUB DUP3 AND DUP3 SUB PUSH2 0x1EF JUMPI JUMP JUMPDEST PUSH1 0x44 CALLDATALOAD SWAP1 PUSH1 0x1 PUSH1 0x1 PUSH1 0xA0 SHL SUB DUP3 AND DUP3 SUB PUSH2 0x1EF JUMPI JUMP JUMPDEST PUSH1 0x64 CALLDATALOAD SWAP1 PUSH1 0x1 PUSH1 0x1 PUSH1 0xA0 SHL SUB DUP3 AND DUP3 SUB PUSH2 0x1EF JUMPI JUMP JUMPDEST PUSH1 0x84 CALLDATALOAD SWAP1 PUSH1 0x1 PUSH1 0x1 PUSH1 0xA0 SHL SUB DUP3 AND DUP3 SUB PUSH2 0x1EF JUMPI JUMP JUMPDEST PUSH32 0xFFFFFFFFFFFFFFFFFFFFFFFFFFFFFFFFFFFFFFFFFFFFFFFFFFFFFFFFFFFFFFE0 PUSH1 0x1F PUSH1 0x20 PUSH1 0x40 SWAP5 DUP2 DUP6 MSTORE DUP1 MLOAD SWAP2 DUP3 SWAP2 DUP3 DUP3 DUP9 ADD MSTORE ADD DUP7 DUP7 ADD MCOPY PUSH0 DUP6 DUP3 DUP7 ADD ADD MSTORE ADD AND ADD ADD SWAP1 JUMP JUMPDEST SWAP1 PUSH1 0x1F PUSH32 0xFFFFFFFFFFFFFFFFFFFFFFFFFFFFFFFFFFFFFFFFFFFFFFFFFFFFFFFFFFFFFFE0 SWAP2 ADD AND DUP2 ADD SWAP1 DUP2 LT PUSH8 0xFFFFFFFFFFFFFFFF DUP3 GT OR PUSH2 0x247A JUMPI PUSH1 0x40 MSTORE JUMP JUMPDEST PUSH32 0x4E487B7100000000000000000000000000000000000000000000000000000000 PUSH0 MSTORE PUSH1 0x41 PUSH1 0x4 MSTORE PUSH1 0x24 PUSH0 REVERT JUMPDEST PUSH8 0xFFFFFFFFFFFFFFFF DUP2 GT PUSH2 0x247A JUMPI PUSH1 0x1F ADD PUSH32 0xFFFFFFFFFFFFFFFFFFFFFFFFFFFFFFFFFFFFFFFFFFFFFFFFFFFFFFFFFFFFFFE0 AND PUSH1 0x20 ADD SWAP1 JUMP JUMPDEST SWAP3 SWAP2 SWAP3 PUSH2 0x24ED DUP3 PUSH2 0x24A7 JUMP JUMPDEST SWAP2 PUSH2 0x24FB PUSH1 0x40 MLOAD SWAP4 DUP5 PUSH2 0x2439 JUMP JUMPDEST DUP3 SWAP5 DUP2 DUP5 MSTORE DUP2 DUP4 ADD GT PUSH2 0x1EF JUMPI DUP3 DUP2 PUSH1 0x20 SWAP4 DUP5 PUSH0 SWAP7 ADD CALLDATACOPY ADD ADD MSTORE JUMP JUMPDEST SWAP1 DUP1 PUSH1 0x1F DUP4 ADD SLT ISZERO PUSH2 0x1EF JUMPI DUP2 PUSH1 0x20 PUSH2 0x2532 SWAP4 CALLDATALOAD SWAP2 ADD PUSH2 0x24E1 JUMP JUMPDEST SWAP1 JUMP JUMPDEST SWAP1 DUP2 PUSH1 0x20 SWAP2 SUB SLT PUSH2 0x1EF JUMPI MLOAD PUSH1 0xFF DUP2 AND DUP2 SUB PUSH2 0x1EF JUMPI SWAP1 JUMP JUMPDEST PUSH1 0xFF AND PUSH1 0x12 SUB SWAP1 PUSH1 0xFF DUP3 GT PUSH2 0x255F JUMPI JUMP JUMPDEST PUSH32 0x4E487B7100000000000000000000000000000000000000000000000000000000 PUSH0 MSTORE PUSH1 0x11 PUSH1 0x4 MSTORE PUSH1 0x24 PUSH0 REVERT JUMPDEST PUSH1 0xFF AND PUSH1 0x4D DUP2 GT PUSH2 0x255F JUMPI PUSH1 0xA EXP SWAP1 JUMP JUMPDEST DUP2 DUP2 MUL SWAP3 SWAP2 DUP2 ISZERO SWAP2 DUP5 DIV EQ OR ISZERO PUSH2 0x255F JUMPI JUMP JUMPDEST DUP2 ISZERO PUSH2 0x25BA JUMPI DIV SWAP1 JUMP JUMPDEST PUSH32 0x4E487B7100000000000000000000000000000000000000000000000000000000 PUSH0 MSTORE PUSH1 0x12 PUSH1 0x4 MSTORE PUSH1 0x24 PUSH0 REVERT JUMPDEST SWAP2 SWAP1 DUP3 SUB SWAP2 DUP3 GT PUSH2 0x255F JUMPI JUMP JUMPDEST SWAP1 DUP2 PUSH1 0x20 SWAP2 SUB SLT PUSH2 0x1EF JUMPI MLOAD DUP1 ISZERO ISZERO DUP2 SUB PUSH2 0x1EF JUMPI SWAP1 JUMP JUMPDEST SWAP1 DUP2 PUSH1 0x20 SWAP2 SUB SLT PUSH2 0x1EF JUMPI MLOAD PUSH1 0x1 PUSH1 0x1 PUSH1 0xA0 SHL SUB DUP2 AND DUP2 SUB PUSH2 0x1EF JUMPI SWAP1 JUMP JUMPDEST SWAP1 PUSH1 0x1 DUP3 DUP2 SHR SWAP3 AND DUP1 ISZERO PUSH2 0x2672 JUMPI JUMPDEST PUSH1 0x20 DUP4 LT EQ PUSH2 0x2645 JUMPI JUMP JUMPDEST PUSH32 0x4E487B7100000000000000000000000000000000000000000000000000000000 PUSH0 MSTORE PUSH1 0x22 PUSH1 0x4 MSTORE PUSH1 0x24 PUSH0 REVERT JUMPDEST SWAP2 PUSH1 0x7F AND SWAP2 PUSH2 0x263A JUMP JUMPDEST SWAP2 SWAP1 DUP3 ADD DUP1 SWAP3 GT PUSH2 0x255F JUMPI JUMP JUMPDEST PUSH1 0x1 PUSH1 0x1 PUSH1 0xA0 SHL SUB DUP1 PUSH1 0x2 SLOAD AND SWAP1 PUSH1 0x40 SWAP1 DUP2 MLOAD PUSH32 0xBB3BA04C00000000000000000000000000000000000000000000000000000000 DUP2 MSTORE PUSH1 0x20 SWAP3 PUSH1 0x4 SWAP2 DUP5 DUP2 DUP5 DUP2 DUP10 GAS STATICCALL SWAP1 DUP2 ISZERO PUSH2 0x77B JUMPI DUP5 DUP5 SWAP3 DUP8 SWAP3 PUSH0 SWAP2 PUSH2 0x297C JUMPI JUMPDEST POP AND SWAP7 DUP4 MLOAD SWAP5 DUP6 DUP1 SWAP3 PUSH32 0x1BF01E9B00000000000000000000000000000000000000000000000000000000 DUP3 MSTORE GAS STATICCALL SWAP3 DUP4 ISZERO PUSH2 0x77B JUMPI PUSH0 SWAP4 PUSH2 0x295D JUMPI JUMPDEST POP DUP4 PUSH0 SLOAD AND SWAP5 DUP3 MLOAD SWAP6 PUSH32 0x70A0823100000000000000000000000000000000000000000000000000000000 SWAP8 DUP9 DUP9 MSTORE ADDRESS DUP5 DUP10 ADD MSTORE DUP3 DUP9 PUSH1 0x24 DUP2 DUP6 GAS STATICCALL SWAP8 DUP9 ISZERO PUSH2 0x7B2 JUMPI PUSH0 SWAP9 PUSH2 0x292E JUMPI JUMPDEST POP DUP7 PUSH1 0x1 SLOAD AND SWAP4 DUP6 MLOAD SWAP10 DUP11 MSTORE ADDRESS DUP2 DUP12 ADD MSTORE DUP4 DUP11 PUSH1 0x24 DUP2 DUP9 GAS STATICCALL SWAP10 DUP11 ISZERO PUSH2 0x28DF JUMPI PUSH0 SWAP11 PUSH2 0x28FF JUMPI JUMPDEST POP DUP9 ISZERO DUP1 PUSH2 0x28F7 JUMPI JUMPDEST PUSH2 0x28E9 JUMPI DUP6 MLOAD PUSH32 0x248391FF00000000000000000000000000000000000000000000000000000000 DUP1 DUP3 MSTORE PUSH1 0x1 PUSH1 0x1 PUSH1 0xA0 SHL SUB SWAP7 DUP8 AND DUP4 DUP4 ADD SWAP1 DUP2 MSTORE SWAP7 DUP10 AND PUSH1 0x20 DUP9 ADD MSTORE PUSH1 0x40 DUP8 ADD SWAP12 SWAP1 SWAP12 MSTORE SWAP5 DUP5 SWAP1 DUP7 SWAP1 DUP2 SWAP1 PUSH1 0x60 ADD SUB DUP2 DUP6 GAS STATICCALL SWAP5 DUP6 ISZERO PUSH2 0x28DF JUMPI PUSH0 SWAP6 PUSH2 0x28B0 JUMPI JUMPDEST POP DUP5 SWAP8 DUP8 AND DUP4 EQ PUSH0 EQ PUSH2 0x281A JUMPI POP POP POP POP POP POP POP PUSH2 0x2532 SWAP3 POP PUSH2 0x267C JUMP JUMPDEST SWAP2 SWAP4 SWAP7 POP SWAP2 SWAP5 SWAP8 PUSH2 0x2857 DUP6 SWAP9 DUP8 SWAP7 MLOAD SWAP11 DUP12 SWAP7 DUP8 SWAP6 DUP7 SWAP6 DUP7 MSTORE DUP6 ADD PUSH1 0x40 SWAP2 SWAP5 SWAP4 SWAP3 SWAP5 PUSH1 0x60 DUP3 ADD SWAP6 PUSH1 0x1 PUSH1 0x1 PUSH1 0xA0 SHL SUB DUP1 SWAP3 AND DUP4 MSTORE AND PUSH1 0x20 DUP3 ADD MSTORE ADD MSTORE JUMP JUMPDEST SUB SWAP2 GAS STATICCALL SWAP3 DUP4 ISZERO PUSH2 0x28A7 JUMPI POP PUSH0 SWAP3 PUSH2 0x2875 JUMPI JUMPDEST POP PUSH2 0x2532 SWAP3 POP PUSH2 0x267C JUMP JUMPDEST SWAP1 SWAP2 POP DUP3 DUP2 RETURNDATASIZE DUP4 GT PUSH2 0x28A0 JUMPI JUMPDEST PUSH2 0x288C DUP2 DUP4 PUSH2 0x2439 JUMP JUMPDEST DUP2 ADD SUB SLT PUSH2 0x1EF JUMPI PUSH2 0x2532 SWAP2 MLOAD SWAP1 PUSH0 PUSH2 0x286A JUMP JUMPDEST POP RETURNDATASIZE PUSH2 0x2882 JUMP JUMPDEST MLOAD RETURNDATASIZE PUSH0 DUP3 RETURNDATACOPY RETURNDATASIZE SWAP1 REVERT JUMPDEST SWAP1 SWAP5 POP DUP4 DUP2 DUP2 RETURNDATASIZE DUP4 GT PUSH2 0x28D8 JUMPI JUMPDEST PUSH2 0x28C8 DUP2 DUP4 PUSH2 0x2439 JUMP JUMPDEST DUP2 ADD SUB SLT PUSH2 0x1EF JUMPI MLOAD SWAP4 PUSH0 PUSH2 0x27FC JUMP JUMPDEST POP RETURNDATASIZE PUSH2 0x28BE JUMP JUMPDEST DUP7 MLOAD RETURNDATASIZE PUSH0 DUP3 RETURNDATACOPY RETURNDATASIZE SWAP1 REVERT JUMPDEST POP POP POP POP POP POP POP POP POP POP PUSH0 SWAP1 JUMP JUMPDEST POP DUP10 ISZERO PUSH2 0x2794 JUMP JUMPDEST SWAP1 SWAP10 POP DUP4 DUP2 DUP2 RETURNDATASIZE DUP4 GT PUSH2 0x2927 JUMPI JUMPDEST PUSH2 0x2917 DUP2 DUP4 PUSH2 0x2439 JUMP JUMPDEST DUP2 ADD SUB SLT PUSH2 0x1EF JUMPI MLOAD SWAP9 PUSH0 PUSH2 0x278B JUMP JUMPDEST POP RETURNDATASIZE PUSH2 0x290D JUMP JUMPDEST SWAP1 SWAP8 POP DUP3 DUP2 DUP2 RETURNDATASIZE DUP4 GT PUSH2 0x2956 JUMPI JUMPDEST PUSH2 0x2946 DUP2 DUP4 PUSH2 0x2439 JUMP JUMPDEST DUP2 ADD SUB SLT PUSH2 0x1EF JUMPI MLOAD SWAP7 PUSH0 PUSH2 0x2764 JUMP JUMPDEST POP RETURNDATASIZE PUSH2 0x293C JUMP JUMPDEST PUSH2 0x2975 SWAP2 SWAP4 POP DUP6 RETURNDATASIZE DUP8 GT PUSH2 0x7E2 JUMPI PUSH2 0x7D4 DUP2 DUP4 PUSH2 0x2439 JUMP JUMPDEST SWAP2 PUSH0 PUSH2 0x271B JUMP JUMPDEST PUSH2 0x2993 SWAP2 POP DUP4 RETURNDATASIZE DUP6 GT PUSH2 0x7E2 JUMPI PUSH2 0x7D4 DUP2 DUP4 PUSH2 0x2439 JUMP JUMPDEST PUSH0 PUSH2 0x26DF JUMP JUMPDEST PUSH2 0x29A1 PUSH2 0x34B4 JUMP JUMPDEST PUSH2 0x29A9 PUSH2 0x34B4 JUMP JUMPDEST PUSH2 0x29B2 CALLER PUSH2 0x30AE JUMP JUMPDEST PUSH2 0x29BA PUSH2 0x34B4 JUMP JUMPDEST PUSH2 0x29C2 PUSH2 0x34B4 JUMP JUMPDEST DUP1 MLOAD SWAP1 PUSH8 0xFFFFFFFFFFFFFFFF SWAP2 DUP3 DUP2 GT PUSH2 0x247A JUMPI PUSH32 0x52C63247E1F47DB19D5CE0460030C497F067CA4CEBF71BA98EEADABE20BACE03 SWAP1 DUP1 PUSH2 0x2A03 DUP4 SLOAD PUSH2 0x262B JUMP JUMPDEST SWAP4 PUSH1 0x1F SWAP5 DUP6 DUP2 GT PUSH2 0x2E56 JUMPI JUMPDEST POP PUSH1 0x20 SWAP1 DUP6 DUP4 GT PUSH1 0x1 EQ PUSH2 0x2D9A JUMPI PUSH0 SWAP3 PUSH2 0x2D8F JUMPI JUMPDEST POP POP PUSH32 0xFFFFFFFFFFFFFFFFFFFFFFFFFFFFFFFFFFFFFFFFFFFFFFFFFFFFFFFFFFFFFFFF DUP3 PUSH1 0x1 SHL SWAP3 PUSH1 0x3 SHL SHR NOT AND OR SWAP1 SSTORE JUMPDEST DUP3 MLOAD SWAP2 DUP3 GT PUSH2 0x247A JUMPI DUP2 SWAP1 PUSH32 0x52C63247E1F47DB19D5CE0460030C497F067CA4CEBF71BA98EEADABE20BACE04 SWAP4 PUSH2 0x2A8D DUP6 SLOAD PUSH2 0x262B JUMP JUMPDEST DUP3 DUP2 GT PUSH2 0x2D21 JUMPI JUMPDEST POP PUSH1 0x20 SWAP2 DUP4 GT PUSH1 0x1 EQ PUSH2 0x2C65 JUMPI PUSH0 SWAP3 PUSH2 0x2C5A JUMPI JUMPDEST POP POP PUSH32 0xFFFFFFFFFFFFFFFFFFFFFFFFFFFFFFFFFFFFFFFFFFFFFFFFFFFFFFFFFFFFFFFF DUP3 PUSH1 0x1 SHL SWAP3 PUSH1 0x3 SHL SHR NOT AND OR SWAP1 SSTORE JUMPDEST PUSH2 0x2AE3 PUSH2 0x34B4 JUMP JUMPDEST PUSH2 0x2AEB PUSH2 0x34B4 JUMP JUMPDEST PUSH2 0x2AF3 PUSH2 0x34B4 JUMP JUMPDEST PUSH1 0x1 PUSH32 0x9B779B17422D0DF92223018B32B4D1FA46E071723D6817E2486D003BECC55F00 SSTORE PUSH2 0x2B1F PUSH2 0x34B4 JUMP JUMPDEST PUSH2 0x2B27 PUSH2 0x34B4 JUMP JUMPDEST PUSH32 0xCD5ED15C6E187E77E9AEE88184C21F4F2182AB5827CB3B7E07FBEDCD63F03300 PUSH32 0xFFFFFFFFFFFFFFFFFFFFFFFFFFFFFFFFFFFFFFFFFFFFFFFFFFFFFFFFFFFFFF00 DUP2 SLOAD AND SWAP1 SSTORE PUSH1 0x1 PUSH1 0x1 PUSH1 0xA0 SHL SUB DUP1 SWAP2 AND SWAP3 DUP2 PUSH32 0xFFFFFFFFFFFFFFFFFFFFFFFF0000000000000000000000000000000000000000 SWAP4 DUP6 DUP6 PUSH0 SLOAD AND OR PUSH0 SSTORE AND DUP4 PUSH1 0x1 SLOAD AND OR PUSH1 0x1 SSTORE AND SWAP1 PUSH1 0x2 SLOAD AND OR PUSH1 0x2 SSTORE PUSH2 0x168 SWAP1 DUP3 DUP3 MUL SWAP2 DUP3 DIV DUP4 SUB PUSH2 0x255F JUMPI PUSH1 0x4 SWAP3 PUSH1 0x20 SWAP3 PUSH1 0x7 SSTORE PUSH1 0x8 SSTORE NUMBER PUSH1 0x5 SSTORE PUSH1 0x40 MLOAD SWAP3 DUP4 DUP1 SWAP3 PUSH32 0x313CE56700000000000000000000000000000000000000000000000000000000 DUP3 MSTORE GAS STATICCALL DUP1 ISZERO PUSH2 0x2C4F JUMPI PUSH2 0x2C1C SWAP2 PUSH0 SWAP2 PUSH2 0x2C30 JUMPI JUMPDEST POP PUSH2 0x258C JUMP JUMPDEST PUSH2 0x2710 SWAP1 DUP1 DUP3 MUL SWAP2 DUP3 DIV SUB PUSH2 0x255F JUMPI PUSH1 0x6 SSTORE JUMP JUMPDEST PUSH2 0x2C49 SWAP2 POP PUSH1 0x20 RETURNDATASIZE PUSH1 0x20 GT PUSH2 0x11ED JUMPI PUSH2 0x11DF DUP2 DUP4 PUSH2 0x2439 JUMP JUMPDEST PUSH0 PUSH2 0x2C16 JUMP JUMPDEST PUSH1 0x40 MLOAD RETURNDATASIZE PUSH0 DUP3 RETURNDATACOPY RETURNDATASIZE SWAP1 REVERT JUMPDEST ADD MLOAD SWAP1 POP PUSH0 DUP1 PUSH2 0x2AA9 JUMP JUMPDEST PUSH0 DUP6 DUP2 MSTORE PUSH32 0x46A2803E59A4DE4E7A4C574B1243F25977AC4C77D5A1A4A609B5394CEBB4A2AA SWAP4 PUSH32 0xFFFFFFFFFFFFFFFFFFFFFFFFFFFFFFFFFFFFFFFFFFFFFFFFFFFFFFFFFFFFFFE0 AND SWAP1 JUMPDEST DUP2 DUP2 LT PUSH2 0x2D09 JUMPI POP SWAP1 DUP5 PUSH1 0x1 SWAP6 SWAP5 SWAP4 SWAP3 LT PUSH2 0x2CD2 JUMPI JUMPDEST POP POP POP DUP2 SHL ADD SWAP1 SSTORE PUSH2 0x2ADB JUMP JUMPDEST ADD MLOAD PUSH32 0xFFFFFFFFFFFFFFFFFFFFFFFFFFFFFFFFFFFFFFFFFFFFFFFFFFFFFFFFFFFFFFFF PUSH1 0xF8 DUP5 PUSH1 0x3 SHL AND SHR NOT AND SWAP1 SSTORE PUSH0 DUP1 DUP1 PUSH2 0x2CC5 JUMP JUMPDEST SWAP3 SWAP4 PUSH1 0x20 PUSH1 0x1 DUP2 SWAP3 DUP8 DUP7 ADD MLOAD DUP2 SSTORE ADD SWAP6 ADD SWAP4 ADD PUSH2 0x2CAF JUMP JUMPDEST SWAP1 SWAP2 SWAP3 POP DUP5 PUSH0 MSTORE PUSH32 0x46A2803E59A4DE4E7A4C574B1243F25977AC4C77D5A1A4A609B5394CEBB4A2AA DUP4 DUP1 DUP7 ADD PUSH1 0x5 SHR DUP3 ADD SWAP3 PUSH1 0x20 DUP8 LT PUSH2 0x2D86 JUMPI JUMPDEST SWAP5 DUP7 SWAP6 SWAP5 SWAP4 SWAP3 SWAP2 SWAP5 ADD PUSH1 0x5 SHR ADD SWAP1 JUMPDEST DUP2 DUP2 LT PUSH2 0x2D78 JUMPI POP PUSH2 0x2A95 JUMP JUMPDEST PUSH0 DUP2 SSTORE DUP6 SWAP5 POP PUSH1 0x1 ADD PUSH2 0x2D6B JUMP JUMPDEST SWAP3 POP DUP2 SWAP3 PUSH2 0x2D5C JUMP JUMPDEST ADD MLOAD SWAP1 POP PUSH0 DUP1 PUSH2 0x2A24 JUMP JUMPDEST PUSH0 DUP6 DUP2 MSTORE PUSH32 0x2AE08A8E29253F69AC5D979A101956AB8F8D9D7DED63FA7A83B16FC47648EAB0 SWAP4 PUSH32 0xFFFFFFFFFFFFFFFFFFFFFFFFFFFFFFFFFFFFFFFFFFFFFFFFFFFFFFFFFFFFFFE0 AND SWAP1 JUMPDEST DUP2 DUP2 LT PUSH2 0x2E3E JUMPI POP SWAP1 DUP5 PUSH1 0x1 SWAP6 SWAP5 SWAP4 SWAP3 LT PUSH2 0x2E07 JUMPI JUMPDEST POP POP POP DUP2 SHL ADD SWAP1 SSTORE PUSH2 0x2A56 JUMP JUMPDEST ADD MLOAD PUSH32 0xFFFFFFFFFFFFFFFFFFFFFFFFFFFFFFFFFFFFFFFFFFFFFFFFFFFFFFFFFFFFFFFF PUSH1 0xF8 DUP5 PUSH1 0x3 SHL AND SHR NOT AND SWAP1 SSTORE PUSH0 DUP1 DUP1 PUSH2 0x2DFA JUMP JUMPDEST SWAP3 SWAP4 PUSH1 0x20 PUSH1 0x1 DUP2 SWAP3 DUP8 DUP7 ADD MLOAD DUP2 SSTORE ADD SWAP6 ADD SWAP4 ADD PUSH2 0x2DE4 JUMP JUMPDEST SWAP1 SWAP2 POP DUP4 PUSH0 MSTORE PUSH32 0x2AE08A8E29253F69AC5D979A101956AB8F8D9D7DED63FA7A83B16FC47648EAB0 DUP6 DUP1 DUP6 ADD PUSH1 0x5 SHR DUP3 ADD SWAP3 PUSH1 0x20 DUP7 LT PUSH2 0x2EB8 JUMPI JUMPDEST SWAP1 DUP6 SWAP5 SWAP4 SWAP3 SWAP2 ADD PUSH1 0x5 SHR ADD SWAP1 JUMPDEST DUP2 DUP2 LT PUSH2 0x2EAA JUMPI POP PUSH2 0x2A0F JUMP JUMPDEST PUSH0 DUP2 SSTORE DUP5 SWAP4 POP PUSH1 0x1 ADD PUSH2 0x2E9D JUMP JUMPDEST SWAP3 POP DUP2 SWAP3 PUSH2 0x2E90 JUMP JUMPDEST PUSH1 0x24 PUSH1 0x20 PUSH1 0x1 PUSH1 0x1 PUSH1 0xA0 SHL SUB PUSH0 SLOAD AND PUSH1 0x40 MLOAD SWAP3 DUP4 DUP1 SWAP3 PUSH32 0x70A0823100000000000000000000000000000000000000000000000000000000 DUP3 MSTORE ADDRESS PUSH1 0x4 DUP4 ADD MSTORE GAS STATICCALL SWAP1 DUP2 ISZERO PUSH2 0x2C4F JUMPI PUSH0 SWAP2 PUSH2 0x2F42 JUMPI JUMPDEST POP PUSH2 0x2F24 PUSH2 0x2F2D SWAP2 PUSH2 0x1D64 PUSH1 0x5 SLOAD NUMBER PUSH2 0x25E7 JUMP JUMPDEST PUSH1 0x7 SLOAD SWAP1 PUSH2 0x25B0 JUMP JUMPDEST PUSH1 0x6 SLOAD SWAP1 DUP2 DUP2 GT ISZERO PUSH2 0x2F3D JUMPI POP SWAP1 JUMP JUMPDEST SWAP1 POP SWAP1 JUMP JUMPDEST SWAP1 POP PUSH1 0x20 DUP2 RETURNDATASIZE PUSH1 0x20 GT PUSH2 0x2F6E JUMPI JUMPDEST DUP2 PUSH2 0x2F5D PUSH1 0x20 SWAP4 DUP4 PUSH2 0x2439 JUMP JUMPDEST DUP2 ADD SUB SLT PUSH2 0x1EF JUMPI MLOAD PUSH2 0x2F24 PUSH2 0x2F10 JUMP JUMPDEST RETURNDATASIZE SWAP2 POP PUSH2 0x2F50 JUMP JUMPDEST PUSH32 0x52C63247E1F47DB19D5CE0460030C497F067CA4CEBF71BA98EEADABE20BACE02 SLOAD DUP1 ISZERO PUSH2 0x30A9 JUMPI PUSH1 0x1 PUSH1 0x1 PUSH1 0xA0 SHL SUB DUP1 PUSH1 0x2 SLOAD AND SWAP1 PUSH1 0x40 MLOAD DUP1 SWAP3 PUSH32 0x1BF01E9B00000000000000000000000000000000000000000000000000000000 DUP3 MSTORE DUP2 PUSH1 0x4 PUSH1 0x20 SWAP6 DUP7 SWAP4 GAS STATICCALL DUP1 ISZERO PUSH2 0x2C4F JUMPI DUP4 SWAP2 PUSH0 SWAP2 PUSH2 0x308C JUMPI JUMPDEST POP PUSH1 0x4 PUSH1 0x40 MLOAD DUP1 SWAP5 DUP2 SWAP4 PUSH32 0x313CE56700000000000000000000000000000000000000000000000000000000 DUP4 MSTORE AND GAS STATICCALL SWAP2 DUP3 ISZERO PUSH2 0x2C4F JUMPI PUSH2 0x304B SWAP3 PUSH2 0x303E SWAP3 PUSH2 0x10CA SWAP3 PUSH0 SWAP3 PUSH2 0x306F JUMPI JUMPDEST POP POP PUSH2 0x254E JUMP JUMPDEST PUSH2 0x3046 PUSH2 0x2689 JUMP JUMPDEST PUSH2 0x259D JUMP JUMPDEST SWAP1 PUSH8 0xDE0B6B3A7640000 SWAP2 DUP3 DUP2 MUL SWAP3 DUP2 DUP5 DIV EQ SWAP1 ISZERO OR ISZERO PUSH2 0x255F JUMPI PUSH2 0x2532 SWAP2 PUSH2 0x25B0 JUMP JUMPDEST PUSH2 0x3085 SWAP3 POP DUP1 RETURNDATASIZE LT PUSH2 0x11ED JUMPI PUSH2 0x11DF DUP2 DUP4 PUSH2 0x2439 JUMP JUMPDEST PUSH0 DUP1 PUSH2 0x3037 JUMP JUMPDEST PUSH2 0x30A3 SWAP2 POP DUP3 RETURNDATASIZE DUP5 GT PUSH2 0x7E2 JUMPI PUSH2 0x7D4 DUP2 DUP4 PUSH2 0x2439 JUMP JUMPDEST PUSH0 PUSH2 0x2FED JUMP JUMPDEST POP PUSH0 SWAP1 JUMP JUMPDEST PUSH1 0x1 PUSH1 0x1 PUSH1 0xA0 SHL SUB DUP1 SWAP2 AND SWAP1 DUP2 ISZERO PUSH2 0x3132 JUMPI PUSH32 0x9016D09D72D40FDAE2FD8CEAC6B6234C7706214FD39C1CD1E609A0528C199300 DUP1 SLOAD SWAP1 DUP4 PUSH32 0xFFFFFFFFFFFFFFFFFFFFFFFF0000000000000000000000000000000000000000 DUP4 AND OR SWAP1 SSTORE AND PUSH32 0x8BE0079C531659141344CD1FD0A4F28419497F9722A3DAAFE3B4186F6B6457E0 PUSH0 DUP1 LOG3 JUMP JUMPDEST PUSH1 0x24 PUSH1 0x40 MLOAD PUSH32 0x1E4FBDF700000000000000000000000000000000000000000000000000000000 DUP2 MSTORE PUSH0 PUSH1 0x4 DUP3 ADD MSTORE REVERT JUMPDEST PUSH32 0x9B779B17422D0DF92223018B32B4D1FA46E071723D6817E2486D003BECC55F00 PUSH1 0x2 DUP2 SLOAD EQ PUSH2 0x3192 JUMPI PUSH1 0x2 SWAP1 SSTORE JUMP JUMPDEST PUSH1 0x4 PUSH1 0x40 MLOAD PUSH32 0x3EE5AEB500000000000000000000000000000000000000000000000000000000 DUP2 MSTORE REVERT JUMPDEST PUSH1 0xFF PUSH32 0xCD5ED15C6E187E77E9AEE88184C21F4F2182AB5827CB3B7E07FBEDCD63F03300 SLOAD AND PUSH2 0x31E7 JUMPI JUMP JUMPDEST PUSH1 0x4 PUSH1 0x40 MLOAD PUSH32 0xD93C066500000000000000000000000000000000000000000000000000000000 DUP2 MSTORE REVERT JUMPDEST PUSH1 0x1 PUSH1 0x1 PUSH1 0xA0 SHL SUB PUSH1 0x2 SLOAD AND PUSH1 0x40 MLOAD SWAP2 PUSH32 0x85462D6F00000000000000000000000000000000000000000000000000000000 DUP4 MSTORE PUSH1 0x20 SWAP2 DUP3 DUP5 PUSH1 0x4 DUP2 DUP5 GAS STATICCALL SWAP4 DUP5 ISZERO PUSH2 0x2C4F JUMPI PUSH0 SWAP5 PUSH2 0x32DD JUMPI JUMPDEST POP DUP3 PUSH1 0x4 SWAP2 PUSH1 0x40 MLOAD SWAP3 DUP4 DUP1 SWAP3 PUSH32 0x4F4608A200000000000000000000000000000000000000000000000000000000 DUP3 MSTORE GAS STATICCALL SWAP3 DUP4 ISZERO PUSH2 0x2C4F JUMPI PUSH0 SWAP4 PUSH2 0x32AB JUMPI JUMPDEST POP POP PUSH2 0x2532 SWAP3 PUSH2 0x1DAC SWAP2 PUSH2 0x259D JUMP JUMPDEST SWAP1 DUP1 SWAP3 SWAP4 POP DUP2 RETURNDATASIZE DUP4 GT PUSH2 0x32D6 JUMPI JUMPDEST PUSH2 0x32C3 DUP2 DUP4 PUSH2 0x2439 JUMP JUMPDEST DUP2 ADD SUB SLT PUSH2 0x1EF JUMPI MLOAD SWAP1 DUP3 PUSH2 0x1DAC PUSH2 0x329C JUMP JUMPDEST POP RETURNDATASIZE PUSH2 0x32B9 JUMP JUMPDEST SWAP1 SWAP4 POP DUP3 DUP2 DUP2 RETURNDATASIZE DUP4 GT PUSH2 0x3305 JUMPI JUMPDEST PUSH2 0x32F5 DUP2 DUP4 PUSH2 0x2439 JUMP JUMPDEST DUP2 ADD SUB SLT PUSH2 0x1EF JUMPI MLOAD SWAP3 DUP3 PUSH2 0x325D JUMP JUMPDEST POP RETURNDATASIZE PUSH2 0x32EB JUMP JUMPDEST PUSH1 0x1 PUSH1 0x1 PUSH1 0xA0 SHL SUB PUSH32 0x9016D09D72D40FDAE2FD8CEAC6B6234C7706214FD39C1CD1E609A0528C199300 SLOAD AND CALLER SUB PUSH2 0x333F JUMPI JUMP JUMPDEST PUSH1 0x24 PUSH1 0x40 MLOAD PUSH32 0x118CDAA700000000000000000000000000000000000000000000000000000000 DUP2 MSTORE CALLER PUSH1 0x4 DUP3 ADD MSTORE REVERT JUMPDEST SWAP2 PUSH1 0x1 PUSH1 0x1 PUSH1 0xA0 SHL SUB DUP1 DUP5 AND SWAP3 DUP4 ISZERO PUSH2 0x3484 JUMPI AND SWAP3 DUP4 ISZERO PUSH2 0x3454 JUMPI DUP3 PUSH0 MSTORE PUSH32 0x52C63247E1F47DB19D5CE0460030C497F067CA4CEBF71BA98EEADABE20BACE00 DUP1 PUSH1 0x20 MSTORE PUSH1 0x40 PUSH0 KECCAK256 SLOAD SWAP2 DUP4 DUP4 LT PUSH2 0x3408 JUMPI POP SWAP2 DUP1 PUSH1 0x20 SWAP3 PUSH32 0xDDF252AD1BE2C89B69C2B068FC378DAA952BA7F163C4A11628F55A4DF523B3EF SWAP5 DUP7 PUSH0 MSTORE DUP5 MSTORE SUB PUSH1 0x40 PUSH0 KECCAK256 SSTORE DUP5 PUSH0 MSTORE PUSH1 0x40 PUSH0 KECCAK256 DUP2 DUP2 SLOAD ADD SWAP1 SSTORE PUSH1 0x40 MLOAD SWAP1 DUP2 MSTORE LOG3 JUMP JUMPDEST PUSH1 0x40 MLOAD PUSH32 0xE450D38C00000000000000000000000000000000000000000000000000000000 DUP2 MSTORE PUSH1 0x1 PUSH1 0x1 PUSH1 0xA0 SHL SUB SWAP2 SWAP1 SWAP2 AND PUSH1 0x4 DUP3 ADD MSTORE PUSH1 0x24 DUP2 ADD SWAP3 SWAP1 SWAP3 MSTORE POP PUSH1 0x44 DUP2 ADD DUP3 SWAP1 MSTORE PUSH1 0x64 SWAP1 REVERT JUMPDEST PUSH1 0x24 PUSH1 0x40 MLOAD PUSH32 0xEC442F0500000000000000000000000000000000000000000000000000000000 DUP2 MSTORE PUSH0 PUSH1 0x4 DUP3 ADD MSTORE REVERT JUMPDEST PUSH1 0x24 PUSH1 0x40 MLOAD PUSH32 0x96C6FD1E00000000000000000000000000000000000000000000000000000000 DUP2 MSTORE PUSH0 PUSH1 0x4 DUP3 ADD MSTORE REVERT JUMPDEST PUSH1 0xFF PUSH32 0xF0C57E16840DF040F15088DC2F81FE391C3923BEC73E23A9662EFC9C229C6A00 SLOAD PUSH1 0x40 SHR AND ISZERO PUSH2 0x34E3 JUMPI JUMP JUMPDEST PUSH1 0x4 PUSH1 0x40 MLOAD PUSH32 0xD7E6BCF800000000000000000000000000000000000000000000000000000000 DUP2 MSTORE REVERT JUMPDEST SWAP1 PUSH2 0x354C JUMPI POP DUP1 MLOAD ISZERO PUSH2 0x3522 JUMPI DUP1 MLOAD SWAP1 PUSH1 0x20 ADD REVERT JUMPDEST PUSH1 0x4 PUSH1 0x40 MLOAD PUSH32 0x1425EA4200000000000000000000000000000000000000000000000000000000 DUP2 MSTORE REVERT JUMPDEST DUP2 MLOAD ISZERO DUP1 PUSH2 0x3597 JUMPI JUMPDEST PUSH2 0x355D JUMPI POP SWAP1 JUMP JUMPDEST PUSH1 0x24 SWAP1 PUSH1 0x1 PUSH1 0x1 PUSH1 0xA0 SHL SUB PUSH1 0x40 MLOAD SWAP2 PUSH32 0x9996B31500000000000000000000000000000000000000000000000000000000 DUP4 MSTORE AND PUSH1 0x4 DUP3 ADD MSTORE REVERT JUMPDEST POP DUP1 EXTCODESIZE ISZERO PUSH2 0x3555 JUMP INVALID LOG2 PUSH5 0x6970667358 0x22 SLT KECCAK256 ADDRESS LOG2 0xE4 JUMP 0xCB DUP1 0xE1 RETURNDATASIZE ADDRESS 0xBB GASPRICE SWAP15 SHL GASLIMIT SAR 0xD5 LT BLOBHASH 0x4E 0x2A MSTORE 0x2A 0x2E 0xB1 0x26 0xB9 BYTE 0xE8 MUL 0xB3 0xCF 0xEE PUSH5 0x736F6C6343 STOP ADDMOD NOT STOP CALLER "},"gasEstimates":{"creation":{"codeDepositCost":"2756400","executionCost":"infinite","totalCost":"infinite"},"external":{"UPGRADE_INTERFACE_VERSION()":"899","accumulatedAssetB()":"3078","allowance(address,address)":"3265","approve(address,uint256)":"24386","balanceOf(address)":"2743","baseAsset()":"2874","canSystemDeposit()":"infinite","changeReinvestDuration(uint256)":"47350","decimals()":"311","deposit(uint256,address)":"infinite","executors(address)":"2887","getAmountToSwap()":"infinite","initialize(string,string,address,address,address,uint256)":"infinite","lastDeposit()":"2436","lastInvestedBlock()":"2813","maxPerSwap()":"2923","name()":"infinite","owner()":"2699","pause()":"30091","paused()":"2561","proxiableUUID()":"infinite","quoteAsset()":"3113","registry()":"2655","reinitialize(string,string,address,address,address,uint256,uint64)":"infinite","reinvestDuration()":"2505","renounceOwnership()":"28395","setExecutor(address,bool)":"26812","swapDuration()":"2791","symbol()":"infinite","systemDeposit()":"infinite","totalSupply()":"2329","totalValuation()":"infinite","transfer(address,uint256)":"51238","transferFrom(address,address,uint256)":"75624","transferOwnership(address)":"28945","unitPrice()":"infinite","unpause()":"27778","upgradeToAndCall(address,bytes)":"infinite","withdraw(uint256,address)":"infinite"},"internal":{"_authorizeUpgrade(address)":"infinite","_haircut(uint256)":"infinite"}},"methodIdentifiers":{"UPGRADE_INTERFACE_VERSION()":"ad3cb1cc","accumulatedAssetB()":"f7fde10f","allowance(address,address)":"dd62ed3e","approve(address,uint256)":"095ea7b3","balanceOf(address)":"70a08231","baseAsset()":"cdf456e1","canSystemDeposit()":"f267d91b","changeReinvestDuration(uint256)":"f661af29","decimals()":"313ce567","deposit(uint256,address)":"6e553f65","executors(address)":"9ac2a011","getAmountToSwap()":"d9d47d69","initialize(string,string,address,address,address,uint256)":"edf3e29e","lastDeposit()":"36b77107","lastInvestedBlock()":"bc4ba731","maxPerSwap()":"db48a5e3","name()":"06fdde03","owner()":"8da5cb5b","pause()":"8456cb59","paused()":"5c975abb","proxiableUUID()":"52d1902d","quoteAsset()":"fdf262b7","registry()":"7b103999","reinitialize(string,string,address,address,address,uint256,uint64)":"c80b0baf","reinvestDuration()":"4fe84c42","renounceOwnership()":"715018a6","setExecutor(address,bool)":"1e1bff3f","swapDuration()":"b3404efd","symbol()":"95d89b41","systemDeposit()":"d53419a3","totalSupply()":"18160ddd","totalValuation()":"295b9300","transfer(address,uint256)":"a9059cbb","transferFrom(address,address,uint256)":"23b872dd","transferOwnership(address)":"f2fde38b","unitPrice()":"e73faa2d","unpause()":"3f4ba83a","upgradeToAndCall(address,bytes)":"4f1ef286","withdraw(uint256,address)":"00f714ce"}},"storageLayout":{"storage":[{"astId":2876,"contract":"contracts/vaults/BaluniV1DCAVault.sol:BaluniV1DCAVault","label":"baseAsset","offset":0,"slot":"0","type":"t_address"},{"astId":2878,"contract":"contracts/vaults/BaluniV1DCAVault.sol:BaluniV1DCAVault","label":"quoteAsset","offset":0,"slot":"1","type":"t_address"},{"astId":2881,"contract":"contracts/vaults/BaluniV1DCAVault.sol:BaluniV1DCAVault","label":"_registry","offset":0,"slot":"2","type":"t_contract(IBaluniV1Registry)2817"},{"astId":2883,"contract":"contracts/vaults/BaluniV1DCAVault.sol:BaluniV1DCAVault","label":"accumulatedAssetB","offset":0,"slot":"3","type":"t_uint256"},{"astId":2885,"contract":"contracts/vaults/BaluniV1DCAVault.sol:BaluniV1DCAVault","label":"lastDeposit","offset":0,"slot":"4","type":"t_uint256"},{"astId":2887,"contract":"contracts/vaults/BaluniV1DCAVault.sol:BaluniV1DCAVault","label":"lastInvestedBlock","offset":0,"slot":"5","type":"t_uint256"},{"astId":2889,"contract":"contracts/vaults/BaluniV1DCAVault.sol:BaluniV1DCAVault","label":"maxPerSwap","offset":0,"slot":"6","type":"t_uint256"},{"astId":2891,"contract":"contracts/vaults/BaluniV1DCAVault.sol:BaluniV1DCAVault","label":"swapDuration","offset":0,"slot":"7","type":"t_uint256"},{"astId":2893,"contract":"contracts/vaults/BaluniV1DCAVault.sol:BaluniV1DCAVault","label":"reinvestDuration","offset":0,"slot":"8","type":"t_uint256"},{"astId":2897,"contract":"contracts/vaults/BaluniV1DCAVault.sol:BaluniV1DCAVault","label":"executors","offset":0,"slot":"9","type":"t_mapping(t_address,t_bool)"}],"types":{"t_address":{"encoding":"inplace","label":"address","numberOfBytes":"20"},"t_bool":{"encoding":"inplace","label":"bool","numberOfBytes":"1"},"t_contract(IBaluniV1Registry)2817":{"encoding":"inplace","label":"contract IBaluniV1Registry","numberOfBytes":"20"},"t_mapping(t_address,t_bool)":{"encoding":"mapping","key":"t_address","label":"mapping(address => bool)","numberOfBytes":"32","value":"t_bool"},"t_uint256":{"encoding":"inplace","label":"uint256","numberOfBytes":"32"}}},"userdoc":{"kind":"user","methods":{},"version":1}}}}