{"contracts/vaults/BaluniV1YearnVault.sol":{"BaluniV1YearnVault":{"abi":[{"inputs":[{"internalType":"address","name":"target","type":"address"}],"name":"AddressEmptyCode","type":"error"},{"inputs":[{"internalType":"address","name":"implementation","type":"address"}],"name":"ERC1967InvalidImplementation","type":"error"},{"inputs":[],"name":"ERC1967NonPayable","type":"error"},{"inputs":[{"internalType":"address","name":"spender","type":"address"},{"internalType":"uint256","name":"allowance","type":"uint256"},{"internalType":"uint256","name":"needed","type":"uint256"}],"name":"ERC20InsufficientAllowance","type":"error"},{"inputs":[{"internalType":"address","name":"sender","type":"address"},{"internalType":"uint256","name":"balance","type":"uint256"},{"internalType":"uint256","name":"needed","type":"uint256"}],"name":"ERC20InsufficientBalance","type":"error"},{"inputs":[{"internalType":"address","name":"approver","type":"address"}],"name":"ERC20InvalidApprover","type":"error"},{"inputs":[{"internalType":"address","name":"receiver","type":"address"}],"name":"ERC20InvalidReceiver","type":"error"},{"inputs":[{"internalType":"address","name":"sender","type":"address"}],"name":"ERC20InvalidSender","type":"error"},{"inputs":[{"internalType":"address","name":"spender","type":"address"}],"name":"ERC20InvalidSpender","type":"error"},{"inputs":[],"name":"EnforcedPause","type":"error"},{"inputs":[],"name":"ExpectedPause","type":"error"},{"inputs":[],"name":"FailedInnerCall","type":"error"},{"inputs":[],"name":"InvalidInitialization","type":"error"},{"inputs":[],"name":"NotInitializing","type":"error"},{"inputs":[{"internalType":"address","name":"owner","type":"address"}],"name":"OwnableInvalidOwner","type":"error"},{"inputs":[{"internalType":"address","name":"account","type":"address"}],"name":"OwnableUnauthorizedAccount","type":"error"},{"inputs":[],"name":"ReentrancyGuardReentrantCall","type":"error"},{"inputs":[],"name":"UUPSUnauthorizedCallContext","type":"error"},{"inputs":[{"internalType":"bytes32","name":"slot","type":"bytes32"}],"name":"UUPSUnsupportedProxiableUUID","type":"error"},{"anonymous":false,"inputs":[{"indexed":true,"internalType":"address","name":"owner","type":"address"},{"indexed":true,"internalType":"address","name":"spender","type":"address"},{"indexed":false,"internalType":"uint256","name":"value","type":"uint256"}],"name":"Approval","type":"event"},{"anonymous":false,"inputs":[{"indexed":true,"internalType":"address","name":"sender","type":"address"},{"indexed":false,"internalType":"uint256","name":"amount","type":"uint256"},{"indexed":false,"internalType":"uint256","name":"interest","type":"uint256"}],"name":"Buy","type":"event"},{"anonymous":false,"inputs":[{"indexed":false,"internalType":"uint64","name":"version","type":"uint64"}],"name":"Initialized","type":"event"},{"anonymous":false,"inputs":[{"indexed":true,"internalType":"address","name":"previousOwner","type":"address"},{"indexed":true,"internalType":"address","name":"newOwner","type":"address"}],"name":"OwnershipTransferred","type":"event"},{"anonymous":false,"inputs":[{"indexed":false,"internalType":"address","name":"account","type":"address"}],"name":"Paused","type":"event"},{"anonymous":false,"inputs":[{"indexed":true,"internalType":"address","name":"from","type":"address"},{"indexed":true,"internalType":"address","name":"to","type":"address"},{"indexed":false,"internalType":"uint256","name":"value","type":"uint256"}],"name":"Transfer","type":"event"},{"anonymous":false,"inputs":[{"indexed":false,"internalType":"address","name":"account","type":"address"}],"name":"Unpaused","type":"event"},{"anonymous":false,"inputs":[{"indexed":true,"internalType":"address","name":"implementation","type":"address"}],"name":"Upgraded","type":"event"},{"inputs":[],"name":"UPGRADE_INTERFACE_VERSION","outputs":[{"internalType":"string","name":"","type":"string"}],"stateMutability":"view","type":"function"},{"inputs":[],"name":"accumulatedAssetB","outputs":[{"internalType":"uint256","name":"","type":"uint256"}],"stateMutability":"view","type":"function"},{"inputs":[],"name":"allTimeInterest","outputs":[{"internalType":"uint256","name":"","type":"uint256"}],"stateMutability":"view","type":"function"},{"inputs":[{"internalType":"address","name":"owner","type":"address"},{"internalType":"address","name":"spender","type":"address"}],"name":"allowance","outputs":[{"internalType":"uint256","name":"","type":"uint256"}],"stateMutability":"view","type":"function"},{"inputs":[{"internalType":"address","name":"spender","type":"address"},{"internalType":"uint256","name":"value","type":"uint256"}],"name":"approve","outputs":[{"internalType":"bool","name":"","type":"bool"}],"stateMutability":"nonpayable","type":"function"},{"inputs":[{"internalType":"address","name":"account","type":"address"}],"name":"balanceOf","outputs":[{"internalType":"uint256","name":"","type":"uint256"}],"stateMutability":"view","type":"function"},{"inputs":[],"name":"baseAsset","outputs":[{"internalType":"address","name":"","type":"address"}],"stateMutability":"view","type":"function"},{"inputs":[],"name":"buy","outputs":[],"stateMutability":"nonpayable","type":"function"},{"inputs":[],"name":"decimals","outputs":[{"internalType":"uint8","name":"","type":"uint8"}],"stateMutability":"view","type":"function"},{"inputs":[{"internalType":"uint256","name":"amount","type":"uint256"},{"internalType":"address","name":"to","type":"address"}],"name":"deposit","outputs":[],"stateMutability":"nonpayable","type":"function"},{"inputs":[{"internalType":"string","name":"_name","type":"string"},{"internalType":"string","name":"_symbol","type":"string"},{"internalType":"address","name":"_assetA","type":"address"},{"internalType":"address","name":"_yearnVaultAddress","type":"address"},{"internalType":"address","name":"_assetB","type":"address"},{"internalType":"address","name":"_registryAddress","type":"address"}],"name":"initialize","outputs":[],"stateMutability":"nonpayable","type":"function"},{"inputs":[],"name":"interestEarned","outputs":[{"internalType":"uint256","name":"","type":"uint256"}],"stateMutability":"view","type":"function"},{"inputs":[],"name":"lastDeposit","outputs":[{"internalType":"uint256","name":"","type":"uint256"}],"stateMutability":"view","type":"function"},{"inputs":[],"name":"name","outputs":[{"internalType":"string","name":"","type":"string"}],"stateMutability":"view","type":"function"},{"inputs":[],"name":"owner","outputs":[{"internalType":"address","name":"","type":"address"}],"stateMutability":"view","type":"function"},{"inputs":[],"name":"pause","outputs":[],"stateMutability":"nonpayable","type":"function"},{"inputs":[],"name":"paused","outputs":[{"internalType":"bool","name":"","type":"bool"}],"stateMutability":"view","type":"function"},{"inputs":[],"name":"proxiableUUID","outputs":[{"internalType":"bytes32","name":"","type":"bytes32"}],"stateMutability":"view","type":"function"},{"inputs":[],"name":"quoteAsset","outputs":[{"internalType":"address","name":"","type":"address"}],"stateMutability":"view","type":"function"},{"inputs":[],"name":"registry","outputs":[{"internalType":"address","name":"","type":"address"}],"stateMutability":"view","type":"function"},{"inputs":[{"internalType":"string","name":"_name","type":"string"},{"internalType":"string","name":"_symbol","type":"string"},{"internalType":"address","name":"_assetA","type":"address"},{"internalType":"address","name":"_yearnVaultAddress","type":"address"},{"internalType":"address","name":"_assetB","type":"address"},{"internalType":"address","name":"_registryAddress","type":"address"},{"internalType":"uint64","name":"_version","type":"uint64"}],"name":"reinitialize","outputs":[],"stateMutability":"nonpayable","type":"function"},{"inputs":[],"name":"renounceOwnership","outputs":[],"stateMutability":"nonpayable","type":"function"},{"inputs":[],"name":"symbol","outputs":[{"internalType":"string","name":"","type":"string"}],"stateMutability":"view","type":"function"},{"inputs":[],"name":"totalSupply","outputs":[{"internalType":"uint256","name":"","type":"uint256"}],"stateMutability":"view","type":"function"},{"inputs":[],"name":"totalValuation","outputs":[{"internalType":"uint256","name":"","type":"uint256"}],"stateMutability":"view","type":"function"},{"inputs":[{"internalType":"address","name":"to","type":"address"},{"internalType":"uint256","name":"value","type":"uint256"}],"name":"transfer","outputs":[{"internalType":"bool","name":"","type":"bool"}],"stateMutability":"nonpayable","type":"function"},{"inputs":[{"internalType":"address","name":"from","type":"address"},{"internalType":"address","name":"to","type":"address"},{"internalType":"uint256","name":"value","type":"uint256"}],"name":"transferFrom","outputs":[{"internalType":"bool","name":"","type":"bool"}],"stateMutability":"nonpayable","type":"function"},{"inputs":[{"internalType":"address","name":"newOwner","type":"address"}],"name":"transferOwnership","outputs":[],"stateMutability":"nonpayable","type":"function"},{"inputs":[],"name":"unitPrice","outputs":[{"internalType":"uint256","name":"","type":"uint256"}],"stateMutability":"view","type":"function"},{"inputs":[],"name":"unpause","outputs":[],"stateMutability":"nonpayable","type":"function"},{"inputs":[{"internalType":"address","name":"newImplementation","type":"address"},{"internalType":"bytes","name":"data","type":"bytes"}],"name":"upgradeToAndCall","outputs":[],"stateMutability":"payable","type":"function"},{"inputs":[{"internalType":"uint256","name":"shares","type":"uint256"},{"internalType":"address","name":"to","type":"address"}],"name":"withdraw","outputs":[],"stateMutability":"nonpayable","type":"function"},{"inputs":[],"name":"yearnVault","outputs":[{"internalType":"address","name":"","type":"address"}],"stateMutability":"view","type":"function"}],"devdoc":{"errors":{"AddressEmptyCode(address)":[{"details":"There's no code at `target` (it is not a contract)."}],"ERC1967InvalidImplementation(address)":[{"details":"The `implementation` of the proxy is invalid."}],"ERC1967NonPayable()":[{"details":"An upgrade function sees `msg.value > 0` that may be lost."}],"ERC20InsufficientAllowance(address,uint256,uint256)":[{"details":"Indicates a failure with the `spender`’s `allowance`. Used in transfers.","params":{"allowance":"Amount of tokens a `spender` is allowed to operate with.","needed":"Minimum amount required to perform a transfer.","spender":"Address that may be allowed to operate on tokens without being their owner."}}],"ERC20InsufficientBalance(address,uint256,uint256)":[{"details":"Indicates an error related to the current `balance` of a `sender`. Used in transfers.","params":{"balance":"Current balance for the interacting account.","needed":"Minimum amount required to perform a transfer.","sender":"Address whose tokens are being transferred."}}],"ERC20InvalidApprover(address)":[{"details":"Indicates a failure with the `approver` of a token to be approved. Used in approvals.","params":{"approver":"Address initiating an approval operation."}}],"ERC20InvalidReceiver(address)":[{"details":"Indicates a failure with the token `receiver`. Used in transfers.","params":{"receiver":"Address to which tokens are being transferred."}}],"ERC20InvalidSender(address)":[{"details":"Indicates a failure with the token `sender`. Used in transfers.","params":{"sender":"Address whose tokens are being transferred."}}],"ERC20InvalidSpender(address)":[{"details":"Indicates a failure with the `spender` to be approved. Used in approvals.","params":{"spender":"Address that may be allowed to operate on tokens without being their owner."}}],"EnforcedPause()":[{"details":"The operation failed because the contract is paused."}],"ExpectedPause()":[{"details":"The operation failed because the contract is not paused."}],"FailedInnerCall()":[{"details":"A call to an address target failed. The target may have reverted."}],"InvalidInitialization()":[{"details":"The contract is already initialized."}],"NotInitializing()":[{"details":"The contract is not initializing."}],"OwnableInvalidOwner(address)":[{"details":"The owner is not a valid owner account. (eg. `address(0)`)"}],"OwnableUnauthorizedAccount(address)":[{"details":"The caller account is not authorized to perform an operation."}],"ReentrancyGuardReentrantCall()":[{"details":"Unauthorized reentrant call."}],"UUPSUnauthorizedCallContext()":[{"details":"The call is from an unauthorized context."}],"UUPSUnsupportedProxiableUUID(bytes32)":[{"details":"The storage `slot` is unsupported as a UUID."}]},"events":{"Approval(address,address,uint256)":{"details":"Emitted when the allowance of a `spender` for an `owner` is set by a call to {approve}. `value` is the new allowance."},"Initialized(uint64)":{"details":"Triggered when the contract has been initialized or reinitialized."},"Paused(address)":{"details":"Emitted when the pause is triggered by `account`."},"Transfer(address,address,uint256)":{"details":"Emitted when `value` tokens are moved from one account (`from`) to another (`to`). Note that `value` may be zero."},"Unpaused(address)":{"details":"Emitted when the pause is lifted by `account`."},"Upgraded(address)":{"details":"Emitted when the implementation is upgraded."}},"kind":"dev","methods":{"allowance(address,address)":{"details":"See {IERC20-allowance}."},"approve(address,uint256)":{"details":"See {IERC20-approve}. NOTE: If `value` is the maximum `uint256`, the allowance is not updated on `transferFrom`. This is semantically equivalent to an infinite approval. Requirements: - `spender` cannot be the zero address."},"balanceOf(address)":{"details":"See {IERC20-balanceOf}."},"decimals()":{"details":"Returns the number of decimals used to get its user representation. For example, if `decimals` equals `2`, a balance of `505` tokens should be displayed to a user as `5.05` (`505 / 10 ** 2`). Tokens usually opt for a value of 18, imitating the relationship between Ether and Wei. This is the default value returned by this function, unless it's overridden. NOTE: This information is only used for _display_ purposes: it in no way affects any of the arithmetic of the contract, including {IERC20-balanceOf} and {IERC20-transfer}."},"name()":{"details":"Returns the name of the token."},"owner()":{"details":"Returns the address of the current owner."},"paused()":{"details":"Returns true if the contract is paused, and false otherwise."},"proxiableUUID()":{"details":"Implementation of the ERC1822 {proxiableUUID} function. This returns the storage slot used by the implementation. It is used to validate the implementation's compatibility when performing an upgrade. IMPORTANT: A proxy pointing at a proxiable contract should not be considered proxiable itself, because this risks bricking a proxy that upgrades to it, by delegating to itself until out of gas. Thus it is critical that this function revert if invoked through a proxy. This is guaranteed by the `notDelegated` modifier."},"renounceOwnership()":{"details":"Leaves the contract without owner. It will not be possible to call `onlyOwner` functions. Can only be called by the current owner. NOTE: Renouncing ownership will leave the contract without an owner, thereby disabling any functionality that is only available to the owner."},"symbol()":{"details":"Returns the symbol of the token, usually a shorter version of the name."},"totalSupply()":{"details":"See {IERC20-totalSupply}."},"transfer(address,uint256)":{"details":"See {IERC20-transfer}. Requirements: - `to` cannot be the zero address. - the caller must have a balance of at least `value`."},"transferFrom(address,address,uint256)":{"details":"See {IERC20-transferFrom}. Emits an {Approval} event indicating the updated allowance. This is not required by the EIP. See the note at the beginning of {ERC20}. NOTE: Does not update the allowance if the current allowance is the maximum `uint256`. Requirements: - `from` and `to` cannot be the zero address. - `from` must have a balance of at least `value`. - the caller must have allowance for ``from``'s tokens of at least `value`."},"transferOwnership(address)":{"details":"Transfers ownership of the contract to a new account (`newOwner`). Can only be called by the current owner."},"upgradeToAndCall(address,bytes)":{"custom:oz-upgrades-unsafe-allow-reachable":"delegatecall","details":"Upgrade the implementation of the proxy to `newImplementation`, and subsequently execute the function call encoded in `data`. Calls {_authorizeUpgrade}. Emits an {Upgraded} event."}},"version":1},"evm":{"bytecode":{"linkReferences":{},"object":"60a06040523461003e5761001161004d565b610019610043565b616c7261010282396080518181816152fd01528181615382015261557d0152616c7290f35b610049565b60405190565b5f80fd5b610055610057565b565b61005f610061565b565b61006961006b565b565b610073610075565b565b61007d61007f565b565b610087610089565b565b610091610093565b565b61009b61009d565b565b6100a56100a7565b565b6100af6100f3565b565b60018060a01b031690565b90565b6100d36100ce6100d8926100b1565b6100bc565b6100b1565b90565b6100e4906100bf565b90565b6100f0906100db565b90565b6100fc306100e7565b60805256fe60806040526004361015610013575b610fdf565b61001d5f3561022b565b8062f714ce1461022657806306fdde0314610221578063095ea7b31461021c57806318160ddd1461021757806323b872dd14610212578063295b93001461020d578063313ce5671461020857806336b7710714610203578063374261ab146101fe5780633f4ba83a146101f95780634f1ef286146101f457806352d1902d146101ef5780635c975abb146101ea5780636560bc80146101e55780636e553f65146101e057806370a08231146101db578063715018a6146101d65780637b103999146101d15780638456cb59146101cc57806388696f62146101c75780638da5cb5b146101c257806395d89b41146101bd5780639db5df46146101b8578063a6f2ae3a146101b3578063a9059cbb146101ae578063ad3cb1cc146101a9578063cdf456e1146101a4578063dd62ed3e1461019f578063e56f2fe41461019a578063e73faa2d14610195578063f2fde38b14610190578063f7fde10f1461018b5763fdf262b70361000e57610faa565b610f66565b610f24565b610eef565b610eb5565b610deb565b610d89565b610d08565b610c5a565b610c27565b610bf2565b610bbd565b610b88565b610b4e565b6109cf565b61099a565b610945565b610910565b6108be565b610889565b610845565b610810565b6107c1565b61064f565b61061a565b6105e5565b610574565b610517565b6104e1565b610472565b61041a565b610391565b6102e3565b60e01c90565b60405190565b5f80fd5b5f80fd5b5f80fd5b90565b61024f81610243565b0361025657565b5f80fd5b9050359061026782610246565b565b73ffffffffffffffffffffffffffffffffffffffff1690565b61028b90610269565b90565b61029781610282565b0361029e57565b5f80fd5b905035906102af8261028e565b565b91906040838203126102d957806102cd6102d6925f860161025a565b936020016102a2565b90565b61023b565b5f0190565b34610312576102fc6102f63660046102b1565b906127e1565b610304610231565b8061030e816102de565b0390f35b610237565b5f91031261032157565b61023b565b5190565b60209181520190565b90825f9392825e0152565b601f801991011690565b6103676103706020936103759361035e81610326565b9384809361032a565b95869101610333565b61033e565b0190565b61038e9160208201915f818403910152610348565b90565b346103c1576103a1366004610317565b6103bd6103ac612922565b6103b4610231565b91829182610379565b0390f35b610237565b91906040838203126103ee57806103e26103eb925f86016102a2565b9360200161025a565b90565b61023b565b151590565b610401906103f3565b9052565b9190610418905f602085019401906103f8565b565b3461044b576104476104366104303660046103c6565b90612945565b61043e610231565b91829182610405565b0390f35b610237565b61045990610243565b9052565b9190610470905f60208501940190610450565b565b346104a257610482366004610317565b61049e61048d61298c565b610495610231565b9182918261045d565b0390f35b610237565b90916060828403126104dc576104d96104c2845f85016102a2565b936104d081602086016102a2565b9360400161025a565b90565b61023b565b346105125761050e6104fd6104f73660046104a7565b916129ab565b610505610231565b91829182610405565b0390f35b610237565b3461054757610527366004610317565b610543610532612a55565b61053a610231565b9182918261045d565b0390f35b610237565b60ff1690565b61055b9061054c565b9052565b9190610572905f60208501940190610552565b565b346105a457610584366004610317565b6105a061058f612f5f565b610597610231565b9182918261055f565b0390f35b610237565b1c90565b90565b6105c09060086105c593026105a9565b6105ad565b90565b906105d391546105b0565b90565b6105e260055f906105c8565b90565b34610615576105f5366004610317565b6106116106006105d6565b610608610231565b9182918261045d565b0390f35b610237565b3461064a5761062a366004610317565b610646610635612f75565b61063d610231565b9182918261045d565b0390f35b610237565b3461067d5761065f366004610317565b610667613100565b61066f610231565b80610679816102de565b0390f35b610237565b5f80fd5b5f80fd5b7f4e487b71000000000000000000000000000000000000000000000000000000005f52604160045260245ffd5b906106c19061033e565b810190811067ffffffffffffffff8211176106db57604052565b61068a565b906106f36106ec610231565b92836106b7565b565b67ffffffffffffffff81116107135761070f60209161033e565b0190565b61068a565b90825f939282370152565b90929192610738610733826106f5565b6106e0565b938185526020850190828401116107545761075292610718565b565b610686565b9080601f830112156107775781602061077493359101610723565b90565b610682565b9190916040818403126107bc57610795835f83016102a2565b92602082013567ffffffffffffffff81116107b7576107b49201610759565b90565b61023f565b61023b565b6107d56107cf36600461077c565b90613133565b6107dd610231565b806107e7816102de565b0390f35b90565b6107f7906107eb565b9052565b919061080e905f602085019401906107ee565b565b3461084057610820366004610317565b61083c61082b6131ae565b610833610231565b918291826107fb565b0390f35b610237565b3461087557610855366004610317565b6108716108606131e8565b610868610231565b91829182610405565b0390f35b610237565b61088660065f906105c8565b90565b346108b957610899366004610317565b6108b56108a461087a565b6108ac610231565b9182918261045d565b0390f35b610237565b346108ed576108d76108d13660046102b1565b90613a8e565b6108df610231565b806108e9816102de565b0390f35b610237565b9060208282031261090b57610908915f016102a2565b90565b61023b565b346109405761093c61092b6109263660046108f2565b613abc565b610933610231565b9182918261045d565b0390f35b610237565b3461097357610955366004610317565b61095d613b30565b610965610231565b8061096f816102de565b0390f35b610237565b61098190610282565b9052565b9190610998905f60208501940190610978565b565b346109ca576109aa366004610317565b6109c66109b5613b3e565b6109bd610231565b91829182610985565b0390f35b610237565b346109fd576109df366004610317565b6109e7613b78565b6109ef610231565b806109f9816102de565b0390f35b610237565b67ffffffffffffffff8111610a2057610a1c60209161033e565b0190565b61068a565b90929192610a3a610a3582610a02565b6106e0565b93818552602085019082840111610a5657610a5492610718565b565b610686565b9080601f83011215610a7957816020610a7693359101610a25565b90565b610682565b67ffffffffffffffff1690565b610a9481610a7e565b03610a9b57565b5f80fd5b90503590610aac82610a8b565b565b60e081830312610b49575f81013567ffffffffffffffff8111610b445782610ad7918301610a5b565b92602082013567ffffffffffffffff8111610b3f5783610af8918401610a5b565b92610b0681604085016102a2565b92610b1482606083016102a2565b92610b3c610b2584608085016102a2565b93610b338160a086016102a2565b9360c001610a9f565b90565b61023f565b61023f565b61023b565b34610b8357610b6d610b61366004610aae565b95949094939193614144565b610b75610231565b80610b7f816102de565b0390f35b610237565b34610bb857610b98366004610317565b610bb4610ba3614155565b610bab610231565b91829182610985565b0390f35b610237565b34610bed57610bcd366004610317565b610be9610bd8614173565b610be0610231565b91829182610379565b0390f35b610237565b34610c2257610c02366004610317565b610c1e610c0d614192565b610c15610231565b91829182610985565b0390f35b610237565b34610c5557610c37366004610317565b610c3f6141e6565b610c47610231565b80610c51816102de565b0390f35b610237565b34610c8b57610c87610c76610c703660046103c6565b906141f0565b610c7e610231565b91829182610405565b0390f35b610237565b90610ca2610c9d83610a02565b6106e0565b918252565b5f7f352e302e30000000000000000000000000000000000000000000000000000000910152565b610cd86005610c90565b90610ce560208301610ca7565b565b610cef610cce565b90565b610cfa610ce7565b90565b610d05610cf2565b90565b34610d3857610d18366004610317565b610d34610d23610cfd565b610d2b610231565b91829182610379565b0390f35b610237565b73ffffffffffffffffffffffffffffffffffffffff1690565b610d66906008610d6b93026105a9565b610d3d565b90565b90610d799154610d56565b90565b610d865f80610d6e565b90565b34610db957610d99366004610317565b610db5610da4610d7c565b610dac610231565b91829182610985565b0390f35b610237565b9190604083820312610de65780610dda610de3925f86016102a2565b936020016102a2565b90565b61023b565b34610e1c57610e18610e07610e01366004610dbe565b90614228565b610e0f610231565b9182918261045d565b0390f35b610237565b909160c082840312610eb0575f82013567ffffffffffffffff8111610eab5783610e4c918401610a5b565b92602083013567ffffffffffffffff8111610ea65781610e6d918501610a5b565b92610e7b82604083016102a2565b92610ea3610e8c84606085016102a2565b93610e9a81608086016102a2565b9360a0016102a2565b90565b61023f565b61023f565b61023b565b34610eea57610ed4610ec8366004610e21565b9493909392919261453f565b610edc610231565b80610ee6816102de565b0390f35b610237565b34610f1f57610eff366004610317565b610f1b610f0a61456e565b610f12610231565b9182918261045d565b0390f35b610237565b34610f5257610f3c610f373660046108f2565b614785565b610f44610231565b80610f4e816102de565b0390f35b610237565b610f6360045f906105c8565b90565b34610f9657610f76366004610317565b610f92610f81610f57565b610f89610231565b9182918261045d565b0390f35b610237565b610fa760025f90610d6e565b90565b34610fda57610fba366004610317565b610fd6610fc5610f9b565b610fcd610231565b91829182610985565b0390f35b610237565b5f80fd5b90610ff591610ff06147bc565b610fff565b610ffd614868565b565b906110119161100c614885565b611bc9565b565b90565b90565b61102d61102861103292611013565b611016565b610243565b90565b5f7f536861726573206d7573742062652067726561746572207468616e207a65726f910152565b6110686020809261032a565b61107181611035565b0190565b61108a9060208101905f81830391015261105c565b90565b1561109457565b61109c610231565b7f08c379a0000000000000000000000000000000000000000000000000000000008152806110cc60048201611075565b0390fd5b5f7f496e73756666696369656e742062616c616e6365000000000000000000000000910152565b611104601460209261032a565b61110d816110d0565b0190565b6111269060208101905f8183039101526110f7565b90565b1561113057565b611138610231565b7f08c379a00000000000000000000000000000000000000000000000000000000081528061116860048201611111565b0390fd5b5f7f546f74616c20737570706c792063616e6e6f74206265207a65726f0000000000910152565b6111a0601b60209261032a565b6111a98161116c565b0190565b6111c29060208101905f818303910152611193565b90565b156111cc57565b6111d4610231565b7f08c379a000000000000000000000000000000000000000000000000000000000815280611204600482016111ad565b0390fd5b5f1c90565b73ffffffffffffffffffffffffffffffffffffffff1690565b61123261123791611208565b61120d565b90565b6112449054611226565b90565b61125b61125661126092610269565b611016565b610269565b90565b61126c90611247565b90565b61127890611263565b90565b61128490611247565b90565b6112909061127b565b90565b61129c90611263565b90565b60e01b90565b6112ae8161054c565b036112b557565b5f80fd5b905051906112c6826112a5565b565b906020828203126112e1576112de915f016112b9565b90565b61023b565b6112ee610231565b3d5f823e3d90fd5b61130261130791611208565b610d3d565b90565b61131490546112f6565b90565b61132090611263565b90565b9050519061133082610246565b565b9060208282031261134b57611348915f01611323565b90565b61023b565b61135990611247565b90565b61136590611350565b90565b61137190611263565b90565b90565b61138b61138661139092611374565b611016565b61054c565b90565b7f4e487b71000000000000000000000000000000000000000000000000000000005f52601160045260245ffd5b6113cc6113d29161054c565b9161054c565b90039060ff82116113df57565b611393565b6113ed9061054c565b604d81116113fb57600a0a90565b611393565b7f4e487b71000000000000000000000000000000000000000000000000000000005f52601260045260245ffd5b61143961143f91610243565b91610243565b90811561144a570490565b611400565b60207f206f766572666c6f770000000000000000000000000000000000000000000000917f596561726e5661756c742062616c616e6365207363616c696e6720776f756c645f8201520152565b6114a9602960409261032a565b6114b28161144f565b0190565b6114cb9060208101905f81830391015261149c565b90565b156114d557565b6114dd610231565b7f08c379a00000000000000000000000000000000000000000000000000000000081528061150d600482016114b6565b0390fd5b60207f666c6f7700000000000000000000000000000000000000000000000000000000917f51756f74652062616c616e6365207363616c696e6720776f756c64206f7665725f8201520152565b61156b602460409261032a565b61157481611511565b0190565b61158d9060208101905f81830391015261155e565b90565b1561159757565b61159f610231565b7f08c379a0000000000000000000000000000000000000000000000000000000008152806115cf60048201611578565b0390fd5b6115e26115e891939293610243565b92610243565b916115f4838202610243565b92818404149015171561160357565b611393565b60207f7700000000000000000000000000000000000000000000000000000000000000917f5368617265732063616c63756c6174696f6e20776f756c64206f766572666c6f5f8201520152565b611662602160409261032a565b61166b81611608565b0190565b6116849060208101905f818303910152611655565b90565b1561168e57565b611696610231565b7f08c379a0000000000000000000000000000000000000000000000000000000008152806116c66004820161166f565b0390fd5b60207f6c74000000000000000000000000000000000000000000000000000000000000917f496e73756666696369656e742061737365747320696e20596561726e205661755f8201520152565b611724602260409261032a565b61172d816116ca565b0190565b6117469060208101905f818303910152611717565b90565b1561175057565b611758610231565b7f08c379a00000000000000000000000000000000000000000000000000000000081528061178860048201611731565b0390fd5b6040906117b56117bc94969593966117ab60608401985f850190610450565b6020830190610978565b0190610978565b565b5f7f426173652062616c616e636520636865636b206661696c656400000000000000910152565b6117f2601960209261032a565b6117fb816117be565b0190565b6118149060208101905f8183039101526117e5565b90565b1561181e57565b611826610231565b7f08c379a000000000000000000000000000000000000000000000000000000000815280611856600482016117ff565b0390fd5b61186961186f91939293610243565b92610243565b820391821161187a57565b611393565b5f7f48616972637574206578636565647320616d6f756e7400000000000000000000910152565b6118b3601660209261032a565b6118bc8161187f565b0190565b6118d59060208101905f8183039101526118a6565b90565b156118df57565b6118e7610231565b7f08c379a000000000000000000000000000000000000000000000000000000000815280611917600482016118c0565b0390fd5b60207f7920686169726375740000000000000000000000000000000000000000000000917f5365636f6e6461727920686169726375742065786365656473207072696d61725f8201520152565b611975602960409261032a565b61197e8161191b565b0190565b6119979060208101905f818303910152611968565b90565b156119a157565b6119a9610231565b7f08c379a0000000000000000000000000000000000000000000000000000000008152806119d960048201611982565b0390fd5b73ffffffffffffffffffffffffffffffffffffffff1690565b611a02611a0791611208565b6119dd565b90565b611a1490546119f6565b90565b611a2090611263565b90565b90505190611a308261028e565b565b90602082820312611a4b57611a48915f01611a23565b90565b61023b565b611a59816103f3565b03611a6057565b5f80fd5b90505190611a7182611a50565b565b90602082820312611a8c57611a89915f01611a64565b90565b61023b565b916020611ab2929493611aab60408201965f830190610978565b0190610450565b565b5f7f4661696c656420746f207472616e736665722071756f74654173736574000000910152565b611ae8601d60209261032a565b611af181611ab4565b0190565b611b0a9060208101905f818303910152611adb565b90565b15611b1457565b611b1c610231565b7f08c379a000000000000000000000000000000000000000000000000000000000815280611b4c60048201611af5565b0390fd5b5f1b90565b90611b807fffffffffffffffffffffffffffffffffffffffffffffffffffffffffffffffff91611b50565b9181191691161790565b611b9e611b99611ba392610243565b611016565b610243565b90565b90565b90611bbe611bb9611bc592611b8a565b611ba6565b8254611b55565b9055565b611be581611bdf611bd95f611019565b91610243565b1161108d565b611c0a611bf133613abc565b611c03611bfd84610243565b91610243565b1015611129565b611c2d611c1561298c565b611c27611c215f611019565b91610243565b116111c5565b611c6a6020611c54611c4f611c4a611c45600161123a565b61126f565b611287565b611293565b63313ce56790611c62610231565b93849261129f565b82528180611c7a600482016102de565b03915afa9081156127dc575f916127ae575b5090611cc36020611cad611ca8611ca3600261130a565b611287565b611293565b63313ce56790611cbb610231565b93849261129f565b82528180611cd3600482016102de565b03915afa9081156127a9575f9161277b575b5090611d306020611cfe611cf9600161123a565b61126f565b6370a0823190611d25611d1030611317565b92611d19610231565b9586948593849361129f565b835260048301610985565b03915afa908115612776575f91612748575b5090611d956020611d63611d5e611d59600261130a565b61135c565b611368565b6370a0823190611d8a611d7530611317565b92611d7e610231565b9586948593849361129f565b835260048301610985565b03915afa908115612743575f91612715575b5093611df96020611dc7611dc2611dbd5f61130a565b61135c565b611368565b6370a0823190611dee611dd930611317565b92611de2610231565b9586948593849361129f565b835260048301610985565b03915afa908115612710575f916126e2575b5092807fffffffffffffffffffffffffffffffffffffffffffffffffffffffffffffffff60128490611e3c90611377565b90611e46916113c0565b611e4f906113e4565b611e589161142d565b611e6190610243565b90611e6b90610243565b1115611e76906114ce565b857fffffffffffffffffffffffffffffffffffffffffffffffffffffffffffffffff60128790611ea590611377565b90611eaf916113c0565b611eb8906113e4565b611ec19161142d565b611eca90610243565b90611ed490610243565b1115611edf90611590565b60128290611eec90611377565b90611ef6916113c0565b611eff906113e4565b611f08916115d3565b9460128590611f1690611377565b90611f20916113c0565b611f29906113e4565b611f32916115d3565b90827fffffffffffffffffffffffffffffffffffffffffffffffffffffffffffffffff87611f5f9161142d565b611f6890610243565b90611f7290610243565b1115611f7d90611687565b827fffffffffffffffffffffffffffffffffffffffffffffffffffffffffffffffff83611fa99161142d565b611fb290610243565b90611fbc90610243565b1115611fc790611687565b8286611fd2916115d3565b611fda61298c565b611fe39161142d565b918390611fef916115d3565b611ff761298c565b6120009161142d565b92339061200c916148cf565b601261201790611377565b90612021916113c0565b61202a906113e4565b6120339161142d565b92601261203f90611377565b90612049916113c0565b612052906113e4565b61205b9161142d565b9282612067600161123a565b6120709061126f565b6307a2d13a61207d610231565b8094612089829361129f565b825260048201906120999161045d565b03815a93602094fa80156126dd576120bf6120c5916120cc945f916126af575b50610243565b91610243565b1115611749565b60206120e06120db600161123a565b61126f565b63ba08765293906121155f6120f430611317565b9661212061210130611317565b612109610231565b998a978896879561129f565b85526004850161178c565b03925af19182156126aa576121829261267e575b50602061215061214b6121465f61130a565b61135c565b611368565b6370a082319061217761216230611317565b9261216b610231565b9687948593849361129f565b835260048301610985565b03915afa8015612679576121ba925f9161264b575b506121b5816121ae6121a885610243565b91610243565b1015611817565b61185a565b806121cd6121c75f611019565b91610243565b11612330575b50806121e76121e15f611019565b91610243565b11612317575b50506122016121fc600161123a565b61126f565b6122506307a2d13a91602061221e612219600161123a565b61126f565b6370a082319061224561223030611317565b92612239610231565b9687948593849361129f565b835260048301610985565b03915afa9081156123125761228d936020935f936122df575b5061228290612276610231565b9586948593849361129f565b83526004830161045d565b03915afa80156122da576122aa915f916122ac575b506005611ba9565b565b6122cd915060203d81116122d3575b6122c581836106b7565b810190611332565b5f6122a2565b503d6122bb565b6112e6565b61228291935061230490853d811161230b575b6122fc81836106b7565b810190611332565b9290612269565b503d6122f2565b6112e6565b6123299161232491614bd1565b611b0d565b5f806121ed565b6123398161494e565b906123578261235061234a84610243565b91610243565b11156118d8565b61236281839061185a565b5061236c8261494e565b6123898161238261237c86610243565b91610243565b111561199a565b6123b660206123a061239b6003611a0a565b611a17565b6304cc7325906123ae610231565b93849261129f565b825281806123c6600482016102de565b03915afa908115612646575f91612618575b509161240760206123f16123ec6003611a0a565b611a17565b633b19e84a906123ff610231565b93849261129f565b82528180612417600482016102de565b03915afa908115612613575f916125e5575b5093602061244661244161243c5f61130a565b61135c565b611368565b9263a9059cbb936124755f61245d8c94879061185a565b96612480612469610231565b9889968795869461129f565b845260048401611a91565b03925af19182156125e0576020926125b5575b506124ad6124a86124a35f61130a565b61135c565b611368565b6124da5f6124c263a9059cbb9794879061185a565b966124e56124ce610231565b9889968795869461129f565b845260048401611a91565b03925af19182156125b057602092612585575b5061251261250d6125085f61130a565b61135c565b611368565b6125355f63a9059cbb959395612540612529610231565b9788968795869461129f565b845260048401611a91565b03925af1801561258057612554575b6121d3565b6125749060203d8111612579575b61256c81836106b7565b810190611a73565b61254f565b503d612562565b6112e6565b6125a490833d81116125a9575b61259c81836106b7565b810190611a73565b6124f8565b503d612592565b6112e6565b6125d490833d81116125d9575b6125cc81836106b7565b810190611a73565b612493565b503d6125c2565b6112e6565b612606915060203d811161260c575b6125fe81836106b7565b810190611a32565b5f612429565b503d6125f4565b6112e6565b612639915060203d811161263f575b61263181836106b7565b810190611a32565b5f6123d8565b503d612627565b6112e6565b61266c915060203d8111612672575b61266481836106b7565b810190611332565b5f612197565b503d61265a565b6112e6565b61269e9060203d81116126a3575b61269681836106b7565b810190611332565b612134565b503d61268c565b6112e6565b6126d0915060203d81116126d6575b6126c881836106b7565b810190611332565b5f6120b9565b503d6126be565b6112e6565b612703915060203d8111612709575b6126fb81836106b7565b810190611332565b5f611e0b565b503d6126f1565b6112e6565b612736915060203d811161273c575b61272e81836106b7565b810190611332565b5f611da7565b503d612724565b6112e6565b612769915060203d811161276f575b61276181836106b7565b810190611332565b5f611d42565b503d612757565b6112e6565b61279c915060203d81116127a2575b61279481836106b7565b8101906112c8565b5f611ce5565b503d61278a565b6112e6565b6127cf915060203d81116127d5575b6127c781836106b7565b8101906112c8565b5f611c8c565b503d6127bd565b6112e6565b906127eb91610fe3565b565b606090565b7f4e487b71000000000000000000000000000000000000000000000000000000005f52602260045260245ffd5b906001600283049216801561283f575b602083101461283a57565b6127f2565b91607f169161282f565b60209181520190565b5f5260205f2090565b905f929180549061287561286e8361281f565b8094612849565b916001811690815f146128cc5750600114612890575b505050565b61289d9192939450612852565b915f925b8184106128b457505001905f808061288b565b600181602092959395548486015201910192906128a1565b92949550505060ff19168252151560200201905f808061288b565b906128f19161285b565b90565b9061291461290d92612904610231565b938480926128e7565b03836106b7565b565b61291f906128f4565b90565b61292a6127ed565b5061293e6003612938614fa0565b01612916565b90565b5f90565b61296291612951612941565b5061295a614fc4565b919091614fd1565b600190565b5f90565b61297761297c91611208565b6105ad565b90565b612989905461296b565b90565b612994612967565b506129a860026129a2614fa0565b0161297f565b90565b916129d5926129b8612941565b506129cd6129c4614fc4565b82908491615021565b9190916150ec565b600190565b6129e390611247565b90565b6129ef906129da565b90565b6129fb90611263565b90565b604090612a27612a2e9496959396612a1d60608401985f850190610978565b6020830190610978565b0190610450565b565b612a3f612a4591939293610243565b92610243565b8201809211612a5057565b611393565b612a5d612967565b50612a8b6020612a75612a706003611a0a565b611a17565b63bb3ba04c90612a83610231565b93849261129f565b82528180612a9b600482016102de565b03915afa8015612f5657612ab6915f91612f28575b506129e6565b612ae36020612acd612ac86003611a0a565b611a17565b631bf01e9b90612adb610231565b93849261129f565b82528180612af3600482016102de565b03915afa908115612f23575f91612ef5575b5090612b105f611019565b612b596020612b27612b22600161123a565b61126f565b6370a0823190612b4e612b3930611317565b92612b42610231565b9586948593849361129f565b835260048301610985565b03915afa908115612ef057612bac916020915f91612ec3575b50612b85612b80600161123a565b61126f565b612ba16307a2d13a612b95610231565b9586948593849361129f565b83526004830161045d565b03915afa908115612ebe575f91612e90575b50612c106020612bde612bd9612bd4600261130a565b61135c565b611368565b6370a0823190612c05612bf030611317565b92612bf9610231565b9586948593849361129f565b835260048301610985565b03915afa908115612e8b575f91612e5d575b50612c2c5f61130a565b612c3e612c3887610282565b91610282565b03612dc1575b6020612c4f856129f2565b63248391ff90612c84612c62600261130a565b92612c8f612c6f5f61130a565b96612c78610231565b9788968795869561129f565b8552600485016129fe565b03915afa8015612dbc57612cb393612cae925f92612d8c575b50612a30565b612a30565b91612cbc612f75565b91612cc65f61130a565b612cd8612cd284610282565b91610282565b03612cee575b505090612ceb9190612a30565b90565b612cf96020916129f2565b9163248391ff92612d26612d0c5f61130a565b9294612d3187612d1a610231565b9788968795869561129f565b8552600485016129fe565b03915afa8015612d8757612ceb93612d50925f92612d57575b50612a30565b915f612cde565b612d7991925060203d8111612d80575b612d7181836106b7565b810190611332565b905f612d4a565b503d612d67565b6112e6565b612dae91925060203d8111612db5575b612da681836106b7565b810190611332565b905f612ca8565b503d612d9c565b6112e6565b91612dcb846129f2565b90602063248391ff92612ddd5f61130a565b90612dfb8995612e0688612def610231565b9889968795869561129f565b8552600485016129fe565b03915afa908115612e5857612e22925f92612e28575b50612a30565b91612c44565b612e4a91925060203d8111612e51575b612e4281836106b7565b810190611332565b905f612e1c565b503d612e38565b6112e6565b612e7e915060203d8111612e84575b612e7681836106b7565b810190611332565b5f612c22565b503d612e6c565b6112e6565b612eb1915060203d8111612eb7575b612ea981836106b7565b810190611332565b5f612bbe565b503d612e9f565b6112e6565b612ee39150823d8111612ee9575b612edb81836106b7565b810190611332565b5f612b72565b503d612ed1565b6112e6565b612f16915060203d8111612f1c575b612f0e81836106b7565b810190611a32565b5f612b05565b503d612f04565b6112e6565b612f49915060203d8111612f4f575b612f4181836106b7565b810190611a32565b5f612ab0565b503d612f37565b6112e6565b5f90565b612f67612f5b565b50612f726012611377565b90565b612f7d612967565b50612f90612f8b600161123a565b61126f565b612fdf6307a2d13a916020612fad612fa8600161123a565b61126f565b6370a0823190612fd4612fbf30611317565b92612fc8610231565b9687948593849361129f565b835260048301610985565b03915afa9081156130df5761301c936020935f936130ac575b5061301190613005610231565b9586948593849361129f565b83526004830161045d565b03915afa9081156130a7575f91613079575b508061304b613045613040600561297f565b610243565b91610243565b115f1461306a5761306690613060600561297f565b9061185a565b5b90565b506130745f611019565b613067565b61309a915060203d81116130a0575b61309281836106b7565b810190611332565b5f61302e565b503d613088565b6112e6565b6130119193506130d190853d81116130d8575b6130c981836106b7565b810190611332565b9290612ff8565b503d6130bf565b6112e6565b6130ec6151c9565b6130f46130f6565b565b6130fe6152d6565b565b6131086130e4565b565b9061311c916131176152ec565b61311e565b565b906131319161312c816153be565b61542e565b565b9061313d9161310a565b565b5f90565b6131549061314f61556c565b6131a2565b90565b90565b61316e61316961317392613157565b611b50565b6107eb565b90565b61319f7f360894a13ba1a3210667c828492db98dca3e2076cc3735a920a3ca505d382bbc61315a565b90565b506131ab613176565b90565b6131be6131b961313f565b613143565b90565b60ff1690565b6131d36131d891611208565b6131c1565b90565b6131e590546131c7565b90565b6131f0612941565b506132035f6131fd6155ea565b016131db565b90565b90613218916132136147bc565b613222565b613220614868565b565b906132349161322f614885565b6132f4565b565b5f7f416d6f756e74206d7573742062652067726561746572207468616e207a65726f910152565b6132696020809261032a565b61327281613236565b0190565b61328b9060208101905f81830391015261325d565b90565b1561329557565b61329d610231565b7f08c379a0000000000000000000000000000000000000000000000000000000008152806132cd60048201613276565b0390fd5b9160206132f29294936132eb60408201965f830190610450565b0190610978565b565b6133108161330a6133045f611019565b91610243565b1161328e565b61331861562a565b61333161332c6133275f61130a565b61135c565b611368565b60206323b872dd9133906133615f61334830611317565b9561336c88613355610231565b9889978896879561129f565b8552600485016129fe565b03925af18015613a8957613a5d575b506133a9602061339361338e6003611a0a565b611a17565b6304cc7325906133a1610231565b93849261129f565b825281806133b9600482016102de565b03915afa908115613a58575f91613a2a575b506133f960206133e36133de6003611a0a565b611a17565b633b19e84a906133f1610231565b93849261129f565b82528180613409600482016102de565b03915afa908115613a25575f916139f7575b50916134268161494e565b916134308361494e565b602061344b6134466134415f61130a565b61135c565b611368565b63a9059cbb93906134795f61346189879061185a565b9661348461346d610231565b9889968795869461129f565b845260048401611a91565b03925af19182156139f2576020926139c7575b506134b16134ac6134a75f61130a565b61135c565b611368565b6134d45f63a9059cbb9793976134df6134c8610231565b998a968795869461129f565b845260048401611a91565b03925af19283156139c2576134f993613996575b5061185a565b9061351361350e6135095f61130a565b61135c565b611368565b602063095ea7b39161352d613528600161123a565b61126f565b9061354b5f879561355661353f610231565b9788968795869461129f565b845260048401611a91565b03925af1801561399157613965575b50613578613573600161123a565b61126f565b916020636e553f659382906135a85f61359030611317565b976135b361359c610231565b998a968795869461129f565b8452600484016132d1565b03925af1928315613960576135f993613934575b5060206135e36135de6135d95f61130a565b611287565b611293565b63313ce567906135f1610231565b95869261129f565b82528180613609600482016102de565b03915afa801561392f57613659935f91613901575b50602061364361363e613639613634600161123a565b61126f565b611287565b611293565b63313ce56790613651610231565b96879261129f565b82528180613669600482016102de565b03915afa80156138fc576136d36136de936136d8926136e4975f916138ce575b50938061369e6136988761054c565b9161054c565b115f146138ad576136bc6136b76136c2939287906113c0565b6113e4565b9061142d565b5b926136ce6012611377565b6113c0565b6113e4565b906115d3565b9061590e565b6136f66136f1600161123a565b61126f565b6137456307a2d13a91602061371361370e600161123a565b61126f565b6370a082319061373a61372530611317565b9261372e610231565b9687948593849361129f565b835260048301610985565b03915afa9081156138a857613782936020935f93613875575b506137779061376b610231565b9586948593849361129f565b83526004830161045d565b03915afa80156138705761379f915f91613842575b506005611ba9565b6137f060206137be6137b96137b4600261130a565b61135c565b611368565b6370a08231906137e56137d030611317565b926137d9610231565b9586948593849361129f565b835260048301610985565b03915afa801561383d5761380d915f9161380f575b506004611ba9565b565b613830915060203d8111613836575b61382881836106b7565b810190611332565b5f613805565b503d61381e565b6112e6565b613863915060203d8111613869575b61385b81836106b7565b810190611332565b5f613797565b503d613851565b6112e6565b61377791935061389a90853d81116138a1575b61389281836106b7565b810190611332565b929061375e565b503d613888565b6112e6565b6138c36138be6138c99392876113c0565b6113e4565b906115d3565b6136c3565b6138ef915060203d81116138f5575b6138e781836106b7565b8101906112c8565b5f613689565b503d6138dd565b6112e6565b613922915060203d8111613928575b61391a81836106b7565b8101906112c8565b5f61361e565b503d613910565b6112e6565b6139549060203d8111613959575b61394c81836106b7565b810190611332565b6135c7565b503d613942565b6112e6565b6139859060203d811161398a575b61397d81836106b7565b810190611a73565b613565565b503d613973565b6112e6565b6139b69060203d81116139bb575b6139ae81836106b7565b810190611a73565b6134f3565b503d6139a4565b6112e6565b6139e690833d81116139eb575b6139de81836106b7565b810190611a73565b613497565b503d6139d4565b6112e6565b613a18915060203d8111613a1e575b613a1081836106b7565b810190611a32565b5f61341b565b503d613a06565b6112e6565b613a4b915060203d8111613a51575b613a4381836106b7565b810190611a32565b5f6133cb565b503d613a39565b6112e6565b613a7d9060203d8111613a82575b613a7581836106b7565b810190611a73565b61337b565b503d613a6b565b6112e6565b90613a9891613206565b565b613aa390611263565b90565b90613ab090613a9a565b5f5260205260405f2090565b613adb613ae091613acb612967565b505f613ad5614fa0565b01613aa6565b61297f565b90565b613aeb6151c9565b613af3613b1d565b565b613b09613b04613b0e92611013565b611016565b610269565b90565b613b1a90613af5565b90565b613b2e613b295f613b11565b61598c565b565b613b38613ae3565b565b5f90565b613b46613b3a565b50613b59613b546003611a0a565b611a17565b90565b613b646151c9565b613b6c613b6e565b565b613b76615a62565b565b613b80613b5c565b565b60401c90565b613b94613b9991613b82565b6131c1565b90565b613ba69054613b88565b90565b67ffffffffffffffff1690565b613bc2613bc791611208565b613ba9565b90565b613bd49054613bb6565b90565b90613bea67ffffffffffffffff91611b50565b9181191691161790565b613c08613c03613c0d92610a7e565b611016565b610a7e565b90565b90565b90613c28613c23613c2f92613bf4565b613c10565b8254613bd7565b9055565b60401b90565b90613c4d68ff000000000000000091613c33565b9181191691161790565b613c60906103f3565b90565b90565b90613c7b613c76613c8292613c57565b613c63565b8254613c39565b9055565b613c8f90610a7e565b9052565b9190613ca6905f60208501940190613c86565b565b929591939490948296613cb9615a6c565b95613cc55f8801613b9c565b8015613d76575b613d3a57613cff97613cf696613ce48b5f8b01613c13565b613cf160015f8b01613c66565b614049565b5f809101613c66565b613d357fc7f505b2f371ae2175ee4913f4499e1f2633a7b5936321eed1cdaeb6115181d291613d2c610231565b91829182613c93565b0390a1565b613d42610231565b7ff92ee8a900000000000000000000000000000000000000000000000000000000815280613d72600482016102de565b0390fd5b50613d825f8801613bca565b613d94613d8e8b610a7e565b91610a7e565b1015613ccc565b90613dba73ffffffffffffffffffffffffffffffffffffffff91611b50565b9181191691161790565b90565b90613ddc613dd7613de392613a9a565b613dc4565b8254613d9b565b9055565b613df090611247565b90565b613dfc90613de7565b90565b613e0890613de7565b90565b90565b90613e23613e1e613e2a92613dff565b613e0b565b8254613d9b565b9055565b613e3790611247565b90565b613e4390613e2e565b90565b613e4f90613e2e565b90565b90565b90613e6a613e65613e7192613e46565b613e52565b8254613d9b565b9055565b5f7f496e76616c696420617373657441206164647265737300000000000000000000910152565b613ea9601660209261032a565b613eb281613e75565b0190565b613ecb9060208101905f818303910152613e9c565b90565b15613ed557565b613edd610231565b7f08c379a000000000000000000000000000000000000000000000000000000000815280613f0d60048201613eb6565b0390fd5b5f7f496e76616c696420596561726e205661756c7420616464726573730000000000910152565b613f45601b60209261032a565b613f4e81613f11565b0190565b613f679060208101905f818303910152613f38565b90565b15613f7157565b613f79610231565b7f08c379a000000000000000000000000000000000000000000000000000000000815280613fa960048201613f52565b0390fd5b5f7f496e76616c696420617373657442206164647265737300000000000000000000910152565b613fe1601660209261032a565b613fea81613fad565b0190565b6140039060208101905f818303910152613fd4565b90565b1561400d57565b614015610231565b7f08c379a00000000000000000000000000000000000000000000000000000000081528061404560048201613fee565b0390fd5b6140b196506140a5936140926140aa97969461407461409e956140979561406f33615aae565b615ad9565b61407c615aef565b614084615b15565b61408c615b3b565b5f613dc7565b613df3565b6001613e0e565b6002613dc7565b613e3a565b6003613e55565b6140de6140bd5f61130a565b6140d76140d16140cc5f613b11565b610282565b91610282565b1415613ece565b6141146140f36140ee600161123a565b61126f565b61410d6141076141025f613b11565b610282565b91610282565b1415613f6a565b614142614121600261130a565b61413b6141356141305f613b11565b610282565b91610282565b1415614006565b565b90614153969594939291613ca8565b565b61415d613b3a565b506141705f61416a615b45565b0161130a565b90565b61417b6127ed565b5061418f6004614189614fa0565b01612916565b90565b61419a613b3a565b506141ad6141a8600161123a565b61126f565b90565b6141b86147bc565b6141c06141ca565b6141c8614868565b565b6141d2614885565b6141da6141dc565b565b6141e4615d4c565b565b6141ee6141b0565b565b61420d916141fc612941565b50614205614fc4565b9190916150ec565b600190565b9061421c90613a9a565b5f5260205260405f2090565b6142569161424c6142519261423b612967565b506001614246614fa0565b01614212565b613aa6565b61297f565b90565b61426d61426861427292611013565b611016565b610a7e565b90565b90565b61428c61428761429192614275565b611016565b610a7e565b90565b61429d90611263565b90565b6142a990614278565b9052565b91906142c0905f602085019401906142a0565b565b929491949390936142d1615a6c565b956142e66142e05f8901613b9c565b156103f3565b956142f25f8901613bca565b806143056142ff5f614259565b91610a7e565b148061443f575b9061432061431a6001614278565b91610a7e565b1480614417575b6143329091156103f3565b9081614406575b506143ca576143629561435761434f6001614278565b5f8b01613c13565b876143b8575b614446565b61436a575b50565b614377905f809101613c66565b60016143af7fc7f505b2f371ae2175ee4913f4499e1f2633a7b5936321eed1cdaeb6115181d2916143a6610231565b918291826142ad565b0390a15f614367565b6143c560015f8b01613c66565b61435d565b6143d2610231565b7ff92ee8a900000000000000000000000000000000000000000000000000000000815280614402600482016102de565b0390fd5b6144119150156103f3565b5f614339565b5061433261442430614294565b3b6144376144315f611019565b91610243565b149050614327565b508761430c565b6144926144ac969461448d6144a09561446f6144a599966144999661446a33615aae565b615ad9565b614477615aef565b61447f615b15565b614487615b3b565b5f613dc7565b613df3565b6001613e0e565b6002613dc7565b613e3a565b6003613e55565b6144d96144b85f61130a565b6144d26144cc6144c75f613b11565b610282565b91610282565b1415613ece565b61450f6144ee6144e9600161123a565b61126f565b6145086145026144fd5f613b11565b610282565b91610282565b1415613f6a565b61453d61451c600261130a565b61453661453061452b5f613b11565b610282565b91610282565b1415614006565b565b9061454d95949392916142c2565b565b90565b61456661456161456b9261454f565b611016565b610243565b90565b614576612967565b5061457f61298c565b61459161458b5f611019565b91610243565b146146f4576145c360206145ad6145a86003611a0a565b611a17565b631bf01e9b906145bb610231565b93849261129f565b825281806145d3600482016102de565b03915afa9081156146ef576145fd6145f8614613936020935f916146c2575b50611287565b611293565b63313ce5679061460b610231565b93849261129f565b82528180614623600482016102de565b03915afa80156146bd5761466761465a61465561467e9361468c955f9161468f575b506146506012611377565b6113c0565b6113e4565b614662612a55565b6115d3565b614678670de0b6b3a7640000614552565b906115d3565b61468661298c565b9061142d565b90565b6146b0915060203d81116146b6575b6146a881836106b7565b8101906112c8565b5f614645565b503d61469e565b6112e6565b6146e29150843d81116146e8575b6146da81836106b7565b810190611a32565b5f6145f2565b503d6146d0565b6112e6565b6146fd5f611019565b90565b6147119061470c6151c9565b614713565b565b8061472e6147286147235f613b11565b610282565b91610282565b1461473e5761473c9061598c565b565b61478161474a5f613b11565b614752610231565b9182917f1e4fbdf700000000000000000000000000000000000000000000000000000000835260048301610985565b0390fd5b61478e90614700565b565b90565b6147a76147a26147ac92614790565b611016565b610243565b90565b6147b96002614793565b90565b6147c4616208565b6147cf5f820161297f565b6147e86147e26147dd6147af565b610243565b91610243565b1461480357614801905f6147fa6147af565b9101611ba9565b565b61480b610231565b7f3ee5aeb50000000000000000000000000000000000000000000000000000000081528061483b600482016102de565b0390fd5b61485361484e61485892614275565b611016565b610243565b90565b614865600161483f565b90565b614883614873616208565b5f61487c61485b565b9101611ba9565b565b61488d6131e8565b61489357565b61489b610231565b7fd93c0665000000000000000000000000000000000000000000000000000000008152806148cb600482016102de565b0390fd5b90816148eb6148e56148e05f613b11565b610282565b91610282565b146149075761490591906148fe5f613b11565b909161623a565b565b61494a6149135f613b11565b61491b610231565b9182917f96c6fd1e00000000000000000000000000000000000000000000000000000000835260048301610985565b0390fd5b614956612967565b50614984602061496e6149696003611a0a565b611a17565b6385462d6f9061497c610231565b93849261129f565b82528180614994600482016102de565b03915afa908115614a6f575f91614a41575b50906149d560206149bf6149ba6003611a0a565b611a17565b634f4608a2906149cd610231565b93849261129f565b825281806149e5600482016102de565b03915afa928315614a3c57614a0b93614a06925f91614a0e575b50926115d3565b61142d565b90565b614a2f915060203d8111614a35575b614a2781836106b7565b810190611332565b5f6149ff565b503d614a1d565b6112e6565b614a62915060203d8111614a68575b614a5a81836106b7565b810190611332565b5f6149a6565b503d614a50565b6112e6565b5f7f496e73756666696369656e742071756f74652061737365742062616c616e6365910152565b614aa76020809261032a565b614ab081614a74565b0190565b614ac99060208101905f818303910152614a9b565b90565b15614ad357565b614adb610231565b7f08c379a000000000000000000000000000000000000000000000000000000000815280614b0b60048201614ab4565b0390fd5b60207f7400000000000000000000000000000000000000000000000000000000000000917f486169726375742065786365656473207769746864726177616c20616d6f756e5f8201520152565b614b69602160409261032a565b614b7281614b0f565b0190565b614b8b9060208101905f818303910152614b5c565b90565b15614b9557565b614b9d610231565b7f08c379a000000000000000000000000000000000000000000000000000000000815280614bcd60048201614b76565b0390fd5b614bd9612941565b50614c2c816020614bfa614bf5614bf0600261130a565b61135c565b611368565b6370a0823190614c21614c0c30611317565b92614c15610231565b9687948593849361129f565b835260048301610985565b03915afa8015614f9b57614c4e614c5491614c5b945f91614f6d575b50610243565b91610243565b1115614acc565b614c8c614c678261494e565b91614c8583614c7e614c7884610243565b91610243565b1115614b8e565b829061185a565b91614c968261494e565b90614cb482614cad614ca786610243565b91610243565b111561199a565b614ce16020614ccb614cc66003611a0a565b611a17565b6304cc732590614cd9610231565b93849261129f565b82528180614cf1600482016102de565b03915afa908115614f68575f91614f3a575b5092614d326020614d1c614d176003611a0a565b611a17565b633b19e84a90614d2a610231565b93849261129f565b82528180614d42600482016102de565b03915afa8015614f35576020915f91614f08575b5095614d72614d6d614d68600261130a565b61135c565b611368565b614d955f63a9059cbb969396614da0614d89610231565b9889968795869461129f565b845260048401611a91565b03925af1918215614f0357602092614ed8575b50614dce614dc9614dc4600261130a565b61135c565b611368565b614dfb5f614de363a9059cbb9794879061185a565b96614e06614def610231565b9889968795869461129f565b845260048401611a91565b03925af1918215614ed357602092614ea8575b50614e34614e2f614e2a600261130a565b61135c565b611368565b614e575f63a9059cbb959395614e62614e4b610231565b9788968795869461129f565b845260048401611a91565b03925af18015614ea357614e77575b50600190565b614e979060203d8111614e9c575b614e8f81836106b7565b810190611a73565b614e71565b503d614e85565b6112e6565b614ec790833d8111614ecc575b614ebf81836106b7565b810190611a73565b614e19565b503d614eb5565b6112e6565b614ef790833d8111614efc575b614eef81836106b7565b810190611a73565b614db3565b503d614ee5565b6112e6565b614f289150823d8111614f2e575b614f2081836106b7565b810190611a32565b5f614d56565b503d614f16565b6112e6565b614f5b915060203d8111614f61575b614f5381836106b7565b810190611a32565b5f614d03565b503d614f49565b6112e6565b614f8e915060203d8111614f94575b614f8681836106b7565b810190611332565b5f614c48565b503d614f7c565b6112e6565b7f52c63247e1f47db19d5ce0460030c497f067ca4cebf71ba98eeadabe20bace0090565b614fcc613b3a565b503390565b91614fdf92916001926163e0565b565b60409061500a615011949695939661500060608401985f850190610978565b6020830190610450565b0190610450565b565b9061501e9103610243565b90565b92919261502f818390614228565b908161506361505d7fffffffffffffffffffffffffffffffffffffffffffffffffffffffffffffffff610243565b91610243565b03615070575b5050509050565b8161508361507d87610243565b91610243565b106150a9576150a09394615098919392615013565b905f926163e0565b805f8080615069565b506150e8849291926150b9610231565b9384937ffb8f41b200000000000000000000000000000000000000000000000000000000855260048501614fe1565b0390fd5b91826151086151026150fd5f613b11565b610282565b91610282565b14615182578161512861512261511d5f613b11565b610282565b91610282565b1461513b576151399291909161623a565b565b61517e6151475f613b11565b61514f610231565b9182917fec442f0500000000000000000000000000000000000000000000000000000000835260048301610985565b0390fd5b6151c561518e5f613b11565b615196610231565b9182917f96c6fd1e00000000000000000000000000000000000000000000000000000000835260048301610985565b0390fd5b6151d1614155565b6151ea6151e46151df614fc4565b610282565b91610282565b036151f157565b6152336151fc614fc4565b615204610231565b9182917f118cdaa700000000000000000000000000000000000000000000000000000000835260048301610985565b0390fd5b61523f61653a565b61524761527f565b565b9061525560ff91611b50565b9181191691161790565b9061527461526f61527b92613c57565b613c63565b8254615249565b9055565b61529361528a6155ea565b5f80910161525f565b61529b614fc4565b6152d17f5db9ee0a495bf2e6ff9c91a7834c1ba4fdd244a5e8aa4e537bd38aeae4b073aa916152c8610231565b91829182610985565b0390a1565b6152de615237565b565b6152e990611263565b90565b6152f5306152e0565b6153276153217f0000000000000000000000000000000000000000000000000000000000000000610282565b91610282565b148015615371575b61533557565b61533d610231565b7fe07c8dba0000000000000000000000000000000000000000000000000000000081528061536d600482016102de565b0390fd5b5061537a61658d565b6153ac6153a67f0000000000000000000000000000000000000000000000000000000000000000610282565b91610282565b141561532f565b506153bc6151c9565b565b6153c7906153b3565b565b6153d290611247565b90565b6153de906153c9565b90565b6153ea90611263565b90565b6153f6816107eb565b036153fd57565b5f80fd5b9050519061540e826153ed565b565b9060208282031261542957615426915f01615401565b90565b61023b565b919061545c6020615446615441866153d5565b6153e1565b6352d1902d90615454610231565b93849261129f565b8252818061546c600482016102de565b03915afa80915f9261553c575b50155f146154cd57505090600161548e57505b565b6154c99061549a610231565b9182917f4c9c8ce300000000000000000000000000000000000000000000000000000000835260048301610985565b0390fd5b92836154e86154e26154dd613176565b6107eb565b916107eb565b036154fd576154f89293506165b7565b61548c565b61553884615509610231565b9182917faa1d49a4000000000000000000000000000000000000000000000000000000008352600483016107fb565b0390fd5b61555e91925060203d8111615565575b61555681836106b7565b810190615410565b905f615479565b503d61554c565b615575306152e0565b6155a76155a17f0000000000000000000000000000000000000000000000000000000000000000610282565b91610282565b036155ae57565b6155b6610231565b7fe07c8dba000000000000000000000000000000000000000000000000000000008152806155e6600482016102de565b0390fd5b7fcd5ed15c6e187e77e9aee88184c21f4f2182ab5827cb3b7e07fbedcd63f0330090565b61562261561d61562792614790565b611016565b61054c565b90565b61563c615637600161123a565b61126f565b61568b6307a2d13a916020615659615654600161123a565b61126f565b6370a082319061568061566b30611317565b92615674610231565b9687948593849361129f565b835260048301610985565b03915afa908115615909576156c8936020935f936158d6575b506156bd906156b1610231565b9586948593849361129f565b83526004830161045d565b03915afa9081156158d1575f916158a3575b50806156f76156f16156ec600561297f565b610243565b91610243565b115f14615894576157129061570c600561297f565b9061185a565b5b615747602061573161572c6157275f61130a565b611287565b611293565b63313ce5679061573f610231565b93849261129f565b82528180615757600482016102de565b03915afa801561588f576157a06157a5916157ab935f91615861575b5061579b61579561579060019361578a600261560e565b906113c0565b6113e4565b9161483f565b6115d3565b610243565b91610243565b11615854575b61580260206157d06157cb6157c6600261130a565b61135c565b611368565b6370a08231906157f76157e230611317565b926157eb610231565b9586948593849361129f565b835260048301610985565b03915afa801561584f5761581f915f91615821575b506004611ba9565b565b615842915060203d8111615848575b61583a81836106b7565b810190611332565b5f615817565b503d615830565b6112e6565b61585c615d4c565b6157b1565b615882915060203d8111615888575b61587a81836106b7565b8101906112c8565b5f615773565b503d615870565b6112e6565b5061589e5f611019565b615713565b6158c4915060203d81116158ca575b6158bc81836106b7565b810190611332565b5f6156da565b503d6158b2565b6112e6565b6156bd9193506158fb90853d8111615902575b6158f381836106b7565b810190611332565b92906156a4565b503d6158e9565b6112e6565b8061592961592361591e5f613b11565b610282565b91610282565b14615945576159439161593b5f613b11565b91909161623a565b565b6159886159515f613b11565b615959610231565b9182917fec442f0500000000000000000000000000000000000000000000000000000000835260048301610985565b0390fd5b615994615b45565b6159ac6159a25f830161130a565b915f849101613dc7565b906159e06159da7f8be0079c531659141344cd1fd0a4f28419497f9722a3daafe3b4186f6b6457e093613a9a565b91613a9a565b916159e9610231565b806159f3816102de565b0390a3565b615a00614885565b615a08615a0a565b565b615a1f615a156155ea565b5f6001910161525f565b615a27614fc4565b615a5d7f62e78cea01bee320cd4e420270b5ea74000d11b0c9f74754ebdbfc544b05a25891615a54610231565b91829182610985565b0390a1565b615a6a6159f8565b565b7ff0c57e16840df040f15088dc2f81fe391c3923bec73e23a9662efc9c229c6a0090565b615aa190615a9c616640565b615aa3565b565b615aac90616718565b565b615ab790615a90565b565b90615acb91615ac6616640565b615acd565b565b90615ad79161695b565b565b90615ae391615ab9565b565b615aed616640565b565b615af7615ae5565b565b615b01616640565b615b09615b0b565b565b615b13616996565b565b615b1d615af9565b565b615b27616640565b615b2f615b31565b565b615b396169c8565b565b615b43615b1f565b565b7f9016d09d72d40fdae2fd8ceac6b6234c7706214fd39c1cd1e609a0528c19930090565b60207f6c61626c65000000000000000000000000000000000000000000000000000000917f42616c756e695631795661756c743a204e6f20696e74657265737420617661695f8201520152565b615bc3602560409261032a565b615bcc81615b69565b0190565b615be59060208101905f818303910152615bb6565b90565b15615bef57565b615bf7610231565b7f08c379a000000000000000000000000000000000000000000000000000000000815280615c2760048201615bd0565b0390fd5b5f7f42616c756e695631795661756c743a2052656465656d204661696c6564000000910152565b615c5f601d60209261032a565b615c6881615c2b565b0190565b615c819060208101905f818303910152615c52565b90565b15615c8b57565b615c93610231565b7f08c379a000000000000000000000000000000000000000000000000000000000815280615cc360048201615c6c565b0390fd5b615cd090611247565b90565b615cdc90615cc7565b90565b615ce890611263565b90565b615d20615d2794615d16606094989795615d0c608086019a5f870190610978565b6020850190610978565b6040830190610450565b0190610978565b565b916020615d4a929493615d4360408201965f830190610450565b0190610450565b565b615d5e615d59600161123a565b61126f565b615dad6307a2d13a916020615d7b615d76600161123a565b61126f565b6370a0823190615da2615d8d30611317565b92615d96610231565b9687948593849361129f565b835260048301610985565b03915afa90811561620357615dea936020935f936161d0575b50615ddf90615dd3610231565b9586948593849361129f565b83526004830161045d565b03915afa9081156161cb575f9161619d575b5080615e19615e13615e0e600561297f565b610243565b91610243565b115f1461618e57615e3490615e2e600561297f565b9061185a565b5b615e5181615e4b615e455f611019565b91610243565b11615be8565b615e926020615e68615e63600161123a565b61126f565b63c6e6f59290615e878592615e7b610231565b9586948593849361129f565b83526004830161045d565b03915afa908115616189575f9161615b575b506020615eb9615eb4600161123a565b61126f565b63ba0876529290615eee5f615ecd30611317565b95615ef9615eda30611317565b615ee2610231565b9889978896879561129f565b85526004850161178c565b03925af1908115616156575f91616128575b50615f2881615f22615f1c5f611019565b91610243565b11615c84565b615f556020615f3f615f3a6003611a0a565b611a17565b6382755ebb90615f4d610231565b93849261129f565b82528180615f65600482016102de565b03915afa801561612357615f80915f916160f5575b50615cd3565b615f99615f94615f8f5f61130a565b61135c565b611368565b90602063095ea7b392615fab83615cdf565b90615fc95f8796615fd4615fbd610231565b9889968795869461129f565b845260048401611a91565b03925af19182156160f057615fee926160c4575b50615cdf565b6020632d6bc8ea91615fff5f61130a565b906160315f61600e600261130a565b9561603c8861601c30611317565b90616025610231565b998a988997889661129f565b865260048601615ceb565b03925af180156160bf57616093575b503390916160797f1cbc5ab135991bd2b6a4b034a04aa2aa086dac1371cb9b16b8b5e2ed6b036bed92613a9a565b9261608e616085610231565b92839283615d29565b0390a2565b6160b39060203d81116160b8575b6160ab81836106b7565b810190611332565b61604b565b503d6160a1565b6112e6565b6160e49060203d81116160e9575b6160dc81836106b7565b810190611a73565b615fe8565b503d6160d2565b6112e6565b616116915060203d811161611c575b61610e81836106b7565b810190611a32565b5f615f7a565b503d616104565b6112e6565b616149915060203d811161614f575b61614181836106b7565b810190611332565b5f615f0b565b503d616137565b6112e6565b61617c915060203d8111616182575b61617481836106b7565b810190611332565b5f615ea4565b503d61616a565b6112e6565b506161985f611019565b615e35565b6161be915060203d81116161c4575b6161b681836106b7565b810190611332565b5f615dfc565b503d6161ac565b6112e6565b615ddf9193506161f590853d81116161fc575b6161ed81836106b7565b810190611332565b9290615dc6565b503d6161e3565b6112e6565b7f9b779b17422d0df92223018b32b4d1fa46e071723d6817e2486d003becc55f0090565b906162379101610243565b90565b919091616245614fa0565b8161626061625a6162555f613b11565b610282565b91610282565b145f1461634b5761628783616281600284019161627c8361297f565b612a30565b90611ba9565b5b836162a361629d6162985f613b11565b610282565b91610282565b145f1461631c576162cb906162c56002859201916162c08361297f565b615013565b90611ba9565b5b9190916163176163056162ff7fddf252ad1be2c89b69c2b068fc378daa952ba7f163c4a11628f55a4df523b3ef93613a9a565b93613a9a565b9361630e610231565b9182918261045d565b0390a3565b616346906163406163315f8693018790613aa6565b9161633b8361297f565b61622c565b90611ba9565b6162cc565b61636061635b5f83018490613aa6565b61297f565b8061637361636d86610243565b91610243565b1061639d57616386616398918590615013565b6163935f84018590613aa6565b611ba9565b616288565b916163dc915091926163ad610231565b9384937fe450d38c00000000000000000000000000000000000000000000000000000000855260048501614fe1565b0390fd5b90926163ea614fa0565b826164056163ff6163fa5f613b11565b610282565b91610282565b146164f3578461642561641f61641a5f613b11565b610282565b91610282565b146164ac5761644c9061644761644060018793018690614212565b8790613aa6565b611ba9565b616456575b505050565b9190916164a161648f6164897f8c5be1e5ebec7d5bd14f71427d1e84f3dd0314c0f7b2291e5b200ac8c7c3b92593613a9a565b93613a9a565b93616498610231565b9182918261045d565b0390a35f8080616451565b6164ef6164b85f613b11565b6164c0610231565b9182917f94280d6200000000000000000000000000000000000000000000000000000000835260048301610985565b0390fd5b6165366164ff5f613b11565b616507610231565b9182917fe602df0500000000000000000000000000000000000000000000000000000000835260048301610985565b0390fd5b61654b6165456131e8565b156103f3565b61655157565b616559610231565b7f8dfc202b00000000000000000000000000000000000000000000000000000000815280616589600482016102de565b0390fd5b616595613b3a565b506165b05f6165aa6165a5613176565b6169d2565b0161130a565b90565b5190565b906165c1826169d5565b816165ec7fbc7cd75a20ee27fd9adebab32041f755214dbc6bffa90cc0225b39da2e5c2d3b91613a9a565b906165f5610231565b806165ff816102de565b0390a261660b816165b3565b61661d6166175f611019565b91610243565b115f146166315761662d91616ae5565b505b565b505061663b616a4a565b61662f565b61665161664b616b14565b156103f3565b61665757565b61665f610231565b7fd7e6bcf80000000000000000000000000000000000000000000000000000000081528061668f600482016102de565b0390fd5b6166a49061669f616640565b6166a6565b565b806166c16166bb6166b65f613b11565b610282565b91610282565b146166d1576166cf9061598c565b565b6167146166dd5f613b11565b6166e5610231565b9182917f1e4fbdf700000000000000000000000000000000000000000000000000000000835260048301610985565b0390fd5b61672190616693565b565b9061673591616730616640565b616937565b565b601f602091010490565b1b90565b9190600861677f9102916167797fffffffffffffffffffffffffffffffffffffffffffffffffffffffffffffffff84616741565b92616741565b9181191691161790565b919061679f61679a6167a793611b8a565b611ba6565b908354616745565b9055565b6167bd916167b7612967565b91616789565b565b5b8181106167cb575050565b806167d85f6001936167ab565b016167c0565b9190601f81116167ee575b505050565b6167fa61681f93612852565b90602061680684616737565b83019310616827575b61681890616737565b01906167bf565b5f80806167e9565b91506168188192905061680f565b90616845905f19906008026105a9565b191690565b8161685491616835565b906002021790565b9061686681610326565b9067ffffffffffffffff82116169265761688a82616884855461281f565b856167de565b602090601f83116001146168be579180916168ad935f926168b2575b505061684a565b90555b565b90915001515f806168a6565b601f198316916168cd85612852565b925f5b81811061690e575091600293918560019694106168f4575b505050020190556168b0565b616904910151601f841690616835565b90555f80806168e8565b919360206001819287870151815501950192016168d0565b61068a565b906169359161685c565b565b600461695992616952616948614fa0565b936003850161692b565b910161692b565b565b9061696591616723565b565b61696f616640565b616977616979565b565b616994616984616208565b5f61698d61485b565b9101611ba9565b565b61699e616967565b565b6169a8616640565b6169b06169b2565b565b6169c66169bd6155ea565b5f80910161525f565b565b6169d06169a0565b565b90565b803b6169e96169e35f611019565b91610243565b14616a0b57616a09905f616a036169fe613176565b6169d2565b01613dc7565b565b616a4690616a17610231565b9182917f4c9c8ce300000000000000000000000000000000000000000000000000000000835260048301610985565b0390fd5b34616a5d616a575f611019565b91610243565b11616a6457565b616a6c610231565b7fb398979f00000000000000000000000000000000000000000000000000000000815280616a9c600482016102de565b0390fd5b606090565b90616ab7616ab2836106f5565b6106e0565b918252565b3d5f14616ad757616acc3d616aa5565b903d5f602084013e5b565b616adf616aa0565b90616ad5565b5f80616b1193616af3616aa0565b508390602081019051915af490616b08616abc565b90919091616b32565b90565b616b1c612941565b50616b2f5f616b29615a6c565b01613b9c565b90565b90616b4690616b3f616aa0565b50156103f3565b5f14616b525750616bd6565b616b5b826165b3565b616b6d616b675f611019565b91610243565b1480616bbb575b616b7c575090565b616bb790616b88610231565b9182917f9996b31500000000000000000000000000000000000000000000000000000000835260048301610985565b0390fd5b50803b616bd0616bca5f611019565b91610243565b14616b74565b616bdf816165b3565b616bf1616beb5f611019565b91610243565b115f14616c0057805190602001fd5b616c08610231565b7f1425ea4200000000000000000000000000000000000000000000000000000000815280616c38600482016102de565b0390fdfea2646970667358221220476bd292c84f9b07c6d81d4b96a28e5086056df8ea15ccfb438bc561cab769a464736f6c63430008190033","opcodes":"PUSH1 0xA0 PUSH1 0x40 MSTORE CALLVALUE PUSH2 0x3E JUMPI PUSH2 0x11 PUSH2 0x4D JUMP JUMPDEST PUSH2 0x19 PUSH2 0x43 JUMP JUMPDEST PUSH2 0x6C72 PUSH2 0x102 DUP3 CODECOPY PUSH1 0x80 MLOAD DUP2 DUP2 DUP2 PUSH2 0x52FD ADD MSTORE DUP2 DUP2 PUSH2 0x5382 ADD MSTORE PUSH2 0x557D ADD MSTORE PUSH2 0x6C72 SWAP1 RETURN JUMPDEST PUSH2 0x49 JUMP JUMPDEST PUSH1 0x40 MLOAD SWAP1 JUMP JUMPDEST PUSH0 DUP1 REVERT JUMPDEST PUSH2 0x55 PUSH2 0x57 JUMP JUMPDEST JUMP JUMPDEST PUSH2 0x5F PUSH2 0x61 JUMP JUMPDEST JUMP JUMPDEST PUSH2 0x69 PUSH2 0x6B JUMP JUMPDEST JUMP JUMPDEST PUSH2 0x73 PUSH2 0x75 JUMP JUMPDEST JUMP JUMPDEST PUSH2 0x7D PUSH2 0x7F JUMP JUMPDEST JUMP JUMPDEST PUSH2 0x87 PUSH2 0x89 JUMP JUMPDEST JUMP JUMPDEST PUSH2 0x91 PUSH2 0x93 JUMP JUMPDEST JUMP JUMPDEST PUSH2 0x9B PUSH2 0x9D JUMP JUMPDEST JUMP JUMPDEST PUSH2 0xA5 PUSH2 0xA7 JUMP JUMPDEST JUMP JUMPDEST PUSH2 0xAF PUSH2 0xF3 JUMP JUMPDEST JUMP JUMPDEST PUSH1 0x1 DUP1 PUSH1 0xA0 SHL SUB AND SWAP1 JUMP JUMPDEST SWAP1 JUMP JUMPDEST PUSH2 0xD3 PUSH2 0xCE PUSH2 0xD8 SWAP3 PUSH2 0xB1 JUMP JUMPDEST PUSH2 0xBC JUMP JUMPDEST PUSH2 0xB1 JUMP JUMPDEST SWAP1 JUMP JUMPDEST PUSH2 0xE4 SWAP1 PUSH2 0xBF JUMP JUMPDEST SWAP1 JUMP JUMPDEST PUSH2 0xF0 SWAP1 PUSH2 0xDB JUMP JUMPDEST SWAP1 JUMP JUMPDEST PUSH2 0xFC ADDRESS PUSH2 0xE7 JUMP JUMPDEST PUSH1 0x80 MSTORE JUMP INVALID PUSH1 0x80 PUSH1 0x40 MSTORE PUSH1 0x4 CALLDATASIZE LT ISZERO PUSH2 0x13 JUMPI JUMPDEST PUSH2 0xFDF JUMP JUMPDEST PUSH2 0x1D PUSH0 CALLDATALOAD PUSH2 0x22B JUMP JUMPDEST DUP1 PUSH3 0xF714CE EQ PUSH2 0x226 JUMPI DUP1 PUSH4 0x6FDDE03 EQ PUSH2 0x221 JUMPI DUP1 PUSH4 0x95EA7B3 EQ PUSH2 0x21C JUMPI DUP1 PUSH4 0x18160DDD EQ PUSH2 0x217 JUMPI DUP1 PUSH4 0x23B872DD EQ PUSH2 0x212 JUMPI DUP1 PUSH4 0x295B9300 EQ PUSH2 0x20D JUMPI DUP1 PUSH4 0x313CE567 EQ PUSH2 0x208 JUMPI DUP1 PUSH4 0x36B77107 EQ PUSH2 0x203 JUMPI DUP1 PUSH4 0x374261AB EQ PUSH2 0x1FE JUMPI DUP1 PUSH4 0x3F4BA83A EQ PUSH2 0x1F9 JUMPI DUP1 PUSH4 0x4F1EF286 EQ PUSH2 0x1F4 JUMPI DUP1 PUSH4 0x52D1902D EQ PUSH2 0x1EF JUMPI DUP1 PUSH4 0x5C975ABB EQ PUSH2 0x1EA JUMPI DUP1 PUSH4 0x6560BC80 EQ PUSH2 0x1E5 JUMPI DUP1 PUSH4 0x6E553F65 EQ PUSH2 0x1E0 JUMPI DUP1 PUSH4 0x70A08231 EQ PUSH2 0x1DB JUMPI DUP1 PUSH4 0x715018A6 EQ PUSH2 0x1D6 JUMPI DUP1 PUSH4 0x7B103999 EQ PUSH2 0x1D1 JUMPI DUP1 PUSH4 0x8456CB59 EQ PUSH2 0x1CC JUMPI DUP1 PUSH4 0x88696F62 EQ PUSH2 0x1C7 JUMPI DUP1 PUSH4 0x8DA5CB5B EQ PUSH2 0x1C2 JUMPI DUP1 PUSH4 0x95D89B41 EQ PUSH2 0x1BD JUMPI DUP1 PUSH4 0x9DB5DF46 EQ PUSH2 0x1B8 JUMPI DUP1 PUSH4 0xA6F2AE3A EQ PUSH2 0x1B3 JUMPI DUP1 PUSH4 0xA9059CBB EQ PUSH2 0x1AE JUMPI DUP1 PUSH4 0xAD3CB1CC EQ PUSH2 0x1A9 JUMPI DUP1 PUSH4 0xCDF456E1 EQ PUSH2 0x1A4 JUMPI DUP1 PUSH4 0xDD62ED3E EQ PUSH2 0x19F JUMPI DUP1 PUSH4 0xE56F2FE4 EQ PUSH2 0x19A JUMPI DUP1 PUSH4 0xE73FAA2D EQ PUSH2 0x195 JUMPI DUP1 PUSH4 0xF2FDE38B EQ PUSH2 0x190 JUMPI DUP1 PUSH4 0xF7FDE10F EQ PUSH2 0x18B JUMPI PUSH4 0xFDF262B7 SUB PUSH2 0xE JUMPI PUSH2 0xFAA JUMP JUMPDEST PUSH2 0xF66 JUMP JUMPDEST PUSH2 0xF24 JUMP JUMPDEST PUSH2 0xEEF JUMP JUMPDEST PUSH2 0xEB5 JUMP JUMPDEST PUSH2 0xDEB JUMP JUMPDEST PUSH2 0xD89 JUMP JUMPDEST PUSH2 0xD08 JUMP JUMPDEST PUSH2 0xC5A JUMP JUMPDEST PUSH2 0xC27 JUMP JUMPDEST PUSH2 0xBF2 JUMP JUMPDEST PUSH2 0xBBD JUMP JUMPDEST PUSH2 0xB88 JUMP JUMPDEST PUSH2 0xB4E JUMP JUMPDEST PUSH2 0x9CF JUMP JUMPDEST PUSH2 0x99A JUMP JUMPDEST PUSH2 0x945 JUMP JUMPDEST PUSH2 0x910 JUMP JUMPDEST PUSH2 0x8BE JUMP JUMPDEST PUSH2 0x889 JUMP JUMPDEST PUSH2 0x845 JUMP JUMPDEST PUSH2 0x810 JUMP JUMPDEST PUSH2 0x7C1 JUMP JUMPDEST PUSH2 0x64F JUMP JUMPDEST PUSH2 0x61A JUMP JUMPDEST PUSH2 0x5E5 JUMP JUMPDEST PUSH2 0x574 JUMP JUMPDEST PUSH2 0x517 JUMP JUMPDEST PUSH2 0x4E1 JUMP JUMPDEST PUSH2 0x472 JUMP JUMPDEST PUSH2 0x41A JUMP JUMPDEST PUSH2 0x391 JUMP JUMPDEST PUSH2 0x2E3 JUMP JUMPDEST PUSH1 0xE0 SHR SWAP1 JUMP JUMPDEST PUSH1 0x40 MLOAD SWAP1 JUMP JUMPDEST PUSH0 DUP1 REVERT JUMPDEST PUSH0 DUP1 REVERT JUMPDEST PUSH0 DUP1 REVERT JUMPDEST SWAP1 JUMP JUMPDEST PUSH2 0x24F DUP2 PUSH2 0x243 JUMP JUMPDEST SUB PUSH2 0x256 JUMPI JUMP JUMPDEST PUSH0 DUP1 REVERT JUMPDEST SWAP1 POP CALLDATALOAD SWAP1 PUSH2 0x267 DUP3 PUSH2 0x246 JUMP JUMPDEST JUMP JUMPDEST PUSH20 0xFFFFFFFFFFFFFFFFFFFFFFFFFFFFFFFFFFFFFFFF AND SWAP1 JUMP JUMPDEST PUSH2 0x28B SWAP1 PUSH2 0x269 JUMP JUMPDEST SWAP1 JUMP JUMPDEST PUSH2 0x297 DUP2 PUSH2 0x282 JUMP JUMPDEST SUB PUSH2 0x29E JUMPI JUMP JUMPDEST PUSH0 DUP1 REVERT JUMPDEST SWAP1 POP CALLDATALOAD SWAP1 PUSH2 0x2AF DUP3 PUSH2 0x28E JUMP JUMPDEST JUMP JUMPDEST SWAP2 SWAP1 PUSH1 0x40 DUP4 DUP3 SUB SLT PUSH2 0x2D9 JUMPI DUP1 PUSH2 0x2CD PUSH2 0x2D6 SWAP3 PUSH0 DUP7 ADD PUSH2 0x25A JUMP JUMPDEST SWAP4 PUSH1 0x20 ADD PUSH2 0x2A2 JUMP JUMPDEST SWAP1 JUMP JUMPDEST PUSH2 0x23B JUMP JUMPDEST PUSH0 ADD SWAP1 JUMP JUMPDEST CALLVALUE PUSH2 0x312 JUMPI PUSH2 0x2FC PUSH2 0x2F6 CALLDATASIZE PUSH1 0x4 PUSH2 0x2B1 JUMP JUMPDEST SWAP1 PUSH2 0x27E1 JUMP JUMPDEST PUSH2 0x304 PUSH2 0x231 JUMP JUMPDEST DUP1 PUSH2 0x30E DUP2 PUSH2 0x2DE JUMP JUMPDEST SUB SWAP1 RETURN JUMPDEST PUSH2 0x237 JUMP JUMPDEST PUSH0 SWAP2 SUB SLT PUSH2 0x321 JUMPI JUMP JUMPDEST PUSH2 0x23B JUMP JUMPDEST MLOAD SWAP1 JUMP JUMPDEST PUSH1 0x20 SWAP2 DUP2 MSTORE ADD SWAP1 JUMP JUMPDEST SWAP1 DUP3 PUSH0 SWAP4 SWAP3 DUP3 MCOPY ADD MSTORE JUMP JUMPDEST PUSH1 0x1F DUP1 NOT SWAP2 ADD AND SWAP1 JUMP JUMPDEST PUSH2 0x367 PUSH2 0x370 PUSH1 0x20 SWAP4 PUSH2 0x375 SWAP4 PUSH2 0x35E DUP2 PUSH2 0x326 JUMP JUMPDEST SWAP4 DUP5 DUP1 SWAP4 PUSH2 0x32A JUMP JUMPDEST SWAP6 DUP7 SWAP2 ADD PUSH2 0x333 JUMP JUMPDEST PUSH2 0x33E JUMP JUMPDEST ADD SWAP1 JUMP JUMPDEST PUSH2 0x38E SWAP2 PUSH1 0x20 DUP3 ADD SWAP2 PUSH0 DUP2 DUP5 SUB SWAP2 ADD MSTORE PUSH2 0x348 JUMP JUMPDEST SWAP1 JUMP JUMPDEST CALLVALUE PUSH2 0x3C1 JUMPI PUSH2 0x3A1 CALLDATASIZE PUSH1 0x4 PUSH2 0x317 JUMP JUMPDEST PUSH2 0x3BD PUSH2 0x3AC PUSH2 0x2922 JUMP JUMPDEST PUSH2 0x3B4 PUSH2 0x231 JUMP JUMPDEST SWAP2 DUP3 SWAP2 DUP3 PUSH2 0x379 JUMP JUMPDEST SUB SWAP1 RETURN JUMPDEST PUSH2 0x237 JUMP JUMPDEST SWAP2 SWAP1 PUSH1 0x40 DUP4 DUP3 SUB SLT PUSH2 0x3EE JUMPI DUP1 PUSH2 0x3E2 PUSH2 0x3EB SWAP3 PUSH0 DUP7 ADD PUSH2 0x2A2 JUMP JUMPDEST SWAP4 PUSH1 0x20 ADD PUSH2 0x25A JUMP JUMPDEST SWAP1 JUMP JUMPDEST PUSH2 0x23B JUMP JUMPDEST ISZERO ISZERO SWAP1 JUMP JUMPDEST PUSH2 0x401 SWAP1 PUSH2 0x3F3 JUMP JUMPDEST SWAP1 MSTORE JUMP JUMPDEST SWAP2 SWAP1 PUSH2 0x418 SWAP1 PUSH0 PUSH1 0x20 DUP6 ADD SWAP5 ADD SWAP1 PUSH2 0x3F8 JUMP JUMPDEST JUMP JUMPDEST CALLVALUE PUSH2 0x44B JUMPI PUSH2 0x447 PUSH2 0x436 PUSH2 0x430 CALLDATASIZE PUSH1 0x4 PUSH2 0x3C6 JUMP JUMPDEST SWAP1 PUSH2 0x2945 JUMP JUMPDEST PUSH2 0x43E PUSH2 0x231 JUMP JUMPDEST SWAP2 DUP3 SWAP2 DUP3 PUSH2 0x405 JUMP JUMPDEST SUB SWAP1 RETURN JUMPDEST PUSH2 0x237 JUMP JUMPDEST PUSH2 0x459 SWAP1 PUSH2 0x243 JUMP JUMPDEST SWAP1 MSTORE JUMP JUMPDEST SWAP2 SWAP1 PUSH2 0x470 SWAP1 PUSH0 PUSH1 0x20 DUP6 ADD SWAP5 ADD SWAP1 PUSH2 0x450 JUMP JUMPDEST JUMP JUMPDEST CALLVALUE PUSH2 0x4A2 JUMPI PUSH2 0x482 CALLDATASIZE PUSH1 0x4 PUSH2 0x317 JUMP JUMPDEST PUSH2 0x49E PUSH2 0x48D PUSH2 0x298C JUMP JUMPDEST PUSH2 0x495 PUSH2 0x231 JUMP JUMPDEST SWAP2 DUP3 SWAP2 DUP3 PUSH2 0x45D JUMP JUMPDEST SUB SWAP1 RETURN JUMPDEST PUSH2 0x237 JUMP JUMPDEST SWAP1 SWAP2 PUSH1 0x60 DUP3 DUP5 SUB SLT PUSH2 0x4DC JUMPI PUSH2 0x4D9 PUSH2 0x4C2 DUP5 PUSH0 DUP6 ADD PUSH2 0x2A2 JUMP JUMPDEST SWAP4 PUSH2 0x4D0 DUP2 PUSH1 0x20 DUP7 ADD PUSH2 0x2A2 JUMP JUMPDEST SWAP4 PUSH1 0x40 ADD PUSH2 0x25A JUMP JUMPDEST SWAP1 JUMP JUMPDEST PUSH2 0x23B JUMP JUMPDEST CALLVALUE PUSH2 0x512 JUMPI PUSH2 0x50E PUSH2 0x4FD PUSH2 0x4F7 CALLDATASIZE PUSH1 0x4 PUSH2 0x4A7 JUMP JUMPDEST SWAP2 PUSH2 0x29AB JUMP JUMPDEST PUSH2 0x505 PUSH2 0x231 JUMP JUMPDEST SWAP2 DUP3 SWAP2 DUP3 PUSH2 0x405 JUMP JUMPDEST SUB SWAP1 RETURN JUMPDEST PUSH2 0x237 JUMP JUMPDEST CALLVALUE PUSH2 0x547 JUMPI PUSH2 0x527 CALLDATASIZE PUSH1 0x4 PUSH2 0x317 JUMP JUMPDEST PUSH2 0x543 PUSH2 0x532 PUSH2 0x2A55 JUMP JUMPDEST PUSH2 0x53A PUSH2 0x231 JUMP JUMPDEST SWAP2 DUP3 SWAP2 DUP3 PUSH2 0x45D JUMP JUMPDEST SUB SWAP1 RETURN JUMPDEST PUSH2 0x237 JUMP JUMPDEST PUSH1 0xFF AND SWAP1 JUMP JUMPDEST PUSH2 0x55B SWAP1 PUSH2 0x54C JUMP JUMPDEST SWAP1 MSTORE JUMP JUMPDEST SWAP2 SWAP1 PUSH2 0x572 SWAP1 PUSH0 PUSH1 0x20 DUP6 ADD SWAP5 ADD SWAP1 PUSH2 0x552 JUMP JUMPDEST JUMP JUMPDEST CALLVALUE PUSH2 0x5A4 JUMPI PUSH2 0x584 CALLDATASIZE PUSH1 0x4 PUSH2 0x317 JUMP JUMPDEST PUSH2 0x5A0 PUSH2 0x58F PUSH2 0x2F5F JUMP JUMPDEST PUSH2 0x597 PUSH2 0x231 JUMP JUMPDEST SWAP2 DUP3 SWAP2 DUP3 PUSH2 0x55F JUMP JUMPDEST SUB SWAP1 RETURN JUMPDEST PUSH2 0x237 JUMP JUMPDEST SHR SWAP1 JUMP JUMPDEST SWAP1 JUMP JUMPDEST PUSH2 0x5C0 SWAP1 PUSH1 0x8 PUSH2 0x5C5 SWAP4 MUL PUSH2 0x5A9 JUMP JUMPDEST PUSH2 0x5AD JUMP JUMPDEST SWAP1 JUMP JUMPDEST SWAP1 PUSH2 0x5D3 SWAP2 SLOAD PUSH2 0x5B0 JUMP JUMPDEST SWAP1 JUMP JUMPDEST PUSH2 0x5E2 PUSH1 0x5 PUSH0 SWAP1 PUSH2 0x5C8 JUMP JUMPDEST SWAP1 JUMP JUMPDEST CALLVALUE PUSH2 0x615 JUMPI PUSH2 0x5F5 CALLDATASIZE PUSH1 0x4 PUSH2 0x317 JUMP JUMPDEST PUSH2 0x611 PUSH2 0x600 PUSH2 0x5D6 JUMP JUMPDEST PUSH2 0x608 PUSH2 0x231 JUMP JUMPDEST SWAP2 DUP3 SWAP2 DUP3 PUSH2 0x45D JUMP JUMPDEST SUB SWAP1 RETURN JUMPDEST PUSH2 0x237 JUMP JUMPDEST CALLVALUE PUSH2 0x64A JUMPI PUSH2 0x62A CALLDATASIZE PUSH1 0x4 PUSH2 0x317 JUMP JUMPDEST PUSH2 0x646 PUSH2 0x635 PUSH2 0x2F75 JUMP JUMPDEST PUSH2 0x63D PUSH2 0x231 JUMP JUMPDEST SWAP2 DUP3 SWAP2 DUP3 PUSH2 0x45D JUMP JUMPDEST SUB SWAP1 RETURN JUMPDEST PUSH2 0x237 JUMP JUMPDEST CALLVALUE PUSH2 0x67D JUMPI PUSH2 0x65F CALLDATASIZE PUSH1 0x4 PUSH2 0x317 JUMP JUMPDEST PUSH2 0x667 PUSH2 0x3100 JUMP JUMPDEST PUSH2 0x66F PUSH2 0x231 JUMP JUMPDEST DUP1 PUSH2 0x679 DUP2 PUSH2 0x2DE JUMP JUMPDEST SUB SWAP1 RETURN JUMPDEST PUSH2 0x237 JUMP JUMPDEST PUSH0 DUP1 REVERT JUMPDEST PUSH0 DUP1 REVERT JUMPDEST PUSH32 0x4E487B7100000000000000000000000000000000000000000000000000000000 PUSH0 MSTORE PUSH1 0x41 PUSH1 0x4 MSTORE PUSH1 0x24 PUSH0 REVERT JUMPDEST SWAP1 PUSH2 0x6C1 SWAP1 PUSH2 0x33E JUMP JUMPDEST DUP2 ADD SWAP1 DUP2 LT PUSH8 0xFFFFFFFFFFFFFFFF DUP3 GT OR PUSH2 0x6DB JUMPI PUSH1 0x40 MSTORE JUMP JUMPDEST PUSH2 0x68A JUMP JUMPDEST SWAP1 PUSH2 0x6F3 PUSH2 0x6EC PUSH2 0x231 JUMP JUMPDEST SWAP3 DUP4 PUSH2 0x6B7 JUMP JUMPDEST JUMP JUMPDEST PUSH8 0xFFFFFFFFFFFFFFFF DUP2 GT PUSH2 0x713 JUMPI PUSH2 0x70F PUSH1 0x20 SWAP2 PUSH2 0x33E JUMP JUMPDEST ADD SWAP1 JUMP JUMPDEST PUSH2 0x68A JUMP JUMPDEST SWAP1 DUP3 PUSH0 SWAP4 SWAP3 DUP3 CALLDATACOPY ADD MSTORE JUMP JUMPDEST SWAP1 SWAP3 SWAP2 SWAP3 PUSH2 0x738 PUSH2 0x733 DUP3 PUSH2 0x6F5 JUMP JUMPDEST PUSH2 0x6E0 JUMP JUMPDEST SWAP4 DUP2 DUP6 MSTORE PUSH1 0x20 DUP6 ADD SWAP1 DUP3 DUP5 ADD GT PUSH2 0x754 JUMPI PUSH2 0x752 SWAP3 PUSH2 0x718 JUMP JUMPDEST JUMP JUMPDEST PUSH2 0x686 JUMP JUMPDEST SWAP1 DUP1 PUSH1 0x1F DUP4 ADD SLT ISZERO PUSH2 0x777 JUMPI DUP2 PUSH1 0x20 PUSH2 0x774 SWAP4 CALLDATALOAD SWAP2 ADD PUSH2 0x723 JUMP JUMPDEST SWAP1 JUMP JUMPDEST PUSH2 0x682 JUMP JUMPDEST SWAP2 SWAP1 SWAP2 PUSH1 0x40 DUP2 DUP5 SUB SLT PUSH2 0x7BC JUMPI PUSH2 0x795 DUP4 PUSH0 DUP4 ADD PUSH2 0x2A2 JUMP JUMPDEST SWAP3 PUSH1 0x20 DUP3 ADD CALLDATALOAD PUSH8 0xFFFFFFFFFFFFFFFF DUP2 GT PUSH2 0x7B7 JUMPI PUSH2 0x7B4 SWAP3 ADD PUSH2 0x759 JUMP JUMPDEST SWAP1 JUMP JUMPDEST PUSH2 0x23F JUMP JUMPDEST PUSH2 0x23B JUMP JUMPDEST PUSH2 0x7D5 PUSH2 0x7CF CALLDATASIZE PUSH1 0x4 PUSH2 0x77C JUMP JUMPDEST SWAP1 PUSH2 0x3133 JUMP JUMPDEST PUSH2 0x7DD PUSH2 0x231 JUMP JUMPDEST DUP1 PUSH2 0x7E7 DUP2 PUSH2 0x2DE JUMP JUMPDEST SUB SWAP1 RETURN JUMPDEST SWAP1 JUMP JUMPDEST PUSH2 0x7F7 SWAP1 PUSH2 0x7EB JUMP JUMPDEST SWAP1 MSTORE JUMP JUMPDEST SWAP2 SWAP1 PUSH2 0x80E SWAP1 PUSH0 PUSH1 0x20 DUP6 ADD SWAP5 ADD SWAP1 PUSH2 0x7EE JUMP JUMPDEST JUMP JUMPDEST CALLVALUE PUSH2 0x840 JUMPI PUSH2 0x820 CALLDATASIZE PUSH1 0x4 PUSH2 0x317 JUMP JUMPDEST PUSH2 0x83C PUSH2 0x82B PUSH2 0x31AE JUMP JUMPDEST PUSH2 0x833 PUSH2 0x231 JUMP JUMPDEST SWAP2 DUP3 SWAP2 DUP3 PUSH2 0x7FB JUMP JUMPDEST SUB SWAP1 RETURN JUMPDEST PUSH2 0x237 JUMP JUMPDEST CALLVALUE PUSH2 0x875 JUMPI PUSH2 0x855 CALLDATASIZE PUSH1 0x4 PUSH2 0x317 JUMP JUMPDEST PUSH2 0x871 PUSH2 0x860 PUSH2 0x31E8 JUMP JUMPDEST PUSH2 0x868 PUSH2 0x231 JUMP JUMPDEST SWAP2 DUP3 SWAP2 DUP3 PUSH2 0x405 JUMP JUMPDEST SUB SWAP1 RETURN JUMPDEST PUSH2 0x237 JUMP JUMPDEST PUSH2 0x886 PUSH1 0x6 PUSH0 SWAP1 PUSH2 0x5C8 JUMP JUMPDEST SWAP1 JUMP JUMPDEST CALLVALUE PUSH2 0x8B9 JUMPI PUSH2 0x899 CALLDATASIZE PUSH1 0x4 PUSH2 0x317 JUMP JUMPDEST PUSH2 0x8B5 PUSH2 0x8A4 PUSH2 0x87A JUMP JUMPDEST PUSH2 0x8AC PUSH2 0x231 JUMP JUMPDEST SWAP2 DUP3 SWAP2 DUP3 PUSH2 0x45D JUMP JUMPDEST SUB SWAP1 RETURN JUMPDEST PUSH2 0x237 JUMP JUMPDEST CALLVALUE PUSH2 0x8ED JUMPI PUSH2 0x8D7 PUSH2 0x8D1 CALLDATASIZE PUSH1 0x4 PUSH2 0x2B1 JUMP JUMPDEST SWAP1 PUSH2 0x3A8E JUMP JUMPDEST PUSH2 0x8DF PUSH2 0x231 JUMP JUMPDEST DUP1 PUSH2 0x8E9 DUP2 PUSH2 0x2DE JUMP JUMPDEST SUB SWAP1 RETURN JUMPDEST PUSH2 0x237 JUMP JUMPDEST SWAP1 PUSH1 0x20 DUP3 DUP3 SUB SLT PUSH2 0x90B JUMPI PUSH2 0x908 SWAP2 PUSH0 ADD PUSH2 0x2A2 JUMP JUMPDEST SWAP1 JUMP JUMPDEST PUSH2 0x23B JUMP JUMPDEST CALLVALUE PUSH2 0x940 JUMPI PUSH2 0x93C PUSH2 0x92B PUSH2 0x926 CALLDATASIZE PUSH1 0x4 PUSH2 0x8F2 JUMP JUMPDEST PUSH2 0x3ABC JUMP JUMPDEST PUSH2 0x933 PUSH2 0x231 JUMP JUMPDEST SWAP2 DUP3 SWAP2 DUP3 PUSH2 0x45D JUMP JUMPDEST SUB SWAP1 RETURN JUMPDEST PUSH2 0x237 JUMP JUMPDEST CALLVALUE PUSH2 0x973 JUMPI PUSH2 0x955 CALLDATASIZE PUSH1 0x4 PUSH2 0x317 JUMP JUMPDEST PUSH2 0x95D PUSH2 0x3B30 JUMP JUMPDEST PUSH2 0x965 PUSH2 0x231 JUMP JUMPDEST DUP1 PUSH2 0x96F DUP2 PUSH2 0x2DE JUMP JUMPDEST SUB SWAP1 RETURN JUMPDEST PUSH2 0x237 JUMP JUMPDEST PUSH2 0x981 SWAP1 PUSH2 0x282 JUMP JUMPDEST SWAP1 MSTORE JUMP JUMPDEST SWAP2 SWAP1 PUSH2 0x998 SWAP1 PUSH0 PUSH1 0x20 DUP6 ADD SWAP5 ADD SWAP1 PUSH2 0x978 JUMP JUMPDEST JUMP JUMPDEST CALLVALUE PUSH2 0x9CA JUMPI PUSH2 0x9AA CALLDATASIZE PUSH1 0x4 PUSH2 0x317 JUMP JUMPDEST PUSH2 0x9C6 PUSH2 0x9B5 PUSH2 0x3B3E JUMP JUMPDEST PUSH2 0x9BD PUSH2 0x231 JUMP JUMPDEST SWAP2 DUP3 SWAP2 DUP3 PUSH2 0x985 JUMP JUMPDEST SUB SWAP1 RETURN JUMPDEST PUSH2 0x237 JUMP JUMPDEST CALLVALUE PUSH2 0x9FD JUMPI PUSH2 0x9DF CALLDATASIZE PUSH1 0x4 PUSH2 0x317 JUMP JUMPDEST PUSH2 0x9E7 PUSH2 0x3B78 JUMP JUMPDEST PUSH2 0x9EF PUSH2 0x231 JUMP JUMPDEST DUP1 PUSH2 0x9F9 DUP2 PUSH2 0x2DE JUMP JUMPDEST SUB SWAP1 RETURN JUMPDEST PUSH2 0x237 JUMP JUMPDEST PUSH8 0xFFFFFFFFFFFFFFFF DUP2 GT PUSH2 0xA20 JUMPI PUSH2 0xA1C PUSH1 0x20 SWAP2 PUSH2 0x33E JUMP JUMPDEST ADD SWAP1 JUMP JUMPDEST PUSH2 0x68A JUMP JUMPDEST SWAP1 SWAP3 SWAP2 SWAP3 PUSH2 0xA3A PUSH2 0xA35 DUP3 PUSH2 0xA02 JUMP JUMPDEST PUSH2 0x6E0 JUMP JUMPDEST SWAP4 DUP2 DUP6 MSTORE PUSH1 0x20 DUP6 ADD SWAP1 DUP3 DUP5 ADD GT PUSH2 0xA56 JUMPI PUSH2 0xA54 SWAP3 PUSH2 0x718 JUMP JUMPDEST JUMP JUMPDEST PUSH2 0x686 JUMP JUMPDEST SWAP1 DUP1 PUSH1 0x1F DUP4 ADD SLT ISZERO PUSH2 0xA79 JUMPI DUP2 PUSH1 0x20 PUSH2 0xA76 SWAP4 CALLDATALOAD SWAP2 ADD PUSH2 0xA25 JUMP JUMPDEST SWAP1 JUMP JUMPDEST PUSH2 0x682 JUMP JUMPDEST PUSH8 0xFFFFFFFFFFFFFFFF AND SWAP1 JUMP JUMPDEST PUSH2 0xA94 DUP2 PUSH2 0xA7E JUMP JUMPDEST SUB PUSH2 0xA9B JUMPI JUMP JUMPDEST PUSH0 DUP1 REVERT JUMPDEST SWAP1 POP CALLDATALOAD SWAP1 PUSH2 0xAAC DUP3 PUSH2 0xA8B JUMP JUMPDEST JUMP JUMPDEST PUSH1 0xE0 DUP2 DUP4 SUB SLT PUSH2 0xB49 JUMPI PUSH0 DUP2 ADD CALLDATALOAD PUSH8 0xFFFFFFFFFFFFFFFF DUP2 GT PUSH2 0xB44 JUMPI DUP3 PUSH2 0xAD7 SWAP2 DUP4 ADD PUSH2 0xA5B JUMP JUMPDEST SWAP3 PUSH1 0x20 DUP3 ADD CALLDATALOAD PUSH8 0xFFFFFFFFFFFFFFFF DUP2 GT PUSH2 0xB3F JUMPI DUP4 PUSH2 0xAF8 SWAP2 DUP5 ADD PUSH2 0xA5B JUMP JUMPDEST SWAP3 PUSH2 0xB06 DUP2 PUSH1 0x40 DUP6 ADD PUSH2 0x2A2 JUMP JUMPDEST SWAP3 PUSH2 0xB14 DUP3 PUSH1 0x60 DUP4 ADD PUSH2 0x2A2 JUMP JUMPDEST SWAP3 PUSH2 0xB3C PUSH2 0xB25 DUP5 PUSH1 0x80 DUP6 ADD PUSH2 0x2A2 JUMP JUMPDEST SWAP4 PUSH2 0xB33 DUP2 PUSH1 0xA0 DUP7 ADD PUSH2 0x2A2 JUMP JUMPDEST SWAP4 PUSH1 0xC0 ADD PUSH2 0xA9F JUMP JUMPDEST SWAP1 JUMP JUMPDEST PUSH2 0x23F JUMP JUMPDEST PUSH2 0x23F JUMP JUMPDEST PUSH2 0x23B JUMP JUMPDEST CALLVALUE PUSH2 0xB83 JUMPI PUSH2 0xB6D PUSH2 0xB61 CALLDATASIZE PUSH1 0x4 PUSH2 0xAAE JUMP JUMPDEST SWAP6 SWAP5 SWAP1 SWAP5 SWAP4 SWAP2 SWAP4 PUSH2 0x4144 JUMP JUMPDEST PUSH2 0xB75 PUSH2 0x231 JUMP JUMPDEST DUP1 PUSH2 0xB7F DUP2 PUSH2 0x2DE JUMP JUMPDEST SUB SWAP1 RETURN JUMPDEST PUSH2 0x237 JUMP JUMPDEST CALLVALUE PUSH2 0xBB8 JUMPI PUSH2 0xB98 CALLDATASIZE PUSH1 0x4 PUSH2 0x317 JUMP JUMPDEST PUSH2 0xBB4 PUSH2 0xBA3 PUSH2 0x4155 JUMP JUMPDEST PUSH2 0xBAB PUSH2 0x231 JUMP JUMPDEST SWAP2 DUP3 SWAP2 DUP3 PUSH2 0x985 JUMP JUMPDEST SUB SWAP1 RETURN JUMPDEST PUSH2 0x237 JUMP JUMPDEST CALLVALUE PUSH2 0xBED JUMPI PUSH2 0xBCD CALLDATASIZE PUSH1 0x4 PUSH2 0x317 JUMP JUMPDEST PUSH2 0xBE9 PUSH2 0xBD8 PUSH2 0x4173 JUMP JUMPDEST PUSH2 0xBE0 PUSH2 0x231 JUMP JUMPDEST SWAP2 DUP3 SWAP2 DUP3 PUSH2 0x379 JUMP JUMPDEST SUB SWAP1 RETURN JUMPDEST PUSH2 0x237 JUMP JUMPDEST CALLVALUE PUSH2 0xC22 JUMPI PUSH2 0xC02 CALLDATASIZE PUSH1 0x4 PUSH2 0x317 JUMP JUMPDEST PUSH2 0xC1E PUSH2 0xC0D PUSH2 0x4192 JUMP JUMPDEST PUSH2 0xC15 PUSH2 0x231 JUMP JUMPDEST SWAP2 DUP3 SWAP2 DUP3 PUSH2 0x985 JUMP JUMPDEST SUB SWAP1 RETURN JUMPDEST PUSH2 0x237 JUMP JUMPDEST CALLVALUE PUSH2 0xC55 JUMPI PUSH2 0xC37 CALLDATASIZE PUSH1 0x4 PUSH2 0x317 JUMP JUMPDEST PUSH2 0xC3F PUSH2 0x41E6 JUMP JUMPDEST PUSH2 0xC47 PUSH2 0x231 JUMP JUMPDEST DUP1 PUSH2 0xC51 DUP2 PUSH2 0x2DE JUMP JUMPDEST SUB SWAP1 RETURN JUMPDEST PUSH2 0x237 JUMP JUMPDEST CALLVALUE PUSH2 0xC8B JUMPI PUSH2 0xC87 PUSH2 0xC76 PUSH2 0xC70 CALLDATASIZE PUSH1 0x4 PUSH2 0x3C6 JUMP JUMPDEST SWAP1 PUSH2 0x41F0 JUMP JUMPDEST PUSH2 0xC7E PUSH2 0x231 JUMP JUMPDEST SWAP2 DUP3 SWAP2 DUP3 PUSH2 0x405 JUMP JUMPDEST SUB SWAP1 RETURN JUMPDEST PUSH2 0x237 JUMP JUMPDEST SWAP1 PUSH2 0xCA2 PUSH2 0xC9D DUP4 PUSH2 0xA02 JUMP JUMPDEST PUSH2 0x6E0 JUMP JUMPDEST SWAP2 DUP3 MSTORE JUMP JUMPDEST PUSH0 PUSH32 0x352E302E30000000000000000000000000000000000000000000000000000000 SWAP2 ADD MSTORE JUMP JUMPDEST PUSH2 0xCD8 PUSH1 0x5 PUSH2 0xC90 JUMP JUMPDEST SWAP1 PUSH2 0xCE5 PUSH1 0x20 DUP4 ADD PUSH2 0xCA7 JUMP JUMPDEST JUMP JUMPDEST PUSH2 0xCEF PUSH2 0xCCE JUMP JUMPDEST SWAP1 JUMP JUMPDEST PUSH2 0xCFA PUSH2 0xCE7 JUMP JUMPDEST SWAP1 JUMP JUMPDEST PUSH2 0xD05 PUSH2 0xCF2 JUMP JUMPDEST SWAP1 JUMP JUMPDEST CALLVALUE PUSH2 0xD38 JUMPI PUSH2 0xD18 CALLDATASIZE PUSH1 0x4 PUSH2 0x317 JUMP JUMPDEST PUSH2 0xD34 PUSH2 0xD23 PUSH2 0xCFD JUMP JUMPDEST PUSH2 0xD2B PUSH2 0x231 JUMP JUMPDEST SWAP2 DUP3 SWAP2 DUP3 PUSH2 0x379 JUMP JUMPDEST SUB SWAP1 RETURN JUMPDEST PUSH2 0x237 JUMP JUMPDEST PUSH20 0xFFFFFFFFFFFFFFFFFFFFFFFFFFFFFFFFFFFFFFFF AND SWAP1 JUMP JUMPDEST PUSH2 0xD66 SWAP1 PUSH1 0x8 PUSH2 0xD6B SWAP4 MUL PUSH2 0x5A9 JUMP JUMPDEST PUSH2 0xD3D JUMP JUMPDEST SWAP1 JUMP JUMPDEST SWAP1 PUSH2 0xD79 SWAP2 SLOAD PUSH2 0xD56 JUMP JUMPDEST SWAP1 JUMP JUMPDEST PUSH2 0xD86 PUSH0 DUP1 PUSH2 0xD6E JUMP JUMPDEST SWAP1 JUMP JUMPDEST CALLVALUE PUSH2 0xDB9 JUMPI PUSH2 0xD99 CALLDATASIZE PUSH1 0x4 PUSH2 0x317 JUMP JUMPDEST PUSH2 0xDB5 PUSH2 0xDA4 PUSH2 0xD7C JUMP JUMPDEST PUSH2 0xDAC PUSH2 0x231 JUMP JUMPDEST SWAP2 DUP3 SWAP2 DUP3 PUSH2 0x985 JUMP JUMPDEST SUB SWAP1 RETURN JUMPDEST PUSH2 0x237 JUMP JUMPDEST SWAP2 SWAP1 PUSH1 0x40 DUP4 DUP3 SUB SLT PUSH2 0xDE6 JUMPI DUP1 PUSH2 0xDDA PUSH2 0xDE3 SWAP3 PUSH0 DUP7 ADD PUSH2 0x2A2 JUMP JUMPDEST SWAP4 PUSH1 0x20 ADD PUSH2 0x2A2 JUMP JUMPDEST SWAP1 JUMP JUMPDEST PUSH2 0x23B JUMP JUMPDEST CALLVALUE PUSH2 0xE1C JUMPI PUSH2 0xE18 PUSH2 0xE07 PUSH2 0xE01 CALLDATASIZE PUSH1 0x4 PUSH2 0xDBE JUMP JUMPDEST SWAP1 PUSH2 0x4228 JUMP JUMPDEST PUSH2 0xE0F PUSH2 0x231 JUMP JUMPDEST SWAP2 DUP3 SWAP2 DUP3 PUSH2 0x45D JUMP JUMPDEST SUB SWAP1 RETURN JUMPDEST PUSH2 0x237 JUMP JUMPDEST SWAP1 SWAP2 PUSH1 0xC0 DUP3 DUP5 SUB SLT PUSH2 0xEB0 JUMPI PUSH0 DUP3 ADD CALLDATALOAD PUSH8 0xFFFFFFFFFFFFFFFF DUP2 GT PUSH2 0xEAB JUMPI DUP4 PUSH2 0xE4C SWAP2 DUP5 ADD PUSH2 0xA5B JUMP JUMPDEST SWAP3 PUSH1 0x20 DUP4 ADD CALLDATALOAD PUSH8 0xFFFFFFFFFFFFFFFF DUP2 GT PUSH2 0xEA6 JUMPI DUP2 PUSH2 0xE6D SWAP2 DUP6 ADD PUSH2 0xA5B JUMP JUMPDEST SWAP3 PUSH2 0xE7B DUP3 PUSH1 0x40 DUP4 ADD PUSH2 0x2A2 JUMP JUMPDEST SWAP3 PUSH2 0xEA3 PUSH2 0xE8C DUP5 PUSH1 0x60 DUP6 ADD PUSH2 0x2A2 JUMP JUMPDEST SWAP4 PUSH2 0xE9A DUP2 PUSH1 0x80 DUP7 ADD PUSH2 0x2A2 JUMP JUMPDEST SWAP4 PUSH1 0xA0 ADD PUSH2 0x2A2 JUMP JUMPDEST SWAP1 JUMP JUMPDEST PUSH2 0x23F JUMP JUMPDEST PUSH2 0x23F JUMP JUMPDEST PUSH2 0x23B JUMP JUMPDEST CALLVALUE PUSH2 0xEEA JUMPI PUSH2 0xED4 PUSH2 0xEC8 CALLDATASIZE PUSH1 0x4 PUSH2 0xE21 JUMP JUMPDEST SWAP5 SWAP4 SWAP1 SWAP4 SWAP3 SWAP2 SWAP3 PUSH2 0x453F JUMP JUMPDEST PUSH2 0xEDC PUSH2 0x231 JUMP JUMPDEST DUP1 PUSH2 0xEE6 DUP2 PUSH2 0x2DE JUMP JUMPDEST SUB SWAP1 RETURN JUMPDEST PUSH2 0x237 JUMP JUMPDEST CALLVALUE PUSH2 0xF1F JUMPI PUSH2 0xEFF CALLDATASIZE PUSH1 0x4 PUSH2 0x317 JUMP JUMPDEST PUSH2 0xF1B PUSH2 0xF0A PUSH2 0x456E JUMP JUMPDEST PUSH2 0xF12 PUSH2 0x231 JUMP JUMPDEST SWAP2 DUP3 SWAP2 DUP3 PUSH2 0x45D JUMP JUMPDEST SUB SWAP1 RETURN JUMPDEST PUSH2 0x237 JUMP JUMPDEST CALLVALUE PUSH2 0xF52 JUMPI PUSH2 0xF3C PUSH2 0xF37 CALLDATASIZE PUSH1 0x4 PUSH2 0x8F2 JUMP JUMPDEST PUSH2 0x4785 JUMP JUMPDEST PUSH2 0xF44 PUSH2 0x231 JUMP JUMPDEST DUP1 PUSH2 0xF4E DUP2 PUSH2 0x2DE JUMP JUMPDEST SUB SWAP1 RETURN JUMPDEST PUSH2 0x237 JUMP JUMPDEST PUSH2 0xF63 PUSH1 0x4 PUSH0 SWAP1 PUSH2 0x5C8 JUMP JUMPDEST SWAP1 JUMP JUMPDEST CALLVALUE PUSH2 0xF96 JUMPI PUSH2 0xF76 CALLDATASIZE PUSH1 0x4 PUSH2 0x317 JUMP JUMPDEST PUSH2 0xF92 PUSH2 0xF81 PUSH2 0xF57 JUMP JUMPDEST PUSH2 0xF89 PUSH2 0x231 JUMP JUMPDEST SWAP2 DUP3 SWAP2 DUP3 PUSH2 0x45D JUMP JUMPDEST SUB SWAP1 RETURN JUMPDEST PUSH2 0x237 JUMP JUMPDEST PUSH2 0xFA7 PUSH1 0x2 PUSH0 SWAP1 PUSH2 0xD6E JUMP JUMPDEST SWAP1 JUMP JUMPDEST CALLVALUE PUSH2 0xFDA JUMPI PUSH2 0xFBA CALLDATASIZE PUSH1 0x4 PUSH2 0x317 JUMP JUMPDEST PUSH2 0xFD6 PUSH2 0xFC5 PUSH2 0xF9B JUMP JUMPDEST PUSH2 0xFCD PUSH2 0x231 JUMP JUMPDEST SWAP2 DUP3 SWAP2 DUP3 PUSH2 0x985 JUMP JUMPDEST SUB SWAP1 RETURN JUMPDEST PUSH2 0x237 JUMP JUMPDEST PUSH0 DUP1 REVERT JUMPDEST SWAP1 PUSH2 0xFF5 SWAP2 PUSH2 0xFF0 PUSH2 0x47BC JUMP JUMPDEST PUSH2 0xFFF JUMP JUMPDEST PUSH2 0xFFD PUSH2 0x4868 JUMP JUMPDEST JUMP JUMPDEST SWAP1 PUSH2 0x1011 SWAP2 PUSH2 0x100C PUSH2 0x4885 JUMP JUMPDEST PUSH2 0x1BC9 JUMP JUMPDEST JUMP JUMPDEST SWAP1 JUMP JUMPDEST SWAP1 JUMP JUMPDEST PUSH2 0x102D PUSH2 0x1028 PUSH2 0x1032 SWAP3 PUSH2 0x1013 JUMP JUMPDEST PUSH2 0x1016 JUMP JUMPDEST PUSH2 0x243 JUMP JUMPDEST SWAP1 JUMP JUMPDEST PUSH0 PUSH32 0x536861726573206D7573742062652067726561746572207468616E207A65726F SWAP2 ADD MSTORE JUMP JUMPDEST PUSH2 0x1068 PUSH1 0x20 DUP1 SWAP3 PUSH2 0x32A JUMP JUMPDEST PUSH2 0x1071 DUP2 PUSH2 0x1035 JUMP JUMPDEST ADD SWAP1 JUMP JUMPDEST PUSH2 0x108A SWAP1 PUSH1 0x20 DUP2 ADD SWAP1 PUSH0 DUP2 DUP4 SUB SWAP2 ADD MSTORE PUSH2 0x105C JUMP JUMPDEST SWAP1 JUMP JUMPDEST ISZERO PUSH2 0x1094 JUMPI JUMP JUMPDEST PUSH2 0x109C PUSH2 0x231 JUMP JUMPDEST PUSH32 0x8C379A000000000000000000000000000000000000000000000000000000000 DUP2 MSTORE DUP1 PUSH2 0x10CC PUSH1 0x4 DUP3 ADD PUSH2 0x1075 JUMP JUMPDEST SUB SWAP1 REVERT JUMPDEST PUSH0 PUSH32 0x496E73756666696369656E742062616C616E6365000000000000000000000000 SWAP2 ADD MSTORE JUMP JUMPDEST PUSH2 0x1104 PUSH1 0x14 PUSH1 0x20 SWAP3 PUSH2 0x32A JUMP JUMPDEST PUSH2 0x110D DUP2 PUSH2 0x10D0 JUMP JUMPDEST ADD SWAP1 JUMP JUMPDEST PUSH2 0x1126 SWAP1 PUSH1 0x20 DUP2 ADD SWAP1 PUSH0 DUP2 DUP4 SUB SWAP2 ADD MSTORE PUSH2 0x10F7 JUMP JUMPDEST SWAP1 JUMP JUMPDEST ISZERO PUSH2 0x1130 JUMPI JUMP JUMPDEST PUSH2 0x1138 PUSH2 0x231 JUMP JUMPDEST PUSH32 0x8C379A000000000000000000000000000000000000000000000000000000000 DUP2 MSTORE DUP1 PUSH2 0x1168 PUSH1 0x4 DUP3 ADD PUSH2 0x1111 JUMP JUMPDEST SUB SWAP1 REVERT JUMPDEST PUSH0 PUSH32 0x546F74616C20737570706C792063616E6E6F74206265207A65726F0000000000 SWAP2 ADD MSTORE JUMP JUMPDEST PUSH2 0x11A0 PUSH1 0x1B PUSH1 0x20 SWAP3 PUSH2 0x32A JUMP JUMPDEST PUSH2 0x11A9 DUP2 PUSH2 0x116C JUMP JUMPDEST ADD SWAP1 JUMP JUMPDEST PUSH2 0x11C2 SWAP1 PUSH1 0x20 DUP2 ADD SWAP1 PUSH0 DUP2 DUP4 SUB SWAP2 ADD MSTORE PUSH2 0x1193 JUMP JUMPDEST SWAP1 JUMP JUMPDEST ISZERO PUSH2 0x11CC JUMPI JUMP JUMPDEST PUSH2 0x11D4 PUSH2 0x231 JUMP JUMPDEST PUSH32 0x8C379A000000000000000000000000000000000000000000000000000000000 DUP2 MSTORE DUP1 PUSH2 0x1204 PUSH1 0x4 DUP3 ADD PUSH2 0x11AD JUMP JUMPDEST SUB SWAP1 REVERT JUMPDEST PUSH0 SHR SWAP1 JUMP JUMPDEST PUSH20 0xFFFFFFFFFFFFFFFFFFFFFFFFFFFFFFFFFFFFFFFF AND SWAP1 JUMP JUMPDEST PUSH2 0x1232 PUSH2 0x1237 SWAP2 PUSH2 0x1208 JUMP JUMPDEST PUSH2 0x120D JUMP JUMPDEST SWAP1 JUMP JUMPDEST PUSH2 0x1244 SWAP1 SLOAD PUSH2 0x1226 JUMP JUMPDEST SWAP1 JUMP JUMPDEST PUSH2 0x125B PUSH2 0x1256 PUSH2 0x1260 SWAP3 PUSH2 0x269 JUMP JUMPDEST PUSH2 0x1016 JUMP JUMPDEST PUSH2 0x269 JUMP JUMPDEST SWAP1 JUMP JUMPDEST PUSH2 0x126C SWAP1 PUSH2 0x1247 JUMP JUMPDEST SWAP1 JUMP JUMPDEST PUSH2 0x1278 SWAP1 PUSH2 0x1263 JUMP JUMPDEST SWAP1 JUMP JUMPDEST PUSH2 0x1284 SWAP1 PUSH2 0x1247 JUMP JUMPDEST SWAP1 JUMP JUMPDEST PUSH2 0x1290 SWAP1 PUSH2 0x127B JUMP JUMPDEST SWAP1 JUMP JUMPDEST PUSH2 0x129C SWAP1 PUSH2 0x1263 JUMP JUMPDEST SWAP1 JUMP JUMPDEST PUSH1 0xE0 SHL SWAP1 JUMP JUMPDEST PUSH2 0x12AE DUP2 PUSH2 0x54C JUMP JUMPDEST SUB PUSH2 0x12B5 JUMPI JUMP JUMPDEST PUSH0 DUP1 REVERT JUMPDEST SWAP1 POP MLOAD SWAP1 PUSH2 0x12C6 DUP3 PUSH2 0x12A5 JUMP JUMPDEST JUMP JUMPDEST SWAP1 PUSH1 0x20 DUP3 DUP3 SUB SLT PUSH2 0x12E1 JUMPI PUSH2 0x12DE SWAP2 PUSH0 ADD PUSH2 0x12B9 JUMP JUMPDEST SWAP1 JUMP JUMPDEST PUSH2 0x23B JUMP JUMPDEST PUSH2 0x12EE PUSH2 0x231 JUMP JUMPDEST RETURNDATASIZE PUSH0 DUP3 RETURNDATACOPY RETURNDATASIZE SWAP1 REVERT JUMPDEST PUSH2 0x1302 PUSH2 0x1307 SWAP2 PUSH2 0x1208 JUMP JUMPDEST PUSH2 0xD3D JUMP JUMPDEST SWAP1 JUMP JUMPDEST PUSH2 0x1314 SWAP1 SLOAD PUSH2 0x12F6 JUMP JUMPDEST SWAP1 JUMP JUMPDEST PUSH2 0x1320 SWAP1 PUSH2 0x1263 JUMP JUMPDEST SWAP1 JUMP JUMPDEST SWAP1 POP MLOAD SWAP1 PUSH2 0x1330 DUP3 PUSH2 0x246 JUMP JUMPDEST JUMP JUMPDEST SWAP1 PUSH1 0x20 DUP3 DUP3 SUB SLT PUSH2 0x134B JUMPI PUSH2 0x1348 SWAP2 PUSH0 ADD PUSH2 0x1323 JUMP JUMPDEST SWAP1 JUMP JUMPDEST PUSH2 0x23B JUMP JUMPDEST PUSH2 0x1359 SWAP1 PUSH2 0x1247 JUMP JUMPDEST SWAP1 JUMP JUMPDEST PUSH2 0x1365 SWAP1 PUSH2 0x1350 JUMP JUMPDEST SWAP1 JUMP JUMPDEST PUSH2 0x1371 SWAP1 PUSH2 0x1263 JUMP JUMPDEST SWAP1 JUMP JUMPDEST SWAP1 JUMP JUMPDEST PUSH2 0x138B PUSH2 0x1386 PUSH2 0x1390 SWAP3 PUSH2 0x1374 JUMP JUMPDEST PUSH2 0x1016 JUMP JUMPDEST PUSH2 0x54C JUMP JUMPDEST SWAP1 JUMP JUMPDEST PUSH32 0x4E487B7100000000000000000000000000000000000000000000000000000000 PUSH0 MSTORE PUSH1 0x11 PUSH1 0x4 MSTORE PUSH1 0x24 PUSH0 REVERT JUMPDEST PUSH2 0x13CC PUSH2 0x13D2 SWAP2 PUSH2 0x54C JUMP JUMPDEST SWAP2 PUSH2 0x54C JUMP JUMPDEST SWAP1 SUB SWAP1 PUSH1 0xFF DUP3 GT PUSH2 0x13DF JUMPI JUMP JUMPDEST PUSH2 0x1393 JUMP JUMPDEST PUSH2 0x13ED SWAP1 PUSH2 0x54C JUMP JUMPDEST PUSH1 0x4D DUP2 GT PUSH2 0x13FB JUMPI PUSH1 0xA EXP SWAP1 JUMP JUMPDEST PUSH2 0x1393 JUMP JUMPDEST PUSH32 0x4E487B7100000000000000000000000000000000000000000000000000000000 PUSH0 MSTORE PUSH1 0x12 PUSH1 0x4 MSTORE PUSH1 0x24 PUSH0 REVERT JUMPDEST PUSH2 0x1439 PUSH2 0x143F SWAP2 PUSH2 0x243 JUMP JUMPDEST SWAP2 PUSH2 0x243 JUMP JUMPDEST SWAP1 DUP2 ISZERO PUSH2 0x144A JUMPI DIV SWAP1 JUMP JUMPDEST PUSH2 0x1400 JUMP JUMPDEST PUSH1 0x20 PUSH32 0x206F766572666C6F770000000000000000000000000000000000000000000000 SWAP2 PUSH32 0x596561726E5661756C742062616C616E6365207363616C696E6720776F756C64 PUSH0 DUP3 ADD MSTORE ADD MSTORE JUMP JUMPDEST PUSH2 0x14A9 PUSH1 0x29 PUSH1 0x40 SWAP3 PUSH2 0x32A JUMP JUMPDEST PUSH2 0x14B2 DUP2 PUSH2 0x144F JUMP JUMPDEST ADD SWAP1 JUMP JUMPDEST PUSH2 0x14CB SWAP1 PUSH1 0x20 DUP2 ADD SWAP1 PUSH0 DUP2 DUP4 SUB SWAP2 ADD MSTORE PUSH2 0x149C JUMP JUMPDEST SWAP1 JUMP JUMPDEST ISZERO PUSH2 0x14D5 JUMPI JUMP JUMPDEST PUSH2 0x14DD PUSH2 0x231 JUMP JUMPDEST PUSH32 0x8C379A000000000000000000000000000000000000000000000000000000000 DUP2 MSTORE DUP1 PUSH2 0x150D PUSH1 0x4 DUP3 ADD PUSH2 0x14B6 JUMP JUMPDEST SUB SWAP1 REVERT JUMPDEST PUSH1 0x20 PUSH32 0x666C6F7700000000000000000000000000000000000000000000000000000000 SWAP2 PUSH32 0x51756F74652062616C616E6365207363616C696E6720776F756C64206F766572 PUSH0 DUP3 ADD MSTORE ADD MSTORE JUMP JUMPDEST PUSH2 0x156B PUSH1 0x24 PUSH1 0x40 SWAP3 PUSH2 0x32A JUMP JUMPDEST PUSH2 0x1574 DUP2 PUSH2 0x1511 JUMP JUMPDEST ADD SWAP1 JUMP JUMPDEST PUSH2 0x158D SWAP1 PUSH1 0x20 DUP2 ADD SWAP1 PUSH0 DUP2 DUP4 SUB SWAP2 ADD MSTORE PUSH2 0x155E JUMP JUMPDEST SWAP1 JUMP JUMPDEST ISZERO PUSH2 0x1597 JUMPI JUMP JUMPDEST PUSH2 0x159F PUSH2 0x231 JUMP JUMPDEST PUSH32 0x8C379A000000000000000000000000000000000000000000000000000000000 DUP2 MSTORE DUP1 PUSH2 0x15CF PUSH1 0x4 DUP3 ADD PUSH2 0x1578 JUMP JUMPDEST SUB SWAP1 REVERT JUMPDEST PUSH2 0x15E2 PUSH2 0x15E8 SWAP2 SWAP4 SWAP3 SWAP4 PUSH2 0x243 JUMP JUMPDEST SWAP3 PUSH2 0x243 JUMP JUMPDEST SWAP2 PUSH2 0x15F4 DUP4 DUP3 MUL PUSH2 0x243 JUMP JUMPDEST SWAP3 DUP2 DUP5 DIV EQ SWAP1 ISZERO OR ISZERO PUSH2 0x1603 JUMPI JUMP JUMPDEST PUSH2 0x1393 JUMP JUMPDEST PUSH1 0x20 PUSH32 0x7700000000000000000000000000000000000000000000000000000000000000 SWAP2 PUSH32 0x5368617265732063616C63756C6174696F6E20776F756C64206F766572666C6F PUSH0 DUP3 ADD MSTORE ADD MSTORE JUMP JUMPDEST PUSH2 0x1662 PUSH1 0x21 PUSH1 0x40 SWAP3 PUSH2 0x32A JUMP JUMPDEST PUSH2 0x166B DUP2 PUSH2 0x1608 JUMP JUMPDEST ADD SWAP1 JUMP JUMPDEST PUSH2 0x1684 SWAP1 PUSH1 0x20 DUP2 ADD SWAP1 PUSH0 DUP2 DUP4 SUB SWAP2 ADD MSTORE PUSH2 0x1655 JUMP JUMPDEST SWAP1 JUMP JUMPDEST ISZERO PUSH2 0x168E JUMPI JUMP JUMPDEST PUSH2 0x1696 PUSH2 0x231 JUMP JUMPDEST PUSH32 0x8C379A000000000000000000000000000000000000000000000000000000000 DUP2 MSTORE DUP1 PUSH2 0x16C6 PUSH1 0x4 DUP3 ADD PUSH2 0x166F JUMP JUMPDEST SUB SWAP1 REVERT JUMPDEST PUSH1 0x20 PUSH32 0x6C74000000000000000000000000000000000000000000000000000000000000 SWAP2 PUSH32 0x496E73756666696369656E742061737365747320696E20596561726E20566175 PUSH0 DUP3 ADD MSTORE ADD MSTORE JUMP JUMPDEST PUSH2 0x1724 PUSH1 0x22 PUSH1 0x40 SWAP3 PUSH2 0x32A JUMP JUMPDEST PUSH2 0x172D DUP2 PUSH2 0x16CA JUMP JUMPDEST ADD SWAP1 JUMP JUMPDEST PUSH2 0x1746 SWAP1 PUSH1 0x20 DUP2 ADD SWAP1 PUSH0 DUP2 DUP4 SUB SWAP2 ADD MSTORE PUSH2 0x1717 JUMP JUMPDEST SWAP1 JUMP JUMPDEST ISZERO PUSH2 0x1750 JUMPI JUMP JUMPDEST PUSH2 0x1758 PUSH2 0x231 JUMP JUMPDEST PUSH32 0x8C379A000000000000000000000000000000000000000000000000000000000 DUP2 MSTORE DUP1 PUSH2 0x1788 PUSH1 0x4 DUP3 ADD PUSH2 0x1731 JUMP JUMPDEST SUB SWAP1 REVERT JUMPDEST PUSH1 0x40 SWAP1 PUSH2 0x17B5 PUSH2 0x17BC SWAP5 SWAP7 SWAP6 SWAP4 SWAP7 PUSH2 0x17AB PUSH1 0x60 DUP5 ADD SWAP9 PUSH0 DUP6 ADD SWAP1 PUSH2 0x450 JUMP JUMPDEST PUSH1 0x20 DUP4 ADD SWAP1 PUSH2 0x978 JUMP JUMPDEST ADD SWAP1 PUSH2 0x978 JUMP JUMPDEST JUMP JUMPDEST PUSH0 PUSH32 0x426173652062616C616E636520636865636B206661696C656400000000000000 SWAP2 ADD MSTORE JUMP JUMPDEST PUSH2 0x17F2 PUSH1 0x19 PUSH1 0x20 SWAP3 PUSH2 0x32A JUMP JUMPDEST PUSH2 0x17FB DUP2 PUSH2 0x17BE JUMP JUMPDEST ADD SWAP1 JUMP JUMPDEST PUSH2 0x1814 SWAP1 PUSH1 0x20 DUP2 ADD SWAP1 PUSH0 DUP2 DUP4 SUB SWAP2 ADD MSTORE PUSH2 0x17E5 JUMP JUMPDEST SWAP1 JUMP JUMPDEST ISZERO PUSH2 0x181E JUMPI JUMP JUMPDEST PUSH2 0x1826 PUSH2 0x231 JUMP JUMPDEST PUSH32 0x8C379A000000000000000000000000000000000000000000000000000000000 DUP2 MSTORE DUP1 PUSH2 0x1856 PUSH1 0x4 DUP3 ADD PUSH2 0x17FF JUMP JUMPDEST SUB SWAP1 REVERT JUMPDEST PUSH2 0x1869 PUSH2 0x186F SWAP2 SWAP4 SWAP3 SWAP4 PUSH2 0x243 JUMP JUMPDEST SWAP3 PUSH2 0x243 JUMP JUMPDEST DUP3 SUB SWAP2 DUP3 GT PUSH2 0x187A JUMPI JUMP JUMPDEST PUSH2 0x1393 JUMP JUMPDEST PUSH0 PUSH32 0x48616972637574206578636565647320616D6F756E7400000000000000000000 SWAP2 ADD MSTORE JUMP JUMPDEST PUSH2 0x18B3 PUSH1 0x16 PUSH1 0x20 SWAP3 PUSH2 0x32A JUMP JUMPDEST PUSH2 0x18BC DUP2 PUSH2 0x187F JUMP JUMPDEST ADD SWAP1 JUMP JUMPDEST PUSH2 0x18D5 SWAP1 PUSH1 0x20 DUP2 ADD SWAP1 PUSH0 DUP2 DUP4 SUB SWAP2 ADD MSTORE PUSH2 0x18A6 JUMP JUMPDEST SWAP1 JUMP JUMPDEST ISZERO PUSH2 0x18DF JUMPI JUMP JUMPDEST PUSH2 0x18E7 PUSH2 0x231 JUMP JUMPDEST PUSH32 0x8C379A000000000000000000000000000000000000000000000000000000000 DUP2 MSTORE DUP1 PUSH2 0x1917 PUSH1 0x4 DUP3 ADD PUSH2 0x18C0 JUMP JUMPDEST SUB SWAP1 REVERT JUMPDEST PUSH1 0x20 PUSH32 0x7920686169726375740000000000000000000000000000000000000000000000 SWAP2 PUSH32 0x5365636F6E6461727920686169726375742065786365656473207072696D6172 PUSH0 DUP3 ADD MSTORE ADD MSTORE JUMP JUMPDEST PUSH2 0x1975 PUSH1 0x29 PUSH1 0x40 SWAP3 PUSH2 0x32A JUMP JUMPDEST PUSH2 0x197E DUP2 PUSH2 0x191B JUMP JUMPDEST ADD SWAP1 JUMP JUMPDEST PUSH2 0x1997 SWAP1 PUSH1 0x20 DUP2 ADD SWAP1 PUSH0 DUP2 DUP4 SUB SWAP2 ADD MSTORE PUSH2 0x1968 JUMP JUMPDEST SWAP1 JUMP JUMPDEST ISZERO PUSH2 0x19A1 JUMPI JUMP JUMPDEST PUSH2 0x19A9 PUSH2 0x231 JUMP JUMPDEST PUSH32 0x8C379A000000000000000000000000000000000000000000000000000000000 DUP2 MSTORE DUP1 PUSH2 0x19D9 PUSH1 0x4 DUP3 ADD PUSH2 0x1982 JUMP JUMPDEST SUB SWAP1 REVERT JUMPDEST PUSH20 0xFFFFFFFFFFFFFFFFFFFFFFFFFFFFFFFFFFFFFFFF AND SWAP1 JUMP JUMPDEST PUSH2 0x1A02 PUSH2 0x1A07 SWAP2 PUSH2 0x1208 JUMP JUMPDEST PUSH2 0x19DD JUMP JUMPDEST SWAP1 JUMP JUMPDEST PUSH2 0x1A14 SWAP1 SLOAD PUSH2 0x19F6 JUMP JUMPDEST SWAP1 JUMP JUMPDEST PUSH2 0x1A20 SWAP1 PUSH2 0x1263 JUMP JUMPDEST SWAP1 JUMP JUMPDEST SWAP1 POP MLOAD SWAP1 PUSH2 0x1A30 DUP3 PUSH2 0x28E JUMP JUMPDEST JUMP JUMPDEST SWAP1 PUSH1 0x20 DUP3 DUP3 SUB SLT PUSH2 0x1A4B JUMPI PUSH2 0x1A48 SWAP2 PUSH0 ADD PUSH2 0x1A23 JUMP JUMPDEST SWAP1 JUMP JUMPDEST PUSH2 0x23B JUMP JUMPDEST PUSH2 0x1A59 DUP2 PUSH2 0x3F3 JUMP JUMPDEST SUB PUSH2 0x1A60 JUMPI JUMP JUMPDEST PUSH0 DUP1 REVERT JUMPDEST SWAP1 POP MLOAD SWAP1 PUSH2 0x1A71 DUP3 PUSH2 0x1A50 JUMP JUMPDEST JUMP JUMPDEST SWAP1 PUSH1 0x20 DUP3 DUP3 SUB SLT PUSH2 0x1A8C JUMPI PUSH2 0x1A89 SWAP2 PUSH0 ADD PUSH2 0x1A64 JUMP JUMPDEST SWAP1 JUMP JUMPDEST PUSH2 0x23B JUMP JUMPDEST SWAP2 PUSH1 0x20 PUSH2 0x1AB2 SWAP3 SWAP5 SWAP4 PUSH2 0x1AAB PUSH1 0x40 DUP3 ADD SWAP7 PUSH0 DUP4 ADD SWAP1 PUSH2 0x978 JUMP JUMPDEST ADD SWAP1 PUSH2 0x450 JUMP JUMPDEST JUMP JUMPDEST PUSH0 PUSH32 0x4661696C656420746F207472616E736665722071756F74654173736574000000 SWAP2 ADD MSTORE JUMP JUMPDEST PUSH2 0x1AE8 PUSH1 0x1D PUSH1 0x20 SWAP3 PUSH2 0x32A JUMP JUMPDEST PUSH2 0x1AF1 DUP2 PUSH2 0x1AB4 JUMP JUMPDEST ADD SWAP1 JUMP JUMPDEST PUSH2 0x1B0A SWAP1 PUSH1 0x20 DUP2 ADD SWAP1 PUSH0 DUP2 DUP4 SUB SWAP2 ADD MSTORE PUSH2 0x1ADB JUMP JUMPDEST SWAP1 JUMP JUMPDEST ISZERO PUSH2 0x1B14 JUMPI JUMP JUMPDEST PUSH2 0x1B1C PUSH2 0x231 JUMP JUMPDEST PUSH32 0x8C379A000000000000000000000000000000000000000000000000000000000 DUP2 MSTORE DUP1 PUSH2 0x1B4C PUSH1 0x4 DUP3 ADD PUSH2 0x1AF5 JUMP JUMPDEST SUB SWAP1 REVERT JUMPDEST PUSH0 SHL SWAP1 JUMP JUMPDEST SWAP1 PUSH2 0x1B80 PUSH32 0xFFFFFFFFFFFFFFFFFFFFFFFFFFFFFFFFFFFFFFFFFFFFFFFFFFFFFFFFFFFFFFFF SWAP2 PUSH2 0x1B50 JUMP JUMPDEST SWAP2 DUP2 NOT AND SWAP2 AND OR SWAP1 JUMP JUMPDEST PUSH2 0x1B9E PUSH2 0x1B99 PUSH2 0x1BA3 SWAP3 PUSH2 0x243 JUMP JUMPDEST PUSH2 0x1016 JUMP JUMPDEST PUSH2 0x243 JUMP JUMPDEST SWAP1 JUMP JUMPDEST SWAP1 JUMP JUMPDEST SWAP1 PUSH2 0x1BBE PUSH2 0x1BB9 PUSH2 0x1BC5 SWAP3 PUSH2 0x1B8A JUMP JUMPDEST PUSH2 0x1BA6 JUMP JUMPDEST DUP3 SLOAD PUSH2 0x1B55 JUMP JUMPDEST SWAP1 SSTORE JUMP JUMPDEST PUSH2 0x1BE5 DUP2 PUSH2 0x1BDF PUSH2 0x1BD9 PUSH0 PUSH2 0x1019 JUMP JUMPDEST SWAP2 PUSH2 0x243 JUMP JUMPDEST GT PUSH2 0x108D JUMP JUMPDEST PUSH2 0x1C0A PUSH2 0x1BF1 CALLER PUSH2 0x3ABC JUMP JUMPDEST PUSH2 0x1C03 PUSH2 0x1BFD DUP5 PUSH2 0x243 JUMP JUMPDEST SWAP2 PUSH2 0x243 JUMP JUMPDEST LT ISZERO PUSH2 0x1129 JUMP JUMPDEST PUSH2 0x1C2D PUSH2 0x1C15 PUSH2 0x298C JUMP JUMPDEST PUSH2 0x1C27 PUSH2 0x1C21 PUSH0 PUSH2 0x1019 JUMP JUMPDEST SWAP2 PUSH2 0x243 JUMP JUMPDEST GT PUSH2 0x11C5 JUMP JUMPDEST PUSH2 0x1C6A PUSH1 0x20 PUSH2 0x1C54 PUSH2 0x1C4F PUSH2 0x1C4A PUSH2 0x1C45 PUSH1 0x1 PUSH2 0x123A JUMP JUMPDEST PUSH2 0x126F JUMP JUMPDEST PUSH2 0x1287 JUMP JUMPDEST PUSH2 0x1293 JUMP JUMPDEST PUSH4 0x313CE567 SWAP1 PUSH2 0x1C62 PUSH2 0x231 JUMP JUMPDEST SWAP4 DUP5 SWAP3 PUSH2 0x129F JUMP JUMPDEST DUP3 MSTORE DUP2 DUP1 PUSH2 0x1C7A PUSH1 0x4 DUP3 ADD PUSH2 0x2DE JUMP JUMPDEST SUB SWAP2 GAS STATICCALL SWAP1 DUP2 ISZERO PUSH2 0x27DC JUMPI PUSH0 SWAP2 PUSH2 0x27AE JUMPI JUMPDEST POP SWAP1 PUSH2 0x1CC3 PUSH1 0x20 PUSH2 0x1CAD PUSH2 0x1CA8 PUSH2 0x1CA3 PUSH1 0x2 PUSH2 0x130A JUMP JUMPDEST PUSH2 0x1287 JUMP JUMPDEST PUSH2 0x1293 JUMP JUMPDEST PUSH4 0x313CE567 SWAP1 PUSH2 0x1CBB PUSH2 0x231 JUMP JUMPDEST SWAP4 DUP5 SWAP3 PUSH2 0x129F JUMP JUMPDEST DUP3 MSTORE DUP2 DUP1 PUSH2 0x1CD3 PUSH1 0x4 DUP3 ADD PUSH2 0x2DE JUMP JUMPDEST SUB SWAP2 GAS STATICCALL SWAP1 DUP2 ISZERO PUSH2 0x27A9 JUMPI PUSH0 SWAP2 PUSH2 0x277B JUMPI JUMPDEST POP SWAP1 PUSH2 0x1D30 PUSH1 0x20 PUSH2 0x1CFE PUSH2 0x1CF9 PUSH1 0x1 PUSH2 0x123A JUMP JUMPDEST PUSH2 0x126F JUMP JUMPDEST PUSH4 0x70A08231 SWAP1 PUSH2 0x1D25 PUSH2 0x1D10 ADDRESS PUSH2 0x1317 JUMP JUMPDEST SWAP3 PUSH2 0x1D19 PUSH2 0x231 JUMP JUMPDEST SWAP6 DUP7 SWAP5 DUP6 SWAP4 DUP5 SWAP4 PUSH2 0x129F JUMP JUMPDEST DUP4 MSTORE PUSH1 0x4 DUP4 ADD PUSH2 0x985 JUMP JUMPDEST SUB SWAP2 GAS STATICCALL SWAP1 DUP2 ISZERO PUSH2 0x2776 JUMPI PUSH0 SWAP2 PUSH2 0x2748 JUMPI JUMPDEST POP SWAP1 PUSH2 0x1D95 PUSH1 0x20 PUSH2 0x1D63 PUSH2 0x1D5E PUSH2 0x1D59 PUSH1 0x2 PUSH2 0x130A JUMP JUMPDEST PUSH2 0x135C JUMP JUMPDEST PUSH2 0x1368 JUMP JUMPDEST PUSH4 0x70A08231 SWAP1 PUSH2 0x1D8A PUSH2 0x1D75 ADDRESS PUSH2 0x1317 JUMP JUMPDEST SWAP3 PUSH2 0x1D7E PUSH2 0x231 JUMP JUMPDEST SWAP6 DUP7 SWAP5 DUP6 SWAP4 DUP5 SWAP4 PUSH2 0x129F JUMP JUMPDEST DUP4 MSTORE PUSH1 0x4 DUP4 ADD PUSH2 0x985 JUMP JUMPDEST SUB SWAP2 GAS STATICCALL SWAP1 DUP2 ISZERO PUSH2 0x2743 JUMPI PUSH0 SWAP2 PUSH2 0x2715 JUMPI JUMPDEST POP SWAP4 PUSH2 0x1DF9 PUSH1 0x20 PUSH2 0x1DC7 PUSH2 0x1DC2 PUSH2 0x1DBD PUSH0 PUSH2 0x130A JUMP JUMPDEST PUSH2 0x135C JUMP JUMPDEST PUSH2 0x1368 JUMP JUMPDEST PUSH4 0x70A08231 SWAP1 PUSH2 0x1DEE PUSH2 0x1DD9 ADDRESS PUSH2 0x1317 JUMP JUMPDEST SWAP3 PUSH2 0x1DE2 PUSH2 0x231 JUMP JUMPDEST SWAP6 DUP7 SWAP5 DUP6 SWAP4 DUP5 SWAP4 PUSH2 0x129F JUMP JUMPDEST DUP4 MSTORE PUSH1 0x4 DUP4 ADD PUSH2 0x985 JUMP JUMPDEST SUB SWAP2 GAS STATICCALL SWAP1 DUP2 ISZERO PUSH2 0x2710 JUMPI PUSH0 SWAP2 PUSH2 0x26E2 JUMPI JUMPDEST POP SWAP3 DUP1 PUSH32 0xFFFFFFFFFFFFFFFFFFFFFFFFFFFFFFFFFFFFFFFFFFFFFFFFFFFFFFFFFFFFFFFF PUSH1 0x12 DUP5 SWAP1 PUSH2 0x1E3C SWAP1 PUSH2 0x1377 JUMP JUMPDEST SWAP1 PUSH2 0x1E46 SWAP2 PUSH2 0x13C0 JUMP JUMPDEST PUSH2 0x1E4F SWAP1 PUSH2 0x13E4 JUMP JUMPDEST PUSH2 0x1E58 SWAP2 PUSH2 0x142D JUMP JUMPDEST PUSH2 0x1E61 SWAP1 PUSH2 0x243 JUMP JUMPDEST SWAP1 PUSH2 0x1E6B SWAP1 PUSH2 0x243 JUMP JUMPDEST GT ISZERO PUSH2 0x1E76 SWAP1 PUSH2 0x14CE JUMP JUMPDEST DUP6 PUSH32 0xFFFFFFFFFFFFFFFFFFFFFFFFFFFFFFFFFFFFFFFFFFFFFFFFFFFFFFFFFFFFFFFF PUSH1 0x12 DUP8 SWAP1 PUSH2 0x1EA5 SWAP1 PUSH2 0x1377 JUMP JUMPDEST SWAP1 PUSH2 0x1EAF SWAP2 PUSH2 0x13C0 JUMP JUMPDEST PUSH2 0x1EB8 SWAP1 PUSH2 0x13E4 JUMP JUMPDEST PUSH2 0x1EC1 SWAP2 PUSH2 0x142D JUMP JUMPDEST PUSH2 0x1ECA SWAP1 PUSH2 0x243 JUMP JUMPDEST SWAP1 PUSH2 0x1ED4 SWAP1 PUSH2 0x243 JUMP JUMPDEST GT ISZERO PUSH2 0x1EDF SWAP1 PUSH2 0x1590 JUMP JUMPDEST PUSH1 0x12 DUP3 SWAP1 PUSH2 0x1EEC SWAP1 PUSH2 0x1377 JUMP JUMPDEST SWAP1 PUSH2 0x1EF6 SWAP2 PUSH2 0x13C0 JUMP JUMPDEST PUSH2 0x1EFF SWAP1 PUSH2 0x13E4 JUMP JUMPDEST PUSH2 0x1F08 SWAP2 PUSH2 0x15D3 JUMP JUMPDEST SWAP5 PUSH1 0x12 DUP6 SWAP1 PUSH2 0x1F16 SWAP1 PUSH2 0x1377 JUMP JUMPDEST SWAP1 PUSH2 0x1F20 SWAP2 PUSH2 0x13C0 JUMP JUMPDEST PUSH2 0x1F29 SWAP1 PUSH2 0x13E4 JUMP JUMPDEST PUSH2 0x1F32 SWAP2 PUSH2 0x15D3 JUMP JUMPDEST SWAP1 DUP3 PUSH32 0xFFFFFFFFFFFFFFFFFFFFFFFFFFFFFFFFFFFFFFFFFFFFFFFFFFFFFFFFFFFFFFFF DUP8 PUSH2 0x1F5F SWAP2 PUSH2 0x142D JUMP JUMPDEST PUSH2 0x1F68 SWAP1 PUSH2 0x243 JUMP JUMPDEST SWAP1 PUSH2 0x1F72 SWAP1 PUSH2 0x243 JUMP JUMPDEST GT ISZERO PUSH2 0x1F7D SWAP1 PUSH2 0x1687 JUMP JUMPDEST DUP3 PUSH32 0xFFFFFFFFFFFFFFFFFFFFFFFFFFFFFFFFFFFFFFFFFFFFFFFFFFFFFFFFFFFFFFFF DUP4 PUSH2 0x1FA9 SWAP2 PUSH2 0x142D JUMP JUMPDEST PUSH2 0x1FB2 SWAP1 PUSH2 0x243 JUMP JUMPDEST SWAP1 PUSH2 0x1FBC SWAP1 PUSH2 0x243 JUMP JUMPDEST GT ISZERO PUSH2 0x1FC7 SWAP1 PUSH2 0x1687 JUMP JUMPDEST DUP3 DUP7 PUSH2 0x1FD2 SWAP2 PUSH2 0x15D3 JUMP JUMPDEST PUSH2 0x1FDA PUSH2 0x298C JUMP JUMPDEST PUSH2 0x1FE3 SWAP2 PUSH2 0x142D JUMP JUMPDEST SWAP2 DUP4 SWAP1 PUSH2 0x1FEF SWAP2 PUSH2 0x15D3 JUMP JUMPDEST PUSH2 0x1FF7 PUSH2 0x298C JUMP JUMPDEST PUSH2 0x2000 SWAP2 PUSH2 0x142D JUMP JUMPDEST SWAP3 CALLER SWAP1 PUSH2 0x200C SWAP2 PUSH2 0x48CF JUMP JUMPDEST PUSH1 0x12 PUSH2 0x2017 SWAP1 PUSH2 0x1377 JUMP JUMPDEST SWAP1 PUSH2 0x2021 SWAP2 PUSH2 0x13C0 JUMP JUMPDEST PUSH2 0x202A SWAP1 PUSH2 0x13E4 JUMP JUMPDEST PUSH2 0x2033 SWAP2 PUSH2 0x142D JUMP JUMPDEST SWAP3 PUSH1 0x12 PUSH2 0x203F SWAP1 PUSH2 0x1377 JUMP JUMPDEST SWAP1 PUSH2 0x2049 SWAP2 PUSH2 0x13C0 JUMP JUMPDEST PUSH2 0x2052 SWAP1 PUSH2 0x13E4 JUMP JUMPDEST PUSH2 0x205B SWAP2 PUSH2 0x142D JUMP JUMPDEST SWAP3 DUP3 PUSH2 0x2067 PUSH1 0x1 PUSH2 0x123A JUMP JUMPDEST PUSH2 0x2070 SWAP1 PUSH2 0x126F JUMP JUMPDEST PUSH4 0x7A2D13A PUSH2 0x207D PUSH2 0x231 JUMP JUMPDEST DUP1 SWAP5 PUSH2 0x2089 DUP3 SWAP4 PUSH2 0x129F JUMP JUMPDEST DUP3 MSTORE PUSH1 0x4 DUP3 ADD SWAP1 PUSH2 0x2099 SWAP2 PUSH2 0x45D JUMP JUMPDEST SUB DUP2 GAS SWAP4 PUSH1 0x20 SWAP5 STATICCALL DUP1 ISZERO PUSH2 0x26DD JUMPI PUSH2 0x20BF PUSH2 0x20C5 SWAP2 PUSH2 0x20CC SWAP5 PUSH0 SWAP2 PUSH2 0x26AF JUMPI JUMPDEST POP PUSH2 0x243 JUMP JUMPDEST SWAP2 PUSH2 0x243 JUMP JUMPDEST GT ISZERO PUSH2 0x1749 JUMP JUMPDEST PUSH1 0x20 PUSH2 0x20E0 PUSH2 0x20DB PUSH1 0x1 PUSH2 0x123A JUMP JUMPDEST PUSH2 0x126F JUMP JUMPDEST PUSH4 0xBA087652 SWAP4 SWAP1 PUSH2 0x2115 PUSH0 PUSH2 0x20F4 ADDRESS PUSH2 0x1317 JUMP JUMPDEST SWAP7 PUSH2 0x2120 PUSH2 0x2101 ADDRESS PUSH2 0x1317 JUMP JUMPDEST PUSH2 0x2109 PUSH2 0x231 JUMP JUMPDEST SWAP10 DUP11 SWAP8 DUP9 SWAP7 DUP8 SWAP6 PUSH2 0x129F JUMP JUMPDEST DUP6 MSTORE PUSH1 0x4 DUP6 ADD PUSH2 0x178C JUMP JUMPDEST SUB SWAP3 GAS CALL SWAP2 DUP3 ISZERO PUSH2 0x26AA JUMPI PUSH2 0x2182 SWAP3 PUSH2 0x267E JUMPI JUMPDEST POP PUSH1 0x20 PUSH2 0x2150 PUSH2 0x214B PUSH2 0x2146 PUSH0 PUSH2 0x130A JUMP JUMPDEST PUSH2 0x135C JUMP JUMPDEST PUSH2 0x1368 JUMP JUMPDEST PUSH4 0x70A08231 SWAP1 PUSH2 0x2177 PUSH2 0x2162 ADDRESS PUSH2 0x1317 JUMP JUMPDEST SWAP3 PUSH2 0x216B PUSH2 0x231 JUMP JUMPDEST SWAP7 DUP8 SWAP5 DUP6 SWAP4 DUP5 SWAP4 PUSH2 0x129F JUMP JUMPDEST DUP4 MSTORE PUSH1 0x4 DUP4 ADD PUSH2 0x985 JUMP JUMPDEST SUB SWAP2 GAS STATICCALL DUP1 ISZERO PUSH2 0x2679 JUMPI PUSH2 0x21BA SWAP3 PUSH0 SWAP2 PUSH2 0x264B JUMPI JUMPDEST POP PUSH2 0x21B5 DUP2 PUSH2 0x21AE PUSH2 0x21A8 DUP6 PUSH2 0x243 JUMP JUMPDEST SWAP2 PUSH2 0x243 JUMP JUMPDEST LT ISZERO PUSH2 0x1817 JUMP JUMPDEST PUSH2 0x185A JUMP JUMPDEST DUP1 PUSH2 0x21CD PUSH2 0x21C7 PUSH0 PUSH2 0x1019 JUMP JUMPDEST SWAP2 PUSH2 0x243 JUMP JUMPDEST GT PUSH2 0x2330 JUMPI JUMPDEST POP DUP1 PUSH2 0x21E7 PUSH2 0x21E1 PUSH0 PUSH2 0x1019 JUMP JUMPDEST SWAP2 PUSH2 0x243 JUMP JUMPDEST GT PUSH2 0x2317 JUMPI JUMPDEST POP POP PUSH2 0x2201 PUSH2 0x21FC PUSH1 0x1 PUSH2 0x123A JUMP JUMPDEST PUSH2 0x126F JUMP JUMPDEST PUSH2 0x2250 PUSH4 0x7A2D13A SWAP2 PUSH1 0x20 PUSH2 0x221E PUSH2 0x2219 PUSH1 0x1 PUSH2 0x123A JUMP JUMPDEST PUSH2 0x126F JUMP JUMPDEST PUSH4 0x70A08231 SWAP1 PUSH2 0x2245 PUSH2 0x2230 ADDRESS PUSH2 0x1317 JUMP JUMPDEST SWAP3 PUSH2 0x2239 PUSH2 0x231 JUMP JUMPDEST SWAP7 DUP8 SWAP5 DUP6 SWAP4 DUP5 SWAP4 PUSH2 0x129F JUMP JUMPDEST DUP4 MSTORE PUSH1 0x4 DUP4 ADD PUSH2 0x985 JUMP JUMPDEST SUB SWAP2 GAS STATICCALL SWAP1 DUP2 ISZERO PUSH2 0x2312 JUMPI PUSH2 0x228D SWAP4 PUSH1 0x20 SWAP4 PUSH0 SWAP4 PUSH2 0x22DF JUMPI JUMPDEST POP PUSH2 0x2282 SWAP1 PUSH2 0x2276 PUSH2 0x231 JUMP JUMPDEST SWAP6 DUP7 SWAP5 DUP6 SWAP4 DUP5 SWAP4 PUSH2 0x129F JUMP JUMPDEST DUP4 MSTORE PUSH1 0x4 DUP4 ADD PUSH2 0x45D JUMP JUMPDEST SUB SWAP2 GAS STATICCALL DUP1 ISZERO PUSH2 0x22DA JUMPI PUSH2 0x22AA SWAP2 PUSH0 SWAP2 PUSH2 0x22AC JUMPI JUMPDEST POP PUSH1 0x5 PUSH2 0x1BA9 JUMP JUMPDEST JUMP JUMPDEST PUSH2 0x22CD SWAP2 POP PUSH1 0x20 RETURNDATASIZE DUP2 GT PUSH2 0x22D3 JUMPI JUMPDEST PUSH2 0x22C5 DUP2 DUP4 PUSH2 0x6B7 JUMP JUMPDEST DUP2 ADD SWAP1 PUSH2 0x1332 JUMP JUMPDEST PUSH0 PUSH2 0x22A2 JUMP JUMPDEST POP RETURNDATASIZE PUSH2 0x22BB JUMP JUMPDEST PUSH2 0x12E6 JUMP JUMPDEST PUSH2 0x2282 SWAP2 SWAP4 POP PUSH2 0x2304 SWAP1 DUP6 RETURNDATASIZE DUP2 GT PUSH2 0x230B JUMPI JUMPDEST PUSH2 0x22FC DUP2 DUP4 PUSH2 0x6B7 JUMP JUMPDEST DUP2 ADD SWAP1 PUSH2 0x1332 JUMP JUMPDEST SWAP3 SWAP1 PUSH2 0x2269 JUMP JUMPDEST POP RETURNDATASIZE PUSH2 0x22F2 JUMP JUMPDEST PUSH2 0x12E6 JUMP JUMPDEST PUSH2 0x2329 SWAP2 PUSH2 0x2324 SWAP2 PUSH2 0x4BD1 JUMP JUMPDEST PUSH2 0x1B0D JUMP JUMPDEST PUSH0 DUP1 PUSH2 0x21ED JUMP JUMPDEST PUSH2 0x2339 DUP2 PUSH2 0x494E JUMP JUMPDEST SWAP1 PUSH2 0x2357 DUP3 PUSH2 0x2350 PUSH2 0x234A DUP5 PUSH2 0x243 JUMP JUMPDEST SWAP2 PUSH2 0x243 JUMP JUMPDEST GT ISZERO PUSH2 0x18D8 JUMP JUMPDEST PUSH2 0x2362 DUP2 DUP4 SWAP1 PUSH2 0x185A JUMP JUMPDEST POP PUSH2 0x236C DUP3 PUSH2 0x494E JUMP JUMPDEST PUSH2 0x2389 DUP2 PUSH2 0x2382 PUSH2 0x237C DUP7 PUSH2 0x243 JUMP JUMPDEST SWAP2 PUSH2 0x243 JUMP JUMPDEST GT ISZERO PUSH2 0x199A JUMP JUMPDEST PUSH2 0x23B6 PUSH1 0x20 PUSH2 0x23A0 PUSH2 0x239B PUSH1 0x3 PUSH2 0x1A0A JUMP JUMPDEST PUSH2 0x1A17 JUMP JUMPDEST PUSH4 0x4CC7325 SWAP1 PUSH2 0x23AE PUSH2 0x231 JUMP JUMPDEST SWAP4 DUP5 SWAP3 PUSH2 0x129F JUMP JUMPDEST DUP3 MSTORE DUP2 DUP1 PUSH2 0x23C6 PUSH1 0x4 DUP3 ADD PUSH2 0x2DE JUMP JUMPDEST SUB SWAP2 GAS STATICCALL SWAP1 DUP2 ISZERO PUSH2 0x2646 JUMPI PUSH0 SWAP2 PUSH2 0x2618 JUMPI JUMPDEST POP SWAP2 PUSH2 0x2407 PUSH1 0x20 PUSH2 0x23F1 PUSH2 0x23EC PUSH1 0x3 PUSH2 0x1A0A JUMP JUMPDEST PUSH2 0x1A17 JUMP JUMPDEST PUSH4 0x3B19E84A SWAP1 PUSH2 0x23FF PUSH2 0x231 JUMP JUMPDEST SWAP4 DUP5 SWAP3 PUSH2 0x129F JUMP JUMPDEST DUP3 MSTORE DUP2 DUP1 PUSH2 0x2417 PUSH1 0x4 DUP3 ADD PUSH2 0x2DE JUMP JUMPDEST SUB SWAP2 GAS STATICCALL SWAP1 DUP2 ISZERO PUSH2 0x2613 JUMPI PUSH0 SWAP2 PUSH2 0x25E5 JUMPI JUMPDEST POP SWAP4 PUSH1 0x20 PUSH2 0x2446 PUSH2 0x2441 PUSH2 0x243C PUSH0 PUSH2 0x130A JUMP JUMPDEST PUSH2 0x135C JUMP JUMPDEST PUSH2 0x1368 JUMP JUMPDEST SWAP3 PUSH4 0xA9059CBB SWAP4 PUSH2 0x2475 PUSH0 PUSH2 0x245D DUP13 SWAP5 DUP8 SWAP1 PUSH2 0x185A JUMP JUMPDEST SWAP7 PUSH2 0x2480 PUSH2 0x2469 PUSH2 0x231 JUMP JUMPDEST SWAP9 DUP10 SWAP7 DUP8 SWAP6 DUP7 SWAP5 PUSH2 0x129F JUMP JUMPDEST DUP5 MSTORE PUSH1 0x4 DUP5 ADD PUSH2 0x1A91 JUMP JUMPDEST SUB SWAP3 GAS CALL SWAP2 DUP3 ISZERO PUSH2 0x25E0 JUMPI PUSH1 0x20 SWAP3 PUSH2 0x25B5 JUMPI JUMPDEST POP PUSH2 0x24AD PUSH2 0x24A8 PUSH2 0x24A3 PUSH0 PUSH2 0x130A JUMP JUMPDEST PUSH2 0x135C JUMP JUMPDEST PUSH2 0x1368 JUMP JUMPDEST PUSH2 0x24DA PUSH0 PUSH2 0x24C2 PUSH4 0xA9059CBB SWAP8 SWAP5 DUP8 SWAP1 PUSH2 0x185A JUMP JUMPDEST SWAP7 PUSH2 0x24E5 PUSH2 0x24CE PUSH2 0x231 JUMP JUMPDEST SWAP9 DUP10 SWAP7 DUP8 SWAP6 DUP7 SWAP5 PUSH2 0x129F JUMP JUMPDEST DUP5 MSTORE PUSH1 0x4 DUP5 ADD PUSH2 0x1A91 JUMP JUMPDEST SUB SWAP3 GAS CALL SWAP2 DUP3 ISZERO PUSH2 0x25B0 JUMPI PUSH1 0x20 SWAP3 PUSH2 0x2585 JUMPI JUMPDEST POP PUSH2 0x2512 PUSH2 0x250D PUSH2 0x2508 PUSH0 PUSH2 0x130A JUMP JUMPDEST PUSH2 0x135C JUMP JUMPDEST PUSH2 0x1368 JUMP JUMPDEST PUSH2 0x2535 PUSH0 PUSH4 0xA9059CBB SWAP6 SWAP4 SWAP6 PUSH2 0x2540 PUSH2 0x2529 PUSH2 0x231 JUMP JUMPDEST SWAP8 DUP9 SWAP7 DUP8 SWAP6 DUP7 SWAP5 PUSH2 0x129F JUMP JUMPDEST DUP5 MSTORE PUSH1 0x4 DUP5 ADD PUSH2 0x1A91 JUMP JUMPDEST SUB SWAP3 GAS CALL DUP1 ISZERO PUSH2 0x2580 JUMPI PUSH2 0x2554 JUMPI JUMPDEST PUSH2 0x21D3 JUMP JUMPDEST PUSH2 0x2574 SWAP1 PUSH1 0x20 RETURNDATASIZE DUP2 GT PUSH2 0x2579 JUMPI JUMPDEST PUSH2 0x256C DUP2 DUP4 PUSH2 0x6B7 JUMP JUMPDEST DUP2 ADD SWAP1 PUSH2 0x1A73 JUMP JUMPDEST PUSH2 0x254F JUMP JUMPDEST POP RETURNDATASIZE PUSH2 0x2562 JUMP JUMPDEST PUSH2 0x12E6 JUMP JUMPDEST PUSH2 0x25A4 SWAP1 DUP4 RETURNDATASIZE DUP2 GT PUSH2 0x25A9 JUMPI JUMPDEST PUSH2 0x259C DUP2 DUP4 PUSH2 0x6B7 JUMP JUMPDEST DUP2 ADD SWAP1 PUSH2 0x1A73 JUMP JUMPDEST PUSH2 0x24F8 JUMP JUMPDEST POP RETURNDATASIZE PUSH2 0x2592 JUMP JUMPDEST PUSH2 0x12E6 JUMP JUMPDEST PUSH2 0x25D4 SWAP1 DUP4 RETURNDATASIZE DUP2 GT PUSH2 0x25D9 JUMPI JUMPDEST PUSH2 0x25CC DUP2 DUP4 PUSH2 0x6B7 JUMP JUMPDEST DUP2 ADD SWAP1 PUSH2 0x1A73 JUMP JUMPDEST PUSH2 0x2493 JUMP JUMPDEST POP RETURNDATASIZE PUSH2 0x25C2 JUMP JUMPDEST PUSH2 0x12E6 JUMP JUMPDEST PUSH2 0x2606 SWAP2 POP PUSH1 0x20 RETURNDATASIZE DUP2 GT PUSH2 0x260C JUMPI JUMPDEST PUSH2 0x25FE DUP2 DUP4 PUSH2 0x6B7 JUMP JUMPDEST DUP2 ADD SWAP1 PUSH2 0x1A32 JUMP JUMPDEST PUSH0 PUSH2 0x2429 JUMP JUMPDEST POP RETURNDATASIZE PUSH2 0x25F4 JUMP JUMPDEST PUSH2 0x12E6 JUMP JUMPDEST PUSH2 0x2639 SWAP2 POP PUSH1 0x20 RETURNDATASIZE DUP2 GT PUSH2 0x263F JUMPI JUMPDEST PUSH2 0x2631 DUP2 DUP4 PUSH2 0x6B7 JUMP JUMPDEST DUP2 ADD SWAP1 PUSH2 0x1A32 JUMP JUMPDEST PUSH0 PUSH2 0x23D8 JUMP JUMPDEST POP RETURNDATASIZE PUSH2 0x2627 JUMP JUMPDEST PUSH2 0x12E6 JUMP JUMPDEST PUSH2 0x266C SWAP2 POP PUSH1 0x20 RETURNDATASIZE DUP2 GT PUSH2 0x2672 JUMPI JUMPDEST PUSH2 0x2664 DUP2 DUP4 PUSH2 0x6B7 JUMP JUMPDEST DUP2 ADD SWAP1 PUSH2 0x1332 JUMP JUMPDEST PUSH0 PUSH2 0x2197 JUMP JUMPDEST POP RETURNDATASIZE PUSH2 0x265A JUMP JUMPDEST PUSH2 0x12E6 JUMP JUMPDEST PUSH2 0x269E SWAP1 PUSH1 0x20 RETURNDATASIZE DUP2 GT PUSH2 0x26A3 JUMPI JUMPDEST PUSH2 0x2696 DUP2 DUP4 PUSH2 0x6B7 JUMP JUMPDEST DUP2 ADD SWAP1 PUSH2 0x1332 JUMP JUMPDEST PUSH2 0x2134 JUMP JUMPDEST POP RETURNDATASIZE PUSH2 0x268C JUMP JUMPDEST PUSH2 0x12E6 JUMP JUMPDEST PUSH2 0x26D0 SWAP2 POP PUSH1 0x20 RETURNDATASIZE DUP2 GT PUSH2 0x26D6 JUMPI JUMPDEST PUSH2 0x26C8 DUP2 DUP4 PUSH2 0x6B7 JUMP JUMPDEST DUP2 ADD SWAP1 PUSH2 0x1332 JUMP JUMPDEST PUSH0 PUSH2 0x20B9 JUMP JUMPDEST POP RETURNDATASIZE PUSH2 0x26BE JUMP JUMPDEST PUSH2 0x12E6 JUMP JUMPDEST PUSH2 0x2703 SWAP2 POP PUSH1 0x20 RETURNDATASIZE DUP2 GT PUSH2 0x2709 JUMPI JUMPDEST PUSH2 0x26FB DUP2 DUP4 PUSH2 0x6B7 JUMP JUMPDEST DUP2 ADD SWAP1 PUSH2 0x1332 JUMP JUMPDEST PUSH0 PUSH2 0x1E0B JUMP JUMPDEST POP RETURNDATASIZE PUSH2 0x26F1 JUMP JUMPDEST PUSH2 0x12E6 JUMP JUMPDEST PUSH2 0x2736 SWAP2 POP PUSH1 0x20 RETURNDATASIZE DUP2 GT PUSH2 0x273C JUMPI JUMPDEST PUSH2 0x272E DUP2 DUP4 PUSH2 0x6B7 JUMP JUMPDEST DUP2 ADD SWAP1 PUSH2 0x1332 JUMP JUMPDEST PUSH0 PUSH2 0x1DA7 JUMP JUMPDEST POP RETURNDATASIZE PUSH2 0x2724 JUMP JUMPDEST PUSH2 0x12E6 JUMP JUMPDEST PUSH2 0x2769 SWAP2 POP PUSH1 0x20 RETURNDATASIZE DUP2 GT PUSH2 0x276F JUMPI JUMPDEST PUSH2 0x2761 DUP2 DUP4 PUSH2 0x6B7 JUMP JUMPDEST DUP2 ADD SWAP1 PUSH2 0x1332 JUMP JUMPDEST PUSH0 PUSH2 0x1D42 JUMP JUMPDEST POP RETURNDATASIZE PUSH2 0x2757 JUMP JUMPDEST PUSH2 0x12E6 JUMP JUMPDEST PUSH2 0x279C SWAP2 POP PUSH1 0x20 RETURNDATASIZE DUP2 GT PUSH2 0x27A2 JUMPI JUMPDEST PUSH2 0x2794 DUP2 DUP4 PUSH2 0x6B7 JUMP JUMPDEST DUP2 ADD SWAP1 PUSH2 0x12C8 JUMP JUMPDEST PUSH0 PUSH2 0x1CE5 JUMP JUMPDEST POP RETURNDATASIZE PUSH2 0x278A JUMP JUMPDEST PUSH2 0x12E6 JUMP JUMPDEST PUSH2 0x27CF SWAP2 POP PUSH1 0x20 RETURNDATASIZE DUP2 GT PUSH2 0x27D5 JUMPI JUMPDEST PUSH2 0x27C7 DUP2 DUP4 PUSH2 0x6B7 JUMP JUMPDEST DUP2 ADD SWAP1 PUSH2 0x12C8 JUMP JUMPDEST PUSH0 PUSH2 0x1C8C JUMP JUMPDEST POP RETURNDATASIZE PUSH2 0x27BD JUMP JUMPDEST PUSH2 0x12E6 JUMP JUMPDEST SWAP1 PUSH2 0x27EB SWAP2 PUSH2 0xFE3 JUMP JUMPDEST JUMP JUMPDEST PUSH1 0x60 SWAP1 JUMP JUMPDEST PUSH32 0x4E487B7100000000000000000000000000000000000000000000000000000000 PUSH0 MSTORE PUSH1 0x22 PUSH1 0x4 MSTORE PUSH1 0x24 PUSH0 REVERT JUMPDEST SWAP1 PUSH1 0x1 PUSH1 0x2 DUP4 DIV SWAP3 AND DUP1 ISZERO PUSH2 0x283F JUMPI JUMPDEST PUSH1 0x20 DUP4 LT EQ PUSH2 0x283A JUMPI JUMP JUMPDEST PUSH2 0x27F2 JUMP JUMPDEST SWAP2 PUSH1 0x7F AND SWAP2 PUSH2 0x282F JUMP JUMPDEST PUSH1 0x20 SWAP2 DUP2 MSTORE ADD SWAP1 JUMP JUMPDEST PUSH0 MSTORE PUSH1 0x20 PUSH0 KECCAK256 SWAP1 JUMP JUMPDEST SWAP1 PUSH0 SWAP3 SWAP2 DUP1 SLOAD SWAP1 PUSH2 0x2875 PUSH2 0x286E DUP4 PUSH2 0x281F JUMP JUMPDEST DUP1 SWAP5 PUSH2 0x2849 JUMP JUMPDEST SWAP2 PUSH1 0x1 DUP2 AND SWAP1 DUP2 PUSH0 EQ PUSH2 0x28CC JUMPI POP PUSH1 0x1 EQ PUSH2 0x2890 JUMPI JUMPDEST POP POP POP JUMP JUMPDEST PUSH2 0x289D SWAP2 SWAP3 SWAP4 SWAP5 POP PUSH2 0x2852 JUMP JUMPDEST SWAP2 PUSH0 SWAP3 JUMPDEST DUP2 DUP5 LT PUSH2 0x28B4 JUMPI POP POP ADD SWAP1 PUSH0 DUP1 DUP1 PUSH2 0x288B JUMP JUMPDEST PUSH1 0x1 DUP2 PUSH1 0x20 SWAP3 SWAP6 SWAP4 SWAP6 SLOAD DUP5 DUP7 ADD MSTORE ADD SWAP2 ADD SWAP3 SWAP1 PUSH2 0x28A1 JUMP JUMPDEST SWAP3 SWAP5 SWAP6 POP POP POP PUSH1 0xFF NOT AND DUP3 MSTORE ISZERO ISZERO PUSH1 0x20 MUL ADD SWAP1 PUSH0 DUP1 DUP1 PUSH2 0x288B JUMP JUMPDEST SWAP1 PUSH2 0x28F1 SWAP2 PUSH2 0x285B JUMP JUMPDEST SWAP1 JUMP JUMPDEST SWAP1 PUSH2 0x2914 PUSH2 0x290D SWAP3 PUSH2 0x2904 PUSH2 0x231 JUMP JUMPDEST SWAP4 DUP5 DUP1 SWAP3 PUSH2 0x28E7 JUMP JUMPDEST SUB DUP4 PUSH2 0x6B7 JUMP JUMPDEST JUMP JUMPDEST PUSH2 0x291F SWAP1 PUSH2 0x28F4 JUMP JUMPDEST SWAP1 JUMP JUMPDEST PUSH2 0x292A PUSH2 0x27ED JUMP JUMPDEST POP PUSH2 0x293E PUSH1 0x3 PUSH2 0x2938 PUSH2 0x4FA0 JUMP JUMPDEST ADD PUSH2 0x2916 JUMP JUMPDEST SWAP1 JUMP JUMPDEST PUSH0 SWAP1 JUMP JUMPDEST PUSH2 0x2962 SWAP2 PUSH2 0x2951 PUSH2 0x2941 JUMP JUMPDEST POP PUSH2 0x295A PUSH2 0x4FC4 JUMP JUMPDEST SWAP2 SWAP1 SWAP2 PUSH2 0x4FD1 JUMP JUMPDEST PUSH1 0x1 SWAP1 JUMP JUMPDEST PUSH0 SWAP1 JUMP JUMPDEST PUSH2 0x2977 PUSH2 0x297C SWAP2 PUSH2 0x1208 JUMP JUMPDEST PUSH2 0x5AD JUMP JUMPDEST SWAP1 JUMP JUMPDEST PUSH2 0x2989 SWAP1 SLOAD PUSH2 0x296B JUMP JUMPDEST SWAP1 JUMP JUMPDEST PUSH2 0x2994 PUSH2 0x2967 JUMP JUMPDEST POP PUSH2 0x29A8 PUSH1 0x2 PUSH2 0x29A2 PUSH2 0x4FA0 JUMP JUMPDEST ADD PUSH2 0x297F JUMP JUMPDEST SWAP1 JUMP JUMPDEST SWAP2 PUSH2 0x29D5 SWAP3 PUSH2 0x29B8 PUSH2 0x2941 JUMP JUMPDEST POP PUSH2 0x29CD PUSH2 0x29C4 PUSH2 0x4FC4 JUMP JUMPDEST DUP3 SWAP1 DUP5 SWAP2 PUSH2 0x5021 JUMP JUMPDEST SWAP2 SWAP1 SWAP2 PUSH2 0x50EC JUMP JUMPDEST PUSH1 0x1 SWAP1 JUMP JUMPDEST PUSH2 0x29E3 SWAP1 PUSH2 0x1247 JUMP JUMPDEST SWAP1 JUMP JUMPDEST PUSH2 0x29EF SWAP1 PUSH2 0x29DA JUMP JUMPDEST SWAP1 JUMP JUMPDEST PUSH2 0x29FB SWAP1 PUSH2 0x1263 JUMP JUMPDEST SWAP1 JUMP JUMPDEST PUSH1 0x40 SWAP1 PUSH2 0x2A27 PUSH2 0x2A2E SWAP5 SWAP7 SWAP6 SWAP4 SWAP7 PUSH2 0x2A1D PUSH1 0x60 DUP5 ADD SWAP9 PUSH0 DUP6 ADD SWAP1 PUSH2 0x978 JUMP JUMPDEST PUSH1 0x20 DUP4 ADD SWAP1 PUSH2 0x978 JUMP JUMPDEST ADD SWAP1 PUSH2 0x450 JUMP JUMPDEST JUMP JUMPDEST PUSH2 0x2A3F PUSH2 0x2A45 SWAP2 SWAP4 SWAP3 SWAP4 PUSH2 0x243 JUMP JUMPDEST SWAP3 PUSH2 0x243 JUMP JUMPDEST DUP3 ADD DUP1 SWAP3 GT PUSH2 0x2A50 JUMPI JUMP JUMPDEST PUSH2 0x1393 JUMP JUMPDEST PUSH2 0x2A5D PUSH2 0x2967 JUMP JUMPDEST POP PUSH2 0x2A8B PUSH1 0x20 PUSH2 0x2A75 PUSH2 0x2A70 PUSH1 0x3 PUSH2 0x1A0A JUMP JUMPDEST PUSH2 0x1A17 JUMP JUMPDEST PUSH4 0xBB3BA04C SWAP1 PUSH2 0x2A83 PUSH2 0x231 JUMP JUMPDEST SWAP4 DUP5 SWAP3 PUSH2 0x129F JUMP JUMPDEST DUP3 MSTORE DUP2 DUP1 PUSH2 0x2A9B PUSH1 0x4 DUP3 ADD PUSH2 0x2DE JUMP JUMPDEST SUB SWAP2 GAS STATICCALL DUP1 ISZERO PUSH2 0x2F56 JUMPI PUSH2 0x2AB6 SWAP2 PUSH0 SWAP2 PUSH2 0x2F28 JUMPI JUMPDEST POP PUSH2 0x29E6 JUMP JUMPDEST PUSH2 0x2AE3 PUSH1 0x20 PUSH2 0x2ACD PUSH2 0x2AC8 PUSH1 0x3 PUSH2 0x1A0A JUMP JUMPDEST PUSH2 0x1A17 JUMP JUMPDEST PUSH4 0x1BF01E9B SWAP1 PUSH2 0x2ADB PUSH2 0x231 JUMP JUMPDEST SWAP4 DUP5 SWAP3 PUSH2 0x129F JUMP JUMPDEST DUP3 MSTORE DUP2 DUP1 PUSH2 0x2AF3 PUSH1 0x4 DUP3 ADD PUSH2 0x2DE JUMP JUMPDEST SUB SWAP2 GAS STATICCALL SWAP1 DUP2 ISZERO PUSH2 0x2F23 JUMPI PUSH0 SWAP2 PUSH2 0x2EF5 JUMPI JUMPDEST POP SWAP1 PUSH2 0x2B10 PUSH0 PUSH2 0x1019 JUMP JUMPDEST PUSH2 0x2B59 PUSH1 0x20 PUSH2 0x2B27 PUSH2 0x2B22 PUSH1 0x1 PUSH2 0x123A JUMP JUMPDEST PUSH2 0x126F JUMP JUMPDEST PUSH4 0x70A08231 SWAP1 PUSH2 0x2B4E PUSH2 0x2B39 ADDRESS PUSH2 0x1317 JUMP JUMPDEST SWAP3 PUSH2 0x2B42 PUSH2 0x231 JUMP JUMPDEST SWAP6 DUP7 SWAP5 DUP6 SWAP4 DUP5 SWAP4 PUSH2 0x129F JUMP JUMPDEST DUP4 MSTORE PUSH1 0x4 DUP4 ADD PUSH2 0x985 JUMP JUMPDEST SUB SWAP2 GAS STATICCALL SWAP1 DUP2 ISZERO PUSH2 0x2EF0 JUMPI PUSH2 0x2BAC SWAP2 PUSH1 0x20 SWAP2 PUSH0 SWAP2 PUSH2 0x2EC3 JUMPI JUMPDEST POP PUSH2 0x2B85 PUSH2 0x2B80 PUSH1 0x1 PUSH2 0x123A JUMP JUMPDEST PUSH2 0x126F JUMP JUMPDEST PUSH2 0x2BA1 PUSH4 0x7A2D13A PUSH2 0x2B95 PUSH2 0x231 JUMP JUMPDEST SWAP6 DUP7 SWAP5 DUP6 SWAP4 DUP5 SWAP4 PUSH2 0x129F JUMP JUMPDEST DUP4 MSTORE PUSH1 0x4 DUP4 ADD PUSH2 0x45D JUMP JUMPDEST SUB SWAP2 GAS STATICCALL SWAP1 DUP2 ISZERO PUSH2 0x2EBE JUMPI PUSH0 SWAP2 PUSH2 0x2E90 JUMPI JUMPDEST POP PUSH2 0x2C10 PUSH1 0x20 PUSH2 0x2BDE PUSH2 0x2BD9 PUSH2 0x2BD4 PUSH1 0x2 PUSH2 0x130A JUMP JUMPDEST PUSH2 0x135C JUMP JUMPDEST PUSH2 0x1368 JUMP JUMPDEST PUSH4 0x70A08231 SWAP1 PUSH2 0x2C05 PUSH2 0x2BF0 ADDRESS PUSH2 0x1317 JUMP JUMPDEST SWAP3 PUSH2 0x2BF9 PUSH2 0x231 JUMP JUMPDEST SWAP6 DUP7 SWAP5 DUP6 SWAP4 DUP5 SWAP4 PUSH2 0x129F JUMP JUMPDEST DUP4 MSTORE PUSH1 0x4 DUP4 ADD PUSH2 0x985 JUMP JUMPDEST SUB SWAP2 GAS STATICCALL SWAP1 DUP2 ISZERO PUSH2 0x2E8B JUMPI PUSH0 SWAP2 PUSH2 0x2E5D JUMPI JUMPDEST POP PUSH2 0x2C2C PUSH0 PUSH2 0x130A JUMP JUMPDEST PUSH2 0x2C3E PUSH2 0x2C38 DUP8 PUSH2 0x282 JUMP JUMPDEST SWAP2 PUSH2 0x282 JUMP JUMPDEST SUB PUSH2 0x2DC1 JUMPI JUMPDEST PUSH1 0x20 PUSH2 0x2C4F DUP6 PUSH2 0x29F2 JUMP JUMPDEST PUSH4 0x248391FF SWAP1 PUSH2 0x2C84 PUSH2 0x2C62 PUSH1 0x2 PUSH2 0x130A JUMP JUMPDEST SWAP3 PUSH2 0x2C8F PUSH2 0x2C6F PUSH0 PUSH2 0x130A JUMP JUMPDEST SWAP7 PUSH2 0x2C78 PUSH2 0x231 JUMP JUMPDEST SWAP8 DUP9 SWAP7 DUP8 SWAP6 DUP7 SWAP6 PUSH2 0x129F JUMP JUMPDEST DUP6 MSTORE PUSH1 0x4 DUP6 ADD PUSH2 0x29FE JUMP JUMPDEST SUB SWAP2 GAS STATICCALL DUP1 ISZERO PUSH2 0x2DBC JUMPI PUSH2 0x2CB3 SWAP4 PUSH2 0x2CAE SWAP3 PUSH0 SWAP3 PUSH2 0x2D8C JUMPI JUMPDEST POP PUSH2 0x2A30 JUMP JUMPDEST PUSH2 0x2A30 JUMP JUMPDEST SWAP2 PUSH2 0x2CBC PUSH2 0x2F75 JUMP JUMPDEST SWAP2 PUSH2 0x2CC6 PUSH0 PUSH2 0x130A JUMP JUMPDEST PUSH2 0x2CD8 PUSH2 0x2CD2 DUP5 PUSH2 0x282 JUMP JUMPDEST SWAP2 PUSH2 0x282 JUMP JUMPDEST SUB PUSH2 0x2CEE JUMPI JUMPDEST POP POP SWAP1 PUSH2 0x2CEB SWAP2 SWAP1 PUSH2 0x2A30 JUMP JUMPDEST SWAP1 JUMP JUMPDEST PUSH2 0x2CF9 PUSH1 0x20 SWAP2 PUSH2 0x29F2 JUMP JUMPDEST SWAP2 PUSH4 0x248391FF SWAP3 PUSH2 0x2D26 PUSH2 0x2D0C PUSH0 PUSH2 0x130A JUMP JUMPDEST SWAP3 SWAP5 PUSH2 0x2D31 DUP8 PUSH2 0x2D1A PUSH2 0x231 JUMP JUMPDEST SWAP8 DUP9 SWAP7 DUP8 SWAP6 DUP7 SWAP6 PUSH2 0x129F JUMP JUMPDEST DUP6 MSTORE PUSH1 0x4 DUP6 ADD PUSH2 0x29FE JUMP JUMPDEST SUB SWAP2 GAS STATICCALL DUP1 ISZERO PUSH2 0x2D87 JUMPI PUSH2 0x2CEB SWAP4 PUSH2 0x2D50 SWAP3 PUSH0 SWAP3 PUSH2 0x2D57 JUMPI JUMPDEST POP PUSH2 0x2A30 JUMP JUMPDEST SWAP2 PUSH0 PUSH2 0x2CDE JUMP JUMPDEST PUSH2 0x2D79 SWAP2 SWAP3 POP PUSH1 0x20 RETURNDATASIZE DUP2 GT PUSH2 0x2D80 JUMPI JUMPDEST PUSH2 0x2D71 DUP2 DUP4 PUSH2 0x6B7 JUMP JUMPDEST DUP2 ADD SWAP1 PUSH2 0x1332 JUMP JUMPDEST SWAP1 PUSH0 PUSH2 0x2D4A JUMP JUMPDEST POP RETURNDATASIZE PUSH2 0x2D67 JUMP JUMPDEST PUSH2 0x12E6 JUMP JUMPDEST PUSH2 0x2DAE SWAP2 SWAP3 POP PUSH1 0x20 RETURNDATASIZE DUP2 GT PUSH2 0x2DB5 JUMPI JUMPDEST PUSH2 0x2DA6 DUP2 DUP4 PUSH2 0x6B7 JUMP JUMPDEST DUP2 ADD SWAP1 PUSH2 0x1332 JUMP JUMPDEST SWAP1 PUSH0 PUSH2 0x2CA8 JUMP JUMPDEST POP RETURNDATASIZE PUSH2 0x2D9C JUMP JUMPDEST PUSH2 0x12E6 JUMP JUMPDEST SWAP2 PUSH2 0x2DCB DUP5 PUSH2 0x29F2 JUMP JUMPDEST SWAP1 PUSH1 0x20 PUSH4 0x248391FF SWAP3 PUSH2 0x2DDD PUSH0 PUSH2 0x130A JUMP JUMPDEST SWAP1 PUSH2 0x2DFB DUP10 SWAP6 PUSH2 0x2E06 DUP9 PUSH2 0x2DEF PUSH2 0x231 JUMP JUMPDEST SWAP9 DUP10 SWAP7 DUP8 SWAP6 DUP7 SWAP6 PUSH2 0x129F JUMP JUMPDEST DUP6 MSTORE PUSH1 0x4 DUP6 ADD PUSH2 0x29FE JUMP JUMPDEST SUB SWAP2 GAS STATICCALL SWAP1 DUP2 ISZERO PUSH2 0x2E58 JUMPI PUSH2 0x2E22 SWAP3 PUSH0 SWAP3 PUSH2 0x2E28 JUMPI JUMPDEST POP PUSH2 0x2A30 JUMP JUMPDEST SWAP2 PUSH2 0x2C44 JUMP JUMPDEST PUSH2 0x2E4A SWAP2 SWAP3 POP PUSH1 0x20 RETURNDATASIZE DUP2 GT PUSH2 0x2E51 JUMPI JUMPDEST PUSH2 0x2E42 DUP2 DUP4 PUSH2 0x6B7 JUMP JUMPDEST DUP2 ADD SWAP1 PUSH2 0x1332 JUMP JUMPDEST SWAP1 PUSH0 PUSH2 0x2E1C JUMP JUMPDEST POP RETURNDATASIZE PUSH2 0x2E38 JUMP JUMPDEST PUSH2 0x12E6 JUMP JUMPDEST PUSH2 0x2E7E SWAP2 POP PUSH1 0x20 RETURNDATASIZE DUP2 GT PUSH2 0x2E84 JUMPI JUMPDEST PUSH2 0x2E76 DUP2 DUP4 PUSH2 0x6B7 JUMP JUMPDEST DUP2 ADD SWAP1 PUSH2 0x1332 JUMP JUMPDEST PUSH0 PUSH2 0x2C22 JUMP JUMPDEST POP RETURNDATASIZE PUSH2 0x2E6C JUMP JUMPDEST PUSH2 0x12E6 JUMP JUMPDEST PUSH2 0x2EB1 SWAP2 POP PUSH1 0x20 RETURNDATASIZE DUP2 GT PUSH2 0x2EB7 JUMPI JUMPDEST PUSH2 0x2EA9 DUP2 DUP4 PUSH2 0x6B7 JUMP JUMPDEST DUP2 ADD SWAP1 PUSH2 0x1332 JUMP JUMPDEST PUSH0 PUSH2 0x2BBE JUMP JUMPDEST POP RETURNDATASIZE PUSH2 0x2E9F JUMP JUMPDEST PUSH2 0x12E6 JUMP JUMPDEST PUSH2 0x2EE3 SWAP2 POP DUP3 RETURNDATASIZE DUP2 GT PUSH2 0x2EE9 JUMPI JUMPDEST PUSH2 0x2EDB DUP2 DUP4 PUSH2 0x6B7 JUMP JUMPDEST DUP2 ADD SWAP1 PUSH2 0x1332 JUMP JUMPDEST PUSH0 PUSH2 0x2B72 JUMP JUMPDEST POP RETURNDATASIZE PUSH2 0x2ED1 JUMP JUMPDEST PUSH2 0x12E6 JUMP JUMPDEST PUSH2 0x2F16 SWAP2 POP PUSH1 0x20 RETURNDATASIZE DUP2 GT PUSH2 0x2F1C JUMPI JUMPDEST PUSH2 0x2F0E DUP2 DUP4 PUSH2 0x6B7 JUMP JUMPDEST DUP2 ADD SWAP1 PUSH2 0x1A32 JUMP JUMPDEST PUSH0 PUSH2 0x2B05 JUMP JUMPDEST POP RETURNDATASIZE PUSH2 0x2F04 JUMP JUMPDEST PUSH2 0x12E6 JUMP JUMPDEST PUSH2 0x2F49 SWAP2 POP PUSH1 0x20 RETURNDATASIZE DUP2 GT PUSH2 0x2F4F JUMPI JUMPDEST PUSH2 0x2F41 DUP2 DUP4 PUSH2 0x6B7 JUMP JUMPDEST DUP2 ADD SWAP1 PUSH2 0x1A32 JUMP JUMPDEST PUSH0 PUSH2 0x2AB0 JUMP JUMPDEST POP RETURNDATASIZE PUSH2 0x2F37 JUMP JUMPDEST PUSH2 0x12E6 JUMP JUMPDEST PUSH0 SWAP1 JUMP JUMPDEST PUSH2 0x2F67 PUSH2 0x2F5B JUMP JUMPDEST POP PUSH2 0x2F72 PUSH1 0x12 PUSH2 0x1377 JUMP JUMPDEST SWAP1 JUMP JUMPDEST PUSH2 0x2F7D PUSH2 0x2967 JUMP JUMPDEST POP PUSH2 0x2F90 PUSH2 0x2F8B PUSH1 0x1 PUSH2 0x123A JUMP JUMPDEST PUSH2 0x126F JUMP JUMPDEST PUSH2 0x2FDF PUSH4 0x7A2D13A SWAP2 PUSH1 0x20 PUSH2 0x2FAD PUSH2 0x2FA8 PUSH1 0x1 PUSH2 0x123A JUMP JUMPDEST PUSH2 0x126F JUMP JUMPDEST PUSH4 0x70A08231 SWAP1 PUSH2 0x2FD4 PUSH2 0x2FBF ADDRESS PUSH2 0x1317 JUMP JUMPDEST SWAP3 PUSH2 0x2FC8 PUSH2 0x231 JUMP JUMPDEST SWAP7 DUP8 SWAP5 DUP6 SWAP4 DUP5 SWAP4 PUSH2 0x129F JUMP JUMPDEST DUP4 MSTORE PUSH1 0x4 DUP4 ADD PUSH2 0x985 JUMP JUMPDEST SUB SWAP2 GAS STATICCALL SWAP1 DUP2 ISZERO PUSH2 0x30DF JUMPI PUSH2 0x301C SWAP4 PUSH1 0x20 SWAP4 PUSH0 SWAP4 PUSH2 0x30AC JUMPI JUMPDEST POP PUSH2 0x3011 SWAP1 PUSH2 0x3005 PUSH2 0x231 JUMP JUMPDEST SWAP6 DUP7 SWAP5 DUP6 SWAP4 DUP5 SWAP4 PUSH2 0x129F JUMP JUMPDEST DUP4 MSTORE PUSH1 0x4 DUP4 ADD PUSH2 0x45D JUMP JUMPDEST SUB SWAP2 GAS STATICCALL SWAP1 DUP2 ISZERO PUSH2 0x30A7 JUMPI PUSH0 SWAP2 PUSH2 0x3079 JUMPI JUMPDEST POP DUP1 PUSH2 0x304B PUSH2 0x3045 PUSH2 0x3040 PUSH1 0x5 PUSH2 0x297F JUMP JUMPDEST PUSH2 0x243 JUMP JUMPDEST SWAP2 PUSH2 0x243 JUMP JUMPDEST GT PUSH0 EQ PUSH2 0x306A JUMPI PUSH2 0x3066 SWAP1 PUSH2 0x3060 PUSH1 0x5 PUSH2 0x297F JUMP JUMPDEST SWAP1 PUSH2 0x185A JUMP JUMPDEST JUMPDEST SWAP1 JUMP JUMPDEST POP PUSH2 0x3074 PUSH0 PUSH2 0x1019 JUMP JUMPDEST PUSH2 0x3067 JUMP JUMPDEST PUSH2 0x309A SWAP2 POP PUSH1 0x20 RETURNDATASIZE DUP2 GT PUSH2 0x30A0 JUMPI JUMPDEST PUSH2 0x3092 DUP2 DUP4 PUSH2 0x6B7 JUMP JUMPDEST DUP2 ADD SWAP1 PUSH2 0x1332 JUMP JUMPDEST PUSH0 PUSH2 0x302E JUMP JUMPDEST POP RETURNDATASIZE PUSH2 0x3088 JUMP JUMPDEST PUSH2 0x12E6 JUMP JUMPDEST PUSH2 0x3011 SWAP2 SWAP4 POP PUSH2 0x30D1 SWAP1 DUP6 RETURNDATASIZE DUP2 GT PUSH2 0x30D8 JUMPI JUMPDEST PUSH2 0x30C9 DUP2 DUP4 PUSH2 0x6B7 JUMP JUMPDEST DUP2 ADD SWAP1 PUSH2 0x1332 JUMP JUMPDEST SWAP3 SWAP1 PUSH2 0x2FF8 JUMP JUMPDEST POP RETURNDATASIZE PUSH2 0x30BF JUMP JUMPDEST PUSH2 0x12E6 JUMP JUMPDEST PUSH2 0x30EC PUSH2 0x51C9 JUMP JUMPDEST PUSH2 0x30F4 PUSH2 0x30F6 JUMP JUMPDEST JUMP JUMPDEST PUSH2 0x30FE PUSH2 0x52D6 JUMP JUMPDEST JUMP JUMPDEST PUSH2 0x3108 PUSH2 0x30E4 JUMP JUMPDEST JUMP JUMPDEST SWAP1 PUSH2 0x311C SWAP2 PUSH2 0x3117 PUSH2 0x52EC JUMP JUMPDEST PUSH2 0x311E JUMP JUMPDEST JUMP JUMPDEST SWAP1 PUSH2 0x3131 SWAP2 PUSH2 0x312C DUP2 PUSH2 0x53BE JUMP JUMPDEST PUSH2 0x542E JUMP JUMPDEST JUMP JUMPDEST SWAP1 PUSH2 0x313D SWAP2 PUSH2 0x310A JUMP JUMPDEST JUMP JUMPDEST PUSH0 SWAP1 JUMP JUMPDEST PUSH2 0x3154 SWAP1 PUSH2 0x314F PUSH2 0x556C JUMP JUMPDEST PUSH2 0x31A2 JUMP JUMPDEST SWAP1 JUMP JUMPDEST SWAP1 JUMP JUMPDEST PUSH2 0x316E PUSH2 0x3169 PUSH2 0x3173 SWAP3 PUSH2 0x3157 JUMP JUMPDEST PUSH2 0x1B50 JUMP JUMPDEST PUSH2 0x7EB JUMP JUMPDEST SWAP1 JUMP JUMPDEST PUSH2 0x319F PUSH32 0x360894A13BA1A3210667C828492DB98DCA3E2076CC3735A920A3CA505D382BBC PUSH2 0x315A JUMP JUMPDEST SWAP1 JUMP JUMPDEST POP PUSH2 0x31AB PUSH2 0x3176 JUMP JUMPDEST SWAP1 JUMP JUMPDEST PUSH2 0x31BE PUSH2 0x31B9 PUSH2 0x313F JUMP JUMPDEST PUSH2 0x3143 JUMP JUMPDEST SWAP1 JUMP JUMPDEST PUSH1 0xFF AND SWAP1 JUMP JUMPDEST PUSH2 0x31D3 PUSH2 0x31D8 SWAP2 PUSH2 0x1208 JUMP JUMPDEST PUSH2 0x31C1 JUMP JUMPDEST SWAP1 JUMP JUMPDEST PUSH2 0x31E5 SWAP1 SLOAD PUSH2 0x31C7 JUMP JUMPDEST SWAP1 JUMP JUMPDEST PUSH2 0x31F0 PUSH2 0x2941 JUMP JUMPDEST POP PUSH2 0x3203 PUSH0 PUSH2 0x31FD PUSH2 0x55EA JUMP JUMPDEST ADD PUSH2 0x31DB JUMP JUMPDEST SWAP1 JUMP JUMPDEST SWAP1 PUSH2 0x3218 SWAP2 PUSH2 0x3213 PUSH2 0x47BC JUMP JUMPDEST PUSH2 0x3222 JUMP JUMPDEST PUSH2 0x3220 PUSH2 0x4868 JUMP JUMPDEST JUMP JUMPDEST SWAP1 PUSH2 0x3234 SWAP2 PUSH2 0x322F PUSH2 0x4885 JUMP JUMPDEST PUSH2 0x32F4 JUMP JUMPDEST JUMP JUMPDEST PUSH0 PUSH32 0x416D6F756E74206D7573742062652067726561746572207468616E207A65726F SWAP2 ADD MSTORE JUMP JUMPDEST PUSH2 0x3269 PUSH1 0x20 DUP1 SWAP3 PUSH2 0x32A JUMP JUMPDEST PUSH2 0x3272 DUP2 PUSH2 0x3236 JUMP JUMPDEST ADD SWAP1 JUMP JUMPDEST PUSH2 0x328B SWAP1 PUSH1 0x20 DUP2 ADD SWAP1 PUSH0 DUP2 DUP4 SUB SWAP2 ADD MSTORE PUSH2 0x325D JUMP JUMPDEST SWAP1 JUMP JUMPDEST ISZERO PUSH2 0x3295 JUMPI JUMP JUMPDEST PUSH2 0x329D PUSH2 0x231 JUMP JUMPDEST PUSH32 0x8C379A000000000000000000000000000000000000000000000000000000000 DUP2 MSTORE DUP1 PUSH2 0x32CD PUSH1 0x4 DUP3 ADD PUSH2 0x3276 JUMP JUMPDEST SUB SWAP1 REVERT JUMPDEST SWAP2 PUSH1 0x20 PUSH2 0x32F2 SWAP3 SWAP5 SWAP4 PUSH2 0x32EB PUSH1 0x40 DUP3 ADD SWAP7 PUSH0 DUP4 ADD SWAP1 PUSH2 0x450 JUMP JUMPDEST ADD SWAP1 PUSH2 0x978 JUMP JUMPDEST JUMP JUMPDEST PUSH2 0x3310 DUP2 PUSH2 0x330A PUSH2 0x3304 PUSH0 PUSH2 0x1019 JUMP JUMPDEST SWAP2 PUSH2 0x243 JUMP JUMPDEST GT PUSH2 0x328E JUMP JUMPDEST PUSH2 0x3318 PUSH2 0x562A JUMP JUMPDEST PUSH2 0x3331 PUSH2 0x332C PUSH2 0x3327 PUSH0 PUSH2 0x130A JUMP JUMPDEST PUSH2 0x135C JUMP JUMPDEST PUSH2 0x1368 JUMP JUMPDEST PUSH1 0x20 PUSH4 0x23B872DD SWAP2 CALLER SWAP1 PUSH2 0x3361 PUSH0 PUSH2 0x3348 ADDRESS PUSH2 0x1317 JUMP JUMPDEST SWAP6 PUSH2 0x336C DUP9 PUSH2 0x3355 PUSH2 0x231 JUMP JUMPDEST SWAP9 DUP10 SWAP8 DUP9 SWAP7 DUP8 SWAP6 PUSH2 0x129F JUMP JUMPDEST DUP6 MSTORE PUSH1 0x4 DUP6 ADD PUSH2 0x29FE JUMP JUMPDEST SUB SWAP3 GAS CALL DUP1 ISZERO PUSH2 0x3A89 JUMPI PUSH2 0x3A5D JUMPI JUMPDEST POP PUSH2 0x33A9 PUSH1 0x20 PUSH2 0x3393 PUSH2 0x338E PUSH1 0x3 PUSH2 0x1A0A JUMP JUMPDEST PUSH2 0x1A17 JUMP JUMPDEST PUSH4 0x4CC7325 SWAP1 PUSH2 0x33A1 PUSH2 0x231 JUMP JUMPDEST SWAP4 DUP5 SWAP3 PUSH2 0x129F JUMP JUMPDEST DUP3 MSTORE DUP2 DUP1 PUSH2 0x33B9 PUSH1 0x4 DUP3 ADD PUSH2 0x2DE JUMP JUMPDEST SUB SWAP2 GAS STATICCALL SWAP1 DUP2 ISZERO PUSH2 0x3A58 JUMPI PUSH0 SWAP2 PUSH2 0x3A2A JUMPI JUMPDEST POP PUSH2 0x33F9 PUSH1 0x20 PUSH2 0x33E3 PUSH2 0x33DE PUSH1 0x3 PUSH2 0x1A0A JUMP JUMPDEST PUSH2 0x1A17 JUMP JUMPDEST PUSH4 0x3B19E84A SWAP1 PUSH2 0x33F1 PUSH2 0x231 JUMP JUMPDEST SWAP4 DUP5 SWAP3 PUSH2 0x129F JUMP JUMPDEST DUP3 MSTORE DUP2 DUP1 PUSH2 0x3409 PUSH1 0x4 DUP3 ADD PUSH2 0x2DE JUMP JUMPDEST SUB SWAP2 GAS STATICCALL SWAP1 DUP2 ISZERO PUSH2 0x3A25 JUMPI PUSH0 SWAP2 PUSH2 0x39F7 JUMPI JUMPDEST POP SWAP2 PUSH2 0x3426 DUP2 PUSH2 0x494E JUMP JUMPDEST SWAP2 PUSH2 0x3430 DUP4 PUSH2 0x494E JUMP JUMPDEST PUSH1 0x20 PUSH2 0x344B PUSH2 0x3446 PUSH2 0x3441 PUSH0 PUSH2 0x130A JUMP JUMPDEST PUSH2 0x135C JUMP JUMPDEST PUSH2 0x1368 JUMP JUMPDEST PUSH4 0xA9059CBB SWAP4 SWAP1 PUSH2 0x3479 PUSH0 PUSH2 0x3461 DUP10 DUP8 SWAP1 PUSH2 0x185A JUMP JUMPDEST SWAP7 PUSH2 0x3484 PUSH2 0x346D PUSH2 0x231 JUMP JUMPDEST SWAP9 DUP10 SWAP7 DUP8 SWAP6 DUP7 SWAP5 PUSH2 0x129F JUMP JUMPDEST DUP5 MSTORE PUSH1 0x4 DUP5 ADD PUSH2 0x1A91 JUMP JUMPDEST SUB SWAP3 GAS CALL SWAP2 DUP3 ISZERO PUSH2 0x39F2 JUMPI PUSH1 0x20 SWAP3 PUSH2 0x39C7 JUMPI JUMPDEST POP PUSH2 0x34B1 PUSH2 0x34AC PUSH2 0x34A7 PUSH0 PUSH2 0x130A JUMP JUMPDEST PUSH2 0x135C JUMP JUMPDEST PUSH2 0x1368 JUMP JUMPDEST PUSH2 0x34D4 PUSH0 PUSH4 0xA9059CBB SWAP8 SWAP4 SWAP8 PUSH2 0x34DF PUSH2 0x34C8 PUSH2 0x231 JUMP JUMPDEST SWAP10 DUP11 SWAP7 DUP8 SWAP6 DUP7 SWAP5 PUSH2 0x129F JUMP JUMPDEST DUP5 MSTORE PUSH1 0x4 DUP5 ADD PUSH2 0x1A91 JUMP JUMPDEST SUB SWAP3 GAS CALL SWAP3 DUP4 ISZERO PUSH2 0x39C2 JUMPI PUSH2 0x34F9 SWAP4 PUSH2 0x3996 JUMPI JUMPDEST POP PUSH2 0x185A JUMP JUMPDEST SWAP1 PUSH2 0x3513 PUSH2 0x350E PUSH2 0x3509 PUSH0 PUSH2 0x130A JUMP JUMPDEST PUSH2 0x135C JUMP JUMPDEST PUSH2 0x1368 JUMP JUMPDEST PUSH1 0x20 PUSH4 0x95EA7B3 SWAP2 PUSH2 0x352D PUSH2 0x3528 PUSH1 0x1 PUSH2 0x123A JUMP JUMPDEST PUSH2 0x126F JUMP JUMPDEST SWAP1 PUSH2 0x354B PUSH0 DUP8 SWAP6 PUSH2 0x3556 PUSH2 0x353F PUSH2 0x231 JUMP JUMPDEST SWAP8 DUP9 SWAP7 DUP8 SWAP6 DUP7 SWAP5 PUSH2 0x129F JUMP JUMPDEST DUP5 MSTORE PUSH1 0x4 DUP5 ADD PUSH2 0x1A91 JUMP JUMPDEST SUB SWAP3 GAS CALL DUP1 ISZERO PUSH2 0x3991 JUMPI PUSH2 0x3965 JUMPI JUMPDEST POP PUSH2 0x3578 PUSH2 0x3573 PUSH1 0x1 PUSH2 0x123A JUMP JUMPDEST PUSH2 0x126F JUMP JUMPDEST SWAP2 PUSH1 0x20 PUSH4 0x6E553F65 SWAP4 DUP3 SWAP1 PUSH2 0x35A8 PUSH0 PUSH2 0x3590 ADDRESS PUSH2 0x1317 JUMP JUMPDEST SWAP8 PUSH2 0x35B3 PUSH2 0x359C PUSH2 0x231 JUMP JUMPDEST SWAP10 DUP11 SWAP7 DUP8 SWAP6 DUP7 SWAP5 PUSH2 0x129F JUMP JUMPDEST DUP5 MSTORE PUSH1 0x4 DUP5 ADD PUSH2 0x32D1 JUMP JUMPDEST SUB SWAP3 GAS CALL SWAP3 DUP4 ISZERO PUSH2 0x3960 JUMPI PUSH2 0x35F9 SWAP4 PUSH2 0x3934 JUMPI JUMPDEST POP PUSH1 0x20 PUSH2 0x35E3 PUSH2 0x35DE PUSH2 0x35D9 PUSH0 PUSH2 0x130A JUMP JUMPDEST PUSH2 0x1287 JUMP JUMPDEST PUSH2 0x1293 JUMP JUMPDEST PUSH4 0x313CE567 SWAP1 PUSH2 0x35F1 PUSH2 0x231 JUMP JUMPDEST SWAP6 DUP7 SWAP3 PUSH2 0x129F JUMP JUMPDEST DUP3 MSTORE DUP2 DUP1 PUSH2 0x3609 PUSH1 0x4 DUP3 ADD PUSH2 0x2DE JUMP JUMPDEST SUB SWAP2 GAS STATICCALL DUP1 ISZERO PUSH2 0x392F JUMPI PUSH2 0x3659 SWAP4 PUSH0 SWAP2 PUSH2 0x3901 JUMPI JUMPDEST POP PUSH1 0x20 PUSH2 0x3643 PUSH2 0x363E PUSH2 0x3639 PUSH2 0x3634 PUSH1 0x1 PUSH2 0x123A JUMP JUMPDEST PUSH2 0x126F JUMP JUMPDEST PUSH2 0x1287 JUMP JUMPDEST PUSH2 0x1293 JUMP JUMPDEST PUSH4 0x313CE567 SWAP1 PUSH2 0x3651 PUSH2 0x231 JUMP JUMPDEST SWAP7 DUP8 SWAP3 PUSH2 0x129F JUMP JUMPDEST DUP3 MSTORE DUP2 DUP1 PUSH2 0x3669 PUSH1 0x4 DUP3 ADD PUSH2 0x2DE JUMP JUMPDEST SUB SWAP2 GAS STATICCALL DUP1 ISZERO PUSH2 0x38FC JUMPI PUSH2 0x36D3 PUSH2 0x36DE SWAP4 PUSH2 0x36D8 SWAP3 PUSH2 0x36E4 SWAP8 PUSH0 SWAP2 PUSH2 0x38CE JUMPI JUMPDEST POP SWAP4 DUP1 PUSH2 0x369E PUSH2 0x3698 DUP8 PUSH2 0x54C JUMP JUMPDEST SWAP2 PUSH2 0x54C JUMP JUMPDEST GT PUSH0 EQ PUSH2 0x38AD JUMPI PUSH2 0x36BC PUSH2 0x36B7 PUSH2 0x36C2 SWAP4 SWAP3 DUP8 SWAP1 PUSH2 0x13C0 JUMP JUMPDEST PUSH2 0x13E4 JUMP JUMPDEST SWAP1 PUSH2 0x142D JUMP JUMPDEST JUMPDEST SWAP3 PUSH2 0x36CE PUSH1 0x12 PUSH2 0x1377 JUMP JUMPDEST PUSH2 0x13C0 JUMP JUMPDEST PUSH2 0x13E4 JUMP JUMPDEST SWAP1 PUSH2 0x15D3 JUMP JUMPDEST SWAP1 PUSH2 0x590E JUMP JUMPDEST PUSH2 0x36F6 PUSH2 0x36F1 PUSH1 0x1 PUSH2 0x123A JUMP JUMPDEST PUSH2 0x126F JUMP JUMPDEST PUSH2 0x3745 PUSH4 0x7A2D13A SWAP2 PUSH1 0x20 PUSH2 0x3713 PUSH2 0x370E PUSH1 0x1 PUSH2 0x123A JUMP JUMPDEST PUSH2 0x126F JUMP JUMPDEST PUSH4 0x70A08231 SWAP1 PUSH2 0x373A PUSH2 0x3725 ADDRESS PUSH2 0x1317 JUMP JUMPDEST SWAP3 PUSH2 0x372E PUSH2 0x231 JUMP JUMPDEST SWAP7 DUP8 SWAP5 DUP6 SWAP4 DUP5 SWAP4 PUSH2 0x129F JUMP JUMPDEST DUP4 MSTORE PUSH1 0x4 DUP4 ADD PUSH2 0x985 JUMP JUMPDEST SUB SWAP2 GAS STATICCALL SWAP1 DUP2 ISZERO PUSH2 0x38A8 JUMPI PUSH2 0x3782 SWAP4 PUSH1 0x20 SWAP4 PUSH0 SWAP4 PUSH2 0x3875 JUMPI JUMPDEST POP PUSH2 0x3777 SWAP1 PUSH2 0x376B PUSH2 0x231 JUMP JUMPDEST SWAP6 DUP7 SWAP5 DUP6 SWAP4 DUP5 SWAP4 PUSH2 0x129F JUMP JUMPDEST DUP4 MSTORE PUSH1 0x4 DUP4 ADD PUSH2 0x45D JUMP JUMPDEST SUB SWAP2 GAS STATICCALL DUP1 ISZERO PUSH2 0x3870 JUMPI PUSH2 0x379F SWAP2 PUSH0 SWAP2 PUSH2 0x3842 JUMPI JUMPDEST POP PUSH1 0x5 PUSH2 0x1BA9 JUMP JUMPDEST PUSH2 0x37F0 PUSH1 0x20 PUSH2 0x37BE PUSH2 0x37B9 PUSH2 0x37B4 PUSH1 0x2 PUSH2 0x130A JUMP JUMPDEST PUSH2 0x135C JUMP JUMPDEST PUSH2 0x1368 JUMP JUMPDEST PUSH4 0x70A08231 SWAP1 PUSH2 0x37E5 PUSH2 0x37D0 ADDRESS PUSH2 0x1317 JUMP JUMPDEST SWAP3 PUSH2 0x37D9 PUSH2 0x231 JUMP JUMPDEST SWAP6 DUP7 SWAP5 DUP6 SWAP4 DUP5 SWAP4 PUSH2 0x129F JUMP JUMPDEST DUP4 MSTORE PUSH1 0x4 DUP4 ADD PUSH2 0x985 JUMP JUMPDEST SUB SWAP2 GAS STATICCALL DUP1 ISZERO PUSH2 0x383D JUMPI PUSH2 0x380D SWAP2 PUSH0 SWAP2 PUSH2 0x380F JUMPI JUMPDEST POP PUSH1 0x4 PUSH2 0x1BA9 JUMP JUMPDEST JUMP JUMPDEST PUSH2 0x3830 SWAP2 POP PUSH1 0x20 RETURNDATASIZE DUP2 GT PUSH2 0x3836 JUMPI JUMPDEST PUSH2 0x3828 DUP2 DUP4 PUSH2 0x6B7 JUMP JUMPDEST DUP2 ADD SWAP1 PUSH2 0x1332 JUMP JUMPDEST PUSH0 PUSH2 0x3805 JUMP JUMPDEST POP RETURNDATASIZE PUSH2 0x381E JUMP JUMPDEST PUSH2 0x12E6 JUMP JUMPDEST PUSH2 0x3863 SWAP2 POP PUSH1 0x20 RETURNDATASIZE DUP2 GT PUSH2 0x3869 JUMPI JUMPDEST PUSH2 0x385B DUP2 DUP4 PUSH2 0x6B7 JUMP JUMPDEST DUP2 ADD SWAP1 PUSH2 0x1332 JUMP JUMPDEST PUSH0 PUSH2 0x3797 JUMP JUMPDEST POP RETURNDATASIZE PUSH2 0x3851 JUMP JUMPDEST PUSH2 0x12E6 JUMP JUMPDEST PUSH2 0x3777 SWAP2 SWAP4 POP PUSH2 0x389A SWAP1 DUP6 RETURNDATASIZE DUP2 GT PUSH2 0x38A1 JUMPI JUMPDEST PUSH2 0x3892 DUP2 DUP4 PUSH2 0x6B7 JUMP JUMPDEST DUP2 ADD SWAP1 PUSH2 0x1332 JUMP JUMPDEST SWAP3 SWAP1 PUSH2 0x375E JUMP JUMPDEST POP RETURNDATASIZE PUSH2 0x3888 JUMP JUMPDEST PUSH2 0x12E6 JUMP JUMPDEST PUSH2 0x38C3 PUSH2 0x38BE PUSH2 0x38C9 SWAP4 SWAP3 DUP8 PUSH2 0x13C0 JUMP JUMPDEST PUSH2 0x13E4 JUMP JUMPDEST SWAP1 PUSH2 0x15D3 JUMP JUMPDEST PUSH2 0x36C3 JUMP JUMPDEST PUSH2 0x38EF SWAP2 POP PUSH1 0x20 RETURNDATASIZE DUP2 GT PUSH2 0x38F5 JUMPI JUMPDEST PUSH2 0x38E7 DUP2 DUP4 PUSH2 0x6B7 JUMP JUMPDEST DUP2 ADD SWAP1 PUSH2 0x12C8 JUMP JUMPDEST PUSH0 PUSH2 0x3689 JUMP JUMPDEST POP RETURNDATASIZE PUSH2 0x38DD JUMP JUMPDEST PUSH2 0x12E6 JUMP JUMPDEST PUSH2 0x3922 SWAP2 POP PUSH1 0x20 RETURNDATASIZE DUP2 GT PUSH2 0x3928 JUMPI JUMPDEST PUSH2 0x391A DUP2 DUP4 PUSH2 0x6B7 JUMP JUMPDEST DUP2 ADD SWAP1 PUSH2 0x12C8 JUMP JUMPDEST PUSH0 PUSH2 0x361E JUMP JUMPDEST POP RETURNDATASIZE PUSH2 0x3910 JUMP JUMPDEST PUSH2 0x12E6 JUMP JUMPDEST PUSH2 0x3954 SWAP1 PUSH1 0x20 RETURNDATASIZE DUP2 GT PUSH2 0x3959 JUMPI JUMPDEST PUSH2 0x394C DUP2 DUP4 PUSH2 0x6B7 JUMP JUMPDEST DUP2 ADD SWAP1 PUSH2 0x1332 JUMP JUMPDEST PUSH2 0x35C7 JUMP JUMPDEST POP RETURNDATASIZE PUSH2 0x3942 JUMP JUMPDEST PUSH2 0x12E6 JUMP JUMPDEST PUSH2 0x3985 SWAP1 PUSH1 0x20 RETURNDATASIZE DUP2 GT PUSH2 0x398A JUMPI JUMPDEST PUSH2 0x397D DUP2 DUP4 PUSH2 0x6B7 JUMP JUMPDEST DUP2 ADD SWAP1 PUSH2 0x1A73 JUMP JUMPDEST PUSH2 0x3565 JUMP JUMPDEST POP RETURNDATASIZE PUSH2 0x3973 JUMP JUMPDEST PUSH2 0x12E6 JUMP JUMPDEST PUSH2 0x39B6 SWAP1 PUSH1 0x20 RETURNDATASIZE DUP2 GT PUSH2 0x39BB JUMPI JUMPDEST PUSH2 0x39AE DUP2 DUP4 PUSH2 0x6B7 JUMP JUMPDEST DUP2 ADD SWAP1 PUSH2 0x1A73 JUMP JUMPDEST PUSH2 0x34F3 JUMP JUMPDEST POP RETURNDATASIZE PUSH2 0x39A4 JUMP JUMPDEST PUSH2 0x12E6 JUMP JUMPDEST PUSH2 0x39E6 SWAP1 DUP4 RETURNDATASIZE DUP2 GT PUSH2 0x39EB JUMPI JUMPDEST PUSH2 0x39DE DUP2 DUP4 PUSH2 0x6B7 JUMP JUMPDEST DUP2 ADD SWAP1 PUSH2 0x1A73 JUMP JUMPDEST PUSH2 0x3497 JUMP JUMPDEST POP RETURNDATASIZE PUSH2 0x39D4 JUMP JUMPDEST PUSH2 0x12E6 JUMP JUMPDEST PUSH2 0x3A18 SWAP2 POP PUSH1 0x20 RETURNDATASIZE DUP2 GT PUSH2 0x3A1E JUMPI JUMPDEST PUSH2 0x3A10 DUP2 DUP4 PUSH2 0x6B7 JUMP JUMPDEST DUP2 ADD SWAP1 PUSH2 0x1A32 JUMP JUMPDEST PUSH0 PUSH2 0x341B JUMP JUMPDEST POP RETURNDATASIZE PUSH2 0x3A06 JUMP JUMPDEST PUSH2 0x12E6 JUMP JUMPDEST PUSH2 0x3A4B SWAP2 POP PUSH1 0x20 RETURNDATASIZE DUP2 GT PUSH2 0x3A51 JUMPI JUMPDEST PUSH2 0x3A43 DUP2 DUP4 PUSH2 0x6B7 JUMP JUMPDEST DUP2 ADD SWAP1 PUSH2 0x1A32 JUMP JUMPDEST PUSH0 PUSH2 0x33CB JUMP JUMPDEST POP RETURNDATASIZE PUSH2 0x3A39 JUMP JUMPDEST PUSH2 0x12E6 JUMP JUMPDEST PUSH2 0x3A7D SWAP1 PUSH1 0x20 RETURNDATASIZE DUP2 GT PUSH2 0x3A82 JUMPI JUMPDEST PUSH2 0x3A75 DUP2 DUP4 PUSH2 0x6B7 JUMP JUMPDEST DUP2 ADD SWAP1 PUSH2 0x1A73 JUMP JUMPDEST PUSH2 0x337B JUMP JUMPDEST POP RETURNDATASIZE PUSH2 0x3A6B JUMP JUMPDEST PUSH2 0x12E6 JUMP JUMPDEST SWAP1 PUSH2 0x3A98 SWAP2 PUSH2 0x3206 JUMP JUMPDEST JUMP JUMPDEST PUSH2 0x3AA3 SWAP1 PUSH2 0x1263 JUMP JUMPDEST SWAP1 JUMP JUMPDEST SWAP1 PUSH2 0x3AB0 SWAP1 PUSH2 0x3A9A JUMP JUMPDEST PUSH0 MSTORE PUSH1 0x20 MSTORE PUSH1 0x40 PUSH0 KECCAK256 SWAP1 JUMP JUMPDEST PUSH2 0x3ADB PUSH2 0x3AE0 SWAP2 PUSH2 0x3ACB PUSH2 0x2967 JUMP JUMPDEST POP PUSH0 PUSH2 0x3AD5 PUSH2 0x4FA0 JUMP JUMPDEST ADD PUSH2 0x3AA6 JUMP JUMPDEST PUSH2 0x297F JUMP JUMPDEST SWAP1 JUMP JUMPDEST PUSH2 0x3AEB PUSH2 0x51C9 JUMP JUMPDEST PUSH2 0x3AF3 PUSH2 0x3B1D JUMP JUMPDEST JUMP JUMPDEST PUSH2 0x3B09 PUSH2 0x3B04 PUSH2 0x3B0E SWAP3 PUSH2 0x1013 JUMP JUMPDEST PUSH2 0x1016 JUMP JUMPDEST PUSH2 0x269 JUMP JUMPDEST SWAP1 JUMP JUMPDEST PUSH2 0x3B1A SWAP1 PUSH2 0x3AF5 JUMP JUMPDEST SWAP1 JUMP JUMPDEST PUSH2 0x3B2E PUSH2 0x3B29 PUSH0 PUSH2 0x3B11 JUMP JUMPDEST PUSH2 0x598C JUMP JUMPDEST JUMP JUMPDEST PUSH2 0x3B38 PUSH2 0x3AE3 JUMP JUMPDEST JUMP JUMPDEST PUSH0 SWAP1 JUMP JUMPDEST PUSH2 0x3B46 PUSH2 0x3B3A JUMP JUMPDEST POP PUSH2 0x3B59 PUSH2 0x3B54 PUSH1 0x3 PUSH2 0x1A0A JUMP JUMPDEST PUSH2 0x1A17 JUMP JUMPDEST SWAP1 JUMP JUMPDEST PUSH2 0x3B64 PUSH2 0x51C9 JUMP JUMPDEST PUSH2 0x3B6C PUSH2 0x3B6E JUMP JUMPDEST JUMP JUMPDEST PUSH2 0x3B76 PUSH2 0x5A62 JUMP JUMPDEST JUMP JUMPDEST PUSH2 0x3B80 PUSH2 0x3B5C JUMP JUMPDEST JUMP JUMPDEST PUSH1 0x40 SHR SWAP1 JUMP JUMPDEST PUSH2 0x3B94 PUSH2 0x3B99 SWAP2 PUSH2 0x3B82 JUMP JUMPDEST PUSH2 0x31C1 JUMP JUMPDEST SWAP1 JUMP JUMPDEST PUSH2 0x3BA6 SWAP1 SLOAD PUSH2 0x3B88 JUMP JUMPDEST SWAP1 JUMP JUMPDEST PUSH8 0xFFFFFFFFFFFFFFFF AND SWAP1 JUMP JUMPDEST PUSH2 0x3BC2 PUSH2 0x3BC7 SWAP2 PUSH2 0x1208 JUMP JUMPDEST PUSH2 0x3BA9 JUMP JUMPDEST SWAP1 JUMP JUMPDEST PUSH2 0x3BD4 SWAP1 SLOAD PUSH2 0x3BB6 JUMP JUMPDEST SWAP1 JUMP JUMPDEST SWAP1 PUSH2 0x3BEA PUSH8 0xFFFFFFFFFFFFFFFF SWAP2 PUSH2 0x1B50 JUMP JUMPDEST SWAP2 DUP2 NOT AND SWAP2 AND OR SWAP1 JUMP JUMPDEST PUSH2 0x3C08 PUSH2 0x3C03 PUSH2 0x3C0D SWAP3 PUSH2 0xA7E JUMP JUMPDEST PUSH2 0x1016 JUMP JUMPDEST PUSH2 0xA7E JUMP JUMPDEST SWAP1 JUMP JUMPDEST SWAP1 JUMP JUMPDEST SWAP1 PUSH2 0x3C28 PUSH2 0x3C23 PUSH2 0x3C2F SWAP3 PUSH2 0x3BF4 JUMP JUMPDEST PUSH2 0x3C10 JUMP JUMPDEST DUP3 SLOAD PUSH2 0x3BD7 JUMP JUMPDEST SWAP1 SSTORE JUMP JUMPDEST PUSH1 0x40 SHL SWAP1 JUMP JUMPDEST SWAP1 PUSH2 0x3C4D PUSH9 0xFF0000000000000000 SWAP2 PUSH2 0x3C33 JUMP JUMPDEST SWAP2 DUP2 NOT AND SWAP2 AND OR SWAP1 JUMP JUMPDEST PUSH2 0x3C60 SWAP1 PUSH2 0x3F3 JUMP JUMPDEST SWAP1 JUMP JUMPDEST SWAP1 JUMP JUMPDEST SWAP1 PUSH2 0x3C7B PUSH2 0x3C76 PUSH2 0x3C82 SWAP3 PUSH2 0x3C57 JUMP JUMPDEST PUSH2 0x3C63 JUMP JUMPDEST DUP3 SLOAD PUSH2 0x3C39 JUMP JUMPDEST SWAP1 SSTORE JUMP JUMPDEST PUSH2 0x3C8F SWAP1 PUSH2 0xA7E JUMP JUMPDEST SWAP1 MSTORE JUMP JUMPDEST SWAP2 SWAP1 PUSH2 0x3CA6 SWAP1 PUSH0 PUSH1 0x20 DUP6 ADD SWAP5 ADD SWAP1 PUSH2 0x3C86 JUMP JUMPDEST JUMP JUMPDEST SWAP3 SWAP6 SWAP2 SWAP4 SWAP5 SWAP1 SWAP5 DUP3 SWAP7 PUSH2 0x3CB9 PUSH2 0x5A6C JUMP JUMPDEST SWAP6 PUSH2 0x3CC5 PUSH0 DUP9 ADD PUSH2 0x3B9C JUMP JUMPDEST DUP1 ISZERO PUSH2 0x3D76 JUMPI JUMPDEST PUSH2 0x3D3A JUMPI PUSH2 0x3CFF SWAP8 PUSH2 0x3CF6 SWAP7 PUSH2 0x3CE4 DUP12 PUSH0 DUP12 ADD PUSH2 0x3C13 JUMP JUMPDEST PUSH2 0x3CF1 PUSH1 0x1 PUSH0 DUP12 ADD PUSH2 0x3C66 JUMP JUMPDEST PUSH2 0x4049 JUMP JUMPDEST PUSH0 DUP1 SWAP2 ADD PUSH2 0x3C66 JUMP JUMPDEST PUSH2 0x3D35 PUSH32 0xC7F505B2F371AE2175EE4913F4499E1F2633A7B5936321EED1CDAEB6115181D2 SWAP2 PUSH2 0x3D2C PUSH2 0x231 JUMP JUMPDEST SWAP2 DUP3 SWAP2 DUP3 PUSH2 0x3C93 JUMP JUMPDEST SUB SWAP1 LOG1 JUMP JUMPDEST PUSH2 0x3D42 PUSH2 0x231 JUMP JUMPDEST PUSH32 0xF92EE8A900000000000000000000000000000000000000000000000000000000 DUP2 MSTORE DUP1 PUSH2 0x3D72 PUSH1 0x4 DUP3 ADD PUSH2 0x2DE JUMP JUMPDEST SUB SWAP1 REVERT JUMPDEST POP PUSH2 0x3D82 PUSH0 DUP9 ADD PUSH2 0x3BCA JUMP JUMPDEST PUSH2 0x3D94 PUSH2 0x3D8E DUP12 PUSH2 0xA7E JUMP JUMPDEST SWAP2 PUSH2 0xA7E JUMP JUMPDEST LT ISZERO PUSH2 0x3CCC JUMP JUMPDEST SWAP1 PUSH2 0x3DBA PUSH20 0xFFFFFFFFFFFFFFFFFFFFFFFFFFFFFFFFFFFFFFFF SWAP2 PUSH2 0x1B50 JUMP JUMPDEST SWAP2 DUP2 NOT AND SWAP2 AND OR SWAP1 JUMP JUMPDEST SWAP1 JUMP JUMPDEST SWAP1 PUSH2 0x3DDC PUSH2 0x3DD7 PUSH2 0x3DE3 SWAP3 PUSH2 0x3A9A JUMP JUMPDEST PUSH2 0x3DC4 JUMP JUMPDEST DUP3 SLOAD PUSH2 0x3D9B JUMP JUMPDEST SWAP1 SSTORE JUMP JUMPDEST PUSH2 0x3DF0 SWAP1 PUSH2 0x1247 JUMP JUMPDEST SWAP1 JUMP JUMPDEST PUSH2 0x3DFC SWAP1 PUSH2 0x3DE7 JUMP JUMPDEST SWAP1 JUMP JUMPDEST PUSH2 0x3E08 SWAP1 PUSH2 0x3DE7 JUMP JUMPDEST SWAP1 JUMP JUMPDEST SWAP1 JUMP JUMPDEST SWAP1 PUSH2 0x3E23 PUSH2 0x3E1E PUSH2 0x3E2A SWAP3 PUSH2 0x3DFF JUMP JUMPDEST PUSH2 0x3E0B JUMP JUMPDEST DUP3 SLOAD PUSH2 0x3D9B JUMP JUMPDEST SWAP1 SSTORE JUMP JUMPDEST PUSH2 0x3E37 SWAP1 PUSH2 0x1247 JUMP JUMPDEST SWAP1 JUMP JUMPDEST PUSH2 0x3E43 SWAP1 PUSH2 0x3E2E JUMP JUMPDEST SWAP1 JUMP JUMPDEST PUSH2 0x3E4F SWAP1 PUSH2 0x3E2E JUMP JUMPDEST SWAP1 JUMP JUMPDEST SWAP1 JUMP JUMPDEST SWAP1 PUSH2 0x3E6A PUSH2 0x3E65 PUSH2 0x3E71 SWAP3 PUSH2 0x3E46 JUMP JUMPDEST PUSH2 0x3E52 JUMP JUMPDEST DUP3 SLOAD PUSH2 0x3D9B JUMP JUMPDEST SWAP1 SSTORE JUMP JUMPDEST PUSH0 PUSH32 0x496E76616C696420617373657441206164647265737300000000000000000000 SWAP2 ADD MSTORE JUMP JUMPDEST PUSH2 0x3EA9 PUSH1 0x16 PUSH1 0x20 SWAP3 PUSH2 0x32A JUMP JUMPDEST PUSH2 0x3EB2 DUP2 PUSH2 0x3E75 JUMP JUMPDEST ADD SWAP1 JUMP JUMPDEST PUSH2 0x3ECB SWAP1 PUSH1 0x20 DUP2 ADD SWAP1 PUSH0 DUP2 DUP4 SUB SWAP2 ADD MSTORE PUSH2 0x3E9C JUMP JUMPDEST SWAP1 JUMP JUMPDEST ISZERO PUSH2 0x3ED5 JUMPI JUMP JUMPDEST PUSH2 0x3EDD PUSH2 0x231 JUMP JUMPDEST PUSH32 0x8C379A000000000000000000000000000000000000000000000000000000000 DUP2 MSTORE DUP1 PUSH2 0x3F0D PUSH1 0x4 DUP3 ADD PUSH2 0x3EB6 JUMP JUMPDEST SUB SWAP1 REVERT JUMPDEST PUSH0 PUSH32 0x496E76616C696420596561726E205661756C7420616464726573730000000000 SWAP2 ADD MSTORE JUMP JUMPDEST PUSH2 0x3F45 PUSH1 0x1B PUSH1 0x20 SWAP3 PUSH2 0x32A JUMP JUMPDEST PUSH2 0x3F4E DUP2 PUSH2 0x3F11 JUMP JUMPDEST ADD SWAP1 JUMP JUMPDEST PUSH2 0x3F67 SWAP1 PUSH1 0x20 DUP2 ADD SWAP1 PUSH0 DUP2 DUP4 SUB SWAP2 ADD MSTORE PUSH2 0x3F38 JUMP JUMPDEST SWAP1 JUMP JUMPDEST ISZERO PUSH2 0x3F71 JUMPI JUMP JUMPDEST PUSH2 0x3F79 PUSH2 0x231 JUMP JUMPDEST PUSH32 0x8C379A000000000000000000000000000000000000000000000000000000000 DUP2 MSTORE DUP1 PUSH2 0x3FA9 PUSH1 0x4 DUP3 ADD PUSH2 0x3F52 JUMP JUMPDEST SUB SWAP1 REVERT JUMPDEST PUSH0 PUSH32 0x496E76616C696420617373657442206164647265737300000000000000000000 SWAP2 ADD MSTORE JUMP JUMPDEST PUSH2 0x3FE1 PUSH1 0x16 PUSH1 0x20 SWAP3 PUSH2 0x32A JUMP JUMPDEST PUSH2 0x3FEA DUP2 PUSH2 0x3FAD JUMP JUMPDEST ADD SWAP1 JUMP JUMPDEST PUSH2 0x4003 SWAP1 PUSH1 0x20 DUP2 ADD SWAP1 PUSH0 DUP2 DUP4 SUB SWAP2 ADD MSTORE PUSH2 0x3FD4 JUMP JUMPDEST SWAP1 JUMP JUMPDEST ISZERO PUSH2 0x400D JUMPI JUMP JUMPDEST PUSH2 0x4015 PUSH2 0x231 JUMP JUMPDEST PUSH32 0x8C379A000000000000000000000000000000000000000000000000000000000 DUP2 MSTORE DUP1 PUSH2 0x4045 PUSH1 0x4 DUP3 ADD PUSH2 0x3FEE JUMP JUMPDEST SUB SWAP1 REVERT JUMPDEST PUSH2 0x40B1 SWAP7 POP PUSH2 0x40A5 SWAP4 PUSH2 0x4092 PUSH2 0x40AA SWAP8 SWAP7 SWAP5 PUSH2 0x4074 PUSH2 0x409E SWAP6 PUSH2 0x4097 SWAP6 PUSH2 0x406F CALLER PUSH2 0x5AAE JUMP JUMPDEST PUSH2 0x5AD9 JUMP JUMPDEST PUSH2 0x407C PUSH2 0x5AEF JUMP JUMPDEST PUSH2 0x4084 PUSH2 0x5B15 JUMP JUMPDEST PUSH2 0x408C PUSH2 0x5B3B JUMP JUMPDEST PUSH0 PUSH2 0x3DC7 JUMP JUMPDEST PUSH2 0x3DF3 JUMP JUMPDEST PUSH1 0x1 PUSH2 0x3E0E JUMP JUMPDEST PUSH1 0x2 PUSH2 0x3DC7 JUMP JUMPDEST PUSH2 0x3E3A JUMP JUMPDEST PUSH1 0x3 PUSH2 0x3E55 JUMP JUMPDEST PUSH2 0x40DE PUSH2 0x40BD PUSH0 PUSH2 0x130A JUMP JUMPDEST PUSH2 0x40D7 PUSH2 0x40D1 PUSH2 0x40CC PUSH0 PUSH2 0x3B11 JUMP JUMPDEST PUSH2 0x282 JUMP JUMPDEST SWAP2 PUSH2 0x282 JUMP JUMPDEST EQ ISZERO PUSH2 0x3ECE JUMP JUMPDEST PUSH2 0x4114 PUSH2 0x40F3 PUSH2 0x40EE PUSH1 0x1 PUSH2 0x123A JUMP JUMPDEST PUSH2 0x126F JUMP JUMPDEST PUSH2 0x410D PUSH2 0x4107 PUSH2 0x4102 PUSH0 PUSH2 0x3B11 JUMP JUMPDEST PUSH2 0x282 JUMP JUMPDEST SWAP2 PUSH2 0x282 JUMP JUMPDEST EQ ISZERO PUSH2 0x3F6A JUMP JUMPDEST PUSH2 0x4142 PUSH2 0x4121 PUSH1 0x2 PUSH2 0x130A JUMP JUMPDEST PUSH2 0x413B PUSH2 0x4135 PUSH2 0x4130 PUSH0 PUSH2 0x3B11 JUMP JUMPDEST PUSH2 0x282 JUMP JUMPDEST SWAP2 PUSH2 0x282 JUMP JUMPDEST EQ ISZERO PUSH2 0x4006 JUMP JUMPDEST JUMP JUMPDEST SWAP1 PUSH2 0x4153 SWAP7 SWAP6 SWAP5 SWAP4 SWAP3 SWAP2 PUSH2 0x3CA8 JUMP JUMPDEST JUMP JUMPDEST PUSH2 0x415D PUSH2 0x3B3A JUMP JUMPDEST POP PUSH2 0x4170 PUSH0 PUSH2 0x416A PUSH2 0x5B45 JUMP JUMPDEST ADD PUSH2 0x130A JUMP JUMPDEST SWAP1 JUMP JUMPDEST PUSH2 0x417B PUSH2 0x27ED JUMP JUMPDEST POP PUSH2 0x418F PUSH1 0x4 PUSH2 0x4189 PUSH2 0x4FA0 JUMP JUMPDEST ADD PUSH2 0x2916 JUMP JUMPDEST SWAP1 JUMP JUMPDEST PUSH2 0x419A PUSH2 0x3B3A JUMP JUMPDEST POP PUSH2 0x41AD PUSH2 0x41A8 PUSH1 0x1 PUSH2 0x123A JUMP JUMPDEST PUSH2 0x126F JUMP JUMPDEST SWAP1 JUMP JUMPDEST PUSH2 0x41B8 PUSH2 0x47BC JUMP JUMPDEST PUSH2 0x41C0 PUSH2 0x41CA JUMP JUMPDEST PUSH2 0x41C8 PUSH2 0x4868 JUMP JUMPDEST JUMP JUMPDEST PUSH2 0x41D2 PUSH2 0x4885 JUMP JUMPDEST PUSH2 0x41DA PUSH2 0x41DC JUMP JUMPDEST JUMP JUMPDEST PUSH2 0x41E4 PUSH2 0x5D4C JUMP JUMPDEST JUMP JUMPDEST PUSH2 0x41EE PUSH2 0x41B0 JUMP JUMPDEST JUMP JUMPDEST PUSH2 0x420D SWAP2 PUSH2 0x41FC PUSH2 0x2941 JUMP JUMPDEST POP PUSH2 0x4205 PUSH2 0x4FC4 JUMP JUMPDEST SWAP2 SWAP1 SWAP2 PUSH2 0x50EC JUMP JUMPDEST PUSH1 0x1 SWAP1 JUMP JUMPDEST SWAP1 PUSH2 0x421C SWAP1 PUSH2 0x3A9A JUMP JUMPDEST PUSH0 MSTORE PUSH1 0x20 MSTORE PUSH1 0x40 PUSH0 KECCAK256 SWAP1 JUMP JUMPDEST PUSH2 0x4256 SWAP2 PUSH2 0x424C PUSH2 0x4251 SWAP3 PUSH2 0x423B PUSH2 0x2967 JUMP JUMPDEST POP PUSH1 0x1 PUSH2 0x4246 PUSH2 0x4FA0 JUMP JUMPDEST ADD PUSH2 0x4212 JUMP JUMPDEST PUSH2 0x3AA6 JUMP JUMPDEST PUSH2 0x297F JUMP JUMPDEST SWAP1 JUMP JUMPDEST PUSH2 0x426D PUSH2 0x4268 PUSH2 0x4272 SWAP3 PUSH2 0x1013 JUMP JUMPDEST PUSH2 0x1016 JUMP JUMPDEST PUSH2 0xA7E JUMP JUMPDEST SWAP1 JUMP JUMPDEST SWAP1 JUMP JUMPDEST PUSH2 0x428C PUSH2 0x4287 PUSH2 0x4291 SWAP3 PUSH2 0x4275 JUMP JUMPDEST PUSH2 0x1016 JUMP JUMPDEST PUSH2 0xA7E JUMP JUMPDEST SWAP1 JUMP JUMPDEST PUSH2 0x429D SWAP1 PUSH2 0x1263 JUMP JUMPDEST SWAP1 JUMP JUMPDEST PUSH2 0x42A9 SWAP1 PUSH2 0x4278 JUMP JUMPDEST SWAP1 MSTORE JUMP JUMPDEST SWAP2 SWAP1 PUSH2 0x42C0 SWAP1 PUSH0 PUSH1 0x20 DUP6 ADD SWAP5 ADD SWAP1 PUSH2 0x42A0 JUMP JUMPDEST JUMP JUMPDEST SWAP3 SWAP5 SWAP2 SWAP5 SWAP4 SWAP1 SWAP4 PUSH2 0x42D1 PUSH2 0x5A6C JUMP JUMPDEST SWAP6 PUSH2 0x42E6 PUSH2 0x42E0 PUSH0 DUP10 ADD PUSH2 0x3B9C JUMP JUMPDEST ISZERO PUSH2 0x3F3 JUMP JUMPDEST SWAP6 PUSH2 0x42F2 PUSH0 DUP10 ADD PUSH2 0x3BCA JUMP JUMPDEST DUP1 PUSH2 0x4305 PUSH2 0x42FF PUSH0 PUSH2 0x4259 JUMP JUMPDEST SWAP2 PUSH2 0xA7E JUMP JUMPDEST EQ DUP1 PUSH2 0x443F JUMPI JUMPDEST SWAP1 PUSH2 0x4320 PUSH2 0x431A PUSH1 0x1 PUSH2 0x4278 JUMP JUMPDEST SWAP2 PUSH2 0xA7E JUMP JUMPDEST EQ DUP1 PUSH2 0x4417 JUMPI JUMPDEST PUSH2 0x4332 SWAP1 SWAP2 ISZERO PUSH2 0x3F3 JUMP JUMPDEST SWAP1 DUP2 PUSH2 0x4406 JUMPI JUMPDEST POP PUSH2 0x43CA JUMPI PUSH2 0x4362 SWAP6 PUSH2 0x4357 PUSH2 0x434F PUSH1 0x1 PUSH2 0x4278 JUMP JUMPDEST PUSH0 DUP12 ADD PUSH2 0x3C13 JUMP JUMPDEST DUP8 PUSH2 0x43B8 JUMPI JUMPDEST PUSH2 0x4446 JUMP JUMPDEST PUSH2 0x436A JUMPI JUMPDEST POP JUMP JUMPDEST PUSH2 0x4377 SWAP1 PUSH0 DUP1 SWAP2 ADD PUSH2 0x3C66 JUMP JUMPDEST PUSH1 0x1 PUSH2 0x43AF PUSH32 0xC7F505B2F371AE2175EE4913F4499E1F2633A7B5936321EED1CDAEB6115181D2 SWAP2 PUSH2 0x43A6 PUSH2 0x231 JUMP JUMPDEST SWAP2 DUP3 SWAP2 DUP3 PUSH2 0x42AD JUMP JUMPDEST SUB SWAP1 LOG1 PUSH0 PUSH2 0x4367 JUMP JUMPDEST PUSH2 0x43C5 PUSH1 0x1 PUSH0 DUP12 ADD PUSH2 0x3C66 JUMP JUMPDEST PUSH2 0x435D JUMP JUMPDEST PUSH2 0x43D2 PUSH2 0x231 JUMP JUMPDEST PUSH32 0xF92EE8A900000000000000000000000000000000000000000000000000000000 DUP2 MSTORE DUP1 PUSH2 0x4402 PUSH1 0x4 DUP3 ADD PUSH2 0x2DE JUMP JUMPDEST SUB SWAP1 REVERT JUMPDEST PUSH2 0x4411 SWAP2 POP ISZERO PUSH2 0x3F3 JUMP JUMPDEST PUSH0 PUSH2 0x4339 JUMP JUMPDEST POP PUSH2 0x4332 PUSH2 0x4424 ADDRESS PUSH2 0x4294 JUMP JUMPDEST EXTCODESIZE PUSH2 0x4437 PUSH2 0x4431 PUSH0 PUSH2 0x1019 JUMP JUMPDEST SWAP2 PUSH2 0x243 JUMP JUMPDEST EQ SWAP1 POP PUSH2 0x4327 JUMP JUMPDEST POP DUP8 PUSH2 0x430C JUMP JUMPDEST PUSH2 0x4492 PUSH2 0x44AC SWAP7 SWAP5 PUSH2 0x448D PUSH2 0x44A0 SWAP6 PUSH2 0x446F PUSH2 0x44A5 SWAP10 SWAP7 PUSH2 0x4499 SWAP7 PUSH2 0x446A CALLER PUSH2 0x5AAE JUMP JUMPDEST PUSH2 0x5AD9 JUMP JUMPDEST PUSH2 0x4477 PUSH2 0x5AEF JUMP JUMPDEST PUSH2 0x447F PUSH2 0x5B15 JUMP JUMPDEST PUSH2 0x4487 PUSH2 0x5B3B JUMP JUMPDEST PUSH0 PUSH2 0x3DC7 JUMP JUMPDEST PUSH2 0x3DF3 JUMP JUMPDEST PUSH1 0x1 PUSH2 0x3E0E JUMP JUMPDEST PUSH1 0x2 PUSH2 0x3DC7 JUMP JUMPDEST PUSH2 0x3E3A JUMP JUMPDEST PUSH1 0x3 PUSH2 0x3E55 JUMP JUMPDEST PUSH2 0x44D9 PUSH2 0x44B8 PUSH0 PUSH2 0x130A JUMP JUMPDEST PUSH2 0x44D2 PUSH2 0x44CC PUSH2 0x44C7 PUSH0 PUSH2 0x3B11 JUMP JUMPDEST PUSH2 0x282 JUMP JUMPDEST SWAP2 PUSH2 0x282 JUMP JUMPDEST EQ ISZERO PUSH2 0x3ECE JUMP JUMPDEST PUSH2 0x450F PUSH2 0x44EE PUSH2 0x44E9 PUSH1 0x1 PUSH2 0x123A JUMP JUMPDEST PUSH2 0x126F JUMP JUMPDEST PUSH2 0x4508 PUSH2 0x4502 PUSH2 0x44FD PUSH0 PUSH2 0x3B11 JUMP JUMPDEST PUSH2 0x282 JUMP JUMPDEST SWAP2 PUSH2 0x282 JUMP JUMPDEST EQ ISZERO PUSH2 0x3F6A JUMP JUMPDEST PUSH2 0x453D PUSH2 0x451C PUSH1 0x2 PUSH2 0x130A JUMP JUMPDEST PUSH2 0x4536 PUSH2 0x4530 PUSH2 0x452B PUSH0 PUSH2 0x3B11 JUMP JUMPDEST PUSH2 0x282 JUMP JUMPDEST SWAP2 PUSH2 0x282 JUMP JUMPDEST EQ ISZERO PUSH2 0x4006 JUMP JUMPDEST JUMP JUMPDEST SWAP1 PUSH2 0x454D SWAP6 SWAP5 SWAP4 SWAP3 SWAP2 PUSH2 0x42C2 JUMP JUMPDEST JUMP JUMPDEST SWAP1 JUMP JUMPDEST PUSH2 0x4566 PUSH2 0x4561 PUSH2 0x456B SWAP3 PUSH2 0x454F JUMP JUMPDEST PUSH2 0x1016 JUMP JUMPDEST PUSH2 0x243 JUMP JUMPDEST SWAP1 JUMP JUMPDEST PUSH2 0x4576 PUSH2 0x2967 JUMP JUMPDEST POP PUSH2 0x457F PUSH2 0x298C JUMP JUMPDEST PUSH2 0x4591 PUSH2 0x458B PUSH0 PUSH2 0x1019 JUMP JUMPDEST SWAP2 PUSH2 0x243 JUMP JUMPDEST EQ PUSH2 0x46F4 JUMPI PUSH2 0x45C3 PUSH1 0x20 PUSH2 0x45AD PUSH2 0x45A8 PUSH1 0x3 PUSH2 0x1A0A JUMP JUMPDEST PUSH2 0x1A17 JUMP JUMPDEST PUSH4 0x1BF01E9B SWAP1 PUSH2 0x45BB PUSH2 0x231 JUMP JUMPDEST SWAP4 DUP5 SWAP3 PUSH2 0x129F JUMP JUMPDEST DUP3 MSTORE DUP2 DUP1 PUSH2 0x45D3 PUSH1 0x4 DUP3 ADD PUSH2 0x2DE JUMP JUMPDEST SUB SWAP2 GAS STATICCALL SWAP1 DUP2 ISZERO PUSH2 0x46EF JUMPI PUSH2 0x45FD PUSH2 0x45F8 PUSH2 0x4613 SWAP4 PUSH1 0x20 SWAP4 PUSH0 SWAP2 PUSH2 0x46C2 JUMPI JUMPDEST POP PUSH2 0x1287 JUMP JUMPDEST PUSH2 0x1293 JUMP JUMPDEST PUSH4 0x313CE567 SWAP1 PUSH2 0x460B PUSH2 0x231 JUMP JUMPDEST SWAP4 DUP5 SWAP3 PUSH2 0x129F JUMP JUMPDEST DUP3 MSTORE DUP2 DUP1 PUSH2 0x4623 PUSH1 0x4 DUP3 ADD PUSH2 0x2DE JUMP JUMPDEST SUB SWAP2 GAS STATICCALL DUP1 ISZERO PUSH2 0x46BD JUMPI PUSH2 0x4667 PUSH2 0x465A PUSH2 0x4655 PUSH2 0x467E SWAP4 PUSH2 0x468C SWAP6 PUSH0 SWAP2 PUSH2 0x468F JUMPI JUMPDEST POP PUSH2 0x4650 PUSH1 0x12 PUSH2 0x1377 JUMP JUMPDEST PUSH2 0x13C0 JUMP JUMPDEST PUSH2 0x13E4 JUMP JUMPDEST PUSH2 0x4662 PUSH2 0x2A55 JUMP JUMPDEST PUSH2 0x15D3 JUMP JUMPDEST PUSH2 0x4678 PUSH8 0xDE0B6B3A7640000 PUSH2 0x4552 JUMP JUMPDEST SWAP1 PUSH2 0x15D3 JUMP JUMPDEST PUSH2 0x4686 PUSH2 0x298C JUMP JUMPDEST SWAP1 PUSH2 0x142D JUMP JUMPDEST SWAP1 JUMP JUMPDEST PUSH2 0x46B0 SWAP2 POP PUSH1 0x20 RETURNDATASIZE DUP2 GT PUSH2 0x46B6 JUMPI JUMPDEST PUSH2 0x46A8 DUP2 DUP4 PUSH2 0x6B7 JUMP JUMPDEST DUP2 ADD SWAP1 PUSH2 0x12C8 JUMP JUMPDEST PUSH0 PUSH2 0x4645 JUMP JUMPDEST POP RETURNDATASIZE PUSH2 0x469E JUMP JUMPDEST PUSH2 0x12E6 JUMP JUMPDEST PUSH2 0x46E2 SWAP2 POP DUP5 RETURNDATASIZE DUP2 GT PUSH2 0x46E8 JUMPI JUMPDEST PUSH2 0x46DA DUP2 DUP4 PUSH2 0x6B7 JUMP JUMPDEST DUP2 ADD SWAP1 PUSH2 0x1A32 JUMP JUMPDEST PUSH0 PUSH2 0x45F2 JUMP JUMPDEST POP RETURNDATASIZE PUSH2 0x46D0 JUMP JUMPDEST PUSH2 0x12E6 JUMP JUMPDEST PUSH2 0x46FD PUSH0 PUSH2 0x1019 JUMP JUMPDEST SWAP1 JUMP JUMPDEST PUSH2 0x4711 SWAP1 PUSH2 0x470C PUSH2 0x51C9 JUMP JUMPDEST PUSH2 0x4713 JUMP JUMPDEST JUMP JUMPDEST DUP1 PUSH2 0x472E PUSH2 0x4728 PUSH2 0x4723 PUSH0 PUSH2 0x3B11 JUMP JUMPDEST PUSH2 0x282 JUMP JUMPDEST SWAP2 PUSH2 0x282 JUMP JUMPDEST EQ PUSH2 0x473E JUMPI PUSH2 0x473C SWAP1 PUSH2 0x598C JUMP JUMPDEST JUMP JUMPDEST PUSH2 0x4781 PUSH2 0x474A PUSH0 PUSH2 0x3B11 JUMP JUMPDEST PUSH2 0x4752 PUSH2 0x231 JUMP JUMPDEST SWAP2 DUP3 SWAP2 PUSH32 0x1E4FBDF700000000000000000000000000000000000000000000000000000000 DUP4 MSTORE PUSH1 0x4 DUP4 ADD PUSH2 0x985 JUMP JUMPDEST SUB SWAP1 REVERT JUMPDEST PUSH2 0x478E SWAP1 PUSH2 0x4700 JUMP JUMPDEST JUMP JUMPDEST SWAP1 JUMP JUMPDEST PUSH2 0x47A7 PUSH2 0x47A2 PUSH2 0x47AC SWAP3 PUSH2 0x4790 JUMP JUMPDEST PUSH2 0x1016 JUMP JUMPDEST PUSH2 0x243 JUMP JUMPDEST SWAP1 JUMP JUMPDEST PUSH2 0x47B9 PUSH1 0x2 PUSH2 0x4793 JUMP JUMPDEST SWAP1 JUMP JUMPDEST PUSH2 0x47C4 PUSH2 0x6208 JUMP JUMPDEST PUSH2 0x47CF PUSH0 DUP3 ADD PUSH2 0x297F JUMP JUMPDEST PUSH2 0x47E8 PUSH2 0x47E2 PUSH2 0x47DD PUSH2 0x47AF JUMP JUMPDEST PUSH2 0x243 JUMP JUMPDEST SWAP2 PUSH2 0x243 JUMP JUMPDEST EQ PUSH2 0x4803 JUMPI PUSH2 0x4801 SWAP1 PUSH0 PUSH2 0x47FA PUSH2 0x47AF JUMP JUMPDEST SWAP2 ADD PUSH2 0x1BA9 JUMP JUMPDEST JUMP JUMPDEST PUSH2 0x480B PUSH2 0x231 JUMP JUMPDEST PUSH32 0x3EE5AEB500000000000000000000000000000000000000000000000000000000 DUP2 MSTORE DUP1 PUSH2 0x483B PUSH1 0x4 DUP3 ADD PUSH2 0x2DE JUMP JUMPDEST SUB SWAP1 REVERT JUMPDEST PUSH2 0x4853 PUSH2 0x484E PUSH2 0x4858 SWAP3 PUSH2 0x4275 JUMP JUMPDEST PUSH2 0x1016 JUMP JUMPDEST PUSH2 0x243 JUMP JUMPDEST SWAP1 JUMP JUMPDEST PUSH2 0x4865 PUSH1 0x1 PUSH2 0x483F JUMP JUMPDEST SWAP1 JUMP JUMPDEST PUSH2 0x4883 PUSH2 0x4873 PUSH2 0x6208 JUMP JUMPDEST PUSH0 PUSH2 0x487C PUSH2 0x485B JUMP JUMPDEST SWAP2 ADD PUSH2 0x1BA9 JUMP JUMPDEST JUMP JUMPDEST PUSH2 0x488D PUSH2 0x31E8 JUMP JUMPDEST PUSH2 0x4893 JUMPI JUMP JUMPDEST PUSH2 0x489B PUSH2 0x231 JUMP JUMPDEST PUSH32 0xD93C066500000000000000000000000000000000000000000000000000000000 DUP2 MSTORE DUP1 PUSH2 0x48CB PUSH1 0x4 DUP3 ADD PUSH2 0x2DE JUMP JUMPDEST SUB SWAP1 REVERT JUMPDEST SWAP1 DUP2 PUSH2 0x48EB PUSH2 0x48E5 PUSH2 0x48E0 PUSH0 PUSH2 0x3B11 JUMP JUMPDEST PUSH2 0x282 JUMP JUMPDEST SWAP2 PUSH2 0x282 JUMP JUMPDEST EQ PUSH2 0x4907 JUMPI PUSH2 0x4905 SWAP2 SWAP1 PUSH2 0x48FE PUSH0 PUSH2 0x3B11 JUMP JUMPDEST SWAP1 SWAP2 PUSH2 0x623A JUMP JUMPDEST JUMP JUMPDEST PUSH2 0x494A PUSH2 0x4913 PUSH0 PUSH2 0x3B11 JUMP JUMPDEST PUSH2 0x491B PUSH2 0x231 JUMP JUMPDEST SWAP2 DUP3 SWAP2 PUSH32 0x96C6FD1E00000000000000000000000000000000000000000000000000000000 DUP4 MSTORE PUSH1 0x4 DUP4 ADD PUSH2 0x985 JUMP JUMPDEST SUB SWAP1 REVERT JUMPDEST PUSH2 0x4956 PUSH2 0x2967 JUMP JUMPDEST POP PUSH2 0x4984 PUSH1 0x20 PUSH2 0x496E PUSH2 0x4969 PUSH1 0x3 PUSH2 0x1A0A JUMP JUMPDEST PUSH2 0x1A17 JUMP JUMPDEST PUSH4 0x85462D6F SWAP1 PUSH2 0x497C PUSH2 0x231 JUMP JUMPDEST SWAP4 DUP5 SWAP3 PUSH2 0x129F JUMP JUMPDEST DUP3 MSTORE DUP2 DUP1 PUSH2 0x4994 PUSH1 0x4 DUP3 ADD PUSH2 0x2DE JUMP JUMPDEST SUB SWAP2 GAS STATICCALL SWAP1 DUP2 ISZERO PUSH2 0x4A6F JUMPI PUSH0 SWAP2 PUSH2 0x4A41 JUMPI JUMPDEST POP SWAP1 PUSH2 0x49D5 PUSH1 0x20 PUSH2 0x49BF PUSH2 0x49BA PUSH1 0x3 PUSH2 0x1A0A JUMP JUMPDEST PUSH2 0x1A17 JUMP JUMPDEST PUSH4 0x4F4608A2 SWAP1 PUSH2 0x49CD PUSH2 0x231 JUMP JUMPDEST SWAP4 DUP5 SWAP3 PUSH2 0x129F JUMP JUMPDEST DUP3 MSTORE DUP2 DUP1 PUSH2 0x49E5 PUSH1 0x4 DUP3 ADD PUSH2 0x2DE JUMP JUMPDEST SUB SWAP2 GAS STATICCALL SWAP3 DUP4 ISZERO PUSH2 0x4A3C JUMPI PUSH2 0x4A0B SWAP4 PUSH2 0x4A06 SWAP3 PUSH0 SWAP2 PUSH2 0x4A0E JUMPI JUMPDEST POP SWAP3 PUSH2 0x15D3 JUMP JUMPDEST PUSH2 0x142D JUMP JUMPDEST SWAP1 JUMP JUMPDEST PUSH2 0x4A2F SWAP2 POP PUSH1 0x20 RETURNDATASIZE DUP2 GT PUSH2 0x4A35 JUMPI JUMPDEST PUSH2 0x4A27 DUP2 DUP4 PUSH2 0x6B7 JUMP JUMPDEST DUP2 ADD SWAP1 PUSH2 0x1332 JUMP JUMPDEST PUSH0 PUSH2 0x49FF JUMP JUMPDEST POP RETURNDATASIZE PUSH2 0x4A1D JUMP JUMPDEST PUSH2 0x12E6 JUMP JUMPDEST PUSH2 0x4A62 SWAP2 POP PUSH1 0x20 RETURNDATASIZE DUP2 GT PUSH2 0x4A68 JUMPI JUMPDEST PUSH2 0x4A5A DUP2 DUP4 PUSH2 0x6B7 JUMP JUMPDEST DUP2 ADD SWAP1 PUSH2 0x1332 JUMP JUMPDEST PUSH0 PUSH2 0x49A6 JUMP JUMPDEST POP RETURNDATASIZE PUSH2 0x4A50 JUMP JUMPDEST PUSH2 0x12E6 JUMP JUMPDEST PUSH0 PUSH32 0x496E73756666696369656E742071756F74652061737365742062616C616E6365 SWAP2 ADD MSTORE JUMP JUMPDEST PUSH2 0x4AA7 PUSH1 0x20 DUP1 SWAP3 PUSH2 0x32A JUMP JUMPDEST PUSH2 0x4AB0 DUP2 PUSH2 0x4A74 JUMP JUMPDEST ADD SWAP1 JUMP JUMPDEST PUSH2 0x4AC9 SWAP1 PUSH1 0x20 DUP2 ADD SWAP1 PUSH0 DUP2 DUP4 SUB SWAP2 ADD MSTORE PUSH2 0x4A9B JUMP JUMPDEST SWAP1 JUMP JUMPDEST ISZERO PUSH2 0x4AD3 JUMPI JUMP JUMPDEST PUSH2 0x4ADB PUSH2 0x231 JUMP JUMPDEST PUSH32 0x8C379A000000000000000000000000000000000000000000000000000000000 DUP2 MSTORE DUP1 PUSH2 0x4B0B PUSH1 0x4 DUP3 ADD PUSH2 0x4AB4 JUMP JUMPDEST SUB SWAP1 REVERT JUMPDEST PUSH1 0x20 PUSH32 0x7400000000000000000000000000000000000000000000000000000000000000 SWAP2 PUSH32 0x486169726375742065786365656473207769746864726177616C20616D6F756E PUSH0 DUP3 ADD MSTORE ADD MSTORE JUMP JUMPDEST PUSH2 0x4B69 PUSH1 0x21 PUSH1 0x40 SWAP3 PUSH2 0x32A JUMP JUMPDEST PUSH2 0x4B72 DUP2 PUSH2 0x4B0F JUMP JUMPDEST ADD SWAP1 JUMP JUMPDEST PUSH2 0x4B8B SWAP1 PUSH1 0x20 DUP2 ADD SWAP1 PUSH0 DUP2 DUP4 SUB SWAP2 ADD MSTORE PUSH2 0x4B5C JUMP JUMPDEST SWAP1 JUMP JUMPDEST ISZERO PUSH2 0x4B95 JUMPI JUMP JUMPDEST PUSH2 0x4B9D PUSH2 0x231 JUMP JUMPDEST PUSH32 0x8C379A000000000000000000000000000000000000000000000000000000000 DUP2 MSTORE DUP1 PUSH2 0x4BCD PUSH1 0x4 DUP3 ADD PUSH2 0x4B76 JUMP JUMPDEST SUB SWAP1 REVERT JUMPDEST PUSH2 0x4BD9 PUSH2 0x2941 JUMP JUMPDEST POP PUSH2 0x4C2C DUP2 PUSH1 0x20 PUSH2 0x4BFA PUSH2 0x4BF5 PUSH2 0x4BF0 PUSH1 0x2 PUSH2 0x130A JUMP JUMPDEST PUSH2 0x135C JUMP JUMPDEST PUSH2 0x1368 JUMP JUMPDEST PUSH4 0x70A08231 SWAP1 PUSH2 0x4C21 PUSH2 0x4C0C ADDRESS PUSH2 0x1317 JUMP JUMPDEST SWAP3 PUSH2 0x4C15 PUSH2 0x231 JUMP JUMPDEST SWAP7 DUP8 SWAP5 DUP6 SWAP4 DUP5 SWAP4 PUSH2 0x129F JUMP JUMPDEST DUP4 MSTORE PUSH1 0x4 DUP4 ADD PUSH2 0x985 JUMP JUMPDEST SUB SWAP2 GAS STATICCALL DUP1 ISZERO PUSH2 0x4F9B JUMPI PUSH2 0x4C4E PUSH2 0x4C54 SWAP2 PUSH2 0x4C5B SWAP5 PUSH0 SWAP2 PUSH2 0x4F6D JUMPI JUMPDEST POP PUSH2 0x243 JUMP JUMPDEST SWAP2 PUSH2 0x243 JUMP JUMPDEST GT ISZERO PUSH2 0x4ACC JUMP JUMPDEST PUSH2 0x4C8C PUSH2 0x4C67 DUP3 PUSH2 0x494E JUMP JUMPDEST SWAP2 PUSH2 0x4C85 DUP4 PUSH2 0x4C7E PUSH2 0x4C78 DUP5 PUSH2 0x243 JUMP JUMPDEST SWAP2 PUSH2 0x243 JUMP JUMPDEST GT ISZERO PUSH2 0x4B8E JUMP JUMPDEST DUP3 SWAP1 PUSH2 0x185A JUMP JUMPDEST SWAP2 PUSH2 0x4C96 DUP3 PUSH2 0x494E JUMP JUMPDEST SWAP1 PUSH2 0x4CB4 DUP3 PUSH2 0x4CAD PUSH2 0x4CA7 DUP7 PUSH2 0x243 JUMP JUMPDEST SWAP2 PUSH2 0x243 JUMP JUMPDEST GT ISZERO PUSH2 0x199A JUMP JUMPDEST PUSH2 0x4CE1 PUSH1 0x20 PUSH2 0x4CCB PUSH2 0x4CC6 PUSH1 0x3 PUSH2 0x1A0A JUMP JUMPDEST PUSH2 0x1A17 JUMP JUMPDEST PUSH4 0x4CC7325 SWAP1 PUSH2 0x4CD9 PUSH2 0x231 JUMP JUMPDEST SWAP4 DUP5 SWAP3 PUSH2 0x129F JUMP JUMPDEST DUP3 MSTORE DUP2 DUP1 PUSH2 0x4CF1 PUSH1 0x4 DUP3 ADD PUSH2 0x2DE JUMP JUMPDEST SUB SWAP2 GAS STATICCALL SWAP1 DUP2 ISZERO PUSH2 0x4F68 JUMPI PUSH0 SWAP2 PUSH2 0x4F3A JUMPI JUMPDEST POP SWAP3 PUSH2 0x4D32 PUSH1 0x20 PUSH2 0x4D1C PUSH2 0x4D17 PUSH1 0x3 PUSH2 0x1A0A JUMP JUMPDEST PUSH2 0x1A17 JUMP JUMPDEST PUSH4 0x3B19E84A SWAP1 PUSH2 0x4D2A PUSH2 0x231 JUMP JUMPDEST SWAP4 DUP5 SWAP3 PUSH2 0x129F JUMP JUMPDEST DUP3 MSTORE DUP2 DUP1 PUSH2 0x4D42 PUSH1 0x4 DUP3 ADD PUSH2 0x2DE JUMP JUMPDEST SUB SWAP2 GAS STATICCALL DUP1 ISZERO PUSH2 0x4F35 JUMPI PUSH1 0x20 SWAP2 PUSH0 SWAP2 PUSH2 0x4F08 JUMPI JUMPDEST POP SWAP6 PUSH2 0x4D72 PUSH2 0x4D6D PUSH2 0x4D68 PUSH1 0x2 PUSH2 0x130A JUMP JUMPDEST PUSH2 0x135C JUMP JUMPDEST PUSH2 0x1368 JUMP JUMPDEST PUSH2 0x4D95 PUSH0 PUSH4 0xA9059CBB SWAP7 SWAP4 SWAP7 PUSH2 0x4DA0 PUSH2 0x4D89 PUSH2 0x231 JUMP JUMPDEST SWAP9 DUP10 SWAP7 DUP8 SWAP6 DUP7 SWAP5 PUSH2 0x129F JUMP JUMPDEST DUP5 MSTORE PUSH1 0x4 DUP5 ADD PUSH2 0x1A91 JUMP JUMPDEST SUB SWAP3 GAS CALL SWAP2 DUP3 ISZERO PUSH2 0x4F03 JUMPI PUSH1 0x20 SWAP3 PUSH2 0x4ED8 JUMPI JUMPDEST POP PUSH2 0x4DCE PUSH2 0x4DC9 PUSH2 0x4DC4 PUSH1 0x2 PUSH2 0x130A JUMP JUMPDEST PUSH2 0x135C JUMP JUMPDEST PUSH2 0x1368 JUMP JUMPDEST PUSH2 0x4DFB PUSH0 PUSH2 0x4DE3 PUSH4 0xA9059CBB SWAP8 SWAP5 DUP8 SWAP1 PUSH2 0x185A JUMP JUMPDEST SWAP7 PUSH2 0x4E06 PUSH2 0x4DEF PUSH2 0x231 JUMP JUMPDEST SWAP9 DUP10 SWAP7 DUP8 SWAP6 DUP7 SWAP5 PUSH2 0x129F JUMP JUMPDEST DUP5 MSTORE PUSH1 0x4 DUP5 ADD PUSH2 0x1A91 JUMP JUMPDEST SUB SWAP3 GAS CALL SWAP2 DUP3 ISZERO PUSH2 0x4ED3 JUMPI PUSH1 0x20 SWAP3 PUSH2 0x4EA8 JUMPI JUMPDEST POP PUSH2 0x4E34 PUSH2 0x4E2F PUSH2 0x4E2A PUSH1 0x2 PUSH2 0x130A JUMP JUMPDEST PUSH2 0x135C JUMP JUMPDEST PUSH2 0x1368 JUMP JUMPDEST PUSH2 0x4E57 PUSH0 PUSH4 0xA9059CBB SWAP6 SWAP4 SWAP6 PUSH2 0x4E62 PUSH2 0x4E4B PUSH2 0x231 JUMP JUMPDEST SWAP8 DUP9 SWAP7 DUP8 SWAP6 DUP7 SWAP5 PUSH2 0x129F JUMP JUMPDEST DUP5 MSTORE PUSH1 0x4 DUP5 ADD PUSH2 0x1A91 JUMP JUMPDEST SUB SWAP3 GAS CALL DUP1 ISZERO PUSH2 0x4EA3 JUMPI PUSH2 0x4E77 JUMPI JUMPDEST POP PUSH1 0x1 SWAP1 JUMP JUMPDEST PUSH2 0x4E97 SWAP1 PUSH1 0x20 RETURNDATASIZE DUP2 GT PUSH2 0x4E9C JUMPI JUMPDEST PUSH2 0x4E8F DUP2 DUP4 PUSH2 0x6B7 JUMP JUMPDEST DUP2 ADD SWAP1 PUSH2 0x1A73 JUMP JUMPDEST PUSH2 0x4E71 JUMP JUMPDEST POP RETURNDATASIZE PUSH2 0x4E85 JUMP JUMPDEST PUSH2 0x12E6 JUMP JUMPDEST PUSH2 0x4EC7 SWAP1 DUP4 RETURNDATASIZE DUP2 GT PUSH2 0x4ECC JUMPI JUMPDEST PUSH2 0x4EBF DUP2 DUP4 PUSH2 0x6B7 JUMP JUMPDEST DUP2 ADD SWAP1 PUSH2 0x1A73 JUMP JUMPDEST PUSH2 0x4E19 JUMP JUMPDEST POP RETURNDATASIZE PUSH2 0x4EB5 JUMP JUMPDEST PUSH2 0x12E6 JUMP JUMPDEST PUSH2 0x4EF7 SWAP1 DUP4 RETURNDATASIZE DUP2 GT PUSH2 0x4EFC JUMPI JUMPDEST PUSH2 0x4EEF DUP2 DUP4 PUSH2 0x6B7 JUMP JUMPDEST DUP2 ADD SWAP1 PUSH2 0x1A73 JUMP JUMPDEST PUSH2 0x4DB3 JUMP JUMPDEST POP RETURNDATASIZE PUSH2 0x4EE5 JUMP JUMPDEST PUSH2 0x12E6 JUMP JUMPDEST PUSH2 0x4F28 SWAP2 POP DUP3 RETURNDATASIZE DUP2 GT PUSH2 0x4F2E JUMPI JUMPDEST PUSH2 0x4F20 DUP2 DUP4 PUSH2 0x6B7 JUMP JUMPDEST DUP2 ADD SWAP1 PUSH2 0x1A32 JUMP JUMPDEST PUSH0 PUSH2 0x4D56 JUMP JUMPDEST POP RETURNDATASIZE PUSH2 0x4F16 JUMP JUMPDEST PUSH2 0x12E6 JUMP JUMPDEST PUSH2 0x4F5B SWAP2 POP PUSH1 0x20 RETURNDATASIZE DUP2 GT PUSH2 0x4F61 JUMPI JUMPDEST PUSH2 0x4F53 DUP2 DUP4 PUSH2 0x6B7 JUMP JUMPDEST DUP2 ADD SWAP1 PUSH2 0x1A32 JUMP JUMPDEST PUSH0 PUSH2 0x4D03 JUMP JUMPDEST POP RETURNDATASIZE PUSH2 0x4F49 JUMP JUMPDEST PUSH2 0x12E6 JUMP JUMPDEST PUSH2 0x4F8E SWAP2 POP PUSH1 0x20 RETURNDATASIZE DUP2 GT PUSH2 0x4F94 JUMPI JUMPDEST PUSH2 0x4F86 DUP2 DUP4 PUSH2 0x6B7 JUMP JUMPDEST DUP2 ADD SWAP1 PUSH2 0x1332 JUMP JUMPDEST PUSH0 PUSH2 0x4C48 JUMP JUMPDEST POP RETURNDATASIZE PUSH2 0x4F7C JUMP JUMPDEST PUSH2 0x12E6 JUMP JUMPDEST PUSH32 0x52C63247E1F47DB19D5CE0460030C497F067CA4CEBF71BA98EEADABE20BACE00 SWAP1 JUMP JUMPDEST PUSH2 0x4FCC PUSH2 0x3B3A JUMP JUMPDEST POP CALLER SWAP1 JUMP JUMPDEST SWAP2 PUSH2 0x4FDF SWAP3 SWAP2 PUSH1 0x1 SWAP3 PUSH2 0x63E0 JUMP JUMPDEST JUMP JUMPDEST PUSH1 0x40 SWAP1 PUSH2 0x500A PUSH2 0x5011 SWAP5 SWAP7 SWAP6 SWAP4 SWAP7 PUSH2 0x5000 PUSH1 0x60 DUP5 ADD SWAP9 PUSH0 DUP6 ADD SWAP1 PUSH2 0x978 JUMP JUMPDEST PUSH1 0x20 DUP4 ADD SWAP1 PUSH2 0x450 JUMP JUMPDEST ADD SWAP1 PUSH2 0x450 JUMP JUMPDEST JUMP JUMPDEST SWAP1 PUSH2 0x501E SWAP2 SUB PUSH2 0x243 JUMP JUMPDEST SWAP1 JUMP JUMPDEST SWAP3 SWAP2 SWAP3 PUSH2 0x502F DUP2 DUP4 SWAP1 PUSH2 0x4228 JUMP JUMPDEST SWAP1 DUP2 PUSH2 0x5063 PUSH2 0x505D PUSH32 0xFFFFFFFFFFFFFFFFFFFFFFFFFFFFFFFFFFFFFFFFFFFFFFFFFFFFFFFFFFFFFFFF PUSH2 0x243 JUMP JUMPDEST SWAP2 PUSH2 0x243 JUMP JUMPDEST SUB PUSH2 0x5070 JUMPI JUMPDEST POP POP POP SWAP1 POP JUMP JUMPDEST DUP2 PUSH2 0x5083 PUSH2 0x507D DUP8 PUSH2 0x243 JUMP JUMPDEST SWAP2 PUSH2 0x243 JUMP JUMPDEST LT PUSH2 0x50A9 JUMPI PUSH2 0x50A0 SWAP4 SWAP5 PUSH2 0x5098 SWAP2 SWAP4 SWAP3 PUSH2 0x5013 JUMP JUMPDEST SWAP1 PUSH0 SWAP3 PUSH2 0x63E0 JUMP JUMPDEST DUP1 PUSH0 DUP1 DUP1 PUSH2 0x5069 JUMP JUMPDEST POP PUSH2 0x50E8 DUP5 SWAP3 SWAP2 SWAP3 PUSH2 0x50B9 PUSH2 0x231 JUMP JUMPDEST SWAP4 DUP5 SWAP4 PUSH32 0xFB8F41B200000000000000000000000000000000000000000000000000000000 DUP6 MSTORE PUSH1 0x4 DUP6 ADD PUSH2 0x4FE1 JUMP JUMPDEST SUB SWAP1 REVERT JUMPDEST SWAP2 DUP3 PUSH2 0x5108 PUSH2 0x5102 PUSH2 0x50FD PUSH0 PUSH2 0x3B11 JUMP JUMPDEST PUSH2 0x282 JUMP JUMPDEST SWAP2 PUSH2 0x282 JUMP JUMPDEST EQ PUSH2 0x5182 JUMPI DUP2 PUSH2 0x5128 PUSH2 0x5122 PUSH2 0x511D PUSH0 PUSH2 0x3B11 JUMP JUMPDEST PUSH2 0x282 JUMP JUMPDEST SWAP2 PUSH2 0x282 JUMP JUMPDEST EQ PUSH2 0x513B JUMPI PUSH2 0x5139 SWAP3 SWAP2 SWAP1 SWAP2 PUSH2 0x623A JUMP JUMPDEST JUMP JUMPDEST PUSH2 0x517E PUSH2 0x5147 PUSH0 PUSH2 0x3B11 JUMP JUMPDEST PUSH2 0x514F PUSH2 0x231 JUMP JUMPDEST SWAP2 DUP3 SWAP2 PUSH32 0xEC442F0500000000000000000000000000000000000000000000000000000000 DUP4 MSTORE PUSH1 0x4 DUP4 ADD PUSH2 0x985 JUMP JUMPDEST SUB SWAP1 REVERT JUMPDEST PUSH2 0x51C5 PUSH2 0x518E PUSH0 PUSH2 0x3B11 JUMP JUMPDEST PUSH2 0x5196 PUSH2 0x231 JUMP JUMPDEST SWAP2 DUP3 SWAP2 PUSH32 0x96C6FD1E00000000000000000000000000000000000000000000000000000000 DUP4 MSTORE PUSH1 0x4 DUP4 ADD PUSH2 0x985 JUMP JUMPDEST SUB SWAP1 REVERT JUMPDEST PUSH2 0x51D1 PUSH2 0x4155 JUMP JUMPDEST PUSH2 0x51EA PUSH2 0x51E4 PUSH2 0x51DF PUSH2 0x4FC4 JUMP JUMPDEST PUSH2 0x282 JUMP JUMPDEST SWAP2 PUSH2 0x282 JUMP JUMPDEST SUB PUSH2 0x51F1 JUMPI JUMP JUMPDEST PUSH2 0x5233 PUSH2 0x51FC PUSH2 0x4FC4 JUMP JUMPDEST PUSH2 0x5204 PUSH2 0x231 JUMP JUMPDEST SWAP2 DUP3 SWAP2 PUSH32 0x118CDAA700000000000000000000000000000000000000000000000000000000 DUP4 MSTORE PUSH1 0x4 DUP4 ADD PUSH2 0x985 JUMP JUMPDEST SUB SWAP1 REVERT JUMPDEST PUSH2 0x523F PUSH2 0x653A JUMP JUMPDEST PUSH2 0x5247 PUSH2 0x527F JUMP JUMPDEST JUMP JUMPDEST SWAP1 PUSH2 0x5255 PUSH1 0xFF SWAP2 PUSH2 0x1B50 JUMP JUMPDEST SWAP2 DUP2 NOT AND SWAP2 AND OR SWAP1 JUMP JUMPDEST SWAP1 PUSH2 0x5274 PUSH2 0x526F PUSH2 0x527B SWAP3 PUSH2 0x3C57 JUMP JUMPDEST PUSH2 0x3C63 JUMP JUMPDEST DUP3 SLOAD PUSH2 0x5249 JUMP JUMPDEST SWAP1 SSTORE JUMP JUMPDEST PUSH2 0x5293 PUSH2 0x528A PUSH2 0x55EA JUMP JUMPDEST PUSH0 DUP1 SWAP2 ADD PUSH2 0x525F JUMP JUMPDEST PUSH2 0x529B PUSH2 0x4FC4 JUMP JUMPDEST PUSH2 0x52D1 PUSH32 0x5DB9EE0A495BF2E6FF9C91A7834C1BA4FDD244A5E8AA4E537BD38AEAE4B073AA SWAP2 PUSH2 0x52C8 PUSH2 0x231 JUMP JUMPDEST SWAP2 DUP3 SWAP2 DUP3 PUSH2 0x985 JUMP JUMPDEST SUB SWAP1 LOG1 JUMP JUMPDEST PUSH2 0x52DE PUSH2 0x5237 JUMP JUMPDEST JUMP JUMPDEST PUSH2 0x52E9 SWAP1 PUSH2 0x1263 JUMP JUMPDEST SWAP1 JUMP JUMPDEST PUSH2 0x52F5 ADDRESS PUSH2 0x52E0 JUMP JUMPDEST PUSH2 0x5327 PUSH2 0x5321 PUSH32 0x0 PUSH2 0x282 JUMP JUMPDEST SWAP2 PUSH2 0x282 JUMP JUMPDEST EQ DUP1 ISZERO PUSH2 0x5371 JUMPI JUMPDEST PUSH2 0x5335 JUMPI JUMP JUMPDEST PUSH2 0x533D PUSH2 0x231 JUMP JUMPDEST PUSH32 0xE07C8DBA00000000000000000000000000000000000000000000000000000000 DUP2 MSTORE DUP1 PUSH2 0x536D PUSH1 0x4 DUP3 ADD PUSH2 0x2DE JUMP JUMPDEST SUB SWAP1 REVERT JUMPDEST POP PUSH2 0x537A PUSH2 0x658D JUMP JUMPDEST PUSH2 0x53AC PUSH2 0x53A6 PUSH32 0x0 PUSH2 0x282 JUMP JUMPDEST SWAP2 PUSH2 0x282 JUMP JUMPDEST EQ ISZERO PUSH2 0x532F JUMP JUMPDEST POP PUSH2 0x53BC PUSH2 0x51C9 JUMP JUMPDEST JUMP JUMPDEST PUSH2 0x53C7 SWAP1 PUSH2 0x53B3 JUMP JUMPDEST JUMP JUMPDEST PUSH2 0x53D2 SWAP1 PUSH2 0x1247 JUMP JUMPDEST SWAP1 JUMP JUMPDEST PUSH2 0x53DE SWAP1 PUSH2 0x53C9 JUMP JUMPDEST SWAP1 JUMP JUMPDEST PUSH2 0x53EA SWAP1 PUSH2 0x1263 JUMP JUMPDEST SWAP1 JUMP JUMPDEST PUSH2 0x53F6 DUP2 PUSH2 0x7EB JUMP JUMPDEST SUB PUSH2 0x53FD JUMPI JUMP JUMPDEST PUSH0 DUP1 REVERT JUMPDEST SWAP1 POP MLOAD SWAP1 PUSH2 0x540E DUP3 PUSH2 0x53ED JUMP JUMPDEST JUMP JUMPDEST SWAP1 PUSH1 0x20 DUP3 DUP3 SUB SLT PUSH2 0x5429 JUMPI PUSH2 0x5426 SWAP2 PUSH0 ADD PUSH2 0x5401 JUMP JUMPDEST SWAP1 JUMP JUMPDEST PUSH2 0x23B JUMP JUMPDEST SWAP2 SWAP1 PUSH2 0x545C PUSH1 0x20 PUSH2 0x5446 PUSH2 0x5441 DUP7 PUSH2 0x53D5 JUMP JUMPDEST PUSH2 0x53E1 JUMP JUMPDEST PUSH4 0x52D1902D SWAP1 PUSH2 0x5454 PUSH2 0x231 JUMP JUMPDEST SWAP4 DUP5 SWAP3 PUSH2 0x129F JUMP JUMPDEST DUP3 MSTORE DUP2 DUP1 PUSH2 0x546C PUSH1 0x4 DUP3 ADD PUSH2 0x2DE JUMP JUMPDEST SUB SWAP2 GAS STATICCALL DUP1 SWAP2 PUSH0 SWAP3 PUSH2 0x553C JUMPI JUMPDEST POP ISZERO PUSH0 EQ PUSH2 0x54CD JUMPI POP POP SWAP1 PUSH1 0x1 PUSH2 0x548E JUMPI POP JUMPDEST JUMP JUMPDEST PUSH2 0x54C9 SWAP1 PUSH2 0x549A PUSH2 0x231 JUMP JUMPDEST SWAP2 DUP3 SWAP2 PUSH32 0x4C9C8CE300000000000000000000000000000000000000000000000000000000 DUP4 MSTORE PUSH1 0x4 DUP4 ADD PUSH2 0x985 JUMP JUMPDEST SUB SWAP1 REVERT JUMPDEST SWAP3 DUP4 PUSH2 0x54E8 PUSH2 0x54E2 PUSH2 0x54DD PUSH2 0x3176 JUMP JUMPDEST PUSH2 0x7EB JUMP JUMPDEST SWAP2 PUSH2 0x7EB JUMP JUMPDEST SUB PUSH2 0x54FD JUMPI PUSH2 0x54F8 SWAP3 SWAP4 POP PUSH2 0x65B7 JUMP JUMPDEST PUSH2 0x548C JUMP JUMPDEST PUSH2 0x5538 DUP5 PUSH2 0x5509 PUSH2 0x231 JUMP JUMPDEST SWAP2 DUP3 SWAP2 PUSH32 0xAA1D49A400000000000000000000000000000000000000000000000000000000 DUP4 MSTORE PUSH1 0x4 DUP4 ADD PUSH2 0x7FB JUMP JUMPDEST SUB SWAP1 REVERT JUMPDEST PUSH2 0x555E SWAP2 SWAP3 POP PUSH1 0x20 RETURNDATASIZE DUP2 GT PUSH2 0x5565 JUMPI JUMPDEST PUSH2 0x5556 DUP2 DUP4 PUSH2 0x6B7 JUMP JUMPDEST DUP2 ADD SWAP1 PUSH2 0x5410 JUMP JUMPDEST SWAP1 PUSH0 PUSH2 0x5479 JUMP JUMPDEST POP RETURNDATASIZE PUSH2 0x554C JUMP JUMPDEST PUSH2 0x5575 ADDRESS PUSH2 0x52E0 JUMP JUMPDEST PUSH2 0x55A7 PUSH2 0x55A1 PUSH32 0x0 PUSH2 0x282 JUMP JUMPDEST SWAP2 PUSH2 0x282 JUMP JUMPDEST SUB PUSH2 0x55AE JUMPI JUMP JUMPDEST PUSH2 0x55B6 PUSH2 0x231 JUMP JUMPDEST PUSH32 0xE07C8DBA00000000000000000000000000000000000000000000000000000000 DUP2 MSTORE DUP1 PUSH2 0x55E6 PUSH1 0x4 DUP3 ADD PUSH2 0x2DE JUMP JUMPDEST SUB SWAP1 REVERT JUMPDEST PUSH32 0xCD5ED15C6E187E77E9AEE88184C21F4F2182AB5827CB3B7E07FBEDCD63F03300 SWAP1 JUMP JUMPDEST PUSH2 0x5622 PUSH2 0x561D PUSH2 0x5627 SWAP3 PUSH2 0x4790 JUMP JUMPDEST PUSH2 0x1016 JUMP JUMPDEST PUSH2 0x54C JUMP JUMPDEST SWAP1 JUMP JUMPDEST PUSH2 0x563C PUSH2 0x5637 PUSH1 0x1 PUSH2 0x123A JUMP JUMPDEST PUSH2 0x126F JUMP JUMPDEST PUSH2 0x568B PUSH4 0x7A2D13A SWAP2 PUSH1 0x20 PUSH2 0x5659 PUSH2 0x5654 PUSH1 0x1 PUSH2 0x123A JUMP JUMPDEST PUSH2 0x126F JUMP JUMPDEST PUSH4 0x70A08231 SWAP1 PUSH2 0x5680 PUSH2 0x566B ADDRESS PUSH2 0x1317 JUMP JUMPDEST SWAP3 PUSH2 0x5674 PUSH2 0x231 JUMP JUMPDEST SWAP7 DUP8 SWAP5 DUP6 SWAP4 DUP5 SWAP4 PUSH2 0x129F JUMP JUMPDEST DUP4 MSTORE PUSH1 0x4 DUP4 ADD PUSH2 0x985 JUMP JUMPDEST SUB SWAP2 GAS STATICCALL SWAP1 DUP2 ISZERO PUSH2 0x5909 JUMPI PUSH2 0x56C8 SWAP4 PUSH1 0x20 SWAP4 PUSH0 SWAP4 PUSH2 0x58D6 JUMPI JUMPDEST POP PUSH2 0x56BD SWAP1 PUSH2 0x56B1 PUSH2 0x231 JUMP JUMPDEST SWAP6 DUP7 SWAP5 DUP6 SWAP4 DUP5 SWAP4 PUSH2 0x129F JUMP JUMPDEST DUP4 MSTORE PUSH1 0x4 DUP4 ADD PUSH2 0x45D JUMP JUMPDEST SUB SWAP2 GAS STATICCALL SWAP1 DUP2 ISZERO PUSH2 0x58D1 JUMPI PUSH0 SWAP2 PUSH2 0x58A3 JUMPI JUMPDEST POP DUP1 PUSH2 0x56F7 PUSH2 0x56F1 PUSH2 0x56EC PUSH1 0x5 PUSH2 0x297F JUMP JUMPDEST PUSH2 0x243 JUMP JUMPDEST SWAP2 PUSH2 0x243 JUMP JUMPDEST GT PUSH0 EQ PUSH2 0x5894 JUMPI PUSH2 0x5712 SWAP1 PUSH2 0x570C PUSH1 0x5 PUSH2 0x297F JUMP JUMPDEST SWAP1 PUSH2 0x185A JUMP JUMPDEST JUMPDEST PUSH2 0x5747 PUSH1 0x20 PUSH2 0x5731 PUSH2 0x572C PUSH2 0x5727 PUSH0 PUSH2 0x130A JUMP JUMPDEST PUSH2 0x1287 JUMP JUMPDEST PUSH2 0x1293 JUMP JUMPDEST PUSH4 0x313CE567 SWAP1 PUSH2 0x573F PUSH2 0x231 JUMP JUMPDEST SWAP4 DUP5 SWAP3 PUSH2 0x129F JUMP JUMPDEST DUP3 MSTORE DUP2 DUP1 PUSH2 0x5757 PUSH1 0x4 DUP3 ADD PUSH2 0x2DE JUMP JUMPDEST SUB SWAP2 GAS STATICCALL DUP1 ISZERO PUSH2 0x588F JUMPI PUSH2 0x57A0 PUSH2 0x57A5 SWAP2 PUSH2 0x57AB SWAP4 PUSH0 SWAP2 PUSH2 0x5861 JUMPI JUMPDEST POP PUSH2 0x579B PUSH2 0x5795 PUSH2 0x5790 PUSH1 0x1 SWAP4 PUSH2 0x578A PUSH1 0x2 PUSH2 0x560E JUMP JUMPDEST SWAP1 PUSH2 0x13C0 JUMP JUMPDEST PUSH2 0x13E4 JUMP JUMPDEST SWAP2 PUSH2 0x483F JUMP JUMPDEST PUSH2 0x15D3 JUMP JUMPDEST PUSH2 0x243 JUMP JUMPDEST SWAP2 PUSH2 0x243 JUMP JUMPDEST GT PUSH2 0x5854 JUMPI JUMPDEST PUSH2 0x5802 PUSH1 0x20 PUSH2 0x57D0 PUSH2 0x57CB PUSH2 0x57C6 PUSH1 0x2 PUSH2 0x130A JUMP JUMPDEST PUSH2 0x135C JUMP JUMPDEST PUSH2 0x1368 JUMP JUMPDEST PUSH4 0x70A08231 SWAP1 PUSH2 0x57F7 PUSH2 0x57E2 ADDRESS PUSH2 0x1317 JUMP JUMPDEST SWAP3 PUSH2 0x57EB PUSH2 0x231 JUMP JUMPDEST SWAP6 DUP7 SWAP5 DUP6 SWAP4 DUP5 SWAP4 PUSH2 0x129F JUMP JUMPDEST DUP4 MSTORE PUSH1 0x4 DUP4 ADD PUSH2 0x985 JUMP JUMPDEST SUB SWAP2 GAS STATICCALL DUP1 ISZERO PUSH2 0x584F JUMPI PUSH2 0x581F SWAP2 PUSH0 SWAP2 PUSH2 0x5821 JUMPI JUMPDEST POP PUSH1 0x4 PUSH2 0x1BA9 JUMP JUMPDEST JUMP JUMPDEST PUSH2 0x5842 SWAP2 POP PUSH1 0x20 RETURNDATASIZE DUP2 GT PUSH2 0x5848 JUMPI JUMPDEST PUSH2 0x583A DUP2 DUP4 PUSH2 0x6B7 JUMP JUMPDEST DUP2 ADD SWAP1 PUSH2 0x1332 JUMP JUMPDEST PUSH0 PUSH2 0x5817 JUMP JUMPDEST POP RETURNDATASIZE PUSH2 0x5830 JUMP JUMPDEST PUSH2 0x12E6 JUMP JUMPDEST PUSH2 0x585C PUSH2 0x5D4C JUMP JUMPDEST PUSH2 0x57B1 JUMP JUMPDEST PUSH2 0x5882 SWAP2 POP PUSH1 0x20 RETURNDATASIZE DUP2 GT PUSH2 0x5888 JUMPI JUMPDEST PUSH2 0x587A DUP2 DUP4 PUSH2 0x6B7 JUMP JUMPDEST DUP2 ADD SWAP1 PUSH2 0x12C8 JUMP JUMPDEST PUSH0 PUSH2 0x5773 JUMP JUMPDEST POP RETURNDATASIZE PUSH2 0x5870 JUMP JUMPDEST PUSH2 0x12E6 JUMP JUMPDEST POP PUSH2 0x589E PUSH0 PUSH2 0x1019 JUMP JUMPDEST PUSH2 0x5713 JUMP JUMPDEST PUSH2 0x58C4 SWAP2 POP PUSH1 0x20 RETURNDATASIZE DUP2 GT PUSH2 0x58CA JUMPI JUMPDEST PUSH2 0x58BC DUP2 DUP4 PUSH2 0x6B7 JUMP JUMPDEST DUP2 ADD SWAP1 PUSH2 0x1332 JUMP JUMPDEST PUSH0 PUSH2 0x56DA JUMP JUMPDEST POP RETURNDATASIZE PUSH2 0x58B2 JUMP JUMPDEST PUSH2 0x12E6 JUMP JUMPDEST PUSH2 0x56BD SWAP2 SWAP4 POP PUSH2 0x58FB SWAP1 DUP6 RETURNDATASIZE DUP2 GT PUSH2 0x5902 JUMPI JUMPDEST PUSH2 0x58F3 DUP2 DUP4 PUSH2 0x6B7 JUMP JUMPDEST DUP2 ADD SWAP1 PUSH2 0x1332 JUMP JUMPDEST SWAP3 SWAP1 PUSH2 0x56A4 JUMP JUMPDEST POP RETURNDATASIZE PUSH2 0x58E9 JUMP JUMPDEST PUSH2 0x12E6 JUMP JUMPDEST DUP1 PUSH2 0x5929 PUSH2 0x5923 PUSH2 0x591E PUSH0 PUSH2 0x3B11 JUMP JUMPDEST PUSH2 0x282 JUMP JUMPDEST SWAP2 PUSH2 0x282 JUMP JUMPDEST EQ PUSH2 0x5945 JUMPI PUSH2 0x5943 SWAP2 PUSH2 0x593B PUSH0 PUSH2 0x3B11 JUMP JUMPDEST SWAP2 SWAP1 SWAP2 PUSH2 0x623A JUMP JUMPDEST JUMP JUMPDEST PUSH2 0x5988 PUSH2 0x5951 PUSH0 PUSH2 0x3B11 JUMP JUMPDEST PUSH2 0x5959 PUSH2 0x231 JUMP JUMPDEST SWAP2 DUP3 SWAP2 PUSH32 0xEC442F0500000000000000000000000000000000000000000000000000000000 DUP4 MSTORE PUSH1 0x4 DUP4 ADD PUSH2 0x985 JUMP JUMPDEST SUB SWAP1 REVERT JUMPDEST PUSH2 0x5994 PUSH2 0x5B45 JUMP JUMPDEST PUSH2 0x59AC PUSH2 0x59A2 PUSH0 DUP4 ADD PUSH2 0x130A JUMP JUMPDEST SWAP2 PUSH0 DUP5 SWAP2 ADD PUSH2 0x3DC7 JUMP JUMPDEST SWAP1 PUSH2 0x59E0 PUSH2 0x59DA PUSH32 0x8BE0079C531659141344CD1FD0A4F28419497F9722A3DAAFE3B4186F6B6457E0 SWAP4 PUSH2 0x3A9A JUMP JUMPDEST SWAP2 PUSH2 0x3A9A JUMP JUMPDEST SWAP2 PUSH2 0x59E9 PUSH2 0x231 JUMP JUMPDEST DUP1 PUSH2 0x59F3 DUP2 PUSH2 0x2DE JUMP JUMPDEST SUB SWAP1 LOG3 JUMP JUMPDEST PUSH2 0x5A00 PUSH2 0x4885 JUMP JUMPDEST PUSH2 0x5A08 PUSH2 0x5A0A JUMP JUMPDEST JUMP JUMPDEST PUSH2 0x5A1F PUSH2 0x5A15 PUSH2 0x55EA JUMP JUMPDEST PUSH0 PUSH1 0x1 SWAP2 ADD PUSH2 0x525F JUMP JUMPDEST PUSH2 0x5A27 PUSH2 0x4FC4 JUMP JUMPDEST PUSH2 0x5A5D PUSH32 0x62E78CEA01BEE320CD4E420270B5EA74000D11B0C9F74754EBDBFC544B05A258 SWAP2 PUSH2 0x5A54 PUSH2 0x231 JUMP JUMPDEST SWAP2 DUP3 SWAP2 DUP3 PUSH2 0x985 JUMP JUMPDEST SUB SWAP1 LOG1 JUMP JUMPDEST PUSH2 0x5A6A PUSH2 0x59F8 JUMP JUMPDEST JUMP JUMPDEST PUSH32 0xF0C57E16840DF040F15088DC2F81FE391C3923BEC73E23A9662EFC9C229C6A00 SWAP1 JUMP JUMPDEST PUSH2 0x5AA1 SWAP1 PUSH2 0x5A9C PUSH2 0x6640 JUMP JUMPDEST PUSH2 0x5AA3 JUMP JUMPDEST JUMP JUMPDEST PUSH2 0x5AAC SWAP1 PUSH2 0x6718 JUMP JUMPDEST JUMP JUMPDEST PUSH2 0x5AB7 SWAP1 PUSH2 0x5A90 JUMP JUMPDEST JUMP JUMPDEST SWAP1 PUSH2 0x5ACB SWAP2 PUSH2 0x5AC6 PUSH2 0x6640 JUMP JUMPDEST PUSH2 0x5ACD JUMP JUMPDEST JUMP JUMPDEST SWAP1 PUSH2 0x5AD7 SWAP2 PUSH2 0x695B JUMP JUMPDEST JUMP JUMPDEST SWAP1 PUSH2 0x5AE3 SWAP2 PUSH2 0x5AB9 JUMP JUMPDEST JUMP JUMPDEST PUSH2 0x5AED PUSH2 0x6640 JUMP JUMPDEST JUMP JUMPDEST PUSH2 0x5AF7 PUSH2 0x5AE5 JUMP JUMPDEST JUMP JUMPDEST PUSH2 0x5B01 PUSH2 0x6640 JUMP JUMPDEST PUSH2 0x5B09 PUSH2 0x5B0B JUMP JUMPDEST JUMP JUMPDEST PUSH2 0x5B13 PUSH2 0x6996 JUMP JUMPDEST JUMP JUMPDEST PUSH2 0x5B1D PUSH2 0x5AF9 JUMP JUMPDEST JUMP JUMPDEST PUSH2 0x5B27 PUSH2 0x6640 JUMP JUMPDEST PUSH2 0x5B2F PUSH2 0x5B31 JUMP JUMPDEST JUMP JUMPDEST PUSH2 0x5B39 PUSH2 0x69C8 JUMP JUMPDEST JUMP JUMPDEST PUSH2 0x5B43 PUSH2 0x5B1F JUMP JUMPDEST JUMP JUMPDEST PUSH32 0x9016D09D72D40FDAE2FD8CEAC6B6234C7706214FD39C1CD1E609A0528C199300 SWAP1 JUMP JUMPDEST PUSH1 0x20 PUSH32 0x6C61626C65000000000000000000000000000000000000000000000000000000 SWAP2 PUSH32 0x42616C756E695631795661756C743A204E6F20696E7465726573742061766169 PUSH0 DUP3 ADD MSTORE ADD MSTORE JUMP JUMPDEST PUSH2 0x5BC3 PUSH1 0x25 PUSH1 0x40 SWAP3 PUSH2 0x32A JUMP JUMPDEST PUSH2 0x5BCC DUP2 PUSH2 0x5B69 JUMP JUMPDEST ADD SWAP1 JUMP JUMPDEST PUSH2 0x5BE5 SWAP1 PUSH1 0x20 DUP2 ADD SWAP1 PUSH0 DUP2 DUP4 SUB SWAP2 ADD MSTORE PUSH2 0x5BB6 JUMP JUMPDEST SWAP1 JUMP JUMPDEST ISZERO PUSH2 0x5BEF JUMPI JUMP JUMPDEST PUSH2 0x5BF7 PUSH2 0x231 JUMP JUMPDEST PUSH32 0x8C379A000000000000000000000000000000000000000000000000000000000 DUP2 MSTORE DUP1 PUSH2 0x5C27 PUSH1 0x4 DUP3 ADD PUSH2 0x5BD0 JUMP JUMPDEST SUB SWAP1 REVERT JUMPDEST PUSH0 PUSH32 0x42616C756E695631795661756C743A2052656465656D204661696C6564000000 SWAP2 ADD MSTORE JUMP JUMPDEST PUSH2 0x5C5F PUSH1 0x1D PUSH1 0x20 SWAP3 PUSH2 0x32A JUMP JUMPDEST PUSH2 0x5C68 DUP2 PUSH2 0x5C2B JUMP JUMPDEST ADD SWAP1 JUMP JUMPDEST PUSH2 0x5C81 SWAP1 PUSH1 0x20 DUP2 ADD SWAP1 PUSH0 DUP2 DUP4 SUB SWAP2 ADD MSTORE PUSH2 0x5C52 JUMP JUMPDEST SWAP1 JUMP JUMPDEST ISZERO PUSH2 0x5C8B JUMPI JUMP JUMPDEST PUSH2 0x5C93 PUSH2 0x231 JUMP JUMPDEST PUSH32 0x8C379A000000000000000000000000000000000000000000000000000000000 DUP2 MSTORE DUP1 PUSH2 0x5CC3 PUSH1 0x4 DUP3 ADD PUSH2 0x5C6C JUMP JUMPDEST SUB SWAP1 REVERT JUMPDEST PUSH2 0x5CD0 SWAP1 PUSH2 0x1247 JUMP JUMPDEST SWAP1 JUMP JUMPDEST PUSH2 0x5CDC SWAP1 PUSH2 0x5CC7 JUMP JUMPDEST SWAP1 JUMP JUMPDEST PUSH2 0x5CE8 SWAP1 PUSH2 0x1263 JUMP JUMPDEST SWAP1 JUMP JUMPDEST PUSH2 0x5D20 PUSH2 0x5D27 SWAP5 PUSH2 0x5D16 PUSH1 0x60 SWAP5 SWAP9 SWAP8 SWAP6 PUSH2 0x5D0C PUSH1 0x80 DUP7 ADD SWAP11 PUSH0 DUP8 ADD SWAP1 PUSH2 0x978 JUMP JUMPDEST PUSH1 0x20 DUP6 ADD SWAP1 PUSH2 0x978 JUMP JUMPDEST PUSH1 0x40 DUP4 ADD SWAP1 PUSH2 0x450 JUMP JUMPDEST ADD SWAP1 PUSH2 0x978 JUMP JUMPDEST JUMP JUMPDEST SWAP2 PUSH1 0x20 PUSH2 0x5D4A SWAP3 SWAP5 SWAP4 PUSH2 0x5D43 PUSH1 0x40 DUP3 ADD SWAP7 PUSH0 DUP4 ADD SWAP1 PUSH2 0x450 JUMP JUMPDEST ADD SWAP1 PUSH2 0x450 JUMP JUMPDEST JUMP JUMPDEST PUSH2 0x5D5E PUSH2 0x5D59 PUSH1 0x1 PUSH2 0x123A JUMP JUMPDEST PUSH2 0x126F JUMP JUMPDEST PUSH2 0x5DAD PUSH4 0x7A2D13A SWAP2 PUSH1 0x20 PUSH2 0x5D7B PUSH2 0x5D76 PUSH1 0x1 PUSH2 0x123A JUMP JUMPDEST PUSH2 0x126F JUMP JUMPDEST PUSH4 0x70A08231 SWAP1 PUSH2 0x5DA2 PUSH2 0x5D8D ADDRESS PUSH2 0x1317 JUMP JUMPDEST SWAP3 PUSH2 0x5D96 PUSH2 0x231 JUMP JUMPDEST SWAP7 DUP8 SWAP5 DUP6 SWAP4 DUP5 SWAP4 PUSH2 0x129F JUMP JUMPDEST DUP4 MSTORE PUSH1 0x4 DUP4 ADD PUSH2 0x985 JUMP JUMPDEST SUB SWAP2 GAS STATICCALL SWAP1 DUP2 ISZERO PUSH2 0x6203 JUMPI PUSH2 0x5DEA SWAP4 PUSH1 0x20 SWAP4 PUSH0 SWAP4 PUSH2 0x61D0 JUMPI JUMPDEST POP PUSH2 0x5DDF SWAP1 PUSH2 0x5DD3 PUSH2 0x231 JUMP JUMPDEST SWAP6 DUP7 SWAP5 DUP6 SWAP4 DUP5 SWAP4 PUSH2 0x129F JUMP JUMPDEST DUP4 MSTORE PUSH1 0x4 DUP4 ADD PUSH2 0x45D JUMP JUMPDEST SUB SWAP2 GAS STATICCALL SWAP1 DUP2 ISZERO PUSH2 0x61CB JUMPI PUSH0 SWAP2 PUSH2 0x619D JUMPI JUMPDEST POP DUP1 PUSH2 0x5E19 PUSH2 0x5E13 PUSH2 0x5E0E PUSH1 0x5 PUSH2 0x297F JUMP JUMPDEST PUSH2 0x243 JUMP JUMPDEST SWAP2 PUSH2 0x243 JUMP JUMPDEST GT PUSH0 EQ PUSH2 0x618E JUMPI PUSH2 0x5E34 SWAP1 PUSH2 0x5E2E PUSH1 0x5 PUSH2 0x297F JUMP JUMPDEST SWAP1 PUSH2 0x185A JUMP JUMPDEST JUMPDEST PUSH2 0x5E51 DUP2 PUSH2 0x5E4B PUSH2 0x5E45 PUSH0 PUSH2 0x1019 JUMP JUMPDEST SWAP2 PUSH2 0x243 JUMP JUMPDEST GT PUSH2 0x5BE8 JUMP JUMPDEST PUSH2 0x5E92 PUSH1 0x20 PUSH2 0x5E68 PUSH2 0x5E63 PUSH1 0x1 PUSH2 0x123A JUMP JUMPDEST PUSH2 0x126F JUMP JUMPDEST PUSH4 0xC6E6F592 SWAP1 PUSH2 0x5E87 DUP6 SWAP3 PUSH2 0x5E7B PUSH2 0x231 JUMP JUMPDEST SWAP6 DUP7 SWAP5 DUP6 SWAP4 DUP5 SWAP4 PUSH2 0x129F JUMP JUMPDEST DUP4 MSTORE PUSH1 0x4 DUP4 ADD PUSH2 0x45D JUMP JUMPDEST SUB SWAP2 GAS STATICCALL SWAP1 DUP2 ISZERO PUSH2 0x6189 JUMPI PUSH0 SWAP2 PUSH2 0x615B JUMPI JUMPDEST POP PUSH1 0x20 PUSH2 0x5EB9 PUSH2 0x5EB4 PUSH1 0x1 PUSH2 0x123A JUMP JUMPDEST PUSH2 0x126F JUMP JUMPDEST PUSH4 0xBA087652 SWAP3 SWAP1 PUSH2 0x5EEE PUSH0 PUSH2 0x5ECD ADDRESS PUSH2 0x1317 JUMP JUMPDEST SWAP6 PUSH2 0x5EF9 PUSH2 0x5EDA ADDRESS PUSH2 0x1317 JUMP JUMPDEST PUSH2 0x5EE2 PUSH2 0x231 JUMP JUMPDEST SWAP9 DUP10 SWAP8 DUP9 SWAP7 DUP8 SWAP6 PUSH2 0x129F JUMP JUMPDEST DUP6 MSTORE PUSH1 0x4 DUP6 ADD PUSH2 0x178C JUMP JUMPDEST SUB SWAP3 GAS CALL SWAP1 DUP2 ISZERO PUSH2 0x6156 JUMPI PUSH0 SWAP2 PUSH2 0x6128 JUMPI JUMPDEST POP PUSH2 0x5F28 DUP2 PUSH2 0x5F22 PUSH2 0x5F1C PUSH0 PUSH2 0x1019 JUMP JUMPDEST SWAP2 PUSH2 0x243 JUMP JUMPDEST GT PUSH2 0x5C84 JUMP JUMPDEST PUSH2 0x5F55 PUSH1 0x20 PUSH2 0x5F3F PUSH2 0x5F3A PUSH1 0x3 PUSH2 0x1A0A JUMP JUMPDEST PUSH2 0x1A17 JUMP JUMPDEST PUSH4 0x82755EBB SWAP1 PUSH2 0x5F4D PUSH2 0x231 JUMP JUMPDEST SWAP4 DUP5 SWAP3 PUSH2 0x129F JUMP JUMPDEST DUP3 MSTORE DUP2 DUP1 PUSH2 0x5F65 PUSH1 0x4 DUP3 ADD PUSH2 0x2DE JUMP JUMPDEST SUB SWAP2 GAS STATICCALL DUP1 ISZERO PUSH2 0x6123 JUMPI PUSH2 0x5F80 SWAP2 PUSH0 SWAP2 PUSH2 0x60F5 JUMPI JUMPDEST POP PUSH2 0x5CD3 JUMP JUMPDEST PUSH2 0x5F99 PUSH2 0x5F94 PUSH2 0x5F8F PUSH0 PUSH2 0x130A JUMP JUMPDEST PUSH2 0x135C JUMP JUMPDEST PUSH2 0x1368 JUMP JUMPDEST SWAP1 PUSH1 0x20 PUSH4 0x95EA7B3 SWAP3 PUSH2 0x5FAB DUP4 PUSH2 0x5CDF JUMP JUMPDEST SWAP1 PUSH2 0x5FC9 PUSH0 DUP8 SWAP7 PUSH2 0x5FD4 PUSH2 0x5FBD PUSH2 0x231 JUMP JUMPDEST SWAP9 DUP10 SWAP7 DUP8 SWAP6 DUP7 SWAP5 PUSH2 0x129F JUMP JUMPDEST DUP5 MSTORE PUSH1 0x4 DUP5 ADD PUSH2 0x1A91 JUMP JUMPDEST SUB SWAP3 GAS CALL SWAP2 DUP3 ISZERO PUSH2 0x60F0 JUMPI PUSH2 0x5FEE SWAP3 PUSH2 0x60C4 JUMPI JUMPDEST POP PUSH2 0x5CDF JUMP JUMPDEST PUSH1 0x20 PUSH4 0x2D6BC8EA SWAP2 PUSH2 0x5FFF PUSH0 PUSH2 0x130A JUMP JUMPDEST SWAP1 PUSH2 0x6031 PUSH0 PUSH2 0x600E PUSH1 0x2 PUSH2 0x130A JUMP JUMPDEST SWAP6 PUSH2 0x603C DUP9 PUSH2 0x601C ADDRESS PUSH2 0x1317 JUMP JUMPDEST SWAP1 PUSH2 0x6025 PUSH2 0x231 JUMP JUMPDEST SWAP10 DUP11 SWAP9 DUP10 SWAP8 DUP9 SWAP7 PUSH2 0x129F JUMP JUMPDEST DUP7 MSTORE PUSH1 0x4 DUP7 ADD PUSH2 0x5CEB JUMP JUMPDEST SUB SWAP3 GAS CALL DUP1 ISZERO PUSH2 0x60BF JUMPI PUSH2 0x6093 JUMPI JUMPDEST POP CALLER SWAP1 SWAP2 PUSH2 0x6079 PUSH32 0x1CBC5AB135991BD2B6A4B034A04AA2AA086DAC1371CB9B16B8B5E2ED6B036BED SWAP3 PUSH2 0x3A9A JUMP JUMPDEST SWAP3 PUSH2 0x608E PUSH2 0x6085 PUSH2 0x231 JUMP JUMPDEST SWAP3 DUP4 SWAP3 DUP4 PUSH2 0x5D29 JUMP JUMPDEST SUB SWAP1 LOG2 JUMP JUMPDEST PUSH2 0x60B3 SWAP1 PUSH1 0x20 RETURNDATASIZE DUP2 GT PUSH2 0x60B8 JUMPI JUMPDEST PUSH2 0x60AB DUP2 DUP4 PUSH2 0x6B7 JUMP JUMPDEST DUP2 ADD SWAP1 PUSH2 0x1332 JUMP JUMPDEST PUSH2 0x604B JUMP JUMPDEST POP RETURNDATASIZE PUSH2 0x60A1 JUMP JUMPDEST PUSH2 0x12E6 JUMP JUMPDEST PUSH2 0x60E4 SWAP1 PUSH1 0x20 RETURNDATASIZE DUP2 GT PUSH2 0x60E9 JUMPI JUMPDEST PUSH2 0x60DC DUP2 DUP4 PUSH2 0x6B7 JUMP JUMPDEST DUP2 ADD SWAP1 PUSH2 0x1A73 JUMP JUMPDEST PUSH2 0x5FE8 JUMP JUMPDEST POP RETURNDATASIZE PUSH2 0x60D2 JUMP JUMPDEST PUSH2 0x12E6 JUMP JUMPDEST PUSH2 0x6116 SWAP2 POP PUSH1 0x20 RETURNDATASIZE DUP2 GT PUSH2 0x611C JUMPI JUMPDEST PUSH2 0x610E DUP2 DUP4 PUSH2 0x6B7 JUMP JUMPDEST DUP2 ADD SWAP1 PUSH2 0x1A32 JUMP JUMPDEST PUSH0 PUSH2 0x5F7A JUMP JUMPDEST POP RETURNDATASIZE PUSH2 0x6104 JUMP JUMPDEST PUSH2 0x12E6 JUMP JUMPDEST PUSH2 0x6149 SWAP2 POP PUSH1 0x20 RETURNDATASIZE DUP2 GT PUSH2 0x614F JUMPI JUMPDEST PUSH2 0x6141 DUP2 DUP4 PUSH2 0x6B7 JUMP JUMPDEST DUP2 ADD SWAP1 PUSH2 0x1332 JUMP JUMPDEST PUSH0 PUSH2 0x5F0B JUMP JUMPDEST POP RETURNDATASIZE PUSH2 0x6137 JUMP JUMPDEST PUSH2 0x12E6 JUMP JUMPDEST PUSH2 0x617C SWAP2 POP PUSH1 0x20 RETURNDATASIZE DUP2 GT PUSH2 0x6182 JUMPI JUMPDEST PUSH2 0x6174 DUP2 DUP4 PUSH2 0x6B7 JUMP JUMPDEST DUP2 ADD SWAP1 PUSH2 0x1332 JUMP JUMPDEST PUSH0 PUSH2 0x5EA4 JUMP JUMPDEST POP RETURNDATASIZE PUSH2 0x616A JUMP JUMPDEST PUSH2 0x12E6 JUMP JUMPDEST POP PUSH2 0x6198 PUSH0 PUSH2 0x1019 JUMP JUMPDEST PUSH2 0x5E35 JUMP JUMPDEST PUSH2 0x61BE SWAP2 POP PUSH1 0x20 RETURNDATASIZE DUP2 GT PUSH2 0x61C4 JUMPI JUMPDEST PUSH2 0x61B6 DUP2 DUP4 PUSH2 0x6B7 JUMP JUMPDEST DUP2 ADD SWAP1 PUSH2 0x1332 JUMP JUMPDEST PUSH0 PUSH2 0x5DFC JUMP JUMPDEST POP RETURNDATASIZE PUSH2 0x61AC JUMP JUMPDEST PUSH2 0x12E6 JUMP JUMPDEST PUSH2 0x5DDF SWAP2 SWAP4 POP PUSH2 0x61F5 SWAP1 DUP6 RETURNDATASIZE DUP2 GT PUSH2 0x61FC JUMPI JUMPDEST PUSH2 0x61ED DUP2 DUP4 PUSH2 0x6B7 JUMP JUMPDEST DUP2 ADD SWAP1 PUSH2 0x1332 JUMP JUMPDEST SWAP3 SWAP1 PUSH2 0x5DC6 JUMP JUMPDEST POP RETURNDATASIZE PUSH2 0x61E3 JUMP JUMPDEST PUSH2 0x12E6 JUMP JUMPDEST PUSH32 0x9B779B17422D0DF92223018B32B4D1FA46E071723D6817E2486D003BECC55F00 SWAP1 JUMP JUMPDEST SWAP1 PUSH2 0x6237 SWAP2 ADD PUSH2 0x243 JUMP JUMPDEST SWAP1 JUMP JUMPDEST SWAP2 SWAP1 SWAP2 PUSH2 0x6245 PUSH2 0x4FA0 JUMP JUMPDEST DUP2 PUSH2 0x6260 PUSH2 0x625A PUSH2 0x6255 PUSH0 PUSH2 0x3B11 JUMP JUMPDEST PUSH2 0x282 JUMP JUMPDEST SWAP2 PUSH2 0x282 JUMP JUMPDEST EQ PUSH0 EQ PUSH2 0x634B JUMPI PUSH2 0x6287 DUP4 PUSH2 0x6281 PUSH1 0x2 DUP5 ADD SWAP2 PUSH2 0x627C DUP4 PUSH2 0x297F JUMP JUMPDEST PUSH2 0x2A30 JUMP JUMPDEST SWAP1 PUSH2 0x1BA9 JUMP JUMPDEST JUMPDEST DUP4 PUSH2 0x62A3 PUSH2 0x629D PUSH2 0x6298 PUSH0 PUSH2 0x3B11 JUMP JUMPDEST PUSH2 0x282 JUMP JUMPDEST SWAP2 PUSH2 0x282 JUMP JUMPDEST EQ PUSH0 EQ PUSH2 0x631C JUMPI PUSH2 0x62CB SWAP1 PUSH2 0x62C5 PUSH1 0x2 DUP6 SWAP3 ADD SWAP2 PUSH2 0x62C0 DUP4 PUSH2 0x297F JUMP JUMPDEST PUSH2 0x5013 JUMP JUMPDEST SWAP1 PUSH2 0x1BA9 JUMP JUMPDEST JUMPDEST SWAP2 SWAP1 SWAP2 PUSH2 0x6317 PUSH2 0x6305 PUSH2 0x62FF PUSH32 0xDDF252AD1BE2C89B69C2B068FC378DAA952BA7F163C4A11628F55A4DF523B3EF SWAP4 PUSH2 0x3A9A JUMP JUMPDEST SWAP4 PUSH2 0x3A9A JUMP JUMPDEST SWAP4 PUSH2 0x630E PUSH2 0x231 JUMP JUMPDEST SWAP2 DUP3 SWAP2 DUP3 PUSH2 0x45D JUMP JUMPDEST SUB SWAP1 LOG3 JUMP JUMPDEST PUSH2 0x6346 SWAP1 PUSH2 0x6340 PUSH2 0x6331 PUSH0 DUP7 SWAP4 ADD DUP8 SWAP1 PUSH2 0x3AA6 JUMP JUMPDEST SWAP2 PUSH2 0x633B DUP4 PUSH2 0x297F JUMP JUMPDEST PUSH2 0x622C JUMP JUMPDEST SWAP1 PUSH2 0x1BA9 JUMP JUMPDEST PUSH2 0x62CC JUMP JUMPDEST PUSH2 0x6360 PUSH2 0x635B PUSH0 DUP4 ADD DUP5 SWAP1 PUSH2 0x3AA6 JUMP JUMPDEST PUSH2 0x297F JUMP JUMPDEST DUP1 PUSH2 0x6373 PUSH2 0x636D DUP7 PUSH2 0x243 JUMP JUMPDEST SWAP2 PUSH2 0x243 JUMP JUMPDEST LT PUSH2 0x639D JUMPI PUSH2 0x6386 PUSH2 0x6398 SWAP2 DUP6 SWAP1 PUSH2 0x5013 JUMP JUMPDEST PUSH2 0x6393 PUSH0 DUP5 ADD DUP6 SWAP1 PUSH2 0x3AA6 JUMP JUMPDEST PUSH2 0x1BA9 JUMP JUMPDEST PUSH2 0x6288 JUMP JUMPDEST SWAP2 PUSH2 0x63DC SWAP2 POP SWAP2 SWAP3 PUSH2 0x63AD PUSH2 0x231 JUMP JUMPDEST SWAP4 DUP5 SWAP4 PUSH32 0xE450D38C00000000000000000000000000000000000000000000000000000000 DUP6 MSTORE PUSH1 0x4 DUP6 ADD PUSH2 0x4FE1 JUMP JUMPDEST SUB SWAP1 REVERT JUMPDEST SWAP1 SWAP3 PUSH2 0x63EA PUSH2 0x4FA0 JUMP JUMPDEST DUP3 PUSH2 0x6405 PUSH2 0x63FF PUSH2 0x63FA PUSH0 PUSH2 0x3B11 JUMP JUMPDEST PUSH2 0x282 JUMP JUMPDEST SWAP2 PUSH2 0x282 JUMP JUMPDEST EQ PUSH2 0x64F3 JUMPI DUP5 PUSH2 0x6425 PUSH2 0x641F PUSH2 0x641A PUSH0 PUSH2 0x3B11 JUMP JUMPDEST PUSH2 0x282 JUMP JUMPDEST SWAP2 PUSH2 0x282 JUMP JUMPDEST EQ PUSH2 0x64AC JUMPI PUSH2 0x644C SWAP1 PUSH2 0x6447 PUSH2 0x6440 PUSH1 0x1 DUP8 SWAP4 ADD DUP7 SWAP1 PUSH2 0x4212 JUMP JUMPDEST DUP8 SWAP1 PUSH2 0x3AA6 JUMP JUMPDEST PUSH2 0x1BA9 JUMP JUMPDEST PUSH2 0x6456 JUMPI JUMPDEST POP POP POP JUMP JUMPDEST SWAP2 SWAP1 SWAP2 PUSH2 0x64A1 PUSH2 0x648F PUSH2 0x6489 PUSH32 0x8C5BE1E5EBEC7D5BD14F71427D1E84F3DD0314C0F7B2291E5B200AC8C7C3B925 SWAP4 PUSH2 0x3A9A JUMP JUMPDEST SWAP4 PUSH2 0x3A9A JUMP JUMPDEST SWAP4 PUSH2 0x6498 PUSH2 0x231 JUMP JUMPDEST SWAP2 DUP3 SWAP2 DUP3 PUSH2 0x45D JUMP JUMPDEST SUB SWAP1 LOG3 PUSH0 DUP1 DUP1 PUSH2 0x6451 JUMP JUMPDEST PUSH2 0x64EF PUSH2 0x64B8 PUSH0 PUSH2 0x3B11 JUMP JUMPDEST PUSH2 0x64C0 PUSH2 0x231 JUMP JUMPDEST SWAP2 DUP3 SWAP2 PUSH32 0x94280D6200000000000000000000000000000000000000000000000000000000 DUP4 MSTORE PUSH1 0x4 DUP4 ADD PUSH2 0x985 JUMP JUMPDEST SUB SWAP1 REVERT JUMPDEST PUSH2 0x6536 PUSH2 0x64FF PUSH0 PUSH2 0x3B11 JUMP JUMPDEST PUSH2 0x6507 PUSH2 0x231 JUMP JUMPDEST SWAP2 DUP3 SWAP2 PUSH32 0xE602DF0500000000000000000000000000000000000000000000000000000000 DUP4 MSTORE PUSH1 0x4 DUP4 ADD PUSH2 0x985 JUMP JUMPDEST SUB SWAP1 REVERT JUMPDEST PUSH2 0x654B PUSH2 0x6545 PUSH2 0x31E8 JUMP JUMPDEST ISZERO PUSH2 0x3F3 JUMP JUMPDEST PUSH2 0x6551 JUMPI JUMP JUMPDEST PUSH2 0x6559 PUSH2 0x231 JUMP JUMPDEST PUSH32 0x8DFC202B00000000000000000000000000000000000000000000000000000000 DUP2 MSTORE DUP1 PUSH2 0x6589 PUSH1 0x4 DUP3 ADD PUSH2 0x2DE JUMP JUMPDEST SUB SWAP1 REVERT JUMPDEST PUSH2 0x6595 PUSH2 0x3B3A JUMP JUMPDEST POP PUSH2 0x65B0 PUSH0 PUSH2 0x65AA PUSH2 0x65A5 PUSH2 0x3176 JUMP JUMPDEST PUSH2 0x69D2 JUMP JUMPDEST ADD PUSH2 0x130A JUMP JUMPDEST SWAP1 JUMP JUMPDEST MLOAD SWAP1 JUMP JUMPDEST SWAP1 PUSH2 0x65C1 DUP3 PUSH2 0x69D5 JUMP JUMPDEST DUP2 PUSH2 0x65EC PUSH32 0xBC7CD75A20EE27FD9ADEBAB32041F755214DBC6BFFA90CC0225B39DA2E5C2D3B SWAP2 PUSH2 0x3A9A JUMP JUMPDEST SWAP1 PUSH2 0x65F5 PUSH2 0x231 JUMP JUMPDEST DUP1 PUSH2 0x65FF DUP2 PUSH2 0x2DE JUMP JUMPDEST SUB SWAP1 LOG2 PUSH2 0x660B DUP2 PUSH2 0x65B3 JUMP JUMPDEST PUSH2 0x661D PUSH2 0x6617 PUSH0 PUSH2 0x1019 JUMP JUMPDEST SWAP2 PUSH2 0x243 JUMP JUMPDEST GT PUSH0 EQ PUSH2 0x6631 JUMPI PUSH2 0x662D SWAP2 PUSH2 0x6AE5 JUMP JUMPDEST POP JUMPDEST JUMP JUMPDEST POP POP PUSH2 0x663B PUSH2 0x6A4A JUMP JUMPDEST PUSH2 0x662F JUMP JUMPDEST PUSH2 0x6651 PUSH2 0x664B PUSH2 0x6B14 JUMP JUMPDEST ISZERO PUSH2 0x3F3 JUMP JUMPDEST PUSH2 0x6657 JUMPI JUMP JUMPDEST PUSH2 0x665F PUSH2 0x231 JUMP JUMPDEST PUSH32 0xD7E6BCF800000000000000000000000000000000000000000000000000000000 DUP2 MSTORE DUP1 PUSH2 0x668F PUSH1 0x4 DUP3 ADD PUSH2 0x2DE JUMP JUMPDEST SUB SWAP1 REVERT JUMPDEST PUSH2 0x66A4 SWAP1 PUSH2 0x669F PUSH2 0x6640 JUMP JUMPDEST PUSH2 0x66A6 JUMP JUMPDEST JUMP JUMPDEST DUP1 PUSH2 0x66C1 PUSH2 0x66BB PUSH2 0x66B6 PUSH0 PUSH2 0x3B11 JUMP JUMPDEST PUSH2 0x282 JUMP JUMPDEST SWAP2 PUSH2 0x282 JUMP JUMPDEST EQ PUSH2 0x66D1 JUMPI PUSH2 0x66CF SWAP1 PUSH2 0x598C JUMP JUMPDEST JUMP JUMPDEST PUSH2 0x6714 PUSH2 0x66DD PUSH0 PUSH2 0x3B11 JUMP JUMPDEST PUSH2 0x66E5 PUSH2 0x231 JUMP JUMPDEST SWAP2 DUP3 SWAP2 PUSH32 0x1E4FBDF700000000000000000000000000000000000000000000000000000000 DUP4 MSTORE PUSH1 0x4 DUP4 ADD PUSH2 0x985 JUMP JUMPDEST SUB SWAP1 REVERT JUMPDEST PUSH2 0x6721 SWAP1 PUSH2 0x6693 JUMP JUMPDEST JUMP JUMPDEST SWAP1 PUSH2 0x6735 SWAP2 PUSH2 0x6730 PUSH2 0x6640 JUMP JUMPDEST PUSH2 0x6937 JUMP JUMPDEST JUMP JUMPDEST PUSH1 0x1F PUSH1 0x20 SWAP2 ADD DIV SWAP1 JUMP JUMPDEST SHL SWAP1 JUMP JUMPDEST SWAP2 SWAP1 PUSH1 0x8 PUSH2 0x677F SWAP2 MUL SWAP2 PUSH2 0x6779 PUSH32 0xFFFFFFFFFFFFFFFFFFFFFFFFFFFFFFFFFFFFFFFFFFFFFFFFFFFFFFFFFFFFFFFF DUP5 PUSH2 0x6741 JUMP JUMPDEST SWAP3 PUSH2 0x6741 JUMP JUMPDEST SWAP2 DUP2 NOT AND SWAP2 AND OR SWAP1 JUMP JUMPDEST SWAP2 SWAP1 PUSH2 0x679F PUSH2 0x679A PUSH2 0x67A7 SWAP4 PUSH2 0x1B8A JUMP JUMPDEST PUSH2 0x1BA6 JUMP JUMPDEST SWAP1 DUP4 SLOAD PUSH2 0x6745 JUMP JUMPDEST SWAP1 SSTORE JUMP JUMPDEST PUSH2 0x67BD SWAP2 PUSH2 0x67B7 PUSH2 0x2967 JUMP JUMPDEST SWAP2 PUSH2 0x6789 JUMP JUMPDEST JUMP JUMPDEST JUMPDEST DUP2 DUP2 LT PUSH2 0x67CB JUMPI POP POP JUMP JUMPDEST DUP1 PUSH2 0x67D8 PUSH0 PUSH1 0x1 SWAP4 PUSH2 0x67AB JUMP JUMPDEST ADD PUSH2 0x67C0 JUMP JUMPDEST SWAP2 SWAP1 PUSH1 0x1F DUP2 GT PUSH2 0x67EE JUMPI JUMPDEST POP POP POP JUMP JUMPDEST PUSH2 0x67FA PUSH2 0x681F SWAP4 PUSH2 0x2852 JUMP JUMPDEST SWAP1 PUSH1 0x20 PUSH2 0x6806 DUP5 PUSH2 0x6737 JUMP JUMPDEST DUP4 ADD SWAP4 LT PUSH2 0x6827 JUMPI JUMPDEST PUSH2 0x6818 SWAP1 PUSH2 0x6737 JUMP JUMPDEST ADD SWAP1 PUSH2 0x67BF JUMP JUMPDEST PUSH0 DUP1 DUP1 PUSH2 0x67E9 JUMP JUMPDEST SWAP2 POP PUSH2 0x6818 DUP2 SWAP3 SWAP1 POP PUSH2 0x680F JUMP JUMPDEST SWAP1 PUSH2 0x6845 SWAP1 PUSH0 NOT SWAP1 PUSH1 0x8 MUL PUSH2 0x5A9 JUMP JUMPDEST NOT AND SWAP1 JUMP JUMPDEST DUP2 PUSH2 0x6854 SWAP2 PUSH2 0x6835 JUMP JUMPDEST SWAP1 PUSH1 0x2 MUL OR SWAP1 JUMP JUMPDEST SWAP1 PUSH2 0x6866 DUP2 PUSH2 0x326 JUMP JUMPDEST SWAP1 PUSH8 0xFFFFFFFFFFFFFFFF DUP3 GT PUSH2 0x6926 JUMPI PUSH2 0x688A DUP3 PUSH2 0x6884 DUP6 SLOAD PUSH2 0x281F JUMP JUMPDEST DUP6 PUSH2 0x67DE JUMP JUMPDEST PUSH1 0x20 SWAP1 PUSH1 0x1F DUP4 GT PUSH1 0x1 EQ PUSH2 0x68BE JUMPI SWAP2 DUP1 SWAP2 PUSH2 0x68AD SWAP4 PUSH0 SWAP3 PUSH2 0x68B2 JUMPI JUMPDEST POP POP PUSH2 0x684A JUMP JUMPDEST SWAP1 SSTORE JUMPDEST JUMP JUMPDEST SWAP1 SWAP2 POP ADD MLOAD PUSH0 DUP1 PUSH2 0x68A6 JUMP JUMPDEST PUSH1 0x1F NOT DUP4 AND SWAP2 PUSH2 0x68CD DUP6 PUSH2 0x2852 JUMP JUMPDEST SWAP3 PUSH0 JUMPDEST DUP2 DUP2 LT PUSH2 0x690E JUMPI POP SWAP2 PUSH1 0x2 SWAP4 SWAP2 DUP6 PUSH1 0x1 SWAP7 SWAP5 LT PUSH2 0x68F4 JUMPI JUMPDEST POP POP POP MUL ADD SWAP1 SSTORE PUSH2 0x68B0 JUMP JUMPDEST PUSH2 0x6904 SWAP2 ADD MLOAD PUSH1 0x1F DUP5 AND SWAP1 PUSH2 0x6835 JUMP JUMPDEST SWAP1 SSTORE PUSH0 DUP1 DUP1 PUSH2 0x68E8 JUMP JUMPDEST SWAP2 SWAP4 PUSH1 0x20 PUSH1 0x1 DUP2 SWAP3 DUP8 DUP8 ADD MLOAD DUP2 SSTORE ADD SWAP6 ADD SWAP3 ADD PUSH2 0x68D0 JUMP JUMPDEST PUSH2 0x68A JUMP JUMPDEST SWAP1 PUSH2 0x6935 SWAP2 PUSH2 0x685C JUMP JUMPDEST JUMP JUMPDEST PUSH1 0x4 PUSH2 0x6959 SWAP3 PUSH2 0x6952 PUSH2 0x6948 PUSH2 0x4FA0 JUMP JUMPDEST SWAP4 PUSH1 0x3 DUP6 ADD PUSH2 0x692B JUMP JUMPDEST SWAP2 ADD PUSH2 0x692B JUMP JUMPDEST JUMP JUMPDEST SWAP1 PUSH2 0x6965 SWAP2 PUSH2 0x6723 JUMP JUMPDEST JUMP JUMPDEST PUSH2 0x696F PUSH2 0x6640 JUMP JUMPDEST PUSH2 0x6977 PUSH2 0x6979 JUMP JUMPDEST JUMP JUMPDEST PUSH2 0x6994 PUSH2 0x6984 PUSH2 0x6208 JUMP JUMPDEST PUSH0 PUSH2 0x698D PUSH2 0x485B JUMP JUMPDEST SWAP2 ADD PUSH2 0x1BA9 JUMP JUMPDEST JUMP JUMPDEST PUSH2 0x699E PUSH2 0x6967 JUMP JUMPDEST JUMP JUMPDEST PUSH2 0x69A8 PUSH2 0x6640 JUMP JUMPDEST PUSH2 0x69B0 PUSH2 0x69B2 JUMP JUMPDEST JUMP JUMPDEST PUSH2 0x69C6 PUSH2 0x69BD PUSH2 0x55EA JUMP JUMPDEST PUSH0 DUP1 SWAP2 ADD PUSH2 0x525F JUMP JUMPDEST JUMP JUMPDEST PUSH2 0x69D0 PUSH2 0x69A0 JUMP JUMPDEST JUMP JUMPDEST SWAP1 JUMP JUMPDEST DUP1 EXTCODESIZE PUSH2 0x69E9 PUSH2 0x69E3 PUSH0 PUSH2 0x1019 JUMP JUMPDEST SWAP2 PUSH2 0x243 JUMP JUMPDEST EQ PUSH2 0x6A0B JUMPI PUSH2 0x6A09 SWAP1 PUSH0 PUSH2 0x6A03 PUSH2 0x69FE PUSH2 0x3176 JUMP JUMPDEST PUSH2 0x69D2 JUMP JUMPDEST ADD PUSH2 0x3DC7 JUMP JUMPDEST JUMP JUMPDEST PUSH2 0x6A46 SWAP1 PUSH2 0x6A17 PUSH2 0x231 JUMP JUMPDEST SWAP2 DUP3 SWAP2 PUSH32 0x4C9C8CE300000000000000000000000000000000000000000000000000000000 DUP4 MSTORE PUSH1 0x4 DUP4 ADD PUSH2 0x985 JUMP JUMPDEST SUB SWAP1 REVERT JUMPDEST CALLVALUE PUSH2 0x6A5D PUSH2 0x6A57 PUSH0 PUSH2 0x1019 JUMP JUMPDEST SWAP2 PUSH2 0x243 JUMP JUMPDEST GT PUSH2 0x6A64 JUMPI JUMP JUMPDEST PUSH2 0x6A6C PUSH2 0x231 JUMP JUMPDEST PUSH32 0xB398979F00000000000000000000000000000000000000000000000000000000 DUP2 MSTORE DUP1 PUSH2 0x6A9C PUSH1 0x4 DUP3 ADD PUSH2 0x2DE JUMP JUMPDEST SUB SWAP1 REVERT JUMPDEST PUSH1 0x60 SWAP1 JUMP JUMPDEST SWAP1 PUSH2 0x6AB7 PUSH2 0x6AB2 DUP4 PUSH2 0x6F5 JUMP JUMPDEST PUSH2 0x6E0 JUMP JUMPDEST SWAP2 DUP3 MSTORE JUMP JUMPDEST RETURNDATASIZE PUSH0 EQ PUSH2 0x6AD7 JUMPI PUSH2 0x6ACC RETURNDATASIZE PUSH2 0x6AA5 JUMP JUMPDEST SWAP1 RETURNDATASIZE PUSH0 PUSH1 0x20 DUP5 ADD RETURNDATACOPY JUMPDEST JUMP JUMPDEST PUSH2 0x6ADF PUSH2 0x6AA0 JUMP JUMPDEST SWAP1 PUSH2 0x6AD5 JUMP JUMPDEST PUSH0 DUP1 PUSH2 0x6B11 SWAP4 PUSH2 0x6AF3 PUSH2 0x6AA0 JUMP JUMPDEST POP DUP4 SWAP1 PUSH1 0x20 DUP2 ADD SWAP1 MLOAD SWAP2 GAS DELEGATECALL SWAP1 PUSH2 0x6B08 PUSH2 0x6ABC JUMP JUMPDEST SWAP1 SWAP2 SWAP1 SWAP2 PUSH2 0x6B32 JUMP JUMPDEST SWAP1 JUMP JUMPDEST PUSH2 0x6B1C PUSH2 0x2941 JUMP JUMPDEST POP PUSH2 0x6B2F PUSH0 PUSH2 0x6B29 PUSH2 0x5A6C JUMP JUMPDEST ADD PUSH2 0x3B9C JUMP JUMPDEST SWAP1 JUMP JUMPDEST SWAP1 PUSH2 0x6B46 SWAP1 PUSH2 0x6B3F PUSH2 0x6AA0 JUMP JUMPDEST POP ISZERO PUSH2 0x3F3 JUMP JUMPDEST PUSH0 EQ PUSH2 0x6B52 JUMPI POP PUSH2 0x6BD6 JUMP JUMPDEST PUSH2 0x6B5B DUP3 PUSH2 0x65B3 JUMP JUMPDEST PUSH2 0x6B6D PUSH2 0x6B67 PUSH0 PUSH2 0x1019 JUMP JUMPDEST SWAP2 PUSH2 0x243 JUMP JUMPDEST EQ DUP1 PUSH2 0x6BBB JUMPI JUMPDEST PUSH2 0x6B7C JUMPI POP SWAP1 JUMP JUMPDEST PUSH2 0x6BB7 SWAP1 PUSH2 0x6B88 PUSH2 0x231 JUMP JUMPDEST SWAP2 DUP3 SWAP2 PUSH32 0x9996B31500000000000000000000000000000000000000000000000000000000 DUP4 MSTORE PUSH1 0x4 DUP4 ADD PUSH2 0x985 JUMP JUMPDEST SUB SWAP1 REVERT JUMPDEST POP DUP1 EXTCODESIZE PUSH2 0x6BD0 PUSH2 0x6BCA PUSH0 PUSH2 0x1019 JUMP JUMPDEST SWAP2 PUSH2 0x243 JUMP JUMPDEST EQ PUSH2 0x6B74 JUMP JUMPDEST PUSH2 0x6BDF DUP2 PUSH2 0x65B3 JUMP JUMPDEST PUSH2 0x6BF1 PUSH2 0x6BEB PUSH0 PUSH2 0x1019 JUMP JUMPDEST SWAP2 PUSH2 0x243 JUMP JUMPDEST GT PUSH0 EQ PUSH2 0x6C00 JUMPI DUP1 MLOAD SWAP1 PUSH1 0x20 ADD REVERT JUMPDEST PUSH2 0x6C08 PUSH2 0x231 JUMP JUMPDEST PUSH32 0x1425EA4200000000000000000000000000000000000000000000000000000000 DUP2 MSTORE DUP1 PUSH2 0x6C38 PUSH1 0x4 DUP3 ADD PUSH2 0x2DE JUMP JUMPDEST SUB SWAP1 REVERT INVALID LOG2 PUSH5 0x6970667358 0x22 SLT KECCAK256 SELFBALANCE PUSH12 0xD292C84F9B07C6D81D4B96A2 DUP15 POP DUP7 SDIV PUSH14 0xF8EA15CCFB438BC561CAB769A464 PUSH20 0x6F6C634300081900330000000000000000000000 "},"gasEstimates":{"creation":{"codeDepositCost":"5552400","executionCost":"infinite","totalCost":"infinite"},"external":{"UPGRADE_INTERFACE_VERSION()":"infinite","accumulatedAssetB()":"3302","allTimeInterest()":"2906","allowance(address,address)":"infinite","approve(address,uint256)":"infinite","balanceOf(address)":"infinite","baseAsset()":"3231","buy()":"infinite","decimals()":"infinite","deposit(uint256,address)":"infinite","initialize(string,string,address,address,address,address)":"infinite","interestEarned()":"infinite","lastDeposit()":"2774","name()":"infinite","owner()":"3148","pause()":"infinite","paused()":"2942","proxiableUUID()":"infinite","quoteAsset()":"3362","registry()":"infinite","reinitialize(string,string,address,address,address,address,uint64)":"infinite","renounceOwnership()":"infinite","symbol()":"infinite","totalSupply()":"2733","totalValuation()":"infinite","transfer(address,uint256)":"infinite","transferFrom(address,address,uint256)":"infinite","transferOwnership(address)":"infinite","unitPrice()":"infinite","unpause()":"infinite","upgradeToAndCall(address,bytes)":"infinite","withdraw(uint256,address)":"infinite","yearnVault()":"infinite"},"internal":{"_authorizeUpgrade(address)":"infinite","_buy()":"infinite","_haircut(uint256)":"infinite","_handleWithdrawB(uint256,address)":"infinite","_processInterest()":"infinite"}},"methodIdentifiers":{"UPGRADE_INTERFACE_VERSION()":"ad3cb1cc","accumulatedAssetB()":"f7fde10f","allTimeInterest()":"6560bc80","allowance(address,address)":"dd62ed3e","approve(address,uint256)":"095ea7b3","balanceOf(address)":"70a08231","baseAsset()":"cdf456e1","buy()":"a6f2ae3a","decimals()":"313ce567","deposit(uint256,address)":"6e553f65","initialize(string,string,address,address,address,address)":"e56f2fe4","interestEarned()":"374261ab","lastDeposit()":"36b77107","name()":"06fdde03","owner()":"8da5cb5b","pause()":"8456cb59","paused()":"5c975abb","proxiableUUID()":"52d1902d","quoteAsset()":"fdf262b7","registry()":"7b103999","reinitialize(string,string,address,address,address,address,uint64)":"88696f62","renounceOwnership()":"715018a6","symbol()":"95d89b41","totalSupply()":"18160ddd","totalValuation()":"295b9300","transfer(address,uint256)":"a9059cbb","transferFrom(address,address,uint256)":"23b872dd","transferOwnership(address)":"f2fde38b","unitPrice()":"e73faa2d","unpause()":"3f4ba83a","upgradeToAndCall(address,bytes)":"4f1ef286","withdraw(uint256,address)":"00f714ce","yearnVault()":"9db5df46"}},"storageLayout":{"storage":[{"astId":2985,"contract":"contracts/vaults/BaluniV1YearnVault.sol:BaluniV1YearnVault","label":"baseAsset","offset":0,"slot":"0","type":"t_address"},{"astId":2988,"contract":"contracts/vaults/BaluniV1YearnVault.sol:BaluniV1YearnVault","label":"_yearnVault","offset":0,"slot":"1","type":"t_contract(IYearnVault)2956"},{"astId":2990,"contract":"contracts/vaults/BaluniV1YearnVault.sol:BaluniV1YearnVault","label":"quoteAsset","offset":0,"slot":"2","type":"t_address"},{"astId":2993,"contract":"contracts/vaults/BaluniV1YearnVault.sol:BaluniV1YearnVault","label":"_registry","offset":0,"slot":"3","type":"t_contract(IBaluniV1Registry)2784"},{"astId":2995,"contract":"contracts/vaults/BaluniV1YearnVault.sol:BaluniV1YearnVault","label":"accumulatedAssetB","offset":0,"slot":"4","type":"t_uint256"},{"astId":2997,"contract":"contracts/vaults/BaluniV1YearnVault.sol:BaluniV1YearnVault","label":"lastDeposit","offset":0,"slot":"5","type":"t_uint256"},{"astId":2999,"contract":"contracts/vaults/BaluniV1YearnVault.sol:BaluniV1YearnVault","label":"allTimeInterest","offset":0,"slot":"6","type":"t_uint256"}],"types":{"t_address":{"encoding":"inplace","label":"address","numberOfBytes":"20"},"t_contract(IBaluniV1Registry)2784":{"encoding":"inplace","label":"contract IBaluniV1Registry","numberOfBytes":"20"},"t_contract(IYearnVault)2956":{"encoding":"inplace","label":"contract IYearnVault","numberOfBytes":"20"},"t_uint256":{"encoding":"inplace","label":"uint256","numberOfBytes":"32"}}},"userdoc":{"kind":"user","methods":{},"version":1}}}}