{"contracts/core/BaluniStake.sol":{"BaluniStake":{"abi":[{"inputs":[{"internalType":"address","name":"_stakingToken","type":"address"},{"internalType":"address","name":"_rewardToken","type":"address"}],"stateMutability":"nonpayable","type":"constructor"},{"inputs":[],"name":"ReentrancyGuardReentrantCall","type":"error"},{"anonymous":false,"inputs":[{"indexed":true,"internalType":"address","name":"user","type":"address"},{"indexed":false,"internalType":"uint256","name":"amount","type":"uint256"}],"name":"RewardClaimed","type":"event"},{"anonymous":false,"inputs":[{"indexed":true,"internalType":"address","name":"user","type":"address"},{"indexed":false,"internalType":"uint256","name":"amount","type":"uint256"}],"name":"Staked","type":"event"},{"anonymous":false,"inputs":[{"indexed":true,"internalType":"address","name":"user","type":"address"},{"indexed":false,"internalType":"uint256","name":"amount","type":"uint256"}],"name":"Unstaked","type":"event"},{"inputs":[{"internalType":"address","name":"","type":"address"}],"name":"balanceStakedOf","outputs":[{"internalType":"uint256","name":"","type":"uint256"}],"stateMutability":"view","type":"function"},{"inputs":[{"internalType":"address","name":"account","type":"address"}],"name":"calculateRewardsEarned","outputs":[{"internalType":"uint256","name":"","type":"uint256"}],"stateMutability":"view","type":"function"},{"inputs":[],"name":"claim","outputs":[{"internalType":"uint256","name":"","type":"uint256"}],"stateMutability":"nonpayable","type":"function"},{"inputs":[{"internalType":"address","name":"staker","type":"address"},{"internalType":"address","name":"_to","type":"address"}],"name":"claimTo","outputs":[{"internalType":"uint256","name":"","type":"uint256"}],"stateMutability":"nonpayable","type":"function"},{"inputs":[],"name":"rewardToken","outputs":[{"internalType":"contract IERC20","name":"","type":"address"}],"stateMutability":"view","type":"function"},{"inputs":[{"internalType":"uint256","name":"amount","type":"uint256"}],"name":"stake","outputs":[],"stateMutability":"nonpayable","type":"function"},{"inputs":[{"internalType":"address","name":"","type":"address"}],"name":"stakeTimestamp","outputs":[{"internalType":"uint256","name":"","type":"uint256"}],"stateMutability":"view","type":"function"},{"inputs":[],"name":"stakingSupply","outputs":[{"internalType":"uint256","name":"","type":"uint256"}],"stateMutability":"view","type":"function"},{"inputs":[],"name":"stakingToken","outputs":[{"internalType":"contract IERC20","name":"","type":"address"}],"stateMutability":"view","type":"function"},{"inputs":[{"internalType":"uint256","name":"amount","type":"uint256"}],"name":"unstake","outputs":[],"stateMutability":"nonpayable","type":"function"},{"inputs":[{"internalType":"uint256","name":"reward","type":"uint256"}],"name":"updateRewardIndexPublic","outputs":[],"stateMutability":"nonpayable","type":"function"}],"devdoc":{"errors":{"ReentrancyGuardReentrantCall()":[{"details":"Unauthorized reentrant call."}]},"kind":"dev","methods":{},"version":1},"evm":{"bytecode":{"linkReferences":{},"object":"60c03461010a57601f610bb438819003918201601f19168301916001600160401b0383118484101761010f57808492604094855283398101031261010a57610052602061004b83610125565b9201610125565b60016000556001600160a01b03918216801515806100ff575b156100ba576080521660a052604051610a7a908161013a82396080518181816103980152818161048a01526107c7015260a05181818160ba015281816101950152818161056a015261069e0152f35b60405162461bcd60e51b815260206004820152601560248201527f496e76616c696420746f6b656e206164647265737300000000000000000000006044820152606490fd5b50828216151561006b565b600080fd5b634e487b7160e01b600052604160045260246000fd5b51906001600160a01b038216820361010a5756fe6040608081526004908136101561001557600080fd5b600091823560e01c9081632e17de781461072857816334a1ca89146105f55781634e71d92d146104e557816370259077146104ae57816372f702f31461046a5781638b0867641461041f578163a694fc3a146102fc578163ab86c69e1461013657508063bf9c89bb14610100578063f377e7cf146100e25763f7c618c11461009c57600080fd5b346100de57816003193601126100de57602090516001600160a01b037f0000000000000000000000000000000000000000000000000000000000000000168152f35b5080fd5b50346100de57816003193601126100de576020906003549051908152f35b50346100de5760203660031901126100de57806020926001600160a01b03610126610868565b1681526001845220549051908152f35b919050346102f8576020806003193601126102f45782359182156102b357600354156102625780516323b872dd60e01b815233858201908152306020820152604081018590529091908390839081906060010381896001600160a01b037f0000000000000000000000000000000000000000000000000000000000000000165af1908115610259575061022b575b505060035490811580156101d6578480f35b670de0b6b3a7640000808302928304036102185761020557906101fb91048254610942565b9055388080808480f35b634e487b7160e01b845260128352602484fd5b634e487b7160e01b855260118452602485fd5b8161024a92903d10610252575b61024281836108a6565b8101906108de565b5038806101c4565b503d610238565b513d87823e3d90fd5b5162461bcd60e51b81529283015250602760248201527f4e6f207374616b696e6720737570706c7920746f2064697374726962757465206044820152667265776172647360c81b6064820152608490fd5b5162461bcd60e51b81529283015250601760248201527f526577617264206d75737420626520706f7369746976650000000000000000006044820152606490fd5b8380fd5b8280fd5b9050346102f8576020806003193601126102f45761038b92818335809461032161094f565b61032a33610972565b3388526001835283882061033f838254610942565b905561034d82600354610942565b600355338089526002845284892042905584516323b872dd60e01b815291820190815230602082015260408101929092529586918291606090910190565b0381886001600160a01b037f0000000000000000000000000000000000000000000000000000000000000000165af1938415610415577f9e71bc8eea02a63969f509818f2dafb9254532904319f9dbda79b67bd34a5f3d93946103f8575b50519283523392a26001815580f35b61040e90833d85116102525761024281836108a6565b50386103e9565b81513d87823e3d90fd5b5050346100de5760203660031901126100de5761046360209261045d83610444610868565b926001600160a01b0384168152600687522054916109c8565b90610942565b9051908152f35b5050346100de57816003193601126100de57602090516001600160a01b037f0000000000000000000000000000000000000000000000000000000000000000168152f35b5050346100de5760203660031901126100de57806020926001600160a01b036104d5610868565b1681526002845220549051908152f35b919050346102f857826003193601126102f85761050061094f565b61050933610972565b3383526020926006845261055d848383205480956105288215156108f6565b3380865260068452868620869055865163a9059cbb60e01b815291820190815260208101929092529283918291604090910190565b0381856001600160a01b037f0000000000000000000000000000000000000000000000000000000000000000165af180156105eb5790600192916105ce575b5082518481527f106f923f993c2149d49b4255ff723acafa1f2d94393f561d3eda32ae348f7241863392a25551908152f35b6105e490863d88116102525761024281836108a6565b503861059c565b83513d84823e3d90fd5b919050346102f857806003193601126102f857610610610868565b6001600160a01b039390602435858116918282036102f457908661069a9261063661094f565b61063f81610972565b168085526020978892600684528688812054998a9461065f8615156108f6565b825260068652818a81205589519687958694859363a9059cbb60e01b85528401602090939291936001600160a01b0360408201951681520152565b03927f0000000000000000000000000000000000000000000000000000000000000000165af1801561071e57906001939291610701575b507f106f923f993c2149d49b4255ff723acafa1f2d94393f561d3eda32ae348f7241868551878152a25551908152f35b61071790873d89116102525761024281836108a6565b50386106d1565b84513d85823e3d90fd5b919050346102f857602090816003193601126102f45782359261074961094f565b61075233610972565b3385526001835281852054848110610826579284819392610777826107ba9897610883565b338952600184528489205561078e82600354610883565b600355835163a9059cbb60e01b8152339181019182526020820192909252909586918291604090910190565b0381886001600160a01b037f0000000000000000000000000000000000000000000000000000000000000000165af1938415610415577f0f5bb82176feb1b5e747e28471aa92156a04d9f3ab9f45f28e2d704232b93f7593946103f85750519283523392a26001815580f35b5082606492519162461bcd60e51b8352820152601f60248201527f496e73756666696369656e742062616c616e636520746f20756e7374616b65006044820152fd5b600435906001600160a01b038216820361087e57565b600080fd5b9190820391821161089057565b634e487b7160e01b600052601160045260246000fd5b90601f8019910116810190811067ffffffffffffffff8211176108c857604052565b634e487b7160e01b600052604160045260246000fd5b9081602091031261087e5751801515810361087e5790565b156108fd57565b60405162461bcd60e51b815260206004820152601360248201527f4e6f207265776172647320746f20636c61696d000000000000000000000000006044820152606490fd5b9190820180921161089057565b600260005414610960576002600055565b604051633ee5aeb560e01b8152600490fd5b6001600160a01b03610983826109c8565b91169081600052600660205261099f6040600020918254610942565b9055600454906000526005602052604060002055565b8181029291811591840414171561089057565b6001600160a01b0316670de0b6b3a7640000610a3960008381526002602052610a346109f8604083205442610883565b6301e13380959086811115610a3e575085905b83526001602052610a2e6040842054936040600454916005602052205490610883565b926109b5565b6109b5565b040490565b90610a0b56fea26469706673582212200eb56b0ececfdcc71b314431b0045f0dac3c6ffd3b5e865683dd6b31318d96f164736f6c63430008190033","opcodes":"PUSH1 0xC0 CALLVALUE PUSH2 0x10A JUMPI PUSH1 0x1F PUSH2 0xBB4 CODESIZE DUP2 SWAP1 SUB SWAP2 DUP3 ADD PUSH1 0x1F NOT AND DUP4 ADD SWAP2 PUSH1 0x1 PUSH1 0x1 PUSH1 0x40 SHL SUB DUP4 GT DUP5 DUP5 LT OR PUSH2 0x10F JUMPI DUP1 DUP5 SWAP3 PUSH1 0x40 SWAP5 DUP6 MSTORE DUP4 CODECOPY DUP2 ADD SUB SLT PUSH2 0x10A JUMPI PUSH2 0x52 PUSH1 0x20 PUSH2 0x4B DUP4 PUSH2 0x125 JUMP JUMPDEST SWAP3 ADD PUSH2 0x125 JUMP JUMPDEST PUSH1 0x1 PUSH1 0x0 SSTORE PUSH1 0x1 PUSH1 0x1 PUSH1 0xA0 SHL SUB SWAP2 DUP3 AND DUP1 ISZERO ISZERO DUP1 PUSH2 0xFF JUMPI JUMPDEST ISZERO PUSH2 0xBA JUMPI PUSH1 0x80 MSTORE AND PUSH1 0xA0 MSTORE PUSH1 0x40 MLOAD PUSH2 0xA7A SWAP1 DUP2 PUSH2 0x13A DUP3 CODECOPY PUSH1 0x80 MLOAD DUP2 DUP2 DUP2 PUSH2 0x398 ADD MSTORE DUP2 DUP2 PUSH2 0x48A ADD MSTORE PUSH2 0x7C7 ADD MSTORE PUSH1 0xA0 MLOAD DUP2 DUP2 DUP2 PUSH1 0xBA ADD MSTORE DUP2 DUP2 PUSH2 0x195 ADD MSTORE DUP2 DUP2 PUSH2 0x56A ADD MSTORE PUSH2 0x69E ADD MSTORE RETURN JUMPDEST PUSH1 0x40 MLOAD PUSH3 0x461BCD PUSH1 0xE5 SHL DUP2 MSTORE PUSH1 0x20 PUSH1 0x4 DUP3 ADD MSTORE PUSH1 0x15 PUSH1 0x24 DUP3 ADD MSTORE PUSH32 0x496E76616C696420746F6B656E20616464726573730000000000000000000000 PUSH1 0x44 DUP3 ADD MSTORE PUSH1 0x64 SWAP1 REVERT JUMPDEST POP DUP3 DUP3 AND ISZERO ISZERO PUSH2 0x6B JUMP JUMPDEST PUSH1 0x0 DUP1 REVERT JUMPDEST PUSH4 0x4E487B71 PUSH1 0xE0 SHL PUSH1 0x0 MSTORE PUSH1 0x41 PUSH1 0x4 MSTORE PUSH1 0x24 PUSH1 0x0 REVERT JUMPDEST MLOAD SWAP1 PUSH1 0x1 PUSH1 0x1 PUSH1 0xA0 SHL SUB DUP3 AND DUP3 SUB PUSH2 0x10A JUMPI JUMP INVALID PUSH1 0x40 PUSH1 0x80 DUP2 MSTORE PUSH1 0x4 SWAP1 DUP2 CALLDATASIZE LT ISZERO PUSH2 0x15 JUMPI PUSH1 0x0 DUP1 REVERT JUMPDEST PUSH1 0x0 SWAP2 DUP3 CALLDATALOAD PUSH1 0xE0 SHR SWAP1 DUP2 PUSH4 0x2E17DE78 EQ PUSH2 0x728 JUMPI DUP2 PUSH4 0x34A1CA89 EQ PUSH2 0x5F5 JUMPI DUP2 PUSH4 0x4E71D92D EQ PUSH2 0x4E5 JUMPI DUP2 PUSH4 0x70259077 EQ PUSH2 0x4AE JUMPI DUP2 PUSH4 0x72F702F3 EQ PUSH2 0x46A JUMPI DUP2 PUSH4 0x8B086764 EQ PUSH2 0x41F JUMPI DUP2 PUSH4 0xA694FC3A EQ PUSH2 0x2FC JUMPI DUP2 PUSH4 0xAB86C69E EQ PUSH2 0x136 JUMPI POP DUP1 PUSH4 0xBF9C89BB EQ PUSH2 0x100 JUMPI DUP1 PUSH4 0xF377E7CF EQ PUSH2 0xE2 JUMPI PUSH4 0xF7C618C1 EQ PUSH2 0x9C JUMPI PUSH1 0x0 DUP1 REVERT JUMPDEST CALLVALUE PUSH2 0xDE JUMPI DUP2 PUSH1 0x3 NOT CALLDATASIZE ADD SLT PUSH2 0xDE JUMPI PUSH1 0x20 SWAP1 MLOAD PUSH1 0x1 PUSH1 0x1 PUSH1 0xA0 SHL SUB PUSH32 0x0 AND DUP2 MSTORE RETURN JUMPDEST POP DUP1 REVERT JUMPDEST POP CALLVALUE PUSH2 0xDE JUMPI DUP2 PUSH1 0x3 NOT CALLDATASIZE ADD SLT PUSH2 0xDE JUMPI PUSH1 0x20 SWAP1 PUSH1 0x3 SLOAD SWAP1 MLOAD SWAP1 DUP2 MSTORE RETURN JUMPDEST POP CALLVALUE PUSH2 0xDE JUMPI PUSH1 0x20 CALLDATASIZE PUSH1 0x3 NOT ADD SLT PUSH2 0xDE JUMPI DUP1 PUSH1 0x20 SWAP3 PUSH1 0x1 PUSH1 0x1 PUSH1 0xA0 SHL SUB PUSH2 0x126 PUSH2 0x868 JUMP JUMPDEST AND DUP2 MSTORE PUSH1 0x1 DUP5 MSTORE KECCAK256 SLOAD SWAP1 MLOAD SWAP1 DUP2 MSTORE RETURN JUMPDEST SWAP2 SWAP1 POP CALLVALUE PUSH2 0x2F8 JUMPI PUSH1 0x20 DUP1 PUSH1 0x3 NOT CALLDATASIZE ADD SLT PUSH2 0x2F4 JUMPI DUP3 CALLDATALOAD SWAP2 DUP3 ISZERO PUSH2 0x2B3 JUMPI PUSH1 0x3 SLOAD ISZERO PUSH2 0x262 JUMPI DUP1 MLOAD PUSH4 0x23B872DD PUSH1 0xE0 SHL DUP2 MSTORE CALLER DUP6 DUP3 ADD SWAP1 DUP2 MSTORE ADDRESS PUSH1 0x20 DUP3 ADD MSTORE PUSH1 0x40 DUP2 ADD DUP6 SWAP1 MSTORE SWAP1 SWAP2 SWAP1 DUP4 SWAP1 DUP4 SWAP1 DUP2 SWAP1 PUSH1 0x60 ADD SUB DUP2 DUP10 PUSH1 0x1 PUSH1 0x1 PUSH1 0xA0 SHL SUB PUSH32 0x0 AND GAS CALL SWAP1 DUP2 ISZERO PUSH2 0x259 JUMPI POP PUSH2 0x22B JUMPI JUMPDEST POP POP PUSH1 0x3 SLOAD SWAP1 DUP2 ISZERO DUP1 ISZERO PUSH2 0x1D6 JUMPI DUP5 DUP1 RETURN JUMPDEST PUSH8 0xDE0B6B3A7640000 DUP1 DUP4 MUL SWAP3 DUP4 DIV SUB PUSH2 0x218 JUMPI PUSH2 0x205 JUMPI SWAP1 PUSH2 0x1FB SWAP2 DIV DUP3 SLOAD PUSH2 0x942 JUMP JUMPDEST SWAP1 SSTORE CODESIZE DUP1 DUP1 DUP1 DUP5 DUP1 RETURN JUMPDEST PUSH4 0x4E487B71 PUSH1 0xE0 SHL DUP5 MSTORE PUSH1 0x12 DUP4 MSTORE PUSH1 0x24 DUP5 REVERT JUMPDEST PUSH4 0x4E487B71 PUSH1 0xE0 SHL DUP6 MSTORE PUSH1 0x11 DUP5 MSTORE PUSH1 0x24 DUP6 REVERT JUMPDEST DUP2 PUSH2 0x24A SWAP3 SWAP1 RETURNDATASIZE LT PUSH2 0x252 JUMPI JUMPDEST PUSH2 0x242 DUP2 DUP4 PUSH2 0x8A6 JUMP JUMPDEST DUP2 ADD SWAP1 PUSH2 0x8DE JUMP JUMPDEST POP CODESIZE DUP1 PUSH2 0x1C4 JUMP JUMPDEST POP RETURNDATASIZE PUSH2 0x238 JUMP JUMPDEST MLOAD RETURNDATASIZE DUP8 DUP3 RETURNDATACOPY RETURNDATASIZE SWAP1 REVERT JUMPDEST MLOAD PUSH3 0x461BCD PUSH1 0xE5 SHL DUP2 MSTORE SWAP3 DUP4 ADD MSTORE POP PUSH1 0x27 PUSH1 0x24 DUP3 ADD MSTORE PUSH32 0x4E6F207374616B696E6720737570706C7920746F206469737472696275746520 PUSH1 0x44 DUP3 ADD MSTORE PUSH7 0x72657761726473 PUSH1 0xC8 SHL PUSH1 0x64 DUP3 ADD MSTORE PUSH1 0x84 SWAP1 REVERT JUMPDEST MLOAD PUSH3 0x461BCD PUSH1 0xE5 SHL DUP2 MSTORE SWAP3 DUP4 ADD MSTORE POP PUSH1 0x17 PUSH1 0x24 DUP3 ADD MSTORE PUSH32 0x526577617264206D75737420626520706F736974697665000000000000000000 PUSH1 0x44 DUP3 ADD MSTORE PUSH1 0x64 SWAP1 REVERT JUMPDEST DUP4 DUP1 REVERT JUMPDEST DUP3 DUP1 REVERT JUMPDEST SWAP1 POP CALLVALUE PUSH2 0x2F8 JUMPI PUSH1 0x20 DUP1 PUSH1 0x3 NOT CALLDATASIZE ADD SLT PUSH2 0x2F4 JUMPI PUSH2 0x38B SWAP3 DUP2 DUP4 CALLDATALOAD DUP1 SWAP5 PUSH2 0x321 PUSH2 0x94F JUMP JUMPDEST PUSH2 0x32A CALLER PUSH2 0x972 JUMP JUMPDEST CALLER DUP9 MSTORE PUSH1 0x1 DUP4 MSTORE DUP4 DUP9 KECCAK256 PUSH2 0x33F DUP4 DUP3 SLOAD PUSH2 0x942 JUMP JUMPDEST SWAP1 SSTORE PUSH2 0x34D DUP3 PUSH1 0x3 SLOAD PUSH2 0x942 JUMP JUMPDEST PUSH1 0x3 SSTORE CALLER DUP1 DUP10 MSTORE PUSH1 0x2 DUP5 MSTORE DUP5 DUP10 KECCAK256 TIMESTAMP SWAP1 SSTORE DUP5 MLOAD PUSH4 0x23B872DD PUSH1 0xE0 SHL DUP2 MSTORE SWAP2 DUP3 ADD SWAP1 DUP2 MSTORE ADDRESS PUSH1 0x20 DUP3 ADD MSTORE PUSH1 0x40 DUP2 ADD SWAP3 SWAP1 SWAP3 MSTORE SWAP6 DUP7 SWAP2 DUP3 SWAP2 PUSH1 0x60 SWAP1 SWAP2 ADD SWAP1 JUMP JUMPDEST SUB DUP2 DUP9 PUSH1 0x1 PUSH1 0x1 PUSH1 0xA0 SHL SUB PUSH32 0x0 AND GAS CALL SWAP4 DUP5 ISZERO PUSH2 0x415 JUMPI PUSH32 0x9E71BC8EEA02A63969F509818F2DAFB9254532904319F9DBDA79B67BD34A5F3D SWAP4 SWAP5 PUSH2 0x3F8 JUMPI JUMPDEST POP MLOAD SWAP3 DUP4 MSTORE CALLER SWAP3 LOG2 PUSH1 0x1 DUP2 SSTORE DUP1 RETURN JUMPDEST PUSH2 0x40E SWAP1 DUP4 RETURNDATASIZE DUP6 GT PUSH2 0x252 JUMPI PUSH2 0x242 DUP2 DUP4 PUSH2 0x8A6 JUMP JUMPDEST POP CODESIZE PUSH2 0x3E9 JUMP JUMPDEST DUP2 MLOAD RETURNDATASIZE DUP8 DUP3 RETURNDATACOPY RETURNDATASIZE SWAP1 REVERT JUMPDEST POP POP CALLVALUE PUSH2 0xDE JUMPI PUSH1 0x20 CALLDATASIZE PUSH1 0x3 NOT ADD SLT PUSH2 0xDE JUMPI PUSH2 0x463 PUSH1 0x20 SWAP3 PUSH2 0x45D DUP4 PUSH2 0x444 PUSH2 0x868 JUMP JUMPDEST SWAP3 PUSH1 0x1 PUSH1 0x1 PUSH1 0xA0 SHL SUB DUP5 AND DUP2 MSTORE PUSH1 0x6 DUP8 MSTORE KECCAK256 SLOAD SWAP2 PUSH2 0x9C8 JUMP JUMPDEST SWAP1 PUSH2 0x942 JUMP JUMPDEST SWAP1 MLOAD SWAP1 DUP2 MSTORE RETURN JUMPDEST POP POP CALLVALUE PUSH2 0xDE JUMPI DUP2 PUSH1 0x3 NOT CALLDATASIZE ADD SLT PUSH2 0xDE JUMPI PUSH1 0x20 SWAP1 MLOAD PUSH1 0x1 PUSH1 0x1 PUSH1 0xA0 SHL SUB PUSH32 0x0 AND DUP2 MSTORE RETURN JUMPDEST POP POP CALLVALUE PUSH2 0xDE JUMPI PUSH1 0x20 CALLDATASIZE PUSH1 0x3 NOT ADD SLT PUSH2 0xDE JUMPI DUP1 PUSH1 0x20 SWAP3 PUSH1 0x1 PUSH1 0x1 PUSH1 0xA0 SHL SUB PUSH2 0x4D5 PUSH2 0x868 JUMP JUMPDEST AND DUP2 MSTORE PUSH1 0x2 DUP5 MSTORE KECCAK256 SLOAD SWAP1 MLOAD SWAP1 DUP2 MSTORE RETURN JUMPDEST SWAP2 SWAP1 POP CALLVALUE PUSH2 0x2F8 JUMPI DUP3 PUSH1 0x3 NOT CALLDATASIZE ADD SLT PUSH2 0x2F8 JUMPI PUSH2 0x500 PUSH2 0x94F JUMP JUMPDEST PUSH2 0x509 CALLER PUSH2 0x972 JUMP JUMPDEST CALLER DUP4 MSTORE PUSH1 0x20 SWAP3 PUSH1 0x6 DUP5 MSTORE PUSH2 0x55D DUP5 DUP4 DUP4 KECCAK256 SLOAD DUP1 SWAP6 PUSH2 0x528 DUP3 ISZERO ISZERO PUSH2 0x8F6 JUMP JUMPDEST CALLER DUP1 DUP7 MSTORE PUSH1 0x6 DUP5 MSTORE DUP7 DUP7 KECCAK256 DUP7 SWAP1 SSTORE DUP7 MLOAD PUSH4 0xA9059CBB PUSH1 0xE0 SHL DUP2 MSTORE SWAP2 DUP3 ADD SWAP1 DUP2 MSTORE PUSH1 0x20 DUP2 ADD SWAP3 SWAP1 SWAP3 MSTORE SWAP3 DUP4 SWAP2 DUP3 SWAP2 PUSH1 0x40 SWAP1 SWAP2 ADD SWAP1 JUMP JUMPDEST SUB DUP2 DUP6 PUSH1 0x1 PUSH1 0x1 PUSH1 0xA0 SHL SUB PUSH32 0x0 AND GAS CALL DUP1 ISZERO PUSH2 0x5EB JUMPI SWAP1 PUSH1 0x1 SWAP3 SWAP2 PUSH2 0x5CE JUMPI JUMPDEST POP DUP3 MLOAD DUP5 DUP2 MSTORE PUSH32 0x106F923F993C2149D49B4255FF723ACAFA1F2D94393F561D3EDA32AE348F7241 DUP7 CALLER SWAP3 LOG2 SSTORE MLOAD SWAP1 DUP2 MSTORE RETURN JUMPDEST PUSH2 0x5E4 SWAP1 DUP7 RETURNDATASIZE DUP9 GT PUSH2 0x252 JUMPI PUSH2 0x242 DUP2 DUP4 PUSH2 0x8A6 JUMP JUMPDEST POP CODESIZE PUSH2 0x59C JUMP JUMPDEST DUP4 MLOAD RETURNDATASIZE DUP5 DUP3 RETURNDATACOPY RETURNDATASIZE SWAP1 REVERT JUMPDEST SWAP2 SWAP1 POP CALLVALUE PUSH2 0x2F8 JUMPI DUP1 PUSH1 0x3 NOT CALLDATASIZE ADD SLT PUSH2 0x2F8 JUMPI PUSH2 0x610 PUSH2 0x868 JUMP JUMPDEST PUSH1 0x1 PUSH1 0x1 PUSH1 0xA0 SHL SUB SWAP4 SWAP1 PUSH1 0x24 CALLDATALOAD DUP6 DUP2 AND SWAP2 DUP3 DUP3 SUB PUSH2 0x2F4 JUMPI SWAP1 DUP7 PUSH2 0x69A SWAP3 PUSH2 0x636 PUSH2 0x94F JUMP JUMPDEST PUSH2 0x63F DUP2 PUSH2 0x972 JUMP JUMPDEST AND DUP1 DUP6 MSTORE PUSH1 0x20 SWAP8 DUP9 SWAP3 PUSH1 0x6 DUP5 MSTORE DUP7 DUP9 DUP2 KECCAK256 SLOAD SWAP10 DUP11 SWAP5 PUSH2 0x65F DUP7 ISZERO ISZERO PUSH2 0x8F6 JUMP JUMPDEST DUP3 MSTORE PUSH1 0x6 DUP7 MSTORE DUP2 DUP11 DUP2 KECCAK256 SSTORE DUP10 MLOAD SWAP7 DUP8 SWAP6 DUP7 SWAP5 DUP6 SWAP4 PUSH4 0xA9059CBB PUSH1 0xE0 SHL DUP6 MSTORE DUP5 ADD PUSH1 0x20 SWAP1 SWAP4 SWAP3 SWAP2 SWAP4 PUSH1 0x1 PUSH1 0x1 PUSH1 0xA0 SHL SUB PUSH1 0x40 DUP3 ADD SWAP6 AND DUP2 MSTORE ADD MSTORE JUMP JUMPDEST SUB SWAP3 PUSH32 0x0 AND GAS CALL DUP1 ISZERO PUSH2 0x71E JUMPI SWAP1 PUSH1 0x1 SWAP4 SWAP3 SWAP2 PUSH2 0x701 JUMPI JUMPDEST POP PUSH32 0x106F923F993C2149D49B4255FF723ACAFA1F2D94393F561D3EDA32AE348F7241 DUP7 DUP6 MLOAD DUP8 DUP2 MSTORE LOG2 SSTORE MLOAD SWAP1 DUP2 MSTORE RETURN JUMPDEST PUSH2 0x717 SWAP1 DUP8 RETURNDATASIZE DUP10 GT PUSH2 0x252 JUMPI PUSH2 0x242 DUP2 DUP4 PUSH2 0x8A6 JUMP JUMPDEST POP CODESIZE PUSH2 0x6D1 JUMP JUMPDEST DUP5 MLOAD RETURNDATASIZE DUP6 DUP3 RETURNDATACOPY RETURNDATASIZE SWAP1 REVERT JUMPDEST SWAP2 SWAP1 POP CALLVALUE PUSH2 0x2F8 JUMPI PUSH1 0x20 SWAP1 DUP2 PUSH1 0x3 NOT CALLDATASIZE ADD SLT PUSH2 0x2F4 JUMPI DUP3 CALLDATALOAD SWAP3 PUSH2 0x749 PUSH2 0x94F JUMP JUMPDEST PUSH2 0x752 CALLER PUSH2 0x972 JUMP JUMPDEST CALLER DUP6 MSTORE PUSH1 0x1 DUP4 MSTORE DUP2 DUP6 KECCAK256 SLOAD DUP5 DUP2 LT PUSH2 0x826 JUMPI SWAP3 DUP5 DUP2 SWAP4 SWAP3 PUSH2 0x777 DUP3 PUSH2 0x7BA SWAP9 SWAP8 PUSH2 0x883 JUMP JUMPDEST CALLER DUP10 MSTORE PUSH1 0x1 DUP5 MSTORE DUP5 DUP10 KECCAK256 SSTORE PUSH2 0x78E DUP3 PUSH1 0x3 SLOAD PUSH2 0x883 JUMP JUMPDEST PUSH1 0x3 SSTORE DUP4 MLOAD PUSH4 0xA9059CBB PUSH1 0xE0 SHL DUP2 MSTORE CALLER SWAP2 DUP2 ADD SWAP2 DUP3 MSTORE PUSH1 0x20 DUP3 ADD SWAP3 SWAP1 SWAP3 MSTORE SWAP1 SWAP6 DUP7 SWAP2 DUP3 SWAP2 PUSH1 0x40 SWAP1 SWAP2 ADD SWAP1 JUMP JUMPDEST SUB DUP2 DUP9 PUSH1 0x1 PUSH1 0x1 PUSH1 0xA0 SHL SUB PUSH32 0x0 AND GAS CALL SWAP4 DUP5 ISZERO PUSH2 0x415 JUMPI PUSH32 0xF5BB82176FEB1B5E747E28471AA92156A04D9F3AB9F45F28E2D704232B93F75 SWAP4 SWAP5 PUSH2 0x3F8 JUMPI POP MLOAD SWAP3 DUP4 MSTORE CALLER SWAP3 LOG2 PUSH1 0x1 DUP2 SSTORE DUP1 RETURN JUMPDEST POP DUP3 PUSH1 0x64 SWAP3 MLOAD SWAP2 PUSH3 0x461BCD PUSH1 0xE5 SHL DUP4 MSTORE DUP3 ADD MSTORE PUSH1 0x1F PUSH1 0x24 DUP3 ADD MSTORE PUSH32 0x496E73756666696369656E742062616C616E636520746F20756E7374616B6500 PUSH1 0x44 DUP3 ADD MSTORE REVERT JUMPDEST PUSH1 0x4 CALLDATALOAD SWAP1 PUSH1 0x1 PUSH1 0x1 PUSH1 0xA0 SHL SUB DUP3 AND DUP3 SUB PUSH2 0x87E JUMPI JUMP JUMPDEST PUSH1 0x0 DUP1 REVERT JUMPDEST SWAP2 SWAP1 DUP3 SUB SWAP2 DUP3 GT PUSH2 0x890 JUMPI JUMP JUMPDEST PUSH4 0x4E487B71 PUSH1 0xE0 SHL PUSH1 0x0 MSTORE PUSH1 0x11 PUSH1 0x4 MSTORE PUSH1 0x24 PUSH1 0x0 REVERT JUMPDEST SWAP1 PUSH1 0x1F DUP1 NOT SWAP2 ADD AND DUP2 ADD SWAP1 DUP2 LT PUSH8 0xFFFFFFFFFFFFFFFF DUP3 GT OR PUSH2 0x8C8 JUMPI PUSH1 0x40 MSTORE JUMP JUMPDEST PUSH4 0x4E487B71 PUSH1 0xE0 SHL PUSH1 0x0 MSTORE PUSH1 0x41 PUSH1 0x4 MSTORE PUSH1 0x24 PUSH1 0x0 REVERT JUMPDEST SWAP1 DUP2 PUSH1 0x20 SWAP2 SUB SLT PUSH2 0x87E JUMPI MLOAD DUP1 ISZERO ISZERO DUP2 SUB PUSH2 0x87E JUMPI SWAP1 JUMP JUMPDEST ISZERO PUSH2 0x8FD JUMPI JUMP JUMPDEST PUSH1 0x40 MLOAD PUSH3 0x461BCD PUSH1 0xE5 SHL DUP2 MSTORE PUSH1 0x20 PUSH1 0x4 DUP3 ADD MSTORE PUSH1 0x13 PUSH1 0x24 DUP3 ADD MSTORE PUSH32 0x4E6F207265776172647320746F20636C61696D00000000000000000000000000 PUSH1 0x44 DUP3 ADD MSTORE PUSH1 0x64 SWAP1 REVERT JUMPDEST SWAP2 SWAP1 DUP3 ADD DUP1 SWAP3 GT PUSH2 0x890 JUMPI JUMP JUMPDEST PUSH1 0x2 PUSH1 0x0 SLOAD EQ PUSH2 0x960 JUMPI PUSH1 0x2 PUSH1 0x0 SSTORE JUMP JUMPDEST PUSH1 0x40 MLOAD PUSH4 0x3EE5AEB5 PUSH1 0xE0 SHL DUP2 MSTORE PUSH1 0x4 SWAP1 REVERT JUMPDEST PUSH1 0x1 PUSH1 0x1 PUSH1 0xA0 SHL SUB PUSH2 0x983 DUP3 PUSH2 0x9C8 JUMP JUMPDEST SWAP2 AND SWAP1 DUP2 PUSH1 0x0 MSTORE PUSH1 0x6 PUSH1 0x20 MSTORE PUSH2 0x99F PUSH1 0x40 PUSH1 0x0 KECCAK256 SWAP2 DUP3 SLOAD PUSH2 0x942 JUMP JUMPDEST SWAP1 SSTORE PUSH1 0x4 SLOAD SWAP1 PUSH1 0x0 MSTORE PUSH1 0x5 PUSH1 0x20 MSTORE PUSH1 0x40 PUSH1 0x0 KECCAK256 SSTORE JUMP JUMPDEST DUP2 DUP2 MUL SWAP3 SWAP2 DUP2 ISZERO SWAP2 DUP5 DIV EQ OR ISZERO PUSH2 0x890 JUMPI JUMP JUMPDEST PUSH1 0x1 PUSH1 0x1 PUSH1 0xA0 SHL SUB AND PUSH8 0xDE0B6B3A7640000 PUSH2 0xA39 PUSH1 0x0 DUP4 DUP2 MSTORE PUSH1 0x2 PUSH1 0x20 MSTORE PUSH2 0xA34 PUSH2 0x9F8 PUSH1 0x40 DUP4 KECCAK256 SLOAD TIMESTAMP PUSH2 0x883 JUMP JUMPDEST PUSH4 0x1E13380 SWAP6 SWAP1 DUP7 DUP2 GT ISZERO PUSH2 0xA3E JUMPI POP DUP6 SWAP1 JUMPDEST DUP4 MSTORE PUSH1 0x1 PUSH1 0x20 MSTORE PUSH2 0xA2E PUSH1 0x40 DUP5 KECCAK256 SLOAD SWAP4 PUSH1 0x40 PUSH1 0x4 SLOAD SWAP2 PUSH1 0x5 PUSH1 0x20 MSTORE KECCAK256 SLOAD SWAP1 PUSH2 0x883 JUMP JUMPDEST SWAP3 PUSH2 0x9B5 JUMP JUMPDEST PUSH2 0x9B5 JUMP JUMPDEST DIV DIV SWAP1 JUMP JUMPDEST SWAP1 PUSH2 0xA0B JUMP INVALID LOG2 PUSH5 0x6970667358 0x22 SLT KECCAK256 0xE 0xB5 PUSH12 0xECECFDCC71B314431B0045F 0xD 0xAC EXTCODECOPY PUSH16 0xFD3B5E865683DD6B31318D96F164736F PUSH13 0x63430008190033000000000000 "},"gasEstimates":{"creation":{"codeDepositCost":"536400","executionCost":"infinite","totalCost":"infinite"},"external":{"balanceStakedOf(address)":"2599","calculateRewardsEarned(address)":"infinite","claim()":"infinite","claimTo(address,address)":"infinite","rewardToken()":"infinite","stake(uint256)":"infinite","stakeTimestamp(address)":"2489","stakingSupply()":"2473","stakingToken()":"infinite","unstake(uint256)":"infinite","updateRewardIndexPublic(uint256)":"infinite"},"internal":{"_calculateRewards(address)":"infinite","_updateRewards(address)":"infinite","updateRewardIndex(uint256)":"infinite"}},"methodIdentifiers":{"balanceStakedOf(address)":"bf9c89bb","calculateRewardsEarned(address)":"8b086764","claim()":"4e71d92d","claimTo(address,address)":"34a1ca89","rewardToken()":"f7c618c1","stake(uint256)":"a694fc3a","stakeTimestamp(address)":"70259077","stakingSupply()":"f377e7cf","stakingToken()":"72f702f3","unstake(uint256)":"2e17de78","updateRewardIndexPublic(uint256)":"ab86c69e"}},"storageLayout":{"storage":[{"astId":1573,"contract":"contracts/core/BaluniStake.sol:BaluniStake","label":"_status","offset":0,"slot":"0","type":"t_uint256"},{"astId":7449,"contract":"contracts/core/BaluniStake.sol:BaluniStake","label":"balanceStakedOf","offset":0,"slot":"1","type":"t_mapping(t_address,t_uint256)"},{"astId":7453,"contract":"contracts/core/BaluniStake.sol:BaluniStake","label":"stakeTimestamp","offset":0,"slot":"2","type":"t_mapping(t_address,t_uint256)"},{"astId":7455,"contract":"contracts/core/BaluniStake.sol:BaluniStake","label":"stakingSupply","offset":0,"slot":"3","type":"t_uint256"},{"astId":7460,"contract":"contracts/core/BaluniStake.sol:BaluniStake","label":"rewardIndex","offset":0,"slot":"4","type":"t_uint256"},{"astId":7464,"contract":"contracts/core/BaluniStake.sol:BaluniStake","label":"rewardIndexOf","offset":0,"slot":"5","type":"t_mapping(t_address,t_uint256)"},{"astId":7468,"contract":"contracts/core/BaluniStake.sol:BaluniStake","label":"earned","offset":0,"slot":"6","type":"t_mapping(t_address,t_uint256)"}],"types":{"t_address":{"encoding":"inplace","label":"address","numberOfBytes":"20"},"t_mapping(t_address,t_uint256)":{"encoding":"mapping","key":"t_address","label":"mapping(address => uint256)","numberOfBytes":"32","value":"t_uint256"},"t_uint256":{"encoding":"inplace","label":"uint256","numberOfBytes":"32"}}},"userdoc":{"kind":"user","methods":{},"version":1}}}}