{"contracts/community/Tournament.sol":{"Tournament":{"abi":[{"inputs":[{"internalType":"address","name":"_oracleAddress","type":"address"},{"internalType":"uint256","name":"_maxParticipants","type":"uint256"}],"stateMutability":"nonpayable","type":"constructor"},{"inputs":[{"internalType":"address","name":"account","type":"address"}],"name":"AddressInsufficientBalance","type":"error"},{"inputs":[],"name":"FailedInnerCall","type":"error"},{"inputs":[],"name":"ReentrancyGuardReentrantCall","type":"error"},{"anonymous":false,"inputs":[{"indexed":false,"internalType":"uint256","name":"round","type":"uint256"},{"indexed":true,"internalType":"address","name":"predictor","type":"address"},{"indexed":false,"internalType":"uint256","name":"predictedPrice","type":"uint256"},{"indexed":false,"internalType":"uint256","name":"amount","type":"uint256"}],"name":"PredictionSubmitted","type":"event"},{"anonymous":false,"inputs":[{"indexed":false,"internalType":"uint256","name":"round","type":"uint256"},{"indexed":false,"internalType":"address[]","name":"winners","type":"address[]"},{"indexed":false,"internalType":"uint256[]","name":"prizeAmounts","type":"uint256[]"}],"name":"TournamentResolved","type":"event"},{"inputs":[],"name":"currentRound","outputs":[{"internalType":"uint256","name":"","type":"uint256"}],"stateMutability":"view","type":"function"},{"inputs":[],"name":"getCurrentPricePool","outputs":[{"internalType":"uint256","name":"","type":"uint256"}],"stateMutability":"view","type":"function"},{"inputs":[],"name":"getCurrentRound","outputs":[{"internalType":"uint256","name":"","type":"uint256"}],"stateMutability":"view","type":"function"},{"inputs":[],"name":"getCurrentRoundPartecipants","outputs":[{"internalType":"uint256","name":"","type":"uint256"}],"stateMutability":"view","type":"function"},{"inputs":[],"name":"getLastWinners","outputs":[{"internalType":"address[]","name":"","type":"address[]"}],"stateMutability":"view","type":"function"},{"inputs":[],"name":"getLatestRoundPrice","outputs":[{"internalType":"uint256","name":"","type":"uint256"}],"stateMutability":"view","type":"function"},{"inputs":[],"name":"getMaxPartecipants","outputs":[{"internalType":"uint256","name":"","type":"uint256"}],"stateMutability":"view","type":"function"},{"inputs":[],"name":"getNextVerificationTime","outputs":[{"internalType":"uint256","name":"","type":"uint256"}],"stateMutability":"view","type":"function"},{"inputs":[],"name":"getPartecipants","outputs":[{"internalType":"address[]","name":"","type":"address[]"}],"stateMutability":"view","type":"function"},{"inputs":[],"name":"getPredictions","outputs":[{"components":[{"internalType":"uint256","name":"round","type":"uint256"},{"internalType":"address","name":"predictor","type":"address"},{"internalType":"uint256","name":"predictedPrice","type":"uint256"},{"internalType":"uint256","name":"amount","type":"uint256"}],"internalType":"struct Tournament.Prediction[]","name":"","type":"tuple[]"}],"stateMutability":"view","type":"function"},{"inputs":[],"name":"getPrice","outputs":[{"internalType":"uint256","name":"","type":"uint256"}],"stateMutability":"view","type":"function"},{"inputs":[],"name":"isRoundOpen","outputs":[{"internalType":"bool","name":"","type":"bool"}],"stateMutability":"view","type":"function"},{"inputs":[],"name":"keeperPercentageFee","outputs":[{"internalType":"uint256","name":"","type":"uint256"}],"stateMutability":"view","type":"function"},{"inputs":[],"name":"lastRoundPrice","outputs":[{"internalType":"uint256","name":"","type":"uint256"}],"stateMutability":"view","type":"function"},{"inputs":[],"name":"maxParticipants","outputs":[{"internalType":"uint256","name":"","type":"uint256"}],"stateMutability":"view","type":"function"},{"inputs":[],"name":"oracle","outputs":[{"internalType":"contract Oracle","name":"","type":"address"}],"stateMutability":"view","type":"function"},{"inputs":[{"internalType":"uint256","name":"","type":"uint256"}],"name":"predictions","outputs":[{"internalType":"uint256","name":"round","type":"uint256"},{"internalType":"address","name":"predictor","type":"address"},{"internalType":"uint256","name":"predictedPrice","type":"uint256"},{"internalType":"uint256","name":"amount","type":"uint256"}],"stateMutability":"view","type":"function"},{"inputs":[],"name":"priceFeedAddress","outputs":[{"internalType":"address","name":"","type":"address"}],"stateMutability":"view","type":"function"},{"inputs":[],"name":"prizePool","outputs":[{"internalType":"uint256","name":"","type":"uint256"}],"stateMutability":"view","type":"function"},{"inputs":[],"name":"resolutionEndTime","outputs":[{"internalType":"uint256","name":"","type":"uint256"}],"stateMutability":"view","type":"function"},{"inputs":[],"name":"resolveTournament","outputs":[],"stateMutability":"nonpayable","type":"function"},{"inputs":[{"internalType":"uint256","name":"","type":"uint256"}],"name":"roundWinners","outputs":[{"internalType":"address","name":"","type":"address"}],"stateMutability":"view","type":"function"},{"inputs":[],"name":"submissionEndTime","outputs":[{"internalType":"uint256","name":"","type":"uint256"}],"stateMutability":"view","type":"function"},{"inputs":[{"internalType":"uint256","name":"_predictedPrice","type":"uint256"}],"name":"submitPrediction","outputs":[],"stateMutability":"payable","type":"function"},{"inputs":[],"name":"verificationEndTime","outputs":[{"internalType":"uint256","name":"","type":"uint256"}],"stateMutability":"view","type":"function"},{"inputs":[],"name":"verificationTime","outputs":[{"internalType":"uint256","name":"","type":"uint256"}],"stateMutability":"view","type":"function"},{"stateMutability":"payable","type":"receive"}],"devdoc":{"errors":{"AddressInsufficientBalance(address)":[{"details":"The ETH balance of the account is not enough to perform the operation."}],"FailedInnerCall()":[{"details":"A call to an address target failed. The target may have reverted."}],"ReentrancyGuardReentrantCall()":[{"details":"Unauthorized reentrant call."}]},"kind":"dev","methods":{},"version":1},"evm":{"bytecode":{"linkReferences":{},"object":"60803460b957601f61164038819003918201601f19168301916001600160401b0383118484101760be57808492604094855283398101031260b95780516001600160a01b038116919082900360b9576020015160016000556064600255617080600355620151809182600455610e106005556000600c5560018060a01b03196001541617600155600655420180421160a35760095560405161156b90816100d58239f35b634e487b7160e01b600052601160045260246000fd5b600080fd5b634e487b7160e01b600052604160045260246000fdfe60406080815260048036101561002e575b5050361561001d57600080fd5b61002934600b54610a0e565b600b55005b600090813560e01c9081624fbbb014610857578162614418146107fa578163149c6dac1461083857816324924bf714610819578163308d19ab14610819578163344c8e37146107fa578163532eaca0146107db57816358f6b9c5146105265781635d21b255146107bc578163719ce73e146107bc57816376a4956c146107755781637dc0d1d01461074d57816385d62b45146105455781638a19c8bc146103c05781638dd78d671461052657816393bc976e14610507578163956909361461048457816398d5fdca146103df578163a32bf597146103c0578163bb9b110b1461037d578163c78c3a8314610269578163e0abca0b14610241578163e2f1dcc614610222578163ef949f4a146101e157508063f985ad93146101be5763f9ceb3ea0361001057346101bb57806003193601126101bb5760085461016f81610a33565b915b8181106101915783516020808252819061018d90820186610906565b0390f35b806001600160a01b0360016101a681946108b6565b500154166101b48286610ac7565b5201610171565b80fd5b5090346101dd57816003193601126101dd576020906005549051908152f35b5080fd5b9050823461021e578260031936011261021e57600283541461021157826002815561020a610aec565b6001815580f35b51633ee5aeb560e01b8152fd5b8280fd5b8284346101dd57816003193601126101dd576020906008549051908152f35b8284346101dd57816003193601126101dd576020906001600160a01b03600a54169051908152f35b9050346101dd57816003193601126101dd576008549161028883610a1b565b610294855191826109ec565b8381526008825260209384820193837ff3f7a9fe364faab93b216da50a3214154f22a0a2b415b23a84c8169e8b636ee3865b84831061032e575050505050845193808501918186525180925285850193925b8281106102f35785850386f35b835180518652808301516001600160a01b031686840152878101518887015260609081015190860152608090940193928101926001016102e6565b83896001928c9b98999b5161034281610966565b855481526001600160a01b038587015416838201528d60028701549082015260038601546060820152815201920192019190979594976102c6565b8284346101dd57816003193601126101dd5760095461383f198101929083116103ad576020838351904211158152f35b634e487b7160e01b815260118452602490fd5b8284346101dd57816003193601126101dd57602090600c549051908152f35b9050823461021e578260031936011261021e57819260206001600160a01b0360015416835194858092638e15f47360e01b82525afa928315610478578193610444575b506402540be400928381029381850414901517156103ad576020838351908152f35b9092506020813d602011610470575b81610460602093836109ec565b8101031261021e57519184610422565b3d9150610453565b509051903d90823e3d90fd5b5050346101bb57806003193601126101bb578151918291600f54808552602080950194600f835260008051602061151683398151915292905b8282106104e75761018d86866104d5828b03836109ec565b51918291602083526020830190610906565b83546001600160a01b0316875295860195600193840193909101906104bd565b8391503461021e578260031936011261021e5760209250549051908152f35b8284346101dd57816003193601126101dd576020906007549051908152f35b826020853660031901821361021e578335662386f26fc10000341061070a576008546006548110156106c75761058060095460035490610943565b421161066f57600c549083519161059683610966565b8252848201338152848301908482526060840192348452600160401b81101561065c578060016105c992016008556108b6565b94909461064a579060039392915185556001600160a01b03600186019151166001600160a01b03198254161790555160028401555191015561060d34600b54610a0e565b600b55600c5492825193845283015234908201527f6508c7e3d28df907ed24f614c03b61c067dbc85e84a98bb8f78ffb1c8a711e5560603392a280f35b634e487b7160e01b8952888a52602489fd5b634e487b7160e01b895260418a52602489fd5b825162461bcd60e51b8152808701859052602c60248201527f5375626d697373696f6e7320636c6f736564203420686f757273206265666f7260448201526b6520726f756e6420656e647360a01b6064820152608490fd5b825162461bcd60e51b8152808701859052601960248201527f5061727469636970616e74206c696d69742072656163686564000000000000006044820152606490fd5b815162461bcd60e51b8152808601849052601760248201527f456e7472792066656520697320302e30312065746865720000000000000000006044820152606490fd5b8284346101dd57816003193601126101dd576020906001600160a01b03600154169051908152f35b8391503461021e57602036600319011261021e5735600f5481101561021e576001600160a01b0390600f602094526000805160206115168339815191520154169051908152f35b8284346101dd57816003193601126101dd57602090600b549051908152f35b8284346101dd57816003193601126101dd576020906003549051908152f35b8284346101dd57816003193601126101dd576020906009549051908152f35b8284346101dd57816003193601126101dd576020906006549051908152f35b8284346101dd57816003193601126101dd576020906002549051908152f35b8391503461021e57602036600319011261021e5735916008548310156101bb57506108836080926108b6565b50908154916001600160a01b03600182015416916003600283015492015492815194855260208501528301526060820152f35b6008548110156108f057600860005260021b7ff3f7a9fe364faab93b216da50a3214154f22a0a2b415b23a84c8169e8b636ee30190600090565b634e487b7160e01b600052603260045260246000fd5b90815180825260208080930193019160005b828110610926575050505090565b83516001600160a01b031685529381019392810192600101610918565b9190820391821161095057565b634e487b7160e01b600052601160045260246000fd5b6080810190811067ffffffffffffffff82111761098257604052565b634e487b7160e01b600052604160045260246000fd5b6060810190811067ffffffffffffffff82111761098257604052565b6020810190811067ffffffffffffffff82111761098257604052565b6040810190811067ffffffffffffffff82111761098257604052565b90601f8019910116810190811067ffffffffffffffff82111761098257604052565b9190820180921161095057565b67ffffffffffffffff81116109825760051b60200190565b90610a3d82610a1b565b610a4a60405191826109ec565b8281528092610a5b601f1991610a1b565b0190602036910137565b908152610a7f602092606060208401526060830190610906565b9060408183039101526020808451928381520193019160005b828110610aa6575050505090565b835185529381019392810192600101610a98565b8051156108f05760200190565b80518210156108f05760209160051b010190565b9060038110156108f05760051b0190565b60095480421061135b57600554610b0291610a0e565b4210156112be5760049060206001600160a01b036001541660405193848092638e15f47360e01b82525afa9182156112b25760009261127e575b506402540be40091808381020483148115171561095057828102600755600854156111cc57600854600181146110525750600260085414610ed5579160405190610b8582610998565b60005b60608110610ea557506000938491600854915b828410610d665750505050600b546002549081810291818304148115171561095057610bcf612710610bd893048092610943565b600b55336113aa565b600b54610be484610a33565b91610bee85610a33565b9460005b818110610cde575050505080519267ffffffffffffffff841161098257600160401b841161098257600f5484600f55808510610caf575b506020820193600f60005260005b818110610c845750507f4fd7288032271e74afa3073bdad87433c58165b48192fee01cb3ca4d114c3a0f929350610c77600c549160405193849384610a65565b0390a1610c8261144a565b565b60019060206001600160a01b0388511697019681600080516020611516833981519152015501610c37565b8460008051602061151683398151915291820191015b818110610cd25750610c29565b60008155600101610cc5565b6001600160a01b036001610cfc610cf58487610adb565b51516108b6565b50015416610d0a8287610ac7565b528115610d5057600190828504610d21828a610ac7565b52610d4a6001600160a01b03610d378389610ac7565b5116610d43838b610ac7565b51906113aa565b01610bf2565b634e487b7160e01b600052601260045260246000fd5b90919295610d73876108b6565b50600201548284021015610e8757610d9b610d8d886108b6565b506002858502910154610943565b6003821015610def5760405190610db182610998565b888252602082015260016040820152610dca8287610adb565b52610dd58186610adb565b506000198114610950576001809101965b01929190610b9b565b600097919760208751015160015b60038110610e5157509082916001949310610e1a575b5050610de6565b604051610e4992610e2a82610998565b8482526020820152846040820152610e42828a610adb565b5287610adb565b503880610e13565b816020610e5e838c610adb565b51015111610e6f575b600101610dfd565b9150506020610e7e8289610adb565b51015181610e67565b610ea06002610e95896108b6565b500154848402610943565b610d9b565b602090604095929551610eb781610998565b60008152600083820152600060408201528185015201939093610b88565b509050604051610ee481610998565b6002815260208101906040368337604051610efe81610998565b60028152604036602083013781600b5460011c60005b60028110610ff65750507f4fd7288032271e74afa3073bdad87433c58165b48192fee01cb3ca4d114c3a0f91610f53600c549160405193849384610a65565b0390a1519067ffffffffffffffff821161098257600160401b821161098257600f5482600f55808310610fc7575b50600f60005260005b828110610f9c57505050610c8261144a565b60019060206001600160a01b0384511693019281600080516020611516833981519152015501610f8a565b8260008051602061151683398151915291820191015b818110610fea5750610f81565b60008155600101610fdd565b60019192506001600160a01b038261100d836108b6565b5001541661101b8287610ac7565b52826110278286610ac7565b526110496001600160a01b0361103d8388610ac7565b5116610d438387610ac7565b01908391610f14565b91925050604051611062816109d0565b60018152602081019160203684376040519061107d826109d0565b6001825260203681840137156108f057817f4fd7288032271e74afa3073bdad87433c58165b48192fee01cb3ca4d114c3a0f9160086000526001600160a01b037ff3f7a9fe364faab93b216da50a3214154f22a0a2b415b23a84c8169e8b636ee454166110e983610aba565b52600b546110f682610aba565b526111166001600160a01b0361110b84610aba565b5116610d4383610aba565b611129600c549160405193849384610a65565b0390a1519067ffffffffffffffff821161098257600160401b821161098257600f5482600f5580831061119d575b50600f60005260005b82811061117257505050610c8261144a565b60019060206001600160a01b0384511693019281600080516020611516833981519152015501611160565b8260008051602061151683398151915291820191015b8181106111c05750611157565b600081556001016111b3565b5090507f4fd7288032271e74afa3073bdad87433c58165b48192fee01cb3ca4d114c3a0f600c5460405190611200826109b4565b60008252611223604051611213816109b4565b6000815260405193849384610a65565b0390a16000604051611234816109b4565b52600f546000600f5580611251575b50600f600052610c8261144a565b600080516020611516833981519152908101905b8181106112725750611243565b60008155600101611265565b90916020823d6020116112aa575b81611299602093836109ec565b810103126101bb5750519038610b3c565b3d915061128c565b6040513d6000823e3d90fd5b60005b60085481101561130157806112fb6001600160a01b0360016112e381956108b6565b5001541660036112f2846108b6565b500154906113aa565b016112c1565b507f4fd7288032271e74afa3073bdad87433c58165b48192fee01cb3ca4d114c3a0f600c5460405190611333826109b4565b60008252610c77604051611346816109b4565b60008152600036813760405193849384610a65565b60405162461bcd60e51b815260206004820152602160248201527f546f75726e616d656e742063616e6e6f74206265207265736f6c7665642079656044820152601d60fa1b6064820152608490fd5b814710611432576001600160a01b0390600080809481948294165af1903d1561142c573d9067ffffffffffffffff821161141857604051916113f6601f8201601f1916602001846109ec565b825260203d92013e5b1561140657565b604051630a12f52160e11b8152600490fd5b634e487b7160e01b81526041600452602490fd5b506113ff565b60405163cd78605960e01b8152306004820152602490fd5b6008546000908160085580611497575b5080600b5561146b60045442610a0e565b600955600c5490600182018092116114835750600c55565b634e487b7160e01b81526011600452602490fd5b60026001600160fe1b038216820361150157600883527ff3f7a9fe364faab93b216da50a3214154f22a0a2b415b23a84c8169e8b636ee39160021b8201915b8281106114e457505061145a565b8084600492558460018201558483820155846003820155016114d6565b634e487b7160e01b83526011600452602483fdfe8d1108e10bcb7c27dddfc02ed9d693a074039d026cf4ea4240b40f7d581ac802a264697066735822122047a835bfa1246535da09fc1f47b0703279fd07a2cd5fac71bea7f5d27697042164736f6c63430008190033","opcodes":"PUSH1 0x80 CALLVALUE PUSH1 0xB9 JUMPI PUSH1 0x1F PUSH2 0x1640 CODESIZE DUP2 SWAP1 SUB SWAP2 DUP3 ADD PUSH1 0x1F NOT AND DUP4 ADD SWAP2 PUSH1 0x1 PUSH1 0x1 PUSH1 0x40 SHL SUB DUP4 GT DUP5 DUP5 LT OR PUSH1 0xBE JUMPI DUP1 DUP5 SWAP3 PUSH1 0x40 SWAP5 DUP6 MSTORE DUP4 CODECOPY DUP2 ADD SUB SLT PUSH1 0xB9 JUMPI DUP1 MLOAD PUSH1 0x1 PUSH1 0x1 PUSH1 0xA0 SHL SUB DUP2 AND SWAP2 SWAP1 DUP3 SWAP1 SUB PUSH1 0xB9 JUMPI PUSH1 0x20 ADD MLOAD PUSH1 0x1 PUSH1 0x0 SSTORE PUSH1 0x64 PUSH1 0x2 SSTORE PUSH2 0x7080 PUSH1 0x3 SSTORE PUSH3 0x15180 SWAP2 DUP3 PUSH1 0x4 SSTORE PUSH2 0xE10 PUSH1 0x5 SSTORE PUSH1 0x0 PUSH1 0xC SSTORE PUSH1 0x1 DUP1 PUSH1 0xA0 SHL SUB NOT PUSH1 0x1 SLOAD AND OR PUSH1 0x1 SSTORE PUSH1 0x6 SSTORE TIMESTAMP ADD DUP1 TIMESTAMP GT PUSH1 0xA3 JUMPI PUSH1 0x9 SSTORE PUSH1 0x40 MLOAD PUSH2 0x156B SWAP1 DUP2 PUSH2 0xD5 DUP3 CODECOPY RETURN JUMPDEST PUSH4 0x4E487B71 PUSH1 0xE0 SHL PUSH1 0x0 MSTORE PUSH1 0x11 PUSH1 0x4 MSTORE PUSH1 0x24 PUSH1 0x0 REVERT JUMPDEST PUSH1 0x0 DUP1 REVERT JUMPDEST PUSH4 0x4E487B71 PUSH1 0xE0 SHL PUSH1 0x0 MSTORE PUSH1 0x41 PUSH1 0x4 MSTORE PUSH1 0x24 PUSH1 0x0 REVERT INVALID PUSH1 0x40 PUSH1 0x80 DUP2 MSTORE PUSH1 0x4 DUP1 CALLDATASIZE LT ISZERO PUSH2 0x2E JUMPI JUMPDEST POP POP CALLDATASIZE ISZERO PUSH2 0x1D JUMPI PUSH1 0x0 DUP1 REVERT JUMPDEST PUSH2 0x29 CALLVALUE PUSH1 0xB SLOAD PUSH2 0xA0E JUMP JUMPDEST PUSH1 0xB SSTORE STOP JUMPDEST PUSH1 0x0 SWAP1 DUP2 CALLDATALOAD PUSH1 0xE0 SHR SWAP1 DUP2 PUSH3 0x4FBBB0 EQ PUSH2 0x857 JUMPI DUP2 PUSH3 0x614418 EQ PUSH2 0x7FA JUMPI DUP2 PUSH4 0x149C6DAC EQ PUSH2 0x838 JUMPI DUP2 PUSH4 0x24924BF7 EQ PUSH2 0x819 JUMPI DUP2 PUSH4 0x308D19AB EQ PUSH2 0x819 JUMPI DUP2 PUSH4 0x344C8E37 EQ PUSH2 0x7FA JUMPI DUP2 PUSH4 0x532EACA0 EQ PUSH2 0x7DB JUMPI DUP2 PUSH4 0x58F6B9C5 EQ PUSH2 0x526 JUMPI DUP2 PUSH4 0x5D21B255 EQ PUSH2 0x7BC JUMPI DUP2 PUSH4 0x719CE73E EQ PUSH2 0x7BC JUMPI DUP2 PUSH4 0x76A4956C EQ PUSH2 0x775 JUMPI DUP2 PUSH4 0x7DC0D1D0 EQ PUSH2 0x74D JUMPI DUP2 PUSH4 0x85D62B45 EQ PUSH2 0x545 JUMPI DUP2 PUSH4 0x8A19C8BC EQ PUSH2 0x3C0 JUMPI DUP2 PUSH4 0x8DD78D67 EQ PUSH2 0x526 JUMPI DUP2 PUSH4 0x93BC976E EQ PUSH2 0x507 JUMPI DUP2 PUSH4 0x95690936 EQ PUSH2 0x484 JUMPI DUP2 PUSH4 0x98D5FDCA EQ PUSH2 0x3DF JUMPI DUP2 PUSH4 0xA32BF597 EQ PUSH2 0x3C0 JUMPI DUP2 PUSH4 0xBB9B110B EQ PUSH2 0x37D JUMPI DUP2 PUSH4 0xC78C3A83 EQ PUSH2 0x269 JUMPI DUP2 PUSH4 0xE0ABCA0B EQ PUSH2 0x241 JUMPI DUP2 PUSH4 0xE2F1DCC6 EQ PUSH2 0x222 JUMPI DUP2 PUSH4 0xEF949F4A EQ PUSH2 0x1E1 JUMPI POP DUP1 PUSH4 0xF985AD93 EQ PUSH2 0x1BE JUMPI PUSH4 0xF9CEB3EA SUB PUSH2 0x10 JUMPI CALLVALUE PUSH2 0x1BB JUMPI DUP1 PUSH1 0x3 NOT CALLDATASIZE ADD SLT PUSH2 0x1BB JUMPI PUSH1 0x8 SLOAD PUSH2 0x16F DUP2 PUSH2 0xA33 JUMP JUMPDEST SWAP2 JUMPDEST DUP2 DUP2 LT PUSH2 0x191 JUMPI DUP4 MLOAD PUSH1 0x20 DUP1 DUP3 MSTORE DUP2 SWAP1 PUSH2 0x18D SWAP1 DUP3 ADD DUP7 PUSH2 0x906 JUMP JUMPDEST SUB SWAP1 RETURN JUMPDEST DUP1 PUSH1 0x1 PUSH1 0x1 PUSH1 0xA0 SHL SUB PUSH1 0x1 PUSH2 0x1A6 DUP2 SWAP5 PUSH2 0x8B6 JUMP JUMPDEST POP ADD SLOAD AND PUSH2 0x1B4 DUP3 DUP7 PUSH2 0xAC7 JUMP JUMPDEST MSTORE ADD PUSH2 0x171 JUMP JUMPDEST DUP1 REVERT JUMPDEST POP SWAP1 CALLVALUE PUSH2 0x1DD JUMPI DUP2 PUSH1 0x3 NOT CALLDATASIZE ADD SLT PUSH2 0x1DD JUMPI PUSH1 0x20 SWAP1 PUSH1 0x5 SLOAD SWAP1 MLOAD SWAP1 DUP2 MSTORE RETURN JUMPDEST POP DUP1 REVERT JUMPDEST SWAP1 POP DUP3 CALLVALUE PUSH2 0x21E JUMPI DUP3 PUSH1 0x3 NOT CALLDATASIZE ADD SLT PUSH2 0x21E JUMPI PUSH1 0x2 DUP4 SLOAD EQ PUSH2 0x211 JUMPI DUP3 PUSH1 0x2 DUP2 SSTORE PUSH2 0x20A PUSH2 0xAEC JUMP JUMPDEST PUSH1 0x1 DUP2 SSTORE DUP1 RETURN JUMPDEST MLOAD PUSH4 0x3EE5AEB5 PUSH1 0xE0 SHL DUP2 MSTORE REVERT JUMPDEST DUP3 DUP1 REVERT JUMPDEST DUP3 DUP5 CALLVALUE PUSH2 0x1DD JUMPI DUP2 PUSH1 0x3 NOT CALLDATASIZE ADD SLT PUSH2 0x1DD JUMPI PUSH1 0x20 SWAP1 PUSH1 0x8 SLOAD SWAP1 MLOAD SWAP1 DUP2 MSTORE RETURN JUMPDEST DUP3 DUP5 CALLVALUE PUSH2 0x1DD JUMPI DUP2 PUSH1 0x3 NOT CALLDATASIZE ADD SLT PUSH2 0x1DD JUMPI PUSH1 0x20 SWAP1 PUSH1 0x1 PUSH1 0x1 PUSH1 0xA0 SHL SUB PUSH1 0xA SLOAD AND SWAP1 MLOAD SWAP1 DUP2 MSTORE RETURN JUMPDEST SWAP1 POP CALLVALUE PUSH2 0x1DD JUMPI DUP2 PUSH1 0x3 NOT CALLDATASIZE ADD SLT PUSH2 0x1DD JUMPI PUSH1 0x8 SLOAD SWAP2 PUSH2 0x288 DUP4 PUSH2 0xA1B JUMP JUMPDEST PUSH2 0x294 DUP6 MLOAD SWAP2 DUP3 PUSH2 0x9EC JUMP JUMPDEST DUP4 DUP2 MSTORE PUSH1 0x8 DUP3 MSTORE PUSH1 0x20 SWAP4 DUP5 DUP3 ADD SWAP4 DUP4 PUSH32 0xF3F7A9FE364FAAB93B216DA50A3214154F22A0A2B415B23A84C8169E8B636EE3 DUP7 JUMPDEST DUP5 DUP4 LT PUSH2 0x32E JUMPI POP POP POP POP POP DUP5 MLOAD SWAP4 DUP1 DUP6 ADD SWAP2 DUP2 DUP7 MSTORE MLOAD DUP1 SWAP3 MSTORE DUP6 DUP6 ADD SWAP4 SWAP3 JUMPDEST DUP3 DUP2 LT PUSH2 0x2F3 JUMPI DUP6 DUP6 SUB DUP7 RETURN JUMPDEST DUP4 MLOAD DUP1 MLOAD DUP7 MSTORE DUP1 DUP4 ADD MLOAD PUSH1 0x1 PUSH1 0x1 PUSH1 0xA0 SHL SUB AND DUP7 DUP5 ADD MSTORE DUP8 DUP2 ADD MLOAD DUP9 DUP8 ADD MSTORE PUSH1 0x60 SWAP1 DUP2 ADD MLOAD SWAP1 DUP7 ADD MSTORE PUSH1 0x80 SWAP1 SWAP5 ADD SWAP4 SWAP3 DUP2 ADD SWAP3 PUSH1 0x1 ADD PUSH2 0x2E6 JUMP JUMPDEST DUP4 DUP10 PUSH1 0x1 SWAP3 DUP13 SWAP12 SWAP9 SWAP10 SWAP12 MLOAD PUSH2 0x342 DUP2 PUSH2 0x966 JUMP JUMPDEST DUP6 SLOAD DUP2 MSTORE PUSH1 0x1 PUSH1 0x1 PUSH1 0xA0 SHL SUB DUP6 DUP8 ADD SLOAD AND DUP4 DUP3 ADD MSTORE DUP14 PUSH1 0x2 DUP8 ADD SLOAD SWAP1 DUP3 ADD MSTORE PUSH1 0x3 DUP7 ADD SLOAD PUSH1 0x60 DUP3 ADD MSTORE DUP2 MSTORE ADD SWAP3 ADD SWAP3 ADD SWAP2 SWAP1 SWAP8 SWAP6 SWAP5 SWAP8 PUSH2 0x2C6 JUMP JUMPDEST DUP3 DUP5 CALLVALUE PUSH2 0x1DD JUMPI DUP2 PUSH1 0x3 NOT CALLDATASIZE ADD SLT PUSH2 0x1DD JUMPI PUSH1 0x9 SLOAD PUSH2 0x383F NOT DUP2 ADD SWAP3 SWAP1 DUP4 GT PUSH2 0x3AD JUMPI PUSH1 0x20 DUP4 DUP4 MLOAD SWAP1 TIMESTAMP GT ISZERO DUP2 MSTORE RETURN JUMPDEST PUSH4 0x4E487B71 PUSH1 0xE0 SHL DUP2 MSTORE PUSH1 0x11 DUP5 MSTORE PUSH1 0x24 SWAP1 REVERT JUMPDEST DUP3 DUP5 CALLVALUE PUSH2 0x1DD JUMPI DUP2 PUSH1 0x3 NOT CALLDATASIZE ADD SLT PUSH2 0x1DD JUMPI PUSH1 0x20 SWAP1 PUSH1 0xC SLOAD SWAP1 MLOAD SWAP1 DUP2 MSTORE RETURN JUMPDEST SWAP1 POP DUP3 CALLVALUE PUSH2 0x21E JUMPI DUP3 PUSH1 0x3 NOT CALLDATASIZE ADD SLT PUSH2 0x21E JUMPI DUP2 SWAP3 PUSH1 0x20 PUSH1 0x1 PUSH1 0x1 PUSH1 0xA0 SHL SUB PUSH1 0x1 SLOAD AND DUP4 MLOAD SWAP5 DUP6 DUP1 SWAP3 PUSH4 0x8E15F473 PUSH1 0xE0 SHL DUP3 MSTORE GAS STATICCALL SWAP3 DUP4 ISZERO PUSH2 0x478 JUMPI DUP2 SWAP4 PUSH2 0x444 JUMPI JUMPDEST POP PUSH5 0x2540BE400 SWAP3 DUP4 DUP2 MUL SWAP4 DUP2 DUP6 DIV EQ SWAP1 ISZERO OR ISZERO PUSH2 0x3AD JUMPI PUSH1 0x20 DUP4 DUP4 MLOAD SWAP1 DUP2 MSTORE RETURN JUMPDEST SWAP1 SWAP3 POP PUSH1 0x20 DUP2 RETURNDATASIZE PUSH1 0x20 GT PUSH2 0x470 JUMPI JUMPDEST DUP2 PUSH2 0x460 PUSH1 0x20 SWAP4 DUP4 PUSH2 0x9EC JUMP JUMPDEST DUP2 ADD SUB SLT PUSH2 0x21E JUMPI MLOAD SWAP2 DUP5 PUSH2 0x422 JUMP JUMPDEST RETURNDATASIZE SWAP2 POP PUSH2 0x453 JUMP JUMPDEST POP SWAP1 MLOAD SWAP1 RETURNDATASIZE SWAP1 DUP3 RETURNDATACOPY RETURNDATASIZE SWAP1 REVERT JUMPDEST POP POP CALLVALUE PUSH2 0x1BB JUMPI DUP1 PUSH1 0x3 NOT CALLDATASIZE ADD SLT PUSH2 0x1BB JUMPI DUP2 MLOAD SWAP2 DUP3 SWAP2 PUSH1 0xF SLOAD DUP1 DUP6 MSTORE PUSH1 0x20 DUP1 SWAP6 ADD SWAP5 PUSH1 0xF DUP4 MSTORE PUSH1 0x0 DUP1 MLOAD PUSH1 0x20 PUSH2 0x1516 DUP4 CODECOPY DUP2 MLOAD SWAP2 MSTORE SWAP3 SWAP1 JUMPDEST DUP3 DUP3 LT PUSH2 0x4E7 JUMPI PUSH2 0x18D DUP7 DUP7 PUSH2 0x4D5 DUP3 DUP12 SUB DUP4 PUSH2 0x9EC JUMP JUMPDEST MLOAD SWAP2 DUP3 SWAP2 PUSH1 0x20 DUP4 MSTORE PUSH1 0x20 DUP4 ADD SWAP1 PUSH2 0x906 JUMP JUMPDEST DUP4 SLOAD PUSH1 0x1 PUSH1 0x1 PUSH1 0xA0 SHL SUB AND DUP8 MSTORE SWAP6 DUP7 ADD SWAP6 PUSH1 0x1 SWAP4 DUP5 ADD SWAP4 SWAP1 SWAP2 ADD SWAP1 PUSH2 0x4BD JUMP JUMPDEST DUP4 SWAP2 POP CALLVALUE PUSH2 0x21E JUMPI DUP3 PUSH1 0x3 NOT CALLDATASIZE ADD SLT PUSH2 0x21E JUMPI PUSH1 0x20 SWAP3 POP SLOAD SWAP1 MLOAD SWAP1 DUP2 MSTORE RETURN JUMPDEST DUP3 DUP5 CALLVALUE PUSH2 0x1DD JUMPI DUP2 PUSH1 0x3 NOT CALLDATASIZE ADD SLT PUSH2 0x1DD JUMPI PUSH1 0x20 SWAP1 PUSH1 0x7 SLOAD SWAP1 MLOAD SWAP1 DUP2 MSTORE RETURN JUMPDEST DUP3 PUSH1 0x20 DUP6 CALLDATASIZE PUSH1 0x3 NOT ADD DUP3 SGT PUSH2 0x21E JUMPI DUP4 CALLDATALOAD PUSH7 0x2386F26FC10000 CALLVALUE LT PUSH2 0x70A JUMPI PUSH1 0x8 SLOAD PUSH1 0x6 SLOAD DUP2 LT ISZERO PUSH2 0x6C7 JUMPI PUSH2 0x580 PUSH1 0x9 SLOAD PUSH1 0x3 SLOAD SWAP1 PUSH2 0x943 JUMP JUMPDEST TIMESTAMP GT PUSH2 0x66F JUMPI PUSH1 0xC SLOAD SWAP1 DUP4 MLOAD SWAP2 PUSH2 0x596 DUP4 PUSH2 0x966 JUMP JUMPDEST DUP3 MSTORE DUP5 DUP3 ADD CALLER DUP2 MSTORE DUP5 DUP4 ADD SWAP1 DUP5 DUP3 MSTORE PUSH1 0x60 DUP5 ADD SWAP3 CALLVALUE DUP5 MSTORE PUSH1 0x1 PUSH1 0x40 SHL DUP2 LT ISZERO PUSH2 0x65C JUMPI DUP1 PUSH1 0x1 PUSH2 0x5C9 SWAP3 ADD PUSH1 0x8 SSTORE PUSH2 0x8B6 JUMP JUMPDEST SWAP5 SWAP1 SWAP5 PUSH2 0x64A JUMPI SWAP1 PUSH1 0x3 SWAP4 SWAP3 SWAP2 MLOAD DUP6 SSTORE PUSH1 0x1 PUSH1 0x1 PUSH1 0xA0 SHL SUB PUSH1 0x1 DUP7 ADD SWAP2 MLOAD AND PUSH1 0x1 PUSH1 0x1 PUSH1 0xA0 SHL SUB NOT DUP3 SLOAD AND OR SWAP1 SSTORE MLOAD PUSH1 0x2 DUP5 ADD SSTORE MLOAD SWAP2 ADD SSTORE PUSH2 0x60D CALLVALUE PUSH1 0xB SLOAD PUSH2 0xA0E JUMP JUMPDEST PUSH1 0xB SSTORE PUSH1 0xC SLOAD SWAP3 DUP3 MLOAD SWAP4 DUP5 MSTORE DUP4 ADD MSTORE CALLVALUE SWAP1 DUP3 ADD MSTORE PUSH32 0x6508C7E3D28DF907ED24F614C03B61C067DBC85E84A98BB8F78FFB1C8A711E55 PUSH1 0x60 CALLER SWAP3 LOG2 DUP1 RETURN JUMPDEST PUSH4 0x4E487B71 PUSH1 0xE0 SHL DUP10 MSTORE DUP9 DUP11 MSTORE PUSH1 0x24 DUP10 REVERT JUMPDEST PUSH4 0x4E487B71 PUSH1 0xE0 SHL DUP10 MSTORE PUSH1 0x41 DUP11 MSTORE PUSH1 0x24 DUP10 REVERT JUMPDEST DUP3 MLOAD PUSH3 0x461BCD PUSH1 0xE5 SHL DUP2 MSTORE DUP1 DUP8 ADD DUP6 SWAP1 MSTORE PUSH1 0x2C PUSH1 0x24 DUP3 ADD MSTORE PUSH32 0x5375626D697373696F6E7320636C6F736564203420686F757273206265666F72 PUSH1 0x44 DUP3 ADD MSTORE PUSH12 0x6520726F756E6420656E6473 PUSH1 0xA0 SHL PUSH1 0x64 DUP3 ADD MSTORE PUSH1 0x84 SWAP1 REVERT JUMPDEST DUP3 MLOAD PUSH3 0x461BCD PUSH1 0xE5 SHL DUP2 MSTORE DUP1 DUP8 ADD DUP6 SWAP1 MSTORE PUSH1 0x19 PUSH1 0x24 DUP3 ADD MSTORE PUSH32 0x5061727469636970616E74206C696D6974207265616368656400000000000000 PUSH1 0x44 DUP3 ADD MSTORE PUSH1 0x64 SWAP1 REVERT JUMPDEST DUP2 MLOAD PUSH3 0x461BCD PUSH1 0xE5 SHL DUP2 MSTORE DUP1 DUP7 ADD DUP5 SWAP1 MSTORE PUSH1 0x17 PUSH1 0x24 DUP3 ADD MSTORE PUSH32 0x456E7472792066656520697320302E3031206574686572000000000000000000 PUSH1 0x44 DUP3 ADD MSTORE PUSH1 0x64 SWAP1 REVERT JUMPDEST DUP3 DUP5 CALLVALUE PUSH2 0x1DD JUMPI DUP2 PUSH1 0x3 NOT CALLDATASIZE ADD SLT PUSH2 0x1DD JUMPI PUSH1 0x20 SWAP1 PUSH1 0x1 PUSH1 0x1 PUSH1 0xA0 SHL SUB PUSH1 0x1 SLOAD AND SWAP1 MLOAD SWAP1 DUP2 MSTORE RETURN JUMPDEST DUP4 SWAP2 POP CALLVALUE PUSH2 0x21E JUMPI PUSH1 0x20 CALLDATASIZE PUSH1 0x3 NOT ADD SLT PUSH2 0x21E JUMPI CALLDATALOAD PUSH1 0xF SLOAD DUP2 LT ISZERO PUSH2 0x21E JUMPI PUSH1 0x1 PUSH1 0x1 PUSH1 0xA0 SHL SUB SWAP1 PUSH1 0xF PUSH1 0x20 SWAP5 MSTORE PUSH1 0x0 DUP1 MLOAD PUSH1 0x20 PUSH2 0x1516 DUP4 CODECOPY DUP2 MLOAD SWAP2 MSTORE ADD SLOAD AND SWAP1 MLOAD SWAP1 DUP2 MSTORE RETURN JUMPDEST DUP3 DUP5 CALLVALUE PUSH2 0x1DD JUMPI DUP2 PUSH1 0x3 NOT CALLDATASIZE ADD SLT PUSH2 0x1DD JUMPI PUSH1 0x20 SWAP1 PUSH1 0xB SLOAD SWAP1 MLOAD SWAP1 DUP2 MSTORE RETURN JUMPDEST DUP3 DUP5 CALLVALUE PUSH2 0x1DD JUMPI DUP2 PUSH1 0x3 NOT CALLDATASIZE ADD SLT PUSH2 0x1DD JUMPI PUSH1 0x20 SWAP1 PUSH1 0x3 SLOAD SWAP1 MLOAD SWAP1 DUP2 MSTORE RETURN JUMPDEST DUP3 DUP5 CALLVALUE PUSH2 0x1DD JUMPI DUP2 PUSH1 0x3 NOT CALLDATASIZE ADD SLT PUSH2 0x1DD JUMPI PUSH1 0x20 SWAP1 PUSH1 0x9 SLOAD SWAP1 MLOAD SWAP1 DUP2 MSTORE RETURN JUMPDEST DUP3 DUP5 CALLVALUE PUSH2 0x1DD JUMPI DUP2 PUSH1 0x3 NOT CALLDATASIZE ADD SLT PUSH2 0x1DD JUMPI PUSH1 0x20 SWAP1 PUSH1 0x6 SLOAD SWAP1 MLOAD SWAP1 DUP2 MSTORE RETURN JUMPDEST DUP3 DUP5 CALLVALUE PUSH2 0x1DD JUMPI DUP2 PUSH1 0x3 NOT CALLDATASIZE ADD SLT PUSH2 0x1DD JUMPI PUSH1 0x20 SWAP1 PUSH1 0x2 SLOAD SWAP1 MLOAD SWAP1 DUP2 MSTORE RETURN JUMPDEST DUP4 SWAP2 POP CALLVALUE PUSH2 0x21E JUMPI PUSH1 0x20 CALLDATASIZE PUSH1 0x3 NOT ADD SLT PUSH2 0x21E JUMPI CALLDATALOAD SWAP2 PUSH1 0x8 SLOAD DUP4 LT ISZERO PUSH2 0x1BB JUMPI POP PUSH2 0x883 PUSH1 0x80 SWAP3 PUSH2 0x8B6 JUMP JUMPDEST POP SWAP1 DUP2 SLOAD SWAP2 PUSH1 0x1 PUSH1 0x1 PUSH1 0xA0 SHL SUB PUSH1 0x1 DUP3 ADD SLOAD AND SWAP2 PUSH1 0x3 PUSH1 0x2 DUP4 ADD SLOAD SWAP3 ADD SLOAD SWAP3 DUP2 MLOAD SWAP5 DUP6 MSTORE PUSH1 0x20 DUP6 ADD MSTORE DUP4 ADD MSTORE PUSH1 0x60 DUP3 ADD MSTORE RETURN JUMPDEST PUSH1 0x8 SLOAD DUP2 LT ISZERO PUSH2 0x8F0 JUMPI PUSH1 0x8 PUSH1 0x0 MSTORE PUSH1 0x2 SHL PUSH32 0xF3F7A9FE364FAAB93B216DA50A3214154F22A0A2B415B23A84C8169E8B636EE3 ADD SWAP1 PUSH1 0x0 SWAP1 JUMP JUMPDEST PUSH4 0x4E487B71 PUSH1 0xE0 SHL PUSH1 0x0 MSTORE PUSH1 0x32 PUSH1 0x4 MSTORE PUSH1 0x24 PUSH1 0x0 REVERT JUMPDEST SWAP1 DUP2 MLOAD DUP1 DUP3 MSTORE PUSH1 0x20 DUP1 DUP1 SWAP4 ADD SWAP4 ADD SWAP2 PUSH1 0x0 JUMPDEST DUP3 DUP2 LT PUSH2 0x926 JUMPI POP POP POP POP SWAP1 JUMP JUMPDEST DUP4 MLOAD PUSH1 0x1 PUSH1 0x1 PUSH1 0xA0 SHL SUB AND DUP6 MSTORE SWAP4 DUP2 ADD SWAP4 SWAP3 DUP2 ADD SWAP3 PUSH1 0x1 ADD PUSH2 0x918 JUMP JUMPDEST SWAP2 SWAP1 DUP3 SUB SWAP2 DUP3 GT PUSH2 0x950 JUMPI JUMP JUMPDEST PUSH4 0x4E487B71 PUSH1 0xE0 SHL PUSH1 0x0 MSTORE PUSH1 0x11 PUSH1 0x4 MSTORE PUSH1 0x24 PUSH1 0x0 REVERT JUMPDEST PUSH1 0x80 DUP2 ADD SWAP1 DUP2 LT PUSH8 0xFFFFFFFFFFFFFFFF DUP3 GT OR PUSH2 0x982 JUMPI PUSH1 0x40 MSTORE JUMP JUMPDEST PUSH4 0x4E487B71 PUSH1 0xE0 SHL PUSH1 0x0 MSTORE PUSH1 0x41 PUSH1 0x4 MSTORE PUSH1 0x24 PUSH1 0x0 REVERT JUMPDEST PUSH1 0x60 DUP2 ADD SWAP1 DUP2 LT PUSH8 0xFFFFFFFFFFFFFFFF DUP3 GT OR PUSH2 0x982 JUMPI PUSH1 0x40 MSTORE JUMP JUMPDEST PUSH1 0x20 DUP2 ADD SWAP1 DUP2 LT PUSH8 0xFFFFFFFFFFFFFFFF DUP3 GT OR PUSH2 0x982 JUMPI PUSH1 0x40 MSTORE JUMP JUMPDEST PUSH1 0x40 DUP2 ADD SWAP1 DUP2 LT PUSH8 0xFFFFFFFFFFFFFFFF DUP3 GT OR PUSH2 0x982 JUMPI PUSH1 0x40 MSTORE JUMP JUMPDEST SWAP1 PUSH1 0x1F DUP1 NOT SWAP2 ADD AND DUP2 ADD SWAP1 DUP2 LT PUSH8 0xFFFFFFFFFFFFFFFF DUP3 GT OR PUSH2 0x982 JUMPI PUSH1 0x40 MSTORE JUMP JUMPDEST SWAP2 SWAP1 DUP3 ADD DUP1 SWAP3 GT PUSH2 0x950 JUMPI JUMP JUMPDEST PUSH8 0xFFFFFFFFFFFFFFFF DUP2 GT PUSH2 0x982 JUMPI PUSH1 0x5 SHL PUSH1 0x20 ADD SWAP1 JUMP JUMPDEST SWAP1 PUSH2 0xA3D DUP3 PUSH2 0xA1B JUMP JUMPDEST PUSH2 0xA4A PUSH1 0x40 MLOAD SWAP2 DUP3 PUSH2 0x9EC JUMP JUMPDEST DUP3 DUP2 MSTORE DUP1 SWAP3 PUSH2 0xA5B PUSH1 0x1F NOT SWAP2 PUSH2 0xA1B JUMP JUMPDEST ADD SWAP1 PUSH1 0x20 CALLDATASIZE SWAP2 ADD CALLDATACOPY JUMP JUMPDEST SWAP1 DUP2 MSTORE PUSH2 0xA7F PUSH1 0x20 SWAP3 PUSH1 0x60 PUSH1 0x20 DUP5 ADD MSTORE PUSH1 0x60 DUP4 ADD SWAP1 PUSH2 0x906 JUMP JUMPDEST SWAP1 PUSH1 0x40 DUP2 DUP4 SUB SWAP2 ADD MSTORE PUSH1 0x20 DUP1 DUP5 MLOAD SWAP3 DUP4 DUP2 MSTORE ADD SWAP4 ADD SWAP2 PUSH1 0x0 JUMPDEST DUP3 DUP2 LT PUSH2 0xAA6 JUMPI POP POP POP POP SWAP1 JUMP JUMPDEST DUP4 MLOAD DUP6 MSTORE SWAP4 DUP2 ADD SWAP4 SWAP3 DUP2 ADD SWAP3 PUSH1 0x1 ADD PUSH2 0xA98 JUMP JUMPDEST DUP1 MLOAD ISZERO PUSH2 0x8F0 JUMPI PUSH1 0x20 ADD SWAP1 JUMP JUMPDEST DUP1 MLOAD DUP3 LT ISZERO PUSH2 0x8F0 JUMPI PUSH1 0x20 SWAP2 PUSH1 0x5 SHL ADD ADD SWAP1 JUMP JUMPDEST SWAP1 PUSH1 0x3 DUP2 LT ISZERO PUSH2 0x8F0 JUMPI PUSH1 0x5 SHL ADD SWAP1 JUMP JUMPDEST PUSH1 0x9 SLOAD DUP1 TIMESTAMP LT PUSH2 0x135B JUMPI PUSH1 0x5 SLOAD PUSH2 0xB02 SWAP2 PUSH2 0xA0E JUMP JUMPDEST TIMESTAMP LT ISZERO PUSH2 0x12BE JUMPI PUSH1 0x4 SWAP1 PUSH1 0x20 PUSH1 0x1 PUSH1 0x1 PUSH1 0xA0 SHL SUB PUSH1 0x1 SLOAD AND PUSH1 0x40 MLOAD SWAP4 DUP5 DUP1 SWAP3 PUSH4 0x8E15F473 PUSH1 0xE0 SHL DUP3 MSTORE GAS STATICCALL SWAP2 DUP3 ISZERO PUSH2 0x12B2 JUMPI PUSH1 0x0 SWAP3 PUSH2 0x127E JUMPI JUMPDEST POP PUSH5 0x2540BE400 SWAP2 DUP1 DUP4 DUP2 MUL DIV DUP4 EQ DUP2 ISZERO OR ISZERO PUSH2 0x950 JUMPI DUP3 DUP2 MUL PUSH1 0x7 SSTORE PUSH1 0x8 SLOAD ISZERO PUSH2 0x11CC JUMPI PUSH1 0x8 SLOAD PUSH1 0x1 DUP2 EQ PUSH2 0x1052 JUMPI POP PUSH1 0x2 PUSH1 0x8 SLOAD EQ PUSH2 0xED5 JUMPI SWAP2 PUSH1 0x40 MLOAD SWAP1 PUSH2 0xB85 DUP3 PUSH2 0x998 JUMP JUMPDEST PUSH1 0x0 JUMPDEST PUSH1 0x60 DUP2 LT PUSH2 0xEA5 JUMPI POP PUSH1 0x0 SWAP4 DUP5 SWAP2 PUSH1 0x8 SLOAD SWAP2 JUMPDEST DUP3 DUP5 LT PUSH2 0xD66 JUMPI POP POP POP POP PUSH1 0xB SLOAD PUSH1 0x2 SLOAD SWAP1 DUP2 DUP2 MUL SWAP2 DUP2 DUP4 DIV EQ DUP2 ISZERO OR ISZERO PUSH2 0x950 JUMPI PUSH2 0xBCF PUSH2 0x2710 PUSH2 0xBD8 SWAP4 DIV DUP1 SWAP3 PUSH2 0x943 JUMP JUMPDEST PUSH1 0xB SSTORE CALLER PUSH2 0x13AA JUMP JUMPDEST PUSH1 0xB SLOAD PUSH2 0xBE4 DUP5 PUSH2 0xA33 JUMP JUMPDEST SWAP2 PUSH2 0xBEE DUP6 PUSH2 0xA33 JUMP JUMPDEST SWAP5 PUSH1 0x0 JUMPDEST DUP2 DUP2 LT PUSH2 0xCDE JUMPI POP POP POP POP DUP1 MLOAD SWAP3 PUSH8 0xFFFFFFFFFFFFFFFF DUP5 GT PUSH2 0x982 JUMPI PUSH1 0x1 PUSH1 0x40 SHL DUP5 GT PUSH2 0x982 JUMPI PUSH1 0xF SLOAD DUP5 PUSH1 0xF SSTORE DUP1 DUP6 LT PUSH2 0xCAF JUMPI JUMPDEST POP PUSH1 0x20 DUP3 ADD SWAP4 PUSH1 0xF PUSH1 0x0 MSTORE PUSH1 0x0 JUMPDEST DUP2 DUP2 LT PUSH2 0xC84 JUMPI POP POP PUSH32 0x4FD7288032271E74AFA3073BDAD87433C58165B48192FEE01CB3CA4D114C3A0F SWAP3 SWAP4 POP PUSH2 0xC77 PUSH1 0xC SLOAD SWAP2 PUSH1 0x40 MLOAD SWAP4 DUP5 SWAP4 DUP5 PUSH2 0xA65 JUMP JUMPDEST SUB SWAP1 LOG1 PUSH2 0xC82 PUSH2 0x144A JUMP JUMPDEST JUMP JUMPDEST PUSH1 0x1 SWAP1 PUSH1 0x20 PUSH1 0x1 PUSH1 0x1 PUSH1 0xA0 SHL SUB DUP9 MLOAD AND SWAP8 ADD SWAP7 DUP2 PUSH1 0x0 DUP1 MLOAD PUSH1 0x20 PUSH2 0x1516 DUP4 CODECOPY DUP2 MLOAD SWAP2 MSTORE ADD SSTORE ADD PUSH2 0xC37 JUMP JUMPDEST DUP5 PUSH1 0x0 DUP1 MLOAD PUSH1 0x20 PUSH2 0x1516 DUP4 CODECOPY DUP2 MLOAD SWAP2 MSTORE SWAP2 DUP3 ADD SWAP2 ADD JUMPDEST DUP2 DUP2 LT PUSH2 0xCD2 JUMPI POP PUSH2 0xC29 JUMP JUMPDEST PUSH1 0x0 DUP2 SSTORE PUSH1 0x1 ADD PUSH2 0xCC5 JUMP JUMPDEST PUSH1 0x1 PUSH1 0x1 PUSH1 0xA0 SHL SUB PUSH1 0x1 PUSH2 0xCFC PUSH2 0xCF5 DUP5 DUP8 PUSH2 0xADB JUMP JUMPDEST MLOAD MLOAD PUSH2 0x8B6 JUMP JUMPDEST POP ADD SLOAD AND PUSH2 0xD0A DUP3 DUP8 PUSH2 0xAC7 JUMP JUMPDEST MSTORE DUP2 ISZERO PUSH2 0xD50 JUMPI PUSH1 0x1 SWAP1 DUP3 DUP6 DIV PUSH2 0xD21 DUP3 DUP11 PUSH2 0xAC7 JUMP JUMPDEST MSTORE PUSH2 0xD4A PUSH1 0x1 PUSH1 0x1 PUSH1 0xA0 SHL SUB PUSH2 0xD37 DUP4 DUP10 PUSH2 0xAC7 JUMP JUMPDEST MLOAD AND PUSH2 0xD43 DUP4 DUP12 PUSH2 0xAC7 JUMP JUMPDEST MLOAD SWAP1 PUSH2 0x13AA JUMP JUMPDEST ADD PUSH2 0xBF2 JUMP JUMPDEST PUSH4 0x4E487B71 PUSH1 0xE0 SHL PUSH1 0x0 MSTORE PUSH1 0x12 PUSH1 0x4 MSTORE PUSH1 0x24 PUSH1 0x0 REVERT JUMPDEST SWAP1 SWAP2 SWAP3 SWAP6 PUSH2 0xD73 DUP8 PUSH2 0x8B6 JUMP JUMPDEST POP PUSH1 0x2 ADD SLOAD DUP3 DUP5 MUL LT ISZERO PUSH2 0xE87 JUMPI PUSH2 0xD9B PUSH2 0xD8D DUP9 PUSH2 0x8B6 JUMP JUMPDEST POP PUSH1 0x2 DUP6 DUP6 MUL SWAP2 ADD SLOAD PUSH2 0x943 JUMP JUMPDEST PUSH1 0x3 DUP3 LT ISZERO PUSH2 0xDEF JUMPI PUSH1 0x40 MLOAD SWAP1 PUSH2 0xDB1 DUP3 PUSH2 0x998 JUMP JUMPDEST DUP9 DUP3 MSTORE PUSH1 0x20 DUP3 ADD MSTORE PUSH1 0x1 PUSH1 0x40 DUP3 ADD MSTORE PUSH2 0xDCA DUP3 DUP8 PUSH2 0xADB JUMP JUMPDEST MSTORE PUSH2 0xDD5 DUP2 DUP7 PUSH2 0xADB JUMP JUMPDEST POP PUSH1 0x0 NOT DUP2 EQ PUSH2 0x950 JUMPI PUSH1 0x1 DUP1 SWAP2 ADD SWAP7 JUMPDEST ADD SWAP3 SWAP2 SWAP1 PUSH2 0xB9B JUMP JUMPDEST PUSH1 0x0 SWAP8 SWAP2 SWAP8 PUSH1 0x20 DUP8 MLOAD ADD MLOAD PUSH1 0x1 JUMPDEST PUSH1 0x3 DUP2 LT PUSH2 0xE51 JUMPI POP SWAP1 DUP3 SWAP2 PUSH1 0x1 SWAP5 SWAP4 LT PUSH2 0xE1A JUMPI JUMPDEST POP POP PUSH2 0xDE6 JUMP JUMPDEST PUSH1 0x40 MLOAD PUSH2 0xE49 SWAP3 PUSH2 0xE2A DUP3 PUSH2 0x998 JUMP JUMPDEST DUP5 DUP3 MSTORE PUSH1 0x20 DUP3 ADD MSTORE DUP5 PUSH1 0x40 DUP3 ADD MSTORE PUSH2 0xE42 DUP3 DUP11 PUSH2 0xADB JUMP JUMPDEST MSTORE DUP8 PUSH2 0xADB JUMP JUMPDEST POP CODESIZE DUP1 PUSH2 0xE13 JUMP JUMPDEST DUP2 PUSH1 0x20 PUSH2 0xE5E DUP4 DUP13 PUSH2 0xADB JUMP JUMPDEST MLOAD ADD MLOAD GT PUSH2 0xE6F JUMPI JUMPDEST PUSH1 0x1 ADD PUSH2 0xDFD JUMP JUMPDEST SWAP2 POP POP PUSH1 0x20 PUSH2 0xE7E DUP3 DUP10 PUSH2 0xADB JUMP JUMPDEST MLOAD ADD MLOAD DUP2 PUSH2 0xE67 JUMP JUMPDEST PUSH2 0xEA0 PUSH1 0x2 PUSH2 0xE95 DUP10 PUSH2 0x8B6 JUMP JUMPDEST POP ADD SLOAD DUP5 DUP5 MUL PUSH2 0x943 JUMP JUMPDEST PUSH2 0xD9B JUMP JUMPDEST PUSH1 0x20 SWAP1 PUSH1 0x40 SWAP6 SWAP3 SWAP6 MLOAD PUSH2 0xEB7 DUP2 PUSH2 0x998 JUMP JUMPDEST PUSH1 0x0 DUP2 MSTORE PUSH1 0x0 DUP4 DUP3 ADD MSTORE PUSH1 0x0 PUSH1 0x40 DUP3 ADD MSTORE DUP2 DUP6 ADD MSTORE ADD SWAP4 SWAP1 SWAP4 PUSH2 0xB88 JUMP JUMPDEST POP SWAP1 POP PUSH1 0x40 MLOAD PUSH2 0xEE4 DUP2 PUSH2 0x998 JUMP JUMPDEST PUSH1 0x2 DUP2 MSTORE PUSH1 0x20 DUP2 ADD SWAP1 PUSH1 0x40 CALLDATASIZE DUP4 CALLDATACOPY PUSH1 0x40 MLOAD PUSH2 0xEFE DUP2 PUSH2 0x998 JUMP JUMPDEST PUSH1 0x2 DUP2 MSTORE PUSH1 0x40 CALLDATASIZE PUSH1 0x20 DUP4 ADD CALLDATACOPY DUP2 PUSH1 0xB SLOAD PUSH1 0x1 SHR PUSH1 0x0 JUMPDEST PUSH1 0x2 DUP2 LT PUSH2 0xFF6 JUMPI POP POP PUSH32 0x4FD7288032271E74AFA3073BDAD87433C58165B48192FEE01CB3CA4D114C3A0F SWAP2 PUSH2 0xF53 PUSH1 0xC SLOAD SWAP2 PUSH1 0x40 MLOAD SWAP4 DUP5 SWAP4 DUP5 PUSH2 0xA65 JUMP JUMPDEST SUB SWAP1 LOG1 MLOAD SWAP1 PUSH8 0xFFFFFFFFFFFFFFFF DUP3 GT PUSH2 0x982 JUMPI PUSH1 0x1 PUSH1 0x40 SHL DUP3 GT PUSH2 0x982 JUMPI PUSH1 0xF SLOAD DUP3 PUSH1 0xF SSTORE DUP1 DUP4 LT PUSH2 0xFC7 JUMPI JUMPDEST POP PUSH1 0xF PUSH1 0x0 MSTORE PUSH1 0x0 JUMPDEST DUP3 DUP2 LT PUSH2 0xF9C JUMPI POP POP POP PUSH2 0xC82 PUSH2 0x144A JUMP JUMPDEST PUSH1 0x1 SWAP1 PUSH1 0x20 PUSH1 0x1 PUSH1 0x1 PUSH1 0xA0 SHL SUB DUP5 MLOAD AND SWAP4 ADD SWAP3 DUP2 PUSH1 0x0 DUP1 MLOAD PUSH1 0x20 PUSH2 0x1516 DUP4 CODECOPY DUP2 MLOAD SWAP2 MSTORE ADD SSTORE ADD PUSH2 0xF8A JUMP JUMPDEST DUP3 PUSH1 0x0 DUP1 MLOAD PUSH1 0x20 PUSH2 0x1516 DUP4 CODECOPY DUP2 MLOAD SWAP2 MSTORE SWAP2 DUP3 ADD SWAP2 ADD JUMPDEST DUP2 DUP2 LT PUSH2 0xFEA JUMPI POP PUSH2 0xF81 JUMP JUMPDEST PUSH1 0x0 DUP2 SSTORE PUSH1 0x1 ADD PUSH2 0xFDD JUMP JUMPDEST PUSH1 0x1 SWAP2 SWAP3 POP PUSH1 0x1 PUSH1 0x1 PUSH1 0xA0 SHL SUB DUP3 PUSH2 0x100D DUP4 PUSH2 0x8B6 JUMP JUMPDEST POP ADD SLOAD AND PUSH2 0x101B DUP3 DUP8 PUSH2 0xAC7 JUMP JUMPDEST MSTORE DUP3 PUSH2 0x1027 DUP3 DUP7 PUSH2 0xAC7 JUMP JUMPDEST MSTORE PUSH2 0x1049 PUSH1 0x1 PUSH1 0x1 PUSH1 0xA0 SHL SUB PUSH2 0x103D DUP4 DUP9 PUSH2 0xAC7 JUMP JUMPDEST MLOAD AND PUSH2 0xD43 DUP4 DUP8 PUSH2 0xAC7 JUMP JUMPDEST ADD SWAP1 DUP4 SWAP2 PUSH2 0xF14 JUMP JUMPDEST SWAP2 SWAP3 POP POP PUSH1 0x40 MLOAD PUSH2 0x1062 DUP2 PUSH2 0x9D0 JUMP JUMPDEST PUSH1 0x1 DUP2 MSTORE PUSH1 0x20 DUP2 ADD SWAP2 PUSH1 0x20 CALLDATASIZE DUP5 CALLDATACOPY PUSH1 0x40 MLOAD SWAP1 PUSH2 0x107D DUP3 PUSH2 0x9D0 JUMP JUMPDEST PUSH1 0x1 DUP3 MSTORE PUSH1 0x20 CALLDATASIZE DUP2 DUP5 ADD CALLDATACOPY ISZERO PUSH2 0x8F0 JUMPI DUP2 PUSH32 0x4FD7288032271E74AFA3073BDAD87433C58165B48192FEE01CB3CA4D114C3A0F SWAP2 PUSH1 0x8 PUSH1 0x0 MSTORE PUSH1 0x1 PUSH1 0x1 PUSH1 0xA0 SHL SUB PUSH32 0xF3F7A9FE364FAAB93B216DA50A3214154F22A0A2B415B23A84C8169E8B636EE4 SLOAD AND PUSH2 0x10E9 DUP4 PUSH2 0xABA JUMP JUMPDEST MSTORE PUSH1 0xB SLOAD PUSH2 0x10F6 DUP3 PUSH2 0xABA JUMP JUMPDEST MSTORE PUSH2 0x1116 PUSH1 0x1 PUSH1 0x1 PUSH1 0xA0 SHL SUB PUSH2 0x110B DUP5 PUSH2 0xABA JUMP JUMPDEST MLOAD AND PUSH2 0xD43 DUP4 PUSH2 0xABA JUMP JUMPDEST PUSH2 0x1129 PUSH1 0xC SLOAD SWAP2 PUSH1 0x40 MLOAD SWAP4 DUP5 SWAP4 DUP5 PUSH2 0xA65 JUMP JUMPDEST SUB SWAP1 LOG1 MLOAD SWAP1 PUSH8 0xFFFFFFFFFFFFFFFF DUP3 GT PUSH2 0x982 JUMPI PUSH1 0x1 PUSH1 0x40 SHL DUP3 GT PUSH2 0x982 JUMPI PUSH1 0xF SLOAD DUP3 PUSH1 0xF SSTORE DUP1 DUP4 LT PUSH2 0x119D JUMPI JUMPDEST POP PUSH1 0xF PUSH1 0x0 MSTORE PUSH1 0x0 JUMPDEST DUP3 DUP2 LT PUSH2 0x1172 JUMPI POP POP POP PUSH2 0xC82 PUSH2 0x144A JUMP JUMPDEST PUSH1 0x1 SWAP1 PUSH1 0x20 PUSH1 0x1 PUSH1 0x1 PUSH1 0xA0 SHL SUB DUP5 MLOAD AND SWAP4 ADD SWAP3 DUP2 PUSH1 0x0 DUP1 MLOAD PUSH1 0x20 PUSH2 0x1516 DUP4 CODECOPY DUP2 MLOAD SWAP2 MSTORE ADD SSTORE ADD PUSH2 0x1160 JUMP JUMPDEST DUP3 PUSH1 0x0 DUP1 MLOAD PUSH1 0x20 PUSH2 0x1516 DUP4 CODECOPY DUP2 MLOAD SWAP2 MSTORE SWAP2 DUP3 ADD SWAP2 ADD JUMPDEST DUP2 DUP2 LT PUSH2 0x11C0 JUMPI POP PUSH2 0x1157 JUMP JUMPDEST PUSH1 0x0 DUP2 SSTORE PUSH1 0x1 ADD PUSH2 0x11B3 JUMP JUMPDEST POP SWAP1 POP PUSH32 0x4FD7288032271E74AFA3073BDAD87433C58165B48192FEE01CB3CA4D114C3A0F PUSH1 0xC SLOAD PUSH1 0x40 MLOAD SWAP1 PUSH2 0x1200 DUP3 PUSH2 0x9B4 JUMP JUMPDEST PUSH1 0x0 DUP3 MSTORE PUSH2 0x1223 PUSH1 0x40 MLOAD PUSH2 0x1213 DUP2 PUSH2 0x9B4 JUMP JUMPDEST PUSH1 0x0 DUP2 MSTORE PUSH1 0x40 MLOAD SWAP4 DUP5 SWAP4 DUP5 PUSH2 0xA65 JUMP JUMPDEST SUB SWAP1 LOG1 PUSH1 0x0 PUSH1 0x40 MLOAD PUSH2 0x1234 DUP2 PUSH2 0x9B4 JUMP JUMPDEST MSTORE PUSH1 0xF SLOAD PUSH1 0x0 PUSH1 0xF SSTORE DUP1 PUSH2 0x1251 JUMPI JUMPDEST POP PUSH1 0xF PUSH1 0x0 MSTORE PUSH2 0xC82 PUSH2 0x144A JUMP JUMPDEST PUSH1 0x0 DUP1 MLOAD PUSH1 0x20 PUSH2 0x1516 DUP4 CODECOPY DUP2 MLOAD SWAP2 MSTORE SWAP1 DUP2 ADD SWAP1 JUMPDEST DUP2 DUP2 LT PUSH2 0x1272 JUMPI POP PUSH2 0x1243 JUMP JUMPDEST PUSH1 0x0 DUP2 SSTORE PUSH1 0x1 ADD PUSH2 0x1265 JUMP JUMPDEST SWAP1 SWAP2 PUSH1 0x20 DUP3 RETURNDATASIZE PUSH1 0x20 GT PUSH2 0x12AA JUMPI JUMPDEST DUP2 PUSH2 0x1299 PUSH1 0x20 SWAP4 DUP4 PUSH2 0x9EC JUMP JUMPDEST DUP2 ADD SUB SLT PUSH2 0x1BB JUMPI POP MLOAD SWAP1 CODESIZE PUSH2 0xB3C JUMP JUMPDEST RETURNDATASIZE SWAP2 POP PUSH2 0x128C JUMP JUMPDEST PUSH1 0x40 MLOAD RETURNDATASIZE PUSH1 0x0 DUP3 RETURNDATACOPY RETURNDATASIZE SWAP1 REVERT JUMPDEST PUSH1 0x0 JUMPDEST PUSH1 0x8 SLOAD DUP2 LT ISZERO PUSH2 0x1301 JUMPI DUP1 PUSH2 0x12FB PUSH1 0x1 PUSH1 0x1 PUSH1 0xA0 SHL SUB PUSH1 0x1 PUSH2 0x12E3 DUP2 SWAP6 PUSH2 0x8B6 JUMP JUMPDEST POP ADD SLOAD AND PUSH1 0x3 PUSH2 0x12F2 DUP5 PUSH2 0x8B6 JUMP JUMPDEST POP ADD SLOAD SWAP1 PUSH2 0x13AA JUMP JUMPDEST ADD PUSH2 0x12C1 JUMP JUMPDEST POP PUSH32 0x4FD7288032271E74AFA3073BDAD87433C58165B48192FEE01CB3CA4D114C3A0F PUSH1 0xC SLOAD PUSH1 0x40 MLOAD SWAP1 PUSH2 0x1333 DUP3 PUSH2 0x9B4 JUMP JUMPDEST PUSH1 0x0 DUP3 MSTORE PUSH2 0xC77 PUSH1 0x40 MLOAD PUSH2 0x1346 DUP2 PUSH2 0x9B4 JUMP JUMPDEST PUSH1 0x0 DUP2 MSTORE PUSH1 0x0 CALLDATASIZE DUP2 CALLDATACOPY PUSH1 0x40 MLOAD SWAP4 DUP5 SWAP4 DUP5 PUSH2 0xA65 JUMP JUMPDEST PUSH1 0x40 MLOAD PUSH3 0x461BCD PUSH1 0xE5 SHL DUP2 MSTORE PUSH1 0x20 PUSH1 0x4 DUP3 ADD MSTORE PUSH1 0x21 PUSH1 0x24 DUP3 ADD MSTORE PUSH32 0x546F75726E616D656E742063616E6E6F74206265207265736F6C766564207965 PUSH1 0x44 DUP3 ADD MSTORE PUSH1 0x1D PUSH1 0xFA SHL PUSH1 0x64 DUP3 ADD MSTORE PUSH1 0x84 SWAP1 REVERT JUMPDEST DUP2 SELFBALANCE LT PUSH2 0x1432 JUMPI PUSH1 0x1 PUSH1 0x1 PUSH1 0xA0 SHL SUB SWAP1 PUSH1 0x0 DUP1 DUP1 SWAP5 DUP2 SWAP5 DUP3 SWAP5 AND GAS CALL SWAP1 RETURNDATASIZE ISZERO PUSH2 0x142C JUMPI RETURNDATASIZE SWAP1 PUSH8 0xFFFFFFFFFFFFFFFF DUP3 GT PUSH2 0x1418 JUMPI PUSH1 0x40 MLOAD SWAP2 PUSH2 0x13F6 PUSH1 0x1F DUP3 ADD PUSH1 0x1F NOT AND PUSH1 0x20 ADD DUP5 PUSH2 0x9EC JUMP JUMPDEST DUP3 MSTORE PUSH1 0x20 RETURNDATASIZE SWAP3 ADD RETURNDATACOPY JUMPDEST ISZERO PUSH2 0x1406 JUMPI JUMP JUMPDEST PUSH1 0x40 MLOAD PUSH4 0xA12F521 PUSH1 0xE1 SHL DUP2 MSTORE PUSH1 0x4 SWAP1 REVERT JUMPDEST PUSH4 0x4E487B71 PUSH1 0xE0 SHL DUP2 MSTORE PUSH1 0x41 PUSH1 0x4 MSTORE PUSH1 0x24 SWAP1 REVERT JUMPDEST POP PUSH2 0x13FF JUMP JUMPDEST PUSH1 0x40 MLOAD PUSH4 0xCD786059 PUSH1 0xE0 SHL DUP2 MSTORE ADDRESS PUSH1 0x4 DUP3 ADD MSTORE PUSH1 0x24 SWAP1 REVERT JUMPDEST PUSH1 0x8 SLOAD PUSH1 0x0 SWAP1 DUP2 PUSH1 0x8 SSTORE DUP1 PUSH2 0x1497 JUMPI JUMPDEST POP DUP1 PUSH1 0xB SSTORE PUSH2 0x146B PUSH1 0x4 SLOAD TIMESTAMP PUSH2 0xA0E JUMP JUMPDEST PUSH1 0x9 SSTORE PUSH1 0xC SLOAD SWAP1 PUSH1 0x1 DUP3 ADD DUP1 SWAP3 GT PUSH2 0x1483 JUMPI POP PUSH1 0xC SSTORE JUMP JUMPDEST PUSH4 0x4E487B71 PUSH1 0xE0 SHL DUP2 MSTORE PUSH1 0x11 PUSH1 0x4 MSTORE PUSH1 0x24 SWAP1 REVERT JUMPDEST PUSH1 0x2 PUSH1 0x1 PUSH1 0x1 PUSH1 0xFE SHL SUB DUP3 AND DUP3 SUB PUSH2 0x1501 JUMPI PUSH1 0x8 DUP4 MSTORE PUSH32 0xF3F7A9FE364FAAB93B216DA50A3214154F22A0A2B415B23A84C8169E8B636EE3 SWAP2 PUSH1 0x2 SHL DUP3 ADD SWAP2 JUMPDEST DUP3 DUP2 LT PUSH2 0x14E4 JUMPI POP POP PUSH2 0x145A JUMP JUMPDEST DUP1 DUP5 PUSH1 0x4 SWAP3 SSTORE DUP5 PUSH1 0x1 DUP3 ADD SSTORE DUP5 DUP4 DUP3 ADD SSTORE DUP5 PUSH1 0x3 DUP3 ADD SSTORE ADD PUSH2 0x14D6 JUMP JUMPDEST PUSH4 0x4E487B71 PUSH1 0xE0 SHL DUP4 MSTORE PUSH1 0x11 PUSH1 0x4 MSTORE PUSH1 0x24 DUP4 REVERT INVALID DUP14 GT ADDMOD 0xE1 SIGNEXTEND 0xCB PUSH29 0x27DDDFC02ED9D693A074039D026CF4EA4240B40F7D581AC802A2646970 PUSH7 0x735822122047A8 CALLDATALOAD 0xBF LOG1 0x24 PUSH6 0x35DA09FC1F47 0xB0 PUSH17 0x3279FD07A2CD5FAC71BEA7F5D276970421 PUSH5 0x736F6C6343 STOP ADDMOD NOT STOP CALLER "},"gasEstimates":{"creation":{"codeDepositCost":"1096600","executionCost":"infinite","totalCost":"infinite"},"external":{"currentRound()":"2560","getCurrentPricePool()":"2450","getCurrentRound()":"2670","getCurrentRoundPartecipants()":"2758","getLastWinners()":"infinite","getLatestRoundPrice()":"2428","getMaxPartecipants()":"2362","getNextVerificationTime()":"2384","getPartecipants()":"infinite","getPredictions()":"infinite","getPrice()":"infinite","isRoundOpen()":"2737","keeperPercentageFee()":"2318","lastRoundPrice()":"2582","maxParticipants()":"2340","oracle()":"2534","predictions(uint256)":"12989","priceFeedAddress()":"2754","prizePool()":"2472","resolutionEndTime()":"2803","resolveTournament()":"infinite","roundWinners(uint256)":"infinite","submissionEndTime()":"2406","submitPrediction(uint256)":"154484","verificationEndTime()":"2605","verificationTime()":"2296"},"internal":{"_resetTournament()":"infinite"}},"methodIdentifiers":{"currentRound()":"8a19c8bc","getCurrentPricePool()":"5d21b255","getCurrentRound()":"a32bf597","getCurrentRoundPartecipants()":"e2f1dcc6","getLastWinners()":"95690936","getLatestRoundPrice()":"58f6b9c5","getMaxPartecipants()":"308d19ab","getNextVerificationTime()":"344c8e37","getPartecipants()":"f9ceb3ea","getPredictions()":"c78c3a83","getPrice()":"98d5fdca","isRoundOpen()":"bb9b110b","keeperPercentageFee()":"149c6dac","lastRoundPrice()":"8dd78d67","maxParticipants()":"24924bf7","oracle()":"7dc0d1d0","predictions(uint256)":"004fbbb0","priceFeedAddress()":"e0abca0b","prizePool()":"719ce73e","resolutionEndTime()":"f985ad93","resolveTournament()":"ef949f4a","roundWinners(uint256)":"76a4956c","submissionEndTime()":"532eaca0","submitPrediction(uint256)":"85d62b45","verificationEndTime()":"93bc976e","verificationTime()":"00614418"}},"storageLayout":{"storage":[{"astId":1573,"contract":"contracts/community/Tournament.sol:Tournament","label":"_status","offset":0,"slot":"0","type":"t_uint256"},{"astId":3391,"contract":"contracts/community/Tournament.sol:Tournament","label":"oracle","offset":0,"slot":"1","type":"t_contract(Oracle)7912"},{"astId":3394,"contract":"contracts/community/Tournament.sol:Tournament","label":"keeperPercentageFee","offset":0,"slot":"2","type":"t_uint256"},{"astId":3397,"contract":"contracts/community/Tournament.sol:Tournament","label":"submissionEndTime","offset":0,"slot":"3","type":"t_uint256"},{"astId":3400,"contract":"contracts/community/Tournament.sol:Tournament","label":"verificationEndTime","offset":0,"slot":"4","type":"t_uint256"},{"astId":3403,"contract":"contracts/community/Tournament.sol:Tournament","label":"resolutionEndTime","offset":0,"slot":"5","type":"t_uint256"},{"astId":3414,"contract":"contracts/community/Tournament.sol:Tournament","label":"maxParticipants","offset":0,"slot":"6","type":"t_uint256"},{"astId":3416,"contract":"contracts/community/Tournament.sol:Tournament","label":"lastRoundPrice","offset":0,"slot":"7","type":"t_uint256"},{"astId":3420,"contract":"contracts/community/Tournament.sol:Tournament","label":"predictions","offset":0,"slot":"8","type":"t_array(t_struct(Prediction)3412_storage)dyn_storage"},{"astId":3422,"contract":"contracts/community/Tournament.sol:Tournament","label":"verificationTime","offset":0,"slot":"9","type":"t_uint256"},{"astId":3424,"contract":"contracts/community/Tournament.sol:Tournament","label":"priceFeedAddress","offset":0,"slot":"10","type":"t_address"},{"astId":3426,"contract":"contracts/community/Tournament.sol:Tournament","label":"prizePool","offset":0,"slot":"11","type":"t_uint256"},{"astId":3429,"contract":"contracts/community/Tournament.sol:Tournament","label":"currentRound","offset":0,"slot":"12","type":"t_uint256"},{"astId":3433,"contract":"contracts/community/Tournament.sol:Tournament","label":"scores","offset":0,"slot":"13","type":"t_mapping(t_uint256,t_uint256)"},{"astId":3437,"contract":"contracts/community/Tournament.sol:Tournament","label":"prizePerScore","offset":0,"slot":"14","type":"t_mapping(t_uint256,t_uint256)"},{"astId":3440,"contract":"contracts/community/Tournament.sol:Tournament","label":"roundWinners","offset":0,"slot":"15","type":"t_array(t_address)dyn_storage"}],"types":{"t_address":{"encoding":"inplace","label":"address","numberOfBytes":"20"},"t_array(t_address)dyn_storage":{"base":"t_address","encoding":"dynamic_array","label":"address[]","numberOfBytes":"32"},"t_array(t_struct(Prediction)3412_storage)dyn_storage":{"base":"t_struct(Prediction)3412_storage","encoding":"dynamic_array","label":"struct Tournament.Prediction[]","numberOfBytes":"32"},"t_contract(Oracle)7912":{"encoding":"inplace","label":"contract Oracle","numberOfBytes":"20"},"t_mapping(t_uint256,t_uint256)":{"encoding":"mapping","key":"t_uint256","label":"mapping(uint256 => uint256)","numberOfBytes":"32","value":"t_uint256"},"t_struct(Prediction)3412_storage":{"encoding":"inplace","label":"struct Tournament.Prediction","members":[{"astId":3405,"contract":"contracts/community/Tournament.sol:Tournament","label":"round","offset":0,"slot":"0","type":"t_uint256"},{"astId":3407,"contract":"contracts/community/Tournament.sol:Tournament","label":"predictor","offset":0,"slot":"1","type":"t_address"},{"astId":3409,"contract":"contracts/community/Tournament.sol:Tournament","label":"predictedPrice","offset":0,"slot":"2","type":"t_uint256"},{"astId":3411,"contract":"contracts/community/Tournament.sol:Tournament","label":"amount","offset":0,"slot":"3","type":"t_uint256"}],"numberOfBytes":"128"},"t_uint256":{"encoding":"inplace","label":"uint256","numberOfBytes":"32"}}},"userdoc":{"kind":"user","methods":{},"version":1}}}}