{"contracts/core/BaluniAgent.sol":{"BaluniAgent":{"abi":[{"inputs":[{"internalType":"address","name":"_owner","type":"address"},{"internalType":"address","name":"_router","type":"address"}],"stateMutability":"nonpayable","type":"constructor"},{"inputs":[{"internalType":"address","name":"target","type":"address"}],"name":"AddressEmptyCode","type":"error"},{"inputs":[{"internalType":"address","name":"account","type":"address"}],"name":"AddressInsufficientBalance","type":"error"},{"inputs":[],"name":"FailedInnerCall","type":"error"},{"inputs":[{"internalType":"address","name":"token","type":"address"}],"name":"SafeERC20FailedOperation","type":"error"},{"inputs":[{"components":[{"internalType":"address","name":"to","type":"address"},{"internalType":"uint256","name":"value","type":"uint256"},{"internalType":"bytes","name":"data","type":"bytes"}],"internalType":"struct BaluniAgent.Call[]","name":"calls","type":"tuple[]"},{"internalType":"address[]","name":"tokensReturn","type":"address[]"}],"name":"execute","outputs":[],"stateMutability":"nonpayable","type":"function"},{"inputs":[],"name":"getRouter","outputs":[{"internalType":"address","name":"","type":"address"}],"stateMutability":"view","type":"function"},{"inputs":[],"name":"owner","outputs":[{"internalType":"address","name":"","type":"address"}],"stateMutability":"view","type":"function"}],"devdoc":{"errors":{"AddressEmptyCode(address)":[{"details":"There's no code at `target` (it is not a contract)."}],"AddressInsufficientBalance(address)":[{"details":"The ETH balance of the account is not enough to perform the operation."}],"FailedInnerCall()":[{"details":"A call to an address target failed. The target may have reverted."}],"SafeERC20FailedOperation(address)":[{"details":"An operation with an ERC20 token failed."}]},"kind":"dev","methods":{"constructor":{"details":"Initializes a new instance of the Agent contract.","params":{"_owner":"The address of the contract owner.","_router":"The address of the router contract."}},"execute((address,uint256,bytes)[],address[])":{"details":"Executes a batch of calls and performs token operations.","params":{"calls":"An array of Call structs representing the calls to be executed.","tokensReturn":"An array of token addresses to return after the batch call."}},"getRouter()":{"details":"Returns the address of the router contract.","returns":{"_0":"The address of the router contract."}}},"version":1},"evm":{"bytecode":{"linkReferences":{},"object":"60803460bc57601f61083438819003918201601f19168301916001600160401b0383118484101760c157808492604094855283398101031260bc57604b602060458360d7565b920160d7565b6001600160a01b0390811691903383900360895760018060a01b03199116816000541617600055600154161760015560405161074990816100eb8239f35b60405162461bcd60e51b815260206004820152600b60248201526a27b7363c902937baba32b960a91b6044820152606490fd5b600080fd5b634e487b7160e01b600052604160045260246000fd5b51906001600160a01b038216820360bc5756fe608060408181526004908136101561001657600080fd5b600092833560e01c9081638da5cb5b1461045357508063b0f479a11461042b5763eedc3c501461004557600080fd5b3461042757806003193601126104275767ffffffffffffffff9082358281116103dc576100759036908501610476565b91909360248035858111610423576100909036908401610476565b90956001600160a01b0395600198878a541633036103e0578a5b82811061031c5750505050848754169084518092630c2fe7ff60e11b8252818660209586935afa908115610312578a916102e1575b50888a5b888a858084106101fb579450505050506100fb578880f35b88805b82811061010b5750508880f35b89918861012161011c84878e610570565b6104e4565b1673eeeeeeeeeeeeeeeeeeeeeeeeeeeeeeeeeeeeeeee81036101605750504761014d575b0189906100fe565b61015b888c5416479061066f565b610145565b88516370a0823160e01b8152308982015292935090919085828881845afa9182156101f157908392918d9594926101bb575b508a600a83116101a6575b50505050610145565b6101b2935416906105a9565b8a38808a61019d565b945090508584813d81116101ea575b6101d481836104f8565b810103126101e6578b93519038610192565b5080fd5b503d6101ca565b89513d85823e3d90fd5b8361011c9161020993610570565b1673eeeeeeeeeeeeeeeeeeeeeeeeeeeeeeeeeeeeeeee810361024857506102406127106102368547610580565b048a84541661066f565b0189906100e3565b88516370a0823160e01b815230898201529192509085818881855afa908d82156102d6578d94939286929061029b575b5061028a610296939261271092610580565b04908b855416906105a9565b610240565b92945050508581813d83116102cf575b6102b581836104f8565b810103126102cb57518b9290849061028a610278565b8c80fd5b503d6102ab565b8a51903d90823e3d90fd5b90508281813d831161030b575b6102f881836104f8565b810103126103075751386100df565b8980fd5b503d6102ee565b86513d8c823e3d90fd5b61032a61011c8285856104ac565b8c6020918261033a8588886104ac565b0135906103488588886104ac565b8c81013590601e19813603018212156103dc57018035908982116103dc5785019281360384136103dc578493828f519384928337810185815203925af161038d610530565b501561039b57508a016100aa565b876011886064938c519362461bcd60e51b85528401528201527f42617463682063616c6c206661696c65640000000000000000000000000000006044820152fd5b8480fd5b865162461bcd60e51b8152602081880152601b60248201527f43616c6c61626c65206f6e6c792062792074686520726f7574657200000000006044820152606490fd5b8780fd5b8280fd5b8382346101e657816003193601126101e6576020906001600160a01b03600154169051908152f35b8490346101e657816003193601126101e6576001600160a01b0360209254168152f35b9181601f840112156104a75782359167ffffffffffffffff83116104a7576020808501948460051b0101116104a757565b600080fd5b91908110156104ce5760051b81013590605e19813603018212156104a7570190565b634e487b7160e01b600052603260045260246000fd5b356001600160a01b03811681036104a75790565b90601f8019910116810190811067ffffffffffffffff82111761051a57604052565b634e487b7160e01b600052604160045260246000fd5b3d1561056b573d9067ffffffffffffffff821161051a576040519161055f601f8201601f1916602001846104f8565b82523d6000602084013e565b606090565b91908110156104ce5760051b0190565b8181029291811591840414171561059357565b634e487b7160e01b600052601160045260246000fd5b91909160405192602084019263a9059cbb60e01b84526001600160a01b038092166024860152604485015260448452608084019184831067ffffffffffffffff84111761051a57610614926040521692600080938192519082875af161060d610530565b90846106c2565b908151918215159283610644575b50505061062c5750565b60249060405190635274afe760e01b82526004820152fd5b8192935090602091810103126101e657602001519081159182150361066c5750388080610622565b80fd5b8147106106aa5760008080936001600160a01b038294165af1610690610530565b501561069857565b604051630a12f52160e11b8152600490fd5b60405163cd78605960e01b8152306004820152602490fd5b906106d7575080511561069857805190602001fd5b8151158061070a575b6106e8575090565b604051639996b31560e01b81526001600160a01b039091166004820152602490fd5b50803b156106e056fea26469706673582212205930771bdac7a28577e83853179585c14d2d1de60202bee4d616bc2925c9934164736f6c63430008190033","opcodes":"PUSH1 0x80 CALLVALUE PUSH1 0xBC JUMPI PUSH1 0x1F PUSH2 0x834 CODESIZE DUP2 SWAP1 SUB SWAP2 DUP3 ADD PUSH1 0x1F NOT AND DUP4 ADD SWAP2 PUSH1 0x1 PUSH1 0x1 PUSH1 0x40 SHL SUB DUP4 GT DUP5 DUP5 LT OR PUSH1 0xC1 JUMPI DUP1 DUP5 SWAP3 PUSH1 0x40 SWAP5 DUP6 MSTORE DUP4 CODECOPY DUP2 ADD SUB SLT PUSH1 0xBC JUMPI PUSH1 0x4B PUSH1 0x20 PUSH1 0x45 DUP4 PUSH1 0xD7 JUMP JUMPDEST SWAP3 ADD PUSH1 0xD7 JUMP JUMPDEST PUSH1 0x1 PUSH1 0x1 PUSH1 0xA0 SHL SUB SWAP1 DUP2 AND SWAP2 SWAP1 CALLER DUP4 SWAP1 SUB PUSH1 0x89 JUMPI PUSH1 0x1 DUP1 PUSH1 0xA0 SHL SUB NOT SWAP2 AND DUP2 PUSH1 0x0 SLOAD AND OR PUSH1 0x0 SSTORE PUSH1 0x1 SLOAD AND OR PUSH1 0x1 SSTORE PUSH1 0x40 MLOAD PUSH2 0x749 SWAP1 DUP2 PUSH2 0xEB DUP3 CODECOPY RETURN JUMPDEST PUSH1 0x40 MLOAD PUSH3 0x461BCD PUSH1 0xE5 SHL DUP2 MSTORE PUSH1 0x20 PUSH1 0x4 DUP3 ADD MSTORE PUSH1 0xB PUSH1 0x24 DUP3 ADD MSTORE PUSH11 0x27B7363C902937BABA32B9 PUSH1 0xA9 SHL PUSH1 0x44 DUP3 ADD MSTORE PUSH1 0x64 SWAP1 REVERT JUMPDEST PUSH1 0x0 DUP1 REVERT JUMPDEST PUSH4 0x4E487B71 PUSH1 0xE0 SHL PUSH1 0x0 MSTORE PUSH1 0x41 PUSH1 0x4 MSTORE PUSH1 0x24 PUSH1 0x0 REVERT JUMPDEST MLOAD SWAP1 PUSH1 0x1 PUSH1 0x1 PUSH1 0xA0 SHL SUB DUP3 AND DUP3 SUB PUSH1 0xBC JUMPI JUMP INVALID PUSH1 0x80 PUSH1 0x40 DUP2 DUP2 MSTORE PUSH1 0x4 SWAP1 DUP2 CALLDATASIZE LT ISZERO PUSH2 0x16 JUMPI PUSH1 0x0 DUP1 REVERT JUMPDEST PUSH1 0x0 SWAP3 DUP4 CALLDATALOAD PUSH1 0xE0 SHR SWAP1 DUP2 PUSH4 0x8DA5CB5B EQ PUSH2 0x453 JUMPI POP DUP1 PUSH4 0xB0F479A1 EQ PUSH2 0x42B JUMPI PUSH4 0xEEDC3C50 EQ PUSH2 0x45 JUMPI PUSH1 0x0 DUP1 REVERT JUMPDEST CALLVALUE PUSH2 0x427 JUMPI DUP1 PUSH1 0x3 NOT CALLDATASIZE ADD SLT PUSH2 0x427 JUMPI PUSH8 0xFFFFFFFFFFFFFFFF SWAP1 DUP3 CALLDATALOAD DUP3 DUP2 GT PUSH2 0x3DC JUMPI PUSH2 0x75 SWAP1 CALLDATASIZE SWAP1 DUP6 ADD PUSH2 0x476 JUMP JUMPDEST SWAP2 SWAP1 SWAP4 PUSH1 0x24 DUP1 CALLDATALOAD DUP6 DUP2 GT PUSH2 0x423 JUMPI PUSH2 0x90 SWAP1 CALLDATASIZE SWAP1 DUP5 ADD PUSH2 0x476 JUMP JUMPDEST SWAP1 SWAP6 PUSH1 0x1 PUSH1 0x1 PUSH1 0xA0 SHL SUB SWAP6 PUSH1 0x1 SWAP9 DUP8 DUP11 SLOAD AND CALLER SUB PUSH2 0x3E0 JUMPI DUP11 JUMPDEST DUP3 DUP2 LT PUSH2 0x31C JUMPI POP POP POP POP DUP5 DUP8 SLOAD AND SWAP1 DUP5 MLOAD DUP1 SWAP3 PUSH4 0xC2FE7FF PUSH1 0xE1 SHL DUP3 MSTORE DUP2 DUP7 PUSH1 0x20 SWAP6 DUP7 SWAP4 GAS STATICCALL SWAP1 DUP2 ISZERO PUSH2 0x312 JUMPI DUP11 SWAP2 PUSH2 0x2E1 JUMPI JUMPDEST POP DUP9 DUP11 JUMPDEST DUP9 DUP11 DUP6 DUP1 DUP5 LT PUSH2 0x1FB JUMPI SWAP5 POP POP POP POP POP PUSH2 0xFB JUMPI DUP9 DUP1 RETURN JUMPDEST DUP9 DUP1 JUMPDEST DUP3 DUP2 LT PUSH2 0x10B JUMPI POP POP DUP9 DUP1 RETURN JUMPDEST DUP10 SWAP2 DUP9 PUSH2 0x121 PUSH2 0x11C DUP5 DUP8 DUP15 PUSH2 0x570 JUMP JUMPDEST PUSH2 0x4E4 JUMP JUMPDEST AND PUSH20 0xEEEEEEEEEEEEEEEEEEEEEEEEEEEEEEEEEEEEEEEE DUP2 SUB PUSH2 0x160 JUMPI POP POP SELFBALANCE PUSH2 0x14D JUMPI JUMPDEST ADD DUP10 SWAP1 PUSH2 0xFE JUMP JUMPDEST PUSH2 0x15B DUP9 DUP13 SLOAD AND SELFBALANCE SWAP1 PUSH2 0x66F JUMP JUMPDEST PUSH2 0x145 JUMP JUMPDEST DUP9 MLOAD PUSH4 0x70A08231 PUSH1 0xE0 SHL DUP2 MSTORE ADDRESS DUP10 DUP3 ADD MSTORE SWAP3 SWAP4 POP SWAP1 SWAP2 SWAP1 DUP6 DUP3 DUP9 DUP2 DUP5 GAS STATICCALL SWAP2 DUP3 ISZERO PUSH2 0x1F1 JUMPI SWAP1 DUP4 SWAP3 SWAP2 DUP14 SWAP6 SWAP5 SWAP3 PUSH2 0x1BB JUMPI JUMPDEST POP DUP11 PUSH1 0xA DUP4 GT PUSH2 0x1A6 JUMPI JUMPDEST POP POP POP POP PUSH2 0x145 JUMP JUMPDEST PUSH2 0x1B2 SWAP4 SLOAD AND SWAP1 PUSH2 0x5A9 JUMP JUMPDEST DUP11 CODESIZE DUP1 DUP11 PUSH2 0x19D JUMP JUMPDEST SWAP5 POP SWAP1 POP DUP6 DUP5 DUP2 RETURNDATASIZE DUP2 GT PUSH2 0x1EA JUMPI JUMPDEST PUSH2 0x1D4 DUP2 DUP4 PUSH2 0x4F8 JUMP JUMPDEST DUP2 ADD SUB SLT PUSH2 0x1E6 JUMPI DUP12 SWAP4 MLOAD SWAP1 CODESIZE PUSH2 0x192 JUMP JUMPDEST POP DUP1 REVERT JUMPDEST POP RETURNDATASIZE PUSH2 0x1CA JUMP JUMPDEST DUP10 MLOAD RETURNDATASIZE DUP6 DUP3 RETURNDATACOPY RETURNDATASIZE SWAP1 REVERT JUMPDEST DUP4 PUSH2 0x11C SWAP2 PUSH2 0x209 SWAP4 PUSH2 0x570 JUMP JUMPDEST AND PUSH20 0xEEEEEEEEEEEEEEEEEEEEEEEEEEEEEEEEEEEEEEEE DUP2 SUB PUSH2 0x248 JUMPI POP PUSH2 0x240 PUSH2 0x2710 PUSH2 0x236 DUP6 SELFBALANCE PUSH2 0x580 JUMP JUMPDEST DIV DUP11 DUP5 SLOAD AND PUSH2 0x66F JUMP JUMPDEST ADD DUP10 SWAP1 PUSH2 0xE3 JUMP JUMPDEST DUP9 MLOAD PUSH4 0x70A08231 PUSH1 0xE0 SHL DUP2 MSTORE ADDRESS DUP10 DUP3 ADD MSTORE SWAP2 SWAP3 POP SWAP1 DUP6 DUP2 DUP9 DUP2 DUP6 GAS STATICCALL SWAP1 DUP14 DUP3 ISZERO PUSH2 0x2D6 JUMPI DUP14 SWAP5 SWAP4 SWAP3 DUP7 SWAP3 SWAP1 PUSH2 0x29B JUMPI JUMPDEST POP PUSH2 0x28A PUSH2 0x296 SWAP4 SWAP3 PUSH2 0x2710 SWAP3 PUSH2 0x580 JUMP JUMPDEST DIV SWAP1 DUP12 DUP6 SLOAD AND SWAP1 PUSH2 0x5A9 JUMP JUMPDEST PUSH2 0x240 JUMP JUMPDEST SWAP3 SWAP5 POP POP POP DUP6 DUP2 DUP2 RETURNDATASIZE DUP4 GT PUSH2 0x2CF JUMPI JUMPDEST PUSH2 0x2B5 DUP2 DUP4 PUSH2 0x4F8 JUMP JUMPDEST DUP2 ADD SUB SLT PUSH2 0x2CB JUMPI MLOAD DUP12 SWAP3 SWAP1 DUP5 SWAP1 PUSH2 0x28A PUSH2 0x278 JUMP JUMPDEST DUP13 DUP1 REVERT JUMPDEST POP RETURNDATASIZE PUSH2 0x2AB JUMP JUMPDEST DUP11 MLOAD SWAP1 RETURNDATASIZE SWAP1 DUP3 RETURNDATACOPY RETURNDATASIZE SWAP1 REVERT JUMPDEST SWAP1 POP DUP3 DUP2 DUP2 RETURNDATASIZE DUP4 GT PUSH2 0x30B JUMPI JUMPDEST PUSH2 0x2F8 DUP2 DUP4 PUSH2 0x4F8 JUMP JUMPDEST DUP2 ADD SUB SLT PUSH2 0x307 JUMPI MLOAD CODESIZE PUSH2 0xDF JUMP JUMPDEST DUP10 DUP1 REVERT JUMPDEST POP RETURNDATASIZE PUSH2 0x2EE JUMP JUMPDEST DUP7 MLOAD RETURNDATASIZE DUP13 DUP3 RETURNDATACOPY RETURNDATASIZE SWAP1 REVERT JUMPDEST PUSH2 0x32A PUSH2 0x11C DUP3 DUP6 DUP6 PUSH2 0x4AC JUMP JUMPDEST DUP13 PUSH1 0x20 SWAP2 DUP3 PUSH2 0x33A DUP6 DUP9 DUP9 PUSH2 0x4AC JUMP JUMPDEST ADD CALLDATALOAD SWAP1 PUSH2 0x348 DUP6 DUP9 DUP9 PUSH2 0x4AC JUMP JUMPDEST DUP13 DUP2 ADD CALLDATALOAD SWAP1 PUSH1 0x1E NOT DUP2 CALLDATASIZE SUB ADD DUP3 SLT ISZERO PUSH2 0x3DC JUMPI ADD DUP1 CALLDATALOAD SWAP1 DUP10 DUP3 GT PUSH2 0x3DC JUMPI DUP6 ADD SWAP3 DUP2 CALLDATASIZE SUB DUP5 SGT PUSH2 0x3DC JUMPI DUP5 SWAP4 DUP3 DUP16 MLOAD SWAP4 DUP5 SWAP3 DUP4 CALLDATACOPY DUP2 ADD DUP6 DUP2 MSTORE SUB SWAP3 GAS CALL PUSH2 0x38D PUSH2 0x530 JUMP JUMPDEST POP ISZERO PUSH2 0x39B JUMPI POP DUP11 ADD PUSH2 0xAA JUMP JUMPDEST DUP8 PUSH1 0x11 DUP9 PUSH1 0x64 SWAP4 DUP13 MLOAD SWAP4 PUSH3 0x461BCD PUSH1 0xE5 SHL DUP6 MSTORE DUP5 ADD MSTORE DUP3 ADD MSTORE PUSH32 0x42617463682063616C6C206661696C6564000000000000000000000000000000 PUSH1 0x44 DUP3 ADD MSTORE REVERT JUMPDEST DUP5 DUP1 REVERT JUMPDEST DUP7 MLOAD PUSH3 0x461BCD PUSH1 0xE5 SHL DUP2 MSTORE PUSH1 0x20 DUP2 DUP9 ADD MSTORE PUSH1 0x1B PUSH1 0x24 DUP3 ADD MSTORE PUSH32 0x43616C6C61626C65206F6E6C792062792074686520726F757465720000000000 PUSH1 0x44 DUP3 ADD MSTORE PUSH1 0x64 SWAP1 REVERT JUMPDEST DUP8 DUP1 REVERT JUMPDEST DUP3 DUP1 REVERT JUMPDEST DUP4 DUP3 CALLVALUE PUSH2 0x1E6 JUMPI DUP2 PUSH1 0x3 NOT CALLDATASIZE ADD SLT PUSH2 0x1E6 JUMPI PUSH1 0x20 SWAP1 PUSH1 0x1 PUSH1 0x1 PUSH1 0xA0 SHL SUB PUSH1 0x1 SLOAD AND SWAP1 MLOAD SWAP1 DUP2 MSTORE RETURN JUMPDEST DUP5 SWAP1 CALLVALUE PUSH2 0x1E6 JUMPI DUP2 PUSH1 0x3 NOT CALLDATASIZE ADD SLT PUSH2 0x1E6 JUMPI PUSH1 0x1 PUSH1 0x1 PUSH1 0xA0 SHL SUB PUSH1 0x20 SWAP3 SLOAD AND DUP2 MSTORE RETURN JUMPDEST SWAP2 DUP2 PUSH1 0x1F DUP5 ADD SLT ISZERO PUSH2 0x4A7 JUMPI DUP3 CALLDATALOAD SWAP2 PUSH8 0xFFFFFFFFFFFFFFFF DUP4 GT PUSH2 0x4A7 JUMPI PUSH1 0x20 DUP1 DUP6 ADD SWAP5 DUP5 PUSH1 0x5 SHL ADD ADD GT PUSH2 0x4A7 JUMPI JUMP JUMPDEST PUSH1 0x0 DUP1 REVERT JUMPDEST SWAP2 SWAP1 DUP2 LT ISZERO PUSH2 0x4CE JUMPI PUSH1 0x5 SHL DUP2 ADD CALLDATALOAD SWAP1 PUSH1 0x5E NOT DUP2 CALLDATASIZE SUB ADD DUP3 SLT ISZERO PUSH2 0x4A7 JUMPI ADD SWAP1 JUMP JUMPDEST PUSH4 0x4E487B71 PUSH1 0xE0 SHL PUSH1 0x0 MSTORE PUSH1 0x32 PUSH1 0x4 MSTORE PUSH1 0x24 PUSH1 0x0 REVERT JUMPDEST CALLDATALOAD PUSH1 0x1 PUSH1 0x1 PUSH1 0xA0 SHL SUB DUP2 AND DUP2 SUB PUSH2 0x4A7 JUMPI SWAP1 JUMP JUMPDEST SWAP1 PUSH1 0x1F DUP1 NOT SWAP2 ADD AND DUP2 ADD SWAP1 DUP2 LT PUSH8 0xFFFFFFFFFFFFFFFF DUP3 GT OR PUSH2 0x51A JUMPI PUSH1 0x40 MSTORE JUMP JUMPDEST PUSH4 0x4E487B71 PUSH1 0xE0 SHL PUSH1 0x0 MSTORE PUSH1 0x41 PUSH1 0x4 MSTORE PUSH1 0x24 PUSH1 0x0 REVERT JUMPDEST RETURNDATASIZE ISZERO PUSH2 0x56B JUMPI RETURNDATASIZE SWAP1 PUSH8 0xFFFFFFFFFFFFFFFF DUP3 GT PUSH2 0x51A JUMPI PUSH1 0x40 MLOAD SWAP2 PUSH2 0x55F PUSH1 0x1F DUP3 ADD PUSH1 0x1F NOT AND PUSH1 0x20 ADD DUP5 PUSH2 0x4F8 JUMP JUMPDEST DUP3 MSTORE RETURNDATASIZE PUSH1 0x0 PUSH1 0x20 DUP5 ADD RETURNDATACOPY JUMP JUMPDEST PUSH1 0x60 SWAP1 JUMP JUMPDEST SWAP2 SWAP1 DUP2 LT ISZERO PUSH2 0x4CE JUMPI PUSH1 0x5 SHL ADD SWAP1 JUMP JUMPDEST DUP2 DUP2 MUL SWAP3 SWAP2 DUP2 ISZERO SWAP2 DUP5 DIV EQ OR ISZERO PUSH2 0x593 JUMPI JUMP JUMPDEST PUSH4 0x4E487B71 PUSH1 0xE0 SHL PUSH1 0x0 MSTORE PUSH1 0x11 PUSH1 0x4 MSTORE PUSH1 0x24 PUSH1 0x0 REVERT JUMPDEST SWAP2 SWAP1 SWAP2 PUSH1 0x40 MLOAD SWAP3 PUSH1 0x20 DUP5 ADD SWAP3 PUSH4 0xA9059CBB PUSH1 0xE0 SHL DUP5 MSTORE PUSH1 0x1 PUSH1 0x1 PUSH1 0xA0 SHL SUB DUP1 SWAP3 AND PUSH1 0x24 DUP7 ADD MSTORE PUSH1 0x44 DUP6 ADD MSTORE PUSH1 0x44 DUP5 MSTORE PUSH1 0x80 DUP5 ADD SWAP2 DUP5 DUP4 LT PUSH8 0xFFFFFFFFFFFFFFFF DUP5 GT OR PUSH2 0x51A JUMPI PUSH2 0x614 SWAP3 PUSH1 0x40 MSTORE AND SWAP3 PUSH1 0x0 DUP1 SWAP4 DUP2 SWAP3 MLOAD SWAP1 DUP3 DUP8 GAS CALL PUSH2 0x60D PUSH2 0x530 JUMP JUMPDEST SWAP1 DUP5 PUSH2 0x6C2 JUMP JUMPDEST SWAP1 DUP2 MLOAD SWAP2 DUP3 ISZERO ISZERO SWAP3 DUP4 PUSH2 0x644 JUMPI JUMPDEST POP POP POP PUSH2 0x62C JUMPI POP JUMP JUMPDEST PUSH1 0x24 SWAP1 PUSH1 0x40 MLOAD SWAP1 PUSH4 0x5274AFE7 PUSH1 0xE0 SHL DUP3 MSTORE PUSH1 0x4 DUP3 ADD MSTORE REVERT JUMPDEST DUP2 SWAP3 SWAP4 POP SWAP1 PUSH1 0x20 SWAP2 DUP2 ADD SUB SLT PUSH2 0x1E6 JUMPI PUSH1 0x20 ADD MLOAD SWAP1 DUP2 ISZERO SWAP2 DUP3 ISZERO SUB PUSH2 0x66C JUMPI POP CODESIZE DUP1 DUP1 PUSH2 0x622 JUMP JUMPDEST DUP1 REVERT JUMPDEST DUP2 SELFBALANCE LT PUSH2 0x6AA JUMPI PUSH1 0x0 DUP1 DUP1 SWAP4 PUSH1 0x1 PUSH1 0x1 PUSH1 0xA0 SHL SUB DUP3 SWAP5 AND GAS CALL PUSH2 0x690 PUSH2 0x530 JUMP JUMPDEST POP ISZERO PUSH2 0x698 JUMPI JUMP JUMPDEST PUSH1 0x40 MLOAD PUSH4 0xA12F521 PUSH1 0xE1 SHL DUP2 MSTORE PUSH1 0x4 SWAP1 REVERT JUMPDEST PUSH1 0x40 MLOAD PUSH4 0xCD786059 PUSH1 0xE0 SHL DUP2 MSTORE ADDRESS PUSH1 0x4 DUP3 ADD MSTORE PUSH1 0x24 SWAP1 REVERT JUMPDEST SWAP1 PUSH2 0x6D7 JUMPI POP DUP1 MLOAD ISZERO PUSH2 0x698 JUMPI DUP1 MLOAD SWAP1 PUSH1 0x20 ADD REVERT JUMPDEST DUP2 MLOAD ISZERO DUP1 PUSH2 0x70A JUMPI JUMPDEST PUSH2 0x6E8 JUMPI POP SWAP1 JUMP JUMPDEST PUSH1 0x40 MLOAD PUSH4 0x9996B315 PUSH1 0xE0 SHL DUP2 MSTORE PUSH1 0x1 PUSH1 0x1 PUSH1 0xA0 SHL SUB SWAP1 SWAP2 AND PUSH1 0x4 DUP3 ADD MSTORE PUSH1 0x24 SWAP1 REVERT JUMPDEST POP DUP1 EXTCODESIZE ISZERO PUSH2 0x6E0 JUMP INVALID LOG2 PUSH5 0x6970667358 0x22 SLT KECCAK256 MSIZE ADDRESS PUSH24 0x1BDAC7A28577E83853179585C14D2D1DE60202BEE4D616BC 0x29 0x25 0xC9 SWAP4 COINBASE PUSH5 0x736F6C6343 STOP ADDMOD NOT STOP CALLER "},"gasEstimates":{"creation":{"codeDepositCost":"373000","executionCost":"infinite","totalCost":"infinite"},"external":{"execute((address,uint256,bytes)[],address[])":"infinite","getRouter()":"2322","owner()":"2286"},"internal":{"_chargeFees(address[] calldata)":"infinite","_returnTokens(address[] calldata)":"infinite"}},"methodIdentifiers":{"execute((address,uint256,bytes)[],address[])":"eedc3c50","getRouter()":"b0f479a1","owner()":"8da5cb5b"}},"storageLayout":{"storage":[{"astId":4249,"contract":"contracts/core/BaluniAgent.sol:BaluniAgent","label":"owner","offset":0,"slot":"0","type":"t_address"},{"astId":4251,"contract":"contracts/core/BaluniAgent.sol:BaluniAgent","label":"router","offset":0,"slot":"1","type":"t_address"}],"types":{"t_address":{"encoding":"inplace","label":"address","numberOfBytes":"20"}}},"userdoc":{"kind":"user","methods":{"constructor":{"notice":"Only the router contract can deploy this contract."},"execute((address,uint256,bytes)[],address[])":{"notice":"Only the router contract is allowed to execute this function."}},"version":1}}}}