{"contracts/community/Pool.sol":{"Pool":{"abi":[{"inputs":[{"internalType":"address","name":"_oracleAddress","type":"address"},{"internalType":"address","name":"_wnative","type":"address"},{"internalType":"address","name":"_yearnVault","type":"address"}],"stateMutability":"nonpayable","type":"constructor"},{"inputs":[{"internalType":"address","name":"account","type":"address"}],"name":"AddressInsufficientBalance","type":"error"},{"inputs":[],"name":"FailedInnerCall","type":"error"},{"inputs":[],"name":"ReentrancyGuardReentrantCall","type":"error"},{"anonymous":false,"inputs":[{"indexed":true,"internalType":"address","name":"predictor","type":"address"},{"indexed":false,"internalType":"enum Pool.Coin","name":"token","type":"uint8"},{"indexed":false,"internalType":"uint256","name":"predictedPrice","type":"uint256"},{"indexed":false,"internalType":"uint256","name":"actualPrice","type":"uint256"},{"indexed":false,"internalType":"uint256","name":"timestamp","type":"uint256"},{"indexed":false,"internalType":"uint256","name":"endTime","type":"uint256"}],"name":"PredictionRegistered","type":"event"},{"anonymous":false,"inputs":[{"indexed":true,"internalType":"address","name":"predictor","type":"address"},{"indexed":false,"internalType":"uint256","name":"amount","type":"uint256"}],"name":"RewardWithdrawn","type":"event"},{"inputs":[{"internalType":"address","name":"user","type":"address"}],"name":"calculateReward","outputs":[{"internalType":"uint256","name":"","type":"uint256"}],"stateMutability":"view","type":"function"},{"inputs":[{"internalType":"address","name":"","type":"address"}],"name":"distributionCounter","outputs":[{"internalType":"uint256","name":"","type":"uint256"}],"stateMutability":"view","type":"function"},{"inputs":[],"name":"exit","outputs":[],"stateMutability":"nonpayable","type":"function"},{"inputs":[],"name":"exitLimit","outputs":[{"internalType":"uint256","name":"","type":"uint256"}],"stateMutability":"view","type":"function"},{"inputs":[{"internalType":"uint256","name":"index","type":"uint256"}],"name":"getPrediction","outputs":[{"components":[{"internalType":"address","name":"predictor","type":"address"},{"internalType":"enum Pool.Coin","name":"token","type":"uint8"},{"internalType":"uint256","name":"predictedPrice","type":"uint256"},{"internalType":"uint256","name":"actualPrice","type":"uint256"},{"internalType":"uint256","name":"resolvedPrice","type":"uint256"},{"internalType":"uint256","name":"difference","type":"uint256"},{"internalType":"uint256","name":"timestamp","type":"uint256"},{"internalType":"uint256","name":"endTime","type":"uint256"},{"internalType":"bool","name":"resolved","type":"bool"}],"internalType":"struct Pool.Prediction","name":"","type":"tuple"}],"stateMutability":"view","type":"function"},{"inputs":[],"name":"getPredictionCount","outputs":[{"internalType":"uint256","name":"","type":"uint256"}],"stateMutability":"view","type":"function"},{"inputs":[{"internalType":"uint256","name":"from","type":"uint256"},{"internalType":"uint256","name":"to","type":"uint256"}],"name":"getPredictionFromTo","outputs":[{"components":[{"internalType":"address","name":"predictor","type":"address"},{"internalType":"enum Pool.Coin","name":"token","type":"uint8"},{"internalType":"uint256","name":"predictedPrice","type":"uint256"},{"internalType":"uint256","name":"actualPrice","type":"uint256"},{"internalType":"uint256","name":"resolvedPrice","type":"uint256"},{"internalType":"uint256","name":"difference","type":"uint256"},{"internalType":"uint256","name":"timestamp","type":"uint256"},{"internalType":"uint256","name":"endTime","type":"uint256"},{"internalType":"bool","name":"resolved","type":"bool"}],"internalType":"struct Pool.Prediction[]","name":"","type":"tuple[]"}],"stateMutability":"view","type":"function"},{"inputs":[],"name":"getSubmissionFee","outputs":[{"internalType":"uint256","name":"","type":"uint256"}],"stateMutability":"view","type":"function"},{"inputs":[],"name":"getTotalPredictions","outputs":[{"internalType":"uint256","name":"","type":"uint256"}],"stateMutability":"view","type":"function"},{"inputs":[],"name":"hasAnyUnresolvedPastEndTime","outputs":[{"internalType":"bool","name":"","type":"bool"}],"stateMutability":"view","type":"function"},{"inputs":[],"name":"hasUnresolvedPredictions","outputs":[{"internalType":"bool","name":"","type":"bool"}],"stateMutability":"view","type":"function"},{"inputs":[],"name":"last10Predictions","outputs":[{"components":[{"internalType":"address","name":"predictor","type":"address"},{"internalType":"enum Pool.Coin","name":"token","type":"uint8"},{"internalType":"uint256","name":"predictedPrice","type":"uint256"},{"internalType":"uint256","name":"actualPrice","type":"uint256"},{"internalType":"uint256","name":"resolvedPrice","type":"uint256"},{"internalType":"uint256","name":"difference","type":"uint256"},{"internalType":"uint256","name":"timestamp","type":"uint256"},{"internalType":"uint256","name":"endTime","type":"uint256"},{"internalType":"bool","name":"resolved","type":"bool"}],"internalType":"struct Pool.Prediction[]","name":"","type":"tuple[]"}],"stateMutability":"view","type":"function"},{"inputs":[{"internalType":"address","name":"","type":"address"}],"name":"lastWithdraw","outputs":[{"internalType":"uint256","name":"","type":"uint256"}],"stateMutability":"view","type":"function"},{"inputs":[],"name":"oracle","outputs":[{"internalType":"contract Oracle","name":"","type":"address"}],"stateMutability":"view","type":"function"},{"inputs":[],"name":"predictionDuration","outputs":[{"internalType":"uint256","name":"","type":"uint256"}],"stateMutability":"view","type":"function"},{"inputs":[{"internalType":"uint256","name":"","type":"uint256"}],"name":"predictions","outputs":[{"internalType":"address","name":"predictor","type":"address"},{"internalType":"enum Pool.Coin","name":"token","type":"uint8"},{"internalType":"uint256","name":"predictedPrice","type":"uint256"},{"internalType":"uint256","name":"actualPrice","type":"uint256"},{"internalType":"uint256","name":"resolvedPrice","type":"uint256"},{"internalType":"uint256","name":"difference","type":"uint256"},{"internalType":"uint256","name":"timestamp","type":"uint256"},{"internalType":"uint256","name":"endTime","type":"uint256"},{"internalType":"bool","name":"resolved","type":"bool"}],"stateMutability":"view","type":"function"},{"inputs":[],"name":"resolutionLimit","outputs":[{"internalType":"uint256","name":"","type":"uint256"}],"stateMutability":"view","type":"function"},{"inputs":[],"name":"resolve","outputs":[],"stateMutability":"nonpayable","type":"function"},{"inputs":[],"name":"submissionBaseFee","outputs":[{"internalType":"uint256","name":"","type":"uint256"}],"stateMutability":"view","type":"function"},{"inputs":[],"name":"submissionStepFee","outputs":[{"internalType":"uint256","name":"","type":"uint256"}],"stateMutability":"view","type":"function"},{"inputs":[{"internalType":"enum Pool.Coin","name":"_token","type":"uint8"},{"internalType":"uint256","name":"_predictedPrice","type":"uint256"}],"name":"submit","outputs":[],"stateMutability":"payable","type":"function"},{"inputs":[],"name":"totalDistribution","outputs":[{"internalType":"uint256","name":"","type":"uint256"}],"stateMutability":"view","type":"function"},{"inputs":[],"name":"totalPredictions","outputs":[{"internalType":"uint256","name":"","type":"uint256"}],"stateMutability":"view","type":"function"},{"inputs":[{"internalType":"address","name":"","type":"address"}],"name":"userSubmissionFees","outputs":[{"internalType":"uint256","name":"","type":"uint256"}],"stateMutability":"view","type":"function"},{"inputs":[],"name":"wnative","outputs":[{"internalType":"contract IWETH","name":"","type":"address"}],"stateMutability":"view","type":"function"},{"inputs":[],"name":"yearnVault","outputs":[{"internalType":"contract IVault","name":"","type":"address"}],"stateMutability":"view","type":"function"},{"stateMutability":"payable","type":"receive"}],"devdoc":{"errors":{"AddressInsufficientBalance(address)":[{"details":"The ETH balance of the account is not enough to perform the operation."}],"FailedInnerCall()":[{"details":"A call to an address target failed. The target may have reverted."}],"ReentrancyGuardReentrantCall()":[{"details":"Unauthorized reentrant call."}]},"kind":"dev","methods":{},"version":1},"evm":{"bytecode":{"linkReferences":{},"object":"6080346100d957601f61168838819003918201601f19168301916001600160401b038311848410176100de578084926060946040528339810103126100d957610047816100f4565b906100606040610059602084016100f4565b92016100f4565b6001600055662386f26fc1000060055566038d7ea4c680006006556201518060075561025860085562093a806009556000600a556000600b5560018060a01b0380928160018060a01b03199516856001541617600155168360035416176003551690600454161760045560405161157f90816101098239f35b600080fd5b634e487b7160e01b600052604160045260246000fd5b51906001600160a01b03821682036100d95756fe6080604052600436101561001b575b361561001957600080fd5b005b60003560e01c80624fbbb014610e2b5780630166809614610e0d578063037361e914610dd05780632810e1d614610bd85780632cebdeb214610bb1578063371d5d0214610b9657806344ed9f6614610b785780634abf93b714610b535780634ce93cc8146107c35780635590cfa9146107585780635c58006114610684578063600bebf51461071b578063624d7b72146106de57806370246a1e146106c057806371d61cd5146106a2578063779bd562146106845780637dc0d1d01461065d57806380450cde1461063f5780639db5df4614610618578063cd634792146105fa578063d1c4e1b414610548578063d82e396214610511578063e75e454e146104f3578063e9fad8ee146101ec578063f9be8523146101c25763fe83bece0361000e57346101bd5760203660031901126101bd576004356101596111a5565b506002548110156101885761017961017361012092610ece565b5061124e565b6101866040518092610f2b565bf35b60405162461bcd60e51b815260206004820152600d60248201526c092dcecc2d8d2c840d2dcc8caf609b1b6044820152606490fd5b600080fd5b346101bd5760003660031901126101bd5733600052600e6020526020604060002054604051908152f35b346101bd5760003660031901126101bd57336000526020600d815261021660406000205442611031565b6009541161049f57610227336112e9565b90811561045b576004805460405163095ea7b360e01b81526001600160a01b03918216928101839052602481018590529093918390829060449082906000905af180156104135761042e575b5047836004541691823b156101bd576000926084849260405195869384926328c6306960e21b8452600484015230602484015230604484015260c860648401525af1918215610413576102cc9261041f575b5047611031565b9160035416803b156101bd5760008091602460405180948193632e1a7d4d60e01b83528860048401525af1801561041357610404575b5033600052600c815261031c604060002054600a54611031565b600a5533600052600c815260006040812055600d815242604060002055600554600e82526040600020558147106103ec57600080808085335af13d156103e7573d67ffffffffffffffff81116103d15760405190610383601f8201601f191685018361100f565b81526000833d92013e5b156103bf577f1d3eee4ca001cff39eec6ec7615aacf2f2bd61791273830728ba00ccbd6e1337906040519283523392a2005b604051630a12f52160e11b8152600490fd5b634e487b7160e01b600052604160045260246000fd5b61038d565b60405163cd78605960e01b8152306004820152602490fd5b61040d90610ffb565b82610302565b6040513d6000823e3d90fd5b61042890610ffb565b846102c5565b61044d90833d8511610454575b610445818361100f565b810190611139565b5083610273565b503d61043b565b6064906040519062461bcd60e51b82526004820152601360248201527f4e6f2072657761726420617661696c61626c65000000000000000000000000006044820152fd5b6084906040519062461bcd60e51b82526004820152602760248201527f5761697420666f7220657869744c696d6974206265666f7265206e65787420776044820152666974686472617760c81b6064820152fd5b346101bd5760003660031901126101bd576020600b54604051908152f35b346101bd5760203660031901126101bd576004356001600160a01b03811681036101bd576105406020916112e9565b604051908152f35b346101bd5760003660031901126101bd57600254600a8111156105f25760091981018181116105dc57905b6105856105808383611031565b6111ea565b91805b8281106105a1576040518061059d8682610f94565b0390f35b806105d56105b0600193610ece565b506105c46105be8685611031565b9161124e565b6105ce828961123a565b528661123a565b5001610588565b634e487b7160e01b600052601160045260246000fd5b600090610573565b346101bd5760003660031901126101bd576020600554604051908152f35b346101bd5760003660031901126101bd5760206001600160a01b0360045416604051908152f35b346101bd5760003660031901126101bd576020600654604051908152f35b346101bd5760003660031901126101bd5760206001600160a01b0360015416604051908152f35b346101bd5760003660031901126101bd576020600a54604051908152f35b346101bd5760003660031901126101bd576020600854604051908152f35b346101bd5760003660031901126101bd576020600754604051908152f35b346101bd5760203660031901126101bd576004356001600160a01b0381168091036101bd57600052600d6020526020604060002054604051908152f35b346101bd5760203660031901126101bd576004356001600160a01b0381168091036101bd57600052600e6020526020604060002054604051908152f35b346101bd5760403660031901126101bd5760043560243561077a818310611151565b610788600254821115611151565b6107956105808383611031565b91805b8281106107ad576040518061059d8682610f94565b806107bc6105b0600193610ece565b5001610798565b60403660031901126101bd57600160043510156101bd576107e86005543410156110e1565b33600052600e6020526108026040600020543410156110e1565b33600052600e602052604060002034815561081f6006543461103e565b9055600460206001600160a01b036001541660405192838092638e15f47360e01b82525afa90811561041357600091610b21575b506402540be40081818102048114821517156105dc576108756007544261103e565b6040519061088282610fde565b338252602082016108956004358261112d565b6040830191602435835260608401908587028252608085016000815260a0860191600083524260c088015260e08701526000610100870152600254680100000000000000008110156103d1578060016108f19201600255610ece565b939093610b0b576001600160a01b0387511695845495876001600160a01b0319881617865551956001871015610af5576101009760079760ff60a01b9060a01b16916affffffffffffffffffffff60a81b161717855551600185015551600284015551600383015551600482015560c0840151600582015560e0840151600682015501910151151560ff80198354169116179055610990600a5461104b565b600a556001600160a01b0360035416803b156101bd57600060049160405192838092630d0e30db60e41b825234905af1801561041357610ae6575b506003546004805460405163095ea7b360e01b81526001600160a01b0391821692810192909252346024830152909160209183916044918391600091165af1801561041357610ac7575b506001600160a01b0360045416803b156101bd5760008091604460405180948193636e553f6560e01b83523460048401523060248401525af1801561041357610ab8575b50610a666007544261103e565b9060405192610a7784600435610f1e565b602435602085015202604083015242606083015260808201527f046796fc72779cbabd1ea8b64c35f18f13d4d3d4693526deb779040b773c311b60a03392a2005b610ac190610ffb565b82610a59565b610adf9060203d60201161045457610445818361100f565b5082610a15565b610aef90610ffb565b826109cb565b634e487b7160e01b600052602160045260246000fd5b634e487b7160e01b600052600060045260246000fd5b90506020813d602011610b4b575b81610b3c6020938361100f565b810103126101bd575181610853565b3d9150610b2f565b346101bd5760003660031901126101bd576020610b6e611093565b6040519015158152f35b346101bd5760003660031901126101bd576020600954604051908152f35b346101bd5760003660031901126101bd576020610b6e61105a565b346101bd5760003660031901126101bd5760206001600160a01b0360035416604051908152f35b346101bd5760003660031901126101bd5760018054604051638e15f47360e01b81526020916001600160a01b039083908390600490829085165afa91821561041357600092610da1575b506402540be400918281029281840414901517156105dc57906000845b610c6d575b600c8433600052526040600020610c5b815461104b565b9055610c68600b5461104b565b600b55005b600254811015610d9c57908482610c85829594610ece565b5060ff600780920154161580610d85575b610ca5575b5001909192610c3f565b82610caf83610ece565b5001549084821115610d7757610ccf85610cc98185611031565b93611485565b91610cea6006610cde86610ece565b5001546008549061103e565b4211610d4c5786610cfa85610ece565b505416600052600c89525b6004610d1085610ece565b500155610d1c83610ece565b5001805460ff191684179055836003610d3484610ece565b500155610d44600b91825461103e565b905587610c9b565b86610d5685610ece565b505416600052600c89526040600020610d7084825461103e565b9055610d05565b610ccf85610cc98482611031565b506006610d9183610ece565b500154421015610c96565b610c44565b9091508281813d8311610dc9575b610db9818361100f565b810103126101bd57519084610c22565b503d610daf565b346101bd5760203660031901126101bd576004356001600160a01b0381168091036101bd57600052600c6020526020604060002054604051908152f35b346101bd5760003660031901126101bd576020600254604051908152f35b346101bd5760203660031901126101bd576004356002548110156101bd57610e5561012091610ece565b508054906001810154906002810154600382015460048301549060058401549260ff600760068701549601541695610ea6604051986001600160a01b0381168a5260ff60208b019160a01c16610f1e565b60408801526060870152608086015260a085015260c084015260e08301521515610100820152f35b600254811015610f0857600260005260031b7f405787fa12a823e0f2b7631cc41b3ba8828b3321ca811111fa75cd3aa3bb5ace0190600090565b634e487b7160e01b600052603260045260246000fd5b906001821015610af55752565b6001600160a01b038151168252610f4a60208201516020840190610f1e565b60408101516040830152606081015160608301526080810151608083015260a081015160a083015260c081015160c083015260e081015160e0830152610100809101511515910152565b602090602060408183019282815285518094520193019160005b828110610fbc575050505090565b909192938261012082610fd26001948951610f2b565b01950193929101610fae565b610120810190811067ffffffffffffffff8211176103d157604052565b67ffffffffffffffff81116103d157604052565b90601f8019910116810190811067ffffffffffffffff8211176103d157604052565b919082039182116105dc57565b919082018092116105dc57565b60001981146105dc5760010190565b60025460005b81811061106e575050600090565b60ff600761107b83610ece565b500154161561108c57600101611060565b5050600190565b60025460005b8181106110a7575050600090565b60ff60076110b483610ece565b5001541615806110cb575b61108c57600101611099565b5060066110d782610ece565b50015442116110bf565b156110e857565b60405162461bcd60e51b815260206004820152601260248201527f496e76616c69642066656520616d6f756e7400000000000000000000000000006044820152606490fd5b6001821015610af55752565b908160209103126101bd575180151581036101bd5790565b1561115857565b60405162461bcd60e51b815260206004820152600d60248201526c496e76616c69642072616e676560981b6044820152606490fd5b67ffffffffffffffff81116103d15760051b60200190565b604051906111b282610fde565b816101006000918281528260208201528260408201528260608201528260808201528260a08201528260c08201528260e08201520152565b906111f48261118d565b611201604051918261100f565b8281528092611212601f199161118d565b019060005b82811061122357505050565b60209061122e6111a5565b82828501015201611217565b8051821015610f085760209160051b010190565b9060405161125b81610fde565b61010060ff600783956112838382546001600160a01b038116885260a01c166020870161112d565b600181015460408601526002810154606086015260038101546080860152600481015460a0860152600581015460c0860152600681015460e08601520154161515910152565b81156112d3570490565b634e487b7160e01b600052601260045260246000fd5b906001600160a01b038092166000928184526020600c8152604090818620541561144357600b54938415611400578652600c81528186205493670de0b6b3a764000094858102908082048714901517156113ec579161134b81926024946112c9565b94600454168451938480926370a0823160e01b82523060048301525afa9283156113e3575086926113b1575b505081810291818304149015171561139d5761139a929350048060011c90611031565b90565b634e487b7160e01b84526011600452602484fd5b90809250813d83116113dc575b6113c8818361100f565b810103126113d857513880611377565b8480fd5b503d6113be565b513d88823e3d90fd5b634e487b7160e01b88526011600452602488fd5b50606491519062461bcd60e51b82526004820152601460248201527f4e6f207265776172647320617661696c61626c650000000000000000000000006044820152fd5b606491519062461bcd60e51b82526004820152601360248201527f4e6f2070726564696374696f6e73206d616465000000000000000000000000006044820152fd5b811561108c5781808211156115395761149d91611031565b905b6064820291808304606414901517156105dc576114bb916112c9565b806114c65750600a90565b600581116114d45750600990565b600a81116114e25750600890565b600f81116114f05750600790565b601481116114fe5750600690565b6019811161150c5750600590565b601e811161151a5750600490565b602381116115285750600390565b60281061153457600290565b600190565b9061154391611031565b9061149f56fea2646970667358221220500ec216d029e6fd5a838f4ac92bcde00cf4f8d56b869e4ae2eca89636031a3e64736f6c63430008190033","opcodes":"PUSH1 0x80 CALLVALUE PUSH2 0xD9 JUMPI PUSH1 0x1F PUSH2 0x1688 CODESIZE DUP2 SWAP1 SUB SWAP2 DUP3 ADD PUSH1 0x1F NOT AND DUP4 ADD SWAP2 PUSH1 0x1 PUSH1 0x1 PUSH1 0x40 SHL SUB DUP4 GT DUP5 DUP5 LT OR PUSH2 0xDE JUMPI DUP1 DUP5 SWAP3 PUSH1 0x60 SWAP5 PUSH1 0x40 MSTORE DUP4 CODECOPY DUP2 ADD SUB SLT PUSH2 0xD9 JUMPI PUSH2 0x47 DUP2 PUSH2 0xF4 JUMP JUMPDEST SWAP1 PUSH2 0x60 PUSH1 0x40 PUSH2 0x59 PUSH1 0x20 DUP5 ADD PUSH2 0xF4 JUMP JUMPDEST SWAP3 ADD PUSH2 0xF4 JUMP JUMPDEST PUSH1 0x1 PUSH1 0x0 SSTORE PUSH7 0x2386F26FC10000 PUSH1 0x5 SSTORE PUSH7 0x38D7EA4C68000 PUSH1 0x6 SSTORE PUSH3 0x15180 PUSH1 0x7 SSTORE PUSH2 0x258 PUSH1 0x8 SSTORE PUSH3 0x93A80 PUSH1 0x9 SSTORE PUSH1 0x0 PUSH1 0xA SSTORE PUSH1 0x0 PUSH1 0xB SSTORE PUSH1 0x1 DUP1 PUSH1 0xA0 SHL SUB DUP1 SWAP3 DUP2 PUSH1 0x1 DUP1 PUSH1 0xA0 SHL SUB NOT SWAP6 AND DUP6 PUSH1 0x1 SLOAD AND OR PUSH1 0x1 SSTORE AND DUP4 PUSH1 0x3 SLOAD AND OR PUSH1 0x3 SSTORE AND SWAP1 PUSH1 0x4 SLOAD AND OR PUSH1 0x4 SSTORE PUSH1 0x40 MLOAD PUSH2 0x157F SWAP1 DUP2 PUSH2 0x109 DUP3 CODECOPY RETURN JUMPDEST PUSH1 0x0 DUP1 REVERT JUMPDEST PUSH4 0x4E487B71 PUSH1 0xE0 SHL PUSH1 0x0 MSTORE PUSH1 0x41 PUSH1 0x4 MSTORE PUSH1 0x24 PUSH1 0x0 REVERT JUMPDEST MLOAD SWAP1 PUSH1 0x1 PUSH1 0x1 PUSH1 0xA0 SHL SUB DUP3 AND DUP3 SUB PUSH2 0xD9 JUMPI JUMP INVALID PUSH1 0x80 PUSH1 0x40 MSTORE PUSH1 0x4 CALLDATASIZE LT ISZERO PUSH2 0x1B JUMPI JUMPDEST CALLDATASIZE ISZERO PUSH2 0x19 JUMPI PUSH1 0x0 DUP1 REVERT JUMPDEST STOP JUMPDEST PUSH1 0x0 CALLDATALOAD PUSH1 0xE0 SHR DUP1 PUSH3 0x4FBBB0 EQ PUSH2 0xE2B JUMPI DUP1 PUSH4 0x1668096 EQ PUSH2 0xE0D JUMPI DUP1 PUSH4 0x37361E9 EQ PUSH2 0xDD0 JUMPI DUP1 PUSH4 0x2810E1D6 EQ PUSH2 0xBD8 JUMPI DUP1 PUSH4 0x2CEBDEB2 EQ PUSH2 0xBB1 JUMPI DUP1 PUSH4 0x371D5D02 EQ PUSH2 0xB96 JUMPI DUP1 PUSH4 0x44ED9F66 EQ PUSH2 0xB78 JUMPI DUP1 PUSH4 0x4ABF93B7 EQ PUSH2 0xB53 JUMPI DUP1 PUSH4 0x4CE93CC8 EQ PUSH2 0x7C3 JUMPI DUP1 PUSH4 0x5590CFA9 EQ PUSH2 0x758 JUMPI DUP1 PUSH4 0x5C580061 EQ PUSH2 0x684 JUMPI DUP1 PUSH4 0x600BEBF5 EQ PUSH2 0x71B JUMPI DUP1 PUSH4 0x624D7B72 EQ PUSH2 0x6DE JUMPI DUP1 PUSH4 0x70246A1E EQ PUSH2 0x6C0 JUMPI DUP1 PUSH4 0x71D61CD5 EQ PUSH2 0x6A2 JUMPI DUP1 PUSH4 0x779BD562 EQ PUSH2 0x684 JUMPI DUP1 PUSH4 0x7DC0D1D0 EQ PUSH2 0x65D JUMPI DUP1 PUSH4 0x80450CDE EQ PUSH2 0x63F JUMPI DUP1 PUSH4 0x9DB5DF46 EQ PUSH2 0x618 JUMPI DUP1 PUSH4 0xCD634792 EQ PUSH2 0x5FA JUMPI DUP1 PUSH4 0xD1C4E1B4 EQ PUSH2 0x548 JUMPI DUP1 PUSH4 0xD82E3962 EQ PUSH2 0x511 JUMPI DUP1 PUSH4 0xE75E454E EQ PUSH2 0x4F3 JUMPI DUP1 PUSH4 0xE9FAD8EE EQ PUSH2 0x1EC JUMPI DUP1 PUSH4 0xF9BE8523 EQ PUSH2 0x1C2 JUMPI PUSH4 0xFE83BECE SUB PUSH2 0xE JUMPI CALLVALUE PUSH2 0x1BD JUMPI PUSH1 0x20 CALLDATASIZE PUSH1 0x3 NOT ADD SLT PUSH2 0x1BD JUMPI PUSH1 0x4 CALLDATALOAD PUSH2 0x159 PUSH2 0x11A5 JUMP JUMPDEST POP PUSH1 0x2 SLOAD DUP2 LT ISZERO PUSH2 0x188 JUMPI PUSH2 0x179 PUSH2 0x173 PUSH2 0x120 SWAP3 PUSH2 0xECE JUMP JUMPDEST POP PUSH2 0x124E JUMP JUMPDEST PUSH2 0x186 PUSH1 0x40 MLOAD DUP1 SWAP3 PUSH2 0xF2B JUMP JUMPDEST RETURN JUMPDEST PUSH1 0x40 MLOAD PUSH3 0x461BCD PUSH1 0xE5 SHL DUP2 MSTORE PUSH1 0x20 PUSH1 0x4 DUP3 ADD MSTORE PUSH1 0xD PUSH1 0x24 DUP3 ADD MSTORE PUSH13 0x92DCECC2D8D2C840D2DCC8CAF PUSH1 0x9B SHL PUSH1 0x44 DUP3 ADD MSTORE PUSH1 0x64 SWAP1 REVERT JUMPDEST PUSH1 0x0 DUP1 REVERT JUMPDEST CALLVALUE PUSH2 0x1BD JUMPI PUSH1 0x0 CALLDATASIZE PUSH1 0x3 NOT ADD SLT PUSH2 0x1BD JUMPI CALLER PUSH1 0x0 MSTORE PUSH1 0xE PUSH1 0x20 MSTORE PUSH1 0x20 PUSH1 0x40 PUSH1 0x0 KECCAK256 SLOAD PUSH1 0x40 MLOAD SWAP1 DUP2 MSTORE RETURN JUMPDEST CALLVALUE PUSH2 0x1BD JUMPI PUSH1 0x0 CALLDATASIZE PUSH1 0x3 NOT ADD SLT PUSH2 0x1BD JUMPI CALLER PUSH1 0x0 MSTORE PUSH1 0x20 PUSH1 0xD DUP2 MSTORE PUSH2 0x216 PUSH1 0x40 PUSH1 0x0 KECCAK256 SLOAD TIMESTAMP PUSH2 0x1031 JUMP JUMPDEST PUSH1 0x9 SLOAD GT PUSH2 0x49F JUMPI PUSH2 0x227 CALLER PUSH2 0x12E9 JUMP JUMPDEST SWAP1 DUP2 ISZERO PUSH2 0x45B JUMPI PUSH1 0x4 DUP1 SLOAD PUSH1 0x40 MLOAD PUSH4 0x95EA7B3 PUSH1 0xE0 SHL DUP2 MSTORE PUSH1 0x1 PUSH1 0x1 PUSH1 0xA0 SHL SUB SWAP2 DUP3 AND SWAP3 DUP2 ADD DUP4 SWAP1 MSTORE PUSH1 0x24 DUP2 ADD DUP6 SWAP1 MSTORE SWAP1 SWAP4 SWAP2 DUP4 SWAP1 DUP3 SWAP1 PUSH1 0x44 SWAP1 DUP3 SWAP1 PUSH1 0x0 SWAP1 GAS CALL DUP1 ISZERO PUSH2 0x413 JUMPI PUSH2 0x42E JUMPI JUMPDEST POP SELFBALANCE DUP4 PUSH1 0x4 SLOAD AND SWAP2 DUP3 EXTCODESIZE ISZERO PUSH2 0x1BD JUMPI PUSH1 0x0 SWAP3 PUSH1 0x84 DUP5 SWAP3 PUSH1 0x40 MLOAD SWAP6 DUP7 SWAP4 DUP5 SWAP3 PUSH4 0x28C63069 PUSH1 0xE2 SHL DUP5 MSTORE PUSH1 0x4 DUP5 ADD MSTORE ADDRESS PUSH1 0x24 DUP5 ADD MSTORE ADDRESS PUSH1 0x44 DUP5 ADD MSTORE PUSH1 0xC8 PUSH1 0x64 DUP5 ADD MSTORE GAS CALL SWAP2 DUP3 ISZERO PUSH2 0x413 JUMPI PUSH2 0x2CC SWAP3 PUSH2 0x41F JUMPI JUMPDEST POP SELFBALANCE PUSH2 0x1031 JUMP JUMPDEST SWAP2 PUSH1 0x3 SLOAD AND DUP1 EXTCODESIZE ISZERO PUSH2 0x1BD JUMPI PUSH1 0x0 DUP1 SWAP2 PUSH1 0x24 PUSH1 0x40 MLOAD DUP1 SWAP5 DUP2 SWAP4 PUSH4 0x2E1A7D4D PUSH1 0xE0 SHL DUP4 MSTORE DUP9 PUSH1 0x4 DUP5 ADD MSTORE GAS CALL DUP1 ISZERO PUSH2 0x413 JUMPI PUSH2 0x404 JUMPI JUMPDEST POP CALLER PUSH1 0x0 MSTORE PUSH1 0xC DUP2 MSTORE PUSH2 0x31C PUSH1 0x40 PUSH1 0x0 KECCAK256 SLOAD PUSH1 0xA SLOAD PUSH2 0x1031 JUMP JUMPDEST PUSH1 0xA SSTORE CALLER PUSH1 0x0 MSTORE PUSH1 0xC DUP2 MSTORE PUSH1 0x0 PUSH1 0x40 DUP2 KECCAK256 SSTORE PUSH1 0xD DUP2 MSTORE TIMESTAMP PUSH1 0x40 PUSH1 0x0 KECCAK256 SSTORE PUSH1 0x5 SLOAD PUSH1 0xE DUP3 MSTORE PUSH1 0x40 PUSH1 0x0 KECCAK256 SSTORE DUP2 SELFBALANCE LT PUSH2 0x3EC JUMPI PUSH1 0x0 DUP1 DUP1 DUP1 DUP6 CALLER GAS CALL RETURNDATASIZE ISZERO PUSH2 0x3E7 JUMPI RETURNDATASIZE PUSH8 0xFFFFFFFFFFFFFFFF DUP2 GT PUSH2 0x3D1 JUMPI PUSH1 0x40 MLOAD SWAP1 PUSH2 0x383 PUSH1 0x1F DUP3 ADD PUSH1 0x1F NOT AND DUP6 ADD DUP4 PUSH2 0x100F JUMP JUMPDEST DUP2 MSTORE PUSH1 0x0 DUP4 RETURNDATASIZE SWAP3 ADD RETURNDATACOPY JUMPDEST ISZERO PUSH2 0x3BF JUMPI PUSH32 0x1D3EEE4CA001CFF39EEC6EC7615AACF2F2BD61791273830728BA00CCBD6E1337 SWAP1 PUSH1 0x40 MLOAD SWAP3 DUP4 MSTORE CALLER SWAP3 LOG2 STOP JUMPDEST PUSH1 0x40 MLOAD PUSH4 0xA12F521 PUSH1 0xE1 SHL DUP2 MSTORE PUSH1 0x4 SWAP1 REVERT JUMPDEST PUSH4 0x4E487B71 PUSH1 0xE0 SHL PUSH1 0x0 MSTORE PUSH1 0x41 PUSH1 0x4 MSTORE PUSH1 0x24 PUSH1 0x0 REVERT JUMPDEST PUSH2 0x38D JUMP JUMPDEST PUSH1 0x40 MLOAD PUSH4 0xCD786059 PUSH1 0xE0 SHL DUP2 MSTORE ADDRESS PUSH1 0x4 DUP3 ADD MSTORE PUSH1 0x24 SWAP1 REVERT JUMPDEST PUSH2 0x40D SWAP1 PUSH2 0xFFB JUMP JUMPDEST DUP3 PUSH2 0x302 JUMP JUMPDEST PUSH1 0x40 MLOAD RETURNDATASIZE PUSH1 0x0 DUP3 RETURNDATACOPY RETURNDATASIZE SWAP1 REVERT JUMPDEST PUSH2 0x428 SWAP1 PUSH2 0xFFB JUMP JUMPDEST DUP5 PUSH2 0x2C5 JUMP JUMPDEST PUSH2 0x44D SWAP1 DUP4 RETURNDATASIZE DUP6 GT PUSH2 0x454 JUMPI JUMPDEST PUSH2 0x445 DUP2 DUP4 PUSH2 0x100F JUMP JUMPDEST DUP2 ADD SWAP1 PUSH2 0x1139 JUMP JUMPDEST POP DUP4 PUSH2 0x273 JUMP JUMPDEST POP RETURNDATASIZE PUSH2 0x43B JUMP JUMPDEST PUSH1 0x64 SWAP1 PUSH1 0x40 MLOAD SWAP1 PUSH3 0x461BCD PUSH1 0xE5 SHL DUP3 MSTORE PUSH1 0x4 DUP3 ADD MSTORE PUSH1 0x13 PUSH1 0x24 DUP3 ADD MSTORE PUSH32 0x4E6F2072657761726420617661696C61626C6500000000000000000000000000 PUSH1 0x44 DUP3 ADD MSTORE REVERT JUMPDEST PUSH1 0x84 SWAP1 PUSH1 0x40 MLOAD SWAP1 PUSH3 0x461BCD PUSH1 0xE5 SHL DUP3 MSTORE PUSH1 0x4 DUP3 ADD MSTORE PUSH1 0x27 PUSH1 0x24 DUP3 ADD MSTORE PUSH32 0x5761697420666F7220657869744C696D6974206265666F7265206E6578742077 PUSH1 0x44 DUP3 ADD MSTORE PUSH7 0x69746864726177 PUSH1 0xC8 SHL PUSH1 0x64 DUP3 ADD MSTORE REVERT JUMPDEST CALLVALUE PUSH2 0x1BD JUMPI PUSH1 0x0 CALLDATASIZE PUSH1 0x3 NOT ADD SLT PUSH2 0x1BD JUMPI PUSH1 0x20 PUSH1 0xB SLOAD PUSH1 0x40 MLOAD SWAP1 DUP2 MSTORE RETURN JUMPDEST CALLVALUE PUSH2 0x1BD JUMPI PUSH1 0x20 CALLDATASIZE PUSH1 0x3 NOT ADD SLT PUSH2 0x1BD JUMPI PUSH1 0x4 CALLDATALOAD PUSH1 0x1 PUSH1 0x1 PUSH1 0xA0 SHL SUB DUP2 AND DUP2 SUB PUSH2 0x1BD JUMPI PUSH2 0x540 PUSH1 0x20 SWAP2 PUSH2 0x12E9 JUMP JUMPDEST PUSH1 0x40 MLOAD SWAP1 DUP2 MSTORE RETURN JUMPDEST CALLVALUE PUSH2 0x1BD JUMPI PUSH1 0x0 CALLDATASIZE PUSH1 0x3 NOT ADD SLT PUSH2 0x1BD JUMPI PUSH1 0x2 SLOAD PUSH1 0xA DUP2 GT ISZERO PUSH2 0x5F2 JUMPI PUSH1 0x9 NOT DUP2 ADD DUP2 DUP2 GT PUSH2 0x5DC JUMPI SWAP1 JUMPDEST PUSH2 0x585 PUSH2 0x580 DUP4 DUP4 PUSH2 0x1031 JUMP JUMPDEST PUSH2 0x11EA JUMP JUMPDEST SWAP2 DUP1 JUMPDEST DUP3 DUP2 LT PUSH2 0x5A1 JUMPI PUSH1 0x40 MLOAD DUP1 PUSH2 0x59D DUP7 DUP3 PUSH2 0xF94 JUMP JUMPDEST SUB SWAP1 RETURN JUMPDEST DUP1 PUSH2 0x5D5 PUSH2 0x5B0 PUSH1 0x1 SWAP4 PUSH2 0xECE JUMP JUMPDEST POP PUSH2 0x5C4 PUSH2 0x5BE DUP7 DUP6 PUSH2 0x1031 JUMP JUMPDEST SWAP2 PUSH2 0x124E JUMP JUMPDEST PUSH2 0x5CE DUP3 DUP10 PUSH2 0x123A JUMP JUMPDEST MSTORE DUP7 PUSH2 0x123A JUMP JUMPDEST POP ADD PUSH2 0x588 JUMP JUMPDEST PUSH4 0x4E487B71 PUSH1 0xE0 SHL PUSH1 0x0 MSTORE PUSH1 0x11 PUSH1 0x4 MSTORE PUSH1 0x24 PUSH1 0x0 REVERT JUMPDEST PUSH1 0x0 SWAP1 PUSH2 0x573 JUMP JUMPDEST CALLVALUE PUSH2 0x1BD JUMPI PUSH1 0x0 CALLDATASIZE PUSH1 0x3 NOT ADD SLT PUSH2 0x1BD JUMPI PUSH1 0x20 PUSH1 0x5 SLOAD PUSH1 0x40 MLOAD SWAP1 DUP2 MSTORE RETURN JUMPDEST CALLVALUE PUSH2 0x1BD JUMPI PUSH1 0x0 CALLDATASIZE PUSH1 0x3 NOT ADD SLT PUSH2 0x1BD JUMPI PUSH1 0x20 PUSH1 0x1 PUSH1 0x1 PUSH1 0xA0 SHL SUB PUSH1 0x4 SLOAD AND PUSH1 0x40 MLOAD SWAP1 DUP2 MSTORE RETURN JUMPDEST CALLVALUE PUSH2 0x1BD JUMPI PUSH1 0x0 CALLDATASIZE PUSH1 0x3 NOT ADD SLT PUSH2 0x1BD JUMPI PUSH1 0x20 PUSH1 0x6 SLOAD PUSH1 0x40 MLOAD SWAP1 DUP2 MSTORE RETURN JUMPDEST CALLVALUE PUSH2 0x1BD JUMPI PUSH1 0x0 CALLDATASIZE PUSH1 0x3 NOT ADD SLT PUSH2 0x1BD JUMPI PUSH1 0x20 PUSH1 0x1 PUSH1 0x1 PUSH1 0xA0 SHL SUB PUSH1 0x1 SLOAD AND PUSH1 0x40 MLOAD SWAP1 DUP2 MSTORE RETURN JUMPDEST CALLVALUE PUSH2 0x1BD JUMPI PUSH1 0x0 CALLDATASIZE PUSH1 0x3 NOT ADD SLT PUSH2 0x1BD JUMPI PUSH1 0x20 PUSH1 0xA SLOAD PUSH1 0x40 MLOAD SWAP1 DUP2 MSTORE RETURN JUMPDEST CALLVALUE PUSH2 0x1BD JUMPI PUSH1 0x0 CALLDATASIZE PUSH1 0x3 NOT ADD SLT PUSH2 0x1BD JUMPI PUSH1 0x20 PUSH1 0x8 SLOAD PUSH1 0x40 MLOAD SWAP1 DUP2 MSTORE RETURN JUMPDEST CALLVALUE PUSH2 0x1BD JUMPI PUSH1 0x0 CALLDATASIZE PUSH1 0x3 NOT ADD SLT PUSH2 0x1BD JUMPI PUSH1 0x20 PUSH1 0x7 SLOAD PUSH1 0x40 MLOAD SWAP1 DUP2 MSTORE RETURN JUMPDEST CALLVALUE PUSH2 0x1BD JUMPI PUSH1 0x20 CALLDATASIZE PUSH1 0x3 NOT ADD SLT PUSH2 0x1BD JUMPI PUSH1 0x4 CALLDATALOAD PUSH1 0x1 PUSH1 0x1 PUSH1 0xA0 SHL SUB DUP2 AND DUP1 SWAP2 SUB PUSH2 0x1BD JUMPI PUSH1 0x0 MSTORE PUSH1 0xD PUSH1 0x20 MSTORE PUSH1 0x20 PUSH1 0x40 PUSH1 0x0 KECCAK256 SLOAD PUSH1 0x40 MLOAD SWAP1 DUP2 MSTORE RETURN JUMPDEST CALLVALUE PUSH2 0x1BD JUMPI PUSH1 0x20 CALLDATASIZE PUSH1 0x3 NOT ADD SLT PUSH2 0x1BD JUMPI PUSH1 0x4 CALLDATALOAD PUSH1 0x1 PUSH1 0x1 PUSH1 0xA0 SHL SUB DUP2 AND DUP1 SWAP2 SUB PUSH2 0x1BD JUMPI PUSH1 0x0 MSTORE PUSH1 0xE PUSH1 0x20 MSTORE PUSH1 0x20 PUSH1 0x40 PUSH1 0x0 KECCAK256 SLOAD PUSH1 0x40 MLOAD SWAP1 DUP2 MSTORE RETURN JUMPDEST CALLVALUE PUSH2 0x1BD JUMPI PUSH1 0x40 CALLDATASIZE PUSH1 0x3 NOT ADD SLT PUSH2 0x1BD JUMPI PUSH1 0x4 CALLDATALOAD PUSH1 0x24 CALLDATALOAD PUSH2 0x77A DUP2 DUP4 LT PUSH2 0x1151 JUMP JUMPDEST PUSH2 0x788 PUSH1 0x2 SLOAD DUP3 GT ISZERO PUSH2 0x1151 JUMP JUMPDEST PUSH2 0x795 PUSH2 0x580 DUP4 DUP4 PUSH2 0x1031 JUMP JUMPDEST SWAP2 DUP1 JUMPDEST DUP3 DUP2 LT PUSH2 0x7AD JUMPI PUSH1 0x40 MLOAD DUP1 PUSH2 0x59D DUP7 DUP3 PUSH2 0xF94 JUMP JUMPDEST DUP1 PUSH2 0x7BC PUSH2 0x5B0 PUSH1 0x1 SWAP4 PUSH2 0xECE JUMP JUMPDEST POP ADD PUSH2 0x798 JUMP JUMPDEST PUSH1 0x40 CALLDATASIZE PUSH1 0x3 NOT ADD SLT PUSH2 0x1BD JUMPI PUSH1 0x1 PUSH1 0x4 CALLDATALOAD LT ISZERO PUSH2 0x1BD JUMPI PUSH2 0x7E8 PUSH1 0x5 SLOAD CALLVALUE LT ISZERO PUSH2 0x10E1 JUMP JUMPDEST CALLER PUSH1 0x0 MSTORE PUSH1 0xE PUSH1 0x20 MSTORE PUSH2 0x802 PUSH1 0x40 PUSH1 0x0 KECCAK256 SLOAD CALLVALUE LT ISZERO PUSH2 0x10E1 JUMP JUMPDEST CALLER PUSH1 0x0 MSTORE PUSH1 0xE PUSH1 0x20 MSTORE PUSH1 0x40 PUSH1 0x0 KECCAK256 CALLVALUE DUP2 SSTORE PUSH2 0x81F PUSH1 0x6 SLOAD CALLVALUE PUSH2 0x103E JUMP JUMPDEST SWAP1 SSTORE PUSH1 0x4 PUSH1 0x20 PUSH1 0x1 PUSH1 0x1 PUSH1 0xA0 SHL SUB PUSH1 0x1 SLOAD AND PUSH1 0x40 MLOAD SWAP3 DUP4 DUP1 SWAP3 PUSH4 0x8E15F473 PUSH1 0xE0 SHL DUP3 MSTORE GAS STATICCALL SWAP1 DUP2 ISZERO PUSH2 0x413 JUMPI PUSH1 0x0 SWAP2 PUSH2 0xB21 JUMPI JUMPDEST POP PUSH5 0x2540BE400 DUP2 DUP2 DUP2 MUL DIV DUP2 EQ DUP3 ISZERO OR ISZERO PUSH2 0x5DC JUMPI PUSH2 0x875 PUSH1 0x7 SLOAD TIMESTAMP PUSH2 0x103E JUMP JUMPDEST PUSH1 0x40 MLOAD SWAP1 PUSH2 0x882 DUP3 PUSH2 0xFDE JUMP JUMPDEST CALLER DUP3 MSTORE PUSH1 0x20 DUP3 ADD PUSH2 0x895 PUSH1 0x4 CALLDATALOAD DUP3 PUSH2 0x112D JUMP JUMPDEST PUSH1 0x40 DUP4 ADD SWAP2 PUSH1 0x24 CALLDATALOAD DUP4 MSTORE PUSH1 0x60 DUP5 ADD SWAP1 DUP6 DUP8 MUL DUP3 MSTORE PUSH1 0x80 DUP6 ADD PUSH1 0x0 DUP2 MSTORE PUSH1 0xA0 DUP7 ADD SWAP2 PUSH1 0x0 DUP4 MSTORE TIMESTAMP PUSH1 0xC0 DUP9 ADD MSTORE PUSH1 0xE0 DUP8 ADD MSTORE PUSH1 0x0 PUSH2 0x100 DUP8 ADD MSTORE PUSH1 0x2 SLOAD PUSH9 0x10000000000000000 DUP2 LT ISZERO PUSH2 0x3D1 JUMPI DUP1 PUSH1 0x1 PUSH2 0x8F1 SWAP3 ADD PUSH1 0x2 SSTORE PUSH2 0xECE JUMP JUMPDEST SWAP4 SWAP1 SWAP4 PUSH2 0xB0B JUMPI PUSH1 0x1 PUSH1 0x1 PUSH1 0xA0 SHL SUB DUP8 MLOAD AND SWAP6 DUP5 SLOAD SWAP6 DUP8 PUSH1 0x1 PUSH1 0x1 PUSH1 0xA0 SHL SUB NOT DUP9 AND OR DUP7 SSTORE MLOAD SWAP6 PUSH1 0x1 DUP8 LT ISZERO PUSH2 0xAF5 JUMPI PUSH2 0x100 SWAP8 PUSH1 0x7 SWAP8 PUSH1 0xFF PUSH1 0xA0 SHL SWAP1 PUSH1 0xA0 SHL AND SWAP2 PUSH11 0xFFFFFFFFFFFFFFFFFFFFFF PUSH1 0xA8 SHL AND OR OR DUP6 SSTORE MLOAD PUSH1 0x1 DUP6 ADD SSTORE MLOAD PUSH1 0x2 DUP5 ADD SSTORE MLOAD PUSH1 0x3 DUP4 ADD SSTORE MLOAD PUSH1 0x4 DUP3 ADD SSTORE PUSH1 0xC0 DUP5 ADD MLOAD PUSH1 0x5 DUP3 ADD SSTORE PUSH1 0xE0 DUP5 ADD MLOAD PUSH1 0x6 DUP3 ADD SSTORE ADD SWAP2 ADD MLOAD ISZERO ISZERO PUSH1 0xFF DUP1 NOT DUP4 SLOAD AND SWAP2 AND OR SWAP1 SSTORE PUSH2 0x990 PUSH1 0xA SLOAD PUSH2 0x104B JUMP JUMPDEST PUSH1 0xA SSTORE PUSH1 0x1 PUSH1 0x1 PUSH1 0xA0 SHL SUB PUSH1 0x3 SLOAD AND DUP1 EXTCODESIZE ISZERO PUSH2 0x1BD JUMPI PUSH1 0x0 PUSH1 0x4 SWAP2 PUSH1 0x40 MLOAD SWAP3 DUP4 DUP1 SWAP3 PUSH4 0xD0E30DB PUSH1 0xE4 SHL DUP3 MSTORE CALLVALUE SWAP1 GAS CALL DUP1 ISZERO PUSH2 0x413 JUMPI PUSH2 0xAE6 JUMPI JUMPDEST POP PUSH1 0x3 SLOAD PUSH1 0x4 DUP1 SLOAD PUSH1 0x40 MLOAD PUSH4 0x95EA7B3 PUSH1 0xE0 SHL DUP2 MSTORE PUSH1 0x1 PUSH1 0x1 PUSH1 0xA0 SHL SUB SWAP2 DUP3 AND SWAP3 DUP2 ADD SWAP3 SWAP1 SWAP3 MSTORE CALLVALUE PUSH1 0x24 DUP4 ADD MSTORE SWAP1 SWAP2 PUSH1 0x20 SWAP2 DUP4 SWAP2 PUSH1 0x44 SWAP2 DUP4 SWAP2 PUSH1 0x0 SWAP2 AND GAS CALL DUP1 ISZERO PUSH2 0x413 JUMPI PUSH2 0xAC7 JUMPI JUMPDEST POP PUSH1 0x1 PUSH1 0x1 PUSH1 0xA0 SHL SUB PUSH1 0x4 SLOAD AND DUP1 EXTCODESIZE ISZERO PUSH2 0x1BD JUMPI PUSH1 0x0 DUP1 SWAP2 PUSH1 0x44 PUSH1 0x40 MLOAD DUP1 SWAP5 DUP2 SWAP4 PUSH4 0x6E553F65 PUSH1 0xE0 SHL DUP4 MSTORE CALLVALUE PUSH1 0x4 DUP5 ADD MSTORE ADDRESS PUSH1 0x24 DUP5 ADD MSTORE GAS CALL DUP1 ISZERO PUSH2 0x413 JUMPI PUSH2 0xAB8 JUMPI JUMPDEST POP PUSH2 0xA66 PUSH1 0x7 SLOAD TIMESTAMP PUSH2 0x103E JUMP JUMPDEST SWAP1 PUSH1 0x40 MLOAD SWAP3 PUSH2 0xA77 DUP5 PUSH1 0x4 CALLDATALOAD PUSH2 0xF1E JUMP JUMPDEST PUSH1 0x24 CALLDATALOAD PUSH1 0x20 DUP6 ADD MSTORE MUL PUSH1 0x40 DUP4 ADD MSTORE TIMESTAMP PUSH1 0x60 DUP4 ADD MSTORE PUSH1 0x80 DUP3 ADD MSTORE PUSH32 0x46796FC72779CBABD1EA8B64C35F18F13D4D3D4693526DEB779040B773C311B PUSH1 0xA0 CALLER SWAP3 LOG2 STOP JUMPDEST PUSH2 0xAC1 SWAP1 PUSH2 0xFFB JUMP JUMPDEST DUP3 PUSH2 0xA59 JUMP JUMPDEST PUSH2 0xADF SWAP1 PUSH1 0x20 RETURNDATASIZE PUSH1 0x20 GT PUSH2 0x454 JUMPI PUSH2 0x445 DUP2 DUP4 PUSH2 0x100F JUMP JUMPDEST POP DUP3 PUSH2 0xA15 JUMP JUMPDEST PUSH2 0xAEF SWAP1 PUSH2 0xFFB JUMP JUMPDEST DUP3 PUSH2 0x9CB JUMP JUMPDEST PUSH4 0x4E487B71 PUSH1 0xE0 SHL PUSH1 0x0 MSTORE PUSH1 0x21 PUSH1 0x4 MSTORE PUSH1 0x24 PUSH1 0x0 REVERT JUMPDEST PUSH4 0x4E487B71 PUSH1 0xE0 SHL PUSH1 0x0 MSTORE PUSH1 0x0 PUSH1 0x4 MSTORE PUSH1 0x24 PUSH1 0x0 REVERT JUMPDEST SWAP1 POP PUSH1 0x20 DUP2 RETURNDATASIZE PUSH1 0x20 GT PUSH2 0xB4B JUMPI JUMPDEST DUP2 PUSH2 0xB3C PUSH1 0x20 SWAP4 DUP4 PUSH2 0x100F JUMP JUMPDEST DUP2 ADD SUB SLT PUSH2 0x1BD JUMPI MLOAD DUP2 PUSH2 0x853 JUMP JUMPDEST RETURNDATASIZE SWAP2 POP PUSH2 0xB2F JUMP JUMPDEST CALLVALUE PUSH2 0x1BD JUMPI PUSH1 0x0 CALLDATASIZE PUSH1 0x3 NOT ADD SLT PUSH2 0x1BD JUMPI PUSH1 0x20 PUSH2 0xB6E PUSH2 0x1093 JUMP JUMPDEST PUSH1 0x40 MLOAD SWAP1 ISZERO ISZERO DUP2 MSTORE RETURN JUMPDEST CALLVALUE PUSH2 0x1BD JUMPI PUSH1 0x0 CALLDATASIZE PUSH1 0x3 NOT ADD SLT PUSH2 0x1BD JUMPI PUSH1 0x20 PUSH1 0x9 SLOAD PUSH1 0x40 MLOAD SWAP1 DUP2 MSTORE RETURN JUMPDEST CALLVALUE PUSH2 0x1BD JUMPI PUSH1 0x0 CALLDATASIZE PUSH1 0x3 NOT ADD SLT PUSH2 0x1BD JUMPI PUSH1 0x20 PUSH2 0xB6E PUSH2 0x105A JUMP JUMPDEST CALLVALUE PUSH2 0x1BD JUMPI PUSH1 0x0 CALLDATASIZE PUSH1 0x3 NOT ADD SLT PUSH2 0x1BD JUMPI PUSH1 0x20 PUSH1 0x1 PUSH1 0x1 PUSH1 0xA0 SHL SUB PUSH1 0x3 SLOAD AND PUSH1 0x40 MLOAD SWAP1 DUP2 MSTORE RETURN JUMPDEST CALLVALUE PUSH2 0x1BD JUMPI PUSH1 0x0 CALLDATASIZE PUSH1 0x3 NOT ADD SLT PUSH2 0x1BD JUMPI PUSH1 0x1 DUP1 SLOAD PUSH1 0x40 MLOAD PUSH4 0x8E15F473 PUSH1 0xE0 SHL DUP2 MSTORE PUSH1 0x20 SWAP2 PUSH1 0x1 PUSH1 0x1 PUSH1 0xA0 SHL SUB SWAP1 DUP4 SWAP1 DUP4 SWAP1 PUSH1 0x4 SWAP1 DUP3 SWAP1 DUP6 AND GAS STATICCALL SWAP2 DUP3 ISZERO PUSH2 0x413 JUMPI PUSH1 0x0 SWAP3 PUSH2 0xDA1 JUMPI JUMPDEST POP PUSH5 0x2540BE400 SWAP2 DUP3 DUP2 MUL SWAP3 DUP2 DUP5 DIV EQ SWAP1 ISZERO OR ISZERO PUSH2 0x5DC JUMPI SWAP1 PUSH1 0x0 DUP5 JUMPDEST PUSH2 0xC6D JUMPI JUMPDEST PUSH1 0xC DUP5 CALLER PUSH1 0x0 MSTORE MSTORE PUSH1 0x40 PUSH1 0x0 KECCAK256 PUSH2 0xC5B DUP2 SLOAD PUSH2 0x104B JUMP JUMPDEST SWAP1 SSTORE PUSH2 0xC68 PUSH1 0xB SLOAD PUSH2 0x104B JUMP JUMPDEST PUSH1 0xB SSTORE STOP JUMPDEST PUSH1 0x2 SLOAD DUP2 LT ISZERO PUSH2 0xD9C JUMPI SWAP1 DUP5 DUP3 PUSH2 0xC85 DUP3 SWAP6 SWAP5 PUSH2 0xECE JUMP JUMPDEST POP PUSH1 0xFF PUSH1 0x7 DUP1 SWAP3 ADD SLOAD AND ISZERO DUP1 PUSH2 0xD85 JUMPI JUMPDEST PUSH2 0xCA5 JUMPI JUMPDEST POP ADD SWAP1 SWAP2 SWAP3 PUSH2 0xC3F JUMP JUMPDEST DUP3 PUSH2 0xCAF DUP4 PUSH2 0xECE JUMP JUMPDEST POP ADD SLOAD SWAP1 DUP5 DUP3 GT ISZERO PUSH2 0xD77 JUMPI PUSH2 0xCCF DUP6 PUSH2 0xCC9 DUP2 DUP6 PUSH2 0x1031 JUMP JUMPDEST SWAP4 PUSH2 0x1485 JUMP JUMPDEST SWAP2 PUSH2 0xCEA PUSH1 0x6 PUSH2 0xCDE DUP7 PUSH2 0xECE JUMP JUMPDEST POP ADD SLOAD PUSH1 0x8 SLOAD SWAP1 PUSH2 0x103E JUMP JUMPDEST TIMESTAMP GT PUSH2 0xD4C JUMPI DUP7 PUSH2 0xCFA DUP6 PUSH2 0xECE JUMP JUMPDEST POP SLOAD AND PUSH1 0x0 MSTORE PUSH1 0xC DUP10 MSTORE JUMPDEST PUSH1 0x4 PUSH2 0xD10 DUP6 PUSH2 0xECE JUMP JUMPDEST POP ADD SSTORE PUSH2 0xD1C DUP4 PUSH2 0xECE JUMP JUMPDEST POP ADD DUP1 SLOAD PUSH1 0xFF NOT AND DUP5 OR SWAP1 SSTORE DUP4 PUSH1 0x3 PUSH2 0xD34 DUP5 PUSH2 0xECE JUMP JUMPDEST POP ADD SSTORE PUSH2 0xD44 PUSH1 0xB SWAP2 DUP3 SLOAD PUSH2 0x103E JUMP JUMPDEST SWAP1 SSTORE DUP8 PUSH2 0xC9B JUMP JUMPDEST DUP7 PUSH2 0xD56 DUP6 PUSH2 0xECE JUMP JUMPDEST POP SLOAD AND PUSH1 0x0 MSTORE PUSH1 0xC DUP10 MSTORE PUSH1 0x40 PUSH1 0x0 KECCAK256 PUSH2 0xD70 DUP5 DUP3 SLOAD PUSH2 0x103E JUMP JUMPDEST SWAP1 SSTORE PUSH2 0xD05 JUMP JUMPDEST PUSH2 0xCCF DUP6 PUSH2 0xCC9 DUP5 DUP3 PUSH2 0x1031 JUMP JUMPDEST POP PUSH1 0x6 PUSH2 0xD91 DUP4 PUSH2 0xECE JUMP JUMPDEST POP ADD SLOAD TIMESTAMP LT ISZERO PUSH2 0xC96 JUMP JUMPDEST PUSH2 0xC44 JUMP JUMPDEST SWAP1 SWAP2 POP DUP3 DUP2 DUP2 RETURNDATASIZE DUP4 GT PUSH2 0xDC9 JUMPI JUMPDEST PUSH2 0xDB9 DUP2 DUP4 PUSH2 0x100F JUMP JUMPDEST DUP2 ADD SUB SLT PUSH2 0x1BD JUMPI MLOAD SWAP1 DUP5 PUSH2 0xC22 JUMP JUMPDEST POP RETURNDATASIZE PUSH2 0xDAF JUMP JUMPDEST CALLVALUE PUSH2 0x1BD JUMPI PUSH1 0x20 CALLDATASIZE PUSH1 0x3 NOT ADD SLT PUSH2 0x1BD JUMPI PUSH1 0x4 CALLDATALOAD PUSH1 0x1 PUSH1 0x1 PUSH1 0xA0 SHL SUB DUP2 AND DUP1 SWAP2 SUB PUSH2 0x1BD JUMPI PUSH1 0x0 MSTORE PUSH1 0xC PUSH1 0x20 MSTORE PUSH1 0x20 PUSH1 0x40 PUSH1 0x0 KECCAK256 SLOAD PUSH1 0x40 MLOAD SWAP1 DUP2 MSTORE RETURN JUMPDEST CALLVALUE PUSH2 0x1BD JUMPI PUSH1 0x0 CALLDATASIZE PUSH1 0x3 NOT ADD SLT PUSH2 0x1BD JUMPI PUSH1 0x20 PUSH1 0x2 SLOAD PUSH1 0x40 MLOAD SWAP1 DUP2 MSTORE RETURN JUMPDEST CALLVALUE PUSH2 0x1BD JUMPI PUSH1 0x20 CALLDATASIZE PUSH1 0x3 NOT ADD SLT PUSH2 0x1BD JUMPI PUSH1 0x4 CALLDATALOAD PUSH1 0x2 SLOAD DUP2 LT ISZERO PUSH2 0x1BD JUMPI PUSH2 0xE55 PUSH2 0x120 SWAP2 PUSH2 0xECE JUMP JUMPDEST POP DUP1 SLOAD SWAP1 PUSH1 0x1 DUP2 ADD SLOAD SWAP1 PUSH1 0x2 DUP2 ADD SLOAD PUSH1 0x3 DUP3 ADD SLOAD PUSH1 0x4 DUP4 ADD SLOAD SWAP1 PUSH1 0x5 DUP5 ADD SLOAD SWAP3 PUSH1 0xFF PUSH1 0x7 PUSH1 0x6 DUP8 ADD SLOAD SWAP7 ADD SLOAD AND SWAP6 PUSH2 0xEA6 PUSH1 0x40 MLOAD SWAP9 PUSH1 0x1 PUSH1 0x1 PUSH1 0xA0 SHL SUB DUP2 AND DUP11 MSTORE PUSH1 0xFF PUSH1 0x20 DUP12 ADD SWAP2 PUSH1 0xA0 SHR AND PUSH2 0xF1E JUMP JUMPDEST PUSH1 0x40 DUP9 ADD MSTORE PUSH1 0x60 DUP8 ADD MSTORE PUSH1 0x80 DUP7 ADD MSTORE PUSH1 0xA0 DUP6 ADD MSTORE PUSH1 0xC0 DUP5 ADD MSTORE PUSH1 0xE0 DUP4 ADD MSTORE ISZERO ISZERO PUSH2 0x100 DUP3 ADD MSTORE RETURN JUMPDEST PUSH1 0x2 SLOAD DUP2 LT ISZERO PUSH2 0xF08 JUMPI PUSH1 0x2 PUSH1 0x0 MSTORE PUSH1 0x3 SHL PUSH32 0x405787FA12A823E0F2B7631CC41B3BA8828B3321CA811111FA75CD3AA3BB5ACE ADD SWAP1 PUSH1 0x0 SWAP1 JUMP JUMPDEST PUSH4 0x4E487B71 PUSH1 0xE0 SHL PUSH1 0x0 MSTORE PUSH1 0x32 PUSH1 0x4 MSTORE PUSH1 0x24 PUSH1 0x0 REVERT JUMPDEST SWAP1 PUSH1 0x1 DUP3 LT ISZERO PUSH2 0xAF5 JUMPI MSTORE JUMP JUMPDEST PUSH1 0x1 PUSH1 0x1 PUSH1 0xA0 SHL SUB DUP2 MLOAD AND DUP3 MSTORE PUSH2 0xF4A PUSH1 0x20 DUP3 ADD MLOAD PUSH1 0x20 DUP5 ADD SWAP1 PUSH2 0xF1E JUMP JUMPDEST PUSH1 0x40 DUP2 ADD MLOAD PUSH1 0x40 DUP4 ADD MSTORE PUSH1 0x60 DUP2 ADD MLOAD PUSH1 0x60 DUP4 ADD MSTORE PUSH1 0x80 DUP2 ADD MLOAD PUSH1 0x80 DUP4 ADD MSTORE PUSH1 0xA0 DUP2 ADD MLOAD PUSH1 0xA0 DUP4 ADD MSTORE PUSH1 0xC0 DUP2 ADD MLOAD PUSH1 0xC0 DUP4 ADD MSTORE PUSH1 0xE0 DUP2 ADD MLOAD PUSH1 0xE0 DUP4 ADD MSTORE PUSH2 0x100 DUP1 SWAP2 ADD MLOAD ISZERO ISZERO SWAP2 ADD MSTORE JUMP JUMPDEST PUSH1 0x20 SWAP1 PUSH1 0x20 PUSH1 0x40 DUP2 DUP4 ADD SWAP3 DUP3 DUP2 MSTORE DUP6 MLOAD DUP1 SWAP5 MSTORE ADD SWAP4 ADD SWAP2 PUSH1 0x0 JUMPDEST DUP3 DUP2 LT PUSH2 0xFBC JUMPI POP POP POP POP SWAP1 JUMP JUMPDEST SWAP1 SWAP2 SWAP3 SWAP4 DUP3 PUSH2 0x120 DUP3 PUSH2 0xFD2 PUSH1 0x1 SWAP5 DUP10 MLOAD PUSH2 0xF2B JUMP JUMPDEST ADD SWAP6 ADD SWAP4 SWAP3 SWAP2 ADD PUSH2 0xFAE JUMP JUMPDEST PUSH2 0x120 DUP2 ADD SWAP1 DUP2 LT PUSH8 0xFFFFFFFFFFFFFFFF DUP3 GT OR PUSH2 0x3D1 JUMPI PUSH1 0x40 MSTORE JUMP JUMPDEST PUSH8 0xFFFFFFFFFFFFFFFF DUP2 GT PUSH2 0x3D1 JUMPI PUSH1 0x40 MSTORE JUMP JUMPDEST SWAP1 PUSH1 0x1F DUP1 NOT SWAP2 ADD AND DUP2 ADD SWAP1 DUP2 LT PUSH8 0xFFFFFFFFFFFFFFFF DUP3 GT OR PUSH2 0x3D1 JUMPI PUSH1 0x40 MSTORE JUMP JUMPDEST SWAP2 SWAP1 DUP3 SUB SWAP2 DUP3 GT PUSH2 0x5DC JUMPI JUMP JUMPDEST SWAP2 SWAP1 DUP3 ADD DUP1 SWAP3 GT PUSH2 0x5DC JUMPI JUMP JUMPDEST PUSH1 0x0 NOT DUP2 EQ PUSH2 0x5DC JUMPI PUSH1 0x1 ADD SWAP1 JUMP JUMPDEST PUSH1 0x2 SLOAD PUSH1 0x0 JUMPDEST DUP2 DUP2 LT PUSH2 0x106E JUMPI POP POP PUSH1 0x0 SWAP1 JUMP JUMPDEST PUSH1 0xFF PUSH1 0x7 PUSH2 0x107B DUP4 PUSH2 0xECE JUMP JUMPDEST POP ADD SLOAD AND ISZERO PUSH2 0x108C JUMPI PUSH1 0x1 ADD PUSH2 0x1060 JUMP JUMPDEST POP POP PUSH1 0x1 SWAP1 JUMP JUMPDEST PUSH1 0x2 SLOAD PUSH1 0x0 JUMPDEST DUP2 DUP2 LT PUSH2 0x10A7 JUMPI POP POP PUSH1 0x0 SWAP1 JUMP JUMPDEST PUSH1 0xFF PUSH1 0x7 PUSH2 0x10B4 DUP4 PUSH2 0xECE JUMP JUMPDEST POP ADD SLOAD AND ISZERO DUP1 PUSH2 0x10CB JUMPI JUMPDEST PUSH2 0x108C JUMPI PUSH1 0x1 ADD PUSH2 0x1099 JUMP JUMPDEST POP PUSH1 0x6 PUSH2 0x10D7 DUP3 PUSH2 0xECE JUMP JUMPDEST POP ADD SLOAD TIMESTAMP GT PUSH2 0x10BF JUMP JUMPDEST ISZERO PUSH2 0x10E8 JUMPI JUMP JUMPDEST PUSH1 0x40 MLOAD PUSH3 0x461BCD PUSH1 0xE5 SHL DUP2 MSTORE PUSH1 0x20 PUSH1 0x4 DUP3 ADD MSTORE PUSH1 0x12 PUSH1 0x24 DUP3 ADD MSTORE PUSH32 0x496E76616C69642066656520616D6F756E740000000000000000000000000000 PUSH1 0x44 DUP3 ADD MSTORE PUSH1 0x64 SWAP1 REVERT JUMPDEST PUSH1 0x1 DUP3 LT ISZERO PUSH2 0xAF5 JUMPI MSTORE JUMP JUMPDEST SWAP1 DUP2 PUSH1 0x20 SWAP2 SUB SLT PUSH2 0x1BD JUMPI MLOAD DUP1 ISZERO ISZERO DUP2 SUB PUSH2 0x1BD JUMPI SWAP1 JUMP JUMPDEST ISZERO PUSH2 0x1158 JUMPI JUMP JUMPDEST PUSH1 0x40 MLOAD PUSH3 0x461BCD PUSH1 0xE5 SHL DUP2 MSTORE PUSH1 0x20 PUSH1 0x4 DUP3 ADD MSTORE PUSH1 0xD PUSH1 0x24 DUP3 ADD MSTORE PUSH13 0x496E76616C69642072616E6765 PUSH1 0x98 SHL PUSH1 0x44 DUP3 ADD MSTORE PUSH1 0x64 SWAP1 REVERT JUMPDEST PUSH8 0xFFFFFFFFFFFFFFFF DUP2 GT PUSH2 0x3D1 JUMPI PUSH1 0x5 SHL PUSH1 0x20 ADD SWAP1 JUMP JUMPDEST PUSH1 0x40 MLOAD SWAP1 PUSH2 0x11B2 DUP3 PUSH2 0xFDE JUMP JUMPDEST DUP2 PUSH2 0x100 PUSH1 0x0 SWAP2 DUP3 DUP2 MSTORE DUP3 PUSH1 0x20 DUP3 ADD MSTORE DUP3 PUSH1 0x40 DUP3 ADD MSTORE DUP3 PUSH1 0x60 DUP3 ADD MSTORE DUP3 PUSH1 0x80 DUP3 ADD MSTORE DUP3 PUSH1 0xA0 DUP3 ADD MSTORE DUP3 PUSH1 0xC0 DUP3 ADD MSTORE DUP3 PUSH1 0xE0 DUP3 ADD MSTORE ADD MSTORE JUMP JUMPDEST SWAP1 PUSH2 0x11F4 DUP3 PUSH2 0x118D JUMP JUMPDEST PUSH2 0x1201 PUSH1 0x40 MLOAD SWAP2 DUP3 PUSH2 0x100F JUMP JUMPDEST DUP3 DUP2 MSTORE DUP1 SWAP3 PUSH2 0x1212 PUSH1 0x1F NOT SWAP2 PUSH2 0x118D JUMP JUMPDEST ADD SWAP1 PUSH1 0x0 JUMPDEST DUP3 DUP2 LT PUSH2 0x1223 JUMPI POP POP POP JUMP JUMPDEST PUSH1 0x20 SWAP1 PUSH2 0x122E PUSH2 0x11A5 JUMP JUMPDEST DUP3 DUP3 DUP6 ADD ADD MSTORE ADD PUSH2 0x1217 JUMP JUMPDEST DUP1 MLOAD DUP3 LT ISZERO PUSH2 0xF08 JUMPI PUSH1 0x20 SWAP2 PUSH1 0x5 SHL ADD ADD SWAP1 JUMP JUMPDEST SWAP1 PUSH1 0x40 MLOAD PUSH2 0x125B DUP2 PUSH2 0xFDE JUMP JUMPDEST PUSH2 0x100 PUSH1 0xFF PUSH1 0x7 DUP4 SWAP6 PUSH2 0x1283 DUP4 DUP3 SLOAD PUSH1 0x1 PUSH1 0x1 PUSH1 0xA0 SHL SUB DUP2 AND DUP9 MSTORE PUSH1 0xA0 SHR AND PUSH1 0x20 DUP8 ADD PUSH2 0x112D JUMP JUMPDEST PUSH1 0x1 DUP2 ADD SLOAD PUSH1 0x40 DUP7 ADD MSTORE PUSH1 0x2 DUP2 ADD SLOAD PUSH1 0x60 DUP7 ADD MSTORE PUSH1 0x3 DUP2 ADD SLOAD PUSH1 0x80 DUP7 ADD MSTORE PUSH1 0x4 DUP2 ADD SLOAD PUSH1 0xA0 DUP7 ADD MSTORE PUSH1 0x5 DUP2 ADD SLOAD PUSH1 0xC0 DUP7 ADD MSTORE PUSH1 0x6 DUP2 ADD SLOAD PUSH1 0xE0 DUP7 ADD MSTORE ADD SLOAD AND ISZERO ISZERO SWAP2 ADD MSTORE JUMP JUMPDEST DUP2 ISZERO PUSH2 0x12D3 JUMPI DIV SWAP1 JUMP JUMPDEST PUSH4 0x4E487B71 PUSH1 0xE0 SHL PUSH1 0x0 MSTORE PUSH1 0x12 PUSH1 0x4 MSTORE PUSH1 0x24 PUSH1 0x0 REVERT JUMPDEST SWAP1 PUSH1 0x1 PUSH1 0x1 PUSH1 0xA0 SHL SUB DUP1 SWAP3 AND PUSH1 0x0 SWAP3 DUP2 DUP5 MSTORE PUSH1 0x20 PUSH1 0xC DUP2 MSTORE PUSH1 0x40 SWAP1 DUP2 DUP7 KECCAK256 SLOAD ISZERO PUSH2 0x1443 JUMPI PUSH1 0xB SLOAD SWAP4 DUP5 ISZERO PUSH2 0x1400 JUMPI DUP7 MSTORE PUSH1 0xC DUP2 MSTORE DUP2 DUP7 KECCAK256 SLOAD SWAP4 PUSH8 0xDE0B6B3A7640000 SWAP5 DUP6 DUP2 MUL SWAP1 DUP1 DUP3 DIV DUP8 EQ SWAP1 ISZERO OR ISZERO PUSH2 0x13EC JUMPI SWAP2 PUSH2 0x134B DUP2 SWAP3 PUSH1 0x24 SWAP5 PUSH2 0x12C9 JUMP JUMPDEST SWAP5 PUSH1 0x4 SLOAD AND DUP5 MLOAD SWAP4 DUP5 DUP1 SWAP3 PUSH4 0x70A08231 PUSH1 0xE0 SHL DUP3 MSTORE ADDRESS PUSH1 0x4 DUP4 ADD MSTORE GAS STATICCALL SWAP3 DUP4 ISZERO PUSH2 0x13E3 JUMPI POP DUP7 SWAP3 PUSH2 0x13B1 JUMPI JUMPDEST POP POP DUP2 DUP2 MUL SWAP2 DUP2 DUP4 DIV EQ SWAP1 ISZERO OR ISZERO PUSH2 0x139D JUMPI PUSH2 0x139A SWAP3 SWAP4 POP DIV DUP1 PUSH1 0x1 SHR SWAP1 PUSH2 0x1031 JUMP JUMPDEST SWAP1 JUMP JUMPDEST PUSH4 0x4E487B71 PUSH1 0xE0 SHL DUP5 MSTORE PUSH1 0x11 PUSH1 0x4 MSTORE PUSH1 0x24 DUP5 REVERT JUMPDEST SWAP1 DUP1 SWAP3 POP DUP2 RETURNDATASIZE DUP4 GT PUSH2 0x13DC JUMPI JUMPDEST PUSH2 0x13C8 DUP2 DUP4 PUSH2 0x100F JUMP JUMPDEST DUP2 ADD SUB SLT PUSH2 0x13D8 JUMPI MLOAD CODESIZE DUP1 PUSH2 0x1377 JUMP JUMPDEST DUP5 DUP1 REVERT JUMPDEST POP RETURNDATASIZE PUSH2 0x13BE JUMP JUMPDEST MLOAD RETURNDATASIZE DUP9 DUP3 RETURNDATACOPY RETURNDATASIZE SWAP1 REVERT JUMPDEST PUSH4 0x4E487B71 PUSH1 0xE0 SHL DUP9 MSTORE PUSH1 0x11 PUSH1 0x4 MSTORE PUSH1 0x24 DUP9 REVERT JUMPDEST POP PUSH1 0x64 SWAP2 MLOAD SWAP1 PUSH3 0x461BCD PUSH1 0xE5 SHL DUP3 MSTORE PUSH1 0x4 DUP3 ADD MSTORE PUSH1 0x14 PUSH1 0x24 DUP3 ADD MSTORE PUSH32 0x4E6F207265776172647320617661696C61626C65000000000000000000000000 PUSH1 0x44 DUP3 ADD MSTORE REVERT JUMPDEST PUSH1 0x64 SWAP2 MLOAD SWAP1 PUSH3 0x461BCD PUSH1 0xE5 SHL DUP3 MSTORE PUSH1 0x4 DUP3 ADD MSTORE PUSH1 0x13 PUSH1 0x24 DUP3 ADD MSTORE PUSH32 0x4E6F2070726564696374696F6E73206D61646500000000000000000000000000 PUSH1 0x44 DUP3 ADD MSTORE REVERT JUMPDEST DUP2 ISZERO PUSH2 0x108C JUMPI DUP2 DUP1 DUP3 GT ISZERO PUSH2 0x1539 JUMPI PUSH2 0x149D SWAP2 PUSH2 0x1031 JUMP JUMPDEST SWAP1 JUMPDEST PUSH1 0x64 DUP3 MUL SWAP2 DUP1 DUP4 DIV PUSH1 0x64 EQ SWAP1 ISZERO OR ISZERO PUSH2 0x5DC JUMPI PUSH2 0x14BB SWAP2 PUSH2 0x12C9 JUMP JUMPDEST DUP1 PUSH2 0x14C6 JUMPI POP PUSH1 0xA SWAP1 JUMP JUMPDEST PUSH1 0x5 DUP2 GT PUSH2 0x14D4 JUMPI POP PUSH1 0x9 SWAP1 JUMP JUMPDEST PUSH1 0xA DUP2 GT PUSH2 0x14E2 JUMPI POP PUSH1 0x8 SWAP1 JUMP JUMPDEST PUSH1 0xF DUP2 GT PUSH2 0x14F0 JUMPI POP PUSH1 0x7 SWAP1 JUMP JUMPDEST PUSH1 0x14 DUP2 GT PUSH2 0x14FE JUMPI POP PUSH1 0x6 SWAP1 JUMP JUMPDEST PUSH1 0x19 DUP2 GT PUSH2 0x150C JUMPI POP PUSH1 0x5 SWAP1 JUMP JUMPDEST PUSH1 0x1E DUP2 GT PUSH2 0x151A JUMPI POP PUSH1 0x4 SWAP1 JUMP JUMPDEST PUSH1 0x23 DUP2 GT PUSH2 0x1528 JUMPI POP PUSH1 0x3 SWAP1 JUMP JUMPDEST PUSH1 0x28 LT PUSH2 0x1534 JUMPI PUSH1 0x2 SWAP1 JUMP JUMPDEST PUSH1 0x1 SWAP1 JUMP JUMPDEST SWAP1 PUSH2 0x1543 SWAP2 PUSH2 0x1031 JUMP JUMPDEST SWAP1 PUSH2 0x149F JUMP INVALID LOG2 PUSH5 0x6970667358 0x22 SLT KECCAK256 POP 0xE 0xC2 AND 0xD0 0x29 0xE6 REVERT GAS DUP4 DUP16 BLOBBASEFEE 0xC9 0x2B 0xCD 0xE0 0xC DELEGATECALL 0xF8 0xD5 PUSH12 0x869E4AE2ECA89636031A3E64 PUSH20 0x6F6C634300081900330000000000000000000000 "},"gasEstimates":{"creation":{"codeDepositCost":"1100600","executionCost":"infinite","totalCost":"infinite"},"external":{"calculateReward(address)":"infinite","distributionCounter(address)":"2403","exit()":"infinite","exitLimit()":"2382","getPrediction(uint256)":"infinite","getPredictionCount()":"2272","getPredictionFromTo(uint256,uint256)":"infinite","getSubmissionFee()":"2840","getTotalPredictions()":"2470","hasAnyUnresolvedPastEndTime()":"infinite","hasUnresolvedPredictions()":"infinite","last10Predictions()":"infinite","lastWithdraw(address)":"2623","oracle()":"2620","predictionDuration()":"2536","predictions(uint256)":"21563","resolutionLimit()":"2558","resolve()":"infinite","submissionBaseFee()":"2668","submissionStepFee()":"2624","submit(uint8,uint256)":"infinite","totalDistribution()":"2734","totalPredictions()":"2580","userSubmissionFees(address)":"2601","wnative()":"2356","yearnVault()":"2664"},"internal":{"calculateScore(uint256,uint256)":"450"}},"methodIdentifiers":{"calculateReward(address)":"d82e3962","distributionCounter(address)":"037361e9","exit()":"e9fad8ee","exitLimit()":"44ed9f66","getPrediction(uint256)":"fe83bece","getPredictionCount()":"01668096","getPredictionFromTo(uint256,uint256)":"5590cfa9","getSubmissionFee()":"f9be8523","getTotalPredictions()":"5c580061","hasAnyUnresolvedPastEndTime()":"4abf93b7","hasUnresolvedPredictions()":"371d5d02","last10Predictions()":"d1c4e1b4","lastWithdraw(address)":"624d7b72","oracle()":"7dc0d1d0","predictionDuration()":"70246a1e","predictions(uint256)":"004fbbb0","resolutionLimit()":"71d61cd5","resolve()":"2810e1d6","submissionBaseFee()":"cd634792","submissionStepFee()":"80450cde","submit(uint8,uint256)":"4ce93cc8","totalDistribution()":"e75e454e","totalPredictions()":"779bd562","userSubmissionFees(address)":"600bebf5","wnative()":"2cebdeb2","yearnVault()":"9db5df46"}},"storageLayout":{"storage":[{"astId":1573,"contract":"contracts/community/Pool.sol:Pool","label":"_status","offset":0,"slot":"0","type":"t_uint256"},{"astId":2454,"contract":"contracts/community/Pool.sol:Pool","label":"oracle","offset":0,"slot":"1","type":"t_contract(Oracle)7912"},{"astId":2480,"contract":"contracts/community/Pool.sol:Pool","label":"predictions","offset":0,"slot":"2","type":"t_array(t_struct(Prediction)2476_storage)dyn_storage"},{"astId":2483,"contract":"contracts/community/Pool.sol:Pool","label":"wnative","offset":0,"slot":"3","type":"t_contract(IWETH)7999"},{"astId":2486,"contract":"contracts/community/Pool.sol:Pool","label":"yearnVault","offset":0,"slot":"4","type":"t_contract(IVault)7979"},{"astId":2489,"contract":"contracts/community/Pool.sol:Pool","label":"submissionBaseFee","offset":0,"slot":"5","type":"t_uint256"},{"astId":2492,"contract":"contracts/community/Pool.sol:Pool","label":"submissionStepFee","offset":0,"slot":"6","type":"t_uint256"},{"astId":2495,"contract":"contracts/community/Pool.sol:Pool","label":"predictionDuration","offset":0,"slot":"7","type":"t_uint256"},{"astId":2498,"contract":"contracts/community/Pool.sol:Pool","label":"resolutionLimit","offset":0,"slot":"8","type":"t_uint256"},{"astId":2501,"contract":"contracts/community/Pool.sol:Pool","label":"exitLimit","offset":0,"slot":"9","type":"t_uint256"},{"astId":2504,"contract":"contracts/community/Pool.sol:Pool","label":"totalPredictions","offset":0,"slot":"10","type":"t_uint256"},{"astId":2507,"contract":"contracts/community/Pool.sol:Pool","label":"totalDistribution","offset":0,"slot":"11","type":"t_uint256"},{"astId":2511,"contract":"contracts/community/Pool.sol:Pool","label":"distributionCounter","offset":0,"slot":"12","type":"t_mapping(t_address,t_uint256)"},{"astId":2515,"contract":"contracts/community/Pool.sol:Pool","label":"lastWithdraw","offset":0,"slot":"13","type":"t_mapping(t_address,t_uint256)"},{"astId":2519,"contract":"contracts/community/Pool.sol:Pool","label":"userSubmissionFees","offset":0,"slot":"14","type":"t_mapping(t_address,t_uint256)"}],"types":{"t_address":{"encoding":"inplace","label":"address","numberOfBytes":"20"},"t_array(t_struct(Prediction)2476_storage)dyn_storage":{"base":"t_struct(Prediction)2476_storage","encoding":"dynamic_array","label":"struct Pool.Prediction[]","numberOfBytes":"32"},"t_bool":{"encoding":"inplace","label":"bool","numberOfBytes":"1"},"t_contract(IVault)7979":{"encoding":"inplace","label":"contract IVault","numberOfBytes":"20"},"t_contract(IWETH)7999":{"encoding":"inplace","label":"contract IWETH","numberOfBytes":"20"},"t_contract(Oracle)7912":{"encoding":"inplace","label":"contract Oracle","numberOfBytes":"20"},"t_enum(Coin)2456":{"encoding":"inplace","label":"enum Pool.Coin","numberOfBytes":"1"},"t_mapping(t_address,t_uint256)":{"encoding":"mapping","key":"t_address","label":"mapping(address => uint256)","numberOfBytes":"32","value":"t_uint256"},"t_struct(Prediction)2476_storage":{"encoding":"inplace","label":"struct Pool.Prediction","members":[{"astId":2458,"contract":"contracts/community/Pool.sol:Pool","label":"predictor","offset":0,"slot":"0","type":"t_address"},{"astId":2461,"contract":"contracts/community/Pool.sol:Pool","label":"token","offset":20,"slot":"0","type":"t_enum(Coin)2456"},{"astId":2463,"contract":"contracts/community/Pool.sol:Pool","label":"predictedPrice","offset":0,"slot":"1","type":"t_uint256"},{"astId":2465,"contract":"contracts/community/Pool.sol:Pool","label":"actualPrice","offset":0,"slot":"2","type":"t_uint256"},{"astId":2467,"contract":"contracts/community/Pool.sol:Pool","label":"resolvedPrice","offset":0,"slot":"3","type":"t_uint256"},{"astId":2469,"contract":"contracts/community/Pool.sol:Pool","label":"difference","offset":0,"slot":"4","type":"t_uint256"},{"astId":2471,"contract":"contracts/community/Pool.sol:Pool","label":"timestamp","offset":0,"slot":"5","type":"t_uint256"},{"astId":2473,"contract":"contracts/community/Pool.sol:Pool","label":"endTime","offset":0,"slot":"6","type":"t_uint256"},{"astId":2475,"contract":"contracts/community/Pool.sol:Pool","label":"resolved","offset":0,"slot":"7","type":"t_bool"}],"numberOfBytes":"256"},"t_uint256":{"encoding":"inplace","label":"uint256","numberOfBytes":"32"}}},"userdoc":{"kind":"user","methods":{},"version":1}}}}