{"contracts/core/BaluniRouter.sol":{"BaluniRouter":{"abi":[{"inputs":[],"stateMutability":"nonpayable","type":"constructor"},{"inputs":[{"internalType":"address","name":"target","type":"address"}],"name":"AddressEmptyCode","type":"error"},{"inputs":[{"internalType":"address","name":"account","type":"address"}],"name":"AddressInsufficientBalance","type":"error"},{"inputs":[{"internalType":"address","name":"spender","type":"address"},{"internalType":"uint256","name":"allowance","type":"uint256"},{"internalType":"uint256","name":"needed","type":"uint256"}],"name":"ERC20InsufficientAllowance","type":"error"},{"inputs":[{"internalType":"address","name":"sender","type":"address"},{"internalType":"uint256","name":"balance","type":"uint256"},{"internalType":"uint256","name":"needed","type":"uint256"}],"name":"ERC20InsufficientBalance","type":"error"},{"inputs":[{"internalType":"address","name":"approver","type":"address"}],"name":"ERC20InvalidApprover","type":"error"},{"inputs":[{"internalType":"address","name":"receiver","type":"address"}],"name":"ERC20InvalidReceiver","type":"error"},{"inputs":[{"internalType":"address","name":"sender","type":"address"}],"name":"ERC20InvalidSender","type":"error"},{"inputs":[{"internalType":"address","name":"spender","type":"address"}],"name":"ERC20InvalidSpender","type":"error"},{"inputs":[],"name":"FailedInnerCall","type":"error"},{"inputs":[{"internalType":"address","name":"owner","type":"address"}],"name":"OwnableInvalidOwner","type":"error"},{"inputs":[{"internalType":"address","name":"account","type":"address"}],"name":"OwnableUnauthorizedAccount","type":"error"},{"inputs":[],"name":"ReentrancyGuardReentrantCall","type":"error"},{"inputs":[{"internalType":"address","name":"token","type":"address"}],"name":"SafeERC20FailedOperation","type":"error"},{"anonymous":false,"inputs":[{"indexed":false,"internalType":"address","name":"user","type":"address"},{"indexed":false,"internalType":"address","name":"agent","type":"address"}],"name":"AgentCreated","type":"event"},{"anonymous":false,"inputs":[{"indexed":true,"internalType":"address","name":"owner","type":"address"},{"indexed":true,"internalType":"address","name":"spender","type":"address"},{"indexed":false,"internalType":"uint256","name":"value","type":"uint256"}],"name":"Approval","type":"event"},{"anonymous":false,"inputs":[{"indexed":false,"internalType":"address","name":"user","type":"address"},{"indexed":false,"internalType":"uint256","name":"value","type":"uint256"}],"name":"Burn","type":"event"},{"anonymous":false,"inputs":[{"indexed":false,"internalType":"uint256","name":"newFee","type":"uint256"}],"name":"ChangeBpsFee","type":"event"},{"anonymous":false,"inputs":[{"indexed":false,"internalType":"uint256","name":"newFee","type":"uint256"}],"name":"ChangeLiquidateFee","type":"event"},{"anonymous":false,"inputs":[{"indexed":false,"internalType":"address","name":"user","type":"address"},{"components":[{"internalType":"address","name":"to","type":"address"},{"internalType":"uint256","name":"value","type":"uint256"},{"internalType":"bytes","name":"data","type":"bytes"}],"indexed":false,"internalType":"struct BaluniAgent.Call[]","name":"calls","type":"tuple[]"},{"indexed":false,"internalType":"address[]","name":"tokensReturn","type":"address[]"}],"name":"Execute","type":"event"},{"anonymous":false,"inputs":[{"indexed":false,"internalType":"address","name":"user","type":"address"},{"indexed":false,"internalType":"uint256","name":"value","type":"uint256"}],"name":"Mint","type":"event"},{"anonymous":false,"inputs":[{"indexed":true,"internalType":"address","name":"previousOwner","type":"address"},{"indexed":true,"internalType":"address","name":"newOwner","type":"address"}],"name":"OwnershipTransferred","type":"event"},{"anonymous":false,"inputs":[{"indexed":true,"internalType":"address","name":"user","type":"address"},{"indexed":false,"internalType":"uint256","name":"amount","type":"uint256"}],"name":"RewardClaimed","type":"event"},{"anonymous":false,"inputs":[{"indexed":true,"internalType":"address","name":"user","type":"address"},{"indexed":false,"internalType":"uint256","name":"amount","type":"uint256"}],"name":"Staked","type":"event"},{"anonymous":false,"inputs":[{"indexed":true,"internalType":"address","name":"from","type":"address"},{"indexed":true,"internalType":"address","name":"to","type":"address"},{"indexed":false,"internalType":"uint256","name":"value","type":"uint256"}],"name":"Transfer","type":"event"},{"anonymous":false,"inputs":[{"indexed":true,"internalType":"address","name":"user","type":"address"},{"indexed":false,"internalType":"uint256","name":"amount","type":"uint256"}],"name":"Unstaked","type":"event"},{"inputs":[],"name":"USDC","outputs":[{"internalType":"contract IERC20","name":"","type":"address"}],"stateMutability":"view","type":"function"},{"inputs":[],"name":"_BPS_BASE","outputs":[{"internalType":"uint256","name":"","type":"uint256"}],"stateMutability":"view","type":"function"},{"inputs":[],"name":"_BPS_FEE","outputs":[{"internalType":"uint256","name":"","type":"uint256"}],"stateMutability":"view","type":"function"},{"inputs":[],"name":"_BPS_LIQUIDATE_FEE","outputs":[{"internalType":"uint256","name":"","type":"uint256"}],"stateMutability":"view","type":"function"},{"inputs":[],"name":"_MAX_BPS_FEE","outputs":[{"internalType":"uint256","name":"","type":"uint256"}],"stateMutability":"view","type":"function"},{"inputs":[{"internalType":"address","name":"owner","type":"address"},{"internalType":"address","name":"spender","type":"address"}],"name":"allowance","outputs":[{"internalType":"uint256","name":"","type":"uint256"}],"stateMutability":"view","type":"function"},{"inputs":[{"internalType":"address","name":"spender","type":"address"},{"internalType":"uint256","name":"value","type":"uint256"}],"name":"approve","outputs":[{"internalType":"bool","name":"","type":"bool"}],"stateMutability":"nonpayable","type":"function"},{"inputs":[{"internalType":"address","name":"account","type":"address"}],"name":"balanceOf","outputs":[{"internalType":"uint256","name":"","type":"uint256"}],"stateMutability":"view","type":"function"},{"inputs":[{"internalType":"address","name":"","type":"address"}],"name":"balanceStakedOf","outputs":[{"internalType":"uint256","name":"","type":"uint256"}],"stateMutability":"view","type":"function"},{"inputs":[{"internalType":"uint256","name":"burnAmount","type":"uint256"}],"name":"burn","outputs":[],"stateMutability":"nonpayable","type":"function"},{"inputs":[{"internalType":"uint256","name":"burnAmount","type":"uint256"}],"name":"burnTokensAndSwapToUSDC","outputs":[],"stateMutability":"nonpayable","type":"function"},{"inputs":[{"internalType":"address","name":"account","type":"address"}],"name":"calculateRewardsEarned","outputs":[{"internalType":"uint256","name":"","type":"uint256"}],"stateMutability":"view","type":"function"},{"inputs":[{"internalType":"uint256","name":"_newFee","type":"uint256"}],"name":"changeBpsFee","outputs":[],"stateMutability":"nonpayable","type":"function"},{"inputs":[{"internalType":"uint256","name":"_newFee","type":"uint256"}],"name":"changeBpsLiquidateFee","outputs":[],"stateMutability":"nonpayable","type":"function"},{"inputs":[],"name":"claim","outputs":[{"internalType":"uint256","name":"","type":"uint256"}],"stateMutability":"nonpayable","type":"function"},{"inputs":[{"internalType":"address","name":"staker","type":"address"},{"internalType":"address","name":"_to","type":"address"}],"name":"claimTo","outputs":[{"internalType":"uint256","name":"","type":"uint256"}],"stateMutability":"nonpayable","type":"function"},{"inputs":[],"name":"decimals","outputs":[{"internalType":"uint8","name":"","type":"uint8"}],"stateMutability":"view","type":"function"},{"inputs":[{"components":[{"internalType":"address","name":"to","type":"address"},{"internalType":"uint256","name":"value","type":"uint256"},{"internalType":"bytes","name":"data","type":"bytes"}],"internalType":"struct BaluniAgent.Call[]","name":"calls","type":"tuple[]"},{"internalType":"address[]","name":"tokensReturn","type":"address[]"}],"name":"execute","outputs":[],"stateMutability":"nonpayable","type":"function"},{"inputs":[{"internalType":"address","name":"_user","type":"address"}],"name":"getAgentAddress","outputs":[{"internalType":"address","name":"","type":"address"}],"stateMutability":"view","type":"function"},{"inputs":[],"name":"getBpsFee","outputs":[{"internalType":"uint256","name":"","type":"uint256"}],"stateMutability":"view","type":"function"},{"inputs":[{"internalType":"uint256","name":"amount","type":"uint256"}],"name":"getUSDCShareValue","outputs":[{"internalType":"uint256","name":"","type":"uint256"}],"stateMutability":"view","type":"function"},{"inputs":[],"name":"getUnitPrice","outputs":[{"internalType":"uint256","name":"","type":"uint256"}],"stateMutability":"view","type":"function"},{"inputs":[{"internalType":"address","name":"token","type":"address"}],"name":"liquidate","outputs":[],"stateMutability":"nonpayable","type":"function"},{"inputs":[],"name":"listAllTokens","outputs":[{"internalType":"address[]","name":"","type":"address[]"}],"stateMutability":"view","type":"function"},{"inputs":[{"internalType":"uint256","name":"balAmountToMint","type":"uint256"},{"internalType":"address","name":"asset","type":"address"}],"name":"mintERC20","outputs":[{"internalType":"uint256","name":"","type":"uint256"}],"stateMutability":"nonpayable","type":"function"},{"inputs":[{"internalType":"uint256","name":"balAmountToMint","type":"uint256"}],"name":"mintUSDC","outputs":[{"internalType":"uint256","name":"","type":"uint256"}],"stateMutability":"nonpayable","type":"function"},{"inputs":[],"name":"name","outputs":[{"internalType":"string","name":"","type":"string"}],"stateMutability":"view","type":"function"},{"inputs":[],"name":"oracle","outputs":[{"internalType":"contract IOracle","name":"","type":"address"}],"stateMutability":"view","type":"function"},{"inputs":[],"name":"owner","outputs":[{"internalType":"address","name":"","type":"address"}],"stateMutability":"view","type":"function"},{"inputs":[],"name":"performArbitrage","outputs":[],"stateMutability":"nonpayable","type":"function"},{"inputs":[{"internalType":"address[]","name":"assets","type":"address[]"},{"internalType":"uint256[]","name":"weights","type":"uint256[]"}],"name":"rebalance","outputs":[{"internalType":"bool","name":"","type":"bool"}],"stateMutability":"nonpayable","type":"function"},{"inputs":[],"name":"renounceOwnership","outputs":[],"stateMutability":"nonpayable","type":"function"},{"inputs":[],"name":"rewardToken","outputs":[{"internalType":"contract IERC20","name":"","type":"address"}],"stateMutability":"view","type":"function"},{"inputs":[{"internalType":"uint256","name":"amount","type":"uint256"}],"name":"stake","outputs":[],"stateMutability":"nonpayable","type":"function"},{"inputs":[{"internalType":"address","name":"","type":"address"}],"name":"stakeTimestamp","outputs":[{"internalType":"uint256","name":"","type":"uint256"}],"stateMutability":"view","type":"function"},{"inputs":[],"name":"stakingSupply","outputs":[{"internalType":"uint256","name":"","type":"uint256"}],"stateMutability":"view","type":"function"},{"inputs":[],"name":"stakingToken","outputs":[{"internalType":"contract IERC20","name":"","type":"address"}],"stateMutability":"view","type":"function"},{"inputs":[],"name":"symbol","outputs":[{"internalType":"string","name":"","type":"string"}],"stateMutability":"view","type":"function"},{"inputs":[{"internalType":"address","name":"","type":"address"}],"name":"tokenBalanceMap","outputs":[{"internalType":"uint256","name":"","type":"uint256"}],"stateMutability":"view","type":"function"},{"inputs":[],"name":"totalSupply","outputs":[{"internalType":"uint256","name":"","type":"uint256"}],"stateMutability":"view","type":"function"},{"inputs":[],"name":"totalValuation","outputs":[{"internalType":"uint256","name":"","type":"uint256"}],"stateMutability":"view","type":"function"},{"inputs":[{"internalType":"address","name":"to","type":"address"},{"internalType":"uint256","name":"value","type":"uint256"}],"name":"transfer","outputs":[{"internalType":"bool","name":"","type":"bool"}],"stateMutability":"nonpayable","type":"function"},{"inputs":[{"internalType":"address","name":"from","type":"address"},{"internalType":"address","name":"to","type":"address"},{"internalType":"uint256","name":"value","type":"uint256"}],"name":"transferFrom","outputs":[{"internalType":"bool","name":"","type":"bool"}],"stateMutability":"nonpayable","type":"function"},{"inputs":[{"internalType":"address","name":"newOwner","type":"address"}],"name":"transferOwnership","outputs":[],"stateMutability":"nonpayable","type":"function"},{"inputs":[],"name":"uniswapFactory","outputs":[{"internalType":"contract IUniswapV3Factory","name":"","type":"address"}],"stateMutability":"view","type":"function"},{"inputs":[],"name":"uniswapRouter","outputs":[{"internalType":"contract ISwapRouter","name":"","type":"address"}],"stateMutability":"view","type":"function"},{"inputs":[{"internalType":"uint256","name":"amount","type":"uint256"}],"name":"unstake","outputs":[],"stateMutability":"nonpayable","type":"function"},{"inputs":[{"internalType":"uint256","name":"reward","type":"uint256"}],"name":"updateRewardIndexPublic","outputs":[],"stateMutability":"nonpayable","type":"function"},{"inputs":[{"internalType":"address","name":"","type":"address"}],"name":"userAgents","outputs":[{"internalType":"contract BaluniAgent","name":"","type":"address"}],"stateMutability":"view","type":"function"}],"devdoc":{"errors":{"AddressEmptyCode(address)":[{"details":"There's no code at `target` (it is not a contract)."}],"AddressInsufficientBalance(address)":[{"details":"The ETH balance of the account is not enough to perform the operation."}],"ERC20InsufficientAllowance(address,uint256,uint256)":[{"details":"Indicates a failure with the `spender`’s `allowance`. Used in transfers.","params":{"allowance":"Amount of tokens a `spender` is allowed to operate with.","needed":"Minimum amount required to perform a transfer.","spender":"Address that may be allowed to operate on tokens without being their owner."}}],"ERC20InsufficientBalance(address,uint256,uint256)":[{"details":"Indicates an error related to the current `balance` of a `sender`. Used in transfers.","params":{"balance":"Current balance for the interacting account.","needed":"Minimum amount required to perform a transfer.","sender":"Address whose tokens are being transferred."}}],"ERC20InvalidApprover(address)":[{"details":"Indicates a failure with the `approver` of a token to be approved. Used in approvals.","params":{"approver":"Address initiating an approval operation."}}],"ERC20InvalidReceiver(address)":[{"details":"Indicates a failure with the token `receiver`. Used in transfers.","params":{"receiver":"Address to which tokens are being transferred."}}],"ERC20InvalidSender(address)":[{"details":"Indicates a failure with the token `sender`. Used in transfers.","params":{"sender":"Address whose tokens are being transferred."}}],"ERC20InvalidSpender(address)":[{"details":"Indicates a failure with the `spender` to be approved. Used in approvals.","params":{"spender":"Address that may be allowed to operate on tokens without being their owner."}}],"FailedInnerCall()":[{"details":"A call to an address target failed. The target may have reverted."}],"OwnableInvalidOwner(address)":[{"details":"The owner is not a valid owner account. (eg. `address(0)`)"}],"OwnableUnauthorizedAccount(address)":[{"details":"The caller account is not authorized to perform an operation."}],"ReentrancyGuardReentrantCall()":[{"details":"Unauthorized reentrant call."}],"SafeERC20FailedOperation(address)":[{"details":"An operation with an ERC20 token failed."}]},"events":{"Approval(address,address,uint256)":{"details":"Emitted when the allowance of a `spender` for an `owner` is set by a call to {approve}. `value` is the new allowance."},"Transfer(address,address,uint256)":{"details":"Emitted when `value` tokens are moved from one account (`from`) to another (`to`). Note that `value` may be zero."}},"kind":"dev","methods":{"allowance(address,address)":{"details":"See {IERC20-allowance}."},"approve(address,uint256)":{"details":"See {IERC20-approve}. NOTE: If `value` is the maximum `uint256`, the allowance is not updated on `transferFrom`. This is semantically equivalent to an infinite approval. Requirements: - `spender` cannot be the zero address."},"balanceOf(address)":{"details":"See {IERC20-balanceOf}."},"decimals()":{"details":"Returns the number of decimals used to get its user representation. For example, if `decimals` equals `2`, a balance of `505` tokens should be displayed to a user as `5.05` (`505 / 10 ** 2`). Tokens usually opt for a value of 18, imitating the relationship between Ether and Wei. This is the default value returned by this function, unless it's overridden. NOTE: This information is only used for _display_ purposes: it in no way affects any of the arithmetic of the contract, including {IERC20-balanceOf} and {IERC20-transfer}."},"name()":{"details":"Returns the name of the token."},"owner()":{"details":"Returns the address of the current owner."},"renounceOwnership()":{"details":"Leaves the contract without owner. It will not be possible to call `onlyOwner` functions. Can only be called by the current owner. NOTE: Renouncing ownership will leave the contract without an owner, thereby disabling any functionality that is only available to the owner."},"symbol()":{"details":"Returns the symbol of the token, usually a shorter version of the name."},"totalSupply()":{"details":"See {IERC20-totalSupply}."},"transfer(address,uint256)":{"details":"See {IERC20-transfer}. Requirements: - `to` cannot be the zero address. - the caller must have a balance of at least `value`."},"transferFrom(address,address,uint256)":{"details":"See {IERC20-transferFrom}. Emits an {Approval} event indicating the updated allowance. This is not required by the EIP. See the note at the beginning of {ERC20}. NOTE: Does not update the allowance if the current allowance is the maximum `uint256`. Requirements: - `from` and `to` cannot be the zero address. - `from` must have a balance of at least `value`. - the caller must have allowance for ``from``'s tokens of at least `value`."},"transferOwnership(address)":{"details":"Transfers ownership of the contract to a new account (`newOwner`). Can only be called by the current owner."}},"version":1},"evm":{"bytecode":{"linkReferences":{},"object":"604061012081523461064257610013610647565b9060206542616c756e6960d01b8184015261002c610647565b6542414c554e4960d01b82820152331561062a5760008054336001600160a01b0319821681178355919291906001600160a01b03167f8be0079c531659141344cd1fd0a4f28419497f9722a3daafe3b4186f6b6457e08480a38451906001600160401b03808311610616576004928354906001988983811c9316801561060c575b88841014610524578190601f938481116105be575b50889084831160011461055f578892610554575b5050600019600383901b1c191690891b1784555b82519182116105415760059283548981811c91168015610537575b8882101461052457908183859493116104d6575b508791831160011461047757869261046c575b5050600019600383901b1c191690871b1790555b84600655301594851580610467575b1561042457306080523060a052601e600d55612710600e55601e600f55730addd25a91563696d8567df78d5a01c9a991f9b860c05273e592427a0aece92de3edee1f18e0157c0586156460e05261010095731f98431c8ad98523631ae4a59f267346ea31f984875261040e57908492916101ca600354610680565b600355308352845282822090670de0b6b3a7640000918281540190558351828152837fddf252ad1be2c89b69c2b068fc378daa952ba7f163c4a11628f55a4df523b3ef873093a3308352600785528383206102258154610680565b9055610232600954610680565b6009553383526008855242848420556009549081158015806103ba575b505050503082526008845261026783832054426106cb565b6301e133809190828111156103b157506102aa825b308552600787526102a5868620549161029f600a54600b8b5289892054906106cb565b926106b8565b6106b8565b0404308252600c84526102c18383209182546106ab565b9055600b600a54933083525220556102d76106d8565b50516153b091826107a88339608051828181610f0a015281816115e901526122bc015260a05182818161025701528181610d4501528181611d2a0152613a67015260c0518281816111f4015281816118c5015281816131b60152614428015260e051828181610a25015281816115a5015281816120b40152818161254b015281816127bc015281816132930152818161337a0152818161407d015281816141b201526146850152518181816104b70152818161053801528181610a01015281816110e30152818161207b015281816124e501526127630152f35b6102aa9061027c565b6103c5575b8061024f565b9091929394506103fb5750906103f08593926ec097ce7bc90715b34b9f100000000004600a546106ab565b600a553880806103bf565b634e487b7160e01b845260129052602483fd5b5060249184519163ec442f0560e01b8352820152fd5b845162461bcd60e51b8152808301859052601560248201527f496e76616c696420746f6b656e206164647265737300000000000000000000006044820152606490fd5b61014f565b01519050388061012c565b8487528787208a94509190601f198416885b8a8282106104c057505084116104a7575b505050811b019055610140565b015160001960f88460031b161c1916905538808061049a565b8385015186558d97909501949384019301610489565b9091925084875287872083808601871c8201928a871061051b575b9186958d9295949301881c01915b82811061050d575050610119565b8981558695508c91016104ff565b925081926104f1565b634e487b7160e01b875260228652602487fd5b90607f1690610105565b634e487b7160e01b855260418452602485fd5b0151905038806100d6565b8789528989208c94509190601f1984168a5b8c8282106105a8575050841161058f575b505050811b0184556100ea565b015160001960f88460031b161c19169055388080610582565b8385015186558f97909501949384019301610571565b9091508688528888208480850160051c8201928b8610610603575b918d91869594930160051c01915b8281106105f55750506100c2565b8a81558594508d91016105e7565b925081926105d9565b92607f16926100ad565b634e487b7160e01b84526041600452602484fd5b8251631e4fbdf760e01b815260006004820152602490fd5b600080fd5b60408051919082016001600160401b0381118382101761066a5760405260068252565b634e487b7160e01b600052604160045260246000fd5b90670de0b6b3a7640000820180921161069557565b634e487b7160e01b600052601160045260246000fd5b9190820180921161069557565b8181029291811591840414171561069557565b9190820391821161069557565b732791bca1f2de4661ed88a30c99a7a9449aa84174600081815260116020527fd858bff8317940b1bb2b6603753b280d3518ab8e24c32a7de1cc1e7559e16598546107a2576010546801000000000000000081101561078e57600181018060105581101561077a577f1b6847dc741a1b0cd08d278845f9d819d87b734759afb55fe2de5cb82a9ae6720182905560105491815260116020526040902055600190565b634e487b7160e01b82526032600452602482fd5b634e487b7160e01b82526041600452602482fd5b90509056fe6080604052600436101561001257600080fd5b60003560e01c8063012a33aa146135d557806306497cb91461358957806306fdde03146134c4578063095ea7b31461343e57806312f399cf1461313b57806318160ddd1461311d578063185fcffe14610cda57806323b872dd1461302a57806327d54a9214612ec2578063295b930014612ea75780632be01190146123695780632e17de78146122355780632f86556814611fec578063313ce56714611fd057806334a1ca8914611fa457806334decfc914611f8757806342966c6814611db55780634e71d92d14611cb657806350b1b34a146117ee5780635e7f8b761461172f57806365534d521461171157806370259077146116d757806370a082311461169d578063715018a61461164457806371ddcfb81461160d57806372f702f3146115c9578063735de9f7146115855780637811a7851461154a5780637b848914146114fe5780637d9fc717146112185780637dc0d1d0146111d4578063833d557f1461119a578063853771881461117c57806389a30271146111535780638b086764146111075780638bdb2afa146110c35780638da5cb5b1461109c57806395d89b4114610f88578063a694fc3a14610e71578063a9059cbb14610e40578063ab86c69e14610cf8578063b9f5e61714610cda578063bf9c89bb14610ca0578063cde53358146109ca578063dd62ed3e14610978578063eedc3c5014610325578063f2fde38b1461029e578063f377e7cf146102805763f7c618c11461023757600080fd5b3461027b57600036600319011261027b5760206040516001600160a01b037f0000000000000000000000000000000000000000000000000000000000000000168152f35b600080fd5b3461027b57600036600319011261027b576020600954604051908152f35b3461027b57602036600319011261027b576102b7613641565b6102bf613c95565b6001600160a01b0380911690811561030c57600054826001600160a01b0319821617600055167f8be0079c531659141344cd1fd0a4f28419497f9722a3daafe3b4186f6b6457e0600080a3005b604051631e4fbdf760e01b815260006004820152602490fd5b3461027b57610333366136b2565b919261033d613cc1565b60405160208101903360601b82526014815261035881613736565b5190203360005260126020526001600160a01b036040600020541615610869575b503360005260126020526001600160a01b036040600020541661039b846138cf565b946103a9604051968761376e565b8486526103b5856138cf565b601f190136602088013760005b85811061082f5750813b1561027b5791604051928391630eedc3c560e41b8352816044840160406004860152526064830160648360051b85010192826000905b82821061077d5750505050508181036003190160248301528581526020018460005b8781106107515750509181600081819503925af1801561065657610723575b5060005b828110610455576001600655005b610468610463828585613888565b6138ae565b90604051630b4c774160e11b81526001600160a01b0383166004820152730d500b1d8e8ef31e21c99d1db9a6444d3adf12706024820152610bb860448201526020816064816001600160a01b037f0000000000000000000000000000000000000000000000000000000000000000165afa90811561065657600091610704575b5060405190630b4c774160e11b82526001600160a01b0384166004830152730d500b1d8e8ef31e21c99d1db9a6444d3adf127060248301526101f460448301526020826064816001600160a01b037f0000000000000000000000000000000000000000000000000000000000000000165afa918215610656576000926106ca575b506001600160a01b031615908115916106b7575b50610588828761394d565b511515806106b0575b610698575b156105a6575b6001915001610447565b6040516370a0823160e01b8152306004820152916020836024816001600160a01b0385165afa92831561065657600093610662575b5060405163a9059cbb60e01b8152336004820152602481019390935260209083908160006001600160a01b0382604481015b0393165af191821561065657600192610627575b5061059c565b6106489060203d60201161064f575b610640818361376e565b810190613970565b5085610621565b503d610636565b6040513d6000823e3d90fd5b92506020833d602011610690575b8161067d6020938361376e565b8101031261027b5791519161060d6105db565b3d9150610670565b6106aa6001600160a01b0384166149c1565b50610596565b5080610591565b6001600160a01b0391501615158661057d565b6001600160a01b039192506106f69060203d6020116106fd575b6106ee818361376e565b810190613988565b9190610569565b503d6106e4565b61071d915060203d6020116106fd576106ee818361376e565b866104e8565b67ffffffffffffffff811161073b5760405283610443565b634e487b7160e01b600052604160045260246000fd5b91819350602080916001600160a01b0361076c60019561366d565b168152019301910190849291610424565b9193955091936063198882030185528535605e198336030181121561027b5782016001600160a01b036107af8261366d565b168252602081013560208301526040810135601e198236030181121561027b5701906020823592019167ffffffffffffffff811161027b57803603831361027b576001928260209392606060408695015280606083015280608093848401376000838284010152601f801991011601019701950192018795949391610402565b806001600160a01b036108486104636001948a8a613888565b16600052601160205260406000205415610862828a61394d565b52016103c2565b6040516108348082019082821067ffffffffffffffff83111761073b5782916108a091614b27843933815230602082015260400190565b03906000f58015610656576001600160a01b031663ffffffff813b1615610925573360008181526012602090815260409182902080546001600160a01b0319168517905581519283526001600160a01b03909316928201929092527f8c6e353968e7ffd60dba22ff7d2a4354af301f9d41858a35668e7292ec1301b69190a184610379565b60405162461bcd60e51b815260206004820152602560248201527f4167656e74206372656174696f6e206661696c65642c206e6f74206120636f6e6044820152641d1c9858dd60da1b6064820152608490fd5b3461027b57604036600319011261027b57610991613641565b610999613657565b906001600160a01b038091166000526002602052604060002091166000526020526020604060002054604051908152f35b3461027b5760208060031936011261027b57600435906109e8613cc1565b6109f3821515613b42565b6000916001600160a01b03807f00000000000000000000000000000000000000000000000000000000000000001693817f000000000000000000000000000000000000000000000000000000000000000016905b601054811015610c4f5780610a5c849261498a565b929054600393841b1c169154916040516370a0823160e01b815230600482015260249388828681865afa91821561065657600092610c20575b508115610c1457308314610c145760405163313ce56760e01b8152918983600481875afa9081156106565760ff8a92610ad895600091610be7575b50169261479b565b9060008051602061535b83398151915288818314610b8a5750604051630b4c774160e11b81526004810183905294850152610bb8604485015287846064818c5afa938415610656576001948791600091610b6d575b50610b39848885613e68565b1615610b5257610b4a913391613fc7565b505b01610a47565b610b6190610b68923391614581565b15156139a7565b610b4c565b610b8491508a3d8c116106fd576106ee818361376e565b8b610b2d565b60405163a9059cbb60e01b8152336004820152602481019490945292945084915060449082906000905af191821561065657600192610bca575b50610b4c565b610be090873d891161064f57610640818361376e565b5087610bc4565b610c0791508d803d10610c0d575b610bff818361376e565b810190613919565b8e610ad0565b503d610bf5565b50505060019150610b4c565b9091508881813d8311610c48575b610c38818361376e565b8101031261027b5751908a610a95565b503d610c2e565b7fcc16f5dbb4873280815c1ee09dbd06736cffcc184412cf7a71a0fdb75d397ca5610c9685610c7e813361482f565b60408051338152602081019290925290918291820190565b0390a16001600655005b3461027b57602036600319011261027b576001600160a01b03610cc1613641565b1660005260076020526020604060002054604051908152f35b3461027b57600036600319011261027b576020600d54604051908152f35b3461027b5760208060031936011261027b576004358015610dfb5760095415610da6576040516323b872dd60e01b81523360048201523060248201526044810182905291808360648160007f00000000000000000000000000000000000000000000000000000000000000006001600160a01b03165af192831561065657610d8693610d88575b50506148d3565b005b81610d9e92903d1061064f57610640818361376e565b508280610d7f565b60405162461bcd60e51b815260048101839052602760248201527f4e6f207374616b696e6720737570706c7920746f2064697374726962757465206044820152667265776172647360c81b6064820152608490fd5b60405162461bcd60e51b815260048101839052601760248201527f526577617264206d75737420626520706f7369746976650000000000000000006044820152606490fd5b3461027b57604036600319011261027b57610e66610e5c613641565b60243590336141ef565b602060405160018152f35b3461027b5760208060031936011261027b5760043590610e8f613cc1565b610e98336146f9565b33600052600781526040600020610eb08382546138c2565b9055610ebe826009546138c2565b60095533600081815260088352604090819020429055516323b872dd60e01b81526004810191909152306024820152604481018390529080828060648101038160006001600160a01b037f0000000000000000000000000000000000000000000000000000000000000000165af1918215610656577f9e71bc8eea02a63969f509818f2dafb9254532904319f9dbda79b67bd34a5f3d92610f6b575b506040519283523392a26001600655005b610f8190823d841161064f57610640818361376e565b5083610f5a565b3461027b57600036600319011261027b5760405160006005549060018260011c9160018416918215611092575b602094858510841461107c57858794868652918260001461105c575050600114610fff575b50610fe79250038361376e565b610ffb60405192828493845283019061361c565b0390f35b84915060056000527f036b6384b5eca791c62761152d0c79bb0604c104a5fb6f4eb0703f3154bb3db0906000915b858310611044575050610fe7935082010185610fda565b8054838901850152879450869390920191810161102d565b60ff191685820152610fe795151560051b8501019250879150610fda9050565b634e487b7160e01b600052602260045260246000fd5b92607f1692610fb5565b3461027b57600036600319011261027b5760206001600160a01b0360005416604051908152f35b3461027b57600036600319011261027b5760206040516001600160a01b037f0000000000000000000000000000000000000000000000000000000000000000168152f35b3461027b57602036600319011261027b57602061114b611125613641565b6001600160a01b038116600052600c835261114560406000205491614914565b906138c2565b604051908152f35b3461027b57600036600319011261027b57602060405160008051602061535b8339815191528152f35b3461027b57600036600319011261027b576020600e54604051908152f35b3461027b57602036600319011261027b576001600160a01b036111bb613641565b1660005260136020526020604060002054604051908152f35b3461027b57600036600319011261027b5760206040516001600160a01b037f0000000000000000000000000000000000000000000000000000000000000000168152f35b3461027b5760208060031936011261027b57600435611235613cc1565b61124f6112546112436142cf565b600354928391856137a8565b613868565b6040516370a0823160e01b815233600482015260008051602061535b83398151915292918582602481875afa918215610656576000926114cd575b506112a264e8d4a5100092931515613b81565b0480911061148857604051636eb1769f60e11b81523360048201523060248201528481604481865afa8015610656578290600090611457575b6112e792501015613bfd565b6040516323b872dd60e01b858201908152336024830152306044830152606480830193909352918152601f199160009182919061132560848261376e565b519082865af1903d1561144a573d9167ffffffffffffffff831161073b576113699261135b8760405194601f840116018461376e565b82523d60008784013e614a5e565b805190848215159283611431575b50505061141957506113a461139d600e5461124f611397600d5483613932565b856137a8565b8092613932565b906113af823061473c565b60408051308152602081018490527f0f6798a560793a54c3bcfe86a93cde1e73087d944c0ea20544137d4121396885926113fb929091849190a160095461140b575b610c7e813361473c565b0390a16001600655604051908152f35b611414846148d3565b6113f1565b60249060405190635274afe760e01b82526004820152fd5b6114419350820181019101613970565b15848481611377565b5061136990606090614a5e565b50508481813d8311611481575b61146e818361376e565b8101031261027b57816112e791516112db565b503d611464565b60405162461bcd60e51b815260048101859052601c60248201527f555344432062616c616e636520697320696e73756666696369656e74000000006044820152606490fd5b91508582813d83116114f7575b6114e4818361376e565b8101031261027b579051906112a261128f565b503d6114da565b3461027b57602036600319011261027b577f120de5c966483867382dce1eb95f0d016a917f91b2188b2f4c1413333a9ffb0f602060043561153d613c95565b80600f55604051908152a1005b3461027b57602036600319011261027b5760206001600160a01b038061156e613641565b166000526012825260406000205416604051908152f35b3461027b57600036600319011261027b5760206040516001600160a01b037f0000000000000000000000000000000000000000000000000000000000000000168152f35b3461027b57600036600319011261027b5760206040516001600160a01b037f0000000000000000000000000000000000000000000000000000000000000000168152f35b3461027b57602036600319011261027b57602061114b600354611631811515613c49565b61124f61163c6142cf565b6004356137a8565b3461027b57600036600319011261027b5761165d613c95565b600080546001600160a01b0319811682556001600160a01b03167f8be0079c531659141344cd1fd0a4f28419497f9722a3daafe3b4186f6b6457e08280a3005b3461027b57602036600319011261027b576001600160a01b036116be613641565b1660005260016020526020604060002054604051908152f35b3461027b57602036600319011261027b576001600160a01b036116f8613641565b1660005260086020526020604060002054604051908152f35b3461027b57600036600319011261027b576020600f54604051908152f35b3461027b57600036600319011261027b57604051806010548083526020809301809160106000527f1b6847dc741a1b0cd08d278845f9d819d87b734759afb55fe2de5cb82a9ae6729060005b868282106117da5786866117918288038361376e565b604051928392818401908285525180915260408401929160005b8281106117ba57505050500390f35b83516001600160a01b0316855286955093810193928101926001016117ab565b83548552909301926001928301920161177b565b3461027b57604036600319011261027b5760043561180a613657565b90611813613cc1565b61183661181e6142cf565b61124f60035491611830831515613b81565b846137a8565b60405163313ce56760e01b808252602094929160008051602061535b83398151915291908681600481865afa90811561065657600091611c99575b506001600160a01b03809516936040519283528783600481885afa92831561065657600093611c7a575b506040519363802431fb60e01b855260048501528784606481602499898b830152600060448301527f0000000000000000000000000000000000000000000000000000000000000000165afa93841561065657600094611c4b575b5060ff821660ff841611600014611bff57611922839461192261191d856119289697613bd8565b613bec565b90613868565b91670de0b6b3a764000092838102938185041490151715611bea5761191d611954939261192292613bd8565b6040516370a0823160e01b815233600482015285818581865afa8015610656578291600091611bb9575b5010611b7557604051636eb1769f60e11b81523360048201523060248201528581604481865afa8015610656578290600090611b44575b6119c192501015613bfd565b604080516323b872dd60e01b8782019081523386830190815230602082015280840194909452928190039182018152601f1992600092839290611a07906060018261376e565b519082865af13d15611b37573d67ffffffffffffffff8111611b225790611a4d9291611a3d8860405194601f840116018461376e565b82523d60008884013e5b83614ad5565b805190858215159283611b09575b505050611af4575050611a7c61139d600e5461124f611397600d5483613932565b611a86813061473c565b60408051308152602081018390527f0f6798a560793a54c3bcfe86a93cde1e73087d944c0ea20544137d412139688592918391a1600954611ae5575b50611acd823361473c565b604080513381526020810184905290819081016113fb565b611aee906148d3565b83611ac2565b60405190635274afe760e01b82526004820152fd5b611b199350820181019101613970565b15858581611a5b565b84634e487b7160e01b60005260416004526000fd5b611a4d9150606090611a47565b50508581813d8311611b6e575b611b5b818361376e565b8101031261027b57816119c191516119b5565b503d611b51565b60405162461bcd60e51b8152600481018690526017818501527f42616c616e636520697320696e73756666696369656e740000000000000000006044820152606490fd5b809250878092503d8311611be3575b611bd2818361376e565b8101031261027b578190518761197e565b503d611bc8565b84634e487b7160e01b60005260116004526000fd5b6119228294611c1461191d86611c1a96613bd8565b906137a8565b91670de0b6b3a764000092838102938185041490151715611bea5761191d611c46939261192292613bd8565b611954565b9093508781813d8311611c73575b611c63818361376e565b8101031261027b575192886118f6565b503d611c59565b611c92919350883d8a11610c0d57610bff818361376e565b918861189b565b611cb09150873d8911610c0d57610bff818361376e565b87611871565b3461027b57600036600319011261027b57611ccf613cc1565b611cd8336146f9565b336000526020600c8152604060002054611cf3811515613af6565b336000818152600c845260408082208290555163a9059cbb60e01b81526004810192909252602482018390528390829060449082907f00000000000000000000000000000000000000000000000000000000000000006001600160a01b03165af1801561065657611d98575b506040518181527f106f923f993c2149d49b4255ff723acafa1f2d94393f561d3eda32ae348f7241833392a26001600655604051908152f35b611dae90833d851161064f57610640818361376e565b5082611d5f565b3461027b5760208060031936011261027b5760043590611dd3613cc1565b3360005260019060018152611def836040600020541015613b42565b6000825b611e26577fcc16f5dbb4873280815c1ee09dbd06736cffcc184412cf7a71a0fdb75d397ca5610c9685610c7e813361482f565b601054811015611f82579081611e436001600160a01b039361498a565b939054600394851b1c169254926040516370a0823160e01b81523060048201528381602481855afa90811561065657600091611f55575b508581158015611f4c575b611f41575060405163313ce56760e01b8152918483600481845afa9283156106565760009689611eef9460ff8997611ec5958c91611f2a5750169261479b565b60405163a9059cbb60e01b8152336004820152602481019190915295869283919082906044820190565b03925af19081156106565784938492611f0d575b505b019091611df3565b611f2390843d861161064f57610640818361376e565b5086611f03565b610c079150893d8b11610c0d57610bff818361376e565b945050508290611f05565b50308314611e85565b90508381813d8311611f7b575b611f6c818361376e565b8101031261027b575187611e7a565b503d611f62565b610c4f565b3461027b57600036600319011261027b5760206040516101f48152f35b3461027b57604036600319011261027b57602061114b611fc2613641565b611fca613657565b906139f3565b3461027b57600036600319011261027b57602060405160128152f35b3461027b5760208060031936011261027b57612006613641565b61200e613cc1565b6040516370a0823160e01b81523060048201526001600160a01b038281168483602481845afa92831561065657600093612206575b5060405190630b4c774160e11b8252600482015260008051602061535b8339815191526024820152610bb860448201528481606481857f0000000000000000000000000000000000000000000000000000000000000000165afa908115610656576000916121e9575b506120da83837f00000000000000000000000000000000000000000000000000000000000000001686613e68565b16156121d5576120ef91610b61913091613fc7565b7f106f923f993c2149d49b4255ff723acafa1f2d94393f561d3eda32ae348f724161211a33306139f3565b917f0f6798a560793a54c3bcfe86a93cde1e73087d944c0ea20544137d41213968856121b4612710612151600354600f54906137a8565b0461215c813061473c565b306000526007845260406000206121748282546138c2565b9055612182816009546138c2565b6009553360005260088452426040600020556009546121c7575b60408051308152602081019290925290918291820190565b0390a16040519283523392a26001600655005b6121d0816148d3565b61219c565b6121e491610b61913091614581565b6120ef565b6122009150853d87116106fd576106ee818361376e565b856120ac565b9092508481813d831161222e575b61221e818361376e565b8101031261027b57519185612043565b503d612214565b3461027b5760208060031936011261027b5760043590612253613cc1565b61225c336146f9565b3360005260078152604060002054828110612324578261227b91613932565b336000526007825260406000205561229582600954613932565b60095560405163a9059cbb60e01b81523360048201526024810183905290808260448160007f00000000000000000000000000000000000000000000000000000000000000006001600160a01b03165af1918215610656577f0f5bb82176feb1b5e747e28471aa92156a04d9f3ab9f45f28e2d704232b93f7592610f6b57506040519283523392a26001600655005b60405162461bcd60e51b815260048101839052601f60248201527f496e73756666696369656e742062616c616e636520746f20756e7374616b65006044820152606490fd5b3461027b57612377366136b2565b6000939192939160005b858110612e0c5750612392856138e7565b9061239c866138e7565b936123a6876138e7565b936123b0886138e7565b936000916000936000996000925b8c88818610612be757505050505050826123e9836123e36123f596956123ef95614545565b99614545565b96614545565b93614545565b9460005b855181101561263c5761240c818661394d565b5161241a575b6001016123f9565b612484906001600160a01b038061243f610463612437858c61394d565b518d89613888565b1661244a838961394d565b516040516323b872dd60e01b8152336004820152306024820152604481019190915260209490918591839190829060009082906064820190565b03925af180156106565761261f575b506124ac6104636124a4848b61394d565b518c88613888565b604051630b4c774160e11b8152908216600482015260008051602061535b8339815191526024820152610bb860448201529280846064817f000000000000000000000000000000000000000000000000000000000000000086165afa90811561065657838a6001968e936000956125ea575b50506125719261253461253c936104639361394d565b51908a613888565b612546858b61394d565b5190847f00000000000000000000000000000000000000000000000000000000000000001690613e68565b16156125b2576125a261258a6104636124a4848b61394d565b612594838961394d565b5187516125ab573391613fc7565b505b9050612412565b3091613fc7565b6125dd6125c56104636124a4848b61394d565b6125cf838961394d565b5187516125e3573391614581565b506125a4565b3091614581565b61046392955061253c9361261261257196938361253494903d106106fd576106ee818361376e565b969350935081945061251e565b61263590843d861161064f57610640818361376e565b508a612493565b508582888560005b8151811015610e6657612657818661394d565b51612665575b600101612644565b61266f818661394d565b516127109081810290808204831490151715612b67578761268f91613868565b6040516370a0823160e01b808252336004830152929160208260248160008051602061535b8339815191525afa90811561065657600091612bb1575b6126d592506137a8565b64e8d4a5100081029080820464e8d4a510001490151715612b675704908115159182612b0d575b50501561265d5761271b610463612713838561394d565b518587613888565b6001600160a01b0360405191630b4c774160e11b835216600482015260008051602061535b8339815191526024820152610bb860448201526020816064816001600160a01b037f0000000000000000000000000000000000000000000000000000000000000000165afa90811561065657600091612aee575b506001600160a01b036127b56104636127ad858761394d565b518789613888565b916127f6827f000000000000000000000000000000000000000000000000000000000000000016938464e8d4a510006127ee888d61394d565b510491613e68565b16156128c157508061282d6128146104636127ad61286b958761394d565b64e8d4a51000612824848a61394d565b510430916140fa565b6020612844600e5461124f611397600d5483613932565b60405163a9059cbb60e01b8152336004820152602481019190915293849081906044820190565b0381600060008051602061535b8339815191525af19081156106565760019361289b926128a2575b5015156139a7565b905061265d565b6128ba9060203d60201161064f57610640818361376e565b5089612893565b60206001600160a01b036128e36104636128db868861394d565b51888a613888565b926129c7600064e8d4a510006128f9888d61394d565b516040517309e46f287cb791987b6228c32669ea5126aa105d60621b8882015261017760eb1b6034820181905272d500b1d8e8ef31e21c99d1db9a6444d3adf12760641b6037830152604b820152606098891b6bffffffffffffffffffffffff1916604e8201526042815291900461297082613752565b6040519161297d8361371a565b8252868201903082526040830198428a5283019081526080830190848252604051998a988997889663c04b8d5960e01b88528c60048901525160a0602489015260c488019061361c565b94511660448601525160648501525160848401525160a483015203925af190811561065657600091612abc575b50612a3c6020612a15600e5461124f612a0f600d5483613932565b866137a8565b60405163a9059cbb60e01b8152336004820152602481019190915291829081906044820190565b0381600060008051602061535b8339815191525af1801561065657612a9d575b5015612a6a5760019061289b565b60405162461bcd60e51b815260206004820152600b60248201526a14ddd85c0811985a5b195960aa1b6044820152606490fd5b612ab59060203d60201161064f57610640818361376e565b5087612a5c565b90506020813d602011612ae6575b81612ad76020938361376e565b8101031261027b5751876129f4565b3d9150612aca565b612b07915060203d6020116106fd576106ee818361376e565b87612794565b90915060405191825233600483015260208260248160008051602061535b8339815191525afa91821561065657600092612b7d575b5064e8d4a5100082029180830464e8d4a510001490151715612b6757111587806126fc565b634e487b7160e01b600052601160045260246000fd5b9091506020813d602011612ba9575b81612b996020938361376e565b8101031261027b57519088612b42565b3d9150612b8c565b90506020823d602011612bdf575b81612bcc6020938361376e565b8101031261027b576126d59151906126cb565b3d9150612bbf565b6001600160a01b03612c06610463886024969798999b95602095613888565b16604051938480926370a0823160e01b82523360048301525afa8015610656578e8a8994600093612dcf575b50612c4d6104636004966020946001600160a01b0394613888565b166040519485809263313ce56760e01b82525afa928315610656578f938b88958789958d95600095612d90575b509482612cdd60ff612cc0612cb38561046397612cad612ce39c9d612ca7610463858f9e612ca79f613888565b90614378565b9d613888565b359c612710809c04613868565b8c81119c908d15612d815790612cd591613932565b985b1661393f565b94613888565b9315612d465786612cf3916137a8565b0490670de0b6b3a764000091828102928184041490151715612b67578c612d3582612d23600196612d3b96613868565b928b612d2f838d61394d565b5261394d565b52613961565b955b019291906123be565b9d612d5792989993508e91506138c2565b9b87612d63838d61394d565b52612d6e828b61394d565b52612d7890613961565b95600190612d3d565b612d8a91613932565b98612cd7565b868096508486989394959260203d602011612dc8575b612db0818361376e565b8101612dbb91613919565b9750949392509650612c7a565b503d612da6565b94505050506020823d602011612e04575b81612ded6020938361376e565b8101031261027b5790518691908e8a612c4d612c32565b3d9150612de0565b9193926001600160a01b03612e25610463858986613888565b1660405180916370a0823160e01b825233600483015281602460209485935afa91821561065657600092612e77575b5050600191611145612e6e92612ca7610463888c89613888565b93949201612381565b90809250813d8311612ea0575b612e8e818361376e565b8101031261027b575181611145612e54565b503d612e84565b3461027b57600036600319011261027b57602061114b6142cf565b3461027b5760208060031936011261027b57612edc613641565b604051908282016001600160a01b03926bffffffffffffffffffffffff198360601b16825260148152612f0e81613736565b5190209082811615612fe557612f9b612fa7856108349360405190612f358387018361376e565b85825282820195614b278739604080516001600160a01b039092168483019081523060208201529190612f74908290840103601f19810183528261376e565b604051958693612f8c868601998a92519283916135f9565b840191518093868401906135f9565b0103808452018261376e565b519020604051908482019260ff60f81b84523060601b60218401526035830152605582015260558152612fd981613752565b51902016604051908152f35b60405162461bcd60e51b815260048101859052601d60248201527f4f776e657220616464726573732063616e6e6f74206265207a65726f2e0000006044820152606490fd5b3461027b57606036600319011261027b57613043613641565b61304b613657565b604435906001600160a01b0383169283600052600260205260406000203360005260205260406000205493600019850361308b575b50610e6693506141ef565b8385106130f75780156130de5733156130c557610e6694849160005260026020526040600020336000526020520360406000205584613080565b604051634a1406b160e11b815260006004820152602490fd5b60405163e602df0560e01b815260006004820152602490fd5b604051637dc7a0d960e11b81523360048201526024810186905260448101859052606490fd5b3461027b57600036600319011261027b576020600354604051908152f35b3461027b57600036600319011261027b57613154613cc1565b613175600354613165811515613c49565b61124f6131706142cf565b613790565b60405163802431fb60e01b815230600482015260008051602061535b8339815191526024820152600060448201526001600160a01b039060209081816064817f000000000000000000000000000000000000000000000000000000000000000087165afa90811561065657600091613411575b50306000526001825260406000205490604051936370a0823160e01b9182865230600487015260008051602061535b8339815191529685876024818b5afa968715610656576000976133e2575b5064e8d4a510009081830292808404831490151715612b67578083101561334f5750808702908782041487151715612b675785946132e193670de0b6b3a76400006132866132d3956132d995613868565b0491808311613347575b507f0000000000000000000000000000000000000000000000000000000000000000166132bd8982613ce4565b6132c8308a306140fa565b9384928310156137bb565b30613e68565b309030613fc7565b5060246040518096819382523060048301525afa90811561065657600091613317575b5061331092501161381c565b6001600655005b905082813d8311613340575b61332d818361376e565b8101031261027b57613310915183613304565b503d613323565b91508a613290565b9350509095509392919311613368575b50505050613310565b6133c76133ba6133bf6001946133d9977f0000000000000000000000000000000000000000000000000000000000000000166133a5888230613e68565b6133b0308930613fc7565b93849283116137bb565b613ce4565b3090306140fa565b5030600052526040600020541161381c565b8080808061335f565b9096508581813d831161340a575b6133fa818361376e565b8101031261027b57519588613235565b503d6133f0565b90508181813d8311613437575b613428818361376e565b8101031261027b5751846131e8565b503d61341e565b3461027b57604036600319011261027b57613457613641565b6024359033156130de576001600160a01b03169081156130c557336000526002602052604060002082600052602052806040600020556040519081527f8c5be1e5ebec7d5bd14f71427d1e84f3dd0314c0f7b2291e5b200ac8c7c3b92560203392a3602060405160018152f35b3461027b57600036600319011261027b5760405160006004549060018260011c916001841691821561357f575b602094858510841461107c57858794868652918260001461105c5750506001146135225750610fe79250038361376e565b84915060046000527f8a35acfbc15ff81a39ae7d344fd709f28e8600b4aa8c65c6b64bfe7fe36bd19b906000915b858310613567575050610fe7935082010185610fda565b80548389018501528794508693909201918101613550565b92607f16926134f1565b3461027b57602036600319011261027b577fbea1b31142ae4b1f4efad240349036d718b7950d246c127768097ccf602fc7e060206004356135c8613c95565b80600d55604051908152a1005b3461027b57600036600319011261027b57602061114b600354613165811515613c49565b60005b83811061360c5750506000910152565b81810151838201526020016135fc565b90602091613635815180928185528580860191016135f9565b601f01601f1916010190565b600435906001600160a01b038216820361027b57565b602435906001600160a01b038216820361027b57565b35906001600160a01b038216820361027b57565b9181601f8401121561027b5782359167ffffffffffffffff831161027b576020808501948460051b01011161027b57565b604060031982011261027b5767ffffffffffffffff9160043583811161027b57826136df91600401613681565b9390939260243591821161027b576136f991600401613681565b9091565b610100810190811067ffffffffffffffff82111761073b57604052565b60a0810190811067ffffffffffffffff82111761073b57604052565b6040810190811067ffffffffffffffff82111761073b57604052565b6080810190811067ffffffffffffffff82111761073b57604052565b90601f8019910116810190811067ffffffffffffffff82111761073b57604052565b90670de0b6b3a76400009180830292830403612b6757565b81810292918115918404141715612b6757565b156137c257565b60405162461bcd60e51b815260206004820152602c60248201527f417262697472616765206661696c65643a20696e73756666696369656e74206f60448201526b1d5d1c1d5d08185b5bdd5b9d60a21b6064820152608490fd5b1561382357565b60405162461bcd60e51b815260206004820152601860248201527f41726269747261676520646964206e6f742070726f66697400000000000000006044820152606490fd5b8115613872570490565b634e487b7160e01b600052601260045260246000fd5b91908110156138985760051b0190565b634e487b7160e01b600052603260045260246000fd5b356001600160a01b038116810361027b5790565b91908201809211612b6757565b67ffffffffffffffff811161073b5760051b60200190565b906138f1826138cf565b6138fe604051918261376e565b828152809261390f601f19916138cf565b0190602036910137565b9081602091031261027b575160ff8116810361027b5790565b91908203918211612b6757565b604d8111612b6757600a0a90565b80518210156138985760209160051b010190565b6000198114612b675760010190565b9081602091031261027b5751801515810361027b5790565b9081602091031261027b57516001600160a01b038116810361027b5790565b156139ae57565b60405162461bcd60e51b815260206004820152601760248201527f53776170204661696c65642c20547279204275726e28290000000000000000006044820152606490fd5b91906139fd613cc1565b613a06836146f9565b6001600160a01b0380931690600093828552602090600c8252604086205493613a30851515613af6565b8652600c825260408087208790555163a9059cbb60e01b81526001600160a01b03841660048201526024810185905282816044818a7f000000000000000000000000000000000000000000000000000000000000000087165af18015613aeb577f106f923f993c2149d49b4255ff723acafa1f2d94393f561d3eda32ae348f72419495969750613ace575b50604051938585521692a2906001600655565b613ae490833d851161064f57610640818361376e565b5038613abb565b6040513d89823e3d90fd5b15613afd57565b60405162461bcd60e51b815260206004820152601360248201527f4e6f207265776172647320746f20636c61696d000000000000000000000000006044820152606490fd5b15613b4957565b60405162461bcd60e51b815260206004820152601060248201526f125b9cdd59999a58da595b9d0810905360821b6044820152606490fd5b15613b8857565b60405162461bcd60e51b815260206004820152602260248201527f546f74616c2042414c554e4920737570706c792063616e6e6f74206265207a65604482015261726f60f01b6064820152608490fd5b9060ff8091169116039060ff8211612b6757565b60ff16604d8111612b6757600a0a90565b15613c0457565b60405162461bcd60e51b815260206004820152601960248201527f436865636b2074686520746f6b656e20616c6c6f77616e6365000000000000006044820152606490fd5b15613c5057565b60405162461bcd60e51b815260206004820152601b60248201527f546f74616c20737570706c792063616e6e6f74206265207a65726f00000000006044820152606490fd5b6001600160a01b03600054163303613ca957565b60405163118cdaa760e01b8152336004820152602490fd5b600260065414613cd2576002600655565b604051633ee5aeb560e01b8152600490fd5b60408051636eb1769f60e11b81523060048201526001600160a01b038316602482015260209360008051602061535b8339815191528583604481845afa928315613e5d57600093613e2e575b50818303613d41575b505050505050565b8592613db9575b835163095ea7b360e01b81526001600160a01b0390951660048601526024850191909152839081600081604481015b03925af1908115613daf5750613d91575b80808080613d39565b81613da792903d1061064f57610640818361376e565b503880613d88565b513d6000823e3d90fd5b91509192835163095ea7b360e01b81526001600160a01b03821660048201526000602482015285816044816000875af18015613e235791869391613d77969593613e06575b509450613d48565b613e1c90853d871161064f57610640818361376e565b5038613dfe565b85513d6000823e3d90fd5b9092508581813d8311613e56575b613e46818361376e565b8101031261027b57519138613d30565b503d613e3c565b84513d6000823e3d90fd5b60408051636eb1769f60e11b81523060048201526001600160a01b03848116602483015260209590949293919290918516908684604481855afa938415613e2357600094613f98575b50828403613ec3575b50505050505050565b8693613f35575b845163095ea7b360e01b81526001600160a01b0390911660048201526024810192909252909350839081600081604481015b03925af1908115613daf5750613f17575b8080808080613eba565b81613f2d92903d1061064f57610640818361376e565b503880613f0d565b91938095919350519063095ea7b360e01b8252821660048201526000602482015285816044816000875af18015613e235791869391613efc969593613f7b575b50613eca565b613f9190853d871161064f57610640818361376e565b5038613f75565b9093508681813d8311613fc0575b613fb0818361376e565b8101031261027b57519238613eb1565b503d613fa6565b90604051613fd4816136fd565b6001600160a01b03809316815282806020830160008051602061535b83398151915281526040840194610bb88652826060860198168852608085019042825260a0860190815260c08601918460009a8b998a86528260e08b01978c89526040519d8e9c8d63414bf38960e01b9052511660048d0152511660248b01525162ffffff1660448a0152511660648801525160848701525160a48601525160c4850152511660e48301527f000000000000000000000000000000000000000000000000000000000000000016815a9361010492602095f19182156140ee5780926140ba57505090565b9091506020823d6020116140e6575b816140d66020938361376e565b810103126140e357505190565b80fd5b3d91506140c9565b604051903d90823e3d90fd5b90604051614107816136fd565b60008051602061535b833981519152815260208101926001600160a01b0380948180931681526040840194610bb88652826060860198168852608085019042825260a0860190815260c08601918460009a8b998a86528260e08b01978c89526040519d8e9c8d63414bf38960e01b9052511660048d0152511660248b01525162ffffff1660448a0152511660648801525160848701525160a48601525160c4850152511660e48301527f000000000000000000000000000000000000000000000000000000000000000016815a9361010492602095f19182156140ee5780926140ba57505090565b916001600160a01b038084169283156142b6571692831561429d57600090838252600160205260408220549083821061426b575091604082827fddf252ad1be2c89b69c2b068fc378daa952ba7f163c4a11628f55a4df523b3ef95876020965260018652038282205586815220818154019055604051908152a3565b60405163391434e360e21b81526001600160a01b03919091166004820152602481019190915260448101839052606490fd5b60405163ec442f0560e01b815260006004820152602490fd5b604051634b637e8f60e11b815260006004820152602490fd5b6000806010545b8082106142e257505090565b90916001600160a01b036142f58461498a565b90549060031b1c16604080516370a0823160e01b815230600482015260208082602481875afa928315613daf5750600092614345575b50509161114561433d92600194614378565b9201906142d6565b81819392933d8311614371575b61435c818361376e565b810103126140e357505161114561433d61432b565b503d614352565b60405163313ce56760e01b8082529192600092906020906001600160a01b03908116908285600481855afa94851561453a57869561451b575b5060405193845260008051602061535b8339815191528385600481845afa948515613aeb5787956144fc575b5082146144c85760405163802431fb60e01b81526001600160a01b0392909216600483015260008051602061535b8339815191526024830152600060448301528290829060649082907f0000000000000000000000000000000000000000000000000000000000000000165afa91859083614495575b5050506144635750505050600090565b670de0b6b3a76400009361448b61448461191d611c14946144919796613bd8565b80926137a8565b926137a8565b0490565b909180939650813d83116144c1575b6144ae818361376e565b810103126140e357505192388080614453565b503d6144a4565b505050505064e8d4a51000918281029281840414901517156144e8575090565b634e487b7160e01b81526011600452602490fd5b614514919550843d8611610c0d57610bff818361376e565b93386143dd565b614533919550833d8511610c0d57610bff818361376e565b93386143b1565b6040513d88823e3d90fd5b9190614550816138e7565b9060005b818110614562575090925050565b8061456f6001928761394d565b5161457a828661394d565b5201614554565b90916040519160209384916bffffffffffffffffffffffff199060601b168285015261017760eb1b80603486015272d500b1d8e8ef31e21c99d1db9a6444d3adf12760641b6037860152604b8501527309e46f287cb791987b6228c32669ea5126aa105d60621b604e850152604284526145fa84613752565b604051936146078561371a565b8452818401926146676001600160a01b0392838093168652604087019642885260608101918252608081019660009788938482526040519a8b988997889663c04b8d5960e01b88528c60048901525160a0602489015260c488019061361c565b94511660448601525160648501525160848401525160a483015203927f0000000000000000000000000000000000000000000000000000000000000000165af19283156146ec5781936146bb575b50505090565b9091809350813d83116146e5575b6146d3818361376e565b810103126140e35750513880806146b5565b503d6146c9565b50604051903d90823e3d90fd5b6001600160a01b0361470a82614914565b91169081600052600c60205261472660406000209182546138c2565b9055600a5490600052600b602052604060002055565b6001600160a01b031690811561429d577fddf252ad1be2c89b69c2b068fc378daa952ba7f163c4a11628f55a4df523b3ef60208261477e6000946003546138c2565b6003558484526001825260408420818154019055604051908152a3565b90926147a8821515613c49565b601281116147ea5760128110156147db576012039260128411612b675761448b61124f92611c146147d89661393f565b90565b506147d89261124f91926137a8565b60405162461bcd60e51b815260206004820152601e60248201527f546f6b656e20646563696d616c732073686f756c64206265203c3d20313800006044820152606490fd5b91906001600160a01b0383169081156142b657816000526001602052604060002054938185106148a157506020817fddf252ad1be2c89b69c2b068fc378daa952ba7f163c4a11628f55a4df523b3ef9260009596858752600184520360408620558060035403600355604051908152a3565b60405163391434e360e21b81526001600160a01b03919091166004820152602481018590526044810191909152606490fd5b60095490816148e0575050565b670de0b6b3a764000090818102918183041490151715612b675761490f9161490791613868565b600a546138c2565b600a55565b6001600160a01b0316670de0b6b3a764000061497f6000838152600860205261497a614944604083205442613932565b6301e13380959086811115614984575085905b8352600760205261448b6040842054936040600a5491600b602052205490613932565b6137a8565b040490565b90614957565b6010548110156138985760106000527f1b6847dc741a1b0cd08d278845f9d819d87b734759afb55fe2de5cb82a9ae6720190600090565b600081815260116020526040812054614a595760105468010000000000000000811015614a45576001810180601055811015614a315790826040927f1b6847dc741a1b0cd08d278845f9d819d87b734759afb55fe2de5cb82a9ae672015560105492815260116020522055600190565b634e487b7160e01b82526032600452602482fd5b634e487b7160e01b82526041600452602482fd5b905090565b909190614a875750805115614a7557805190602001fd5b604051630a12f52160e11b8152600490fd5b9080511580614abe575b614a985790565b604051639996b31560e01b815260008051602061535b8339815191526004820152602490fd5b5060008051602061535b8339815191523b15614a91565b90614aea5750805115614a7557805190602001fd5b81511580614b1d575b614afb575090565b604051639996b31560e01b81526001600160a01b039091166004820152602490fd5b50803b15614af356fe60803460bc57601f61083438819003918201601f19168301916001600160401b0383118484101760c157808492604094855283398101031260bc57604b602060458360d7565b920160d7565b6001600160a01b0390811691903383900360895760018060a01b03199116816000541617600055600154161760015560405161074990816100eb8239f35b60405162461bcd60e51b815260206004820152600b60248201526a27b7363c902937baba32b960a91b6044820152606490fd5b600080fd5b634e487b7160e01b600052604160045260246000fd5b51906001600160a01b038216820360bc5756fe608060408181526004908136101561001657600080fd5b600092833560e01c9081638da5cb5b1461045357508063b0f479a11461042b5763eedc3c501461004557600080fd5b3461042757806003193601126104275767ffffffffffffffff9082358281116103dc576100759036908501610476565b91909360248035858111610423576100909036908401610476565b90956001600160a01b0395600198878a541633036103e0578a5b82811061031c5750505050848754169084518092630c2fe7ff60e11b8252818660209586935afa908115610312578a916102e1575b50888a5b888a858084106101fb579450505050506100fb578880f35b88805b82811061010b5750508880f35b89918861012161011c84878e610570565b6104e4565b1673eeeeeeeeeeeeeeeeeeeeeeeeeeeeeeeeeeeeeeee81036101605750504761014d575b0189906100fe565b61015b888c5416479061066f565b610145565b88516370a0823160e01b8152308982015292935090919085828881845afa9182156101f157908392918d9594926101bb575b508a600a83116101a6575b50505050610145565b6101b2935416906105a9565b8a38808a61019d565b945090508584813d81116101ea575b6101d481836104f8565b810103126101e6578b93519038610192565b5080fd5b503d6101ca565b89513d85823e3d90fd5b8361011c9161020993610570565b1673eeeeeeeeeeeeeeeeeeeeeeeeeeeeeeeeeeeeeeee810361024857506102406127106102368547610580565b048a84541661066f565b0189906100e3565b88516370a0823160e01b815230898201529192509085818881855afa908d82156102d6578d94939286929061029b575b5061028a610296939261271092610580565b04908b855416906105a9565b610240565b92945050508581813d83116102cf575b6102b581836104f8565b810103126102cb57518b9290849061028a610278565b8c80fd5b503d6102ab565b8a51903d90823e3d90fd5b90508281813d831161030b575b6102f881836104f8565b810103126103075751386100df565b8980fd5b503d6102ee565b86513d8c823e3d90fd5b61032a61011c8285856104ac565b8c6020918261033a8588886104ac565b0135906103488588886104ac565b8c81013590601e19813603018212156103dc57018035908982116103dc5785019281360384136103dc578493828f519384928337810185815203925af161038d610530565b501561039b57508a016100aa565b876011886064938c519362461bcd60e51b85528401528201527f42617463682063616c6c206661696c65640000000000000000000000000000006044820152fd5b8480fd5b865162461bcd60e51b8152602081880152601b60248201527f43616c6c61626c65206f6e6c792062792074686520726f7574657200000000006044820152606490fd5b8780fd5b8280fd5b8382346101e657816003193601126101e6576020906001600160a01b03600154169051908152f35b8490346101e657816003193601126101e6576001600160a01b0360209254168152f35b9181601f840112156104a75782359167ffffffffffffffff83116104a7576020808501948460051b0101116104a757565b600080fd5b91908110156104ce5760051b81013590605e19813603018212156104a7570190565b634e487b7160e01b600052603260045260246000fd5b356001600160a01b03811681036104a75790565b90601f8019910116810190811067ffffffffffffffff82111761051a57604052565b634e487b7160e01b600052604160045260246000fd5b3d1561056b573d9067ffffffffffffffff821161051a576040519161055f601f8201601f1916602001846104f8565b82523d6000602084013e565b606090565b91908110156104ce5760051b0190565b8181029291811591840414171561059357565b634e487b7160e01b600052601160045260246000fd5b91909160405192602084019263a9059cbb60e01b84526001600160a01b038092166024860152604485015260448452608084019184831067ffffffffffffffff84111761051a57610614926040521692600080938192519082875af161060d610530565b90846106c2565b908151918215159283610644575b50505061062c5750565b60249060405190635274afe760e01b82526004820152fd5b8192935090602091810103126101e657602001519081159182150361066c5750388080610622565b80fd5b8147106106aa5760008080936001600160a01b038294165af1610690610530565b501561069857565b604051630a12f52160e11b8152600490fd5b60405163cd78605960e01b8152306004820152602490fd5b906106d7575080511561069857805190602001fd5b8151158061070a575b6106e8575090565b604051639996b31560e01b81526001600160a01b039091166004820152602490fd5b50803b156106e056fea26469706673582212205930771bdac7a28577e83853179585c14d2d1de60202bee4d616bc2925c9934164736f6c634300081900330000000000000000000000002791bca1f2de4661ed88a30c99a7a9449aa84174a2646970667358221220e671a31319baf4efcdfd3784f9ea4116cbbe96dd251b244890ffd4b6958d90aa64736f6c63430008190033","opcodes":"PUSH1 0x40 PUSH2 0x120 DUP2 MSTORE CALLVALUE PUSH2 0x642 JUMPI PUSH2 0x13 PUSH2 0x647 JUMP JUMPDEST SWAP1 PUSH1 0x20 PUSH6 0x42616C756E69 PUSH1 0xD0 SHL DUP2 DUP5 ADD MSTORE PUSH2 0x2C PUSH2 0x647 JUMP JUMPDEST PUSH6 0x42414C554E49 PUSH1 0xD0 SHL DUP3 DUP3 ADD MSTORE CALLER ISZERO PUSH2 0x62A JUMPI PUSH1 0x0 DUP1 SLOAD CALLER PUSH1 0x1 PUSH1 0x1 PUSH1 0xA0 SHL SUB NOT DUP3 AND DUP2 OR DUP4 SSTORE SWAP2 SWAP3 SWAP2 SWAP1 PUSH1 0x1 PUSH1 0x1 PUSH1 0xA0 SHL SUB AND PUSH32 0x8BE0079C531659141344CD1FD0A4F28419497F9722A3DAAFE3B4186F6B6457E0 DUP5 DUP1 LOG3 DUP5 MLOAD SWAP1 PUSH1 0x1 PUSH1 0x1 PUSH1 0x40 SHL SUB DUP1 DUP4 GT PUSH2 0x616 JUMPI PUSH1 0x4 SWAP3 DUP4 SLOAD SWAP1 PUSH1 0x1 SWAP9 DUP10 DUP4 DUP2 SHR SWAP4 AND DUP1 ISZERO PUSH2 0x60C JUMPI JUMPDEST DUP9 DUP5 LT EQ PUSH2 0x524 JUMPI DUP2 SWAP1 PUSH1 0x1F SWAP4 DUP5 DUP2 GT PUSH2 0x5BE JUMPI JUMPDEST POP DUP9 SWAP1 DUP5 DUP4 GT PUSH1 0x1 EQ PUSH2 0x55F JUMPI DUP9 SWAP3 PUSH2 0x554 JUMPI JUMPDEST POP POP PUSH1 0x0 NOT PUSH1 0x3 DUP4 SWAP1 SHL SHR NOT AND SWAP1 DUP10 SHL OR DUP5 SSTORE JUMPDEST DUP3 MLOAD SWAP2 DUP3 GT PUSH2 0x541 JUMPI PUSH1 0x5 SWAP3 DUP4 SLOAD DUP10 DUP2 DUP2 SHR SWAP2 AND DUP1 ISZERO PUSH2 0x537 JUMPI JUMPDEST DUP9 DUP3 LT EQ PUSH2 0x524 JUMPI SWAP1 DUP2 DUP4 DUP6 SWAP5 SWAP4 GT PUSH2 0x4D6 JUMPI JUMPDEST POP DUP8 SWAP2 DUP4 GT PUSH1 0x1 EQ PUSH2 0x477 JUMPI DUP7 SWAP3 PUSH2 0x46C JUMPI JUMPDEST POP POP PUSH1 0x0 NOT PUSH1 0x3 DUP4 SWAP1 SHL SHR NOT AND SWAP1 DUP8 SHL OR SWAP1 SSTORE JUMPDEST DUP5 PUSH1 0x6 SSTORE ADDRESS ISZERO SWAP5 DUP6 ISZERO DUP1 PUSH2 0x467 JUMPI JUMPDEST ISZERO PUSH2 0x424 JUMPI ADDRESS PUSH1 0x80 MSTORE ADDRESS PUSH1 0xA0 MSTORE PUSH1 0x1E PUSH1 0xD SSTORE PUSH2 0x2710 PUSH1 0xE SSTORE PUSH1 0x1E PUSH1 0xF SSTORE PUSH20 0xADDD25A91563696D8567DF78D5A01C9A991F9B8 PUSH1 0xC0 MSTORE PUSH20 0xE592427A0AECE92DE3EDEE1F18E0157C05861564 PUSH1 0xE0 MSTORE PUSH2 0x100 SWAP6 PUSH20 0x1F98431C8AD98523631AE4A59F267346EA31F984 DUP8 MSTORE PUSH2 0x40E JUMPI SWAP1 DUP5 SWAP3 SWAP2 PUSH2 0x1CA PUSH1 0x3 SLOAD PUSH2 0x680 JUMP JUMPDEST PUSH1 0x3 SSTORE ADDRESS DUP4 MSTORE DUP5 MSTORE DUP3 DUP3 KECCAK256 SWAP1 PUSH8 0xDE0B6B3A7640000 SWAP2 DUP3 DUP2 SLOAD ADD SWAP1 SSTORE DUP4 MLOAD DUP3 DUP2 MSTORE DUP4 PUSH32 0xDDF252AD1BE2C89B69C2B068FC378DAA952BA7F163C4A11628F55A4DF523B3EF DUP8 ADDRESS SWAP4 LOG3 ADDRESS DUP4 MSTORE PUSH1 0x7 DUP6 MSTORE DUP4 DUP4 KECCAK256 PUSH2 0x225 DUP2 SLOAD PUSH2 0x680 JUMP JUMPDEST SWAP1 SSTORE PUSH2 0x232 PUSH1 0x9 SLOAD PUSH2 0x680 JUMP JUMPDEST PUSH1 0x9 SSTORE CALLER DUP4 MSTORE PUSH1 0x8 DUP6 MSTORE TIMESTAMP DUP5 DUP5 KECCAK256 SSTORE PUSH1 0x9 SLOAD SWAP1 DUP2 ISZERO DUP1 ISZERO DUP1 PUSH2 0x3BA JUMPI JUMPDEST POP POP POP POP ADDRESS DUP3 MSTORE PUSH1 0x8 DUP5 MSTORE PUSH2 0x267 DUP4 DUP4 KECCAK256 SLOAD TIMESTAMP PUSH2 0x6CB JUMP JUMPDEST PUSH4 0x1E13380 SWAP2 SWAP1 DUP3 DUP2 GT ISZERO PUSH2 0x3B1 JUMPI POP PUSH2 0x2AA DUP3 JUMPDEST ADDRESS DUP6 MSTORE PUSH1 0x7 DUP8 MSTORE PUSH2 0x2A5 DUP7 DUP7 KECCAK256 SLOAD SWAP2 PUSH2 0x29F PUSH1 0xA SLOAD PUSH1 0xB DUP12 MSTORE DUP10 DUP10 KECCAK256 SLOAD SWAP1 PUSH2 0x6CB JUMP JUMPDEST SWAP3 PUSH2 0x6B8 JUMP JUMPDEST PUSH2 0x6B8 JUMP JUMPDEST DIV DIV ADDRESS DUP3 MSTORE PUSH1 0xC DUP5 MSTORE PUSH2 0x2C1 DUP4 DUP4 KECCAK256 SWAP2 DUP3 SLOAD PUSH2 0x6AB JUMP JUMPDEST SWAP1 SSTORE PUSH1 0xB PUSH1 0xA SLOAD SWAP4 ADDRESS DUP4 MSTORE MSTORE KECCAK256 SSTORE PUSH2 0x2D7 PUSH2 0x6D8 JUMP JUMPDEST POP MLOAD PUSH2 0x53B0 SWAP2 DUP3 PUSH2 0x7A8 DUP4 CODECOPY PUSH1 0x80 MLOAD DUP3 DUP2 DUP2 PUSH2 0xF0A ADD MSTORE DUP2 DUP2 PUSH2 0x15E9 ADD MSTORE PUSH2 0x22BC ADD MSTORE PUSH1 0xA0 MLOAD DUP3 DUP2 DUP2 PUSH2 0x257 ADD MSTORE DUP2 DUP2 PUSH2 0xD45 ADD MSTORE DUP2 DUP2 PUSH2 0x1D2A ADD MSTORE PUSH2 0x3A67 ADD MSTORE PUSH1 0xC0 MLOAD DUP3 DUP2 DUP2 PUSH2 0x11F4 ADD MSTORE DUP2 DUP2 PUSH2 0x18C5 ADD MSTORE DUP2 DUP2 PUSH2 0x31B6 ADD MSTORE PUSH2 0x4428 ADD MSTORE PUSH1 0xE0 MLOAD DUP3 DUP2 DUP2 PUSH2 0xA25 ADD MSTORE DUP2 DUP2 PUSH2 0x15A5 ADD MSTORE DUP2 DUP2 PUSH2 0x20B4 ADD MSTORE DUP2 DUP2 PUSH2 0x254B ADD MSTORE DUP2 DUP2 PUSH2 0x27BC ADD MSTORE DUP2 DUP2 PUSH2 0x3293 ADD MSTORE DUP2 DUP2 PUSH2 0x337A ADD MSTORE DUP2 DUP2 PUSH2 0x407D ADD MSTORE DUP2 DUP2 PUSH2 0x41B2 ADD MSTORE PUSH2 0x4685 ADD MSTORE MLOAD DUP2 DUP2 DUP2 PUSH2 0x4B7 ADD MSTORE DUP2 DUP2 PUSH2 0x538 ADD MSTORE DUP2 DUP2 PUSH2 0xA01 ADD MSTORE DUP2 DUP2 PUSH2 0x10E3 ADD MSTORE DUP2 DUP2 PUSH2 0x207B ADD MSTORE DUP2 DUP2 PUSH2 0x24E5 ADD MSTORE PUSH2 0x2763 ADD MSTORE RETURN JUMPDEST PUSH2 0x2AA SWAP1 PUSH2 0x27C JUMP JUMPDEST PUSH2 0x3C5 JUMPI JUMPDEST DUP1 PUSH2 0x24F JUMP JUMPDEST SWAP1 SWAP2 SWAP3 SWAP4 SWAP5 POP PUSH2 0x3FB JUMPI POP SWAP1 PUSH2 0x3F0 DUP6 SWAP4 SWAP3 PUSH15 0xC097CE7BC90715B34B9F1000000000 DIV PUSH1 0xA SLOAD PUSH2 0x6AB JUMP JUMPDEST PUSH1 0xA SSTORE CODESIZE DUP1 DUP1 PUSH2 0x3BF JUMP JUMPDEST PUSH4 0x4E487B71 PUSH1 0xE0 SHL DUP5 MSTORE PUSH1 0x12 SWAP1 MSTORE PUSH1 0x24 DUP4 REVERT JUMPDEST POP PUSH1 0x24 SWAP2 DUP5 MLOAD SWAP2 PUSH4 0xEC442F05 PUSH1 0xE0 SHL DUP4 MSTORE DUP3 ADD MSTORE REVERT JUMPDEST DUP5 MLOAD PUSH3 0x461BCD PUSH1 0xE5 SHL DUP2 MSTORE DUP1 DUP4 ADD DUP6 SWAP1 MSTORE PUSH1 0x15 PUSH1 0x24 DUP3 ADD MSTORE PUSH32 0x496E76616C696420746F6B656E20616464726573730000000000000000000000 PUSH1 0x44 DUP3 ADD MSTORE PUSH1 0x64 SWAP1 REVERT JUMPDEST PUSH2 0x14F JUMP JUMPDEST ADD MLOAD SWAP1 POP CODESIZE DUP1 PUSH2 0x12C JUMP JUMPDEST DUP5 DUP8 MSTORE DUP8 DUP8 KECCAK256 DUP11 SWAP5 POP SWAP2 SWAP1 PUSH1 0x1F NOT DUP5 AND DUP9 JUMPDEST DUP11 DUP3 DUP3 LT PUSH2 0x4C0 JUMPI POP POP DUP5 GT PUSH2 0x4A7 JUMPI JUMPDEST POP POP POP DUP2 SHL ADD SWAP1 SSTORE PUSH2 0x140 JUMP JUMPDEST ADD MLOAD PUSH1 0x0 NOT PUSH1 0xF8 DUP5 PUSH1 0x3 SHL AND SHR NOT AND SWAP1 SSTORE CODESIZE DUP1 DUP1 PUSH2 0x49A JUMP JUMPDEST DUP4 DUP6 ADD MLOAD DUP7 SSTORE DUP14 SWAP8 SWAP1 SWAP6 ADD SWAP5 SWAP4 DUP5 ADD SWAP4 ADD PUSH2 0x489 JUMP JUMPDEST SWAP1 SWAP2 SWAP3 POP DUP5 DUP8 MSTORE DUP8 DUP8 KECCAK256 DUP4 DUP1 DUP7 ADD DUP8 SHR DUP3 ADD SWAP3 DUP11 DUP8 LT PUSH2 0x51B JUMPI JUMPDEST SWAP2 DUP7 SWAP6 DUP14 SWAP3 SWAP6 SWAP5 SWAP4 ADD DUP9 SHR ADD SWAP2 JUMPDEST DUP3 DUP2 LT PUSH2 0x50D JUMPI POP POP PUSH2 0x119 JUMP JUMPDEST DUP10 DUP2 SSTORE DUP7 SWAP6 POP DUP13 SWAP2 ADD PUSH2 0x4FF JUMP JUMPDEST SWAP3 POP DUP2 SWAP3 PUSH2 0x4F1 JUMP JUMPDEST PUSH4 0x4E487B71 PUSH1 0xE0 SHL DUP8 MSTORE PUSH1 0x22 DUP7 MSTORE PUSH1 0x24 DUP8 REVERT JUMPDEST SWAP1 PUSH1 0x7F AND SWAP1 PUSH2 0x105 JUMP JUMPDEST PUSH4 0x4E487B71 PUSH1 0xE0 SHL DUP6 MSTORE PUSH1 0x41 DUP5 MSTORE PUSH1 0x24 DUP6 REVERT JUMPDEST ADD MLOAD SWAP1 POP CODESIZE DUP1 PUSH2 0xD6 JUMP JUMPDEST DUP8 DUP10 MSTORE DUP10 DUP10 KECCAK256 DUP13 SWAP5 POP SWAP2 SWAP1 PUSH1 0x1F NOT DUP5 AND DUP11 JUMPDEST DUP13 DUP3 DUP3 LT PUSH2 0x5A8 JUMPI POP POP DUP5 GT PUSH2 0x58F JUMPI JUMPDEST POP POP POP DUP2 SHL ADD DUP5 SSTORE PUSH2 0xEA JUMP JUMPDEST ADD MLOAD PUSH1 0x0 NOT PUSH1 0xF8 DUP5 PUSH1 0x3 SHL AND SHR NOT AND SWAP1 SSTORE CODESIZE DUP1 DUP1 PUSH2 0x582 JUMP JUMPDEST DUP4 DUP6 ADD MLOAD DUP7 SSTORE DUP16 SWAP8 SWAP1 SWAP6 ADD SWAP5 SWAP4 DUP5 ADD SWAP4 ADD PUSH2 0x571 JUMP JUMPDEST SWAP1 SWAP2 POP DUP7 DUP9 MSTORE DUP9 DUP9 KECCAK256 DUP5 DUP1 DUP6 ADD PUSH1 0x5 SHR DUP3 ADD SWAP3 DUP12 DUP7 LT PUSH2 0x603 JUMPI JUMPDEST SWAP2 DUP14 SWAP2 DUP7 SWAP6 SWAP5 SWAP4 ADD PUSH1 0x5 SHR ADD SWAP2 JUMPDEST DUP3 DUP2 LT PUSH2 0x5F5 JUMPI POP POP PUSH2 0xC2 JUMP JUMPDEST DUP11 DUP2 SSTORE DUP6 SWAP5 POP DUP14 SWAP2 ADD PUSH2 0x5E7 JUMP JUMPDEST SWAP3 POP DUP2 SWAP3 PUSH2 0x5D9 JUMP JUMPDEST SWAP3 PUSH1 0x7F AND SWAP3 PUSH2 0xAD JUMP JUMPDEST PUSH4 0x4E487B71 PUSH1 0xE0 SHL DUP5 MSTORE PUSH1 0x41 PUSH1 0x4 MSTORE PUSH1 0x24 DUP5 REVERT JUMPDEST DUP3 MLOAD PUSH4 0x1E4FBDF7 PUSH1 0xE0 SHL DUP2 MSTORE PUSH1 0x0 PUSH1 0x4 DUP3 ADD MSTORE PUSH1 0x24 SWAP1 REVERT JUMPDEST PUSH1 0x0 DUP1 REVERT JUMPDEST PUSH1 0x40 DUP1 MLOAD SWAP2 SWAP1 DUP3 ADD PUSH1 0x1 PUSH1 0x1 PUSH1 0x40 SHL SUB DUP2 GT DUP4 DUP3 LT OR PUSH2 0x66A JUMPI PUSH1 0x40 MSTORE PUSH1 0x6 DUP3 MSTORE JUMP JUMPDEST PUSH4 0x4E487B71 PUSH1 0xE0 SHL PUSH1 0x0 MSTORE PUSH1 0x41 PUSH1 0x4 MSTORE PUSH1 0x24 PUSH1 0x0 REVERT JUMPDEST SWAP1 PUSH8 0xDE0B6B3A7640000 DUP3 ADD DUP1 SWAP3 GT PUSH2 0x695 JUMPI JUMP JUMPDEST PUSH4 0x4E487B71 PUSH1 0xE0 SHL PUSH1 0x0 MSTORE PUSH1 0x11 PUSH1 0x4 MSTORE PUSH1 0x24 PUSH1 0x0 REVERT JUMPDEST SWAP2 SWAP1 DUP3 ADD DUP1 SWAP3 GT PUSH2 0x695 JUMPI JUMP JUMPDEST DUP2 DUP2 MUL SWAP3 SWAP2 DUP2 ISZERO SWAP2 DUP5 DIV EQ OR ISZERO PUSH2 0x695 JUMPI JUMP JUMPDEST SWAP2 SWAP1 DUP3 SUB SWAP2 DUP3 GT PUSH2 0x695 JUMPI JUMP JUMPDEST PUSH20 0x2791BCA1F2DE4661ED88A30C99A7A9449AA84174 PUSH1 0x0 DUP2 DUP2 MSTORE PUSH1 0x11 PUSH1 0x20 MSTORE PUSH32 0xD858BFF8317940B1BB2B6603753B280D3518AB8E24C32A7DE1CC1E7559E16598 SLOAD PUSH2 0x7A2 JUMPI PUSH1 0x10 SLOAD PUSH9 0x10000000000000000 DUP2 LT ISZERO PUSH2 0x78E JUMPI PUSH1 0x1 DUP2 ADD DUP1 PUSH1 0x10 SSTORE DUP2 LT ISZERO PUSH2 0x77A JUMPI PUSH32 0x1B6847DC741A1B0CD08D278845F9D819D87B734759AFB55FE2DE5CB82A9AE672 ADD DUP3 SWAP1 SSTORE PUSH1 0x10 SLOAD SWAP2 DUP2 MSTORE PUSH1 0x11 PUSH1 0x20 MSTORE PUSH1 0x40 SWAP1 KECCAK256 SSTORE PUSH1 0x1 SWAP1 JUMP JUMPDEST PUSH4 0x4E487B71 PUSH1 0xE0 SHL DUP3 MSTORE PUSH1 0x32 PUSH1 0x4 MSTORE PUSH1 0x24 DUP3 REVERT JUMPDEST PUSH4 0x4E487B71 PUSH1 0xE0 SHL DUP3 MSTORE PUSH1 0x41 PUSH1 0x4 MSTORE PUSH1 0x24 DUP3 REVERT JUMPDEST SWAP1 POP SWAP1 JUMP INVALID PUSH1 0x80 PUSH1 0x40 MSTORE PUSH1 0x4 CALLDATASIZE LT ISZERO PUSH2 0x12 JUMPI PUSH1 0x0 DUP1 REVERT JUMPDEST PUSH1 0x0 CALLDATALOAD PUSH1 0xE0 SHR DUP1 PUSH4 0x12A33AA EQ PUSH2 0x35D5 JUMPI DUP1 PUSH4 0x6497CB9 EQ PUSH2 0x3589 JUMPI DUP1 PUSH4 0x6FDDE03 EQ PUSH2 0x34C4 JUMPI DUP1 PUSH4 0x95EA7B3 EQ PUSH2 0x343E JUMPI DUP1 PUSH4 0x12F399CF EQ PUSH2 0x313B JUMPI DUP1 PUSH4 0x18160DDD EQ PUSH2 0x311D JUMPI DUP1 PUSH4 0x185FCFFE EQ PUSH2 0xCDA JUMPI DUP1 PUSH4 0x23B872DD EQ PUSH2 0x302A JUMPI DUP1 PUSH4 0x27D54A92 EQ PUSH2 0x2EC2 JUMPI DUP1 PUSH4 0x295B9300 EQ PUSH2 0x2EA7 JUMPI DUP1 PUSH4 0x2BE01190 EQ PUSH2 0x2369 JUMPI DUP1 PUSH4 0x2E17DE78 EQ PUSH2 0x2235 JUMPI DUP1 PUSH4 0x2F865568 EQ PUSH2 0x1FEC JUMPI DUP1 PUSH4 0x313CE567 EQ PUSH2 0x1FD0 JUMPI DUP1 PUSH4 0x34A1CA89 EQ PUSH2 0x1FA4 JUMPI DUP1 PUSH4 0x34DECFC9 EQ PUSH2 0x1F87 JUMPI DUP1 PUSH4 0x42966C68 EQ PUSH2 0x1DB5 JUMPI DUP1 PUSH4 0x4E71D92D EQ PUSH2 0x1CB6 JUMPI DUP1 PUSH4 0x50B1B34A EQ PUSH2 0x17EE JUMPI DUP1 PUSH4 0x5E7F8B76 EQ PUSH2 0x172F JUMPI DUP1 PUSH4 0x65534D52 EQ PUSH2 0x1711 JUMPI DUP1 PUSH4 0x70259077 EQ PUSH2 0x16D7 JUMPI DUP1 PUSH4 0x70A08231 EQ PUSH2 0x169D JUMPI DUP1 PUSH4 0x715018A6 EQ PUSH2 0x1644 JUMPI DUP1 PUSH4 0x71DDCFB8 EQ PUSH2 0x160D JUMPI DUP1 PUSH4 0x72F702F3 EQ PUSH2 0x15C9 JUMPI DUP1 PUSH4 0x735DE9F7 EQ PUSH2 0x1585 JUMPI DUP1 PUSH4 0x7811A785 EQ PUSH2 0x154A JUMPI DUP1 PUSH4 0x7B848914 EQ PUSH2 0x14FE JUMPI DUP1 PUSH4 0x7D9FC717 EQ PUSH2 0x1218 JUMPI DUP1 PUSH4 0x7DC0D1D0 EQ PUSH2 0x11D4 JUMPI DUP1 PUSH4 0x833D557F EQ PUSH2 0x119A JUMPI DUP1 PUSH4 0x85377188 EQ PUSH2 0x117C JUMPI DUP1 PUSH4 0x89A30271 EQ PUSH2 0x1153 JUMPI DUP1 PUSH4 0x8B086764 EQ PUSH2 0x1107 JUMPI DUP1 PUSH4 0x8BDB2AFA EQ PUSH2 0x10C3 JUMPI DUP1 PUSH4 0x8DA5CB5B EQ PUSH2 0x109C JUMPI DUP1 PUSH4 0x95D89B41 EQ PUSH2 0xF88 JUMPI DUP1 PUSH4 0xA694FC3A EQ PUSH2 0xE71 JUMPI DUP1 PUSH4 0xA9059CBB EQ PUSH2 0xE40 JUMPI DUP1 PUSH4 0xAB86C69E EQ PUSH2 0xCF8 JUMPI DUP1 PUSH4 0xB9F5E617 EQ PUSH2 0xCDA JUMPI DUP1 PUSH4 0xBF9C89BB EQ PUSH2 0xCA0 JUMPI DUP1 PUSH4 0xCDE53358 EQ PUSH2 0x9CA JUMPI DUP1 PUSH4 0xDD62ED3E EQ PUSH2 0x978 JUMPI DUP1 PUSH4 0xEEDC3C50 EQ PUSH2 0x325 JUMPI DUP1 PUSH4 0xF2FDE38B EQ PUSH2 0x29E JUMPI DUP1 PUSH4 0xF377E7CF EQ PUSH2 0x280 JUMPI PUSH4 0xF7C618C1 EQ PUSH2 0x237 JUMPI PUSH1 0x0 DUP1 REVERT JUMPDEST CALLVALUE PUSH2 0x27B JUMPI PUSH1 0x0 CALLDATASIZE PUSH1 0x3 NOT ADD SLT PUSH2 0x27B JUMPI PUSH1 0x20 PUSH1 0x40 MLOAD PUSH1 0x1 PUSH1 0x1 PUSH1 0xA0 SHL SUB PUSH32 0x0 AND DUP2 MSTORE RETURN JUMPDEST PUSH1 0x0 DUP1 REVERT JUMPDEST CALLVALUE PUSH2 0x27B JUMPI PUSH1 0x0 CALLDATASIZE PUSH1 0x3 NOT ADD SLT PUSH2 0x27B JUMPI PUSH1 0x20 PUSH1 0x9 SLOAD PUSH1 0x40 MLOAD SWAP1 DUP2 MSTORE RETURN JUMPDEST CALLVALUE PUSH2 0x27B JUMPI PUSH1 0x20 CALLDATASIZE PUSH1 0x3 NOT ADD SLT PUSH2 0x27B JUMPI PUSH2 0x2B7 PUSH2 0x3641 JUMP JUMPDEST PUSH2 0x2BF PUSH2 0x3C95 JUMP JUMPDEST PUSH1 0x1 PUSH1 0x1 PUSH1 0xA0 SHL SUB DUP1 SWAP2 AND SWAP1 DUP2 ISZERO PUSH2 0x30C JUMPI PUSH1 0x0 SLOAD DUP3 PUSH1 0x1 PUSH1 0x1 PUSH1 0xA0 SHL SUB NOT DUP3 AND OR PUSH1 0x0 SSTORE AND PUSH32 0x8BE0079C531659141344CD1FD0A4F28419497F9722A3DAAFE3B4186F6B6457E0 PUSH1 0x0 DUP1 LOG3 STOP JUMPDEST PUSH1 0x40 MLOAD PUSH4 0x1E4FBDF7 PUSH1 0xE0 SHL DUP2 MSTORE PUSH1 0x0 PUSH1 0x4 DUP3 ADD MSTORE PUSH1 0x24 SWAP1 REVERT JUMPDEST CALLVALUE PUSH2 0x27B JUMPI PUSH2 0x333 CALLDATASIZE PUSH2 0x36B2 JUMP JUMPDEST SWAP2 SWAP3 PUSH2 0x33D PUSH2 0x3CC1 JUMP JUMPDEST PUSH1 0x40 MLOAD PUSH1 0x20 DUP2 ADD SWAP1 CALLER PUSH1 0x60 SHL DUP3 MSTORE PUSH1 0x14 DUP2 MSTORE PUSH2 0x358 DUP2 PUSH2 0x3736 JUMP JUMPDEST MLOAD SWAP1 KECCAK256 CALLER PUSH1 0x0 MSTORE PUSH1 0x12 PUSH1 0x20 MSTORE PUSH1 0x1 PUSH1 0x1 PUSH1 0xA0 SHL SUB PUSH1 0x40 PUSH1 0x0 KECCAK256 SLOAD AND ISZERO PUSH2 0x869 JUMPI JUMPDEST POP CALLER PUSH1 0x0 MSTORE PUSH1 0x12 PUSH1 0x20 MSTORE PUSH1 0x1 PUSH1 0x1 PUSH1 0xA0 SHL SUB PUSH1 0x40 PUSH1 0x0 KECCAK256 SLOAD AND PUSH2 0x39B DUP5 PUSH2 0x38CF JUMP JUMPDEST SWAP5 PUSH2 0x3A9 PUSH1 0x40 MLOAD SWAP7 DUP8 PUSH2 0x376E JUMP JUMPDEST DUP5 DUP7 MSTORE PUSH2 0x3B5 DUP6 PUSH2 0x38CF JUMP JUMPDEST PUSH1 0x1F NOT ADD CALLDATASIZE PUSH1 0x20 DUP9 ADD CALLDATACOPY PUSH1 0x0 JUMPDEST DUP6 DUP2 LT PUSH2 0x82F JUMPI POP DUP2 EXTCODESIZE ISZERO PUSH2 0x27B JUMPI SWAP2 PUSH1 0x40 MLOAD SWAP3 DUP4 SWAP2 PUSH4 0xEEDC3C5 PUSH1 0xE4 SHL DUP4 MSTORE DUP2 PUSH1 0x44 DUP5 ADD PUSH1 0x40 PUSH1 0x4 DUP7 ADD MSTORE MSTORE PUSH1 0x64 DUP4 ADD PUSH1 0x64 DUP4 PUSH1 0x5 SHL DUP6 ADD ADD SWAP3 DUP3 PUSH1 0x0 SWAP1 JUMPDEST DUP3 DUP3 LT PUSH2 0x77D JUMPI POP POP POP POP POP DUP2 DUP2 SUB PUSH1 0x3 NOT ADD PUSH1 0x24 DUP4 ADD MSTORE DUP6 DUP2 MSTORE PUSH1 0x20 ADD DUP5 PUSH1 0x0 JUMPDEST DUP8 DUP2 LT PUSH2 0x751 JUMPI POP POP SWAP2 DUP2 PUSH1 0x0 DUP2 DUP2 SWAP6 SUB SWAP3 GAS CALL DUP1 ISZERO PUSH2 0x656 JUMPI PUSH2 0x723 JUMPI JUMPDEST POP PUSH1 0x0 JUMPDEST DUP3 DUP2 LT PUSH2 0x455 JUMPI PUSH1 0x1 PUSH1 0x6 SSTORE STOP JUMPDEST PUSH2 0x468 PUSH2 0x463 DUP3 DUP6 DUP6 PUSH2 0x3888 JUMP JUMPDEST PUSH2 0x38AE JUMP JUMPDEST SWAP1 PUSH1 0x40 MLOAD PUSH4 0xB4C7741 PUSH1 0xE1 SHL DUP2 MSTORE PUSH1 0x1 PUSH1 0x1 PUSH1 0xA0 SHL SUB DUP4 AND PUSH1 0x4 DUP3 ADD MSTORE PUSH20 0xD500B1D8E8EF31E21C99D1DB9A6444D3ADF1270 PUSH1 0x24 DUP3 ADD MSTORE PUSH2 0xBB8 PUSH1 0x44 DUP3 ADD MSTORE PUSH1 0x20 DUP2 PUSH1 0x64 DUP2 PUSH1 0x1 PUSH1 0x1 PUSH1 0xA0 SHL SUB PUSH32 0x0 AND GAS STATICCALL SWAP1 DUP2 ISZERO PUSH2 0x656 JUMPI PUSH1 0x0 SWAP2 PUSH2 0x704 JUMPI JUMPDEST POP PUSH1 0x40 MLOAD SWAP1 PUSH4 0xB4C7741 PUSH1 0xE1 SHL DUP3 MSTORE PUSH1 0x1 PUSH1 0x1 PUSH1 0xA0 SHL SUB DUP5 AND PUSH1 0x4 DUP4 ADD MSTORE PUSH20 0xD500B1D8E8EF31E21C99D1DB9A6444D3ADF1270 PUSH1 0x24 DUP4 ADD MSTORE PUSH2 0x1F4 PUSH1 0x44 DUP4 ADD MSTORE PUSH1 0x20 DUP3 PUSH1 0x64 DUP2 PUSH1 0x1 PUSH1 0x1 PUSH1 0xA0 SHL SUB PUSH32 0x0 AND GAS STATICCALL SWAP2 DUP3 ISZERO PUSH2 0x656 JUMPI PUSH1 0x0 SWAP3 PUSH2 0x6CA JUMPI JUMPDEST POP PUSH1 0x1 PUSH1 0x1 PUSH1 0xA0 SHL SUB AND ISZERO SWAP1 DUP2 ISZERO SWAP2 PUSH2 0x6B7 JUMPI JUMPDEST POP PUSH2 0x588 DUP3 DUP8 PUSH2 0x394D JUMP JUMPDEST MLOAD ISZERO ISZERO DUP1 PUSH2 0x6B0 JUMPI JUMPDEST PUSH2 0x698 JUMPI JUMPDEST ISZERO PUSH2 0x5A6 JUMPI JUMPDEST PUSH1 0x1 SWAP2 POP ADD PUSH2 0x447 JUMP JUMPDEST PUSH1 0x40 MLOAD PUSH4 0x70A08231 PUSH1 0xE0 SHL DUP2 MSTORE ADDRESS PUSH1 0x4 DUP3 ADD MSTORE SWAP2 PUSH1 0x20 DUP4 PUSH1 0x24 DUP2 PUSH1 0x1 PUSH1 0x1 PUSH1 0xA0 SHL SUB DUP6 AND GAS STATICCALL SWAP3 DUP4 ISZERO PUSH2 0x656 JUMPI PUSH1 0x0 SWAP4 PUSH2 0x662 JUMPI JUMPDEST POP PUSH1 0x40 MLOAD PUSH4 0xA9059CBB PUSH1 0xE0 SHL DUP2 MSTORE CALLER PUSH1 0x4 DUP3 ADD MSTORE PUSH1 0x24 DUP2 ADD SWAP4 SWAP1 SWAP4 MSTORE PUSH1 0x20 SWAP1 DUP4 SWAP1 DUP2 PUSH1 0x0 PUSH1 0x1 PUSH1 0x1 PUSH1 0xA0 SHL SUB DUP3 PUSH1 0x44 DUP2 ADD JUMPDEST SUB SWAP4 AND GAS CALL SWAP2 DUP3 ISZERO PUSH2 0x656 JUMPI PUSH1 0x1 SWAP3 PUSH2 0x627 JUMPI JUMPDEST POP PUSH2 0x59C JUMP JUMPDEST PUSH2 0x648 SWAP1 PUSH1 0x20 RETURNDATASIZE PUSH1 0x20 GT PUSH2 0x64F JUMPI JUMPDEST PUSH2 0x640 DUP2 DUP4 PUSH2 0x376E JUMP JUMPDEST DUP2 ADD SWAP1 PUSH2 0x3970 JUMP JUMPDEST POP DUP6 PUSH2 0x621 JUMP JUMPDEST POP RETURNDATASIZE PUSH2 0x636 JUMP JUMPDEST PUSH1 0x40 MLOAD RETURNDATASIZE PUSH1 0x0 DUP3 RETURNDATACOPY RETURNDATASIZE SWAP1 REVERT JUMPDEST SWAP3 POP PUSH1 0x20 DUP4 RETURNDATASIZE PUSH1 0x20 GT PUSH2 0x690 JUMPI JUMPDEST DUP2 PUSH2 0x67D PUSH1 0x20 SWAP4 DUP4 PUSH2 0x376E JUMP JUMPDEST DUP2 ADD SUB SLT PUSH2 0x27B JUMPI SWAP2 MLOAD SWAP2 PUSH2 0x60D PUSH2 0x5DB JUMP JUMPDEST RETURNDATASIZE SWAP2 POP PUSH2 0x670 JUMP JUMPDEST PUSH2 0x6AA PUSH1 0x1 PUSH1 0x1 PUSH1 0xA0 SHL SUB DUP5 AND PUSH2 0x49C1 JUMP JUMPDEST POP PUSH2 0x596 JUMP JUMPDEST POP DUP1 PUSH2 0x591 JUMP JUMPDEST PUSH1 0x1 PUSH1 0x1 PUSH1 0xA0 SHL SUB SWAP2 POP AND ISZERO ISZERO DUP7 PUSH2 0x57D JUMP JUMPDEST PUSH1 0x1 PUSH1 0x1 PUSH1 0xA0 SHL SUB SWAP2 SWAP3 POP PUSH2 0x6F6 SWAP1 PUSH1 0x20 RETURNDATASIZE PUSH1 0x20 GT PUSH2 0x6FD JUMPI JUMPDEST PUSH2 0x6EE DUP2 DUP4 PUSH2 0x376E JUMP JUMPDEST DUP2 ADD SWAP1 PUSH2 0x3988 JUMP JUMPDEST SWAP2 SWAP1 PUSH2 0x569 JUMP JUMPDEST POP RETURNDATASIZE PUSH2 0x6E4 JUMP JUMPDEST PUSH2 0x71D SWAP2 POP PUSH1 0x20 RETURNDATASIZE PUSH1 0x20 GT PUSH2 0x6FD JUMPI PUSH2 0x6EE DUP2 DUP4 PUSH2 0x376E JUMP JUMPDEST DUP7 PUSH2 0x4E8 JUMP JUMPDEST PUSH8 0xFFFFFFFFFFFFFFFF DUP2 GT PUSH2 0x73B JUMPI PUSH1 0x40 MSTORE DUP4 PUSH2 0x443 JUMP JUMPDEST PUSH4 0x4E487B71 PUSH1 0xE0 SHL PUSH1 0x0 MSTORE PUSH1 0x41 PUSH1 0x4 MSTORE PUSH1 0x24 PUSH1 0x0 REVERT JUMPDEST SWAP2 DUP2 SWAP4 POP PUSH1 0x20 DUP1 SWAP2 PUSH1 0x1 PUSH1 0x1 PUSH1 0xA0 SHL SUB PUSH2 0x76C PUSH1 0x1 SWAP6 PUSH2 0x366D JUMP JUMPDEST AND DUP2 MSTORE ADD SWAP4 ADD SWAP2 ADD SWAP1 DUP5 SWAP3 SWAP2 PUSH2 0x424 JUMP JUMPDEST SWAP2 SWAP4 SWAP6 POP SWAP2 SWAP4 PUSH1 0x63 NOT DUP9 DUP3 SUB ADD DUP6 MSTORE DUP6 CALLDATALOAD PUSH1 0x5E NOT DUP4 CALLDATASIZE SUB ADD DUP2 SLT ISZERO PUSH2 0x27B JUMPI DUP3 ADD PUSH1 0x1 PUSH1 0x1 PUSH1 0xA0 SHL SUB PUSH2 0x7AF DUP3 PUSH2 0x366D JUMP JUMPDEST AND DUP3 MSTORE PUSH1 0x20 DUP2 ADD CALLDATALOAD PUSH1 0x20 DUP4 ADD MSTORE PUSH1 0x40 DUP2 ADD CALLDATALOAD PUSH1 0x1E NOT DUP3 CALLDATASIZE SUB ADD DUP2 SLT ISZERO PUSH2 0x27B JUMPI ADD SWAP1 PUSH1 0x20 DUP3 CALLDATALOAD SWAP3 ADD SWAP2 PUSH8 0xFFFFFFFFFFFFFFFF DUP2 GT PUSH2 0x27B JUMPI DUP1 CALLDATASIZE SUB DUP4 SGT PUSH2 0x27B JUMPI PUSH1 0x1 SWAP3 DUP3 PUSH1 0x20 SWAP4 SWAP3 PUSH1 0x60 PUSH1 0x40 DUP7 SWAP6 ADD MSTORE DUP1 PUSH1 0x60 DUP4 ADD MSTORE DUP1 PUSH1 0x80 SWAP4 DUP5 DUP5 ADD CALLDATACOPY PUSH1 0x0 DUP4 DUP3 DUP5 ADD ADD MSTORE PUSH1 0x1F DUP1 NOT SWAP2 ADD AND ADD ADD SWAP8 ADD SWAP6 ADD SWAP3 ADD DUP8 SWAP6 SWAP5 SWAP4 SWAP2 PUSH2 0x402 JUMP JUMPDEST DUP1 PUSH1 0x1 PUSH1 0x1 PUSH1 0xA0 SHL SUB PUSH2 0x848 PUSH2 0x463 PUSH1 0x1 SWAP5 DUP11 DUP11 PUSH2 0x3888 JUMP JUMPDEST AND PUSH1 0x0 MSTORE PUSH1 0x11 PUSH1 0x20 MSTORE PUSH1 0x40 PUSH1 0x0 KECCAK256 SLOAD ISZERO PUSH2 0x862 DUP3 DUP11 PUSH2 0x394D JUMP JUMPDEST MSTORE ADD PUSH2 0x3C2 JUMP JUMPDEST PUSH1 0x40 MLOAD PUSH2 0x834 DUP1 DUP3 ADD SWAP1 DUP3 DUP3 LT PUSH8 0xFFFFFFFFFFFFFFFF DUP4 GT OR PUSH2 0x73B JUMPI DUP3 SWAP2 PUSH2 0x8A0 SWAP2 PUSH2 0x4B27 DUP5 CODECOPY CALLER DUP2 MSTORE ADDRESS PUSH1 0x20 DUP3 ADD MSTORE PUSH1 0x40 ADD SWAP1 JUMP JUMPDEST SUB SWAP1 PUSH1 0x0 CREATE2 DUP1 ISZERO PUSH2 0x656 JUMPI PUSH1 0x1 PUSH1 0x1 PUSH1 0xA0 SHL SUB AND PUSH4 0xFFFFFFFF DUP2 EXTCODESIZE AND ISZERO PUSH2 0x925 JUMPI CALLER PUSH1 0x0 DUP2 DUP2 MSTORE PUSH1 0x12 PUSH1 0x20 SWAP1 DUP2 MSTORE PUSH1 0x40 SWAP2 DUP3 SWAP1 KECCAK256 DUP1 SLOAD PUSH1 0x1 PUSH1 0x1 PUSH1 0xA0 SHL SUB NOT AND DUP6 OR SWAP1 SSTORE DUP2 MLOAD SWAP3 DUP4 MSTORE PUSH1 0x1 PUSH1 0x1 PUSH1 0xA0 SHL SUB SWAP1 SWAP4 AND SWAP3 DUP3 ADD SWAP3 SWAP1 SWAP3 MSTORE PUSH32 0x8C6E353968E7FFD60DBA22FF7D2A4354AF301F9D41858A35668E7292EC1301B6 SWAP2 SWAP1 LOG1 DUP5 PUSH2 0x379 JUMP JUMPDEST PUSH1 0x40 MLOAD PUSH3 0x461BCD PUSH1 0xE5 SHL DUP2 MSTORE PUSH1 0x20 PUSH1 0x4 DUP3 ADD MSTORE PUSH1 0x25 PUSH1 0x24 DUP3 ADD MSTORE PUSH32 0x4167656E74206372656174696F6E206661696C65642C206E6F74206120636F6E PUSH1 0x44 DUP3 ADD MSTORE PUSH5 0x1D1C9858DD PUSH1 0xDA SHL PUSH1 0x64 DUP3 ADD MSTORE PUSH1 0x84 SWAP1 REVERT JUMPDEST CALLVALUE PUSH2 0x27B JUMPI PUSH1 0x40 CALLDATASIZE PUSH1 0x3 NOT ADD SLT PUSH2 0x27B JUMPI PUSH2 0x991 PUSH2 0x3641 JUMP JUMPDEST PUSH2 0x999 PUSH2 0x3657 JUMP JUMPDEST SWAP1 PUSH1 0x1 PUSH1 0x1 PUSH1 0xA0 SHL SUB DUP1 SWAP2 AND PUSH1 0x0 MSTORE PUSH1 0x2 PUSH1 0x20 MSTORE PUSH1 0x40 PUSH1 0x0 KECCAK256 SWAP2 AND PUSH1 0x0 MSTORE PUSH1 0x20 MSTORE PUSH1 0x20 PUSH1 0x40 PUSH1 0x0 KECCAK256 SLOAD PUSH1 0x40 MLOAD SWAP1 DUP2 MSTORE RETURN JUMPDEST CALLVALUE PUSH2 0x27B JUMPI PUSH1 0x20 DUP1 PUSH1 0x3 NOT CALLDATASIZE ADD SLT PUSH2 0x27B JUMPI PUSH1 0x4 CALLDATALOAD SWAP1 PUSH2 0x9E8 PUSH2 0x3CC1 JUMP JUMPDEST PUSH2 0x9F3 DUP3 ISZERO ISZERO PUSH2 0x3B42 JUMP JUMPDEST PUSH1 0x0 SWAP2 PUSH1 0x1 PUSH1 0x1 PUSH1 0xA0 SHL SUB DUP1 PUSH32 0x0 AND SWAP4 DUP2 PUSH32 0x0 AND SWAP1 JUMPDEST PUSH1 0x10 SLOAD DUP2 LT ISZERO PUSH2 0xC4F JUMPI DUP1 PUSH2 0xA5C DUP5 SWAP3 PUSH2 0x498A JUMP JUMPDEST SWAP3 SWAP1 SLOAD PUSH1 0x3 SWAP4 DUP5 SHL SHR AND SWAP2 SLOAD SWAP2 PUSH1 0x40 MLOAD PUSH4 0x70A08231 PUSH1 0xE0 SHL DUP2 MSTORE ADDRESS PUSH1 0x4 DUP3 ADD MSTORE PUSH1 0x24 SWAP4 DUP9 DUP3 DUP7 DUP2 DUP7 GAS STATICCALL SWAP2 DUP3 ISZERO PUSH2 0x656 JUMPI PUSH1 0x0 SWAP3 PUSH2 0xC20 JUMPI JUMPDEST POP DUP2 ISZERO PUSH2 0xC14 JUMPI ADDRESS DUP4 EQ PUSH2 0xC14 JUMPI PUSH1 0x40 MLOAD PUSH4 0x313CE567 PUSH1 0xE0 SHL DUP2 MSTORE SWAP2 DUP10 DUP4 PUSH1 0x4 DUP2 DUP8 GAS STATICCALL SWAP1 DUP2 ISZERO PUSH2 0x656 JUMPI PUSH1 0xFF DUP11 SWAP3 PUSH2 0xAD8 SWAP6 PUSH1 0x0 SWAP2 PUSH2 0xBE7 JUMPI JUMPDEST POP AND SWAP3 PUSH2 0x479B JUMP JUMPDEST SWAP1 PUSH1 0x0 DUP1 MLOAD PUSH1 0x20 PUSH2 0x535B DUP4 CODECOPY DUP2 MLOAD SWAP2 MSTORE DUP9 DUP2 DUP4 EQ PUSH2 0xB8A JUMPI POP PUSH1 0x40 MLOAD PUSH4 0xB4C7741 PUSH1 0xE1 SHL DUP2 MSTORE PUSH1 0x4 DUP2 ADD DUP4 SWAP1 MSTORE SWAP5 DUP6 ADD MSTORE PUSH2 0xBB8 PUSH1 0x44 DUP6 ADD MSTORE DUP8 DUP5 PUSH1 0x64 DUP2 DUP13 GAS STATICCALL SWAP4 DUP5 ISZERO PUSH2 0x656 JUMPI PUSH1 0x1 SWAP5 DUP8 SWAP2 PUSH1 0x0 SWAP2 PUSH2 0xB6D JUMPI JUMPDEST POP PUSH2 0xB39 DUP5 DUP9 DUP6 PUSH2 0x3E68 JUMP JUMPDEST AND ISZERO PUSH2 0xB52 JUMPI PUSH2 0xB4A SWAP2 CALLER SWAP2 PUSH2 0x3FC7 JUMP JUMPDEST POP JUMPDEST ADD PUSH2 0xA47 JUMP JUMPDEST PUSH2 0xB61 SWAP1 PUSH2 0xB68 SWAP3 CALLER SWAP2 PUSH2 0x4581 JUMP JUMPDEST ISZERO ISZERO PUSH2 0x39A7 JUMP JUMPDEST PUSH2 0xB4C JUMP JUMPDEST PUSH2 0xB84 SWAP2 POP DUP11 RETURNDATASIZE DUP13 GT PUSH2 0x6FD JUMPI PUSH2 0x6EE DUP2 DUP4 PUSH2 0x376E JUMP JUMPDEST DUP12 PUSH2 0xB2D JUMP JUMPDEST PUSH1 0x40 MLOAD PUSH4 0xA9059CBB PUSH1 0xE0 SHL DUP2 MSTORE CALLER PUSH1 0x4 DUP3 ADD MSTORE PUSH1 0x24 DUP2 ADD SWAP5 SWAP1 SWAP5 MSTORE SWAP3 SWAP5 POP DUP5 SWAP2 POP PUSH1 0x44 SWAP1 DUP3 SWAP1 PUSH1 0x0 SWAP1 GAS CALL SWAP2 DUP3 ISZERO PUSH2 0x656 JUMPI PUSH1 0x1 SWAP3 PUSH2 0xBCA JUMPI JUMPDEST POP PUSH2 0xB4C JUMP JUMPDEST PUSH2 0xBE0 SWAP1 DUP8 RETURNDATASIZE DUP10 GT PUSH2 0x64F JUMPI PUSH2 0x640 DUP2 DUP4 PUSH2 0x376E JUMP JUMPDEST POP DUP8 PUSH2 0xBC4 JUMP JUMPDEST PUSH2 0xC07 SWAP2 POP DUP14 DUP1 RETURNDATASIZE LT PUSH2 0xC0D JUMPI JUMPDEST PUSH2 0xBFF DUP2 DUP4 PUSH2 0x376E JUMP JUMPDEST DUP2 ADD SWAP1 PUSH2 0x3919 JUMP JUMPDEST DUP15 PUSH2 0xAD0 JUMP JUMPDEST POP RETURNDATASIZE PUSH2 0xBF5 JUMP JUMPDEST POP POP POP PUSH1 0x1 SWAP2 POP PUSH2 0xB4C JUMP JUMPDEST SWAP1 SWAP2 POP DUP9 DUP2 DUP2 RETURNDATASIZE DUP4 GT PUSH2 0xC48 JUMPI JUMPDEST PUSH2 0xC38 DUP2 DUP4 PUSH2 0x376E JUMP JUMPDEST DUP2 ADD SUB SLT PUSH2 0x27B JUMPI MLOAD SWAP1 DUP11 PUSH2 0xA95 JUMP JUMPDEST POP RETURNDATASIZE PUSH2 0xC2E JUMP JUMPDEST PUSH32 0xCC16F5DBB4873280815C1EE09DBD06736CFFCC184412CF7A71A0FDB75D397CA5 PUSH2 0xC96 DUP6 PUSH2 0xC7E DUP2 CALLER PUSH2 0x482F JUMP JUMPDEST PUSH1 0x40 DUP1 MLOAD CALLER DUP2 MSTORE PUSH1 0x20 DUP2 ADD SWAP3 SWAP1 SWAP3 MSTORE SWAP1 SWAP2 DUP3 SWAP2 DUP3 ADD SWAP1 JUMP JUMPDEST SUB SWAP1 LOG1 PUSH1 0x1 PUSH1 0x6 SSTORE STOP JUMPDEST CALLVALUE PUSH2 0x27B JUMPI PUSH1 0x20 CALLDATASIZE PUSH1 0x3 NOT ADD SLT PUSH2 0x27B JUMPI PUSH1 0x1 PUSH1 0x1 PUSH1 0xA0 SHL SUB PUSH2 0xCC1 PUSH2 0x3641 JUMP JUMPDEST AND PUSH1 0x0 MSTORE PUSH1 0x7 PUSH1 0x20 MSTORE PUSH1 0x20 PUSH1 0x40 PUSH1 0x0 KECCAK256 SLOAD PUSH1 0x40 MLOAD SWAP1 DUP2 MSTORE RETURN JUMPDEST CALLVALUE PUSH2 0x27B JUMPI PUSH1 0x0 CALLDATASIZE PUSH1 0x3 NOT ADD SLT PUSH2 0x27B JUMPI PUSH1 0x20 PUSH1 0xD SLOAD PUSH1 0x40 MLOAD SWAP1 DUP2 MSTORE RETURN JUMPDEST CALLVALUE PUSH2 0x27B JUMPI PUSH1 0x20 DUP1 PUSH1 0x3 NOT CALLDATASIZE ADD SLT PUSH2 0x27B JUMPI PUSH1 0x4 CALLDATALOAD DUP1 ISZERO PUSH2 0xDFB JUMPI PUSH1 0x9 SLOAD ISZERO PUSH2 0xDA6 JUMPI PUSH1 0x40 MLOAD PUSH4 0x23B872DD PUSH1 0xE0 SHL DUP2 MSTORE CALLER PUSH1 0x4 DUP3 ADD MSTORE ADDRESS PUSH1 0x24 DUP3 ADD MSTORE PUSH1 0x44 DUP2 ADD DUP3 SWAP1 MSTORE SWAP2 DUP1 DUP4 PUSH1 0x64 DUP2 PUSH1 0x0 PUSH32 0x0 PUSH1 0x1 PUSH1 0x1 PUSH1 0xA0 SHL SUB AND GAS CALL SWAP3 DUP4 ISZERO PUSH2 0x656 JUMPI PUSH2 0xD86 SWAP4 PUSH2 0xD88 JUMPI JUMPDEST POP POP PUSH2 0x48D3 JUMP JUMPDEST STOP JUMPDEST DUP2 PUSH2 0xD9E SWAP3 SWAP1 RETURNDATASIZE LT PUSH2 0x64F JUMPI PUSH2 0x640 DUP2 DUP4 PUSH2 0x376E JUMP JUMPDEST POP DUP3 DUP1 PUSH2 0xD7F JUMP JUMPDEST PUSH1 0x40 MLOAD PUSH3 0x461BCD PUSH1 0xE5 SHL DUP2 MSTORE PUSH1 0x4 DUP2 ADD DUP4 SWAP1 MSTORE PUSH1 0x27 PUSH1 0x24 DUP3 ADD MSTORE PUSH32 0x4E6F207374616B696E6720737570706C7920746F206469737472696275746520 PUSH1 0x44 DUP3 ADD MSTORE PUSH7 0x72657761726473 PUSH1 0xC8 SHL PUSH1 0x64 DUP3 ADD MSTORE PUSH1 0x84 SWAP1 REVERT JUMPDEST PUSH1 0x40 MLOAD PUSH3 0x461BCD PUSH1 0xE5 SHL DUP2 MSTORE PUSH1 0x4 DUP2 ADD DUP4 SWAP1 MSTORE PUSH1 0x17 PUSH1 0x24 DUP3 ADD MSTORE PUSH32 0x526577617264206D75737420626520706F736974697665000000000000000000 PUSH1 0x44 DUP3 ADD MSTORE PUSH1 0x64 SWAP1 REVERT JUMPDEST CALLVALUE PUSH2 0x27B JUMPI PUSH1 0x40 CALLDATASIZE PUSH1 0x3 NOT ADD SLT PUSH2 0x27B JUMPI PUSH2 0xE66 PUSH2 0xE5C PUSH2 0x3641 JUMP JUMPDEST PUSH1 0x24 CALLDATALOAD SWAP1 CALLER PUSH2 0x41EF JUMP JUMPDEST PUSH1 0x20 PUSH1 0x40 MLOAD PUSH1 0x1 DUP2 MSTORE RETURN JUMPDEST CALLVALUE PUSH2 0x27B JUMPI PUSH1 0x20 DUP1 PUSH1 0x3 NOT CALLDATASIZE ADD SLT PUSH2 0x27B JUMPI PUSH1 0x4 CALLDATALOAD SWAP1 PUSH2 0xE8F PUSH2 0x3CC1 JUMP JUMPDEST PUSH2 0xE98 CALLER PUSH2 0x46F9 JUMP JUMPDEST CALLER PUSH1 0x0 MSTORE PUSH1 0x7 DUP2 MSTORE PUSH1 0x40 PUSH1 0x0 KECCAK256 PUSH2 0xEB0 DUP4 DUP3 SLOAD PUSH2 0x38C2 JUMP JUMPDEST SWAP1 SSTORE PUSH2 0xEBE DUP3 PUSH1 0x9 SLOAD PUSH2 0x38C2 JUMP JUMPDEST PUSH1 0x9 SSTORE CALLER PUSH1 0x0 DUP2 DUP2 MSTORE PUSH1 0x8 DUP4 MSTORE PUSH1 0x40 SWAP1 DUP2 SWAP1 KECCAK256 TIMESTAMP SWAP1 SSTORE MLOAD PUSH4 0x23B872DD PUSH1 0xE0 SHL DUP2 MSTORE PUSH1 0x4 DUP2 ADD SWAP2 SWAP1 SWAP2 MSTORE ADDRESS PUSH1 0x24 DUP3 ADD MSTORE PUSH1 0x44 DUP2 ADD DUP4 SWAP1 MSTORE SWAP1 DUP1 DUP3 DUP1 PUSH1 0x64 DUP2 ADD SUB DUP2 PUSH1 0x0 PUSH1 0x1 PUSH1 0x1 PUSH1 0xA0 SHL SUB PUSH32 0x0 AND GAS CALL SWAP2 DUP3 ISZERO PUSH2 0x656 JUMPI PUSH32 0x9E71BC8EEA02A63969F509818F2DAFB9254532904319F9DBDA79B67BD34A5F3D SWAP3 PUSH2 0xF6B JUMPI JUMPDEST POP PUSH1 0x40 MLOAD SWAP3 DUP4 MSTORE CALLER SWAP3 LOG2 PUSH1 0x1 PUSH1 0x6 SSTORE STOP JUMPDEST PUSH2 0xF81 SWAP1 DUP3 RETURNDATASIZE DUP5 GT PUSH2 0x64F JUMPI PUSH2 0x640 DUP2 DUP4 PUSH2 0x376E JUMP JUMPDEST POP DUP4 PUSH2 0xF5A JUMP JUMPDEST CALLVALUE PUSH2 0x27B JUMPI PUSH1 0x0 CALLDATASIZE PUSH1 0x3 NOT ADD SLT PUSH2 0x27B JUMPI PUSH1 0x40 MLOAD PUSH1 0x0 PUSH1 0x5 SLOAD SWAP1 PUSH1 0x1 DUP3 PUSH1 0x1 SHR SWAP2 PUSH1 0x1 DUP5 AND SWAP2 DUP3 ISZERO PUSH2 0x1092 JUMPI JUMPDEST PUSH1 0x20 SWAP5 DUP6 DUP6 LT DUP5 EQ PUSH2 0x107C JUMPI DUP6 DUP8 SWAP5 DUP7 DUP7 MSTORE SWAP2 DUP3 PUSH1 0x0 EQ PUSH2 0x105C JUMPI POP POP PUSH1 0x1 EQ PUSH2 0xFFF JUMPI JUMPDEST POP PUSH2 0xFE7 SWAP3 POP SUB DUP4 PUSH2 0x376E JUMP JUMPDEST PUSH2 0xFFB PUSH1 0x40 MLOAD SWAP3 DUP3 DUP5 SWAP4 DUP5 MSTORE DUP4 ADD SWAP1 PUSH2 0x361C JUMP JUMPDEST SUB SWAP1 RETURN JUMPDEST DUP5 SWAP2 POP PUSH1 0x5 PUSH1 0x0 MSTORE PUSH32 0x36B6384B5ECA791C62761152D0C79BB0604C104A5FB6F4EB0703F3154BB3DB0 SWAP1 PUSH1 0x0 SWAP2 JUMPDEST DUP6 DUP4 LT PUSH2 0x1044 JUMPI POP POP PUSH2 0xFE7 SWAP4 POP DUP3 ADD ADD DUP6 PUSH2 0xFDA JUMP JUMPDEST DUP1 SLOAD DUP4 DUP10 ADD DUP6 ADD MSTORE DUP8 SWAP5 POP DUP7 SWAP4 SWAP1 SWAP3 ADD SWAP2 DUP2 ADD PUSH2 0x102D JUMP JUMPDEST PUSH1 0xFF NOT AND DUP6 DUP3 ADD MSTORE PUSH2 0xFE7 SWAP6 ISZERO ISZERO PUSH1 0x5 SHL DUP6 ADD ADD SWAP3 POP DUP8 SWAP2 POP PUSH2 0xFDA SWAP1 POP JUMP JUMPDEST PUSH4 0x4E487B71 PUSH1 0xE0 SHL PUSH1 0x0 MSTORE PUSH1 0x22 PUSH1 0x4 MSTORE PUSH1 0x24 PUSH1 0x0 REVERT JUMPDEST SWAP3 PUSH1 0x7F AND SWAP3 PUSH2 0xFB5 JUMP JUMPDEST CALLVALUE PUSH2 0x27B JUMPI PUSH1 0x0 CALLDATASIZE PUSH1 0x3 NOT ADD SLT PUSH2 0x27B JUMPI PUSH1 0x20 PUSH1 0x1 PUSH1 0x1 PUSH1 0xA0 SHL SUB PUSH1 0x0 SLOAD AND PUSH1 0x40 MLOAD SWAP1 DUP2 MSTORE RETURN JUMPDEST CALLVALUE PUSH2 0x27B JUMPI PUSH1 0x0 CALLDATASIZE PUSH1 0x3 NOT ADD SLT PUSH2 0x27B JUMPI PUSH1 0x20 PUSH1 0x40 MLOAD PUSH1 0x1 PUSH1 0x1 PUSH1 0xA0 SHL SUB PUSH32 0x0 AND DUP2 MSTORE RETURN JUMPDEST CALLVALUE PUSH2 0x27B JUMPI PUSH1 0x20 CALLDATASIZE PUSH1 0x3 NOT ADD SLT PUSH2 0x27B JUMPI PUSH1 0x20 PUSH2 0x114B PUSH2 0x1125 PUSH2 0x3641 JUMP JUMPDEST PUSH1 0x1 PUSH1 0x1 PUSH1 0xA0 SHL SUB DUP2 AND PUSH1 0x0 MSTORE PUSH1 0xC DUP4 MSTORE PUSH2 0x1145 PUSH1 0x40 PUSH1 0x0 KECCAK256 SLOAD SWAP2 PUSH2 0x4914 JUMP JUMPDEST SWAP1 PUSH2 0x38C2 JUMP JUMPDEST PUSH1 0x40 MLOAD SWAP1 DUP2 MSTORE RETURN JUMPDEST CALLVALUE PUSH2 0x27B JUMPI PUSH1 0x0 CALLDATASIZE PUSH1 0x3 NOT ADD SLT PUSH2 0x27B JUMPI PUSH1 0x20 PUSH1 0x40 MLOAD PUSH1 0x0 DUP1 MLOAD PUSH1 0x20 PUSH2 0x535B DUP4 CODECOPY DUP2 MLOAD SWAP2 MSTORE DUP2 MSTORE RETURN JUMPDEST CALLVALUE PUSH2 0x27B JUMPI PUSH1 0x0 CALLDATASIZE PUSH1 0x3 NOT ADD SLT PUSH2 0x27B JUMPI PUSH1 0x20 PUSH1 0xE SLOAD PUSH1 0x40 MLOAD SWAP1 DUP2 MSTORE RETURN JUMPDEST CALLVALUE PUSH2 0x27B JUMPI PUSH1 0x20 CALLDATASIZE PUSH1 0x3 NOT ADD SLT PUSH2 0x27B JUMPI PUSH1 0x1 PUSH1 0x1 PUSH1 0xA0 SHL SUB PUSH2 0x11BB PUSH2 0x3641 JUMP JUMPDEST AND PUSH1 0x0 MSTORE PUSH1 0x13 PUSH1 0x20 MSTORE PUSH1 0x20 PUSH1 0x40 PUSH1 0x0 KECCAK256 SLOAD PUSH1 0x40 MLOAD SWAP1 DUP2 MSTORE RETURN JUMPDEST CALLVALUE PUSH2 0x27B JUMPI PUSH1 0x0 CALLDATASIZE PUSH1 0x3 NOT ADD SLT PUSH2 0x27B JUMPI PUSH1 0x20 PUSH1 0x40 MLOAD PUSH1 0x1 PUSH1 0x1 PUSH1 0xA0 SHL SUB PUSH32 0x0 AND DUP2 MSTORE RETURN JUMPDEST CALLVALUE PUSH2 0x27B JUMPI PUSH1 0x20 DUP1 PUSH1 0x3 NOT CALLDATASIZE ADD SLT PUSH2 0x27B JUMPI PUSH1 0x4 CALLDATALOAD PUSH2 0x1235 PUSH2 0x3CC1 JUMP JUMPDEST PUSH2 0x124F PUSH2 0x1254 PUSH2 0x1243 PUSH2 0x42CF JUMP JUMPDEST PUSH1 0x3 SLOAD SWAP3 DUP4 SWAP2 DUP6 PUSH2 0x37A8 JUMP JUMPDEST PUSH2 0x3868 JUMP JUMPDEST PUSH1 0x40 MLOAD PUSH4 0x70A08231 PUSH1 0xE0 SHL DUP2 MSTORE CALLER PUSH1 0x4 DUP3 ADD MSTORE PUSH1 0x0 DUP1 MLOAD PUSH1 0x20 PUSH2 0x535B DUP4 CODECOPY DUP2 MLOAD SWAP2 MSTORE SWAP3 SWAP2 DUP6 DUP3 PUSH1 0x24 DUP2 DUP8 GAS STATICCALL SWAP2 DUP3 ISZERO PUSH2 0x656 JUMPI PUSH1 0x0 SWAP3 PUSH2 0x14CD JUMPI JUMPDEST POP PUSH2 0x12A2 PUSH5 0xE8D4A51000 SWAP3 SWAP4 ISZERO ISZERO PUSH2 0x3B81 JUMP JUMPDEST DIV DUP1 SWAP2 LT PUSH2 0x1488 JUMPI PUSH1 0x40 MLOAD PUSH4 0x6EB1769F PUSH1 0xE1 SHL DUP2 MSTORE CALLER PUSH1 0x4 DUP3 ADD MSTORE ADDRESS PUSH1 0x24 DUP3 ADD MSTORE DUP5 DUP2 PUSH1 0x44 DUP2 DUP7 GAS STATICCALL DUP1 ISZERO PUSH2 0x656 JUMPI DUP3 SWAP1 PUSH1 0x0 SWAP1 PUSH2 0x1457 JUMPI JUMPDEST PUSH2 0x12E7 SWAP3 POP LT ISZERO PUSH2 0x3BFD JUMP JUMPDEST PUSH1 0x40 MLOAD PUSH4 0x23B872DD PUSH1 0xE0 SHL DUP6 DUP3 ADD SWAP1 DUP2 MSTORE CALLER PUSH1 0x24 DUP4 ADD MSTORE ADDRESS PUSH1 0x44 DUP4 ADD MSTORE PUSH1 0x64 DUP1 DUP4 ADD SWAP4 SWAP1 SWAP4 MSTORE SWAP2 DUP2 MSTORE PUSH1 0x1F NOT SWAP2 PUSH1 0x0 SWAP2 DUP3 SWAP2 SWAP1 PUSH2 0x1325 PUSH1 0x84 DUP3 PUSH2 0x376E JUMP JUMPDEST MLOAD SWAP1 DUP3 DUP7 GAS CALL SWAP1 RETURNDATASIZE ISZERO PUSH2 0x144A JUMPI RETURNDATASIZE SWAP2 PUSH8 0xFFFFFFFFFFFFFFFF DUP4 GT PUSH2 0x73B JUMPI PUSH2 0x1369 SWAP3 PUSH2 0x135B DUP8 PUSH1 0x40 MLOAD SWAP5 PUSH1 0x1F DUP5 ADD AND ADD DUP5 PUSH2 0x376E JUMP JUMPDEST DUP3 MSTORE RETURNDATASIZE PUSH1 0x0 DUP8 DUP5 ADD RETURNDATACOPY PUSH2 0x4A5E JUMP JUMPDEST DUP1 MLOAD SWAP1 DUP5 DUP3 ISZERO ISZERO SWAP3 DUP4 PUSH2 0x1431 JUMPI JUMPDEST POP POP POP PUSH2 0x1419 JUMPI POP PUSH2 0x13A4 PUSH2 0x139D PUSH1 0xE SLOAD PUSH2 0x124F PUSH2 0x1397 PUSH1 0xD SLOAD DUP4 PUSH2 0x3932 JUMP JUMPDEST DUP6 PUSH2 0x37A8 JUMP JUMPDEST DUP1 SWAP3 PUSH2 0x3932 JUMP JUMPDEST SWAP1 PUSH2 0x13AF DUP3 ADDRESS PUSH2 0x473C JUMP JUMPDEST PUSH1 0x40 DUP1 MLOAD ADDRESS DUP2 MSTORE PUSH1 0x20 DUP2 ADD DUP5 SWAP1 MSTORE PUSH32 0xF6798A560793A54C3BCFE86A93CDE1E73087D944C0EA20544137D4121396885 SWAP3 PUSH2 0x13FB SWAP3 SWAP1 SWAP2 DUP5 SWAP2 SWAP1 LOG1 PUSH1 0x9 SLOAD PUSH2 0x140B JUMPI JUMPDEST PUSH2 0xC7E DUP2 CALLER PUSH2 0x473C JUMP JUMPDEST SUB SWAP1 LOG1 PUSH1 0x1 PUSH1 0x6 SSTORE PUSH1 0x40 MLOAD SWAP1 DUP2 MSTORE RETURN JUMPDEST PUSH2 0x1414 DUP5 PUSH2 0x48D3 JUMP JUMPDEST PUSH2 0x13F1 JUMP JUMPDEST PUSH1 0x24 SWAP1 PUSH1 0x40 MLOAD SWAP1 PUSH4 0x5274AFE7 PUSH1 0xE0 SHL DUP3 MSTORE PUSH1 0x4 DUP3 ADD MSTORE REVERT JUMPDEST PUSH2 0x1441 SWAP4 POP DUP3 ADD DUP2 ADD SWAP2 ADD PUSH2 0x3970 JUMP JUMPDEST ISZERO DUP5 DUP5 DUP2 PUSH2 0x1377 JUMP JUMPDEST POP PUSH2 0x1369 SWAP1 PUSH1 0x60 SWAP1 PUSH2 0x4A5E JUMP JUMPDEST POP POP DUP5 DUP2 DUP2 RETURNDATASIZE DUP4 GT PUSH2 0x1481 JUMPI JUMPDEST PUSH2 0x146E DUP2 DUP4 PUSH2 0x376E JUMP JUMPDEST DUP2 ADD SUB SLT PUSH2 0x27B JUMPI DUP2 PUSH2 0x12E7 SWAP2 MLOAD PUSH2 0x12DB JUMP JUMPDEST POP RETURNDATASIZE PUSH2 0x1464 JUMP JUMPDEST PUSH1 0x40 MLOAD PUSH3 0x461BCD PUSH1 0xE5 SHL DUP2 MSTORE PUSH1 0x4 DUP2 ADD DUP6 SWAP1 MSTORE PUSH1 0x1C PUSH1 0x24 DUP3 ADD MSTORE PUSH32 0x555344432062616C616E636520697320696E73756666696369656E7400000000 PUSH1 0x44 DUP3 ADD MSTORE PUSH1 0x64 SWAP1 REVERT JUMPDEST SWAP2 POP DUP6 DUP3 DUP2 RETURNDATASIZE DUP4 GT PUSH2 0x14F7 JUMPI JUMPDEST PUSH2 0x14E4 DUP2 DUP4 PUSH2 0x376E JUMP JUMPDEST DUP2 ADD SUB SLT PUSH2 0x27B JUMPI SWAP1 MLOAD SWAP1 PUSH2 0x12A2 PUSH2 0x128F JUMP JUMPDEST POP RETURNDATASIZE PUSH2 0x14DA JUMP JUMPDEST CALLVALUE PUSH2 0x27B JUMPI PUSH1 0x20 CALLDATASIZE PUSH1 0x3 NOT ADD SLT PUSH2 0x27B JUMPI PUSH32 0x120DE5C966483867382DCE1EB95F0D016A917F91B2188B2F4C1413333A9FFB0F PUSH1 0x20 PUSH1 0x4 CALLDATALOAD PUSH2 0x153D PUSH2 0x3C95 JUMP JUMPDEST DUP1 PUSH1 0xF SSTORE PUSH1 0x40 MLOAD SWAP1 DUP2 MSTORE LOG1 STOP JUMPDEST CALLVALUE PUSH2 0x27B JUMPI PUSH1 0x20 CALLDATASIZE PUSH1 0x3 NOT ADD SLT PUSH2 0x27B JUMPI PUSH1 0x20 PUSH1 0x1 PUSH1 0x1 PUSH1 0xA0 SHL SUB DUP1 PUSH2 0x156E PUSH2 0x3641 JUMP JUMPDEST AND PUSH1 0x0 MSTORE PUSH1 0x12 DUP3 MSTORE PUSH1 0x40 PUSH1 0x0 KECCAK256 SLOAD AND PUSH1 0x40 MLOAD SWAP1 DUP2 MSTORE RETURN JUMPDEST CALLVALUE PUSH2 0x27B JUMPI PUSH1 0x0 CALLDATASIZE PUSH1 0x3 NOT ADD SLT PUSH2 0x27B JUMPI PUSH1 0x20 PUSH1 0x40 MLOAD PUSH1 0x1 PUSH1 0x1 PUSH1 0xA0 SHL SUB PUSH32 0x0 AND DUP2 MSTORE RETURN JUMPDEST CALLVALUE PUSH2 0x27B JUMPI PUSH1 0x0 CALLDATASIZE PUSH1 0x3 NOT ADD SLT PUSH2 0x27B JUMPI PUSH1 0x20 PUSH1 0x40 MLOAD PUSH1 0x1 PUSH1 0x1 PUSH1 0xA0 SHL SUB PUSH32 0x0 AND DUP2 MSTORE RETURN JUMPDEST CALLVALUE PUSH2 0x27B JUMPI PUSH1 0x20 CALLDATASIZE PUSH1 0x3 NOT ADD SLT PUSH2 0x27B JUMPI PUSH1 0x20 PUSH2 0x114B PUSH1 0x3 SLOAD PUSH2 0x1631 DUP2 ISZERO ISZERO PUSH2 0x3C49 JUMP JUMPDEST PUSH2 0x124F PUSH2 0x163C PUSH2 0x42CF JUMP JUMPDEST PUSH1 0x4 CALLDATALOAD PUSH2 0x37A8 JUMP JUMPDEST CALLVALUE PUSH2 0x27B JUMPI PUSH1 0x0 CALLDATASIZE PUSH1 0x3 NOT ADD SLT PUSH2 0x27B JUMPI PUSH2 0x165D PUSH2 0x3C95 JUMP JUMPDEST PUSH1 0x0 DUP1 SLOAD PUSH1 0x1 PUSH1 0x1 PUSH1 0xA0 SHL SUB NOT DUP2 AND DUP3 SSTORE PUSH1 0x1 PUSH1 0x1 PUSH1 0xA0 SHL SUB AND PUSH32 0x8BE0079C531659141344CD1FD0A4F28419497F9722A3DAAFE3B4186F6B6457E0 DUP3 DUP1 LOG3 STOP JUMPDEST CALLVALUE PUSH2 0x27B JUMPI PUSH1 0x20 CALLDATASIZE PUSH1 0x3 NOT ADD SLT PUSH2 0x27B JUMPI PUSH1 0x1 PUSH1 0x1 PUSH1 0xA0 SHL SUB PUSH2 0x16BE PUSH2 0x3641 JUMP JUMPDEST AND PUSH1 0x0 MSTORE PUSH1 0x1 PUSH1 0x20 MSTORE PUSH1 0x20 PUSH1 0x40 PUSH1 0x0 KECCAK256 SLOAD PUSH1 0x40 MLOAD SWAP1 DUP2 MSTORE RETURN JUMPDEST CALLVALUE PUSH2 0x27B JUMPI PUSH1 0x20 CALLDATASIZE PUSH1 0x3 NOT ADD SLT PUSH2 0x27B JUMPI PUSH1 0x1 PUSH1 0x1 PUSH1 0xA0 SHL SUB PUSH2 0x16F8 PUSH2 0x3641 JUMP JUMPDEST AND PUSH1 0x0 MSTORE PUSH1 0x8 PUSH1 0x20 MSTORE PUSH1 0x20 PUSH1 0x40 PUSH1 0x0 KECCAK256 SLOAD PUSH1 0x40 MLOAD SWAP1 DUP2 MSTORE RETURN JUMPDEST CALLVALUE PUSH2 0x27B JUMPI PUSH1 0x0 CALLDATASIZE PUSH1 0x3 NOT ADD SLT PUSH2 0x27B JUMPI PUSH1 0x20 PUSH1 0xF SLOAD PUSH1 0x40 MLOAD SWAP1 DUP2 MSTORE RETURN JUMPDEST CALLVALUE PUSH2 0x27B JUMPI PUSH1 0x0 CALLDATASIZE PUSH1 0x3 NOT ADD SLT PUSH2 0x27B JUMPI PUSH1 0x40 MLOAD DUP1 PUSH1 0x10 SLOAD DUP1 DUP4 MSTORE PUSH1 0x20 DUP1 SWAP4 ADD DUP1 SWAP2 PUSH1 0x10 PUSH1 0x0 MSTORE PUSH32 0x1B6847DC741A1B0CD08D278845F9D819D87B734759AFB55FE2DE5CB82A9AE672 SWAP1 PUSH1 0x0 JUMPDEST DUP7 DUP3 DUP3 LT PUSH2 0x17DA JUMPI DUP7 DUP7 PUSH2 0x1791 DUP3 DUP9 SUB DUP4 PUSH2 0x376E JUMP JUMPDEST PUSH1 0x40 MLOAD SWAP3 DUP4 SWAP3 DUP2 DUP5 ADD SWAP1 DUP3 DUP6 MSTORE MLOAD DUP1 SWAP2 MSTORE PUSH1 0x40 DUP5 ADD SWAP3 SWAP2 PUSH1 0x0 JUMPDEST DUP3 DUP2 LT PUSH2 0x17BA JUMPI POP POP POP POP SUB SWAP1 RETURN JUMPDEST DUP4 MLOAD PUSH1 0x1 PUSH1 0x1 PUSH1 0xA0 SHL SUB AND DUP6 MSTORE DUP7 SWAP6 POP SWAP4 DUP2 ADD SWAP4 SWAP3 DUP2 ADD SWAP3 PUSH1 0x1 ADD PUSH2 0x17AB JUMP JUMPDEST DUP4 SLOAD DUP6 MSTORE SWAP1 SWAP4 ADD SWAP3 PUSH1 0x1 SWAP3 DUP4 ADD SWAP3 ADD PUSH2 0x177B JUMP JUMPDEST CALLVALUE PUSH2 0x27B JUMPI PUSH1 0x40 CALLDATASIZE PUSH1 0x3 NOT ADD SLT PUSH2 0x27B JUMPI PUSH1 0x4 CALLDATALOAD PUSH2 0x180A PUSH2 0x3657 JUMP JUMPDEST SWAP1 PUSH2 0x1813 PUSH2 0x3CC1 JUMP JUMPDEST PUSH2 0x1836 PUSH2 0x181E PUSH2 0x42CF JUMP JUMPDEST PUSH2 0x124F PUSH1 0x3 SLOAD SWAP2 PUSH2 0x1830 DUP4 ISZERO ISZERO PUSH2 0x3B81 JUMP JUMPDEST DUP5 PUSH2 0x37A8 JUMP JUMPDEST PUSH1 0x40 MLOAD PUSH4 0x313CE567 PUSH1 0xE0 SHL DUP1 DUP3 MSTORE PUSH1 0x20 SWAP5 SWAP3 SWAP2 PUSH1 0x0 DUP1 MLOAD PUSH1 0x20 PUSH2 0x535B DUP4 CODECOPY DUP2 MLOAD SWAP2 MSTORE SWAP2 SWAP1 DUP7 DUP2 PUSH1 0x4 DUP2 DUP7 GAS STATICCALL SWAP1 DUP2 ISZERO PUSH2 0x656 JUMPI PUSH1 0x0 SWAP2 PUSH2 0x1C99 JUMPI JUMPDEST POP PUSH1 0x1 PUSH1 0x1 PUSH1 0xA0 SHL SUB DUP1 SWAP6 AND SWAP4 PUSH1 0x40 MLOAD SWAP3 DUP4 MSTORE DUP8 DUP4 PUSH1 0x4 DUP2 DUP9 GAS STATICCALL SWAP3 DUP4 ISZERO PUSH2 0x656 JUMPI PUSH1 0x0 SWAP4 PUSH2 0x1C7A JUMPI JUMPDEST POP PUSH1 0x40 MLOAD SWAP4 PUSH4 0x802431FB PUSH1 0xE0 SHL DUP6 MSTORE PUSH1 0x4 DUP6 ADD MSTORE DUP8 DUP5 PUSH1 0x64 DUP2 PUSH1 0x24 SWAP10 DUP10 DUP12 DUP4 ADD MSTORE PUSH1 0x0 PUSH1 0x44 DUP4 ADD MSTORE PUSH32 0x0 AND GAS STATICCALL SWAP4 DUP5 ISZERO PUSH2 0x656 JUMPI PUSH1 0x0 SWAP5 PUSH2 0x1C4B JUMPI JUMPDEST POP PUSH1 0xFF DUP3 AND PUSH1 0xFF DUP5 AND GT PUSH1 0x0 EQ PUSH2 0x1BFF JUMPI PUSH2 0x1922 DUP4 SWAP5 PUSH2 0x1922 PUSH2 0x191D DUP6 PUSH2 0x1928 SWAP7 SWAP8 PUSH2 0x3BD8 JUMP JUMPDEST PUSH2 0x3BEC JUMP JUMPDEST SWAP1 PUSH2 0x3868 JUMP JUMPDEST SWAP2 PUSH8 0xDE0B6B3A7640000 SWAP3 DUP4 DUP2 MUL SWAP4 DUP2 DUP6 DIV EQ SWAP1 ISZERO OR ISZERO PUSH2 0x1BEA JUMPI PUSH2 0x191D PUSH2 0x1954 SWAP4 SWAP3 PUSH2 0x1922 SWAP3 PUSH2 0x3BD8 JUMP JUMPDEST PUSH1 0x40 MLOAD PUSH4 0x70A08231 PUSH1 0xE0 SHL DUP2 MSTORE CALLER PUSH1 0x4 DUP3 ADD MSTORE DUP6 DUP2 DUP6 DUP2 DUP7 GAS STATICCALL DUP1 ISZERO PUSH2 0x656 JUMPI DUP3 SWAP2 PUSH1 0x0 SWAP2 PUSH2 0x1BB9 JUMPI JUMPDEST POP LT PUSH2 0x1B75 JUMPI PUSH1 0x40 MLOAD PUSH4 0x6EB1769F PUSH1 0xE1 SHL DUP2 MSTORE CALLER PUSH1 0x4 DUP3 ADD MSTORE ADDRESS PUSH1 0x24 DUP3 ADD MSTORE DUP6 DUP2 PUSH1 0x44 DUP2 DUP7 GAS STATICCALL DUP1 ISZERO PUSH2 0x656 JUMPI DUP3 SWAP1 PUSH1 0x0 SWAP1 PUSH2 0x1B44 JUMPI JUMPDEST PUSH2 0x19C1 SWAP3 POP LT ISZERO PUSH2 0x3BFD JUMP JUMPDEST PUSH1 0x40 DUP1 MLOAD PUSH4 0x23B872DD PUSH1 0xE0 SHL DUP8 DUP3 ADD SWAP1 DUP2 MSTORE CALLER DUP7 DUP4 ADD SWAP1 DUP2 MSTORE ADDRESS PUSH1 0x20 DUP3 ADD MSTORE DUP1 DUP5 ADD SWAP5 SWAP1 SWAP5 MSTORE SWAP3 DUP2 SWAP1 SUB SWAP2 DUP3 ADD DUP2 MSTORE PUSH1 0x1F NOT SWAP3 PUSH1 0x0 SWAP3 DUP4 SWAP3 SWAP1 PUSH2 0x1A07 SWAP1 PUSH1 0x60 ADD DUP3 PUSH2 0x376E JUMP JUMPDEST MLOAD SWAP1 DUP3 DUP7 GAS CALL RETURNDATASIZE ISZERO PUSH2 0x1B37 JUMPI RETURNDATASIZE PUSH8 0xFFFFFFFFFFFFFFFF DUP2 GT PUSH2 0x1B22 JUMPI SWAP1 PUSH2 0x1A4D SWAP3 SWAP2 PUSH2 0x1A3D DUP9 PUSH1 0x40 MLOAD SWAP5 PUSH1 0x1F DUP5 ADD AND ADD DUP5 PUSH2 0x376E JUMP JUMPDEST DUP3 MSTORE RETURNDATASIZE PUSH1 0x0 DUP9 DUP5 ADD RETURNDATACOPY JUMPDEST DUP4 PUSH2 0x4AD5 JUMP JUMPDEST DUP1 MLOAD SWAP1 DUP6 DUP3 ISZERO ISZERO SWAP3 DUP4 PUSH2 0x1B09 JUMPI JUMPDEST POP POP POP PUSH2 0x1AF4 JUMPI POP POP PUSH2 0x1A7C PUSH2 0x139D PUSH1 0xE SLOAD PUSH2 0x124F PUSH2 0x1397 PUSH1 0xD SLOAD DUP4 PUSH2 0x3932 JUMP JUMPDEST PUSH2 0x1A86 DUP2 ADDRESS PUSH2 0x473C JUMP JUMPDEST PUSH1 0x40 DUP1 MLOAD ADDRESS DUP2 MSTORE PUSH1 0x20 DUP2 ADD DUP4 SWAP1 MSTORE PUSH32 0xF6798A560793A54C3BCFE86A93CDE1E73087D944C0EA20544137D4121396885 SWAP3 SWAP2 DUP4 SWAP2 LOG1 PUSH1 0x9 SLOAD PUSH2 0x1AE5 JUMPI JUMPDEST POP PUSH2 0x1ACD DUP3 CALLER PUSH2 0x473C JUMP JUMPDEST PUSH1 0x40 DUP1 MLOAD CALLER DUP2 MSTORE PUSH1 0x20 DUP2 ADD DUP5 SWAP1 MSTORE SWAP1 DUP2 SWAP1 DUP2 ADD PUSH2 0x13FB JUMP JUMPDEST PUSH2 0x1AEE SWAP1 PUSH2 0x48D3 JUMP JUMPDEST DUP4 PUSH2 0x1AC2 JUMP JUMPDEST PUSH1 0x40 MLOAD SWAP1 PUSH4 0x5274AFE7 PUSH1 0xE0 SHL DUP3 MSTORE PUSH1 0x4 DUP3 ADD MSTORE REVERT JUMPDEST PUSH2 0x1B19 SWAP4 POP DUP3 ADD DUP2 ADD SWAP2 ADD PUSH2 0x3970 JUMP JUMPDEST ISZERO DUP6 DUP6 DUP2 PUSH2 0x1A5B JUMP JUMPDEST DUP5 PUSH4 0x4E487B71 PUSH1 0xE0 SHL PUSH1 0x0 MSTORE PUSH1 0x41 PUSH1 0x4 MSTORE PUSH1 0x0 REVERT JUMPDEST PUSH2 0x1A4D SWAP2 POP PUSH1 0x60 SWAP1 PUSH2 0x1A47 JUMP JUMPDEST POP POP DUP6 DUP2 DUP2 RETURNDATASIZE DUP4 GT PUSH2 0x1B6E JUMPI JUMPDEST PUSH2 0x1B5B DUP2 DUP4 PUSH2 0x376E JUMP JUMPDEST DUP2 ADD SUB SLT PUSH2 0x27B JUMPI DUP2 PUSH2 0x19C1 SWAP2 MLOAD PUSH2 0x19B5 JUMP JUMPDEST POP RETURNDATASIZE PUSH2 0x1B51 JUMP JUMPDEST PUSH1 0x40 MLOAD PUSH3 0x461BCD PUSH1 0xE5 SHL DUP2 MSTORE PUSH1 0x4 DUP2 ADD DUP7 SWAP1 MSTORE PUSH1 0x17 DUP2 DUP6 ADD MSTORE PUSH32 0x42616C616E636520697320696E73756666696369656E74000000000000000000 PUSH1 0x44 DUP3 ADD MSTORE PUSH1 0x64 SWAP1 REVERT JUMPDEST DUP1 SWAP3 POP DUP8 DUP1 SWAP3 POP RETURNDATASIZE DUP4 GT PUSH2 0x1BE3 JUMPI JUMPDEST PUSH2 0x1BD2 DUP2 DUP4 PUSH2 0x376E JUMP JUMPDEST DUP2 ADD SUB SLT PUSH2 0x27B JUMPI DUP2 SWAP1 MLOAD DUP8 PUSH2 0x197E JUMP JUMPDEST POP RETURNDATASIZE PUSH2 0x1BC8 JUMP JUMPDEST DUP5 PUSH4 0x4E487B71 PUSH1 0xE0 SHL PUSH1 0x0 MSTORE PUSH1 0x11 PUSH1 0x4 MSTORE PUSH1 0x0 REVERT JUMPDEST PUSH2 0x1922 DUP3 SWAP5 PUSH2 0x1C14 PUSH2 0x191D DUP7 PUSH2 0x1C1A SWAP7 PUSH2 0x3BD8 JUMP JUMPDEST SWAP1 PUSH2 0x37A8 JUMP JUMPDEST SWAP2 PUSH8 0xDE0B6B3A7640000 SWAP3 DUP4 DUP2 MUL SWAP4 DUP2 DUP6 DIV EQ SWAP1 ISZERO OR ISZERO PUSH2 0x1BEA JUMPI PUSH2 0x191D PUSH2 0x1C46 SWAP4 SWAP3 PUSH2 0x1922 SWAP3 PUSH2 0x3BD8 JUMP JUMPDEST PUSH2 0x1954 JUMP JUMPDEST SWAP1 SWAP4 POP DUP8 DUP2 DUP2 RETURNDATASIZE DUP4 GT PUSH2 0x1C73 JUMPI JUMPDEST PUSH2 0x1C63 DUP2 DUP4 PUSH2 0x376E JUMP JUMPDEST DUP2 ADD SUB SLT PUSH2 0x27B JUMPI MLOAD SWAP3 DUP9 PUSH2 0x18F6 JUMP JUMPDEST POP RETURNDATASIZE PUSH2 0x1C59 JUMP JUMPDEST PUSH2 0x1C92 SWAP2 SWAP4 POP DUP9 RETURNDATASIZE DUP11 GT PUSH2 0xC0D JUMPI PUSH2 0xBFF DUP2 DUP4 PUSH2 0x376E JUMP JUMPDEST SWAP2 DUP9 PUSH2 0x189B JUMP JUMPDEST PUSH2 0x1CB0 SWAP2 POP DUP8 RETURNDATASIZE DUP10 GT PUSH2 0xC0D JUMPI PUSH2 0xBFF DUP2 DUP4 PUSH2 0x376E JUMP JUMPDEST DUP8 PUSH2 0x1871 JUMP JUMPDEST CALLVALUE PUSH2 0x27B JUMPI PUSH1 0x0 CALLDATASIZE PUSH1 0x3 NOT ADD SLT PUSH2 0x27B JUMPI PUSH2 0x1CCF PUSH2 0x3CC1 JUMP JUMPDEST PUSH2 0x1CD8 CALLER PUSH2 0x46F9 JUMP JUMPDEST CALLER PUSH1 0x0 MSTORE PUSH1 0x20 PUSH1 0xC DUP2 MSTORE PUSH1 0x40 PUSH1 0x0 KECCAK256 SLOAD PUSH2 0x1CF3 DUP2 ISZERO ISZERO PUSH2 0x3AF6 JUMP JUMPDEST CALLER PUSH1 0x0 DUP2 DUP2 MSTORE PUSH1 0xC DUP5 MSTORE PUSH1 0x40 DUP1 DUP3 KECCAK256 DUP3 SWAP1 SSTORE MLOAD PUSH4 0xA9059CBB PUSH1 0xE0 SHL DUP2 MSTORE PUSH1 0x4 DUP2 ADD SWAP3 SWAP1 SWAP3 MSTORE PUSH1 0x24 DUP3 ADD DUP4 SWAP1 MSTORE DUP4 SWAP1 DUP3 SWAP1 PUSH1 0x44 SWAP1 DUP3 SWAP1 PUSH32 0x0 PUSH1 0x1 PUSH1 0x1 PUSH1 0xA0 SHL SUB AND GAS CALL DUP1 ISZERO PUSH2 0x656 JUMPI PUSH2 0x1D98 JUMPI JUMPDEST POP PUSH1 0x40 MLOAD DUP2 DUP2 MSTORE PUSH32 0x106F923F993C2149D49B4255FF723ACAFA1F2D94393F561D3EDA32AE348F7241 DUP4 CALLER SWAP3 LOG2 PUSH1 0x1 PUSH1 0x6 SSTORE PUSH1 0x40 MLOAD SWAP1 DUP2 MSTORE RETURN JUMPDEST PUSH2 0x1DAE SWAP1 DUP4 RETURNDATASIZE DUP6 GT PUSH2 0x64F JUMPI PUSH2 0x640 DUP2 DUP4 PUSH2 0x376E JUMP JUMPDEST POP DUP3 PUSH2 0x1D5F JUMP JUMPDEST CALLVALUE PUSH2 0x27B JUMPI PUSH1 0x20 DUP1 PUSH1 0x3 NOT CALLDATASIZE ADD SLT PUSH2 0x27B JUMPI PUSH1 0x4 CALLDATALOAD SWAP1 PUSH2 0x1DD3 PUSH2 0x3CC1 JUMP JUMPDEST CALLER PUSH1 0x0 MSTORE PUSH1 0x1 SWAP1 PUSH1 0x1 DUP2 MSTORE PUSH2 0x1DEF DUP4 PUSH1 0x40 PUSH1 0x0 KECCAK256 SLOAD LT ISZERO PUSH2 0x3B42 JUMP JUMPDEST PUSH1 0x0 DUP3 JUMPDEST PUSH2 0x1E26 JUMPI PUSH32 0xCC16F5DBB4873280815C1EE09DBD06736CFFCC184412CF7A71A0FDB75D397CA5 PUSH2 0xC96 DUP6 PUSH2 0xC7E DUP2 CALLER PUSH2 0x482F JUMP JUMPDEST PUSH1 0x10 SLOAD DUP2 LT ISZERO PUSH2 0x1F82 JUMPI SWAP1 DUP2 PUSH2 0x1E43 PUSH1 0x1 PUSH1 0x1 PUSH1 0xA0 SHL SUB SWAP4 PUSH2 0x498A JUMP JUMPDEST SWAP4 SWAP1 SLOAD PUSH1 0x3 SWAP5 DUP6 SHL SHR AND SWAP3 SLOAD SWAP3 PUSH1 0x40 MLOAD PUSH4 0x70A08231 PUSH1 0xE0 SHL DUP2 MSTORE ADDRESS PUSH1 0x4 DUP3 ADD MSTORE DUP4 DUP2 PUSH1 0x24 DUP2 DUP6 GAS STATICCALL SWAP1 DUP2 ISZERO PUSH2 0x656 JUMPI PUSH1 0x0 SWAP2 PUSH2 0x1F55 JUMPI JUMPDEST POP DUP6 DUP2 ISZERO DUP1 ISZERO PUSH2 0x1F4C JUMPI JUMPDEST PUSH2 0x1F41 JUMPI POP PUSH1 0x40 MLOAD PUSH4 0x313CE567 PUSH1 0xE0 SHL DUP2 MSTORE SWAP2 DUP5 DUP4 PUSH1 0x4 DUP2 DUP5 GAS STATICCALL SWAP3 DUP4 ISZERO PUSH2 0x656 JUMPI PUSH1 0x0 SWAP7 DUP10 PUSH2 0x1EEF SWAP5 PUSH1 0xFF DUP10 SWAP8 PUSH2 0x1EC5 SWAP6 DUP13 SWAP2 PUSH2 0x1F2A JUMPI POP AND SWAP3 PUSH2 0x479B JUMP JUMPDEST PUSH1 0x40 MLOAD PUSH4 0xA9059CBB PUSH1 0xE0 SHL DUP2 MSTORE CALLER PUSH1 0x4 DUP3 ADD MSTORE PUSH1 0x24 DUP2 ADD SWAP2 SWAP1 SWAP2 MSTORE SWAP6 DUP7 SWAP3 DUP4 SWAP2 SWAP1 DUP3 SWAP1 PUSH1 0x44 DUP3 ADD SWAP1 JUMP JUMPDEST SUB SWAP3 GAS CALL SWAP1 DUP2 ISZERO PUSH2 0x656 JUMPI DUP5 SWAP4 DUP5 SWAP3 PUSH2 0x1F0D JUMPI JUMPDEST POP JUMPDEST ADD SWAP1 SWAP2 PUSH2 0x1DF3 JUMP JUMPDEST PUSH2 0x1F23 SWAP1 DUP5 RETURNDATASIZE DUP7 GT PUSH2 0x64F JUMPI PUSH2 0x640 DUP2 DUP4 PUSH2 0x376E JUMP JUMPDEST POP DUP7 PUSH2 0x1F03 JUMP JUMPDEST PUSH2 0xC07 SWAP2 POP DUP10 RETURNDATASIZE DUP12 GT PUSH2 0xC0D JUMPI PUSH2 0xBFF DUP2 DUP4 PUSH2 0x376E JUMP JUMPDEST SWAP5 POP POP POP DUP3 SWAP1 PUSH2 0x1F05 JUMP JUMPDEST POP ADDRESS DUP4 EQ PUSH2 0x1E85 JUMP JUMPDEST SWAP1 POP DUP4 DUP2 DUP2 RETURNDATASIZE DUP4 GT PUSH2 0x1F7B JUMPI JUMPDEST PUSH2 0x1F6C DUP2 DUP4 PUSH2 0x376E JUMP JUMPDEST DUP2 ADD SUB SLT PUSH2 0x27B JUMPI MLOAD DUP8 PUSH2 0x1E7A JUMP JUMPDEST POP RETURNDATASIZE PUSH2 0x1F62 JUMP JUMPDEST PUSH2 0xC4F JUMP JUMPDEST CALLVALUE PUSH2 0x27B JUMPI PUSH1 0x0 CALLDATASIZE PUSH1 0x3 NOT ADD SLT PUSH2 0x27B JUMPI PUSH1 0x20 PUSH1 0x40 MLOAD PUSH2 0x1F4 DUP2 MSTORE RETURN JUMPDEST CALLVALUE PUSH2 0x27B JUMPI PUSH1 0x40 CALLDATASIZE PUSH1 0x3 NOT ADD SLT PUSH2 0x27B JUMPI PUSH1 0x20 PUSH2 0x114B PUSH2 0x1FC2 PUSH2 0x3641 JUMP JUMPDEST PUSH2 0x1FCA PUSH2 0x3657 JUMP JUMPDEST SWAP1 PUSH2 0x39F3 JUMP JUMPDEST CALLVALUE PUSH2 0x27B JUMPI PUSH1 0x0 CALLDATASIZE PUSH1 0x3 NOT ADD SLT PUSH2 0x27B JUMPI PUSH1 0x20 PUSH1 0x40 MLOAD PUSH1 0x12 DUP2 MSTORE RETURN JUMPDEST CALLVALUE PUSH2 0x27B JUMPI PUSH1 0x20 DUP1 PUSH1 0x3 NOT CALLDATASIZE ADD SLT PUSH2 0x27B JUMPI PUSH2 0x2006 PUSH2 0x3641 JUMP JUMPDEST PUSH2 0x200E PUSH2 0x3CC1 JUMP JUMPDEST PUSH1 0x40 MLOAD PUSH4 0x70A08231 PUSH1 0xE0 SHL DUP2 MSTORE ADDRESS PUSH1 0x4 DUP3 ADD MSTORE PUSH1 0x1 PUSH1 0x1 PUSH1 0xA0 SHL SUB DUP3 DUP2 AND DUP5 DUP4 PUSH1 0x24 DUP2 DUP5 GAS STATICCALL SWAP3 DUP4 ISZERO PUSH2 0x656 JUMPI PUSH1 0x0 SWAP4 PUSH2 0x2206 JUMPI JUMPDEST POP PUSH1 0x40 MLOAD SWAP1 PUSH4 0xB4C7741 PUSH1 0xE1 SHL DUP3 MSTORE PUSH1 0x4 DUP3 ADD MSTORE PUSH1 0x0 DUP1 MLOAD PUSH1 0x20 PUSH2 0x535B DUP4 CODECOPY DUP2 MLOAD SWAP2 MSTORE PUSH1 0x24 DUP3 ADD MSTORE PUSH2 0xBB8 PUSH1 0x44 DUP3 ADD MSTORE DUP5 DUP2 PUSH1 0x64 DUP2 DUP6 PUSH32 0x0 AND GAS STATICCALL SWAP1 DUP2 ISZERO PUSH2 0x656 JUMPI PUSH1 0x0 SWAP2 PUSH2 0x21E9 JUMPI JUMPDEST POP PUSH2 0x20DA DUP4 DUP4 PUSH32 0x0 AND DUP7 PUSH2 0x3E68 JUMP JUMPDEST AND ISZERO PUSH2 0x21D5 JUMPI PUSH2 0x20EF SWAP2 PUSH2 0xB61 SWAP2 ADDRESS SWAP2 PUSH2 0x3FC7 JUMP JUMPDEST PUSH32 0x106F923F993C2149D49B4255FF723ACAFA1F2D94393F561D3EDA32AE348F7241 PUSH2 0x211A CALLER ADDRESS PUSH2 0x39F3 JUMP JUMPDEST SWAP2 PUSH32 0xF6798A560793A54C3BCFE86A93CDE1E73087D944C0EA20544137D4121396885 PUSH2 0x21B4 PUSH2 0x2710 PUSH2 0x2151 PUSH1 0x3 SLOAD PUSH1 0xF SLOAD SWAP1 PUSH2 0x37A8 JUMP JUMPDEST DIV PUSH2 0x215C DUP2 ADDRESS PUSH2 0x473C JUMP JUMPDEST ADDRESS PUSH1 0x0 MSTORE PUSH1 0x7 DUP5 MSTORE PUSH1 0x40 PUSH1 0x0 KECCAK256 PUSH2 0x2174 DUP3 DUP3 SLOAD PUSH2 0x38C2 JUMP JUMPDEST SWAP1 SSTORE PUSH2 0x2182 DUP2 PUSH1 0x9 SLOAD PUSH2 0x38C2 JUMP JUMPDEST PUSH1 0x9 SSTORE CALLER PUSH1 0x0 MSTORE PUSH1 0x8 DUP5 MSTORE TIMESTAMP PUSH1 0x40 PUSH1 0x0 KECCAK256 SSTORE PUSH1 0x9 SLOAD PUSH2 0x21C7 JUMPI JUMPDEST PUSH1 0x40 DUP1 MLOAD ADDRESS DUP2 MSTORE PUSH1 0x20 DUP2 ADD SWAP3 SWAP1 SWAP3 MSTORE SWAP1 SWAP2 DUP3 SWAP2 DUP3 ADD SWAP1 JUMP JUMPDEST SUB SWAP1 LOG1 PUSH1 0x40 MLOAD SWAP3 DUP4 MSTORE CALLER SWAP3 LOG2 PUSH1 0x1 PUSH1 0x6 SSTORE STOP JUMPDEST PUSH2 0x21D0 DUP2 PUSH2 0x48D3 JUMP JUMPDEST PUSH2 0x219C JUMP JUMPDEST PUSH2 0x21E4 SWAP2 PUSH2 0xB61 SWAP2 ADDRESS SWAP2 PUSH2 0x4581 JUMP JUMPDEST PUSH2 0x20EF JUMP JUMPDEST PUSH2 0x2200 SWAP2 POP DUP6 RETURNDATASIZE DUP8 GT PUSH2 0x6FD JUMPI PUSH2 0x6EE DUP2 DUP4 PUSH2 0x376E JUMP JUMPDEST DUP6 PUSH2 0x20AC JUMP JUMPDEST SWAP1 SWAP3 POP DUP5 DUP2 DUP2 RETURNDATASIZE DUP4 GT PUSH2 0x222E JUMPI JUMPDEST PUSH2 0x221E DUP2 DUP4 PUSH2 0x376E JUMP JUMPDEST DUP2 ADD SUB SLT PUSH2 0x27B JUMPI MLOAD SWAP2 DUP6 PUSH2 0x2043 JUMP JUMPDEST POP RETURNDATASIZE PUSH2 0x2214 JUMP JUMPDEST CALLVALUE PUSH2 0x27B JUMPI PUSH1 0x20 DUP1 PUSH1 0x3 NOT CALLDATASIZE ADD SLT PUSH2 0x27B JUMPI PUSH1 0x4 CALLDATALOAD SWAP1 PUSH2 0x2253 PUSH2 0x3CC1 JUMP JUMPDEST PUSH2 0x225C CALLER PUSH2 0x46F9 JUMP JUMPDEST CALLER PUSH1 0x0 MSTORE PUSH1 0x7 DUP2 MSTORE PUSH1 0x40 PUSH1 0x0 KECCAK256 SLOAD DUP3 DUP2 LT PUSH2 0x2324 JUMPI DUP3 PUSH2 0x227B SWAP2 PUSH2 0x3932 JUMP JUMPDEST CALLER PUSH1 0x0 MSTORE PUSH1 0x7 DUP3 MSTORE PUSH1 0x40 PUSH1 0x0 KECCAK256 SSTORE PUSH2 0x2295 DUP3 PUSH1 0x9 SLOAD PUSH2 0x3932 JUMP JUMPDEST PUSH1 0x9 SSTORE PUSH1 0x40 MLOAD PUSH4 0xA9059CBB PUSH1 0xE0 SHL DUP2 MSTORE CALLER PUSH1 0x4 DUP3 ADD MSTORE PUSH1 0x24 DUP2 ADD DUP4 SWAP1 MSTORE SWAP1 DUP1 DUP3 PUSH1 0x44 DUP2 PUSH1 0x0 PUSH32 0x0 PUSH1 0x1 PUSH1 0x1 PUSH1 0xA0 SHL SUB AND GAS CALL SWAP2 DUP3 ISZERO PUSH2 0x656 JUMPI PUSH32 0xF5BB82176FEB1B5E747E28471AA92156A04D9F3AB9F45F28E2D704232B93F75 SWAP3 PUSH2 0xF6B JUMPI POP PUSH1 0x40 MLOAD SWAP3 DUP4 MSTORE CALLER SWAP3 LOG2 PUSH1 0x1 PUSH1 0x6 SSTORE STOP JUMPDEST PUSH1 0x40 MLOAD PUSH3 0x461BCD PUSH1 0xE5 SHL DUP2 MSTORE PUSH1 0x4 DUP2 ADD DUP4 SWAP1 MSTORE PUSH1 0x1F PUSH1 0x24 DUP3 ADD MSTORE PUSH32 0x496E73756666696369656E742062616C616E636520746F20756E7374616B6500 PUSH1 0x44 DUP3 ADD MSTORE PUSH1 0x64 SWAP1 REVERT JUMPDEST CALLVALUE PUSH2 0x27B JUMPI PUSH2 0x2377 CALLDATASIZE PUSH2 0x36B2 JUMP JUMPDEST PUSH1 0x0 SWAP4 SWAP2 SWAP3 SWAP4 SWAP2 PUSH1 0x0 JUMPDEST DUP6 DUP2 LT PUSH2 0x2E0C JUMPI POP PUSH2 0x2392 DUP6 PUSH2 0x38E7 JUMP JUMPDEST SWAP1 PUSH2 0x239C DUP7 PUSH2 0x38E7 JUMP JUMPDEST SWAP4 PUSH2 0x23A6 DUP8 PUSH2 0x38E7 JUMP JUMPDEST SWAP4 PUSH2 0x23B0 DUP9 PUSH2 0x38E7 JUMP JUMPDEST SWAP4 PUSH1 0x0 SWAP2 PUSH1 0x0 SWAP4 PUSH1 0x0 SWAP10 PUSH1 0x0 SWAP3 JUMPDEST DUP13 DUP9 DUP2 DUP7 LT PUSH2 0x2BE7 JUMPI POP POP POP POP POP POP DUP3 PUSH2 0x23E9 DUP4 PUSH2 0x23E3 PUSH2 0x23F5 SWAP7 SWAP6 PUSH2 0x23EF SWAP6 PUSH2 0x4545 JUMP JUMPDEST SWAP10 PUSH2 0x4545 JUMP JUMPDEST SWAP7 PUSH2 0x4545 JUMP JUMPDEST SWAP4 PUSH2 0x4545 JUMP JUMPDEST SWAP5 PUSH1 0x0 JUMPDEST DUP6 MLOAD DUP2 LT ISZERO PUSH2 0x263C JUMPI PUSH2 0x240C DUP2 DUP7 PUSH2 0x394D JUMP JUMPDEST MLOAD PUSH2 0x241A JUMPI JUMPDEST PUSH1 0x1 ADD PUSH2 0x23F9 JUMP JUMPDEST PUSH2 0x2484 SWAP1 PUSH1 0x1 PUSH1 0x1 PUSH1 0xA0 SHL SUB DUP1 PUSH2 0x243F PUSH2 0x463 PUSH2 0x2437 DUP6 DUP13 PUSH2 0x394D JUMP JUMPDEST MLOAD DUP14 DUP10 PUSH2 0x3888 JUMP JUMPDEST AND PUSH2 0x244A DUP4 DUP10 PUSH2 0x394D JUMP JUMPDEST MLOAD PUSH1 0x40 MLOAD PUSH4 0x23B872DD PUSH1 0xE0 SHL DUP2 MSTORE CALLER PUSH1 0x4 DUP3 ADD MSTORE ADDRESS PUSH1 0x24 DUP3 ADD MSTORE PUSH1 0x44 DUP2 ADD SWAP2 SWAP1 SWAP2 MSTORE PUSH1 0x20 SWAP5 SWAP1 SWAP2 DUP6 SWAP2 DUP4 SWAP2 SWAP1 DUP3 SWAP1 PUSH1 0x0 SWAP1 DUP3 SWAP1 PUSH1 0x64 DUP3 ADD SWAP1 JUMP JUMPDEST SUB SWAP3 GAS CALL DUP1 ISZERO PUSH2 0x656 JUMPI PUSH2 0x261F JUMPI JUMPDEST POP PUSH2 0x24AC PUSH2 0x463 PUSH2 0x24A4 DUP5 DUP12 PUSH2 0x394D JUMP JUMPDEST MLOAD DUP13 DUP9 PUSH2 0x3888 JUMP JUMPDEST PUSH1 0x40 MLOAD PUSH4 0xB4C7741 PUSH1 0xE1 SHL DUP2 MSTORE SWAP1 DUP3 AND PUSH1 0x4 DUP3 ADD MSTORE PUSH1 0x0 DUP1 MLOAD PUSH1 0x20 PUSH2 0x535B DUP4 CODECOPY DUP2 MLOAD SWAP2 MSTORE PUSH1 0x24 DUP3 ADD MSTORE PUSH2 0xBB8 PUSH1 0x44 DUP3 ADD MSTORE SWAP3 DUP1 DUP5 PUSH1 0x64 DUP2 PUSH32 0x0 DUP7 AND GAS STATICCALL SWAP1 DUP2 ISZERO PUSH2 0x656 JUMPI DUP4 DUP11 PUSH1 0x1 SWAP7 DUP15 SWAP4 PUSH1 0x0 SWAP6 PUSH2 0x25EA JUMPI JUMPDEST POP POP PUSH2 0x2571 SWAP3 PUSH2 0x2534 PUSH2 0x253C SWAP4 PUSH2 0x463 SWAP4 PUSH2 0x394D JUMP JUMPDEST MLOAD SWAP1 DUP11 PUSH2 0x3888 JUMP JUMPDEST PUSH2 0x2546 DUP6 DUP12 PUSH2 0x394D JUMP JUMPDEST MLOAD SWAP1 DUP5 PUSH32 0x0 AND SWAP1 PUSH2 0x3E68 JUMP JUMPDEST AND ISZERO PUSH2 0x25B2 JUMPI PUSH2 0x25A2 PUSH2 0x258A PUSH2 0x463 PUSH2 0x24A4 DUP5 DUP12 PUSH2 0x394D JUMP JUMPDEST PUSH2 0x2594 DUP4 DUP10 PUSH2 0x394D JUMP JUMPDEST MLOAD DUP8 MLOAD PUSH2 0x25AB JUMPI CALLER SWAP2 PUSH2 0x3FC7 JUMP JUMPDEST POP JUMPDEST SWAP1 POP PUSH2 0x2412 JUMP JUMPDEST ADDRESS SWAP2 PUSH2 0x3FC7 JUMP JUMPDEST PUSH2 0x25DD PUSH2 0x25C5 PUSH2 0x463 PUSH2 0x24A4 DUP5 DUP12 PUSH2 0x394D JUMP JUMPDEST PUSH2 0x25CF DUP4 DUP10 PUSH2 0x394D JUMP JUMPDEST MLOAD DUP8 MLOAD PUSH2 0x25E3 JUMPI CALLER SWAP2 PUSH2 0x4581 JUMP JUMPDEST POP PUSH2 0x25A4 JUMP JUMPDEST ADDRESS SWAP2 PUSH2 0x4581 JUMP JUMPDEST PUSH2 0x463 SWAP3 SWAP6 POP PUSH2 0x253C SWAP4 PUSH2 0x2612 PUSH2 0x2571 SWAP7 SWAP4 DUP4 PUSH2 0x2534 SWAP5 SWAP1 RETURNDATASIZE LT PUSH2 0x6FD JUMPI PUSH2 0x6EE DUP2 DUP4 PUSH2 0x376E JUMP JUMPDEST SWAP7 SWAP4 POP SWAP4 POP DUP2 SWAP5 POP PUSH2 0x251E JUMP JUMPDEST PUSH2 0x2635 SWAP1 DUP5 RETURNDATASIZE DUP7 GT PUSH2 0x64F JUMPI PUSH2 0x640 DUP2 DUP4 PUSH2 0x376E JUMP JUMPDEST POP DUP11 PUSH2 0x2493 JUMP JUMPDEST POP DUP6 DUP3 DUP9 DUP6 PUSH1 0x0 JUMPDEST DUP2 MLOAD DUP2 LT ISZERO PUSH2 0xE66 JUMPI PUSH2 0x2657 DUP2 DUP7 PUSH2 0x394D JUMP JUMPDEST MLOAD PUSH2 0x2665 JUMPI JUMPDEST PUSH1 0x1 ADD PUSH2 0x2644 JUMP JUMPDEST PUSH2 0x266F DUP2 DUP7 PUSH2 0x394D JUMP JUMPDEST MLOAD PUSH2 0x2710 SWAP1 DUP2 DUP2 MUL SWAP1 DUP1 DUP3 DIV DUP4 EQ SWAP1 ISZERO OR ISZERO PUSH2 0x2B67 JUMPI DUP8 PUSH2 0x268F SWAP2 PUSH2 0x3868 JUMP JUMPDEST PUSH1 0x40 MLOAD PUSH4 0x70A08231 PUSH1 0xE0 SHL DUP1 DUP3 MSTORE CALLER PUSH1 0x4 DUP4 ADD MSTORE SWAP3 SWAP2 PUSH1 0x20 DUP3 PUSH1 0x24 DUP2 PUSH1 0x0 DUP1 MLOAD PUSH1 0x20 PUSH2 0x535B DUP4 CODECOPY DUP2 MLOAD SWAP2 MSTORE GAS STATICCALL SWAP1 DUP2 ISZERO PUSH2 0x656 JUMPI PUSH1 0x0 SWAP2 PUSH2 0x2BB1 JUMPI JUMPDEST PUSH2 0x26D5 SWAP3 POP PUSH2 0x37A8 JUMP JUMPDEST PUSH5 0xE8D4A51000 DUP2 MUL SWAP1 DUP1 DUP3 DIV PUSH5 0xE8D4A51000 EQ SWAP1 ISZERO OR ISZERO PUSH2 0x2B67 JUMPI DIV SWAP1 DUP2 ISZERO ISZERO SWAP2 DUP3 PUSH2 0x2B0D JUMPI JUMPDEST POP POP ISZERO PUSH2 0x265D JUMPI PUSH2 0x271B PUSH2 0x463 PUSH2 0x2713 DUP4 DUP6 PUSH2 0x394D JUMP JUMPDEST MLOAD DUP6 DUP8 PUSH2 0x3888 JUMP JUMPDEST PUSH1 0x1 PUSH1 0x1 PUSH1 0xA0 SHL SUB PUSH1 0x40 MLOAD SWAP2 PUSH4 0xB4C7741 PUSH1 0xE1 SHL DUP4 MSTORE AND PUSH1 0x4 DUP3 ADD MSTORE PUSH1 0x0 DUP1 MLOAD PUSH1 0x20 PUSH2 0x535B DUP4 CODECOPY DUP2 MLOAD SWAP2 MSTORE PUSH1 0x24 DUP3 ADD MSTORE PUSH2 0xBB8 PUSH1 0x44 DUP3 ADD MSTORE PUSH1 0x20 DUP2 PUSH1 0x64 DUP2 PUSH1 0x1 PUSH1 0x1 PUSH1 0xA0 SHL SUB PUSH32 0x0 AND GAS STATICCALL SWAP1 DUP2 ISZERO PUSH2 0x656 JUMPI PUSH1 0x0 SWAP2 PUSH2 0x2AEE JUMPI JUMPDEST POP PUSH1 0x1 PUSH1 0x1 PUSH1 0xA0 SHL SUB PUSH2 0x27B5 PUSH2 0x463 PUSH2 0x27AD DUP6 DUP8 PUSH2 0x394D JUMP JUMPDEST MLOAD DUP8 DUP10 PUSH2 0x3888 JUMP JUMPDEST SWAP2 PUSH2 0x27F6 DUP3 PUSH32 0x0 AND SWAP4 DUP5 PUSH5 0xE8D4A51000 PUSH2 0x27EE DUP9 DUP14 PUSH2 0x394D JUMP JUMPDEST MLOAD DIV SWAP2 PUSH2 0x3E68 JUMP JUMPDEST AND ISZERO PUSH2 0x28C1 JUMPI POP DUP1 PUSH2 0x282D PUSH2 0x2814 PUSH2 0x463 PUSH2 0x27AD PUSH2 0x286B SWAP6 DUP8 PUSH2 0x394D JUMP JUMPDEST PUSH5 0xE8D4A51000 PUSH2 0x2824 DUP5 DUP11 PUSH2 0x394D JUMP JUMPDEST MLOAD DIV ADDRESS SWAP2 PUSH2 0x40FA JUMP JUMPDEST PUSH1 0x20 PUSH2 0x2844 PUSH1 0xE SLOAD PUSH2 0x124F PUSH2 0x1397 PUSH1 0xD SLOAD DUP4 PUSH2 0x3932 JUMP JUMPDEST PUSH1 0x40 MLOAD PUSH4 0xA9059CBB PUSH1 0xE0 SHL DUP2 MSTORE CALLER PUSH1 0x4 DUP3 ADD MSTORE PUSH1 0x24 DUP2 ADD SWAP2 SWAP1 SWAP2 MSTORE SWAP4 DUP5 SWAP1 DUP2 SWAP1 PUSH1 0x44 DUP3 ADD SWAP1 JUMP JUMPDEST SUB DUP2 PUSH1 0x0 PUSH1 0x0 DUP1 MLOAD PUSH1 0x20 PUSH2 0x535B DUP4 CODECOPY DUP2 MLOAD SWAP2 MSTORE GAS CALL SWAP1 DUP2 ISZERO PUSH2 0x656 JUMPI PUSH1 0x1 SWAP4 PUSH2 0x289B SWAP3 PUSH2 0x28A2 JUMPI JUMPDEST POP ISZERO ISZERO PUSH2 0x39A7 JUMP JUMPDEST SWAP1 POP PUSH2 0x265D JUMP JUMPDEST PUSH2 0x28BA SWAP1 PUSH1 0x20 RETURNDATASIZE PUSH1 0x20 GT PUSH2 0x64F JUMPI PUSH2 0x640 DUP2 DUP4 PUSH2 0x376E JUMP JUMPDEST POP DUP10 PUSH2 0x2893 JUMP JUMPDEST PUSH1 0x20 PUSH1 0x1 PUSH1 0x1 PUSH1 0xA0 SHL SUB PUSH2 0x28E3 PUSH2 0x463 PUSH2 0x28DB DUP7 DUP9 PUSH2 0x394D JUMP JUMPDEST MLOAD DUP9 DUP11 PUSH2 0x3888 JUMP JUMPDEST SWAP3 PUSH2 0x29C7 PUSH1 0x0 PUSH5 0xE8D4A51000 PUSH2 0x28F9 DUP9 DUP14 PUSH2 0x394D JUMP JUMPDEST MLOAD PUSH1 0x40 MLOAD PUSH20 0x9E46F287CB791987B6228C32669EA5126AA105D PUSH1 0x62 SHL DUP9 DUP3 ADD MSTORE PUSH2 0x177 PUSH1 0xEB SHL PUSH1 0x34 DUP3 ADD DUP2 SWAP1 MSTORE PUSH19 0xD500B1D8E8EF31E21C99D1DB9A6444D3ADF127 PUSH1 0x64 SHL PUSH1 0x37 DUP4 ADD MSTORE PUSH1 0x4B DUP3 ADD MSTORE PUSH1 0x60 SWAP9 DUP10 SHL PUSH12 0xFFFFFFFFFFFFFFFFFFFFFFFF NOT AND PUSH1 0x4E DUP3 ADD MSTORE PUSH1 0x42 DUP2 MSTORE SWAP2 SWAP1 DIV PUSH2 0x2970 DUP3 PUSH2 0x3752 JUMP JUMPDEST PUSH1 0x40 MLOAD SWAP2 PUSH2 0x297D DUP4 PUSH2 0x371A JUMP JUMPDEST DUP3 MSTORE DUP7 DUP3 ADD SWAP1 ADDRESS DUP3 MSTORE PUSH1 0x40 DUP4 ADD SWAP9 TIMESTAMP DUP11 MSTORE DUP4 ADD SWAP1 DUP2 MSTORE PUSH1 0x80 DUP4 ADD SWAP1 DUP5 DUP3 MSTORE PUSH1 0x40 MLOAD SWAP10 DUP11 SWAP9 DUP10 SWAP8 DUP9 SWAP7 PUSH4 0xC04B8D59 PUSH1 0xE0 SHL DUP9 MSTORE DUP13 PUSH1 0x4 DUP10 ADD MSTORE MLOAD PUSH1 0xA0 PUSH1 0x24 DUP10 ADD MSTORE PUSH1 0xC4 DUP9 ADD SWAP1 PUSH2 0x361C JUMP JUMPDEST SWAP5 MLOAD AND PUSH1 0x44 DUP7 ADD MSTORE MLOAD PUSH1 0x64 DUP6 ADD MSTORE MLOAD PUSH1 0x84 DUP5 ADD MSTORE MLOAD PUSH1 0xA4 DUP4 ADD MSTORE SUB SWAP3 GAS CALL SWAP1 DUP2 ISZERO PUSH2 0x656 JUMPI PUSH1 0x0 SWAP2 PUSH2 0x2ABC JUMPI JUMPDEST POP PUSH2 0x2A3C PUSH1 0x20 PUSH2 0x2A15 PUSH1 0xE SLOAD PUSH2 0x124F PUSH2 0x2A0F PUSH1 0xD SLOAD DUP4 PUSH2 0x3932 JUMP JUMPDEST DUP7 PUSH2 0x37A8 JUMP JUMPDEST PUSH1 0x40 MLOAD PUSH4 0xA9059CBB PUSH1 0xE0 SHL DUP2 MSTORE CALLER PUSH1 0x4 DUP3 ADD MSTORE PUSH1 0x24 DUP2 ADD SWAP2 SWAP1 SWAP2 MSTORE SWAP2 DUP3 SWAP1 DUP2 SWAP1 PUSH1 0x44 DUP3 ADD SWAP1 JUMP JUMPDEST SUB DUP2 PUSH1 0x0 PUSH1 0x0 DUP1 MLOAD PUSH1 0x20 PUSH2 0x535B DUP4 CODECOPY DUP2 MLOAD SWAP2 MSTORE GAS CALL DUP1 ISZERO PUSH2 0x656 JUMPI PUSH2 0x2A9D JUMPI JUMPDEST POP ISZERO PUSH2 0x2A6A JUMPI PUSH1 0x1 SWAP1 PUSH2 0x289B JUMP JUMPDEST PUSH1 0x40 MLOAD PUSH3 0x461BCD PUSH1 0xE5 SHL DUP2 MSTORE PUSH1 0x20 PUSH1 0x4 DUP3 ADD MSTORE PUSH1 0xB PUSH1 0x24 DUP3 ADD MSTORE PUSH11 0x14DDD85C0811985A5B1959 PUSH1 0xAA SHL PUSH1 0x44 DUP3 ADD MSTORE PUSH1 0x64 SWAP1 REVERT JUMPDEST PUSH2 0x2AB5 SWAP1 PUSH1 0x20 RETURNDATASIZE PUSH1 0x20 GT PUSH2 0x64F JUMPI PUSH2 0x640 DUP2 DUP4 PUSH2 0x376E JUMP JUMPDEST POP DUP8 PUSH2 0x2A5C JUMP JUMPDEST SWAP1 POP PUSH1 0x20 DUP2 RETURNDATASIZE PUSH1 0x20 GT PUSH2 0x2AE6 JUMPI JUMPDEST DUP2 PUSH2 0x2AD7 PUSH1 0x20 SWAP4 DUP4 PUSH2 0x376E JUMP JUMPDEST DUP2 ADD SUB SLT PUSH2 0x27B JUMPI MLOAD DUP8 PUSH2 0x29F4 JUMP JUMPDEST RETURNDATASIZE SWAP2 POP PUSH2 0x2ACA JUMP JUMPDEST PUSH2 0x2B07 SWAP2 POP PUSH1 0x20 RETURNDATASIZE PUSH1 0x20 GT PUSH2 0x6FD JUMPI PUSH2 0x6EE DUP2 DUP4 PUSH2 0x376E JUMP JUMPDEST DUP8 PUSH2 0x2794 JUMP JUMPDEST SWAP1 SWAP2 POP PUSH1 0x40 MLOAD SWAP2 DUP3 MSTORE CALLER PUSH1 0x4 DUP4 ADD MSTORE PUSH1 0x20 DUP3 PUSH1 0x24 DUP2 PUSH1 0x0 DUP1 MLOAD PUSH1 0x20 PUSH2 0x535B DUP4 CODECOPY DUP2 MLOAD SWAP2 MSTORE GAS STATICCALL SWAP2 DUP3 ISZERO PUSH2 0x656 JUMPI PUSH1 0x0 SWAP3 PUSH2 0x2B7D JUMPI JUMPDEST POP PUSH5 0xE8D4A51000 DUP3 MUL SWAP2 DUP1 DUP4 DIV PUSH5 0xE8D4A51000 EQ SWAP1 ISZERO OR ISZERO PUSH2 0x2B67 JUMPI GT ISZERO DUP8 DUP1 PUSH2 0x26FC JUMP JUMPDEST PUSH4 0x4E487B71 PUSH1 0xE0 SHL PUSH1 0x0 MSTORE PUSH1 0x11 PUSH1 0x4 MSTORE PUSH1 0x24 PUSH1 0x0 REVERT JUMPDEST SWAP1 SWAP2 POP PUSH1 0x20 DUP2 RETURNDATASIZE PUSH1 0x20 GT PUSH2 0x2BA9 JUMPI JUMPDEST DUP2 PUSH2 0x2B99 PUSH1 0x20 SWAP4 DUP4 PUSH2 0x376E JUMP JUMPDEST DUP2 ADD SUB SLT PUSH2 0x27B JUMPI MLOAD SWAP1 DUP9 PUSH2 0x2B42 JUMP JUMPDEST RETURNDATASIZE SWAP2 POP PUSH2 0x2B8C JUMP JUMPDEST SWAP1 POP PUSH1 0x20 DUP3 RETURNDATASIZE PUSH1 0x20 GT PUSH2 0x2BDF JUMPI JUMPDEST DUP2 PUSH2 0x2BCC PUSH1 0x20 SWAP4 DUP4 PUSH2 0x376E JUMP JUMPDEST DUP2 ADD SUB SLT PUSH2 0x27B JUMPI PUSH2 0x26D5 SWAP2 MLOAD SWAP1 PUSH2 0x26CB JUMP JUMPDEST RETURNDATASIZE SWAP2 POP PUSH2 0x2BBF JUMP JUMPDEST PUSH1 0x1 PUSH1 0x1 PUSH1 0xA0 SHL SUB PUSH2 0x2C06 PUSH2 0x463 DUP9 PUSH1 0x24 SWAP7 SWAP8 SWAP9 SWAP10 SWAP12 SWAP6 PUSH1 0x20 SWAP6 PUSH2 0x3888 JUMP JUMPDEST AND PUSH1 0x40 MLOAD SWAP4 DUP5 DUP1 SWAP3 PUSH4 0x70A08231 PUSH1 0xE0 SHL DUP3 MSTORE CALLER PUSH1 0x4 DUP4 ADD MSTORE GAS STATICCALL DUP1 ISZERO PUSH2 0x656 JUMPI DUP15 DUP11 DUP10 SWAP5 PUSH1 0x0 SWAP4 PUSH2 0x2DCF JUMPI JUMPDEST POP PUSH2 0x2C4D PUSH2 0x463 PUSH1 0x4 SWAP7 PUSH1 0x20 SWAP5 PUSH1 0x1 PUSH1 0x1 PUSH1 0xA0 SHL SUB SWAP5 PUSH2 0x3888 JUMP JUMPDEST AND PUSH1 0x40 MLOAD SWAP5 DUP6 DUP1 SWAP3 PUSH4 0x313CE567 PUSH1 0xE0 SHL DUP3 MSTORE GAS STATICCALL SWAP3 DUP4 ISZERO PUSH2 0x656 JUMPI DUP16 SWAP4 DUP12 DUP9 SWAP6 DUP8 DUP10 SWAP6 DUP14 SWAP6 PUSH1 0x0 SWAP6 PUSH2 0x2D90 JUMPI JUMPDEST POP SWAP5 DUP3 PUSH2 0x2CDD PUSH1 0xFF PUSH2 0x2CC0 PUSH2 0x2CB3 DUP6 PUSH2 0x463 SWAP8 PUSH2 0x2CAD PUSH2 0x2CE3 SWAP13 SWAP14 PUSH2 0x2CA7 PUSH2 0x463 DUP6 DUP16 SWAP15 PUSH2 0x2CA7 SWAP16 PUSH2 0x3888 JUMP JUMPDEST SWAP1 PUSH2 0x4378 JUMP JUMPDEST SWAP14 PUSH2 0x3888 JUMP JUMPDEST CALLDATALOAD SWAP13 PUSH2 0x2710 DUP1 SWAP13 DIV PUSH2 0x3868 JUMP JUMPDEST DUP13 DUP2 GT SWAP13 SWAP1 DUP14 ISZERO PUSH2 0x2D81 JUMPI SWAP1 PUSH2 0x2CD5 SWAP2 PUSH2 0x3932 JUMP JUMPDEST SWAP9 JUMPDEST AND PUSH2 0x393F JUMP JUMPDEST SWAP5 PUSH2 0x3888 JUMP JUMPDEST SWAP4 ISZERO PUSH2 0x2D46 JUMPI DUP7 PUSH2 0x2CF3 SWAP2 PUSH2 0x37A8 JUMP JUMPDEST DIV SWAP1 PUSH8 0xDE0B6B3A7640000 SWAP2 DUP3 DUP2 MUL SWAP3 DUP2 DUP5 DIV EQ SWAP1 ISZERO OR ISZERO PUSH2 0x2B67 JUMPI DUP13 PUSH2 0x2D35 DUP3 PUSH2 0x2D23 PUSH1 0x1 SWAP7 PUSH2 0x2D3B SWAP7 PUSH2 0x3868 JUMP JUMPDEST SWAP3 DUP12 PUSH2 0x2D2F DUP4 DUP14 PUSH2 0x394D JUMP JUMPDEST MSTORE PUSH2 0x394D JUMP JUMPDEST MSTORE PUSH2 0x3961 JUMP JUMPDEST SWAP6 JUMPDEST ADD SWAP3 SWAP2 SWAP1 PUSH2 0x23BE JUMP JUMPDEST SWAP14 PUSH2 0x2D57 SWAP3 SWAP9 SWAP10 SWAP4 POP DUP15 SWAP2 POP PUSH2 0x38C2 JUMP JUMPDEST SWAP12 DUP8 PUSH2 0x2D63 DUP4 DUP14 PUSH2 0x394D JUMP JUMPDEST MSTORE PUSH2 0x2D6E DUP3 DUP12 PUSH2 0x394D JUMP JUMPDEST MSTORE PUSH2 0x2D78 SWAP1 PUSH2 0x3961 JUMP JUMPDEST SWAP6 PUSH1 0x1 SWAP1 PUSH2 0x2D3D JUMP JUMPDEST PUSH2 0x2D8A SWAP2 PUSH2 0x3932 JUMP JUMPDEST SWAP9 PUSH2 0x2CD7 JUMP JUMPDEST DUP7 DUP1 SWAP7 POP DUP5 DUP7 SWAP9 SWAP4 SWAP5 SWAP6 SWAP3 PUSH1 0x20 RETURNDATASIZE PUSH1 0x20 GT PUSH2 0x2DC8 JUMPI JUMPDEST PUSH2 0x2DB0 DUP2 DUP4 PUSH2 0x376E JUMP JUMPDEST DUP2 ADD PUSH2 0x2DBB SWAP2 PUSH2 0x3919 JUMP JUMPDEST SWAP8 POP SWAP5 SWAP4 SWAP3 POP SWAP7 POP PUSH2 0x2C7A JUMP JUMPDEST POP RETURNDATASIZE PUSH2 0x2DA6 JUMP JUMPDEST SWAP5 POP POP POP POP PUSH1 0x20 DUP3 RETURNDATASIZE PUSH1 0x20 GT PUSH2 0x2E04 JUMPI JUMPDEST DUP2 PUSH2 0x2DED PUSH1 0x20 SWAP4 DUP4 PUSH2 0x376E JUMP JUMPDEST DUP2 ADD SUB SLT PUSH2 0x27B JUMPI SWAP1 MLOAD DUP7 SWAP2 SWAP1 DUP15 DUP11 PUSH2 0x2C4D PUSH2 0x2C32 JUMP JUMPDEST RETURNDATASIZE SWAP2 POP PUSH2 0x2DE0 JUMP JUMPDEST SWAP2 SWAP4 SWAP3 PUSH1 0x1 PUSH1 0x1 PUSH1 0xA0 SHL SUB PUSH2 0x2E25 PUSH2 0x463 DUP6 DUP10 DUP7 PUSH2 0x3888 JUMP JUMPDEST AND PUSH1 0x40 MLOAD DUP1 SWAP2 PUSH4 0x70A08231 PUSH1 0xE0 SHL DUP3 MSTORE CALLER PUSH1 0x4 DUP4 ADD MSTORE DUP2 PUSH1 0x24 PUSH1 0x20 SWAP5 DUP6 SWAP4 GAS STATICCALL SWAP2 DUP3 ISZERO PUSH2 0x656 JUMPI PUSH1 0x0 SWAP3 PUSH2 0x2E77 JUMPI JUMPDEST POP POP PUSH1 0x1 SWAP2 PUSH2 0x1145 PUSH2 0x2E6E SWAP3 PUSH2 0x2CA7 PUSH2 0x463 DUP9 DUP13 DUP10 PUSH2 0x3888 JUMP JUMPDEST SWAP4 SWAP5 SWAP3 ADD PUSH2 0x2381 JUMP JUMPDEST SWAP1 DUP1 SWAP3 POP DUP2 RETURNDATASIZE DUP4 GT PUSH2 0x2EA0 JUMPI JUMPDEST PUSH2 0x2E8E DUP2 DUP4 PUSH2 0x376E JUMP JUMPDEST DUP2 ADD SUB SLT PUSH2 0x27B JUMPI MLOAD DUP2 PUSH2 0x1145 PUSH2 0x2E54 JUMP JUMPDEST POP RETURNDATASIZE PUSH2 0x2E84 JUMP JUMPDEST CALLVALUE PUSH2 0x27B JUMPI PUSH1 0x0 CALLDATASIZE PUSH1 0x3 NOT ADD SLT PUSH2 0x27B JUMPI PUSH1 0x20 PUSH2 0x114B PUSH2 0x42CF JUMP JUMPDEST CALLVALUE PUSH2 0x27B JUMPI PUSH1 0x20 DUP1 PUSH1 0x3 NOT CALLDATASIZE ADD SLT PUSH2 0x27B JUMPI PUSH2 0x2EDC PUSH2 0x3641 JUMP JUMPDEST PUSH1 0x40 MLOAD SWAP1 DUP3 DUP3 ADD PUSH1 0x1 PUSH1 0x1 PUSH1 0xA0 SHL SUB SWAP3 PUSH12 0xFFFFFFFFFFFFFFFFFFFFFFFF NOT DUP4 PUSH1 0x60 SHL AND DUP3 MSTORE PUSH1 0x14 DUP2 MSTORE PUSH2 0x2F0E DUP2 PUSH2 0x3736 JUMP JUMPDEST MLOAD SWAP1 KECCAK256 SWAP1 DUP3 DUP2 AND ISZERO PUSH2 0x2FE5 JUMPI PUSH2 0x2F9B PUSH2 0x2FA7 DUP6 PUSH2 0x834 SWAP4 PUSH1 0x40 MLOAD SWAP1 PUSH2 0x2F35 DUP4 DUP8 ADD DUP4 PUSH2 0x376E JUMP JUMPDEST DUP6 DUP3 MSTORE DUP3 DUP3 ADD SWAP6 PUSH2 0x4B27 DUP8 CODECOPY PUSH1 0x40 DUP1 MLOAD PUSH1 0x1 PUSH1 0x1 PUSH1 0xA0 SHL SUB SWAP1 SWAP3 AND DUP5 DUP4 ADD SWAP1 DUP2 MSTORE ADDRESS PUSH1 0x20 DUP3 ADD MSTORE SWAP2 SWAP1 PUSH2 0x2F74 SWAP1 DUP3 SWAP1 DUP5 ADD SUB PUSH1 0x1F NOT DUP2 ADD DUP4 MSTORE DUP3 PUSH2 0x376E JUMP JUMPDEST PUSH1 0x40 MLOAD SWAP6 DUP7 SWAP4 PUSH2 0x2F8C DUP7 DUP7 ADD SWAP10 DUP11 SWAP3 MLOAD SWAP3 DUP4 SWAP2 PUSH2 0x35F9 JUMP JUMPDEST DUP5 ADD SWAP2 MLOAD DUP1 SWAP4 DUP7 DUP5 ADD SWAP1 PUSH2 0x35F9 JUMP JUMPDEST ADD SUB DUP1 DUP5 MSTORE ADD DUP3 PUSH2 0x376E JUMP JUMPDEST MLOAD SWAP1 KECCAK256 PUSH1 0x40 MLOAD SWAP1 DUP5 DUP3 ADD SWAP3 PUSH1 0xFF PUSH1 0xF8 SHL DUP5 MSTORE ADDRESS PUSH1 0x60 SHL PUSH1 0x21 DUP5 ADD MSTORE PUSH1 0x35 DUP4 ADD MSTORE PUSH1 0x55 DUP3 ADD MSTORE PUSH1 0x55 DUP2 MSTORE PUSH2 0x2FD9 DUP2 PUSH2 0x3752 JUMP JUMPDEST MLOAD SWAP1 KECCAK256 AND PUSH1 0x40 MLOAD SWAP1 DUP2 MSTORE RETURN JUMPDEST PUSH1 0x40 MLOAD PUSH3 0x461BCD PUSH1 0xE5 SHL DUP2 MSTORE PUSH1 0x4 DUP2 ADD DUP6 SWAP1 MSTORE PUSH1 0x1D PUSH1 0x24 DUP3 ADD MSTORE PUSH32 0x4F776E657220616464726573732063616E6E6F74206265207A65726F2E000000 PUSH1 0x44 DUP3 ADD MSTORE PUSH1 0x64 SWAP1 REVERT JUMPDEST CALLVALUE PUSH2 0x27B JUMPI PUSH1 0x60 CALLDATASIZE PUSH1 0x3 NOT ADD SLT PUSH2 0x27B JUMPI PUSH2 0x3043 PUSH2 0x3641 JUMP JUMPDEST PUSH2 0x304B PUSH2 0x3657 JUMP JUMPDEST PUSH1 0x44 CALLDATALOAD SWAP1 PUSH1 0x1 PUSH1 0x1 PUSH1 0xA0 SHL SUB DUP4 AND SWAP3 DUP4 PUSH1 0x0 MSTORE PUSH1 0x2 PUSH1 0x20 MSTORE PUSH1 0x40 PUSH1 0x0 KECCAK256 CALLER PUSH1 0x0 MSTORE PUSH1 0x20 MSTORE PUSH1 0x40 PUSH1 0x0 KECCAK256 SLOAD SWAP4 PUSH1 0x0 NOT DUP6 SUB PUSH2 0x308B JUMPI JUMPDEST POP PUSH2 0xE66 SWAP4 POP PUSH2 0x41EF JUMP JUMPDEST DUP4 DUP6 LT PUSH2 0x30F7 JUMPI DUP1 ISZERO PUSH2 0x30DE JUMPI CALLER ISZERO PUSH2 0x30C5 JUMPI PUSH2 0xE66 SWAP5 DUP5 SWAP2 PUSH1 0x0 MSTORE PUSH1 0x2 PUSH1 0x20 MSTORE PUSH1 0x40 PUSH1 0x0 KECCAK256 CALLER PUSH1 0x0 MSTORE PUSH1 0x20 MSTORE SUB PUSH1 0x40 PUSH1 0x0 KECCAK256 SSTORE DUP5 PUSH2 0x3080 JUMP JUMPDEST PUSH1 0x40 MLOAD PUSH4 0x4A1406B1 PUSH1 0xE1 SHL DUP2 MSTORE PUSH1 0x0 PUSH1 0x4 DUP3 ADD MSTORE PUSH1 0x24 SWAP1 REVERT JUMPDEST PUSH1 0x40 MLOAD PUSH4 0xE602DF05 PUSH1 0xE0 SHL DUP2 MSTORE PUSH1 0x0 PUSH1 0x4 DUP3 ADD MSTORE PUSH1 0x24 SWAP1 REVERT JUMPDEST PUSH1 0x40 MLOAD PUSH4 0x7DC7A0D9 PUSH1 0xE1 SHL DUP2 MSTORE CALLER PUSH1 0x4 DUP3 ADD MSTORE PUSH1 0x24 DUP2 ADD DUP7 SWAP1 MSTORE PUSH1 0x44 DUP2 ADD DUP6 SWAP1 MSTORE PUSH1 0x64 SWAP1 REVERT JUMPDEST CALLVALUE PUSH2 0x27B JUMPI PUSH1 0x0 CALLDATASIZE PUSH1 0x3 NOT ADD SLT PUSH2 0x27B JUMPI PUSH1 0x20 PUSH1 0x3 SLOAD PUSH1 0x40 MLOAD SWAP1 DUP2 MSTORE RETURN JUMPDEST CALLVALUE PUSH2 0x27B JUMPI PUSH1 0x0 CALLDATASIZE PUSH1 0x3 NOT ADD SLT PUSH2 0x27B JUMPI PUSH2 0x3154 PUSH2 0x3CC1 JUMP JUMPDEST PUSH2 0x3175 PUSH1 0x3 SLOAD PUSH2 0x3165 DUP2 ISZERO ISZERO PUSH2 0x3C49 JUMP JUMPDEST PUSH2 0x124F PUSH2 0x3170 PUSH2 0x42CF JUMP JUMPDEST PUSH2 0x3790 JUMP JUMPDEST PUSH1 0x40 MLOAD PUSH4 0x802431FB PUSH1 0xE0 SHL DUP2 MSTORE ADDRESS PUSH1 0x4 DUP3 ADD MSTORE PUSH1 0x0 DUP1 MLOAD PUSH1 0x20 PUSH2 0x535B DUP4 CODECOPY DUP2 MLOAD SWAP2 MSTORE PUSH1 0x24 DUP3 ADD MSTORE PUSH1 0x0 PUSH1 0x44 DUP3 ADD MSTORE PUSH1 0x1 PUSH1 0x1 PUSH1 0xA0 SHL SUB SWAP1 PUSH1 0x20 SWAP1 DUP2 DUP2 PUSH1 0x64 DUP2 PUSH32 0x0 DUP8 AND GAS STATICCALL SWAP1 DUP2 ISZERO PUSH2 0x656 JUMPI PUSH1 0x0 SWAP2 PUSH2 0x3411 JUMPI JUMPDEST POP ADDRESS PUSH1 0x0 MSTORE PUSH1 0x1 DUP3 MSTORE PUSH1 0x40 PUSH1 0x0 KECCAK256 SLOAD SWAP1 PUSH1 0x40 MLOAD SWAP4 PUSH4 0x70A08231 PUSH1 0xE0 SHL SWAP2 DUP3 DUP7 MSTORE ADDRESS PUSH1 0x4 DUP8 ADD MSTORE PUSH1 0x0 DUP1 MLOAD PUSH1 0x20 PUSH2 0x535B DUP4 CODECOPY DUP2 MLOAD SWAP2 MSTORE SWAP7 DUP6 DUP8 PUSH1 0x24 DUP2 DUP12 GAS STATICCALL SWAP7 DUP8 ISZERO PUSH2 0x656 JUMPI PUSH1 0x0 SWAP8 PUSH2 0x33E2 JUMPI JUMPDEST POP PUSH5 0xE8D4A51000 SWAP1 DUP2 DUP4 MUL SWAP3 DUP1 DUP5 DIV DUP4 EQ SWAP1 ISZERO OR ISZERO PUSH2 0x2B67 JUMPI DUP1 DUP4 LT ISZERO PUSH2 0x334F JUMPI POP DUP1 DUP8 MUL SWAP1 DUP8 DUP3 DIV EQ DUP8 ISZERO OR ISZERO PUSH2 0x2B67 JUMPI DUP6 SWAP5 PUSH2 0x32E1 SWAP4 PUSH8 0xDE0B6B3A7640000 PUSH2 0x3286 PUSH2 0x32D3 SWAP6 PUSH2 0x32D9 SWAP6 PUSH2 0x3868 JUMP JUMPDEST DIV SWAP2 DUP1 DUP4 GT PUSH2 0x3347 JUMPI JUMPDEST POP PUSH32 0x0 AND PUSH2 0x32BD DUP10 DUP3 PUSH2 0x3CE4 JUMP JUMPDEST PUSH2 0x32C8 ADDRESS DUP11 ADDRESS PUSH2 0x40FA JUMP JUMPDEST SWAP4 DUP5 SWAP3 DUP4 LT ISZERO PUSH2 0x37BB JUMP JUMPDEST ADDRESS PUSH2 0x3E68 JUMP JUMPDEST ADDRESS SWAP1 ADDRESS PUSH2 0x3FC7 JUMP JUMPDEST POP PUSH1 0x24 PUSH1 0x40 MLOAD DUP1 SWAP7 DUP2 SWAP4 DUP3 MSTORE ADDRESS PUSH1 0x4 DUP4 ADD MSTORE GAS STATICCALL SWAP1 DUP2 ISZERO PUSH2 0x656 JUMPI PUSH1 0x0 SWAP2 PUSH2 0x3317 JUMPI JUMPDEST POP PUSH2 0x3310 SWAP3 POP GT PUSH2 0x381C JUMP JUMPDEST PUSH1 0x1 PUSH1 0x6 SSTORE STOP JUMPDEST SWAP1 POP DUP3 DUP2 RETURNDATASIZE DUP4 GT PUSH2 0x3340 JUMPI JUMPDEST PUSH2 0x332D DUP2 DUP4 PUSH2 0x376E JUMP JUMPDEST DUP2 ADD SUB SLT PUSH2 0x27B JUMPI PUSH2 0x3310 SWAP2 MLOAD DUP4 PUSH2 0x3304 JUMP JUMPDEST POP RETURNDATASIZE PUSH2 0x3323 JUMP JUMPDEST SWAP2 POP DUP11 PUSH2 0x3290 JUMP JUMPDEST SWAP4 POP POP SWAP1 SWAP6 POP SWAP4 SWAP3 SWAP2 SWAP4 GT PUSH2 0x3368 JUMPI JUMPDEST POP POP POP POP PUSH2 0x3310 JUMP JUMPDEST PUSH2 0x33C7 PUSH2 0x33BA PUSH2 0x33BF PUSH1 0x1 SWAP5 PUSH2 0x33D9 SWAP8 PUSH32 0x0 AND PUSH2 0x33A5 DUP9 DUP3 ADDRESS PUSH2 0x3E68 JUMP JUMPDEST PUSH2 0x33B0 ADDRESS DUP10 ADDRESS PUSH2 0x3FC7 JUMP JUMPDEST SWAP4 DUP5 SWAP3 DUP4 GT PUSH2 0x37BB JUMP JUMPDEST PUSH2 0x3CE4 JUMP JUMPDEST ADDRESS SWAP1 ADDRESS PUSH2 0x40FA JUMP JUMPDEST POP ADDRESS PUSH1 0x0 MSTORE MSTORE PUSH1 0x40 PUSH1 0x0 KECCAK256 SLOAD GT PUSH2 0x381C JUMP JUMPDEST DUP1 DUP1 DUP1 DUP1 PUSH2 0x335F JUMP JUMPDEST SWAP1 SWAP7 POP DUP6 DUP2 DUP2 RETURNDATASIZE DUP4 GT PUSH2 0x340A JUMPI JUMPDEST PUSH2 0x33FA DUP2 DUP4 PUSH2 0x376E JUMP JUMPDEST DUP2 ADD SUB SLT PUSH2 0x27B JUMPI MLOAD SWAP6 DUP9 PUSH2 0x3235 JUMP JUMPDEST POP RETURNDATASIZE PUSH2 0x33F0 JUMP JUMPDEST SWAP1 POP DUP2 DUP2 DUP2 RETURNDATASIZE DUP4 GT PUSH2 0x3437 JUMPI JUMPDEST PUSH2 0x3428 DUP2 DUP4 PUSH2 0x376E JUMP JUMPDEST DUP2 ADD SUB SLT PUSH2 0x27B JUMPI MLOAD DUP5 PUSH2 0x31E8 JUMP JUMPDEST POP RETURNDATASIZE PUSH2 0x341E JUMP JUMPDEST CALLVALUE PUSH2 0x27B JUMPI PUSH1 0x40 CALLDATASIZE PUSH1 0x3 NOT ADD SLT PUSH2 0x27B JUMPI PUSH2 0x3457 PUSH2 0x3641 JUMP JUMPDEST PUSH1 0x24 CALLDATALOAD SWAP1 CALLER ISZERO PUSH2 0x30DE JUMPI PUSH1 0x1 PUSH1 0x1 PUSH1 0xA0 SHL SUB AND SWAP1 DUP2 ISZERO PUSH2 0x30C5 JUMPI CALLER PUSH1 0x0 MSTORE PUSH1 0x2 PUSH1 0x20 MSTORE PUSH1 0x40 PUSH1 0x0 KECCAK256 DUP3 PUSH1 0x0 MSTORE PUSH1 0x20 MSTORE DUP1 PUSH1 0x40 PUSH1 0x0 KECCAK256 SSTORE PUSH1 0x40 MLOAD SWAP1 DUP2 MSTORE PUSH32 0x8C5BE1E5EBEC7D5BD14F71427D1E84F3DD0314C0F7B2291E5B200AC8C7C3B925 PUSH1 0x20 CALLER SWAP3 LOG3 PUSH1 0x20 PUSH1 0x40 MLOAD PUSH1 0x1 DUP2 MSTORE RETURN JUMPDEST CALLVALUE PUSH2 0x27B JUMPI PUSH1 0x0 CALLDATASIZE PUSH1 0x3 NOT ADD SLT PUSH2 0x27B JUMPI PUSH1 0x40 MLOAD PUSH1 0x0 PUSH1 0x4 SLOAD SWAP1 PUSH1 0x1 DUP3 PUSH1 0x1 SHR SWAP2 PUSH1 0x1 DUP5 AND SWAP2 DUP3 ISZERO PUSH2 0x357F JUMPI JUMPDEST PUSH1 0x20 SWAP5 DUP6 DUP6 LT DUP5 EQ PUSH2 0x107C JUMPI DUP6 DUP8 SWAP5 DUP7 DUP7 MSTORE SWAP2 DUP3 PUSH1 0x0 EQ PUSH2 0x105C JUMPI POP POP PUSH1 0x1 EQ PUSH2 0x3522 JUMPI POP PUSH2 0xFE7 SWAP3 POP SUB DUP4 PUSH2 0x376E JUMP JUMPDEST DUP5 SWAP2 POP PUSH1 0x4 PUSH1 0x0 MSTORE PUSH32 0x8A35ACFBC15FF81A39AE7D344FD709F28E8600B4AA8C65C6B64BFE7FE36BD19B SWAP1 PUSH1 0x0 SWAP2 JUMPDEST DUP6 DUP4 LT PUSH2 0x3567 JUMPI POP POP PUSH2 0xFE7 SWAP4 POP DUP3 ADD ADD DUP6 PUSH2 0xFDA JUMP JUMPDEST DUP1 SLOAD DUP4 DUP10 ADD DUP6 ADD MSTORE DUP8 SWAP5 POP DUP7 SWAP4 SWAP1 SWAP3 ADD SWAP2 DUP2 ADD PUSH2 0x3550 JUMP JUMPDEST SWAP3 PUSH1 0x7F AND SWAP3 PUSH2 0x34F1 JUMP JUMPDEST CALLVALUE PUSH2 0x27B JUMPI PUSH1 0x20 CALLDATASIZE PUSH1 0x3 NOT ADD SLT PUSH2 0x27B JUMPI PUSH32 0xBEA1B31142AE4B1F4EFAD240349036D718B7950D246C127768097CCF602FC7E0 PUSH1 0x20 PUSH1 0x4 CALLDATALOAD PUSH2 0x35C8 PUSH2 0x3C95 JUMP JUMPDEST DUP1 PUSH1 0xD SSTORE PUSH1 0x40 MLOAD SWAP1 DUP2 MSTORE LOG1 STOP JUMPDEST CALLVALUE PUSH2 0x27B JUMPI PUSH1 0x0 CALLDATASIZE PUSH1 0x3 NOT ADD SLT PUSH2 0x27B JUMPI PUSH1 0x20 PUSH2 0x114B PUSH1 0x3 SLOAD PUSH2 0x3165 DUP2 ISZERO ISZERO PUSH2 0x3C49 JUMP JUMPDEST PUSH1 0x0 JUMPDEST DUP4 DUP2 LT PUSH2 0x360C JUMPI POP POP PUSH1 0x0 SWAP2 ADD MSTORE JUMP JUMPDEST DUP2 DUP2 ADD MLOAD DUP4 DUP3 ADD MSTORE PUSH1 0x20 ADD PUSH2 0x35FC JUMP JUMPDEST SWAP1 PUSH1 0x20 SWAP2 PUSH2 0x3635 DUP2 MLOAD DUP1 SWAP3 DUP2 DUP6 MSTORE DUP6 DUP1 DUP7 ADD SWAP2 ADD PUSH2 0x35F9 JUMP JUMPDEST PUSH1 0x1F ADD PUSH1 0x1F NOT AND ADD ADD SWAP1 JUMP JUMPDEST PUSH1 0x4 CALLDATALOAD SWAP1 PUSH1 0x1 PUSH1 0x1 PUSH1 0xA0 SHL SUB DUP3 AND DUP3 SUB PUSH2 0x27B JUMPI JUMP JUMPDEST PUSH1 0x24 CALLDATALOAD SWAP1 PUSH1 0x1 PUSH1 0x1 PUSH1 0xA0 SHL SUB DUP3 AND DUP3 SUB PUSH2 0x27B JUMPI JUMP JUMPDEST CALLDATALOAD SWAP1 PUSH1 0x1 PUSH1 0x1 PUSH1 0xA0 SHL SUB DUP3 AND DUP3 SUB PUSH2 0x27B JUMPI JUMP JUMPDEST SWAP2 DUP2 PUSH1 0x1F DUP5 ADD SLT ISZERO PUSH2 0x27B JUMPI DUP3 CALLDATALOAD SWAP2 PUSH8 0xFFFFFFFFFFFFFFFF DUP4 GT PUSH2 0x27B JUMPI PUSH1 0x20 DUP1 DUP6 ADD SWAP5 DUP5 PUSH1 0x5 SHL ADD ADD GT PUSH2 0x27B JUMPI JUMP JUMPDEST PUSH1 0x40 PUSH1 0x3 NOT DUP3 ADD SLT PUSH2 0x27B JUMPI PUSH8 0xFFFFFFFFFFFFFFFF SWAP2 PUSH1 0x4 CALLDATALOAD DUP4 DUP2 GT PUSH2 0x27B JUMPI DUP3 PUSH2 0x36DF SWAP2 PUSH1 0x4 ADD PUSH2 0x3681 JUMP JUMPDEST SWAP4 SWAP1 SWAP4 SWAP3 PUSH1 0x24 CALLDATALOAD SWAP2 DUP3 GT PUSH2 0x27B JUMPI PUSH2 0x36F9 SWAP2 PUSH1 0x4 ADD PUSH2 0x3681 JUMP JUMPDEST SWAP1 SWAP2 JUMP JUMPDEST PUSH2 0x100 DUP2 ADD SWAP1 DUP2 LT PUSH8 0xFFFFFFFFFFFFFFFF DUP3 GT OR PUSH2 0x73B JUMPI PUSH1 0x40 MSTORE JUMP JUMPDEST PUSH1 0xA0 DUP2 ADD SWAP1 DUP2 LT PUSH8 0xFFFFFFFFFFFFFFFF DUP3 GT OR PUSH2 0x73B JUMPI PUSH1 0x40 MSTORE JUMP JUMPDEST PUSH1 0x40 DUP2 ADD SWAP1 DUP2 LT PUSH8 0xFFFFFFFFFFFFFFFF DUP3 GT OR PUSH2 0x73B JUMPI PUSH1 0x40 MSTORE JUMP JUMPDEST PUSH1 0x80 DUP2 ADD SWAP1 DUP2 LT PUSH8 0xFFFFFFFFFFFFFFFF DUP3 GT OR PUSH2 0x73B JUMPI PUSH1 0x40 MSTORE JUMP JUMPDEST SWAP1 PUSH1 0x1F DUP1 NOT SWAP2 ADD AND DUP2 ADD SWAP1 DUP2 LT PUSH8 0xFFFFFFFFFFFFFFFF DUP3 GT OR PUSH2 0x73B JUMPI PUSH1 0x40 MSTORE JUMP JUMPDEST SWAP1 PUSH8 0xDE0B6B3A7640000 SWAP2 DUP1 DUP4 MUL SWAP3 DUP4 DIV SUB PUSH2 0x2B67 JUMPI JUMP JUMPDEST DUP2 DUP2 MUL SWAP3 SWAP2 DUP2 ISZERO SWAP2 DUP5 DIV EQ OR ISZERO PUSH2 0x2B67 JUMPI JUMP JUMPDEST ISZERO PUSH2 0x37C2 JUMPI JUMP JUMPDEST PUSH1 0x40 MLOAD PUSH3 0x461BCD PUSH1 0xE5 SHL DUP2 MSTORE PUSH1 0x20 PUSH1 0x4 DUP3 ADD MSTORE PUSH1 0x2C PUSH1 0x24 DUP3 ADD MSTORE PUSH32 0x417262697472616765206661696C65643A20696E73756666696369656E74206F PUSH1 0x44 DUP3 ADD MSTORE PUSH12 0x1D5D1C1D5D08185B5BDD5B9D PUSH1 0xA2 SHL PUSH1 0x64 DUP3 ADD MSTORE PUSH1 0x84 SWAP1 REVERT JUMPDEST ISZERO PUSH2 0x3823 JUMPI JUMP JUMPDEST PUSH1 0x40 MLOAD PUSH3 0x461BCD PUSH1 0xE5 SHL DUP2 MSTORE PUSH1 0x20 PUSH1 0x4 DUP3 ADD MSTORE PUSH1 0x18 PUSH1 0x24 DUP3 ADD MSTORE PUSH32 0x41726269747261676520646964206E6F742070726F6669740000000000000000 PUSH1 0x44 DUP3 ADD MSTORE PUSH1 0x64 SWAP1 REVERT JUMPDEST DUP2 ISZERO PUSH2 0x3872 JUMPI DIV SWAP1 JUMP JUMPDEST PUSH4 0x4E487B71 PUSH1 0xE0 SHL PUSH1 0x0 MSTORE PUSH1 0x12 PUSH1 0x4 MSTORE PUSH1 0x24 PUSH1 0x0 REVERT JUMPDEST SWAP2 SWAP1 DUP2 LT ISZERO PUSH2 0x3898 JUMPI PUSH1 0x5 SHL ADD SWAP1 JUMP JUMPDEST PUSH4 0x4E487B71 PUSH1 0xE0 SHL PUSH1 0x0 MSTORE PUSH1 0x32 PUSH1 0x4 MSTORE PUSH1 0x24 PUSH1 0x0 REVERT JUMPDEST CALLDATALOAD PUSH1 0x1 PUSH1 0x1 PUSH1 0xA0 SHL SUB DUP2 AND DUP2 SUB PUSH2 0x27B JUMPI SWAP1 JUMP JUMPDEST SWAP2 SWAP1 DUP3 ADD DUP1 SWAP3 GT PUSH2 0x2B67 JUMPI JUMP JUMPDEST PUSH8 0xFFFFFFFFFFFFFFFF DUP2 GT PUSH2 0x73B JUMPI PUSH1 0x5 SHL PUSH1 0x20 ADD SWAP1 JUMP JUMPDEST SWAP1 PUSH2 0x38F1 DUP3 PUSH2 0x38CF JUMP JUMPDEST PUSH2 0x38FE PUSH1 0x40 MLOAD SWAP2 DUP3 PUSH2 0x376E JUMP JUMPDEST DUP3 DUP2 MSTORE DUP1 SWAP3 PUSH2 0x390F PUSH1 0x1F NOT SWAP2 PUSH2 0x38CF JUMP JUMPDEST ADD SWAP1 PUSH1 0x20 CALLDATASIZE SWAP2 ADD CALLDATACOPY JUMP JUMPDEST SWAP1 DUP2 PUSH1 0x20 SWAP2 SUB SLT PUSH2 0x27B JUMPI MLOAD PUSH1 0xFF DUP2 AND DUP2 SUB PUSH2 0x27B JUMPI SWAP1 JUMP JUMPDEST SWAP2 SWAP1 DUP3 SUB SWAP2 DUP3 GT PUSH2 0x2B67 JUMPI JUMP JUMPDEST PUSH1 0x4D DUP2 GT PUSH2 0x2B67 JUMPI PUSH1 0xA EXP SWAP1 JUMP JUMPDEST DUP1 MLOAD DUP3 LT ISZERO PUSH2 0x3898 JUMPI PUSH1 0x20 SWAP2 PUSH1 0x5 SHL ADD ADD SWAP1 JUMP JUMPDEST PUSH1 0x0 NOT DUP2 EQ PUSH2 0x2B67 JUMPI PUSH1 0x1 ADD SWAP1 JUMP JUMPDEST SWAP1 DUP2 PUSH1 0x20 SWAP2 SUB SLT PUSH2 0x27B JUMPI MLOAD DUP1 ISZERO ISZERO DUP2 SUB PUSH2 0x27B JUMPI SWAP1 JUMP JUMPDEST SWAP1 DUP2 PUSH1 0x20 SWAP2 SUB SLT PUSH2 0x27B JUMPI MLOAD PUSH1 0x1 PUSH1 0x1 PUSH1 0xA0 SHL SUB DUP2 AND DUP2 SUB PUSH2 0x27B JUMPI SWAP1 JUMP JUMPDEST ISZERO PUSH2 0x39AE JUMPI JUMP JUMPDEST PUSH1 0x40 MLOAD PUSH3 0x461BCD PUSH1 0xE5 SHL DUP2 MSTORE PUSH1 0x20 PUSH1 0x4 DUP3 ADD MSTORE PUSH1 0x17 PUSH1 0x24 DUP3 ADD MSTORE PUSH32 0x53776170204661696C65642C20547279204275726E2829000000000000000000 PUSH1 0x44 DUP3 ADD MSTORE PUSH1 0x64 SWAP1 REVERT JUMPDEST SWAP2 SWAP1 PUSH2 0x39FD PUSH2 0x3CC1 JUMP JUMPDEST PUSH2 0x3A06 DUP4 PUSH2 0x46F9 JUMP JUMPDEST PUSH1 0x1 PUSH1 0x1 PUSH1 0xA0 SHL SUB DUP1 SWAP4 AND SWAP1 PUSH1 0x0 SWAP4 DUP3 DUP6 MSTORE PUSH1 0x20 SWAP1 PUSH1 0xC DUP3 MSTORE PUSH1 0x40 DUP7 KECCAK256 SLOAD SWAP4 PUSH2 0x3A30 DUP6 ISZERO ISZERO PUSH2 0x3AF6 JUMP JUMPDEST DUP7 MSTORE PUSH1 0xC DUP3 MSTORE PUSH1 0x40 DUP1 DUP8 KECCAK256 DUP8 SWAP1 SSTORE MLOAD PUSH4 0xA9059CBB PUSH1 0xE0 SHL DUP2 MSTORE PUSH1 0x1 PUSH1 0x1 PUSH1 0xA0 SHL SUB DUP5 AND PUSH1 0x4 DUP3 ADD MSTORE PUSH1 0x24 DUP2 ADD DUP6 SWAP1 MSTORE DUP3 DUP2 PUSH1 0x44 DUP2 DUP11 PUSH32 0x0 DUP8 AND GAS CALL DUP1 ISZERO PUSH2 0x3AEB JUMPI PUSH32 0x106F923F993C2149D49B4255FF723ACAFA1F2D94393F561D3EDA32AE348F7241 SWAP5 SWAP6 SWAP7 SWAP8 POP PUSH2 0x3ACE JUMPI JUMPDEST POP PUSH1 0x40 MLOAD SWAP4 DUP6 DUP6 MSTORE AND SWAP3 LOG2 SWAP1 PUSH1 0x1 PUSH1 0x6 SSTORE JUMP JUMPDEST PUSH2 0x3AE4 SWAP1 DUP4 RETURNDATASIZE DUP6 GT PUSH2 0x64F JUMPI PUSH2 0x640 DUP2 DUP4 PUSH2 0x376E JUMP JUMPDEST POP CODESIZE PUSH2 0x3ABB JUMP JUMPDEST PUSH1 0x40 MLOAD RETURNDATASIZE DUP10 DUP3 RETURNDATACOPY RETURNDATASIZE SWAP1 REVERT JUMPDEST ISZERO PUSH2 0x3AFD JUMPI JUMP JUMPDEST PUSH1 0x40 MLOAD PUSH3 0x461BCD PUSH1 0xE5 SHL DUP2 MSTORE PUSH1 0x20 PUSH1 0x4 DUP3 ADD MSTORE PUSH1 0x13 PUSH1 0x24 DUP3 ADD MSTORE PUSH32 0x4E6F207265776172647320746F20636C61696D00000000000000000000000000 PUSH1 0x44 DUP3 ADD MSTORE PUSH1 0x64 SWAP1 REVERT JUMPDEST ISZERO PUSH2 0x3B49 JUMPI JUMP JUMPDEST PUSH1 0x40 MLOAD PUSH3 0x461BCD PUSH1 0xE5 SHL DUP2 MSTORE PUSH1 0x20 PUSH1 0x4 DUP3 ADD MSTORE PUSH1 0x10 PUSH1 0x24 DUP3 ADD MSTORE PUSH16 0x125B9CDD59999A58DA595B9D08109053 PUSH1 0x82 SHL PUSH1 0x44 DUP3 ADD MSTORE PUSH1 0x64 SWAP1 REVERT JUMPDEST ISZERO PUSH2 0x3B88 JUMPI JUMP JUMPDEST PUSH1 0x40 MLOAD PUSH3 0x461BCD PUSH1 0xE5 SHL DUP2 MSTORE PUSH1 0x20 PUSH1 0x4 DUP3 ADD MSTORE PUSH1 0x22 PUSH1 0x24 DUP3 ADD MSTORE PUSH32 0x546F74616C2042414C554E4920737570706C792063616E6E6F74206265207A65 PUSH1 0x44 DUP3 ADD MSTORE PUSH2 0x726F PUSH1 0xF0 SHL PUSH1 0x64 DUP3 ADD MSTORE PUSH1 0x84 SWAP1 REVERT JUMPDEST SWAP1 PUSH1 0xFF DUP1 SWAP2 AND SWAP2 AND SUB SWAP1 PUSH1 0xFF DUP3 GT PUSH2 0x2B67 JUMPI JUMP JUMPDEST PUSH1 0xFF AND PUSH1 0x4D DUP2 GT PUSH2 0x2B67 JUMPI PUSH1 0xA EXP SWAP1 JUMP JUMPDEST ISZERO PUSH2 0x3C04 JUMPI JUMP JUMPDEST PUSH1 0x40 MLOAD PUSH3 0x461BCD PUSH1 0xE5 SHL DUP2 MSTORE PUSH1 0x20 PUSH1 0x4 DUP3 ADD MSTORE PUSH1 0x19 PUSH1 0x24 DUP3 ADD MSTORE PUSH32 0x436865636B2074686520746F6B656E20616C6C6F77616E636500000000000000 PUSH1 0x44 DUP3 ADD MSTORE PUSH1 0x64 SWAP1 REVERT JUMPDEST ISZERO PUSH2 0x3C50 JUMPI JUMP JUMPDEST PUSH1 0x40 MLOAD PUSH3 0x461BCD PUSH1 0xE5 SHL DUP2 MSTORE PUSH1 0x20 PUSH1 0x4 DUP3 ADD MSTORE PUSH1 0x1B PUSH1 0x24 DUP3 ADD MSTORE PUSH32 0x546F74616C20737570706C792063616E6E6F74206265207A65726F0000000000 PUSH1 0x44 DUP3 ADD MSTORE PUSH1 0x64 SWAP1 REVERT JUMPDEST PUSH1 0x1 PUSH1 0x1 PUSH1 0xA0 SHL SUB PUSH1 0x0 SLOAD AND CALLER SUB PUSH2 0x3CA9 JUMPI JUMP JUMPDEST PUSH1 0x40 MLOAD PUSH4 0x118CDAA7 PUSH1 0xE0 SHL DUP2 MSTORE CALLER PUSH1 0x4 DUP3 ADD MSTORE PUSH1 0x24 SWAP1 REVERT JUMPDEST PUSH1 0x2 PUSH1 0x6 SLOAD EQ PUSH2 0x3CD2 JUMPI PUSH1 0x2 PUSH1 0x6 SSTORE JUMP JUMPDEST PUSH1 0x40 MLOAD PUSH4 0x3EE5AEB5 PUSH1 0xE0 SHL DUP2 MSTORE PUSH1 0x4 SWAP1 REVERT JUMPDEST PUSH1 0x40 DUP1 MLOAD PUSH4 0x6EB1769F PUSH1 0xE1 SHL DUP2 MSTORE ADDRESS PUSH1 0x4 DUP3 ADD MSTORE PUSH1 0x1 PUSH1 0x1 PUSH1 0xA0 SHL SUB DUP4 AND PUSH1 0x24 DUP3 ADD MSTORE PUSH1 0x20 SWAP4 PUSH1 0x0 DUP1 MLOAD PUSH1 0x20 PUSH2 0x535B DUP4 CODECOPY DUP2 MLOAD SWAP2 MSTORE DUP6 DUP4 PUSH1 0x44 DUP2 DUP5 GAS STATICCALL SWAP3 DUP4 ISZERO PUSH2 0x3E5D JUMPI PUSH1 0x0 SWAP4 PUSH2 0x3E2E JUMPI JUMPDEST POP DUP2 DUP4 SUB PUSH2 0x3D41 JUMPI JUMPDEST POP POP POP POP POP POP JUMP JUMPDEST DUP6 SWAP3 PUSH2 0x3DB9 JUMPI JUMPDEST DUP4 MLOAD PUSH4 0x95EA7B3 PUSH1 0xE0 SHL DUP2 MSTORE PUSH1 0x1 PUSH1 0x1 PUSH1 0xA0 SHL SUB SWAP1 SWAP6 AND PUSH1 0x4 DUP7 ADD MSTORE PUSH1 0x24 DUP6 ADD SWAP2 SWAP1 SWAP2 MSTORE DUP4 SWAP1 DUP2 PUSH1 0x0 DUP2 PUSH1 0x44 DUP2 ADD JUMPDEST SUB SWAP3 GAS CALL SWAP1 DUP2 ISZERO PUSH2 0x3DAF JUMPI POP PUSH2 0x3D91 JUMPI JUMPDEST DUP1 DUP1 DUP1 DUP1 PUSH2 0x3D39 JUMP JUMPDEST DUP2 PUSH2 0x3DA7 SWAP3 SWAP1 RETURNDATASIZE LT PUSH2 0x64F JUMPI PUSH2 0x640 DUP2 DUP4 PUSH2 0x376E JUMP JUMPDEST POP CODESIZE DUP1 PUSH2 0x3D88 JUMP JUMPDEST MLOAD RETURNDATASIZE PUSH1 0x0 DUP3 RETURNDATACOPY RETURNDATASIZE SWAP1 REVERT JUMPDEST SWAP2 POP SWAP2 SWAP3 DUP4 MLOAD PUSH4 0x95EA7B3 PUSH1 0xE0 SHL DUP2 MSTORE PUSH1 0x1 PUSH1 0x1 PUSH1 0xA0 SHL SUB DUP3 AND PUSH1 0x4 DUP3 ADD MSTORE PUSH1 0x0 PUSH1 0x24 DUP3 ADD MSTORE DUP6 DUP2 PUSH1 0x44 DUP2 PUSH1 0x0 DUP8 GAS CALL DUP1 ISZERO PUSH2 0x3E23 JUMPI SWAP2 DUP7 SWAP4 SWAP2 PUSH2 0x3D77 SWAP7 SWAP6 SWAP4 PUSH2 0x3E06 JUMPI JUMPDEST POP SWAP5 POP PUSH2 0x3D48 JUMP JUMPDEST PUSH2 0x3E1C SWAP1 DUP6 RETURNDATASIZE DUP8 GT PUSH2 0x64F JUMPI PUSH2 0x640 DUP2 DUP4 PUSH2 0x376E JUMP JUMPDEST POP CODESIZE PUSH2 0x3DFE JUMP JUMPDEST DUP6 MLOAD RETURNDATASIZE PUSH1 0x0 DUP3 RETURNDATACOPY RETURNDATASIZE SWAP1 REVERT JUMPDEST SWAP1 SWAP3 POP DUP6 DUP2 DUP2 RETURNDATASIZE DUP4 GT PUSH2 0x3E56 JUMPI JUMPDEST PUSH2 0x3E46 DUP2 DUP4 PUSH2 0x376E JUMP JUMPDEST DUP2 ADD SUB SLT PUSH2 0x27B JUMPI MLOAD SWAP2 CODESIZE PUSH2 0x3D30 JUMP JUMPDEST POP RETURNDATASIZE PUSH2 0x3E3C JUMP JUMPDEST DUP5 MLOAD RETURNDATASIZE PUSH1 0x0 DUP3 RETURNDATACOPY RETURNDATASIZE SWAP1 REVERT JUMPDEST PUSH1 0x40 DUP1 MLOAD PUSH4 0x6EB1769F PUSH1 0xE1 SHL DUP2 MSTORE ADDRESS PUSH1 0x4 DUP3 ADD MSTORE PUSH1 0x1 PUSH1 0x1 PUSH1 0xA0 SHL SUB DUP5 DUP2 AND PUSH1 0x24 DUP4 ADD MSTORE PUSH1 0x20 SWAP6 SWAP1 SWAP5 SWAP3 SWAP4 SWAP2 SWAP3 SWAP1 SWAP2 DUP6 AND SWAP1 DUP7 DUP5 PUSH1 0x44 DUP2 DUP6 GAS STATICCALL SWAP4 DUP5 ISZERO PUSH2 0x3E23 JUMPI PUSH1 0x0 SWAP5 PUSH2 0x3F98 JUMPI JUMPDEST POP DUP3 DUP5 SUB PUSH2 0x3EC3 JUMPI JUMPDEST POP POP POP POP POP POP POP JUMP JUMPDEST DUP7 SWAP4 PUSH2 0x3F35 JUMPI JUMPDEST DUP5 MLOAD PUSH4 0x95EA7B3 PUSH1 0xE0 SHL DUP2 MSTORE PUSH1 0x1 PUSH1 0x1 PUSH1 0xA0 SHL SUB SWAP1 SWAP2 AND PUSH1 0x4 DUP3 ADD MSTORE PUSH1 0x24 DUP2 ADD SWAP3 SWAP1 SWAP3 MSTORE SWAP1 SWAP4 POP DUP4 SWAP1 DUP2 PUSH1 0x0 DUP2 PUSH1 0x44 DUP2 ADD JUMPDEST SUB SWAP3 GAS CALL SWAP1 DUP2 ISZERO PUSH2 0x3DAF JUMPI POP PUSH2 0x3F17 JUMPI JUMPDEST DUP1 DUP1 DUP1 DUP1 DUP1 PUSH2 0x3EBA JUMP JUMPDEST DUP2 PUSH2 0x3F2D SWAP3 SWAP1 RETURNDATASIZE LT PUSH2 0x64F JUMPI PUSH2 0x640 DUP2 DUP4 PUSH2 0x376E JUMP JUMPDEST POP CODESIZE DUP1 PUSH2 0x3F0D JUMP JUMPDEST SWAP2 SWAP4 DUP1 SWAP6 SWAP2 SWAP4 POP MLOAD SWAP1 PUSH4 0x95EA7B3 PUSH1 0xE0 SHL DUP3 MSTORE DUP3 AND PUSH1 0x4 DUP3 ADD MSTORE PUSH1 0x0 PUSH1 0x24 DUP3 ADD MSTORE DUP6 DUP2 PUSH1 0x44 DUP2 PUSH1 0x0 DUP8 GAS CALL DUP1 ISZERO PUSH2 0x3E23 JUMPI SWAP2 DUP7 SWAP4 SWAP2 PUSH2 0x3EFC SWAP7 SWAP6 SWAP4 PUSH2 0x3F7B JUMPI JUMPDEST POP PUSH2 0x3ECA JUMP JUMPDEST PUSH2 0x3F91 SWAP1 DUP6 RETURNDATASIZE DUP8 GT PUSH2 0x64F JUMPI PUSH2 0x640 DUP2 DUP4 PUSH2 0x376E JUMP JUMPDEST POP CODESIZE PUSH2 0x3F75 JUMP JUMPDEST SWAP1 SWAP4 POP DUP7 DUP2 DUP2 RETURNDATASIZE DUP4 GT PUSH2 0x3FC0 JUMPI JUMPDEST PUSH2 0x3FB0 DUP2 DUP4 PUSH2 0x376E JUMP JUMPDEST DUP2 ADD SUB SLT PUSH2 0x27B JUMPI MLOAD SWAP3 CODESIZE PUSH2 0x3EB1 JUMP JUMPDEST POP RETURNDATASIZE PUSH2 0x3FA6 JUMP JUMPDEST SWAP1 PUSH1 0x40 MLOAD PUSH2 0x3FD4 DUP2 PUSH2 0x36FD JUMP JUMPDEST PUSH1 0x1 PUSH1 0x1 PUSH1 0xA0 SHL SUB DUP1 SWAP4 AND DUP2 MSTORE DUP3 DUP1 PUSH1 0x20 DUP4 ADD PUSH1 0x0 DUP1 MLOAD PUSH1 0x20 PUSH2 0x535B DUP4 CODECOPY DUP2 MLOAD SWAP2 MSTORE DUP2 MSTORE PUSH1 0x40 DUP5 ADD SWAP5 PUSH2 0xBB8 DUP7 MSTORE DUP3 PUSH1 0x60 DUP7 ADD SWAP9 AND DUP9 MSTORE PUSH1 0x80 DUP6 ADD SWAP1 TIMESTAMP DUP3 MSTORE PUSH1 0xA0 DUP7 ADD SWAP1 DUP2 MSTORE PUSH1 0xC0 DUP7 ADD SWAP2 DUP5 PUSH1 0x0 SWAP11 DUP12 SWAP10 DUP11 DUP7 MSTORE DUP3 PUSH1 0xE0 DUP12 ADD SWAP8 DUP13 DUP10 MSTORE PUSH1 0x40 MLOAD SWAP14 DUP15 SWAP13 DUP14 PUSH4 0x414BF389 PUSH1 0xE0 SHL SWAP1 MSTORE MLOAD AND PUSH1 0x4 DUP14 ADD MSTORE MLOAD AND PUSH1 0x24 DUP12 ADD MSTORE MLOAD PUSH3 0xFFFFFF AND PUSH1 0x44 DUP11 ADD MSTORE MLOAD AND PUSH1 0x64 DUP9 ADD MSTORE MLOAD PUSH1 0x84 DUP8 ADD MSTORE MLOAD PUSH1 0xA4 DUP7 ADD MSTORE MLOAD PUSH1 0xC4 DUP6 ADD MSTORE MLOAD AND PUSH1 0xE4 DUP4 ADD MSTORE PUSH32 0x0 AND DUP2 GAS SWAP4 PUSH2 0x104 SWAP3 PUSH1 0x20 SWAP6 CALL SWAP2 DUP3 ISZERO PUSH2 0x40EE JUMPI DUP1 SWAP3 PUSH2 0x40BA JUMPI POP POP SWAP1 JUMP JUMPDEST SWAP1 SWAP2 POP PUSH1 0x20 DUP3 RETURNDATASIZE PUSH1 0x20 GT PUSH2 0x40E6 JUMPI JUMPDEST DUP2 PUSH2 0x40D6 PUSH1 0x20 SWAP4 DUP4 PUSH2 0x376E JUMP JUMPDEST DUP2 ADD SUB SLT PUSH2 0x40E3 JUMPI POP MLOAD SWAP1 JUMP JUMPDEST DUP1 REVERT JUMPDEST RETURNDATASIZE SWAP2 POP PUSH2 0x40C9 JUMP JUMPDEST PUSH1 0x40 MLOAD SWAP1 RETURNDATASIZE SWAP1 DUP3 RETURNDATACOPY RETURNDATASIZE SWAP1 REVERT JUMPDEST SWAP1 PUSH1 0x40 MLOAD PUSH2 0x4107 DUP2 PUSH2 0x36FD JUMP JUMPDEST PUSH1 0x0 DUP1 MLOAD PUSH1 0x20 PUSH2 0x535B DUP4 CODECOPY DUP2 MLOAD SWAP2 MSTORE DUP2 MSTORE PUSH1 0x20 DUP2 ADD SWAP3 PUSH1 0x1 PUSH1 0x1 PUSH1 0xA0 SHL SUB DUP1 SWAP5 DUP2 DUP1 SWAP4 AND DUP2 MSTORE PUSH1 0x40 DUP5 ADD SWAP5 PUSH2 0xBB8 DUP7 MSTORE DUP3 PUSH1 0x60 DUP7 ADD SWAP9 AND DUP9 MSTORE PUSH1 0x80 DUP6 ADD SWAP1 TIMESTAMP DUP3 MSTORE PUSH1 0xA0 DUP7 ADD SWAP1 DUP2 MSTORE PUSH1 0xC0 DUP7 ADD SWAP2 DUP5 PUSH1 0x0 SWAP11 DUP12 SWAP10 DUP11 DUP7 MSTORE DUP3 PUSH1 0xE0 DUP12 ADD SWAP8 DUP13 DUP10 MSTORE PUSH1 0x40 MLOAD SWAP14 DUP15 SWAP13 DUP14 PUSH4 0x414BF389 PUSH1 0xE0 SHL SWAP1 MSTORE MLOAD AND PUSH1 0x4 DUP14 ADD MSTORE MLOAD AND PUSH1 0x24 DUP12 ADD MSTORE MLOAD PUSH3 0xFFFFFF AND PUSH1 0x44 DUP11 ADD MSTORE MLOAD AND PUSH1 0x64 DUP9 ADD MSTORE MLOAD PUSH1 0x84 DUP8 ADD MSTORE MLOAD PUSH1 0xA4 DUP7 ADD MSTORE MLOAD PUSH1 0xC4 DUP6 ADD MSTORE MLOAD AND PUSH1 0xE4 DUP4 ADD MSTORE PUSH32 0x0 AND DUP2 GAS SWAP4 PUSH2 0x104 SWAP3 PUSH1 0x20 SWAP6 CALL SWAP2 DUP3 ISZERO PUSH2 0x40EE JUMPI DUP1 SWAP3 PUSH2 0x40BA JUMPI POP POP SWAP1 JUMP JUMPDEST SWAP2 PUSH1 0x1 PUSH1 0x1 PUSH1 0xA0 SHL SUB DUP1 DUP5 AND SWAP3 DUP4 ISZERO PUSH2 0x42B6 JUMPI AND SWAP3 DUP4 ISZERO PUSH2 0x429D JUMPI PUSH1 0x0 SWAP1 DUP4 DUP3 MSTORE PUSH1 0x1 PUSH1 0x20 MSTORE PUSH1 0x40 DUP3 KECCAK256 SLOAD SWAP1 DUP4 DUP3 LT PUSH2 0x426B JUMPI POP SWAP2 PUSH1 0x40 DUP3 DUP3 PUSH32 0xDDF252AD1BE2C89B69C2B068FC378DAA952BA7F163C4A11628F55A4DF523B3EF SWAP6 DUP8 PUSH1 0x20 SWAP7 MSTORE PUSH1 0x1 DUP7 MSTORE SUB DUP3 DUP3 KECCAK256 SSTORE DUP7 DUP2 MSTORE KECCAK256 DUP2 DUP2 SLOAD ADD SWAP1 SSTORE PUSH1 0x40 MLOAD SWAP1 DUP2 MSTORE LOG3 JUMP JUMPDEST PUSH1 0x40 MLOAD PUSH4 0x391434E3 PUSH1 0xE2 SHL DUP2 MSTORE PUSH1 0x1 PUSH1 0x1 PUSH1 0xA0 SHL SUB SWAP2 SWAP1 SWAP2 AND PUSH1 0x4 DUP3 ADD MSTORE PUSH1 0x24 DUP2 ADD SWAP2 SWAP1 SWAP2 MSTORE PUSH1 0x44 DUP2 ADD DUP4 SWAP1 MSTORE PUSH1 0x64 SWAP1 REVERT JUMPDEST PUSH1 0x40 MLOAD PUSH4 0xEC442F05 PUSH1 0xE0 SHL DUP2 MSTORE PUSH1 0x0 PUSH1 0x4 DUP3 ADD MSTORE PUSH1 0x24 SWAP1 REVERT JUMPDEST PUSH1 0x40 MLOAD PUSH4 0x4B637E8F PUSH1 0xE1 SHL DUP2 MSTORE PUSH1 0x0 PUSH1 0x4 DUP3 ADD MSTORE PUSH1 0x24 SWAP1 REVERT JUMPDEST PUSH1 0x0 DUP1 PUSH1 0x10 SLOAD JUMPDEST DUP1 DUP3 LT PUSH2 0x42E2 JUMPI POP POP SWAP1 JUMP JUMPDEST SWAP1 SWAP2 PUSH1 0x1 PUSH1 0x1 PUSH1 0xA0 SHL SUB PUSH2 0x42F5 DUP5 PUSH2 0x498A JUMP JUMPDEST SWAP1 SLOAD SWAP1 PUSH1 0x3 SHL SHR AND PUSH1 0x40 DUP1 MLOAD PUSH4 0x70A08231 PUSH1 0xE0 SHL DUP2 MSTORE ADDRESS PUSH1 0x4 DUP3 ADD MSTORE PUSH1 0x20 DUP1 DUP3 PUSH1 0x24 DUP2 DUP8 GAS STATICCALL SWAP3 DUP4 ISZERO PUSH2 0x3DAF JUMPI POP PUSH1 0x0 SWAP3 PUSH2 0x4345 JUMPI JUMPDEST POP POP SWAP2 PUSH2 0x1145 PUSH2 0x433D SWAP3 PUSH1 0x1 SWAP5 PUSH2 0x4378 JUMP JUMPDEST SWAP3 ADD SWAP1 PUSH2 0x42D6 JUMP JUMPDEST DUP2 DUP2 SWAP4 SWAP3 SWAP4 RETURNDATASIZE DUP4 GT PUSH2 0x4371 JUMPI JUMPDEST PUSH2 0x435C DUP2 DUP4 PUSH2 0x376E JUMP JUMPDEST DUP2 ADD SUB SLT PUSH2 0x40E3 JUMPI POP MLOAD PUSH2 0x1145 PUSH2 0x433D PUSH2 0x432B JUMP JUMPDEST POP RETURNDATASIZE PUSH2 0x4352 JUMP JUMPDEST PUSH1 0x40 MLOAD PUSH4 0x313CE567 PUSH1 0xE0 SHL DUP1 DUP3 MSTORE SWAP2 SWAP3 PUSH1 0x0 SWAP3 SWAP1 PUSH1 0x20 SWAP1 PUSH1 0x1 PUSH1 0x1 PUSH1 0xA0 SHL SUB SWAP1 DUP2 AND SWAP1 DUP3 DUP6 PUSH1 0x4 DUP2 DUP6 GAS STATICCALL SWAP5 DUP6 ISZERO PUSH2 0x453A JUMPI DUP7 SWAP6 PUSH2 0x451B JUMPI JUMPDEST POP PUSH1 0x40 MLOAD SWAP4 DUP5 MSTORE PUSH1 0x0 DUP1 MLOAD PUSH1 0x20 PUSH2 0x535B DUP4 CODECOPY DUP2 MLOAD SWAP2 MSTORE DUP4 DUP6 PUSH1 0x4 DUP2 DUP5 GAS STATICCALL SWAP5 DUP6 ISZERO PUSH2 0x3AEB JUMPI DUP8 SWAP6 PUSH2 0x44FC JUMPI JUMPDEST POP DUP3 EQ PUSH2 0x44C8 JUMPI PUSH1 0x40 MLOAD PUSH4 0x802431FB PUSH1 0xE0 SHL DUP2 MSTORE PUSH1 0x1 PUSH1 0x1 PUSH1 0xA0 SHL SUB SWAP3 SWAP1 SWAP3 AND PUSH1 0x4 DUP4 ADD MSTORE PUSH1 0x0 DUP1 MLOAD PUSH1 0x20 PUSH2 0x535B DUP4 CODECOPY DUP2 MLOAD SWAP2 MSTORE PUSH1 0x24 DUP4 ADD MSTORE PUSH1 0x0 PUSH1 0x44 DUP4 ADD MSTORE DUP3 SWAP1 DUP3 SWAP1 PUSH1 0x64 SWAP1 DUP3 SWAP1 PUSH32 0x0 AND GAS STATICCALL SWAP2 DUP6 SWAP1 DUP4 PUSH2 0x4495 JUMPI JUMPDEST POP POP POP PUSH2 0x4463 JUMPI POP POP POP POP PUSH1 0x0 SWAP1 JUMP JUMPDEST PUSH8 0xDE0B6B3A7640000 SWAP4 PUSH2 0x448B PUSH2 0x4484 PUSH2 0x191D PUSH2 0x1C14 SWAP5 PUSH2 0x4491 SWAP8 SWAP7 PUSH2 0x3BD8 JUMP JUMPDEST DUP1 SWAP3 PUSH2 0x37A8 JUMP JUMPDEST SWAP3 PUSH2 0x37A8 JUMP JUMPDEST DIV SWAP1 JUMP JUMPDEST SWAP1 SWAP2 DUP1 SWAP4 SWAP7 POP DUP2 RETURNDATASIZE DUP4 GT PUSH2 0x44C1 JUMPI JUMPDEST PUSH2 0x44AE DUP2 DUP4 PUSH2 0x376E JUMP JUMPDEST DUP2 ADD SUB SLT PUSH2 0x40E3 JUMPI POP MLOAD SWAP3 CODESIZE DUP1 DUP1 PUSH2 0x4453 JUMP JUMPDEST POP RETURNDATASIZE PUSH2 0x44A4 JUMP JUMPDEST POP POP POP POP POP PUSH5 0xE8D4A51000 SWAP2 DUP3 DUP2 MUL SWAP3 DUP2 DUP5 DIV EQ SWAP1 ISZERO OR ISZERO PUSH2 0x44E8 JUMPI POP SWAP1 JUMP JUMPDEST PUSH4 0x4E487B71 PUSH1 0xE0 SHL DUP2 MSTORE PUSH1 0x11 PUSH1 0x4 MSTORE PUSH1 0x24 SWAP1 REVERT JUMPDEST PUSH2 0x4514 SWAP2 SWAP6 POP DUP5 RETURNDATASIZE DUP7 GT PUSH2 0xC0D JUMPI PUSH2 0xBFF DUP2 DUP4 PUSH2 0x376E JUMP JUMPDEST SWAP4 CODESIZE PUSH2 0x43DD JUMP JUMPDEST PUSH2 0x4533 SWAP2 SWAP6 POP DUP4 RETURNDATASIZE DUP6 GT PUSH2 0xC0D JUMPI PUSH2 0xBFF DUP2 DUP4 PUSH2 0x376E JUMP JUMPDEST SWAP4 CODESIZE PUSH2 0x43B1 JUMP JUMPDEST PUSH1 0x40 MLOAD RETURNDATASIZE DUP9 DUP3 RETURNDATACOPY RETURNDATASIZE SWAP1 REVERT JUMPDEST SWAP2 SWAP1 PUSH2 0x4550 DUP2 PUSH2 0x38E7 JUMP JUMPDEST SWAP1 PUSH1 0x0 JUMPDEST DUP2 DUP2 LT PUSH2 0x4562 JUMPI POP SWAP1 SWAP3 POP POP JUMP JUMPDEST DUP1 PUSH2 0x456F PUSH1 0x1 SWAP3 DUP8 PUSH2 0x394D JUMP JUMPDEST MLOAD PUSH2 0x457A DUP3 DUP7 PUSH2 0x394D JUMP JUMPDEST MSTORE ADD PUSH2 0x4554 JUMP JUMPDEST SWAP1 SWAP2 PUSH1 0x40 MLOAD SWAP2 PUSH1 0x20 SWAP4 DUP5 SWAP2 PUSH12 0xFFFFFFFFFFFFFFFFFFFFFFFF NOT SWAP1 PUSH1 0x60 SHL AND DUP3 DUP6 ADD MSTORE PUSH2 0x177 PUSH1 0xEB SHL DUP1 PUSH1 0x34 DUP7 ADD MSTORE PUSH19 0xD500B1D8E8EF31E21C99D1DB9A6444D3ADF127 PUSH1 0x64 SHL PUSH1 0x37 DUP7 ADD MSTORE PUSH1 0x4B DUP6 ADD MSTORE PUSH20 0x9E46F287CB791987B6228C32669EA5126AA105D PUSH1 0x62 SHL PUSH1 0x4E DUP6 ADD MSTORE PUSH1 0x42 DUP5 MSTORE PUSH2 0x45FA DUP5 PUSH2 0x3752 JUMP JUMPDEST PUSH1 0x40 MLOAD SWAP4 PUSH2 0x4607 DUP6 PUSH2 0x371A JUMP JUMPDEST DUP5 MSTORE DUP2 DUP5 ADD SWAP3 PUSH2 0x4667 PUSH1 0x1 PUSH1 0x1 PUSH1 0xA0 SHL SUB SWAP3 DUP4 DUP1 SWAP4 AND DUP7 MSTORE PUSH1 0x40 DUP8 ADD SWAP7 TIMESTAMP DUP9 MSTORE PUSH1 0x60 DUP2 ADD SWAP2 DUP3 MSTORE PUSH1 0x80 DUP2 ADD SWAP7 PUSH1 0x0 SWAP8 DUP9 SWAP4 DUP5 DUP3 MSTORE PUSH1 0x40 MLOAD SWAP11 DUP12 SWAP9 DUP10 SWAP8 DUP9 SWAP7 PUSH4 0xC04B8D59 PUSH1 0xE0 SHL DUP9 MSTORE DUP13 PUSH1 0x4 DUP10 ADD MSTORE MLOAD PUSH1 0xA0 PUSH1 0x24 DUP10 ADD MSTORE PUSH1 0xC4 DUP9 ADD SWAP1 PUSH2 0x361C JUMP JUMPDEST SWAP5 MLOAD AND PUSH1 0x44 DUP7 ADD MSTORE MLOAD PUSH1 0x64 DUP6 ADD MSTORE MLOAD PUSH1 0x84 DUP5 ADD MSTORE MLOAD PUSH1 0xA4 DUP4 ADD MSTORE SUB SWAP3 PUSH32 0x0 AND GAS CALL SWAP3 DUP4 ISZERO PUSH2 0x46EC JUMPI DUP2 SWAP4 PUSH2 0x46BB JUMPI JUMPDEST POP POP POP SWAP1 JUMP JUMPDEST SWAP1 SWAP2 DUP1 SWAP4 POP DUP2 RETURNDATASIZE DUP4 GT PUSH2 0x46E5 JUMPI JUMPDEST PUSH2 0x46D3 DUP2 DUP4 PUSH2 0x376E JUMP JUMPDEST DUP2 ADD SUB SLT PUSH2 0x40E3 JUMPI POP MLOAD CODESIZE DUP1 DUP1 PUSH2 0x46B5 JUMP JUMPDEST POP RETURNDATASIZE PUSH2 0x46C9 JUMP JUMPDEST POP PUSH1 0x40 MLOAD SWAP1 RETURNDATASIZE SWAP1 DUP3 RETURNDATACOPY RETURNDATASIZE SWAP1 REVERT JUMPDEST PUSH1 0x1 PUSH1 0x1 PUSH1 0xA0 SHL SUB PUSH2 0x470A DUP3 PUSH2 0x4914 JUMP JUMPDEST SWAP2 AND SWAP1 DUP2 PUSH1 0x0 MSTORE PUSH1 0xC PUSH1 0x20 MSTORE PUSH2 0x4726 PUSH1 0x40 PUSH1 0x0 KECCAK256 SWAP2 DUP3 SLOAD PUSH2 0x38C2 JUMP JUMPDEST SWAP1 SSTORE PUSH1 0xA SLOAD SWAP1 PUSH1 0x0 MSTORE PUSH1 0xB PUSH1 0x20 MSTORE PUSH1 0x40 PUSH1 0x0 KECCAK256 SSTORE JUMP JUMPDEST PUSH1 0x1 PUSH1 0x1 PUSH1 0xA0 SHL SUB AND SWAP1 DUP2 ISZERO PUSH2 0x429D JUMPI PUSH32 0xDDF252AD1BE2C89B69C2B068FC378DAA952BA7F163C4A11628F55A4DF523B3EF PUSH1 0x20 DUP3 PUSH2 0x477E PUSH1 0x0 SWAP5 PUSH1 0x3 SLOAD PUSH2 0x38C2 JUMP JUMPDEST PUSH1 0x3 SSTORE DUP5 DUP5 MSTORE PUSH1 0x1 DUP3 MSTORE PUSH1 0x40 DUP5 KECCAK256 DUP2 DUP2 SLOAD ADD SWAP1 SSTORE PUSH1 0x40 MLOAD SWAP1 DUP2 MSTORE LOG3 JUMP JUMPDEST SWAP1 SWAP3 PUSH2 0x47A8 DUP3 ISZERO ISZERO PUSH2 0x3C49 JUMP JUMPDEST PUSH1 0x12 DUP2 GT PUSH2 0x47EA JUMPI PUSH1 0x12 DUP2 LT ISZERO PUSH2 0x47DB JUMPI PUSH1 0x12 SUB SWAP3 PUSH1 0x12 DUP5 GT PUSH2 0x2B67 JUMPI PUSH2 0x448B PUSH2 0x124F SWAP3 PUSH2 0x1C14 PUSH2 0x47D8 SWAP7 PUSH2 0x393F JUMP JUMPDEST SWAP1 JUMP JUMPDEST POP PUSH2 0x47D8 SWAP3 PUSH2 0x124F SWAP2 SWAP3 PUSH2 0x37A8 JUMP JUMPDEST PUSH1 0x40 MLOAD PUSH3 0x461BCD PUSH1 0xE5 SHL DUP2 MSTORE PUSH1 0x20 PUSH1 0x4 DUP3 ADD MSTORE PUSH1 0x1E PUSH1 0x24 DUP3 ADD MSTORE PUSH32 0x546F6B656E20646563696D616C732073686F756C64206265203C3D2031380000 PUSH1 0x44 DUP3 ADD MSTORE PUSH1 0x64 SWAP1 REVERT JUMPDEST SWAP2 SWAP1 PUSH1 0x1 PUSH1 0x1 PUSH1 0xA0 SHL SUB DUP4 AND SWAP1 DUP2 ISZERO PUSH2 0x42B6 JUMPI DUP2 PUSH1 0x0 MSTORE PUSH1 0x1 PUSH1 0x20 MSTORE PUSH1 0x40 PUSH1 0x0 KECCAK256 SLOAD SWAP4 DUP2 DUP6 LT PUSH2 0x48A1 JUMPI POP PUSH1 0x20 DUP2 PUSH32 0xDDF252AD1BE2C89B69C2B068FC378DAA952BA7F163C4A11628F55A4DF523B3EF SWAP3 PUSH1 0x0 SWAP6 SWAP7 DUP6 DUP8 MSTORE PUSH1 0x1 DUP5 MSTORE SUB PUSH1 0x40 DUP7 KECCAK256 SSTORE DUP1 PUSH1 0x3 SLOAD SUB PUSH1 0x3 SSTORE PUSH1 0x40 MLOAD SWAP1 DUP2 MSTORE LOG3 JUMP JUMPDEST PUSH1 0x40 MLOAD PUSH4 0x391434E3 PUSH1 0xE2 SHL DUP2 MSTORE PUSH1 0x1 PUSH1 0x1 PUSH1 0xA0 SHL SUB SWAP2 SWAP1 SWAP2 AND PUSH1 0x4 DUP3 ADD MSTORE PUSH1 0x24 DUP2 ADD DUP6 SWAP1 MSTORE PUSH1 0x44 DUP2 ADD SWAP2 SWAP1 SWAP2 MSTORE PUSH1 0x64 SWAP1 REVERT JUMPDEST PUSH1 0x9 SLOAD SWAP1 DUP2 PUSH2 0x48E0 JUMPI POP POP JUMP JUMPDEST PUSH8 0xDE0B6B3A7640000 SWAP1 DUP2 DUP2 MUL SWAP2 DUP2 DUP4 DIV EQ SWAP1 ISZERO OR ISZERO PUSH2 0x2B67 JUMPI PUSH2 0x490F SWAP2 PUSH2 0x4907 SWAP2 PUSH2 0x3868 JUMP JUMPDEST PUSH1 0xA SLOAD PUSH2 0x38C2 JUMP JUMPDEST PUSH1 0xA SSTORE JUMP JUMPDEST PUSH1 0x1 PUSH1 0x1 PUSH1 0xA0 SHL SUB AND PUSH8 0xDE0B6B3A7640000 PUSH2 0x497F PUSH1 0x0 DUP4 DUP2 MSTORE PUSH1 0x8 PUSH1 0x20 MSTORE PUSH2 0x497A PUSH2 0x4944 PUSH1 0x40 DUP4 KECCAK256 SLOAD TIMESTAMP PUSH2 0x3932 JUMP JUMPDEST PUSH4 0x1E13380 SWAP6 SWAP1 DUP7 DUP2 GT ISZERO PUSH2 0x4984 JUMPI POP DUP6 SWAP1 JUMPDEST DUP4 MSTORE PUSH1 0x7 PUSH1 0x20 MSTORE PUSH2 0x448B PUSH1 0x40 DUP5 KECCAK256 SLOAD SWAP4 PUSH1 0x40 PUSH1 0xA SLOAD SWAP2 PUSH1 0xB PUSH1 0x20 MSTORE KECCAK256 SLOAD SWAP1 PUSH2 0x3932 JUMP JUMPDEST PUSH2 0x37A8 JUMP JUMPDEST DIV DIV SWAP1 JUMP JUMPDEST SWAP1 PUSH2 0x4957 JUMP JUMPDEST PUSH1 0x10 SLOAD DUP2 LT ISZERO PUSH2 0x3898 JUMPI PUSH1 0x10 PUSH1 0x0 MSTORE PUSH32 0x1B6847DC741A1B0CD08D278845F9D819D87B734759AFB55FE2DE5CB82A9AE672 ADD SWAP1 PUSH1 0x0 SWAP1 JUMP JUMPDEST PUSH1 0x0 DUP2 DUP2 MSTORE PUSH1 0x11 PUSH1 0x20 MSTORE PUSH1 0x40 DUP2 KECCAK256 SLOAD PUSH2 0x4A59 JUMPI PUSH1 0x10 SLOAD PUSH9 0x10000000000000000 DUP2 LT ISZERO PUSH2 0x4A45 JUMPI PUSH1 0x1 DUP2 ADD DUP1 PUSH1 0x10 SSTORE DUP2 LT ISZERO PUSH2 0x4A31 JUMPI SWAP1 DUP3 PUSH1 0x40 SWAP3 PUSH32 0x1B6847DC741A1B0CD08D278845F9D819D87B734759AFB55FE2DE5CB82A9AE672 ADD SSTORE PUSH1 0x10 SLOAD SWAP3 DUP2 MSTORE PUSH1 0x11 PUSH1 0x20 MSTORE KECCAK256 SSTORE PUSH1 0x1 SWAP1 JUMP JUMPDEST PUSH4 0x4E487B71 PUSH1 0xE0 SHL DUP3 MSTORE PUSH1 0x32 PUSH1 0x4 MSTORE PUSH1 0x24 DUP3 REVERT JUMPDEST PUSH4 0x4E487B71 PUSH1 0xE0 SHL DUP3 MSTORE PUSH1 0x41 PUSH1 0x4 MSTORE PUSH1 0x24 DUP3 REVERT JUMPDEST SWAP1 POP SWAP1 JUMP JUMPDEST SWAP1 SWAP2 SWAP1 PUSH2 0x4A87 JUMPI POP DUP1 MLOAD ISZERO PUSH2 0x4A75 JUMPI DUP1 MLOAD SWAP1 PUSH1 0x20 ADD REVERT JUMPDEST PUSH1 0x40 MLOAD PUSH4 0xA12F521 PUSH1 0xE1 SHL DUP2 MSTORE PUSH1 0x4 SWAP1 REVERT JUMPDEST SWAP1 DUP1 MLOAD ISZERO DUP1 PUSH2 0x4ABE JUMPI JUMPDEST PUSH2 0x4A98 JUMPI SWAP1 JUMP JUMPDEST PUSH1 0x40 MLOAD PUSH4 0x9996B315 PUSH1 0xE0 SHL DUP2 MSTORE PUSH1 0x0 DUP1 MLOAD PUSH1 0x20 PUSH2 0x535B DUP4 CODECOPY DUP2 MLOAD SWAP2 MSTORE PUSH1 0x4 DUP3 ADD MSTORE PUSH1 0x24 SWAP1 REVERT JUMPDEST POP PUSH1 0x0 DUP1 MLOAD PUSH1 0x20 PUSH2 0x535B DUP4 CODECOPY DUP2 MLOAD SWAP2 MSTORE EXTCODESIZE ISZERO PUSH2 0x4A91 JUMP JUMPDEST SWAP1 PUSH2 0x4AEA JUMPI POP DUP1 MLOAD ISZERO PUSH2 0x4A75 JUMPI DUP1 MLOAD SWAP1 PUSH1 0x20 ADD REVERT JUMPDEST DUP2 MLOAD ISZERO DUP1 PUSH2 0x4B1D JUMPI JUMPDEST PUSH2 0x4AFB JUMPI POP SWAP1 JUMP JUMPDEST PUSH1 0x40 MLOAD PUSH4 0x9996B315 PUSH1 0xE0 SHL DUP2 MSTORE PUSH1 0x1 PUSH1 0x1 PUSH1 0xA0 SHL SUB SWAP1 SWAP2 AND PUSH1 0x4 DUP3 ADD MSTORE PUSH1 0x24 SWAP1 REVERT JUMPDEST POP DUP1 EXTCODESIZE ISZERO PUSH2 0x4AF3 JUMP INVALID PUSH1 0x80 CALLVALUE PUSH1 0xBC JUMPI PUSH1 0x1F PUSH2 0x834 CODESIZE DUP2 SWAP1 SUB SWAP2 DUP3 ADD PUSH1 0x1F NOT AND DUP4 ADD SWAP2 PUSH1 0x1 PUSH1 0x1 PUSH1 0x40 SHL SUB DUP4 GT DUP5 DUP5 LT OR PUSH1 0xC1 JUMPI DUP1 DUP5 SWAP3 PUSH1 0x40 SWAP5 DUP6 MSTORE DUP4 CODECOPY DUP2 ADD SUB SLT PUSH1 0xBC JUMPI PUSH1 0x4B PUSH1 0x20 PUSH1 0x45 DUP4 PUSH1 0xD7 JUMP JUMPDEST SWAP3 ADD PUSH1 0xD7 JUMP JUMPDEST PUSH1 0x1 PUSH1 0x1 PUSH1 0xA0 SHL SUB SWAP1 DUP2 AND SWAP2 SWAP1 CALLER DUP4 SWAP1 SUB PUSH1 0x89 JUMPI PUSH1 0x1 DUP1 PUSH1 0xA0 SHL SUB NOT SWAP2 AND DUP2 PUSH1 0x0 SLOAD AND OR PUSH1 0x0 SSTORE PUSH1 0x1 SLOAD AND OR PUSH1 0x1 SSTORE PUSH1 0x40 MLOAD PUSH2 0x749 SWAP1 DUP2 PUSH2 0xEB DUP3 CODECOPY RETURN JUMPDEST PUSH1 0x40 MLOAD PUSH3 0x461BCD PUSH1 0xE5 SHL DUP2 MSTORE PUSH1 0x20 PUSH1 0x4 DUP3 ADD MSTORE PUSH1 0xB PUSH1 0x24 DUP3 ADD MSTORE PUSH11 0x27B7363C902937BABA32B9 PUSH1 0xA9 SHL PUSH1 0x44 DUP3 ADD MSTORE PUSH1 0x64 SWAP1 REVERT JUMPDEST PUSH1 0x0 DUP1 REVERT JUMPDEST PUSH4 0x4E487B71 PUSH1 0xE0 SHL PUSH1 0x0 MSTORE PUSH1 0x41 PUSH1 0x4 MSTORE PUSH1 0x24 PUSH1 0x0 REVERT JUMPDEST MLOAD SWAP1 PUSH1 0x1 PUSH1 0x1 PUSH1 0xA0 SHL SUB DUP3 AND DUP3 SUB PUSH1 0xBC JUMPI JUMP INVALID PUSH1 0x80 PUSH1 0x40 DUP2 DUP2 MSTORE PUSH1 0x4 SWAP1 DUP2 CALLDATASIZE LT ISZERO PUSH2 0x16 JUMPI PUSH1 0x0 DUP1 REVERT JUMPDEST PUSH1 0x0 SWAP3 DUP4 CALLDATALOAD PUSH1 0xE0 SHR SWAP1 DUP2 PUSH4 0x8DA5CB5B EQ PUSH2 0x453 JUMPI POP DUP1 PUSH4 0xB0F479A1 EQ PUSH2 0x42B JUMPI PUSH4 0xEEDC3C50 EQ PUSH2 0x45 JUMPI PUSH1 0x0 DUP1 REVERT JUMPDEST CALLVALUE PUSH2 0x427 JUMPI DUP1 PUSH1 0x3 NOT CALLDATASIZE ADD SLT PUSH2 0x427 JUMPI PUSH8 0xFFFFFFFFFFFFFFFF SWAP1 DUP3 CALLDATALOAD DUP3 DUP2 GT PUSH2 0x3DC JUMPI PUSH2 0x75 SWAP1 CALLDATASIZE SWAP1 DUP6 ADD PUSH2 0x476 JUMP JUMPDEST SWAP2 SWAP1 SWAP4 PUSH1 0x24 DUP1 CALLDATALOAD DUP6 DUP2 GT PUSH2 0x423 JUMPI PUSH2 0x90 SWAP1 CALLDATASIZE SWAP1 DUP5 ADD PUSH2 0x476 JUMP JUMPDEST SWAP1 SWAP6 PUSH1 0x1 PUSH1 0x1 PUSH1 0xA0 SHL SUB SWAP6 PUSH1 0x1 SWAP9 DUP8 DUP11 SLOAD AND CALLER SUB PUSH2 0x3E0 JUMPI DUP11 JUMPDEST DUP3 DUP2 LT PUSH2 0x31C JUMPI POP POP POP POP DUP5 DUP8 SLOAD AND SWAP1 DUP5 MLOAD DUP1 SWAP3 PUSH4 0xC2FE7FF PUSH1 0xE1 SHL DUP3 MSTORE DUP2 DUP7 PUSH1 0x20 SWAP6 DUP7 SWAP4 GAS STATICCALL SWAP1 DUP2 ISZERO PUSH2 0x312 JUMPI DUP11 SWAP2 PUSH2 0x2E1 JUMPI JUMPDEST POP DUP9 DUP11 JUMPDEST DUP9 DUP11 DUP6 DUP1 DUP5 LT PUSH2 0x1FB JUMPI SWAP5 POP POP POP POP POP PUSH2 0xFB JUMPI DUP9 DUP1 RETURN JUMPDEST DUP9 DUP1 JUMPDEST DUP3 DUP2 LT PUSH2 0x10B JUMPI POP POP DUP9 DUP1 RETURN JUMPDEST DUP10 SWAP2 DUP9 PUSH2 0x121 PUSH2 0x11C DUP5 DUP8 DUP15 PUSH2 0x570 JUMP JUMPDEST PUSH2 0x4E4 JUMP JUMPDEST AND PUSH20 0xEEEEEEEEEEEEEEEEEEEEEEEEEEEEEEEEEEEEEEEE DUP2 SUB PUSH2 0x160 JUMPI POP POP SELFBALANCE PUSH2 0x14D JUMPI JUMPDEST ADD DUP10 SWAP1 PUSH2 0xFE JUMP JUMPDEST PUSH2 0x15B DUP9 DUP13 SLOAD AND SELFBALANCE SWAP1 PUSH2 0x66F JUMP JUMPDEST PUSH2 0x145 JUMP JUMPDEST DUP9 MLOAD PUSH4 0x70A08231 PUSH1 0xE0 SHL DUP2 MSTORE ADDRESS DUP10 DUP3 ADD MSTORE SWAP3 SWAP4 POP SWAP1 SWAP2 SWAP1 DUP6 DUP3 DUP9 DUP2 DUP5 GAS STATICCALL SWAP2 DUP3 ISZERO PUSH2 0x1F1 JUMPI SWAP1 DUP4 SWAP3 SWAP2 DUP14 SWAP6 SWAP5 SWAP3 PUSH2 0x1BB JUMPI JUMPDEST POP DUP11 PUSH1 0xA DUP4 GT PUSH2 0x1A6 JUMPI JUMPDEST POP POP POP POP PUSH2 0x145 JUMP JUMPDEST PUSH2 0x1B2 SWAP4 SLOAD AND SWAP1 PUSH2 0x5A9 JUMP JUMPDEST DUP11 CODESIZE DUP1 DUP11 PUSH2 0x19D JUMP JUMPDEST SWAP5 POP SWAP1 POP DUP6 DUP5 DUP2 RETURNDATASIZE DUP2 GT PUSH2 0x1EA JUMPI JUMPDEST PUSH2 0x1D4 DUP2 DUP4 PUSH2 0x4F8 JUMP JUMPDEST DUP2 ADD SUB SLT PUSH2 0x1E6 JUMPI DUP12 SWAP4 MLOAD SWAP1 CODESIZE PUSH2 0x192 JUMP JUMPDEST POP DUP1 REVERT JUMPDEST POP RETURNDATASIZE PUSH2 0x1CA JUMP JUMPDEST DUP10 MLOAD RETURNDATASIZE DUP6 DUP3 RETURNDATACOPY RETURNDATASIZE SWAP1 REVERT JUMPDEST DUP4 PUSH2 0x11C SWAP2 PUSH2 0x209 SWAP4 PUSH2 0x570 JUMP JUMPDEST AND PUSH20 0xEEEEEEEEEEEEEEEEEEEEEEEEEEEEEEEEEEEEEEEE DUP2 SUB PUSH2 0x248 JUMPI POP PUSH2 0x240 PUSH2 0x2710 PUSH2 0x236 DUP6 SELFBALANCE PUSH2 0x580 JUMP JUMPDEST DIV DUP11 DUP5 SLOAD AND PUSH2 0x66F JUMP JUMPDEST ADD DUP10 SWAP1 PUSH2 0xE3 JUMP JUMPDEST DUP9 MLOAD PUSH4 0x70A08231 PUSH1 0xE0 SHL DUP2 MSTORE ADDRESS DUP10 DUP3 ADD MSTORE SWAP2 SWAP3 POP SWAP1 DUP6 DUP2 DUP9 DUP2 DUP6 GAS STATICCALL SWAP1 DUP14 DUP3 ISZERO PUSH2 0x2D6 JUMPI DUP14 SWAP5 SWAP4 SWAP3 DUP7 SWAP3 SWAP1 PUSH2 0x29B JUMPI JUMPDEST POP PUSH2 0x28A PUSH2 0x296 SWAP4 SWAP3 PUSH2 0x2710 SWAP3 PUSH2 0x580 JUMP JUMPDEST DIV SWAP1 DUP12 DUP6 SLOAD AND SWAP1 PUSH2 0x5A9 JUMP JUMPDEST PUSH2 0x240 JUMP JUMPDEST SWAP3 SWAP5 POP POP POP DUP6 DUP2 DUP2 RETURNDATASIZE DUP4 GT PUSH2 0x2CF JUMPI JUMPDEST PUSH2 0x2B5 DUP2 DUP4 PUSH2 0x4F8 JUMP JUMPDEST DUP2 ADD SUB SLT PUSH2 0x2CB JUMPI MLOAD DUP12 SWAP3 SWAP1 DUP5 SWAP1 PUSH2 0x28A PUSH2 0x278 JUMP JUMPDEST DUP13 DUP1 REVERT JUMPDEST POP RETURNDATASIZE PUSH2 0x2AB JUMP JUMPDEST DUP11 MLOAD SWAP1 RETURNDATASIZE SWAP1 DUP3 RETURNDATACOPY RETURNDATASIZE SWAP1 REVERT JUMPDEST SWAP1 POP DUP3 DUP2 DUP2 RETURNDATASIZE DUP4 GT PUSH2 0x30B JUMPI JUMPDEST PUSH2 0x2F8 DUP2 DUP4 PUSH2 0x4F8 JUMP JUMPDEST DUP2 ADD SUB SLT PUSH2 0x307 JUMPI MLOAD CODESIZE PUSH2 0xDF JUMP JUMPDEST DUP10 DUP1 REVERT JUMPDEST POP RETURNDATASIZE PUSH2 0x2EE JUMP JUMPDEST DUP7 MLOAD RETURNDATASIZE DUP13 DUP3 RETURNDATACOPY RETURNDATASIZE SWAP1 REVERT JUMPDEST PUSH2 0x32A PUSH2 0x11C DUP3 DUP6 DUP6 PUSH2 0x4AC JUMP JUMPDEST DUP13 PUSH1 0x20 SWAP2 DUP3 PUSH2 0x33A DUP6 DUP9 DUP9 PUSH2 0x4AC JUMP JUMPDEST ADD CALLDATALOAD SWAP1 PUSH2 0x348 DUP6 DUP9 DUP9 PUSH2 0x4AC JUMP JUMPDEST DUP13 DUP2 ADD CALLDATALOAD SWAP1 PUSH1 0x1E NOT DUP2 CALLDATASIZE SUB ADD DUP3 SLT ISZERO PUSH2 0x3DC JUMPI ADD DUP1 CALLDATALOAD SWAP1 DUP10 DUP3 GT PUSH2 0x3DC JUMPI DUP6 ADD SWAP3 DUP2 CALLDATASIZE SUB DUP5 SGT PUSH2 0x3DC JUMPI DUP5 SWAP4 DUP3 DUP16 MLOAD SWAP4 DUP5 SWAP3 DUP4 CALLDATACOPY DUP2 ADD DUP6 DUP2 MSTORE SUB SWAP3 GAS CALL PUSH2 0x38D PUSH2 0x530 JUMP JUMPDEST POP ISZERO PUSH2 0x39B JUMPI POP DUP11 ADD PUSH2 0xAA JUMP JUMPDEST DUP8 PUSH1 0x11 DUP9 PUSH1 0x64 SWAP4 DUP13 MLOAD SWAP4 PUSH3 0x461BCD PUSH1 0xE5 SHL DUP6 MSTORE DUP5 ADD MSTORE DUP3 ADD MSTORE PUSH32 0x42617463682063616C6C206661696C6564000000000000000000000000000000 PUSH1 0x44 DUP3 ADD MSTORE REVERT JUMPDEST DUP5 DUP1 REVERT JUMPDEST DUP7 MLOAD PUSH3 0x461BCD PUSH1 0xE5 SHL DUP2 MSTORE PUSH1 0x20 DUP2 DUP9 ADD MSTORE PUSH1 0x1B PUSH1 0x24 DUP3 ADD MSTORE PUSH32 0x43616C6C61626C65206F6E6C792062792074686520726F757465720000000000 PUSH1 0x44 DUP3 ADD MSTORE PUSH1 0x64 SWAP1 REVERT JUMPDEST DUP8 DUP1 REVERT JUMPDEST DUP3 DUP1 REVERT JUMPDEST DUP4 DUP3 CALLVALUE PUSH2 0x1E6 JUMPI DUP2 PUSH1 0x3 NOT CALLDATASIZE ADD SLT PUSH2 0x1E6 JUMPI PUSH1 0x20 SWAP1 PUSH1 0x1 PUSH1 0x1 PUSH1 0xA0 SHL SUB PUSH1 0x1 SLOAD AND SWAP1 MLOAD SWAP1 DUP2 MSTORE RETURN JUMPDEST DUP5 SWAP1 CALLVALUE PUSH2 0x1E6 JUMPI DUP2 PUSH1 0x3 NOT CALLDATASIZE ADD SLT PUSH2 0x1E6 JUMPI PUSH1 0x1 PUSH1 0x1 PUSH1 0xA0 SHL SUB PUSH1 0x20 SWAP3 SLOAD AND DUP2 MSTORE RETURN JUMPDEST SWAP2 DUP2 PUSH1 0x1F DUP5 ADD SLT ISZERO PUSH2 0x4A7 JUMPI DUP3 CALLDATALOAD SWAP2 PUSH8 0xFFFFFFFFFFFFFFFF DUP4 GT PUSH2 0x4A7 JUMPI PUSH1 0x20 DUP1 DUP6 ADD SWAP5 DUP5 PUSH1 0x5 SHL ADD ADD GT PUSH2 0x4A7 JUMPI JUMP JUMPDEST PUSH1 0x0 DUP1 REVERT JUMPDEST SWAP2 SWAP1 DUP2 LT ISZERO PUSH2 0x4CE JUMPI PUSH1 0x5 SHL DUP2 ADD CALLDATALOAD SWAP1 PUSH1 0x5E NOT DUP2 CALLDATASIZE SUB ADD DUP3 SLT ISZERO PUSH2 0x4A7 JUMPI ADD SWAP1 JUMP JUMPDEST PUSH4 0x4E487B71 PUSH1 0xE0 SHL PUSH1 0x0 MSTORE PUSH1 0x32 PUSH1 0x4 MSTORE PUSH1 0x24 PUSH1 0x0 REVERT JUMPDEST CALLDATALOAD PUSH1 0x1 PUSH1 0x1 PUSH1 0xA0 SHL SUB DUP2 AND DUP2 SUB PUSH2 0x4A7 JUMPI SWAP1 JUMP JUMPDEST SWAP1 PUSH1 0x1F DUP1 NOT SWAP2 ADD AND DUP2 ADD SWAP1 DUP2 LT PUSH8 0xFFFFFFFFFFFFFFFF DUP3 GT OR PUSH2 0x51A JUMPI PUSH1 0x40 MSTORE JUMP JUMPDEST PUSH4 0x4E487B71 PUSH1 0xE0 SHL PUSH1 0x0 MSTORE PUSH1 0x41 PUSH1 0x4 MSTORE PUSH1 0x24 PUSH1 0x0 REVERT JUMPDEST RETURNDATASIZE ISZERO PUSH2 0x56B JUMPI RETURNDATASIZE SWAP1 PUSH8 0xFFFFFFFFFFFFFFFF DUP3 GT PUSH2 0x51A JUMPI PUSH1 0x40 MLOAD SWAP2 PUSH2 0x55F PUSH1 0x1F DUP3 ADD PUSH1 0x1F NOT AND PUSH1 0x20 ADD DUP5 PUSH2 0x4F8 JUMP JUMPDEST DUP3 MSTORE RETURNDATASIZE PUSH1 0x0 PUSH1 0x20 DUP5 ADD RETURNDATACOPY JUMP JUMPDEST PUSH1 0x60 SWAP1 JUMP JUMPDEST SWAP2 SWAP1 DUP2 LT ISZERO PUSH2 0x4CE JUMPI PUSH1 0x5 SHL ADD SWAP1 JUMP JUMPDEST DUP2 DUP2 MUL SWAP3 SWAP2 DUP2 ISZERO SWAP2 DUP5 DIV EQ OR ISZERO PUSH2 0x593 JUMPI JUMP JUMPDEST PUSH4 0x4E487B71 PUSH1 0xE0 SHL PUSH1 0x0 MSTORE PUSH1 0x11 PUSH1 0x4 MSTORE PUSH1 0x24 PUSH1 0x0 REVERT JUMPDEST SWAP2 SWAP1 SWAP2 PUSH1 0x40 MLOAD SWAP3 PUSH1 0x20 DUP5 ADD SWAP3 PUSH4 0xA9059CBB PUSH1 0xE0 SHL DUP5 MSTORE PUSH1 0x1 PUSH1 0x1 PUSH1 0xA0 SHL SUB DUP1 SWAP3 AND PUSH1 0x24 DUP7 ADD MSTORE PUSH1 0x44 DUP6 ADD MSTORE PUSH1 0x44 DUP5 MSTORE PUSH1 0x80 DUP5 ADD SWAP2 DUP5 DUP4 LT PUSH8 0xFFFFFFFFFFFFFFFF DUP5 GT OR PUSH2 0x51A JUMPI PUSH2 0x614 SWAP3 PUSH1 0x40 MSTORE AND SWAP3 PUSH1 0x0 DUP1 SWAP4 DUP2 SWAP3 MLOAD SWAP1 DUP3 DUP8 GAS CALL PUSH2 0x60D PUSH2 0x530 JUMP JUMPDEST SWAP1 DUP5 PUSH2 0x6C2 JUMP JUMPDEST SWAP1 DUP2 MLOAD SWAP2 DUP3 ISZERO ISZERO SWAP3 DUP4 PUSH2 0x644 JUMPI JUMPDEST POP POP POP PUSH2 0x62C JUMPI POP JUMP JUMPDEST PUSH1 0x24 SWAP1 PUSH1 0x40 MLOAD SWAP1 PUSH4 0x5274AFE7 PUSH1 0xE0 SHL DUP3 MSTORE PUSH1 0x4 DUP3 ADD MSTORE REVERT JUMPDEST DUP2 SWAP3 SWAP4 POP SWAP1 PUSH1 0x20 SWAP2 DUP2 ADD SUB SLT PUSH2 0x1E6 JUMPI PUSH1 0x20 ADD MLOAD SWAP1 DUP2 ISZERO SWAP2 DUP3 ISZERO SUB PUSH2 0x66C JUMPI POP CODESIZE DUP1 DUP1 PUSH2 0x622 JUMP JUMPDEST DUP1 REVERT JUMPDEST DUP2 SELFBALANCE LT PUSH2 0x6AA JUMPI PUSH1 0x0 DUP1 DUP1 SWAP4 PUSH1 0x1 PUSH1 0x1 PUSH1 0xA0 SHL SUB DUP3 SWAP5 AND GAS CALL PUSH2 0x690 PUSH2 0x530 JUMP JUMPDEST POP ISZERO PUSH2 0x698 JUMPI JUMP JUMPDEST PUSH1 0x40 MLOAD PUSH4 0xA12F521 PUSH1 0xE1 SHL DUP2 MSTORE PUSH1 0x4 SWAP1 REVERT JUMPDEST PUSH1 0x40 MLOAD PUSH4 0xCD786059 PUSH1 0xE0 SHL DUP2 MSTORE ADDRESS PUSH1 0x4 DUP3 ADD MSTORE PUSH1 0x24 SWAP1 REVERT JUMPDEST SWAP1 PUSH2 0x6D7 JUMPI POP DUP1 MLOAD ISZERO PUSH2 0x698 JUMPI DUP1 MLOAD SWAP1 PUSH1 0x20 ADD REVERT JUMPDEST DUP2 MLOAD ISZERO DUP1 PUSH2 0x70A JUMPI JUMPDEST PUSH2 0x6E8 JUMPI POP SWAP1 JUMP JUMPDEST PUSH1 0x40 MLOAD PUSH4 0x9996B315 PUSH1 0xE0 SHL DUP2 MSTORE PUSH1 0x1 PUSH1 0x1 PUSH1 0xA0 SHL SUB SWAP1 SWAP2 AND PUSH1 0x4 DUP3 ADD MSTORE PUSH1 0x24 SWAP1 REVERT JUMPDEST POP DUP1 EXTCODESIZE ISZERO PUSH2 0x6E0 JUMP INVALID LOG2 PUSH5 0x6970667358 0x22 SLT KECCAK256 MSIZE ADDRESS PUSH24 0x1BDAC7A28577E83853179585C14D2D1DE60202BEE4D616BC 0x29 0x25 0xC9 SWAP4 COINBASE PUSH5 0x736F6C6343 STOP ADDMOD NOT STOP CALLER STOP STOP STOP STOP STOP STOP STOP STOP STOP STOP STOP STOP 0x27 SWAP2 0xBC LOG1 CALLCODE 0xDE CHAINID PUSH2 0xED88 LOG3 0xC SWAP10 0xA7 0xA9 DIFFICULTY SWAP11 0xA8 COINBASE PUSH21 0xA2646970667358221220E671A31319BAF4EFCDFD37 DUP5 0xF9 0xEA COINBASE AND 0xCB 0xBE SWAP7 0xDD 0x25 SHL 0x24 BASEFEE SWAP1 SELFDESTRUCT 0xD4 0xB6 SWAP6 DUP14 SWAP1 0xAA PUSH5 0x736F6C6343 STOP ADDMOD NOT STOP CALLER "},"gasEstimates":{"creation":{"codeDepositCost":"4284800","executionCost":"infinite","totalCost":"infinite"},"external":{"USDC()":"906","_BPS_BASE()":"2954","_BPS_FEE()":"3152","_BPS_LIQUIDATE_FEE()":"2690","_MAX_BPS_FEE()":"477","allowance(address,address)":"3517","approve(address,uint256)":"24366","balanceOf(address)":"2885","balanceStakedOf(address)":"3325","burn(uint256)":"infinite","burnTokensAndSwapToUSDC(uint256)":"infinite","calculateRewardsEarned(address)":"infinite","changeBpsFee(uint256)":"25453","changeBpsLiquidateFee(uint256)":"26047","claim()":"infinite","claimTo(address,address)":"infinite","decimals()":"433","execute((address,uint256,bytes)[],address[])":"infinite","getAgentAddress(address)":"infinite","getBpsFee()":"2382","getUSDCShareValue(uint256)":"infinite","getUnitPrice()":"infinite","liquidate(address)":"infinite","listAllTokens()":"infinite","mintERC20(uint256,address)":"infinite","mintUSDC(uint256)":"infinite","name()":"infinite","oracle()":"infinite","owner()":"3060","performArbitrage()":"infinite","rebalance(address[],uint256[])":"infinite","renounceOwnership()":"28552","rewardToken()":"infinite","stake(uint256)":"infinite","stakeTimestamp(address)":"2863","stakingSupply()":"3284","stakingToken()":"infinite","symbol()":"infinite","tokenBalanceMap(address)":"3083","totalSupply()":"2360","totalValuation()":"infinite","transfer(address,uint256)":"51610","transferFrom(address,address,uint256)":"75579","transferOwnership(address)":"29165","uniswapFactory()":"infinite","uniswapRouter()":"infinite","unstake(uint256)":"infinite","updateRewardIndexPublic(uint256)":"infinite","userAgents(address)":"3001"},"internal":{"_calculateBaluniToUsdc(uint256)":"infinite","_calculateTokenShare(uint256,uint256,uint256,uint256)":"infinite","_calculateTokenValuation(uint256,address)":"infinite","_resize(uint256[] memory,uint256)":"infinite","_stakeToContract(address,uint256)":"infinite","_totalValuation()":"infinite","calculateNetAmountAfterFee(uint256)":"infinite","getBytecode(address)":"infinite","getOrCreateAgent(address)":"infinite","isContract(address)":"infinite","multiHopSwap(address,address,address,uint256,address)":"infinite","secureApproval(address,address,uint256)":"infinite","singleSwap(address,address,uint256,address)":"infinite"}},"methodIdentifiers":{"USDC()":"89a30271","_BPS_BASE()":"85377188","_BPS_FEE()":"b9f5e617","_BPS_LIQUIDATE_FEE()":"65534d52","_MAX_BPS_FEE()":"34decfc9","allowance(address,address)":"dd62ed3e","approve(address,uint256)":"095ea7b3","balanceOf(address)":"70a08231","balanceStakedOf(address)":"bf9c89bb","burn(uint256)":"42966c68","burnTokensAndSwapToUSDC(uint256)":"cde53358","calculateRewardsEarned(address)":"8b086764","changeBpsFee(uint256)":"06497cb9","changeBpsLiquidateFee(uint256)":"7b848914","claim()":"4e71d92d","claimTo(address,address)":"34a1ca89","decimals()":"313ce567","execute((address,uint256,bytes)[],address[])":"eedc3c50","getAgentAddress(address)":"27d54a92","getBpsFee()":"185fcffe","getUSDCShareValue(uint256)":"71ddcfb8","getUnitPrice()":"012a33aa","liquidate(address)":"2f865568","listAllTokens()":"5e7f8b76","mintERC20(uint256,address)":"50b1b34a","mintUSDC(uint256)":"7d9fc717","name()":"06fdde03","oracle()":"7dc0d1d0","owner()":"8da5cb5b","performArbitrage()":"12f399cf","rebalance(address[],uint256[])":"2be01190","renounceOwnership()":"715018a6","rewardToken()":"f7c618c1","stake(uint256)":"a694fc3a","stakeTimestamp(address)":"70259077","stakingSupply()":"f377e7cf","stakingToken()":"72f702f3","symbol()":"95d89b41","tokenBalanceMap(address)":"833d557f","totalSupply()":"18160ddd","totalValuation()":"295b9300","transfer(address,uint256)":"a9059cbb","transferFrom(address,address,uint256)":"23b872dd","transferOwnership(address)":"f2fde38b","uniswapFactory()":"8bdb2afa","uniswapRouter()":"735de9f7","unstake(uint256)":"2e17de78","updateRewardIndexPublic(uint256)":"ab86c69e","userAgents(address)":"7811a785"}},"storageLayout":{"storage":[{"astId":54,"contract":"contracts/core/BaluniRouter.sol:BaluniRouter","label":"_owner","offset":0,"slot":"0","type":"t_address"},{"astId":357,"contract":"contracts/core/BaluniRouter.sol:BaluniRouter","label":"_balances","offset":0,"slot":"1","type":"t_mapping(t_address,t_uint256)"},{"astId":363,"contract":"contracts/core/BaluniRouter.sol:BaluniRouter","label":"_allowances","offset":0,"slot":"2","type":"t_mapping(t_address,t_mapping(t_address,t_uint256))"},{"astId":365,"contract":"contracts/core/BaluniRouter.sol:BaluniRouter","label":"_totalSupply","offset":0,"slot":"3","type":"t_uint256"},{"astId":367,"contract":"contracts/core/BaluniRouter.sol:BaluniRouter","label":"_name","offset":0,"slot":"4","type":"t_string_storage"},{"astId":369,"contract":"contracts/core/BaluniRouter.sol:BaluniRouter","label":"_symbol","offset":0,"slot":"5","type":"t_string_storage"},{"astId":1573,"contract":"contracts/core/BaluniRouter.sol:BaluniRouter","label":"_status","offset":0,"slot":"6","type":"t_uint256"},{"astId":7449,"contract":"contracts/core/BaluniRouter.sol:BaluniRouter","label":"balanceStakedOf","offset":0,"slot":"7","type":"t_mapping(t_address,t_uint256)"},{"astId":7453,"contract":"contracts/core/BaluniRouter.sol:BaluniRouter","label":"stakeTimestamp","offset":0,"slot":"8","type":"t_mapping(t_address,t_uint256)"},{"astId":7455,"contract":"contracts/core/BaluniRouter.sol:BaluniRouter","label":"stakingSupply","offset":0,"slot":"9","type":"t_uint256"},{"astId":7460,"contract":"contracts/core/BaluniRouter.sol:BaluniRouter","label":"rewardIndex","offset":0,"slot":"10","type":"t_uint256"},{"astId":7464,"contract":"contracts/core/BaluniRouter.sol:BaluniRouter","label":"rewardIndexOf","offset":0,"slot":"11","type":"t_mapping(t_address,t_uint256)"},{"astId":7468,"contract":"contracts/core/BaluniRouter.sol:BaluniRouter","label":"earned","offset":0,"slot":"12","type":"t_mapping(t_address,t_uint256)"},{"astId":4601,"contract":"contracts/core/BaluniRouter.sol:BaluniRouter","label":"_BPS_FEE","offset":0,"slot":"13","type":"t_uint256"},{"astId":4604,"contract":"contracts/core/BaluniRouter.sol:BaluniRouter","label":"_BPS_BASE","offset":0,"slot":"14","type":"t_uint256"},{"astId":4607,"contract":"contracts/core/BaluniRouter.sol:BaluniRouter","label":"_BPS_LIQUIDATE_FEE","offset":0,"slot":"15","type":"t_uint256"},{"astId":4614,"contract":"contracts/core/BaluniRouter.sol:BaluniRouter","label":"tokens","offset":0,"slot":"16","type":"t_struct(AddressSet)1957_storage"},{"astId":4649,"contract":"contracts/core/BaluniRouter.sol:BaluniRouter","label":"userAgents","offset":0,"slot":"18","type":"t_mapping(t_address,t_contract(BaluniAgent)4560)"},{"astId":4653,"contract":"contracts/core/BaluniRouter.sol:BaluniRouter","label":"tokenBalanceMap","offset":0,"slot":"19","type":"t_mapping(t_address,t_uint256)"}],"types":{"t_address":{"encoding":"inplace","label":"address","numberOfBytes":"20"},"t_array(t_bytes32)dyn_storage":{"base":"t_bytes32","encoding":"dynamic_array","label":"bytes32[]","numberOfBytes":"32"},"t_bytes32":{"encoding":"inplace","label":"bytes32","numberOfBytes":"32"},"t_contract(BaluniAgent)4560":{"encoding":"inplace","label":"contract BaluniAgent","numberOfBytes":"20"},"t_mapping(t_address,t_contract(BaluniAgent)4560)":{"encoding":"mapping","key":"t_address","label":"mapping(address => contract BaluniAgent)","numberOfBytes":"32","value":"t_contract(BaluniAgent)4560"},"t_mapping(t_address,t_mapping(t_address,t_uint256))":{"encoding":"mapping","key":"t_address","label":"mapping(address => mapping(address => uint256))","numberOfBytes":"32","value":"t_mapping(t_address,t_uint256)"},"t_mapping(t_address,t_uint256)":{"encoding":"mapping","key":"t_address","label":"mapping(address => uint256)","numberOfBytes":"32","value":"t_uint256"},"t_mapping(t_bytes32,t_uint256)":{"encoding":"mapping","key":"t_bytes32","label":"mapping(bytes32 => uint256)","numberOfBytes":"32","value":"t_uint256"},"t_string_storage":{"encoding":"bytes","label":"string","numberOfBytes":"32"},"t_struct(AddressSet)1957_storage":{"encoding":"inplace","label":"struct EnumerableSet.AddressSet","members":[{"astId":1956,"contract":"contracts/core/BaluniRouter.sol:BaluniRouter","label":"_inner","offset":0,"slot":"0","type":"t_struct(Set)1642_storage"}],"numberOfBytes":"64"},"t_struct(Set)1642_storage":{"encoding":"inplace","label":"struct EnumerableSet.Set","members":[{"astId":1637,"contract":"contracts/core/BaluniRouter.sol:BaluniRouter","label":"_values","offset":0,"slot":"0","type":"t_array(t_bytes32)dyn_storage"},{"astId":1641,"contract":"contracts/core/BaluniRouter.sol:BaluniRouter","label":"_positions","offset":0,"slot":"1","type":"t_mapping(t_bytes32,t_uint256)"}],"numberOfBytes":"64"},"t_uint256":{"encoding":"inplace","label":"uint256","numberOfBytes":"32"}}},"userdoc":{"kind":"user","methods":{},"version":1}}}}