{"contracts/BaluniV1PoolPeriphery.sol":{"BaluniV1PoolPeriphery":{"abi":[{"inputs":[{"internalType":"address","name":"target","type":"address"}],"name":"AddressEmptyCode","type":"error"},{"inputs":[{"internalType":"address","name":"implementation","type":"address"}],"name":"ERC1967InvalidImplementation","type":"error"},{"inputs":[],"name":"ERC1967NonPayable","type":"error"},{"inputs":[],"name":"FailedInnerCall","type":"error"},{"inputs":[],"name":"InvalidInitialization","type":"error"},{"inputs":[],"name":"NotInitializing","type":"error"},{"inputs":[{"internalType":"address","name":"owner","type":"address"}],"name":"OwnableInvalidOwner","type":"error"},{"inputs":[{"internalType":"address","name":"account","type":"address"}],"name":"OwnableUnauthorizedAccount","type":"error"},{"inputs":[],"name":"UUPSUnauthorizedCallContext","type":"error"},{"inputs":[{"internalType":"bytes32","name":"slot","type":"bytes32"}],"name":"UUPSUnsupportedProxiableUUID","type":"error"},{"anonymous":false,"inputs":[{"indexed":false,"internalType":"uint64","name":"version","type":"uint64"}],"name":"Initialized","type":"event"},{"anonymous":false,"inputs":[{"indexed":true,"internalType":"address","name":"previousOwner","type":"address"},{"indexed":true,"internalType":"address","name":"newOwner","type":"address"}],"name":"OwnershipTransferred","type":"event"},{"anonymous":false,"inputs":[{"indexed":true,"internalType":"address","name":"implementation","type":"address"}],"name":"Upgraded","type":"event"},{"inputs":[],"name":"UPGRADE_INTERFACE_VERSION","outputs":[{"internalType":"string","name":"","type":"string"}],"stateMutability":"view","type":"function"},{"inputs":[],"name":"_BPS_BASE","outputs":[{"internalType":"uint256","name":"","type":"uint256"}],"stateMutability":"view","type":"function"},{"inputs":[],"name":"_BPS_FEE","outputs":[{"internalType":"uint256","name":"","type":"uint256"}],"stateMutability":"view","type":"function"},{"inputs":[],"name":"_MAX_BPS_FEE","outputs":[{"internalType":"uint256","name":"","type":"uint256"}],"stateMutability":"view","type":"function"},{"inputs":[{"internalType":"uint256[]","name":"amounts","type":"uint256[]"},{"internalType":"address","name":"poolAddress","type":"address"},{"internalType":"address","name":"receiver","type":"address"}],"name":"addLiquidity","outputs":[],"stateMutability":"nonpayable","type":"function"},{"inputs":[{"internalType":"address[]","name":"fromTokens","type":"address[]"},{"internalType":"address[]","name":"toTokens","type":"address[]"},{"internalType":"uint256[]","name":"amounts","type":"uint256[]"},{"internalType":"address[]","name":"receivers","type":"address[]"}],"name":"batchSwap","outputs":[{"internalType":"uint256[]","name":"","type":"uint256[]"}],"stateMutability":"nonpayable","type":"function"},{"inputs":[{"internalType":"uint256","name":"_newFee","type":"uint256"}],"name":"changeBpsFee","outputs":[],"stateMutability":"nonpayable","type":"function"},{"inputs":[{"internalType":"address","name":"_poolFactory","type":"address"}],"name":"changePoolFactory","outputs":[],"stateMutability":"nonpayable","type":"function"},{"inputs":[{"internalType":"address","name":"_treasury","type":"address"}],"name":"changeTreausry","outputs":[],"stateMutability":"nonpayable","type":"function"},{"inputs":[{"internalType":"address","name":"fromToken","type":"address"},{"internalType":"address","name":"toToken","type":"address"},{"internalType":"uint256","name":"amount","type":"uint256"}],"name":"getAmountOut","outputs":[{"internalType":"uint256","name":"","type":"uint256"}],"stateMutability":"view","type":"function"},{"inputs":[{"internalType":"address","name":"pool","type":"address"},{"internalType":"address","name":"asset","type":"address"}],"name":"getAssetReserve","outputs":[{"internalType":"uint256","name":"","type":"uint256"}],"stateMutability":"view","type":"function"},{"inputs":[{"internalType":"address","name":"token","type":"address"}],"name":"getPoolsContainingToken","outputs":[{"internalType":"address[]","name":"","type":"address[]"}],"stateMutability":"view","type":"function"},{"inputs":[{"internalType":"address","name":"pool","type":"address"}],"name":"getReserves","outputs":[{"internalType":"uint256[]","name":"","type":"uint256[]"}],"stateMutability":"view","type":"function"},{"inputs":[],"name":"getVersion","outputs":[{"internalType":"uint64","name":"","type":"uint64"}],"stateMutability":"view","type":"function"},{"inputs":[{"internalType":"address","name":"_poolFactory","type":"address"}],"name":"initialize","outputs":[],"stateMutability":"nonpayable","type":"function"},{"inputs":[],"name":"owner","outputs":[{"internalType":"address","name":"","type":"address"}],"stateMutability":"view","type":"function"},{"inputs":[{"internalType":"address","name":"poolAddress","type":"address"}],"name":"performRebalanceIfNeeded","outputs":[],"stateMutability":"nonpayable","type":"function"},{"inputs":[],"name":"poolFactory","outputs":[{"internalType":"contract IBaluniV1PoolFactory","name":"","type":"address"}],"stateMutability":"view","type":"function"},{"inputs":[{"internalType":"address","name":"","type":"address"},{"internalType":"address","name":"","type":"address"}],"name":"poolsReserves","outputs":[{"internalType":"uint256","name":"","type":"uint256"}],"stateMutability":"view","type":"function"},{"inputs":[],"name":"proxiableUUID","outputs":[{"internalType":"bytes32","name":"","type":"bytes32"}],"stateMutability":"view","type":"function"},{"inputs":[{"internalType":"address","name":"poolAddress","type":"address"},{"internalType":"address","name":"receiver","type":"address"}],"name":"rebalanceWeights","outputs":[],"stateMutability":"nonpayable","type":"function"},{"inputs":[{"internalType":"address","name":"_poolFactory","type":"address"},{"internalType":"uint64","name":"version","type":"uint64"}],"name":"reinitialize","outputs":[],"stateMutability":"nonpayable","type":"function"},{"inputs":[{"internalType":"uint256","name":"share","type":"uint256"},{"internalType":"address","name":"poolAddress","type":"address"},{"internalType":"address","name":"receiver","type":"address"}],"name":"removeLiquidity","outputs":[],"stateMutability":"nonpayable","type":"function"},{"inputs":[],"name":"renounceOwnership","outputs":[],"stateMutability":"nonpayable","type":"function"},{"inputs":[{"internalType":"address","name":"fromToken","type":"address"},{"internalType":"address","name":"toToken","type":"address"},{"internalType":"uint256","name":"amount","type":"uint256"},{"internalType":"address","name":"receiver","type":"address"}],"name":"swap","outputs":[{"internalType":"uint256","name":"","type":"uint256"}],"stateMutability":"nonpayable","type":"function"},{"inputs":[{"internalType":"address","name":"newOwner","type":"address"}],"name":"transferOwnership","outputs":[],"stateMutability":"nonpayable","type":"function"},{"inputs":[],"name":"treasury","outputs":[{"internalType":"address","name":"","type":"address"}],"stateMutability":"view","type":"function"},{"inputs":[{"internalType":"address","name":"newImplementation","type":"address"},{"internalType":"bytes","name":"data","type":"bytes"}],"name":"upgradeToAndCall","outputs":[],"stateMutability":"payable","type":"function"}],"devdoc":{"details":"This contract serves as the periphery contract for interacting with BaluniV1Pool contracts. It provides functions for swapping tokens, adding liquidity, removing liquidity, and getting the amount out for a given swap.","errors":{"AddressEmptyCode(address)":[{"details":"There's no code at `target` (it is not a contract)."}],"ERC1967InvalidImplementation(address)":[{"details":"The `implementation` of the proxy is invalid."}],"ERC1967NonPayable()":[{"details":"An upgrade function sees `msg.value > 0` that may be lost."}],"FailedInnerCall()":[{"details":"A call to an address target failed. The target may have reverted."}],"InvalidInitialization()":[{"details":"The contract is already initialized."}],"NotInitializing()":[{"details":"The contract is not initializing."}],"OwnableInvalidOwner(address)":[{"details":"The owner is not a valid owner account. (eg. `address(0)`)"}],"OwnableUnauthorizedAccount(address)":[{"details":"The caller account is not authorized to perform an operation."}],"UUPSUnauthorizedCallContext()":[{"details":"The call is from an unauthorized context."}],"UUPSUnsupportedProxiableUUID(bytes32)":[{"details":"The storage `slot` is unsupported as a UUID."}]},"events":{"Initialized(uint64)":{"details":"Triggered when the contract has been initialized or reinitialized."},"Upgraded(address)":{"details":"Emitted when the implementation is upgraded."}},"kind":"dev","methods":{"addLiquidity(uint256[],address,address)":{"details":"Adds liquidity to a BaluniV1Pool.","params":{"amounts":"An array of amounts for each asset to add as liquidity."}},"batchSwap(address[],address[],uint256[],address[])":{"details":"Performs batch swaps between multiple token pairs.","params":{"amounts":"An array of amounts representing the amounts to swap.","fromTokens":"An array of addresses representing the tokens to swap from.","receivers":"An array of addresses representing the receivers of the swapped tokens.","toTokens":"An array of addresses representing the tokens to swap to."},"returns":{"_0":"An array of amounts representing the amounts of tokens received after the swaps."}},"changeBpsFee(uint256)":{"details":"Changes the basis points fee for the contract.","params":{"_newFee":"The new basis points fee to be set."}},"changePoolFactory(address)":{"details":"Changes the address of the pool factory contract. Can only be called by the contract owner.","params":{"_poolFactory":"The new address of the pool factory contract."}},"changeTreausry(address)":{"details":"Changes the treasury address. Can only be called by the contract owner.","params":{"_treasury":"The new treasury address."}},"getAmountOut(address,address,uint256)":{"details":"Gets the amount of tokens received after a swap in a BaluniV1Pool.","params":{"amount":"The amount of tokens to swap.","fromToken":"The address of the token to swap from.","toToken":"The address of the token to swap to."},"returns":{"_0":"The amount of tokens received after the swap."}},"getPoolsContainingToken(address)":{"details":"Returns an array of pool addresses that contain the given token.","params":{"token":"The address of the token to search for."},"returns":{"_0":"An array of pool addresses."}},"getVersion()":{"details":"Returns the version of the contract.","returns":{"_0":"The version string."}},"initialize(address)":{"details":"Initializes the contract by setting the pool factory address.","params":{"_poolFactory":"The address of the BaluniV1PoolFactory contract."}},"owner()":{"details":"Returns the address of the current owner."},"performRebalanceIfNeeded(address)":{"details":"Performs rebalance if needed for the given tokens.","params":{"poolAddress":"The address of the token pool to rebalance."}},"proxiableUUID()":{"details":"Implementation of the ERC1822 {proxiableUUID} function. This returns the storage slot used by the implementation. It is used to validate the implementation's compatibility when performing an upgrade. IMPORTANT: A proxy pointing at a proxiable contract should not be considered proxiable itself, because this risks bricking a proxy that upgrades to it, by delegating to itself until out of gas. Thus it is critical that this function revert if invoked through a proxy. This is guaranteed by the `notDelegated` modifier."},"reinitialize(address,uint64)":{"details":"Initializes the contract by setting the pool factory address.","params":{"_poolFactory":"The address of the BaluniV1PoolFactory contract."}},"removeLiquidity(uint256,address,address)":{"details":"Removes liquidity from a BaluniV1Pool.","params":{"poolAddress":"The address of the BaluniV1Pool.","share":"The amount of liquidity tokens to remove."}},"renounceOwnership()":{"details":"Leaves the contract without owner. It will not be possible to call `onlyOwner` functions. Can only be called by the current owner. NOTE: Renouncing ownership will leave the contract without an owner, thereby disabling any functionality that is only available to the owner."},"swap(address,address,uint256,address)":{"details":"Swaps tokens in a BaluniV1Pool.","params":{"amount":"The amount of tokens to swap.","fromToken":"The address of the token to swap from.","toToken":"The address of the token to swap to."},"returns":{"_0":"The amount of tokens received after the swap."}},"transferOwnership(address)":{"details":"Transfers ownership of the contract to a new account (`newOwner`). Can only be called by the current owner."},"upgradeToAndCall(address,bytes)":{"custom:oz-upgrades-unsafe-allow-reachable":"delegatecall","details":"Upgrade the implementation of the proxy to `newImplementation`, and subsequently execute the function call encoded in `data`. Calls {_authorizeUpgrade}. Emits an {Upgraded} event."}},"title":"BaluniV1PoolPeriphery","version":1},"evm":{"bytecode":{"linkReferences":{},"object":"60a08060405234602957306080526126bb908161002e8239608051818181611bb10152611c950152f35b5f80fdfe60806040526004361015610011575f80fd5b5f3560e01c806306497cb9146120c05780630d8e6e2c1461208e57806334decfc9146120715780633e99c1e414611fb55780634056c37f1461144b5780634219dc4014611f8e5780634aa0665214611e655780634f1ef28614611c1b57806352d1902d14611b9f5780635568081a1461196157806361d027b3146119395780636e81221c14611681578063715018a61461161a57806372591be5146115d857806385377188146115bb5780638da5cb5b146115875780638f2248bc14611498578063a3e113fb1461144b578063ad3cb1cc146113ca578063ad4142631461123b578063ae3cce1c1461118c578063b9f5e6171461116f578063c4d66de814611014578063e74e9b06146109b8578063ec0cd2eb1461077d578063f2fde38b14610754578063f31abcc4146101945763f4011c4c1461014d575f80fd5b3461019057602036600319011261019057610166612125565b61016e61257c565b600180546001600160a01b0319166001600160a01b0392909216919091179055005b5f80fd5b34610190576060366003190112610190576004356101b061213b565b6101b8612151565b821561070f57604051636eb1769f60e11b81523360048201523060248201526020926001600160a01b039182821691908581604481865afa80156105105787915f916106de575b50106106a0576040516370a0823160e01b808252336004830152966024959187818881885afa80156105105782905f9061066f575b61024092501015612359565b6040516323b872dd60e01b81523360048201523060248201526044810182905287816064815f895af1908115610510575f91610652575b50156106185760405163a9059cbb60e01b8082526001600160a01b03949094166004820152602481019190915286816044815f885af1908115610510575f916105fb575b50156105c55760405163226bf2d160e21b81528482166004820152905f82878183885af1918215610510575f926105a1575b506040516319f92b0b60e21b8152975f89600481885afa988915610510575f9961057d575b505f5b895181101561057b57610386818a8c8a61035361034b610342610338878d6122ec565b5160035490612314565b6004549061233b565b9485936122ec565b51168b600154165f8b6040519788958694859384526004840160209093929193604081019460018060a01b031681520152565b03925af191821561051057896103a6858f8f948f9761055e575b506122ec565b5116604051938480928882523060048301525afa8015610510578c8c92888b87948e975f9161051b575b5061044e9361043887855f9b98956103fb61043e966103f3856104879e9b6122ec565b5111156124c6565b61040583836122ec565b51908d5260058c5260408d208a61041c858a6122ec565b51168e528c5261043160408e2091825461240a565b90556122ec565b5161240a565b610448838d6122ec565b526122ec565b511661045a85896122ec565b516040518a81526001600160a01b0389166004820152602481019190915293849283919082906044820190565b03925af1908115610510575f916104e3575b50156104a757600101610315565b60405162461bcd60e51b8152600481018a90526015818a015274105cdcd95d081d1c985b9cd9995c8819985a5b1959605a1b6044820152606490fd5b61050391508a3d8c11610509575b6104fb81836121a2565b810190612462565b8b610499565b503d6104f1565b6040513d5f823e3d90fd5b9750505050928092508491503d8311610557575b61053981836121a2565b8101031261019057905188918b9184918e9189908c9061044e6103d0565b503d61052f565b61057490863d8811610509576104fb81836121a2565b505f6103a0565b005b61059a9199503d805f833e61059281836121a2565b810190612239565b9789610312565b6105be9192503d805f833e6105b681836121a2565b81019061247a565b90886102ed565b60405162461bcd60e51b815260048101879052600f818701526e151c985b9cd9995c8819985a5b1959608a1b6044820152606490fd5b6106129150873d8911610509576104fb81836121a2565b886102bb565b60405162461bcd60e51b81526004810188905260138188015272151c985b9cd9995c919c9bdb4819985a5b1959606a1b6044820152606490fd5b6106699150883d8a11610509576104fb81836121a2565b89610277565b50508781813d8311610699575b61068681836121a2565b8101031261019057816102409151610234565b503d61067c565b60405162461bcd60e51b8152600481018690526016602482015275496e73756666696369656e7420616c6c6f77616e636560501b6044820152606490fd5b809250878092503d8311610708575b6106f781836121a2565b8101031261019057869051886101ff565b503d6106ed565b60405162461bcd60e51b815260206004820152601f60248201527f5368617265206d7573742062652067726561746572207468616e207a65726f006044820152606490fd5b346101905760203660031901126101905761057b610770612125565b61077861257c565b61250b565b34610190576060366003190112610190576004356001600160401b038111610190576107ad9036906004016121de565b906107b661213b565b916107bf612151565b6040516319f92b0b60e21b81526001600160a01b0394919391851692905f81600481875afa908115610510575f9161099e575b505f5b815181101561091d578661080982846122ec565b5116906108178185876124a2565b6040516323b872dd60e01b8152336004820152306024820152903560448201819052909260209182856064815f865af19485156105105761089d95610900575b5061086761034260035483612314565b60015460405163a9059cbb60e01b8152908d166001600160a01b0316600482015260248101829052958490879081906044820190565b03815f875af1918215610510576001966108bc936108e3575b5061240a565b91885f526005815260405f20915f52526108db60405f209182546123fd565b9055016107f5565b6108f990863d8811610509576104fb81836121a2565b508d6108b6565b61091690843d8611610509576104fb81836121a2565b508b610857565b50506040805163de836ebd60e01b8152948616600486015260248501526044840181905290916001600160fb1b03821161019057835f606482602096819660051b80918484013781010301925af180156105105761097757005b602090813d8311610997575b61098d81836121a2565b8101031261019057005b503d610983565b6109b291503d805f833e61059281836121a2565b866107f2565b34610190576080366003190112610190576001600160401b03600435818111610190576109e99036906004016121de565b919060243582811161019057610a039036906004016121de565b60449491943584811161019057610a1e9036906004016121de565b95909460643590811161019057610a399036906004016121de565b938381148061100b575b80611002575b15610fbd57610a57816122ba565b965f5b828110610a735760405180610a6f8b82612167565b0390f35b610a89610a81828c856124a2565b351515612417565b5f54610af1906020906001600160a01b0316610aae610aa985888e6124a2565b6124b2565b90610abd610aa9868c8c6124a2565b604051632d5e94a760e01b81526001600160a01b039384166004820152921660248301529092839190829081906044820190565b03915afa908115610510575f91610f83575b50602460206001600160a01b03610b1e610aa986898f6124a2565b16604051928380926370a0823160e01b82523360048301525afa908115610510575f91610f51575b50610b52838d866124a2565b3511610f15575f906020610bb18d610b82868e610b7a610aa9838d60018060a01b03946124a2565b1692896124a2565b6040516323b872dd60e01b81523360048201523060248201529035604482015294859283919082906064820190565b03925af1918215610510578c88610c9a610c5a610aa98f8f988f610c4b610aa98f8f938f96610aa98f60209f948f938b9992610c008b610c4597819a96610c529f978398610ef7575b506124a2565b6001600160a01b039182165f908152600560205260409020903591610c29610aa98787876124a2565b165f52602052610c3e60405f209182546123fd565b90556124a2565b9a6124a2565b978d6124a2565b35988d6124a2565b604051631ba0488760e21b81526001600160a01b039384166004820152938316602485015260448401969096529416606482015292839081906084820190565b03815f6001600160a01b0386165af1908115610510575f91610ec2575b6024925060206001600160a01b03610cd3610aa9878d8d6124a2565b16604051948580926370a0823160e01b82523060048301525afa80156105105784935f91610e8b575b5082610d099110156124c6565b610d7460208a8a610d36610aa9610d256103426003548a612314565b998a946001600160a01b03946124a2565b60015460405163a9059cbb60e01b81526001600160a01b039091166004820152602481019390935291938492919091169082905f9082906044820190565b03925af1948515610510578b610dc1610aa9878d8f95610aa9610da8610db992859c610df89f9b60209c610e6e575061240a565b9a8b986001600160a01b03946124a2565b16938d6124a2565b60405163a9059cbb60e01b81526001600160a01b0390911660048201526024810192909252909586919082905f9082906044820190565b03925af193841561051057600194610e4f575b50838060a01b03165f52600560205260405f20838060a01b03610e32610aa9858c8c6124a2565b165f52602052610e4760405f2091825461240a565b905501610a5a565b610e679060203d602011610509576104fb81836121a2565b508d610e0b565b610e84908d3d8f11610509576104fb81836121a2565b505f6108b6565b9350506020833d602011610eba575b81610ea7602093836121a2565b8101031261019057915183929082610cfc565b3d9150610e9a565b90506020823d602011610eef575b81610edd602093836121a2565b81010312610190576024915190610cb7565b3d9150610ed0565b610f0e9060203d8111610509576104fb81836121a2565b505f610bfa565b60405162461bcd60e51b8152602060048201526014602482015273496e73756666696369656e742042616c616e636560601b6044820152606490fd5b90506020813d602011610f7b575b81610f6c602093836121a2565b8101031261019057518c610b46565b3d9150610f5f565b90506020813d602011610fb5575b81610f9e602093836121a2565b8101031261019057610faf90612225565b8b610b03565b3d9150610f91565b60405162461bcd60e51b815260206004820152601c60248201527f496e70757420617272617973206c656e677468206d69736d61746368000000006044820152606490fd5b50848814610a49565b50878414610a43565b346101905760203660031901126101905761102d612125565b5f805160206126668339815191529081549060ff8260401c1615916001600160401b03811680159081611167575b600114908161115d575b159081611154575b506111425767ffffffffffffffff198116600117845582611123575b506110926125b4565b61109a6125b4565b6110a26125b4565b6110ab3361250b565b6bffffffffffffffffffffffff60a01b9060018060a01b0316815f5416175f55339060015416176001556064600255601e6003556127106004556110eb57005b60ff60401b1981541690557fc7f505b2f371ae2175ee4913f4499e1f2633a7b5936321eed1cdaeb6115181d2602060405160018152a1005b68ffffffffffffffffff19166801000000000000000117835583611089565b60405163f92ee8a960e01b8152600490fd5b9050158561106d565b303b159150611065565b84915061105b565b34610190575f366003190112610190576020600354604051908152f35b3461019057602080600319360112610190576111a6612125565b5f8054604051635a1a073560e11b81526001600160a01b03938416600482015292939291908290602490829087165afa908115610510575f91611221575b5060405191808301818452825180915281604085019301915f5b82811061120b5785850386f35b83518716855293810193928101926001016111fe565b61123591503d805f833e61059281836121a2565b836111e4565b3461019057604036600319011261019057611254612125565b61125c61213b565b604051630723c99960e01b81526001600160a01b0382811660048301529290919083165f8360248183855af1928315610510575f936113ae575b506040516319f92b0b60e21b8152915f83600481855afa928315610510575f93611392575b505f5b835181101561057b57806112d35f92876122ec565b518483526020906005825260408420896112ed858a6122ec565b511685528252611302604085209182546123fd565b90558061135989611313858a6122ec565b511661131f858b6122ec565b516040516323b872dd60e01b81526001600160a01b0389166004820152306024820152604481019190915295869283919082906064820190565b03925af192831561051057600193611374575b5050016112be565b8161138a92903d10610509576104fb81836121a2565b50878061136c565b6113a79193503d805f833e61059281836121a2565b91856112bb565b6113c39193503d805f833e6105b681836121a2565b9184611296565b34610190575f36600319011261019057604051604081018181106001600160401b03821117611437576040526005815260406020820191640352e302e360dc1b83528151928391602083525180918160208501528484015e5f828201840152601f01601f19168101030190f35b634e487b7160e01b5f52604160045260245ffd5b3461019057604036600319011261019057611464612125565b61146c61213b565b9060018060a01b038091165f52600560205260405f2091165f52602052602060405f2054604051908152f35b34610190576040366003190112610190576114b1612125565b602435906001600160401b0391828116809103610190575f805160206126668339815191528054938260ff8660401c1691821561157a575b5050611142577fc7f505b2f371ae2175ee4913f4499e1f2633a7b5936321eed1cdaeb6115181d2936020936bffffffffffffffffffffffff60a01b9060018060a01b0316815f5416175f55339060015416176001556064600255601e600355612710600455680100000000000000008360ff60401b199268ffffffffffffffffff19161717169055604051908152a1005b86161015905082866114e9565b34610190575f366003190112610190575f80516020612646833981519152546040516001600160a01b039091168152602090f35b34610190575f366003190112610190576020600454604051908152f35b34610190576020366003190112610190576115f1612125565b6115f961257c565b5f80546001600160a01b0319166001600160a01b0392909216919091179055005b34610190575f3660031901126101905761163261257c565b5f8051602061264683398151915280546001600160a01b031981169091555f906001600160a01b03167f8be0079c531659141344cd1fd0a4f28419497f9722a3daafe3b4186f6b6457e08280a3005b346101905760803660031901126101905761169a612125565b6116a261213b565b90606435906001600160a01b03906044358284168403610190576116c7811515612417565b5f54604051632d5e94a760e01b81526001600160a01b038481166004830152871660248201526020969187908290604490829089165afa80156105105785915f91611901575b506040516323b872dd60e01b8152336004820152306024820152604481018590529116938581169088836064815f865af191821561051057899385936118e4575b50865f526005845260405f20905f52835260405f2061176e8682546123fd565b9055604051631ba0488760e21b81526001600160a01b039182166004820152918116602483015260448201949094529286166064840152826084815f875af1918215610510575f926118b5575b50836117cc61034260035485612314565b60015460405163a9059cbb60e01b808252979091166001600160a01b0316600482015260248101829052929091169492908783806044810103815f8a5af191821561051057889361182193611898575061240a565b6040519283526001600160a01b0395909516600483015260248201859052816044815f875af180156105105761187b575b505f526005835260405f20905f52825260405f2061187182825461240a565b9055604051908152f35b61189190853d8711610509576104fb81836121a2565b5084611852565b6118ae90853d8711610509576104fb81836121a2565b50896108b6565b9091508581813d83116118dd575b6118cd81836121a2565b81010312610190575190866117bb565b503d6118c3565b6118fa90853d8711610509576104fb81836121a2565b508a61174e565b809250888092503d8311611932575b61191a81836121a2565b810103126101905761192c8591612225565b8861170d565b503d611910565b34610190575f366003190112610190576001546040516001600160a01b039091168152602090f35b3461019057602080600319360112610190576001600160a01b039081611985612125565b166040516370a0823160e01b81523360048201528281602481855afa908115610510575f91611b72575b506040516318160ddd60e01b8152908382600481865afa918215610510575f92611b41575b506119f06119f7926119eb60649360045490612314565b61233b565b1015612359565b604051631e8f68bd60e31b8152925f8460048183865af1928315610510575f945f94611ae5575b506040516319f92b0b60e21b8152915f83600481875afa928315610510575f93611ac9575b505f5b835181101561057b5780611a5c600192896122ec565b51865f5260059081865260405f2085611a75858a6122ec565b51165f528652611a8a60405f209182546123fd565b9055611a9682896122ec565b5190875f52855260405f2084611aac84896122ec565b51165f528552611ac160405f2091825461240a565b905501611a46565b611ade9193503d805f833e61059281836121a2565b9186611a43565b945092503d805f863e611af881866121a2565b840193604081860312610190578051946001600160401b03958681116101905781611b2491840161239c565b958583015190811161019057611b3a920161239c565b9285611a1e565b91508382813d8311611b6b575b611b5881836121a2565b81010312610190579051906119f06119d4565b503d611b4e565b90508281813d8311611b98575b611b8981836121a2565b810103126101905751846119af565b503d611b7f565b34610190575f366003190112610190577f00000000000000000000000000000000000000000000000000000000000000006001600160a01b03163003611c095760206040517f360894a13ba1a3210667c828492db98dca3e2076cc3735a920a3ca505d382bbc8152f35b60405163703e46dd60e11b8152600490fd5b604036600319011261019057611c2f612125565b60249081356001600160401b0381116101905736602382011215610190578060040135611c5b816121c3565b92611c6960405194856121a2565b818452602091828501933687838301011161019057815f92888693018737860101526001600160a01b037f00000000000000000000000000000000000000000000000000000000000000008116308114908115611e37575b50611c0957611cce61257c565b8116936040516352d1902d60e01b81528381600481895afa5f9181611e08575b50611d0b57604051634c9c8ce360e01b8152600481018790528790fd5b8590877f360894a13ba1a3210667c828492db98dca3e2076cc3735a920a3ca505d382bbc91828103611df35750843b15611ddd575080546001600160a01b03191682179055604051907fbc7cd75a20ee27fd9adebab32041f755214dbc6bffa90cc0225b39da2e5c2d3b5f80a2815115611dc257505f61057b9481925190845af4903d15611db9573d611d9d816121c3565b90611dab60405192836121a2565b81525f81943d92013e6125e2565b606092506125e2565b935050505034611dce57005b63b398979f60e01b8152600490fd5b604051634c9c8ce360e01b815260048101849052fd5b60405190632a87526960e21b82526004820152fd5b9091508481813d8311611e30575b611e2081836121a2565b8101031261019057519088611cee565b503d611e16565b9050817f360894a13ba1a3210667c828492db98dca3e2076cc3735a920a3ca505d382bbc5416141587611cc1565b3461019057606036600319011261019057611e7e612125565b611e8661213b565b5f54604051632d5e94a760e01b81526001600160a01b0384811660048301528381166024830152602094919285908490604490829085165afa9081156105105785935f92611f51575b50604051632550332960e11b81526001600160a01b03938416600482015294909216602485015260448035908501528391829081606481015b0392165afa908115610510575f91611f24575b50604051908152f35b90508181813d8311611f4a575b611f3b81836121a2565b81010312610190575182611f1b565b503d611f31565b8481959293503d8311611f87575b611f6981836121a2565b8101031261019057611f0893611f7f8694612225565b919094611ecf565b503d611f5f565b34610190575f366003190112610190575f546040516001600160a01b039091168152602090f35b3461019057602080600319360112610190576001600160a01b0380611fd8612125565b16916040516319f92b0b60e21b81525f81600481875afa908115610510575f91612057575b5061200881516122ba565b915f5b825181101561204957600190865f526005835260405f208661202d83876122ec565b51165f52835260405f205461204282876122ec565b520161200b565b60405180610a6f8682612167565b61206b91503d805f833e61059281836121a2565b84611ffd565b34610190575f366003190112610190576020600254604051908152f35b34610190575f3660031901126101905760206001600160401b035f805160206126668339815191525416604051908152f35b34610190576020366003190112610190576004356120dc61257c565b60025481116120ea57600355005b60405162461bcd60e51b81526020600482015260136024820152724665652065786365656473206d6178696d756d60681b6044820152606490fd5b600435906001600160a01b038216820361019057565b602435906001600160a01b038216820361019057565b604435906001600160a01b038216820361019057565b60209060206040818301928281528551809452019301915f5b82811061218e575050505090565b835185529381019392810192600101612180565b90601f801991011681019081106001600160401b0382111761143757604052565b6001600160401b03811161143757601f01601f191660200190565b9181601f84011215610190578235916001600160401b038311610190576020808501948460051b01011161019057565b6001600160401b0381116114375760051b60200190565b51906001600160a01b038216820361019057565b6020908181840312610190578051906001600160401b03821161019057019180601f8401121561019057825161226e8161220e565b9361227c60405195866121a2565b818552838086019260051b820101928311610190578301905b8282106122a3575050505090565b8380916122af84612225565b815201910190612295565b906122c48261220e565b6122d160405191826121a2565b82815280926122e2601f199161220e565b0190602036910137565b80518210156123005760209160051b010190565b634e487b7160e01b5f52603260045260245ffd5b8181029291811591840414171561232757565b634e487b7160e01b5f52601160045260245ffd5b8115612345570490565b634e487b7160e01b5f52601260045260245ffd5b1561236057565b60405162461bcd60e51b8152602060048201526014602482015273496e73756666696369656e742062616c616e636560601b6044820152606490fd5b9080601f83011215610190578151906020916123b78161220e565b936123c560405195866121a2565b81855260208086019260051b82010192831161019057602001905b8282106123ee575050505090565b815181529083019083016123e0565b9190820180921161232757565b9190820391821161232757565b1561241e57565b606460405162461bcd60e51b815260206004820152602060248201527f416d6f756e74206d7573742062652067726561746572207468616e207a65726f6044820152fd5b90816020910312610190575180151581036101905790565b906020828203126101905781516001600160401b0381116101905761249f920161239c565b90565b91908110156123005760051b0190565b356001600160a01b03811681036101905790565b156124cd57565b60405162461bcd60e51b8152602060048201526016602482015275496e73756666696369656e74204c697175696469747960501b6044820152606490fd5b6001600160a01b03908116908115612564575f8051602061264683398151915280546001600160a01b031981168417909155167f8be0079c531659141344cd1fd0a4f28419497f9722a3daafe3b4186f6b6457e05f80a3565b604051631e4fbdf760e01b81525f6004820152602490fd5b5f80516020612646833981519152546001600160a01b0316330361259c57565b60405163118cdaa760e01b8152336004820152602490fd5b60ff5f805160206126668339815191525460401c16156125d057565b604051631afcd79f60e31b8152600490fd5b9061260957508051156125f757805190602001fd5b604051630a12f52160e11b8152600490fd5b8151158061263c575b61261a575090565b604051639996b31560e01b81526001600160a01b039091166004820152602490fd5b50803b1561261256fe9016d09d72d40fdae2fd8ceac6b6234c7706214fd39c1cd1e609a0528c199300f0c57e16840df040f15088dc2f81fe391c3923bec73e23a9662efc9c229c6a00a264697066735822122031513c589ad277d9689fd63e9fe9b51f0114c893e0fc2a925204741b456923c164736f6c63430008190033","opcodes":"PUSH1 0xA0 DUP1 PUSH1 0x40 MSTORE CALLVALUE PUSH1 0x29 JUMPI ADDRESS PUSH1 0x80 MSTORE PUSH2 0x26BB SWAP1 DUP2 PUSH2 0x2E DUP3 CODECOPY PUSH1 0x80 MLOAD DUP2 DUP2 DUP2 PUSH2 0x1BB1 ADD MSTORE PUSH2 0x1C95 ADD MSTORE RETURN JUMPDEST PUSH0 DUP1 REVERT INVALID PUSH1 0x80 PUSH1 0x40 MSTORE PUSH1 0x4 CALLDATASIZE LT ISZERO PUSH2 0x11 JUMPI PUSH0 DUP1 REVERT JUMPDEST PUSH0 CALLDATALOAD PUSH1 0xE0 SHR DUP1 PUSH4 0x6497CB9 EQ PUSH2 0x20C0 JUMPI DUP1 PUSH4 0xD8E6E2C EQ PUSH2 0x208E JUMPI DUP1 PUSH4 0x34DECFC9 EQ PUSH2 0x2071 JUMPI DUP1 PUSH4 0x3E99C1E4 EQ PUSH2 0x1FB5 JUMPI DUP1 PUSH4 0x4056C37F EQ PUSH2 0x144B JUMPI DUP1 PUSH4 0x4219DC40 EQ PUSH2 0x1F8E JUMPI DUP1 PUSH4 0x4AA06652 EQ PUSH2 0x1E65 JUMPI DUP1 PUSH4 0x4F1EF286 EQ PUSH2 0x1C1B JUMPI DUP1 PUSH4 0x52D1902D EQ PUSH2 0x1B9F JUMPI DUP1 PUSH4 0x5568081A EQ PUSH2 0x1961 JUMPI DUP1 PUSH4 0x61D027B3 EQ PUSH2 0x1939 JUMPI DUP1 PUSH4 0x6E81221C EQ PUSH2 0x1681 JUMPI DUP1 PUSH4 0x715018A6 EQ PUSH2 0x161A JUMPI DUP1 PUSH4 0x72591BE5 EQ PUSH2 0x15D8 JUMPI DUP1 PUSH4 0x85377188 EQ PUSH2 0x15BB JUMPI DUP1 PUSH4 0x8DA5CB5B EQ PUSH2 0x1587 JUMPI DUP1 PUSH4 0x8F2248BC EQ PUSH2 0x1498 JUMPI DUP1 PUSH4 0xA3E113FB EQ PUSH2 0x144B JUMPI DUP1 PUSH4 0xAD3CB1CC EQ PUSH2 0x13CA JUMPI DUP1 PUSH4 0xAD414263 EQ PUSH2 0x123B JUMPI DUP1 PUSH4 0xAE3CCE1C EQ PUSH2 0x118C JUMPI DUP1 PUSH4 0xB9F5E617 EQ PUSH2 0x116F JUMPI DUP1 PUSH4 0xC4D66DE8 EQ PUSH2 0x1014 JUMPI DUP1 PUSH4 0xE74E9B06 EQ PUSH2 0x9B8 JUMPI DUP1 PUSH4 0xEC0CD2EB EQ PUSH2 0x77D JUMPI DUP1 PUSH4 0xF2FDE38B EQ PUSH2 0x754 JUMPI DUP1 PUSH4 0xF31ABCC4 EQ PUSH2 0x194 JUMPI PUSH4 0xF4011C4C EQ PUSH2 0x14D JUMPI PUSH0 DUP1 REVERT JUMPDEST CALLVALUE PUSH2 0x190 JUMPI PUSH1 0x20 CALLDATASIZE PUSH1 0x3 NOT ADD SLT PUSH2 0x190 JUMPI PUSH2 0x166 PUSH2 0x2125 JUMP JUMPDEST PUSH2 0x16E PUSH2 0x257C JUMP JUMPDEST PUSH1 0x1 DUP1 SLOAD PUSH1 0x1 PUSH1 0x1 PUSH1 0xA0 SHL SUB NOT AND PUSH1 0x1 PUSH1 0x1 PUSH1 0xA0 SHL SUB SWAP3 SWAP1 SWAP3 AND SWAP2 SWAP1 SWAP2 OR SWAP1 SSTORE STOP JUMPDEST PUSH0 DUP1 REVERT JUMPDEST CALLVALUE PUSH2 0x190 JUMPI PUSH1 0x60 CALLDATASIZE PUSH1 0x3 NOT ADD SLT PUSH2 0x190 JUMPI PUSH1 0x4 CALLDATALOAD PUSH2 0x1B0 PUSH2 0x213B JUMP JUMPDEST PUSH2 0x1B8 PUSH2 0x2151 JUMP JUMPDEST DUP3 ISZERO PUSH2 0x70F JUMPI PUSH1 0x40 MLOAD PUSH4 0x6EB1769F PUSH1 0xE1 SHL DUP2 MSTORE CALLER PUSH1 0x4 DUP3 ADD MSTORE ADDRESS PUSH1 0x24 DUP3 ADD MSTORE PUSH1 0x20 SWAP3 PUSH1 0x1 PUSH1 0x1 PUSH1 0xA0 SHL SUB SWAP2 DUP3 DUP3 AND SWAP2 SWAP1 DUP6 DUP2 PUSH1 0x44 DUP2 DUP7 GAS STATICCALL DUP1 ISZERO PUSH2 0x510 JUMPI DUP8 SWAP2 PUSH0 SWAP2 PUSH2 0x6DE JUMPI JUMPDEST POP LT PUSH2 0x6A0 JUMPI PUSH1 0x40 MLOAD PUSH4 0x70A08231 PUSH1 0xE0 SHL DUP1 DUP3 MSTORE CALLER PUSH1 0x4 DUP4 ADD MSTORE SWAP7 PUSH1 0x24 SWAP6 SWAP2 DUP8 DUP2 DUP9 DUP2 DUP9 GAS STATICCALL DUP1 ISZERO PUSH2 0x510 JUMPI DUP3 SWAP1 PUSH0 SWAP1 PUSH2 0x66F JUMPI JUMPDEST PUSH2 0x240 SWAP3 POP LT ISZERO PUSH2 0x2359 JUMP JUMPDEST PUSH1 0x40 MLOAD PUSH4 0x23B872DD PUSH1 0xE0 SHL DUP2 MSTORE CALLER PUSH1 0x4 DUP3 ADD MSTORE ADDRESS PUSH1 0x24 DUP3 ADD MSTORE PUSH1 0x44 DUP2 ADD DUP3 SWAP1 MSTORE DUP8 DUP2 PUSH1 0x64 DUP2 PUSH0 DUP10 GAS CALL SWAP1 DUP2 ISZERO PUSH2 0x510 JUMPI PUSH0 SWAP2 PUSH2 0x652 JUMPI JUMPDEST POP ISZERO PUSH2 0x618 JUMPI PUSH1 0x40 MLOAD PUSH4 0xA9059CBB PUSH1 0xE0 SHL DUP1 DUP3 MSTORE PUSH1 0x1 PUSH1 0x1 PUSH1 0xA0 SHL SUB SWAP5 SWAP1 SWAP5 AND PUSH1 0x4 DUP3 ADD MSTORE PUSH1 0x24 DUP2 ADD SWAP2 SWAP1 SWAP2 MSTORE DUP7 DUP2 PUSH1 0x44 DUP2 PUSH0 DUP9 GAS CALL SWAP1 DUP2 ISZERO PUSH2 0x510 JUMPI PUSH0 SWAP2 PUSH2 0x5FB JUMPI JUMPDEST POP ISZERO PUSH2 0x5C5 JUMPI PUSH1 0x40 MLOAD PUSH4 0x226BF2D1 PUSH1 0xE2 SHL DUP2 MSTORE DUP5 DUP3 AND PUSH1 0x4 DUP3 ADD MSTORE SWAP1 PUSH0 DUP3 DUP8 DUP2 DUP4 DUP9 GAS CALL SWAP2 DUP3 ISZERO PUSH2 0x510 JUMPI PUSH0 SWAP3 PUSH2 0x5A1 JUMPI JUMPDEST POP PUSH1 0x40 MLOAD PUSH4 0x19F92B0B PUSH1 0xE2 SHL DUP2 MSTORE SWAP8 PUSH0 DUP10 PUSH1 0x4 DUP2 DUP9 GAS STATICCALL SWAP9 DUP10 ISZERO PUSH2 0x510 JUMPI PUSH0 SWAP10 PUSH2 0x57D JUMPI JUMPDEST POP PUSH0 JUMPDEST DUP10 MLOAD DUP2 LT ISZERO PUSH2 0x57B JUMPI PUSH2 0x386 DUP2 DUP11 DUP13 DUP11 PUSH2 0x353 PUSH2 0x34B PUSH2 0x342 PUSH2 0x338 DUP8 DUP14 PUSH2 0x22EC JUMP JUMPDEST MLOAD PUSH1 0x3 SLOAD SWAP1 PUSH2 0x2314 JUMP JUMPDEST PUSH1 0x4 SLOAD SWAP1 PUSH2 0x233B JUMP JUMPDEST SWAP5 DUP6 SWAP4 PUSH2 0x22EC JUMP JUMPDEST MLOAD AND DUP12 PUSH1 0x1 SLOAD AND PUSH0 DUP12 PUSH1 0x40 MLOAD SWAP8 DUP9 SWAP6 DUP7 SWAP5 DUP6 SWAP4 DUP5 MSTORE PUSH1 0x4 DUP5 ADD PUSH1 0x20 SWAP1 SWAP4 SWAP3 SWAP2 SWAP4 PUSH1 0x40 DUP2 ADD SWAP5 PUSH1 0x1 DUP1 PUSH1 0xA0 SHL SUB AND DUP2 MSTORE ADD MSTORE JUMP JUMPDEST SUB SWAP3 GAS CALL SWAP2 DUP3 ISZERO PUSH2 0x510 JUMPI DUP10 PUSH2 0x3A6 DUP6 DUP16 DUP16 SWAP5 DUP16 SWAP8 PUSH2 0x55E JUMPI JUMPDEST POP PUSH2 0x22EC JUMP JUMPDEST MLOAD AND PUSH1 0x40 MLOAD SWAP4 DUP5 DUP1 SWAP3 DUP9 DUP3 MSTORE ADDRESS PUSH1 0x4 DUP4 ADD MSTORE GAS STATICCALL DUP1 ISZERO PUSH2 0x510 JUMPI DUP13 DUP13 SWAP3 DUP9 DUP12 DUP8 SWAP5 DUP15 SWAP8 PUSH0 SWAP2 PUSH2 0x51B JUMPI JUMPDEST POP PUSH2 0x44E SWAP4 PUSH2 0x438 DUP8 DUP6 PUSH0 SWAP12 SWAP9 SWAP6 PUSH2 0x3FB PUSH2 0x43E SWAP7 PUSH2 0x3F3 DUP6 PUSH2 0x487 SWAP15 SWAP12 PUSH2 0x22EC JUMP JUMPDEST MLOAD GT ISZERO PUSH2 0x24C6 JUMP JUMPDEST PUSH2 0x405 DUP4 DUP4 PUSH2 0x22EC JUMP JUMPDEST MLOAD SWAP1 DUP14 MSTORE PUSH1 0x5 DUP13 MSTORE PUSH1 0x40 DUP14 KECCAK256 DUP11 PUSH2 0x41C DUP6 DUP11 PUSH2 0x22EC JUMP JUMPDEST MLOAD AND DUP15 MSTORE DUP13 MSTORE PUSH2 0x431 PUSH1 0x40 DUP15 KECCAK256 SWAP2 DUP3 SLOAD PUSH2 0x240A JUMP JUMPDEST SWAP1 SSTORE PUSH2 0x22EC JUMP JUMPDEST MLOAD PUSH2 0x240A JUMP JUMPDEST PUSH2 0x448 DUP4 DUP14 PUSH2 0x22EC JUMP JUMPDEST MSTORE PUSH2 0x22EC JUMP JUMPDEST MLOAD AND PUSH2 0x45A DUP6 DUP10 PUSH2 0x22EC JUMP JUMPDEST MLOAD PUSH1 0x40 MLOAD DUP11 DUP2 MSTORE PUSH1 0x1 PUSH1 0x1 PUSH1 0xA0 SHL SUB DUP10 AND PUSH1 0x4 DUP3 ADD MSTORE PUSH1 0x24 DUP2 ADD SWAP2 SWAP1 SWAP2 MSTORE SWAP4 DUP5 SWAP3 DUP4 SWAP2 SWAP1 DUP3 SWAP1 PUSH1 0x44 DUP3 ADD SWAP1 JUMP JUMPDEST SUB SWAP3 GAS CALL SWAP1 DUP2 ISZERO PUSH2 0x510 JUMPI PUSH0 SWAP2 PUSH2 0x4E3 JUMPI JUMPDEST POP ISZERO PUSH2 0x4A7 JUMPI PUSH1 0x1 ADD PUSH2 0x315 JUMP JUMPDEST PUSH1 0x40 MLOAD PUSH3 0x461BCD PUSH1 0xE5 SHL DUP2 MSTORE PUSH1 0x4 DUP2 ADD DUP11 SWAP1 MSTORE PUSH1 0x15 DUP2 DUP11 ADD MSTORE PUSH21 0x105CDCD95D081D1C985B9CD9995C8819985A5B1959 PUSH1 0x5A SHL PUSH1 0x44 DUP3 ADD MSTORE PUSH1 0x64 SWAP1 REVERT JUMPDEST PUSH2 0x503 SWAP2 POP DUP11 RETURNDATASIZE DUP13 GT PUSH2 0x509 JUMPI JUMPDEST PUSH2 0x4FB DUP2 DUP4 PUSH2 0x21A2 JUMP JUMPDEST DUP2 ADD SWAP1 PUSH2 0x2462 JUMP JUMPDEST DUP12 PUSH2 0x499 JUMP JUMPDEST POP RETURNDATASIZE PUSH2 0x4F1 JUMP JUMPDEST PUSH1 0x40 MLOAD RETURNDATASIZE PUSH0 DUP3 RETURNDATACOPY RETURNDATASIZE SWAP1 REVERT JUMPDEST SWAP8 POP POP POP POP SWAP3 DUP1 SWAP3 POP DUP5 SWAP2 POP RETURNDATASIZE DUP4 GT PUSH2 0x557 JUMPI JUMPDEST PUSH2 0x539 DUP2 DUP4 PUSH2 0x21A2 JUMP JUMPDEST DUP2 ADD SUB SLT PUSH2 0x190 JUMPI SWAP1 MLOAD DUP9 SWAP2 DUP12 SWAP2 DUP5 SWAP2 DUP15 SWAP2 DUP10 SWAP1 DUP13 SWAP1 PUSH2 0x44E PUSH2 0x3D0 JUMP JUMPDEST POP RETURNDATASIZE PUSH2 0x52F JUMP JUMPDEST PUSH2 0x574 SWAP1 DUP7 RETURNDATASIZE DUP9 GT PUSH2 0x509 JUMPI PUSH2 0x4FB DUP2 DUP4 PUSH2 0x21A2 JUMP JUMPDEST POP PUSH0 PUSH2 0x3A0 JUMP JUMPDEST STOP JUMPDEST PUSH2 0x59A SWAP2 SWAP10 POP RETURNDATASIZE DUP1 PUSH0 DUP4 RETURNDATACOPY PUSH2 0x592 DUP2 DUP4 PUSH2 0x21A2 JUMP JUMPDEST DUP2 ADD SWAP1 PUSH2 0x2239 JUMP JUMPDEST SWAP8 DUP10 PUSH2 0x312 JUMP JUMPDEST PUSH2 0x5BE SWAP2 SWAP3 POP RETURNDATASIZE DUP1 PUSH0 DUP4 RETURNDATACOPY PUSH2 0x5B6 DUP2 DUP4 PUSH2 0x21A2 JUMP JUMPDEST DUP2 ADD SWAP1 PUSH2 0x247A JUMP JUMPDEST SWAP1 DUP9 PUSH2 0x2ED JUMP JUMPDEST PUSH1 0x40 MLOAD PUSH3 0x461BCD PUSH1 0xE5 SHL DUP2 MSTORE PUSH1 0x4 DUP2 ADD DUP8 SWAP1 MSTORE PUSH1 0xF DUP2 DUP8 ADD MSTORE PUSH15 0x151C985B9CD9995C8819985A5B1959 PUSH1 0x8A SHL PUSH1 0x44 DUP3 ADD MSTORE PUSH1 0x64 SWAP1 REVERT JUMPDEST PUSH2 0x612 SWAP2 POP DUP8 RETURNDATASIZE DUP10 GT PUSH2 0x509 JUMPI PUSH2 0x4FB DUP2 DUP4 PUSH2 0x21A2 JUMP JUMPDEST DUP9 PUSH2 0x2BB JUMP JUMPDEST PUSH1 0x40 MLOAD PUSH3 0x461BCD PUSH1 0xE5 SHL DUP2 MSTORE PUSH1 0x4 DUP2 ADD DUP9 SWAP1 MSTORE PUSH1 0x13 DUP2 DUP9 ADD MSTORE PUSH19 0x151C985B9CD9995C919C9BDB4819985A5B1959 PUSH1 0x6A SHL PUSH1 0x44 DUP3 ADD MSTORE PUSH1 0x64 SWAP1 REVERT JUMPDEST PUSH2 0x669 SWAP2 POP DUP9 RETURNDATASIZE DUP11 GT PUSH2 0x509 JUMPI PUSH2 0x4FB DUP2 DUP4 PUSH2 0x21A2 JUMP JUMPDEST DUP10 PUSH2 0x277 JUMP JUMPDEST POP POP DUP8 DUP2 DUP2 RETURNDATASIZE DUP4 GT PUSH2 0x699 JUMPI JUMPDEST PUSH2 0x686 DUP2 DUP4 PUSH2 0x21A2 JUMP JUMPDEST DUP2 ADD SUB SLT PUSH2 0x190 JUMPI DUP2 PUSH2 0x240 SWAP2 MLOAD PUSH2 0x234 JUMP JUMPDEST POP RETURNDATASIZE PUSH2 0x67C JUMP JUMPDEST PUSH1 0x40 MLOAD PUSH3 0x461BCD PUSH1 0xE5 SHL DUP2 MSTORE PUSH1 0x4 DUP2 ADD DUP7 SWAP1 MSTORE PUSH1 0x16 PUSH1 0x24 DUP3 ADD MSTORE PUSH22 0x496E73756666696369656E7420616C6C6F77616E6365 PUSH1 0x50 SHL PUSH1 0x44 DUP3 ADD MSTORE PUSH1 0x64 SWAP1 REVERT JUMPDEST DUP1 SWAP3 POP DUP8 DUP1 SWAP3 POP RETURNDATASIZE DUP4 GT PUSH2 0x708 JUMPI JUMPDEST PUSH2 0x6F7 DUP2 DUP4 PUSH2 0x21A2 JUMP JUMPDEST DUP2 ADD SUB SLT PUSH2 0x190 JUMPI DUP7 SWAP1 MLOAD DUP9 PUSH2 0x1FF JUMP JUMPDEST POP RETURNDATASIZE PUSH2 0x6ED JUMP JUMPDEST PUSH1 0x40 MLOAD PUSH3 0x461BCD PUSH1 0xE5 SHL DUP2 MSTORE PUSH1 0x20 PUSH1 0x4 DUP3 ADD MSTORE PUSH1 0x1F PUSH1 0x24 DUP3 ADD MSTORE PUSH32 0x5368617265206D7573742062652067726561746572207468616E207A65726F00 PUSH1 0x44 DUP3 ADD MSTORE PUSH1 0x64 SWAP1 REVERT JUMPDEST CALLVALUE PUSH2 0x190 JUMPI PUSH1 0x20 CALLDATASIZE PUSH1 0x3 NOT ADD SLT PUSH2 0x190 JUMPI PUSH2 0x57B PUSH2 0x770 PUSH2 0x2125 JUMP JUMPDEST PUSH2 0x778 PUSH2 0x257C JUMP JUMPDEST PUSH2 0x250B JUMP JUMPDEST CALLVALUE PUSH2 0x190 JUMPI PUSH1 0x60 CALLDATASIZE PUSH1 0x3 NOT ADD SLT PUSH2 0x190 JUMPI PUSH1 0x4 CALLDATALOAD PUSH1 0x1 PUSH1 0x1 PUSH1 0x40 SHL SUB DUP2 GT PUSH2 0x190 JUMPI PUSH2 0x7AD SWAP1 CALLDATASIZE SWAP1 PUSH1 0x4 ADD PUSH2 0x21DE JUMP JUMPDEST SWAP1 PUSH2 0x7B6 PUSH2 0x213B JUMP JUMPDEST SWAP2 PUSH2 0x7BF PUSH2 0x2151 JUMP JUMPDEST PUSH1 0x40 MLOAD PUSH4 0x19F92B0B PUSH1 0xE2 SHL DUP2 MSTORE PUSH1 0x1 PUSH1 0x1 PUSH1 0xA0 SHL SUB SWAP5 SWAP2 SWAP4 SWAP2 DUP6 AND SWAP3 SWAP1 PUSH0 DUP2 PUSH1 0x4 DUP2 DUP8 GAS STATICCALL SWAP1 DUP2 ISZERO PUSH2 0x510 JUMPI PUSH0 SWAP2 PUSH2 0x99E JUMPI JUMPDEST POP PUSH0 JUMPDEST DUP2 MLOAD DUP2 LT ISZERO PUSH2 0x91D JUMPI DUP7 PUSH2 0x809 DUP3 DUP5 PUSH2 0x22EC JUMP JUMPDEST MLOAD AND SWAP1 PUSH2 0x817 DUP2 DUP6 DUP8 PUSH2 0x24A2 JUMP JUMPDEST PUSH1 0x40 MLOAD PUSH4 0x23B872DD PUSH1 0xE0 SHL DUP2 MSTORE CALLER PUSH1 0x4 DUP3 ADD MSTORE ADDRESS PUSH1 0x24 DUP3 ADD MSTORE SWAP1 CALLDATALOAD PUSH1 0x44 DUP3 ADD DUP2 SWAP1 MSTORE SWAP1 SWAP3 PUSH1 0x20 SWAP2 DUP3 DUP6 PUSH1 0x64 DUP2 PUSH0 DUP7 GAS CALL SWAP5 DUP6 ISZERO PUSH2 0x510 JUMPI PUSH2 0x89D SWAP6 PUSH2 0x900 JUMPI JUMPDEST POP PUSH2 0x867 PUSH2 0x342 PUSH1 0x3 SLOAD DUP4 PUSH2 0x2314 JUMP JUMPDEST PUSH1 0x1 SLOAD PUSH1 0x40 MLOAD PUSH4 0xA9059CBB PUSH1 0xE0 SHL DUP2 MSTORE SWAP1 DUP14 AND PUSH1 0x1 PUSH1 0x1 PUSH1 0xA0 SHL SUB AND PUSH1 0x4 DUP3 ADD MSTORE PUSH1 0x24 DUP2 ADD DUP3 SWAP1 MSTORE SWAP6 DUP5 SWAP1 DUP8 SWAP1 DUP2 SWAP1 PUSH1 0x44 DUP3 ADD SWAP1 JUMP JUMPDEST SUB DUP2 PUSH0 DUP8 GAS CALL SWAP2 DUP3 ISZERO PUSH2 0x510 JUMPI PUSH1 0x1 SWAP7 PUSH2 0x8BC SWAP4 PUSH2 0x8E3 JUMPI JUMPDEST POP PUSH2 0x240A JUMP JUMPDEST SWAP2 DUP9 PUSH0 MSTORE PUSH1 0x5 DUP2 MSTORE PUSH1 0x40 PUSH0 KECCAK256 SWAP2 PUSH0 MSTORE MSTORE PUSH2 0x8DB PUSH1 0x40 PUSH0 KECCAK256 SWAP2 DUP3 SLOAD PUSH2 0x23FD JUMP JUMPDEST SWAP1 SSTORE ADD PUSH2 0x7F5 JUMP JUMPDEST PUSH2 0x8F9 SWAP1 DUP7 RETURNDATASIZE DUP9 GT PUSH2 0x509 JUMPI PUSH2 0x4FB DUP2 DUP4 PUSH2 0x21A2 JUMP JUMPDEST POP DUP14 PUSH2 0x8B6 JUMP JUMPDEST PUSH2 0x916 SWAP1 DUP5 RETURNDATASIZE DUP7 GT PUSH2 0x509 JUMPI PUSH2 0x4FB DUP2 DUP4 PUSH2 0x21A2 JUMP JUMPDEST POP DUP12 PUSH2 0x857 JUMP JUMPDEST POP POP PUSH1 0x40 DUP1 MLOAD PUSH4 0xDE836EBD PUSH1 0xE0 SHL DUP2 MSTORE SWAP5 DUP7 AND PUSH1 0x4 DUP7 ADD MSTORE PUSH1 0x24 DUP6 ADD MSTORE PUSH1 0x44 DUP5 ADD DUP2 SWAP1 MSTORE SWAP1 SWAP2 PUSH1 0x1 PUSH1 0x1 PUSH1 0xFB SHL SUB DUP3 GT PUSH2 0x190 JUMPI DUP4 PUSH0 PUSH1 0x64 DUP3 PUSH1 0x20 SWAP7 DUP2 SWAP7 PUSH1 0x5 SHL DUP1 SWAP2 DUP5 DUP5 ADD CALLDATACOPY DUP2 ADD SUB ADD SWAP3 GAS CALL DUP1 ISZERO PUSH2 0x510 JUMPI PUSH2 0x977 JUMPI STOP JUMPDEST PUSH1 0x20 SWAP1 DUP2 RETURNDATASIZE DUP4 GT PUSH2 0x997 JUMPI JUMPDEST PUSH2 0x98D DUP2 DUP4 PUSH2 0x21A2 JUMP JUMPDEST DUP2 ADD SUB SLT PUSH2 0x190 JUMPI STOP JUMPDEST POP RETURNDATASIZE PUSH2 0x983 JUMP JUMPDEST PUSH2 0x9B2 SWAP2 POP RETURNDATASIZE DUP1 PUSH0 DUP4 RETURNDATACOPY PUSH2 0x592 DUP2 DUP4 PUSH2 0x21A2 JUMP JUMPDEST DUP7 PUSH2 0x7F2 JUMP JUMPDEST CALLVALUE PUSH2 0x190 JUMPI PUSH1 0x80 CALLDATASIZE PUSH1 0x3 NOT ADD SLT PUSH2 0x190 JUMPI PUSH1 0x1 PUSH1 0x1 PUSH1 0x40 SHL SUB PUSH1 0x4 CALLDATALOAD DUP2 DUP2 GT PUSH2 0x190 JUMPI PUSH2 0x9E9 SWAP1 CALLDATASIZE SWAP1 PUSH1 0x4 ADD PUSH2 0x21DE JUMP JUMPDEST SWAP2 SWAP1 PUSH1 0x24 CALLDATALOAD DUP3 DUP2 GT PUSH2 0x190 JUMPI PUSH2 0xA03 SWAP1 CALLDATASIZE SWAP1 PUSH1 0x4 ADD PUSH2 0x21DE JUMP JUMPDEST PUSH1 0x44 SWAP5 SWAP2 SWAP5 CALLDATALOAD DUP5 DUP2 GT PUSH2 0x190 JUMPI PUSH2 0xA1E SWAP1 CALLDATASIZE SWAP1 PUSH1 0x4 ADD PUSH2 0x21DE JUMP JUMPDEST SWAP6 SWAP1 SWAP5 PUSH1 0x64 CALLDATALOAD SWAP1 DUP2 GT PUSH2 0x190 JUMPI PUSH2 0xA39 SWAP1 CALLDATASIZE SWAP1 PUSH1 0x4 ADD PUSH2 0x21DE JUMP JUMPDEST SWAP4 DUP4 DUP2 EQ DUP1 PUSH2 0x100B JUMPI JUMPDEST DUP1 PUSH2 0x1002 JUMPI JUMPDEST ISZERO PUSH2 0xFBD JUMPI PUSH2 0xA57 DUP2 PUSH2 0x22BA JUMP JUMPDEST SWAP7 PUSH0 JUMPDEST DUP3 DUP2 LT PUSH2 0xA73 JUMPI PUSH1 0x40 MLOAD DUP1 PUSH2 0xA6F DUP12 DUP3 PUSH2 0x2167 JUMP JUMPDEST SUB SWAP1 RETURN JUMPDEST PUSH2 0xA89 PUSH2 0xA81 DUP3 DUP13 DUP6 PUSH2 0x24A2 JUMP JUMPDEST CALLDATALOAD ISZERO ISZERO PUSH2 0x2417 JUMP JUMPDEST PUSH0 SLOAD PUSH2 0xAF1 SWAP1 PUSH1 0x20 SWAP1 PUSH1 0x1 PUSH1 0x1 PUSH1 0xA0 SHL SUB AND PUSH2 0xAAE PUSH2 0xAA9 DUP6 DUP9 DUP15 PUSH2 0x24A2 JUMP JUMPDEST PUSH2 0x24B2 JUMP JUMPDEST SWAP1 PUSH2 0xABD PUSH2 0xAA9 DUP7 DUP13 DUP13 PUSH2 0x24A2 JUMP JUMPDEST PUSH1 0x40 MLOAD PUSH4 0x2D5E94A7 PUSH1 0xE0 SHL DUP2 MSTORE PUSH1 0x1 PUSH1 0x1 PUSH1 0xA0 SHL SUB SWAP4 DUP5 AND PUSH1 0x4 DUP3 ADD MSTORE SWAP3 AND PUSH1 0x24 DUP4 ADD MSTORE SWAP1 SWAP3 DUP4 SWAP2 SWAP1 DUP3 SWAP1 DUP2 SWAP1 PUSH1 0x44 DUP3 ADD SWAP1 JUMP JUMPDEST SUB SWAP2 GAS STATICCALL SWAP1 DUP2 ISZERO PUSH2 0x510 JUMPI PUSH0 SWAP2 PUSH2 0xF83 JUMPI JUMPDEST POP PUSH1 0x24 PUSH1 0x20 PUSH1 0x1 PUSH1 0x1 PUSH1 0xA0 SHL SUB PUSH2 0xB1E PUSH2 0xAA9 DUP7 DUP10 DUP16 PUSH2 0x24A2 JUMP JUMPDEST AND PUSH1 0x40 MLOAD SWAP3 DUP4 DUP1 SWAP3 PUSH4 0x70A08231 PUSH1 0xE0 SHL DUP3 MSTORE CALLER PUSH1 0x4 DUP4 ADD MSTORE GAS STATICCALL SWAP1 DUP2 ISZERO PUSH2 0x510 JUMPI PUSH0 SWAP2 PUSH2 0xF51 JUMPI JUMPDEST POP PUSH2 0xB52 DUP4 DUP14 DUP7 PUSH2 0x24A2 JUMP JUMPDEST CALLDATALOAD GT PUSH2 0xF15 JUMPI PUSH0 SWAP1 PUSH1 0x20 PUSH2 0xBB1 DUP14 PUSH2 0xB82 DUP7 DUP15 PUSH2 0xB7A PUSH2 0xAA9 DUP4 DUP14 PUSH1 0x1 DUP1 PUSH1 0xA0 SHL SUB SWAP5 PUSH2 0x24A2 JUMP JUMPDEST AND SWAP3 DUP10 PUSH2 0x24A2 JUMP JUMPDEST PUSH1 0x40 MLOAD PUSH4 0x23B872DD PUSH1 0xE0 SHL DUP2 MSTORE CALLER PUSH1 0x4 DUP3 ADD MSTORE ADDRESS PUSH1 0x24 DUP3 ADD MSTORE SWAP1 CALLDATALOAD PUSH1 0x44 DUP3 ADD MSTORE SWAP5 DUP6 SWAP3 DUP4 SWAP2 SWAP1 DUP3 SWAP1 PUSH1 0x64 DUP3 ADD SWAP1 JUMP JUMPDEST SUB SWAP3 GAS CALL SWAP2 DUP3 ISZERO PUSH2 0x510 JUMPI DUP13 DUP9 PUSH2 0xC9A PUSH2 0xC5A PUSH2 0xAA9 DUP16 DUP16 SWAP9 DUP16 PUSH2 0xC4B PUSH2 0xAA9 DUP16 DUP16 SWAP4 DUP16 SWAP7 PUSH2 0xAA9 DUP16 PUSH1 0x20 SWAP16 SWAP5 DUP16 SWAP4 DUP12 SWAP10 SWAP3 PUSH2 0xC00 DUP12 PUSH2 0xC45 SWAP8 DUP2 SWAP11 SWAP7 PUSH2 0xC52 SWAP16 SWAP8 DUP4 SWAP9 PUSH2 0xEF7 JUMPI JUMPDEST POP PUSH2 0x24A2 JUMP JUMPDEST PUSH1 0x1 PUSH1 0x1 PUSH1 0xA0 SHL SUB SWAP2 DUP3 AND PUSH0 SWAP1 DUP2 MSTORE PUSH1 0x5 PUSH1 0x20 MSTORE PUSH1 0x40 SWAP1 KECCAK256 SWAP1 CALLDATALOAD SWAP2 PUSH2 0xC29 PUSH2 0xAA9 DUP8 DUP8 DUP8 PUSH2 0x24A2 JUMP JUMPDEST AND PUSH0 MSTORE PUSH1 0x20 MSTORE PUSH2 0xC3E PUSH1 0x40 PUSH0 KECCAK256 SWAP2 DUP3 SLOAD PUSH2 0x23FD JUMP JUMPDEST SWAP1 SSTORE PUSH2 0x24A2 JUMP JUMPDEST SWAP11 PUSH2 0x24A2 JUMP JUMPDEST SWAP8 DUP14 PUSH2 0x24A2 JUMP JUMPDEST CALLDATALOAD SWAP9 DUP14 PUSH2 0x24A2 JUMP JUMPDEST PUSH1 0x40 MLOAD PUSH4 0x1BA04887 PUSH1 0xE2 SHL DUP2 MSTORE PUSH1 0x1 PUSH1 0x1 PUSH1 0xA0 SHL SUB SWAP4 DUP5 AND PUSH1 0x4 DUP3 ADD MSTORE SWAP4 DUP4 AND PUSH1 0x24 DUP6 ADD MSTORE PUSH1 0x44 DUP5 ADD SWAP7 SWAP1 SWAP7 MSTORE SWAP5 AND PUSH1 0x64 DUP3 ADD MSTORE SWAP3 DUP4 SWAP1 DUP2 SWAP1 PUSH1 0x84 DUP3 ADD SWAP1 JUMP JUMPDEST SUB DUP2 PUSH0 PUSH1 0x1 PUSH1 0x1 PUSH1 0xA0 SHL SUB DUP7 AND GAS CALL SWAP1 DUP2 ISZERO PUSH2 0x510 JUMPI PUSH0 SWAP2 PUSH2 0xEC2 JUMPI JUMPDEST PUSH1 0x24 SWAP3 POP PUSH1 0x20 PUSH1 0x1 PUSH1 0x1 PUSH1 0xA0 SHL SUB PUSH2 0xCD3 PUSH2 0xAA9 DUP8 DUP14 DUP14 PUSH2 0x24A2 JUMP JUMPDEST AND PUSH1 0x40 MLOAD SWAP5 DUP6 DUP1 SWAP3 PUSH4 0x70A08231 PUSH1 0xE0 SHL DUP3 MSTORE ADDRESS PUSH1 0x4 DUP4 ADD MSTORE GAS STATICCALL DUP1 ISZERO PUSH2 0x510 JUMPI DUP5 SWAP4 PUSH0 SWAP2 PUSH2 0xE8B JUMPI JUMPDEST POP DUP3 PUSH2 0xD09 SWAP2 LT ISZERO PUSH2 0x24C6 JUMP JUMPDEST PUSH2 0xD74 PUSH1 0x20 DUP11 DUP11 PUSH2 0xD36 PUSH2 0xAA9 PUSH2 0xD25 PUSH2 0x342 PUSH1 0x3 SLOAD DUP11 PUSH2 0x2314 JUMP JUMPDEST SWAP10 DUP11 SWAP5 PUSH1 0x1 PUSH1 0x1 PUSH1 0xA0 SHL SUB SWAP5 PUSH2 0x24A2 JUMP JUMPDEST PUSH1 0x1 SLOAD PUSH1 0x40 MLOAD PUSH4 0xA9059CBB PUSH1 0xE0 SHL DUP2 MSTORE PUSH1 0x1 PUSH1 0x1 PUSH1 0xA0 SHL SUB SWAP1 SWAP2 AND PUSH1 0x4 DUP3 ADD MSTORE PUSH1 0x24 DUP2 ADD SWAP4 SWAP1 SWAP4 MSTORE SWAP2 SWAP4 DUP5 SWAP3 SWAP2 SWAP1 SWAP2 AND SWAP1 DUP3 SWAP1 PUSH0 SWAP1 DUP3 SWAP1 PUSH1 0x44 DUP3 ADD SWAP1 JUMP JUMPDEST SUB SWAP3 GAS CALL SWAP5 DUP6 ISZERO PUSH2 0x510 JUMPI DUP12 PUSH2 0xDC1 PUSH2 0xAA9 DUP8 DUP14 DUP16 SWAP6 PUSH2 0xAA9 PUSH2 0xDA8 PUSH2 0xDB9 SWAP3 DUP6 SWAP13 PUSH2 0xDF8 SWAP16 SWAP12 PUSH1 0x20 SWAP13 PUSH2 0xE6E JUMPI POP PUSH2 0x240A JUMP JUMPDEST SWAP11 DUP12 SWAP9 PUSH1 0x1 PUSH1 0x1 PUSH1 0xA0 SHL SUB SWAP5 PUSH2 0x24A2 JUMP JUMPDEST AND SWAP4 DUP14 PUSH2 0x24A2 JUMP JUMPDEST PUSH1 0x40 MLOAD PUSH4 0xA9059CBB PUSH1 0xE0 SHL DUP2 MSTORE PUSH1 0x1 PUSH1 0x1 PUSH1 0xA0 SHL SUB SWAP1 SWAP2 AND PUSH1 0x4 DUP3 ADD MSTORE PUSH1 0x24 DUP2 ADD SWAP3 SWAP1 SWAP3 MSTORE SWAP1 SWAP6 DUP7 SWAP2 SWAP1 DUP3 SWAP1 PUSH0 SWAP1 DUP3 SWAP1 PUSH1 0x44 DUP3 ADD SWAP1 JUMP JUMPDEST SUB SWAP3 GAS CALL SWAP4 DUP5 ISZERO PUSH2 0x510 JUMPI PUSH1 0x1 SWAP5 PUSH2 0xE4F JUMPI JUMPDEST POP DUP4 DUP1 PUSH1 0xA0 SHL SUB AND PUSH0 MSTORE PUSH1 0x5 PUSH1 0x20 MSTORE PUSH1 0x40 PUSH0 KECCAK256 DUP4 DUP1 PUSH1 0xA0 SHL SUB PUSH2 0xE32 PUSH2 0xAA9 DUP6 DUP13 DUP13 PUSH2 0x24A2 JUMP JUMPDEST AND PUSH0 MSTORE PUSH1 0x20 MSTORE PUSH2 0xE47 PUSH1 0x40 PUSH0 KECCAK256 SWAP2 DUP3 SLOAD PUSH2 0x240A JUMP JUMPDEST SWAP1 SSTORE ADD PUSH2 0xA5A JUMP JUMPDEST PUSH2 0xE67 SWAP1 PUSH1 0x20 RETURNDATASIZE PUSH1 0x20 GT PUSH2 0x509 JUMPI PUSH2 0x4FB DUP2 DUP4 PUSH2 0x21A2 JUMP JUMPDEST POP DUP14 PUSH2 0xE0B JUMP JUMPDEST PUSH2 0xE84 SWAP1 DUP14 RETURNDATASIZE DUP16 GT PUSH2 0x509 JUMPI PUSH2 0x4FB DUP2 DUP4 PUSH2 0x21A2 JUMP JUMPDEST POP PUSH0 PUSH2 0x8B6 JUMP JUMPDEST SWAP4 POP POP PUSH1 0x20 DUP4 RETURNDATASIZE PUSH1 0x20 GT PUSH2 0xEBA JUMPI JUMPDEST DUP2 PUSH2 0xEA7 PUSH1 0x20 SWAP4 DUP4 PUSH2 0x21A2 JUMP JUMPDEST DUP2 ADD SUB SLT PUSH2 0x190 JUMPI SWAP2 MLOAD DUP4 SWAP3 SWAP1 DUP3 PUSH2 0xCFC JUMP JUMPDEST RETURNDATASIZE SWAP2 POP PUSH2 0xE9A JUMP JUMPDEST SWAP1 POP PUSH1 0x20 DUP3 RETURNDATASIZE PUSH1 0x20 GT PUSH2 0xEEF JUMPI JUMPDEST DUP2 PUSH2 0xEDD PUSH1 0x20 SWAP4 DUP4 PUSH2 0x21A2 JUMP JUMPDEST DUP2 ADD SUB SLT PUSH2 0x190 JUMPI PUSH1 0x24 SWAP2 MLOAD SWAP1 PUSH2 0xCB7 JUMP JUMPDEST RETURNDATASIZE SWAP2 POP PUSH2 0xED0 JUMP JUMPDEST PUSH2 0xF0E SWAP1 PUSH1 0x20 RETURNDATASIZE DUP2 GT PUSH2 0x509 JUMPI PUSH2 0x4FB DUP2 DUP4 PUSH2 0x21A2 JUMP JUMPDEST POP PUSH0 PUSH2 0xBFA JUMP JUMPDEST PUSH1 0x40 MLOAD PUSH3 0x461BCD PUSH1 0xE5 SHL DUP2 MSTORE PUSH1 0x20 PUSH1 0x4 DUP3 ADD MSTORE PUSH1 0x14 PUSH1 0x24 DUP3 ADD MSTORE PUSH20 0x496E73756666696369656E742042616C616E6365 PUSH1 0x60 SHL PUSH1 0x44 DUP3 ADD MSTORE PUSH1 0x64 SWAP1 REVERT JUMPDEST SWAP1 POP PUSH1 0x20 DUP2 RETURNDATASIZE PUSH1 0x20 GT PUSH2 0xF7B JUMPI JUMPDEST DUP2 PUSH2 0xF6C PUSH1 0x20 SWAP4 DUP4 PUSH2 0x21A2 JUMP JUMPDEST DUP2 ADD SUB SLT PUSH2 0x190 JUMPI MLOAD DUP13 PUSH2 0xB46 JUMP JUMPDEST RETURNDATASIZE SWAP2 POP PUSH2 0xF5F JUMP JUMPDEST SWAP1 POP PUSH1 0x20 DUP2 RETURNDATASIZE PUSH1 0x20 GT PUSH2 0xFB5 JUMPI JUMPDEST DUP2 PUSH2 0xF9E PUSH1 0x20 SWAP4 DUP4 PUSH2 0x21A2 JUMP JUMPDEST DUP2 ADD SUB SLT PUSH2 0x190 JUMPI PUSH2 0xFAF SWAP1 PUSH2 0x2225 JUMP JUMPDEST DUP12 PUSH2 0xB03 JUMP JUMPDEST RETURNDATASIZE SWAP2 POP PUSH2 0xF91 JUMP JUMPDEST PUSH1 0x40 MLOAD PUSH3 0x461BCD PUSH1 0xE5 SHL DUP2 MSTORE PUSH1 0x20 PUSH1 0x4 DUP3 ADD MSTORE PUSH1 0x1C PUSH1 0x24 DUP3 ADD MSTORE PUSH32 0x496E70757420617272617973206C656E677468206D69736D6174636800000000 PUSH1 0x44 DUP3 ADD MSTORE PUSH1 0x64 SWAP1 REVERT JUMPDEST POP DUP5 DUP9 EQ PUSH2 0xA49 JUMP JUMPDEST POP DUP8 DUP5 EQ PUSH2 0xA43 JUMP JUMPDEST CALLVALUE PUSH2 0x190 JUMPI PUSH1 0x20 CALLDATASIZE PUSH1 0x3 NOT ADD SLT PUSH2 0x190 JUMPI PUSH2 0x102D PUSH2 0x2125 JUMP JUMPDEST PUSH0 DUP1 MLOAD PUSH1 0x20 PUSH2 0x2666 DUP4 CODECOPY DUP2 MLOAD SWAP2 MSTORE SWAP1 DUP2 SLOAD SWAP1 PUSH1 0xFF DUP3 PUSH1 0x40 SHR AND ISZERO SWAP2 PUSH1 0x1 PUSH1 0x1 PUSH1 0x40 SHL SUB DUP2 AND DUP1 ISZERO SWAP1 DUP2 PUSH2 0x1167 JUMPI JUMPDEST PUSH1 0x1 EQ SWAP1 DUP2 PUSH2 0x115D JUMPI JUMPDEST ISZERO SWAP1 DUP2 PUSH2 0x1154 JUMPI JUMPDEST POP PUSH2 0x1142 JUMPI PUSH8 0xFFFFFFFFFFFFFFFF NOT DUP2 AND PUSH1 0x1 OR DUP5 SSTORE DUP3 PUSH2 0x1123 JUMPI JUMPDEST POP PUSH2 0x1092 PUSH2 0x25B4 JUMP JUMPDEST PUSH2 0x109A PUSH2 0x25B4 JUMP JUMPDEST PUSH2 0x10A2 PUSH2 0x25B4 JUMP JUMPDEST PUSH2 0x10AB CALLER PUSH2 0x250B JUMP JUMPDEST PUSH12 0xFFFFFFFFFFFFFFFFFFFFFFFF PUSH1 0xA0 SHL SWAP1 PUSH1 0x1 DUP1 PUSH1 0xA0 SHL SUB AND DUP2 PUSH0 SLOAD AND OR PUSH0 SSTORE CALLER SWAP1 PUSH1 0x1 SLOAD AND OR PUSH1 0x1 SSTORE PUSH1 0x64 PUSH1 0x2 SSTORE PUSH1 0x1E PUSH1 0x3 SSTORE PUSH2 0x2710 PUSH1 0x4 SSTORE PUSH2 0x10EB JUMPI STOP JUMPDEST PUSH1 0xFF PUSH1 0x40 SHL NOT DUP2 SLOAD AND SWAP1 SSTORE PUSH32 0xC7F505B2F371AE2175EE4913F4499E1F2633A7B5936321EED1CDAEB6115181D2 PUSH1 0x20 PUSH1 0x40 MLOAD PUSH1 0x1 DUP2 MSTORE LOG1 STOP JUMPDEST PUSH9 0xFFFFFFFFFFFFFFFFFF NOT AND PUSH9 0x10000000000000001 OR DUP4 SSTORE DUP4 PUSH2 0x1089 JUMP JUMPDEST PUSH1 0x40 MLOAD PUSH4 0xF92EE8A9 PUSH1 0xE0 SHL DUP2 MSTORE PUSH1 0x4 SWAP1 REVERT JUMPDEST SWAP1 POP ISZERO DUP6 PUSH2 0x106D JUMP JUMPDEST ADDRESS EXTCODESIZE ISZERO SWAP2 POP PUSH2 0x1065 JUMP JUMPDEST DUP5 SWAP2 POP PUSH2 0x105B JUMP JUMPDEST CALLVALUE PUSH2 0x190 JUMPI PUSH0 CALLDATASIZE PUSH1 0x3 NOT ADD SLT PUSH2 0x190 JUMPI PUSH1 0x20 PUSH1 0x3 SLOAD PUSH1 0x40 MLOAD SWAP1 DUP2 MSTORE RETURN JUMPDEST CALLVALUE PUSH2 0x190 JUMPI PUSH1 0x20 DUP1 PUSH1 0x3 NOT CALLDATASIZE ADD SLT PUSH2 0x190 JUMPI PUSH2 0x11A6 PUSH2 0x2125 JUMP JUMPDEST PUSH0 DUP1 SLOAD PUSH1 0x40 MLOAD PUSH4 0x5A1A0735 PUSH1 0xE1 SHL DUP2 MSTORE PUSH1 0x1 PUSH1 0x1 PUSH1 0xA0 SHL SUB SWAP4 DUP5 AND PUSH1 0x4 DUP3 ADD MSTORE SWAP3 SWAP4 SWAP3 SWAP2 SWAP1 DUP3 SWAP1 PUSH1 0x24 SWAP1 DUP3 SWAP1 DUP8 AND GAS STATICCALL SWAP1 DUP2 ISZERO PUSH2 0x510 JUMPI PUSH0 SWAP2 PUSH2 0x1221 JUMPI JUMPDEST POP PUSH1 0x40 MLOAD SWAP2 DUP1 DUP4 ADD DUP2 DUP5 MSTORE DUP3 MLOAD DUP1 SWAP2 MSTORE DUP2 PUSH1 0x40 DUP6 ADD SWAP4 ADD SWAP2 PUSH0 JUMPDEST DUP3 DUP2 LT PUSH2 0x120B JUMPI DUP6 DUP6 SUB DUP7 RETURN JUMPDEST DUP4 MLOAD DUP8 AND DUP6 MSTORE SWAP4 DUP2 ADD SWAP4 SWAP3 DUP2 ADD SWAP3 PUSH1 0x1 ADD PUSH2 0x11FE JUMP JUMPDEST PUSH2 0x1235 SWAP2 POP RETURNDATASIZE DUP1 PUSH0 DUP4 RETURNDATACOPY PUSH2 0x592 DUP2 DUP4 PUSH2 0x21A2 JUMP JUMPDEST DUP4 PUSH2 0x11E4 JUMP JUMPDEST CALLVALUE PUSH2 0x190 JUMPI PUSH1 0x40 CALLDATASIZE PUSH1 0x3 NOT ADD SLT PUSH2 0x190 JUMPI PUSH2 0x1254 PUSH2 0x2125 JUMP JUMPDEST PUSH2 0x125C PUSH2 0x213B JUMP JUMPDEST PUSH1 0x40 MLOAD PUSH4 0x723C999 PUSH1 0xE0 SHL DUP2 MSTORE PUSH1 0x1 PUSH1 0x1 PUSH1 0xA0 SHL SUB DUP3 DUP2 AND PUSH1 0x4 DUP4 ADD MSTORE SWAP3 SWAP1 SWAP2 SWAP1 DUP4 AND PUSH0 DUP4 PUSH1 0x24 DUP2 DUP4 DUP6 GAS CALL SWAP3 DUP4 ISZERO PUSH2 0x510 JUMPI PUSH0 SWAP4 PUSH2 0x13AE JUMPI JUMPDEST POP PUSH1 0x40 MLOAD PUSH4 0x19F92B0B PUSH1 0xE2 SHL DUP2 MSTORE SWAP2 PUSH0 DUP4 PUSH1 0x4 DUP2 DUP6 GAS STATICCALL SWAP3 DUP4 ISZERO PUSH2 0x510 JUMPI PUSH0 SWAP4 PUSH2 0x1392 JUMPI JUMPDEST POP PUSH0 JUMPDEST DUP4 MLOAD DUP2 LT ISZERO PUSH2 0x57B JUMPI DUP1 PUSH2 0x12D3 PUSH0 SWAP3 DUP8 PUSH2 0x22EC JUMP JUMPDEST MLOAD DUP5 DUP4 MSTORE PUSH1 0x20 SWAP1 PUSH1 0x5 DUP3 MSTORE PUSH1 0x40 DUP5 KECCAK256 DUP10 PUSH2 0x12ED DUP6 DUP11 PUSH2 0x22EC JUMP JUMPDEST MLOAD AND DUP6 MSTORE DUP3 MSTORE PUSH2 0x1302 PUSH1 0x40 DUP6 KECCAK256 SWAP2 DUP3 SLOAD PUSH2 0x23FD JUMP JUMPDEST SWAP1 SSTORE DUP1 PUSH2 0x1359 DUP10 PUSH2 0x1313 DUP6 DUP11 PUSH2 0x22EC JUMP JUMPDEST MLOAD AND PUSH2 0x131F DUP6 DUP12 PUSH2 0x22EC JUMP JUMPDEST MLOAD PUSH1 0x40 MLOAD PUSH4 0x23B872DD PUSH1 0xE0 SHL DUP2 MSTORE PUSH1 0x1 PUSH1 0x1 PUSH1 0xA0 SHL SUB DUP10 AND PUSH1 0x4 DUP3 ADD MSTORE ADDRESS PUSH1 0x24 DUP3 ADD MSTORE PUSH1 0x44 DUP2 ADD SWAP2 SWAP1 SWAP2 MSTORE SWAP6 DUP7 SWAP3 DUP4 SWAP2 SWAP1 DUP3 SWAP1 PUSH1 0x64 DUP3 ADD SWAP1 JUMP JUMPDEST SUB SWAP3 GAS CALL SWAP3 DUP4 ISZERO PUSH2 0x510 JUMPI PUSH1 0x1 SWAP4 PUSH2 0x1374 JUMPI JUMPDEST POP POP ADD PUSH2 0x12BE JUMP JUMPDEST DUP2 PUSH2 0x138A SWAP3 SWAP1 RETURNDATASIZE LT PUSH2 0x509 JUMPI PUSH2 0x4FB DUP2 DUP4 PUSH2 0x21A2 JUMP JUMPDEST POP DUP8 DUP1 PUSH2 0x136C JUMP JUMPDEST PUSH2 0x13A7 SWAP2 SWAP4 POP RETURNDATASIZE DUP1 PUSH0 DUP4 RETURNDATACOPY PUSH2 0x592 DUP2 DUP4 PUSH2 0x21A2 JUMP JUMPDEST SWAP2 DUP6 PUSH2 0x12BB JUMP JUMPDEST PUSH2 0x13C3 SWAP2 SWAP4 POP RETURNDATASIZE DUP1 PUSH0 DUP4 RETURNDATACOPY PUSH2 0x5B6 DUP2 DUP4 PUSH2 0x21A2 JUMP JUMPDEST SWAP2 DUP5 PUSH2 0x1296 JUMP JUMPDEST CALLVALUE PUSH2 0x190 JUMPI PUSH0 CALLDATASIZE PUSH1 0x3 NOT ADD SLT PUSH2 0x190 JUMPI PUSH1 0x40 MLOAD PUSH1 0x40 DUP2 ADD DUP2 DUP2 LT PUSH1 0x1 PUSH1 0x1 PUSH1 0x40 SHL SUB DUP3 GT OR PUSH2 0x1437 JUMPI PUSH1 0x40 MSTORE PUSH1 0x5 DUP2 MSTORE PUSH1 0x40 PUSH1 0x20 DUP3 ADD SWAP2 PUSH5 0x352E302E3 PUSH1 0xDC SHL DUP4 MSTORE DUP2 MLOAD SWAP3 DUP4 SWAP2 PUSH1 0x20 DUP4 MSTORE MLOAD DUP1 SWAP2 DUP2 PUSH1 0x20 DUP6 ADD MSTORE DUP5 DUP5 ADD MCOPY PUSH0 DUP3 DUP3 ADD DUP5 ADD MSTORE PUSH1 0x1F ADD PUSH1 0x1F NOT AND DUP2 ADD SUB ADD SWAP1 RETURN JUMPDEST PUSH4 0x4E487B71 PUSH1 0xE0 SHL PUSH0 MSTORE PUSH1 0x41 PUSH1 0x4 MSTORE PUSH1 0x24 PUSH0 REVERT JUMPDEST CALLVALUE PUSH2 0x190 JUMPI PUSH1 0x40 CALLDATASIZE PUSH1 0x3 NOT ADD SLT PUSH2 0x190 JUMPI PUSH2 0x1464 PUSH2 0x2125 JUMP JUMPDEST PUSH2 0x146C PUSH2 0x213B JUMP JUMPDEST SWAP1 PUSH1 0x1 DUP1 PUSH1 0xA0 SHL SUB DUP1 SWAP2 AND PUSH0 MSTORE PUSH1 0x5 PUSH1 0x20 MSTORE PUSH1 0x40 PUSH0 KECCAK256 SWAP2 AND PUSH0 MSTORE PUSH1 0x20 MSTORE PUSH1 0x20 PUSH1 0x40 PUSH0 KECCAK256 SLOAD PUSH1 0x40 MLOAD SWAP1 DUP2 MSTORE RETURN JUMPDEST CALLVALUE PUSH2 0x190 JUMPI PUSH1 0x40 CALLDATASIZE PUSH1 0x3 NOT ADD SLT PUSH2 0x190 JUMPI PUSH2 0x14B1 PUSH2 0x2125 JUMP JUMPDEST PUSH1 0x24 CALLDATALOAD SWAP1 PUSH1 0x1 PUSH1 0x1 PUSH1 0x40 SHL SUB SWAP2 DUP3 DUP2 AND DUP1 SWAP2 SUB PUSH2 0x190 JUMPI PUSH0 DUP1 MLOAD PUSH1 0x20 PUSH2 0x2666 DUP4 CODECOPY DUP2 MLOAD SWAP2 MSTORE DUP1 SLOAD SWAP4 DUP3 PUSH1 0xFF DUP7 PUSH1 0x40 SHR AND SWAP2 DUP3 ISZERO PUSH2 0x157A JUMPI JUMPDEST POP POP PUSH2 0x1142 JUMPI PUSH32 0xC7F505B2F371AE2175EE4913F4499E1F2633A7B5936321EED1CDAEB6115181D2 SWAP4 PUSH1 0x20 SWAP4 PUSH12 0xFFFFFFFFFFFFFFFFFFFFFFFF PUSH1 0xA0 SHL SWAP1 PUSH1 0x1 DUP1 PUSH1 0xA0 SHL SUB AND DUP2 PUSH0 SLOAD AND OR PUSH0 SSTORE CALLER SWAP1 PUSH1 0x1 SLOAD AND OR PUSH1 0x1 SSTORE PUSH1 0x64 PUSH1 0x2 SSTORE PUSH1 0x1E PUSH1 0x3 SSTORE PUSH2 0x2710 PUSH1 0x4 SSTORE PUSH9 0x10000000000000000 DUP4 PUSH1 0xFF PUSH1 0x40 SHL NOT SWAP3 PUSH9 0xFFFFFFFFFFFFFFFFFF NOT AND OR OR AND SWAP1 SSTORE PUSH1 0x40 MLOAD SWAP1 DUP2 MSTORE LOG1 STOP JUMPDEST DUP7 AND LT ISZERO SWAP1 POP DUP3 DUP7 PUSH2 0x14E9 JUMP JUMPDEST CALLVALUE PUSH2 0x190 JUMPI PUSH0 CALLDATASIZE PUSH1 0x3 NOT ADD SLT PUSH2 0x190 JUMPI PUSH0 DUP1 MLOAD PUSH1 0x20 PUSH2 0x2646 DUP4 CODECOPY DUP2 MLOAD SWAP2 MSTORE SLOAD PUSH1 0x40 MLOAD PUSH1 0x1 PUSH1 0x1 PUSH1 0xA0 SHL SUB SWAP1 SWAP2 AND DUP2 MSTORE PUSH1 0x20 SWAP1 RETURN JUMPDEST CALLVALUE PUSH2 0x190 JUMPI PUSH0 CALLDATASIZE PUSH1 0x3 NOT ADD SLT PUSH2 0x190 JUMPI PUSH1 0x20 PUSH1 0x4 SLOAD PUSH1 0x40 MLOAD SWAP1 DUP2 MSTORE RETURN JUMPDEST CALLVALUE PUSH2 0x190 JUMPI PUSH1 0x20 CALLDATASIZE PUSH1 0x3 NOT ADD SLT PUSH2 0x190 JUMPI PUSH2 0x15F1 PUSH2 0x2125 JUMP JUMPDEST PUSH2 0x15F9 PUSH2 0x257C JUMP JUMPDEST PUSH0 DUP1 SLOAD PUSH1 0x1 PUSH1 0x1 PUSH1 0xA0 SHL SUB NOT AND PUSH1 0x1 PUSH1 0x1 PUSH1 0xA0 SHL SUB SWAP3 SWAP1 SWAP3 AND SWAP2 SWAP1 SWAP2 OR SWAP1 SSTORE STOP JUMPDEST CALLVALUE PUSH2 0x190 JUMPI PUSH0 CALLDATASIZE PUSH1 0x3 NOT ADD SLT PUSH2 0x190 JUMPI PUSH2 0x1632 PUSH2 0x257C JUMP JUMPDEST PUSH0 DUP1 MLOAD PUSH1 0x20 PUSH2 0x2646 DUP4 CODECOPY DUP2 MLOAD SWAP2 MSTORE DUP1 SLOAD PUSH1 0x1 PUSH1 0x1 PUSH1 0xA0 SHL SUB NOT DUP2 AND SWAP1 SWAP2 SSTORE PUSH0 SWAP1 PUSH1 0x1 PUSH1 0x1 PUSH1 0xA0 SHL SUB AND PUSH32 0x8BE0079C531659141344CD1FD0A4F28419497F9722A3DAAFE3B4186F6B6457E0 DUP3 DUP1 LOG3 STOP JUMPDEST CALLVALUE PUSH2 0x190 JUMPI PUSH1 0x80 CALLDATASIZE PUSH1 0x3 NOT ADD SLT PUSH2 0x190 JUMPI PUSH2 0x169A PUSH2 0x2125 JUMP JUMPDEST PUSH2 0x16A2 PUSH2 0x213B JUMP JUMPDEST SWAP1 PUSH1 0x64 CALLDATALOAD SWAP1 PUSH1 0x1 PUSH1 0x1 PUSH1 0xA0 SHL SUB SWAP1 PUSH1 0x44 CALLDATALOAD DUP3 DUP5 AND DUP5 SUB PUSH2 0x190 JUMPI PUSH2 0x16C7 DUP2 ISZERO ISZERO PUSH2 0x2417 JUMP JUMPDEST PUSH0 SLOAD PUSH1 0x40 MLOAD PUSH4 0x2D5E94A7 PUSH1 0xE0 SHL DUP2 MSTORE PUSH1 0x1 PUSH1 0x1 PUSH1 0xA0 SHL SUB DUP5 DUP2 AND PUSH1 0x4 DUP4 ADD MSTORE DUP8 AND PUSH1 0x24 DUP3 ADD MSTORE PUSH1 0x20 SWAP7 SWAP2 DUP8 SWAP1 DUP3 SWAP1 PUSH1 0x44 SWAP1 DUP3 SWAP1 DUP10 AND GAS STATICCALL DUP1 ISZERO PUSH2 0x510 JUMPI DUP6 SWAP2 PUSH0 SWAP2 PUSH2 0x1901 JUMPI JUMPDEST POP PUSH1 0x40 MLOAD PUSH4 0x23B872DD PUSH1 0xE0 SHL DUP2 MSTORE CALLER PUSH1 0x4 DUP3 ADD MSTORE ADDRESS PUSH1 0x24 DUP3 ADD MSTORE PUSH1 0x44 DUP2 ADD DUP6 SWAP1 MSTORE SWAP2 AND SWAP4 DUP6 DUP2 AND SWAP1 DUP9 DUP4 PUSH1 0x64 DUP2 PUSH0 DUP7 GAS CALL SWAP2 DUP3 ISZERO PUSH2 0x510 JUMPI DUP10 SWAP4 DUP6 SWAP4 PUSH2 0x18E4 JUMPI JUMPDEST POP DUP7 PUSH0 MSTORE PUSH1 0x5 DUP5 MSTORE PUSH1 0x40 PUSH0 KECCAK256 SWAP1 PUSH0 MSTORE DUP4 MSTORE PUSH1 0x40 PUSH0 KECCAK256 PUSH2 0x176E DUP7 DUP3 SLOAD PUSH2 0x23FD JUMP JUMPDEST SWAP1 SSTORE PUSH1 0x40 MLOAD PUSH4 0x1BA04887 PUSH1 0xE2 SHL DUP2 MSTORE PUSH1 0x1 PUSH1 0x1 PUSH1 0xA0 SHL SUB SWAP2 DUP3 AND PUSH1 0x4 DUP3 ADD MSTORE SWAP2 DUP2 AND PUSH1 0x24 DUP4 ADD MSTORE PUSH1 0x44 DUP3 ADD SWAP5 SWAP1 SWAP5 MSTORE SWAP3 DUP7 AND PUSH1 0x64 DUP5 ADD MSTORE DUP3 PUSH1 0x84 DUP2 PUSH0 DUP8 GAS CALL SWAP2 DUP3 ISZERO PUSH2 0x510 JUMPI PUSH0 SWAP3 PUSH2 0x18B5 JUMPI JUMPDEST POP DUP4 PUSH2 0x17CC PUSH2 0x342 PUSH1 0x3 SLOAD DUP6 PUSH2 0x2314 JUMP JUMPDEST PUSH1 0x1 SLOAD PUSH1 0x40 MLOAD PUSH4 0xA9059CBB PUSH1 0xE0 SHL DUP1 DUP3 MSTORE SWAP8 SWAP1 SWAP2 AND PUSH1 0x1 PUSH1 0x1 PUSH1 0xA0 SHL SUB AND PUSH1 0x4 DUP3 ADD MSTORE PUSH1 0x24 DUP2 ADD DUP3 SWAP1 MSTORE SWAP3 SWAP1 SWAP2 AND SWAP5 SWAP3 SWAP1 DUP8 DUP4 DUP1 PUSH1 0x44 DUP2 ADD SUB DUP2 PUSH0 DUP11 GAS CALL SWAP2 DUP3 ISZERO PUSH2 0x510 JUMPI DUP9 SWAP4 PUSH2 0x1821 SWAP4 PUSH2 0x1898 JUMPI POP PUSH2 0x240A JUMP JUMPDEST PUSH1 0x40 MLOAD SWAP3 DUP4 MSTORE PUSH1 0x1 PUSH1 0x1 PUSH1 0xA0 SHL SUB SWAP6 SWAP1 SWAP6 AND PUSH1 0x4 DUP4 ADD MSTORE PUSH1 0x24 DUP3 ADD DUP6 SWAP1 MSTORE DUP2 PUSH1 0x44 DUP2 PUSH0 DUP8 GAS CALL DUP1 ISZERO PUSH2 0x510 JUMPI PUSH2 0x187B JUMPI JUMPDEST POP PUSH0 MSTORE PUSH1 0x5 DUP4 MSTORE PUSH1 0x40 PUSH0 KECCAK256 SWAP1 PUSH0 MSTORE DUP3 MSTORE PUSH1 0x40 PUSH0 KECCAK256 PUSH2 0x1871 DUP3 DUP3 SLOAD PUSH2 0x240A JUMP JUMPDEST SWAP1 SSTORE PUSH1 0x40 MLOAD SWAP1 DUP2 MSTORE RETURN JUMPDEST PUSH2 0x1891 SWAP1 DUP6 RETURNDATASIZE DUP8 GT PUSH2 0x509 JUMPI PUSH2 0x4FB DUP2 DUP4 PUSH2 0x21A2 JUMP JUMPDEST POP DUP5 PUSH2 0x1852 JUMP JUMPDEST PUSH2 0x18AE SWAP1 DUP6 RETURNDATASIZE DUP8 GT PUSH2 0x509 JUMPI PUSH2 0x4FB DUP2 DUP4 PUSH2 0x21A2 JUMP JUMPDEST POP DUP10 PUSH2 0x8B6 JUMP JUMPDEST SWAP1 SWAP2 POP DUP6 DUP2 DUP2 RETURNDATASIZE DUP4 GT PUSH2 0x18DD JUMPI JUMPDEST PUSH2 0x18CD DUP2 DUP4 PUSH2 0x21A2 JUMP JUMPDEST DUP2 ADD SUB SLT PUSH2 0x190 JUMPI MLOAD SWAP1 DUP7 PUSH2 0x17BB JUMP JUMPDEST POP RETURNDATASIZE PUSH2 0x18C3 JUMP JUMPDEST PUSH2 0x18FA SWAP1 DUP6 RETURNDATASIZE DUP8 GT PUSH2 0x509 JUMPI PUSH2 0x4FB DUP2 DUP4 PUSH2 0x21A2 JUMP JUMPDEST POP DUP11 PUSH2 0x174E JUMP JUMPDEST DUP1 SWAP3 POP DUP9 DUP1 SWAP3 POP RETURNDATASIZE DUP4 GT PUSH2 0x1932 JUMPI JUMPDEST PUSH2 0x191A DUP2 DUP4 PUSH2 0x21A2 JUMP JUMPDEST DUP2 ADD SUB SLT PUSH2 0x190 JUMPI PUSH2 0x192C DUP6 SWAP2 PUSH2 0x2225 JUMP JUMPDEST DUP9 PUSH2 0x170D JUMP JUMPDEST POP RETURNDATASIZE PUSH2 0x1910 JUMP JUMPDEST CALLVALUE PUSH2 0x190 JUMPI PUSH0 CALLDATASIZE PUSH1 0x3 NOT ADD SLT PUSH2 0x190 JUMPI PUSH1 0x1 SLOAD PUSH1 0x40 MLOAD PUSH1 0x1 PUSH1 0x1 PUSH1 0xA0 SHL SUB SWAP1 SWAP2 AND DUP2 MSTORE PUSH1 0x20 SWAP1 RETURN JUMPDEST CALLVALUE PUSH2 0x190 JUMPI PUSH1 0x20 DUP1 PUSH1 0x3 NOT CALLDATASIZE ADD SLT PUSH2 0x190 JUMPI PUSH1 0x1 PUSH1 0x1 PUSH1 0xA0 SHL SUB SWAP1 DUP2 PUSH2 0x1985 PUSH2 0x2125 JUMP JUMPDEST AND PUSH1 0x40 MLOAD PUSH4 0x70A08231 PUSH1 0xE0 SHL DUP2 MSTORE CALLER PUSH1 0x4 DUP3 ADD MSTORE DUP3 DUP2 PUSH1 0x24 DUP2 DUP6 GAS STATICCALL SWAP1 DUP2 ISZERO PUSH2 0x510 JUMPI PUSH0 SWAP2 PUSH2 0x1B72 JUMPI JUMPDEST POP PUSH1 0x40 MLOAD PUSH4 0x18160DDD PUSH1 0xE0 SHL DUP2 MSTORE SWAP1 DUP4 DUP3 PUSH1 0x4 DUP2 DUP7 GAS STATICCALL SWAP2 DUP3 ISZERO PUSH2 0x510 JUMPI PUSH0 SWAP3 PUSH2 0x1B41 JUMPI JUMPDEST POP PUSH2 0x19F0 PUSH2 0x19F7 SWAP3 PUSH2 0x19EB PUSH1 0x64 SWAP4 PUSH1 0x4 SLOAD SWAP1 PUSH2 0x2314 JUMP JUMPDEST PUSH2 0x233B JUMP JUMPDEST LT ISZERO PUSH2 0x2359 JUMP JUMPDEST PUSH1 0x40 MLOAD PUSH4 0x1E8F68BD PUSH1 0xE3 SHL DUP2 MSTORE SWAP3 PUSH0 DUP5 PUSH1 0x4 DUP2 DUP4 DUP7 GAS CALL SWAP3 DUP4 ISZERO PUSH2 0x510 JUMPI PUSH0 SWAP5 PUSH0 SWAP5 PUSH2 0x1AE5 JUMPI JUMPDEST POP PUSH1 0x40 MLOAD PUSH4 0x19F92B0B PUSH1 0xE2 SHL DUP2 MSTORE SWAP2 PUSH0 DUP4 PUSH1 0x4 DUP2 DUP8 GAS STATICCALL SWAP3 DUP4 ISZERO PUSH2 0x510 JUMPI PUSH0 SWAP4 PUSH2 0x1AC9 JUMPI JUMPDEST POP PUSH0 JUMPDEST DUP4 MLOAD DUP2 LT ISZERO PUSH2 0x57B JUMPI DUP1 PUSH2 0x1A5C PUSH1 0x1 SWAP3 DUP10 PUSH2 0x22EC JUMP JUMPDEST MLOAD DUP7 PUSH0 MSTORE PUSH1 0x5 SWAP1 DUP2 DUP7 MSTORE PUSH1 0x40 PUSH0 KECCAK256 DUP6 PUSH2 0x1A75 DUP6 DUP11 PUSH2 0x22EC JUMP JUMPDEST MLOAD AND PUSH0 MSTORE DUP7 MSTORE PUSH2 0x1A8A PUSH1 0x40 PUSH0 KECCAK256 SWAP2 DUP3 SLOAD PUSH2 0x23FD JUMP JUMPDEST SWAP1 SSTORE PUSH2 0x1A96 DUP3 DUP10 PUSH2 0x22EC JUMP JUMPDEST MLOAD SWAP1 DUP8 PUSH0 MSTORE DUP6 MSTORE PUSH1 0x40 PUSH0 KECCAK256 DUP5 PUSH2 0x1AAC DUP5 DUP10 PUSH2 0x22EC JUMP JUMPDEST MLOAD AND PUSH0 MSTORE DUP6 MSTORE PUSH2 0x1AC1 PUSH1 0x40 PUSH0 KECCAK256 SWAP2 DUP3 SLOAD PUSH2 0x240A JUMP JUMPDEST SWAP1 SSTORE ADD PUSH2 0x1A46 JUMP JUMPDEST PUSH2 0x1ADE SWAP2 SWAP4 POP RETURNDATASIZE DUP1 PUSH0 DUP4 RETURNDATACOPY PUSH2 0x592 DUP2 DUP4 PUSH2 0x21A2 JUMP JUMPDEST SWAP2 DUP7 PUSH2 0x1A43 JUMP JUMPDEST SWAP5 POP SWAP3 POP RETURNDATASIZE DUP1 PUSH0 DUP7 RETURNDATACOPY PUSH2 0x1AF8 DUP2 DUP7 PUSH2 0x21A2 JUMP JUMPDEST DUP5 ADD SWAP4 PUSH1 0x40 DUP2 DUP7 SUB SLT PUSH2 0x190 JUMPI DUP1 MLOAD SWAP5 PUSH1 0x1 PUSH1 0x1 PUSH1 0x40 SHL SUB SWAP6 DUP7 DUP2 GT PUSH2 0x190 JUMPI DUP2 PUSH2 0x1B24 SWAP2 DUP5 ADD PUSH2 0x239C JUMP JUMPDEST SWAP6 DUP6 DUP4 ADD MLOAD SWAP1 DUP2 GT PUSH2 0x190 JUMPI PUSH2 0x1B3A SWAP3 ADD PUSH2 0x239C JUMP JUMPDEST SWAP3 DUP6 PUSH2 0x1A1E JUMP JUMPDEST SWAP2 POP DUP4 DUP3 DUP2 RETURNDATASIZE DUP4 GT PUSH2 0x1B6B JUMPI JUMPDEST PUSH2 0x1B58 DUP2 DUP4 PUSH2 0x21A2 JUMP JUMPDEST DUP2 ADD SUB SLT PUSH2 0x190 JUMPI SWAP1 MLOAD SWAP1 PUSH2 0x19F0 PUSH2 0x19D4 JUMP JUMPDEST POP RETURNDATASIZE PUSH2 0x1B4E JUMP JUMPDEST SWAP1 POP DUP3 DUP2 DUP2 RETURNDATASIZE DUP4 GT PUSH2 0x1B98 JUMPI JUMPDEST PUSH2 0x1B89 DUP2 DUP4 PUSH2 0x21A2 JUMP JUMPDEST DUP2 ADD SUB SLT PUSH2 0x190 JUMPI MLOAD DUP5 PUSH2 0x19AF JUMP JUMPDEST POP RETURNDATASIZE PUSH2 0x1B7F JUMP JUMPDEST CALLVALUE PUSH2 0x190 JUMPI PUSH0 CALLDATASIZE PUSH1 0x3 NOT ADD SLT PUSH2 0x190 JUMPI PUSH32 0x0 PUSH1 0x1 PUSH1 0x1 PUSH1 0xA0 SHL SUB AND ADDRESS SUB PUSH2 0x1C09 JUMPI PUSH1 0x20 PUSH1 0x40 MLOAD PUSH32 0x360894A13BA1A3210667C828492DB98DCA3E2076CC3735A920A3CA505D382BBC DUP2 MSTORE RETURN JUMPDEST PUSH1 0x40 MLOAD PUSH4 0x703E46DD PUSH1 0xE1 SHL DUP2 MSTORE PUSH1 0x4 SWAP1 REVERT JUMPDEST PUSH1 0x40 CALLDATASIZE PUSH1 0x3 NOT ADD SLT PUSH2 0x190 JUMPI PUSH2 0x1C2F PUSH2 0x2125 JUMP JUMPDEST PUSH1 0x24 SWAP1 DUP2 CALLDATALOAD PUSH1 0x1 PUSH1 0x1 PUSH1 0x40 SHL SUB DUP2 GT PUSH2 0x190 JUMPI CALLDATASIZE PUSH1 0x23 DUP3 ADD SLT ISZERO PUSH2 0x190 JUMPI DUP1 PUSH1 0x4 ADD CALLDATALOAD PUSH2 0x1C5B DUP2 PUSH2 0x21C3 JUMP JUMPDEST SWAP3 PUSH2 0x1C69 PUSH1 0x40 MLOAD SWAP5 DUP6 PUSH2 0x21A2 JUMP JUMPDEST DUP2 DUP5 MSTORE PUSH1 0x20 SWAP2 DUP3 DUP6 ADD SWAP4 CALLDATASIZE DUP8 DUP4 DUP4 ADD ADD GT PUSH2 0x190 JUMPI DUP2 PUSH0 SWAP3 DUP9 DUP7 SWAP4 ADD DUP8 CALLDATACOPY DUP7 ADD ADD MSTORE PUSH1 0x1 PUSH1 0x1 PUSH1 0xA0 SHL SUB PUSH32 0x0 DUP2 AND ADDRESS DUP2 EQ SWAP1 DUP2 ISZERO PUSH2 0x1E37 JUMPI JUMPDEST POP PUSH2 0x1C09 JUMPI PUSH2 0x1CCE PUSH2 0x257C JUMP JUMPDEST DUP2 AND SWAP4 PUSH1 0x40 MLOAD PUSH4 0x52D1902D PUSH1 0xE0 SHL DUP2 MSTORE DUP4 DUP2 PUSH1 0x4 DUP2 DUP10 GAS STATICCALL PUSH0 SWAP2 DUP2 PUSH2 0x1E08 JUMPI JUMPDEST POP PUSH2 0x1D0B JUMPI PUSH1 0x40 MLOAD PUSH4 0x4C9C8CE3 PUSH1 0xE0 SHL DUP2 MSTORE PUSH1 0x4 DUP2 ADD DUP8 SWAP1 MSTORE DUP8 SWAP1 REVERT JUMPDEST DUP6 SWAP1 DUP8 PUSH32 0x360894A13BA1A3210667C828492DB98DCA3E2076CC3735A920A3CA505D382BBC SWAP2 DUP3 DUP2 SUB PUSH2 0x1DF3 JUMPI POP DUP5 EXTCODESIZE ISZERO PUSH2 0x1DDD JUMPI POP DUP1 SLOAD PUSH1 0x1 PUSH1 0x1 PUSH1 0xA0 SHL SUB NOT AND DUP3 OR SWAP1 SSTORE PUSH1 0x40 MLOAD SWAP1 PUSH32 0xBC7CD75A20EE27FD9ADEBAB32041F755214DBC6BFFA90CC0225B39DA2E5C2D3B PUSH0 DUP1 LOG2 DUP2 MLOAD ISZERO PUSH2 0x1DC2 JUMPI POP PUSH0 PUSH2 0x57B SWAP5 DUP2 SWAP3 MLOAD SWAP1 DUP5 GAS DELEGATECALL SWAP1 RETURNDATASIZE ISZERO PUSH2 0x1DB9 JUMPI RETURNDATASIZE PUSH2 0x1D9D DUP2 PUSH2 0x21C3 JUMP JUMPDEST SWAP1 PUSH2 0x1DAB PUSH1 0x40 MLOAD SWAP3 DUP4 PUSH2 0x21A2 JUMP JUMPDEST DUP2 MSTORE PUSH0 DUP2 SWAP5 RETURNDATASIZE SWAP3 ADD RETURNDATACOPY PUSH2 0x25E2 JUMP JUMPDEST PUSH1 0x60 SWAP3 POP PUSH2 0x25E2 JUMP JUMPDEST SWAP4 POP POP POP POP CALLVALUE PUSH2 0x1DCE JUMPI STOP JUMPDEST PUSH4 0xB398979F PUSH1 0xE0 SHL DUP2 MSTORE PUSH1 0x4 SWAP1 REVERT JUMPDEST PUSH1 0x40 MLOAD PUSH4 0x4C9C8CE3 PUSH1 0xE0 SHL DUP2 MSTORE PUSH1 0x4 DUP2 ADD DUP5 SWAP1 MSTORE REVERT JUMPDEST PUSH1 0x40 MLOAD SWAP1 PUSH4 0x2A875269 PUSH1 0xE2 SHL DUP3 MSTORE PUSH1 0x4 DUP3 ADD MSTORE REVERT JUMPDEST SWAP1 SWAP2 POP DUP5 DUP2 DUP2 RETURNDATASIZE DUP4 GT PUSH2 0x1E30 JUMPI JUMPDEST PUSH2 0x1E20 DUP2 DUP4 PUSH2 0x21A2 JUMP JUMPDEST DUP2 ADD SUB SLT PUSH2 0x190 JUMPI MLOAD SWAP1 DUP9 PUSH2 0x1CEE JUMP JUMPDEST POP RETURNDATASIZE PUSH2 0x1E16 JUMP JUMPDEST SWAP1 POP DUP2 PUSH32 0x360894A13BA1A3210667C828492DB98DCA3E2076CC3735A920A3CA505D382BBC SLOAD AND EQ ISZERO DUP8 PUSH2 0x1CC1 JUMP JUMPDEST CALLVALUE PUSH2 0x190 JUMPI PUSH1 0x60 CALLDATASIZE PUSH1 0x3 NOT ADD SLT PUSH2 0x190 JUMPI PUSH2 0x1E7E PUSH2 0x2125 JUMP JUMPDEST PUSH2 0x1E86 PUSH2 0x213B JUMP JUMPDEST PUSH0 SLOAD PUSH1 0x40 MLOAD PUSH4 0x2D5E94A7 PUSH1 0xE0 SHL DUP2 MSTORE PUSH1 0x1 PUSH1 0x1 PUSH1 0xA0 SHL SUB DUP5 DUP2 AND PUSH1 0x4 DUP4 ADD MSTORE DUP4 DUP2 AND PUSH1 0x24 DUP4 ADD MSTORE PUSH1 0x20 SWAP5 SWAP2 SWAP3 DUP6 SWAP1 DUP5 SWAP1 PUSH1 0x44 SWAP1 DUP3 SWAP1 DUP6 AND GAS STATICCALL SWAP1 DUP2 ISZERO PUSH2 0x510 JUMPI DUP6 SWAP4 PUSH0 SWAP3 PUSH2 0x1F51 JUMPI JUMPDEST POP PUSH1 0x40 MLOAD PUSH4 0x25503329 PUSH1 0xE1 SHL DUP2 MSTORE PUSH1 0x1 PUSH1 0x1 PUSH1 0xA0 SHL SUB SWAP4 DUP5 AND PUSH1 0x4 DUP3 ADD MSTORE SWAP5 SWAP1 SWAP3 AND PUSH1 0x24 DUP6 ADD MSTORE PUSH1 0x44 DUP1 CALLDATALOAD SWAP1 DUP6 ADD MSTORE DUP4 SWAP2 DUP3 SWAP1 DUP2 PUSH1 0x64 DUP2 ADD JUMPDEST SUB SWAP3 AND GAS STATICCALL SWAP1 DUP2 ISZERO PUSH2 0x510 JUMPI PUSH0 SWAP2 PUSH2 0x1F24 JUMPI JUMPDEST POP PUSH1 0x40 MLOAD SWAP1 DUP2 MSTORE RETURN JUMPDEST SWAP1 POP DUP2 DUP2 DUP2 RETURNDATASIZE DUP4 GT PUSH2 0x1F4A JUMPI JUMPDEST PUSH2 0x1F3B DUP2 DUP4 PUSH2 0x21A2 JUMP JUMPDEST DUP2 ADD SUB SLT PUSH2 0x190 JUMPI MLOAD DUP3 PUSH2 0x1F1B JUMP JUMPDEST POP RETURNDATASIZE PUSH2 0x1F31 JUMP JUMPDEST DUP5 DUP2 SWAP6 SWAP3 SWAP4 POP RETURNDATASIZE DUP4 GT PUSH2 0x1F87 JUMPI JUMPDEST PUSH2 0x1F69 DUP2 DUP4 PUSH2 0x21A2 JUMP JUMPDEST DUP2 ADD SUB SLT PUSH2 0x190 JUMPI PUSH2 0x1F08 SWAP4 PUSH2 0x1F7F DUP7 SWAP5 PUSH2 0x2225 JUMP JUMPDEST SWAP2 SWAP1 SWAP5 PUSH2 0x1ECF JUMP JUMPDEST POP RETURNDATASIZE PUSH2 0x1F5F JUMP JUMPDEST CALLVALUE PUSH2 0x190 JUMPI PUSH0 CALLDATASIZE PUSH1 0x3 NOT ADD SLT PUSH2 0x190 JUMPI PUSH0 SLOAD PUSH1 0x40 MLOAD PUSH1 0x1 PUSH1 0x1 PUSH1 0xA0 SHL SUB SWAP1 SWAP2 AND DUP2 MSTORE PUSH1 0x20 SWAP1 RETURN JUMPDEST CALLVALUE PUSH2 0x190 JUMPI PUSH1 0x20 DUP1 PUSH1 0x3 NOT CALLDATASIZE ADD SLT PUSH2 0x190 JUMPI PUSH1 0x1 PUSH1 0x1 PUSH1 0xA0 SHL SUB DUP1 PUSH2 0x1FD8 PUSH2 0x2125 JUMP JUMPDEST AND SWAP2 PUSH1 0x40 MLOAD PUSH4 0x19F92B0B PUSH1 0xE2 SHL DUP2 MSTORE PUSH0 DUP2 PUSH1 0x4 DUP2 DUP8 GAS STATICCALL SWAP1 DUP2 ISZERO PUSH2 0x510 JUMPI PUSH0 SWAP2 PUSH2 0x2057 JUMPI JUMPDEST POP PUSH2 0x2008 DUP2 MLOAD PUSH2 0x22BA JUMP JUMPDEST SWAP2 PUSH0 JUMPDEST DUP3 MLOAD DUP2 LT ISZERO PUSH2 0x2049 JUMPI PUSH1 0x1 SWAP1 DUP7 PUSH0 MSTORE PUSH1 0x5 DUP4 MSTORE PUSH1 0x40 PUSH0 KECCAK256 DUP7 PUSH2 0x202D DUP4 DUP8 PUSH2 0x22EC JUMP JUMPDEST MLOAD AND PUSH0 MSTORE DUP4 MSTORE PUSH1 0x40 PUSH0 KECCAK256 SLOAD PUSH2 0x2042 DUP3 DUP8 PUSH2 0x22EC JUMP JUMPDEST MSTORE ADD PUSH2 0x200B JUMP JUMPDEST PUSH1 0x40 MLOAD DUP1 PUSH2 0xA6F DUP7 DUP3 PUSH2 0x2167 JUMP JUMPDEST PUSH2 0x206B SWAP2 POP RETURNDATASIZE DUP1 PUSH0 DUP4 RETURNDATACOPY PUSH2 0x592 DUP2 DUP4 PUSH2 0x21A2 JUMP JUMPDEST DUP5 PUSH2 0x1FFD JUMP JUMPDEST CALLVALUE PUSH2 0x190 JUMPI PUSH0 CALLDATASIZE PUSH1 0x3 NOT ADD SLT PUSH2 0x190 JUMPI PUSH1 0x20 PUSH1 0x2 SLOAD PUSH1 0x40 MLOAD SWAP1 DUP2 MSTORE RETURN JUMPDEST CALLVALUE PUSH2 0x190 JUMPI PUSH0 CALLDATASIZE PUSH1 0x3 NOT ADD SLT PUSH2 0x190 JUMPI PUSH1 0x20 PUSH1 0x1 PUSH1 0x1 PUSH1 0x40 SHL SUB PUSH0 DUP1 MLOAD PUSH1 0x20 PUSH2 0x2666 DUP4 CODECOPY DUP2 MLOAD SWAP2 MSTORE SLOAD AND PUSH1 0x40 MLOAD SWAP1 DUP2 MSTORE RETURN JUMPDEST CALLVALUE PUSH2 0x190 JUMPI PUSH1 0x20 CALLDATASIZE PUSH1 0x3 NOT ADD SLT PUSH2 0x190 JUMPI PUSH1 0x4 CALLDATALOAD PUSH2 0x20DC PUSH2 0x257C JUMP JUMPDEST PUSH1 0x2 SLOAD DUP2 GT PUSH2 0x20EA JUMPI PUSH1 0x3 SSTORE STOP JUMPDEST PUSH1 0x40 MLOAD PUSH3 0x461BCD PUSH1 0xE5 SHL DUP2 MSTORE PUSH1 0x20 PUSH1 0x4 DUP3 ADD MSTORE PUSH1 0x13 PUSH1 0x24 DUP3 ADD MSTORE PUSH19 0x4665652065786365656473206D6178696D756D PUSH1 0x68 SHL PUSH1 0x44 DUP3 ADD MSTORE PUSH1 0x64 SWAP1 REVERT JUMPDEST PUSH1 0x4 CALLDATALOAD SWAP1 PUSH1 0x1 PUSH1 0x1 PUSH1 0xA0 SHL SUB DUP3 AND DUP3 SUB PUSH2 0x190 JUMPI JUMP JUMPDEST PUSH1 0x24 CALLDATALOAD SWAP1 PUSH1 0x1 PUSH1 0x1 PUSH1 0xA0 SHL SUB DUP3 AND DUP3 SUB PUSH2 0x190 JUMPI JUMP JUMPDEST PUSH1 0x44 CALLDATALOAD SWAP1 PUSH1 0x1 PUSH1 0x1 PUSH1 0xA0 SHL SUB DUP3 AND DUP3 SUB PUSH2 0x190 JUMPI JUMP JUMPDEST PUSH1 0x20 SWAP1 PUSH1 0x20 PUSH1 0x40 DUP2 DUP4 ADD SWAP3 DUP3 DUP2 MSTORE DUP6 MLOAD DUP1 SWAP5 MSTORE ADD SWAP4 ADD SWAP2 PUSH0 JUMPDEST DUP3 DUP2 LT PUSH2 0x218E JUMPI POP POP POP POP SWAP1 JUMP JUMPDEST DUP4 MLOAD DUP6 MSTORE SWAP4 DUP2 ADD SWAP4 SWAP3 DUP2 ADD SWAP3 PUSH1 0x1 ADD PUSH2 0x2180 JUMP JUMPDEST SWAP1 PUSH1 0x1F DUP1 NOT SWAP2 ADD AND DUP2 ADD SWAP1 DUP2 LT PUSH1 0x1 PUSH1 0x1 PUSH1 0x40 SHL SUB DUP3 GT OR PUSH2 0x1437 JUMPI PUSH1 0x40 MSTORE JUMP JUMPDEST PUSH1 0x1 PUSH1 0x1 PUSH1 0x40 SHL SUB DUP2 GT PUSH2 0x1437 JUMPI PUSH1 0x1F ADD PUSH1 0x1F NOT AND PUSH1 0x20 ADD SWAP1 JUMP JUMPDEST SWAP2 DUP2 PUSH1 0x1F DUP5 ADD SLT ISZERO PUSH2 0x190 JUMPI DUP3 CALLDATALOAD SWAP2 PUSH1 0x1 PUSH1 0x1 PUSH1 0x40 SHL SUB DUP4 GT PUSH2 0x190 JUMPI PUSH1 0x20 DUP1 DUP6 ADD SWAP5 DUP5 PUSH1 0x5 SHL ADD ADD GT PUSH2 0x190 JUMPI JUMP JUMPDEST PUSH1 0x1 PUSH1 0x1 PUSH1 0x40 SHL SUB DUP2 GT PUSH2 0x1437 JUMPI PUSH1 0x5 SHL PUSH1 0x20 ADD SWAP1 JUMP JUMPDEST MLOAD SWAP1 PUSH1 0x1 PUSH1 0x1 PUSH1 0xA0 SHL SUB DUP3 AND DUP3 SUB PUSH2 0x190 JUMPI JUMP JUMPDEST PUSH1 0x20 SWAP1 DUP2 DUP2 DUP5 SUB SLT PUSH2 0x190 JUMPI DUP1 MLOAD SWAP1 PUSH1 0x1 PUSH1 0x1 PUSH1 0x40 SHL SUB DUP3 GT PUSH2 0x190 JUMPI ADD SWAP2 DUP1 PUSH1 0x1F DUP5 ADD SLT ISZERO PUSH2 0x190 JUMPI DUP3 MLOAD PUSH2 0x226E DUP2 PUSH2 0x220E JUMP JUMPDEST SWAP4 PUSH2 0x227C PUSH1 0x40 MLOAD SWAP6 DUP7 PUSH2 0x21A2 JUMP JUMPDEST DUP2 DUP6 MSTORE DUP4 DUP1 DUP7 ADD SWAP3 PUSH1 0x5 SHL DUP3 ADD ADD SWAP3 DUP4 GT PUSH2 0x190 JUMPI DUP4 ADD SWAP1 JUMPDEST DUP3 DUP3 LT PUSH2 0x22A3 JUMPI POP POP POP POP SWAP1 JUMP JUMPDEST DUP4 DUP1 SWAP2 PUSH2 0x22AF DUP5 PUSH2 0x2225 JUMP JUMPDEST DUP2 MSTORE ADD SWAP2 ADD SWAP1 PUSH2 0x2295 JUMP JUMPDEST SWAP1 PUSH2 0x22C4 DUP3 PUSH2 0x220E JUMP JUMPDEST PUSH2 0x22D1 PUSH1 0x40 MLOAD SWAP2 DUP3 PUSH2 0x21A2 JUMP JUMPDEST DUP3 DUP2 MSTORE DUP1 SWAP3 PUSH2 0x22E2 PUSH1 0x1F NOT SWAP2 PUSH2 0x220E JUMP JUMPDEST ADD SWAP1 PUSH1 0x20 CALLDATASIZE SWAP2 ADD CALLDATACOPY JUMP JUMPDEST DUP1 MLOAD DUP3 LT ISZERO PUSH2 0x2300 JUMPI PUSH1 0x20 SWAP2 PUSH1 0x5 SHL ADD ADD SWAP1 JUMP JUMPDEST PUSH4 0x4E487B71 PUSH1 0xE0 SHL PUSH0 MSTORE PUSH1 0x32 PUSH1 0x4 MSTORE PUSH1 0x24 PUSH0 REVERT JUMPDEST DUP2 DUP2 MUL SWAP3 SWAP2 DUP2 ISZERO SWAP2 DUP5 DIV EQ OR ISZERO PUSH2 0x2327 JUMPI JUMP JUMPDEST PUSH4 0x4E487B71 PUSH1 0xE0 SHL PUSH0 MSTORE PUSH1 0x11 PUSH1 0x4 MSTORE PUSH1 0x24 PUSH0 REVERT JUMPDEST DUP2 ISZERO PUSH2 0x2345 JUMPI DIV SWAP1 JUMP JUMPDEST PUSH4 0x4E487B71 PUSH1 0xE0 SHL PUSH0 MSTORE PUSH1 0x12 PUSH1 0x4 MSTORE PUSH1 0x24 PUSH0 REVERT JUMPDEST ISZERO PUSH2 0x2360 JUMPI JUMP JUMPDEST PUSH1 0x40 MLOAD PUSH3 0x461BCD PUSH1 0xE5 SHL DUP2 MSTORE PUSH1 0x20 PUSH1 0x4 DUP3 ADD MSTORE PUSH1 0x14 PUSH1 0x24 DUP3 ADD MSTORE PUSH20 0x496E73756666696369656E742062616C616E6365 PUSH1 0x60 SHL PUSH1 0x44 DUP3 ADD MSTORE PUSH1 0x64 SWAP1 REVERT JUMPDEST SWAP1 DUP1 PUSH1 0x1F DUP4 ADD SLT ISZERO PUSH2 0x190 JUMPI DUP2 MLOAD SWAP1 PUSH1 0x20 SWAP2 PUSH2 0x23B7 DUP2 PUSH2 0x220E JUMP JUMPDEST SWAP4 PUSH2 0x23C5 PUSH1 0x40 MLOAD SWAP6 DUP7 PUSH2 0x21A2 JUMP JUMPDEST DUP2 DUP6 MSTORE PUSH1 0x20 DUP1 DUP7 ADD SWAP3 PUSH1 0x5 SHL DUP3 ADD ADD SWAP3 DUP4 GT PUSH2 0x190 JUMPI PUSH1 0x20 ADD SWAP1 JUMPDEST DUP3 DUP3 LT PUSH2 0x23EE JUMPI POP POP POP POP SWAP1 JUMP JUMPDEST DUP2 MLOAD DUP2 MSTORE SWAP1 DUP4 ADD SWAP1 DUP4 ADD PUSH2 0x23E0 JUMP JUMPDEST SWAP2 SWAP1 DUP3 ADD DUP1 SWAP3 GT PUSH2 0x2327 JUMPI JUMP JUMPDEST SWAP2 SWAP1 DUP3 SUB SWAP2 DUP3 GT PUSH2 0x2327 JUMPI JUMP JUMPDEST ISZERO PUSH2 0x241E JUMPI JUMP JUMPDEST PUSH1 0x64 PUSH1 0x40 MLOAD PUSH3 0x461BCD PUSH1 0xE5 SHL DUP2 MSTORE PUSH1 0x20 PUSH1 0x4 DUP3 ADD MSTORE PUSH1 0x20 PUSH1 0x24 DUP3 ADD MSTORE PUSH32 0x416D6F756E74206D7573742062652067726561746572207468616E207A65726F PUSH1 0x44 DUP3 ADD MSTORE REVERT JUMPDEST SWAP1 DUP2 PUSH1 0x20 SWAP2 SUB SLT PUSH2 0x190 JUMPI MLOAD DUP1 ISZERO ISZERO DUP2 SUB PUSH2 0x190 JUMPI SWAP1 JUMP JUMPDEST SWAP1 PUSH1 0x20 DUP3 DUP3 SUB SLT PUSH2 0x190 JUMPI DUP2 MLOAD PUSH1 0x1 PUSH1 0x1 PUSH1 0x40 SHL SUB DUP2 GT PUSH2 0x190 JUMPI PUSH2 0x249F SWAP3 ADD PUSH2 0x239C JUMP JUMPDEST SWAP1 JUMP JUMPDEST SWAP2 SWAP1 DUP2 LT ISZERO PUSH2 0x2300 JUMPI PUSH1 0x5 SHL ADD SWAP1 JUMP JUMPDEST CALLDATALOAD PUSH1 0x1 PUSH1 0x1 PUSH1 0xA0 SHL SUB DUP2 AND DUP2 SUB PUSH2 0x190 JUMPI SWAP1 JUMP JUMPDEST ISZERO PUSH2 0x24CD JUMPI JUMP JUMPDEST PUSH1 0x40 MLOAD PUSH3 0x461BCD PUSH1 0xE5 SHL DUP2 MSTORE PUSH1 0x20 PUSH1 0x4 DUP3 ADD MSTORE PUSH1 0x16 PUSH1 0x24 DUP3 ADD MSTORE PUSH22 0x496E73756666696369656E74204C6971756964697479 PUSH1 0x50 SHL PUSH1 0x44 DUP3 ADD MSTORE PUSH1 0x64 SWAP1 REVERT JUMPDEST PUSH1 0x1 PUSH1 0x1 PUSH1 0xA0 SHL SUB SWAP1 DUP2 AND SWAP1 DUP2 ISZERO PUSH2 0x2564 JUMPI PUSH0 DUP1 MLOAD PUSH1 0x20 PUSH2 0x2646 DUP4 CODECOPY DUP2 MLOAD SWAP2 MSTORE DUP1 SLOAD PUSH1 0x1 PUSH1 0x1 PUSH1 0xA0 SHL SUB NOT DUP2 AND DUP5 OR SWAP1 SWAP2 SSTORE AND PUSH32 0x8BE0079C531659141344CD1FD0A4F28419497F9722A3DAAFE3B4186F6B6457E0 PUSH0 DUP1 LOG3 JUMP JUMPDEST PUSH1 0x40 MLOAD PUSH4 0x1E4FBDF7 PUSH1 0xE0 SHL DUP2 MSTORE PUSH0 PUSH1 0x4 DUP3 ADD MSTORE PUSH1 0x24 SWAP1 REVERT JUMPDEST PUSH0 DUP1 MLOAD PUSH1 0x20 PUSH2 0x2646 DUP4 CODECOPY DUP2 MLOAD SWAP2 MSTORE SLOAD PUSH1 0x1 PUSH1 0x1 PUSH1 0xA0 SHL SUB AND CALLER SUB PUSH2 0x259C JUMPI JUMP JUMPDEST PUSH1 0x40 MLOAD PUSH4 0x118CDAA7 PUSH1 0xE0 SHL DUP2 MSTORE CALLER PUSH1 0x4 DUP3 ADD MSTORE PUSH1 0x24 SWAP1 REVERT JUMPDEST PUSH1 0xFF PUSH0 DUP1 MLOAD PUSH1 0x20 PUSH2 0x2666 DUP4 CODECOPY DUP2 MLOAD SWAP2 MSTORE SLOAD PUSH1 0x40 SHR AND ISZERO PUSH2 0x25D0 JUMPI JUMP JUMPDEST PUSH1 0x40 MLOAD PUSH4 0x1AFCD79F PUSH1 0xE3 SHL DUP2 MSTORE PUSH1 0x4 SWAP1 REVERT JUMPDEST SWAP1 PUSH2 0x2609 JUMPI POP DUP1 MLOAD ISZERO PUSH2 0x25F7 JUMPI DUP1 MLOAD SWAP1 PUSH1 0x20 ADD REVERT JUMPDEST PUSH1 0x40 MLOAD PUSH4 0xA12F521 PUSH1 0xE1 SHL DUP2 MSTORE PUSH1 0x4 SWAP1 REVERT JUMPDEST DUP2 MLOAD ISZERO DUP1 PUSH2 0x263C JUMPI JUMPDEST PUSH2 0x261A JUMPI POP SWAP1 JUMP JUMPDEST PUSH1 0x40 MLOAD PUSH4 0x9996B315 PUSH1 0xE0 SHL DUP2 MSTORE PUSH1 0x1 PUSH1 0x1 PUSH1 0xA0 SHL SUB SWAP1 SWAP2 AND PUSH1 0x4 DUP3 ADD MSTORE PUSH1 0x24 SWAP1 REVERT JUMPDEST POP DUP1 EXTCODESIZE ISZERO PUSH2 0x2612 JUMP INVALID SWAP1 AND 0xD0 SWAP14 PUSH19 0xD40FDAE2FD8CEAC6B6234C7706214FD39C1CD1 0xE6 MULMOD LOG0 MSTORE DUP13 NOT SWAP4 STOP CREATE 0xC5 PUSH31 0x16840DF040F15088DC2F81FE391C3923BEC73E23A9662EFC9C229C6A00A264 PUSH10 0x7066735822122031513C PC SWAP11 0xD2 PUSH24 0xD9689FD63E9FE9B51F0114C893E0FC2A925204741B456923 0xC1 PUSH5 0x736F6C6343 STOP ADDMOD NOT STOP CALLER "},"gasEstimates":{"creation":{"codeDepositCost":"1983000","executionCost":"infinite","totalCost":"infinite"},"external":{"UPGRADE_INTERFACE_VERSION()":"757","_BPS_BASE()":"2556","_BPS_FEE()":"2710","_MAX_BPS_FEE()":"2292","addLiquidity(uint256[],address,address)":"infinite","batchSwap(address[],address[],uint256[],address[])":"infinite","changeBpsFee(uint256)":"infinite","changePoolFactory(address)":"infinite","changeTreausry(address)":"infinite","getAmountOut(address,address,uint256)":"infinite","getAssetReserve(address,address)":"2918","getPoolsContainingToken(address)":"infinite","getReserves(address)":"infinite","getVersion()":"infinite","initialize(address)":"infinite","owner()":"infinite","performRebalanceIfNeeded(address)":"infinite","poolFactory()":"2381","poolsReserves(address,address)":"2632","proxiableUUID()":"infinite","rebalanceWeights(address,address)":"infinite","reinitialize(address,uint64)":"infinite","removeLiquidity(uint256,address,address)":"infinite","renounceOwnership()":"infinite","swap(address,address,uint256,address)":"infinite","transferOwnership(address)":"infinite","treasury()":"2492","upgradeToAndCall(address,bytes)":"infinite"},"internal":{"_authorizeUpgrade(address)":"infinite"}},"methodIdentifiers":{"UPGRADE_INTERFACE_VERSION()":"ad3cb1cc","_BPS_BASE()":"85377188","_BPS_FEE()":"b9f5e617","_MAX_BPS_FEE()":"34decfc9","addLiquidity(uint256[],address,address)":"ec0cd2eb","batchSwap(address[],address[],uint256[],address[])":"e74e9b06","changeBpsFee(uint256)":"06497cb9","changePoolFactory(address)":"72591be5","changeTreausry(address)":"f4011c4c","getAmountOut(address,address,uint256)":"4aa06652","getAssetReserve(address,address)":"a3e113fb","getPoolsContainingToken(address)":"ae3cce1c","getReserves(address)":"3e99c1e4","getVersion()":"0d8e6e2c","initialize(address)":"c4d66de8","owner()":"8da5cb5b","performRebalanceIfNeeded(address)":"5568081a","poolFactory()":"4219dc40","poolsReserves(address,address)":"4056c37f","proxiableUUID()":"52d1902d","rebalanceWeights(address,address)":"ad414263","reinitialize(address,uint64)":"8f2248bc","removeLiquidity(uint256,address,address)":"f31abcc4","renounceOwnership()":"715018a6","swap(address,address,uint256,address)":"6e81221c","transferOwnership(address)":"f2fde38b","treasury()":"61d027b3","upgradeToAndCall(address,bytes)":"4f1ef286"}},"storageLayout":{"storage":[{"astId":2165,"contract":"contracts/BaluniV1PoolPeriphery.sol:BaluniV1PoolPeriphery","label":"poolFactory","offset":0,"slot":"0","type":"t_contract(IBaluniV1PoolFactory)3524"},{"astId":2167,"contract":"contracts/BaluniV1PoolPeriphery.sol:BaluniV1PoolPeriphery","label":"treasury","offset":0,"slot":"1","type":"t_address"},{"astId":2169,"contract":"contracts/BaluniV1PoolPeriphery.sol:BaluniV1PoolPeriphery","label":"_MAX_BPS_FEE","offset":0,"slot":"2","type":"t_uint256"},{"astId":2171,"contract":"contracts/BaluniV1PoolPeriphery.sol:BaluniV1PoolPeriphery","label":"_BPS_FEE","offset":0,"slot":"3","type":"t_uint256"},{"astId":2173,"contract":"contracts/BaluniV1PoolPeriphery.sol:BaluniV1PoolPeriphery","label":"_BPS_BASE","offset":0,"slot":"4","type":"t_uint256"},{"astId":2179,"contract":"contracts/BaluniV1PoolPeriphery.sol:BaluniV1PoolPeriphery","label":"poolsReserves","offset":0,"slot":"5","type":"t_mapping(t_address,t_mapping(t_address,t_uint256))"}],"types":{"t_address":{"encoding":"inplace","label":"address","numberOfBytes":"20"},"t_contract(IBaluniV1PoolFactory)3524":{"encoding":"inplace","label":"contract IBaluniV1PoolFactory","numberOfBytes":"20"},"t_mapping(t_address,t_mapping(t_address,t_uint256))":{"encoding":"mapping","key":"t_address","label":"mapping(address => mapping(address => uint256))","numberOfBytes":"32","value":"t_mapping(t_address,t_uint256)"},"t_mapping(t_address,t_uint256)":{"encoding":"mapping","key":"t_address","label":"mapping(address => uint256)","numberOfBytes":"32","value":"t_uint256"},"t_uint256":{"encoding":"inplace","label":"uint256","numberOfBytes":"32"}}},"userdoc":{"kind":"user","methods":{},"version":1}}}}