{"contracts/BaluniV1PoolFactory.sol":{"BaluniV1PoolFactory":{"abi":[{"inputs":[{"internalType":"address","name":"target","type":"address"}],"name":"AddressEmptyCode","type":"error"},{"inputs":[{"internalType":"address","name":"implementation","type":"address"}],"name":"ERC1967InvalidImplementation","type":"error"},{"inputs":[],"name":"ERC1967NonPayable","type":"error"},{"inputs":[],"name":"FailedInnerCall","type":"error"},{"inputs":[],"name":"InvalidInitialization","type":"error"},{"inputs":[],"name":"NotInitializing","type":"error"},{"inputs":[{"internalType":"address","name":"owner","type":"address"}],"name":"OwnableInvalidOwner","type":"error"},{"inputs":[{"internalType":"address","name":"account","type":"address"}],"name":"OwnableUnauthorizedAccount","type":"error"},{"inputs":[],"name":"UUPSUnauthorizedCallContext","type":"error"},{"inputs":[{"internalType":"bytes32","name":"slot","type":"bytes32"}],"name":"UUPSUnsupportedProxiableUUID","type":"error"},{"anonymous":false,"inputs":[{"indexed":false,"internalType":"uint64","name":"version","type":"uint64"}],"name":"Initialized","type":"event"},{"anonymous":false,"inputs":[{"indexed":true,"internalType":"address","name":"previousOwner","type":"address"},{"indexed":true,"internalType":"address","name":"newOwner","type":"address"}],"name":"OwnershipTransferred","type":"event"},{"anonymous":false,"inputs":[{"indexed":true,"internalType":"address","name":"pool","type":"address"},{"indexed":false,"internalType":"address[]","name":"assets","type":"address[]"},{"indexed":false,"internalType":"address","name":"rebalancer","type":"address"}],"name":"PoolCreated","type":"event"},{"anonymous":false,"inputs":[{"indexed":true,"internalType":"address","name":"implementation","type":"address"}],"name":"Upgraded","type":"event"},{"inputs":[],"name":"UPGRADE_INTERFACE_VERSION","outputs":[{"internalType":"string","name":"","type":"string"}],"stateMutability":"view","type":"function"},{"inputs":[{"internalType":"uint256","name":"","type":"uint256"}],"name":"allPools","outputs":[{"internalType":"address","name":"","type":"address"}],"stateMutability":"view","type":"function"},{"inputs":[{"internalType":"address","name":"_newPeriphery","type":"address"}],"name":"changePeriphery","outputs":[],"stateMutability":"nonpayable","type":"function"},{"inputs":[{"internalType":"address[]","name":"assets","type":"address[]"},{"internalType":"uint256[]","name":"weights","type":"uint256[]"},{"internalType":"uint256","name":"trigger","type":"uint256"}],"name":"createPool","outputs":[{"internalType":"address","name":"","type":"address"}],"stateMutability":"nonpayable","type":"function"},{"inputs":[],"name":"getAllPools","outputs":[{"internalType":"address[]","name":"","type":"address[]"}],"stateMutability":"view","type":"function"},{"inputs":[{"internalType":"address","name":"","type":"address"},{"internalType":"address","name":"","type":"address"}],"name":"getPool","outputs":[{"internalType":"address","name":"","type":"address"}],"stateMutability":"view","type":"function"},{"inputs":[{"internalType":"address","name":"poolAddress","type":"address"}],"name":"getPoolAssets","outputs":[{"internalType":"address[]","name":"","type":"address[]"}],"stateMutability":"view","type":"function"},{"inputs":[{"internalType":"address","name":"asset1","type":"address"},{"internalType":"address","name":"asset2","type":"address"}],"name":"getPoolByAssets","outputs":[{"internalType":"address","name":"","type":"address"}],"stateMutability":"view","type":"function"},{"inputs":[{"internalType":"address","name":"token","type":"address"}],"name":"getPoolsByAsset","outputs":[{"internalType":"address[]","name":"","type":"address[]"}],"stateMutability":"view","type":"function"},{"inputs":[],"name":"getPoolsCount","outputs":[{"internalType":"uint256","name":"","type":"uint256"}],"stateMutability":"view","type":"function"},{"inputs":[{"internalType":"address","name":"_rebalancer","type":"address"}],"name":"initialize","outputs":[],"stateMutability":"nonpayable","type":"function"},{"inputs":[],"name":"owner","outputs":[{"internalType":"address","name":"","type":"address"}],"stateMutability":"view","type":"function"},{"inputs":[],"name":"periphery","outputs":[{"internalType":"address","name":"","type":"address"}],"stateMutability":"view","type":"function"},{"inputs":[{"internalType":"address","name":"_pool","type":"address"}],"name":"poolExist","outputs":[{"internalType":"bool","name":"","type":"bool"}],"stateMutability":"nonpayable","type":"function"},{"inputs":[],"name":"proxiableUUID","outputs":[{"internalType":"bytes32","name":"","type":"bytes32"}],"stateMutability":"view","type":"function"},{"inputs":[],"name":"rebalancer","outputs":[{"internalType":"address","name":"","type":"address"}],"stateMutability":"view","type":"function"},{"inputs":[{"internalType":"address","name":"_rebalancer","type":"address"},{"internalType":"uint64","name":"_version","type":"uint64"}],"name":"reinitialize","outputs":[],"stateMutability":"nonpayable","type":"function"},{"inputs":[],"name":"renounceOwnership","outputs":[],"stateMutability":"nonpayable","type":"function"},{"inputs":[{"internalType":"address","name":"newOwner","type":"address"}],"name":"transferOwnership","outputs":[],"stateMutability":"nonpayable","type":"function"},{"inputs":[{"internalType":"address","name":"newImplementation","type":"address"},{"internalType":"bytes","name":"data","type":"bytes"}],"name":"upgradeToAndCall","outputs":[],"stateMutability":"payable","type":"function"}],"devdoc":{"errors":{"AddressEmptyCode(address)":[{"details":"There's no code at `target` (it is not a contract)."}],"ERC1967InvalidImplementation(address)":[{"details":"The `implementation` of the proxy is invalid."}],"ERC1967NonPayable()":[{"details":"An upgrade function sees `msg.value > 0` that may be lost."}],"FailedInnerCall()":[{"details":"A call to an address target failed. The target may have reverted."}],"InvalidInitialization()":[{"details":"The contract is already initialized."}],"NotInitializing()":[{"details":"The contract is not initializing."}],"OwnableInvalidOwner(address)":[{"details":"The owner is not a valid owner account. (eg. `address(0)`)"}],"OwnableUnauthorizedAccount(address)":[{"details":"The caller account is not authorized to perform an operation."}],"UUPSUnauthorizedCallContext()":[{"details":"The call is from an unauthorized context."}],"UUPSUnsupportedProxiableUUID(bytes32)":[{"details":"The storage `slot` is unsupported as a UUID."}]},"events":{"Initialized(uint64)":{"details":"Triggered when the contract has been initialized or reinitialized."},"Upgraded(address)":{"details":"Emitted when the implementation is upgraded."}},"kind":"dev","methods":{"changePeriphery(address)":{"details":"Changes the address of the periphery contract.","params":{"_newPeriphery":"The new address of the periphery contract."}},"createPool(address[],uint256[],uint256)":{"details":"Creates a new BaluniV1Pool contract and registers it in the factory.","params":{"assets":"The array of asset addresses to be included in the pool.","trigger":"The trigger value for rebalancing the pool.","weights":"The array of weights corresponding to each asset in the pool."},"returns":{"_0":"The address of the newly created pool."}},"getAllPools()":{"details":"Retrieves all the pools created by the factory.","returns":{"_0":"An array of pool addresses."}},"getPoolAssets(address)":{"details":"Retrieves the assets of a specific pool.","params":{"poolAddress":"The address of the pool."},"returns":{"_0":"An array of asset addresses."}},"getPoolByAssets(address,address)":{"details":"Retrieves the pool address based on the given assets.","params":{"asset1":"The address of the first asset.","asset2":"The address of the second asset."},"returns":{"_0":"The address of the pool."}},"getPoolsByAsset(address)":{"details":"Returns an array of pool addresses that contain the specified token.","params":{"token":"The address of the token to search for."},"returns":{"_0":"An array of pool addresses."}},"getPoolsCount()":{"details":"Retrieves the number of pools created by the factory.","returns":{"_0":"The count of pools."}},"owner()":{"details":"Returns the address of the current owner."},"proxiableUUID()":{"details":"Implementation of the ERC1822 {proxiableUUID} function. This returns the storage slot used by the implementation. It is used to validate the implementation's compatibility when performing an upgrade. IMPORTANT: A proxy pointing at a proxiable contract should not be considered proxiable itself, because this risks bricking a proxy that upgrades to it, by delegating to itself until out of gas. Thus it is critical that this function revert if invoked through a proxy. This is guaranteed by the `notDelegated` modifier."},"renounceOwnership()":{"details":"Leaves the contract without owner. It will not be possible to call `onlyOwner` functions. Can only be called by the current owner. NOTE: Renouncing ownership will leave the contract without an owner, thereby disabling any functionality that is only available to the owner."},"transferOwnership(address)":{"details":"Transfers ownership of the contract to a new account (`newOwner`). Can only be called by the current owner."},"upgradeToAndCall(address,bytes)":{"custom:oz-upgrades-unsafe-allow-reachable":"delegatecall","details":"Upgrade the implementation of the proxy to `newImplementation`, and subsequently execute the function call encoded in `data`. Calls {_authorizeUpgrade}. Emits an {Upgraded} event."}},"version":1},"evm":{"bytecode":{"linkReferences":{},"object":"60a0806040523460295730608052615766908161002e8239608051818181610b990152610cb20152f35b5f80fdfe60806040818152600480361015610014575f80fd5b5f3560e01c92836301d22ccd146116c8575082632d5e94a714610add5782633069873b1461106757826341d1de9714610ffe5782634276b97b14610f395782634f1ef28614610c0e57826352d1902d14610b53578263531aa03e14610add578263715018a614610a2157826377aace1a146109cf57826389345efb146109835782638da5cb5b146109125782638f2248bc14610793578263ad3cb1cc146106a6578263b4340e6a146104b6578263b4ac68601461047b578263c4d66de81461028a57508163d88ff1f4146101cb57508063e9b31cff146101495763f2fde38b146100fc575f80fd5b346101455760207ffffffffffffffffffffffffffffffffffffffffffffffffffffffffffffffffc36011261014557610143610136611716565b61013e611ad3565b611a12565b005b5f80fd5b346101455760207ffffffffffffffffffffffffffffffffffffffffffffffffffffffffffffffffc3601126101455773ffffffffffffffffffffffffffffffffffffffff610195611716565b61019d611ad3565b167fffffffffffffffffffffffff000000000000000000000000000000000000000060035416176003555f80f35b34610145575f7ffffffffffffffffffffffffffffffffffffffffffffffffffffffffffffffffc3601126101455780515f8054808352818052602080840194927f290decd9548b62a8d60345a988386fc84ba6bc95484008f6362f93160ef3e56392915b82821061025d576102598686610247828b038361175c565b51918291602083526020830190611842565b0390f35b835473ffffffffffffffffffffffffffffffffffffffff168752958601956001938401939091019061022f565b346101455760207ffffffffffffffffffffffffffffffffffffffffffffffffffffffffffffffffc360112610145576102c1611716565b907ff0c57e16840df040f15088dc2f81fe391c3923bec73e23a9662efc9c229c6a0091825460ff81861c16159267ffffffffffffffff821680159081610473575b6001149081610469575b159081610460575b50610439575090818360017fffffffffffffffffffffffffffffffffffffffffffffffff000000000000000073ffffffffffffffffffffffffffffffffffffffff9516178655610404575b50610368611b43565b610370611b43565b610378611b43565b61038133611a12565b167fffffffffffffffffffffffff000000000000000000000000000000000000000060025416176002556103b157005b7fc7f505b2f371ae2175ee4913f4499e1f2633a7b5936321eed1cdaeb6115181d291817fffffffffffffffffffffffffffffffffffffffffffffff00ffffffffffffffff602093541690555160018152a1005b7fffffffffffffffffffffffffffffffffffffffffffffff00000000000000000016680100000000000000011784558561035f565b85517ff92ee8a9000000000000000000000000000000000000000000000000000000008152fd5b90501587610314565b303b15915061030c565b859150610302565b5034610145575f7ffffffffffffffffffffffffffffffffffffffffffffffffffffffffffffffffc360112610145576020905f549051908152f35b346101455760207ffffffffffffffffffffffffffffffffffffffffffffffffffffffffffffffffc360112610145576104ed611716565b905f54916104fa836119c3565b925f925f9073ffffffffffffffffffffffffffffffffffffffff8094165b83831061056d575b5050505061052d826119c3565b925f5b83811061054c5785516020808252819061025990820188611842565b808361055a600193856118c5565b511661056682886118c5565b5201610530565b8461057d849794989695986117e2565b90549060031b1c16908851977f67e4ac2c0000000000000000000000000000000000000000000000000000000089525f898581865afa98891561069c575f99610678575b505f5b895181101561066a5782876105d9838d6118c5565b5116146105e8576001016105c4565b50939190949597506105fa82896118c5565b527fffffffffffffffffffffffffffffffffffffffffffffffffffffffffffffffff811461063e57600101945b86518614610639576001019192610518565b610520565b6011827f4e487b71000000000000000000000000000000000000000000000000000000005f525260245ffd5b509396915093949650610627565b6106959199503d805f833e61068d818361175c565b8101906118d9565b978a6105c1565b8a513d5f823e3d90fd5b9034610145575f7ffffffffffffffffffffffffffffffffffffffffffffffffffffffffffffffffc360112610145578051918183019083821067ffffffffffffffff831117610767575081526005825260208201917f352e302e3000000000000000000000000000000000000000000000000000000083527fffffffffffffffffffffffffffffffffffffffffffffffffffffffffffffffe0601f8351948593602085525180918160208701528686015e5f85828601015201168101030190f35b6041907f4e487b71000000000000000000000000000000000000000000000000000000005f525260245ffd5b903461014557807ffffffffffffffffffffffffffffffffffffffffffffffffffffffffffffffffc360112610145576107ca611716565b916024359267ffffffffffffffff90818516809503610145577ff0c57e16840df040f15088dc2f81fe391c3923bec73e23a9662efc9c229c6a00928354928660ff85881c16918215610905575b50506108de577fc7f505b2f371ae2175ee4913f4499e1f2633a7b5936321eed1cdaeb6115181d260208787877fffffffffffffffffffffffffffffffffffffffffffffff00ffffffffffffffff68010000000000000000847fffffffffffffffffffffffffffffffffffffffffffffff0000000000000000008b73ffffffffffffffffffffffffffffffffffffffff8c167fffffffffffffffffffffffff0000000000000000000000000000000000000000600254161760025516171716905551908152a1005b84517ff92ee8a9000000000000000000000000000000000000000000000000000000008152fd5b8516101590508688610817565b5034610145575f7ffffffffffffffffffffffffffffffffffffffffffffffffffffffffffffffffc3601126101455760209073ffffffffffffffffffffffffffffffffffffffff7f9016d09d72d40fdae2fd8ceac6b6234c7706214fd39c1cd1e609a0528c19930054169051908152f35b50346101455760207ffffffffffffffffffffffffffffffffffffffffffffffffffffffffffffffffc360112610145576020906109c66109c1611716565b611970565b90519015158152f35b5034610145575f7ffffffffffffffffffffffffffffffffffffffffffffffffffffffffffffffffc3601126101455760209073ffffffffffffffffffffffffffffffffffffffff600354169051908152f35b34610145575f7ffffffffffffffffffffffffffffffffffffffffffffffffffffffffffffffffc36011261014557610a57611ad3565b5f73ffffffffffffffffffffffffffffffffffffffff7f9016d09d72d40fdae2fd8ceac6b6234c7706214fd39c1cd1e609a0528c1993008054907fffffffffffffffffffffffff000000000000000000000000000000000000000082169055167f8be0079c531659141344cd1fd0a4f28419497f9722a3daafe3b4186f6b6457e08280a3005b503461014557807ffffffffffffffffffffffffffffffffffffffffffffffffffffffffffffffffc36011261014557602090610b17611716565b610b1f611739565b73ffffffffffffffffffffffffffffffffffffffff8092165f526001845281835f2091165f528352815f2054169051908152f35b9034610145575f7ffffffffffffffffffffffffffffffffffffffffffffffffffffffffffffffffc3601126101455773ffffffffffffffffffffffffffffffffffffffff7f0000000000000000000000000000000000000000000000000000000000000000163003610be857602090517f360894a13ba1a3210667c828492db98dca3e2076cc3735a920a3ca505d382bbc8152f35b517fe07c8dba000000000000000000000000000000000000000000000000000000008152fd5b817ffffffffffffffffffffffffffffffffffffffffffffffffffffffffffffffffc36011261014557610c3f611716565b602492833567ffffffffffffffff811161014557366023820112156101455780840135610c6b8161188b565b93610c788451958661175c565b818552602091828601933689838301011161014557815f928a86930187378701015273ffffffffffffffffffffffffffffffffffffffff807f000000000000000000000000000000000000000000000000000000000000000016803014908115610f0b575b50610ee357610cea611ad3565b81169484517f52d1902d000000000000000000000000000000000000000000000000000000008152838189818a5afa5f9181610eb4575b50610d5557505050505051917f4c9c8ce3000000000000000000000000000000000000000000000000000000008352820152fd5b9087878794938b7f360894a13ba1a3210667c828492db98dca3e2076cc3735a920a3ca505d382bbc91828103610e875750853b15610e5a5750817fffffffffffffffffffffffff00000000000000000000000000000000000000008254161790558451907fbc7cd75a20ee27fd9adebab32041f755214dbc6bffa90cc0225b39da2e5c2d3b5f80a2825115610e275750505f6101439581925190845af4913d15610e1d573d610e0f610e068261188b565b9251928361175c565b81525f81943d92013e611b9c565b5060609250611b9c565b9450945050505034610e3557005b7fb398979f000000000000000000000000000000000000000000000000000000008152fd5b83838851917f4c9c8ce3000000000000000000000000000000000000000000000000000000008352820152fd5b84908851917faa1d49a4000000000000000000000000000000000000000000000000000000008352820152fd5b9091508481813d8311610edc575b610ecc818361175c565b810103126101455751908a610d21565b503d610ec2565b8685517fe07c8dba000000000000000000000000000000000000000000000000000000008152fd5b9050817f360894a13ba1a3210667c828492db98dca3e2076cc3735a920a3ca505d382bbc5416141589610cdd565b346101455760207ffffffffffffffffffffffffffffffffffffffffffffffffffffffffffffffffc360112610145575f73ffffffffffffffffffffffffffffffffffffffff610f86611716565b168351928380927f67e4ac2c0000000000000000000000000000000000000000000000000000000082525afa908115610ff45791610259925f92610fd8575b5051918291602083526020830190611842565b610fed9192503d805f833e61068d818361175c565b9083610fc5565b82513d5f823e3d90fd5b346101455760207ffffffffffffffffffffffffffffffffffffffffffffffffffffffffffffffffc3601126101455735905f548210156101455773ffffffffffffffffffffffffffffffffffffffff6110586020936117e2565b92905490519260031b1c168152f35b346101455760607ffffffffffffffffffffffffffffffffffffffffffffffffffffffffffffffffc3601126101455767ffffffffffffffff918135838111610145573660238201121561014557808301359360246110c4866117ca565b926110d18551948561175c565b868452602096828886019160051b83010191368311610145578301905b82821061169c575050508035828111610145573660238201121561014557808601359061111a826117ca565b906111278751928361175c565b8282528882019260051b81018401908336831161014557858b9201905b83821061168d575050505060449173ffffffffffffffffffffffffffffffffffffffff9485600354169081156116325760019485895111156115d8578851855103611557575f865b61141a575b5050866002541693895194613af480870193878510908511176113ef5790869594939291611c3d8739825260a08d8301528c6111d060a084018c611842565b8381038d8501529151808352910193905f888f5b8383106113d857505050604435606084015250506080015203905ff080156113ce578316955f54680100000000000000008110156113a3579061123082848a9897969594015f556117e2565b81549060031b908689831b921b1916179055815f905b611298575b505050507f93de7d9de9f3e05ba87a0170fcbb71af623439caf5e5079587b9d38c5da9b0d19161128a9160025416855192839287845287840190611842565b90888301520390a251908152f35b909192939495865182101561139b57508281018082116113705783929190835b6112ca575b5082018896959493611246565b879391929351811015611367578190876112e4858b6118c5565b51165f52818c52895f20886112f9838c6118c5565b51165f528c52895f207fffffffffffffffffffffffff0000000000000000000000000000000000000000908c8282541617905588611337838c6118c5565b51165f52828d528a5f208961134c878d6118c5565b51165f528d528b8b5f209182541617905501819392916112b8565b929190926112bd565b846011847f4e487b71000000000000000000000000000000000000000000000000000000005f52525ffd5b95949361124b565b836041837f4e487b71000000000000000000000000000000000000000000000000000000005f52525ffd5b85513d5f823e3d90fd5b84518852899850968701969093019201888f6111e4565b8860418e7f4e487b71000000000000000000000000000000000000000000000000000000005f52525ffd5b89518110156115525786810180821161152757879291908b8f8c8f875b61144a575b50505050508201909161118c565b90919293949596845186101561151a57508461147a918361146b89886118c5565b51165f528d85525f20946118c5565b51165f5252898c5f205416611499578792919083018b8f8c8f87611437565b8b517f08c379a0000000000000000000000000000000000000000000000000000000008152808e018f90526021818b01527f506f6f6c20616c72656164792065786973747320666f72207468697320706169818501527f72000000000000000000000000000000000000000000000000000000000000006064820152608490fd5b969594509083929161143c565b8860118e7f4e487b71000000000000000000000000000000000000000000000000000000005f52525ffd5b611191565b60848b6022898f8e51937f08c379a00000000000000000000000000000000000000000000000000000000085528401528201527f41737365747320616e642077656967687473206c656e677468206d69736d617460448201527f63680000000000000000000000000000000000000000000000000000000000006064820152fd5b60648b8d89818e51937f08c379a00000000000000000000000000000000000000000000000000000000085528401528201527f4174206c656173742074776f20617373657473206172652072657175697265646044820152fd5b60648a6011888e8d51937f08c379a00000000000000000000000000000000000000000000000000000000085528401528201527f506572697068657279206e6f74207365740000000000000000000000000000006044820152fd5b81358152908201908201611144565b813573ffffffffffffffffffffffffffffffffffffffff811681036101455781529088019088016110ee565b34610145575f7ffffffffffffffffffffffffffffffffffffffffffffffffffffffffffffffffc3601126101455760209073ffffffffffffffffffffffffffffffffffffffff600254168152f35b6004359073ffffffffffffffffffffffffffffffffffffffff8216820361014557565b6024359073ffffffffffffffffffffffffffffffffffffffff8216820361014557565b90601f7fffffffffffffffffffffffffffffffffffffffffffffffffffffffffffffffe0910116810190811067ffffffffffffffff82111761179d57604052565b7f4e487b71000000000000000000000000000000000000000000000000000000005f52604160045260245ffd5b67ffffffffffffffff811161179d5760051b60200190565b5f54811015611815575f80527f290decd9548b62a8d60345a988386fc84ba6bc95484008f6362f93160ef3e56301905f90565b7f4e487b71000000000000000000000000000000000000000000000000000000005f52603260045260245ffd5b9081518082526020808093019301915f5b828110611861575050505090565b835173ffffffffffffffffffffffffffffffffffffffff1685529381019392810192600101611853565b67ffffffffffffffff811161179d57601f017fffffffffffffffffffffffffffffffffffffffffffffffffffffffffffffffe01660200190565b80518210156118155760209160051b010190565b60209081818403126101455780519067ffffffffffffffff821161014557019180601f8401121561014557825161190f816117ca565b9361191d604051958661175c565b818552838086019260051b820101928311610145578301905b828210611944575050505090565b815173ffffffffffffffffffffffffffffffffffffffff81168103610145578152908301908301611936565b5f905f54915b828110611984575050505f90565b61198d816117e2565b9073ffffffffffffffffffffffffffffffffffffffff90548185169260031b1c16146119bb57600101611976565b505050600190565b906119cd826117ca565b6119da604051918261175c565b8281527fffffffffffffffffffffffffffffffffffffffffffffffffffffffffffffffe0611a0882946117ca565b0190602036910137565b73ffffffffffffffffffffffffffffffffffffffff809116908115611aa3577f9016d09d72d40fdae2fd8ceac6b6234c7706214fd39c1cd1e609a0528c199300805490837fffffffffffffffffffffffff00000000000000000000000000000000000000008316179055167f8be0079c531659141344cd1fd0a4f28419497f9722a3daafe3b4186f6b6457e05f80a3565b60246040517f1e4fbdf70000000000000000000000000000000000000000000000000000000081525f6004820152fd5b73ffffffffffffffffffffffffffffffffffffffff7f9016d09d72d40fdae2fd8ceac6b6234c7706214fd39c1cd1e609a0528c19930054163303611b1357565b60246040517f118cdaa7000000000000000000000000000000000000000000000000000000008152336004820152fd5b60ff7ff0c57e16840df040f15088dc2f81fe391c3923bec73e23a9662efc9c229c6a005460401c1615611b7257565b60046040517fd7e6bcf8000000000000000000000000000000000000000000000000000000008152fd5b90611bdb5750805115611bb157805190602001fd5b60046040517f1425ea42000000000000000000000000000000000000000000000000000000008152fd5b81511580611c33575b611bec575090565b60249073ffffffffffffffffffffffffffffffffffffffff604051917f9996b315000000000000000000000000000000000000000000000000000000008352166004820152fd5b50803b15611be456fe6080806040523461042f57613af4803803809161001c82856108f4565b8339810160a08282031261042f5761003382610917565b60208301519091906001600160401b03811161042f5783019181601f8401121561042f578251926100638461092b565b9361007160405195866108f4565b80855260208086019160051b8301019184831161042f57602001905b8282106108c15750505060408401516001600160401b03811161042f5784019180601f8401121561042f5782516100c38161092b565b936100d160405195866108f4565b81855260208086019260051b82010192831161042f57602001905b8282106108b157505050610107608060608601519501610917565b604051610113816108d9565b6009815268042616c756e69204c560bc1b602082015260405190610136826108d9565b6009825268042414c554e492d4c560bc1b60208301528051906001600160401b03821161048c5760035490600182811c921680156108a7575b60208310146107885781601f849311610839575b50602090601f83116001146107b1575f926107a6575b50508160011b915f199060031b1c1916176003555b8051906001600160401b03821161048c5760045490600182811c9216801561079c575b60208310146107885781601f84931161071a575b50602090601f8311600114610696575f9261068b575b50508160011b915f199060031b1c1916176004555b6001600555600a80546001600160a01b03199081166001600160a01b039384161790915560068054909116918316919091179055670de0b6b3a7640000600955825182510361063b575f5b835181101561051b576001600160a01b036102768286610942565b5116156104d6576102878184610942565b51156104a0576001600160a01b0361029f8286610942565b51166102ab8285610942565b5160408051929083018084116001600160401b039091111761048c5760408301604052825260208201526007546801000000000000000081101561048c5760018101806007558110156104785760075f5281517fa66cc928b5edb82af9bd49922954155ab7b0942694bea4ce44661d9a8736c68860019290921b91820180546001600160a01b039283166001600160a01b03199091161790556020909201517fa66cc928b5edb82af9bd49922954155ab7b0942694bea4ce44661d9a8736c689909101556103798286610942565b511660018060a01b0360065416604051636eb1769f60e11b8152306004820152816024820152602081604481865afa90811561043b575f91610446575b50156103c7575b505060010161025b565b5f916044602092604051948593849263095ea7b360e01b84526004840152811960248401525af1801561043b576103ff575b806103bd565b6020813d602011610433575b81610418602093836108f4565b8101031261042f57518015150361042f575f6103f9565b5f80fd5b3d915061040b565b6040513d5f823e3d90fd5b90506020813d602011610470575b81610461602093836108f4565b8101031261042f57515f6103b6565b3d9150610454565b634e487b7160e01b5f52603260045260245ffd5b634e487b7160e01b5f52604160045260245ffd5b60405162461bcd60e51b815260206004820152600e60248201526d125b9d985b1a59081dd95a59da1d60921b6044820152606490fd5b60405162461bcd60e51b815260206004820152601560248201527f496e76616c6964206173736574206164647265737300000000000000000000006044820152606490fd5b50600884905560405163bc06e81d60e01b815290602090829060049082906001600160a01b03165afa90811561043b575f91610601575b50600b80546001600160a01b0319166001600160a01b03929092169190911790555f90815b81518310156105b35761058a8383610942565b51810180911161059f57600190920191610577565b634e487b7160e01b5f52601160045260245ffd5b612710036105ca5760405161319d90816109578239f35b60405162461bcd60e51b815260206004820152600f60248201526e496e76616c6964207765696768747360881b6044820152606490fd5b90506020813d602011610633575b8161061c602093836108f4565b8101031261042f5761062d90610917565b82610552565b3d915061060f565b60405162461bcd60e51b815260206004820152602260248201527f41737365747320616e642077656967687473206c656e677468206d69736d61746044820152610c6d60f31b6064820152608490fd5b015190505f806101fb565b60045f9081527f8a35acfbc15ff81a39ae7d344fd709f28e8600b4aa8c65c6b64bfe7fe36bd19b9350601f198516905b81811061070257509084600195949392106106ea575b505050811b01600455610210565b01515f1960f88460031b161c191690555f80806106dc565b929360206001819287860151815501950193016106c6565b60045f529091507f8a35acfbc15ff81a39ae7d344fd709f28e8600b4aa8c65c6b64bfe7fe36bd19b601f840160051c8101916020851061077e575b90601f859493920160051c01905b81811061077057506101e5565b5f8155849350600101610763565b9091508190610755565b634e487b7160e01b5f52602260045260245ffd5b91607f16916101d1565b015190505f80610199565b60035f90815293507fc2575a0e9e593c00f959f8c92f12db2869c3395a3b0502d05e2516446f71f85b91905b601f198416851061081e576001945083601f19811610610806575b505050811b016003556101ae565b01515f1960f88460031b161c191690555f80806107f8565b818101518355602094850194600190930192909101906107dd565b60035f529091507fc2575a0e9e593c00f959f8c92f12db2869c3395a3b0502d05e2516446f71f85b601f840160051c8101916020851061089d575b90601f859493920160051c01905b81811061088f5750610183565b5f8155849350600101610882565b9091508190610874565b91607f169161016f565b81518152602091820191016100ec565b602080916108ce84610917565b81520191019061008d565b604081019081106001600160401b0382111761048c57604052565b601f909101601f19168101906001600160401b0382119082101761048c57604052565b51906001600160a01b038216820361042f57565b6001600160401b03811161048c5760051b60200190565b80518210156104785760209160051b01019056fe6080604081815260049182361015610015575f80fd5b5f925f3560e01c91826301d22ccd1461265c5750816306fdde03146125135781630723c999146121295781630902f1ac146120db578163095ea7b314611fd657816318160ddd14611f9a5781631a68650214611f5857816322acb86714611edd57816323b872dd14611d88578163313ce56714611d4f57816336bf6e3914611cfd5781633dff5b7f14611c135781634aa0665214611bf85781635568081a146117e457816367a6c440146117a957816367e4ac2c1461171a5781636e81221c1461142657816370a08231146113c557816377aace1a146113725781637e04795a146112ad5781637fec8d381461127057816389ab3532146111e657816389afcb4414610ac35781638a77c8dc14610a7f57816395d89b4114610929578163a9059cbb146108da578163b2b55d70146106ae578163c2ee3a081461089d578163cdf456e11461084a578163cf8fa7641461078e578163d14ef46d14610710578163d66bd524146106ae578163dd62ed3e14610639578163de836ebd146101e7575063e73faa2d146101a3575f80fd5b346101e357817ffffffffffffffffffffffffffffffffffffffffffffffffffffffffffffffffc3601126101e3576020906101dc612e7e565b9051908152f35b5080fd5b9050823461063657827ffffffffffffffffffffffffffffffffffffffffffffffffffffffffffffffffc360112610636576102206126f2565b91602492833567ffffffffffffffff8111610632576102429036908401612865565b9273ffffffffffffffffffffffffffffffffffffffff9261026884600a54163314612a97565b6002549582610275612a3b565b97600798600754905181036105d657801561057a5785905b8989828410610542575050505081156104c057806104155750935b84156103b95790846102e28a979695949333865260209b868d978852808a83822054946102d58882612f56565b1698898252522054612c8c565b0361035e5750505f5b865481101561032c57808461030160019361290e565b50541661030e82896129d8565b51905f52600c8a52610324875f20918254612c99565b9055016102eb565b878386847f0f6798a560793a54c3bcfe86a93cde1e73087d944c0ea20544137d4121396885848351858152a251908152f35b90600b6064928a8851937f08c379a00000000000000000000000000000000000000000000000000000000085528401528201527f4d696e74204661696c65640000000000000000000000000000000000000000006044820152fd5b606483600d8460208d51937f08c379a00000000000000000000000000000000000000000000000000000000085528401528201527f4d696e74207174792069732030000000000000000000000000000000000000006044820152fd5b61041d612ea9565b5091821561043e57610438929161043391612bb0565b612bf0565b936102a8565b60848560268660208f51937f08c379a00000000000000000000000000000000000000000000000000000000085528401528201527f546f74616c206c6971756964697479206d75737420626520677265617465722060448201527f7468616e203000000000000000000000000000000000000000000000000000006064820152fd5b60848460228560208e51937f08c379a00000000000000000000000000000000000000000000000000000000085528401528201527f546f74616c2076616c7565206d7573742062652067726561746572207468616e60448201527f20300000000000000000000000000000000000000000000000000000000000006064820152fd5b9461056c6105729261056586809961055c6001989961290e565b505416926129d8565b51906130fd565b90612c99565b93019061028d565b60648560098660208f51937f08c379a00000000000000000000000000000000000000000000000000000000085528401528201527f4e6f2061737365747300000000000000000000000000000000000000000000006044820152fd5b60648560178660208f51937f08c379a00000000000000000000000000000000000000000000000000000000085528401528201527f496e76616c6964207265736572766573206c656e6774680000000000000000006044820152fd5b8380fd5b80fd5b5050346101e357807ffffffffffffffffffffffffffffffffffffffffffffffffffffffffffffffffc3601126101e3576020916106746126f2565b8261067d612715565b9273ffffffffffffffffffffffffffffffffffffffff8093168152600186522091165f528252805f20549051908152f35b5050346101e35760207ffffffffffffffffffffffffffffffffffffffffffffffffffffffffffffffffc3601126101e3578060209273ffffffffffffffffffffffffffffffffffffffff6107006126f2565b168152600c845220549051908152f35b839150346101e35760207ffffffffffffffffffffffffffffffffffffffffffffffffffffffffffffffffc3601126101e357359060075482101561063657506107589061290e565b508054600190910154915173ffffffffffffffffffffffffffffffffffffffff90911681526020810191909152604090f35b0390f35b905082346106365760207ffffffffffffffffffffffffffffffffffffffffffffffffffffffffffffffffc36011261063657508035906107cc612ea9565b80929150518310156107ed576020846107e585856129d8565b519051908152f35b60649060208551917f08c379a0000000000000000000000000000000000000000000000000000000008352820152601360248201527f496e76616c696420617373657420696e646578000000000000000000000000006044820152fd5b5050346101e357817ffffffffffffffffffffffffffffffffffffffffffffffffffffffffffffffffc3601126101e35760209073ffffffffffffffffffffffffffffffffffffffff600b54169051908152f35b5050346101e357817ffffffffffffffffffffffffffffffffffffffffffffffffffffffffffffffffc3601126101e3576020906009549051908152f35b5050346101e357807ffffffffffffffffffffffffffffffffffffffffffffffffffffffffffffffffc3601126101e3576020906109226109186126f2565b6024359033612ff0565b5160018152f35b8383346101e357817ffffffffffffffffffffffffffffffffffffffffffffffffffffffffffffffffc3601126101e35780519180938054916001908360011c9260018516948515610a75575b6020958686108114610a4957858952908115610a0757506001146109af575b61078a87876109a5828c038361280c565b51918291826126aa565b81529295507f8a35acfbc15ff81a39ae7d344fd709f28e8600b4aa8c65c6b64bfe7fe36bd19b5b8284106109f4575050508261078a946109a592820101948680610994565b80548685018801529286019281016109d6565b7fffffffffffffffffffffffffffffffffffffffffffffffffffffffffffffff00168887015250505050151560051b83010192506109a58261078a8680610994565b6024846022857f4e487b7100000000000000000000000000000000000000000000000000000000835252fd5b93607f1693610975565b5050346101e357817ffffffffffffffffffffffffffffffffffffffffffffffffffffffffffffffffc3601126101e357602090610aba612e28565b90519015158152f35b839150346101e3576020807ffffffffffffffffffffffffffffffffffffffffffffffffffffffffffffffffc3601126111e257610afe6126f2565b9273ffffffffffffffffffffffffffffffffffffffff93610b2485600a54163314612a97565b308252818352858220549081156111865760025495861561112a576007805493610b4d856129ec565b9461012c82027ffffffffffffffffffffffffffffffffffffffffffffffffffffffffffffffed4838204016110fe57612710610b8b91048093612c8c565b99875b82811061104657505050308652858752610bad898b8820541015612dab565b878784600654168c51928380927f3b19e84a0000000000000000000000000000000000000000000000000000000082525afa908115610ff1579188918a97969594938991610ffb575b5090610c5392918d5193849283927fa9059cbb000000000000000000000000000000000000000000000000000000009b8c855284016020909392919373ffffffffffffffffffffffffffffffffffffffff60408201951681520152565b03818a305af1908115610ff1578791610fd4575b5015610f7857308652858752610c82898b8820541015612dab565b3015610f4957305f525f8752895f2054898110610f04578990305f525f8952038a5f205588600254036002555f8a518a81527fddf252ad1be2c89b69c2b068fc378daa952ba7f163c4a11628f55a4df523b3ef893092a3855b8154811015610e89578783610cef8361290e565b5054168c51918280927f70a082310000000000000000000000000000000000000000000000000000000082528d309083015260249485915afa8015610e4c578990610e56575b610d4c9150610d4484896129d8565b511115612c27565b8b8986888d8c8c610da3610d6d8a8d610d648261290e565b505416966129d8565b51975197889687958694855284016020909392919373ffffffffffffffffffffffffffffffffffffffff60408201951681520152565b03925af1908115610e4c578991610e1f575b5015610dc45750600101610cdb565b8960156064928b8f51937f08c379a00000000000000000000000000000000000000000000000000000000085528401528201527f4173736574207472616e73666572206661696c656400000000000000000000006044820152fd5b610e3f91508a3d8c11610e45575b610e37818361280c565b810190612e10565b8d610db5565b503d610e2d565b8d513d8b823e3d90fd5b508981813d8311610e82575b610e6c818361280c565b81010312610e7e57610d4c9051610d35565b5f80fd5b503d610e62565b50918991868a89935f5b8754811015610ed4578085610ea960019361290e565b505416610eb6828c6129d8565b51905f52600c8852610ecc895f20918254612c8c565b905501610e93565b5084847fcc16f5dbb4873280815c1ee09dbd06736cffcc184412cf7a71a0fdb75d397ca59288519485521692a280f35b8a517fe450d38c00000000000000000000000000000000000000000000000000000000815230818b019081526020810192909252604082018b90529081906060010390fd5b602488878c51917f96c6fd1e000000000000000000000000000000000000000000000000000000008352820152fd5b606488888c51917f08c379a0000000000000000000000000000000000000000000000000000000008352820152601360248201527f466565207472616e73666572206661696c6564000000000000000000000000006044820152fd5b610feb9150883d8a11610e4557610e37818361280c565b8b610c67565b8b513d89823e3d90fd5b9280929495969798508391503d831161103f575b611019818361280c565b8101031261103b5751838116810361103b578895949392918891610c53610bf6565b8680fd5b503d61100f565b8c8a8c6024896110558661290e565b5054169351809481937f70a0823100000000000000000000000000000000000000000000000000000000835230908301525afa9081156110f4578392918e918c916110bd575b50926104336110ac92600195612bb0565b6110b6828b6129d8565b5201610b8e565b935050508a82813d83116110ed575b6110d6818361280c565b81010312610e7e5790518291908d9061043361109b565b503d6110cc565b8e513d8c823e3d90fd5b60248860118c7f4e487b7100000000000000000000000000000000000000000000000000000000835252fd5b606486868a51917f08c379a0000000000000000000000000000000000000000000000000000000008352820152600c60248201527f4e6f206c697175696469747900000000000000000000000000000000000000006044820152fd5b606485858951917f08c379a0000000000000000000000000000000000000000000000000000000008352820152601c60248201527f5368617265206d7573742062652067726561746572207468616e2030000000006044820152fd5b8280fd5b82843461063657807ffffffffffffffffffffffffffffffffffffffffffffffffffffffffffffffffc3601126106365761121e612ca6565b92908151938285938401908452825180915260608401926020809101955b82811061125757858061078a87878382036020850152612738565b865115158552958101958795509381019360010161123c565b5050346101e357817ffffffffffffffffffffffffffffffffffffffffffffffffffffffffffffffffc3601126101e3576020906008549051908152f35b919050346111e25760209160207ffffffffffffffffffffffffffffffffffffffffffffffffffffffffffffffffc3601126106325780359067ffffffffffffffff821161136e5761130091369101612865565b9073ffffffffffffffffffffffffffffffffffffffff9261132684600a54163314612a97565b845b60075481101561136a57808561133f60019361290e565b50541661134c82876129d8565b51908852600c8452611362858920918254612c8c565b905501611328565b8580f35b8480fd5b5050346101e357817ffffffffffffffffffffffffffffffffffffffffffffffffffffffffffffffffc3601126101e35760209073ffffffffffffffffffffffffffffffffffffffff600a54169051908152f35b5050346101e35760207ffffffffffffffffffffffffffffffffffffffffffffffffffffffffffffffffc3601126101e3578060209273ffffffffffffffffffffffffffffffffffffffff6114176126f2565b16815280845220549051908152f35b919050346111e25760807ffffffffffffffffffffffffffffffffffffffffffffffffffffffffffffffffc3601126111e2576114606126f2565b611468612715565b906044356064359173ffffffffffffffffffffffffffffffffffffffff9586841690818503610e7e576002600554146116f357600260055587861694888416938685146116965785156116395785886114c092612afc565b96868b52600c6020526114d8888a8d20541015612c27565b61012c80890290898204148915171561160d57906114fc6127108d9493048a612c8c565b9a600a541690813b1561063257838c9561156d8d51978896879586947fe3898e95000000000000000000000000000000000000000000000000000000008652850160409194939294606082019573ffffffffffffffffffffffffffffffffffffffff80921683521660208201520152565b03925af18015611603576115eb575b50928592828260209a946115de977fcd3829a3813dc3cdd188fd3d01dcf3268c16be2fdd2dd21d0665418816e46062888d8151908882526020820152a48352600c89526115cd848420918254612c99565b90558152600c875220918254612c99565b9055600160055551908152f35b6115f589916127cb565b6115ff575f61157c565b8780fd5b87513d8b823e3d90fd5b60248c6011867f4e487b7100000000000000000000000000000000000000000000000000000000835252fd5b60648360208b51917f08c379a0000000000000000000000000000000000000000000000000000000008352820152602060248201527f416d6f756e74206d7573742062652067726561746572207468616e207a65726f6044820152fd5b60648360208b51917f08c379a0000000000000000000000000000000000000000000000000000000008352820152601a60248201527f43616e6e6f742073776170207468652073616d6520746f6b656e0000000000006044820152fd5b86517f3ee5aeb5000000000000000000000000000000000000000000000000000000008152fd5b82843461063657807ffffffffffffffffffffffffffffffffffffffffffffffffffffffffffffffffc36011261063657600754611756816129ec565b915b8181106117745783516020808252819061078a908201866128c5565b8073ffffffffffffffffffffffffffffffffffffffff61179560019361290e565b5054166117a282866129d8565b5201611758565b5050346101e357817ffffffffffffffffffffffffffffffffffffffffffffffffffffffffffffffffc3601126101e3576020905161012c8152f35b905034610e7e576020907ffffffffffffffffffffffffffffffffffffffffffffffffffffffffffffffffc928284360112610e7e576118216126f2565b9161183261182d612e28565b612973565b6002546103e890818102918183041490151715611bcc576127109073ffffffffffffffffffffffffffffffffffffffff8095165f525f865204825f205410611b7157600794600754611883816129ec565b9161188d826129ec565b915f5b818110611b3857505085600a5416803b15610e7e575f8091868851809481937fb99735270000000000000000000000000000000000000000000000000000000083525af18015611b2e57611b19575b5090889186600654166008549088600b5416813b15611b155788517f0325192d00000000000000000000000000000000000000000000000000000000815260c0818a0152948694869485938793859361194e9161193f60c487018f6128c5565b91868303016024870152612738565b91306044850152306064850152608484015260a483015203925af18015611b0b57611af7575b505b8654811015611ab957846119898261290e565b50541684517f70a0823100000000000000000000000000000000000000000000000000000000815230858201528781602481855afa908115611aaf579088918b91611a7e575b5082611a3c938c52600c835281888d205588600a54168c89518096819582947fa9059cbb0000000000000000000000000000000000000000000000000000000084528c84016020909392919373ffffffffffffffffffffffffffffffffffffffff60408201951681520152565b03925af18015611a74579060019291611a57575b5001611976565b611a6d90883d8a11610e4557610e37818361280c565b505f611a50565b85513d8b823e3d90fd5b82819392503d8311611aa8575b611a95818361280c565b81010312610e7e57518790611a3c6119cf565b503d611a8b565b86513d8c823e3d90fd5b8351868152889033907f279b343370f587af7fb675ae7c8578e9c8abcc373236ad02c501a4771fe7a7b89080611af1818c01886128c5565b0390a280f35b611b00906127cb565b61103b57865f611974565b85513d84823e3d90fd5b8580fd5b611b25919299506127cb565b5f97905f6118df565b86513d5f823e3d90fd5b8088611b4560019361290e565b505416611b5282886129d8565b5281611b5d8261290e565b500154611b6a82876129d8565b5201611890565b8360649251917f08c379a0000000000000000000000000000000000000000000000000000000008352820152601160248201527f556e646572203525204c502073686172650000000000000000000000000000006044820152fd5b6011827f4e487b71000000000000000000000000000000000000000000000000000000005f525260245ffd5b8234610e7e576020906101dc611c0d3661276b565b91612afc565b905034610e7e57817ffffffffffffffffffffffffffffffffffffffffffffffffffffffffffffffffc360112610e7e5780359067ffffffffffffffff8211610e7e57611c6191369101612865565b906024358015158103610e7e5773ffffffffffffffffffffffffffffffffffffffff92611c9384600a54163314612a97565b5f5b600754811015611cfb578085611cac60019361290e565b505416611cb982856129d8565b51908515611cdf575f52600c602052611cd6865f20918254612c99565b90555b01611c95565b5f52600c602052611cf4865f20918254612c8c565b9055611cd9565b005b8234610e7e575f7ffffffffffffffffffffffffffffffffffffffffffffffffffffffffffffffffc360112610e7e5761078a611d37612ea9565b83929192519384938452806020850152830190612738565b8234610e7e575f7ffffffffffffffffffffffffffffffffffffffffffffffffffffffffffffffffc360112610e7e576020905160128152f35b905034610e7e57611d983661276b565b9273ffffffffffffffffffffffffffffffffffffffff83929316805f526001602052855f20335f52602052855f2054917fffffffffffffffffffffffffffffffffffffffffffffffffffffffffffffffff8303611dfe575b602087610922888888612ff0565b858310611e98578115611e69573315611e3a57505f90815260016020908152868220338352815290869020918590039091558290610922611df0565b6024905f8851917f94280d62000000000000000000000000000000000000000000000000000000008352820152fd5b6024905f8851917fe602df05000000000000000000000000000000000000000000000000000000008352820152fd5b86517ffb8f41b2000000000000000000000000000000000000000000000000000000008152339181019182526020820193909352604081018690528291506060010390fd5b8234610e7e575f7ffffffffffffffffffffffffffffffffffffffffffffffffffffffffffffffffc360112610e7e57600754611f18816129ec565b905f5b818110611f375783516020808252819061078a90820186612738565b806001611f44819361290e565b500154611f5182866129d8565b5201611f1b565b8234610e7e575f7ffffffffffffffffffffffffffffffffffffffffffffffffffffffffffffffffc360112610e7e57602090611f92612ea9565b509051908152f35b8234610e7e575f7ffffffffffffffffffffffffffffffffffffffffffffffffffffffffffffffffc360112610e7e576020906002549051908152f35b8234610e7e57807ffffffffffffffffffffffffffffffffffffffffffffffffffffffffffffffffc360112610e7e5761200d6126f2565b6024359033156120ac5773ffffffffffffffffffffffffffffffffffffffff1690811561207d5760209350335f5260018452825f20825f52845280835f205582519081527f8c5be1e5ebec7d5bd14f71427d1e84f3dd0314c0f7b2291e5b200ac8c7c3b925843392a35160018152f35b6024845f8551917f94280d62000000000000000000000000000000000000000000000000000000008352820152fd5b6024845f8551917fe602df05000000000000000000000000000000000000000000000000000000008352820152fd5b8234610e7e575f7ffffffffffffffffffffffffffffffffffffffffffffffffffffffffffffffffc360112610e7e5761078a90612116612a3b565b9051918291602083526020830190612738565b8234610e7e57602090817ffffffffffffffffffffffffffffffffffffffffffffffffffffffffffffffffc360112610e7e576121636126f2565b9161216f61182d612e28565b612177612ea9565b949060075490612186826129ec565b965f5b8381106124b7575050505f905f905b8082106124965750505f5b865181101561244f576121b681886129d8565b516121c4575b6001016121a3565b6122496121d182896129d8565b51856121dc8461290e565b5054600654600b548a517f248391ff00000000000000000000000000000000000000000000000000000000815273ffffffffffffffffffffffffffffffffffffffff9182168a82019081529382166020850152604084019590955293948592918516918391829160600190565b03915afa918215612445575f92612416575b5081156123ba578061226c8461290e565b505488517f23b872dd00000000000000000000000000000000000000000000000000000000815233888201908152306020820152604081018690529092899284928390036060019183915f91165af180156123935761239d575b506123368683836122d68761290e565b50541684600a54165f8a8d51968795869485937fa9059cbb00000000000000000000000000000000000000000000000000000000855284016020909392919373ffffffffffffffffffffffffffffffffffffffff60408201951681520152565b03925af180156123935790600194939291612376575b506123568361290e565b5054165f52600c865261236d875f20918254612c99565b905590506121bc565b61238c90883d8a11610e4557610e37818361280c565b508a61234c565b88513d5f823e3d90fd5b6123b390873d8911610e4557610e37818361280c565b50896122c6565b606485878951917f08c379a0000000000000000000000000000000000000000000000000000000008352820152601b60248201527f496e76616c696420746f6b656e20616d6f756e7420746f2061646400000000006044820152fd5b9091508581813d831161243e575b61242e818361280c565b81010312610e7e5751908961225b565b503d612424565b87513d5f823e3d90fd5b837fa95ad530009c6f929555e70a66aadbeae7231e45756c5b028ca77fbaa376e73e6124918988612480878c612f56565b519182918583523395830190612738565b0390a2005b90916124af6001916124a8858b6129d8565b5190612c99565b920190612198565b806127106124d360016124ca819561290e565b50015486612bb0565b04806124df83866129d8565b51106124ed575b5001612189565b612502906124fb83866129d8565b5190612c8c565b61250c828c6129d8565b528a6124e6565b8234610e7e575f7ffffffffffffffffffffffffffffffffffffffffffffffffffffffffffffffffc360112610e7e578051905f9260035460018160011c91600181168015612652575b602094858510821461262657508387529081156125e8575060011461258e575b5050506109a58261078a94038361280c565b60035f9081529295507fc2575a0e9e593c00f959f8c92f12db2869c3395a3b0502d05e2516446f71f85b5b8284106125d5575050508261078a946109a5928201019461257c565b80548685018801529286019281016125b9565b7fffffffffffffffffffffffffffffffffffffffffffffffffffffffffffffff0016868501525050151560051b83010192506109a58261078a61257c565b6022907f4e487b71000000000000000000000000000000000000000000000000000000005f525260245ffd5b92607f169261255c565b34610e7e575f7ffffffffffffffffffffffffffffffffffffffffffffffffffffffffffffffffc360112610e7e5760209073ffffffffffffffffffffffffffffffffffffffff600654168152f35b7fffffffffffffffffffffffffffffffffffffffffffffffffffffffffffffffe0601f602060409481855280519182918282880152018686015e5f8582860101520116010190565b6004359073ffffffffffffffffffffffffffffffffffffffff82168203610e7e57565b6024359073ffffffffffffffffffffffffffffffffffffffff82168203610e7e57565b9081518082526020808093019301915f5b828110612757575050505090565b835185529381019392810192600101612749565b7ffffffffffffffffffffffffffffffffffffffffffffffffffffffffffffffffc6060910112610e7e5773ffffffffffffffffffffffffffffffffffffffff906004358281168103610e7e57916024359081168103610e7e579060443590565b67ffffffffffffffff81116127df57604052565b7f4e487b71000000000000000000000000000000000000000000000000000000005f52604160045260245ffd5b90601f7fffffffffffffffffffffffffffffffffffffffffffffffffffffffffffffffe0910116810190811067ffffffffffffffff8211176127df57604052565b67ffffffffffffffff81116127df5760051b60200190565b9080601f83011215610e7e57602090823561287f8161284d565b9361288d604051958661280c565b81855260208086019260051b820101928311610e7e57602001905b8282106128b6575050505090565b813581529083019083016128a8565b9081518082526020808093019301915f5b8281106128e4575050505090565b835173ffffffffffffffffffffffffffffffffffffffff16855293810193928101926001016128d6565b6007548110156129465760075f5260011b7fa66cc928b5edb82af9bd49922954155ab7b0942694bea4ce44661d9a8736c68801905f90565b7f4e487b71000000000000000000000000000000000000000000000000000000005f52603260045260245ffd5b1561297a57565b60646040517f08c379a000000000000000000000000000000000000000000000000000000000815260206004820152601460248201527f526562616c616e6365206e6f74206e65656465640000000000000000000000006044820152fd5b80518210156129465760209160051b010190565b906129f68261284d565b612a03604051918261280c565b8281527fffffffffffffffffffffffffffffffffffffffffffffffffffffffffffffffe0612a31829461284d565b0190602036910137565b600754612a47816129ec565b905f5b818110612a5657505090565b8073ffffffffffffffffffffffffffffffffffffffff612a7760019361290e565b5054165f52600c60205260405f2054612a9082866129d8565b5201612a4a565b15612a9e57565b60646040517f08c379a000000000000000000000000000000000000000000000000000000000815260206004820152600e60248201527f4f6e6c79205065726970686572790000000000000000000000000000000000006044820152fd5b6006546040517f248391ff00000000000000000000000000000000000000000000000000000000815273ffffffffffffffffffffffffffffffffffffffff92831660048201529282166024840152604483019390935290916020918391168180606481015b03915afa908115612ba5575f91612b76575090565b90506020813d602011612b9d575b81612b916020938361280c565b81010312610e7e575190565b3d9150612b84565b6040513d5f823e3d90fd5b81810292918115918404141715612bc357565b7f4e487b71000000000000000000000000000000000000000000000000000000005f52601160045260245ffd5b8115612bfa570490565b7f4e487b71000000000000000000000000000000000000000000000000000000005f52601260045260245ffd5b15612c2e57565b60646040517f08c379a000000000000000000000000000000000000000000000000000000000815260206004820152601660248201527f496e73756666696369656e74204c6971756964697479000000000000000000006044820152fd5b91908203918211612bc357565b91908201809211612bc357565b612cae612ea9565b919060075490612cbd8261284d565b91612ccb604051938461280c565b8083527fffffffffffffffffffffffffffffffffffffffffffffffffffffffffffffffe0612cf88261284d565b01366020850137612d08816129ec565b945f5b828110612d1a57505050509190565b612d2481836129d8565b519061271091828102928184041490151715612bc357612d4685600193612bf0565b612d4f8261290e565b50830154839181811115612d845790612d6791612c8c565b612d71838b6129d8565b52612d7c82886129d8565b525b01612d0b565b90612d8f9250612c8c565b612d99828a6129d8565b525f612da582886129d8565b52612d7e565b15612db257565b60646040517f08c379a000000000000000000000000000000000000000000000000000000000815260206004820152601660248201527f496e73756666696369656e74206c6971756964697479000000000000000000006044820152fd5b90816020910312610e7e57518015158103610e7e5790565b612e30612ca6565b5f5b8151811015612e7757612e4581846129d8565b51151580612e62575b612e5a57600101612e32565b505050600190565b50612e6d81836129d8565b5160085410612e4e565b5050505f90565b612e86612ea9565b506002548015612ea357610433612ea09260095490612bb0565b90565b50505f90565b600754905f612eb7836129ec565b925f9073ffffffffffffffffffffffffffffffffffffffff80600b5416905b828410612ee557505050509190565b90919293612f2560019183612ef98861290e565b505416858103612f2f575f52600c60205260405f2054612f19888b6129d8565b525b6124a8878a6129d8565b9401929190612ed6565b80612f46915f52600c60205260405f2054906130fd565b612f50888b6129d8565b52612f1b565b73ffffffffffffffffffffffffffffffffffffffff16908115612fc0577fddf252ad1be2c89b69c2b068fc378daa952ba7f163c4a11628f55a4df523b3ef602082612fa45f94600254612c99565b60025584845283825260408420818154019055604051908152a3565b60246040517fec442f050000000000000000000000000000000000000000000000000000000081525f6004820152fd5b9173ffffffffffffffffffffffffffffffffffffffff8084169283156130cd5716928315612fc057825f525f60205260405f2054908282106130755750817fddf252ad1be2c89b69c2b068fc378daa952ba7f163c4a11628f55a4df523b3ef92602092855f525f84520360405f2055845f5260405f20818154019055604051908152a3565b6040517fe450d38c00000000000000000000000000000000000000000000000000000000815273ffffffffffffffffffffffffffffffffffffffff919091166004820152602481019190915260448101829052606490fd5b60246040517f96c6fd1e0000000000000000000000000000000000000000000000000000000081525f6004820152fd5b600654600b546040517f248391ff00000000000000000000000000000000000000000000000000000000815273ffffffffffffffffffffffffffffffffffffffff938416600482015290831660248201526044810193909352602091839116818060648101612b6156fea26469706673582212203a9626414828502096fc3cb7f2b77020c8c2ec1db712db4945a75f2afa5e61c164736f6c63430008190033a2646970667358221220fc8c8fd80f1de83bb1ac993c7c693e89f5fe0f8004b746ab2a334cf0a760a8df64736f6c63430008190033","opcodes":"PUSH1 0xA0 DUP1 PUSH1 0x40 MSTORE CALLVALUE PUSH1 0x29 JUMPI ADDRESS PUSH1 0x80 MSTORE PUSH2 0x5766 SWAP1 DUP2 PUSH2 0x2E DUP3 CODECOPY PUSH1 0x80 MLOAD DUP2 DUP2 DUP2 PUSH2 0xB99 ADD MSTORE PUSH2 0xCB2 ADD MSTORE RETURN JUMPDEST PUSH0 DUP1 REVERT INVALID PUSH1 0x80 PUSH1 0x40 DUP2 DUP2 MSTORE PUSH1 0x4 DUP1 CALLDATASIZE LT ISZERO PUSH2 0x14 JUMPI PUSH0 DUP1 REVERT JUMPDEST PUSH0 CALLDATALOAD PUSH1 0xE0 SHR SWAP3 DUP4 PUSH4 0x1D22CCD EQ PUSH2 0x16C8 JUMPI POP DUP3 PUSH4 0x2D5E94A7 EQ PUSH2 0xADD JUMPI DUP3 PUSH4 0x3069873B EQ PUSH2 0x1067 JUMPI DUP3 PUSH4 0x41D1DE97 EQ PUSH2 0xFFE JUMPI DUP3 PUSH4 0x4276B97B EQ PUSH2 0xF39 JUMPI DUP3 PUSH4 0x4F1EF286 EQ PUSH2 0xC0E JUMPI DUP3 PUSH4 0x52D1902D EQ PUSH2 0xB53 JUMPI DUP3 PUSH4 0x531AA03E EQ PUSH2 0xADD JUMPI DUP3 PUSH4 0x715018A6 EQ PUSH2 0xA21 JUMPI DUP3 PUSH4 0x77AACE1A EQ PUSH2 0x9CF JUMPI DUP3 PUSH4 0x89345EFB EQ PUSH2 0x983 JUMPI DUP3 PUSH4 0x8DA5CB5B EQ PUSH2 0x912 JUMPI DUP3 PUSH4 0x8F2248BC EQ PUSH2 0x793 JUMPI DUP3 PUSH4 0xAD3CB1CC EQ PUSH2 0x6A6 JUMPI DUP3 PUSH4 0xB4340E6A EQ PUSH2 0x4B6 JUMPI DUP3 PUSH4 0xB4AC6860 EQ PUSH2 0x47B JUMPI DUP3 PUSH4 0xC4D66DE8 EQ PUSH2 0x28A JUMPI POP DUP2 PUSH4 0xD88FF1F4 EQ PUSH2 0x1CB JUMPI POP DUP1 PUSH4 0xE9B31CFF EQ PUSH2 0x149 JUMPI PUSH4 0xF2FDE38B EQ PUSH2 0xFC JUMPI PUSH0 DUP1 REVERT JUMPDEST CALLVALUE PUSH2 0x145 JUMPI PUSH1 0x20 PUSH32 0xFFFFFFFFFFFFFFFFFFFFFFFFFFFFFFFFFFFFFFFFFFFFFFFFFFFFFFFFFFFFFFFC CALLDATASIZE ADD SLT PUSH2 0x145 JUMPI PUSH2 0x143 PUSH2 0x136 PUSH2 0x1716 JUMP JUMPDEST PUSH2 0x13E PUSH2 0x1AD3 JUMP JUMPDEST PUSH2 0x1A12 JUMP JUMPDEST STOP JUMPDEST PUSH0 DUP1 REVERT JUMPDEST CALLVALUE PUSH2 0x145 JUMPI PUSH1 0x20 PUSH32 0xFFFFFFFFFFFFFFFFFFFFFFFFFFFFFFFFFFFFFFFFFFFFFFFFFFFFFFFFFFFFFFFC CALLDATASIZE ADD SLT PUSH2 0x145 JUMPI PUSH20 0xFFFFFFFFFFFFFFFFFFFFFFFFFFFFFFFFFFFFFFFF PUSH2 0x195 PUSH2 0x1716 JUMP JUMPDEST PUSH2 0x19D PUSH2 0x1AD3 JUMP JUMPDEST AND PUSH32 0xFFFFFFFFFFFFFFFFFFFFFFFF0000000000000000000000000000000000000000 PUSH1 0x3 SLOAD AND OR PUSH1 0x3 SSTORE PUSH0 DUP1 RETURN JUMPDEST CALLVALUE PUSH2 0x145 JUMPI PUSH0 PUSH32 0xFFFFFFFFFFFFFFFFFFFFFFFFFFFFFFFFFFFFFFFFFFFFFFFFFFFFFFFFFFFFFFFC CALLDATASIZE ADD SLT PUSH2 0x145 JUMPI DUP1 MLOAD PUSH0 DUP1 SLOAD DUP1 DUP4 MSTORE DUP2 DUP1 MSTORE PUSH1 0x20 DUP1 DUP5 ADD SWAP5 SWAP3 PUSH32 0x290DECD9548B62A8D60345A988386FC84BA6BC95484008F6362F93160EF3E563 SWAP3 SWAP2 JUMPDEST DUP3 DUP3 LT PUSH2 0x25D JUMPI PUSH2 0x259 DUP7 DUP7 PUSH2 0x247 DUP3 DUP12 SUB DUP4 PUSH2 0x175C JUMP JUMPDEST MLOAD SWAP2 DUP3 SWAP2 PUSH1 0x20 DUP4 MSTORE PUSH1 0x20 DUP4 ADD SWAP1 PUSH2 0x1842 JUMP JUMPDEST SUB SWAP1 RETURN JUMPDEST DUP4 SLOAD PUSH20 0xFFFFFFFFFFFFFFFFFFFFFFFFFFFFFFFFFFFFFFFF AND DUP8 MSTORE SWAP6 DUP7 ADD SWAP6 PUSH1 0x1 SWAP4 DUP5 ADD SWAP4 SWAP1 SWAP2 ADD SWAP1 PUSH2 0x22F JUMP JUMPDEST CALLVALUE PUSH2 0x145 JUMPI PUSH1 0x20 PUSH32 0xFFFFFFFFFFFFFFFFFFFFFFFFFFFFFFFFFFFFFFFFFFFFFFFFFFFFFFFFFFFFFFFC CALLDATASIZE ADD SLT PUSH2 0x145 JUMPI PUSH2 0x2C1 PUSH2 0x1716 JUMP JUMPDEST SWAP1 PUSH32 0xF0C57E16840DF040F15088DC2F81FE391C3923BEC73E23A9662EFC9C229C6A00 SWAP2 DUP3 SLOAD PUSH1 0xFF DUP2 DUP7 SHR AND ISZERO SWAP3 PUSH8 0xFFFFFFFFFFFFFFFF DUP3 AND DUP1 ISZERO SWAP1 DUP2 PUSH2 0x473 JUMPI JUMPDEST PUSH1 0x1 EQ SWAP1 DUP2 PUSH2 0x469 JUMPI JUMPDEST ISZERO SWAP1 DUP2 PUSH2 0x460 JUMPI JUMPDEST POP PUSH2 0x439 JUMPI POP SWAP1 DUP2 DUP4 PUSH1 0x1 PUSH32 0xFFFFFFFFFFFFFFFFFFFFFFFFFFFFFFFFFFFFFFFFFFFFFFFF0000000000000000 PUSH20 0xFFFFFFFFFFFFFFFFFFFFFFFFFFFFFFFFFFFFFFFF SWAP6 AND OR DUP7 SSTORE PUSH2 0x404 JUMPI JUMPDEST POP PUSH2 0x368 PUSH2 0x1B43 JUMP JUMPDEST PUSH2 0x370 PUSH2 0x1B43 JUMP JUMPDEST PUSH2 0x378 PUSH2 0x1B43 JUMP JUMPDEST PUSH2 0x381 CALLER PUSH2 0x1A12 JUMP JUMPDEST AND PUSH32 0xFFFFFFFFFFFFFFFFFFFFFFFF0000000000000000000000000000000000000000 PUSH1 0x2 SLOAD AND OR PUSH1 0x2 SSTORE PUSH2 0x3B1 JUMPI STOP JUMPDEST PUSH32 0xC7F505B2F371AE2175EE4913F4499E1F2633A7B5936321EED1CDAEB6115181D2 SWAP2 DUP2 PUSH32 0xFFFFFFFFFFFFFFFFFFFFFFFFFFFFFFFFFFFFFFFFFFFFFF00FFFFFFFFFFFFFFFF PUSH1 0x20 SWAP4 SLOAD AND SWAP1 SSTORE MLOAD PUSH1 0x1 DUP2 MSTORE LOG1 STOP JUMPDEST PUSH32 0xFFFFFFFFFFFFFFFFFFFFFFFFFFFFFFFFFFFFFFFFFFFFFF000000000000000000 AND PUSH9 0x10000000000000001 OR DUP5 SSTORE DUP6 PUSH2 0x35F JUMP JUMPDEST DUP6 MLOAD PUSH32 0xF92EE8A900000000000000000000000000000000000000000000000000000000 DUP2 MSTORE REVERT JUMPDEST SWAP1 POP ISZERO DUP8 PUSH2 0x314 JUMP JUMPDEST ADDRESS EXTCODESIZE ISZERO SWAP2 POP PUSH2 0x30C JUMP JUMPDEST DUP6 SWAP2 POP PUSH2 0x302 JUMP JUMPDEST POP CALLVALUE PUSH2 0x145 JUMPI PUSH0 PUSH32 0xFFFFFFFFFFFFFFFFFFFFFFFFFFFFFFFFFFFFFFFFFFFFFFFFFFFFFFFFFFFFFFFC CALLDATASIZE ADD SLT PUSH2 0x145 JUMPI PUSH1 0x20 SWAP1 PUSH0 SLOAD SWAP1 MLOAD SWAP1 DUP2 MSTORE RETURN JUMPDEST CALLVALUE PUSH2 0x145 JUMPI PUSH1 0x20 PUSH32 0xFFFFFFFFFFFFFFFFFFFFFFFFFFFFFFFFFFFFFFFFFFFFFFFFFFFFFFFFFFFFFFFC CALLDATASIZE ADD SLT PUSH2 0x145 JUMPI PUSH2 0x4ED PUSH2 0x1716 JUMP JUMPDEST SWAP1 PUSH0 SLOAD SWAP2 PUSH2 0x4FA DUP4 PUSH2 0x19C3 JUMP JUMPDEST SWAP3 PUSH0 SWAP3 PUSH0 SWAP1 PUSH20 0xFFFFFFFFFFFFFFFFFFFFFFFFFFFFFFFFFFFFFFFF DUP1 SWAP5 AND JUMPDEST DUP4 DUP4 LT PUSH2 0x56D JUMPI JUMPDEST POP POP POP POP PUSH2 0x52D DUP3 PUSH2 0x19C3 JUMP JUMPDEST SWAP3 PUSH0 JUMPDEST DUP4 DUP2 LT PUSH2 0x54C JUMPI DUP6 MLOAD PUSH1 0x20 DUP1 DUP3 MSTORE DUP2 SWAP1 PUSH2 0x259 SWAP1 DUP3 ADD DUP9 PUSH2 0x1842 JUMP JUMPDEST DUP1 DUP4 PUSH2 0x55A PUSH1 0x1 SWAP4 DUP6 PUSH2 0x18C5 JUMP JUMPDEST MLOAD AND PUSH2 0x566 DUP3 DUP9 PUSH2 0x18C5 JUMP JUMPDEST MSTORE ADD PUSH2 0x530 JUMP JUMPDEST DUP5 PUSH2 0x57D DUP5 SWAP8 SWAP5 SWAP9 SWAP7 SWAP6 SWAP9 PUSH2 0x17E2 JUMP JUMPDEST SWAP1 SLOAD SWAP1 PUSH1 0x3 SHL SHR AND SWAP1 DUP9 MLOAD SWAP8 PUSH32 0x67E4AC2C00000000000000000000000000000000000000000000000000000000 DUP10 MSTORE PUSH0 DUP10 DUP6 DUP2 DUP7 GAS STATICCALL SWAP9 DUP10 ISZERO PUSH2 0x69C JUMPI PUSH0 SWAP10 PUSH2 0x678 JUMPI JUMPDEST POP PUSH0 JUMPDEST DUP10 MLOAD DUP2 LT ISZERO PUSH2 0x66A JUMPI DUP3 DUP8 PUSH2 0x5D9 DUP4 DUP14 PUSH2 0x18C5 JUMP JUMPDEST MLOAD AND EQ PUSH2 0x5E8 JUMPI PUSH1 0x1 ADD PUSH2 0x5C4 JUMP JUMPDEST POP SWAP4 SWAP2 SWAP1 SWAP5 SWAP6 SWAP8 POP PUSH2 0x5FA DUP3 DUP10 PUSH2 0x18C5 JUMP JUMPDEST MSTORE PUSH32 0xFFFFFFFFFFFFFFFFFFFFFFFFFFFFFFFFFFFFFFFFFFFFFFFFFFFFFFFFFFFFFFFF DUP2 EQ PUSH2 0x63E JUMPI PUSH1 0x1 ADD SWAP5 JUMPDEST DUP7 MLOAD DUP7 EQ PUSH2 0x639 JUMPI PUSH1 0x1 ADD SWAP2 SWAP3 PUSH2 0x518 JUMP JUMPDEST PUSH2 0x520 JUMP JUMPDEST PUSH1 0x11 DUP3 PUSH32 0x4E487B7100000000000000000000000000000000000000000000000000000000 PUSH0 MSTORE MSTORE PUSH1 0x24 PUSH0 REVERT JUMPDEST POP SWAP4 SWAP7 SWAP2 POP SWAP4 SWAP5 SWAP7 POP PUSH2 0x627 JUMP JUMPDEST PUSH2 0x695 SWAP2 SWAP10 POP RETURNDATASIZE DUP1 PUSH0 DUP4 RETURNDATACOPY PUSH2 0x68D DUP2 DUP4 PUSH2 0x175C JUMP JUMPDEST DUP2 ADD SWAP1 PUSH2 0x18D9 JUMP JUMPDEST SWAP8 DUP11 PUSH2 0x5C1 JUMP JUMPDEST DUP11 MLOAD RETURNDATASIZE PUSH0 DUP3 RETURNDATACOPY RETURNDATASIZE SWAP1 REVERT JUMPDEST SWAP1 CALLVALUE PUSH2 0x145 JUMPI PUSH0 PUSH32 0xFFFFFFFFFFFFFFFFFFFFFFFFFFFFFFFFFFFFFFFFFFFFFFFFFFFFFFFFFFFFFFFC CALLDATASIZE ADD SLT PUSH2 0x145 JUMPI DUP1 MLOAD SWAP2 DUP2 DUP4 ADD SWAP1 DUP4 DUP3 LT PUSH8 0xFFFFFFFFFFFFFFFF DUP4 GT OR PUSH2 0x767 JUMPI POP DUP2 MSTORE PUSH1 0x5 DUP3 MSTORE PUSH1 0x20 DUP3 ADD SWAP2 PUSH32 0x352E302E30000000000000000000000000000000000000000000000000000000 DUP4 MSTORE PUSH32 0xFFFFFFFFFFFFFFFFFFFFFFFFFFFFFFFFFFFFFFFFFFFFFFFFFFFFFFFFFFFFFFE0 PUSH1 0x1F DUP4 MLOAD SWAP5 DUP6 SWAP4 PUSH1 0x20 DUP6 MSTORE MLOAD DUP1 SWAP2 DUP2 PUSH1 0x20 DUP8 ADD MSTORE DUP7 DUP7 ADD MCOPY PUSH0 DUP6 DUP3 DUP7 ADD ADD MSTORE ADD AND DUP2 ADD SUB ADD SWAP1 RETURN JUMPDEST PUSH1 0x41 SWAP1 PUSH32 0x4E487B7100000000000000000000000000000000000000000000000000000000 PUSH0 MSTORE MSTORE PUSH1 0x24 PUSH0 REVERT JUMPDEST SWAP1 CALLVALUE PUSH2 0x145 JUMPI DUP1 PUSH32 0xFFFFFFFFFFFFFFFFFFFFFFFFFFFFFFFFFFFFFFFFFFFFFFFFFFFFFFFFFFFFFFFC CALLDATASIZE ADD SLT PUSH2 0x145 JUMPI PUSH2 0x7CA PUSH2 0x1716 JUMP JUMPDEST SWAP2 PUSH1 0x24 CALLDATALOAD SWAP3 PUSH8 0xFFFFFFFFFFFFFFFF SWAP1 DUP2 DUP6 AND DUP1 SWAP6 SUB PUSH2 0x145 JUMPI PUSH32 0xF0C57E16840DF040F15088DC2F81FE391C3923BEC73E23A9662EFC9C229C6A00 SWAP3 DUP4 SLOAD SWAP3 DUP7 PUSH1 0xFF DUP6 DUP9 SHR AND SWAP2 DUP3 ISZERO PUSH2 0x905 JUMPI JUMPDEST POP POP PUSH2 0x8DE JUMPI PUSH32 0xC7F505B2F371AE2175EE4913F4499E1F2633A7B5936321EED1CDAEB6115181D2 PUSH1 0x20 DUP8 DUP8 DUP8 PUSH32 0xFFFFFFFFFFFFFFFFFFFFFFFFFFFFFFFFFFFFFFFFFFFFFF00FFFFFFFFFFFFFFFF PUSH9 0x10000000000000000 DUP5 PUSH32 0xFFFFFFFFFFFFFFFFFFFFFFFFFFFFFFFFFFFFFFFFFFFFFF000000000000000000 DUP12 PUSH20 0xFFFFFFFFFFFFFFFFFFFFFFFFFFFFFFFFFFFFFFFF DUP13 AND PUSH32 0xFFFFFFFFFFFFFFFFFFFFFFFF0000000000000000000000000000000000000000 PUSH1 0x2 SLOAD AND OR PUSH1 0x2 SSTORE AND OR OR AND SWAP1 SSTORE MLOAD SWAP1 DUP2 MSTORE LOG1 STOP JUMPDEST DUP5 MLOAD PUSH32 0xF92EE8A900000000000000000000000000000000000000000000000000000000 DUP2 MSTORE REVERT JUMPDEST DUP6 AND LT ISZERO SWAP1 POP DUP7 DUP9 PUSH2 0x817 JUMP JUMPDEST POP CALLVALUE PUSH2 0x145 JUMPI PUSH0 PUSH32 0xFFFFFFFFFFFFFFFFFFFFFFFFFFFFFFFFFFFFFFFFFFFFFFFFFFFFFFFFFFFFFFFC CALLDATASIZE ADD SLT PUSH2 0x145 JUMPI PUSH1 0x20 SWAP1 PUSH20 0xFFFFFFFFFFFFFFFFFFFFFFFFFFFFFFFFFFFFFFFF PUSH32 0x9016D09D72D40FDAE2FD8CEAC6B6234C7706214FD39C1CD1E609A0528C199300 SLOAD AND SWAP1 MLOAD SWAP1 DUP2 MSTORE RETURN JUMPDEST POP CALLVALUE PUSH2 0x145 JUMPI PUSH1 0x20 PUSH32 0xFFFFFFFFFFFFFFFFFFFFFFFFFFFFFFFFFFFFFFFFFFFFFFFFFFFFFFFFFFFFFFFC CALLDATASIZE ADD SLT PUSH2 0x145 JUMPI PUSH1 0x20 SWAP1 PUSH2 0x9C6 PUSH2 0x9C1 PUSH2 0x1716 JUMP JUMPDEST PUSH2 0x1970 JUMP JUMPDEST SWAP1 MLOAD SWAP1 ISZERO ISZERO DUP2 MSTORE RETURN JUMPDEST POP CALLVALUE PUSH2 0x145 JUMPI PUSH0 PUSH32 0xFFFFFFFFFFFFFFFFFFFFFFFFFFFFFFFFFFFFFFFFFFFFFFFFFFFFFFFFFFFFFFFC CALLDATASIZE ADD SLT PUSH2 0x145 JUMPI PUSH1 0x20 SWAP1 PUSH20 0xFFFFFFFFFFFFFFFFFFFFFFFFFFFFFFFFFFFFFFFF PUSH1 0x3 SLOAD AND SWAP1 MLOAD SWAP1 DUP2 MSTORE RETURN JUMPDEST CALLVALUE PUSH2 0x145 JUMPI PUSH0 PUSH32 0xFFFFFFFFFFFFFFFFFFFFFFFFFFFFFFFFFFFFFFFFFFFFFFFFFFFFFFFFFFFFFFFC CALLDATASIZE ADD SLT PUSH2 0x145 JUMPI PUSH2 0xA57 PUSH2 0x1AD3 JUMP JUMPDEST PUSH0 PUSH20 0xFFFFFFFFFFFFFFFFFFFFFFFFFFFFFFFFFFFFFFFF PUSH32 0x9016D09D72D40FDAE2FD8CEAC6B6234C7706214FD39C1CD1E609A0528C199300 DUP1 SLOAD SWAP1 PUSH32 0xFFFFFFFFFFFFFFFFFFFFFFFF0000000000000000000000000000000000000000 DUP3 AND SWAP1 SSTORE AND PUSH32 0x8BE0079C531659141344CD1FD0A4F28419497F9722A3DAAFE3B4186F6B6457E0 DUP3 DUP1 LOG3 STOP JUMPDEST POP CALLVALUE PUSH2 0x145 JUMPI DUP1 PUSH32 0xFFFFFFFFFFFFFFFFFFFFFFFFFFFFFFFFFFFFFFFFFFFFFFFFFFFFFFFFFFFFFFFC CALLDATASIZE ADD SLT PUSH2 0x145 JUMPI PUSH1 0x20 SWAP1 PUSH2 0xB17 PUSH2 0x1716 JUMP JUMPDEST PUSH2 0xB1F PUSH2 0x1739 JUMP JUMPDEST PUSH20 0xFFFFFFFFFFFFFFFFFFFFFFFFFFFFFFFFFFFFFFFF DUP1 SWAP3 AND PUSH0 MSTORE PUSH1 0x1 DUP5 MSTORE DUP2 DUP4 PUSH0 KECCAK256 SWAP2 AND PUSH0 MSTORE DUP4 MSTORE DUP2 PUSH0 KECCAK256 SLOAD AND SWAP1 MLOAD SWAP1 DUP2 MSTORE RETURN JUMPDEST SWAP1 CALLVALUE PUSH2 0x145 JUMPI PUSH0 PUSH32 0xFFFFFFFFFFFFFFFFFFFFFFFFFFFFFFFFFFFFFFFFFFFFFFFFFFFFFFFFFFFFFFFC CALLDATASIZE ADD SLT PUSH2 0x145 JUMPI PUSH20 0xFFFFFFFFFFFFFFFFFFFFFFFFFFFFFFFFFFFFFFFF PUSH32 0x0 AND ADDRESS SUB PUSH2 0xBE8 JUMPI PUSH1 0x20 SWAP1 MLOAD PUSH32 0x360894A13BA1A3210667C828492DB98DCA3E2076CC3735A920A3CA505D382BBC DUP2 MSTORE RETURN JUMPDEST MLOAD PUSH32 0xE07C8DBA00000000000000000000000000000000000000000000000000000000 DUP2 MSTORE REVERT JUMPDEST DUP2 PUSH32 0xFFFFFFFFFFFFFFFFFFFFFFFFFFFFFFFFFFFFFFFFFFFFFFFFFFFFFFFFFFFFFFFC CALLDATASIZE ADD SLT PUSH2 0x145 JUMPI PUSH2 0xC3F PUSH2 0x1716 JUMP JUMPDEST PUSH1 0x24 SWAP3 DUP4 CALLDATALOAD PUSH8 0xFFFFFFFFFFFFFFFF DUP2 GT PUSH2 0x145 JUMPI CALLDATASIZE PUSH1 0x23 DUP3 ADD SLT ISZERO PUSH2 0x145 JUMPI DUP1 DUP5 ADD CALLDATALOAD PUSH2 0xC6B DUP2 PUSH2 0x188B JUMP JUMPDEST SWAP4 PUSH2 0xC78 DUP5 MLOAD SWAP6 DUP7 PUSH2 0x175C JUMP JUMPDEST DUP2 DUP6 MSTORE PUSH1 0x20 SWAP2 DUP3 DUP7 ADD SWAP4 CALLDATASIZE DUP10 DUP4 DUP4 ADD ADD GT PUSH2 0x145 JUMPI DUP2 PUSH0 SWAP3 DUP11 DUP7 SWAP4 ADD DUP8 CALLDATACOPY DUP8 ADD ADD MSTORE PUSH20 0xFFFFFFFFFFFFFFFFFFFFFFFFFFFFFFFFFFFFFFFF DUP1 PUSH32 0x0 AND DUP1 ADDRESS EQ SWAP1 DUP2 ISZERO PUSH2 0xF0B JUMPI JUMPDEST POP PUSH2 0xEE3 JUMPI PUSH2 0xCEA PUSH2 0x1AD3 JUMP JUMPDEST DUP2 AND SWAP5 DUP5 MLOAD PUSH32 0x52D1902D00000000000000000000000000000000000000000000000000000000 DUP2 MSTORE DUP4 DUP2 DUP10 DUP2 DUP11 GAS STATICCALL PUSH0 SWAP2 DUP2 PUSH2 0xEB4 JUMPI JUMPDEST POP PUSH2 0xD55 JUMPI POP POP POP POP POP MLOAD SWAP2 PUSH32 0x4C9C8CE300000000000000000000000000000000000000000000000000000000 DUP4 MSTORE DUP3 ADD MSTORE REVERT JUMPDEST SWAP1 DUP8 DUP8 DUP8 SWAP5 SWAP4 DUP12 PUSH32 0x360894A13BA1A3210667C828492DB98DCA3E2076CC3735A920A3CA505D382BBC SWAP2 DUP3 DUP2 SUB PUSH2 0xE87 JUMPI POP DUP6 EXTCODESIZE ISZERO PUSH2 0xE5A JUMPI POP DUP2 PUSH32 0xFFFFFFFFFFFFFFFFFFFFFFFF0000000000000000000000000000000000000000 DUP3 SLOAD AND OR SWAP1 SSTORE DUP5 MLOAD SWAP1 PUSH32 0xBC7CD75A20EE27FD9ADEBAB32041F755214DBC6BFFA90CC0225B39DA2E5C2D3B PUSH0 DUP1 LOG2 DUP3 MLOAD ISZERO PUSH2 0xE27 JUMPI POP POP PUSH0 PUSH2 0x143 SWAP6 DUP2 SWAP3 MLOAD SWAP1 DUP5 GAS DELEGATECALL SWAP2 RETURNDATASIZE ISZERO PUSH2 0xE1D JUMPI RETURNDATASIZE PUSH2 0xE0F PUSH2 0xE06 DUP3 PUSH2 0x188B JUMP JUMPDEST SWAP3 MLOAD SWAP3 DUP4 PUSH2 0x175C JUMP JUMPDEST DUP2 MSTORE PUSH0 DUP2 SWAP5 RETURNDATASIZE SWAP3 ADD RETURNDATACOPY PUSH2 0x1B9C JUMP JUMPDEST POP PUSH1 0x60 SWAP3 POP PUSH2 0x1B9C JUMP JUMPDEST SWAP5 POP SWAP5 POP POP POP POP CALLVALUE PUSH2 0xE35 JUMPI STOP JUMPDEST PUSH32 0xB398979F00000000000000000000000000000000000000000000000000000000 DUP2 MSTORE REVERT JUMPDEST DUP4 DUP4 DUP9 MLOAD SWAP2 PUSH32 0x4C9C8CE300000000000000000000000000000000000000000000000000000000 DUP4 MSTORE DUP3 ADD MSTORE REVERT JUMPDEST DUP5 SWAP1 DUP9 MLOAD SWAP2 PUSH32 0xAA1D49A400000000000000000000000000000000000000000000000000000000 DUP4 MSTORE DUP3 ADD MSTORE REVERT JUMPDEST SWAP1 SWAP2 POP DUP5 DUP2 DUP2 RETURNDATASIZE DUP4 GT PUSH2 0xEDC JUMPI JUMPDEST PUSH2 0xECC DUP2 DUP4 PUSH2 0x175C JUMP JUMPDEST DUP2 ADD SUB SLT PUSH2 0x145 JUMPI MLOAD SWAP1 DUP11 PUSH2 0xD21 JUMP JUMPDEST POP RETURNDATASIZE PUSH2 0xEC2 JUMP JUMPDEST DUP7 DUP6 MLOAD PUSH32 0xE07C8DBA00000000000000000000000000000000000000000000000000000000 DUP2 MSTORE REVERT JUMPDEST SWAP1 POP DUP2 PUSH32 0x360894A13BA1A3210667C828492DB98DCA3E2076CC3735A920A3CA505D382BBC SLOAD AND EQ ISZERO DUP10 PUSH2 0xCDD JUMP JUMPDEST CALLVALUE PUSH2 0x145 JUMPI PUSH1 0x20 PUSH32 0xFFFFFFFFFFFFFFFFFFFFFFFFFFFFFFFFFFFFFFFFFFFFFFFFFFFFFFFFFFFFFFFC CALLDATASIZE ADD SLT PUSH2 0x145 JUMPI PUSH0 PUSH20 0xFFFFFFFFFFFFFFFFFFFFFFFFFFFFFFFFFFFFFFFF PUSH2 0xF86 PUSH2 0x1716 JUMP JUMPDEST AND DUP4 MLOAD SWAP3 DUP4 DUP1 SWAP3 PUSH32 0x67E4AC2C00000000000000000000000000000000000000000000000000000000 DUP3 MSTORE GAS STATICCALL SWAP1 DUP2 ISZERO PUSH2 0xFF4 JUMPI SWAP2 PUSH2 0x259 SWAP3 PUSH0 SWAP3 PUSH2 0xFD8 JUMPI JUMPDEST POP MLOAD SWAP2 DUP3 SWAP2 PUSH1 0x20 DUP4 MSTORE PUSH1 0x20 DUP4 ADD SWAP1 PUSH2 0x1842 JUMP JUMPDEST PUSH2 0xFED SWAP2 SWAP3 POP RETURNDATASIZE DUP1 PUSH0 DUP4 RETURNDATACOPY PUSH2 0x68D DUP2 DUP4 PUSH2 0x175C JUMP JUMPDEST SWAP1 DUP4 PUSH2 0xFC5 JUMP JUMPDEST DUP3 MLOAD RETURNDATASIZE PUSH0 DUP3 RETURNDATACOPY RETURNDATASIZE SWAP1 REVERT JUMPDEST CALLVALUE PUSH2 0x145 JUMPI PUSH1 0x20 PUSH32 0xFFFFFFFFFFFFFFFFFFFFFFFFFFFFFFFFFFFFFFFFFFFFFFFFFFFFFFFFFFFFFFFC CALLDATASIZE ADD SLT PUSH2 0x145 JUMPI CALLDATALOAD SWAP1 PUSH0 SLOAD DUP3 LT ISZERO PUSH2 0x145 JUMPI PUSH20 0xFFFFFFFFFFFFFFFFFFFFFFFFFFFFFFFFFFFFFFFF PUSH2 0x1058 PUSH1 0x20 SWAP4 PUSH2 0x17E2 JUMP JUMPDEST SWAP3 SWAP1 SLOAD SWAP1 MLOAD SWAP3 PUSH1 0x3 SHL SHR AND DUP2 MSTORE RETURN JUMPDEST CALLVALUE PUSH2 0x145 JUMPI PUSH1 0x60 PUSH32 0xFFFFFFFFFFFFFFFFFFFFFFFFFFFFFFFFFFFFFFFFFFFFFFFFFFFFFFFFFFFFFFFC CALLDATASIZE ADD SLT PUSH2 0x145 JUMPI PUSH8 0xFFFFFFFFFFFFFFFF SWAP2 DUP2 CALLDATALOAD DUP4 DUP2 GT PUSH2 0x145 JUMPI CALLDATASIZE PUSH1 0x23 DUP3 ADD SLT ISZERO PUSH2 0x145 JUMPI DUP1 DUP4 ADD CALLDATALOAD SWAP4 PUSH1 0x24 PUSH2 0x10C4 DUP7 PUSH2 0x17CA JUMP JUMPDEST SWAP3 PUSH2 0x10D1 DUP6 MLOAD SWAP5 DUP6 PUSH2 0x175C JUMP JUMPDEST DUP7 DUP5 MSTORE PUSH1 0x20 SWAP7 DUP3 DUP9 DUP7 ADD SWAP2 PUSH1 0x5 SHL DUP4 ADD ADD SWAP2 CALLDATASIZE DUP4 GT PUSH2 0x145 JUMPI DUP4 ADD SWAP1 JUMPDEST DUP3 DUP3 LT PUSH2 0x169C JUMPI POP POP POP DUP1 CALLDATALOAD DUP3 DUP2 GT PUSH2 0x145 JUMPI CALLDATASIZE PUSH1 0x23 DUP3 ADD SLT ISZERO PUSH2 0x145 JUMPI DUP1 DUP7 ADD CALLDATALOAD SWAP1 PUSH2 0x111A DUP3 PUSH2 0x17CA JUMP JUMPDEST SWAP1 PUSH2 0x1127 DUP8 MLOAD SWAP3 DUP4 PUSH2 0x175C JUMP JUMPDEST DUP3 DUP3 MSTORE DUP9 DUP3 ADD SWAP3 PUSH1 0x5 SHL DUP2 ADD DUP5 ADD SWAP1 DUP4 CALLDATASIZE DUP4 GT PUSH2 0x145 JUMPI DUP6 DUP12 SWAP3 ADD SWAP1 JUMPDEST DUP4 DUP3 LT PUSH2 0x168D JUMPI POP POP POP POP PUSH1 0x44 SWAP2 PUSH20 0xFFFFFFFFFFFFFFFFFFFFFFFFFFFFFFFFFFFFFFFF SWAP5 DUP6 PUSH1 0x3 SLOAD AND SWAP1 DUP2 ISZERO PUSH2 0x1632 JUMPI PUSH1 0x1 SWAP5 DUP6 DUP10 MLOAD GT ISZERO PUSH2 0x15D8 JUMPI DUP9 MLOAD DUP6 MLOAD SUB PUSH2 0x1557 JUMPI PUSH0 DUP7 JUMPDEST PUSH2 0x141A JUMPI JUMPDEST POP POP DUP7 PUSH1 0x2 SLOAD AND SWAP4 DUP10 MLOAD SWAP5 PUSH2 0x3AF4 DUP1 DUP8 ADD SWAP4 DUP8 DUP6 LT SWAP1 DUP6 GT OR PUSH2 0x13EF JUMPI SWAP1 DUP7 SWAP6 SWAP5 SWAP4 SWAP3 SWAP2 PUSH2 0x1C3D DUP8 CODECOPY DUP3 MSTORE PUSH1 0xA0 DUP14 DUP4 ADD MSTORE DUP13 PUSH2 0x11D0 PUSH1 0xA0 DUP5 ADD DUP13 PUSH2 0x1842 JUMP JUMPDEST DUP4 DUP2 SUB DUP14 DUP6 ADD MSTORE SWAP2 MLOAD DUP1 DUP4 MSTORE SWAP2 ADD SWAP4 SWAP1 PUSH0 DUP9 DUP16 JUMPDEST DUP4 DUP4 LT PUSH2 0x13D8 JUMPI POP POP POP PUSH1 0x44 CALLDATALOAD PUSH1 0x60 DUP5 ADD MSTORE POP POP PUSH1 0x80 ADD MSTORE SUB SWAP1 PUSH0 CREATE DUP1 ISZERO PUSH2 0x13CE JUMPI DUP4 AND SWAP6 PUSH0 SLOAD PUSH9 0x10000000000000000 DUP2 LT ISZERO PUSH2 0x13A3 JUMPI SWAP1 PUSH2 0x1230 DUP3 DUP5 DUP11 SWAP9 SWAP8 SWAP7 SWAP6 SWAP5 ADD PUSH0 SSTORE PUSH2 0x17E2 JUMP JUMPDEST DUP2 SLOAD SWAP1 PUSH1 0x3 SHL SWAP1 DUP7 DUP10 DUP4 SHL SWAP3 SHL NOT AND OR SWAP1 SSTORE DUP2 PUSH0 SWAP1 JUMPDEST PUSH2 0x1298 JUMPI JUMPDEST POP POP POP POP PUSH32 0x93DE7D9DE9F3E05BA87A0170FCBB71AF623439CAF5E5079587B9D38C5DA9B0D1 SWAP2 PUSH2 0x128A SWAP2 PUSH1 0x2 SLOAD AND DUP6 MLOAD SWAP3 DUP4 SWAP3 DUP8 DUP5 MSTORE DUP8 DUP5 ADD SWAP1 PUSH2 0x1842 JUMP JUMPDEST SWAP1 DUP9 DUP4 ADD MSTORE SUB SWAP1 LOG2 MLOAD SWAP1 DUP2 MSTORE RETURN JUMPDEST SWAP1 SWAP2 SWAP3 SWAP4 SWAP5 SWAP6 DUP7 MLOAD DUP3 LT ISZERO PUSH2 0x139B JUMPI POP DUP3 DUP2 ADD DUP1 DUP3 GT PUSH2 0x1370 JUMPI DUP4 SWAP3 SWAP2 SWAP1 DUP4 JUMPDEST PUSH2 0x12CA JUMPI JUMPDEST POP DUP3 ADD DUP9 SWAP7 SWAP6 SWAP5 SWAP4 PUSH2 0x1246 JUMP JUMPDEST DUP8 SWAP4 SWAP2 SWAP3 SWAP4 MLOAD DUP2 LT ISZERO PUSH2 0x1367 JUMPI DUP2 SWAP1 DUP8 PUSH2 0x12E4 DUP6 DUP12 PUSH2 0x18C5 JUMP JUMPDEST MLOAD AND PUSH0 MSTORE DUP2 DUP13 MSTORE DUP10 PUSH0 KECCAK256 DUP9 PUSH2 0x12F9 DUP4 DUP13 PUSH2 0x18C5 JUMP JUMPDEST MLOAD AND PUSH0 MSTORE DUP13 MSTORE DUP10 PUSH0 KECCAK256 PUSH32 0xFFFFFFFFFFFFFFFFFFFFFFFF0000000000000000000000000000000000000000 SWAP1 DUP13 DUP3 DUP3 SLOAD AND OR SWAP1 SSTORE DUP9 PUSH2 0x1337 DUP4 DUP13 PUSH2 0x18C5 JUMP JUMPDEST MLOAD AND PUSH0 MSTORE DUP3 DUP14 MSTORE DUP11 PUSH0 KECCAK256 DUP10 PUSH2 0x134C DUP8 DUP14 PUSH2 0x18C5 JUMP JUMPDEST MLOAD AND PUSH0 MSTORE DUP14 MSTORE DUP12 DUP12 PUSH0 KECCAK256 SWAP2 DUP3 SLOAD AND OR SWAP1 SSTORE ADD DUP2 SWAP4 SWAP3 SWAP2 PUSH2 0x12B8 JUMP JUMPDEST SWAP3 SWAP2 SWAP1 SWAP3 PUSH2 0x12BD JUMP JUMPDEST DUP5 PUSH1 0x11 DUP5 PUSH32 0x4E487B7100000000000000000000000000000000000000000000000000000000 PUSH0 MSTORE MSTORE PUSH0 REVERT JUMPDEST SWAP6 SWAP5 SWAP4 PUSH2 0x124B JUMP JUMPDEST DUP4 PUSH1 0x41 DUP4 PUSH32 0x4E487B7100000000000000000000000000000000000000000000000000000000 PUSH0 MSTORE MSTORE PUSH0 REVERT JUMPDEST DUP6 MLOAD RETURNDATASIZE PUSH0 DUP3 RETURNDATACOPY RETURNDATASIZE SWAP1 REVERT JUMPDEST DUP5 MLOAD DUP9 MSTORE DUP10 SWAP9 POP SWAP7 DUP8 ADD SWAP7 SWAP1 SWAP4 ADD SWAP3 ADD DUP9 DUP16 PUSH2 0x11E4 JUMP JUMPDEST DUP9 PUSH1 0x41 DUP15 PUSH32 0x4E487B7100000000000000000000000000000000000000000000000000000000 PUSH0 MSTORE MSTORE PUSH0 REVERT JUMPDEST DUP10 MLOAD DUP2 LT ISZERO PUSH2 0x1552 JUMPI DUP7 DUP2 ADD DUP1 DUP3 GT PUSH2 0x1527 JUMPI DUP8 SWAP3 SWAP2 SWAP1 DUP12 DUP16 DUP13 DUP16 DUP8 JUMPDEST PUSH2 0x144A JUMPI JUMPDEST POP POP POP POP POP DUP3 ADD SWAP1 SWAP2 PUSH2 0x118C JUMP JUMPDEST SWAP1 SWAP2 SWAP3 SWAP4 SWAP5 SWAP6 SWAP7 DUP5 MLOAD DUP7 LT ISZERO PUSH2 0x151A JUMPI POP DUP5 PUSH2 0x147A SWAP2 DUP4 PUSH2 0x146B DUP10 DUP9 PUSH2 0x18C5 JUMP JUMPDEST MLOAD AND PUSH0 MSTORE DUP14 DUP6 MSTORE PUSH0 KECCAK256 SWAP5 PUSH2 0x18C5 JUMP JUMPDEST MLOAD AND PUSH0 MSTORE MSTORE DUP10 DUP13 PUSH0 KECCAK256 SLOAD AND PUSH2 0x1499 JUMPI DUP8 SWAP3 SWAP2 SWAP1 DUP4 ADD DUP12 DUP16 DUP13 DUP16 DUP8 PUSH2 0x1437 JUMP JUMPDEST DUP12 MLOAD PUSH32 0x8C379A000000000000000000000000000000000000000000000000000000000 DUP2 MSTORE DUP1 DUP15 ADD DUP16 SWAP1 MSTORE PUSH1 0x21 DUP2 DUP12 ADD MSTORE PUSH32 0x506F6F6C20616C72656164792065786973747320666F72207468697320706169 DUP2 DUP6 ADD MSTORE PUSH32 0x7200000000000000000000000000000000000000000000000000000000000000 PUSH1 0x64 DUP3 ADD MSTORE PUSH1 0x84 SWAP1 REVERT JUMPDEST SWAP7 SWAP6 SWAP5 POP SWAP1 DUP4 SWAP3 SWAP2 PUSH2 0x143C JUMP JUMPDEST DUP9 PUSH1 0x11 DUP15 PUSH32 0x4E487B7100000000000000000000000000000000000000000000000000000000 PUSH0 MSTORE MSTORE PUSH0 REVERT JUMPDEST PUSH2 0x1191 JUMP JUMPDEST PUSH1 0x84 DUP12 PUSH1 0x22 DUP10 DUP16 DUP15 MLOAD SWAP4 PUSH32 0x8C379A000000000000000000000000000000000000000000000000000000000 DUP6 MSTORE DUP5 ADD MSTORE DUP3 ADD MSTORE PUSH32 0x41737365747320616E642077656967687473206C656E677468206D69736D6174 PUSH1 0x44 DUP3 ADD MSTORE PUSH32 0x6368000000000000000000000000000000000000000000000000000000000000 PUSH1 0x64 DUP3 ADD MSTORE REVERT JUMPDEST PUSH1 0x64 DUP12 DUP14 DUP10 DUP2 DUP15 MLOAD SWAP4 PUSH32 0x8C379A000000000000000000000000000000000000000000000000000000000 DUP6 MSTORE DUP5 ADD MSTORE DUP3 ADD MSTORE PUSH32 0x4174206C656173742074776F2061737365747320617265207265717569726564 PUSH1 0x44 DUP3 ADD MSTORE REVERT JUMPDEST PUSH1 0x64 DUP11 PUSH1 0x11 DUP9 DUP15 DUP14 MLOAD SWAP4 PUSH32 0x8C379A000000000000000000000000000000000000000000000000000000000 DUP6 MSTORE DUP5 ADD MSTORE DUP3 ADD MSTORE PUSH32 0x506572697068657279206E6F7420736574000000000000000000000000000000 PUSH1 0x44 DUP3 ADD MSTORE REVERT JUMPDEST DUP2 CALLDATALOAD DUP2 MSTORE SWAP1 DUP3 ADD SWAP1 DUP3 ADD PUSH2 0x1144 JUMP JUMPDEST DUP2 CALLDATALOAD PUSH20 0xFFFFFFFFFFFFFFFFFFFFFFFFFFFFFFFFFFFFFFFF DUP2 AND DUP2 SUB PUSH2 0x145 JUMPI DUP2 MSTORE SWAP1 DUP9 ADD SWAP1 DUP9 ADD PUSH2 0x10EE JUMP JUMPDEST CALLVALUE PUSH2 0x145 JUMPI PUSH0 PUSH32 0xFFFFFFFFFFFFFFFFFFFFFFFFFFFFFFFFFFFFFFFFFFFFFFFFFFFFFFFFFFFFFFFC CALLDATASIZE ADD SLT PUSH2 0x145 JUMPI PUSH1 0x20 SWAP1 PUSH20 0xFFFFFFFFFFFFFFFFFFFFFFFFFFFFFFFFFFFFFFFF PUSH1 0x2 SLOAD AND DUP2 MSTORE RETURN JUMPDEST PUSH1 0x4 CALLDATALOAD SWAP1 PUSH20 0xFFFFFFFFFFFFFFFFFFFFFFFFFFFFFFFFFFFFFFFF DUP3 AND DUP3 SUB PUSH2 0x145 JUMPI JUMP JUMPDEST PUSH1 0x24 CALLDATALOAD SWAP1 PUSH20 0xFFFFFFFFFFFFFFFFFFFFFFFFFFFFFFFFFFFFFFFF DUP3 AND DUP3 SUB PUSH2 0x145 JUMPI JUMP JUMPDEST SWAP1 PUSH1 0x1F PUSH32 0xFFFFFFFFFFFFFFFFFFFFFFFFFFFFFFFFFFFFFFFFFFFFFFFFFFFFFFFFFFFFFFE0 SWAP2 ADD AND DUP2 ADD SWAP1 DUP2 LT PUSH8 0xFFFFFFFFFFFFFFFF DUP3 GT OR PUSH2 0x179D JUMPI PUSH1 0x40 MSTORE JUMP JUMPDEST PUSH32 0x4E487B7100000000000000000000000000000000000000000000000000000000 PUSH0 MSTORE PUSH1 0x41 PUSH1 0x4 MSTORE PUSH1 0x24 PUSH0 REVERT JUMPDEST PUSH8 0xFFFFFFFFFFFFFFFF DUP2 GT PUSH2 0x179D JUMPI PUSH1 0x5 SHL PUSH1 0x20 ADD SWAP1 JUMP JUMPDEST PUSH0 SLOAD DUP2 LT ISZERO PUSH2 0x1815 JUMPI PUSH0 DUP1 MSTORE PUSH32 0x290DECD9548B62A8D60345A988386FC84BA6BC95484008F6362F93160EF3E563 ADD SWAP1 PUSH0 SWAP1 JUMP JUMPDEST PUSH32 0x4E487B7100000000000000000000000000000000000000000000000000000000 PUSH0 MSTORE PUSH1 0x32 PUSH1 0x4 MSTORE PUSH1 0x24 PUSH0 REVERT JUMPDEST SWAP1 DUP2 MLOAD DUP1 DUP3 MSTORE PUSH1 0x20 DUP1 DUP1 SWAP4 ADD SWAP4 ADD SWAP2 PUSH0 JUMPDEST DUP3 DUP2 LT PUSH2 0x1861 JUMPI POP POP POP POP SWAP1 JUMP JUMPDEST DUP4 MLOAD PUSH20 0xFFFFFFFFFFFFFFFFFFFFFFFFFFFFFFFFFFFFFFFF AND DUP6 MSTORE SWAP4 DUP2 ADD SWAP4 SWAP3 DUP2 ADD SWAP3 PUSH1 0x1 ADD PUSH2 0x1853 JUMP JUMPDEST PUSH8 0xFFFFFFFFFFFFFFFF DUP2 GT PUSH2 0x179D JUMPI PUSH1 0x1F ADD PUSH32 0xFFFFFFFFFFFFFFFFFFFFFFFFFFFFFFFFFFFFFFFFFFFFFFFFFFFFFFFFFFFFFFE0 AND PUSH1 0x20 ADD SWAP1 JUMP JUMPDEST DUP1 MLOAD DUP3 LT ISZERO PUSH2 0x1815 JUMPI PUSH1 0x20 SWAP2 PUSH1 0x5 SHL ADD ADD SWAP1 JUMP JUMPDEST PUSH1 0x20 SWAP1 DUP2 DUP2 DUP5 SUB SLT PUSH2 0x145 JUMPI DUP1 MLOAD SWAP1 PUSH8 0xFFFFFFFFFFFFFFFF DUP3 GT PUSH2 0x145 JUMPI ADD SWAP2 DUP1 PUSH1 0x1F DUP5 ADD SLT ISZERO PUSH2 0x145 JUMPI DUP3 MLOAD PUSH2 0x190F DUP2 PUSH2 0x17CA JUMP JUMPDEST SWAP4 PUSH2 0x191D PUSH1 0x40 MLOAD SWAP6 DUP7 PUSH2 0x175C JUMP JUMPDEST DUP2 DUP6 MSTORE DUP4 DUP1 DUP7 ADD SWAP3 PUSH1 0x5 SHL DUP3 ADD ADD SWAP3 DUP4 GT PUSH2 0x145 JUMPI DUP4 ADD SWAP1 JUMPDEST DUP3 DUP3 LT PUSH2 0x1944 JUMPI POP POP POP POP SWAP1 JUMP JUMPDEST DUP2 MLOAD PUSH20 0xFFFFFFFFFFFFFFFFFFFFFFFFFFFFFFFFFFFFFFFF DUP2 AND DUP2 SUB PUSH2 0x145 JUMPI DUP2 MSTORE SWAP1 DUP4 ADD SWAP1 DUP4 ADD PUSH2 0x1936 JUMP JUMPDEST PUSH0 SWAP1 PUSH0 SLOAD SWAP2 JUMPDEST DUP3 DUP2 LT PUSH2 0x1984 JUMPI POP POP POP PUSH0 SWAP1 JUMP JUMPDEST PUSH2 0x198D DUP2 PUSH2 0x17E2 JUMP JUMPDEST SWAP1 PUSH20 0xFFFFFFFFFFFFFFFFFFFFFFFFFFFFFFFFFFFFFFFF SWAP1 SLOAD DUP2 DUP6 AND SWAP3 PUSH1 0x3 SHL SHR AND EQ PUSH2 0x19BB JUMPI PUSH1 0x1 ADD PUSH2 0x1976 JUMP JUMPDEST POP POP POP PUSH1 0x1 SWAP1 JUMP JUMPDEST SWAP1 PUSH2 0x19CD DUP3 PUSH2 0x17CA JUMP JUMPDEST PUSH2 0x19DA PUSH1 0x40 MLOAD SWAP2 DUP3 PUSH2 0x175C JUMP JUMPDEST DUP3 DUP2 MSTORE PUSH32 0xFFFFFFFFFFFFFFFFFFFFFFFFFFFFFFFFFFFFFFFFFFFFFFFFFFFFFFFFFFFFFFE0 PUSH2 0x1A08 DUP3 SWAP5 PUSH2 0x17CA JUMP JUMPDEST ADD SWAP1 PUSH1 0x20 CALLDATASIZE SWAP2 ADD CALLDATACOPY JUMP JUMPDEST PUSH20 0xFFFFFFFFFFFFFFFFFFFFFFFFFFFFFFFFFFFFFFFF DUP1 SWAP2 AND SWAP1 DUP2 ISZERO PUSH2 0x1AA3 JUMPI PUSH32 0x9016D09D72D40FDAE2FD8CEAC6B6234C7706214FD39C1CD1E609A0528C199300 DUP1 SLOAD SWAP1 DUP4 PUSH32 0xFFFFFFFFFFFFFFFFFFFFFFFF0000000000000000000000000000000000000000 DUP4 AND OR SWAP1 SSTORE AND PUSH32 0x8BE0079C531659141344CD1FD0A4F28419497F9722A3DAAFE3B4186F6B6457E0 PUSH0 DUP1 LOG3 JUMP JUMPDEST PUSH1 0x24 PUSH1 0x40 MLOAD PUSH32 0x1E4FBDF700000000000000000000000000000000000000000000000000000000 DUP2 MSTORE PUSH0 PUSH1 0x4 DUP3 ADD MSTORE REVERT JUMPDEST PUSH20 0xFFFFFFFFFFFFFFFFFFFFFFFFFFFFFFFFFFFFFFFF PUSH32 0x9016D09D72D40FDAE2FD8CEAC6B6234C7706214FD39C1CD1E609A0528C199300 SLOAD AND CALLER SUB PUSH2 0x1B13 JUMPI JUMP JUMPDEST PUSH1 0x24 PUSH1 0x40 MLOAD PUSH32 0x118CDAA700000000000000000000000000000000000000000000000000000000 DUP2 MSTORE CALLER PUSH1 0x4 DUP3 ADD MSTORE REVERT JUMPDEST PUSH1 0xFF PUSH32 0xF0C57E16840DF040F15088DC2F81FE391C3923BEC73E23A9662EFC9C229C6A00 SLOAD PUSH1 0x40 SHR AND ISZERO PUSH2 0x1B72 JUMPI JUMP JUMPDEST PUSH1 0x4 PUSH1 0x40 MLOAD PUSH32 0xD7E6BCF800000000000000000000000000000000000000000000000000000000 DUP2 MSTORE REVERT JUMPDEST SWAP1 PUSH2 0x1BDB JUMPI POP DUP1 MLOAD ISZERO PUSH2 0x1BB1 JUMPI DUP1 MLOAD SWAP1 PUSH1 0x20 ADD REVERT JUMPDEST PUSH1 0x4 PUSH1 0x40 MLOAD PUSH32 0x1425EA4200000000000000000000000000000000000000000000000000000000 DUP2 MSTORE REVERT JUMPDEST DUP2 MLOAD ISZERO DUP1 PUSH2 0x1C33 JUMPI JUMPDEST PUSH2 0x1BEC JUMPI POP SWAP1 JUMP JUMPDEST PUSH1 0x24 SWAP1 PUSH20 0xFFFFFFFFFFFFFFFFFFFFFFFFFFFFFFFFFFFFFFFF PUSH1 0x40 MLOAD SWAP2 PUSH32 0x9996B31500000000000000000000000000000000000000000000000000000000 DUP4 MSTORE AND PUSH1 0x4 DUP3 ADD MSTORE REVERT JUMPDEST POP DUP1 EXTCODESIZE ISZERO PUSH2 0x1BE4 JUMP INVALID PUSH1 0x80 DUP1 PUSH1 0x40 MSTORE CALLVALUE PUSH2 0x42F JUMPI PUSH2 0x3AF4 DUP1 CODESIZE SUB DUP1 SWAP2 PUSH2 0x1C DUP3 DUP6 PUSH2 0x8F4 JUMP JUMPDEST DUP4 CODECOPY DUP2 ADD PUSH1 0xA0 DUP3 DUP3 SUB SLT PUSH2 0x42F JUMPI PUSH2 0x33 DUP3 PUSH2 0x917 JUMP JUMPDEST PUSH1 0x20 DUP4 ADD MLOAD SWAP1 SWAP2 SWAP1 PUSH1 0x1 PUSH1 0x1 PUSH1 0x40 SHL SUB DUP2 GT PUSH2 0x42F JUMPI DUP4 ADD SWAP2 DUP2 PUSH1 0x1F DUP5 ADD SLT ISZERO PUSH2 0x42F JUMPI DUP3 MLOAD SWAP3 PUSH2 0x63 DUP5 PUSH2 0x92B JUMP JUMPDEST SWAP4 PUSH2 0x71 PUSH1 0x40 MLOAD SWAP6 DUP7 PUSH2 0x8F4 JUMP JUMPDEST DUP1 DUP6 MSTORE PUSH1 0x20 DUP1 DUP7 ADD SWAP2 PUSH1 0x5 SHL DUP4 ADD ADD SWAP2 DUP5 DUP4 GT PUSH2 0x42F JUMPI PUSH1 0x20 ADD SWAP1 JUMPDEST DUP3 DUP3 LT PUSH2 0x8C1 JUMPI POP POP POP PUSH1 0x40 DUP5 ADD MLOAD PUSH1 0x1 PUSH1 0x1 PUSH1 0x40 SHL SUB DUP2 GT PUSH2 0x42F JUMPI DUP5 ADD SWAP2 DUP1 PUSH1 0x1F DUP5 ADD SLT ISZERO PUSH2 0x42F JUMPI DUP3 MLOAD PUSH2 0xC3 DUP2 PUSH2 0x92B JUMP JUMPDEST SWAP4 PUSH2 0xD1 PUSH1 0x40 MLOAD SWAP6 DUP7 PUSH2 0x8F4 JUMP JUMPDEST DUP2 DUP6 MSTORE PUSH1 0x20 DUP1 DUP7 ADD SWAP3 PUSH1 0x5 SHL DUP3 ADD ADD SWAP3 DUP4 GT PUSH2 0x42F JUMPI PUSH1 0x20 ADD SWAP1 JUMPDEST DUP3 DUP3 LT PUSH2 0x8B1 JUMPI POP POP POP PUSH2 0x107 PUSH1 0x80 PUSH1 0x60 DUP7 ADD MLOAD SWAP6 ADD PUSH2 0x917 JUMP JUMPDEST PUSH1 0x40 MLOAD PUSH2 0x113 DUP2 PUSH2 0x8D9 JUMP JUMPDEST PUSH1 0x9 DUP2 MSTORE PUSH9 0x42616C756E69204C5 PUSH1 0xBC SHL PUSH1 0x20 DUP3 ADD MSTORE PUSH1 0x40 MLOAD SWAP1 PUSH2 0x136 DUP3 PUSH2 0x8D9 JUMP JUMPDEST PUSH1 0x9 DUP3 MSTORE PUSH9 0x42414C554E492D4C5 PUSH1 0xBC SHL PUSH1 0x20 DUP4 ADD MSTORE DUP1 MLOAD SWAP1 PUSH1 0x1 PUSH1 0x1 PUSH1 0x40 SHL SUB DUP3 GT PUSH2 0x48C JUMPI PUSH1 0x3 SLOAD SWAP1 PUSH1 0x1 DUP3 DUP2 SHR SWAP3 AND DUP1 ISZERO PUSH2 0x8A7 JUMPI JUMPDEST PUSH1 0x20 DUP4 LT EQ PUSH2 0x788 JUMPI DUP2 PUSH1 0x1F DUP5 SWAP4 GT PUSH2 0x839 JUMPI JUMPDEST POP PUSH1 0x20 SWAP1 PUSH1 0x1F DUP4 GT PUSH1 0x1 EQ PUSH2 0x7B1 JUMPI PUSH0 SWAP3 PUSH2 0x7A6 JUMPI JUMPDEST POP POP DUP2 PUSH1 0x1 SHL SWAP2 PUSH0 NOT SWAP1 PUSH1 0x3 SHL SHR NOT AND OR PUSH1 0x3 SSTORE JUMPDEST DUP1 MLOAD SWAP1 PUSH1 0x1 PUSH1 0x1 PUSH1 0x40 SHL SUB DUP3 GT PUSH2 0x48C JUMPI PUSH1 0x4 SLOAD SWAP1 PUSH1 0x1 DUP3 DUP2 SHR SWAP3 AND DUP1 ISZERO PUSH2 0x79C JUMPI JUMPDEST PUSH1 0x20 DUP4 LT EQ PUSH2 0x788 JUMPI DUP2 PUSH1 0x1F DUP5 SWAP4 GT PUSH2 0x71A JUMPI JUMPDEST POP PUSH1 0x20 SWAP1 PUSH1 0x1F DUP4 GT PUSH1 0x1 EQ PUSH2 0x696 JUMPI PUSH0 SWAP3 PUSH2 0x68B JUMPI JUMPDEST POP POP DUP2 PUSH1 0x1 SHL SWAP2 PUSH0 NOT SWAP1 PUSH1 0x3 SHL SHR NOT AND OR PUSH1 0x4 SSTORE JUMPDEST PUSH1 0x1 PUSH1 0x5 SSTORE PUSH1 0xA DUP1 SLOAD PUSH1 0x1 PUSH1 0x1 PUSH1 0xA0 SHL SUB NOT SWAP1 DUP2 AND PUSH1 0x1 PUSH1 0x1 PUSH1 0xA0 SHL SUB SWAP4 DUP5 AND OR SWAP1 SWAP2 SSTORE PUSH1 0x6 DUP1 SLOAD SWAP1 SWAP2 AND SWAP2 DUP4 AND SWAP2 SWAP1 SWAP2 OR SWAP1 SSTORE PUSH8 0xDE0B6B3A7640000 PUSH1 0x9 SSTORE DUP3 MLOAD DUP3 MLOAD SUB PUSH2 0x63B JUMPI PUSH0 JUMPDEST DUP4 MLOAD DUP2 LT ISZERO PUSH2 0x51B JUMPI PUSH1 0x1 PUSH1 0x1 PUSH1 0xA0 SHL SUB PUSH2 0x276 DUP3 DUP7 PUSH2 0x942 JUMP JUMPDEST MLOAD AND ISZERO PUSH2 0x4D6 JUMPI PUSH2 0x287 DUP2 DUP5 PUSH2 0x942 JUMP JUMPDEST MLOAD ISZERO PUSH2 0x4A0 JUMPI PUSH1 0x1 PUSH1 0x1 PUSH1 0xA0 SHL SUB PUSH2 0x29F DUP3 DUP7 PUSH2 0x942 JUMP JUMPDEST MLOAD AND PUSH2 0x2AB DUP3 DUP6 PUSH2 0x942 JUMP JUMPDEST MLOAD PUSH1 0x40 DUP1 MLOAD SWAP3 SWAP1 DUP4 ADD DUP1 DUP5 GT PUSH1 0x1 PUSH1 0x1 PUSH1 0x40 SHL SUB SWAP1 SWAP2 GT OR PUSH2 0x48C JUMPI PUSH1 0x40 DUP4 ADD PUSH1 0x40 MSTORE DUP3 MSTORE PUSH1 0x20 DUP3 ADD MSTORE PUSH1 0x7 SLOAD PUSH9 0x10000000000000000 DUP2 LT ISZERO PUSH2 0x48C JUMPI PUSH1 0x1 DUP2 ADD DUP1 PUSH1 0x7 SSTORE DUP2 LT ISZERO PUSH2 0x478 JUMPI PUSH1 0x7 PUSH0 MSTORE DUP2 MLOAD PUSH32 0xA66CC928B5EDB82AF9BD49922954155AB7B0942694BEA4CE44661D9A8736C688 PUSH1 0x1 SWAP3 SWAP1 SWAP3 SHL SWAP2 DUP3 ADD DUP1 SLOAD PUSH1 0x1 PUSH1 0x1 PUSH1 0xA0 SHL SUB SWAP3 DUP4 AND PUSH1 0x1 PUSH1 0x1 PUSH1 0xA0 SHL SUB NOT SWAP1 SWAP2 AND OR SWAP1 SSTORE PUSH1 0x20 SWAP1 SWAP3 ADD MLOAD PUSH32 0xA66CC928B5EDB82AF9BD49922954155AB7B0942694BEA4CE44661D9A8736C689 SWAP1 SWAP2 ADD SSTORE PUSH2 0x379 DUP3 DUP7 PUSH2 0x942 JUMP JUMPDEST MLOAD AND PUSH1 0x1 DUP1 PUSH1 0xA0 SHL SUB PUSH1 0x6 SLOAD AND PUSH1 0x40 MLOAD PUSH4 0x6EB1769F PUSH1 0xE1 SHL DUP2 MSTORE ADDRESS PUSH1 0x4 DUP3 ADD MSTORE DUP2 PUSH1 0x24 DUP3 ADD MSTORE PUSH1 0x20 DUP2 PUSH1 0x44 DUP2 DUP7 GAS STATICCALL SWAP1 DUP2 ISZERO PUSH2 0x43B JUMPI PUSH0 SWAP2 PUSH2 0x446 JUMPI JUMPDEST POP ISZERO PUSH2 0x3C7 JUMPI JUMPDEST POP POP PUSH1 0x1 ADD PUSH2 0x25B JUMP JUMPDEST PUSH0 SWAP2 PUSH1 0x44 PUSH1 0x20 SWAP3 PUSH1 0x40 MLOAD SWAP5 DUP6 SWAP4 DUP5 SWAP3 PUSH4 0x95EA7B3 PUSH1 0xE0 SHL DUP5 MSTORE PUSH1 0x4 DUP5 ADD MSTORE DUP2 NOT PUSH1 0x24 DUP5 ADD MSTORE GAS CALL DUP1 ISZERO PUSH2 0x43B JUMPI PUSH2 0x3FF JUMPI JUMPDEST DUP1 PUSH2 0x3BD JUMP JUMPDEST PUSH1 0x20 DUP2 RETURNDATASIZE PUSH1 0x20 GT PUSH2 0x433 JUMPI JUMPDEST DUP2 PUSH2 0x418 PUSH1 0x20 SWAP4 DUP4 PUSH2 0x8F4 JUMP JUMPDEST DUP2 ADD SUB SLT PUSH2 0x42F JUMPI MLOAD DUP1 ISZERO ISZERO SUB PUSH2 0x42F JUMPI PUSH0 PUSH2 0x3F9 JUMP JUMPDEST PUSH0 DUP1 REVERT JUMPDEST RETURNDATASIZE SWAP2 POP PUSH2 0x40B JUMP JUMPDEST PUSH1 0x40 MLOAD RETURNDATASIZE PUSH0 DUP3 RETURNDATACOPY RETURNDATASIZE SWAP1 REVERT JUMPDEST SWAP1 POP PUSH1 0x20 DUP2 RETURNDATASIZE PUSH1 0x20 GT PUSH2 0x470 JUMPI JUMPDEST DUP2 PUSH2 0x461 PUSH1 0x20 SWAP4 DUP4 PUSH2 0x8F4 JUMP JUMPDEST DUP2 ADD SUB SLT PUSH2 0x42F JUMPI MLOAD PUSH0 PUSH2 0x3B6 JUMP JUMPDEST RETURNDATASIZE SWAP2 POP PUSH2 0x454 JUMP JUMPDEST PUSH4 0x4E487B71 PUSH1 0xE0 SHL PUSH0 MSTORE PUSH1 0x32 PUSH1 0x4 MSTORE PUSH1 0x24 PUSH0 REVERT JUMPDEST PUSH4 0x4E487B71 PUSH1 0xE0 SHL PUSH0 MSTORE PUSH1 0x41 PUSH1 0x4 MSTORE PUSH1 0x24 PUSH0 REVERT JUMPDEST PUSH1 0x40 MLOAD PUSH3 0x461BCD PUSH1 0xE5 SHL DUP2 MSTORE PUSH1 0x20 PUSH1 0x4 DUP3 ADD MSTORE PUSH1 0xE PUSH1 0x24 DUP3 ADD MSTORE PUSH14 0x125B9D985B1A59081DD95A59DA1D PUSH1 0x92 SHL PUSH1 0x44 DUP3 ADD MSTORE PUSH1 0x64 SWAP1 REVERT JUMPDEST PUSH1 0x40 MLOAD PUSH3 0x461BCD PUSH1 0xE5 SHL DUP2 MSTORE PUSH1 0x20 PUSH1 0x4 DUP3 ADD MSTORE PUSH1 0x15 PUSH1 0x24 DUP3 ADD MSTORE PUSH32 0x496E76616C696420617373657420616464726573730000000000000000000000 PUSH1 0x44 DUP3 ADD MSTORE PUSH1 0x64 SWAP1 REVERT JUMPDEST POP PUSH1 0x8 DUP5 SWAP1 SSTORE PUSH1 0x40 MLOAD PUSH4 0xBC06E81D PUSH1 0xE0 SHL DUP2 MSTORE SWAP1 PUSH1 0x20 SWAP1 DUP3 SWAP1 PUSH1 0x4 SWAP1 DUP3 SWAP1 PUSH1 0x1 PUSH1 0x1 PUSH1 0xA0 SHL SUB AND GAS STATICCALL SWAP1 DUP2 ISZERO PUSH2 0x43B JUMPI PUSH0 SWAP2 PUSH2 0x601 JUMPI JUMPDEST POP PUSH1 0xB DUP1 SLOAD PUSH1 0x1 PUSH1 0x1 PUSH1 0xA0 SHL SUB NOT AND PUSH1 0x1 PUSH1 0x1 PUSH1 0xA0 SHL SUB SWAP3 SWAP1 SWAP3 AND SWAP2 SWAP1 SWAP2 OR SWAP1 SSTORE PUSH0 SWAP1 DUP2 JUMPDEST DUP2 MLOAD DUP4 LT ISZERO PUSH2 0x5B3 JUMPI PUSH2 0x58A DUP4 DUP4 PUSH2 0x942 JUMP JUMPDEST MLOAD DUP2 ADD DUP1 SWAP2 GT PUSH2 0x59F JUMPI PUSH1 0x1 SWAP1 SWAP3 ADD SWAP2 PUSH2 0x577 JUMP JUMPDEST PUSH4 0x4E487B71 PUSH1 0xE0 SHL PUSH0 MSTORE PUSH1 0x11 PUSH1 0x4 MSTORE PUSH1 0x24 PUSH0 REVERT JUMPDEST PUSH2 0x2710 SUB PUSH2 0x5CA JUMPI PUSH1 0x40 MLOAD PUSH2 0x319D SWAP1 DUP2 PUSH2 0x957 DUP3 CODECOPY RETURN JUMPDEST PUSH1 0x40 MLOAD PUSH3 0x461BCD PUSH1 0xE5 SHL DUP2 MSTORE PUSH1 0x20 PUSH1 0x4 DUP3 ADD MSTORE PUSH1 0xF PUSH1 0x24 DUP3 ADD MSTORE PUSH15 0x496E76616C69642077656967687473 PUSH1 0x88 SHL PUSH1 0x44 DUP3 ADD MSTORE PUSH1 0x64 SWAP1 REVERT JUMPDEST SWAP1 POP PUSH1 0x20 DUP2 RETURNDATASIZE PUSH1 0x20 GT PUSH2 0x633 JUMPI JUMPDEST DUP2 PUSH2 0x61C PUSH1 0x20 SWAP4 DUP4 PUSH2 0x8F4 JUMP JUMPDEST DUP2 ADD SUB SLT PUSH2 0x42F JUMPI PUSH2 0x62D SWAP1 PUSH2 0x917 JUMP JUMPDEST DUP3 PUSH2 0x552 JUMP JUMPDEST RETURNDATASIZE SWAP2 POP PUSH2 0x60F JUMP JUMPDEST PUSH1 0x40 MLOAD PUSH3 0x461BCD PUSH1 0xE5 SHL DUP2 MSTORE PUSH1 0x20 PUSH1 0x4 DUP3 ADD MSTORE PUSH1 0x22 PUSH1 0x24 DUP3 ADD MSTORE PUSH32 0x41737365747320616E642077656967687473206C656E677468206D69736D6174 PUSH1 0x44 DUP3 ADD MSTORE PUSH2 0xC6D PUSH1 0xF3 SHL PUSH1 0x64 DUP3 ADD MSTORE PUSH1 0x84 SWAP1 REVERT JUMPDEST ADD MLOAD SWAP1 POP PUSH0 DUP1 PUSH2 0x1FB JUMP JUMPDEST PUSH1 0x4 PUSH0 SWAP1 DUP2 MSTORE PUSH32 0x8A35ACFBC15FF81A39AE7D344FD709F28E8600B4AA8C65C6B64BFE7FE36BD19B SWAP4 POP PUSH1 0x1F NOT DUP6 AND SWAP1 JUMPDEST DUP2 DUP2 LT PUSH2 0x702 JUMPI POP SWAP1 DUP5 PUSH1 0x1 SWAP6 SWAP5 SWAP4 SWAP3 LT PUSH2 0x6EA JUMPI JUMPDEST POP POP POP DUP2 SHL ADD PUSH1 0x4 SSTORE PUSH2 0x210 JUMP JUMPDEST ADD MLOAD PUSH0 NOT PUSH1 0xF8 DUP5 PUSH1 0x3 SHL AND SHR NOT AND SWAP1 SSTORE PUSH0 DUP1 DUP1 PUSH2 0x6DC JUMP JUMPDEST SWAP3 SWAP4 PUSH1 0x20 PUSH1 0x1 DUP2 SWAP3 DUP8 DUP7 ADD MLOAD DUP2 SSTORE ADD SWAP6 ADD SWAP4 ADD PUSH2 0x6C6 JUMP JUMPDEST PUSH1 0x4 PUSH0 MSTORE SWAP1 SWAP2 POP PUSH32 0x8A35ACFBC15FF81A39AE7D344FD709F28E8600B4AA8C65C6B64BFE7FE36BD19B PUSH1 0x1F DUP5 ADD PUSH1 0x5 SHR DUP2 ADD SWAP2 PUSH1 0x20 DUP6 LT PUSH2 0x77E JUMPI JUMPDEST SWAP1 PUSH1 0x1F DUP6 SWAP5 SWAP4 SWAP3 ADD PUSH1 0x5 SHR ADD SWAP1 JUMPDEST DUP2 DUP2 LT PUSH2 0x770 JUMPI POP PUSH2 0x1E5 JUMP JUMPDEST PUSH0 DUP2 SSTORE DUP5 SWAP4 POP PUSH1 0x1 ADD PUSH2 0x763 JUMP JUMPDEST SWAP1 SWAP2 POP DUP2 SWAP1 PUSH2 0x755 JUMP JUMPDEST PUSH4 0x4E487B71 PUSH1 0xE0 SHL PUSH0 MSTORE PUSH1 0x22 PUSH1 0x4 MSTORE PUSH1 0x24 PUSH0 REVERT JUMPDEST SWAP2 PUSH1 0x7F AND SWAP2 PUSH2 0x1D1 JUMP JUMPDEST ADD MLOAD SWAP1 POP PUSH0 DUP1 PUSH2 0x199 JUMP JUMPDEST PUSH1 0x3 PUSH0 SWAP1 DUP2 MSTORE SWAP4 POP PUSH32 0xC2575A0E9E593C00F959F8C92F12DB2869C3395A3B0502D05E2516446F71F85B SWAP2 SWAP1 JUMPDEST PUSH1 0x1F NOT DUP5 AND DUP6 LT PUSH2 0x81E JUMPI PUSH1 0x1 SWAP5 POP DUP4 PUSH1 0x1F NOT DUP2 AND LT PUSH2 0x806 JUMPI JUMPDEST POP POP POP DUP2 SHL ADD PUSH1 0x3 SSTORE PUSH2 0x1AE JUMP JUMPDEST ADD MLOAD PUSH0 NOT PUSH1 0xF8 DUP5 PUSH1 0x3 SHL AND SHR NOT AND SWAP1 SSTORE PUSH0 DUP1 DUP1 PUSH2 0x7F8 JUMP JUMPDEST DUP2 DUP2 ADD MLOAD DUP4 SSTORE PUSH1 0x20 SWAP5 DUP6 ADD SWAP5 PUSH1 0x1 SWAP1 SWAP4 ADD SWAP3 SWAP1 SWAP2 ADD SWAP1 PUSH2 0x7DD JUMP JUMPDEST PUSH1 0x3 PUSH0 MSTORE SWAP1 SWAP2 POP PUSH32 0xC2575A0E9E593C00F959F8C92F12DB2869C3395A3B0502D05E2516446F71F85B PUSH1 0x1F DUP5 ADD PUSH1 0x5 SHR DUP2 ADD SWAP2 PUSH1 0x20 DUP6 LT PUSH2 0x89D JUMPI JUMPDEST SWAP1 PUSH1 0x1F DUP6 SWAP5 SWAP4 SWAP3 ADD PUSH1 0x5 SHR ADD SWAP1 JUMPDEST DUP2 DUP2 LT PUSH2 0x88F JUMPI POP PUSH2 0x183 JUMP JUMPDEST PUSH0 DUP2 SSTORE DUP5 SWAP4 POP PUSH1 0x1 ADD PUSH2 0x882 JUMP JUMPDEST SWAP1 SWAP2 POP DUP2 SWAP1 PUSH2 0x874 JUMP JUMPDEST SWAP2 PUSH1 0x7F AND SWAP2 PUSH2 0x16F JUMP JUMPDEST DUP2 MLOAD DUP2 MSTORE PUSH1 0x20 SWAP2 DUP3 ADD SWAP2 ADD PUSH2 0xEC JUMP JUMPDEST PUSH1 0x20 DUP1 SWAP2 PUSH2 0x8CE DUP5 PUSH2 0x917 JUMP JUMPDEST DUP2 MSTORE ADD SWAP2 ADD SWAP1 PUSH2 0x8D JUMP JUMPDEST PUSH1 0x40 DUP2 ADD SWAP1 DUP2 LT PUSH1 0x1 PUSH1 0x1 PUSH1 0x40 SHL SUB DUP3 GT OR PUSH2 0x48C JUMPI PUSH1 0x40 MSTORE JUMP JUMPDEST PUSH1 0x1F SWAP1 SWAP2 ADD PUSH1 0x1F NOT AND DUP2 ADD SWAP1 PUSH1 0x1 PUSH1 0x1 PUSH1 0x40 SHL SUB DUP3 GT SWAP1 DUP3 LT OR PUSH2 0x48C JUMPI PUSH1 0x40 MSTORE JUMP JUMPDEST MLOAD SWAP1 PUSH1 0x1 PUSH1 0x1 PUSH1 0xA0 SHL SUB DUP3 AND DUP3 SUB PUSH2 0x42F JUMPI JUMP JUMPDEST PUSH1 0x1 PUSH1 0x1 PUSH1 0x40 SHL SUB DUP2 GT PUSH2 0x48C JUMPI PUSH1 0x5 SHL PUSH1 0x20 ADD SWAP1 JUMP JUMPDEST DUP1 MLOAD DUP3 LT ISZERO PUSH2 0x478 JUMPI PUSH1 0x20 SWAP2 PUSH1 0x5 SHL ADD ADD SWAP1 JUMP INVALID PUSH1 0x80 PUSH1 0x40 DUP2 DUP2 MSTORE PUSH1 0x4 SWAP2 DUP3 CALLDATASIZE LT ISZERO PUSH2 0x15 JUMPI PUSH0 DUP1 REVERT JUMPDEST PUSH0 SWAP3 PUSH0 CALLDATALOAD PUSH1 0xE0 SHR SWAP2 DUP3 PUSH4 0x1D22CCD EQ PUSH2 0x265C JUMPI POP DUP2 PUSH4 0x6FDDE03 EQ PUSH2 0x2513 JUMPI DUP2 PUSH4 0x723C999 EQ PUSH2 0x2129 JUMPI DUP2 PUSH4 0x902F1AC EQ PUSH2 0x20DB JUMPI DUP2 PUSH4 0x95EA7B3 EQ PUSH2 0x1FD6 JUMPI DUP2 PUSH4 0x18160DDD EQ PUSH2 0x1F9A JUMPI DUP2 PUSH4 0x1A686502 EQ PUSH2 0x1F58 JUMPI DUP2 PUSH4 0x22ACB867 EQ PUSH2 0x1EDD JUMPI DUP2 PUSH4 0x23B872DD EQ PUSH2 0x1D88 JUMPI DUP2 PUSH4 0x313CE567 EQ PUSH2 0x1D4F JUMPI DUP2 PUSH4 0x36BF6E39 EQ PUSH2 0x1CFD JUMPI DUP2 PUSH4 0x3DFF5B7F EQ PUSH2 0x1C13 JUMPI DUP2 PUSH4 0x4AA06652 EQ PUSH2 0x1BF8 JUMPI DUP2 PUSH4 0x5568081A EQ PUSH2 0x17E4 JUMPI DUP2 PUSH4 0x67A6C440 EQ PUSH2 0x17A9 JUMPI DUP2 PUSH4 0x67E4AC2C EQ PUSH2 0x171A JUMPI DUP2 PUSH4 0x6E81221C EQ PUSH2 0x1426 JUMPI DUP2 PUSH4 0x70A08231 EQ PUSH2 0x13C5 JUMPI DUP2 PUSH4 0x77AACE1A EQ PUSH2 0x1372 JUMPI DUP2 PUSH4 0x7E04795A EQ PUSH2 0x12AD JUMPI DUP2 PUSH4 0x7FEC8D38 EQ PUSH2 0x1270 JUMPI DUP2 PUSH4 0x89AB3532 EQ PUSH2 0x11E6 JUMPI DUP2 PUSH4 0x89AFCB44 EQ PUSH2 0xAC3 JUMPI DUP2 PUSH4 0x8A77C8DC EQ PUSH2 0xA7F JUMPI DUP2 PUSH4 0x95D89B41 EQ PUSH2 0x929 JUMPI DUP2 PUSH4 0xA9059CBB EQ PUSH2 0x8DA JUMPI DUP2 PUSH4 0xB2B55D70 EQ PUSH2 0x6AE JUMPI DUP2 PUSH4 0xC2EE3A08 EQ PUSH2 0x89D JUMPI DUP2 PUSH4 0xCDF456E1 EQ PUSH2 0x84A JUMPI DUP2 PUSH4 0xCF8FA764 EQ PUSH2 0x78E JUMPI DUP2 PUSH4 0xD14EF46D EQ PUSH2 0x710 JUMPI DUP2 PUSH4 0xD66BD524 EQ PUSH2 0x6AE JUMPI DUP2 PUSH4 0xDD62ED3E EQ PUSH2 0x639 JUMPI DUP2 PUSH4 0xDE836EBD EQ PUSH2 0x1E7 JUMPI POP PUSH4 0xE73FAA2D EQ PUSH2 0x1A3 JUMPI PUSH0 DUP1 REVERT JUMPDEST CALLVALUE PUSH2 0x1E3 JUMPI DUP2 PUSH32 0xFFFFFFFFFFFFFFFFFFFFFFFFFFFFFFFFFFFFFFFFFFFFFFFFFFFFFFFFFFFFFFFC CALLDATASIZE ADD SLT PUSH2 0x1E3 JUMPI PUSH1 0x20 SWAP1 PUSH2 0x1DC PUSH2 0x2E7E JUMP JUMPDEST SWAP1 MLOAD SWAP1 DUP2 MSTORE RETURN JUMPDEST POP DUP1 REVERT JUMPDEST SWAP1 POP DUP3 CALLVALUE PUSH2 0x636 JUMPI DUP3 PUSH32 0xFFFFFFFFFFFFFFFFFFFFFFFFFFFFFFFFFFFFFFFFFFFFFFFFFFFFFFFFFFFFFFFC CALLDATASIZE ADD SLT PUSH2 0x636 JUMPI PUSH2 0x220 PUSH2 0x26F2 JUMP JUMPDEST SWAP2 PUSH1 0x24 SWAP3 DUP4 CALLDATALOAD PUSH8 0xFFFFFFFFFFFFFFFF DUP2 GT PUSH2 0x632 JUMPI PUSH2 0x242 SWAP1 CALLDATASIZE SWAP1 DUP5 ADD PUSH2 0x2865 JUMP JUMPDEST SWAP3 PUSH20 0xFFFFFFFFFFFFFFFFFFFFFFFFFFFFFFFFFFFFFFFF SWAP3 PUSH2 0x268 DUP5 PUSH1 0xA SLOAD AND CALLER EQ PUSH2 0x2A97 JUMP JUMPDEST PUSH1 0x2 SLOAD SWAP6 DUP3 PUSH2 0x275 PUSH2 0x2A3B JUMP JUMPDEST SWAP8 PUSH1 0x7 SWAP9 PUSH1 0x7 SLOAD SWAP1 MLOAD DUP2 SUB PUSH2 0x5D6 JUMPI DUP1 ISZERO PUSH2 0x57A JUMPI DUP6 SWAP1 JUMPDEST DUP10 DUP10 DUP3 DUP5 LT PUSH2 0x542 JUMPI POP POP POP POP DUP2 ISZERO PUSH2 0x4C0 JUMPI DUP1 PUSH2 0x415 JUMPI POP SWAP4 JUMPDEST DUP5 ISZERO PUSH2 0x3B9 JUMPI SWAP1 DUP5 PUSH2 0x2E2 DUP11 SWAP8 SWAP7 SWAP6 SWAP5 SWAP4 CALLER DUP7 MSTORE PUSH1 0x20 SWAP12 DUP7 DUP14 SWAP8 DUP9 MSTORE DUP1 DUP11 DUP4 DUP3 KECCAK256 SLOAD SWAP5 PUSH2 0x2D5 DUP9 DUP3 PUSH2 0x2F56 JUMP JUMPDEST AND SWAP9 DUP10 DUP3 MSTORE MSTORE KECCAK256 SLOAD PUSH2 0x2C8C JUMP JUMPDEST SUB PUSH2 0x35E JUMPI POP POP PUSH0 JUMPDEST DUP7 SLOAD DUP2 LT ISZERO PUSH2 0x32C JUMPI DUP1 DUP5 PUSH2 0x301 PUSH1 0x1 SWAP4 PUSH2 0x290E JUMP JUMPDEST POP SLOAD AND PUSH2 0x30E DUP3 DUP10 PUSH2 0x29D8 JUMP JUMPDEST MLOAD SWAP1 PUSH0 MSTORE PUSH1 0xC DUP11 MSTORE PUSH2 0x324 DUP8 PUSH0 KECCAK256 SWAP2 DUP3 SLOAD PUSH2 0x2C99 JUMP JUMPDEST SWAP1 SSTORE ADD PUSH2 0x2EB JUMP JUMPDEST DUP8 DUP4 DUP7 DUP5 PUSH32 0xF6798A560793A54C3BCFE86A93CDE1E73087D944C0EA20544137D4121396885 DUP5 DUP4 MLOAD DUP6 DUP2 MSTORE LOG2 MLOAD SWAP1 DUP2 MSTORE RETURN JUMPDEST SWAP1 PUSH1 0xB PUSH1 0x64 SWAP3 DUP11 DUP9 MLOAD SWAP4 PUSH32 0x8C379A000000000000000000000000000000000000000000000000000000000 DUP6 MSTORE DUP5 ADD MSTORE DUP3 ADD MSTORE PUSH32 0x4D696E74204661696C6564000000000000000000000000000000000000000000 PUSH1 0x44 DUP3 ADD MSTORE REVERT JUMPDEST PUSH1 0x64 DUP4 PUSH1 0xD DUP5 PUSH1 0x20 DUP14 MLOAD SWAP4 PUSH32 0x8C379A000000000000000000000000000000000000000000000000000000000 DUP6 MSTORE DUP5 ADD MSTORE DUP3 ADD MSTORE PUSH32 0x4D696E7420717479206973203000000000000000000000000000000000000000 PUSH1 0x44 DUP3 ADD MSTORE REVERT JUMPDEST PUSH2 0x41D PUSH2 0x2EA9 JUMP JUMPDEST POP SWAP2 DUP3 ISZERO PUSH2 0x43E JUMPI PUSH2 0x438 SWAP3 SWAP2 PUSH2 0x433 SWAP2 PUSH2 0x2BB0 JUMP JUMPDEST PUSH2 0x2BF0 JUMP JUMPDEST SWAP4 PUSH2 0x2A8 JUMP JUMPDEST PUSH1 0x84 DUP6 PUSH1 0x26 DUP7 PUSH1 0x20 DUP16 MLOAD SWAP4 PUSH32 0x8C379A000000000000000000000000000000000000000000000000000000000 DUP6 MSTORE DUP5 ADD MSTORE DUP3 ADD MSTORE PUSH32 0x546F74616C206C6971756964697479206D757374206265206772656174657220 PUSH1 0x44 DUP3 ADD MSTORE PUSH32 0x7468616E20300000000000000000000000000000000000000000000000000000 PUSH1 0x64 DUP3 ADD MSTORE REVERT JUMPDEST PUSH1 0x84 DUP5 PUSH1 0x22 DUP6 PUSH1 0x20 DUP15 MLOAD SWAP4 PUSH32 0x8C379A000000000000000000000000000000000000000000000000000000000 DUP6 MSTORE DUP5 ADD MSTORE DUP3 ADD MSTORE PUSH32 0x546F74616C2076616C7565206D7573742062652067726561746572207468616E PUSH1 0x44 DUP3 ADD MSTORE PUSH32 0x2030000000000000000000000000000000000000000000000000000000000000 PUSH1 0x64 DUP3 ADD MSTORE REVERT JUMPDEST SWAP5 PUSH2 0x56C PUSH2 0x572 SWAP3 PUSH2 0x565 DUP7 DUP1 SWAP10 PUSH2 0x55C PUSH1 0x1 SWAP9 SWAP10 PUSH2 0x290E JUMP JUMPDEST POP SLOAD AND SWAP3 PUSH2 0x29D8 JUMP JUMPDEST MLOAD SWAP1 PUSH2 0x30FD JUMP JUMPDEST SWAP1 PUSH2 0x2C99 JUMP JUMPDEST SWAP4 ADD SWAP1 PUSH2 0x28D JUMP JUMPDEST PUSH1 0x64 DUP6 PUSH1 0x9 DUP7 PUSH1 0x20 DUP16 MLOAD SWAP4 PUSH32 0x8C379A000000000000000000000000000000000000000000000000000000000 DUP6 MSTORE DUP5 ADD MSTORE DUP3 ADD MSTORE PUSH32 0x4E6F206173736574730000000000000000000000000000000000000000000000 PUSH1 0x44 DUP3 ADD MSTORE REVERT JUMPDEST PUSH1 0x64 DUP6 PUSH1 0x17 DUP7 PUSH1 0x20 DUP16 MLOAD SWAP4 PUSH32 0x8C379A000000000000000000000000000000000000000000000000000000000 DUP6 MSTORE DUP5 ADD MSTORE DUP3 ADD MSTORE PUSH32 0x496E76616C6964207265736572766573206C656E677468000000000000000000 PUSH1 0x44 DUP3 ADD MSTORE REVERT JUMPDEST DUP4 DUP1 REVERT JUMPDEST DUP1 REVERT JUMPDEST POP POP CALLVALUE PUSH2 0x1E3 JUMPI DUP1 PUSH32 0xFFFFFFFFFFFFFFFFFFFFFFFFFFFFFFFFFFFFFFFFFFFFFFFFFFFFFFFFFFFFFFFC CALLDATASIZE ADD SLT PUSH2 0x1E3 JUMPI PUSH1 0x20 SWAP2 PUSH2 0x674 PUSH2 0x26F2 JUMP JUMPDEST DUP3 PUSH2 0x67D PUSH2 0x2715 JUMP JUMPDEST SWAP3 PUSH20 0xFFFFFFFFFFFFFFFFFFFFFFFFFFFFFFFFFFFFFFFF DUP1 SWAP4 AND DUP2 MSTORE PUSH1 0x1 DUP7 MSTORE KECCAK256 SWAP2 AND PUSH0 MSTORE DUP3 MSTORE DUP1 PUSH0 KECCAK256 SLOAD SWAP1 MLOAD SWAP1 DUP2 MSTORE RETURN JUMPDEST POP POP CALLVALUE PUSH2 0x1E3 JUMPI PUSH1 0x20 PUSH32 0xFFFFFFFFFFFFFFFFFFFFFFFFFFFFFFFFFFFFFFFFFFFFFFFFFFFFFFFFFFFFFFFC CALLDATASIZE ADD SLT PUSH2 0x1E3 JUMPI DUP1 PUSH1 0x20 SWAP3 PUSH20 0xFFFFFFFFFFFFFFFFFFFFFFFFFFFFFFFFFFFFFFFF PUSH2 0x700 PUSH2 0x26F2 JUMP JUMPDEST AND DUP2 MSTORE PUSH1 0xC DUP5 MSTORE KECCAK256 SLOAD SWAP1 MLOAD SWAP1 DUP2 MSTORE RETURN JUMPDEST DUP4 SWAP2 POP CALLVALUE PUSH2 0x1E3 JUMPI PUSH1 0x20 PUSH32 0xFFFFFFFFFFFFFFFFFFFFFFFFFFFFFFFFFFFFFFFFFFFFFFFFFFFFFFFFFFFFFFFC CALLDATASIZE ADD SLT PUSH2 0x1E3 JUMPI CALLDATALOAD SWAP1 PUSH1 0x7 SLOAD DUP3 LT ISZERO PUSH2 0x636 JUMPI POP PUSH2 0x758 SWAP1 PUSH2 0x290E JUMP JUMPDEST POP DUP1 SLOAD PUSH1 0x1 SWAP1 SWAP2 ADD SLOAD SWAP2 MLOAD PUSH20 0xFFFFFFFFFFFFFFFFFFFFFFFFFFFFFFFFFFFFFFFF SWAP1 SWAP2 AND DUP2 MSTORE PUSH1 0x20 DUP2 ADD SWAP2 SWAP1 SWAP2 MSTORE PUSH1 0x40 SWAP1 RETURN JUMPDEST SUB SWAP1 RETURN JUMPDEST SWAP1 POP DUP3 CALLVALUE PUSH2 0x636 JUMPI PUSH1 0x20 PUSH32 0xFFFFFFFFFFFFFFFFFFFFFFFFFFFFFFFFFFFFFFFFFFFFFFFFFFFFFFFFFFFFFFFC CALLDATASIZE ADD SLT PUSH2 0x636 JUMPI POP DUP1 CALLDATALOAD SWAP1 PUSH2 0x7CC PUSH2 0x2EA9 JUMP JUMPDEST DUP1 SWAP3 SWAP2 POP MLOAD DUP4 LT ISZERO PUSH2 0x7ED JUMPI PUSH1 0x20 DUP5 PUSH2 0x7E5 DUP6 DUP6 PUSH2 0x29D8 JUMP JUMPDEST MLOAD SWAP1 MLOAD SWAP1 DUP2 MSTORE RETURN JUMPDEST PUSH1 0x64 SWAP1 PUSH1 0x20 DUP6 MLOAD SWAP2 PUSH32 0x8C379A000000000000000000000000000000000000000000000000000000000 DUP4 MSTORE DUP3 ADD MSTORE PUSH1 0x13 PUSH1 0x24 DUP3 ADD MSTORE PUSH32 0x496E76616C696420617373657420696E64657800000000000000000000000000 PUSH1 0x44 DUP3 ADD MSTORE REVERT JUMPDEST POP POP CALLVALUE PUSH2 0x1E3 JUMPI DUP2 PUSH32 0xFFFFFFFFFFFFFFFFFFFFFFFFFFFFFFFFFFFFFFFFFFFFFFFFFFFFFFFFFFFFFFFC CALLDATASIZE ADD SLT PUSH2 0x1E3 JUMPI PUSH1 0x20 SWAP1 PUSH20 0xFFFFFFFFFFFFFFFFFFFFFFFFFFFFFFFFFFFFFFFF PUSH1 0xB SLOAD AND SWAP1 MLOAD SWAP1 DUP2 MSTORE RETURN JUMPDEST POP POP CALLVALUE PUSH2 0x1E3 JUMPI DUP2 PUSH32 0xFFFFFFFFFFFFFFFFFFFFFFFFFFFFFFFFFFFFFFFFFFFFFFFFFFFFFFFFFFFFFFFC CALLDATASIZE ADD SLT PUSH2 0x1E3 JUMPI PUSH1 0x20 SWAP1 PUSH1 0x9 SLOAD SWAP1 MLOAD SWAP1 DUP2 MSTORE RETURN JUMPDEST POP POP CALLVALUE PUSH2 0x1E3 JUMPI DUP1 PUSH32 0xFFFFFFFFFFFFFFFFFFFFFFFFFFFFFFFFFFFFFFFFFFFFFFFFFFFFFFFFFFFFFFFC CALLDATASIZE ADD SLT PUSH2 0x1E3 JUMPI PUSH1 0x20 SWAP1 PUSH2 0x922 PUSH2 0x918 PUSH2 0x26F2 JUMP JUMPDEST PUSH1 0x24 CALLDATALOAD SWAP1 CALLER PUSH2 0x2FF0 JUMP JUMPDEST MLOAD PUSH1 0x1 DUP2 MSTORE RETURN JUMPDEST DUP4 DUP4 CALLVALUE PUSH2 0x1E3 JUMPI DUP2 PUSH32 0xFFFFFFFFFFFFFFFFFFFFFFFFFFFFFFFFFFFFFFFFFFFFFFFFFFFFFFFFFFFFFFFC CALLDATASIZE ADD SLT PUSH2 0x1E3 JUMPI DUP1 MLOAD SWAP2 DUP1 SWAP4 DUP1 SLOAD SWAP2 PUSH1 0x1 SWAP1 DUP4 PUSH1 0x1 SHR SWAP3 PUSH1 0x1 DUP6 AND SWAP5 DUP6 ISZERO PUSH2 0xA75 JUMPI JUMPDEST PUSH1 0x20 SWAP6 DUP7 DUP7 LT DUP2 EQ PUSH2 0xA49 JUMPI DUP6 DUP10 MSTORE SWAP1 DUP2 ISZERO PUSH2 0xA07 JUMPI POP PUSH1 0x1 EQ PUSH2 0x9AF JUMPI JUMPDEST PUSH2 0x78A DUP8 DUP8 PUSH2 0x9A5 DUP3 DUP13 SUB DUP4 PUSH2 0x280C JUMP JUMPDEST MLOAD SWAP2 DUP3 SWAP2 DUP3 PUSH2 0x26AA JUMP JUMPDEST DUP2 MSTORE SWAP3 SWAP6 POP PUSH32 0x8A35ACFBC15FF81A39AE7D344FD709F28E8600B4AA8C65C6B64BFE7FE36BD19B JUMPDEST DUP3 DUP5 LT PUSH2 0x9F4 JUMPI POP POP POP DUP3 PUSH2 0x78A SWAP5 PUSH2 0x9A5 SWAP3 DUP3 ADD ADD SWAP5 DUP7 DUP1 PUSH2 0x994 JUMP JUMPDEST DUP1 SLOAD DUP7 DUP6 ADD DUP9 ADD MSTORE SWAP3 DUP7 ADD SWAP3 DUP2 ADD PUSH2 0x9D6 JUMP JUMPDEST PUSH32 0xFFFFFFFFFFFFFFFFFFFFFFFFFFFFFFFFFFFFFFFFFFFFFFFFFFFFFFFFFFFFFF00 AND DUP9 DUP8 ADD MSTORE POP POP POP POP ISZERO ISZERO PUSH1 0x5 SHL DUP4 ADD ADD SWAP3 POP PUSH2 0x9A5 DUP3 PUSH2 0x78A DUP7 DUP1 PUSH2 0x994 JUMP JUMPDEST PUSH1 0x24 DUP5 PUSH1 0x22 DUP6 PUSH32 0x4E487B7100000000000000000000000000000000000000000000000000000000 DUP4 MSTORE MSTORE REVERT JUMPDEST SWAP4 PUSH1 0x7F AND SWAP4 PUSH2 0x975 JUMP JUMPDEST POP POP CALLVALUE PUSH2 0x1E3 JUMPI DUP2 PUSH32 0xFFFFFFFFFFFFFFFFFFFFFFFFFFFFFFFFFFFFFFFFFFFFFFFFFFFFFFFFFFFFFFFC CALLDATASIZE ADD SLT PUSH2 0x1E3 JUMPI PUSH1 0x20 SWAP1 PUSH2 0xABA PUSH2 0x2E28 JUMP JUMPDEST SWAP1 MLOAD SWAP1 ISZERO ISZERO DUP2 MSTORE RETURN JUMPDEST DUP4 SWAP2 POP CALLVALUE PUSH2 0x1E3 JUMPI PUSH1 0x20 DUP1 PUSH32 0xFFFFFFFFFFFFFFFFFFFFFFFFFFFFFFFFFFFFFFFFFFFFFFFFFFFFFFFFFFFFFFFC CALLDATASIZE ADD SLT PUSH2 0x11E2 JUMPI PUSH2 0xAFE PUSH2 0x26F2 JUMP JUMPDEST SWAP3 PUSH20 0xFFFFFFFFFFFFFFFFFFFFFFFFFFFFFFFFFFFFFFFF SWAP4 PUSH2 0xB24 DUP6 PUSH1 0xA SLOAD AND CALLER EQ PUSH2 0x2A97 JUMP JUMPDEST ADDRESS DUP3 MSTORE DUP2 DUP4 MSTORE DUP6 DUP3 KECCAK256 SLOAD SWAP1 DUP2 ISZERO PUSH2 0x1186 JUMPI PUSH1 0x2 SLOAD SWAP6 DUP7 ISZERO PUSH2 0x112A JUMPI PUSH1 0x7 DUP1 SLOAD SWAP4 PUSH2 0xB4D DUP6 PUSH2 0x29EC JUMP JUMPDEST SWAP5 PUSH2 0x12C DUP3 MUL PUSH32 0xFFFFFFFFFFFFFFFFFFFFFFFFFFFFFFFFFFFFFFFFFFFFFFFFFFFFFFFFFFFFFED4 DUP4 DUP3 DIV ADD PUSH2 0x10FE JUMPI PUSH2 0x2710 PUSH2 0xB8B SWAP2 DIV DUP1 SWAP4 PUSH2 0x2C8C JUMP JUMPDEST SWAP10 DUP8 JUMPDEST DUP3 DUP2 LT PUSH2 0x1046 JUMPI POP POP POP ADDRESS DUP7 MSTORE DUP6 DUP8 MSTORE PUSH2 0xBAD DUP10 DUP12 DUP9 KECCAK256 SLOAD LT ISZERO PUSH2 0x2DAB JUMP JUMPDEST DUP8 DUP8 DUP5 PUSH1 0x6 SLOAD AND DUP13 MLOAD SWAP3 DUP4 DUP1 SWAP3 PUSH32 0x3B19E84A00000000000000000000000000000000000000000000000000000000 DUP3 MSTORE GAS STATICCALL SWAP1 DUP2 ISZERO PUSH2 0xFF1 JUMPI SWAP2 DUP9 SWAP2 DUP11 SWAP8 SWAP7 SWAP6 SWAP5 SWAP4 DUP10 SWAP2 PUSH2 0xFFB JUMPI JUMPDEST POP SWAP1 PUSH2 0xC53 SWAP3 SWAP2 DUP14 MLOAD SWAP4 DUP5 SWAP3 DUP4 SWAP3 PUSH32 0xA9059CBB00000000000000000000000000000000000000000000000000000000 SWAP12 DUP13 DUP6 MSTORE DUP5 ADD PUSH1 0x20 SWAP1 SWAP4 SWAP3 SWAP2 SWAP4 PUSH20 0xFFFFFFFFFFFFFFFFFFFFFFFFFFFFFFFFFFFFFFFF PUSH1 0x40 DUP3 ADD SWAP6 AND DUP2 MSTORE ADD MSTORE JUMP JUMPDEST SUB DUP2 DUP11 ADDRESS GAS CALL SWAP1 DUP2 ISZERO PUSH2 0xFF1 JUMPI DUP8 SWAP2 PUSH2 0xFD4 JUMPI JUMPDEST POP ISZERO PUSH2 0xF78 JUMPI ADDRESS DUP7 MSTORE DUP6 DUP8 MSTORE PUSH2 0xC82 DUP10 DUP12 DUP9 KECCAK256 SLOAD LT ISZERO PUSH2 0x2DAB JUMP JUMPDEST ADDRESS ISZERO PUSH2 0xF49 JUMPI ADDRESS PUSH0 MSTORE PUSH0 DUP8 MSTORE DUP10 PUSH0 KECCAK256 SLOAD DUP10 DUP2 LT PUSH2 0xF04 JUMPI DUP10 SWAP1 ADDRESS PUSH0 MSTORE PUSH0 DUP10 MSTORE SUB DUP11 PUSH0 KECCAK256 SSTORE DUP9 PUSH1 0x2 SLOAD SUB PUSH1 0x2 SSTORE PUSH0 DUP11 MLOAD DUP11 DUP2 MSTORE PUSH32 0xDDF252AD1BE2C89B69C2B068FC378DAA952BA7F163C4A11628F55A4DF523B3EF DUP10 ADDRESS SWAP3 LOG3 DUP6 JUMPDEST DUP2 SLOAD DUP2 LT ISZERO PUSH2 0xE89 JUMPI DUP8 DUP4 PUSH2 0xCEF DUP4 PUSH2 0x290E JUMP JUMPDEST POP SLOAD AND DUP13 MLOAD SWAP2 DUP3 DUP1 SWAP3 PUSH32 0x70A0823100000000000000000000000000000000000000000000000000000000 DUP3 MSTORE DUP14 ADDRESS SWAP1 DUP4 ADD MSTORE PUSH1 0x24 SWAP5 DUP6 SWAP2 GAS STATICCALL DUP1 ISZERO PUSH2 0xE4C JUMPI DUP10 SWAP1 PUSH2 0xE56 JUMPI JUMPDEST PUSH2 0xD4C SWAP2 POP PUSH2 0xD44 DUP5 DUP10 PUSH2 0x29D8 JUMP JUMPDEST MLOAD GT ISZERO PUSH2 0x2C27 JUMP JUMPDEST DUP12 DUP10 DUP7 DUP9 DUP14 DUP13 DUP13 PUSH2 0xDA3 PUSH2 0xD6D DUP11 DUP14 PUSH2 0xD64 DUP3 PUSH2 0x290E JUMP JUMPDEST POP SLOAD AND SWAP7 PUSH2 0x29D8 JUMP JUMPDEST MLOAD SWAP8 MLOAD SWAP8 DUP9 SWAP7 DUP8 SWAP6 DUP7 SWAP5 DUP6 MSTORE DUP5 ADD PUSH1 0x20 SWAP1 SWAP4 SWAP3 SWAP2 SWAP4 PUSH20 0xFFFFFFFFFFFFFFFFFFFFFFFFFFFFFFFFFFFFFFFF PUSH1 0x40 DUP3 ADD SWAP6 AND DUP2 MSTORE ADD MSTORE JUMP JUMPDEST SUB SWAP3 GAS CALL SWAP1 DUP2 ISZERO PUSH2 0xE4C JUMPI DUP10 SWAP2 PUSH2 0xE1F JUMPI JUMPDEST POP ISZERO PUSH2 0xDC4 JUMPI POP PUSH1 0x1 ADD PUSH2 0xCDB JUMP JUMPDEST DUP10 PUSH1 0x15 PUSH1 0x64 SWAP3 DUP12 DUP16 MLOAD SWAP4 PUSH32 0x8C379A000000000000000000000000000000000000000000000000000000000 DUP6 MSTORE DUP5 ADD MSTORE DUP3 ADD MSTORE PUSH32 0x4173736574207472616E73666572206661696C65640000000000000000000000 PUSH1 0x44 DUP3 ADD MSTORE REVERT JUMPDEST PUSH2 0xE3F SWAP2 POP DUP11 RETURNDATASIZE DUP13 GT PUSH2 0xE45 JUMPI JUMPDEST PUSH2 0xE37 DUP2 DUP4 PUSH2 0x280C JUMP JUMPDEST DUP2 ADD SWAP1 PUSH2 0x2E10 JUMP JUMPDEST DUP14 PUSH2 0xDB5 JUMP JUMPDEST POP RETURNDATASIZE PUSH2 0xE2D JUMP JUMPDEST DUP14 MLOAD RETURNDATASIZE DUP12 DUP3 RETURNDATACOPY RETURNDATASIZE SWAP1 REVERT JUMPDEST POP DUP10 DUP2 DUP2 RETURNDATASIZE DUP4 GT PUSH2 0xE82 JUMPI JUMPDEST PUSH2 0xE6C DUP2 DUP4 PUSH2 0x280C JUMP JUMPDEST DUP2 ADD SUB SLT PUSH2 0xE7E JUMPI PUSH2 0xD4C SWAP1 MLOAD PUSH2 0xD35 JUMP JUMPDEST PUSH0 DUP1 REVERT JUMPDEST POP RETURNDATASIZE PUSH2 0xE62 JUMP JUMPDEST POP SWAP2 DUP10 SWAP2 DUP7 DUP11 DUP10 SWAP4 PUSH0 JUMPDEST DUP8 SLOAD DUP2 LT ISZERO PUSH2 0xED4 JUMPI DUP1 DUP6 PUSH2 0xEA9 PUSH1 0x1 SWAP4 PUSH2 0x290E JUMP JUMPDEST POP SLOAD AND PUSH2 0xEB6 DUP3 DUP13 PUSH2 0x29D8 JUMP JUMPDEST MLOAD SWAP1 PUSH0 MSTORE PUSH1 0xC DUP9 MSTORE PUSH2 0xECC DUP10 PUSH0 KECCAK256 SWAP2 DUP3 SLOAD PUSH2 0x2C8C JUMP JUMPDEST SWAP1 SSTORE ADD PUSH2 0xE93 JUMP JUMPDEST POP DUP5 DUP5 PUSH32 0xCC16F5DBB4873280815C1EE09DBD06736CFFCC184412CF7A71A0FDB75D397CA5 SWAP3 DUP9 MLOAD SWAP5 DUP6 MSTORE AND SWAP3 LOG2 DUP1 RETURN JUMPDEST DUP11 MLOAD PUSH32 0xE450D38C00000000000000000000000000000000000000000000000000000000 DUP2 MSTORE ADDRESS DUP2 DUP12 ADD SWAP1 DUP2 MSTORE PUSH1 0x20 DUP2 ADD SWAP3 SWAP1 SWAP3 MSTORE PUSH1 0x40 DUP3 ADD DUP12 SWAP1 MSTORE SWAP1 DUP2 SWAP1 PUSH1 0x60 ADD SUB SWAP1 REVERT JUMPDEST PUSH1 0x24 DUP9 DUP8 DUP13 MLOAD SWAP2 PUSH32 0x96C6FD1E00000000000000000000000000000000000000000000000000000000 DUP4 MSTORE DUP3 ADD MSTORE REVERT JUMPDEST PUSH1 0x64 DUP9 DUP9 DUP13 MLOAD SWAP2 PUSH32 0x8C379A000000000000000000000000000000000000000000000000000000000 DUP4 MSTORE DUP3 ADD MSTORE PUSH1 0x13 PUSH1 0x24 DUP3 ADD MSTORE PUSH32 0x466565207472616E73666572206661696C656400000000000000000000000000 PUSH1 0x44 DUP3 ADD MSTORE REVERT JUMPDEST PUSH2 0xFEB SWAP2 POP DUP9 RETURNDATASIZE DUP11 GT PUSH2 0xE45 JUMPI PUSH2 0xE37 DUP2 DUP4 PUSH2 0x280C JUMP JUMPDEST DUP12 PUSH2 0xC67 JUMP JUMPDEST DUP12 MLOAD RETURNDATASIZE DUP10 DUP3 RETURNDATACOPY RETURNDATASIZE SWAP1 REVERT JUMPDEST SWAP3 DUP1 SWAP3 SWAP5 SWAP6 SWAP7 SWAP8 SWAP9 POP DUP4 SWAP2 POP RETURNDATASIZE DUP4 GT PUSH2 0x103F JUMPI JUMPDEST PUSH2 0x1019 DUP2 DUP4 PUSH2 0x280C JUMP JUMPDEST DUP2 ADD SUB SLT PUSH2 0x103B JUMPI MLOAD DUP4 DUP2 AND DUP2 SUB PUSH2 0x103B JUMPI DUP9 SWAP6 SWAP5 SWAP4 SWAP3 SWAP2 DUP9 SWAP2 PUSH2 0xC53 PUSH2 0xBF6 JUMP JUMPDEST DUP7 DUP1 REVERT JUMPDEST POP RETURNDATASIZE PUSH2 0x100F JUMP JUMPDEST DUP13 DUP11 DUP13 PUSH1 0x24 DUP10 PUSH2 0x1055 DUP7 PUSH2 0x290E JUMP JUMPDEST POP SLOAD AND SWAP4 MLOAD DUP1 SWAP5 DUP2 SWAP4 PUSH32 0x70A0823100000000000000000000000000000000000000000000000000000000 DUP4 MSTORE ADDRESS SWAP1 DUP4 ADD MSTORE GAS STATICCALL SWAP1 DUP2 ISZERO PUSH2 0x10F4 JUMPI DUP4 SWAP3 SWAP2 DUP15 SWAP2 DUP13 SWAP2 PUSH2 0x10BD JUMPI JUMPDEST POP SWAP3 PUSH2 0x433 PUSH2 0x10AC SWAP3 PUSH1 0x1 SWAP6 PUSH2 0x2BB0 JUMP JUMPDEST PUSH2 0x10B6 DUP3 DUP12 PUSH2 0x29D8 JUMP JUMPDEST MSTORE ADD PUSH2 0xB8E JUMP JUMPDEST SWAP4 POP POP POP DUP11 DUP3 DUP2 RETURNDATASIZE DUP4 GT PUSH2 0x10ED JUMPI JUMPDEST PUSH2 0x10D6 DUP2 DUP4 PUSH2 0x280C JUMP JUMPDEST DUP2 ADD SUB SLT PUSH2 0xE7E JUMPI SWAP1 MLOAD DUP3 SWAP2 SWAP1 DUP14 SWAP1 PUSH2 0x433 PUSH2 0x109B JUMP JUMPDEST POP RETURNDATASIZE PUSH2 0x10CC JUMP JUMPDEST DUP15 MLOAD RETURNDATASIZE DUP13 DUP3 RETURNDATACOPY RETURNDATASIZE SWAP1 REVERT JUMPDEST PUSH1 0x24 DUP9 PUSH1 0x11 DUP13 PUSH32 0x4E487B7100000000000000000000000000000000000000000000000000000000 DUP4 MSTORE MSTORE REVERT JUMPDEST PUSH1 0x64 DUP7 DUP7 DUP11 MLOAD SWAP2 PUSH32 0x8C379A000000000000000000000000000000000000000000000000000000000 DUP4 MSTORE DUP3 ADD MSTORE PUSH1 0xC PUSH1 0x24 DUP3 ADD MSTORE PUSH32 0x4E6F206C69717569646974790000000000000000000000000000000000000000 PUSH1 0x44 DUP3 ADD MSTORE REVERT JUMPDEST PUSH1 0x64 DUP6 DUP6 DUP10 MLOAD SWAP2 PUSH32 0x8C379A000000000000000000000000000000000000000000000000000000000 DUP4 MSTORE DUP3 ADD MSTORE PUSH1 0x1C PUSH1 0x24 DUP3 ADD MSTORE PUSH32 0x5368617265206D7573742062652067726561746572207468616E203000000000 PUSH1 0x44 DUP3 ADD MSTORE REVERT JUMPDEST DUP3 DUP1 REVERT JUMPDEST DUP3 DUP5 CALLVALUE PUSH2 0x636 JUMPI DUP1 PUSH32 0xFFFFFFFFFFFFFFFFFFFFFFFFFFFFFFFFFFFFFFFFFFFFFFFFFFFFFFFFFFFFFFFC CALLDATASIZE ADD SLT PUSH2 0x636 JUMPI PUSH2 0x121E PUSH2 0x2CA6 JUMP JUMPDEST SWAP3 SWAP1 DUP2 MLOAD SWAP4 DUP3 DUP6 SWAP4 DUP5 ADD SWAP1 DUP5 MSTORE DUP3 MLOAD DUP1 SWAP2 MSTORE PUSH1 0x60 DUP5 ADD SWAP3 PUSH1 0x20 DUP1 SWAP2 ADD SWAP6 JUMPDEST DUP3 DUP2 LT PUSH2 0x1257 JUMPI DUP6 DUP1 PUSH2 0x78A DUP8 DUP8 DUP4 DUP3 SUB PUSH1 0x20 DUP6 ADD MSTORE PUSH2 0x2738 JUMP JUMPDEST DUP7 MLOAD ISZERO ISZERO DUP6 MSTORE SWAP6 DUP2 ADD SWAP6 DUP8 SWAP6 POP SWAP4 DUP2 ADD SWAP4 PUSH1 0x1 ADD PUSH2 0x123C JUMP JUMPDEST POP POP CALLVALUE PUSH2 0x1E3 JUMPI DUP2 PUSH32 0xFFFFFFFFFFFFFFFFFFFFFFFFFFFFFFFFFFFFFFFFFFFFFFFFFFFFFFFFFFFFFFFC CALLDATASIZE ADD SLT PUSH2 0x1E3 JUMPI PUSH1 0x20 SWAP1 PUSH1 0x8 SLOAD SWAP1 MLOAD SWAP1 DUP2 MSTORE RETURN JUMPDEST SWAP2 SWAP1 POP CALLVALUE PUSH2 0x11E2 JUMPI PUSH1 0x20 SWAP2 PUSH1 0x20 PUSH32 0xFFFFFFFFFFFFFFFFFFFFFFFFFFFFFFFFFFFFFFFFFFFFFFFFFFFFFFFFFFFFFFFC CALLDATASIZE ADD SLT PUSH2 0x632 JUMPI DUP1 CALLDATALOAD SWAP1 PUSH8 0xFFFFFFFFFFFFFFFF DUP3 GT PUSH2 0x136E JUMPI PUSH2 0x1300 SWAP2 CALLDATASIZE SWAP2 ADD PUSH2 0x2865 JUMP JUMPDEST SWAP1 PUSH20 0xFFFFFFFFFFFFFFFFFFFFFFFFFFFFFFFFFFFFFFFF SWAP3 PUSH2 0x1326 DUP5 PUSH1 0xA SLOAD AND CALLER EQ PUSH2 0x2A97 JUMP JUMPDEST DUP5 JUMPDEST PUSH1 0x7 SLOAD DUP2 LT ISZERO PUSH2 0x136A JUMPI DUP1 DUP6 PUSH2 0x133F PUSH1 0x1 SWAP4 PUSH2 0x290E JUMP JUMPDEST POP SLOAD AND PUSH2 0x134C DUP3 DUP8 PUSH2 0x29D8 JUMP JUMPDEST MLOAD SWAP1 DUP9 MSTORE PUSH1 0xC DUP5 MSTORE PUSH2 0x1362 DUP6 DUP10 KECCAK256 SWAP2 DUP3 SLOAD PUSH2 0x2C8C JUMP JUMPDEST SWAP1 SSTORE ADD PUSH2 0x1328 JUMP JUMPDEST DUP6 DUP1 RETURN JUMPDEST DUP5 DUP1 REVERT JUMPDEST POP POP CALLVALUE PUSH2 0x1E3 JUMPI DUP2 PUSH32 0xFFFFFFFFFFFFFFFFFFFFFFFFFFFFFFFFFFFFFFFFFFFFFFFFFFFFFFFFFFFFFFFC CALLDATASIZE ADD SLT PUSH2 0x1E3 JUMPI PUSH1 0x20 SWAP1 PUSH20 0xFFFFFFFFFFFFFFFFFFFFFFFFFFFFFFFFFFFFFFFF PUSH1 0xA SLOAD AND SWAP1 MLOAD SWAP1 DUP2 MSTORE RETURN JUMPDEST POP POP CALLVALUE PUSH2 0x1E3 JUMPI PUSH1 0x20 PUSH32 0xFFFFFFFFFFFFFFFFFFFFFFFFFFFFFFFFFFFFFFFFFFFFFFFFFFFFFFFFFFFFFFFC CALLDATASIZE ADD SLT PUSH2 0x1E3 JUMPI DUP1 PUSH1 0x20 SWAP3 PUSH20 0xFFFFFFFFFFFFFFFFFFFFFFFFFFFFFFFFFFFFFFFF PUSH2 0x1417 PUSH2 0x26F2 JUMP JUMPDEST AND DUP2 MSTORE DUP1 DUP5 MSTORE KECCAK256 SLOAD SWAP1 MLOAD SWAP1 DUP2 MSTORE RETURN JUMPDEST SWAP2 SWAP1 POP CALLVALUE PUSH2 0x11E2 JUMPI PUSH1 0x80 PUSH32 0xFFFFFFFFFFFFFFFFFFFFFFFFFFFFFFFFFFFFFFFFFFFFFFFFFFFFFFFFFFFFFFFC CALLDATASIZE ADD SLT PUSH2 0x11E2 JUMPI PUSH2 0x1460 PUSH2 0x26F2 JUMP JUMPDEST PUSH2 0x1468 PUSH2 0x2715 JUMP JUMPDEST SWAP1 PUSH1 0x44 CALLDATALOAD PUSH1 0x64 CALLDATALOAD SWAP2 PUSH20 0xFFFFFFFFFFFFFFFFFFFFFFFFFFFFFFFFFFFFFFFF SWAP6 DUP7 DUP5 AND SWAP1 DUP2 DUP6 SUB PUSH2 0xE7E JUMPI PUSH1 0x2 PUSH1 0x5 SLOAD EQ PUSH2 0x16F3 JUMPI PUSH1 0x2 PUSH1 0x5 SSTORE DUP8 DUP7 AND SWAP5 DUP9 DUP5 AND SWAP4 DUP7 DUP6 EQ PUSH2 0x1696 JUMPI DUP6 ISZERO PUSH2 0x1639 JUMPI DUP6 DUP9 PUSH2 0x14C0 SWAP3 PUSH2 0x2AFC JUMP JUMPDEST SWAP7 DUP7 DUP12 MSTORE PUSH1 0xC PUSH1 0x20 MSTORE PUSH2 0x14D8 DUP9 DUP11 DUP14 KECCAK256 SLOAD LT ISZERO PUSH2 0x2C27 JUMP JUMPDEST PUSH2 0x12C DUP1 DUP10 MUL SWAP1 DUP10 DUP3 DIV EQ DUP10 ISZERO OR ISZERO PUSH2 0x160D JUMPI SWAP1 PUSH2 0x14FC PUSH2 0x2710 DUP14 SWAP5 SWAP4 DIV DUP11 PUSH2 0x2C8C JUMP JUMPDEST SWAP11 PUSH1 0xA SLOAD AND SWAP1 DUP2 EXTCODESIZE ISZERO PUSH2 0x632 JUMPI DUP4 DUP13 SWAP6 PUSH2 0x156D DUP14 MLOAD SWAP8 DUP9 SWAP7 DUP8 SWAP6 DUP7 SWAP5 PUSH32 0xE3898E9500000000000000000000000000000000000000000000000000000000 DUP7 MSTORE DUP6 ADD PUSH1 0x40 SWAP2 SWAP5 SWAP4 SWAP3 SWAP5 PUSH1 0x60 DUP3 ADD SWAP6 PUSH20 0xFFFFFFFFFFFFFFFFFFFFFFFFFFFFFFFFFFFFFFFF DUP1 SWAP3 AND DUP4 MSTORE AND PUSH1 0x20 DUP3 ADD MSTORE ADD MSTORE JUMP JUMPDEST SUB SWAP3 GAS CALL DUP1 ISZERO PUSH2 0x1603 JUMPI PUSH2 0x15EB JUMPI JUMPDEST POP SWAP3 DUP6 SWAP3 DUP3 DUP3 PUSH1 0x20 SWAP11 SWAP5 PUSH2 0x15DE SWAP8 PUSH32 0xCD3829A3813DC3CDD188FD3D01DCF3268C16BE2FDD2DD21D0665418816E46062 DUP9 DUP14 DUP2 MLOAD SWAP1 DUP9 DUP3 MSTORE PUSH1 0x20 DUP3 ADD MSTORE LOG4 DUP4 MSTORE PUSH1 0xC DUP10 MSTORE PUSH2 0x15CD DUP5 DUP5 KECCAK256 SWAP2 DUP3 SLOAD PUSH2 0x2C99 JUMP JUMPDEST SWAP1 SSTORE DUP2 MSTORE PUSH1 0xC DUP8 MSTORE KECCAK256 SWAP2 DUP3 SLOAD PUSH2 0x2C99 JUMP JUMPDEST SWAP1 SSTORE PUSH1 0x1 PUSH1 0x5 SSTORE MLOAD SWAP1 DUP2 MSTORE RETURN JUMPDEST PUSH2 0x15F5 DUP10 SWAP2 PUSH2 0x27CB JUMP JUMPDEST PUSH2 0x15FF JUMPI PUSH0 PUSH2 0x157C JUMP JUMPDEST DUP8 DUP1 REVERT JUMPDEST DUP8 MLOAD RETURNDATASIZE DUP12 DUP3 RETURNDATACOPY RETURNDATASIZE SWAP1 REVERT JUMPDEST PUSH1 0x24 DUP13 PUSH1 0x11 DUP7 PUSH32 0x4E487B7100000000000000000000000000000000000000000000000000000000 DUP4 MSTORE MSTORE REVERT JUMPDEST PUSH1 0x64 DUP4 PUSH1 0x20 DUP12 MLOAD SWAP2 PUSH32 0x8C379A000000000000000000000000000000000000000000000000000000000 DUP4 MSTORE DUP3 ADD MSTORE PUSH1 0x20 PUSH1 0x24 DUP3 ADD MSTORE PUSH32 0x416D6F756E74206D7573742062652067726561746572207468616E207A65726F PUSH1 0x44 DUP3 ADD MSTORE REVERT JUMPDEST PUSH1 0x64 DUP4 PUSH1 0x20 DUP12 MLOAD SWAP2 PUSH32 0x8C379A000000000000000000000000000000000000000000000000000000000 DUP4 MSTORE DUP3 ADD MSTORE PUSH1 0x1A PUSH1 0x24 DUP3 ADD MSTORE PUSH32 0x43616E6E6F742073776170207468652073616D6520746F6B656E000000000000 PUSH1 0x44 DUP3 ADD MSTORE REVERT JUMPDEST DUP7 MLOAD PUSH32 0x3EE5AEB500000000000000000000000000000000000000000000000000000000 DUP2 MSTORE REVERT JUMPDEST DUP3 DUP5 CALLVALUE PUSH2 0x636 JUMPI DUP1 PUSH32 0xFFFFFFFFFFFFFFFFFFFFFFFFFFFFFFFFFFFFFFFFFFFFFFFFFFFFFFFFFFFFFFFC CALLDATASIZE ADD SLT PUSH2 0x636 JUMPI PUSH1 0x7 SLOAD PUSH2 0x1756 DUP2 PUSH2 0x29EC JUMP JUMPDEST SWAP2 JUMPDEST DUP2 DUP2 LT PUSH2 0x1774 JUMPI DUP4 MLOAD PUSH1 0x20 DUP1 DUP3 MSTORE DUP2 SWAP1 PUSH2 0x78A SWAP1 DUP3 ADD DUP7 PUSH2 0x28C5 JUMP JUMPDEST DUP1 PUSH20 0xFFFFFFFFFFFFFFFFFFFFFFFFFFFFFFFFFFFFFFFF PUSH2 0x1795 PUSH1 0x1 SWAP4 PUSH2 0x290E JUMP JUMPDEST POP SLOAD AND PUSH2 0x17A2 DUP3 DUP7 PUSH2 0x29D8 JUMP JUMPDEST MSTORE ADD PUSH2 0x1758 JUMP JUMPDEST POP POP CALLVALUE PUSH2 0x1E3 JUMPI DUP2 PUSH32 0xFFFFFFFFFFFFFFFFFFFFFFFFFFFFFFFFFFFFFFFFFFFFFFFFFFFFFFFFFFFFFFFC CALLDATASIZE ADD SLT PUSH2 0x1E3 JUMPI PUSH1 0x20 SWAP1 MLOAD PUSH2 0x12C DUP2 MSTORE RETURN JUMPDEST SWAP1 POP CALLVALUE PUSH2 0xE7E JUMPI PUSH1 0x20 SWAP1 PUSH32 0xFFFFFFFFFFFFFFFFFFFFFFFFFFFFFFFFFFFFFFFFFFFFFFFFFFFFFFFFFFFFFFFC SWAP3 DUP3 DUP5 CALLDATASIZE ADD SLT PUSH2 0xE7E JUMPI PUSH2 0x1821 PUSH2 0x26F2 JUMP JUMPDEST SWAP2 PUSH2 0x1832 PUSH2 0x182D PUSH2 0x2E28 JUMP JUMPDEST PUSH2 0x2973 JUMP JUMPDEST PUSH1 0x2 SLOAD PUSH2 0x3E8 SWAP1 DUP2 DUP2 MUL SWAP2 DUP2 DUP4 DIV EQ SWAP1 ISZERO OR ISZERO PUSH2 0x1BCC JUMPI PUSH2 0x2710 SWAP1 PUSH20 0xFFFFFFFFFFFFFFFFFFFFFFFFFFFFFFFFFFFFFFFF DUP1 SWAP6 AND PUSH0 MSTORE PUSH0 DUP7 MSTORE DIV DUP3 PUSH0 KECCAK256 SLOAD LT PUSH2 0x1B71 JUMPI PUSH1 0x7 SWAP5 PUSH1 0x7 SLOAD PUSH2 0x1883 DUP2 PUSH2 0x29EC JUMP JUMPDEST SWAP2 PUSH2 0x188D DUP3 PUSH2 0x29EC JUMP JUMPDEST SWAP2 PUSH0 JUMPDEST DUP2 DUP2 LT PUSH2 0x1B38 JUMPI POP POP DUP6 PUSH1 0xA SLOAD AND DUP1 EXTCODESIZE ISZERO PUSH2 0xE7E JUMPI PUSH0 DUP1 SWAP2 DUP7 DUP9 MLOAD DUP1 SWAP5 DUP2 SWAP4 PUSH32 0xB997352700000000000000000000000000000000000000000000000000000000 DUP4 MSTORE GAS CALL DUP1 ISZERO PUSH2 0x1B2E JUMPI PUSH2 0x1B19 JUMPI JUMPDEST POP SWAP1 DUP9 SWAP2 DUP7 PUSH1 0x6 SLOAD AND PUSH1 0x8 SLOAD SWAP1 DUP9 PUSH1 0xB SLOAD AND DUP2 EXTCODESIZE ISZERO PUSH2 0x1B15 JUMPI DUP9 MLOAD PUSH32 0x325192D00000000000000000000000000000000000000000000000000000000 DUP2 MSTORE PUSH1 0xC0 DUP2 DUP11 ADD MSTORE SWAP5 DUP7 SWAP5 DUP7 SWAP5 DUP6 SWAP4 DUP8 SWAP4 DUP6 SWAP4 PUSH2 0x194E SWAP2 PUSH2 0x193F PUSH1 0xC4 DUP8 ADD DUP16 PUSH2 0x28C5 JUMP JUMPDEST SWAP2 DUP7 DUP4 SUB ADD PUSH1 0x24 DUP8 ADD MSTORE PUSH2 0x2738 JUMP JUMPDEST SWAP2 ADDRESS PUSH1 0x44 DUP6 ADD MSTORE ADDRESS PUSH1 0x64 DUP6 ADD MSTORE PUSH1 0x84 DUP5 ADD MSTORE PUSH1 0xA4 DUP4 ADD MSTORE SUB SWAP3 GAS CALL DUP1 ISZERO PUSH2 0x1B0B JUMPI PUSH2 0x1AF7 JUMPI JUMPDEST POP JUMPDEST DUP7 SLOAD DUP2 LT ISZERO PUSH2 0x1AB9 JUMPI DUP5 PUSH2 0x1989 DUP3 PUSH2 0x290E JUMP JUMPDEST POP SLOAD AND DUP5 MLOAD PUSH32 0x70A0823100000000000000000000000000000000000000000000000000000000 DUP2 MSTORE ADDRESS DUP6 DUP3 ADD MSTORE DUP8 DUP2 PUSH1 0x24 DUP2 DUP6 GAS STATICCALL SWAP1 DUP2 ISZERO PUSH2 0x1AAF JUMPI SWAP1 DUP9 SWAP2 DUP12 SWAP2 PUSH2 0x1A7E JUMPI JUMPDEST POP DUP3 PUSH2 0x1A3C SWAP4 DUP13 MSTORE PUSH1 0xC DUP4 MSTORE DUP2 DUP9 DUP14 KECCAK256 SSTORE DUP9 PUSH1 0xA SLOAD AND DUP13 DUP10 MLOAD DUP1 SWAP7 DUP2 SWAP6 DUP3 SWAP5 PUSH32 0xA9059CBB00000000000000000000000000000000000000000000000000000000 DUP5 MSTORE DUP13 DUP5 ADD PUSH1 0x20 SWAP1 SWAP4 SWAP3 SWAP2 SWAP4 PUSH20 0xFFFFFFFFFFFFFFFFFFFFFFFFFFFFFFFFFFFFFFFF PUSH1 0x40 DUP3 ADD SWAP6 AND DUP2 MSTORE ADD MSTORE JUMP JUMPDEST SUB SWAP3 GAS CALL DUP1 ISZERO PUSH2 0x1A74 JUMPI SWAP1 PUSH1 0x1 SWAP3 SWAP2 PUSH2 0x1A57 JUMPI JUMPDEST POP ADD PUSH2 0x1976 JUMP JUMPDEST PUSH2 0x1A6D SWAP1 DUP9 RETURNDATASIZE DUP11 GT PUSH2 0xE45 JUMPI PUSH2 0xE37 DUP2 DUP4 PUSH2 0x280C JUMP JUMPDEST POP PUSH0 PUSH2 0x1A50 JUMP JUMPDEST DUP6 MLOAD RETURNDATASIZE DUP12 DUP3 RETURNDATACOPY RETURNDATASIZE SWAP1 REVERT JUMPDEST DUP3 DUP2 SWAP4 SWAP3 POP RETURNDATASIZE DUP4 GT PUSH2 0x1AA8 JUMPI JUMPDEST PUSH2 0x1A95 DUP2 DUP4 PUSH2 0x280C JUMP JUMPDEST DUP2 ADD SUB SLT PUSH2 0xE7E JUMPI MLOAD DUP8 SWAP1 PUSH2 0x1A3C PUSH2 0x19CF JUMP JUMPDEST POP RETURNDATASIZE PUSH2 0x1A8B JUMP JUMPDEST DUP7 MLOAD RETURNDATASIZE DUP13 DUP3 RETURNDATACOPY RETURNDATASIZE SWAP1 REVERT JUMPDEST DUP4 MLOAD DUP7 DUP2 MSTORE DUP9 SWAP1 CALLER SWAP1 PUSH32 0x279B343370F587AF7FB675AE7C8578E9C8ABCC373236AD02C501A4771FE7A7B8 SWAP1 DUP1 PUSH2 0x1AF1 DUP2 DUP13 ADD DUP9 PUSH2 0x28C5 JUMP JUMPDEST SUB SWAP1 LOG2 DUP1 RETURN JUMPDEST PUSH2 0x1B00 SWAP1 PUSH2 0x27CB JUMP JUMPDEST PUSH2 0x103B JUMPI DUP7 PUSH0 PUSH2 0x1974 JUMP JUMPDEST DUP6 MLOAD RETURNDATASIZE DUP5 DUP3 RETURNDATACOPY RETURNDATASIZE SWAP1 REVERT JUMPDEST DUP6 DUP1 REVERT JUMPDEST PUSH2 0x1B25 SWAP2 SWAP3 SWAP10 POP PUSH2 0x27CB JUMP JUMPDEST PUSH0 SWAP8 SWAP1 PUSH0 PUSH2 0x18DF JUMP JUMPDEST DUP7 MLOAD RETURNDATASIZE PUSH0 DUP3 RETURNDATACOPY RETURNDATASIZE SWAP1 REVERT JUMPDEST DUP1 DUP9 PUSH2 0x1B45 PUSH1 0x1 SWAP4 PUSH2 0x290E JUMP JUMPDEST POP SLOAD AND PUSH2 0x1B52 DUP3 DUP9 PUSH2 0x29D8 JUMP JUMPDEST MSTORE DUP2 PUSH2 0x1B5D DUP3 PUSH2 0x290E JUMP JUMPDEST POP ADD SLOAD PUSH2 0x1B6A DUP3 DUP8 PUSH2 0x29D8 JUMP JUMPDEST MSTORE ADD PUSH2 0x1890 JUMP JUMPDEST DUP4 PUSH1 0x64 SWAP3 MLOAD SWAP2 PUSH32 0x8C379A000000000000000000000000000000000000000000000000000000000 DUP4 MSTORE DUP3 ADD MSTORE PUSH1 0x11 PUSH1 0x24 DUP3 ADD MSTORE PUSH32 0x556E646572203525204C50207368617265000000000000000000000000000000 PUSH1 0x44 DUP3 ADD MSTORE REVERT JUMPDEST PUSH1 0x11 DUP3 PUSH32 0x4E487B7100000000000000000000000000000000000000000000000000000000 PUSH0 MSTORE MSTORE PUSH1 0x24 PUSH0 REVERT JUMPDEST DUP3 CALLVALUE PUSH2 0xE7E JUMPI PUSH1 0x20 SWAP1 PUSH2 0x1DC PUSH2 0x1C0D CALLDATASIZE PUSH2 0x276B JUMP JUMPDEST SWAP2 PUSH2 0x2AFC JUMP JUMPDEST SWAP1 POP CALLVALUE PUSH2 0xE7E JUMPI DUP2 PUSH32 0xFFFFFFFFFFFFFFFFFFFFFFFFFFFFFFFFFFFFFFFFFFFFFFFFFFFFFFFFFFFFFFFC CALLDATASIZE ADD SLT PUSH2 0xE7E JUMPI DUP1 CALLDATALOAD SWAP1 PUSH8 0xFFFFFFFFFFFFFFFF DUP3 GT PUSH2 0xE7E JUMPI PUSH2 0x1C61 SWAP2 CALLDATASIZE SWAP2 ADD PUSH2 0x2865 JUMP JUMPDEST SWAP1 PUSH1 0x24 CALLDATALOAD DUP1 ISZERO ISZERO DUP2 SUB PUSH2 0xE7E JUMPI PUSH20 0xFFFFFFFFFFFFFFFFFFFFFFFFFFFFFFFFFFFFFFFF SWAP3 PUSH2 0x1C93 DUP5 PUSH1 0xA SLOAD AND CALLER EQ PUSH2 0x2A97 JUMP JUMPDEST PUSH0 JUMPDEST PUSH1 0x7 SLOAD DUP2 LT ISZERO PUSH2 0x1CFB JUMPI DUP1 DUP6 PUSH2 0x1CAC PUSH1 0x1 SWAP4 PUSH2 0x290E JUMP JUMPDEST POP SLOAD AND PUSH2 0x1CB9 DUP3 DUP6 PUSH2 0x29D8 JUMP JUMPDEST MLOAD SWAP1 DUP6 ISZERO PUSH2 0x1CDF JUMPI PUSH0 MSTORE PUSH1 0xC PUSH1 0x20 MSTORE PUSH2 0x1CD6 DUP7 PUSH0 KECCAK256 SWAP2 DUP3 SLOAD PUSH2 0x2C99 JUMP JUMPDEST SWAP1 SSTORE JUMPDEST ADD PUSH2 0x1C95 JUMP JUMPDEST PUSH0 MSTORE PUSH1 0xC PUSH1 0x20 MSTORE PUSH2 0x1CF4 DUP7 PUSH0 KECCAK256 SWAP2 DUP3 SLOAD PUSH2 0x2C8C JUMP JUMPDEST SWAP1 SSTORE PUSH2 0x1CD9 JUMP JUMPDEST STOP JUMPDEST DUP3 CALLVALUE PUSH2 0xE7E JUMPI PUSH0 PUSH32 0xFFFFFFFFFFFFFFFFFFFFFFFFFFFFFFFFFFFFFFFFFFFFFFFFFFFFFFFFFFFFFFFC CALLDATASIZE ADD SLT PUSH2 0xE7E JUMPI PUSH2 0x78A PUSH2 0x1D37 PUSH2 0x2EA9 JUMP JUMPDEST DUP4 SWAP3 SWAP2 SWAP3 MLOAD SWAP4 DUP5 SWAP4 DUP5 MSTORE DUP1 PUSH1 0x20 DUP6 ADD MSTORE DUP4 ADD SWAP1 PUSH2 0x2738 JUMP JUMPDEST DUP3 CALLVALUE PUSH2 0xE7E JUMPI PUSH0 PUSH32 0xFFFFFFFFFFFFFFFFFFFFFFFFFFFFFFFFFFFFFFFFFFFFFFFFFFFFFFFFFFFFFFFC CALLDATASIZE ADD SLT PUSH2 0xE7E JUMPI PUSH1 0x20 SWAP1 MLOAD PUSH1 0x12 DUP2 MSTORE RETURN JUMPDEST SWAP1 POP CALLVALUE PUSH2 0xE7E JUMPI PUSH2 0x1D98 CALLDATASIZE PUSH2 0x276B JUMP JUMPDEST SWAP3 PUSH20 0xFFFFFFFFFFFFFFFFFFFFFFFFFFFFFFFFFFFFFFFF DUP4 SWAP3 SWAP4 AND DUP1 PUSH0 MSTORE PUSH1 0x1 PUSH1 0x20 MSTORE DUP6 PUSH0 KECCAK256 CALLER PUSH0 MSTORE PUSH1 0x20 MSTORE DUP6 PUSH0 KECCAK256 SLOAD SWAP2 PUSH32 0xFFFFFFFFFFFFFFFFFFFFFFFFFFFFFFFFFFFFFFFFFFFFFFFFFFFFFFFFFFFFFFFF DUP4 SUB PUSH2 0x1DFE JUMPI JUMPDEST PUSH1 0x20 DUP8 PUSH2 0x922 DUP9 DUP9 DUP9 PUSH2 0x2FF0 JUMP JUMPDEST DUP6 DUP4 LT PUSH2 0x1E98 JUMPI DUP2 ISZERO PUSH2 0x1E69 JUMPI CALLER ISZERO PUSH2 0x1E3A JUMPI POP PUSH0 SWAP1 DUP2 MSTORE PUSH1 0x1 PUSH1 0x20 SWAP1 DUP2 MSTORE DUP7 DUP3 KECCAK256 CALLER DUP4 MSTORE DUP2 MSTORE SWAP1 DUP7 SWAP1 KECCAK256 SWAP2 DUP6 SWAP1 SUB SWAP1 SWAP2 SSTORE DUP3 SWAP1 PUSH2 0x922 PUSH2 0x1DF0 JUMP JUMPDEST PUSH1 0x24 SWAP1 PUSH0 DUP9 MLOAD SWAP2 PUSH32 0x94280D6200000000000000000000000000000000000000000000000000000000 DUP4 MSTORE DUP3 ADD MSTORE REVERT JUMPDEST PUSH1 0x24 SWAP1 PUSH0 DUP9 MLOAD SWAP2 PUSH32 0xE602DF0500000000000000000000000000000000000000000000000000000000 DUP4 MSTORE DUP3 ADD MSTORE REVERT JUMPDEST DUP7 MLOAD PUSH32 0xFB8F41B200000000000000000000000000000000000000000000000000000000 DUP2 MSTORE CALLER SWAP2 DUP2 ADD SWAP2 DUP3 MSTORE PUSH1 0x20 DUP3 ADD SWAP4 SWAP1 SWAP4 MSTORE PUSH1 0x40 DUP2 ADD DUP7 SWAP1 MSTORE DUP3 SWAP2 POP PUSH1 0x60 ADD SUB SWAP1 REVERT JUMPDEST DUP3 CALLVALUE PUSH2 0xE7E JUMPI PUSH0 PUSH32 0xFFFFFFFFFFFFFFFFFFFFFFFFFFFFFFFFFFFFFFFFFFFFFFFFFFFFFFFFFFFFFFFC CALLDATASIZE ADD SLT PUSH2 0xE7E JUMPI PUSH1 0x7 SLOAD PUSH2 0x1F18 DUP2 PUSH2 0x29EC JUMP JUMPDEST SWAP1 PUSH0 JUMPDEST DUP2 DUP2 LT PUSH2 0x1F37 JUMPI DUP4 MLOAD PUSH1 0x20 DUP1 DUP3 MSTORE DUP2 SWAP1 PUSH2 0x78A SWAP1 DUP3 ADD DUP7 PUSH2 0x2738 JUMP JUMPDEST DUP1 PUSH1 0x1 PUSH2 0x1F44 DUP2 SWAP4 PUSH2 0x290E JUMP JUMPDEST POP ADD SLOAD PUSH2 0x1F51 DUP3 DUP7 PUSH2 0x29D8 JUMP JUMPDEST MSTORE ADD PUSH2 0x1F1B JUMP JUMPDEST DUP3 CALLVALUE PUSH2 0xE7E JUMPI PUSH0 PUSH32 0xFFFFFFFFFFFFFFFFFFFFFFFFFFFFFFFFFFFFFFFFFFFFFFFFFFFFFFFFFFFFFFFC CALLDATASIZE ADD SLT PUSH2 0xE7E JUMPI PUSH1 0x20 SWAP1 PUSH2 0x1F92 PUSH2 0x2EA9 JUMP JUMPDEST POP SWAP1 MLOAD SWAP1 DUP2 MSTORE RETURN JUMPDEST DUP3 CALLVALUE PUSH2 0xE7E JUMPI PUSH0 PUSH32 0xFFFFFFFFFFFFFFFFFFFFFFFFFFFFFFFFFFFFFFFFFFFFFFFFFFFFFFFFFFFFFFFC CALLDATASIZE ADD SLT PUSH2 0xE7E JUMPI PUSH1 0x20 SWAP1 PUSH1 0x2 SLOAD SWAP1 MLOAD SWAP1 DUP2 MSTORE RETURN JUMPDEST DUP3 CALLVALUE PUSH2 0xE7E JUMPI DUP1 PUSH32 0xFFFFFFFFFFFFFFFFFFFFFFFFFFFFFFFFFFFFFFFFFFFFFFFFFFFFFFFFFFFFFFFC CALLDATASIZE ADD SLT PUSH2 0xE7E JUMPI PUSH2 0x200D PUSH2 0x26F2 JUMP JUMPDEST PUSH1 0x24 CALLDATALOAD SWAP1 CALLER ISZERO PUSH2 0x20AC JUMPI PUSH20 0xFFFFFFFFFFFFFFFFFFFFFFFFFFFFFFFFFFFFFFFF AND SWAP1 DUP2 ISZERO PUSH2 0x207D JUMPI PUSH1 0x20 SWAP4 POP CALLER PUSH0 MSTORE PUSH1 0x1 DUP5 MSTORE DUP3 PUSH0 KECCAK256 DUP3 PUSH0 MSTORE DUP5 MSTORE DUP1 DUP4 PUSH0 KECCAK256 SSTORE DUP3 MLOAD SWAP1 DUP2 MSTORE PUSH32 0x8C5BE1E5EBEC7D5BD14F71427D1E84F3DD0314C0F7B2291E5B200AC8C7C3B925 DUP5 CALLER SWAP3 LOG3 MLOAD PUSH1 0x1 DUP2 MSTORE RETURN JUMPDEST PUSH1 0x24 DUP5 PUSH0 DUP6 MLOAD SWAP2 PUSH32 0x94280D6200000000000000000000000000000000000000000000000000000000 DUP4 MSTORE DUP3 ADD MSTORE REVERT JUMPDEST PUSH1 0x24 DUP5 PUSH0 DUP6 MLOAD SWAP2 PUSH32 0xE602DF0500000000000000000000000000000000000000000000000000000000 DUP4 MSTORE DUP3 ADD MSTORE REVERT JUMPDEST DUP3 CALLVALUE PUSH2 0xE7E JUMPI PUSH0 PUSH32 0xFFFFFFFFFFFFFFFFFFFFFFFFFFFFFFFFFFFFFFFFFFFFFFFFFFFFFFFFFFFFFFFC CALLDATASIZE ADD SLT PUSH2 0xE7E JUMPI PUSH2 0x78A SWAP1 PUSH2 0x2116 PUSH2 0x2A3B JUMP JUMPDEST SWAP1 MLOAD SWAP2 DUP3 SWAP2 PUSH1 0x20 DUP4 MSTORE PUSH1 0x20 DUP4 ADD SWAP1 PUSH2 0x2738 JUMP JUMPDEST DUP3 CALLVALUE PUSH2 0xE7E JUMPI PUSH1 0x20 SWAP1 DUP2 PUSH32 0xFFFFFFFFFFFFFFFFFFFFFFFFFFFFFFFFFFFFFFFFFFFFFFFFFFFFFFFFFFFFFFFC CALLDATASIZE ADD SLT PUSH2 0xE7E JUMPI PUSH2 0x2163 PUSH2 0x26F2 JUMP JUMPDEST SWAP2 PUSH2 0x216F PUSH2 0x182D PUSH2 0x2E28 JUMP JUMPDEST PUSH2 0x2177 PUSH2 0x2EA9 JUMP JUMPDEST SWAP5 SWAP1 PUSH1 0x7 SLOAD SWAP1 PUSH2 0x2186 DUP3 PUSH2 0x29EC JUMP JUMPDEST SWAP7 PUSH0 JUMPDEST DUP4 DUP2 LT PUSH2 0x24B7 JUMPI POP POP POP PUSH0 SWAP1 PUSH0 SWAP1 JUMPDEST DUP1 DUP3 LT PUSH2 0x2496 JUMPI POP POP PUSH0 JUMPDEST DUP7 MLOAD DUP2 LT ISZERO PUSH2 0x244F JUMPI PUSH2 0x21B6 DUP2 DUP9 PUSH2 0x29D8 JUMP JUMPDEST MLOAD PUSH2 0x21C4 JUMPI JUMPDEST PUSH1 0x1 ADD PUSH2 0x21A3 JUMP JUMPDEST PUSH2 0x2249 PUSH2 0x21D1 DUP3 DUP10 PUSH2 0x29D8 JUMP JUMPDEST MLOAD DUP6 PUSH2 0x21DC DUP5 PUSH2 0x290E JUMP JUMPDEST POP SLOAD PUSH1 0x6 SLOAD PUSH1 0xB SLOAD DUP11 MLOAD PUSH32 0x248391FF00000000000000000000000000000000000000000000000000000000 DUP2 MSTORE PUSH20 0xFFFFFFFFFFFFFFFFFFFFFFFFFFFFFFFFFFFFFFFF SWAP2 DUP3 AND DUP11 DUP3 ADD SWAP1 DUP2 MSTORE SWAP4 DUP3 AND PUSH1 0x20 DUP6 ADD MSTORE PUSH1 0x40 DUP5 ADD SWAP6 SWAP1 SWAP6 MSTORE SWAP4 SWAP5 DUP6 SWAP3 SWAP2 DUP6 AND SWAP2 DUP4 SWAP2 DUP3 SWAP2 PUSH1 0x60 ADD SWAP1 JUMP JUMPDEST SUB SWAP2 GAS STATICCALL SWAP2 DUP3 ISZERO PUSH2 0x2445 JUMPI PUSH0 SWAP3 PUSH2 0x2416 JUMPI JUMPDEST POP DUP2 ISZERO PUSH2 0x23BA JUMPI DUP1 PUSH2 0x226C DUP5 PUSH2 0x290E JUMP JUMPDEST POP SLOAD DUP9 MLOAD PUSH32 0x23B872DD00000000000000000000000000000000000000000000000000000000 DUP2 MSTORE CALLER DUP9 DUP3 ADD SWAP1 DUP2 MSTORE ADDRESS PUSH1 0x20 DUP3 ADD MSTORE PUSH1 0x40 DUP2 ADD DUP7 SWAP1 MSTORE SWAP1 SWAP3 DUP10 SWAP3 DUP5 SWAP3 DUP4 SWAP1 SUB PUSH1 0x60 ADD SWAP2 DUP4 SWAP2 PUSH0 SWAP2 AND GAS CALL DUP1 ISZERO PUSH2 0x2393 JUMPI PUSH2 0x239D JUMPI JUMPDEST POP PUSH2 0x2336 DUP7 DUP4 DUP4 PUSH2 0x22D6 DUP8 PUSH2 0x290E JUMP JUMPDEST POP SLOAD AND DUP5 PUSH1 0xA SLOAD AND PUSH0 DUP11 DUP14 MLOAD SWAP7 DUP8 SWAP6 DUP7 SWAP5 DUP6 SWAP4 PUSH32 0xA9059CBB00000000000000000000000000000000000000000000000000000000 DUP6 MSTORE DUP5 ADD PUSH1 0x20 SWAP1 SWAP4 SWAP3 SWAP2 SWAP4 PUSH20 0xFFFFFFFFFFFFFFFFFFFFFFFFFFFFFFFFFFFFFFFF PUSH1 0x40 DUP3 ADD SWAP6 AND DUP2 MSTORE ADD MSTORE JUMP JUMPDEST SUB SWAP3 GAS CALL DUP1 ISZERO PUSH2 0x2393 JUMPI SWAP1 PUSH1 0x1 SWAP5 SWAP4 SWAP3 SWAP2 PUSH2 0x2376 JUMPI JUMPDEST POP PUSH2 0x2356 DUP4 PUSH2 0x290E JUMP JUMPDEST POP SLOAD AND PUSH0 MSTORE PUSH1 0xC DUP7 MSTORE PUSH2 0x236D DUP8 PUSH0 KECCAK256 SWAP2 DUP3 SLOAD PUSH2 0x2C99 JUMP JUMPDEST SWAP1 SSTORE SWAP1 POP PUSH2 0x21BC JUMP JUMPDEST PUSH2 0x238C SWAP1 DUP9 RETURNDATASIZE DUP11 GT PUSH2 0xE45 JUMPI PUSH2 0xE37 DUP2 DUP4 PUSH2 0x280C JUMP JUMPDEST POP DUP11 PUSH2 0x234C JUMP JUMPDEST DUP9 MLOAD RETURNDATASIZE PUSH0 DUP3 RETURNDATACOPY RETURNDATASIZE SWAP1 REVERT JUMPDEST PUSH2 0x23B3 SWAP1 DUP8 RETURNDATASIZE DUP10 GT PUSH2 0xE45 JUMPI PUSH2 0xE37 DUP2 DUP4 PUSH2 0x280C JUMP JUMPDEST POP DUP10 PUSH2 0x22C6 JUMP JUMPDEST PUSH1 0x64 DUP6 DUP8 DUP10 MLOAD SWAP2 PUSH32 0x8C379A000000000000000000000000000000000000000000000000000000000 DUP4 MSTORE DUP3 ADD MSTORE PUSH1 0x1B PUSH1 0x24 DUP3 ADD MSTORE PUSH32 0x496E76616C696420746F6B656E20616D6F756E7420746F206164640000000000 PUSH1 0x44 DUP3 ADD MSTORE REVERT JUMPDEST SWAP1 SWAP2 POP DUP6 DUP2 DUP2 RETURNDATASIZE DUP4 GT PUSH2 0x243E JUMPI JUMPDEST PUSH2 0x242E DUP2 DUP4 PUSH2 0x280C JUMP JUMPDEST DUP2 ADD SUB SLT PUSH2 0xE7E JUMPI MLOAD SWAP1 DUP10 PUSH2 0x225B JUMP JUMPDEST POP RETURNDATASIZE PUSH2 0x2424 JUMP JUMPDEST DUP8 MLOAD RETURNDATASIZE PUSH0 DUP3 RETURNDATACOPY RETURNDATASIZE SWAP1 REVERT JUMPDEST DUP4 PUSH32 0xA95AD530009C6F929555E70A66AADBEAE7231E45756C5B028CA77FBAA376E73E PUSH2 0x2491 DUP10 DUP9 PUSH2 0x2480 DUP8 DUP13 PUSH2 0x2F56 JUMP JUMPDEST MLOAD SWAP2 DUP3 SWAP2 DUP6 DUP4 MSTORE CALLER SWAP6 DUP4 ADD SWAP1 PUSH2 0x2738 JUMP JUMPDEST SUB SWAP1 LOG2 STOP JUMPDEST SWAP1 SWAP2 PUSH2 0x24AF PUSH1 0x1 SWAP2 PUSH2 0x24A8 DUP6 DUP12 PUSH2 0x29D8 JUMP JUMPDEST MLOAD SWAP1 PUSH2 0x2C99 JUMP JUMPDEST SWAP3 ADD SWAP1 PUSH2 0x2198 JUMP JUMPDEST DUP1 PUSH2 0x2710 PUSH2 0x24D3 PUSH1 0x1 PUSH2 0x24CA DUP2 SWAP6 PUSH2 0x290E JUMP JUMPDEST POP ADD SLOAD DUP7 PUSH2 0x2BB0 JUMP JUMPDEST DIV DUP1 PUSH2 0x24DF DUP4 DUP7 PUSH2 0x29D8 JUMP JUMPDEST MLOAD LT PUSH2 0x24ED JUMPI JUMPDEST POP ADD PUSH2 0x2189 JUMP JUMPDEST PUSH2 0x2502 SWAP1 PUSH2 0x24FB DUP4 DUP7 PUSH2 0x29D8 JUMP JUMPDEST MLOAD SWAP1 PUSH2 0x2C8C JUMP JUMPDEST PUSH2 0x250C DUP3 DUP13 PUSH2 0x29D8 JUMP JUMPDEST MSTORE DUP11 PUSH2 0x24E6 JUMP JUMPDEST DUP3 CALLVALUE PUSH2 0xE7E JUMPI PUSH0 PUSH32 0xFFFFFFFFFFFFFFFFFFFFFFFFFFFFFFFFFFFFFFFFFFFFFFFFFFFFFFFFFFFFFFFC CALLDATASIZE ADD SLT PUSH2 0xE7E JUMPI DUP1 MLOAD SWAP1 PUSH0 SWAP3 PUSH1 0x3 SLOAD PUSH1 0x1 DUP2 PUSH1 0x1 SHR SWAP2 PUSH1 0x1 DUP2 AND DUP1 ISZERO PUSH2 0x2652 JUMPI JUMPDEST PUSH1 0x20 SWAP5 DUP6 DUP6 LT DUP3 EQ PUSH2 0x2626 JUMPI POP DUP4 DUP8 MSTORE SWAP1 DUP2 ISZERO PUSH2 0x25E8 JUMPI POP PUSH1 0x1 EQ PUSH2 0x258E JUMPI JUMPDEST POP POP POP PUSH2 0x9A5 DUP3 PUSH2 0x78A SWAP5 SUB DUP4 PUSH2 0x280C JUMP JUMPDEST PUSH1 0x3 PUSH0 SWAP1 DUP2 MSTORE SWAP3 SWAP6 POP PUSH32 0xC2575A0E9E593C00F959F8C92F12DB2869C3395A3B0502D05E2516446F71F85B JUMPDEST DUP3 DUP5 LT PUSH2 0x25D5 JUMPI POP POP POP DUP3 PUSH2 0x78A SWAP5 PUSH2 0x9A5 SWAP3 DUP3 ADD ADD SWAP5 PUSH2 0x257C JUMP JUMPDEST DUP1 SLOAD DUP7 DUP6 ADD DUP9 ADD MSTORE SWAP3 DUP7 ADD SWAP3 DUP2 ADD PUSH2 0x25B9 JUMP JUMPDEST PUSH32 0xFFFFFFFFFFFFFFFFFFFFFFFFFFFFFFFFFFFFFFFFFFFFFFFFFFFFFFFFFFFFFF00 AND DUP7 DUP6 ADD MSTORE POP POP ISZERO ISZERO PUSH1 0x5 SHL DUP4 ADD ADD SWAP3 POP PUSH2 0x9A5 DUP3 PUSH2 0x78A PUSH2 0x257C JUMP JUMPDEST PUSH1 0x22 SWAP1 PUSH32 0x4E487B7100000000000000000000000000000000000000000000000000000000 PUSH0 MSTORE MSTORE PUSH1 0x24 PUSH0 REVERT JUMPDEST SWAP3 PUSH1 0x7F AND SWAP3 PUSH2 0x255C JUMP JUMPDEST CALLVALUE PUSH2 0xE7E JUMPI PUSH0 PUSH32 0xFFFFFFFFFFFFFFFFFFFFFFFFFFFFFFFFFFFFFFFFFFFFFFFFFFFFFFFFFFFFFFFC CALLDATASIZE ADD SLT PUSH2 0xE7E JUMPI PUSH1 0x20 SWAP1 PUSH20 0xFFFFFFFFFFFFFFFFFFFFFFFFFFFFFFFFFFFFFFFF PUSH1 0x6 SLOAD AND DUP2 MSTORE RETURN JUMPDEST PUSH32 0xFFFFFFFFFFFFFFFFFFFFFFFFFFFFFFFFFFFFFFFFFFFFFFFFFFFFFFFFFFFFFFE0 PUSH1 0x1F PUSH1 0x20 PUSH1 0x40 SWAP5 DUP2 DUP6 MSTORE DUP1 MLOAD SWAP2 DUP3 SWAP2 DUP3 DUP3 DUP9 ADD MSTORE ADD DUP7 DUP7 ADD MCOPY PUSH0 DUP6 DUP3 DUP7 ADD ADD MSTORE ADD AND ADD ADD SWAP1 JUMP JUMPDEST PUSH1 0x4 CALLDATALOAD SWAP1 PUSH20 0xFFFFFFFFFFFFFFFFFFFFFFFFFFFFFFFFFFFFFFFF DUP3 AND DUP3 SUB PUSH2 0xE7E JUMPI JUMP JUMPDEST PUSH1 0x24 CALLDATALOAD SWAP1 PUSH20 0xFFFFFFFFFFFFFFFFFFFFFFFFFFFFFFFFFFFFFFFF DUP3 AND DUP3 SUB PUSH2 0xE7E JUMPI JUMP JUMPDEST SWAP1 DUP2 MLOAD DUP1 DUP3 MSTORE PUSH1 0x20 DUP1 DUP1 SWAP4 ADD SWAP4 ADD SWAP2 PUSH0 JUMPDEST DUP3 DUP2 LT PUSH2 0x2757 JUMPI POP POP POP POP SWAP1 JUMP JUMPDEST DUP4 MLOAD DUP6 MSTORE SWAP4 DUP2 ADD SWAP4 SWAP3 DUP2 ADD SWAP3 PUSH1 0x1 ADD PUSH2 0x2749 JUMP JUMPDEST PUSH32 0xFFFFFFFFFFFFFFFFFFFFFFFFFFFFFFFFFFFFFFFFFFFFFFFFFFFFFFFFFFFFFFFC PUSH1 0x60 SWAP2 ADD SLT PUSH2 0xE7E JUMPI PUSH20 0xFFFFFFFFFFFFFFFFFFFFFFFFFFFFFFFFFFFFFFFF SWAP1 PUSH1 0x4 CALLDATALOAD DUP3 DUP2 AND DUP2 SUB PUSH2 0xE7E JUMPI SWAP2 PUSH1 0x24 CALLDATALOAD SWAP1 DUP2 AND DUP2 SUB PUSH2 0xE7E JUMPI SWAP1 PUSH1 0x44 CALLDATALOAD SWAP1 JUMP JUMPDEST PUSH8 0xFFFFFFFFFFFFFFFF DUP2 GT PUSH2 0x27DF JUMPI PUSH1 0x40 MSTORE JUMP JUMPDEST PUSH32 0x4E487B7100000000000000000000000000000000000000000000000000000000 PUSH0 MSTORE PUSH1 0x41 PUSH1 0x4 MSTORE PUSH1 0x24 PUSH0 REVERT JUMPDEST SWAP1 PUSH1 0x1F PUSH32 0xFFFFFFFFFFFFFFFFFFFFFFFFFFFFFFFFFFFFFFFFFFFFFFFFFFFFFFFFFFFFFFE0 SWAP2 ADD AND DUP2 ADD SWAP1 DUP2 LT PUSH8 0xFFFFFFFFFFFFFFFF DUP3 GT OR PUSH2 0x27DF JUMPI PUSH1 0x40 MSTORE JUMP JUMPDEST PUSH8 0xFFFFFFFFFFFFFFFF DUP2 GT PUSH2 0x27DF JUMPI PUSH1 0x5 SHL PUSH1 0x20 ADD SWAP1 JUMP JUMPDEST SWAP1 DUP1 PUSH1 0x1F DUP4 ADD SLT ISZERO PUSH2 0xE7E JUMPI PUSH1 0x20 SWAP1 DUP3 CALLDATALOAD PUSH2 0x287F DUP2 PUSH2 0x284D JUMP JUMPDEST SWAP4 PUSH2 0x288D PUSH1 0x40 MLOAD SWAP6 DUP7 PUSH2 0x280C JUMP JUMPDEST DUP2 DUP6 MSTORE PUSH1 0x20 DUP1 DUP7 ADD SWAP3 PUSH1 0x5 SHL DUP3 ADD ADD SWAP3 DUP4 GT PUSH2 0xE7E JUMPI PUSH1 0x20 ADD SWAP1 JUMPDEST DUP3 DUP3 LT PUSH2 0x28B6 JUMPI POP POP POP POP SWAP1 JUMP JUMPDEST DUP2 CALLDATALOAD DUP2 MSTORE SWAP1 DUP4 ADD SWAP1 DUP4 ADD PUSH2 0x28A8 JUMP JUMPDEST SWAP1 DUP2 MLOAD DUP1 DUP3 MSTORE PUSH1 0x20 DUP1 DUP1 SWAP4 ADD SWAP4 ADD SWAP2 PUSH0 JUMPDEST DUP3 DUP2 LT PUSH2 0x28E4 JUMPI POP POP POP POP SWAP1 JUMP JUMPDEST DUP4 MLOAD PUSH20 0xFFFFFFFFFFFFFFFFFFFFFFFFFFFFFFFFFFFFFFFF AND DUP6 MSTORE SWAP4 DUP2 ADD SWAP4 SWAP3 DUP2 ADD SWAP3 PUSH1 0x1 ADD PUSH2 0x28D6 JUMP JUMPDEST PUSH1 0x7 SLOAD DUP2 LT ISZERO PUSH2 0x2946 JUMPI PUSH1 0x7 PUSH0 MSTORE PUSH1 0x1 SHL PUSH32 0xA66CC928B5EDB82AF9BD49922954155AB7B0942694BEA4CE44661D9A8736C688 ADD SWAP1 PUSH0 SWAP1 JUMP JUMPDEST PUSH32 0x4E487B7100000000000000000000000000000000000000000000000000000000 PUSH0 MSTORE PUSH1 0x32 PUSH1 0x4 MSTORE PUSH1 0x24 PUSH0 REVERT JUMPDEST ISZERO PUSH2 0x297A JUMPI JUMP JUMPDEST PUSH1 0x64 PUSH1 0x40 MLOAD PUSH32 0x8C379A000000000000000000000000000000000000000000000000000000000 DUP2 MSTORE PUSH1 0x20 PUSH1 0x4 DUP3 ADD MSTORE PUSH1 0x14 PUSH1 0x24 DUP3 ADD MSTORE PUSH32 0x526562616C616E6365206E6F74206E6565646564000000000000000000000000 PUSH1 0x44 DUP3 ADD MSTORE REVERT JUMPDEST DUP1 MLOAD DUP3 LT ISZERO PUSH2 0x2946 JUMPI PUSH1 0x20 SWAP2 PUSH1 0x5 SHL ADD ADD SWAP1 JUMP JUMPDEST SWAP1 PUSH2 0x29F6 DUP3 PUSH2 0x284D JUMP JUMPDEST PUSH2 0x2A03 PUSH1 0x40 MLOAD SWAP2 DUP3 PUSH2 0x280C JUMP JUMPDEST DUP3 DUP2 MSTORE PUSH32 0xFFFFFFFFFFFFFFFFFFFFFFFFFFFFFFFFFFFFFFFFFFFFFFFFFFFFFFFFFFFFFFE0 PUSH2 0x2A31 DUP3 SWAP5 PUSH2 0x284D JUMP JUMPDEST ADD SWAP1 PUSH1 0x20 CALLDATASIZE SWAP2 ADD CALLDATACOPY JUMP JUMPDEST PUSH1 0x7 SLOAD PUSH2 0x2A47 DUP2 PUSH2 0x29EC JUMP JUMPDEST SWAP1 PUSH0 JUMPDEST DUP2 DUP2 LT PUSH2 0x2A56 JUMPI POP POP SWAP1 JUMP JUMPDEST DUP1 PUSH20 0xFFFFFFFFFFFFFFFFFFFFFFFFFFFFFFFFFFFFFFFF PUSH2 0x2A77 PUSH1 0x1 SWAP4 PUSH2 0x290E JUMP JUMPDEST POP SLOAD AND PUSH0 MSTORE PUSH1 0xC PUSH1 0x20 MSTORE PUSH1 0x40 PUSH0 KECCAK256 SLOAD PUSH2 0x2A90 DUP3 DUP7 PUSH2 0x29D8 JUMP JUMPDEST MSTORE ADD PUSH2 0x2A4A JUMP JUMPDEST ISZERO PUSH2 0x2A9E JUMPI JUMP JUMPDEST PUSH1 0x64 PUSH1 0x40 MLOAD PUSH32 0x8C379A000000000000000000000000000000000000000000000000000000000 DUP2 MSTORE PUSH1 0x20 PUSH1 0x4 DUP3 ADD MSTORE PUSH1 0xE PUSH1 0x24 DUP3 ADD MSTORE PUSH32 0x4F6E6C7920506572697068657279000000000000000000000000000000000000 PUSH1 0x44 DUP3 ADD MSTORE REVERT JUMPDEST PUSH1 0x6 SLOAD PUSH1 0x40 MLOAD PUSH32 0x248391FF00000000000000000000000000000000000000000000000000000000 DUP2 MSTORE PUSH20 0xFFFFFFFFFFFFFFFFFFFFFFFFFFFFFFFFFFFFFFFF SWAP3 DUP4 AND PUSH1 0x4 DUP3 ADD MSTORE SWAP3 DUP3 AND PUSH1 0x24 DUP5 ADD MSTORE PUSH1 0x44 DUP4 ADD SWAP4 SWAP1 SWAP4 MSTORE SWAP1 SWAP2 PUSH1 0x20 SWAP2 DUP4 SWAP2 AND DUP2 DUP1 PUSH1 0x64 DUP2 ADD JUMPDEST SUB SWAP2 GAS STATICCALL SWAP1 DUP2 ISZERO PUSH2 0x2BA5 JUMPI PUSH0 SWAP2 PUSH2 0x2B76 JUMPI POP SWAP1 JUMP JUMPDEST SWAP1 POP PUSH1 0x20 DUP2 RETURNDATASIZE PUSH1 0x20 GT PUSH2 0x2B9D JUMPI JUMPDEST DUP2 PUSH2 0x2B91 PUSH1 0x20 SWAP4 DUP4 PUSH2 0x280C JUMP JUMPDEST DUP2 ADD SUB SLT PUSH2 0xE7E JUMPI MLOAD SWAP1 JUMP JUMPDEST RETURNDATASIZE SWAP2 POP PUSH2 0x2B84 JUMP JUMPDEST PUSH1 0x40 MLOAD RETURNDATASIZE PUSH0 DUP3 RETURNDATACOPY RETURNDATASIZE SWAP1 REVERT JUMPDEST DUP2 DUP2 MUL SWAP3 SWAP2 DUP2 ISZERO SWAP2 DUP5 DIV EQ OR ISZERO PUSH2 0x2BC3 JUMPI JUMP JUMPDEST PUSH32 0x4E487B7100000000000000000000000000000000000000000000000000000000 PUSH0 MSTORE PUSH1 0x11 PUSH1 0x4 MSTORE PUSH1 0x24 PUSH0 REVERT JUMPDEST DUP2 ISZERO PUSH2 0x2BFA JUMPI DIV SWAP1 JUMP JUMPDEST PUSH32 0x4E487B7100000000000000000000000000000000000000000000000000000000 PUSH0 MSTORE PUSH1 0x12 PUSH1 0x4 MSTORE PUSH1 0x24 PUSH0 REVERT JUMPDEST ISZERO PUSH2 0x2C2E JUMPI JUMP JUMPDEST PUSH1 0x64 PUSH1 0x40 MLOAD PUSH32 0x8C379A000000000000000000000000000000000000000000000000000000000 DUP2 MSTORE PUSH1 0x20 PUSH1 0x4 DUP3 ADD MSTORE PUSH1 0x16 PUSH1 0x24 DUP3 ADD MSTORE PUSH32 0x496E73756666696369656E74204C697175696469747900000000000000000000 PUSH1 0x44 DUP3 ADD MSTORE REVERT JUMPDEST SWAP2 SWAP1 DUP3 SUB SWAP2 DUP3 GT PUSH2 0x2BC3 JUMPI JUMP JUMPDEST SWAP2 SWAP1 DUP3 ADD DUP1 SWAP3 GT PUSH2 0x2BC3 JUMPI JUMP JUMPDEST PUSH2 0x2CAE PUSH2 0x2EA9 JUMP JUMPDEST SWAP2 SWAP1 PUSH1 0x7 SLOAD SWAP1 PUSH2 0x2CBD DUP3 PUSH2 0x284D JUMP JUMPDEST SWAP2 PUSH2 0x2CCB PUSH1 0x40 MLOAD SWAP4 DUP5 PUSH2 0x280C JUMP JUMPDEST DUP1 DUP4 MSTORE PUSH32 0xFFFFFFFFFFFFFFFFFFFFFFFFFFFFFFFFFFFFFFFFFFFFFFFFFFFFFFFFFFFFFFE0 PUSH2 0x2CF8 DUP3 PUSH2 0x284D JUMP JUMPDEST ADD CALLDATASIZE PUSH1 0x20 DUP6 ADD CALLDATACOPY PUSH2 0x2D08 DUP2 PUSH2 0x29EC JUMP JUMPDEST SWAP5 PUSH0 JUMPDEST DUP3 DUP2 LT PUSH2 0x2D1A JUMPI POP POP POP POP SWAP2 SWAP1 JUMP JUMPDEST PUSH2 0x2D24 DUP2 DUP4 PUSH2 0x29D8 JUMP JUMPDEST MLOAD SWAP1 PUSH2 0x2710 SWAP2 DUP3 DUP2 MUL SWAP3 DUP2 DUP5 DIV EQ SWAP1 ISZERO OR ISZERO PUSH2 0x2BC3 JUMPI PUSH2 0x2D46 DUP6 PUSH1 0x1 SWAP4 PUSH2 0x2BF0 JUMP JUMPDEST PUSH2 0x2D4F DUP3 PUSH2 0x290E JUMP JUMPDEST POP DUP4 ADD SLOAD DUP4 SWAP2 DUP2 DUP2 GT ISZERO PUSH2 0x2D84 JUMPI SWAP1 PUSH2 0x2D67 SWAP2 PUSH2 0x2C8C JUMP JUMPDEST PUSH2 0x2D71 DUP4 DUP12 PUSH2 0x29D8 JUMP JUMPDEST MSTORE PUSH2 0x2D7C DUP3 DUP9 PUSH2 0x29D8 JUMP JUMPDEST MSTORE JUMPDEST ADD PUSH2 0x2D0B JUMP JUMPDEST SWAP1 PUSH2 0x2D8F SWAP3 POP PUSH2 0x2C8C JUMP JUMPDEST PUSH2 0x2D99 DUP3 DUP11 PUSH2 0x29D8 JUMP JUMPDEST MSTORE PUSH0 PUSH2 0x2DA5 DUP3 DUP9 PUSH2 0x29D8 JUMP JUMPDEST MSTORE PUSH2 0x2D7E JUMP JUMPDEST ISZERO PUSH2 0x2DB2 JUMPI JUMP JUMPDEST PUSH1 0x64 PUSH1 0x40 MLOAD PUSH32 0x8C379A000000000000000000000000000000000000000000000000000000000 DUP2 MSTORE PUSH1 0x20 PUSH1 0x4 DUP3 ADD MSTORE PUSH1 0x16 PUSH1 0x24 DUP3 ADD MSTORE PUSH32 0x496E73756666696369656E74206C697175696469747900000000000000000000 PUSH1 0x44 DUP3 ADD MSTORE REVERT JUMPDEST SWAP1 DUP2 PUSH1 0x20 SWAP2 SUB SLT PUSH2 0xE7E JUMPI MLOAD DUP1 ISZERO ISZERO DUP2 SUB PUSH2 0xE7E JUMPI SWAP1 JUMP JUMPDEST PUSH2 0x2E30 PUSH2 0x2CA6 JUMP JUMPDEST PUSH0 JUMPDEST DUP2 MLOAD DUP2 LT ISZERO PUSH2 0x2E77 JUMPI PUSH2 0x2E45 DUP2 DUP5 PUSH2 0x29D8 JUMP JUMPDEST MLOAD ISZERO ISZERO DUP1 PUSH2 0x2E62 JUMPI JUMPDEST PUSH2 0x2E5A JUMPI PUSH1 0x1 ADD PUSH2 0x2E32 JUMP JUMPDEST POP POP POP PUSH1 0x1 SWAP1 JUMP JUMPDEST POP PUSH2 0x2E6D DUP2 DUP4 PUSH2 0x29D8 JUMP JUMPDEST MLOAD PUSH1 0x8 SLOAD LT PUSH2 0x2E4E JUMP JUMPDEST POP POP POP PUSH0 SWAP1 JUMP JUMPDEST PUSH2 0x2E86 PUSH2 0x2EA9 JUMP JUMPDEST POP PUSH1 0x2 SLOAD DUP1 ISZERO PUSH2 0x2EA3 JUMPI PUSH2 0x433 PUSH2 0x2EA0 SWAP3 PUSH1 0x9 SLOAD SWAP1 PUSH2 0x2BB0 JUMP JUMPDEST SWAP1 JUMP JUMPDEST POP POP PUSH0 SWAP1 JUMP JUMPDEST PUSH1 0x7 SLOAD SWAP1 PUSH0 PUSH2 0x2EB7 DUP4 PUSH2 0x29EC JUMP JUMPDEST SWAP3 PUSH0 SWAP1 PUSH20 0xFFFFFFFFFFFFFFFFFFFFFFFFFFFFFFFFFFFFFFFF DUP1 PUSH1 0xB SLOAD AND SWAP1 JUMPDEST DUP3 DUP5 LT PUSH2 0x2EE5 JUMPI POP POP POP POP SWAP2 SWAP1 JUMP JUMPDEST SWAP1 SWAP2 SWAP3 SWAP4 PUSH2 0x2F25 PUSH1 0x1 SWAP2 DUP4 PUSH2 0x2EF9 DUP9 PUSH2 0x290E JUMP JUMPDEST POP SLOAD AND DUP6 DUP2 SUB PUSH2 0x2F2F JUMPI PUSH0 MSTORE PUSH1 0xC PUSH1 0x20 MSTORE PUSH1 0x40 PUSH0 KECCAK256 SLOAD PUSH2 0x2F19 DUP9 DUP12 PUSH2 0x29D8 JUMP JUMPDEST MSTORE JUMPDEST PUSH2 0x24A8 DUP8 DUP11 PUSH2 0x29D8 JUMP JUMPDEST SWAP5 ADD SWAP3 SWAP2 SWAP1 PUSH2 0x2ED6 JUMP JUMPDEST DUP1 PUSH2 0x2F46 SWAP2 PUSH0 MSTORE PUSH1 0xC PUSH1 0x20 MSTORE PUSH1 0x40 PUSH0 KECCAK256 SLOAD SWAP1 PUSH2 0x30FD JUMP JUMPDEST PUSH2 0x2F50 DUP9 DUP12 PUSH2 0x29D8 JUMP JUMPDEST MSTORE PUSH2 0x2F1B JUMP JUMPDEST PUSH20 0xFFFFFFFFFFFFFFFFFFFFFFFFFFFFFFFFFFFFFFFF AND SWAP1 DUP2 ISZERO PUSH2 0x2FC0 JUMPI PUSH32 0xDDF252AD1BE2C89B69C2B068FC378DAA952BA7F163C4A11628F55A4DF523B3EF PUSH1 0x20 DUP3 PUSH2 0x2FA4 PUSH0 SWAP5 PUSH1 0x2 SLOAD PUSH2 0x2C99 JUMP JUMPDEST PUSH1 0x2 SSTORE DUP5 DUP5 MSTORE DUP4 DUP3 MSTORE PUSH1 0x40 DUP5 KECCAK256 DUP2 DUP2 SLOAD ADD SWAP1 SSTORE PUSH1 0x40 MLOAD SWAP1 DUP2 MSTORE LOG3 JUMP JUMPDEST PUSH1 0x24 PUSH1 0x40 MLOAD PUSH32 0xEC442F0500000000000000000000000000000000000000000000000000000000 DUP2 MSTORE PUSH0 PUSH1 0x4 DUP3 ADD MSTORE REVERT JUMPDEST SWAP2 PUSH20 0xFFFFFFFFFFFFFFFFFFFFFFFFFFFFFFFFFFFFFFFF DUP1 DUP5 AND SWAP3 DUP4 ISZERO PUSH2 0x30CD JUMPI AND SWAP3 DUP4 ISZERO PUSH2 0x2FC0 JUMPI DUP3 PUSH0 MSTORE PUSH0 PUSH1 0x20 MSTORE PUSH1 0x40 PUSH0 KECCAK256 SLOAD SWAP1 DUP3 DUP3 LT PUSH2 0x3075 JUMPI POP DUP2 PUSH32 0xDDF252AD1BE2C89B69C2B068FC378DAA952BA7F163C4A11628F55A4DF523B3EF SWAP3 PUSH1 0x20 SWAP3 DUP6 PUSH0 MSTORE PUSH0 DUP5 MSTORE SUB PUSH1 0x40 PUSH0 KECCAK256 SSTORE DUP5 PUSH0 MSTORE PUSH1 0x40 PUSH0 KECCAK256 DUP2 DUP2 SLOAD ADD SWAP1 SSTORE PUSH1 0x40 MLOAD SWAP1 DUP2 MSTORE LOG3 JUMP JUMPDEST PUSH1 0x40 MLOAD PUSH32 0xE450D38C00000000000000000000000000000000000000000000000000000000 DUP2 MSTORE PUSH20 0xFFFFFFFFFFFFFFFFFFFFFFFFFFFFFFFFFFFFFFFF SWAP2 SWAP1 SWAP2 AND PUSH1 0x4 DUP3 ADD MSTORE PUSH1 0x24 DUP2 ADD SWAP2 SWAP1 SWAP2 MSTORE PUSH1 0x44 DUP2 ADD DUP3 SWAP1 MSTORE PUSH1 0x64 SWAP1 REVERT JUMPDEST PUSH1 0x24 PUSH1 0x40 MLOAD PUSH32 0x96C6FD1E00000000000000000000000000000000000000000000000000000000 DUP2 MSTORE PUSH0 PUSH1 0x4 DUP3 ADD MSTORE REVERT JUMPDEST PUSH1 0x6 SLOAD PUSH1 0xB SLOAD PUSH1 0x40 MLOAD PUSH32 0x248391FF00000000000000000000000000000000000000000000000000000000 DUP2 MSTORE PUSH20 0xFFFFFFFFFFFFFFFFFFFFFFFFFFFFFFFFFFFFFFFF SWAP4 DUP5 AND PUSH1 0x4 DUP3 ADD MSTORE SWAP1 DUP4 AND PUSH1 0x24 DUP3 ADD MSTORE PUSH1 0x44 DUP2 ADD SWAP4 SWAP1 SWAP4 MSTORE PUSH1 0x20 SWAP2 DUP4 SWAP2 AND DUP2 DUP1 PUSH1 0x64 DUP2 ADD PUSH2 0x2B61 JUMP INVALID LOG2 PUSH5 0x6970667358 0x22 SLT KECCAK256 GASPRICE SWAP7 0x26 COINBASE BASEFEE 0x28 POP KECCAK256 SWAP7 0xFC EXTCODECOPY 0xB7 CALLCODE 0xB7 PUSH17 0x20C8C2EC1DB712DB4945A75F2AFA5E61C1 PUSH5 0x736F6C6343 STOP ADDMOD NOT STOP CALLER LOG2 PUSH5 0x6970667358 0x22 SLT KECCAK256 0xFC DUP13 DUP16 0xD8 0xF SAR 0xE8 EXTCODESIZE 0xB1 0xAC SWAP10 EXTCODECOPY PUSH29 0x693E89F5FE0F8004B746AB2A334CF0A760A8DF64736F6C634300081900 CALLER "},"gasEstimates":{"creation":{"codeDepositCost":"4474800","executionCost":"infinite","totalCost":"infinite"},"external":{"UPGRADE_INTERFACE_VERSION()":"645","allPools(uint256)":"6647","changePeriphery(address)":"26971","createPool(address[],uint256[],uint256)":"infinite","getAllPools()":"infinite","getPool(address,address)":"2681","getPoolAssets(address)":"infinite","getPoolByAssets(address,address)":"2549","getPoolsByAsset(address)":"infinite","getPoolsCount()":"2593","initialize(address)":"infinite","owner()":"2512","periphery()":"2468","poolExist(address)":"infinite","proxiableUUID()":"infinite","rebalancer()":"2257","reinitialize(address,uint64)":"50108","renounceOwnership()":"28197","transferOwnership(address)":"28560","upgradeToAndCall(address,bytes)":"infinite"},"internal":{"_authorizeUpgrade(address)":"infinite"}},"methodIdentifiers":{"UPGRADE_INTERFACE_VERSION()":"ad3cb1cc","allPools(uint256)":"41d1de97","changePeriphery(address)":"e9b31cff","createPool(address[],uint256[],uint256)":"3069873b","getAllPools()":"d88ff1f4","getPool(address,address)":"531aa03e","getPoolAssets(address)":"4276b97b","getPoolByAssets(address,address)":"2d5e94a7","getPoolsByAsset(address)":"b4340e6a","getPoolsCount()":"b4ac6860","initialize(address)":"c4d66de8","owner()":"8da5cb5b","periphery()":"77aace1a","poolExist(address)":"89345efb","proxiableUUID()":"52d1902d","rebalancer()":"01d22ccd","reinitialize(address,uint64)":"8f2248bc","renounceOwnership()":"715018a6","transferOwnership(address)":"f2fde38b","upgradeToAndCall(address,bytes)":"4f1ef286"}},"storageLayout":{"storage":[{"astId":4097,"contract":"contracts/BaluniV1PoolFactory.sol:BaluniV1PoolFactory","label":"allPools","offset":0,"slot":"0","type":"t_array(t_address)dyn_storage"},{"astId":4103,"contract":"contracts/BaluniV1PoolFactory.sol:BaluniV1PoolFactory","label":"getPool","offset":0,"slot":"1","type":"t_mapping(t_address,t_mapping(t_address,t_address))"},{"astId":4105,"contract":"contracts/BaluniV1PoolFactory.sol:BaluniV1PoolFactory","label":"rebalancer","offset":0,"slot":"2","type":"t_address"},{"astId":4107,"contract":"contracts/BaluniV1PoolFactory.sol:BaluniV1PoolFactory","label":"periphery","offset":0,"slot":"3","type":"t_address"}],"types":{"t_address":{"encoding":"inplace","label":"address","numberOfBytes":"20"},"t_array(t_address)dyn_storage":{"base":"t_address","encoding":"dynamic_array","label":"address[]","numberOfBytes":"32"},"t_mapping(t_address,t_address)":{"encoding":"mapping","key":"t_address","label":"mapping(address => address)","numberOfBytes":"32","value":"t_address"},"t_mapping(t_address,t_mapping(t_address,t_address))":{"encoding":"mapping","key":"t_address","label":"mapping(address => mapping(address => address))","numberOfBytes":"32","value":"t_mapping(t_address,t_address)"}}},"userdoc":{"kind":"user","methods":{},"version":1}}}}