{"contracts/BaluniV1Pool.sol":{"BaluniV1Pool":{"abi":[{"inputs":[{"internalType":"address","name":"_rebalancer","type":"address"},{"internalType":"address[]","name":"_assets","type":"address[]"},{"internalType":"uint256[]","name":"_weights","type":"uint256[]"},{"internalType":"uint256","name":"_trigger","type":"uint256"},{"internalType":"address","name":"_periphery","type":"address"}],"stateMutability":"nonpayable","type":"constructor"},{"inputs":[{"internalType":"address","name":"spender","type":"address"},{"internalType":"uint256","name":"allowance","type":"uint256"},{"internalType":"uint256","name":"needed","type":"uint256"}],"name":"ERC20InsufficientAllowance","type":"error"},{"inputs":[{"internalType":"address","name":"sender","type":"address"},{"internalType":"uint256","name":"balance","type":"uint256"},{"internalType":"uint256","name":"needed","type":"uint256"}],"name":"ERC20InsufficientBalance","type":"error"},{"inputs":[{"internalType":"address","name":"approver","type":"address"}],"name":"ERC20InvalidApprover","type":"error"},{"inputs":[{"internalType":"address","name":"receiver","type":"address"}],"name":"ERC20InvalidReceiver","type":"error"},{"inputs":[{"internalType":"address","name":"sender","type":"address"}],"name":"ERC20InvalidSender","type":"error"},{"inputs":[{"internalType":"address","name":"spender","type":"address"}],"name":"ERC20InvalidSpender","type":"error"},{"inputs":[],"name":"ReentrancyGuardReentrantCall","type":"error"},{"anonymous":false,"inputs":[{"indexed":true,"internalType":"address","name":"owner","type":"address"},{"indexed":true,"internalType":"address","name":"spender","type":"address"},{"indexed":false,"internalType":"uint256","name":"value","type":"uint256"}],"name":"Approval","type":"event"},{"anonymous":false,"inputs":[{"indexed":true,"internalType":"address","name":"user","type":"address"},{"indexed":false,"internalType":"uint256","name":"sharesBurned","type":"uint256"}],"name":"Burn","type":"event"},{"anonymous":false,"inputs":[{"indexed":true,"internalType":"address","name":"to","type":"address"},{"indexed":false,"internalType":"uint256","name":"sharesMinted","type":"uint256"}],"name":"Mint","type":"event"},{"anonymous":false,"inputs":[{"indexed":true,"internalType":"address","name":"by","type":"address"},{"indexed":false,"internalType":"address[]","name":"assets","type":"address[]"}],"name":"RebalancePerformed","type":"event"},{"anonymous":false,"inputs":[{"indexed":true,"internalType":"address","name":"user","type":"address"},{"indexed":true,"internalType":"address","name":"fromToken","type":"address"},{"indexed":true,"internalType":"address","name":"toToken","type":"address"},{"indexed":false,"internalType":"uint256","name":"amountIn","type":"uint256"},{"indexed":false,"internalType":"uint256","name":"amountOut","type":"uint256"}],"name":"Swap","type":"event"},{"anonymous":false,"inputs":[{"indexed":true,"internalType":"address","name":"from","type":"address"},{"indexed":true,"internalType":"address","name":"to","type":"address"},{"indexed":false,"internalType":"uint256","name":"value","type":"uint256"}],"name":"Transfer","type":"event"},{"anonymous":false,"inputs":[{"indexed":true,"internalType":"address","name":"user","type":"address"},{"indexed":false,"internalType":"uint256[]","name":"amountsAdded","type":"uint256[]"}],"name":"WeightsRebalanced","type":"event"},{"inputs":[],"name":"ONE","outputs":[{"internalType":"uint256","name":"","type":"uint256"}],"stateMutability":"view","type":"function"},{"inputs":[],"name":"SWAP_FEE_BPS","outputs":[{"internalType":"uint256","name":"","type":"uint256"}],"stateMutability":"view","type":"function"},{"inputs":[{"internalType":"address","name":"owner","type":"address"},{"internalType":"address","name":"spender","type":"address"}],"name":"allowance","outputs":[{"internalType":"uint256","name":"","type":"uint256"}],"stateMutability":"view","type":"function"},{"inputs":[{"internalType":"address","name":"spender","type":"address"},{"internalType":"uint256","name":"value","type":"uint256"}],"name":"approve","outputs":[{"internalType":"bool","name":"","type":"bool"}],"stateMutability":"nonpayable","type":"function"},{"inputs":[{"internalType":"uint256","name":"","type":"uint256"}],"name":"assetInfos","outputs":[{"internalType":"address","name":"asset","type":"address"},{"internalType":"uint256","name":"weight","type":"uint256"}],"stateMutability":"view","type":"function"},{"inputs":[{"internalType":"uint256","name":"assetIndex","type":"uint256"}],"name":"assetLiquidity","outputs":[{"internalType":"uint256","name":"","type":"uint256"}],"stateMutability":"view","type":"function"},{"inputs":[{"internalType":"address","name":"account","type":"address"}],"name":"balanceOf","outputs":[{"internalType":"uint256","name":"","type":"uint256"}],"stateMutability":"view","type":"function"},{"inputs":[],"name":"baseAsset","outputs":[{"internalType":"address","name":"","type":"address"}],"stateMutability":"view","type":"function"},{"inputs":[{"internalType":"address","name":"to","type":"address"}],"name":"burn","outputs":[],"stateMutability":"nonpayable","type":"function"},{"inputs":[],"name":"computeTotalValuation","outputs":[{"internalType":"uint256","name":"totalVal","type":"uint256"},{"internalType":"uint256[]","name":"valuations","type":"uint256[]"}],"stateMutability":"view","type":"function"},{"inputs":[],"name":"decimals","outputs":[{"internalType":"uint8","name":"","type":"uint8"}],"stateMutability":"view","type":"function"},{"inputs":[{"internalType":"uint256[]","name":"amounts","type":"uint256[]"}],"name":"decreaseReserves","outputs":[],"stateMutability":"nonpayable","type":"function"},{"inputs":[{"internalType":"address","name":"fromToken","type":"address"},{"internalType":"address","name":"toToken","type":"address"},{"internalType":"uint256","name":"amount","type":"uint256"}],"name":"getAmountOut","outputs":[{"internalType":"uint256","name":"","type":"uint256"}],"stateMutability":"view","type":"function"},{"inputs":[{"internalType":"address","name":"asset","type":"address"}],"name":"getAssetReserve","outputs":[{"internalType":"uint256","name":"","type":"uint256"}],"stateMutability":"view","type":"function"},{"inputs":[],"name":"getAssets","outputs":[{"internalType":"address[]","name":"","type":"address[]"}],"stateMutability":"view","type":"function"},{"inputs":[],"name":"getDeviation","outputs":[{"internalType":"bool[]","name":"directions","type":"bool[]"},{"internalType":"uint256[]","name":"deviations","type":"uint256[]"}],"stateMutability":"view","type":"function"},{"inputs":[],"name":"getReserves","outputs":[{"internalType":"uint256[]","name":"","type":"uint256[]"}],"stateMutability":"view","type":"function"},{"inputs":[],"name":"getWeights","outputs":[{"internalType":"uint256[]","name":"","type":"uint256[]"}],"stateMutability":"view","type":"function"},{"inputs":[],"name":"isRebalanceNeeded","outputs":[{"internalType":"bool","name":"","type":"bool"}],"stateMutability":"view","type":"function"},{"inputs":[],"name":"liquidity","outputs":[{"internalType":"uint256","name":"","type":"uint256"}],"stateMutability":"view","type":"function"},{"inputs":[{"internalType":"address","name":"to","type":"address"},{"internalType":"uint256[]","name":"amounts","type":"uint256[]"}],"name":"mint","outputs":[{"internalType":"uint256","name":"","type":"uint256"}],"stateMutability":"nonpayable","type":"function"},{"inputs":[],"name":"name","outputs":[{"internalType":"string","name":"","type":"string"}],"stateMutability":"view","type":"function"},{"inputs":[{"internalType":"address","name":"_sender","type":"address"}],"name":"performRebalanceIfNeeded","outputs":[],"stateMutability":"nonpayable","type":"function"},{"inputs":[],"name":"periphery","outputs":[{"internalType":"address","name":"","type":"address"}],"stateMutability":"view","type":"function"},{"inputs":[{"internalType":"address","name":"receiver","type":"address"}],"name":"rebalanceWeights","outputs":[],"stateMutability":"nonpayable","type":"function"},{"inputs":[],"name":"rebalancer","outputs":[{"internalType":"contract IBaluniV1Rebalancer","name":"","type":"address"}],"stateMutability":"view","type":"function"},{"inputs":[{"internalType":"address","name":"","type":"address"}],"name":"reserves","outputs":[{"internalType":"uint256","name":"","type":"uint256"}],"stateMutability":"view","type":"function"},{"inputs":[{"internalType":"address","name":"fromToken","type":"address"},{"internalType":"address","name":"toToken","type":"address"},{"internalType":"uint256","name":"amount","type":"uint256"},{"internalType":"address","name":"receiver","type":"address"}],"name":"swap","outputs":[{"internalType":"uint256","name":"","type":"uint256"}],"stateMutability":"nonpayable","type":"function"},{"inputs":[],"name":"symbol","outputs":[{"internalType":"string","name":"","type":"string"}],"stateMutability":"view","type":"function"},{"inputs":[],"name":"totalSupply","outputs":[{"internalType":"uint256","name":"","type":"uint256"}],"stateMutability":"view","type":"function"},{"inputs":[{"internalType":"address","name":"to","type":"address"},{"internalType":"uint256","name":"value","type":"uint256"}],"name":"transfer","outputs":[{"internalType":"bool","name":"","type":"bool"}],"stateMutability":"nonpayable","type":"function"},{"inputs":[{"internalType":"address","name":"from","type":"address"},{"internalType":"address","name":"to","type":"address"},{"internalType":"uint256","name":"value","type":"uint256"}],"name":"transferFrom","outputs":[{"internalType":"bool","name":"","type":"bool"}],"stateMutability":"nonpayable","type":"function"},{"inputs":[],"name":"trigger","outputs":[{"internalType":"uint256","name":"","type":"uint256"}],"stateMutability":"view","type":"function"},{"inputs":[],"name":"unitPrice","outputs":[{"internalType":"uint256","name":"","type":"uint256"}],"stateMutability":"view","type":"function"},{"inputs":[{"internalType":"uint256[]","name":"amounts","type":"uint256[]"},{"internalType":"bool","name":"increase","type":"bool"}],"name":"updateReserves","outputs":[],"stateMutability":"nonpayable","type":"function"}],"devdoc":{"errors":{"ERC20InsufficientAllowance(address,uint256,uint256)":[{"details":"Indicates a failure with the `spender`’s `allowance`. Used in transfers.","params":{"allowance":"Amount of tokens a `spender` is allowed to operate with.","needed":"Minimum amount required to perform a transfer.","spender":"Address that may be allowed to operate on tokens without being their owner."}}],"ERC20InsufficientBalance(address,uint256,uint256)":[{"details":"Indicates an error related to the current `balance` of a `sender`. Used in transfers.","params":{"balance":"Current balance for the interacting account.","needed":"Minimum amount required to perform a transfer.","sender":"Address whose tokens are being transferred."}}],"ERC20InvalidApprover(address)":[{"details":"Indicates a failure with the `approver` of a token to be approved. Used in approvals.","params":{"approver":"Address initiating an approval operation."}}],"ERC20InvalidReceiver(address)":[{"details":"Indicates a failure with the token `receiver`. Used in transfers.","params":{"receiver":"Address to which tokens are being transferred."}}],"ERC20InvalidSender(address)":[{"details":"Indicates a failure with the token `sender`. Used in transfers.","params":{"sender":"Address whose tokens are being transferred."}}],"ERC20InvalidSpender(address)":[{"details":"Indicates a failure with the `spender` to be approved. Used in approvals.","params":{"spender":"Address that may be allowed to operate on tokens without being their owner."}}],"ReentrancyGuardReentrantCall()":[{"details":"Unauthorized reentrant call."}]},"events":{"Approval(address,address,uint256)":{"details":"Emitted when the allowance of a `spender` for an `owner` is set by a call to {approve}. `value` is the new allowance."},"Transfer(address,address,uint256)":{"details":"Emitted when `value` tokens are moved from one account (`from`) to another (`to`). Note that `value` may be zero."}},"kind":"dev","methods":{"allowance(address,address)":{"details":"See {IERC20-allowance}."},"approve(address,uint256)":{"details":"See {IERC20-approve}. NOTE: If `value` is the maximum `uint256`, the allowance is not updated on `transferFrom`. This is semantically equivalent to an infinite approval. Requirements: - `spender` cannot be the zero address."},"assetLiquidity(uint256)":{"details":"Returns the liquidity of a specific asset in the pool.","params":{"assetIndex":"The index of the asset."},"returns":{"_0":"The liquidity of the asset."}},"balanceOf(address)":{"details":"See {IERC20-balanceOf}."},"burn(address)":{"details":"Burns the pool tokens and transfers the underlying assets to the specified address.","params":{"to":"The address to transfer the underlying assets to."}},"computeTotalValuation()":{"details":"Computes the total valuation of the pool and returns the total valuation and an array of individual valuations.","returns":{"totalVal":"The total valuation of the pool.","valuations":"An array of individual valuations."}},"decimals()":{"details":"Returns the number of decimals used to get its user representation. For example, if `decimals` equals `2`, a balance of `505` tokens should be displayed to a user as `5.05` (`505 / 10 ** 2`). Tokens usually opt for a value of 18, imitating the relationship between Ether and Wei. This is the default value returned by this function, unless it's overridden. NOTE: This information is only used for _display_ purposes: it in no way affects any of the arithmetic of the contract, including {IERC20-balanceOf} and {IERC20-transfer}."},"getAmountOut(address,address,uint256)":{"details":"Calculates the amount of `toToken` that will be received when swapping `fromToken` for `toToken`.","params":{"amount":"The amount of `fromToken` being swapped.","fromToken":"The address of the token being swapped from.","toToken":"The address of the token being swapped to."},"returns":{"_0":"The amount of `toToken` that will be received."}},"getAssetReserve(address)":{"details":"Returns the reserve amount of the specified asset.","params":{"asset":"The address of the asset."},"returns":{"_0":"The reserve amount of the asset."}},"getAssets()":{"details":"Retrieves the list of assets in the pool.","returns":{"_0":"An array of addresses representing the assets."}},"getDeviation()":{"details":"Returns the deviation between the current weights and target weights of the assets in the pool.","returns":{"directions":"An array of boolean values indicating whether the current weight is higher (true) or lower (false) than the target weight."}},"getReserves()":{"details":"Returns an array of reserves for each asset in the pool.","returns":{"_0":"An array of reserves."}},"getWeights()":{"details":"Retrieves the list of weights associated with the assets in the pool.","returns":{"_0":"An array of uint256 values representing the weights."}},"liquidity()":{"details":"Returns the total liquidity of the pool.","returns":{"_0":"The total liquidity of the pool."}},"mint(address,uint256[])":{"details":"Mints new tokens and adds them to the specified address.","params":{"to":"The address to which the new tokens will be minted."},"returns":{"_0":"The amount of tokens minted."}},"name()":{"details":"Returns the name of the token."},"performRebalanceIfNeeded(address)":{"details":"Performs rebalance if needed based on the LP share of the sender.","params":{"_sender":"The address of the sender."}},"rebalanceWeights(address)":{"details":"Rebalances the weights of the pool by calculating the amounts to add for each token, transferring the calculated amounts from the user to the pool, minting the total added liquidity, updating the reserves, and emitting an event to indicate the rebalancing of weights.","params":{"receiver":"The address to receive the minted liquidity tokens."}},"swap(address,address,uint256,address)":{"details":"Swaps `amount` of `fromToken` to `toToken` and transfers the received amount to `receiver`. Requirements: - `fromToken` and `toToken` must be different tokens. - `amount` must be greater than zero. - Sufficient liquidity of `toToken` must be available in the contract. Emits a `Swap` event with the details of the swap. Updates the reserves after the swap.","params":{"amount":"The amount of `fromToken` to swap.","fromToken":"The address of the token to swap from.","receiver":"The address to receive the swapped tokens.","toToken":"The address of the token to swap to."},"returns":{"_0":"The amount of `toToken` received after the swap."}},"symbol()":{"details":"Returns the symbol of the token, usually a shorter version of the name."},"totalSupply()":{"details":"See {IERC20-totalSupply}."},"transfer(address,uint256)":{"details":"See {IERC20-transfer}. Requirements: - `to` cannot be the zero address. - the caller must have a balance of at least `value`."},"transferFrom(address,address,uint256)":{"details":"See {IERC20-transferFrom}. Emits an {Approval} event indicating the updated allowance. This is not required by the EIP. See the note at the beginning of {ERC20}. NOTE: Does not update the allowance if the current allowance is the maximum `uint256`. Requirements: - `from` and `to` cannot be the zero address. - `from` must have a balance of at least `value`. - the caller must have allowance for ``from``'s tokens of at least `value`."},"unitPrice()":{"details":"Returns the unit price of the pool.","returns":{"_0":"The unit price of the pool."}}},"version":1},"evm":{"bytecode":{"linkReferences":{},"object":"6080806040523461042f57613cb6803803809161001c82856108f4565b8339810160a08282031261042f5761003382610917565b60208301519091906001600160401b03811161042f5783019181601f8401121561042f578251926100638461092b565b9361007160405195866108f4565b80855260208086019160051b8301019184831161042f57602001905b8282106108c15750505060408401516001600160401b03811161042f5784019180601f8401121561042f5782516100c38161092b565b936100d160405195866108f4565b81855260208086019260051b82010192831161042f57602001905b8282106108b157505050610107608060608601519501610917565b604051610113816108d9565b6009815268042616c756e69204c560bc1b602082015260405190610136826108d9565b6009825268042414c554e492d4c560bc1b60208301528051906001600160401b03821161048c5760035490600182811c921680156108a7575b60208310146107885781601f849311610839575b50602090601f83116001146107b1575f926107a6575b50508160011b915f199060031b1c1916176003555b8051906001600160401b03821161048c5760045490600182811c9216801561079c575b60208310146107885781601f84931161071a575b50602090601f8311600114610696575f9261068b575b50508160011b915f199060031b1c1916176004555b6001600555600a80546001600160a01b03199081166001600160a01b039384161790915560068054909116918316919091179055670de0b6b3a7640000600955825182510361063b575f5b835181101561051b576001600160a01b036102768286610942565b5116156104d6576102878184610942565b51156104a0576001600160a01b0361029f8286610942565b51166102ab8285610942565b5160408051929083018084116001600160401b039091111761048c5760408301604052825260208201526007546801000000000000000081101561048c5760018101806007558110156104785760075f5281517fa66cc928b5edb82af9bd49922954155ab7b0942694bea4ce44661d9a8736c68860019290921b91820180546001600160a01b039283166001600160a01b03199091161790556020909201517fa66cc928b5edb82af9bd49922954155ab7b0942694bea4ce44661d9a8736c689909101556103798286610942565b511660018060a01b0360065416604051636eb1769f60e11b8152306004820152816024820152602081604481865afa90811561043b575f91610446575b50156103c7575b505060010161025b565b5f916044602092604051948593849263095ea7b360e01b84526004840152811960248401525af1801561043b576103ff575b806103bd565b6020813d602011610433575b81610418602093836108f4565b8101031261042f57518015150361042f575f6103f9565b5f80fd5b3d915061040b565b6040513d5f823e3d90fd5b90506020813d602011610470575b81610461602093836108f4565b8101031261042f57515f6103b6565b3d9150610454565b634e487b7160e01b5f52603260045260245ffd5b634e487b7160e01b5f52604160045260245ffd5b60405162461bcd60e51b815260206004820152600e60248201526d125b9d985b1a59081dd95a59da1d60921b6044820152606490fd5b60405162461bcd60e51b815260206004820152601560248201527f496e76616c6964206173736574206164647265737300000000000000000000006044820152606490fd5b50600884905560405163bc06e81d60e01b815290602090829060049082906001600160a01b03165afa90811561043b575f91610601575b50600b80546001600160a01b0319166001600160a01b03929092169190911790555f90815b81518310156105b35761058a8383610942565b51810180911161059f57600190920191610577565b634e487b7160e01b5f52601160045260245ffd5b612710036105ca5760405161335f90816109578239f35b60405162461bcd60e51b815260206004820152600f60248201526e496e76616c6964207765696768747360881b6044820152606490fd5b90506020813d602011610633575b8161061c602093836108f4565b8101031261042f5761062d90610917565b82610552565b3d915061060f565b60405162461bcd60e51b815260206004820152602260248201527f41737365747320616e642077656967687473206c656e677468206d69736d61746044820152610c6d60f31b6064820152608490fd5b015190505f806101fb565b60045f9081527f8a35acfbc15ff81a39ae7d344fd709f28e8600b4aa8c65c6b64bfe7fe36bd19b9350601f198516905b81811061070257509084600195949392106106ea575b505050811b01600455610210565b01515f1960f88460031b161c191690555f80806106dc565b929360206001819287860151815501950193016106c6565b60045f529091507f8a35acfbc15ff81a39ae7d344fd709f28e8600b4aa8c65c6b64bfe7fe36bd19b601f840160051c8101916020851061077e575b90601f859493920160051c01905b81811061077057506101e5565b5f8155849350600101610763565b9091508190610755565b634e487b7160e01b5f52602260045260245ffd5b91607f16916101d1565b015190505f80610199565b60035f90815293507fc2575a0e9e593c00f959f8c92f12db2869c3395a3b0502d05e2516446f71f85b91905b601f198416851061081e576001945083601f19811610610806575b505050811b016003556101ae565b01515f1960f88460031b161c191690555f80806107f8565b818101518355602094850194600190930192909101906107dd565b60035f529091507fc2575a0e9e593c00f959f8c92f12db2869c3395a3b0502d05e2516446f71f85b601f840160051c8101916020851061089d575b90601f859493920160051c01905b81811061088f5750610183565b5f8155849350600101610882565b9091508190610874565b91607f169161016f565b81518152602091820191016100ec565b602080916108ce84610917565b81520191019061008d565b604081019081106001600160401b0382111761048c57604052565b601f909101601f19168101906001600160401b0382119082101761048c57604052565b51906001600160a01b038216820361042f57565b6001600160401b03811161048c5760051b60200190565b80518210156104785760209160051b01019056fe60a0604081815260049182361015610015575f80fd5b5f925f3560e01c91826301d22ccd1461281e5750816306fdde03146126d55781630723c9991461236a5781630902f1ac1461231c578163095ea7b31461221757816318160ddd146121db5781631a6865021461219957816322acb8671461211e57816323b872dd14611fc9578163313ce56714611f9057816336bf6e3914611f3e5781633dff5b7f14611e545781634aa0665214611e395781635568081a14611a2557816367a6c440146119ea57816367e4ac2c1461195b5781636e81221c1461157657816370a082311461151557816377aace1a146114c25781637e04795a146113fd5781637fec8d38146113c057816389ab35321461133657816389afcb4414610c175781638a77c8dc14610bd357816395d89b4114610a7d578163a9059cbb14610a2e578163b2b55d7014610802578163c2ee3a08146109f1578163cdf456e11461099e578163cf8fa764146108e2578163d14ef46d14610864578163d66bd52414610802578163dd62ed3e1461078d578163de836ebd146101e7575063e73faa2d146101a3575f80fd5b346101e357817ffffffffffffffffffffffffffffffffffffffffffffffffffffffffffffffffc3601126101e3576020906101dc613040565b9051908152f35b5080fd5b9050823461078a57827ffffffffffffffffffffffffffffffffffffffffffffffffffffffffffffffffc36011261078a576102206128b4565b91602492833567ffffffffffffffff8111610786576102429036908401612a27565b9273ffffffffffffffffffffffffffffffffffffffff9261026884600a54163314612c59565b6002549582610275612bfd565b9760079860075490805182036107295781156106cc579086915b8183106105415750505081156104bf57806104145750935b84156103b85790846102e18a979695949333865260209b868d978852808a83822054946102d48882613118565b1698898252522054612e66565b0361035d5750505f5b865481101561032b578084610300600193612ad0565b50541661030d8289612b9a565b51905f52600c8a52610323875f20918254612e73565b9055016102ea565b878386847f0f6798a560793a54c3bcfe86a93cde1e73087d944c0ea20544137d4121396885848351858152a251908152f35b90600b6064928a8851937f08c379a00000000000000000000000000000000000000000000000000000000085528401528201527f4d696e74204661696c65640000000000000000000000000000000000000000006044820152fd5b606483600d8460208d51937f08c379a00000000000000000000000000000000000000000000000000000000085528401528201527f4d696e74207174792069732030000000000000000000000000000000000000006044820152fd5b61041c61306b565b5091821561043d57610437929161043291612d72565b612db2565b936102a7565b60848560268660208f51937f08c379a00000000000000000000000000000000000000000000000000000000085528401528201527f546f74616c206c6971756964697479206d75737420626520677265617465722060448201527f7468616e203000000000000000000000000000000000000000000000000000006064820152fd5b60848460228560208e51937f08c379a00000000000000000000000000000000000000000000000000000000085528401528201527f546f74616c2076616c7565206d7573742062652067726561746572207468616e60448201527f20300000000000000000000000000000000000000000000000000000000000006064820152fd5b9091938961054e86612ad0565b5054168d51907f70a08231000000000000000000000000000000000000000000000000000000008252308983015260209182818a81855afa9081156106c0578b9161068f575b508015610633576105b0906105a98987612b9a565b5190612e66565b9182156105d75750916105c86105ce926001946132bf565b90612e73565b9401919061028f565b8f601d8a6064938d9351937f08c379a00000000000000000000000000000000000000000000000000000000085528401528201527f416d6f756e74206d7573742062652067726561746572207468616e20300000006044820152fd5b8f8a601e8b8660649451937f08c379a00000000000000000000000000000000000000000000000000000000085528401528201527f42616c616e6365206d7573742062652067726561746572207468616e203000006044820152fd5b90508281813d83116106b9575b6106a681836129ce565b810103126106b557515f610594565b5f80fd5b503d61069c565b50508e513d8b823e3d90fd5b5060648560098660208f51937f08c379a00000000000000000000000000000000000000000000000000000000085528401528201527f4e6f2061737365747300000000000000000000000000000000000000000000006044820152fd5b5060648560178660208f51937f08c379a00000000000000000000000000000000000000000000000000000000085528401528201527f496e76616c6964207265736572766573206c656e6774680000000000000000006044820152fd5b8380fd5b80fd5b5050346101e357807ffffffffffffffffffffffffffffffffffffffffffffffffffffffffffffffffc3601126101e3576020916107c86128b4565b826107d16128d7565b9273ffffffffffffffffffffffffffffffffffffffff8093168152600186522091165f528252805f20549051908152f35b5050346101e35760207ffffffffffffffffffffffffffffffffffffffffffffffffffffffffffffffffc3601126101e3578060209273ffffffffffffffffffffffffffffffffffffffff6108546128b4565b168152600c845220549051908152f35b839150346101e35760207ffffffffffffffffffffffffffffffffffffffffffffffffffffffffffffffffc3601126101e357359060075482101561078a57506108ac90612ad0565b508054600190910154915173ffffffffffffffffffffffffffffffffffffffff90911681526020810191909152604090f35b0390f35b9050823461078a5760207ffffffffffffffffffffffffffffffffffffffffffffffffffffffffffffffffc36011261078a575080359061092061306b565b8092915051831015610941576020846109398585612b9a565b519051908152f35b60649060208551917f08c379a0000000000000000000000000000000000000000000000000000000008352820152601360248201527f496e76616c696420617373657420696e646578000000000000000000000000006044820152fd5b5050346101e357817ffffffffffffffffffffffffffffffffffffffffffffffffffffffffffffffffc3601126101e35760209073ffffffffffffffffffffffffffffffffffffffff600b54169051908152f35b5050346101e357817ffffffffffffffffffffffffffffffffffffffffffffffffffffffffffffffffc3601126101e3576020906009549051908152f35b5050346101e357807ffffffffffffffffffffffffffffffffffffffffffffffffffffffffffffffffc3601126101e357602090610a76610a6c6128b4565b60243590336131b2565b5160018152f35b8383346101e357817ffffffffffffffffffffffffffffffffffffffffffffffffffffffffffffffffc3601126101e35780519180938054916001908360011c9260018516948515610bc9575b6020958686108114610b9d57858952908115610b5b5750600114610b03575b6108de8787610af9828c03836129ce565b519182918261286c565b81529295507f8a35acfbc15ff81a39ae7d344fd709f28e8600b4aa8c65c6b64bfe7fe36bd19b5b828410610b4857505050826108de94610af992820101948680610ae8565b8054868501880152928601928101610b2a565b7fffffffffffffffffffffffffffffffffffffffffffffffffffffffffffffff00168887015250505050151560051b8301019250610af9826108de8680610ae8565b6024846022857f4e487b7100000000000000000000000000000000000000000000000000000000835252fd5b93607f1693610ac9565b5050346101e357817ffffffffffffffffffffffffffffffffffffffffffffffffffffffffffffffffc3601126101e357602090610c0e612fea565b90519015158152f35b839150346101e3576020807ffffffffffffffffffffffffffffffffffffffffffffffffffffffffffffffffc36011261133257610c526128b4565b9273ffffffffffffffffffffffffffffffffffffffff93610c7885600a54163314612c59565b308252818352858220549081156112d65760025495861561127a576007805493610ca185612bae565b9461012c82027ffffffffffffffffffffffffffffffffffffffffffffffffffffffffffffffed48382040161124e57612710610cdf91048093612e66565b99875b82811061119657505050308652858752610d01898b8820541015612f85565b878784600654168c51928380927f3b19e84a0000000000000000000000000000000000000000000000000000000082525afa908115611141579188918a9796959493899161114b575b5090610da792918d5193849283927fa9059cbb000000000000000000000000000000000000000000000000000000009b8c855284016020909392919373ffffffffffffffffffffffffffffffffffffffff60408201951681520152565b03818a305af1908115611141578791611124575b50156110c857308652858752610dd6898b8820541015612f85565b301561109957305f525f8752895f2054898110611054578990305f525f8952038a5f205588600254036002555f8a518a81527fddf252ad1be2c89b69c2b068fc378daa952ba7f163c4a11628f55a4df523b3ef893092a3855b8154811015610fd9578783610e4383612ad0565b5054168c51918280927f70a082310000000000000000000000000000000000000000000000000000000082528d309083015260249485915afa8015610fa0578990610faa575b610ea09150610e988489612b9a565b511115612e01565b8b8986888d8c8c610ef7610ec18a8d610eb882612ad0565b50541696612b9a565b51975197889687958694855284016020909392919373ffffffffffffffffffffffffffffffffffffffff60408201951681520152565b03925af1908115610fa0578991610f73575b5015610f185750600101610e2f565b8960156064928b8f51937f08c379a00000000000000000000000000000000000000000000000000000000085528401528201527f4173736574207472616e73666572206661696c656400000000000000000000006044820152fd5b610f9391508a3d8c11610f99575b610f8b81836129ce565b810190612de9565b8d610f09565b503d610f81565b8d513d8b823e3d90fd5b508981813d8311610fd2575b610fc081836129ce565b810103126106b557610ea09051610e89565b503d610fb6565b50918991868a89935f5b8754811015611024578085610ff9600193612ad0565b505416611006828c612b9a565b51905f52600c885261101c895f20918254612e66565b905501610fe3565b5084847fcc16f5dbb4873280815c1ee09dbd06736cffcc184412cf7a71a0fdb75d397ca59288519485521692a280f35b8a517fe450d38c00000000000000000000000000000000000000000000000000000000815230818b019081526020810192909252604082018b90529081906060010390fd5b602488878c51917f96c6fd1e000000000000000000000000000000000000000000000000000000008352820152fd5b606488888c51917f08c379a0000000000000000000000000000000000000000000000000000000008352820152601360248201527f466565207472616e73666572206661696c6564000000000000000000000000006044820152fd5b61113b9150883d8a11610f9957610f8b81836129ce565b8b610dbb565b8b513d89823e3d90fd5b9280929495969798508391503d831161118f575b61116981836129ce565b8101031261118b5751838116810361118b578895949392918891610da7610d4a565b8680fd5b503d61115f565b8c8a8c6024896111a586612ad0565b5054169351809481937f70a0823100000000000000000000000000000000000000000000000000000000835230908301525afa908115611244578392918e918c9161120d575b50926104326111fc92600195612d72565b611206828b612b9a565b5201610ce2565b935050508a82813d831161123d575b61122681836129ce565b810103126106b55790518291908d906104326111eb565b503d61121c565b8e513d8c823e3d90fd5b60248860118c7f4e487b7100000000000000000000000000000000000000000000000000000000835252fd5b606486868a51917f08c379a0000000000000000000000000000000000000000000000000000000008352820152600c60248201527f4e6f206c697175696469747900000000000000000000000000000000000000006044820152fd5b606485858951917f08c379a0000000000000000000000000000000000000000000000000000000008352820152601c60248201527f5368617265206d7573742062652067726561746572207468616e2030000000006044820152fd5b8280fd5b82843461078a57807ffffffffffffffffffffffffffffffffffffffffffffffffffffffffffffffffc36011261078a5761136e612e80565b92908151938285938401908452825180915260608401926020809101955b8281106113a75785806108de878783820360208501526128fa565b865115158552958101958795509381019360010161138c565b5050346101e357817ffffffffffffffffffffffffffffffffffffffffffffffffffffffffffffffffc3601126101e3576020906008549051908152f35b919050346113325760209160207ffffffffffffffffffffffffffffffffffffffffffffffffffffffffffffffffc3601126107865780359067ffffffffffffffff82116114be5761145091369101612a27565b9073ffffffffffffffffffffffffffffffffffffffff9261147684600a54163314612c59565b845b6007548110156114ba57808561148f600193612ad0565b50541661149c8287612b9a565b51908852600c84526114b2858920918254612e66565b905501611478565b8580f35b8480fd5b5050346101e357817ffffffffffffffffffffffffffffffffffffffffffffffffffffffffffffffffc3601126101e35760209073ffffffffffffffffffffffffffffffffffffffff600a54169051908152f35b5050346101e35760207ffffffffffffffffffffffffffffffffffffffffffffffffffffffffffffffffc3601126101e3578060209273ffffffffffffffffffffffffffffffffffffffff6115676128b4565b16815280845220549051908152f35b9050346113325760807ffffffffffffffffffffffffffffffffffffffffffffffffffffffffffffffffc360112611332576115af6128b4565b926115b86128d7565b6044356064359573ffffffffffffffffffffffffffffffffffffffff9687811681036106b55760026005541461193357600260055587841693888316928584146118d65784156118795788517f23b872dd00000000000000000000000000000000000000000000000000000000815260206080819052338a83019081523081830152604081018890528290819060600103818b895af1801561186f57916116679391879361184e575b50612cbe565b9787517f70a08231000000000000000000000000000000000000000000000000000000008152308882015260805181602481895afa80156117e2578a908890611818575b6116b792501015612e01565b61012c808a02908a8204148a1517156117ec576127106116d891048a612e66565b968851907fa9059cbb00000000000000000000000000000000000000000000000000000000825281806117348b876080519584016020909392919373ffffffffffffffffffffffffffffffffffffffff60408201951681520152565b03818a8a5af180156117e257936117b09795937fcd3829a3813dc3cdd188fd3d01dcf3268c16be2fdd2dd21d0665418816e460628b83958a9895829b966117c1575b508151938885528d6080518601521692a48352600c6080515261179d848420918254612e73565b90558152600c6080515220918254612e73565b905560016005555190815260805190f35b6117db906080513d60805111610f9957610f8b81836129ce565b505f611776565b89513d89823e3d90fd5b60248760118a7f4e487b7100000000000000000000000000000000000000000000000000000000835252fd5b50506080513d8111611847575b61182f81836129ce565b8160805191810103126106b557896116b791516116ab565b503d611825565b611868906080513d60805111610f9957610f8b81836129ce565b505f611661565b8a513d8a823e3d90fd5b60648860208b51917f08c379a0000000000000000000000000000000000000000000000000000000008352820152602060248201527f416d6f756e74206d7573742062652067726561746572207468616e207a65726f6044820152fd5b60648860208b51917f08c379a0000000000000000000000000000000000000000000000000000000008352820152601a60248201527f43616e6e6f742073776170207468652073616d6520746f6b656e0000000000006044820152fd5b8587517f3ee5aeb5000000000000000000000000000000000000000000000000000000008152fd5b82843461078a57807ffffffffffffffffffffffffffffffffffffffffffffffffffffffffffffffffc36011261078a5760075461199781612bae565b915b8181106119b5578351602080825281906108de90820186612a87565b8073ffffffffffffffffffffffffffffffffffffffff6119d6600193612ad0565b5054166119e38286612b9a565b5201611999565b5050346101e357817ffffffffffffffffffffffffffffffffffffffffffffffffffffffffffffffffc3601126101e3576020905161012c8152f35b9050346106b5576020907ffffffffffffffffffffffffffffffffffffffffffffffffffffffffffffffffc9282843601126106b557611a626128b4565b91611a73611a6e612fea565b612b35565b6002546103e890818102918183041490151715611e0d576127109073ffffffffffffffffffffffffffffffffffffffff8095165f525f865204825f205410611db257600794600754611ac481612bae565b91611ace82612bae565b915f5b818110611d7957505085600a5416803b156106b5575f8091868851809481937ffe1101160000000000000000000000000000000000000000000000000000000083525af18015611d6f57611d5a575b5090889186600654166008549088600b5416813b15611d565788517f0325192d00000000000000000000000000000000000000000000000000000000815260c0818a01529486948694859387938593611b8f91611b8060c487018f612a87565b918683030160248701526128fa565b91306044850152306064850152608484015260a483015203925af18015611d4c57611d38575b505b8654811015611cfa5784611bca82612ad0565b50541684517f70a0823100000000000000000000000000000000000000000000000000000000815230858201528781602481855afa908115611cf0579088918b91611cbf575b5082611c7d938c52600c835281888d205588600a54168c89518096819582947fa9059cbb0000000000000000000000000000000000000000000000000000000084528c84016020909392919373ffffffffffffffffffffffffffffffffffffffff60408201951681520152565b03925af18015611cb5579060019291611c98575b5001611bb7565b611cae90883d8a11610f9957610f8b81836129ce565b505f611c91565b85513d8b823e3d90fd5b82819392503d8311611ce9575b611cd681836129ce565b810103126106b557518790611c7d611c10565b503d611ccc565b86513d8c823e3d90fd5b8351868152889033907f279b343370f587af7fb675ae7c8578e9c8abcc373236ad02c501a4771fe7a7b89080611d32818c0188612a87565b0390a280f35b611d419061298d565b61118b57865f611bb5565b85513d84823e3d90fd5b8580fd5b611d669192995061298d565b5f97905f611b20565b86513d5f823e3d90fd5b8088611d86600193612ad0565b505416611d938288612b9a565b5281611d9e82612ad0565b500154611dab8287612b9a565b5201611ad1565b8360649251917f08c379a0000000000000000000000000000000000000000000000000000000008352820152601160248201527f556e646572203525204c502073686172650000000000000000000000000000006044820152fd5b6011827f4e487b71000000000000000000000000000000000000000000000000000000005f525260245ffd5b82346106b5576020906101dc611e4e3661292d565b91612cbe565b9050346106b557817ffffffffffffffffffffffffffffffffffffffffffffffffffffffffffffffffc3601126106b55780359067ffffffffffffffff82116106b557611ea291369101612a27565b9060243580151581036106b55773ffffffffffffffffffffffffffffffffffffffff92611ed484600a54163314612c59565b5f5b600754811015611f3c578085611eed600193612ad0565b505416611efa8285612b9a565b51908515611f20575f52600c602052611f17865f20918254612e73565b90555b01611ed6565b5f52600c602052611f35865f20918254612e66565b9055611f1a565b005b82346106b5575f7ffffffffffffffffffffffffffffffffffffffffffffffffffffffffffffffffc3601126106b5576108de611f7861306b565b839291925193849384528060208501528301906128fa565b82346106b5575f7ffffffffffffffffffffffffffffffffffffffffffffffffffffffffffffffffc3601126106b5576020905160128152f35b9050346106b557611fd93661292d565b9273ffffffffffffffffffffffffffffffffffffffff83929316805f526001602052855f20335f52602052855f2054917fffffffffffffffffffffffffffffffffffffffffffffffffffffffffffffffff830361203f575b602087610a768888886131b2565b8583106120d95781156120aa57331561207b57505f90815260016020908152868220338352815290869020918590039091558290610a76612031565b6024905f8851917f94280d62000000000000000000000000000000000000000000000000000000008352820152fd5b6024905f8851917fe602df05000000000000000000000000000000000000000000000000000000008352820152fd5b86517ffb8f41b2000000000000000000000000000000000000000000000000000000008152339181019182526020820193909352604081018690528291506060010390fd5b82346106b5575f7ffffffffffffffffffffffffffffffffffffffffffffffffffffffffffffffffc3601126106b55760075461215981612bae565b905f5b818110612178578351602080825281906108de908201866128fa565b8060016121858193612ad0565b5001546121928286612b9a565b520161215c565b82346106b5575f7ffffffffffffffffffffffffffffffffffffffffffffffffffffffffffffffffc3601126106b5576020906121d361306b565b509051908152f35b82346106b5575f7ffffffffffffffffffffffffffffffffffffffffffffffffffffffffffffffffc3601126106b5576020906002549051908152f35b82346106b557807ffffffffffffffffffffffffffffffffffffffffffffffffffffffffffffffffc3601126106b55761224e6128b4565b6024359033156122ed5773ffffffffffffffffffffffffffffffffffffffff169081156122be5760209350335f5260018452825f20825f52845280835f205582519081527f8c5be1e5ebec7d5bd14f71427d1e84f3dd0314c0f7b2291e5b200ac8c7c3b925843392a35160018152f35b6024845f8551917f94280d62000000000000000000000000000000000000000000000000000000008352820152fd5b6024845f8551917fe602df05000000000000000000000000000000000000000000000000000000008352820152fd5b82346106b5575f7ffffffffffffffffffffffffffffffffffffffffffffffffffffffffffffffffc3601126106b5576108de90612357612bfd565b90519182916020835260208301906128fa565b82346106b557602090817ffffffffffffffffffffffffffffffffffffffffffffffffffffffffffffffffc3601126106b5576123a46128b4565b916123b0611a6e612fea565b6123b861306b565b9490600754906123c782612bae565b965f5b838110612680575050505f905f905b80821061265f5750505f5b8651811015612618576123f78188612b9a565b51612405575b6001016123e4565b61248a6124128289612b9a565b518561241d84612ad0565b5054600654600b548a517f248391ff00000000000000000000000000000000000000000000000000000000815273ffffffffffffffffffffffffffffffffffffffff9182168a82019081529382166020850152604084019590955293948592918516918391829160600190565b03915afa91821561260e575f926125df575b5081156125835761251c8683836124b287612ad0565b50541684600a54165f8a8d51968795869485937f23b872dd0000000000000000000000000000000000000000000000000000000085523390850160409194939294606082019573ffffffffffffffffffffffffffffffffffffffff80921683521660208201520152565b03925af18015612579579060019493929161255c575b5061253c83612ad0565b5054165f52600c8652612553875f20918254612e73565b905590506123fd565b61257290883d8a11610f9957610f8b81836129ce565b508a612532565b88513d5f823e3d90fd5b606485878951917f08c379a0000000000000000000000000000000000000000000000000000000008352820152601b60248201527f496e76616c696420746f6b656e20616d6f756e7420746f2061646400000000006044820152fd5b9091508581813d8311612607575b6125f781836129ce565b810103126106b55751908961249c565b503d6125ed565b87513d5f823e3d90fd5b837fa95ad530009c6f929555e70a66aadbeae7231e45756c5b028ca77fbaa376e73e61265a8988612649878c613118565b5191829185835233958301906128fa565b0390a2005b9091612678600191612671858b612b9a565b5190612e73565b9201906123d9565b8061271061269c60016126938195612ad0565b50015486612d72565b04806126a88386612b9a565b51106126b6575b50016123ca565b6126c4906105a98386612b9a565b6126ce828c612b9a565b528a6126af565b82346106b5575f7ffffffffffffffffffffffffffffffffffffffffffffffffffffffffffffffffc3601126106b5578051905f9260035460018160011c91600181168015612814575b60209485851082146127e857508387529081156127aa5750600114612750575b505050610af9826108de9403836129ce565b60035f9081529295507fc2575a0e9e593c00f959f8c92f12db2869c3395a3b0502d05e2516446f71f85b5b82841061279757505050826108de94610af9928201019461273e565b805486850188015292860192810161277b565b7fffffffffffffffffffffffffffffffffffffffffffffffffffffffffffffff0016868501525050151560051b8301019250610af9826108de61273e565b6022907f4e487b71000000000000000000000000000000000000000000000000000000005f525260245ffd5b92607f169261271e565b346106b5575f7ffffffffffffffffffffffffffffffffffffffffffffffffffffffffffffffffc3601126106b55760209073ffffffffffffffffffffffffffffffffffffffff600654168152f35b7fffffffffffffffffffffffffffffffffffffffffffffffffffffffffffffffe0601f602060409481855280519182918282880152018686015e5f8582860101520116010190565b6004359073ffffffffffffffffffffffffffffffffffffffff821682036106b557565b6024359073ffffffffffffffffffffffffffffffffffffffff821682036106b557565b9081518082526020808093019301915f5b828110612919575050505090565b83518552938101939281019260010161290b565b7ffffffffffffffffffffffffffffffffffffffffffffffffffffffffffffffffc60609101126106b55773ffffffffffffffffffffffffffffffffffffffff9060043582811681036106b5579160243590811681036106b5579060443590565b67ffffffffffffffff81116129a157604052565b7f4e487b71000000000000000000000000000000000000000000000000000000005f52604160045260245ffd5b90601f7fffffffffffffffffffffffffffffffffffffffffffffffffffffffffffffffe0910116810190811067ffffffffffffffff8211176129a157604052565b67ffffffffffffffff81116129a15760051b60200190565b9080601f830112156106b5576020908235612a4181612a0f565b93612a4f60405195866129ce565b81855260208086019260051b8201019283116106b557602001905b828210612a78575050505090565b81358152908301908301612a6a565b9081518082526020808093019301915f5b828110612aa6575050505090565b835173ffffffffffffffffffffffffffffffffffffffff1685529381019392810192600101612a98565b600754811015612b085760075f5260011b7fa66cc928b5edb82af9bd49922954155ab7b0942694bea4ce44661d9a8736c68801905f90565b7f4e487b71000000000000000000000000000000000000000000000000000000005f52603260045260245ffd5b15612b3c57565b60646040517f08c379a000000000000000000000000000000000000000000000000000000000815260206004820152601460248201527f526562616c616e6365206e6f74206e65656465640000000000000000000000006044820152fd5b8051821015612b085760209160051b010190565b90612bb882612a0f565b612bc560405191826129ce565b8281527fffffffffffffffffffffffffffffffffffffffffffffffffffffffffffffffe0612bf38294612a0f565b0190602036910137565b600754612c0981612bae565b905f5b818110612c1857505090565b8073ffffffffffffffffffffffffffffffffffffffff612c39600193612ad0565b5054165f52600c60205260405f2054612c528286612b9a565b5201612c0c565b15612c6057565b60646040517f08c379a000000000000000000000000000000000000000000000000000000000815260206004820152600e60248201527f4f6e6c79205065726970686572790000000000000000000000000000000000006044820152fd5b6006546040517f248391ff00000000000000000000000000000000000000000000000000000000815273ffffffffffffffffffffffffffffffffffffffff92831660048201529282166024840152604483019390935290916020918391168180606481015b03915afa908115612d67575f91612d38575090565b90506020813d602011612d5f575b81612d53602093836129ce565b810103126106b5575190565b3d9150612d46565b6040513d5f823e3d90fd5b81810292918115918404141715612d8557565b7f4e487b71000000000000000000000000000000000000000000000000000000005f52601160045260245ffd5b8115612dbc570490565b7f4e487b71000000000000000000000000000000000000000000000000000000005f52601260045260245ffd5b908160209103126106b5575180151581036106b55790565b15612e0857565b60646040517f08c379a000000000000000000000000000000000000000000000000000000000815260206004820152601660248201527f496e73756666696369656e74204c6971756964697479000000000000000000006044820152fd5b91908203918211612d8557565b91908201809211612d8557565b612e8861306b565b919060075490612e9782612a0f565b91612ea560405193846129ce565b8083527fffffffffffffffffffffffffffffffffffffffffffffffffffffffffffffffe0612ed282612a0f565b01366020850137612ee281612bae565b945f5b828110612ef457505050509190565b612efe8183612b9a565b519061271091828102928184041490151715612d8557612f2085600193612db2565b612f2982612ad0565b50830154839181811115612f5e5790612f4191612e66565b612f4b838b612b9a565b52612f568288612b9a565b525b01612ee5565b90612f699250612e66565b612f73828a612b9a565b525f612f7f8288612b9a565b52612f58565b15612f8c57565b60646040517f08c379a000000000000000000000000000000000000000000000000000000000815260206004820152601660248201527f496e73756666696369656e74206c6971756964697479000000000000000000006044820152fd5b612ff2612e80565b5f5b8151811015613039576130078184612b9a565b51151580613024575b61301c57600101612ff4565b505050600190565b5061302f8183612b9a565b5160085410613010565b5050505f90565b61304861306b565b506002548015613065576104326130629260095490612d72565b90565b50505f90565b600754905f61307983612bae565b925f9073ffffffffffffffffffffffffffffffffffffffff80600b5416905b8284106130a757505050509190565b909192936130e7600191836130bb88612ad0565b5054168581036130f1575f52600c60205260405f20546130db888b612b9a565b525b612671878a612b9a565b9401929190613098565b80613108915f52600c60205260405f2054906132bf565b613112888b612b9a565b526130dd565b73ffffffffffffffffffffffffffffffffffffffff16908115613182577fddf252ad1be2c89b69c2b068fc378daa952ba7f163c4a11628f55a4df523b3ef6020826131665f94600254612e73565b60025584845283825260408420818154019055604051908152a3565b60246040517fec442f050000000000000000000000000000000000000000000000000000000081525f6004820152fd5b9173ffffffffffffffffffffffffffffffffffffffff80841692831561328f571692831561318257825f525f60205260405f2054908282106132375750817fddf252ad1be2c89b69c2b068fc378daa952ba7f163c4a11628f55a4df523b3ef92602092855f525f84520360405f2055845f5260405f20818154019055604051908152a3565b6040517fe450d38c00000000000000000000000000000000000000000000000000000000815273ffffffffffffffffffffffffffffffffffffffff919091166004820152602481019190915260448101829052606490fd5b60246040517f96c6fd1e0000000000000000000000000000000000000000000000000000000081525f6004820152fd5b600654600b546040517f248391ff00000000000000000000000000000000000000000000000000000000815273ffffffffffffffffffffffffffffffffffffffff938416600482015290831660248201526044810193909352602091839116818060648101612d2356fea2646970667358221220c8414810c36dc329497f0bf640c364c1d29c54d48070ba851498e68ef0072a6864736f6c63430008190033","opcodes":"PUSH1 0x80 DUP1 PUSH1 0x40 MSTORE CALLVALUE PUSH2 0x42F JUMPI PUSH2 0x3CB6 DUP1 CODESIZE SUB DUP1 SWAP2 PUSH2 0x1C DUP3 DUP6 PUSH2 0x8F4 JUMP JUMPDEST DUP4 CODECOPY DUP2 ADD PUSH1 0xA0 DUP3 DUP3 SUB SLT PUSH2 0x42F JUMPI PUSH2 0x33 DUP3 PUSH2 0x917 JUMP JUMPDEST PUSH1 0x20 DUP4 ADD MLOAD SWAP1 SWAP2 SWAP1 PUSH1 0x1 PUSH1 0x1 PUSH1 0x40 SHL SUB DUP2 GT PUSH2 0x42F JUMPI DUP4 ADD SWAP2 DUP2 PUSH1 0x1F DUP5 ADD SLT ISZERO PUSH2 0x42F JUMPI DUP3 MLOAD SWAP3 PUSH2 0x63 DUP5 PUSH2 0x92B JUMP JUMPDEST SWAP4 PUSH2 0x71 PUSH1 0x40 MLOAD SWAP6 DUP7 PUSH2 0x8F4 JUMP JUMPDEST DUP1 DUP6 MSTORE PUSH1 0x20 DUP1 DUP7 ADD SWAP2 PUSH1 0x5 SHL DUP4 ADD ADD SWAP2 DUP5 DUP4 GT PUSH2 0x42F JUMPI PUSH1 0x20 ADD SWAP1 JUMPDEST DUP3 DUP3 LT PUSH2 0x8C1 JUMPI POP POP POP PUSH1 0x40 DUP5 ADD MLOAD PUSH1 0x1 PUSH1 0x1 PUSH1 0x40 SHL SUB DUP2 GT PUSH2 0x42F JUMPI DUP5 ADD SWAP2 DUP1 PUSH1 0x1F DUP5 ADD SLT ISZERO PUSH2 0x42F JUMPI DUP3 MLOAD PUSH2 0xC3 DUP2 PUSH2 0x92B JUMP JUMPDEST SWAP4 PUSH2 0xD1 PUSH1 0x40 MLOAD SWAP6 DUP7 PUSH2 0x8F4 JUMP JUMPDEST DUP2 DUP6 MSTORE PUSH1 0x20 DUP1 DUP7 ADD SWAP3 PUSH1 0x5 SHL DUP3 ADD ADD SWAP3 DUP4 GT PUSH2 0x42F JUMPI PUSH1 0x20 ADD SWAP1 JUMPDEST DUP3 DUP3 LT PUSH2 0x8B1 JUMPI POP POP POP PUSH2 0x107 PUSH1 0x80 PUSH1 0x60 DUP7 ADD MLOAD SWAP6 ADD PUSH2 0x917 JUMP JUMPDEST PUSH1 0x40 MLOAD PUSH2 0x113 DUP2 PUSH2 0x8D9 JUMP JUMPDEST PUSH1 0x9 DUP2 MSTORE PUSH9 0x42616C756E69204C5 PUSH1 0xBC SHL PUSH1 0x20 DUP3 ADD MSTORE PUSH1 0x40 MLOAD SWAP1 PUSH2 0x136 DUP3 PUSH2 0x8D9 JUMP JUMPDEST PUSH1 0x9 DUP3 MSTORE PUSH9 0x42414C554E492D4C5 PUSH1 0xBC SHL PUSH1 0x20 DUP4 ADD MSTORE DUP1 MLOAD SWAP1 PUSH1 0x1 PUSH1 0x1 PUSH1 0x40 SHL SUB DUP3 GT PUSH2 0x48C JUMPI PUSH1 0x3 SLOAD SWAP1 PUSH1 0x1 DUP3 DUP2 SHR SWAP3 AND DUP1 ISZERO PUSH2 0x8A7 JUMPI JUMPDEST PUSH1 0x20 DUP4 LT EQ PUSH2 0x788 JUMPI DUP2 PUSH1 0x1F DUP5 SWAP4 GT PUSH2 0x839 JUMPI JUMPDEST POP PUSH1 0x20 SWAP1 PUSH1 0x1F DUP4 GT PUSH1 0x1 EQ PUSH2 0x7B1 JUMPI PUSH0 SWAP3 PUSH2 0x7A6 JUMPI JUMPDEST POP POP DUP2 PUSH1 0x1 SHL SWAP2 PUSH0 NOT SWAP1 PUSH1 0x3 SHL SHR NOT AND OR PUSH1 0x3 SSTORE JUMPDEST DUP1 MLOAD SWAP1 PUSH1 0x1 PUSH1 0x1 PUSH1 0x40 SHL SUB DUP3 GT PUSH2 0x48C JUMPI PUSH1 0x4 SLOAD SWAP1 PUSH1 0x1 DUP3 DUP2 SHR SWAP3 AND DUP1 ISZERO PUSH2 0x79C JUMPI JUMPDEST PUSH1 0x20 DUP4 LT EQ PUSH2 0x788 JUMPI DUP2 PUSH1 0x1F DUP5 SWAP4 GT PUSH2 0x71A JUMPI JUMPDEST POP PUSH1 0x20 SWAP1 PUSH1 0x1F DUP4 GT PUSH1 0x1 EQ PUSH2 0x696 JUMPI PUSH0 SWAP3 PUSH2 0x68B JUMPI JUMPDEST POP POP DUP2 PUSH1 0x1 SHL SWAP2 PUSH0 NOT SWAP1 PUSH1 0x3 SHL SHR NOT AND OR PUSH1 0x4 SSTORE JUMPDEST PUSH1 0x1 PUSH1 0x5 SSTORE PUSH1 0xA DUP1 SLOAD PUSH1 0x1 PUSH1 0x1 PUSH1 0xA0 SHL SUB NOT SWAP1 DUP2 AND PUSH1 0x1 PUSH1 0x1 PUSH1 0xA0 SHL SUB SWAP4 DUP5 AND OR SWAP1 SWAP2 SSTORE PUSH1 0x6 DUP1 SLOAD SWAP1 SWAP2 AND SWAP2 DUP4 AND SWAP2 SWAP1 SWAP2 OR SWAP1 SSTORE PUSH8 0xDE0B6B3A7640000 PUSH1 0x9 SSTORE DUP3 MLOAD DUP3 MLOAD SUB PUSH2 0x63B JUMPI PUSH0 JUMPDEST DUP4 MLOAD DUP2 LT ISZERO PUSH2 0x51B JUMPI PUSH1 0x1 PUSH1 0x1 PUSH1 0xA0 SHL SUB PUSH2 0x276 DUP3 DUP7 PUSH2 0x942 JUMP JUMPDEST MLOAD AND ISZERO PUSH2 0x4D6 JUMPI PUSH2 0x287 DUP2 DUP5 PUSH2 0x942 JUMP JUMPDEST MLOAD ISZERO PUSH2 0x4A0 JUMPI PUSH1 0x1 PUSH1 0x1 PUSH1 0xA0 SHL SUB PUSH2 0x29F DUP3 DUP7 PUSH2 0x942 JUMP JUMPDEST MLOAD AND PUSH2 0x2AB DUP3 DUP6 PUSH2 0x942 JUMP JUMPDEST MLOAD PUSH1 0x40 DUP1 MLOAD SWAP3 SWAP1 DUP4 ADD DUP1 DUP5 GT PUSH1 0x1 PUSH1 0x1 PUSH1 0x40 SHL SUB SWAP1 SWAP2 GT OR PUSH2 0x48C JUMPI PUSH1 0x40 DUP4 ADD PUSH1 0x40 MSTORE DUP3 MSTORE PUSH1 0x20 DUP3 ADD MSTORE PUSH1 0x7 SLOAD PUSH9 0x10000000000000000 DUP2 LT ISZERO PUSH2 0x48C JUMPI PUSH1 0x1 DUP2 ADD DUP1 PUSH1 0x7 SSTORE DUP2 LT ISZERO PUSH2 0x478 JUMPI PUSH1 0x7 PUSH0 MSTORE DUP2 MLOAD PUSH32 0xA66CC928B5EDB82AF9BD49922954155AB7B0942694BEA4CE44661D9A8736C688 PUSH1 0x1 SWAP3 SWAP1 SWAP3 SHL SWAP2 DUP3 ADD DUP1 SLOAD PUSH1 0x1 PUSH1 0x1 PUSH1 0xA0 SHL SUB SWAP3 DUP4 AND PUSH1 0x1 PUSH1 0x1 PUSH1 0xA0 SHL SUB NOT SWAP1 SWAP2 AND OR SWAP1 SSTORE PUSH1 0x20 SWAP1 SWAP3 ADD MLOAD PUSH32 0xA66CC928B5EDB82AF9BD49922954155AB7B0942694BEA4CE44661D9A8736C689 SWAP1 SWAP2 ADD SSTORE PUSH2 0x379 DUP3 DUP7 PUSH2 0x942 JUMP JUMPDEST MLOAD AND PUSH1 0x1 DUP1 PUSH1 0xA0 SHL SUB PUSH1 0x6 SLOAD AND PUSH1 0x40 MLOAD PUSH4 0x6EB1769F PUSH1 0xE1 SHL DUP2 MSTORE ADDRESS PUSH1 0x4 DUP3 ADD MSTORE DUP2 PUSH1 0x24 DUP3 ADD MSTORE PUSH1 0x20 DUP2 PUSH1 0x44 DUP2 DUP7 GAS STATICCALL SWAP1 DUP2 ISZERO PUSH2 0x43B JUMPI PUSH0 SWAP2 PUSH2 0x446 JUMPI JUMPDEST POP ISZERO PUSH2 0x3C7 JUMPI JUMPDEST POP POP PUSH1 0x1 ADD PUSH2 0x25B JUMP JUMPDEST PUSH0 SWAP2 PUSH1 0x44 PUSH1 0x20 SWAP3 PUSH1 0x40 MLOAD SWAP5 DUP6 SWAP4 DUP5 SWAP3 PUSH4 0x95EA7B3 PUSH1 0xE0 SHL DUP5 MSTORE PUSH1 0x4 DUP5 ADD MSTORE DUP2 NOT PUSH1 0x24 DUP5 ADD MSTORE GAS CALL DUP1 ISZERO PUSH2 0x43B JUMPI PUSH2 0x3FF JUMPI JUMPDEST DUP1 PUSH2 0x3BD JUMP JUMPDEST PUSH1 0x20 DUP2 RETURNDATASIZE PUSH1 0x20 GT PUSH2 0x433 JUMPI JUMPDEST DUP2 PUSH2 0x418 PUSH1 0x20 SWAP4 DUP4 PUSH2 0x8F4 JUMP JUMPDEST DUP2 ADD SUB SLT PUSH2 0x42F JUMPI MLOAD DUP1 ISZERO ISZERO SUB PUSH2 0x42F JUMPI PUSH0 PUSH2 0x3F9 JUMP JUMPDEST PUSH0 DUP1 REVERT JUMPDEST RETURNDATASIZE SWAP2 POP PUSH2 0x40B JUMP JUMPDEST PUSH1 0x40 MLOAD RETURNDATASIZE PUSH0 DUP3 RETURNDATACOPY RETURNDATASIZE SWAP1 REVERT JUMPDEST SWAP1 POP PUSH1 0x20 DUP2 RETURNDATASIZE PUSH1 0x20 GT PUSH2 0x470 JUMPI JUMPDEST DUP2 PUSH2 0x461 PUSH1 0x20 SWAP4 DUP4 PUSH2 0x8F4 JUMP JUMPDEST DUP2 ADD SUB SLT PUSH2 0x42F JUMPI MLOAD PUSH0 PUSH2 0x3B6 JUMP JUMPDEST RETURNDATASIZE SWAP2 POP PUSH2 0x454 JUMP JUMPDEST PUSH4 0x4E487B71 PUSH1 0xE0 SHL PUSH0 MSTORE PUSH1 0x32 PUSH1 0x4 MSTORE PUSH1 0x24 PUSH0 REVERT JUMPDEST PUSH4 0x4E487B71 PUSH1 0xE0 SHL PUSH0 MSTORE PUSH1 0x41 PUSH1 0x4 MSTORE PUSH1 0x24 PUSH0 REVERT JUMPDEST PUSH1 0x40 MLOAD PUSH3 0x461BCD PUSH1 0xE5 SHL DUP2 MSTORE PUSH1 0x20 PUSH1 0x4 DUP3 ADD MSTORE PUSH1 0xE PUSH1 0x24 DUP3 ADD MSTORE PUSH14 0x125B9D985B1A59081DD95A59DA1D PUSH1 0x92 SHL PUSH1 0x44 DUP3 ADD MSTORE PUSH1 0x64 SWAP1 REVERT JUMPDEST PUSH1 0x40 MLOAD PUSH3 0x461BCD PUSH1 0xE5 SHL DUP2 MSTORE PUSH1 0x20 PUSH1 0x4 DUP3 ADD MSTORE PUSH1 0x15 PUSH1 0x24 DUP3 ADD MSTORE PUSH32 0x496E76616C696420617373657420616464726573730000000000000000000000 PUSH1 0x44 DUP3 ADD MSTORE PUSH1 0x64 SWAP1 REVERT JUMPDEST POP PUSH1 0x8 DUP5 SWAP1 SSTORE PUSH1 0x40 MLOAD PUSH4 0xBC06E81D PUSH1 0xE0 SHL DUP2 MSTORE SWAP1 PUSH1 0x20 SWAP1 DUP3 SWAP1 PUSH1 0x4 SWAP1 DUP3 SWAP1 PUSH1 0x1 PUSH1 0x1 PUSH1 0xA0 SHL SUB AND GAS STATICCALL SWAP1 DUP2 ISZERO PUSH2 0x43B JUMPI PUSH0 SWAP2 PUSH2 0x601 JUMPI JUMPDEST POP PUSH1 0xB DUP1 SLOAD PUSH1 0x1 PUSH1 0x1 PUSH1 0xA0 SHL SUB NOT AND PUSH1 0x1 PUSH1 0x1 PUSH1 0xA0 SHL SUB SWAP3 SWAP1 SWAP3 AND SWAP2 SWAP1 SWAP2 OR SWAP1 SSTORE PUSH0 SWAP1 DUP2 JUMPDEST DUP2 MLOAD DUP4 LT ISZERO PUSH2 0x5B3 JUMPI PUSH2 0x58A DUP4 DUP4 PUSH2 0x942 JUMP JUMPDEST MLOAD DUP2 ADD DUP1 SWAP2 GT PUSH2 0x59F JUMPI PUSH1 0x1 SWAP1 SWAP3 ADD SWAP2 PUSH2 0x577 JUMP JUMPDEST PUSH4 0x4E487B71 PUSH1 0xE0 SHL PUSH0 MSTORE PUSH1 0x11 PUSH1 0x4 MSTORE PUSH1 0x24 PUSH0 REVERT JUMPDEST PUSH2 0x2710 SUB PUSH2 0x5CA JUMPI PUSH1 0x40 MLOAD PUSH2 0x335F SWAP1 DUP2 PUSH2 0x957 DUP3 CODECOPY RETURN JUMPDEST PUSH1 0x40 MLOAD PUSH3 0x461BCD PUSH1 0xE5 SHL DUP2 MSTORE PUSH1 0x20 PUSH1 0x4 DUP3 ADD MSTORE PUSH1 0xF PUSH1 0x24 DUP3 ADD MSTORE PUSH15 0x496E76616C69642077656967687473 PUSH1 0x88 SHL PUSH1 0x44 DUP3 ADD MSTORE PUSH1 0x64 SWAP1 REVERT JUMPDEST SWAP1 POP PUSH1 0x20 DUP2 RETURNDATASIZE PUSH1 0x20 GT PUSH2 0x633 JUMPI JUMPDEST DUP2 PUSH2 0x61C PUSH1 0x20 SWAP4 DUP4 PUSH2 0x8F4 JUMP JUMPDEST DUP2 ADD SUB SLT PUSH2 0x42F JUMPI PUSH2 0x62D SWAP1 PUSH2 0x917 JUMP JUMPDEST DUP3 PUSH2 0x552 JUMP JUMPDEST RETURNDATASIZE SWAP2 POP PUSH2 0x60F JUMP JUMPDEST PUSH1 0x40 MLOAD PUSH3 0x461BCD PUSH1 0xE5 SHL DUP2 MSTORE PUSH1 0x20 PUSH1 0x4 DUP3 ADD MSTORE PUSH1 0x22 PUSH1 0x24 DUP3 ADD MSTORE PUSH32 0x41737365747320616E642077656967687473206C656E677468206D69736D6174 PUSH1 0x44 DUP3 ADD MSTORE PUSH2 0xC6D PUSH1 0xF3 SHL PUSH1 0x64 DUP3 ADD MSTORE PUSH1 0x84 SWAP1 REVERT JUMPDEST ADD MLOAD SWAP1 POP PUSH0 DUP1 PUSH2 0x1FB JUMP JUMPDEST PUSH1 0x4 PUSH0 SWAP1 DUP2 MSTORE PUSH32 0x8A35ACFBC15FF81A39AE7D344FD709F28E8600B4AA8C65C6B64BFE7FE36BD19B SWAP4 POP PUSH1 0x1F NOT DUP6 AND SWAP1 JUMPDEST DUP2 DUP2 LT PUSH2 0x702 JUMPI POP SWAP1 DUP5 PUSH1 0x1 SWAP6 SWAP5 SWAP4 SWAP3 LT PUSH2 0x6EA JUMPI JUMPDEST POP POP POP DUP2 SHL ADD PUSH1 0x4 SSTORE PUSH2 0x210 JUMP JUMPDEST ADD MLOAD PUSH0 NOT PUSH1 0xF8 DUP5 PUSH1 0x3 SHL AND SHR NOT AND SWAP1 SSTORE PUSH0 DUP1 DUP1 PUSH2 0x6DC JUMP JUMPDEST SWAP3 SWAP4 PUSH1 0x20 PUSH1 0x1 DUP2 SWAP3 DUP8 DUP7 ADD MLOAD DUP2 SSTORE ADD SWAP6 ADD SWAP4 ADD PUSH2 0x6C6 JUMP JUMPDEST PUSH1 0x4 PUSH0 MSTORE SWAP1 SWAP2 POP PUSH32 0x8A35ACFBC15FF81A39AE7D344FD709F28E8600B4AA8C65C6B64BFE7FE36BD19B PUSH1 0x1F DUP5 ADD PUSH1 0x5 SHR DUP2 ADD SWAP2 PUSH1 0x20 DUP6 LT PUSH2 0x77E JUMPI JUMPDEST SWAP1 PUSH1 0x1F DUP6 SWAP5 SWAP4 SWAP3 ADD PUSH1 0x5 SHR ADD SWAP1 JUMPDEST DUP2 DUP2 LT PUSH2 0x770 JUMPI POP PUSH2 0x1E5 JUMP JUMPDEST PUSH0 DUP2 SSTORE DUP5 SWAP4 POP PUSH1 0x1 ADD PUSH2 0x763 JUMP JUMPDEST SWAP1 SWAP2 POP DUP2 SWAP1 PUSH2 0x755 JUMP JUMPDEST PUSH4 0x4E487B71 PUSH1 0xE0 SHL PUSH0 MSTORE PUSH1 0x22 PUSH1 0x4 MSTORE PUSH1 0x24 PUSH0 REVERT JUMPDEST SWAP2 PUSH1 0x7F AND SWAP2 PUSH2 0x1D1 JUMP JUMPDEST ADD MLOAD SWAP1 POP PUSH0 DUP1 PUSH2 0x199 JUMP JUMPDEST PUSH1 0x3 PUSH0 SWAP1 DUP2 MSTORE SWAP4 POP PUSH32 0xC2575A0E9E593C00F959F8C92F12DB2869C3395A3B0502D05E2516446F71F85B SWAP2 SWAP1 JUMPDEST PUSH1 0x1F NOT DUP5 AND DUP6 LT PUSH2 0x81E JUMPI PUSH1 0x1 SWAP5 POP DUP4 PUSH1 0x1F NOT DUP2 AND LT PUSH2 0x806 JUMPI JUMPDEST POP POP POP DUP2 SHL ADD PUSH1 0x3 SSTORE PUSH2 0x1AE JUMP JUMPDEST ADD MLOAD PUSH0 NOT PUSH1 0xF8 DUP5 PUSH1 0x3 SHL AND SHR NOT AND SWAP1 SSTORE PUSH0 DUP1 DUP1 PUSH2 0x7F8 JUMP JUMPDEST DUP2 DUP2 ADD MLOAD DUP4 SSTORE PUSH1 0x20 SWAP5 DUP6 ADD SWAP5 PUSH1 0x1 SWAP1 SWAP4 ADD SWAP3 SWAP1 SWAP2 ADD SWAP1 PUSH2 0x7DD JUMP JUMPDEST PUSH1 0x3 PUSH0 MSTORE SWAP1 SWAP2 POP PUSH32 0xC2575A0E9E593C00F959F8C92F12DB2869C3395A3B0502D05E2516446F71F85B PUSH1 0x1F DUP5 ADD PUSH1 0x5 SHR DUP2 ADD SWAP2 PUSH1 0x20 DUP6 LT PUSH2 0x89D JUMPI JUMPDEST SWAP1 PUSH1 0x1F DUP6 SWAP5 SWAP4 SWAP3 ADD PUSH1 0x5 SHR ADD SWAP1 JUMPDEST DUP2 DUP2 LT PUSH2 0x88F JUMPI POP PUSH2 0x183 JUMP JUMPDEST PUSH0 DUP2 SSTORE DUP5 SWAP4 POP PUSH1 0x1 ADD PUSH2 0x882 JUMP JUMPDEST SWAP1 SWAP2 POP DUP2 SWAP1 PUSH2 0x874 JUMP JUMPDEST SWAP2 PUSH1 0x7F AND SWAP2 PUSH2 0x16F JUMP JUMPDEST DUP2 MLOAD DUP2 MSTORE PUSH1 0x20 SWAP2 DUP3 ADD SWAP2 ADD PUSH2 0xEC JUMP JUMPDEST PUSH1 0x20 DUP1 SWAP2 PUSH2 0x8CE DUP5 PUSH2 0x917 JUMP JUMPDEST DUP2 MSTORE ADD SWAP2 ADD SWAP1 PUSH2 0x8D JUMP JUMPDEST PUSH1 0x40 DUP2 ADD SWAP1 DUP2 LT PUSH1 0x1 PUSH1 0x1 PUSH1 0x40 SHL SUB DUP3 GT OR PUSH2 0x48C JUMPI PUSH1 0x40 MSTORE JUMP JUMPDEST PUSH1 0x1F SWAP1 SWAP2 ADD PUSH1 0x1F NOT AND DUP2 ADD SWAP1 PUSH1 0x1 PUSH1 0x1 PUSH1 0x40 SHL SUB DUP3 GT SWAP1 DUP3 LT OR PUSH2 0x48C JUMPI PUSH1 0x40 MSTORE JUMP JUMPDEST MLOAD SWAP1 PUSH1 0x1 PUSH1 0x1 PUSH1 0xA0 SHL SUB DUP3 AND DUP3 SUB PUSH2 0x42F JUMPI JUMP JUMPDEST PUSH1 0x1 PUSH1 0x1 PUSH1 0x40 SHL SUB DUP2 GT PUSH2 0x48C JUMPI PUSH1 0x5 SHL PUSH1 0x20 ADD SWAP1 JUMP JUMPDEST DUP1 MLOAD DUP3 LT ISZERO PUSH2 0x478 JUMPI PUSH1 0x20 SWAP2 PUSH1 0x5 SHL ADD ADD SWAP1 JUMP INVALID PUSH1 0xA0 PUSH1 0x40 DUP2 DUP2 MSTORE PUSH1 0x4 SWAP2 DUP3 CALLDATASIZE LT ISZERO PUSH2 0x15 JUMPI PUSH0 DUP1 REVERT JUMPDEST PUSH0 SWAP3 PUSH0 CALLDATALOAD PUSH1 0xE0 SHR SWAP2 DUP3 PUSH4 0x1D22CCD EQ PUSH2 0x281E JUMPI POP DUP2 PUSH4 0x6FDDE03 EQ PUSH2 0x26D5 JUMPI DUP2 PUSH4 0x723C999 EQ PUSH2 0x236A JUMPI DUP2 PUSH4 0x902F1AC EQ PUSH2 0x231C JUMPI DUP2 PUSH4 0x95EA7B3 EQ PUSH2 0x2217 JUMPI DUP2 PUSH4 0x18160DDD EQ PUSH2 0x21DB JUMPI DUP2 PUSH4 0x1A686502 EQ PUSH2 0x2199 JUMPI DUP2 PUSH4 0x22ACB867 EQ PUSH2 0x211E JUMPI DUP2 PUSH4 0x23B872DD EQ PUSH2 0x1FC9 JUMPI DUP2 PUSH4 0x313CE567 EQ PUSH2 0x1F90 JUMPI DUP2 PUSH4 0x36BF6E39 EQ PUSH2 0x1F3E JUMPI DUP2 PUSH4 0x3DFF5B7F EQ PUSH2 0x1E54 JUMPI DUP2 PUSH4 0x4AA06652 EQ PUSH2 0x1E39 JUMPI DUP2 PUSH4 0x5568081A EQ PUSH2 0x1A25 JUMPI DUP2 PUSH4 0x67A6C440 EQ PUSH2 0x19EA JUMPI DUP2 PUSH4 0x67E4AC2C EQ PUSH2 0x195B JUMPI DUP2 PUSH4 0x6E81221C EQ PUSH2 0x1576 JUMPI DUP2 PUSH4 0x70A08231 EQ PUSH2 0x1515 JUMPI DUP2 PUSH4 0x77AACE1A EQ PUSH2 0x14C2 JUMPI DUP2 PUSH4 0x7E04795A EQ PUSH2 0x13FD JUMPI DUP2 PUSH4 0x7FEC8D38 EQ PUSH2 0x13C0 JUMPI DUP2 PUSH4 0x89AB3532 EQ PUSH2 0x1336 JUMPI DUP2 PUSH4 0x89AFCB44 EQ PUSH2 0xC17 JUMPI DUP2 PUSH4 0x8A77C8DC EQ PUSH2 0xBD3 JUMPI DUP2 PUSH4 0x95D89B41 EQ PUSH2 0xA7D JUMPI DUP2 PUSH4 0xA9059CBB EQ PUSH2 0xA2E JUMPI DUP2 PUSH4 0xB2B55D70 EQ PUSH2 0x802 JUMPI DUP2 PUSH4 0xC2EE3A08 EQ PUSH2 0x9F1 JUMPI DUP2 PUSH4 0xCDF456E1 EQ PUSH2 0x99E JUMPI DUP2 PUSH4 0xCF8FA764 EQ PUSH2 0x8E2 JUMPI DUP2 PUSH4 0xD14EF46D EQ PUSH2 0x864 JUMPI DUP2 PUSH4 0xD66BD524 EQ PUSH2 0x802 JUMPI DUP2 PUSH4 0xDD62ED3E EQ PUSH2 0x78D JUMPI DUP2 PUSH4 0xDE836EBD EQ PUSH2 0x1E7 JUMPI POP PUSH4 0xE73FAA2D EQ PUSH2 0x1A3 JUMPI PUSH0 DUP1 REVERT JUMPDEST CALLVALUE PUSH2 0x1E3 JUMPI DUP2 PUSH32 0xFFFFFFFFFFFFFFFFFFFFFFFFFFFFFFFFFFFFFFFFFFFFFFFFFFFFFFFFFFFFFFFC CALLDATASIZE ADD SLT PUSH2 0x1E3 JUMPI PUSH1 0x20 SWAP1 PUSH2 0x1DC PUSH2 0x3040 JUMP JUMPDEST SWAP1 MLOAD SWAP1 DUP2 MSTORE RETURN JUMPDEST POP DUP1 REVERT JUMPDEST SWAP1 POP DUP3 CALLVALUE PUSH2 0x78A JUMPI DUP3 PUSH32 0xFFFFFFFFFFFFFFFFFFFFFFFFFFFFFFFFFFFFFFFFFFFFFFFFFFFFFFFFFFFFFFFC CALLDATASIZE ADD SLT PUSH2 0x78A JUMPI PUSH2 0x220 PUSH2 0x28B4 JUMP JUMPDEST SWAP2 PUSH1 0x24 SWAP3 DUP4 CALLDATALOAD PUSH8 0xFFFFFFFFFFFFFFFF DUP2 GT PUSH2 0x786 JUMPI PUSH2 0x242 SWAP1 CALLDATASIZE SWAP1 DUP5 ADD PUSH2 0x2A27 JUMP JUMPDEST SWAP3 PUSH20 0xFFFFFFFFFFFFFFFFFFFFFFFFFFFFFFFFFFFFFFFF SWAP3 PUSH2 0x268 DUP5 PUSH1 0xA SLOAD AND CALLER EQ PUSH2 0x2C59 JUMP JUMPDEST PUSH1 0x2 SLOAD SWAP6 DUP3 PUSH2 0x275 PUSH2 0x2BFD JUMP JUMPDEST SWAP8 PUSH1 0x7 SWAP9 PUSH1 0x7 SLOAD SWAP1 DUP1 MLOAD DUP3 SUB PUSH2 0x729 JUMPI DUP2 ISZERO PUSH2 0x6CC JUMPI SWAP1 DUP7 SWAP2 JUMPDEST DUP2 DUP4 LT PUSH2 0x541 JUMPI POP POP POP DUP2 ISZERO PUSH2 0x4BF JUMPI DUP1 PUSH2 0x414 JUMPI POP SWAP4 JUMPDEST DUP5 ISZERO PUSH2 0x3B8 JUMPI SWAP1 DUP5 PUSH2 0x2E1 DUP11 SWAP8 SWAP7 SWAP6 SWAP5 SWAP4 CALLER DUP7 MSTORE PUSH1 0x20 SWAP12 DUP7 DUP14 SWAP8 DUP9 MSTORE DUP1 DUP11 DUP4 DUP3 KECCAK256 SLOAD SWAP5 PUSH2 0x2D4 DUP9 DUP3 PUSH2 0x3118 JUMP JUMPDEST AND SWAP9 DUP10 DUP3 MSTORE MSTORE KECCAK256 SLOAD PUSH2 0x2E66 JUMP JUMPDEST SUB PUSH2 0x35D JUMPI POP POP PUSH0 JUMPDEST DUP7 SLOAD DUP2 LT ISZERO PUSH2 0x32B JUMPI DUP1 DUP5 PUSH2 0x300 PUSH1 0x1 SWAP4 PUSH2 0x2AD0 JUMP JUMPDEST POP SLOAD AND PUSH2 0x30D DUP3 DUP10 PUSH2 0x2B9A JUMP JUMPDEST MLOAD SWAP1 PUSH0 MSTORE PUSH1 0xC DUP11 MSTORE PUSH2 0x323 DUP8 PUSH0 KECCAK256 SWAP2 DUP3 SLOAD PUSH2 0x2E73 JUMP JUMPDEST SWAP1 SSTORE ADD PUSH2 0x2EA JUMP JUMPDEST DUP8 DUP4 DUP7 DUP5 PUSH32 0xF6798A560793A54C3BCFE86A93CDE1E73087D944C0EA20544137D4121396885 DUP5 DUP4 MLOAD DUP6 DUP2 MSTORE LOG2 MLOAD SWAP1 DUP2 MSTORE RETURN JUMPDEST SWAP1 PUSH1 0xB PUSH1 0x64 SWAP3 DUP11 DUP9 MLOAD SWAP4 PUSH32 0x8C379A000000000000000000000000000000000000000000000000000000000 DUP6 MSTORE DUP5 ADD MSTORE DUP3 ADD MSTORE PUSH32 0x4D696E74204661696C6564000000000000000000000000000000000000000000 PUSH1 0x44 DUP3 ADD MSTORE REVERT JUMPDEST PUSH1 0x64 DUP4 PUSH1 0xD DUP5 PUSH1 0x20 DUP14 MLOAD SWAP4 PUSH32 0x8C379A000000000000000000000000000000000000000000000000000000000 DUP6 MSTORE DUP5 ADD MSTORE DUP3 ADD MSTORE PUSH32 0x4D696E7420717479206973203000000000000000000000000000000000000000 PUSH1 0x44 DUP3 ADD MSTORE REVERT JUMPDEST PUSH2 0x41C PUSH2 0x306B JUMP JUMPDEST POP SWAP2 DUP3 ISZERO PUSH2 0x43D JUMPI PUSH2 0x437 SWAP3 SWAP2 PUSH2 0x432 SWAP2 PUSH2 0x2D72 JUMP JUMPDEST PUSH2 0x2DB2 JUMP JUMPDEST SWAP4 PUSH2 0x2A7 JUMP JUMPDEST PUSH1 0x84 DUP6 PUSH1 0x26 DUP7 PUSH1 0x20 DUP16 MLOAD SWAP4 PUSH32 0x8C379A000000000000000000000000000000000000000000000000000000000 DUP6 MSTORE DUP5 ADD MSTORE DUP3 ADD MSTORE PUSH32 0x546F74616C206C6971756964697479206D757374206265206772656174657220 PUSH1 0x44 DUP3 ADD MSTORE PUSH32 0x7468616E20300000000000000000000000000000000000000000000000000000 PUSH1 0x64 DUP3 ADD MSTORE REVERT JUMPDEST PUSH1 0x84 DUP5 PUSH1 0x22 DUP6 PUSH1 0x20 DUP15 MLOAD SWAP4 PUSH32 0x8C379A000000000000000000000000000000000000000000000000000000000 DUP6 MSTORE DUP5 ADD MSTORE DUP3 ADD MSTORE PUSH32 0x546F74616C2076616C7565206D7573742062652067726561746572207468616E PUSH1 0x44 DUP3 ADD MSTORE PUSH32 0x2030000000000000000000000000000000000000000000000000000000000000 PUSH1 0x64 DUP3 ADD MSTORE REVERT JUMPDEST SWAP1 SWAP2 SWAP4 DUP10 PUSH2 0x54E DUP7 PUSH2 0x2AD0 JUMP JUMPDEST POP SLOAD AND DUP14 MLOAD SWAP1 PUSH32 0x70A0823100000000000000000000000000000000000000000000000000000000 DUP3 MSTORE ADDRESS DUP10 DUP4 ADD MSTORE PUSH1 0x20 SWAP2 DUP3 DUP2 DUP11 DUP2 DUP6 GAS STATICCALL SWAP1 DUP2 ISZERO PUSH2 0x6C0 JUMPI DUP12 SWAP2 PUSH2 0x68F JUMPI JUMPDEST POP DUP1 ISZERO PUSH2 0x633 JUMPI PUSH2 0x5B0 SWAP1 PUSH2 0x5A9 DUP10 DUP8 PUSH2 0x2B9A JUMP JUMPDEST MLOAD SWAP1 PUSH2 0x2E66 JUMP JUMPDEST SWAP2 DUP3 ISZERO PUSH2 0x5D7 JUMPI POP SWAP2 PUSH2 0x5C8 PUSH2 0x5CE SWAP3 PUSH1 0x1 SWAP5 PUSH2 0x32BF JUMP JUMPDEST SWAP1 PUSH2 0x2E73 JUMP JUMPDEST SWAP5 ADD SWAP2 SWAP1 PUSH2 0x28F JUMP JUMPDEST DUP16 PUSH1 0x1D DUP11 PUSH1 0x64 SWAP4 DUP14 SWAP4 MLOAD SWAP4 PUSH32 0x8C379A000000000000000000000000000000000000000000000000000000000 DUP6 MSTORE DUP5 ADD MSTORE DUP3 ADD MSTORE PUSH32 0x416D6F756E74206D7573742062652067726561746572207468616E2030000000 PUSH1 0x44 DUP3 ADD MSTORE REVERT JUMPDEST DUP16 DUP11 PUSH1 0x1E DUP12 DUP7 PUSH1 0x64 SWAP5 MLOAD SWAP4 PUSH32 0x8C379A000000000000000000000000000000000000000000000000000000000 DUP6 MSTORE DUP5 ADD MSTORE DUP3 ADD MSTORE PUSH32 0x42616C616E6365206D7573742062652067726561746572207468616E20300000 PUSH1 0x44 DUP3 ADD MSTORE REVERT JUMPDEST SWAP1 POP DUP3 DUP2 DUP2 RETURNDATASIZE DUP4 GT PUSH2 0x6B9 JUMPI JUMPDEST PUSH2 0x6A6 DUP2 DUP4 PUSH2 0x29CE JUMP JUMPDEST DUP2 ADD SUB SLT PUSH2 0x6B5 JUMPI MLOAD PUSH0 PUSH2 0x594 JUMP JUMPDEST PUSH0 DUP1 REVERT JUMPDEST POP RETURNDATASIZE PUSH2 0x69C JUMP JUMPDEST POP POP DUP15 MLOAD RETURNDATASIZE DUP12 DUP3 RETURNDATACOPY RETURNDATASIZE SWAP1 REVERT JUMPDEST POP PUSH1 0x64 DUP6 PUSH1 0x9 DUP7 PUSH1 0x20 DUP16 MLOAD SWAP4 PUSH32 0x8C379A000000000000000000000000000000000000000000000000000000000 DUP6 MSTORE DUP5 ADD MSTORE DUP3 ADD MSTORE PUSH32 0x4E6F206173736574730000000000000000000000000000000000000000000000 PUSH1 0x44 DUP3 ADD MSTORE REVERT JUMPDEST POP PUSH1 0x64 DUP6 PUSH1 0x17 DUP7 PUSH1 0x20 DUP16 MLOAD SWAP4 PUSH32 0x8C379A000000000000000000000000000000000000000000000000000000000 DUP6 MSTORE DUP5 ADD MSTORE DUP3 ADD MSTORE PUSH32 0x496E76616C6964207265736572766573206C656E677468000000000000000000 PUSH1 0x44 DUP3 ADD MSTORE REVERT JUMPDEST DUP4 DUP1 REVERT JUMPDEST DUP1 REVERT JUMPDEST POP POP CALLVALUE PUSH2 0x1E3 JUMPI DUP1 PUSH32 0xFFFFFFFFFFFFFFFFFFFFFFFFFFFFFFFFFFFFFFFFFFFFFFFFFFFFFFFFFFFFFFFC CALLDATASIZE ADD SLT PUSH2 0x1E3 JUMPI PUSH1 0x20 SWAP2 PUSH2 0x7C8 PUSH2 0x28B4 JUMP JUMPDEST DUP3 PUSH2 0x7D1 PUSH2 0x28D7 JUMP JUMPDEST SWAP3 PUSH20 0xFFFFFFFFFFFFFFFFFFFFFFFFFFFFFFFFFFFFFFFF DUP1 SWAP4 AND DUP2 MSTORE PUSH1 0x1 DUP7 MSTORE KECCAK256 SWAP2 AND PUSH0 MSTORE DUP3 MSTORE DUP1 PUSH0 KECCAK256 SLOAD SWAP1 MLOAD SWAP1 DUP2 MSTORE RETURN JUMPDEST POP POP CALLVALUE PUSH2 0x1E3 JUMPI PUSH1 0x20 PUSH32 0xFFFFFFFFFFFFFFFFFFFFFFFFFFFFFFFFFFFFFFFFFFFFFFFFFFFFFFFFFFFFFFFC CALLDATASIZE ADD SLT PUSH2 0x1E3 JUMPI DUP1 PUSH1 0x20 SWAP3 PUSH20 0xFFFFFFFFFFFFFFFFFFFFFFFFFFFFFFFFFFFFFFFF PUSH2 0x854 PUSH2 0x28B4 JUMP JUMPDEST AND DUP2 MSTORE PUSH1 0xC DUP5 MSTORE KECCAK256 SLOAD SWAP1 MLOAD SWAP1 DUP2 MSTORE RETURN JUMPDEST DUP4 SWAP2 POP CALLVALUE PUSH2 0x1E3 JUMPI PUSH1 0x20 PUSH32 0xFFFFFFFFFFFFFFFFFFFFFFFFFFFFFFFFFFFFFFFFFFFFFFFFFFFFFFFFFFFFFFFC CALLDATASIZE ADD SLT PUSH2 0x1E3 JUMPI CALLDATALOAD SWAP1 PUSH1 0x7 SLOAD DUP3 LT ISZERO PUSH2 0x78A JUMPI POP PUSH2 0x8AC SWAP1 PUSH2 0x2AD0 JUMP JUMPDEST POP DUP1 SLOAD PUSH1 0x1 SWAP1 SWAP2 ADD SLOAD SWAP2 MLOAD PUSH20 0xFFFFFFFFFFFFFFFFFFFFFFFFFFFFFFFFFFFFFFFF SWAP1 SWAP2 AND DUP2 MSTORE PUSH1 0x20 DUP2 ADD SWAP2 SWAP1 SWAP2 MSTORE PUSH1 0x40 SWAP1 RETURN JUMPDEST SUB SWAP1 RETURN JUMPDEST SWAP1 POP DUP3 CALLVALUE PUSH2 0x78A JUMPI PUSH1 0x20 PUSH32 0xFFFFFFFFFFFFFFFFFFFFFFFFFFFFFFFFFFFFFFFFFFFFFFFFFFFFFFFFFFFFFFFC CALLDATASIZE ADD SLT PUSH2 0x78A JUMPI POP DUP1 CALLDATALOAD SWAP1 PUSH2 0x920 PUSH2 0x306B JUMP JUMPDEST DUP1 SWAP3 SWAP2 POP MLOAD DUP4 LT ISZERO PUSH2 0x941 JUMPI PUSH1 0x20 DUP5 PUSH2 0x939 DUP6 DUP6 PUSH2 0x2B9A JUMP JUMPDEST MLOAD SWAP1 MLOAD SWAP1 DUP2 MSTORE RETURN JUMPDEST PUSH1 0x64 SWAP1 PUSH1 0x20 DUP6 MLOAD SWAP2 PUSH32 0x8C379A000000000000000000000000000000000000000000000000000000000 DUP4 MSTORE DUP3 ADD MSTORE PUSH1 0x13 PUSH1 0x24 DUP3 ADD MSTORE PUSH32 0x496E76616C696420617373657420696E64657800000000000000000000000000 PUSH1 0x44 DUP3 ADD MSTORE REVERT JUMPDEST POP POP CALLVALUE PUSH2 0x1E3 JUMPI DUP2 PUSH32 0xFFFFFFFFFFFFFFFFFFFFFFFFFFFFFFFFFFFFFFFFFFFFFFFFFFFFFFFFFFFFFFFC CALLDATASIZE ADD SLT PUSH2 0x1E3 JUMPI PUSH1 0x20 SWAP1 PUSH20 0xFFFFFFFFFFFFFFFFFFFFFFFFFFFFFFFFFFFFFFFF PUSH1 0xB SLOAD AND SWAP1 MLOAD SWAP1 DUP2 MSTORE RETURN JUMPDEST POP POP CALLVALUE PUSH2 0x1E3 JUMPI DUP2 PUSH32 0xFFFFFFFFFFFFFFFFFFFFFFFFFFFFFFFFFFFFFFFFFFFFFFFFFFFFFFFFFFFFFFFC CALLDATASIZE ADD SLT PUSH2 0x1E3 JUMPI PUSH1 0x20 SWAP1 PUSH1 0x9 SLOAD SWAP1 MLOAD SWAP1 DUP2 MSTORE RETURN JUMPDEST POP POP CALLVALUE PUSH2 0x1E3 JUMPI DUP1 PUSH32 0xFFFFFFFFFFFFFFFFFFFFFFFFFFFFFFFFFFFFFFFFFFFFFFFFFFFFFFFFFFFFFFFC CALLDATASIZE ADD SLT PUSH2 0x1E3 JUMPI PUSH1 0x20 SWAP1 PUSH2 0xA76 PUSH2 0xA6C PUSH2 0x28B4 JUMP JUMPDEST PUSH1 0x24 CALLDATALOAD SWAP1 CALLER PUSH2 0x31B2 JUMP JUMPDEST MLOAD PUSH1 0x1 DUP2 MSTORE RETURN JUMPDEST DUP4 DUP4 CALLVALUE PUSH2 0x1E3 JUMPI DUP2 PUSH32 0xFFFFFFFFFFFFFFFFFFFFFFFFFFFFFFFFFFFFFFFFFFFFFFFFFFFFFFFFFFFFFFFC CALLDATASIZE ADD SLT PUSH2 0x1E3 JUMPI DUP1 MLOAD SWAP2 DUP1 SWAP4 DUP1 SLOAD SWAP2 PUSH1 0x1 SWAP1 DUP4 PUSH1 0x1 SHR SWAP3 PUSH1 0x1 DUP6 AND SWAP5 DUP6 ISZERO PUSH2 0xBC9 JUMPI JUMPDEST PUSH1 0x20 SWAP6 DUP7 DUP7 LT DUP2 EQ PUSH2 0xB9D JUMPI DUP6 DUP10 MSTORE SWAP1 DUP2 ISZERO PUSH2 0xB5B JUMPI POP PUSH1 0x1 EQ PUSH2 0xB03 JUMPI JUMPDEST PUSH2 0x8DE DUP8 DUP8 PUSH2 0xAF9 DUP3 DUP13 SUB DUP4 PUSH2 0x29CE JUMP JUMPDEST MLOAD SWAP2 DUP3 SWAP2 DUP3 PUSH2 0x286C JUMP JUMPDEST DUP2 MSTORE SWAP3 SWAP6 POP PUSH32 0x8A35ACFBC15FF81A39AE7D344FD709F28E8600B4AA8C65C6B64BFE7FE36BD19B JUMPDEST DUP3 DUP5 LT PUSH2 0xB48 JUMPI POP POP POP DUP3 PUSH2 0x8DE SWAP5 PUSH2 0xAF9 SWAP3 DUP3 ADD ADD SWAP5 DUP7 DUP1 PUSH2 0xAE8 JUMP JUMPDEST DUP1 SLOAD DUP7 DUP6 ADD DUP9 ADD MSTORE SWAP3 DUP7 ADD SWAP3 DUP2 ADD PUSH2 0xB2A JUMP JUMPDEST PUSH32 0xFFFFFFFFFFFFFFFFFFFFFFFFFFFFFFFFFFFFFFFFFFFFFFFFFFFFFFFFFFFFFF00 AND DUP9 DUP8 ADD MSTORE POP POP POP POP ISZERO ISZERO PUSH1 0x5 SHL DUP4 ADD ADD SWAP3 POP PUSH2 0xAF9 DUP3 PUSH2 0x8DE DUP7 DUP1 PUSH2 0xAE8 JUMP JUMPDEST PUSH1 0x24 DUP5 PUSH1 0x22 DUP6 PUSH32 0x4E487B7100000000000000000000000000000000000000000000000000000000 DUP4 MSTORE MSTORE REVERT JUMPDEST SWAP4 PUSH1 0x7F AND SWAP4 PUSH2 0xAC9 JUMP JUMPDEST POP POP CALLVALUE PUSH2 0x1E3 JUMPI DUP2 PUSH32 0xFFFFFFFFFFFFFFFFFFFFFFFFFFFFFFFFFFFFFFFFFFFFFFFFFFFFFFFFFFFFFFFC CALLDATASIZE ADD SLT PUSH2 0x1E3 JUMPI PUSH1 0x20 SWAP1 PUSH2 0xC0E PUSH2 0x2FEA JUMP JUMPDEST SWAP1 MLOAD SWAP1 ISZERO ISZERO DUP2 MSTORE RETURN JUMPDEST DUP4 SWAP2 POP CALLVALUE PUSH2 0x1E3 JUMPI PUSH1 0x20 DUP1 PUSH32 0xFFFFFFFFFFFFFFFFFFFFFFFFFFFFFFFFFFFFFFFFFFFFFFFFFFFFFFFFFFFFFFFC CALLDATASIZE ADD SLT PUSH2 0x1332 JUMPI PUSH2 0xC52 PUSH2 0x28B4 JUMP JUMPDEST SWAP3 PUSH20 0xFFFFFFFFFFFFFFFFFFFFFFFFFFFFFFFFFFFFFFFF SWAP4 PUSH2 0xC78 DUP6 PUSH1 0xA SLOAD AND CALLER EQ PUSH2 0x2C59 JUMP JUMPDEST ADDRESS DUP3 MSTORE DUP2 DUP4 MSTORE DUP6 DUP3 KECCAK256 SLOAD SWAP1 DUP2 ISZERO PUSH2 0x12D6 JUMPI PUSH1 0x2 SLOAD SWAP6 DUP7 ISZERO PUSH2 0x127A JUMPI PUSH1 0x7 DUP1 SLOAD SWAP4 PUSH2 0xCA1 DUP6 PUSH2 0x2BAE JUMP JUMPDEST SWAP5 PUSH2 0x12C DUP3 MUL PUSH32 0xFFFFFFFFFFFFFFFFFFFFFFFFFFFFFFFFFFFFFFFFFFFFFFFFFFFFFFFFFFFFFED4 DUP4 DUP3 DIV ADD PUSH2 0x124E JUMPI PUSH2 0x2710 PUSH2 0xCDF SWAP2 DIV DUP1 SWAP4 PUSH2 0x2E66 JUMP JUMPDEST SWAP10 DUP8 JUMPDEST DUP3 DUP2 LT PUSH2 0x1196 JUMPI POP POP POP ADDRESS DUP7 MSTORE DUP6 DUP8 MSTORE PUSH2 0xD01 DUP10 DUP12 DUP9 KECCAK256 SLOAD LT ISZERO PUSH2 0x2F85 JUMP JUMPDEST DUP8 DUP8 DUP5 PUSH1 0x6 SLOAD AND DUP13 MLOAD SWAP3 DUP4 DUP1 SWAP3 PUSH32 0x3B19E84A00000000000000000000000000000000000000000000000000000000 DUP3 MSTORE GAS STATICCALL SWAP1 DUP2 ISZERO PUSH2 0x1141 JUMPI SWAP2 DUP9 SWAP2 DUP11 SWAP8 SWAP7 SWAP6 SWAP5 SWAP4 DUP10 SWAP2 PUSH2 0x114B JUMPI JUMPDEST POP SWAP1 PUSH2 0xDA7 SWAP3 SWAP2 DUP14 MLOAD SWAP4 DUP5 SWAP3 DUP4 SWAP3 PUSH32 0xA9059CBB00000000000000000000000000000000000000000000000000000000 SWAP12 DUP13 DUP6 MSTORE DUP5 ADD PUSH1 0x20 SWAP1 SWAP4 SWAP3 SWAP2 SWAP4 PUSH20 0xFFFFFFFFFFFFFFFFFFFFFFFFFFFFFFFFFFFFFFFF PUSH1 0x40 DUP3 ADD SWAP6 AND DUP2 MSTORE ADD MSTORE JUMP JUMPDEST SUB DUP2 DUP11 ADDRESS GAS CALL SWAP1 DUP2 ISZERO PUSH2 0x1141 JUMPI DUP8 SWAP2 PUSH2 0x1124 JUMPI JUMPDEST POP ISZERO PUSH2 0x10C8 JUMPI ADDRESS DUP7 MSTORE DUP6 DUP8 MSTORE PUSH2 0xDD6 DUP10 DUP12 DUP9 KECCAK256 SLOAD LT ISZERO PUSH2 0x2F85 JUMP JUMPDEST ADDRESS ISZERO PUSH2 0x1099 JUMPI ADDRESS PUSH0 MSTORE PUSH0 DUP8 MSTORE DUP10 PUSH0 KECCAK256 SLOAD DUP10 DUP2 LT PUSH2 0x1054 JUMPI DUP10 SWAP1 ADDRESS PUSH0 MSTORE PUSH0 DUP10 MSTORE SUB DUP11 PUSH0 KECCAK256 SSTORE DUP9 PUSH1 0x2 SLOAD SUB PUSH1 0x2 SSTORE PUSH0 DUP11 MLOAD DUP11 DUP2 MSTORE PUSH32 0xDDF252AD1BE2C89B69C2B068FC378DAA952BA7F163C4A11628F55A4DF523B3EF DUP10 ADDRESS SWAP3 LOG3 DUP6 JUMPDEST DUP2 SLOAD DUP2 LT ISZERO PUSH2 0xFD9 JUMPI DUP8 DUP4 PUSH2 0xE43 DUP4 PUSH2 0x2AD0 JUMP JUMPDEST POP SLOAD AND DUP13 MLOAD SWAP2 DUP3 DUP1 SWAP3 PUSH32 0x70A0823100000000000000000000000000000000000000000000000000000000 DUP3 MSTORE DUP14 ADDRESS SWAP1 DUP4 ADD MSTORE PUSH1 0x24 SWAP5 DUP6 SWAP2 GAS STATICCALL DUP1 ISZERO PUSH2 0xFA0 JUMPI DUP10 SWAP1 PUSH2 0xFAA JUMPI JUMPDEST PUSH2 0xEA0 SWAP2 POP PUSH2 0xE98 DUP5 DUP10 PUSH2 0x2B9A JUMP JUMPDEST MLOAD GT ISZERO PUSH2 0x2E01 JUMP JUMPDEST DUP12 DUP10 DUP7 DUP9 DUP14 DUP13 DUP13 PUSH2 0xEF7 PUSH2 0xEC1 DUP11 DUP14 PUSH2 0xEB8 DUP3 PUSH2 0x2AD0 JUMP JUMPDEST POP SLOAD AND SWAP7 PUSH2 0x2B9A JUMP JUMPDEST MLOAD SWAP8 MLOAD SWAP8 DUP9 SWAP7 DUP8 SWAP6 DUP7 SWAP5 DUP6 MSTORE DUP5 ADD PUSH1 0x20 SWAP1 SWAP4 SWAP3 SWAP2 SWAP4 PUSH20 0xFFFFFFFFFFFFFFFFFFFFFFFFFFFFFFFFFFFFFFFF PUSH1 0x40 DUP3 ADD SWAP6 AND DUP2 MSTORE ADD MSTORE JUMP JUMPDEST SUB SWAP3 GAS CALL SWAP1 DUP2 ISZERO PUSH2 0xFA0 JUMPI DUP10 SWAP2 PUSH2 0xF73 JUMPI JUMPDEST POP ISZERO PUSH2 0xF18 JUMPI POP PUSH1 0x1 ADD PUSH2 0xE2F JUMP JUMPDEST DUP10 PUSH1 0x15 PUSH1 0x64 SWAP3 DUP12 DUP16 MLOAD SWAP4 PUSH32 0x8C379A000000000000000000000000000000000000000000000000000000000 DUP6 MSTORE DUP5 ADD MSTORE DUP3 ADD MSTORE PUSH32 0x4173736574207472616E73666572206661696C65640000000000000000000000 PUSH1 0x44 DUP3 ADD MSTORE REVERT JUMPDEST PUSH2 0xF93 SWAP2 POP DUP11 RETURNDATASIZE DUP13 GT PUSH2 0xF99 JUMPI JUMPDEST PUSH2 0xF8B DUP2 DUP4 PUSH2 0x29CE JUMP JUMPDEST DUP2 ADD SWAP1 PUSH2 0x2DE9 JUMP JUMPDEST DUP14 PUSH2 0xF09 JUMP JUMPDEST POP RETURNDATASIZE PUSH2 0xF81 JUMP JUMPDEST DUP14 MLOAD RETURNDATASIZE DUP12 DUP3 RETURNDATACOPY RETURNDATASIZE SWAP1 REVERT JUMPDEST POP DUP10 DUP2 DUP2 RETURNDATASIZE DUP4 GT PUSH2 0xFD2 JUMPI JUMPDEST PUSH2 0xFC0 DUP2 DUP4 PUSH2 0x29CE JUMP JUMPDEST DUP2 ADD SUB SLT PUSH2 0x6B5 JUMPI PUSH2 0xEA0 SWAP1 MLOAD PUSH2 0xE89 JUMP JUMPDEST POP RETURNDATASIZE PUSH2 0xFB6 JUMP JUMPDEST POP SWAP2 DUP10 SWAP2 DUP7 DUP11 DUP10 SWAP4 PUSH0 JUMPDEST DUP8 SLOAD DUP2 LT ISZERO PUSH2 0x1024 JUMPI DUP1 DUP6 PUSH2 0xFF9 PUSH1 0x1 SWAP4 PUSH2 0x2AD0 JUMP JUMPDEST POP SLOAD AND PUSH2 0x1006 DUP3 DUP13 PUSH2 0x2B9A JUMP JUMPDEST MLOAD SWAP1 PUSH0 MSTORE PUSH1 0xC DUP9 MSTORE PUSH2 0x101C DUP10 PUSH0 KECCAK256 SWAP2 DUP3 SLOAD PUSH2 0x2E66 JUMP JUMPDEST SWAP1 SSTORE ADD PUSH2 0xFE3 JUMP JUMPDEST POP DUP5 DUP5 PUSH32 0xCC16F5DBB4873280815C1EE09DBD06736CFFCC184412CF7A71A0FDB75D397CA5 SWAP3 DUP9 MLOAD SWAP5 DUP6 MSTORE AND SWAP3 LOG2 DUP1 RETURN JUMPDEST DUP11 MLOAD PUSH32 0xE450D38C00000000000000000000000000000000000000000000000000000000 DUP2 MSTORE ADDRESS DUP2 DUP12 ADD SWAP1 DUP2 MSTORE PUSH1 0x20 DUP2 ADD SWAP3 SWAP1 SWAP3 MSTORE PUSH1 0x40 DUP3 ADD DUP12 SWAP1 MSTORE SWAP1 DUP2 SWAP1 PUSH1 0x60 ADD SUB SWAP1 REVERT JUMPDEST PUSH1 0x24 DUP9 DUP8 DUP13 MLOAD SWAP2 PUSH32 0x96C6FD1E00000000000000000000000000000000000000000000000000000000 DUP4 MSTORE DUP3 ADD MSTORE REVERT JUMPDEST PUSH1 0x64 DUP9 DUP9 DUP13 MLOAD SWAP2 PUSH32 0x8C379A000000000000000000000000000000000000000000000000000000000 DUP4 MSTORE DUP3 ADD MSTORE PUSH1 0x13 PUSH1 0x24 DUP3 ADD MSTORE PUSH32 0x466565207472616E73666572206661696C656400000000000000000000000000 PUSH1 0x44 DUP3 ADD MSTORE REVERT JUMPDEST PUSH2 0x113B SWAP2 POP DUP9 RETURNDATASIZE DUP11 GT PUSH2 0xF99 JUMPI PUSH2 0xF8B DUP2 DUP4 PUSH2 0x29CE JUMP JUMPDEST DUP12 PUSH2 0xDBB JUMP JUMPDEST DUP12 MLOAD RETURNDATASIZE DUP10 DUP3 RETURNDATACOPY RETURNDATASIZE SWAP1 REVERT JUMPDEST SWAP3 DUP1 SWAP3 SWAP5 SWAP6 SWAP7 SWAP8 SWAP9 POP DUP4 SWAP2 POP RETURNDATASIZE DUP4 GT PUSH2 0x118F JUMPI JUMPDEST PUSH2 0x1169 DUP2 DUP4 PUSH2 0x29CE JUMP JUMPDEST DUP2 ADD SUB SLT PUSH2 0x118B JUMPI MLOAD DUP4 DUP2 AND DUP2 SUB PUSH2 0x118B JUMPI DUP9 SWAP6 SWAP5 SWAP4 SWAP3 SWAP2 DUP9 SWAP2 PUSH2 0xDA7 PUSH2 0xD4A JUMP JUMPDEST DUP7 DUP1 REVERT JUMPDEST POP RETURNDATASIZE PUSH2 0x115F JUMP JUMPDEST DUP13 DUP11 DUP13 PUSH1 0x24 DUP10 PUSH2 0x11A5 DUP7 PUSH2 0x2AD0 JUMP JUMPDEST POP SLOAD AND SWAP4 MLOAD DUP1 SWAP5 DUP2 SWAP4 PUSH32 0x70A0823100000000000000000000000000000000000000000000000000000000 DUP4 MSTORE ADDRESS SWAP1 DUP4 ADD MSTORE GAS STATICCALL SWAP1 DUP2 ISZERO PUSH2 0x1244 JUMPI DUP4 SWAP3 SWAP2 DUP15 SWAP2 DUP13 SWAP2 PUSH2 0x120D JUMPI JUMPDEST POP SWAP3 PUSH2 0x432 PUSH2 0x11FC SWAP3 PUSH1 0x1 SWAP6 PUSH2 0x2D72 JUMP JUMPDEST PUSH2 0x1206 DUP3 DUP12 PUSH2 0x2B9A JUMP JUMPDEST MSTORE ADD PUSH2 0xCE2 JUMP JUMPDEST SWAP4 POP POP POP DUP11 DUP3 DUP2 RETURNDATASIZE DUP4 GT PUSH2 0x123D JUMPI JUMPDEST PUSH2 0x1226 DUP2 DUP4 PUSH2 0x29CE JUMP JUMPDEST DUP2 ADD SUB SLT PUSH2 0x6B5 JUMPI SWAP1 MLOAD DUP3 SWAP2 SWAP1 DUP14 SWAP1 PUSH2 0x432 PUSH2 0x11EB JUMP JUMPDEST POP RETURNDATASIZE PUSH2 0x121C JUMP JUMPDEST DUP15 MLOAD RETURNDATASIZE DUP13 DUP3 RETURNDATACOPY RETURNDATASIZE SWAP1 REVERT JUMPDEST PUSH1 0x24 DUP9 PUSH1 0x11 DUP13 PUSH32 0x4E487B7100000000000000000000000000000000000000000000000000000000 DUP4 MSTORE MSTORE REVERT JUMPDEST PUSH1 0x64 DUP7 DUP7 DUP11 MLOAD SWAP2 PUSH32 0x8C379A000000000000000000000000000000000000000000000000000000000 DUP4 MSTORE DUP3 ADD MSTORE PUSH1 0xC PUSH1 0x24 DUP3 ADD MSTORE PUSH32 0x4E6F206C69717569646974790000000000000000000000000000000000000000 PUSH1 0x44 DUP3 ADD MSTORE REVERT JUMPDEST PUSH1 0x64 DUP6 DUP6 DUP10 MLOAD SWAP2 PUSH32 0x8C379A000000000000000000000000000000000000000000000000000000000 DUP4 MSTORE DUP3 ADD MSTORE PUSH1 0x1C PUSH1 0x24 DUP3 ADD MSTORE PUSH32 0x5368617265206D7573742062652067726561746572207468616E203000000000 PUSH1 0x44 DUP3 ADD MSTORE REVERT JUMPDEST DUP3 DUP1 REVERT JUMPDEST DUP3 DUP5 CALLVALUE PUSH2 0x78A JUMPI DUP1 PUSH32 0xFFFFFFFFFFFFFFFFFFFFFFFFFFFFFFFFFFFFFFFFFFFFFFFFFFFFFFFFFFFFFFFC CALLDATASIZE ADD SLT PUSH2 0x78A JUMPI PUSH2 0x136E PUSH2 0x2E80 JUMP JUMPDEST SWAP3 SWAP1 DUP2 MLOAD SWAP4 DUP3 DUP6 SWAP4 DUP5 ADD SWAP1 DUP5 MSTORE DUP3 MLOAD DUP1 SWAP2 MSTORE PUSH1 0x60 DUP5 ADD SWAP3 PUSH1 0x20 DUP1 SWAP2 ADD SWAP6 JUMPDEST DUP3 DUP2 LT PUSH2 0x13A7 JUMPI DUP6 DUP1 PUSH2 0x8DE DUP8 DUP8 DUP4 DUP3 SUB PUSH1 0x20 DUP6 ADD MSTORE PUSH2 0x28FA JUMP JUMPDEST DUP7 MLOAD ISZERO ISZERO DUP6 MSTORE SWAP6 DUP2 ADD SWAP6 DUP8 SWAP6 POP SWAP4 DUP2 ADD SWAP4 PUSH1 0x1 ADD PUSH2 0x138C JUMP JUMPDEST POP POP CALLVALUE PUSH2 0x1E3 JUMPI DUP2 PUSH32 0xFFFFFFFFFFFFFFFFFFFFFFFFFFFFFFFFFFFFFFFFFFFFFFFFFFFFFFFFFFFFFFFC CALLDATASIZE ADD SLT PUSH2 0x1E3 JUMPI PUSH1 0x20 SWAP1 PUSH1 0x8 SLOAD SWAP1 MLOAD SWAP1 DUP2 MSTORE RETURN JUMPDEST SWAP2 SWAP1 POP CALLVALUE PUSH2 0x1332 JUMPI PUSH1 0x20 SWAP2 PUSH1 0x20 PUSH32 0xFFFFFFFFFFFFFFFFFFFFFFFFFFFFFFFFFFFFFFFFFFFFFFFFFFFFFFFFFFFFFFFC CALLDATASIZE ADD SLT PUSH2 0x786 JUMPI DUP1 CALLDATALOAD SWAP1 PUSH8 0xFFFFFFFFFFFFFFFF DUP3 GT PUSH2 0x14BE JUMPI PUSH2 0x1450 SWAP2 CALLDATASIZE SWAP2 ADD PUSH2 0x2A27 JUMP JUMPDEST SWAP1 PUSH20 0xFFFFFFFFFFFFFFFFFFFFFFFFFFFFFFFFFFFFFFFF SWAP3 PUSH2 0x1476 DUP5 PUSH1 0xA SLOAD AND CALLER EQ PUSH2 0x2C59 JUMP JUMPDEST DUP5 JUMPDEST PUSH1 0x7 SLOAD DUP2 LT ISZERO PUSH2 0x14BA JUMPI DUP1 DUP6 PUSH2 0x148F PUSH1 0x1 SWAP4 PUSH2 0x2AD0 JUMP JUMPDEST POP SLOAD AND PUSH2 0x149C DUP3 DUP8 PUSH2 0x2B9A JUMP JUMPDEST MLOAD SWAP1 DUP9 MSTORE PUSH1 0xC DUP5 MSTORE PUSH2 0x14B2 DUP6 DUP10 KECCAK256 SWAP2 DUP3 SLOAD PUSH2 0x2E66 JUMP JUMPDEST SWAP1 SSTORE ADD PUSH2 0x1478 JUMP JUMPDEST DUP6 DUP1 RETURN JUMPDEST DUP5 DUP1 REVERT JUMPDEST POP POP CALLVALUE PUSH2 0x1E3 JUMPI DUP2 PUSH32 0xFFFFFFFFFFFFFFFFFFFFFFFFFFFFFFFFFFFFFFFFFFFFFFFFFFFFFFFFFFFFFFFC CALLDATASIZE ADD SLT PUSH2 0x1E3 JUMPI PUSH1 0x20 SWAP1 PUSH20 0xFFFFFFFFFFFFFFFFFFFFFFFFFFFFFFFFFFFFFFFF PUSH1 0xA SLOAD AND SWAP1 MLOAD SWAP1 DUP2 MSTORE RETURN JUMPDEST POP POP CALLVALUE PUSH2 0x1E3 JUMPI PUSH1 0x20 PUSH32 0xFFFFFFFFFFFFFFFFFFFFFFFFFFFFFFFFFFFFFFFFFFFFFFFFFFFFFFFFFFFFFFFC CALLDATASIZE ADD SLT PUSH2 0x1E3 JUMPI DUP1 PUSH1 0x20 SWAP3 PUSH20 0xFFFFFFFFFFFFFFFFFFFFFFFFFFFFFFFFFFFFFFFF PUSH2 0x1567 PUSH2 0x28B4 JUMP JUMPDEST AND DUP2 MSTORE DUP1 DUP5 MSTORE KECCAK256 SLOAD SWAP1 MLOAD SWAP1 DUP2 MSTORE RETURN JUMPDEST SWAP1 POP CALLVALUE PUSH2 0x1332 JUMPI PUSH1 0x80 PUSH32 0xFFFFFFFFFFFFFFFFFFFFFFFFFFFFFFFFFFFFFFFFFFFFFFFFFFFFFFFFFFFFFFFC CALLDATASIZE ADD SLT PUSH2 0x1332 JUMPI PUSH2 0x15AF PUSH2 0x28B4 JUMP JUMPDEST SWAP3 PUSH2 0x15B8 PUSH2 0x28D7 JUMP JUMPDEST PUSH1 0x44 CALLDATALOAD PUSH1 0x64 CALLDATALOAD SWAP6 PUSH20 0xFFFFFFFFFFFFFFFFFFFFFFFFFFFFFFFFFFFFFFFF SWAP7 DUP8 DUP2 AND DUP2 SUB PUSH2 0x6B5 JUMPI PUSH1 0x2 PUSH1 0x5 SLOAD EQ PUSH2 0x1933 JUMPI PUSH1 0x2 PUSH1 0x5 SSTORE DUP8 DUP5 AND SWAP4 DUP9 DUP4 AND SWAP3 DUP6 DUP5 EQ PUSH2 0x18D6 JUMPI DUP5 ISZERO PUSH2 0x1879 JUMPI DUP9 MLOAD PUSH32 0x23B872DD00000000000000000000000000000000000000000000000000000000 DUP2 MSTORE PUSH1 0x20 PUSH1 0x80 DUP2 SWAP1 MSTORE CALLER DUP11 DUP4 ADD SWAP1 DUP2 MSTORE ADDRESS DUP2 DUP4 ADD MSTORE PUSH1 0x40 DUP2 ADD DUP9 SWAP1 MSTORE DUP3 SWAP1 DUP2 SWAP1 PUSH1 0x60 ADD SUB DUP2 DUP12 DUP10 GAS CALL DUP1 ISZERO PUSH2 0x186F JUMPI SWAP2 PUSH2 0x1667 SWAP4 SWAP2 DUP8 SWAP4 PUSH2 0x184E JUMPI JUMPDEST POP PUSH2 0x2CBE JUMP JUMPDEST SWAP8 DUP8 MLOAD PUSH32 0x70A0823100000000000000000000000000000000000000000000000000000000 DUP2 MSTORE ADDRESS DUP9 DUP3 ADD MSTORE PUSH1 0x80 MLOAD DUP2 PUSH1 0x24 DUP2 DUP10 GAS STATICCALL DUP1 ISZERO PUSH2 0x17E2 JUMPI DUP11 SWAP1 DUP9 SWAP1 PUSH2 0x1818 JUMPI JUMPDEST PUSH2 0x16B7 SWAP3 POP LT ISZERO PUSH2 0x2E01 JUMP JUMPDEST PUSH2 0x12C DUP1 DUP11 MUL SWAP1 DUP11 DUP3 DIV EQ DUP11 ISZERO OR ISZERO PUSH2 0x17EC JUMPI PUSH2 0x2710 PUSH2 0x16D8 SWAP2 DIV DUP11 PUSH2 0x2E66 JUMP JUMPDEST SWAP7 DUP9 MLOAD SWAP1 PUSH32 0xA9059CBB00000000000000000000000000000000000000000000000000000000 DUP3 MSTORE DUP2 DUP1 PUSH2 0x1734 DUP12 DUP8 PUSH1 0x80 MLOAD SWAP6 DUP5 ADD PUSH1 0x20 SWAP1 SWAP4 SWAP3 SWAP2 SWAP4 PUSH20 0xFFFFFFFFFFFFFFFFFFFFFFFFFFFFFFFFFFFFFFFF PUSH1 0x40 DUP3 ADD SWAP6 AND DUP2 MSTORE ADD MSTORE JUMP JUMPDEST SUB DUP2 DUP11 DUP11 GAS CALL DUP1 ISZERO PUSH2 0x17E2 JUMPI SWAP4 PUSH2 0x17B0 SWAP8 SWAP6 SWAP4 PUSH32 0xCD3829A3813DC3CDD188FD3D01DCF3268C16BE2FDD2DD21D0665418816E46062 DUP12 DUP4 SWAP6 DUP11 SWAP9 SWAP6 DUP3 SWAP12 SWAP7 PUSH2 0x17C1 JUMPI JUMPDEST POP DUP2 MLOAD SWAP4 DUP9 DUP6 MSTORE DUP14 PUSH1 0x80 MLOAD DUP7 ADD MSTORE AND SWAP3 LOG4 DUP4 MSTORE PUSH1 0xC PUSH1 0x80 MLOAD MSTORE PUSH2 0x179D DUP5 DUP5 KECCAK256 SWAP2 DUP3 SLOAD PUSH2 0x2E73 JUMP JUMPDEST SWAP1 SSTORE DUP2 MSTORE PUSH1 0xC PUSH1 0x80 MLOAD MSTORE KECCAK256 SWAP2 DUP3 SLOAD PUSH2 0x2E73 JUMP JUMPDEST SWAP1 SSTORE PUSH1 0x1 PUSH1 0x5 SSTORE MLOAD SWAP1 DUP2 MSTORE PUSH1 0x80 MLOAD SWAP1 RETURN JUMPDEST PUSH2 0x17DB SWAP1 PUSH1 0x80 MLOAD RETURNDATASIZE PUSH1 0x80 MLOAD GT PUSH2 0xF99 JUMPI PUSH2 0xF8B DUP2 DUP4 PUSH2 0x29CE JUMP JUMPDEST POP PUSH0 PUSH2 0x1776 JUMP JUMPDEST DUP10 MLOAD RETURNDATASIZE DUP10 DUP3 RETURNDATACOPY RETURNDATASIZE SWAP1 REVERT JUMPDEST PUSH1 0x24 DUP8 PUSH1 0x11 DUP11 PUSH32 0x4E487B7100000000000000000000000000000000000000000000000000000000 DUP4 MSTORE MSTORE REVERT JUMPDEST POP POP PUSH1 0x80 MLOAD RETURNDATASIZE DUP2 GT PUSH2 0x1847 JUMPI JUMPDEST PUSH2 0x182F DUP2 DUP4 PUSH2 0x29CE JUMP JUMPDEST DUP2 PUSH1 0x80 MLOAD SWAP2 DUP2 ADD SUB SLT PUSH2 0x6B5 JUMPI DUP10 PUSH2 0x16B7 SWAP2 MLOAD PUSH2 0x16AB JUMP JUMPDEST POP RETURNDATASIZE PUSH2 0x1825 JUMP JUMPDEST PUSH2 0x1868 SWAP1 PUSH1 0x80 MLOAD RETURNDATASIZE PUSH1 0x80 MLOAD GT PUSH2 0xF99 JUMPI PUSH2 0xF8B DUP2 DUP4 PUSH2 0x29CE JUMP JUMPDEST POP PUSH0 PUSH2 0x1661 JUMP JUMPDEST DUP11 MLOAD RETURNDATASIZE DUP11 DUP3 RETURNDATACOPY RETURNDATASIZE SWAP1 REVERT JUMPDEST PUSH1 0x64 DUP9 PUSH1 0x20 DUP12 MLOAD SWAP2 PUSH32 0x8C379A000000000000000000000000000000000000000000000000000000000 DUP4 MSTORE DUP3 ADD MSTORE PUSH1 0x20 PUSH1 0x24 DUP3 ADD MSTORE PUSH32 0x416D6F756E74206D7573742062652067726561746572207468616E207A65726F PUSH1 0x44 DUP3 ADD MSTORE REVERT JUMPDEST PUSH1 0x64 DUP9 PUSH1 0x20 DUP12 MLOAD SWAP2 PUSH32 0x8C379A000000000000000000000000000000000000000000000000000000000 DUP4 MSTORE DUP3 ADD MSTORE PUSH1 0x1A PUSH1 0x24 DUP3 ADD MSTORE PUSH32 0x43616E6E6F742073776170207468652073616D6520746F6B656E000000000000 PUSH1 0x44 DUP3 ADD MSTORE REVERT JUMPDEST DUP6 DUP8 MLOAD PUSH32 0x3EE5AEB500000000000000000000000000000000000000000000000000000000 DUP2 MSTORE REVERT JUMPDEST DUP3 DUP5 CALLVALUE PUSH2 0x78A JUMPI DUP1 PUSH32 0xFFFFFFFFFFFFFFFFFFFFFFFFFFFFFFFFFFFFFFFFFFFFFFFFFFFFFFFFFFFFFFFC CALLDATASIZE ADD SLT PUSH2 0x78A JUMPI PUSH1 0x7 SLOAD PUSH2 0x1997 DUP2 PUSH2 0x2BAE JUMP JUMPDEST SWAP2 JUMPDEST DUP2 DUP2 LT PUSH2 0x19B5 JUMPI DUP4 MLOAD PUSH1 0x20 DUP1 DUP3 MSTORE DUP2 SWAP1 PUSH2 0x8DE SWAP1 DUP3 ADD DUP7 PUSH2 0x2A87 JUMP JUMPDEST DUP1 PUSH20 0xFFFFFFFFFFFFFFFFFFFFFFFFFFFFFFFFFFFFFFFF PUSH2 0x19D6 PUSH1 0x1 SWAP4 PUSH2 0x2AD0 JUMP JUMPDEST POP SLOAD AND PUSH2 0x19E3 DUP3 DUP7 PUSH2 0x2B9A JUMP JUMPDEST MSTORE ADD PUSH2 0x1999 JUMP JUMPDEST POP POP CALLVALUE PUSH2 0x1E3 JUMPI DUP2 PUSH32 0xFFFFFFFFFFFFFFFFFFFFFFFFFFFFFFFFFFFFFFFFFFFFFFFFFFFFFFFFFFFFFFFC CALLDATASIZE ADD SLT PUSH2 0x1E3 JUMPI PUSH1 0x20 SWAP1 MLOAD PUSH2 0x12C DUP2 MSTORE RETURN JUMPDEST SWAP1 POP CALLVALUE PUSH2 0x6B5 JUMPI PUSH1 0x20 SWAP1 PUSH32 0xFFFFFFFFFFFFFFFFFFFFFFFFFFFFFFFFFFFFFFFFFFFFFFFFFFFFFFFFFFFFFFFC SWAP3 DUP3 DUP5 CALLDATASIZE ADD SLT PUSH2 0x6B5 JUMPI PUSH2 0x1A62 PUSH2 0x28B4 JUMP JUMPDEST SWAP2 PUSH2 0x1A73 PUSH2 0x1A6E PUSH2 0x2FEA JUMP JUMPDEST PUSH2 0x2B35 JUMP JUMPDEST PUSH1 0x2 SLOAD PUSH2 0x3E8 SWAP1 DUP2 DUP2 MUL SWAP2 DUP2 DUP4 DIV EQ SWAP1 ISZERO OR ISZERO PUSH2 0x1E0D JUMPI PUSH2 0x2710 SWAP1 PUSH20 0xFFFFFFFFFFFFFFFFFFFFFFFFFFFFFFFFFFFFFFFF DUP1 SWAP6 AND PUSH0 MSTORE PUSH0 DUP7 MSTORE DIV DUP3 PUSH0 KECCAK256 SLOAD LT PUSH2 0x1DB2 JUMPI PUSH1 0x7 SWAP5 PUSH1 0x7 SLOAD PUSH2 0x1AC4 DUP2 PUSH2 0x2BAE JUMP JUMPDEST SWAP2 PUSH2 0x1ACE DUP3 PUSH2 0x2BAE JUMP JUMPDEST SWAP2 PUSH0 JUMPDEST DUP2 DUP2 LT PUSH2 0x1D79 JUMPI POP POP DUP6 PUSH1 0xA SLOAD AND DUP1 EXTCODESIZE ISZERO PUSH2 0x6B5 JUMPI PUSH0 DUP1 SWAP2 DUP7 DUP9 MLOAD DUP1 SWAP5 DUP2 SWAP4 PUSH32 0xFE11011600000000000000000000000000000000000000000000000000000000 DUP4 MSTORE GAS CALL DUP1 ISZERO PUSH2 0x1D6F JUMPI PUSH2 0x1D5A JUMPI JUMPDEST POP SWAP1 DUP9 SWAP2 DUP7 PUSH1 0x6 SLOAD AND PUSH1 0x8 SLOAD SWAP1 DUP9 PUSH1 0xB SLOAD AND DUP2 EXTCODESIZE ISZERO PUSH2 0x1D56 JUMPI DUP9 MLOAD PUSH32 0x325192D00000000000000000000000000000000000000000000000000000000 DUP2 MSTORE PUSH1 0xC0 DUP2 DUP11 ADD MSTORE SWAP5 DUP7 SWAP5 DUP7 SWAP5 DUP6 SWAP4 DUP8 SWAP4 DUP6 SWAP4 PUSH2 0x1B8F SWAP2 PUSH2 0x1B80 PUSH1 0xC4 DUP8 ADD DUP16 PUSH2 0x2A87 JUMP JUMPDEST SWAP2 DUP7 DUP4 SUB ADD PUSH1 0x24 DUP8 ADD MSTORE PUSH2 0x28FA JUMP JUMPDEST SWAP2 ADDRESS PUSH1 0x44 DUP6 ADD MSTORE ADDRESS PUSH1 0x64 DUP6 ADD MSTORE PUSH1 0x84 DUP5 ADD MSTORE PUSH1 0xA4 DUP4 ADD MSTORE SUB SWAP3 GAS CALL DUP1 ISZERO PUSH2 0x1D4C JUMPI PUSH2 0x1D38 JUMPI JUMPDEST POP JUMPDEST DUP7 SLOAD DUP2 LT ISZERO PUSH2 0x1CFA JUMPI DUP5 PUSH2 0x1BCA DUP3 PUSH2 0x2AD0 JUMP JUMPDEST POP SLOAD AND DUP5 MLOAD PUSH32 0x70A0823100000000000000000000000000000000000000000000000000000000 DUP2 MSTORE ADDRESS DUP6 DUP3 ADD MSTORE DUP8 DUP2 PUSH1 0x24 DUP2 DUP6 GAS STATICCALL SWAP1 DUP2 ISZERO PUSH2 0x1CF0 JUMPI SWAP1 DUP9 SWAP2 DUP12 SWAP2 PUSH2 0x1CBF JUMPI JUMPDEST POP DUP3 PUSH2 0x1C7D SWAP4 DUP13 MSTORE PUSH1 0xC DUP4 MSTORE DUP2 DUP9 DUP14 KECCAK256 SSTORE DUP9 PUSH1 0xA SLOAD AND DUP13 DUP10 MLOAD DUP1 SWAP7 DUP2 SWAP6 DUP3 SWAP5 PUSH32 0xA9059CBB00000000000000000000000000000000000000000000000000000000 DUP5 MSTORE DUP13 DUP5 ADD PUSH1 0x20 SWAP1 SWAP4 SWAP3 SWAP2 SWAP4 PUSH20 0xFFFFFFFFFFFFFFFFFFFFFFFFFFFFFFFFFFFFFFFF PUSH1 0x40 DUP3 ADD SWAP6 AND DUP2 MSTORE ADD MSTORE JUMP JUMPDEST SUB SWAP3 GAS CALL DUP1 ISZERO PUSH2 0x1CB5 JUMPI SWAP1 PUSH1 0x1 SWAP3 SWAP2 PUSH2 0x1C98 JUMPI JUMPDEST POP ADD PUSH2 0x1BB7 JUMP JUMPDEST PUSH2 0x1CAE SWAP1 DUP9 RETURNDATASIZE DUP11 GT PUSH2 0xF99 JUMPI PUSH2 0xF8B DUP2 DUP4 PUSH2 0x29CE JUMP JUMPDEST POP PUSH0 PUSH2 0x1C91 JUMP JUMPDEST DUP6 MLOAD RETURNDATASIZE DUP12 DUP3 RETURNDATACOPY RETURNDATASIZE SWAP1 REVERT JUMPDEST DUP3 DUP2 SWAP4 SWAP3 POP RETURNDATASIZE DUP4 GT PUSH2 0x1CE9 JUMPI JUMPDEST PUSH2 0x1CD6 DUP2 DUP4 PUSH2 0x29CE JUMP JUMPDEST DUP2 ADD SUB SLT PUSH2 0x6B5 JUMPI MLOAD DUP8 SWAP1 PUSH2 0x1C7D PUSH2 0x1C10 JUMP JUMPDEST POP RETURNDATASIZE PUSH2 0x1CCC JUMP JUMPDEST DUP7 MLOAD RETURNDATASIZE DUP13 DUP3 RETURNDATACOPY RETURNDATASIZE SWAP1 REVERT JUMPDEST DUP4 MLOAD DUP7 DUP2 MSTORE DUP9 SWAP1 CALLER SWAP1 PUSH32 0x279B343370F587AF7FB675AE7C8578E9C8ABCC373236AD02C501A4771FE7A7B8 SWAP1 DUP1 PUSH2 0x1D32 DUP2 DUP13 ADD DUP9 PUSH2 0x2A87 JUMP JUMPDEST SUB SWAP1 LOG2 DUP1 RETURN JUMPDEST PUSH2 0x1D41 SWAP1 PUSH2 0x298D JUMP JUMPDEST PUSH2 0x118B JUMPI DUP7 PUSH0 PUSH2 0x1BB5 JUMP JUMPDEST DUP6 MLOAD RETURNDATASIZE DUP5 DUP3 RETURNDATACOPY RETURNDATASIZE SWAP1 REVERT JUMPDEST DUP6 DUP1 REVERT JUMPDEST PUSH2 0x1D66 SWAP2 SWAP3 SWAP10 POP PUSH2 0x298D JUMP JUMPDEST PUSH0 SWAP8 SWAP1 PUSH0 PUSH2 0x1B20 JUMP JUMPDEST DUP7 MLOAD RETURNDATASIZE PUSH0 DUP3 RETURNDATACOPY RETURNDATASIZE SWAP1 REVERT JUMPDEST DUP1 DUP9 PUSH2 0x1D86 PUSH1 0x1 SWAP4 PUSH2 0x2AD0 JUMP JUMPDEST POP SLOAD AND PUSH2 0x1D93 DUP3 DUP9 PUSH2 0x2B9A JUMP JUMPDEST MSTORE DUP2 PUSH2 0x1D9E DUP3 PUSH2 0x2AD0 JUMP JUMPDEST POP ADD SLOAD PUSH2 0x1DAB DUP3 DUP8 PUSH2 0x2B9A JUMP JUMPDEST MSTORE ADD PUSH2 0x1AD1 JUMP JUMPDEST DUP4 PUSH1 0x64 SWAP3 MLOAD SWAP2 PUSH32 0x8C379A000000000000000000000000000000000000000000000000000000000 DUP4 MSTORE DUP3 ADD MSTORE PUSH1 0x11 PUSH1 0x24 DUP3 ADD MSTORE PUSH32 0x556E646572203525204C50207368617265000000000000000000000000000000 PUSH1 0x44 DUP3 ADD MSTORE REVERT JUMPDEST PUSH1 0x11 DUP3 PUSH32 0x4E487B7100000000000000000000000000000000000000000000000000000000 PUSH0 MSTORE MSTORE PUSH1 0x24 PUSH0 REVERT JUMPDEST DUP3 CALLVALUE PUSH2 0x6B5 JUMPI PUSH1 0x20 SWAP1 PUSH2 0x1DC PUSH2 0x1E4E CALLDATASIZE PUSH2 0x292D JUMP JUMPDEST SWAP2 PUSH2 0x2CBE JUMP JUMPDEST SWAP1 POP CALLVALUE PUSH2 0x6B5 JUMPI DUP2 PUSH32 0xFFFFFFFFFFFFFFFFFFFFFFFFFFFFFFFFFFFFFFFFFFFFFFFFFFFFFFFFFFFFFFFC CALLDATASIZE ADD SLT PUSH2 0x6B5 JUMPI DUP1 CALLDATALOAD SWAP1 PUSH8 0xFFFFFFFFFFFFFFFF DUP3 GT PUSH2 0x6B5 JUMPI PUSH2 0x1EA2 SWAP2 CALLDATASIZE SWAP2 ADD PUSH2 0x2A27 JUMP JUMPDEST SWAP1 PUSH1 0x24 CALLDATALOAD DUP1 ISZERO ISZERO DUP2 SUB PUSH2 0x6B5 JUMPI PUSH20 0xFFFFFFFFFFFFFFFFFFFFFFFFFFFFFFFFFFFFFFFF SWAP3 PUSH2 0x1ED4 DUP5 PUSH1 0xA SLOAD AND CALLER EQ PUSH2 0x2C59 JUMP JUMPDEST PUSH0 JUMPDEST PUSH1 0x7 SLOAD DUP2 LT ISZERO PUSH2 0x1F3C JUMPI DUP1 DUP6 PUSH2 0x1EED PUSH1 0x1 SWAP4 PUSH2 0x2AD0 JUMP JUMPDEST POP SLOAD AND PUSH2 0x1EFA DUP3 DUP6 PUSH2 0x2B9A JUMP JUMPDEST MLOAD SWAP1 DUP6 ISZERO PUSH2 0x1F20 JUMPI PUSH0 MSTORE PUSH1 0xC PUSH1 0x20 MSTORE PUSH2 0x1F17 DUP7 PUSH0 KECCAK256 SWAP2 DUP3 SLOAD PUSH2 0x2E73 JUMP JUMPDEST SWAP1 SSTORE JUMPDEST ADD PUSH2 0x1ED6 JUMP JUMPDEST PUSH0 MSTORE PUSH1 0xC PUSH1 0x20 MSTORE PUSH2 0x1F35 DUP7 PUSH0 KECCAK256 SWAP2 DUP3 SLOAD PUSH2 0x2E66 JUMP JUMPDEST SWAP1 SSTORE PUSH2 0x1F1A JUMP JUMPDEST STOP JUMPDEST DUP3 CALLVALUE PUSH2 0x6B5 JUMPI PUSH0 PUSH32 0xFFFFFFFFFFFFFFFFFFFFFFFFFFFFFFFFFFFFFFFFFFFFFFFFFFFFFFFFFFFFFFFC CALLDATASIZE ADD SLT PUSH2 0x6B5 JUMPI PUSH2 0x8DE PUSH2 0x1F78 PUSH2 0x306B JUMP JUMPDEST DUP4 SWAP3 SWAP2 SWAP3 MLOAD SWAP4 DUP5 SWAP4 DUP5 MSTORE DUP1 PUSH1 0x20 DUP6 ADD MSTORE DUP4 ADD SWAP1 PUSH2 0x28FA JUMP JUMPDEST DUP3 CALLVALUE PUSH2 0x6B5 JUMPI PUSH0 PUSH32 0xFFFFFFFFFFFFFFFFFFFFFFFFFFFFFFFFFFFFFFFFFFFFFFFFFFFFFFFFFFFFFFFC CALLDATASIZE ADD SLT PUSH2 0x6B5 JUMPI PUSH1 0x20 SWAP1 MLOAD PUSH1 0x12 DUP2 MSTORE RETURN JUMPDEST SWAP1 POP CALLVALUE PUSH2 0x6B5 JUMPI PUSH2 0x1FD9 CALLDATASIZE PUSH2 0x292D JUMP JUMPDEST SWAP3 PUSH20 0xFFFFFFFFFFFFFFFFFFFFFFFFFFFFFFFFFFFFFFFF DUP4 SWAP3 SWAP4 AND DUP1 PUSH0 MSTORE PUSH1 0x1 PUSH1 0x20 MSTORE DUP6 PUSH0 KECCAK256 CALLER PUSH0 MSTORE PUSH1 0x20 MSTORE DUP6 PUSH0 KECCAK256 SLOAD SWAP2 PUSH32 0xFFFFFFFFFFFFFFFFFFFFFFFFFFFFFFFFFFFFFFFFFFFFFFFFFFFFFFFFFFFFFFFF DUP4 SUB PUSH2 0x203F JUMPI JUMPDEST PUSH1 0x20 DUP8 PUSH2 0xA76 DUP9 DUP9 DUP9 PUSH2 0x31B2 JUMP JUMPDEST DUP6 DUP4 LT PUSH2 0x20D9 JUMPI DUP2 ISZERO PUSH2 0x20AA JUMPI CALLER ISZERO PUSH2 0x207B JUMPI POP PUSH0 SWAP1 DUP2 MSTORE PUSH1 0x1 PUSH1 0x20 SWAP1 DUP2 MSTORE DUP7 DUP3 KECCAK256 CALLER DUP4 MSTORE DUP2 MSTORE SWAP1 DUP7 SWAP1 KECCAK256 SWAP2 DUP6 SWAP1 SUB SWAP1 SWAP2 SSTORE DUP3 SWAP1 PUSH2 0xA76 PUSH2 0x2031 JUMP JUMPDEST PUSH1 0x24 SWAP1 PUSH0 DUP9 MLOAD SWAP2 PUSH32 0x94280D6200000000000000000000000000000000000000000000000000000000 DUP4 MSTORE DUP3 ADD MSTORE REVERT JUMPDEST PUSH1 0x24 SWAP1 PUSH0 DUP9 MLOAD SWAP2 PUSH32 0xE602DF0500000000000000000000000000000000000000000000000000000000 DUP4 MSTORE DUP3 ADD MSTORE REVERT JUMPDEST DUP7 MLOAD PUSH32 0xFB8F41B200000000000000000000000000000000000000000000000000000000 DUP2 MSTORE CALLER SWAP2 DUP2 ADD SWAP2 DUP3 MSTORE PUSH1 0x20 DUP3 ADD SWAP4 SWAP1 SWAP4 MSTORE PUSH1 0x40 DUP2 ADD DUP7 SWAP1 MSTORE DUP3 SWAP2 POP PUSH1 0x60 ADD SUB SWAP1 REVERT JUMPDEST DUP3 CALLVALUE PUSH2 0x6B5 JUMPI PUSH0 PUSH32 0xFFFFFFFFFFFFFFFFFFFFFFFFFFFFFFFFFFFFFFFFFFFFFFFFFFFFFFFFFFFFFFFC CALLDATASIZE ADD SLT PUSH2 0x6B5 JUMPI PUSH1 0x7 SLOAD PUSH2 0x2159 DUP2 PUSH2 0x2BAE JUMP JUMPDEST SWAP1 PUSH0 JUMPDEST DUP2 DUP2 LT PUSH2 0x2178 JUMPI DUP4 MLOAD PUSH1 0x20 DUP1 DUP3 MSTORE DUP2 SWAP1 PUSH2 0x8DE SWAP1 DUP3 ADD DUP7 PUSH2 0x28FA JUMP JUMPDEST DUP1 PUSH1 0x1 PUSH2 0x2185 DUP2 SWAP4 PUSH2 0x2AD0 JUMP JUMPDEST POP ADD SLOAD PUSH2 0x2192 DUP3 DUP7 PUSH2 0x2B9A JUMP JUMPDEST MSTORE ADD PUSH2 0x215C JUMP JUMPDEST DUP3 CALLVALUE PUSH2 0x6B5 JUMPI PUSH0 PUSH32 0xFFFFFFFFFFFFFFFFFFFFFFFFFFFFFFFFFFFFFFFFFFFFFFFFFFFFFFFFFFFFFFFC CALLDATASIZE ADD SLT PUSH2 0x6B5 JUMPI PUSH1 0x20 SWAP1 PUSH2 0x21D3 PUSH2 0x306B JUMP JUMPDEST POP SWAP1 MLOAD SWAP1 DUP2 MSTORE RETURN JUMPDEST DUP3 CALLVALUE PUSH2 0x6B5 JUMPI PUSH0 PUSH32 0xFFFFFFFFFFFFFFFFFFFFFFFFFFFFFFFFFFFFFFFFFFFFFFFFFFFFFFFFFFFFFFFC CALLDATASIZE ADD SLT PUSH2 0x6B5 JUMPI PUSH1 0x20 SWAP1 PUSH1 0x2 SLOAD SWAP1 MLOAD SWAP1 DUP2 MSTORE RETURN JUMPDEST DUP3 CALLVALUE PUSH2 0x6B5 JUMPI DUP1 PUSH32 0xFFFFFFFFFFFFFFFFFFFFFFFFFFFFFFFFFFFFFFFFFFFFFFFFFFFFFFFFFFFFFFFC CALLDATASIZE ADD SLT PUSH2 0x6B5 JUMPI PUSH2 0x224E PUSH2 0x28B4 JUMP JUMPDEST PUSH1 0x24 CALLDATALOAD SWAP1 CALLER ISZERO PUSH2 0x22ED JUMPI PUSH20 0xFFFFFFFFFFFFFFFFFFFFFFFFFFFFFFFFFFFFFFFF AND SWAP1 DUP2 ISZERO PUSH2 0x22BE JUMPI PUSH1 0x20 SWAP4 POP CALLER PUSH0 MSTORE PUSH1 0x1 DUP5 MSTORE DUP3 PUSH0 KECCAK256 DUP3 PUSH0 MSTORE DUP5 MSTORE DUP1 DUP4 PUSH0 KECCAK256 SSTORE DUP3 MLOAD SWAP1 DUP2 MSTORE PUSH32 0x8C5BE1E5EBEC7D5BD14F71427D1E84F3DD0314C0F7B2291E5B200AC8C7C3B925 DUP5 CALLER SWAP3 LOG3 MLOAD PUSH1 0x1 DUP2 MSTORE RETURN JUMPDEST PUSH1 0x24 DUP5 PUSH0 DUP6 MLOAD SWAP2 PUSH32 0x94280D6200000000000000000000000000000000000000000000000000000000 DUP4 MSTORE DUP3 ADD MSTORE REVERT JUMPDEST PUSH1 0x24 DUP5 PUSH0 DUP6 MLOAD SWAP2 PUSH32 0xE602DF0500000000000000000000000000000000000000000000000000000000 DUP4 MSTORE DUP3 ADD MSTORE REVERT JUMPDEST DUP3 CALLVALUE PUSH2 0x6B5 JUMPI PUSH0 PUSH32 0xFFFFFFFFFFFFFFFFFFFFFFFFFFFFFFFFFFFFFFFFFFFFFFFFFFFFFFFFFFFFFFFC CALLDATASIZE ADD SLT PUSH2 0x6B5 JUMPI PUSH2 0x8DE SWAP1 PUSH2 0x2357 PUSH2 0x2BFD JUMP JUMPDEST SWAP1 MLOAD SWAP2 DUP3 SWAP2 PUSH1 0x20 DUP4 MSTORE PUSH1 0x20 DUP4 ADD SWAP1 PUSH2 0x28FA JUMP JUMPDEST DUP3 CALLVALUE PUSH2 0x6B5 JUMPI PUSH1 0x20 SWAP1 DUP2 PUSH32 0xFFFFFFFFFFFFFFFFFFFFFFFFFFFFFFFFFFFFFFFFFFFFFFFFFFFFFFFFFFFFFFFC CALLDATASIZE ADD SLT PUSH2 0x6B5 JUMPI PUSH2 0x23A4 PUSH2 0x28B4 JUMP JUMPDEST SWAP2 PUSH2 0x23B0 PUSH2 0x1A6E PUSH2 0x2FEA JUMP JUMPDEST PUSH2 0x23B8 PUSH2 0x306B JUMP JUMPDEST SWAP5 SWAP1 PUSH1 0x7 SLOAD SWAP1 PUSH2 0x23C7 DUP3 PUSH2 0x2BAE JUMP JUMPDEST SWAP7 PUSH0 JUMPDEST DUP4 DUP2 LT PUSH2 0x2680 JUMPI POP POP POP PUSH0 SWAP1 PUSH0 SWAP1 JUMPDEST DUP1 DUP3 LT PUSH2 0x265F JUMPI POP POP PUSH0 JUMPDEST DUP7 MLOAD DUP2 LT ISZERO PUSH2 0x2618 JUMPI PUSH2 0x23F7 DUP2 DUP9 PUSH2 0x2B9A JUMP JUMPDEST MLOAD PUSH2 0x2405 JUMPI JUMPDEST PUSH1 0x1 ADD PUSH2 0x23E4 JUMP JUMPDEST PUSH2 0x248A PUSH2 0x2412 DUP3 DUP10 PUSH2 0x2B9A JUMP JUMPDEST MLOAD DUP6 PUSH2 0x241D DUP5 PUSH2 0x2AD0 JUMP JUMPDEST POP SLOAD PUSH1 0x6 SLOAD PUSH1 0xB SLOAD DUP11 MLOAD PUSH32 0x248391FF00000000000000000000000000000000000000000000000000000000 DUP2 MSTORE PUSH20 0xFFFFFFFFFFFFFFFFFFFFFFFFFFFFFFFFFFFFFFFF SWAP2 DUP3 AND DUP11 DUP3 ADD SWAP1 DUP2 MSTORE SWAP4 DUP3 AND PUSH1 0x20 DUP6 ADD MSTORE PUSH1 0x40 DUP5 ADD SWAP6 SWAP1 SWAP6 MSTORE SWAP4 SWAP5 DUP6 SWAP3 SWAP2 DUP6 AND SWAP2 DUP4 SWAP2 DUP3 SWAP2 PUSH1 0x60 ADD SWAP1 JUMP JUMPDEST SUB SWAP2 GAS STATICCALL SWAP2 DUP3 ISZERO PUSH2 0x260E JUMPI PUSH0 SWAP3 PUSH2 0x25DF JUMPI JUMPDEST POP DUP2 ISZERO PUSH2 0x2583 JUMPI PUSH2 0x251C DUP7 DUP4 DUP4 PUSH2 0x24B2 DUP8 PUSH2 0x2AD0 JUMP JUMPDEST POP SLOAD AND DUP5 PUSH1 0xA SLOAD AND PUSH0 DUP11 DUP14 MLOAD SWAP7 DUP8 SWAP6 DUP7 SWAP5 DUP6 SWAP4 PUSH32 0x23B872DD00000000000000000000000000000000000000000000000000000000 DUP6 MSTORE CALLER SWAP1 DUP6 ADD PUSH1 0x40 SWAP2 SWAP5 SWAP4 SWAP3 SWAP5 PUSH1 0x60 DUP3 ADD SWAP6 PUSH20 0xFFFFFFFFFFFFFFFFFFFFFFFFFFFFFFFFFFFFFFFF DUP1 SWAP3 AND DUP4 MSTORE AND PUSH1 0x20 DUP3 ADD MSTORE ADD MSTORE JUMP JUMPDEST SUB SWAP3 GAS CALL DUP1 ISZERO PUSH2 0x2579 JUMPI SWAP1 PUSH1 0x1 SWAP5 SWAP4 SWAP3 SWAP2 PUSH2 0x255C JUMPI JUMPDEST POP PUSH2 0x253C DUP4 PUSH2 0x2AD0 JUMP JUMPDEST POP SLOAD AND PUSH0 MSTORE PUSH1 0xC DUP7 MSTORE PUSH2 0x2553 DUP8 PUSH0 KECCAK256 SWAP2 DUP3 SLOAD PUSH2 0x2E73 JUMP JUMPDEST SWAP1 SSTORE SWAP1 POP PUSH2 0x23FD JUMP JUMPDEST PUSH2 0x2572 SWAP1 DUP9 RETURNDATASIZE DUP11 GT PUSH2 0xF99 JUMPI PUSH2 0xF8B DUP2 DUP4 PUSH2 0x29CE JUMP JUMPDEST POP DUP11 PUSH2 0x2532 JUMP JUMPDEST DUP9 MLOAD RETURNDATASIZE PUSH0 DUP3 RETURNDATACOPY RETURNDATASIZE SWAP1 REVERT JUMPDEST PUSH1 0x64 DUP6 DUP8 DUP10 MLOAD SWAP2 PUSH32 0x8C379A000000000000000000000000000000000000000000000000000000000 DUP4 MSTORE DUP3 ADD MSTORE PUSH1 0x1B PUSH1 0x24 DUP3 ADD MSTORE PUSH32 0x496E76616C696420746F6B656E20616D6F756E7420746F206164640000000000 PUSH1 0x44 DUP3 ADD MSTORE REVERT JUMPDEST SWAP1 SWAP2 POP DUP6 DUP2 DUP2 RETURNDATASIZE DUP4 GT PUSH2 0x2607 JUMPI JUMPDEST PUSH2 0x25F7 DUP2 DUP4 PUSH2 0x29CE JUMP JUMPDEST DUP2 ADD SUB SLT PUSH2 0x6B5 JUMPI MLOAD SWAP1 DUP10 PUSH2 0x249C JUMP JUMPDEST POP RETURNDATASIZE PUSH2 0x25ED JUMP JUMPDEST DUP8 MLOAD RETURNDATASIZE PUSH0 DUP3 RETURNDATACOPY RETURNDATASIZE SWAP1 REVERT JUMPDEST DUP4 PUSH32 0xA95AD530009C6F929555E70A66AADBEAE7231E45756C5B028CA77FBAA376E73E PUSH2 0x265A DUP10 DUP9 PUSH2 0x2649 DUP8 DUP13 PUSH2 0x3118 JUMP JUMPDEST MLOAD SWAP2 DUP3 SWAP2 DUP6 DUP4 MSTORE CALLER SWAP6 DUP4 ADD SWAP1 PUSH2 0x28FA JUMP JUMPDEST SUB SWAP1 LOG2 STOP JUMPDEST SWAP1 SWAP2 PUSH2 0x2678 PUSH1 0x1 SWAP2 PUSH2 0x2671 DUP6 DUP12 PUSH2 0x2B9A JUMP JUMPDEST MLOAD SWAP1 PUSH2 0x2E73 JUMP JUMPDEST SWAP3 ADD SWAP1 PUSH2 0x23D9 JUMP JUMPDEST DUP1 PUSH2 0x2710 PUSH2 0x269C PUSH1 0x1 PUSH2 0x2693 DUP2 SWAP6 PUSH2 0x2AD0 JUMP JUMPDEST POP ADD SLOAD DUP7 PUSH2 0x2D72 JUMP JUMPDEST DIV DUP1 PUSH2 0x26A8 DUP4 DUP7 PUSH2 0x2B9A JUMP JUMPDEST MLOAD LT PUSH2 0x26B6 JUMPI JUMPDEST POP ADD PUSH2 0x23CA JUMP JUMPDEST PUSH2 0x26C4 SWAP1 PUSH2 0x5A9 DUP4 DUP7 PUSH2 0x2B9A JUMP JUMPDEST PUSH2 0x26CE DUP3 DUP13 PUSH2 0x2B9A JUMP JUMPDEST MSTORE DUP11 PUSH2 0x26AF JUMP JUMPDEST DUP3 CALLVALUE PUSH2 0x6B5 JUMPI PUSH0 PUSH32 0xFFFFFFFFFFFFFFFFFFFFFFFFFFFFFFFFFFFFFFFFFFFFFFFFFFFFFFFFFFFFFFFC CALLDATASIZE ADD SLT PUSH2 0x6B5 JUMPI DUP1 MLOAD SWAP1 PUSH0 SWAP3 PUSH1 0x3 SLOAD PUSH1 0x1 DUP2 PUSH1 0x1 SHR SWAP2 PUSH1 0x1 DUP2 AND DUP1 ISZERO PUSH2 0x2814 JUMPI JUMPDEST PUSH1 0x20 SWAP5 DUP6 DUP6 LT DUP3 EQ PUSH2 0x27E8 JUMPI POP DUP4 DUP8 MSTORE SWAP1 DUP2 ISZERO PUSH2 0x27AA JUMPI POP PUSH1 0x1 EQ PUSH2 0x2750 JUMPI JUMPDEST POP POP POP PUSH2 0xAF9 DUP3 PUSH2 0x8DE SWAP5 SUB DUP4 PUSH2 0x29CE JUMP JUMPDEST PUSH1 0x3 PUSH0 SWAP1 DUP2 MSTORE SWAP3 SWAP6 POP PUSH32 0xC2575A0E9E593C00F959F8C92F12DB2869C3395A3B0502D05E2516446F71F85B JUMPDEST DUP3 DUP5 LT PUSH2 0x2797 JUMPI POP POP POP DUP3 PUSH2 0x8DE SWAP5 PUSH2 0xAF9 SWAP3 DUP3 ADD ADD SWAP5 PUSH2 0x273E JUMP JUMPDEST DUP1 SLOAD DUP7 DUP6 ADD DUP9 ADD MSTORE SWAP3 DUP7 ADD SWAP3 DUP2 ADD PUSH2 0x277B JUMP JUMPDEST PUSH32 0xFFFFFFFFFFFFFFFFFFFFFFFFFFFFFFFFFFFFFFFFFFFFFFFFFFFFFFFFFFFFFF00 AND DUP7 DUP6 ADD MSTORE POP POP ISZERO ISZERO PUSH1 0x5 SHL DUP4 ADD ADD SWAP3 POP PUSH2 0xAF9 DUP3 PUSH2 0x8DE PUSH2 0x273E JUMP JUMPDEST PUSH1 0x22 SWAP1 PUSH32 0x4E487B7100000000000000000000000000000000000000000000000000000000 PUSH0 MSTORE MSTORE PUSH1 0x24 PUSH0 REVERT JUMPDEST SWAP3 PUSH1 0x7F AND SWAP3 PUSH2 0x271E JUMP JUMPDEST CALLVALUE PUSH2 0x6B5 JUMPI PUSH0 PUSH32 0xFFFFFFFFFFFFFFFFFFFFFFFFFFFFFFFFFFFFFFFFFFFFFFFFFFFFFFFFFFFFFFFC CALLDATASIZE ADD SLT PUSH2 0x6B5 JUMPI PUSH1 0x20 SWAP1 PUSH20 0xFFFFFFFFFFFFFFFFFFFFFFFFFFFFFFFFFFFFFFFF PUSH1 0x6 SLOAD AND DUP2 MSTORE RETURN JUMPDEST PUSH32 0xFFFFFFFFFFFFFFFFFFFFFFFFFFFFFFFFFFFFFFFFFFFFFFFFFFFFFFFFFFFFFFE0 PUSH1 0x1F PUSH1 0x20 PUSH1 0x40 SWAP5 DUP2 DUP6 MSTORE DUP1 MLOAD SWAP2 DUP3 SWAP2 DUP3 DUP3 DUP9 ADD MSTORE ADD DUP7 DUP7 ADD MCOPY PUSH0 DUP6 DUP3 DUP7 ADD ADD MSTORE ADD AND ADD ADD SWAP1 JUMP JUMPDEST PUSH1 0x4 CALLDATALOAD SWAP1 PUSH20 0xFFFFFFFFFFFFFFFFFFFFFFFFFFFFFFFFFFFFFFFF DUP3 AND DUP3 SUB PUSH2 0x6B5 JUMPI JUMP JUMPDEST PUSH1 0x24 CALLDATALOAD SWAP1 PUSH20 0xFFFFFFFFFFFFFFFFFFFFFFFFFFFFFFFFFFFFFFFF DUP3 AND DUP3 SUB PUSH2 0x6B5 JUMPI JUMP JUMPDEST SWAP1 DUP2 MLOAD DUP1 DUP3 MSTORE PUSH1 0x20 DUP1 DUP1 SWAP4 ADD SWAP4 ADD SWAP2 PUSH0 JUMPDEST DUP3 DUP2 LT PUSH2 0x2919 JUMPI POP POP POP POP SWAP1 JUMP JUMPDEST DUP4 MLOAD DUP6 MSTORE SWAP4 DUP2 ADD SWAP4 SWAP3 DUP2 ADD SWAP3 PUSH1 0x1 ADD PUSH2 0x290B JUMP JUMPDEST PUSH32 0xFFFFFFFFFFFFFFFFFFFFFFFFFFFFFFFFFFFFFFFFFFFFFFFFFFFFFFFFFFFFFFFC PUSH1 0x60 SWAP2 ADD SLT PUSH2 0x6B5 JUMPI PUSH20 0xFFFFFFFFFFFFFFFFFFFFFFFFFFFFFFFFFFFFFFFF SWAP1 PUSH1 0x4 CALLDATALOAD DUP3 DUP2 AND DUP2 SUB PUSH2 0x6B5 JUMPI SWAP2 PUSH1 0x24 CALLDATALOAD SWAP1 DUP2 AND DUP2 SUB PUSH2 0x6B5 JUMPI SWAP1 PUSH1 0x44 CALLDATALOAD SWAP1 JUMP JUMPDEST PUSH8 0xFFFFFFFFFFFFFFFF DUP2 GT PUSH2 0x29A1 JUMPI PUSH1 0x40 MSTORE JUMP JUMPDEST PUSH32 0x4E487B7100000000000000000000000000000000000000000000000000000000 PUSH0 MSTORE PUSH1 0x41 PUSH1 0x4 MSTORE PUSH1 0x24 PUSH0 REVERT JUMPDEST SWAP1 PUSH1 0x1F PUSH32 0xFFFFFFFFFFFFFFFFFFFFFFFFFFFFFFFFFFFFFFFFFFFFFFFFFFFFFFFFFFFFFFE0 SWAP2 ADD AND DUP2 ADD SWAP1 DUP2 LT PUSH8 0xFFFFFFFFFFFFFFFF DUP3 GT OR PUSH2 0x29A1 JUMPI PUSH1 0x40 MSTORE JUMP JUMPDEST PUSH8 0xFFFFFFFFFFFFFFFF DUP2 GT PUSH2 0x29A1 JUMPI PUSH1 0x5 SHL PUSH1 0x20 ADD SWAP1 JUMP JUMPDEST SWAP1 DUP1 PUSH1 0x1F DUP4 ADD SLT ISZERO PUSH2 0x6B5 JUMPI PUSH1 0x20 SWAP1 DUP3 CALLDATALOAD PUSH2 0x2A41 DUP2 PUSH2 0x2A0F JUMP JUMPDEST SWAP4 PUSH2 0x2A4F PUSH1 0x40 MLOAD SWAP6 DUP7 PUSH2 0x29CE JUMP JUMPDEST DUP2 DUP6 MSTORE PUSH1 0x20 DUP1 DUP7 ADD SWAP3 PUSH1 0x5 SHL DUP3 ADD ADD SWAP3 DUP4 GT PUSH2 0x6B5 JUMPI PUSH1 0x20 ADD SWAP1 JUMPDEST DUP3 DUP3 LT PUSH2 0x2A78 JUMPI POP POP POP POP SWAP1 JUMP JUMPDEST DUP2 CALLDATALOAD DUP2 MSTORE SWAP1 DUP4 ADD SWAP1 DUP4 ADD PUSH2 0x2A6A JUMP JUMPDEST SWAP1 DUP2 MLOAD DUP1 DUP3 MSTORE PUSH1 0x20 DUP1 DUP1 SWAP4 ADD SWAP4 ADD SWAP2 PUSH0 JUMPDEST DUP3 DUP2 LT PUSH2 0x2AA6 JUMPI POP POP POP POP SWAP1 JUMP JUMPDEST DUP4 MLOAD PUSH20 0xFFFFFFFFFFFFFFFFFFFFFFFFFFFFFFFFFFFFFFFF AND DUP6 MSTORE SWAP4 DUP2 ADD SWAP4 SWAP3 DUP2 ADD SWAP3 PUSH1 0x1 ADD PUSH2 0x2A98 JUMP JUMPDEST PUSH1 0x7 SLOAD DUP2 LT ISZERO PUSH2 0x2B08 JUMPI PUSH1 0x7 PUSH0 MSTORE PUSH1 0x1 SHL PUSH32 0xA66CC928B5EDB82AF9BD49922954155AB7B0942694BEA4CE44661D9A8736C688 ADD SWAP1 PUSH0 SWAP1 JUMP JUMPDEST PUSH32 0x4E487B7100000000000000000000000000000000000000000000000000000000 PUSH0 MSTORE PUSH1 0x32 PUSH1 0x4 MSTORE PUSH1 0x24 PUSH0 REVERT JUMPDEST ISZERO PUSH2 0x2B3C JUMPI JUMP JUMPDEST PUSH1 0x64 PUSH1 0x40 MLOAD PUSH32 0x8C379A000000000000000000000000000000000000000000000000000000000 DUP2 MSTORE PUSH1 0x20 PUSH1 0x4 DUP3 ADD MSTORE PUSH1 0x14 PUSH1 0x24 DUP3 ADD MSTORE PUSH32 0x526562616C616E6365206E6F74206E6565646564000000000000000000000000 PUSH1 0x44 DUP3 ADD MSTORE REVERT JUMPDEST DUP1 MLOAD DUP3 LT ISZERO PUSH2 0x2B08 JUMPI PUSH1 0x20 SWAP2 PUSH1 0x5 SHL ADD ADD SWAP1 JUMP JUMPDEST SWAP1 PUSH2 0x2BB8 DUP3 PUSH2 0x2A0F JUMP JUMPDEST PUSH2 0x2BC5 PUSH1 0x40 MLOAD SWAP2 DUP3 PUSH2 0x29CE JUMP JUMPDEST DUP3 DUP2 MSTORE PUSH32 0xFFFFFFFFFFFFFFFFFFFFFFFFFFFFFFFFFFFFFFFFFFFFFFFFFFFFFFFFFFFFFFE0 PUSH2 0x2BF3 DUP3 SWAP5 PUSH2 0x2A0F JUMP JUMPDEST ADD SWAP1 PUSH1 0x20 CALLDATASIZE SWAP2 ADD CALLDATACOPY JUMP JUMPDEST PUSH1 0x7 SLOAD PUSH2 0x2C09 DUP2 PUSH2 0x2BAE JUMP JUMPDEST SWAP1 PUSH0 JUMPDEST DUP2 DUP2 LT PUSH2 0x2C18 JUMPI POP POP SWAP1 JUMP JUMPDEST DUP1 PUSH20 0xFFFFFFFFFFFFFFFFFFFFFFFFFFFFFFFFFFFFFFFF PUSH2 0x2C39 PUSH1 0x1 SWAP4 PUSH2 0x2AD0 JUMP JUMPDEST POP SLOAD AND PUSH0 MSTORE PUSH1 0xC PUSH1 0x20 MSTORE PUSH1 0x40 PUSH0 KECCAK256 SLOAD PUSH2 0x2C52 DUP3 DUP7 PUSH2 0x2B9A JUMP JUMPDEST MSTORE ADD PUSH2 0x2C0C JUMP JUMPDEST ISZERO PUSH2 0x2C60 JUMPI JUMP JUMPDEST PUSH1 0x64 PUSH1 0x40 MLOAD PUSH32 0x8C379A000000000000000000000000000000000000000000000000000000000 DUP2 MSTORE PUSH1 0x20 PUSH1 0x4 DUP3 ADD MSTORE PUSH1 0xE PUSH1 0x24 DUP3 ADD MSTORE PUSH32 0x4F6E6C7920506572697068657279000000000000000000000000000000000000 PUSH1 0x44 DUP3 ADD MSTORE REVERT JUMPDEST PUSH1 0x6 SLOAD PUSH1 0x40 MLOAD PUSH32 0x248391FF00000000000000000000000000000000000000000000000000000000 DUP2 MSTORE PUSH20 0xFFFFFFFFFFFFFFFFFFFFFFFFFFFFFFFFFFFFFFFF SWAP3 DUP4 AND PUSH1 0x4 DUP3 ADD MSTORE SWAP3 DUP3 AND PUSH1 0x24 DUP5 ADD MSTORE PUSH1 0x44 DUP4 ADD SWAP4 SWAP1 SWAP4 MSTORE SWAP1 SWAP2 PUSH1 0x20 SWAP2 DUP4 SWAP2 AND DUP2 DUP1 PUSH1 0x64 DUP2 ADD JUMPDEST SUB SWAP2 GAS STATICCALL SWAP1 DUP2 ISZERO PUSH2 0x2D67 JUMPI PUSH0 SWAP2 PUSH2 0x2D38 JUMPI POP SWAP1 JUMP JUMPDEST SWAP1 POP PUSH1 0x20 DUP2 RETURNDATASIZE PUSH1 0x20 GT PUSH2 0x2D5F JUMPI JUMPDEST DUP2 PUSH2 0x2D53 PUSH1 0x20 SWAP4 DUP4 PUSH2 0x29CE JUMP JUMPDEST DUP2 ADD SUB SLT PUSH2 0x6B5 JUMPI MLOAD SWAP1 JUMP JUMPDEST RETURNDATASIZE SWAP2 POP PUSH2 0x2D46 JUMP JUMPDEST PUSH1 0x40 MLOAD RETURNDATASIZE PUSH0 DUP3 RETURNDATACOPY RETURNDATASIZE SWAP1 REVERT JUMPDEST DUP2 DUP2 MUL SWAP3 SWAP2 DUP2 ISZERO SWAP2 DUP5 DIV EQ OR ISZERO PUSH2 0x2D85 JUMPI JUMP JUMPDEST PUSH32 0x4E487B7100000000000000000000000000000000000000000000000000000000 PUSH0 MSTORE PUSH1 0x11 PUSH1 0x4 MSTORE PUSH1 0x24 PUSH0 REVERT JUMPDEST DUP2 ISZERO PUSH2 0x2DBC JUMPI DIV SWAP1 JUMP JUMPDEST PUSH32 0x4E487B7100000000000000000000000000000000000000000000000000000000 PUSH0 MSTORE PUSH1 0x12 PUSH1 0x4 MSTORE PUSH1 0x24 PUSH0 REVERT JUMPDEST SWAP1 DUP2 PUSH1 0x20 SWAP2 SUB SLT PUSH2 0x6B5 JUMPI MLOAD DUP1 ISZERO ISZERO DUP2 SUB PUSH2 0x6B5 JUMPI SWAP1 JUMP JUMPDEST ISZERO PUSH2 0x2E08 JUMPI JUMP JUMPDEST PUSH1 0x64 PUSH1 0x40 MLOAD PUSH32 0x8C379A000000000000000000000000000000000000000000000000000000000 DUP2 MSTORE PUSH1 0x20 PUSH1 0x4 DUP3 ADD MSTORE PUSH1 0x16 PUSH1 0x24 DUP3 ADD MSTORE PUSH32 0x496E73756666696369656E74204C697175696469747900000000000000000000 PUSH1 0x44 DUP3 ADD MSTORE REVERT JUMPDEST SWAP2 SWAP1 DUP3 SUB SWAP2 DUP3 GT PUSH2 0x2D85 JUMPI JUMP JUMPDEST SWAP2 SWAP1 DUP3 ADD DUP1 SWAP3 GT PUSH2 0x2D85 JUMPI JUMP JUMPDEST PUSH2 0x2E88 PUSH2 0x306B JUMP JUMPDEST SWAP2 SWAP1 PUSH1 0x7 SLOAD SWAP1 PUSH2 0x2E97 DUP3 PUSH2 0x2A0F JUMP JUMPDEST SWAP2 PUSH2 0x2EA5 PUSH1 0x40 MLOAD SWAP4 DUP5 PUSH2 0x29CE JUMP JUMPDEST DUP1 DUP4 MSTORE PUSH32 0xFFFFFFFFFFFFFFFFFFFFFFFFFFFFFFFFFFFFFFFFFFFFFFFFFFFFFFFFFFFFFFE0 PUSH2 0x2ED2 DUP3 PUSH2 0x2A0F JUMP JUMPDEST ADD CALLDATASIZE PUSH1 0x20 DUP6 ADD CALLDATACOPY PUSH2 0x2EE2 DUP2 PUSH2 0x2BAE JUMP JUMPDEST SWAP5 PUSH0 JUMPDEST DUP3 DUP2 LT PUSH2 0x2EF4 JUMPI POP POP POP POP SWAP2 SWAP1 JUMP JUMPDEST PUSH2 0x2EFE DUP2 DUP4 PUSH2 0x2B9A JUMP JUMPDEST MLOAD SWAP1 PUSH2 0x2710 SWAP2 DUP3 DUP2 MUL SWAP3 DUP2 DUP5 DIV EQ SWAP1 ISZERO OR ISZERO PUSH2 0x2D85 JUMPI PUSH2 0x2F20 DUP6 PUSH1 0x1 SWAP4 PUSH2 0x2DB2 JUMP JUMPDEST PUSH2 0x2F29 DUP3 PUSH2 0x2AD0 JUMP JUMPDEST POP DUP4 ADD SLOAD DUP4 SWAP2 DUP2 DUP2 GT ISZERO PUSH2 0x2F5E JUMPI SWAP1 PUSH2 0x2F41 SWAP2 PUSH2 0x2E66 JUMP JUMPDEST PUSH2 0x2F4B DUP4 DUP12 PUSH2 0x2B9A JUMP JUMPDEST MSTORE PUSH2 0x2F56 DUP3 DUP9 PUSH2 0x2B9A JUMP JUMPDEST MSTORE JUMPDEST ADD PUSH2 0x2EE5 JUMP JUMPDEST SWAP1 PUSH2 0x2F69 SWAP3 POP PUSH2 0x2E66 JUMP JUMPDEST PUSH2 0x2F73 DUP3 DUP11 PUSH2 0x2B9A JUMP JUMPDEST MSTORE PUSH0 PUSH2 0x2F7F DUP3 DUP9 PUSH2 0x2B9A JUMP JUMPDEST MSTORE PUSH2 0x2F58 JUMP JUMPDEST ISZERO PUSH2 0x2F8C JUMPI JUMP JUMPDEST PUSH1 0x64 PUSH1 0x40 MLOAD PUSH32 0x8C379A000000000000000000000000000000000000000000000000000000000 DUP2 MSTORE PUSH1 0x20 PUSH1 0x4 DUP3 ADD MSTORE PUSH1 0x16 PUSH1 0x24 DUP3 ADD MSTORE PUSH32 0x496E73756666696369656E74206C697175696469747900000000000000000000 PUSH1 0x44 DUP3 ADD MSTORE REVERT JUMPDEST PUSH2 0x2FF2 PUSH2 0x2E80 JUMP JUMPDEST PUSH0 JUMPDEST DUP2 MLOAD DUP2 LT ISZERO PUSH2 0x3039 JUMPI PUSH2 0x3007 DUP2 DUP5 PUSH2 0x2B9A JUMP JUMPDEST MLOAD ISZERO ISZERO DUP1 PUSH2 0x3024 JUMPI JUMPDEST PUSH2 0x301C JUMPI PUSH1 0x1 ADD PUSH2 0x2FF4 JUMP JUMPDEST POP POP POP PUSH1 0x1 SWAP1 JUMP JUMPDEST POP PUSH2 0x302F DUP2 DUP4 PUSH2 0x2B9A JUMP JUMPDEST MLOAD PUSH1 0x8 SLOAD LT PUSH2 0x3010 JUMP JUMPDEST POP POP POP PUSH0 SWAP1 JUMP JUMPDEST PUSH2 0x3048 PUSH2 0x306B JUMP JUMPDEST POP PUSH1 0x2 SLOAD DUP1 ISZERO PUSH2 0x3065 JUMPI PUSH2 0x432 PUSH2 0x3062 SWAP3 PUSH1 0x9 SLOAD SWAP1 PUSH2 0x2D72 JUMP JUMPDEST SWAP1 JUMP JUMPDEST POP POP PUSH0 SWAP1 JUMP JUMPDEST PUSH1 0x7 SLOAD SWAP1 PUSH0 PUSH2 0x3079 DUP4 PUSH2 0x2BAE JUMP JUMPDEST SWAP3 PUSH0 SWAP1 PUSH20 0xFFFFFFFFFFFFFFFFFFFFFFFFFFFFFFFFFFFFFFFF DUP1 PUSH1 0xB SLOAD AND SWAP1 JUMPDEST DUP3 DUP5 LT PUSH2 0x30A7 JUMPI POP POP POP POP SWAP2 SWAP1 JUMP JUMPDEST SWAP1 SWAP2 SWAP3 SWAP4 PUSH2 0x30E7 PUSH1 0x1 SWAP2 DUP4 PUSH2 0x30BB DUP9 PUSH2 0x2AD0 JUMP JUMPDEST POP SLOAD AND DUP6 DUP2 SUB PUSH2 0x30F1 JUMPI PUSH0 MSTORE PUSH1 0xC PUSH1 0x20 MSTORE PUSH1 0x40 PUSH0 KECCAK256 SLOAD PUSH2 0x30DB DUP9 DUP12 PUSH2 0x2B9A JUMP JUMPDEST MSTORE JUMPDEST PUSH2 0x2671 DUP8 DUP11 PUSH2 0x2B9A JUMP JUMPDEST SWAP5 ADD SWAP3 SWAP2 SWAP1 PUSH2 0x3098 JUMP JUMPDEST DUP1 PUSH2 0x3108 SWAP2 PUSH0 MSTORE PUSH1 0xC PUSH1 0x20 MSTORE PUSH1 0x40 PUSH0 KECCAK256 SLOAD SWAP1 PUSH2 0x32BF JUMP JUMPDEST PUSH2 0x3112 DUP9 DUP12 PUSH2 0x2B9A JUMP JUMPDEST MSTORE PUSH2 0x30DD JUMP JUMPDEST PUSH20 0xFFFFFFFFFFFFFFFFFFFFFFFFFFFFFFFFFFFFFFFF AND SWAP1 DUP2 ISZERO PUSH2 0x3182 JUMPI PUSH32 0xDDF252AD1BE2C89B69C2B068FC378DAA952BA7F163C4A11628F55A4DF523B3EF PUSH1 0x20 DUP3 PUSH2 0x3166 PUSH0 SWAP5 PUSH1 0x2 SLOAD PUSH2 0x2E73 JUMP JUMPDEST PUSH1 0x2 SSTORE DUP5 DUP5 MSTORE DUP4 DUP3 MSTORE PUSH1 0x40 DUP5 KECCAK256 DUP2 DUP2 SLOAD ADD SWAP1 SSTORE PUSH1 0x40 MLOAD SWAP1 DUP2 MSTORE LOG3 JUMP JUMPDEST PUSH1 0x24 PUSH1 0x40 MLOAD PUSH32 0xEC442F0500000000000000000000000000000000000000000000000000000000 DUP2 MSTORE PUSH0 PUSH1 0x4 DUP3 ADD MSTORE REVERT JUMPDEST SWAP2 PUSH20 0xFFFFFFFFFFFFFFFFFFFFFFFFFFFFFFFFFFFFFFFF DUP1 DUP5 AND SWAP3 DUP4 ISZERO PUSH2 0x328F JUMPI AND SWAP3 DUP4 ISZERO PUSH2 0x3182 JUMPI DUP3 PUSH0 MSTORE PUSH0 PUSH1 0x20 MSTORE PUSH1 0x40 PUSH0 KECCAK256 SLOAD SWAP1 DUP3 DUP3 LT PUSH2 0x3237 JUMPI POP DUP2 PUSH32 0xDDF252AD1BE2C89B69C2B068FC378DAA952BA7F163C4A11628F55A4DF523B3EF SWAP3 PUSH1 0x20 SWAP3 DUP6 PUSH0 MSTORE PUSH0 DUP5 MSTORE SUB PUSH1 0x40 PUSH0 KECCAK256 SSTORE DUP5 PUSH0 MSTORE PUSH1 0x40 PUSH0 KECCAK256 DUP2 DUP2 SLOAD ADD SWAP1 SSTORE PUSH1 0x40 MLOAD SWAP1 DUP2 MSTORE LOG3 JUMP JUMPDEST PUSH1 0x40 MLOAD PUSH32 0xE450D38C00000000000000000000000000000000000000000000000000000000 DUP2 MSTORE PUSH20 0xFFFFFFFFFFFFFFFFFFFFFFFFFFFFFFFFFFFFFFFF SWAP2 SWAP1 SWAP2 AND PUSH1 0x4 DUP3 ADD MSTORE PUSH1 0x24 DUP2 ADD SWAP2 SWAP1 SWAP2 MSTORE PUSH1 0x44 DUP2 ADD DUP3 SWAP1 MSTORE PUSH1 0x64 SWAP1 REVERT JUMPDEST PUSH1 0x24 PUSH1 0x40 MLOAD PUSH32 0x96C6FD1E00000000000000000000000000000000000000000000000000000000 DUP2 MSTORE PUSH0 PUSH1 0x4 DUP3 ADD MSTORE REVERT JUMPDEST PUSH1 0x6 SLOAD PUSH1 0xB SLOAD PUSH1 0x40 MLOAD PUSH32 0x248391FF00000000000000000000000000000000000000000000000000000000 DUP2 MSTORE PUSH20 0xFFFFFFFFFFFFFFFFFFFFFFFFFFFFFFFFFFFFFFFF SWAP4 DUP5 AND PUSH1 0x4 DUP3 ADD MSTORE SWAP1 DUP4 AND PUSH1 0x24 DUP3 ADD MSTORE PUSH1 0x44 DUP2 ADD SWAP4 SWAP1 SWAP4 MSTORE PUSH1 0x20 SWAP2 DUP4 SWAP2 AND DUP2 DUP1 PUSH1 0x64 DUP2 ADD PUSH2 0x2D23 JUMP INVALID LOG2 PUSH5 0x6970667358 0x22 SLT KECCAK256 0xC8 COINBASE BASEFEE LT 0xC3 PUSH14 0xC329497F0BF640C364C1D29C54D4 DUP1 PUSH17 0xBA851498E68EF0072A6864736F6C634300 ADDMOD NOT STOP CALLER "},"gasEstimates":{"creation":{"codeDepositCost":"2630200","executionCost":"infinite","totalCost":"infinite"},"external":{"ONE()":"2872","SWAP_FEE_BPS()":"480","allowance(address,address)":"3240","approve(address,uint256)":"24386","assetInfos(uint256)":"9402","assetLiquidity(uint256)":"infinite","balanceOf(address)":"2776","baseAsset()":"2900","burn(address)":"infinite","computeTotalValuation()":"infinite","decimals()":"368","decreaseReserves(uint256[])":"infinite","getAmountOut(address,address,uint256)":"infinite","getAssetReserve(address)":"2974","getAssets()":"infinite","getDeviation()":"infinite","getReserves()":"infinite","getWeights()":"infinite","isRebalanceNeeded()":"infinite","liquidity()":"infinite","mint(address,uint256[])":"infinite","name()":"infinite","performRebalanceIfNeeded(address)":"infinite","periphery()":"2680","rebalanceWeights(address)":"infinite","rebalancer()":"2268","reserves(address)":"3084","swap(address,address,uint256,address)":"infinite","symbol()":"infinite","totalSupply()":"2386","transfer(address,uint256)":"51289","transferFrom(address,address,uint256)":"75576","trigger()":"2718","unitPrice()":"infinite","updateReserves(uint256[],bool)":"infinite"},"internal":{"_calculateAmountsToAdd(uint256,uint256[] memory)":"infinite","_calculateTotalAddedLiquidity(uint256[] memory)":"infinite","_computeTotalValuation()":"infinite","_convertBaseToToken(address,uint256)":"infinite","_convertTokenToBase(address,uint256)":"infinite","_performRebalanceIfNeeded()":"infinite","_transferAndCalculateLiquidity(uint256,uint256)":"infinite","_updateReserves(uint256[] memory,bool)":"infinite","_updateReservesAndTransfer()":"infinite","initializeAssets(address[] memory,uint256[] memory)":"infinite","max(uint8,uint8)":"infinite","min(uint8,uint8)":"infinite"}},"methodIdentifiers":{"ONE()":"c2ee3a08","SWAP_FEE_BPS()":"67a6c440","allowance(address,address)":"dd62ed3e","approve(address,uint256)":"095ea7b3","assetInfos(uint256)":"d14ef46d","assetLiquidity(uint256)":"cf8fa764","balanceOf(address)":"70a08231","baseAsset()":"cdf456e1","burn(address)":"89afcb44","computeTotalValuation()":"36bf6e39","decimals()":"313ce567","decreaseReserves(uint256[])":"7e04795a","getAmountOut(address,address,uint256)":"4aa06652","getAssetReserve(address)":"b2b55d70","getAssets()":"67e4ac2c","getDeviation()":"89ab3532","getReserves()":"0902f1ac","getWeights()":"22acb867","isRebalanceNeeded()":"8a77c8dc","liquidity()":"1a686502","mint(address,uint256[])":"de836ebd","name()":"06fdde03","performRebalanceIfNeeded(address)":"5568081a","periphery()":"77aace1a","rebalanceWeights(address)":"0723c999","rebalancer()":"01d22ccd","reserves(address)":"d66bd524","swap(address,address,uint256,address)":"6e81221c","symbol()":"95d89b41","totalSupply()":"18160ddd","transfer(address,uint256)":"a9059cbb","transferFrom(address,address,uint256)":"23b872dd","trigger()":"7fec8d38","unitPrice()":"e73faa2d","updateReserves(uint256[],bool)":"3dff5b7f"}},"storageLayout":{"storage":[{"astId":1159,"contract":"contracts/BaluniV1Pool.sol:BaluniV1Pool","label":"_balances","offset":0,"slot":"0","type":"t_mapping(t_address,t_uint256)"},{"astId":1165,"contract":"contracts/BaluniV1Pool.sol:BaluniV1Pool","label":"_allowances","offset":0,"slot":"1","type":"t_mapping(t_address,t_mapping(t_address,t_uint256))"},{"astId":1167,"contract":"contracts/BaluniV1Pool.sol:BaluniV1Pool","label":"_totalSupply","offset":0,"slot":"2","type":"t_uint256"},{"astId":1169,"contract":"contracts/BaluniV1Pool.sol:BaluniV1Pool","label":"_name","offset":0,"slot":"3","type":"t_string_storage"},{"astId":1171,"contract":"contracts/BaluniV1Pool.sol:BaluniV1Pool","label":"_symbol","offset":0,"slot":"4","type":"t_string_storage"},{"astId":2049,"contract":"contracts/BaluniV1Pool.sol:BaluniV1Pool","label":"_status","offset":0,"slot":"5","type":"t_uint256"},{"astId":2231,"contract":"contracts/BaluniV1Pool.sol:BaluniV1Pool","label":"rebalancer","offset":0,"slot":"6","type":"t_contract(IBaluniV1Rebalancer)5766"},{"astId":2235,"contract":"contracts/BaluniV1Pool.sol:BaluniV1Pool","label":"assetInfos","offset":0,"slot":"7","type":"t_array(t_struct(AssetInfo)2255_storage)dyn_storage"},{"astId":2237,"contract":"contracts/BaluniV1Pool.sol:BaluniV1Pool","label":"trigger","offset":0,"slot":"8","type":"t_uint256"},{"astId":2239,"contract":"contracts/BaluniV1Pool.sol:BaluniV1Pool","label":"ONE","offset":0,"slot":"9","type":"t_uint256"},{"astId":2241,"contract":"contracts/BaluniV1Pool.sol:BaluniV1Pool","label":"periphery","offset":0,"slot":"10","type":"t_address"},{"astId":2246,"contract":"contracts/BaluniV1Pool.sol:BaluniV1Pool","label":"baseAsset","offset":0,"slot":"11","type":"t_address"},{"astId":2250,"contract":"contracts/BaluniV1Pool.sol:BaluniV1Pool","label":"reserves","offset":0,"slot":"12","type":"t_mapping(t_address,t_uint256)"}],"types":{"t_address":{"encoding":"inplace","label":"address","numberOfBytes":"20"},"t_array(t_struct(AssetInfo)2255_storage)dyn_storage":{"base":"t_struct(AssetInfo)2255_storage","encoding":"dynamic_array","label":"struct BaluniV1Pool.AssetInfo[]","numberOfBytes":"32"},"t_contract(IBaluniV1Rebalancer)5766":{"encoding":"inplace","label":"contract IBaluniV1Rebalancer","numberOfBytes":"20"},"t_mapping(t_address,t_mapping(t_address,t_uint256))":{"encoding":"mapping","key":"t_address","label":"mapping(address => mapping(address => uint256))","numberOfBytes":"32","value":"t_mapping(t_address,t_uint256)"},"t_mapping(t_address,t_uint256)":{"encoding":"mapping","key":"t_address","label":"mapping(address => uint256)","numberOfBytes":"32","value":"t_uint256"},"t_string_storage":{"encoding":"bytes","label":"string","numberOfBytes":"32"},"t_struct(AssetInfo)2255_storage":{"encoding":"inplace","label":"struct BaluniV1Pool.AssetInfo","members":[{"astId":2252,"contract":"contracts/BaluniV1Pool.sol:BaluniV1Pool","label":"asset","offset":0,"slot":"0","type":"t_address"},{"astId":2254,"contract":"contracts/BaluniV1Pool.sol:BaluniV1Pool","label":"weight","offset":0,"slot":"1","type":"t_uint256"}],"numberOfBytes":"64"},"t_uint256":{"encoding":"inplace","label":"uint256","numberOfBytes":"32"}}},"userdoc":{"kind":"user","methods":{"burn(address)":{"notice":"This function can only be called by the periphery contract.The pool tokens must have a balance greater than 0.The total supply of pool tokens must be greater than 0.The function calculates the amounts of each underlying asset to transfer based on the share of pool tokens being burned.A fee is deducted from the share of pool tokens being burned and transferred to the treasury address.The function checks if the pool has sufficient liquidity before performing any transfers.If any transfer fails, the function reverts the entire operation.After the transfers, the function updates the reserves of the pool.Emits a `Burn` event with the address and share of pool tokens burned."}},"version":1}}}}