{"contracts/BaluniV1PoolPeriphery.sol":{"BaluniV1PoolPeriphery":{"abi":[{"inputs":[{"internalType":"address","name":"target","type":"address"}],"name":"AddressEmptyCode","type":"error"},{"inputs":[{"internalType":"address","name":"implementation","type":"address"}],"name":"ERC1967InvalidImplementation","type":"error"},{"inputs":[],"name":"ERC1967NonPayable","type":"error"},{"inputs":[],"name":"FailedInnerCall","type":"error"},{"inputs":[],"name":"InvalidInitialization","type":"error"},{"inputs":[],"name":"NotInitializing","type":"error"},{"inputs":[{"internalType":"address","name":"owner","type":"address"}],"name":"OwnableInvalidOwner","type":"error"},{"inputs":[{"internalType":"address","name":"account","type":"address"}],"name":"OwnableUnauthorizedAccount","type":"error"},{"inputs":[],"name":"UUPSUnauthorizedCallContext","type":"error"},{"inputs":[{"internalType":"bytes32","name":"slot","type":"bytes32"}],"name":"UUPSUnsupportedProxiableUUID","type":"error"},{"anonymous":false,"inputs":[{"indexed":false,"internalType":"uint64","name":"version","type":"uint64"}],"name":"Initialized","type":"event"},{"anonymous":false,"inputs":[{"indexed":true,"internalType":"address","name":"previousOwner","type":"address"},{"indexed":true,"internalType":"address","name":"newOwner","type":"address"}],"name":"OwnershipTransferred","type":"event"},{"anonymous":false,"inputs":[{"indexed":true,"internalType":"address","name":"implementation","type":"address"}],"name":"Upgraded","type":"event"},{"inputs":[],"name":"UPGRADE_INTERFACE_VERSION","outputs":[{"internalType":"string","name":"","type":"string"}],"stateMutability":"view","type":"function"},{"inputs":[{"internalType":"uint256[]","name":"amounts","type":"uint256[]"},{"internalType":"address","name":"poolAddress","type":"address"},{"internalType":"address","name":"receiver","type":"address"}],"name":"addLiquidity","outputs":[],"stateMutability":"nonpayable","type":"function"},{"inputs":[{"internalType":"address[]","name":"fromTokens","type":"address[]"},{"internalType":"address[]","name":"toTokens","type":"address[]"},{"internalType":"uint256[]","name":"amounts","type":"uint256[]"},{"internalType":"address[]","name":"receivers","type":"address[]"}],"name":"batchSwap","outputs":[{"internalType":"uint256[]","name":"","type":"uint256[]"}],"stateMutability":"nonpayable","type":"function"},{"inputs":[{"internalType":"address","name":"_poolFactory","type":"address"}],"name":"changePoolFactory","outputs":[],"stateMutability":"nonpayable","type":"function"},{"inputs":[{"internalType":"address","name":"fromToken","type":"address"},{"internalType":"address","name":"toToken","type":"address"},{"internalType":"uint256","name":"amount","type":"uint256"}],"name":"getAmountOut","outputs":[{"internalType":"uint256","name":"","type":"uint256"}],"stateMutability":"view","type":"function"},{"inputs":[{"internalType":"address","name":"token","type":"address"}],"name":"getPoolsContainingToken","outputs":[{"internalType":"address[]","name":"","type":"address[]"}],"stateMutability":"view","type":"function"},{"inputs":[],"name":"getVersion","outputs":[{"internalType":"uint64","name":"","type":"uint64"}],"stateMutability":"view","type":"function"},{"inputs":[{"internalType":"address","name":"_poolFactory","type":"address"}],"name":"initialize","outputs":[],"stateMutability":"nonpayable","type":"function"},{"inputs":[],"name":"owner","outputs":[{"internalType":"address","name":"","type":"address"}],"stateMutability":"view","type":"function"},{"inputs":[{"internalType":"address","name":"poolAddress","type":"address"}],"name":"performRebalanceIfNeeded","outputs":[],"stateMutability":"nonpayable","type":"function"},{"inputs":[],"name":"poolFactory","outputs":[{"internalType":"contract IBaluniV1PoolFactory","name":"","type":"address"}],"stateMutability":"view","type":"function"},{"inputs":[],"name":"proxiableUUID","outputs":[{"internalType":"bytes32","name":"","type":"bytes32"}],"stateMutability":"view","type":"function"},{"inputs":[{"internalType":"address","name":"_poolFactory","type":"address"},{"internalType":"uint64","name":"version","type":"uint64"}],"name":"reinitialize","outputs":[],"stateMutability":"nonpayable","type":"function"},{"inputs":[{"internalType":"uint256","name":"share","type":"uint256"},{"internalType":"address","name":"poolAddress","type":"address"},{"internalType":"address","name":"receiver","type":"address"}],"name":"removeLiquidity","outputs":[],"stateMutability":"nonpayable","type":"function"},{"inputs":[],"name":"renounceOwnership","outputs":[],"stateMutability":"nonpayable","type":"function"},{"inputs":[{"internalType":"address","name":"fromToken","type":"address"},{"internalType":"address","name":"toToken","type":"address"},{"internalType":"uint256","name":"amount","type":"uint256"},{"internalType":"address","name":"receiver","type":"address"}],"name":"smartSwap","outputs":[{"internalType":"uint256","name":"","type":"uint256"}],"stateMutability":"nonpayable","type":"function"},{"inputs":[{"internalType":"address","name":"fromToken","type":"address"},{"internalType":"address","name":"toToken","type":"address"},{"internalType":"uint256","name":"amount","type":"uint256"},{"internalType":"address","name":"receiver","type":"address"}],"name":"swap","outputs":[{"internalType":"uint256","name":"","type":"uint256"}],"stateMutability":"nonpayable","type":"function"},{"inputs":[{"internalType":"address","name":"newOwner","type":"address"}],"name":"transferOwnership","outputs":[],"stateMutability":"nonpayable","type":"function"},{"inputs":[],"name":"transferToPool","outputs":[],"stateMutability":"nonpayable","type":"function"},{"inputs":[{"internalType":"address","name":"newImplementation","type":"address"},{"internalType":"bytes","name":"data","type":"bytes"}],"name":"upgradeToAndCall","outputs":[],"stateMutability":"payable","type":"function"}],"devdoc":{"details":"This contract serves as the periphery contract for interacting with BaluniV1Pool contracts. It provides functions for swapping tokens, adding liquidity, removing liquidity, and getting the amount out for a given swap.","errors":{"AddressEmptyCode(address)":[{"details":"There's no code at `target` (it is not a contract)."}],"ERC1967InvalidImplementation(address)":[{"details":"The `implementation` of the proxy is invalid."}],"ERC1967NonPayable()":[{"details":"An upgrade function sees `msg.value > 0` that may be lost."}],"FailedInnerCall()":[{"details":"A call to an address target failed. The target may have reverted."}],"InvalidInitialization()":[{"details":"The contract is already initialized."}],"NotInitializing()":[{"details":"The contract is not initializing."}],"OwnableInvalidOwner(address)":[{"details":"The owner is not a valid owner account. (eg. `address(0)`)"}],"OwnableUnauthorizedAccount(address)":[{"details":"The caller account is not authorized to perform an operation."}],"UUPSUnauthorizedCallContext()":[{"details":"The call is from an unauthorized context."}],"UUPSUnsupportedProxiableUUID(bytes32)":[{"details":"The storage `slot` is unsupported as a UUID."}]},"events":{"Initialized(uint64)":{"details":"Triggered when the contract has been initialized or reinitialized."},"Upgraded(address)":{"details":"Emitted when the implementation is upgraded."}},"kind":"dev","methods":{"addLiquidity(uint256[],address,address)":{"details":"Adds liquidity to a BaluniV1Pool.","params":{"amounts":"An array of amounts for each asset to add as liquidity."}},"batchSwap(address[],address[],uint256[],address[])":{"details":"Performs batch swaps between multiple token pairs.","params":{"amounts":"An array of amounts representing the amounts to swap.","fromTokens":"An array of addresses representing the tokens to swap from.","receivers":"An array of addresses representing the receivers of the swapped tokens.","toTokens":"An array of addresses representing the tokens to swap to."},"returns":{"_0":"An array of amounts representing the amounts of tokens received after the swaps."}},"changePoolFactory(address)":{"details":"Changes the address of the pool factory contract. Can only be called by the contract owner.","params":{"_poolFactory":"The new address of the pool factory contract."}},"getAmountOut(address,address,uint256)":{"details":"Gets the amount of tokens received after a swap in a BaluniV1Pool.","params":{"amount":"The amount of tokens to swap.","fromToken":"The address of the token to swap from.","toToken":"The address of the token to swap to."},"returns":{"_0":"The amount of tokens received after the swap."}},"getPoolsContainingToken(address)":{"details":"Returns an array of pool addresses that contain the given token.","params":{"token":"The address of the token to search for."},"returns":{"_0":"An array of pool addresses."}},"getVersion()":{"details":"Returns the version of the contract.","returns":{"_0":"The version string."}},"initialize(address)":{"details":"Initializes the contract by setting the pool factory address.","params":{"_poolFactory":"The address of the BaluniV1PoolFactory contract."}},"owner()":{"details":"Returns the address of the current owner."},"performRebalanceIfNeeded(address)":{"details":"Performs rebalance if needed for the given tokens.","params":{"poolAddress":"The address of the token pool to rebalance."}},"proxiableUUID()":{"details":"Implementation of the ERC1822 {proxiableUUID} function. This returns the storage slot used by the implementation. It is used to validate the implementation's compatibility when performing an upgrade. IMPORTANT: A proxy pointing at a proxiable contract should not be considered proxiable itself, because this risks bricking a proxy that upgrades to it, by delegating to itself until out of gas. Thus it is critical that this function revert if invoked through a proxy. This is guaranteed by the `notDelegated` modifier."},"reinitialize(address,uint64)":{"details":"Initializes the contract by setting the pool factory address.","params":{"_poolFactory":"The address of the BaluniV1PoolFactory contract."}},"removeLiquidity(uint256,address,address)":{"details":"Removes liquidity from a BaluniV1Pool.","params":{"poolAddress":"The address of the BaluniV1Pool.","share":"The amount of liquidity tokens to remove."}},"renounceOwnership()":{"details":"Leaves the contract without owner. It will not be possible to call `onlyOwner` functions. Can only be called by the current owner. NOTE: Renouncing ownership will leave the contract without an owner, thereby disabling any functionality that is only available to the owner."},"swap(address,address,uint256,address)":{"details":"Swaps tokens in a BaluniV1Pool.","params":{"amount":"The amount of tokens to swap.","fromToken":"The address of the token to swap from.","toToken":"The address of the token to swap to."},"returns":{"_0":"The amount of tokens received after the swap."}},"transferOwnership(address)":{"details":"Transfers ownership of the contract to a new account (`newOwner`). Can only be called by the current owner."},"upgradeToAndCall(address,bytes)":{"custom:oz-upgrades-unsafe-allow-reachable":"delegatecall","details":"Upgrade the implementation of the proxy to `newImplementation`, and subsequently execute the function call encoded in `data`. Calls {_authorizeUpgrade}. Emits an {Upgraded} event."}},"title":"BaluniV1PoolPeriphery","version":1},"evm":{"bytecode":{"linkReferences":{},"object":"60a0806040523460295730608052612d5c908161002e823960805181818161219f01526122c00152f35b5f80fdfe6080806040526004361015610012575f80fd5b5f905f3560e01c9081630d8e6e2c14612705575080634219dc40146126b55780634aa06652146125235780634f1ef2861461221957806352d1902d1461215a5780635568081a146120a95780636e81221c14611e04578063715018a614611d4657806372591be514611cc65780637442eca6146116325780638da5cb5b146115c15780638f2248bc1461146b578063ad3cb1cc1461137c578063ae3cce1c1461127d578063c4d66de814611089578063e74e9b0614610a63578063ec0cd2eb14610846578063f2fde38b146107fb578063f31abcc4146103ec5763fe110116146100fa575f80fd5b346103e957807ffffffffffffffffffffffffffffffffffffffffffffffffffffffffffffffffc3601126103e95773ffffffffffffffffffffffffffffffffffffffff8082541660405180917f89345efb00000000000000000000000000000000000000000000000000000000825233600483015281602460209485935afa9081156102f95784916103b4575b5015610356578290604051927f0902f1ac0000000000000000000000000000000000000000000000000000000084528284600481335afa93841561034b578394610304575b506040517f67e4ac2c0000000000000000000000000000000000000000000000000000000081528381600481335afa9081156102f95784916102d7575b50835b81518110156102d357808461027685610226899587612a29565b5116610232848b612a29565b516040517fa9059cbb000000000000000000000000000000000000000000000000000000008152336004820152602481019190915294859283919082906044820190565b03925af180156102c85761028f575b600191500161020c565b8482813d83116102c1575b6102a481836127e3565b810103126102bd576102b7600192612982565b50610285565b8580fd5b503d61029a565b6040513d88823e3d90fd5b8480f35b6102f391503d8086833e6102eb81836127e3565b8101906129a7565b5f610209565b6040513d86823e3d90fd5b9093503d8084833e61031681836127e3565b8101828282031261034757815167ffffffffffffffff81116103435761033c9201612a6a565b925f6101cc565b8480fd5b8380fd5b6040513d85823e3d90fd5b606490604051907f08c379a00000000000000000000000000000000000000000000000000000000082526004820152600a60248201527f4f6e6c7920506f6f6c73000000000000000000000000000000000000000000006044820152fd5b90508181813d83116103e2575b6103cb81836127e3565b81010312610347576103dc90612982565b5f610187565b503d6103c1565b80fd5b50346103e95760607ffffffffffffffffffffffffffffffffffffffffffffffffffffffffffffffffc3601126103e95760043590610428612789565b916104316127ac565b811561079d576040517fdd62ed3e00000000000000000000000000000000000000000000000000000000815233600482015230602482015260209473ffffffffffffffffffffffffffffffffffffffff8082169490929091908781604481895afa90811561070357908391889161076c575b501061070e576040517f70a082310000000000000000000000000000000000000000000000000000000081523360048201528781602481895afa9081156107035790839188916106ce575b5010610670576040517f23b872dd00000000000000000000000000000000000000000000000000000000815233600482015273ffffffffffffffffffffffffffffffffffffffff9190911660248201526044810191909152858160648188885af1908115610665578591610630575b50156105d257839450823b156105cd57602484928360405195869485937f89afcb440000000000000000000000000000000000000000000000000000000085521660048401525af180156105c2576105b25750f35b6105bb906127cf565b6103e95780f35b6040513d84823e3d90fd5b505050fd5b606485604051907f08c379a00000000000000000000000000000000000000000000000000000000082526004820152600f60248201527f5472616e73666572206661696c656400000000000000000000000000000000006044820152fd5b90508581813d831161065e575b61064781836127e3565b810103126103435761065890612982565b5f61055d565b503d61063d565b6040513d87823e3d90fd5b606487604051907f08c379a00000000000000000000000000000000000000000000000000000000082526004820152601460248201527f496e73756666696369656e742062616c616e63650000000000000000000000006044820152fd5b809250898092503d83116106fc575b6106e781836127e3565b810103126106f8578290515f6104ee565b5f80fd5b503d6106dd565b6040513d89823e3d90fd5b606487604051907f08c379a00000000000000000000000000000000000000000000000000000000082526004820152601660248201527f496e73756666696369656e7420616c6c6f77616e6365000000000000000000006044820152fd5b809250898092503d8311610796575b61078581836127e3565b810103126106f8578290515f6104a3565b503d61077b565b60646040517f08c379a000000000000000000000000000000000000000000000000000000000815260206004820152601f60248201527f5368617265206d7573742062652067726561746572207468616e207a65726f006044820152fd5b50346103e95760207ffffffffffffffffffffffffffffffffffffffffffffffffffffffffffffffffc3601126103e957610843610836612766565b61083e612bbd565b612afc565b80f35b50346103e95760607ffffffffffffffffffffffffffffffffffffffffffffffffffffffffffffffffc3601126103e95760043567ffffffffffffffff8111610a5f576108969036906004016128cb565b90916108a0612789565b916108a96127ac565b9273ffffffffffffffffffffffffffffffffffffffff809116604051907f67e4ac2c0000000000000000000000000000000000000000000000000000000082528482600481845afa918215610665578592610a43575b50845b82518110156109d357836109168285612a29565b511661097461092683888c612acb565b6040517f23b872dd00000000000000000000000000000000000000000000000000000000815233600482015230602482015290356044820152916020918291849182908c9082906064820190565b03925af180156109c85761098d575b5050600101610902565b81813d83116109c1575b6109a181836127e3565b810103126109bd57906109b5600192612982565b50905f610983565b8680fd5b503d610997565b6040513d8a823e3d90fd5b6040517f6a6278420000000000000000000000000000000000000000000000000000000081528785166004820152869060208160248185885af180156105c257610a1b575080f35b602090813d8311610a3c575b610a3181836127e3565b810103126106f85780f35b503d610a27565b610a589192503d8087833e6102eb81836127e3565b905f6108ff565b5080fd5b50346103e95760807ffffffffffffffffffffffffffffffffffffffffffffffffffffffffffffffffc3601126103e95767ffffffffffffffff60043581811161108557610ab49036906004016128cb565b909160243581811161034357610ace9036906004016128cb565b916044358181116109bd57610ae79036906004016128cb565b909160643590811161108157610b019036906004016128cb565b9285871480611078575b8061106f575b1561101157610b258799979896959861298f565b97610b33604051998a6127e3565b8989527fffffffffffffffffffffffffffffffffffffffffffffffffffffffffffffffe0610b608b61298f565b013660208b013787995b808b10610bb7578989604051918291602083016020845282518091526020604085019301915b818110610b9e575050500390f35b8251845285945060209384019390920191600101610b90565b8a896020610c5973ffffffffffffffffffffffffffffffffffffffff839f8d9f9e9c9d8188610c0092610bfb8f610c05968f91610bf392612acb565b35151561291d565b612acb565b612adb565b16610c11858b8a612acb565b6040517f23b872dd0000000000000000000000000000000000000000000000000000000081523360048201523060248201529035604482015293849283919082906064820190565b03925af1908115610ed15782848b8f938e95610f9a575b50610c0083610ca5610c00610d0698966020989673ffffffffffffffffffffffffffffffffffffffff610cac97541697612acb565b948a612acb565b6040517f2d5e94a700000000000000000000000000000000000000000000000000000000815273ffffffffffffffffffffffffffffffffffffffff9384166004820152921660248301529092839190829081906044820190565b03915afa908115610ed15782848e8c938495610f2c575b50610d46610c00602094610daa9473ffffffffffffffffffffffffffffffffffffffff94612acb565b16610d52868c8b612acb565b6040517f095ea7b300000000000000000000000000000000000000000000000000000000815273ffffffffffffffffffffffffffffffffffffffff871660048201529035602482015293849283919082906044820190565b03925af18015610f2157848e8592610edc575b610dc79350612acb565b610dd090612adb565b90610ddc838c87612acb565b610de590612adb565b610df0848a89612acb565b3590610dfd858c8b612acb565b610e0690612adb565b6040517f6e81221c00000000000000000000000000000000000000000000000000000000815273ffffffffffffffffffffffffffffffffffffffff95861660048201529185166024830152604482019290925290831660648201529116816084818c5a94602095f1908115610ed1578991610e99575b5090600191610e8b828d612a29565b52019a509896959798610b6a565b919850506020813d602011610ec9575b81610eb6602093836127e3565b810103126106f857518b97906001610e7c565b3d9150610ea9565b6040513d8b823e3d90fd5b5050506020813d602011610f19575b81610ef8602093836127e3565b81010312610f155782848e610f0f610dc794612982565b50610dbd565b8980fd5b3d9150610eeb565b6040513d8c823e3d90fd5b9450505050506020813d602011610f92575b81610f4b602093836127e3565b81010312610f8e57886020610daa73ffffffffffffffffffffffffffffffffffffffff8f94610c008789610f81610d46946128fc565b9894509450945050610d1d565b8880fd5b3d9150610f3e565b9450505050506020813d602011611009575b81610fb9602093836127e3565b81010312610f8e5760208a8d610cac610c0086610ca58f828b73ffffffffffffffffffffffffffffffffffffffff610c0093610ff7610d069d612982565b50975050969850505050939550610c70565b3d9150610fac565b60646040517f08c379a000000000000000000000000000000000000000000000000000000000815260206004820152601c60248201527f496e70757420617272617973206c656e677468206d69736d61746368000000006044820152fd5b50838314610b11565b50828614610b0b565b8780fd5b8280fd5b50346103e95760207ffffffffffffffffffffffffffffffffffffffffffffffffffffffffffffffffc3601126103e9576110c1612766565b7ff0c57e16840df040f15088dc2f81fe391c3923bec73e23a9662efc9c229c6a0090815460ff8160401c16159167ffffffffffffffff821680159081611275575b600114908161126b575b159081611262575b5061123857818360017fffffffffffffffffffffffffffffffffffffffffffffffff000000000000000073ffffffffffffffffffffffffffffffffffffffff9516178655611203575b50611166612c2d565b61116e612c2d565b611176612c2d565b61117f33612afc565b167fffffffffffffffffffffffff00000000000000000000000000000000000000008454161783556111af575080f35b7fffffffffffffffffffffffffffffffffffffffffffffff00ffffffffffffffff81541690557fc7f505b2f371ae2175ee4913f4499e1f2633a7b5936321eed1cdaeb6115181d2602060405160018152a180f35b7fffffffffffffffffffffffffffffffffffffffffffffff00000000000000000016680100000000000000011784555f61115d565b60046040517ff92ee8a9000000000000000000000000000000000000000000000000000000008152fd5b9050155f611114565b303b15915061110c565b849150611102565b50346103e9576020807ffffffffffffffffffffffffffffffffffffffffffffffffffffffffffffffffc360112610a5f576112b6612766565b73ffffffffffffffffffffffffffffffffffffffff9280846024818354169460405195869384927fb4340e6a0000000000000000000000000000000000000000000000000000000084521660048301525afa91821561136f578192611353575b506040519280840190808552835180925280604086019401925b82811061133d5785850386f35b8351871685529381019392810192600101611330565b6113689192503d8084833e6102eb81836127e3565b905f611316565b50604051903d90823e3d90fd5b50346103e957807ffffffffffffffffffffffffffffffffffffffffffffffffffffffffffffffffc3601126103e957604051604081019080821067ffffffffffffffff83111761143e576040918252600581527fffffffffffffffffffffffffffffffffffffffffffffffffffffffffffffffe0601f602083017f352e302e3000000000000000000000000000000000000000000000000000000081528451958694602086525180928160208801528787015e85828601015201168101030190f35b7f4e487b71000000000000000000000000000000000000000000000000000000005f52604160045260245ffd5b50346103e95760407ffffffffffffffffffffffffffffffffffffffffffffffffffffffffffffffffc3601126103e9576114a3612766565b6024359067ffffffffffffffff91828116809103610347577ff0c57e16840df040f15088dc2f81fe391c3923bec73e23a9662efc9c229c6a008054938260ff8660401c169182156115b4575b5050611238577fffffffffffffffffffffffffffffffffffffffffffffff00ffffffffffffffff68010000000000000000837fffffffffffffffffffffffffffffffffffffffffffffff0000000000000000007fc7f505b2f371ae2175ee4913f4499e1f2633a7b5936321eed1cdaeb6115181d29773ffffffffffffffffffffffffffffffffffffffff602098167fffffffffffffffffffffffff00000000000000000000000000000000000000005f5416175f55161717169055604051908152a180f35b861610159050825f6114ef565b50346103e957807ffffffffffffffffffffffffffffffffffffffffffffffffffffffffffffffffc3601126103e957602073ffffffffffffffffffffffffffffffffffffffff7f9016d09d72d40fdae2fd8ceac6b6234c7706214fd39c1cd1e609a0528c1993005416604051908152f35b50346103e95760246116433661285e565b6116528295949392151561291d565b8573ffffffffffffffffffffffffffffffffffffffff815416604051958680927fb4340e6a00000000000000000000000000000000000000000000000000000000825273ffffffffffffffffffffffffffffffffffffffff881660048301525afa9384156102c8578694611caa575b5090939185908190815b8651841015611a045773ffffffffffffffffffffffffffffffffffffffff6116f38589612a29565b511697604051957f89ab35320000000000000000000000000000000000000000000000000000000087528a876004818d5afa9687156119f9578b9761192a575b506004949596978b8b604051978880927f36bf6e390000000000000000000000000000000000000000000000000000000082525afa95861561191f578c966118d8575b508b5b8c8a518210156118c457602460408e8151928380927fd14ef46d0000000000000000000000000000000000000000000000000000000082528760048301525afa9182156118b85791611850575b5073ffffffffffffffffffffffffffffffffffffffff808816915116146117f0575b600101611779565b6117fa8188612a29565b51611805828c612a29565b51151580611847575b611819575b506117e8565b97509350600173ffffffffffffffffffffffffffffffffffffffff61183e8a8d612a29565b51169490611813565b5088811161180e565b90506040813d6040116118b0575b8161186b604093836127e3565b810103126118ac57604051906040820182811067ffffffffffffffff82111761143e5760405261189a816128fc565b8252602080910151908201525f6117c6565b8d80fd5b3d915061185e565b604051903d90823e3d90fd5b50929a509750956001019493506116cb9050565b9095503d808d833e6118ea81836127e3565b810160408282031261191b57602082015167ffffffffffffffff81116118ac576119149201612a6a565b945f611776565b8c80fd5b6040513d8e823e3d90fd5b949596503d94858c823e61193e86826127e3565b60408187810103126119f55780519567ffffffffffffffff968781116118ac57820191818101601f840112156118ac5782519260209061197d8561298f565b9461198b60405196876127e3565b808652828087019160051b8301019185850183116119ef5783809101915b8383106119d757505050508101519788116118ac576004976119ce9282019101612a6a565b50969594611733565b81906119e284612982565b81520191019083906119a9565b50508f80fd5b8b80fd5b6040513d8d823e3d90fd5b888686928a73ffffffffffffffffffffffffffffffffffffffff821615611c4c576040517f23b872dd000000000000000000000000000000000000000000000000000000008152336004820152306024820152604481018490526020816064818873ffffffffffffffffffffffffffffffffffffffff8c165af1801561066557611c13575b506040517f095ea7b300000000000000000000000000000000000000000000000000000000815273ffffffffffffffffffffffffffffffffffffffff8316600482015260248101849052602081806044810103818873ffffffffffffffffffffffffffffffffffffffff8c165af1801561066557611bbb575b506040517f6e81221c00000000000000000000000000000000000000000000000000000000815273ffffffffffffffffffffffffffffffffffffffff9687166004820152908616602482015260448101929092529284166064820152929091602091849160849183918691165af19081156118b85790611b88575b602090604051908152f35b506020813d602011611bb3575b81611ba2602093836127e3565b810103126106f85760209051611b7d565b3d9150611b95565b6020813d602011611c0b575b81611bd4602093836127e3565b81010312610343579373ffffffffffffffffffffffffffffffffffffffff819697611c00602097612982565b509796955050611b02565b3d9150611bc7565b6020813d602011611c44575b81611c2c602093836127e3565b8101031261034357611c3d90612982565b5086611a89565b3d9150611c1f565b60646040517f08c379a000000000000000000000000000000000000000000000000000000000815260206004820152601660248201527f4e6f207375697461626c6520706f6f6c20666f756e64000000000000000000006044820152fd5b611cbf9194503d8088833e6102eb81836127e3565b925f6116c1565b50346103e95760207ffffffffffffffffffffffffffffffffffffffffffffffffffffffffffffffffc3601126103e95773ffffffffffffffffffffffffffffffffffffffff611d13612766565b611d1b612bbd565b167fffffffffffffffffffffffff00000000000000000000000000000000000000005f5416175f5580f35b50346103e957807ffffffffffffffffffffffffffffffffffffffffffffffffffffffffffffffffc3601126103e957611d7d612bbd565b5f73ffffffffffffffffffffffffffffffffffffffff7f9016d09d72d40fdae2fd8ceac6b6234c7706214fd39c1cd1e609a0528c1993008054907fffffffffffffffffffffffff000000000000000000000000000000000000000082169055167f8be0079c531659141344cd1fd0a4f28419497f9722a3daafe3b4186f6b6457e08280a380f35b50346103e957611e133661285e565b91611e2282959495151561291d565b83546040517f2d5e94a700000000000000000000000000000000000000000000000000000000815273ffffffffffffffffffffffffffffffffffffffff8781166004830152838116602483015260209791939290919088908590604490829086165afa938415610703578794612072575b506040517f23b872dd000000000000000000000000000000000000000000000000000000008152336004820152306024820152604481018690528282169089816064818c865af18015610ed15761203e575b506040517f095ea7b300000000000000000000000000000000000000000000000000000000815273ffffffffffffffffffffffffffffffffffffffff8616600482015260248101879052908990829060449082908c905af180156109c857918996959493918993611ffc575b506040517f6e81221c00000000000000000000000000000000000000000000000000000000815273ffffffffffffffffffffffffffffffffffffffff9182166004820152938116602485015260448401959095529590931660648201529384926084928492165af19182156118b85791611fcf575b50604051908152f35b90508181813d8311611ff5575b611fe681836127e3565b810103126106f857515f611fc6565b503d611fdc565b878193959697989294503d8311612037575b61201881836127e3565b81010312611081579187916120308a97969594612982565b505f611f51565b503d61200e565b8981813d831161206b575b61205381836127e3565b81010312610f8e5761206490612982565b505f611ee5565b503d612049565b9093508781813d83116120a2575b61208a81836127e3565b810103126109bd5761209b906128fc565b925f611e93565b503d612080565b50346106f85760207ffffffffffffffffffffffffffffffffffffffffffffffffffffffffffffffffc3601126106f85773ffffffffffffffffffffffffffffffffffffffff6120f6612766565b16803b156106f8575f80916024604051809481937f5568081a0000000000000000000000000000000000000000000000000000000083523360048401525af1801561214f57612143575080f35b61214d91506127cf565b005b6040513d5f823e3d90fd5b346106f8575f7ffffffffffffffffffffffffffffffffffffffffffffffffffffffffffffffffc3601126106f85773ffffffffffffffffffffffffffffffffffffffff7f00000000000000000000000000000000000000000000000000000000000000001630036121ef5760206040517f360894a13ba1a3210667c828492db98dca3e2076cc3735a920a3ca505d382bbc8152f35b60046040517fe07c8dba000000000000000000000000000000000000000000000000000000008152fd5b60407ffffffffffffffffffffffffffffffffffffffffffffffffffffffffffffffffc3601126106f85761224b612766565b602490813567ffffffffffffffff81116106f857366023820112156106f857806004013561227881612824565b9261228660405194856127e3565b81845260209182850193368783830101116106f857815f928886930187378601015273ffffffffffffffffffffffffffffffffffffffff807f0000000000000000000000000000000000000000000000000000000000000000168030149081156124f5575b506121ef576122f8612bbd565b8116936040517f52d1902d0000000000000000000000000000000000000000000000000000000081528381600481895afa5f91816124c6575b50612366578686604051907f4c9c8ce30000000000000000000000000000000000000000000000000000000082526004820152fd5b8590877f360894a13ba1a3210667c828492db98dca3e2076cc3735a920a3ca505d382bbc918281036124985750843b156124695750817fffffffffffffffffffffffff0000000000000000000000000000000000000000825416179055604051907fbc7cd75a20ee27fd9adebab32041f755214dbc6bffa90cc0225b39da2e5c2d3b5f80a281511561243557505f61214d9481925190845af4903d1561242c573d61241081612824565b9061241e60405192836127e3565b81525f81943d92013e612c86565b60609250612c86565b93505050503461244157005b807fb398979f0000000000000000000000000000000000000000000000000000000060049252fd5b82604051907f4c9c8ce30000000000000000000000000000000000000000000000000000000082526004820152fd5b604051907faa1d49a40000000000000000000000000000000000000000000000000000000082526004820152fd5b9091508481813d83116124ee575b6124de81836127e3565b810103126106f857519088612331565b503d6124d4565b9050817f360894a13ba1a3210667c828492db98dca3e2076cc3735a920a3ca505d382bbc54161415876122eb565b346106f85760607ffffffffffffffffffffffffffffffffffffffffffffffffffffffffffffffffc3601126106f85761255a612766565b612562612789565b5f546040517f2d5e94a700000000000000000000000000000000000000000000000000000000815273ffffffffffffffffffffffffffffffffffffffff84811660048301528381166024830152602094919285908490604490829085165afa90811561214f5785935f92612678575b506040517f4aa0665200000000000000000000000000000000000000000000000000000000815273ffffffffffffffffffffffffffffffffffffffff938416600482015294909216602485015260448035908501528391829081606481015b0392165afa90811561214f575f9161264b5750604051908152f35b90508181813d8311612671575b61266281836127e3565b810103126106f8575182611fc6565b503d612658565b8481959293503d83116126ae575b61269081836127e3565b810103126106f857612630936126a686946128fc565b9190946125d1565b503d612686565b346106f8575f7ffffffffffffffffffffffffffffffffffffffffffffffffffffffffffffffffc3601126106f857602073ffffffffffffffffffffffffffffffffffffffff5f5416604051908152f35b346106f8575f7ffffffffffffffffffffffffffffffffffffffffffffffffffffffffffffffffc3601126106f85760209067ffffffffffffffff7ff0c57e16840df040f15088dc2f81fe391c3923bec73e23a9662efc9c229c6a0054168152f35b6004359073ffffffffffffffffffffffffffffffffffffffff821682036106f857565b6024359073ffffffffffffffffffffffffffffffffffffffff821682036106f857565b6044359073ffffffffffffffffffffffffffffffffffffffff821682036106f857565b67ffffffffffffffff811161143e57604052565b90601f7fffffffffffffffffffffffffffffffffffffffffffffffffffffffffffffffe0910116810190811067ffffffffffffffff82111761143e57604052565b67ffffffffffffffff811161143e57601f017fffffffffffffffffffffffffffffffffffffffffffffffffffffffffffffffe01660200190565b7ffffffffffffffffffffffffffffffffffffffffffffffffffffffffffffffffc60809101126106f85773ffffffffffffffffffffffffffffffffffffffff9060043582811681036106f8579160243581811681036106f857916044359160643590811681036106f85790565b9181601f840112156106f85782359167ffffffffffffffff83116106f8576020808501948460051b0101116106f857565b519073ffffffffffffffffffffffffffffffffffffffff821682036106f857565b1561292457565b60646040517f08c379a000000000000000000000000000000000000000000000000000000000815260206004820152602060248201527f416d6f756e74206d7573742062652067726561746572207468616e207a65726f6044820152fd5b519081151582036106f857565b67ffffffffffffffff811161143e5760051b60200190565b60209081818403126106f85780519067ffffffffffffffff82116106f857019180601f840112156106f85782516129dd8161298f565b936129eb60405195866127e3565b818552838086019260051b8201019283116106f8578301905b828210612a12575050505090565b838091612a1e846128fc565b815201910190612a04565b8051821015612a3d5760209160051b010190565b7f4e487b71000000000000000000000000000000000000000000000000000000005f52603260045260245ffd5b9080601f830112156106f857815190602091612a858161298f565b93612a9360405195866127e3565b81855260208086019260051b8201019283116106f857602001905b828210612abc575050505090565b81518152908301908301612aae565b9190811015612a3d5760051b0190565b3573ffffffffffffffffffffffffffffffffffffffff811681036106f85790565b73ffffffffffffffffffffffffffffffffffffffff809116908115612b8d577f9016d09d72d40fdae2fd8ceac6b6234c7706214fd39c1cd1e609a0528c199300805490837fffffffffffffffffffffffff00000000000000000000000000000000000000008316179055167f8be0079c531659141344cd1fd0a4f28419497f9722a3daafe3b4186f6b6457e05f80a3565b60246040517f1e4fbdf70000000000000000000000000000000000000000000000000000000081525f6004820152fd5b73ffffffffffffffffffffffffffffffffffffffff7f9016d09d72d40fdae2fd8ceac6b6234c7706214fd39c1cd1e609a0528c19930054163303612bfd57565b60246040517f118cdaa7000000000000000000000000000000000000000000000000000000008152336004820152fd5b60ff7ff0c57e16840df040f15088dc2f81fe391c3923bec73e23a9662efc9c229c6a005460401c1615612c5c57565b60046040517fd7e6bcf8000000000000000000000000000000000000000000000000000000008152fd5b90612cc55750805115612c9b57805190602001fd5b60046040517f1425ea42000000000000000000000000000000000000000000000000000000008152fd5b81511580612d1d575b612cd6575090565b60249073ffffffffffffffffffffffffffffffffffffffff604051917f9996b315000000000000000000000000000000000000000000000000000000008352166004820152fd5b50803b15612cce56fea26469706673582212205f5b16526737d6f82f2bcddcdd47e57ddd2d559420000ae02510437afcb8c56364736f6c63430008190033","opcodes":"PUSH1 0xA0 DUP1 PUSH1 0x40 MSTORE CALLVALUE PUSH1 0x29 JUMPI ADDRESS PUSH1 0x80 MSTORE PUSH2 0x2D5C SWAP1 DUP2 PUSH2 0x2E DUP3 CODECOPY PUSH1 0x80 MLOAD DUP2 DUP2 DUP2 PUSH2 0x219F ADD MSTORE PUSH2 0x22C0 ADD MSTORE RETURN JUMPDEST PUSH0 DUP1 REVERT INVALID PUSH1 0x80 DUP1 PUSH1 0x40 MSTORE PUSH1 0x4 CALLDATASIZE LT ISZERO PUSH2 0x12 JUMPI PUSH0 DUP1 REVERT JUMPDEST PUSH0 SWAP1 PUSH0 CALLDATALOAD PUSH1 0xE0 SHR SWAP1 DUP2 PUSH4 0xD8E6E2C EQ PUSH2 0x2705 JUMPI POP DUP1 PUSH4 0x4219DC40 EQ PUSH2 0x26B5 JUMPI DUP1 PUSH4 0x4AA06652 EQ PUSH2 0x2523 JUMPI DUP1 PUSH4 0x4F1EF286 EQ PUSH2 0x2219 JUMPI DUP1 PUSH4 0x52D1902D EQ PUSH2 0x215A JUMPI DUP1 PUSH4 0x5568081A EQ PUSH2 0x20A9 JUMPI DUP1 PUSH4 0x6E81221C EQ PUSH2 0x1E04 JUMPI DUP1 PUSH4 0x715018A6 EQ PUSH2 0x1D46 JUMPI DUP1 PUSH4 0x72591BE5 EQ PUSH2 0x1CC6 JUMPI DUP1 PUSH4 0x7442ECA6 EQ PUSH2 0x1632 JUMPI DUP1 PUSH4 0x8DA5CB5B EQ PUSH2 0x15C1 JUMPI DUP1 PUSH4 0x8F2248BC EQ PUSH2 0x146B JUMPI DUP1 PUSH4 0xAD3CB1CC EQ PUSH2 0x137C JUMPI DUP1 PUSH4 0xAE3CCE1C EQ PUSH2 0x127D JUMPI DUP1 PUSH4 0xC4D66DE8 EQ PUSH2 0x1089 JUMPI DUP1 PUSH4 0xE74E9B06 EQ PUSH2 0xA63 JUMPI DUP1 PUSH4 0xEC0CD2EB EQ PUSH2 0x846 JUMPI DUP1 PUSH4 0xF2FDE38B EQ PUSH2 0x7FB JUMPI DUP1 PUSH4 0xF31ABCC4 EQ PUSH2 0x3EC JUMPI PUSH4 0xFE110116 EQ PUSH2 0xFA JUMPI PUSH0 DUP1 REVERT JUMPDEST CALLVALUE PUSH2 0x3E9 JUMPI DUP1 PUSH32 0xFFFFFFFFFFFFFFFFFFFFFFFFFFFFFFFFFFFFFFFFFFFFFFFFFFFFFFFFFFFFFFFC CALLDATASIZE ADD SLT PUSH2 0x3E9 JUMPI PUSH20 0xFFFFFFFFFFFFFFFFFFFFFFFFFFFFFFFFFFFFFFFF DUP1 DUP3 SLOAD AND PUSH1 0x40 MLOAD DUP1 SWAP2 PUSH32 0x89345EFB00000000000000000000000000000000000000000000000000000000 DUP3 MSTORE CALLER PUSH1 0x4 DUP4 ADD MSTORE DUP2 PUSH1 0x24 PUSH1 0x20 SWAP5 DUP6 SWAP4 GAS STATICCALL SWAP1 DUP2 ISZERO PUSH2 0x2F9 JUMPI DUP5 SWAP2 PUSH2 0x3B4 JUMPI JUMPDEST POP ISZERO PUSH2 0x356 JUMPI DUP3 SWAP1 PUSH1 0x40 MLOAD SWAP3 PUSH32 0x902F1AC00000000000000000000000000000000000000000000000000000000 DUP5 MSTORE DUP3 DUP5 PUSH1 0x4 DUP2 CALLER GAS STATICCALL SWAP4 DUP5 ISZERO PUSH2 0x34B JUMPI DUP4 SWAP5 PUSH2 0x304 JUMPI JUMPDEST POP PUSH1 0x40 MLOAD PUSH32 0x67E4AC2C00000000000000000000000000000000000000000000000000000000 DUP2 MSTORE DUP4 DUP2 PUSH1 0x4 DUP2 CALLER GAS STATICCALL SWAP1 DUP2 ISZERO PUSH2 0x2F9 JUMPI DUP5 SWAP2 PUSH2 0x2D7 JUMPI JUMPDEST POP DUP4 JUMPDEST DUP2 MLOAD DUP2 LT ISZERO PUSH2 0x2D3 JUMPI DUP1 DUP5 PUSH2 0x276 DUP6 PUSH2 0x226 DUP10 SWAP6 DUP8 PUSH2 0x2A29 JUMP JUMPDEST MLOAD AND PUSH2 0x232 DUP5 DUP12 PUSH2 0x2A29 JUMP JUMPDEST MLOAD PUSH1 0x40 MLOAD PUSH32 0xA9059CBB00000000000000000000000000000000000000000000000000000000 DUP2 MSTORE CALLER PUSH1 0x4 DUP3 ADD MSTORE PUSH1 0x24 DUP2 ADD SWAP2 SWAP1 SWAP2 MSTORE SWAP5 DUP6 SWAP3 DUP4 SWAP2 SWAP1 DUP3 SWAP1 PUSH1 0x44 DUP3 ADD SWAP1 JUMP JUMPDEST SUB SWAP3 GAS CALL DUP1 ISZERO PUSH2 0x2C8 JUMPI PUSH2 0x28F JUMPI JUMPDEST PUSH1 0x1 SWAP2 POP ADD PUSH2 0x20C JUMP JUMPDEST DUP5 DUP3 DUP2 RETURNDATASIZE DUP4 GT PUSH2 0x2C1 JUMPI JUMPDEST PUSH2 0x2A4 DUP2 DUP4 PUSH2 0x27E3 JUMP JUMPDEST DUP2 ADD SUB SLT PUSH2 0x2BD JUMPI PUSH2 0x2B7 PUSH1 0x1 SWAP3 PUSH2 0x2982 JUMP JUMPDEST POP PUSH2 0x285 JUMP JUMPDEST DUP6 DUP1 REVERT JUMPDEST POP RETURNDATASIZE PUSH2 0x29A JUMP JUMPDEST PUSH1 0x40 MLOAD RETURNDATASIZE DUP9 DUP3 RETURNDATACOPY RETURNDATASIZE SWAP1 REVERT JUMPDEST DUP5 DUP1 RETURN JUMPDEST PUSH2 0x2F3 SWAP2 POP RETURNDATASIZE DUP1 DUP7 DUP4 RETURNDATACOPY PUSH2 0x2EB DUP2 DUP4 PUSH2 0x27E3 JUMP JUMPDEST DUP2 ADD SWAP1 PUSH2 0x29A7 JUMP JUMPDEST PUSH0 PUSH2 0x209 JUMP JUMPDEST PUSH1 0x40 MLOAD RETURNDATASIZE DUP7 DUP3 RETURNDATACOPY RETURNDATASIZE SWAP1 REVERT JUMPDEST SWAP1 SWAP4 POP RETURNDATASIZE DUP1 DUP5 DUP4 RETURNDATACOPY PUSH2 0x316 DUP2 DUP4 PUSH2 0x27E3 JUMP JUMPDEST DUP2 ADD DUP3 DUP3 DUP3 SUB SLT PUSH2 0x347 JUMPI DUP2 MLOAD PUSH8 0xFFFFFFFFFFFFFFFF DUP2 GT PUSH2 0x343 JUMPI PUSH2 0x33C SWAP3 ADD PUSH2 0x2A6A JUMP JUMPDEST SWAP3 PUSH0 PUSH2 0x1CC JUMP JUMPDEST DUP5 DUP1 REVERT JUMPDEST DUP4 DUP1 REVERT JUMPDEST PUSH1 0x40 MLOAD RETURNDATASIZE DUP6 DUP3 RETURNDATACOPY RETURNDATASIZE SWAP1 REVERT JUMPDEST PUSH1 0x64 SWAP1 PUSH1 0x40 MLOAD SWAP1 PUSH32 0x8C379A000000000000000000000000000000000000000000000000000000000 DUP3 MSTORE PUSH1 0x4 DUP3 ADD MSTORE PUSH1 0xA PUSH1 0x24 DUP3 ADD MSTORE PUSH32 0x4F6E6C7920506F6F6C7300000000000000000000000000000000000000000000 PUSH1 0x44 DUP3 ADD MSTORE REVERT JUMPDEST SWAP1 POP DUP2 DUP2 DUP2 RETURNDATASIZE DUP4 GT PUSH2 0x3E2 JUMPI JUMPDEST PUSH2 0x3CB DUP2 DUP4 PUSH2 0x27E3 JUMP JUMPDEST DUP2 ADD SUB SLT PUSH2 0x347 JUMPI PUSH2 0x3DC SWAP1 PUSH2 0x2982 JUMP JUMPDEST PUSH0 PUSH2 0x187 JUMP JUMPDEST POP RETURNDATASIZE PUSH2 0x3C1 JUMP JUMPDEST DUP1 REVERT JUMPDEST POP CALLVALUE PUSH2 0x3E9 JUMPI PUSH1 0x60 PUSH32 0xFFFFFFFFFFFFFFFFFFFFFFFFFFFFFFFFFFFFFFFFFFFFFFFFFFFFFFFFFFFFFFFC CALLDATASIZE ADD SLT PUSH2 0x3E9 JUMPI PUSH1 0x4 CALLDATALOAD SWAP1 PUSH2 0x428 PUSH2 0x2789 JUMP JUMPDEST SWAP2 PUSH2 0x431 PUSH2 0x27AC JUMP JUMPDEST DUP2 ISZERO PUSH2 0x79D JUMPI PUSH1 0x40 MLOAD PUSH32 0xDD62ED3E00000000000000000000000000000000000000000000000000000000 DUP2 MSTORE CALLER PUSH1 0x4 DUP3 ADD MSTORE ADDRESS PUSH1 0x24 DUP3 ADD MSTORE PUSH1 0x20 SWAP5 PUSH20 0xFFFFFFFFFFFFFFFFFFFFFFFFFFFFFFFFFFFFFFFF DUP1 DUP3 AND SWAP5 SWAP1 SWAP3 SWAP1 SWAP2 SWAP1 DUP8 DUP2 PUSH1 0x44 DUP2 DUP10 GAS STATICCALL SWAP1 DUP2 ISZERO PUSH2 0x703 JUMPI SWAP1 DUP4 SWAP2 DUP9 SWAP2 PUSH2 0x76C JUMPI JUMPDEST POP LT PUSH2 0x70E JUMPI PUSH1 0x40 MLOAD PUSH32 0x70A0823100000000000000000000000000000000000000000000000000000000 DUP2 MSTORE CALLER PUSH1 0x4 DUP3 ADD MSTORE DUP8 DUP2 PUSH1 0x24 DUP2 DUP10 GAS STATICCALL SWAP1 DUP2 ISZERO PUSH2 0x703 JUMPI SWAP1 DUP4 SWAP2 DUP9 SWAP2 PUSH2 0x6CE JUMPI JUMPDEST POP LT PUSH2 0x670 JUMPI PUSH1 0x40 MLOAD PUSH32 0x23B872DD00000000000000000000000000000000000000000000000000000000 DUP2 MSTORE CALLER PUSH1 0x4 DUP3 ADD MSTORE PUSH20 0xFFFFFFFFFFFFFFFFFFFFFFFFFFFFFFFFFFFFFFFF SWAP2 SWAP1 SWAP2 AND PUSH1 0x24 DUP3 ADD MSTORE PUSH1 0x44 DUP2 ADD SWAP2 SWAP1 SWAP2 MSTORE DUP6 DUP2 PUSH1 0x64 DUP2 DUP9 DUP9 GAS CALL SWAP1 DUP2 ISZERO PUSH2 0x665 JUMPI DUP6 SWAP2 PUSH2 0x630 JUMPI JUMPDEST POP ISZERO PUSH2 0x5D2 JUMPI DUP4 SWAP5 POP DUP3 EXTCODESIZE ISZERO PUSH2 0x5CD JUMPI PUSH1 0x24 DUP5 SWAP3 DUP4 PUSH1 0x40 MLOAD SWAP6 DUP7 SWAP5 DUP6 SWAP4 PUSH32 0x89AFCB4400000000000000000000000000000000000000000000000000000000 DUP6 MSTORE AND PUSH1 0x4 DUP5 ADD MSTORE GAS CALL DUP1 ISZERO PUSH2 0x5C2 JUMPI PUSH2 0x5B2 JUMPI POP RETURN JUMPDEST PUSH2 0x5BB SWAP1 PUSH2 0x27CF JUMP JUMPDEST PUSH2 0x3E9 JUMPI DUP1 RETURN JUMPDEST PUSH1 0x40 MLOAD RETURNDATASIZE DUP5 DUP3 RETURNDATACOPY RETURNDATASIZE SWAP1 REVERT JUMPDEST POP POP POP REVERT JUMPDEST PUSH1 0x64 DUP6 PUSH1 0x40 MLOAD SWAP1 PUSH32 0x8C379A000000000000000000000000000000000000000000000000000000000 DUP3 MSTORE PUSH1 0x4 DUP3 ADD MSTORE PUSH1 0xF PUSH1 0x24 DUP3 ADD MSTORE PUSH32 0x5472616E73666572206661696C65640000000000000000000000000000000000 PUSH1 0x44 DUP3 ADD MSTORE REVERT JUMPDEST SWAP1 POP DUP6 DUP2 DUP2 RETURNDATASIZE DUP4 GT PUSH2 0x65E JUMPI JUMPDEST PUSH2 0x647 DUP2 DUP4 PUSH2 0x27E3 JUMP JUMPDEST DUP2 ADD SUB SLT PUSH2 0x343 JUMPI PUSH2 0x658 SWAP1 PUSH2 0x2982 JUMP JUMPDEST PUSH0 PUSH2 0x55D JUMP JUMPDEST POP RETURNDATASIZE PUSH2 0x63D JUMP JUMPDEST PUSH1 0x40 MLOAD RETURNDATASIZE DUP8 DUP3 RETURNDATACOPY RETURNDATASIZE SWAP1 REVERT JUMPDEST PUSH1 0x64 DUP8 PUSH1 0x40 MLOAD SWAP1 PUSH32 0x8C379A000000000000000000000000000000000000000000000000000000000 DUP3 MSTORE PUSH1 0x4 DUP3 ADD MSTORE PUSH1 0x14 PUSH1 0x24 DUP3 ADD MSTORE PUSH32 0x496E73756666696369656E742062616C616E6365000000000000000000000000 PUSH1 0x44 DUP3 ADD MSTORE REVERT JUMPDEST DUP1 SWAP3 POP DUP10 DUP1 SWAP3 POP RETURNDATASIZE DUP4 GT PUSH2 0x6FC JUMPI JUMPDEST PUSH2 0x6E7 DUP2 DUP4 PUSH2 0x27E3 JUMP JUMPDEST DUP2 ADD SUB SLT PUSH2 0x6F8 JUMPI DUP3 SWAP1 MLOAD PUSH0 PUSH2 0x4EE JUMP JUMPDEST PUSH0 DUP1 REVERT JUMPDEST POP RETURNDATASIZE PUSH2 0x6DD JUMP JUMPDEST PUSH1 0x40 MLOAD RETURNDATASIZE DUP10 DUP3 RETURNDATACOPY RETURNDATASIZE SWAP1 REVERT JUMPDEST PUSH1 0x64 DUP8 PUSH1 0x40 MLOAD SWAP1 PUSH32 0x8C379A000000000000000000000000000000000000000000000000000000000 DUP3 MSTORE PUSH1 0x4 DUP3 ADD MSTORE PUSH1 0x16 PUSH1 0x24 DUP3 ADD MSTORE PUSH32 0x496E73756666696369656E7420616C6C6F77616E636500000000000000000000 PUSH1 0x44 DUP3 ADD MSTORE REVERT JUMPDEST DUP1 SWAP3 POP DUP10 DUP1 SWAP3 POP RETURNDATASIZE DUP4 GT PUSH2 0x796 JUMPI JUMPDEST PUSH2 0x785 DUP2 DUP4 PUSH2 0x27E3 JUMP JUMPDEST DUP2 ADD SUB SLT PUSH2 0x6F8 JUMPI DUP3 SWAP1 MLOAD PUSH0 PUSH2 0x4A3 JUMP JUMPDEST POP RETURNDATASIZE PUSH2 0x77B JUMP JUMPDEST PUSH1 0x64 PUSH1 0x40 MLOAD PUSH32 0x8C379A000000000000000000000000000000000000000000000000000000000 DUP2 MSTORE PUSH1 0x20 PUSH1 0x4 DUP3 ADD MSTORE PUSH1 0x1F PUSH1 0x24 DUP3 ADD MSTORE PUSH32 0x5368617265206D7573742062652067726561746572207468616E207A65726F00 PUSH1 0x44 DUP3 ADD MSTORE REVERT JUMPDEST POP CALLVALUE PUSH2 0x3E9 JUMPI PUSH1 0x20 PUSH32 0xFFFFFFFFFFFFFFFFFFFFFFFFFFFFFFFFFFFFFFFFFFFFFFFFFFFFFFFFFFFFFFFC CALLDATASIZE ADD SLT PUSH2 0x3E9 JUMPI PUSH2 0x843 PUSH2 0x836 PUSH2 0x2766 JUMP JUMPDEST PUSH2 0x83E PUSH2 0x2BBD JUMP JUMPDEST PUSH2 0x2AFC JUMP JUMPDEST DUP1 RETURN JUMPDEST POP CALLVALUE PUSH2 0x3E9 JUMPI PUSH1 0x60 PUSH32 0xFFFFFFFFFFFFFFFFFFFFFFFFFFFFFFFFFFFFFFFFFFFFFFFFFFFFFFFFFFFFFFFC CALLDATASIZE ADD SLT PUSH2 0x3E9 JUMPI PUSH1 0x4 CALLDATALOAD PUSH8 0xFFFFFFFFFFFFFFFF DUP2 GT PUSH2 0xA5F JUMPI PUSH2 0x896 SWAP1 CALLDATASIZE SWAP1 PUSH1 0x4 ADD PUSH2 0x28CB JUMP JUMPDEST SWAP1 SWAP2 PUSH2 0x8A0 PUSH2 0x2789 JUMP JUMPDEST SWAP2 PUSH2 0x8A9 PUSH2 0x27AC JUMP JUMPDEST SWAP3 PUSH20 0xFFFFFFFFFFFFFFFFFFFFFFFFFFFFFFFFFFFFFFFF DUP1 SWAP2 AND PUSH1 0x40 MLOAD SWAP1 PUSH32 0x67E4AC2C00000000000000000000000000000000000000000000000000000000 DUP3 MSTORE DUP5 DUP3 PUSH1 0x4 DUP2 DUP5 GAS STATICCALL SWAP2 DUP3 ISZERO PUSH2 0x665 JUMPI DUP6 SWAP3 PUSH2 0xA43 JUMPI JUMPDEST POP DUP5 JUMPDEST DUP3 MLOAD DUP2 LT ISZERO PUSH2 0x9D3 JUMPI DUP4 PUSH2 0x916 DUP3 DUP6 PUSH2 0x2A29 JUMP JUMPDEST MLOAD AND PUSH2 0x974 PUSH2 0x926 DUP4 DUP9 DUP13 PUSH2 0x2ACB JUMP JUMPDEST PUSH1 0x40 MLOAD PUSH32 0x23B872DD00000000000000000000000000000000000000000000000000000000 DUP2 MSTORE CALLER PUSH1 0x4 DUP3 ADD MSTORE ADDRESS PUSH1 0x24 DUP3 ADD MSTORE SWAP1 CALLDATALOAD PUSH1 0x44 DUP3 ADD MSTORE SWAP2 PUSH1 0x20 SWAP2 DUP3 SWAP2 DUP5 SWAP2 DUP3 SWAP1 DUP13 SWAP1 DUP3 SWAP1 PUSH1 0x64 DUP3 ADD SWAP1 JUMP JUMPDEST SUB SWAP3 GAS CALL DUP1 ISZERO PUSH2 0x9C8 JUMPI PUSH2 0x98D JUMPI JUMPDEST POP POP PUSH1 0x1 ADD PUSH2 0x902 JUMP JUMPDEST DUP2 DUP2 RETURNDATASIZE DUP4 GT PUSH2 0x9C1 JUMPI JUMPDEST PUSH2 0x9A1 DUP2 DUP4 PUSH2 0x27E3 JUMP JUMPDEST DUP2 ADD SUB SLT PUSH2 0x9BD JUMPI SWAP1 PUSH2 0x9B5 PUSH1 0x1 SWAP3 PUSH2 0x2982 JUMP JUMPDEST POP SWAP1 PUSH0 PUSH2 0x983 JUMP JUMPDEST DUP7 DUP1 REVERT JUMPDEST POP RETURNDATASIZE PUSH2 0x997 JUMP JUMPDEST PUSH1 0x40 MLOAD RETURNDATASIZE DUP11 DUP3 RETURNDATACOPY RETURNDATASIZE SWAP1 REVERT JUMPDEST PUSH1 0x40 MLOAD PUSH32 0x6A62784200000000000000000000000000000000000000000000000000000000 DUP2 MSTORE DUP8 DUP6 AND PUSH1 0x4 DUP3 ADD MSTORE DUP7 SWAP1 PUSH1 0x20 DUP2 PUSH1 0x24 DUP2 DUP6 DUP9 GAS CALL DUP1 ISZERO PUSH2 0x5C2 JUMPI PUSH2 0xA1B JUMPI POP DUP1 RETURN JUMPDEST PUSH1 0x20 SWAP1 DUP2 RETURNDATASIZE DUP4 GT PUSH2 0xA3C JUMPI JUMPDEST PUSH2 0xA31 DUP2 DUP4 PUSH2 0x27E3 JUMP JUMPDEST DUP2 ADD SUB SLT PUSH2 0x6F8 JUMPI DUP1 RETURN JUMPDEST POP RETURNDATASIZE PUSH2 0xA27 JUMP JUMPDEST PUSH2 0xA58 SWAP2 SWAP3 POP RETURNDATASIZE DUP1 DUP8 DUP4 RETURNDATACOPY PUSH2 0x2EB DUP2 DUP4 PUSH2 0x27E3 JUMP JUMPDEST SWAP1 PUSH0 PUSH2 0x8FF JUMP JUMPDEST POP DUP1 REVERT JUMPDEST POP CALLVALUE PUSH2 0x3E9 JUMPI PUSH1 0x80 PUSH32 0xFFFFFFFFFFFFFFFFFFFFFFFFFFFFFFFFFFFFFFFFFFFFFFFFFFFFFFFFFFFFFFFC CALLDATASIZE ADD SLT PUSH2 0x3E9 JUMPI PUSH8 0xFFFFFFFFFFFFFFFF PUSH1 0x4 CALLDATALOAD DUP2 DUP2 GT PUSH2 0x1085 JUMPI PUSH2 0xAB4 SWAP1 CALLDATASIZE SWAP1 PUSH1 0x4 ADD PUSH2 0x28CB JUMP JUMPDEST SWAP1 SWAP2 PUSH1 0x24 CALLDATALOAD DUP2 DUP2 GT PUSH2 0x343 JUMPI PUSH2 0xACE SWAP1 CALLDATASIZE SWAP1 PUSH1 0x4 ADD PUSH2 0x28CB JUMP JUMPDEST SWAP2 PUSH1 0x44 CALLDATALOAD DUP2 DUP2 GT PUSH2 0x9BD JUMPI PUSH2 0xAE7 SWAP1 CALLDATASIZE SWAP1 PUSH1 0x4 ADD PUSH2 0x28CB JUMP JUMPDEST SWAP1 SWAP2 PUSH1 0x64 CALLDATALOAD SWAP1 DUP2 GT PUSH2 0x1081 JUMPI PUSH2 0xB01 SWAP1 CALLDATASIZE SWAP1 PUSH1 0x4 ADD PUSH2 0x28CB JUMP JUMPDEST SWAP3 DUP6 DUP8 EQ DUP1 PUSH2 0x1078 JUMPI JUMPDEST DUP1 PUSH2 0x106F JUMPI JUMPDEST ISZERO PUSH2 0x1011 JUMPI PUSH2 0xB25 DUP8 SWAP10 SWAP8 SWAP9 SWAP7 SWAP6 SWAP9 PUSH2 0x298F JUMP JUMPDEST SWAP8 PUSH2 0xB33 PUSH1 0x40 MLOAD SWAP10 DUP11 PUSH2 0x27E3 JUMP JUMPDEST DUP10 DUP10 MSTORE PUSH32 0xFFFFFFFFFFFFFFFFFFFFFFFFFFFFFFFFFFFFFFFFFFFFFFFFFFFFFFFFFFFFFFE0 PUSH2 0xB60 DUP12 PUSH2 0x298F JUMP JUMPDEST ADD CALLDATASIZE PUSH1 0x20 DUP12 ADD CALLDATACOPY DUP8 SWAP10 JUMPDEST DUP1 DUP12 LT PUSH2 0xBB7 JUMPI DUP10 DUP10 PUSH1 0x40 MLOAD SWAP2 DUP3 SWAP2 PUSH1 0x20 DUP4 ADD PUSH1 0x20 DUP5 MSTORE DUP3 MLOAD DUP1 SWAP2 MSTORE PUSH1 0x20 PUSH1 0x40 DUP6 ADD SWAP4 ADD SWAP2 JUMPDEST DUP2 DUP2 LT PUSH2 0xB9E JUMPI POP POP POP SUB SWAP1 RETURN JUMPDEST DUP3 MLOAD DUP5 MSTORE DUP6 SWAP5 POP PUSH1 0x20 SWAP4 DUP5 ADD SWAP4 SWAP1 SWAP3 ADD SWAP2 PUSH1 0x1 ADD PUSH2 0xB90 JUMP JUMPDEST DUP11 DUP10 PUSH1 0x20 PUSH2 0xC59 PUSH20 0xFFFFFFFFFFFFFFFFFFFFFFFFFFFFFFFFFFFFFFFF DUP4 SWAP16 DUP14 SWAP16 SWAP15 SWAP13 SWAP14 DUP2 DUP9 PUSH2 0xC00 SWAP3 PUSH2 0xBFB DUP16 PUSH2 0xC05 SWAP7 DUP16 SWAP2 PUSH2 0xBF3 SWAP3 PUSH2 0x2ACB JUMP JUMPDEST CALLDATALOAD ISZERO ISZERO PUSH2 0x291D JUMP JUMPDEST PUSH2 0x2ACB JUMP JUMPDEST PUSH2 0x2ADB JUMP JUMPDEST AND PUSH2 0xC11 DUP6 DUP12 DUP11 PUSH2 0x2ACB JUMP JUMPDEST PUSH1 0x40 MLOAD PUSH32 0x23B872DD00000000000000000000000000000000000000000000000000000000 DUP2 MSTORE CALLER PUSH1 0x4 DUP3 ADD MSTORE ADDRESS PUSH1 0x24 DUP3 ADD MSTORE SWAP1 CALLDATALOAD PUSH1 0x44 DUP3 ADD MSTORE SWAP4 DUP5 SWAP3 DUP4 SWAP2 SWAP1 DUP3 SWAP1 PUSH1 0x64 DUP3 ADD SWAP1 JUMP JUMPDEST SUB SWAP3 GAS CALL SWAP1 DUP2 ISZERO PUSH2 0xED1 JUMPI DUP3 DUP5 DUP12 DUP16 SWAP4 DUP15 SWAP6 PUSH2 0xF9A JUMPI JUMPDEST POP PUSH2 0xC00 DUP4 PUSH2 0xCA5 PUSH2 0xC00 PUSH2 0xD06 SWAP9 SWAP7 PUSH1 0x20 SWAP9 SWAP7 PUSH20 0xFFFFFFFFFFFFFFFFFFFFFFFFFFFFFFFFFFFFFFFF PUSH2 0xCAC SWAP8 SLOAD AND SWAP8 PUSH2 0x2ACB JUMP JUMPDEST SWAP5 DUP11 PUSH2 0x2ACB JUMP JUMPDEST PUSH1 0x40 MLOAD PUSH32 0x2D5E94A700000000000000000000000000000000000000000000000000000000 DUP2 MSTORE PUSH20 0xFFFFFFFFFFFFFFFFFFFFFFFFFFFFFFFFFFFFFFFF SWAP4 DUP5 AND PUSH1 0x4 DUP3 ADD MSTORE SWAP3 AND PUSH1 0x24 DUP4 ADD MSTORE SWAP1 SWAP3 DUP4 SWAP2 SWAP1 DUP3 SWAP1 DUP2 SWAP1 PUSH1 0x44 DUP3 ADD SWAP1 JUMP JUMPDEST SUB SWAP2 GAS STATICCALL SWAP1 DUP2 ISZERO PUSH2 0xED1 JUMPI DUP3 DUP5 DUP15 DUP13 SWAP4 DUP5 SWAP6 PUSH2 0xF2C JUMPI JUMPDEST POP PUSH2 0xD46 PUSH2 0xC00 PUSH1 0x20 SWAP5 PUSH2 0xDAA SWAP5 PUSH20 0xFFFFFFFFFFFFFFFFFFFFFFFFFFFFFFFFFFFFFFFF SWAP5 PUSH2 0x2ACB JUMP JUMPDEST AND PUSH2 0xD52 DUP7 DUP13 DUP12 PUSH2 0x2ACB JUMP JUMPDEST PUSH1 0x40 MLOAD PUSH32 0x95EA7B300000000000000000000000000000000000000000000000000000000 DUP2 MSTORE PUSH20 0xFFFFFFFFFFFFFFFFFFFFFFFFFFFFFFFFFFFFFFFF DUP8 AND PUSH1 0x4 DUP3 ADD MSTORE SWAP1 CALLDATALOAD PUSH1 0x24 DUP3 ADD MSTORE SWAP4 DUP5 SWAP3 DUP4 SWAP2 SWAP1 DUP3 SWAP1 PUSH1 0x44 DUP3 ADD SWAP1 JUMP JUMPDEST SUB SWAP3 GAS CALL DUP1 ISZERO PUSH2 0xF21 JUMPI DUP5 DUP15 DUP6 SWAP3 PUSH2 0xEDC JUMPI JUMPDEST PUSH2 0xDC7 SWAP4 POP PUSH2 0x2ACB JUMP JUMPDEST PUSH2 0xDD0 SWAP1 PUSH2 0x2ADB JUMP JUMPDEST SWAP1 PUSH2 0xDDC DUP4 DUP13 DUP8 PUSH2 0x2ACB JUMP JUMPDEST PUSH2 0xDE5 SWAP1 PUSH2 0x2ADB JUMP JUMPDEST PUSH2 0xDF0 DUP5 DUP11 DUP10 PUSH2 0x2ACB JUMP JUMPDEST CALLDATALOAD SWAP1 PUSH2 0xDFD DUP6 DUP13 DUP12 PUSH2 0x2ACB JUMP JUMPDEST PUSH2 0xE06 SWAP1 PUSH2 0x2ADB JUMP JUMPDEST PUSH1 0x40 MLOAD PUSH32 0x6E81221C00000000000000000000000000000000000000000000000000000000 DUP2 MSTORE PUSH20 0xFFFFFFFFFFFFFFFFFFFFFFFFFFFFFFFFFFFFFFFF SWAP6 DUP7 AND PUSH1 0x4 DUP3 ADD MSTORE SWAP2 DUP6 AND PUSH1 0x24 DUP4 ADD MSTORE PUSH1 0x44 DUP3 ADD SWAP3 SWAP1 SWAP3 MSTORE SWAP1 DUP4 AND PUSH1 0x64 DUP3 ADD MSTORE SWAP2 AND DUP2 PUSH1 0x84 DUP2 DUP13 GAS SWAP5 PUSH1 0x20 SWAP6 CALL SWAP1 DUP2 ISZERO PUSH2 0xED1 JUMPI DUP10 SWAP2 PUSH2 0xE99 JUMPI JUMPDEST POP SWAP1 PUSH1 0x1 SWAP2 PUSH2 0xE8B DUP3 DUP14 PUSH2 0x2A29 JUMP JUMPDEST MSTORE ADD SWAP11 POP SWAP9 SWAP7 SWAP6 SWAP8 SWAP9 PUSH2 0xB6A JUMP JUMPDEST SWAP2 SWAP9 POP POP PUSH1 0x20 DUP2 RETURNDATASIZE PUSH1 0x20 GT PUSH2 0xEC9 JUMPI JUMPDEST DUP2 PUSH2 0xEB6 PUSH1 0x20 SWAP4 DUP4 PUSH2 0x27E3 JUMP JUMPDEST DUP2 ADD SUB SLT PUSH2 0x6F8 JUMPI MLOAD DUP12 SWAP8 SWAP1 PUSH1 0x1 PUSH2 0xE7C JUMP JUMPDEST RETURNDATASIZE SWAP2 POP PUSH2 0xEA9 JUMP JUMPDEST PUSH1 0x40 MLOAD RETURNDATASIZE DUP12 DUP3 RETURNDATACOPY RETURNDATASIZE SWAP1 REVERT JUMPDEST POP POP POP PUSH1 0x20 DUP2 RETURNDATASIZE PUSH1 0x20 GT PUSH2 0xF19 JUMPI JUMPDEST DUP2 PUSH2 0xEF8 PUSH1 0x20 SWAP4 DUP4 PUSH2 0x27E3 JUMP JUMPDEST DUP2 ADD SUB SLT PUSH2 0xF15 JUMPI DUP3 DUP5 DUP15 PUSH2 0xF0F PUSH2 0xDC7 SWAP5 PUSH2 0x2982 JUMP JUMPDEST POP PUSH2 0xDBD JUMP JUMPDEST DUP10 DUP1 REVERT JUMPDEST RETURNDATASIZE SWAP2 POP PUSH2 0xEEB JUMP JUMPDEST PUSH1 0x40 MLOAD RETURNDATASIZE DUP13 DUP3 RETURNDATACOPY RETURNDATASIZE SWAP1 REVERT JUMPDEST SWAP5 POP POP POP POP POP PUSH1 0x20 DUP2 RETURNDATASIZE PUSH1 0x20 GT PUSH2 0xF92 JUMPI JUMPDEST DUP2 PUSH2 0xF4B PUSH1 0x20 SWAP4 DUP4 PUSH2 0x27E3 JUMP JUMPDEST DUP2 ADD SUB SLT PUSH2 0xF8E JUMPI DUP9 PUSH1 0x20 PUSH2 0xDAA PUSH20 0xFFFFFFFFFFFFFFFFFFFFFFFFFFFFFFFFFFFFFFFF DUP16 SWAP5 PUSH2 0xC00 DUP8 DUP10 PUSH2 0xF81 PUSH2 0xD46 SWAP5 PUSH2 0x28FC JUMP JUMPDEST SWAP9 SWAP5 POP SWAP5 POP SWAP5 POP POP PUSH2 0xD1D JUMP JUMPDEST DUP9 DUP1 REVERT JUMPDEST RETURNDATASIZE SWAP2 POP PUSH2 0xF3E JUMP JUMPDEST SWAP5 POP POP POP POP POP PUSH1 0x20 DUP2 RETURNDATASIZE PUSH1 0x20 GT PUSH2 0x1009 JUMPI JUMPDEST DUP2 PUSH2 0xFB9 PUSH1 0x20 SWAP4 DUP4 PUSH2 0x27E3 JUMP JUMPDEST DUP2 ADD SUB SLT PUSH2 0xF8E JUMPI PUSH1 0x20 DUP11 DUP14 PUSH2 0xCAC PUSH2 0xC00 DUP7 PUSH2 0xCA5 DUP16 DUP3 DUP12 PUSH20 0xFFFFFFFFFFFFFFFFFFFFFFFFFFFFFFFFFFFFFFFF PUSH2 0xC00 SWAP4 PUSH2 0xFF7 PUSH2 0xD06 SWAP14 PUSH2 0x2982 JUMP JUMPDEST POP SWAP8 POP POP SWAP7 SWAP9 POP POP POP POP SWAP4 SWAP6 POP PUSH2 0xC70 JUMP JUMPDEST RETURNDATASIZE SWAP2 POP PUSH2 0xFAC JUMP JUMPDEST PUSH1 0x64 PUSH1 0x40 MLOAD PUSH32 0x8C379A000000000000000000000000000000000000000000000000000000000 DUP2 MSTORE PUSH1 0x20 PUSH1 0x4 DUP3 ADD MSTORE PUSH1 0x1C PUSH1 0x24 DUP3 ADD MSTORE PUSH32 0x496E70757420617272617973206C656E677468206D69736D6174636800000000 PUSH1 0x44 DUP3 ADD MSTORE REVERT JUMPDEST POP DUP4 DUP4 EQ PUSH2 0xB11 JUMP JUMPDEST POP DUP3 DUP7 EQ PUSH2 0xB0B JUMP JUMPDEST DUP8 DUP1 REVERT JUMPDEST DUP3 DUP1 REVERT JUMPDEST POP CALLVALUE PUSH2 0x3E9 JUMPI PUSH1 0x20 PUSH32 0xFFFFFFFFFFFFFFFFFFFFFFFFFFFFFFFFFFFFFFFFFFFFFFFFFFFFFFFFFFFFFFFC CALLDATASIZE ADD SLT PUSH2 0x3E9 JUMPI PUSH2 0x10C1 PUSH2 0x2766 JUMP JUMPDEST PUSH32 0xF0C57E16840DF040F15088DC2F81FE391C3923BEC73E23A9662EFC9C229C6A00 SWAP1 DUP2 SLOAD PUSH1 0xFF DUP2 PUSH1 0x40 SHR AND ISZERO SWAP2 PUSH8 0xFFFFFFFFFFFFFFFF DUP3 AND DUP1 ISZERO SWAP1 DUP2 PUSH2 0x1275 JUMPI JUMPDEST PUSH1 0x1 EQ SWAP1 DUP2 PUSH2 0x126B JUMPI JUMPDEST ISZERO SWAP1 DUP2 PUSH2 0x1262 JUMPI JUMPDEST POP PUSH2 0x1238 JUMPI DUP2 DUP4 PUSH1 0x1 PUSH32 0xFFFFFFFFFFFFFFFFFFFFFFFFFFFFFFFFFFFFFFFFFFFFFFFF0000000000000000 PUSH20 0xFFFFFFFFFFFFFFFFFFFFFFFFFFFFFFFFFFFFFFFF SWAP6 AND OR DUP7 SSTORE PUSH2 0x1203 JUMPI JUMPDEST POP PUSH2 0x1166 PUSH2 0x2C2D JUMP JUMPDEST PUSH2 0x116E PUSH2 0x2C2D JUMP JUMPDEST PUSH2 0x1176 PUSH2 0x2C2D JUMP JUMPDEST PUSH2 0x117F CALLER PUSH2 0x2AFC JUMP JUMPDEST AND PUSH32 0xFFFFFFFFFFFFFFFFFFFFFFFF0000000000000000000000000000000000000000 DUP5 SLOAD AND OR DUP4 SSTORE PUSH2 0x11AF JUMPI POP DUP1 RETURN JUMPDEST PUSH32 0xFFFFFFFFFFFFFFFFFFFFFFFFFFFFFFFFFFFFFFFFFFFFFF00FFFFFFFFFFFFFFFF DUP2 SLOAD AND SWAP1 SSTORE PUSH32 0xC7F505B2F371AE2175EE4913F4499E1F2633A7B5936321EED1CDAEB6115181D2 PUSH1 0x20 PUSH1 0x40 MLOAD PUSH1 0x1 DUP2 MSTORE LOG1 DUP1 RETURN JUMPDEST PUSH32 0xFFFFFFFFFFFFFFFFFFFFFFFFFFFFFFFFFFFFFFFFFFFFFF000000000000000000 AND PUSH9 0x10000000000000001 OR DUP5 SSTORE PUSH0 PUSH2 0x115D JUMP JUMPDEST PUSH1 0x4 PUSH1 0x40 MLOAD PUSH32 0xF92EE8A900000000000000000000000000000000000000000000000000000000 DUP2 MSTORE REVERT JUMPDEST SWAP1 POP ISZERO PUSH0 PUSH2 0x1114 JUMP JUMPDEST ADDRESS EXTCODESIZE ISZERO SWAP2 POP PUSH2 0x110C JUMP JUMPDEST DUP5 SWAP2 POP PUSH2 0x1102 JUMP JUMPDEST POP CALLVALUE PUSH2 0x3E9 JUMPI PUSH1 0x20 DUP1 PUSH32 0xFFFFFFFFFFFFFFFFFFFFFFFFFFFFFFFFFFFFFFFFFFFFFFFFFFFFFFFFFFFFFFFC CALLDATASIZE ADD SLT PUSH2 0xA5F JUMPI PUSH2 0x12B6 PUSH2 0x2766 JUMP JUMPDEST PUSH20 0xFFFFFFFFFFFFFFFFFFFFFFFFFFFFFFFFFFFFFFFF SWAP3 DUP1 DUP5 PUSH1 0x24 DUP2 DUP4 SLOAD AND SWAP5 PUSH1 0x40 MLOAD SWAP6 DUP7 SWAP4 DUP5 SWAP3 PUSH32 0xB4340E6A00000000000000000000000000000000000000000000000000000000 DUP5 MSTORE AND PUSH1 0x4 DUP4 ADD MSTORE GAS STATICCALL SWAP2 DUP3 ISZERO PUSH2 0x136F JUMPI DUP2 SWAP3 PUSH2 0x1353 JUMPI JUMPDEST POP PUSH1 0x40 MLOAD SWAP3 DUP1 DUP5 ADD SWAP1 DUP1 DUP6 MSTORE DUP4 MLOAD DUP1 SWAP3 MSTORE DUP1 PUSH1 0x40 DUP7 ADD SWAP5 ADD SWAP3 JUMPDEST DUP3 DUP2 LT PUSH2 0x133D JUMPI DUP6 DUP6 SUB DUP7 RETURN JUMPDEST DUP4 MLOAD DUP8 AND DUP6 MSTORE SWAP4 DUP2 ADD SWAP4 SWAP3 DUP2 ADD SWAP3 PUSH1 0x1 ADD PUSH2 0x1330 JUMP JUMPDEST PUSH2 0x1368 SWAP2 SWAP3 POP RETURNDATASIZE DUP1 DUP5 DUP4 RETURNDATACOPY PUSH2 0x2EB DUP2 DUP4 PUSH2 0x27E3 JUMP JUMPDEST SWAP1 PUSH0 PUSH2 0x1316 JUMP JUMPDEST POP PUSH1 0x40 MLOAD SWAP1 RETURNDATASIZE SWAP1 DUP3 RETURNDATACOPY RETURNDATASIZE SWAP1 REVERT JUMPDEST POP CALLVALUE PUSH2 0x3E9 JUMPI DUP1 PUSH32 0xFFFFFFFFFFFFFFFFFFFFFFFFFFFFFFFFFFFFFFFFFFFFFFFFFFFFFFFFFFFFFFFC CALLDATASIZE ADD SLT PUSH2 0x3E9 JUMPI PUSH1 0x40 MLOAD PUSH1 0x40 DUP2 ADD SWAP1 DUP1 DUP3 LT PUSH8 0xFFFFFFFFFFFFFFFF DUP4 GT OR PUSH2 0x143E JUMPI PUSH1 0x40 SWAP2 DUP3 MSTORE PUSH1 0x5 DUP2 MSTORE PUSH32 0xFFFFFFFFFFFFFFFFFFFFFFFFFFFFFFFFFFFFFFFFFFFFFFFFFFFFFFFFFFFFFFE0 PUSH1 0x1F PUSH1 0x20 DUP4 ADD PUSH32 0x352E302E30000000000000000000000000000000000000000000000000000000 DUP2 MSTORE DUP5 MLOAD SWAP6 DUP7 SWAP5 PUSH1 0x20 DUP7 MSTORE MLOAD DUP1 SWAP3 DUP2 PUSH1 0x20 DUP9 ADD MSTORE DUP8 DUP8 ADD MCOPY DUP6 DUP3 DUP7 ADD ADD MSTORE ADD AND DUP2 ADD SUB ADD SWAP1 RETURN JUMPDEST PUSH32 0x4E487B7100000000000000000000000000000000000000000000000000000000 PUSH0 MSTORE PUSH1 0x41 PUSH1 0x4 MSTORE PUSH1 0x24 PUSH0 REVERT JUMPDEST POP CALLVALUE PUSH2 0x3E9 JUMPI PUSH1 0x40 PUSH32 0xFFFFFFFFFFFFFFFFFFFFFFFFFFFFFFFFFFFFFFFFFFFFFFFFFFFFFFFFFFFFFFFC CALLDATASIZE ADD SLT PUSH2 0x3E9 JUMPI PUSH2 0x14A3 PUSH2 0x2766 JUMP JUMPDEST PUSH1 0x24 CALLDATALOAD SWAP1 PUSH8 0xFFFFFFFFFFFFFFFF SWAP2 DUP3 DUP2 AND DUP1 SWAP2 SUB PUSH2 0x347 JUMPI PUSH32 0xF0C57E16840DF040F15088DC2F81FE391C3923BEC73E23A9662EFC9C229C6A00 DUP1 SLOAD SWAP4 DUP3 PUSH1 0xFF DUP7 PUSH1 0x40 SHR AND SWAP2 DUP3 ISZERO PUSH2 0x15B4 JUMPI JUMPDEST POP POP PUSH2 0x1238 JUMPI PUSH32 0xFFFFFFFFFFFFFFFFFFFFFFFFFFFFFFFFFFFFFFFFFFFFFF00FFFFFFFFFFFFFFFF PUSH9 0x10000000000000000 DUP4 PUSH32 0xFFFFFFFFFFFFFFFFFFFFFFFFFFFFFFFFFFFFFFFFFFFFFF000000000000000000 PUSH32 0xC7F505B2F371AE2175EE4913F4499E1F2633A7B5936321EED1CDAEB6115181D2 SWAP8 PUSH20 0xFFFFFFFFFFFFFFFFFFFFFFFFFFFFFFFFFFFFFFFF PUSH1 0x20 SWAP9 AND PUSH32 0xFFFFFFFFFFFFFFFFFFFFFFFF0000000000000000000000000000000000000000 PUSH0 SLOAD AND OR PUSH0 SSTORE AND OR OR AND SWAP1 SSTORE PUSH1 0x40 MLOAD SWAP1 DUP2 MSTORE LOG1 DUP1 RETURN JUMPDEST DUP7 AND LT ISZERO SWAP1 POP DUP3 PUSH0 PUSH2 0x14EF JUMP JUMPDEST POP CALLVALUE PUSH2 0x3E9 JUMPI DUP1 PUSH32 0xFFFFFFFFFFFFFFFFFFFFFFFFFFFFFFFFFFFFFFFFFFFFFFFFFFFFFFFFFFFFFFFC CALLDATASIZE ADD SLT PUSH2 0x3E9 JUMPI PUSH1 0x20 PUSH20 0xFFFFFFFFFFFFFFFFFFFFFFFFFFFFFFFFFFFFFFFF PUSH32 0x9016D09D72D40FDAE2FD8CEAC6B6234C7706214FD39C1CD1E609A0528C199300 SLOAD AND PUSH1 0x40 MLOAD SWAP1 DUP2 MSTORE RETURN JUMPDEST POP CALLVALUE PUSH2 0x3E9 JUMPI PUSH1 0x24 PUSH2 0x1643 CALLDATASIZE PUSH2 0x285E JUMP JUMPDEST PUSH2 0x1652 DUP3 SWAP6 SWAP5 SWAP4 SWAP3 ISZERO ISZERO PUSH2 0x291D JUMP JUMPDEST DUP6 PUSH20 0xFFFFFFFFFFFFFFFFFFFFFFFFFFFFFFFFFFFFFFFF DUP2 SLOAD AND PUSH1 0x40 MLOAD SWAP6 DUP7 DUP1 SWAP3 PUSH32 0xB4340E6A00000000000000000000000000000000000000000000000000000000 DUP3 MSTORE PUSH20 0xFFFFFFFFFFFFFFFFFFFFFFFFFFFFFFFFFFFFFFFF DUP9 AND PUSH1 0x4 DUP4 ADD MSTORE GAS STATICCALL SWAP4 DUP5 ISZERO PUSH2 0x2C8 JUMPI DUP7 SWAP5 PUSH2 0x1CAA JUMPI JUMPDEST POP SWAP1 SWAP4 SWAP2 DUP6 SWAP1 DUP2 SWAP1 DUP2 JUMPDEST DUP7 MLOAD DUP5 LT ISZERO PUSH2 0x1A04 JUMPI PUSH20 0xFFFFFFFFFFFFFFFFFFFFFFFFFFFFFFFFFFFFFFFF PUSH2 0x16F3 DUP6 DUP10 PUSH2 0x2A29 JUMP JUMPDEST MLOAD AND SWAP8 PUSH1 0x40 MLOAD SWAP6 PUSH32 0x89AB353200000000000000000000000000000000000000000000000000000000 DUP8 MSTORE DUP11 DUP8 PUSH1 0x4 DUP2 DUP14 GAS STATICCALL SWAP7 DUP8 ISZERO PUSH2 0x19F9 JUMPI DUP12 SWAP8 PUSH2 0x192A JUMPI JUMPDEST POP PUSH1 0x4 SWAP5 SWAP6 SWAP7 SWAP8 DUP12 DUP12 PUSH1 0x40 MLOAD SWAP8 DUP9 DUP1 SWAP3 PUSH32 0x36BF6E3900000000000000000000000000000000000000000000000000000000 DUP3 MSTORE GAS STATICCALL SWAP6 DUP7 ISZERO PUSH2 0x191F JUMPI DUP13 SWAP7 PUSH2 0x18D8 JUMPI JUMPDEST POP DUP12 JUMPDEST DUP13 DUP11 MLOAD DUP3 LT ISZERO PUSH2 0x18C4 JUMPI PUSH1 0x24 PUSH1 0x40 DUP15 DUP2 MLOAD SWAP3 DUP4 DUP1 SWAP3 PUSH32 0xD14EF46D00000000000000000000000000000000000000000000000000000000 DUP3 MSTORE DUP8 PUSH1 0x4 DUP4 ADD MSTORE GAS STATICCALL SWAP2 DUP3 ISZERO PUSH2 0x18B8 JUMPI SWAP2 PUSH2 0x1850 JUMPI JUMPDEST POP PUSH20 0xFFFFFFFFFFFFFFFFFFFFFFFFFFFFFFFFFFFFFFFF DUP1 DUP9 AND SWAP2 MLOAD AND EQ PUSH2 0x17F0 JUMPI JUMPDEST PUSH1 0x1 ADD PUSH2 0x1779 JUMP JUMPDEST PUSH2 0x17FA DUP2 DUP9 PUSH2 0x2A29 JUMP JUMPDEST MLOAD PUSH2 0x1805 DUP3 DUP13 PUSH2 0x2A29 JUMP JUMPDEST MLOAD ISZERO ISZERO DUP1 PUSH2 0x1847 JUMPI JUMPDEST PUSH2 0x1819 JUMPI JUMPDEST POP PUSH2 0x17E8 JUMP JUMPDEST SWAP8 POP SWAP4 POP PUSH1 0x1 PUSH20 0xFFFFFFFFFFFFFFFFFFFFFFFFFFFFFFFFFFFFFFFF PUSH2 0x183E DUP11 DUP14 PUSH2 0x2A29 JUMP JUMPDEST MLOAD AND SWAP5 SWAP1 PUSH2 0x1813 JUMP JUMPDEST POP DUP9 DUP2 GT PUSH2 0x180E JUMP JUMPDEST SWAP1 POP PUSH1 0x40 DUP2 RETURNDATASIZE PUSH1 0x40 GT PUSH2 0x18B0 JUMPI JUMPDEST DUP2 PUSH2 0x186B PUSH1 0x40 SWAP4 DUP4 PUSH2 0x27E3 JUMP JUMPDEST DUP2 ADD SUB SLT PUSH2 0x18AC JUMPI PUSH1 0x40 MLOAD SWAP1 PUSH1 0x40 DUP3 ADD DUP3 DUP2 LT PUSH8 0xFFFFFFFFFFFFFFFF DUP3 GT OR PUSH2 0x143E JUMPI PUSH1 0x40 MSTORE PUSH2 0x189A DUP2 PUSH2 0x28FC JUMP JUMPDEST DUP3 MSTORE PUSH1 0x20 DUP1 SWAP2 ADD MLOAD SWAP1 DUP3 ADD MSTORE PUSH0 PUSH2 0x17C6 JUMP JUMPDEST DUP14 DUP1 REVERT JUMPDEST RETURNDATASIZE SWAP2 POP PUSH2 0x185E JUMP JUMPDEST PUSH1 0x40 MLOAD SWAP1 RETURNDATASIZE SWAP1 DUP3 RETURNDATACOPY RETURNDATASIZE SWAP1 REVERT JUMPDEST POP SWAP3 SWAP11 POP SWAP8 POP SWAP6 PUSH1 0x1 ADD SWAP5 SWAP4 POP PUSH2 0x16CB SWAP1 POP JUMP JUMPDEST SWAP1 SWAP6 POP RETURNDATASIZE DUP1 DUP14 DUP4 RETURNDATACOPY PUSH2 0x18EA DUP2 DUP4 PUSH2 0x27E3 JUMP JUMPDEST DUP2 ADD PUSH1 0x40 DUP3 DUP3 SUB SLT PUSH2 0x191B JUMPI PUSH1 0x20 DUP3 ADD MLOAD PUSH8 0xFFFFFFFFFFFFFFFF DUP2 GT PUSH2 0x18AC JUMPI PUSH2 0x1914 SWAP3 ADD PUSH2 0x2A6A JUMP JUMPDEST SWAP5 PUSH0 PUSH2 0x1776 JUMP JUMPDEST DUP13 DUP1 REVERT JUMPDEST PUSH1 0x40 MLOAD RETURNDATASIZE DUP15 DUP3 RETURNDATACOPY RETURNDATASIZE SWAP1 REVERT JUMPDEST SWAP5 SWAP6 SWAP7 POP RETURNDATASIZE SWAP5 DUP6 DUP13 DUP3 RETURNDATACOPY PUSH2 0x193E DUP7 DUP3 PUSH2 0x27E3 JUMP JUMPDEST PUSH1 0x40 DUP2 DUP8 DUP2 ADD SUB SLT PUSH2 0x19F5 JUMPI DUP1 MLOAD SWAP6 PUSH8 0xFFFFFFFFFFFFFFFF SWAP7 DUP8 DUP2 GT PUSH2 0x18AC JUMPI DUP3 ADD SWAP2 DUP2 DUP2 ADD PUSH1 0x1F DUP5 ADD SLT ISZERO PUSH2 0x18AC JUMPI DUP3 MLOAD SWAP3 PUSH1 0x20 SWAP1 PUSH2 0x197D DUP6 PUSH2 0x298F JUMP JUMPDEST SWAP5 PUSH2 0x198B PUSH1 0x40 MLOAD SWAP7 DUP8 PUSH2 0x27E3 JUMP JUMPDEST DUP1 DUP7 MSTORE DUP3 DUP1 DUP8 ADD SWAP2 PUSH1 0x5 SHL DUP4 ADD ADD SWAP2 DUP6 DUP6 ADD DUP4 GT PUSH2 0x19EF JUMPI DUP4 DUP1 SWAP2 ADD SWAP2 JUMPDEST DUP4 DUP4 LT PUSH2 0x19D7 JUMPI POP POP POP POP DUP2 ADD MLOAD SWAP8 DUP9 GT PUSH2 0x18AC JUMPI PUSH1 0x4 SWAP8 PUSH2 0x19CE SWAP3 DUP3 ADD SWAP2 ADD PUSH2 0x2A6A JUMP JUMPDEST POP SWAP7 SWAP6 SWAP5 PUSH2 0x1733 JUMP JUMPDEST DUP2 SWAP1 PUSH2 0x19E2 DUP5 PUSH2 0x2982 JUMP JUMPDEST DUP2 MSTORE ADD SWAP2 ADD SWAP1 DUP4 SWAP1 PUSH2 0x19A9 JUMP JUMPDEST POP POP DUP16 DUP1 REVERT JUMPDEST DUP12 DUP1 REVERT JUMPDEST PUSH1 0x40 MLOAD RETURNDATASIZE DUP14 DUP3 RETURNDATACOPY RETURNDATASIZE SWAP1 REVERT JUMPDEST DUP9 DUP7 DUP7 SWAP3 DUP11 PUSH20 0xFFFFFFFFFFFFFFFFFFFFFFFFFFFFFFFFFFFFFFFF DUP3 AND ISZERO PUSH2 0x1C4C JUMPI PUSH1 0x40 MLOAD PUSH32 0x23B872DD00000000000000000000000000000000000000000000000000000000 DUP2 MSTORE CALLER PUSH1 0x4 DUP3 ADD MSTORE ADDRESS PUSH1 0x24 DUP3 ADD MSTORE PUSH1 0x44 DUP2 ADD DUP5 SWAP1 MSTORE PUSH1 0x20 DUP2 PUSH1 0x64 DUP2 DUP9 PUSH20 0xFFFFFFFFFFFFFFFFFFFFFFFFFFFFFFFFFFFFFFFF DUP13 AND GAS CALL DUP1 ISZERO PUSH2 0x665 JUMPI PUSH2 0x1C13 JUMPI JUMPDEST POP PUSH1 0x40 MLOAD PUSH32 0x95EA7B300000000000000000000000000000000000000000000000000000000 DUP2 MSTORE PUSH20 0xFFFFFFFFFFFFFFFFFFFFFFFFFFFFFFFFFFFFFFFF DUP4 AND PUSH1 0x4 DUP3 ADD MSTORE PUSH1 0x24 DUP2 ADD DUP5 SWAP1 MSTORE PUSH1 0x20 DUP2 DUP1 PUSH1 0x44 DUP2 ADD SUB DUP2 DUP9 PUSH20 0xFFFFFFFFFFFFFFFFFFFFFFFFFFFFFFFFFFFFFFFF DUP13 AND GAS CALL DUP1 ISZERO PUSH2 0x665 JUMPI PUSH2 0x1BBB JUMPI JUMPDEST POP PUSH1 0x40 MLOAD PUSH32 0x6E81221C00000000000000000000000000000000000000000000000000000000 DUP2 MSTORE PUSH20 0xFFFFFFFFFFFFFFFFFFFFFFFFFFFFFFFFFFFFFFFF SWAP7 DUP8 AND PUSH1 0x4 DUP3 ADD MSTORE SWAP1 DUP7 AND PUSH1 0x24 DUP3 ADD MSTORE PUSH1 0x44 DUP2 ADD SWAP3 SWAP1 SWAP3 MSTORE SWAP3 DUP5 AND PUSH1 0x64 DUP3 ADD MSTORE SWAP3 SWAP1 SWAP2 PUSH1 0x20 SWAP2 DUP5 SWAP2 PUSH1 0x84 SWAP2 DUP4 SWAP2 DUP7 SWAP2 AND GAS CALL SWAP1 DUP2 ISZERO PUSH2 0x18B8 JUMPI SWAP1 PUSH2 0x1B88 JUMPI JUMPDEST PUSH1 0x20 SWAP1 PUSH1 0x40 MLOAD SWAP1 DUP2 MSTORE RETURN JUMPDEST POP PUSH1 0x20 DUP2 RETURNDATASIZE PUSH1 0x20 GT PUSH2 0x1BB3 JUMPI JUMPDEST DUP2 PUSH2 0x1BA2 PUSH1 0x20 SWAP4 DUP4 PUSH2 0x27E3 JUMP JUMPDEST DUP2 ADD SUB SLT PUSH2 0x6F8 JUMPI PUSH1 0x20 SWAP1 MLOAD PUSH2 0x1B7D JUMP JUMPDEST RETURNDATASIZE SWAP2 POP PUSH2 0x1B95 JUMP JUMPDEST PUSH1 0x20 DUP2 RETURNDATASIZE PUSH1 0x20 GT PUSH2 0x1C0B JUMPI JUMPDEST DUP2 PUSH2 0x1BD4 PUSH1 0x20 SWAP4 DUP4 PUSH2 0x27E3 JUMP JUMPDEST DUP2 ADD SUB SLT PUSH2 0x343 JUMPI SWAP4 PUSH20 0xFFFFFFFFFFFFFFFFFFFFFFFFFFFFFFFFFFFFFFFF DUP2 SWAP7 SWAP8 PUSH2 0x1C00 PUSH1 0x20 SWAP8 PUSH2 0x2982 JUMP JUMPDEST POP SWAP8 SWAP7 SWAP6 POP POP PUSH2 0x1B02 JUMP JUMPDEST RETURNDATASIZE SWAP2 POP PUSH2 0x1BC7 JUMP JUMPDEST PUSH1 0x20 DUP2 RETURNDATASIZE PUSH1 0x20 GT PUSH2 0x1C44 JUMPI JUMPDEST DUP2 PUSH2 0x1C2C PUSH1 0x20 SWAP4 DUP4 PUSH2 0x27E3 JUMP JUMPDEST DUP2 ADD SUB SLT PUSH2 0x343 JUMPI PUSH2 0x1C3D SWAP1 PUSH2 0x2982 JUMP JUMPDEST POP DUP7 PUSH2 0x1A89 JUMP JUMPDEST RETURNDATASIZE SWAP2 POP PUSH2 0x1C1F JUMP JUMPDEST PUSH1 0x64 PUSH1 0x40 MLOAD PUSH32 0x8C379A000000000000000000000000000000000000000000000000000000000 DUP2 MSTORE PUSH1 0x20 PUSH1 0x4 DUP3 ADD MSTORE PUSH1 0x16 PUSH1 0x24 DUP3 ADD MSTORE PUSH32 0x4E6F207375697461626C6520706F6F6C20666F756E6400000000000000000000 PUSH1 0x44 DUP3 ADD MSTORE REVERT JUMPDEST PUSH2 0x1CBF SWAP2 SWAP5 POP RETURNDATASIZE DUP1 DUP9 DUP4 RETURNDATACOPY PUSH2 0x2EB DUP2 DUP4 PUSH2 0x27E3 JUMP JUMPDEST SWAP3 PUSH0 PUSH2 0x16C1 JUMP JUMPDEST POP CALLVALUE PUSH2 0x3E9 JUMPI PUSH1 0x20 PUSH32 0xFFFFFFFFFFFFFFFFFFFFFFFFFFFFFFFFFFFFFFFFFFFFFFFFFFFFFFFFFFFFFFFC CALLDATASIZE ADD SLT PUSH2 0x3E9 JUMPI PUSH20 0xFFFFFFFFFFFFFFFFFFFFFFFFFFFFFFFFFFFFFFFF PUSH2 0x1D13 PUSH2 0x2766 JUMP JUMPDEST PUSH2 0x1D1B PUSH2 0x2BBD JUMP JUMPDEST AND PUSH32 0xFFFFFFFFFFFFFFFFFFFFFFFF0000000000000000000000000000000000000000 PUSH0 SLOAD AND OR PUSH0 SSTORE DUP1 RETURN JUMPDEST POP CALLVALUE PUSH2 0x3E9 JUMPI DUP1 PUSH32 0xFFFFFFFFFFFFFFFFFFFFFFFFFFFFFFFFFFFFFFFFFFFFFFFFFFFFFFFFFFFFFFFC CALLDATASIZE ADD SLT PUSH2 0x3E9 JUMPI PUSH2 0x1D7D PUSH2 0x2BBD JUMP JUMPDEST PUSH0 PUSH20 0xFFFFFFFFFFFFFFFFFFFFFFFFFFFFFFFFFFFFFFFF PUSH32 0x9016D09D72D40FDAE2FD8CEAC6B6234C7706214FD39C1CD1E609A0528C199300 DUP1 SLOAD SWAP1 PUSH32 0xFFFFFFFFFFFFFFFFFFFFFFFF0000000000000000000000000000000000000000 DUP3 AND SWAP1 SSTORE AND PUSH32 0x8BE0079C531659141344CD1FD0A4F28419497F9722A3DAAFE3B4186F6B6457E0 DUP3 DUP1 LOG3 DUP1 RETURN JUMPDEST POP CALLVALUE PUSH2 0x3E9 JUMPI PUSH2 0x1E13 CALLDATASIZE PUSH2 0x285E JUMP JUMPDEST SWAP2 PUSH2 0x1E22 DUP3 SWAP6 SWAP5 SWAP6 ISZERO ISZERO PUSH2 0x291D JUMP JUMPDEST DUP4 SLOAD PUSH1 0x40 MLOAD PUSH32 0x2D5E94A700000000000000000000000000000000000000000000000000000000 DUP2 MSTORE PUSH20 0xFFFFFFFFFFFFFFFFFFFFFFFFFFFFFFFFFFFFFFFF DUP8 DUP2 AND PUSH1 0x4 DUP4 ADD MSTORE DUP4 DUP2 AND PUSH1 0x24 DUP4 ADD MSTORE PUSH1 0x20 SWAP8 SWAP2 SWAP4 SWAP3 SWAP1 SWAP2 SWAP1 DUP9 SWAP1 DUP6 SWAP1 PUSH1 0x44 SWAP1 DUP3 SWAP1 DUP7 AND GAS STATICCALL SWAP4 DUP5 ISZERO PUSH2 0x703 JUMPI DUP8 SWAP5 PUSH2 0x2072 JUMPI JUMPDEST POP PUSH1 0x40 MLOAD PUSH32 0x23B872DD00000000000000000000000000000000000000000000000000000000 DUP2 MSTORE CALLER PUSH1 0x4 DUP3 ADD MSTORE ADDRESS PUSH1 0x24 DUP3 ADD MSTORE PUSH1 0x44 DUP2 ADD DUP7 SWAP1 MSTORE DUP3 DUP3 AND SWAP1 DUP10 DUP2 PUSH1 0x64 DUP2 DUP13 DUP7 GAS CALL DUP1 ISZERO PUSH2 0xED1 JUMPI PUSH2 0x203E JUMPI JUMPDEST POP PUSH1 0x40 MLOAD PUSH32 0x95EA7B300000000000000000000000000000000000000000000000000000000 DUP2 MSTORE PUSH20 0xFFFFFFFFFFFFFFFFFFFFFFFFFFFFFFFFFFFFFFFF DUP7 AND PUSH1 0x4 DUP3 ADD MSTORE PUSH1 0x24 DUP2 ADD DUP8 SWAP1 MSTORE SWAP1 DUP10 SWAP1 DUP3 SWAP1 PUSH1 0x44 SWAP1 DUP3 SWAP1 DUP13 SWAP1 GAS CALL DUP1 ISZERO PUSH2 0x9C8 JUMPI SWAP2 DUP10 SWAP7 SWAP6 SWAP5 SWAP4 SWAP2 DUP10 SWAP4 PUSH2 0x1FFC JUMPI JUMPDEST POP PUSH1 0x40 MLOAD PUSH32 0x6E81221C00000000000000000000000000000000000000000000000000000000 DUP2 MSTORE PUSH20 0xFFFFFFFFFFFFFFFFFFFFFFFFFFFFFFFFFFFFFFFF SWAP2 DUP3 AND PUSH1 0x4 DUP3 ADD MSTORE SWAP4 DUP2 AND PUSH1 0x24 DUP6 ADD MSTORE PUSH1 0x44 DUP5 ADD SWAP6 SWAP1 SWAP6 MSTORE SWAP6 SWAP1 SWAP4 AND PUSH1 0x64 DUP3 ADD MSTORE SWAP4 DUP5 SWAP3 PUSH1 0x84 SWAP3 DUP5 SWAP3 AND GAS CALL SWAP2 DUP3 ISZERO PUSH2 0x18B8 JUMPI SWAP2 PUSH2 0x1FCF JUMPI JUMPDEST POP PUSH1 0x40 MLOAD SWAP1 DUP2 MSTORE RETURN JUMPDEST SWAP1 POP DUP2 DUP2 DUP2 RETURNDATASIZE DUP4 GT PUSH2 0x1FF5 JUMPI JUMPDEST PUSH2 0x1FE6 DUP2 DUP4 PUSH2 0x27E3 JUMP JUMPDEST DUP2 ADD SUB SLT PUSH2 0x6F8 JUMPI MLOAD PUSH0 PUSH2 0x1FC6 JUMP JUMPDEST POP RETURNDATASIZE PUSH2 0x1FDC JUMP JUMPDEST DUP8 DUP2 SWAP4 SWAP6 SWAP7 SWAP8 SWAP9 SWAP3 SWAP5 POP RETURNDATASIZE DUP4 GT PUSH2 0x2037 JUMPI JUMPDEST PUSH2 0x2018 DUP2 DUP4 PUSH2 0x27E3 JUMP JUMPDEST DUP2 ADD SUB SLT PUSH2 0x1081 JUMPI SWAP2 DUP8 SWAP2 PUSH2 0x2030 DUP11 SWAP8 SWAP7 SWAP6 SWAP5 PUSH2 0x2982 JUMP JUMPDEST POP PUSH0 PUSH2 0x1F51 JUMP JUMPDEST POP RETURNDATASIZE PUSH2 0x200E JUMP JUMPDEST DUP10 DUP2 DUP2 RETURNDATASIZE DUP4 GT PUSH2 0x206B JUMPI JUMPDEST PUSH2 0x2053 DUP2 DUP4 PUSH2 0x27E3 JUMP JUMPDEST DUP2 ADD SUB SLT PUSH2 0xF8E JUMPI PUSH2 0x2064 SWAP1 PUSH2 0x2982 JUMP JUMPDEST POP PUSH0 PUSH2 0x1EE5 JUMP JUMPDEST POP RETURNDATASIZE PUSH2 0x2049 JUMP JUMPDEST SWAP1 SWAP4 POP DUP8 DUP2 DUP2 RETURNDATASIZE DUP4 GT PUSH2 0x20A2 JUMPI JUMPDEST PUSH2 0x208A DUP2 DUP4 PUSH2 0x27E3 JUMP JUMPDEST DUP2 ADD SUB SLT PUSH2 0x9BD JUMPI PUSH2 0x209B SWAP1 PUSH2 0x28FC JUMP JUMPDEST SWAP3 PUSH0 PUSH2 0x1E93 JUMP JUMPDEST POP RETURNDATASIZE PUSH2 0x2080 JUMP JUMPDEST POP CALLVALUE PUSH2 0x6F8 JUMPI PUSH1 0x20 PUSH32 0xFFFFFFFFFFFFFFFFFFFFFFFFFFFFFFFFFFFFFFFFFFFFFFFFFFFFFFFFFFFFFFFC CALLDATASIZE ADD SLT PUSH2 0x6F8 JUMPI PUSH20 0xFFFFFFFFFFFFFFFFFFFFFFFFFFFFFFFFFFFFFFFF PUSH2 0x20F6 PUSH2 0x2766 JUMP JUMPDEST AND DUP1 EXTCODESIZE ISZERO PUSH2 0x6F8 JUMPI PUSH0 DUP1 SWAP2 PUSH1 0x24 PUSH1 0x40 MLOAD DUP1 SWAP5 DUP2 SWAP4 PUSH32 0x5568081A00000000000000000000000000000000000000000000000000000000 DUP4 MSTORE CALLER PUSH1 0x4 DUP5 ADD MSTORE GAS CALL DUP1 ISZERO PUSH2 0x214F JUMPI PUSH2 0x2143 JUMPI POP DUP1 RETURN JUMPDEST PUSH2 0x214D SWAP2 POP PUSH2 0x27CF JUMP JUMPDEST STOP JUMPDEST PUSH1 0x40 MLOAD RETURNDATASIZE PUSH0 DUP3 RETURNDATACOPY RETURNDATASIZE SWAP1 REVERT JUMPDEST CALLVALUE PUSH2 0x6F8 JUMPI PUSH0 PUSH32 0xFFFFFFFFFFFFFFFFFFFFFFFFFFFFFFFFFFFFFFFFFFFFFFFFFFFFFFFFFFFFFFFC CALLDATASIZE ADD SLT PUSH2 0x6F8 JUMPI PUSH20 0xFFFFFFFFFFFFFFFFFFFFFFFFFFFFFFFFFFFFFFFF PUSH32 0x0 AND ADDRESS SUB PUSH2 0x21EF JUMPI PUSH1 0x20 PUSH1 0x40 MLOAD PUSH32 0x360894A13BA1A3210667C828492DB98DCA3E2076CC3735A920A3CA505D382BBC DUP2 MSTORE RETURN JUMPDEST PUSH1 0x4 PUSH1 0x40 MLOAD PUSH32 0xE07C8DBA00000000000000000000000000000000000000000000000000000000 DUP2 MSTORE REVERT JUMPDEST PUSH1 0x40 PUSH32 0xFFFFFFFFFFFFFFFFFFFFFFFFFFFFFFFFFFFFFFFFFFFFFFFFFFFFFFFFFFFFFFFC CALLDATASIZE ADD SLT PUSH2 0x6F8 JUMPI PUSH2 0x224B PUSH2 0x2766 JUMP JUMPDEST PUSH1 0x24 SWAP1 DUP2 CALLDATALOAD PUSH8 0xFFFFFFFFFFFFFFFF DUP2 GT PUSH2 0x6F8 JUMPI CALLDATASIZE PUSH1 0x23 DUP3 ADD SLT ISZERO PUSH2 0x6F8 JUMPI DUP1 PUSH1 0x4 ADD CALLDATALOAD PUSH2 0x2278 DUP2 PUSH2 0x2824 JUMP JUMPDEST SWAP3 PUSH2 0x2286 PUSH1 0x40 MLOAD SWAP5 DUP6 PUSH2 0x27E3 JUMP JUMPDEST DUP2 DUP5 MSTORE PUSH1 0x20 SWAP2 DUP3 DUP6 ADD SWAP4 CALLDATASIZE DUP8 DUP4 DUP4 ADD ADD GT PUSH2 0x6F8 JUMPI DUP2 PUSH0 SWAP3 DUP9 DUP7 SWAP4 ADD DUP8 CALLDATACOPY DUP7 ADD ADD MSTORE PUSH20 0xFFFFFFFFFFFFFFFFFFFFFFFFFFFFFFFFFFFFFFFF DUP1 PUSH32 0x0 AND DUP1 ADDRESS EQ SWAP1 DUP2 ISZERO PUSH2 0x24F5 JUMPI JUMPDEST POP PUSH2 0x21EF JUMPI PUSH2 0x22F8 PUSH2 0x2BBD JUMP JUMPDEST DUP2 AND SWAP4 PUSH1 0x40 MLOAD PUSH32 0x52D1902D00000000000000000000000000000000000000000000000000000000 DUP2 MSTORE DUP4 DUP2 PUSH1 0x4 DUP2 DUP10 GAS STATICCALL PUSH0 SWAP2 DUP2 PUSH2 0x24C6 JUMPI JUMPDEST POP PUSH2 0x2366 JUMPI DUP7 DUP7 PUSH1 0x40 MLOAD SWAP1 PUSH32 0x4C9C8CE300000000000000000000000000000000000000000000000000000000 DUP3 MSTORE PUSH1 0x4 DUP3 ADD MSTORE REVERT JUMPDEST DUP6 SWAP1 DUP8 PUSH32 0x360894A13BA1A3210667C828492DB98DCA3E2076CC3735A920A3CA505D382BBC SWAP2 DUP3 DUP2 SUB PUSH2 0x2498 JUMPI POP DUP5 EXTCODESIZE ISZERO PUSH2 0x2469 JUMPI POP DUP2 PUSH32 0xFFFFFFFFFFFFFFFFFFFFFFFF0000000000000000000000000000000000000000 DUP3 SLOAD AND OR SWAP1 SSTORE PUSH1 0x40 MLOAD SWAP1 PUSH32 0xBC7CD75A20EE27FD9ADEBAB32041F755214DBC6BFFA90CC0225B39DA2E5C2D3B PUSH0 DUP1 LOG2 DUP2 MLOAD ISZERO PUSH2 0x2435 JUMPI POP PUSH0 PUSH2 0x214D SWAP5 DUP2 SWAP3 MLOAD SWAP1 DUP5 GAS DELEGATECALL SWAP1 RETURNDATASIZE ISZERO PUSH2 0x242C JUMPI RETURNDATASIZE PUSH2 0x2410 DUP2 PUSH2 0x2824 JUMP JUMPDEST SWAP1 PUSH2 0x241E PUSH1 0x40 MLOAD SWAP3 DUP4 PUSH2 0x27E3 JUMP JUMPDEST DUP2 MSTORE PUSH0 DUP2 SWAP5 RETURNDATASIZE SWAP3 ADD RETURNDATACOPY PUSH2 0x2C86 JUMP JUMPDEST PUSH1 0x60 SWAP3 POP PUSH2 0x2C86 JUMP JUMPDEST SWAP4 POP POP POP POP CALLVALUE PUSH2 0x2441 JUMPI STOP JUMPDEST DUP1 PUSH32 0xB398979F00000000000000000000000000000000000000000000000000000000 PUSH1 0x4 SWAP3 MSTORE REVERT JUMPDEST DUP3 PUSH1 0x40 MLOAD SWAP1 PUSH32 0x4C9C8CE300000000000000000000000000000000000000000000000000000000 DUP3 MSTORE PUSH1 0x4 DUP3 ADD MSTORE REVERT JUMPDEST PUSH1 0x40 MLOAD SWAP1 PUSH32 0xAA1D49A400000000000000000000000000000000000000000000000000000000 DUP3 MSTORE PUSH1 0x4 DUP3 ADD MSTORE REVERT JUMPDEST SWAP1 SWAP2 POP DUP5 DUP2 DUP2 RETURNDATASIZE DUP4 GT PUSH2 0x24EE JUMPI JUMPDEST PUSH2 0x24DE DUP2 DUP4 PUSH2 0x27E3 JUMP JUMPDEST DUP2 ADD SUB SLT PUSH2 0x6F8 JUMPI MLOAD SWAP1 DUP9 PUSH2 0x2331 JUMP JUMPDEST POP RETURNDATASIZE PUSH2 0x24D4 JUMP JUMPDEST SWAP1 POP DUP2 PUSH32 0x360894A13BA1A3210667C828492DB98DCA3E2076CC3735A920A3CA505D382BBC SLOAD AND EQ ISZERO DUP8 PUSH2 0x22EB JUMP JUMPDEST CALLVALUE PUSH2 0x6F8 JUMPI PUSH1 0x60 PUSH32 0xFFFFFFFFFFFFFFFFFFFFFFFFFFFFFFFFFFFFFFFFFFFFFFFFFFFFFFFFFFFFFFFC CALLDATASIZE ADD SLT PUSH2 0x6F8 JUMPI PUSH2 0x255A PUSH2 0x2766 JUMP JUMPDEST PUSH2 0x2562 PUSH2 0x2789 JUMP JUMPDEST PUSH0 SLOAD PUSH1 0x40 MLOAD PUSH32 0x2D5E94A700000000000000000000000000000000000000000000000000000000 DUP2 MSTORE PUSH20 0xFFFFFFFFFFFFFFFFFFFFFFFFFFFFFFFFFFFFFFFF DUP5 DUP2 AND PUSH1 0x4 DUP4 ADD MSTORE DUP4 DUP2 AND PUSH1 0x24 DUP4 ADD MSTORE PUSH1 0x20 SWAP5 SWAP2 SWAP3 DUP6 SWAP1 DUP5 SWAP1 PUSH1 0x44 SWAP1 DUP3 SWAP1 DUP6 AND GAS STATICCALL SWAP1 DUP2 ISZERO PUSH2 0x214F JUMPI DUP6 SWAP4 PUSH0 SWAP3 PUSH2 0x2678 JUMPI JUMPDEST POP PUSH1 0x40 MLOAD PUSH32 0x4AA0665200000000000000000000000000000000000000000000000000000000 DUP2 MSTORE PUSH20 0xFFFFFFFFFFFFFFFFFFFFFFFFFFFFFFFFFFFFFFFF SWAP4 DUP5 AND PUSH1 0x4 DUP3 ADD MSTORE SWAP5 SWAP1 SWAP3 AND PUSH1 0x24 DUP6 ADD MSTORE PUSH1 0x44 DUP1 CALLDATALOAD SWAP1 DUP6 ADD MSTORE DUP4 SWAP2 DUP3 SWAP1 DUP2 PUSH1 0x64 DUP2 ADD JUMPDEST SUB SWAP3 AND GAS STATICCALL SWAP1 DUP2 ISZERO PUSH2 0x214F JUMPI PUSH0 SWAP2 PUSH2 0x264B JUMPI POP PUSH1 0x40 MLOAD SWAP1 DUP2 MSTORE RETURN JUMPDEST SWAP1 POP DUP2 DUP2 DUP2 RETURNDATASIZE DUP4 GT PUSH2 0x2671 JUMPI JUMPDEST PUSH2 0x2662 DUP2 DUP4 PUSH2 0x27E3 JUMP JUMPDEST DUP2 ADD SUB SLT PUSH2 0x6F8 JUMPI MLOAD DUP3 PUSH2 0x1FC6 JUMP JUMPDEST POP RETURNDATASIZE PUSH2 0x2658 JUMP JUMPDEST DUP5 DUP2 SWAP6 SWAP3 SWAP4 POP RETURNDATASIZE DUP4 GT PUSH2 0x26AE JUMPI JUMPDEST PUSH2 0x2690 DUP2 DUP4 PUSH2 0x27E3 JUMP JUMPDEST DUP2 ADD SUB SLT PUSH2 0x6F8 JUMPI PUSH2 0x2630 SWAP4 PUSH2 0x26A6 DUP7 SWAP5 PUSH2 0x28FC JUMP JUMPDEST SWAP2 SWAP1 SWAP5 PUSH2 0x25D1 JUMP JUMPDEST POP RETURNDATASIZE PUSH2 0x2686 JUMP JUMPDEST CALLVALUE PUSH2 0x6F8 JUMPI PUSH0 PUSH32 0xFFFFFFFFFFFFFFFFFFFFFFFFFFFFFFFFFFFFFFFFFFFFFFFFFFFFFFFFFFFFFFFC CALLDATASIZE ADD SLT PUSH2 0x6F8 JUMPI PUSH1 0x20 PUSH20 0xFFFFFFFFFFFFFFFFFFFFFFFFFFFFFFFFFFFFFFFF PUSH0 SLOAD AND PUSH1 0x40 MLOAD SWAP1 DUP2 MSTORE RETURN JUMPDEST CALLVALUE PUSH2 0x6F8 JUMPI PUSH0 PUSH32 0xFFFFFFFFFFFFFFFFFFFFFFFFFFFFFFFFFFFFFFFFFFFFFFFFFFFFFFFFFFFFFFFC CALLDATASIZE ADD SLT PUSH2 0x6F8 JUMPI PUSH1 0x20 SWAP1 PUSH8 0xFFFFFFFFFFFFFFFF PUSH32 0xF0C57E16840DF040F15088DC2F81FE391C3923BEC73E23A9662EFC9C229C6A00 SLOAD AND DUP2 MSTORE RETURN JUMPDEST PUSH1 0x4 CALLDATALOAD SWAP1 PUSH20 0xFFFFFFFFFFFFFFFFFFFFFFFFFFFFFFFFFFFFFFFF DUP3 AND DUP3 SUB PUSH2 0x6F8 JUMPI JUMP JUMPDEST PUSH1 0x24 CALLDATALOAD SWAP1 PUSH20 0xFFFFFFFFFFFFFFFFFFFFFFFFFFFFFFFFFFFFFFFF DUP3 AND DUP3 SUB PUSH2 0x6F8 JUMPI JUMP JUMPDEST PUSH1 0x44 CALLDATALOAD SWAP1 PUSH20 0xFFFFFFFFFFFFFFFFFFFFFFFFFFFFFFFFFFFFFFFF DUP3 AND DUP3 SUB PUSH2 0x6F8 JUMPI JUMP JUMPDEST PUSH8 0xFFFFFFFFFFFFFFFF DUP2 GT PUSH2 0x143E JUMPI PUSH1 0x40 MSTORE JUMP JUMPDEST SWAP1 PUSH1 0x1F PUSH32 0xFFFFFFFFFFFFFFFFFFFFFFFFFFFFFFFFFFFFFFFFFFFFFFFFFFFFFFFFFFFFFFE0 SWAP2 ADD AND DUP2 ADD SWAP1 DUP2 LT PUSH8 0xFFFFFFFFFFFFFFFF DUP3 GT OR PUSH2 0x143E JUMPI PUSH1 0x40 MSTORE JUMP JUMPDEST PUSH8 0xFFFFFFFFFFFFFFFF DUP2 GT PUSH2 0x143E JUMPI PUSH1 0x1F ADD PUSH32 0xFFFFFFFFFFFFFFFFFFFFFFFFFFFFFFFFFFFFFFFFFFFFFFFFFFFFFFFFFFFFFFE0 AND PUSH1 0x20 ADD SWAP1 JUMP JUMPDEST PUSH32 0xFFFFFFFFFFFFFFFFFFFFFFFFFFFFFFFFFFFFFFFFFFFFFFFFFFFFFFFFFFFFFFFC PUSH1 0x80 SWAP2 ADD SLT PUSH2 0x6F8 JUMPI PUSH20 0xFFFFFFFFFFFFFFFFFFFFFFFFFFFFFFFFFFFFFFFF SWAP1 PUSH1 0x4 CALLDATALOAD DUP3 DUP2 AND DUP2 SUB PUSH2 0x6F8 JUMPI SWAP2 PUSH1 0x24 CALLDATALOAD DUP2 DUP2 AND DUP2 SUB PUSH2 0x6F8 JUMPI SWAP2 PUSH1 0x44 CALLDATALOAD SWAP2 PUSH1 0x64 CALLDATALOAD SWAP1 DUP2 AND DUP2 SUB PUSH2 0x6F8 JUMPI SWAP1 JUMP JUMPDEST SWAP2 DUP2 PUSH1 0x1F DUP5 ADD SLT ISZERO PUSH2 0x6F8 JUMPI DUP3 CALLDATALOAD SWAP2 PUSH8 0xFFFFFFFFFFFFFFFF DUP4 GT PUSH2 0x6F8 JUMPI PUSH1 0x20 DUP1 DUP6 ADD SWAP5 DUP5 PUSH1 0x5 SHL ADD ADD GT PUSH2 0x6F8 JUMPI JUMP JUMPDEST MLOAD SWAP1 PUSH20 0xFFFFFFFFFFFFFFFFFFFFFFFFFFFFFFFFFFFFFFFF DUP3 AND DUP3 SUB PUSH2 0x6F8 JUMPI JUMP JUMPDEST ISZERO PUSH2 0x2924 JUMPI JUMP JUMPDEST PUSH1 0x64 PUSH1 0x40 MLOAD PUSH32 0x8C379A000000000000000000000000000000000000000000000000000000000 DUP2 MSTORE PUSH1 0x20 PUSH1 0x4 DUP3 ADD MSTORE PUSH1 0x20 PUSH1 0x24 DUP3 ADD MSTORE PUSH32 0x416D6F756E74206D7573742062652067726561746572207468616E207A65726F PUSH1 0x44 DUP3 ADD MSTORE REVERT JUMPDEST MLOAD SWAP1 DUP2 ISZERO ISZERO DUP3 SUB PUSH2 0x6F8 JUMPI JUMP JUMPDEST PUSH8 0xFFFFFFFFFFFFFFFF DUP2 GT PUSH2 0x143E JUMPI PUSH1 0x5 SHL PUSH1 0x20 ADD SWAP1 JUMP JUMPDEST PUSH1 0x20 SWAP1 DUP2 DUP2 DUP5 SUB SLT PUSH2 0x6F8 JUMPI DUP1 MLOAD SWAP1 PUSH8 0xFFFFFFFFFFFFFFFF DUP3 GT PUSH2 0x6F8 JUMPI ADD SWAP2 DUP1 PUSH1 0x1F DUP5 ADD SLT ISZERO PUSH2 0x6F8 JUMPI DUP3 MLOAD PUSH2 0x29DD DUP2 PUSH2 0x298F JUMP JUMPDEST SWAP4 PUSH2 0x29EB PUSH1 0x40 MLOAD SWAP6 DUP7 PUSH2 0x27E3 JUMP JUMPDEST DUP2 DUP6 MSTORE DUP4 DUP1 DUP7 ADD SWAP3 PUSH1 0x5 SHL DUP3 ADD ADD SWAP3 DUP4 GT PUSH2 0x6F8 JUMPI DUP4 ADD SWAP1 JUMPDEST DUP3 DUP3 LT PUSH2 0x2A12 JUMPI POP POP POP POP SWAP1 JUMP JUMPDEST DUP4 DUP1 SWAP2 PUSH2 0x2A1E DUP5 PUSH2 0x28FC JUMP JUMPDEST DUP2 MSTORE ADD SWAP2 ADD SWAP1 PUSH2 0x2A04 JUMP JUMPDEST DUP1 MLOAD DUP3 LT ISZERO PUSH2 0x2A3D JUMPI PUSH1 0x20 SWAP2 PUSH1 0x5 SHL ADD ADD SWAP1 JUMP JUMPDEST PUSH32 0x4E487B7100000000000000000000000000000000000000000000000000000000 PUSH0 MSTORE PUSH1 0x32 PUSH1 0x4 MSTORE PUSH1 0x24 PUSH0 REVERT JUMPDEST SWAP1 DUP1 PUSH1 0x1F DUP4 ADD SLT ISZERO PUSH2 0x6F8 JUMPI DUP2 MLOAD SWAP1 PUSH1 0x20 SWAP2 PUSH2 0x2A85 DUP2 PUSH2 0x298F JUMP JUMPDEST SWAP4 PUSH2 0x2A93 PUSH1 0x40 MLOAD SWAP6 DUP7 PUSH2 0x27E3 JUMP JUMPDEST DUP2 DUP6 MSTORE PUSH1 0x20 DUP1 DUP7 ADD SWAP3 PUSH1 0x5 SHL DUP3 ADD ADD SWAP3 DUP4 GT PUSH2 0x6F8 JUMPI PUSH1 0x20 ADD SWAP1 JUMPDEST DUP3 DUP3 LT PUSH2 0x2ABC JUMPI POP POP POP POP SWAP1 JUMP JUMPDEST DUP2 MLOAD DUP2 MSTORE SWAP1 DUP4 ADD SWAP1 DUP4 ADD PUSH2 0x2AAE JUMP JUMPDEST SWAP2 SWAP1 DUP2 LT ISZERO PUSH2 0x2A3D JUMPI PUSH1 0x5 SHL ADD SWAP1 JUMP JUMPDEST CALLDATALOAD PUSH20 0xFFFFFFFFFFFFFFFFFFFFFFFFFFFFFFFFFFFFFFFF DUP2 AND DUP2 SUB PUSH2 0x6F8 JUMPI SWAP1 JUMP JUMPDEST PUSH20 0xFFFFFFFFFFFFFFFFFFFFFFFFFFFFFFFFFFFFFFFF DUP1 SWAP2 AND SWAP1 DUP2 ISZERO PUSH2 0x2B8D JUMPI PUSH32 0x9016D09D72D40FDAE2FD8CEAC6B6234C7706214FD39C1CD1E609A0528C199300 DUP1 SLOAD SWAP1 DUP4 PUSH32 0xFFFFFFFFFFFFFFFFFFFFFFFF0000000000000000000000000000000000000000 DUP4 AND OR SWAP1 SSTORE AND PUSH32 0x8BE0079C531659141344CD1FD0A4F28419497F9722A3DAAFE3B4186F6B6457E0 PUSH0 DUP1 LOG3 JUMP JUMPDEST PUSH1 0x24 PUSH1 0x40 MLOAD PUSH32 0x1E4FBDF700000000000000000000000000000000000000000000000000000000 DUP2 MSTORE PUSH0 PUSH1 0x4 DUP3 ADD MSTORE REVERT JUMPDEST PUSH20 0xFFFFFFFFFFFFFFFFFFFFFFFFFFFFFFFFFFFFFFFF PUSH32 0x9016D09D72D40FDAE2FD8CEAC6B6234C7706214FD39C1CD1E609A0528C199300 SLOAD AND CALLER SUB PUSH2 0x2BFD JUMPI JUMP JUMPDEST PUSH1 0x24 PUSH1 0x40 MLOAD PUSH32 0x118CDAA700000000000000000000000000000000000000000000000000000000 DUP2 MSTORE CALLER PUSH1 0x4 DUP3 ADD MSTORE REVERT JUMPDEST PUSH1 0xFF PUSH32 0xF0C57E16840DF040F15088DC2F81FE391C3923BEC73E23A9662EFC9C229C6A00 SLOAD PUSH1 0x40 SHR AND ISZERO PUSH2 0x2C5C JUMPI JUMP JUMPDEST PUSH1 0x4 PUSH1 0x40 MLOAD PUSH32 0xD7E6BCF800000000000000000000000000000000000000000000000000000000 DUP2 MSTORE REVERT JUMPDEST SWAP1 PUSH2 0x2CC5 JUMPI POP DUP1 MLOAD ISZERO PUSH2 0x2C9B JUMPI DUP1 MLOAD SWAP1 PUSH1 0x20 ADD REVERT JUMPDEST PUSH1 0x4 PUSH1 0x40 MLOAD PUSH32 0x1425EA4200000000000000000000000000000000000000000000000000000000 DUP2 MSTORE REVERT JUMPDEST DUP2 MLOAD ISZERO DUP1 PUSH2 0x2D1D JUMPI JUMPDEST PUSH2 0x2CD6 JUMPI POP SWAP1 JUMP JUMPDEST PUSH1 0x24 SWAP1 PUSH20 0xFFFFFFFFFFFFFFFFFFFFFFFFFFFFFFFFFFFFFFFF PUSH1 0x40 MLOAD SWAP2 PUSH32 0x9996B31500000000000000000000000000000000000000000000000000000000 DUP4 MSTORE AND PUSH1 0x4 DUP3 ADD MSTORE REVERT JUMPDEST POP DUP1 EXTCODESIZE ISZERO PUSH2 0x2CCE JUMP INVALID LOG2 PUSH5 0x6970667358 0x22 SLT KECCAK256 PUSH0 JUMPDEST AND MSTORE PUSH8 0x37D6F82F2BCDDCDD SELFBALANCE 0xE5 PUSH30 0xDD2D559420000AE02510437AFCB8C56364736F6C63430008190033000000 "},"gasEstimates":{"creation":{"codeDepositCost":"2322400","executionCost":"infinite","totalCost":"infinite"},"external":{"UPGRADE_INTERFACE_VERSION()":"618","addLiquidity(uint256[],address,address)":"infinite","batchSwap(address[],address[],uint256[],address[])":"infinite","changePoolFactory(address)":"26744","getAmountOut(address,address,uint256)":"infinite","getPoolsContainingToken(address)":"infinite","getVersion()":"2256","initialize(address)":"infinite","owner()":"2487","performRebalanceIfNeeded(address)":"infinite","poolFactory()":"2285","proxiableUUID()":"infinite","reinitialize(address,uint64)":"50072","removeLiquidity(uint256,address,address)":"infinite","renounceOwnership()":"28180","smartSwap(address,address,uint256,address)":"infinite","swap(address,address,uint256,address)":"infinite","transferOwnership(address)":"28519","transferToPool()":"infinite","upgradeToAndCall(address,bytes)":"infinite"},"internal":{"_authorizeUpgrade(address)":"infinite"}},"methodIdentifiers":{"UPGRADE_INTERFACE_VERSION()":"ad3cb1cc","addLiquidity(uint256[],address,address)":"ec0cd2eb","batchSwap(address[],address[],uint256[],address[])":"e74e9b06","changePoolFactory(address)":"72591be5","getAmountOut(address,address,uint256)":"4aa06652","getPoolsContainingToken(address)":"ae3cce1c","getVersion()":"0d8e6e2c","initialize(address)":"c4d66de8","owner()":"8da5cb5b","performRebalanceIfNeeded(address)":"5568081a","poolFactory()":"4219dc40","proxiableUUID()":"52d1902d","reinitialize(address,uint64)":"8f2248bc","removeLiquidity(uint256,address,address)":"f31abcc4","renounceOwnership()":"715018a6","smartSwap(address,address,uint256,address)":"7442eca6","swap(address,address,uint256,address)":"6e81221c","transferOwnership(address)":"f2fde38b","transferToPool()":"fe110116","upgradeToAndCall(address,bytes)":"4f1ef286"}},"storageLayout":{"storage":[{"astId":4627,"contract":"contracts/BaluniV1PoolPeriphery.sol:BaluniV1PoolPeriphery","label":"poolFactory","offset":0,"slot":"0","type":"t_contract(IBaluniV1PoolFactory)5632"}],"types":{"t_contract(IBaluniV1PoolFactory)5632":{"encoding":"inplace","label":"contract IBaluniV1PoolFactory","numberOfBytes":"20"}}},"userdoc":{"kind":"user","methods":{},"version":1}}}}