{
  "_format": "hh-sol-artifact-1",
  "contractName": "BaluniV1YearnVault",
  "sourceName": "contracts/vaults/BaluniV1YearnVault.sol",
  "abi": [
    {
      "inputs": [
        {
          "internalType": "address",
          "name": "target",
          "type": "address"
        }
      ],
      "name": "AddressEmptyCode",
      "type": "error"
    },
    {
      "inputs": [
        {
          "internalType": "address",
          "name": "implementation",
          "type": "address"
        }
      ],
      "name": "ERC1967InvalidImplementation",
      "type": "error"
    },
    {
      "inputs": [],
      "name": "ERC1967NonPayable",
      "type": "error"
    },
    {
      "inputs": [
        {
          "internalType": "address",
          "name": "spender",
          "type": "address"
        },
        {
          "internalType": "uint256",
          "name": "allowance",
          "type": "uint256"
        },
        {
          "internalType": "uint256",
          "name": "needed",
          "type": "uint256"
        }
      ],
      "name": "ERC20InsufficientAllowance",
      "type": "error"
    },
    {
      "inputs": [
        {
          "internalType": "address",
          "name": "sender",
          "type": "address"
        },
        {
          "internalType": "uint256",
          "name": "balance",
          "type": "uint256"
        },
        {
          "internalType": "uint256",
          "name": "needed",
          "type": "uint256"
        }
      ],
      "name": "ERC20InsufficientBalance",
      "type": "error"
    },
    {
      "inputs": [
        {
          "internalType": "address",
          "name": "approver",
          "type": "address"
        }
      ],
      "name": "ERC20InvalidApprover",
      "type": "error"
    },
    {
      "inputs": [
        {
          "internalType": "address",
          "name": "receiver",
          "type": "address"
        }
      ],
      "name": "ERC20InvalidReceiver",
      "type": "error"
    },
    {
      "inputs": [
        {
          "internalType": "address",
          "name": "sender",
          "type": "address"
        }
      ],
      "name": "ERC20InvalidSender",
      "type": "error"
    },
    {
      "inputs": [
        {
          "internalType": "address",
          "name": "spender",
          "type": "address"
        }
      ],
      "name": "ERC20InvalidSpender",
      "type": "error"
    },
    {
      "inputs": [],
      "name": "EnforcedPause",
      "type": "error"
    },
    {
      "inputs": [],
      "name": "ExpectedPause",
      "type": "error"
    },
    {
      "inputs": [],
      "name": "FailedInnerCall",
      "type": "error"
    },
    {
      "inputs": [],
      "name": "InvalidInitialization",
      "type": "error"
    },
    {
      "inputs": [],
      "name": "NotInitializing",
      "type": "error"
    },
    {
      "inputs": [
        {
          "internalType": "address",
          "name": "owner",
          "type": "address"
        }
      ],
      "name": "OwnableInvalidOwner",
      "type": "error"
    },
    {
      "inputs": [
        {
          "internalType": "address",
          "name": "account",
          "type": "address"
        }
      ],
      "name": "OwnableUnauthorizedAccount",
      "type": "error"
    },
    {
      "inputs": [],
      "name": "ReentrancyGuardReentrantCall",
      "type": "error"
    },
    {
      "inputs": [],
      "name": "UUPSUnauthorizedCallContext",
      "type": "error"
    },
    {
      "inputs": [
        {
          "internalType": "bytes32",
          "name": "slot",
          "type": "bytes32"
        }
      ],
      "name": "UUPSUnsupportedProxiableUUID",
      "type": "error"
    },
    {
      "anonymous": false,
      "inputs": [
        {
          "indexed": true,
          "internalType": "address",
          "name": "owner",
          "type": "address"
        },
        {
          "indexed": true,
          "internalType": "address",
          "name": "spender",
          "type": "address"
        },
        {
          "indexed": false,
          "internalType": "uint256",
          "name": "value",
          "type": "uint256"
        }
      ],
      "name": "Approval",
      "type": "event"
    },
    {
      "anonymous": false,
      "inputs": [
        {
          "indexed": true,
          "internalType": "address",
          "name": "sender",
          "type": "address"
        },
        {
          "indexed": false,
          "internalType": "uint256",
          "name": "amount",
          "type": "uint256"
        },
        {
          "indexed": false,
          "internalType": "uint256",
          "name": "interest",
          "type": "uint256"
        }
      ],
      "name": "Buy",
      "type": "event"
    },
    {
      "anonymous": false,
      "inputs": [
        {
          "indexed": false,
          "internalType": "uint64",
          "name": "version",
          "type": "uint64"
        }
      ],
      "name": "Initialized",
      "type": "event"
    },
    {
      "anonymous": false,
      "inputs": [
        {
          "indexed": true,
          "internalType": "address",
          "name": "previousOwner",
          "type": "address"
        },
        {
          "indexed": true,
          "internalType": "address",
          "name": "newOwner",
          "type": "address"
        }
      ],
      "name": "OwnershipTransferred",
      "type": "event"
    },
    {
      "anonymous": false,
      "inputs": [
        {
          "indexed": false,
          "internalType": "address",
          "name": "account",
          "type": "address"
        }
      ],
      "name": "Paused",
      "type": "event"
    },
    {
      "anonymous": false,
      "inputs": [
        {
          "indexed": true,
          "internalType": "address",
          "name": "from",
          "type": "address"
        },
        {
          "indexed": true,
          "internalType": "address",
          "name": "to",
          "type": "address"
        },
        {
          "indexed": false,
          "internalType": "uint256",
          "name": "value",
          "type": "uint256"
        }
      ],
      "name": "Transfer",
      "type": "event"
    },
    {
      "anonymous": false,
      "inputs": [
        {
          "indexed": false,
          "internalType": "address",
          "name": "account",
          "type": "address"
        }
      ],
      "name": "Unpaused",
      "type": "event"
    },
    {
      "anonymous": false,
      "inputs": [
        {
          "indexed": true,
          "internalType": "address",
          "name": "implementation",
          "type": "address"
        }
      ],
      "name": "Upgraded",
      "type": "event"
    },
    {
      "inputs": [],
      "name": "UPGRADE_INTERFACE_VERSION",
      "outputs": [
        {
          "internalType": "string",
          "name": "",
          "type": "string"
        }
      ],
      "stateMutability": "view",
      "type": "function"
    },
    {
      "inputs": [],
      "name": "accumulatedAssetB",
      "outputs": [
        {
          "internalType": "uint256",
          "name": "",
          "type": "uint256"
        }
      ],
      "stateMutability": "view",
      "type": "function"
    },
    {
      "inputs": [],
      "name": "allTimeInterest",
      "outputs": [
        {
          "internalType": "uint256",
          "name": "",
          "type": "uint256"
        }
      ],
      "stateMutability": "view",
      "type": "function"
    },
    {
      "inputs": [
        {
          "internalType": "address",
          "name": "owner",
          "type": "address"
        },
        {
          "internalType": "address",
          "name": "spender",
          "type": "address"
        }
      ],
      "name": "allowance",
      "outputs": [
        {
          "internalType": "uint256",
          "name": "",
          "type": "uint256"
        }
      ],
      "stateMutability": "view",
      "type": "function"
    },
    {
      "inputs": [
        {
          "internalType": "address",
          "name": "spender",
          "type": "address"
        },
        {
          "internalType": "uint256",
          "name": "value",
          "type": "uint256"
        }
      ],
      "name": "approve",
      "outputs": [
        {
          "internalType": "bool",
          "name": "",
          "type": "bool"
        }
      ],
      "stateMutability": "nonpayable",
      "type": "function"
    },
    {
      "inputs": [
        {
          "internalType": "address",
          "name": "account",
          "type": "address"
        }
      ],
      "name": "balanceOf",
      "outputs": [
        {
          "internalType": "uint256",
          "name": "",
          "type": "uint256"
        }
      ],
      "stateMutability": "view",
      "type": "function"
    },
    {
      "inputs": [],
      "name": "baseAsset",
      "outputs": [
        {
          "internalType": "address",
          "name": "",
          "type": "address"
        }
      ],
      "stateMutability": "view",
      "type": "function"
    },
    {
      "inputs": [],
      "name": "buy",
      "outputs": [],
      "stateMutability": "nonpayable",
      "type": "function"
    },
    {
      "inputs": [],
      "name": "decimals",
      "outputs": [
        {
          "internalType": "uint8",
          "name": "",
          "type": "uint8"
        }
      ],
      "stateMutability": "view",
      "type": "function"
    },
    {
      "inputs": [
        {
          "internalType": "uint256",
          "name": "amount",
          "type": "uint256"
        },
        {
          "internalType": "address",
          "name": "to",
          "type": "address"
        }
      ],
      "name": "deposit",
      "outputs": [],
      "stateMutability": "nonpayable",
      "type": "function"
    },
    {
      "inputs": [
        {
          "internalType": "string",
          "name": "_name",
          "type": "string"
        },
        {
          "internalType": "string",
          "name": "_symbol",
          "type": "string"
        },
        {
          "internalType": "address",
          "name": "_assetA",
          "type": "address"
        },
        {
          "internalType": "address",
          "name": "_yearnVaultAddress",
          "type": "address"
        },
        {
          "internalType": "address",
          "name": "_assetB",
          "type": "address"
        },
        {
          "internalType": "address",
          "name": "_registryAddress",
          "type": "address"
        }
      ],
      "name": "initialize",
      "outputs": [],
      "stateMutability": "nonpayable",
      "type": "function"
    },
    {
      "inputs": [],
      "name": "interestEarned",
      "outputs": [
        {
          "internalType": "uint256",
          "name": "",
          "type": "uint256"
        }
      ],
      "stateMutability": "view",
      "type": "function"
    },
    {
      "inputs": [],
      "name": "lastDeposit",
      "outputs": [
        {
          "internalType": "uint256",
          "name": "",
          "type": "uint256"
        }
      ],
      "stateMutability": "view",
      "type": "function"
    },
    {
      "inputs": [],
      "name": "name",
      "outputs": [
        {
          "internalType": "string",
          "name": "",
          "type": "string"
        }
      ],
      "stateMutability": "view",
      "type": "function"
    },
    {
      "inputs": [],
      "name": "owner",
      "outputs": [
        {
          "internalType": "address",
          "name": "",
          "type": "address"
        }
      ],
      "stateMutability": "view",
      "type": "function"
    },
    {
      "inputs": [],
      "name": "pause",
      "outputs": [],
      "stateMutability": "nonpayable",
      "type": "function"
    },
    {
      "inputs": [],
      "name": "paused",
      "outputs": [
        {
          "internalType": "bool",
          "name": "",
          "type": "bool"
        }
      ],
      "stateMutability": "view",
      "type": "function"
    },
    {
      "inputs": [],
      "name": "proxiableUUID",
      "outputs": [
        {
          "internalType": "bytes32",
          "name": "",
          "type": "bytes32"
        }
      ],
      "stateMutability": "view",
      "type": "function"
    },
    {
      "inputs": [],
      "name": "quoteAsset",
      "outputs": [
        {
          "internalType": "address",
          "name": "",
          "type": "address"
        }
      ],
      "stateMutability": "view",
      "type": "function"
    },
    {
      "inputs": [],
      "name": "registry",
      "outputs": [
        {
          "internalType": "address",
          "name": "",
          "type": "address"
        }
      ],
      "stateMutability": "view",
      "type": "function"
    },
    {
      "inputs": [
        {
          "internalType": "string",
          "name": "_name",
          "type": "string"
        },
        {
          "internalType": "string",
          "name": "_symbol",
          "type": "string"
        },
        {
          "internalType": "address",
          "name": "_assetA",
          "type": "address"
        },
        {
          "internalType": "address",
          "name": "_yearnVaultAddress",
          "type": "address"
        },
        {
          "internalType": "address",
          "name": "_assetB",
          "type": "address"
        },
        {
          "internalType": "address",
          "name": "_registryAddress",
          "type": "address"
        },
        {
          "internalType": "uint64",
          "name": "_version",
          "type": "uint64"
        }
      ],
      "name": "reinitialize",
      "outputs": [],
      "stateMutability": "nonpayable",
      "type": "function"
    },
    {
      "inputs": [],
      "name": "renounceOwnership",
      "outputs": [],
      "stateMutability": "nonpayable",
      "type": "function"
    },
    {
      "inputs": [],
      "name": "symbol",
      "outputs": [
        {
          "internalType": "string",
          "name": "",
          "type": "string"
        }
      ],
      "stateMutability": "view",
      "type": "function"
    },
    {
      "inputs": [],
      "name": "totalSupply",
      "outputs": [
        {
          "internalType": "uint256",
          "name": "",
          "type": "uint256"
        }
      ],
      "stateMutability": "view",
      "type": "function"
    },
    {
      "inputs": [],
      "name": "totalValuation",
      "outputs": [
        {
          "internalType": "uint256",
          "name": "",
          "type": "uint256"
        }
      ],
      "stateMutability": "view",
      "type": "function"
    },
    {
      "inputs": [
        {
          "internalType": "address",
          "name": "to",
          "type": "address"
        },
        {
          "internalType": "uint256",
          "name": "value",
          "type": "uint256"
        }
      ],
      "name": "transfer",
      "outputs": [
        {
          "internalType": "bool",
          "name": "",
          "type": "bool"
        }
      ],
      "stateMutability": "nonpayable",
      "type": "function"
    },
    {
      "inputs": [
        {
          "internalType": "address",
          "name": "from",
          "type": "address"
        },
        {
          "internalType": "address",
          "name": "to",
          "type": "address"
        },
        {
          "internalType": "uint256",
          "name": "value",
          "type": "uint256"
        }
      ],
      "name": "transferFrom",
      "outputs": [
        {
          "internalType": "bool",
          "name": "",
          "type": "bool"
        }
      ],
      "stateMutability": "nonpayable",
      "type": "function"
    },
    {
      "inputs": [
        {
          "internalType": "address",
          "name": "newOwner",
          "type": "address"
        }
      ],
      "name": "transferOwnership",
      "outputs": [],
      "stateMutability": "nonpayable",
      "type": "function"
    },
    {
      "inputs": [],
      "name": "unitPrice",
      "outputs": [
        {
          "internalType": "uint256",
          "name": "",
          "type": "uint256"
        }
      ],
      "stateMutability": "view",
      "type": "function"
    },
    {
      "inputs": [],
      "name": "unpause",
      "outputs": [],
      "stateMutability": "nonpayable",
      "type": "function"
    },
    {
      "inputs": [
        {
          "internalType": "address",
          "name": "newImplementation",
          "type": "address"
        },
        {
          "internalType": "bytes",
          "name": "data",
          "type": "bytes"
        }
      ],
      "name": "upgradeToAndCall",
      "outputs": [],
      "stateMutability": "payable",
      "type": "function"
    },
    {
      "inputs": [
        {
          "internalType": "uint256",
          "name": "shares",
          "type": "uint256"
        },
        {
          "internalType": "address",
          "name": "to",
          "type": "address"
        }
      ],
      "name": "withdraw",
      "outputs": [],
      "stateMutability": "nonpayable",
      "type": "function"
    },
    {
      "inputs": [],
      "name": "yearnVault",
      "outputs": [
        {
          "internalType": "address",
          "name": "",
          "type": "address"
        }
      ],
      "stateMutability": "view",
      "type": "function"
    }
  ],
  "bytecode": "0x60a06040523461003e5761001161004d565b610019610043565b616c7261010282396080518181816152fd01528181615382015261557d0152616c7290f35b610049565b60405190565b5f80fd5b610055610057565b565b61005f610061565b565b61006961006b565b565b610073610075565b565b61007d61007f565b565b610087610089565b565b610091610093565b565b61009b61009d565b565b6100a56100a7565b565b6100af6100f3565b565b60018060a01b031690565b90565b6100d36100ce6100d8926100b1565b6100bc565b6100b1565b90565b6100e4906100bf565b90565b6100f0906100db565b90565b6100fc306100e7565b60805256fe60806040526004361015610013575b610fdf565b61001d5f3561022b565b8062f714ce1461022657806306fdde0314610221578063095ea7b31461021c57806318160ddd1461021757806323b872dd14610212578063295b93001461020d578063313ce5671461020857806336b7710714610203578063374261ab146101fe5780633f4ba83a146101f95780634f1ef286146101f457806352d1902d146101ef5780635c975abb146101ea5780636560bc80146101e55780636e553f65146101e057806370a08231146101db578063715018a6146101d65780637b103999146101d15780638456cb59146101cc57806388696f62146101c75780638da5cb5b146101c257806395d89b41146101bd5780639db5df46146101b8578063a6f2ae3a146101b3578063a9059cbb146101ae578063ad3cb1cc146101a9578063cdf456e1146101a4578063dd62ed3e1461019f578063e56f2fe41461019a578063e73faa2d14610195578063f2fde38b14610190578063f7fde10f1461018b5763fdf262b70361000e57610faa565b610f66565b610f24565b610eef565b610eb5565b610deb565b610d89565b610d08565b610c5a565b610c27565b610bf2565b610bbd565b610b88565b610b4e565b6109cf565b61099a565b610945565b610910565b6108be565b610889565b610845565b610810565b6107c1565b61064f565b61061a565b6105e5565b610574565b610517565b6104e1565b610472565b61041a565b610391565b6102e3565b60e01c90565b60405190565b5f80fd5b5f80fd5b5f80fd5b90565b61024f81610243565b0361025657565b5f80fd5b9050359061026782610246565b565b73ffffffffffffffffffffffffffffffffffffffff1690565b61028b90610269565b90565b61029781610282565b0361029e57565b5f80fd5b905035906102af8261028e565b565b91906040838203126102d957806102cd6102d6925f860161025a565b936020016102a2565b90565b61023b565b5f0190565b34610312576102fc6102f63660046102b1565b906127e1565b610304610231565b8061030e816102de565b0390f35b610237565b5f91031261032157565b61023b565b5190565b60209181520190565b90825f9392825e0152565b601f801991011690565b6103676103706020936103759361035e81610326565b9384809361032a565b95869101610333565b61033e565b0190565b61038e9160208201915f818403910152610348565b90565b346103c1576103a1366004610317565b6103bd6103ac612922565b6103b4610231565b91829182610379565b0390f35b610237565b91906040838203126103ee57806103e26103eb925f86016102a2565b9360200161025a565b90565b61023b565b151590565b610401906103f3565b9052565b9190610418905f602085019401906103f8565b565b3461044b576104476104366104303660046103c6565b90612945565b61043e610231565b91829182610405565b0390f35b610237565b61045990610243565b9052565b9190610470905f60208501940190610450565b565b346104a257610482366004610317565b61049e61048d61298c565b610495610231565b9182918261045d565b0390f35b610237565b90916060828403126104dc576104d96104c2845f85016102a2565b936104d081602086016102a2565b9360400161025a565b90565b61023b565b346105125761050e6104fd6104f73660046104a7565b916129ab565b610505610231565b91829182610405565b0390f35b610237565b3461054757610527366004610317565b610543610532612a55565b61053a610231565b9182918261045d565b0390f35b610237565b60ff1690565b61055b9061054c565b9052565b9190610572905f60208501940190610552565b565b346105a457610584366004610317565b6105a061058f612f5f565b610597610231565b9182918261055f565b0390f35b610237565b1c90565b90565b6105c09060086105c593026105a9565b6105ad565b90565b906105d391546105b0565b90565b6105e260055f906105c8565b90565b34610615576105f5366004610317565b6106116106006105d6565b610608610231565b9182918261045d565b0390f35b610237565b3461064a5761062a366004610317565b610646610635612f75565b61063d610231565b9182918261045d565b0390f35b610237565b3461067d5761065f366004610317565b610667613100565b61066f610231565b80610679816102de565b0390f35b610237565b5f80fd5b5f80fd5b7f4e487b71000000000000000000000000000000000000000000000000000000005f52604160045260245ffd5b906106c19061033e565b810190811067ffffffffffffffff8211176106db57604052565b61068a565b906106f36106ec610231565b92836106b7565b565b67ffffffffffffffff81116107135761070f60209161033e565b0190565b61068a565b90825f939282370152565b90929192610738610733826106f5565b6106e0565b938185526020850190828401116107545761075292610718565b565b610686565b9080601f830112156107775781602061077493359101610723565b90565b610682565b9190916040818403126107bc57610795835f83016102a2565b92602082013567ffffffffffffffff81116107b7576107b49201610759565b90565b61023f565b61023b565b6107d56107cf36600461077c565b90613133565b6107dd610231565b806107e7816102de565b0390f35b90565b6107f7906107eb565b9052565b919061080e905f602085019401906107ee565b565b3461084057610820366004610317565b61083c61082b6131ae565b610833610231565b918291826107fb565b0390f35b610237565b3461087557610855366004610317565b6108716108606131e8565b610868610231565b91829182610405565b0390f35b610237565b61088660065f906105c8565b90565b346108b957610899366004610317565b6108b56108a461087a565b6108ac610231565b9182918261045d565b0390f35b610237565b346108ed576108d76108d13660046102b1565b90613a8e565b6108df610231565b806108e9816102de565b0390f35b610237565b9060208282031261090b57610908915f016102a2565b90565b61023b565b346109405761093c61092b6109263660046108f2565b613abc565b610933610231565b9182918261045d565b0390f35b610237565b3461097357610955366004610317565b61095d613b30565b610965610231565b8061096f816102de565b0390f35b610237565b61098190610282565b9052565b9190610998905f60208501940190610978565b565b346109ca576109aa366004610317565b6109c66109b5613b3e565b6109bd610231565b91829182610985565b0390f35b610237565b346109fd576109df366004610317565b6109e7613b78565b6109ef610231565b806109f9816102de565b0390f35b610237565b67ffffffffffffffff8111610a2057610a1c60209161033e565b0190565b61068a565b90929192610a3a610a3582610a02565b6106e0565b93818552602085019082840111610a5657610a5492610718565b565b610686565b9080601f83011215610a7957816020610a7693359101610a25565b90565b610682565b67ffffffffffffffff1690565b610a9481610a7e565b03610a9b57565b5f80fd5b90503590610aac82610a8b565b565b60e081830312610b49575f81013567ffffffffffffffff8111610b445782610ad7918301610a5b565b92602082013567ffffffffffffffff8111610b3f5783610af8918401610a5b565b92610b0681604085016102a2565b92610b1482606083016102a2565b92610b3c610b2584608085016102a2565b93610b338160a086016102a2565b9360c001610a9f565b90565b61023f565b61023f565b61023b565b34610b8357610b6d610b61366004610aae565b95949094939193614144565b610b75610231565b80610b7f816102de565b0390f35b610237565b34610bb857610b98366004610317565b610bb4610ba3614155565b610bab610231565b91829182610985565b0390f35b610237565b34610bed57610bcd366004610317565b610be9610bd8614173565b610be0610231565b91829182610379565b0390f35b610237565b34610c2257610c02366004610317565b610c1e610c0d614192565b610c15610231565b91829182610985565b0390f35b610237565b34610c5557610c37366004610317565b610c3f6141e6565b610c47610231565b80610c51816102de565b0390f35b610237565b34610c8b57610c87610c76610c703660046103c6565b906141f0565b610c7e610231565b91829182610405565b0390f35b610237565b90610ca2610c9d83610a02565b6106e0565b918252565b5f7f352e302e30000000000000000000000000000000000000000000000000000000910152565b610cd86005610c90565b90610ce560208301610ca7565b565b610cef610cce565b90565b610cfa610ce7565b90565b610d05610cf2565b90565b34610d3857610d18366004610317565b610d34610d23610cfd565b610d2b610231565b91829182610379565b0390f35b610237565b73ffffffffffffffffffffffffffffffffffffffff1690565b610d66906008610d6b93026105a9565b610d3d565b90565b90610d799154610d56565b90565b610d865f80610d6e565b90565b34610db957610d99366004610317565b610db5610da4610d7c565b610dac610231565b91829182610985565b0390f35b610237565b9190604083820312610de65780610dda610de3925f86016102a2565b936020016102a2565b90565b61023b565b34610e1c57610e18610e07610e01366004610dbe565b90614228565b610e0f610231565b9182918261045d565b0390f35b610237565b909160c082840312610eb0575f82013567ffffffffffffffff8111610eab5783610e4c918401610a5b565b92602083013567ffffffffffffffff8111610ea65781610e6d918501610a5b565b92610e7b82604083016102a2565b92610ea3610e8c84606085016102a2565b93610e9a81608086016102a2565b9360a0016102a2565b90565b61023f565b61023f565b61023b565b34610eea57610ed4610ec8366004610e21565b9493909392919261453f565b610edc610231565b80610ee6816102de565b0390f35b610237565b34610f1f57610eff366004610317565b610f1b610f0a61456e565b610f12610231565b9182918261045d565b0390f35b610237565b34610f5257610f3c610f373660046108f2565b614785565b610f44610231565b80610f4e816102de565b0390f35b610237565b610f6360045f906105c8565b90565b34610f9657610f76366004610317565b610f92610f81610f57565b610f89610231565b9182918261045d565b0390f35b610237565b610fa760025f90610d6e565b90565b34610fda57610fba366004610317565b610fd6610fc5610f9b565b610fcd610231565b91829182610985565b0390f35b610237565b5f80fd5b90610ff591610ff06147bc565b610fff565b610ffd614868565b565b906110119161100c614885565b611bc9565b565b90565b90565b61102d61102861103292611013565b611016565b610243565b90565b5f7f536861726573206d7573742062652067726561746572207468616e207a65726f910152565b6110686020809261032a565b61107181611035565b0190565b61108a9060208101905f81830391015261105c565b90565b1561109457565b61109c610231565b7f08c379a0000000000000000000000000000000000000000000000000000000008152806110cc60048201611075565b0390fd5b5f7f496e73756666696369656e742062616c616e6365000000000000000000000000910152565b611104601460209261032a565b61110d816110d0565b0190565b6111269060208101905f8183039101526110f7565b90565b1561113057565b611138610231565b7f08c379a00000000000000000000000000000000000000000000000000000000081528061116860048201611111565b0390fd5b5f7f546f74616c20737570706c792063616e6e6f74206265207a65726f0000000000910152565b6111a0601b60209261032a565b6111a98161116c565b0190565b6111c29060208101905f818303910152611193565b90565b156111cc57565b6111d4610231565b7f08c379a000000000000000000000000000000000000000000000000000000000815280611204600482016111ad565b0390fd5b5f1c90565b73ffffffffffffffffffffffffffffffffffffffff1690565b61123261123791611208565b61120d565b90565b6112449054611226565b90565b61125b61125661126092610269565b611016565b610269565b90565b61126c90611247565b90565b61127890611263565b90565b61128490611247565b90565b6112909061127b565b90565b61129c90611263565b90565b60e01b90565b6112ae8161054c565b036112b557565b5f80fd5b905051906112c6826112a5565b565b906020828203126112e1576112de915f016112b9565b90565b61023b565b6112ee610231565b3d5f823e3d90fd5b61130261130791611208565b610d3d565b90565b61131490546112f6565b90565b61132090611263565b90565b9050519061133082610246565b565b9060208282031261134b57611348915f01611323565b90565b61023b565b61135990611247565b90565b61136590611350565b90565b61137190611263565b90565b90565b61138b61138661139092611374565b611016565b61054c565b90565b7f4e487b71000000000000000000000000000000000000000000000000000000005f52601160045260245ffd5b6113cc6113d29161054c565b9161054c565b90039060ff82116113df57565b611393565b6113ed9061054c565b604d81116113fb57600a0a90565b611393565b7f4e487b71000000000000000000000000000000000000000000000000000000005f52601260045260245ffd5b61143961143f91610243565b91610243565b90811561144a570490565b611400565b60207f206f766572666c6f770000000000000000000000000000000000000000000000917f596561726e5661756c742062616c616e6365207363616c696e6720776f756c645f8201520152565b6114a9602960409261032a565b6114b28161144f565b0190565b6114cb9060208101905f81830391015261149c565b90565b156114d557565b6114dd610231565b7f08c379a00000000000000000000000000000000000000000000000000000000081528061150d600482016114b6565b0390fd5b60207f666c6f7700000000000000000000000000000000000000000000000000000000917f51756f74652062616c616e6365207363616c696e6720776f756c64206f7665725f8201520152565b61156b602460409261032a565b61157481611511565b0190565b61158d9060208101905f81830391015261155e565b90565b1561159757565b61159f610231565b7f08c379a0000000000000000000000000000000000000000000000000000000008152806115cf60048201611578565b0390fd5b6115e26115e891939293610243565b92610243565b916115f4838202610243565b92818404149015171561160357565b611393565b60207f7700000000000000000000000000000000000000000000000000000000000000917f5368617265732063616c63756c6174696f6e20776f756c64206f766572666c6f5f8201520152565b611662602160409261032a565b61166b81611608565b0190565b6116849060208101905f818303910152611655565b90565b1561168e57565b611696610231565b7f08c379a0000000000000000000000000000000000000000000000000000000008152806116c66004820161166f565b0390fd5b60207f6c74000000000000000000000000000000000000000000000000000000000000917f496e73756666696369656e742061737365747320696e20596561726e205661755f8201520152565b611724602260409261032a565b61172d816116ca565b0190565b6117469060208101905f818303910152611717565b90565b1561175057565b611758610231565b7f08c379a00000000000000000000000000000000000000000000000000000000081528061178860048201611731565b0390fd5b6040906117b56117bc94969593966117ab60608401985f850190610450565b6020830190610978565b0190610978565b565b5f7f426173652062616c616e636520636865636b206661696c656400000000000000910152565b6117f2601960209261032a565b6117fb816117be565b0190565b6118149060208101905f8183039101526117e5565b90565b1561181e57565b611826610231565b7f08c379a000000000000000000000000000000000000000000000000000000000815280611856600482016117ff565b0390fd5b61186961186f91939293610243565b92610243565b820391821161187a57565b611393565b5f7f48616972637574206578636565647320616d6f756e7400000000000000000000910152565b6118b3601660209261032a565b6118bc8161187f565b0190565b6118d59060208101905f8183039101526118a6565b90565b156118df57565b6118e7610231565b7f08c379a000000000000000000000000000000000000000000000000000000000815280611917600482016118c0565b0390fd5b60207f7920686169726375740000000000000000000000000000000000000000000000917f5365636f6e6461727920686169726375742065786365656473207072696d61725f8201520152565b611975602960409261032a565b61197e8161191b565b0190565b6119979060208101905f818303910152611968565b90565b156119a157565b6119a9610231565b7f08c379a0000000000000000000000000000000000000000000000000000000008152806119d960048201611982565b0390fd5b73ffffffffffffffffffffffffffffffffffffffff1690565b611a02611a0791611208565b6119dd565b90565b611a1490546119f6565b90565b611a2090611263565b90565b90505190611a308261028e565b565b90602082820312611a4b57611a48915f01611a23565b90565b61023b565b611a59816103f3565b03611a6057565b5f80fd5b90505190611a7182611a50565b565b90602082820312611a8c57611a89915f01611a64565b90565b61023b565b916020611ab2929493611aab60408201965f830190610978565b0190610450565b565b5f7f4661696c656420746f207472616e736665722071756f74654173736574000000910152565b611ae8601d60209261032a565b611af181611ab4565b0190565b611b0a9060208101905f818303910152611adb565b90565b15611b1457565b611b1c610231565b7f08c379a000000000000000000000000000000000000000000000000000000000815280611b4c60048201611af5565b0390fd5b5f1b90565b90611b807fffffffffffffffffffffffffffffffffffffffffffffffffffffffffffffffff91611b50565b9181191691161790565b611b9e611b99611ba392610243565b611016565b610243565b90565b90565b90611bbe611bb9611bc592611b8a565b611ba6565b8254611b55565b9055565b611be581611bdf611bd95f611019565b91610243565b1161108d565b611c0a611bf133613abc565b611c03611bfd84610243565b91610243565b1015611129565b611c2d611c1561298c565b611c27611c215f611019565b91610243565b116111c5565b611c6a6020611c54611c4f611c4a611c45600161123a565b61126f565b611287565b611293565b63313ce56790611c62610231565b93849261129f565b82528180611c7a600482016102de565b03915afa9081156127dc575f916127ae575b5090611cc36020611cad611ca8611ca3600261130a565b611287565b611293565b63313ce56790611cbb610231565b93849261129f565b82528180611cd3600482016102de565b03915afa9081156127a9575f9161277b575b5090611d306020611cfe611cf9600161123a565b61126f565b6370a0823190611d25611d1030611317565b92611d19610231565b9586948593849361129f565b835260048301610985565b03915afa908115612776575f91612748575b5090611d956020611d63611d5e611d59600261130a565b61135c565b611368565b6370a0823190611d8a611d7530611317565b92611d7e610231565b9586948593849361129f565b835260048301610985565b03915afa908115612743575f91612715575b5093611df96020611dc7611dc2611dbd5f61130a565b61135c565b611368565b6370a0823190611dee611dd930611317565b92611de2610231565b9586948593849361129f565b835260048301610985565b03915afa908115612710575f916126e2575b5092807fffffffffffffffffffffffffffffffffffffffffffffffffffffffffffffffff60128490611e3c90611377565b90611e46916113c0565b611e4f906113e4565b611e589161142d565b611e6190610243565b90611e6b90610243565b1115611e76906114ce565b857fffffffffffffffffffffffffffffffffffffffffffffffffffffffffffffffff60128790611ea590611377565b90611eaf916113c0565b611eb8906113e4565b611ec19161142d565b611eca90610243565b90611ed490610243565b1115611edf90611590565b60128290611eec90611377565b90611ef6916113c0565b611eff906113e4565b611f08916115d3565b9460128590611f1690611377565b90611f20916113c0565b611f29906113e4565b611f32916115d3565b90827fffffffffffffffffffffffffffffffffffffffffffffffffffffffffffffffff87611f5f9161142d565b611f6890610243565b90611f7290610243565b1115611f7d90611687565b827fffffffffffffffffffffffffffffffffffffffffffffffffffffffffffffffff83611fa99161142d565b611fb290610243565b90611fbc90610243565b1115611fc790611687565b8286611fd2916115d3565b611fda61298c565b611fe39161142d565b918390611fef916115d3565b611ff761298c565b6120009161142d565b92339061200c916148cf565b601261201790611377565b90612021916113c0565b61202a906113e4565b6120339161142d565b92601261203f90611377565b90612049916113c0565b612052906113e4565b61205b9161142d565b9282612067600161123a565b6120709061126f565b6307a2d13a61207d610231565b8094612089829361129f565b825260048201906120999161045d565b03815a93602094fa80156126dd576120bf6120c5916120cc945f916126af575b50610243565b91610243565b1115611749565b60206120e06120db600161123a565b61126f565b63ba08765293906121155f6120f430611317565b9661212061210130611317565b612109610231565b998a978896879561129f565b85526004850161178c565b03925af19182156126aa576121829261267e575b50602061215061214b6121465f61130a565b61135c565b611368565b6370a082319061217761216230611317565b9261216b610231565b9687948593849361129f565b835260048301610985565b03915afa8015612679576121ba925f9161264b575b506121b5816121ae6121a885610243565b91610243565b1015611817565b61185a565b806121cd6121c75f611019565b91610243565b11612330575b50806121e76121e15f611019565b91610243565b11612317575b50506122016121fc600161123a565b61126f565b6122506307a2d13a91602061221e612219600161123a565b61126f565b6370a082319061224561223030611317565b92612239610231565b9687948593849361129f565b835260048301610985565b03915afa9081156123125761228d936020935f936122df575b5061228290612276610231565b9586948593849361129f565b83526004830161045d565b03915afa80156122da576122aa915f916122ac575b506005611ba9565b565b6122cd915060203d81116122d3575b6122c581836106b7565b810190611332565b5f6122a2565b503d6122bb565b6112e6565b61228291935061230490853d811161230b575b6122fc81836106b7565b810190611332565b9290612269565b503d6122f2565b6112e6565b6123299161232491614bd1565b611b0d565b5f806121ed565b6123398161494e565b906123578261235061234a84610243565b91610243565b11156118d8565b61236281839061185a565b5061236c8261494e565b6123898161238261237c86610243565b91610243565b111561199a565b6123b660206123a061239b6003611a0a565b611a17565b6304cc7325906123ae610231565b93849261129f565b825281806123c6600482016102de565b03915afa908115612646575f91612618575b509161240760206123f16123ec6003611a0a565b611a17565b633b19e84a906123ff610231565b93849261129f565b82528180612417600482016102de565b03915afa908115612613575f916125e5575b5093602061244661244161243c5f61130a565b61135c565b611368565b9263a9059cbb936124755f61245d8c94879061185a565b96612480612469610231565b9889968795869461129f565b845260048401611a91565b03925af19182156125e0576020926125b5575b506124ad6124a86124a35f61130a565b61135c565b611368565b6124da5f6124c263a9059cbb9794879061185a565b966124e56124ce610231565b9889968795869461129f565b845260048401611a91565b03925af19182156125b057602092612585575b5061251261250d6125085f61130a565b61135c565b611368565b6125355f63a9059cbb959395612540612529610231565b9788968795869461129f565b845260048401611a91565b03925af1801561258057612554575b6121d3565b6125749060203d8111612579575b61256c81836106b7565b810190611a73565b61254f565b503d612562565b6112e6565b6125a490833d81116125a9575b61259c81836106b7565b810190611a73565b6124f8565b503d612592565b6112e6565b6125d490833d81116125d9575b6125cc81836106b7565b810190611a73565b612493565b503d6125c2565b6112e6565b612606915060203d811161260c575b6125fe81836106b7565b810190611a32565b5f612429565b503d6125f4565b6112e6565b612639915060203d811161263f575b61263181836106b7565b810190611a32565b5f6123d8565b503d612627565b6112e6565b61266c915060203d8111612672575b61266481836106b7565b810190611332565b5f612197565b503d61265a565b6112e6565b61269e9060203d81116126a3575b61269681836106b7565b810190611332565b612134565b503d61268c565b6112e6565b6126d0915060203d81116126d6575b6126c881836106b7565b810190611332565b5f6120b9565b503d6126be565b6112e6565b612703915060203d8111612709575b6126fb81836106b7565b810190611332565b5f611e0b565b503d6126f1565b6112e6565b612736915060203d811161273c575b61272e81836106b7565b810190611332565b5f611da7565b503d612724565b6112e6565b612769915060203d811161276f575b61276181836106b7565b810190611332565b5f611d42565b503d612757565b6112e6565b61279c915060203d81116127a2575b61279481836106b7565b8101906112c8565b5f611ce5565b503d61278a565b6112e6565b6127cf915060203d81116127d5575b6127c781836106b7565b8101906112c8565b5f611c8c565b503d6127bd565b6112e6565b906127eb91610fe3565b565b606090565b7f4e487b71000000000000000000000000000000000000000000000000000000005f52602260045260245ffd5b906001600283049216801561283f575b602083101461283a57565b6127f2565b91607f169161282f565b60209181520190565b5f5260205f2090565b905f929180549061287561286e8361281f565b8094612849565b916001811690815f146128cc5750600114612890575b505050565b61289d9192939450612852565b915f925b8184106128b457505001905f808061288b565b600181602092959395548486015201910192906128a1565b92949550505060ff19168252151560200201905f808061288b565b906128f19161285b565b90565b9061291461290d92612904610231565b938480926128e7565b03836106b7565b565b61291f906128f4565b90565b61292a6127ed565b5061293e6003612938614fa0565b01612916565b90565b5f90565b61296291612951612941565b5061295a614fc4565b919091614fd1565b600190565b5f90565b61297761297c91611208565b6105ad565b90565b612989905461296b565b90565b612994612967565b506129a860026129a2614fa0565b0161297f565b90565b916129d5926129b8612941565b506129cd6129c4614fc4565b82908491615021565b9190916150ec565b600190565b6129e390611247565b90565b6129ef906129da565b90565b6129fb90611263565b90565b604090612a27612a2e9496959396612a1d60608401985f850190610978565b6020830190610978565b0190610450565b565b612a3f612a4591939293610243565b92610243565b8201809211612a5057565b611393565b612a5d612967565b50612a8b6020612a75612a706003611a0a565b611a17565b63bb3ba04c90612a83610231565b93849261129f565b82528180612a9b600482016102de565b03915afa8015612f5657612ab6915f91612f28575b506129e6565b612ae36020612acd612ac86003611a0a565b611a17565b631bf01e9b90612adb610231565b93849261129f565b82528180612af3600482016102de565b03915afa908115612f23575f91612ef5575b5090612b105f611019565b612b596020612b27612b22600161123a565b61126f565b6370a0823190612b4e612b3930611317565b92612b42610231565b9586948593849361129f565b835260048301610985565b03915afa908115612ef057612bac916020915f91612ec3575b50612b85612b80600161123a565b61126f565b612ba16307a2d13a612b95610231565b9586948593849361129f565b83526004830161045d565b03915afa908115612ebe575f91612e90575b50612c106020612bde612bd9612bd4600261130a565b61135c565b611368565b6370a0823190612c05612bf030611317565b92612bf9610231565b9586948593849361129f565b835260048301610985565b03915afa908115612e8b575f91612e5d575b50612c2c5f61130a565b612c3e612c3887610282565b91610282565b03612dc1575b6020612c4f856129f2565b63248391ff90612c84612c62600261130a565b92612c8f612c6f5f61130a565b96612c78610231565b9788968795869561129f565b8552600485016129fe565b03915afa8015612dbc57612cb393612cae925f92612d8c575b50612a30565b612a30565b91612cbc612f75565b91612cc65f61130a565b612cd8612cd284610282565b91610282565b03612cee575b505090612ceb9190612a30565b90565b612cf96020916129f2565b9163248391ff92612d26612d0c5f61130a565b9294612d3187612d1a610231565b9788968795869561129f565b8552600485016129fe565b03915afa8015612d8757612ceb93612d50925f92612d57575b50612a30565b915f612cde565b612d7991925060203d8111612d80575b612d7181836106b7565b810190611332565b905f612d4a565b503d612d67565b6112e6565b612dae91925060203d8111612db5575b612da681836106b7565b810190611332565b905f612ca8565b503d612d9c565b6112e6565b91612dcb846129f2565b90602063248391ff92612ddd5f61130a565b90612dfb8995612e0688612def610231565b9889968795869561129f565b8552600485016129fe565b03915afa908115612e5857612e22925f92612e28575b50612a30565b91612c44565b612e4a91925060203d8111612e51575b612e4281836106b7565b810190611332565b905f612e1c565b503d612e38565b6112e6565b612e7e915060203d8111612e84575b612e7681836106b7565b810190611332565b5f612c22565b503d612e6c565b6112e6565b612eb1915060203d8111612eb7575b612ea981836106b7565b810190611332565b5f612bbe565b503d612e9f565b6112e6565b612ee39150823d8111612ee9575b612edb81836106b7565b810190611332565b5f612b72565b503d612ed1565b6112e6565b612f16915060203d8111612f1c575b612f0e81836106b7565b810190611a32565b5f612b05565b503d612f04565b6112e6565b612f49915060203d8111612f4f575b612f4181836106b7565b810190611a32565b5f612ab0565b503d612f37565b6112e6565b5f90565b612f67612f5b565b50612f726012611377565b90565b612f7d612967565b50612f90612f8b600161123a565b61126f565b612fdf6307a2d13a916020612fad612fa8600161123a565b61126f565b6370a0823190612fd4612fbf30611317565b92612fc8610231565b9687948593849361129f565b835260048301610985565b03915afa9081156130df5761301c936020935f936130ac575b5061301190613005610231565b9586948593849361129f565b83526004830161045d565b03915afa9081156130a7575f91613079575b508061304b613045613040600561297f565b610243565b91610243565b115f1461306a5761306690613060600561297f565b9061185a565b5b90565b506130745f611019565b613067565b61309a915060203d81116130a0575b61309281836106b7565b810190611332565b5f61302e565b503d613088565b6112e6565b6130119193506130d190853d81116130d8575b6130c981836106b7565b810190611332565b9290612ff8565b503d6130bf565b6112e6565b6130ec6151c9565b6130f46130f6565b565b6130fe6152d6565b565b6131086130e4565b565b9061311c916131176152ec565b61311e565b565b906131319161312c816153be565b61542e565b565b9061313d9161310a565b565b5f90565b6131549061314f61556c565b6131a2565b90565b90565b61316e61316961317392613157565b611b50565b6107eb565b90565b61319f7f360894a13ba1a3210667c828492db98dca3e2076cc3735a920a3ca505d382bbc61315a565b90565b506131ab613176565b90565b6131be6131b961313f565b613143565b90565b60ff1690565b6131d36131d891611208565b6131c1565b90565b6131e590546131c7565b90565b6131f0612941565b506132035f6131fd6155ea565b016131db565b90565b90613218916132136147bc565b613222565b613220614868565b565b906132349161322f614885565b6132f4565b565b5f7f416d6f756e74206d7573742062652067726561746572207468616e207a65726f910152565b6132696020809261032a565b61327281613236565b0190565b61328b9060208101905f81830391015261325d565b90565b1561329557565b61329d610231565b7f08c379a0000000000000000000000000000000000000000000000000000000008152806132cd60048201613276565b0390fd5b9160206132f29294936132eb60408201965f830190610450565b0190610978565b565b6133108161330a6133045f611019565b91610243565b1161328e565b61331861562a565b61333161332c6133275f61130a565b61135c565b611368565b60206323b872dd9133906133615f61334830611317565b9561336c88613355610231565b9889978896879561129f565b8552600485016129fe565b03925af18015613a8957613a5d575b506133a9602061339361338e6003611a0a565b611a17565b6304cc7325906133a1610231565b93849261129f565b825281806133b9600482016102de565b03915afa908115613a58575f91613a2a575b506133f960206133e36133de6003611a0a565b611a17565b633b19e84a906133f1610231565b93849261129f565b82528180613409600482016102de565b03915afa908115613a25575f916139f7575b50916134268161494e565b916134308361494e565b602061344b6134466134415f61130a565b61135c565b611368565b63a9059cbb93906134795f61346189879061185a565b9661348461346d610231565b9889968795869461129f565b845260048401611a91565b03925af19182156139f2576020926139c7575b506134b16134ac6134a75f61130a565b61135c565b611368565b6134d45f63a9059cbb9793976134df6134c8610231565b998a968795869461129f565b845260048401611a91565b03925af19283156139c2576134f993613996575b5061185a565b9061351361350e6135095f61130a565b61135c565b611368565b602063095ea7b39161352d613528600161123a565b61126f565b9061354b5f879561355661353f610231565b9788968795869461129f565b845260048401611a91565b03925af1801561399157613965575b50613578613573600161123a565b61126f565b916020636e553f659382906135a85f61359030611317565b976135b361359c610231565b998a968795869461129f565b8452600484016132d1565b03925af1928315613960576135f993613934575b5060206135e36135de6135d95f61130a565b611287565b611293565b63313ce567906135f1610231565b95869261129f565b82528180613609600482016102de565b03915afa801561392f57613659935f91613901575b50602061364361363e613639613634600161123a565b61126f565b611287565b611293565b63313ce56790613651610231565b96879261129f565b82528180613669600482016102de565b03915afa80156138fc576136d36136de936136d8926136e4975f916138ce575b50938061369e6136988761054c565b9161054c565b115f146138ad576136bc6136b76136c2939287906113c0565b6113e4565b9061142d565b5b926136ce6012611377565b6113c0565b6113e4565b906115d3565b9061590e565b6136f66136f1600161123a565b61126f565b6137456307a2d13a91602061371361370e600161123a565b61126f565b6370a082319061373a61372530611317565b9261372e610231565b9687948593849361129f565b835260048301610985565b03915afa9081156138a857613782936020935f93613875575b506137779061376b610231565b9586948593849361129f565b83526004830161045d565b03915afa80156138705761379f915f91613842575b506005611ba9565b6137f060206137be6137b96137b4600261130a565b61135c565b611368565b6370a08231906137e56137d030611317565b926137d9610231565b9586948593849361129f565b835260048301610985565b03915afa801561383d5761380d915f9161380f575b506004611ba9565b565b613830915060203d8111613836575b61382881836106b7565b810190611332565b5f613805565b503d61381e565b6112e6565b613863915060203d8111613869575b61385b81836106b7565b810190611332565b5f613797565b503d613851565b6112e6565b61377791935061389a90853d81116138a1575b61389281836106b7565b810190611332565b929061375e565b503d613888565b6112e6565b6138c36138be6138c99392876113c0565b6113e4565b906115d3565b6136c3565b6138ef915060203d81116138f5575b6138e781836106b7565b8101906112c8565b5f613689565b503d6138dd565b6112e6565b613922915060203d8111613928575b61391a81836106b7565b8101906112c8565b5f61361e565b503d613910565b6112e6565b6139549060203d8111613959575b61394c81836106b7565b810190611332565b6135c7565b503d613942565b6112e6565b6139859060203d811161398a575b61397d81836106b7565b810190611a73565b613565565b503d613973565b6112e6565b6139b69060203d81116139bb575b6139ae81836106b7565b810190611a73565b6134f3565b503d6139a4565b6112e6565b6139e690833d81116139eb575b6139de81836106b7565b810190611a73565b613497565b503d6139d4565b6112e6565b613a18915060203d8111613a1e575b613a1081836106b7565b810190611a32565b5f61341b565b503d613a06565b6112e6565b613a4b915060203d8111613a51575b613a4381836106b7565b810190611a32565b5f6133cb565b503d613a39565b6112e6565b613a7d9060203d8111613a82575b613a7581836106b7565b810190611a73565b61337b565b503d613a6b565b6112e6565b90613a9891613206565b565b613aa390611263565b90565b90613ab090613a9a565b5f5260205260405f2090565b613adb613ae091613acb612967565b505f613ad5614fa0565b01613aa6565b61297f565b90565b613aeb6151c9565b613af3613b1d565b565b613b09613b04613b0e92611013565b611016565b610269565b90565b613b1a90613af5565b90565b613b2e613b295f613b11565b61598c565b565b613b38613ae3565b565b5f90565b613b46613b3a565b50613b59613b546003611a0a565b611a17565b90565b613b646151c9565b613b6c613b6e565b565b613b76615a62565b565b613b80613b5c565b565b60401c90565b613b94613b9991613b82565b6131c1565b90565b613ba69054613b88565b90565b67ffffffffffffffff1690565b613bc2613bc791611208565b613ba9565b90565b613bd49054613bb6565b90565b90613bea67ffffffffffffffff91611b50565b9181191691161790565b613c08613c03613c0d92610a7e565b611016565b610a7e565b90565b90565b90613c28613c23613c2f92613bf4565b613c10565b8254613bd7565b9055565b60401b90565b90613c4d68ff000000000000000091613c33565b9181191691161790565b613c60906103f3565b90565b90565b90613c7b613c76613c8292613c57565b613c63565b8254613c39565b9055565b613c8f90610a7e565b9052565b9190613ca6905f60208501940190613c86565b565b929591939490948296613cb9615a6c565b95613cc55f8801613b9c565b8015613d76575b613d3a57613cff97613cf696613ce48b5f8b01613c13565b613cf160015f8b01613c66565b614049565b5f809101613c66565b613d357fc7f505b2f371ae2175ee4913f4499e1f2633a7b5936321eed1cdaeb6115181d291613d2c610231565b91829182613c93565b0390a1565b613d42610231565b7ff92ee8a900000000000000000000000000000000000000000000000000000000815280613d72600482016102de565b0390fd5b50613d825f8801613bca565b613d94613d8e8b610a7e565b91610a7e565b1015613ccc565b90613dba73ffffffffffffffffffffffffffffffffffffffff91611b50565b9181191691161790565b90565b90613ddc613dd7613de392613a9a565b613dc4565b8254613d9b565b9055565b613df090611247565b90565b613dfc90613de7565b90565b613e0890613de7565b90565b90565b90613e23613e1e613e2a92613dff565b613e0b565b8254613d9b565b9055565b613e3790611247565b90565b613e4390613e2e565b90565b613e4f90613e2e565b90565b90565b90613e6a613e65613e7192613e46565b613e52565b8254613d9b565b9055565b5f7f496e76616c696420617373657441206164647265737300000000000000000000910152565b613ea9601660209261032a565b613eb281613e75565b0190565b613ecb9060208101905f818303910152613e9c565b90565b15613ed557565b613edd610231565b7f08c379a000000000000000000000000000000000000000000000000000000000815280613f0d60048201613eb6565b0390fd5b5f7f496e76616c696420596561726e205661756c7420616464726573730000000000910152565b613f45601b60209261032a565b613f4e81613f11565b0190565b613f679060208101905f818303910152613f38565b90565b15613f7157565b613f79610231565b7f08c379a000000000000000000000000000000000000000000000000000000000815280613fa960048201613f52565b0390fd5b5f7f496e76616c696420617373657442206164647265737300000000000000000000910152565b613fe1601660209261032a565b613fea81613fad565b0190565b6140039060208101905f818303910152613fd4565b90565b1561400d57565b614015610231565b7f08c379a00000000000000000000000000000000000000000000000000000000081528061404560048201613fee565b0390fd5b6140b196506140a5936140926140aa97969461407461409e956140979561406f33615aae565b615ad9565b61407c615aef565b614084615b15565b61408c615b3b565b5f613dc7565b613df3565b6001613e0e565b6002613dc7565b613e3a565b6003613e55565b6140de6140bd5f61130a565b6140d76140d16140cc5f613b11565b610282565b91610282565b1415613ece565b6141146140f36140ee600161123a565b61126f565b61410d6141076141025f613b11565b610282565b91610282565b1415613f6a565b614142614121600261130a565b61413b6141356141305f613b11565b610282565b91610282565b1415614006565b565b90614153969594939291613ca8565b565b61415d613b3a565b506141705f61416a615b45565b0161130a565b90565b61417b6127ed565b5061418f6004614189614fa0565b01612916565b90565b61419a613b3a565b506141ad6141a8600161123a565b61126f565b90565b6141b86147bc565b6141c06141ca565b6141c8614868565b565b6141d2614885565b6141da6141dc565b565b6141e4615d4c565b565b6141ee6141b0565b565b61420d916141fc612941565b50614205614fc4565b9190916150ec565b600190565b9061421c90613a9a565b5f5260205260405f2090565b6142569161424c6142519261423b612967565b506001614246614fa0565b01614212565b613aa6565b61297f565b90565b61426d61426861427292611013565b611016565b610a7e565b90565b90565b61428c61428761429192614275565b611016565b610a7e565b90565b61429d90611263565b90565b6142a990614278565b9052565b91906142c0905f602085019401906142a0565b565b929491949390936142d1615a6c565b956142e66142e05f8901613b9c565b156103f3565b956142f25f8901613bca565b806143056142ff5f614259565b91610a7e565b148061443f575b9061432061431a6001614278565b91610a7e565b1480614417575b6143329091156103f3565b9081614406575b506143ca576143629561435761434f6001614278565b5f8b01613c13565b876143b8575b614446565b61436a575b50565b614377905f809101613c66565b60016143af7fc7f505b2f371ae2175ee4913f4499e1f2633a7b5936321eed1cdaeb6115181d2916143a6610231565b918291826142ad565b0390a15f614367565b6143c560015f8b01613c66565b61435d565b6143d2610231565b7ff92ee8a900000000000000000000000000000000000000000000000000000000815280614402600482016102de565b0390fd5b6144119150156103f3565b5f614339565b5061433261442430614294565b3b6144376144315f611019565b91610243565b149050614327565b508761430c565b6144926144ac969461448d6144a09561446f6144a599966144999661446a33615aae565b615ad9565b614477615aef565b61447f615b15565b614487615b3b565b5f613dc7565b613df3565b6001613e0e565b6002613dc7565b613e3a565b6003613e55565b6144d96144b85f61130a565b6144d26144cc6144c75f613b11565b610282565b91610282565b1415613ece565b61450f6144ee6144e9600161123a565b61126f565b6145086145026144fd5f613b11565b610282565b91610282565b1415613f6a565b61453d61451c600261130a565b61453661453061452b5f613b11565b610282565b91610282565b1415614006565b565b9061454d95949392916142c2565b565b90565b61456661456161456b9261454f565b611016565b610243565b90565b614576612967565b5061457f61298c565b61459161458b5f611019565b91610243565b146146f4576145c360206145ad6145a86003611a0a565b611a17565b631bf01e9b906145bb610231565b93849261129f565b825281806145d3600482016102de565b03915afa9081156146ef576145fd6145f8614613936020935f916146c2575b50611287565b611293565b63313ce5679061460b610231565b93849261129f565b82528180614623600482016102de565b03915afa80156146bd5761466761465a61465561467e9361468c955f9161468f575b506146506012611377565b6113c0565b6113e4565b614662612a55565b6115d3565b614678670de0b6b3a7640000614552565b906115d3565b61468661298c565b9061142d565b90565b6146b0915060203d81116146b6575b6146a881836106b7565b8101906112c8565b5f614645565b503d61469e565b6112e6565b6146e29150843d81116146e8575b6146da81836106b7565b810190611a32565b5f6145f2565b503d6146d0565b6112e6565b6146fd5f611019565b90565b6147119061470c6151c9565b614713565b565b8061472e6147286147235f613b11565b610282565b91610282565b1461473e5761473c9061598c565b565b61478161474a5f613b11565b614752610231565b9182917f1e4fbdf700000000000000000000000000000000000000000000000000000000835260048301610985565b0390fd5b61478e90614700565b565b90565b6147a76147a26147ac92614790565b611016565b610243565b90565b6147b96002614793565b90565b6147c4616208565b6147cf5f820161297f565b6147e86147e26147dd6147af565b610243565b91610243565b1461480357614801905f6147fa6147af565b9101611ba9565b565b61480b610231565b7f3ee5aeb50000000000000000000000000000000000000000000000000000000081528061483b600482016102de565b0390fd5b61485361484e61485892614275565b611016565b610243565b90565b614865600161483f565b90565b614883614873616208565b5f61487c61485b565b9101611ba9565b565b61488d6131e8565b61489357565b61489b610231565b7fd93c0665000000000000000000000000000000000000000000000000000000008152806148cb600482016102de565b0390fd5b90816148eb6148e56148e05f613b11565b610282565b91610282565b146149075761490591906148fe5f613b11565b909161623a565b565b61494a6149135f613b11565b61491b610231565b9182917f96c6fd1e00000000000000000000000000000000000000000000000000000000835260048301610985565b0390fd5b614956612967565b50614984602061496e6149696003611a0a565b611a17565b6385462d6f9061497c610231565b93849261129f565b82528180614994600482016102de565b03915afa908115614a6f575f91614a41575b50906149d560206149bf6149ba6003611a0a565b611a17565b634f4608a2906149cd610231565b93849261129f565b825281806149e5600482016102de565b03915afa928315614a3c57614a0b93614a06925f91614a0e575b50926115d3565b61142d565b90565b614a2f915060203d8111614a35575b614a2781836106b7565b810190611332565b5f6149ff565b503d614a1d565b6112e6565b614a62915060203d8111614a68575b614a5a81836106b7565b810190611332565b5f6149a6565b503d614a50565b6112e6565b5f7f496e73756666696369656e742071756f74652061737365742062616c616e6365910152565b614aa76020809261032a565b614ab081614a74565b0190565b614ac99060208101905f818303910152614a9b565b90565b15614ad357565b614adb610231565b7f08c379a000000000000000000000000000000000000000000000000000000000815280614b0b60048201614ab4565b0390fd5b60207f7400000000000000000000000000000000000000000000000000000000000000917f486169726375742065786365656473207769746864726177616c20616d6f756e5f8201520152565b614b69602160409261032a565b614b7281614b0f565b0190565b614b8b9060208101905f818303910152614b5c565b90565b15614b9557565b614b9d610231565b7f08c379a000000000000000000000000000000000000000000000000000000000815280614bcd60048201614b76565b0390fd5b614bd9612941565b50614c2c816020614bfa614bf5614bf0600261130a565b61135c565b611368565b6370a0823190614c21614c0c30611317565b92614c15610231565b9687948593849361129f565b835260048301610985565b03915afa8015614f9b57614c4e614c5491614c5b945f91614f6d575b50610243565b91610243565b1115614acc565b614c8c614c678261494e565b91614c8583614c7e614c7884610243565b91610243565b1115614b8e565b829061185a565b91614c968261494e565b90614cb482614cad614ca786610243565b91610243565b111561199a565b614ce16020614ccb614cc66003611a0a565b611a17565b6304cc732590614cd9610231565b93849261129f565b82528180614cf1600482016102de565b03915afa908115614f68575f91614f3a575b5092614d326020614d1c614d176003611a0a565b611a17565b633b19e84a90614d2a610231565b93849261129f565b82528180614d42600482016102de565b03915afa8015614f35576020915f91614f08575b5095614d72614d6d614d68600261130a565b61135c565b611368565b614d955f63a9059cbb969396614da0614d89610231565b9889968795869461129f565b845260048401611a91565b03925af1918215614f0357602092614ed8575b50614dce614dc9614dc4600261130a565b61135c565b611368565b614dfb5f614de363a9059cbb9794879061185a565b96614e06614def610231565b9889968795869461129f565b845260048401611a91565b03925af1918215614ed357602092614ea8575b50614e34614e2f614e2a600261130a565b61135c565b611368565b614e575f63a9059cbb959395614e62614e4b610231565b9788968795869461129f565b845260048401611a91565b03925af18015614ea357614e77575b50600190565b614e979060203d8111614e9c575b614e8f81836106b7565b810190611a73565b614e71565b503d614e85565b6112e6565b614ec790833d8111614ecc575b614ebf81836106b7565b810190611a73565b614e19565b503d614eb5565b6112e6565b614ef790833d8111614efc575b614eef81836106b7565b810190611a73565b614db3565b503d614ee5565b6112e6565b614f289150823d8111614f2e575b614f2081836106b7565b810190611a32565b5f614d56565b503d614f16565b6112e6565b614f5b915060203d8111614f61575b614f5381836106b7565b810190611a32565b5f614d03565b503d614f49565b6112e6565b614f8e915060203d8111614f94575b614f8681836106b7565b810190611332565b5f614c48565b503d614f7c565b6112e6565b7f52c63247e1f47db19d5ce0460030c497f067ca4cebf71ba98eeadabe20bace0090565b614fcc613b3a565b503390565b91614fdf92916001926163e0565b565b60409061500a615011949695939661500060608401985f850190610978565b6020830190610450565b0190610450565b565b9061501e9103610243565b90565b92919261502f818390614228565b908161506361505d7fffffffffffffffffffffffffffffffffffffffffffffffffffffffffffffffff610243565b91610243565b03615070575b5050509050565b8161508361507d87610243565b91610243565b106150a9576150a09394615098919392615013565b905f926163e0565b805f8080615069565b506150e8849291926150b9610231565b9384937ffb8f41b200000000000000000000000000000000000000000000000000000000855260048501614fe1565b0390fd5b91826151086151026150fd5f613b11565b610282565b91610282565b14615182578161512861512261511d5f613b11565b610282565b91610282565b1461513b576151399291909161623a565b565b61517e6151475f613b11565b61514f610231565b9182917fec442f0500000000000000000000000000000000000000000000000000000000835260048301610985565b0390fd5b6151c561518e5f613b11565b615196610231565b9182917f96c6fd1e00000000000000000000000000000000000000000000000000000000835260048301610985565b0390fd5b6151d1614155565b6151ea6151e46151df614fc4565b610282565b91610282565b036151f157565b6152336151fc614fc4565b615204610231565b9182917f118cdaa700000000000000000000000000000000000000000000000000000000835260048301610985565b0390fd5b61523f61653a565b61524761527f565b565b9061525560ff91611b50565b9181191691161790565b9061527461526f61527b92613c57565b613c63565b8254615249565b9055565b61529361528a6155ea565b5f80910161525f565b61529b614fc4565b6152d17f5db9ee0a495bf2e6ff9c91a7834c1ba4fdd244a5e8aa4e537bd38aeae4b073aa916152c8610231565b91829182610985565b0390a1565b6152de615237565b565b6152e990611263565b90565b6152f5306152e0565b6153276153217f0000000000000000000000000000000000000000000000000000000000000000610282565b91610282565b148015615371575b61533557565b61533d610231565b7fe07c8dba0000000000000000000000000000000000000000000000000000000081528061536d600482016102de565b0390fd5b5061537a61658d565b6153ac6153a67f0000000000000000000000000000000000000000000000000000000000000000610282565b91610282565b141561532f565b506153bc6151c9565b565b6153c7906153b3565b565b6153d290611247565b90565b6153de906153c9565b90565b6153ea90611263565b90565b6153f6816107eb565b036153fd57565b5f80fd5b9050519061540e826153ed565b565b9060208282031261542957615426915f01615401565b90565b61023b565b919061545c6020615446615441866153d5565b6153e1565b6352d1902d90615454610231565b93849261129f565b8252818061546c600482016102de565b03915afa80915f9261553c575b50155f146154cd57505090600161548e57505b565b6154c99061549a610231565b9182917f4c9c8ce300000000000000000000000000000000000000000000000000000000835260048301610985565b0390fd5b92836154e86154e26154dd613176565b6107eb565b916107eb565b036154fd576154f89293506165b7565b61548c565b61553884615509610231565b9182917faa1d49a4000000000000000000000000000000000000000000000000000000008352600483016107fb565b0390fd5b61555e91925060203d8111615565575b61555681836106b7565b810190615410565b905f615479565b503d61554c565b615575306152e0565b6155a76155a17f0000000000000000000000000000000000000000000000000000000000000000610282565b91610282565b036155ae57565b6155b6610231565b7fe07c8dba000000000000000000000000000000000000000000000000000000008152806155e6600482016102de565b0390fd5b7fcd5ed15c6e187e77e9aee88184c21f4f2182ab5827cb3b7e07fbedcd63f0330090565b61562261561d61562792614790565b611016565b61054c565b90565b61563c615637600161123a565b61126f565b61568b6307a2d13a916020615659615654600161123a565b61126f565b6370a082319061568061566b30611317565b92615674610231565b9687948593849361129f565b835260048301610985565b03915afa908115615909576156c8936020935f936158d6575b506156bd906156b1610231565b9586948593849361129f565b83526004830161045d565b03915afa9081156158d1575f916158a3575b50806156f76156f16156ec600561297f565b610243565b91610243565b115f14615894576157129061570c600561297f565b9061185a565b5b615747602061573161572c6157275f61130a565b611287565b611293565b63313ce5679061573f610231565b93849261129f565b82528180615757600482016102de565b03915afa801561588f576157a06157a5916157ab935f91615861575b5061579b61579561579060019361578a600261560e565b906113c0565b6113e4565b9161483f565b6115d3565b610243565b91610243565b11615854575b61580260206157d06157cb6157c6600261130a565b61135c565b611368565b6370a08231906157f76157e230611317565b926157eb610231565b9586948593849361129f565b835260048301610985565b03915afa801561584f5761581f915f91615821575b506004611ba9565b565b615842915060203d8111615848575b61583a81836106b7565b810190611332565b5f615817565b503d615830565b6112e6565b61585c615d4c565b6157b1565b615882915060203d8111615888575b61587a81836106b7565b8101906112c8565b5f615773565b503d615870565b6112e6565b5061589e5f611019565b615713565b6158c4915060203d81116158ca575b6158bc81836106b7565b810190611332565b5f6156da565b503d6158b2565b6112e6565b6156bd9193506158fb90853d8111615902575b6158f381836106b7565b810190611332565b92906156a4565b503d6158e9565b6112e6565b8061592961592361591e5f613b11565b610282565b91610282565b14615945576159439161593b5f613b11565b91909161623a565b565b6159886159515f613b11565b615959610231565b9182917fec442f0500000000000000000000000000000000000000000000000000000000835260048301610985565b0390fd5b615994615b45565b6159ac6159a25f830161130a565b915f849101613dc7565b906159e06159da7f8be0079c531659141344cd1fd0a4f28419497f9722a3daafe3b4186f6b6457e093613a9a565b91613a9a565b916159e9610231565b806159f3816102de565b0390a3565b615a00614885565b615a08615a0a565b565b615a1f615a156155ea565b5f6001910161525f565b615a27614fc4565b615a5d7f62e78cea01bee320cd4e420270b5ea74000d11b0c9f74754ebdbfc544b05a25891615a54610231565b91829182610985565b0390a1565b615a6a6159f8565b565b7ff0c57e16840df040f15088dc2f81fe391c3923bec73e23a9662efc9c229c6a0090565b615aa190615a9c616640565b615aa3565b565b615aac90616718565b565b615ab790615a90565b565b90615acb91615ac6616640565b615acd565b565b90615ad79161695b565b565b90615ae391615ab9565b565b615aed616640565b565b615af7615ae5565b565b615b01616640565b615b09615b0b565b565b615b13616996565b565b615b1d615af9565b565b615b27616640565b615b2f615b31565b565b615b396169c8565b565b615b43615b1f565b565b7f9016d09d72d40fdae2fd8ceac6b6234c7706214fd39c1cd1e609a0528c19930090565b60207f6c61626c65000000000000000000000000000000000000000000000000000000917f42616c756e695631795661756c743a204e6f20696e74657265737420617661695f8201520152565b615bc3602560409261032a565b615bcc81615b69565b0190565b615be59060208101905f818303910152615bb6565b90565b15615bef57565b615bf7610231565b7f08c379a000000000000000000000000000000000000000000000000000000000815280615c2760048201615bd0565b0390fd5b5f7f42616c756e695631795661756c743a2052656465656d204661696c6564000000910152565b615c5f601d60209261032a565b615c6881615c2b565b0190565b615c819060208101905f818303910152615c52565b90565b15615c8b57565b615c93610231565b7f08c379a000000000000000000000000000000000000000000000000000000000815280615cc360048201615c6c565b0390fd5b615cd090611247565b90565b615cdc90615cc7565b90565b615ce890611263565b90565b615d20615d2794615d16606094989795615d0c608086019a5f870190610978565b6020850190610978565b6040830190610450565b0190610978565b565b916020615d4a929493615d4360408201965f830190610450565b0190610450565b565b615d5e615d59600161123a565b61126f565b615dad6307a2d13a916020615d7b615d76600161123a565b61126f565b6370a0823190615da2615d8d30611317565b92615d96610231565b9687948593849361129f565b835260048301610985565b03915afa90811561620357615dea936020935f936161d0575b50615ddf90615dd3610231565b9586948593849361129f565b83526004830161045d565b03915afa9081156161cb575f9161619d575b5080615e19615e13615e0e600561297f565b610243565b91610243565b115f1461618e57615e3490615e2e600561297f565b9061185a565b5b615e5181615e4b615e455f611019565b91610243565b11615be8565b615e926020615e68615e63600161123a565b61126f565b63c6e6f59290615e878592615e7b610231565b9586948593849361129f565b83526004830161045d565b03915afa908115616189575f9161615b575b506020615eb9615eb4600161123a565b61126f565b63ba0876529290615eee5f615ecd30611317565b95615ef9615eda30611317565b615ee2610231565b9889978896879561129f565b85526004850161178c565b03925af1908115616156575f91616128575b50615f2881615f22615f1c5f611019565b91610243565b11615c84565b615f556020615f3f615f3a6003611a0a565b611a17565b6382755ebb90615f4d610231565b93849261129f565b82528180615f65600482016102de565b03915afa801561612357615f80915f916160f5575b50615cd3565b615f99615f94615f8f5f61130a565b61135c565b611368565b90602063095ea7b392615fab83615cdf565b90615fc95f8796615fd4615fbd610231565b9889968795869461129f565b845260048401611a91565b03925af19182156160f057615fee926160c4575b50615cdf565b6020632d6bc8ea91615fff5f61130a565b906160315f61600e600261130a565b9561603c8861601c30611317565b90616025610231565b998a988997889661129f565b865260048601615ceb565b03925af180156160bf57616093575b503390916160797f1cbc5ab135991bd2b6a4b034a04aa2aa086dac1371cb9b16b8b5e2ed6b036bed92613a9a565b9261608e616085610231565b92839283615d29565b0390a2565b6160b39060203d81116160b8575b6160ab81836106b7565b810190611332565b61604b565b503d6160a1565b6112e6565b6160e49060203d81116160e9575b6160dc81836106b7565b810190611a73565b615fe8565b503d6160d2565b6112e6565b616116915060203d811161611c575b61610e81836106b7565b810190611a32565b5f615f7a565b503d616104565b6112e6565b616149915060203d811161614f575b61614181836106b7565b810190611332565b5f615f0b565b503d616137565b6112e6565b61617c915060203d8111616182575b61617481836106b7565b810190611332565b5f615ea4565b503d61616a565b6112e6565b506161985f611019565b615e35565b6161be915060203d81116161c4575b6161b681836106b7565b810190611332565b5f615dfc565b503d6161ac565b6112e6565b615ddf9193506161f590853d81116161fc575b6161ed81836106b7565b810190611332565b9290615dc6565b503d6161e3565b6112e6565b7f9b779b17422d0df92223018b32b4d1fa46e071723d6817e2486d003becc55f0090565b906162379101610243565b90565b919091616245614fa0565b8161626061625a6162555f613b11565b610282565b91610282565b145f1461634b5761628783616281600284019161627c8361297f565b612a30565b90611ba9565b5b836162a361629d6162985f613b11565b610282565b91610282565b145f1461631c576162cb906162c56002859201916162c08361297f565b615013565b90611ba9565b5b9190916163176163056162ff7fddf252ad1be2c89b69c2b068fc378daa952ba7f163c4a11628f55a4df523b3ef93613a9a565b93613a9a565b9361630e610231565b9182918261045d565b0390a3565b616346906163406163315f8693018790613aa6565b9161633b8361297f565b61622c565b90611ba9565b6162cc565b61636061635b5f83018490613aa6565b61297f565b8061637361636d86610243565b91610243565b1061639d57616386616398918590615013565b6163935f84018590613aa6565b611ba9565b616288565b916163dc915091926163ad610231565b9384937fe450d38c00000000000000000000000000000000000000000000000000000000855260048501614fe1565b0390fd5b90926163ea614fa0565b826164056163ff6163fa5f613b11565b610282565b91610282565b146164f3578461642561641f61641a5f613b11565b610282565b91610282565b146164ac5761644c9061644761644060018793018690614212565b8790613aa6565b611ba9565b616456575b505050565b9190916164a161648f6164897f8c5be1e5ebec7d5bd14f71427d1e84f3dd0314c0f7b2291e5b200ac8c7c3b92593613a9a565b93613a9a565b93616498610231565b9182918261045d565b0390a35f8080616451565b6164ef6164b85f613b11565b6164c0610231565b9182917f94280d6200000000000000000000000000000000000000000000000000000000835260048301610985565b0390fd5b6165366164ff5f613b11565b616507610231565b9182917fe602df0500000000000000000000000000000000000000000000000000000000835260048301610985565b0390fd5b61654b6165456131e8565b156103f3565b61655157565b616559610231565b7f8dfc202b00000000000000000000000000000000000000000000000000000000815280616589600482016102de565b0390fd5b616595613b3a565b506165b05f6165aa6165a5613176565b6169d2565b0161130a565b90565b5190565b906165c1826169d5565b816165ec7fbc7cd75a20ee27fd9adebab32041f755214dbc6bffa90cc0225b39da2e5c2d3b91613a9a565b906165f5610231565b806165ff816102de565b0390a261660b816165b3565b61661d6166175f611019565b91610243565b115f146166315761662d91616ae5565b505b565b505061663b616a4a565b61662f565b61665161664b616b14565b156103f3565b61665757565b61665f610231565b7fd7e6bcf80000000000000000000000000000000000000000000000000000000081528061668f600482016102de565b0390fd5b6166a49061669f616640565b6166a6565b565b806166c16166bb6166b65f613b11565b610282565b91610282565b146166d1576166cf9061598c565b565b6167146166dd5f613b11565b6166e5610231565b9182917f1e4fbdf700000000000000000000000000000000000000000000000000000000835260048301610985565b0390fd5b61672190616693565b565b9061673591616730616640565b616937565b565b601f602091010490565b1b90565b9190600861677f9102916167797fffffffffffffffffffffffffffffffffffffffffffffffffffffffffffffffff84616741565b92616741565b9181191691161790565b919061679f61679a6167a793611b8a565b611ba6565b908354616745565b9055565b6167bd916167b7612967565b91616789565b565b5b8181106167cb575050565b806167d85f6001936167ab565b016167c0565b9190601f81116167ee575b505050565b6167fa61681f93612852565b90602061680684616737565b83019310616827575b61681890616737565b01906167bf565b5f80806167e9565b91506168188192905061680f565b90616845905f19906008026105a9565b191690565b8161685491616835565b906002021790565b9061686681610326565b9067ffffffffffffffff82116169265761688a82616884855461281f565b856167de565b602090601f83116001146168be579180916168ad935f926168b2575b505061684a565b90555b565b90915001515f806168a6565b601f198316916168cd85612852565b925f5b81811061690e575091600293918560019694106168f4575b505050020190556168b0565b616904910151601f841690616835565b90555f80806168e8565b919360206001819287870151815501950192016168d0565b61068a565b906169359161685c565b565b600461695992616952616948614fa0565b936003850161692b565b910161692b565b565b9061696591616723565b565b61696f616640565b616977616979565b565b616994616984616208565b5f61698d61485b565b9101611ba9565b565b61699e616967565b565b6169a8616640565b6169b06169b2565b565b6169c66169bd6155ea565b5f80910161525f565b565b6169d06169a0565b565b90565b803b6169e96169e35f611019565b91610243565b14616a0b57616a09905f616a036169fe613176565b6169d2565b01613dc7565b565b616a4690616a17610231565b9182917f4c9c8ce300000000000000000000000000000000000000000000000000000000835260048301610985565b0390fd5b34616a5d616a575f611019565b91610243565b11616a6457565b616a6c610231565b7fb398979f00000000000000000000000000000000000000000000000000000000815280616a9c600482016102de565b0390fd5b606090565b90616ab7616ab2836106f5565b6106e0565b918252565b3d5f14616ad757616acc3d616aa5565b903d5f602084013e5b565b616adf616aa0565b90616ad5565b5f80616b1193616af3616aa0565b508390602081019051915af490616b08616abc565b90919091616b32565b90565b616b1c612941565b50616b2f5f616b29615a6c565b01613b9c565b90565b90616b4690616b3f616aa0565b50156103f3565b5f14616b525750616bd6565b616b5b826165b3565b616b6d616b675f611019565b91610243565b1480616bbb575b616b7c575090565b616bb790616b88610231565b9182917f9996b31500000000000000000000000000000000000000000000000000000000835260048301610985565b0390fd5b50803b616bd0616bca5f611019565b91610243565b14616b74565b616bdf816165b3565b616bf1616beb5f611019565b91610243565b115f14616c0057805190602001fd5b616c08610231565b7f1425ea4200000000000000000000000000000000000000000000000000000000815280616c38600482016102de565b0390fdfea2646970667358221220476bd292c84f9b07c6d81d4b96a28e5086056df8ea15ccfb438bc561cab769a464736f6c63430008190033",
  "linkReferences": {},
  "deployedLinkReferences": {}
}