{
  "_format": "hh-sol-artifact-1",
  "contractName": "BaluniV1YearnVault",
  "sourceName": "contracts/vaults/BaluniV1YearnVault.sol",
  "abi": [
    {
      "inputs": [
        {
          "internalType": "address",
          "name": "target",
          "type": "address"
        }
      ],
      "name": "AddressEmptyCode",
      "type": "error"
    },
    {
      "inputs": [
        {
          "internalType": "address",
          "name": "implementation",
          "type": "address"
        }
      ],
      "name": "ERC1967InvalidImplementation",
      "type": "error"
    },
    {
      "inputs": [],
      "name": "ERC1967NonPayable",
      "type": "error"
    },
    {
      "inputs": [
        {
          "internalType": "address",
          "name": "spender",
          "type": "address"
        },
        {
          "internalType": "uint256",
          "name": "allowance",
          "type": "uint256"
        },
        {
          "internalType": "uint256",
          "name": "needed",
          "type": "uint256"
        }
      ],
      "name": "ERC20InsufficientAllowance",
      "type": "error"
    },
    {
      "inputs": [
        {
          "internalType": "address",
          "name": "sender",
          "type": "address"
        },
        {
          "internalType": "uint256",
          "name": "balance",
          "type": "uint256"
        },
        {
          "internalType": "uint256",
          "name": "needed",
          "type": "uint256"
        }
      ],
      "name": "ERC20InsufficientBalance",
      "type": "error"
    },
    {
      "inputs": [
        {
          "internalType": "address",
          "name": "approver",
          "type": "address"
        }
      ],
      "name": "ERC20InvalidApprover",
      "type": "error"
    },
    {
      "inputs": [
        {
          "internalType": "address",
          "name": "receiver",
          "type": "address"
        }
      ],
      "name": "ERC20InvalidReceiver",
      "type": "error"
    },
    {
      "inputs": [
        {
          "internalType": "address",
          "name": "sender",
          "type": "address"
        }
      ],
      "name": "ERC20InvalidSender",
      "type": "error"
    },
    {
      "inputs": [
        {
          "internalType": "address",
          "name": "spender",
          "type": "address"
        }
      ],
      "name": "ERC20InvalidSpender",
      "type": "error"
    },
    {
      "inputs": [],
      "name": "EnforcedPause",
      "type": "error"
    },
    {
      "inputs": [],
      "name": "ExpectedPause",
      "type": "error"
    },
    {
      "inputs": [],
      "name": "FailedInnerCall",
      "type": "error"
    },
    {
      "inputs": [],
      "name": "InvalidInitialization",
      "type": "error"
    },
    {
      "inputs": [],
      "name": "NotInitializing",
      "type": "error"
    },
    {
      "inputs": [
        {
          "internalType": "address",
          "name": "owner",
          "type": "address"
        }
      ],
      "name": "OwnableInvalidOwner",
      "type": "error"
    },
    {
      "inputs": [
        {
          "internalType": "address",
          "name": "account",
          "type": "address"
        }
      ],
      "name": "OwnableUnauthorizedAccount",
      "type": "error"
    },
    {
      "inputs": [],
      "name": "ReentrancyGuardReentrantCall",
      "type": "error"
    },
    {
      "inputs": [],
      "name": "UUPSUnauthorizedCallContext",
      "type": "error"
    },
    {
      "inputs": [
        {
          "internalType": "bytes32",
          "name": "slot",
          "type": "bytes32"
        }
      ],
      "name": "UUPSUnsupportedProxiableUUID",
      "type": "error"
    },
    {
      "anonymous": false,
      "inputs": [
        {
          "indexed": true,
          "internalType": "address",
          "name": "owner",
          "type": "address"
        },
        {
          "indexed": true,
          "internalType": "address",
          "name": "spender",
          "type": "address"
        },
        {
          "indexed": false,
          "internalType": "uint256",
          "name": "value",
          "type": "uint256"
        }
      ],
      "name": "Approval",
      "type": "event"
    },
    {
      "anonymous": false,
      "inputs": [
        {
          "indexed": true,
          "internalType": "address",
          "name": "sender",
          "type": "address"
        },
        {
          "indexed": false,
          "internalType": "uint256",
          "name": "amount",
          "type": "uint256"
        },
        {
          "indexed": false,
          "internalType": "uint256",
          "name": "interest",
          "type": "uint256"
        }
      ],
      "name": "Buy",
      "type": "event"
    },
    {
      "anonymous": false,
      "inputs": [
        {
          "indexed": false,
          "internalType": "uint64",
          "name": "version",
          "type": "uint64"
        }
      ],
      "name": "Initialized",
      "type": "event"
    },
    {
      "anonymous": false,
      "inputs": [
        {
          "indexed": true,
          "internalType": "address",
          "name": "previousOwner",
          "type": "address"
        },
        {
          "indexed": true,
          "internalType": "address",
          "name": "newOwner",
          "type": "address"
        }
      ],
      "name": "OwnershipTransferred",
      "type": "event"
    },
    {
      "anonymous": false,
      "inputs": [
        {
          "indexed": false,
          "internalType": "address",
          "name": "account",
          "type": "address"
        }
      ],
      "name": "Paused",
      "type": "event"
    },
    {
      "anonymous": false,
      "inputs": [
        {
          "indexed": true,
          "internalType": "address",
          "name": "from",
          "type": "address"
        },
        {
          "indexed": true,
          "internalType": "address",
          "name": "to",
          "type": "address"
        },
        {
          "indexed": false,
          "internalType": "uint256",
          "name": "value",
          "type": "uint256"
        }
      ],
      "name": "Transfer",
      "type": "event"
    },
    {
      "anonymous": false,
      "inputs": [
        {
          "indexed": false,
          "internalType": "address",
          "name": "account",
          "type": "address"
        }
      ],
      "name": "Unpaused",
      "type": "event"
    },
    {
      "anonymous": false,
      "inputs": [
        {
          "indexed": true,
          "internalType": "address",
          "name": "implementation",
          "type": "address"
        }
      ],
      "name": "Upgraded",
      "type": "event"
    },
    {
      "inputs": [],
      "name": "UPGRADE_INTERFACE_VERSION",
      "outputs": [
        {
          "internalType": "string",
          "name": "",
          "type": "string"
        }
      ],
      "stateMutability": "view",
      "type": "function"
    },
    {
      "inputs": [],
      "name": "accumulatedAssetB",
      "outputs": [
        {
          "internalType": "uint256",
          "name": "",
          "type": "uint256"
        }
      ],
      "stateMutability": "view",
      "type": "function"
    },
    {
      "inputs": [],
      "name": "allTimeInterest",
      "outputs": [
        {
          "internalType": "uint256",
          "name": "",
          "type": "uint256"
        }
      ],
      "stateMutability": "view",
      "type": "function"
    },
    {
      "inputs": [
        {
          "internalType": "address",
          "name": "owner",
          "type": "address"
        },
        {
          "internalType": "address",
          "name": "spender",
          "type": "address"
        }
      ],
      "name": "allowance",
      "outputs": [
        {
          "internalType": "uint256",
          "name": "",
          "type": "uint256"
        }
      ],
      "stateMutability": "view",
      "type": "function"
    },
    {
      "inputs": [
        {
          "internalType": "address",
          "name": "spender",
          "type": "address"
        },
        {
          "internalType": "uint256",
          "name": "value",
          "type": "uint256"
        }
      ],
      "name": "approve",
      "outputs": [
        {
          "internalType": "bool",
          "name": "",
          "type": "bool"
        }
      ],
      "stateMutability": "nonpayable",
      "type": "function"
    },
    {
      "inputs": [
        {
          "internalType": "address",
          "name": "account",
          "type": "address"
        }
      ],
      "name": "balanceOf",
      "outputs": [
        {
          "internalType": "uint256",
          "name": "",
          "type": "uint256"
        }
      ],
      "stateMutability": "view",
      "type": "function"
    },
    {
      "inputs": [],
      "name": "baseAsset",
      "outputs": [
        {
          "internalType": "address",
          "name": "",
          "type": "address"
        }
      ],
      "stateMutability": "view",
      "type": "function"
    },
    {
      "inputs": [],
      "name": "buy",
      "outputs": [],
      "stateMutability": "nonpayable",
      "type": "function"
    },
    {
      "inputs": [],
      "name": "decimals",
      "outputs": [
        {
          "internalType": "uint8",
          "name": "",
          "type": "uint8"
        }
      ],
      "stateMutability": "view",
      "type": "function"
    },
    {
      "inputs": [
        {
          "internalType": "uint256",
          "name": "amount",
          "type": "uint256"
        },
        {
          "internalType": "address",
          "name": "to",
          "type": "address"
        }
      ],
      "name": "deposit",
      "outputs": [],
      "stateMutability": "nonpayable",
      "type": "function"
    },
    {
      "inputs": [
        {
          "internalType": "uint256",
          "name": "withdrawAmountB",
          "type": "uint256"
        },
        {
          "internalType": "address",
          "name": "receiver",
          "type": "address"
        }
      ],
      "name": "handleWithdrawB",
      "outputs": [],
      "stateMutability": "nonpayable",
      "type": "function"
    },
    {
      "inputs": [
        {
          "internalType": "string",
          "name": "_name",
          "type": "string"
        },
        {
          "internalType": "string",
          "name": "_symbol",
          "type": "string"
        },
        {
          "internalType": "address",
          "name": "_assetA",
          "type": "address"
        },
        {
          "internalType": "address",
          "name": "_yearnVaultAddress",
          "type": "address"
        },
        {
          "internalType": "address",
          "name": "_assetB",
          "type": "address"
        },
        {
          "internalType": "address",
          "name": "_registryAddress",
          "type": "address"
        }
      ],
      "name": "initialize",
      "outputs": [],
      "stateMutability": "nonpayable",
      "type": "function"
    },
    {
      "inputs": [],
      "name": "interestEarned",
      "outputs": [
        {
          "internalType": "uint256",
          "name": "",
          "type": "uint256"
        }
      ],
      "stateMutability": "view",
      "type": "function"
    },
    {
      "inputs": [],
      "name": "lastDeposit",
      "outputs": [
        {
          "internalType": "uint256",
          "name": "",
          "type": "uint256"
        }
      ],
      "stateMutability": "view",
      "type": "function"
    },
    {
      "inputs": [],
      "name": "name",
      "outputs": [
        {
          "internalType": "string",
          "name": "",
          "type": "string"
        }
      ],
      "stateMutability": "view",
      "type": "function"
    },
    {
      "inputs": [],
      "name": "owner",
      "outputs": [
        {
          "internalType": "address",
          "name": "",
          "type": "address"
        }
      ],
      "stateMutability": "view",
      "type": "function"
    },
    {
      "inputs": [],
      "name": "pause",
      "outputs": [],
      "stateMutability": "nonpayable",
      "type": "function"
    },
    {
      "inputs": [],
      "name": "paused",
      "outputs": [
        {
          "internalType": "bool",
          "name": "",
          "type": "bool"
        }
      ],
      "stateMutability": "view",
      "type": "function"
    },
    {
      "inputs": [],
      "name": "proxiableUUID",
      "outputs": [
        {
          "internalType": "bytes32",
          "name": "",
          "type": "bytes32"
        }
      ],
      "stateMutability": "view",
      "type": "function"
    },
    {
      "inputs": [],
      "name": "quoteAsset",
      "outputs": [
        {
          "internalType": "address",
          "name": "",
          "type": "address"
        }
      ],
      "stateMutability": "view",
      "type": "function"
    },
    {
      "inputs": [],
      "name": "registry",
      "outputs": [
        {
          "internalType": "address",
          "name": "",
          "type": "address"
        }
      ],
      "stateMutability": "view",
      "type": "function"
    },
    {
      "inputs": [
        {
          "internalType": "string",
          "name": "_name",
          "type": "string"
        },
        {
          "internalType": "string",
          "name": "_symbol",
          "type": "string"
        },
        {
          "internalType": "address",
          "name": "_assetA",
          "type": "address"
        },
        {
          "internalType": "address",
          "name": "_yearnVaultAddress",
          "type": "address"
        },
        {
          "internalType": "address",
          "name": "_assetB",
          "type": "address"
        },
        {
          "internalType": "address",
          "name": "_registryAddress",
          "type": "address"
        },
        {
          "internalType": "uint64",
          "name": "_version",
          "type": "uint64"
        }
      ],
      "name": "reinitialize",
      "outputs": [],
      "stateMutability": "nonpayable",
      "type": "function"
    },
    {
      "inputs": [],
      "name": "renounceOwnership",
      "outputs": [],
      "stateMutability": "nonpayable",
      "type": "function"
    },
    {
      "inputs": [],
      "name": "symbol",
      "outputs": [
        {
          "internalType": "string",
          "name": "",
          "type": "string"
        }
      ],
      "stateMutability": "view",
      "type": "function"
    },
    {
      "inputs": [],
      "name": "totalSupply",
      "outputs": [
        {
          "internalType": "uint256",
          "name": "",
          "type": "uint256"
        }
      ],
      "stateMutability": "view",
      "type": "function"
    },
    {
      "inputs": [],
      "name": "totalValuation",
      "outputs": [
        {
          "internalType": "uint256",
          "name": "",
          "type": "uint256"
        }
      ],
      "stateMutability": "view",
      "type": "function"
    },
    {
      "inputs": [
        {
          "internalType": "address",
          "name": "to",
          "type": "address"
        },
        {
          "internalType": "uint256",
          "name": "value",
          "type": "uint256"
        }
      ],
      "name": "transfer",
      "outputs": [
        {
          "internalType": "bool",
          "name": "",
          "type": "bool"
        }
      ],
      "stateMutability": "nonpayable",
      "type": "function"
    },
    {
      "inputs": [
        {
          "internalType": "address",
          "name": "from",
          "type": "address"
        },
        {
          "internalType": "address",
          "name": "to",
          "type": "address"
        },
        {
          "internalType": "uint256",
          "name": "value",
          "type": "uint256"
        }
      ],
      "name": "transferFrom",
      "outputs": [
        {
          "internalType": "bool",
          "name": "",
          "type": "bool"
        }
      ],
      "stateMutability": "nonpayable",
      "type": "function"
    },
    {
      "inputs": [
        {
          "internalType": "address",
          "name": "newOwner",
          "type": "address"
        }
      ],
      "name": "transferOwnership",
      "outputs": [],
      "stateMutability": "nonpayable",
      "type": "function"
    },
    {
      "inputs": [],
      "name": "unitPrice",
      "outputs": [
        {
          "internalType": "uint256",
          "name": "",
          "type": "uint256"
        }
      ],
      "stateMutability": "view",
      "type": "function"
    },
    {
      "inputs": [],
      "name": "unpause",
      "outputs": [],
      "stateMutability": "nonpayable",
      "type": "function"
    },
    {
      "inputs": [
        {
          "internalType": "address",
          "name": "newImplementation",
          "type": "address"
        },
        {
          "internalType": "bytes",
          "name": "data",
          "type": "bytes"
        }
      ],
      "name": "upgradeToAndCall",
      "outputs": [],
      "stateMutability": "payable",
      "type": "function"
    },
    {
      "inputs": [
        {
          "internalType": "uint256",
          "name": "shares",
          "type": "uint256"
        },
        {
          "internalType": "address",
          "name": "to",
          "type": "address"
        }
      ],
      "name": "withdraw",
      "outputs": [],
      "stateMutability": "nonpayable",
      "type": "function"
    },
    {
      "inputs": [],
      "name": "yearnVault",
      "outputs": [
        {
          "internalType": "address",
          "name": "",
          "type": "address"
        }
      ],
      "stateMutability": "view",
      "type": "function"
    }
  ],
  "bytecode": "0x60a0806040523460295730608052614456908161002e823960805181818161141901526117a30152f35b5f80fdfe604060808152600480361015610013575f80fd5b5f3560e01c908162f714ce14611f4857816306fdde0314611e82578163095ea7b314611d5e57816318160ddd14611d2157816323b872dd14611b3a578163295b930014611b1e578163313ce56714611b0357816336b7710714611ae5578163374261ab14611ac95781633f4ba83a14611a0a5781634f1ef286146117455781634ff16a411461148e57816352d1902d146113f15781635c975abb146113af5781636560bc80146113915781636e553f6514610aba57816370a0823114610a57578163715018a6146109b95781637b103999146109855781638456cb59146108ef57816388696f62146107735781638da5cb5b1461072057816395d89b41146106045781639db5df46146105d0578163a6f2ae3a14610582578163a9059cbb14610552578163ad3cb1cc146104bd578163cdf456e11461048a578163dd62ed3e146103f9578163e56f2fe414610233578163e73faa2d14610210578163f2fde38b146101e5578163f7fde10f146101c9575063fdf262b714610192575f80fd5b346101c5575f6003193601126101c55760209073ffffffffffffffffffffffffffffffffffffffff600254169051908152f35b5f80fd5b82346101c5575f6003193601126101c557602091549051908152f35b346101c55760206003193601126101c55761020e610201611f9e565b610209613e06565b613a2f565b005b82346101c5575f6003193601126101c55760209061022c6138ea565b9051908152f35b82346101c55760c06003193601126101c55767ffffffffffffffff82358181116101c5576102649036908501612173565b906024358181116101c55761027c9036908601612173565b610284611fc1565b61028c611fe4565b610294612007565b9161029d61202a565b937ff0c57e16840df040f15088dc2f81fe391c3923bec73e23a9662efc9c229c6a0096875460ff818b1c1615978116801590816103f1575b60011490816103e7575b1590816103de575b506103b6578761032898999a9b5060017fffffffffffffffffffffffffffffffffffffffffffffffff00000000000000008316178b55610381575b50613319565b61032e57005b7fc7f505b2f371ae2175ee4913f4499e1f2633a7b5936321eed1cdaeb6115181d291817fffffffffffffffffffffffffffffffffffffffffffffff00ffffffffffffffff602093541690555160018152a1005b7fffffffffffffffffffffffffffffffffffffffffffffff00000000000000000016680100000000000000011789558a610322565b8a8a517ff92ee8a9000000000000000000000000000000000000000000000000000000008152fd5b9050158c6102e7565b303b1591506102df565b8991506102d5565b82346101c557806003193601126101c557602090610415611f9e565b73ffffffffffffffffffffffffffffffffffffffff610479610435611f7b565b9273ffffffffffffffffffffffffffffffffffffffff165f527f52c63247e1f47db19d5ce0460030c497f067ca4cebf71ba98eeadabe20bace0160205260405f2090565b91165f528252805f20549051908152f35b82346101c5575f6003193601126101c55760209073ffffffffffffffffffffffffffffffffffffffff5f54169051908152f35b82346101c5575f6003193601126101c55780519080820182811067ffffffffffffffff8211176105265761052293508152600582527f352e302e300000000000000000000000000000000000000000000000000000006020830152519182918261204d565b0390f35b6041847f4e487b71000000000000000000000000000000000000000000000000000000005f525260245ffd5b82346101c557806003193601126101c55760209061057b610571611f9e565b6024359033613ca7565b5160018152f35b346101c5575f6003193601126101c55761059a613af0565b6105a2613b4a565b6105aa613e76565b60017f9b779b17422d0df92223018b32b4d1fa46e071723d6817e2486d003becc55f0055005b82346101c5575f6003193601126101c55760209073ffffffffffffffffffffffffffffffffffffffff600154169051908152f35b82346101c5575f6003193601126101c55780515f7f52c63247e1f47db19d5ce0460030c497f067ca4cebf71ba98eeadabe20bace0480549061064582612d36565b808552916020916001918281169081156106d5575060011461067d575b610522868861067382890383612095565b519182918261204d565b5f90815293507f46a2803e59a4de4e7a4c574b1243f25977ac4c77d5a1a4a609b5394cebb4a2aa5b8385106106c2575050505081016020016106738261052286610662565b80548686018401529382019381016106a5565b610522989650879450602093506106739592507fffffffffffffffffffffffffffffffffffffffffffffffffffffffffffffff0091501682840152151560051b820101929486610662565b82346101c5575f6003193601126101c55760209073ffffffffffffffffffffffffffffffffffffffff7f9016d09d72d40fdae2fd8ceac6b6234c7706214fd39c1cd1e609a0528c19930054169051908152f35b82346101c55760e06003193601126101c55767ffffffffffffffff9180358381116101c5576107a59036908301612173565b6024358481116101c5576107bc9036908401612173565b6107c4611fc1565b6107cc611fe4565b906107d5612007565b926107de61202a565b9460c43598808a16809a036101c5577ff0c57e16840df040f15088dc2f81fe391c3923bec73e23a9662efc9c229c6a00978854918b60ff848d1c169182156108e2575b50506108bb5750928997959261088e9592680100000000000000007fc7f505b2f371ae2175ee4913f4499e1f2633a7b5936321eed1cdaeb6115181d29c7fffffffffffffffffffffffffffffffffffffffffffffff00000000000000000060209d9b981617178855613319565b7fffffffffffffffffffffffffffffffffffffffffffffff00ffffffffffffffff815416905551908152a1005b89517ff92ee8a9000000000000000000000000000000000000000000000000000000008152fd5b8416101590508b8d610821565b82346101c5575f6003193601126101c55760207f62e78cea01bee320cd4e420270b5ea74000d11b0c9f74754ebdbfc544b05a2589161092c613e06565b610934613b4a565b7fcd5ed15c6e187e77e9aee88184c21f4f2182ab5827cb3b7e07fbedcd63f0330060017fffffffffffffffffffffffffffffffffffffffffffffffffffffffffffffff0082541617905551338152a1005b82346101c5575f6003193601126101c55760209073ffffffffffffffffffffffffffffffffffffffff600354169051908152f35b346101c5575f6003193601126101c5576109d1613e06565b5f73ffffffffffffffffffffffffffffffffffffffff7f9016d09d72d40fdae2fd8ceac6b6234c7706214fd39c1cd1e609a0528c1993008054907fffffffffffffffffffffffff000000000000000000000000000000000000000082169055167f8be0079c531659141344cd1fd0a4f28419497f9722a3daafe3b4186f6b6457e08280a3005b82346101c55760206003193601126101c55760209073ffffffffffffffffffffffffffffffffffffffff610a89611f9e565b165f527f52c63247e1f47db19d5ce0460030c497f067ca4cebf71ba98eeadabe20bace008252805f20549051908152f35b82346101c557806003193601126101c5578135610ad5611f7b565b610add613af0565b610ae5613b4a565b81156113345773ffffffffffffffffffffffffffffffffffffffff91600194838654168551947f70a082310000000000000000000000000000000000000000000000000000000094858752308488015260209460249386898681845afa9889156112fb575f99611305575b508685918b51928380927f07a2d13a000000000000000000000000000000000000000000000000000000009d8e83528b8301525afa9081156112fb575f916112ce575b50600554808211156112c557610ba891612257565b905b835f5416918a51888189817f313ce56700000000000000000000000000000000000000000000000000000000978882525afa9081156111d6577ffffffffffffffffffffffffffffffffffffffffffffffffffffffffffffffffe9160ff915f916112a8575b50160160ff811161127d57610c23906121fc565b10611270575b5f80548b517f23b872dd000000000000000000000000000000000000000000000000000000008152338982019081523060208201526040810185905290928a9284928390036060019183918a165af1801561113457611253575b5083600354168a51907f04cc732500000000000000000000000000000000000000000000000000000000825288828981845afa9182156111d65788918a915f94611234575b508d51928380927f3b19e84a0000000000000000000000000000000000000000000000000000000082525afa9081156111d657908c9392915f91611207575b5088610d888b610d1686613b9f565b96610d2088613b9f565b958b5f5416905f610d31898c612257565b93518096819582947fa9059cbb000000000000000000000000000000000000000000000000000000009a8b855284016020909392919373ffffffffffffffffffffffffffffffffffffffff60408201951681520152565b03925af180156111fd578f918d94935f918e936111e0575b50610ddd8c835416945197889687958694855284016020909392919373ffffffffffffffffffffffffffffffffffffffff60408201951681520152565b03925af180156111d65790610df99392916111b9575b50612257565b610e6087828d8d5f8b8a808354169454169251968795869485937f095ea7b300000000000000000000000000000000000000000000000000000000855284016020909392919373ffffffffffffffffffffffffffffffffffffffff60408201951681520152565b03925af180156111345761118c575b508a548a517f6e553f6500000000000000000000000000000000000000000000000000000000815287810183815230602082015290918991839188169082905f90829060400103925af1801561113457879291899161115d575b50855f54168c51938480928782525afa918215611134575f9261113e575b5087858d541693888d518096819382525afa9283156111345791859391610f4f935f936110fb575b50610f4991610f38918460ff811660ff8416115f146110eb57610f38610f3d91610f43946121e8565b6121fc565b90612220565b926121aa565b9061220d565b91169081156110bd577fddf252ad1be2c89b69c2b068fc378daa952ba7f163c4a11628f55a4df523b3ef865f927f52c63247e1f47db19d5ce0460030c497f067ca4cebf71ba98eeadabe20bace02610fa8828254612d87565b90558484527f52c63247e1f47db19d5ce0460030c497f067ca4cebf71ba98eeadabe20bace0082528b84208181540190558b51908152a3875416948651948552308386015283858381895afa9485156110b3575f95611083575b508394958751968794859384528301525afa92831561107a57505f9261104c575b50506005557f9b779b17422d0df92223018b32b4d1fa46e071723d6817e2486d003becc55f0055005b90809250813d8311611073575b6110638183612095565b810103126101c557518280611023565b503d611059565b513d5f823e3d90fd5b9380955084813d83116110ac575b61109b8183612095565b810103126101c55784935194611002565b503d611091565b87513d5f823e3d90fd5b83855f8b51917fec442f05000000000000000000000000000000000000000000000000000000008352820152fd5b610f38610f4393610f49926121e8565b610f3891935091611124610f49938c8d3d1061112d575b61111c8183612095565b810190612191565b93915091610f0f565b503d611112565b8b513d5f823e3d90fd5b611156919250883d8a1161112d5761111c8183612095565b908c610ee7565b90809293503d8311611185575b6111748183612095565b810103126101c5578590878d610ec9565b503d61116a565b6111ab90883d8a116111b2575b6111a38183612095565b810190612264565b508b610e6f565b503d611199565b6111cf908a3d8c116111b2576111a38183612095565b508d610df3565b8c513d5f823e3d90fd5b6111f690873d89116111b2576111a38183612095565b505f610da0565b8f513d5f823e3d90fd5b61122791508a3d8c1161122d575b61121f8183612095565b81019061227c565b8e610d07565b503d611215565b61124c919450823d841161122d5761121f8183612095565b928f610cc8565b61126990883d8a116111b2576111a38183612095565b508b610c83565b611278613e76565b610c29565b866011897f4e487b71000000000000000000000000000000000000000000000000000000005f52525ffd5b6112bf91508b3d8d1161112d5761111c8183612095565b8f610c0f565b50505f90610baa565b90508681813d83116112f4575b6112e58183612095565b810103126101c557518b610b93565b503d6112db565b8a513d5f823e3d90fd5b9098508681813d831161132d575b61131d8183612095565b810103126101c557519786610b50565b503d611313565b60648460208551917f08c379a0000000000000000000000000000000000000000000000000000000008352820152602060248201527f416d6f756e74206d7573742062652067726561746572207468616e207a65726f6044820152fd5b82346101c5575f6003193601126101c5576020906006549051908152f35b82346101c5575f6003193601126101c55760209060ff7fcd5ed15c6e187e77e9aee88184c21f4f2182ab5827cb3b7e07fbedcd63f03300541690519015158152f35b82346101c5575f6003193601126101c55773ffffffffffffffffffffffffffffffffffffffff7f000000000000000000000000000000000000000000000000000000000000000016300361146857602090517f360894a13ba1a3210667c828492db98dca3e2076cc3735a920a3ca505d382bbc8152f35b517fe07c8dba000000000000000000000000000000000000000000000000000000008152fd5b82346101c557806003193601126101c5578135906114aa611f7b565b926114b483613b9f565b926114c0818354612257565b825573ffffffffffffffffffffffffffffffffffffffff6114e685826002541693612257565b95845190817fa9059cbb0000000000000000000000000000000000000000000000000000000094858252815f8161154660209d8e978c84016020909392919373ffffffffffffffffffffffffffffffffffffffff60408201951681520152565b03925af1801561173b5761171e575b5061155f85613b9f565b948160035416908551917f04cc732500000000000000000000000000000000000000000000000000000000835288838781845afa9283156110b35786949392918a915f946116ff575b508851978880927f3b19e84a0000000000000000000000000000000000000000000000000000000082525afa9586156110b357908992915f976116d8575b509061163492916115fc8a866002541692612257565b915f8a518096819582948c84528b84016020909392919373ffffffffffffffffffffffffffffffffffffffff60408201951681520152565b03925af180156116ce57915f9189969594936116b1575b506002541692611689875198899687958694855284016020909392919373ffffffffffffffffffffffffffffffffffffffff60408201951681520152565b03925af190811561107a575061169b57005b8161020e92903d106111b2576111a38183612095565b6116c790873d89116111b2576111a38183612095565b508961164b565b86513d5f823e3d90fd5b83929197506116f690611634943d851161122d5761121f8183612095565b969091926115e6565b611717919450823d841161122d5761121f8183612095565b928b6115a8565b61173490873d89116111b2576111a38183612095565b5086611555565b85513d5f823e3d90fd5b9050816003193601126101c55761175a611f9e565b60243567ffffffffffffffff81116101c557366023820112156101c55761178a903690602481860135910161213d565b9273ffffffffffffffffffffffffffffffffffffffff807f0000000000000000000000000000000000000000000000000000000000000000168030149081156119dc575b506119b4576117db613e06565b82169181517f52d1902d0000000000000000000000000000000000000000000000000000000081526020818681875afa5f9181611980575b506118485750506024935051917f4c9c8ce3000000000000000000000000000000000000000000000000000000008352820152fd5b7f360894a13ba1a3210667c828492db98dca3e2076cc3735a920a3ca505d382bbc9493929194908181036119515750843b1561192257827fffffffffffffffffffffffff000000000000000000000000000000000000000082541617905551907fbc7cd75a20ee27fd9adebab32041f755214dbc6bffa90cc0225b39da2e5c2d3b5f80a28351156118f25750505f8083602061020e95519101845af46118ec6122a8565b91614380565b91509150346118fd57005b7fb398979f000000000000000000000000000000000000000000000000000000008152fd5b506024935051917f4c9c8ce3000000000000000000000000000000000000000000000000000000008352820152fd5b846024918451917faa1d49a4000000000000000000000000000000000000000000000000000000008352820152fd5b9091506020813d6020116119ac575b8161199c60209383612095565b810103126101c55751905f611813565b3d915061198f565b8382517fe07c8dba000000000000000000000000000000000000000000000000000000008152fd5b9050817f360894a13ba1a3210667c828492db98dca3e2076cc3735a920a3ca505d382bbc541614155f6117ce565b82346101c5575f6003193601126101c557611a23613e06565b7fcd5ed15c6e187e77e9aee88184c21f4f2182ab5827cb3b7e07fbedcd63f033009182549060ff821615611aa2577f5db9ee0a495bf2e6ff9c91a7834c1ba4fdd244a5e8aa4e537bd38aeae4b073aa602084867fffffffffffffffffffffffffffffffffffffffffffffffffffffffffffffff008616905551338152a1005b82517f8dfc202b000000000000000000000000000000000000000000000000000000008152fd5b82346101c5575f6003193601126101c55760209061022c6131f3565b82346101c5575f6003193601126101c5576020906005549051908152f35b82346101c5575f6003193601126101c5576020905160128152f35b82346101c5575f6003193601126101c55760209061022c612d94565b9050346101c55760606003193601126101c557611b55611f9e565b611b5d611f7b565b9060443592611ba98273ffffffffffffffffffffffffffffffffffffffff165f527f52c63247e1f47db19d5ce0460030c497f067ca4cebf71ba98eeadabe20bace0160205260405f2090565b335f52602052845f2054907fffffffffffffffffffffffffffffffffffffffffffffffffffffffffffffffff8203611bea575b60208661057b878787613ca7565b848210611cd95773ffffffffffffffffffffffffffffffffffffffff831615611caa573315611c7b575091818461057b94611c66602098979573ffffffffffffffffffffffffffffffffffffffff165f527f52c63247e1f47db19d5ce0460030c497f067ca4cebf71ba98eeadabe20bace0160205260405f2090565b335f52885203855f2055919394819350611bdc565b6024905f8751917f94280d62000000000000000000000000000000000000000000000000000000008352820152fd5b6024905f8751917fe602df05000000000000000000000000000000000000000000000000000000008352820152fd5b85517ffb8f41b20000000000000000000000000000000000000000000000000000000081523391810191825260208201929092526040810185905281906060010390fd5b0390fd5b82346101c5575f6003193601126101c5576020907f52c63247e1f47db19d5ce0460030c497f067ca4cebf71ba98eeadabe20bace02549051908152f35b82346101c557806003193601126101c557611d77611f9e565b602435903315611e535773ffffffffffffffffffffffffffffffffffffffff16908115611e245760209350611de93373ffffffffffffffffffffffffffffffffffffffff165f527f52c63247e1f47db19d5ce0460030c497f067ca4cebf71ba98eeadabe20bace0160205260405f2090565b825f52845280835f205582519081527f8c5be1e5ebec7d5bd14f71427d1e84f3dd0314c0f7b2291e5b200ac8c7c3b925843392a35160018152f35b6024845f8551917f94280d62000000000000000000000000000000000000000000000000000000008352820152fd5b6024845f8551917fe602df05000000000000000000000000000000000000000000000000000000008352820152fd5b82346101c5575f6003193601126101c55780515f7f52c63247e1f47db19d5ce0460030c497f067ca4cebf71ba98eeadabe20bace03805490611ec382612d36565b808552916020916001918281169081156106d55750600114611ef057610522868861067382890383612095565b5f90815293507f2ae08a8e29253f69ac5d979a101956ab8f8d9d7ded63fa7a83b16fc47648eab05b838510611f35575050505081016020016106738261052286610662565b8054868601840152938201938101611f18565b82346101c5576003193601126101c5576105aa90611f64611f7b565b90611f6d613af0565b611f75613b4a565b356122d7565b6024359073ffffffffffffffffffffffffffffffffffffffff821682036101c557565b6004359073ffffffffffffffffffffffffffffffffffffffff821682036101c557565b6044359073ffffffffffffffffffffffffffffffffffffffff821682036101c557565b6064359073ffffffffffffffffffffffffffffffffffffffff821682036101c557565b6084359073ffffffffffffffffffffffffffffffffffffffff821682036101c557565b60a4359073ffffffffffffffffffffffffffffffffffffffff821682036101c557565b7fffffffffffffffffffffffffffffffffffffffffffffffffffffffffffffffe0601f602060409481855280519182918282880152018686015e5f8582860101520116010190565b90601f7fffffffffffffffffffffffffffffffffffffffffffffffffffffffffffffffe0910116810190811067ffffffffffffffff8211176120d657604052565b7f4e487b71000000000000000000000000000000000000000000000000000000005f52604160045260245ffd5b67ffffffffffffffff81116120d657601f017fffffffffffffffffffffffffffffffffffffffffffffffffffffffffffffffe01660200190565b92919261214982612103565b916121576040519384612095565b8294818452818301116101c5578281602093845f960137010152565b9080601f830112156101c55781602061218e9335910161213d565b90565b908160209103126101c5575160ff811681036101c55790565b60ff166012039060ff82116121bb57565b7f4e487b71000000000000000000000000000000000000000000000000000000005f52601160045260245ffd5b9060ff8091169116039060ff82116121bb57565b60ff16604d81116121bb57600a0a90565b818102929181159184041417156121bb57565b811561222a570490565b7f4e487b71000000000000000000000000000000000000000000000000000000005f52601260045260245ffd5b919082039182116121bb57565b908160209103126101c5575180151581036101c55790565b908160209103126101c5575173ffffffffffffffffffffffffffffffffffffffff811681036101c55790565b3d156122d2573d906122b982612103565b916122c76040519384612095565b82523d5f602084013e565b606090565b91905f8315612cd857335f527f52c63247e1f47db19d5ce0460030c497f067ca4cebf71ba98eeadabe20bace009060209082825260409386855f205410612c7b5773ffffffffffffffffffffffffffffffffffffffff908160015416978651957f313ce56700000000000000000000000000000000000000000000000000000000908188528787818d60049b8c915afa9081156112fb575f91612c5e575b508560025416908a519484865289868c81865afa9586156111d6575f96612c3f575b50875f5416948c519081528a818d81895afa8015612a41579a8d9e9f8d9e602493839f9d9e612c22575b5051928380927f70a08231000000000000000000000000000000000000000000000000000000009e8f835230908301525afa908115612ba6578d8f8c908f935f95612be9575b5090602491519788938492835230908301525afa938415612ba6578d8f8c908f935f98612bb0575b509060249151998a938492835230908301525afa958615612ba6575f96612b75575b5061247561246861247c92610f49610f38876121aa565b94610f49610f388a6121aa565b938261220d565b6124bc7f52c63247e1f47db19d5ce0460030c497f067ca4cebf71ba98eeadabe20bace02916124b76124b084548093612220565b968561220d565b612220565b943315612b44578e818e335f52525f205490838210612ae5578f95610f3d8f9761253c975f88610f3893610f3d9961258f9e9b610f389a8f9a6125369b338852520382852055828154039055519081527fddf252ad1be2c89b69c2b068fc378daa952ba7f163c4a11628f55a4df523b3ef8c3392a36121aa565b976121aa565b6001548c517fba087652000000000000000000000000000000000000000000000000000000008152808d01968752306020880181905260408801529195919384929189169183915f918391606090910190565b03925af180156112fb57908891612abc575b5050835f5416908951868152308a8201528881602481865afa90811561113457908a92915f91612a87575b50906125d791612257565b918883612801575b50505050806126d0575b50506001541693855191825230818301528382602481885afa9182156126c657908492918492612694575b50602490875196879384927f07a2d13a0000000000000000000000000000000000000000000000000000000084528301525afa93841561268a57509261265c575b5050600555565b90809250813d8311612683575b6126738183612095565b810103126101c557515f80612655565b503d612669565b51903d90823e3d90fd5b8381949293503d83116126bf575b6126ac8183612095565b810103126101c557905183916024612614565b503d6126a2565b86513d85823e3d90fd5b303b156101c55787517f4ff16a4100000000000000000000000000000000000000000000000000000000815287810191825273ffffffffffffffffffffffffffffffffffffffff90921660208201525f9082908190604001038183305af190816127b9575b506127b2576127426122a8565b506001541693855191825230818301528382602481885afa9182156126c6579084929184926126945750602490875196879384927f07a2d13a0000000000000000000000000000000000000000000000000000000084528301525afa93841561268a57509261265c575050600555565b5f806125e9565b90935067ffffffffffffffff81116127d55786525f925f612735565b6041867f4e487b71000000000000000000000000000000000000000000000000000000005f525260245ffd5b6128725f928d61281a61281388613b9f565b8098612257565b90519485809481938c7fa9059cbb000000000000000000000000000000000000000000000000000000009a8b855284016020909392919373ffffffffffffffffffffffffffffffffffffffff60408201951681520152565b03925af1801561113457612a6a575b5061288b82613b9f565b9185600354168b51907f04cc73250000000000000000000000000000000000000000000000000000000082528a828d81845afa918215612a41578c949392918e8d925f94612a4b575b5051958680927f3b19e84a0000000000000000000000000000000000000000000000000000000082525afa938415612a4157889493928c928f928f9089905f98612a14575b509061292f5f9261296598999a84541695612257565b9451968795869485938b855284016020909392919373ffffffffffffffffffffffffffffffffffffffff60408201951681520152565b03925af180156111d6575f8b94938e938e936129f7575b506129b98a835416945197889687958694855284016020909392919373ffffffffffffffffffffffffffffffffffffffff60408201951681520152565b03925af180156129ed576129d0575b8781886125df565b6129e690873d89116111b2576111a38183612095565b505f6129c8565b89513d5f823e3d90fd5b612a0d90873d89116111b2576111a38183612095565b505f61297c565b6129659798505f9291612a3661292f92893d8b1161122d5761121f8183612095565b999850919250612919565b8d513d5f823e3d90fd5b612a63919450833d851161122d5761121f8183612095565b925f6128d4565b612a8090893d8b116111b2576111a38183612095565b505f612881565b809293508a8092503d8311612ab5575b612aa18183612095565b810103126101c557518991906125d76125cc565b503d612a97565b813d8311612ade575b612acf8183612095565b810103126101c557865f6125a1565b503d612ac5565b508d8f84611d1d91519384937fe450d38c0000000000000000000000000000000000000000000000000000000085523390850160409194939273ffffffffffffffffffffffffffffffffffffffff606083019616825260208201520152565b505060248c5f8f51917f96c6fd1e000000000000000000000000000000000000000000000000000000008352820152fd5b9095508b81813d8311612b9f575b612b8d8183612095565b810103126101c5575194612475612451565b503d612b83565b8e513d5f823e3d90fd5b975050505084813d8311612be2575b612bc98183612095565b810103126101c5578b8d8f958c6024915197909161242f565b503d612bbf565b945050505081813d8311612c1b575b612c028183612095565b810103126101c5578b8d8f928c60249151949091612407565b503d612bf8565b612c3890843d861161112d5761111c8183612095565b505f6123c1565b612c579196508a3d8c1161112d5761111c8183612095565b945f612397565b612c759150883d8a1161112d5761111c8183612095565b5f612375565b6064838651907f08c379a00000000000000000000000000000000000000000000000000000000082526004820152601460248201527f496e73756666696369656e742062616c616e63650000000000000000000000006044820152fd5b60646040517f08c379a000000000000000000000000000000000000000000000000000000000815260206004820152602060248201527f536861726573206d7573742062652067726561746572207468616e207a65726f6044820152fd5b90600182811c92168015612d7d575b6020831014612d5057565b7f4e487b71000000000000000000000000000000000000000000000000000000005f52602260045260245ffd5b91607f1691612d45565b919082018092116121bb57565b73ffffffffffffffffffffffffffffffffffffffff80600354169060408051917fbb3ba04c00000000000000000000000000000000000000000000000000000000835260209060049382818681895afa9081156131cc57928281939287955f916131d6575b5016968551948580927f1bf01e9b0000000000000000000000000000000000000000000000000000000082525afa9283156131cc575f936131ad575b505f958160015416958551977f70a082310000000000000000000000000000000000000000000000000000000098898152308382015285816024818c5afa908115613145579086915f9161317e575b5060248951809b81937f07a2d13a000000000000000000000000000000000000000000000000000000008352878301525afa9788156110b3575f9861314f575b508360025416978751998a5230838b0152858a6024818c5afa998a15613145575f9a613116575b50845f5416948716851415988961306c575b88517f248391ff0000000000000000000000000000000000000000000000000000000080825273ffffffffffffffffffffffffffffffffffffffff9283168683019081529288166020840152604083019c909c52908790829081906060010381885afa9081156129ed575f9161303d575b50612f7c90612f8193612d87565b612d87565b97612f8a6131f3565b97612fa0575b5050505050505061218e91612d87565b865190815273ffffffffffffffffffffffffffffffffffffffff9384169181019182529490921660208301526040820186905282918491908290819060600103915afa92831561107a57505f9261300d575b50506130019061218e93612d87565b915f8080808080612f90565b90809250813d8311613036575b6130248183612095565b810103126101c5575182613001612ff2565b503d61301a565b90508681813d8311613065575b6130548183612095565b810103126101c55751612f81612f6e565b503d61304a565b915087517f248391ff0000000000000000000000000000000000000000000000000000000081528681806130cf858c8b8a850160409194939294606082019573ffffffffffffffffffffffffffffffffffffffff80921683521660208201520152565b0381885afa9081156129ed575f916130e9575b5091612efd565b90508681813d831161310f575b6131008183612095565b810103126101c557515f6130e2565b503d6130f6565b9099508581813d831161313e575b61312e8183612095565b810103126101c55751985f612eeb565b503d613124565b88513d5f823e3d90fd5b9097508481813d8311613177575b6131678183612095565b810103126101c55751965f612ec4565b503d61315d565b82819392503d83116131a6575b6131958183612095565b810103126101c5578590515f612e84565b503d61318b565b6131c5919350823d841161122d5761121f8183612095565b915f612e35565b84513d5f823e3d90fd5b6131ed9150833d851161122d5761121f8183612095565b5f612df9565b73ffffffffffffffffffffffffffffffffffffffff60015416604051907f70a082310000000000000000000000000000000000000000000000000000000082523060048301526020918281602481855afa80156132df5783915f916132ea575b506024604051809481937f07a2d13a00000000000000000000000000000000000000000000000000000000835260048301525afa9182156132df575f926132b1575b5050600554808211156132ab5761218e91612257565b50505f90565b90809250813d83116132d8575b6132c88183612095565b810103126101c557515f80613295565b503d6132be565b6040513d5f823e3d90fd5b82819392503d8311613312575b6133018183612095565b810103126101c5578290515f613253565b503d6132f7565b929192613324614327565b61332c614327565b61333533613a2f565b61333d614327565b613345614327565b80519067ffffffffffffffff918281116120d6577f52c63247e1f47db19d5ce0460030c497f067ca4cebf71ba98eeadabe20bace0390806133868354612d36565b93601f9485811161387f575b506020908583116001146137c3575f926137b8575b50507fffffffffffffffffffffffffffffffffffffffffffffffffffffffffffffffff8260011b9260031b1c19161790555b82519182116120d65781907f52c63247e1f47db19d5ce0460030c497f067ca4cebf71ba98eeadabe20bace04936134108554612d36565b82811161374a575b50602091831160011461368e575f92613683575b50507fffffffffffffffffffffffffffffffffffffffffffffffffffffffffffffffff8260011b9260031b1c19161790555b613466614327565b61346e614327565b613476614327565b60017f9b779b17422d0df92223018b32b4d1fa46e071723d6817e2486d003becc55f00556134a2614327565b6134aa614327565b7fcd5ed15c6e187e77e9aee88184c21f4f2182ab5827cb3b7e07fbedcd63f033007fffffffffffffffffffffffffffffffffffffffffffffffffffffffffffffff00815416905573ffffffffffffffffffffffffffffffffffffffff8092169180807fffffffffffffffffffffffff00000000000000000000000000000000000000009385855f5416175f55169485846001541617600155169485836002541617600255169060035416176003551561362557156135c7571561356957565b60646040517f08c379a000000000000000000000000000000000000000000000000000000000815260206004820152601660248201527f496e76616c6964206173736574422061646472657373000000000000000000006044820152fd5b60646040517f08c379a000000000000000000000000000000000000000000000000000000000815260206004820152601b60248201527f496e76616c696420596561726e205661756c74206164647265737300000000006044820152fd5b60646040517f08c379a000000000000000000000000000000000000000000000000000000000815260206004820152601660248201527f496e76616c6964206173736574412061646472657373000000000000000000006044820152fd5b015190505f8061342c565b5f8581527f46a2803e59a4de4e7a4c574b1243f25977ac4c77d5a1a4a609b5394cebb4a2aa937fffffffffffffffffffffffffffffffffffffffffffffffffffffffffffffffe016905b81811061373257509084600195949392106136fb575b505050811b01905561345e565b01517fffffffffffffffffffffffffffffffffffffffffffffffffffffffffffffffff60f88460031b161c191690555f80806136ee565b929360206001819287860151815501950193016136d8565b90919250845f527f46a2803e59a4de4e7a4c574b1243f25977ac4c77d5a1a4a609b5394cebb4a2aa8380860160051c820192602087106137af575b94869594939291940160051c01905b8181106137a15750613418565b5f8155859450600101613794565b92508192613785565b015190505f806133a7565b5f8581527f2ae08a8e29253f69ac5d979a101956ab8f8d9d7ded63fa7a83b16fc47648eab0937fffffffffffffffffffffffffffffffffffffffffffffffffffffffffffffffe016905b8181106138675750908460019594939210613830575b505050811b0190556133d9565b01517fffffffffffffffffffffffffffffffffffffffffffffffffffffffffffffffff60f88460031b161c191690555f8080613823565b9293602060018192878601518155019501930161380d565b909150835f527f2ae08a8e29253f69ac5d979a101956ab8f8d9d7ded63fa7a83b16fc47648eab08580850160051c820192602086106138e1575b9085949392910160051c01905b8181106138d35750613392565b5f81558493506001016138c6565b925081926138b9565b7f52c63247e1f47db19d5ce0460030c497f067ca4cebf71ba98eeadabe20bace02548015613a2a5773ffffffffffffffffffffffffffffffffffffffff80600354169060405180927f1bf01e9b00000000000000000000000000000000000000000000000000000000825281600460209586935afa80156132df5783915f91613a0d575b506004604051809481937f313ce567000000000000000000000000000000000000000000000000000000008352165afa9182156132df576139cc926139bf92610f38925f926139f0575b50506121aa565b6139c7612d94565b61220d565b90670de0b6b3a7640000918281029281840414901517156121bb5761218e91612220565b613a069250803d1061112d5761111c8183612095565b5f806139b8565b613a249150823d841161122d5761121f8183612095565b5f61396e565b505f90565b73ffffffffffffffffffffffffffffffffffffffff809116908115613ac0577f9016d09d72d40fdae2fd8ceac6b6234c7706214fd39c1cd1e609a0528c199300805490837fffffffffffffffffffffffff00000000000000000000000000000000000000008316179055167f8be0079c531659141344cd1fd0a4f28419497f9722a3daafe3b4186f6b6457e05f80a3565b60246040517f1e4fbdf70000000000000000000000000000000000000000000000000000000081525f6004820152fd5b7f9b779b17422d0df92223018b32b4d1fa46e071723d6817e2486d003becc55f006002815414613b205760029055565b60046040517f3ee5aeb5000000000000000000000000000000000000000000000000000000008152fd5b60ff7fcd5ed15c6e187e77e9aee88184c21f4f2182ab5827cb3b7e07fbedcd63f033005416613b7557565b60046040517fd93c0665000000000000000000000000000000000000000000000000000000008152fd5b73ffffffffffffffffffffffffffffffffffffffff60035416604051917f85462d6f0000000000000000000000000000000000000000000000000000000083526020918284600481845afa9384156132df575f94613c78575b5082600491604051928380927f4f4608a20000000000000000000000000000000000000000000000000000000082525afa9283156132df575f93613c46575b505061218e926124b79161220d565b9080929350813d8311613c71575b613c5e8183612095565b810103126101c5575190826124b7613c37565b503d613c54565b9093508281813d8311613ca0575b613c908183612095565b810103126101c557519282613bf8565b503d613c86565b9173ffffffffffffffffffffffffffffffffffffffff808416928315613dd65716928315613da657825f527f52c63247e1f47db19d5ce0460030c497f067ca4cebf71ba98eeadabe20bace008060205260405f205491838310613d4d575091806020927fddf252ad1be2c89b69c2b068fc378daa952ba7f163c4a11628f55a4df523b3ef94865f5284520360405f2055845f5260405f20818154019055604051908152a3565b6040517fe450d38c00000000000000000000000000000000000000000000000000000000815273ffffffffffffffffffffffffffffffffffffffff91909116600482015260248101929092525060448101829052606490fd5b60246040517fec442f050000000000000000000000000000000000000000000000000000000081525f6004820152fd5b60246040517f96c6fd1e0000000000000000000000000000000000000000000000000000000081525f6004820152fd5b73ffffffffffffffffffffffffffffffffffffffff7f9016d09d72d40fdae2fd8ceac6b6234c7706214fd39c1cd1e609a0528c19930054163303613e4657565b60246040517f118cdaa7000000000000000000000000000000000000000000000000000000008152336004820152fd5b73ffffffffffffffffffffffffffffffffffffffff806001541690604080517f70a082310000000000000000000000000000000000000000000000000000000081526004903082820152602093602491858184818a5afa90811561173b575f916142fa575b508451907f07a2d13a00000000000000000000000000000000000000000000000000000000825284820152858184818a5afa90811561173b575f916142cd575b50600554808211156142c457613f3091612257565b925b8315614243578451967fc6e6f592000000000000000000000000000000000000000000000000000000008852848289015286888581845afa9788156116ce575f98614212575b5085517fba0876520000000000000000000000000000000000000000000000000000000081528281019889523060208a0181905260408a0152978791899182905f9082906060015b03925af196871561173b575f976141e3575b50861561418857808683600354168751928380927f82755ebb0000000000000000000000000000000000000000000000000000000082525afa9081156116ce579083915f9161416b575b50165f8761407f858354168b8a519485809481937f095ea7b3000000000000000000000000000000000000000000000000000000008352898b84016020909392919373ffffffffffffffffffffffffffffffffffffffff60408201951681520152565b03925af180156110b357608492899594925f9261414e575b50848254169460025416895197889687957f2d6bc8ea0000000000000000000000000000000000000000000000000000000087528601528401528a60448401523060648401525af180156141445761411a575b507f1cbc5ab135991bd2b6a4b034a04aa2aa086dac1371cb9b16b8b5e2ed6b036bed9282519485528401523392a2565b8390813d831161413d575b61412f8183612095565b810103126101c5575f6140ea565b503d614125565b83513d5f823e3d90fd5b61416490873d89116111b2576111a38183612095565b505f614097565b6141829150883d8a1161122d5761121f8183612095565b5f61401c565b606490601d84888851937f08c379a00000000000000000000000000000000000000000000000000000000085528401528201527f42616c756e695631795661756c743a2052656465656d204661696c65640000006044820152fd5b9096508581813d831161420b575b6141fb8183612095565b810103126101c55751955f613fd2565b503d6141f1565b97508688813d831161423c575b6142298183612095565b810103126101c557965196613fc0613f78565b503d61421f565b608490602584888851937f08c379a00000000000000000000000000000000000000000000000000000000085528401528201527f42616c756e695631795661756c743a204e6f20696e746572657374206176616960448201527f6c61626c650000000000000000000000000000000000000000000000000000006064820152fd5b50505f92613f32565b90508581813d83116142f3575b6142e48183612095565b810103126101c557515f613f1b565b503d6142da565b90508581813d8311614320575b6143118183612095565b810103126101c557515f613edb565b503d614307565b60ff7ff0c57e16840df040f15088dc2f81fe391c3923bec73e23a9662efc9c229c6a005460401c161561435657565b60046040517fd7e6bcf8000000000000000000000000000000000000000000000000000000008152fd5b906143bf575080511561439557805190602001fd5b60046040517f1425ea42000000000000000000000000000000000000000000000000000000008152fd5b81511580614417575b6143d0575090565b60249073ffffffffffffffffffffffffffffffffffffffff604051917f9996b315000000000000000000000000000000000000000000000000000000008352166004820152fd5b50803b156143c856fea2646970667358221220268620317b25a8efbb7e6d84b07389f30377fcd622c70a09b232667c7487c01f64736f6c63430008190033",
  "linkReferences": {},
  "deployedLinkReferences": {}
}