{
  "_format": "hh-sol-artifact-1",
  "contractName": "BaluniV1YearnVault",
  "sourceName": "contracts/vaults/BaluniV1YearnVault.sol",
  "abi": [
    {
      "inputs": [
        {
          "internalType": "address",
          "name": "target",
          "type": "address"
        }
      ],
      "name": "AddressEmptyCode",
      "type": "error"
    },
    {
      "inputs": [
        {
          "internalType": "address",
          "name": "implementation",
          "type": "address"
        }
      ],
      "name": "ERC1967InvalidImplementation",
      "type": "error"
    },
    {
      "inputs": [],
      "name": "ERC1967NonPayable",
      "type": "error"
    },
    {
      "inputs": [
        {
          "internalType": "address",
          "name": "spender",
          "type": "address"
        },
        {
          "internalType": "uint256",
          "name": "allowance",
          "type": "uint256"
        },
        {
          "internalType": "uint256",
          "name": "needed",
          "type": "uint256"
        }
      ],
      "name": "ERC20InsufficientAllowance",
      "type": "error"
    },
    {
      "inputs": [
        {
          "internalType": "address",
          "name": "sender",
          "type": "address"
        },
        {
          "internalType": "uint256",
          "name": "balance",
          "type": "uint256"
        },
        {
          "internalType": "uint256",
          "name": "needed",
          "type": "uint256"
        }
      ],
      "name": "ERC20InsufficientBalance",
      "type": "error"
    },
    {
      "inputs": [
        {
          "internalType": "address",
          "name": "approver",
          "type": "address"
        }
      ],
      "name": "ERC20InvalidApprover",
      "type": "error"
    },
    {
      "inputs": [
        {
          "internalType": "address",
          "name": "receiver",
          "type": "address"
        }
      ],
      "name": "ERC20InvalidReceiver",
      "type": "error"
    },
    {
      "inputs": [
        {
          "internalType": "address",
          "name": "sender",
          "type": "address"
        }
      ],
      "name": "ERC20InvalidSender",
      "type": "error"
    },
    {
      "inputs": [
        {
          "internalType": "address",
          "name": "spender",
          "type": "address"
        }
      ],
      "name": "ERC20InvalidSpender",
      "type": "error"
    },
    {
      "inputs": [],
      "name": "EnforcedPause",
      "type": "error"
    },
    {
      "inputs": [],
      "name": "ExpectedPause",
      "type": "error"
    },
    {
      "inputs": [],
      "name": "FailedInnerCall",
      "type": "error"
    },
    {
      "inputs": [],
      "name": "InvalidInitialization",
      "type": "error"
    },
    {
      "inputs": [],
      "name": "NotInitializing",
      "type": "error"
    },
    {
      "inputs": [
        {
          "internalType": "address",
          "name": "owner",
          "type": "address"
        }
      ],
      "name": "OwnableInvalidOwner",
      "type": "error"
    },
    {
      "inputs": [
        {
          "internalType": "address",
          "name": "account",
          "type": "address"
        }
      ],
      "name": "OwnableUnauthorizedAccount",
      "type": "error"
    },
    {
      "inputs": [],
      "name": "ReentrancyGuardReentrantCall",
      "type": "error"
    },
    {
      "inputs": [],
      "name": "UUPSUnauthorizedCallContext",
      "type": "error"
    },
    {
      "inputs": [
        {
          "internalType": "bytes32",
          "name": "slot",
          "type": "bytes32"
        }
      ],
      "name": "UUPSUnsupportedProxiableUUID",
      "type": "error"
    },
    {
      "anonymous": false,
      "inputs": [
        {
          "indexed": true,
          "internalType": "address",
          "name": "owner",
          "type": "address"
        },
        {
          "indexed": true,
          "internalType": "address",
          "name": "spender",
          "type": "address"
        },
        {
          "indexed": false,
          "internalType": "uint256",
          "name": "value",
          "type": "uint256"
        }
      ],
      "name": "Approval",
      "type": "event"
    },
    {
      "anonymous": false,
      "inputs": [
        {
          "indexed": true,
          "internalType": "address",
          "name": "sender",
          "type": "address"
        },
        {
          "indexed": false,
          "internalType": "uint256",
          "name": "amount",
          "type": "uint256"
        },
        {
          "indexed": false,
          "internalType": "uint256",
          "name": "interest",
          "type": "uint256"
        }
      ],
      "name": "Buy",
      "type": "event"
    },
    {
      "anonymous": false,
      "inputs": [
        {
          "indexed": false,
          "internalType": "uint64",
          "name": "version",
          "type": "uint64"
        }
      ],
      "name": "Initialized",
      "type": "event"
    },
    {
      "anonymous": false,
      "inputs": [
        {
          "indexed": true,
          "internalType": "address",
          "name": "previousOwner",
          "type": "address"
        },
        {
          "indexed": true,
          "internalType": "address",
          "name": "newOwner",
          "type": "address"
        }
      ],
      "name": "OwnershipTransferred",
      "type": "event"
    },
    {
      "anonymous": false,
      "inputs": [
        {
          "indexed": false,
          "internalType": "address",
          "name": "account",
          "type": "address"
        }
      ],
      "name": "Paused",
      "type": "event"
    },
    {
      "anonymous": false,
      "inputs": [
        {
          "indexed": true,
          "internalType": "address",
          "name": "from",
          "type": "address"
        },
        {
          "indexed": true,
          "internalType": "address",
          "name": "to",
          "type": "address"
        },
        {
          "indexed": false,
          "internalType": "uint256",
          "name": "value",
          "type": "uint256"
        }
      ],
      "name": "Transfer",
      "type": "event"
    },
    {
      "anonymous": false,
      "inputs": [
        {
          "indexed": false,
          "internalType": "address",
          "name": "account",
          "type": "address"
        }
      ],
      "name": "Unpaused",
      "type": "event"
    },
    {
      "anonymous": false,
      "inputs": [
        {
          "indexed": true,
          "internalType": "address",
          "name": "implementation",
          "type": "address"
        }
      ],
      "name": "Upgraded",
      "type": "event"
    },
    {
      "inputs": [],
      "name": "UPGRADE_INTERFACE_VERSION",
      "outputs": [
        {
          "internalType": "string",
          "name": "",
          "type": "string"
        }
      ],
      "stateMutability": "view",
      "type": "function"
    },
    {
      "inputs": [],
      "name": "accumulatedAssetB",
      "outputs": [
        {
          "internalType": "uint256",
          "name": "",
          "type": "uint256"
        }
      ],
      "stateMutability": "view",
      "type": "function"
    },
    {
      "inputs": [],
      "name": "allTimeInterest",
      "outputs": [
        {
          "internalType": "uint256",
          "name": "",
          "type": "uint256"
        }
      ],
      "stateMutability": "view",
      "type": "function"
    },
    {
      "inputs": [
        {
          "internalType": "address",
          "name": "owner",
          "type": "address"
        },
        {
          "internalType": "address",
          "name": "spender",
          "type": "address"
        }
      ],
      "name": "allowance",
      "outputs": [
        {
          "internalType": "uint256",
          "name": "",
          "type": "uint256"
        }
      ],
      "stateMutability": "view",
      "type": "function"
    },
    {
      "inputs": [
        {
          "internalType": "address",
          "name": "spender",
          "type": "address"
        },
        {
          "internalType": "uint256",
          "name": "value",
          "type": "uint256"
        }
      ],
      "name": "approve",
      "outputs": [
        {
          "internalType": "bool",
          "name": "",
          "type": "bool"
        }
      ],
      "stateMutability": "nonpayable",
      "type": "function"
    },
    {
      "inputs": [
        {
          "internalType": "address",
          "name": "account",
          "type": "address"
        }
      ],
      "name": "balanceOf",
      "outputs": [
        {
          "internalType": "uint256",
          "name": "",
          "type": "uint256"
        }
      ],
      "stateMutability": "view",
      "type": "function"
    },
    {
      "inputs": [],
      "name": "baseAsset",
      "outputs": [
        {
          "internalType": "address",
          "name": "",
          "type": "address"
        }
      ],
      "stateMutability": "view",
      "type": "function"
    },
    {
      "inputs": [],
      "name": "buy",
      "outputs": [],
      "stateMutability": "nonpayable",
      "type": "function"
    },
    {
      "inputs": [],
      "name": "decimals",
      "outputs": [
        {
          "internalType": "uint8",
          "name": "",
          "type": "uint8"
        }
      ],
      "stateMutability": "view",
      "type": "function"
    },
    {
      "inputs": [
        {
          "internalType": "uint256",
          "name": "amount",
          "type": "uint256"
        },
        {
          "internalType": "address",
          "name": "to",
          "type": "address"
        }
      ],
      "name": "deposit",
      "outputs": [],
      "stateMutability": "nonpayable",
      "type": "function"
    },
    {
      "inputs": [
        {
          "internalType": "uint256",
          "name": "withdrawAmountB",
          "type": "uint256"
        },
        {
          "internalType": "address",
          "name": "receiver",
          "type": "address"
        }
      ],
      "name": "handleWithdrawB",
      "outputs": [],
      "stateMutability": "nonpayable",
      "type": "function"
    },
    {
      "inputs": [
        {
          "internalType": "string",
          "name": "_name",
          "type": "string"
        },
        {
          "internalType": "string",
          "name": "_symbol",
          "type": "string"
        },
        {
          "internalType": "address",
          "name": "_assetA",
          "type": "address"
        },
        {
          "internalType": "address",
          "name": "_yearnVaultAddress",
          "type": "address"
        },
        {
          "internalType": "address",
          "name": "_assetB",
          "type": "address"
        },
        {
          "internalType": "address",
          "name": "_registryAddress",
          "type": "address"
        }
      ],
      "name": "initialize",
      "outputs": [],
      "stateMutability": "nonpayable",
      "type": "function"
    },
    {
      "inputs": [],
      "name": "interestEarned",
      "outputs": [
        {
          "internalType": "uint256",
          "name": "",
          "type": "uint256"
        }
      ],
      "stateMutability": "view",
      "type": "function"
    },
    {
      "inputs": [],
      "name": "lastDeposit",
      "outputs": [
        {
          "internalType": "uint256",
          "name": "",
          "type": "uint256"
        }
      ],
      "stateMutability": "view",
      "type": "function"
    },
    {
      "inputs": [],
      "name": "name",
      "outputs": [
        {
          "internalType": "string",
          "name": "",
          "type": "string"
        }
      ],
      "stateMutability": "view",
      "type": "function"
    },
    {
      "inputs": [],
      "name": "owner",
      "outputs": [
        {
          "internalType": "address",
          "name": "",
          "type": "address"
        }
      ],
      "stateMutability": "view",
      "type": "function"
    },
    {
      "inputs": [],
      "name": "pause",
      "outputs": [],
      "stateMutability": "nonpayable",
      "type": "function"
    },
    {
      "inputs": [],
      "name": "paused",
      "outputs": [
        {
          "internalType": "bool",
          "name": "",
          "type": "bool"
        }
      ],
      "stateMutability": "view",
      "type": "function"
    },
    {
      "inputs": [],
      "name": "proxiableUUID",
      "outputs": [
        {
          "internalType": "bytes32",
          "name": "",
          "type": "bytes32"
        }
      ],
      "stateMutability": "view",
      "type": "function"
    },
    {
      "inputs": [],
      "name": "quoteAsset",
      "outputs": [
        {
          "internalType": "address",
          "name": "",
          "type": "address"
        }
      ],
      "stateMutability": "view",
      "type": "function"
    },
    {
      "inputs": [],
      "name": "registry",
      "outputs": [
        {
          "internalType": "address",
          "name": "",
          "type": "address"
        }
      ],
      "stateMutability": "view",
      "type": "function"
    },
    {
      "inputs": [
        {
          "internalType": "string",
          "name": "_name",
          "type": "string"
        },
        {
          "internalType": "string",
          "name": "_symbol",
          "type": "string"
        },
        {
          "internalType": "address",
          "name": "_assetA",
          "type": "address"
        },
        {
          "internalType": "address",
          "name": "_yearnVaultAddress",
          "type": "address"
        },
        {
          "internalType": "address",
          "name": "_assetB",
          "type": "address"
        },
        {
          "internalType": "address",
          "name": "_registryAddress",
          "type": "address"
        },
        {
          "internalType": "uint64",
          "name": "_version",
          "type": "uint64"
        }
      ],
      "name": "reinitialize",
      "outputs": [],
      "stateMutability": "nonpayable",
      "type": "function"
    },
    {
      "inputs": [],
      "name": "renounceOwnership",
      "outputs": [],
      "stateMutability": "nonpayable",
      "type": "function"
    },
    {
      "inputs": [],
      "name": "symbol",
      "outputs": [
        {
          "internalType": "string",
          "name": "",
          "type": "string"
        }
      ],
      "stateMutability": "view",
      "type": "function"
    },
    {
      "inputs": [],
      "name": "totalSupply",
      "outputs": [
        {
          "internalType": "uint256",
          "name": "",
          "type": "uint256"
        }
      ],
      "stateMutability": "view",
      "type": "function"
    },
    {
      "inputs": [],
      "name": "totalValuation",
      "outputs": [
        {
          "internalType": "uint256",
          "name": "",
          "type": "uint256"
        }
      ],
      "stateMutability": "view",
      "type": "function"
    },
    {
      "inputs": [
        {
          "internalType": "address",
          "name": "to",
          "type": "address"
        },
        {
          "internalType": "uint256",
          "name": "value",
          "type": "uint256"
        }
      ],
      "name": "transfer",
      "outputs": [
        {
          "internalType": "bool",
          "name": "",
          "type": "bool"
        }
      ],
      "stateMutability": "nonpayable",
      "type": "function"
    },
    {
      "inputs": [
        {
          "internalType": "address",
          "name": "from",
          "type": "address"
        },
        {
          "internalType": "address",
          "name": "to",
          "type": "address"
        },
        {
          "internalType": "uint256",
          "name": "value",
          "type": "uint256"
        }
      ],
      "name": "transferFrom",
      "outputs": [
        {
          "internalType": "bool",
          "name": "",
          "type": "bool"
        }
      ],
      "stateMutability": "nonpayable",
      "type": "function"
    },
    {
      "inputs": [
        {
          "internalType": "address",
          "name": "newOwner",
          "type": "address"
        }
      ],
      "name": "transferOwnership",
      "outputs": [],
      "stateMutability": "nonpayable",
      "type": "function"
    },
    {
      "inputs": [],
      "name": "unitPrice",
      "outputs": [
        {
          "internalType": "uint256",
          "name": "",
          "type": "uint256"
        }
      ],
      "stateMutability": "view",
      "type": "function"
    },
    {
      "inputs": [],
      "name": "unpause",
      "outputs": [],
      "stateMutability": "nonpayable",
      "type": "function"
    },
    {
      "inputs": [
        {
          "internalType": "address",
          "name": "newImplementation",
          "type": "address"
        },
        {
          "internalType": "bytes",
          "name": "data",
          "type": "bytes"
        }
      ],
      "name": "upgradeToAndCall",
      "outputs": [],
      "stateMutability": "payable",
      "type": "function"
    },
    {
      "inputs": [
        {
          "internalType": "uint256",
          "name": "shares",
          "type": "uint256"
        },
        {
          "internalType": "address",
          "name": "to",
          "type": "address"
        }
      ],
      "name": "withdraw",
      "outputs": [],
      "stateMutability": "nonpayable",
      "type": "function"
    },
    {
      "inputs": [],
      "name": "yearnVault",
      "outputs": [
        {
          "internalType": "address",
          "name": "",
          "type": "address"
        }
      ],
      "stateMutability": "view",
      "type": "function"
    }
  ],
  "bytecode": "0x60a06040523461003e5761001161004d565b610019610043565b61623461010282396080518181816149a501528181614a2a0152614c25015261623490f35b610049565b60405190565b5f80fd5b610055610057565b565b61005f610061565b565b61006961006b565b565b610073610075565b565b61007d61007f565b565b610087610089565b565b610091610093565b565b61009b61009d565b565b6100a56100a7565b565b6100af6100f3565b565b60018060a01b031690565b90565b6100d36100ce6100d8926100b1565b6100bc565b6100b1565b90565b6100e4906100bf565b90565b6100f0906100db565b90565b6100fc306100e7565b60805256fe60806040526004361015610013575b611023565b61001d5f3561023b565b8062f714ce1461023657806306fdde0314610231578063095ea7b31461022c57806318160ddd1461022757806323b872dd14610222578063295b93001461021d578063313ce5671461021857806336b7710714610213578063374261ab1461020e5780633f4ba83a146102095780634f1ef286146102045780634ff16a41146101ff57806352d1902d146101fa5780635c975abb146101f55780636560bc80146101f05780636e553f65146101eb57806370a08231146101e6578063715018a6146101e15780637b103999146101dc5780638456cb59146101d757806388696f62146101d25780638da5cb5b146101cd57806395d89b41146101c85780639db5df46146101c3578063a6f2ae3a146101be578063a9059cbb146101b9578063ad3cb1cc146101b4578063cdf456e1146101af578063dd62ed3e146101aa578063e56f2fe4146101a5578063e73faa2d146101a0578063f2fde38b1461019b578063f7fde10f146101965763fdf262b70361000e57610fee565b610faa565b610f68565b610f33565b610ef9565b610e2f565b610dcd565b610d4c565b610c9e565b610c6b565b610c36565b610c01565b610bcc565b610b92565b610a13565b6109de565b610989565b610954565b610902565b6108cd565b610889565b610854565b6107fb565b6107d1565b61065f565b61062a565b6105f5565b610584565b610527565b6104f1565b610482565b61042a565b6103a1565b6102f3565b60e01c90565b60405190565b5f80fd5b5f80fd5b5f80fd5b90565b61025f81610253565b0361026657565b5f80fd5b9050359061027782610256565b565b73ffffffffffffffffffffffffffffffffffffffff1690565b61029b90610279565b90565b6102a781610292565b036102ae57565b5f80fd5b905035906102bf8261029e565b565b91906040838203126102e957806102dd6102e6925f860161026a565b936020016102b2565b90565b61024b565b5f0190565b346103225761030c6103063660046102c1565b90612189565b610314610241565b8061031e816102ee565b0390f35b610247565b5f91031261033157565b61024b565b5190565b60209181520190565b90825f9392825e0152565b601f801991011690565b6103776103806020936103859361036e81610336565b9384809361033a565b95869101610343565b61034e565b0190565b61039e9160208201915f818403910152610358565b90565b346103d1576103b1366004610327565b6103cd6103bc6122ca565b6103c4610241565b91829182610389565b0390f35b610247565b91906040838203126103fe57806103f26103fb925f86016102b2565b9360200161026a565b90565b61024b565b151590565b61041190610403565b9052565b9190610428905f60208501940190610408565b565b3461045b576104576104466104403660046103d6565b906122ed565b61044e610241565b91829182610415565b0390f35b610247565b61046990610253565b9052565b9190610480905f60208501940190610460565b565b346104b257610492366004610327565b6104ae61049d612334565b6104a5610241565b9182918261046d565b0390f35b610247565b90916060828403126104ec576104e96104d2845f85016102b2565b936104e081602086016102b2565b9360400161026a565b90565b61024b565b346105225761051e61050d6105073660046104b7565b91612353565b610515610241565b91829182610415565b0390f35b610247565b3461055757610537366004610327565b6105536105426123fd565b61054a610241565b9182918261046d565b0390f35b610247565b60ff1690565b61056b9061055c565b9052565b9190610582905f60208501940190610562565b565b346105b457610594366004610327565b6105b061059f612907565b6105a7610241565b9182918261056f565b0390f35b610247565b1c90565b90565b6105d09060086105d593026105b9565b6105bd565b90565b906105e391546105c0565b90565b6105f260055f906105d8565b90565b3461062557610605366004610327565b6106216106106105e6565b610618610241565b9182918261046d565b0390f35b610247565b3461065a5761063a366004610327565b61065661064561291d565b61064d610241565b9182918261046d565b0390f35b610247565b3461068d5761066f366004610327565b610677612aa8565b61067f610241565b80610689816102ee565b0390f35b610247565b5f80fd5b5f80fd5b7f4e487b71000000000000000000000000000000000000000000000000000000005f52604160045260245ffd5b906106d19061034e565b810190811067ffffffffffffffff8211176106eb57604052565b61069a565b906107036106fc610241565b92836106c7565b565b67ffffffffffffffff81116107235761071f60209161034e565b0190565b61069a565b90825f939282370152565b9092919261074861074382610705565b6106f0565b938185526020850190828401116107645761076292610728565b565b610696565b9080601f830112156107875781602061078493359101610733565b90565b610692565b9190916040818403126107cc576107a5835f83016102b2565b92602082013567ffffffffffffffff81116107c7576107c49201610769565b90565b61024f565b61024b565b6107e56107df36600461078c565b90612adb565b6107ed610241565b806107f7816102ee565b0390f35b3461082a5761081461080e3660046102c1565b90612ae7565b61081c610241565b80610826816102ee565b0390f35b610247565b90565b61083b9061082f565b9052565b9190610852905f60208501940190610832565b565b3461088457610864366004610327565b61088061086f612e46565b610877610241565b9182918261083f565b0390f35b610247565b346108b957610899366004610327565b6108b56108a4612e80565b6108ac610241565b91829182610415565b0390f35b610247565b6108ca60065f906105d8565b90565b346108fd576108dd366004610327565b6108f96108e86108be565b6108f0610241565b9182918261046d565b0390f35b610247565b346109315761091b6109153660046102c1565b90613662565b610923610241565b8061092d816102ee565b0390f35b610247565b9060208282031261094f5761094c915f016102b2565b90565b61024b565b346109845761098061096f61096a366004610936565b613690565b610977610241565b9182918261046d565b0390f35b610247565b346109b757610999366004610327565b6109a1613704565b6109a9610241565b806109b3816102ee565b0390f35b610247565b6109c590610292565b9052565b91906109dc905f602085019401906109bc565b565b34610a0e576109ee366004610327565b610a0a6109f9613712565b610a01610241565b918291826109c9565b0390f35b610247565b34610a4157610a23366004610327565b610a2b61374c565b610a33610241565b80610a3d816102ee565b0390f35b610247565b67ffffffffffffffff8111610a6457610a6060209161034e565b0190565b61069a565b90929192610a7e610a7982610a46565b6106f0565b93818552602085019082840111610a9a57610a9892610728565b565b610696565b9080601f83011215610abd57816020610aba93359101610a69565b90565b610692565b67ffffffffffffffff1690565b610ad881610ac2565b03610adf57565b5f80fd5b90503590610af082610acf565b565b60e081830312610b8d575f81013567ffffffffffffffff8111610b885782610b1b918301610a9f565b92602082013567ffffffffffffffff8111610b835783610b3c918401610a9f565b92610b4a81604085016102b2565b92610b5882606083016102b2565b92610b80610b6984608085016102b2565b93610b778160a086016102b2565b9360c001610ae3565b90565b61024f565b61024f565b61024b565b34610bc757610bb1610ba5366004610af2565b95949094939193613d18565b610bb9610241565b80610bc3816102ee565b0390f35b610247565b34610bfc57610bdc366004610327565b610bf8610be7613d29565b610bef610241565b918291826109c9565b0390f35b610247565b34610c3157610c11366004610327565b610c2d610c1c613d47565b610c24610241565b91829182610389565b0390f35b610247565b34610c6657610c46366004610327565b610c62610c51613d66565b610c59610241565b918291826109c9565b0390f35b610247565b34610c9957610c7b366004610327565b610c83613dba565b610c8b610241565b80610c95816102ee565b0390f35b610247565b34610ccf57610ccb610cba610cb43660046103d6565b90613dc4565b610cc2610241565b91829182610415565b0390f35b610247565b90610ce6610ce183610a46565b6106f0565b918252565b5f7f352e302e30000000000000000000000000000000000000000000000000000000910152565b610d1c6005610cd4565b90610d2960208301610ceb565b565b610d33610d12565b90565b610d3e610d2b565b90565b610d49610d36565b90565b34610d7c57610d5c366004610327565b610d78610d67610d41565b610d6f610241565b91829182610389565b0390f35b610247565b73ffffffffffffffffffffffffffffffffffffffff1690565b610daa906008610daf93026105b9565b610d81565b90565b90610dbd9154610d9a565b90565b610dca5f80610db2565b90565b34610dfd57610ddd366004610327565b610df9610de8610dc0565b610df0610241565b918291826109c9565b0390f35b610247565b9190604083820312610e2a5780610e1e610e27925f86016102b2565b936020016102b2565b90565b61024b565b34610e6057610e5c610e4b610e45366004610e02565b90613dfc565b610e53610241565b9182918261046d565b0390f35b610247565b909160c082840312610ef4575f82013567ffffffffffffffff8111610eef5783610e90918401610a9f565b92602083013567ffffffffffffffff8111610eea5781610eb1918501610a9f565b92610ebf82604083016102b2565b92610ee7610ed084606085016102b2565b93610ede81608086016102b2565b9360a0016102b2565b90565b61024f565b61024f565b61024b565b34610f2e57610f18610f0c366004610e65565b94939093929192614113565b610f20610241565b80610f2a816102ee565b0390f35b610247565b34610f6357610f43366004610327565b610f5f610f4e614142565b610f56610241565b9182918261046d565b0390f35b610247565b34610f9657610f80610f7b366004610936565b614359565b610f88610241565b80610f92816102ee565b0390f35b610247565b610fa760045f906105d8565b90565b34610fda57610fba366004610327565b610fd6610fc5610f9b565b610fcd610241565b9182918261046d565b0390f35b610247565b610feb60025f90610db2565b90565b3461101e57610ffe366004610327565b61101a611009610fdf565b611011610241565b918291826109c9565b0390f35b610247565b5f80fd5b9061103991611034614390565b611043565b61104161443c565b565b9061105591611050614459565b61164e565b565b90565b90565b61107161106c61107692611057565b61105a565b610253565b90565b5f7f536861726573206d7573742062652067726561746572207468616e207a65726f910152565b6110ac6020809261033a565b6110b581611079565b0190565b6110ce9060208101905f8183039101526110a0565b90565b156110d857565b6110e0610241565b7f08c379a000000000000000000000000000000000000000000000000000000000815280611110600482016110b9565b0390fd5b5f7f496e73756666696369656e742062616c616e6365000000000000000000000000910152565b611148601460209261033a565b61115181611114565b0190565b61116a9060208101905f81830391015261113b565b90565b1561117457565b61117c610241565b7f08c379a0000000000000000000000000000000000000000000000000000000008152806111ac60048201611155565b0390fd5b5f1c90565b73ffffffffffffffffffffffffffffffffffffffff1690565b6111da6111df916111b0565b6111b5565b90565b6111ec90546111ce565b90565b6112036111fe61120892610279565b61105a565b610279565b90565b611214906111ef565b90565b6112209061120b565b90565b61122c906111ef565b90565b61123890611223565b90565b6112449061120b565b90565b5f80fd5b60e01b90565b61125a8161055c565b0361126157565b5f80fd5b9050519061127282611251565b565b9060208282031261128d5761128a915f01611265565b90565b61024b565b61129a610241565b3d5f823e3d90fd5b6112ae6112b3916111b0565b610d81565b90565b6112c090546112a2565b90565b6112cc9061120b565b90565b905051906112dc82610256565b565b906020828203126112f7576112f4915f016112cf565b90565b61024b565b611305906111ef565b90565b611311906112fc565b90565b61131d9061120b565b90565b90565b61133761133261133c92611320565b61105a565b61055c565b90565b7f4e487b71000000000000000000000000000000000000000000000000000000005f52601160045260245ffd5b61137861137e9161055c565b9161055c565b90039060ff821161138b57565b61133f565b6113999061055c565b604d81116113a757600a0a90565b61133f565b6113bb6113c191939293610253565b92610253565b916113cd838202610253565b9281840414901517156113dc57565b61133f565b7f4e487b71000000000000000000000000000000000000000000000000000000005f52601260045260245ffd5b61141a61142091610253565b91610253565b90811561142b570490565b6113e1565b604090611459611460949695939661144f60608401985f850190610460565b60208301906109bc565b01906109bc565b565b61147161147791939293610253565b92610253565b820391821161148257565b61133f565b61149081610403565b0361149757565b5f80fd5b905051906114a882611487565b565b906020828203126114c3576114c0915f0161149b565b90565b61024b565b9160206114e99294936114e260408201965f8301906109bc565b0190610460565b565b73ffffffffffffffffffffffffffffffffffffffff1690565b611510611515916111b0565b6114eb565b90565b6115229054611504565b90565b61152e9061120b565b90565b9050519061153e8261029e565b565b9060208282031261155957611556915f01611531565b90565b61024b565b5f91031261156857565b61024b565b91602061158e92949361158760408201965f830190610460565b01906109bc565b565b906115a261159d83610705565b6106f0565b918252565b606090565b3d5f146115c7576115bc3d611590565b903d5f602084013e5b565b6115cf6115a7565b906115c5565b5f1b90565b906116057fffffffffffffffffffffffffffffffffffffffffffffffffffffffffffffffff916115d5565b9181191691161790565b61162361161e61162892610253565b61105a565b610253565b90565b90565b9061164361163e61164a9261160f565b61162b565b82546115da565b9055565b61166a8161166461165e5f61105d565b91610253565b116110d1565b61168f61167633613690565b61168861168284610253565b91610253565b101561116d565b6116cc60206116b66116b16116ac6116a760016111e2565b611217565b61122f565b61123b565b63313ce567906116c4610241565b93849261124b565b825281806116dc600482016102ee565b03915afa908115612184575f91612156575b5090611725602061170f61170a61170560026112b6565b61122f565b61123b565b63313ce5679061171d610241565b93849261124b565b82528180611735600482016102ee565b03915afa908115612151575f91612123575b5090611792602061176061175b60016111e2565b611217565b6370a0823190611787611772306112c3565b9261177b610241565b9586948593849361124b565b8352600483016109c9565b03915afa90811561211e575f916120f0575b50926117f760206117c56117c06117bb60026112b6565b611308565b611314565b6370a08231906117ec6117d7306112c3565b926117e0610241565b9586948593849361124b565b8352600483016109c9565b03915afa9081156120eb575f916120bd575b509061185b602061182961182461181f5f6112b6565b611308565b611314565b6370a082319061185061183b306112c3565b92611844610241565b9586948593849361124b565b8352600483016109c9565b03915afa9081156120b8575f9161208a575b50946012829061187c90611323565b906118869161136c565b61188f90611390565b611898916113ac565b91601285906118a690611323565b906118b09161136c565b6118b990611390565b6118c2916113ac565b9183906118ce916113ac565b6118d6612334565b6118df9161140e565b9183906118eb916113ac565b6118f3612334565b6118fc9161140e565b923390611908916144a3565b601261191390611323565b9061191d9161136c565b61192690611390565b61192f9161140e565b91601261193b90611323565b906119459161136c565b61194e90611390565b6119579161140e565b9161196260016111e2565b61196b90611217565b63ba0876523061197a906112c3565b9030611985906112c3565b9461198e610241565b95869361199b859461124b565b845260048401926119ab93611430565b03815a6020945f91f191821561208557611a1292612059575b5060206119e06119db6119d65f6112b6565b611308565b611314565b6370a0823190611a076119f2306112c3565b926119fb610241565b9687948593849361124b565b8352600483016109c9565b03915afa801561205457611a2d925f91612026575b50611462565b80611a40611a3a5f61105d565b91610253565b11611d53575b5080611a5a611a545f61105d565b91610253565b11611b8a575b5050611a74611a6f60016111e2565b611217565b611ac36307a2d13a916020611a91611a8c60016111e2565b611217565b6370a0823190611ab8611aa3306112c3565b92611aac610241565b9687948593849361124b565b8352600483016109c9565b03915afa908115611b8557611b00936020935f93611b52575b50611af590611ae9610241565b9586948593849361124b565b83526004830161046d565b03915afa8015611b4d57611b1d915f91611b1f575b50600561162e565b565b611b40915060203d8111611b46575b611b3881836106c7565b8101906112de565b5f611b15565b503d611b2e565b611292565b611af5919350611b7790853d8111611b7e575b611b6f81836106c7565b8101906112de565b9290611adc565b503d611b65565b611292565b611b93306112c3565b91634ff16a41919092803b15611d4e57611bc05f8094611bcb611bb4610241565b9788968795869461124b565b84526004840161156d565b03925af19081611d22575b50155f14611d1d576001611bec575b5f80611a60565b611bf46115ac565b50611c07611c0260016111e2565b611217565b611c566307a2d13a916020611c24611c1f60016111e2565b611217565b6370a0823190611c4b611c36306112c3565b92611c3f610241565b9687948593849361124b565b8352600483016109c9565b03915afa908115611d1857611c93936020935f93611ce5575b50611c8890611c7c610241565b9586948593849361124b565b83526004830161046d565b03915afa8015611ce057611cb0915f91611cb2575b50600561162e565b565b611cd3915060203d8111611cd9575b611ccb81836106c7565b8101906112de565b5f611ca8565b503d611cc1565b611292565b611c88919350611d0a90853d8111611d11575b611d0281836106c7565b8101906112de565b9290611c6f565b503d611cf8565b611292565b611be5565b611d41905f3d8111611d47575b611d3981836106c7565b81019061155e565b5f611bd6565b503d611d2f565b611247565b611d5c81614522565b906020611d78611d73611d6e5f6112b6565b611308565b611314565b9163a9059cbb92611da75f611d8f89948890611462565b95611db2611d9b610241565b9788968795869461124b565b8452600484016114c8565b03925af1801561202157611ff5575b50611dcb81614522565b611df86020611de2611ddd6003611518565b611525565b6304cc732590611df0610241565b93849261124b565b82528180611e08600482016102ee565b03915afa908115611ff0575f91611fc2575b5090611e496020611e33611e2e6003611518565b611525565b633b19e84a90611e41610241565b93849261124b565b82528180611e59600482016102ee565b03915afa8015611fbd576020915f91611f90575b5093611e88611e83611e7e5f6112b6565b611308565b611314565b611eb55f611e9d63a9059cbb97948790611462565b96611ec0611ea9610241565b9889968795869461124b565b8452600484016114c8565b03925af1918215611f8b57602092611f60575b50611eed611ee8611ee35f6112b6565b611308565b611314565b611f105f63a9059cbb959395611f1b611f04610241565b9788968795869461124b565b8452600484016114c8565b03925af18015611f5b57611f2f575b611a46565b611f4f9060203d8111611f54575b611f4781836106c7565b8101906114aa565b611f2a565b503d611f3d565b611292565b611f7f90833d8111611f84575b611f7781836106c7565b8101906114aa565b611ed3565b503d611f6d565b611292565b611fb09150823d8111611fb6575b611fa881836106c7565b810190611540565b5f611e6d565b503d611f9e565b611292565b611fe3915060203d8111611fe9575b611fdb81836106c7565b810190611540565b5f611e1a565b503d611fd1565b611292565b6120159060203d811161201a575b61200d81836106c7565b8101906114aa565b611dc1565b503d612003565b611292565b612047915060203d811161204d575b61203f81836106c7565b8101906112de565b5f611a27565b503d612035565b611292565b6120799060203d811161207e575b61207181836106c7565b8101906112de565b6119c4565b503d612067565b611292565b6120ab915060203d81116120b1575b6120a381836106c7565b8101906112de565b5f61186d565b503d612099565b611292565b6120de915060203d81116120e4575b6120d681836106c7565b8101906112de565b5f611809565b503d6120cc565b611292565b612111915060203d8111612117575b61210981836106c7565b8101906112de565b5f6117a4565b503d6120ff565b611292565b612144915060203d811161214a575b61213c81836106c7565b810190611274565b5f611747565b503d612132565b611292565b612177915060203d811161217d575b61216f81836106c7565b810190611274565b5f6116ee565b503d612165565b611292565b9061219391611027565b565b606090565b7f4e487b71000000000000000000000000000000000000000000000000000000005f52602260045260245ffd5b90600160028304921680156121e7575b60208310146121e257565b61219a565b91607f16916121d7565b60209181520190565b5f5260205f2090565b905f929180549061221d612216836121c7565b80946121f1565b916001811690815f146122745750600114612238575b505050565b61224591929394506121fa565b915f925b81841061225c57505001905f8080612233565b60018160209295939554848601520191019290612249565b92949550505060ff19168252151560200201905f8080612233565b9061229991612203565b90565b906122bc6122b5926122ac610241565b9384809261228f565b03836106c7565b565b6122c79061229c565b90565b6122d2612195565b506122e660036122e0614648565b016122be565b90565b5f90565b61230a916122f96122e9565b5061230261466c565b919091614679565b600190565b5f90565b61231f612324916111b0565b6105bd565b90565b6123319054612313565b90565b61233c61230f565b50612350600261234a614648565b01612327565b90565b9161237d926123606122e9565b5061237561236c61466c565b829084916146c9565b919091614794565b600190565b61238b906111ef565b90565b61239790612382565b90565b6123a39061120b565b90565b6040906123cf6123d694969593966123c560608401985f8501906109bc565b60208301906109bc565b0190610460565b565b6123e76123ed91939293610253565b92610253565b82018092116123f857565b61133f565b61240561230f565b50612433602061241d6124186003611518565b611525565b63bb3ba04c9061242b610241565b93849261124b565b82528180612443600482016102ee565b03915afa80156128fe5761245e915f916128d0575b5061238e565b61248b60206124756124706003611518565b611525565b631bf01e9b90612483610241565b93849261124b565b8252818061249b600482016102ee565b03915afa9081156128cb575f9161289d575b50906124b85f61105d565b61250160206124cf6124ca60016111e2565b611217565b6370a08231906124f66124e1306112c3565b926124ea610241565b9586948593849361124b565b8352600483016109c9565b03915afa90811561289857612554916020915f9161286b575b5061252d61252860016111e2565b611217565b6125496307a2d13a61253d610241565b9586948593849361124b565b83526004830161046d565b03915afa908115612866575f91612838575b506125b8602061258661258161257c60026112b6565b611308565b611314565b6370a08231906125ad612598306112c3565b926125a1610241565b9586948593849361124b565b8352600483016109c9565b03915afa908115612833575f91612805575b506125d45f6112b6565b6125e66125e087610292565b91610292565b03612769575b60206125f78561239a565b63248391ff9061262c61260a60026112b6565b926126376126175f6112b6565b96612620610241565b9788968795869561124b565b8552600485016123a6565b03915afa80156127645761265b93612656925f92612734575b506123d8565b6123d8565b9161266461291d565b9161266e5f6112b6565b61268061267a84610292565b91610292565b03612696575b50509061269391906123d8565b90565b6126a160209161239a565b9163248391ff926126ce6126b45f6112b6565b92946126d9876126c2610241565b9788968795869561124b565b8552600485016123a6565b03915afa801561272f57612693936126f8925f926126ff575b506123d8565b915f612686565b61272191925060203d8111612728575b61271981836106c7565b8101906112de565b905f6126f2565b503d61270f565b611292565b61275691925060203d811161275d575b61274e81836106c7565b8101906112de565b905f612650565b503d612744565b611292565b916127738461239a565b90602063248391ff926127855f6112b6565b906127a389956127ae88612797610241565b9889968795869561124b565b8552600485016123a6565b03915afa908115612800576127ca925f926127d0575b506123d8565b916125ec565b6127f291925060203d81116127f9575b6127ea81836106c7565b8101906112de565b905f6127c4565b503d6127e0565b611292565b612826915060203d811161282c575b61281e81836106c7565b8101906112de565b5f6125ca565b503d612814565b611292565b612859915060203d811161285f575b61285181836106c7565b8101906112de565b5f612566565b503d612847565b611292565b61288b9150823d8111612891575b61288381836106c7565b8101906112de565b5f61251a565b503d612879565b611292565b6128be915060203d81116128c4575b6128b681836106c7565b810190611540565b5f6124ad565b503d6128ac565b611292565b6128f1915060203d81116128f7575b6128e981836106c7565b810190611540565b5f612458565b503d6128df565b611292565b5f90565b61290f612903565b5061291a6012611323565b90565b61292561230f565b5061293861293360016111e2565b611217565b6129876307a2d13a91602061295561295060016111e2565b611217565b6370a082319061297c612967306112c3565b92612970610241565b9687948593849361124b565b8352600483016109c9565b03915afa908115612a87576129c4936020935f93612a54575b506129b9906129ad610241565b9586948593849361124b565b83526004830161046d565b03915afa908115612a4f575f91612a21575b50806129f36129ed6129e86005612327565b610253565b91610253565b115f14612a1257612a0e90612a086005612327565b90611462565b5b90565b50612a1c5f61105d565b612a0f565b612a42915060203d8111612a48575b612a3a81836106c7565b8101906112de565b5f6129d6565b503d612a30565b611292565b6129b9919350612a7990853d8111612a80575b612a7181836106c7565b8101906112de565b92906129a0565b503d612a67565b611292565b612a94614871565b612a9c612a9e565b565b612aa661497e565b565b612ab0612a8c565b565b90612ac491612abf614994565b612ac6565b565b90612ad991612ad481614a66565b614ad6565b565b90612ae591612ab2565b565b906020612af383614522565b92612b11612b0a82612b056004612327565b611462565b600461162e565b612b2b612b26612b2160026112b6565b611308565b611314565b612b585f612b4063a9059cbb96948890611462565b95612b63612b4c610241565b9788968795869461124b565b8452600484016114c8565b03925af18015612dd257612da6575b50612b7c81614522565b612ba96020612b93612b8e6003611518565b611525565b6304cc732590612ba1610241565b93849261124b565b82528180612bb9600482016102ee565b03915afa908115612da1575f91612d73575b5090612bfa6020612be4612bdf6003611518565b611525565b633b19e84a90612bf2610241565b93849261124b565b82528180612c0a600482016102ee565b03915afa8015612d6e576020915f91612d41575b5093612c3a612c35612c3060026112b6565b611308565b611314565b612c675f612c4f63a9059cbb97948790611462565b96612c72612c5b610241565b9889968795869461124b565b8452600484016114c8565b03925af1918215612d3c57602092612d11575b50612ca0612c9b612c9660026112b6565b611308565b611314565b612cc35f63a9059cbb959395612cce612cb7610241565b9788968795869461124b565b8452600484016114c8565b03925af18015612d0c57612ce0575b50565b612d009060203d8111612d05575b612cf881836106c7565b8101906114aa565b612cdd565b503d612cee565b611292565b612d3090833d8111612d35575b612d2881836106c7565b8101906114aa565b612c85565b503d612d1e565b611292565b612d619150823d8111612d67575b612d5981836106c7565b810190611540565b5f612c1e565b503d612d4f565b611292565b612d94915060203d8111612d9a575b612d8c81836106c7565b810190611540565b5f612bcb565b503d612d82565b611292565b612dc69060203d8111612dcb575b612dbe81836106c7565b8101906114aa565b612b72565b503d612db4565b611292565b5f90565b612dec90612de7614c14565b612e3a565b90565b90565b612e06612e01612e0b92612def565b6115d5565b61082f565b90565b612e377f360894a13ba1a3210667c828492db98dca3e2076cc3735a920a3ca505d382bbc612df2565b90565b50612e43612e0e565b90565b612e56612e51612dd7565b612ddb565b90565b60ff1690565b612e6b612e70916111b0565b612e59565b90565b612e7d9054612e5f565b90565b612e886122e9565b50612e9b5f612e95614c92565b01612e73565b90565b90612eb091612eab614390565b612eba565b612eb861443c565b565b90612ecc91612ec7614459565b612f69565b565b5f7f416d6f756e74206d7573742062652067726561746572207468616e207a65726f910152565b612f016020809261033a565b612f0a81612ece565b0190565b612f239060208101905f818303910152612ef5565b90565b15612f2d57565b612f35610241565b7f08c379a000000000000000000000000000000000000000000000000000000000815280612f6560048201612f0e565b0390fd5b612f8581612f7f612f795f61105d565b91610253565b11612f26565b612f8d614cd2565b612fa6612fa1612f9c5f6112b6565b611308565b611314565b60206323b872dd913390612fd65f612fbd306112c3565b95612fe188612fca610241565b9889978896879561124b565b8552600485016123a6565b03925af1801561365d57613631575b5061301e60206130086130036003611518565b611525565b6304cc732590613016610241565b93849261124b565b8252818061302e600482016102ee565b03915afa90811561362c575f916135fe575b5061306e60206130586130536003611518565b611525565b633b19e84a90613066610241565b93849261124b565b8252818061307e600482016102ee565b03915afa9081156135f9575f916135cb575b509161309b81614522565b916130a583614522565b60206130c06130bb6130b65f6112b6565b611308565b611314565b63a9059cbb93906130ee5f6130d6898790611462565b966130f96130e2610241565b9889968795869461124b565b8452600484016114c8565b03925af19182156135c65760209261359b575b5061312661312161311c5f6112b6565b611308565b611314565b6131495f63a9059cbb97939761315461313d610241565b998a968795869461124b565b8452600484016114c8565b03925af19283156135965761316e9361356a575b50611462565b9061318861318361317e5f6112b6565b611308565b611314565b602063095ea7b3916131a261319d60016111e2565b611217565b906131c05f87956131cb6131b4610241565b9788968795869461124b565b8452600484016114c8565b03925af1801561356557613539575b506131ed6131e860016111e2565b611217565b916020636e553f6593829061321d5f613205306112c3565b97613228613211610241565b998a968795869461124b565b84526004840161156d565b03925af19283156135345761326e93613508575b50602061325861325361324e5f6112b6565b61122f565b61123b565b63313ce56790613266610241565b95869261124b565b8252818061327e600482016102ee565b03915afa8015613503576132ce935f916134d5575b5060206132b86132b36132ae6132a960016111e2565b611217565b61122f565b61123b565b63313ce567906132c6610241565b96879261124b565b825281806132de600482016102ee565b03915afa80156134d0576133486133539361334d92613359975f916134a2575b50938061331361330d8761055c565b9161055c565b115f146134815761333161332c6133379392879061136c565b611390565b9061140e565b5b926133436012611323565b61136c565b611390565b906113ac565b90614f15565b61336b61336660016111e2565b611217565b6133ba6307a2d13a91602061338861338360016111e2565b611217565b6370a08231906133af61339a306112c3565b926133a3610241565b9687948593849361124b565b8352600483016109c9565b03915afa90811561347c576133f7936020935f93613449575b506133ec906133e0610241565b9586948593849361124b565b83526004830161046d565b03915afa801561344457613414915f91613416575b50600561162e565b565b613437915060203d811161343d575b61342f81836106c7565b8101906112de565b5f61340c565b503d613425565b611292565b6133ec91935061346e90853d8111613475575b61346681836106c7565b8101906112de565b92906133d3565b503d61345c565b611292565b61349761349261349d93928761136c565b611390565b906113ac565b613338565b6134c3915060203d81116134c9575b6134bb81836106c7565b810190611274565b5f6132fe565b503d6134b1565b611292565b6134f6915060203d81116134fc575b6134ee81836106c7565b810190611274565b5f613293565b503d6134e4565b611292565b6135289060203d811161352d575b61352081836106c7565b8101906112de565b61323c565b503d613516565b611292565b6135599060203d811161355e575b61355181836106c7565b8101906114aa565b6131da565b503d613547565b611292565b61358a9060203d811161358f575b61358281836106c7565b8101906114aa565b613168565b503d613578565b611292565b6135ba90833d81116135bf575b6135b281836106c7565b8101906114aa565b61310c565b503d6135a8565b611292565b6135ec915060203d81116135f2575b6135e481836106c7565b810190611540565b5f613090565b503d6135da565b611292565b61361f915060203d8111613625575b61361781836106c7565b810190611540565b5f613040565b503d61360d565b611292565b6136519060203d8111613656575b61364981836106c7565b8101906114aa565b612ff0565b503d61363f565b611292565b9061366c91612e9e565b565b6136779061120b565b90565b906136849061366e565b5f5260205260405f2090565b6136af6136b49161369f61230f565b505f6136a9614648565b0161367a565b612327565b90565b6136bf614871565b6136c76136f1565b565b6136dd6136d86136e292611057565b61105a565b610279565b90565b6136ee906136c9565b90565b6137026136fd5f6136e5565b614f93565b565b61370c6136b7565b565b5f90565b61371a61370e565b5061372d6137286003611518565b611525565b90565b613738614871565b613740613742565b565b61374a615069565b565b613754613730565b565b60401c90565b61376861376d91613756565b612e59565b90565b61377a905461375c565b90565b67ffffffffffffffff1690565b61379661379b916111b0565b61377d565b90565b6137a8905461378a565b90565b906137be67ffffffffffffffff916115d5565b9181191691161790565b6137dc6137d76137e192610ac2565b61105a565b610ac2565b90565b90565b906137fc6137f7613803926137c8565b6137e4565b82546137ab565b9055565b60401b90565b9061382168ff000000000000000091613807565b9181191691161790565b61383490610403565b90565b90565b9061384f61384a6138569261382b565b613837565b825461380d565b9055565b61386390610ac2565b9052565b919061387a905f6020850194019061385a565b565b92959193949094829661388d615073565b956138995f8801613770565b801561394a575b61390e576138d3976138ca966138b88b5f8b016137e7565b6138c560015f8b0161383a565b613c1d565b5f80910161383a565b6139097fc7f505b2f371ae2175ee4913f4499e1f2633a7b5936321eed1cdaeb6115181d291613900610241565b91829182613867565b0390a1565b613916610241565b7ff92ee8a900000000000000000000000000000000000000000000000000000000815280613946600482016102ee565b0390fd5b506139565f880161379e565b6139686139628b610ac2565b91610ac2565b10156138a0565b9061398e73ffffffffffffffffffffffffffffffffffffffff916115d5565b9181191691161790565b90565b906139b06139ab6139b79261366e565b613998565b825461396f565b9055565b6139c4906111ef565b90565b6139d0906139bb565b90565b6139dc906139bb565b90565b90565b906139f76139f26139fe926139d3565b6139df565b825461396f565b9055565b613a0b906111ef565b90565b613a1790613a02565b90565b613a2390613a02565b90565b90565b90613a3e613a39613a4592613a1a565b613a26565b825461396f565b9055565b5f7f496e76616c696420617373657441206164647265737300000000000000000000910152565b613a7d601660209261033a565b613a8681613a49565b0190565b613a9f9060208101905f818303910152613a70565b90565b15613aa957565b613ab1610241565b7f08c379a000000000000000000000000000000000000000000000000000000000815280613ae160048201613a8a565b0390fd5b5f7f496e76616c696420596561726e205661756c7420616464726573730000000000910152565b613b19601b60209261033a565b613b2281613ae5565b0190565b613b3b9060208101905f818303910152613b0c565b90565b15613b4557565b613b4d610241565b7f08c379a000000000000000000000000000000000000000000000000000000000815280613b7d60048201613b26565b0390fd5b5f7f496e76616c696420617373657442206164647265737300000000000000000000910152565b613bb5601660209261033a565b613bbe81613b81565b0190565b613bd79060208101905f818303910152613ba8565b90565b15613be157565b613be9610241565b7f08c379a000000000000000000000000000000000000000000000000000000000815280613c1960048201613bc2565b0390fd5b613c859650613c7993613c66613c7e979694613c48613c7295613c6b95613c43336150b5565b6150e0565b613c506150f6565b613c5861511c565b613c60615142565b5f61399b565b6139c7565b60016139e2565b600261399b565b613a0e565b6003613a29565b613cb2613c915f6112b6565b613cab613ca5613ca05f6136e5565b610292565b91610292565b1415613aa2565b613ce8613cc7613cc260016111e2565b611217565b613ce1613cdb613cd65f6136e5565b610292565b91610292565b1415613b3e565b613d16613cf560026112b6565b613d0f613d09613d045f6136e5565b610292565b91610292565b1415613bda565b565b90613d2796959493929161387c565b565b613d3161370e565b50613d445f613d3e61514c565b016112b6565b90565b613d4f612195565b50613d636004613d5d614648565b016122be565b90565b613d6e61370e565b50613d81613d7c60016111e2565b611217565b90565b613d8c614390565b613d94613d9e565b613d9c61443c565b565b613da6614459565b613dae613db0565b565b613db8615353565b565b613dc2613d84565b565b613de191613dd06122e9565b50613dd961466c565b919091614794565b600190565b90613df09061366e565b5f5260205260405f2090565b613e2a91613e20613e2592613e0f61230f565b506001613e1a614648565b01613de6565b61367a565b612327565b90565b613e41613e3c613e4692611057565b61105a565b610ac2565b90565b90565b613e60613e5b613e6592613e49565b61105a565b610ac2565b90565b613e719061120b565b90565b613e7d90613e4c565b9052565b9190613e94905f60208501940190613e74565b565b92949194939093613ea5615073565b95613eba613eb45f8901613770565b15610403565b95613ec65f890161379e565b80613ed9613ed35f613e2d565b91610ac2565b1480614013575b90613ef4613eee6001613e4c565b91610ac2565b1480613feb575b613f06909115610403565b9081613fda575b50613f9e57613f3695613f2b613f236001613e4c565b5f8b016137e7565b87613f8c575b61401a565b613f3e575b50565b613f4b905f80910161383a565b6001613f837fc7f505b2f371ae2175ee4913f4499e1f2633a7b5936321eed1cdaeb6115181d291613f7a610241565b91829182613e81565b0390a15f613f3b565b613f9960015f8b0161383a565b613f31565b613fa6610241565b7ff92ee8a900000000000000000000000000000000000000000000000000000000815280613fd6600482016102ee565b0390fd5b613fe5915015610403565b5f613f0d565b50613f06613ff830613e68565b3b61400b6140055f61105d565b91610253565b149050613efb565b5087613ee0565b614066614080969461406161407495614043614079999661406d9661403e336150b5565b6150e0565b61404b6150f6565b61405361511c565b61405b615142565b5f61399b565b6139c7565b60016139e2565b600261399b565b613a0e565b6003613a29565b6140ad61408c5f6112b6565b6140a66140a061409b5f6136e5565b610292565b91610292565b1415613aa2565b6140e36140c26140bd60016111e2565b611217565b6140dc6140d66140d15f6136e5565b610292565b91610292565b1415613b3e565b6141116140f060026112b6565b61410a6141046140ff5f6136e5565b610292565b91610292565b1415613bda565b565b906141219594939291613e96565b565b90565b61413a61413561413f92614123565b61105a565b610253565b90565b61414a61230f565b50614153612334565b61416561415f5f61105d565b91610253565b146142c857614197602061418161417c6003611518565b611525565b631bf01e9b9061418f610241565b93849261124b565b825281806141a7600482016102ee565b03915afa9081156142c3576141d16141cc6141e7936020935f91614296575b5061122f565b61123b565b63313ce567906141df610241565b93849261124b565b825281806141f7600482016102ee565b03915afa80156142915761423b61422e61422961425293614260955f91614263575b506142246012611323565b61136c565b611390565b6142366123fd565b6113ac565b61424c670de0b6b3a7640000614126565b906113ac565b61425a612334565b9061140e565b90565b614284915060203d811161428a575b61427c81836106c7565b810190611274565b5f614219565b503d614272565b611292565b6142b69150843d81116142bc575b6142ae81836106c7565b810190611540565b5f6141c6565b503d6142a4565b611292565b6142d15f61105d565b90565b6142e5906142e0614871565b6142e7565b565b806143026142fc6142f75f6136e5565b610292565b91610292565b146143125761431090614f93565b565b61435561431e5f6136e5565b614326610241565b9182917f1e4fbdf7000000000000000000000000000000000000000000000000000000008352600483016109c9565b0390fd5b614362906142d4565b565b90565b61437b61437661438092614364565b61105a565b610253565b90565b61438d6002614367565b90565b61439861580f565b6143a35f8201612327565b6143bc6143b66143b1614383565b610253565b91610253565b146143d7576143d5905f6143ce614383565b910161162e565b565b6143df610241565b7f3ee5aeb50000000000000000000000000000000000000000000000000000000081528061440f600482016102ee565b0390fd5b61442761442261442c92613e49565b61105a565b610253565b90565b6144396001614413565b90565b61445761444761580f565b5f61445061442f565b910161162e565b565b614461612e80565b61446757565b61446f610241565b7fd93c06650000000000000000000000000000000000000000000000000000000081528061449f600482016102ee565b0390fd5b90816144bf6144b96144b45f6136e5565b610292565b91610292565b146144db576144d991906144d25f6136e5565b9091615841565b565b61451e6144e75f6136e5565b6144ef610241565b9182917f96c6fd1e000000000000000000000000000000000000000000000000000000008352600483016109c9565b0390fd5b61452a61230f565b50614558602061454261453d6003611518565b611525565b6385462d6f90614550610241565b93849261124b565b82528180614568600482016102ee565b03915afa908115614643575f91614615575b50906145a9602061459361458e6003611518565b611525565b634f4608a2906145a1610241565b93849261124b565b825281806145b9600482016102ee565b03915afa928315614610576145df936145da925f916145e2575b50926113ac565b61140e565b90565b614603915060203d8111614609575b6145fb81836106c7565b8101906112de565b5f6145d3565b503d6145f1565b611292565b614636915060203d811161463c575b61462e81836106c7565b8101906112de565b5f61457a565b503d614624565b611292565b7f52c63247e1f47db19d5ce0460030c497f067ca4cebf71ba98eeadabe20bace0090565b61467461370e565b503390565b9161468792916001926159e7565b565b6040906146b26146b994969593966146a860608401985f8501906109bc565b6020830190610460565b0190610460565b565b906146c69103610253565b90565b9291926146d7818390613dfc565b908161470b6147057fffffffffffffffffffffffffffffffffffffffffffffffffffffffffffffffff610253565b91610253565b03614718575b5050509050565b8161472b61472587610253565b91610253565b106147515761474893946147409193926146bb565b905f926159e7565b805f8080614711565b5061479084929192614761610241565b9384937ffb8f41b200000000000000000000000000000000000000000000000000000000855260048501614689565b0390fd5b91826147b06147aa6147a55f6136e5565b610292565b91610292565b1461482a57816147d06147ca6147c55f6136e5565b610292565b91610292565b146147e3576147e192919091615841565b565b6148266147ef5f6136e5565b6147f7610241565b9182917fec442f05000000000000000000000000000000000000000000000000000000008352600483016109c9565b0390fd5b61486d6148365f6136e5565b61483e610241565b9182917f96c6fd1e000000000000000000000000000000000000000000000000000000008352600483016109c9565b0390fd5b614879613d29565b61489261488c61488761466c565b610292565b91610292565b0361489957565b6148db6148a461466c565b6148ac610241565b9182917f118cdaa7000000000000000000000000000000000000000000000000000000008352600483016109c9565b0390fd5b6148e7615b41565b6148ef614927565b565b906148fd60ff916115d5565b9181191691161790565b9061491c6149176149239261382b565b613837565b82546148f1565b9055565b61493b614932614c92565b5f809101614907565b61494361466c565b6149797f5db9ee0a495bf2e6ff9c91a7834c1ba4fdd244a5e8aa4e537bd38aeae4b073aa91614970610241565b918291826109c9565b0390a1565b6149866148df565b565b6149919061120b565b90565b61499d30614988565b6149cf6149c97f0000000000000000000000000000000000000000000000000000000000000000610292565b91610292565b148015614a19575b6149dd57565b6149e5610241565b7fe07c8dba00000000000000000000000000000000000000000000000000000000815280614a15600482016102ee565b0390fd5b50614a22615b94565b614a54614a4e7f0000000000000000000000000000000000000000000000000000000000000000610292565b91610292565b14156149d7565b50614a64614871565b565b614a6f90614a5b565b565b614a7a906111ef565b90565b614a8690614a71565b90565b614a929061120b565b90565b614a9e8161082f565b03614aa557565b5f80fd5b90505190614ab682614a95565b565b90602082820312614ad157614ace915f01614aa9565b90565b61024b565b9190614b046020614aee614ae986614a7d565b614a89565b6352d1902d90614afc610241565b93849261124b565b82528180614b14600482016102ee565b03915afa80915f92614be4575b50155f14614b75575050906001614b3657505b565b614b7190614b42610241565b9182917f4c9c8ce3000000000000000000000000000000000000000000000000000000008352600483016109c9565b0390fd5b9283614b90614b8a614b85612e0e565b61082f565b9161082f565b03614ba557614ba0929350615bbe565b614b34565b614be084614bb1610241565b9182917faa1d49a40000000000000000000000000000000000000000000000000000000083526004830161083f565b0390fd5b614c0691925060203d8111614c0d575b614bfe81836106c7565b810190614ab8565b905f614b21565b503d614bf4565b614c1d30614988565b614c4f614c497f0000000000000000000000000000000000000000000000000000000000000000610292565b91610292565b03614c5657565b614c5e610241565b7fe07c8dba00000000000000000000000000000000000000000000000000000000815280614c8e600482016102ee565b0390fd5b7fcd5ed15c6e187e77e9aee88184c21f4f2182ab5827cb3b7e07fbedcd63f0330090565b614cca614cc5614ccf92614364565b61105a565b61055c565b90565b614ce4614cdf60016111e2565b611217565b614d336307a2d13a916020614d01614cfc60016111e2565b611217565b6370a0823190614d28614d13306112c3565b92614d1c610241565b9687948593849361124b565b8352600483016109c9565b03915afa908115614f1057614d70936020935f93614edd575b50614d6590614d59610241565b9586948593849361124b565b83526004830161046d565b03915afa908115614ed8575f91614eaa575b5080614d9f614d99614d946005612327565b610253565b91610253565b115f14614e9b57614dba90614db46005612327565b90611462565b5b614def6020614dd9614dd4614dcf5f6112b6565b61122f565b61123b565b63313ce56790614de7610241565b93849261124b565b82528180614dff600482016102ee565b03915afa8015614e9657614e48614e4d91614e53935f91614e68575b50614e43614e3d614e38600193614e326002614cb6565b9061136c565b611390565b91614413565b6113ac565b610253565b91610253565b11614e5b575b565b614e63615353565b614e59565b614e89915060203d8111614e8f575b614e8181836106c7565b810190611274565b5f614e1b565b503d614e77565b611292565b50614ea55f61105d565b614dbb565b614ecb915060203d8111614ed1575b614ec381836106c7565b8101906112de565b5f614d82565b503d614eb9565b611292565b614d65919350614f0290853d8111614f09575b614efa81836106c7565b8101906112de565b9290614d4c565b503d614ef0565b611292565b80614f30614f2a614f255f6136e5565b610292565b91610292565b14614f4c57614f4a91614f425f6136e5565b919091615841565b565b614f8f614f585f6136e5565b614f60610241565b9182917fec442f05000000000000000000000000000000000000000000000000000000008352600483016109c9565b0390fd5b614f9b61514c565b614fb3614fa95f83016112b6565b915f84910161399b565b90614fe7614fe17f8be0079c531659141344cd1fd0a4f28419497f9722a3daafe3b4186f6b6457e09361366e565b9161366e565b91614ff0610241565b80614ffa816102ee565b0390a3565b615007614459565b61500f615011565b565b61502661501c614c92565b5f60019101614907565b61502e61466c565b6150647f62e78cea01bee320cd4e420270b5ea74000d11b0c9f74754ebdbfc544b05a2589161505b610241565b918291826109c9565b0390a1565b615071614fff565b565b7ff0c57e16840df040f15088dc2f81fe391c3923bec73e23a9662efc9c229c6a0090565b6150a8906150a3615c47565b6150aa565b565b6150b390615d1f565b565b6150be90615097565b565b906150d2916150cd615c47565b6150d4565b565b906150de91615f62565b565b906150ea916150c0565b565b6150f4615c47565b565b6150fe6150ec565b565b615108615c47565b615110615112565b565b61511a615f9d565b565b615124615100565b565b61512e615c47565b615136615138565b565b615140615fcf565b565b61514a615126565b565b7f9016d09d72d40fdae2fd8ceac6b6234c7706214fd39c1cd1e609a0528c19930090565b60207f6c61626c65000000000000000000000000000000000000000000000000000000917f42616c756e695631795661756c743a204e6f20696e74657265737420617661695f8201520152565b6151ca602560409261033a565b6151d381615170565b0190565b6151ec9060208101905f8183039101526151bd565b90565b156151f657565b6151fe610241565b7f08c379a00000000000000000000000000000000000000000000000000000000081528061522e600482016151d7565b0390fd5b5f7f42616c756e695631795661756c743a2052656465656d204661696c6564000000910152565b615266601d60209261033a565b61526f81615232565b0190565b6152889060208101905f818303910152615259565b90565b1561529257565b61529a610241565b7f08c379a0000000000000000000000000000000000000000000000000000000008152806152ca60048201615273565b0390fd5b6152d7906111ef565b90565b6152e3906152ce565b90565b6152ef9061120b565b90565b61532761532e9461531d606094989795615313608086019a5f8701906109bc565b60208501906109bc565b6040830190610460565b01906109bc565b565b91602061535192949361534a60408201965f830190610460565b0190610460565b565b61536561536060016111e2565b611217565b6153b46307a2d13a91602061538261537d60016111e2565b611217565b6370a08231906153a9615394306112c3565b9261539d610241565b9687948593849361124b565b8352600483016109c9565b03915afa90811561580a576153f1936020935f936157d7575b506153e6906153da610241565b9586948593849361124b565b83526004830161046d565b03915afa9081156157d2575f916157a4575b508061542061541a6154156005612327565b610253565b91610253565b115f146157955761543b906154356005612327565b90611462565b5b6154588161545261544c5f61105d565b91610253565b116151ef565b615499602061546f61546a60016111e2565b611217565b63c6e6f5929061548e8592615482610241565b9586948593849361124b565b83526004830161046d565b03915afa908115615790575f91615762575b5060206154c06154bb60016111e2565b611217565b63ba08765292906154f55f6154d4306112c3565b956155006154e1306112c3565b6154e9610241565b9889978896879561124b565b855260048501611430565b03925af190811561575d575f9161572f575b5061552f816155296155235f61105d565b91610253565b1161528b565b61555c60206155466155416003611518565b611525565b6382755ebb90615554610241565b93849261124b565b8252818061556c600482016102ee565b03915afa801561572a57615587915f916156fc575b506152da565b6155a061559b6155965f6112b6565b611308565b611314565b90602063095ea7b3926155b2836152e6565b906155d05f87966155db6155c4610241565b9889968795869461124b565b8452600484016114c8565b03925af19182156156f7576155f5926156cb575b506152e6565b6020632d6bc8ea916156065f6112b6565b906156385f61561560026112b6565b9561564388615623306112c3565b9061562c610241565b998a988997889661124b565b8652600486016152f2565b03925af180156156c65761569a575b503390916156807f1cbc5ab135991bd2b6a4b034a04aa2aa086dac1371cb9b16b8b5e2ed6b036bed9261366e565b9261569561568c610241565b92839283615330565b0390a2565b6156ba9060203d81116156bf575b6156b281836106c7565b8101906112de565b615652565b503d6156a8565b611292565b6156eb9060203d81116156f0575b6156e381836106c7565b8101906114aa565b6155ef565b503d6156d9565b611292565b61571d915060203d8111615723575b61571581836106c7565b810190611540565b5f615581565b503d61570b565b611292565b615750915060203d8111615756575b61574881836106c7565b8101906112de565b5f615512565b503d61573e565b611292565b615783915060203d8111615789575b61577b81836106c7565b8101906112de565b5f6154ab565b503d615771565b611292565b5061579f5f61105d565b61543c565b6157c5915060203d81116157cb575b6157bd81836106c7565b8101906112de565b5f615403565b503d6157b3565b611292565b6153e69193506157fc90853d8111615803575b6157f481836106c7565b8101906112de565b92906153cd565b503d6157ea565b611292565b7f9b779b17422d0df92223018b32b4d1fa46e071723d6817e2486d003becc55f0090565b9061583e9101610253565b90565b91909161584c614648565b8161586761586161585c5f6136e5565b610292565b91610292565b145f146159525761588e83615888600284019161588383612327565b6123d8565b9061162e565b5b836158aa6158a461589f5f6136e5565b610292565b91610292565b145f14615923576158d2906158cc6002859201916158c783612327565b6146bb565b9061162e565b5b91909161591e61590c6159067fddf252ad1be2c89b69c2b068fc378daa952ba7f163c4a11628f55a4df523b3ef9361366e565b9361366e565b93615915610241565b9182918261046d565b0390a3565b61594d906159476159385f869301879061367a565b9161594283612327565b615833565b9061162e565b6158d3565b6159676159625f8301849061367a565b612327565b8061597a61597486610253565b91610253565b106159a45761598d61599f9185906146bb565b61599a5f8401859061367a565b61162e565b61588f565b916159e3915091926159b4610241565b9384937fe450d38c00000000000000000000000000000000000000000000000000000000855260048501614689565b0390fd5b90926159f1614648565b82615a0c615a06615a015f6136e5565b610292565b91610292565b14615afa5784615a2c615a26615a215f6136e5565b610292565b91610292565b14615ab357615a5390615a4e615a4760018793018690613de6565b879061367a565b61162e565b615a5d575b505050565b919091615aa8615a96615a907f8c5be1e5ebec7d5bd14f71427d1e84f3dd0314c0f7b2291e5b200ac8c7c3b9259361366e565b9361366e565b93615a9f610241565b9182918261046d565b0390a35f8080615a58565b615af6615abf5f6136e5565b615ac7610241565b9182917f94280d62000000000000000000000000000000000000000000000000000000008352600483016109c9565b0390fd5b615b3d615b065f6136e5565b615b0e610241565b9182917fe602df05000000000000000000000000000000000000000000000000000000008352600483016109c9565b0390fd5b615b52615b4c612e80565b15610403565b615b5857565b615b60610241565b7f8dfc202b00000000000000000000000000000000000000000000000000000000815280615b90600482016102ee565b0390fd5b615b9c61370e565b50615bb75f615bb1615bac612e0e565b615fd9565b016112b6565b90565b5190565b90615bc882615fdc565b81615bf37fbc7cd75a20ee27fd9adebab32041f755214dbc6bffa90cc0225b39da2e5c2d3b9161366e565b90615bfc610241565b80615c06816102ee565b0390a2615c1281615bba565b615c24615c1e5f61105d565b91610253565b115f14615c3857615c34916160a7565b505b565b5050615c42616051565b615c36565b615c58615c526160d6565b15610403565b615c5e57565b615c66610241565b7fd7e6bcf800000000000000000000000000000000000000000000000000000000815280615c96600482016102ee565b0390fd5b615cab90615ca6615c47565b615cad565b565b80615cc8615cc2615cbd5f6136e5565b610292565b91610292565b14615cd857615cd690614f93565b565b615d1b615ce45f6136e5565b615cec610241565b9182917f1e4fbdf7000000000000000000000000000000000000000000000000000000008352600483016109c9565b0390fd5b615d2890615c9a565b565b90615d3c91615d37615c47565b615f3e565b565b601f602091010490565b1b90565b91906008615d86910291615d807fffffffffffffffffffffffffffffffffffffffffffffffffffffffffffffffff84615d48565b92615d48565b9181191691161790565b9190615da6615da1615dae9361160f565b61162b565b908354615d4c565b9055565b615dc491615dbe61230f565b91615d90565b565b5b818110615dd2575050565b80615ddf5f600193615db2565b01615dc7565b9190601f8111615df5575b505050565b615e01615e26936121fa565b906020615e0d84615d3e565b83019310615e2e575b615e1f90615d3e565b0190615dc6565b5f8080615df0565b9150615e1f81929050615e16565b90615e4c905f19906008026105b9565b191690565b81615e5b91615e3c565b906002021790565b90615e6d81610336565b9067ffffffffffffffff8211615f2d57615e9182615e8b85546121c7565b85615de5565b602090601f8311600114615ec557918091615eb4935f92615eb9575b5050615e51565b90555b565b90915001515f80615ead565b601f19831691615ed4856121fa565b925f5b818110615f1557509160029391856001969410615efb575b50505002019055615eb7565b615f0b910151601f841690615e3c565b90555f8080615eef565b91936020600181928787015181550195019201615ed7565b61069a565b90615f3c91615e63565b565b6004615f6092615f59615f4f614648565b9360038501615f32565b9101615f32565b565b90615f6c91615d2a565b565b615f76615c47565b615f7e615f80565b565b615f9b615f8b61580f565b5f615f9461442f565b910161162e565b565b615fa5615f6e565b565b615faf615c47565b615fb7615fb9565b565b615fcd615fc4614c92565b5f809101614907565b565b615fd7615fa7565b565b90565b803b615ff0615fea5f61105d565b91610253565b1461601257616010905f61600a616005612e0e565b615fd9565b0161399b565b565b61604d9061601e610241565b9182917f4c9c8ce3000000000000000000000000000000000000000000000000000000008352600483016109c9565b0390fd5b3461606461605e5f61105d565b91610253565b1161606b57565b616073610241565b7fb398979f000000000000000000000000000000000000000000000000000000008152806160a3600482016102ee565b0390fd5b5f806160d3936160b56115a7565b508390602081019051915af4906160ca6115ac565b909190916160f4565b90565b6160de6122e9565b506160f15f6160eb615073565b01613770565b90565b90616108906161016115a7565b5015610403565b5f146161145750616198565b61611d82615bba565b61612f6161295f61105d565b91610253565b148061617d575b61613e575090565b6161799061614a610241565b9182917f9996b315000000000000000000000000000000000000000000000000000000008352600483016109c9565b0390fd5b50803b61619261618c5f61105d565b91610253565b14616136565b6161a181615bba565b6161b36161ad5f61105d565b91610253565b115f146161c257805190602001fd5b6161ca610241565b7f1425ea42000000000000000000000000000000000000000000000000000000008152806161fa600482016102ee565b0390fdfea2646970667358221220f22d087ddbcacfd366e3ec413dc129231d4551036ad8cc2cbaf8766f4998138864736f6c63430008190033",
  "linkReferences": {},
  "deployedLinkReferences": {}
}