{
  "_format": "hh-sol-artifact-1",
  "contractName": "BaluniV1Rebalancer",
  "sourceName": "contracts/BaluniV1Rebalancer.sol",
  "abi": [
    {
      "inputs": [
        {
          "internalType": "address",
          "name": "target",
          "type": "address"
        }
      ],
      "name": "AddressEmptyCode",
      "type": "error"
    },
    {
      "inputs": [
        {
          "internalType": "address",
          "name": "implementation",
          "type": "address"
        }
      ],
      "name": "ERC1967InvalidImplementation",
      "type": "error"
    },
    {
      "inputs": [],
      "name": "ERC1967NonPayable",
      "type": "error"
    },
    {
      "inputs": [],
      "name": "FailedInnerCall",
      "type": "error"
    },
    {
      "inputs": [],
      "name": "InvalidInitialization",
      "type": "error"
    },
    {
      "inputs": [],
      "name": "NotInitializing",
      "type": "error"
    },
    {
      "inputs": [
        {
          "internalType": "address",
          "name": "owner",
          "type": "address"
        }
      ],
      "name": "OwnableInvalidOwner",
      "type": "error"
    },
    {
      "inputs": [
        {
          "internalType": "address",
          "name": "account",
          "type": "address"
        }
      ],
      "name": "OwnableUnauthorizedAccount",
      "type": "error"
    },
    {
      "inputs": [],
      "name": "UUPSUnauthorizedCallContext",
      "type": "error"
    },
    {
      "inputs": [
        {
          "internalType": "bytes32",
          "name": "slot",
          "type": "bytes32"
        }
      ],
      "name": "UUPSUnsupportedProxiableUUID",
      "type": "error"
    },
    {
      "anonymous": false,
      "inputs": [
        {
          "indexed": false,
          "internalType": "uint64",
          "name": "version",
          "type": "uint64"
        }
      ],
      "name": "Initialized",
      "type": "event"
    },
    {
      "anonymous": false,
      "inputs": [
        {
          "indexed": true,
          "internalType": "address",
          "name": "previousOwner",
          "type": "address"
        },
        {
          "indexed": true,
          "internalType": "address",
          "name": "newOwner",
          "type": "address"
        }
      ],
      "name": "OwnershipTransferred",
      "type": "event"
    },
    {
      "anonymous": false,
      "inputs": [
        {
          "indexed": true,
          "internalType": "address",
          "name": "implementation",
          "type": "address"
        }
      ],
      "name": "Upgraded",
      "type": "event"
    },
    {
      "inputs": [],
      "name": "UPGRADE_INTERFACE_VERSION",
      "outputs": [
        {
          "internalType": "string",
          "name": "",
          "type": "string"
        }
      ],
      "stateMutability": "view",
      "type": "function"
    },
    {
      "inputs": [],
      "name": "USDC",
      "outputs": [
        {
          "internalType": "address",
          "name": "",
          "type": "address"
        }
      ],
      "stateMutability": "view",
      "type": "function"
    },
    {
      "inputs": [],
      "name": "WNATIVE",
      "outputs": [
        {
          "internalType": "address",
          "name": "",
          "type": "address"
        }
      ],
      "stateMutability": "view",
      "type": "function"
    },
    {
      "inputs": [],
      "name": "_1InchSpotAgg",
      "outputs": [
        {
          "internalType": "address",
          "name": "",
          "type": "address"
        }
      ],
      "stateMutability": "view",
      "type": "function"
    },
    {
      "inputs": [],
      "name": "baluniRouter",
      "outputs": [
        {
          "internalType": "address",
          "name": "",
          "type": "address"
        }
      ],
      "stateMutability": "view",
      "type": "function"
    },
    {
      "inputs": [
        {
          "internalType": "address",
          "name": "_newRouter",
          "type": "address"
        }
      ],
      "name": "changeBaluniRouter",
      "outputs": [],
      "stateMutability": "nonpayable",
      "type": "function"
    },
    {
      "inputs": [
        {
          "internalType": "uint256[]",
          "name": "balances",
          "type": "uint256[]"
        },
        {
          "internalType": "address[]",
          "name": "assets",
          "type": "address[]"
        },
        {
          "internalType": "uint256[]",
          "name": "weights",
          "type": "uint256[]"
        },
        {
          "internalType": "uint256",
          "name": "limit",
          "type": "uint256"
        },
        {
          "internalType": "address",
          "name": "sender",
          "type": "address"
        },
        {
          "internalType": "address",
          "name": "baseAsset",
          "type": "address"
        }
      ],
      "name": "checkRebalance",
      "outputs": [
        {
          "components": [
            {
              "internalType": "uint256",
              "name": "length",
              "type": "uint256"
            },
            {
              "internalType": "uint256",
              "name": "totalValue",
              "type": "uint256"
            },
            {
              "internalType": "uint256",
              "name": "finalUsdBalance",
              "type": "uint256"
            },
            {
              "internalType": "uint256",
              "name": "overweightVaultsLength",
              "type": "uint256"
            },
            {
              "internalType": "uint256",
              "name": "underweightVaultsLength",
              "type": "uint256"
            },
            {
              "internalType": "uint256",
              "name": "totalActiveWeight",
              "type": "uint256"
            },
            {
              "internalType": "uint256",
              "name": "amountOut",
              "type": "uint256"
            },
            {
              "internalType": "uint256[]",
              "name": "overweightVaults",
              "type": "uint256[]"
            },
            {
              "internalType": "uint256[]",
              "name": "overweightAmounts",
              "type": "uint256[]"
            },
            {
              "internalType": "uint256[]",
              "name": "underweightVaults",
              "type": "uint256[]"
            },
            {
              "internalType": "uint256[]",
              "name": "underweightAmounts",
              "type": "uint256[]"
            },
            {
              "internalType": "uint256[]",
              "name": "balances",
              "type": "uint256[]"
            }
          ],
          "internalType": "struct IBaluniV1Rebalancer.RebalanceVars",
          "name": "",
          "type": "tuple"
        }
      ],
      "stateMutability": "view",
      "type": "function"
    },
    {
      "inputs": [
        {
          "internalType": "address",
          "name": "fromToken",
          "type": "address"
        },
        {
          "internalType": "address",
          "name": "toToken",
          "type": "address"
        },
        {
          "internalType": "uint256",
          "name": "amount",
          "type": "uint256"
        }
      ],
      "name": "convert",
      "outputs": [
        {
          "internalType": "uint256",
          "name": "",
          "type": "uint256"
        }
      ],
      "stateMutability": "view",
      "type": "function"
    },
    {
      "inputs": [
        {
          "internalType": "address",
          "name": "_baluniRouter",
          "type": "address"
        },
        {
          "internalType": "address",
          "name": "_usdc",
          "type": "address"
        },
        {
          "internalType": "address",
          "name": "_wnative",
          "type": "address"
        },
        {
          "internalType": "address",
          "name": "_uniRouter",
          "type": "address"
        },
        {
          "internalType": "address",
          "name": "_uniFactory",
          "type": "address"
        },
        {
          "internalType": "address",
          "name": "_1InchSpotAggAddress",
          "type": "address"
        }
      ],
      "name": "initialize",
      "outputs": [],
      "stateMutability": "nonpayable",
      "type": "function"
    },
    {
      "inputs": [
        {
          "internalType": "address",
          "name": "token0",
          "type": "address"
        },
        {
          "internalType": "address",
          "name": "token1",
          "type": "address"
        },
        {
          "internalType": "address",
          "name": "token2",
          "type": "address"
        },
        {
          "internalType": "uint256",
          "name": "amount",
          "type": "uint256"
        },
        {
          "internalType": "address",
          "name": "receiver",
          "type": "address"
        }
      ],
      "name": "multiHopSwap",
      "outputs": [
        {
          "internalType": "uint256",
          "name": "amountOut",
          "type": "uint256"
        }
      ],
      "stateMutability": "nonpayable",
      "type": "function"
    },
    {
      "inputs": [],
      "name": "owner",
      "outputs": [
        {
          "internalType": "address",
          "name": "",
          "type": "address"
        }
      ],
      "stateMutability": "view",
      "type": "function"
    },
    {
      "inputs": [],
      "name": "proxiableUUID",
      "outputs": [
        {
          "internalType": "bytes32",
          "name": "",
          "type": "bytes32"
        }
      ],
      "stateMutability": "view",
      "type": "function"
    },
    {
      "inputs": [
        {
          "internalType": "uint256[]",
          "name": "balances",
          "type": "uint256[]"
        },
        {
          "internalType": "address[]",
          "name": "assets",
          "type": "address[]"
        },
        {
          "internalType": "uint256[]",
          "name": "weights",
          "type": "uint256[]"
        },
        {
          "internalType": "uint256",
          "name": "limit",
          "type": "uint256"
        },
        {
          "internalType": "address",
          "name": "sender",
          "type": "address"
        },
        {
          "internalType": "address",
          "name": "receiver",
          "type": "address"
        },
        {
          "internalType": "address",
          "name": "baseAsset",
          "type": "address"
        }
      ],
      "name": "rebalance",
      "outputs": [],
      "stateMutability": "nonpayable",
      "type": "function"
    },
    {
      "inputs": [
        {
          "internalType": "address",
          "name": "_baluniRouter",
          "type": "address"
        },
        {
          "internalType": "address",
          "name": "_usdc",
          "type": "address"
        },
        {
          "internalType": "address",
          "name": "_wnative",
          "type": "address"
        },
        {
          "internalType": "address",
          "name": "_uniRouter",
          "type": "address"
        },
        {
          "internalType": "address",
          "name": "_uniFactory",
          "type": "address"
        },
        {
          "internalType": "address",
          "name": "_1InchSpotAggAddress",
          "type": "address"
        },
        {
          "internalType": "uint64",
          "name": "version",
          "type": "uint64"
        }
      ],
      "name": "reinitialize",
      "outputs": [],
      "stateMutability": "nonpayable",
      "type": "function"
    },
    {
      "inputs": [],
      "name": "renounceOwnership",
      "outputs": [],
      "stateMutability": "nonpayable",
      "type": "function"
    },
    {
      "inputs": [
        {
          "internalType": "address",
          "name": "token0",
          "type": "address"
        },
        {
          "internalType": "address",
          "name": "token1",
          "type": "address"
        },
        {
          "internalType": "uint256",
          "name": "amount",
          "type": "uint256"
        },
        {
          "internalType": "address",
          "name": "receiver",
          "type": "address"
        }
      ],
      "name": "singleSwap",
      "outputs": [
        {
          "internalType": "uint256",
          "name": "amountOut",
          "type": "uint256"
        }
      ],
      "stateMutability": "nonpayable",
      "type": "function"
    },
    {
      "inputs": [
        {
          "internalType": "address",
          "name": "newOwner",
          "type": "address"
        }
      ],
      "name": "transferOwnership",
      "outputs": [],
      "stateMutability": "nonpayable",
      "type": "function"
    },
    {
      "inputs": [],
      "name": "treasury",
      "outputs": [
        {
          "internalType": "address",
          "name": "",
          "type": "address"
        }
      ],
      "stateMutability": "view",
      "type": "function"
    },
    {
      "inputs": [],
      "name": "uniswapFactory",
      "outputs": [
        {
          "internalType": "address",
          "name": "",
          "type": "address"
        }
      ],
      "stateMutability": "view",
      "type": "function"
    },
    {
      "inputs": [],
      "name": "uniswapRouter",
      "outputs": [
        {
          "internalType": "address",
          "name": "",
          "type": "address"
        }
      ],
      "stateMutability": "view",
      "type": "function"
    },
    {
      "inputs": [
        {
          "internalType": "address",
          "name": "newImplementation",
          "type": "address"
        },
        {
          "internalType": "bytes",
          "name": "data",
          "type": "bytes"
        }
      ],
      "name": "upgradeToAndCall",
      "outputs": [],
      "stateMutability": "payable",
      "type": "function"
    }
  ],
  "bytecode": "0x60a0806040523460295730608052612970908161002e82396080518181816111bd01526112a10152f35b5f80fdfe60806040526004361015610011575f80fd5b60e05f35811c90816312bf2a1c146115f2578163248391ff146115c35781632d6bc8ea1461149957816339b65140146114715781634f1ef2861461122757816352d1902d146111ab5781635efaaebb1461107057816361d027b314611048578163715018a614610fe1578163735de9f714610fb957816389a3027114610f915781638bdb2afa14610f695781638da5cb5b14610f35578163997146f514610ddb578163ad3cb1cc14610d6c578163b0d60ba014610bc4578163b381cf4014610b9c578163cc2a9a5b14610978578163eb06b29d14610950578163f0bf771414610132575063f2fde38b14610103575f80fd5b3461012e57602036600319011261012e5761012c61011f611635565b610127611c6d565b611bfc565b005b5f80fd5b3461012e578060031936011261012e576001600160401b0360043581811161012e57610162903690600401611728565b9160243582811161012e5761017b903690600401611788565b9260443590811161012e57610194903690600401611788565b61019f94919461168d565b956101a86116a3565b9560c435916001600160a01b038316830361012e576101ce93899286886064359461206a565b925f5b81850151518110156103f5576101ec81610100870151611b96565b516101fc575b6001905b016101d1565b61021c61021761020f8385890151611b96565b518587611bbe565b611bce565b9061022c81610160880151611b96565b5161023c82610100890151611b96565b51116103b25761025181610100880151611b96565b516040516323b872dd60e01b81526001600160a01b038a16600482015230602482015260448101919091529160208084806064810103815f6001600160a01b0387165af19384156103a757600194610379575b505060045460a084901b849003828116911614610373576102df838060a01b03600654166102d7846101008b0151611b96565b519083611ca5565b60055460a084901b8490039081169082168103610337575061031e90838060a01b0360045416903091610317856101008c0151611b96565b5191611dee565b61032d60c08801918251611be2565b90525b90506101f2565b61035d91848060a01b03600454163092610356866101008d0151611b96565b5192611ef8565b61036c60c08801918251611be2565b9052610330565b506101f6565b8161039892903d106103a0575b61039081836116d5565b810190611b06565b5089806102a4565b503d610386565b6040513d5f823e3d90fd5b606460405162461bcd60e51b8152602080600483015260248201527f42616c616e636520756e646572206f76657277656967687420616d6f756e74736044820152fd5b602483868887602060018060a01b0360045416604051968780926370a0823160e01b82523060048301525afa9485156103a7575f9561091c575b5060c083015185106108d7575f5b6101208401515181101561012c5761045a81610140860151611b96565b5161046a575b6001905b0161043d565b61048761021761047f83610120880151611b96565b518785611bbe565b9061049781610140870151611b96565b51612710810290808204612710149015171561085457876104c06104c59260a08901519061184c565b611839565b8064e8d4a5100081020464e8d4a5100014811517156108545764e8d4a5100061271091020460018060a01b03600454168060018060a01b03851614610868575080151580610831575b61051b575b509050610460565b6004546006546105409164e8d4a510008404916001600160a01b039081169116611ca5565b64e8d4a51000810488106107f357600580549091906001600160a01b0390811690851681036107ca5750600454915461059092309264e8d4a510009004916001600160a01b039081169116611dee565b915b8260c08701526105ab6105a4846127bb565b8094611bef565b6105be6105b7826127bb565b8092611bef565b6040516370a0823160e01b81523060048201529091906020816024816001600160a01b0388165afa80156103a75786915f91610795575b50106107505760405163a9059cbb60e01b81526001600160a01b03881660048201526024810195909552602085806044810103815f6001600160a01b0388165af19081156103a75761067e95602092610733575b5060035460405163a9059cbb60e01b81526001600160a01b039091166004820152602481019190915294859081906044820190565b03815f6001600160a01b0387165af19182156103a7576106db94602093610716575b5060095460405163a9059cbb60e01b81526001600160a01b0390911660048201526024810192909252909384919082905f9082906044820190565b03926001600160a01b03165af19182156103a757600192156105135761070f9060203d6020116103a05761039081836116d5565b5087610513565b61072c90843d86116103a05761039081836116d5565b508a6106a0565b61074990833d85116103a05761039081836116d5565b508b610649565b60405162461bcd60e51b815260206004820152601e60248201527f42616c616e636520756e64657220616d6f756e74546f5472616e7366657200006044820152606490fd5b9150506020813d6020116107c2575b816107b1602093836116d5565b8101031261012e578590518c6105f5565b3d91506107a4565b6004546107ed9350309264e8d4a5100090049186916001600160a01b0316611ef8565b91610592565b60405162461bcd60e51b815260206004820152601660248201527542616c616e636520756e64657220526562757951747960501b6044820152606490fd5b5064e8d4a51000880288810464e8d4a5100014891517156108545781111561050e565b634e487b7160e01b5f52601160045260245ffd5b60405163a9059cbb60e01b81526001600160a01b038716600482015264e8d4a510009092046024830152909250602090839060449082905f905af19182156103a7576001926108b8575b50610464565b6108d09060203d6020116103a05761039081836116d5565b50876108b2565b60405162461bcd60e51b815260206004820152601960248201527f496e73756666696369656e7420555344432042616c616e6365000000000000006044820152606490fd5b9094506020813d602011610948575b81610938602093836116d5565b8101031261012e5751938561042f565b3d915061092b565b3461012e575f36600319011261012e576008546040516001600160a01b039091168152602090f35b3461012e5760c036600319011261012e57610991611635565b61099961164b565b6109a1611677565b916109aa611661565b6109b261168d565b916109bb6116a3565b947ff0c57e16840df040f15088dc2f81fe391c3923bec73e23a9662efc9c229c6a009586549160ff8360401c1615966001600160401b03841680159081610b94575b6001149081610b8a575b159081610b81575b50610b6f5767ffffffffffffffff198416600117895560049460209489610b50575b50610a3a612876565b610a42612876565b610a4a612876565b610a5333611bfc565b60018060a01b03809881809981809781976001600160601b0360a01b9e8f9116908d5416178c55168c6005541617600555168a60065416176006551688600754161760075516918287600354161760035516856008541617600855604051928380926361d027b360e01b82525afa9081156103a7575f91610b21575b501690600954161760095564e8d4a51000600255610ae957005b60ff60401b1981541690557fc7f505b2f371ae2175ee4913f4499e1f2633a7b5936321eed1cdaeb6115181d2602060405160018152a1005b610b43915060203d602011610b49575b610b3b81836116d5565b810190611b77565b85610acf565b503d610b31565b68ffffffffffffffffff191668010000000000000001178a558a610a31565b60405163f92ee8a960e01b8152600490fd5b9050158a610a0f565b303b159150610a07565b8991506109fd565b3461012e575f36600319011261012e576005546040516001600160a01b039091168152602090f35b3461012e5736600319011261012e57610bdb611635565b610be361164b565b610beb611677565b90610bf4611661565b610bfc61168d565b93610c056116a3565b9260c435936001600160401b039081861680960361012e577ff0c57e16840df040f15088dc2f81fe391c3923bec73e23a9662efc9c229c6a00948554928760ff8560401c16918215610d5f575b5050610b6f57600497680100000000000000008860209568ffffffffffffffffff191617179586885560018060a01b03809b818095818096816001600160601b0360a01b9c1660048d90541617600455168a6005541617600555168860065416176006551686600754161760075516918285600354161760035516836008541617600855604051968780926361d027b360e01b82525afa9586156103a7577fc7f505b2f371ae2175ee4913f4499e1f2633a7b5936321eed1cdaeb6115181d2966020965f91610d42575b501690600954161760095564e8d4a5100060025560ff60401b19169055604051908152a1005b610d599150873d8911610b4957610b3b81836116d5565b88610d1c565b851610159050878b610c52565b3461012e575f36600319011261012e5760405160408101908082106001600160401b03831117610dc757610dc39160405260058152640352e302e360dc1b60208201526040519182916020835260208301906117eb565b0390f35b634e487b7160e01b5f52604160045260245ffd5b3461012e5760c036600319011261012e576001600160401b0360043581811161012e57610e0c903690600401611728565b60243582811161012e57610e24903690600401611788565b909160443593841161012e57610e41610e66943690600401611788565b90610e4a61168d565b93610e536116a3565b95610e5c611b1e565b506064359461206a565b90610dc36040519283926020845281516020850152602082015160408501526040820151606085015260608201516080850152608082015160a085015260a082015160c085015260c082015181850152810151610180610ed36101009282848801526101a08701906117b8565b91830151610f24610f0d610ef6601f199561012094878b830301868c01526117b8565b928601519261014093868a830301858b01526117b8565b9185015191610160928589830301848a01526117b8565b9301519185840301908501526117b8565b3461012e575f36600319011261012e575f8051602061291b833981519152546040516001600160a01b039091168152602090f35b3461012e575f36600319011261012e576007546040516001600160a01b039091168152602090f35b3461012e575f36600319011261012e576004546040516001600160a01b039091168152602090f35b3461012e575f36600319011261012e576006546040516001600160a01b039091168152602090f35b3461012e575f36600319011261012e57610ff9611c6d565b5f8051602061291b83398151915280546001600160a01b031981169091555f906001600160a01b03167f8be0079c531659141344cd1fd0a4f28419497f9722a3daafe3b4186f6b6457e08280a3005b3461012e575f36600319011261012e576009546040516001600160a01b039091168152602090f35b3461012e5760a036600319011261012e57611089611635565b61109161164b565b611099611677565b6064356110a461168d565b916110b130331415611a4e565b6110bc821515611a89565b6040516370a0823160e01b81523360048201526020956001600160a01b039591818716908881602481855afa80156103a75786905f9061117a575b61110392501015611ac3565b6040516323b872dd60e01b815233600482015230602482015260448101869052908890829060649082905f905af180156103a7576111559761115092879261115d575b505f541683611ca5565b611ef8565b604051908152f35b611173908b3d8d116103a05761039081836116d5565b508a611146565b50508881813d83116111a4575b61119181836116d5565b8101031261012e578561110391516110f7565b503d611187565b3461012e575f36600319011261012e577f00000000000000000000000000000000000000000000000000000000000000006001600160a01b031630036112155760206040517f360894a13ba1a3210667c828492db98dca3e2076cc3735a920a3ca505d382bbc8152f35b60405163703e46dd60e11b8152600490fd5b604036600319011261012e5761123b611635565b60249081356001600160401b03811161012e573660238201121561012e578060040135611267816116f6565b9261127560405194856116d5565b818452602091828501933687838301011161012e57815f92888693018737860101526001600160a01b037f00000000000000000000000000000000000000000000000000000000000000008116308114908115611443575b50611215576112da611c6d565b8116936040516352d1902d60e01b81528381600481895afa5f9181611414575b5061131757604051634c9c8ce360e01b8152600481018790528790fd5b8590877f360894a13ba1a3210667c828492db98dca3e2076cc3735a920a3ca505d382bbc918281036113ff5750843b156113e9575080546001600160a01b03191682179055604051907fbc7cd75a20ee27fd9adebab32041f755214dbc6bffa90cc0225b39da2e5c2d3b5f80a28151156113ce57505f61012c9481925190845af4903d156113c5573d6113a9816116f6565b906113b760405192836116d5565b81525f81943d92013e6128b7565b606092506128b7565b9350505050346113da57005b63b398979f60e01b8152600490fd5b604051634c9c8ce360e01b815260048101849052fd5b60405190632a87526960e21b82526004820152fd5b9091508481813d831161143c575b61142c81836116d5565b8101031261012e575190886112fa565b503d611422565b9050817f360894a13ba1a3210667c828492db98dca3e2076cc3735a920a3ca505d382bbc54161415876112cd565b3461012e575f36600319011261012e576003546040516001600160a01b039091168152602090f35b3461012e57608036600319011261012e576114b2611635565b6114ba61164b565b6044356114c5611661565b906114d230331415611a4e565b6114dd811515611a89565b6040516370a0823160e01b81523360048201526020946001600160a01b039491818616908781602481855afa80156103a75785905f90611592575b61152492501015611ac3565b6040516323b872dd60e01b815233600482015230602482015260448101859052908790829060649082905f905af180156103a7576111559661157092869261157557505f541683611ca5565b611dee565b61158b908a3d8c116103a05761039081836116d5565b5089611146565b50508781813d83116115bc575b6115a981836116d5565b8101031261012e57846115249151611518565b503d61159f565b3461012e57606036600319011261012e5760206111556115e1611635565b6115e961164b565b6044359161187e565b3461012e57602036600319011261012e5761160b611635565b611613611c6d565b600380546001600160a01b0319166001600160a01b0392909216919091179055005b600435906001600160a01b038216820361012e57565b602435906001600160a01b038216820361012e57565b606435906001600160a01b038216820361012e57565b604435906001600160a01b038216820361012e57565b608435906001600160a01b038216820361012e57565b60a435906001600160a01b038216820361012e57565b61018081019081106001600160401b03821117610dc757604052565b90601f801991011681019081106001600160401b03821117610dc757604052565b6001600160401b038111610dc757601f01601f191660200190565b6001600160401b038111610dc75760051b60200190565b9080601f8301121561012e57602090823561174281611711565b9361175060405195866116d5565b81855260208086019260051b82010192831161012e57602001905b828210611779575050505090565b8135815290830190830161176b565b9181601f8401121561012e578235916001600160401b03831161012e576020808501948460051b01011161012e57565b9081518082526020808093019301915f5b8281106117d7575050505090565b8351855293810193928101926001016117c9565b805180835260209291819084018484015e5f828201840152601f01601f1916010190565b9081602091031261012e575160ff8116810361012e5790565b60ff16604d811161085457600a0a90565b8181029291811591840414171561085457565b8115611856570490565b634e487b7160e01b5f52601260045260245ffd5b9060ff8091169116039060ff821161085457565b6040805163313ce56760e01b808252949390926020926001600160a01b039290918316908486600481855afa958615611a23575f96611a2d575b5083169382519788528088600481885afa978815611a23575f986119f4575b50806118e287611828565b9560646118ee8b611828565b9660085416948651958693849263802431fb60e01b8452600484015260248301525f60448301525afa9283156119eb57505f926119bb575b505061193a9261193591611839565b61184c565b92670de0b6b3a764000093846119508286611839565b049360ff83169160ff8516918383146119a7575094955011925061198391831561199e579061197e9161186a565b611828565b9015611995576119929161184c565b90565b61199291611839565b61197e9161186a565b9350935050506119b79250611839565b0490565b90809250813d83116119e4575b6119d281836116d5565b8101031261012e575182611935611926565b503d6119c8565b513d5f823e3d90fd5b81611a159299503d8a11611a1c575b611a0d81836116d5565b81019061180f565b965f6118d7565b503d611a03565b83513d5f823e3d90fd5b84919650611a4790863d8811611a1c57611a0d81836116d5565b95906118b8565b15611a5557565b60405162461bcd60e51b815260206004820152600c60248201526b2bb937b7339039b2b73232b960a11b6044820152606490fd5b15611a9057565b60405162461bcd60e51b815260206004820152600b60248201526a0416d6f756e7420697320360ac1b6044820152606490fd5b15611aca57565b60405162461bcd60e51b8152602060048201526014602482015273496e73756666696369656e742042616c616e636560601b6044820152606490fd5b9081602091031261012e5751801515810361012e5790565b60405190611b2b826116b9565b815f81525f60208201525f60408201526101606060915f838201525f60808201525f60a08201525f60c08201528260e08201528261010082015282610120820152826101408201520152565b9081602091031261012e57516001600160a01b038116810361012e5790565b8051821015611baa5760209160051b010190565b634e487b7160e01b5f52603260045260245ffd5b9190811015611baa5760051b0190565b356001600160a01b038116810361012e5790565b9190820180921161085457565b9190820391821161085457565b6001600160a01b03908116908115611c55575f8051602061291b83398151915280546001600160a01b031981168417909155167f8be0079c531659141344cd1fd0a4f28419497f9722a3daafe3b4186f6b6457e05f80a3565b604051631e4fbdf760e01b81525f6004820152602490fd5b5f8051602061291b833981519152546001600160a01b03163303611c8d57565b60405163118cdaa760e01b8152336004820152602490fd5b9160018060a01b03809316604092835194636eb1769f60e11b865230600487015281168060248701526020958681604481875afa908115611db3579085915f91611dbd575b5010611cf9575b505050505050565b845163095ea7b360e01b9182825260048201525f602482015286816044815f885af18015611db357879492611d5e979694925f92611d96575b5086519081526001600160a01b0390921660048301526024820193909352948592839182906044820190565b03925af19081156119eb5750611d78575b80808080611cf1565b81611d8e92903d106103a05761039081836116d5565b505f80611d6f565b611dac90873d89116103a05761039081836116d5565b505f611d32565b86513d5f823e3d90fd5b809250888092503d8311611de7575b611dd681836116d5565b8101031261012e578490515f611cea565b503d611dcc565b9092916040519161010083018381106001600160401b03821117610dc757604052600160a01b60019003938480921684528160208501961686526040840192610bb88452826060860192168252608085019042825260a0860190815260c08601915f83528460e08801945f8652815f541697826040519c8d9c8d9c8d63414bf38960e01b9052511660048d0152511660248b01525162ffffff1660448a0152511660648801525160848701525160a48601525160c4850152511660e48301525a925f61010492602095f19081156103a7575f91611ec9575090565b90506020813d602011611ef0575b81611ee4602093836116d5565b8101031261012e575190565b3d9150611ed7565b939093929192604051936020956001600160601b0319809360601b16878701528261017760eb1b9182603489015260601b166037870152604b86015260601b16604e8401526042835260808301916001600160401b039284811084821117610dc757610120850193841181851017610dc7575f611fce91879560405286815260a0870160018060a01b03809616815261010060c0890198428a5260e08101968752018381528684541695604051998a988997889663c04b8d5960e01b88528c60048901525160a0602489015260c48801906117eb565b94511660448601525160648501525160848401525160a483015203925af19182156103a7575f92611ffe57505090565b90809250813d8311612015575b611ee481836116d5565b503d61200b565b9061202682611711565b61203360405191826116d5565b8281528092612044601f1991611711565b0190602036910137565b604d811161085457600a0a90565b5f1981146108545760010190565b9197929495979690939661207c611b1e565b5082511561271c575b61208e81611711565b9561209c60405197886116d5565b818752602087018260051b870136811161012e57879a9997915b8183106126f45750506004545f996001600160a01b03909116979150895b89518b1015612262578c9060206001600160a01b036120f38e8e611b96565b516040516370a0823160e01b81526001600160a01b03909516600486015284916024918391165afa9182156103a7578b8d8c925f95612226575b506001600160a01b03916121419190611b96565b5116036121745764e8d4a51000918281029281840414901517156108545760019161216b91611be2565b9a5b01996120d4565b9060206121ce918d8d61219960018060a01b03600354169260018060a01b0392611b96565b516040516315eecaad60e11b81526004810194909452166001600160a01b031660248301529092839190829081906044820190565b03915afa9081156103a7575f916121f3575b506121ed90600192611be2565b9a61216d565b90506020813d60201161221e575b8161220e602093836116d5565b8101031261012e575160016121e0565b3d9150612201565b94505050506020823d60201161225a575b81612244602093836116d5565b8101031261012e57905190898b8d61214161212d565b3d9150612237565b975093985093989196509398508560011b9786890460021487151715610854578861228e60c09a61201c565b906122988161201c565b6122aa6122a48361201c565b9261201c565b926122b48b61201c565b505f6040519d8e6122c4816116b9565b8d81528c60208201528260408201528260608201528260808201528260a0820152015260e08d01526101008c01526101208b01526101408a01526101608901525f9660018060a01b0360035416975b87811061238c5750505050505050505061233660e082015160608301519061283b565b60e082015261234f61010082015160608301519061283b565b61010082015261236961012082015160808301519061283b565b61012082015261238361014082015160808301519061283b565b61014082015290565b60049060206001600160a01b036123a7610217848d89611bbe565b166040519384809263313ce56760e01b82525afa9182156103a7575f926126d3575b5061241e60208a8c6123eb610217866123e460ff8a1661204e565b948b611bbe565b6040516315eecaad60e11b815260048101939093526001600160a01b031660248301529092839190829081906044820190565b03915afa9081156103a7575f916126a1575b5061243f610217838c88611bbe565b6001600160a01b03808616918e91879186918f918b9116860361267357505050505060206004916040519283809263313ce56760e01b82525afa9081156103a7575f91612654575b5060ff601291168103908111610854578c6124b3846101606124ab6124b99561204e565b930151611b96565b51611839565b6124c483888b611bbe565b35816127108102046127101482151715610854578d6124e88c61271081950261184c565b8281119290831561264557906124fd91611bef565b915b808061263c575b156125bf5750506127109161251a91611839565b04908c604061252c8482840151611be2565b910152670de0b6b3a764000091828102928184041490151715610854576125529161184c565b6012908160ff85168103116108545761257561257b9260ff60019616900361204e565b9061184c565b816125908d606060e082015191015190611b96565b526101008c015160608d01516125a591611b96565b526125b360608c015161205c565b60608c01525b01612313565b9193509150600194501580612633575b6125db575b50506125b9565b8160a06125e9920151611be2565b60a08d0152816126048d608061012082015191015190611b96565b526101408c015160808d015161261991611b96565b5261262760808c015161205c565b60808c01525f8b6125d4565b508782116125cf565b508a8311612506565b61264e91611bef565b916124ff565b61266d915060203d602011611a1c57611a0d81836116d5565b5f612487565b61269c955061268d61021784612695959461016094611bbe565b940151611b96565b519161187e565b6124b9565b90506020813d6020116126cb575b816126bc602093836116d5565b8101031261012e57515f612430565b3d91506126af565b6126ed91925060203d602011611a1c57611a0d81836116d5565b905f6123c9565b999a979982356001600160a01b038116810361012e578152979a9997602092830192016120b6565b5f5b81811061272b5750612085565b6001600160a01b03908161274361021783868b611bbe565b168b60409182519485926370a0823160e01b845216600483015281602460209384935afa9182156119eb57505f9161278c575b50600192506127858287611b96565b520161271e565b905082813d83116127b4575b6127a281836116d5565b8101031261012e57600191515f612776565b503d612798565b60035460405163b9f5e61760e01b81529190602090839060049082906001600160a01b03165afa9182156103a7575f92612807575b50612710918203828111610854576119b791611839565b9091506020813d602011612833575b81612823602093836116d5565b8101031261012e5751905f6127f0565b3d9150612816565b91906128468161201c565b905f5b818110612857575090925050565b8061286460019287611b96565b5161286f8286611b96565b5201612849565b60ff7ff0c57e16840df040f15088dc2f81fe391c3923bec73e23a9662efc9c229c6a005460401c16156128a557565b604051631afcd79f60e31b8152600490fd5b906128de57508051156128cc57805190602001fd5b604051630a12f52160e11b8152600490fd5b81511580612911575b6128ef575090565b604051639996b31560e01b81526001600160a01b039091166004820152602490fd5b50803b156128e756fe9016d09d72d40fdae2fd8ceac6b6234c7706214fd39c1cd1e609a0528c199300a26469706673582212206ca82267249a21af410cad6f6e4fad37e579aa39cf0cca167e6ee472095fafe564736f6c63430008190033",
  "linkReferences": {},
  "deployedLinkReferences": {}
}