{
  "_format": "hh-sol-artifact-1",
  "contractName": "BaluniV1Rebalancer",
  "sourceName": "contracts/BaluniV1Rebalancer.sol",
  "abi": [
    {
      "inputs": [
        {
          "internalType": "address",
          "name": "target",
          "type": "address"
        }
      ],
      "name": "AddressEmptyCode",
      "type": "error"
    },
    {
      "inputs": [
        {
          "internalType": "address",
          "name": "implementation",
          "type": "address"
        }
      ],
      "name": "ERC1967InvalidImplementation",
      "type": "error"
    },
    {
      "inputs": [],
      "name": "ERC1967NonPayable",
      "type": "error"
    },
    {
      "inputs": [],
      "name": "FailedInnerCall",
      "type": "error"
    },
    {
      "inputs": [],
      "name": "InvalidInitialization",
      "type": "error"
    },
    {
      "inputs": [],
      "name": "NotInitializing",
      "type": "error"
    },
    {
      "inputs": [
        {
          "internalType": "address",
          "name": "owner",
          "type": "address"
        }
      ],
      "name": "OwnableInvalidOwner",
      "type": "error"
    },
    {
      "inputs": [
        {
          "internalType": "address",
          "name": "account",
          "type": "address"
        }
      ],
      "name": "OwnableUnauthorizedAccount",
      "type": "error"
    },
    {
      "inputs": [],
      "name": "UUPSUnauthorizedCallContext",
      "type": "error"
    },
    {
      "inputs": [
        {
          "internalType": "bytes32",
          "name": "slot",
          "type": "bytes32"
        }
      ],
      "name": "UUPSUnsupportedProxiableUUID",
      "type": "error"
    },
    {
      "anonymous": false,
      "inputs": [
        {
          "indexed": false,
          "internalType": "uint64",
          "name": "version",
          "type": "uint64"
        }
      ],
      "name": "Initialized",
      "type": "event"
    },
    {
      "anonymous": false,
      "inputs": [
        {
          "indexed": true,
          "internalType": "address",
          "name": "previousOwner",
          "type": "address"
        },
        {
          "indexed": true,
          "internalType": "address",
          "name": "newOwner",
          "type": "address"
        }
      ],
      "name": "OwnershipTransferred",
      "type": "event"
    },
    {
      "anonymous": false,
      "inputs": [
        {
          "indexed": true,
          "internalType": "address",
          "name": "implementation",
          "type": "address"
        }
      ],
      "name": "Upgraded",
      "type": "event"
    },
    {
      "inputs": [],
      "name": "UPGRADE_INTERFACE_VERSION",
      "outputs": [
        {
          "internalType": "string",
          "name": "",
          "type": "string"
        }
      ],
      "stateMutability": "view",
      "type": "function"
    },
    {
      "inputs": [
        {
          "internalType": "uint256[]",
          "name": "balances",
          "type": "uint256[]"
        },
        {
          "internalType": "address[]",
          "name": "assets",
          "type": "address[]"
        },
        {
          "internalType": "uint256[]",
          "name": "weights",
          "type": "uint256[]"
        },
        {
          "internalType": "uint256",
          "name": "limit",
          "type": "uint256"
        },
        {
          "internalType": "address",
          "name": "sender",
          "type": "address"
        },
        {
          "internalType": "address",
          "name": "baseAsset",
          "type": "address"
        }
      ],
      "name": "checkRebalance",
      "outputs": [
        {
          "components": [
            {
              "internalType": "uint256",
              "name": "length",
              "type": "uint256"
            },
            {
              "internalType": "uint256",
              "name": "totalValue",
              "type": "uint256"
            },
            {
              "internalType": "uint256",
              "name": "finalUsdBalance",
              "type": "uint256"
            },
            {
              "internalType": "uint256",
              "name": "overweightVaultsLength",
              "type": "uint256"
            },
            {
              "internalType": "uint256",
              "name": "underweightVaultsLength",
              "type": "uint256"
            },
            {
              "internalType": "uint256",
              "name": "totalActiveWeight",
              "type": "uint256"
            },
            {
              "internalType": "uint256",
              "name": "amountOut",
              "type": "uint256"
            },
            {
              "internalType": "uint256[]",
              "name": "overweightVaults",
              "type": "uint256[]"
            },
            {
              "internalType": "uint256[]",
              "name": "overweightAmounts",
              "type": "uint256[]"
            },
            {
              "internalType": "uint256[]",
              "name": "underweightVaults",
              "type": "uint256[]"
            },
            {
              "internalType": "uint256[]",
              "name": "underweightAmounts",
              "type": "uint256[]"
            },
            {
              "internalType": "uint256[]",
              "name": "balances",
              "type": "uint256[]"
            }
          ],
          "internalType": "struct BaluniV1Rebalancer.RebalanceVars",
          "name": "",
          "type": "tuple"
        }
      ],
      "stateMutability": "view",
      "type": "function"
    },
    {
      "inputs": [
        {
          "internalType": "address",
          "name": "_registry",
          "type": "address"
        }
      ],
      "name": "initialize",
      "outputs": [],
      "stateMutability": "nonpayable",
      "type": "function"
    },
    {
      "inputs": [],
      "name": "owner",
      "outputs": [
        {
          "internalType": "address",
          "name": "",
          "type": "address"
        }
      ],
      "stateMutability": "view",
      "type": "function"
    },
    {
      "inputs": [],
      "name": "proxiableUUID",
      "outputs": [
        {
          "internalType": "bytes32",
          "name": "",
          "type": "bytes32"
        }
      ],
      "stateMutability": "view",
      "type": "function"
    },
    {
      "inputs": [
        {
          "internalType": "uint256[]",
          "name": "balances",
          "type": "uint256[]"
        },
        {
          "internalType": "address[]",
          "name": "assets",
          "type": "address[]"
        },
        {
          "internalType": "uint256[]",
          "name": "weights",
          "type": "uint256[]"
        },
        {
          "internalType": "uint256",
          "name": "limit",
          "type": "uint256"
        },
        {
          "internalType": "address",
          "name": "sender",
          "type": "address"
        },
        {
          "internalType": "address",
          "name": "receiver",
          "type": "address"
        },
        {
          "internalType": "address",
          "name": "baseAsset",
          "type": "address"
        }
      ],
      "name": "rebalance",
      "outputs": [],
      "stateMutability": "nonpayable",
      "type": "function"
    },
    {
      "inputs": [],
      "name": "registry",
      "outputs": [
        {
          "internalType": "contract IBaluniV1Registry",
          "name": "",
          "type": "address"
        }
      ],
      "stateMutability": "view",
      "type": "function"
    },
    {
      "inputs": [
        {
          "internalType": "address",
          "name": "_registry",
          "type": "address"
        },
        {
          "internalType": "uint64",
          "name": "version",
          "type": "uint64"
        }
      ],
      "name": "reinitialize",
      "outputs": [],
      "stateMutability": "nonpayable",
      "type": "function"
    },
    {
      "inputs": [],
      "name": "renounceOwnership",
      "outputs": [],
      "stateMutability": "nonpayable",
      "type": "function"
    },
    {
      "inputs": [
        {
          "internalType": "address",
          "name": "newOwner",
          "type": "address"
        }
      ],
      "name": "transferOwnership",
      "outputs": [],
      "stateMutability": "nonpayable",
      "type": "function"
    },
    {
      "inputs": [
        {
          "internalType": "address",
          "name": "newImplementation",
          "type": "address"
        },
        {
          "internalType": "bytes",
          "name": "data",
          "type": "bytes"
        }
      ],
      "name": "upgradeToAndCall",
      "outputs": [],
      "stateMutability": "payable",
      "type": "function"
    }
  ],
  "bytecode": "0x60a0604052306080523480156012575f80fd5b506080516131386100395f395f818161169d015281816116c6015261187b01526131385ff3fe6080604052600436106100b8575f3560e01c80638f2248bc11610071578063c4d66de81161004c578063c4d66de81461021e578063f0bf77141461023d578063f2fde38b1461025c575f80fd5b80638f2248bc1461017e578063997146f51461019d578063ad3cb1cc146101c9575f80fd5b8063715018a6116100a1578063715018a6146100f85780637b1039991461010c5780638da5cb5b14610142575f80fd5b80634f1ef286146100bc57806352d1902d146100d1575b5f80fd5b6100cf6100ca366004612a29565b61027b565b005b3480156100dc575f80fd5b506100e561029a565b6040519081526020015b60405180910390f35b348015610103575f80fd5b506100cf6102c8565b348015610117575f80fd5b505f5461012a906001600160a01b031681565b6040516001600160a01b0390911681526020016100ef565b34801561014d575f80fd5b507f9016d09d72d40fdae2fd8ceac6b6234c7706214fd39c1cd1e609a0528c199300546001600160a01b031661012a565b348015610189575f80fd5b506100cf610198366004612acb565b6102db565b3480156101a8575f80fd5b506101bc6101b7366004612bd3565b610410565b6040516100ef9190612cc9565b3480156101d4575f80fd5b506102116040518060400160405280600581526020017f352e302e3000000000000000000000000000000000000000000000000000000081525081565b6040516100ef9190612db4565b348015610229575f80fd5b506100cf610238366004612de9565b610553565b348015610248575f80fd5b506100cf610257366004612e04565b6106d4565b348015610267575f80fd5b506100cf610276366004612de9565b61163c565b610283611692565b61028c82611762565b610296828261176a565b5050565b5f6102a3611870565b507f360894a13ba1a3210667c828492db98dca3e2076cc3735a920a3ca505d382bbc90565b6102d06118d2565b6102d95f611946565b565b7ff0c57e16840df040f15088dc2f81fe391c3923bec73e23a9662efc9c229c6a00805482919068010000000000000000900460ff16806103295750805467ffffffffffffffff808416911610155b15610360576040517ff92ee8a900000000000000000000000000000000000000000000000000000000815260040160405180910390fd5b80546801000000000000000067ffffffffffffffff84167fffffffffffffffffffffffffffffffffffffffffffffff00000000000000000090921682171782555f805473ffffffffffffffffffffffffffffffffffffffff19166001600160a01b038716179055815468ff0000000000000000191682556040519081527fc7f505b2f371ae2175ee4913f4499e1f2633a7b5936321eed1cdaeb6115181d29060200160405180910390a150505050565b61046d6040518061018001604052805f81526020015f81526020015f81526020015f81526020015f81526020015f81526020015f815260200160608152602001606081526020016060815260200160608152602001606081525090565b88515f03610537575f5b878110156105355788888281811061049157610491612ecd565b90506020020160208101906104a69190612de9565b6040516370a0823160e01b81526001600160a01b03868116600483015291909116906370a0823190602401602060405180830381865afa1580156104ec573d5f803e3d5ffd5b505050506040513d601f19601f820116820180604052508101906105109190612ee1565b8a828151811061052257610522612ecd565b6020908102919091010152600101610477565b505b610546898989898989886119c3565b9998505050505050505050565b7ff0c57e16840df040f15088dc2f81fe391c3923bec73e23a9662efc9c229c6a00805468010000000000000000810460ff16159067ffffffffffffffff165f8115801561059d5750825b90505f8267ffffffffffffffff1660011480156105b95750303b155b9050811580156105c7575080155b156105fe576040517ff92ee8a900000000000000000000000000000000000000000000000000000000815260040160405180910390fd5b84547fffffffffffffffffffffffffffffffffffffffffffffffff0000000000000000166001178555831561064957845468ff00000000000000001916680100000000000000001785555b610651612264565b61065a3361226c565b5f805473ffffffffffffffffffffffffffffffffffffffff19166001600160a01b03881617905583156106cc57845468ff000000000000000019168555604051600181527fc7f505b2f371ae2175ee4913f4499e1f2633a7b5936321eed1cdaeb6115181d29060200160405180910390a15b505050505050565b5f805f9054906101000a90046001600160a01b03166001600160a01b0316631bf01e9b6040518163ffffffff1660e01b8152600401602060405180830381865afa158015610724573d5f803e3d5ffd5b505050506040513d601f19601f820116820180604052508101906107489190612ef8565b90505f805f9054906101000a90046001600160a01b03166001600160a01b0316636c9c00786040518163ffffffff1660e01b8152600401602060405180830381865afa15801561079a573d5f803e3d5ffd5b505050506040513d601f19601f820116820180604052508101906107be9190612ef8565b90508a515f0361088a575f5b89811015610888578a8a828181106107e4576107e4612ecd565b90506020020160208101906107f99190612de9565b6040516370a0823160e01b81526001600160a01b03888116600483015291909116906370a0823190602401602060405180830381865afa15801561083f573d5f803e3d5ffd5b505050506040513d601f19601f820116820180604052508101906108639190612ee1565b8c828151811061087557610875612ecd565b60209081029190910101526001016107ca565b505b5f61089a8c8c8c8c8c8c8a6119c3565b90505f5b8160e0015151811015610d40575f82610100015182815181106108c3576108c3612ecd565b60200260200101511115610d38575f8c8c8460e0015184815181106108ea576108ea612ecd565b602002602001015181811061090157610901612ecd565b90506020020160208101906109169190612de9565b9050826101000151828151811061092f5761092f612ecd565b6020026020010151836101600151838151811061094e5761094e612ecd565b602002602001015110156109a95760405162461bcd60e51b815260206004820152601760248201527f556e646572204f76657277656967687420416d6f756e7400000000000000000060448201526064015b60405180910390fd5b806001600160a01b03166323b872dd893086610100015186815181106109d1576109d1612ecd565b60209081029190910101516040516001600160e01b031960e086901b1681526001600160a01b03938416600482015292909116602483015260448201526064016020604051808303815f875af1158015610a2d573d5f803e3d5ffd5b505050506040513d601f19601f82011682018060405250810190610a519190612f13565b50856001600160a01b0316816001600160a01b031603610a715750610d38565b5f805f9054906101000a90046001600160a01b03166001600160a01b03166382755ebb6040518163ffffffff1660e01b8152600401602060405180830381865afa158015610ac1573d5f803e3d5ffd5b505050506040513d601f19601f82011682018060405250810190610ae59190612ef8565b9050816001600160a01b031663095ea7b3828661010001518681518110610b0e57610b0e612ecd565b60200260200101516040518363ffffffff1660e01b8152600401610b479291906001600160a01b03929092168252602082015260400190565b6020604051808303815f875af1158015610b63573d5f803e3d5ffd5b505050506040513d601f19601f82011682018060405250810190610b879190612f13565b50846001600160a01b0316826001600160a01b031603610c6857806001600160a01b0316632d6bc8ea83898761010001518781518110610bc957610bc9612ecd565b60209081029190910101516040516001600160e01b031960e086901b1681526001600160a01b03938416600482015292909116602483015260448201523060648201526084016020604051808303815f875af1158015610c2b573d5f803e3d5ffd5b505050506040513d601f19601f82011682018060405250810190610c4f9190612ee1565b8460c001818151610c609190612f46565b905250610d35565b806001600160a01b0316635efaaebb83878a8861010001518881518110610c9157610c91612ecd565b60209081029190910101516040516001600160e01b031960e087901b1681526001600160a01b039485166004820152928416602484015292166044820152606481019190915230608482015260a4016020604051808303815f875af1158015610cfc573d5f803e3d5ffd5b505050506040513d601f19601f82011682018060405250810190610d209190612ee1565b8460c001818151610d319190612f46565b9052505b50505b60010161089e565b506040516370a0823160e01b81523060048201525f906001600160a01b038516906370a0823190602401602060405180830381865afa158015610d85573d5f803e3d5ffd5b505050506040513d601f19601f82011682018060405250810190610da99190612ee1565b90508160c00151811015610dff5760405162461bcd60e51b815260206004820152601960248201527f496e73756666696369656e7420555344432042616c616e63650000000000000060448201526064016109a0565b5f8690505f8d8d808060200260200160405190810160405280939291908181526020018383602002808284375f9201829052509394505050505b8461012001515181101561162a575f8561014001518281518110610e5f57610e5f612ecd565b60200260200101511115611622575f828661012001518381518110610e8657610e86612ecd565b602002602001015181518110610e9e57610e9e612ecd565b602002602001015190505f8660a001518761014001518481518110610ec557610ec5612ecd565b6020026020010151612710610eda9190612f59565b610ee49190612f70565b90505f612710610ef48884612f59565b610f039064e8d4a51000612f59565b610f0d9190612f70565b90508a6001600160a01b0316836001600160a01b031603610fbc576001600160a01b038a1663a9059cbb87610f4764e8d4a5100085612f70565b6040516001600160e01b031960e085901b1681526001600160a01b03909216600483015260248201526044016020604051808303815f875af1158015610f8f573d5f803e3d5ffd5b505050506040513d601f19601f82011682018060405250810190610fb39190612f13565b50505050611622565b5f81118015610fd95750610fd58764e8d4a51000612f59565b8111155b1561161e57610fed64e8d4a5100082612f70565b87101561103c5760405162461bcd60e51b815260206004820152601660248201527f42616c616e636520756e6465722052656275795174790000000000000000000060448201526064016109a0565b5f805f9054906101000a90046001600160a01b03166001600160a01b03166382755ebb6040518163ffffffff1660e01b8152600401602060405180830381865afa15801561108c573d5f803e3d5ffd5b505050506040513d601f19601f820116820180604052508101906110b09190612ef8565b90506001600160a01b038c1663095ea7b3826110d164e8d4a5100086612f70565b6040516001600160e01b031960e085901b1681526001600160a01b03909216600483015260248201526044016020604051808303815f875af1158015611119573d5f803e3d5ffd5b505050506040513d601f19601f8201168201806040525081019061113d9190612f13565b505f8a6001600160a01b0316856001600160a01b0316036111fa576001600160a01b038216632d6bc8ea8e8761117864e8d4a5100088612f70565b6040516001600160e01b031960e086901b1681526001600160a01b03938416600482015292909116602483015260448201523060648201526084016020604051808303815f875af11580156111cf573d5f803e3d5ffd5b505050506040513d601f19601f820116820180604052508101906111f39190612ee1565b90506112a2565b6001600160a01b038216635efaaebb8e8d8861121b64e8d4a5100089612f70565b6040516001600160e01b031960e087901b1681526001600160a01b039485166004820152928416602484015292166044820152606481019190915230608482015260a4016020604051808303815f875af115801561127b573d5f803e3d5ffd5b505050506040513d601f19601f8201168201806040525081019061129f9190612ee1565b90505b60c08a018190525f6112b38261227d565b90505f6112c08284612f8f565b90505f6112cc8261227d565b90505f6112d98284612f8f565b6040516370a0823160e01b815230600482015290915084906001600160a01b038b16906370a0823190602401602060405180830381865afa158015611320573d5f803e3d5ffd5b505050506040513d601f19601f820116820180604052508101906113449190612ee1565b10156113925760405162461bcd60e51b815260206004820152601e60248201527f42616c616e636520756e64657220616d6f756e74546f5472616e73666572000060448201526064016109a0565b5f805f9054906101000a90046001600160a01b03166001600160a01b03166304cc73256040518163ffffffff1660e01b8152600401602060405180830381865afa1580156113e2573d5f803e3d5ffd5b505050506040513d601f19601f820116820180604052508101906114069190612ef8565b90505f805f9054906101000a90046001600160a01b03166001600160a01b0316633b19e84a6040518163ffffffff1660e01b8152600401602060405180830381865afa158015611458573d5f803e3d5ffd5b505050506040513d601f19601f8201168201806040525081019061147c9190612ef8565b90508a6001600160a01b031663a9059cbb8f886040518363ffffffff1660e01b81526004016114c09291906001600160a01b03929092168252602082015260400190565b6020604051808303815f875af11580156114dc573d5f803e3d5ffd5b505050506040513d601f19601f820116820180604052508101906115009190612f13565b506040517fa9059cbb0000000000000000000000000000000000000000000000000000000081526001600160a01b038381166004830152602482018690528c169063a9059cbb906044016020604051808303815f875af1158015611566573d5f803e3d5ffd5b505050506040513d601f19601f8201168201806040525081019061158a9190612f13565b506040517fa9059cbb0000000000000000000000000000000000000000000000000000000081526001600160a01b038281166004830152602482018590528c169063a9059cbb906044016020604051808303815f875af11580156115f0573d5f803e3d5ffd5b505050506040513d601f19601f820116820180604052508101906116149190612f13565b5050505050505050505b5050505b600101610e39565b50505050505050505050505050505050565b6116446118d2565b6001600160a01b038116611686576040517f1e4fbdf70000000000000000000000000000000000000000000000000000000081525f60048201526024016109a0565b61168f81611946565b50565b306001600160a01b037f000000000000000000000000000000000000000000000000000000000000000016148061172b57507f00000000000000000000000000000000000000000000000000000000000000006001600160a01b031661171f7f360894a13ba1a3210667c828492db98dca3e2076cc3735a920a3ca505d382bbc546001600160a01b031690565b6001600160a01b031614155b156102d9576040517fe07c8dba00000000000000000000000000000000000000000000000000000000815260040160405180910390fd5b61168f6118d2565b816001600160a01b03166352d1902d6040518163ffffffff1660e01b8152600401602060405180830381865afa9250505080156117c4575060408051601f3d908101601f191682019092526117c191810190612ee1565b60015b611805576040517f4c9c8ce30000000000000000000000000000000000000000000000000000000081526001600160a01b03831660048201526024016109a0565b7f360894a13ba1a3210667c828492db98dca3e2076cc3735a920a3ca505d382bbc8114611861576040517faa1d49a4000000000000000000000000000000000000000000000000000000008152600481018290526024016109a0565b61186b83836123a2565b505050565b306001600160a01b037f000000000000000000000000000000000000000000000000000000000000000016146102d9576040517fe07c8dba00000000000000000000000000000000000000000000000000000000815260040160405180910390fd5b336119047f9016d09d72d40fdae2fd8ceac6b6234c7706214fd39c1cd1e609a0528c199300546001600160a01b031690565b6001600160a01b0316146102d9576040517f118cdaa70000000000000000000000000000000000000000000000000000000081523360048201526024016109a0565b7f9016d09d72d40fdae2fd8ceac6b6234c7706214fd39c1cd1e609a0528c199300805473ffffffffffffffffffffffffffffffffffffffff1981166001600160a01b03848116918217845560405192169182907f8be0079c531659141344cd1fd0a4f28419497f9722a3daafe3b4186f6b6457e0905f90a3505050565b611a206040518061018001604052805f81526020015f81526020015f81526020015f81526020015f81526020015f81526020015f815260200160608152602001606081526020016060815260200160608152602001606081525090565b5f611a5f898989808060200260200160405190810160405280939291908181526020018383602002808284375f920191909152508892506123f7915050565b90505f6040518061018001604052808a8a905081526020018381526020015f81526020015f81526020015f81526020015f81526020015f81526020018a8a90506002611aab9190612f59565b67ffffffffffffffff811115611ac357611ac36129e4565b604051908082528060200260200182016040528015611aec578160200160208202803683370190505b508152602001611afd8a6002612f59565b67ffffffffffffffff811115611b1557611b156129e4565b604051908082528060200260200182016040528015611b3e578160200160208202803683370190505b508152602001611b4f8a6002612f59565b67ffffffffffffffff811115611b6757611b676129e4565b604051908082528060200260200182016040528015611b90578160200160208202803683370190505b508152602001611ba18a6002612f59565b67ffffffffffffffff811115611bb957611bb96129e4565b604051908082528060200260200182016040528015611be2578160200160208202803683370190505b5081526020018967ffffffffffffffff811115611c0157611c016129e4565b604051908082528060200260200182016040528015611c2a578160200160208202803683370190505b5081525090505f8989808060200260200160405190810160405280939291908181526020018383602002808284375f920182905250604080516020808f0282810182019093528e825296975091959194508d93508c925082918501908490808284375f9201829052509394508a938a93508892508791505b86518110156121e8575f878281518110611cbe57611cbe612ecd565b60200260200101516001600160a01b031663313ce5676040518163ffffffff1660e01b8152600401602060405180830381865afa158015611d01573d5f803e3d5ffd5b505050506040513d601f19601f82011682018060405250810190611d259190612fa2565b60ff1690505f80866001600160a01b031663313ce5676040518163ffffffff1660e01b8152600401602060405180830381865afa158015611d68573d5f803e3d5ffd5b505050506040513d601f19601f82011682018060405250810190611d8c9190612fa2565b60ff1690505f611d9d826012612f8f565b611da890600a6130a2565b90505f805f9054906101000a90046001600160a01b03166001600160a01b031663bb3ba04c6040518163ffffffff1660e01b8152600401602060405180830381865afa158015611dfa573d5f803e3d5ffd5b505050506040513d601f19601f82011682018060405250810190611e1e9190612ef8565b90505f816001600160a01b031663b27b5e758e8981518110611e4257611e42612ecd565b60200260200101518c89600a611e5891906130a2565b611e63906001612f59565b6040516001600160e01b031960e086901b1681526001600160a01b0393841660048201529290911660248301526044820152606401602060405180830381865afa158015611eb3573d5f803e3d5ffd5b505050506040513d601f19601f82011682018060405250810190611ed79190612ee1565b9050896001600160a01b03168d8881518110611ef557611ef5612ecd565b60200260200101516001600160a01b031603611f3c57828861016001518881518110611f2357611f23612ecd565b6020026020010151611f359190612f59565b9450611fff565b816001600160a01b031663b27b5e758e8981518110611f5d57611f5d612ecd565b60200260200101518c8b61016001518b81518110611f7d57611f7d612ecd565b60209081029190910101516040516001600160e01b031960e086901b1681526001600160a01b0393841660048201529290911660248301526044820152606401602060405180830381865afa158015611fd8573d5f803e3d5ffd5b505050506040513d601f19601f82011682018060405250810190611ffc9190612ee1565b94505b5f8c888151811061201257612012612ecd565b602002602001015190505f8a8761271061202c9190612f59565b6120369190612f70565b90508181115f816120505761204b8385612f8f565b61205a565b61205a8484612f8f565b905081801561206857508e81115b15612145575f61271061207b8f84612f59565b6120859190612f70565b9050808d6040018181516120999190612f46565b905250856120af82670de0b6b3a7640000612f59565b6120b99190612f70565b90506120c68b6012612f8f565b6120d190600a6130a2565b6120db9082612f70565b90508b8d60e001518e60600151815181106120f8576120f8612ecd565b602002602001018181525050808d61010001518e606001518151811061212057612120612ecd565b602090810291909101015260608d0180519061213b826130ad565b81525050506121d2565b8115801561215257508e81115b156121d257808c60a0018181516121699190612f46565b9052506101208c015160808d015181518d929190811061218b5761218b612ecd565b602002602001018181525050808c61014001518d60800151815181106121b3576121b3612ecd565b602090810291909101015260808c018051906121ce826130ad565b9052505b505060019098019750611ca29650505050505050565b506121fb8160e0015182606001516126c2565b60e0820152610100810151606082015161221591906126c2565b610100820152610120810151608082015161223091906126c2565b610120820152610140810151608082015161224b91906126c2565b6101408201529f9e505050505050505050505050505050565b6102d961275d565b61227461275d565b61168f816127c4565b5f8054604080517f4f4608a2000000000000000000000000000000000000000000000000000000008152905183926001600160a01b031691634f4608a29160048083019260209291908290030181865afa1580156122dd573d5f803e3d5ffd5b505050506040513d601f19601f820116820180604052508101906123019190612ee1565b90505f805f9054906101000a90046001600160a01b03166001600160a01b03166385462d6f6040518163ffffffff1660e01b8152600401602060405180830381865afa158015612353573d5f803e3d5ffd5b505050506040513d601f19601f820116820180604052508101906123779190612ee1565b90505f826123858382612f8f565b61238f9087612f59565b6123999190612f70565b95945050505050565b6123ab826127cc565b6040516001600160a01b038316907fbc7cd75a20ee27fd9adebab32041f755214dbc6bffa90cc0225b39da2e5c2d3b905f90a28051156123ef5761186b8282612868565b6102966128d1565b5f8054604080517f1bf01e9b000000000000000000000000000000000000000000000000000000008152905183926001600160a01b031691631bf01e9b9160048083019260209291908290030181865afa158015612457573d5f803e3d5ffd5b505050506040513d601f19601f8201168201806040525081019061247b9190612ef8565b90505f836001600160a01b031663313ce5676040518163ffffffff1660e01b8152600401602060405180830381865afa1580156124ba573d5f803e3d5ffd5b505050506040513d601f19601f820116820180604052508101906124de9190612fa2565b90505f6124ec8260126130c5565b6124f790600a6130de565b90505f805f9054906101000a90046001600160a01b03166001600160a01b031663bb3ba04c6040518163ffffffff1660e01b8152600401602060405180830381865afa158015612549573d5f803e3d5ffd5b505050506040513d601f19601f8201168201806040525081019061256d9190612ef8565b90505f805b88518110156126b357856001600160a01b031689828151811061259757612597612ecd565b60200260200101516001600160a01b0316036125e357838a82815181106125c0576125c0612ecd565b60200260200101516125d29190612f59565b6125dc9083612f46565b91506126ab565b826001600160a01b031663b27b5e758a838151811061260457612604612ecd565b60200260200101518a8d858151811061261f5761261f612ecd565b60209081029190910101516040516001600160e01b031960e086901b1681526001600160a01b0393841660048201529290911660248301526044820152606401602060405180830381865afa15801561267a573d5f803e3d5ffd5b505050506040513d601f19601f8201168201806040525081019061269e9190612ee1565b6126a89083612f46565b91505b600101612572565b509450505050505b9392505050565b60605f8267ffffffffffffffff8111156126de576126de6129e4565b604051908082528060200260200182016040528015612707578160200160208202803683370190505b5090505f5b838110156127535784818151811061272657612726612ecd565b602002602001015182828151811061274057612740612ecd565b602090810291909101015260010161270c565b5090505b92915050565b7ff0c57e16840df040f15088dc2f81fe391c3923bec73e23a9662efc9c229c6a005468010000000000000000900460ff166102d9576040517fd7e6bcf800000000000000000000000000000000000000000000000000000000815260040160405180910390fd5b61164461275d565b806001600160a01b03163b5f0361281a576040517f4c9c8ce30000000000000000000000000000000000000000000000000000000081526001600160a01b03821660048201526024016109a0565b7f360894a13ba1a3210667c828492db98dca3e2076cc3735a920a3ca505d382bbc805473ffffffffffffffffffffffffffffffffffffffff19166001600160a01b0392909216919091179055565b60605f80846001600160a01b03168460405161288491906130ec565b5f60405180830381855af49150503d805f81146128bc576040519150601f19603f3d011682016040523d82523d5f602084013e6128c1565b606091505b5091509150612399858383612909565b34156102d9576040517fb398979f00000000000000000000000000000000000000000000000000000000815260040160405180910390fd5b60608261291e576129198261297e565b6126bb565b815115801561293557506001600160a01b0384163b155b15612977576040517f9996b3150000000000000000000000000000000000000000000000000000000081526001600160a01b03851660048201526024016109a0565b50806126bb565b80511561298e5780518082602001fd5b6040517f1425ea4200000000000000000000000000000000000000000000000000000000815260040160405180910390fd5b6001600160a01b038116811461168f575f80fd5b80356129df816129c0565b919050565b634e487b7160e01b5f52604160045260245ffd5b604051601f8201601f1916810167ffffffffffffffff81118282101715612a2157612a216129e4565b604052919050565b5f8060408385031215612a3a575f80fd5b8235612a45816129c0565b915060208381013567ffffffffffffffff80821115612a62575f80fd5b818601915086601f830112612a75575f80fd5b813581811115612a8757612a876129e4565b612a9984601f19601f840116016129f8565b91508082528784828501011115612aae575f80fd5b80848401858401375f848284010152508093505050509250929050565b5f8060408385031215612adc575f80fd5b8235612ae7816129c0565b9150602083013567ffffffffffffffff81168114612b03575f80fd5b809150509250929050565b5f82601f830112612b1d575f80fd5b8135602067ffffffffffffffff821115612b3957612b396129e4565b8160051b612b488282016129f8565b9283528481018201928281019087851115612b61575f80fd5b83870192505b84831015612b8057823582529183019190830190612b67565b979650505050505050565b5f8083601f840112612b9b575f80fd5b50813567ffffffffffffffff811115612bb2575f80fd5b6020830191508360208260051b8501011115612bcc575f80fd5b9250929050565b5f805f805f805f8060c0898b031215612bea575f80fd5b883567ffffffffffffffff80821115612c01575f80fd5b612c0d8c838d01612b0e565b995060208b0135915080821115612c22575f80fd5b612c2e8c838d01612b8b565b909950975060408b0135915080821115612c46575f80fd5b50612c538b828c01612b8b565b909650945050606089013592506080890135612c6e816129c0565b915060a0890135612c7e816129c0565b809150509295985092959890939650565b5f815180845260208085019450602084015f5b83811015612cbe57815187529582019590820190600101612ca2565b509495945050505050565b6020815281516020820152602082015160408201526040820151606082015260608201516080820152608082015160a082015260a082015160c082015260c082015160e08201525f60e08301516101806101008181860152612d2f6101a0860184612c8f565b9250808601519050601f19610120818786030181880152612d508584612c8f565b945080880151925050610140818786030181880152612d6f8584612c8f565b945080880151925050610160818786030181880152612d8e8584612c8f565b908801518782039092018488015293509050612daa8382612c8f565b9695505050505050565b602081525f82518060208401528060208501604085015e5f604082850101526040601f19601f83011684010191505092915050565b5f60208284031215612df9575f80fd5b81356126bb816129c0565b5f805f805f805f805f60e08a8c031215612e1c575f80fd5b893567ffffffffffffffff80821115612e33575f80fd5b612e3f8d838e01612b0e565b9a5060208c0135915080821115612e54575f80fd5b612e608d838e01612b8b565b909a50985060408c0135915080821115612e78575f80fd5b50612e858c828d01612b8b565b90975095505060608a0135935060808a0135612ea0816129c0565b925060a08a0135612eb0816129c0565b9150612ebe60c08b016129d4565b90509295985092959850929598565b634e487b7160e01b5f52603260045260245ffd5b5f60208284031215612ef1575f80fd5b5051919050565b5f60208284031215612f08575f80fd5b81516126bb816129c0565b5f60208284031215612f23575f80fd5b815180151581146126bb575f80fd5b634e487b7160e01b5f52601160045260245ffd5b8082018082111561275757612757612f32565b808202811582820484141761275757612757612f32565b5f82612f8a57634e487b7160e01b5f52601260045260245ffd5b500490565b8181038181111561275757612757612f32565b5f60208284031215612fb2575f80fd5b815160ff811681146126bb575f80fd5b600181815b80851115612ffc57815f1904821115612fe257612fe2612f32565b80851615612fef57918102915b93841c9390800290612fc7565b509250929050565b5f8261301257506001612757565b8161301e57505f612757565b8160018114613034576002811461303e5761305a565b6001915050612757565b60ff84111561304f5761304f612f32565b50506001821b612757565b5060208310610133831016604e8410600b841016171561307d575081810a612757565b6130878383612fc2565b805f190482111561309a5761309a612f32565b029392505050565b5f6126bb8383613004565b5f5f1982036130be576130be612f32565b5060010190565b60ff828116828216039081111561275757612757612f32565b5f6126bb60ff841683613004565b5f82518060208501845e5f92019182525091905056fea2646970667358221220d37f37601318b5e32c16e74eec849997332737b4e4859f20122ef905f306065564736f6c63430008190033",
  "linkReferences": {},
  "deployedLinkReferences": {}
}