{
  "_format": "hh-sol-artifact-1",
  "contractName": "BaluniV1Rebalancer",
  "sourceName": "contracts/BaluniV1Rebalancer.sol",
  "abi": [
    {
      "inputs": [
        {
          "internalType": "address",
          "name": "target",
          "type": "address"
        }
      ],
      "name": "AddressEmptyCode",
      "type": "error"
    },
    {
      "inputs": [
        {
          "internalType": "address",
          "name": "implementation",
          "type": "address"
        }
      ],
      "name": "ERC1967InvalidImplementation",
      "type": "error"
    },
    {
      "inputs": [],
      "name": "ERC1967NonPayable",
      "type": "error"
    },
    {
      "inputs": [],
      "name": "FailedInnerCall",
      "type": "error"
    },
    {
      "inputs": [],
      "name": "InvalidInitialization",
      "type": "error"
    },
    {
      "inputs": [],
      "name": "NotInitializing",
      "type": "error"
    },
    {
      "inputs": [
        {
          "internalType": "address",
          "name": "owner",
          "type": "address"
        }
      ],
      "name": "OwnableInvalidOwner",
      "type": "error"
    },
    {
      "inputs": [
        {
          "internalType": "address",
          "name": "account",
          "type": "address"
        }
      ],
      "name": "OwnableUnauthorizedAccount",
      "type": "error"
    },
    {
      "inputs": [],
      "name": "UUPSUnauthorizedCallContext",
      "type": "error"
    },
    {
      "inputs": [
        {
          "internalType": "bytes32",
          "name": "slot",
          "type": "bytes32"
        }
      ],
      "name": "UUPSUnsupportedProxiableUUID",
      "type": "error"
    },
    {
      "anonymous": false,
      "inputs": [
        {
          "indexed": false,
          "internalType": "uint64",
          "name": "version",
          "type": "uint64"
        }
      ],
      "name": "Initialized",
      "type": "event"
    },
    {
      "anonymous": false,
      "inputs": [
        {
          "indexed": true,
          "internalType": "address",
          "name": "previousOwner",
          "type": "address"
        },
        {
          "indexed": true,
          "internalType": "address",
          "name": "newOwner",
          "type": "address"
        }
      ],
      "name": "OwnershipTransferred",
      "type": "event"
    },
    {
      "anonymous": false,
      "inputs": [
        {
          "indexed": true,
          "internalType": "address",
          "name": "implementation",
          "type": "address"
        }
      ],
      "name": "Upgraded",
      "type": "event"
    },
    {
      "inputs": [],
      "name": "UPGRADE_INTERFACE_VERSION",
      "outputs": [
        {
          "internalType": "string",
          "name": "",
          "type": "string"
        }
      ],
      "stateMutability": "view",
      "type": "function"
    },
    {
      "inputs": [],
      "name": "USDC",
      "outputs": [
        {
          "internalType": "address",
          "name": "",
          "type": "address"
        }
      ],
      "stateMutability": "view",
      "type": "function"
    },
    {
      "inputs": [],
      "name": "WNATIVE",
      "outputs": [
        {
          "internalType": "address",
          "name": "",
          "type": "address"
        }
      ],
      "stateMutability": "view",
      "type": "function"
    },
    {
      "inputs": [],
      "name": "_1InchSpotAgg",
      "outputs": [
        {
          "internalType": "address",
          "name": "",
          "type": "address"
        }
      ],
      "stateMutability": "view",
      "type": "function"
    },
    {
      "inputs": [],
      "name": "baluniRouter",
      "outputs": [
        {
          "internalType": "address",
          "name": "",
          "type": "address"
        }
      ],
      "stateMutability": "view",
      "type": "function"
    },
    {
      "inputs": [
        {
          "internalType": "address",
          "name": "_newRouter",
          "type": "address"
        }
      ],
      "name": "changeBaluniRouter",
      "outputs": [],
      "stateMutability": "nonpayable",
      "type": "function"
    },
    {
      "inputs": [
        {
          "internalType": "uint256[]",
          "name": "balances",
          "type": "uint256[]"
        },
        {
          "internalType": "address[]",
          "name": "assets",
          "type": "address[]"
        },
        {
          "internalType": "uint256[]",
          "name": "weights",
          "type": "uint256[]"
        },
        {
          "internalType": "uint256",
          "name": "limit",
          "type": "uint256"
        },
        {
          "internalType": "address",
          "name": "sender",
          "type": "address"
        },
        {
          "internalType": "address",
          "name": "baseAsset",
          "type": "address"
        }
      ],
      "name": "checkRebalance",
      "outputs": [
        {
          "components": [
            {
              "internalType": "uint256",
              "name": "length",
              "type": "uint256"
            },
            {
              "internalType": "uint256",
              "name": "totalValue",
              "type": "uint256"
            },
            {
              "internalType": "uint256",
              "name": "finalUsdBalance",
              "type": "uint256"
            },
            {
              "internalType": "uint256",
              "name": "overweightVaultsLength",
              "type": "uint256"
            },
            {
              "internalType": "uint256",
              "name": "underweightVaultsLength",
              "type": "uint256"
            },
            {
              "internalType": "uint256",
              "name": "totalActiveWeight",
              "type": "uint256"
            },
            {
              "internalType": "uint256",
              "name": "amountOut",
              "type": "uint256"
            },
            {
              "internalType": "uint256[]",
              "name": "overweightVaults",
              "type": "uint256[]"
            },
            {
              "internalType": "uint256[]",
              "name": "overweightAmounts",
              "type": "uint256[]"
            },
            {
              "internalType": "uint256[]",
              "name": "underweightVaults",
              "type": "uint256[]"
            },
            {
              "internalType": "uint256[]",
              "name": "underweightAmounts",
              "type": "uint256[]"
            },
            {
              "internalType": "uint256[]",
              "name": "balances",
              "type": "uint256[]"
            }
          ],
          "internalType": "struct IBaluniV1Rebalancer.RebalanceVars",
          "name": "",
          "type": "tuple"
        }
      ],
      "stateMutability": "view",
      "type": "function"
    },
    {
      "inputs": [
        {
          "internalType": "address",
          "name": "fromToken",
          "type": "address"
        },
        {
          "internalType": "address",
          "name": "toToken",
          "type": "address"
        },
        {
          "internalType": "uint256",
          "name": "amount",
          "type": "uint256"
        }
      ],
      "name": "convert",
      "outputs": [
        {
          "internalType": "uint256",
          "name": "",
          "type": "uint256"
        }
      ],
      "stateMutability": "view",
      "type": "function"
    },
    {
      "inputs": [
        {
          "internalType": "address",
          "name": "_baluniRouter",
          "type": "address"
        },
        {
          "internalType": "address",
          "name": "_usdc",
          "type": "address"
        },
        {
          "internalType": "address",
          "name": "_wnative",
          "type": "address"
        },
        {
          "internalType": "address",
          "name": "_uniRouter",
          "type": "address"
        },
        {
          "internalType": "address",
          "name": "_uniFactory",
          "type": "address"
        },
        {
          "internalType": "address",
          "name": "_1InchSpotAggAddress",
          "type": "address"
        }
      ],
      "name": "initialize",
      "outputs": [],
      "stateMutability": "nonpayable",
      "type": "function"
    },
    {
      "inputs": [
        {
          "internalType": "address",
          "name": "token0",
          "type": "address"
        },
        {
          "internalType": "address",
          "name": "token1",
          "type": "address"
        },
        {
          "internalType": "address",
          "name": "token2",
          "type": "address"
        },
        {
          "internalType": "uint256",
          "name": "amount",
          "type": "uint256"
        },
        {
          "internalType": "address",
          "name": "receiver",
          "type": "address"
        }
      ],
      "name": "multiHopSwap",
      "outputs": [
        {
          "internalType": "uint256",
          "name": "amountOut",
          "type": "uint256"
        }
      ],
      "stateMutability": "nonpayable",
      "type": "function"
    },
    {
      "inputs": [],
      "name": "owner",
      "outputs": [
        {
          "internalType": "address",
          "name": "",
          "type": "address"
        }
      ],
      "stateMutability": "view",
      "type": "function"
    },
    {
      "inputs": [],
      "name": "proxiableUUID",
      "outputs": [
        {
          "internalType": "bytes32",
          "name": "",
          "type": "bytes32"
        }
      ],
      "stateMutability": "view",
      "type": "function"
    },
    {
      "inputs": [
        {
          "internalType": "uint256[]",
          "name": "balances",
          "type": "uint256[]"
        },
        {
          "internalType": "address[]",
          "name": "assets",
          "type": "address[]"
        },
        {
          "internalType": "uint256[]",
          "name": "weights",
          "type": "uint256[]"
        },
        {
          "internalType": "uint256",
          "name": "limit",
          "type": "uint256"
        },
        {
          "internalType": "address",
          "name": "sender",
          "type": "address"
        },
        {
          "internalType": "address",
          "name": "receiver",
          "type": "address"
        },
        {
          "internalType": "address",
          "name": "baseAsset",
          "type": "address"
        }
      ],
      "name": "rebalance",
      "outputs": [],
      "stateMutability": "nonpayable",
      "type": "function"
    },
    {
      "inputs": [
        {
          "internalType": "address",
          "name": "_baluniRouter",
          "type": "address"
        },
        {
          "internalType": "address",
          "name": "_usdc",
          "type": "address"
        },
        {
          "internalType": "address",
          "name": "_wnative",
          "type": "address"
        },
        {
          "internalType": "address",
          "name": "_uniRouter",
          "type": "address"
        },
        {
          "internalType": "address",
          "name": "_uniFactory",
          "type": "address"
        },
        {
          "internalType": "address",
          "name": "_1InchSpotAggAddress",
          "type": "address"
        },
        {
          "internalType": "uint64",
          "name": "version",
          "type": "uint64"
        }
      ],
      "name": "reinitialize",
      "outputs": [],
      "stateMutability": "nonpayable",
      "type": "function"
    },
    {
      "inputs": [],
      "name": "renounceOwnership",
      "outputs": [],
      "stateMutability": "nonpayable",
      "type": "function"
    },
    {
      "inputs": [
        {
          "internalType": "address",
          "name": "token0",
          "type": "address"
        },
        {
          "internalType": "address",
          "name": "token1",
          "type": "address"
        },
        {
          "internalType": "uint256",
          "name": "amount",
          "type": "uint256"
        },
        {
          "internalType": "address",
          "name": "receiver",
          "type": "address"
        }
      ],
      "name": "singleSwap",
      "outputs": [
        {
          "internalType": "uint256",
          "name": "amountOut",
          "type": "uint256"
        }
      ],
      "stateMutability": "nonpayable",
      "type": "function"
    },
    {
      "inputs": [
        {
          "internalType": "address",
          "name": "newOwner",
          "type": "address"
        }
      ],
      "name": "transferOwnership",
      "outputs": [],
      "stateMutability": "nonpayable",
      "type": "function"
    },
    {
      "inputs": [],
      "name": "treasury",
      "outputs": [
        {
          "internalType": "address",
          "name": "",
          "type": "address"
        }
      ],
      "stateMutability": "view",
      "type": "function"
    },
    {
      "inputs": [],
      "name": "uniswapFactory",
      "outputs": [
        {
          "internalType": "address",
          "name": "",
          "type": "address"
        }
      ],
      "stateMutability": "view",
      "type": "function"
    },
    {
      "inputs": [],
      "name": "uniswapRouter",
      "outputs": [
        {
          "internalType": "address",
          "name": "",
          "type": "address"
        }
      ],
      "stateMutability": "view",
      "type": "function"
    },
    {
      "inputs": [
        {
          "internalType": "address",
          "name": "newImplementation",
          "type": "address"
        },
        {
          "internalType": "bytes",
          "name": "data",
          "type": "bytes"
        }
      ],
      "name": "upgradeToAndCall",
      "outputs": [],
      "stateMutability": "payable",
      "type": "function"
    }
  ],
  "bytecode": "0x60a08060405234602957306080526136d1908161002e82396080518181816118bc01526119dd0152f35b5f80fdfe60806040526004361015610011575f80fd5b60e05f35811c90816312bf2a1c14611e65578163248391ff14611e185781632d6bc8ea14611c9157816339b6514014611c405781634f1ef2861461193657816352d1902d146118775781635efaaebb146116df57816361d027b31461168e578163715018a6146115d2578163735de9f71461158157816389a30271146115305781638bdb2afa146114df5781638da5cb5b1461146f578163997146f5146112d8578163ad3cb1cc14611219578163b0d60ba014610fe0578163b381cf4014610f8f578163cc2a9a5b14610caf578163eb06b29d14610c5e578163f0bf771414610150575063f2fde38b14610103575f80fd5b3461014c5760207ffffffffffffffffffffffffffffffffffffffffffffffffffffffffffffffffc36011261014c5761014a61013d611ee7565b610145612720565b61265f565b005b5f80fd5b3461014c57807ffffffffffffffffffffffffffffffffffffffffffffffffffffffffffffffffc36011261014c5767ffffffffffffffff60043581811161014c5761019f903690600401612069565b9160243582811161014c576101b89036906004016120c9565b9260443590811161014c576101d19036906004016120c9565b6101dc949194611f73565b956101e5611f96565b9560c4359173ffffffffffffffffffffffffffffffffffffffff8316830361014c57610218938992868860643594612c5c565b925f5b81850151518110156104fa57610236816101008701516125d3565b51610246575b6001905b0161021b565b61026661026161025983858901516125d3565b518587612614565b612624565b90610276816101608801516125d3565b51610286826101008901516125d3565b511161049d5761029b816101008801516125d3565b516040517f23b872dd00000000000000000000000000000000000000000000000000000000815273ffffffffffffffffffffffffffffffffffffffff8a16600482015230602482015260448101919091529160208084806064810103815f73ffffffffffffffffffffffffffffffffffffffff87165af193841561049257600194610464575b505073ffffffffffffffffffffffffffffffffffffffff6004541673ffffffffffffffffffffffffffffffffffffffff82161461045e5761038b73ffffffffffffffffffffffffffffffffffffffff60065416610383846101008b01516125d3565b519083612790565b73ffffffffffffffffffffffffffffffffffffffff600554168073ffffffffffffffffffffffffffffffffffffffff8316145f1461041357506103fa9073ffffffffffffffffffffffffffffffffffffffff600454169030916103f3856101008c01516125d3565b5191612925565b61040960c08801918251612645565b90525b905061023c565b6104489173ffffffffffffffffffffffffffffffffffffffff600454163092610441866101008d01516125d3565b5192612a54565b61045760c08801918251612645565b905261040c565b50610240565b8161048392903d1061048b575b61047b8183611fd6565b810190612536565b508980610321565b503d610471565b6040513d5f823e3d90fd5b60646040517f08c379a0000000000000000000000000000000000000000000000000000000008152602080600483015260248201527f42616c616e636520756e646572206f76657277656967687420616d6f756e74736044820152fd5b602483868887602073ffffffffffffffffffffffffffffffffffffffff60045416604051968780927f70a082310000000000000000000000000000000000000000000000000000000082523060048301525afa948515610492575f95610c2a575b5060c08301518510610bcc575f5b6101208401515181101561014a57610586816101408601516125d3565b51610596575b6001905b01610569565b6105b36102616105ab836101208801516125d3565b518785612614565b906105c3816101408701516125d3565b516127108102908082046127101490151715610b0a57876105ec6105f19260a0890151906121ad565b61219a565b8064e8d4a5100081020464e8d4a510001481151715610b0a5764e8d4a5100061271091020473ffffffffffffffffffffffffffffffffffffffff600454168073ffffffffffffffffffffffffffffffffffffffff851614610b37575080151580610ae7575b610663575b50905061058c565b6106a673ffffffffffffffffffffffffffffffffffffffff6004541673ffffffffffffffffffffffffffffffffffffffff6006541664e8d4a51000840491612790565b64e8d4a5100081048810610a895760059073ffffffffffffffffffffffffffffffffffffffff8254168073ffffffffffffffffffffffffffffffffffffffff8616145f14610a5557506107339173ffffffffffffffffffffffffffffffffffffffff6004541673ffffffffffffffffffffffffffffffffffffffff64e8d4a5100030940492541690612925565b915b8260c087015261074e610747846134c4565b8094612652565b61076161075a826134c4565b8092612652565b906040517f70a0823100000000000000000000000000000000000000000000000000000000815230600482015260208160248173ffffffffffffffffffffffffffffffffffffffff88165afa80156104925786915f91610a20575b50106109c2576040517fa9059cbb00000000000000000000000000000000000000000000000000000000815273ffffffffffffffffffffffffffffffffffffffff881660048201526024810195909552602085806044810103815f73ffffffffffffffffffffffffffffffffffffffff88165af19081156104925761089e956020926109a5575b506003546040517fa9059cbb00000000000000000000000000000000000000000000000000000000815273ffffffffffffffffffffffffffffffffffffffff9091166004820152602481019190915294859081906044820190565b03815f73ffffffffffffffffffffffffffffffffffffffff87165af19182156104925761095594602093610988575b5073ffffffffffffffffffffffffffffffffffffffff600954165f73ffffffffffffffffffffffffffffffffffffffff6040518098819682957fa9059cbb000000000000000000000000000000000000000000000000000000008452600484016020909392919373ffffffffffffffffffffffffffffffffffffffff60408201951681520152565b0393165af1918215610492576001921561065b576109819060203d60201161048b5761047b8183611fd6565b508761065b565b61099e90843d861161048b5761047b8183611fd6565b508a6108cd565b6109bb90833d851161048b5761047b8183611fd6565b508b610843565b60646040517f08c379a000000000000000000000000000000000000000000000000000000000815260206004820152601e60248201527f42616c616e636520756e64657220616d6f756e74546f5472616e7366657200006044820152fd5b9150506020813d602011610a4d575b81610a3c60209383611fd6565b8101031261014c578590518c6107bc565b3d9150610a2f565b610a8392508464e8d4a510003093049173ffffffffffffffffffffffffffffffffffffffff60045416612a54565b91610735565b60646040517f08c379a000000000000000000000000000000000000000000000000000000000815260206004820152601660248201527f42616c616e636520756e646572205265627579517479000000000000000000006044820152fd5b5064e8d4a51000880288810464e8d4a510001489151715610b0a57811115610656565b7f4e487b71000000000000000000000000000000000000000000000000000000005f52601160045260245ffd5b6040517fa9059cbb00000000000000000000000000000000000000000000000000000000815273ffffffffffffffffffffffffffffffffffffffff8716600482015264e8d4a510009092046024830152909250602090839060449082905f905af191821561049257600192610bad575b50610590565b610bc59060203d60201161048b5761047b8183611fd6565b5087610ba7565b60646040517f08c379a000000000000000000000000000000000000000000000000000000000815260206004820152601960248201527f496e73756666696369656e7420555344432042616c616e6365000000000000006044820152fd5b9094506020813d602011610c56575b81610c4660209383611fd6565b8101031261014c5751938561055b565b3d9150610c39565b3461014c575f7ffffffffffffffffffffffffffffffffffffffffffffffffffffffffffffffffc36011261014c57602073ffffffffffffffffffffffffffffffffffffffff60085416604051908152f35b3461014c5760c07ffffffffffffffffffffffffffffffffffffffffffffffffffffffffffffffffc36011261014c57610ce6611ee7565b610cee611f0a565b610cf6611f50565b91610cff611f2d565b610d07611f73565b91610d10611f96565b947ff0c57e16840df040f15088dc2f81fe391c3923bec73e23a9662efc9c229c6a009586549160ff8360401c16159667ffffffffffffffff841680159081610f87575b6001149081610f7d575b159081610f74575b50610f4a57600494848960017fffffffffffffffffffffffffffffffffffffffffffffffff000000000000000060209816178c55610f15575b50610da76135a2565b610daf6135a2565b610db76135a2565b610dc03361265f565b73ffffffffffffffffffffffffffffffffffffffff809881809981809781977fffffffffffffffffffffffff00000000000000000000000000000000000000009e8f9116908d5416178c55168c6005541617600555168a60065416176006551688600754161760075516918287600354161760035516856008541617600855604051928380927f61d027b30000000000000000000000000000000000000000000000000000000082525afa908115610492575f91610ee6575b501690600954161760095564e8d4a51000600255610e9357005b7fffffffffffffffffffffffffffffffffffffffffffffff00ffffffffffffffff81541690557fc7f505b2f371ae2175ee4913f4499e1f2633a7b5936321eed1cdaeb6115181d2602060405160018152a1005b610f08915060203d602011610f0e575b610f008183611fd6565b8101906125a7565b85610e79565b503d610ef6565b7fffffffffffffffffffffffffffffffffffffffffffffff0000000000000000001668010000000000000001178a558a610d9e565b60046040517ff92ee8a9000000000000000000000000000000000000000000000000000000008152fd5b9050158a610d65565b303b159150610d5d565b899150610d53565b3461014c575f7ffffffffffffffffffffffffffffffffffffffffffffffffffffffffffffffffc36011261014c57602073ffffffffffffffffffffffffffffffffffffffff60055416604051908152f35b3461014c577ffffffffffffffffffffffffffffffffffffffffffffffffffffffffffffffffc36011261014c57611015611ee7565b61101d611f0a565b611025611f50565b61102d611f2d565b91611036611f73565b9361103f611f96565b9060c4359367ffffffffffffffff9384861680960361014c577ff0c57e16840df040f15088dc2f81fe391c3923bec73e23a9662efc9c229c6a00948554908760ff8360401c1691821561120c575b5050610f4a577fffffffffffffffffffffffffffffffffffffffffffffff0000000000000000008791161768010000000000000000179283865573ffffffffffffffffffffffffffffffffffffffff809981809a81809781977fffffffffffffffffffffffff00000000000000000000000000000000000000009e8f9116906004541617600455168c6005541617600555168a600654161760065516886007541617600755169283876003541617600355168560085416176008556040518080937f61d027b30000000000000000000000000000000000000000000000000000000082525a92600491602094fa948515610492577fc7f505b2f371ae2175ee4913f4499e1f2633a7b5936321eed1cdaeb6115181d2966020967fffffffffffffffffffffffffffffffffffffffffffffff00ffffffffffffffff945f916111ef575b501690600954161760095564e8d4a51000600255169055604051908152a1005b6112069150883d8a11610f0e57610f008183611fd6565b896111cf565b831610159050878b61108d565b3461014c575f7ffffffffffffffffffffffffffffffffffffffffffffffffffffffffffffffffc36011261014c57604051604081019080821067ffffffffffffffff8311176112ab576112a791604052600581527f352e302e30000000000000000000000000000000000000000000000000000000602082015260405191829160208352602083019061212d565b0390f35b7f4e487b71000000000000000000000000000000000000000000000000000000005f52604160045260245ffd5b3461014c5760c07ffffffffffffffffffffffffffffffffffffffffffffffffffffffffffffffffc36011261014c5767ffffffffffffffff60043581811161014c57611328903690600401612069565b60243582811161014c576113409036906004016120c9565b909160443593841161014c5761135d6113829436906004016120c9565b90611366611f73565b9361136f611f96565b9561137861254e565b5060643594612c5c565b906112a76040519283926020845281516020850152602082015160408501526040820151606085015260608201516080850152608082015160a085015260a082015160c085015260c0820151818501528101516101806113ef6101009282848801526101a08701906120fa565b9183015161145e6114476114307fffffffffffffffffffffffffffffffffffffffffffffffffffffffffffffffe09561012094878b830301868c01526120fa565b928601519261014093868a830301858b01526120fa565b9185015191610160928589830301848a01526120fa565b9301519185840301908501526120fa565b3461014c575f7ffffffffffffffffffffffffffffffffffffffffffffffffffffffffffffffffc36011261014c57602073ffffffffffffffffffffffffffffffffffffffff7f9016d09d72d40fdae2fd8ceac6b6234c7706214fd39c1cd1e609a0528c1993005416604051908152f35b3461014c575f7ffffffffffffffffffffffffffffffffffffffffffffffffffffffffffffffffc36011261014c57602073ffffffffffffffffffffffffffffffffffffffff60075416604051908152f35b3461014c575f7ffffffffffffffffffffffffffffffffffffffffffffffffffffffffffffffffc36011261014c57602073ffffffffffffffffffffffffffffffffffffffff60045416604051908152f35b3461014c575f7ffffffffffffffffffffffffffffffffffffffffffffffffffffffffffffffffc36011261014c57602073ffffffffffffffffffffffffffffffffffffffff60065416604051908152f35b3461014c575f7ffffffffffffffffffffffffffffffffffffffffffffffffffffffffffffffffc36011261014c57611608612720565b5f73ffffffffffffffffffffffffffffffffffffffff7f9016d09d72d40fdae2fd8ceac6b6234c7706214fd39c1cd1e609a0528c1993008054907fffffffffffffffffffffffff000000000000000000000000000000000000000082169055167f8be0079c531659141344cd1fd0a4f28419497f9722a3daafe3b4186f6b6457e08280a3005b3461014c575f7ffffffffffffffffffffffffffffffffffffffffffffffffffffffffffffffffc36011261014c57602073ffffffffffffffffffffffffffffffffffffffff60095416604051908152f35b3461014c5760a07ffffffffffffffffffffffffffffffffffffffffffffffffffffffffffffffffc36011261014c57611716611ee7565b61171e611f0a565b611726611f50565b606435611731611f73565b9161173e30331415612407565b61174982151561246c565b73ffffffffffffffffffffffffffffffffffffffff9384861695604051967f70a082310000000000000000000000000000000000000000000000000000000088523360048901526020978881602481855afa80156104925786905f90611846575b6117b6925010156124d1565b6040517f23b872dd00000000000000000000000000000000000000000000000000000000815233600482015230602482015260448101869052908890829060649082905f905af18015610492576118219761181c928792611829575b505f541683612790565b612a54565b604051908152f35b61183f908b3d8d1161048b5761047b8183611fd6565b508a611812565b50508881813d8311611870575b61185d8183611fd6565b8101031261014c57856117b691516117aa565b503d611853565b3461014c575f7ffffffffffffffffffffffffffffffffffffffffffffffffffffffffffffffffc36011261014c5773ffffffffffffffffffffffffffffffffffffffff7f000000000000000000000000000000000000000000000000000000000000000016300361190c5760206040517f360894a13ba1a3210667c828492db98dca3e2076cc3735a920a3ca505d382bbc8152f35b60046040517fe07c8dba000000000000000000000000000000000000000000000000000000008152fd5b60407ffffffffffffffffffffffffffffffffffffffffffffffffffffffffffffffffc36011261014c57611968611ee7565b602490813567ffffffffffffffff811161014c573660238201121561014c57806004013561199581612017565b926119a36040519485611fd6565b818452602091828501933687838301011161014c57815f928886930187378601015273ffffffffffffffffffffffffffffffffffffffff807f000000000000000000000000000000000000000000000000000000000000000016803014908115611c12575b5061190c57611a15612720565b8116936040517f52d1902d0000000000000000000000000000000000000000000000000000000081528381600481895afa5f9181611be3575b50611a83578686604051907f4c9c8ce30000000000000000000000000000000000000000000000000000000082526004820152fd5b8590877f360894a13ba1a3210667c828492db98dca3e2076cc3735a920a3ca505d382bbc91828103611bb55750843b15611b865750817fffffffffffffffffffffffff0000000000000000000000000000000000000000825416179055604051907fbc7cd75a20ee27fd9adebab32041f755214dbc6bffa90cc0225b39da2e5c2d3b5f80a2815115611b5257505f61014a9481925190845af4903d15611b49573d611b2d81612017565b90611b3b6040519283611fd6565b81525f81943d92013e6135fb565b606092506135fb565b935050505034611b5e57005b807fb398979f0000000000000000000000000000000000000000000000000000000060049252fd5b82604051907f4c9c8ce30000000000000000000000000000000000000000000000000000000082526004820152fd5b604051907faa1d49a40000000000000000000000000000000000000000000000000000000082526004820152fd5b9091508481813d8311611c0b575b611bfb8183611fd6565b8101031261014c57519088611a4e565b503d611bf1565b9050817f360894a13ba1a3210667c828492db98dca3e2076cc3735a920a3ca505d382bbc5416141587611a08565b3461014c575f7ffffffffffffffffffffffffffffffffffffffffffffffffffffffffffffffffc36011261014c57602073ffffffffffffffffffffffffffffffffffffffff60035416604051908152f35b3461014c5760807ffffffffffffffffffffffffffffffffffffffffffffffffffffffffffffffffc36011261014c57611cc8611ee7565b611cd0611f0a565b604435611cdb611f2d565b90611ce830331415612407565b611cf381151561246c565b73ffffffffffffffffffffffffffffffffffffffff9283851694604051957f70a082310000000000000000000000000000000000000000000000000000000087523360048801526020968781602481855afa80156104925785905f90611de7575b611d60925010156124d1565b6040517f23b872dd00000000000000000000000000000000000000000000000000000000815233600482015230602482015260448101859052908790829060649082905f905af180156104925761182196611dc5928692611dca57505f541683612790565b612925565b611de0908a3d8c1161048b5761047b8183611fd6565b5089611812565b50508781813d8311611e11575b611dfe8183611fd6565b8101031261014c5784611d609151611d54565b503d611df4565b3461014c5760607ffffffffffffffffffffffffffffffffffffffffffffffffffffffffffffffffc36011261014c576020611821611e54611ee7565b611e5c611f0a565b604435916121f8565b3461014c5760207ffffffffffffffffffffffffffffffffffffffffffffffffffffffffffffffffc36011261014c5773ffffffffffffffffffffffffffffffffffffffff611eb1611ee7565b611eb9612720565b167fffffffffffffffffffffffff000000000000000000000000000000000000000060035416176003555f80f35b6004359073ffffffffffffffffffffffffffffffffffffffff8216820361014c57565b6024359073ffffffffffffffffffffffffffffffffffffffff8216820361014c57565b6064359073ffffffffffffffffffffffffffffffffffffffff8216820361014c57565b6044359073ffffffffffffffffffffffffffffffffffffffff8216820361014c57565b6084359073ffffffffffffffffffffffffffffffffffffffff8216820361014c57565b60a4359073ffffffffffffffffffffffffffffffffffffffff8216820361014c57565b610180810190811067ffffffffffffffff8211176112ab57604052565b90601f7fffffffffffffffffffffffffffffffffffffffffffffffffffffffffffffffe0910116810190811067ffffffffffffffff8211176112ab57604052565b67ffffffffffffffff81116112ab57601f017fffffffffffffffffffffffffffffffffffffffffffffffffffffffffffffffe01660200190565b67ffffffffffffffff81116112ab5760051b60200190565b9080601f8301121561014c57602090823561208381612051565b936120916040519586611fd6565b81855260208086019260051b82010192831161014c57602001905b8282106120ba575050505090565b813581529083019083016120ac565b9181601f8401121561014c5782359167ffffffffffffffff831161014c576020808501948460051b01011161014c57565b9081518082526020808093019301915f5b828110612119575050505090565b83518552938101939281019260010161210b565b907fffffffffffffffffffffffffffffffffffffffffffffffffffffffffffffffe0601f602080948051918291828752018686015e5f8582860101520116010190565b9081602091031261014c575160ff8116810361014c5790565b60ff16604d8111610b0a57600a0a90565b81810292918115918404141715610b0a57565b81156121b7570490565b7f4e487b71000000000000000000000000000000000000000000000000000000005f52601260045260245ffd5b9060ff8091169116039060ff8211610b0a57565b91909173ffffffffffffffffffffffffffffffffffffffff809116926040918251927f313ce56700000000000000000000000000000000000000000000000000000000958685526020938486600481855afa9586156123dc575f966123e6575b5083169382519788528088600481885afa9788156123dc575f986123ad575b508061228287612189565b95606461228e8b612189565b966008541694865195869384927f802431fb000000000000000000000000000000000000000000000000000000008452600484015260248301525f60448301525afa9283156123a457505f92612374575b50506122f3926122ee9161219a565b6121ad565b92670de0b6b3a76400009384612309828661219a565b049360ff83169160ff851691838314612360575094955011925061233c9183156123575790612337916121e4565b612189565b901561234e5761234b916121ad565b90565b61234b9161219a565b612337916121e4565b935093505050612370925061219a565b0490565b90809250813d831161239d575b61238b8183611fd6565b8101031261014c5751826122ee6122df565b503d612381565b513d5f823e3d90fd5b816123ce9299503d8a116123d5575b6123c68183611fd6565b810190612170565b965f612277565b503d6123bc565b83513d5f823e3d90fd5b8491965061240090863d88116123d5576123c68183611fd6565b9590612258565b1561240e57565b60646040517f08c379a000000000000000000000000000000000000000000000000000000000815260206004820152600c60248201527f57726f6e672073656e64657200000000000000000000000000000000000000006044820152fd5b1561247357565b60646040517f08c379a000000000000000000000000000000000000000000000000000000000815260206004820152600b60248201527f416d6f756e7420697320300000000000000000000000000000000000000000006044820152fd5b156124d857565b60646040517f08c379a000000000000000000000000000000000000000000000000000000000815260206004820152601460248201527f496e73756666696369656e742042616c616e63650000000000000000000000006044820152fd5b9081602091031261014c5751801515810361014c5790565b6040519061255b82611fb9565b815f81525f60208201525f60408201526101606060915f838201525f60808201525f60a08201525f60c08201528260e08201528261010082015282610120820152826101408201520152565b9081602091031261014c575173ffffffffffffffffffffffffffffffffffffffff8116810361014c5790565b80518210156125e75760209160051b010190565b7f4e487b71000000000000000000000000000000000000000000000000000000005f52603260045260245ffd5b91908110156125e75760051b0190565b3573ffffffffffffffffffffffffffffffffffffffff8116810361014c5790565b91908201809211610b0a57565b91908203918211610b0a57565b73ffffffffffffffffffffffffffffffffffffffff8091169081156126f0577f9016d09d72d40fdae2fd8ceac6b6234c7706214fd39c1cd1e609a0528c199300805490837fffffffffffffffffffffffff00000000000000000000000000000000000000008316179055167f8be0079c531659141344cd1fd0a4f28419497f9722a3daafe3b4186f6b6457e05f80a3565b60246040517f1e4fbdf70000000000000000000000000000000000000000000000000000000081525f6004820152fd5b73ffffffffffffffffffffffffffffffffffffffff7f9016d09d72d40fdae2fd8ceac6b6234c7706214fd39c1cd1e609a0528c1993005416330361276057565b60246040517f118cdaa7000000000000000000000000000000000000000000000000000000008152336004820152fd5b9173ffffffffffffffffffffffffffffffffffffffff8093166040928351947fdd62ed3e00000000000000000000000000000000000000000000000000000000865230600487015281168060248701526020958681604481875afa9081156128ea579085915f916128f4575b501061280b575b505050505050565b84517f095ea7b3000000000000000000000000000000000000000000000000000000009182825260048201525f602482015286816044815f885af180156128ea57879492612895979694925f926128cd575b508651978895869485938452600484016020909392919373ffffffffffffffffffffffffffffffffffffffff60408201951681520152565b03925af19081156123a457506128af575b80808080612803565b816128c592903d1061048b5761047b8183611fd6565b505f806128a6565b6128e390873d891161048b5761047b8183611fd6565b505f61285d565b86513d5f823e3d90fd5b809250888092503d831161291e575b61290d8183611fd6565b8101031261014c578490515f6127fc565b503d612903565b90929160405191610100830183811067ffffffffffffffff8211176112ab5760405273ffffffffffffffffffffffffffffffffffffffff938480921684528160208501961686526040840192610bb88452826060860192168252608085019042825260a0860190815260c08601915f83528460e08801945f8652815f541697826040519c8d9c8d9c7f414bf389000000000000000000000000000000000000000000000000000000008e52511660048d0152511660248b01525162ffffff1660448a0152511660648801525160848701525160a48601525160c4850152511660e48301525a925f61010492602095f1908115610492575f91612a25575090565b90506020813d602011612a4c575b81612a4060209383611fd6565b8101031261014c575190565b3d9150612a33565b939093929192604051936020957fffffffffffffffffffffffffffffffffffffffff000000000000000000000000809360601b1687870152827e0bb800000000000000000000000000000000000000000000000000000000009182603489015260601b166037870152604b86015260601b16604e84015260428352608083019167ffffffffffffffff92848110848211176112ab576101208501938411818510176112ab575f612b8491879560405286815260a0870173ffffffffffffffffffffffffffffffffffffffff809616815261010060c0890198428a5260e08101968752018381528684541695604051998a98899788967fc04b8d590000000000000000000000000000000000000000000000000000000088528c60048901525160a0602489015260c488019061212d565b94511660448601525160648501525160848401525160a483015203925af1918215610492575f92612bb457505090565b90809250813d8311612bcb575b612a408183611fd6565b503d612bc1565b90612bdc82612051565b612be96040519182611fd6565b8281527fffffffffffffffffffffffffffffffffffffffffffffffffffffffffffffffe0612c178294612051565b0190602036910137565b604d8111610b0a57600a0a90565b7fffffffffffffffffffffffffffffffffffffffffffffffffffffffffffffffff8114610b0a5760010190565b909792949597969396612c6d61254e565b508151156133ff575b612c7f83612051565b95612c8d6040519788611fd6565b838752602087018460051b830136811161014c57839a99979a915b8183106133ca575050505f955f9873ffffffffffffffffffffffffffffffffffffffff60045416975b89518b1015612eb1578c90602073ffffffffffffffffffffffffffffffffffffffff6024818f8f90612d02916125d3565b51169460405195869384927f70a082310000000000000000000000000000000000000000000000000000000084521660048301525afa918215610492575f92612e7d575b508a8c8b73ffffffffffffffffffffffffffffffffffffffff612d6983856125d3565b511603612d9e57505064e8d4a5100091828102928184041490151715610b0a57600191612d9591612645565b9a5b0199612cd1565b9260209173ffffffffffffffffffffffffffffffffffffffff612dca612e2595968260035416936125d3565b5116916040518095819482937f2bdd955a0000000000000000000000000000000000000000000000000000000084526004840190929173ffffffffffffffffffffffffffffffffffffffff6020916040840195845216910152565b03915afa908115610492575f91612e4a575b50612e4490600192612645565b9a612d97565b90506020813d602011612e75575b81612e6560209383611fd6565b8101031261014c57516001612e37565b3d9150612e58565b9091506020813d602011612ea9575b81612e9960209383611fd6565b8101031261014c5751905f612d46565b3d9150612e8c565b975093985093989196509398508760011b9688880460021489151715610b0a5787612edc8a99612bd2565b90612ee681612bd2565b612ef8612ef283612bd2565b92612bd2565b92612f028c612bd2565b505f60c06040519e8f90612f1582611fb9565b81528c60208201528260408201528260608201528260808201528260a0820152015260e08d01526101008c01526101208b01526101408a01526101608901525f9673ffffffffffffffffffffffffffffffffffffffff60035416975b818110612fea57505050505050505050612f9460e0820151606083015190613567565b60e0820152612fad610100820151606083015190613567565b610100820152612fc7610120820151608083015190613567565b610120820152612fe1610140820151608083015190613567565b61014082015290565b80602073ffffffffffffffffffffffffffffffffffffffff613012610261600495878e612614565b16604051938480927f313ce5670000000000000000000000000000000000000000000000000000000082525afa918215610492575f926133a9575b506130c860208a8c61306f610261868961306960ff8b16612c21565b95612614565b916040518095819482937f2bdd955a0000000000000000000000000000000000000000000000000000000084526004840190929173ffffffffffffffffffffffffffffffffffffffff6020916040840195845216910152565b03915afa8015610492578c8684878e5f9561336d575b73ffffffffffffffffffffffffffffffffffffffff959650613104610261848484612614565b8487169616860361333f5750505050506020600491604051928380927f313ce5670000000000000000000000000000000000000000000000000000000082525afa908115610492575f91613320575b5060ff601291168103908111610b0a578c61317f8461016061317761318595612c21565b9301516125d3565b5161219a565b61319083888b612614565b35816127108102046127101482151715610b0a578d6131b48c6127108195026121ad565b8281119290831561331157906131c991612652565b915b8080613308575b1561328b575050612710916131e69161219a565b04908c60406131f88482840151612645565b910152670de0b6b3a764000091828102928184041490151715610b0a5761321e916121ad565b6012908160ff8516810311610b0a576132416132479260ff600196169003612c21565b906121ad565b8161325c8d606060e0820151910151906125d3565b526101008c015160608d0151613271916125d3565b5261327f60608c0151612c2f565b60608c01525b01612f71565b91935091506001945015806132ff575b6132a7575b5050613285565b8160a06132b5920151612645565b60a08d0152816132d08d6080610120820151910151906125d3565b526101408c015160808d01516132e5916125d3565b526132f360808c0151612c2f565b60808c01525f8b6132a0565b5087821161329b565b508a83116131d2565b61331a91612652565b916131cb565b613339915060203d6020116123d5576123c68183611fd6565b5f613153565b613368955061335961026184613361959461016094612614565b9401516125d3565b51916121f8565b613185565b5050505050506020813d6020116133a1575b8161338c60209383611fd6565b8101031261014c575189908c868487856130de565b3d915061337f565b6133c391925060203d6020116123d5576123c68183611fd6565b905f61304d565b829b989a9b3573ffffffffffffffffffffffffffffffffffffffff8116810361014c578152979a999760209283019201612ca8565b5f5b83811061340e5750612c76565b73ffffffffffffffffffffffffffffffffffffffff9081613433610261838887612614565b168b60409182519485927f70a0823100000000000000000000000000000000000000000000000000000000845216600483015281602460209384935afa9182156123a457505f91613495575b506001925061348e82866125d3565b5201613401565b905082813d83116134bd575b6134ab8183611fd6565b8101031261014c57600191515f61347f565b503d6134a1565b600490602073ffffffffffffffffffffffffffffffffffffffff60035416604051938480927fb9f5e6170000000000000000000000000000000000000000000000000000000082525afa918215610492575f92613533575b50612710918203828111610b0a576123709161219a565b9091506020813d60201161355f575b8161354f60209383611fd6565b8101031261014c5751905f61351c565b3d9150613542565b919061357281612bd2565b905f5b818110613583575090925050565b80613590600192876125d3565b5161359b82866125d3565b5201613575565b60ff7ff0c57e16840df040f15088dc2f81fe391c3923bec73e23a9662efc9c229c6a005460401c16156135d157565b60046040517fd7e6bcf8000000000000000000000000000000000000000000000000000000008152fd5b9061363a575080511561361057805190602001fd5b60046040517f1425ea42000000000000000000000000000000000000000000000000000000008152fd5b81511580613692575b61364b575090565b60249073ffffffffffffffffffffffffffffffffffffffff604051917f9996b315000000000000000000000000000000000000000000000000000000008352166004820152fd5b50803b1561364356fea2646970667358221220db19b362e5a69e9d34e9c93a6d3cb884a034086f350c12df7f89041cd4b9298464736f6c63430008190033",
  "linkReferences": {},
  "deployedLinkReferences": {}
}