{
  "_format": "hh-sol-artifact-1",
  "contractName": "BaluniV1Rebalancer",
  "sourceName": "contracts/BaluniV1Rebalancer.sol",
  "abi": [
    {
      "inputs": [
        {
          "internalType": "address",
          "name": "target",
          "type": "address"
        }
      ],
      "name": "AddressEmptyCode",
      "type": "error"
    },
    {
      "inputs": [
        {
          "internalType": "address",
          "name": "implementation",
          "type": "address"
        }
      ],
      "name": "ERC1967InvalidImplementation",
      "type": "error"
    },
    {
      "inputs": [],
      "name": "ERC1967NonPayable",
      "type": "error"
    },
    {
      "inputs": [],
      "name": "FailedInnerCall",
      "type": "error"
    },
    {
      "inputs": [],
      "name": "InvalidInitialization",
      "type": "error"
    },
    {
      "inputs": [],
      "name": "NotInitializing",
      "type": "error"
    },
    {
      "inputs": [
        {
          "internalType": "address",
          "name": "owner",
          "type": "address"
        }
      ],
      "name": "OwnableInvalidOwner",
      "type": "error"
    },
    {
      "inputs": [
        {
          "internalType": "address",
          "name": "account",
          "type": "address"
        }
      ],
      "name": "OwnableUnauthorizedAccount",
      "type": "error"
    },
    {
      "inputs": [],
      "name": "UUPSUnauthorizedCallContext",
      "type": "error"
    },
    {
      "inputs": [
        {
          "internalType": "bytes32",
          "name": "slot",
          "type": "bytes32"
        }
      ],
      "name": "UUPSUnsupportedProxiableUUID",
      "type": "error"
    },
    {
      "anonymous": false,
      "inputs": [
        {
          "indexed": false,
          "internalType": "uint64",
          "name": "version",
          "type": "uint64"
        }
      ],
      "name": "Initialized",
      "type": "event"
    },
    {
      "anonymous": false,
      "inputs": [
        {
          "indexed": true,
          "internalType": "address",
          "name": "previousOwner",
          "type": "address"
        },
        {
          "indexed": true,
          "internalType": "address",
          "name": "newOwner",
          "type": "address"
        }
      ],
      "name": "OwnershipTransferred",
      "type": "event"
    },
    {
      "anonymous": false,
      "inputs": [
        {
          "indexed": true,
          "internalType": "address",
          "name": "implementation",
          "type": "address"
        }
      ],
      "name": "Upgraded",
      "type": "event"
    },
    {
      "inputs": [],
      "name": "UPGRADE_INTERFACE_VERSION",
      "outputs": [
        {
          "internalType": "string",
          "name": "",
          "type": "string"
        }
      ],
      "stateMutability": "view",
      "type": "function"
    },
    {
      "inputs": [],
      "name": "baluniRouter",
      "outputs": [
        {
          "internalType": "contract IBaluniV1Router",
          "name": "",
          "type": "address"
        }
      ],
      "stateMutability": "view",
      "type": "function"
    },
    {
      "inputs": [
        {
          "internalType": "address",
          "name": "_newRouter",
          "type": "address"
        }
      ],
      "name": "changeBaluniRouter",
      "outputs": [],
      "stateMutability": "nonpayable",
      "type": "function"
    },
    {
      "inputs": [
        {
          "internalType": "address[]",
          "name": "assets",
          "type": "address[]"
        },
        {
          "internalType": "uint256[]",
          "name": "weights",
          "type": "uint256[]"
        },
        {
          "internalType": "uint256",
          "name": "limit",
          "type": "uint256"
        },
        {
          "internalType": "address",
          "name": "sender",
          "type": "address"
        }
      ],
      "name": "checkRebalance",
      "outputs": [
        {
          "components": [
            {
              "internalType": "uint256",
              "name": "len",
              "type": "uint256"
            },
            {
              "internalType": "uint256",
              "name": "totalValue",
              "type": "uint256"
            },
            {
              "internalType": "uint256",
              "name": "finalUsdBalance",
              "type": "uint256"
            },
            {
              "internalType": "uint256",
              "name": "overweightVaultsLength",
              "type": "uint256"
            },
            {
              "internalType": "uint256",
              "name": "underweightVaultsLength",
              "type": "uint256"
            },
            {
              "internalType": "uint256",
              "name": "totalActiveWeight",
              "type": "uint256"
            },
            {
              "internalType": "uint256",
              "name": "amountOut",
              "type": "uint256"
            },
            {
              "internalType": "uint256[]",
              "name": "overweightVaults",
              "type": "uint256[]"
            },
            {
              "internalType": "uint256[]",
              "name": "overweightAmounts",
              "type": "uint256[]"
            },
            {
              "internalType": "uint256[]",
              "name": "underweightVaults",
              "type": "uint256[]"
            },
            {
              "internalType": "uint256[]",
              "name": "underweightAmounts",
              "type": "uint256[]"
            },
            {
              "internalType": "uint256[]",
              "name": "balances",
              "type": "uint256[]"
            }
          ],
          "internalType": "struct IBaluniV1Rebalancer.RebalanceVars",
          "name": "",
          "type": "tuple"
        }
      ],
      "stateMutability": "view",
      "type": "function"
    },
    {
      "inputs": [],
      "name": "getBaluniRouter",
      "outputs": [
        {
          "internalType": "address",
          "name": "",
          "type": "address"
        }
      ],
      "stateMutability": "view",
      "type": "function"
    },
    {
      "inputs": [
        {
          "internalType": "contract IERC20",
          "name": "srcToken",
          "type": "address"
        },
        {
          "internalType": "contract IERC20",
          "name": "dstToken",
          "type": "address"
        },
        {
          "internalType": "bool",
          "name": "useWrappers",
          "type": "bool"
        }
      ],
      "name": "getRate",
      "outputs": [
        {
          "internalType": "uint256",
          "name": "weightedRate",
          "type": "uint256"
        }
      ],
      "stateMutability": "view",
      "type": "function"
    },
    {
      "inputs": [
        {
          "internalType": "contract IERC20",
          "name": "srcToken",
          "type": "address"
        },
        {
          "internalType": "bool",
          "name": "useWrappers",
          "type": "bool"
        }
      ],
      "name": "getRateToEth",
      "outputs": [
        {
          "internalType": "uint256",
          "name": "weightedRate",
          "type": "uint256"
        }
      ],
      "stateMutability": "view",
      "type": "function"
    },
    {
      "inputs": [],
      "name": "getTreasury",
      "outputs": [
        {
          "internalType": "address",
          "name": "",
          "type": "address"
        }
      ],
      "stateMutability": "view",
      "type": "function"
    },
    {
      "inputs": [],
      "name": "getUSDCAddress",
      "outputs": [
        {
          "internalType": "address",
          "name": "",
          "type": "address"
        }
      ],
      "stateMutability": "view",
      "type": "function"
    },
    {
      "inputs": [],
      "name": "getWNATIVEAddress",
      "outputs": [
        {
          "internalType": "address",
          "name": "",
          "type": "address"
        }
      ],
      "stateMutability": "view",
      "type": "function"
    },
    {
      "inputs": [
        {
          "internalType": "address",
          "name": "_baluniRouter",
          "type": "address"
        },
        {
          "internalType": "address",
          "name": "_usdc",
          "type": "address"
        },
        {
          "internalType": "address",
          "name": "_wnative",
          "type": "address"
        },
        {
          "internalType": "address",
          "name": "_uniRouter",
          "type": "address"
        },
        {
          "internalType": "address",
          "name": "_uniFactory",
          "type": "address"
        },
        {
          "internalType": "address",
          "name": "_1InchSpotAggAddress",
          "type": "address"
        }
      ],
      "name": "initialize",
      "outputs": [],
      "stateMutability": "nonpayable",
      "type": "function"
    },
    {
      "inputs": [
        {
          "internalType": "address",
          "name": "token0",
          "type": "address"
        },
        {
          "internalType": "address",
          "name": "token1",
          "type": "address"
        },
        {
          "internalType": "address",
          "name": "token2",
          "type": "address"
        },
        {
          "internalType": "uint256",
          "name": "amount",
          "type": "uint256"
        },
        {
          "internalType": "address",
          "name": "receiver",
          "type": "address"
        }
      ],
      "name": "multiHopSwap",
      "outputs": [
        {
          "internalType": "uint256",
          "name": "amountOut",
          "type": "uint256"
        }
      ],
      "stateMutability": "nonpayable",
      "type": "function"
    },
    {
      "inputs": [],
      "name": "owner",
      "outputs": [
        {
          "internalType": "address",
          "name": "",
          "type": "address"
        }
      ],
      "stateMutability": "view",
      "type": "function"
    },
    {
      "inputs": [],
      "name": "proxiableUUID",
      "outputs": [
        {
          "internalType": "bytes32",
          "name": "",
          "type": "bytes32"
        }
      ],
      "stateMutability": "view",
      "type": "function"
    },
    {
      "inputs": [
        {
          "internalType": "address[]",
          "name": "assets",
          "type": "address[]"
        },
        {
          "internalType": "uint256[]",
          "name": "weights",
          "type": "uint256[]"
        },
        {
          "internalType": "address",
          "name": "sender",
          "type": "address"
        },
        {
          "internalType": "address",
          "name": "receiver",
          "type": "address"
        },
        {
          "internalType": "uint256",
          "name": "limit",
          "type": "uint256"
        }
      ],
      "name": "rebalance",
      "outputs": [],
      "stateMutability": "nonpayable",
      "type": "function"
    },
    {
      "inputs": [
        {
          "internalType": "address",
          "name": "_baluniRouter",
          "type": "address"
        },
        {
          "internalType": "address",
          "name": "_usdc",
          "type": "address"
        },
        {
          "internalType": "address",
          "name": "_wnative",
          "type": "address"
        },
        {
          "internalType": "address",
          "name": "_uniRouter",
          "type": "address"
        },
        {
          "internalType": "address",
          "name": "_uniFactory",
          "type": "address"
        },
        {
          "internalType": "address",
          "name": "_1InchSpotAggAddress",
          "type": "address"
        },
        {
          "internalType": "uint64",
          "name": "version",
          "type": "uint64"
        }
      ],
      "name": "reinitialize",
      "outputs": [],
      "stateMutability": "nonpayable",
      "type": "function"
    },
    {
      "inputs": [],
      "name": "renounceOwnership",
      "outputs": [],
      "stateMutability": "nonpayable",
      "type": "function"
    },
    {
      "inputs": [
        {
          "internalType": "address",
          "name": "token0",
          "type": "address"
        },
        {
          "internalType": "address",
          "name": "token1",
          "type": "address"
        },
        {
          "internalType": "uint256",
          "name": "amount",
          "type": "uint256"
        },
        {
          "internalType": "address",
          "name": "receiver",
          "type": "address"
        }
      ],
      "name": "singleSwap",
      "outputs": [
        {
          "internalType": "uint256",
          "name": "amountOut",
          "type": "uint256"
        }
      ],
      "stateMutability": "nonpayable",
      "type": "function"
    },
    {
      "inputs": [
        {
          "internalType": "address",
          "name": "newOwner",
          "type": "address"
        }
      ],
      "name": "transferOwnership",
      "outputs": [],
      "stateMutability": "nonpayable",
      "type": "function"
    },
    {
      "inputs": [],
      "name": "treasury",
      "outputs": [
        {
          "internalType": "address",
          "name": "",
          "type": "address"
        }
      ],
      "stateMutability": "view",
      "type": "function"
    },
    {
      "inputs": [
        {
          "internalType": "address",
          "name": "newImplementation",
          "type": "address"
        },
        {
          "internalType": "bytes",
          "name": "data",
          "type": "bytes"
        }
      ],
      "name": "upgradeToAndCall",
      "outputs": [],
      "stateMutability": "payable",
      "type": "function"
    },
    {
      "inputs": [],
      "name": "usdc",
      "outputs": [
        {
          "internalType": "address",
          "name": "",
          "type": "address"
        }
      ],
      "stateMutability": "view",
      "type": "function"
    },
    {
      "inputs": [],
      "name": "wnative",
      "outputs": [
        {
          "internalType": "address",
          "name": "",
          "type": "address"
        }
      ],
      "stateMutability": "view",
      "type": "function"
    }
  ],
  "bytecode": "0x60a08060405234602957306080526134c9908161002e823960805181818161184801526119690152f35b5f80fdfe6080806040526004361015610012575f80fd5b5f3560e01c90816304cc732514611e275750806312bf2a1c14611da55780632cebdeb2146107bd5780632d6bc8ea14611c1d57806339b6514014611bcc5780633b19e84a146116215780633e413bee146104635780634f1ef286146118c257806352d1902d146118035780635efaaebb1461167257806361d027b314611621578063715018a6146115655780637de4fd1014611515578063802431fb146114b557806384db1dfb146109f8578063895769891461087e5780638da5cb5b1461080e578063956fb510146107bd578063ad3cb1cc146106fe578063b0d60ba0146104b4578063bc06e81d14610463578063cc2a9a5b146101665763f2fde38b14610119575f80fd5b346101625760207ffffffffffffffffffffffffffffffffffffffffffffffffffffffffffffffffc36011261016257610160610153611e75565b61015b612501565b612440565b005b5f80fd5b346101625760c07ffffffffffffffffffffffffffffffffffffffffffffffffffffffffffffffffc3601126101625761019d611e75565b6101a5611e98565b906101ae611ede565b6101b6611ebb565b906101bf611f01565b926101c8611f24565b947ff0c57e16840df040f15088dc2f81fe391c3923bec73e23a9662efc9c229c6a009586549060ff8260401c16159667ffffffffffffffff83168015908161045b575b6001149081610451575b159081610448575b5061041e57600493838960017fffffffffffffffffffffffffffffffffffffffffffffffff000000000000000060209716178c556103e9575b5061025f61339a565b61026761339a565b61026f61339a565b61027833612440565b73ffffffffffffffffffffffffffffffffffffffff958680938180808096169b8c7fffffffffffffffffffffffff00000000000000000000000000000000000000009d8e60025416176002558d6008541617600855169b8c8c6003541617600355168a8954161788551688600554161760055516918287600154161760015516856006541617600655604051928380927f3b19e84a0000000000000000000000000000000000000000000000000000000082525afa9081156103de575f916103af575b5016816007541617600755600954161760095564e8d4a510005f5561035c57005b7fffffffffffffffffffffffffffffffffffffffffffffff00ffffffffffffffff81541690557fc7f505b2f371ae2175ee4913f4499e1f2633a7b5936321eed1cdaeb6115181d2602060405160018152a1005b6103d1915060203d6020116103d7575b6103c98183611f64565b8101906123ae565b8661033b565b503d6103bf565b6040513d5f823e3d90fd5b7fffffffffffffffffffffffffffffffffffffffffffffff0000000000000000001668010000000000000001178a558a610256565b60046040517ff92ee8a9000000000000000000000000000000000000000000000000000000008152fd5b9050158a61021d565b303b159150610215565b89915061020b565b34610162575f7ffffffffffffffffffffffffffffffffffffffffffffffffffffffffffffffffc36011261016257602073ffffffffffffffffffffffffffffffffffffffff60085416604051908152f35b346101625760e07ffffffffffffffffffffffffffffffffffffffffffffffffffffffffffffffffc360112610162576104eb611e75565b6104f3611e98565b6104fb611ede565b610503611ebb565b9061050c611f01565b92610515611f24565b9060c4359367ffffffffffffffff93848616809603610162577ff0c57e16840df040f15088dc2f81fe391c3923bec73e23a9662efc9c229c6a00948554908760ff8360401c169182156106f1575b505061041e5760049468010000000000000000887fffffffffffffffffffffffffffffffffffffffffffffff0000000000000000006020941617179485885573ffffffffffffffffffffffffffffffffffffffff809b81809c81808096169e8f997fffffffffffffffffffffffff00000000000000000000000000000000000000009a8b600254161760025516998a8a600354161760035516888c5416178b551686600554161760055516918285600154161760015516836006541617600655604051958680927f3b19e84a0000000000000000000000000000000000000000000000000000000082525afa9687156103de577fc7f505b2f371ae2175ee4913f4499e1f2633a7b5936321eed1cdaeb6115181d2986020987fffffffffffffffffffffffffffffffffffffffffffffff00ffffffffffffffff965f916106d4575b5016826007541617600755816008541617600855600954161760095564e8d4a510005f55169055604051908152a1005b6106eb91508a3d8c116103d7576103c98183611f64565b8b6106a4565b831610159050878b610563565b34610162575f7ffffffffffffffffffffffffffffffffffffffffffffffffffffffffffffffffc36011261016257604051604081019080821067ffffffffffffffff8311176107905761078c91604052600581527f352e302e300000000000000000000000000000000000000000000000000000006020820152604051918291602083526020830190612043565b0390f35b7f4e487b71000000000000000000000000000000000000000000000000000000005f52604160045260245ffd5b34610162575f7ffffffffffffffffffffffffffffffffffffffffffffffffffffffffffffffffc36011261016257602073ffffffffffffffffffffffffffffffffffffffff60095416604051908152f35b34610162575f7ffffffffffffffffffffffffffffffffffffffffffffffffffffffffffffffffc36011261016257602073ffffffffffffffffffffffffffffffffffffffff7f9016d09d72d40fdae2fd8ceac6b6234c7706214fd39c1cd1e609a0528c1993005416604051908152f35b346101625760807ffffffffffffffffffffffffffffffffffffffffffffffffffffffffffffffffc3601126101625767ffffffffffffffff600435818111610162576108ce903690600401611fdf565b6024929192359182116101625761078c926108f061090c933690600401611fdf565b906108f9611ebb565b936109026123e7565b5060443593612a7b565b6040519182916020835280516020840152602081015160408401526040810151606084015260608101516080840152608081015160a084015260a081015160c084015260c081015160e084015260e08101516101806109786101009282848801526101a0870190612010565b918301516109e76109d06109b97fffffffffffffffffffffffffffffffffffffffffffffffffffffffffffffffe09561012094878b830301868c0152612010565b928601519261014093868a830301858b0152612010565b9185015191610160928589830301848a0152612010565b930151918584030190850152612010565b346101625760a07ffffffffffffffffffffffffffffffffffffffffffffffffffffffffffffffffc3601126101625767ffffffffffffffff60043581811161016257610a48903690600401611fdf565b909160243590811161016257610a6383913690600401611fdf565b919092610a87610a71611ede565b8095610a7b611ebb565b95608435918587612a7b565b9161010083019160e084015f5b815151811015610cbb57610aa98186516122e5565b51610ab9575b6001905b01610a94565b610ad7610ad2610aca8385516122e5565b518587612326565b612336565b90610ae7816101608901516122e5565b51610af38288516122e5565b5111610c5e5773ffffffffffffffffffffffffffffffffffffffff9182811690610b1e8389516122e5565b516040517f23b872dd00000000000000000000000000000000000000000000000000000000815273ffffffffffffffffffffffffffffffffffffffff8d166004820152306024820152604481019190915293602080866064815f885af19586156103de57600196610c30575b5050600292818454168114610c2757610bb48260045416610bac878d516122e5565b519085612571565b6003548216908103610bf55750610bdc925416903091610bd5858b516122e5565b519161270f565b610beb60c08901918251612357565b90525b9050610aaf565b9190610c119354163092610c0a868c516122e5565b519261284c565b610c2060c08901918251612357565b9052610bee565b50505050610ab3565b81610c4f92903d10610c57575b610c478183611f64565b8101906121b5565b508c80610b8a565b503d610c3d565b60646040517f08c379a0000000000000000000000000000000000000000000000000000000008152602080600483015260248201527f42616c616e636520756e646572206f76657277656967687420616d6f756e74736044820152fd5b858360248987602073ffffffffffffffffffffffffffffffffffffffff60025416604051948580927f70a082310000000000000000000000000000000000000000000000000000000082523060048301525afa9283156103de575f93611481575b5060c08501518310611423575f5b6101208601515181101561016057610d47816101408801516122e5565b51610d57575b6001905b01610d2a565b610d74610ad2610d6c836101208a01516122e5565b518785612326565b90610d84816101408901516122e5565b5161271081029080820461271014901517156113565785610dad610db29260a08b015190612377565b612364565b8064e8d4a5100081020464e8d4a5100014811517156113565773ffffffffffffffffffffffffffffffffffffffff600254168073ffffffffffffffffffffffffffffffffffffffff851614611383575061271064e8d4a51000820204151580611321575b610e23575b509050610d4d565b610e6c73ffffffffffffffffffffffffffffffffffffffff6002541673ffffffffffffffffffffffffffffffffffffffff6004541664e8d4a51000612710818602040491612571565b64e8d4a51000612710818302040486106112c357600490602073ffffffffffffffffffffffffffffffffffffffff60015416604051938480927f3b19e84a0000000000000000000000000000000000000000000000000000000082525afa9182156103de575f926112a2575b5060039073ffffffffffffffffffffffffffffffffffffffff8254168073ffffffffffffffffffffffffffffffffffffffff8716145f146112685750610f5e9173ffffffffffffffffffffffffffffffffffffffff6002541673ffffffffffffffffffffffffffffffffffffffff64e8d4a510006127108130960204049254169061270f565b925b8360c08a0152610f79610f72856132b8565b80956123da565b90610f8d610f86836132b8565b80936123da565b916040517f70a0823100000000000000000000000000000000000000000000000000000000815230600482015260208160248173ffffffffffffffffffffffffffffffffffffffff87165afa80156103de5787915f91611233575b50106111d5576040517fa9059cbb00000000000000000000000000000000000000000000000000000000815273ffffffffffffffffffffffffffffffffffffffff891660048201526024810196909652602086806044810103815f73ffffffffffffffffffffffffffffffffffffffff87165af19081156103de576110ca966020926111b8575b506001546040517fa9059cbb00000000000000000000000000000000000000000000000000000000815273ffffffffffffffffffffffffffffffffffffffff9091166004820152602481019190915295869081906044820190565b03815f73ffffffffffffffffffffffffffffffffffffffff86165af19283156103de576111689560209461119b575b505f73ffffffffffffffffffffffffffffffffffffffff6040518098819682957fa9059cbb000000000000000000000000000000000000000000000000000000008452600484016020909392919373ffffffffffffffffffffffffffffffffffffffff60408201951681520152565b0393165af19182156103de5760019215610e1b576111949060203d602011610c5757610c478183611f64565b5087610e1b565b6111b190853d8711610c5757610c478183611f64565b508b6110f9565b6111ce90833d8511610c5757610c478183611f64565b508c61106f565b60646040517f08c379a000000000000000000000000000000000000000000000000000000000815260206004820152601e60248201527f42616c616e636520756e64657220616d6f756e74546f5472616e7366657200006044820152fd5b9150506020813d602011611260575b8161124f60209383611f64565b81010312610162578690518d610fe8565b3d9150611242565b61129c92508564e8d4a510006127108130950204049173ffffffffffffffffffffffffffffffffffffffff6002541661284c565b92610f60565b6112bc91925060203d6020116103d7576103c98183611f64565b9089610ed8565b60646040517f08c379a000000000000000000000000000000000000000000000000000000000815260206004820152601660248201527f42616c616e636520756e646572205265627579517479000000000000000000006044820152fd5b508564e8d4a5100081020464e8d4a5100014861517156113565764e8d4a51000860261271064e8d4a510008302041115610e16565b7f4e487b71000000000000000000000000000000000000000000000000000000005f52601160045260245ffd5b6040517fa9059cbb00000000000000000000000000000000000000000000000000000000815273ffffffffffffffffffffffffffffffffffffffff8716600482015264e8d4a5100061271093810293909304929092046024830152909250602090839060449082905f905af19182156103de57600192611404575b50610d51565b61141c9060203d602011610c5757610c478183611f64565b50876113fe565b60646040517f08c379a000000000000000000000000000000000000000000000000000000000815260206004820152601960248201527f496e73756666696369656e7420555344432042616c616e6365000000000000006044820152fd5b9092506020813d6020116114ad575b8161149d60209383611f64565b8101031261016257519185610d1c565b3d9150611490565b346101625760607ffffffffffffffffffffffffffffffffffffffffffffffffffffffffffffffffc360112610162576114ec611e75565b6114f4611e98565b9060443580151581036101625760209261150d92612270565b604051908152f35b346101625760407ffffffffffffffffffffffffffffffffffffffffffffffffffffffffffffffffc3601126101625761154c611e75565b6024359081151582036101625760209161150d916121cd565b34610162575f7ffffffffffffffffffffffffffffffffffffffffffffffffffffffffffffffffc3601126101625761159b612501565b5f73ffffffffffffffffffffffffffffffffffffffff7f9016d09d72d40fdae2fd8ceac6b6234c7706214fd39c1cd1e609a0528c1993008054907fffffffffffffffffffffffff000000000000000000000000000000000000000082169055167f8be0079c531659141344cd1fd0a4f28419497f9722a3daafe3b4186f6b6457e08280a3005b34610162575f7ffffffffffffffffffffffffffffffffffffffffffffffffffffffffffffffffc36011261016257602073ffffffffffffffffffffffffffffffffffffffff60075416604051908152f35b346101625760a07ffffffffffffffffffffffffffffffffffffffffffffffffffffffffffffffffc360112610162576116a9611e75565b6116b1611e98565b6116b9611ede565b6064356116c4611f01565b916116d130331415612086565b6116dc8215156120eb565b73ffffffffffffffffffffffffffffffffffffffff9384861695604051967f70a082310000000000000000000000000000000000000000000000000000000088523360048901526020978881602481855afa80156103de5786905f906117d2575b61174992501015612150565b6040517f23b872dd00000000000000000000000000000000000000000000000000000000815233600482015230602482015260448101869052908890829060649082905f905af180156103de5761150d976117b09287926117b5575b506004541683612571565b61284c565b6117cb908b3d8d11610c5757610c478183611f64565b508a6117a5565b50508881813d83116117fc575b6117e98183611f64565b810103126101625785611749915161173d565b503d6117df565b34610162575f7ffffffffffffffffffffffffffffffffffffffffffffffffffffffffffffffffc3601126101625773ffffffffffffffffffffffffffffffffffffffff7f00000000000000000000000000000000000000000000000000000000000000001630036118985760206040517f360894a13ba1a3210667c828492db98dca3e2076cc3735a920a3ca505d382bbc8152f35b60046040517fe07c8dba000000000000000000000000000000000000000000000000000000008152fd5b60407ffffffffffffffffffffffffffffffffffffffffffffffffffffffffffffffffc360112610162576118f4611e75565b602490813567ffffffffffffffff8111610162573660238201121561016257806004013561192181611fa5565b9261192f6040519485611f64565b818452602091828501933687838301011161016257815f928886930187378601015273ffffffffffffffffffffffffffffffffffffffff807f000000000000000000000000000000000000000000000000000000000000000016803014908115611b9e575b50611898576119a1612501565b8116936040517f52d1902d0000000000000000000000000000000000000000000000000000000081528381600481895afa5f9181611b6f575b50611a0f578686604051907f4c9c8ce30000000000000000000000000000000000000000000000000000000082526004820152fd5b8590877f360894a13ba1a3210667c828492db98dca3e2076cc3735a920a3ca505d382bbc91828103611b415750843b15611b125750817fffffffffffffffffffffffff0000000000000000000000000000000000000000825416179055604051907fbc7cd75a20ee27fd9adebab32041f755214dbc6bffa90cc0225b39da2e5c2d3b5f80a2815115611ade57505f6101609481925190845af4903d15611ad5573d611ab981611fa5565b90611ac76040519283611f64565b81525f81943d92013e6133f3565b606092506133f3565b935050505034611aea57005b807fb398979f0000000000000000000000000000000000000000000000000000000060049252fd5b82604051907f4c9c8ce30000000000000000000000000000000000000000000000000000000082526004820152fd5b604051907faa1d49a40000000000000000000000000000000000000000000000000000000082526004820152fd5b9091508481813d8311611b97575b611b878183611f64565b81010312610162575190886119da565b503d611b7d565b9050817f360894a13ba1a3210667c828492db98dca3e2076cc3735a920a3ca505d382bbc5416141587611994565b34610162575f7ffffffffffffffffffffffffffffffffffffffffffffffffffffffffffffffffc36011261016257602073ffffffffffffffffffffffffffffffffffffffff60015416604051908152f35b346101625760807ffffffffffffffffffffffffffffffffffffffffffffffffffffffffffffffffc36011261016257611c54611e75565b611c5c611e98565b604435611c67611ebb565b90611c7430331415612086565b611c7f8115156120eb565b73ffffffffffffffffffffffffffffffffffffffff9283851694604051957f70a082310000000000000000000000000000000000000000000000000000000087523360048801526020968781602481855afa80156103de5785905f90611d74575b611cec92501015612150565b6040517f23b872dd00000000000000000000000000000000000000000000000000000000815233600482015230602482015260448101859052908790829060649082905f905af180156103de5761150d96611d52928692611d5757506004541683612571565b61270f565b611d6d908a3d8c11610c5757610c478183611f64565b50896117a5565b50508781813d8311611d9e575b611d8b8183611f64565b810103126101625784611cec9151611ce0565b503d611d81565b346101625760207ffffffffffffffffffffffffffffffffffffffffffffffffffffffffffffffffc3601126101625773ffffffffffffffffffffffffffffffffffffffff611df1611e75565b611df9612501565b167fffffffffffffffffffffffff000000000000000000000000000000000000000060015416176001555f80f35b34610162575f7ffffffffffffffffffffffffffffffffffffffffffffffffffffffffffffffffc3601126101625760209073ffffffffffffffffffffffffffffffffffffffff600154168152f35b6004359073ffffffffffffffffffffffffffffffffffffffff8216820361016257565b6024359073ffffffffffffffffffffffffffffffffffffffff8216820361016257565b6064359073ffffffffffffffffffffffffffffffffffffffff8216820361016257565b6044359073ffffffffffffffffffffffffffffffffffffffff8216820361016257565b6084359073ffffffffffffffffffffffffffffffffffffffff8216820361016257565b60a4359073ffffffffffffffffffffffffffffffffffffffff8216820361016257565b610180810190811067ffffffffffffffff82111761079057604052565b90601f7fffffffffffffffffffffffffffffffffffffffffffffffffffffffffffffffe0910116810190811067ffffffffffffffff82111761079057604052565b67ffffffffffffffff811161079057601f017fffffffffffffffffffffffffffffffffffffffffffffffffffffffffffffffe01660200190565b9181601f840112156101625782359167ffffffffffffffff8311610162576020808501948460051b01011161016257565b9081518082526020808093019301915f5b82811061202f575050505090565b835185529381019392810192600101612021565b907fffffffffffffffffffffffffffffffffffffffffffffffffffffffffffffffe0601f602080948051918291828752018686015e5f8582860101520116010190565b1561208d57565b60646040517f08c379a000000000000000000000000000000000000000000000000000000000815260206004820152600c60248201527f57726f6e672073656e64657200000000000000000000000000000000000000006044820152fd5b156120f257565b60646040517f08c379a000000000000000000000000000000000000000000000000000000000815260206004820152600b60248201527f416d6f756e7420697320300000000000000000000000000000000000000000006044820152fd5b1561215757565b60646040517f08c379a000000000000000000000000000000000000000000000000000000000815260206004820152601460248201527f496e73756666696369656e742042616c616e63650000000000000000000000006044820152fd5b90816020910312610162575180151581036101625790565b602090604473ffffffffffffffffffffffffffffffffffffffff91826006541660405195869485937f7de4fd10000000000000000000000000000000000000000000000000000000008552166004840152151560248301525afa5f918161223c575b5061223957505f90565b90565b9091506020813d602011612268575b8161225860209383611f64565b810103126101625751905f61222f565b3d915061224b565b9160646020929373ffffffffffffffffffffffffffffffffffffffff928360065416908460405197889687957f802431fb000000000000000000000000000000000000000000000000000000008752166004860152166024840152151560448301525afa5f918161223c575061223957505f90565b80518210156122f95760209160051b010190565b7f4e487b71000000000000000000000000000000000000000000000000000000005f52603260045260245ffd5b91908110156122f95760051b0190565b3573ffffffffffffffffffffffffffffffffffffffff811681036101625790565b9190820180921161135657565b8181029291811591840414171561135657565b8115612381570490565b7f4e487b71000000000000000000000000000000000000000000000000000000005f52601260045260245ffd5b90816020910312610162575173ffffffffffffffffffffffffffffffffffffffff811681036101625790565b9190820391821161135657565b604051906123f482611f47565b815f81525f60208201525f60408201526101606060915f838201525f60808201525f60a08201525f60c08201528260e08201528261010082015282610120820152826101408201520152565b73ffffffffffffffffffffffffffffffffffffffff8091169081156124d1577f9016d09d72d40fdae2fd8ceac6b6234c7706214fd39c1cd1e609a0528c199300805490837fffffffffffffffffffffffff00000000000000000000000000000000000000008316179055167f8be0079c531659141344cd1fd0a4f28419497f9722a3daafe3b4186f6b6457e05f80a3565b60246040517f1e4fbdf70000000000000000000000000000000000000000000000000000000081525f6004820152fd5b73ffffffffffffffffffffffffffffffffffffffff7f9016d09d72d40fdae2fd8ceac6b6234c7706214fd39c1cd1e609a0528c1993005416330361254157565b60246040517f118cdaa7000000000000000000000000000000000000000000000000000000008152336004820152fd5b9173ffffffffffffffffffffffffffffffffffffffff8093166040928351947fdd62ed3e00000000000000000000000000000000000000000000000000000000865230600487015281168060248701526020958681604481875afa9081156126d4579085915f916126de575b50106125ec575b505050505050565b84517f095ea7b3000000000000000000000000000000000000000000000000000000009182825260048201525f602482015286816044815f885af180156126d457879492612676979694925f926126b7575b508651978895869485938452600484016020909392919373ffffffffffffffffffffffffffffffffffffffff60408201951681520152565b03925af19081156126ae5750612690575b808080806125e4565b816126a692903d10610c5757610c478183611f64565b505f80612687565b513d5f823e3d90fd5b6126cd90873d8911610c5757610c478183611f64565b505f61263e565b86513d5f823e3d90fd5b809250888092503d8311612708575b6126f78183611f64565b81010312610162578490515f6125dd565b503d6126ed565b91929092603c4201928342116113565760405192610100840184811067ffffffffffffffff8211176107905760405273ffffffffffffffffffffffffffffffffffffffff948580931685528260208601971687526040850193610bb885528360608701931683526080860191825260a0860190815260c0860191600183528460e08801945f8652816004541697826040519c8d9c8d9c7f414bf389000000000000000000000000000000000000000000000000000000008e52511660048d0152511660248b01525162ffffff1660448a0152511660648801525160848701525160a48601525160c4850152511660e48301525a925f61010492602095f19081156103de575f9161281d575090565b90506020813d602011612844575b8161283860209383611f64565b81010312610162575190565b3d915061282b565b939093929192604051936020957fffffffffffffffffffffffffffffffffffffffff000000000000000000000000809360601b1687870152827e0bb800000000000000000000000000000000000000000000000000000000009182603489015260601b166037870152604b86015260601b16604e84015260428352608083019167ffffffffffffffff938084108585111761079057603c4201948542116113565761012082019081118582101761079057869461298b925f9260405280825261010060a082019173ffffffffffffffffffffffffffffffffffffffff809816835260c08101998a5260e081019687520160018152866004541695604051998a98899788967fc04b8d590000000000000000000000000000000000000000000000000000000088528c60048901525160a0602489015260c4880190612043565b94511660448601525160648501525160848401525160a483015203925af19182156103de575f926129bb57505090565b90809250813d83116129d2575b6128388183611f64565b503d6129c8565b67ffffffffffffffff81116107905760051b60200190565b906129fb826129d9565b612a086040519182611f64565b8281527fffffffffffffffffffffffffffffffffffffffffffffffffffffffffffffffe0612a3682946129d9565b0190602036910137565b604d811161135657600a0a90565b7fffffffffffffffffffffffffffffffffffffffffffffffffffffffffffffffff81146113565760010190565b929193949590612a896123e7565b50612a93816129d9565b93612aa16040519586611f64565b818552602085018260051b8201368111610162578298979598915b818310613283575050505f935f9673ffffffffffffffffffffffffffffffffffffffff60025416955b8751891015612cc3578a90602073ffffffffffffffffffffffffffffffffffffffff602481612b148e8e6122e5565b51169460405195869384927f70a082310000000000000000000000000000000000000000000000000000000084521660048301525afa9182156103de575f92612c8f575b50888a8973ffffffffffffffffffffffffffffffffffffffff612b7b83856122e5565b511603612bb057505064e8d4a510009182810292818404149015171561135657600191612ba791612357565b985b0197612ae5565b9260209173ffffffffffffffffffffffffffffffffffffffff612bdc612c3795968260015416936122e5565b5116916040518095819482937f2bdd955a0000000000000000000000000000000000000000000000000000000084526004840190929173ffffffffffffffffffffffffffffffffffffffff6020916040840195845216910152565b03915afa9081156103de575f91612c5c575b50612c5690600192612357565b98612ba9565b90506020813d602011612c87575b81612c7760209383611f64565b8101031261016257516001612c49565b3d9150612c6a565b9091506020813d602011612cbb575b81612cab60209383611f64565b810103126101625751905f612b58565b3d9150612c9e565b94999750919497909295508560011b97868904600214871517156113565788612ced60e09a6129f1565b90612cf7816129f1565b90612d0a612d04826129f1565b916129f1565b91612d148b6129f1565b936040519d8e612d2381611f47565b8d81528b60208201525f60408201525f60608201525f60808201525f60a08201525f60c082015201526101008d01526101208c01526101408b01526101608a01525f9673ffffffffffffffffffffffffffffffffffffffff60015416975b818110612dfb5750505050505050505050612da560e082015160608301519061335f565b60e0820152612dbe61010082015160608301519061335f565b610100820152612dd861012082015160808301519061335f565b610120820152612df261014082015160808301519061335f565b61014082015290565b73ffffffffffffffffffffffffffffffffffffffff612e1e610ad283858c612326565b1690602073ffffffffffffffffffffffffffffffffffffffff60248d60405195869384927f70a082310000000000000000000000000000000000000000000000000000000084521660048301525afa9182156103de5783928d8b925f92613245575b50610ad28460049660209573ffffffffffffffffffffffffffffffffffffffff95612eb384610160612eb99801516122e5565b52612326565b16604051938480927f313ce5670000000000000000000000000000000000000000000000000000000082525afa9182156103de575f92613207575b50612f6f60208a8c612f16610ad28689612f1060ff8b16612a40565b95612326565b916040518095819482937f2bdd955a0000000000000000000000000000000000000000000000000000000084526004840190929173ffffffffffffffffffffffffffffffffffffffff6020916040840195845216910152565b03915afa9081156103de5782868f928d88915f966131c9575b50610ad28473ffffffffffffffffffffffffffffffffffffffff93612fac93612326565b160361317a57610160612fc09201516122e5565b5164e8d4a5100090818102918183041490151715611356575b612fe483888b612326565b35816127108102046127101482151715611356578e6130088c612710819502612377565b8281119290831561316b579061301d916123da565b915b8080613162575b156130e25750506127109161303a91612364565b04908d604061304c8482840151612357565b910152670de0b6b3a7640000918281029281840414901517156113565761307291612377565b6012908160ff8516810311611356576130b36130a28f939261309c869460ff600199169003612a40565b90612377565b92606060e0820151910151906122e5565b526101008d015160608e01516130c8916122e5565b526130d660608d0151612a4e565b60608d01525b01612d81565b90919350600195508492501580613159575b613101575b5050506130dc565b806131138460a0613129940151612357565b60a08201526080610120820151910151906122e5565b526101408d015160808e015161313e916122e5565b5261314c60808d0151612a4e565b60808d01525f818d6130f9565b508883116130f4565b508a8311613026565b613174916123da565b9161301f565b61318c906101606131939301516122e5565b5182612364565b60128060ff861681031161135657670de0b6b3a7640000916131bd6131c39260ff88169003612a40565b90612364565b04612fd9565b955050505050506020813d6020116131ff575b816131e960209383611f64565b8101031261016257518c8286868d610ad2612f88565b3d91506131dc565b9091506020813d60201161323d575b8161322360209383611f64565b81010312610162575160ff8116810361016257905f612ef4565b3d9150613216565b94505050506020823d60201161327b575b8161326360209383611f64565b8101031261016257905182919089908d610ad2612e80565b3d9150613256565b82999698993573ffffffffffffffffffffffffffffffffffffffff811681036101625781529598979560209283019201612abc565b600490602073ffffffffffffffffffffffffffffffffffffffff60015416604051938480927f185fcffe0000000000000000000000000000000000000000000000000000000082525afa9182156103de575f9261332b575b506127109182038281116113565761332791612364565b0490565b9091506020813d602011613357575b8161334760209383611f64565b810103126101625751905f613310565b3d915061333a565b919061336a816129f1565b905f5b81811061337b575090925050565b80613388600192876122e5565b5161339382866122e5565b520161336d565b60ff7ff0c57e16840df040f15088dc2f81fe391c3923bec73e23a9662efc9c229c6a005460401c16156133c957565b60046040517fd7e6bcf8000000000000000000000000000000000000000000000000000000008152fd5b90613432575080511561340857805190602001fd5b60046040517f1425ea42000000000000000000000000000000000000000000000000000000008152fd5b8151158061348a575b613443575090565b60249073ffffffffffffffffffffffffffffffffffffffff604051917f9996b315000000000000000000000000000000000000000000000000000000008352166004820152fd5b50803b1561343b56fea264697066735822122084b4fb2fe47db4156010f4cb199a89e22388eadb3f70f5621ee1a679e405daff64736f6c63430008190033",
  "linkReferences": {},
  "deployedLinkReferences": {}
}