{
  "_format": "hh-sol-artifact-1",
  "contractName": "BaluniV1Rebalancer",
  "sourceName": "contracts/BaluniV1Rebalancer.sol",
  "abi": [
    {
      "inputs": [
        {
          "internalType": "address",
          "name": "target",
          "type": "address"
        }
      ],
      "name": "AddressEmptyCode",
      "type": "error"
    },
    {
      "inputs": [
        {
          "internalType": "address",
          "name": "implementation",
          "type": "address"
        }
      ],
      "name": "ERC1967InvalidImplementation",
      "type": "error"
    },
    {
      "inputs": [],
      "name": "ERC1967NonPayable",
      "type": "error"
    },
    {
      "inputs": [],
      "name": "FailedInnerCall",
      "type": "error"
    },
    {
      "inputs": [],
      "name": "InvalidInitialization",
      "type": "error"
    },
    {
      "inputs": [],
      "name": "NotInitializing",
      "type": "error"
    },
    {
      "inputs": [
        {
          "internalType": "address",
          "name": "owner",
          "type": "address"
        }
      ],
      "name": "OwnableInvalidOwner",
      "type": "error"
    },
    {
      "inputs": [
        {
          "internalType": "address",
          "name": "account",
          "type": "address"
        }
      ],
      "name": "OwnableUnauthorizedAccount",
      "type": "error"
    },
    {
      "inputs": [],
      "name": "UUPSUnauthorizedCallContext",
      "type": "error"
    },
    {
      "inputs": [
        {
          "internalType": "bytes32",
          "name": "slot",
          "type": "bytes32"
        }
      ],
      "name": "UUPSUnsupportedProxiableUUID",
      "type": "error"
    },
    {
      "anonymous": false,
      "inputs": [
        {
          "indexed": false,
          "internalType": "uint64",
          "name": "version",
          "type": "uint64"
        }
      ],
      "name": "Initialized",
      "type": "event"
    },
    {
      "anonymous": false,
      "inputs": [
        {
          "indexed": true,
          "internalType": "address",
          "name": "previousOwner",
          "type": "address"
        },
        {
          "indexed": true,
          "internalType": "address",
          "name": "newOwner",
          "type": "address"
        }
      ],
      "name": "OwnershipTransferred",
      "type": "event"
    },
    {
      "anonymous": false,
      "inputs": [
        {
          "indexed": true,
          "internalType": "address",
          "name": "implementation",
          "type": "address"
        }
      ],
      "name": "Upgraded",
      "type": "event"
    },
    {
      "inputs": [],
      "name": "UPGRADE_INTERFACE_VERSION",
      "outputs": [
        {
          "internalType": "string",
          "name": "",
          "type": "string"
        }
      ],
      "stateMutability": "view",
      "type": "function"
    },
    {
      "inputs": [],
      "name": "baluniRouter",
      "outputs": [
        {
          "internalType": "contract IBaluniV1Router",
          "name": "",
          "type": "address"
        }
      ],
      "stateMutability": "view",
      "type": "function"
    },
    {
      "inputs": [
        {
          "internalType": "address",
          "name": "_newRouter",
          "type": "address"
        }
      ],
      "name": "changeBaluniRouter",
      "outputs": [],
      "stateMutability": "nonpayable",
      "type": "function"
    },
    {
      "inputs": [
        {
          "internalType": "address[]",
          "name": "assets",
          "type": "address[]"
        },
        {
          "internalType": "uint256[]",
          "name": "weights",
          "type": "uint256[]"
        },
        {
          "internalType": "uint256",
          "name": "limit",
          "type": "uint256"
        },
        {
          "internalType": "address",
          "name": "sender",
          "type": "address"
        }
      ],
      "name": "checkRebalance",
      "outputs": [
        {
          "components": [
            {
              "internalType": "uint256",
              "name": "len",
              "type": "uint256"
            },
            {
              "internalType": "uint256",
              "name": "totalValue",
              "type": "uint256"
            },
            {
              "internalType": "uint256",
              "name": "finalUsdBalance",
              "type": "uint256"
            },
            {
              "internalType": "uint256",
              "name": "overweightVaultsLength",
              "type": "uint256"
            },
            {
              "internalType": "uint256",
              "name": "underweightVaultsLength",
              "type": "uint256"
            },
            {
              "internalType": "uint256",
              "name": "totalActiveWeight",
              "type": "uint256"
            },
            {
              "internalType": "uint256",
              "name": "amountOut",
              "type": "uint256"
            },
            {
              "internalType": "uint256[]",
              "name": "overweightVaults",
              "type": "uint256[]"
            },
            {
              "internalType": "uint256[]",
              "name": "overweightAmounts",
              "type": "uint256[]"
            },
            {
              "internalType": "uint256[]",
              "name": "underweightVaults",
              "type": "uint256[]"
            },
            {
              "internalType": "uint256[]",
              "name": "underweightAmounts",
              "type": "uint256[]"
            },
            {
              "internalType": "uint256[]",
              "name": "balances",
              "type": "uint256[]"
            }
          ],
          "internalType": "struct IBaluniV1Rebalancer.RebalanceVars",
          "name": "",
          "type": "tuple"
        }
      ],
      "stateMutability": "view",
      "type": "function"
    },
    {
      "inputs": [
        {
          "internalType": "address",
          "name": "fromToken",
          "type": "address"
        },
        {
          "internalType": "address",
          "name": "toToken",
          "type": "address"
        },
        {
          "internalType": "uint256",
          "name": "amount",
          "type": "uint256"
        }
      ],
      "name": "convert",
      "outputs": [
        {
          "internalType": "uint256",
          "name": "",
          "type": "uint256"
        }
      ],
      "stateMutability": "view",
      "type": "function"
    },
    {
      "inputs": [],
      "name": "getBaluniRouter",
      "outputs": [
        {
          "internalType": "address",
          "name": "",
          "type": "address"
        }
      ],
      "stateMutability": "view",
      "type": "function"
    },
    {
      "inputs": [
        {
          "internalType": "contract IERC20",
          "name": "srcToken",
          "type": "address"
        },
        {
          "internalType": "contract IERC20",
          "name": "dstToken",
          "type": "address"
        },
        {
          "internalType": "bool",
          "name": "useWrappers",
          "type": "bool"
        }
      ],
      "name": "getRate",
      "outputs": [
        {
          "internalType": "uint256",
          "name": "weightedRate",
          "type": "uint256"
        }
      ],
      "stateMutability": "view",
      "type": "function"
    },
    {
      "inputs": [
        {
          "internalType": "contract IERC20",
          "name": "srcToken",
          "type": "address"
        },
        {
          "internalType": "bool",
          "name": "useWrappers",
          "type": "bool"
        }
      ],
      "name": "getRateToEth",
      "outputs": [
        {
          "internalType": "uint256",
          "name": "weightedRate",
          "type": "uint256"
        }
      ],
      "stateMutability": "view",
      "type": "function"
    },
    {
      "inputs": [],
      "name": "getTreasury",
      "outputs": [
        {
          "internalType": "address",
          "name": "",
          "type": "address"
        }
      ],
      "stateMutability": "view",
      "type": "function"
    },
    {
      "inputs": [],
      "name": "getUSDCAddress",
      "outputs": [
        {
          "internalType": "address",
          "name": "",
          "type": "address"
        }
      ],
      "stateMutability": "view",
      "type": "function"
    },
    {
      "inputs": [],
      "name": "getWNATIVEAddress",
      "outputs": [
        {
          "internalType": "address",
          "name": "",
          "type": "address"
        }
      ],
      "stateMutability": "view",
      "type": "function"
    },
    {
      "inputs": [
        {
          "internalType": "address",
          "name": "_baluniRouter",
          "type": "address"
        },
        {
          "internalType": "address",
          "name": "_usdc",
          "type": "address"
        },
        {
          "internalType": "address",
          "name": "_wnative",
          "type": "address"
        },
        {
          "internalType": "address",
          "name": "_uniRouter",
          "type": "address"
        },
        {
          "internalType": "address",
          "name": "_uniFactory",
          "type": "address"
        },
        {
          "internalType": "address",
          "name": "_1InchSpotAggAddress",
          "type": "address"
        }
      ],
      "name": "initialize",
      "outputs": [],
      "stateMutability": "nonpayable",
      "type": "function"
    },
    {
      "inputs": [
        {
          "internalType": "address",
          "name": "token0",
          "type": "address"
        },
        {
          "internalType": "address",
          "name": "token1",
          "type": "address"
        },
        {
          "internalType": "address",
          "name": "token2",
          "type": "address"
        },
        {
          "internalType": "uint256",
          "name": "amount",
          "type": "uint256"
        },
        {
          "internalType": "address",
          "name": "receiver",
          "type": "address"
        }
      ],
      "name": "multiHopSwap",
      "outputs": [
        {
          "internalType": "uint256",
          "name": "amountOut",
          "type": "uint256"
        }
      ],
      "stateMutability": "nonpayable",
      "type": "function"
    },
    {
      "inputs": [],
      "name": "owner",
      "outputs": [
        {
          "internalType": "address",
          "name": "",
          "type": "address"
        }
      ],
      "stateMutability": "view",
      "type": "function"
    },
    {
      "inputs": [],
      "name": "proxiableUUID",
      "outputs": [
        {
          "internalType": "bytes32",
          "name": "",
          "type": "bytes32"
        }
      ],
      "stateMutability": "view",
      "type": "function"
    },
    {
      "inputs": [
        {
          "internalType": "address[]",
          "name": "assets",
          "type": "address[]"
        },
        {
          "internalType": "uint256[]",
          "name": "weights",
          "type": "uint256[]"
        },
        {
          "internalType": "address",
          "name": "sender",
          "type": "address"
        },
        {
          "internalType": "address",
          "name": "receiver",
          "type": "address"
        },
        {
          "internalType": "uint256",
          "name": "limit",
          "type": "uint256"
        }
      ],
      "name": "rebalance",
      "outputs": [],
      "stateMutability": "nonpayable",
      "type": "function"
    },
    {
      "inputs": [
        {
          "internalType": "address",
          "name": "_baluniRouter",
          "type": "address"
        },
        {
          "internalType": "address",
          "name": "_usdc",
          "type": "address"
        },
        {
          "internalType": "address",
          "name": "_wnative",
          "type": "address"
        },
        {
          "internalType": "address",
          "name": "_uniRouter",
          "type": "address"
        },
        {
          "internalType": "address",
          "name": "_uniFactory",
          "type": "address"
        },
        {
          "internalType": "address",
          "name": "_1InchSpotAggAddress",
          "type": "address"
        },
        {
          "internalType": "uint64",
          "name": "version",
          "type": "uint64"
        }
      ],
      "name": "reinitialize",
      "outputs": [],
      "stateMutability": "nonpayable",
      "type": "function"
    },
    {
      "inputs": [],
      "name": "renounceOwnership",
      "outputs": [],
      "stateMutability": "nonpayable",
      "type": "function"
    },
    {
      "inputs": [
        {
          "internalType": "address",
          "name": "token0",
          "type": "address"
        },
        {
          "internalType": "address",
          "name": "token1",
          "type": "address"
        },
        {
          "internalType": "uint256",
          "name": "amount",
          "type": "uint256"
        },
        {
          "internalType": "address",
          "name": "receiver",
          "type": "address"
        }
      ],
      "name": "singleSwap",
      "outputs": [
        {
          "internalType": "uint256",
          "name": "amountOut",
          "type": "uint256"
        }
      ],
      "stateMutability": "nonpayable",
      "type": "function"
    },
    {
      "inputs": [
        {
          "internalType": "address",
          "name": "newOwner",
          "type": "address"
        }
      ],
      "name": "transferOwnership",
      "outputs": [],
      "stateMutability": "nonpayable",
      "type": "function"
    },
    {
      "inputs": [],
      "name": "treasury",
      "outputs": [
        {
          "internalType": "address",
          "name": "",
          "type": "address"
        }
      ],
      "stateMutability": "view",
      "type": "function"
    },
    {
      "inputs": [
        {
          "internalType": "address",
          "name": "newImplementation",
          "type": "address"
        },
        {
          "internalType": "bytes",
          "name": "data",
          "type": "bytes"
        }
      ],
      "name": "upgradeToAndCall",
      "outputs": [],
      "stateMutability": "payable",
      "type": "function"
    },
    {
      "inputs": [],
      "name": "usdc",
      "outputs": [
        {
          "internalType": "address",
          "name": "",
          "type": "address"
        }
      ],
      "stateMutability": "view",
      "type": "function"
    },
    {
      "inputs": [],
      "name": "wnative",
      "outputs": [
        {
          "internalType": "address",
          "name": "",
          "type": "address"
        }
      ],
      "stateMutability": "view",
      "type": "function"
    }
  ],
  "bytecode": "0x60a0806040523460295730608052613726908161002e823960805181818161185301526119740152f35b5f80fdfe6080806040526004361015610012575f80fd5b5f3560e01c90816304cc732514611e7f5750806312bf2a1c14611dfd578063248391ff14611db05780632cebdeb2146107c85780632d6bc8ea14611c2857806339b6514014611bd75780633b19e84a1461162c5780633e413bee1461046e5780634f1ef286146118cd57806352d1902d1461180e5780635efaaebb1461167d57806361d027b31461162c578063715018a6146115705780637de4fd1014611520578063802431fb146114c057806384db1dfb14610a0357806389576989146108895780638da5cb5b14610819578063956fb510146107c8578063ad3cb1cc14610709578063b0d60ba0146104bf578063bc06e81d1461046e578063cc2a9a5b146101715763f2fde38b14610124575f80fd5b3461016d5760207ffffffffffffffffffffffffffffffffffffffffffffffffffffffffffffffffc36011261016d5761016b61015e611ecd565b610166612784565b6126c3565b005b5f80fd5b3461016d5760c07ffffffffffffffffffffffffffffffffffffffffffffffffffffffffffffffffc36011261016d576101a8611ecd565b6101b0611ef0565b906101b9611f36565b6101c1611f13565b906101ca611f59565b926101d3611f7c565b947ff0c57e16840df040f15088dc2f81fe391c3923bec73e23a9662efc9c229c6a009586549060ff8260401c16159667ffffffffffffffff831680159081610466575b600114908161045c575b159081610453575b5061042957600493838960017fffffffffffffffffffffffffffffffffffffffffffffffff000000000000000060209716178c556103f4575b5061026a6135f7565b6102726135f7565b61027a6135f7565b610283336126c3565b73ffffffffffffffffffffffffffffffffffffffff958680938180808096169b8c7fffffffffffffffffffffffff00000000000000000000000000000000000000009d8e60025416176002558d6008541617600855169b8c8c6003541617600355168a8954161788551688600554161760055516918287600154161760015516856006541617600655604051928380927f3b19e84a0000000000000000000000000000000000000000000000000000000082525afa9081156103e9575f916103ba575b5016816007541617600755600954161760095564e8d4a510005f5561036757005b7fffffffffffffffffffffffffffffffffffffffffffffff00ffffffffffffffff81541690557fc7f505b2f371ae2175ee4913f4499e1f2633a7b5936321eed1cdaeb6115181d2602060405160018152a1005b6103dc915060203d6020116103e2575b6103d48183611fbc565b810190612631565b86610346565b503d6103ca565b6040513d5f823e3d90fd5b7fffffffffffffffffffffffffffffffffffffffffffffff0000000000000000001668010000000000000001178a558a610261565b60046040517ff92ee8a9000000000000000000000000000000000000000000000000000000008152fd5b9050158a610228565b303b159150610220565b899150610216565b3461016d575f7ffffffffffffffffffffffffffffffffffffffffffffffffffffffffffffffffc36011261016d57602073ffffffffffffffffffffffffffffffffffffffff60085416604051908152f35b3461016d5760e07ffffffffffffffffffffffffffffffffffffffffffffffffffffffffffffffffc36011261016d576104f6611ecd565b6104fe611ef0565b610506611f36565b61050e611f13565b90610517611f59565b92610520611f7c565b9060c4359367ffffffffffffffff9384861680960361016d577ff0c57e16840df040f15088dc2f81fe391c3923bec73e23a9662efc9c229c6a00948554908760ff8360401c169182156106fc575b50506104295760049468010000000000000000887fffffffffffffffffffffffffffffffffffffffffffffff0000000000000000006020941617179485885573ffffffffffffffffffffffffffffffffffffffff809b81809c81808096169e8f997fffffffffffffffffffffffff00000000000000000000000000000000000000009a8b600254161760025516998a8a600354161760035516888c5416178b551686600554161760055516918285600154161760015516836006541617600655604051958680927f3b19e84a0000000000000000000000000000000000000000000000000000000082525afa9687156103e9577fc7f505b2f371ae2175ee4913f4499e1f2633a7b5936321eed1cdaeb6115181d2986020987fffffffffffffffffffffffffffffffffffffffffffffff00ffffffffffffffff965f916106df575b5016826007541617600755816008541617600855600954161760095564e8d4a510005f55169055604051908152a1005b6106f691508a3d8c116103e2576103d48183611fbc565b8b6106af565b831610159050878b61056e565b3461016d575f7ffffffffffffffffffffffffffffffffffffffffffffffffffffffffffffffffc36011261016d57604051604081019080821067ffffffffffffffff83111761079b5761079791604052600581527f352e302e30000000000000000000000000000000000000000000000000000000602082015260405191829160208352602083019061209b565b0390f35b7f4e487b71000000000000000000000000000000000000000000000000000000005f52604160045260245ffd5b3461016d575f7ffffffffffffffffffffffffffffffffffffffffffffffffffffffffffffffffc36011261016d57602073ffffffffffffffffffffffffffffffffffffffff60095416604051908152f35b3461016d575f7ffffffffffffffffffffffffffffffffffffffffffffffffffffffffffffffffc36011261016d57602073ffffffffffffffffffffffffffffffffffffffff7f9016d09d72d40fdae2fd8ceac6b6234c7706214fd39c1cd1e609a0528c1993005416604051908152f35b3461016d5760807ffffffffffffffffffffffffffffffffffffffffffffffffffffffffffffffffc36011261016d5767ffffffffffffffff60043581811161016d576108d9903690600401612037565b60249291923591821161016d57610797926108fb610917933690600401612037565b90610904611f13565b9361090d61266a565b5060443593612cfe565b6040519182916020835280516020840152602081015160408401526040810151606084015260608101516080840152608081015160a084015260a081015160c084015260c081015160e084015260e08101516101806109836101009282848801526101a0870190612068565b918301516109f26109db6109c47fffffffffffffffffffffffffffffffffffffffffffffffffffffffffffffffe09561012094878b830301868c0152612068565b928601519261014093868a830301858b0152612068565b9185015191610160928589830301848a0152612068565b930151918584030190850152612068565b3461016d5760a07ffffffffffffffffffffffffffffffffffffffffffffffffffffffffffffffffc36011261016d5767ffffffffffffffff60043581811161016d57610a53903690600401612037565b909160243590811161016d57610a6e83913690600401612037565b919092610a92610a7c611f36565b8095610a86611f13565b95608435918587612cfe565b9161010083019160e084015f5b815151811015610cc657610ab48186516125b2565b51610ac4575b6001905b01610a9f565b610ae2610add610ad58385516125b2565b5185876125f3565b612603565b90610af2816101608901516125b2565b51610afe8288516125b2565b5111610c695773ffffffffffffffffffffffffffffffffffffffff9182811690610b298389516125b2565b516040517f23b872dd00000000000000000000000000000000000000000000000000000000815273ffffffffffffffffffffffffffffffffffffffff8d166004820152306024820152604481019190915293602080866064815f885af19586156103e957600196610c3b575b5050600292818454168114610c3257610bbf8260045416610bb7878d516125b2565b5190856127f4565b6003548216908103610c005750610be7925416903091610be0858b516125b2565b5191612992565b610bf660c08901918251612624565b90525b9050610aba565b9190610c1c9354163092610c15868c516125b2565b5192612acf565b610c2b60c08901918251612624565b9052610bf9565b50505050610abe565b81610c5a92903d10610c62575b610c528183611fbc565b810190612414565b508c80610b95565b503d610c48565b60646040517f08c379a0000000000000000000000000000000000000000000000000000000008152602080600483015260248201527f42616c616e636520756e646572206f76657277656967687420616d6f756e74736044820152fd5b858360248987602073ffffffffffffffffffffffffffffffffffffffff60025416604051948580927f70a082310000000000000000000000000000000000000000000000000000000082523060048301525afa9283156103e9575f9361148c575b5060c0850151831061142e575f5b6101208601515181101561016b57610d52816101408801516125b2565b51610d62575b6001905b01610d35565b610d7f610add610d77836101208a01516125b2565b5187856125f3565b90610d8f816101408901516125b2565b5161271081029080820461271014901517156113615785610db8610dbd9260a08b01519061211b565b612108565b8064e8d4a5100081020464e8d4a5100014811517156113615773ffffffffffffffffffffffffffffffffffffffff600254168073ffffffffffffffffffffffffffffffffffffffff85161461138e575061271064e8d4a5100082020415158061132c575b610e2e575b509050610d58565b610e7773ffffffffffffffffffffffffffffffffffffffff6002541673ffffffffffffffffffffffffffffffffffffffff6004541664e8d4a510006127108186020404916127f4565b64e8d4a51000612710818302040486106112ce57600490602073ffffffffffffffffffffffffffffffffffffffff60015416604051938480927f3b19e84a0000000000000000000000000000000000000000000000000000000082525afa9182156103e9575f926112ad575b5060039073ffffffffffffffffffffffffffffffffffffffff8254168073ffffffffffffffffffffffffffffffffffffffff8716145f146112735750610f699173ffffffffffffffffffffffffffffffffffffffff6002541673ffffffffffffffffffffffffffffffffffffffff64e8d4a5100061271081309602040492541690612992565b925b8360c08a0152610f84610f7d85613519565b809561265d565b90610f98610f9183613519565b809361265d565b916040517f70a0823100000000000000000000000000000000000000000000000000000000815230600482015260208160248173ffffffffffffffffffffffffffffffffffffffff87165afa80156103e95787915f9161123e575b50106111e0576040517fa9059cbb00000000000000000000000000000000000000000000000000000000815273ffffffffffffffffffffffffffffffffffffffff891660048201526024810196909652602086806044810103815f73ffffffffffffffffffffffffffffffffffffffff87165af19081156103e9576110d5966020926111c3575b506001546040517fa9059cbb00000000000000000000000000000000000000000000000000000000815273ffffffffffffffffffffffffffffffffffffffff9091166004820152602481019190915295869081906044820190565b03815f73ffffffffffffffffffffffffffffffffffffffff86165af19283156103e957611173956020946111a6575b505f73ffffffffffffffffffffffffffffffffffffffff6040518098819682957fa9059cbb000000000000000000000000000000000000000000000000000000008452600484016020909392919373ffffffffffffffffffffffffffffffffffffffff60408201951681520152565b0393165af19182156103e95760019215610e265761119f9060203d602011610c6257610c528183611fbc565b5087610e26565b6111bc90853d8711610c6257610c528183611fbc565b508b611104565b6111d990833d8511610c6257610c528183611fbc565b508c61107a565b60646040517f08c379a000000000000000000000000000000000000000000000000000000000815260206004820152601e60248201527f42616c616e636520756e64657220616d6f756e74546f5472616e7366657200006044820152fd5b9150506020813d60201161126b575b8161125a60209383611fbc565b8101031261016d578690518d610ff3565b3d915061124d565b6112a792508564e8d4a510006127108130950204049173ffffffffffffffffffffffffffffffffffffffff60025416612acf565b92610f6b565b6112c791925060203d6020116103e2576103d48183611fbc565b9089610ee3565b60646040517f08c379a000000000000000000000000000000000000000000000000000000000815260206004820152601660248201527f42616c616e636520756e646572205265627579517479000000000000000000006044820152fd5b508564e8d4a5100081020464e8d4a5100014861517156113615764e8d4a51000860261271064e8d4a510008302041115610e21565b7f4e487b71000000000000000000000000000000000000000000000000000000005f52601160045260245ffd5b6040517fa9059cbb00000000000000000000000000000000000000000000000000000000815273ffffffffffffffffffffffffffffffffffffffff8716600482015264e8d4a5100061271093810293909304929092046024830152909250602090839060449082905f905af19182156103e95760019261140f575b50610d5c565b6114279060203d602011610c6257610c528183611fbc565b5087611409565b60646040517f08c379a000000000000000000000000000000000000000000000000000000000815260206004820152601960248201527f496e73756666696369656e7420555344432042616c616e6365000000000000006044820152fd5b9092506020813d6020116114b8575b816114a860209383611fbc565b8101031261016d57519185610d27565b3d915061149b565b3461016d5760607ffffffffffffffffffffffffffffffffffffffffffffffffffffffffffffffffc36011261016d576114f7611ecd565b6114ff611ef0565b90604435801515810361016d576020926115189261253d565b604051908152f35b3461016d5760407ffffffffffffffffffffffffffffffffffffffffffffffffffffffffffffffffc36011261016d57611557611ecd565b60243590811515820361016d576020916115189161242c565b3461016d575f7ffffffffffffffffffffffffffffffffffffffffffffffffffffffffffffffffc36011261016d576115a6612784565b5f73ffffffffffffffffffffffffffffffffffffffff7f9016d09d72d40fdae2fd8ceac6b6234c7706214fd39c1cd1e609a0528c1993008054907fffffffffffffffffffffffff000000000000000000000000000000000000000082169055167f8be0079c531659141344cd1fd0a4f28419497f9722a3daafe3b4186f6b6457e08280a3005b3461016d575f7ffffffffffffffffffffffffffffffffffffffffffffffffffffffffffffffffc36011261016d57602073ffffffffffffffffffffffffffffffffffffffff60075416604051908152f35b3461016d5760a07ffffffffffffffffffffffffffffffffffffffffffffffffffffffffffffffffc36011261016d576116b4611ecd565b6116bc611ef0565b6116c4611f36565b6064356116cf611f59565b916116dc303314156122e5565b6116e782151561234a565b73ffffffffffffffffffffffffffffffffffffffff9384861695604051967f70a082310000000000000000000000000000000000000000000000000000000088523360048901526020978881602481855afa80156103e95786905f906117dd575b611754925010156123af565b6040517f23b872dd00000000000000000000000000000000000000000000000000000000815233600482015230602482015260448101869052908890829060649082905f905af180156103e957611518976117bb9287926117c0575b5060045416836127f4565b612acf565b6117d6908b3d8d11610c6257610c528183611fbc565b508a6117b0565b50508881813d8311611807575b6117f48183611fbc565b8101031261016d57856117549151611748565b503d6117ea565b3461016d575f7ffffffffffffffffffffffffffffffffffffffffffffffffffffffffffffffffc36011261016d5773ffffffffffffffffffffffffffffffffffffffff7f00000000000000000000000000000000000000000000000000000000000000001630036118a35760206040517f360894a13ba1a3210667c828492db98dca3e2076cc3735a920a3ca505d382bbc8152f35b60046040517fe07c8dba000000000000000000000000000000000000000000000000000000008152fd5b60407ffffffffffffffffffffffffffffffffffffffffffffffffffffffffffffffffc36011261016d576118ff611ecd565b602490813567ffffffffffffffff811161016d573660238201121561016d57806004013561192c81611ffd565b9261193a6040519485611fbc565b818452602091828501933687838301011161016d57815f928886930187378601015273ffffffffffffffffffffffffffffffffffffffff807f000000000000000000000000000000000000000000000000000000000000000016803014908115611ba9575b506118a3576119ac612784565b8116936040517f52d1902d0000000000000000000000000000000000000000000000000000000081528381600481895afa5f9181611b7a575b50611a1a578686604051907f4c9c8ce30000000000000000000000000000000000000000000000000000000082526004820152fd5b8590877f360894a13ba1a3210667c828492db98dca3e2076cc3735a920a3ca505d382bbc91828103611b4c5750843b15611b1d5750817fffffffffffffffffffffffff0000000000000000000000000000000000000000825416179055604051907fbc7cd75a20ee27fd9adebab32041f755214dbc6bffa90cc0225b39da2e5c2d3b5f80a2815115611ae957505f61016b9481925190845af4903d15611ae0573d611ac481611ffd565b90611ad26040519283611fbc565b81525f81943d92013e613650565b60609250613650565b935050505034611af557005b807fb398979f0000000000000000000000000000000000000000000000000000000060049252fd5b82604051907f4c9c8ce30000000000000000000000000000000000000000000000000000000082526004820152fd5b604051907faa1d49a40000000000000000000000000000000000000000000000000000000082526004820152fd5b9091508481813d8311611ba2575b611b928183611fbc565b8101031261016d575190886119e5565b503d611b88565b9050817f360894a13ba1a3210667c828492db98dca3e2076cc3735a920a3ca505d382bbc541614158761199f565b3461016d575f7ffffffffffffffffffffffffffffffffffffffffffffffffffffffffffffffffc36011261016d57602073ffffffffffffffffffffffffffffffffffffffff60015416604051908152f35b3461016d5760807ffffffffffffffffffffffffffffffffffffffffffffffffffffffffffffffffc36011261016d57611c5f611ecd565b611c67611ef0565b604435611c72611f13565b90611c7f303314156122e5565b611c8a81151561234a565b73ffffffffffffffffffffffffffffffffffffffff9283851694604051957f70a082310000000000000000000000000000000000000000000000000000000087523360048801526020968781602481855afa80156103e95785905f90611d7f575b611cf7925010156123af565b6040517f23b872dd00000000000000000000000000000000000000000000000000000000815233600482015230602482015260448101859052908790829060649082905f905af180156103e95761151896611d5d928692611d62575060045416836127f4565b612992565b611d78908a3d8c11610c6257610c528183611fbc565b50896117b0565b50508781813d8311611da9575b611d968183611fbc565b8101031261016d5784611cf79151611ceb565b503d611d8c565b3461016d5760607ffffffffffffffffffffffffffffffffffffffffffffffffffffffffffffffffc36011261016d576020611518611dec611ecd565b611df4611ef0565b60443591612166565b3461016d5760207ffffffffffffffffffffffffffffffffffffffffffffffffffffffffffffffffc36011261016d5773ffffffffffffffffffffffffffffffffffffffff611e49611ecd565b611e51612784565b167fffffffffffffffffffffffff000000000000000000000000000000000000000060015416176001555f80f35b3461016d575f7ffffffffffffffffffffffffffffffffffffffffffffffffffffffffffffffffc36011261016d5760209073ffffffffffffffffffffffffffffffffffffffff600154168152f35b6004359073ffffffffffffffffffffffffffffffffffffffff8216820361016d57565b6024359073ffffffffffffffffffffffffffffffffffffffff8216820361016d57565b6064359073ffffffffffffffffffffffffffffffffffffffff8216820361016d57565b6044359073ffffffffffffffffffffffffffffffffffffffff8216820361016d57565b6084359073ffffffffffffffffffffffffffffffffffffffff8216820361016d57565b60a4359073ffffffffffffffffffffffffffffffffffffffff8216820361016d57565b610180810190811067ffffffffffffffff82111761079b57604052565b90601f7fffffffffffffffffffffffffffffffffffffffffffffffffffffffffffffffe0910116810190811067ffffffffffffffff82111761079b57604052565b67ffffffffffffffff811161079b57601f017fffffffffffffffffffffffffffffffffffffffffffffffffffffffffffffffe01660200190565b9181601f8401121561016d5782359167ffffffffffffffff831161016d576020808501948460051b01011161016d57565b9081518082526020808093019301915f5b828110612087575050505090565b835185529381019392810192600101612079565b907fffffffffffffffffffffffffffffffffffffffffffffffffffffffffffffffe0601f602080948051918291828752018686015e5f8582860101520116010190565b9081602091031261016d575160ff8116810361016d5790565b60ff16604d811161136157600a0a90565b8181029291811591840414171561136157565b8115612125570490565b7f4e487b71000000000000000000000000000000000000000000000000000000005f52601260045260245ffd5b9060ff8091169116039060ff821161136157565b6040517f313ce5670000000000000000000000000000000000000000000000000000000080825260209493919273ffffffffffffffffffffffffffffffffffffffff908116928685600481875afa9485156103e9575f956122c6575b5016906040519081528581600481855afa9586156103e9575f9661228d575b50509061220761220c92610db86121f7866120f7565b91612201896120f7565b946124cc565b61211b565b92670de0b6b3a764000093846122228286612108565b049360ff83169160ff8516918383146122795750949550119250612255918315612270579061225091612152565b6120f7565b9015612267576122649161211b565b90565b61226491612108565b61225091612152565b9350935050506122899250612108565b0490565b61220c9392965061220791816122b792903d106122bf575b6122af8183611fbc565b8101906120de565b9591926121e1565b503d6122a5565b6122de919550873d89116122bf576122af8183611fbc565b935f6121c2565b156122ec57565b60646040517f08c379a000000000000000000000000000000000000000000000000000000000815260206004820152600c60248201527f57726f6e672073656e64657200000000000000000000000000000000000000006044820152fd5b1561235157565b60646040517f08c379a000000000000000000000000000000000000000000000000000000000815260206004820152600b60248201527f416d6f756e7420697320300000000000000000000000000000000000000000006044820152fd5b156123b657565b60646040517f08c379a000000000000000000000000000000000000000000000000000000000815260206004820152601460248201527f496e73756666696369656e742042616c616e63650000000000000000000000006044820152fd5b9081602091031261016d5751801515810361016d5790565b602090604473ffffffffffffffffffffffffffffffffffffffff91826006541660405195869485937f7de4fd10000000000000000000000000000000000000000000000000000000008552166004840152151560248301525afa5f9181612498575b5061226457505f90565b9091506020813d6020116124c4575b816124b460209383611fbc565b8101031261016d5751905f61248e565b3d91506124a7565b602090606473ffffffffffffffffffffffffffffffffffffffff9182600654168360405196879586947f802431fb0000000000000000000000000000000000000000000000000000000086521660048501521660248301525f60448301525afa5f9181612498575061226457505f90565b9160646020929373ffffffffffffffffffffffffffffffffffffffff928360065416908460405197889687957f802431fb000000000000000000000000000000000000000000000000000000008752166004860152166024840152151560448301525afa5f9181612498575061226457505f90565b80518210156125c65760209160051b010190565b7f4e487b71000000000000000000000000000000000000000000000000000000005f52603260045260245ffd5b91908110156125c65760051b0190565b3573ffffffffffffffffffffffffffffffffffffffff8116810361016d5790565b9190820180921161136157565b9081602091031261016d575173ffffffffffffffffffffffffffffffffffffffff8116810361016d5790565b9190820391821161136157565b6040519061267782611f9f565b815f81525f60208201525f60408201526101606060915f838201525f60808201525f60a08201525f60c08201528260e08201528261010082015282610120820152826101408201520152565b73ffffffffffffffffffffffffffffffffffffffff809116908115612754577f9016d09d72d40fdae2fd8ceac6b6234c7706214fd39c1cd1e609a0528c199300805490837fffffffffffffffffffffffff00000000000000000000000000000000000000008316179055167f8be0079c531659141344cd1fd0a4f28419497f9722a3daafe3b4186f6b6457e05f80a3565b60246040517f1e4fbdf70000000000000000000000000000000000000000000000000000000081525f6004820152fd5b73ffffffffffffffffffffffffffffffffffffffff7f9016d09d72d40fdae2fd8ceac6b6234c7706214fd39c1cd1e609a0528c199300541633036127c457565b60246040517f118cdaa7000000000000000000000000000000000000000000000000000000008152336004820152fd5b9173ffffffffffffffffffffffffffffffffffffffff8093166040928351947fdd62ed3e00000000000000000000000000000000000000000000000000000000865230600487015281168060248701526020958681604481875afa908115612957579085915f91612961575b501061286f575b505050505050565b84517f095ea7b3000000000000000000000000000000000000000000000000000000009182825260048201525f602482015286816044815f885af18015612957578794926128f9979694925f9261293a575b508651978895869485938452600484016020909392919373ffffffffffffffffffffffffffffffffffffffff60408201951681520152565b03925af19081156129315750612913575b80808080612867565b8161292992903d10610c6257610c528183611fbc565b505f8061290a565b513d5f823e3d90fd5b61295090873d8911610c6257610c528183611fbc565b505f6128c1565b86513d5f823e3d90fd5b809250888092503d831161298b575b61297a8183611fbc565b8101031261016d578490515f612860565b503d612970565b91929092603c4201928342116113615760405192610100840184811067ffffffffffffffff82111761079b5760405273ffffffffffffffffffffffffffffffffffffffff948580931685528260208601971687526040850193610bb885528360608701931683526080860191825260a0860190815260c0860191600183528460e08801945f8652816004541697826040519c8d9c8d9c7f414bf389000000000000000000000000000000000000000000000000000000008e52511660048d0152511660248b01525162ffffff1660448a0152511660648801525160848701525160a48601525160c4850152511660e48301525a925f61010492602095f19081156103e9575f91612aa0575090565b90506020813d602011612ac7575b81612abb60209383611fbc565b8101031261016d575190565b3d9150612aae565b939093929192604051936020957fffffffffffffffffffffffffffffffffffffffff000000000000000000000000809360601b1687870152827e0bb800000000000000000000000000000000000000000000000000000000009182603489015260601b166037870152604b86015260601b16604e84015260428352608083019167ffffffffffffffff938084108585111761079b57603c4201948542116113615761012082019081118582101761079b578694612c0e925f9260405280825261010060a082019173ffffffffffffffffffffffffffffffffffffffff809816835260c08101998a5260e081019687520160018152866004541695604051998a98899788967fc04b8d590000000000000000000000000000000000000000000000000000000088528c60048901525160a0602489015260c488019061209b565b94511660448601525160648501525160848401525160a483015203925af19182156103e9575f92612c3e57505090565b90809250813d8311612c55575b612abb8183611fbc565b503d612c4b565b67ffffffffffffffff811161079b5760051b60200190565b90612c7e82612c5c565b612c8b6040519182611fbc565b8281527fffffffffffffffffffffffffffffffffffffffffffffffffffffffffffffffe0612cb98294612c5c565b0190602036910137565b604d811161136157600a0a90565b7fffffffffffffffffffffffffffffffffffffffffffffffffffffffffffffffff81146113615760010190565b929193949590612d0c61266a565b50612d1681612c5c565b93612d246040519586611fbc565b818552602085018260051b820136811161016d578298979598915b8183106134e4575050505f935f9673ffffffffffffffffffffffffffffffffffffffff60025416955b8751891015612f46578a90602073ffffffffffffffffffffffffffffffffffffffff602481612d978e8e6125b2565b51169460405195869384927f70a082310000000000000000000000000000000000000000000000000000000084521660048301525afa9182156103e9575f92612f12575b50888a8973ffffffffffffffffffffffffffffffffffffffff612dfe83856125b2565b511603612e3357505064e8d4a510009182810292818404149015171561136157600191612e2a91612624565b985b0197612d68565b9260209173ffffffffffffffffffffffffffffffffffffffff612e5f612eba95968260015416936125b2565b5116916040518095819482937f2bdd955a0000000000000000000000000000000000000000000000000000000084526004840190929173ffffffffffffffffffffffffffffffffffffffff6020916040840195845216910152565b03915afa9081156103e9575f91612edf575b50612ed990600192612624565b98612e2c565b90506020813d602011612f0a575b81612efa60209383611fbc565b8101031261016d57516001612ecc565b3d9150612eed565b9091506020813d602011612f3e575b81612f2e60209383611fbc565b8101031261016d5751905f612ddb565b3d9150612f21565b94999750919497909295508560011b97868904600214871517156113615788612f7060e09a612c74565b90612f7a81612c74565b90612f8d612f8782612c74565b91612c74565b91612f978b612c74565b936040519d8e612fa681611f9f565b8d81528b60208201525f60408201525f60608201525f60808201525f60a08201525f60c082015201526101008d01526101208c01526101408b01526101608a01525f9673ffffffffffffffffffffffffffffffffffffffff60015416975b81811061307e575050505050505050505061302860e08201516060830151906135bc565b60e08201526130416101008201516060830151906135bc565b61010082015261305b6101208201516080830151906135bc565b6101208201526130756101408201516080830151906135bc565b61014082015290565b73ffffffffffffffffffffffffffffffffffffffff6130a1610add83858c6125f3565b1690602073ffffffffffffffffffffffffffffffffffffffff60248d60405195869384927f70a082310000000000000000000000000000000000000000000000000000000084521660048301525afa9182156103e95783928d8b925f926134a6575b50610add8460049660209573ffffffffffffffffffffffffffffffffffffffff956131368461016061313c9801516125b2565b526125f3565b16604051938480927f313ce5670000000000000000000000000000000000000000000000000000000082525afa9182156103e9575f92613485575b506131f260208a8c613199610add868961319360ff8b16612cc3565b956125f3565b916040518095819482937f2bdd955a0000000000000000000000000000000000000000000000000000000084526004840190929173ffffffffffffffffffffffffffffffffffffffff6020916040840195845216910152565b03915afa9081156103e95782868f928d88915f96613447575b50610add8473ffffffffffffffffffffffffffffffffffffffff9361322f936125f3565b16036133fd576101606132439201516125b2565b5164e8d4a5100090818102918183041490151715611361575b61326783888b6125f3565b35816127108102046127101482151715611361578e61328b8c61271081950261211b565b828111929083156133ee57906132a09161265d565b915b80806133e5575b15613365575050612710916132bd91612108565b04908d60406132cf8482840151612624565b910152670de0b6b3a764000091828102928184041490151715611361576132f59161211b565b6012908160ff8516810311611361576133366133258f939261331f869460ff600199169003612cc3565b9061211b565b92606060e0820151910151906125b2565b526101008d015160608e015161334b916125b2565b5261335960608d0151612cd1565b60608d01525b01613004565b909193506001955084925015806133dc575b613384575b50505061335f565b806133968460a06133ac940151612624565b60a08201526080610120820151910151906125b2565b526101408d015160808e01516133c1916125b2565b526133cf60808d0151612cd1565b60808d01525f818d61337c565b50888311613377565b508a83116132a9565b6133f79161265d565b916132a2565b61340f906101606134169301516125b2565b5182612108565b601260ff8516810390811161136157670de0b6b3a76400009161343b61344192612cc3565b90612108565b0461325c565b955050505050506020813d60201161347d575b8161346760209383611fbc565b8101031261016d57518c8286868d610add61320b565b3d915061345a565b61349f91925060203d6020116122bf576122af8183611fbc565b905f613177565b94505050506020823d6020116134dc575b816134c460209383611fbc565b8101031261016d57905182919089908d610add613103565b3d91506134b7565b82999698993573ffffffffffffffffffffffffffffffffffffffff8116810361016d5781529598979560209283019201612d3f565b600490602073ffffffffffffffffffffffffffffffffffffffff60015416604051938480927f185fcffe0000000000000000000000000000000000000000000000000000000082525afa9182156103e9575f92613588575b506127109182038281116113615761228991612108565b9091506020813d6020116135b4575b816135a460209383611fbc565b8101031261016d5751905f613571565b3d9150613597565b91906135c781612c74565b905f5b8181106135d8575090925050565b806135e5600192876125b2565b516135f082866125b2565b52016135ca565b60ff7ff0c57e16840df040f15088dc2f81fe391c3923bec73e23a9662efc9c229c6a005460401c161561362657565b60046040517fd7e6bcf8000000000000000000000000000000000000000000000000000000008152fd5b9061368f575080511561366557805190602001fd5b60046040517f1425ea42000000000000000000000000000000000000000000000000000000008152fd5b815115806136e7575b6136a0575090565b60249073ffffffffffffffffffffffffffffffffffffffff604051917f9996b315000000000000000000000000000000000000000000000000000000008352166004820152fd5b50803b1561369856fea26469706673582212205269b5f5a469c825fc0801dd3bb9f5bc4028a625cea6e61a9841f011c33a6c5364736f6c63430008190033",
  "linkReferences": {},
  "deployedLinkReferences": {}
}