{
  "_format": "hh-sol-artifact-1",
  "contractName": "BaluniV1Rebalancer",
  "sourceName": "contracts/BaluniV1Rebalancer.sol",
  "abi": [
    {
      "inputs": [
        {
          "internalType": "address",
          "name": "target",
          "type": "address"
        }
      ],
      "name": "AddressEmptyCode",
      "type": "error"
    },
    {
      "inputs": [
        {
          "internalType": "address",
          "name": "implementation",
          "type": "address"
        }
      ],
      "name": "ERC1967InvalidImplementation",
      "type": "error"
    },
    {
      "inputs": [],
      "name": "ERC1967NonPayable",
      "type": "error"
    },
    {
      "inputs": [],
      "name": "FailedInnerCall",
      "type": "error"
    },
    {
      "inputs": [],
      "name": "InvalidInitialization",
      "type": "error"
    },
    {
      "inputs": [],
      "name": "NotInitializing",
      "type": "error"
    },
    {
      "inputs": [
        {
          "internalType": "address",
          "name": "owner",
          "type": "address"
        }
      ],
      "name": "OwnableInvalidOwner",
      "type": "error"
    },
    {
      "inputs": [
        {
          "internalType": "address",
          "name": "account",
          "type": "address"
        }
      ],
      "name": "OwnableUnauthorizedAccount",
      "type": "error"
    },
    {
      "inputs": [],
      "name": "UUPSUnauthorizedCallContext",
      "type": "error"
    },
    {
      "inputs": [
        {
          "internalType": "bytes32",
          "name": "slot",
          "type": "bytes32"
        }
      ],
      "name": "UUPSUnsupportedProxiableUUID",
      "type": "error"
    },
    {
      "anonymous": false,
      "inputs": [
        {
          "indexed": false,
          "internalType": "uint64",
          "name": "version",
          "type": "uint64"
        }
      ],
      "name": "Initialized",
      "type": "event"
    },
    {
      "anonymous": false,
      "inputs": [
        {
          "indexed": true,
          "internalType": "address",
          "name": "previousOwner",
          "type": "address"
        },
        {
          "indexed": true,
          "internalType": "address",
          "name": "newOwner",
          "type": "address"
        }
      ],
      "name": "OwnershipTransferred",
      "type": "event"
    },
    {
      "anonymous": false,
      "inputs": [
        {
          "indexed": true,
          "internalType": "address",
          "name": "implementation",
          "type": "address"
        }
      ],
      "name": "Upgraded",
      "type": "event"
    },
    {
      "inputs": [],
      "name": "UPGRADE_INTERFACE_VERSION",
      "outputs": [
        {
          "internalType": "string",
          "name": "",
          "type": "string"
        }
      ],
      "stateMutability": "view",
      "type": "function"
    },
    {
      "inputs": [],
      "name": "USDC",
      "outputs": [
        {
          "internalType": "address",
          "name": "",
          "type": "address"
        }
      ],
      "stateMutability": "view",
      "type": "function"
    },
    {
      "inputs": [],
      "name": "WNATIVE",
      "outputs": [
        {
          "internalType": "address",
          "name": "",
          "type": "address"
        }
      ],
      "stateMutability": "view",
      "type": "function"
    },
    {
      "inputs": [],
      "name": "_1InchSpotAgg",
      "outputs": [
        {
          "internalType": "address",
          "name": "",
          "type": "address"
        }
      ],
      "stateMutability": "view",
      "type": "function"
    },
    {
      "inputs": [],
      "name": "baluniFactory",
      "outputs": [
        {
          "internalType": "address",
          "name": "",
          "type": "address"
        }
      ],
      "stateMutability": "view",
      "type": "function"
    },
    {
      "inputs": [],
      "name": "baluniPeriphery",
      "outputs": [
        {
          "internalType": "address",
          "name": "",
          "type": "address"
        }
      ],
      "stateMutability": "view",
      "type": "function"
    },
    {
      "inputs": [],
      "name": "baluniRouter",
      "outputs": [
        {
          "internalType": "address",
          "name": "",
          "type": "address"
        }
      ],
      "stateMutability": "view",
      "type": "function"
    },
    {
      "inputs": [
        {
          "internalType": "address",
          "name": "_newRouter",
          "type": "address"
        }
      ],
      "name": "changeBaluniRouter",
      "outputs": [],
      "stateMutability": "nonpayable",
      "type": "function"
    },
    {
      "inputs": [
        {
          "internalType": "uint256[]",
          "name": "balances",
          "type": "uint256[]"
        },
        {
          "internalType": "address[]",
          "name": "assets",
          "type": "address[]"
        },
        {
          "internalType": "uint256[]",
          "name": "weights",
          "type": "uint256[]"
        },
        {
          "internalType": "uint256",
          "name": "limit",
          "type": "uint256"
        },
        {
          "internalType": "address",
          "name": "sender",
          "type": "address"
        },
        {
          "internalType": "address",
          "name": "baseAsset",
          "type": "address"
        }
      ],
      "name": "checkRebalance",
      "outputs": [
        {
          "components": [
            {
              "internalType": "uint256",
              "name": "length",
              "type": "uint256"
            },
            {
              "internalType": "uint256",
              "name": "totalValue",
              "type": "uint256"
            },
            {
              "internalType": "uint256",
              "name": "finalUsdBalance",
              "type": "uint256"
            },
            {
              "internalType": "uint256",
              "name": "overweightVaultsLength",
              "type": "uint256"
            },
            {
              "internalType": "uint256",
              "name": "underweightVaultsLength",
              "type": "uint256"
            },
            {
              "internalType": "uint256",
              "name": "totalActiveWeight",
              "type": "uint256"
            },
            {
              "internalType": "uint256",
              "name": "amountOut",
              "type": "uint256"
            },
            {
              "internalType": "uint256[]",
              "name": "overweightVaults",
              "type": "uint256[]"
            },
            {
              "internalType": "uint256[]",
              "name": "overweightAmounts",
              "type": "uint256[]"
            },
            {
              "internalType": "uint256[]",
              "name": "underweightVaults",
              "type": "uint256[]"
            },
            {
              "internalType": "uint256[]",
              "name": "underweightAmounts",
              "type": "uint256[]"
            },
            {
              "internalType": "uint256[]",
              "name": "balances",
              "type": "uint256[]"
            }
          ],
          "internalType": "struct IBaluniV1Rebalancer.RebalanceVars",
          "name": "",
          "type": "tuple"
        }
      ],
      "stateMutability": "view",
      "type": "function"
    },
    {
      "inputs": [
        {
          "internalType": "address",
          "name": "fromToken",
          "type": "address"
        },
        {
          "internalType": "address",
          "name": "toToken",
          "type": "address"
        },
        {
          "internalType": "uint256",
          "name": "amount",
          "type": "uint256"
        }
      ],
      "name": "convert",
      "outputs": [
        {
          "internalType": "uint256",
          "name": "",
          "type": "uint256"
        }
      ],
      "stateMutability": "view",
      "type": "function"
    },
    {
      "inputs": [
        {
          "internalType": "address",
          "name": "_baluniRouter",
          "type": "address"
        },
        {
          "internalType": "address",
          "name": "_usdc",
          "type": "address"
        },
        {
          "internalType": "address",
          "name": "_wnative",
          "type": "address"
        },
        {
          "internalType": "address",
          "name": "_uniRouter",
          "type": "address"
        },
        {
          "internalType": "address",
          "name": "_uniFactory",
          "type": "address"
        },
        {
          "internalType": "address",
          "name": "_1InchSpotAggAddress",
          "type": "address"
        }
      ],
      "name": "initialize",
      "outputs": [],
      "stateMutability": "nonpayable",
      "type": "function"
    },
    {
      "inputs": [
        {
          "internalType": "address",
          "name": "token0",
          "type": "address"
        },
        {
          "internalType": "address",
          "name": "token1",
          "type": "address"
        },
        {
          "internalType": "address",
          "name": "token2",
          "type": "address"
        },
        {
          "internalType": "uint256",
          "name": "amount",
          "type": "uint256"
        },
        {
          "internalType": "address",
          "name": "receiver",
          "type": "address"
        }
      ],
      "name": "multiHopSwap",
      "outputs": [
        {
          "internalType": "uint256",
          "name": "amountOut",
          "type": "uint256"
        }
      ],
      "stateMutability": "nonpayable",
      "type": "function"
    },
    {
      "inputs": [],
      "name": "owner",
      "outputs": [
        {
          "internalType": "address",
          "name": "",
          "type": "address"
        }
      ],
      "stateMutability": "view",
      "type": "function"
    },
    {
      "inputs": [],
      "name": "proxiableUUID",
      "outputs": [
        {
          "internalType": "bytes32",
          "name": "",
          "type": "bytes32"
        }
      ],
      "stateMutability": "view",
      "type": "function"
    },
    {
      "inputs": [
        {
          "internalType": "uint256[]",
          "name": "balances",
          "type": "uint256[]"
        },
        {
          "internalType": "address[]",
          "name": "assets",
          "type": "address[]"
        },
        {
          "internalType": "uint256[]",
          "name": "weights",
          "type": "uint256[]"
        },
        {
          "internalType": "uint256",
          "name": "limit",
          "type": "uint256"
        },
        {
          "internalType": "address",
          "name": "sender",
          "type": "address"
        },
        {
          "internalType": "address",
          "name": "receiver",
          "type": "address"
        },
        {
          "internalType": "address",
          "name": "baseAsset",
          "type": "address"
        }
      ],
      "name": "rebalance",
      "outputs": [],
      "stateMutability": "nonpayable",
      "type": "function"
    },
    {
      "inputs": [
        {
          "internalType": "address",
          "name": "_baluniRouter",
          "type": "address"
        },
        {
          "internalType": "address",
          "name": "_usdc",
          "type": "address"
        },
        {
          "internalType": "address",
          "name": "_wnative",
          "type": "address"
        },
        {
          "internalType": "address",
          "name": "_uniRouter",
          "type": "address"
        },
        {
          "internalType": "address",
          "name": "_uniFactory",
          "type": "address"
        },
        {
          "internalType": "address",
          "name": "_1InchSpotAggAddress",
          "type": "address"
        },
        {
          "internalType": "uint64",
          "name": "version",
          "type": "uint64"
        }
      ],
      "name": "reinitialize",
      "outputs": [],
      "stateMutability": "nonpayable",
      "type": "function"
    },
    {
      "inputs": [],
      "name": "renounceOwnership",
      "outputs": [],
      "stateMutability": "nonpayable",
      "type": "function"
    },
    {
      "inputs": [
        {
          "internalType": "address",
          "name": "token0",
          "type": "address"
        },
        {
          "internalType": "address",
          "name": "token1",
          "type": "address"
        },
        {
          "internalType": "uint256",
          "name": "amount",
          "type": "uint256"
        },
        {
          "internalType": "address",
          "name": "receiver",
          "type": "address"
        }
      ],
      "name": "singleSwap",
      "outputs": [
        {
          "internalType": "uint256",
          "name": "amountOut",
          "type": "uint256"
        }
      ],
      "stateMutability": "nonpayable",
      "type": "function"
    },
    {
      "inputs": [
        {
          "internalType": "address",
          "name": "newOwner",
          "type": "address"
        }
      ],
      "name": "transferOwnership",
      "outputs": [],
      "stateMutability": "nonpayable",
      "type": "function"
    },
    {
      "inputs": [],
      "name": "treasury",
      "outputs": [
        {
          "internalType": "address",
          "name": "",
          "type": "address"
        }
      ],
      "stateMutability": "view",
      "type": "function"
    },
    {
      "inputs": [],
      "name": "uniswapFactory",
      "outputs": [
        {
          "internalType": "address",
          "name": "",
          "type": "address"
        }
      ],
      "stateMutability": "view",
      "type": "function"
    },
    {
      "inputs": [],
      "name": "uniswapRouter",
      "outputs": [
        {
          "internalType": "address",
          "name": "",
          "type": "address"
        }
      ],
      "stateMutability": "view",
      "type": "function"
    },
    {
      "inputs": [
        {
          "internalType": "address",
          "name": "newImplementation",
          "type": "address"
        },
        {
          "internalType": "bytes",
          "name": "data",
          "type": "bytes"
        }
      ],
      "name": "upgradeToAndCall",
      "outputs": [],
      "stateMutability": "payable",
      "type": "function"
    }
  ],
  "bytecode": "0x60a0806040523460295730608052612b46908161002e823960805181818161116101526112450152f35b5f80fdfe6080806040526004361015610012575f80fd5b60e05f35811c918263060b5e82146115f25750816312bf2a1c146115af578163196b7a5f14611587578163248391ff146115585781632d6bc8ea1461143d57816339b65140146114155781634f1ef286146111cb57816352d1902d1461114f5781635efaaebb1461102457816361d027b314610ffc578163715018a614610f95578163735de9f714610f6e57816389a3027114610f465781638bdb2afa14610f1e5781638da5cb5b14610eea578163997146f514610d90578163ad3cb1cc14610d21578163b0d60ba014610b7c578163b381cf4014610b54578163cc2a9a5b14610930578163eb06b29d14610908578163f0bf77141461014a575063f2fde38b1461011b575f80fd5b3461014657602036600319011261014657610144610137611615565b61013f611c4d565b611bdc565b005b5f80fd5b346101465780600319360112610146576001600160401b03906004358281116101465761017b903690600401611708565b9160243581811161014657610194903690600401611768565b91604435908111610146576101ad903690600401611768565b6101b892919261166d565b956101c1611683565b9360c435916001600160a01b0383168303610146576101ea938992888760649b999b3594611fe5565b9261010084019284015f5b8151518110156103d25761020a818651611b76565b5161021a575b6001905b016101f5565b61023861023361022b838551611b76565b518587611b9e565b611bae565b9061024881610160890151611b76565b51610254828851611b76565b511161038f5785516001600160a01b03831690610272908390611b76565b516040516323b872dd60e01b81526001600160a01b038c166004820152306024820152604481019190915292602080856064815f875af194851561038457600195610356575b50506006848060a01b0381541680841461034d57858060a01b03600754168094145f1461031c57506103039250848060a01b039054169030916102fc858b51611b76565b5191611c85565b61031260c08901918251611bc2565b90525b9050610210565b610337939291503092610330868c51611b76565b5192611e44565b61034660c08901918251611bc2565b9052610315565b50505050610214565b8161037592903d1061037d575b61036d81836116b5565b810190611ae6565b508b806102b8565b503d610363565b6040513d5f823e3d90fd5b606460405162461bcd60e51b8152602080600483015260248201527f42616c616e636520756e646572206f76657277656967687420616d6f756e74736044820152fd5b602483878987602060018060a01b0360065416604051968780926370a0823160e01b82523060048301525afa948515610384575f956108d4575b5060c0830151851061088f575f5b610120840151518110156101445761043781610140860151611b76565b51610447575b6001905b0161041a565b61046461023361045c83610120880151611b76565b518785611b9e565b9061047481610140870151611b76565b51612710810290808204612710149015171561080c578761049d6104a29260a08901519061182c565b611819565b8064e8d4a5100081020464e8d4a51000148115171561080c5764e8d4a5100061271091020460018060a01b03600654168060018060a01b038516146108205750801515806107e9575b6104f8575b50905061043d565b64e8d4a51000810488106107ab57600780549091906001600160a01b0390811690851681036107825750600654915461054892309264e8d4a510009004916001600160a01b039081169116611c85565b915b8260c087015261056361055c84612735565b8094611bcf565b61057661056f82612735565b8092611bcf565b6040516370a0823160e01b81523060048201529091906020816024816001600160a01b0388165afa80156103845786915f9161074d575b50106107085760405163a9059cbb60e01b81526001600160a01b03881660048201526024810195909552602085806044810103815f6001600160a01b0388165af190811561038457610636956020926106eb575b5060055460405163a9059cbb60e01b81526001600160a01b039091166004820152602481019190915294859081906044820190565b03815f6001600160a01b0387165af191821561038457610693946020936106ce575b5060095460405163a9059cbb60e01b81526001600160a01b0390911660048201526024810192909252909384919082905f9082906044820190565b03926001600160a01b03165af191821561038457600192156104f0576106c79060203d60201161037d5761036d81836116b5565b50876104f0565b6106e490843d861161037d5761036d81836116b5565b508a610658565b61070190833d851161037d5761036d81836116b5565b508b610601565b60405162461bcd60e51b815260206004820152601e60248201527f42616c616e636520756e64657220616d6f756e74546f5472616e7366657200006044820152606490fd5b9150506020813d60201161077a575b81610769602093836116b5565b81010312610146578590518c6105ad565b3d915061075c565b6006546107a59350309264e8d4a5100090049186916001600160a01b0316611e44565b9161054a565b60405162461bcd60e51b815260206004820152601660248201527542616c616e636520756e64657220526562757951747960501b6044820152606490fd5b5064e8d4a51000880288810464e8d4a51000148915171561080c578111156104eb565b634e487b7160e01b5f52601160045260245ffd5b60405163a9059cbb60e01b81526001600160a01b038716600482015264e8d4a510009092046024830152909250602090839060449082905f905af191821561038457600192610870575b50610441565b6108889060203d60201161037d5761036d81836116b5565b508761086a565b60405162461bcd60e51b815260206004820152601960248201527f496e73756666696369656e7420555344432042616c616e6365000000000000006044820152606490fd5b9094506020813d602011610900575b816108f0602093836116b5565b810103126101465751938561040c565b3d91506108e3565b34610146575f366003190112610146576008546040516001600160a01b039091168152602090f35b346101465760c036600319011261014657610949611615565b61095161162b565b610959611657565b91610962611641565b61096a61166d565b91610973611683565b947ff0c57e16840df040f15088dc2f81fe391c3923bec73e23a9662efc9c229c6a009586549160ff8360401c1615966001600160401b03841680159081610b4c575b6001149081610b42575b159081610b39575b50610b275767ffffffffffffffff198416600117895560049460209489610b08575b506109f2612a4c565b6109fa612a4c565b610a02612a4c565b610a0b33611bdc565b60018060a01b03809881809981809781976001600160601b0360a01b9e8f9116906006541617600655168c6007541617600755168a5f5416175f551688600154161760015516918287600554161760055516856008541617600855604051928380926361d027b360e01b82525afa908115610384575f91610ad9575b501690600954161760095564e8d4a51000600455610aa157005b60ff60401b1981541690557fc7f505b2f371ae2175ee4913f4499e1f2633a7b5936321eed1cdaeb6115181d2602060405160018152a1005b610afb915060203d602011610b01575b610af381836116b5565b810190611b57565b85610a87565b503d610ae9565b68ffffffffffffffffff191668010000000000000001178a558a6109e9565b60405163f92ee8a960e01b8152600490fd5b9050158a6109c7565b303b1591506109bf565b8991506109b5565b34610146575f366003190112610146576007546040516001600160a01b039091168152602090f35b346101465736600319011261014657610b93611615565b610b9b61162b565b610ba3611657565b90610bac611641565b610bb461166d565b93610bbd611683565b9260c435936001600160401b0390818616809603610146577ff0c57e16840df040f15088dc2f81fe391c3923bec73e23a9662efc9c229c6a00948554928760ff8560401c16918215610d14575b5050610b2757600497680100000000000000008860209568ffffffffffffffffff191617179586885560018060a01b03809b818095818096816001600160601b0360a01b9c168c6006541617600655168a600754161760075516885f5416175f551686600154161760015516918285600554161760055516836008541617600855604051968780926361d027b360e01b82525afa958615610384577fc7f505b2f371ae2175ee4913f4499e1f2633a7b5936321eed1cdaeb6115181d2966020965f91610cf7575b501690600954161760095564e8d4a5100060045560ff60401b19169055604051908152a1005b610d0e9150873d8911610b0157610af381836116b5565b88610cd1565b851610159050878b610c0a565b34610146575f3660031901126101465760405160408101908082106001600160401b03831117610d7c57610d789160405260058152640352e302e360dc1b60208201526040519182916020835260208301906117cb565b0390f35b634e487b7160e01b5f52604160045260245ffd5b346101465760c0366003190112610146576001600160401b0360043581811161014657610dc1903690600401611708565b60243582811161014657610dd9903690600401611768565b909160443593841161014657610df6610e1b943690600401611768565b90610dff61166d565b93610e08611683565b95610e11611afe565b5060643594611fe5565b90610d786040519283926020845281516020850152602082015160408501526040820151606085015260608201516080850152608082015160a085015260a082015160c085015260c082015181850152810151610180610e886101009282848801526101a0870190611798565b91830151610ed9610ec2610eab601f199561012094878b830301868c0152611798565b928601519261014093868a830301858b0152611798565b9185015191610160928589830301848a0152611798565b930151918584030190850152611798565b34610146575f366003190112610146575f80516020612af1833981519152546040516001600160a01b039091168152602090f35b34610146575f366003190112610146576001546040516001600160a01b039091168152602090f35b34610146575f366003190112610146576006546040516001600160a01b039091168152602090f35b34610146575f366003190112610146575f546040516001600160a01b039091168152602090f35b34610146575f36600319011261014657610fad611c4d565b5f80516020612af183398151915280546001600160a01b031981169091555f906001600160a01b03167f8be0079c531659141344cd1fd0a4f28419497f9722a3daafe3b4186f6b6457e08280a3005b34610146575f366003190112610146576009546040516001600160a01b039091168152602090f35b346101465760a03660031901126101465761103d611615565b61104561162b565b61104d611657565b60643561105861166d565b9161106530331415611a2e565b611070821515611a69565b6040516370a0823160e01b81523360048201526020956001600160a01b038116959187816024818a5afa80156103845785905f9061111e575b6110b592501015611aa3565b6040516323b872dd60e01b815233600482015230602482015260448101859052958790879060649082905f905af1958615610384576110f996611101575b50611e44565b604051908152f35b61111790883d8a1161037d5761036d81836116b5565b50876110f3565b50508781813d8311611148575b61113581836116b5565b8101031261014657846110b591516110a9565b503d61112b565b34610146575f366003190112610146577f00000000000000000000000000000000000000000000000000000000000000006001600160a01b031630036111b95760206040517f360894a13ba1a3210667c828492db98dca3e2076cc3735a920a3ca505d382bbc8152f35b60405163703e46dd60e11b8152600490fd5b6040366003190112610146576111df611615565b60249081356001600160401b038111610146573660238201121561014657806004013561120b816116d6565b9261121960405194856116b5565b818452602091828501933687838301011161014657815f92888693018737860101526001600160a01b037f000000000000000000000000000000000000000000000000000000000000000081163081149081156113e7575b506111b95761127e611c4d565b8116936040516352d1902d60e01b81528381600481895afa5f91816113b8575b506112bb57604051634c9c8ce360e01b8152600481018790528790fd5b8590877f360894a13ba1a3210667c828492db98dca3e2076cc3735a920a3ca505d382bbc918281036113a35750843b1561138d575080546001600160a01b03191682179055604051907fbc7cd75a20ee27fd9adebab32041f755214dbc6bffa90cc0225b39da2e5c2d3b5f80a281511561137257505f6101449481925190845af4903d15611369573d61134d816116d6565b9061135b60405192836116b5565b81525f81943d92013e612a8d565b60609250612a8d565b93505050503461137e57005b63b398979f60e01b8152600490fd5b604051634c9c8ce360e01b815260048101849052fd5b60405190632a87526960e21b82526004820152fd5b9091508481813d83116113e0575b6113d081836116b5565b810103126101465751908861129e565b503d6113c6565b9050817f360894a13ba1a3210667c828492db98dca3e2076cc3735a920a3ca505d382bbc5416141587611271565b34610146575f366003190112610146576005546040516001600160a01b039091168152602090f35b3461014657608036600319011261014657611456611615565b61145e61162b565b604435611469611641565b9061147630331415611a2e565b611481811515611a69565b6040516370a0823160e01b81523360048201526020946001600160a01b03811694918681602481895afa80156103845784905f90611527575b6114c692501015611aa3565b6040516323b872dd60e01b815233600482015230602482015260448101849052948690869060649082905f905af1948515610384576110f99561150a575b50611c85565b61152090873d891161037d5761036d81836116b5565b5086611504565b50508681813d8311611551575b61153e81836116b5565b8101031261014657836114c691516114ba565b503d611534565b346101465760603660031901126101465760206110f9611576611615565b61157e61162b565b6044359161185e565b34610146575f366003190112610146576003546040516001600160a01b039091168152602090f35b34610146576020366003190112610146576115c8611615565b6115d0611c4d565b600580546001600160a01b0319166001600160a01b0392909216919091179055005b34610146575f366003190112610146576002546001600160a01b03168152602090f35b600435906001600160a01b038216820361014657565b602435906001600160a01b038216820361014657565b606435906001600160a01b038216820361014657565b604435906001600160a01b038216820361014657565b608435906001600160a01b038216820361014657565b60a435906001600160a01b038216820361014657565b61018081019081106001600160401b03821117610d7c57604052565b90601f801991011681019081106001600160401b03821117610d7c57604052565b6001600160401b038111610d7c57601f01601f191660200190565b6001600160401b038111610d7c5760051b60200190565b9080601f83011215610146576020908235611722816116f1565b9361173060405195866116b5565b81855260208086019260051b82010192831161014657602001905b828210611759575050505090565b8135815290830190830161174b565b9181601f84011215610146578235916001600160401b038311610146576020808501948460051b01011161014657565b9081518082526020808093019301915f5b8281106117b7575050505090565b8351855293810193928101926001016117a9565b805180835260209291819084018484015e5f828201840152601f01601f1916010190565b90816020910312610146575160ff811681036101465790565b60ff16604d811161080c57600a0a90565b8181029291811591840414171561080c57565b8115611836570490565b634e487b7160e01b5f52601260045260245ffd5b9060ff8091169116039060ff821161080c57565b6040805163313ce56760e01b808252949390926020926001600160a01b039290918316908486600481855afa958615611a03575f96611a0d575b5083169382519788528088600481885afa978815611a03575f986119d4575b50806118c287611808565b9560646118ce8b611808565b9660085416948651958693849263802431fb60e01b8452600484015260248301525f60448301525afa9283156119cb57505f9261199b575b505061191a9261191591611819565b61182c565b92670de0b6b3a764000093846119308286611819565b049360ff83169160ff851691838314611987575094955011925061196391831561197e579061195e9161184a565b611808565b9015611975576119729161182c565b90565b61197291611819565b61195e9161184a565b9350935050506119979250611819565b0490565b90809250813d83116119c4575b6119b281836116b5565b81010312610146575182611915611906565b503d6119a8565b513d5f823e3d90fd5b816119f59299503d8a116119fc575b6119ed81836116b5565b8101906117ef565b965f6118b7565b503d6119e3565b83513d5f823e3d90fd5b84919650611a2790863d88116119fc576119ed81836116b5565b9590611898565b15611a3557565b60405162461bcd60e51b815260206004820152600c60248201526b2bb937b7339039b2b73232b960a11b6044820152606490fd5b15611a7057565b60405162461bcd60e51b815260206004820152600b60248201526a0416d6f756e7420697320360ac1b6044820152606490fd5b15611aaa57565b60405162461bcd60e51b8152602060048201526014602482015273496e73756666696369656e742042616c616e636560601b6044820152606490fd5b90816020910312610146575180151581036101465790565b60405190611b0b82611699565b815f81525f60208201525f60408201526101606060915f838201525f60808201525f60a08201525f60c08201528260e08201528261010082015282610120820152826101408201520152565b9081602091031261014657516001600160a01b03811681036101465790565b8051821015611b8a5760209160051b010190565b634e487b7160e01b5f52603260045260245ffd5b9190811015611b8a5760051b0190565b356001600160a01b03811681036101465790565b9190820180921161080c57565b9190820391821161080c57565b6001600160a01b03908116908115611c35575f80516020612af183398151915280546001600160a01b031981168417909155167f8be0079c531659141344cd1fd0a4f28419497f9722a3daafe3b4186f6b6457e05f80a3565b604051631e4fbdf760e01b81525f6004820152602490fd5b5f80516020612af1833981519152546001600160a01b03163303611c6d57565b60405163118cdaa760e01b8152336004820152602490fd5b6002545f946001600160a01b0394918516939192611ca48486836127b5565b60408051631ba0488760e21b81526001600160a01b0383811660048301528581166024830152604482018790528416606482015290976020969091908790829060849082905f905af15f9181611e15575b50611dff575050611d0a84875f5416836127b5565b8651926101008401928484106001600160401b03851117610d7c5786958880948b968752168652838787019316835284860191610bb8835284606088019116815284608088019142835260a0890193845260c08901945f86528260e08b01975f8952815f54169a519e8f9c8d63414bf38960e01b9052511660048d0152511660248b01525162ffffff1660448a0152511660648801525160848701525160a48601525160c4850152511660e4830152815a610104925f91f19283156119cb57505f92611dd557505090565b90809250813d8311611df8575b611dec81836116b5565b81010312610146575190565b503d611de2565b9650979650505050505080611e115750565b9150565b9091508781813d8311611e3d575b611e2d81836116b5565b810103126101465751905f611cf5565b503d611e23565b6002546001600160a01b03169493929190611e608487836127b5565b604051631ba0488760e21b8082526001600160a01b038381166004840152841660248301526044820186905230606483015260209182816084815f8d5af15f9181611f68575b50611eb85750505061197295506128fe565b8015611f5b576040519182526001600160a01b0385811660048401528681166024840152604483019190915287166064820152968190889060849082905f905af19687915f98611f2b575b5050611f135761197295506128fe565b8515611f2157505050505090565b61197295506128fe565b9080929850813d8311611f54575b611f4381836116b5565b810103126101465751955f80611f03565b503d611f39565b50505061197295506128fe565b9091508381813d8311611f90575b611f8081836116b5565b810103126101465751905f611ea6565b503d611f76565b90611fa1826116f1565b611fae60405191826116b5565b8281528092611fbf601f19916116f1565b0190602036910137565b604d811161080c57600a0a90565b5f19811461080c5760010190565b919792949796909396611ff6611afe565b50825115612694575b612008816116f1565b9561201660405197886116b5565b818752602087018260051b870136811161014657879a9b97915b81831061266c5750506006545f9b6001600160a01b039091169791508b5b89518d10156121cf576001600160a01b036120698e8c611b76565b516040516370a0823160e01b81526001600160a01b038e1660048201529160209183916024918391165afa908115610384575f9161219d575b508d8a6001600160a01b036120b7838f611b76565b5116036120ec575064e8d4a5100091818381020483148215171561080c576001926120e3920290611bc2565b9c5b019b61204e565b612145916020918d61211060018060a01b03600554169260018060a01b0392611b76565b516040516315eecaad60e11b81526004810194909452166001600160a01b031660248301529092839190829081906044820190565b03915afa908115610384575f9161216a575b5061216490600192611bc2565b9c6120e5565b90506020813d602011612195575b81612185602093836116b5565b8101031261014657516001612157565b3d9150612178565b90506020813d6020116121c7575b816121b8602093836116b5565b8101031261014657515f6120a2565b3d91506121ab565b975093985093989196509398508560011b978689046002148715171561080c57886121fb60c09a611f97565b9061220581611f97565b61221761221183611f97565b92611f97565b926122218b611f97565b505f6040519d8e61223181611699565b8d81528c60208201528260408201528260608201528260808201528260a0820152015260e08d01526101008c01526101208b01526101408a01526101608901525f9660018060a01b0360055416975b8781106122f9575050505050505050506122a360e0820151606083015190612a11565b60e08201526122bc610100820151606083015190612a11565b6101008201526122d6610120820151608083015190612a11565b6101208201526122f0610140820151608083015190612a11565b61014082015290565b60049060206001600160a01b03612314610233848d89611b9e565b166040519384809263313ce56760e01b82525afa918215610384575f9261264b575b5061238b60208a8c6123586102338661235160ff8a16611fc9565b948b611b9e565b6040516315eecaad60e11b815260048101939093526001600160a01b031660248301529092839190829081906044820190565b03915afa908115610384575f91612619575b506123ac610233838c88611b9e565b6001600160a01b03808616918e91879186918f918b911686036125eb57505050505060206004916040519283809263313ce56760e01b82525afa908115610384575f916125cc575b506012908160ff821681031161080c57612427848f9261241f61242d9560ff61016093169003611fc9565b930151611b76565b51611819565b61243883888b611b9e565b3581612710810204612710148215171561080c578d61245c8c61271081950261182c565b91808311156125bc5761246f8184611bcf565b925b818111806125b3575b15612534575050506127109161248f91611819565b04908c60406124a18482840151611bc2565b910152670de0b6b3a76400009182810292818404149015171561080c576124c79161182c565b6012908160ff851681031161080c576124ea6124f09260ff600196169003611fc9565b9061182c565b816125058d606060e082015191015190611b76565b526101008c015160608d015161251a91611b76565b5261252860608c0151611fd7565b60608c01525b01612280565b919350919350600195501115806125aa575b612552575b505061252e565b8160a0612560920151611bc2565b60a08d01528161257b8d608061012082015191015190611b76565b526101408c015160808d015161259091611b76565b5261259e60808c0151611fd7565b60808c01525f8b61254b565b50878211612546565b508b841161247a565b6125c68382611bcf565b92612471565b6125e5915060203d6020116119fc576119ed81836116b5565b5f6123f4565b61261495506126056102338461260d959461016094611b9e565b940151611b76565b519161185e565b61242d565b90506020813d602011612643575b81612634602093836116b5565b8101031261014657515f61239d565b3d9150612627565b61266591925060203d6020116119fc576119ed81836116b5565b905f612336565b979b9a9782356001600160a01b03811681036101465781529a9b979a60209283019201612030565b5f5b8181106126a35750611fff565b6001600160a01b0390816126bb61023383868b611b9e565b604080516370a0823160e01b8152948c16600486015291602091829186916024918391165afa9182156119cb57505f91612706575b50600192506126ff8287611b76565b5201612696565b905082813d831161272e575b61271c81836116b5565b8101031261014657600191515f6126f0565b503d612712565b60055460405163b9f5e61760e01b81529190602090839060049082906001600160a01b03165afa918215610384575f92612781575b5061271091820382811161080c5761199791611819565b9091506020813d6020116127ad575b8161279d602093836116b5565b810103126101465751905f61276a565b3d9150612790565b9160018060a01b03809316604092835194636eb1769f60e11b865230600487015281168060248701526020958681604481875afa9081156128c3579085915f916128cd575b5010612809575b505050505050565b845163095ea7b360e01b9182825260048201525f602482015286816044815f885af180156128c35787949261286e979694925f926128a6575b5086519081526001600160a01b0390921660048301526024820193909352948592839182906044820190565b03925af19081156119cb5750612888575b80808080612801565b8161289e92903d1061037d5761036d81836116b5565b505f8061287f565b6128bc90873d891161037d5761036d81836116b5565b505f612842565b86513d5f823e3d90fd5b809250888092503d83116128f7575b6128e681836116b5565b81010312610146578490515f6127fa565b503d6128dc565b9093919260018060a01b039161291882845f5416836127b5565b604051946020966001600160601b0319809360601b16888801528261017760eb1b918260348a015260601b166037880152604b87015260601b16604e8501526042845260808401926001600160401b0385851081861117610d7c57610120860190811185821017610d7c5786946129e1925f926040528782528560a089019116815261010060c0890198428a5260e08101968752018381528684541695604051998a988997889663c04b8d5960e01b88528c60048901525160a0602489015260c48801906117cb565b94511660448601525160648501525160848401525160a483015203925af1918215610384575f92611dd557505090565b9190612a1c81611f97565b905f5b818110612a2d575090925050565b80612a3a60019287611b76565b51612a458286611b76565b5201612a1f565b60ff7ff0c57e16840df040f15088dc2f81fe391c3923bec73e23a9662efc9c229c6a005460401c1615612a7b57565b604051631afcd79f60e31b8152600490fd5b90612ab45750805115612aa257805190602001fd5b604051630a12f52160e11b8152600490fd5b81511580612ae7575b612ac5575090565b604051639996b31560e01b81526001600160a01b039091166004820152602490fd5b50803b15612abd56fe9016d09d72d40fdae2fd8ceac6b6234c7706214fd39c1cd1e609a0528c199300a2646970667358221220c79ee644a17d048661d298b7e26931e9a3a9168092a10aa0284ee10165aefd8c64736f6c63430008190033",
  "linkReferences": {},
  "deployedLinkReferences": {}
}