{
  "_format": "hh-sol-artifact-1",
  "contractName": "BaluniV1Rebalancer",
  "sourceName": "contracts/managers/BaluniV1Rebalancer.sol",
  "abi": [
    {
      "inputs": [
        {
          "internalType": "address",
          "name": "target",
          "type": "address"
        }
      ],
      "name": "AddressEmptyCode",
      "type": "error"
    },
    {
      "inputs": [
        {
          "internalType": "address",
          "name": "implementation",
          "type": "address"
        }
      ],
      "name": "ERC1967InvalidImplementation",
      "type": "error"
    },
    {
      "inputs": [],
      "name": "ERC1967NonPayable",
      "type": "error"
    },
    {
      "inputs": [],
      "name": "FailedInnerCall",
      "type": "error"
    },
    {
      "inputs": [],
      "name": "InvalidInitialization",
      "type": "error"
    },
    {
      "inputs": [],
      "name": "NotInitializing",
      "type": "error"
    },
    {
      "inputs": [
        {
          "internalType": "address",
          "name": "owner",
          "type": "address"
        }
      ],
      "name": "OwnableInvalidOwner",
      "type": "error"
    },
    {
      "inputs": [
        {
          "internalType": "address",
          "name": "account",
          "type": "address"
        }
      ],
      "name": "OwnableUnauthorizedAccount",
      "type": "error"
    },
    {
      "inputs": [],
      "name": "UUPSUnauthorizedCallContext",
      "type": "error"
    },
    {
      "inputs": [
        {
          "internalType": "bytes32",
          "name": "slot",
          "type": "bytes32"
        }
      ],
      "name": "UUPSUnsupportedProxiableUUID",
      "type": "error"
    },
    {
      "anonymous": false,
      "inputs": [
        {
          "indexed": false,
          "internalType": "uint64",
          "name": "version",
          "type": "uint64"
        }
      ],
      "name": "Initialized",
      "type": "event"
    },
    {
      "anonymous": false,
      "inputs": [
        {
          "indexed": true,
          "internalType": "address",
          "name": "previousOwner",
          "type": "address"
        },
        {
          "indexed": true,
          "internalType": "address",
          "name": "newOwner",
          "type": "address"
        }
      ],
      "name": "OwnershipTransferred",
      "type": "event"
    },
    {
      "anonymous": false,
      "inputs": [
        {
          "indexed": true,
          "internalType": "address",
          "name": "implementation",
          "type": "address"
        }
      ],
      "name": "Upgraded",
      "type": "event"
    },
    {
      "inputs": [],
      "name": "UPGRADE_INTERFACE_VERSION",
      "outputs": [
        {
          "internalType": "string",
          "name": "",
          "type": "string"
        }
      ],
      "stateMutability": "view",
      "type": "function"
    },
    {
      "inputs": [
        {
          "internalType": "uint256[]",
          "name": "balances",
          "type": "uint256[]"
        },
        {
          "internalType": "address[]",
          "name": "assets",
          "type": "address[]"
        },
        {
          "internalType": "uint256[]",
          "name": "weights",
          "type": "uint256[]"
        },
        {
          "internalType": "uint256",
          "name": "limit",
          "type": "uint256"
        },
        {
          "internalType": "address",
          "name": "sender",
          "type": "address"
        },
        {
          "internalType": "address",
          "name": "baseAsset",
          "type": "address"
        }
      ],
      "name": "checkRebalance",
      "outputs": [
        {
          "components": [
            {
              "internalType": "uint256",
              "name": "length",
              "type": "uint256"
            },
            {
              "internalType": "uint256",
              "name": "totalValue",
              "type": "uint256"
            },
            {
              "internalType": "uint256[]",
              "name": "valuations",
              "type": "uint256[]"
            },
            {
              "internalType": "uint256",
              "name": "finalUsdBalance",
              "type": "uint256"
            },
            {
              "internalType": "uint256",
              "name": "overweightVaultsLength",
              "type": "uint256"
            },
            {
              "internalType": "uint256",
              "name": "underweightVaultsLength",
              "type": "uint256"
            },
            {
              "internalType": "uint256",
              "name": "totalActiveWeight",
              "type": "uint256"
            },
            {
              "internalType": "uint256",
              "name": "amountOut",
              "type": "uint256"
            },
            {
              "internalType": "uint256[]",
              "name": "overweightVaults",
              "type": "uint256[]"
            },
            {
              "internalType": "uint256[]",
              "name": "overweightAmounts",
              "type": "uint256[]"
            },
            {
              "internalType": "uint256[]",
              "name": "underweightVaults",
              "type": "uint256[]"
            },
            {
              "internalType": "uint256[]",
              "name": "underweightAmounts",
              "type": "uint256[]"
            },
            {
              "internalType": "uint256[]",
              "name": "balances",
              "type": "uint256[]"
            }
          ],
          "internalType": "struct BaluniV1Rebalancer.RebalanceVars",
          "name": "",
          "type": "tuple"
        }
      ],
      "stateMutability": "view",
      "type": "function"
    },
    {
      "inputs": [
        {
          "internalType": "address",
          "name": "_registry",
          "type": "address"
        }
      ],
      "name": "initialize",
      "outputs": [],
      "stateMutability": "nonpayable",
      "type": "function"
    },
    {
      "inputs": [],
      "name": "owner",
      "outputs": [
        {
          "internalType": "address",
          "name": "",
          "type": "address"
        }
      ],
      "stateMutability": "view",
      "type": "function"
    },
    {
      "inputs": [],
      "name": "proxiableUUID",
      "outputs": [
        {
          "internalType": "bytes32",
          "name": "",
          "type": "bytes32"
        }
      ],
      "stateMutability": "view",
      "type": "function"
    },
    {
      "inputs": [
        {
          "internalType": "uint256[]",
          "name": "balances",
          "type": "uint256[]"
        },
        {
          "internalType": "address[]",
          "name": "assets",
          "type": "address[]"
        },
        {
          "internalType": "uint256[]",
          "name": "weights",
          "type": "uint256[]"
        },
        {
          "internalType": "uint256",
          "name": "limit",
          "type": "uint256"
        },
        {
          "internalType": "address",
          "name": "sender",
          "type": "address"
        },
        {
          "internalType": "address",
          "name": "receiver",
          "type": "address"
        },
        {
          "internalType": "address",
          "name": "baseAsset",
          "type": "address"
        }
      ],
      "name": "rebalance",
      "outputs": [],
      "stateMutability": "nonpayable",
      "type": "function"
    },
    {
      "inputs": [],
      "name": "registry",
      "outputs": [
        {
          "internalType": "contract IBaluniV1Registry",
          "name": "",
          "type": "address"
        }
      ],
      "stateMutability": "view",
      "type": "function"
    },
    {
      "inputs": [
        {
          "internalType": "address",
          "name": "_registry",
          "type": "address"
        },
        {
          "internalType": "uint64",
          "name": "version",
          "type": "uint64"
        }
      ],
      "name": "reinitialize",
      "outputs": [],
      "stateMutability": "nonpayable",
      "type": "function"
    },
    {
      "inputs": [],
      "name": "renounceOwnership",
      "outputs": [],
      "stateMutability": "nonpayable",
      "type": "function"
    },
    {
      "inputs": [
        {
          "internalType": "address",
          "name": "newOwner",
          "type": "address"
        }
      ],
      "name": "transferOwnership",
      "outputs": [],
      "stateMutability": "nonpayable",
      "type": "function"
    },
    {
      "inputs": [
        {
          "internalType": "address",
          "name": "newImplementation",
          "type": "address"
        },
        {
          "internalType": "bytes",
          "name": "data",
          "type": "bytes"
        }
      ],
      "name": "upgradeToAndCall",
      "outputs": [],
      "stateMutability": "payable",
      "type": "function"
    }
  ],
  "bytecode": "0x60a0806040523460295730608052612f66908161002e8239608051818181611bcc0152611cc20152f35b5f80fdfe60c06040526004361015610011575f80fd5b5f3560e01c80634f1ef28614611c4657806352d1902d14611bb2578063715018a614611b215780637b10399914611afc5780638da5cb5b14611ab75780638f2248bc1461198e578063997146f51461170e578063ad3cb1cc1461163d578063c4d66de814611478578063f0bf7714146100c15763f2fde38b14610092575f80fd5b346100bd5760206003193601126100bd576100bb6100ae611f25565b6100b66123d7565b612323565b005b5f80fd5b346100bd5760e06003193601126100bd5767ffffffffffffffff6004358181116100bd576100f3903690600401612017565b906024358181116100bd5761010c903690600401612077565b916044359081116100bd57610125903690600401612077565b909361012f611f3b565b94610138611f51565b916001600160a01b0360c4351660c435036100bd5760049360206001600160a01b035f5416604051968780927f6c9c00780000000000000000000000000000000000000000000000000000000082525afa94851561052b575f95611457575b5086156113f95786825103611375578681036112f257815115611236575b906101ca929160c43592888860643594612480565b925f5b610100850151518110156108af576101ea816101208701516121db565b516101fa575b6001905b016101cd565b61021c61021761020f836101008901516121db565b51888561218a565b6121c7565b906001600160a01b0360c435166001600160a01b038316146107e957610257610180870151610250836101008a01516121db565b51906121db565b51610267826101208901516121db565b5111610765576040517fdd62ed3e0000000000000000000000000000000000000000000000000000000081526001600160a01b03891660048201523060248201526020816044816001600160a01b0387165afa90811561052b575f91610733575b506102d8826101208901516121db565b51116106af5761034260206102f2836101208a01516121db565b516040517f23b872dd0000000000000000000000000000000000000000000000000000000081526001600160a01b038c166004820152306024820152604481019190915291829081906064820190565b03815f6001600160a01b0388165af1801561052b57610690575b50600460206001600160a01b035f5416604051928380927f82755ebb0000000000000000000000000000000000000000000000000000000082525afa90811561052b575f91610661575b5061040560206103bb846101208b01516121db565b516040517f095ea7b30000000000000000000000000000000000000000000000000000000081526001600160a01b0385166004820152602481019190915291829081906044820190565b03815f6001600160a01b0389165af1801561052b57610632575b506001600160a01b0386166001600160a01b038416145f14610546576104c992602091610451846101208b01516121db565b516101408a015151610536575f6001600160a01b0389945b6040517f2d6bc8ea0000000000000000000000000000000000000000000000000000000081526001600160a01b03918216600482015260c43582166024820152604481019490945290941660648301529095869384929183906084820190565b0393165af1801561052b575f906104f8575b600192506104ee60e08801918251612226565b90525b90506101f0565b506020823d602011610523575b8161051260209383611f84565b810103126100bd57600191516104db565b3d9150610505565b6040513d5f823e3d90fd5b5f6001600160a01b033094610469565b602090610558836101208a01516121db565b519061014089015151155f1461062b5786945b6040517f5efaaebb0000000000000000000000000000000000000000000000000000000081526001600160a01b039182166004820152898216602482015260c43582166044820152606481019390935294851660848301529093849160a49183915f91165af1801561052b575f906105f8575b600192506105f160e08801918251612226565b90526104f1565b506020823d602011610623575b8161061260209383611f84565b810103126100bd57600191516105de565b3d9150610605565b309461056b565b6106539060203d60201161065a575b61064b8183611f84565b81019061220e565b508961041f565b503d610641565b610683915060203d602011610689575b61067b8183611f84565b8101906121ef565b896103a6565b503d610671565b6106a89060203d60201161065a5761064b8183611f84565b508861035c565b60846040517f08c379a000000000000000000000000000000000000000000000000000000000815260206004820152603560248201527f42616c756e695631526562616c616e6365723a20416c6c6f77616e636520756e60448201527f646572204f76657277656967687420416d6f756e7400000000000000000000006064820152fd5b90506020813d60201161075d575b8161074e60209383611f84565b810103126100bd5751896102c8565b3d9150610741565b60846040517f08c379a000000000000000000000000000000000000000000000000000000000815260206004820152602d60248201527f42616c756e695631526562616c616e6365723a20556e646572204f766572776560448201527f6967687420416d6f756e742121000000000000000000000000000000000000006064820152fd5b6020610855926107fe836101208a01516121db565b516040517f23b872dd0000000000000000000000000000000000000000000000000000000081526001600160a01b03808d16600483015230602483015260448201929092529485929183915f919083906064820190565b0393165af191821561052b57600192610890575b50610879816101208801516121db565b5161088960e08801918251612226565b90526101f4565b6108a89060203d60201161065a5761064b8183611f84565b5088610869565b5092909450604051937f70a082310000000000000000000000000000000000000000000000000000000085523060048601526020856024816001600160a01b0360c435165afa94851561052b575f95611202575b5060e0820151851061117e5760049361091d913691612260565b9360206001600160a01b035f5416604051958680927f4f4608a20000000000000000000000000000000000000000000000000000000082525afa93841561052b575f9461114a575b505f5b610140830151518110156100bb57610985816101608501516121db565b51610995575b6001905b01610968565b6001600160a01b036109b66109af836101408701516121db565b51886121db565b5116906109f7866109f26109e76109dc836109d6876101608c01516121db565b516122be565b60c0890151906122d1565b60e0880151906122be565b6122d1565b6001600160a01b0360c4351683146110be57801561103a57838111610f905760049060206001600160a01b035f5416604051938480927f82755ebb0000000000000000000000000000000000000000000000000000000082525afa91821561052b575f92610f6f575b506040517f095ea7b30000000000000000000000000000000000000000000000000000000081526001600160a01b038316600482015260248101829052602081806044810103815f6001600160a01b0360c435165af1801561052b57610f50575b50866001600160a01b0381168503610ea257506040517f2d6bc8ea0000000000000000000000000000000000000000000000000000000081526001600160a01b0360c435811660048301528581166024830152604482019290925230606482015291602091839160849183915f91165af190811561052b575f91610e70575b50915b8260e0860152610b5c610b5584612cfc565b8094612316565b90610b70610b6983612cfc565b8093612316565b906040517f70a08231000000000000000000000000000000000000000000000000000000008152306004820152602081602481855afa801561052b5786915f91610e3b575b5010610ddd576001600160a01b035f541692604051937f04cc7325000000000000000000000000000000000000000000000000000000008552602085600481845afa90811561052b576004955f92610dbb575b50602090604051968780927f3b19e84a0000000000000000000000000000000000000000000000000000000082525afa91821561052b578d97610c9b965f94610d99575b50602090604051809881927fa9059cbb000000000000000000000000000000000000000000000000000000009c8d845260048401602090939291936001600160a01b0360408201951681520152565b03815f885af191821561052b57610cdf96602093610d7c575b5060405196879283928b845260048401602090939291936001600160a01b0360408201951681520152565b03815f865af1801561052b57610d25966020955f92610d5f575b5060405197889586948593845260048401602090939291936001600160a01b0360408201951681520152565b03925af191821561052b57600192610d40575b50905061098b565b610d589060203d60201161065a5761064b8183611f84565b5088610d38565b610d7590873d891161065a5761064b8183611f84565b508e610cf9565b610d9290843d861161065a5761064b8183611f84565b508f610cb4565b6020919450610db490823d84116106895761067b8183611f84565b9390610c4c565b6020919250610dd690823d84116106895761067b8183611f84565b9190610c08565b60646040517f08c379a000000000000000000000000000000000000000000000000000000000815260206004820152602060248201527f42616c616e636520756e64657220616d6f756e7420746f207472616e736665726044820152fd5b9150506020813d602011610e68575b81610e5760209383611f84565b810103126100bd578590518d610bb5565b3d9150610e4a565b90506020813d602011610e9a575b81610e8b60209383611f84565b810103126100bd575189610b40565b3d9150610e7e565b6040517f5efaaebb0000000000000000000000000000000000000000000000000000000081526001600160a01b0360c435811660048301529182166024820152858216604482015260648101929092523060848301529091602091839160a49183915f91165af190811561052b575f91610f1e575b5091610b43565b90506020813d602011610f48575b81610f3960209383611f84565b810103126100bd575189610f17565b3d9150610f2c565b610f689060203d60201161065a5761064b8183611f84565b508a610ac1565b610f8991925060203d6020116106895761067b8183611f84565b908a610a60565b60a46040517f08c379a000000000000000000000000000000000000000000000000000000000815260206004820152604560248201527f42616c756e695631526562616c616e6365723a20526562616c616e636520627560448201527f79207175616e746974792065786365656473206261736520617373657420626160648201527f6c616e63650000000000000000000000000000000000000000000000000000006084820152fd5b60846040517f08c379a000000000000000000000000000000000000000000000000000000000815260206004820152603260248201527f42616c756e695631526562616c616e6365723a20526562616c616e636520627560448201527f79207175616e74697479206973207a65726f00000000000000000000000000006064820152fd5b6040517fa9059cbb0000000000000000000000000000000000000000000000000000000081526001600160a01b038a16600482015260248101919091529150602082806044810103815f6001600160a01b0360c435165af191821561052b5760019261112b575b5061098f565b6111439060203d60201161065a5761064b8183611f84565b5088611125565b9093506020813d602011611176575b8161116660209383611f84565b810103126100bd57519286610965565b3d9150611159565b60846040517f08c379a000000000000000000000000000000000000000000000000000000000815260206004820152603460248201527f42616c756e695631526562616c616e6365723a2020496e73756666696369656e60448201527f7420626173652061737365742062616c616e63650000000000000000000000006064820152fd5b9094506020813d60201161122e575b8161121e60209383611f84565b810103126100bd57519386610903565b3d9150611211565b5f5b87811061124557506101b5565b6001600160a01b0361125b610217838b8b61218a565b169060206001600160a01b0360248c60405195869384927f70a082310000000000000000000000000000000000000000000000000000000084521660048301525afa801561052b575f906112bf575b600192506112b882866121db565b5201611238565b506020823d6020116112ea575b816112d960209383611f84565b810103126100bd57600191516112aa565b3d91506112cc565b60846040517f08c379a0000000000000000000000000000000000000000000000000000000008152602060048201526024808201527f4d69736d617463686564207765696768747320616e6420617373657473206c6560448201527f6e677468000000000000000000000000000000000000000000000000000000006064820152fd5b60846040517f08c379a000000000000000000000000000000000000000000000000000000000815260206004820152602560248201527f4d69736d6174636865642062616c616e63657320616e6420617373657473206c60448201527f656e6774680000000000000000000000000000000000000000000000000000006064820152fd5b60646040517f08c379a000000000000000000000000000000000000000000000000000000000815260206004820152601260248201527f4e6f206173736574732070726f766964656400000000000000000000000000006044820152fd5b61147191955060203d6020116106895761067b8183611f84565b9388610197565b346100bd5760206003193601126100bd57611491611f25565b7ff0c57e16840df040f15088dc2f81fe391c3923bec73e23a9662efc9c229c6a0090815460ff8160401c16159167ffffffffffffffff821680159081611635575b600114908161162b575b159081611622575b506115f857818360017fffffffffffffffffffffffffffffffffffffffffffffffff00000000000000006001600160a01b0395161786556115c3575b50611529612e44565b611531612e44565b611539612e44565b61154233612323565b167fffffffffffffffffffffffff00000000000000000000000000000000000000005f5416175f5561157057005b7fffffffffffffffffffffffffffffffffffffffffffffff00ffffffffffffffff81541690557fc7f505b2f371ae2175ee4913f4499e1f2633a7b5936321eed1cdaeb6115181d2602060405160018152a1005b7fffffffffffffffffffffffffffffffffffffffffffffff000000000000000000166801000000000000000117845584611520565b60046040517ff92ee8a9000000000000000000000000000000000000000000000000000000008152fd5b905015856114e4565b303b1591506114dc565b8491506114d2565b346100bd575f6003193601126100bd576040516040810181811067ffffffffffffffff8211176116e15760405260058152604060208201917f352e302e3000000000000000000000000000000000000000000000000000000083527fffffffffffffffffffffffffffffffffffffffffffffffffffffffffffffffe0601f8351948593602085525180918160208701528686015e5f85828601015201168101030190f35b7f4e487b71000000000000000000000000000000000000000000000000000000005f52604160045260245ffd5b346100bd5760c06003193601126100bd5767ffffffffffffffff6004358181116100bd57611740903690600401612017565b6024906024358381116100bd5761175b903690600401612077565b936044359081116100bd57611774903690600401612077565b9161177d611f3b565b94611786611f51565b9561178f6120db565b506117998861213b565b958051155f1461197857506001600160a01b039081165f5b8981106118dd5750505050906118d9956117d2959493925b60643594612480565b604051918291602083528051602084015260208101516040840152604081015161180a6101a0918260608701526101c08601906120a8565b9060608301516080860152608083015160a086015260a083015160c086015260c083015160e086015260e083015161010090818701528301516118c86118b161189a6118837fffffffffffffffffffffffffffffffffffffffffffffffffffffffffffffffe09661012095888c830301878d01526120a8565b938701519361014094878b830301868c01526120a8565b928601519261016093868a830301858b01526120a8565b9185015191610180928589830301848a01526120a8565b9301519185840301908501526120a8565b0390f35b826118ec610217838d8961218a565b169060405180927f70a08231000000000000000000000000000000000000000000000000000000008252846004830152818760209384935afa90811561052b575f91611949575b5060019250611942828b6121db565b52016117b1565b905082813d8311611971575b61195f8183611f84565b810103126100bd57600191518c611933565b503d611955565b90506117d29695506118d99791509392916117c9565b346100bd5760406003193601126100bd576119a7611f25565b6024359067ffffffffffffffff918281168091036100bd577ff0c57e16840df040f15088dc2f81fe391c3923bec73e23a9662efc9c229c6a008054938260ff8660401c16918215611aaa575b50506115f8577fffffffffffffffffffffffffffffffffffffffffffffff00ffffffffffffffff68010000000000000000837fffffffffffffffffffffffffffffffffffffffffffffff0000000000000000007fc7f505b2f371ae2175ee4913f4499e1f2633a7b5936321eed1cdaeb6115181d2976001600160a01b03602098167fffffffffffffffffffffffff00000000000000000000000000000000000000005f5416175f55161717169055604051908152a1005b86161015905082866119f3565b346100bd575f6003193601126100bd5760206001600160a01b037f9016d09d72d40fdae2fd8ceac6b6234c7706214fd39c1cd1e609a0528c1993005416604051908152f35b346100bd575f6003193601126100bd5760206001600160a01b035f5416604051908152f35b346100bd575f6003193601126100bd57611b396123d7565b5f6001600160a01b037f9016d09d72d40fdae2fd8ceac6b6234c7706214fd39c1cd1e609a0528c1993008054907fffffffffffffffffffffffff000000000000000000000000000000000000000082169055167f8be0079c531659141344cd1fd0a4f28419497f9722a3daafe3b4186f6b6457e08280a3005b346100bd575f6003193601126100bd576001600160a01b037f0000000000000000000000000000000000000000000000000000000000000000163003611c1c5760206040517f360894a13ba1a3210667c828492db98dca3e2076cc3735a920a3ca505d382bbc8152f35b60046040517fe07c8dba000000000000000000000000000000000000000000000000000000008152fd5b60406003193601126100bd57611c5a611f25565b602490813567ffffffffffffffff81116100bd57366023820112156100bd578060040135611c8781611fc5565b92611c956040519485611f84565b81845260209182850193368783830101116100bd57815f92888693018737860101526001600160a01b03807f000000000000000000000000000000000000000000000000000000000000000016803014908115611ef7575b50611c1c57611cfa6123d7565b8116936040517f52d1902d0000000000000000000000000000000000000000000000000000000081528381600481895afa5f9181611ec8575b50611d68578686604051907f4c9c8ce30000000000000000000000000000000000000000000000000000000082526004820152fd5b8590877f360894a13ba1a3210667c828492db98dca3e2076cc3735a920a3ca505d382bbc91828103611e9a5750843b15611e6b5750817fffffffffffffffffffffffff0000000000000000000000000000000000000000825416179055604051907fbc7cd75a20ee27fd9adebab32041f755214dbc6bffa90cc0225b39da2e5c2d3b5f80a2815115611e3757505f6100bb9481925190845af4903d15611e2e573d611e1281611fc5565b90611e206040519283611f84565b81525f81943d92013e612e9d565b60609250612e9d565b935050505034611e4357005b807fb398979f0000000000000000000000000000000000000000000000000000000060049252fd5b82604051907f4c9c8ce30000000000000000000000000000000000000000000000000000000082526004820152fd5b604051907faa1d49a40000000000000000000000000000000000000000000000000000000082526004820152fd5b9091508481813d8311611ef0575b611ee08183611f84565b810103126100bd57519088611d33565b503d611ed6565b9050817f360894a13ba1a3210667c828492db98dca3e2076cc3735a920a3ca505d382bbc5416141587611ced565b600435906001600160a01b03821682036100bd57565b608435906001600160a01b03821682036100bd57565b60a435906001600160a01b03821682036100bd57565b6101a0810190811067ffffffffffffffff8211176116e157604052565b90601f7fffffffffffffffffffffffffffffffffffffffffffffffffffffffffffffffe0910116810190811067ffffffffffffffff8211176116e157604052565b67ffffffffffffffff81116116e157601f017fffffffffffffffffffffffffffffffffffffffffffffffffffffffffffffffe01660200190565b67ffffffffffffffff81116116e15760051b60200190565b9080601f830112156100bd57602090823561203181611fff565b9361203f6040519586611f84565b81855260208086019260051b8201019283116100bd57602001905b828210612068575050505090565b8135815290830190830161205a565b9181601f840112156100bd5782359167ffffffffffffffff83116100bd576020808501948460051b0101116100bd57565b9081518082526020808093019301915f5b8281106120c7575050505090565b8351855293810193928101926001016120b9565b604051906120e882611f67565b815f81525f60208201526101806060918260408201525f838201525f60808201525f60a08201525f60c08201525f60e0820152826101008201528261012082015282610140820152826101608201520152565b9061214582611fff565b6121526040519182611f84565b8281527fffffffffffffffffffffffffffffffffffffffffffffffffffffffffffffffe06121808294611fff565b0190602036910137565b919081101561219a5760051b0190565b7f4e487b71000000000000000000000000000000000000000000000000000000005f52603260045260245ffd5b356001600160a01b03811681036100bd5790565b805182101561219a5760209160051b010190565b908160209103126100bd57516001600160a01b03811681036100bd5790565b908160209103126100bd575180151581036100bd5790565b9190820180921161223357565b7f4e487b71000000000000000000000000000000000000000000000000000000005f52601160045260245ffd5b929161226b82611fff565b916122796040519384611f84565b829481845260208094019160051b81019283116100bd57905b82821061229f5750505050565b81356001600160a01b03811681036100bd578152908301908301612292565b8181029291811591840414171561223357565b81156122db570490565b7f4e487b71000000000000000000000000000000000000000000000000000000005f52601260045260245ffd5b601203906012821161223357565b9190820391821161223357565b6001600160a01b038091169081156123a7577f9016d09d72d40fdae2fd8ceac6b6234c7706214fd39c1cd1e609a0528c199300805490837fffffffffffffffffffffffff00000000000000000000000000000000000000008316179055167f8be0079c531659141344cd1fd0a4f28419497f9722a3daafe3b4186f6b6457e05f80a3565b60246040517f1e4fbdf70000000000000000000000000000000000000000000000000000000081525f6004820152fd5b6001600160a01b037f9016d09d72d40fdae2fd8ceac6b6234c7706214fd39c1cd1e609a0528c1993005416330361240a57565b60246040517f118cdaa7000000000000000000000000000000000000000000000000000000008152336004820152fd5b7fffffffffffffffffffffffffffffffffffffffffffffffffffffffffffffffff81146122335760010190565b908160209103126100bd575160ff811681036100bd5790565b94969591939561248e6120db565b5061249a368684612260565b916040517f313ce5670000000000000000000000000000000000000000000000000000000081526020816004816001600160a01b0389165afa801561052b575f60a052612cdb575b505f956001600160a01b035f541695604051967fbb3ba04c000000000000000000000000000000000000000000000000000000008852602088600481845afa97881561052b575f98612cba575b5061253a865161213b565b9b5f995b87518b10156126c5578a908c6001600160a01b038b166001600160a01b03612566858d6121db565b5116036125ea5761257d6125a09361259a926121db565b5161259461258f60ff60a05116612308565b612dfb565b906122be565b90612226565b996125ab818d6121db565b51906012918260ff60a05116810311612233578f90826125db6125e19261259460019760ff60a051169003612dfb565b926121db565b525b019961253e565b6125f4838b6121db565b516001600160a01b03169c612608916121db565b516040517fb27b5e750000000000000000000000000000000000000000000000000000000081526001600160a01b039d8e1660048201528b8e16602482015260448101919091529b8b168c6064815a93602094fa90811561052b578f9c5f9261268b575b50906126858361267f8360019695612226565b9e6121db565b526125e3565b9291509b506020823d6020116126bd575b816126a960209383611f84565b810103126100bd5790518e9b61268561266c565b3d915061269c565b9650939a9299919750959750999299888060011b0460021489151715612233576126f18960011b61213b565b6126fd8a60011b61213b565b6127098b60011b61213b565b906127168c60011b61213b565b92604051608052612728608051611f67565b8c60805152886020608051015287604060805101525f606060805101525f6080805101525f60a060805101525f60c060805101525f60e06080510152610100608051015261012060805101526101406080510152610160608051015261018060805101525f5b88811061282357505050505050505050506127b6610100608051015160808051015190612e09565b61010060805101526127d5610120608051015160808051015190612e09565b61012060805101526127f5610140608051015160a0608051015190612e09565b6101406080510152612815610160608051015160a0608051015190612e09565b610160608051015260805190565b604051907fbb3ba04c0000000000000000000000000000000000000000000000000000000082526020826004818a5afa91821561052b578b8b915f94612c8d575b5082612873926102179261218a565b91600461288183868c61218a565b3561288c84896121db565b5160208b604051948580927f4f4608a20000000000000000000000000000000000000000000000000000000082525afa90811561052b578a935f92612c55575b506109f26128db9285926122be565b9080821115612c45576128ee8183612316565b915b81811180612c3c575b15612bb15750509061290a916122be565b604051907f4f4608a20000000000000000000000000000000000000000000000000000000082526020826004818d5afa90811561052b575f91612b7b575b61295292506122d1565b926129638460606080510151612226565b606060805101526001600160a01b038116916001600160a01b038c1683145f14612a60575050916020600493604051948580927f313ce5670000000000000000000000000000000000000000000000000000000082525afa90811561052b576129df61258f60ff6129e5946001975f91612a31575b5016612308565b906122d1565b816129fd6101006080510151608080510151906121db565b52612a156101206080510151608080510151906121db565b52612a2460808051015161243a565b6080805101525b0161278e565b612a53915060203d602011612a59575b612a4b8183611f84565b810190612467565b5f6129d8565b503d612a41565b6001600160a01b03925060208c6004604051809681937f313ce567000000000000000000000000000000000000000000000000000000008352165afa801561052b57612b16956129df61258f60ff612ac2946020985f91612b64575016612308565b6040517f248391ff0000000000000000000000000000000000000000000000000000000081526001600160a01b038e8116600483015293841660248201526044810191909152948592839182906064820190565b0392165afa801561052b575f90612b31575b600192506129e5565b506020823d602011612b5c575b81612b4b60209383611f84565b810103126100bd5760019151612b28565b3d9150612b3e565b612a539150893d8b11612a5957612a4b8183611f84565b90506020823d602011612ba9575b81612b9660209383611f84565b810103126100bd57612952915190612948565b3d9150612b89565b919350915060019450111580612c33575b612bcd575b50612a2b565b612bdd8160c06080510151612226565b60c0608051015281612bfd610140608051015160a06080510151906121db565b52612c16610160608051015160a06080510151906121db565b52612c2660a0608051015161243a565b60a060805101525f612bc7565b50848111612bc2565b508883116128f9565b612c4f8282612316565b916128f0565b915092506020813d602011612c85575b81612c7260209383611f84565b810103126100bd575189926109f26128cc565b3d9150612c65565b61021791945061287392612cb0859260203d6020116106895761067b8183611f84565b9592509250612864565b612cd491985060203d6020116106895761067b8183611f84565b965f61252f565b612cf39060203d602011612a5957612a4b8183611f84565b60a0525f6124e2565b6001600160a01b035f5416604051907f4f4608a20000000000000000000000000000000000000000000000000000000082526020908183600481845afa92831561052b575f93612dcc575b5081600491604051928380927f85462d6f0000000000000000000000000000000000000000000000000000000082525afa91821561052b575f92612d9c575b5050612d99926125946109f29284612316565b90565b90809250813d8311612dc5575b612db38183611f84565b810103126100bd575182612594612d86565b503d612da9565b9092508181813d8311612df4575b612de48183611f84565b810103126100bd57519181612d47565b503d612dda565b604d811161223357600a0a90565b9190612e148161213b565b905f5b818110612e25575090925050565b80612e32600192876121db565b51612e3d82866121db565b5201612e17565b60ff7ff0c57e16840df040f15088dc2f81fe391c3923bec73e23a9662efc9c229c6a005460401c1615612e7357565b60046040517fd7e6bcf8000000000000000000000000000000000000000000000000000000008152fd5b90612edc5750805115612eb257805190602001fd5b60046040517f1425ea42000000000000000000000000000000000000000000000000000000008152fd5b81511580612f27575b612eed575090565b6024906001600160a01b03604051917f9996b315000000000000000000000000000000000000000000000000000000008352166004820152fd5b50803b15612ee556fea264697066735822122067e4baaedef753743b85be05562db8720c63770cc49f42ca780594ff8cb3753b64736f6c63430008190033",
  "linkReferences": {},
  "deployedLinkReferences": {}
}