{
  "address": "0x26345981657641c97b434317750aab6281B30e2C",
  "abi": [
    {
      "anonymous": false,
      "inputs": [
        {
          "indexed": false,
          "internalType": "address",
          "name": "previousAdmin",
          "type": "address"
        },
        {
          "indexed": false,
          "internalType": "address",
          "name": "newAdmin",
          "type": "address"
        }
      ],
      "name": "AdminChanged",
      "type": "event"
    },
    {
      "anonymous": false,
      "inputs": [
        {
          "indexed": true,
          "internalType": "address",
          "name": "owner",
          "type": "address"
        },
        {
          "indexed": true,
          "internalType": "address",
          "name": "spender",
          "type": "address"
        },
        {
          "indexed": false,
          "internalType": "uint256",
          "name": "value",
          "type": "uint256"
        }
      ],
      "name": "Approval",
      "type": "event"
    },
    {
      "anonymous": false,
      "inputs": [
        {
          "indexed": true,
          "internalType": "address",
          "name": "beacon",
          "type": "address"
        }
      ],
      "name": "BeaconUpgraded",
      "type": "event"
    },
    {
      "anonymous": false,
      "inputs": [
        {
          "indexed": false,
          "internalType": "address",
          "name": "user",
          "type": "address"
        },
        {
          "indexed": false,
          "internalType": "uint256",
          "name": "value",
          "type": "uint256"
        }
      ],
      "name": "Burn",
      "type": "event"
    },
    {
      "anonymous": false,
      "inputs": [
        {
          "indexed": false,
          "internalType": "uint256",
          "name": "newFee",
          "type": "uint256"
        }
      ],
      "name": "ChangeBpsFee",
      "type": "event"
    },
    {
      "anonymous": false,
      "inputs": [
        {
          "indexed": false,
          "internalType": "address",
          "name": "pool",
          "type": "address"
        }
      ],
      "name": "ChangeRewardPool",
      "type": "event"
    },
    {
      "anonymous": false,
      "inputs": [
        {
          "indexed": false,
          "internalType": "address",
          "name": "user",
          "type": "address"
        },
        {
          "components": [
            {
              "internalType": "address",
              "name": "to",
              "type": "address"
            },
            {
              "internalType": "uint256",
              "name": "value",
              "type": "uint256"
            },
            {
              "internalType": "bytes",
              "name": "data",
              "type": "bytes"
            }
          ],
          "indexed": false,
          "internalType": "struct IBaluniV1Agent.Call[]",
          "name": "calls",
          "type": "tuple[]"
        },
        {
          "indexed": false,
          "internalType": "address[]",
          "name": "tokensReturn",
          "type": "address[]"
        }
      ],
      "name": "Execute",
      "type": "event"
    },
    {
      "anonymous": false,
      "inputs": [
        {
          "indexed": false,
          "internalType": "string",
          "name": "message",
          "type": "string"
        },
        {
          "indexed": false,
          "internalType": "uint256",
          "name": "value",
          "type": "uint256"
        }
      ],
      "name": "Log",
      "type": "event"
    },
    {
      "anonymous": false,
      "inputs": [
        {
          "indexed": false,
          "internalType": "address",
          "name": "user",
          "type": "address"
        },
        {
          "indexed": false,
          "internalType": "uint256",
          "name": "value",
          "type": "uint256"
        }
      ],
      "name": "Mint",
      "type": "event"
    },
    {
      "anonymous": false,
      "inputs": [
        {
          "indexed": true,
          "internalType": "address",
          "name": "previousOwner",
          "type": "address"
        },
        {
          "indexed": true,
          "internalType": "address",
          "name": "newOwner",
          "type": "address"
        }
      ],
      "name": "OwnershipTransferred",
      "type": "event"
    },
    {
      "anonymous": false,
      "inputs": [
        {
          "indexed": true,
          "internalType": "address",
          "name": "from",
          "type": "address"
        },
        {
          "indexed": true,
          "internalType": "address",
          "name": "to",
          "type": "address"
        },
        {
          "indexed": false,
          "internalType": "uint256",
          "name": "value",
          "type": "uint256"
        }
      ],
      "name": "Transfer",
      "type": "event"
    },
    {
      "anonymous": false,
      "inputs": [
        {
          "indexed": true,
          "internalType": "address",
          "name": "implementation",
          "type": "address"
        }
      ],
      "name": "Upgraded",
      "type": "event"
    },
    {
      "inputs": [],
      "name": "_BPS_BASE",
      "outputs": [
        {
          "internalType": "uint256",
          "name": "",
          "type": "uint256"
        }
      ],
      "stateMutability": "view",
      "type": "function"
    },
    {
      "inputs": [],
      "name": "_BPS_FEE",
      "outputs": [
        {
          "internalType": "uint256",
          "name": "",
          "type": "uint256"
        }
      ],
      "stateMutability": "view",
      "type": "function"
    },
    {
      "inputs": [],
      "name": "_MAX_BPS_FEE",
      "outputs": [
        {
          "internalType": "uint256",
          "name": "",
          "type": "uint256"
        }
      ],
      "stateMutability": "view",
      "type": "function"
    },
    {
      "inputs": [],
      "name": "agentFactory",
      "outputs": [
        {
          "internalType": "contract IBaluniV1AgentFactory",
          "name": "",
          "type": "address"
        }
      ],
      "stateMutability": "view",
      "type": "function"
    },
    {
      "inputs": [
        {
          "internalType": "address",
          "name": "owner",
          "type": "address"
        },
        {
          "internalType": "address",
          "name": "spender",
          "type": "address"
        }
      ],
      "name": "allowance",
      "outputs": [
        {
          "internalType": "uint256",
          "name": "",
          "type": "uint256"
        }
      ],
      "stateMutability": "view",
      "type": "function"
    },
    {
      "inputs": [
        {
          "internalType": "address",
          "name": "spender",
          "type": "address"
        },
        {
          "internalType": "uint256",
          "name": "amount",
          "type": "uint256"
        }
      ],
      "name": "approve",
      "outputs": [
        {
          "internalType": "bool",
          "name": "",
          "type": "bool"
        }
      ],
      "stateMutability": "nonpayable",
      "type": "function"
    },
    {
      "inputs": [
        {
          "internalType": "uint256",
          "name": "slippage",
          "type": "uint256"
        }
      ],
      "name": "arbitrage",
      "outputs": [],
      "stateMutability": "nonpayable",
      "type": "function"
    },
    {
      "inputs": [
        {
          "internalType": "address",
          "name": "account",
          "type": "address"
        }
      ],
      "name": "balanceOf",
      "outputs": [
        {
          "internalType": "uint256",
          "name": "",
          "type": "uint256"
        }
      ],
      "stateMutability": "view",
      "type": "function"
    },
    {
      "inputs": [
        {
          "internalType": "uint256",
          "name": "burnAmount",
          "type": "uint256"
        }
      ],
      "name": "burnERC20",
      "outputs": [],
      "stateMutability": "nonpayable",
      "type": "function"
    },
    {
      "inputs": [
        {
          "internalType": "uint256",
          "name": "burnAmount",
          "type": "uint256"
        }
      ],
      "name": "burnUSDC",
      "outputs": [],
      "stateMutability": "nonpayable",
      "type": "function"
    },
    {
      "inputs": [
        {
          "internalType": "uint256",
          "name": "totalBaluni",
          "type": "uint256"
        },
        {
          "internalType": "uint256",
          "name": "totalERC20Balance",
          "type": "uint256"
        },
        {
          "internalType": "uint256",
          "name": "baluniAmount",
          "type": "uint256"
        },
        {
          "internalType": "uint256",
          "name": "tokenDecimals",
          "type": "uint256"
        }
      ],
      "name": "calculateTokenShare",
      "outputs": [
        {
          "internalType": "uint256",
          "name": "",
          "type": "uint256"
        }
      ],
      "stateMutability": "pure",
      "type": "function"
    },
    {
      "inputs": [
        {
          "internalType": "address",
          "name": "_agentFactory",
          "type": "address"
        }
      ],
      "name": "changeAgentFactory",
      "outputs": [],
      "stateMutability": "nonpayable",
      "type": "function"
    },
    {
      "inputs": [
        {
          "internalType": "uint256",
          "name": "_newFee",
          "type": "uint256"
        }
      ],
      "name": "changeBpsFee",
      "outputs": [],
      "stateMutability": "nonpayable",
      "type": "function"
    },
    {
      "inputs": [],
      "name": "decimals",
      "outputs": [
        {
          "internalType": "uint8",
          "name": "",
          "type": "uint8"
        }
      ],
      "stateMutability": "view",
      "type": "function"
    },
    {
      "inputs": [
        {
          "internalType": "address",
          "name": "spender",
          "type": "address"
        },
        {
          "internalType": "uint256",
          "name": "subtractedValue",
          "type": "uint256"
        }
      ],
      "name": "decreaseAllowance",
      "outputs": [
        {
          "internalType": "bool",
          "name": "",
          "type": "bool"
        }
      ],
      "stateMutability": "nonpayable",
      "type": "function"
    },
    {
      "inputs": [
        {
          "components": [
            {
              "internalType": "address",
              "name": "to",
              "type": "address"
            },
            {
              "internalType": "uint256",
              "name": "value",
              "type": "uint256"
            },
            {
              "internalType": "bytes",
              "name": "data",
              "type": "bytes"
            }
          ],
          "internalType": "struct IBaluniV1Agent.Call[]",
          "name": "calls",
          "type": "tuple[]"
        },
        {
          "internalType": "address[]",
          "name": "tokensReturn",
          "type": "address[]"
        }
      ],
      "name": "execute",
      "outputs": [],
      "stateMutability": "nonpayable",
      "type": "function"
    },
    {
      "inputs": [
        {
          "internalType": "address",
          "name": "_user",
          "type": "address"
        }
      ],
      "name": "getAgentAddress",
      "outputs": [
        {
          "internalType": "address",
          "name": "",
          "type": "address"
        }
      ],
      "stateMutability": "view",
      "type": "function"
    },
    {
      "inputs": [],
      "name": "getBpsFee",
      "outputs": [
        {
          "internalType": "uint256",
          "name": "",
          "type": "uint256"
        }
      ],
      "stateMutability": "view",
      "type": "function"
    },
    {
      "inputs": [],
      "name": "getTreasury",
      "outputs": [
        {
          "internalType": "address",
          "name": "",
          "type": "address"
        }
      ],
      "stateMutability": "view",
      "type": "function"
    },
    {
      "inputs": [
        {
          "internalType": "uint256",
          "name": "amount",
          "type": "uint256"
        }
      ],
      "name": "getUSDCShareValue",
      "outputs": [
        {
          "internalType": "uint256",
          "name": "",
          "type": "uint256"
        }
      ],
      "stateMutability": "view",
      "type": "function"
    },
    {
      "inputs": [],
      "name": "getUnitPrice",
      "outputs": [
        {
          "internalType": "uint256",
          "name": "",
          "type": "uint256"
        }
      ],
      "stateMutability": "view",
      "type": "function"
    },
    {
      "inputs": [],
      "name": "getVersion",
      "outputs": [
        {
          "internalType": "string",
          "name": "",
          "type": "string"
        }
      ],
      "stateMutability": "pure",
      "type": "function"
    },
    {
      "inputs": [
        {
          "internalType": "address",
          "name": "spender",
          "type": "address"
        },
        {
          "internalType": "uint256",
          "name": "addedValue",
          "type": "uint256"
        }
      ],
      "name": "increaseAllowance",
      "outputs": [
        {
          "internalType": "bool",
          "name": "",
          "type": "bool"
        }
      ],
      "stateMutability": "nonpayable",
      "type": "function"
    },
    {
      "inputs": [
        {
          "internalType": "address",
          "name": "_usdc",
          "type": "address"
        },
        {
          "internalType": "address",
          "name": "_wnative",
          "type": "address"
        },
        {
          "internalType": "address",
          "name": "_oracle",
          "type": "address"
        },
        {
          "internalType": "address",
          "name": "_uniRouter",
          "type": "address"
        },
        {
          "internalType": "address",
          "name": "_uniFactory",
          "type": "address"
        }
      ],
      "name": "initialize",
      "outputs": [],
      "stateMutability": "nonpayable",
      "type": "function"
    },
    {
      "inputs": [
        {
          "internalType": "address",
          "name": "token",
          "type": "address"
        }
      ],
      "name": "liquidate",
      "outputs": [],
      "stateMutability": "nonpayable",
      "type": "function"
    },
    {
      "inputs": [],
      "name": "liquidateAll",
      "outputs": [],
      "stateMutability": "nonpayable",
      "type": "function"
    },
    {
      "inputs": [],
      "name": "listAllTokens",
      "outputs": [
        {
          "internalType": "address[]",
          "name": "",
          "type": "address[]"
        }
      ],
      "stateMutability": "view",
      "type": "function"
    },
    {
      "inputs": [
        {
          "internalType": "uint256",
          "name": "balAmountToMint",
          "type": "uint256"
        }
      ],
      "name": "mintWithUSDC",
      "outputs": [],
      "stateMutability": "nonpayable",
      "type": "function"
    },
    {
      "inputs": [],
      "name": "name",
      "outputs": [
        {
          "internalType": "string",
          "name": "",
          "type": "string"
        }
      ],
      "stateMutability": "view",
      "type": "function"
    },
    {
      "inputs": [],
      "name": "owner",
      "outputs": [
        {
          "internalType": "address",
          "name": "",
          "type": "address"
        }
      ],
      "stateMutability": "view",
      "type": "function"
    },
    {
      "inputs": [],
      "name": "renounceOwnership",
      "outputs": [],
      "stateMutability": "nonpayable",
      "type": "function"
    },
    {
      "inputs": [
        {
          "internalType": "uint256",
          "name": "balAmountToMint",
          "type": "uint256"
        }
      ],
      "name": "requiredUSDCtoMint",
      "outputs": [
        {
          "internalType": "uint256",
          "name": "",
          "type": "uint256"
        }
      ],
      "stateMutability": "view",
      "type": "function"
    },
    {
      "inputs": [],
      "name": "symbol",
      "outputs": [
        {
          "internalType": "string",
          "name": "",
          "type": "string"
        }
      ],
      "stateMutability": "view",
      "type": "function"
    },
    {
      "inputs": [
        {
          "internalType": "uint256",
          "name": "amount",
          "type": "uint256"
        },
        {
          "internalType": "address",
          "name": "token",
          "type": "address"
        }
      ],
      "name": "tokenValuation",
      "outputs": [
        {
          "internalType": "uint256",
          "name": "",
          "type": "uint256"
        }
      ],
      "stateMutability": "view",
      "type": "function"
    },
    {
      "inputs": [],
      "name": "totalSupply",
      "outputs": [
        {
          "internalType": "uint256",
          "name": "",
          "type": "uint256"
        }
      ],
      "stateMutability": "view",
      "type": "function"
    },
    {
      "inputs": [],
      "name": "totalValuation",
      "outputs": [
        {
          "internalType": "uint256",
          "name": "",
          "type": "uint256"
        }
      ],
      "stateMutability": "view",
      "type": "function"
    },
    {
      "inputs": [
        {
          "internalType": "address",
          "name": "recipient",
          "type": "address"
        },
        {
          "internalType": "uint256",
          "name": "amount",
          "type": "uint256"
        }
      ],
      "name": "transfer",
      "outputs": [
        {
          "internalType": "bool",
          "name": "",
          "type": "bool"
        }
      ],
      "stateMutability": "nonpayable",
      "type": "function"
    },
    {
      "inputs": [
        {
          "internalType": "address",
          "name": "sender",
          "type": "address"
        },
        {
          "internalType": "address",
          "name": "recipient",
          "type": "address"
        },
        {
          "internalType": "uint256",
          "name": "amount",
          "type": "uint256"
        }
      ],
      "name": "transferFrom",
      "outputs": [
        {
          "internalType": "bool",
          "name": "",
          "type": "bool"
        }
      ],
      "stateMutability": "nonpayable",
      "type": "function"
    },
    {
      "inputs": [
        {
          "internalType": "address",
          "name": "newOwner",
          "type": "address"
        }
      ],
      "name": "transferOwnership",
      "outputs": [],
      "stateMutability": "nonpayable",
      "type": "function"
    },
    {
      "inputs": [
        {
          "internalType": "address",
          "name": "newImplementation",
          "type": "address"
        }
      ],
      "name": "upgradeTo",
      "outputs": [],
      "stateMutability": "nonpayable",
      "type": "function"
    },
    {
      "inputs": [
        {
          "internalType": "address",
          "name": "newImplementation",
          "type": "address"
        },
        {
          "internalType": "bytes",
          "name": "data",
          "type": "bytes"
        }
      ],
      "name": "upgradeToAndCall",
      "outputs": [],
      "stateMutability": "payable",
      "type": "function"
    }
  ],
  "transactionHash": "0xe105105bc36ed77af95bfaa3392de0b90f6aca818b8f494320092912f1910948",
  "args": [],
  "numDeployments": 1,
  "solcInputHash": "9f1e6b1df3f181fc205e5004d897f0ac",
  "bytecode": "0x60a0806040523460225730608052614831908161002782396080518161115b0152f35b5f80fdfe60806040526004361015610011575f80fd5b5f3560e01c8063012a33aa1461029a57806306497cb91461029557806306fdde0314610290578063095ea7b31461028b5780630a38abab146102865780630cfc7386146102815780630d8e6e2c1461027c5780631459457a1461027757806318160ddd14610272578063185fcffe146101fa5780631a168da21461026d57806323b872dd1461026857806327d54a9214610263578063295b93001461025e5780632bdd955a146102595780632f86556814610254578063313ce5671461024f57806334decfc91461024a5780633659cfe61461024557806339509351146102405780633b19e84a146102135780633c2066a91461023b5780634f1ef286146102365780635e7f8b761461023157806370a082311461022c578063715018a61461022757806371ddcfb8146102225780637df107ea1461021d57806385377188146102185780638da5cb5b1461021357806395d89b411461020e578063a457c2d714610209578063a9059cbb14610204578063aa95d893146101ff578063b9f5e617146101fa578063be2ee0be146101f5578063dd62ed3e146101f0578063eedc3c50146101eb578063f2fde38b146101e6578063fe0a4dd1146101e15763fe330a51146101dc575f80fd5b611eb1565b6119ef565b611955565b611851565b611771565b611592565b6108ee565b611556565b61152c565b61147e565b6113d9565b610f31565b6113bb565b611392565b61135b565b6112fd565b6112c2565b611249565b61111a565b610f59565b610edb565b610da2565b610d84565b610d69565b610d44565b610d1a565b610d00565b610c59565b610b87565b61090c565b6108d1565b6107b7565b610771565b610507565b6104b9565b610484565b610393565b610301565b6102ad565b5f9103126102a957565b5f80fd5b346102a9575f3660031901126102a9576035546102cb811515612d9b565b6102d3612f13565b670de0b6b3a764000090808202918204036102fc576020916102f491611fe8565b604051908152f35b611fa7565b346102a95760203660031901126102a9577fbea1b31142ae4b1f4efad240349036d718b7950d246c127768097ccf602fc7e0602060043561034d60018060a01b03606554163314611ed8565b8061012e55604051908152a1005b805180835260209291819084018484015e5f828201840152601f01601f1916010190565b90602061039092818152019061035b565b90565b346102a9575f3660031901126102a9576040515f6036546103b381611f23565b8084529060209060019081811690811561044957506001146103f0575b6103ec856103e081870382611069565b6040519182918261037f565b0390f35b60365f90815293507f4a11f94e20a93c79f6ec743a1954ec4fc2c08429ae2122118bf234b2185c81b85b838510610436575050505081016020016103e0826103ec6103d0565b805486860184015293820193810161041a565b8695506103ec969350602092506103e094915060ff191682840152151560051b82010192936103d0565b6001600160a01b038116036102a957565b346102a95760403660031901126102a9576104ae6004356104a481610473565b6024359033612de7565b602060405160018152f35b346102a95760203660031901126102a9576004356104d681610473565b6065546001600160a01b03906104ef9082163314611ed8565b61013780546001600160a01b03191691909216179055005b346102a95760203660031901126102a95761052760026097541415611f5b565b600260975561054861054d61053a612f13565b603554928391600435611fd5565b611fe8565b610132546105729064e8d4a51000906001600160a01b03169204809230903390612faa565b61013254610590906001600160a01b03165b6001600160a01b031690565b6040516370a0823160e01b815233600482015290929091602083602481875afa928315610716575f93610750575b50604051636eb1769f60e11b815233600482015230602482015293602090859060449082905afa90811561071657610625816106789461066e94826020986106cc9a5f9361071b575b5061061761061e93941515612020565b1015612077565b10156120c3565b6106316004353361312e565b6040805133815260043560208201527f0f6798a560793a54c3bcfe86a93cde1e73087d944c0ea20544137d41213968859190a161012e5490611fd5565b61012f5490611fe8565b61013254610692906105849081906001600160a01b031681565b60655460405163a9059cbb60e01b81526001600160a01b0390911660048201526024810192909252909283919082905f9082906044820190565b03925af18015610716576106e7575b6106e56001609755565b005b6107089060203d60201161070f575b6107008183611069565b81019061210f565b505f6106db565b503d6106f6565b612015565b61061e9350610742610617918c3d8e11610749575b61073a8183611069565b810190612006565b9350610607565b503d610730565b61076a91935060203d6020116107495761073a8183611069565b915f6105be565b346102a9575f3660031901126102a9576103ec60405161079081611018565b600681526576312e302e3160d01b602082015260405191829160208352602083019061035b565b346102a95760a03660031901126102a9576004356107d481610473565b6024356107e081610473565b6044356107ec81610473565b6064356107f881610473565b6084359161080583610473565b5f549360ff8560081c1694855f146108c85750303b155b1561086c576108319415958661084557612127565b61083757005b6106e561ff00195f54165f55565b61085761010061ff00195f5416175f55565b610867600160ff195f5416175f55565b612127565b60405162461bcd60e51b815260206004820152602e60248201527f496e697469616c697a61626c653a20636f6e747261637420697320616c72656160448201526d191e481a5b9a5d1a585b1a5e995960921b6064820152608490fd5b60ff161561081c565b346102a9575f3660031901126102a9576020603554604051908152f35b346102a9575f3660031901126102a957602061012e54604051908152f35b346102a9576020806003193601126102a957600480359161093260026097541415611f5b565b6002609755335f9081526033602052604090206109539084905410156123c5565b61095c836132af565b5f5b61013054811015610b335761097861058461058483614495565b603554604080516370a0823160e01b8152308782019081526001600160a01b03948516959493908790839081906020010381895afa918215610716575f92610b14575b5081158015610b0b575b610afe57825163313ce56760e01b81529187838a818a5afa9081156107165760ff8b926109fb955f91610ad1575b501692613353565b93610a05856133fe565b825163a9059cbb60e01b808252338a83019081526020810184905292979289908390819060400103815f885af1801561071657610a7c988a975f94610a5493610ab4575b50606554169461241d565b94519788958694859384528c840160209093929193604081019460018060a01b031681520152565b03925af191821561071657600192610a97575b505b0161095e565b610aad90843d861161070f576107008183611069565b505f610a8f565b610aca908a3d8c1161070f576107008183611069565b505f610a49565b610af191508b3d8d11610af7575b610ae98183611069565b810190612404565b5f6109f3565b503d610adf565b5050505060019150610a91565b503086146109c5565b610b2c919250873d89116107495761073a8183611069565b905f6109bb565b7fcc16f5dbb4873280815c1ee09dbd06736cffcc184412cf7a71a0fdb75d397ca5610b7a85610b62813361341d565b60408051338152602081019290925290918291820190565b0390a16106e56001609755565b346102a95760603660031901126102a957600435610ba481610473565b60243590610bb182610473565b610bbf6044358093836135f5565b6001600160a01b0381165f90815260346020908152604080832033845290915290205491808310610c0357610bf79203903390612de7565b60405160018152602090f35b60405162461bcd60e51b815260206004820152602860248201527f45524332303a207472616e7366657220616d6f756e74206578636565647320616044820152676c6c6f77616e636560c01b6064820152608490fd5b346102a95760203660031901126102a957600435610c7681610473565b610137546040516313eaa54960e11b81526001600160a01b0392831660048201529160209183916024918391165afa8015610716576103ec915f91610cd1575b506040516001600160a01b0390911681529081906020820190565b610cf3915060203d602011610cf9575b610ceb8183611069565b81019061242a565b5f610cb6565b503d610ce1565b346102a9575f3660031901126102a95760206102f4612f13565b346102a95760403660031901126102a95760206102f4602435610d3c81610473565b60043561371f565b346102a95760203660031901126102a9576106e5600435610d6481610473565b61248b565b346102a9575f3660031901126102a957602060405160128152f35b346102a9575f3660031901126102a957602061012d54604051908152f35b346102a95760203660031901126102a957600435610dbf81610473565b6065546001600160a01b039190610dd99083163314611ed8565b60405191610de683611033565b5f83525f805160206147bc833981519152928184541690610e06846144b6565b805115801590610ed4575b610ec3575b505f8051602061477c8339815191525460ff1615610e3057005b610eb8610ebe926106e595610e595f8051602061477c833981519152600160ff19825416179055565b604051631b2ce7f360e11b60208201526001600160a01b0385166024808301919091528152610e9390610e8d604482611069565b87614574565b505f8051602061477c833981519152805460ff1916905554166001600160a01b031690565b14613d58565b614634565b610ecd9084614574565b505f610e16565b505f610e11565b346102a95760403660031901126102a957600435610ef881610473565b335f9081526034602090815260408083206001600160a01b038516845290915290205460243581018091116102fc576104ae9133612de7565b346102a9575f3660031901126102a9576065546040516001600160a01b039091168152602090f35b346102a9575f3660031901126102a957610f7860026097541415611f5b565b600260975561013080545f5b818110610f92576001609755005b8254811015610fcc575f8390525f8051602061479c83398151915281015460019190610fc6906001600160a01b031661248b565b01610f84565b6127fc565b634e487b7160e01b5f52604160045260245ffd5b606081019081106001600160401b0382111761100057604052565b610fd1565b6001600160401b03811161100057604052565b604081019081106001600160401b0382111761100057604052565b602081019081106001600160401b0382111761100057604052565b60a081019081106001600160401b0382111761100057604052565b90601f801991011681019081106001600160401b0382111761100057604052565b604051906110978261104e565b565b6040519061010082018281106001600160401b0382111761100057604052565b6001600160401b03811161100057601f01601f191660200190565b81601f820112156102a9578035906110eb826110b9565b926110f96040519485611069565b828452602083830101116102a957815f926020809301838601378301015290565b60403660031901126102a95760043561113281610473565b6024356001600160401b0381116102a9576111519036906004016110d4565b6001600160a01b037f0000000000000000000000000000000000000000000000000000000000000000811692903084146111b3575f805160206147bc833981519152546106e5946111ae929091166001600160a01b031614612644565b6126a5565b60405162461bcd60e51b815260206004820152602c60248201527f46756e6374696f6e206d7573742062652063616c6c6564207468726f7567682060448201526b19195b1959d85d1958d85b1b60a21b6064820152608490fd5b9081518082526020808093019301915f5b82811061122c575050505090565b83516001600160a01b03168552938101939281019260010161121e565b346102a9575f3660031901126102a957604051806101309182548082526020809201935f525f8051602061479c833981519152915f905b8282106112ab576103ec8561129781890382611069565b60405191829160208352602083019061120d565b835486529485019460019384019390910190611280565b346102a95760203660031901126102a9576004356112df81610473565b60018060a01b03165f526033602052602060405f2054604051908152f35b346102a9575f3660031901126102a9576065545f906001600160a01b03811690611328338314611ed8565b6001600160a01b0319166065557f8be0079c531659141344cd1fd0a4f28419497f9722a3daafe3b4186f6b6457e08280a3005b346102a95760203660031901126102a95760206102f460355461137f811515612d9b565b61054861138a612f13565b600435611fd5565b346102a9575f3660031901126102a957610137546040516001600160a01b039091168152602090f35b346102a9575f3660031901126102a957602061012f54604051908152f35b346102a9575f3660031901126102a9576040515f6037546113f981611f23565b808452906020906001908181169081156104495750600114611425576103ec856103e081870382611069565b60375f90815293507f42a7b7dd785cd69714a189dffb3fd7d7174edc9ece837694ce50f7078f7c31ae5b83851061146b575050505081016020016103e0826103ec6103d0565b805486860184015293820193810161144f565b346102a95760403660031901126102a95760043561149b81610473565b60243590335f5260346020526114c48160405f209060018060a01b03165f5260205260405f2090565b54918083106114d957610bf792039033612de7565b60405162461bcd60e51b815260206004820152602560248201527f45524332303a2064656372656173656420616c6c6f77616e63652062656c6f77604482015264207a65726f60d81b6064820152608490fd5b346102a95760403660031901126102a9576104ae60043561154c81610473565b60243590336135f5565b346102a95760203660031901126102a957602064e8d4a5100061158961157a612f13565b61054860355491600435611fd5565b04604051908152f35b346102a9576020806003193601126102a957600435906115b760026097541415611f5b565b600260975560405163d9ef6e5160e01b81529173284e255314c8cc67263c1f02c46b655ee53df1268284600481845afa938415610716575f9461174d575b50826004916040519283809263188550cf60e31b82525afa801561071657611624915f91611730575b50611fbb565b305f90815260336020526040902054610132805490959294919290611651906001600160a01b0316610584565b6040516370a0823160e01b8152306004820152908390829060249082905afa928315610716575f93611711575b50506116da61168c83611fbb565b966116d46105846116c6610584610135946116b96116b3610584885460018060a01b031690565b306138e8565b546001600160a01b031690565b92546001600160a01b031690565b906138e8565b808510156116ec57506106db94614116565b90919293116116ff575b505050506106db565b61170893613fa5565b5f8080806116f6565b611728929350803d106107495761073a8183611069565b905f8061167e565b6117479150843d86116107495761073a8183611069565b5f61161e565b60049194506117698491823d84116107495761073a8183611069565b9491506115f5565b346102a95760403660031901126102a95760206117c760043561179381610473565b602435906117a082610473565b60018060a01b03165f526034835260405f209060018060a01b03165f5260205260405f2090565b54604051908152f35b6001600160401b0381116110005760051b60200190565b9080601f830112156102a9576020908235611801816117d0565b9361180f6040519586611069565b81855260208086019260051b8201019283116102a957602001905b828210611838575050505090565b838091833561184681610473565b81520191019061182a565b346102a9576040806003193601126102a9576004356001600160401b03918282116102a957366023830112156102a9578160040135916024611892846117d0565b936118a06040519586611069565b8085526020936024602087019260051b850101933685116102a95760248101925b8584106118ea57602435888a82116102a9576118e46106e59236906004016117e7565b90612761565b83358981116102a9578201606060231982360301126102a95783519161190f83610fe5565b8682013561191c81610473565b83526044820135898401526064820135928b84116102a9576119468a9493898695369201016110d4565b868201528152019301926118c1565b346102a95760203660031901126102a95760043561197281610473565b6065546001600160a01b039061198b9082163314611ed8565b81161561199b576106e590613dbc565b60405162461bcd60e51b815260206004820152602660248201527f4f776e61626c653a206e6577206f776e657220697320746865207a65726f206160448201526564647265737360d01b6064820152608490fd5b346102a9576020806003193601126102a957600490813590611a1660026097541415611f5b565b6002609755611a268215156123c5565b611a2f826132af565b5f5b61013054811015611e8257611a4b61058461058483614495565b603554604080516370a0823160e01b8152308882019081529194936001600160a01b0393848216939192918890839081906020010381875afa918215610716575f92611e63575b508115611e5557308414611e5557865163313ce56760e01b81529188838c81885afa9081156107165760ff8b92611ad1955f91611e3e57501692613353565b908661013293611aea610584865460018060a01b031690565b9086821614611ddb575061013654611b609190611b0f906001600160a01b0316610584565b8554611b23906001600160a01b0316610584565b90848d8b5195869485938493630b4c774160e11b85528401604090610bb892949394606082019560018060a01b0380921683521660208201520152565b03915afa80156107165785915f91611dbe575b5061013554611b96908590611b90906001600160a01b0316610584565b856139e4565b1615611cdb578254611bbe9230929091611bb8906001600160a01b0316610584565b90613c58565b91611bc8836133fe565b9088611be3610584610584610584875460018060a01b031690565b875163a9059cbb60e01b80825233938201938452602084018690529290918a9183919082905f90829060400103925af191821561071657611c7b611c54611c486105848f966105848f9b8c5f9961058494611cbd575b5050546001600160a01b031690565b9560655416968961241d565b9951998a96879586948552840160209093929193604081019460018060a01b031681520152565b03925af190811561071657600193611c9a92611ca0575b50151561243f565b01611a31565b611cb690863d881161070f576107008183611069565b505f611c92565b81611cd392903d1061070f576107008183611069565b508c5f611c39565b61013354611d129290611cf6906001600160a01b0316610584565b8454611d0a906001600160a01b0316610584565b903393613b5d565b91611d1c836133fe565b9088611d37610584610584610584875460018060a01b031690565b875163a9059cbb60e01b80825233938201938452602084018690529290918a9183919082905f90829060400103925af191821561071657611d9b611c54611c486105848f966105848f9b8c5f9961058494611cbd575050546001600160a01b031690565b03925af190811561071657600193611db992611ca05750151561243f565b611c9a565b611dd59150893d8b11610cf957610ceb8183611069565b5f611b73565b965163a9059cbb60e01b8152338b8201908152602081019490945296909450869350918391505f90829060400103925af191821561071657600192611e21575b50611c9a565b611e3790843d861161070f576107008183611069565b505f611e1b565b610af191508c8d3d10610af757610ae98183611069565b505050505060019150611c9a565b611e7b919250883d8a116107495761073a8183611069565b905f611a92565b7fcc16f5dbb4873280815c1ee09dbd06736cffcc184412cf7a71a0fdb75d397ca5610b7a84610b62813361341d565b346102a95760803660031901126102a95760206102f4606435604435602435600435613353565b15611edf57565b606460405162461bcd60e51b815260206004820152602060248201527f4f776e61626c653a2063616c6c6572206973206e6f7420746865206f776e65726044820152fd5b90600182811c92168015611f51575b6020831014611f3d57565b634e487b7160e01b5f52602260045260245ffd5b91607f1691611f32565b15611f6257565b60405162461bcd60e51b815260206004820152601f60248201527f5265656e7472616e637947756172643a207265656e7472616e742063616c6c006044820152606490fd5b634e487b7160e01b5f52601160045260245ffd5b9064e8d4a51000918281029281840414901517156102fc57565b818102929181159184041417156102fc57565b8115611ff2570490565b634e487b7160e01b5f52601260045260245ffd5b908160209103126102a9575190565b6040513d5f823e3d90fd5b1561202757565b60405162461bcd60e51b815260206004820152602260248201527f546f74616c2042414c554e4920737570706c792063616e6e6f74206265207a65604482015261726f60f01b6064820152608490fd5b1561207e57565b60405162461bcd60e51b815260206004820152601c60248201527f555344432062616c616e636520697320696e73756666696369656e74000000006044820152606490fd5b156120ca57565b60405162461bcd60e51b815260206004820152601960248201527f436865636b2074686520746f6b656e20616c6c6f77616e6365000000000000006044820152606490fd5b908160209103126102a9575180151581036102a95790565b94939192909260405161213981611018565b600681526020906542616c756e6960d01b60208201526040519161215c83611018565b600683526542414c554e4960d01b602084015261219060ff5f5460081c1661218381613195565b61218b614269565b613195565b8151916001600160401b038311611000576121b5836121b0603654611f23565b614279565b602091601f841160011461232c5750936122026122dc96946121fa856122b9966122ff9d9e966122739a5f92612321575b50508160011b915f199060031b1c19161790565b603655614353565b61220a6131f5565b612212613212565b61221a613226565b6122233061306f565b61222f6101f461012d55565b61223a601e61012e55565b61224661271061012f55565b61013280546001600160a01b0319166001600160a01b039384161790559096879485929161229691849190565b6101338054919092166001600160a01b03166001600160a01b0319909116179055565b6101348054919092166001600160a01b03166001600160a01b0319909116179055565b6101358054919092166001600160a01b03166001600160a01b0319909116179055565b6101368054919092166001600160a01b03166001600160a01b0319909116179055565b6101325461231e90612319906001600160a01b0316610584565b613246565b50565b015190505f806121e6565b60365f529190601f1984167f4a11f94e20a93c79f6ec743a1954ec4fc2c08429ae2122118bf234b2185c81b8935f905b8282106123ad575050946001856122ff9c9d956122739995612202956122b9996122dc9d9b10612395575b505050811b01603655614353565b01515f1960f88460031b161c191690555f8080612387565b8060018697829497870151815501960194019061235c565b156123cc57565b60405162461bcd60e51b815260206004820152601060248201526f125b9cdd59999a58da595b9d0810905360821b6044820152606490fd5b908160209103126102a9575160ff811681036102a95790565b919082039182116102fc57565b908160209103126102a9575161039081610473565b1561244657565b60405162461bcd60e51b815260206004820152601760248201527f53776170204661696c65642c20547279204275726e28290000000000000000006044820152606490fd5b6040516370a0823160e01b8152306004820152906001600160a01b0390602080846024818686165afa938415610716575f94612618575b50610136546124d9906001600160a01b0316610584565b9261253182610132956124f5610584885460018060a01b031690565b604051630b4c774160e11b81526001600160a01b0380891660048301529091166024820152610bb8604482015292839190829081906064820190565b03915afa928315610716575f936125f9575b505061013554612561908690611b90906001600160a01b0316610584565b16158315158115806125f2575b1561259a575050905461109792612593923092611bb8906001600160a01b0316610584565b151561243f565b919291816125ea575b506125ad57505050565b61013354611097936125939390916125cd906001600160a01b0316610584565b92543093906125e4906001600160a01b0316610584565b91613b5d565b90505f6125a3565b508061256e565b612610929350803d10610cf957610ceb8183611069565b905f80612543565b816126309295503d86116107495761073a8183611069565b925f6124c2565b919082018092116102fc57565b1561264b57565b60405162461bcd60e51b815260206004820152602c60248201527f46756e6374696f6e206d7573742062652063616c6c6564207468726f7567682060448201526b6163746976652070726f787960a01b6064820152608490fd5b6065546001600160a01b03906126be9082163314611ed8565b5f805160206147bc8339815191529281845416906126db846144b6565b805115801590612759575b612748575b5061270b6127075f8051602061477c8339815191525460ff1690565b1590565b612716575b50505050565b610eb8610ebe9261273f95610e595f8051602061477c833981519152600160ff19825416179055565b5f808080612710565b6127529084614574565b505f6126eb565b5060016126e6565b9061277f9161277560026097541415611f5b565b60026097556128bf565b6001609755565b1561278d57565b60405162461bcd60e51b81526020600482015260156024820152741059d95b9d08199858dd1bdc9e481b9bdd081cd95d605a1b6044820152606490fd5b906127d4826117d0565b6127e16040519182611069565b82815280926127f2601f19916117d0565b0190602036910137565b634e487b7160e01b5f52603260045260245ffd5b8051821015610fcc5760209160051b010190565b92916040916040850192604086528151809452606093606087019460608260051b890101956020809501935f925b8484106128705750505050505093610390939481840391015261120d565b90919293949786806128af600193858f8e8991605f19908503018b5251878060a01b03815116845285810151868501520151918189820152019061035b565b9a01940194019294939190612852565b610137549091906128d8906001600160a01b0316610584565b6001600160a01b03916128ee8284161515612786565b60408051639b76a5cd60e01b815233600480830191909152909660209591949293929091908690899060249082905f905af1978815610716575f98612d7c575b5061293983516127ca565b9161294484516127ca565b975f5b8551811015612a1d57806129a561299461270761297761296a6129da968c612810565b516001600160a01b031690565b6001600160a01b03165f9081526101316020526040902054151590565b61299e8389612810565b9015159052565b89896129ba61058461058461296a868d612810565b8a516370a0823160e01b8152309281019283529485928391829160200190565b03915afa8015610716576001925f91612a00575b506129f9828d612810565b5201612947565b612a1791508b3d8d116107495761073a8183611069565b5f6129ee565b509092918096949916803b156102a957895f91612a4f93838951809681958294630eedc3c560e41b84528c8401612824565b03925af1801561071657612d63575b505f5b8851811015612d5857612a7761296a828b612810565b85516370a0823160e01b815230868201908152919291888416908a90839081906020010381845afa918215610716575f92612d39575b5061013654612ac4906001600160a01b0316610584565b610133549094908890612adf906001600160a01b0316610584565b8a51630b4c774160e11b8082526001600160a01b0380861694830194855283166020850152610bb860408501529097919390929091908e90899081906060010381845afa978815610716578e938d8d925f9b612d16575b50519081526001600160a01b039384169181019182529490921660208301526101f460408301528391829081906060015b03915afa948515610716578a915f96612cf5575b5081161594851595612ce9575b5050612b9d612b978487612810565b51151590565b80612ce2575b612cd3575b612bbc612bb5848d612810565b518361241d565b9315612c7757508a8991612bd0848d612810565b5110612be3575b50506001915001612a61565b612c0a61058461058461296a86612c0461066e612c3f9a61012e5490611fd5565b95612810565b89606554165f8a5180978195829463a9059cbb60e01b84528d840160209093929193604081019460018060a01b031681520152565b03925af191821561071657600192612c5a575b50878a612bd7565b612c7090893d8b1161070f576107008183611069565b505f612c52565b965163a9059cbb60e01b8152339681019687526020870193909352509298509596508694508593928492505f915082906040015b03925af1801561071657612cbd575050565b8161231e92903d1061070f576107008183611069565b612cdc81614432565b50612ba8565b5083612ba3565b1615159350885f612b88565b82919650612d0f908d803d10610cf957610ceb8183611069565b9590612b7b565b612b67919b50612d3290873d8911610cf957610ceb8183611069565b9a90612b36565b612d519192508a3d8c116107495761073a8183611069565b905f612aad565b505095505050505050565b80612d70612d7692611005565b8061029f565b5f612a5e565b612d94919850863d8811610cf957610ceb8183611069565b965f61292e565b15612da257565b60405162461bcd60e51b815260206004820152601b60248201527f546f74616c20737570706c792063616e6e6f74206265207a65726f00000000006044820152606490fd5b6001600160a01b038082169291908315612ec2578216938415612e725780612e5c7f8c5be1e5ebec7d5bd14f71427d1e84f3dd0314c0f7b2291e5b200ac8c7c3b92594612e47612e6d9560018060a01b03165f52603460205260405f2090565b9060018060a01b03165f5260205260405f2090565b556040519081529081906020820190565b0390a3565b60405162461bcd60e51b815260206004820152602260248201527f45524332303a20617070726f766520746f20746865207a65726f206164647265604482015261737360f01b6064820152608490fd5b60405162461bcd60e51b8152602060048201526024808201527f45524332303a20617070726f76652066726f6d20746865207a65726f206164646044820152637265737360e01b6064820152608490fd5b5f80610130545b808210612f2657505090565b9091612f3761058461058485614495565b6040516370a0823160e01b81523060048201529091602080836024816001600160a01b0388165afa93841561071657600194612f8594612f7f935f92612f8d575b505061371f565b90612637565b920190612f1a565b612fa39250803d106107495761073a8183611069565b5f80612f78565b6040516323b872dd60e01b602082019081526001600160a01b039384166024830152938316604482015260648082019590955293845261304a93925f928392612ff28661104e565b1690826040519561300287611018565b602087527f5361666545524332303a206c6f772d6c6576656c2063616c6c206661696c65646020880152613038843b151561472f565b51925af1613044614545565b906146eb565b805180613055575050565b8160208061306a93611097950101910161210f565b61420a565b6001600160a01b0381169081156130e957603554670de0b6b3a7640000918282018092116102fc576035919091556001600160a01b03165f90815260336020526040902080549182018092116102fc57555f5f805160206147dc83398151915260405180612e6d8190670de0b6b3a7640000602083019252565b60405162461bcd60e51b815260206004820152601f60248201527f45524332303a206d696e7420746f20746865207a65726f2061646472657373006044820152606490fd5b6001600160a01b038116919082156130e957603554908282018092116102fc576035919091556001600160a01b03165f9081526033602052604090208054908282018092116102fc575f925f805160206147dc8339815191529260209255604051908152a3565b1561319c57565b60405162461bcd60e51b815260206004820152602b60248201527f496e697469616c697a61626c653a20636f6e7472616374206973206e6f74206960448201526a6e697469616c697a696e6760a81b6064820152608490fd5b61320960ff5f5460081c1661218381613195565b61109733613dbc565b61277f60ff5f5460081c1661218b81613195565b61323660ff5f5460081c16613195565b61323e614269565b611097614269565b610390906001600160a01b0316614432565b1561325f57565b60405162461bcd60e51b815260206004820152602260248201527f4d696e696d756d206275726e20616d6f756e7420697320302e30312042414c556044820152614e4960f01b6064820152608490fd5b610132546132c5906001600160a01b0316610584565b6040516370a0823160e01b815230600482015290602090829060249082905afa8015610716576103e8915f91613326575b50101580613319575b6133065750565b662386f26fc10000611097911015613258565b50600160355410156132ff565b61333f915060203d6020116107495761073a8183611069565b5f6132f6565b604d81116102fc57600a0a90565b92919091613362841515612d9b565b601281116133b95760128110156133aa5760120391601283116102fc576133a56105489261339961339f6103909761339988613345565b90611fe8565b95613345565b611fd5565b50610390929161054891611fd5565b60405162461bcd60e51b815260206004820152601e60248201527f546f6b656e20646563696d616c732073686f756c64206265203c3d20313800006044820152606490fd5b61012f5461012e548103918183116102fc576103909261054891611fd5565b6001600160a01b0381169081156134f3576001600160a01b0381165f908152603360205260409020548381106134a357835f805160206147dc8339815191529261347e5f96612e6d94039160018060a01b03165f52603360205260405f2090565b5561349361348e8260355461241d565b603555565b6040519081529081906020820190565b60405162461bcd60e51b815260206004820152602260248201527f45524332303a206275726e20616d6f756e7420657863656564732062616c616e604482015261636560f01b6064820152608490fd5b60405162461bcd60e51b815260206004820152602160248201527f45524332303a206275726e2066726f6d20746865207a65726f206164647265736044820152607360f81b6064820152608490fd5b1561354957565b60405162461bcd60e51b815260206004820152602360248201527f45524332303a207472616e7366657220746f20746865207a65726f206164647260448201526265737360e81b6064820152608490fd5b156135a157565b60405162461bcd60e51b815260206004820152602660248201527f45524332303a207472616e7366657220616d6f756e7420657863656564732062604482015265616c616e636560d01b6064820152608490fd5b916001600160a01b0380841692909183156136a75761368a825f805160206147dc83398151915294612e6d94169661362e881515613542565b6001600160a01b0381165f908152603360205260409020613670908590546136588282101561359a565b039160018060a01b03165f52603360205260405f2090565b556001600160a01b03165f90815260336020526040902090565b613695828254612637565b90556040519081529081906020820190565b60405162461bcd60e51b815260206004820152602560248201527f45524332303a207472616e736665722066726f6d20746865207a65726f206164604482015264647265737360d81b6064820152608490fd5b9060ff8091169116039060ff82116102fc57565b60ff16604d81116102fc57600a0a90565b60405163313ce56760e01b80825291929091906020906001600160a01b039081168285600481845afa948515610716575f956138c9575b50610132546001600160a01b03169182166040519485528385600481845afa948515610716575f956138aa575b50811461389c57610134546137e59392839290916137a9906001600160a01b0316610584565b60405163802431fb60e01b81526001600160a01b0392831660048201529190921660248201526001604482015293849190829081906064820190565b03915afa9182915f9361387d575b505061380157505050505f90565b9060ff83169260ff8216841461386a57613820601292613825926136fa565b61370e565b9210613850579161383c6138429261039094611fd5565b90611fd5565b670de0b6b3a7640000900490565b61383c826138646138429461039096611fd5565b92611fd5565b505061384291506133a561039093611fbb565b613894929350803d106107495761073a8183611069565b905f806137f3565b505050505061039090611fbb565b6138c2919550843d8611610af757610ae98183611069565b935f613783565b6138e1919550833d8511610af757610ae98183611069565b935f613756565b604051636eb1769f60e11b81523060048201526001600160a01b0383811660248301526020939216908381604481855afa908115610716575f916139c7575b505f191161393457505050565b60405163095ea7b360e01b8082526001600160a01b03841660048301525f6024830152909290918484806044810103815f855af192831561071657612cab9486946139aa575b506040519081526001600160a01b0390921660048301525f196024830152909283919082905f9082906044820190565b6139c090853d871161070f576107008183611069565b505f61397a565b6139de9150843d86116107495761073a8183611069565b5f613927565b604051636eb1769f60e11b81523060048201526001600160a01b038381166024830152602094921691908481604481865afa80156107165782915f91613af6575b5010613a315750505050565b60405163095ea7b360e01b8082526001600160a01b03851660048301525f6024830152939092908584806044810103815f865af1801561071657613aa59587955f92613ad9575b506040519081526001600160a01b0390921660048301526024820193909352938492839182906044820190565b03925af1801561071657613abb575b8080612710565b81613ad192903d1061070f576107008183611069565b505f80613ab4565b613aef90873d891161070f576107008183611069565b505f613a78565b613b0d9150863d88116107495761073a8183611069565b5f613a25565b6020815260a06080613b30845183602086015260c085019061035b565b93600180841b03602082015116604085015260408101516060850152606081015182850152015191015290565b92613be55f95613bcb602096613bbd613c2a976040519788938b850191926042936bffffffffffffffffffffffff19809360601b1684528261017760eb1b9182601487015260601b166017850152602b84015260601b16602e8201520190565b03601f198101865285611069565b613bd361108a565b9384526001600160a01b031685840152565b42604083015260608201526080810184905261013554613c0d906001600160a01b0316610584565b9060405194858094819363c04b8d5960e01b835260048301613b13565b03925af1908115610716575f91613c3f575090565b610390915060203d6020116107495761073a8183611069565b602092613ca85f95613c90613c2a95613c81613c72611099565b6001600160a01b039097168752565b6001600160a01b031685880152565b610bb860408501526001600160a01b03166060840152565b42608083015260a082015260c0810184905260e0810184905261013554613cd7906001600160a01b0316610584565b6040805163414bf38960e01b815283516001600160a01b0390811660048301526020850151811660248301529184015162ffffff1660448201526060840151821660648201526080840151608482015260a084015160a482015260c084015160c482015260e0909301511660e4830152909384928391908290610104820190565b15613d5f57565b60405162461bcd60e51b815260206004820152602f60248201527f45524331393637557067726164653a207570677261646520627265616b73206660448201526e75727468657220757067726164657360881b6064820152608490fd5b606580546001600160a01b039283166001600160a01b0319821681179092559091167f8be0079c531659141344cd1fd0a4f28419497f9722a3daafe3b4186f6b6457e05f80a3565b15613e0b57565b60405162461bcd60e51b815260206004820152602d60248201527f417262697472616765206661696c65643a20696e73756666696369656e74204260448201526c414c554e492062616c616e636560981b6064820152608490fd5b919060408352602260408401527f416d6f756e74204f7574204d696e20666f722042414c554e49202d3e20555344606084015261219d60f11b6080840152602060a08401930152565b15613eb657565b60405162461bcd60e51b815260206004820152602c60248201527f417262697472616765206661696c65643a20696e73756666696369656e74206f60448201526b1d5d1c1d5d08185b5bdd5b9d60a21b6064820152608490fd5b919060408352602260408401527f416d6f756e74204f7574204d696e20666f722055534443202d3e2042414c554e606084015261249d60f11b6080840152602060a08401930152565b15613f6057565b60405162461bcd60e51b815260206004820152601d60248201527f41726269747261676520646964206e6f742070726f6669742053454c4c0000006044820152606490fd5b92909215614071576110979281613fca613fc261406a9486611fd5565b612710900490565b9161403a613fc2604051937fdd970dd9b5bfe707922155b058a407655cb18288b807e2216442bca8ad83d6b58580614003898499613e66565b0390a161403461402c6101329730908b6140266105848c5460018060a01b031690565b3061466c565b948511613eaf565b83611fd5565b91604051806140498582613f10565b0390a191543092908390614065906001600160a01b0316610584565b61466c565b1015613f59565b60405162461bcd60e51b815260206004820152602b60248201527f417262697472616765206661696c65643a20696e73756666696369656e74205560448201526a5344432062616c616e636560a81b6064820152608490fd5b156140d157565b60405162461bcd60e51b815260206004820152601c60248201527f41726269747261676520646964206e6f742070726f66697420425559000000006044820152606490fd5b93614122919394611fe8565b670de0b6b3a7640000908181029181830414901517156102fc5761109793826141fb938311614202575b82614158911015613e04565b614165613fc28286611fd5565b916141d2613fc2604051937fdd970dd9b5bfe707922155b058a407655cb18288b807e2216442bca8ad83d6b5858061419e898499613f10565b0390a16140346141c9610132976141be6105848a5460018060a01b031690565b908b3092309061466c565b94851015613eaf565b91604051806141e18582613e66565b0390a19154309290614026906001600160a01b0316610584565b10156140ca565b91508161414c565b1561421157565b60405162461bcd60e51b815260206004820152602a60248201527f5361666545524332303a204552433230206f7065726174696f6e20646964206e6044820152691bdd081cdd58d8d9595960b21b6064820152608490fd5b61109760ff5f5460081c16613195565b601f8111614285575050565b60365f527f4a11f94e20a93c79f6ec743a1954ec4fc2c08429ae2122118bf234b2185c81b8906020601f840160051c830193106142dc575b601f0160051c01905b8181106142d1575050565b5f81556001016142c6565b90915081906142bd565b601f81116142f2575050565b60375f527f42a7b7dd785cd69714a189dffb3fd7d7174edc9ece837694ce50f7078f7c31ae906020601f840160051c83019310614349575b601f0160051c01905b81811061433e575050565b5f8155600101614333565b909150819061432a565b9081516001600160401b0381116110005761437881614373603754611f23565b6142e6565b602080601f83116001146143ad575081906143a893945f926123215750508160011b915f199060031b1c19161790565b603755565b90601f198316946143df60375f527f42a7b7dd785cd69714a189dffb3fd7d7174edc9ece837694ce50f7078f7c31ae90565b925f905b87821061441a575050836001959610614402575b505050811b01603755565b01515f1960f88460031b161c191690555f80806143f7565b806001859682949686015181550195019301906143e3565b805f526101318060205260405f2054155f1461448f576101308054680100000000000000008110156110005760018101808355811015610fcc5783905f8051602061479c833981519152015554915f5260205260405f2055600190565b50505f90565b6101308054821015610fcc575f525f8051602061479c833981519152015490565b803b156144ea575f805160206147bc83398151915280546001600160a01b0319166001600160a01b03909216919091179055565b60405162461bcd60e51b815260206004820152602d60248201527f455243313936373a206e657720696d706c656d656e746174696f6e206973206e60448201526c1bdd08184818dbdb9d1c9858dd609a1b6064820152608490fd5b3d1561456f573d90614556826110b9565b916145646040519384611069565b82523d5f602084013e565b606090565b90813b156145e0575f816103909360208394519201905af4614594614545565b604051916145a183610fe5565b602783527f416464726573733a206c6f772d6c6576656c2064656c65676174652063616c6c6020840152660819985a5b195960ca1b60408401526146eb565b60405162461bcd60e51b815260206004820152602660248201527f416464726573733a2064656c65676174652063616c6c20746f206e6f6e2d636f6044820152651b9d1c9858dd60d21b6064820152608490fd5b61463d816144b6565b6001600160a01b03167fbc7cd75a20ee27fd9adebab32041f755214dbc6bffa90cc0225b39da2e5c2d3b5f80a2565b9092613c2a926146be5f966146a6602097614697614688611099565b6001600160a01b039098168852565b6001600160a01b031686890152565b610bb860408601526001600160a01b03166060850152565b42608084015260a083015260c082015260e0810184905261013554613cd7906001600160a01b0316610584565b909190156146f7575090565b8151156147075750805190602001fd5b60405162461bcd60e51b81526020600482015290819061472b90602483019061035b565b0390fd5b1561473657565b60405162461bcd60e51b815260206004820152601d60248201527f416464726573733a2063616c6c20746f206e6f6e2d636f6e74726163740000006044820152606490fdfe4910fdfa16fed3260ed0e7147f7cc6da11a60208b5b9406d12a635614ffd91432f605e086faac1d93117bbfbc18835d434e9405fadc1ca66faf4b864746daf34360894a13ba1a3210667c828492db98dca3e2076cc3735a920a3ca505d382bbcddf252ad1be2c89b69c2b068fc378daa952ba7f163c4a11628f55a4df523b3efa26469706673582212205995e89e4535631d2341d0bda9e7189fd4076dde7608a00cc2ba2ebe7837ce9564736f6c63430008190033",
  "devdoc": {
    "events": {
      "AdminChanged(address,address)": {
        "details": "Emitted when the admin account has changed."
      },
      "Approval(address,address,uint256)": {
        "details": "Emitted when the allowance of a `spender` for an `owner` is set by a call to {approve}. `value` is the new allowance."
      },
      "BeaconUpgraded(address)": {
        "details": "Emitted when the beacon is upgraded."
      },
      "Transfer(address,address,uint256)": {
        "details": "Emitted when `value` tokens are moved from one account (`from`) to another (`to`). Note that `value` may be zero."
      },
      "Upgraded(address)": {
        "details": "Emitted when the implementation is upgraded."
      }
    },
    "kind": "dev",
    "methods": {
      "allowance(address,address)": {
        "details": "See {IERC20-allowance}."
      },
      "approve(address,uint256)": {
        "details": "See {IERC20-approve}. Requirements: - `spender` cannot be the zero address."
      },
      "arbitrage(uint256)": {
        "details": "Performs arbitrage based on the market price and unit price. If the market price is lower than the unit price, it buys BALUNI tokens using USDC. If the market price is higher than the unit price, it sells BALUNI tokens for USDC. The function ensures that the necessary balances and approvals are in place before performing the swaps."
      },
      "balanceOf(address)": {
        "details": "See {IERC20-balanceOf}."
      },
      "burnERC20(uint256)": {
        "details": "Burns a specified amount of BAL tokens from the caller's balance.",
        "params": {
          "burnAmount": "The amount of BAL tokens to burn."
        }
      },
      "burnUSDC(uint256)": {
        "details": "Burns a specified amount of BAL tokens and performs token swaps on multiple tokens.",
        "params": {
          "burnAmount": "The amount of BAL tokens to burn."
        }
      },
      "calculateTokenShare(uint256,uint256,uint256,uint256)": {
        "details": "Calculates the token share based on the total Baluni supply, total ERC20 balance, Baluni amount, and token decimals.",
        "params": {
          "baluniAmount": "The amount of Baluni tokens.",
          "tokenDecimals": "The number of decimals for the ERC20 token.",
          "totalBaluni": "The total supply of Baluni tokens.",
          "totalERC20Balance": "The total balance of the ERC20 token."
        },
        "returns": {
          "_0": "The calculated token share."
        }
      },
      "changeAgentFactory(address)": {
        "details": "Changes the address of the agent factory contract. Can only be called by the contract owner.",
        "params": {
          "_agentFactory": "The new address of the agent factory contract."
        }
      },
      "changeBpsFee(uint256)": {
        "details": "Changes the basis points fee for the contract.",
        "params": {
          "_newFee": "The new basis points fee to be set."
        }
      },
      "decimals()": {
        "details": "Returns the number of decimals used to get its user representation. For example, if `decimals` equals `2`, a balance of `505` tokens should be displayed to a user as `5.05` (`505 / 10 ** 2`). Tokens usually opt for a value of 18, imitating the relationship between Ether and Wei. This is the value {ERC20} uses, unless this function is overridden; NOTE: This information is only used for _display_ purposes: it in no way affects any of the arithmetic of the contract, including {IERC20-balanceOf} and {IERC20-transfer}."
      },
      "decreaseAllowance(address,uint256)": {
        "details": "Atomically decreases the allowance granted to `spender` by the caller. This is an alternative to {approve} that can be used as a mitigation for problems described in {IERC20-approve}. Emits an {Approval} event indicating the updated allowance. Requirements: - `spender` cannot be the zero address. - `spender` must have allowance for the caller of at least `subtractedValue`."
      },
      "execute((address,uint256,bytes)[],address[])": {
        "details": "Executes a series of calls to a BaluniV1Agent contract and handles token returns.",
        "params": {
          "calls": "An array of IBaluniV1Agent.Call structs representing the calls to be executed.",
          "tokensReturn": "An array of addresses representing the tokens to be returned."
        }
      },
      "getAgentAddress(address)": {
        "details": "Retrieves the agent address associated with a user.",
        "params": {
          "_user": "The user's address."
        },
        "returns": {
          "_0": "The agent address."
        }
      },
      "getBpsFee()": {
        "details": "Returns the basis points fee.",
        "returns": {
          "_0": "The basis points fee as a uint256 value."
        }
      },
      "getUSDCShareValue(uint256)": {
        "details": "Calculates the value of a given amount of Baluni tokens in USDC.",
        "params": {
          "amount": "The amount of Baluni tokens."
        },
        "returns": {
          "_0": "The calculated value of the Baluni tokens in USDC."
        }
      },
      "getUnitPrice()": {
        "details": "Returns the unit price of the token in USDC.",
        "returns": {
          "_0": "The unit price of the token in USDC."
        }
      },
      "getVersion()": {
        "details": "Returns the version of the contract.",
        "returns": {
          "_0": "The version string."
        }
      },
      "increaseAllowance(address,uint256)": {
        "details": "Atomically increases the allowance granted to `spender` by the caller. This is an alternative to {approve} that can be used as a mitigation for problems described in {IERC20-approve}. Emits an {Approval} event indicating the updated allowance. Requirements: - `spender` cannot be the zero address."
      },
      "initialize(address,address,address,address,address)": {
        "details": "Initializes the BaluniV1Router contract. It sets the initial values for various variables and mints 1 ether to the contract's address. It also sets the USDC token address, WNATIVE token address, oracle address, Uniswap router address, and Uniswap factory address. Finally, it adds the USDC token address to the tokens set."
      },
      "liquidate(address)": {
        "details": "Liquidates the specified token by swapping it for USDC.",
        "params": {
          "token": "The address of the token to be liquidated."
        }
      },
      "liquidateAll()": {
        "details": "Liquidates all tokens in the contract. This function iterates through all the tokens in the contract and calls the `liquidate` function for each token. Can only be called by the contract owner."
      },
      "listAllTokens()": {
        "details": "Returns an array of all listed tokens.",
        "returns": {
          "_0": "An array of all listed tokens."
        }
      },
      "mintWithUSDC(uint256)": {
        "details": "Mints a specified amount of BALUNI tokens in exchange for USDC.",
        "params": {
          "balAmountToMint": "The amount of BALUNI tokens to mint."
        }
      },
      "name()": {
        "details": "Returns the name of the token."
      },
      "owner()": {
        "details": "Returns the address of the current owner."
      },
      "renounceOwnership()": {
        "details": "Leaves the contract without owner. It will not be possible to call `onlyOwner` functions anymore. Can only be called by the current owner. NOTE: Renouncing ownership will leave the contract without an owner, thereby removing any functionality that is only available to the owner."
      },
      "requiredUSDCtoMint(uint256)": {
        "details": "Calculates the amount of USDC required to mint a given amount of BAL tokens.",
        "params": {
          "balAmountToMint": "The amount of BAL tokens to be minted."
        },
        "returns": {
          "_0": "The amount of USDC required to mint the specified amount of BAL tokens."
        }
      },
      "symbol()": {
        "details": "Returns the symbol of the token, usually a shorter version of the name."
      },
      "tokenValuation(uint256,address)": {
        "details": "Calculates the valuation of a given amount of a specific ERC20 token.",
        "params": {
          "amount": "The amount of the ERC20 token.",
          "token": "The address of the ERC20 token."
        },
        "returns": {
          "_0": "The calculated valuation of the ERC20 token."
        }
      },
      "totalSupply()": {
        "details": "See {IERC20-totalSupply}."
      },
      "totalValuation()": {
        "details": "Returns the total valuation of the Baluni ecosystem.",
        "returns": {
          "_0": "The total valuation of the Baluni ecosystem."
        }
      },
      "transfer(address,uint256)": {
        "details": "See {IERC20-transfer}. Requirements: - `recipient` cannot be the zero address. - the caller must have a balance of at least `amount`."
      },
      "transferFrom(address,address,uint256)": {
        "details": "See {IERC20-transferFrom}. Emits an {Approval} event indicating the updated allowance. This is not required by the EIP. See the note at the beginning of {ERC20}. Requirements: - `sender` and `recipient` cannot be the zero address. - `sender` must have a balance of at least `amount`. - the caller must have allowance for ``sender``'s tokens of at least `amount`."
      },
      "transferOwnership(address)": {
        "details": "Transfers ownership of the contract to a new account (`newOwner`). Can only be called by the current owner."
      },
      "upgradeTo(address)": {
        "details": "Upgrade the implementation of the proxy to `newImplementation`. Calls {_authorizeUpgrade}. Emits an {Upgraded} event."
      },
      "upgradeToAndCall(address,bytes)": {
        "details": "Upgrade the implementation of the proxy to `newImplementation`, and subsequently execute the function call encoded in `data`. Calls {_authorizeUpgrade}. Emits an {Upgraded} event."
      }
    },
    "version": 1
  },
  "userdoc": {
    "kind": "user",
    "methods": {
      "arbitrage(uint256)": {
        "notice": "This function can only be called by external accounts."
      },
      "burnERC20(uint256)": {
        "notice": "This function requires the caller to have a balance of at least `burnAmount` BAL tokens.The function also checks the USDC balance before burning the tokens.After burning the tokens, the function transfers a proportional share of each ERC20 token held by the contract to the caller.The share is calculated based on the total supply of BAL tokens, the balance of each ERC20 token, and the decimals of each token.Finally, the function emits a `Burn` event with the caller's address and the amount of tokens burned."
      },
      "execute((address,uint256,bytes)[],address[])": {
        "notice": "This function requires the agentFactory to be set and creates a new agent if necessary.If a token is new and a Uniswap pool exists for it, the token is added to the tokens set.If no Uniswap pool exists for a token, the token balance is transferred back to the caller."
      },
      "liquidate(address)": {
        "notice": "The contract must have sufficient approval to spend the specified token.If a pool exists for the token and USDC on Uniswap, a direct swap is performed.If no pool exists, a multi-hop swap is performed through the WNATIVE token.If the swap fails, the `burn` function should be called to handle the failed swap."
      }
    },
    "version": 1
  },
  "storageLayout": {
    "storage": [
      {
        "astId": 540,
        "contract": "contracts/BaluniV1Router.sol:BaluniV1Router",
        "label": "_initialized",
        "offset": 0,
        "slot": "0",
        "type": "t_bool"
      },
      {
        "astId": 543,
        "contract": "contracts/BaluniV1Router.sol:BaluniV1Router",
        "label": "_initializing",
        "offset": 1,
        "slot": "0",
        "type": "t_bool"
      },
      {
        "astId": 1964,
        "contract": "contracts/BaluniV1Router.sol:BaluniV1Router",
        "label": "__gap",
        "offset": 0,
        "slot": "1",
        "type": "t_array(t_uint256)50_storage"
      },
      {
        "astId": 795,
        "contract": "contracts/BaluniV1Router.sol:BaluniV1Router",
        "label": "_balances",
        "offset": 0,
        "slot": "51",
        "type": "t_mapping(t_address,t_uint256)"
      },
      {
        "astId": 801,
        "contract": "contracts/BaluniV1Router.sol:BaluniV1Router",
        "label": "_allowances",
        "offset": 0,
        "slot": "52",
        "type": "t_mapping(t_address,t_mapping(t_address,t_uint256))"
      },
      {
        "astId": 803,
        "contract": "contracts/BaluniV1Router.sol:BaluniV1Router",
        "label": "_totalSupply",
        "offset": 0,
        "slot": "53",
        "type": "t_uint256"
      },
      {
        "astId": 805,
        "contract": "contracts/BaluniV1Router.sol:BaluniV1Router",
        "label": "_name",
        "offset": 0,
        "slot": "54",
        "type": "t_string_storage"
      },
      {
        "astId": 807,
        "contract": "contracts/BaluniV1Router.sol:BaluniV1Router",
        "label": "_symbol",
        "offset": 0,
        "slot": "55",
        "type": "t_string_storage"
      },
      {
        "astId": 1348,
        "contract": "contracts/BaluniV1Router.sol:BaluniV1Router",
        "label": "__gap",
        "offset": 0,
        "slot": "56",
        "type": "t_array(t_uint256)45_storage"
      },
      {
        "astId": 10,
        "contract": "contracts/BaluniV1Router.sol:BaluniV1Router",
        "label": "_owner",
        "offset": 0,
        "slot": "101",
        "type": "t_address"
      },
      {
        "astId": 124,
        "contract": "contracts/BaluniV1Router.sol:BaluniV1Router",
        "label": "__gap",
        "offset": 0,
        "slot": "102",
        "type": "t_array(t_uint256)49_storage"
      },
      {
        "astId": 732,
        "contract": "contracts/BaluniV1Router.sol:BaluniV1Router",
        "label": "_status",
        "offset": 0,
        "slot": "151",
        "type": "t_uint256"
      },
      {
        "astId": 775,
        "contract": "contracts/BaluniV1Router.sol:BaluniV1Router",
        "label": "__gap",
        "offset": 0,
        "slot": "152",
        "type": "t_array(t_uint256)49_storage"
      },
      {
        "astId": 522,
        "contract": "contracts/BaluniV1Router.sol:BaluniV1Router",
        "label": "__gap",
        "offset": 0,
        "slot": "201",
        "type": "t_array(t_uint256)50_storage"
      },
      {
        "astId": 717,
        "contract": "contracts/BaluniV1Router.sol:BaluniV1Router",
        "label": "__gap",
        "offset": 0,
        "slot": "251",
        "type": "t_array(t_uint256)50_storage"
      },
      {
        "astId": 2858,
        "contract": "contracts/BaluniV1Router.sol:BaluniV1Router",
        "label": "_MAX_BPS_FEE",
        "offset": 0,
        "slot": "301",
        "type": "t_uint256"
      },
      {
        "astId": 2860,
        "contract": "contracts/BaluniV1Router.sol:BaluniV1Router",
        "label": "_BPS_FEE",
        "offset": 0,
        "slot": "302",
        "type": "t_uint256"
      },
      {
        "astId": 2862,
        "contract": "contracts/BaluniV1Router.sol:BaluniV1Router",
        "label": "_BPS_BASE",
        "offset": 0,
        "slot": "303",
        "type": "t_uint256"
      },
      {
        "astId": 2865,
        "contract": "contracts/BaluniV1Router.sol:BaluniV1Router",
        "label": "tokens",
        "offset": 0,
        "slot": "304",
        "type": "t_struct(AddressSet)2337_storage"
      },
      {
        "astId": 2868,
        "contract": "contracts/BaluniV1Router.sol:BaluniV1Router",
        "label": "USDC",
        "offset": 0,
        "slot": "306",
        "type": "t_contract(IERC20Upgradeable)1427"
      },
      {
        "astId": 2871,
        "contract": "contracts/BaluniV1Router.sol:BaluniV1Router",
        "label": "WNATIVE",
        "offset": 0,
        "slot": "307",
        "type": "t_contract(IERC20MetadataUpgradeable)1452"
      },
      {
        "astId": 2874,
        "contract": "contracts/BaluniV1Router.sol:BaluniV1Router",
        "label": "oracle",
        "offset": 0,
        "slot": "308",
        "type": "t_contract(IOracle)5149"
      },
      {
        "astId": 2877,
        "contract": "contracts/BaluniV1Router.sol:BaluniV1Router",
        "label": "uniswapRouter",
        "offset": 0,
        "slot": "309",
        "type": "t_contract(ISwapRouter)2821"
      },
      {
        "astId": 2880,
        "contract": "contracts/BaluniV1Router.sol:BaluniV1Router",
        "label": "uniswapFactory",
        "offset": 0,
        "slot": "310",
        "type": "t_contract(IUniswapV3Factory)2707"
      },
      {
        "astId": 2883,
        "contract": "contracts/BaluniV1Router.sol:BaluniV1Router",
        "label": "agentFactory",
        "offset": 0,
        "slot": "311",
        "type": "t_contract(IBaluniV1AgentFactory)5119"
      }
    ],
    "types": {
      "t_address": {
        "encoding": "inplace",
        "label": "address",
        "numberOfBytes": "20"
      },
      "t_array(t_bytes32)dyn_storage": {
        "base": "t_bytes32",
        "encoding": "dynamic_array",
        "label": "bytes32[]",
        "numberOfBytes": "32"
      },
      "t_array(t_uint256)45_storage": {
        "base": "t_uint256",
        "encoding": "inplace",
        "label": "uint256[45]",
        "numberOfBytes": "1440"
      },
      "t_array(t_uint256)49_storage": {
        "base": "t_uint256",
        "encoding": "inplace",
        "label": "uint256[49]",
        "numberOfBytes": "1568"
      },
      "t_array(t_uint256)50_storage": {
        "base": "t_uint256",
        "encoding": "inplace",
        "label": "uint256[50]",
        "numberOfBytes": "1600"
      },
      "t_bool": {
        "encoding": "inplace",
        "label": "bool",
        "numberOfBytes": "1"
      },
      "t_bytes32": {
        "encoding": "inplace",
        "label": "bytes32",
        "numberOfBytes": "32"
      },
      "t_contract(IBaluniV1AgentFactory)5119": {
        "encoding": "inplace",
        "label": "contract IBaluniV1AgentFactory",
        "numberOfBytes": "20"
      },
      "t_contract(IERC20MetadataUpgradeable)1452": {
        "encoding": "inplace",
        "label": "contract IERC20MetadataUpgradeable",
        "numberOfBytes": "20"
      },
      "t_contract(IERC20Upgradeable)1427": {
        "encoding": "inplace",
        "label": "contract IERC20Upgradeable",
        "numberOfBytes": "20"
      },
      "t_contract(IOracle)5149": {
        "encoding": "inplace",
        "label": "contract IOracle",
        "numberOfBytes": "20"
      },
      "t_contract(ISwapRouter)2821": {
        "encoding": "inplace",
        "label": "contract ISwapRouter",
        "numberOfBytes": "20"
      },
      "t_contract(IUniswapV3Factory)2707": {
        "encoding": "inplace",
        "label": "contract IUniswapV3Factory",
        "numberOfBytes": "20"
      },
      "t_mapping(t_address,t_mapping(t_address,t_uint256))": {
        "encoding": "mapping",
        "key": "t_address",
        "label": "mapping(address => mapping(address => uint256))",
        "numberOfBytes": "32",
        "value": "t_mapping(t_address,t_uint256)"
      },
      "t_mapping(t_address,t_uint256)": {
        "encoding": "mapping",
        "key": "t_address",
        "label": "mapping(address => uint256)",
        "numberOfBytes": "32",
        "value": "t_uint256"
      },
      "t_mapping(t_bytes32,t_uint256)": {
        "encoding": "mapping",
        "key": "t_bytes32",
        "label": "mapping(bytes32 => uint256)",
        "numberOfBytes": "32",
        "value": "t_uint256"
      },
      "t_string_storage": {
        "encoding": "bytes",
        "label": "string",
        "numberOfBytes": "32"
      },
      "t_struct(AddressSet)2337_storage": {
        "encoding": "inplace",
        "label": "struct EnumerableSetUpgradeable.AddressSet",
        "members": [
          {
            "astId": 2336,
            "contract": "contracts/BaluniV1Router.sol:BaluniV1Router",
            "label": "_inner",
            "offset": 0,
            "slot": "0",
            "type": "t_struct(Set)2036_storage"
          }
        ],
        "numberOfBytes": "64"
      },
      "t_struct(Set)2036_storage": {
        "encoding": "inplace",
        "label": "struct EnumerableSetUpgradeable.Set",
        "members": [
          {
            "astId": 2031,
            "contract": "contracts/BaluniV1Router.sol:BaluniV1Router",
            "label": "_values",
            "offset": 0,
            "slot": "0",
            "type": "t_array(t_bytes32)dyn_storage"
          },
          {
            "astId": 2035,
            "contract": "contracts/BaluniV1Router.sol:BaluniV1Router",
            "label": "_indexes",
            "offset": 0,
            "slot": "1",
            "type": "t_mapping(t_bytes32,t_uint256)"
          }
        ],
        "numberOfBytes": "64"
      },
      "t_uint256": {
        "encoding": "inplace",
        "label": "uint256",
        "numberOfBytes": "32"
      }
    }
  }
}