{
  "address": "0x1440e91162A7De5c4868B3fFe2fD44f2f0cB9166",
  "abi": [
    {
      "inputs": [
        {
          "internalType": "address",
          "name": "_oracle",
          "type": "address"
        },
        {
          "internalType": "address",
          "name": "_rebalancer",
          "type": "address"
        },
        {
          "internalType": "address",
          "name": "_asset1",
          "type": "address"
        },
        {
          "internalType": "address",
          "name": "_asset2",
          "type": "address"
        }
      ],
      "stateMutability": "nonpayable",
      "type": "constructor"
    },
    {
      "inputs": [
        {
          "internalType": "address",
          "name": "target",
          "type": "address"
        }
      ],
      "name": "AddressEmptyCode",
      "type": "error"
    },
    {
      "inputs": [
        {
          "internalType": "address",
          "name": "account",
          "type": "address"
        }
      ],
      "name": "AddressInsufficientBalance",
      "type": "error"
    },
    {
      "inputs": [
        {
          "internalType": "address",
          "name": "spender",
          "type": "address"
        },
        {
          "internalType": "uint256",
          "name": "allowance",
          "type": "uint256"
        },
        {
          "internalType": "uint256",
          "name": "needed",
          "type": "uint256"
        }
      ],
      "name": "ERC20InsufficientAllowance",
      "type": "error"
    },
    {
      "inputs": [
        {
          "internalType": "address",
          "name": "sender",
          "type": "address"
        },
        {
          "internalType": "uint256",
          "name": "balance",
          "type": "uint256"
        },
        {
          "internalType": "uint256",
          "name": "needed",
          "type": "uint256"
        }
      ],
      "name": "ERC20InsufficientBalance",
      "type": "error"
    },
    {
      "inputs": [
        {
          "internalType": "address",
          "name": "approver",
          "type": "address"
        }
      ],
      "name": "ERC20InvalidApprover",
      "type": "error"
    },
    {
      "inputs": [
        {
          "internalType": "address",
          "name": "receiver",
          "type": "address"
        }
      ],
      "name": "ERC20InvalidReceiver",
      "type": "error"
    },
    {
      "inputs": [
        {
          "internalType": "address",
          "name": "sender",
          "type": "address"
        }
      ],
      "name": "ERC20InvalidSender",
      "type": "error"
    },
    {
      "inputs": [
        {
          "internalType": "address",
          "name": "spender",
          "type": "address"
        }
      ],
      "name": "ERC20InvalidSpender",
      "type": "error"
    },
    {
      "inputs": [],
      "name": "FailedInnerCall",
      "type": "error"
    },
    {
      "inputs": [],
      "name": "ReentrancyGuardReentrantCall",
      "type": "error"
    },
    {
      "inputs": [
        {
          "internalType": "address",
          "name": "token",
          "type": "address"
        }
      ],
      "name": "SafeERC20FailedOperation",
      "type": "error"
    },
    {
      "anonymous": false,
      "inputs": [
        {
          "indexed": true,
          "internalType": "address",
          "name": "owner",
          "type": "address"
        },
        {
          "indexed": true,
          "internalType": "address",
          "name": "spender",
          "type": "address"
        },
        {
          "indexed": false,
          "internalType": "uint256",
          "name": "value",
          "type": "uint256"
        }
      ],
      "name": "Approval",
      "type": "event"
    },
    {
      "anonymous": false,
      "inputs": [
        {
          "indexed": true,
          "internalType": "address",
          "name": "from",
          "type": "address"
        },
        {
          "indexed": true,
          "internalType": "address",
          "name": "to",
          "type": "address"
        },
        {
          "indexed": false,
          "internalType": "uint256",
          "name": "value",
          "type": "uint256"
        }
      ],
      "name": "Transfer",
      "type": "event"
    },
    {
      "inputs": [],
      "name": "SWAP_FEE_BPS",
      "outputs": [
        {
          "internalType": "uint256",
          "name": "",
          "type": "uint256"
        }
      ],
      "stateMutability": "view",
      "type": "function"
    },
    {
      "inputs": [
        {
          "internalType": "address",
          "name": "owner",
          "type": "address"
        },
        {
          "internalType": "address",
          "name": "spender",
          "type": "address"
        }
      ],
      "name": "allowance",
      "outputs": [
        {
          "internalType": "uint256",
          "name": "",
          "type": "uint256"
        }
      ],
      "stateMutability": "view",
      "type": "function"
    },
    {
      "inputs": [
        {
          "internalType": "address",
          "name": "spender",
          "type": "address"
        },
        {
          "internalType": "uint256",
          "name": "value",
          "type": "uint256"
        }
      ],
      "name": "approve",
      "outputs": [
        {
          "internalType": "bool",
          "name": "",
          "type": "bool"
        }
      ],
      "stateMutability": "nonpayable",
      "type": "function"
    },
    {
      "inputs": [],
      "name": "asset1",
      "outputs": [
        {
          "internalType": "contract IERC20",
          "name": "",
          "type": "address"
        }
      ],
      "stateMutability": "view",
      "type": "function"
    },
    {
      "inputs": [],
      "name": "asset2",
      "outputs": [
        {
          "internalType": "contract IERC20",
          "name": "",
          "type": "address"
        }
      ],
      "stateMutability": "view",
      "type": "function"
    },
    {
      "inputs": [
        {
          "internalType": "address",
          "name": "account",
          "type": "address"
        }
      ],
      "name": "balanceOf",
      "outputs": [
        {
          "internalType": "uint256",
          "name": "",
          "type": "uint256"
        }
      ],
      "stateMutability": "view",
      "type": "function"
    },
    {
      "inputs": [],
      "name": "decimals",
      "outputs": [
        {
          "internalType": "uint8",
          "name": "",
          "type": "uint8"
        }
      ],
      "stateMutability": "view",
      "type": "function"
    },
    {
      "inputs": [],
      "name": "name",
      "outputs": [
        {
          "internalType": "string",
          "name": "",
          "type": "string"
        }
      ],
      "stateMutability": "view",
      "type": "function"
    },
    {
      "inputs": [],
      "name": "oracle",
      "outputs": [
        {
          "internalType": "contract IOracle",
          "name": "",
          "type": "address"
        }
      ],
      "stateMutability": "view",
      "type": "function"
    },
    {
      "inputs": [
        {
          "internalType": "uint256",
          "name": "amount1",
          "type": "uint256"
        },
        {
          "internalType": "uint256",
          "name": "amount2",
          "type": "uint256"
        }
      ],
      "name": "provideLiquidity",
      "outputs": [],
      "stateMutability": "nonpayable",
      "type": "function"
    },
    {
      "inputs": [],
      "name": "rebalancer",
      "outputs": [
        {
          "internalType": "contract IBaluniV1Rebalancer",
          "name": "",
          "type": "address"
        }
      ],
      "stateMutability": "view",
      "type": "function"
    },
    {
      "inputs": [
        {
          "internalType": "uint256",
          "name": "share",
          "type": "uint256"
        }
      ],
      "name": "removeLiquidity",
      "outputs": [],
      "stateMutability": "nonpayable",
      "type": "function"
    },
    {
      "inputs": [
        {
          "internalType": "address",
          "name": "fromToken",
          "type": "address"
        },
        {
          "internalType": "address",
          "name": "toToken",
          "type": "address"
        },
        {
          "internalType": "uint256",
          "name": "amount",
          "type": "uint256"
        }
      ],
      "name": "swap",
      "outputs": [],
      "stateMutability": "nonpayable",
      "type": "function"
    },
    {
      "inputs": [],
      "name": "symbol",
      "outputs": [
        {
          "internalType": "string",
          "name": "",
          "type": "string"
        }
      ],
      "stateMutability": "view",
      "type": "function"
    },
    {
      "inputs": [],
      "name": "totalSupply",
      "outputs": [
        {
          "internalType": "uint256",
          "name": "",
          "type": "uint256"
        }
      ],
      "stateMutability": "view",
      "type": "function"
    },
    {
      "inputs": [
        {
          "internalType": "address",
          "name": "to",
          "type": "address"
        },
        {
          "internalType": "uint256",
          "name": "value",
          "type": "uint256"
        }
      ],
      "name": "transfer",
      "outputs": [
        {
          "internalType": "bool",
          "name": "",
          "type": "bool"
        }
      ],
      "stateMutability": "nonpayable",
      "type": "function"
    },
    {
      "inputs": [
        {
          "internalType": "address",
          "name": "from",
          "type": "address"
        },
        {
          "internalType": "address",
          "name": "to",
          "type": "address"
        },
        {
          "internalType": "uint256",
          "name": "value",
          "type": "uint256"
        }
      ],
      "name": "transferFrom",
      "outputs": [
        {
          "internalType": "bool",
          "name": "",
          "type": "bool"
        }
      ],
      "stateMutability": "nonpayable",
      "type": "function"
    }
  ],
  "transactionHash": "0x5234819b060694905d3684e3fc254e623cb528cd2ff089058dfac30dc0a34860",
  "args": [
    "0x0AdDd25a91563696D8567Df78D5A01C9a991F9B8",
    "0x7Ed16f194faCD6eAaB72cdd847b2bEcc13C240EC",
    "0xc2132d05d31c914a87c6611c10748aeb04b58e8f",
    "0x2791Bca1f2de4661ED88A30C99A7a9449Aa84174"
  ],
  "numDeployments": 5,
  "solcInputHash": "5fc4d782ec805cfd046f4b32ce21bff6",
  "bytecode": "0x60806040908082523461044857608081611b6880380380916100218285610467565b833981010312610448576100348161048a565b60209161004283820161048a565b9061005a606061005387840161048a565b920161048a565b928551916100678361044c565b600f83526e042616c756e6920537461626c654c5608c1b8684015286519261008e8461044c565b600a845269042414c554e492d534c560b41b8785015280516001600160401b0390818111610350576003908154906001948583811c9316801561043e575b8c84101461042a5781908c601f948581116103d9575b50508c9084831160011461036f575f92610364575b50505f1982851b1c191690851b1782555b86519283116103505760049687548581811c91168015610346575b8c82101461033357908b828487969594116102de575b50508b91841160011461027a575f9361026f575b505082841b925f19911b1c19161784555b60055560018060a01b038080951692818060018060a01b03199486866006541617600655169788856007541617600755168360085416176008551690600954161760095585519063095ea7b360e01b908183528383015285826044815f8019998a60248401525af180156102655786946044935f92610248575b50806008541690600654169689519788968795865285015260248401525af1801561023e57610210575b82516116b190816104b78239f35b8161022f92903d10610237575b6102278183610467565b81019061049e565b505f80610202565b503d61021d565b83513d5f823e3d90fd5b61025e90873d8911610237576102278183610467565b505f6101d8565b87513d5f823e3d90fd5b015191505f8061014d565b5f8981528c812087965093929190601f198616908e5b8282106102c757505085116102ae575b50505050811b01845561015e565b01519060f8845f19921b161c191690555f8080806102a0565b83850151875589989096019593840193018e610290565b909192939450895f5283825f209181880160051c830193881061032a575b9188918897969594930160051c01915b82811061031c57508d9150610139565b5f815587965088910161030c565b925081926102fc565b602289634e487b7160e01b5f525260245ffd5b90607f1690610123565b634e487b7160e01b5f52604160045260245ffd5b015190505f806100f7565b879350908d91601f198416875f52835f20935f905b8282106103b857505084116103a1575b505050811b018255610108565b01515f1983871b60f8161c191690555f8080610394565b91929395968291958786015181550195019301908f918a9695949392610384565b90919250855f5284825f209181860160051c8301938610610421575b918991869594930160051c01915b82811061041357508e91506100e2565b5f8155859450899101610403565b925081926103f5565b634e487b7160e01b5f52602260045260245ffd5b92607f16926100cc565b5f80fd5b604081019081106001600160401b0382111761035057604052565b601f909101601f19168101906001600160401b0382119082101761035057604052565b51906001600160a01b038216820361044857565b9081602091031261044857518015158103610448579056fe6080604090808252600480361015610015575f80fd5b5f3560e01c91826301d22ccd14610e185750816306fdde0314610d24578163095ea7b314610c7c57816318160ddd14610c5e57816323b872dd14610b7d578163313ce56714610b6257816367a6c44014610b4757816370a0823114610b115781637a16af7f146108c75781637cd5f3f91461089f5781637dc0d1d01461087757816395d89b41146107755781639c8f9f2314610320578163a9059cbb146102f0578163dd62ed3e146102a3578163df791e5014610106575063e9423bf2146100db575f80fd5b34610102575f3660031901126101025760085490516001600160a01b039091168152602090f35b5f80fd5b82346101025761011536610e7b565b90919361012061103b565b6007546001600160a01b03868116918116828114908115610295575b81610271575b501561023a578416948582146101f85783156101b6575082610167913090339061105e565b601e820290828204601e036101a357509161018e61019c9592612710610194950490610f23565b916113dd565b90339061138d565b6001600555005b601190634e487b7160e01b5f525260245ffd5b5162461bcd60e51b8152602081840181905260248201527f416d6f756e74206d7573742062652067726561746572207468616e207a65726f6044820152606490fd5b5162461bcd60e51b8152602081840152601a60248201527f43616e6e6f742073776170207468652073616d6520746f6b656e0000000000006044820152606490fd5b855162461bcd60e51b815260208185015260116024820152702ab739bab83837b93a32b2103a37b5b2b760791b6044820152606490fd5b86831690811491508115610287575b5088610142565b905081600854161488610280565b60085483168414915061013c565b82346101025780600319360112610102576102bc610e65565b906024356001600160a01b038181169182900361010257602093165f5260018352815f20905f528252805f20549051908152f35b823461010257806003193601126101025760209061031961030f610e65565b6024359033610f61565b5160018152f35b905034610102576020918260031936011261010257813561033f61103b565b335f525f845280825f20541061073e5760025460075483516370a0823160e01b808252308783015290966001600160a01b0395909390928616918489602481865afa988915610625575f9961070f575b50835163313ce56760e01b808252999086818b81885afa9081156106b5576103c66103d193926103cb925f916106f2575b50611357565b61137c565b90610f30565b9087600854168551918252308a8301528682602481845afa9081156106b55785905f926106bf575b61040393506113dd565b84518a815286818b81885afa9081156106b557610447610451946104416104979897956103cb6103c661044c978f978f5f92610698575b5050611357565b90610f02565b610f30565b610f43565b600954845163802431fb60e01b81526001600160a01b038416818b01818152602081019190915260016040820152929a9094909287928692908b16918391829160600190565b03915afa928315610625575f93610669575b50835181815285818a81865afa90811561065f579060ff915f91610642575b50166012019060ff821161062f5785908986518095819382525afa91821561062557916104ff9160ff935f926105f6575b50611368565b16604d81116105e3576105239161044c61051c92600a0a8a610f30565b8097610f23565b9433156105ce57335f525f8352815f2054908482106105a35750927fddf252ad1be2c89b69c2b068fc378daa952ba7f163c4a11628f55a4df523b3ef61059b97935f93836105909733875286845203818620558360025403600255519283523392a333836007541661138d565b33906008541661138d565b61019c611171565b825163391434e360e21b81523391810191825260208201929092526040810185905281906060010390fd5b5f6024925191634b637e8f60e11b8352820152fd5b601187634e487b7160e01b5f525260245ffd5b610617919250873d891161061e575b61060f8183610ee0565b81019061133e565b905f6104f9565b503d610605565b84513d5f823e3d90fd5b601189634e487b7160e01b5f525260245ffd5b6106599150873d891161061e5761060f8183610ee0565b5f6104c8565b85513d5f823e3d90fd5b9092508481813d8311610691575b6106818183610ee0565b810103126101025751915f6104a9565b503d610677565b6106ae9250803d1061061e5761060f8183610ee0565b5f8f61043a565b86513d5f823e3d90fd5b9150508682813d83116106eb575b6106d78183610ee0565b8101031261010257846104039251916103f9565b503d6106cd565b61070991508a3d8c1161061e5761060f8183610ee0565b5f6103c0565b9098508481813d8311610737575b6107278183610ee0565b810103126101025751975f61038f565b503d61071d565b5091606492519162461bcd60e51b83528201526012602482015271496e73756666696369656e7420736861726560701b6044820152fd5b8234610102575f366003190112610102578051905f9280549060018260011c916001841693841561086d575b602094858510811461085a5784885290811561083857506001146107df575b6107db86866107d1828b0383610ee0565b5191829182610e3b565b0390f35b5f9081529295507f8a35acfbc15ff81a39ae7d344fd709f28e8600b4aa8c65c6b64bfe7fe36bd19b5b82841061082557505050826107db946107d19282010194866107c0565b8054868501880152928601928101610808565b60ff191687860152505050151560051b83010192506107d1826107db866107c0565b602283634e487b7160e01b5f525260245ffd5b92607f16926107a1565b8234610102575f3660031901126101025760095490516001600160a01b039091168152602090f35b8234610102575f3660031901126101025760075490516001600160a01b039091168152602090f35b90503461010257816003193601126101025760246108e361103b565b60085483516370a0823160e01b80825230858301529094602093909290916001600160a01b0391859088908590829086165afa968715610625575f97610ae2575b5081600754169184519782895230888a015286898681875afa9081156106b55785969798995f92610aae575b5061096b9161095e91610f02565b938935903090339061105e565b61097c84353033846008541661105e565b610984611171565b868160085416875195868092868252308d8301525afa9384156106b5579087915f95610a7d575b506007541691858751809481938252308c8301525afa90811561065f575f91610a4e575b506109dd906109e393610f02565b90610f23565b933315610a3b57845f7fddf252ad1be2c89b69c2b068fc378daa952ba7f163c4a11628f55a4df523b3ef8686610a1b85600254610f02565b600255338452838252808420858154019055519384523393a36001600555005b5f83519163ec442f0560e01b8352820152fd5b90508581813d8311610a76575b610a658183610ee0565b8101031261010257516109e36109cf565b503d610a5b565b8281939296503d8311610aa7575b610a958183610ee0565b8101031261010257869051935f6109ab565b503d610a8b565b955090508785813d8111610adb575b610ac78183610ee0565b81010312610102579351859461095e610950565b503d610abd565b9096508481813d8311610b0a575b610afa8183610ee0565b810103126101025751955f610924565b503d610af0565b8234610102576020366003190112610102576020906001600160a01b03610b36610e65565b165f525f8252805f20549051908152f35b8234610102575f3660031901126101025760209051601e8152f35b8234610102575f366003190112610102576020905160128152f35b90503461010257610b8d36610e7b565b6001600160a01b0383165f81815260016020818152888320338452905290879020549295939493908301610bca575b602087610319888888610f61565b858310610c32578115610c1c573315610c0657505f90815260016020908152868220338352815290869020918590039091558290610319610bbc565b6024905f885191634a1406b160e11b8352820152fd5b6024905f88519163e602df0560e01b8352820152fd5b8651637dc7a0d960e11b8152339181019182526020820193909352604081018690528291506060010390fd5b8234610102575f366003190112610102576020906002549051908152f35b8234610102578060031936011261010257610c95610e65565b602435903315610d0e576001600160a01b0316908115610cf85760209350335f5260018452825f20825f52845280835f205582519081527f8c5be1e5ebec7d5bd14f71427d1e84f3dd0314c0f7b2291e5b200ac8c7c3b925843392a35160018152f35b8251634a1406b160e11b81525f81860152602490fd5b825163e602df0560e01b81525f81860152602490fd5b8234610102575f366003190112610102578051905f9260035460018160011c91600181168015610e0e575b6020948585108214610dfb5750838752908115610ddb5750600114610d81575b5050506107d1826107db940383610ee0565b60035f9081529295507fc2575a0e9e593c00f959f8c92f12db2869c3395a3b0502d05e2516446f71f85b5b828410610dc857505050826107db946107d19282010194610d6f565b8054868501880152928601928101610dac565b60ff1916868501525050151560051b83010192506107d1826107db610d6f565b602290634e487b7160e01b5f525260245ffd5b92607f1692610d4f565b34610102575f366003190112610102576006546001600160a01b03168152602090f35b602060409281835280519182918282860152018484015e5f828201840152601f01601f1916010190565b600435906001600160a01b038216820361010257565b6060906003190112610102576001600160a01b0390600435828116810361010257916024359081168103610102579060443590565b6060810190811067ffffffffffffffff821117610ecc57604052565b634e487b7160e01b5f52604160045260245ffd5b90601f8019910116810190811067ffffffffffffffff821117610ecc57604052565b91908201809211610f0f57565b634e487b7160e01b5f52601160045260245ffd5b91908203918211610f0f57565b81810292918115918404141715610f0f57565b8115610f4d570490565b634e487b7160e01b5f52601260045260245ffd5b916001600160a01b03808416928315611023571692831561100b57825f525f60205260405f205490828210610fd95750817fddf252ad1be2c89b69c2b068fc378daa952ba7f163c4a11628f55a4df523b3ef92602092855f525f84520360405f2055845f5260405f20818154019055604051908152a3565b60405163391434e360e21b81526001600160a01b03919091166004820152602481019190915260448101829052606490fd5b60405163ec442f0560e01b81525f6004820152602490fd5b604051634b637e8f60e11b81525f6004820152602490fd5b60026005541461104c576002600555565b604051633ee5aeb560e01b8152600490fd5b6040516323b872dd60e01b60208201526001600160a01b03928316602482015292909116604483015260648083019390935291815260a081019181831067ffffffffffffffff841117610ecc576110b792604052611568565b565b8051156110c65760200190565b634e487b7160e01b5f52603260045260245ffd5b8051600110156110c65760400190565b9081518082526020808093019301915f5b828110611109575050505090565b83516001600160a01b0316855293810193928101926001016110fb565b9081518082526020808093019301915f5b828110611145575050505090565b835185529381019392810192600101611137565b90816020910312610102575180151581036101025790565b6040805161117e81610eb0565b6002815260209180368484013780519161119783610eb0565b600283528136858501376007546001600160a01b039081166111b8836110b9565b5280600854166111c7836110da565b52611388806111d5866110b9565b526111df856110da565b526006548351638957698960e01b81526080600482015294911661120660848601846110ea565b94868180611221600319998a83820301602484015287611126565b603260448301523060648301520381855afa90811561065f575f91611308575b5060038110156112f45760020361125b575b505050505050565b6112885f87946112978751988996879586946303978bed60e31b86526080600487015260848601906110ea565b91848303016024850152611126565b30604483015230606483015203925af19081156112eb57506112bd575b80808080611253565b816112dc92903d106112e4575b6112d48183610ee0565b810190611159565b505f806112b4565b503d6112ca565b513d5f823e3d90fd5b634e487b7160e01b5f52602160045260245ffd5b90508681813d8311611337575b61131f8183610ee0565b8101031261010257516003811015610102575f611241565b503d611315565b90816020910312610102575160ff811681036101025790565b60ff166012039060ff8211610f0f57565b9060ff8091169116039060ff8211610f0f57565b60ff16604d8111610f0f57600a0a90565b60405163a9059cbb60e01b60208201526001600160a01b039092166024830152604480830193909352918152608081019167ffffffffffffffff831182841017610ecc576110b792604052611568565b6009546040805163802431fb60e01b81526001600160a01b039384166004820181905294841660248201819052600160448301529196959493602093919291849184916064918391165afa918215611504575f92611539575b50865193838560048163313ce56760e01b948582525afa94851561152f575f9561150e575b508390600489518094819382525afa92831561150457670de0b6b3a76400009697505f936114e5575b505060ff838116908316808211156114bc5750506114b2916114ac6103c6926114b896610f30565b93611368565b90610f43565b0490565b92939211156114d9576103cb916114ac6103c6926114b896610f30565b9150506114b891610f30565b6114fc929350803d1061061e5761060f8183610ee0565b905f80611484565b87513d5f823e3d90fd5b8491955061152890823d841161061e5761060f8183610ee0565b949061145b565b88513d5f823e3d90fd5b9091508281813d8311611561575b6115518183610ee0565b810103126101025751905f611436565b503d611547565b81516001600160a01b03909116915f91829160200182855af13d1561160c573d67ffffffffffffffff8111610ecc576115c391604051916115b36020601f19601f8401160184610ee0565b82523d5f602084013e5b83611618565b80519081151591826115f1575b50506115d95750565b60249060405190635274afe760e01b82526004820152fd5b6116049250602080918301019101611159565b155f806115d0565b6115c3906060906115bd565b9061163f575080511561162d57805190602001fd5b604051630a12f52160e11b8152600490fd5b81511580611672575b611650575090565b604051639996b31560e01b81526001600160a01b039091166004820152602490fd5b50803b1561164856fea2646970667358221220806fbc5a5252e3811ca2c0244c69452d5fdb03199d06a98b5446d030ba287ce264736f6c63430008190033",
  "devdoc": {
    "errors": {
      "AddressEmptyCode(address)": [
        {
          "details": "There's no code at `target` (it is not a contract)."
        }
      ],
      "AddressInsufficientBalance(address)": [
        {
          "details": "The ETH balance of the account is not enough to perform the operation."
        }
      ],
      "ERC20InsufficientAllowance(address,uint256,uint256)": [
        {
          "details": "Indicates a failure with the `spender`s `allowance`. Used in transfers.",
          "params": {
            "allowance": "Amount of tokens a `spender` is allowed to operate with.",
            "needed": "Minimum amount required to perform a transfer.",
            "spender": "Address that may be allowed to operate on tokens without being their owner."
          }
        }
      ],
      "ERC20InsufficientBalance(address,uint256,uint256)": [
        {
          "details": "Indicates an error related to the current `balance` of a `sender`. Used in transfers.",
          "params": {
            "balance": "Current balance for the interacting account.",
            "needed": "Minimum amount required to perform a transfer.",
            "sender": "Address whose tokens are being transferred."
          }
        }
      ],
      "ERC20InvalidApprover(address)": [
        {
          "details": "Indicates a failure with the `approver` of a token to be approved. Used in approvals.",
          "params": {
            "approver": "Address initiating an approval operation."
          }
        }
      ],
      "ERC20InvalidReceiver(address)": [
        {
          "details": "Indicates a failure with the token `receiver`. Used in transfers.",
          "params": {
            "receiver": "Address to which tokens are being transferred."
          }
        }
      ],
      "ERC20InvalidSender(address)": [
        {
          "details": "Indicates a failure with the token `sender`. Used in transfers.",
          "params": {
            "sender": "Address whose tokens are being transferred."
          }
        }
      ],
      "ERC20InvalidSpender(address)": [
        {
          "details": "Indicates a failure with the `spender` to be approved. Used in approvals.",
          "params": {
            "spender": "Address that may be allowed to operate on tokens without being their owner."
          }
        }
      ],
      "FailedInnerCall()": [
        {
          "details": "A call to an address target failed. The target may have reverted."
        }
      ],
      "ReentrancyGuardReentrantCall()": [
        {
          "details": "Unauthorized reentrant call."
        }
      ],
      "SafeERC20FailedOperation(address)": [
        {
          "details": "An operation with an ERC20 token failed."
        }
      ]
    },
    "events": {
      "Approval(address,address,uint256)": {
        "details": "Emitted when the allowance of a `spender` for an `owner` is set by a call to {approve}. `value` is the new allowance."
      },
      "Transfer(address,address,uint256)": {
        "details": "Emitted when `value` tokens are moved from one account (`from`) to another (`to`). Note that `value` may be zero."
      }
    },
    "kind": "dev",
    "methods": {
      "allowance(address,address)": {
        "details": "See {IERC20-allowance}."
      },
      "approve(address,uint256)": {
        "details": "See {IERC20-approve}. NOTE: If `value` is the maximum `uint256`, the allowance is not updated on `transferFrom`. This is semantically equivalent to an infinite approval. Requirements: - `spender` cannot be the zero address."
      },
      "balanceOf(address)": {
        "details": "See {IERC20-balanceOf}."
      },
      "decimals()": {
        "details": "Returns the number of decimals used to get its user representation. For example, if `decimals` equals `2`, a balance of `505` tokens should be displayed to a user as `5.05` (`505 / 10 ** 2`). Tokens usually opt for a value of 18, imitating the relationship between Ether and Wei. This is the default value returned by this function, unless it's overridden. NOTE: This information is only used for _display_ purposes: it in no way affects any of the arithmetic of the contract, including {IERC20-balanceOf} and {IERC20-transfer}."
      },
      "name()": {
        "details": "Returns the name of the token."
      },
      "symbol()": {
        "details": "Returns the symbol of the token, usually a shorter version of the name."
      },
      "totalSupply()": {
        "details": "See {IERC20-totalSupply}."
      },
      "transfer(address,uint256)": {
        "details": "See {IERC20-transfer}. Requirements: - `to` cannot be the zero address. - the caller must have a balance of at least `value`."
      },
      "transferFrom(address,address,uint256)": {
        "details": "See {IERC20-transferFrom}. Emits an {Approval} event indicating the updated allowance. This is not required by the EIP. See the note at the beginning of {ERC20}. NOTE: Does not update the allowance if the current allowance is the maximum `uint256`. Requirements: - `from` and `to` cannot be the zero address. - `from` must have a balance of at least `value`. - the caller must have allowance for ``from``'s tokens of at least `value`."
      }
    },
    "version": 1
  },
  "userdoc": {
    "kind": "user",
    "methods": {},
    "version": 1
  },
  "storageLayout": {
    "storage": [
      {
        "astId": 159,
        "contract": "contracts/BaluniV1StablePool.sol:BaluniV1StablePool",
        "label": "_balances",
        "offset": 0,
        "slot": "0",
        "type": "t_mapping(t_address,t_uint256)"
      },
      {
        "astId": 165,
        "contract": "contracts/BaluniV1StablePool.sol:BaluniV1StablePool",
        "label": "_allowances",
        "offset": 0,
        "slot": "1",
        "type": "t_mapping(t_address,t_mapping(t_address,t_uint256))"
      },
      {
        "astId": 167,
        "contract": "contracts/BaluniV1StablePool.sol:BaluniV1StablePool",
        "label": "_totalSupply",
        "offset": 0,
        "slot": "2",
        "type": "t_uint256"
      },
      {
        "astId": 169,
        "contract": "contracts/BaluniV1StablePool.sol:BaluniV1StablePool",
        "label": "_name",
        "offset": 0,
        "slot": "3",
        "type": "t_string_storage"
      },
      {
        "astId": 171,
        "contract": "contracts/BaluniV1StablePool.sol:BaluniV1StablePool",
        "label": "_symbol",
        "offset": 0,
        "slot": "4",
        "type": "t_string_storage"
      },
      {
        "astId": 1375,
        "contract": "contracts/BaluniV1StablePool.sol:BaluniV1StablePool",
        "label": "_status",
        "offset": 0,
        "slot": "5",
        "type": "t_uint256"
      },
      {
        "astId": 1466,
        "contract": "contracts/BaluniV1StablePool.sol:BaluniV1StablePool",
        "label": "rebalancer",
        "offset": 0,
        "slot": "6",
        "type": "t_contract(IBaluniV1Rebalancer)2173"
      },
      {
        "astId": 1469,
        "contract": "contracts/BaluniV1StablePool.sol:BaluniV1StablePool",
        "label": "asset1",
        "offset": 0,
        "slot": "7",
        "type": "t_contract(IERC20)729"
      },
      {
        "astId": 1472,
        "contract": "contracts/BaluniV1StablePool.sol:BaluniV1StablePool",
        "label": "asset2",
        "offset": 0,
        "slot": "8",
        "type": "t_contract(IERC20)729"
      },
      {
        "astId": 1475,
        "contract": "contracts/BaluniV1StablePool.sol:BaluniV1StablePool",
        "label": "oracle",
        "offset": 0,
        "slot": "9",
        "type": "t_contract(IOracle)1455"
      }
    ],
    "types": {
      "t_address": {
        "encoding": "inplace",
        "label": "address",
        "numberOfBytes": "20"
      },
      "t_contract(IBaluniV1Rebalancer)2173": {
        "encoding": "inplace",
        "label": "contract IBaluniV1Rebalancer",
        "numberOfBytes": "20"
      },
      "t_contract(IERC20)729": {
        "encoding": "inplace",
        "label": "contract IERC20",
        "numberOfBytes": "20"
      },
      "t_contract(IOracle)1455": {
        "encoding": "inplace",
        "label": "contract IOracle",
        "numberOfBytes": "20"
      },
      "t_mapping(t_address,t_mapping(t_address,t_uint256))": {
        "encoding": "mapping",
        "key": "t_address",
        "label": "mapping(address => mapping(address => uint256))",
        "numberOfBytes": "32",
        "value": "t_mapping(t_address,t_uint256)"
      },
      "t_mapping(t_address,t_uint256)": {
        "encoding": "mapping",
        "key": "t_address",
        "label": "mapping(address => uint256)",
        "numberOfBytes": "32",
        "value": "t_uint256"
      },
      "t_string_storage": {
        "encoding": "bytes",
        "label": "string",
        "numberOfBytes": "32"
      },
      "t_uint256": {
        "encoding": "inplace",
        "label": "uint256",
        "numberOfBytes": "32"
      }
    }
  }
}