{
  "address": "0x9D35715856fe73D2908BE995137850593FB97a7b",
  "abi": [
    {
      "inputs": [],
      "stateMutability": "nonpayable",
      "type": "constructor"
    },
    {
      "inputs": [
        {
          "internalType": "address",
          "name": "target",
          "type": "address"
        }
      ],
      "name": "AddressEmptyCode",
      "type": "error"
    },
    {
      "inputs": [
        {
          "internalType": "address",
          "name": "implementation",
          "type": "address"
        }
      ],
      "name": "ERC1967InvalidImplementation",
      "type": "error"
    },
    {
      "inputs": [],
      "name": "ERC1967NonPayable",
      "type": "error"
    },
    {
      "inputs": [
        {
          "internalType": "address",
          "name": "spender",
          "type": "address"
        },
        {
          "internalType": "uint256",
          "name": "allowance",
          "type": "uint256"
        },
        {
          "internalType": "uint256",
          "name": "needed",
          "type": "uint256"
        }
      ],
      "name": "ERC20InsufficientAllowance",
      "type": "error"
    },
    {
      "inputs": [
        {
          "internalType": "address",
          "name": "sender",
          "type": "address"
        },
        {
          "internalType": "uint256",
          "name": "balance",
          "type": "uint256"
        },
        {
          "internalType": "uint256",
          "name": "needed",
          "type": "uint256"
        }
      ],
      "name": "ERC20InsufficientBalance",
      "type": "error"
    },
    {
      "inputs": [
        {
          "internalType": "address",
          "name": "approver",
          "type": "address"
        }
      ],
      "name": "ERC20InvalidApprover",
      "type": "error"
    },
    {
      "inputs": [
        {
          "internalType": "address",
          "name": "receiver",
          "type": "address"
        }
      ],
      "name": "ERC20InvalidReceiver",
      "type": "error"
    },
    {
      "inputs": [
        {
          "internalType": "address",
          "name": "sender",
          "type": "address"
        }
      ],
      "name": "ERC20InvalidSender",
      "type": "error"
    },
    {
      "inputs": [
        {
          "internalType": "address",
          "name": "spender",
          "type": "address"
        }
      ],
      "name": "ERC20InvalidSpender",
      "type": "error"
    },
    {
      "inputs": [],
      "name": "FailedInnerCall",
      "type": "error"
    },
    {
      "inputs": [],
      "name": "InvalidInitialization",
      "type": "error"
    },
    {
      "inputs": [],
      "name": "NotInitializing",
      "type": "error"
    },
    {
      "inputs": [],
      "name": "ReentrancyGuardReentrantCall",
      "type": "error"
    },
    {
      "inputs": [],
      "name": "UUPSUnauthorizedCallContext",
      "type": "error"
    },
    {
      "inputs": [
        {
          "internalType": "bytes32",
          "name": "slot",
          "type": "bytes32"
        }
      ],
      "name": "UUPSUnsupportedProxiableUUID",
      "type": "error"
    },
    {
      "anonymous": false,
      "inputs": [
        {
          "indexed": true,
          "internalType": "address",
          "name": "owner",
          "type": "address"
        },
        {
          "indexed": true,
          "internalType": "address",
          "name": "spender",
          "type": "address"
        },
        {
          "indexed": false,
          "internalType": "uint256",
          "name": "value",
          "type": "uint256"
        }
      ],
      "name": "Approval",
      "type": "event"
    },
    {
      "anonymous": false,
      "inputs": [
        {
          "indexed": false,
          "internalType": "uint64",
          "name": "version",
          "type": "uint64"
        }
      ],
      "name": "Initialized",
      "type": "event"
    },
    {
      "anonymous": false,
      "inputs": [
        {
          "indexed": true,
          "internalType": "address",
          "name": "user",
          "type": "address"
        },
        {
          "indexed": false,
          "internalType": "uint256[]",
          "name": "amounts",
          "type": "uint256[]"
        },
        {
          "indexed": false,
          "internalType": "uint256",
          "name": "sharesMinted",
          "type": "uint256"
        }
      ],
      "name": "LiquidityAdded",
      "type": "event"
    },
    {
      "anonymous": false,
      "inputs": [
        {
          "indexed": true,
          "internalType": "address",
          "name": "user",
          "type": "address"
        },
        {
          "indexed": false,
          "internalType": "uint256[]",
          "name": "amounts",
          "type": "uint256[]"
        },
        {
          "indexed": false,
          "internalType": "uint256",
          "name": "sharesBurned",
          "type": "uint256"
        }
      ],
      "name": "LiquidityRemoved",
      "type": "event"
    },
    {
      "anonymous": false,
      "inputs": [
        {
          "indexed": true,
          "internalType": "address",
          "name": "user",
          "type": "address"
        },
        {
          "indexed": false,
          "internalType": "uint256",
          "name": "asset1Amount",
          "type": "uint256"
        },
        {
          "indexed": false,
          "internalType": "uint256",
          "name": "asset2Amount",
          "type": "uint256"
        },
        {
          "indexed": false,
          "internalType": "uint256",
          "name": "sharesBurned",
          "type": "uint256"
        }
      ],
      "name": "LiquidityRemoved",
      "type": "event"
    },
    {
      "anonymous": false,
      "inputs": [
        {
          "indexed": true,
          "internalType": "address",
          "name": "by",
          "type": "address"
        },
        {
          "indexed": false,
          "internalType": "address[]",
          "name": "assets",
          "type": "address[]"
        }
      ],
      "name": "RebalancePerformed",
      "type": "event"
    },
    {
      "anonymous": false,
      "inputs": [
        {
          "indexed": true,
          "internalType": "address",
          "name": "user",
          "type": "address"
        },
        {
          "indexed": true,
          "internalType": "address",
          "name": "fromToken",
          "type": "address"
        },
        {
          "indexed": true,
          "internalType": "address",
          "name": "toToken",
          "type": "address"
        },
        {
          "indexed": false,
          "internalType": "uint256",
          "name": "amountIn",
          "type": "uint256"
        },
        {
          "indexed": false,
          "internalType": "uint256",
          "name": "amountOut",
          "type": "uint256"
        }
      ],
      "name": "Swap",
      "type": "event"
    },
    {
      "anonymous": false,
      "inputs": [
        {
          "indexed": true,
          "internalType": "address",
          "name": "from",
          "type": "address"
        },
        {
          "indexed": true,
          "internalType": "address",
          "name": "to",
          "type": "address"
        },
        {
          "indexed": false,
          "internalType": "uint256",
          "name": "value",
          "type": "uint256"
        }
      ],
      "name": "Transfer",
      "type": "event"
    },
    {
      "anonymous": false,
      "inputs": [
        {
          "indexed": true,
          "internalType": "address",
          "name": "implementation",
          "type": "address"
        }
      ],
      "name": "Upgraded",
      "type": "event"
    },
    {
      "inputs": [],
      "name": "ONE",
      "outputs": [
        {
          "internalType": "uint256",
          "name": "",
          "type": "uint256"
        }
      ],
      "stateMutability": "view",
      "type": "function"
    },
    {
      "inputs": [],
      "name": "SWAP_FEE_BPS",
      "outputs": [
        {
          "internalType": "uint256",
          "name": "",
          "type": "uint256"
        }
      ],
      "stateMutability": "view",
      "type": "function"
    },
    {
      "inputs": [],
      "name": "UPGRADE_INTERFACE_VERSION",
      "outputs": [
        {
          "internalType": "string",
          "name": "",
          "type": "string"
        }
      ],
      "stateMutability": "view",
      "type": "function"
    },
    {
      "inputs": [
        {
          "internalType": "uint256[]",
          "name": "amounts",
          "type": "uint256[]"
        }
      ],
      "name": "addLiquidity",
      "outputs": [
        {
          "internalType": "uint256",
          "name": "",
          "type": "uint256"
        }
      ],
      "stateMutability": "nonpayable",
      "type": "function"
    },
    {
      "inputs": [
        {
          "internalType": "address",
          "name": "owner",
          "type": "address"
        },
        {
          "internalType": "address",
          "name": "spender",
          "type": "address"
        }
      ],
      "name": "allowance",
      "outputs": [
        {
          "internalType": "uint256",
          "name": "",
          "type": "uint256"
        }
      ],
      "stateMutability": "view",
      "type": "function"
    },
    {
      "inputs": [
        {
          "internalType": "address",
          "name": "spender",
          "type": "address"
        },
        {
          "internalType": "uint256",
          "name": "value",
          "type": "uint256"
        }
      ],
      "name": "approve",
      "outputs": [
        {
          "internalType": "bool",
          "name": "",
          "type": "bool"
        }
      ],
      "stateMutability": "nonpayable",
      "type": "function"
    },
    {
      "inputs": [
        {
          "internalType": "uint256",
          "name": "",
          "type": "uint256"
        }
      ],
      "name": "assets",
      "outputs": [
        {
          "internalType": "address",
          "name": "",
          "type": "address"
        }
      ],
      "stateMutability": "view",
      "type": "function"
    },
    {
      "inputs": [
        {
          "internalType": "uint256",
          "name": "assetIndex",
          "type": "uint256"
        }
      ],
      "name": "assetsLiquidityInWNATIVE",
      "outputs": [
        {
          "internalType": "uint256",
          "name": "",
          "type": "uint256"
        }
      ],
      "stateMutability": "view",
      "type": "function"
    },
    {
      "inputs": [
        {
          "internalType": "address",
          "name": "account",
          "type": "address"
        }
      ],
      "name": "balanceOf",
      "outputs": [
        {
          "internalType": "uint256",
          "name": "",
          "type": "uint256"
        }
      ],
      "stateMutability": "view",
      "type": "function"
    },
    {
      "inputs": [
        {
          "internalType": "address",
          "name": "_newRebalancer",
          "type": "address"
        }
      ],
      "name": "changeRebalancer",
      "outputs": [],
      "stateMutability": "nonpayable",
      "type": "function"
    },
    {
      "inputs": [],
      "name": "decimals",
      "outputs": [
        {
          "internalType": "uint8",
          "name": "",
          "type": "uint8"
        }
      ],
      "stateMutability": "view",
      "type": "function"
    },
    {
      "inputs": [
        {
          "internalType": "uint256",
          "name": "share",
          "type": "uint256"
        }
      ],
      "name": "exit",
      "outputs": [],
      "stateMutability": "nonpayable",
      "type": "function"
    },
    {
      "inputs": [
        {
          "internalType": "uint256",
          "name": "share",
          "type": "uint256"
        },
        {
          "internalType": "address",
          "name": "recipient",
          "type": "address"
        }
      ],
      "name": "exitTo",
      "outputs": [],
      "stateMutability": "nonpayable",
      "type": "function"
    },
    {
      "inputs": [],
      "name": "factory",
      "outputs": [
        {
          "internalType": "address",
          "name": "",
          "type": "address"
        }
      ],
      "stateMutability": "view",
      "type": "function"
    },
    {
      "inputs": [
        {
          "internalType": "address",
          "name": "fromToken",
          "type": "address"
        },
        {
          "internalType": "address",
          "name": "toToken",
          "type": "address"
        },
        {
          "internalType": "uint256",
          "name": "amount",
          "type": "uint256"
        }
      ],
      "name": "getAmountOut",
      "outputs": [
        {
          "internalType": "uint256",
          "name": "",
          "type": "uint256"
        }
      ],
      "stateMutability": "view",
      "type": "function"
    },
    {
      "inputs": [],
      "name": "getAssets",
      "outputs": [
        {
          "internalType": "address[]",
          "name": "",
          "type": "address[]"
        }
      ],
      "stateMutability": "view",
      "type": "function"
    },
    {
      "inputs": [],
      "name": "getDeviation",
      "outputs": [
        {
          "internalType": "bool[]",
          "name": "directions",
          "type": "bool[]"
        },
        {
          "internalType": "uint256[]",
          "name": "deviations",
          "type": "uint256[]"
        }
      ],
      "stateMutability": "view",
      "type": "function"
    },
    {
      "inputs": [],
      "name": "getReserves",
      "outputs": [
        {
          "internalType": "uint256[]",
          "name": "",
          "type": "uint256[]"
        }
      ],
      "stateMutability": "view",
      "type": "function"
    },
    {
      "inputs": [],
      "name": "getUnitPriceWNATIVE",
      "outputs": [
        {
          "internalType": "uint256",
          "name": "",
          "type": "uint256"
        }
      ],
      "stateMutability": "view",
      "type": "function"
    },
    {
      "inputs": [],
      "name": "getWeights",
      "outputs": [
        {
          "internalType": "uint256[]",
          "name": "",
          "type": "uint256[]"
        }
      ],
      "stateMutability": "view",
      "type": "function"
    },
    {
      "inputs": [
        {
          "internalType": "address",
          "name": "_rebalancer",
          "type": "address"
        },
        {
          "internalType": "address[]",
          "name": "_assets",
          "type": "address[]"
        },
        {
          "internalType": "uint256[]",
          "name": "_weights",
          "type": "uint256[]"
        },
        {
          "internalType": "uint256",
          "name": "_trigger",
          "type": "uint256"
        }
      ],
      "name": "initialize",
      "outputs": [],
      "stateMutability": "nonpayable",
      "type": "function"
    },
    {
      "inputs": [],
      "name": "name",
      "outputs": [
        {
          "internalType": "string",
          "name": "",
          "type": "string"
        }
      ],
      "stateMutability": "view",
      "type": "function"
    },
    {
      "inputs": [
        {
          "internalType": "address",
          "name": "_sender",
          "type": "address"
        }
      ],
      "name": "performRebalanceIfNeeded",
      "outputs": [],
      "stateMutability": "nonpayable",
      "type": "function"
    },
    {
      "inputs": [],
      "name": "proxiableUUID",
      "outputs": [
        {
          "internalType": "bytes32",
          "name": "",
          "type": "bytes32"
        }
      ],
      "stateMutability": "view",
      "type": "function"
    },
    {
      "inputs": [],
      "name": "rebalancer",
      "outputs": [
        {
          "internalType": "contract IBaluniV1Rebalancer",
          "name": "",
          "type": "address"
        }
      ],
      "stateMutability": "view",
      "type": "function"
    },
    {
      "inputs": [
        {
          "internalType": "address",
          "name": "_rebalancer",
          "type": "address"
        },
        {
          "internalType": "address[]",
          "name": "_assets",
          "type": "address[]"
        },
        {
          "internalType": "uint256[]",
          "name": "_weights",
          "type": "uint256[]"
        },
        {
          "internalType": "uint256",
          "name": "_trigger",
          "type": "uint256"
        },
        {
          "internalType": "uint64",
          "name": "_version",
          "type": "uint64"
        }
      ],
      "name": "reinitialize",
      "outputs": [],
      "stateMutability": "nonpayable",
      "type": "function"
    },
    {
      "inputs": [
        {
          "internalType": "address",
          "name": "fromToken",
          "type": "address"
        },
        {
          "internalType": "address",
          "name": "toToken",
          "type": "address"
        },
        {
          "internalType": "uint256",
          "name": "amount",
          "type": "uint256"
        }
      ],
      "name": "swap",
      "outputs": [
        {
          "internalType": "uint256",
          "name": "",
          "type": "uint256"
        }
      ],
      "stateMutability": "nonpayable",
      "type": "function"
    },
    {
      "inputs": [],
      "name": "symbol",
      "outputs": [
        {
          "internalType": "string",
          "name": "",
          "type": "string"
        }
      ],
      "stateMutability": "view",
      "type": "function"
    },
    {
      "inputs": [],
      "name": "totalLiquidityInWNATIVE",
      "outputs": [
        {
          "internalType": "uint256",
          "name": "",
          "type": "uint256"
        }
      ],
      "stateMutability": "view",
      "type": "function"
    },
    {
      "inputs": [],
      "name": "totalSupply",
      "outputs": [
        {
          "internalType": "uint256",
          "name": "",
          "type": "uint256"
        }
      ],
      "stateMutability": "view",
      "type": "function"
    },
    {
      "inputs": [
        {
          "internalType": "address",
          "name": "to",
          "type": "address"
        },
        {
          "internalType": "uint256",
          "name": "value",
          "type": "uint256"
        }
      ],
      "name": "transfer",
      "outputs": [
        {
          "internalType": "bool",
          "name": "",
          "type": "bool"
        }
      ],
      "stateMutability": "nonpayable",
      "type": "function"
    },
    {
      "inputs": [
        {
          "internalType": "address",
          "name": "from",
          "type": "address"
        },
        {
          "internalType": "address",
          "name": "to",
          "type": "address"
        },
        {
          "internalType": "uint256",
          "name": "value",
          "type": "uint256"
        }
      ],
      "name": "transferFrom",
      "outputs": [
        {
          "internalType": "bool",
          "name": "",
          "type": "bool"
        }
      ],
      "stateMutability": "nonpayable",
      "type": "function"
    },
    {
      "inputs": [],
      "name": "trigger",
      "outputs": [
        {
          "internalType": "uint256",
          "name": "",
          "type": "uint256"
        }
      ],
      "stateMutability": "view",
      "type": "function"
    },
    {
      "inputs": [
        {
          "internalType": "address",
          "name": "newImplementation",
          "type": "address"
        },
        {
          "internalType": "bytes",
          "name": "data",
          "type": "bytes"
        }
      ],
      "name": "upgradeToAndCall",
      "outputs": [],
      "stateMutability": "payable",
      "type": "function"
    },
    {
      "inputs": [
        {
          "internalType": "uint256",
          "name": "",
          "type": "uint256"
        }
      ],
      "name": "weights",
      "outputs": [
        {
          "internalType": "uint256",
          "name": "",
          "type": "uint256"
        }
      ],
      "stateMutability": "view",
      "type": "function"
    }
  ],
  "transactionHash": "0x26be079f421c4b0ca281a174c31c47ca73464c1baf70975aa739970bb1f28348",
  "args": [],
  "numDeployments": 7,
  "solcInputHash": "4adf63cc3adbc52ac83cbd0a7f1248b6",
  "bytecode": "0x60a0806040523461012c57306080527ff0c57e16840df040f15088dc2f81fe391c3923bec73e23a9662efc9c229c6a0080549091604082901c60ff161591906001600160401b03821680159081610124575b600114908161011a575b159081610111575b5061010257506001600160401b031981166001178355816100e5575b506100a4575b6040516146ef90816101318239608051818181611b1f0152611c220152f35b68ff00000000000000001981541690557fc7f505b2f371ae2175ee4913f4499e1f2633a7b5936321eed1cdaeb6115181d2602060405160018152a15f610085565b6001600160481b031916680100000000000000011782555f61007f565b63f92ee8a960e01b8152600490fd5b9050155f610063565b303b15915061005b565b849150610051565b5f80fdfe6080806040526004361015610012575f80fd5b5f905f3560e01c90816301d22ccd146132d05750806306fdde03146131bf5780630902f1ac146130cf5780630918281b14613065578063095ea7b314612f5557806318160ddd14612f1957806322acb86714612e8d57806323b872dd14612e6a578063313ce56714612e4f57806346448548146124aa5780634aa06652146124975780634de59aa314611e8e5780634f1ef28614611b9957806352d1902d14611af85780635568081a1461185357806367a6c4401461183757806367e4ac2c1461175d57806370a08231146116f95780637a419317146116d65780637f8661a1146113105780637fec8d38146112f25780638299cc00146112ce57806389ab35321461112a57806395d89b411461100a578063a9059cbb14610fd8578063ad3cb1cc14610f7e578063b5f163ff14610f45578063c2ee3a0814610f27578063c45a015514610ef3578063ce83b10c14610ad7578063cf35bdd014610a87578063d1f51274146105bc578063dd62ed3e14610528578063df791e501461023c5763ed61d2fe1461019f575f80fd5b34610239576020600319360112610239576004356101bb6142cd565b809150518210156101db576020916101d291613698565b51604051908152f35b60646040517f08c379a000000000000000000000000000000000000000000000000000000000815260206004820152601360248201527f496e76616c696420617373657420696e646578000000000000000000000000006044820152fd5b80fd5b50346102395761024b366133c0565b909291610256613fc1565b73ffffffffffffffffffffffffffffffffffffffff918285169282169161027f848414156139eb565b81159561028c8715613a50565b6040517f23b872dd000000000000000000000000000000000000000000000000000000008152336004820152306024820152604481018490526020979088816064818b8a5af1801561051d57610500575b50601e840290848204601e1417156104d3579061030261271061030894930485613aec565b91613b37565b936040517f70a082310000000000000000000000000000000000000000000000000000000081523060048201528681602481885afa9081156104c8579086918391610493575b5010610435576040517fa9059cbb0000000000000000000000000000000000000000000000000000000081523360048201526024810186905290868260448184895af190811561042957506103fc575b5060405190815283858201527fcd3829a3813dc3cdd188fd3d01dcf3268c16be2fdd2dd21d0665418816e4606260403392a460017f9b779b17422d0df92223018b32b4d1fa46e071723d6817e2486d003becc55f0055604051908152f35b61041b90863d8811610422575b610413818361341e565b8101906139d3565b505f61039e565b503d610409565b604051903d90823e3d90fd5b606486604051907f08c379a00000000000000000000000000000000000000000000000000000000082526004820152601660248201527f496e73756666696369656e74204c6971756964697479000000000000000000006044820152fd5b809250888092503d83116104c1575b6104ac818361341e565b810103126104bd578590515f61034e565b5f80fd5b503d6104a2565b6040513d84823e3d90fd5b6024877f4e487b710000000000000000000000000000000000000000000000000000000081526011600452fd5b61051690893d8b1161042257610413818361341e565b505f6102dd565b6040513d8a823e3d90fd5b50346102395760406003193601126102395761054261337a565b73ffffffffffffffffffffffffffffffffffffffff6105a661056261339d565b9273ffffffffffffffffffffffffffffffffffffffff165f527f52c63247e1f47db19d5ce0460030c497f067ca4cebf71ba98eeadabe20bace0160205260405f2090565b91165f52602052602060405f2054604051908152f35b50346102395760a0600319360112610239576105d661337a565b67ffffffffffffffff919060248035848111610a83576105fa903690600401613477565b9160448035868111610a7f576106149036906004016134f4565b9160843593878516809503610a7b577ff0c57e16840df040f15088dc2f81fe391c3923bec73e23a9662efc9c229c6a009384549860ff8a60401c168015610a6f575b610a45577fffffffffffffffffffffffffffffffffffffffffffffff0000000000000000009987680100000000000000009b8c9216171786557fffffffffffffffffffffffff00000000000000000000000000000000000000003381600554161760055573ffffffffffffffffffffffffffffffffffffffff809516908a5416178955875199818b116109e557808b116109e55760019a6106fc818d818154915561388b565b6020809a018c8c528c8c5b838110610a11575050505082519182116109e55781116109b95790816107378b96959493600254816002556138cb565b88820160028b528a5b828110610988575050670de0b6b3a764000060045550929350909187895b6107be575b887fc7f505b2f371ae2175ee4913f4499e1f2633a7b5936321eed1cdaeb6115181d28989896064356003557fffffffffffffffffffffffffffffffffffffffffffffff00ffffffffffffffff8154169055604051908152a180f35b89548110156109835783806107e66107d58461358e565b929054600393841b1c161515613909565b6107fb6107f38486613698565b51151561396e565b6108048361358e565b90548c546040517fdd62ed3e00000000000000000000000000000000000000000000000000000000815230600482015290891673ffffffffffffffffffffffffffffffffffffffff811660248301529290931b1c9290921691908a81604481865afa90811561097857928c928c928f9a99989796958591610941575b5015610897575b505050508501909192939461075e565b88995060409891929394959697985194859384927f095ea7b300000000000000000000000000000000000000000000000000000000845260048401527fffffffffffffffffffffffffffffffffffffffffffffffffffffffffffffffff8a8401525af1801561093657918b9695949392918792610919575b8b91928b91610887565b61092f908b3d8d1161042257610413818361341e565b505f61090f565b6040513d8c823e3d90fd5b93929a5050925081813d8311610971575b61095c818361341e565b810103126104bd578c978c928c92515f610880565b503d610952565b6040513d8e823e3d90fd5b610763565b81517f405787fa12a823e0f2b7631cc41b3ba8828b3321ca811111fa75cd3aa3bb5ace820155908a01908701610740565b82897f4e487b710000000000000000000000000000000000000000000000000000000081526041600452fd5b838a7f4e487b710000000000000000000000000000000000000000000000000000000081526041600452fd5b8c89845116930192817fb10e2d527612073b26eecdfd717e6a320cf44b4afac2b0732d9fcbe2b7fa0cf60155018d90610707565b60046040517ff92ee8a9000000000000000000000000000000000000000000000000000000008152fd5b5086818b161015610656565b8680fd5b8580fd5b8380fd5b5034610239576020600319360112610239576004359060015482101561023957602073ffffffffffffffffffffffffffffffffffffffff610ac78461358e565b9190546040519260031b1c168152f35b503461023957604060031936011261023957600435610af461339d565b90610afd613fc1565b3383526020907f52c63247e1f47db19d5ce0460030c497f067ca4cebf71ba98eeadabe20bace008252610b368160408620541015613dc8565b7f52c63247e1f47db19d5ce0460030c497f067ca4cebf71ba98eeadabe20bace0254610b63811515613e2d565b600193610b708554613649565b92601e8102818104601e1482151715610ec657612710900492610b9e610b968584613aec565b923033613711565b50865490885b828110610df557505050610bb881306144af565b73ffffffffffffffffffffffffffffffffffffffff92600486858a5416604051928380927f3b19e84a0000000000000000000000000000000000000000000000000000000082525afa908115610dbb57610c6e9288918b93610dc6575b50604051809481927fa9059cbb0000000000000000000000000000000000000000000000000000000095868452600484016020909392919373ffffffffffffffffffffffffffffffffffffffff60408201951681520152565b03818c305af1918215610dbb578892610d9e575b509088905b610cf8575b5050917f0f74fe264fb7d04b4800409b8a3562eb271296e19c3ec8835639635b3e858c459391610cca93604051948594604086526040860190613347565b9684015216930390a27f9b779b17422d0df92223018b32b4d1fa46e071723d6817e2486d003becc55f005580f35b8754811015610d99579081878782878d8a610d21610d18610d5a9a61358e565b95905496613698565b5160405189815273ffffffffffffffffffffffffffffffffffffffff909416600485015260248401529197889485939184906044820190565b039460031b1c165af19081156109365789938492610d7c575b50019091610c87565b610d92908a3d8c1161042257610413818361341e565b505f610d73565b610c8c565b610db490883d8a1161042257610413818361341e565b505f610c82565b6040513d8b823e3d90fd5b610de7919350823d8411610dee575b610ddf818361341e565b810190613d48565b915f610c15565b503d610dd5565b80886024610e1773ffffffffffffffffffffffffffffffffffffffff9461358e565b9190549160405195869384927f70a0823100000000000000000000000000000000000000000000000000000000845230600485015260031b1c165afa918b8315610429578b938592889291610e8c575b50610e7b9291610e7691613862565b613ab5565b610e85828a613698565b5201610ba4565b94505050508882813d8311610ebf575b610ea6818361341e565b810103126104bd57905189919083908690610e7b610e67565b503d610e9c565b6024887f4e487b710000000000000000000000000000000000000000000000000000000081526011600452fd5b5034610239578060031936011261023957602073ffffffffffffffffffffffffffffffffffffffff60055416604051908152f35b50346102395780600319360112610239576020600454604051908152f35b50346102395760206003193601126102395760043590600254821015610239576020610f70836135c3565b90546040519160031b1c8152f35b5034610239578060031936011261023957610fd4604051610f9e81613402565b600581527f352e302e300000000000000000000000000000000000000000000000000000006020820152604051918291826132ff565b0390f35b503461023957604060031936011261023957610fff610ff561337a565b6024359033613e92565b602060405160018152f35b503461023957806003193601126102395760405190807f52c63247e1f47db19d5ce0460030c497f067ca4cebf71ba98eeadabe20bace04805461104c816135f8565b808652926020926001928084169081156110dc5750600114611085575b610fd4876110798189038261341e565b604051918291826132ff565b815293507f46a2803e59a4de4e7a4c574b1243f25977ac4c77d5a1a4a609b5394cebb4a2aa5b8385106110c95750505050810160200161107982610fd45f80611069565b80548686018401529382019381016110ab565b9050879650610fd4979450602093506110799592507fffffffffffffffffffffffffffffffffffffffffffffffffffffffffffffff0091501682840152151560051b82010192935f80611069565b50346102395780600319360112610239576111436142cd565b9190600192600154906111558261345f565b94611163604051968761341e565b82865261116f8361345f565b926020947fffffffffffffffffffffffffffffffffffffffffffffffffffffffffffffffe06020890195013686376111a682613649565b93875b8381106112015750505050604051958694604086019160408752518092526060860194965b8281106111e9578680610fd488888382036020850152613347565b875115158652968101968896509481019483016111ce565b61121281839b979996989a9b613698565b51612710908181029181830414901517156112a15790611233848993613ab5565b61123c826135c3565b90549060031b1c908181115f1461127c579061125791613aec565b611261828b613698565b528161126d8289613698565b525b01989795939694986111a9565b61128591613aec565b61128f828b613698565b528a61129b8289613698565b5261126f565b60248b7f4e487b710000000000000000000000000000000000000000000000000000000081526011600452fd5b503461023957806003193601126102395760206112e96142cd565b50604051908152f35b50346102395780600319360112610239576020600354604051908152f35b5034610239576020806003193601126116d2576004359061132f613fc1565b3383527f52c63247e1f47db19d5ce0460030c497f067ca4cebf71ba98eeadabe20bace0081526113658260408520541015613dc8565b7f52c63247e1f47db19d5ce0460030c497f067ca4cebf71ba98eeadabe20bace0254611392811515613e2d565b60019261139f8454613649565b91601e8202828104601e14831517156104d3576127109004906113cd6113c58385613aec565b933033613711565b50855490875b828110611608575050506113e782306144af565b600473ffffffffffffffffffffffffffffffffffffffff8581895416604051938480927f3b19e84a0000000000000000000000000000000000000000000000000000000082525afa91821561051d5761149c9387918a946115e9575b50604051809581927fa9059cbb0000000000000000000000000000000000000000000000000000000096878452600484016020909392919373ffffffffffffffffffffffffffffffffffffffff60408201951681520152565b03818b305af192831561051d5787936115cc575b50879493925b611524575b50507f0f74fe264fb7d04b4800409b8a3562eb271296e19c3ec8835639635b3e858c4592506114f560405192604084526040840190613347565b938201528033930390a27f9b779b17422d0df92223018b32b4d1fa46e071723d6817e2486d003becc55f005580f35b86548510156115c757848661153d61158795969761358e565b9590549561154b848a613698565b518c86604051998a809681958c835233600484016020909392919373ffffffffffffffffffffffffffffffffffffffff60408201951681520152565b039460031b1c165af1908115610dbb57889485926115aa575b50019493926114b6565b6115c090893d8b1161042257610413818361341e565b505f6115a0565b6114bb565b6115e290873d891161042257610413818361341e565b505f6114b0565b611601919450823d8411610dee57610ddf818361341e565b925f611443565b8087602461162a73ffffffffffffffffffffffffffffffffffffffff9461358e565b9190549160405195869384927f70a0823100000000000000000000000000000000000000000000000000000000845230600485015260031b1c165afa8015610936578684918b948d91611698575b506116879291610e7691613862565b6116918289613698565b52016113d3565b94505050508782813d83116116cb575b6116b2818361341e565b810103126104bd57905188919083908790611687611678565b503d6116a8565b5080fd5b503461023957806003193601126102395760206116f1613d81565b604051908152f35b503461023957602060031936011261023957604060209173ffffffffffffffffffffffffffffffffffffffff61172d61337a565b1681527f52c63247e1f47db19d5ce0460030c497f067ca4cebf71ba98eeadabe20bace0083522054604051908152f35b503461023957806003193601126102395760405180916001906001549384845260208094018095600184527fb10e2d527612073b26eecdfd717e6a320cf44b4afac2b0732d9fcbe2b7fa0cf690845b81811061180e57505050816117c291038261341e565b6040519380850191818652518092526040850195925b8281106117e55785870386f35b835173ffffffffffffffffffffffffffffffffffffffff168752958101959281019284016117d8565b825473ffffffffffffffffffffffffffffffffffffffff168452928701929186019186016117ac565b50346102395780600319360112610239576020604051601e8152f35b50346104bd57602060031981813601126104bd5761186f61337a565b7f52c63247e1f47db19d5ce0460030c497f067ca4cebf71ba98eeadabe20bace02546103e890818102918183041490151715611acb576127106118f191049173ffffffffffffffffffffffffffffffffffffffff165f527f52c63247e1f47db19d5ce0460030c497f067ca4cebf71ba98eeadabe20bace0060205260405f2090565b5410611a6d5773ffffffffffffffffffffffffffffffffffffffff5f541660035491813b156104bd57916040519283917f84db1dfb00000000000000000000000000000000000000000000000000000000835260a0600484015261195760a4840161443c565b918383030160248401528560025492838152019160025f527f405787fa12a823e0f2b7631cc41b3ba8828b3321ca811111fa75cd3aa3bb5ace905f5b88828210611a5657505050505f838195938193306044840152306064840152608483015203925af18015611a4b57611a01575b507f279b343370f587af7fb675ae7c8578e9c8abcc373236ad02c501a4771fe7a7b8604051828152806119fb3394820161443c565b0390a280f35b90915067ffffffffffffffff8111611a1e576040525f905f6119c6565b7f4e487b71000000000000000000000000000000000000000000000000000000005f52604160045260245ffd5b6040513d5f823e3d90fd5b835486528896509094019360019283019201611993565b606482604051907f08c379a00000000000000000000000000000000000000000000000000000000082526004820152601160248201527f556e646572203525204c502073686172650000000000000000000000000000006044820152fd5b7f4e487b71000000000000000000000000000000000000000000000000000000005f52601160045260245ffd5b346104bd575f6003193601126104bd5773ffffffffffffffffffffffffffffffffffffffff7f0000000000000000000000000000000000000000000000000000000000000000163003611b6f5760206040517f360894a13ba1a3210667c828492db98dca3e2076cc3735a920a3ca505d382bbc8152f35b60046040517fe07c8dba000000000000000000000000000000000000000000000000000000008152fd5b60406003193601126104bd57611bad61337a565b602490813567ffffffffffffffff81116104bd57366023820112156104bd578060040135611bda81613554565b92611be8604051948561341e565b81845260209182850193368783830101116104bd57815f928886930187378601015273ffffffffffffffffffffffffffffffffffffffff807f000000000000000000000000000000000000000000000000000000000000000016803014908115611e60575b50611b6f57611c61816005541633146136ac565b8116936040517f52d1902d0000000000000000000000000000000000000000000000000000000081528381600481895afa5f9181611e31575b50611ccf578686604051907f4c9c8ce30000000000000000000000000000000000000000000000000000000082526004820152fd5b8590877f360894a13ba1a3210667c828492db98dca3e2076cc3735a920a3ca505d382bbc91828103611e035750843b15611dd45750817fffffffffffffffffffffffff0000000000000000000000000000000000000000825416179055604051907fbc7cd75a20ee27fd9adebab32041f755214dbc6bffa90cc0225b39da2e5c2d3b5f80a2815115611da057505f611d959481925190845af4903d15611d97573d611d7981613554565b90611d87604051928361341e565b81525f81943d92013e614619565b005b60609250614619565b935050505034611dac57005b807fb398979f0000000000000000000000000000000000000000000000000000000060049252fd5b82604051907f4c9c8ce30000000000000000000000000000000000000000000000000000000082526004820152fd5b604051907faa1d49a40000000000000000000000000000000000000000000000000000000082526004820152fd5b9091508481813d8311611e59575b611e49818361341e565b810103126104bd57519088611c9a565b503d611e3f565b9050817f360894a13ba1a3210667c828492db98dca3e2076cc3735a920a3ca505d382bbc5416141587611c4d565b346104bd5760206003193601126104bd5767ffffffffffffffff80600435116104bd573660236004350112156104bd5760043560040135116104bd573660246004356004013560051b6004350101116104bd57611ee9613fc1565b6001546004356004013503612439577f52c63247e1f47db19d5ce0460030c497f067ca4cebf71ba98eeadabe20bace02545f906004602073ffffffffffffffffffffffffffffffffffffffff5f5416604051928380927fbc06e81d0000000000000000000000000000000000000000000000000000000082525afa908115611a4b5773ffffffffffffffffffffffffffffffffffffffff916020915f9161241c575b506004604051809481937f313ce567000000000000000000000000000000000000000000000000000000008352165afa8015611a4b5760ff915f916123ed575b501660120360ff8111611acb57611fe190613b26565b505f915b6001548310156120fb5773ffffffffffffffffffffffffffffffffffffffff61200d8461358e565b90549060031b1c1690600435600401358410156120ce576040517f23b872dd00000000000000000000000000000000000000000000000000000000815233600480830191909152306024808401919091529035600587901b0101356044820152906020826064815f875af18015611a4b576001936120a7936120a1926120af575b5060248760051b6004350101359061401b565b90613d74565b920191611fe5565b6120c79060203d60201161042257610413818361341e565b508761208e565b7f4e487b71000000000000000000000000000000000000000000000000000000005f52603260045260245ffd5b90806123d157505b801561237357335f9081527f52c63247e1f47db19d5ce0460030c497f067ca4cebf71ba98eeadabe20bace006020526040902054331561234357612220829161216d837f52c63247e1f47db19d5ce0460030c497f067ca4cebf71ba98eeadabe20bace0254613d74565b7f52c63247e1f47db19d5ce0460030c497f067ca4cebf71ba98eeadabe20bace0255335f527f52c63247e1f47db19d5ce0460030c497f067ca4cebf71ba98eeadabe20bace0060205260405f208381540190556040518381525f7fddf252ad1be2c89b69c2b068fc378daa952ba7f163c4a11628f55a4df523b3ef60203393a3335f9081527f52c63247e1f47db19d5ce0460030c497f067ca4cebf71ba98eeadabe20bace006020526040902054613aec565b036122e55760405190604082526004356004013560408301527f07ffffffffffffffffffffffffffffffffffffffffffffffffffffffffffffff60043560040135116104bd576020916004356004013560051b602460043501606083013781838201527fb60e972ce1258a7280a8e34204b1df88fcabbe8aea805e46bc1566cdc6e6e14833916060816004356004013560051b8101030190a260017f9b779b17422d0df92223018b32b4d1fa46e071723d6817e2486d003becc55f0055604051908152f35b60646040517f08c379a000000000000000000000000000000000000000000000000000000000815260206004820152600b60248201527f4d696e74204661696c65640000000000000000000000000000000000000000006044820152fd5b60246040517fec442f050000000000000000000000000000000000000000000000000000000081525f6004820152fd5b60646040517f08c379a000000000000000000000000000000000000000000000000000000000815260206004820152600d60248201527f4d696e74207174792069732030000000000000000000000000000000000000006044820152fd5b90610e766123e8926123e16142cd565b5092613862565b612103565b61240f915060203d602011612415575b612407818361341e565b810190613af9565b84611fcb565b503d6123fd565b6124339150823d8411610dee57610ddf818361341e565b85611f8b565b60646040517f08c379a000000000000000000000000000000000000000000000000000000000815260206004820152601760248201527f416d6f756e7473206c656e677468206d69736d617463680000000000000000006044820152fd5b346104bd5760206116f1610302366133c0565b346104bd5760806003193601126104bd576124c361337a565b60243567ffffffffffffffff81116104bd576124e3903690600401613477565b60443567ffffffffffffffff81116104bd576125039036906004016134f4565b7ff0c57e16840df040f15088dc2f81fe391c3923bec73e23a9662efc9c229c6a0080549267ffffffffffffffff841680159081612e3f575b6001149081612e35575b159081612e2c575b50610a455760017fffffffffffffffffffffffffffffffffffffffffffffffff0000000000000000851617825560ff8460401c1615612df7575b60405161259381613402565b600981527f42616c756e69204c5000000000000000000000000000000000000000000000006020820152604051906125ca82613402565b600982527f42414c554e492d4c50000000000000000000000000000000000000000000000060208301526125fc6145c0565b6126046145c0565b80519067ffffffffffffffff8211611a1e5781906126427f52c63247e1f47db19d5ce0460030c497f067ca4cebf71ba98eeadabe20bace03546135f8565b601f8111612d8a575b50602090601f8311600114612c6a575f92612c5f575b50507fffffffffffffffffffffffffffffffffffffffffffffffffffffffffffffffff8260011b9260031b1c1916177f52c63247e1f47db19d5ce0460030c497f067ca4cebf71ba98eeadabe20bace03555b80519067ffffffffffffffff8211611a1e5781906126f17f52c63247e1f47db19d5ce0460030c497f067ca4cebf71ba98eeadabe20bace04546135f8565b601f8111612be7575b50602090601f8311600114612ac7575f92612abc575b50507fffffffffffffffffffffffffffffffffffffffffffffffffffffffffffffffff8260011b9260031b1c1916177f52c63247e1f47db19d5ce0460030c497f067ca4cebf71ba98eeadabe20bace04555b61276a6145c0565b6127726145c0565b60017f9b779b17422d0df92223018b32b4d1fa46e071723d6817e2486d003becc55f005561279e6145c0565b7fffffffffffffffffffffffff00000000000000000000000000000000000000003381600554161760055573ffffffffffffffffffffffffffffffffffffffff809616905f5416175f55805167ffffffffffffffff8111611a1e576801000000000000000091828211611a1e5760209061281e836001548160015561388b565b0160015f525f5b828110612a865750505082519067ffffffffffffffff8211611a1e578111611a1e5761285781600254816002556138cb565b6020830160025f525f5b828110612a5257505050670de0b6b3a76400006004555f5b6001548110156129ea5784806128916107d58461358e565b61289e6107f38487613698565b6128a78361358e565b90545f546040517fdd62ed3e000000000000000000000000000000000000000000000000000000008152306004820152908a1673ffffffffffffffffffffffffffffffffffffffff811660248301529290931b1c92909216929190602081604481875afa908115611a4b575f916129b8575b501561292b575b506001915001612879565b5f92604460209260405195869384927f095ea7b300000000000000000000000000000000000000000000000000000000845260048401527fffffffffffffffffffffffffffffffffffffffffffffffffffffffffffffffff60248401525af1918215611a4b5760019215612920576129b19060203d60201161042257610413818361341e565b5086612920565b90506020813d6020116129e2575b816129d36020938361341e565b810103126104bd575188612919565b3d91506129c6565b5060ff8360643560035560401c16156129ff57005b7fffffffffffffffffffffffffffffffffffffffffffffff00ffffffffffffffff81541690557fc7f505b2f371ae2175ee4913f4499e1f2633a7b5936321eed1cdaeb6115181d2602060405160018152a1005b60019060208351930192817f405787fa12a823e0f2b7631cc41b3ba8828b3321ca811111fa75cd3aa3bb5ace015501612861565b600190602089845116930192817fb10e2d527612073b26eecdfd717e6a320cf44b4afac2b0732d9fcbe2b7fa0cf6015501612825565b015190508780612710565b92507f52c63247e1f47db19d5ce0460030c497f067ca4cebf71ba98eeadabe20bace045f527f46a2803e59a4de4e7a4c574b1243f25977ac4c77d5a1a4a609b5394cebb4a2aa905f935b7fffffffffffffffffffffffffffffffffffffffffffffffffffffffffffffffe084168510612bcc5760019450837fffffffffffffffffffffffffffffffffffffffffffffffffffffffffffffffe0811610612b95575b505050811b017f52c63247e1f47db19d5ce0460030c497f067ca4cebf71ba98eeadabe20bace0455612762565b01517fffffffffffffffffffffffffffffffffffffffffffffffffffffffffffffffff60f88460031b161c19169055878080612b68565b81810151835560209485019460019093019290910190612b11565b612c4f907f52c63247e1f47db19d5ce0460030c497f067ca4cebf71ba98eeadabe20bace045f527f46a2803e59a4de4e7a4c574b1243f25977ac4c77d5a1a4a609b5394cebb4a2aa601f850160051c81019160208610612c55575b601f0160051c0190613875565b886126fa565b9091508190612c42565b015190508880612661565b92507f52c63247e1f47db19d5ce0460030c497f067ca4cebf71ba98eeadabe20bace035f527f2ae08a8e29253f69ac5d979a101956ab8f8d9d7ded63fa7a83b16fc47648eab0905f935b7fffffffffffffffffffffffffffffffffffffffffffffffffffffffffffffffe084168510612d6f5760019450837fffffffffffffffffffffffffffffffffffffffffffffffffffffffffffffffe0811610612d38575b505050811b017f52c63247e1f47db19d5ce0460030c497f067ca4cebf71ba98eeadabe20bace03556126b3565b01517fffffffffffffffffffffffffffffffffffffffffffffffffffffffffffffffff60f88460031b161c19169055888080612d0b565b81810151835560209485019460019093019290910190612cb4565b612df1907f52c63247e1f47db19d5ce0460030c497f067ca4cebf71ba98eeadabe20bace035f527f2ae08a8e29253f69ac5d979a101956ab8f8d9d7ded63fa7a83b16fc47648eab0601f850160051c81019160208610612c5557601f0160051c0190613875565b8961264b565b680100000000000000017fffffffffffffffffffffffffffffffffffffffffffffff0000000000000000008516178255612587565b9050158661254d565b303b159150612545565b604086901c60ff1615915061253b565b346104bd575f6003193601126104bd57602060405160128152f35b346104bd576020612e83612e7d366133c0565b91613711565b6040519015158152f35b346104bd575f6003193601126104bd57604051806002549182815260208091019260025f527f405787fa12a823e0f2b7631cc41b3ba8828b3321ca811111fa75cd3aa3bb5ace915f905b828210612f0257610fd485612eee8189038261341e565b604051918291602083526020830190613347565b835486529485019460019384019390910190612ed7565b346104bd575f6003193601126104bd5760207f52c63247e1f47db19d5ce0460030c497f067ca4cebf71ba98eeadabe20bace0254604051908152f35b346104bd5760406003193601126104bd57612f6e61337a565b6024359033156130355773ffffffffffffffffffffffffffffffffffffffff1690811561300557335f9081527f52c63247e1f47db19d5ce0460030c497f067ca4cebf71ba98eeadabe20bace0160205260409020825f526020528060405f20556040519081527f8c5be1e5ebec7d5bd14f71427d1e84f3dd0314c0f7b2291e5b200ac8c7c3b92560203392a3602060405160018152f35b60246040517f94280d620000000000000000000000000000000000000000000000000000000081525f6004820152fd5b60246040517fe602df050000000000000000000000000000000000000000000000000000000081525f6004820152fd5b346104bd5760206003193601126104bd5761307e61337a565b73ffffffffffffffffffffffffffffffffffffffff906130a3826005541633146136ac565b167fffffffffffffffffffffffff00000000000000000000000000000000000000005f5416175f555f80f35b346104bd575f6003193601126104bd57600180546130ec81613649565b905f5b81811061310c5760405160208082528190610fd490820186613347565b6131158161358e565b91905491604051907f70a082310000000000000000000000000000000000000000000000000000000082523060048301528160248173ffffffffffffffffffffffffffffffffffffffff602097889560031b1c165afa908115611a4b5786935f9261318e575b50506131878286613698565b52016130ef565b8194508092503d83116131b8575b6131a6818361341e565b810103126104bd57849151868061317b565b503d61319c565b346104bd575f6003193601126104bd576040515f7f52c63247e1f47db19d5ce0460030c497f067ca4cebf71ba98eeadabe20bace03805490613200826135f8565b80855291602091600191828116908115613285575060011461322d575b610fd4866110798188038261341e565b5f90815293507f2ae08a8e29253f69ac5d979a101956ab8f8d9d7ded63fa7a83b16fc47648eab05b8385106132725750505050810160200161107982610fd48561321d565b8054868601840152938201938101613255565b879650610fd4979450602093506110799592507fffffffffffffffffffffffffffffffffffffffffffffffffffffffffffffff0091501682840152151560051b82010192938561321d565b346104bd575f6003193601126104bd5760209073ffffffffffffffffffffffffffffffffffffffff5f54168152f35b7fffffffffffffffffffffffffffffffffffffffffffffffffffffffffffffffe0601f602060409481855280519182918282880152018686015e5f8582860101520116010190565b9081518082526020808093019301915f5b828110613366575050505090565b835185529381019392810192600101613358565b6004359073ffffffffffffffffffffffffffffffffffffffff821682036104bd57565b6024359073ffffffffffffffffffffffffffffffffffffffff821682036104bd57565b60031960609101126104bd5773ffffffffffffffffffffffffffffffffffffffff9060043582811681036104bd579160243590811681036104bd579060443590565b6040810190811067ffffffffffffffff821117611a1e57604052565b90601f7fffffffffffffffffffffffffffffffffffffffffffffffffffffffffffffffe0910116810190811067ffffffffffffffff821117611a1e57604052565b67ffffffffffffffff8111611a1e5760051b60200190565b9080601f830112156104bd5760209082356134918161345f565b9361349f604051958661341e565b81855260208086019260051b8201019283116104bd57602001905b8282106134c8575050505090565b813573ffffffffffffffffffffffffffffffffffffffff811681036104bd5781529083019083016134ba565b9080601f830112156104bd57602090823561350e8161345f565b9361351c604051958661341e565b81855260208086019260051b8201019283116104bd57602001905b828210613545575050505090565b81358152908301908301613537565b67ffffffffffffffff8111611a1e57601f017fffffffffffffffffffffffffffffffffffffffffffffffffffffffffffffffe01660200190565b6001548110156120ce5760015f527fb10e2d527612073b26eecdfd717e6a320cf44b4afac2b0732d9fcbe2b7fa0cf601905f90565b6002548110156120ce5760025f527f405787fa12a823e0f2b7631cc41b3ba8828b3321ca811111fa75cd3aa3bb5ace01905f90565b90600182811c9216801561363f575b602083101461361257565b7f4e487b71000000000000000000000000000000000000000000000000000000005f52602260045260245ffd5b91607f1691613607565b906136538261345f565b613660604051918261341e565b8281527fffffffffffffffffffffffffffffffffffffffffffffffffffffffffffffffe061368e829461345f565b0190602036910137565b80518210156120ce5760209160051b010190565b156136b357565b60646040517f08c379a000000000000000000000000000000000000000000000000000000000815260206004820152600c60248201527f4f6e6c7920466163746f727900000000000000000000000000000000000000006044820152fd5b919061375a8373ffffffffffffffffffffffffffffffffffffffff165f527f52c63247e1f47db19d5ce0460030c497f067ca4cebf71ba98eeadabe20bace0160205260405f2090565b335f5260205260405f2054927fffffffffffffffffffffffffffffffffffffffffffffffffffffffffffffffff840361379d575b6137989350613e92565b600190565b8284106138235773ffffffffffffffffffffffffffffffffffffffff8116156130355733156130055782613798946138128373ffffffffffffffffffffffffffffffffffffffff165f527f52c63247e1f47db19d5ce0460030c497f067ca4cebf71ba98eeadabe20bace0160205260405f2090565b335f526020520360405f205561378e565b6040517ffb8f41b20000000000000000000000000000000000000000000000000000000081523360048201526024810185905260448101849052606490fd5b81810292918115918404141715611acb57565b818110613880575050565b5f8155600101613875565b808210613896575050565b6138c99160015f527fb10e2d527612073b26eecdfd717e6a320cf44b4afac2b0732d9fcbe2b7fa0cf69182019101613875565b565b8082106138d6575050565b6138c99160025f527f405787fa12a823e0f2b7631cc41b3ba8828b3321ca811111fa75cd3aa3bb5ace9182019101613875565b1561391057565b60646040517f08c379a000000000000000000000000000000000000000000000000000000000815260206004820152601560248201527f496e76616c6964206173736574206164647265737300000000000000000000006044820152fd5b1561397557565b60646040517f08c379a000000000000000000000000000000000000000000000000000000000815260206004820152600e60248201527f496e76616c6964207765696768740000000000000000000000000000000000006044820152fd5b908160209103126104bd575180151581036104bd5790565b156139f257565b60646040517f08c379a000000000000000000000000000000000000000000000000000000000815260206004820152601a60248201527f43616e6e6f742073776170207468652073616d6520746f6b656e0000000000006044820152fd5b15613a5757565b60646040517f08c379a000000000000000000000000000000000000000000000000000000000815260206004820152602060248201527f416d6f756e74206d7573742062652067726561746572207468616e207a65726f6044820152fd5b8115613abf570490565b7f4e487b71000000000000000000000000000000000000000000000000000000005f52601260045260245ffd5b91908203918211611acb57565b908160209103126104bd575160ff811681036104bd5790565b9060ff8091169116039060ff8211611acb57565b60ff16604d8111611acb57600a0a90565b9073ffffffffffffffffffffffffffffffffffffffff80809216921692613b60838514156139eb565b801590613b6d8215613a50565b601e810291818304601e141715611acb57612710613b8c920490613aec565b92604051917f313ce56700000000000000000000000000000000000000000000000000000000938484526020918285600481875afa948515611a4b575f95613d29575b506040519586528286600481855afa958615611a4b575f96613d03575b5090606483925f54169460405195869384927f802431fb000000000000000000000000000000000000000000000000000000008452600484015260248301525f60448301525afa9182915f93613cd3575b5050613c4b57505050505f90565b9060ff831660ff82168181115f14613c93575050613c7f91613c85613c9095613c7f613c7a87613c8a96613b12565b613b26565b90613ab5565b613862565b91613b26565b90565b1015613cba57613c7f91613c85613c9095613cb4613c7a613c8a9588613b12565b90613862565b50613ccf9150670de0b6b3a764000092613862565b0490565b9080929350813d8311613cfc575b613ceb818361341e565b810103126104bd5751905f80613c3d565b503d613ce1565b8392919650613d20606491843d861161241557612407818361341e565b96919250613bec565b613d41919550833d851161241557612407818361341e565b935f613bcf565b908160209103126104bd575173ffffffffffffffffffffffffffffffffffffffff811681036104bd5790565b91908201809211611acb57565b613d896142cd565b507f52c63247e1f47db19d5ce0460030c497f067ca4cebf71ba98eeadabe20bace02548015613dc257610e76613c909260045490613862565b50505f90565b15613dcf57565b60646040517f08c379a000000000000000000000000000000000000000000000000000000000815260206004820152601260248201527f496e73756666696369656e7420736861726500000000000000000000000000006044820152fd5b15613e3457565b60646040517f08c379a000000000000000000000000000000000000000000000000000000000815260206004820152600c60248201527f4e6f206c697175696469747900000000000000000000000000000000000000006044820152fd5b9173ffffffffffffffffffffffffffffffffffffffff808416928315613f91571692831561234357825f527f52c63247e1f47db19d5ce0460030c497f067ca4cebf71ba98eeadabe20bace008060205260405f205491838310613f38575091806020927fddf252ad1be2c89b69c2b068fc378daa952ba7f163c4a11628f55a4df523b3ef94865f5284520360405f2055845f5260405f20818154019055604051908152a3565b6040517fe450d38c00000000000000000000000000000000000000000000000000000000815273ffffffffffffffffffffffffffffffffffffffff91909116600482015260248101929092525060448101829052606490fd5b60246040517f96c6fd1e0000000000000000000000000000000000000000000000000000000081525f6004820152fd5b7f9b779b17422d0df92223018b32b4d1fa46e071723d6817e2486d003becc55f006002815414613ff15760029055565b60046040517f3ee5aeb5000000000000000000000000000000000000000000000000000000008152fd5b73ffffffffffffffffffffffffffffffffffffffff91825f5416926040938451947f956fb51000000000000000000000000000000000000000000000000000000000865260209060049582888881875afa9788156142c3575f986142a2575b508416908051977f313ce56700000000000000000000000000000000000000000000000000000000808a52848a8a81875afa998a15614298575f9a614273575b5090888592845198899384928352165afa948515614269575f95614243575b50906044839251809581937f7de4fd100000000000000000000000000000000000000000000000000000000083528a8301525f60248301525afa9182915f93614213575b505061412c5750505050505f90565b9361414761413982613b26565b95610e768654978892613862565b9360ff8281169084168082111561417457505050610e7692613cb4613c7a613c90979694613c8594613b12565b929392811015614199575050610e7692613cb4613c7a613c90979694613c8594613b12565b9092509050601281036141b6575050613c909291610e7691613862565b670de0b6b3a76400000367ffffffffffffffff918282116141e75750610e7692613c90959492613c85921690613862565b6011907f4e487b71000000000000000000000000000000000000000000000000000000005f525260245ffd5b9080929350813d831161423c575b61422b818361341e565b810103126104bd5751905f8061411d565b503d614221565b8392919550614260604491843d861161241557612407818361341e565b959192506140d9565b50513d5f823e3d90fd5b8592919a5061428f8a91843d861161241557612407818361341e565b9a9192506140ba565b83513d5f823e3d90fd5b859198506142bc90843d8611610dee57610ddf818361341e565b979061407a565b82513d5f823e3d90fd5b5f906001916001546142de81613649565b935f915b8083106142f0575050509190565b90919273ffffffffffffffffffffffffffffffffffffffff6143118561358e565b90549060031b1c169060409182517f313ce567000000000000000000000000000000000000000000000000000000008152602060049181818481875afa801561443257614415575b508451917f70a0823100000000000000000000000000000000000000000000000000000000835230908301528082602481865afa94851561440c575090869392915f956143d6575b50506143cd92936143b19161401b565b6143bb878a613698565b526143c68689613698565b5190613d74565b930191906142e2565b819550809294503d8311614405575b6143ef818361341e565b810103126104bd579151918491806143cd6143a1565b503d6143e5565b513d5f823e3d90fd5b61442b90823d841161241557612407818361341e565b505f614359565b86513d5f823e3d90fd5b6001906001549182825260208092019260015f527fb10e2d527612073b26eecdfd717e6a320cf44b4afac2b0732d9fcbe2b7fa0cf6925f905b82821061448457505050505090565b845473ffffffffffffffffffffffffffffffffffffffff168652948501949383019390830190614475565b919073ffffffffffffffffffffffffffffffffffffffff8316908115613f9157815f527f52c63247e1f47db19d5ce0460030c497f067ca4cebf71ba98eeadabe20bace008060205260405f2054948286106145695750817fddf252ad1be2c89b69c2b068fc378daa952ba7f163c4a11628f55a4df523b3ef925f959660209386885284520360408620557f52c63247e1f47db19d5ce0460030c497f067ca4cebf71ba98eeadabe20bace02818154039055604051908152a3565b6040517fe450d38c00000000000000000000000000000000000000000000000000000000815273ffffffffffffffffffffffffffffffffffffffff9190911660048201526024810186905260448101839052606490fd5b60ff7ff0c57e16840df040f15088dc2f81fe391c3923bec73e23a9662efc9c229c6a005460401c16156145ef57565b60046040517fd7e6bcf8000000000000000000000000000000000000000000000000000000008152fd5b90614658575080511561462e57805190602001fd5b60046040517f1425ea42000000000000000000000000000000000000000000000000000000008152fd5b815115806146b0575b614669575090565b60249073ffffffffffffffffffffffffffffffffffffffff604051917f9996b315000000000000000000000000000000000000000000000000000000008352166004820152fd5b50803b1561466156fea26469706673582212201184595f8c7c7c99a67ab69e50b78d49d39dc26c0d8e5514df7f8017227a08b164736f6c63430008190033",
  "devdoc": {
    "errors": {
      "AddressEmptyCode(address)": [
        {
          "details": "There's no code at `target` (it is not a contract)."
        }
      ],
      "ERC1967InvalidImplementation(address)": [
        {
          "details": "The `implementation` of the proxy is invalid."
        }
      ],
      "ERC1967NonPayable()": [
        {
          "details": "An upgrade function sees `msg.value > 0` that may be lost."
        }
      ],
      "ERC20InsufficientAllowance(address,uint256,uint256)": [
        {
          "details": "Indicates a failure with the `spender`s `allowance`. Used in transfers.",
          "params": {
            "allowance": "Amount of tokens a `spender` is allowed to operate with.",
            "needed": "Minimum amount required to perform a transfer.",
            "spender": "Address that may be allowed to operate on tokens without being their owner."
          }
        }
      ],
      "ERC20InsufficientBalance(address,uint256,uint256)": [
        {
          "details": "Indicates an error related to the current `balance` of a `sender`. Used in transfers.",
          "params": {
            "balance": "Current balance for the interacting account.",
            "needed": "Minimum amount required to perform a transfer.",
            "sender": "Address whose tokens are being transferred."
          }
        }
      ],
      "ERC20InvalidApprover(address)": [
        {
          "details": "Indicates a failure with the `approver` of a token to be approved. Used in approvals.",
          "params": {
            "approver": "Address initiating an approval operation."
          }
        }
      ],
      "ERC20InvalidReceiver(address)": [
        {
          "details": "Indicates a failure with the token `receiver`. Used in transfers.",
          "params": {
            "receiver": "Address to which tokens are being transferred."
          }
        }
      ],
      "ERC20InvalidSender(address)": [
        {
          "details": "Indicates a failure with the token `sender`. Used in transfers.",
          "params": {
            "sender": "Address whose tokens are being transferred."
          }
        }
      ],
      "ERC20InvalidSpender(address)": [
        {
          "details": "Indicates a failure with the `spender` to be approved. Used in approvals.",
          "params": {
            "spender": "Address that may be allowed to operate on tokens without being their owner."
          }
        }
      ],
      "FailedInnerCall()": [
        {
          "details": "A call to an address target failed. The target may have reverted."
        }
      ],
      "InvalidInitialization()": [
        {
          "details": "The contract is already initialized."
        }
      ],
      "NotInitializing()": [
        {
          "details": "The contract is not initializing."
        }
      ],
      "ReentrancyGuardReentrantCall()": [
        {
          "details": "Unauthorized reentrant call."
        }
      ],
      "UUPSUnauthorizedCallContext()": [
        {
          "details": "The call is from an unauthorized context."
        }
      ],
      "UUPSUnsupportedProxiableUUID(bytes32)": [
        {
          "details": "The storage `slot` is unsupported as a UUID."
        }
      ]
    },
    "events": {
      "Approval(address,address,uint256)": {
        "details": "Emitted when the allowance of a `spender` for an `owner` is set by a call to {approve}. `value` is the new allowance."
      },
      "Initialized(uint64)": {
        "details": "Triggered when the contract has been initialized or reinitialized."
      },
      "Transfer(address,address,uint256)": {
        "details": "Emitted when `value` tokens are moved from one account (`from`) to another (`to`). Note that `value` may be zero."
      },
      "Upgraded(address)": {
        "details": "Emitted when the implementation is upgraded."
      }
    },
    "kind": "dev",
    "methods": {
      "addLiquidity(uint256[])": {
        "details": "Adds liquidity to the pool by transferring specified amounts of assets from the caller's address to the contract. The function calculates the received amount of each asset and mints new LP tokens proporzionalmente.",
        "params": {
          "amounts": "An array of amounts for each asset to be added as liquidity."
        },
        "returns": {
          "_0": "The amount of LP tokens minted and transferred to the caller."
        }
      },
      "allowance(address,address)": {
        "details": "See {IERC20-allowance}."
      },
      "approve(address,uint256)": {
        "details": "See {IERC20-approve}. NOTE: If `value` is the maximum `uint256`, the allowance is not updated on `transferFrom`. This is semantically equivalent to an infinite approval. Requirements: - `spender` cannot be the zero address."
      },
      "assetsLiquidityInWNATIVE(uint256)": {
        "details": "Returns the valuation of a specific asset in USD.",
        "params": {
          "assetIndex": "The index of the asset in the assets array."
        },
        "returns": {
          "_0": "The valuation of the specified asset in USD."
        }
      },
      "balanceOf(address)": {
        "details": "See {IERC20-balanceOf}."
      },
      "constructor": {
        "custom:oz-upgrades-unsafe-allow": "constructor"
      },
      "decimals()": {
        "details": "Returns the number of decimals used to get its user representation. For example, if `decimals` equals `2`, a balance of `505` tokens should be displayed to a user as `5.05` (`505 / 10 ** 2`). Tokens usually opt for a value of 18, imitating the relationship between Ether and Wei. This is the default value returned by this function, unless it's overridden. NOTE: This information is only used for _display_ purposes: it in no way affects any of the arithmetic of the contract, including {IERC20-balanceOf} and {IERC20-transfer}."
      },
      "exit(uint256)": {
        "details": "Allows a user to exit the pool by redeeming their share of assets.",
        "params": {
          "share": "The amount of shares to redeem. Requirements: - The caller must have a balance of shares greater than or equal to the specified amount. - The pool must have sufficient assets to cover the redeemed shares. Effects: - Decreases the caller's share balance by the specified amount. - Transfers the proportional amount of each asset in the pool to the caller. Emits: - LiquidityRemoved event with the caller's address and the redeemed share amount."
        }
      },
      "getAmountOut(address,address,uint256)": {
        "details": "Calculates the amount of `toToken` that will be received after swapping `fromToken` for `toToken`.",
        "params": {
          "amount": "The amount of `fromToken` being swapped.",
          "fromToken": "The address of the token being swapped from.",
          "toToken": "The address of the token being swapped to."
        },
        "returns": {
          "_0": "The amount of `toToken` that will be received after the swap."
        }
      },
      "getDeviation()": {
        "details": "Returns the deviation of the current weights of each asset from the target weights.",
        "returns": {
          "deviations": "An array of uint256 values representing the deviation of each asset's current weight from the target weight.",
          "directions": "An array of booleans indicating whether each current weight is greater than the target weight."
        }
      },
      "getReserves()": {
        "details": "Returns the current reserves of all assets held by the contract.",
        "returns": {
          "_0": "An array containing the balances of all assets respectively."
        }
      },
      "getUnitPriceWNATIVE()": {
        "details": "Returns the unit price of the pool. The unit price is calculated by dividing the total valuation of the pool by the total supply of tokens. If the total supply is 0, the unit price is 0.",
        "returns": {
          "_0": "The unit price of the pool in USD."
        }
      },
      "name()": {
        "details": "Returns the name of the token."
      },
      "performRebalanceIfNeeded(address)": {
        "details": "Performs a rebalance if needed. This internal function checks if a rebalance is needed by calling the `checkRebalance` function of the `rebalancer` contract. If a rebalance is required, it calls the `rebalance` function of the `rebalancer` contract to perform the rebalance. Requirements: - The `assets` array must contain the addresses of the assets to rebalance. - The `weights` array must contain the corresponding weights for the assets. - The `rebalanceStatus` must not be `NoRebalance`."
      },
      "proxiableUUID()": {
        "details": "Implementation of the ERC1822 {proxiableUUID} function. This returns the storage slot used by the implementation. It is used to validate the implementation's compatibility when performing an upgrade. IMPORTANT: A proxy pointing at a proxiable contract should not be considered proxiable itself, because this risks bricking a proxy that upgrades to it, by delegating to itself until out of gas. Thus it is critical that this function revert if invoked through a proxy. This is guaranteed by the `notDelegated` modifier."
      },
      "swap(address,address,uint256)": {
        "details": "Swaps tokens from one address to another.",
        "params": {
          "amount": "The amount of tokens to swap.",
          "fromToken": "The address of the token to swap from.",
          "toToken": "The address of the token to swap to."
        },
        "returns": {
          "_0": "The amount of tokens received after the swap."
        }
      },
      "symbol()": {
        "details": "Returns the symbol of the token, usually a shorter version of the name."
      },
      "totalLiquidityInWNATIVE()": {
        "details": "Returns the total valuation in USD.",
        "returns": {
          "_0": "The total valuation in USD."
        }
      },
      "totalSupply()": {
        "details": "See {IERC20-totalSupply}."
      },
      "transfer(address,uint256)": {
        "details": "See {IERC20-transfer}. Requirements: - `to` cannot be the zero address. - the caller must have a balance of at least `value`."
      },
      "transferFrom(address,address,uint256)": {
        "details": "See {IERC20-transferFrom}. Emits an {Approval} event indicating the updated allowance. This is not required by the EIP. See the note at the beginning of {ERC20}. NOTE: Does not update the allowance if the current allowance is the maximum `uint256`. Requirements: - `from` and `to` cannot be the zero address. - `from` must have a balance of at least `value`. - the caller must have allowance for ``from``'s tokens of at least `value`."
      },
      "upgradeToAndCall(address,bytes)": {
        "custom:oz-upgrades-unsafe-allow-reachable": "delegatecall",
        "details": "Upgrade the implementation of the proxy to `newImplementation`, and subsequently execute the function call encoded in `data`. Calls {_authorizeUpgrade}. Emits an {Upgraded} event."
      }
    },
    "version": 1
  },
  "userdoc": {
    "kind": "user",
    "methods": {
      "getAmountOut(address,address,uint256)": {
        "notice": "This function is view-only and does not modify the contract state.The `fromToken` and `toToken` must be either `asset1` or `asset2`.The `fromToken` and `toToken` cannot be the same token.The `amount` must be greater than zero.The returned amount does not include any swap fees."
      }
    },
    "version": 1
  },
  "storageLayout": {
    "storage": [
      {
        "astId": 2824,
        "contract": "contracts/BaluniV1Pool.sol:BaluniV1Pool",
        "label": "rebalancer",
        "offset": 0,
        "slot": "0",
        "type": "t_contract(IBaluniV1Rebalancer)5116"
      },
      {
        "astId": 2827,
        "contract": "contracts/BaluniV1Pool.sol:BaluniV1Pool",
        "label": "assets",
        "offset": 0,
        "slot": "1",
        "type": "t_array(t_address)dyn_storage"
      },
      {
        "astId": 2830,
        "contract": "contracts/BaluniV1Pool.sol:BaluniV1Pool",
        "label": "weights",
        "offset": 0,
        "slot": "2",
        "type": "t_array(t_uint256)dyn_storage"
      },
      {
        "astId": 2832,
        "contract": "contracts/BaluniV1Pool.sol:BaluniV1Pool",
        "label": "trigger",
        "offset": 0,
        "slot": "3",
        "type": "t_uint256"
      },
      {
        "astId": 2834,
        "contract": "contracts/BaluniV1Pool.sol:BaluniV1Pool",
        "label": "ONE",
        "offset": 0,
        "slot": "4",
        "type": "t_uint256"
      },
      {
        "astId": 2836,
        "contract": "contracts/BaluniV1Pool.sol:BaluniV1Pool",
        "label": "factory",
        "offset": 0,
        "slot": "5",
        "type": "t_address"
      }
    ],
    "types": {
      "t_address": {
        "encoding": "inplace",
        "label": "address",
        "numberOfBytes": "20"
      },
      "t_array(t_address)dyn_storage": {
        "base": "t_address",
        "encoding": "dynamic_array",
        "label": "address[]",
        "numberOfBytes": "32"
      },
      "t_array(t_uint256)dyn_storage": {
        "base": "t_uint256",
        "encoding": "dynamic_array",
        "label": "uint256[]",
        "numberOfBytes": "32"
      },
      "t_contract(IBaluniV1Rebalancer)5116": {
        "encoding": "inplace",
        "label": "contract IBaluniV1Rebalancer",
        "numberOfBytes": "20"
      },
      "t_uint256": {
        "encoding": "inplace",
        "label": "uint256",
        "numberOfBytes": "32"
      }
    }
  }
}