{
  "address": "0xF1ed2C1e71ebBebE3b035326d8258ffd51EEfD77",
  "abi": [
    {
      "inputs": [],
      "stateMutability": "nonpayable",
      "type": "constructor"
    },
    {
      "inputs": [
        {
          "internalType": "address",
          "name": "target",
          "type": "address"
        }
      ],
      "name": "AddressEmptyCode",
      "type": "error"
    },
    {
      "inputs": [
        {
          "internalType": "address",
          "name": "account",
          "type": "address"
        }
      ],
      "name": "AddressInsufficientBalance",
      "type": "error"
    },
    {
      "inputs": [
        {
          "internalType": "address",
          "name": "spender",
          "type": "address"
        },
        {
          "internalType": "uint256",
          "name": "allowance",
          "type": "uint256"
        },
        {
          "internalType": "uint256",
          "name": "needed",
          "type": "uint256"
        }
      ],
      "name": "ERC20InsufficientAllowance",
      "type": "error"
    },
    {
      "inputs": [
        {
          "internalType": "address",
          "name": "sender",
          "type": "address"
        },
        {
          "internalType": "uint256",
          "name": "balance",
          "type": "uint256"
        },
        {
          "internalType": "uint256",
          "name": "needed",
          "type": "uint256"
        }
      ],
      "name": "ERC20InsufficientBalance",
      "type": "error"
    },
    {
      "inputs": [
        {
          "internalType": "address",
          "name": "approver",
          "type": "address"
        }
      ],
      "name": "ERC20InvalidApprover",
      "type": "error"
    },
    {
      "inputs": [
        {
          "internalType": "address",
          "name": "receiver",
          "type": "address"
        }
      ],
      "name": "ERC20InvalidReceiver",
      "type": "error"
    },
    {
      "inputs": [
        {
          "internalType": "address",
          "name": "sender",
          "type": "address"
        }
      ],
      "name": "ERC20InvalidSender",
      "type": "error"
    },
    {
      "inputs": [
        {
          "internalType": "address",
          "name": "spender",
          "type": "address"
        }
      ],
      "name": "ERC20InvalidSpender",
      "type": "error"
    },
    {
      "inputs": [],
      "name": "FailedInnerCall",
      "type": "error"
    },
    {
      "inputs": [
        {
          "internalType": "address",
          "name": "owner",
          "type": "address"
        }
      ],
      "name": "OwnableInvalidOwner",
      "type": "error"
    },
    {
      "inputs": [
        {
          "internalType": "address",
          "name": "account",
          "type": "address"
        }
      ],
      "name": "OwnableUnauthorizedAccount",
      "type": "error"
    },
    {
      "inputs": [],
      "name": "ReentrancyGuardReentrantCall",
      "type": "error"
    },
    {
      "inputs": [
        {
          "internalType": "address",
          "name": "token",
          "type": "address"
        }
      ],
      "name": "SafeERC20FailedOperation",
      "type": "error"
    },
    {
      "anonymous": false,
      "inputs": [
        {
          "indexed": false,
          "internalType": "address",
          "name": "user",
          "type": "address"
        },
        {
          "indexed": false,
          "internalType": "address",
          "name": "agent",
          "type": "address"
        }
      ],
      "name": "AgentCreated",
      "type": "event"
    },
    {
      "anonymous": false,
      "inputs": [
        {
          "indexed": true,
          "internalType": "address",
          "name": "owner",
          "type": "address"
        },
        {
          "indexed": true,
          "internalType": "address",
          "name": "spender",
          "type": "address"
        },
        {
          "indexed": false,
          "internalType": "uint256",
          "name": "value",
          "type": "uint256"
        }
      ],
      "name": "Approval",
      "type": "event"
    },
    {
      "anonymous": false,
      "inputs": [
        {
          "indexed": false,
          "internalType": "address",
          "name": "user",
          "type": "address"
        },
        {
          "indexed": false,
          "internalType": "uint256",
          "name": "value",
          "type": "uint256"
        }
      ],
      "name": "Burn",
      "type": "event"
    },
    {
      "anonymous": false,
      "inputs": [
        {
          "indexed": false,
          "internalType": "uint256",
          "name": "newFee",
          "type": "uint256"
        }
      ],
      "name": "ChangeBpsFee",
      "type": "event"
    },
    {
      "anonymous": false,
      "inputs": [
        {
          "indexed": false,
          "internalType": "uint256",
          "name": "newFee",
          "type": "uint256"
        }
      ],
      "name": "ChangeLiquidateFee",
      "type": "event"
    },
    {
      "anonymous": false,
      "inputs": [
        {
          "indexed": false,
          "internalType": "address",
          "name": "user",
          "type": "address"
        },
        {
          "components": [
            {
              "internalType": "address",
              "name": "to",
              "type": "address"
            },
            {
              "internalType": "uint256",
              "name": "value",
              "type": "uint256"
            },
            {
              "internalType": "bytes",
              "name": "data",
              "type": "bytes"
            }
          ],
          "indexed": false,
          "internalType": "struct BaluniAgent.Call[]",
          "name": "calls",
          "type": "tuple[]"
        },
        {
          "indexed": false,
          "internalType": "address[]",
          "name": "tokensReturn",
          "type": "address[]"
        }
      ],
      "name": "Execute",
      "type": "event"
    },
    {
      "anonymous": false,
      "inputs": [
        {
          "indexed": false,
          "internalType": "address",
          "name": "user",
          "type": "address"
        },
        {
          "indexed": false,
          "internalType": "uint256",
          "name": "value",
          "type": "uint256"
        }
      ],
      "name": "Mint",
      "type": "event"
    },
    {
      "anonymous": false,
      "inputs": [
        {
          "indexed": true,
          "internalType": "address",
          "name": "previousOwner",
          "type": "address"
        },
        {
          "indexed": true,
          "internalType": "address",
          "name": "newOwner",
          "type": "address"
        }
      ],
      "name": "OwnershipTransferred",
      "type": "event"
    },
    {
      "anonymous": false,
      "inputs": [
        {
          "indexed": true,
          "internalType": "address",
          "name": "user",
          "type": "address"
        },
        {
          "indexed": false,
          "internalType": "uint256",
          "name": "amount",
          "type": "uint256"
        }
      ],
      "name": "RewardClaimed",
      "type": "event"
    },
    {
      "anonymous": false,
      "inputs": [
        {
          "indexed": true,
          "internalType": "address",
          "name": "user",
          "type": "address"
        },
        {
          "indexed": false,
          "internalType": "uint256",
          "name": "amount",
          "type": "uint256"
        }
      ],
      "name": "Staked",
      "type": "event"
    },
    {
      "anonymous": false,
      "inputs": [
        {
          "indexed": true,
          "internalType": "address",
          "name": "from",
          "type": "address"
        },
        {
          "indexed": true,
          "internalType": "address",
          "name": "to",
          "type": "address"
        },
        {
          "indexed": false,
          "internalType": "uint256",
          "name": "value",
          "type": "uint256"
        }
      ],
      "name": "Transfer",
      "type": "event"
    },
    {
      "anonymous": false,
      "inputs": [
        {
          "indexed": true,
          "internalType": "address",
          "name": "user",
          "type": "address"
        },
        {
          "indexed": false,
          "internalType": "uint256",
          "name": "amount",
          "type": "uint256"
        }
      ],
      "name": "Unstaked",
      "type": "event"
    },
    {
      "inputs": [],
      "name": "USDC",
      "outputs": [
        {
          "internalType": "contract IERC20",
          "name": "",
          "type": "address"
        }
      ],
      "stateMutability": "view",
      "type": "function"
    },
    {
      "inputs": [],
      "name": "_BPS_BASE",
      "outputs": [
        {
          "internalType": "uint256",
          "name": "",
          "type": "uint256"
        }
      ],
      "stateMutability": "view",
      "type": "function"
    },
    {
      "inputs": [],
      "name": "_BPS_FEE",
      "outputs": [
        {
          "internalType": "uint256",
          "name": "",
          "type": "uint256"
        }
      ],
      "stateMutability": "view",
      "type": "function"
    },
    {
      "inputs": [],
      "name": "_BPS_LIQUIDATE_FEE",
      "outputs": [
        {
          "internalType": "uint256",
          "name": "",
          "type": "uint256"
        }
      ],
      "stateMutability": "view",
      "type": "function"
    },
    {
      "inputs": [],
      "name": "_MAX_BPS_FEE",
      "outputs": [
        {
          "internalType": "uint256",
          "name": "",
          "type": "uint256"
        }
      ],
      "stateMutability": "view",
      "type": "function"
    },
    {
      "inputs": [
        {
          "internalType": "address",
          "name": "owner",
          "type": "address"
        },
        {
          "internalType": "address",
          "name": "spender",
          "type": "address"
        }
      ],
      "name": "allowance",
      "outputs": [
        {
          "internalType": "uint256",
          "name": "",
          "type": "uint256"
        }
      ],
      "stateMutability": "view",
      "type": "function"
    },
    {
      "inputs": [
        {
          "internalType": "address",
          "name": "spender",
          "type": "address"
        },
        {
          "internalType": "uint256",
          "name": "value",
          "type": "uint256"
        }
      ],
      "name": "approve",
      "outputs": [
        {
          "internalType": "bool",
          "name": "",
          "type": "bool"
        }
      ],
      "stateMutability": "nonpayable",
      "type": "function"
    },
    {
      "inputs": [
        {
          "internalType": "address",
          "name": "account",
          "type": "address"
        }
      ],
      "name": "balanceOf",
      "outputs": [
        {
          "internalType": "uint256",
          "name": "",
          "type": "uint256"
        }
      ],
      "stateMutability": "view",
      "type": "function"
    },
    {
      "inputs": [
        {
          "internalType": "address",
          "name": "",
          "type": "address"
        }
      ],
      "name": "balanceStakedOf",
      "outputs": [
        {
          "internalType": "uint256",
          "name": "",
          "type": "uint256"
        }
      ],
      "stateMutability": "view",
      "type": "function"
    },
    {
      "inputs": [
        {
          "internalType": "uint256",
          "name": "burnAmount",
          "type": "uint256"
        }
      ],
      "name": "burn",
      "outputs": [],
      "stateMutability": "nonpayable",
      "type": "function"
    },
    {
      "inputs": [
        {
          "internalType": "uint256",
          "name": "burnAmount",
          "type": "uint256"
        }
      ],
      "name": "burnTokensAndSwapToUSDC",
      "outputs": [],
      "stateMutability": "nonpayable",
      "type": "function"
    },
    {
      "inputs": [
        {
          "internalType": "address",
          "name": "account",
          "type": "address"
        }
      ],
      "name": "calculateRewardsEarned",
      "outputs": [
        {
          "internalType": "uint256",
          "name": "",
          "type": "uint256"
        }
      ],
      "stateMutability": "view",
      "type": "function"
    },
    {
      "inputs": [
        {
          "internalType": "uint256",
          "name": "_newFee",
          "type": "uint256"
        }
      ],
      "name": "changeBpsFee",
      "outputs": [],
      "stateMutability": "nonpayable",
      "type": "function"
    },
    {
      "inputs": [
        {
          "internalType": "uint256",
          "name": "_newFee",
          "type": "uint256"
        }
      ],
      "name": "changeBpsLiquidateFee",
      "outputs": [],
      "stateMutability": "nonpayable",
      "type": "function"
    },
    {
      "inputs": [],
      "name": "claim",
      "outputs": [
        {
          "internalType": "uint256",
          "name": "",
          "type": "uint256"
        }
      ],
      "stateMutability": "nonpayable",
      "type": "function"
    },
    {
      "inputs": [
        {
          "internalType": "address",
          "name": "staker",
          "type": "address"
        },
        {
          "internalType": "address",
          "name": "_to",
          "type": "address"
        }
      ],
      "name": "claimTo",
      "outputs": [
        {
          "internalType": "uint256",
          "name": "",
          "type": "uint256"
        }
      ],
      "stateMutability": "nonpayable",
      "type": "function"
    },
    {
      "inputs": [],
      "name": "decimals",
      "outputs": [
        {
          "internalType": "uint8",
          "name": "",
          "type": "uint8"
        }
      ],
      "stateMutability": "view",
      "type": "function"
    },
    {
      "inputs": [
        {
          "components": [
            {
              "internalType": "address",
              "name": "to",
              "type": "address"
            },
            {
              "internalType": "uint256",
              "name": "value",
              "type": "uint256"
            },
            {
              "internalType": "bytes",
              "name": "data",
              "type": "bytes"
            }
          ],
          "internalType": "struct BaluniAgent.Call[]",
          "name": "calls",
          "type": "tuple[]"
        },
        {
          "internalType": "address[]",
          "name": "tokensReturn",
          "type": "address[]"
        }
      ],
      "name": "execute",
      "outputs": [],
      "stateMutability": "nonpayable",
      "type": "function"
    },
    {
      "inputs": [
        {
          "internalType": "address",
          "name": "_user",
          "type": "address"
        }
      ],
      "name": "getAgentAddress",
      "outputs": [
        {
          "internalType": "address",
          "name": "",
          "type": "address"
        }
      ],
      "stateMutability": "view",
      "type": "function"
    },
    {
      "inputs": [],
      "name": "getBpsFee",
      "outputs": [
        {
          "internalType": "uint256",
          "name": "",
          "type": "uint256"
        }
      ],
      "stateMutability": "view",
      "type": "function"
    },
    {
      "inputs": [
        {
          "internalType": "uint256",
          "name": "amount",
          "type": "uint256"
        }
      ],
      "name": "getUSDCShareValue",
      "outputs": [
        {
          "internalType": "uint256",
          "name": "",
          "type": "uint256"
        }
      ],
      "stateMutability": "view",
      "type": "function"
    },
    {
      "inputs": [],
      "name": "getUnitPrice",
      "outputs": [
        {
          "internalType": "uint256",
          "name": "",
          "type": "uint256"
        }
      ],
      "stateMutability": "view",
      "type": "function"
    },
    {
      "inputs": [
        {
          "internalType": "address",
          "name": "token",
          "type": "address"
        }
      ],
      "name": "liquidate",
      "outputs": [],
      "stateMutability": "nonpayable",
      "type": "function"
    },
    {
      "inputs": [],
      "name": "listAllTokens",
      "outputs": [
        {
          "internalType": "address[]",
          "name": "",
          "type": "address[]"
        }
      ],
      "stateMutability": "view",
      "type": "function"
    },
    {
      "inputs": [
        {
          "internalType": "uint256",
          "name": "balAmountToMint",
          "type": "uint256"
        },
        {
          "internalType": "address",
          "name": "asset",
          "type": "address"
        }
      ],
      "name": "mintERC20",
      "outputs": [
        {
          "internalType": "uint256",
          "name": "",
          "type": "uint256"
        }
      ],
      "stateMutability": "nonpayable",
      "type": "function"
    },
    {
      "inputs": [
        {
          "internalType": "uint256",
          "name": "balAmountToMint",
          "type": "uint256"
        }
      ],
      "name": "mintUSDC",
      "outputs": [
        {
          "internalType": "uint256",
          "name": "",
          "type": "uint256"
        }
      ],
      "stateMutability": "nonpayable",
      "type": "function"
    },
    {
      "inputs": [],
      "name": "name",
      "outputs": [
        {
          "internalType": "string",
          "name": "",
          "type": "string"
        }
      ],
      "stateMutability": "view",
      "type": "function"
    },
    {
      "inputs": [],
      "name": "oracle",
      "outputs": [
        {
          "internalType": "contract IOracle",
          "name": "",
          "type": "address"
        }
      ],
      "stateMutability": "view",
      "type": "function"
    },
    {
      "inputs": [],
      "name": "owner",
      "outputs": [
        {
          "internalType": "address",
          "name": "",
          "type": "address"
        }
      ],
      "stateMutability": "view",
      "type": "function"
    },
    {
      "inputs": [],
      "name": "performArbitrage",
      "outputs": [],
      "stateMutability": "nonpayable",
      "type": "function"
    },
    {
      "inputs": [
        {
          "internalType": "address[]",
          "name": "assets",
          "type": "address[]"
        },
        {
          "internalType": "uint256[]",
          "name": "weights",
          "type": "uint256[]"
        }
      ],
      "name": "rebalance",
      "outputs": [
        {
          "internalType": "bool",
          "name": "",
          "type": "bool"
        }
      ],
      "stateMutability": "nonpayable",
      "type": "function"
    },
    {
      "inputs": [],
      "name": "renounceOwnership",
      "outputs": [],
      "stateMutability": "nonpayable",
      "type": "function"
    },
    {
      "inputs": [],
      "name": "rewardToken",
      "outputs": [
        {
          "internalType": "contract IERC20",
          "name": "",
          "type": "address"
        }
      ],
      "stateMutability": "view",
      "type": "function"
    },
    {
      "inputs": [
        {
          "internalType": "uint256",
          "name": "amount",
          "type": "uint256"
        }
      ],
      "name": "stake",
      "outputs": [],
      "stateMutability": "nonpayable",
      "type": "function"
    },
    {
      "inputs": [
        {
          "internalType": "address",
          "name": "",
          "type": "address"
        }
      ],
      "name": "stakeTimestamp",
      "outputs": [
        {
          "internalType": "uint256",
          "name": "",
          "type": "uint256"
        }
      ],
      "stateMutability": "view",
      "type": "function"
    },
    {
      "inputs": [],
      "name": "stakingSupply",
      "outputs": [
        {
          "internalType": "uint256",
          "name": "",
          "type": "uint256"
        }
      ],
      "stateMutability": "view",
      "type": "function"
    },
    {
      "inputs": [],
      "name": "stakingToken",
      "outputs": [
        {
          "internalType": "contract IERC20",
          "name": "",
          "type": "address"
        }
      ],
      "stateMutability": "view",
      "type": "function"
    },
    {
      "inputs": [],
      "name": "symbol",
      "outputs": [
        {
          "internalType": "string",
          "name": "",
          "type": "string"
        }
      ],
      "stateMutability": "view",
      "type": "function"
    },
    {
      "inputs": [
        {
          "internalType": "address",
          "name": "",
          "type": "address"
        }
      ],
      "name": "tokenBalanceMap",
      "outputs": [
        {
          "internalType": "uint256",
          "name": "",
          "type": "uint256"
        }
      ],
      "stateMutability": "view",
      "type": "function"
    },
    {
      "inputs": [],
      "name": "totalSupply",
      "outputs": [
        {
          "internalType": "uint256",
          "name": "",
          "type": "uint256"
        }
      ],
      "stateMutability": "view",
      "type": "function"
    },
    {
      "inputs": [],
      "name": "totalValuation",
      "outputs": [
        {
          "internalType": "uint256",
          "name": "",
          "type": "uint256"
        }
      ],
      "stateMutability": "view",
      "type": "function"
    },
    {
      "inputs": [
        {
          "internalType": "address",
          "name": "to",
          "type": "address"
        },
        {
          "internalType": "uint256",
          "name": "value",
          "type": "uint256"
        }
      ],
      "name": "transfer",
      "outputs": [
        {
          "internalType": "bool",
          "name": "",
          "type": "bool"
        }
      ],
      "stateMutability": "nonpayable",
      "type": "function"
    },
    {
      "inputs": [
        {
          "internalType": "address",
          "name": "from",
          "type": "address"
        },
        {
          "internalType": "address",
          "name": "to",
          "type": "address"
        },
        {
          "internalType": "uint256",
          "name": "value",
          "type": "uint256"
        }
      ],
      "name": "transferFrom",
      "outputs": [
        {
          "internalType": "bool",
          "name": "",
          "type": "bool"
        }
      ],
      "stateMutability": "nonpayable",
      "type": "function"
    },
    {
      "inputs": [
        {
          "internalType": "address",
          "name": "newOwner",
          "type": "address"
        }
      ],
      "name": "transferOwnership",
      "outputs": [],
      "stateMutability": "nonpayable",
      "type": "function"
    },
    {
      "inputs": [],
      "name": "uniswapFactory",
      "outputs": [
        {
          "internalType": "contract IUniswapV3Factory",
          "name": "",
          "type": "address"
        }
      ],
      "stateMutability": "view",
      "type": "function"
    },
    {
      "inputs": [],
      "name": "uniswapRouter",
      "outputs": [
        {
          "internalType": "contract ISwapRouter",
          "name": "",
          "type": "address"
        }
      ],
      "stateMutability": "view",
      "type": "function"
    },
    {
      "inputs": [
        {
          "internalType": "uint256",
          "name": "amount",
          "type": "uint256"
        }
      ],
      "name": "unstake",
      "outputs": [],
      "stateMutability": "nonpayable",
      "type": "function"
    },
    {
      "inputs": [
        {
          "internalType": "uint256",
          "name": "reward",
          "type": "uint256"
        }
      ],
      "name": "updateRewardIndexPublic",
      "outputs": [],
      "stateMutability": "nonpayable",
      "type": "function"
    },
    {
      "inputs": [
        {
          "internalType": "address",
          "name": "",
          "type": "address"
        }
      ],
      "name": "userAgents",
      "outputs": [
        {
          "internalType": "contract BaluniAgent",
          "name": "",
          "type": "address"
        }
      ],
      "stateMutability": "view",
      "type": "function"
    }
  ],
  "transactionHash": "0x2f563689b9c0b5ad1f11a3884293c816daf98608161af7c311734dfa94d128e4",
  "args": [],
  "numDeployments": 1,
  "solcInputHash": "83acd550c991738caf368dc8000b6e08",
  "bytecode": "0x604061012081523461064d57610013610652565b9060206542616c756e6960d01b8184015261002c610652565b6542414c554e4960d01b8282015233156106355760008054336001600160a01b0319821681178355919291906001600160a01b03167f8be0079c531659141344cd1fd0a4f28419497f9722a3daafe3b4186f6b6457e08480a38451906001600160401b03808311610621576004928354906001988983811c93168015610617575b8884101461052f578190601f938481116105c9575b50889084831160011461056a57889261055f575b5050600019600383901b1c191690891b1784555b825191821161054c5760059283548981811c91168015610542575b8882101461052f57908183859493116104e1575b5087918311600114610482578692610477575b5050600019600383901b1c191690871b1790555b84600655301594851580610472575b1561042f57306080523060a052601e600d55612710600e55601e600f55730addd25a91563696d8567df78d5a01c9a991f9b860c05273e592427a0aece92de3edee1f18e0157c0586156460e05261010095731f98431c8ad98523631ae4a59f267346ea31f984875261041957908492916101ca60035461068b565b600355308352845282822090670de0b6b3a7640000918281540190558351828152837fddf252ad1be2c89b69c2b068fc378daa952ba7f163c4a11628f55a4df523b3ef873093a330835260078552838320610225815461068b565b905561023260095461068b565b6009553383526008855242848420556009548015918215806103bf575b505050506102c0903083526008855261026b84842054426106d6565b6301e133809190828111156103b657506102ae825b308652600788526102a987872054916102a3600a54600b8c528a8a2054906106d6565b926106c3565b6106c3565b0404308352600c8552838320546106b6565b308252600c845282822055600b600a54935220556102dc6106e3565b505161537991826107b38339608051828181610f15015281816115f401526122c7015260a05182818161025701528181610d4501528181611d350152613a72015260c0518281816111ff015281816118d0015281816131c10152614433015260e051828181610a25015281816115b0015281816120bf01528181612556015281816127c70152818161329e0152818161338501528181614088015281816141bd01526146900152518181816104b70152818161053801528181610a01015281816110ee01528181612086015281816124f0015261276e0152f35b6102ae90610280565b6103ca575b8061024f565b909192939450600a54926104065750916103fb6102c0928795946ec097ce7bc90715b34b9f100000000004906106b6565b600a559038806103c4565b634e487b7160e01b855260129052602484fd5b5060249184519163ec442f0560e01b8352820152fd5b845162461bcd60e51b8152808301859052601560248201527f496e76616c696420746f6b656e206164647265737300000000000000000000006044820152606490fd5b61014f565b01519050388061012c565b8487528787208a94509190601f198416885b8a8282106104cb57505084116104b2575b505050811b019055610140565b015160001960f88460031b161c191690553880806104a5565b8385015186558d97909501949384019301610494565b9091925084875287872083808601871c8201928a8710610526575b9186958d9295949301881c01915b828110610518575050610119565b8981558695508c910161050a565b925081926104fc565b634e487b7160e01b875260228652602487fd5b90607f1690610105565b634e487b7160e01b855260418452602485fd5b0151905038806100d6565b8789528989208c94509190601f1984168a5b8c8282106105b3575050841161059a575b505050811b0184556100ea565b015160001960f88460031b161c1916905538808061058d565b8385015186558f9790950194938401930161057c565b9091508688528888208480850160051c8201928b861061060e575b918d91869594930160051c01915b8281106106005750506100c2565b8a81558594508d91016105f2565b925081926105e4565b92607f16926100ad565b634e487b7160e01b84526041600452602484fd5b8251631e4fbdf760e01b815260006004820152602490fd5b600080fd5b60408051919082016001600160401b038111838210176106755760405260068252565b634e487b7160e01b600052604160045260246000fd5b90670de0b6b3a764000082018092116106a057565b634e487b7160e01b600052601160045260246000fd5b919082018092116106a057565b818102929181159184041417156106a057565b919082039182116106a057565b732791bca1f2de4661ed88a30c99a7a9449aa84174600081815260116020527fd858bff8317940b1bb2b6603753b280d3518ab8e24c32a7de1cc1e7559e16598546107ad5760105468010000000000000000811015610799576001810180601055811015610785577f1b6847dc741a1b0cd08d278845f9d819d87b734759afb55fe2de5cb82a9ae6720182905560105491815260116020526040902055600190565b634e487b7160e01b82526032600452602482fd5b634e487b7160e01b82526041600452602482fd5b90509056fe6080604052600436101561001257600080fd5b60003560e01c8063012a33aa146135e057806306497cb91461359457806306fdde03146134cf578063095ea7b31461344957806312f399cf1461314657806318160ddd14613128578063185fcffe14610cda57806323b872dd1461303557806327d54a9214612ecd578063295b930014612eb25780632be01190146123745780632e17de78146122405780632f86556814611ff7578063313ce56714611fdb57806334a1ca8914611faf57806334decfc914611f9257806342966c6814611dc05780634e71d92d14611cc157806350b1b34a146117f95780635e7f8b761461173a57806365534d521461171c57806370259077146116e257806370a08231146116a8578063715018a61461164f57806371ddcfb81461161857806372f702f3146115d4578063735de9f7146115905780637811a785146115555780637b848914146115095780637d9fc717146112235780637dc0d1d0146111df578063833d557f146111a5578063853771881461118757806389a302711461115e5780638b086764146111125780638bdb2afa146110ce5780638da5cb5b146110a757806395d89b4114610f93578063a694fc3a14610e71578063a9059cbb14610e40578063ab86c69e14610cf8578063b9f5e61714610cda578063bf9c89bb14610ca0578063cde53358146109ca578063dd62ed3e14610978578063eedc3c5014610325578063f2fde38b1461029e578063f377e7cf146102805763f7c618c11461023757600080fd5b3461027b57600036600319011261027b5760206040516001600160a01b037f0000000000000000000000000000000000000000000000000000000000000000168152f35b600080fd5b3461027b57600036600319011261027b576020600954604051908152f35b3461027b57602036600319011261027b576102b761364c565b6102bf613ca0565b6001600160a01b0380911690811561030c57600054826001600160a01b0319821617600055167f8be0079c531659141344cd1fd0a4f28419497f9722a3daafe3b4186f6b6457e0600080a3005b604051631e4fbdf760e01b815260006004820152602490fd5b3461027b57610333366136bd565b919261033d613ccc565b60405160208101903360601b82526014815261035881613741565b5190203360005260126020526001600160a01b036040600020541615610869575b503360005260126020526001600160a01b036040600020541661039b846138da565b946103a96040519687613779565b8486526103b5856138da565b601f190136602088013760005b85811061082f5750813b1561027b5791604051928391630eedc3c560e41b8352816044840160406004860152526064830160648360051b85010192826000905b82821061077d5750505050508181036003190160248301528581526020018460005b8781106107515750509181600081819503925af1801561065657610723575b5060005b828110610455576001600655005b610468610463828585613893565b6138b9565b90604051630b4c774160e11b81526001600160a01b0383166004820152730d500b1d8e8ef31e21c99d1db9a6444d3adf12706024820152610bb860448201526020816064816001600160a01b037f0000000000000000000000000000000000000000000000000000000000000000165afa90811561065657600091610704575b5060405190630b4c774160e11b82526001600160a01b0384166004830152730d500b1d8e8ef31e21c99d1db9a6444d3adf127060248301526101f460448301526020826064816001600160a01b037f0000000000000000000000000000000000000000000000000000000000000000165afa918215610656576000926106ca575b506001600160a01b031615908115916106b7575b506105888287613958565b511515806106b0575b610698575b156105a6575b6001915001610447565b6040516370a0823160e01b8152306004820152916020836024816001600160a01b0385165afa92831561065657600093610662575b5060405163a9059cbb60e01b8152336004820152602481019390935260209083908160006001600160a01b0382604481015b0393165af191821561065657600192610627575b5061059c565b6106489060203d60201161064f575b6106408183613779565b81019061397b565b5085610621565b503d610636565b6040513d6000823e3d90fd5b92506020833d602011610690575b8161067d60209383613779565b8101031261027b5791519161060d6105db565b3d9150610670565b6106aa6001600160a01b03841661498a565b50610596565b5080610591565b6001600160a01b0391501615158661057d565b6001600160a01b039192506106f69060203d6020116106fd575b6106ee8183613779565b810190613993565b9190610569565b503d6106e4565b61071d915060203d6020116106fd576106ee8183613779565b866104e8565b67ffffffffffffffff811161073b5760405283610443565b634e487b7160e01b600052604160045260246000fd5b91819350602080916001600160a01b0361076c600195613678565b168152019301910190849291610424565b9193955091936063198882030185528535605e198336030181121561027b5782016001600160a01b036107af82613678565b168252602081013560208301526040810135601e198236030181121561027b5701906020823592019167ffffffffffffffff811161027b57803603831361027b576001928260209392606060408695015280606083015280608093848401376000838284010152601f801991011601019701950192018795949391610402565b806001600160a01b036108486104636001948a8a613893565b16600052601160205260406000205415610862828a613958565b52016103c2565b6040516108348082019082821067ffffffffffffffff83111761073b5782916108a091614af0843933815230602082015260400190565b03906000f58015610656576001600160a01b031663ffffffff813b1615610925573360008181526012602090815260409182902080546001600160a01b0319168517905581519283526001600160a01b03909316928201929092527f8c6e353968e7ffd60dba22ff7d2a4354af301f9d41858a35668e7292ec1301b69190a184610379565b60405162461bcd60e51b815260206004820152602560248201527f4167656e74206372656174696f6e206661696c65642c206e6f74206120636f6e6044820152641d1c9858dd60da1b6064820152608490fd5b3461027b57604036600319011261027b5761099161364c565b610999613662565b906001600160a01b038091166000526002602052604060002091166000526020526020604060002054604051908152f35b3461027b5760208060031936011261027b57600435906109e8613ccc565b6109f3821515613b4d565b6000916001600160a01b03807f00000000000000000000000000000000000000000000000000000000000000001693817f000000000000000000000000000000000000000000000000000000000000000016905b601054811015610c4f5780610a5c8492614953565b929054600393841b1c169154916040516370a0823160e01b815230600482015260249388828681865afa91821561065657600092610c20575b508115610c1457308314610c145760405163313ce56760e01b8152918983600481875afa9081156106565760ff8a92610ad895600091610be7575b5016926147ad565b9060008051602061532483398151915288818314610b8a5750604051630b4c774160e11b81526004810183905294850152610bb8604485015287846064818c5afa938415610656576001948791600091610b6d575b50610b39848885613e73565b1615610b5257610b4a913391613fd2565b505b01610a47565b610b6190610b6892339161458c565b15156139b2565b610b4c565b610b8491508a3d8c116106fd576106ee8183613779565b8b610b2d565b60405163a9059cbb60e01b8152336004820152602481019490945292945084915060449082906000905af191821561065657600192610bca575b50610b4c565b610be090873d891161064f576106408183613779565b5087610bc4565b610c0791508d803d10610c0d575b610bff8183613779565b810190613924565b8e610ad0565b503d610bf5565b50505060019150610b4c565b9091508881813d8311610c48575b610c388183613779565b8101031261027b5751908a610a95565b503d610c2e565b7fcc16f5dbb4873280815c1ee09dbd06736cffcc184412cf7a71a0fdb75d397ca5610c9685610c7e81336147fc565b60408051338152602081019290925290918291820190565b0390a16001600655005b3461027b57602036600319011261027b576001600160a01b03610cc161364c565b1660005260076020526020604060002054604051908152f35b3461027b57600036600319011261027b576020600d54604051908152f35b3461027b5760208060031936011261027b576004358015610dfb5760095415610da6576040516323b872dd60e01b81523360048201523060248201526044810182905291808360648160007f00000000000000000000000000000000000000000000000000000000000000006001600160a01b03165af192831561065657610d8693610d88575b50506148a0565b005b81610d9e92903d1061064f576106408183613779565b508280610d7f565b60405162461bcd60e51b815260048101839052602760248201527f4e6f207374616b696e6720737570706c7920746f2064697374726962757465206044820152667265776172647360c81b6064820152608490fd5b60405162461bcd60e51b815260048101839052601760248201527f526577617264206d75737420626520706f7369746976650000000000000000006044820152606490fd5b3461027b57604036600319011261027b57610e66610e5c61364c565b60243590336141fa565b602060405160018152f35b3461027b5760208060031936011261027b5760043590610e8f613ccc565b610e9833614704565b3360005260078152610eaf826040600020546138cd565b3360005260078252604060002055610ec9826009546138cd565b60095533600081815260088352604090819020429055516323b872dd60e01b81526004810191909152306024820152604481018390529080828060648101038160006001600160a01b037f0000000000000000000000000000000000000000000000000000000000000000165af1918215610656577f9e71bc8eea02a63969f509818f2dafb9254532904319f9dbda79b67bd34a5f3d92610f76575b506040519283523392a26001600655005b610f8c90823d841161064f576106408183613779565b5083610f65565b3461027b57600036600319011261027b5760405160006005549060018260011c916001841691821561109d575b602094858510841461108757858794868652918260001461106757505060011461100a575b50610ff292500383613779565b611006604051928284938452830190613627565b0390f35b84915060056000527f036b6384b5eca791c62761152d0c79bb0604c104a5fb6f4eb0703f3154bb3db0906000915b85831061104f575050610ff2935082010185610fe5565b80548389018501528794508693909201918101611038565b60ff191685820152610ff295151560051b8501019250879150610fe59050565b634e487b7160e01b600052602260045260246000fd5b92607f1692610fc0565b3461027b57600036600319011261027b5760206001600160a01b0360005416604051908152f35b3461027b57600036600319011261027b5760206040516001600160a01b037f0000000000000000000000000000000000000000000000000000000000000000168152f35b3461027b57602036600319011261027b57602061115661113061364c565b6001600160a01b038116600052600c8352611150604060002054916148dd565b906138cd565b604051908152f35b3461027b57600036600319011261027b5760206040516000805160206153248339815191528152f35b3461027b57600036600319011261027b576020600e54604051908152f35b3461027b57602036600319011261027b576001600160a01b036111c661364c565b1660005260136020526020604060002054604051908152f35b3461027b57600036600319011261027b5760206040516001600160a01b037f0000000000000000000000000000000000000000000000000000000000000000168152f35b3461027b5760208060031936011261027b57600435611240613ccc565b61125a61125f61124e6142da565b600354928391856137b3565b613873565b6040516370a0823160e01b815233600482015260008051602061532483398151915292918582602481875afa918215610656576000926114d8575b506112ad64e8d4a5100092931515613b8c565b0480911061149357604051636eb1769f60e11b81523360048201523060248201528481604481865afa8015610656578290600090611462575b6112f292501015613c08565b6040516323b872dd60e01b858201908152336024830152306044830152606480830193909352918152601f1991600091829190611330608482613779565b519082865af1903d15611455573d9167ffffffffffffffff831161073b57611374926113668760405194601f8401160184613779565b82523d60008784013e614a27565b80519084821515928361143c575b50505061142457506113af6113a8600e5461125a6113a2600d548361393d565b856137b3565b809261393d565b906113ba823061474e565b60408051308152602081018490527f0f6798a560793a54c3bcfe86a93cde1e73087d944c0ea20544137d412139688592611406929091849190a1600954611416575b610c7e813361474e565b0390a16001600655604051908152f35b61141f846148a0565b6113fc565b60249060405190635274afe760e01b82526004820152fd5b61144c935082018101910161397b565b15848481611382565b5061137490606090614a27565b50508481813d831161148c575b6114798183613779565b8101031261027b57816112f291516112e6565b503d61146f565b60405162461bcd60e51b815260048101859052601c60248201527f555344432062616c616e636520697320696e73756666696369656e74000000006044820152606490fd5b91508582813d8311611502575b6114ef8183613779565b8101031261027b579051906112ad61129a565b503d6114e5565b3461027b57602036600319011261027b577f120de5c966483867382dce1eb95f0d016a917f91b2188b2f4c1413333a9ffb0f6020600435611548613ca0565b80600f55604051908152a1005b3461027b57602036600319011261027b5760206001600160a01b038061157961364c565b166000526012825260406000205416604051908152f35b3461027b57600036600319011261027b5760206040516001600160a01b037f0000000000000000000000000000000000000000000000000000000000000000168152f35b3461027b57600036600319011261027b5760206040516001600160a01b037f0000000000000000000000000000000000000000000000000000000000000000168152f35b3461027b57602036600319011261027b57602061115660035461163c811515613c54565b61125a6116476142da565b6004356137b3565b3461027b57600036600319011261027b57611668613ca0565b600080546001600160a01b0319811682556001600160a01b03167f8be0079c531659141344cd1fd0a4f28419497f9722a3daafe3b4186f6b6457e08280a3005b3461027b57602036600319011261027b576001600160a01b036116c961364c565b1660005260016020526020604060002054604051908152f35b3461027b57602036600319011261027b576001600160a01b0361170361364c565b1660005260086020526020604060002054604051908152f35b3461027b57600036600319011261027b576020600f54604051908152f35b3461027b57600036600319011261027b57604051806010548083526020809301809160106000527f1b6847dc741a1b0cd08d278845f9d819d87b734759afb55fe2de5cb82a9ae6729060005b868282106117e557868661179c82880383613779565b604051928392818401908285525180915260408401929160005b8281106117c557505050500390f35b83516001600160a01b0316855286955093810193928101926001016117b6565b835485529093019260019283019201611786565b3461027b57604036600319011261027b57600435611815613662565b9061181e613ccc565b6118416118296142da565b61125a6003549161183b831515613b8c565b846137b3565b60405163313ce56760e01b808252602094929160008051602061532483398151915291908681600481865afa90811561065657600091611ca4575b506001600160a01b03809516936040519283528783600481885afa92831561065657600093611c85575b506040519363802431fb60e01b855260048501528784606481602499898b830152600060448301527f0000000000000000000000000000000000000000000000000000000000000000165afa93841561065657600094611c56575b5060ff821660ff841611600014611c0a5761192d839461192d611928856119339697613be3565b613bf7565b90613873565b91670de0b6b3a764000092838102938185041490151715611bf55761192861195f939261192d92613be3565b6040516370a0823160e01b815233600482015285818581865afa8015610656578291600091611bc4575b5010611b8057604051636eb1769f60e11b81523360048201523060248201528581604481865afa8015610656578290600090611b4f575b6119cc92501015613c08565b604080516323b872dd60e01b8782019081523386830190815230602082015280840194909452928190039182018152601f1992600092839290611a129060600182613779565b519082865af13d15611b42573d67ffffffffffffffff8111611b2d5790611a589291611a488860405194601f8401160184613779565b82523d60008884013e5b83614a9e565b805190858215159283611b14575b505050611aff575050611a876113a8600e5461125a6113a2600d548361393d565b611a91813061474e565b60408051308152602081018390527f0f6798a560793a54c3bcfe86a93cde1e73087d944c0ea20544137d412139688592918391a1600954611af0575b50611ad8823361474e565b60408051338152602081018490529081908101611406565b611af9906148a0565b83611acd565b60405190635274afe760e01b82526004820152fd5b611b24935082018101910161397b565b15858581611a66565b84634e487b7160e01b60005260416004526000fd5b611a589150606090611a52565b50508581813d8311611b79575b611b668183613779565b8101031261027b57816119cc91516119c0565b503d611b5c565b60405162461bcd60e51b8152600481018690526017818501527f42616c616e636520697320696e73756666696369656e740000000000000000006044820152606490fd5b809250878092503d8311611bee575b611bdd8183613779565b8101031261027b5781905187611989565b503d611bd3565b84634e487b7160e01b60005260116004526000fd5b61192d8294611c1f61192886611c2596613be3565b906137b3565b91670de0b6b3a764000092838102938185041490151715611bf557611928611c51939261192d92613be3565b61195f565b9093508781813d8311611c7e575b611c6e8183613779565b8101031261027b57519288611901565b503d611c64565b611c9d919350883d8a11610c0d57610bff8183613779565b91886118a6565b611cbb9150873d8911610c0d57610bff8183613779565b8761187c565b3461027b57600036600319011261027b57611cda613ccc565b611ce333614704565b336000526020600c8152604060002054611cfe811515613b01565b336000818152600c845260408082208290555163a9059cbb60e01b81526004810192909252602482018390528390829060449082907f00000000000000000000000000000000000000000000000000000000000000006001600160a01b03165af1801561065657611da3575b506040518181527f106f923f993c2149d49b4255ff723acafa1f2d94393f561d3eda32ae348f7241833392a26001600655604051908152f35b611db990833d851161064f576106408183613779565b5082611d6a565b3461027b5760208060031936011261027b5760043590611dde613ccc565b3360005260019060018152611dfa836040600020541015613b4d565b6000825b611e31577fcc16f5dbb4873280815c1ee09dbd06736cffcc184412cf7a71a0fdb75d397ca5610c9685610c7e81336147fc565b601054811015611f8d579081611e4e6001600160a01b0393614953565b939054600394851b1c169254926040516370a0823160e01b81523060048201528381602481855afa90811561065657600091611f60575b508581158015611f57575b611f4c575060405163313ce56760e01b8152918483600481845afa9283156106565760009689611efa9460ff8997611ed0958c91611f35575016926147ad565b60405163a9059cbb60e01b8152336004820152602481019190915295869283919082906044820190565b03925af19081156106565784938492611f18575b505b019091611dfe565b611f2e90843d861161064f576106408183613779565b5086611f0e565b610c079150893d8b11610c0d57610bff8183613779565b945050508290611f10565b50308314611e90565b90508381813d8311611f86575b611f778183613779565b8101031261027b575187611e85565b503d611f6d565b610c4f565b3461027b57600036600319011261027b5760206040516101f48152f35b3461027b57604036600319011261027b576020611156611fcd61364c565b611fd5613662565b906139fe565b3461027b57600036600319011261027b57602060405160128152f35b3461027b5760208060031936011261027b5761201161364c565b612019613ccc565b6040516370a0823160e01b81523060048201526001600160a01b038281168483602481845afa92831561065657600093612211575b5060405190630b4c774160e11b825260048201526000805160206153248339815191526024820152610bb860448201528481606481857f0000000000000000000000000000000000000000000000000000000000000000165afa908115610656576000916121f4575b506120e583837f00000000000000000000000000000000000000000000000000000000000000001686613e73565b16156121e0576120fa91610b61913091613fd2565b7f106f923f993c2149d49b4255ff723acafa1f2d94393f561d3eda32ae348f724161212533306139fe565b917f0f6798a560793a54c3bcfe86a93cde1e73087d944c0ea20544137d41213968856121bf61271061215c600354600f54906137b3565b04612167813061474e565b3060005260078452604060002061217f8282546138cd565b905561218d816009546138cd565b6009553360005260088452426040600020556009546121d2575b60408051308152602081019290925290918291820190565b0390a16040519283523392a26001600655005b6121db816148a0565b6121a7565b6121ef91610b6191309161458c565b6120fa565b61220b9150853d87116106fd576106ee8183613779565b856120b7565b9092508481813d8311612239575b6122298183613779565b8101031261027b5751918561204e565b503d61221f565b3461027b5760208060031936011261027b576004359061225e613ccc565b61226733614704565b336000526007815260406000205482811061232f57826122869161393d565b33600052600782526040600020556122a08260095461393d565b60095560405163a9059cbb60e01b81523360048201526024810183905290808260448160007f00000000000000000000000000000000000000000000000000000000000000006001600160a01b03165af1918215610656577f0f5bb82176feb1b5e747e28471aa92156a04d9f3ab9f45f28e2d704232b93f7592610f7657506040519283523392a26001600655005b60405162461bcd60e51b815260048101839052601f60248201527f496e73756666696369656e742062616c616e636520746f20756e7374616b65006044820152606490fd5b3461027b57612382366136bd565b6000939192939160005b858110612e17575061239d856138f2565b906123a7866138f2565b936123b1876138f2565b936123bb886138f2565b936000916000936000996000925b8c88818610612bf257505050505050826123f4836123ee61240096956123fa95614550565b99614550565b96614550565b93614550565b9460005b8551811015612647576124178186613958565b51612425575b600101612404565b61248f906001600160a01b038061244a610463612442858c613958565b518d89613893565b166124558389613958565b516040516323b872dd60e01b8152336004820152306024820152604481019190915260209490918591839190829060009082906064820190565b03925af180156106565761262a575b506124b76104636124af848b613958565b518c88613893565b604051630b4c774160e11b815290821660048201526000805160206153248339815191526024820152610bb860448201529280846064817f000000000000000000000000000000000000000000000000000000000000000086165afa90811561065657838a6001968e936000956125f5575b505061257c9261253f6125479361046393613958565b51908a613893565b612551858b613958565b5190847f00000000000000000000000000000000000000000000000000000000000000001690613e73565b16156125bd576125ad6125956104636124af848b613958565b61259f8389613958565b5187516125b6573391613fd2565b505b905061241d565b3091613fd2565b6125e86125d06104636124af848b613958565b6125da8389613958565b5187516125ee57339161458c565b506125af565b309161458c565b6104639295506125479361261d61257c96938361253f94903d106106fd576106ee8183613779565b9693509350819450612529565b61264090843d861161064f576106408183613779565b508a61249e565b508582888560005b8151811015610e66576126628186613958565b51612670575b60010161264f565b61267a8186613958565b516127109081810290808204831490151715612b72578761269a91613873565b6040516370a0823160e01b80825233600483015292916020826024816000805160206153248339815191525afa90811561065657600091612bbc575b6126e092506137b3565b64e8d4a5100081029080820464e8d4a510001490151715612b725704908115159182612b18575b5050156126685761272661046361271e8385613958565b518587613893565b6001600160a01b0360405191630b4c774160e11b83521660048201526000805160206153248339815191526024820152610bb860448201526020816064816001600160a01b037f0000000000000000000000000000000000000000000000000000000000000000165afa90811561065657600091612af9575b506001600160a01b036127c06104636127b88587613958565b518789613893565b91612801827f000000000000000000000000000000000000000000000000000000000000000016938464e8d4a510006127f9888d613958565b510491613e73565b16156128cc57508061283861281f6104636127b86128769587613958565b64e8d4a5100061282f848a613958565b51043091614105565b602061284f600e5461125a6113a2600d548361393d565b60405163a9059cbb60e01b8152336004820152602481019190915293849081906044820190565b038160006000805160206153248339815191525af1908115610656576001936128a6926128ad575b5015156139b2565b9050612668565b6128c59060203d60201161064f576106408183613779565b508961289e565b60206001600160a01b036128ee6104636128e68688613958565b51888a613893565b926129d2600064e8d4a51000612904888d613958565b516040517309e46f287cb791987b6228c32669ea5126aa105d60621b8882015261017760eb1b6034820181905272d500b1d8e8ef31e21c99d1db9a6444d3adf12760641b6037830152604b820152606098891b6bffffffffffffffffffffffff1916604e8201526042815291900461297b8261375d565b6040519161298883613725565b8252868201903082526040830198428a5283019081526080830190848252604051998a988997889663c04b8d5960e01b88528c60048901525160a0602489015260c4880190613627565b94511660448601525160648501525160848401525160a483015203925af190811561065657600091612ac7575b50612a476020612a20600e5461125a612a1a600d548361393d565b866137b3565b60405163a9059cbb60e01b8152336004820152602481019190915291829081906044820190565b038160006000805160206153248339815191525af1801561065657612aa8575b5015612a75576001906128a6565b60405162461bcd60e51b815260206004820152600b60248201526a14ddd85c0811985a5b195960aa1b6044820152606490fd5b612ac09060203d60201161064f576106408183613779565b5087612a67565b90506020813d602011612af1575b81612ae260209383613779565b8101031261027b5751876129ff565b3d9150612ad5565b612b12915060203d6020116106fd576106ee8183613779565b8761279f565b9091506040519182523360048301526020826024816000805160206153248339815191525afa91821561065657600092612b88575b5064e8d4a5100082029180830464e8d4a510001490151715612b725711158780612707565b634e487b7160e01b600052601160045260246000fd5b9091506020813d602011612bb4575b81612ba460209383613779565b8101031261027b57519088612b4d565b3d9150612b97565b90506020823d602011612bea575b81612bd760209383613779565b8101031261027b576126e09151906126d6565b3d9150612bca565b6001600160a01b03612c11610463886024969798999b95602095613893565b16604051938480926370a0823160e01b82523360048301525afa8015610656578e8a8994600093612dda575b50612c586104636004966020946001600160a01b0394613893565b166040519485809263313ce56760e01b82525afa928315610656578f938b88958789958d95600095612d9b575b509482612ce860ff612ccb612cbe8561046397612cb8612cee9c9d612cb2610463858f9e612cb29f613893565b90614383565b9d613893565b359c612710809c04613873565b8c81119c908d15612d8c5790612ce09161393d565b985b1661394a565b94613893565b9315612d515786612cfe916137b3565b0490670de0b6b3a764000091828102928184041490151715612b72578c612d4082612d2e600196612d4696613873565b928b612d3a838d613958565b52613958565b5261396c565b955b019291906123c9565b9d612d6292989993508e91506138cd565b9b87612d6e838d613958565b52612d79828b613958565b52612d839061396c565b95600190612d48565b612d959161393d565b98612ce2565b868096508486989394959260203d602011612dd3575b612dbb8183613779565b8101612dc691613924565b9750949392509650612c85565b503d612db1565b94505050506020823d602011612e0f575b81612df860209383613779565b8101031261027b5790518691908e8a612c58612c3d565b3d9150612deb565b9193926001600160a01b03612e30610463858986613893565b1660405180916370a0823160e01b825233600483015281602460209485935afa91821561065657600092612e82575b5050600191611150612e7992612cb2610463888c89613893565b9394920161238c565b90809250813d8311612eab575b612e998183613779565b8101031261027b575181611150612e5f565b503d612e8f565b3461027b57600036600319011261027b5760206111566142da565b3461027b5760208060031936011261027b57612ee761364c565b604051908282016001600160a01b03926bffffffffffffffffffffffff198360601b16825260148152612f1981613741565b5190209082811615612ff057612fa6612fb2856108349360405190612f4083870183613779565b85825282820195614af08739604080516001600160a01b039092168483019081523060208201529190612f7f908290840103601f198101835282613779565b604051958693612f97868601998a9251928391613604565b84019151809386840190613604565b01038084520182613779565b519020604051908482019260ff60f81b84523060601b60218401526035830152605582015260558152612fe48161375d565b51902016604051908152f35b60405162461bcd60e51b815260048101859052601d60248201527f4f776e657220616464726573732063616e6e6f74206265207a65726f2e0000006044820152606490fd5b3461027b57606036600319011261027b5761304e61364c565b613056613662565b604435906001600160a01b03831692836000526002602052604060002033600052602052604060002054936000198503613096575b50610e6693506141fa565b8385106131025780156130e95733156130d057610e669484916000526002602052604060002033600052602052036040600020558461308b565b604051634a1406b160e11b815260006004820152602490fd5b60405163e602df0560e01b815260006004820152602490fd5b604051637dc7a0d960e11b81523360048201526024810186905260448101859052606490fd5b3461027b57600036600319011261027b576020600354604051908152f35b3461027b57600036600319011261027b5761315f613ccc565b613180600354613170811515613c54565b61125a61317b6142da565b61379b565b60405163802431fb60e01b81523060048201526000805160206153248339815191526024820152600060448201526001600160a01b039060209081816064817f000000000000000000000000000000000000000000000000000000000000000087165afa9081156106565760009161341c575b50306000526001825260406000205490604051936370a0823160e01b918286523060048701526000805160206153248339815191529685876024818b5afa968715610656576000976133ed575b5064e8d4a510009081830292808404831490151715612b72578083101561335a5750808702908782041487151715612b725785946132ec93670de0b6b3a76400006132916132de956132e495613873565b0491808311613352575b507f0000000000000000000000000000000000000000000000000000000000000000166132c88982613cef565b6132d3308a30614105565b9384928310156137c6565b30613e73565b309030613fd2565b5060246040518096819382523060048301525afa90811561065657600091613322575b5061331b925011613827565b6001600655005b905082813d831161334b575b6133388183613779565b8101031261027b5761331b91518361330f565b503d61332e565b91508a61329b565b9350509095509392919311613373575b5050505061331b565b6133d26133c56133ca6001946133e4977f0000000000000000000000000000000000000000000000000000000000000000166133b0888230613e73565b6133bb308930613fd2565b93849283116137c6565b613cef565b309030614105565b50306000525260406000205411613827565b8080808061336a565b9096508581813d8311613415575b6134058183613779565b8101031261027b57519588613240565b503d6133fb565b90508181813d8311613442575b6134338183613779565b8101031261027b5751846131f3565b503d613429565b3461027b57604036600319011261027b5761346261364c565b6024359033156130e9576001600160a01b03169081156130d057336000526002602052604060002082600052602052806040600020556040519081527f8c5be1e5ebec7d5bd14f71427d1e84f3dd0314c0f7b2291e5b200ac8c7c3b92560203392a3602060405160018152f35b3461027b57600036600319011261027b5760405160006004549060018260011c916001841691821561358a575b602094858510841461108757858794868652918260001461106757505060011461352d5750610ff292500383613779565b84915060046000527f8a35acfbc15ff81a39ae7d344fd709f28e8600b4aa8c65c6b64bfe7fe36bd19b906000915b858310613572575050610ff2935082010185610fe5565b8054838901850152879450869390920191810161355b565b92607f16926134fc565b3461027b57602036600319011261027b577fbea1b31142ae4b1f4efad240349036d718b7950d246c127768097ccf602fc7e060206004356135d3613ca0565b80600d55604051908152a1005b3461027b57600036600319011261027b576020611156600354613170811515613c54565b60005b8381106136175750506000910152565b8181015183820152602001613607565b9060209161364081518092818552858086019101613604565b601f01601f1916010190565b600435906001600160a01b038216820361027b57565b602435906001600160a01b038216820361027b57565b35906001600160a01b038216820361027b57565b9181601f8401121561027b5782359167ffffffffffffffff831161027b576020808501948460051b01011161027b57565b604060031982011261027b5767ffffffffffffffff9160043583811161027b57826136ea9160040161368c565b9390939260243591821161027b576137049160040161368c565b9091565b610100810190811067ffffffffffffffff82111761073b57604052565b60a0810190811067ffffffffffffffff82111761073b57604052565b6040810190811067ffffffffffffffff82111761073b57604052565b6080810190811067ffffffffffffffff82111761073b57604052565b90601f8019910116810190811067ffffffffffffffff82111761073b57604052565b90670de0b6b3a76400009180830292830403612b7257565b81810292918115918404141715612b7257565b156137cd57565b60405162461bcd60e51b815260206004820152602c60248201527f417262697472616765206661696c65643a20696e73756666696369656e74206f60448201526b1d5d1c1d5d08185b5bdd5b9d60a21b6064820152608490fd5b1561382e57565b60405162461bcd60e51b815260206004820152601860248201527f41726269747261676520646964206e6f742070726f66697400000000000000006044820152606490fd5b811561387d570490565b634e487b7160e01b600052601260045260246000fd5b91908110156138a35760051b0190565b634e487b7160e01b600052603260045260246000fd5b356001600160a01b038116810361027b5790565b91908201809211612b7257565b67ffffffffffffffff811161073b5760051b60200190565b906138fc826138da565b6139096040519182613779565b828152809261391a601f19916138da565b0190602036910137565b9081602091031261027b575160ff8116810361027b5790565b91908203918211612b7257565b604d8111612b7257600a0a90565b80518210156138a35760209160051b010190565b6000198114612b725760010190565b9081602091031261027b5751801515810361027b5790565b9081602091031261027b57516001600160a01b038116810361027b5790565b156139b957565b60405162461bcd60e51b815260206004820152601760248201527f53776170204661696c65642c20547279204275726e28290000000000000000006044820152606490fd5b9190613a08613ccc565b613a1183614704565b6001600160a01b0380931690600093828552602090600c8252604086205493613a3b851515613b01565b8652600c825260408087208790555163a9059cbb60e01b81526001600160a01b03841660048201526024810185905282816044818a7f000000000000000000000000000000000000000000000000000000000000000087165af18015613af6577f106f923f993c2149d49b4255ff723acafa1f2d94393f561d3eda32ae348f72419495969750613ad9575b50604051938585521692a2906001600655565b613aef90833d851161064f576106408183613779565b5038613ac6565b6040513d89823e3d90fd5b15613b0857565b60405162461bcd60e51b815260206004820152601360248201527f4e6f207265776172647320746f20636c61696d000000000000000000000000006044820152606490fd5b15613b5457565b60405162461bcd60e51b815260206004820152601060248201526f125b9cdd59999a58da595b9d0810905360821b6044820152606490fd5b15613b9357565b60405162461bcd60e51b815260206004820152602260248201527f546f74616c2042414c554e4920737570706c792063616e6e6f74206265207a65604482015261726f60f01b6064820152608490fd5b9060ff8091169116039060ff8211612b7257565b60ff16604d8111612b7257600a0a90565b15613c0f57565b60405162461bcd60e51b815260206004820152601960248201527f436865636b2074686520746f6b656e20616c6c6f77616e6365000000000000006044820152606490fd5b15613c5b57565b60405162461bcd60e51b815260206004820152601b60248201527f546f74616c20737570706c792063616e6e6f74206265207a65726f00000000006044820152606490fd5b6001600160a01b03600054163303613cb457565b60405163118cdaa760e01b8152336004820152602490fd5b600260065414613cdd576002600655565b604051633ee5aeb560e01b8152600490fd5b60408051636eb1769f60e11b81523060048201526001600160a01b03831660248201526020936000805160206153248339815191528583604481845afa928315613e6857600093613e39575b50818303613d4c575b505050505050565b8592613dc4575b835163095ea7b360e01b81526001600160a01b0390951660048601526024850191909152839081600081604481015b03925af1908115613dba5750613d9c575b80808080613d44565b81613db292903d1061064f576106408183613779565b503880613d93565b513d6000823e3d90fd5b91509192835163095ea7b360e01b81526001600160a01b03821660048201526000602482015285816044816000875af18015613e2e5791869391613d82969593613e11575b509450613d53565b613e2790853d871161064f576106408183613779565b5038613e09565b85513d6000823e3d90fd5b9092508581813d8311613e61575b613e518183613779565b8101031261027b57519138613d3b565b503d613e47565b84513d6000823e3d90fd5b60408051636eb1769f60e11b81523060048201526001600160a01b03848116602483015260209590949293919290918516908684604481855afa938415613e2e57600094613fa3575b50828403613ece575b50505050505050565b8693613f40575b845163095ea7b360e01b81526001600160a01b0390911660048201526024810192909252909350839081600081604481015b03925af1908115613dba5750613f22575b8080808080613ec5565b81613f3892903d1061064f576106408183613779565b503880613f18565b91938095919350519063095ea7b360e01b8252821660048201526000602482015285816044816000875af18015613e2e5791869391613f07969593613f86575b50613ed5565b613f9c90853d871161064f576106408183613779565b5038613f80565b9093508681813d8311613fcb575b613fbb8183613779565b8101031261027b57519238613ebc565b503d613fb1565b90604051613fdf81613708565b6001600160a01b03809316815282806020830160008051602061532483398151915281526040840194610bb88652826060860198168852608085019042825260a0860190815260c08601918460009a8b998a86528260e08b01978c89526040519d8e9c8d63414bf38960e01b9052511660048d0152511660248b01525162ffffff1660448a0152511660648801525160848701525160a48601525160c4850152511660e48301527f000000000000000000000000000000000000000000000000000000000000000016815a9361010492602095f19182156140f95780926140c557505090565b9091506020823d6020116140f1575b816140e160209383613779565b810103126140ee57505190565b80fd5b3d91506140d4565b604051903d90823e3d90fd5b9060405161411281613708565b600080516020615324833981519152815260208101926001600160a01b0380948180931681526040840194610bb88652826060860198168852608085019042825260a0860190815260c08601918460009a8b998a86528260e08b01978c89526040519d8e9c8d63414bf38960e01b9052511660048d0152511660248b01525162ffffff1660448a0152511660648801525160848701525160a48601525160c4850152511660e48301527f000000000000000000000000000000000000000000000000000000000000000016815a9361010492602095f19182156140f95780926140c557505090565b916001600160a01b038084169283156142c157169283156142a8576000908382526001602052604082205490838210614276575091604082827fddf252ad1be2c89b69c2b068fc378daa952ba7f163c4a11628f55a4df523b3ef95876020965260018652038282205586815220818154019055604051908152a3565b60405163391434e360e21b81526001600160a01b03919091166004820152602481019190915260448101839052606490fd5b60405163ec442f0560e01b815260006004820152602490fd5b604051634b637e8f60e11b815260006004820152602490fd5b6000806010545b8082106142ed57505090565b90916001600160a01b0361430084614953565b90549060031b1c16604080516370a0823160e01b815230600482015260208082602481875afa928315613dba5750600092614350575b50509161115061434892600194614383565b9201906142e1565b81819392933d831161437c575b6143678183613779565b810103126140ee575051611150614348614336565b503d61435d565b60405163313ce56760e01b8082529192600092906020906001600160a01b03908116908285600481855afa948515614545578695614526575b506040519384526000805160206153248339815191528385600481845afa948515613af6578795614507575b5082146144d35760405163802431fb60e01b81526001600160a01b039290921660048301526000805160206153248339815191526024830152600060448301528290829060649082907f0000000000000000000000000000000000000000000000000000000000000000165afa918590836144a0575b50505061446e5750505050600090565b670de0b6b3a76400009361449661448f611928611c1f9461449c9796613be3565b80926137b3565b926137b3565b0490565b909180939650813d83116144cc575b6144b98183613779565b810103126140ee5750519238808061445e565b503d6144af565b505050505064e8d4a51000918281029281840414901517156144f3575090565b634e487b7160e01b81526011600452602490fd5b61451f919550843d8611610c0d57610bff8183613779565b93386143e8565b61453e919550833d8511610c0d57610bff8183613779565b93386143bc565b6040513d88823e3d90fd5b919061455b816138f2565b9060005b81811061456d575090925050565b8061457a60019287613958565b516145858286613958565b520161455f565b90916040519160209384916bffffffffffffffffffffffff199060601b168285015261017760eb1b80603486015272d500b1d8e8ef31e21c99d1db9a6444d3adf12760641b6037860152604b8501527309e46f287cb791987b6228c32669ea5126aa105d60621b604e850152604284526146058461375d565b6040519361461285613725565b8452818401926146726001600160a01b0392838093168652604087019642885260608101918252608081019660009788938482526040519a8b988997889663c04b8d5960e01b88528c60048901525160a0602489015260c4880190613627565b94511660448601525160648501525160848401525160a483015203927f0000000000000000000000000000000000000000000000000000000000000000165af19283156146f75781936146c6575b50505090565b9091809350813d83116146f0575b6146de8183613779565b810103126140ee5750513880806146c0565b503d6146d4565b50604051903d90823e3d90fd5b61472f6001600160a01b03614718836148dd565b92169182600052600c6020526040600020546138cd565b90600052600c602052604060002055600a54600b602052604060002055565b6001600160a01b03169081156142a8577fddf252ad1be2c89b69c2b068fc378daa952ba7f163c4a11628f55a4df523b3ef6020826147906000946003546138cd565b6003558484526001825260408420818154019055604051908152a3565b9192906147bb831515613c54565b60128210156147ee576147cf9192936137b3565b9060120360128111612b72576147eb9261192d61192d9261394a565b90565b61125a91506147eb936137b3565b91906001600160a01b0383169081156142c1578160005260016020526040600020549381851061486e57506020817fddf252ad1be2c89b69c2b068fc378daa952ba7f163c4a11628f55a4df523b3ef9260009596858752600184520360408620558060035403600355604051908152a3565b60405163391434e360e21b81526001600160a01b03919091166004820152602481018590526044810191909152606490fd5b60095490816148ad575050565b600a5490670de0b6b3a764000090818102918183041490151715612b72576148d89261115091613873565b600a55565b6001600160a01b0316670de0b6b3a76400006149486000838152600860205261494361490d60408320544261393d565b6301e1338095908681111561494d575085905b835260076020526144966040842054936040600a5491600b60205220549061393d565b6137b3565b040490565b90614920565b6010548110156138a35760106000527f1b6847dc741a1b0cd08d278845f9d819d87b734759afb55fe2de5cb82a9ae6720190600090565b600081815260116020526040812054614a225760105468010000000000000000811015614a0e5760018101806010558110156149fa5790826040927f1b6847dc741a1b0cd08d278845f9d819d87b734759afb55fe2de5cb82a9ae672015560105492815260116020522055600190565b634e487b7160e01b82526032600452602482fd5b634e487b7160e01b82526041600452602482fd5b905090565b909190614a505750805115614a3e57805190602001fd5b604051630a12f52160e11b8152600490fd5b9080511580614a87575b614a615790565b604051639996b31560e01b81526000805160206153248339815191526004820152602490fd5b506000805160206153248339815191523b15614a5a565b90614ab35750805115614a3e57805190602001fd5b81511580614ae6575b614ac4575090565b604051639996b31560e01b81526001600160a01b039091166004820152602490fd5b50803b15614abc56fe60803460bc57601f61083438819003918201601f19168301916001600160401b0383118484101760c157808492604094855283398101031260bc57604b602060458360d7565b920160d7565b6001600160a01b0390811691903383900360895760018060a01b03199116816000541617600055600154161760015560405161074990816100eb8239f35b60405162461bcd60e51b815260206004820152600b60248201526a27b7363c902937baba32b960a91b6044820152606490fd5b600080fd5b634e487b7160e01b600052604160045260246000fd5b51906001600160a01b038216820360bc5756fe608060408181526004908136101561001657600080fd5b600092833560e01c9081638da5cb5b1461045357508063b0f479a11461042b5763eedc3c501461004557600080fd5b3461042757806003193601126104275767ffffffffffffffff9082358281116103dc576100759036908501610476565b91909360248035858111610423576100909036908401610476565b90956001600160a01b0395600198878a541633036103e0578a5b82811061031c5750505050848754169084518092630c2fe7ff60e11b8252818660209586935afa908115610312578a916102e1575b50888a5b888a858084106101fb579450505050506100fb578880f35b88805b82811061010b5750508880f35b89918861012161011c84878e610570565b6104e4565b1673eeeeeeeeeeeeeeeeeeeeeeeeeeeeeeeeeeeeeeee81036101605750504761014d575b0189906100fe565b61015b888c5416479061066f565b610145565b88516370a0823160e01b8152308982015292935090919085828881845afa9182156101f157908392918d9594926101bb575b508a600a83116101a6575b50505050610145565b6101b2935416906105a9565b8a38808a61019d565b945090508584813d81116101ea575b6101d481836104f8565b810103126101e6578b93519038610192565b5080fd5b503d6101ca565b89513d85823e3d90fd5b8361011c9161020993610570565b1673eeeeeeeeeeeeeeeeeeeeeeeeeeeeeeeeeeeeeeee810361024857506102406127106102368547610580565b048a84541661066f565b0189906100e3565b88516370a0823160e01b815230898201529192509085818881855afa908d82156102d6578d94939286929061029b575b5061028a610296939261271092610580565b04908b855416906105a9565b610240565b92945050508581813d83116102cf575b6102b581836104f8565b810103126102cb57518b9290849061028a610278565b8c80fd5b503d6102ab565b8a51903d90823e3d90fd5b90508281813d831161030b575b6102f881836104f8565b810103126103075751386100df565b8980fd5b503d6102ee565b86513d8c823e3d90fd5b61032a61011c8285856104ac565b8c6020918261033a8588886104ac565b0135906103488588886104ac565b8c81013590601e19813603018212156103dc57018035908982116103dc5785019281360384136103dc578493828f519384928337810185815203925af161038d610530565b501561039b57508a016100aa565b876011886064938c519362461bcd60e51b85528401528201527f42617463682063616c6c206661696c65640000000000000000000000000000006044820152fd5b8480fd5b865162461bcd60e51b8152602081880152601b60248201527f43616c6c61626c65206f6e6c792062792074686520726f7574657200000000006044820152606490fd5b8780fd5b8280fd5b8382346101e657816003193601126101e6576020906001600160a01b03600154169051908152f35b8490346101e657816003193601126101e6576001600160a01b0360209254168152f35b9181601f840112156104a75782359167ffffffffffffffff83116104a7576020808501948460051b0101116104a757565b600080fd5b91908110156104ce5760051b81013590605e19813603018212156104a7570190565b634e487b7160e01b600052603260045260246000fd5b356001600160a01b03811681036104a75790565b90601f8019910116810190811067ffffffffffffffff82111761051a57604052565b634e487b7160e01b600052604160045260246000fd5b3d1561056b573d9067ffffffffffffffff821161051a576040519161055f601f8201601f1916602001846104f8565b82523d6000602084013e565b606090565b91908110156104ce5760051b0190565b8181029291811591840414171561059357565b634e487b7160e01b600052601160045260246000fd5b91909160405192602084019263a9059cbb60e01b84526001600160a01b038092166024860152604485015260448452608084019184831067ffffffffffffffff84111761051a57610614926040521692600080938192519082875af161060d610530565b90846106c2565b908151918215159283610644575b50505061062c5750565b60249060405190635274afe760e01b82526004820152fd5b8192935090602091810103126101e657602001519081159182150361066c5750388080610622565b80fd5b8147106106aa5760008080936001600160a01b038294165af1610690610530565b501561069857565b604051630a12f52160e11b8152600490fd5b60405163cd78605960e01b8152306004820152602490fd5b906106d7575080511561069857805190602001fd5b8151158061070a575b6106e8575090565b604051639996b31560e01b81526001600160a01b039091166004820152602490fd5b50803b156106e056fea26469706673582212205930771bdac7a28577e83853179585c14d2d1de60202bee4d616bc2925c9934164736f6c634300081900330000000000000000000000002791bca1f2de4661ed88a30c99a7a9449aa84174a2646970667358221220de3461838761f5993074ee61b8d8216b7b91b643b2cf00cadf63f8ac3497f19664736f6c63430008190033",
  "devdoc": {
    "errors": {
      "AddressEmptyCode(address)": [
        {
          "details": "There's no code at `target` (it is not a contract)."
        }
      ],
      "AddressInsufficientBalance(address)": [
        {
          "details": "The ETH balance of the account is not enough to perform the operation."
        }
      ],
      "ERC20InsufficientAllowance(address,uint256,uint256)": [
        {
          "details": "Indicates a failure with the `spender`s `allowance`. Used in transfers.",
          "params": {
            "allowance": "Amount of tokens a `spender` is allowed to operate with.",
            "needed": "Minimum amount required to perform a transfer.",
            "spender": "Address that may be allowed to operate on tokens without being their owner."
          }
        }
      ],
      "ERC20InsufficientBalance(address,uint256,uint256)": [
        {
          "details": "Indicates an error related to the current `balance` of a `sender`. Used in transfers.",
          "params": {
            "balance": "Current balance for the interacting account.",
            "needed": "Minimum amount required to perform a transfer.",
            "sender": "Address whose tokens are being transferred."
          }
        }
      ],
      "ERC20InvalidApprover(address)": [
        {
          "details": "Indicates a failure with the `approver` of a token to be approved. Used in approvals.",
          "params": {
            "approver": "Address initiating an approval operation."
          }
        }
      ],
      "ERC20InvalidReceiver(address)": [
        {
          "details": "Indicates a failure with the token `receiver`. Used in transfers.",
          "params": {
            "receiver": "Address to which tokens are being transferred."
          }
        }
      ],
      "ERC20InvalidSender(address)": [
        {
          "details": "Indicates a failure with the token `sender`. Used in transfers.",
          "params": {
            "sender": "Address whose tokens are being transferred."
          }
        }
      ],
      "ERC20InvalidSpender(address)": [
        {
          "details": "Indicates a failure with the `spender` to be approved. Used in approvals.",
          "params": {
            "spender": "Address that may be allowed to operate on tokens without being their owner."
          }
        }
      ],
      "FailedInnerCall()": [
        {
          "details": "A call to an address target failed. The target may have reverted."
        }
      ],
      "OwnableInvalidOwner(address)": [
        {
          "details": "The owner is not a valid owner account. (eg. `address(0)`)"
        }
      ],
      "OwnableUnauthorizedAccount(address)": [
        {
          "details": "The caller account is not authorized to perform an operation."
        }
      ],
      "ReentrancyGuardReentrantCall()": [
        {
          "details": "Unauthorized reentrant call."
        }
      ],
      "SafeERC20FailedOperation(address)": [
        {
          "details": "An operation with an ERC20 token failed."
        }
      ]
    },
    "events": {
      "Approval(address,address,uint256)": {
        "details": "Emitted when the allowance of a `spender` for an `owner` is set by a call to {approve}. `value` is the new allowance."
      },
      "Transfer(address,address,uint256)": {
        "details": "Emitted when `value` tokens are moved from one account (`from`) to another (`to`). Note that `value` may be zero."
      }
    },
    "kind": "dev",
    "methods": {
      "allowance(address,address)": {
        "details": "See {IERC20-allowance}."
      },
      "approve(address,uint256)": {
        "details": "See {IERC20-approve}. NOTE: If `value` is the maximum `uint256`, the allowance is not updated on `transferFrom`. This is semantically equivalent to an infinite approval. Requirements: - `spender` cannot be the zero address."
      },
      "balanceOf(address)": {
        "details": "See {IERC20-balanceOf}."
      },
      "decimals()": {
        "details": "Returns the number of decimals used to get its user representation. For example, if `decimals` equals `2`, a balance of `505` tokens should be displayed to a user as `5.05` (`505 / 10 ** 2`). Tokens usually opt for a value of 18, imitating the relationship between Ether and Wei. This is the default value returned by this function, unless it's overridden. NOTE: This information is only used for _display_ purposes: it in no way affects any of the arithmetic of the contract, including {IERC20-balanceOf} and {IERC20-transfer}."
      },
      "name()": {
        "details": "Returns the name of the token."
      },
      "owner()": {
        "details": "Returns the address of the current owner."
      },
      "renounceOwnership()": {
        "details": "Leaves the contract without owner. It will not be possible to call `onlyOwner` functions. Can only be called by the current owner. NOTE: Renouncing ownership will leave the contract without an owner, thereby disabling any functionality that is only available to the owner."
      },
      "symbol()": {
        "details": "Returns the symbol of the token, usually a shorter version of the name."
      },
      "totalSupply()": {
        "details": "See {IERC20-totalSupply}."
      },
      "transfer(address,uint256)": {
        "details": "See {IERC20-transfer}. Requirements: - `to` cannot be the zero address. - the caller must have a balance of at least `value`."
      },
      "transferFrom(address,address,uint256)": {
        "details": "See {IERC20-transferFrom}. Emits an {Approval} event indicating the updated allowance. This is not required by the EIP. See the note at the beginning of {ERC20}. NOTE: Does not update the allowance if the current allowance is the maximum `uint256`. Requirements: - `from` and `to` cannot be the zero address. - `from` must have a balance of at least `value`. - the caller must have allowance for ``from``'s tokens of at least `value`."
      },
      "transferOwnership(address)": {
        "details": "Transfers ownership of the contract to a new account (`newOwner`). Can only be called by the current owner."
      }
    },
    "version": 1
  },
  "userdoc": {
    "kind": "user",
    "methods": {},
    "version": 1
  },
  "storageLayout": {
    "storage": [
      {
        "astId": 54,
        "contract": "contracts/core/BaluniRouter.sol:BaluniRouter",
        "label": "_owner",
        "offset": 0,
        "slot": "0",
        "type": "t_address"
      },
      {
        "astId": 357,
        "contract": "contracts/core/BaluniRouter.sol:BaluniRouter",
        "label": "_balances",
        "offset": 0,
        "slot": "1",
        "type": "t_mapping(t_address,t_uint256)"
      },
      {
        "astId": 363,
        "contract": "contracts/core/BaluniRouter.sol:BaluniRouter",
        "label": "_allowances",
        "offset": 0,
        "slot": "2",
        "type": "t_mapping(t_address,t_mapping(t_address,t_uint256))"
      },
      {
        "astId": 365,
        "contract": "contracts/core/BaluniRouter.sol:BaluniRouter",
        "label": "_totalSupply",
        "offset": 0,
        "slot": "3",
        "type": "t_uint256"
      },
      {
        "astId": 367,
        "contract": "contracts/core/BaluniRouter.sol:BaluniRouter",
        "label": "_name",
        "offset": 0,
        "slot": "4",
        "type": "t_string_storage"
      },
      {
        "astId": 369,
        "contract": "contracts/core/BaluniRouter.sol:BaluniRouter",
        "label": "_symbol",
        "offset": 0,
        "slot": "5",
        "type": "t_string_storage"
      },
      {
        "astId": 1573,
        "contract": "contracts/core/BaluniRouter.sol:BaluniRouter",
        "label": "_status",
        "offset": 0,
        "slot": "6",
        "type": "t_uint256"
      },
      {
        "astId": 7449,
        "contract": "contracts/core/BaluniRouter.sol:BaluniRouter",
        "label": "balanceStakedOf",
        "offset": 0,
        "slot": "7",
        "type": "t_mapping(t_address,t_uint256)"
      },
      {
        "astId": 7453,
        "contract": "contracts/core/BaluniRouter.sol:BaluniRouter",
        "label": "stakeTimestamp",
        "offset": 0,
        "slot": "8",
        "type": "t_mapping(t_address,t_uint256)"
      },
      {
        "astId": 7455,
        "contract": "contracts/core/BaluniRouter.sol:BaluniRouter",
        "label": "stakingSupply",
        "offset": 0,
        "slot": "9",
        "type": "t_uint256"
      },
      {
        "astId": 7460,
        "contract": "contracts/core/BaluniRouter.sol:BaluniRouter",
        "label": "rewardIndex",
        "offset": 0,
        "slot": "10",
        "type": "t_uint256"
      },
      {
        "astId": 7464,
        "contract": "contracts/core/BaluniRouter.sol:BaluniRouter",
        "label": "rewardIndexOf",
        "offset": 0,
        "slot": "11",
        "type": "t_mapping(t_address,t_uint256)"
      },
      {
        "astId": 7468,
        "contract": "contracts/core/BaluniRouter.sol:BaluniRouter",
        "label": "earned",
        "offset": 0,
        "slot": "12",
        "type": "t_mapping(t_address,t_uint256)"
      },
      {
        "astId": 4601,
        "contract": "contracts/core/BaluniRouter.sol:BaluniRouter",
        "label": "_BPS_FEE",
        "offset": 0,
        "slot": "13",
        "type": "t_uint256"
      },
      {
        "astId": 4604,
        "contract": "contracts/core/BaluniRouter.sol:BaluniRouter",
        "label": "_BPS_BASE",
        "offset": 0,
        "slot": "14",
        "type": "t_uint256"
      },
      {
        "astId": 4607,
        "contract": "contracts/core/BaluniRouter.sol:BaluniRouter",
        "label": "_BPS_LIQUIDATE_FEE",
        "offset": 0,
        "slot": "15",
        "type": "t_uint256"
      },
      {
        "astId": 4614,
        "contract": "contracts/core/BaluniRouter.sol:BaluniRouter",
        "label": "tokens",
        "offset": 0,
        "slot": "16",
        "type": "t_struct(AddressSet)1957_storage"
      },
      {
        "astId": 4649,
        "contract": "contracts/core/BaluniRouter.sol:BaluniRouter",
        "label": "userAgents",
        "offset": 0,
        "slot": "18",
        "type": "t_mapping(t_address,t_contract(BaluniAgent)4560)"
      },
      {
        "astId": 4653,
        "contract": "contracts/core/BaluniRouter.sol:BaluniRouter",
        "label": "tokenBalanceMap",
        "offset": 0,
        "slot": "19",
        "type": "t_mapping(t_address,t_uint256)"
      }
    ],
    "types": {
      "t_address": {
        "encoding": "inplace",
        "label": "address",
        "numberOfBytes": "20"
      },
      "t_array(t_bytes32)dyn_storage": {
        "base": "t_bytes32",
        "encoding": "dynamic_array",
        "label": "bytes32[]",
        "numberOfBytes": "32"
      },
      "t_bytes32": {
        "encoding": "inplace",
        "label": "bytes32",
        "numberOfBytes": "32"
      },
      "t_contract(BaluniAgent)4560": {
        "encoding": "inplace",
        "label": "contract BaluniAgent",
        "numberOfBytes": "20"
      },
      "t_mapping(t_address,t_contract(BaluniAgent)4560)": {
        "encoding": "mapping",
        "key": "t_address",
        "label": "mapping(address => contract BaluniAgent)",
        "numberOfBytes": "32",
        "value": "t_contract(BaluniAgent)4560"
      },
      "t_mapping(t_address,t_mapping(t_address,t_uint256))": {
        "encoding": "mapping",
        "key": "t_address",
        "label": "mapping(address => mapping(address => uint256))",
        "numberOfBytes": "32",
        "value": "t_mapping(t_address,t_uint256)"
      },
      "t_mapping(t_address,t_uint256)": {
        "encoding": "mapping",
        "key": "t_address",
        "label": "mapping(address => uint256)",
        "numberOfBytes": "32",
        "value": "t_uint256"
      },
      "t_mapping(t_bytes32,t_uint256)": {
        "encoding": "mapping",
        "key": "t_bytes32",
        "label": "mapping(bytes32 => uint256)",
        "numberOfBytes": "32",
        "value": "t_uint256"
      },
      "t_string_storage": {
        "encoding": "bytes",
        "label": "string",
        "numberOfBytes": "32"
      },
      "t_struct(AddressSet)1957_storage": {
        "encoding": "inplace",
        "label": "struct EnumerableSet.AddressSet",
        "members": [
          {
            "astId": 1956,
            "contract": "contracts/core/BaluniRouter.sol:BaluniRouter",
            "label": "_inner",
            "offset": 0,
            "slot": "0",
            "type": "t_struct(Set)1642_storage"
          }
        ],
        "numberOfBytes": "64"
      },
      "t_struct(Set)1642_storage": {
        "encoding": "inplace",
        "label": "struct EnumerableSet.Set",
        "members": [
          {
            "astId": 1637,
            "contract": "contracts/core/BaluniRouter.sol:BaluniRouter",
            "label": "_values",
            "offset": 0,
            "slot": "0",
            "type": "t_array(t_bytes32)dyn_storage"
          },
          {
            "astId": 1641,
            "contract": "contracts/core/BaluniRouter.sol:BaluniRouter",
            "label": "_positions",
            "offset": 0,
            "slot": "1",
            "type": "t_mapping(t_bytes32,t_uint256)"
          }
        ],
        "numberOfBytes": "64"
      },
      "t_uint256": {
        "encoding": "inplace",
        "label": "uint256",
        "numberOfBytes": "32"
      }
    }
  }
}