{
  "address": "0x75777130Bf188D689B4C00BB825Fd124bFFC02B2",
  "abi": [
    {
      "inputs": [],
      "stateMutability": "nonpayable",
      "type": "constructor"
    },
    {
      "inputs": [
        {
          "internalType": "address",
          "name": "target",
          "type": "address"
        }
      ],
      "name": "AddressEmptyCode",
      "type": "error"
    },
    {
      "inputs": [
        {
          "internalType": "address",
          "name": "account",
          "type": "address"
        }
      ],
      "name": "AddressInsufficientBalance",
      "type": "error"
    },
    {
      "inputs": [
        {
          "internalType": "address",
          "name": "spender",
          "type": "address"
        },
        {
          "internalType": "uint256",
          "name": "allowance",
          "type": "uint256"
        },
        {
          "internalType": "uint256",
          "name": "needed",
          "type": "uint256"
        }
      ],
      "name": "ERC20InsufficientAllowance",
      "type": "error"
    },
    {
      "inputs": [
        {
          "internalType": "address",
          "name": "sender",
          "type": "address"
        },
        {
          "internalType": "uint256",
          "name": "balance",
          "type": "uint256"
        },
        {
          "internalType": "uint256",
          "name": "needed",
          "type": "uint256"
        }
      ],
      "name": "ERC20InsufficientBalance",
      "type": "error"
    },
    {
      "inputs": [
        {
          "internalType": "address",
          "name": "approver",
          "type": "address"
        }
      ],
      "name": "ERC20InvalidApprover",
      "type": "error"
    },
    {
      "inputs": [
        {
          "internalType": "address",
          "name": "receiver",
          "type": "address"
        }
      ],
      "name": "ERC20InvalidReceiver",
      "type": "error"
    },
    {
      "inputs": [
        {
          "internalType": "address",
          "name": "sender",
          "type": "address"
        }
      ],
      "name": "ERC20InvalidSender",
      "type": "error"
    },
    {
      "inputs": [
        {
          "internalType": "address",
          "name": "spender",
          "type": "address"
        }
      ],
      "name": "ERC20InvalidSpender",
      "type": "error"
    },
    {
      "inputs": [],
      "name": "FailedInnerCall",
      "type": "error"
    },
    {
      "inputs": [
        {
          "internalType": "address",
          "name": "owner",
          "type": "address"
        }
      ],
      "name": "OwnableInvalidOwner",
      "type": "error"
    },
    {
      "inputs": [
        {
          "internalType": "address",
          "name": "account",
          "type": "address"
        }
      ],
      "name": "OwnableUnauthorizedAccount",
      "type": "error"
    },
    {
      "inputs": [],
      "name": "ReentrancyGuardReentrantCall",
      "type": "error"
    },
    {
      "inputs": [
        {
          "internalType": "address",
          "name": "token",
          "type": "address"
        }
      ],
      "name": "SafeERC20FailedOperation",
      "type": "error"
    },
    {
      "anonymous": false,
      "inputs": [
        {
          "indexed": false,
          "internalType": "address",
          "name": "user",
          "type": "address"
        },
        {
          "indexed": false,
          "internalType": "address",
          "name": "agent",
          "type": "address"
        }
      ],
      "name": "AgentCreated",
      "type": "event"
    },
    {
      "anonymous": false,
      "inputs": [
        {
          "indexed": true,
          "internalType": "address",
          "name": "owner",
          "type": "address"
        },
        {
          "indexed": true,
          "internalType": "address",
          "name": "spender",
          "type": "address"
        },
        {
          "indexed": false,
          "internalType": "uint256",
          "name": "value",
          "type": "uint256"
        }
      ],
      "name": "Approval",
      "type": "event"
    },
    {
      "anonymous": false,
      "inputs": [
        {
          "indexed": false,
          "internalType": "address",
          "name": "user",
          "type": "address"
        },
        {
          "indexed": false,
          "internalType": "uint256",
          "name": "value",
          "type": "uint256"
        }
      ],
      "name": "Burn",
      "type": "event"
    },
    {
      "anonymous": false,
      "inputs": [
        {
          "indexed": false,
          "internalType": "uint256",
          "name": "newFee",
          "type": "uint256"
        }
      ],
      "name": "ChangeBpsFee",
      "type": "event"
    },
    {
      "anonymous": false,
      "inputs": [
        {
          "indexed": false,
          "internalType": "address",
          "name": "newPool",
          "type": "address"
        }
      ],
      "name": "ChangeStakingPool",
      "type": "event"
    },
    {
      "anonymous": false,
      "inputs": [
        {
          "indexed": false,
          "internalType": "address",
          "name": "user",
          "type": "address"
        },
        {
          "components": [
            {
              "internalType": "address",
              "name": "to",
              "type": "address"
            },
            {
              "internalType": "uint256",
              "name": "value",
              "type": "uint256"
            },
            {
              "internalType": "bytes",
              "name": "data",
              "type": "bytes"
            }
          ],
          "indexed": false,
          "internalType": "struct Agent.Call[]",
          "name": "calls",
          "type": "tuple[]"
        },
        {
          "indexed": false,
          "internalType": "address[]",
          "name": "tokensReturn",
          "type": "address[]"
        }
      ],
      "name": "Execute",
      "type": "event"
    },
    {
      "anonymous": false,
      "inputs": [
        {
          "indexed": false,
          "internalType": "address",
          "name": "user",
          "type": "address"
        },
        {
          "indexed": false,
          "internalType": "uint256",
          "name": "value",
          "type": "uint256"
        }
      ],
      "name": "Mint",
      "type": "event"
    },
    {
      "anonymous": false,
      "inputs": [
        {
          "indexed": true,
          "internalType": "address",
          "name": "previousOwner",
          "type": "address"
        },
        {
          "indexed": true,
          "internalType": "address",
          "name": "newOwner",
          "type": "address"
        }
      ],
      "name": "OwnershipTransferred",
      "type": "event"
    },
    {
      "anonymous": false,
      "inputs": [
        {
          "indexed": true,
          "internalType": "address",
          "name": "from",
          "type": "address"
        },
        {
          "indexed": true,
          "internalType": "address",
          "name": "to",
          "type": "address"
        },
        {
          "indexed": false,
          "internalType": "uint256",
          "name": "value",
          "type": "uint256"
        }
      ],
      "name": "Transfer",
      "type": "event"
    },
    {
      "inputs": [],
      "name": "USDC",
      "outputs": [
        {
          "internalType": "contract IERC20",
          "name": "",
          "type": "address"
        }
      ],
      "stateMutability": "view",
      "type": "function"
    },
    {
      "inputs": [],
      "name": "_BPS_FEE",
      "outputs": [
        {
          "internalType": "uint256",
          "name": "",
          "type": "uint256"
        }
      ],
      "stateMutability": "view",
      "type": "function"
    },
    {
      "inputs": [],
      "name": "_MAX_BPS_FEE",
      "outputs": [
        {
          "internalType": "uint256",
          "name": "",
          "type": "uint256"
        }
      ],
      "stateMutability": "view",
      "type": "function"
    },
    {
      "inputs": [
        {
          "internalType": "address",
          "name": "owner",
          "type": "address"
        },
        {
          "internalType": "address",
          "name": "spender",
          "type": "address"
        }
      ],
      "name": "allowance",
      "outputs": [
        {
          "internalType": "uint256",
          "name": "",
          "type": "uint256"
        }
      ],
      "stateMutability": "view",
      "type": "function"
    },
    {
      "inputs": [
        {
          "internalType": "address",
          "name": "spender",
          "type": "address"
        },
        {
          "internalType": "uint256",
          "name": "value",
          "type": "uint256"
        }
      ],
      "name": "approve",
      "outputs": [
        {
          "internalType": "bool",
          "name": "",
          "type": "bool"
        }
      ],
      "stateMutability": "nonpayable",
      "type": "function"
    },
    {
      "inputs": [
        {
          "internalType": "address",
          "name": "account",
          "type": "address"
        }
      ],
      "name": "balanceOf",
      "outputs": [
        {
          "internalType": "uint256",
          "name": "",
          "type": "uint256"
        }
      ],
      "stateMutability": "view",
      "type": "function"
    },
    {
      "inputs": [
        {
          "internalType": "uint256",
          "name": "amount",
          "type": "uint256"
        }
      ],
      "name": "burn",
      "outputs": [],
      "stateMutability": "nonpayable",
      "type": "function"
    },
    {
      "inputs": [
        {
          "internalType": "uint256",
          "name": "_newFee",
          "type": "uint256"
        }
      ],
      "name": "changeBpsFee",
      "outputs": [],
      "stateMutability": "nonpayable",
      "type": "function"
    },
    {
      "inputs": [
        {
          "internalType": "address",
          "name": "_newPool",
          "type": "address"
        }
      ],
      "name": "changeStakingPool",
      "outputs": [],
      "stateMutability": "nonpayable",
      "type": "function"
    },
    {
      "inputs": [],
      "name": "decimals",
      "outputs": [
        {
          "internalType": "uint8",
          "name": "",
          "type": "uint8"
        }
      ],
      "stateMutability": "view",
      "type": "function"
    },
    {
      "inputs": [
        {
          "components": [
            {
              "internalType": "address",
              "name": "to",
              "type": "address"
            },
            {
              "internalType": "uint256",
              "name": "value",
              "type": "uint256"
            },
            {
              "internalType": "bytes",
              "name": "data",
              "type": "bytes"
            }
          ],
          "internalType": "struct Agent.Call[]",
          "name": "calls",
          "type": "tuple[]"
        },
        {
          "internalType": "address[]",
          "name": "tokensReturn",
          "type": "address[]"
        }
      ],
      "name": "execute",
      "outputs": [],
      "stateMutability": "nonpayable",
      "type": "function"
    },
    {
      "inputs": [
        {
          "internalType": "address",
          "name": "_user",
          "type": "address"
        }
      ],
      "name": "getAgentAddress",
      "outputs": [
        {
          "internalType": "address",
          "name": "",
          "type": "address"
        }
      ],
      "stateMutability": "view",
      "type": "function"
    },
    {
      "inputs": [
        {
          "internalType": "uint256",
          "name": "_amount",
          "type": "uint256"
        }
      ],
      "name": "getBaluniMintAmount",
      "outputs": [
        {
          "internalType": "uint256",
          "name": "",
          "type": "uint256"
        }
      ],
      "stateMutability": "view",
      "type": "function"
    },
    {
      "inputs": [],
      "name": "getBpsFee",
      "outputs": [
        {
          "internalType": "uint256",
          "name": "",
          "type": "uint256"
        }
      ],
      "stateMutability": "view",
      "type": "function"
    },
    {
      "inputs": [
        {
          "internalType": "uint256",
          "name": "balAmount",
          "type": "uint256"
        }
      ],
      "name": "getShare",
      "outputs": [
        {
          "internalType": "uint256",
          "name": "",
          "type": "uint256"
        }
      ],
      "stateMutability": "view",
      "type": "function"
    },
    {
      "inputs": [
        {
          "internalType": "uint256",
          "name": "amount",
          "type": "uint256"
        }
      ],
      "name": "mint",
      "outputs": [],
      "stateMutability": "nonpayable",
      "type": "function"
    },
    {
      "inputs": [],
      "name": "name",
      "outputs": [
        {
          "internalType": "string",
          "name": "",
          "type": "string"
        }
      ],
      "stateMutability": "view",
      "type": "function"
    },
    {
      "inputs": [],
      "name": "owner",
      "outputs": [
        {
          "internalType": "address",
          "name": "",
          "type": "address"
        }
      ],
      "stateMutability": "view",
      "type": "function"
    },
    {
      "inputs": [],
      "name": "renounceOwnership",
      "outputs": [],
      "stateMutability": "nonpayable",
      "type": "function"
    },
    {
      "inputs": [],
      "name": "stakingPool",
      "outputs": [
        {
          "internalType": "address",
          "name": "",
          "type": "address"
        }
      ],
      "stateMutability": "view",
      "type": "function"
    },
    {
      "inputs": [],
      "name": "symbol",
      "outputs": [
        {
          "internalType": "string",
          "name": "",
          "type": "string"
        }
      ],
      "stateMutability": "view",
      "type": "function"
    },
    {
      "inputs": [],
      "name": "totalSupply",
      "outputs": [
        {
          "internalType": "uint256",
          "name": "",
          "type": "uint256"
        }
      ],
      "stateMutability": "view",
      "type": "function"
    },
    {
      "inputs": [
        {
          "internalType": "address",
          "name": "to",
          "type": "address"
        },
        {
          "internalType": "uint256",
          "name": "value",
          "type": "uint256"
        }
      ],
      "name": "transfer",
      "outputs": [
        {
          "internalType": "bool",
          "name": "",
          "type": "bool"
        }
      ],
      "stateMutability": "nonpayable",
      "type": "function"
    },
    {
      "inputs": [
        {
          "internalType": "address",
          "name": "from",
          "type": "address"
        },
        {
          "internalType": "address",
          "name": "to",
          "type": "address"
        },
        {
          "internalType": "uint256",
          "name": "value",
          "type": "uint256"
        }
      ],
      "name": "transferFrom",
      "outputs": [
        {
          "internalType": "bool",
          "name": "",
          "type": "bool"
        }
      ],
      "stateMutability": "nonpayable",
      "type": "function"
    },
    {
      "inputs": [
        {
          "internalType": "address",
          "name": "newOwner",
          "type": "address"
        }
      ],
      "name": "transferOwnership",
      "outputs": [],
      "stateMutability": "nonpayable",
      "type": "function"
    },
    {
      "inputs": [
        {
          "internalType": "address",
          "name": "",
          "type": "address"
        }
      ],
      "name": "userAgents",
      "outputs": [
        {
          "internalType": "contract Agent",
          "name": "",
          "type": "address"
        }
      ],
      "stateMutability": "view",
      "type": "function"
    }
  ],
  "transactionHash": "0x5e1a61a1e0ace2dce607b25b3742907b736a3446102b16f9c75d17f03d80d583",
  "args": [],
  "numDeployments": 2,
  "solcInputHash": "1883860fc3a26ed100114e405c6614a7",
  "bytecode": "0x6080604052346103395761001161033e565b6020906542616c756e6960d01b8282015261002a61033e565b6542414c554e4960d01b8382015233156103205760008054336001600160a01b0319821681178355919291906001600160a01b03167f8be0079c531659141344cd1fd0a4f28419497f9722a3daafe3b4186f6b6457e08480a382516001600160401b039182821161030c576004938454926001968785811c95168015610302575b898610146102ef578190601f958681116102a1575b508990868311600114610242578492610237575b5050600019600383901b1c191690871b1785555b8151938411610224576005948554908782811c9216801561021a575b8983101461020757508381116101c6575b508692841160011461016357839495965092610158575b5050600019600383901b1c191690831b1790555b60065561012c60085560405161278490816103788239f35b01519050388061012c565b9190601f1984169685845280842093905b8882106101af57505083869796959610610196575b505050811b019055610140565b015160001960f88460031b161c19169055388080610189565b808885968294968601518155019501930190610174565b85825287822084808701881c8201928a88106101fe575b01871c019087905b8281106101f3575050610115565b8381550187906101e5565b925081926101dd565b634e487b7160e01b835260229052602482fd5b91607f1691610104565b634e487b7160e01b815260418552602490fd5b0151905038806100d4565b8885528a85208a94509190601f198416865b8d82821061028b5750508411610272575b505050811b0185556100e8565b015160001960f88460031b161c19169055388080610265565b8385015186558d97909501949384019301610254565b9091508784528984208680850160051c8201928c86106102e6575b918b91869594930160051c01915b8281106102d85750506100c0565b8681558594508b91016102ca565b925081926102bc565b634e487b7160e01b835260228752602483fd5b94607f16946100ab565b634e487b7160e01b84526041600452602484fd5b604051631e4fbdf760e01b815260006004820152602490fd5b600080fd5b60408051919082016001600160401b038111838210176103615760405260068252565b634e487b7160e01b600052604160045260246000fdfe6040608081526004908136101561001557600080fd5b600091823560e01c806306497cb9146113fc57806306fdde0314611304578063095ea7b31461125b5780630c56ae3b1461123257806318160ddd14611213578063185fcffe1461068c57806323b872dd1461112057806327d54a9214610f95578063313ce56714610f7957806334decfc914610f5c57806342966c6814610ddd5780635bca5a5514610dbd57806370a0823114610d85578063715018a614610d2b5780637811a78514610cf05780638615ee5314610b6957806389a3027114610b3a5780638da5cb5b14610b1257806395d89b4114610a0e578063a0712d68146106dc578063a9059cbb146106ab578063b9f5e6171461068c578063cfb5a5f814610662578063dd62ed3e14610614578063eedc3c50146101d25763f2fde38b1461013f57600080fd5b346101ce5760203660031901126101ce57610158611498565b9061016161170e565b6001600160a01b039182169283156101b8575050600054826bffffffffffffffffffffffff60a01b821617600055167f8be0079c531659141344cd1fd0a4f28419497f9722a3daafe3b4186f6b6457e0600080a380f35b51631e4fbdf760e01b8152908101849052602490fd5b8280fd5b50346101ce57816003193601126101ce5767ffffffffffffffff9080358281116106105761020390369083016114d8565b92906024359382851161060c5761021e8695369086016114d8565b909161022861181a565b8651936370a0823160e01b918286523088870152602094732791bca1f2de4661ed88a30c99a7a9449aa841749786886024818c5afa978815610602578d986105d0575b508a51878101903360601b82526014815261028581611533565b519020338e52600988529b8d20546001600160a01b039c91908d1615610514575b5050338c52600986528b8b8b82205416803b15610510578b51630eedc3c560e41b8152808c018d905290829082908183816102fc8d6102e9604484018d8f6115f0565b838103600319016024850152908b6116ca565b03925af180156105065790889695949392916104e7575b5050610365907f959525f9273812bc5ed0bd375df7492e36027567ab13116ec62673c8d46870c89495966103588d5195869533875260608b88015260608701916115f0565b848103858f0152916116ca565b0390a16024875180968193825230898301525afa9081156104dd5787916104a8575b5061039292506115b2565b9064e8d4a5100091828102928184041490151715610495578490826103bb575b50600160065580f35b6103ce6103c7846115bf565b80946115b2565b906103d98230611903565b8451308152602081018390527f0f6798a560793a54c3bcfe86a93cde1e73087d944c0ea20544137d412139688596908790604090a16007541691823b156104875760248492838851958694859363037312d160e21b85528401525af1801561048b57610473575b5050610466916104508233611903565b5133815260208101919091529081906040820190565b0390a138808083816103b2565b61047c90611509565b610487578338610440565b8380fd5b84513d84823e3d90fd5b634e487b7160e01b855260119052602484fd5b905082813d83116104d6575b6104be818361154f565b810103126104d157610392915138610387565b600080fd5b503d6104b4565b85513d89823e3d90fd5b6104f49192959650611509565b610502578593928c38610313565b8b80fd5b8c513d84823e3d90fd5b5080fd5b8b5190610d66808301918211838310176105bc57918f928192610545916119e9843933815230602082015260400190565b0391f58c81156105b1573380825260098952908c902080546001600160a01b031916928e1692831790558b519081526001600160a01b0390911660208201527f8c6e353968e7ffd60dba22ff7d2a4354af301f9d41858a35668e7292ec1301b690604090a138806102a6565b8b51903d90823e3d90fd5b50634e487b7160e01b8f5260418c5260248ffd5b9a509650858a813d81116105fb575b6105e9818361154f565b810103126104d1578a9951963861026b565b503d6105df565b8b513d8f823e3d90fd5b8680fd5b8480fd5b505034610510578060031936011261051057602091610631611498565b8261063a6114ae565b6001600160a01b03928316845260028652922091166000908152908352819020549051908152f35b50913461068957602036600319011261068957506106826020923561183d565b9051908152f35b80fd5b5050346105105781600319360112610510576020906008549051908152f35b5050346105105780600319360112610510576020906106d56106cb611498565b602435903361173a565b5160018152f35b5082903461051057602092836003193601126101ce5781359182156109ce578151636eb1769f60e11b815233828201908152306020820152819060400103908681732791bca1f2de4661ed88a30c99a7a9449aa841749381855afa9081156109c457908591879161098f575b501061094d57825195808701966323b872dd60e01b885286602498338a8401523060448401528760648401526064835260a083019267ffffffffffffffff938181108582111761093b57885251829182875af13d1561092e573d91821161091c57906107d1918651916107c485601f19601f840116018461154f565b82523d898584013e611965565b8051918215159283610903575b5050506108f0575064e8d4a51000808402938404036108de576008546127109081038181116108cc57859695916108186108209287611589565b0480956115b2565b61082a8130611903565b8351308152602081018290527f0f6798a560793a54c3bcfe86a93cde1e73087d944c0ea20544137d412139688596908790604090a16007546001600160a01b031693843b1561048757838651958694859363037312d160e21b85528401525af180156108c2576108ab575b50906108a5916104508233611903565b0390a180f35b936108ba6108a5939295611509565b939091610895565b82513d87823e3d90fd5b634e487b7160e01b8652601183528686fd5b634e487b7160e01b8452601190528383fd5b85925191635274afe760e01b8352820152fd5b6109139350820181019101611571565b158780806107de565b634e487b7160e01b8852604185528888fd5b6107d19150606090611965565b634e487b7160e01b8452604188528b84fd5b5084606492519162461bcd60e51b8352820152601960248201527f436865636b2074686520746f6b656e20616c6c6f77616e6365000000000000006044820152fd5b809250888092503d83116109bd575b6109a8818361154f565b810103126109b95784905188610748565b8580fd5b503d61099e565b84513d88823e3d90fd5b8480606493519262461bcd60e51b845283015260248201527f416d6f756e74206d7573742062652067726561746572207468616e207a65726f6044820152fd5b5090346101ce57826003193601126101ce5780519183600554906001908260011c92600181168015610b08575b6020958686108214610af55750848852908115610ad35750600114610a7a575b610a768686610a6c828b038361154f565b519182918261146c565b0390f35b929550600583527f036b6384b5eca791c62761152d0c79bb0604c104a5fb6f4eb0703f3154bb3db05b828410610ac05750505082610a7694610a6c928201019438610a5b565b8054868501880152928601928101610aa3565b60ff191687860152505050151560051b8301019250610a6c82610a7638610a5b565b634e487b7160e01b845260229052602483fd5b93607f1693610a3b565b505034610510578160031936011261051057905490516001600160a01b039091168152602090f35b50503461051057816003193601126105105760209051732791bca1f2de4661ed88a30c99a7a9449aa841748152f35b5090346101ce576020908160031936011261048757610b86611498565b90610b8f61170e565b6001600160a01b03918216918215610ca1576007541680610c4f575b50805163095ea7b360e01b81529384018290526000196024850152828460448188305af1938415610c45577fe98621a0e42205fc1b1f446bce8f4d59f2cc1bd957c2ceda956ddad6e228b1e894610c18575b50600780546001600160a01b0319168317905551908152a180f35b610c3790843d8611610c3e575b610c2f818361154f565b810190611571565b5038610bfd565b503d610c25565b81513d87823e3d90fd5b81519063095ea7b360e01b825285820152856024820152838160448189305af18015610c975715610bab57610c9090843d8611610c3e57610c2f818361154f565b5038610bab565b82513d88823e3d90fd5b815162461bcd60e51b81528086018590526024808201527f5374616b696e6720706f6f6c20616464726573732063616e6e6f74206265207a60448201526332b9379760e11b6064820152608490fd5b505034610510576020366003190112610510576020916001600160a01b0390829082610d1a611498565b168152600985522054169051908152f35b8334610689578060031936011261068957610d4461170e565b80546001600160a01b03198116825581906001600160a01b03167f8be0079c531659141344cd1fd0a4f28419497f9722a3daafe3b4186f6b6457e08280a380f35b5050346105105760203660031901126105105760209181906001600160a01b03610dad611498565b1681526001845220549051908152f35b5091346106895760203660031901126106895750610682602092356115bf565b50919034610510576020806003193601126101ce57833591610dfd61181a565b8215610f2657610e3f8264e8d4a51000610e168661183d565b845163a9059cbb60e01b8152338a82019081529290910460208301529283918291604090910190565b038188732791bca1f2de4661ed88a30c99a7a9449aa841745af180156108c257610f09575b503315610ef357338452600182528084205494838610610ec85750907fddf252ad1be2c89b69c2b068fc378daa952ba7f163c4a11628f55a4df523b3ef918385963387526001845203818620558360035403600355519283523392a3600160065580f35b905163391434e360e21b81523391810191825260208201869052604082018490529081906060010390fd5b51634b637e8f60e11b8152808501849052602490fd5b610f1f90833d8511610c3e57610c2f818361154f565b5038610e64565b5162461bcd60e51b815280850191909152601060248201526f125b9cdd59999a58da595b9d0810905360821b6044820152606490fd5b505034610510578160031936011261051057602090516101f48152f35b5050346105105781600319360112610510576020905160128152f35b5090346101ce576020928360031936011261068957610fb2611498565b8251606082901b6bffffffffffffffffffffffff1916868201908152601482526001600160a01b039492939291610fe881611533565b51902092848116156110dd5761107061107c88610d669385519061100e8387018361154f565b858252828201956119e9873986516001600160a01b039091168382019081523060208201529061104a816040840103601f19810183528261154f565b8751958693611061868601998a9251928391611449565b84019151809386840190611449565b0103808452018261154f565b519020918151928784019460ff60f81b86523060601b60218601526035850152605584015260558352608083019583871067ffffffffffffffff8811176110ca575050849052519020168152f35b634e487b7160e01b825260419052602490fd5b815162461bcd60e51b8152808701889052601d60248201527f4f776e657220616464726573732063616e6e6f74206265207a65726f2e0000006044820152606490fd5b5082346106895760603660031901126106895761113b611498565b6111436114ae565b916044359360018060a01b03831680835260026020528683203384526020528683205491600019830361117f575b6020886106d589898961173a565b8683106111e75781156111d05733156111b9575082526002602090815286832033845281529186902090859003905582906106d587611171565b8751634a1406b160e11b8152908101849052602490fd5b875163e602df0560e01b8152908101849052602490fd5b8751637dc7a0d960e11b8152339181019182526020820193909352604081018790528291506060010390fd5b5050346105105781600319360112610510576020906003549051908152f35b50503461051057816003193601126105105760075490516001600160a01b039091168152602090f35b50346101ce57816003193601126101ce57611274611498565b6024359033156112ed576001600160a01b03169182156112d657508083602095338152600287528181208582528752205582519081527f8c5be1e5ebec7d5bd14f71427d1e84f3dd0314c0f7b2291e5b200ac8c7c3b925843392a35160018152f35b8351634a1406b160e11b8152908101859052602490fd5b835163e602df0560e01b8152808401869052602490fd5b5091903461051057816003193601126105105780519180938054916001908360011c92600185169485156113f2575b60209586861081146113df578589529081156113bb5750600114611363575b610a768787610a6c828c038361154f565b81529295507f8a35acfbc15ff81a39ae7d344fd709f28e8600b4aa8c65c6b64bfe7fe36bd19b5b8284106113a85750505082610a7694610a6c92820101943880611352565b805486850188015292860192810161138a565b60ff19168887015250505050151560051b8301019250610a6c82610a763880611352565b634e487b7160e01b845260228352602484fd5b93607f1693611333565b50346101ce5760203660031901126101ce577fbea1b31142ae4b1f4efad240349036d718b7950d246c127768097ccf602fc7e091602091359061143d61170e565b8160085551908152a180f35b60005b83811061145c5750506000910152565b818101518382015260200161144c565b6040916020825261148c8151809281602086015260208686019101611449565b601f01601f1916010190565b600435906001600160a01b03821682036104d157565b602435906001600160a01b03821682036104d157565b35906001600160a01b03821682036104d157565b9181601f840112156104d15782359167ffffffffffffffff83116104d1576020808501948460051b0101116104d157565b67ffffffffffffffff811161151d57604052565b634e487b7160e01b600052604160045260246000fd5b6040810190811067ffffffffffffffff82111761151d57604052565b90601f8019910116810190811067ffffffffffffffff82111761151d57604052565b908160209103126104d1575180151581036104d15790565b8181029291811591840414171561159c57565b634e487b7160e01b600052601160045260246000fd5b9190820391821161159c57565b600854908160011b918083046002149015171561159c5761271091820382811161159c576115ec91611589565b0490565b8183526020600583901b84018101939192906000818401855b84831061161a575050505050505090565b90919293949596601f1990818882030184528835605e19843603018112156104d157606092908401906001600160a01b03611654836114c4565b168352878201358884015260409182810135601e19823603018112156104d157019288843594019167ffffffffffffffff85116104d15784360383136104d157601f858b968860019989988701528501528060809586860137600085828601015201160101990193019301919594939290611609565b91908082526020809201929160005b8281106116e7575050505090565b909192938280600192838060a01b036116ff896114c4565b168152019501939291016116d9565b6000546001600160a01b0316330361172257565b60405163118cdaa760e01b8152336004820152602490fd5b916001600160a01b0380841692831561180157169283156117e85760009083825260016020526040822054908382106117b6575091604082827fddf252ad1be2c89b69c2b068fc378daa952ba7f163c4a11628f55a4df523b3ef95876020965260018652038282205586815220818154019055604051908152a3565b60405163391434e360e21b81526001600160a01b03919091166004820152602481019190915260448101839052606490fd5b60405163ec442f0560e01b815260006004820152602490fd5b604051634b637e8f60e11b815260006004820152602490fd5b60026006541461182b576002600655565b604051633ee5aeb560e01b8152600490fd5b6003546040516370a0823160e01b815230600482015291602083602481732791bca1f2de4661ed88a30c99a7a9449aa841745afa9283156118f7576000936118c3575b5064e8d4a51000928381029080820485149015171561159c576118a291611589565b81156118ad57040490565b634e487b7160e01b600052601260045260246000fd5b90926020823d6020116118ef575b816118de6020938361154f565b810103126106895750519138611880565b3d91506118d1565b6040513d6000823e3d90fd5b6001600160a01b03169081156117e8576003549080820180921161159c5760207fddf252ad1be2c89b69c2b068fc378daa952ba7f163c4a11628f55a4df523b3ef916000936003558484526001825260408420818154019055604051908152a3565b90919061198e575080511561197c57805190602001fd5b604051630a12f52160e11b8152600490fd5b90805115806119cb575b61199f5790565b604051639996b31560e01b8152732791bca1f2de4661ed88a30c99a7a9449aa841746004820152602490fd5b50732791bca1f2de4661ed88a30c99a7a9449aa841743b1561199856fe60a03461010b57601f610d6638819003918201601f19168301916001600160401b0383118484101761011057808492604094855283398101031261010b57610052602061004b83610126565b9201610126565b73e592427a0aece92de3edee1f18e0157c058615646080526001600160a01b039081169190338390036100c65760018060a01b031991168160005416176000556001541617600155604051610c2b908161013b823960805181818160e10152818161074d0152818161096d0152610b1c0152f35b60405162461bcd60e51b815260206004820152601b60248201527f4f6e6c7920526f757465722063616e20696e7374616e746961746500000000006044820152606490fd5b600080fd5b634e487b7160e01b600052604160045260246000fd5b51906001600160a01b038216820361010b5756fe6080604081815260048036101561001557600080fd5b600092833560e01c908163735de9f714610739575080638da5cb5b1461070d5763eedc3c501461004457600080fd5b3461070957816003193601126107095767ffffffffffffffff9080358281116106bf57610074903690830161077c565b602494919490813585811161070557610090903690860161077c565b909560018060a01b0392600198848a541633036106c3578a5b82811061060b5750505050818754169084518092630c2fe7ff60e11b8252818860209586935afa908115610601578a916105d0575b507f000000000000000000000000000000000000000000000000000000000000000084168a5b858a858084106102bf57505050505050885b818110610121578980f35b8361013561013083858c610876565b6107ea565b168a87516370a0823160e01b8152308a82015285818981865afa9081156102b557829189918e96959491610280575b50600a81116101cf575b505050504761017e575b01610116565b9050838a541647908147106101ba578b80809381935af161019d610836565b50156101aa578890610178565b8551630a12f52160e11b81528790fd5b875163cd78605960e01b815230818b01528790fd5b82548b5163a9059cbb60e01b8a8201908152918b166001600160a01b03169381019384526020840192909252949550929361023293839261021d90829060400103601f1981018352826107fe565b519082865af161022b610836565b9083610b92565b805190858215159283610267575b5050506102525790818b878c9461016e565b878691885191635274afe760e01b8352820152fd5b6102779350820181019101610886565b15388581610240565b955050508584813d83116102ae575b61029981836107fe565b810103126102ab57878c945138610164565b80fd5b503d61028f565b89513d84823e3d90fd5b83610130916102cd93610876565b168c89516370a0823160e01b8152308c82015287818b81865afa9182156105c55791610594575b508c811561058b575061271090858203828111610578578082029182040361056657918d8f928d940490898d8c841580159081610549575b6104bc5750505163095ea7b360e01b8082526001600160a01b038a1697820197885260208801859052969092508b915082908190604001038187875af180156104b257938a938f938f908f98948b98610495575b5061038b818461089e565b156103f8575b50604494959697839151988997889687528601528401525af180156103ee57908c92916103c1575b505b01610104565b6103e090873d89116103e7575b6103d881836107fe565b810190610886565b50386103b9565b503d6103ce565b89513d8f823e3d90fd5b61040281846109d8565b610391579491959397509195506104438d8754169251948593849363a9059cbb60e01b8552840160209093929193604081019460018060a01b031681520152565b038186865af1801561048b5793838e938b958f8f906044968c9a61046e575b50915097969594610391565b610484908a3d8c116103e7576103d881836107fe565b5038610462565b8c513d85823e3d90fd5b6104ab90883d8a116103e7576103d881836107fe565b5038610380565b8d513d86823e3d90fd5b98979193989692969594956104d8575b505050505050506103bb565b9754925163a9059cbb60e01b8152929097166001600160a01b03169682019687526020870193909352939484928391829060400103925af180156103ee57908c929161052c575b8087918f8c908e8c6104cc565b61054290873d89116103e7576103d881836107fe565b503861051f565b50732791bca1f2de4661ed88a30c99a7a9449aa84174871461032c565b634e487b7160e01b8f5260118c52898ffd5b50634e487b7160e01b8f5260118c52898ffd5b929150506103bb565b90508681813d83116105be575b6105ab81836107fe565b810103126105ba5751386102f4565b8d80fd5b503d6105a1565b8b51903d90823e3d90fd5b90508281813d83116105fa575b6105e781836107fe565b810103126105f65751386100de565b8980fd5b503d6105dd565b86513d8c823e3d90fd5b6106196101308285856107b2565b8c602091826106298588886107b2565b0135906106378588886107b2565b8c81013590601e19813603018212156106bf57018035908982116106bf5785019281360384136106bf578493828f519384928337810185815203925af161067c610836565b501561068a57508a016100a9565b896011896064938c519362461bcd60e51b85528401528201527010985d18da0818d85b1b0819985a5b1959607a1b6044820152fd5b8480fd5b865162461bcd60e51b81526020818a0152601b818801527f43616c6c61626c65206f6e6c792062792074686520726f7574657200000000006044820152606490fd5b8780fd5b8280fd5b505034610735578160031936011261073557905490516001600160a01b039091168152602090f35b5080fd5b8490346107355781600319360112610735577f00000000000000000000000000000000000000000000000000000000000000006001600160a01b03168152602090f35b9181601f840112156107ad5782359167ffffffffffffffff83116107ad576020808501948460051b0101116107ad57565b600080fd5b91908110156107d45760051b81013590605e19813603018212156107ad570190565b634e487b7160e01b600052603260045260246000fd5b356001600160a01b03811681036107ad5790565b90601f8019910116810190811067ffffffffffffffff82111761082057604052565b634e487b7160e01b600052604160045260246000fd5b3d15610871573d9067ffffffffffffffff82116108205760405191610865601f8201601f1916602001846107fe565b82523d6000602084013e565b606090565b91908110156107d45760051b0190565b908160209103126107ad575180151581036107ad5790565b6040516001600160a01b039161010082019067ffffffffffffffff8211838310176108205783916040521681526020810190732791bca1f2de4661ed88a30c99a7a9449aa84174825282806040830193610bb885526060840196308852608085019042825260a0860190815260c08601918460009a8b998a86528260e08b01978c89526040519d8e9c8d63414bf38960e01b9052511660048d0152511660248b01525162ffffff1660448a0152511660648801525160848701525160a48601525160c4850152511660e48301527f000000000000000000000000000000000000000000000000000000000000000016815a9361010492602095f190816109ad575b506109a75790565b50600190565b602090813d83116109d1575b6109c381836107fe565b81010312610735573861099f565b503d6109b9565b60405160609190911b6bffffffffffffffffffffffff191660208083019190915261017760eb1b6034830181905272d500b1d8e8ef31e21c99d1db9a6444d3adf12760641b6037840152604b8301527309e46f287cb791987b6228c32669ea5126aa105d60621b604e83015260428252909160808301919067ffffffffffffffff9081841185851017610820576001600160a01b0391610120860190811185821017610820579183926040969592965284825260a085019530875261010060c087019642885260e081019283520196600097889283825260405198899663c04b8d5960e01b8852886004890152519360a060248901528451948560c48a0152865b868110610b7757505092879594919286938860e49688888789010152511660448601525160648501525160848401525160a4830152601f801991011681010301927f0000000000000000000000000000000000000000000000000000000000000000165af19182610b4e575b50506109a75790565b813d8311610b70575b610b6181836107fe565b81010312610735573880610b45565b503d610b57565b8082018b01518d820160e401528b9a8d9a508e985001610ad9565b90610bb95750805115610ba757805190602001fd5b604051630a12f52160e11b8152600490fd5b81511580610bec575b610bca575090565b604051639996b31560e01b81526001600160a01b039091166004820152602490fd5b50803b15610bc256fea2646970667358221220c4198f605f0aad8396b624d4c11d65ca53dee12708c4cd57084f0a898fad845e64736f6c63430008190033a26469706673582212201a70fb325e3fe8075436cc11e7376e2f15138f77615f3bc3ed295cfa838cf1eb64736f6c63430008190033",
  "devdoc": {
    "errors": {
      "AddressEmptyCode(address)": [
        {
          "details": "There's no code at `target` (it is not a contract)."
        }
      ],
      "AddressInsufficientBalance(address)": [
        {
          "details": "The ETH balance of the account is not enough to perform the operation."
        }
      ],
      "ERC20InsufficientAllowance(address,uint256,uint256)": [
        {
          "details": "Indicates a failure with the `spender`s `allowance`. Used in transfers.",
          "params": {
            "allowance": "Amount of tokens a `spender` is allowed to operate with.",
            "needed": "Minimum amount required to perform a transfer.",
            "spender": "Address that may be allowed to operate on tokens without being their owner."
          }
        }
      ],
      "ERC20InsufficientBalance(address,uint256,uint256)": [
        {
          "details": "Indicates an error related to the current `balance` of a `sender`. Used in transfers.",
          "params": {
            "balance": "Current balance for the interacting account.",
            "needed": "Minimum amount required to perform a transfer.",
            "sender": "Address whose tokens are being transferred."
          }
        }
      ],
      "ERC20InvalidApprover(address)": [
        {
          "details": "Indicates a failure with the `approver` of a token to be approved. Used in approvals.",
          "params": {
            "approver": "Address initiating an approval operation."
          }
        }
      ],
      "ERC20InvalidReceiver(address)": [
        {
          "details": "Indicates a failure with the token `receiver`. Used in transfers.",
          "params": {
            "receiver": "Address to which tokens are being transferred."
          }
        }
      ],
      "ERC20InvalidSender(address)": [
        {
          "details": "Indicates a failure with the token `sender`. Used in transfers.",
          "params": {
            "sender": "Address whose tokens are being transferred."
          }
        }
      ],
      "ERC20InvalidSpender(address)": [
        {
          "details": "Indicates a failure with the `spender` to be approved. Used in approvals.",
          "params": {
            "spender": "Address that may be allowed to operate on tokens without being their owner."
          }
        }
      ],
      "FailedInnerCall()": [
        {
          "details": "A call to an address target failed. The target may have reverted."
        }
      ],
      "OwnableInvalidOwner(address)": [
        {
          "details": "The owner is not a valid owner account. (eg. `address(0)`)"
        }
      ],
      "OwnableUnauthorizedAccount(address)": [
        {
          "details": "The caller account is not authorized to perform an operation."
        }
      ],
      "ReentrancyGuardReentrantCall()": [
        {
          "details": "Unauthorized reentrant call."
        }
      ],
      "SafeERC20FailedOperation(address)": [
        {
          "details": "An operation with an ERC20 token failed."
        }
      ]
    },
    "events": {
      "Approval(address,address,uint256)": {
        "details": "Emitted when the allowance of a `spender` for an `owner` is set by a call to {approve}. `value` is the new allowance."
      },
      "Transfer(address,address,uint256)": {
        "details": "Emitted when `value` tokens are moved from one account (`from`) to another (`to`). Note that `value` may be zero."
      }
    },
    "kind": "dev",
    "methods": {
      "allowance(address,address)": {
        "details": "See {IERC20-allowance}."
      },
      "approve(address,uint256)": {
        "details": "See {IERC20-approve}. NOTE: If `value` is the maximum `uint256`, the allowance is not updated on `transferFrom`. This is semantically equivalent to an infinite approval. Requirements: - `spender` cannot be the zero address."
      },
      "balanceOf(address)": {
        "details": "See {IERC20-balanceOf}."
      },
      "decimals()": {
        "details": "Returns the number of decimals used to get its user representation. For example, if `decimals` equals `2`, a balance of `505` tokens should be displayed to a user as `5.05` (`505 / 10 ** 2`). Tokens usually opt for a value of 18, imitating the relationship between Ether and Wei. This is the default value returned by this function, unless it's overridden. NOTE: This information is only used for _display_ purposes: it in no way affects any of the arithmetic of the contract, including {IERC20-balanceOf} and {IERC20-transfer}."
      },
      "name()": {
        "details": "Returns the name of the token."
      },
      "owner()": {
        "details": "Returns the address of the current owner."
      },
      "renounceOwnership()": {
        "details": "Leaves the contract without owner. It will not be possible to call `onlyOwner` functions. Can only be called by the current owner. NOTE: Renouncing ownership will leave the contract without an owner, thereby disabling any functionality that is only available to the owner."
      },
      "symbol()": {
        "details": "Returns the symbol of the token, usually a shorter version of the name."
      },
      "totalSupply()": {
        "details": "See {IERC20-totalSupply}."
      },
      "transfer(address,uint256)": {
        "details": "See {IERC20-transfer}. Requirements: - `to` cannot be the zero address. - the caller must have a balance of at least `value`."
      },
      "transferFrom(address,address,uint256)": {
        "details": "See {IERC20-transferFrom}. Emits an {Approval} event indicating the updated allowance. This is not required by the EIP. See the note at the beginning of {ERC20}. NOTE: Does not update the allowance if the current allowance is the maximum `uint256`. Requirements: - `from` and `to` cannot be the zero address. - `from` must have a balance of at least `value`. - the caller must have allowance for ``from``'s tokens of at least `value`."
      },
      "transferOwnership(address)": {
        "details": "Transfers ownership of the contract to a new account (`newOwner`). Can only be called by the current owner."
      }
    },
    "version": 1
  },
  "userdoc": {
    "kind": "user",
    "methods": {},
    "version": 1
  },
  "storageLayout": {
    "storage": [
      {
        "astId": 8,
        "contract": "contracts/core/Router.sol:Router",
        "label": "_owner",
        "offset": 0,
        "slot": "0",
        "type": "t_address"
      },
      {
        "astId": 311,
        "contract": "contracts/core/Router.sol:Router",
        "label": "_balances",
        "offset": 0,
        "slot": "1",
        "type": "t_mapping(t_address,t_uint256)"
      },
      {
        "astId": 317,
        "contract": "contracts/core/Router.sol:Router",
        "label": "_allowances",
        "offset": 0,
        "slot": "2",
        "type": "t_mapping(t_address,t_mapping(t_address,t_uint256))"
      },
      {
        "astId": 319,
        "contract": "contracts/core/Router.sol:Router",
        "label": "_totalSupply",
        "offset": 0,
        "slot": "3",
        "type": "t_uint256"
      },
      {
        "astId": 321,
        "contract": "contracts/core/Router.sol:Router",
        "label": "_name",
        "offset": 0,
        "slot": "4",
        "type": "t_string_storage"
      },
      {
        "astId": 323,
        "contract": "contracts/core/Router.sol:Router",
        "label": "_symbol",
        "offset": 0,
        "slot": "5",
        "type": "t_string_storage"
      },
      {
        "astId": 1527,
        "contract": "contracts/core/Router.sol:Router",
        "label": "_status",
        "offset": 0,
        "slot": "6",
        "type": "t_uint256"
      },
      {
        "astId": 2189,
        "contract": "contracts/core/Router.sol:Router",
        "label": "stakingPool",
        "offset": 0,
        "slot": "7",
        "type": "t_address"
      },
      {
        "astId": 2195,
        "contract": "contracts/core/Router.sol:Router",
        "label": "_BPS_FEE",
        "offset": 0,
        "slot": "8",
        "type": "t_uint256"
      },
      {
        "astId": 2206,
        "contract": "contracts/core/Router.sol:Router",
        "label": "userAgents",
        "offset": 0,
        "slot": "9",
        "type": "t_mapping(t_address,t_contract(Agent)2163)"
      }
    ],
    "types": {
      "t_address": {
        "encoding": "inplace",
        "label": "address",
        "numberOfBytes": "20"
      },
      "t_contract(Agent)2163": {
        "encoding": "inplace",
        "label": "contract Agent",
        "numberOfBytes": "20"
      },
      "t_mapping(t_address,t_contract(Agent)2163)": {
        "encoding": "mapping",
        "key": "t_address",
        "label": "mapping(address => contract Agent)",
        "numberOfBytes": "32",
        "value": "t_contract(Agent)2163"
      },
      "t_mapping(t_address,t_mapping(t_address,t_uint256))": {
        "encoding": "mapping",
        "key": "t_address",
        "label": "mapping(address => mapping(address => uint256))",
        "numberOfBytes": "32",
        "value": "t_mapping(t_address,t_uint256)"
      },
      "t_mapping(t_address,t_uint256)": {
        "encoding": "mapping",
        "key": "t_address",
        "label": "mapping(address => uint256)",
        "numberOfBytes": "32",
        "value": "t_uint256"
      },
      "t_string_storage": {
        "encoding": "bytes",
        "label": "string",
        "numberOfBytes": "32"
      },
      "t_uint256": {
        "encoding": "inplace",
        "label": "uint256",
        "numberOfBytes": "32"
      }
    }
  }
}