{
  "address": "0xD153CC0b7832A57bfF783596552f3260fCc1F451",
  "abi": [
    {
      "inputs": [
        {
          "internalType": "address",
          "name": "_stakingToken",
          "type": "address"
        },
        {
          "internalType": "address",
          "name": "_rewardToken",
          "type": "address"
        }
      ],
      "stateMutability": "nonpayable",
      "type": "constructor"
    },
    {
      "inputs": [
        {
          "internalType": "address",
          "name": "",
          "type": "address"
        }
      ],
      "name": "balanceOf",
      "outputs": [
        {
          "internalType": "uint256",
          "name": "",
          "type": "uint256"
        }
      ],
      "stateMutability": "view",
      "type": "function"
    },
    {
      "inputs": [
        {
          "internalType": "address",
          "name": "account",
          "type": "address"
        }
      ],
      "name": "calculateRewardsEarned",
      "outputs": [
        {
          "internalType": "uint256",
          "name": "",
          "type": "uint256"
        }
      ],
      "stateMutability": "view",
      "type": "function"
    },
    {
      "inputs": [],
      "name": "claim",
      "outputs": [
        {
          "internalType": "uint256",
          "name": "",
          "type": "uint256"
        }
      ],
      "stateMutability": "nonpayable",
      "type": "function"
    },
    {
      "inputs": [],
      "name": "rewardToken",
      "outputs": [
        {
          "internalType": "contract IERC20",
          "name": "",
          "type": "address"
        }
      ],
      "stateMutability": "view",
      "type": "function"
    },
    {
      "inputs": [
        {
          "internalType": "uint256",
          "name": "amount",
          "type": "uint256"
        }
      ],
      "name": "stake",
      "outputs": [],
      "stateMutability": "nonpayable",
      "type": "function"
    },
    {
      "inputs": [],
      "name": "stakingToken",
      "outputs": [
        {
          "internalType": "contract IERC20",
          "name": "",
          "type": "address"
        }
      ],
      "stateMutability": "view",
      "type": "function"
    },
    {
      "inputs": [],
      "name": "totalSupply",
      "outputs": [
        {
          "internalType": "uint256",
          "name": "",
          "type": "uint256"
        }
      ],
      "stateMutability": "view",
      "type": "function"
    },
    {
      "inputs": [
        {
          "internalType": "uint256",
          "name": "amount",
          "type": "uint256"
        }
      ],
      "name": "unstake",
      "outputs": [],
      "stateMutability": "nonpayable",
      "type": "function"
    },
    {
      "inputs": [
        {
          "internalType": "uint256",
          "name": "reward",
          "type": "uint256"
        }
      ],
      "name": "updateRewardIndex",
      "outputs": [],
      "stateMutability": "nonpayable",
      "type": "function"
    }
  ],
  "transactionHash": "0x10d398374fe7d45c359bada6e41296de579c4ee46e2cfc78b8ae6414b4ac4f35",
  "args": [
    "0x75777130Bf188D689B4C00BB825Fd124bFFC02B2",
    "0x75777130Bf188D689B4C00BB825Fd124bFFC02B2"
  ],
  "numDeployments": 1,
  "solcInputHash": "493e26d7a7df240e5e299d512c8a8ea1",
  "bytecode": "0x60c034609257601f61071038819003918201601f19168301916001600160401b038311848410176097578084926040948552833981010312609257604b602060458360ad565b920160ad565b6001600160a01b039182166080521660a05260405161064f90816100c1823960805181818161014d0152610226015260a051818181609b015281816102f401526104330152f35b600080fd5b634e487b7160e01b600052604160045260246000fd5b51906001600160a01b038216820360925756fe608060408181526004918236101561001657600080fd5b600092833560e01c9182630dcc4b44146103ed5750816318160ddd146103ce5781632e17de781461035a5781634e71d92d1461028e57816370a082311461025557816372f702f3146102115781638b086764146101c0578163a694fc3a146100ce575063f7c618c11461008857600080fd5b346100ca57816003193601126100ca57517f00000000000000000000000000000000000000000000000000000000000000006001600160a01b03168152602090f35b5080fd5b919050346101bc5760203660031901126101bc576020826101489335906100f433610576565b338652858352838620610108838254610546565b905561011682600154610546565b60015583516323b872dd60e01b8152339181019182523060208301526040820192909252909384918291606090910190565b0381867f00000000000000000000000000000000000000000000000000000000000000006001600160a01b03165af19081156101b35750610187575080f35b6101a89060203d6020116101ac575b6101a081836104f1565b810190610529565b5080f35b503d610196565b513d84823e3d90fd5b8280fd5b9050346101bc5760203660031901126101bc578035906001600160a01b03821680830361020d5783856102069493610200936020985287522054916105b8565b90610546565b9051908152f35b8480fd5b5050346100ca57816003193601126100ca57517f00000000000000000000000000000000000000000000000000000000000000006001600160a01b03168152602090f35b9050346101bc5760203660031901126101bc57356001600160a01b038116908190036101bc578282916020945280845220549051908152f35b919050346101bc57826003193601126101bc576102aa33610576565b3383528160205280832091825492836102c8575b6020848451908152f35b849055815163a9059cbb60e01b81523391810191825260208281018590529091829081906040010381877f00000000000000000000000000000000000000000000000000000000000000006001600160a01b03165af180156103505760209450610333575b806102be565b61034990843d86116101ac576101a081836104f1565b503861032d565b82513d86823e3d90fd5b919050346101bc5760203660031901126101bc5760208261014893359061038033610576565b338652858352838620610394838254610569565b90556103a282600154610569565b600155835163a9059cbb60e01b8152339181019182526020820192909252909384918291604090910190565b5050346100ca57816003193601126100ca576020906001549051908152f35b838591346101bc5760203660031901126101bc576323b872dd60e01b815233818501908152306020828101919091528535604083018190529391839081906060010381877f00000000000000000000000000000000000000000000000000000000000000006001600160a01b03165af19081156104e857506104c9575b50670de0b6b3a7640000908181029181830414901517156104b6576001549081156104a3579061049d9104600254610546565b60025580f35b634e487b7160e01b835260128452602483fd5b506011602492634e487b7160e01b835252fd5b6104e19060203d6020116101ac576101a081836104f1565b508361046a565b513d85823e3d90fd5b90601f8019910116810190811067ffffffffffffffff82111761051357604052565b634e487b7160e01b600052604160045260246000fd5b90816020910312610541575180151581036105415790565b600080fd5b9190820180921161055357565b634e487b7160e01b600052601160045260246000fd5b9190820391821161055357565b61057f816105b8565b9060018060a01b0316908160005260046020526105a26040600020918254610546565b9055600254906000526003602052604060002055565b60009060018060a01b03168152806020526040812054906105e56002546003602052604083205490610569565b918281029281840414901517156106055750670de0b6b3a7640000900490565b634e487b7160e01b81526011600452602490fdfea26469706673582212201f60a7a503c5ffe13ac9dedf97a29b6855da1d210fe84e2d84c708e1d0a8534564736f6c63430008190033",
  "devdoc": {
    "kind": "dev",
    "methods": {},
    "version": 1
  },
  "userdoc": {
    "kind": "user",
    "methods": {},
    "version": 1
  },
  "storageLayout": {
    "storage": [
      {
        "astId": 94,
        "contract": "contracts/core/Stake.sol:Stake",
        "label": "balanceOf",
        "offset": 0,
        "slot": "0",
        "type": "t_mapping(t_address,t_uint256)"
      },
      {
        "astId": 96,
        "contract": "contracts/core/Stake.sol:Stake",
        "label": "totalSupply",
        "offset": 0,
        "slot": "1",
        "type": "t_uint256"
      },
      {
        "astId": 101,
        "contract": "contracts/core/Stake.sol:Stake",
        "label": "rewardIndex",
        "offset": 0,
        "slot": "2",
        "type": "t_uint256"
      },
      {
        "astId": 105,
        "contract": "contracts/core/Stake.sol:Stake",
        "label": "rewardIndexOf",
        "offset": 0,
        "slot": "3",
        "type": "t_mapping(t_address,t_uint256)"
      },
      {
        "astId": 109,
        "contract": "contracts/core/Stake.sol:Stake",
        "label": "earned",
        "offset": 0,
        "slot": "4",
        "type": "t_mapping(t_address,t_uint256)"
      }
    ],
    "types": {
      "t_address": {
        "encoding": "inplace",
        "label": "address",
        "numberOfBytes": "20"
      },
      "t_mapping(t_address,t_uint256)": {
        "encoding": "mapping",
        "key": "t_address",
        "label": "mapping(address => uint256)",
        "numberOfBytes": "32",
        "value": "t_uint256"
      },
      "t_uint256": {
        "encoding": "inplace",
        "label": "uint256",
        "numberOfBytes": "32"
      }
    }
  }
}