{
  "_format": "hh-sol-artifact-1",
  "contractName": "BaluniV1Swapper",
  "sourceName": "contracts/BaluniV1Swapper.sol",
  "abi": [
    {
      "inputs": [
        {
          "internalType": "address",
          "name": "target",
          "type": "address"
        }
      ],
      "name": "AddressEmptyCode",
      "type": "error"
    },
    {
      "inputs": [
        {
          "internalType": "address",
          "name": "implementation",
          "type": "address"
        }
      ],
      "name": "ERC1967InvalidImplementation",
      "type": "error"
    },
    {
      "inputs": [],
      "name": "ERC1967NonPayable",
      "type": "error"
    },
    {
      "inputs": [],
      "name": "FailedInnerCall",
      "type": "error"
    },
    {
      "inputs": [],
      "name": "InvalidInitialization",
      "type": "error"
    },
    {
      "inputs": [],
      "name": "NotInitializing",
      "type": "error"
    },
    {
      "inputs": [
        {
          "internalType": "address",
          "name": "owner",
          "type": "address"
        }
      ],
      "name": "OwnableInvalidOwner",
      "type": "error"
    },
    {
      "inputs": [
        {
          "internalType": "address",
          "name": "account",
          "type": "address"
        }
      ],
      "name": "OwnableUnauthorizedAccount",
      "type": "error"
    },
    {
      "inputs": [],
      "name": "UUPSUnauthorizedCallContext",
      "type": "error"
    },
    {
      "inputs": [
        {
          "internalType": "bytes32",
          "name": "slot",
          "type": "bytes32"
        }
      ],
      "name": "UUPSUnsupportedProxiableUUID",
      "type": "error"
    },
    {
      "anonymous": false,
      "inputs": [
        {
          "indexed": false,
          "internalType": "uint64",
          "name": "version",
          "type": "uint64"
        }
      ],
      "name": "Initialized",
      "type": "event"
    },
    {
      "anonymous": false,
      "inputs": [
        {
          "indexed": true,
          "internalType": "address",
          "name": "previousOwner",
          "type": "address"
        },
        {
          "indexed": true,
          "internalType": "address",
          "name": "newOwner",
          "type": "address"
        }
      ],
      "name": "OwnershipTransferred",
      "type": "event"
    },
    {
      "anonymous": false,
      "inputs": [
        {
          "indexed": true,
          "internalType": "address",
          "name": "implementation",
          "type": "address"
        }
      ],
      "name": "Upgraded",
      "type": "event"
    },
    {
      "inputs": [],
      "name": "UPGRADE_INTERFACE_VERSION",
      "outputs": [
        {
          "internalType": "string",
          "name": "",
          "type": "string"
        }
      ],
      "stateMutability": "view",
      "type": "function"
    },
    {
      "inputs": [
        {
          "internalType": "address",
          "name": "_registry",
          "type": "address"
        }
      ],
      "name": "initialize",
      "outputs": [],
      "stateMutability": "nonpayable",
      "type": "function"
    },
    {
      "inputs": [
        {
          "internalType": "address",
          "name": "token0",
          "type": "address"
        },
        {
          "internalType": "address",
          "name": "token1",
          "type": "address"
        },
        {
          "internalType": "address",
          "name": "token2",
          "type": "address"
        },
        {
          "internalType": "uint256",
          "name": "amount",
          "type": "uint256"
        },
        {
          "internalType": "address",
          "name": "receiver",
          "type": "address"
        }
      ],
      "name": "multiHopSwap",
      "outputs": [
        {
          "internalType": "uint256",
          "name": "amountOut",
          "type": "uint256"
        }
      ],
      "stateMutability": "nonpayable",
      "type": "function"
    },
    {
      "inputs": [],
      "name": "owner",
      "outputs": [
        {
          "internalType": "address",
          "name": "",
          "type": "address"
        }
      ],
      "stateMutability": "view",
      "type": "function"
    },
    {
      "inputs": [],
      "name": "proxiableUUID",
      "outputs": [
        {
          "internalType": "bytes32",
          "name": "",
          "type": "bytes32"
        }
      ],
      "stateMutability": "view",
      "type": "function"
    },
    {
      "inputs": [],
      "name": "registry",
      "outputs": [
        {
          "internalType": "contract IBaluniV1Registry",
          "name": "",
          "type": "address"
        }
      ],
      "stateMutability": "view",
      "type": "function"
    },
    {
      "inputs": [
        {
          "internalType": "address",
          "name": "_registry",
          "type": "address"
        },
        {
          "internalType": "uint64",
          "name": "version",
          "type": "uint64"
        }
      ],
      "name": "reinitialize",
      "outputs": [],
      "stateMutability": "nonpayable",
      "type": "function"
    },
    {
      "inputs": [],
      "name": "renounceOwnership",
      "outputs": [],
      "stateMutability": "nonpayable",
      "type": "function"
    },
    {
      "inputs": [
        {
          "internalType": "address",
          "name": "token0",
          "type": "address"
        },
        {
          "internalType": "address",
          "name": "token1",
          "type": "address"
        },
        {
          "internalType": "uint256",
          "name": "amount",
          "type": "uint256"
        },
        {
          "internalType": "address",
          "name": "receiver",
          "type": "address"
        }
      ],
      "name": "singleSwap",
      "outputs": [
        {
          "internalType": "uint256",
          "name": "amountOut",
          "type": "uint256"
        }
      ],
      "stateMutability": "nonpayable",
      "type": "function"
    },
    {
      "inputs": [
        {
          "internalType": "address",
          "name": "newOwner",
          "type": "address"
        }
      ],
      "name": "transferOwnership",
      "outputs": [],
      "stateMutability": "nonpayable",
      "type": "function"
    },
    {
      "inputs": [
        {
          "internalType": "address",
          "name": "newImplementation",
          "type": "address"
        },
        {
          "internalType": "bytes",
          "name": "data",
          "type": "bytes"
        }
      ],
      "name": "upgradeToAndCall",
      "outputs": [],
      "stateMutability": "payable",
      "type": "function"
    }
  ],
  "bytecode": "0x60a0604052306080523480156012575f80fd5b506080516119ef6100395f395f8181610ca601528181610ccf0152610e1301526119ef5ff3fe60806040526004361061009a575f3560e01c80637b103999116100625780637b1039991461012c5780638da5cb5b146101625780638f2248bc1461019e578063ad3cb1cc146101bd578063c4d66de8146101fa578063f2fde38b14610219575f80fd5b80632d6bc8ea1461009e5780634f1ef286146100d057806352d1902d146100e55780635efaaebb146100f9578063715018a614610118575b5f80fd5b3480156100a9575f80fd5b506100bd6100b8366004611604565b610238565b6040519081526020015b60405180910390f35b6100e36100de366004611668565b610483565b005b3480156100f0575f80fd5b506100bd6104a2565b348015610104575f80fd5b506100bd610113366004611726565b6104bd565b348015610123575f80fd5b506100e3610705565b348015610137575f80fd5b505f5461014a906001600160a01b031681565b6040516001600160a01b0390911681526020016100c7565b34801561016d575f80fd5b507f9016d09d72d40fdae2fd8ceac6b6234c7706214fd39c1cd1e609a0528c199300546001600160a01b031661014a565b3480156101a9575f80fd5b506100e36101b836600461178a565b610718565b3480156101c8575f80fd5b506101ed604051806040016040528060058152602001640352e302e360dc1b81525081565b6040516100c791906117fb565b348015610205575f80fd5b506100e361021436600461180d565b61081a565b348015610224575f80fd5b506100e361023336600461180d565b61094a565b5f30330361027c5760405162461bcd60e51b815260206004820152600c60248201526b2bb937b7339039b2b73232b960a11b60448201526064015b60405180910390fd5b5f83116102b95760405162461bcd60e51b815260206004820152600b60248201526a0416d6f756e7420697320360ac1b6044820152606401610273565b6040516370a0823160e01b815233600482015283906001600160a01b038716906370a0823190602401602060405180830381865afa1580156102fd573d5f803e3d5ffd5b505050506040513d601f19601f820116820180604052508101906103219190611828565b10156103665760405162461bcd60e51b8152602060048201526014602482015273496e73756666696369656e742042616c616e636560601b6044820152606401610273565b604051636eb1769f60e11b81523360048201523060248201525f906001600160a01b0387169063dd62ed3e90604401602060405180830381865afa1580156103b0573d5f803e3d5ffd5b505050506040513d601f19601f820116820180604052508101906103d49190611828565b9050838110156103f65760405162461bcd60e51b81526004016102739061183f565b6040516323b872dd60e01b8152336004820152306024820152604481018590526001600160a01b038716906323b872dd906064016020604051808303815f875af1158015610446573d5f803e3d5ffd5b505050506040513d601f19601f8201168201806040525081019061046a9190611884565b5061047786868686610987565b9150505b949350505050565b61048b610c9b565b61049482610d3f565b61049e8282610d47565b5050565b5f6104ab610e08565b505f8051602061199a83398151915290565b5f3033036104fc5760405162461bcd60e51b815260206004820152600c60248201526b2bb937b7339039b2b73232b960a11b6044820152606401610273565b5f83116105395760405162461bcd60e51b815260206004820152600b60248201526a0416d6f756e7420697320360ac1b6044820152606401610273565b6040516370a0823160e01b815233600482015283906001600160a01b038816906370a0823190602401602060405180830381865afa15801561057d573d5f803e3d5ffd5b505050506040513d601f19601f820116820180604052508101906105a19190611828565b10156105e65760405162461bcd60e51b8152602060048201526014602482015273496e73756666696369656e742042616c616e636560601b6044820152606401610273565b604051636eb1769f60e11b81523360048201523060248201525f906001600160a01b0388169063dd62ed3e90604401602060405180830381865afa158015610630573d5f803e3d5ffd5b505050506040513d601f19601f820116820180604052508101906106549190611828565b9050838110156106765760405162461bcd60e51b81526004016102739061183f565b6040516323b872dd60e01b8152336004820152306024820152604481018590526001600160a01b038816906323b872dd906064016020604051808303815f875af11580156106c6573d5f803e3d5ffd5b505050506040513d601f19601f820116820180604052508101906106ea9190611884565b506106f88787878787610e51565b9150505b95945050505050565b61070d611007565b6107165f611062565b565b7ff0c57e16840df040f15088dc2f81fe391c3923bec73e23a9662efc9c229c6a008054829190600160401b900460ff16806107615750805467ffffffffffffffff808416911610155b1561077f5760405163f92ee8a960e01b815260040160405180910390fd5b805468ffffffffffffffffff191667ffffffffffffffff831617600160401b1781556107aa336110d2565b6107b26110e3565b5f80546001600160a01b0319166001600160a01b038616179055805460ff60401b1916815560405167ffffffffffffffff831681527fc7f505b2f371ae2175ee4913f4499e1f2633a7b5936321eed1cdaeb6115181d29060200160405180910390a150505050565b7ff0c57e16840df040f15088dc2f81fe391c3923bec73e23a9662efc9c229c6a008054600160401b810460ff16159067ffffffffffffffff165f8115801561085f5750825b90505f8267ffffffffffffffff16600114801561087b5750303b155b905081158015610889575080155b156108a75760405163f92ee8a960e01b815260040160405180910390fd5b845467ffffffffffffffff1916600117855583156108d157845460ff60401b1916600160401b1785555b6108da336110d2565b6108e26110e3565b5f80546001600160a01b0319166001600160a01b038816179055831561094257845460ff60401b19168555604051600181527fc7f505b2f371ae2175ee4913f4499e1f2633a7b5936321eed1cdaeb6115181d29060200160405180910390a15b505050505050565b610952611007565b6001600160a01b03811661097b57604051631e4fbdf760e01b81525f6004820152602401610273565b61098481611062565b50565b5f805460408051631acb614160e01b8152905183926001600160a01b031691631acb61419160048083019260209291908290030181865afa1580156109ce573d5f803e3d5ffd5b505050506040513d601f19601f820116820180604052508101906109f291906118a3565b90505f805f9054906101000a90046001600160a01b03166001600160a01b031663524900b56040518163ffffffff1660e01b8152600401602060405180830381865afa158015610a44573d5f803e3d5ffd5b505050506040513d601f19601f82011682018060405250810190610a6891906118a3565b90506001600160a01b03821615801590610a8a57506001600160a01b03811615155b610ad65760405162461bcd60e51b815260206004820152601e60248201527f42616c756e69537761707065723a2041646472657373206e6f742073657400006044820152606401610273565b81610ae28882886110eb565b604051631ba0488760e21b81526001600160a01b03821690636e81221c90610b14908b908b908b908b906004016118be565b6020604051808303815f875af1925050508015610b4e575060408051601f3d908101601f19168201909252610b4b91810190611828565b60015b610c7e57610b5d8883886110eb565b60408051610100810182526001600160a01b038a8116825289811660208301908152610bb883850190815289831660608501908152426080860190815260a086018d81525f60c0880181815260e08901828152995163414bf38960e01b8152895189166004820152965188166024880152945162ffffff166044870152925186166064860152905160848501525160a4840152905160c48301529351821660e48201529192919085169063414bf38990610104016020604051808303815f875af1158015610c2d573d5f803e3d5ffd5b505050506040513d601f19601f82011682018060405250810190610c519190611828565b90505f8111610c725760405162461bcd60e51b8152600401610273906118e9565b945061047b9350505050565b8015610c8f57935061047b92505050565b50505050949350505050565b306001600160a01b037f0000000000000000000000000000000000000000000000000000000000000000161480610d2157507f00000000000000000000000000000000000000000000000000000000000000006001600160a01b0316610d155f8051602061199a833981519152546001600160a01b031690565b6001600160a01b031614155b156107165760405163703e46dd60e11b815260040160405180910390fd5b610984611007565b816001600160a01b03166352d1902d6040518163ffffffff1660e01b8152600401602060405180830381865afa925050508015610da1575060408051601f3d908101601f19168201909252610d9e91810190611828565b60015b610dc957604051634c9c8ce360e01b81526001600160a01b0383166004820152602401610273565b5f8051602061199a8339815191528114610df957604051632a87526960e21b815260048101829052602401610273565b610e03838361124b565b505050565b306001600160a01b037f000000000000000000000000000000000000000000000000000000000000000016146107165760405163703e46dd60e11b815260040160405180910390fd5b5f805460408051631acb614160e01b8152905183926001600160a01b031691631acb61419160048083019260209291908290030181865afa158015610e98573d5f803e3d5ffd5b505050506040513d601f19601f82011682018060405250810190610ebc91906118a3565b9050805f610ecb8983886110eb565b604051631ba0488760e21b81526001600160a01b03831690636e81221c90610efd908c908c908b9030906004016118be565b6020604051808303815f875af1925050508015610f37575060408051601f3d908101601f19168201909252610f3491810190611828565b60015b610f5257610f4889898989896112a0565b93505050506106fc565b8015610f6057809150610f78565b610f6d8a8a8a8a8a6112a0565b9450505050506106fc565b50604051631ba0488760e21b81526001600160a01b03831690636e81221c90610fab908b908b9086908b906004016118be565b6020604051808303815f875af1925050508015610fe5575060408051601f3d908101601f19168201909252610fe291810190611828565b60015b610ff657610f4889898989896112a0565b8015610f605793506106fc92505050565b336110397f9016d09d72d40fdae2fd8ceac6b6234c7706214fd39c1cd1e609a0528c199300546001600160a01b031690565b6001600160a01b0316146107165760405163118cdaa760e01b8152336004820152602401610273565b7f9016d09d72d40fdae2fd8ceac6b6234c7706214fd39c1cd1e609a0528c19930080546001600160a01b031981166001600160a01b03848116918217845560405192169182907f8be0079c531659141344cd1fd0a4f28419497f9722a3daafe3b4186f6b6457e0905f90a3505050565b6110da61142c565b61098481611475565b61071661142c565b604051636eb1769f60e11b81523060048201526001600160a01b0383811660248301528491839183169063dd62ed3e90604401602060405180830381865afa158015611139573d5f803e3d5ffd5b505050506040513d601f19601f8201168201806040525081019061115d9190611828565b10156112455760405163095ea7b360e01b81526001600160a01b0384811660048301525f602483015282169063095ea7b3906044016020604051808303815f875af11580156111ae573d5f803e3d5ffd5b505050506040513d601f19601f820116820180604052508101906111d29190611884565b5060405163095ea7b360e01b81526001600160a01b0384811660048301526024820184905282169063095ea7b3906044016020604051808303815f875af115801561121f573d5f803e3d5ffd5b505050506040513d601f19601f820116820180604052508101906112439190611884565b505b50505050565b6112548261147d565b6040516001600160a01b038316907fbc7cd75a20ee27fd9adebab32041f755214dbc6bffa90cc0225b39da2e5c2d3b905f90a280511561129857610e0382826114e0565b61049e611549565b5f80546040805163524900b560e01b8152905183926001600160a01b03169163524900b59160048083019260209291908290030181865afa1580156112e7573d5f803e3d5ffd5b505050506040513d601f19601f8201168201806040525081019061130b91906118a3565b90506113188782866110eb565b6040805160a081018252606089811b6bffffffffffffffffffffffff1990811660c084015261017760eb1b60d484018190528a831b821660d785015260eb84015288821b1660ee830152825160e28184030181526101028301845282526001600160a01b03808716602084015242838501529082018790525f60808301819052925163c04b8d5960e01b81529192919084169063c04b8d59906113bf90859060040161192c565b6020604051808303815f875af11580156113db573d5f803e3d5ffd5b505050506040513d601f19601f820116820180604052508101906113ff9190611828565b90505f81116114205760405162461bcd60e51b8152600401610273906118e9565b98975050505050505050565b7ff0c57e16840df040f15088dc2f81fe391c3923bec73e23a9662efc9c229c6a0054600160401b900460ff1661071657604051631afcd79f60e31b815260040160405180910390fd5b61095261142c565b806001600160a01b03163b5f036114b257604051634c9c8ce360e01b81526001600160a01b0382166004820152602401610273565b5f8051602061199a83398151915280546001600160a01b0319166001600160a01b0392909216919091179055565b60605f80846001600160a01b0316846040516114fc9190611983565b5f60405180830381855af49150503d805f8114611534576040519150601f19603f3d011682016040523d82523d5f602084013e611539565b606091505b50915091506106fc858383611568565b34156107165760405163b398979f60e01b815260040160405180910390fd5b60608261157d57611578826115c7565b6115c0565b815115801561159457506001600160a01b0384163b155b156115bd57604051639996b31560e01b81526001600160a01b0385166004820152602401610273565b50805b9392505050565b8051156115d75780518082602001fd5b604051630a12f52160e11b815260040160405180910390fd5b6001600160a01b0381168114610984575f80fd5b5f805f8060808587031215611617575f80fd5b8435611622816115f0565b93506020850135611632816115f0565b9250604085013591506060850135611649816115f0565b939692955090935050565b634e487b7160e01b5f52604160045260245ffd5b5f8060408385031215611679575f80fd5b8235611684816115f0565b9150602083013567ffffffffffffffff808211156116a0575f80fd5b818501915085601f8301126116b3575f80fd5b8135818111156116c5576116c5611654565b604051601f8201601f19908116603f011681019083821181831017156116ed576116ed611654565b81604052828152886020848701011115611705575f80fd5b826020860160208301375f6020848301015280955050505050509250929050565b5f805f805f60a0868803121561173a575f80fd5b8535611745816115f0565b94506020860135611755816115f0565b93506040860135611765816115f0565b925060608601359150608086013561177c816115f0565b809150509295509295909350565b5f806040838503121561179b575f80fd5b82356117a6816115f0565b9150602083013567ffffffffffffffff811681146117c2575f80fd5b809150509250929050565b5f81518084528060208401602086015e5f602082860101526020601f19601f83011685010191505092915050565b602081525f6115c060208301846117cd565b5f6020828403121561181d575f80fd5b81356115c0816115f0565b5f60208284031215611838575f80fd5b5051919050565b60208082526025908201527f42616c756e69537761707065723a20496e73756666696369656e7420416c6c6f60408201526477616e636560d81b606082015260800190565b5f60208284031215611894575f80fd5b815180151581146115c0575f80fd5b5f602082840312156118b3575f80fd5b81516115c0816115f0565b6001600160a01b03948516815292841660208401526040830191909152909116606082015260800190565b60208082526023908201527f42616c756e69537761707065723a20416d6f756e74205265636569766564206960408201526207320360ec1b606082015260800190565b602081525f825160a0602084015261194760c08401826117cd565b905060018060a01b0360208501511660408401526040840151606084015260608401516080840152608084015160a08401528091505092915050565b5f82518060208501845e5f92019182525091905056fe360894a13ba1a3210667c828492db98dca3e2076cc3735a920a3ca505d382bbca26469706673582212206d2f4d9a0bec8aadba8e892abb7c7f8f28261ecd974428b2ed3f57d9684a50cb64736f6c63430008190033",
  "linkReferences": {},
  "deployedLinkReferences": {}
}