{
  "_format": "hh-sol-artifact-1",
  "contractName": "BaluniV1Swapper",
  "sourceName": "contracts/BaluniV1Swapper.sol",
  "abi": [
    {
      "inputs": [
        {
          "internalType": "address",
          "name": "target",
          "type": "address"
        }
      ],
      "name": "AddressEmptyCode",
      "type": "error"
    },
    {
      "inputs": [
        {
          "internalType": "address",
          "name": "implementation",
          "type": "address"
        }
      ],
      "name": "ERC1967InvalidImplementation",
      "type": "error"
    },
    {
      "inputs": [],
      "name": "ERC1967NonPayable",
      "type": "error"
    },
    {
      "inputs": [],
      "name": "FailedInnerCall",
      "type": "error"
    },
    {
      "inputs": [],
      "name": "InvalidInitialization",
      "type": "error"
    },
    {
      "inputs": [],
      "name": "NotInitializing",
      "type": "error"
    },
    {
      "inputs": [
        {
          "internalType": "address",
          "name": "owner",
          "type": "address"
        }
      ],
      "name": "OwnableInvalidOwner",
      "type": "error"
    },
    {
      "inputs": [
        {
          "internalType": "address",
          "name": "account",
          "type": "address"
        }
      ],
      "name": "OwnableUnauthorizedAccount",
      "type": "error"
    },
    {
      "inputs": [],
      "name": "UUPSUnauthorizedCallContext",
      "type": "error"
    },
    {
      "inputs": [
        {
          "internalType": "bytes32",
          "name": "slot",
          "type": "bytes32"
        }
      ],
      "name": "UUPSUnsupportedProxiableUUID",
      "type": "error"
    },
    {
      "anonymous": false,
      "inputs": [
        {
          "indexed": false,
          "internalType": "uint64",
          "name": "version",
          "type": "uint64"
        }
      ],
      "name": "Initialized",
      "type": "event"
    },
    {
      "anonymous": false,
      "inputs": [
        {
          "indexed": true,
          "internalType": "address",
          "name": "previousOwner",
          "type": "address"
        },
        {
          "indexed": true,
          "internalType": "address",
          "name": "newOwner",
          "type": "address"
        }
      ],
      "name": "OwnershipTransferred",
      "type": "event"
    },
    {
      "anonymous": false,
      "inputs": [
        {
          "indexed": true,
          "internalType": "address",
          "name": "implementation",
          "type": "address"
        }
      ],
      "name": "Upgraded",
      "type": "event"
    },
    {
      "inputs": [],
      "name": "UPGRADE_INTERFACE_VERSION",
      "outputs": [
        {
          "internalType": "string",
          "name": "",
          "type": "string"
        }
      ],
      "stateMutability": "view",
      "type": "function"
    },
    {
      "inputs": [
        {
          "internalType": "address",
          "name": "_registry",
          "type": "address"
        }
      ],
      "name": "initialize",
      "outputs": [],
      "stateMutability": "nonpayable",
      "type": "function"
    },
    {
      "inputs": [
        {
          "internalType": "address",
          "name": "token0",
          "type": "address"
        },
        {
          "internalType": "address",
          "name": "token1",
          "type": "address"
        },
        {
          "internalType": "address",
          "name": "token2",
          "type": "address"
        },
        {
          "internalType": "uint256",
          "name": "amount",
          "type": "uint256"
        },
        {
          "internalType": "address",
          "name": "receiver",
          "type": "address"
        }
      ],
      "name": "multiHopSwap",
      "outputs": [
        {
          "internalType": "uint256",
          "name": "amountOut",
          "type": "uint256"
        }
      ],
      "stateMutability": "nonpayable",
      "type": "function"
    },
    {
      "inputs": [],
      "name": "owner",
      "outputs": [
        {
          "internalType": "address",
          "name": "",
          "type": "address"
        }
      ],
      "stateMutability": "view",
      "type": "function"
    },
    {
      "inputs": [],
      "name": "proxiableUUID",
      "outputs": [
        {
          "internalType": "bytes32",
          "name": "",
          "type": "bytes32"
        }
      ],
      "stateMutability": "view",
      "type": "function"
    },
    {
      "inputs": [],
      "name": "registry",
      "outputs": [
        {
          "internalType": "contract IBaluniV1Registry",
          "name": "",
          "type": "address"
        }
      ],
      "stateMutability": "view",
      "type": "function"
    },
    {
      "inputs": [
        {
          "internalType": "address",
          "name": "_registry",
          "type": "address"
        },
        {
          "internalType": "uint64",
          "name": "version",
          "type": "uint64"
        }
      ],
      "name": "reinitialize",
      "outputs": [],
      "stateMutability": "nonpayable",
      "type": "function"
    },
    {
      "inputs": [],
      "name": "renounceOwnership",
      "outputs": [],
      "stateMutability": "nonpayable",
      "type": "function"
    },
    {
      "inputs": [
        {
          "internalType": "address",
          "name": "token0",
          "type": "address"
        },
        {
          "internalType": "address",
          "name": "token1",
          "type": "address"
        },
        {
          "internalType": "uint256",
          "name": "amount",
          "type": "uint256"
        },
        {
          "internalType": "address",
          "name": "receiver",
          "type": "address"
        }
      ],
      "name": "singleSwap",
      "outputs": [
        {
          "internalType": "uint256",
          "name": "amountOut",
          "type": "uint256"
        }
      ],
      "stateMutability": "nonpayable",
      "type": "function"
    },
    {
      "inputs": [
        {
          "internalType": "address",
          "name": "newOwner",
          "type": "address"
        }
      ],
      "name": "transferOwnership",
      "outputs": [],
      "stateMutability": "nonpayable",
      "type": "function"
    },
    {
      "inputs": [
        {
          "internalType": "address",
          "name": "newImplementation",
          "type": "address"
        },
        {
          "internalType": "bytes",
          "name": "data",
          "type": "bytes"
        }
      ],
      "name": "upgradeToAndCall",
      "outputs": [],
      "stateMutability": "payable",
      "type": "function"
    }
  ],
  "bytecode": "0x60a0604052306080523480156012575f80fd5b5060805161214d6100395f395f8181611119015281816111420152611345015261214d5ff3fe6080604052600436106100b8575f3560e01c80637b10399911610071578063ad3cb1cc1161004c578063ad3cb1cc14610202578063c4d66de814610257578063f2fde38b14610276575f80fd5b80637b1039991461014a5780638da5cb5b1461019a5780638f2248bc146101e3575f80fd5b806352d1902d116100a157806352d1902d146101035780635efaaebb14610117578063715018a614610136575f80fd5b80632d6bc8ea146100bc5780634f1ef286146100ee575b5f80fd5b3480156100c7575f80fd5b506100db6100d6366004611e0e565b610295565b6040519081526020015b60405180910390f35b6101016100fc366004611e8b565b61063c565b005b34801561010e575f80fd5b506100db61065b565b348015610122575f80fd5b506100db610131366004611f49565b610689565b348015610141575f80fd5b50610101610a2d565b348015610155575f80fd5b505f546101759073ffffffffffffffffffffffffffffffffffffffff1681565b60405173ffffffffffffffffffffffffffffffffffffffff90911681526020016100e5565b3480156101a5575f80fd5b507f9016d09d72d40fdae2fd8ceac6b6234c7706214fd39c1cd1e609a0528c1993005473ffffffffffffffffffffffffffffffffffffffff16610175565b3480156101ee575f80fd5b506101016101fd366004611fad565b610a40565b34801561020d575f80fd5b5061024a6040518060400160405280600581526020017f352e302e3000000000000000000000000000000000000000000000000000000081525081565b6040516100e5919061201e565b348015610262575f80fd5b50610101610271366004612030565b610bbb565b348015610281575f80fd5b50610101610290366004612030565b610d80565b5f303303610304576040517f08c379a000000000000000000000000000000000000000000000000000000000815260206004820152600c60248201527f57726f6e672073656e646572000000000000000000000000000000000000000060448201526064015b60405180910390fd5b5f831161036d576040517f08c379a000000000000000000000000000000000000000000000000000000000815260206004820152600b60248201527f416d6f756e74206973203000000000000000000000000000000000000000000060448201526064016102fb565b6040517f70a08231000000000000000000000000000000000000000000000000000000008152336004820152839073ffffffffffffffffffffffffffffffffffffffff8716906370a0823190602401602060405180830381865afa1580156103d7573d5f803e3d5ffd5b505050506040513d601f19601f820116820180604052508101906103fb919061204b565b1015610463576040517f08c379a000000000000000000000000000000000000000000000000000000000815260206004820152601460248201527f496e73756666696369656e742042616c616e636500000000000000000000000060448201526064016102fb565b6040517fdd62ed3e0000000000000000000000000000000000000000000000000000000081523360048201523060248201525f9073ffffffffffffffffffffffffffffffffffffffff87169063dd62ed3e90604401602060405180830381865afa1580156104d3573d5f803e3d5ffd5b505050506040513d601f19601f820116820180604052508101906104f7919061204b565b905083811015610589576040517f08c379a000000000000000000000000000000000000000000000000000000000815260206004820152602560248201527f42616c756e69537761707065723a20496e73756666696369656e7420416c6c6f60448201527f77616e636500000000000000000000000000000000000000000000000000000060648201526084016102fb565b6040517f23b872dd0000000000000000000000000000000000000000000000000000000081523360048201523060248201526044810185905273ffffffffffffffffffffffffffffffffffffffff8716906323b872dd906064016020604051808303815f875af11580156105ff573d5f803e3d5ffd5b505050506040513d601f19601f820116820180604052508101906106239190612062565b5061063086868686610de3565b9150505b949350505050565b610644611101565b61064d82611205565b610657828261120d565b5050565b5f61066461132d565b507f360894a13ba1a3210667c828492db98dca3e2076cc3735a920a3ca505d382bbc90565b5f3033036106f3576040517f08c379a000000000000000000000000000000000000000000000000000000000815260206004820152600c60248201527f57726f6e672073656e646572000000000000000000000000000000000000000060448201526064016102fb565b5f831161075c576040517f08c379a000000000000000000000000000000000000000000000000000000000815260206004820152600b60248201527f416d6f756e74206973203000000000000000000000000000000000000000000060448201526064016102fb565b6040517f70a08231000000000000000000000000000000000000000000000000000000008152336004820152839073ffffffffffffffffffffffffffffffffffffffff8816906370a0823190602401602060405180830381865afa1580156107c6573d5f803e3d5ffd5b505050506040513d601f19601f820116820180604052508101906107ea919061204b565b1015610852576040517f08c379a000000000000000000000000000000000000000000000000000000000815260206004820152601460248201527f496e73756666696369656e742042616c616e636500000000000000000000000060448201526064016102fb565b6040517fdd62ed3e0000000000000000000000000000000000000000000000000000000081523360048201523060248201525f9073ffffffffffffffffffffffffffffffffffffffff88169063dd62ed3e90604401602060405180830381865afa1580156108c2573d5f803e3d5ffd5b505050506040513d601f19601f820116820180604052508101906108e6919061204b565b905083811015610978576040517f08c379a000000000000000000000000000000000000000000000000000000000815260206004820152602560248201527f42616c756e69537761707065723a20496e73756666696369656e7420416c6c6f60448201527f77616e636500000000000000000000000000000000000000000000000000000060648201526084016102fb565b6040517f23b872dd0000000000000000000000000000000000000000000000000000000081523360048201523060248201526044810185905273ffffffffffffffffffffffffffffffffffffffff8816906323b872dd906064016020604051808303815f875af11580156109ee573d5f803e3d5ffd5b505050506040513d601f19601f82011682018060405250810190610a129190612062565b50610a20878787878761139c565b9150505b95945050505050565b610a356115de565b610a3e5f61166c565b565b7ff0c57e16840df040f15088dc2f81fe391c3923bec73e23a9662efc9c229c6a00805482919068010000000000000000900460ff1680610a8e5750805467ffffffffffffffff808416911610155b15610ac5576040517ff92ee8a900000000000000000000000000000000000000000000000000000000815260040160405180910390fd5b80547fffffffffffffffffffffffffffffffffffffffffffffff0000000000000000001667ffffffffffffffff83161768010000000000000000178155610b0b33611701565b610b13611712565b5f80547fffffffffffffffffffffffff00000000000000000000000000000000000000001673ffffffffffffffffffffffffffffffffffffffff861617905580547fffffffffffffffffffffffffffffffffffffffffffffff00ffffffffffffffff16815560405167ffffffffffffffff831681527fc7f505b2f371ae2175ee4913f4499e1f2633a7b5936321eed1cdaeb6115181d29060200160405180910390a150505050565b7ff0c57e16840df040f15088dc2f81fe391c3923bec73e23a9662efc9c229c6a00805468010000000000000000810460ff16159067ffffffffffffffff165f81158015610c055750825b90505f8267ffffffffffffffff166001148015610c215750303b155b905081158015610c2f575080155b15610c66576040517ff92ee8a900000000000000000000000000000000000000000000000000000000815260040160405180910390fd5b84547fffffffffffffffffffffffffffffffffffffffffffffffff00000000000000001660011785558315610cc75784547fffffffffffffffffffffffffffffffffffffffffffffff00ffffffffffffffff16680100000000000000001785555b610cd033611701565b610cd8611712565b5f80547fffffffffffffffffffffffff00000000000000000000000000000000000000001673ffffffffffffffffffffffffffffffffffffffff88161790558315610d785784547fffffffffffffffffffffffffffffffffffffffffffffff00ffffffffffffffff168555604051600181527fc7f505b2f371ae2175ee4913f4499e1f2633a7b5936321eed1cdaeb6115181d29060200160405180910390a15b505050505050565b610d886115de565b73ffffffffffffffffffffffffffffffffffffffff8116610dd7576040517f1e4fbdf70000000000000000000000000000000000000000000000000000000081525f60048201526024016102fb565b610de08161166c565b50565b5f8054604080517f1acb61410000000000000000000000000000000000000000000000000000000081529051839273ffffffffffffffffffffffffffffffffffffffff1691631acb61419160048083019260209291908290030181865afa158015610e50573d5f803e3d5ffd5b505050506040513d601f19601f82011682018060405250810190610e749190612081565b90505f805f9054906101000a900473ffffffffffffffffffffffffffffffffffffffff1673ffffffffffffffffffffffffffffffffffffffff1663524900b56040518163ffffffff1660e01b8152600401602060405180830381865afa158015610ee0573d5f803e3d5ffd5b505050506040513d601f19601f82011682018060405250810190610f049190612081565b905081610f1288828861171a565b6040517f6e81221c00000000000000000000000000000000000000000000000000000000815273ffffffffffffffffffffffffffffffffffffffff89811660048301528881166024830152604482018890528681166064830152821690636e81221c906084016020604051808303815f875af1925050508015610fb2575060408051601f3d908101601f19168201909252610faf9181019061204b565b60015b6110e457610fc188838861171a565b604080516101008101825273ffffffffffffffffffffffffffffffffffffffff8a8116825289811660208301908152610bb883850190815289831660608501908152426080860190815260a086018d81525f60c0880181815260e0890191825298517f414bf389000000000000000000000000000000000000000000000000000000008152885188166004820152955187166024870152935162ffffff1660448601529151851660648501525160848401525160a4830152935160c48201529251811660e484015290919084169063414bf38990610104016020604051808303815f875af11580156110b5573d5f803e3d5ffd5b505050506040513d601f19601f820116820180604052508101906110d9919061204b565b945050505050610634565b80156110f557935061063492505050565b50505050949350505050565b3073ffffffffffffffffffffffffffffffffffffffff7f00000000000000000000000000000000000000000000000000000000000000001614806111ce57507f000000000000000000000000000000000000000000000000000000000000000073ffffffffffffffffffffffffffffffffffffffff166111b57f360894a13ba1a3210667c828492db98dca3e2076cc3735a920a3ca505d382bbc5473ffffffffffffffffffffffffffffffffffffffff1690565b73ffffffffffffffffffffffffffffffffffffffff1614155b15610a3e576040517fe07c8dba00000000000000000000000000000000000000000000000000000000815260040160405180910390fd5b610de06115de565b8173ffffffffffffffffffffffffffffffffffffffff166352d1902d6040518163ffffffff1660e01b8152600401602060405180830381865afa925050508015611274575060408051601f3d908101601f191682019092526112719181019061204b565b60015b6112c2576040517f4c9c8ce300000000000000000000000000000000000000000000000000000000815273ffffffffffffffffffffffffffffffffffffffff831660048201526024016102fb565b7f360894a13ba1a3210667c828492db98dca3e2076cc3735a920a3ca505d382bbc811461131e576040517faa1d49a4000000000000000000000000000000000000000000000000000000008152600481018290526024016102fb565b61132883836118ec565b505050565b3073ffffffffffffffffffffffffffffffffffffffff7f00000000000000000000000000000000000000000000000000000000000000001614610a3e576040517fe07c8dba00000000000000000000000000000000000000000000000000000000815260040160405180910390fd5b5f8054604080517f1acb61410000000000000000000000000000000000000000000000000000000081529051839273ffffffffffffffffffffffffffffffffffffffff1691631acb61419160048083019260209291908290030181865afa158015611409573d5f803e3d5ffd5b505050506040513d601f19601f8201168201806040525081019061142d9190612081565b9050805f61143c89838861171a565b6040517f6e81221c00000000000000000000000000000000000000000000000000000000815273ffffffffffffffffffffffffffffffffffffffff8a81166004830152898116602483015260448201889052306064830152831690636e81221c906084016020604051808303815f875af19250505080156114da575060408051601f3d908101601f191682019092526114d79181019061204b565b60015b6114f5576114eb898989898961194e565b9350505050610a24565b80156115035780915061151b565b6115108a8a8a8a8a61194e565b945050505050610a24565b506040517f6e81221c00000000000000000000000000000000000000000000000000000000815273ffffffffffffffffffffffffffffffffffffffff89811660048301528881166024830152604482018390528681166064830152831690636e81221c906084016020604051808303815f875af19250505080156115bc575060408051601f3d908101601f191682019092526115b99181019061204b565b60015b6115cd576114eb898989898961194e565b8015611503579350610a2492505050565b3361161d7f9016d09d72d40fdae2fd8ceac6b6234c7706214fd39c1cd1e609a0528c1993005473ffffffffffffffffffffffffffffffffffffffff1690565b73ffffffffffffffffffffffffffffffffffffffff1614610a3e576040517f118cdaa70000000000000000000000000000000000000000000000000000000081523360048201526024016102fb565b7f9016d09d72d40fdae2fd8ceac6b6234c7706214fd39c1cd1e609a0528c19930080547fffffffffffffffffffffffff0000000000000000000000000000000000000000811673ffffffffffffffffffffffffffffffffffffffff848116918217845560405192169182907f8be0079c531659141344cd1fd0a4f28419497f9722a3daafe3b4186f6b6457e0905f90a3505050565b611709611b2e565b610de081611b95565b610a3e611b2e565b6040517fdd62ed3e00000000000000000000000000000000000000000000000000000000815230600482015273ffffffffffffffffffffffffffffffffffffffff83811660248301528491839183169063dd62ed3e90604401602060405180830381865afa15801561178e573d5f803e3d5ffd5b505050506040513d601f19601f820116820180604052508101906117b2919061204b565b10156118e6576040517f095ea7b300000000000000000000000000000000000000000000000000000000815273ffffffffffffffffffffffffffffffffffffffff84811660048301525f602483015282169063095ea7b3906044016020604051808303815f875af1158015611829573d5f803e3d5ffd5b505050506040513d601f19601f8201168201806040525081019061184d9190612062565b506040517f095ea7b300000000000000000000000000000000000000000000000000000000815273ffffffffffffffffffffffffffffffffffffffff84811660048301526024820184905282169063095ea7b3906044016020604051808303815f875af11580156118c0573d5f803e3d5ffd5b505050506040513d601f19601f820116820180604052508101906118e49190612062565b505b50505050565b6118f582611b9d565b60405173ffffffffffffffffffffffffffffffffffffffff8316907fbc7cd75a20ee27fd9adebab32041f755214dbc6bffa90cc0225b39da2e5c2d3b905f90a2805115611946576113288282611c6b565b610657611ce1565b5f8054604080517f524900b50000000000000000000000000000000000000000000000000000000081529051839273ffffffffffffffffffffffffffffffffffffffff169163524900b59160048083019260209291908290030181865afa1580156119bb573d5f803e3d5ffd5b505050506040513d601f19601f820116820180604052508101906119df9190612081565b90506119ec87828661171a565b6040805160a081018252606089811b7fffffffffffffffffffffffffffffffffffffffff00000000000000000000000090811660c08401527e0bb8000000000000000000000000000000000000000000000000000000000060d484018190528a831b821660d785015260eb84015288821b1660ee830152825160e281840301815261010283018452825273ffffffffffffffffffffffffffffffffffffffff808716602084015242838501529082018790525f608083015291517fc04b8d59000000000000000000000000000000000000000000000000000000008152909183169063c04b8d5990611ae290849060040161209c565b6020604051808303815f875af1158015611afe573d5f803e3d5ffd5b505050506040513d601f19601f82011682018060405250810190611b22919061204b565b98975050505050505050565b7ff0c57e16840df040f15088dc2f81fe391c3923bec73e23a9662efc9c229c6a005468010000000000000000900460ff16610a3e576040517fd7e6bcf800000000000000000000000000000000000000000000000000000000815260040160405180910390fd5b610d88611b2e565b8073ffffffffffffffffffffffffffffffffffffffff163b5f03611c05576040517f4c9c8ce300000000000000000000000000000000000000000000000000000000815273ffffffffffffffffffffffffffffffffffffffff821660048201526024016102fb565b7f360894a13ba1a3210667c828492db98dca3e2076cc3735a920a3ca505d382bbc80547fffffffffffffffffffffffff00000000000000000000000000000000000000001673ffffffffffffffffffffffffffffffffffffffff92909216919091179055565b60605f808473ffffffffffffffffffffffffffffffffffffffff1684604051611c949190612101565b5f60405180830381855af49150503d805f8114611ccc576040519150601f19603f3d011682016040523d82523d5f602084013e611cd1565b606091505b5091509150610a24858383611d19565b3415610a3e576040517fb398979f00000000000000000000000000000000000000000000000000000000815260040160405180910390fd5b606082611d2e57611d2982611dab565b611da4565b8151158015611d52575073ffffffffffffffffffffffffffffffffffffffff84163b155b15611da1576040517f9996b31500000000000000000000000000000000000000000000000000000000815273ffffffffffffffffffffffffffffffffffffffff851660048201526024016102fb565b50805b9392505050565b805115611dbb5780518082602001fd5b6040517f1425ea4200000000000000000000000000000000000000000000000000000000815260040160405180910390fd5b73ffffffffffffffffffffffffffffffffffffffff81168114610de0575f80fd5b5f805f8060808587031215611e21575f80fd5b8435611e2c81611ded565b93506020850135611e3c81611ded565b9250604085013591506060850135611e5381611ded565b939692955090935050565b7f4e487b71000000000000000000000000000000000000000000000000000000005f52604160045260245ffd5b5f8060408385031215611e9c575f80fd5b8235611ea781611ded565b9150602083013567ffffffffffffffff80821115611ec3575f80fd5b818501915085601f830112611ed6575f80fd5b813581811115611ee857611ee8611e5e565b604051601f8201601f19908116603f01168101908382118183101715611f1057611f10611e5e565b81604052828152886020848701011115611f28575f80fd5b826020860160208301375f6020848301015280955050505050509250929050565b5f805f805f60a08688031215611f5d575f80fd5b8535611f6881611ded565b94506020860135611f7881611ded565b93506040860135611f8881611ded565b9250606086013591506080860135611f9f81611ded565b809150509295509295909350565b5f8060408385031215611fbe575f80fd5b8235611fc981611ded565b9150602083013567ffffffffffffffff81168114611fe5575f80fd5b809150509250929050565b5f81518084528060208401602086015e5f602082860101526020601f19601f83011685010191505092915050565b602081525f611da46020830184611ff0565b5f60208284031215612040575f80fd5b8135611da481611ded565b5f6020828403121561205b575f80fd5b5051919050565b5f60208284031215612072575f80fd5b81518015158114611da4575f80fd5b5f60208284031215612091575f80fd5b8151611da481611ded565b602081525f825160a060208401526120b760c0840182611ff0565b905073ffffffffffffffffffffffffffffffffffffffff60208501511660408401526040840151606084015260608401516080840152608084015160a08401528091505092915050565b5f82518060208501845e5f92019182525091905056fea264697066735822122011267f309240ec9f0359f788708b5fa0fa7484f235f16c36c2303add4060ee3664736f6c63430008190033",
  "linkReferences": {},
  "deployedLinkReferences": {}
}