{
    "contractName": "BPool",
    "abi": [
        {
            "inputs": [],
            "stateMutability": "nonpayable",
            "type": "constructor"
        },
        {
            "anonymous": false,
            "inputs": [
                {
                    "indexed": true,
                    "internalType": "address",
                    "name": "src",
                    "type": "address"
                },
                {
                    "indexed": true,
                    "internalType": "address",
                    "name": "dst",
                    "type": "address"
                },
                {
                    "indexed": false,
                    "internalType": "uint256",
                    "name": "amt",
                    "type": "uint256"
                }
            ],
            "name": "Approval",
            "type": "event"
        },
        {
            "anonymous": true,
            "inputs": [
                {
                    "indexed": true,
                    "internalType": "bytes4",
                    "name": "sig",
                    "type": "bytes4"
                },
                {
                    "indexed": true,
                    "internalType": "address",
                    "name": "caller",
                    "type": "address"
                },
                {
                    "indexed": false,
                    "internalType": "bytes",
                    "name": "data",
                    "type": "bytes"
                }
            ],
            "name": "LOG_CALL",
            "type": "event"
        },
        {
            "anonymous": false,
            "inputs": [
                {
                    "indexed": true,
                    "internalType": "address",
                    "name": "caller",
                    "type": "address"
                },
                {
                    "indexed": true,
                    "internalType": "address",
                    "name": "tokenOut",
                    "type": "address"
                },
                {
                    "indexed": false,
                    "internalType": "uint256",
                    "name": "tokenAmountOut",
                    "type": "uint256"
                }
            ],
            "name": "LOG_EXIT",
            "type": "event"
        },
        {
            "anonymous": false,
            "inputs": [
                {
                    "indexed": true,
                    "internalType": "address",
                    "name": "caller",
                    "type": "address"
                },
                {
                    "indexed": true,
                    "internalType": "address",
                    "name": "tokenIn",
                    "type": "address"
                },
                {
                    "indexed": false,
                    "internalType": "uint256",
                    "name": "tokenAmountIn",
                    "type": "uint256"
                }
            ],
            "name": "LOG_JOIN",
            "type": "event"
        },
        {
            "anonymous": false,
            "inputs": [
                {
                    "indexed": true,
                    "internalType": "address",
                    "name": "caller",
                    "type": "address"
                },
                {
                    "indexed": true,
                    "internalType": "address",
                    "name": "tokenIn",
                    "type": "address"
                },
                {
                    "indexed": true,
                    "internalType": "address",
                    "name": "tokenOut",
                    "type": "address"
                },
                {
                    "indexed": false,
                    "internalType": "uint256",
                    "name": "tokenAmountIn",
                    "type": "uint256"
                },
                {
                    "indexed": false,
                    "internalType": "uint256",
                    "name": "tokenAmountOut",
                    "type": "uint256"
                }
            ],
            "name": "LOG_SWAP",
            "type": "event"
        },
        {
            "anonymous": false,
            "inputs": [
                {
                    "indexed": true,
                    "internalType": "address",
                    "name": "src",
                    "type": "address"
                },
                {
                    "indexed": true,
                    "internalType": "address",
                    "name": "dst",
                    "type": "address"
                },
                {
                    "indexed": false,
                    "internalType": "uint256",
                    "name": "amt",
                    "type": "uint256"
                }
            ],
            "name": "Transfer",
            "type": "event"
        },
        {
            "inputs": [],
            "name": "BONE",
            "outputs": [
                {
                    "internalType": "uint256",
                    "name": "",
                    "type": "uint256"
                }
            ],
            "stateMutability": "view",
            "type": "function"
        },
        {
            "inputs": [],
            "name": "BPOW_PRECISION",
            "outputs": [
                {
                    "internalType": "uint256",
                    "name": "",
                    "type": "uint256"
                }
            ],
            "stateMutability": "view",
            "type": "function"
        },
        {
            "inputs": [],
            "name": "EXIT_FEE",
            "outputs": [
                {
                    "internalType": "uint256",
                    "name": "",
                    "type": "uint256"
                }
            ],
            "stateMutability": "view",
            "type": "function"
        },
        {
            "inputs": [],
            "name": "INIT_POOL_SUPPLY",
            "outputs": [
                {
                    "internalType": "uint256",
                    "name": "",
                    "type": "uint256"
                }
            ],
            "stateMutability": "view",
            "type": "function"
        },
        {
            "inputs": [],
            "name": "MAX_BOUND_TOKENS",
            "outputs": [
                {
                    "internalType": "uint256",
                    "name": "",
                    "type": "uint256"
                }
            ],
            "stateMutability": "view",
            "type": "function"
        },
        {
            "inputs": [],
            "name": "MAX_BPOW_BASE",
            "outputs": [
                {
                    "internalType": "uint256",
                    "name": "",
                    "type": "uint256"
                }
            ],
            "stateMutability": "view",
            "type": "function"
        },
        {
            "inputs": [],
            "name": "MAX_FEE",
            "outputs": [
                {
                    "internalType": "uint256",
                    "name": "",
                    "type": "uint256"
                }
            ],
            "stateMutability": "view",
            "type": "function"
        },
        {
            "inputs": [],
            "name": "MAX_IN_RATIO",
            "outputs": [
                {
                    "internalType": "uint256",
                    "name": "",
                    "type": "uint256"
                }
            ],
            "stateMutability": "view",
            "type": "function"
        },
        {
            "inputs": [],
            "name": "MAX_OUT_RATIO",
            "outputs": [
                {
                    "internalType": "uint256",
                    "name": "",
                    "type": "uint256"
                }
            ],
            "stateMutability": "view",
            "type": "function"
        },
        {
            "inputs": [],
            "name": "MAX_TOTAL_WEIGHT",
            "outputs": [
                {
                    "internalType": "uint256",
                    "name": "",
                    "type": "uint256"
                }
            ],
            "stateMutability": "view",
            "type": "function"
        },
        {
            "inputs": [],
            "name": "MAX_WEIGHT",
            "outputs": [
                {
                    "internalType": "uint256",
                    "name": "",
                    "type": "uint256"
                }
            ],
            "stateMutability": "view",
            "type": "function"
        },
        {
            "inputs": [],
            "name": "MIN_BALANCE",
            "outputs": [
                {
                    "internalType": "uint256",
                    "name": "",
                    "type": "uint256"
                }
            ],
            "stateMutability": "view",
            "type": "function"
        },
        {
            "inputs": [],
            "name": "MIN_BOUND_TOKENS",
            "outputs": [
                {
                    "internalType": "uint256",
                    "name": "",
                    "type": "uint256"
                }
            ],
            "stateMutability": "view",
            "type": "function"
        },
        {
            "inputs": [],
            "name": "MIN_BPOW_BASE",
            "outputs": [
                {
                    "internalType": "uint256",
                    "name": "",
                    "type": "uint256"
                }
            ],
            "stateMutability": "view",
            "type": "function"
        },
        {
            "inputs": [],
            "name": "MIN_FEE",
            "outputs": [
                {
                    "internalType": "uint256",
                    "name": "",
                    "type": "uint256"
                }
            ],
            "stateMutability": "view",
            "type": "function"
        },
        {
            "inputs": [],
            "name": "MIN_WEIGHT",
            "outputs": [
                {
                    "internalType": "uint256",
                    "name": "",
                    "type": "uint256"
                }
            ],
            "stateMutability": "view",
            "type": "function"
        },
        {
            "inputs": [
                {
                    "internalType": "address",
                    "name": "src",
                    "type": "address"
                },
                {
                    "internalType": "address",
                    "name": "dst",
                    "type": "address"
                }
            ],
            "name": "allowance",
            "outputs": [
                {
                    "internalType": "uint256",
                    "name": "",
                    "type": "uint256"
                }
            ],
            "stateMutability": "view",
            "type": "function"
        },
        {
            "inputs": [
                {
                    "internalType": "address",
                    "name": "dst",
                    "type": "address"
                },
                {
                    "internalType": "uint256",
                    "name": "amt",
                    "type": "uint256"
                }
            ],
            "name": "approve",
            "outputs": [
                {
                    "internalType": "bool",
                    "name": "",
                    "type": "bool"
                }
            ],
            "stateMutability": "nonpayable",
            "type": "function"
        },
        {
            "inputs": [
                {
                    "internalType": "address",
                    "name": "whom",
                    "type": "address"
                }
            ],
            "name": "balanceOf",
            "outputs": [
                {
                    "internalType": "uint256",
                    "name": "",
                    "type": "uint256"
                }
            ],
            "stateMutability": "view",
            "type": "function"
        },
        {
            "inputs": [
                {
                    "internalType": "address",
                    "name": "token",
                    "type": "address"
                },
                {
                    "internalType": "uint256",
                    "name": "balance",
                    "type": "uint256"
                },
                {
                    "internalType": "uint256",
                    "name": "denorm",
                    "type": "uint256"
                }
            ],
            "name": "bind",
            "outputs": [],
            "stateMutability": "nonpayable",
            "type": "function"
        },
        {
            "inputs": [
                {
                    "internalType": "uint256",
                    "name": "tokenBalanceIn",
                    "type": "uint256"
                },
                {
                    "internalType": "uint256",
                    "name": "tokenWeightIn",
                    "type": "uint256"
                },
                {
                    "internalType": "uint256",
                    "name": "tokenBalanceOut",
                    "type": "uint256"
                },
                {
                    "internalType": "uint256",
                    "name": "tokenWeightOut",
                    "type": "uint256"
                },
                {
                    "internalType": "uint256",
                    "name": "tokenAmountOut",
                    "type": "uint256"
                },
                {
                    "internalType": "uint256",
                    "name": "swapFee",
                    "type": "uint256"
                }
            ],
            "name": "calcInGivenOut",
            "outputs": [
                {
                    "internalType": "uint256",
                    "name": "tokenAmountIn",
                    "type": "uint256"
                }
            ],
            "stateMutability": "pure",
            "type": "function"
        },
        {
            "inputs": [
                {
                    "internalType": "uint256",
                    "name": "tokenBalanceIn",
                    "type": "uint256"
                },
                {
                    "internalType": "uint256",
                    "name": "tokenWeightIn",
                    "type": "uint256"
                },
                {
                    "internalType": "uint256",
                    "name": "tokenBalanceOut",
                    "type": "uint256"
                },
                {
                    "internalType": "uint256",
                    "name": "tokenWeightOut",
                    "type": "uint256"
                },
                {
                    "internalType": "uint256",
                    "name": "tokenAmountIn",
                    "type": "uint256"
                },
                {
                    "internalType": "uint256",
                    "name": "swapFee",
                    "type": "uint256"
                }
            ],
            "name": "calcOutGivenIn",
            "outputs": [
                {
                    "internalType": "uint256",
                    "name": "tokenAmountOut",
                    "type": "uint256"
                }
            ],
            "stateMutability": "pure",
            "type": "function"
        },
        {
            "inputs": [
                {
                    "internalType": "uint256",
                    "name": "tokenBalanceOut",
                    "type": "uint256"
                },
                {
                    "internalType": "uint256",
                    "name": "tokenWeightOut",
                    "type": "uint256"
                },
                {
                    "internalType": "uint256",
                    "name": "poolSupply",
                    "type": "uint256"
                },
                {
                    "internalType": "uint256",
                    "name": "totalWeight",
                    "type": "uint256"
                },
                {
                    "internalType": "uint256",
                    "name": "tokenAmountOut",
                    "type": "uint256"
                },
                {
                    "internalType": "uint256",
                    "name": "swapFee",
                    "type": "uint256"
                }
            ],
            "name": "calcPoolInGivenSingleOut",
            "outputs": [
                {
                    "internalType": "uint256",
                    "name": "poolAmountIn",
                    "type": "uint256"
                }
            ],
            "stateMutability": "pure",
            "type": "function"
        },
        {
            "inputs": [
                {
                    "internalType": "uint256",
                    "name": "tokenBalanceIn",
                    "type": "uint256"
                },
                {
                    "internalType": "uint256",
                    "name": "tokenWeightIn",
                    "type": "uint256"
                },
                {
                    "internalType": "uint256",
                    "name": "poolSupply",
                    "type": "uint256"
                },
                {
                    "internalType": "uint256",
                    "name": "totalWeight",
                    "type": "uint256"
                },
                {
                    "internalType": "uint256",
                    "name": "tokenAmountIn",
                    "type": "uint256"
                },
                {
                    "internalType": "uint256",
                    "name": "swapFee",
                    "type": "uint256"
                }
            ],
            "name": "calcPoolOutGivenSingleIn",
            "outputs": [
                {
                    "internalType": "uint256",
                    "name": "poolAmountOut",
                    "type": "uint256"
                }
            ],
            "stateMutability": "pure",
            "type": "function"
        },
        {
            "inputs": [
                {
                    "internalType": "uint256",
                    "name": "tokenBalanceIn",
                    "type": "uint256"
                },
                {
                    "internalType": "uint256",
                    "name": "tokenWeightIn",
                    "type": "uint256"
                },
                {
                    "internalType": "uint256",
                    "name": "poolSupply",
                    "type": "uint256"
                },
                {
                    "internalType": "uint256",
                    "name": "totalWeight",
                    "type": "uint256"
                },
                {
                    "internalType": "uint256",
                    "name": "poolAmountOut",
                    "type": "uint256"
                },
                {
                    "internalType": "uint256",
                    "name": "swapFee",
                    "type": "uint256"
                }
            ],
            "name": "calcSingleInGivenPoolOut",
            "outputs": [
                {
                    "internalType": "uint256",
                    "name": "tokenAmountIn",
                    "type": "uint256"
                }
            ],
            "stateMutability": "pure",
            "type": "function"
        },
        {
            "inputs": [
                {
                    "internalType": "uint256",
                    "name": "tokenBalanceOut",
                    "type": "uint256"
                },
                {
                    "internalType": "uint256",
                    "name": "tokenWeightOut",
                    "type": "uint256"
                },
                {
                    "internalType": "uint256",
                    "name": "poolSupply",
                    "type": "uint256"
                },
                {
                    "internalType": "uint256",
                    "name": "totalWeight",
                    "type": "uint256"
                },
                {
                    "internalType": "uint256",
                    "name": "poolAmountIn",
                    "type": "uint256"
                },
                {
                    "internalType": "uint256",
                    "name": "swapFee",
                    "type": "uint256"
                }
            ],
            "name": "calcSingleOutGivenPoolIn",
            "outputs": [
                {
                    "internalType": "uint256",
                    "name": "tokenAmountOut",
                    "type": "uint256"
                }
            ],
            "stateMutability": "pure",
            "type": "function"
        },
        {
            "inputs": [
                {
                    "internalType": "uint256",
                    "name": "tokenBalanceIn",
                    "type": "uint256"
                },
                {
                    "internalType": "uint256",
                    "name": "tokenWeightIn",
                    "type": "uint256"
                },
                {
                    "internalType": "uint256",
                    "name": "tokenBalanceOut",
                    "type": "uint256"
                },
                {
                    "internalType": "uint256",
                    "name": "tokenWeightOut",
                    "type": "uint256"
                },
                {
                    "internalType": "uint256",
                    "name": "swapFee",
                    "type": "uint256"
                }
            ],
            "name": "calcSpotPrice",
            "outputs": [
                {
                    "internalType": "uint256",
                    "name": "spotPrice",
                    "type": "uint256"
                }
            ],
            "stateMutability": "pure",
            "type": "function"
        },
        {
            "inputs": [],
            "name": "decimals",
            "outputs": [
                {
                    "internalType": "uint8",
                    "name": "",
                    "type": "uint8"
                }
            ],
            "stateMutability": "view",
            "type": "function"
        },
        {
            "inputs": [
                {
                    "internalType": "address",
                    "name": "dst",
                    "type": "address"
                },
                {
                    "internalType": "uint256",
                    "name": "amt",
                    "type": "uint256"
                }
            ],
            "name": "decreaseApproval",
            "outputs": [
                {
                    "internalType": "bool",
                    "name": "",
                    "type": "bool"
                }
            ],
            "stateMutability": "nonpayable",
            "type": "function"
        },
        {
            "inputs": [
                {
                    "internalType": "uint256",
                    "name": "poolAmountIn",
                    "type": "uint256"
                },
                {
                    "internalType": "uint256[]",
                    "name": "minAmountsOut",
                    "type": "uint256[]"
                }
            ],
            "name": "exitPool",
            "outputs": [],
            "stateMutability": "nonpayable",
            "type": "function"
        },
        {
            "inputs": [
                {
                    "internalType": "address",
                    "name": "tokenOut",
                    "type": "address"
                },
                {
                    "internalType": "uint256",
                    "name": "tokenAmountOut",
                    "type": "uint256"
                },
                {
                    "internalType": "uint256",
                    "name": "maxPoolAmountIn",
                    "type": "uint256"
                }
            ],
            "name": "exitswapExternAmountOut",
            "outputs": [
                {
                    "internalType": "uint256",
                    "name": "poolAmountIn",
                    "type": "uint256"
                }
            ],
            "stateMutability": "nonpayable",
            "type": "function"
        },
        {
            "inputs": [
                {
                    "internalType": "address",
                    "name": "tokenOut",
                    "type": "address"
                },
                {
                    "internalType": "uint256",
                    "name": "poolAmountIn",
                    "type": "uint256"
                },
                {
                    "internalType": "uint256",
                    "name": "minAmountOut",
                    "type": "uint256"
                }
            ],
            "name": "exitswapPoolAmountIn",
            "outputs": [
                {
                    "internalType": "uint256",
                    "name": "tokenAmountOut",
                    "type": "uint256"
                }
            ],
            "stateMutability": "nonpayable",
            "type": "function"
        },
        {
            "inputs": [],
            "name": "finalize",
            "outputs": [],
            "stateMutability": "nonpayable",
            "type": "function"
        },
        {
            "inputs": [
                {
                    "internalType": "address",
                    "name": "token",
                    "type": "address"
                }
            ],
            "name": "getBalance",
            "outputs": [
                {
                    "internalType": "uint256",
                    "name": "",
                    "type": "uint256"
                }
            ],
            "stateMutability": "view",
            "type": "function"
        },
        {
            "inputs": [],
            "name": "getColor",
            "outputs": [
                {
                    "internalType": "bytes32",
                    "name": "",
                    "type": "bytes32"
                }
            ],
            "stateMutability": "view",
            "type": "function"
        },
        {
            "inputs": [],
            "name": "getController",
            "outputs": [
                {
                    "internalType": "address",
                    "name": "",
                    "type": "address"
                }
            ],
            "stateMutability": "view",
            "type": "function"
        },
        {
            "inputs": [],
            "name": "getCurrentTokens",
            "outputs": [
                {
                    "internalType": "address[]",
                    "name": "tokens",
                    "type": "address[]"
                }
            ],
            "stateMutability": "view",
            "type": "function"
        },
        {
            "inputs": [
                {
                    "internalType": "address",
                    "name": "token",
                    "type": "address"
                }
            ],
            "name": "getDenormalizedWeight",
            "outputs": [
                {
                    "internalType": "uint256",
                    "name": "",
                    "type": "uint256"
                }
            ],
            "stateMutability": "view",
            "type": "function"
        },
        {
            "inputs": [],
            "name": "getFinalTokens",
            "outputs": [
                {
                    "internalType": "address[]",
                    "name": "tokens",
                    "type": "address[]"
                }
            ],
            "stateMutability": "view",
            "type": "function"
        },
        {
            "inputs": [
                {
                    "internalType": "address",
                    "name": "token",
                    "type": "address"
                }
            ],
            "name": "getNormalizedWeight",
            "outputs": [
                {
                    "internalType": "uint256",
                    "name": "",
                    "type": "uint256"
                }
            ],
            "stateMutability": "view",
            "type": "function"
        },
        {
            "inputs": [],
            "name": "getNumTokens",
            "outputs": [
                {
                    "internalType": "uint256",
                    "name": "",
                    "type": "uint256"
                }
            ],
            "stateMutability": "view",
            "type": "function"
        },
        {
            "inputs": [
                {
                    "internalType": "address",
                    "name": "tokenIn",
                    "type": "address"
                },
                {
                    "internalType": "address",
                    "name": "tokenOut",
                    "type": "address"
                }
            ],
            "name": "getSpotPrice",
            "outputs": [
                {
                    "internalType": "uint256",
                    "name": "spotPrice",
                    "type": "uint256"
                }
            ],
            "stateMutability": "view",
            "type": "function"
        },
        {
            "inputs": [
                {
                    "internalType": "address",
                    "name": "tokenIn",
                    "type": "address"
                },
                {
                    "internalType": "address",
                    "name": "tokenOut",
                    "type": "address"
                }
            ],
            "name": "getSpotPriceSansFee",
            "outputs": [
                {
                    "internalType": "uint256",
                    "name": "spotPrice",
                    "type": "uint256"
                }
            ],
            "stateMutability": "view",
            "type": "function"
        },
        {
            "inputs": [],
            "name": "getSwapFee",
            "outputs": [
                {
                    "internalType": "uint256",
                    "name": "",
                    "type": "uint256"
                }
            ],
            "stateMutability": "view",
            "type": "function"
        },
        {
            "inputs": [],
            "name": "getTotalDenormalizedWeight",
            "outputs": [
                {
                    "internalType": "uint256",
                    "name": "",
                    "type": "uint256"
                }
            ],
            "stateMutability": "view",
            "type": "function"
        },
        {
            "inputs": [
                {
                    "internalType": "address",
                    "name": "token",
                    "type": "address"
                }
            ],
            "name": "gulp",
            "outputs": [],
            "stateMutability": "nonpayable",
            "type": "function"
        },
        {
            "inputs": [
                {
                    "internalType": "address",
                    "name": "dst",
                    "type": "address"
                },
                {
                    "internalType": "uint256",
                    "name": "amt",
                    "type": "uint256"
                }
            ],
            "name": "increaseApproval",
            "outputs": [
                {
                    "internalType": "bool",
                    "name": "",
                    "type": "bool"
                }
            ],
            "stateMutability": "nonpayable",
            "type": "function"
        },
        {
            "inputs": [
                {
                    "internalType": "address",
                    "name": "t",
                    "type": "address"
                }
            ],
            "name": "isBound",
            "outputs": [
                {
                    "internalType": "bool",
                    "name": "",
                    "type": "bool"
                }
            ],
            "stateMutability": "view",
            "type": "function"
        },
        {
            "inputs": [],
            "name": "isFinalized",
            "outputs": [
                {
                    "internalType": "bool",
                    "name": "",
                    "type": "bool"
                }
            ],
            "stateMutability": "view",
            "type": "function"
        },
        {
            "inputs": [],
            "name": "isPublicSwap",
            "outputs": [
                {
                    "internalType": "bool",
                    "name": "",
                    "type": "bool"
                }
            ],
            "stateMutability": "view",
            "type": "function"
        },
        {
            "inputs": [
                {
                    "internalType": "uint256",
                    "name": "poolAmountOut",
                    "type": "uint256"
                },
                {
                    "internalType": "uint256[]",
                    "name": "maxAmountsIn",
                    "type": "uint256[]"
                }
            ],
            "name": "joinPool",
            "outputs": [],
            "stateMutability": "nonpayable",
            "type": "function"
        },
        {
            "inputs": [
                {
                    "internalType": "address",
                    "name": "tokenIn",
                    "type": "address"
                },
                {
                    "internalType": "uint256",
                    "name": "tokenAmountIn",
                    "type": "uint256"
                },
                {
                    "internalType": "uint256",
                    "name": "minPoolAmountOut",
                    "type": "uint256"
                }
            ],
            "name": "joinswapExternAmountIn",
            "outputs": [
                {
                    "internalType": "uint256",
                    "name": "poolAmountOut",
                    "type": "uint256"
                }
            ],
            "stateMutability": "nonpayable",
            "type": "function"
        },
        {
            "inputs": [
                {
                    "internalType": "address",
                    "name": "tokenIn",
                    "type": "address"
                },
                {
                    "internalType": "uint256",
                    "name": "poolAmountOut",
                    "type": "uint256"
                },
                {
                    "internalType": "uint256",
                    "name": "maxAmountIn",
                    "type": "uint256"
                }
            ],
            "name": "joinswapPoolAmountOut",
            "outputs": [
                {
                    "internalType": "uint256",
                    "name": "tokenAmountIn",
                    "type": "uint256"
                }
            ],
            "stateMutability": "nonpayable",
            "type": "function"
        },
        {
            "inputs": [],
            "name": "name",
            "outputs": [
                {
                    "internalType": "string",
                    "name": "",
                    "type": "string"
                }
            ],
            "stateMutability": "view",
            "type": "function"
        },
        {
            "inputs": [
                {
                    "internalType": "address",
                    "name": "token",
                    "type": "address"
                },
                {
                    "internalType": "uint256",
                    "name": "balance",
                    "type": "uint256"
                },
                {
                    "internalType": "uint256",
                    "name": "denorm",
                    "type": "uint256"
                }
            ],
            "name": "rebind",
            "outputs": [],
            "stateMutability": "nonpayable",
            "type": "function"
        },
        {
            "inputs": [
                {
                    "internalType": "address",
                    "name": "manager",
                    "type": "address"
                }
            ],
            "name": "setController",
            "outputs": [],
            "stateMutability": "nonpayable",
            "type": "function"
        },
        {
            "inputs": [
                {
                    "internalType": "bool",
                    "name": "public_",
                    "type": "bool"
                }
            ],
            "name": "setPublicSwap",
            "outputs": [],
            "stateMutability": "nonpayable",
            "type": "function"
        },
        {
            "inputs": [
                {
                    "internalType": "uint256",
                    "name": "swapFee",
                    "type": "uint256"
                }
            ],
            "name": "setSwapFee",
            "outputs": [],
            "stateMutability": "nonpayable",
            "type": "function"
        },
        {
            "inputs": [
                {
                    "internalType": "address",
                    "name": "tokenIn",
                    "type": "address"
                },
                {
                    "internalType": "uint256",
                    "name": "tokenAmountIn",
                    "type": "uint256"
                },
                {
                    "internalType": "address",
                    "name": "tokenOut",
                    "type": "address"
                },
                {
                    "internalType": "uint256",
                    "name": "minAmountOut",
                    "type": "uint256"
                },
                {
                    "internalType": "uint256",
                    "name": "maxPrice",
                    "type": "uint256"
                }
            ],
            "name": "swapExactAmountIn",
            "outputs": [
                {
                    "internalType": "uint256",
                    "name": "tokenAmountOut",
                    "type": "uint256"
                },
                {
                    "internalType": "uint256",
                    "name": "spotPriceAfter",
                    "type": "uint256"
                }
            ],
            "stateMutability": "nonpayable",
            "type": "function"
        },
        {
            "inputs": [
                {
                    "internalType": "address",
                    "name": "tokenIn",
                    "type": "address"
                },
                {
                    "internalType": "uint256",
                    "name": "maxAmountIn",
                    "type": "uint256"
                },
                {
                    "internalType": "address",
                    "name": "tokenOut",
                    "type": "address"
                },
                {
                    "internalType": "uint256",
                    "name": "tokenAmountOut",
                    "type": "uint256"
                },
                {
                    "internalType": "uint256",
                    "name": "maxPrice",
                    "type": "uint256"
                }
            ],
            "name": "swapExactAmountOut",
            "outputs": [
                {
                    "internalType": "uint256",
                    "name": "tokenAmountIn",
                    "type": "uint256"
                },
                {
                    "internalType": "uint256",
                    "name": "spotPriceAfter",
                    "type": "uint256"
                }
            ],
            "stateMutability": "nonpayable",
            "type": "function"
        },
        {
            "inputs": [],
            "name": "symbol",
            "outputs": [
                {
                    "internalType": "string",
                    "name": "",
                    "type": "string"
                }
            ],
            "stateMutability": "view",
            "type": "function"
        },
        {
            "inputs": [],
            "name": "totalSupply",
            "outputs": [
                {
                    "internalType": "uint256",
                    "name": "",
                    "type": "uint256"
                }
            ],
            "stateMutability": "view",
            "type": "function"
        },
        {
            "inputs": [
                {
                    "internalType": "address",
                    "name": "dst",
                    "type": "address"
                },
                {
                    "internalType": "uint256",
                    "name": "amt",
                    "type": "uint256"
                }
            ],
            "name": "transfer",
            "outputs": [
                {
                    "internalType": "bool",
                    "name": "",
                    "type": "bool"
                }
            ],
            "stateMutability": "nonpayable",
            "type": "function"
        },
        {
            "inputs": [
                {
                    "internalType": "address",
                    "name": "src",
                    "type": "address"
                },
                {
                    "internalType": "address",
                    "name": "dst",
                    "type": "address"
                },
                {
                    "internalType": "uint256",
                    "name": "amt",
                    "type": "uint256"
                }
            ],
            "name": "transferFrom",
            "outputs": [
                {
                    "internalType": "bool",
                    "name": "",
                    "type": "bool"
                }
            ],
            "stateMutability": "nonpayable",
            "type": "function"
        },
        {
            "inputs": [
                {
                    "internalType": "address",
                    "name": "token",
                    "type": "address"
                }
            ],
            "name": "unbind",
            "outputs": [],
            "stateMutability": "nonpayable",
            "type": "function"
        }
    ],
    "bytecode": "60c0604052601360809081527f42616c616e63657220506f6f6c20546f6b656e0000000000000000000000000060a05260039061003c908261017d565b5060408051808201909152600381526210941560ea1b6020820152600490610064908261017d565b506005805460ff1916601217905534801561007d575f80fd5b5060068054336001600160a01b031990911681179091556005805462010000600160b01b031916620100009092029190911790556100c6620f4240670de0b6b3a764000061023c565b6007556006805460ff60a01b191690556008805460ff1916905561025b565b634e487b7160e01b5f52604160045260245ffd5b600181811c9082168061010d57607f821691505b60208210810361012b57634e487b7160e01b5f52602260045260245ffd5b50919050565b601f82111561017857805f5260205f20601f840160051c810160208510156101565750805b601f840160051c820191505b81811015610175575f8155600101610162565b50505b505050565b81516001600160401b03811115610196576101966100e5565b6101aa816101a484546100f9565b84610131565b602080601f8311600181146101dd575f84156101c65750858301515b5f19600386901b1c1916600185901b178555610234565b5f85815260208120601f198616915b8281101561020b578886015182559484019460019091019084016101ec565b508582101561022857878501515f19600388901b60f8161c191681555b505060018460011b0185555b505050505050565b5f8261025657634e487b7160e01b5f52601260045260245ffd5b500490565b6145f3806102685f395ff3fe608060405234801561000f575f80fd5b50600436106103ca575f3560e01c80638d4e408311610200578063bc694ea21161011f578063d73dd623116100b4578063ec09302111610084578063ec093021146107d9578063f1b8a9b7146107e1578063f8b2cb4f146107f4578063f8d6aed414610807578063fde924f71461081a575f80fd5b8063d73dd6231461077b578063dd62ed3e1461078e578063e4a28a521461042c578063e4e1e538146107c6575f80fd5b8063cc77828d116100ef578063cc77828d14610750578063cd2ed8fb14610758578063cf5e7bd314610760578063d4cadf6814610773575f80fd5b8063bc694ea21461072c578063be3bbd2e14610734578063c36596a61461046a578063c6580d1214610749575f80fd5b8063a221ee4911610195578063b7b800a411610165578063b7b800a414610701578063ba019dab14610709578063ba9530a614610711578063bc063e1a14610724575f80fd5b8063a221ee49146106c0578063a9059cbb146106d3578063b02f0b73146106e6578063b0e0d136146106f9575f80fd5b8063948d8ce6116101d0578063948d8ce61461068e57806395d89b41146106a1578063992e2a92146106a95780639a86139b146106b1575f80fd5b80638d4e40831461066057806392eefe9b1461066b578063936c34771461067e5780639381cd2b14610686575f80fd5b806349b59552116102ec57806376c7a3c7116102815780638656b653116102515780638656b6531461061f578063867378c514610632578063892980121461063a5780638c28cbe81461064d575f80fd5b806376c7a3c7146105c95780637c5e9ea4146105d15780638201aa3f146105f957806382f652ad1461060c575f80fd5b80635db34277116102bc5780635db3427714610568578063661884631461057b5780636d06dfa01461058e57806370a08231146105a1575f80fd5b806349b59552146105275780634bb278f31461053a5780634f69c0d4146105425780635c1bbaf714610555575f80fd5b8063218b538211610362578063313ce56711610332578063313ce567146104d757806334e19907146104ec5780633fdddaa21461050157806346ab38f114610514575f80fd5b8063218b53821461046a57806323b872dd146104795780632f37b6241461048c5780633018205f146104b7575f80fd5b80631446a7ff1161039d5780631446a7ff1461043457806315e84af91461044757806318160ddd1461045a578063189d00ca14610462575f80fd5b806302c96748146103ce57806306fdde03146103f4578063095ea7b31461040957806309a3bbe41461042c575b5f80fd5b6103e16103dc366004613fcf565b61082c565b6040519081526020015b60405180910390f35b6103fc610a8e565b6040516103eb9190613fff565b61041c610417366004614034565b610b1e565b60405190151581526020016103eb565b6103e1610b77565b6103e161044236600461405c565b610b8d565b6103e161045536600461405c565b610c71565b6002546103e1565b6103e1610d4c565b6103e1670de0b6b3a764000081565b61041c61048736600461408d565b610d63565b61041c61049a3660046140c6565b6001600160a01b03165f908152600a602052604090205460ff1690565b6104bf610eb0565b6040516001600160a01b0390911681526020016103eb565b60055460405160ff90911681526020016103eb565b6104ff6104fa3660046140df565b610eea565b005b6104ff61050f366004613fcf565b611058565b6103e1610522366004613fcf565b6113ae565b6104ff610535366004614103565b6115bf565b6104ff6116a4565b6104ff61055036600461411e565b61180a565b6103e1610563366004614196565b611a2a565b6103e1610576366004613fcf565b611ada565b61041c610589366004614034565b611cc3565b6103e161059c366004613fcf565b611d94565b6103e16105af3660046140c6565b6001600160a01b03165f9081526020819052604090205490565b6103e1611f89565b6105e46105df3660046141d5565b611f9e565b604080519283526020830191909152016103eb565b6105e46106073660046141d5565b612311565b6103e161061a366004614196565b61266a565b6103e161062d366004614196565b61271f565b6103e16127b4565b6103e1610648366004614196565b6127cb565b6104ff61065b3660046140c6565b612872565b60085460ff1661041c565b6104ff6106793660046140c6565b6129a7565b6103e1612a6f565b6103e1612aa0565b6103e161069c3660046140c6565b612ab3565b6103fc612b36565b6103e1612b45565b6542524f4e5a4560d01b6103e1565b6103e16106ce36600461421f565b612b63565b61041c6106e1366004614034565b612bc4565b6104ff6106f436600461411e565b612bd9565b6103e1600881565b6103e1600281565b6103e1600181565b6103e161071f366004614196565b612e43565b6103e1612ebf565b6103e1612ed2565b61073c612ef1565b6040516103eb9190614256565b6103e15f81565b61073c612f9b565b6009546103e1565b6104ff61076e3660046140c6565b612fc6565b6103e161329c565b61041c610789366004614034565b6132cd565b6103e161079c36600461405c565b6001600160a01b039182165f90815260016020908152604080832093909416825291909152205490565b6104ff6107d4366004613fcf565b61333d565b6103e161350d565b6103e16107ef3660046140c6565b613520565b6103e16108023660046140c6565b6135b1565b6103e1610815366004614196565b613630565b600654600160a01b900460ff1661041c565b6040515f9033906001600160e01b03198335169061084d90849036906142a2565b60405180910390a2600554610100900460ff16156108865760405162461bcd60e51b815260040161087d906142d0565b60405180910390fd5b6005805461ff00191661010017905560085460ff166108b75760405162461bcd60e51b815260040161087d906142f5565b6001600160a01b0384165f908152600a602052604090205460ff166108ee5760405162461bcd60e51b815260040161087d90614320565b6001600160a01b0384165f908152600a602052604090206003908101546109319161092190670de0b6b3a764000061436f565b61092c906001614382565b6136af565b8311156109505760405162461bcd60e51b815260040161087d90614395565b6001600160a01b0384165f908152600a6020526040902060038101546002808301549054600b546007546109899493929190899061266a565b9150815f036109aa5760405162461bcd60e51b815260040161087d906143c0565b828211156109ca5760405162461bcd60e51b815260040161087d906143e9565b6109d8816003015485613791565b60038201555f6109e883826136af565b9050856001600160a01b0316336001600160a01b03167fe74c91552b64c2e2e7bd255639e004e693bd3e1d01cc33e65610b86afcc1ffed87604051610a2f91815260200190565b60405180910390a3610a4133846137ec565b610a53610a4e8483613791565b6137fa565b600554610a6f906201000090046001600160a01b031682613806565b610a7a863387613810565b50506005805461ff00191690559392505050565b606060038054610a9d9061440f565b80601f0160208091040260200160405190810160405280929190818152602001828054610ac99061440f565b8015610b145780601f10610aeb57610100808354040283529160200191610b14565b820191905f5260205f20905b815481529060010190602001808311610af757829003601f168201915b5050505050905090565b335f8181526001602090815260408083206001600160a01b038716808552925280832085905551919290915f8051602061459e83398151915290610b659086815260200190565b60405180910390a35060015b92915050565b610b8a670de0b6b3a76400006032614447565b81565b6005545f90610100900460ff1615610bb75760405162461bcd60e51b815260040161087d906142d0565b6001600160a01b0383165f908152600a602052604090205460ff16610bee5760405162461bcd60e51b815260040161087d90614320565b6001600160a01b0382165f908152600a602052604090205460ff16610c255760405162461bcd60e51b815260040161087d90614320565b6001600160a01b038084165f908152600a60205260408082209285168252812060038084015460028086015492840154908401549394610c689492939290612b63565b95945050505050565b6005545f90610100900460ff1615610c9b5760405162461bcd60e51b815260040161087d906142d0565b6001600160a01b0383165f908152600a602052604090205460ff16610cd25760405162461bcd60e51b815260040161087d90614320565b6001600160a01b0382165f908152600a602052604090205460ff16610d095760405162461bcd60e51b815260040161087d90614320565b6001600160a01b038084165f908152600a6020526040808220928516825290206003808301546002808501549284015490840154600754610c6894929190612b63565b610b8a6402540be400670de0b6b3a764000061436f565b5f336001600160a01b0385161480610d9d57506001600160a01b0384165f9081526001602090815260408083203384529091529020548211155b610de15760405162461bcd60e51b815260206004820152601560248201527422a9292fa12a27a5a2a72fa120a22fa1a0a62622a960591b604482015260640161087d565b610dec8484846138cb565b336001600160a01b03851614801590610e2857506001600160a01b0384165f9081526001602090815260408083203384529091529020545f1914155b15610ea6576001600160a01b0384165f908152600160209081526040808320338452909152902054610e5a9083613791565b6001600160a01b038581165f9081526001602090815260408083203380855290835292819020859055519384529186169290915f8051602061459e833981519152910160405180910390a35b5060019392505050565b6005545f90610100900460ff1615610eda5760405162461bcd60e51b815260040161087d906142d0565b506006546001600160a01b031690565b336001600160a01b03165f356001600160e01b0319166001600160e01b0319165f36604051610f1a9291906142a2565b60405180910390a2600554610100900460ff1615610f4a5760405162461bcd60e51b815260040161087d906142d0565b6005805461ff00191661010017905560085460ff1615610f7c5760405162461bcd60e51b815260040161087d9061445e565b6006546001600160a01b03163314610fa65760405162461bcd60e51b815260040161087d90614488565b610fbb620f4240670de0b6b3a764000061436f565b811015610ff85760405162461bcd60e51b815260206004820152600b60248201526a4552525f4d494e5f46454560a81b604482015260640161087d565b61100b600a670de0b6b3a764000061436f565b8111156110485760405162461bcd60e51b815260206004820152600b60248201526a4552525f4d41585f46454560a81b604482015260640161087d565b6007556005805461ff0019169055565b336001600160a01b03165f356001600160e01b0319166001600160e01b0319165f366040516110889291906142a2565b60405180910390a2600554610100900460ff16156110b85760405162461bcd60e51b815260040161087d906142d0565b6005805461ff001916610100179055600654336001600160a01b03909116146110f35760405162461bcd60e51b815260040161087d90614488565b6001600160a01b0383165f908152600a602052604090205460ff1661112a5760405162461bcd60e51b815260040161087d90614320565b60085460ff161561114d5760405162461bcd60e51b815260040161087d9061445e565b670de0b6b3a76400008110156111965760405162461bcd60e51b815260206004820152600e60248201526d11549497d3525397d5d15251d21560921b604482015260640161087d565b6111a9670de0b6b3a76400006032614447565b8111156111e95760405162461bcd60e51b815260206004820152600e60248201526d11549497d3505617d5d15251d21560921b604482015260640161087d565b61120064e8d4a51000670de0b6b3a764000061436f565b8210156112415760405162461bcd60e51b815260206004820152600f60248201526e4552525f4d494e5f42414c414e434560881b604482015260640161087d565b6001600160a01b0383165f908152600a6020526040902060020154808211156112dc57611279600b546112748484613791565b6139d1565b600b5561128f670de0b6b3a76400006032614447565b600b5411156112d75760405162461bcd60e51b815260206004820152601460248201527311549497d3505617d513d5105317d5d15251d21560621b604482015260640161087d565b6112fd565b808210156112fd576112f9600b546112f48385613791565b613791565b600b555b6001600160a01b0384165f908152600a60205260409020600281018390556003018054908490558084111561134557611340853361133b8785613791565b613a22565b61139c565b8084101561139c575f6113588286613791565b90505f611365825f6136af565b905061137b87336113768585613791565b613810565b6005546113999088906201000090046001600160a01b031683613810565b50505b50506005805461ff0019169055505050565b6040515f9033906001600160e01b0319833516906113cf90849036906142a2565b60405180910390a2600554610100900460ff16156113ff5760405162461bcd60e51b815260040161087d906142d0565b6005805461ff00191661010017905560085460ff166114305760405162461bcd60e51b815260040161087d906142f5565b6001600160a01b0384165f908152600a602052604090205460ff166114675760405162461bcd60e51b815260040161087d90614320565b6001600160a01b0384165f908152600a6020526040902060038101546002808301549054600b546007546114a0949392919089906127cb565b9150828210156114c25760405162461bcd60e51b815260040161087d906144b4565b6001600160a01b0385165f908152600a602052604090206003908101546114f59161092190670de0b6b3a764000061436f565b8211156115145760405162461bcd60e51b815260040161087d90614395565b611522816003015483613791565b60038201555f61153285826136af565b9050856001600160a01b0316336001600160a01b03167fe74c91552b64c2e2e7bd255639e004e693bd3e1d01cc33e65610b86afcc1ffed8560405161157991815260200190565b60405180910390a361158b33866137ec565b611598610a4e8683613791565b6005546115b4906201000090046001600160a01b031682613806565b610a7a863385613810565b336001600160a01b03165f356001600160e01b0319166001600160e01b0319165f366040516115ef9291906142a2565b60405180910390a2600554610100900460ff161561161f5760405162461bcd60e51b815260040161087d906142d0565b6005805461ff00191661010017905560085460ff16156116515760405162461bcd60e51b815260040161087d9061445e565b6006546001600160a01b0316331461167b5760405162461bcd60e51b815260040161087d90614488565b60068054911515600160a01b0260ff60a01b199092169190911790556005805461ff0019169055565b336001600160a01b03165f356001600160e01b0319166001600160e01b0319165f366040516116d49291906142a2565b60405180910390a2600554610100900460ff16156117045760405162461bcd60e51b815260040161087d906142d0565b6005805461ff001916610100179055600654336001600160a01b039091161461173f5760405162461bcd60e51b815260040161087d90614488565b60085460ff16156117625760405162461bcd60e51b815260040161087d9061445e565b600954600211156117a65760405162461bcd60e51b815260206004820152600e60248201526d4552525f4d494e5f544f4b454e5360901b604482015260640161087d565b6008805460ff191660011790556006805460ff60a01b1916600160a01b1790556117e16117dc670de0b6b3a76400006064614447565b613a60565b6117fd336117f8670de0b6b3a76400006064614447565b613806565b6005805461ff0019169055565b336001600160a01b03165f356001600160e01b0319166001600160e01b0319165f3660405161183a9291906142a2565b60405180910390a2600554610100900460ff161561186a5760405162461bcd60e51b815260040161087d906142d0565b6005805461ff00191661010017905560085460ff1661189b5760405162461bcd60e51b815260040161087d906142f5565b5f6118a560025490565b90505f6118b28583613a69565b9050805f036118d35760405162461bcd60e51b815260040161087d906143c0565b5f5b600954811015611a16575f600982815481106118f3576118f36144db565b5f9182526020808320909101546001600160a01b0316808352600a90915260408220600301549092509061192785836136af565b9050805f036119485760405162461bcd60e51b815260040161087d906143c0565b87878581811061195a5761195a6144db565b905060200201358111156119805760405162461bcd60e51b815260040161087d906143e9565b6001600160a01b0383165f908152600a60205260409020600301546119a590826139d1565b6001600160a01b0384165f818152600a60205260409081902060030192909255905133907f63982df10efd8dfaaaa0fcc7f50b2d93b7cba26ccc48adee2873220d485dc39a906119f89085815260200190565b60405180910390a3611a0b833383613a22565b5050506001016118d5565b50611a2085613a60565b61139c3386613806565b5f80611a368786613a69565b90505f611a4387866139d1565b90505f611a508289613a69565b90505f611a65670de0b6b3a764000085613a69565b90505f611a728383613b7f565b90505f611a7f828e6136af565b90505f611a8c828f613791565b90505f611aaa611aa4670de0b6b3a76400008a613791565b8b6136af565b9050611ac782611ac2670de0b6b3a764000084613791565b613a69565b9f9e505050505050505050505050505050565b6040515f9033906001600160e01b031983351690611afb90849036906142a2565b60405180910390a2600554610100900460ff1615611b2b5760405162461bcd60e51b815260040161087d906142d0565b6005805461ff00191661010017905560085460ff16611b5c5760405162461bcd60e51b815260040161087d906142f5565b6001600160a01b0384165f908152600a602052604090205460ff16611b935760405162461bcd60e51b815260040161087d90614320565b6001600160a01b0384165f908152600a6020526040902060030154611bc59061092c6002670de0b6b3a764000061436f565b831115611be45760405162461bcd60e51b815260040161087d906144ef565b6001600160a01b0384165f908152600a6020526040902060038101546002808301549054600b54600754611c1d9493929190899061271f565b915082821015611c3f5760405162461bcd60e51b815260040161087d906144b4565b611c4d8160030154856139d1565b60038201556040518481526001600160a01b0386169033907f63982df10efd8dfaaaa0fcc7f50b2d93b7cba26ccc48adee2873220d485dc39a9060200160405180910390a3611c9b82613a60565b611ca53383613806565b611cb0853386613a22565b506005805461ff00191690559392505050565b335f9081526001602090815260408083206001600160a01b038616845290915281205480831115611d1657335f9081526001602090815260408083206001600160a01b0388168452909152812055611d44565b611d208184613791565b335f9081526001602090815260408083206001600160a01b03891684529091529020555b335f8181526001602090815260408083206001600160a01b038916808552908352928190205490519081529192915f8051602061459e833981519152910160405180910390a35060019392505050565b6040515f9033906001600160e01b031983351690611db590849036906142a2565b60405180910390a2600554610100900460ff1615611de55760405162461bcd60e51b815260040161087d906142d0565b6005805461ff00191661010017905560085460ff16611e165760405162461bcd60e51b815260040161087d906142f5565b6001600160a01b0384165f908152600a602052604090205460ff16611e4d5760405162461bcd60e51b815260040161087d90614320565b6001600160a01b0384165f908152600a6020526040902060038101546002808301549054600b54600754611e8694939291908990611a2a565b9150815f03611ea75760405162461bcd60e51b815260040161087d906143c0565b82821115611ec75760405162461bcd60e51b815260040161087d906143e9565b6001600160a01b0385165f908152600a6020526040902060030154611ef99061092c6002670de0b6b3a764000061436f565b821115611f185760405162461bcd60e51b815260040161087d906144ef565b611f268160030154836139d1565b60038201556040518281526001600160a01b0386169033907f63982df10efd8dfaaaa0fcc7f50b2d93b7cba26ccc48adee2873220d485dc39a9060200160405180910390a3611f7484613a60565b611f7e3385613806565b611cb0853384613a22565b610b8a620f4240670de0b6b3a764000061436f565b6040515f90819033906001600160e01b031983351690611fc190849036906142a2565b60405180910390a2600554610100900460ff1615611ff15760405162461bcd60e51b815260040161087d906142d0565b6005805461ff0019166101001790556001600160a01b0387165f908152600a602052604090205460ff166120375760405162461bcd60e51b815260040161087d90614320565b6001600160a01b0385165f908152600a602052604090205460ff1661206e5760405162461bcd60e51b815260040161087d90614320565b600654600160a01b900460ff166120bd5760405162461bcd60e51b81526020600482015260136024820152724552525f535741505f4e4f545f5055424c494360681b604482015260640161087d565b6001600160a01b038088165f908152600a6020526040808220928816825290206003808201546120f99161092190670de0b6b3a764000061436f565b8611156121185760405162461bcd60e51b815260040161087d90614395565b5f6121388360030154846002015484600301548560020154600754612b63565b9050858111156121805760405162461bcd60e51b81526020600482015260136024820152724552525f4241445f4c494d49545f505249434560681b604482015260640161087d565b6121a083600301548460020154846003015485600201548b600754613630565b9450888511156121c25760405162461bcd60e51b815260040161087d906143e9565b6121d08360030154866139d1565b83600301819055506121e6826003015488613791565b600380840182905584015460028086015490850154600754612209949190612b63565b93508084101561222b5760405162461bcd60e51b815260040161087d906143c0565b8584111561226d5760405162461bcd60e51b815260206004820152600f60248201526e4552525f4c494d49545f505249434560881b604482015260640161087d565b6122778588613a69565b8111156122965760405162461bcd60e51b815260040161087d906143c0565b60408051868152602081018990526001600160a01b03808b1692908d169133917f908fb5ee8f16c6bc9bc3690973819f32a4d4b10188134543c88706e0e1d43378910160405180910390a46122ec8a3387613a22565b6122f7883389613810565b5050506005805461ff001916905590969095509350505050565b6040515f90819033906001600160e01b03198335169061233490849036906142a2565b60405180910390a2600554610100900460ff16156123645760405162461bcd60e51b815260040161087d906142d0565b6005805461ff0019166101001790556001600160a01b0387165f908152600a602052604090205460ff166123aa5760405162461bcd60e51b815260040161087d90614320565b6001600160a01b0385165f908152600a602052604090205460ff166123e15760405162461bcd60e51b815260040161087d90614320565b600654600160a01b900460ff166124305760405162461bcd60e51b81526020600482015260136024820152724552525f535741505f4e4f545f5055424c494360681b604482015260640161087d565b6001600160a01b038088165f908152600a602052604080822092881682529020600382015461246c9061092c6002670de0b6b3a764000061436f565b88111561248b5760405162461bcd60e51b815260040161087d906144ef565b5f6124ab8360030154846002015484600301548560020154600754612b63565b9050858111156124f35760405162461bcd60e51b81526020600482015260136024820152724552525f4241445f4c494d49545f505249434560681b604482015260640161087d565b61251383600301548460020154846003015485600201548d600754612e43565b9450868510156125355760405162461bcd60e51b815260040161087d906144b4565b61254383600301548a6139d1565b8360030181905550612559826003015486613791565b60038084018290558401546002808601549085015460075461257c949190612b63565b93508084101561259e5760405162461bcd60e51b815260040161087d906143c0565b858411156125e05760405162461bcd60e51b815260206004820152600f60248201526e4552525f4c494d49545f505249434560881b604482015260640161087d565b6125ea8986613a69565b8111156126095760405162461bcd60e51b815260040161087d906143c0565b604080518a8152602081018790526001600160a01b03808b1692908d169133917f908fb5ee8f16c6bc9bc3690973819f32a4d4b10188134543c88706e0e1d43378910160405180910390a461265f8a338b613a22565b6122f7883387613810565b5f806126768786613a69565b90505f61268b670de0b6b3a764000083613791565b90505f61269882866136af565b90505f6126b187611ac2670de0b6b3a764000085613791565b90505f6126be8c83613791565b90505f6126cb828e613a69565b90505f6126d88288613b7f565b90505f6126e5828e6136af565b90505f6126f28e83613791565b905061270a81611ac2670de0b6b3a76400005f613791565b99505050505050505050509695505050505050565b5f8061272b8786613a69565b90505f612749612743670de0b6b3a764000084613791565b856136af565b90505f6127628661092c670de0b6b3a764000085613791565b90505f61276f8b836139d1565b90505f61277c828d613a69565b90505f6127898287613b7f565b90505f612796828d6136af565b90506127a2818d613791565b9e9d5050505050505050505050505050565b610b8a64e8d4a51000670de0b6b3a764000061436f565b5f806127d78786613a69565b90505f6127f08561092c670de0b6b3a76400005f613791565b90505f6127fd8883613791565b90505f61280a828a613a69565b90505f61282882612823670de0b6b3a764000088613a69565b613b7f565b90505f612835828e6136af565b90505f6128428e83613791565b90505f61285a611aa4670de0b6b3a76400008a613791565b9050611ac78261092c670de0b6b3a764000084613791565b336001600160a01b03165f356001600160e01b0319166001600160e01b0319165f366040516128a29291906142a2565b60405180910390a2600554610100900460ff16156128d25760405162461bcd60e51b815260040161087d906142d0565b6005805461ff0019166101001790556001600160a01b0381165f908152600a602052604090205460ff166129185760405162461bcd60e51b815260040161087d90614320565b6040516370a0823160e01b81523060048201526001600160a01b038216906370a0823190602401602060405180830381865afa15801561295a573d5f803e3d5ffd5b505050506040513d601f19601f8201168201806040525081019061297e9190614519565b6001600160a01b039091165f908152600a60205260409020600301556005805461ff0019169055565b336001600160a01b03165f356001600160e01b0319166001600160e01b0319165f366040516129d79291906142a2565b60405180910390a2600554610100900460ff1615612a075760405162461bcd60e51b815260040161087d906142d0565b6005805461ff001916610100179055600654336001600160a01b0390911614612a425760405162461bcd60e51b815260040161087d90614488565b600680546001600160a01b0319166001600160a01b03929092169190911790556005805461ff0019169055565b6005545f90610100900460ff1615612a995760405162461bcd60e51b815260040161087d906142d0565b50600b5490565b610b8a670de0b6b3a76400006064614447565b6005545f90610100900460ff1615612add5760405162461bcd60e51b815260040161087d906142d0565b6001600160a01b0382165f908152600a602052604090205460ff16612b145760405162461bcd60e51b815260040161087d90614320565b506001600160a01b0381165f908152600a60205260409020600201545b919050565b606060048054610a9d9061440f565b612b586003670de0b6b3a764000061436f565b610b8a906001614382565b5f80612b6f8787613a69565b90505f612b7c8686613a69565b90505f612b898383613a69565b90505f612baa670de0b6b3a7640000611ac2670de0b6b3a764000089613791565b9050612bb682826136af565b9a9950505050505050505050565b5f612bd03384846138cb565b50600192915050565b336001600160a01b03165f356001600160e01b0319166001600160e01b0319165f36604051612c099291906142a2565b60405180910390a2600554610100900460ff1615612c395760405162461bcd60e51b815260040161087d906142d0565b6005805461ff00191661010017905560085460ff16612c6a5760405162461bcd60e51b815260040161087d906142f5565b5f612c7460025490565b90505f612c81855f6136af565b90505f612c8e8683613791565b90505f612c9b8285613a69565b9050805f03612cbc5760405162461bcd60e51b815260040161087d906143c0565b612cc633886137ec565b600554612ce2906201000090046001600160a01b031684613806565b612ceb826137fa565b5f5b600954811015612e2e575f60098281548110612d0b57612d0b6144db565b5f9182526020808320909101546001600160a01b0316808352600a909152604082206003015490925090612d3f85836136af565b9050805f03612d605760405162461bcd60e51b815260040161087d906143c0565b898985818110612d7257612d726144db565b90506020020135811015612d985760405162461bcd60e51b815260040161087d906144b4565b6001600160a01b0383165f908152600a6020526040902060030154612dbd9082613791565b6001600160a01b0384165f818152600a60205260409081902060030192909255905133907fe74c91552b64c2e2e7bd255639e004e693bd3e1d01cc33e65610b86afcc1ffed90612e109085815260200190565b60405180910390a3612e23833383613810565b505050600101612ced565b50506005805461ff0019169055505050505050565b5f80612e4f8786613a69565b90505f612e64670de0b6b3a764000085613791565b9050612e7085826136af565b90505f612e818a611ac28c856139d1565b90505f612e8e8285613b7f565b90505f612ea3670de0b6b3a764000083613791565b9050612eaf8a826136af565b9c9b505050505050505050505050565b610b8a600a670de0b6b3a764000061436f565b6001612ee7670de0b6b3a76400006002614447565b610b8a9190614530565b600554606090610100900460ff1615612f1c5760405162461bcd60e51b815260040161087d906142d0565b60085460ff16612f3e5760405162461bcd60e51b815260040161087d906142f5565b6009805480602002602001604051908101604052809291908181526020018280548015610b1457602002820191905f5260205f20905b81546001600160a01b03168152600190910190602001808311612f74575050505050905090565b600554606090610100900460ff1615612f3e5760405162461bcd60e51b815260040161087d906142d0565b336001600160a01b03165f356001600160e01b0319166001600160e01b0319165f36604051612ff69291906142a2565b60405180910390a2600554610100900460ff16156130265760405162461bcd60e51b815260040161087d906142d0565b6005805461ff001916610100179055600654336001600160a01b03909116146130615760405162461bcd60e51b815260040161087d90614488565b6001600160a01b0381165f908152600a602052604090205460ff166130985760405162461bcd60e51b815260040161087d90614320565b60085460ff16156130bb5760405162461bcd60e51b815260040161087d9061445e565b6001600160a01b0381165f908152600a6020526040812060030154906130e182826136af565b600b546001600160a01b0385165f908152600a602052604090206002015491925061310b91613791565b600b556001600160a01b0383165f908152600a6020526040812060019081015460095490929161313a91614530565b90506009818154811061314f5761314f6144db565b5f91825260209091200154600980546001600160a01b03909216918490811061317a5761317a6144db565b905f5260205f20015f6101000a8154816001600160a01b0302191690836001600160a01b0316021790555081600a5f600985815481106131bc576131bc6144db565b5f9182526020808320909101546001600160a01b0316835282019290925260400190206001015560098054806131f4576131f4614543565b5f82815260208082205f19908401810180546001600160a01b031916905590920190925560408051608081018252838152808301848152818301858152606083018681526001600160a01b038c168752600a909552929094209051815460ff1916901515178155925160018401555160028301555160039091015561327e85336113768787613791565b60055461139c9086906201000090046001600160a01b031685613810565b6005545f90610100900460ff16156132c65760405162461bcd60e51b815260040161087d906142d0565b5060075490565b335f9081526001602090815260408083206001600160a01b03861684529091528120546132fa90836139d1565b335f8181526001602090815260408083206001600160a01b038916808552908352928190208590555193845290925f8051602061459e8339815191529101610b65565b336001600160a01b03165f356001600160e01b0319166001600160e01b0319165f3660405161336d9291906142a2565b60405180910390a26006546001600160a01b0316331461339f5760405162461bcd60e51b815260040161087d90614488565b6001600160a01b0383165f908152600a602052604090205460ff16156133f65760405162461bcd60e51b815260206004820152600c60248201526b11549497d254d7d093d5539160a21b604482015260640161087d565b60085460ff16156134195760405162461bcd60e51b815260040161087d9061445e565b60095460081161345c5760405162461bcd60e51b815260206004820152600e60248201526d4552525f4d41585f544f4b454e5360901b604482015260640161087d565b6040805160808101825260018082526009805460208085019182525f858701818152606087018281526001600160a01b038c16808452600a9094529782209651875460ff1916901515178755925186860155915160028601559451600390940193909355805491820181559091527f6e1540171b6c0c960b71a7020d9f60077f6af931a8bbf590da0223dacf75c7af0180546001600160a01b0319169091179055613508838383611058565b505050565b610b8a6002670de0b6b3a764000061436f565b6005545f90610100900460ff161561354a5760405162461bcd60e51b815260040161087d906142d0565b6001600160a01b0382165f908152600a602052604090205460ff166135815760405162461bcd60e51b815260040161087d90614320565b6001600160a01b0382165f908152600a6020526040902060020154600b546135aa908290613a69565b9392505050565b6005545f90610100900460ff16156135db5760405162461bcd60e51b815260040161087d906142d0565b6001600160a01b0382165f908152600a602052604090205460ff166136125760405162461bcd60e51b815260040161087d90614320565b506001600160a01b03165f908152600a602052604090206003015490565b5f8061363c8588613a69565b90505f6136498786613791565b90505f6136568883613a69565b90505f6136638285613b7f565b905061367781670de0b6b3a7640000613791565b905061368b670de0b6b3a764000087613791565b94506136a061369a8c836136af565b86613a69565b9b9a5050505050505050505050565b5f806136bb8385614447565b90508315806136d25750826136d0858361436f565b145b6137115760405162461bcd60e51b815260206004820152601060248201526f4552525f4d554c5f4f564552464c4f5760801b604482015260640161087d565b5f6137256002670de0b6b3a764000061436f565b61372f9083614382565b9050818110156137745760405162461bcd60e51b815260206004820152601060248201526f4552525f4d554c5f4f564552464c4f5760801b604482015260640161087d565b5f613787670de0b6b3a76400008361436f565b9695505050505050565b5f805f61379e8585613ca8565b9150915080156137e45760405162461bcd60e51b81526020600482015260116024820152704552525f5355425f554e444552464c4f5760781b604482015260640161087d565b509392505050565b6137f68282613cdd565b5050565b61380381613ce8565b50565b6137f68282613db0565b60405163a9059cbb60e01b81526001600160a01b038381166004830152602482018390525f919085169063a9059cbb906044015b6020604051808303815f875af1158015613860573d5f803e3d5ffd5b505050506040513d601f19601f820116820180604052508101906138849190614557565b9050806138c55760405162461bcd60e51b815260206004820152600f60248201526e4552525f45524332305f46414c534560881b604482015260640161087d565b50505050565b6001600160a01b0383165f908152602081905260409020548111156139295760405162461bcd60e51b815260206004820152601460248201527311549497d25394d551919250d251539517d0905360621b604482015260640161087d565b6001600160a01b0383165f9081526020819052604090205461394b9082613791565b6001600160a01b038085165f90815260208190526040808220939093559084168152205461397990826139d1565b6001600160a01b038381165f818152602081815260409182902094909455518481529092918616917fddf252ad1be2c89b69c2b068fc378daa952ba7f163c4a11628f55a4df523b3ef910160405180910390a3505050565b5f806139dd8385614382565b9050838110156135aa5760405162461bcd60e51b815260206004820152601060248201526f4552525f4144445f4f564552464c4f5760801b604482015260640161087d565b6040516323b872dd60e01b81526001600160a01b038381166004830152306024830152604482018390525f91908516906323b872dd90606401613844565b61380381613dbb565b5f815f03613aa85760405162461bcd60e51b815260206004820152600c60248201526b4552525f4449565f5a45524f60a01b604482015260640161087d565b5f613abb670de0b6b3a764000085614447565b9050831580613ada5750670de0b6b3a7640000613ad8858361436f565b145b613b195760405162461bcd60e51b815260206004820152601060248201526f11549497d1125597d25395115493905360821b604482015260640161087d565b5f613b2560028561436f565b613b2f9083614382565b905081811015613b745760405162461bcd60e51b815260206004820152601060248201526f11549497d1125597d25395115493905360821b604482015260640161087d565b5f613787858361436f565b5f6001831015613bc95760405162461bcd60e51b81526020600482015260156024820152744552525f42504f575f424153455f544f4f5f4c4f5760581b604482015260640161087d565b6001613bde670de0b6b3a76400006002614447565b613be89190614530565b831115613c305760405162461bcd60e51b815260206004820152601660248201527508aa4a4be84a09eaebe8482a68abea89e9ebe90928e960531b604482015260640161087d565b5f613c3a83613e27565b90505f613c478483613791565b90505f613c5c86613c5785613e44565b613e57565b9050815f03613c6f579250610b71915050565b5f613c918784613c8c6402540be400670de0b6b3a764000061436f565b613ecb565b9050613c9d82826136af565b979650505050505050565b5f80828410613cc557613cbb8385614530565b5f91509150613cd6565b613ccf8484614530565b6001915091505b9250929050565b6137f68230836138cb565b305f90815260208190526040902054811115613d3d5760405162461bcd60e51b815260206004820152601460248201527311549497d25394d551919250d251539517d0905360621b604482015260640161087d565b305f90815260208190526040902054613d569082613791565b305f90815260208190526040902055600254613d729082613791565b6002556040518181525f9030907fddf252ad1be2c89b69c2b068fc378daa952ba7f163c4a11628f55a4df523b3ef906020015b60405180910390a350565b6137f63083836138cb565b305f90815260208190526040902054613dd490826139d1565b305f90815260208190526040902055600254613df090826139d1565b60025560405181815230905f907fddf252ad1be2c89b69c2b068fc378daa952ba7f163c4a11628f55a4df523b3ef90602001613da5565b5f670de0b6b3a7640000613e3a83613e44565b610b719190614447565b5f610b71670de0b6b3a76400008361436f565b5f80613e64600284614572565b5f03613e7857670de0b6b3a7640000613e7a565b835b9050613e8760028461436f565b92505b82156135aa57613e9a84856136af565b9350613ea7600284614572565b15613eb957613eb681856136af565b90505b613ec460028461436f565b9250613e8a565b5f828180613ee187670de0b6b3a7640000613ca8565b9092509050670de0b6b3a7640000805f60015b888410613faa575f613f0e670de0b6b3a764000083614447565b90505f80613f2d8a613f2885670de0b6b3a7640000613791565b613ca8565b91509150613f3f8761092c848c6136af565b9650613f4b8784613a69565b9650865f03613f5c57505050613faa565b8715613f66579315935b8015613f70579315935b8415613f8757613f808688613791565b9550613f94565b613f9186886139d1565b95505b5050508080613fa290614585565b915050613ef4565b50909998505050505050505050565b80356001600160a01b0381168114612b31575f80fd5b5f805f60608486031215613fe1575f80fd5b613fea84613fb9565b95602085013595506040909401359392505050565b602081525f82518060208401528060208501604085015e5f604082850101526040601f19601f83011684010191505092915050565b5f8060408385031215614045575f80fd5b61404e83613fb9565b946020939093013593505050565b5f806040838503121561406d575f80fd5b61407683613fb9565b915061408460208401613fb9565b90509250929050565b5f805f6060848603121561409f575f80fd5b6140a884613fb9565b92506140b660208501613fb9565b9150604084013590509250925092565b5f602082840312156140d6575f80fd5b6135aa82613fb9565b5f602082840312156140ef575f80fd5b5035919050565b8015158114613803575f80fd5b5f60208284031215614113575f80fd5b81356135aa816140f6565b5f805f60408486031215614130575f80fd5b83359250602084013567ffffffffffffffff8082111561414e575f80fd5b818601915086601f830112614161575f80fd5b81358181111561416f575f80fd5b8760208260051b8501011115614183575f80fd5b6020830194508093505050509250925092565b5f805f805f8060c087890312156141ab575f80fd5b505084359660208601359650604086013595606081013595506080810135945060a0013592509050565b5f805f805f60a086880312156141e9575f80fd5b6141f286613fb9565b94506020860135935061420760408701613fb9565b94979396509394606081013594506080013592915050565b5f805f805f60a08688031215614233575f80fd5b505083359560208501359550604085013594606081013594506080013592509050565b602080825282518282018190525f9190848201906040850190845b818110156142965783516001600160a01b031683529284019291840191600101614271565b50909695505050505050565b60208152816020820152818360408301375f818301604090810191909152601f909201601f19160101919050565b6020808252600b908201526a4552525f5245454e54525960a81b604082015260600190565b60208082526011908201527011549497d393d517d19253905312569151607a1b604082015260600190565b6020808252600d908201526c11549497d393d517d093d55391609a1b604082015260600190565b634e487b7160e01b5f52601260045260245ffd5b634e487b7160e01b5f52601160045260245ffd5b5f8261437d5761437d614347565b500490565b80820180821115610b7157610b7161435b565b6020808252601190820152704552525f4d41585f4f55545f524154494f60781b604082015260600190565b6020808252600f908201526e08aa4a4be9a82a890be82a0a0a49eb608b1b604082015260600190565b6020808252600c908201526b22a9292fa624a6a4aa2fa4a760a11b604082015260600190565b600181811c9082168061442357607f821691505b60208210810361444157634e487b7160e01b5f52602260045260245ffd5b50919050565b8082028115828204841417610b7157610b7161435b565b60208082526010908201526f11549497d254d7d1925390531256915160821b604082015260600190565b60208082526012908201527122a9292fa727aa2fa1a7a72a2927a62622a960711b604082015260600190565b6020808252600d908201526c11549497d31253525517d3d555609a1b604082015260600190565b634e487b7160e01b5f52603260045260245ffd5b60208082526010908201526f4552525f4d41585f494e5f524154494f60801b604082015260600190565b5f60208284031215614529575f80fd5b5051919050565b81810381811115610b7157610b7161435b565b634e487b7160e01b5f52603160045260245ffd5b5f60208284031215614567575f80fd5b81516135aa816140f6565b5f8261458057614580614347565b500690565b5f600182016145965761459661435b565b506001019056fe8c5be1e5ebec7d5bd14f71427d1e84f3dd0314c0f7b2291e5b200ac8c7c3b925a264697066735822122015d50b66fb55ce8797725dfa98d02dcb9609b2321ddcf541b2bc472c25d3b23964736f6c63430008190033",
    "sourcePath": "c:/Users/Utente/Source/repos/baluni-contracts/contracts/external/balancer/BPool.sol",
    "compiler": {
        "name": "solc",
        "version": "0.8.25+commit.b61c2a91"
    },
    "functionHashes": {
        "BONE()": "c36596a6",
        "BPOW_PRECISION()": "189d00ca",
        "EXIT_FEE()": "c6580d12",
        "INIT_POOL_SUPPLY()": "9381cd2b",
        "MAX_BOUND_TOKENS()": "b0e0d136",
        "MAX_BPOW_BASE()": "bc694ea2",
        "MAX_FEE()": "bc063e1a",
        "MAX_IN_RATIO()": "ec093021",
        "MAX_OUT_RATIO()": "992e2a92",
        "MAX_TOTAL_WEIGHT()": "09a3bbe4",
        "MAX_WEIGHT()": "e4a28a52",
        "MIN_BALANCE()": "867378c5",
        "MIN_BOUND_TOKENS()": "b7b800a4",
        "MIN_BPOW_BASE()": "ba019dab",
        "MIN_FEE()": "76c7a3c7",
        "MIN_WEIGHT()": "218b5382",
        "allowance(address,address)": "dd62ed3e",
        "approve(address,uint256)": "095ea7b3",
        "balanceOf(address)": "70a08231",
        "bind(address,uint256,uint256)": "e4e1e538",
        "calcInGivenOut(uint256,uint256,uint256,uint256,uint256,uint256)": "f8d6aed4",
        "calcOutGivenIn(uint256,uint256,uint256,uint256,uint256,uint256)": "ba9530a6",
        "calcPoolInGivenSingleOut(uint256,uint256,uint256,uint256,uint256,uint256)": "82f652ad",
        "calcPoolOutGivenSingleIn(uint256,uint256,uint256,uint256,uint256,uint256)": "8656b653",
        "calcSingleInGivenPoolOut(uint256,uint256,uint256,uint256,uint256,uint256)": "5c1bbaf7",
        "calcSingleOutGivenPoolIn(uint256,uint256,uint256,uint256,uint256,uint256)": "89298012",
        "calcSpotPrice(uint256,uint256,uint256,uint256,uint256)": "a221ee49",
        "decimals()": "313ce567",
        "decreaseApproval(address,uint256)": "66188463",
        "exitPool(uint256,uint256[])": "b02f0b73",
        "exitswapExternAmountOut(address,uint256,uint256)": "02c96748",
        "exitswapPoolAmountIn(address,uint256,uint256)": "46ab38f1",
        "finalize()": "4bb278f3",
        "getBalance(address)": "f8b2cb4f",
        "getColor()": "9a86139b",
        "getController()": "3018205f",
        "getCurrentTokens()": "cc77828d",
        "getDenormalizedWeight(address)": "948d8ce6",
        "getFinalTokens()": "be3bbd2e",
        "getNormalizedWeight(address)": "f1b8a9b7",
        "getNumTokens()": "cd2ed8fb",
        "getSpotPrice(address,address)": "15e84af9",
        "getSpotPriceSansFee(address,address)": "1446a7ff",
        "getSwapFee()": "d4cadf68",
        "getTotalDenormalizedWeight()": "936c3477",
        "gulp(address)": "8c28cbe8",
        "increaseApproval(address,uint256)": "d73dd623",
        "isBound(address)": "2f37b624",
        "isFinalized()": "8d4e4083",
        "isPublicSwap()": "fde924f7",
        "joinPool(uint256,uint256[])": "4f69c0d4",
        "joinswapExternAmountIn(address,uint256,uint256)": "5db34277",
        "joinswapPoolAmountOut(address,uint256,uint256)": "6d06dfa0",
        "name()": "06fdde03",
        "rebind(address,uint256,uint256)": "3fdddaa2",
        "setController(address)": "92eefe9b",
        "setPublicSwap(bool)": "49b59552",
        "setSwapFee(uint256)": "34e19907",
        "swapExactAmountIn(address,uint256,address,uint256,uint256)": "8201aa3f",
        "swapExactAmountOut(address,uint256,address,uint256,uint256)": "7c5e9ea4",
        "symbol()": "95d89b41",
        "totalSupply()": "18160ddd",
        "transfer(address,uint256)": "a9059cbb",
        "transferFrom(address,address,uint256)": "23b872dd",
        "unbind(address)": "cf5e7bd3"
    },
    "gasEstimates": {
        "creation": {
            "codeDepositCost": "3581400",
            "executionCost": "infinite",
            "totalCost": "infinite"
        },
        "external": {
            "BONE()": "295",
            "BPOW_PRECISION()": "386",
            "EXIT_FEE()": "316",
            "INIT_POOL_SUPPLY()": "418",
            "MAX_BOUND_TOKENS()": "317",
            "MAX_BPOW_BASE()": "infinite",
            "MAX_FEE()": "384",
            "MAX_IN_RATIO()": "317",
            "MAX_OUT_RATIO()": "438",
            "MAX_TOTAL_WEIGHT()": "419",
            "MAX_WEIGHT()": "394",
            "MIN_BALANCE()": "340",
            "MIN_BOUND_TOKENS()": "250",
            "MIN_BPOW_BASE()": "272",
            "MIN_FEE()": "319",
            "MIN_WEIGHT()": "252",
            "allowance(address,address)": "infinite",
            "approve(address,uint256)": "infinite",
            "balanceOf(address)": "2660",
            "bind(address,uint256,uint256)": "infinite",
            "calcInGivenOut(uint256,uint256,uint256,uint256,uint256,uint256)": "infinite",
            "calcOutGivenIn(uint256,uint256,uint256,uint256,uint256,uint256)": "infinite",
            "calcPoolInGivenSingleOut(uint256,uint256,uint256,uint256,uint256,uint256)": "infinite",
            "calcPoolOutGivenSingleIn(uint256,uint256,uint256,uint256,uint256,uint256)": "infinite",
            "calcSingleInGivenPoolOut(uint256,uint256,uint256,uint256,uint256,uint256)": "infinite",
            "calcSingleOutGivenPoolIn(uint256,uint256,uint256,uint256,uint256,uint256)": "infinite",
            "calcSpotPrice(uint256,uint256,uint256,uint256,uint256)": "infinite",
            "decimals()": "2356",
            "decreaseApproval(address,uint256)": "infinite",
            "exitPool(uint256,uint256[])": "infinite",
            "exitswapExternAmountOut(address,uint256,uint256)": "infinite",
            "exitswapPoolAmountIn(address,uint256,uint256)": "infinite",
            "finalize()": "infinite",
            "getBalance(address)": "7004",
            "getColor()": "320",
            "getController()": "4624",
            "getCurrentTokens()": "infinite",
            "getDenormalizedWeight(address)": "infinite",
            "getFinalTokens()": "infinite",
            "getNormalizedWeight(address)": "infinite",
            "getNumTokens()": "2369",
            "getSpotPrice(address,address)": "infinite",
            "getSpotPriceSansFee(address,address)": "infinite",
            "getSwapFee()": "4572",
            "getTotalDenormalizedWeight()": "4552",
            "gulp(address)": "infinite",
            "increaseApproval(address,uint256)": "infinite",
            "isBound(address)": "2659",
            "isFinalized()": "2372",
            "isPublicSwap()": "2474",
            "joinPool(uint256,uint256[])": "infinite",
            "joinswapExternAmountIn(address,uint256,uint256)": "infinite",
            "joinswapPoolAmountOut(address,uint256,uint256)": "infinite",
            "name()": "infinite",
            "rebind(address,uint256,uint256)": "infinite",
            "setController(address)": "infinite",
            "setPublicSwap(bool)": "infinite",
            "setSwapFee(uint256)": "infinite",
            "swapExactAmountIn(address,uint256,address,uint256,uint256)": "infinite",
            "swapExactAmountOut(address,uint256,address,uint256,uint256)": "infinite",
            "symbol()": "infinite",
            "totalSupply()": "2393",
            "transfer(address,uint256)": "5174",
            "transferFrom(address,address,uint256)": "infinite",
            "unbind(address)": "infinite"
        },
        "internal": {
            "_burnPoolShare(uint256)": "infinite",
            "_mintPoolShare(uint256)": "infinite",
            "_pullPoolShare(address,uint256)": "infinite",
            "_pullUnderlying(address,address,uint256)": "infinite",
            "_pushPoolShare(address,uint256)": "infinite",
            "_pushUnderlying(address,address,uint256)": "infinite"
        }
    }
}