{
    "contractName": "BaluniV1Pool",
    "abi": [
        {
            "inputs": [
                {
                    "internalType": "address",
                    "name": "_rebalancer",
                    "type": "address"
                },
                {
                    "internalType": "address[]",
                    "name": "_assets",
                    "type": "address[]"
                },
                {
                    "internalType": "uint256[]",
                    "name": "_weights",
                    "type": "uint256[]"
                },
                {
                    "internalType": "uint256",
                    "name": "_trigger",
                    "type": "uint256"
                },
                {
                    "internalType": "address",
                    "name": "_periphery",
                    "type": "address"
                }
            ],
            "stateMutability": "nonpayable",
            "type": "constructor"
        },
        {
            "inputs": [
                {
                    "internalType": "address",
                    "name": "spender",
                    "type": "address"
                },
                {
                    "internalType": "uint256",
                    "name": "allowance",
                    "type": "uint256"
                },
                {
                    "internalType": "uint256",
                    "name": "needed",
                    "type": "uint256"
                }
            ],
            "name": "ERC20InsufficientAllowance",
            "type": "error"
        },
        {
            "inputs": [
                {
                    "internalType": "address",
                    "name": "sender",
                    "type": "address"
                },
                {
                    "internalType": "uint256",
                    "name": "balance",
                    "type": "uint256"
                },
                {
                    "internalType": "uint256",
                    "name": "needed",
                    "type": "uint256"
                }
            ],
            "name": "ERC20InsufficientBalance",
            "type": "error"
        },
        {
            "inputs": [
                {
                    "internalType": "address",
                    "name": "approver",
                    "type": "address"
                }
            ],
            "name": "ERC20InvalidApprover",
            "type": "error"
        },
        {
            "inputs": [
                {
                    "internalType": "address",
                    "name": "receiver",
                    "type": "address"
                }
            ],
            "name": "ERC20InvalidReceiver",
            "type": "error"
        },
        {
            "inputs": [
                {
                    "internalType": "address",
                    "name": "sender",
                    "type": "address"
                }
            ],
            "name": "ERC20InvalidSender",
            "type": "error"
        },
        {
            "inputs": [
                {
                    "internalType": "address",
                    "name": "spender",
                    "type": "address"
                }
            ],
            "name": "ERC20InvalidSpender",
            "type": "error"
        },
        {
            "inputs": [],
            "name": "ReentrancyGuardReentrantCall",
            "type": "error"
        },
        {
            "anonymous": false,
            "inputs": [
                {
                    "indexed": true,
                    "internalType": "address",
                    "name": "owner",
                    "type": "address"
                },
                {
                    "indexed": true,
                    "internalType": "address",
                    "name": "spender",
                    "type": "address"
                },
                {
                    "indexed": false,
                    "internalType": "uint256",
                    "name": "value",
                    "type": "uint256"
                }
            ],
            "name": "Approval",
            "type": "event"
        },
        {
            "anonymous": false,
            "inputs": [
                {
                    "indexed": true,
                    "internalType": "address",
                    "name": "user",
                    "type": "address"
                },
                {
                    "indexed": false,
                    "internalType": "uint256",
                    "name": "sharesBurned",
                    "type": "uint256"
                }
            ],
            "name": "Burn",
            "type": "event"
        },
        {
            "anonymous": false,
            "inputs": [
                {
                    "indexed": true,
                    "internalType": "address",
                    "name": "to",
                    "type": "address"
                },
                {
                    "indexed": false,
                    "internalType": "uint256",
                    "name": "sharesMinted",
                    "type": "uint256"
                }
            ],
            "name": "Mint",
            "type": "event"
        },
        {
            "anonymous": false,
            "inputs": [
                {
                    "indexed": true,
                    "internalType": "address",
                    "name": "by",
                    "type": "address"
                },
                {
                    "indexed": false,
                    "internalType": "address[]",
                    "name": "assets",
                    "type": "address[]"
                }
            ],
            "name": "RebalancePerformed",
            "type": "event"
        },
        {
            "anonymous": false,
            "inputs": [
                {
                    "indexed": true,
                    "internalType": "address",
                    "name": "user",
                    "type": "address"
                },
                {
                    "indexed": true,
                    "internalType": "address",
                    "name": "fromToken",
                    "type": "address"
                },
                {
                    "indexed": true,
                    "internalType": "address",
                    "name": "toToken",
                    "type": "address"
                },
                {
                    "indexed": false,
                    "internalType": "uint256",
                    "name": "amountIn",
                    "type": "uint256"
                },
                {
                    "indexed": false,
                    "internalType": "uint256",
                    "name": "amountOut",
                    "type": "uint256"
                }
            ],
            "name": "Swap",
            "type": "event"
        },
        {
            "anonymous": false,
            "inputs": [
                {
                    "indexed": true,
                    "internalType": "address",
                    "name": "from",
                    "type": "address"
                },
                {
                    "indexed": true,
                    "internalType": "address",
                    "name": "to",
                    "type": "address"
                },
                {
                    "indexed": false,
                    "internalType": "uint256",
                    "name": "value",
                    "type": "uint256"
                }
            ],
            "name": "Transfer",
            "type": "event"
        },
        {
            "anonymous": false,
            "inputs": [
                {
                    "indexed": true,
                    "internalType": "address",
                    "name": "user",
                    "type": "address"
                },
                {
                    "indexed": false,
                    "internalType": "uint256[]",
                    "name": "amountsAdded",
                    "type": "uint256[]"
                }
            ],
            "name": "WeightsRebalanced",
            "type": "event"
        },
        {
            "inputs": [],
            "name": "ONE",
            "outputs": [
                {
                    "internalType": "uint256",
                    "name": "",
                    "type": "uint256"
                }
            ],
            "stateMutability": "view",
            "type": "function"
        },
        {
            "inputs": [],
            "name": "SWAP_FEE_BPS",
            "outputs": [
                {
                    "internalType": "uint256",
                    "name": "",
                    "type": "uint256"
                }
            ],
            "stateMutability": "view",
            "type": "function"
        },
        {
            "inputs": [
                {
                    "internalType": "address",
                    "name": "owner",
                    "type": "address"
                },
                {
                    "internalType": "address",
                    "name": "spender",
                    "type": "address"
                }
            ],
            "name": "allowance",
            "outputs": [
                {
                    "internalType": "uint256",
                    "name": "",
                    "type": "uint256"
                }
            ],
            "stateMutability": "view",
            "type": "function"
        },
        {
            "inputs": [
                {
                    "internalType": "address",
                    "name": "spender",
                    "type": "address"
                },
                {
                    "internalType": "uint256",
                    "name": "value",
                    "type": "uint256"
                }
            ],
            "name": "approve",
            "outputs": [
                {
                    "internalType": "bool",
                    "name": "",
                    "type": "bool"
                }
            ],
            "stateMutability": "nonpayable",
            "type": "function"
        },
        {
            "inputs": [
                {
                    "internalType": "uint256",
                    "name": "",
                    "type": "uint256"
                }
            ],
            "name": "assetInfos",
            "outputs": [
                {
                    "internalType": "address",
                    "name": "asset",
                    "type": "address"
                },
                {
                    "internalType": "uint256",
                    "name": "weight",
                    "type": "uint256"
                }
            ],
            "stateMutability": "view",
            "type": "function"
        },
        {
            "inputs": [
                {
                    "internalType": "uint256",
                    "name": "assetIndex",
                    "type": "uint256"
                }
            ],
            "name": "assetLiquidity",
            "outputs": [
                {
                    "internalType": "uint256",
                    "name": "",
                    "type": "uint256"
                }
            ],
            "stateMutability": "view",
            "type": "function"
        },
        {
            "inputs": [
                {
                    "internalType": "address",
                    "name": "account",
                    "type": "address"
                }
            ],
            "name": "balanceOf",
            "outputs": [
                {
                    "internalType": "uint256",
                    "name": "",
                    "type": "uint256"
                }
            ],
            "stateMutability": "view",
            "type": "function"
        },
        {
            "inputs": [
                {
                    "internalType": "address",
                    "name": "to",
                    "type": "address"
                }
            ],
            "name": "burn",
            "outputs": [],
            "stateMutability": "nonpayable",
            "type": "function"
        },
        {
            "inputs": [],
            "name": "decimals",
            "outputs": [
                {
                    "internalType": "uint8",
                    "name": "",
                    "type": "uint8"
                }
            ],
            "stateMutability": "view",
            "type": "function"
        },
        {
            "inputs": [
                {
                    "internalType": "address",
                    "name": "fromToken",
                    "type": "address"
                },
                {
                    "internalType": "address",
                    "name": "toToken",
                    "type": "address"
                },
                {
                    "internalType": "uint256",
                    "name": "amount",
                    "type": "uint256"
                }
            ],
            "name": "getAmountOut",
            "outputs": [
                {
                    "internalType": "uint256",
                    "name": "",
                    "type": "uint256"
                }
            ],
            "stateMutability": "view",
            "type": "function"
        },
        {
            "inputs": [],
            "name": "getAssets",
            "outputs": [
                {
                    "internalType": "address[]",
                    "name": "",
                    "type": "address[]"
                }
            ],
            "stateMutability": "view",
            "type": "function"
        },
        {
            "inputs": [],
            "name": "getDeviation",
            "outputs": [
                {
                    "internalType": "bool[]",
                    "name": "directions",
                    "type": "bool[]"
                },
                {
                    "internalType": "uint256[]",
                    "name": "deviations",
                    "type": "uint256[]"
                }
            ],
            "stateMutability": "view",
            "type": "function"
        },
        {
            "inputs": [],
            "name": "getReserves",
            "outputs": [
                {
                    "internalType": "uint256[]",
                    "name": "",
                    "type": "uint256[]"
                }
            ],
            "stateMutability": "view",
            "type": "function"
        },
        {
            "inputs": [],
            "name": "getWeights",
            "outputs": [
                {
                    "internalType": "uint256[]",
                    "name": "",
                    "type": "uint256[]"
                }
            ],
            "stateMutability": "view",
            "type": "function"
        },
        {
            "inputs": [],
            "name": "liquidity",
            "outputs": [
                {
                    "internalType": "uint256",
                    "name": "",
                    "type": "uint256"
                }
            ],
            "stateMutability": "view",
            "type": "function"
        },
        {
            "inputs": [
                {
                    "internalType": "address",
                    "name": "to",
                    "type": "address"
                }
            ],
            "name": "mint",
            "outputs": [
                {
                    "internalType": "uint256",
                    "name": "",
                    "type": "uint256"
                }
            ],
            "stateMutability": "nonpayable",
            "type": "function"
        },
        {
            "inputs": [],
            "name": "name",
            "outputs": [
                {
                    "internalType": "string",
                    "name": "",
                    "type": "string"
                }
            ],
            "stateMutability": "view",
            "type": "function"
        },
        {
            "inputs": [
                {
                    "internalType": "address",
                    "name": "_sender",
                    "type": "address"
                }
            ],
            "name": "performRebalanceIfNeeded",
            "outputs": [],
            "stateMutability": "nonpayable",
            "type": "function"
        },
        {
            "inputs": [],
            "name": "periphery",
            "outputs": [
                {
                    "internalType": "address",
                    "name": "",
                    "type": "address"
                }
            ],
            "stateMutability": "view",
            "type": "function"
        },
        {
            "inputs": [
                {
                    "internalType": "address",
                    "name": "receiver",
                    "type": "address"
                }
            ],
            "name": "rebalanceWeights",
            "outputs": [],
            "stateMutability": "nonpayable",
            "type": "function"
        },
        {
            "inputs": [],
            "name": "rebalancer",
            "outputs": [
                {
                    "internalType": "contract IBaluniV1Rebalancer",
                    "name": "",
                    "type": "address"
                }
            ],
            "stateMutability": "view",
            "type": "function"
        },
        {
            "inputs": [
                {
                    "internalType": "address",
                    "name": "",
                    "type": "address"
                }
            ],
            "name": "reserves",
            "outputs": [
                {
                    "internalType": "uint256",
                    "name": "",
                    "type": "uint256"
                }
            ],
            "stateMutability": "view",
            "type": "function"
        },
        {
            "inputs": [
                {
                    "internalType": "address",
                    "name": "fromToken",
                    "type": "address"
                },
                {
                    "internalType": "address",
                    "name": "toToken",
                    "type": "address"
                },
                {
                    "internalType": "uint256",
                    "name": "amount",
                    "type": "uint256"
                },
                {
                    "internalType": "address",
                    "name": "receiver",
                    "type": "address"
                }
            ],
            "name": "swap",
            "outputs": [
                {
                    "internalType": "uint256",
                    "name": "",
                    "type": "uint256"
                }
            ],
            "stateMutability": "nonpayable",
            "type": "function"
        },
        {
            "inputs": [],
            "name": "symbol",
            "outputs": [
                {
                    "internalType": "string",
                    "name": "",
                    "type": "string"
                }
            ],
            "stateMutability": "view",
            "type": "function"
        },
        {
            "inputs": [],
            "name": "totalSupply",
            "outputs": [
                {
                    "internalType": "uint256",
                    "name": "",
                    "type": "uint256"
                }
            ],
            "stateMutability": "view",
            "type": "function"
        },
        {
            "inputs": [
                {
                    "internalType": "address",
                    "name": "to",
                    "type": "address"
                },
                {
                    "internalType": "uint256",
                    "name": "value",
                    "type": "uint256"
                }
            ],
            "name": "transfer",
            "outputs": [
                {
                    "internalType": "bool",
                    "name": "",
                    "type": "bool"
                }
            ],
            "stateMutability": "nonpayable",
            "type": "function"
        },
        {
            "inputs": [
                {
                    "internalType": "address",
                    "name": "from",
                    "type": "address"
                },
                {
                    "internalType": "address",
                    "name": "to",
                    "type": "address"
                },
                {
                    "internalType": "uint256",
                    "name": "value",
                    "type": "uint256"
                }
            ],
            "name": "transferFrom",
            "outputs": [
                {
                    "internalType": "bool",
                    "name": "",
                    "type": "bool"
                }
            ],
            "stateMutability": "nonpayable",
            "type": "function"
        },
        {
            "inputs": [],
            "name": "trigger",
            "outputs": [
                {
                    "internalType": "uint256",
                    "name": "",
                    "type": "uint256"
                }
            ],
            "stateMutability": "view",
            "type": "function"
        },
        {
            "inputs": [],
            "name": "unitPrice",
            "outputs": [
                {
                    "internalType": "uint256",
                    "name": "",
                    "type": "uint256"
                }
            ],
            "stateMutability": "view",
            "type": "function"
        }
    ],
    "bytecode": "608060405234801561000f575f80fd5b506040516138a73803806138a783398101604081905261002e9161058f565b60405180604001604052806009815260200168042616c756e69204c560bc1b81525060405180604001604052806009815260200168042414c554e492d4c560bc1b815250816003908161008191906106f9565b50600461008e82826106f9565b5050600160055550600a80546001600160a01b038084166001600160a01b0319928316179092556006805492881692909116919091179055670de0b6b3a76400006009556100dc84846100f1565b6100e46103e0565b5060085550610809915050565b80518251146101525760405162461bcd60e51b815260206004820152602260248201527f41737365747320616e642077656967687473206c656e677468206d69736d61746044820152610c6d60f31b60648201526084015b60405180910390fd5b5f5b82518110156103db575f6001600160a01b0316838281518110610179576101796107b8565b60200260200101516001600160a01b0316036101d75760405162461bcd60e51b815260206004820152601560248201527f496e76616c6964206173736574206164647265737300000000000000000000006044820152606401610149565b5f8282815181106101ea576101ea6107b8565b6020026020010151116102305760405162461bcd60e51b815260206004820152600e60248201526d125b9d985b1a59081dd95a59da1d60921b6044820152606401610149565b6007604051806040016040528085848151811061024f5761024f6107b8565b60200260200101516001600160a01b03168152602001848481518110610277576102776107b8565b6020908102919091018101519091528254600180820185555f948552828520845160029093020180546001600160a01b0319166001600160a01b03909316929092178255929091015191015583518490839081106102d7576102d76107b8565b6020908102919091010151600654604051636eb1769f60e11b81523060048201526001600160a01b03918216602482015291925082169063dd62ed3e90604401602060405180830381865afa158015610332573d5f803e3d5ffd5b505050506040513d601f19601f8201168201806040525081019061035691906107cc565b5f036103d25760065460405163095ea7b360e01b81526001600160a01b0391821660048201525f1960248201529082169063095ea7b3906044016020604051808303815f875af11580156103ac573d5f803e3d5ffd5b505050506040513d601f19601f820116820180604052508101906103d091906107e3565b505b50600101610154565b505050565b5f5b60075481101561049f575f60078281548110610400576104006107b8565b5f9182526020822060029190910201546040516370a0823160e01b81523060048201526001600160a01b03909116925082906370a0823190602401602060405180830381865afa158015610456573d5f803e3d5ffd5b505050506040513d601f19601f8201168201806040525081019061047a91906107cc565b6001600160a01b039092165f908152600b6020526040902091909155506001016103e2565b50565b80516001600160a01b03811681146104b8575f80fd5b919050565b634e487b7160e01b5f52604160045260245ffd5b604051601f8201601f191681016001600160401b03811182821017156104f9576104f96104bd565b604052919050565b5f6001600160401b03821115610519576105196104bd565b5060051b60200190565b5f82601f830112610532575f80fd5b8151602061054761054283610501565b6104d1565b8083825260208201915060208460051b870101935086841115610568575f80fd5b602086015b84811015610584578051835291830191830161056d565b509695505050505050565b5f805f805f60a086880312156105a3575f80fd5b6105ac866104a2565b602087810151919650906001600160401b03808211156105ca575f80fd5b818901915089601f8301126105dd575f80fd5b81516105eb61054282610501565b81815260059190911b8301840190848101908c831115610609575f80fd5b938501935b8285101561062e5761061f856104a2565b8252938501939085019061060e565b60408c01519099509450505080831115610646575f80fd5b505061065488828901610523565b9350506060860151915061066a608087016104a2565b90509295509295909350565b600181811c9082168061068a57607f821691505b6020821081036106a857634e487b7160e01b5f52602260045260245ffd5b50919050565b601f8211156103db57805f5260205f20601f840160051c810160208510156106d35750805b601f840160051c820191505b818110156106f2575f81556001016106df565b5050505050565b81516001600160401b03811115610712576107126104bd565b610726816107208454610676565b846106ae565b602080601f831160018114610759575f84156107425750858301515b5f19600386901b1c1916600185901b1785556107b0565b5f85815260208120601f198616915b8281101561078757888601518255948401946001909101908401610768565b50858210156107a457878501515f19600388901b60f8161c191681555b505060018460011b0185555b505050505050565b634e487b7160e01b5f52603260045260245ffd5b5f602082840312156107dc575f80fd5b5051919050565b5f602082840312156107f3575f80fd5b81518015158114610802575f80fd5b9392505050565b613091806108165f395ff3fe608060405234801561000f575f80fd5b50600436106101c6575f3560e01c80636a627842116100fe57806395d89b411161009e578063d14ef46d1161006e578063d14ef46d14610398578063d66bd524146103ca578063dd62ed3e146103e9578063e73faa2d14610421575f80fd5b806395d89b4114610361578063a9059cbb14610369578063c2ee3a081461037c578063cf8fa76414610385575f80fd5b806377aace1a116100d957806377aace1a1461031c5780637fec8d381461032f57806389ab35321461033857806389afcb441461034e575f80fd5b80636a627842146102e35780636e81221c146102f657806370a0823114610309575f80fd5b806322acb867116101695780634aa06652116101445780634aa06652146102a05780635568081a146102b357806367a6c440146102c657806367e4ac2c146102ce575f80fd5b806322acb8671461027657806323b872dd1461027e578063313ce56714610291575f80fd5b80630902f1ac116101a45780630902f1ac14610224578063095ea7b31461023957806318160ddd1461025c5780631a6865021461026e575f80fd5b806301d22ccd146101ca57806306fdde03146101fa5780630723c9991461020f575b5f80fd5b6006546101dd906001600160a01b031681565b6040516001600160a01b0390911681526020015b60405180910390f35b610202610429565b6040516101f19190612b76565b61022261021d366004612bbf565b6104b9565b005b61022c610592565b6040516101f19190612c14565b61024c610247366004612c26565b610656565b60405190151581526020016101f1565b6002545b6040519081526020016101f1565b61026061066f565b61022c610680565b61024c61028c366004612c50565b610720565b604051601281526020016101f1565b6102606102ae366004612c50565b610745565b6102226102c1366004612bbf565b610a5f565b610260601e81565b6102d6610ae4565b6040516101f19190612cc6565b6102606102f1366004612bbf565b610b9f565b610260610304366004612cd8565b610fac565b610260610317366004612bbf565b611285565b600a546101dd906001600160a01b031681565b61026060085481565b61034061129f565b6040516101f1929190612d28565b61022261035c366004612bbf565b61145a565b610202611ad4565b61024c610377366004612c26565b611ae3565b61026060095481565b610260610393366004612d77565b611af0565b6103ab6103a6366004612d77565b611b65565b604080516001600160a01b0390931683526020830191909152016101f1565b6102606103d8366004612bbf565b600b6020525f908152604090205481565b6102606103f7366004612d8e565b6001600160a01b039182165f90815260016020908152604080832093909416825291909152205490565b610260611b9b565b60606003805461043890612dc5565b80601f016020809104026020016040519081016040528092919081815260200182805461046490612dc5565b80156104af5780601f10610486576101008083540402835291602001916104af565b820191905f5260205f20905b81548152906001019060200180831161049257829003601f168201915b5050505050905090565b5f806104c3611be3565b915091505f6104d28383611d4f565b90505f6104de82611e75565b90505f5b8251811015610537575f8382815181106104fe576104fe612df7565b6020026020010151111561052f5761052f8184838151811061052257610522612df7565b6020026020010151611eb1565b6001016104e2565b50610542858261202a565b61054a61205e565b336001600160a01b03167fa95ad530009c6f929555e70a66aadbeae7231e45756c5b028ca77fbaa376e73e836040516105839190612c14565b60405180910390a25050505050565b6007546060905f9067ffffffffffffffff8111156105b2576105b2612e0b565b6040519080825280602002602001820160405280156105db578160200160208202803683370190505b5090505f5b60075481101561065057600b5f6007838154811061060057610600612df7565b5f91825260208083206002909202909101546001600160a01b03168352820192909252604001902054825183908390811061063d5761063d612df7565b60209081029190910101526001016105e0565b50919050565b5f33610663818585612120565b60019150505b92915050565b5f80610679612132565b5092915050565b6007546060905f9067ffffffffffffffff8111156106a0576106a0612e0b565b6040519080825280602002602001820160405280156106c9578160200160208202803683370190505b5090505f5b60075481101561065057600781815481106106eb576106eb612df7565b905f5260205f2090600202016001015482828151811061070d5761070d612df7565b60209081029190910101526001016106ce565b5f3361072d858285612261565b6107388585856122dc565b60019150505b9392505050565b5f826001600160a01b0316846001600160a01b0316036107ac5760405162461bcd60e51b815260206004820152601a60248201527f43616e6e6f742073776170207468652073616d6520746f6b656e00000000000060448201526064015b60405180910390fd5b5f82116107fb5760405162461bcd60e51b815260206004820181905260248201527f416d6f756e74206d7573742062652067726561746572207468616e207a65726f60448201526064016107a3565b5f61271061080a601e85612e33565b6108149190612e4a565b90505f6108218285612e69565b90505f866001600160a01b031663313ce5676040518163ffffffff1660e01b8152600401602060405180830381865afa158015610860573d5f803e3d5ffd5b505050506040513d601f19601f820116820180604052508101906108849190612e7c565b90505f866001600160a01b031663313ce5676040518163ffffffff1660e01b8152600401602060405180830381865afa1580156108c3573d5f803e3d5ffd5b505050506040513d601f19601f820116820180604052508101906108e79190612e7c565b60065460405163802431fb60e01b81526001600160a01b038b811660048301528a811660248301525f604483018190529394509091169063802431fb90606401602060405180830381865afa925050508015610960575060408051601f3d908101601f1916820190925261095d91810190612e9c565b60015b610971575f9550505050505061073e565b90505f8061098085600a612f93565b90505f61098e85600a612f93565b90508061099b8386612e33565b6109a59190612e4a565b9350865f60ff88811690881614610a2e578660ff168860ff161115610a0d576109ce8789612fa1565b6109d990600a612f93565b94506109e58583612e4a565b91506109f287600a612f93565b6109fc8784612e33565b610a069190612e4a565b9050610a4e565b610a178888612fa1565b610a2290600a612f93565b94506109e58583612e33565b670de0b6b3a7640000610a418784612e33565b610a4b9190612e4a565b90505b9d9c50505050505050505050505050565b5f612710610a6c60025490565b610a78906103e8612e33565b610a829190612e4a565b905080610a8e83611285565b1015610ad05760405162461bcd60e51b8152602060048201526011602482015270556e646572203525204c5020736861726560781b60448201526064016107a3565b610ad8612339565b610ae061205e565b5050565b6007546060905f9067ffffffffffffffff811115610b0457610b04612e0b565b604051908082528060200260200182016040528015610b2d578160200160208202803683370190505b5090505f5b6007548110156106505760078181548110610b4f57610b4f612df7565b5f91825260209091206002909102015482516001600160a01b0390911690839083908110610b7f57610b7f612df7565b6001600160a01b0390921660209283029190910190910152600101610b32565b600a545f906001600160a01b03163314610bec5760405162461bcd60e51b815260206004820152600e60248201526d4f6e6c792050657269706865727960901b60448201526064016107a3565b5f610bf660025490565b90505f80610c02610592565b805160075491925014610c575760405162461bcd60e51b815260206004820152601760248201527f496e76616c6964207265736572766573206c656e67746800000000000000000060448201526064016107a3565b600754610c925760405162461bcd60e51b81526020600482015260096024820152684e6f2061737365747360b81b60448201526064016107a3565b5f5b600754811015610e1d575f60078281548110610cb257610cb2612df7565b5f9182526020822060029190910201546040516370a0823160e01b81523060048201526001600160a01b03909116925082906370a0823190602401602060405180830381865afa158015610d08573d5f803e3d5ffd5b505050506040513d601f19601f82011682018060405250810190610d2c9190612e9c565b90505f8111610d7d5760405162461bcd60e51b815260206004820152601e60248201527f42616c616e6365206d7573742062652067726561746572207468616e2030000060448201526064016107a3565b5f848481518110610d9057610d90612df7565b602002602001015182610da39190612e69565b90505f8111610df45760405162461bcd60e51b815260206004820152601d60248201527f416d6f756e74206d7573742062652067726561746572207468616e203000000060448201526064016107a3565b5f610dff848361252f565b9050610e0b8188612fba565b96505060019093019250610c94915050565b505f8211610e785760405162461bcd60e51b815260206004820152602260248201527f546f74616c2076616c7565206d7573742062652067726561746572207468616e604482015261020360f41b60648201526084016107a3565b5f835f03610e87575081610eac565b5f610e90612132565b50905080610e9e8686612e33565b610ea89190612e4a565b9150505b805f03610eeb5760405162461bcd60e51b815260206004820152600d60248201526c04d696e7420717479206973203609c1b60448201526064016107a3565b5f610ef533611285565b9050610f01878361202a565b5f81610f0c89611285565b610f169190612e69565b9050828114610f555760405162461bcd60e51b815260206004820152600b60248201526a135a5b9d0811985a5b195960aa1b60448201526064016107a3565b610f5d61205e565b876001600160a01b03167f0f6798a560793a54c3bcfe86a93cde1e73087d944c0ea20544137d412139688584604051610f9891815260200190565b60405180910390a250909695505050505050565b5f610fb56127cf565b836001600160a01b0316856001600160a01b0316036110165760405162461bcd60e51b815260206004820152601a60248201527f43616e6e6f742073776170207468652073616d6520746f6b656e00000000000060448201526064016107a3565b5f83116110655760405162461bcd60e51b815260206004820181905260248201527f416d6f756e74206d7573742062652067726561746572207468616e207a65726f60448201526064016107a3565b6040516323b872dd60e01b8152336004820152306024820152604481018490526001600160a01b038616906323b872dd906064016020604051808303815f875af11580156110b5573d5f803e3d5ffd5b505050506040513d601f19601f820116820180604052508101906110d99190612fcd565b505f6110e6868686610745565b6040516370a0823160e01b815230600482015290915081906001600160a01b038716906370a0823190602401602060405180830381865afa15801561112d573d5f803e3d5ffd5b505050506040513d601f19601f820116820180604052508101906111519190612e9c565b10156111985760405162461bcd60e51b8152602060048201526016602482015275496e73756666696369656e74204c697175696469747960501b60448201526064016107a3565b60405163a9059cbb60e01b81526001600160a01b0384811660048301526024820183905286169063a9059cbb906044016020604051808303815f875af11580156111e4573d5f803e3d5ffd5b505050506040513d601f19601f820116820180604052508101906112089190612fcd565b50846001600160a01b0316866001600160a01b0316846001600160a01b03167fcd3829a3813dc3cdd188fd3d01dcf3268c16be2fdd2dd21d0665418816e460628785604051611261929190918252602082015260400190565b60405180910390a461127161205e565b905061127d6001600555565b949350505050565b6001600160a01b03165f9081526020819052604090205490565b6060805f806112ac612132565b60075491935091508067ffffffffffffffff8111156112cd576112cd612e0b565b6040519080825280602002602001820160405280156112f6578160200160208202803683370190505b5094508067ffffffffffffffff81111561131257611312612e0b565b60405190808252806020026020018201604052801561133b578160200160208202803683370190505b5093505f5b81811015611452575f8484838151811061135c5761135c612df7565b60200260200101516127106113719190612e33565b61137b9190612e4a565b90505f6007838154811061139157611391612df7565b905f5260205f209060020201600101549050808211156113fc576113b58183612e69565b8784815181106113c7576113c7612df7565b60200260200101818152505060018884815181106113e7576113e7612df7565b91151560209283029190910190910152611448565b6114068282612e69565b87848151811061141857611418612df7565b6020026020010181815250505f88848151811061143757611437612df7565b911515602092830291909101909101525b5050600101611340565b505050509091565b600a546001600160a01b031633146114a55760405162461bcd60e51b815260206004820152600e60248201526d4f6e6c792050657269706865727960901b60448201526064016107a3565b5f6114af30611285565b90505f81116115005760405162461bcd60e51b815260206004820152601c60248201527f5368617265206d7573742062652067726561746572207468616e20300000000060448201526064016107a3565b5f61150a60025490565b90505f811161154a5760405162461bcd60e51b815260206004820152600c60248201526b4e6f206c697175696469747960a01b60448201526064016107a3565b6007545f9067ffffffffffffffff81111561156757611567612e0b565b604051908082528060200260200182016040528015611590578160200160208202803683370190505b5090505f6127106115a2601e86612e33565b6115ac9190612e4a565b90505f6115b98286612e69565b90505f5b60075481101561168f575f600782815481106115db576115db612df7565b5f9182526020909120600290910201546040516370a0823160e01b81523060048201526001600160a01b03909116906370a0823190602401602060405180830381865afa15801561162e573d5f803e3d5ffd5b505050506040513d601f19601f820116820180604052508101906116529190612e9c565b90508561165f8483612e33565b6116699190612e4a565b85838151811061167b5761167b612df7565b6020908102919091010152506001016115bd565b508061169a30611285565b10156116e15760405162461bcd60e51b8152602060048201526016602482015275496e73756666696369656e74206c697175696469747960501b60448201526064016107a3565b5f306001600160a01b031663a9059cbb60065f9054906101000a90046001600160a01b03166001600160a01b0316633b19e84a6040518163ffffffff1660e01b8152600401602060405180830381865afa158015611741573d5f803e3d5ffd5b505050506040513d601f19601f820116820180604052508101906117659190612fec565b6040516001600160e01b031960e084901b1681526001600160a01b039091166004820152602481018690526044016020604051808303815f875af11580156117af573d5f803e3d5ffd5b505050506040513d601f19601f820116820180604052508101906117d39190612fcd565b9050806118185760405162461bcd60e51b8152602060048201526013602482015272119959481d1c985b9cd9995c8819985a5b1959606a1b60448201526064016107a3565b8161182230611285565b10156118695760405162461bcd60e51b8152602060048201526016602482015275496e73756666696369656e74206c697175696469747960501b60448201526064016107a3565b61187330836127f9565b5f5b600754811015611a7f5784818151811061189157611891612df7565b6020026020010151600782815481106118ac576118ac612df7565b5f9182526020909120600290910201546040516370a0823160e01b81523060048201526001600160a01b03909116906370a0823190602401602060405180830381865afa1580156118ff573d5f803e3d5ffd5b505050506040513d601f19601f820116820180604052508101906119239190612e9c565b101561196a5760405162461bcd60e51b8152602060048201526016602482015275496e73756666696369656e74204c697175696469747960501b60448201526064016107a3565b5f6007828154811061197e5761197e612df7565b5f91825260209091206002909102015486516001600160a01b039091169063a9059cbb908b908990869081106119b6576119b6612df7565b60200260200101516040518363ffffffff1660e01b81526004016119ef9291906001600160a01b03929092168252602082015260400190565b6020604051808303815f875af1158015611a0b573d5f803e3d5ffd5b505050506040513d601f19601f82011682018060405250810190611a2f9190612fcd565b905080611a765760405162461bcd60e51b8152602060048201526015602482015274105cdcd95d081d1c985b9cd9995c8819985a5b1959605a1b60448201526064016107a3565b50600101611875565b50611a8861205e565b866001600160a01b03167fcc16f5dbb4873280815c1ee09dbd06736cffcc184412cf7a71a0fdb75d397ca583604051611ac391815260200190565b60405180910390a250505050505050565b60606004805461043890612dc5565b5f336106638185856122dc565b5f80611afa612132565b91505080518310611b435760405162461bcd60e51b8152602060048201526013602482015272092dcecc2d8d2c840c2e6e6cae840d2dcc8caf606b1b60448201526064016107a3565b808381518110611b5557611b55612df7565b6020026020010151915050919050565b60078181548110611b74575f80fd5b5f918252602090912060029091020180546001909101546001600160a01b03909116915082565b5f80611ba5612132565b5090505f611bb260025490565b9050805f03611bc3575f9250505090565b8060095483611bd29190612e33565b611bdc9190612e4a565b9250505090565b6007545f9060609067ffffffffffffffff811115611c0357611c03612e0b565b604051908082528060200260200182016040528015611c2c578160200160208202803683370190505b5090505f5b600754811015611d4a57611cfd60078281548110611c5157611c51612df7565b5f918252602090912060029091020154600780546001600160a01b039092169184908110611c8157611c81612df7565b5f9182526020909120600290910201546040516370a0823160e01b81523060048201526001600160a01b03909116906370a0823190602401602060405180830381865afa158015611cd4573d5f803e3d5ffd5b505050506040513d601f19601f82011682018060405250810190611cf89190612e9c565b61252f565b828281518110611d0f57611d0f612df7565b602002602001018181525050818181518110611d2d57611d2d612df7565b602002602001015183611d409190612fba565b9250600101611c31565b509091565b60075460609067ffffffffffffffff811115611d6d57611d6d612e0b565b604051908082528060200260200182016040528015611d96578160200160208202803683370190505b5090505f5b600754811015610679575f61271060078381548110611dbc57611dbc612df7565b905f5260205f2090600202016001015486611dd79190612e33565b611de19190612e4a565b905080848381518110611df657611df6612df7565b60200260200101511015611e4c57838281518110611e1657611e16612df7565b602002602001015181611e299190612e69565b838381518110611e3b57611e3b612df7565b602002602001018181525050611e6c565b5f838381518110611e5f57611e5f612df7565b6020026020010181815250505b50600101611d9b565b5f805b60075481101561065057828181518110611e9457611e94612df7565b602002602001015182611ea79190612fba565b9150600101611e78565b5f611ee760078481548110611ec857611ec8612df7565b5f9182526020909120600290910201546001600160a01b03168361282d565b90505f8111611f385760405162461bcd60e51b815260206004820152601b60248201527f496e76616c696420746f6b656e20616d6f756e7420746f20616464000000000060448201526064016107a3565b60078381548110611f4b57611f4b612df7565b5f9182526020909120600290910201546040516323b872dd60e01b8152336004820152306024820152604481018390526001600160a01b03909116906323b872dd906064016020604051808303815f875af1158015611fac573d5f803e3d5ffd5b505050506040513d601f19601f82011682018060405250810190611fd09190612fcd565b5080600b5f60078681548110611fe857611fe8612df7565b5f91825260208083206002909202909101546001600160a01b0316835282019290925260400181208054909190612020908490612fba565b9091555050505050565b6001600160a01b0382166120535760405163ec442f0560e01b81525f60048201526024016107a3565b610ae05f838361294d565b5f5b60075481101561211d575f6007828154811061207e5761207e612df7565b5f9182526020822060029190910201546040516370a0823160e01b81523060048201526001600160a01b03909116925082906370a0823190602401602060405180830381865afa1580156120d4573d5f803e3d5ffd5b505050506040513d601f19601f820116820180604052508101906120f89190612e9c565b6001600160a01b039092165f908152600b602052604090209190915550600101612060565b50565b61212d8383836001612a73565b505050565b6007545f906060908067ffffffffffffffff81111561215357612153612e0b565b60405190808252806020026020018201604052801561217c578160200160208202803683370190505b5091505f5b8181101561225b575f6007828154811061219d5761219d612df7565b905f5260205f2090600202015f015f9054906101000a90046001600160a01b031690505f61220982600b5f600787815481106121db576121db612df7565b5f91825260208083206002909202909101546001600160a01b0316835282019290925260400190205461252f565b90508085848151811061221e5761221e612df7565b60200260200101818152505084838151811061223c5761223c612df7565b60200260200101518661224f9190612fba565b95505050600101612181565b50509091565b6001600160a01b038381165f908152600160209081526040808320938616835292905220545f1981146122d657818110156122c857604051637dc7a0d960e11b81526001600160a01b038416600482015260248101829052604481018390526064016107a3565b6122d684848484035f612a73565b50505050565b6001600160a01b03831661230557604051634b637e8f60e11b81525f60048201526024016107a3565b6001600160a01b03821661232e5760405163ec442f0560e01b81525f60048201526024016107a3565b61212d83838361294d565b6007545f9067ffffffffffffffff81111561235657612356612e0b565b60405190808252806020026020018201604052801561237f578160200160208202803683370190505b506007549091505f9067ffffffffffffffff8111156123a0576123a0612e0b565b6040519080825280602002602001820160405280156123c9578160200160208202803683370190505b5090505f5b60075481101561248357600781815481106123eb576123eb612df7565b5f91825260209091206002909102015483516001600160a01b039091169084908390811061241b5761241b612df7565b60200260200101906001600160a01b031690816001600160a01b0316815250506007818154811061244e5761244e612df7565b905f5260205f2090600202016001015482828151811061247057612470612df7565b60209081029190910101526001016123ce565b506006546008546040516384db1dfb60e01b81526001600160a01b03909216916384db1dfb916124bd918691869130918291600401613007565b5f604051808303815f87803b1580156124d4575f80fd5b505af11580156124e6573d5f803e3d5ffd5b50505050336001600160a01b03167f279b343370f587af7fb675ae7c8578e9c8abcc373236ad02c501a4771fe7a7b8836040516125239190612cc6565b60405180910390a25050565b5f805f60065f9054906101000a90046001600160a01b03166001600160a01b031663956fb5106040518163ffffffff1660e01b8152600401602060405180830381865afa158015612582573d5f803e3d5ffd5b505050506040513d601f19601f820116820180604052508101906125a69190612fec565b90505f856001600160a01b031663313ce5676040518163ffffffff1660e01b8152600401602060405180830381865afa1580156125e5573d5f803e3d5ffd5b505050506040513d601f19601f820116820180604052508101906126099190612e7c565b90505f826001600160a01b031663313ce5676040518163ffffffff1660e01b8152600401602060405180830381865afa158015612648573d5f803e3d5ffd5b505050506040513d601f19601f8201168201806040525081019061266c9190612e7c565b6006546040516307de4fd160e41b81526001600160a01b038a811660048301525f6024830152929350911690637de4fd1090604401602060405180830381865afa9250505080156126da575060408051601f3d908101601f191682019092526126d791810190612e9c565b60015b6126ea575f945050505050610669565b93505f806126f984600a612f93565b6009549091508061270a8389612e33565b6127149190612e4a565b96508360ff168560ff161461277a5761272d8585612b45565b6127378686612b61565b6127419190612fa1565b61274f9060ff16600a613050565b92508360ff168560ff16111561277057612769838a612e4a565b98506127aa565b612769838a612e33565b8460ff166012146127aa57612790856012612fa1565b61279b90600a612f93565b92506127a7838a612e33565b98505b6009546127b7888b612e33565b6127c19190612e4a565b9a9950505050505050505050565b6002600554036127f257604051633ee5aeb560e01b815260040160405180910390fd5b6002600555565b6001600160a01b03821661282257604051634b637e8f60e11b81525f60048201526024016107a3565b610ae0825f8361294d565b5f805f60065f9054906101000a90046001600160a01b03166001600160a01b031663956fb5106040518163ffffffff1660e01b8152600401602060405180830381865afa158015612880573d5f803e3d5ffd5b505050506040513d601f19601f820116820180604052508101906128a49190612fec565b60065460405163802431fb60e01b81526001600160a01b03808416600483015288811660248301525f604483015292935091169063802431fb90606401602060405180830381865afa92505050801561291a575060408051601f3d908101601f1916820190925261291791810190612e9c565b60015b612928575f92505050610669565b91506009545f906129398487612e33565b6129439190612e4a565b9695505050505050565b6001600160a01b038316612977578060025f82825461296c9190612fba565b909155506129e79050565b6001600160a01b0383165f90815260208190526040902054818110156129c95760405163391434e360e21b81526001600160a01b038516600482015260248101829052604481018390526064016107a3565b6001600160a01b0384165f9081526020819052604090209082900390555b6001600160a01b038216612a0357600280548290039055612a21565b6001600160a01b0382165f9081526020819052604090208054820190555b816001600160a01b0316836001600160a01b03167fddf252ad1be2c89b69c2b068fc378daa952ba7f163c4a11628f55a4df523b3ef83604051612a6691815260200190565b60405180910390a3505050565b6001600160a01b038416612a9c5760405163e602df0560e01b81525f60048201526024016107a3565b6001600160a01b038316612ac557604051634a1406b160e11b81525f60048201526024016107a3565b6001600160a01b038085165f90815260016020908152604080832093871683529290522082905580156122d657826001600160a01b0316846001600160a01b03167f8c5be1e5ebec7d5bd14f71427d1e84f3dd0314c0f7b2291e5b200ac8c7c3b92584604051612b3791815260200190565b60405180910390a350505050565b5f8160ff168360ff161115612b5a578161073e565b5090919050565b5f8160ff168360ff161015612b5a578161073e565b602081525f82518060208401528060208501604085015e5f604082850101526040601f19601f83011684010191505092915050565b6001600160a01b038116811461211d575f80fd5b5f60208284031215612bcf575f80fd5b813561073e81612bab565b5f815180845260208085019450602084015f5b83811015612c0957815187529582019590820190600101612bed565b509495945050505050565b602081525f61073e6020830184612bda565b5f8060408385031215612c37575f80fd5b8235612c4281612bab565b946020939093013593505050565b5f805f60608486031215612c62575f80fd5b8335612c6d81612bab565b92506020840135612c7d81612bab565b929592945050506040919091013590565b5f815180845260208085019450602084015f5b83811015612c095781516001600160a01b031687529582019590820190600101612ca1565b602081525f61073e6020830184612c8e565b5f805f8060808587031215612ceb575f80fd5b8435612cf681612bab565b93506020850135612d0681612bab565b9250604085013591506060850135612d1d81612bab565b939692955090935050565b604080825283519082018190525f906020906060840190828701845b82811015612d62578151151584529284019290840190600101612d44565b50505083810360208501526129438186612bda565b5f60208284031215612d87575f80fd5b5035919050565b5f8060408385031215612d9f575f80fd5b8235612daa81612bab565b91506020830135612dba81612bab565b809150509250929050565b600181811c90821680612dd957607f821691505b60208210810361065057634e487b7160e01b5f52602260045260245ffd5b634e487b7160e01b5f52603260045260245ffd5b634e487b7160e01b5f52604160045260245ffd5b634e487b7160e01b5f52601160045260245ffd5b808202811582820484141761066957610669612e1f565b5f82612e6457634e487b7160e01b5f52601260045260245ffd5b500490565b8181038181111561066957610669612e1f565b5f60208284031215612e8c575f80fd5b815160ff8116811461073e575f80fd5b5f60208284031215612eac575f80fd5b5051919050565b600181815b80851115612eed57815f1904821115612ed357612ed3612e1f565b80851615612ee057918102915b93841c9390800290612eb8565b509250929050565b5f82612f0357506001610669565b81612f0f57505f610669565b8160018114612f255760028114612f2f57612f4b565b6001915050610669565b60ff841115612f4057612f40612e1f565b50506001821b610669565b5060208310610133831016604e8410600b8410161715612f6e575081810a610669565b612f788383612eb3565b805f1904821115612f8b57612f8b612e1f565b029392505050565b5f61073e60ff841683612ef5565b60ff828116828216039081111561066957610669612e1f565b8082018082111561066957610669612e1f565b5f60208284031215612fdd575f80fd5b8151801515811461073e575f80fd5b5f60208284031215612ffc575f80fd5b815161073e81612bab565b60a081525f61301960a0830188612c8e565b828103602084015261302b8188612bda565b6001600160a01b03968716604085015294909516606083015250608001529392505050565b5f61073e8383612ef556fea26469706673582212200e98ba5ff38c46156e74b0e88d6caa94ea594a6f50e414d22a25c39e853cee3464736f6c63430008190033",
    "sourcePath": "c:/Users/Utente/Source/repos/baluni-contracts/contracts/BaluniV1Pool.sol",
    "compiler": {
        "name": "solc",
        "version": "0.8.25+commit.b61c2a91"
    },
    "functionHashes": {
        "ONE()": "c2ee3a08",
        "SWAP_FEE_BPS()": "67a6c440",
        "allowance(address,address)": "dd62ed3e",
        "approve(address,uint256)": "095ea7b3",
        "assetInfos(uint256)": "d14ef46d",
        "assetLiquidity(uint256)": "cf8fa764",
        "balanceOf(address)": "70a08231",
        "burn(address)": "89afcb44",
        "decimals()": "313ce567",
        "getAmountOut(address,address,uint256)": "4aa06652",
        "getAssets()": "67e4ac2c",
        "getDeviation()": "89ab3532",
        "getReserves()": "0902f1ac",
        "getWeights()": "22acb867",
        "liquidity()": "1a686502",
        "mint(address)": "6a627842",
        "name()": "06fdde03",
        "performRebalanceIfNeeded(address)": "5568081a",
        "periphery()": "77aace1a",
        "rebalanceWeights(address)": "0723c999",
        "rebalancer()": "01d22ccd",
        "reserves(address)": "d66bd524",
        "swap(address,address,uint256,address)": "6e81221c",
        "symbol()": "95d89b41",
        "totalSupply()": "18160ddd",
        "transfer(address,uint256)": "a9059cbb",
        "transferFrom(address,address,uint256)": "23b872dd",
        "trigger()": "7fec8d38",
        "unitPrice()": "e73faa2d"
    },
    "gasEstimates": {
        "creation": {
            "codeDepositCost": "2486600",
            "executionCost": "infinite",
            "totalCost": "infinite"
        },
        "external": {
            "ONE()": "2383",
            "SWAP_FEE_BPS()": "283",
            "allowance(address,address)": "infinite",
            "approve(address,uint256)": "24774",
            "assetInfos(uint256)": "6814",
            "assetLiquidity(uint256)": "infinite",
            "balanceOf(address)": "2633",
            "burn(address)": "infinite",
            "decimals()": "266",
            "getAmountOut(address,address,uint256)": "infinite",
            "getAssets()": "infinite",
            "getDeviation()": "infinite",
            "getReserves()": "infinite",
            "getWeights()": "infinite",
            "liquidity()": "infinite",
            "mint(address)": "infinite",
            "name()": "infinite",
            "performRebalanceIfNeeded(address)": "infinite",
            "periphery()": "2370",
            "rebalanceWeights(address)": "infinite",
            "rebalancer()": "2372",
            "reserves(address)": "2576",
            "swap(address,address,uint256,address)": "infinite",
            "symbol()": "infinite",
            "totalSupply()": "2370",
            "transfer(address,uint256)": "51277",
            "transferFrom(address,address,uint256)": "infinite",
            "trigger()": "2361",
            "unitPrice()": "infinite"
        },
        "internal": {
            "_calculateAmountsToAdd(uint256,uint256[] memory)": "infinite",
            "_calculateTotalAddedLiquidity(uint256[] memory)": "infinite",
            "_computeTotalValuation()": "infinite",
            "_computeValuations()": "infinite",
            "_convertNativeToToken(address,uint256)": "infinite",
            "_convertTokenToNative(address,uint256)": "infinite",
            "_performRebalanceIfNeeded()": "infinite",
            "_transferAndCalculateLiquidity(uint256,uint256)": "infinite",
            "_updateReserves()": "infinite",
            "initializeAssets(address[] memory,uint256[] memory)": "infinite",
            "max(uint8,uint8)": "75",
            "min(uint8,uint8)": "75"
        }
    }
}