{
    "contractName": "BaluniV1PoolFactory",
    "abi": [
        {
            "inputs": [
                {
                    "internalType": "address",
                    "name": "target",
                    "type": "address"
                }
            ],
            "name": "AddressEmptyCode",
            "type": "error"
        },
        {
            "inputs": [
                {
                    "internalType": "address",
                    "name": "implementation",
                    "type": "address"
                }
            ],
            "name": "ERC1967InvalidImplementation",
            "type": "error"
        },
        {
            "inputs": [],
            "name": "ERC1967NonPayable",
            "type": "error"
        },
        {
            "inputs": [],
            "name": "FailedInnerCall",
            "type": "error"
        },
        {
            "inputs": [],
            "name": "InvalidInitialization",
            "type": "error"
        },
        {
            "inputs": [],
            "name": "NotInitializing",
            "type": "error"
        },
        {
            "inputs": [
                {
                    "internalType": "address",
                    "name": "owner",
                    "type": "address"
                }
            ],
            "name": "OwnableInvalidOwner",
            "type": "error"
        },
        {
            "inputs": [
                {
                    "internalType": "address",
                    "name": "account",
                    "type": "address"
                }
            ],
            "name": "OwnableUnauthorizedAccount",
            "type": "error"
        },
        {
            "inputs": [],
            "name": "UUPSUnauthorizedCallContext",
            "type": "error"
        },
        {
            "inputs": [
                {
                    "internalType": "bytes32",
                    "name": "slot",
                    "type": "bytes32"
                }
            ],
            "name": "UUPSUnsupportedProxiableUUID",
            "type": "error"
        },
        {
            "anonymous": false,
            "inputs": [
                {
                    "indexed": false,
                    "internalType": "uint64",
                    "name": "version",
                    "type": "uint64"
                }
            ],
            "name": "Initialized",
            "type": "event"
        },
        {
            "anonymous": false,
            "inputs": [
                {
                    "indexed": true,
                    "internalType": "address",
                    "name": "previousOwner",
                    "type": "address"
                },
                {
                    "indexed": true,
                    "internalType": "address",
                    "name": "newOwner",
                    "type": "address"
                }
            ],
            "name": "OwnershipTransferred",
            "type": "event"
        },
        {
            "anonymous": false,
            "inputs": [
                {
                    "indexed": true,
                    "internalType": "address",
                    "name": "pool",
                    "type": "address"
                },
                {
                    "indexed": false,
                    "internalType": "address[]",
                    "name": "assets",
                    "type": "address[]"
                },
                {
                    "indexed": false,
                    "internalType": "address",
                    "name": "rebalancer",
                    "type": "address"
                }
            ],
            "name": "PoolCreated",
            "type": "event"
        },
        {
            "anonymous": false,
            "inputs": [
                {
                    "indexed": true,
                    "internalType": "address",
                    "name": "implementation",
                    "type": "address"
                }
            ],
            "name": "Upgraded",
            "type": "event"
        },
        {
            "inputs": [],
            "name": "UPGRADE_INTERFACE_VERSION",
            "outputs": [
                {
                    "internalType": "string",
                    "name": "",
                    "type": "string"
                }
            ],
            "stateMutability": "view",
            "type": "function"
        },
        {
            "inputs": [
                {
                    "internalType": "uint256",
                    "name": "",
                    "type": "uint256"
                }
            ],
            "name": "allPools",
            "outputs": [
                {
                    "internalType": "address",
                    "name": "",
                    "type": "address"
                }
            ],
            "stateMutability": "view",
            "type": "function"
        },
        {
            "inputs": [
                {
                    "internalType": "address",
                    "name": "rebalancer",
                    "type": "address"
                },
                {
                    "internalType": "address[]",
                    "name": "assets",
                    "type": "address[]"
                },
                {
                    "internalType": "uint256[]",
                    "name": "weights",
                    "type": "uint256[]"
                },
                {
                    "internalType": "uint256",
                    "name": "trigger",
                    "type": "uint256"
                }
            ],
            "name": "createPool",
            "outputs": [
                {
                    "internalType": "address",
                    "name": "",
                    "type": "address"
                }
            ],
            "stateMutability": "nonpayable",
            "type": "function"
        },
        {
            "inputs": [],
            "name": "getAllPools",
            "outputs": [
                {
                    "internalType": "address[]",
                    "name": "",
                    "type": "address[]"
                }
            ],
            "stateMutability": "view",
            "type": "function"
        },
        {
            "inputs": [
                {
                    "internalType": "address",
                    "name": "",
                    "type": "address"
                },
                {
                    "internalType": "address",
                    "name": "",
                    "type": "address"
                }
            ],
            "name": "getPool",
            "outputs": [
                {
                    "internalType": "address",
                    "name": "",
                    "type": "address"
                }
            ],
            "stateMutability": "view",
            "type": "function"
        },
        {
            "inputs": [
                {
                    "internalType": "address",
                    "name": "poolAddress",
                    "type": "address"
                }
            ],
            "name": "getPoolAssets",
            "outputs": [
                {
                    "internalType": "address[]",
                    "name": "",
                    "type": "address[]"
                }
            ],
            "stateMutability": "view",
            "type": "function"
        },
        {
            "inputs": [
                {
                    "internalType": "address",
                    "name": "asset1",
                    "type": "address"
                },
                {
                    "internalType": "address",
                    "name": "asset2",
                    "type": "address"
                }
            ],
            "name": "getPoolByAssets",
            "outputs": [
                {
                    "internalType": "address",
                    "name": "",
                    "type": "address"
                }
            ],
            "stateMutability": "view",
            "type": "function"
        },
        {
            "inputs": [
                {
                    "internalType": "address",
                    "name": "token",
                    "type": "address"
                }
            ],
            "name": "getPoolsByAsset",
            "outputs": [
                {
                    "internalType": "address[]",
                    "name": "",
                    "type": "address[]"
                }
            ],
            "stateMutability": "view",
            "type": "function"
        },
        {
            "inputs": [],
            "name": "getPoolsCount",
            "outputs": [
                {
                    "internalType": "uint256",
                    "name": "",
                    "type": "uint256"
                }
            ],
            "stateMutability": "view",
            "type": "function"
        },
        {
            "inputs": [],
            "name": "initialize",
            "outputs": [],
            "stateMutability": "nonpayable",
            "type": "function"
        },
        {
            "inputs": [],
            "name": "owner",
            "outputs": [
                {
                    "internalType": "address",
                    "name": "",
                    "type": "address"
                }
            ],
            "stateMutability": "view",
            "type": "function"
        },
        {
            "inputs": [],
            "name": "proxiableUUID",
            "outputs": [
                {
                    "internalType": "bytes32",
                    "name": "",
                    "type": "bytes32"
                }
            ],
            "stateMutability": "view",
            "type": "function"
        },
        {
            "inputs": [
                {
                    "internalType": "uint64",
                    "name": "_version",
                    "type": "uint64"
                }
            ],
            "name": "reinitialize",
            "outputs": [],
            "stateMutability": "nonpayable",
            "type": "function"
        },
        {
            "inputs": [],
            "name": "renounceOwnership",
            "outputs": [],
            "stateMutability": "nonpayable",
            "type": "function"
        },
        {
            "inputs": [
                {
                    "internalType": "address",
                    "name": "newOwner",
                    "type": "address"
                }
            ],
            "name": "transferOwnership",
            "outputs": [],
            "stateMutability": "nonpayable",
            "type": "function"
        },
        {
            "inputs": [
                {
                    "internalType": "address",
                    "name": "newImplementation",
                    "type": "address"
                },
                {
                    "internalType": "bytes",
                    "name": "data",
                    "type": "bytes"
                }
            ],
            "name": "upgradeToAndCall",
            "outputs": [],
            "stateMutability": "payable",
            "type": "function"
        }
    ],
    "bytecode": "60a0604052306080523480156012575f80fd5b5060805161497e6100395f395f8181610d4a01528181610d730152610eb7015261497e5ff3fe6080604052600436106100ef575f3560e01c80638129fc1c11610087578063b4340e6a11610057578063b4340e6a146102cf578063b4ac6860146102ee578063d88ff1f414610301578063f2fde38b14610315575f80fd5b80638129fc1c146102235780638da5cb5b146102375780639a1b97df14610273578063ad3cb1cc14610292575f80fd5b806352d1902d116100c257806352d1902d1461018f578063531aa03e146101b157806361c8f67d146101f0578063715018a61461020f575f80fd5b80632d5e94a7146100f357806341d1de971461012f5780634276b97b1461014e5780634f1ef2861461017a575b5f80fd5b3480156100fe575f80fd5b5061011261010d366004611219565b610334565b6040516001600160a01b0390911681526020015b60405180910390f35b34801561013a575f80fd5b50610112610149366004611250565b610362565b348015610159575f80fd5b5061016d610168366004611267565b610389565b60405161012691906112c5565b61018d61018836600461131c565b6103f8565b005b34801561019a575f80fd5b506101a3610417565b604051908152602001610126565b3480156101bc575f80fd5b506101126101cb366004611219565b600160209081525f92835260408084209091529082529020546001600160a01b031681565b3480156101fb575f80fd5b5061011261020a36600461144d565b610432565b34801561021a575f80fd5b5061018d610883565b34801561022e575f80fd5b5061018d610896565b348015610242575f80fd5b507f9016d09d72d40fdae2fd8ceac6b6234c7706214fd39c1cd1e609a0528c199300546001600160a01b0316610112565b34801561027e575f80fd5b5061018d61028d366004611524565b6109ab565b34801561029d575f80fd5b506102c2604051806040016040528060058152602001640352e302e360dc1b81525081565b604051610126919061154b565b3480156102da575f80fd5b5061016d6102e9366004611267565b610a75565b3480156102f9575f80fd5b505f546101a3565b34801561030c575f80fd5b5061016d610ca3565b348015610320575f80fd5b5061018d61032f366004611267565b610d02565b6001600160a01b038083165f9081526001602090815260408083208585168452909152902054165b92915050565b5f8181548110610370575f80fd5b5f918252602090912001546001600160a01b0316905081565b60605f829050806001600160a01b03166367e4ac2c6040518163ffffffff1660e01b81526004015f60405180830381865afa1580156103ca573d5f803e3d5ffd5b505050506040513d5f823e601f3d908101601f191682016040526103f19190810190611580565b9392505050565b610400610d3f565b61040982610de3565b6104138282610deb565b5050565b5f610420610eac565b505f8051602061492983398151915290565b5f61043b610ef5565b6001600160a01b0385166104a05760405162461bcd60e51b815260206004820152602160248201527f526562616c616e63657220616464726573732063616e6e6f74206265207a65726044820152606f60f81b60648201526084015b60405180910390fd5b60018451116104f15760405162461bcd60e51b815260206004820181905260248201527f4174206c656173742074776f20617373657473206172652072657175697265646044820152606401610497565b825184511461054d5760405162461bcd60e51b815260206004820152602260248201527f41737365747320616e642077656967687473206c656e677468206d69736d61746044820152610c6d60f31b6064820152608401610497565b5f5b8451811015610658575f610564826001611629565b90505b855181101561064f575f6001600160a01b031660015f88858151811061058f5761058f61163c565b60200260200101516001600160a01b03166001600160a01b031681526020019081526020015f205f8884815181106105c9576105c961163c565b6020908102919091018101516001600160a01b039081168352908201929092526040015f205416146106475760405162461bcd60e51b815260206004820152602160248201527f506f6f6c20616c72656164792065786973747320666f722074686973207061696044820152603960f91b6064820152608401610497565b600101610567565b5060010161054f565b505f8585858560405161066a906111f8565b6106779493929190611650565b604051809103905ff080158015610690573d5f803e3d5ffd5b505f80546001810182558180527f290decd9548b62a8d60345a988386fc84ba6bc95484008f6362f93160ef3e5630180546001600160a01b0319166001600160a01b03841617905590915081905b8651811015610835575f6106f3826001611629565b90505b875181101561082c578260015f8a85815181106107155761071561163c565b60200260200101516001600160a01b03166001600160a01b031681526020019081526020015f205f8a848151811061074f5761074f61163c565b60200260200101516001600160a01b03166001600160a01b031681526020019081526020015f205f6101000a8154816001600160a01b0302191690836001600160a01b031602179055508260015f8a84815181106107af576107af61163c565b60200260200101516001600160a01b03166001600160a01b031681526020019081526020015f205f8a85815181106107e9576107e961163c565b6020908102919091018101516001600160a01b039081168352908201929092526040015f2080546001600160a01b031916929091169190911790556001016106f6565b506001016106de565b50806001600160a01b03167f93de7d9de9f3e05ba87a0170fcbb71af623439caf5e5079587b9d38c5da9b0d187896040516108719291906116be565b60405180910390a29695505050505050565b61088b610ef5565b6108945f610f50565b565b7ff0c57e16840df040f15088dc2f81fe391c3923bec73e23a9662efc9c229c6a008054600160401b810460ff16159067ffffffffffffffff165f811580156108db5750825b90505f8267ffffffffffffffff1660011480156108f75750303b155b905081158015610905575080155b156109235760405163f92ee8a960e01b815260040160405180910390fd5b845467ffffffffffffffff19166001178555831561094d57845460ff60401b1916600160401b1785555b610955610fc0565b61095e33610fc8565b83156109a457845460ff60401b19168555604051600181527fc7f505b2f371ae2175ee4913f4499e1f2633a7b5936321eed1cdaeb6115181d29060200160405180910390a15b5050505050565b7ff0c57e16840df040f15088dc2f81fe391c3923bec73e23a9662efc9c229c6a008054829190600160401b900460ff16806109f45750805467ffffffffffffffff808416911610155b15610a125760405163f92ee8a960e01b815260040160405180910390fd5b805468ffffffffffffffffff191667ffffffffffffffff8316908117600160401b1760ff60401b191682556040519081527fc7f505b2f371ae2175ee4913f4499e1f2633a7b5936321eed1cdaeb6115181d29060200160405180910390a1505050565b5f80546060919067ffffffffffffffff811115610a9457610a946112d7565b604051908082528060200260200182016040528015610abd578160200160208202803683370190505b5090505f805b5f54811015610bfd575f808281548110610adf57610adf61163c565b905f5260205f20015f9054906101000a90046001600160a01b031690505f816001600160a01b03166367e4ac2c6040518163ffffffff1660e01b81526004015f60405180830381865afa158015610b38573d5f803e3d5ffd5b505050506040513d5f823e601f3d908101601f19168201604052610b5f9190810190611580565b90505f5b8151811015610be357876001600160a01b0316828281518110610b8857610b8861163c565b60200260200101516001600160a01b031603610bdb5782868681518110610bb157610bb161163c565b6001600160a01b039092166020928302919091019091015284610bd3816116e7565b955050610be3565b600101610b63565b5084518403610bf3575050610bfd565b5050600101610ac3565b505f8167ffffffffffffffff811115610c1857610c186112d7565b604051908082528060200260200182016040528015610c41578160200160208202803683370190505b5090505f5b82811015610c9a57838181518110610c6057610c6061163c565b6020026020010151828281518110610c7a57610c7a61163c565b6001600160a01b0390921660209283029190910190910152600101610c46565b50949350505050565b60605f805480602002602001604051908101604052809291908181526020018280548015610cf857602002820191905f5260205f20905b81546001600160a01b03168152600190910190602001808311610cda575b5050505050905090565b610d0a610ef5565b6001600160a01b038116610d3357604051631e4fbdf760e01b81525f6004820152602401610497565b610d3c81610f50565b50565b306001600160a01b037f0000000000000000000000000000000000000000000000000000000000000000161480610dc557507f00000000000000000000000000000000000000000000000000000000000000006001600160a01b0316610db95f80516020614929833981519152546001600160a01b031690565b6001600160a01b031614155b156108945760405163703e46dd60e11b815260040160405180910390fd5b610d3c610ef5565b816001600160a01b03166352d1902d6040518163ffffffff1660e01b8152600401602060405180830381865afa925050508015610e45575060408051601f3d908101601f19168201909252610e42918101906116ff565b60015b610e6d57604051634c9c8ce360e01b81526001600160a01b0383166004820152602401610497565b5f805160206149298339815191528114610e9d57604051632a87526960e21b815260048101829052602401610497565b610ea78383610fd9565b505050565b306001600160a01b037f000000000000000000000000000000000000000000000000000000000000000016146108945760405163703e46dd60e11b815260040160405180910390fd5b33610f277f9016d09d72d40fdae2fd8ceac6b6234c7706214fd39c1cd1e609a0528c199300546001600160a01b031690565b6001600160a01b0316146108945760405163118cdaa760e01b8152336004820152602401610497565b7f9016d09d72d40fdae2fd8ceac6b6234c7706214fd39c1cd1e609a0528c19930080546001600160a01b031981166001600160a01b03848116918217845560405192169182907f8be0079c531659141344cd1fd0a4f28419497f9722a3daafe3b4186f6b6457e0905f90a3505050565b61089461102e565b610fd061102e565b610d3c81611077565b610fe28261107f565b6040516001600160a01b038316907fbc7cd75a20ee27fd9adebab32041f755214dbc6bffa90cc0225b39da2e5c2d3b905f90a280511561102657610ea782826110e2565b610413611154565b7ff0c57e16840df040f15088dc2f81fe391c3923bec73e23a9662efc9c229c6a0054600160401b900460ff1661089457604051631afcd79f60e31b815260040160405180910390fd5b610d0a61102e565b806001600160a01b03163b5f036110b457604051634c9c8ce360e01b81526001600160a01b0382166004820152602401610497565b5f8051602061492983398151915280546001600160a01b0319166001600160a01b0392909216919091179055565b60605f80846001600160a01b0316846040516110fe9190611716565b5f60405180830381855af49150503d805f8114611136576040519150601f19603f3d011682016040523d82523d5f602084013e61113b565b606091505b509150915061114b858383611173565b95945050505050565b34156108945760405163b398979f60e01b815260040160405180910390fd5b60608261118857611183826111cf565b6103f1565b815115801561119f57506001600160a01b0384163b155b156111c857604051639996b31560e01b81526001600160a01b0385166004820152602401610497565b5092915050565b8051156111df5780518082602001fd5b604051630a12f52160e11b815260040160405180910390fd5b6131fc8061172d83390190565b6001600160a01b0381168114610d3c575f80fd5b5f806040838503121561122a575f80fd5b823561123581611205565b9150602083013561124581611205565b809150509250929050565b5f60208284031215611260575f80fd5b5035919050565b5f60208284031215611277575f80fd5b81356103f181611205565b5f815180845260208085019450602084015f5b838110156112ba5781516001600160a01b031687529582019590820190600101611295565b509495945050505050565b602081525f6103f16020830184611282565b634e487b7160e01b5f52604160045260245ffd5b604051601f8201601f1916810167ffffffffffffffff81118282101715611314576113146112d7565b604052919050565b5f806040838503121561132d575f80fd5b823561133881611205565b915060208381013567ffffffffffffffff80821115611355575f80fd5b818601915086601f830112611368575f80fd5b81358181111561137a5761137a6112d7565b61138c601f8201601f191685016112eb565b915080825287848285010111156113a1575f80fd5b80848401858401375f848284010152508093505050509250929050565b5f67ffffffffffffffff8211156113d7576113d76112d7565b5060051b60200190565b5f82601f8301126113f0575f80fd5b81356020611405611400836113be565b6112eb565b8083825260208201915060208460051b870101935086841115611426575f80fd5b602086015b84811015611442578035835291830191830161142b565b509695505050505050565b5f805f8060808587031215611460575f80fd5b843561146b81611205565b935060208581013567ffffffffffffffff80821115611488575f80fd5b818801915088601f83011261149b575f80fd5b81356114a9611400826113be565b81815260059190911b8301840190848101908b8311156114c7575f80fd5b938501935b828510156114ee5784356114df81611205565b825293850193908501906114cc565b975050506040880135925080831115611505575f80fd5b5050611513878288016113e1565b949793965093946060013593505050565b5f60208284031215611534575f80fd5b813567ffffffffffffffff811681146103f1575f80fd5b602081525f82518060208401528060208501604085015e5f604082850101526040601f19601f83011684010191505092915050565b5f6020808385031215611591575f80fd5b825167ffffffffffffffff8111156115a7575f80fd5b8301601f810185136115b7575f80fd5b80516115c5611400826113be565b81815260059190911b820183019083810190878311156115e3575f80fd5b928401925b8284101561160a5783516115fb81611205565b825292840192908401906115e8565b979650505050505050565b634e487b7160e01b5f52601160045260245ffd5b8082018082111561035c5761035c611615565b634e487b7160e01b5f52603260045260245ffd5b6001600160a01b0385168152608060208083018290525f9161167490840187611282565b8381036040850152855180825260208088019201905f5b818110156116a75783518352928401929184019160010161168b565b505080935050505082606083015295945050505050565b604081525f6116d06040830185611282565b905060018060a01b03831660208301529392505050565b5f600182016116f8576116f8611615565b5060010190565b5f6020828403121561170f575f80fd5b5051919050565b5f82518060208501845e5f92019182525091905056fe608060405234801561000f575f80fd5b506040516131fc3803806131fc83398101604081905261002e9161049d565b60405180604001604052806009815260200168042616c756e69204c560bc1b81525060405180604001604052806009815260200168042414c554e492d4c560bc1b815250816003908161008191906105f6565b50600461008e82826105f6565b5050600160055550600b8054336001600160a01b031991821617909155600680549091166001600160a01b03861617905582516100d2906007906020860190610300565b5081516100e6906008906020850190610363565b50670de0b6b3a7640000600a555f5b6007548110156102f3575f6001600160a01b03166007828154811061011c5761011c6106b5565b5f918252602090912001546001600160a01b0316036101825760405162461bcd60e51b815260206004820152601560248201527f496e76616c69642061737365742061646472657373000000000000000000000060448201526064015b60405180910390fd5b5f838281518110610195576101956106b5565b6020026020010151116101db5760405162461bcd60e51b815260206004820152600e60248201526d125b9d985b1a59081dd95a59da1d60921b6044820152606401610179565b5f600782815481106101ef576101ef6106b5565b5f91825260209091200154600654604051636eb1769f60e11b81523060048201526001600160a01b03918216602482015291169150819063dd62ed3e90604401602060405180830381865afa15801561024a573d5f803e3d5ffd5b505050506040513d601f19601f8201168201806040525081019061026e91906106c9565b5f036102ea5760065460405163095ea7b360e01b81526001600160a01b0391821660048201525f1960248201529082169063095ea7b3906044016020604051808303815f875af11580156102c4573d5f803e3d5ffd5b505050506040513d601f19601f820116820180604052508101906102e891906106e0565b505b506001016100f5565b5060095550610706915050565b828054828255905f5260205f20908101928215610353579160200282015b8281111561035357825182546001600160a01b0319166001600160a01b0390911617825560209092019160019091019061031e565b5061035f92915061039c565b5090565b828054828255905f5260205f20908101928215610353579160200282015b82811115610353578251825591602001919060010190610381565b5b8082111561035f575f815560010161039d565b80516001600160a01b03811681146103c6575f80fd5b919050565b634e487b7160e01b5f52604160045260245ffd5b604051601f8201601f191681016001600160401b0381118282101715610407576104076103cb565b604052919050565b5f6001600160401b03821115610427576104276103cb565b5060051b60200190565b5f82601f830112610440575f80fd5b815160206104556104508361040f565b6103df565b8083825260208201915060208460051b870101935086841115610476575f80fd5b602086015b84811015610492578051835291830191830161047b565b509695505050505050565b5f805f80608085870312156104b0575f80fd5b6104b9856103b0565b602086810151919550906001600160401b03808211156104d7575f80fd5b818801915088601f8301126104ea575f80fd5b81516104f86104508261040f565b81815260059190911b8301840190848101908b831115610516575f80fd5b938501935b8285101561053b5761052c856103b0565b8252938501939085019061051b565b60408b01519098509450505080831115610553575f80fd5b505061056187828801610431565b606096909601519497939650505050565b600181811c9082168061058657607f821691505b6020821081036105a457634e487b7160e01b5f52602260045260245ffd5b50919050565b601f8211156105f157805f5260205f20601f840160051c810160208510156105cf5750805b601f840160051c820191505b818110156105ee575f81556001016105db565b50505b505050565b81516001600160401b0381111561060f5761060f6103cb565b6106238161061d8454610572565b846105aa565b602080601f831160018114610656575f841561063f5750858301515b5f19600386901b1c1916600185901b1785556106ad565b5f85815260208120601f198616915b8281101561068457888601518255948401946001909101908401610665565b50858210156106a157878501515f19600388901b60f8161c191681555b505060018460011b0185555b505050505050565b634e487b7160e01b5f52603260045260245ffd5b5f602082840312156106d9575f80fd5b5051919050565b5f602082840312156106f0575f80fd5b815180151581146106ff575f80fd5b9392505050565b612ae9806107135f395ff3fe608060405234801561000f575f80fd5b50600436106101d1575f3560e01c80637a419317116100fe578063b5f163ff1161009e578063cf35bdd01161006e578063cf35bdd0146103c0578063dd62ed3e146103d3578063df791e501461040b578063ed61d2fe1461041e575f80fd5b8063b5f163ff1461037e578063c2ee3a0814610391578063c45a01551461039a578063ce83b10c146103ad575f80fd5b80638299cc00116100d95780638299cc001461034557806389ab35321461034d57806395d89b4114610363578063a9059cbb1461036b575f80fd5b80637a419317146103215780637f8661a1146103295780637fec8d381461033c575f80fd5b806323b872dd116101745780635568081a116101445780635568081a146102c957806367a6c440146102dc57806367e4ac2c146102e457806370a08231146102f9575f80fd5b806323b872dd14610281578063313ce567146102945780634aa06652146102a35780634de59aa3146102b6575f80fd5b80630918281b116101af5780630918281b1461022f578063095ea7b31461024457806318160ddd1461026757806322acb86714610279575f80fd5b806301d22ccd146101d557806306fdde03146102055780630902f1ac1461021a575b5f80fd5b6006546101e8906001600160a01b031681565b6040516001600160a01b0390911681526020015b60405180910390f35b61020d610431565b6040516101fc91906124b3565b6102226104c1565b6040516101fc9190612522565b61024261023d366004612548565b6105c9565b005b610257610252366004612563565b610639565b60405190151581526020016101fc565b6002545b6040519081526020016101fc565b610222610652565b61025761028f36600461258d565b6106a7565b604051601281526020016101fc565b61026b6102b136600461258d565b6106cc565b61026b6102c43660046125cb565b6109b9565b6102426102d7366004612548565b610d44565b61026b601e81565b6102ec610dd6565b6040516101fc919061263a565b61026b610307366004612548565b6001600160a01b03165f9081526020819052604090205490565b61026b610e35565b610242610337366004612686565b610e7d565b61026b60095481565b61026b61129d565b6103556112ae565b6040516101fc92919061269d565b61020d611462565b610257610379366004612563565b611471565b61026b61038c366004612686565b61147e565b61026b600a5481565b600b546101e8906001600160a01b031681565b6102426103bb3660046126f6565b61149d565b6101e86103ce366004612686565b6118ba565b61026b6103e1366004612724565b6001600160a01b039182165f90815260016020908152604080832093909416825291909152205490565b61026b61041936600461258d565b6118e2565b61026b61042c366004612686565b611bbe565b60606003805461044090612750565b80601f016020809104026020016040519081016040528092919081815260200182805461046c90612750565b80156104b75780601f1061048e576101008083540402835291602001916104b7565b820191905f5260205f20905b81548152906001019060200180831161049a57829003601f168201915b5050505050905090565b6007546060905f9067ffffffffffffffff8111156104e1576104e1612782565b60405190808252806020026020018201604052801561050a578160200160208202803683370190505b5090505f5b6007548110156105c3576007818154811061052c5761052c612796565b5f918252602090912001546040516370a0823160e01b81523060048201526001600160a01b03909116906370a0823190602401602060405180830381865afa15801561057a573d5f803e3d5ffd5b505050506040513d601f19601f8201168201806040525081019061059e91906127aa565b8282815181106105b0576105b0612796565b602090810291909101015260010161050f565b50919050565b600b546001600160a01b031633146106175760405162461bcd60e51b815260206004820152600c60248201526b4f6e6c7920466163746f727960a01b60448201526064015b60405180910390fd5b600680546001600160a01b0319166001600160a01b0392909216919091179055565b5f33610646818585611c33565b60019150505b92915050565b606060088054806020026020016040519081016040528092919081815260200182805480156104b757602002820191905f5260205f20905b81548152602001906001019080831161068a575050505050905090565b5f336106b4858285611c45565b6106bf858585611cc0565b60019150505b9392505050565b5f826001600160a01b0316846001600160a01b03160361072e5760405162461bcd60e51b815260206004820152601a60248201527f43616e6e6f742073776170207468652073616d6520746f6b656e000000000000604482015260640161060e565b5f821161077d5760405162461bcd60e51b815260206004820181905260248201527f416d6f756e74206d7573742062652067726561746572207468616e207a65726f604482015260640161060e565b5f61271061078c601e856127d5565b61079691906127ec565b90505f6107a3828561280b565b90505f866001600160a01b031663313ce5676040518163ffffffff1660e01b8152600401602060405180830381865afa1580156107e2573d5f803e3d5ffd5b505050506040513d601f19601f82011682018060405250810190610806919061281e565b90505f866001600160a01b031663313ce5676040518163ffffffff1660e01b8152600401602060405180830381865afa158015610845573d5f803e3d5ffd5b505050506040513d601f19601f82011682018060405250810190610869919061281e565b60065460405163802431fb60e01b81526001600160a01b038b811660048301528a811660248301525f604483018190529394509091169063802431fb90606401602060405180830381865afa9250505080156108e2575060408051601f3d908101601f191682019092526108df918101906127aa565b60015b6108f3575f955050505050506106c5565b90505f8260ff168460ff16111561092e575f61090f848661283e565b61091a90600a612937565b905061092681876127ec565b91505061098a565b8260ff168460ff16101561095e575f610947858561283e565b61095290600a612937565b905061092681876127d5565b5083670de0b6b3a764000061097383836127d5565b61097d91906127ec565b96505050505050506106c5565b5f61099684600a612937565b6109a084846127d5565b6109aa91906127ec565b9b9a5050505050505050505050565b5f6109c2611d1d565b6007548214610a135760405162461bcd60e51b815260206004820152601760248201527f416d6f756e7473206c656e677468206d69736d61746368000000000000000000604482015260640161060e565b5f610a1d60025490565b90505f8060065f9054906101000a90046001600160a01b03166001600160a01b031663bc06e81d6040518163ffffffff1660e01b8152600401602060405180830381865afa158015610a71573d5f803e3d5ffd5b505050506040513d601f19601f82011682018060405250810190610a959190612945565b90505f816001600160a01b031663313ce5676040518163ffffffff1660e01b8152600401602060405180830381865afa158015610ad4573d5f803e3d5ffd5b505050506040513d601f19601f82011682018060405250810190610af8919061281e565b90505f610b0682601261283e565b610b1190600a612937565b90505f5b600754811015610c04575f60078281548110610b3357610b33612796565b5f9182526020822001546001600160a01b031691508a8a84818110610b5a57610b5a612796565b6040516323b872dd60e01b815233600482015230602482015260209091029290920135604483018190529250506001600160a01b038316906323b872dd906064016020604051808303815f875af1158015610bb7573d5f803e3d5ffd5b505050506040513d601f19601f82011682018060405250810190610bdb9190612960565b505f610be78383611d47565b9050610bf3818961297f565b97505060019092019150610b159050565b505f855f03610c14575083610c39565b5f610c1d611ff6565b50905080610c2b88886127d5565b610c3591906127ec565b9150505b805f03610c785760405162461bcd60e51b815260206004820152600d60248201526c04d696e7420717479206973203609c1b604482015260640161060e565b335f8181526020819052604090205490610c9290836121a7565b335f90815260208190526040812054610cac90839061280b565b9050828114610ceb5760405162461bcd60e51b815260206004820152600b60248201526a135a5b9d0811985a5b195960aa1b604482015260640161060e565b336001600160a01b03167fb60e972ce1258a7280a8e34204b1df88fcabbe8aea805e46bc1566cdc6e6e1488c8c86604051610d2893929190612992565b60405180910390a25090965050505050505061064c6001600555565b5f612710610d5160025490565b610d5d906103e86127d5565b610d6791906127ec565b905080610d88836001600160a01b03165f9081526020819052604090205490565b1015610dca5760405162461bcd60e51b8152602060048201526011602482015270556e646572203525204c5020736861726560781b604482015260640161060e565b610dd26121db565b5050565b606060078054806020026020016040519081016040528092919081815260200182805480156104b757602002820191905f5260205f20905b81546001600160a01b03168152600190910190602001808311610e0e575050505050905090565b5f80610e3f611ff6565b5090505f610e4c60025490565b9050805f03610e5d575f9250505090565b80600a5483610e6c91906127d5565b610e7691906127ec565b9250505090565b610e85611d1d565b335f90815260208190526040902054811115610ed85760405162461bcd60e51b8152602060048201526012602482015271496e73756666696369656e7420736861726560701b604482015260640161060e565b5f610ee260025490565b90505f8111610f225760405162461bcd60e51b815260206004820152600c60248201526b4e6f206c697175696469747960a01b604482015260640161060e565b6007545f9067ffffffffffffffff811115610f3f57610f3f612782565b604051908082528060200260200182016040528015610f68578160200160208202803683370190505b5090505f612710610f7a601e866127d5565b610f8491906127ec565b90505f610f91828661280b565b9050610f9e3330876106a7565b505f5b60075481101561106e575f60078281548110610fbf57610fbf612796565b5f918252602090912001546040516370a0823160e01b81523060048201526001600160a01b03909116906370a0823190602401602060405180830381865afa15801561100d573d5f803e3d5ffd5b505050506040513d601f19601f8201168201806040525081019061103191906127aa565b90508561103e84836127d5565b61104891906127ec565b85838151811061105a5761105a612796565b602090810291909101015250600101610fa1565b506110793082612287565b306001600160a01b031663a9059cbb60065f9054906101000a90046001600160a01b03166001600160a01b0316633b19e84a6040518163ffffffff1660e01b8152600401602060405180830381865afa1580156110d8573d5f803e3d5ffd5b505050506040513d601f19601f820116820180604052508101906110fc9190612945565b6040516001600160e01b031960e084901b1681526001600160a01b039091166004820152602481018590526044016020604051808303815f875af1158015611146573d5f803e3d5ffd5b505050506040513d601f19601f8201168201806040525081019061116a9190612960565b505f5b600754811015611248576007818154811061118a5761118a612796565b905f5260205f20015f9054906101000a90046001600160a01b03166001600160a01b031663a9059cbb338684815181106111c6576111c6612796565b60200260200101516040518363ffffffff1660e01b81526004016111ff9291906001600160a01b03929092168252602082015260400190565b6020604051808303815f875af115801561121b573d5f803e3d5ffd5b505050506040513d601f19601f8201168201806040525081019061123f9190612960565b5060010161116d565b50336001600160a01b03167f0f74fe264fb7d04b4800409b8a3562eb271296e19c3ec8835639635b3e858c4584836040516112849291906129ce565b60405180910390a25050505061129a6001600555565b50565b5f806112a7611ff6565b5092915050565b6060805f806112bb611ff6565b60075491935091508067ffffffffffffffff8111156112dc576112dc612782565b604051908082528060200260200182016040528015611305578160200160208202803683370190505b5094508067ffffffffffffffff81111561132157611321612782565b60405190808252806020026020018201604052801561134a578160200160208202803683370190505b5093505f5b8181101561145a575f8484838151811061136b5761136b612796565b602002602001015161271061138091906127d5565b61138a91906127ec565b90505f600883815481106113a0576113a0612796565b905f5260205f200154905080821115611404576113bd818361280b565b8784815181106113cf576113cf612796565b60200260200101818152505060018884815181106113ef576113ef612796565b91151560209283029190910190910152611450565b61140e828261280b565b87848151811061142057611420612796565b6020026020010181815250505f88848151811061143f5761143f612796565b911515602092830291909101909101525b505060010161134f565b505050509091565b60606004805461044090612750565b5f33610646818585611cc0565b6008818154811061148d575f80fd5b5f91825260209091200154905081565b6114a5611d1d565b335f908152602081905260409020548211156114f85760405162461bcd60e51b8152602060048201526012602482015271496e73756666696369656e7420736861726560701b604482015260640161060e565b5f61150260025490565b90505f81116115425760405162461bcd60e51b815260206004820152600c60248201526b4e6f206c697175696469747960a01b604482015260640161060e565b6007545f9067ffffffffffffffff81111561155f5761155f612782565b604051908082528060200260200182016040528015611588578160200160208202803683370190505b5090505f61271061159a601e876127d5565b6115a491906127ec565b90505f6115b1828761280b565b90506115be3330886106a7565b505f5b60075481101561168e575f600782815481106115df576115df612796565b5f918252602090912001546040516370a0823160e01b81523060048201526001600160a01b03909116906370a0823190602401602060405180830381865afa15801561162d573d5f803e3d5ffd5b505050506040513d601f19601f8201168201806040525081019061165191906127aa565b90508561165e84836127d5565b61166891906127ec565b85838151811061167a5761167a612796565b6020908102919091010152506001016115c1565b506116993082612287565b306001600160a01b031663a9059cbb60065f9054906101000a90046001600160a01b03166001600160a01b0316633b19e84a6040518163ffffffff1660e01b8152600401602060405180830381865afa1580156116f8573d5f803e3d5ffd5b505050506040513d601f19601f8201168201806040525081019061171c9190612945565b6040516001600160e01b031960e084901b1681526001600160a01b039091166004820152602481018590526044016020604051808303815f875af1158015611766573d5f803e3d5ffd5b505050506040513d601f19601f8201168201806040525081019061178a9190612960565b505f5b60075481101561186857600781815481106117aa576117aa612796565b905f5260205f20015f9054906101000a90046001600160a01b03166001600160a01b031663a9059cbb878684815181106117e6576117e6612796565b60200260200101516040518363ffffffff1660e01b815260040161181f9291906001600160a01b03929092168252602082015260400190565b6020604051808303815f875af115801561183b573d5f803e3d5ffd5b505050506040513d601f19601f8201168201806040525081019061185f9190612960565b5060010161178d565b50846001600160a01b03167f0f74fe264fb7d04b4800409b8a3562eb271296e19c3ec8835639635b3e858c4584836040516118a49291906129ce565b60405180910390a250505050610dd26001600555565b600781815481106118c9575f80fd5b5f918252602090912001546001600160a01b0316905081565b5f6118eb611d1d565b826001600160a01b0316846001600160a01b03160361194c5760405162461bcd60e51b815260206004820152601a60248201527f43616e6e6f742073776170207468652073616d6520746f6b656e000000000000604482015260640161060e565b5f821161199b5760405162461bcd60e51b815260206004820181905260248201527f416d6f756e74206d7573742062652067726561746572207468616e207a65726f604482015260640161060e565b6040516323b872dd60e01b8152336004820152306024820152604481018390526001600160a01b038516906323b872dd906064016020604051808303815f875af11580156119eb573d5f803e3d5ffd5b505050506040513d601f19601f82011682018060405250810190611a0f9190612960565b505f612710611a1f601e856127d5565b611a2991906127ec565b90505f611a36828561280b565b90505f611a448787846106cc565b6040516370a0823160e01b815230600482015290915081906001600160a01b038816906370a0823190602401602060405180830381865afa158015611a8b573d5f803e3d5ffd5b505050506040513d601f19601f82011682018060405250810190611aaf91906127aa565b1015611af65760405162461bcd60e51b8152602060048201526016602482015275496e73756666696369656e74204c697175696469747960501b604482015260640161060e565b60405163a9059cbb60e01b8152336004820152602481018290526001600160a01b0387169063a9059cbb906044016020604051808303815f875af1158015611b40573d5f803e3d5ffd5b505050506040513d601f19601f82011682018060405250810190611b649190612960565b5060408051868152602081018390526001600160a01b0380891692908a169133917fcd3829a3813dc3cdd188fd3d01dcf3268c16be2fdd2dd21d0665418816e46062910160405180910390a4925050506106c56001600555565b5f80611bc8611ff6565b91505080518310611c115760405162461bcd60e51b8152602060048201526013602482015272092dcecc2d8d2c840c2e6e6cae840d2dcc8caf606b1b604482015260640161060e565b808381518110611c2357611c23612796565b6020026020010151915050919050565b611c4083838360016122bb565b505050565b6001600160a01b038381165f908152600160209081526040808320938616835292905220545f198114611cba5781811015611cac57604051637dc7a0d960e11b81526001600160a01b0384166004820152602481018290526044810183905260640161060e565b611cba84848484035f6122bb565b50505050565b6001600160a01b038316611ce957604051634b637e8f60e11b81525f600482015260240161060e565b6001600160a01b038216611d125760405163ec442f0560e01b81525f600482015260240161060e565b611c4083838361238d565b600260055403611d4057604051633ee5aeb560e01b815260040160405180910390fd5b6002600555565b5f805f60065f9054906101000a90046001600160a01b03166001600160a01b031663956fb5106040518163ffffffff1660e01b8152600401602060405180830381865afa158015611d9a573d5f803e3d5ffd5b505050506040513d601f19601f82011682018060405250810190611dbe9190612945565b90505f856001600160a01b031663313ce5676040518163ffffffff1660e01b8152600401602060405180830381865afa158015611dfd573d5f803e3d5ffd5b505050506040513d601f19601f82011682018060405250810190611e21919061281e565b90505f826001600160a01b031663313ce5676040518163ffffffff1660e01b8152600401602060405180830381865afa158015611e60573d5f803e3d5ffd5b505050506040513d601f19601f82011682018060405250810190611e84919061281e565b6006546040516307de4fd160e41b81526001600160a01b038a811660048301525f6024830152929350911690637de4fd1090604401602060405180830381865afa925050508015611ef2575060408051601f3d908101601f19168201909252611eef918101906127aa565b60015b611f02575f94505050505061064c565b93505f80611f1184600a612937565b600a5490915080611f2283896127d5565b611f2c91906127ec565b96508360ff168560ff161115611f6457611f46848661283e565b611f5190600a612937565b9250611f5d838a6127d5565b9850611fd1565b8360ff168560ff161015611f7c57611f46858561283e565b8460ff16601203611fac57600a54611f94888b6127d5565b611f9e91906127ec565b97505050505050505061064c565b611fb785601261283e565b611fc290600a612937565b9250611fce838a6127d5565b98505b600a54611fde888b6127d5565b611fe891906127ec565b9a9950505050505050505050565b6007545f906060908067ffffffffffffffff81111561201757612017612782565b604051908082528060200260200182016040528015612040578160200160208202803683370190505b5091505f5b818110156121a1575f6007828154811061206157612061612796565b5f9182526020808320909101546040805163313ce56760e01b815290516001600160a01b039092169450849263313ce567926004808401938290030181865afa1580156120b0573d5f803e3d5ffd5b505050506040513d601f19601f820116820180604052508101906120d4919061281e565b6040516370a0823160e01b81523060048201529091505f9061214a9084906001600160a01b038216906370a0823190602401602060405180830381865afa158015612121573d5f803e3d5ffd5b505050506040513d601f19601f8201168201806040525081019061214591906127aa565b611d47565b90508086858151811061215f5761215f612796565b60200260200101818152505085848151811061217d5761217d612796565b602002602001015187612190919061297f565b965050600190920191506120459050565b50509091565b6001600160a01b0382166121d05760405163ec442f0560e01b81525f600482015260240161060e565b610dd25f838361238d565b6006546009546040516384db1dfb60e01b81526001600160a01b03909216916384db1dfb916122169160079160089130918291600401612a2a565b5f604051808303815f87803b15801561222d575f80fd5b505af115801561223f573d5f803e3d5ffd5b50505050336001600160a01b03167f279b343370f587af7fb675ae7c8578e9c8abcc373236ad02c501a4771fe7a7b8600760405161227d9190612aa1565b60405180910390a2565b6001600160a01b0382166122b057604051634b637e8f60e11b81525f600482015260240161060e565b610dd2825f8361238d565b6001600160a01b0384166122e45760405163e602df0560e01b81525f600482015260240161060e565b6001600160a01b03831661230d57604051634a1406b160e11b81525f600482015260240161060e565b6001600160a01b038085165f9081526001602090815260408083209387168352929052208290558015611cba57826001600160a01b0316846001600160a01b03167f8c5be1e5ebec7d5bd14f71427d1e84f3dd0314c0f7b2291e5b200ac8c7c3b9258460405161237f91815260200190565b60405180910390a350505050565b6001600160a01b0383166123b7578060025f8282546123ac919061297f565b909155506124279050565b6001600160a01b0383165f90815260208190526040902054818110156124095760405163391434e360e21b81526001600160a01b0385166004820152602481018290526044810183905260640161060e565b6001600160a01b0384165f9081526020819052604090209082900390555b6001600160a01b03821661244357600280548290039055612461565b6001600160a01b0382165f9081526020819052604090208054820190555b816001600160a01b0316836001600160a01b03167fddf252ad1be2c89b69c2b068fc378daa952ba7f163c4a11628f55a4df523b3ef836040516124a691815260200190565b60405180910390a3505050565b602081525f82518060208401528060208501604085015e5f604082850101526040601f19601f83011684010191505092915050565b5f815180845260208085019450602084015f5b83811015612517578151875295820195908201906001016124fb565b509495945050505050565b602081525f6106c560208301846124e8565b6001600160a01b038116811461129a575f80fd5b5f60208284031215612558575f80fd5b81356106c581612534565b5f8060408385031215612574575f80fd5b823561257f81612534565b946020939093013593505050565b5f805f6060848603121561259f575f80fd5b83356125aa81612534565b925060208401356125ba81612534565b929592945050506040919091013590565b5f80602083850312156125dc575f80fd5b823567ffffffffffffffff808211156125f3575f80fd5b818501915085601f830112612606575f80fd5b813581811115612614575f80fd5b8660208260051b8501011115612628575f80fd5b60209290920196919550909350505050565b602080825282518282018190525f9190848201906040850190845b8181101561267a5783516001600160a01b031683529284019291840191600101612655565b50909695505050505050565b5f60208284031215612696575f80fd5b5035919050565b604080825283519082018190525f906020906060840190828701845b828110156126d75781511515845292840192908401906001016126b9565b50505083810360208501526126ec81866124e8565b9695505050505050565b5f8060408385031215612707575f80fd5b82359150602083013561271981612534565b809150509250929050565b5f8060408385031215612735575f80fd5b823561274081612534565b9150602083013561271981612534565b600181811c9082168061276457607f821691505b6020821081036105c357634e487b7160e01b5f52602260045260245ffd5b634e487b7160e01b5f52604160045260245ffd5b634e487b7160e01b5f52603260045260245ffd5b5f602082840312156127ba575f80fd5b5051919050565b634e487b7160e01b5f52601160045260245ffd5b808202811582820484141761064c5761064c6127c1565b5f8261280657634e487b7160e01b5f52601260045260245ffd5b500490565b8181038181111561064c5761064c6127c1565b5f6020828403121561282e575f80fd5b815160ff811681146106c5575f80fd5b60ff828116828216039081111561064c5761064c6127c1565b600181815b8085111561289157815f1904821115612877576128776127c1565b8085161561288457918102915b93841c939080029061285c565b509250929050565b5f826128a75750600161064c565b816128b357505f61064c565b81600181146128c957600281146128d3576128ef565b600191505061064c565b60ff8411156128e4576128e46127c1565b50506001821b61064c565b5060208310610133831016604e8410600b8410161715612912575081810a61064c565b61291c8383612857565b805f190482111561292f5761292f6127c1565b029392505050565b5f6106c560ff841683612899565b5f60208284031215612955575f80fd5b81516106c581612534565b5f60208284031215612970575f80fd5b815180151581146106c5575f80fd5b8082018082111561064c5761064c6127c1565b604080825281018390525f6001600160fb1b038411156129b0575f80fd5b8360051b808660608501376020830193909352500160600192915050565b604081525f6129e060408301856124e8565b90508260208301529392505050565b5f815480845260208085019450835f5260205f205f5b838110156125175781546001600160a01b031687529582019560019182019101612a05565b60a081525f612a3c60a08301886129ef565b60208382036020850152818854808452602084019150895f5260205f2093505f5b81811015612a7957845483526001948501949284019201612a5d565b50506001600160a01b0397881660408601529590961660608401525050608001529392505050565b602081525f6106c560208301846129ef56fea2646970667358221220a186643b87bbb8124ef189e8acd0eede4608e702de8fa34b02d18ffdaf935acf64736f6c63430008190033360894a13ba1a3210667c828492db98dca3e2076cc3735a920a3ca505d382bbca2646970667358221220e89240b6a36dcf449d2f8c5f7818e6c9401b7e5afc0de05a16af500d2bca2f4864736f6c63430008190033",
    "sourcePath": "c:/Users/Utente/Source/repos/baluni-contracts/contracts/BaluniV1PoolFactory.sol",
    "compiler": {
        "name": "solc",
        "version": "0.8.25+commit.b61c2a91"
    },
    "functionHashes": {
        "UPGRADE_INTERFACE_VERSION()": "ad3cb1cc",
        "allPools(uint256)": "41d1de97",
        "createPool(address,address[],uint256[],uint256)": "61c8f67d",
        "getAllPools()": "d88ff1f4",
        "getPool(address,address)": "531aa03e",
        "getPoolAssets(address)": "4276b97b",
        "getPoolByAssets(address,address)": "2d5e94a7",
        "getPoolsByAsset(address)": "b4340e6a",
        "getPoolsCount()": "b4ac6860",
        "initialize()": "8129fc1c",
        "owner()": "8da5cb5b",
        "proxiableUUID()": "52d1902d",
        "reinitialize(uint64)": "9a1b97df",
        "renounceOwnership()": "715018a6",
        "transferOwnership(address)": "f2fde38b",
        "upgradeToAndCall(address,bytes)": "4f1ef286"
    },
    "gasEstimates": {
        "creation": {
            "codeDepositCost": "3762800",
            "executionCost": "infinite",
            "totalCost": "infinite"
        },
        "external": {
            "UPGRADE_INTERFACE_VERSION()": "infinite",
            "allPools(uint256)": "4645",
            "createPool(address,address[],uint256[],uint256)": "infinite",
            "getAllPools()": "infinite",
            "getPool(address,address)": "infinite",
            "getPoolAssets(address)": "infinite",
            "getPoolByAssets(address,address)": "infinite",
            "getPoolsByAsset(address)": "infinite",
            "getPoolsCount()": "2334",
            "initialize()": "infinite",
            "owner()": "2364",
            "proxiableUUID()": "infinite",
            "reinitialize(uint64)": "29944",
            "renounceOwnership()": "infinite",
            "transferOwnership(address)": "infinite",
            "upgradeToAndCall(address,bytes)": "infinite"
        },
        "internal": {
            "_authorizeUpgrade(address)": "infinite"
        }
    }
}