{
    "contractName": "BaluniV1StablePool",
    "abi": [
        {
            "inputs": [
                {
                    "internalType": "address",
                    "name": "_oracle",
                    "type": "address"
                },
                {
                    "internalType": "address",
                    "name": "_rebalancer",
                    "type": "address"
                },
                {
                    "internalType": "address",
                    "name": "_asset1",
                    "type": "address"
                },
                {
                    "internalType": "address",
                    "name": "_asset2",
                    "type": "address"
                }
            ],
            "stateMutability": "nonpayable",
            "type": "constructor"
        },
        {
            "inputs": [
                {
                    "internalType": "address",
                    "name": "target",
                    "type": "address"
                }
            ],
            "name": "AddressEmptyCode",
            "type": "error"
        },
        {
            "inputs": [
                {
                    "internalType": "address",
                    "name": "account",
                    "type": "address"
                }
            ],
            "name": "AddressInsufficientBalance",
            "type": "error"
        },
        {
            "inputs": [
                {
                    "internalType": "address",
                    "name": "spender",
                    "type": "address"
                },
                {
                    "internalType": "uint256",
                    "name": "allowance",
                    "type": "uint256"
                },
                {
                    "internalType": "uint256",
                    "name": "needed",
                    "type": "uint256"
                }
            ],
            "name": "ERC20InsufficientAllowance",
            "type": "error"
        },
        {
            "inputs": [
                {
                    "internalType": "address",
                    "name": "sender",
                    "type": "address"
                },
                {
                    "internalType": "uint256",
                    "name": "balance",
                    "type": "uint256"
                },
                {
                    "internalType": "uint256",
                    "name": "needed",
                    "type": "uint256"
                }
            ],
            "name": "ERC20InsufficientBalance",
            "type": "error"
        },
        {
            "inputs": [
                {
                    "internalType": "address",
                    "name": "approver",
                    "type": "address"
                }
            ],
            "name": "ERC20InvalidApprover",
            "type": "error"
        },
        {
            "inputs": [
                {
                    "internalType": "address",
                    "name": "receiver",
                    "type": "address"
                }
            ],
            "name": "ERC20InvalidReceiver",
            "type": "error"
        },
        {
            "inputs": [
                {
                    "internalType": "address",
                    "name": "sender",
                    "type": "address"
                }
            ],
            "name": "ERC20InvalidSender",
            "type": "error"
        },
        {
            "inputs": [
                {
                    "internalType": "address",
                    "name": "spender",
                    "type": "address"
                }
            ],
            "name": "ERC20InvalidSpender",
            "type": "error"
        },
        {
            "inputs": [],
            "name": "FailedInnerCall",
            "type": "error"
        },
        {
            "inputs": [],
            "name": "ReentrancyGuardReentrantCall",
            "type": "error"
        },
        {
            "inputs": [
                {
                    "internalType": "address",
                    "name": "token",
                    "type": "address"
                }
            ],
            "name": "SafeERC20FailedOperation",
            "type": "error"
        },
        {
            "anonymous": false,
            "inputs": [
                {
                    "indexed": true,
                    "internalType": "address",
                    "name": "owner",
                    "type": "address"
                },
                {
                    "indexed": true,
                    "internalType": "address",
                    "name": "spender",
                    "type": "address"
                },
                {
                    "indexed": false,
                    "internalType": "uint256",
                    "name": "value",
                    "type": "uint256"
                }
            ],
            "name": "Approval",
            "type": "event"
        },
        {
            "anonymous": false,
            "inputs": [
                {
                    "indexed": true,
                    "internalType": "address",
                    "name": "from",
                    "type": "address"
                },
                {
                    "indexed": true,
                    "internalType": "address",
                    "name": "to",
                    "type": "address"
                },
                {
                    "indexed": false,
                    "internalType": "uint256",
                    "name": "value",
                    "type": "uint256"
                }
            ],
            "name": "Transfer",
            "type": "event"
        },
        {
            "inputs": [],
            "name": "SWAP_FEE_BPS",
            "outputs": [
                {
                    "internalType": "uint256",
                    "name": "",
                    "type": "uint256"
                }
            ],
            "stateMutability": "view",
            "type": "function"
        },
        {
            "inputs": [
                {
                    "internalType": "address",
                    "name": "owner",
                    "type": "address"
                },
                {
                    "internalType": "address",
                    "name": "spender",
                    "type": "address"
                }
            ],
            "name": "allowance",
            "outputs": [
                {
                    "internalType": "uint256",
                    "name": "",
                    "type": "uint256"
                }
            ],
            "stateMutability": "view",
            "type": "function"
        },
        {
            "inputs": [
                {
                    "internalType": "address",
                    "name": "spender",
                    "type": "address"
                },
                {
                    "internalType": "uint256",
                    "name": "value",
                    "type": "uint256"
                }
            ],
            "name": "approve",
            "outputs": [
                {
                    "internalType": "bool",
                    "name": "",
                    "type": "bool"
                }
            ],
            "stateMutability": "nonpayable",
            "type": "function"
        },
        {
            "inputs": [],
            "name": "asset1",
            "outputs": [
                {
                    "internalType": "contract IERC20",
                    "name": "",
                    "type": "address"
                }
            ],
            "stateMutability": "view",
            "type": "function"
        },
        {
            "inputs": [],
            "name": "asset2",
            "outputs": [
                {
                    "internalType": "contract IERC20",
                    "name": "",
                    "type": "address"
                }
            ],
            "stateMutability": "view",
            "type": "function"
        },
        {
            "inputs": [
                {
                    "internalType": "address",
                    "name": "account",
                    "type": "address"
                }
            ],
            "name": "balanceOf",
            "outputs": [
                {
                    "internalType": "uint256",
                    "name": "",
                    "type": "uint256"
                }
            ],
            "stateMutability": "view",
            "type": "function"
        },
        {
            "inputs": [
                {
                    "internalType": "address",
                    "name": "fromToken",
                    "type": "address"
                },
                {
                    "internalType": "address",
                    "name": "toToken",
                    "type": "address"
                },
                {
                    "internalType": "uint256",
                    "name": "amountAfterFee",
                    "type": "uint256"
                }
            ],
            "name": "calculateReceivedAmount",
            "outputs": [
                {
                    "internalType": "uint256",
                    "name": "",
                    "type": "uint256"
                }
            ],
            "stateMutability": "view",
            "type": "function"
        },
        {
            "inputs": [],
            "name": "decimals",
            "outputs": [
                {
                    "internalType": "uint8",
                    "name": "",
                    "type": "uint8"
                }
            ],
            "stateMutability": "view",
            "type": "function"
        },
        {
            "inputs": [],
            "name": "name",
            "outputs": [
                {
                    "internalType": "string",
                    "name": "",
                    "type": "string"
                }
            ],
            "stateMutability": "view",
            "type": "function"
        },
        {
            "inputs": [],
            "name": "oracle",
            "outputs": [
                {
                    "internalType": "contract IOracle",
                    "name": "",
                    "type": "address"
                }
            ],
            "stateMutability": "view",
            "type": "function"
        },
        {
            "inputs": [
                {
                    "internalType": "uint256",
                    "name": "amount1",
                    "type": "uint256"
                },
                {
                    "internalType": "uint256",
                    "name": "amount2",
                    "type": "uint256"
                }
            ],
            "name": "provideLiquidity",
            "outputs": [],
            "stateMutability": "nonpayable",
            "type": "function"
        },
        {
            "inputs": [],
            "name": "rebalancer",
            "outputs": [
                {
                    "internalType": "contract IBaluniV1Rebalancer",
                    "name": "",
                    "type": "address"
                }
            ],
            "stateMutability": "view",
            "type": "function"
        },
        {
            "inputs": [
                {
                    "internalType": "uint256",
                    "name": "share",
                    "type": "uint256"
                }
            ],
            "name": "removeLiquidity",
            "outputs": [],
            "stateMutability": "nonpayable",
            "type": "function"
        },
        {
            "inputs": [
                {
                    "internalType": "address",
                    "name": "fromToken",
                    "type": "address"
                },
                {
                    "internalType": "address",
                    "name": "toToken",
                    "type": "address"
                },
                {
                    "internalType": "uint256",
                    "name": "amount",
                    "type": "uint256"
                }
            ],
            "name": "swap",
            "outputs": [],
            "stateMutability": "nonpayable",
            "type": "function"
        },
        {
            "inputs": [],
            "name": "symbol",
            "outputs": [
                {
                    "internalType": "string",
                    "name": "",
                    "type": "string"
                }
            ],
            "stateMutability": "view",
            "type": "function"
        },
        {
            "inputs": [],
            "name": "totalSupply",
            "outputs": [
                {
                    "internalType": "uint256",
                    "name": "",
                    "type": "uint256"
                }
            ],
            "stateMutability": "view",
            "type": "function"
        },
        {
            "inputs": [
                {
                    "internalType": "address",
                    "name": "to",
                    "type": "address"
                },
                {
                    "internalType": "uint256",
                    "name": "value",
                    "type": "uint256"
                }
            ],
            "name": "transfer",
            "outputs": [
                {
                    "internalType": "bool",
                    "name": "",
                    "type": "bool"
                }
            ],
            "stateMutability": "nonpayable",
            "type": "function"
        },
        {
            "inputs": [
                {
                    "internalType": "address",
                    "name": "from",
                    "type": "address"
                },
                {
                    "internalType": "address",
                    "name": "to",
                    "type": "address"
                },
                {
                    "internalType": "uint256",
                    "name": "value",
                    "type": "uint256"
                }
            ],
            "name": "transferFrom",
            "outputs": [
                {
                    "internalType": "bool",
                    "name": "",
                    "type": "bool"
                }
            ],
            "stateMutability": "nonpayable",
            "type": "function"
        }
    ],
    "bytecode": "608060405234801561000f575f80fd5b50604051611cbe380380611cbe83398101604081905261002e916101eb565b6040518060400160405280600f81526020016e042616c756e6920537461626c654c5608c1b8152506040518060400160405280600a815260200169042414c554e492d534c560b41b815250816003908161008891906102d4565b50600461009582826102d4565b5050600160055550600680546001600160a01b03199081166001600160a01b03868116918217909355600780548316868516908117909155600880548416868616179055600980549093169388169390931790915560405163095ea7b360e01b815260048101919091525f19602482015263095ea7b3906044016020604051808303815f875af115801561012b573d5f803e3d5ffd5b505050506040513d601f19601f8201168201806040525081019061014f9190610393565b5060085460065460405163095ea7b360e01b81526001600160a01b0391821660048201525f19602482015291169063095ea7b3906044016020604051808303815f875af11580156101a2573d5f803e3d5ffd5b505050506040513d601f19601f820116820180604052508101906101c69190610393565b50505050506103b9565b80516001600160a01b03811681146101e6575f80fd5b919050565b5f805f80608085870312156101fe575f80fd5b610207856101d0565b9350610215602086016101d0565b9250610223604086016101d0565b9150610231606086016101d0565b905092959194509250565b634e487b7160e01b5f52604160045260245ffd5b600181811c9082168061026457607f821691505b60208210810361028257634e487b7160e01b5f52602260045260245ffd5b50919050565b601f8211156102cf57805f5260205f20601f840160051c810160208510156102ad5750805b601f840160051c820191505b818110156102cc575f81556001016102b9565b50505b505050565b81516001600160401b038111156102ed576102ed61023c565b610301816102fb8454610250565b84610288565b602080601f831160018114610334575f841561031d5750858301515b5f19600386901b1c1916600185901b17855561038b565b5f85815260208120601f198616915b8281101561036257888601518255948401946001909101908401610343565b508582101561037f57878501515f19600388901b60f8161c191681555b505060018460011b0185555b505050505050565b5f602082840312156103a3575f80fd5b815180151581146103b2575f80fd5b9392505050565b6118f8806103c65f395ff3fe608060405234801561000f575f80fd5b5060043610610111575f3560e01c80637cd5f3f91161009e578063a9059cbb1161006e578063a9059cbb14610237578063dd62ed3e1461024a578063df791e5014610282578063e4a4030f14610295578063e9423bf2146102a8575f80fd5b80637cd5f3f9146101f65780637dc0d1d01461020957806395d89b411461021c5780639c8f9f2314610224575f80fd5b806323b872dd116100e457806323b872dd1461018f578063313ce567146101a257806367a6c440146101b157806370a08231146101b95780637a16af7f146101e1575f80fd5b806301d22ccd1461011557806306fdde0314610145578063095ea7b31461015a57806318160ddd1461017d575b5f80fd5b600654610128906001600160a01b031681565b6040516001600160a01b0390911681526020015b60405180910390f35b61014d6102bb565b60405161013c919061140a565b61016d61016836600461145a565b61034b565b604051901515815260200161013c565b6002545b60405190815260200161013c565b61016d61019d366004611482565b610364565b6040516012815260200161013c565b610181601e81565b6101816101c73660046114bb565b6001600160a01b03165f9081526020819052604090205490565b6101f46101ef3660046114d4565b610389565b005b600754610128906001600160a01b031681565b600954610128906001600160a01b031681565b61014d61041c565b6101f46102323660046114f4565b61042b565b61016d61024536600461145a565b610535565b61018161025836600461150b565b6001600160a01b039182165f90815260016020908152604080832093909416825291909152205490565b6101f4610290366004611482565b610542565b6101816102a3366004611482565b610704565b600854610128906001600160a01b031681565b6060600380546102ca9061153c565b80601f01602080910402602001604051908101604052809291908181526020018280546102f69061153c565b80156103415780601f1061031857610100808354040283529160200191610341565b820191905f5260205f20905b81548152906001019060200180831161032457829003601f168201915b5050505050905090565b5f336103588185856108eb565b60019150505b92915050565b5f336103718582856108f8565b61037c858585610973565b60019150505b9392505050565b6103916109d0565b6103996109fa565b6007546103b1906001600160a01b0316333085610bf6565b6008546103c9906001600160a01b0316333084610bf6565b60085460075483915f916103ea916001600160a01b03908116911685610704565b90505f6103f78284611588565b90506104033382610c5d565b61040b6109fa565b5050506104186001600555565b5050565b6060600480546102ca9061153c565b6104336109d0565b335f9081526020819052604090205481111561048b5760405162461bcd60e51b8152602060048201526012602482015271496e73756666696369656e7420736861726560701b60448201526064015b60405180910390fd5b5f61049560025490565b90505f6104a0610c91565b90505f826104ae858461159b565b6104b891906115b2565b6007549091505f906104d49083906001600160a01b0316610eb0565b90505f6104e182846115d1565b90506104ed338761104a565b600754610504906001600160a01b0316338461107e565b60085461051b906001600160a01b0316338361107e565b6105236109fa565b50505050506105326001600555565b50565b5f33610358818585610973565b61054a6109d0565b6007546001600160a01b038481169116148061057357506008546001600160a01b038481169116145b80156105a357506007546001600160a01b03838116911614806105a357506008546001600160a01b038381169116145b6105e35760405162461bcd60e51b81526020600482015260116024820152702ab739bab83837b93a32b2103a37b5b2b760791b6044820152606401610482565b816001600160a01b0316836001600160a01b0316036106445760405162461bcd60e51b815260206004820152601a60248201527f43616e6e6f742073776170207468652073616d6520746f6b656e0000000000006044820152606401610482565b5f81116106935760405162461bcd60e51b815260206004820181905260248201527f416d6f756e74206d7573742062652067726561746572207468616e207a65726f6044820152606401610482565b6106a86001600160a01b038416333084610bf6565b5f6127106106b7601e8461159b565b6106c191906115b2565b90505f6106ce82846115d1565b90505f6106dc868684610704565b90506106f26001600160a01b038616338361107e565b5050506106ff6001600555565b505050565b60095460405163802431fb60e01b81526001600160a01b0385811660048301528481166024830152600160448301525f92839291169063802431fb90606401602060405180830381865afa15801561075e573d5f803e3d5ffd5b505050506040513d601f19601f8201168201806040525081019061078291906115e4565b90505f856001600160a01b031663313ce5676040518163ffffffff1660e01b8152600401602060405180830381865afa1580156107c1573d5f803e3d5ffd5b505050506040513d601f19601f820116820180604052508101906107e591906115fb565b90505f856001600160a01b031663313ce5676040518163ffffffff1660e01b8152600401602060405180830381865afa158015610824573d5f803e3d5ffd5b505050506040513d601f19601f8201168201806040525081019061084891906115fb565b90505f8160ff168360ff16111561088957610863828461161b565b61086e90600a611714565b610878858861159b565b61088291906115b2565b90506108cd565b8260ff168260ff1611156108c0576108a1838361161b565b6108ac90600a611714565b6108b6858861159b565b610882919061159b565b6108ca848761159b565b90505b6108df670de0b6b3a7640000826115b2565b98975050505050505050565b6106ff83838360016110af565b6001600160a01b038381165f908152600160209081526040808320938616835292905220545f19811461096d578181101561095f57604051637dc7a0d960e11b81526001600160a01b03841660048201526024810182905260448101839052606401610482565b61096d84848484035f6110af565b50505050565b6001600160a01b03831661099c57604051634b637e8f60e11b81525f6004820152602401610482565b6001600160a01b0382166109c55760405163ec442f0560e01b81525f6004820152602401610482565b6106ff838383611181565b6002600554036109f357604051633ee5aeb560e01b815260040160405180910390fd5b6002600555565b6040805160028082526060820183525f9260208301908036833750506040805160028082526060820183529394505f9390925090602083019080368337505060075484519293506001600160a01b0316918491505f90610a5c57610a5c611722565b6001600160a01b039283166020918202929092010152600854835191169083906001908110610a8d57610a8d611722565b60200260200101906001600160a01b031690816001600160a01b031681525050611388815f81518110610ac257610ac2611722565b60200260200101818152505061138881600181518110610ae457610ae4611722565b6020908102919091010152600654604051638957698960e01b81525f916001600160a01b031690638957698990610b26908690869060059030906004016117a8565b602060405180830381865afa158015610b41573d5f803e3d5ffd5b505050506040513d601f19601f82011682018060405250810190610b6591906117ee565b90506002816002811115610b7b57610b7b61180c565b146106ff576006546040516303978bed60e31b81526001600160a01b0390911690631cbc5f6890610bb6908690869030908190600401611820565b6020604051808303815f875af1158015610bd2573d5f803e3d5ffd5b505050506040513d601f19601f8201168201806040525081019061096d9190611869565b6040516001600160a01b03848116602483015283811660448301526064820183905261096d9186918216906323b872dd906084015b604051602081830303815290604052915060e01b6020820180516001600160e01b0383818316178352505050506112a7565b6001600160a01b038216610c865760405163ec442f0560e01b81525f6004820152602401610482565b6104185f8383611181565b5f8060075f9054906101000a90046001600160a01b03166001600160a01b031663313ce5676040518163ffffffff1660e01b8152600401602060405180830381865afa158015610ce3573d5f803e3d5ffd5b505050506040513d601f19601f82011682018060405250810190610d0791906115fb565b610d1290601261161b565b610d1d90600a611714565b6007546040516370a0823160e01b81523060048201526001600160a01b03909116906370a0823190602401602060405180830381865afa158015610d63573d5f803e3d5ffd5b505050506040513d601f19601f82011682018060405250810190610d8791906115e4565b610d91919061159b565b90505f60075f9054906101000a90046001600160a01b03166001600160a01b031663313ce5676040518163ffffffff1660e01b8152600401602060405180830381865afa158015610de4573d5f803e3d5ffd5b505050506040513d601f19601f82011682018060405250810190610e0891906115fb565b610e1390601261161b565b610e1e90600a611714565b6008546007546040516370a0823160e01b8152306004820152610e93926001600160a01b0390811692169082906370a0823190602401602060405180830381865afa158015610e6f573d5f803e3d5ffd5b505050506040513d601f19601f820116820180604052508101906102a391906115e4565b610e9d919061159b565b9050610ea98183611588565b9250505090565b60095460075460405163802431fb60e01b81526001600160a01b0384811660048301529182166024820152600160448201525f928392169063802431fb90606401602060405180830381865afa158015610f0c573d5f803e3d5ffd5b505050506040513d601f19601f82011682018060405250810190610f3091906115e4565b90505f836001600160a01b031663313ce5676040518163ffffffff1660e01b8152600401602060405180830381865afa158015610f6f573d5f803e3d5ffd5b505050506040513d601f19601f82011682018060405250810190610f9391906115fb565b60075f9054906101000a90046001600160a01b03166001600160a01b031663313ce5676040518163ffffffff1660e01b8152600401602060405180830381865afa158015610fe3573d5f803e3d5ffd5b505050506040513d601f19601f8201168201806040525081019061100791906115fb565b611012906012611888565b61101c919061161b565b60ff1690508161102d82600a6118a1565b611037908761159b565b61104191906115b2565b95945050505050565b6001600160a01b03821661107357604051634b637e8f60e11b81525f6004820152602401610482565b610418825f83611181565b6040516001600160a01b038381166024830152604482018390526106ff91859182169063a9059cbb90606401610c2b565b6001600160a01b0384166110d85760405163e602df0560e01b81525f6004820152602401610482565b6001600160a01b03831661110157604051634a1406b160e11b81525f6004820152602401610482565b6001600160a01b038085165f908152600160209081526040808320938716835292905220829055801561096d57826001600160a01b0316846001600160a01b03167f8c5be1e5ebec7d5bd14f71427d1e84f3dd0314c0f7b2291e5b200ac8c7c3b9258460405161117391815260200190565b60405180910390a350505050565b6001600160a01b0383166111ab578060025f8282546111a09190611588565b9091555061121b9050565b6001600160a01b0383165f90815260208190526040902054818110156111fd5760405163391434e360e21b81526001600160a01b03851660048201526024810182905260448101839052606401610482565b6001600160a01b0384165f9081526020819052604090209082900390555b6001600160a01b03821661123757600280548290039055611255565b6001600160a01b0382165f9081526020819052604090208054820190555b816001600160a01b0316836001600160a01b03167fddf252ad1be2c89b69c2b068fc378daa952ba7f163c4a11628f55a4df523b3ef8360405161129a91815260200190565b60405180910390a3505050565b5f6112bb6001600160a01b03841683611308565b905080515f141580156112df5750808060200190518101906112dd9190611869565b155b156106ff57604051635274afe760e01b81526001600160a01b0384166004820152602401610482565b606061038283835f845f80856001600160a01b0316848660405161132c91906118ac565b5f6040518083038185875af1925050503d805f8114611366576040519150601f19603f3d011682016040523d82523d5f602084013e61136b565b606091505b509150915061137b868383611385565b9695505050505050565b60608261139a57611395826113e1565b610382565b81511580156113b157506001600160a01b0384163b155b156113da57604051639996b31560e01b81526001600160a01b0385166004820152602401610482565b5080610382565b8051156113f15780518082602001fd5b604051630a12f52160e11b815260040160405180910390fd5b602081525f82518060208401528060208501604085015e5f604082850101526040601f19601f83011684010191505092915050565b80356001600160a01b0381168114611455575f80fd5b919050565b5f806040838503121561146b575f80fd5b6114748361143f565b946020939093013593505050565b5f805f60608486031215611494575f80fd5b61149d8461143f565b92506114ab6020850161143f565b9150604084013590509250925092565b5f602082840312156114cb575f80fd5b6103828261143f565b5f80604083850312156114e5575f80fd5b50508035926020909101359150565b5f60208284031215611504575f80fd5b5035919050565b5f806040838503121561151c575f80fd5b6115258361143f565b91506115336020840161143f565b90509250929050565b600181811c9082168061155057607f821691505b60208210810361156e57634e487b7160e01b5f52602260045260245ffd5b50919050565b634e487b7160e01b5f52601160045260245ffd5b8082018082111561035e5761035e611574565b808202811582820484141761035e5761035e611574565b5f826115cc57634e487b7160e01b5f52601260045260245ffd5b500490565b8181038181111561035e5761035e611574565b5f602082840312156115f4575f80fd5b5051919050565b5f6020828403121561160b575f80fd5b815160ff81168114610382575f80fd5b60ff828116828216039081111561035e5761035e611574565b600181815b8085111561166e57815f190482111561165457611654611574565b8085161561166157918102915b93841c9390800290611639565b509250929050565b5f826116845750600161035e565b8161169057505f61035e565b81600181146116a657600281146116b0576116cc565b600191505061035e565b60ff8411156116c1576116c1611574565b50506001821b61035e565b5060208310610133831016604e8410600b84101617156116ef575081810a61035e565b6116f98383611634565b805f190482111561170c5761170c611574565b029392505050565b5f61038260ff841683611676565b634e487b7160e01b5f52603260045260245ffd5b5f815180845260208085019450602084015f5b8381101561176e5781516001600160a01b031687529582019590820190600101611749565b509495945050505050565b5f815180845260208085019450602084015f5b8381101561176e5781518752958201959082019060010161178c565b608081525f6117ba6080830187611736565b82810360208401526117cc8187611779565b604084019590955250506001600160a01b039190911660609091015292915050565b5f602082840312156117fe575f80fd5b815160038110610382575f80fd5b634e487b7160e01b5f52602160045260245ffd5b608081525f6118326080830187611736565b82810360208401526118448187611779565b6001600160a01b03958616604085015293909416606090920191909152509392505050565b5f60208284031215611879575f80fd5b81518015158114610382575f80fd5b60ff818116838216019081111561035e5761035e611574565b5f6103828383611676565b5f82518060208501845e5f92019182525091905056fea2646970667358221220b61b9e88cf64a8630b60bc9dc8e52182fae26a0b572d4bfdb2fc038d2da7cd3a64736f6c63430008190033",
    "sourcePath": "c:/Users/dev/source/repos/baluni-contracts/contracts/BaluniV1StablePool.sol",
    "compiler": {
        "name": "solc",
        "version": "0.8.25+commit.b61c2a91"
    },
    "functionHashes": {
        "SWAP_FEE_BPS()": "67a6c440",
        "allowance(address,address)": "dd62ed3e",
        "approve(address,uint256)": "095ea7b3",
        "asset1()": "7cd5f3f9",
        "asset2()": "e9423bf2",
        "balanceOf(address)": "70a08231",
        "calculateReceivedAmount(address,address,uint256)": "e4a4030f",
        "decimals()": "313ce567",
        "name()": "06fdde03",
        "oracle()": "7dc0d1d0",
        "provideLiquidity(uint256,uint256)": "7a16af7f",
        "rebalancer()": "01d22ccd",
        "removeLiquidity(uint256)": "9c8f9f23",
        "swap(address,address,uint256)": "df791e50",
        "symbol()": "95d89b41",
        "totalSupply()": "18160ddd",
        "transfer(address,uint256)": "a9059cbb",
        "transferFrom(address,address,uint256)": "23b872dd"
    },
    "gasEstimates": {
        "creation": {
            "codeDepositCost": "1278400",
            "executionCost": "infinite",
            "totalCost": "infinite"
        },
        "external": {
            "SWAP_FEE_BPS()": "261",
            "allowance(address,address)": "infinite",
            "approve(address,uint256)": "24780",
            "asset1()": "2348",
            "asset2()": "2435",
            "balanceOf(address)": "2626",
            "calculateReceivedAmount(address,address,uint256)": "infinite",
            "decimals()": "221",
            "name()": "infinite",
            "oracle()": "2370",
            "provideLiquidity(uint256,uint256)": "infinite",
            "rebalancer()": "2349",
            "removeLiquidity(uint256)": "infinite",
            "swap(address,address,uint256)": "infinite",
            "symbol()": "infinite",
            "totalSupply()": "2370",
            "transfer(address,uint256)": "51238",
            "transferFrom(address,address,uint256)": "infinite"
        },
        "internal": {
            "calculateAssetShareFromValue(uint256,address)": "infinite",
            "calculatePoolValue()": "infinite",
            "performRebalanceIfNeeded()": "infinite"
        }
    }
}