{
    "contractName": "BaluniV1Router",
    "abi": [
        {
            "inputs": [
                {
                    "internalType": "address",
                    "name": "target",
                    "type": "address"
                }
            ],
            "name": "AddressEmptyCode",
            "type": "error"
        },
        {
            "inputs": [
                {
                    "internalType": "address",
                    "name": "implementation",
                    "type": "address"
                }
            ],
            "name": "ERC1967InvalidImplementation",
            "type": "error"
        },
        {
            "inputs": [],
            "name": "ERC1967NonPayable",
            "type": "error"
        },
        {
            "inputs": [
                {
                    "internalType": "address",
                    "name": "spender",
                    "type": "address"
                },
                {
                    "internalType": "uint256",
                    "name": "allowance",
                    "type": "uint256"
                },
                {
                    "internalType": "uint256",
                    "name": "needed",
                    "type": "uint256"
                }
            ],
            "name": "ERC20InsufficientAllowance",
            "type": "error"
        },
        {
            "inputs": [
                {
                    "internalType": "address",
                    "name": "sender",
                    "type": "address"
                },
                {
                    "internalType": "uint256",
                    "name": "balance",
                    "type": "uint256"
                },
                {
                    "internalType": "uint256",
                    "name": "needed",
                    "type": "uint256"
                }
            ],
            "name": "ERC20InsufficientBalance",
            "type": "error"
        },
        {
            "inputs": [
                {
                    "internalType": "address",
                    "name": "approver",
                    "type": "address"
                }
            ],
            "name": "ERC20InvalidApprover",
            "type": "error"
        },
        {
            "inputs": [
                {
                    "internalType": "address",
                    "name": "receiver",
                    "type": "address"
                }
            ],
            "name": "ERC20InvalidReceiver",
            "type": "error"
        },
        {
            "inputs": [
                {
                    "internalType": "address",
                    "name": "sender",
                    "type": "address"
                }
            ],
            "name": "ERC20InvalidSender",
            "type": "error"
        },
        {
            "inputs": [
                {
                    "internalType": "address",
                    "name": "spender",
                    "type": "address"
                }
            ],
            "name": "ERC20InvalidSpender",
            "type": "error"
        },
        {
            "inputs": [],
            "name": "FailedInnerCall",
            "type": "error"
        },
        {
            "inputs": [],
            "name": "InvalidInitialization",
            "type": "error"
        },
        {
            "inputs": [],
            "name": "NotInitializing",
            "type": "error"
        },
        {
            "inputs": [
                {
                    "internalType": "address",
                    "name": "owner",
                    "type": "address"
                }
            ],
            "name": "OwnableInvalidOwner",
            "type": "error"
        },
        {
            "inputs": [
                {
                    "internalType": "address",
                    "name": "account",
                    "type": "address"
                }
            ],
            "name": "OwnableUnauthorizedAccount",
            "type": "error"
        },
        {
            "inputs": [],
            "name": "ReentrancyGuardReentrantCall",
            "type": "error"
        },
        {
            "inputs": [],
            "name": "UUPSUnauthorizedCallContext",
            "type": "error"
        },
        {
            "inputs": [
                {
                    "internalType": "bytes32",
                    "name": "slot",
                    "type": "bytes32"
                }
            ],
            "name": "UUPSUnsupportedProxiableUUID",
            "type": "error"
        },
        {
            "anonymous": false,
            "inputs": [
                {
                    "indexed": true,
                    "internalType": "address",
                    "name": "owner",
                    "type": "address"
                },
                {
                    "indexed": true,
                    "internalType": "address",
                    "name": "spender",
                    "type": "address"
                },
                {
                    "indexed": false,
                    "internalType": "uint256",
                    "name": "value",
                    "type": "uint256"
                }
            ],
            "name": "Approval",
            "type": "event"
        },
        {
            "anonymous": false,
            "inputs": [
                {
                    "indexed": false,
                    "internalType": "address",
                    "name": "user",
                    "type": "address"
                },
                {
                    "indexed": false,
                    "internalType": "uint256",
                    "name": "value",
                    "type": "uint256"
                }
            ],
            "name": "Burn",
            "type": "event"
        },
        {
            "anonymous": false,
            "inputs": [
                {
                    "indexed": false,
                    "internalType": "uint256",
                    "name": "newFee",
                    "type": "uint256"
                }
            ],
            "name": "ChangeBpsFee",
            "type": "event"
        },
        {
            "anonymous": false,
            "inputs": [
                {
                    "indexed": false,
                    "internalType": "address",
                    "name": "pool",
                    "type": "address"
                }
            ],
            "name": "ChangeRewardPool",
            "type": "event"
        },
        {
            "anonymous": false,
            "inputs": [
                {
                    "indexed": false,
                    "internalType": "address",
                    "name": "user",
                    "type": "address"
                },
                {
                    "components": [
                        {
                            "internalType": "address",
                            "name": "to",
                            "type": "address"
                        },
                        {
                            "internalType": "uint256",
                            "name": "value",
                            "type": "uint256"
                        },
                        {
                            "internalType": "bytes",
                            "name": "data",
                            "type": "bytes"
                        }
                    ],
                    "indexed": false,
                    "internalType": "struct IBaluniV1Agent.Call[]",
                    "name": "calls",
                    "type": "tuple[]"
                },
                {
                    "indexed": false,
                    "internalType": "address[]",
                    "name": "tokensReturn",
                    "type": "address[]"
                }
            ],
            "name": "Execute",
            "type": "event"
        },
        {
            "anonymous": false,
            "inputs": [
                {
                    "indexed": false,
                    "internalType": "uint64",
                    "name": "version",
                    "type": "uint64"
                }
            ],
            "name": "Initialized",
            "type": "event"
        },
        {
            "anonymous": false,
            "inputs": [
                {
                    "indexed": false,
                    "internalType": "string",
                    "name": "message",
                    "type": "string"
                },
                {
                    "indexed": false,
                    "internalType": "uint256",
                    "name": "value",
                    "type": "uint256"
                }
            ],
            "name": "Log",
            "type": "event"
        },
        {
            "anonymous": false,
            "inputs": [
                {
                    "indexed": false,
                    "internalType": "address",
                    "name": "user",
                    "type": "address"
                },
                {
                    "indexed": false,
                    "internalType": "uint256",
                    "name": "value",
                    "type": "uint256"
                }
            ],
            "name": "Mint",
            "type": "event"
        },
        {
            "anonymous": false,
            "inputs": [
                {
                    "indexed": true,
                    "internalType": "address",
                    "name": "previousOwner",
                    "type": "address"
                },
                {
                    "indexed": true,
                    "internalType": "address",
                    "name": "newOwner",
                    "type": "address"
                }
            ],
            "name": "OwnershipTransferred",
            "type": "event"
        },
        {
            "anonymous": false,
            "inputs": [
                {
                    "indexed": true,
                    "internalType": "address",
                    "name": "from",
                    "type": "address"
                },
                {
                    "indexed": true,
                    "internalType": "address",
                    "name": "to",
                    "type": "address"
                },
                {
                    "indexed": false,
                    "internalType": "uint256",
                    "name": "value",
                    "type": "uint256"
                }
            ],
            "name": "Transfer",
            "type": "event"
        },
        {
            "anonymous": false,
            "inputs": [
                {
                    "indexed": true,
                    "internalType": "address",
                    "name": "implementation",
                    "type": "address"
                }
            ],
            "name": "Upgraded",
            "type": "event"
        },
        {
            "inputs": [],
            "name": "UPGRADE_INTERFACE_VERSION",
            "outputs": [
                {
                    "internalType": "string",
                    "name": "",
                    "type": "string"
                }
            ],
            "stateMutability": "view",
            "type": "function"
        },
        {
            "inputs": [],
            "name": "USDC",
            "outputs": [
                {
                    "internalType": "address",
                    "name": "",
                    "type": "address"
                }
            ],
            "stateMutability": "view",
            "type": "function"
        },
        {
            "inputs": [],
            "name": "WNATIVE",
            "outputs": [
                {
                    "internalType": "address",
                    "name": "",
                    "type": "address"
                }
            ],
            "stateMutability": "view",
            "type": "function"
        },
        {
            "inputs": [],
            "name": "_BPS_BASE",
            "outputs": [
                {
                    "internalType": "uint256",
                    "name": "",
                    "type": "uint256"
                }
            ],
            "stateMutability": "view",
            "type": "function"
        },
        {
            "inputs": [],
            "name": "_BPS_FEE",
            "outputs": [
                {
                    "internalType": "uint256",
                    "name": "",
                    "type": "uint256"
                }
            ],
            "stateMutability": "view",
            "type": "function"
        },
        {
            "inputs": [],
            "name": "_MAX_BPS_FEE",
            "outputs": [
                {
                    "internalType": "uint256",
                    "name": "",
                    "type": "uint256"
                }
            ],
            "stateMutability": "view",
            "type": "function"
        },
        {
            "inputs": [],
            "name": "agentFactory",
            "outputs": [
                {
                    "internalType": "address",
                    "name": "",
                    "type": "address"
                }
            ],
            "stateMutability": "view",
            "type": "function"
        },
        {
            "inputs": [
                {
                    "internalType": "address",
                    "name": "owner",
                    "type": "address"
                },
                {
                    "internalType": "address",
                    "name": "spender",
                    "type": "address"
                }
            ],
            "name": "allowance",
            "outputs": [
                {
                    "internalType": "uint256",
                    "name": "",
                    "type": "uint256"
                }
            ],
            "stateMutability": "view",
            "type": "function"
        },
        {
            "inputs": [
                {
                    "internalType": "address",
                    "name": "spender",
                    "type": "address"
                },
                {
                    "internalType": "uint256",
                    "name": "value",
                    "type": "uint256"
                }
            ],
            "name": "approve",
            "outputs": [
                {
                    "internalType": "bool",
                    "name": "",
                    "type": "bool"
                }
            ],
            "stateMutability": "nonpayable",
            "type": "function"
        },
        {
            "inputs": [
                {
                    "internalType": "address",
                    "name": "account",
                    "type": "address"
                }
            ],
            "name": "balanceOf",
            "outputs": [
                {
                    "internalType": "uint256",
                    "name": "",
                    "type": "uint256"
                }
            ],
            "stateMutability": "view",
            "type": "function"
        },
        {
            "inputs": [
                {
                    "internalType": "uint256",
                    "name": "burnAmount",
                    "type": "uint256"
                }
            ],
            "name": "burnERC20",
            "outputs": [],
            "stateMutability": "nonpayable",
            "type": "function"
        },
        {
            "inputs": [
                {
                    "internalType": "uint256",
                    "name": "burnAmount",
                    "type": "uint256"
                }
            ],
            "name": "burnUSDC",
            "outputs": [],
            "stateMutability": "nonpayable",
            "type": "function"
        },
        {
            "inputs": [
                {
                    "internalType": "uint256",
                    "name": "totalBaluni",
                    "type": "uint256"
                },
                {
                    "internalType": "uint256",
                    "name": "totalERC20Balance",
                    "type": "uint256"
                },
                {
                    "internalType": "uint256",
                    "name": "baluniAmount",
                    "type": "uint256"
                },
                {
                    "internalType": "uint256",
                    "name": "tokenDecimals",
                    "type": "uint256"
                }
            ],
            "name": "calculateTokenShare",
            "outputs": [
                {
                    "internalType": "uint256",
                    "name": "",
                    "type": "uint256"
                }
            ],
            "stateMutability": "pure",
            "type": "function"
        },
        {
            "inputs": [
                {
                    "internalType": "address[]",
                    "name": "assets",
                    "type": "address[]"
                },
                {
                    "internalType": "uint256[]",
                    "name": "weights",
                    "type": "uint256[]"
                },
                {
                    "internalType": "address",
                    "name": "sender",
                    "type": "address"
                },
                {
                    "internalType": "address",
                    "name": "receiver",
                    "type": "address"
                },
                {
                    "internalType": "uint256",
                    "name": "limit",
                    "type": "uint256"
                },
                {
                    "internalType": "address",
                    "name": "",
                    "type": "address"
                }
            ],
            "name": "callRebalance",
            "outputs": [],
            "stateMutability": "nonpayable",
            "type": "function"
        },
        {
            "inputs": [
                {
                    "internalType": "address",
                    "name": "_agentFactory",
                    "type": "address"
                }
            ],
            "name": "changeAgentFactory",
            "outputs": [],
            "stateMutability": "nonpayable",
            "type": "function"
        },
        {
            "inputs": [
                {
                    "internalType": "uint256",
                    "name": "_newFee",
                    "type": "uint256"
                }
            ],
            "name": "changeBpsFee",
            "outputs": [],
            "stateMutability": "nonpayable",
            "type": "function"
        },
        {
            "inputs": [
                {
                    "internalType": "address",
                    "name": "_newRebalancer",
                    "type": "address"
                }
            ],
            "name": "changeRebalancer",
            "outputs": [],
            "stateMutability": "nonpayable",
            "type": "function"
        },
        {
            "inputs": [
                {
                    "internalType": "address",
                    "name": "_newTreasury",
                    "type": "address"
                }
            ],
            "name": "changeTreasury",
            "outputs": [],
            "stateMutability": "nonpayable",
            "type": "function"
        },
        {
            "inputs": [],
            "name": "decimals",
            "outputs": [
                {
                    "internalType": "uint8",
                    "name": "",
                    "type": "uint8"
                }
            ],
            "stateMutability": "view",
            "type": "function"
        },
        {
            "inputs": [
                {
                    "components": [
                        {
                            "internalType": "address",
                            "name": "to",
                            "type": "address"
                        },
                        {
                            "internalType": "uint256",
                            "name": "value",
                            "type": "uint256"
                        },
                        {
                            "internalType": "bytes",
                            "name": "data",
                            "type": "bytes"
                        }
                    ],
                    "internalType": "struct IBaluniV1Agent.Call[]",
                    "name": "calls",
                    "type": "tuple[]"
                },
                {
                    "internalType": "address[]",
                    "name": "tokensReturn",
                    "type": "address[]"
                }
            ],
            "name": "execute",
            "outputs": [],
            "stateMutability": "nonpayable",
            "type": "function"
        },
        {
            "inputs": [
                {
                    "internalType": "address",
                    "name": "_user",
                    "type": "address"
                }
            ],
            "name": "getAgentAddress",
            "outputs": [
                {
                    "internalType": "address",
                    "name": "",
                    "type": "address"
                }
            ],
            "stateMutability": "view",
            "type": "function"
        },
        {
            "inputs": [],
            "name": "getTokens",
            "outputs": [
                {
                    "internalType": "address[]",
                    "name": "",
                    "type": "address[]"
                }
            ],
            "stateMutability": "view",
            "type": "function"
        },
        {
            "inputs": [
                {
                    "internalType": "uint256",
                    "name": "amount",
                    "type": "uint256"
                }
            ],
            "name": "getUSDCShareValue",
            "outputs": [
                {
                    "internalType": "uint256",
                    "name": "",
                    "type": "uint256"
                }
            ],
            "stateMutability": "view",
            "type": "function"
        },
        {
            "inputs": [],
            "name": "getVersion",
            "outputs": [
                {
                    "internalType": "uint64",
                    "name": "",
                    "type": "uint64"
                }
            ],
            "stateMutability": "view",
            "type": "function"
        },
        {
            "inputs": [
                {
                    "internalType": "string",
                    "name": "name",
                    "type": "string"
                },
                {
                    "internalType": "string",
                    "name": "symbol",
                    "type": "string"
                }
            ],
            "name": "initialize",
            "outputs": [],
            "stateMutability": "nonpayable",
            "type": "function"
        },
        {
            "inputs": [
                {
                    "internalType": "address",
                    "name": "_usdc",
                    "type": "address"
                },
                {
                    "internalType": "address",
                    "name": "_wnative",
                    "type": "address"
                },
                {
                    "internalType": "address",
                    "name": "_1inchSpotAgg",
                    "type": "address"
                },
                {
                    "internalType": "address",
                    "name": "_uniRouter",
                    "type": "address"
                },
                {
                    "internalType": "address",
                    "name": "_uniFactory",
                    "type": "address"
                },
                {
                    "internalType": "address",
                    "name": "_rebalancer",
                    "type": "address"
                }
            ],
            "name": "initialize",
            "outputs": [],
            "stateMutability": "nonpayable",
            "type": "function"
        },
        {
            "inputs": [
                {
                    "internalType": "address",
                    "name": "token",
                    "type": "address"
                }
            ],
            "name": "liquidate",
            "outputs": [],
            "stateMutability": "nonpayable",
            "type": "function"
        },
        {
            "inputs": [],
            "name": "liquidateAll",
            "outputs": [],
            "stateMutability": "nonpayable",
            "type": "function"
        },
        {
            "inputs": [
                {
                    "internalType": "uint256",
                    "name": "balAmountToMint",
                    "type": "uint256"
                }
            ],
            "name": "mintWithUSDC",
            "outputs": [],
            "stateMutability": "nonpayable",
            "type": "function"
        },
        {
            "inputs": [
                {
                    "internalType": "address",
                    "name": "token0",
                    "type": "address"
                },
                {
                    "internalType": "address",
                    "name": "token1",
                    "type": "address"
                },
                {
                    "internalType": "address",
                    "name": "token2",
                    "type": "address"
                },
                {
                    "internalType": "uint256",
                    "name": "amount",
                    "type": "uint256"
                },
                {
                    "internalType": "address",
                    "name": "receiver",
                    "type": "address"
                }
            ],
            "name": "multiHopSwap",
            "outputs": [
                {
                    "internalType": "uint256",
                    "name": "amountOut",
                    "type": "uint256"
                }
            ],
            "stateMutability": "nonpayable",
            "type": "function"
        },
        {
            "inputs": [],
            "name": "name",
            "outputs": [
                {
                    "internalType": "string",
                    "name": "",
                    "type": "string"
                }
            ],
            "stateMutability": "view",
            "type": "function"
        },
        {
            "inputs": [],
            "name": "oracle",
            "outputs": [
                {
                    "internalType": "address",
                    "name": "",
                    "type": "address"
                }
            ],
            "stateMutability": "view",
            "type": "function"
        },
        {
            "inputs": [],
            "name": "owner",
            "outputs": [
                {
                    "internalType": "address",
                    "name": "",
                    "type": "address"
                }
            ],
            "stateMutability": "view",
            "type": "function"
        },
        {
            "inputs": [],
            "name": "proxiableUUID",
            "outputs": [
                {
                    "internalType": "bytes32",
                    "name": "",
                    "type": "bytes32"
                }
            ],
            "stateMutability": "view",
            "type": "function"
        },
        {
            "inputs": [],
            "name": "rebalancer",
            "outputs": [
                {
                    "internalType": "address",
                    "name": "",
                    "type": "address"
                }
            ],
            "stateMutability": "view",
            "type": "function"
        },
        {
            "inputs": [
                {
                    "internalType": "address",
                    "name": "_usdc",
                    "type": "address"
                },
                {
                    "internalType": "address",
                    "name": "_wnative",
                    "type": "address"
                },
                {
                    "internalType": "address",
                    "name": "_1inchSpotAgg",
                    "type": "address"
                },
                {
                    "internalType": "address",
                    "name": "_uniRouter",
                    "type": "address"
                },
                {
                    "internalType": "address",
                    "name": "_uniFactory",
                    "type": "address"
                },
                {
                    "internalType": "address",
                    "name": "_rebalancer",
                    "type": "address"
                },
                {
                    "internalType": "uint64",
                    "name": "version",
                    "type": "uint64"
                }
            ],
            "name": "reinitialize",
            "outputs": [],
            "stateMutability": "nonpayable",
            "type": "function"
        },
        {
            "inputs": [],
            "name": "renounceOwnership",
            "outputs": [],
            "stateMutability": "nonpayable",
            "type": "function"
        },
        {
            "inputs": [
                {
                    "internalType": "uint256",
                    "name": "balAmountToMint",
                    "type": "uint256"
                }
            ],
            "name": "requiredUSDCtoMint",
            "outputs": [
                {
                    "internalType": "uint256",
                    "name": "",
                    "type": "uint256"
                }
            ],
            "stateMutability": "view",
            "type": "function"
        },
        {
            "inputs": [
                {
                    "internalType": "address",
                    "name": "token0",
                    "type": "address"
                },
                {
                    "internalType": "address",
                    "name": "token1",
                    "type": "address"
                },
                {
                    "internalType": "uint256",
                    "name": "amount",
                    "type": "uint256"
                },
                {
                    "internalType": "address",
                    "name": "receiver",
                    "type": "address"
                }
            ],
            "name": "singleSwap",
            "outputs": [
                {
                    "internalType": "uint256",
                    "name": "amountOut",
                    "type": "uint256"
                }
            ],
            "stateMutability": "nonpayable",
            "type": "function"
        },
        {
            "inputs": [],
            "name": "symbol",
            "outputs": [
                {
                    "internalType": "string",
                    "name": "",
                    "type": "string"
                }
            ],
            "stateMutability": "view",
            "type": "function"
        },
        {
            "inputs": [
                {
                    "internalType": "uint256",
                    "name": "amount",
                    "type": "uint256"
                },
                {
                    "internalType": "address",
                    "name": "token",
                    "type": "address"
                }
            ],
            "name": "tokenValuation",
            "outputs": [
                {
                    "internalType": "uint256",
                    "name": "",
                    "type": "uint256"
                }
            ],
            "stateMutability": "view",
            "type": "function"
        },
        {
            "inputs": [],
            "name": "totalSupply",
            "outputs": [
                {
                    "internalType": "uint256",
                    "name": "",
                    "type": "uint256"
                }
            ],
            "stateMutability": "view",
            "type": "function"
        },
        {
            "inputs": [],
            "name": "totalValuation",
            "outputs": [
                {
                    "internalType": "uint256",
                    "name": "",
                    "type": "uint256"
                }
            ],
            "stateMutability": "view",
            "type": "function"
        },
        {
            "inputs": [
                {
                    "internalType": "address",
                    "name": "to",
                    "type": "address"
                },
                {
                    "internalType": "uint256",
                    "name": "value",
                    "type": "uint256"
                }
            ],
            "name": "transfer",
            "outputs": [
                {
                    "internalType": "bool",
                    "name": "",
                    "type": "bool"
                }
            ],
            "stateMutability": "nonpayable",
            "type": "function"
        },
        {
            "inputs": [
                {
                    "internalType": "address",
                    "name": "from",
                    "type": "address"
                },
                {
                    "internalType": "address",
                    "name": "to",
                    "type": "address"
                },
                {
                    "internalType": "uint256",
                    "name": "value",
                    "type": "uint256"
                }
            ],
            "name": "transferFrom",
            "outputs": [
                {
                    "internalType": "bool",
                    "name": "",
                    "type": "bool"
                }
            ],
            "stateMutability": "nonpayable",
            "type": "function"
        },
        {
            "inputs": [
                {
                    "internalType": "address",
                    "name": "newOwner",
                    "type": "address"
                }
            ],
            "name": "transferOwnership",
            "outputs": [],
            "stateMutability": "nonpayable",
            "type": "function"
        },
        {
            "inputs": [],
            "name": "treasury",
            "outputs": [
                {
                    "internalType": "address",
                    "name": "",
                    "type": "address"
                }
            ],
            "stateMutability": "view",
            "type": "function"
        },
        {
            "inputs": [],
            "name": "unitPrice",
            "outputs": [
                {
                    "internalType": "uint256",
                    "name": "",
                    "type": "uint256"
                }
            ],
            "stateMutability": "view",
            "type": "function"
        },
        {
            "inputs": [
                {
                    "internalType": "address",
                    "name": "newImplementation",
                    "type": "address"
                },
                {
                    "internalType": "bytes",
                    "name": "data",
                    "type": "bytes"
                }
            ],
            "name": "upgradeToAndCall",
            "outputs": [],
            "stateMutability": "payable",
            "type": "function"
        }
    ],
    "bytecode": "60a0604052306080523480156012575f80fd5b50608051614b336100395f395f818161348d015281816134b601526135f50152614b335ff3fe6080604052600436106102a5575f3560e01c806361d027b31161016f578063aa95d893116100d8578063cc2a9a5b11610092578063eedc3c501161006d578063eedc3c5014610825578063f2fde38b14610844578063fe0a4dd114610863578063fe330a5114610882575f80fd5b8063cc2a9a5b146107d3578063dd62ed3e146107f2578063e73faa2d14610811575f80fd5b8063aa95d89314610712578063ad3cb1cc14610731578063b0d60ba014610761578063b14f2a3914610780578063b381cf401461079f578063b9f5e617146107be575f80fd5b80638537718811610129578063853771881461064e57806389a30271146106635780638da5cb5b1461068257806395d89b41146106be578063a9059cbb146106d2578063aa6ca808146106f1575f80fd5b806361d027b31461059f57806370a08231146105be578063715018a6146105dd57806371ddcfb8146105f15780637dc0d1d0146106105780637df107ea1461062f575f80fd5b8063295b9300116102115780633c2066a9116101cb5780633c2066a9146105075780634cd88b761461051b5780634f1ef2861461053a57806352d1902d1461054d578063599f69f7146105615780635efaaebb14610580575f80fd5b8063295b9300146104665780632bdd955a1461047a5780632d6bc8ea146104995780632f865568146104b8578063313ce567146104d757806334decfc9146104f2575f80fd5b80630cfc7386116102625780630cfc7386146103945780630d8e6e2c146103b357806318160ddd146103df5780631a168da21461040957806323b872dd1461042857806327d54a9214610447575f80fd5b806301d22ccd146102a957806306497cb9146102e557806306fdde03146103065780630918281b14610327578063095ea7b3146103465780630a38abab14610375575b5f80fd5b3480156102b4575f80fd5b50600b546102c8906001600160a01b031681565b6040516001600160a01b0390911681526020015b60405180910390f35b3480156102f0575f80fd5b506103046102ff366004613cdf565b6108a1565b005b348015610311575f80fd5b5061031a6108e4565b6040516102dc9190613d24565b348015610332575f80fd5b50610304610341366004613d4a565b6109a4565b348015610351575f80fd5b50610365610360366004613d65565b6109ce565b60405190151581526020016102dc565b348015610380575f80fd5b5061030461038f366004613d4a565b6109e7565b34801561039f575f80fd5b506103046103ae366004613cdf565b610a11565b3480156103be575f80fd5b506103c7610df0565b6040516001600160401b0390911681526020016102dc565b3480156103ea575f80fd5b505f80516020614a7e833981519152545b6040519081526020016102dc565b348015610414575f80fd5b50610304610423366004613cdf565b610e14565b348015610433575f80fd5b50610365610442366004613d8f565b611105565b348015610452575f80fd5b506102c8610461366004613d4a565b61112a565b348015610471575f80fd5b506103fb611196565b348015610485575f80fd5b506103fb610494366004613dcd565b61119f565b3480156104a4575f80fd5b506103fb6104b3366004613dfb565b6111aa565b3480156104c3575f80fd5b506103046104d2366004613d4a565b611374565b3480156104e2575f80fd5b50604051601281526020016102dc565b3480156104fd575f80fd5b506103fb60025481565b348015610512575f80fd5b50610304611539565b348015610526575f80fd5b50610304610535366004613f22565b611592565b610304610548366004613f81565b61168d565b348015610558575f80fd5b506103fb6116ac565b34801561056c575f80fd5b5061030461057b36600461400a565b6116c7565b34801561058b575f80fd5b506103fb61059a3660046140b4565b611751565b3480156105aa575f80fd5b50600c546102c8906001600160a01b031681565b3480156105c9575f80fd5b506103fb6105d8366004613d4a565b61191d565b3480156105e8575f80fd5b50610304611943565b3480156105fc575f80fd5b506103fb61060b366004613cdf565b611954565b34801561061b575f80fd5b506009546102c8906001600160a01b031681565b34801561063a575f80fd5b50600a546102c8906001600160a01b031681565b348015610659575f80fd5b506103fb60045481565b34801561066e575f80fd5b506007546102c8906001600160a01b031681565b34801561068d575f80fd5b507f9016d09d72d40fdae2fd8ceac6b6234c7706214fd39c1cd1e609a0528c199300546001600160a01b03166102c8565b3480156106c9575f80fd5b5061031a61195e565b3480156106dd575f80fd5b506103656106ec366004613d65565b61199c565b3480156106fc575f80fd5b506107056119a9565b6040516102dc919061415b565b34801561071d575f80fd5b506103fb61072c366004613cdf565b6119b5565b34801561073c575f80fd5b5061031a604051806040016040528060058152602001640352e302e360dc1b81525081565b34801561076c575f80fd5b5061030461077b36600461416d565b611a00565b34801561078b575f80fd5b5061030461079a366004613d4a565b611b62565b3480156107aa575f80fd5b506008546102c8906001600160a01b031681565b3480156107c9575f80fd5b506103fb60035481565b3480156107de575f80fd5b506103046107ed366004614209565b611b8c565b3480156107fd575f80fd5b506103fb61080c366004614287565b611d8e565b34801561081c575f80fd5b506103fb611dd7565b348015610830575f80fd5b5061030461083f36600461434a565b611de9565b34801561084f575f80fd5b5061030461085e366004613d4a565b612550565b34801561086e575f80fd5b5061030461087d366004613cdf565b61258a565b34801561088d575f80fd5b506103fb61089c366004614458565b612ae4565b6108a9612af1565b60038190556040518181527fbea1b31142ae4b1f4efad240349036d718b7950d246c127768097ccf602fc7e09060200160405180910390a150565b7f52c63247e1f47db19d5ce0460030c497f067ca4cebf71ba98eeadabe20bace0380546060915f80516020614a5e8339815191529161092290614487565b80601f016020809104026020016040519081016040528092919081815260200182805461094e90614487565b80156109995780601f1061097057610100808354040283529160200191610999565b820191905f5260205f20905b81548152906001019060200180831161097c57829003601f168201915b505050505091505090565b6109ac612af1565b600b80546001600160a01b0319166001600160a01b0392909216919091179055565b5f336109db818585612b4c565b60019150505b92915050565b6109ef612af1565b600a80546001600160a01b0319166001600160a01b0392909216919091179055565b610a19612b5e565b5f610a22612b95565b90505f610a3a5f80516020614a7e8339815191525490565b90505f81610a4884866144cd565b610a5291906144e4565b6007549091506001600160a01b03166323b872dd3330610a7764e8d4a51000866144e4565b6040516001600160e01b031960e086901b1681526001600160a01b03938416600482015292909116602483015260448201526064016020604051808303815f875af1158015610ac8573d5f803e3d5ffd5b505050506040513d601f19601f82011682018060405250810190610aec9190614503565b506007546040516370a0823160e01b81523360048201525f916001600160a01b0316906370a0823190602401602060405180830381865afa158015610b33573d5f803e3d5ffd5b505050506040513d601f19601f82011682018060405250810190610b579190614522565b600754604051636eb1769f60e11b81523360048201523060248201529192505f916001600160a01b039091169063dd62ed3e90604401602060405180830381865afa158015610ba8573d5f803e3d5ffd5b505050506040513d601f19601f82011682018060405250810190610bcc9190614522565b90505f8411610c2d5760405162461bcd60e51b815260206004820152602260248201527f546f74616c2042414c554e4920737570706c792063616e6e6f74206265207a65604482015261726f60f01b60648201526084015b60405180910390fd5b610c3c64e8d4a51000846144e4565b821015610c8b5760405162461bcd60e51b815260206004820152601c60248201527f555344432062616c616e636520697320696e73756666696369656e74000000006044820152606401610c24565b610c9a64e8d4a51000846144e4565b811015610ce95760405162461bcd60e51b815260206004820152601960248201527f436865636b2074686520746f6b656e20616c6c6f77616e6365000000000000006044820152606401610c24565b610cf33387612c51565b7f0f6798a560793a54c3bcfe86a93cde1e73087d944c0ea20544137d41213968853387604051610d24929190614539565b60405180910390a15f60045460035464e8d4a5100086610d4491906144e4565b610d4e91906144cd565b610d5891906144e4565b600754600c5460405163a9059cbb60e01b81529293506001600160a01b039182169263a9059cbb92610d909216908590600401614539565b6020604051808303815f875af1158015610dac573d5f803e3d5ffd5b505050506040513d601f19601f82011682018060405250810190610dd09190614503565b50505050505050610ded60015f80516020614abe83398151915255565b50565b5f610e0f5f80516020614ade833981519152546001600160401b031690565b905090565b610e1c612b5e565b80610e263361191d565b1015610e675760405162461bcd60e51b815260206004820152601060248201526f125b9cdd59999a58da595b9d0810905360821b6044820152606401610c24565b5f5b610e736005612c98565b8110156110ab575f610e86600583612ca1565b90505f610e9e5f80516020614a7e8339815191525490565b6040516370a0823160e01b81523060048201529091505f906001600160a01b038416906370a0823190602401602060405180830381865afa158015610ee5573d5f803e3d5ffd5b505050506040513d601f19601f82011682018060405250810190610f099190614522565b9050801580610f2057506001600160a01b03831630145b15610f2d575050506110a3565b5f836001600160a01b031663313ce5676040518163ffffffff1660e01b8152600401602060405180830381865afa158015610f6a573d5f803e3d5ffd5b505050506040513d601f19601f82011682018060405250810190610f8e9190614552565b60ff1690505f610fa084848985612cac565b90505f610fac82612dc9565b60405163a9059cbb60e01b81529091506001600160a01b0387169063a9059cbb90610fdd9033908590600401614539565b6020604051808303815f875af1158015610ff9573d5f803e3d5ffd5b505050506040513d601f19601f8201168201806040525081019061101d9190614503565b50600c546001600160a01b038088169163a9059cbb911661103e8486614572565b6040518363ffffffff1660e01b815260040161105b929190614539565b6020604051808303815f875af1158015611077573d5f803e3d5ffd5b505050506040513d601f19601f8201168201806040525081019061109b9190614503565b505050505050505b600101610e69565b506110b63382612df2565b7fcc16f5dbb4873280815c1ee09dbd06736cffcc184412cf7a71a0fdb75d397ca533826040516110e7929190614539565b60405180910390a1610ded60015f80516020614abe83398151915255565b5f33611112858285612e26565b61111d858585612e83565b60019150505b9392505050565b600a546040516313eaa54960e11b81526001600160a01b0383811660048301525f9216906327d54a9290602401602060405180830381865afa158015611172573d5f803e3d5ffd5b505050506040513d601f19601f820116820180604052508101906109e19190614585565b5f610e0f612b95565b5f6111238383612ee0565b5f3033036111e95760405162461bcd60e51b815260206004820152600c60248201526b2bb937b7339039b2b73232b960a11b6044820152606401610c24565b5f83116112265760405162461bcd60e51b815260206004820152600b60248201526a0416d6f756e7420697320360ac1b6044820152606401610c24565b6040516370a0823160e01b815233600482015283906001600160a01b038716906370a0823190602401602060405180830381865afa15801561126a573d5f803e3d5ffd5b505050506040513d601f19601f8201168201806040525081019061128e9190614522565b10156112d35760405162461bcd60e51b8152602060048201526014602482015273496e73756666696369656e742042616c616e636560601b6044820152606401610c24565b6040516323b872dd60e01b8152336004820152306024820152604481018490526001600160a01b038616906323b872dd906064016020604051808303815f875af1158015611323573d5f803e3d5ffd5b505050506040513d601f19601f820116820180604052508101906113479190614503565b505f5461135f9086906001600160a01b03168561313f565b61136b85858585613294565b95945050505050565b6040516370a0823160e01b81523060048201525f906001600160a01b038316906370a0823190602401602060405180830381865afa1580156113b8573d5f803e3d5ffd5b505050506040513d601f19601f820116820180604052508101906113dc9190614522565b600e54600754604051630b4c774160e11b81529293505f926001600160a01b0392831692631698ee829261141c92889290911690610bb8906004016145a0565b602060405180830381865afa158015611437573d5f803e3d5ffd5b505050506040513d601f19601f8201168201806040525081019061145b9190614585565b600d549091506114769084906001600160a01b03168461313f565b8115156001600160a01b0382161580159061148e5750805b156114d5576007545f906114ae9086906001600160a01b03168630613294565b90505f81116114cf5760405162461bcd60e51b8152600401610c24906145c8565b50611533565b6001600160a01b0382161580156114e95750805b15611533576008546007545f916115109187916001600160a01b0390811691168730613388565b90505f81116115315760405162461bcd60e51b8152600401610c24906145c8565b505b50505050565b611541612b5e565b5f61154c6005612c98565b90505f5b81811015611578575f611564600583612ca1565b905061156f81611374565b50600101611550565b505061159060015f80516020614abe83398151915255565b565b5f80516020614ade8339815191528054600160401b810460ff1615906001600160401b03165f811580156115c35750825b90505f826001600160401b031660011480156115de5750303b155b9050811580156115ec575080155b1561160a5760405163f92ee8a960e01b815260040160405180910390fd5b845467ffffffffffffffff19166001178555831561163457845460ff60401b1916600160401b1785555b61163e8787613470565b831561168457845460ff60401b19168555604051600181527fc7f505b2f371ae2175ee4913f4499e1f2633a7b5936321eed1cdaeb6115181d29060200160405180910390a15b50505050505050565b611695613482565b61169e82613526565b6116a8828261352e565b5050565b5f6116b56135ea565b505f80516020614a9e83398151915290565b604080515f81526020810191829052600b54600754633c2fddc560e21b90935290916001600160a01b039182169163f0bf7714916117199185918e918e918e918e918c918f918f91166024890161466b565b5f604051808303815f87803b158015611730575f80fd5b505af1158015611742573d5f803e3d5ffd5b50505050505050505050505050565b5f3033036117905760405162461bcd60e51b815260206004820152600c60248201526b2bb937b7339039b2b73232b960a11b6044820152606401610c24565b5f83116117cd5760405162461bcd60e51b815260206004820152600b60248201526a0416d6f756e7420697320360ac1b6044820152606401610c24565b6040516370a0823160e01b815233600482015283906001600160a01b038816906370a0823190602401602060405180830381865afa158015611811573d5f803e3d5ffd5b505050506040513d601f19601f820116820180604052508101906118359190614522565b101561187a5760405162461bcd60e51b8152602060048201526014602482015273496e73756666696369656e742042616c616e636560601b6044820152606401610c24565b6040516323b872dd60e01b8152336004820152306024820152604481018490526001600160a01b038716906323b872dd906064016020604051808303815f875af11580156118ca573d5f803e3d5ffd5b505050506040513d601f19601f820116820180604052508101906118ee9190614503565b505f546119069087906001600160a01b03168561313f565b6119138686868686613388565b9695505050505050565b6001600160a01b03165f9081525f80516020614a5e833981519152602052604090205490565b61194b612af1565b6115905f613633565b5f6109e1826136a3565b7f52c63247e1f47db19d5ce0460030c497f067ca4cebf71ba98eeadabe20bace0480546060915f80516020614a5e8339815191529161092290614487565b5f336109db818585612e83565b6060610e0f6005613733565b5f806119bf612b95565b90505f6119d75f80516020614a7e8339815191525490565b90505f816119e584876144cd565b6119ef91906144e4565b905061136b64e8d4a51000826144e4565b5f80516020614ade8339815191528054829190600160401b900460ff1680611a35575080546001600160401b03808416911610155b15611a535760405163f92ee8a960e01b815260040160405180910390fd5b805468ffffffffffffffffff19166001600160401b03831617600160401b1781556101f4600255601e600355612710600455600780546001600160a01b03808c166001600160a01b03199283168117909355600880548c8316908416179055600980548b8316908416179055600d80548a8316908416179055600e805491891691909216179055611ae69060059061373f565b50600b80546001600160a01b0386166001600160a01b031991821617909155600c805490911633179055805460ff60401b191681556040516001600160401b03831681527fc7f505b2f371ae2175ee4913f4499e1f2633a7b5936321eed1cdaeb6115181d29060200160405180910390a1505050505050505050565b611b6a612af1565b600c80546001600160a01b0319166001600160a01b0392909216919091179055565b5f80516020614ade8339815191528054600160401b810460ff1615906001600160401b03165f81158015611bbd5750825b90505f826001600160401b03166001148015611bd85750303b155b905081158015611be6575080155b15611c045760405163f92ee8a960e01b815260040160405180910390fd5b845467ffffffffffffffff191660011785558315611c2e57845460ff60401b1916600160401b1785555b611c746040518060400160405280600681526020016542616c756e6960d01b8152506040518060400160405280600681526020016542414c554e4960d01b815250613470565b611c7d33613753565b611c85613764565b611c8d613774565b611c9f30670de0b6b3a7640000612c51565b6101f4600255601e600355612710600455600780546001600160a01b03808e166001600160a01b03199283168117909355600880548e8316908416179055600980548d8316908416179055600d80548c8316908416179055600e8054918b1691909216179055611d119060059061373f565b50600b80546001600160a01b0388166001600160a01b031991821617909155600c8054909116331790558315611d8157845460ff60401b19168555604051600181527fc7f505b2f371ae2175ee4913f4499e1f2633a7b5936321eed1cdaeb6115181d29060200160405180910390a15b5050505050505050505050565b6001600160a01b039182165f9081527f52c63247e1f47db19d5ce0460030c497f067ca4cebf71ba98eeadabe20bace016020908152604080832093909416825291909152205490565b5f610e0f670de0b6b3a76400006136a3565b611df1612b5e565b600a546001600160a01b0316611e415760405162461bcd60e51b81526020600482015260156024820152741059d95b9d08199858dd1bdc9e481b9bdd081cd95d605a1b6044820152606401610c24565b600a54604051639b76a5cd60e01b81523360048201525f916001600160a01b031690639b76a5cd906024016020604051808303815f875af1158015611e88573d5f803e3d5ffd5b505050506040513d601f19601f82011682018060405250810190611eac9190614585565b90505f82516001600160401b03811115611ec857611ec8613e4b565b604051908082528060200260200182016040528015611ef1578160200160208202803683370190505b5090505f83516001600160401b03811115611f0e57611f0e613e4b565b604051908082528060200260200182016040528015611f37578160200160208202803683370190505b5090505f5b845181101561203757611f696005868381518110611f5c57611f5c61471a565b602002602001015161377c565b15838281518110611f7c57611f7c61471a565b602002602001019015159081151581525050848181518110611fa057611fa061471a565b60209081029190910101516040516370a0823160e01b81523060048201526001600160a01b03909116906370a0823190602401602060405180830381865afa158015611fee573d5f803e3d5ffd5b505050506040513d601f19601f820116820180604052508101906120129190614522565b8282815181106120245761202461471a565b6020908102919091010152600101611f3c565b50604051630eedc3c560e41b81526001600160a01b0384169063eedc3c5090612066908890889060040161472e565b5f604051808303815f87803b15801561207d575f80fd5b505af115801561208f573d5f803e3d5ffd5b505050505f5b8451811015612535575f8582815181106120b1576120b161471a565b60209081029190910101516040516370a0823160e01b81523060048201529091505f906001600160a01b038316906370a0823190602401602060405180830381865afa158015612103573d5f803e3d5ffd5b505050506040513d601f19601f820116820180604052508101906121279190614522565b600e54600854604051630b4c774160e11b81529293505f926001600160a01b0392831692631698ee829261216792889290911690610bb8906004016145a0565b602060405180830381865afa158015612182573d5f803e3d5ffd5b505050506040513d601f19601f820116820180604052508101906121a69190614585565b600e54600854604051630b4c774160e11b81529293505f926001600160a01b0392831692631698ee82926121e6928992909116906101f4906004016145a0565b602060405180830381865afa158015612201573d5f803e3d5ffd5b505050506040513d601f19601f820116820180604052508101906122259190614585565b600e54600754604051630b4c774160e11b81529293505f926001600160a01b0392831692631698ee8292612265928a92909116906101f4906004016145a0565b602060405180830381865afa158015612280573d5f803e3d5ffd5b505050506040513d601f19601f820116820180604052508101906122a49190614585565b600e54600754604051630b4c774160e11b81529293505f926001600160a01b0392831692631698ee82926122e4928b9290911690610bb8906004016145a0565b602060405180830381865afa1580156122ff573d5f803e3d5ffd5b505050506040513d601f19601f820116820180604052508101906123239190614585565b90505f6001600160a01b03851615158061234557506001600160a01b03841615155b8061235857506001600160a01b03821615155b8061236b57506001600160a01b03831615155b905089888151811061237f5761237f61471a565b602002602001015180156123905750805b156123a2576123a060058861373f565b505b5f8989815181106123b5576123b561471a565b6020026020010151876123c89190614572565b90508161244f5760405163a9059cbb60e01b81526001600160a01b0389169063a9059cbb906123fd9033908590600401614539565b6020604051808303815f875af1158015612419573d5f803e3d5ffd5b505050506040513d601f19601f8201168201806040525081019061243d9190614503565b5050505050505050505050505061253a565b8989815181106124615761246161471a565b6020026020010151871115612521575f6004546003548361248291906144cd565b61248c91906144e4565b90508d8a815181106124a0576124a061471a565b6020908102919091010151600c5460405163a9059cbb60e01b81526001600160a01b039283169263a9059cbb926124de929116908590600401614539565b6020604051808303815f875af11580156124fa573d5f803e3d5ffd5b505050506040513d601f19601f8201168201806040525081019061251e9190614503565b50505b505060019096019550612095945050505050565b505050505b6116a860015f80516020614abe83398151915255565b612558612af1565b6001600160a01b03811661258157604051631e4fbdf760e01b81525f6004820152602401610c24565b610ded81613633565b612592612b5e565b5f81116125d45760405162461bcd60e51b815260206004820152601060248201526f125b9cdd59999a58da595b9d0810905360821b6044820152606401610c24565b5f5b6125e06005612c98565b8110156110ab575f6125f3600583612ca1565b90505f61260b5f80516020614a7e8339815191525490565b6040516370a0823160e01b81523060048201529091505f906001600160a01b038416906370a0823190602401602060405180830381865afa158015612652573d5f803e3d5ffd5b505050506040513d601f19601f820116820180604052508101906126769190614522565b90508015155f0361268957505050612adc565b306001600160a01b038416036126a157505050612adc565b5f836001600160a01b031663313ce5676040518163ffffffff1660e01b8152600401602060405180830381865afa1580156126de573d5f803e3d5ffd5b505050506040513d601f19601f820116820180604052508101906127029190614552565b60ff1690505f61271484848985612cac565b6007549091506001600160a01b03908116908616036127aa5760075460405163a9059cbb60e01b81526001600160a01b039091169063a9059cbb9061275f9033908590600401614539565b6020604051808303815f875af115801561277b573d5f803e3d5ffd5b505050506040513d601f19601f8201168201806040525081019061279f9190614503565b505050505050612adc565b600e54600754604051630b4c774160e11b81525f926001600160a01b0390811692631698ee82926127e5928b921690610bb8906004016145a0565b602060405180830381865afa158015612800573d5f803e3d5ffd5b505050506040513d601f19601f820116820180604052508101906128249190614585565b600d5490915061283f9087906001600160a01b03168461313f565b6001600160a01b03811615612990576007545f906128699088906001600160a01b03168530613294565b90505f61287582612dc9565b60075460405163a9059cbb60e01b81529192506001600160a01b03169063a9059cbb906128a89033908590600401614539565b6020604051808303815f875af11580156128c4573d5f803e3d5ffd5b505050506040513d601f19601f820116820180604052508101906128e89190614503565b50600754600c546001600160a01b039182169163a9059cbb911661290c8486614572565b6040518363ffffffff1660e01b8152600401612929929190614539565b6020604051808303815f875af1158015612945573d5f803e3d5ffd5b505050506040513d601f19601f820116820180604052508101906129699190614503565b505f82116129895760405162461bcd60e51b8152600401610c24906145c8565b5050612ad5565b6008546007545f916129b29189916001600160a01b0390811691168633613388565b90505f6129be82612dc9565b60075460405163a9059cbb60e01b81529192506001600160a01b03169063a9059cbb906129f19033908590600401614539565b6020604051808303815f875af1158015612a0d573d5f803e3d5ffd5b505050506040513d601f19601f82011682018060405250810190612a319190614503565b50600754600c546001600160a01b039182169163a9059cbb9116612a558486614572565b6040518363ffffffff1660e01b8152600401612a72929190614539565b6020604051808303815f875af1158015612a8e573d5f803e3d5ffd5b505050506040513d601f19601f82011682018060405250810190612ab29190614503565b505f8211612ad25760405162461bcd60e51b8152600401610c24906145c8565b50505b5050505050505b6001016125d6565b5f61136b85858585612cac565b33612b237f9016d09d72d40fdae2fd8ceac6b6234c7706214fd39c1cd1e609a0528c199300546001600160a01b031690565b6001600160a01b0316146115905760405163118cdaa760e01b8152336004820152602401610c24565b612b59838383600161379d565b505050565b5f80516020614abe833981519152805460011901612b8f57604051633ee5aeb560e01b815260040160405180910390fd5b60029055565b5f805f5b612ba36005612c98565b811015612c4b575f612bb6600583612ca1565b6040516370a0823160e01b81523060048201529091505f906001600160a01b038316906370a0823190602401602060405180830381865afa158015612bfd573d5f803e3d5ffd5b505050506040513d601f19601f82011682018060405250810190612c219190614522565b90505f612c2e8284612ee0565b9050612c3a81866147c8565b94505060019092019150612b999050565b50919050565b6001600160a01b038216612c7a5760405163ec442f0560e01b81525f6004820152602401610c24565b6116a85f8383613880565b60015f80516020614abe83398151915255565b5f6109e1825490565b5f61112383836139b9565b5f808511612cfc5760405162461bcd60e51b815260206004820152601b60248201527f546f74616c20737570706c792063616e6e6f74206265207a65726f00000000006044820152606401610c24565b6012821115612d4d5760405162461bcd60e51b815260206004820152601e60248201527f546f6b656e20646563696d616c732073686f756c64206265203c3d20313800006044820152606401610c24565b5f806012841015612da157612d63846012614572565b612d6e90600a6148bb565b612d7890886144e4565b9150612d85846012614572565b612d9090600a6148bb565b612d9a90866144e4565b9050612da7565b50859050835b5f82612db388846144cd565b612dbd91906144e4565b98975050505050505050565b5f80600454600354600454612dde9190614572565b612de890856144cd565b61112391906144e4565b6001600160a01b038216612e1b57604051634b637e8f60e11b81525f6004820152602401610c24565b6116a8825f83613880565b5f612e318484611d8e565b90505f1981146115335781811015612e7557604051637dc7a0d960e11b81526001600160a01b03841660048201526024810182905260448101839052606401610c24565b61153384848484035f61379d565b6001600160a01b038316612eac57604051634b637e8f60e11b81525f6004820152602401610c24565b6001600160a01b038216612ed55760405163ec442f0560e01b81525f6004820152602401610c24565b612b59838383613880565b5f805f836001600160a01b031663313ce5676040518163ffffffff1660e01b8152600401602060405180830381865afa158015612f1f573d5f803e3d5ffd5b505050506040513d601f19601f82011682018060405250810190612f439190614552565b90505f60075f9054906101000a90046001600160a01b03166001600160a01b031663313ce5676040518163ffffffff1660e01b8152600401602060405180830381865afa158015612f96573d5f803e3d5ffd5b505050506040513d601f19601f82011682018060405250810190612fba9190614552565b6007549091506001600160a01b0390811690861603612fec57612fe28664e8d4a510006144cd565b93505050506109e1565b60095460075460405163802431fb60e01b81526001600160a01b03888116600483015291821660248201525f604482015291169063802431fb90606401602060405180830381865afa925050508015613062575060408051601f3d908101601f1916820190925261305f91810190614522565b60015b613071575f93505050506109e1565b92508060ff168260ff16036130ad57670de0b6b3a7640000836130998864e8d4a510006144cd565b6130a391906144cd565b612fe291906144e4565b5f6130b882846148c6565b6130c390600a6148df565b905060128360ff16101561310d57670de0b6b3a76400006130e482866144cd565b6130ee838a6144cd565b6130f891906144cd565b61310291906144e4565b9450505050506109e1565b670de0b6b3a764000061312082866144cd565b61312a90896144cd565b61313491906144e4565b979650505050505050565b604051636eb1769f60e11b81523060048201526001600160a01b0383811660248301528491839183169063dd62ed3e90604401602060405180830381865afa15801561318d573d5f803e3d5ffd5b505050506040513d601f19601f820116820180604052508101906131b19190614522565b10156115335760405163095ea7b360e01b81526001600160a01b0382169063095ea7b3906131e59086905f90600401614539565b6020604051808303815f875af1158015613201573d5f803e3d5ffd5b505050506040513d601f19601f820116820180604052508101906132259190614503565b5060405163095ea7b360e01b81526001600160a01b0382169063095ea7b3906132549086908690600401614539565b6020604051808303815f875af1158015613270573d5f803e3d5ffd5b505050506040513d601f19601f820116820180604052508101906115319190614503565b60408051610100810182526001600160a01b03868116825285811660208301908152610bb883850190815285831660608501908152426080860190815260a086018981525f60c0880181815260e0890182815282549a5163414bf38960e01b81528a518a166004820152975189166024890152955162ffffff166044880152935187166064870152915160848601525160a4850152905160c48401529051831660e4830152939091169063414bf38990610104016020604051808303815f875af1158015613364573d5f803e3d5ffd5b505050506040513d601f19601f820116820180604052508101906119139190614522565b6040805160a081018252606087811b6bffffffffffffffffffffffff1990811660c084015261017760eb1b60d4840181905288831b821660d785015260eb84015286821b1660ee830152825160e28184030181526101028301845282526001600160a01b03848116602084015242838501529082018590525f608083018190528054935163c04b8d5960e01b815290939091169063c04b8d59906134309084906004016148ed565b6020604051808303815f875af115801561344c573d5f803e3d5ffd5b505050506040513d601f19601f820116820180604052508101906131349190614522565b6134786139df565b6116a88282613a15565b306001600160a01b037f000000000000000000000000000000000000000000000000000000000000000016148061350857507f00000000000000000000000000000000000000000000000000000000000000006001600160a01b03166134fc5f80516020614a9e833981519152546001600160a01b031690565b6001600160a01b031614155b156115905760405163703e46dd60e11b815260040160405180910390fd5b610ded612af1565b816001600160a01b03166352d1902d6040518163ffffffff1660e01b8152600401602060405180830381865afa925050508015613588575060408051601f3d908101601f1916820190925261358591810190614522565b60015b6135b057604051634c9c8ce360e01b81526001600160a01b0383166004820152602401610c24565b5f80516020614a9e83398151915281146135e057604051632a87526960e21b815260048101829052602401610c24565b612b598383613a65565b306001600160a01b037f000000000000000000000000000000000000000000000000000000000000000016146115905760405163703e46dd60e11b815260040160405180910390fd5b7f9016d09d72d40fdae2fd8ceac6b6234c7706214fd39c1cd1e609a0528c19930080546001600160a01b031981166001600160a01b03848116918217845560405192169182907f8be0079c531659141344cd1fd0a4f28419497f9722a3daafe3b4186f6b6457e0905f90a3505050565b5f806136ba5f80516020614a7e8339815191525490565b90505f811161370b5760405162461bcd60e51b815260206004820152601b60248201527f546f74616c20737570706c792063616e6e6f74206265207a65726f00000000006044820152606401610c24565b5f613714612b95565b90508161372182866144cd565b61372b91906144e4565b949350505050565b60605f61112383613aba565b5f611123836001600160a01b038416613b13565b61375b6139df565b610ded81613b5f565b61376c6139df565b611590613b67565b6115906139df565b6001600160a01b0381165f9081526001830160205260408120541515611123565b5f80516020614a5e8339815191526001600160a01b0385166137d45760405163e602df0560e01b81525f6004820152602401610c24565b6001600160a01b0384166137fd57604051634a1406b160e11b81525f6004820152602401610c24565b6001600160a01b038086165f9081526001830160209081526040808320938816835292905220839055811561153157836001600160a01b0316856001600160a01b03167f8c5be1e5ebec7d5bd14f71427d1e84f3dd0314c0f7b2291e5b200ac8c7c3b9258560405161387191815260200190565b60405180910390a35050505050565b5f80516020614a5e8339815191526001600160a01b0384166138ba5781816002015f8282546138af91906147c8565b9091555061392a9050565b6001600160a01b0384165f908152602082905260409020548281101561390c5760405163391434e360e21b81526001600160a01b03861660048201526024810182905260448101849052606401610c24565b6001600160a01b0385165f9081526020839052604090209083900390555b6001600160a01b038316613948576002810180548390039055613966565b6001600160a01b0383165f9081526020829052604090208054830190555b826001600160a01b0316846001600160a01b03167fddf252ad1be2c89b69c2b068fc378daa952ba7f163c4a11628f55a4df523b3ef846040516139ab91815260200190565b60405180910390a350505050565b5f825f0182815481106139ce576139ce61471a565b905f5260205f200154905092915050565b5f80516020614ade83398151915254600160401b900460ff1661159057604051631afcd79f60e31b815260040160405180910390fd5b613a1d6139df565b5f80516020614a5e8339815191527f52c63247e1f47db19d5ce0460030c497f067ca4cebf71ba98eeadabe20bace03613a568482614988565b50600481016115338382614988565b613a6e82613b6f565b6040516001600160a01b038316907fbc7cd75a20ee27fd9adebab32041f755214dbc6bffa90cc0225b39da2e5c2d3b905f90a2805115613ab257612b598282613bd2565b6116a8613c3b565b6060815f01805480602002602001604051908101604052809291908181526020018280548015613b0757602002820191905f5260205f20905b815481526020019060010190808311613af3575b50505050509050919050565b5f818152600183016020526040812054613b5857508154600181810184555f8481526020808220909301849055845484825282860190935260409020919091556109e1565b505f6109e1565b6125586139df565b612c856139df565b806001600160a01b03163b5f03613ba457604051634c9c8ce360e01b81526001600160a01b0382166004820152602401610c24565b5f80516020614a9e83398151915280546001600160a01b0319166001600160a01b0392909216919091179055565b60605f80846001600160a01b031684604051613bee9190614a47565b5f60405180830381855af49150503d805f8114613c26576040519150601f19603f3d011682016040523d82523d5f602084013e613c2b565b606091505b509150915061136b858383613c5a565b34156115905760405163b398979f60e01b815260040160405180910390fd5b606082613c6f57613c6a82613cb6565b611123565b8151158015613c8657506001600160a01b0384163b155b15613caf57604051639996b31560e01b81526001600160a01b0385166004820152602401610c24565b5080611123565b805115613cc65780518082602001fd5b604051630a12f52160e11b815260040160405180910390fd5b5f60208284031215613cef575f80fd5b5035919050565b5f81518084528060208401602086015e5f602082860101526020601f19601f83011685010191505092915050565b602081525f6111236020830184613cf6565b6001600160a01b0381168114610ded575f80fd5b5f60208284031215613d5a575f80fd5b813561112381613d36565b5f8060408385031215613d76575f80fd5b8235613d8181613d36565b946020939093013593505050565b5f805f60608486031215613da1575f80fd5b8335613dac81613d36565b92506020840135613dbc81613d36565b929592945050506040919091013590565b5f8060408385031215613dde575f80fd5b823591506020830135613df081613d36565b809150509250929050565b5f805f8060808587031215613e0e575f80fd5b8435613e1981613d36565b93506020850135613e2981613d36565b9250604085013591506060850135613e4081613d36565b939692955090935050565b634e487b7160e01b5f52604160045260245ffd5b604051606081016001600160401b0381118282101715613e8157613e81613e4b565b60405290565b604051601f8201601f191681016001600160401b0381118282101715613eaf57613eaf613e4b565b604052919050565b5f82601f830112613ec6575f80fd5b81356001600160401b03811115613edf57613edf613e4b565b613ef2601f8201601f1916602001613e87565b818152846020838601011115613f06575f80fd5b816020850160208301375f918101602001919091529392505050565b5f8060408385031215613f33575f80fd5b82356001600160401b0380821115613f49575f80fd5b613f5586838701613eb7565b93506020850135915080821115613f6a575f80fd5b50613f7785828601613eb7565b9150509250929050565b5f8060408385031215613f92575f80fd5b8235613f9d81613d36565b915060208301356001600160401b03811115613fb7575f80fd5b613f7785828601613eb7565b5f8083601f840112613fd3575f80fd5b5081356001600160401b03811115613fe9575f80fd5b6020830191508360208260051b8501011115614003575f80fd5b9250929050565b5f805f805f805f8060c0898b031215614021575f80fd5b88356001600160401b0380821115614037575f80fd5b6140438c838d01613fc3565b909a50985060208b013591508082111561405b575f80fd5b506140688b828c01613fc3565b909750955050604089013561407c81613d36565b9350606089013561408c81613d36565b92506080890135915060a08901356140a381613d36565b809150509295985092959890939650565b5f805f805f60a086880312156140c8575f80fd5b85356140d381613d36565b945060208601356140e381613d36565b935060408601356140f381613d36565b925060608601359150608086013561410a81613d36565b809150509295509295909350565b5f815180845260208085019450602084015f5b838110156141505781516001600160a01b03168752958201959082019060010161412b565b509495945050505050565b602081525f6111236020830184614118565b5f805f805f805f60e0888a031215614183575f80fd5b873561418e81613d36565b9650602088013561419e81613d36565b955060408801356141ae81613d36565b945060608801356141be81613d36565b935060808801356141ce81613d36565b925060a08801356141de81613d36565b915060c08801356001600160401b03811681146141f9575f80fd5b8091505092959891949750929550565b5f805f805f8060c0878903121561421e575f80fd5b863561422981613d36565b9550602087013561423981613d36565b9450604087013561424981613d36565b9350606087013561425981613d36565b9250608087013561426981613d36565b915060a087013561427981613d36565b809150509295509295509295565b5f8060408385031215614298575f80fd5b82356142a381613d36565b91506020830135613df081613d36565b5f6001600160401b038211156142cb576142cb613e4b565b5060051b60200190565b5f82601f8301126142e4575f80fd5b813560206142f96142f4836142b3565b613e87565b8083825260208201915060208460051b87010193508684111561431a575f80fd5b602086015b8481101561433f57803561433281613d36565b835291830191830161431f565b509695505050505050565b5f806040838503121561435b575f80fd5b82356001600160401b0380821115614371575f80fd5b818501915085601f830112614384575f80fd5b813560206143946142f4836142b3565b82815260059290921b840181019181810190898411156143b2575f80fd5b8286015b84811015614435578035868111156143cc575f80fd5b87016060818d03601f19018113156143e2575f80fd5b6143ea613e5f565b868301356143f781613d36565b8152604083013587820152908201359088821115614413575f80fd5b6144218e8884860101613eb7565b6040820152855250509183019183016143b6565b509650508601359250508082111561444b575f80fd5b50613f77858286016142d5565b5f805f806080858703121561446b575f80fd5b5050823594602084013594506040840135936060013592509050565b600181811c9082168061449b57607f821691505b602082108103612c4b57634e487b7160e01b5f52602260045260245ffd5b634e487b7160e01b5f52601160045260245ffd5b80820281158282048414176109e1576109e16144b9565b5f826144fe57634e487b7160e01b5f52601260045260245ffd5b500490565b5f60208284031215614513575f80fd5b81518015158114611123575f80fd5b5f60208284031215614532575f80fd5b5051919050565b6001600160a01b03929092168252602082015260400190565b5f60208284031215614562575f80fd5b815160ff81168114611123575f80fd5b818103818111156109e1576109e16144b9565b5f60208284031215614595575f80fd5b815161112381613d36565b6001600160a01b03938416815291909216602082015262ffffff909116604082015260600190565b60208082526017908201527f53776170204661696c65642c20547279204275726e2829000000000000000000604082015260600190565b8183525f60208085019450825f5b8581101561415057813561462081613d36565b6001600160a01b03168752958201959082019060010161460d565b8183525f6001600160fb1b03831115614652575f80fd5b8260051b80836020870137939093016020019392505050565b60e08082528a519082018190525f90602090610100840190828e01845b828110156146a457815184529284019290840190600101614688565b50505083810360208501526146ba818c8e6145ff565b91505082810360408401526146d081898b61463b565b9150508560608301526146ee60808301866001600160a01b03169052565b6001600160a01b03841660a08301526001600160a01b03831660c08301529a9950505050505050505050565b634e487b7160e01b5f52603260045260245ffd5b5f6040808301604084528086518083526060925060608601915060608160051b8701016020808a015f5b848110156147a857898403605f19018652815180516001600160a01b03168552838101518486015288015188850188905261479588860182613cf6565b9684019694505090820190600101614758565b5050878203908801526147bb8189614118565b9998505050505050505050565b808201808211156109e1576109e16144b9565b600181815b8085111561481557815f19048211156147fb576147fb6144b9565b8085161561480857918102915b93841c93908002906147e0565b509250929050565b5f8261482b575060016109e1565b8161483757505f6109e1565b816001811461484d576002811461485757614873565b60019150506109e1565b60ff841115614868576148686144b9565b50506001821b6109e1565b5060208310610133831016604e8410600b8410161715614896575081810a6109e1565b6148a083836147db565b805f19048211156148b3576148b36144b9565b029392505050565b5f611123838361481d565b60ff82811682821603908111156109e1576109e16144b9565b5f61112360ff84168361481d565b602081525f825160a0602084015261490860c0840182613cf6565b905060018060a01b0360208501511660408401526040840151606084015260608401516080840152608084015160a08401528091505092915050565b601f821115612b5957805f5260205f20601f840160051c810160208510156149695750805b601f840160051c820191505b81811015611531575f8155600101614975565b81516001600160401b038111156149a1576149a1613e4b565b6149b5816149af8454614487565b84614944565b602080601f8311600181146149e8575f84156149d15750858301515b5f19600386901b1c1916600185901b178555614a3f565b5f85815260208120601f198616915b82811015614a16578886015182559484019460019091019084016149f7565b5085821015614a3357878501515f19600388901b60f8161c191681555b505060018460011b0185555b505050505050565b5f82518060208501845e5f92019182525091905056fe52c63247e1f47db19d5ce0460030c497f067ca4cebf71ba98eeadabe20bace0052c63247e1f47db19d5ce0460030c497f067ca4cebf71ba98eeadabe20bace02360894a13ba1a3210667c828492db98dca3e2076cc3735a920a3ca505d382bbc9b779b17422d0df92223018b32b4d1fa46e071723d6817e2486d003becc55f00f0c57e16840df040f15088dc2f81fe391c3923bec73e23a9662efc9c229c6a00a26469706673582212206113219250a5563ba6a0a1eedf0577b4626f797b3ca264b9f89e89dd64e8d2b564736f6c63430008190033",
    "sourcePath": "c:/Users/Utente/Source/repos/baluni-contracts/contracts/BaluniV1Router.sol",
    "compiler": {
        "name": "solc",
        "version": "0.8.25+commit.b61c2a91"
    },
    "functionHashes": {
        "UPGRADE_INTERFACE_VERSION()": "ad3cb1cc",
        "USDC()": "89a30271",
        "WNATIVE()": "b381cf40",
        "_BPS_BASE()": "85377188",
        "_BPS_FEE()": "b9f5e617",
        "_MAX_BPS_FEE()": "34decfc9",
        "agentFactory()": "7df107ea",
        "allowance(address,address)": "dd62ed3e",
        "approve(address,uint256)": "095ea7b3",
        "balanceOf(address)": "70a08231",
        "burnERC20(uint256)": "1a168da2",
        "burnUSDC(uint256)": "fe0a4dd1",
        "calculateTokenShare(uint256,uint256,uint256,uint256)": "fe330a51",
        "callRebalance(address[],uint256[],address,address,uint256,address)": "599f69f7",
        "changeAgentFactory(address)": "0a38abab",
        "changeBpsFee(uint256)": "06497cb9",
        "changeRebalancer(address)": "0918281b",
        "changeTreasury(address)": "b14f2a39",
        "decimals()": "313ce567",
        "execute((address,uint256,bytes)[],address[])": "eedc3c50",
        "getAgentAddress(address)": "27d54a92",
        "getTokens()": "aa6ca808",
        "getUSDCShareValue(uint256)": "71ddcfb8",
        "getVersion()": "0d8e6e2c",
        "initialize(address,address,address,address,address,address)": "cc2a9a5b",
        "initialize(string,string)": "4cd88b76",
        "liquidate(address)": "2f865568",
        "liquidateAll()": "3c2066a9",
        "mintWithUSDC(uint256)": "0cfc7386",
        "multiHopSwap(address,address,address,uint256,address)": "5efaaebb",
        "name()": "06fdde03",
        "oracle()": "7dc0d1d0",
        "owner()": "8da5cb5b",
        "proxiableUUID()": "52d1902d",
        "rebalancer()": "01d22ccd",
        "reinitialize(address,address,address,address,address,address,uint64)": "b0d60ba0",
        "renounceOwnership()": "715018a6",
        "requiredUSDCtoMint(uint256)": "aa95d893",
        "singleSwap(address,address,uint256,address)": "2d6bc8ea",
        "symbol()": "95d89b41",
        "tokenValuation(uint256,address)": "2bdd955a",
        "totalSupply()": "18160ddd",
        "totalValuation()": "295b9300",
        "transfer(address,uint256)": "a9059cbb",
        "transferFrom(address,address,uint256)": "23b872dd",
        "transferOwnership(address)": "f2fde38b",
        "treasury()": "61d027b3",
        "unitPrice()": "e73faa2d",
        "upgradeToAndCall(address,bytes)": "4f1ef286"
    },
    "gasEstimates": {
        "creation": {
            "codeDepositCost": "3850200",
            "executionCost": "infinite",
            "totalCost": "infinite"
        },
        "external": {
            "UPGRADE_INTERFACE_VERSION()": "infinite",
            "USDC()": "2392",
            "WNATIVE()": "2458",
            "_BPS_BASE()": "2339",
            "_BPS_FEE()": "2449",
            "_MAX_BPS_FEE()": "2450",
            "agentFactory()": "2481",
            "allowance(address,address)": "infinite",
            "approve(address,uint256)": "infinite",
            "balanceOf(address)": "infinite",
            "burnERC20(uint256)": "infinite",
            "burnUSDC(uint256)": "infinite",
            "calculateTokenShare(uint256,uint256,uint256,uint256)": "794",
            "callRebalance(address[],uint256[],address,address,uint256,address)": "infinite",
            "changeAgentFactory(address)": "26917",
            "changeBpsFee(uint256)": "25653",
            "changeRebalancer(address)": "26873",
            "changeTreasury(address)": "26871",
            "decimals()": "310",
            "execute((address,uint256,bytes)[],address[])": "infinite",
            "getAgentAddress(address)": "infinite",
            "getTokens()": "infinite",
            "getUSDCShareValue(uint256)": "infinite",
            "getVersion()": "infinite",
            "initialize(address,address,address,address,address,address)": "infinite",
            "initialize(string,string)": "infinite",
            "liquidate(address)": "infinite",
            "liquidateAll()": "infinite",
            "mintWithUSDC(uint256)": "infinite",
            "multiHopSwap(address,address,address,uint256,address)": "infinite",
            "name()": "infinite",
            "oracle()": "2459",
            "owner()": "2408",
            "proxiableUUID()": "infinite",
            "rebalancer()": "2372",
            "reinitialize(address,address,address,address,address,address,uint64)": "infinite",
            "renounceOwnership()": "infinite",
            "requiredUSDCtoMint(uint256)": "infinite",
            "singleSwap(address,address,uint256,address)": "infinite",
            "symbol()": "infinite",
            "tokenValuation(uint256,address)": "infinite",
            "totalSupply()": "infinite",
            "totalValuation()": "infinite",
            "transfer(address,uint256)": "infinite",
            "transferFrom(address,address,uint256)": "infinite",
            "transferOwnership(address)": "infinite",
            "treasury()": "2371",
            "unitPrice()": "infinite",
            "upgradeToAndCall(address,bytes)": "infinite"
        },
        "internal": {
            "_authorizeUpgrade(address)": "infinite",
            "_calculateBaluniToUSDC(uint256)": "infinite",
            "_calculateERC20Share(uint256,uint256,uint256,uint256)": "infinite",
            "_calculateERC20Valuation(uint256,address)": "infinite",
            "_calculateNetAmountAfterFee(uint256)": "infinite",
            "_resize(uint256[] memory,uint256)": "infinite",
            "_totalValuation()": "infinite"
        }
    }
}