{
    "contractName": "BaluniV1PoolPeriphery",
    "abi": [
        {
            "inputs": [
                {
                    "internalType": "address",
                    "name": "target",
                    "type": "address"
                }
            ],
            "name": "AddressEmptyCode",
            "type": "error"
        },
        {
            "inputs": [
                {
                    "internalType": "address",
                    "name": "implementation",
                    "type": "address"
                }
            ],
            "name": "ERC1967InvalidImplementation",
            "type": "error"
        },
        {
            "inputs": [],
            "name": "ERC1967NonPayable",
            "type": "error"
        },
        {
            "inputs": [],
            "name": "FailedInnerCall",
            "type": "error"
        },
        {
            "inputs": [],
            "name": "InvalidInitialization",
            "type": "error"
        },
        {
            "inputs": [],
            "name": "NotInitializing",
            "type": "error"
        },
        {
            "inputs": [
                {
                    "internalType": "address",
                    "name": "owner",
                    "type": "address"
                }
            ],
            "name": "OwnableInvalidOwner",
            "type": "error"
        },
        {
            "inputs": [
                {
                    "internalType": "address",
                    "name": "account",
                    "type": "address"
                }
            ],
            "name": "OwnableUnauthorizedAccount",
            "type": "error"
        },
        {
            "inputs": [],
            "name": "UUPSUnauthorizedCallContext",
            "type": "error"
        },
        {
            "inputs": [
                {
                    "internalType": "bytes32",
                    "name": "slot",
                    "type": "bytes32"
                }
            ],
            "name": "UUPSUnsupportedProxiableUUID",
            "type": "error"
        },
        {
            "anonymous": false,
            "inputs": [
                {
                    "indexed": false,
                    "internalType": "uint64",
                    "name": "version",
                    "type": "uint64"
                }
            ],
            "name": "Initialized",
            "type": "event"
        },
        {
            "anonymous": false,
            "inputs": [
                {
                    "indexed": true,
                    "internalType": "address",
                    "name": "previousOwner",
                    "type": "address"
                },
                {
                    "indexed": true,
                    "internalType": "address",
                    "name": "newOwner",
                    "type": "address"
                }
            ],
            "name": "OwnershipTransferred",
            "type": "event"
        },
        {
            "anonymous": false,
            "inputs": [
                {
                    "indexed": true,
                    "internalType": "address",
                    "name": "implementation",
                    "type": "address"
                }
            ],
            "name": "Upgraded",
            "type": "event"
        },
        {
            "inputs": [],
            "name": "UPGRADE_INTERFACE_VERSION",
            "outputs": [
                {
                    "internalType": "string",
                    "name": "",
                    "type": "string"
                }
            ],
            "stateMutability": "view",
            "type": "function"
        },
        {
            "inputs": [
                {
                    "internalType": "uint256[]",
                    "name": "amounts",
                    "type": "uint256[]"
                },
                {
                    "internalType": "address",
                    "name": "poolAddress",
                    "type": "address"
                }
            ],
            "name": "addLiquidity",
            "outputs": [
                {
                    "internalType": "uint256",
                    "name": "",
                    "type": "uint256"
                }
            ],
            "stateMutability": "nonpayable",
            "type": "function"
        },
        {
            "inputs": [
                {
                    "internalType": "address",
                    "name": "fromToken",
                    "type": "address"
                },
                {
                    "internalType": "address",
                    "name": "toToken",
                    "type": "address"
                },
                {
                    "internalType": "uint256",
                    "name": "amount",
                    "type": "uint256"
                }
            ],
            "name": "getAmountOut",
            "outputs": [
                {
                    "internalType": "uint256",
                    "name": "",
                    "type": "uint256"
                }
            ],
            "stateMutability": "view",
            "type": "function"
        },
        {
            "inputs": [
                {
                    "internalType": "address",
                    "name": "token",
                    "type": "address"
                }
            ],
            "name": "getPoolsContainingToken",
            "outputs": [
                {
                    "internalType": "address[]",
                    "name": "",
                    "type": "address[]"
                }
            ],
            "stateMutability": "view",
            "type": "function"
        },
        {
            "inputs": [],
            "name": "getVersion",
            "outputs": [
                {
                    "internalType": "uint64",
                    "name": "",
                    "type": "uint64"
                }
            ],
            "stateMutability": "view",
            "type": "function"
        },
        {
            "inputs": [
                {
                    "internalType": "address",
                    "name": "_poolFactory",
                    "type": "address"
                }
            ],
            "name": "initialize",
            "outputs": [],
            "stateMutability": "nonpayable",
            "type": "function"
        },
        {
            "inputs": [],
            "name": "owner",
            "outputs": [
                {
                    "internalType": "address",
                    "name": "",
                    "type": "address"
                }
            ],
            "stateMutability": "view",
            "type": "function"
        },
        {
            "inputs": [
                {
                    "internalType": "address",
                    "name": "fromToken",
                    "type": "address"
                },
                {
                    "internalType": "address",
                    "name": "toToken",
                    "type": "address"
                }
            ],
            "name": "performRebalanceIfNeeded",
            "outputs": [],
            "stateMutability": "nonpayable",
            "type": "function"
        },
        {
            "inputs": [],
            "name": "poolFactory",
            "outputs": [
                {
                    "internalType": "contract IBaluniV1PoolFactory",
                    "name": "",
                    "type": "address"
                }
            ],
            "stateMutability": "view",
            "type": "function"
        },
        {
            "inputs": [],
            "name": "proxiableUUID",
            "outputs": [
                {
                    "internalType": "bytes32",
                    "name": "",
                    "type": "bytes32"
                }
            ],
            "stateMutability": "view",
            "type": "function"
        },
        {
            "inputs": [
                {
                    "internalType": "address",
                    "name": "_poolFactory",
                    "type": "address"
                },
                {
                    "internalType": "uint64",
                    "name": "version",
                    "type": "uint64"
                }
            ],
            "name": "reinitialize",
            "outputs": [],
            "stateMutability": "nonpayable",
            "type": "function"
        },
        {
            "inputs": [
                {
                    "internalType": "uint256",
                    "name": "share",
                    "type": "uint256"
                },
                {
                    "internalType": "address",
                    "name": "poolAddress",
                    "type": "address"
                }
            ],
            "name": "removeLiquidity",
            "outputs": [],
            "stateMutability": "nonpayable",
            "type": "function"
        },
        {
            "inputs": [],
            "name": "renounceOwnership",
            "outputs": [],
            "stateMutability": "nonpayable",
            "type": "function"
        },
        {
            "inputs": [
                {
                    "internalType": "address",
                    "name": "fromToken",
                    "type": "address"
                },
                {
                    "internalType": "address",
                    "name": "toToken",
                    "type": "address"
                },
                {
                    "internalType": "uint256",
                    "name": "amount",
                    "type": "uint256"
                }
            ],
            "name": "swap",
            "outputs": [
                {
                    "internalType": "uint256",
                    "name": "",
                    "type": "uint256"
                }
            ],
            "stateMutability": "nonpayable",
            "type": "function"
        },
        {
            "inputs": [
                {
                    "internalType": "address",
                    "name": "newOwner",
                    "type": "address"
                }
            ],
            "name": "transferOwnership",
            "outputs": [],
            "stateMutability": "nonpayable",
            "type": "function"
        },
        {
            "inputs": [
                {
                    "internalType": "address",
                    "name": "newImplementation",
                    "type": "address"
                },
                {
                    "internalType": "bytes",
                    "name": "data",
                    "type": "bytes"
                }
            ],
            "name": "upgradeToAndCall",
            "outputs": [],
            "stateMutability": "payable",
            "type": "function"
        }
    ],
    "bytecode": "60a0604052306080523480156012575f80fd5b506080516119e86100395f395f818161104f0152818161107801526111bc01526119e85ff3fe6080604052600436106100ef575f3560e01c80638da5cb5b11610087578063ae3cce1c11610057578063ae3cce1c146102ba578063c4d66de8146102e6578063df791e5014610305578063f2fde38b14610324575f80fd5b80638da5cb5b146102035780638f2248bc1461023f578063a9ef07591461025e578063ad3cb1cc1461027d575f80fd5b80634aa06652116100c25780634aa06652146101a95780634f1ef286146101c857806352d1902d146101db578063715018a6146101ef575f80fd5b806305fe138b146100f35780630d8e6e2c1461011457806315ed9afb146101465780634219dc4014610173575b5f80fd5b3480156100fe575f80fd5b5061011261010d3660046114fe565b610343565b005b34801561011f575f80fd5b506101286104d1565b60405167ffffffffffffffff90911681526020015b60405180910390f35b348015610151575f80fd5b5061016561016036600461152c565b6104f6565b60405190815260200161013d565b34801561017e575f80fd5b505f54610191906001600160a01b031681565b6040516001600160a01b03909116815260200161013d565b3480156101b4575f80fd5b506101656101c33660046115ab565b6108f3565b6101126101d636600461162e565b6109e7565b3480156101e6575f80fd5b50610165610a06565b3480156101fa575f80fd5b50610112610a21565b34801561020e575f80fd5b507f9016d09d72d40fdae2fd8ceac6b6234c7706214fd39c1cd1e609a0528c199300546001600160a01b0316610191565b34801561024a575f80fd5b506101126102593660046116d0565b610a34565b348015610269575f80fd5b50610112610278366004611708565b610b0b565b348015610288575f80fd5b506102ad604051806040016040528060058152602001640352e302e360dc1b81525081565b60405161013d9190611734565b3480156102c5575f80fd5b506102d96102d4366004611769565b610bde565b60405161013d9190611784565b3480156102f1575f80fd5b50610112610300366004611769565b610c52565b348015610310575f80fd5b5061016561031f3660046115ab565b610d6e565b34801561032f575f80fd5b5061011261033e366004611769565b611007565b5f82116103975760405162461bcd60e51b815260206004820152601f60248201527f5368617265206d7573742062652067726561746572207468616e207a65726f0060448201526064015b60405180910390fd5b6040516323b872dd60e01b81526001600160a01b038216906323b872dd906103c7903390309087906004016117d0565b6020604051808303815f875af11580156103e3573d5f803e3d5ffd5b505050506040513d601f19601f8201168201806040525081019061040791906117f4565b5060405163095ea7b360e01b81526001600160a01b03821660048201819052602482018490529063095ea7b3906044016020604051808303815f875af1158015610453573d5f803e3d5ffd5b505050506040513d601f19601f8201168201806040525081019061047791906117f4565b50604051637f8661a160e01b8152600481018390526001600160a01b03821690637f8661a1906024015f604051808303815f87803b1580156104b7575f80fd5b505af11580156104c9573d5f803e3d5ffd5b505050505050565b5f6104f15f805160206119938339815191525467ffffffffffffffff1690565b905090565b5f8084845f81811061050a5761050a611813565b9050602002013511801561053657505f8484600181811061052d5761052d611813565b90506020020135115b61058c5760405162461bcd60e51b815260206004820152602160248201527f416d6f756e7473206d7573742062652067726561746572207468616e207a65726044820152606f60f81b606482015260840161038e565b5f8290505f816001600160a01b03166367e4ac2c6040518163ffffffff1660e01b81526004015f60405180830381865afa1580156105cc573d5f803e3d5ffd5b505050506040513d5f823e601f3d908101601f191682016040526105f39190810190611827565b90505f5b8151811015610725575f82828151811061061357610613611813565b602002602001015190505f88888481811061063057610630611813565b905060200201359050816001600160a01b03166323b872dd3330846040518463ffffffff1660e01b8152600401610669939291906117d0565b6020604051808303815f875af1158015610685573d5f803e3d5ffd5b505050506040513d601f19601f820116820180604052508101906106a991906117f4565b5060405163095ea7b360e01b81526001600160a01b0388811660048301526024820183905283169063095ea7b3906044016020604051808303815f875af11580156106f6573d5f803e3d5ffd5b505050506040513d601f19601f8201168201806040525081019061071a91906117f4565b5050506001016105f7565b506040516370a0823160e01b81523060048201525f906001600160a01b038416906370a0823190602401602060405180830381865afa15801561076a573d5f803e3d5ffd5b505050506040513d601f19601f8201168201806040525081019061078e91906118d4565b604051634de59aa360e01b81529091506001600160a01b03841690634de59aa3906107bf908a908a906004016118eb565b6020604051808303815f875af11580156107db573d5f803e3d5ffd5b505050506040513d601f19601f820116820180604052508101906107ff91906118d4565b506040516370a0823160e01b81523060048201525f906001600160a01b038516906370a0823190602401602060405180830381865afa158015610844573d5f803e3d5ffd5b505050506040513d601f19601f8201168201806040525081019061086891906118d4565b90505f6108758383611922565b60405163a9059cbb60e01b8152336004820152602481018290529091506001600160a01b0386169063a9059cbb906044016020604051808303815f875af11580156108c2573d5f803e3d5ffd5b505050506040513d601f19601f820116820180604052508101906108e691906117f4565b5050505050509392505050565b5f8054604051632d5e94a760e01b81526001600160a01b038681166004830152858116602483015283921690632d5e94a790604401602060405180830381865afa158015610943573d5f803e3d5ffd5b505050506040513d601f19601f820116820180604052508101906109679190611941565b604051632550332960e11b815290915081906001600160a01b03821690634aa066529061099c908990899089906004016117d0565b602060405180830381865afa1580156109b7573d5f803e3d5ffd5b505050506040513d601f19601f820116820180604052508101906109db91906118d4565b925050505b9392505050565b6109ef611044565b6109f8826110e8565b610a0282826110f0565b5050565b5f610a0f6111b1565b505f8051602061197383398151915290565b610a296111fa565b610a325f611255565b565b5f805160206119938339815191528054829190600160401b900460ff1680610a6a5750805467ffffffffffffffff808416911610155b15610a885760405163f92ee8a960e01b815260040160405180910390fd5b8054600160401b67ffffffffffffffff841668ffffffffffffffffff1990921682171782555f80546001600160a01b0319166001600160a01b038716179055815460ff60401b191682556040519081527fc7f505b2f371ae2175ee4913f4499e1f2633a7b5936321eed1cdaeb6115181d29060200160405180910390a150505050565b5f8054604051632d5e94a760e01b81526001600160a01b038581166004830152848116602483015290911690632d5e94a790604401602060405180830381865afa158015610b5b573d5f803e3d5ffd5b505050506040513d601f19601f82011682018060405250810190610b7f9190611941565b604051632ab4040d60e11b815233600482015290915081906001600160a01b03821690635568081a906024015f604051808303815f87803b158015610bc2575f80fd5b505af1158015610bd4573d5f803e3d5ffd5b5050505050505050565b5f54604051635a1a073560e11b81526001600160a01b038381166004830152606092169063b4340e6a906024015f60405180830381865afa158015610c25573d5f803e3d5ffd5b505050506040513d5f823e601f3d908101601f19168201604052610c4c9190810190611827565b92915050565b5f805160206119938339815191528054600160401b810460ff16159067ffffffffffffffff165f81158015610c845750825b90505f8267ffffffffffffffff166001148015610ca05750303b155b905081158015610cae575080155b15610ccc5760405163f92ee8a960e01b815260040160405180910390fd5b845467ffffffffffffffff191660011785558315610cf657845460ff60401b1916600160401b1785555b610cfe6112c5565b610d07336112cd565b5f80546001600160a01b0319166001600160a01b03881617905583156104c957845460ff60401b19168555604051600181527fc7f505b2f371ae2175ee4913f4499e1f2633a7b5936321eed1cdaeb6115181d29060200160405180910390a1505050505050565b5f808211610dbe5760405162461bcd60e51b815260206004820181905260248201527f416d6f756e74206d7573742062652067726561746572207468616e207a65726f604482015260640161038e565b5f8054604051632d5e94a760e01b81526001600160a01b038781166004830152868116602483015290911690632d5e94a790604401602060405180830381865afa158015610e0e573d5f803e3d5ffd5b505050506040513d601f19601f82011682018060405250810190610e329190611941565b6040516323b872dd60e01b815290915081906001600160a01b038716906323b872dd90610e67903390309089906004016117d0565b6020604051808303815f875af1158015610e83573d5f803e3d5ffd5b505050506040513d601f19601f82011682018060405250810190610ea791906117f4565b5060405163095ea7b360e01b81526001600160a01b0383811660048301526024820186905287169063095ea7b3906044016020604051808303815f875af1158015610ef4573d5f803e3d5ffd5b505050506040513d601f19601f82011682018060405250810190610f1891906117f4565b50604051630df791e560e41b81525f906001600160a01b0383169063df791e5090610f4b908a908a908a906004016117d0565b6020604051808303815f875af1158015610f67573d5f803e3d5ffd5b505050506040513d601f19601f82011682018060405250810190610f8b91906118d4565b60405163a9059cbb60e01b8152336004820152602481018290529091506001600160a01b0387169063a9059cbb906044016020604051808303815f875af1158015610fd8573d5f803e3d5ffd5b505050506040513d601f19601f82011682018060405250810190610ffc91906117f4565b509695505050505050565b61100f6111fa565b6001600160a01b03811661103857604051631e4fbdf760e01b81525f600482015260240161038e565b61104181611255565b50565b306001600160a01b037f00000000000000000000000000000000000000000000000000000000000000001614806110ca57507f00000000000000000000000000000000000000000000000000000000000000006001600160a01b03166110be5f80516020611973833981519152546001600160a01b031690565b6001600160a01b031614155b15610a325760405163703e46dd60e11b815260040160405180910390fd5b6110416111fa565b816001600160a01b03166352d1902d6040518163ffffffff1660e01b8152600401602060405180830381865afa92505050801561114a575060408051601f3d908101601f19168201909252611147918101906118d4565b60015b61117257604051634c9c8ce360e01b81526001600160a01b038316600482015260240161038e565b5f8051602061197383398151915281146111a257604051632a87526960e21b81526004810182905260240161038e565b6111ac83836112de565b505050565b306001600160a01b037f00000000000000000000000000000000000000000000000000000000000000001614610a325760405163703e46dd60e11b815260040160405180910390fd5b3361122c7f9016d09d72d40fdae2fd8ceac6b6234c7706214fd39c1cd1e609a0528c199300546001600160a01b031690565b6001600160a01b031614610a325760405163118cdaa760e01b815233600482015260240161038e565b7f9016d09d72d40fdae2fd8ceac6b6234c7706214fd39c1cd1e609a0528c19930080546001600160a01b031981166001600160a01b03848116918217845560405192169182907f8be0079c531659141344cd1fd0a4f28419497f9722a3daafe3b4186f6b6457e0905f90a3505050565b610a32611333565b6112d5611333565b61104181611369565b6112e782611371565b6040516001600160a01b038316907fbc7cd75a20ee27fd9adebab32041f755214dbc6bffa90cc0225b39da2e5c2d3b905f90a280511561132b576111ac82826113d4565b610a02611446565b5f8051602061199383398151915254600160401b900460ff16610a3257604051631afcd79f60e31b815260040160405180910390fd5b61100f611333565b806001600160a01b03163b5f036113a657604051634c9c8ce360e01b81526001600160a01b038216600482015260240161038e565b5f8051602061197383398151915280546001600160a01b0319166001600160a01b0392909216919091179055565b60605f80846001600160a01b0316846040516113f0919061195c565b5f60405180830381855af49150503d805f8114611428576040519150601f19603f3d011682016040523d82523d5f602084013e61142d565b606091505b509150915061143d858383611465565b95945050505050565b3415610a325760405163b398979f60e01b815260040160405180910390fd5b60608261147a57611475826114c1565b6109e0565b815115801561149157506001600160a01b0384163b155b156114ba57604051639996b31560e01b81526001600160a01b038516600482015260240161038e565b50806109e0565b8051156114d15780518082602001fd5b604051630a12f52160e11b815260040160405180910390fd5b6001600160a01b0381168114611041575f80fd5b5f806040838503121561150f575f80fd5b823591506020830135611521816114ea565b809150509250929050565b5f805f6040848603121561153e575f80fd5b833567ffffffffffffffff80821115611555575f80fd5b818601915086601f830112611568575f80fd5b813581811115611576575f80fd5b8760208260051b850101111561158a575f80fd5b602092830195509350508401356115a0816114ea565b809150509250925092565b5f805f606084860312156115bd575f80fd5b83356115c8816114ea565b925060208401356115d8816114ea565b929592945050506040919091013590565b634e487b7160e01b5f52604160045260245ffd5b604051601f8201601f1916810167ffffffffffffffff81118282101715611626576116266115e9565b604052919050565b5f806040838503121561163f575f80fd5b823561164a816114ea565b915060208381013567ffffffffffffffff80821115611667575f80fd5b818601915086601f83011261167a575f80fd5b81358181111561168c5761168c6115e9565b61169e601f8201601f191685016115fd565b915080825287848285010111156116b3575f80fd5b80848401858401375f848284010152508093505050509250929050565b5f80604083850312156116e1575f80fd5b82356116ec816114ea565b9150602083013567ffffffffffffffff81168114611521575f80fd5b5f8060408385031215611719575f80fd5b8235611724816114ea565b91506020830135611521816114ea565b602081525f82518060208401528060208501604085015e5f604082850101526040601f19601f83011684010191505092915050565b5f60208284031215611779575f80fd5b81356109e0816114ea565b602080825282518282018190525f9190848201906040850190845b818110156117c45783516001600160a01b03168352928401929184019160010161179f565b50909695505050505050565b6001600160a01b039384168152919092166020820152604081019190915260600190565b5f60208284031215611804575f80fd5b815180151581146109e0575f80fd5b634e487b7160e01b5f52603260045260245ffd5b5f6020808385031215611838575f80fd5b825167ffffffffffffffff8082111561184f575f80fd5b818501915085601f830112611862575f80fd5b815181811115611874576118746115e9565b8060051b91506118858483016115fd565b818152918301840191848101908884111561189e575f80fd5b938501935b838510156118c857845192506118b8836114ea565b82825293850193908501906118a3565b98975050505050505050565b5f602082840312156118e4575f80fd5b5051919050565b602080825281018290525f6001600160fb1b03831115611909575f80fd5b8260051b80856040850137919091016040019392505050565b81810381811115610c4c57634e487b7160e01b5f52601160045260245ffd5b5f60208284031215611951575f80fd5b81516109e0816114ea565b5f82518060208501845e5f92019182525091905056fe360894a13ba1a3210667c828492db98dca3e2076cc3735a920a3ca505d382bbcf0c57e16840df040f15088dc2f81fe391c3923bec73e23a9662efc9c229c6a00a26469706673582212205c7ea6fc4fa7337ab39c9d78e133c6bb7945824d3531927d12db11b39dbe218d64736f6c63430008190033",
    "sourcePath": "c:/Users/Utente/Source/repos/baluni-contracts/contracts/BaluniV1PoolPeriphery.sol",
    "compiler": {
        "name": "solc",
        "version": "0.8.25+commit.b61c2a91"
    },
    "functionHashes": {
        "UPGRADE_INTERFACE_VERSION()": "ad3cb1cc",
        "addLiquidity(uint256[],address)": "15ed9afb",
        "getAmountOut(address,address,uint256)": "4aa06652",
        "getPoolsContainingToken(address)": "ae3cce1c",
        "getVersion()": "0d8e6e2c",
        "initialize(address)": "c4d66de8",
        "owner()": "8da5cb5b",
        "performRebalanceIfNeeded(address,address)": "a9ef0759",
        "poolFactory()": "4219dc40",
        "proxiableUUID()": "52d1902d",
        "reinitialize(address,uint64)": "8f2248bc",
        "removeLiquidity(uint256,address)": "05fe138b",
        "renounceOwnership()": "715018a6",
        "swap(address,address,uint256)": "df791e50",
        "transferOwnership(address)": "f2fde38b",
        "upgradeToAndCall(address,bytes)": "4f1ef286"
    },
    "gasEstimates": {
        "creation": {
            "codeDepositCost": "1326400",
            "executionCost": "infinite",
            "totalCost": "infinite"
        },
        "external": {
            "UPGRADE_INTERFACE_VERSION()": "infinite",
            "addLiquidity(uint256[],address)": "infinite",
            "getAmountOut(address,address,uint256)": "infinite",
            "getPoolsContainingToken(address)": "infinite",
            "getVersion()": "infinite",
            "initialize(address)": "infinite",
            "owner()": "2353",
            "performRebalanceIfNeeded(address,address)": "infinite",
            "poolFactory()": "2425",
            "proxiableUUID()": "infinite",
            "reinitialize(address,uint64)": "infinite",
            "removeLiquidity(uint256,address)": "infinite",
            "renounceOwnership()": "infinite",
            "swap(address,address,uint256)": "infinite",
            "transferOwnership(address)": "infinite",
            "upgradeToAndCall(address,bytes)": "infinite"
        },
        "internal": {
            "_authorizeUpgrade(address)": "infinite"
        }
    }
}