{
    "contractName": "BaluniV1AgentFactory",
    "abi": [
        {
            "inputs": [
                {
                    "internalType": "address",
                    "name": "target",
                    "type": "address"
                }
            ],
            "name": "AddressEmptyCode",
            "type": "error"
        },
        {
            "inputs": [
                {
                    "internalType": "address",
                    "name": "implementation",
                    "type": "address"
                }
            ],
            "name": "ERC1967InvalidImplementation",
            "type": "error"
        },
        {
            "inputs": [],
            "name": "ERC1967NonPayable",
            "type": "error"
        },
        {
            "inputs": [],
            "name": "FailedInnerCall",
            "type": "error"
        },
        {
            "inputs": [],
            "name": "InvalidInitialization",
            "type": "error"
        },
        {
            "inputs": [],
            "name": "NotInitializing",
            "type": "error"
        },
        {
            "inputs": [
                {
                    "internalType": "address",
                    "name": "owner",
                    "type": "address"
                }
            ],
            "name": "OwnableInvalidOwner",
            "type": "error"
        },
        {
            "inputs": [
                {
                    "internalType": "address",
                    "name": "account",
                    "type": "address"
                }
            ],
            "name": "OwnableUnauthorizedAccount",
            "type": "error"
        },
        {
            "inputs": [],
            "name": "UUPSUnauthorizedCallContext",
            "type": "error"
        },
        {
            "inputs": [
                {
                    "internalType": "bytes32",
                    "name": "slot",
                    "type": "bytes32"
                }
            ],
            "name": "UUPSUnsupportedProxiableUUID",
            "type": "error"
        },
        {
            "anonymous": false,
            "inputs": [
                {
                    "indexed": false,
                    "internalType": "address",
                    "name": "user",
                    "type": "address"
                },
                {
                    "indexed": false,
                    "internalType": "address",
                    "name": "agent",
                    "type": "address"
                }
            ],
            "name": "AgentCreated",
            "type": "event"
        },
        {
            "anonymous": false,
            "inputs": [
                {
                    "indexed": false,
                    "internalType": "uint64",
                    "name": "version",
                    "type": "uint64"
                }
            ],
            "name": "Initialized",
            "type": "event"
        },
        {
            "anonymous": false,
            "inputs": [
                {
                    "indexed": true,
                    "internalType": "address",
                    "name": "previousOwner",
                    "type": "address"
                },
                {
                    "indexed": true,
                    "internalType": "address",
                    "name": "newOwner",
                    "type": "address"
                }
            ],
            "name": "OwnershipTransferred",
            "type": "event"
        },
        {
            "anonymous": false,
            "inputs": [
                {
                    "indexed": true,
                    "internalType": "address",
                    "name": "implementation",
                    "type": "address"
                }
            ],
            "name": "Upgraded",
            "type": "event"
        },
        {
            "inputs": [],
            "name": "UPGRADE_INTERFACE_VERSION",
            "outputs": [
                {
                    "internalType": "string",
                    "name": "",
                    "type": "string"
                }
            ],
            "stateMutability": "view",
            "type": "function"
        },
        {
            "inputs": [],
            "name": "changeImplementation",
            "outputs": [],
            "stateMutability": "nonpayable",
            "type": "function"
        },
        {
            "inputs": [
                {
                    "internalType": "address",
                    "name": "_router",
                    "type": "address"
                }
            ],
            "name": "changeRouter",
            "outputs": [],
            "stateMutability": "nonpayable",
            "type": "function"
        },
        {
            "inputs": [
                {
                    "internalType": "address",
                    "name": "user",
                    "type": "address"
                }
            ],
            "name": "getAgentAddress",
            "outputs": [
                {
                    "internalType": "address",
                    "name": "",
                    "type": "address"
                }
            ],
            "stateMutability": "view",
            "type": "function"
        },
        {
            "inputs": [
                {
                    "internalType": "address",
                    "name": "user",
                    "type": "address"
                }
            ],
            "name": "getOrCreateAgent",
            "outputs": [
                {
                    "internalType": "address",
                    "name": "",
                    "type": "address"
                }
            ],
            "stateMutability": "nonpayable",
            "type": "function"
        },
        {
            "inputs": [],
            "name": "initialize",
            "outputs": [],
            "stateMutability": "nonpayable",
            "type": "function"
        },
        {
            "inputs": [],
            "name": "owner",
            "outputs": [
                {
                    "internalType": "address",
                    "name": "",
                    "type": "address"
                }
            ],
            "stateMutability": "view",
            "type": "function"
        },
        {
            "inputs": [],
            "name": "proxiableUUID",
            "outputs": [
                {
                    "internalType": "bytes32",
                    "name": "",
                    "type": "bytes32"
                }
            ],
            "stateMutability": "view",
            "type": "function"
        },
        {
            "inputs": [
                {
                    "internalType": "uint64",
                    "name": "version",
                    "type": "uint64"
                }
            ],
            "name": "reinitialize",
            "outputs": [],
            "stateMutability": "nonpayable",
            "type": "function"
        },
        {
            "inputs": [],
            "name": "renounceOwnership",
            "outputs": [],
            "stateMutability": "nonpayable",
            "type": "function"
        },
        {
            "inputs": [],
            "name": "router",
            "outputs": [
                {
                    "internalType": "address",
                    "name": "",
                    "type": "address"
                }
            ],
            "stateMutability": "view",
            "type": "function"
        },
        {
            "inputs": [
                {
                    "internalType": "address",
                    "name": "newOwner",
                    "type": "address"
                }
            ],
            "name": "transferOwnership",
            "outputs": [],
            "stateMutability": "nonpayable",
            "type": "function"
        },
        {
            "inputs": [
                {
                    "internalType": "address",
                    "name": "newImplementation",
                    "type": "address"
                },
                {
                    "internalType": "bytes",
                    "name": "data",
                    "type": "bytes"
                }
            ],
            "name": "upgradeToAndCall",
            "outputs": [],
            "stateMutability": "payable",
            "type": "function"
        },
        {
            "inputs": [
                {
                    "internalType": "address",
                    "name": "",
                    "type": "address"
                }
            ],
            "name": "userAgents",
            "outputs": [
                {
                    "internalType": "contract BaluniV1Agent",
                    "name": "",
                    "type": "address"
                }
            ],
            "stateMutability": "view",
            "type": "function"
        }
    ],
    "bytecode": "60a0604052306080523480156012575f80fd5b50608051611bd46100395f395f81816108da015281816109030152610a470152611bd45ff3fe6080604052600436106100d9575f3560e01c80638129fc1c1161007c5780639b76a5cd116100575780639b76a5cd14610252578063ad3cb1cc14610271578063f2fde38b146102ae578063f887ea40146102cd575f80fd5b80638129fc1c146101e35780638da5cb5b146101f75780639a1b97df14610233575f80fd5b806352d1902d116100b757806352d1902d146101655780636c6be5f314610187578063715018a61461019b5780637811a785146101af575f80fd5b806327d54a92146100dd578063340ac20f146101315780634f1ef28614610152575b5f80fd5b3480156100e8575f80fd5b506101146100f7366004610e7c565b6001600160a01b039081165f908152600260205260409020541690565b6040516001600160a01b0390911681526020015b60405180910390f35b34801561013c575f80fd5b5061015061014b366004610e7c565b6102ec565b005b610150610160366004610ea9565b610316565b348015610170575f80fd5b50610179610335565b604051908152602001610128565b348015610192575f80fd5b50610150610350565b3480156101a6575f80fd5b506101506103b2565b3480156101ba575f80fd5b506101146101c9366004610e7c565b60026020525f90815260409020546001600160a01b031681565b3480156101ee575f80fd5b506101506103c5565b348015610202575f80fd5b507f9016d09d72d40fdae2fd8ceac6b6234c7706214fd39c1cd1e609a0528c199300546001600160a01b0316610114565b34801561023e575f80fd5b5061015061024d366004610f65565b610532565b34801561025d575f80fd5b5061011461026c366004610e7c565b610671565b34801561027c575f80fd5b506102a1604051806040016040528060058152602001640352e302e360dc1b81525081565b6040516101289190610f8c565b3480156102b9575f80fd5b506101506102c8366004610e7c565b610837565b3480156102d8575f80fd5b50600154610114906001600160a01b031681565b6102f4610874565b600180546001600160a01b0319166001600160a01b0392909216919091179055565b61031e6108cf565b61032782610973565b610331828261097b565b5050565b5f61033e610a3c565b505f80516020611b7f83398151915290565b610358610874565b5f3060405161036690610e54565b6001600160a01b039091168152602001604051809103905ff08015801561038f573d5f803e3d5ffd5b505f80546001600160a01b0319166001600160a01b039290921691909117905550565b6103ba610874565b6103c35f610a85565b565b7ff0c57e16840df040f15088dc2f81fe391c3923bec73e23a9662efc9c229c6a008054600160401b810460ff16159067ffffffffffffffff165f8115801561040a5750825b90505f8267ffffffffffffffff1660011480156104265750303b155b905081158015610434575080155b156104525760405163f92ee8a960e01b815260040160405180910390fd5b845467ffffffffffffffff19166001178555831561047c57845460ff60401b1916600160401b1785555b61048533610af5565b61048d610b06565b5f3060405161049b90610e54565b6001600160a01b039091168152602001604051809103905ff0801580156104c4573d5f803e3d5ffd5b505f80546001600160a01b0319166001600160a01b039290921691909117905550831561052b57845460ff60401b19168555604051600181527fc7f505b2f371ae2175ee4913f4499e1f2633a7b5936321eed1cdaeb6115181d29060200160405180910390a15b5050505050565b7ff0c57e16840df040f15088dc2f81fe391c3923bec73e23a9662efc9c229c6a008054829190600160401b900460ff168061057b5750805467ffffffffffffffff808416911610155b156105995760405163f92ee8a960e01b815260040160405180910390fd5b805468ffffffffffffffffff191667ffffffffffffffff831617600160401b1781556105c433610af5565b6105cc610b06565b5f306040516105da90610e54565b6001600160a01b039091168152602001604051809103905ff080158015610603573d5f803e3d5ffd5b505f80546001600160a01b0319166001600160a01b039290921691909117905550805460ff60401b1916815560405167ffffffffffffffff831681527fc7f505b2f371ae2175ee4913f4499e1f2633a7b5936321eed1cdaeb6115181d29060200160405180910390a1505050565b5f306106bc5760405162461bcd60e51b81526020600482015260156024820152741059d95b9d08199858dd1bdc9e481b9bdd081cd95d605a1b60448201526064015b60405180910390fd5b6040516bffffffffffffffffffffffff19606084901b1660208201525f9060340160408051601f1981840301815291815281516020928301206001600160a01b038681165f9081526002909452919092205491925016158061073c57506001600160a01b038381165f90815260026020526040902054163b63ffffffff16155b15610818575f61074c8285610b0e565b9050803b63ffffffff166107b05760405162461bcd60e51b815260206004820152602560248201527f4167656e74206372656174696f6e206661696c65642c206e6f74206120636f6e6044820152641d1c9858dd60da1b60648201526084016106b3565b6001600160a01b038481165f8181526002602090815260409182902080546001600160a01b031916948616948517905581519283528201929092527f8c6e353968e7ffd60dba22ff7d2a4354af301f9d41858a35668e7292ec1301b6910160405180910390a1505b50506001600160a01b039081165f908152600260205260409020541690565b61083f610874565b6001600160a01b03811661086857604051631e4fbdf760e01b81525f60048201526024016106b3565b61087181610a85565b50565b336108a67f9016d09d72d40fdae2fd8ceac6b6234c7706214fd39c1cd1e609a0528c199300546001600160a01b031690565b6001600160a01b0316146103c35760405163118cdaa760e01b81523360048201526024016106b3565b306001600160a01b037f000000000000000000000000000000000000000000000000000000000000000016148061095557507f00000000000000000000000000000000000000000000000000000000000000006001600160a01b03166109495f80516020611b7f833981519152546001600160a01b031690565b6001600160a01b031614155b156103c35760405163703e46dd60e11b815260040160405180910390fd5b610871610874565b816001600160a01b03166352d1902d6040518163ffffffff1660e01b8152600401602060405180830381865afa9250505080156109d5575060408051601f3d908101601f191682019092526109d291810190610fc1565b60015b6109fd57604051634c9c8ce360e01b81526001600160a01b03831660048201526024016106b3565b5f80516020611b7f8339815191528114610a2d57604051632a87526960e21b8152600481018290526024016106b3565b610a378383610b94565b505050565b306001600160a01b037f000000000000000000000000000000000000000000000000000000000000000016146103c35760405163703e46dd60e11b815260040160405180910390fd5b7f9016d09d72d40fdae2fd8ceac6b6234c7706214fd39c1cd1e609a0528c19930080546001600160a01b031981166001600160a01b03848116918217845560405192169182907f8be0079c531659141344cd1fd0a4f28419497f9722a3daafe3b4186f6b6457e0905f90a3505050565b610afd610be9565b61087181610c32565b6103c3610be9565b5f80548190610b26906001600160a01b031685610c3a565b60015460405163485cc95560e01b81526001600160a01b038681166004830152918216602482015291925082169063485cc955906044015f604051808303815f87803b158015610b74575f80fd5b505af1158015610b86573d5f803e3d5ffd5b509293505050505b92915050565b610b9d82610cd8565b6040516001600160a01b038316907fbc7cd75a20ee27fd9adebab32041f755214dbc6bffa90cc0225b39da2e5c2d3b905f90a2805115610be157610a378282610d3b565b610331610dad565b7ff0c57e16840df040f15088dc2f81fe391c3923bec73e23a9662efc9c229c6a0054600160401b900460ff166103c357604051631afcd79f60e31b815260040160405180910390fd5b61083f610be9565b5f604051733d602d80600a3d3981f3363d3d373d3d3d363d7360601b81528360601b60148201526e5af43d82803e903d91602b57fd5bf360881b6028820152826037825ff59150506001600160a01b038116610b8e5760405162461bcd60e51b815260206004820152601760248201527f455243313136373a2063726561746532206661696c656400000000000000000060448201526064016106b3565b806001600160a01b03163b5f03610d0d57604051634c9c8ce360e01b81526001600160a01b03821660048201526024016106b3565b5f80516020611b7f83398151915280546001600160a01b0319166001600160a01b0392909216919091179055565b60605f80846001600160a01b031684604051610d579190610fd8565b5f60405180830381855af49150503d805f8114610d8f576040519150601f19603f3d011682016040523d82523d5f602084013e610d94565b606091505b5091509150610da4858383610dcc565b95945050505050565b34156103c35760405163b398979f60e01b815260040160405180910390fd5b606082610de157610ddc82610e2b565b610e24565b8151158015610df857506001600160a01b0384163b155b15610e2157604051639996b31560e01b81526001600160a01b03851660048201526024016106b3565b50805b9392505050565b805115610e3b5780518082602001fd5b604051630a12f52160e11b815260040160405180910390fd5b610b9080610fef83390190565b80356001600160a01b0381168114610e77575f80fd5b919050565b5f60208284031215610e8c575f80fd5b610e2482610e61565b634e487b7160e01b5f52604160045260245ffd5b5f8060408385031215610eba575f80fd5b610ec383610e61565b9150602083013567ffffffffffffffff80821115610edf575f80fd5b818501915085601f830112610ef2575f80fd5b813581811115610f0457610f04610e95565b604051601f8201601f19908116603f01168101908382118183101715610f2c57610f2c610e95565b81604052828152886020848701011115610f44575f80fd5b826020860160208301375f6020848301015280955050505050509250929050565b5f60208284031215610f75575f80fd5b813567ffffffffffffffff81168114610e24575f80fd5b602081525f82518060208401528060208501604085015e5f604082850101526040601f19601f83011684010191505092915050565b5f60208284031215610fd1575f80fd5b5051919050565b5f82518060208501845e5f92019182525091905056fe6080604052348015600e575f80fd5b50604051610b90380380610b90833981016040819052602b91604f565b600280546001600160a01b0319166001600160a01b0392909216919091179055607a565b5f60208284031215605e575f80fd5b81516001600160a01b03811681146073575f80fd5b9392505050565b610b09806100875f395ff3fe608060405234801561000f575f80fd5b5060043610610055575f3560e01c8063485cc9551461005957806388cc58e41461006e5780638da5cb5b14610097578063b0f479a1146100a9578063eedc3c50146100ba575b5f80fd5b61006c610067366004610785565b6100cd565b005b6002546001600160a01b03165b6040516001600160a01b03909116815260200160405180910390f35b5f5461007b906001600160a01b031681565b6001546001600160a01b031661007b565b61006c6100c83660046108ba565b61015d565b5f546001600160a01b0316156101205760405162461bcd60e51b8152602060048201526013602482015272105b1c9958591e481a5b9a5d1a585b1a5e9959606a1b60448201526064015b60405180910390fd5b5f80546001600160a01b039384166001600160a01b0319918216179091556001805492909316918116919091179091556002805490911633179055565b6001546001600160a01b031633146101b75760405162461bcd60e51b815260206004820152601b60248201527f43616c6c61626c65206f6e6c792062792074686520726f7574657200000000006044820152606401610117565b5f5b82518110156102bf575f8382815181106101d5576101d5610a24565b60200260200101515f01516001600160a01b03168483815181106101fb576101fb610a24565b60200260200101516020015185848151811061021957610219610a24565b6020026020010151604001516040516102329190610a38565b5f6040518083038185875af1925050503d805f811461026c576040519150601f19603f3d011682016040523d82523d5f602084013e610271565b606091505b50509050806102b65760405162461bcd60e51b815260206004820152601160248201527010985d18da0818d85b1b0819985a5b1959607a1b6044820152606401610117565b506001016101b9565b506102c9816102d6565b6102d2816104e1565b5050565b5f8060015f9054906101000a90046001600160a01b03166001600160a01b031663185fcffe6040518163ffffffff1660e01b8152600401602060405180830381865afa158015610328573d5f803e3d5ffd5b505050506040513d601f19601f8201168201806040525081019061034c9190610a4e565b90505f5b83518110156104db575f84828151811061036c5761036c610a24565b6020026020010151905073eeeeeeeeeeeeeeeeeeeeeeeeeeeeeeeeeeeeeeee6001600160a01b0316816001600160a01b0316036103d8576127106103b08447610a65565b6103ba9190610a8e565b6001549094506103d3906001600160a01b031685610655565b6104d2565b6040516370a0823160e01b81523060048201525f906001600160a01b038316906370a0823190602401602060405180830381865afa15801561041c573d5f803e3d5ffd5b505050506040513d601f19601f820116820180604052508101906104409190610a4e565b905061271061044f8583610a65565b6104599190610a8e565b60015460405163a9059cbb60e01b81526001600160a01b0391821660048201526024810183905291965083169063a9059cbb906044016020604051808303815f875af11580156104ab573d5f803e3d5ffd5b505050506040513d601f19601f820116820180604052508101906104cf9190610aad565b50505b50600101610350565b50505050565b805180156102d2575f5b81811015610650575f83828151811061050657610506610a24565b6020026020010151905073eeeeeeeeeeeeeeeeeeeeeeeeeeeeeeeeeeeeeeee6001600160a01b0316816001600160a01b03160361055d574715610558575f54610558906001600160a01b031647610655565b610647565b6040516370a0823160e01b81523060048201525f906001600160a01b038316906370a0823190602401602060405180830381865afa1580156105a1573d5f803e3d5ffd5b505050506040513d601f19601f820116820180604052508101906105c59190610a4e565b9050600a811115610645575f5460405163a9059cbb60e01b81526001600160a01b039182166004820152602481018390529083169063a9059cbb906044016020604051808303815f875af115801561061f573d5f803e3d5ffd5b505050506040513d601f19601f820116820180604052508101906106439190610aad565b505b505b506001016104eb565b505050565b804710156106a55760405162461bcd60e51b815260206004820152601d60248201527f416464726573733a20696e73756666696369656e742062616c616e63650000006044820152606401610117565b5f826001600160a01b0316826040515f6040518083038185875af1925050503d805f81146106ee576040519150601f19603f3d011682016040523d82523d5f602084013e6106f3565b606091505b50509050806106505760405162461bcd60e51b815260206004820152603a60248201527f416464726573733a20756e61626c6520746f2073656e642076616c75652c207260448201527f6563697069656e74206d617920686176652072657665727465640000000000006064820152608401610117565b80356001600160a01b0381168114610780575f80fd5b919050565b5f8060408385031215610796575f80fd5b61079f8361076a565b91506107ad6020840161076a565b90509250929050565b634e487b7160e01b5f52604160045260245ffd5b6040516060810167ffffffffffffffff811182821017156107ed576107ed6107b6565b60405290565b604051601f8201601f1916810167ffffffffffffffff8111828210171561081c5761081c6107b6565b604052919050565b5f67ffffffffffffffff82111561083d5761083d6107b6565b5060051b60200190565b5f82601f830112610856575f80fd5b8135602061086b61086683610824565b6107f3565b8083825260208201915060208460051b87010193508684111561088c575f80fd5b602086015b848110156108af576108a28161076a565b8352918301918301610891565b509695505050505050565b5f80604083850312156108cb575f80fd5b823567ffffffffffffffff808211156108e2575f80fd5b818501915085601f8301126108f5575f80fd5b8135602061090561086683610824565b82815260059290921b84018101918181019089841115610923575f80fd5b8286015b848110156109f75780358681111561093d575f80fd5b8701601f196060828e0382011215610953575f80fd5b61095b6107ca565b61096687840161076a565b8152604083013587820152606083013589811115610982575f80fd5b8084019350508d603f840112610996575f80fd5b86830135898111156109aa576109aa6107b6565b6109ba8884601f840116016107f3565b92508083528e8889838701010111156109d1575f80fd5b8060408501898501375f9083018801526040810191909152845250918301918301610927565b5096505086013592505080821115610a0d575f80fd5b50610a1a85828601610847565b9150509250929050565b634e487b7160e01b5f52603260045260245ffd5b5f82518060208501845e5f920191825250919050565b5f60208284031215610a5e575f80fd5b5051919050565b8082028115828204841417610a8857634e487b7160e01b5f52601160045260245ffd5b92915050565b5f82610aa857634e487b7160e01b5f52601260045260245ffd5b500490565b5f60208284031215610abd575f80fd5b81518015158114610acc575f80fd5b939250505056fea2646970667358221220b28d7a2e49d4df99ef5704b0f5dcf09e60463cb8e870e7f67ba33af218a9659464736f6c63430008190033360894a13ba1a3210667c828492db98dca3e2076cc3735a920a3ca505d382bbca26469706673582212209625a476f25e0eee6a19f5cfff75c4f84ce043578d27bf42c2b4eed25f90ea8664736f6c63430008190033",
    "sourcePath": "c:/Users/Utente/Source/repos/baluni-contracts/contracts/BaluniV1AgentFactory.sol",
    "compiler": {
        "name": "solc",
        "version": "0.8.25+commit.b61c2a91"
    },
    "functionHashes": {
        "UPGRADE_INTERFACE_VERSION()": "ad3cb1cc",
        "changeImplementation()": "6c6be5f3",
        "changeRouter(address)": "340ac20f",
        "getAgentAddress(address)": "27d54a92",
        "getOrCreateAgent(address)": "9b76a5cd",
        "initialize()": "8129fc1c",
        "owner()": "8da5cb5b",
        "proxiableUUID()": "52d1902d",
        "reinitialize(uint64)": "9a1b97df",
        "renounceOwnership()": "715018a6",
        "router()": "f887ea40",
        "transferOwnership(address)": "f2fde38b",
        "upgradeToAndCall(address,bytes)": "4f1ef286",
        "userAgents(address)": "7811a785"
    },
    "gasEstimates": {
        "creation": {
            "codeDepositCost": "1424800",
            "executionCost": "infinite",
            "totalCost": "infinite"
        },
        "external": {
            "UPGRADE_INTERFACE_VERSION()": "infinite",
            "changeImplementation()": "infinite",
            "changeRouter(address)": "26812",
            "getAgentAddress(address)": "2577",
            "getOrCreateAgent(address)": "infinite",
            "initialize()": "infinite",
            "owner()": "2364",
            "proxiableUUID()": "infinite",
            "reinitialize(uint64)": "infinite",
            "renounceOwnership()": "infinite",
            "router()": "2413",
            "transferOwnership(address)": "28431",
            "upgradeToAndCall(address,bytes)": "infinite",
            "userAgents(address)": "2633"
        },
        "internal": {
            "_authorizeUpgrade(address)": "infinite",
            "_createAgent(bytes32,address)": "infinite",
            "isContract(address)": "infinite"
        }
    }
}