{
    "contractName": "BaluniV1Rebalancer",
    "abi": [
        {
            "inputs": [
                {
                    "internalType": "address",
                    "name": "target",
                    "type": "address"
                }
            ],
            "name": "AddressEmptyCode",
            "type": "error"
        },
        {
            "inputs": [
                {
                    "internalType": "address",
                    "name": "implementation",
                    "type": "address"
                }
            ],
            "name": "ERC1967InvalidImplementation",
            "type": "error"
        },
        {
            "inputs": [],
            "name": "ERC1967NonPayable",
            "type": "error"
        },
        {
            "inputs": [],
            "name": "FailedInnerCall",
            "type": "error"
        },
        {
            "inputs": [],
            "name": "InvalidInitialization",
            "type": "error"
        },
        {
            "inputs": [],
            "name": "NotInitializing",
            "type": "error"
        },
        {
            "inputs": [
                {
                    "internalType": "address",
                    "name": "owner",
                    "type": "address"
                }
            ],
            "name": "OwnableInvalidOwner",
            "type": "error"
        },
        {
            "inputs": [
                {
                    "internalType": "address",
                    "name": "account",
                    "type": "address"
                }
            ],
            "name": "OwnableUnauthorizedAccount",
            "type": "error"
        },
        {
            "inputs": [],
            "name": "UUPSUnauthorizedCallContext",
            "type": "error"
        },
        {
            "inputs": [
                {
                    "internalType": "bytes32",
                    "name": "slot",
                    "type": "bytes32"
                }
            ],
            "name": "UUPSUnsupportedProxiableUUID",
            "type": "error"
        },
        {
            "anonymous": false,
            "inputs": [
                {
                    "indexed": false,
                    "internalType": "uint64",
                    "name": "version",
                    "type": "uint64"
                }
            ],
            "name": "Initialized",
            "type": "event"
        },
        {
            "anonymous": false,
            "inputs": [
                {
                    "indexed": true,
                    "internalType": "address",
                    "name": "previousOwner",
                    "type": "address"
                },
                {
                    "indexed": true,
                    "internalType": "address",
                    "name": "newOwner",
                    "type": "address"
                }
            ],
            "name": "OwnershipTransferred",
            "type": "event"
        },
        {
            "anonymous": false,
            "inputs": [
                {
                    "indexed": true,
                    "internalType": "address",
                    "name": "implementation",
                    "type": "address"
                }
            ],
            "name": "Upgraded",
            "type": "event"
        },
        {
            "inputs": [],
            "name": "UPGRADE_INTERFACE_VERSION",
            "outputs": [
                {
                    "internalType": "string",
                    "name": "",
                    "type": "string"
                }
            ],
            "stateMutability": "view",
            "type": "function"
        },
        {
            "inputs": [],
            "name": "baluniRouter",
            "outputs": [
                {
                    "internalType": "contract IBaluniV1Router",
                    "name": "",
                    "type": "address"
                }
            ],
            "stateMutability": "view",
            "type": "function"
        },
        {
            "inputs": [
                {
                    "internalType": "address",
                    "name": "_newRouter",
                    "type": "address"
                }
            ],
            "name": "changeBaluniRouter",
            "outputs": [],
            "stateMutability": "nonpayable",
            "type": "function"
        },
        {
            "inputs": [
                {
                    "internalType": "address[]",
                    "name": "assets",
                    "type": "address[]"
                },
                {
                    "internalType": "uint256[]",
                    "name": "weights",
                    "type": "uint256[]"
                },
                {
                    "internalType": "uint256",
                    "name": "limit",
                    "type": "uint256"
                },
                {
                    "internalType": "address",
                    "name": "sender",
                    "type": "address"
                }
            ],
            "name": "checkRebalance",
            "outputs": [
                {
                    "components": [
                        {
                            "internalType": "uint256",
                            "name": "len",
                            "type": "uint256"
                        },
                        {
                            "internalType": "uint256",
                            "name": "totalValue",
                            "type": "uint256"
                        },
                        {
                            "internalType": "uint256",
                            "name": "finalUsdBalance",
                            "type": "uint256"
                        },
                        {
                            "internalType": "uint256",
                            "name": "overweightVaultsLength",
                            "type": "uint256"
                        },
                        {
                            "internalType": "uint256",
                            "name": "underweightVaultsLength",
                            "type": "uint256"
                        },
                        {
                            "internalType": "uint256",
                            "name": "totalActiveWeight",
                            "type": "uint256"
                        },
                        {
                            "internalType": "uint256",
                            "name": "amountOut",
                            "type": "uint256"
                        },
                        {
                            "internalType": "uint256[]",
                            "name": "overweightVaults",
                            "type": "uint256[]"
                        },
                        {
                            "internalType": "uint256[]",
                            "name": "overweightAmounts",
                            "type": "uint256[]"
                        },
                        {
                            "internalType": "uint256[]",
                            "name": "underweightVaults",
                            "type": "uint256[]"
                        },
                        {
                            "internalType": "uint256[]",
                            "name": "underweightAmounts",
                            "type": "uint256[]"
                        },
                        {
                            "internalType": "uint256[]",
                            "name": "balances",
                            "type": "uint256[]"
                        }
                    ],
                    "internalType": "struct IBaluniV1Rebalancer.RebalanceVars",
                    "name": "",
                    "type": "tuple"
                }
            ],
            "stateMutability": "view",
            "type": "function"
        },
        {
            "inputs": [],
            "name": "getBaluniRouter",
            "outputs": [
                {
                    "internalType": "address",
                    "name": "",
                    "type": "address"
                }
            ],
            "stateMutability": "view",
            "type": "function"
        },
        {
            "inputs": [
                {
                    "internalType": "contract IERC20",
                    "name": "srcToken",
                    "type": "address"
                },
                {
                    "internalType": "contract IERC20",
                    "name": "dstToken",
                    "type": "address"
                },
                {
                    "internalType": "bool",
                    "name": "useWrappers",
                    "type": "bool"
                }
            ],
            "name": "getRate",
            "outputs": [
                {
                    "internalType": "uint256",
                    "name": "weightedRate",
                    "type": "uint256"
                }
            ],
            "stateMutability": "view",
            "type": "function"
        },
        {
            "inputs": [
                {
                    "internalType": "address",
                    "name": "_baluniRouter",
                    "type": "address"
                },
                {
                    "internalType": "address",
                    "name": "_usdc",
                    "type": "address"
                },
                {
                    "internalType": "address",
                    "name": "_wnative",
                    "type": "address"
                },
                {
                    "internalType": "address",
                    "name": "_uniRouter",
                    "type": "address"
                },
                {
                    "internalType": "address",
                    "name": "_uniFactory",
                    "type": "address"
                },
                {
                    "internalType": "address",
                    "name": "_1InchSpotAggAddress",
                    "type": "address"
                }
            ],
            "name": "initialize",
            "outputs": [],
            "stateMutability": "nonpayable",
            "type": "function"
        },
        {
            "inputs": [
                {
                    "internalType": "address",
                    "name": "token0",
                    "type": "address"
                },
                {
                    "internalType": "address",
                    "name": "token1",
                    "type": "address"
                },
                {
                    "internalType": "address",
                    "name": "token2",
                    "type": "address"
                },
                {
                    "internalType": "uint256",
                    "name": "amount",
                    "type": "uint256"
                },
                {
                    "internalType": "address",
                    "name": "receiver",
                    "type": "address"
                }
            ],
            "name": "multiHopSwap",
            "outputs": [
                {
                    "internalType": "uint256",
                    "name": "amountOut",
                    "type": "uint256"
                }
            ],
            "stateMutability": "nonpayable",
            "type": "function"
        },
        {
            "inputs": [],
            "name": "owner",
            "outputs": [
                {
                    "internalType": "address",
                    "name": "",
                    "type": "address"
                }
            ],
            "stateMutability": "view",
            "type": "function"
        },
        {
            "inputs": [],
            "name": "proxiableUUID",
            "outputs": [
                {
                    "internalType": "bytes32",
                    "name": "",
                    "type": "bytes32"
                }
            ],
            "stateMutability": "view",
            "type": "function"
        },
        {
            "inputs": [
                {
                    "internalType": "address[]",
                    "name": "assets",
                    "type": "address[]"
                },
                {
                    "internalType": "uint256[]",
                    "name": "weights",
                    "type": "uint256[]"
                },
                {
                    "internalType": "address",
                    "name": "sender",
                    "type": "address"
                },
                {
                    "internalType": "address",
                    "name": "receiver",
                    "type": "address"
                },
                {
                    "internalType": "uint256",
                    "name": "limit",
                    "type": "uint256"
                }
            ],
            "name": "rebalance",
            "outputs": [],
            "stateMutability": "nonpayable",
            "type": "function"
        },
        {
            "inputs": [
                {
                    "internalType": "address",
                    "name": "_baluniRouter",
                    "type": "address"
                },
                {
                    "internalType": "address",
                    "name": "_usdc",
                    "type": "address"
                },
                {
                    "internalType": "address",
                    "name": "_wnative",
                    "type": "address"
                },
                {
                    "internalType": "address",
                    "name": "_uniRouter",
                    "type": "address"
                },
                {
                    "internalType": "address",
                    "name": "_uniFactory",
                    "type": "address"
                },
                {
                    "internalType": "uint64",
                    "name": "version",
                    "type": "uint64"
                }
            ],
            "name": "reinitialize",
            "outputs": [],
            "stateMutability": "nonpayable",
            "type": "function"
        },
        {
            "inputs": [],
            "name": "renounceOwnership",
            "outputs": [],
            "stateMutability": "nonpayable",
            "type": "function"
        },
        {
            "inputs": [
                {
                    "internalType": "address",
                    "name": "token0",
                    "type": "address"
                },
                {
                    "internalType": "address",
                    "name": "token1",
                    "type": "address"
                },
                {
                    "internalType": "uint256",
                    "name": "amount",
                    "type": "uint256"
                },
                {
                    "internalType": "address",
                    "name": "receiver",
                    "type": "address"
                }
            ],
            "name": "singleSwap",
            "outputs": [
                {
                    "internalType": "uint256",
                    "name": "amountOut",
                    "type": "uint256"
                }
            ],
            "stateMutability": "nonpayable",
            "type": "function"
        },
        {
            "inputs": [
                {
                    "internalType": "address",
                    "name": "newOwner",
                    "type": "address"
                }
            ],
            "name": "transferOwnership",
            "outputs": [],
            "stateMutability": "nonpayable",
            "type": "function"
        },
        {
            "inputs": [
                {
                    "internalType": "address",
                    "name": "newImplementation",
                    "type": "address"
                },
                {
                    "internalType": "bytes",
                    "name": "data",
                    "type": "bytes"
                }
            ],
            "name": "upgradeToAndCall",
            "outputs": [],
            "stateMutability": "payable",
            "type": "function"
        }
    ],
    "bytecode": "60a0604052306080523480156012575f80fd5b5060805161312c6100395f395f81816118bd015281816118e60152611a2a015261312c5ff3fe6080604052600436106100ef575f3560e01c8063715018a6116100875780638da5cb5b116100575780638da5cb5b14610279578063ad3cb1cc146102b5578063cc2a9a5b146102f2578063f2fde38b14610311575f80fd5b8063715018a6146101fb578063802431fb1461020f57806384db1dfb1461022e578063895769891461024d575f80fd5b806339b65140116100c257806339b65140146101965780634f1ef286146101b557806352d1902d146101c85780635efaaebb146101dc575f80fd5b806304cc7325146100f35780630f3d19cb1461012957806312bf2a1c1461014a5780632d6bc8ea14610169575b5f80fd5b3480156100fe575f80fd5b506001546001600160a01b03165b6040516001600160a01b0390911681526020015b60405180910390f35b348015610134575f80fd5b506101486101433660046128af565b610330565b005b348015610155575f80fd5b50610148610164366004612938565b610460565b348015610174575f80fd5b50610188610183366004612953565b61048a565b604051908152602001610120565b3480156101a1575f80fd5b5060015461010c906001600160a01b031681565b6101486101c33660046129b7565b61065a565b3480156101d3575f80fd5b50610188610679565b3480156101e7575f80fd5b506101886101f6366004612a74565b610694565b348015610206575f80fd5b50610148610861565b34801561021a575f80fd5b50610188610229366004612ae5565b610874565b348015610239575f80fd5b50610148610248366004612b74565b610ab7565b348015610258575f80fd5b5061026c610267366004612c0c565b6113df565b6040516101209190612cbd565b348015610284575f80fd5b507f9016d09d72d40fdae2fd8ceac6b6234c7706214fd39c1cd1e609a0528c199300546001600160a01b031661010c565b3480156102c0575f80fd5b506102e5604051806040016040528060058152602001640352e302e360dc1b81525081565b6040516101209190612dcc565b3480156102fd575f80fd5b5061014861030c366004612dde565b611400565b34801561031c575f80fd5b5061014861032b366004612938565b611583565b7ff0c57e16840df040f15088dc2f81fe391c3923bec73e23a9662efc9c229c6a008054829190600160401b900460ff1680610378575080546001600160401b03808416911610155b156103965760405163f92ee8a960e01b815260040160405180910390fd5b8054600160401b6001600160401b03841668ffffffffffffffffff199092168217178255600280546001600160a01b03199081166001600160a01b038b8116919091179092556003805482168a841617905560048054821689841617905560058054821688841617905560018054909116918b1691909117905564e8d4a510005f55815460ff60401b191682556040519081527fc7f505b2f371ae2175ee4913f4499e1f2633a7b5936321eed1cdaeb6115181d29060200160405180910390a15050505050505050565b6104686115c0565b600180546001600160a01b0319166001600160a01b0392909216919091179055565b5f3033036104ce5760405162461bcd60e51b815260206004820152600c60248201526b2bb937b7339039b2b73232b960a11b60448201526064015b60405180910390fd5b5f831161050b5760405162461bcd60e51b815260206004820152600b60248201526a0416d6f756e7420697320360ac1b60448201526064016104c5565b6040516370a0823160e01b815233600482015283906001600160a01b038716906370a0823190602401602060405180830381865afa15801561054f573d5f803e3d5ffd5b505050506040513d601f19601f820116820180604052508101906105739190612e4e565b10156105b85760405162461bcd60e51b8152602060048201526014602482015273496e73756666696369656e742042616c616e636560601b60448201526064016104c5565b6040516323b872dd60e01b8152336004820152306024820152604481018490526001600160a01b038616906323b872dd906064016020604051808303815f875af1158015610608573d5f803e3d5ffd5b505050506040513d601f19601f8201168201806040525081019061062c9190612e65565b506004546106459086906001600160a01b03168561161b565b6106518585858561177b565b95945050505050565b6106626118b2565b61066b82611956565b610675828261195e565b5050565b5f610682611a1f565b505f805160206130d783398151915290565b5f3033036106d35760405162461bcd60e51b815260206004820152600c60248201526b2bb937b7339039b2b73232b960a11b60448201526064016104c5565b5f83116107105760405162461bcd60e51b815260206004820152600b60248201526a0416d6f756e7420697320360ac1b60448201526064016104c5565b6040516370a0823160e01b815233600482015283906001600160a01b038816906370a0823190602401602060405180830381865afa158015610754573d5f803e3d5ffd5b505050506040513d601f19601f820116820180604052508101906107789190612e4e565b10156107bd5760405162461bcd60e51b8152602060048201526014602482015273496e73756666696369656e742042616c616e636560601b60448201526064016104c5565b6040516323b872dd60e01b8152336004820152306024820152604481018490526001600160a01b038716906323b872dd906064016020604051808303815f875af115801561080d573d5f803e3d5ffd5b505050506040513d601f19601f820116820180604052508101906108319190612e65565b5060045461084a9087906001600160a01b03168561161b565b6108578686868686611a68565b9695505050505050565b6108696115c0565b6108725f611b75565b565b5f805f856001600160a01b031663313ce5676040518163ffffffff1660e01b8152600401602060405180830381865afa1580156108b3573d5f803e3d5ffd5b505050506040513d601f19601f820116820180604052508101906108d79190612e80565b90505f856001600160a01b031663313ce5676040518163ffffffff1660e01b8152600401602060405180830381865afa158015610916573d5f803e3d5ffd5b505050506040513d601f19601f8201168201806040525081019061093a9190612e80565b90505f610948836012612f94565b610953906001612fa2565b60065460405163802431fb60e01b81526001600160a01b038b811660048301528a811660248301525f604483015292935091169063802431fb90606401602060405180830381865afa9250505080156109c9575060408051601f3d908101601f191682019092526109c691810190612e4e565b60015b6109d9575f945050505050610ab0565b93508160ff168360ff1603610a2057670de0b6b3a764000084610a018364e8d4a51000612fa2565b610a0b9190612fa2565b610a159190612fb9565b945050505050610ab0565b5f610a2b8385612fd8565b610a3690600a612f94565b905060128460ff161015610a8157670de0b6b3a7640000610a578287612fa2565b610a618385612fa2565b610a6b9190612fa2565b610a759190612fb9565b95505050505050610ab0565b670de0b6b3a7640000610a948287612fa2565b610a9e9084612fa2565b610aa89190612fb9565b955050505050505b9392505050565b5f610ac6888888888689611be5565b90505f5b8160e0015151811015610d99575f8261010001518281518110610aef57610aef612ff1565b60200260200101511115610d91575f89898460e001518481518110610b1657610b16612ff1565b6020026020010151818110610b2d57610b2d612ff1565b9050602002016020810190610b429190612938565b90508261010001518281518110610b5b57610b5b612ff1565b60200260200101518361016001518381518110610b7a57610b7a612ff1565b60200260200101511015610bd05760405162461bcd60e51b815260206004820181905260248201527f42616c616e636520756e646572206f76657277656967687420616d6f756e747360448201526064016104c5565b806001600160a01b03166323b872dd87308661010001518681518110610bf857610bf8612ff1565b60209081029190910101516040516001600160e01b031960e086901b1681526001600160a01b03938416600482015292909116602483015260448201526064016020604051808303815f875af1158015610c54573d5f803e3d5ffd5b505050506040513d601f19601f82011682018060405250810190610c789190612e65565b506002546001600160a01b0390811690821603610c955750610d91565b6004546101008401518051610ccf9284926001600160a01b039091169186908110610cc257610cc2612ff1565b602002602001015161161b565b6003546001600160a01b0390811690821603610d39576002546101008401518051610d209284926001600160a01b039091169186908110610d1257610d12612ff1565b60200260200101513061177b565b8360c001818151610d319190613005565b905250610d8f565b6003546002546101008501518051610d7a9385936001600160a01b039182169391169187908110610d6c57610d6c612ff1565b602002602001015130611a68565b8360c001818151610d8b9190613005565b9052505b505b600101610aca565b506002546040516370a0823160e01b81523060048201525f916001600160a01b0316906370a0823190602401602060405180830381865afa158015610de0573d5f803e3d5ffd5b505050506040513d601f19601f82011682018060405250810190610e049190612e4e565b90508160c00151811015610e5a5760405162461bcd60e51b815260206004820152601960248201527f496e73756666696369656e7420555344432042616c616e63650000000000000060448201526064016104c5565b5f5b826101200151518110156113d3575f8361014001518281518110610e8257610e82612ff1565b602002602001015111156113cb575f8a8a8561012001518481518110610eaa57610eaa612ff1565b6020026020010151818110610ec157610ec1612ff1565b9050602002016020810190610ed69190612938565b90505f8460a001518561014001518481518110610ef557610ef5612ff1565b6020026020010151612710610f0a9190612fa2565b610f149190612fb9565b90505f612710610f248684612fa2565b610f339064e8d4a51000612fa2565b610f3d9190612fb9565b6002549091506001600160a01b0390811690841603610fec576002546001600160a01b031663a9059cbb89610f7764e8d4a5100085612fb9565b6040516001600160e01b031960e085901b1681526001600160a01b03909216600483015260248201526044016020604051808303815f875af1158015610fbf573d5f803e3d5ffd5b505050506040513d601f19601f82011682018060405250810190610fe39190612e65565b505050506113cb565b5f8111801561100957506110058564e8d4a51000612fa2565b8111155b156113c757600254600454611039916001600160a01b03908116911661103464e8d4a5100085612fb9565b61161b565b61104864e8d4a5100082612fb9565b8510156110905760405162461bcd60e51b815260206004820152601660248201527542616c616e636520756e64657220526562757951747960501b60448201526064016104c5565b60015460408051631d8cf42560e11b815290515f926001600160a01b031691633b19e84a9160048083019260209291908290030181865afa1580156110d7573d5f803e3d5ffd5b505050506040513d601f19601f820116820180604052508101906110fb9190613018565b6003549091505f906001600160a01b039081169086160361114957600254600354611142916001600160a01b03908116911661113c64e8d4a5100087612fb9565b3061177b565b9050611179565b600254600354611176916001600160a01b0390811691168761117064e8d4a5100088612fb9565b30611a68565b90505b60c088018190525f61118a82612335565b90505f6111978284613033565b90505f6111a382612335565b90505f6111b08284613033565b6040516370a0823160e01b815230600482015290915084906001600160a01b038b16906370a0823190602401602060405180830381865afa1580156111f7573d5f803e3d5ffd5b505050506040513d601f19601f8201168201806040525081019061121b9190612e4e565b10156112695760405162461bcd60e51b815260206004820152601e60248201527f42616c616e636520756e64657220616d6f756e74546f5472616e73666572000060448201526064016104c5565b60405163a9059cbb60e01b81526001600160a01b038f81166004830152602482018690528a169063a9059cbb906044016020604051808303815f875af11580156112b5573d5f803e3d5ffd5b505050506040513d601f19601f820116820180604052508101906112d99190612e65565b5060015460405163a9059cbb60e01b81526001600160a01b03918216600482015260248101849052908a169063a9059cbb906044016020604051808303815f875af115801561132a573d5f803e3d5ffd5b505050506040513d601f19601f8201168201806040525081019061134e9190612e65565b5060405163a9059cbb60e01b81526001600160a01b038781166004830152602482018390528a169063a9059cbb906044016020604051808303815f875af115801561139b573d5f803e3d5ffd5b505050506040513d601f19601f820116820180604052508101906113bf9190612e65565b505050505050505b5050505b600101610e5c565b50505050505050505050565b6113e7612841565b6113f5878787878787611be5565b979650505050505050565b7ff0c57e16840df040f15088dc2f81fe391c3923bec73e23a9662efc9c229c6a008054600160401b810460ff1615906001600160401b03165f811580156114445750825b90505f826001600160401b0316600114801561145f5750303b155b90508115801561146d575080155b1561148b5760405163f92ee8a960e01b815260040160405180910390fd5b845467ffffffffffffffff1916600117855583156114b557845460ff60401b1916600160401b1785555b6114bd6123d3565b6114c6336123db565b600280546001600160a01b03199081166001600160a01b038d8116919091179092556003805482168c84161790556004805482168b84161790556005805482168a84161790556001805482168e84161790556006805490911691881691909117905564e8d4a510005f55831561157657845460ff60401b19168555604051600181527fc7f505b2f371ae2175ee4913f4499e1f2633a7b5936321eed1cdaeb6115181d29060200160405180910390a15b5050505050505050505050565b61158b6115c0565b6001600160a01b0381166115b457604051631e4fbdf760e01b81525f60048201526024016104c5565b6115bd81611b75565b50565b336115f27f9016d09d72d40fdae2fd8ceac6b6234c7706214fd39c1cd1e609a0528c199300546001600160a01b031690565b6001600160a01b0316146108725760405163118cdaa760e01b81523360048201526024016104c5565b604051636eb1769f60e11b81523060048201526001600160a01b0383811660248301528491839183169063dd62ed3e90604401602060405180830381865afa158015611669573d5f803e3d5ffd5b505050506040513d601f19601f8201168201806040525081019061168d9190612e4e565b10156117755760405163095ea7b360e01b81526001600160a01b0384811660048301525f602483015282169063095ea7b3906044016020604051808303815f875af11580156116de573d5f803e3d5ffd5b505050506040513d601f19601f820116820180604052508101906117029190612e65565b5060405163095ea7b360e01b81526001600160a01b0384811660048301526024820184905282169063095ea7b3906044016020604051808303815f875af115801561174f573d5f803e3d5ffd5b505050506040513d601f19601f820116820180604052508101906117739190612e65565b505b50505050565b5f80604051806101000160405280876001600160a01b03168152602001866001600160a01b03168152602001610bb862ffffff168152602001846001600160a01b0316815260200142603c6117d09190613005565b8152602080820187905260016040808401919091525f606093840181905260048054835163414bf38960e01b815287516001600160a01b039081169382019390935294870151821660248601529286015162ffffff16604485015293850151841660648401526080850151608484015260a085015160a484015260c085015160c484015260e0850151841660e4840152939450919091169063414bf38990610104016020604051808303815f875af115801561188e573d5f803e3d5ffd5b505050506040513d601f19601f820116820180604052508101906113f59190612e4e565b306001600160a01b037f000000000000000000000000000000000000000000000000000000000000000016148061193857507f00000000000000000000000000000000000000000000000000000000000000006001600160a01b031661192c5f805160206130d7833981519152546001600160a01b031690565b6001600160a01b031614155b156108725760405163703e46dd60e11b815260040160405180910390fd5b6115bd6115c0565b816001600160a01b03166352d1902d6040518163ffffffff1660e01b8152600401602060405180830381865afa9250505080156119b8575060408051601f3d908101601f191682019092526119b591810190612e4e565b60015b6119e057604051634c9c8ce360e01b81526001600160a01b03831660048201526024016104c5565b5f805160206130d78339815191528114611a1057604051632a87526960e21b8152600481018290526024016104c5565b611a1a83836123ec565b505050565b306001600160a01b037f000000000000000000000000000000000000000000000000000000000000000016146108725760405163703e46dd60e11b815260040160405180910390fd5b6040805160a0810182526bffffffffffffffffffffffff19606088811b821660c084015261017760eb1b60d4840181905288821b831660d785015260eb84015286901b1660ee820152815180820360e20181526101028201835281526001600160a01b03831660208201525f918291908101611ae542603c613005565b815260208101869052600160409182015260048054915163c04b8d5960e01b81529293505f926001600160a01b039092169163c04b8d5991611b2991869101613046565b6020604051808303815f875af1158015611b45573d5f803e3d5ffd5b505050506040513d601f19601f82011682018060405250810190611b699190612e4e565b98975050505050505050565b7f9016d09d72d40fdae2fd8ceac6b6234c7706214fd39c1cd1e609a0528c19930080546001600160a01b031981166001600160a01b03848116918217845560405192169182907f8be0079c531659141344cd1fd0a4f28419497f9722a3daafe3b4186f6b6457e0905f90a3505050565b611bed612841565b5f611c2b8888808060200260200160405190810160405280939291908181526020018383602002808284375f92019190915250879250612441915050565b90505f6040518061018001604052808a8a905081526020018381526020015f81526020015f81526020015f81526020015f81526020015f81526020018a8a90506002611c779190612fa2565b6001600160401b03811115611c8e57611c8e6129a3565b604051908082528060200260200182016040528015611cb7578160200160208202803683370190505b508152602001611cc88a6002612fa2565b6001600160401b03811115611cdf57611cdf6129a3565b604051908082528060200260200182016040528015611d08578160200160208202803683370190505b508152602001611d198a6002612fa2565b6001600160401b03811115611d3057611d306129a3565b604051908082528060200260200182016040528015611d59578160200160208202803683370190505b508152602001611d6a8a6002612fa2565b6001600160401b03811115611d8157611d816129a3565b604051908082528060200260200182016040528015611daa578160200160208202803683370190505b508152602001896001600160401b03811115611dc857611dc86129a3565b604051908082528060200260200182016040528015611df1578160200160208202803683370190505b50905290505f5b888110156122c057898982818110611e1257611e12612ff1565b9050602002016020810190611e279190612938565b6040516370a0823160e01b81526001600160a01b03878116600483015291909116906370a0823190602401602060405180830381865afa158015611e6d573d5f803e3d5ffd5b505050506040513d601f19601f82011682018060405250810190611e919190612e4e565b8261016001518281518110611ea857611ea8612ff1565b6020026020010181815250505f8a8a83818110611ec757611ec7612ff1565b9050602002016020810190611edc9190612938565b6001600160a01b031663313ce5676040518163ffffffff1660e01b8152600401602060405180830381865afa158015611f17573d5f803e3d5ffd5b505050506040513d601f19601f82011682018060405250810190611f3b9190612e80565b60015460ff9190911691505f9081906001600160a01b0316632bdd955a611f6385600a61309d565b611f6e906001612fa2565b8f8f88818110611f8057611f80612ff1565b9050602002016020810190611f959190612938565b6040516001600160e01b031960e085901b16815260048101929092526001600160a01b03166024820152604401602060405180830381865afa158015611fdd573d5f803e3d5ffd5b505050506040513d601f19601f820116820180604052508101906120019190612e4e565b6002549091506001600160a01b03168d8d8681811061202257612022612ff1565b90506020020160208101906120379190612938565b6001600160a01b03160361207b57846101600151848151811061205c5761205c612ff1565b602002602001015164e8d4a510006120749190612fa2565b91506120db565b670de0b6b3a764000061208f846012613033565b61209a90600a61309d565b86610160015186815181106120b1576120b1612ff1565b6020026020010151836120c49190612fa2565b6120ce9190612fa2565b6120d89190612fb9565b91505b5f8b8b868181106120ee576120ee612ff1565b9050602002013590505f87846127106121079190612fa2565b6121119190612fb9565b90508181115f8161212b576121268385613033565b612135565b6121358484613033565b905081801561214357508c81115b15612220575f6127106121568c84612fa2565b6121609190612fb9565b9050808a6040018181516121749190613005565b9052508561218a82670de0b6b3a7640000612fa2565b6121949190612fb9565b90506121a1886012613033565b6121ac90600a61309d565b6121b69082612fb9565b9050888a60e001518b60600151815181106121d3576121d3612ff1565b602002602001018181525050808a61010001518b60600151815181106121fb576121fb612ff1565b602090810291909101015260608a01805190612216826130a8565b81525050506122ad565b8115801561222d57508c81115b156122ad57808960a0018181516122449190613005565b90525061012089015160808a015181518a929190811061226657612266612ff1565b602002602001018181525050808961014001518a608001518151811061228e5761228e612ff1565b6020908102919091010152608089018051906122a9826130a8565b9052505b505060019095019450611df89350505050565b506122d38160e0015182606001516125f0565b60e082015261010081015160608201516122ed91906125f0565b610100820152610120810151608082015161230891906125f0565b610120820152610140810151608082015161232391906125f0565b61014082015298975050505050505050565b5f8061271090505f60015f9054906101000a90046001600160a01b03166001600160a01b031663185fcffe6040518163ffffffff1660e01b8152600401602060405180830381865afa15801561238d573d5f803e3d5ffd5b505050506040513d601f19601f820116820180604052508101906123b19190612e4e565b90505f826123bf8382613033565b6123c99087612fa2565b6106519190612fb9565b610872612680565b6123e3612680565b6115bd816126c9565b6123f5826126d1565b6040516001600160a01b038316907fbc7cd75a20ee27fd9adebab32041f755214dbc6bffa90cc0225b39da2e5c2d3b905f90a280511561243957611a1a8282612734565b61067561279d565b5f80805b84518110156125e6575f85828151811061246157612461612ff1565b60209081029190910101516040516370a0823160e01b81526001600160a01b038781166004830152909116906370a0823190602401602060405180830381865afa1580156124b1573d5f803e3d5ffd5b505050506040513d601f19601f820116820180604052508101906124d59190612e4e565b60025487519192506001600160a01b0316908790849081106124f9576124f9612ff1565b60200260200101516001600160a01b03160361252f5761251e8164e8d4a51000612fa2565b6125289084613005565b92506125dd565b60015486516001600160a01b0390911690632bdd955a90839089908690811061255a5761255a612ff1565b60200260200101516040518363ffffffff1660e01b81526004016125919291909182526001600160a01b0316602082015260400190565b602060405180830381865afa1580156125ac573d5f803e3d5ffd5b505050506040513d601f19601f820116820180604052508101906125d09190612e4e565b6125da9084613005565b92505b50600101612445565b5090505b92915050565b60605f826001600160401b0381111561260b5761260b6129a3565b604051908082528060200260200182016040528015612634578160200160208202803683370190505b5090505f5b838110156125e65784818151811061265357612653612ff1565b602002602001015182828151811061266d5761266d612ff1565b6020908102919091010152600101612639565b7ff0c57e16840df040f15088dc2f81fe391c3923bec73e23a9662efc9c229c6a0054600160401b900460ff1661087257604051631afcd79f60e31b815260040160405180910390fd5b61158b612680565b806001600160a01b03163b5f0361270657604051634c9c8ce360e01b81526001600160a01b03821660048201526024016104c5565b5f805160206130d783398151915280546001600160a01b0319166001600160a01b0392909216919091179055565b60605f80846001600160a01b03168460405161275091906130c0565b5f60405180830381855af49150503d805f8114612788576040519150601f19603f3d011682016040523d82523d5f602084013e61278d565b606091505b50915091506106518583836127bc565b34156108725760405163b398979f60e01b815260040160405180910390fd5b6060826127d1576127cc82612818565b610ab0565b81511580156127e857506001600160a01b0384163b155b1561281157604051639996b31560e01b81526001600160a01b03851660048201526024016104c5565b5080610ab0565b8051156128285780518082602001fd5b604051630a12f52160e11b815260040160405180910390fd5b6040518061018001604052805f81526020015f81526020015f81526020015f81526020015f81526020015f81526020015f815260200160608152602001606081526020016060815260200160608152602001606081525090565b6001600160a01b03811681146115bd575f80fd5b5f805f805f8060c087890312156128c4575f80fd5b86356128cf8161289b565b955060208701356128df8161289b565b945060408701356128ef8161289b565b935060608701356128ff8161289b565b9250608087013561290f8161289b565b915060a08701356001600160401b038116811461292a575f80fd5b809150509295509295509295565b5f60208284031215612948575f80fd5b8135610ab08161289b565b5f805f8060808587031215612966575f80fd5b84356129718161289b565b935060208501356129818161289b565b92506040850135915060608501356129988161289b565b939692955090935050565b634e487b7160e01b5f52604160045260245ffd5b5f80604083850312156129c8575f80fd5b82356129d38161289b565b915060208301356001600160401b03808211156129ee575f80fd5b818501915085601f830112612a01575f80fd5b813581811115612a1357612a136129a3565b604051601f8201601f19908116603f01168101908382118183101715612a3b57612a3b6129a3565b81604052828152886020848701011115612a53575f80fd5b826020860160208301375f6020848301015280955050505050509250929050565b5f805f805f60a08688031215612a88575f80fd5b8535612a938161289b565b94506020860135612aa38161289b565b93506040860135612ab38161289b565b9250606086013591506080860135612aca8161289b565b809150509295509295909350565b80151581146115bd575f80fd5b5f805f60608486031215612af7575f80fd5b8335612b028161289b565b92506020840135612b128161289b565b91506040840135612b2281612ad8565b809150509250925092565b5f8083601f840112612b3d575f80fd5b5081356001600160401b03811115612b53575f80fd5b6020830191508360208260051b8501011115612b6d575f80fd5b9250929050565b5f805f805f805f60a0888a031215612b8a575f80fd5b87356001600160401b0380821115612ba0575f80fd5b612bac8b838c01612b2d565b909950975060208a0135915080821115612bc4575f80fd5b50612bd18a828b01612b2d565b9096509450506040880135612be58161289b565b92506060880135612bf58161289b565b809250506080880135905092959891949750929550565b5f805f805f8060808789031215612c21575f80fd5b86356001600160401b0380821115612c37575f80fd5b612c438a838b01612b2d565b90985096506020890135915080821115612c5b575f80fd5b50612c6889828a01612b2d565b90955093505060408701359150606087013561292a8161289b565b5f815180845260208085019450602084015f5b83811015612cb257815187529582019590820190600101612c96565b509495945050505050565b6020815281516020820152602082015160408201526040820151606082015260608201516080820152608082015160a082015260a082015160c082015260c082015160e08201525f60e08301516101806101008181860152612d236101a0860184612c83565b9250808601519050601f19610120818786030181880152612d448584612c83565b945080880151925050610140818786030181880152612d638584612c83565b945080880151925050610160818786030181880152612d828584612c83565b9088015187820390920184880152935090506108578382612c83565b5f81518084528060208401602086015e5f602082860101526020601f19601f83011685010191505092915050565b602081525f610ab06020830184612d9e565b5f805f805f8060c08789031215612df3575f80fd5b8635612dfe8161289b565b95506020870135612e0e8161289b565b94506040870135612e1e8161289b565b93506060870135612e2e8161289b565b92506080870135612e3e8161289b565b915060a087013561292a8161289b565b5f60208284031215612e5e575f80fd5b5051919050565b5f60208284031215612e75575f80fd5b8151610ab081612ad8565b5f60208284031215612e90575f80fd5b815160ff81168114610ab0575f80fd5b634e487b7160e01b5f52601160045260245ffd5b600181815b80851115612eee57815f1904821115612ed457612ed4612ea0565b80851615612ee157918102915b93841c9390800290612eb9565b509250929050565b5f82612f04575060016125ea565b81612f1057505f6125ea565b8160018114612f265760028114612f3057612f4c565b60019150506125ea565b60ff841115612f4157612f41612ea0565b50506001821b6125ea565b5060208310610133831016604e8410600b8410161715612f6f575081810a6125ea565b612f798383612eb4565b805f1904821115612f8c57612f8c612ea0565b029392505050565b5f610ab060ff841683612ef6565b80820281158282048414176125ea576125ea612ea0565b5f82612fd357634e487b7160e01b5f52601260045260245ffd5b500490565b60ff82811682821603908111156125ea576125ea612ea0565b634e487b7160e01b5f52603260045260245ffd5b808201808211156125ea576125ea612ea0565b5f60208284031215613028575f80fd5b8151610ab08161289b565b818103818111156125ea576125ea612ea0565b602081525f825160a0602084015261306160c0840182612d9e565b905060018060a01b0360208501511660408401526040840151606084015260608401516080840152608084015160a08401528091505092915050565b5f610ab08383612ef6565b5f600182016130b9576130b9612ea0565b5060010190565b5f82518060208501845e5f92019182525091905056fe360894a13ba1a3210667c828492db98dca3e2076cc3735a920a3ca505d382bbca2646970667358221220144710b724618f110fb2233f7aa0fdc20b4d272e21944d581f5658190d7428cd64736f6c63430008190033",
    "sourcePath": "c:/Users/Utente/Source/repos/baluni-contracts/contracts/BaluniV1Rebalancer.sol",
    "compiler": {
        "name": "solc",
        "version": "0.8.25+commit.b61c2a91"
    },
    "functionHashes": {
        "UPGRADE_INTERFACE_VERSION()": "ad3cb1cc",
        "baluniRouter()": "39b65140",
        "changeBaluniRouter(address)": "12bf2a1c",
        "checkRebalance(address[],uint256[],uint256,address)": "89576989",
        "getBaluniRouter()": "04cc7325",
        "getRate(address,address,bool)": "802431fb",
        "initialize(address,address,address,address,address,address)": "cc2a9a5b",
        "multiHopSwap(address,address,address,uint256,address)": "5efaaebb",
        "owner()": "8da5cb5b",
        "proxiableUUID()": "52d1902d",
        "rebalance(address[],uint256[],address,address,uint256)": "84db1dfb",
        "reinitialize(address,address,address,address,address,uint64)": "0f3d19cb",
        "renounceOwnership()": "715018a6",
        "singleSwap(address,address,uint256,address)": "2d6bc8ea",
        "transferOwnership(address)": "f2fde38b",
        "upgradeToAndCall(address,bytes)": "4f1ef286"
    },
    "gasEstimates": {
        "creation": {
            "codeDepositCost": "2517600",
            "executionCost": "infinite",
            "totalCost": "infinite"
        },
        "external": {
            "UPGRADE_INTERFACE_VERSION()": "infinite",
            "baluniRouter()": "2348",
            "changeBaluniRouter(address)": "26828",
            "checkRebalance(address[],uint256[],uint256,address)": "infinite",
            "getBaluniRouter()": "2332",
            "getRate(address,address,bool)": "infinite",
            "initialize(address,address,address,address,address,address)": "infinite",
            "multiHopSwap(address,address,address,uint256,address)": "infinite",
            "owner()": "2341",
            "proxiableUUID()": "infinite",
            "rebalance(address[],uint256[],address,address,uint256)": "infinite",
            "reinitialize(address,address,address,address,address,uint64)": "infinite",
            "renounceOwnership()": "infinite",
            "singleSwap(address,address,uint256,address)": "infinite",
            "transferOwnership(address)": "infinite",
            "upgradeToAndCall(address,bytes)": "infinite"
        },
        "internal": {
            "_authorizeUpgrade(address)": "infinite",
            "_checkRebalance(address[] calldata,uint256[] calldata,uint256,address)": "infinite",
            "_multiHopSwap(address,address,address,uint256,address)": "infinite",
            "_resize(uint256[] memory,uint256)": "infinite",
            "_singleSwap(address,address,uint256,address)": "infinite",
            "calculateNetAmountAfterFee(uint256)": "infinite",
            "calculateTotalValue(address[] memory,address)": "infinite",
            "secureApproval(address,address,uint256)": "infinite"
        }
    }
}