{
    "contractName": "BaluniV1PoolPeriphery",
    "abi": [
        {
            "inputs": [
                {
                    "internalType": "address",
                    "name": "target",
                    "type": "address"
                }
            ],
            "name": "AddressEmptyCode",
            "type": "error"
        },
        {
            "inputs": [
                {
                    "internalType": "address",
                    "name": "implementation",
                    "type": "address"
                }
            ],
            "name": "ERC1967InvalidImplementation",
            "type": "error"
        },
        {
            "inputs": [],
            "name": "ERC1967NonPayable",
            "type": "error"
        },
        {
            "inputs": [],
            "name": "FailedInnerCall",
            "type": "error"
        },
        {
            "inputs": [],
            "name": "InvalidInitialization",
            "type": "error"
        },
        {
            "inputs": [],
            "name": "NotInitializing",
            "type": "error"
        },
        {
            "inputs": [
                {
                    "internalType": "address",
                    "name": "owner",
                    "type": "address"
                }
            ],
            "name": "OwnableInvalidOwner",
            "type": "error"
        },
        {
            "inputs": [
                {
                    "internalType": "address",
                    "name": "account",
                    "type": "address"
                }
            ],
            "name": "OwnableUnauthorizedAccount",
            "type": "error"
        },
        {
            "inputs": [],
            "name": "UUPSUnauthorizedCallContext",
            "type": "error"
        },
        {
            "inputs": [
                {
                    "internalType": "bytes32",
                    "name": "slot",
                    "type": "bytes32"
                }
            ],
            "name": "UUPSUnsupportedProxiableUUID",
            "type": "error"
        },
        {
            "anonymous": false,
            "inputs": [
                {
                    "indexed": false,
                    "internalType": "uint64",
                    "name": "version",
                    "type": "uint64"
                }
            ],
            "name": "Initialized",
            "type": "event"
        },
        {
            "anonymous": false,
            "inputs": [
                {
                    "indexed": true,
                    "internalType": "address",
                    "name": "previousOwner",
                    "type": "address"
                },
                {
                    "indexed": true,
                    "internalType": "address",
                    "name": "newOwner",
                    "type": "address"
                }
            ],
            "name": "OwnershipTransferred",
            "type": "event"
        },
        {
            "anonymous": false,
            "inputs": [
                {
                    "indexed": true,
                    "internalType": "address",
                    "name": "implementation",
                    "type": "address"
                }
            ],
            "name": "Upgraded",
            "type": "event"
        },
        {
            "inputs": [],
            "name": "FEE",
            "outputs": [
                {
                    "internalType": "uint256",
                    "name": "",
                    "type": "uint256"
                }
            ],
            "stateMutability": "view",
            "type": "function"
        },
        {
            "inputs": [],
            "name": "UPGRADE_INTERFACE_VERSION",
            "outputs": [
                {
                    "internalType": "string",
                    "name": "",
                    "type": "string"
                }
            ],
            "stateMutability": "view",
            "type": "function"
        },
        {
            "inputs": [
                {
                    "internalType": "uint256[]",
                    "name": "amounts",
                    "type": "uint256[]"
                },
                {
                    "internalType": "address",
                    "name": "poolAddress",
                    "type": "address"
                },
                {
                    "internalType": "address",
                    "name": "receiver",
                    "type": "address"
                }
            ],
            "name": "addLiquidity",
            "outputs": [],
            "stateMutability": "nonpayable",
            "type": "function"
        },
        {
            "inputs": [
                {
                    "internalType": "address[]",
                    "name": "fromTokens",
                    "type": "address[]"
                },
                {
                    "internalType": "address[]",
                    "name": "toTokens",
                    "type": "address[]"
                },
                {
                    "internalType": "uint256[]",
                    "name": "amounts",
                    "type": "uint256[]"
                },
                {
                    "internalType": "address[]",
                    "name": "receivers",
                    "type": "address[]"
                }
            ],
            "name": "batchSwap",
            "outputs": [
                {
                    "internalType": "uint256[]",
                    "name": "",
                    "type": "uint256[]"
                }
            ],
            "stateMutability": "nonpayable",
            "type": "function"
        },
        {
            "inputs": [
                {
                    "internalType": "address",
                    "name": "_poolFactory",
                    "type": "address"
                }
            ],
            "name": "changePoolFactory",
            "outputs": [],
            "stateMutability": "nonpayable",
            "type": "function"
        },
        {
            "inputs": [
                {
                    "internalType": "address",
                    "name": "_treasury",
                    "type": "address"
                }
            ],
            "name": "changeTreausry",
            "outputs": [],
            "stateMutability": "nonpayable",
            "type": "function"
        },
        {
            "inputs": [
                {
                    "internalType": "address",
                    "name": "fromToken",
                    "type": "address"
                },
                {
                    "internalType": "address",
                    "name": "toToken",
                    "type": "address"
                },
                {
                    "internalType": "uint256",
                    "name": "amount",
                    "type": "uint256"
                }
            ],
            "name": "getAmountOut",
            "outputs": [
                {
                    "internalType": "uint256",
                    "name": "",
                    "type": "uint256"
                }
            ],
            "stateMutability": "view",
            "type": "function"
        },
        {
            "inputs": [
                {
                    "internalType": "address",
                    "name": "pool",
                    "type": "address"
                },
                {
                    "internalType": "address",
                    "name": "asset",
                    "type": "address"
                }
            ],
            "name": "getAssetReserve",
            "outputs": [
                {
                    "internalType": "uint256",
                    "name": "",
                    "type": "uint256"
                }
            ],
            "stateMutability": "view",
            "type": "function"
        },
        {
            "inputs": [
                {
                    "internalType": "address",
                    "name": "token",
                    "type": "address"
                }
            ],
            "name": "getPoolsContainingToken",
            "outputs": [
                {
                    "internalType": "address[]",
                    "name": "",
                    "type": "address[]"
                }
            ],
            "stateMutability": "view",
            "type": "function"
        },
        {
            "inputs": [
                {
                    "internalType": "address",
                    "name": "pool",
                    "type": "address"
                }
            ],
            "name": "getReserves",
            "outputs": [
                {
                    "internalType": "uint256[]",
                    "name": "",
                    "type": "uint256[]"
                }
            ],
            "stateMutability": "view",
            "type": "function"
        },
        {
            "inputs": [],
            "name": "getVersion",
            "outputs": [
                {
                    "internalType": "uint64",
                    "name": "",
                    "type": "uint64"
                }
            ],
            "stateMutability": "view",
            "type": "function"
        },
        {
            "inputs": [
                {
                    "internalType": "address",
                    "name": "_poolFactory",
                    "type": "address"
                },
                {
                    "internalType": "address",
                    "name": "_treasury",
                    "type": "address"
                }
            ],
            "name": "initialize",
            "outputs": [],
            "stateMutability": "nonpayable",
            "type": "function"
        },
        {
            "inputs": [],
            "name": "owner",
            "outputs": [
                {
                    "internalType": "address",
                    "name": "",
                    "type": "address"
                }
            ],
            "stateMutability": "view",
            "type": "function"
        },
        {
            "inputs": [
                {
                    "internalType": "address",
                    "name": "poolAddress",
                    "type": "address"
                }
            ],
            "name": "performRebalanceIfNeeded",
            "outputs": [],
            "stateMutability": "nonpayable",
            "type": "function"
        },
        {
            "inputs": [],
            "name": "poolFactory",
            "outputs": [
                {
                    "internalType": "contract IBaluniV1PoolFactory",
                    "name": "",
                    "type": "address"
                }
            ],
            "stateMutability": "view",
            "type": "function"
        },
        {
            "inputs": [
                {
                    "internalType": "address",
                    "name": "",
                    "type": "address"
                },
                {
                    "internalType": "address",
                    "name": "",
                    "type": "address"
                }
            ],
            "name": "poolsReserves",
            "outputs": [
                {
                    "internalType": "uint256",
                    "name": "",
                    "type": "uint256"
                }
            ],
            "stateMutability": "view",
            "type": "function"
        },
        {
            "inputs": [],
            "name": "proxiableUUID",
            "outputs": [
                {
                    "internalType": "bytes32",
                    "name": "",
                    "type": "bytes32"
                }
            ],
            "stateMutability": "view",
            "type": "function"
        },
        {
            "inputs": [
                {
                    "internalType": "address",
                    "name": "poolAddress",
                    "type": "address"
                },
                {
                    "internalType": "address",
                    "name": "receiver",
                    "type": "address"
                }
            ],
            "name": "rebalanceWeights",
            "outputs": [],
            "stateMutability": "nonpayable",
            "type": "function"
        },
        {
            "inputs": [
                {
                    "internalType": "address",
                    "name": "_poolFactory",
                    "type": "address"
                },
                {
                    "internalType": "address",
                    "name": "_treasury",
                    "type": "address"
                },
                {
                    "internalType": "uint64",
                    "name": "version",
                    "type": "uint64"
                }
            ],
            "name": "reinitialize",
            "outputs": [],
            "stateMutability": "nonpayable",
            "type": "function"
        },
        {
            "inputs": [
                {
                    "internalType": "uint256",
                    "name": "share",
                    "type": "uint256"
                },
                {
                    "internalType": "address",
                    "name": "poolAddress",
                    "type": "address"
                },
                {
                    "internalType": "address",
                    "name": "receiver",
                    "type": "address"
                }
            ],
            "name": "removeLiquidity",
            "outputs": [],
            "stateMutability": "nonpayable",
            "type": "function"
        },
        {
            "inputs": [],
            "name": "renounceOwnership",
            "outputs": [],
            "stateMutability": "nonpayable",
            "type": "function"
        },
        {
            "inputs": [
                {
                    "internalType": "address",
                    "name": "fromToken",
                    "type": "address"
                },
                {
                    "internalType": "address",
                    "name": "toToken",
                    "type": "address"
                },
                {
                    "internalType": "uint256",
                    "name": "amount",
                    "type": "uint256"
                },
                {
                    "internalType": "address",
                    "name": "receiver",
                    "type": "address"
                }
            ],
            "name": "swap",
            "outputs": [
                {
                    "internalType": "uint256",
                    "name": "",
                    "type": "uint256"
                }
            ],
            "stateMutability": "nonpayable",
            "type": "function"
        },
        {
            "inputs": [
                {
                    "internalType": "address",
                    "name": "newOwner",
                    "type": "address"
                }
            ],
            "name": "transferOwnership",
            "outputs": [],
            "stateMutability": "nonpayable",
            "type": "function"
        },
        {
            "inputs": [],
            "name": "treasury",
            "outputs": [
                {
                    "internalType": "address",
                    "name": "",
                    "type": "address"
                }
            ],
            "stateMutability": "view",
            "type": "function"
        },
        {
            "inputs": [
                {
                    "internalType": "address",
                    "name": "newImplementation",
                    "type": "address"
                },
                {
                    "internalType": "bytes",
                    "name": "data",
                    "type": "bytes"
                }
            ],
            "name": "upgradeToAndCall",
            "outputs": [],
            "stateMutability": "payable",
            "type": "function"
        }
    ],
    "bytecode": "60a0604052306080523480156012575f80fd5b5060805161322e6100395f395f81816125b4015281816125dd0152612721015261322e5ff3fe608060405260043610610161575f3560e01c8063715018a6116100cd578063ae3cce1c11610087578063ec0cd2eb11610062578063ec0cd2eb14610468578063f2fde38b14610487578063f31abcc4146104a6578063f4011c4c146104c5575f80fd5b8063ae3cce1c14610409578063c57981b514610435578063e74e9b0614610449575f80fd5b8063715018a61461031f57806372591be5146103335780638da5cb5b14610352578063a3e113fb1461038e578063ad3cb1cc146103ad578063ad414263146103ea575f80fd5b80634aa066521161011e5780634aa066521461027c5780634f1ef2861461029b57806352d1902d146102ae5780635568081a146102c257806361d027b3146102e15780636e81221c14610300575f80fd5b806303e0c844146101655780630d8e6e2c146101865780633e99c1e4146101b75780634056c37f146101e35780634219dc4014610227578063485cc9551461025d575b5f80fd5b348015610170575f80fd5b5061018461017f366004612a4a565b6104e4565b005b348015610191575f80fd5b5061019a6105ce565b6040516001600160401b0390911681526020015b60405180910390f35b3480156101c2575f80fd5b506101d66101d1366004612a9d565b6105f2565b6040516101ae9190612ab8565b3480156101ee575f80fd5b506102196101fd366004612afb565b600260209081525f928352604080842090915290825290205481565b6040519081526020016101ae565b348015610232575f80fd5b505f54610245906001600160a01b031681565b6040516001600160a01b0390911681526020016101ae565b348015610268575f80fd5b50610184610277366004612afb565b61072d565b348015610287575f80fd5b50610219610296366004612b32565b61085e565b6101846102a9366004612bb4565b610952565b3480156102b9575f80fd5b50610219610971565b3480156102cd575f80fd5b506101846102dc366004612a9d565b61098c565b3480156102ec575f80fd5b50600154610245906001600160a01b031681565b34801561030b575f80fd5b5061021961031a366004612c55565b610cbf565b34801561032a575f80fd5b50610184611010565b34801561033e575f80fd5b5061018461034d366004612a9d565b611023565b34801561035d575f80fd5b507f9016d09d72d40fdae2fd8ceac6b6234c7706214fd39c1cd1e609a0528c199300546001600160a01b0316610245565b348015610399575f80fd5b506102196103a8366004612afb565b61104c565b3480156103b8575f80fd5b506103dd604051806040016040528060058152602001640352e302e360dc1b81525081565b6040516101ae9190612ca5565b3480156103f5575f80fd5b50610184610404366004612afb565b611078565b348015610414575f80fd5b50610428610423366004612a9d565b611298565b6040516101ae9190612cda565b348015610440575f80fd5b50610219601481565b348015610454575f80fd5b506101d6610463366004612d61565b611306565b348015610473575f80fd5b50610184610482366004612e1b565b611b38565b348015610492575f80fd5b506101846104a1366004612a9d565b611dab565b3480156104b1575f80fd5b506101846104c0366004612e73565b611de8565b3480156104d0575f80fd5b506101846104df366004612a9d565b612566565b5f805160206131d98339815191528054829190600160401b900460ff1680610519575080546001600160401b03808416911610155b156105375760405163f92ee8a960e01b815260040160405180910390fd5b805468ffffffffffffffffff19166001600160401b038316908117600160401b1782555f80546001600160a01b038881166001600160a01b0319928316179092556001805492881692909116919091179055815460ff60401b191682556040519081527fc7f505b2f371ae2175ee4913f4499e1f2633a7b5936321eed1cdaeb6115181d29060200160405180910390a15050505050565b5f6105ed5f805160206131d9833981519152546001600160401b031690565b905090565b60605f826001600160a01b03166367e4ac2c6040518163ffffffff1660e01b81526004015f60405180830381865afa158015610630573d5f803e3d5ffd5b505050506040513d5f823e601f3d908101601f191682016040526106579190810190612ec9565b90505f81516001600160401b0381111561067357610673612b70565b60405190808252806020026020018201604052801561069c578160200160208202803683370190505b5090505f5b8251811015610725576001600160a01b0385165f90815260026020526040812084519091908590849081106106d8576106d8612f62565b60200260200101516001600160a01b03166001600160a01b031681526020019081526020015f205482828151811061071257610712612f62565b60209081029190910101526001016106a1565b509392505050565b5f805160206131d98339815191528054600160401b810460ff1615906001600160401b03165f8115801561075e5750825b90505f826001600160401b031660011480156107795750303b155b905081158015610787575080155b156107a55760405163f92ee8a960e01b815260040160405180910390fd5b845467ffffffffffffffff1916600117855583156107cf57845460ff60401b1916600160401b1785555b6107d7612590565b6107e033612598565b5f80546001600160a01b03808a166001600160a01b0319928316179092556001805492891692909116919091179055831561085557845460ff60401b19168555604051600181527fc7f505b2f371ae2175ee4913f4499e1f2633a7b5936321eed1cdaeb6115181d29060200160405180910390a15b50505050505050565b5f8054604051632d5e94a760e01b81526001600160a01b038681166004830152858116602483015283921690632d5e94a790604401602060405180830381865afa1580156108ae573d5f803e3d5ffd5b505050506040513d601f19601f820116820180604052508101906108d29190612f76565b604051632550332960e11b815290915081906001600160a01b03821690634aa066529061090790899089908990600401612f91565b602060405180830381865afa158015610922573d5f803e3d5ffd5b505050506040513d601f19601f820116820180604052508101906109469190612fb5565b925050505b9392505050565b61095a6125a9565b6109638261264d565b61096d8282612655565b5050565b5f61097a612716565b505f805160206131b983398151915290565b6040516370a0823160e01b815233600482015281905f906001600160a01b038316906370a0823190602401602060405180830381865afa1580156109d2573d5f803e3d5ffd5b505050506040513d601f19601f820116820180604052508101906109f69190612fb5565b90505f836001600160a01b03166318160ddd6040518163ffffffff1660e01b8152600401602060405180830381865afa158015610a35573d5f803e3d5ffd5b505050506040513d601f19601f82011682018060405250810190610a599190612fb5565b9050606481610a6a84612710612fe0565b610a749190612ff7565b1015610abe5760405162461bcd60e51b8152602060048201526014602482015273496e73756666696369656e742062616c616e636560601b60448201526064015b60405180910390fd5b5f80846001600160a01b031663f47b45e86040518163ffffffff1660e01b81526004015f604051808303815f875af1158015610afc573d5f803e3d5ffd5b505050506040513d5f823e601f3d908101601f19168201604052610b23919081019061307d565b915091505f856001600160a01b03166367e4ac2c6040518163ffffffff1660e01b81526004015f60405180830381865afa158015610b63573d5f803e3d5ffd5b505050506040513d5f823e601f3d908101601f19168201604052610b8a9190810190612ec9565b90505f5b8151811015610cb557838181518110610ba957610ba9612f62565b602002602001015160025f8a6001600160a01b03166001600160a01b031681526020019081526020015f205f848481518110610be757610be7612f62565b60200260200101516001600160a01b03166001600160a01b031681526020019081526020015f205f828254610c1c91906130dc565b92505081905550828181518110610c3557610c35612f62565b602002602001015160025f8a6001600160a01b03166001600160a01b031681526020019081526020015f205f848481518110610c7357610c73612f62565b60200260200101516001600160a01b03166001600160a01b031681526020019081526020015f205f828254610ca891906130ef565b9091555050600101610b8e565b5050505050505050565b5f808311610d0f5760405162461bcd60e51b815260206004820181905260248201527f416d6f756e74206d7573742062652067726561746572207468616e207a65726f6044820152606401610ab5565b5f8054604051632d5e94a760e01b81526001600160a01b038881166004830152878116602483015290911690632d5e94a790604401602060405180830381865afa158015610d5f573d5f803e3d5ffd5b505050506040513d601f19601f82011682018060405250810190610d839190612f76565b6040516323b872dd60e01b815290915081906001600160a01b038816906323b872dd90610db890339030908a90600401612f91565b6020604051808303815f875af1158015610dd4573d5f803e3d5ffd5b505050506040513d601f19601f82011682018060405250810190610df89190613102565b506001600160a01b038083165f908152600260209081526040808320938b1683529290529081208054879290610e2f9084906130dc565b9091555050604051631ba0488760e21b81526001600160a01b03888116600483015287811660248301526044820187905285811660648301525f9190831690636e81221c906084016020604051808303815f875af1158015610e93573d5f803e3d5ffd5b505050506040513d601f19601f82011682018060405250810190610eb79190612fb5565b90505f612710610ec8601484612fe0565b610ed29190612ff7565b60015460405163a9059cbb60e01b81526001600160a01b0391821660048201526024810183905291925089169063a9059cbb906044016020604051808303815f875af1158015610f24573d5f803e3d5ffd5b505050506040513d601f19601f82011682018060405250810190610f489190613102565b50610f5381836130ef565b60405163a9059cbb60e01b81526001600160a01b038881166004830152602482018390529193509089169063a9059cbb906044016020604051808303815f875af1158015610fa3573d5f803e3d5ffd5b505050506040513d601f19601f82011682018060405250810190610fc79190613102565b506001600160a01b038085165f908152600260209081526040808320938c1683529290529081208054849290610ffe9084906130ef565b90915550919998505050505050505050565b61101861275f565b6110215f6127ba565b565b61102b61275f565b5f80546001600160a01b0319166001600160a01b0392909216919091179055565b6001600160a01b038083165f908152600260209081526040808320938516835292905220545b92915050565b604051630723c99960e01b81526001600160a01b03828116600483015283915f91831690630723c999906024015f604051808303815f875af11580156110c0573d5f803e3d5ffd5b505050506040513d5f823e601f3d908101601f191682016040526110e79190810190613121565b90505f826001600160a01b03166367e4ac2c6040518163ffffffff1660e01b81526004015f60405180830381865afa158015611125573d5f803e3d5ffd5b505050506040513d5f823e601f3d908101601f1916820160405261114c9190810190612ec9565b90505f5b81518110156112905782818151811061116b5761116b612f62565b602002602001015160025f886001600160a01b03166001600160a01b031681526020019081526020015f205f8484815181106111a9576111a9612f62565b60200260200101516001600160a01b03166001600160a01b031681526020019081526020015f205f8282546111de91906130dc565b925050819055508181815181106111f7576111f7612f62565b60200260200101516001600160a01b03166323b872dd863086858151811061122157611221612f62565b60200260200101516040518463ffffffff1660e01b815260040161124793929190612f91565b6020604051808303815f875af1158015611263573d5f803e3d5ffd5b505050506040513d601f19601f820116820180604052508101906112879190613102565b50600101611150565b505050505050565b5f54604051635a1a073560e11b81526001600160a01b038381166004830152606092169063b4340e6a906024015f60405180830381865afa1580156112df573d5f803e3d5ffd5b505050506040513d5f823e601f3d908101601f191682016040526110729190810190612ec9565b6060878614801561131657508584145b801561132157508382145b61136d5760405162461bcd60e51b815260206004820152601c60248201527f496e70757420617272617973206c656e677468206d69736d61746368000000006044820152606401610ab5565b5f886001600160401b0381111561138657611386612b70565b6040519080825280602002602001820160405280156113af578160200160208202803683370190505b5090505f5b89811015611b2a575f8787838181106113cf576113cf612f62565b90506020020135116114235760405162461bcd60e51b815260206004820181905260248201527f416d6f756e74206d7573742062652067726561746572207468616e207a65726f6044820152606401610ab5565b5f80546001600160a01b0316632d5e94a78d8d8581811061144657611446612f62565b905060200201602081019061145b9190612a9d565b8c8c8681811061146d5761146d612f62565b90506020020160208101906114829190612a9d565b6040516001600160e01b031960e085901b1681526001600160a01b03928316600482015291166024820152604401602060405180830381865afa1580156114cb573d5f803e3d5ffd5b505050506040513d601f19601f820116820180604052508101906114ef9190612f76565b90508088888481811061150457611504612f62565b905060200201358d8d8581811061151d5761151d612f62565b90506020020160208101906115329190612a9d565b6040516370a0823160e01b81523360048201526001600160a01b0391909116906370a0823190602401602060405180830381865afa158015611576573d5f803e3d5ffd5b505050506040513d601f19601f8201168201806040525081019061159a9190612fb5565b10156115df5760405162461bcd60e51b8152602060048201526014602482015273496e73756666696369656e742042616c616e636560601b6044820152606401610ab5565b8c8c848181106115f1576115f1612f62565b90506020020160208101906116069190612a9d565b6001600160a01b03166323b872dd33308c8c8881811061162857611628612f62565b905060200201356040518463ffffffff1660e01b815260040161164d93929190612f91565b6020604051808303815f875af1158015611669573d5f803e3d5ffd5b505050506040513d601f19601f8201168201806040525081019061168d9190613102565b508888848181106116a0576116a0612f62565b9050602002013560025f846001600160a01b03166001600160a01b031681526020019081526020015f205f8f8f878181106116dd576116dd612f62565b90506020020160208101906116f29190612a9d565b6001600160a01b03166001600160a01b031681526020019081526020015f205f82825461171f91906130dc565b909155505f90506001600160a01b038216636e81221c8f8f8781811061174757611747612f62565b905060200201602081019061175c9190612a9d565b8e8e8881811061176e5761176e612f62565b90506020020160208101906117839190612a9d565b8d8d8981811061179557611795612f62565b905060200201358c8c8a8181106117ae576117ae612f62565b90506020020160208101906117c39190612a9d565b60405160e086901b6001600160e01b03191681526001600160a01b0394851660048201529284166024840152604483019190915290911660648201526084016020604051808303815f875af115801561181e573d5f803e3d5ffd5b505050506040513d601f19601f820116820180604052508101906118429190612fb5565b9050808c8c8681811061185757611857612f62565b905060200201602081019061186c9190612a9d565b6040516370a0823160e01b81523060048201526001600160a01b0391909116906370a0823190602401602060405180830381865afa1580156118b0573d5f803e3d5ffd5b505050506040513d601f19601f820116820180604052508101906118d49190612fb5565b101561191b5760405162461bcd60e51b8152602060048201526016602482015275496e73756666696369656e74204c697175696469747960501b6044820152606401610ab5565b5f61271061192a601484612fe0565b6119349190612ff7565b90508c8c8681811061194857611948612f62565b905060200201602081019061195d9190612a9d565b60015460405163a9059cbb60e01b81526001600160a01b0391821660048201526024810184905291169063a9059cbb906044016020604051808303815f875af11580156119ac573d5f803e3d5ffd5b505050506040513d601f19601f820116820180604052508101906119d09190613102565b506119db81836130ef565b91508c8c868181106119ef576119ef612f62565b9050602002016020810190611a049190612a9d565b6001600160a01b031663a9059cbb8a8a88818110611a2457611a24612f62565b9050602002016020810190611a399190612a9d565b6040516001600160e01b031960e084901b1681526001600160a01b039091166004820152602481018590526044016020604051808303815f875af1158015611a83573d5f803e3d5ffd5b505050506040513d601f19601f82011682018060405250810190611aa79190613102565b506001600160a01b0384165f90815260026020526040812083918f8f89818110611ad357611ad3612f62565b9050602002016020810190611ae89190612a9d565b6001600160a01b03166001600160a01b031681526020019081526020015f205f828254611b1591906130ef565b9091555050600190940193506113b492505050565b509998505050505050505050565b5f8290505f816001600160a01b03166367e4ac2c6040518163ffffffff1660e01b81526004015f60405180830381865afa158015611b78573d5f803e3d5ffd5b505050506040513d5f823e601f3d908101601f19168201604052611b9f9190810190612ec9565b90505f5b8151811015611d3a575f828281518110611bbf57611bbf612f62565b602002602001015190505f888884818110611bdc57611bdc612f62565b905060200201359050816001600160a01b03166323b872dd3330846040518463ffffffff1660e01b8152600401611c1593929190612f91565b6020604051808303815f875af1158015611c31573d5f803e3d5ffd5b505050506040513d601f19601f82011682018060405250810190611c559190613102565b505f612710611c65601484612fe0565b611c6f9190612ff7565b60015460405163a9059cbb60e01b81526001600160a01b0391821660048201526024810183905291925084169063a9059cbb906044016020604051808303815f875af1158015611cc1573d5f803e3d5ffd5b505050506040513d601f19601f82011682018060405250810190611ce59190613102565b50611cf081836130ef565b6001600160a01b03808a165f90815260026020908152604080832093881683529290529081208054909190611d269084906130dc565b909155505060019093019250611ba3915050565b5060405163de836ebd60e01b81526001600160a01b0383169063de836ebd90611d6b9086908a908a9060040161315a565b6020604051808303815f875af1158015611d87573d5f803e3d5ffd5b505050506040513d601f19601f820116820180604052508101906108559190612fb5565b611db361275f565b6001600160a01b038116611ddc57604051631e4fbdf760e01b81525f6004820152602401610ab5565b611de5816127ba565b50565b5f8311611e375760405162461bcd60e51b815260206004820152601f60248201527f5368617265206d7573742062652067726561746572207468616e207a65726f006044820152606401610ab5565b604051636eb1769f60e11b815233600482015230602482015282905f906001600160a01b0383169063dd62ed3e90604401602060405180830381865afa158015611e83573d5f803e3d5ffd5b505050506040513d601f19601f82011682018060405250810190611ea79190612fb5565b905084811015611ef25760405162461bcd60e51b8152602060048201526016602482015275496e73756666696369656e7420616c6c6f77616e636560501b6044820152606401610ab5565b6040516370a0823160e01b81523360048201525f906001600160a01b038416906370a0823190602401602060405180830381865afa158015611f36573d5f803e3d5ffd5b505050506040513d601f19601f82011682018060405250810190611f5a9190612fb5565b905085811015611fa35760405162461bcd60e51b8152602060048201526014602482015273496e73756666696369656e742062616c616e636560601b6044820152606401610ab5565b6040516323b872dd60e01b81525f906001600160a01b038516906323b872dd90611fd590339030908c90600401612f91565b6020604051808303815f875af1158015611ff1573d5f803e3d5ffd5b505050506040513d601f19601f820116820180604052508101906120159190613102565b90508061205a5760405162461bcd60e51b8152602060048201526013602482015272151c985b9cd9995c919c9bdb4819985a5b1959606a1b6044820152606401610ab5565b60405163a9059cbb60e01b81526001600160a01b038781166004830152602482018990525f919086169063a9059cbb906044016020604051808303815f875af11580156120a9573d5f803e3d5ffd5b505050506040513d601f19601f820116820180604052508101906120cd9190613102565b90508061210e5760405162461bcd60e51b815260206004820152600f60248201526e151c985b9cd9995c8819985a5b1959608a1b6044820152606401610ab5565b60405163226bf2d160e21b81526001600160a01b0387811660048301525f91908916906389afcb44906024015f604051808303815f875af1158015612155573d5f803e3d5ffd5b505050506040513d5f823e601f3d908101601f1916820160405261217c9190810190613121565b90505f886001600160a01b03166367e4ac2c6040518163ffffffff1660e01b81526004015f60405180830381865afa1580156121ba573d5f803e3d5ffd5b505050506040513d5f823e601f3d908101601f191682016040526121e19190810190612ec9565b90505f5b8151811015612559575f612710601485848151811061220657612206612f62565b60200260200101516122189190612fe0565b6122229190612ff7565b905082828151811061223657612236612f62565b602090810291909101015160015460405163a9059cbb60e01b81526001600160a01b0391821660048201526024810184905291169063a9059cbb906044016020604051808303815f875af1158015612290573d5f803e3d5ffd5b505050506040513d601f19601f820116820180604052508101906122b49190613102565b508382815181106122c7576122c7612f62565b60200260200101518383815181106122e1576122e1612f62565b60209081029190910101516040516370a0823160e01b81523060048201526001600160a01b03909116906370a0823190602401602060405180830381865afa15801561232f573d5f803e3d5ffd5b505050506040513d601f19601f820116820180604052508101906123539190612fb5565b101561239a5760405162461bcd60e51b8152602060048201526016602482015275496e73756666696369656e74204c697175696469747960501b6044820152606401610ab5565b8382815181106123ac576123ac612f62565b602002602001015160025f8d6001600160a01b03166001600160a01b031681526020019081526020015f205f8585815181106123ea576123ea612f62565b60200260200101516001600160a01b03166001600160a01b031681526020019081526020015f205f82825461241f91906130ef565b925050819055508084838151811061243957612439612f62565b6020026020010181815161244d91906130ef565b90525082515f9084908490811061246657612466612f62565b60200260200101516001600160a01b031663a9059cbb8c87868151811061248f5761248f612f62565b60200260200101516040518363ffffffff1660e01b81526004016124c89291906001600160a01b03929092168252602082015260400190565b6020604051808303815f875af11580156124e4573d5f803e3d5ffd5b505050506040513d601f19601f820116820180604052508101906125089190613102565b90508061254f5760405162461bcd60e51b8152602060048201526015602482015274105cdcd95d081d1c985b9cd9995c8819985a5b1959605a1b6044820152606401610ab5565b50506001016121e5565b5050505050505050505050565b61256e61275f565b600180546001600160a01b0319166001600160a01b0392909216919091179055565b61102161282a565b6125a061282a565b611de581612860565b306001600160a01b037f000000000000000000000000000000000000000000000000000000000000000016148061262f57507f00000000000000000000000000000000000000000000000000000000000000006001600160a01b03166126235f805160206131b9833981519152546001600160a01b031690565b6001600160a01b031614155b156110215760405163703e46dd60e11b815260040160405180910390fd5b611de561275f565b816001600160a01b03166352d1902d6040518163ffffffff1660e01b8152600401602060405180830381865afa9250505080156126af575060408051601f3d908101601f191682019092526126ac91810190612fb5565b60015b6126d757604051634c9c8ce360e01b81526001600160a01b0383166004820152602401610ab5565b5f805160206131b9833981519152811461270757604051632a87526960e21b815260048101829052602401610ab5565b6127118383612868565b505050565b306001600160a01b037f000000000000000000000000000000000000000000000000000000000000000016146110215760405163703e46dd60e11b815260040160405180910390fd5b336127917f9016d09d72d40fdae2fd8ceac6b6234c7706214fd39c1cd1e609a0528c199300546001600160a01b031690565b6001600160a01b0316146110215760405163118cdaa760e01b8152336004820152602401610ab5565b7f9016d09d72d40fdae2fd8ceac6b6234c7706214fd39c1cd1e609a0528c19930080546001600160a01b031981166001600160a01b03848116918217845560405192169182907f8be0079c531659141344cd1fd0a4f28419497f9722a3daafe3b4186f6b6457e0905f90a3505050565b5f805160206131d983398151915254600160401b900460ff1661102157604051631afcd79f60e31b815260040160405180910390fd5b611db361282a565b612871826128bd565b6040516001600160a01b038316907fbc7cd75a20ee27fd9adebab32041f755214dbc6bffa90cc0225b39da2e5c2d3b905f90a28051156128b5576127118282612920565b61096d612992565b806001600160a01b03163b5f036128f257604051634c9c8ce360e01b81526001600160a01b0382166004820152602401610ab5565b5f805160206131b983398151915280546001600160a01b0319166001600160a01b0392909216919091179055565b60605f80846001600160a01b03168460405161293c91906131a2565b5f60405180830381855af49150503d805f8114612974576040519150601f19603f3d011682016040523d82523d5f602084013e612979565b606091505b50915091506129898583836129b1565b95945050505050565b34156110215760405163b398979f60e01b815260040160405180910390fd5b6060826129c6576129c182612a0d565b61094b565b81511580156129dd57506001600160a01b0384163b155b15612a0657604051639996b31560e01b81526001600160a01b0385166004820152602401610ab5565b508061094b565b805115612a1d5780518082602001fd5b604051630a12f52160e11b815260040160405180910390fd5b6001600160a01b0381168114611de5575f80fd5b5f805f60608486031215612a5c575f80fd5b8335612a6781612a36565b92506020840135612a7781612a36565b915060408401356001600160401b0381168114612a92575f80fd5b809150509250925092565b5f60208284031215612aad575f80fd5b813561094b81612a36565b602080825282518282018190525f9190848201906040850190845b81811015612aef57835183529284019291840191600101612ad3565b50909695505050505050565b5f8060408385031215612b0c575f80fd5b8235612b1781612a36565b91506020830135612b2781612a36565b809150509250929050565b5f805f60608486031215612b44575f80fd5b8335612b4f81612a36565b92506020840135612b5f81612a36565b929592945050506040919091013590565b634e487b7160e01b5f52604160045260245ffd5b604051601f8201601f191681016001600160401b0381118282101715612bac57612bac612b70565b604052919050565b5f8060408385031215612bc5575f80fd5b8235612bd081612a36565b91506020838101356001600160401b0380821115612bec575f80fd5b818601915086601f830112612bff575f80fd5b813581811115612c1157612c11612b70565b612c23601f8201601f19168501612b84565b91508082528784828501011115612c38575f80fd5b80848401858401375f848284010152508093505050509250929050565b5f805f8060808587031215612c68575f80fd5b8435612c7381612a36565b93506020850135612c8381612a36565b9250604085013591506060850135612c9a81612a36565b939692955090935050565b602081525f82518060208401528060208501604085015e5f604082850101526040601f19601f83011684010191505092915050565b602080825282518282018190525f9190848201906040850190845b81811015612aef5783516001600160a01b031683529284019291840191600101612cf5565b5f8083601f840112612d2a575f80fd5b5081356001600160401b03811115612d40575f80fd5b6020830191508360208260051b8501011115612d5a575f80fd5b9250929050565b5f805f805f805f806080898b031215612d78575f80fd5b88356001600160401b0380821115612d8e575f80fd5b612d9a8c838d01612d1a565b909a50985060208b0135915080821115612db2575f80fd5b612dbe8c838d01612d1a565b909850965060408b0135915080821115612dd6575f80fd5b612de28c838d01612d1a565b909650945060608b0135915080821115612dfa575f80fd5b50612e078b828c01612d1a565b999c989b5096995094979396929594505050565b5f805f8060608587031215612e2e575f80fd5b84356001600160401b03811115612e43575f80fd5b612e4f87828801612d1a565b9095509350506020850135612e6381612a36565b91506040850135612c9a81612a36565b5f805f60608486031215612e85575f80fd5b833592506020840135612e9781612a36565b91506040840135612a9281612a36565b5f6001600160401b03821115612ebf57612ebf612b70565b5060051b60200190565b5f6020808385031215612eda575f80fd5b82516001600160401b03811115612eef575f80fd5b8301601f81018513612eff575f80fd5b8051612f12612f0d82612ea7565b612b84565b81815260059190911b82018301908381019087831115612f30575f80fd5b928401925b82841015612f57578351612f4881612a36565b82529284019290840190612f35565b979650505050505050565b634e487b7160e01b5f52603260045260245ffd5b5f60208284031215612f86575f80fd5b815161094b81612a36565b6001600160a01b039384168152919092166020820152604081019190915260600190565b5f60208284031215612fc5575f80fd5b5051919050565b634e487b7160e01b5f52601160045260245ffd5b808202811582820484141761107257611072612fcc565b5f8261301157634e487b7160e01b5f52601260045260245ffd5b500490565b5f82601f830112613025575f80fd5b81516020613035612f0d83612ea7565b8083825260208201915060208460051b870101935086841115613056575f80fd5b602086015b84811015613072578051835291830191830161305b565b509695505050505050565b5f806040838503121561308e575f80fd5b82516001600160401b03808211156130a4575f80fd5b6130b086838701613016565b935060208501519150808211156130c5575f80fd5b506130d285828601613016565b9150509250929050565b8082018082111561107257611072612fcc565b8181038181111561107257611072612fcc565b5f60208284031215613112575f80fd5b8151801515811461094b575f80fd5b5f60208284031215613131575f80fd5b81516001600160401b03811115613146575f80fd5b61315284828501613016565b949350505050565b6001600160a01b038416815260406020820181905281018290525f6001600160fb1b03831115613188575f80fd5b8260051b8085606085013791909101606001949350505050565b5f82518060208501845e5f92019182525091905056fe360894a13ba1a3210667c828492db98dca3e2076cc3735a920a3ca505d382bbcf0c57e16840df040f15088dc2f81fe391c3923bec73e23a9662efc9c229c6a00a26469706673582212208bda1d67e8047493f0e75fb9cb3d113a83d97270cd4c446ca96c8faae89bc9a364736f6c63430008190033",
    "sourcePath": "c:/Users/Utente/Source/repos/baluni-contracts/contracts/BaluniV1PoolPeriphery.sol",
    "compiler": {
        "name": "solc",
        "version": "0.8.25+commit.b61c2a91"
    },
    "functionHashes": {
        "FEE()": "c57981b5",
        "UPGRADE_INTERFACE_VERSION()": "ad3cb1cc",
        "addLiquidity(uint256[],address,address)": "ec0cd2eb",
        "batchSwap(address[],address[],uint256[],address[])": "e74e9b06",
        "changePoolFactory(address)": "72591be5",
        "changeTreausry(address)": "f4011c4c",
        "getAmountOut(address,address,uint256)": "4aa06652",
        "getAssetReserve(address,address)": "a3e113fb",
        "getPoolsContainingToken(address)": "ae3cce1c",
        "getReserves(address)": "3e99c1e4",
        "getVersion()": "0d8e6e2c",
        "initialize(address,address)": "485cc955",
        "owner()": "8da5cb5b",
        "performRebalanceIfNeeded(address)": "5568081a",
        "poolFactory()": "4219dc40",
        "poolsReserves(address,address)": "4056c37f",
        "proxiableUUID()": "52d1902d",
        "rebalanceWeights(address,address)": "ad414263",
        "reinitialize(address,address,uint64)": "03e0c844",
        "removeLiquidity(uint256,address,address)": "f31abcc4",
        "renounceOwnership()": "715018a6",
        "swap(address,address,uint256,address)": "6e81221c",
        "transferOwnership(address)": "f2fde38b",
        "treasury()": "61d027b3",
        "upgradeToAndCall(address,bytes)": "4f1ef286"
    },
    "gasEstimates": {
        "creation": {
            "codeDepositCost": "2569200",
            "executionCost": "infinite",
            "totalCost": "infinite"
        },
        "external": {
            "FEE()": "261",
            "UPGRADE_INTERFACE_VERSION()": "infinite",
            "addLiquidity(uint256[],address,address)": "infinite",
            "batchSwap(address[],address[],uint256[],address[])": "infinite",
            "changePoolFactory(address)": "26804",
            "changeTreausry(address)": "26870",
            "getAmountOut(address,address,uint256)": "infinite",
            "getAssetReserve(address,address)": "infinite",
            "getPoolsContainingToken(address)": "infinite",
            "getReserves(address)": "infinite",
            "getVersion()": "infinite",
            "initialize(address,address)": "infinite",
            "owner()": "2397",
            "performRebalanceIfNeeded(address)": "infinite",
            "poolFactory()": "2447",
            "poolsReserves(address,address)": "infinite",
            "proxiableUUID()": "infinite",
            "rebalanceWeights(address,address)": "infinite",
            "reinitialize(address,address,uint64)": "infinite",
            "removeLiquidity(uint256,address,address)": "infinite",
            "renounceOwnership()": "infinite",
            "swap(address,address,uint256,address)": "infinite",
            "transferOwnership(address)": "infinite",
            "treasury()": "2447",
            "upgradeToAndCall(address,bytes)": "infinite"
        },
        "internal": {
            "_authorizeUpgrade(address)": "infinite"
        }
    }
}