{
    "contractName": "BaluniV1PoolPeriphery",
    "abi": [
        {
            "inputs": [
                {
                    "internalType": "address",
                    "name": "target",
                    "type": "address"
                }
            ],
            "name": "AddressEmptyCode",
            "type": "error"
        },
        {
            "inputs": [
                {
                    "internalType": "address",
                    "name": "implementation",
                    "type": "address"
                }
            ],
            "name": "ERC1967InvalidImplementation",
            "type": "error"
        },
        {
            "inputs": [],
            "name": "ERC1967NonPayable",
            "type": "error"
        },
        {
            "inputs": [],
            "name": "FailedInnerCall",
            "type": "error"
        },
        {
            "inputs": [],
            "name": "InvalidInitialization",
            "type": "error"
        },
        {
            "inputs": [],
            "name": "NotInitializing",
            "type": "error"
        },
        {
            "inputs": [
                {
                    "internalType": "address",
                    "name": "owner",
                    "type": "address"
                }
            ],
            "name": "OwnableInvalidOwner",
            "type": "error"
        },
        {
            "inputs": [
                {
                    "internalType": "address",
                    "name": "account",
                    "type": "address"
                }
            ],
            "name": "OwnableUnauthorizedAccount",
            "type": "error"
        },
        {
            "inputs": [],
            "name": "UUPSUnauthorizedCallContext",
            "type": "error"
        },
        {
            "inputs": [
                {
                    "internalType": "bytes32",
                    "name": "slot",
                    "type": "bytes32"
                }
            ],
            "name": "UUPSUnsupportedProxiableUUID",
            "type": "error"
        },
        {
            "anonymous": false,
            "inputs": [
                {
                    "indexed": false,
                    "internalType": "uint64",
                    "name": "version",
                    "type": "uint64"
                }
            ],
            "name": "Initialized",
            "type": "event"
        },
        {
            "anonymous": false,
            "inputs": [
                {
                    "indexed": true,
                    "internalType": "address",
                    "name": "previousOwner",
                    "type": "address"
                },
                {
                    "indexed": true,
                    "internalType": "address",
                    "name": "newOwner",
                    "type": "address"
                }
            ],
            "name": "OwnershipTransferred",
            "type": "event"
        },
        {
            "anonymous": false,
            "inputs": [
                {
                    "indexed": true,
                    "internalType": "address",
                    "name": "implementation",
                    "type": "address"
                }
            ],
            "name": "Upgraded",
            "type": "event"
        },
        {
            "inputs": [],
            "name": "UPGRADE_INTERFACE_VERSION",
            "outputs": [
                {
                    "internalType": "string",
                    "name": "",
                    "type": "string"
                }
            ],
            "stateMutability": "view",
            "type": "function"
        },
        {
            "inputs": [
                {
                    "internalType": "uint256[]",
                    "name": "amounts",
                    "type": "uint256[]"
                },
                {
                    "internalType": "address",
                    "name": "poolAddress",
                    "type": "address"
                }
            ],
            "name": "addLiquidity",
            "outputs": [],
            "stateMutability": "nonpayable",
            "type": "function"
        },
        {
            "inputs": [
                {
                    "internalType": "address",
                    "name": "_poolFactory",
                    "type": "address"
                }
            ],
            "name": "changePoolFactory",
            "outputs": [],
            "stateMutability": "nonpayable",
            "type": "function"
        },
        {
            "inputs": [
                {
                    "internalType": "address",
                    "name": "fromToken",
                    "type": "address"
                },
                {
                    "internalType": "address",
                    "name": "toToken",
                    "type": "address"
                },
                {
                    "internalType": "uint256",
                    "name": "amount",
                    "type": "uint256"
                }
            ],
            "name": "getAmountOut",
            "outputs": [
                {
                    "internalType": "uint256",
                    "name": "",
                    "type": "uint256"
                }
            ],
            "stateMutability": "view",
            "type": "function"
        },
        {
            "inputs": [
                {
                    "internalType": "address",
                    "name": "token",
                    "type": "address"
                }
            ],
            "name": "getPoolsContainingToken",
            "outputs": [
                {
                    "internalType": "address[]",
                    "name": "",
                    "type": "address[]"
                }
            ],
            "stateMutability": "view",
            "type": "function"
        },
        {
            "inputs": [],
            "name": "getVersion",
            "outputs": [
                {
                    "internalType": "uint64",
                    "name": "",
                    "type": "uint64"
                }
            ],
            "stateMutability": "view",
            "type": "function"
        },
        {
            "inputs": [
                {
                    "internalType": "address",
                    "name": "_poolFactory",
                    "type": "address"
                }
            ],
            "name": "initialize",
            "outputs": [],
            "stateMutability": "nonpayable",
            "type": "function"
        },
        {
            "inputs": [],
            "name": "owner",
            "outputs": [
                {
                    "internalType": "address",
                    "name": "",
                    "type": "address"
                }
            ],
            "stateMutability": "view",
            "type": "function"
        },
        {
            "inputs": [
                {
                    "internalType": "address",
                    "name": "poolAddress",
                    "type": "address"
                }
            ],
            "name": "performRebalanceIfNeeded",
            "outputs": [],
            "stateMutability": "nonpayable",
            "type": "function"
        },
        {
            "inputs": [],
            "name": "poolFactory",
            "outputs": [
                {
                    "internalType": "contract IBaluniV1PoolFactory",
                    "name": "",
                    "type": "address"
                }
            ],
            "stateMutability": "view",
            "type": "function"
        },
        {
            "inputs": [],
            "name": "proxiableUUID",
            "outputs": [
                {
                    "internalType": "bytes32",
                    "name": "",
                    "type": "bytes32"
                }
            ],
            "stateMutability": "view",
            "type": "function"
        },
        {
            "inputs": [
                {
                    "internalType": "address",
                    "name": "_poolFactory",
                    "type": "address"
                },
                {
                    "internalType": "uint64",
                    "name": "version",
                    "type": "uint64"
                }
            ],
            "name": "reinitialize",
            "outputs": [],
            "stateMutability": "nonpayable",
            "type": "function"
        },
        {
            "inputs": [
                {
                    "internalType": "uint256",
                    "name": "share",
                    "type": "uint256"
                },
                {
                    "internalType": "address",
                    "name": "poolAddress",
                    "type": "address"
                }
            ],
            "name": "removeLiquidity",
            "outputs": [],
            "stateMutability": "nonpayable",
            "type": "function"
        },
        {
            "inputs": [],
            "name": "renounceOwnership",
            "outputs": [],
            "stateMutability": "nonpayable",
            "type": "function"
        },
        {
            "inputs": [
                {
                    "internalType": "address",
                    "name": "fromToken",
                    "type": "address"
                },
                {
                    "internalType": "address",
                    "name": "toToken",
                    "type": "address"
                },
                {
                    "internalType": "uint256",
                    "name": "amount",
                    "type": "uint256"
                }
            ],
            "name": "swap",
            "outputs": [
                {
                    "internalType": "uint256",
                    "name": "",
                    "type": "uint256"
                }
            ],
            "stateMutability": "nonpayable",
            "type": "function"
        },
        {
            "inputs": [
                {
                    "internalType": "address",
                    "name": "newOwner",
                    "type": "address"
                }
            ],
            "name": "transferOwnership",
            "outputs": [],
            "stateMutability": "nonpayable",
            "type": "function"
        },
        {
            "inputs": [
                {
                    "internalType": "address",
                    "name": "newImplementation",
                    "type": "address"
                },
                {
                    "internalType": "bytes",
                    "name": "data",
                    "type": "bytes"
                }
            ],
            "name": "upgradeToAndCall",
            "outputs": [],
            "stateMutability": "payable",
            "type": "function"
        }
    ],
    "bytecode": "60a0604052306080523480156012575f80fd5b506080516118d96100395f395f8181610f6c01528181610f9501526110d901526118d95ff3fe6080604052600436106100fa575f3560e01c8063715018a611610092578063ad3cb1cc11610062578063ad3cb1cc146102a7578063ae3cce1c146102e4578063c4d66de814610310578063df791e501461032f578063f2fde38b1461034e575f80fd5b8063715018a61461021957806372591be51461022d5780638da5cb5b1461024c5780638f2248bc14610288575f80fd5b80634aa06652116100cd5780634aa06652146101a65780634f1ef286146101d357806352d1902d146101e65780635568081a146101fa575f80fd5b806305fe138b146100fe5780630d8e6e2c1461011f57806315ed9afb146101515780634219dc4014610170575b5f80fd5b348015610109575f80fd5b5061011d61011836600461141b565b61036d565b005b34801561012a575f80fd5b50610133610502565b60405167ffffffffffffffff90911681526020015b60405180910390f35b34801561015c575f80fd5b5061011d61016b366004611449565b610527565b34801561017b575f80fd5b505f5461018e906001600160a01b031681565b6040516001600160a01b039091168152602001610148565b3480156101b1575f80fd5b506101c56101c03660046114c8565b61088c565b604051908152602001610148565b61011d6101e136600461154b565b610980565b3480156101f1575f80fd5b506101c561099f565b348015610205575f80fd5b5061011d6102143660046115ed565b6109ba565b348015610224575f80fd5b5061011d6109e8565b348015610238575f80fd5b5061011d6102473660046115ed565b6109fb565b348015610257575f80fd5b507f9016d09d72d40fdae2fd8ceac6b6234c7706214fd39c1cd1e609a0528c199300546001600160a01b031661018e565b348015610293575f80fd5b5061011d6102a2366004611608565b610a24565b3480156102b2575f80fd5b506102d7604051806040016040528060058152602001640352e302e360dc1b81525081565b6040516101489190611640565b3480156102ef575f80fd5b506103036102fe3660046115ed565b610afb565b6040516101489190611675565b34801561031b575f80fd5b5061011d61032a3660046115ed565b610b6f565b34801561033a575f80fd5b506101c56103493660046114c8565b610c8b565b348015610359575f80fd5b5061011d6103683660046115ed565b610f24565b5f82116103c15760405162461bcd60e51b815260206004820152601f60248201527f5368617265206d7573742062652067726561746572207468616e207a65726f0060448201526064015b60405180910390fd5b6040516323b872dd60e01b81526001600160a01b038216906323b872dd906103f1903390309087906004016116c1565b6020604051808303815f875af115801561040d573d5f803e3d5ffd5b505050506040513d601f19601f8201168201806040525081019061043191906116e5565b5060405163095ea7b360e01b81526001600160a01b03821660048201819052602482018490529063095ea7b3906044016020604051808303815f875af115801561047d573d5f803e3d5ffd5b505050506040513d601f19601f820116820180604052508101906104a191906116e5565b5060405163cff4075960e01b8152600481018390523360248201526001600160a01b0382169063cff40759906044015b5f604051808303815f87803b1580156104e8575f80fd5b505af11580156104fa573d5f803e3d5ffd5b505050505050565b5f6105225f805160206118848339815191525467ffffffffffffffff1690565b905090565b5f8190505f816001600160a01b03166367e4ac2c6040518163ffffffff1660e01b81526004015f60405180830381865afa158015610567573d5f803e3d5ffd5b505050506040513d5f823e601f3d908101601f1916820160405261058e9190810190611704565b90505f5b81518110156106c0575f8282815181106105ae576105ae6117b1565b602002602001015190505f8787848181106105cb576105cb6117b1565b905060200201359050816001600160a01b03166323b872dd3330846040518463ffffffff1660e01b8152600401610604939291906116c1565b6020604051808303815f875af1158015610620573d5f803e3d5ffd5b505050506040513d601f19601f8201168201806040525081019061064491906116e5565b5060405163095ea7b360e01b81526001600160a01b0387811660048301526024820183905283169063095ea7b3906044016020604051808303815f875af1158015610691573d5f803e3d5ffd5b505050506040513d601f19601f820116820180604052508101906106b591906116e5565b505050600101610592565b506040516370a0823160e01b81523060048201525f906001600160a01b038416906370a0823190602401602060405180830381865afa158015610705573d5f803e3d5ffd5b505050506040513d601f19601f8201168201806040525081019061072991906117c5565b604051634de59aa360e01b81529091506001600160a01b03841690634de59aa39061075a90899089906004016117dc565b6020604051808303815f875af1158015610776573d5f803e3d5ffd5b505050506040513d601f19601f8201168201806040525081019061079a91906117c5565b506040516370a0823160e01b81523060048201525f906001600160a01b038516906370a0823190602401602060405180830381865afa1580156107df573d5f803e3d5ffd5b505050506040513d601f19601f8201168201806040525081019061080391906117c5565b90505f6108108383611813565b60405163a9059cbb60e01b8152336004820152602481018290529091506001600160a01b0386169063a9059cbb906044016020604051808303815f875af115801561085d573d5f803e3d5ffd5b505050506040513d601f19601f8201168201806040525081019061088191906116e5565b505050505050505050565b5f8054604051632d5e94a760e01b81526001600160a01b038681166004830152858116602483015283921690632d5e94a790604401602060405180830381865afa1580156108dc573d5f803e3d5ffd5b505050506040513d601f19601f820116820180604052508101906109009190611832565b604051632550332960e11b815290915081906001600160a01b03821690634aa0665290610935908990899089906004016116c1565b602060405180830381865afa158015610950573d5f803e3d5ffd5b505050506040513d601f19601f8201168201806040525081019061097491906117c5565b925050505b9392505050565b610988610f61565b61099182611005565b61099b828261100d565b5050565b5f6109a86110ce565b505f8051602061186483398151915290565b604051632ab4040d60e11b815233600482015281906001600160a01b03821690635568081a906024016104d1565b6109f0611117565b6109f95f611172565b565b610a03611117565b5f80546001600160a01b0319166001600160a01b0392909216919091179055565b5f805160206118848339815191528054829190600160401b900460ff1680610a5a5750805467ffffffffffffffff808416911610155b15610a785760405163f92ee8a960e01b815260040160405180910390fd5b8054600160401b67ffffffffffffffff841668ffffffffffffffffff1990921682171782555f80546001600160a01b0319166001600160a01b038716179055815460ff60401b191682556040519081527fc7f505b2f371ae2175ee4913f4499e1f2633a7b5936321eed1cdaeb6115181d29060200160405180910390a150505050565b5f54604051635a1a073560e11b81526001600160a01b038381166004830152606092169063b4340e6a906024015f60405180830381865afa158015610b42573d5f803e3d5ffd5b505050506040513d5f823e601f3d908101601f19168201604052610b699190810190611704565b92915050565b5f805160206118848339815191528054600160401b810460ff16159067ffffffffffffffff165f81158015610ba15750825b90505f8267ffffffffffffffff166001148015610bbd5750303b155b905081158015610bcb575080155b15610be95760405163f92ee8a960e01b815260040160405180910390fd5b845467ffffffffffffffff191660011785558315610c1357845460ff60401b1916600160401b1785555b610c1b6111e2565b610c24336111ea565b5f80546001600160a01b0319166001600160a01b03881617905583156104fa57845460ff60401b19168555604051600181527fc7f505b2f371ae2175ee4913f4499e1f2633a7b5936321eed1cdaeb6115181d29060200160405180910390a1505050505050565b5f808211610cdb5760405162461bcd60e51b815260206004820181905260248201527f416d6f756e74206d7573742062652067726561746572207468616e207a65726f60448201526064016103b8565b5f8054604051632d5e94a760e01b81526001600160a01b038781166004830152868116602483015290911690632d5e94a790604401602060405180830381865afa158015610d2b573d5f803e3d5ffd5b505050506040513d601f19601f82011682018060405250810190610d4f9190611832565b6040516323b872dd60e01b815290915081906001600160a01b038716906323b872dd90610d84903390309089906004016116c1565b6020604051808303815f875af1158015610da0573d5f803e3d5ffd5b505050506040513d601f19601f82011682018060405250810190610dc491906116e5565b5060405163095ea7b360e01b81526001600160a01b0383811660048301526024820186905287169063095ea7b3906044016020604051808303815f875af1158015610e11573d5f803e3d5ffd5b505050506040513d601f19601f82011682018060405250810190610e3591906116e5565b50604051630df791e560e41b81525f906001600160a01b0383169063df791e5090610e68908a908a908a906004016116c1565b6020604051808303815f875af1158015610e84573d5f803e3d5ffd5b505050506040513d601f19601f82011682018060405250810190610ea891906117c5565b60405163a9059cbb60e01b8152336004820152602481018290529091506001600160a01b0387169063a9059cbb906044016020604051808303815f875af1158015610ef5573d5f803e3d5ffd5b505050506040513d601f19601f82011682018060405250810190610f1991906116e5565b509695505050505050565b610f2c611117565b6001600160a01b038116610f5557604051631e4fbdf760e01b81525f60048201526024016103b8565b610f5e81611172565b50565b306001600160a01b037f0000000000000000000000000000000000000000000000000000000000000000161480610fe757507f00000000000000000000000000000000000000000000000000000000000000006001600160a01b0316610fdb5f80516020611864833981519152546001600160a01b031690565b6001600160a01b031614155b156109f95760405163703e46dd60e11b815260040160405180910390fd5b610f5e611117565b816001600160a01b03166352d1902d6040518163ffffffff1660e01b8152600401602060405180830381865afa925050508015611067575060408051601f3d908101601f19168201909252611064918101906117c5565b60015b61108f57604051634c9c8ce360e01b81526001600160a01b03831660048201526024016103b8565b5f8051602061186483398151915281146110bf57604051632a87526960e21b8152600481018290526024016103b8565b6110c983836111fb565b505050565b306001600160a01b037f000000000000000000000000000000000000000000000000000000000000000016146109f95760405163703e46dd60e11b815260040160405180910390fd5b336111497f9016d09d72d40fdae2fd8ceac6b6234c7706214fd39c1cd1e609a0528c199300546001600160a01b031690565b6001600160a01b0316146109f95760405163118cdaa760e01b81523360048201526024016103b8565b7f9016d09d72d40fdae2fd8ceac6b6234c7706214fd39c1cd1e609a0528c19930080546001600160a01b031981166001600160a01b03848116918217845560405192169182907f8be0079c531659141344cd1fd0a4f28419497f9722a3daafe3b4186f6b6457e0905f90a3505050565b6109f9611250565b6111f2611250565b610f5e81611286565b6112048261128e565b6040516001600160a01b038316907fbc7cd75a20ee27fd9adebab32041f755214dbc6bffa90cc0225b39da2e5c2d3b905f90a2805115611248576110c982826112f1565b61099b611363565b5f8051602061188483398151915254600160401b900460ff166109f957604051631afcd79f60e31b815260040160405180910390fd5b610f2c611250565b806001600160a01b03163b5f036112c357604051634c9c8ce360e01b81526001600160a01b03821660048201526024016103b8565b5f8051602061186483398151915280546001600160a01b0319166001600160a01b0392909216919091179055565b60605f80846001600160a01b03168460405161130d919061184d565b5f60405180830381855af49150503d805f8114611345576040519150601f19603f3d011682016040523d82523d5f602084013e61134a565b606091505b509150915061135a858383611382565b95945050505050565b34156109f95760405163b398979f60e01b815260040160405180910390fd5b60608261139757611392826113de565b610979565b81511580156113ae57506001600160a01b0384163b155b156113d757604051639996b31560e01b81526001600160a01b03851660048201526024016103b8565b5080610979565b8051156113ee5780518082602001fd5b604051630a12f52160e11b815260040160405180910390fd5b6001600160a01b0381168114610f5e575f80fd5b5f806040838503121561142c575f80fd5b82359150602083013561143e81611407565b809150509250929050565b5f805f6040848603121561145b575f80fd5b833567ffffffffffffffff80821115611472575f80fd5b818601915086601f830112611485575f80fd5b813581811115611493575f80fd5b8760208260051b85010111156114a7575f80fd5b602092830195509350508401356114bd81611407565b809150509250925092565b5f805f606084860312156114da575f80fd5b83356114e581611407565b925060208401356114f581611407565b929592945050506040919091013590565b634e487b7160e01b5f52604160045260245ffd5b604051601f8201601f1916810167ffffffffffffffff8111828210171561154357611543611506565b604052919050565b5f806040838503121561155c575f80fd5b823561156781611407565b915060208381013567ffffffffffffffff80821115611584575f80fd5b818601915086601f830112611597575f80fd5b8135818111156115a9576115a9611506565b6115bb601f8201601f1916850161151a565b915080825287848285010111156115d0575f80fd5b80848401858401375f848284010152508093505050509250929050565b5f602082840312156115fd575f80fd5b813561097981611407565b5f8060408385031215611619575f80fd5b823561162481611407565b9150602083013567ffffffffffffffff8116811461143e575f80fd5b602081525f82518060208401528060208501604085015e5f604082850101526040601f19601f83011684010191505092915050565b602080825282518282018190525f9190848201906040850190845b818110156116b55783516001600160a01b031683529284019291840191600101611690565b50909695505050505050565b6001600160a01b039384168152919092166020820152604081019190915260600190565b5f602082840312156116f5575f80fd5b81518015158114610979575f80fd5b5f6020808385031215611715575f80fd5b825167ffffffffffffffff8082111561172c575f80fd5b818501915085601f83011261173f575f80fd5b81518181111561175157611751611506565b8060051b915061176284830161151a565b818152918301840191848101908884111561177b575f80fd5b938501935b838510156117a5578451925061179583611407565b8282529385019390850190611780565b98975050505050505050565b634e487b7160e01b5f52603260045260245ffd5b5f602082840312156117d5575f80fd5b5051919050565b602080825281018290525f6001600160fb1b038311156117fa575f80fd5b8260051b80856040850137919091016040019392505050565b81810381811115610b6957634e487b7160e01b5f52601160045260245ffd5b5f60208284031215611842575f80fd5b815161097981611407565b5f82518060208501845e5f92019182525091905056fe360894a13ba1a3210667c828492db98dca3e2076cc3735a920a3ca505d382bbcf0c57e16840df040f15088dc2f81fe391c3923bec73e23a9662efc9c229c6a00a2646970667358221220c2442c1fc6055ccfe8eeee729591fcf6e3469ce5e89183dd29b355b63a61dee564736f6c63430008190033",
    "sourcePath": "c:/Users/Utente/Source/repos/baluni-contracts/contracts/BaluniV1PoolPeriphery.sol",
    "compiler": {
        "name": "solc",
        "version": "0.8.25+commit.b61c2a91"
    },
    "functionHashes": {
        "UPGRADE_INTERFACE_VERSION()": "ad3cb1cc",
        "addLiquidity(uint256[],address)": "15ed9afb",
        "changePoolFactory(address)": "72591be5",
        "getAmountOut(address,address,uint256)": "4aa06652",
        "getPoolsContainingToken(address)": "ae3cce1c",
        "getVersion()": "0d8e6e2c",
        "initialize(address)": "c4d66de8",
        "owner()": "8da5cb5b",
        "performRebalanceIfNeeded(address)": "5568081a",
        "poolFactory()": "4219dc40",
        "proxiableUUID()": "52d1902d",
        "reinitialize(address,uint64)": "8f2248bc",
        "removeLiquidity(uint256,address)": "05fe138b",
        "renounceOwnership()": "715018a6",
        "swap(address,address,uint256)": "df791e50",
        "transferOwnership(address)": "f2fde38b",
        "upgradeToAndCall(address,bytes)": "4f1ef286"
    },
    "gasEstimates": {
        "creation": {
            "codeDepositCost": "1272200",
            "executionCost": "infinite",
            "totalCost": "infinite"
        },
        "external": {
            "UPGRADE_INTERFACE_VERSION()": "infinite",
            "addLiquidity(uint256[],address)": "infinite",
            "changePoolFactory(address)": "26804",
            "getAmountOut(address,address,uint256)": "infinite",
            "getPoolsContainingToken(address)": "infinite",
            "getVersion()": "infinite",
            "initialize(address)": "infinite",
            "owner()": "2397",
            "performRebalanceIfNeeded(address)": "infinite",
            "poolFactory()": "2425",
            "proxiableUUID()": "infinite",
            "reinitialize(address,uint64)": "infinite",
            "removeLiquidity(uint256,address)": "infinite",
            "renounceOwnership()": "infinite",
            "swap(address,address,uint256)": "infinite",
            "transferOwnership(address)": "infinite",
            "upgradeToAndCall(address,bytes)": "infinite"
        },
        "internal": {
            "_authorizeUpgrade(address)": "infinite"
        }
    }
}