{
    "contractName": "BaluniV1Router",
    "abi": [
        {
            "inputs": [
                {
                    "internalType": "address",
                    "name": "target",
                    "type": "address"
                }
            ],
            "name": "AddressEmptyCode",
            "type": "error"
        },
        {
            "inputs": [
                {
                    "internalType": "address",
                    "name": "implementation",
                    "type": "address"
                }
            ],
            "name": "ERC1967InvalidImplementation",
            "type": "error"
        },
        {
            "inputs": [],
            "name": "ERC1967NonPayable",
            "type": "error"
        },
        {
            "inputs": [
                {
                    "internalType": "address",
                    "name": "spender",
                    "type": "address"
                },
                {
                    "internalType": "uint256",
                    "name": "allowance",
                    "type": "uint256"
                },
                {
                    "internalType": "uint256",
                    "name": "needed",
                    "type": "uint256"
                }
            ],
            "name": "ERC20InsufficientAllowance",
            "type": "error"
        },
        {
            "inputs": [
                {
                    "internalType": "address",
                    "name": "sender",
                    "type": "address"
                },
                {
                    "internalType": "uint256",
                    "name": "balance",
                    "type": "uint256"
                },
                {
                    "internalType": "uint256",
                    "name": "needed",
                    "type": "uint256"
                }
            ],
            "name": "ERC20InsufficientBalance",
            "type": "error"
        },
        {
            "inputs": [
                {
                    "internalType": "address",
                    "name": "approver",
                    "type": "address"
                }
            ],
            "name": "ERC20InvalidApprover",
            "type": "error"
        },
        {
            "inputs": [
                {
                    "internalType": "address",
                    "name": "receiver",
                    "type": "address"
                }
            ],
            "name": "ERC20InvalidReceiver",
            "type": "error"
        },
        {
            "inputs": [
                {
                    "internalType": "address",
                    "name": "sender",
                    "type": "address"
                }
            ],
            "name": "ERC20InvalidSender",
            "type": "error"
        },
        {
            "inputs": [
                {
                    "internalType": "address",
                    "name": "spender",
                    "type": "address"
                }
            ],
            "name": "ERC20InvalidSpender",
            "type": "error"
        },
        {
            "inputs": [],
            "name": "FailedInnerCall",
            "type": "error"
        },
        {
            "inputs": [],
            "name": "InvalidInitialization",
            "type": "error"
        },
        {
            "inputs": [],
            "name": "NotInitializing",
            "type": "error"
        },
        {
            "inputs": [
                {
                    "internalType": "address",
                    "name": "owner",
                    "type": "address"
                }
            ],
            "name": "OwnableInvalidOwner",
            "type": "error"
        },
        {
            "inputs": [
                {
                    "internalType": "address",
                    "name": "account",
                    "type": "address"
                }
            ],
            "name": "OwnableUnauthorizedAccount",
            "type": "error"
        },
        {
            "inputs": [],
            "name": "ReentrancyGuardReentrantCall",
            "type": "error"
        },
        {
            "inputs": [],
            "name": "UUPSUnauthorizedCallContext",
            "type": "error"
        },
        {
            "inputs": [
                {
                    "internalType": "bytes32",
                    "name": "slot",
                    "type": "bytes32"
                }
            ],
            "name": "UUPSUnsupportedProxiableUUID",
            "type": "error"
        },
        {
            "anonymous": false,
            "inputs": [
                {
                    "indexed": true,
                    "internalType": "address",
                    "name": "owner",
                    "type": "address"
                },
                {
                    "indexed": true,
                    "internalType": "address",
                    "name": "spender",
                    "type": "address"
                },
                {
                    "indexed": false,
                    "internalType": "uint256",
                    "name": "value",
                    "type": "uint256"
                }
            ],
            "name": "Approval",
            "type": "event"
        },
        {
            "anonymous": false,
            "inputs": [
                {
                    "indexed": false,
                    "internalType": "address",
                    "name": "user",
                    "type": "address"
                },
                {
                    "indexed": false,
                    "internalType": "uint256",
                    "name": "value",
                    "type": "uint256"
                }
            ],
            "name": "Burn",
            "type": "event"
        },
        {
            "anonymous": false,
            "inputs": [
                {
                    "indexed": false,
                    "internalType": "uint256",
                    "name": "newFee",
                    "type": "uint256"
                }
            ],
            "name": "ChangeBpsFee",
            "type": "event"
        },
        {
            "anonymous": false,
            "inputs": [
                {
                    "indexed": false,
                    "internalType": "address",
                    "name": "pool",
                    "type": "address"
                }
            ],
            "name": "ChangeRewardPool",
            "type": "event"
        },
        {
            "anonymous": false,
            "inputs": [
                {
                    "indexed": false,
                    "internalType": "address",
                    "name": "user",
                    "type": "address"
                },
                {
                    "components": [
                        {
                            "internalType": "address",
                            "name": "to",
                            "type": "address"
                        },
                        {
                            "internalType": "uint256",
                            "name": "value",
                            "type": "uint256"
                        },
                        {
                            "internalType": "bytes",
                            "name": "data",
                            "type": "bytes"
                        }
                    ],
                    "indexed": false,
                    "internalType": "struct IBaluniV1Agent.Call[]",
                    "name": "calls",
                    "type": "tuple[]"
                },
                {
                    "indexed": false,
                    "internalType": "address[]",
                    "name": "tokensReturn",
                    "type": "address[]"
                }
            ],
            "name": "Execute",
            "type": "event"
        },
        {
            "anonymous": false,
            "inputs": [
                {
                    "indexed": false,
                    "internalType": "uint64",
                    "name": "version",
                    "type": "uint64"
                }
            ],
            "name": "Initialized",
            "type": "event"
        },
        {
            "anonymous": false,
            "inputs": [
                {
                    "indexed": false,
                    "internalType": "string",
                    "name": "message",
                    "type": "string"
                },
                {
                    "indexed": false,
                    "internalType": "uint256",
                    "name": "value",
                    "type": "uint256"
                }
            ],
            "name": "Log",
            "type": "event"
        },
        {
            "anonymous": false,
            "inputs": [
                {
                    "indexed": false,
                    "internalType": "address",
                    "name": "user",
                    "type": "address"
                },
                {
                    "indexed": false,
                    "internalType": "uint256",
                    "name": "value",
                    "type": "uint256"
                }
            ],
            "name": "Mint",
            "type": "event"
        },
        {
            "anonymous": false,
            "inputs": [
                {
                    "indexed": true,
                    "internalType": "address",
                    "name": "previousOwner",
                    "type": "address"
                },
                {
                    "indexed": true,
                    "internalType": "address",
                    "name": "newOwner",
                    "type": "address"
                }
            ],
            "name": "OwnershipTransferred",
            "type": "event"
        },
        {
            "anonymous": false,
            "inputs": [
                {
                    "indexed": true,
                    "internalType": "address",
                    "name": "from",
                    "type": "address"
                },
                {
                    "indexed": true,
                    "internalType": "address",
                    "name": "to",
                    "type": "address"
                },
                {
                    "indexed": false,
                    "internalType": "uint256",
                    "name": "value",
                    "type": "uint256"
                }
            ],
            "name": "Transfer",
            "type": "event"
        },
        {
            "anonymous": false,
            "inputs": [
                {
                    "indexed": true,
                    "internalType": "address",
                    "name": "implementation",
                    "type": "address"
                }
            ],
            "name": "Upgraded",
            "type": "event"
        },
        {
            "inputs": [],
            "name": "UPGRADE_INTERFACE_VERSION",
            "outputs": [
                {
                    "internalType": "string",
                    "name": "",
                    "type": "string"
                }
            ],
            "stateMutability": "view",
            "type": "function"
        },
        {
            "inputs": [],
            "name": "_BPS_BASE",
            "outputs": [
                {
                    "internalType": "uint256",
                    "name": "",
                    "type": "uint256"
                }
            ],
            "stateMutability": "view",
            "type": "function"
        },
        {
            "inputs": [],
            "name": "_BPS_FEE",
            "outputs": [
                {
                    "internalType": "uint256",
                    "name": "",
                    "type": "uint256"
                }
            ],
            "stateMutability": "view",
            "type": "function"
        },
        {
            "inputs": [],
            "name": "_MAX_BPS_FEE",
            "outputs": [
                {
                    "internalType": "uint256",
                    "name": "",
                    "type": "uint256"
                }
            ],
            "stateMutability": "view",
            "type": "function"
        },
        {
            "inputs": [],
            "name": "agentFactory",
            "outputs": [
                {
                    "internalType": "contract IBaluniV1AgentFactory",
                    "name": "",
                    "type": "address"
                }
            ],
            "stateMutability": "view",
            "type": "function"
        },
        {
            "inputs": [
                {
                    "internalType": "address",
                    "name": "owner",
                    "type": "address"
                },
                {
                    "internalType": "address",
                    "name": "spender",
                    "type": "address"
                }
            ],
            "name": "allowance",
            "outputs": [
                {
                    "internalType": "uint256",
                    "name": "",
                    "type": "uint256"
                }
            ],
            "stateMutability": "view",
            "type": "function"
        },
        {
            "inputs": [
                {
                    "internalType": "address",
                    "name": "spender",
                    "type": "address"
                },
                {
                    "internalType": "uint256",
                    "name": "value",
                    "type": "uint256"
                }
            ],
            "name": "approve",
            "outputs": [
                {
                    "internalType": "bool",
                    "name": "",
                    "type": "bool"
                }
            ],
            "stateMutability": "nonpayable",
            "type": "function"
        },
        {
            "inputs": [
                {
                    "internalType": "address",
                    "name": "account",
                    "type": "address"
                }
            ],
            "name": "balanceOf",
            "outputs": [
                {
                    "internalType": "uint256",
                    "name": "",
                    "type": "uint256"
                }
            ],
            "stateMutability": "view",
            "type": "function"
        },
        {
            "inputs": [
                {
                    "internalType": "uint256",
                    "name": "burnAmount",
                    "type": "uint256"
                }
            ],
            "name": "burnERC20",
            "outputs": [],
            "stateMutability": "nonpayable",
            "type": "function"
        },
        {
            "inputs": [
                {
                    "internalType": "uint256",
                    "name": "burnAmount",
                    "type": "uint256"
                }
            ],
            "name": "burnUSDC",
            "outputs": [],
            "stateMutability": "nonpayable",
            "type": "function"
        },
        {
            "inputs": [
                {
                    "internalType": "uint256",
                    "name": "totalBaluni",
                    "type": "uint256"
                },
                {
                    "internalType": "uint256",
                    "name": "totalERC20Balance",
                    "type": "uint256"
                },
                {
                    "internalType": "uint256",
                    "name": "baluniAmount",
                    "type": "uint256"
                },
                {
                    "internalType": "uint256",
                    "name": "tokenDecimals",
                    "type": "uint256"
                }
            ],
            "name": "calculateTokenShare",
            "outputs": [
                {
                    "internalType": "uint256",
                    "name": "",
                    "type": "uint256"
                }
            ],
            "stateMutability": "pure",
            "type": "function"
        },
        {
            "inputs": [
                {
                    "internalType": "address[]",
                    "name": "assets",
                    "type": "address[]"
                },
                {
                    "internalType": "uint256[]",
                    "name": "weights",
                    "type": "uint256[]"
                },
                {
                    "internalType": "address",
                    "name": "sender",
                    "type": "address"
                },
                {
                    "internalType": "address",
                    "name": "receiver",
                    "type": "address"
                },
                {
                    "internalType": "uint256",
                    "name": "limit",
                    "type": "uint256"
                }
            ],
            "name": "callRebalance",
            "outputs": [],
            "stateMutability": "nonpayable",
            "type": "function"
        },
        {
            "inputs": [
                {
                    "internalType": "address",
                    "name": "_agentFactory",
                    "type": "address"
                }
            ],
            "name": "changeAgentFactory",
            "outputs": [],
            "stateMutability": "nonpayable",
            "type": "function"
        },
        {
            "inputs": [
                {
                    "internalType": "uint256",
                    "name": "_newFee",
                    "type": "uint256"
                }
            ],
            "name": "changeBpsFee",
            "outputs": [],
            "stateMutability": "nonpayable",
            "type": "function"
        },
        {
            "inputs": [
                {
                    "internalType": "address",
                    "name": "_marketOracle",
                    "type": "address"
                }
            ],
            "name": "changeMarketOracle",
            "outputs": [],
            "stateMutability": "nonpayable",
            "type": "function"
        },
        {
            "inputs": [
                {
                    "internalType": "address",
                    "name": "_newRebalancer",
                    "type": "address"
                }
            ],
            "name": "changeRebalancer",
            "outputs": [],
            "stateMutability": "nonpayable",
            "type": "function"
        },
        {
            "inputs": [
                {
                    "internalType": "address",
                    "name": "_newTreasury",
                    "type": "address"
                }
            ],
            "name": "changeTreasury",
            "outputs": [],
            "stateMutability": "nonpayable",
            "type": "function"
        },
        {
            "inputs": [],
            "name": "decimals",
            "outputs": [
                {
                    "internalType": "uint8",
                    "name": "",
                    "type": "uint8"
                }
            ],
            "stateMutability": "view",
            "type": "function"
        },
        {
            "inputs": [
                {
                    "components": [
                        {
                            "internalType": "address",
                            "name": "to",
                            "type": "address"
                        },
                        {
                            "internalType": "uint256",
                            "name": "value",
                            "type": "uint256"
                        },
                        {
                            "internalType": "bytes",
                            "name": "data",
                            "type": "bytes"
                        }
                    ],
                    "internalType": "struct IBaluniV1Agent.Call[]",
                    "name": "calls",
                    "type": "tuple[]"
                },
                {
                    "internalType": "address[]",
                    "name": "tokensReturn",
                    "type": "address[]"
                }
            ],
            "name": "execute",
            "outputs": [],
            "stateMutability": "nonpayable",
            "type": "function"
        },
        {
            "inputs": [],
            "name": "fetchMarketPrices",
            "outputs": [
                {
                    "internalType": "uint256",
                    "name": "",
                    "type": "uint256"
                },
                {
                    "internalType": "uint256",
                    "name": "",
                    "type": "uint256"
                }
            ],
            "stateMutability": "view",
            "type": "function"
        },
        {
            "inputs": [
                {
                    "internalType": "address",
                    "name": "_user",
                    "type": "address"
                }
            ],
            "name": "getAgentAddress",
            "outputs": [
                {
                    "internalType": "address",
                    "name": "",
                    "type": "address"
                }
            ],
            "stateMutability": "view",
            "type": "function"
        },
        {
            "inputs": [],
            "name": "getBpsFee",
            "outputs": [
                {
                    "internalType": "uint256",
                    "name": "",
                    "type": "uint256"
                }
            ],
            "stateMutability": "view",
            "type": "function"
        },
        {
            "inputs": [],
            "name": "getTreasury",
            "outputs": [
                {
                    "internalType": "address",
                    "name": "",
                    "type": "address"
                }
            ],
            "stateMutability": "view",
            "type": "function"
        },
        {
            "inputs": [
                {
                    "internalType": "uint256",
                    "name": "amount",
                    "type": "uint256"
                }
            ],
            "name": "getUSDCShareValue",
            "outputs": [
                {
                    "internalType": "uint256",
                    "name": "",
                    "type": "uint256"
                }
            ],
            "stateMutability": "view",
            "type": "function"
        },
        {
            "inputs": [],
            "name": "getUnitPrice",
            "outputs": [
                {
                    "internalType": "uint256",
                    "name": "",
                    "type": "uint256"
                }
            ],
            "stateMutability": "view",
            "type": "function"
        },
        {
            "inputs": [],
            "name": "getVersion",
            "outputs": [
                {
                    "internalType": "uint64",
                    "name": "",
                    "type": "uint64"
                }
            ],
            "stateMutability": "view",
            "type": "function"
        },
        {
            "inputs": [
                {
                    "internalType": "string",
                    "name": "name",
                    "type": "string"
                },
                {
                    "internalType": "string",
                    "name": "symbol",
                    "type": "string"
                }
            ],
            "name": "initialize",
            "outputs": [],
            "stateMutability": "nonpayable",
            "type": "function"
        },
        {
            "inputs": [
                {
                    "internalType": "address",
                    "name": "_usdc",
                    "type": "address"
                },
                {
                    "internalType": "address",
                    "name": "_wnative",
                    "type": "address"
                },
                {
                    "internalType": "address",
                    "name": "_1inchSpotAgg",
                    "type": "address"
                },
                {
                    "internalType": "address",
                    "name": "_uniRouter",
                    "type": "address"
                },
                {
                    "internalType": "address",
                    "name": "_uniFactory",
                    "type": "address"
                },
                {
                    "internalType": "address",
                    "name": "_rebalancer",
                    "type": "address"
                }
            ],
            "name": "initialize",
            "outputs": [],
            "stateMutability": "nonpayable",
            "type": "function"
        },
        {
            "inputs": [
                {
                    "internalType": "address",
                    "name": "_marketOracle",
                    "type": "address"
                }
            ],
            "name": "initializeMarketOracle",
            "outputs": [],
            "stateMutability": "nonpayable",
            "type": "function"
        },
        {
            "inputs": [
                {
                    "internalType": "address",
                    "name": "token",
                    "type": "address"
                }
            ],
            "name": "liquidate",
            "outputs": [],
            "stateMutability": "nonpayable",
            "type": "function"
        },
        {
            "inputs": [],
            "name": "liquidateAll",
            "outputs": [],
            "stateMutability": "nonpayable",
            "type": "function"
        },
        {
            "inputs": [],
            "name": "listAllTokens",
            "outputs": [
                {
                    "internalType": "address[]",
                    "name": "",
                    "type": "address[]"
                }
            ],
            "stateMutability": "view",
            "type": "function"
        },
        {
            "inputs": [],
            "name": "marketOracle",
            "outputs": [
                {
                    "internalType": "contract IBaluniV1MarketOracle",
                    "name": "",
                    "type": "address"
                }
            ],
            "stateMutability": "view",
            "type": "function"
        },
        {
            "inputs": [
                {
                    "internalType": "uint256",
                    "name": "balAmountToMint",
                    "type": "uint256"
                }
            ],
            "name": "mintWithUSDC",
            "outputs": [],
            "stateMutability": "nonpayable",
            "type": "function"
        },
        {
            "inputs": [],
            "name": "name",
            "outputs": [
                {
                    "internalType": "string",
                    "name": "",
                    "type": "string"
                }
            ],
            "stateMutability": "view",
            "type": "function"
        },
        {
            "inputs": [],
            "name": "owner",
            "outputs": [
                {
                    "internalType": "address",
                    "name": "",
                    "type": "address"
                }
            ],
            "stateMutability": "view",
            "type": "function"
        },
        {
            "inputs": [],
            "name": "proxiableUUID",
            "outputs": [
                {
                    "internalType": "bytes32",
                    "name": "",
                    "type": "bytes32"
                }
            ],
            "stateMutability": "view",
            "type": "function"
        },
        {
            "inputs": [],
            "name": "rebalancer",
            "outputs": [
                {
                    "internalType": "contract IBaluniV1Rebalancer",
                    "name": "",
                    "type": "address"
                }
            ],
            "stateMutability": "view",
            "type": "function"
        },
        {
            "inputs": [
                {
                    "internalType": "address",
                    "name": "_usdc",
                    "type": "address"
                },
                {
                    "internalType": "address",
                    "name": "_wnative",
                    "type": "address"
                },
                {
                    "internalType": "address",
                    "name": "_1inchSpotAgg",
                    "type": "address"
                },
                {
                    "internalType": "address",
                    "name": "_uniRouter",
                    "type": "address"
                },
                {
                    "internalType": "address",
                    "name": "_uniFactory",
                    "type": "address"
                },
                {
                    "internalType": "address",
                    "name": "_rebalancer",
                    "type": "address"
                },
                {
                    "internalType": "uint64",
                    "name": "version",
                    "type": "uint64"
                }
            ],
            "name": "reinitialize",
            "outputs": [],
            "stateMutability": "nonpayable",
            "type": "function"
        },
        {
            "inputs": [],
            "name": "renounceOwnership",
            "outputs": [],
            "stateMutability": "nonpayable",
            "type": "function"
        },
        {
            "inputs": [
                {
                    "internalType": "uint256",
                    "name": "balAmountToMint",
                    "type": "uint256"
                }
            ],
            "name": "requiredUSDCtoMint",
            "outputs": [
                {
                    "internalType": "uint256",
                    "name": "",
                    "type": "uint256"
                }
            ],
            "stateMutability": "view",
            "type": "function"
        },
        {
            "inputs": [],
            "name": "symbol",
            "outputs": [
                {
                    "internalType": "string",
                    "name": "",
                    "type": "string"
                }
            ],
            "stateMutability": "view",
            "type": "function"
        },
        {
            "inputs": [
                {
                    "internalType": "uint256",
                    "name": "amount",
                    "type": "uint256"
                },
                {
                    "internalType": "address",
                    "name": "token",
                    "type": "address"
                }
            ],
            "name": "tokenValuation",
            "outputs": [
                {
                    "internalType": "uint256",
                    "name": "",
                    "type": "uint256"
                }
            ],
            "stateMutability": "view",
            "type": "function"
        },
        {
            "inputs": [],
            "name": "totalSupply",
            "outputs": [
                {
                    "internalType": "uint256",
                    "name": "",
                    "type": "uint256"
                }
            ],
            "stateMutability": "view",
            "type": "function"
        },
        {
            "inputs": [],
            "name": "totalValuation",
            "outputs": [
                {
                    "internalType": "uint256",
                    "name": "",
                    "type": "uint256"
                }
            ],
            "stateMutability": "view",
            "type": "function"
        },
        {
            "inputs": [
                {
                    "internalType": "address",
                    "name": "to",
                    "type": "address"
                },
                {
                    "internalType": "uint256",
                    "name": "value",
                    "type": "uint256"
                }
            ],
            "name": "transfer",
            "outputs": [
                {
                    "internalType": "bool",
                    "name": "",
                    "type": "bool"
                }
            ],
            "stateMutability": "nonpayable",
            "type": "function"
        },
        {
            "inputs": [
                {
                    "internalType": "address",
                    "name": "from",
                    "type": "address"
                },
                {
                    "internalType": "address",
                    "name": "to",
                    "type": "address"
                },
                {
                    "internalType": "uint256",
                    "name": "value",
                    "type": "uint256"
                }
            ],
            "name": "transferFrom",
            "outputs": [
                {
                    "internalType": "bool",
                    "name": "",
                    "type": "bool"
                }
            ],
            "stateMutability": "nonpayable",
            "type": "function"
        },
        {
            "inputs": [
                {
                    "internalType": "address",
                    "name": "newOwner",
                    "type": "address"
                }
            ],
            "name": "transferOwnership",
            "outputs": [],
            "stateMutability": "nonpayable",
            "type": "function"
        },
        {
            "inputs": [],
            "name": "treasury",
            "outputs": [
                {
                    "internalType": "address",
                    "name": "",
                    "type": "address"
                }
            ],
            "stateMutability": "view",
            "type": "function"
        },
        {
            "inputs": [
                {
                    "internalType": "address",
                    "name": "newImplementation",
                    "type": "address"
                },
                {
                    "internalType": "bytes",
                    "name": "data",
                    "type": "bytes"
                }
            ],
            "name": "upgradeToAndCall",
            "outputs": [],
            "stateMutability": "payable",
            "type": "function"
        }
    ],
    "bytecode": "60a0604052306080523480156012575f80fd5b50608051614a496100395f395f81816135510152818161357a01526136b90152614a495ff3fe6080604052600436106102bf575f3560e01c80635e7f8b761161016f578063980d24f9116100d8578063b9f5e61711610092578063eedc3c501161006d578063eedc3c501461085e578063f2fde38b1461087d578063fe0a4dd11461089c578063fe330a51146108bb575f80fd5b8063b9f5e6171461080b578063cc2a9a5b14610820578063dd62ed3e1461083f575f80fd5b8063980d24f914610740578063a9059cbb1461075f578063aa95d8931461077e578063ad3cb1cc1461079d578063b0d60ba0146107cd578063b14f2a39146107ec575f80fd5b80637df107ea116101295780637df107ea1461067457806385377188146106935780638d483df1146106a85780638da5cb5b146106d15780638e7734551461070d57806395d89b411461072c575f80fd5b80635e7f8b76146105c357806360961528146105e457806361d027b31461060357806370a0823114610622578063715018a61461064157806371ddcfb814610655575f80fd5b806323b872dd1161022b57806334decfc9116101e55780633c2066a9116101c05780633c2066a9146105695780634cd88b761461057d5780634f1ef2861461059c57806352d1902d146105af575f80fd5b806334decfc91461051957806335aa0efa1461052d5780633b19e84a1461054c575f80fd5b806323b872dd1461046e57806327d54a921461048d578063295b9300146104ac5780632bdd955a146104c05780632f865568146104df578063313ce567146104fe575f80fd5b80630a38abab1161027c5780630a38abab146103b15780630cfc7386146103d05780630d8e6e2c146103ef57806318160ddd1461041b578063185fcffe1461043b5780631a168da21461044f575f80fd5b8063012a33aa146102c357806301d22ccd146102ea57806306497cb91461032157806306fdde03146103425780630918281b14610363578063095ea7b314610382575b5f80fd5b3480156102ce575f80fd5b506102d76108da565b6040519081526020015b60405180910390f35b3480156102f5575f80fd5b50600c54610309906001600160a01b031681565b6040516001600160a01b0390911681526020016102e1565b34801561032c575f80fd5b5061034061033b366004613d13565b6108f1565b005b34801561034d575f80fd5b50610356610934565b6040516102e19190613d58565b34801561036e575f80fd5b5061034061037d366004613d7e565b6109f4565b34801561038d575f80fd5b506103a161039c366004613d99565b610a1e565b60405190151581526020016102e1565b3480156103bc575f80fd5b506103406103cb366004613d7e565b610a37565b3480156103db575f80fd5b506103406103ea366004613d13565b610a61565b3480156103fa575f80fd5b50610403610e4c565b6040516001600160401b0390911681526020016102e1565b348015610426575f80fd5b505f80516020614994833981519152546102d7565b348015610446575f80fd5b506001546102d7565b34801561045a575f80fd5b50610340610469366004613d13565b610e6b565b348015610479575f80fd5b506103a1610488366004613dc3565b611170565b348015610498575f80fd5b506103096104a7366004613d7e565b611195565b3480156104b7575f80fd5b506102d7611201565b3480156104cb575f80fd5b506102d76104da366004613e01565b61120a565b3480156104ea575f80fd5b506103406104f9366004613d7e565b611215565b348015610509575f80fd5b50604051601281526020016102e1565b348015610524575f80fd5b506102d75f5481565b348015610538575f80fd5b50610340610547366004613d7e565b6113da565b348015610557575f80fd5b50600d546001600160a01b0316610309565b348015610574575f80fd5b50610340611404565b348015610588575f80fd5b50610340610597366004613f06565b61145d565b6103406105aa366004613f65565b611545565b3480156105ba575f80fd5b506102d7611564565b3480156105ce575f80fd5b506105d761157f565b6040516102e19190613fea565b3480156105ef575f80fd5b50600b54610309906001600160a01b031681565b34801561060e575f80fd5b50600d54610309906001600160a01b031681565b34801561062d575f80fd5b506102d761063c366004613d7e565b61158b565b34801561064c575f80fd5b506103406115b1565b348015610660575f80fd5b506102d761066f366004613d13565b6115c2565b34801561067f575f80fd5b50600a54610309906001600160a01b031681565b34801561069e575f80fd5b506102d760025481565b3480156106b3575f80fd5b506106bc6115cc565b604080519283526020830191909152016102e1565b3480156106dc575f80fd5b507f9016d09d72d40fdae2fd8ceac6b6234c7706214fd39c1cd1e609a0528c199300546001600160a01b0316610309565b348015610718575f80fd5b50610340610727366004614043565b6116d4565b348015610737575f80fd5b50610356611746565b34801561074b575f80fd5b5061034061075a366004613d7e565b611784565b34801561076a575f80fd5b506103a1610779366004613d99565b6118df565b348015610789575f80fd5b506102d7610798366004613d13565b6118ec565b3480156107a8575f80fd5b50610356604051806040016040528060058152602001640352e302e360dc1b81525081565b3480156107d8575f80fd5b506103406107e73660046140db565b611940565b3480156107f7575f80fd5b50610340610806366004613d7e565b611a8e565b348015610816575f80fd5b506102d760015481565b34801561082b575f80fd5b5061034061083a366004614177565b611ab8565b34801561084a575f80fd5b506102d76108593660046141f5565b611ca5565b348015610869575f80fd5b506103406108783660046142b8565b611cee565b348015610888575f80fd5b50610340610897366004613d7e565b61245d565b3480156108a7575f80fd5b506103406108b6366004613d13565b612497565b3480156108c6575f80fd5b506102d76108d53660046143c6565b612a0e565b5f6108ec670de0b6b3a7640000612a1b565b905090565b6108f9612aab565b60018190556040518181527fbea1b31142ae4b1f4efad240349036d718b7950d246c127768097ccf602fc7e09060200160405180910390a150565b7f52c63247e1f47db19d5ce0460030c497f067ca4cebf71ba98eeadabe20bace0380546060915f8051602061495483398151915291610972906143f5565b80601f016020809104026020016040519081016040528092919081815260200182805461099e906143f5565b80156109e95780601f106109c0576101008083540402835291602001916109e9565b820191905f5260205f20905b8154815290600101906020018083116109cc57829003601f168201915b505050505091505090565b6109fc612aab565b600c80546001600160a01b0319166001600160a01b0392909216919091179055565b5f33610a2b818585612b06565b60019150505b92915050565b610a3f612aab565b600a80546001600160a01b0319166001600160a01b0392909216919091179055565b610a69612b18565b5f610a72612b4f565b90505f610a8a5f805160206149948339815191525490565b90505f81610a98848661443b565b610aa29190614452565b6005549091506001600160a01b03166323b872dd3330610ac764e8d4a5100086614452565b6040516001600160e01b031960e086901b1681526001600160a01b03938416600482015292909116602483015260448201526064016020604051808303815f875af1158015610b18573d5f803e3d5ffd5b505050506040513d601f19601f82011682018060405250810190610b3c9190614471565b506005546040516370a0823160e01b81523360048201525f916001600160a01b0316906370a0823190602401602060405180830381865afa158015610b83573d5f803e3d5ffd5b505050506040513d601f19601f82011682018060405250810190610ba79190614490565b600554604051636eb1769f60e11b81523360048201523060248201529192505f916001600160a01b039091169063dd62ed3e90604401602060405180830381865afa158015610bf8573d5f803e3d5ffd5b505050506040513d601f19601f82011682018060405250810190610c1c9190614490565b90505f8411610c7d5760405162461bcd60e51b815260206004820152602260248201527f546f74616c2042414c554e4920737570706c792063616e6e6f74206265207a65604482015261726f60f01b60648201526084015b60405180910390fd5b610c8c64e8d4a5100084614452565b821015610cdb5760405162461bcd60e51b815260206004820152601c60248201527f555344432062616c616e636520697320696e73756666696369656e74000000006044820152606401610c74565b610cea64e8d4a5100084614452565b811015610d395760405162461bcd60e51b815260206004820152601960248201527f436865636b2074686520746f6b656e20616c6c6f77616e6365000000000000006044820152606401610c74565b610d433387612c0b565b7f0f6798a560793a54c3bcfe86a93cde1e73087d944c0ea20544137d41213968853387604051610d749291906144a7565b60405180910390a15f60025460015464e8d4a5100086610d949190614452565b610d9e919061443b565b610da89190614452565b6005549091506001600160a01b031663a9059cbb610dce600d546001600160a01b031690565b836040518363ffffffff1660e01b8152600401610dec9291906144a7565b6020604051808303815f875af1158015610e08573d5f803e3d5ffd5b505050506040513d601f19601f82011682018060405250810190610e2c9190614471565b50505050505050610e4960015f805160206149d483398151915255565b50565b5f6108ec5f805160206149f4833981519152546001600160401b031690565b610e73612b18565b80610e7d3361158b565b1015610ebe5760405162461bcd60e51b815260206004820152601060248201526f125b9cdd59999a58da595b9d0810905360821b6044820152606401610c74565b610ec781612c52565b5f5b610ed36003612d4c565b811015611116575f610ee6600383612d55565b90505f610efe5f805160206149948339815191525490565b6040516370a0823160e01b81523060048201529091505f906001600160a01b038416906370a0823190602401602060405180830381865afa158015610f45573d5f803e3d5ffd5b505050506040513d601f19601f82011682018060405250810190610f699190614490565b9050801580610f8057506001600160a01b03831630145b15610f8d5750505061110e565b5f836001600160a01b031663313ce5676040518163ffffffff1660e01b8152600401602060405180830381865afa158015610fca573d5f803e3d5ffd5b505050506040513d601f19601f82011682018060405250810190610fee91906144c0565b60ff1690505f61100084848985612d60565b90505f61100c82612e7d565b60405163a9059cbb60e01b81529091506001600160a01b0387169063a9059cbb9061103d90339085906004016144a7565b6020604051808303815f875af1158015611059573d5f803e3d5ffd5b505050506040513d601f19601f8201168201806040525081019061107d9190614471565b50856001600160a01b031663a9059cbb61109f600d546001600160a01b031690565b6110a984866144e0565b6040518363ffffffff1660e01b81526004016110c69291906144a7565b6020604051808303815f875af11580156110e2573d5f803e3d5ffd5b505050506040513d601f19601f820116820180604052508101906111069190614471565b505050505050505b600101610ec9565b506111213382612ea6565b7fcc16f5dbb4873280815c1ee09dbd06736cffcc184412cf7a71a0fdb75d397ca533826040516111529291906144a7565b60405180910390a1610e4960015f805160206149d483398151915255565b5f3361117d858285612eda565b611188858585612f37565b60019150505b9392505050565b600a546040516313eaa54960e11b81526001600160a01b0383811660048301525f9216906327d54a9290602401602060405180830381865afa1580156111dd573d5f803e3d5ffd5b505050506040513d601f19601f82011682018060405250810190610a3191906144f3565b5f6108ec612b4f565b5f61118e8383612f94565b6040516370a0823160e01b81523060048201525f906001600160a01b038316906370a0823190602401602060405180830381865afa158015611259573d5f803e3d5ffd5b505050506040513d601f19601f8201168201806040525081019061127d9190614490565b600954600554604051630b4c774160e11b81529293505f926001600160a01b0392831692631698ee82926112bd92889290911690610bb89060040161450e565b602060405180830381865afa1580156112d8573d5f803e3d5ffd5b505050506040513d601f19601f820116820180604052508101906112fc91906144f3565b6008549091506113179084906001600160a01b0316846131f3565b8115156001600160a01b0382161580159061132f5750805b15611376576005545f9061134f9086906001600160a01b0316863061334c565b90505f81116113705760405162461bcd60e51b8152600401610c7490614536565b506113d4565b6001600160a01b03821615801561138a5750805b156113d4576006546005545f916113b19187916001600160a01b039081169116873061344b565b90505f81116113d25760405162461bcd60e51b8152600401610c7490614536565b505b50505050565b6113e2612aab565b600b80546001600160a01b0319166001600160a01b0392909216919091179055565b61140c612b18565b5f6114176003612d4c565b90505f5b81811015611443575f61142f600383612d55565b905061143a81611215565b5060010161141b565b505061145b60015f805160206149d483398151915255565b565b5f805160206149f48339815191528054600160401b810460ff1615906001600160401b03165f8115801561148e5750825b90505f826001600160401b031660011480156114a95750303b155b9050811580156114b7575080155b156114d55760405163f92ee8a960e01b815260040160405180910390fd5b845467ffffffffffffffff1916600117855583156114ff57845460ff60401b1916600160401b1785555b6115098787613534565b831561153c57845460ff60401b19168555604051600181525f805160206149748339815191529060200160405180910390a15b50505050505050565b61154d613546565b611556826135ea565b61156082826135f2565b5050565b5f61156d6136ae565b505f805160206149b483398151915290565b60606108ec60036136f7565b6001600160a01b03165f9081525f80516020614954833981519152602052604090205490565b6115b9612aab565b61145b5f613703565b5f610a3182612a1b565b5f805f600b5f9054906101000a90046001600160a01b03166001600160a01b031663efdba04f6040518163ffffffff1660e01b8152600401602060405180830381865afa15801561161f573d5f803e3d5ffd5b505050506040513d601f19601f820116820180604052508101906116439190614490565b90505f600b5f9054906101000a90046001600160a01b03166001600160a01b031663683a8c816040518163ffffffff1660e01b8152600401602060405180830381865afa158015611696573d5f803e3d5ffd5b505050506040513d601f19601f820116820180604052508101906116ba9190614490565b6116c99064e8d4a5100061443b565b919491935090915050565b600c546040516384db1dfb60e01b81526001600160a01b03909116906384db1dfb90611710908a908a908a908a908a908a908a9060040161456d565b5f604051808303815f87803b158015611727575f80fd5b505af1158015611739573d5f803e3d5ffd5b5050505050505050505050565b7f52c63247e1f47db19d5ce0460030c497f067ca4cebf71ba98eeadabe20bace0480546060915f8051602061495483398151915291610972906143f5565b5f805160206149f48339815191528054600160401b810460ff1615906001600160401b03165f811580156117b55750825b90505f826001600160401b031660011480156117d05750303b155b9050811580156117de575080155b156117fc5760405163f92ee8a960e01b815260040160405180910390fd5b845467ffffffffffffffff19166001178555831561182657845460ff60401b1916600160401b1785555b600b546001600160a01b0316156118895760405162461bcd60e51b815260206004820152602160248201527f4d61726b6574204f7261636c6520416c726561647920496e697469616c697a656044820152601960fa1b6064820152608401610c74565b600b80546001600160a01b0319166001600160a01b03881617905583156118d757845460ff60401b19168555604051600181525f805160206149748339815191529060200160405180910390a15b505050505050565b5f33610a2b818585612f37565b5f806118f6612b4f565b90505f61190e5f805160206149948339815191525490565b90505f8161191c848761443b565b6119269190614452565b905061193764e8d4a5100082614452565b95945050505050565b5f805160206149f48339815191528054829190600160401b900460ff1680611975575080546001600160401b03808416911610155b156119935760405163f92ee8a960e01b815260040160405180910390fd5b805468ffffffffffffffffff19166001600160401b03831617600160401b1781556101f45f55601e600155612710600255600580546001600160a01b03808c166001600160a01b03199283168117909355600680548c8316908416179055600780548b8316908416179055600880548a83169084161790556009805491891691909216179055611a2590600390613773565b50600c80546001600160a01b0386166001600160a01b031991821617909155600d805490911633179055805460ff60401b191681556040516001600160401b03831681525f805160206149748339815191529060200160405180910390a1505050505050505050565b611a96612aab565b600d80546001600160a01b0319166001600160a01b0392909216919091179055565b5f805160206149f48339815191528054600160401b810460ff1615906001600160401b03165f81158015611ae95750825b90505f826001600160401b03166001148015611b045750303b155b905081158015611b12575080155b15611b305760405163f92ee8a960e01b815260040160405180910390fd5b845467ffffffffffffffff191660011785558315611b5a57845460ff60401b1916600160401b1785555b611ba06040518060400160405280600681526020016542616c756e6960d01b8152506040518060400160405280600681526020016542414c554e4960d01b815250613534565b611ba933613787565b611bb1613798565b611bb96137a8565b611bcb30670de0b6b3a7640000612c0b565b6101f45f55601e600155612710600255600580546001600160a01b03808e166001600160a01b03199283168117909355600680548e8316908416179055600780548d8316908416179055600880548c831690841617905560098054918b1691909216179055611c3c90600390613773565b50600c80546001600160a01b0388166001600160a01b031991821617909155600d805490911633179055831561173957845460ff60401b19168555604051600181525f805160206149748339815191529060200160405180910390a15050505050505050505050565b6001600160a01b039182165f9081527f52c63247e1f47db19d5ce0460030c497f067ca4cebf71ba98eeadabe20bace016020908152604080832093909416825291909152205490565b611cf6612b18565b600a546001600160a01b0316611d465760405162461bcd60e51b81526020600482015260156024820152741059d95b9d08199858dd1bdc9e481b9bdd081cd95d605a1b6044820152606401610c74565b600a54604051639b76a5cd60e01b81523360048201525f916001600160a01b031690639b76a5cd906024016020604051808303815f875af1158015611d8d573d5f803e3d5ffd5b505050506040513d601f19601f82011682018060405250810190611db191906144f3565b90505f82516001600160401b03811115611dcd57611dcd613e2f565b604051908082528060200260200182016040528015611df6578160200160208202803683370190505b5090505f83516001600160401b03811115611e1357611e13613e2f565b604051908082528060200260200182016040528015611e3c578160200160208202803683370190505b5090505f5b8451811015611f3c57611e6e6003868381518110611e6157611e61614614565b60200260200101516137b0565b15838281518110611e8157611e81614614565b602002602001019015159081151581525050848181518110611ea557611ea5614614565b60209081029190910101516040516370a0823160e01b81523060048201526001600160a01b03909116906370a0823190602401602060405180830381865afa158015611ef3573d5f803e3d5ffd5b505050506040513d601f19601f82011682018060405250810190611f179190614490565b828281518110611f2957611f29614614565b6020908102919091010152600101611e41565b50604051630eedc3c560e41b81526001600160a01b0384169063eedc3c5090611f6b9088908890600401614628565b5f604051808303815f87803b158015611f82575f80fd5b505af1158015611f94573d5f803e3d5ffd5b505050505f5b8451811015612442575f858281518110611fb657611fb6614614565b60209081029190910101516040516370a0823160e01b81523060048201529091505f906001600160a01b038316906370a0823190602401602060405180830381865afa158015612008573d5f803e3d5ffd5b505050506040513d601f19601f8201168201806040525081019061202c9190614490565b600954600654604051630b4c774160e11b81529293505f926001600160a01b0392831692631698ee829261206c92889290911690610bb89060040161450e565b602060405180830381865afa158015612087573d5f803e3d5ffd5b505050506040513d601f19601f820116820180604052508101906120ab91906144f3565b600954600654604051630b4c774160e11b81529293505f926001600160a01b0392831692631698ee82926120eb928992909116906101f49060040161450e565b602060405180830381865afa158015612106573d5f803e3d5ffd5b505050506040513d601f19601f8201168201806040525081019061212a91906144f3565b600954600554604051630b4c774160e11b81529293505f926001600160a01b0392831692631698ee829261216a928a92909116906101f49060040161450e565b602060405180830381865afa158015612185573d5f803e3d5ffd5b505050506040513d601f19601f820116820180604052508101906121a991906144f3565b600954600554604051630b4c774160e11b81529293505f926001600160a01b0392831692631698ee82926121e9928b9290911690610bb89060040161450e565b602060405180830381865afa158015612204573d5f803e3d5ffd5b505050506040513d601f19601f8201168201806040525081019061222891906144f3565b90505f6001600160a01b03851615158061224a57506001600160a01b03841615155b8061225d57506001600160a01b03821615155b8061227057506001600160a01b03831615155b905089888151811061228457612284614614565b602002602001015180156122955750805b156122a7576122a5600388613773565b505b5f8989815181106122ba576122ba614614565b6020026020010151876122cd91906144e0565b9050816123545760405163a9059cbb60e01b81526001600160a01b0389169063a9059cbb9061230290339085906004016144a7565b6020604051808303815f875af115801561231e573d5f803e3d5ffd5b505050506040513d601f19601f820116820180604052508101906123429190614471565b50505050505050505050505050612447565b89898151811061236657612366614614565b602002602001015187111561242e575f60025460015483612387919061443b565b6123919190614452565b90508d8a815181106123a5576123a5614614565b60200260200101516001600160a01b031663a9059cbb6123cd600d546001600160a01b031690565b836040518363ffffffff1660e01b81526004016123eb9291906144a7565b6020604051808303815f875af1158015612407573d5f803e3d5ffd5b505050506040513d601f19601f8201168201806040525081019061242b9190614471565b50505b505060019096019550611f9a945050505050565b505050505b61156060015f805160206149d483398151915255565b612465612aab565b6001600160a01b03811661248e57604051631e4fbdf760e01b81525f6004820152602401610c74565b610e4981613703565b61249f612b18565b5f81116124e15760405162461bcd60e51b815260206004820152601060248201526f125b9cdd59999a58da595b9d0810905360821b6044820152606401610c74565b6124ea81612c52565b5f5b6124f66003612d4c565b811015611116575f612509600383612d55565b90505f6125215f805160206149948339815191525490565b6040516370a0823160e01b81523060048201529091505f906001600160a01b038416906370a0823190602401602060405180830381865afa158015612568573d5f803e3d5ffd5b505050506040513d601f19601f8201168201806040525081019061258c9190614490565b90508015155f0361259f57505050612a06565b306001600160a01b038416036125b757505050612a06565b5f836001600160a01b031663313ce5676040518163ffffffff1660e01b8152600401602060405180830381865afa1580156125f4573d5f803e3d5ffd5b505050506040513d601f19601f8201168201806040525081019061261891906144c0565b60ff1690505f61262a84848985612d60565b6005549091506001600160a01b03908116908616036126c05760055460405163a9059cbb60e01b81526001600160a01b039091169063a9059cbb9061267590339085906004016144a7565b6020604051808303815f875af1158015612691573d5f803e3d5ffd5b505050506040513d601f19601f820116820180604052508101906126b59190614471565b505050505050612a06565b600954600554604051630b4c774160e11b81525f926001600160a01b0390811692631698ee82926126fb928b921690610bb89060040161450e565b602060405180830381865afa158015612716573d5f803e3d5ffd5b505050506040513d601f19601f8201168201806040525081019061273a91906144f3565b6008549091506127559087906001600160a01b0316846131f3565b6001600160a01b038116156128b0576005545f9061277f9088906001600160a01b0316853061334c565b90505f61278b82612e7d565b60055460405163a9059cbb60e01b81529192506001600160a01b03169063a9059cbb906127be90339085906004016144a7565b6020604051808303815f875af11580156127da573d5f803e3d5ffd5b505050506040513d601f19601f820116820180604052508101906127fe9190614471565b506005546001600160a01b031663a9059cbb612822600d546001600160a01b031690565b61282c84866144e0565b6040518363ffffffff1660e01b81526004016128499291906144a7565b6020604051808303815f875af1158015612865573d5f803e3d5ffd5b505050506040513d601f19601f820116820180604052508101906128899190614471565b505f82116128a95760405162461bcd60e51b8152600401610c7490614536565b50506129ff565b6006546005545f916128d29189916001600160a01b039081169116863361344b565b90505f6128de82612e7d565b60055460405163a9059cbb60e01b81529192506001600160a01b03169063a9059cbb9061291190339085906004016144a7565b6020604051808303815f875af115801561292d573d5f803e3d5ffd5b505050506040513d601f19601f820116820180604052508101906129519190614471565b506005546001600160a01b031663a9059cbb612975600d546001600160a01b031690565b61297f84866144e0565b6040518363ffffffff1660e01b815260040161299c9291906144a7565b6020604051808303815f875af11580156129b8573d5f803e3d5ffd5b505050506040513d601f19601f820116820180604052508101906129dc9190614471565b505f82116129fc5760405162461bcd60e51b8152600401610c7490614536565b50505b5050505050505b6001016124ec565b5f61193785858585612d60565b5f80612a325f805160206149948339815191525490565b90505f8111612a835760405162461bcd60e51b815260206004820152601b60248201527f546f74616c20737570706c792063616e6e6f74206265207a65726f00000000006044820152606401610c74565b5f612a8c612b4f565b905081612a99828661443b565b612aa39190614452565b949350505050565b33612add7f9016d09d72d40fdae2fd8ceac6b6234c7706214fd39c1cd1e609a0528c199300546001600160a01b031690565b6001600160a01b03161461145b5760405163118cdaa760e01b8152336004820152602401610c74565b612b1383838360016137d1565b505050565b5f805160206149d4833981519152805460011901612b4957604051633ee5aeb560e01b815260040160405180910390fd5b60029055565b5f805f5b612b5d6003612d4c565b811015612c05575f612b70600383612d55565b6040516370a0823160e01b81523060048201529091505f906001600160a01b038316906370a0823190602401602060405180830381865afa158015612bb7573d5f803e3d5ffd5b505050506040513d601f19601f82011682018060405250810190612bdb9190614490565b90505f612be88284612f94565b9050612bf481866146c2565b94505060019092019150612b539050565b50919050565b6001600160a01b038216612c345760405163ec442f0560e01b81525f6004820152602401610c74565b6115605f83836138b4565b60015f805160206149d483398151915255565b6005546040516370a0823160e01b81523060048201525f916001600160a01b0316906370a0823190602401602060405180830381865afa158015612c98573d5f803e3d5ffd5b505050506040513d601f19601f82011682018060405250810190612cbc9190614490565b90506103e88110158015612ce557506001612ce25f805160206149948339815191525490565b10155b1561156057662386f26fc100008210156115605760405162461bcd60e51b815260206004820152602260248201527f4d696e696d756d206275726e20616d6f756e7420697320302e30312042414c556044820152614e4960f01b6064820152608401610c74565b5f610a31825490565b5f61118e83836139ed565b5f808511612db05760405162461bcd60e51b815260206004820152601b60248201527f546f74616c20737570706c792063616e6e6f74206265207a65726f00000000006044820152606401610c74565b6012821115612e015760405162461bcd60e51b815260206004820152601e60248201527f546f6b656e20646563696d616c732073686f756c64206265203c3d20313800006044820152606401610c74565b5f806012841015612e5557612e178460126144e0565b612e2290600a6147b5565b612e2c9088614452565b9150612e398460126144e0565b612e4490600a6147b5565b612e4e9086614452565b9050612e5b565b50859050835b5f82612e67888461443b565b612e719190614452565b98975050505050505050565b5f80600254600154600254612e9291906144e0565b612e9c908561443b565b61118e9190614452565b6001600160a01b038216612ecf57604051634b637e8f60e11b81525f6004820152602401610c74565b611560825f836138b4565b5f612ee58484611ca5565b90505f1981146113d45781811015612f2957604051637dc7a0d960e11b81526001600160a01b03841660048201526024810182905260448101839052606401610c74565b6113d484848484035f6137d1565b6001600160a01b038316612f6057604051634b637e8f60e11b81525f6004820152602401610c74565b6001600160a01b038216612f895760405163ec442f0560e01b81525f6004820152602401610c74565b612b138383836138b4565b5f805f836001600160a01b031663313ce5676040518163ffffffff1660e01b8152600401602060405180830381865afa158015612fd3573d5f803e3d5ffd5b505050506040513d601f19601f82011682018060405250810190612ff791906144c0565b90505f60055f9054906101000a90046001600160a01b03166001600160a01b031663313ce5676040518163ffffffff1660e01b8152600401602060405180830381865afa15801561304a573d5f803e3d5ffd5b505050506040513d601f19601f8201168201806040525081019061306e91906144c0565b6005549091506001600160a01b03908116908616036130a0576130968664e8d4a5100061443b565b9350505050610a31565b60075460055460405163802431fb60e01b81526001600160a01b03888116600483015291821660248201525f604482015291169063802431fb90606401602060405180830381865afa925050508015613116575060408051601f3d908101601f1916820190925261311391810190614490565b60015b613125575f9350505050610a31565b92508060ff168260ff160361316157670de0b6b3a76400008361314d8864e8d4a5100061443b565b613157919061443b565b6130969190614452565b5f61316c82846147c0565b61317790600a6147d9565b905060128360ff1610156131c157670de0b6b3a7640000613198828661443b565b6131a2838a61443b565b6131ac919061443b565b6131b69190614452565b945050505050610a31565b670de0b6b3a76400006131d4828661443b565b6131de908961443b565b6131e89190614452565b979650505050505050565b604051636eb1769f60e11b81523060048201526001600160a01b03838116602483015284915f9183169063dd62ed3e90604401602060405180830381865afa158015613241573d5f803e3d5ffd5b505050506040513d601f19601f820116820180604052508101906132659190614490565b9050828110156113d25760405163095ea7b360e01b81526001600160a01b0383169063095ea7b39061329d9087905f906004016144a7565b6020604051808303815f875af11580156132b9573d5f803e3d5ffd5b505050506040513d601f19601f820116820180604052508101906132dd9190614471565b5060405163095ea7b360e01b81526001600160a01b0383169063095ea7b39061330c90879087906004016144a7565b6020604051808303815f875af1158015613328573d5f803e3d5ffd5b505050506040513d601f19601f820116820180604052508101906118d79190614471565b60408051610100810182526001600160a01b03868116825285811660208301908152610bb883850190815285831660608501908152426080860190815260a086018981525f60c0880181815260e089018281526008549a5163414bf38960e01b81528a518a166004820152975189166024890152955162ffffff166044880152935187166064870152915160848601525160a4850152905160c48401529051831660e4830152939091169063414bf38990610104016020604051808303815f875af115801561341d573d5f803e3d5ffd5b505050506040513d601f19601f820116820180604052508101906134419190614490565b9695505050505050565b6040805160a081018252606087811b6bffffffffffffffffffffffff1990811660c084015261017760eb1b60d4840181905288831b821660d785015260eb84015286821b1660ee830152825160e28184030181526101028301845282526001600160a01b03848116602084015242838501529082018590525f60808301819052600854935163c04b8d5960e01b815290939091169063c04b8d59906134f49084906004016147e7565b6020604051808303815f875af1158015613510573d5f803e3d5ffd5b505050506040513d601f19601f820116820180604052508101906131e89190614490565b61353c613a13565b6115608282613a49565b306001600160a01b037f00000000000000000000000000000000000000000000000000000000000000001614806135cc57507f00000000000000000000000000000000000000000000000000000000000000006001600160a01b03166135c05f805160206149b4833981519152546001600160a01b031690565b6001600160a01b031614155b1561145b5760405163703e46dd60e11b815260040160405180910390fd5b610e49612aab565b816001600160a01b03166352d1902d6040518163ffffffff1660e01b8152600401602060405180830381865afa92505050801561364c575060408051601f3d908101601f1916820190925261364991810190614490565b60015b61367457604051634c9c8ce360e01b81526001600160a01b0383166004820152602401610c74565b5f805160206149b483398151915281146136a457604051632a87526960e21b815260048101829052602401610c74565b612b138383613a99565b306001600160a01b037f0000000000000000000000000000000000000000000000000000000000000000161461145b5760405163703e46dd60e11b815260040160405180910390fd5b60605f61118e83613aee565b7f9016d09d72d40fdae2fd8ceac6b6234c7706214fd39c1cd1e609a0528c19930080546001600160a01b031981166001600160a01b03848116918217845560405192169182907f8be0079c531659141344cd1fd0a4f28419497f9722a3daafe3b4186f6b6457e0905f90a3505050565b5f61118e836001600160a01b038416613b47565b61378f613a13565b610e4981613b93565b6137a0613a13565b61145b613b9b565b61145b613a13565b6001600160a01b0381165f908152600183016020526040812054151561118e565b5f805160206149548339815191526001600160a01b0385166138085760405163e602df0560e01b81525f6004820152602401610c74565b6001600160a01b03841661383157604051634a1406b160e11b81525f6004820152602401610c74565b6001600160a01b038086165f908152600183016020908152604080832093881683529290522083905581156113d257836001600160a01b0316856001600160a01b03167f8c5be1e5ebec7d5bd14f71427d1e84f3dd0314c0f7b2291e5b200ac8c7c3b925856040516138a591815260200190565b60405180910390a35050505050565b5f805160206149548339815191526001600160a01b0384166138ee5781816002015f8282546138e391906146c2565b9091555061395e9050565b6001600160a01b0384165f90815260208290526040902054828110156139405760405163391434e360e21b81526001600160a01b03861660048201526024810182905260448101849052606401610c74565b6001600160a01b0385165f9081526020839052604090209083900390555b6001600160a01b03831661397c57600281018054839003905561399a565b6001600160a01b0383165f9081526020829052604090208054830190555b826001600160a01b0316846001600160a01b03167fddf252ad1be2c89b69c2b068fc378daa952ba7f163c4a11628f55a4df523b3ef846040516139df91815260200190565b60405180910390a350505050565b5f825f018281548110613a0257613a02614614565b905f5260205f200154905092915050565b5f805160206149f483398151915254600160401b900460ff1661145b57604051631afcd79f60e31b815260040160405180910390fd5b613a51613a13565b5f805160206149548339815191527f52c63247e1f47db19d5ce0460030c497f067ca4cebf71ba98eeadabe20bace03613a8a8482614882565b50600481016113d48382614882565b613aa282613ba3565b6040516001600160a01b038316907fbc7cd75a20ee27fd9adebab32041f755214dbc6bffa90cc0225b39da2e5c2d3b905f90a2805115613ae657612b138282613c06565b611560613c6f565b6060815f01805480602002602001604051908101604052809291908181526020018280548015613b3b57602002820191905f5260205f20905b815481526020019060010190808311613b27575b50505050509050919050565b5f818152600183016020526040812054613b8c57508154600181810184555f848152602080822090930184905584548482528286019093526040902091909155610a31565b505f610a31565b612465613a13565b612c3f613a13565b806001600160a01b03163b5f03613bd857604051634c9c8ce360e01b81526001600160a01b0382166004820152602401610c74565b5f805160206149b483398151915280546001600160a01b0319166001600160a01b0392909216919091179055565b60605f80846001600160a01b031684604051613c22919061493d565b5f60405180830381855af49150503d805f8114613c5a576040519150601f19603f3d011682016040523d82523d5f602084013e613c5f565b606091505b5091509150611937858383613c8e565b341561145b5760405163b398979f60e01b815260040160405180910390fd5b606082613ca357613c9e82613cea565b61118e565b8151158015613cba57506001600160a01b0384163b155b15613ce357604051639996b31560e01b81526001600160a01b0385166004820152602401610c74565b508061118e565b805115613cfa5780518082602001fd5b604051630a12f52160e11b815260040160405180910390fd5b5f60208284031215613d23575f80fd5b5035919050565b5f81518084528060208401602086015e5f602082860101526020601f19601f83011685010191505092915050565b602081525f61118e6020830184613d2a565b6001600160a01b0381168114610e49575f80fd5b5f60208284031215613d8e575f80fd5b813561118e81613d6a565b5f8060408385031215613daa575f80fd5b8235613db581613d6a565b946020939093013593505050565b5f805f60608486031215613dd5575f80fd5b8335613de081613d6a565b92506020840135613df081613d6a565b929592945050506040919091013590565b5f8060408385031215613e12575f80fd5b823591506020830135613e2481613d6a565b809150509250929050565b634e487b7160e01b5f52604160045260245ffd5b604051606081016001600160401b0381118282101715613e6557613e65613e2f565b60405290565b604051601f8201601f191681016001600160401b0381118282101715613e9357613e93613e2f565b604052919050565b5f82601f830112613eaa575f80fd5b81356001600160401b03811115613ec357613ec3613e2f565b613ed6601f8201601f1916602001613e6b565b818152846020838601011115613eea575f80fd5b816020850160208301375f918101602001919091529392505050565b5f8060408385031215613f17575f80fd5b82356001600160401b0380821115613f2d575f80fd5b613f3986838701613e9b565b93506020850135915080821115613f4e575f80fd5b50613f5b85828601613e9b565b9150509250929050565b5f8060408385031215613f76575f80fd5b8235613f8181613d6a565b915060208301356001600160401b03811115613f9b575f80fd5b613f5b85828601613e9b565b5f815180845260208085019450602084015f5b83811015613fdf5781516001600160a01b031687529582019590820190600101613fba565b509495945050505050565b602081525f61118e6020830184613fa7565b5f8083601f84011261400c575f80fd5b5081356001600160401b03811115614022575f80fd5b6020830191508360208260051b850101111561403c575f80fd5b9250929050565b5f805f805f805f60a0888a031215614059575f80fd5b87356001600160401b038082111561406f575f80fd5b61407b8b838c01613ffc565b909950975060208a0135915080821115614093575f80fd5b506140a08a828b01613ffc565b90965094505060408801356140b481613d6a565b925060608801356140c481613d6a565b809250506080880135905092959891949750929550565b5f805f805f805f60e0888a0312156140f1575f80fd5b87356140fc81613d6a565b9650602088013561410c81613d6a565b9550604088013561411c81613d6a565b9450606088013561412c81613d6a565b9350608088013561413c81613d6a565b925060a088013561414c81613d6a565b915060c08801356001600160401b0381168114614167575f80fd5b8091505092959891949750929550565b5f805f805f8060c0878903121561418c575f80fd5b863561419781613d6a565b955060208701356141a781613d6a565b945060408701356141b781613d6a565b935060608701356141c781613d6a565b925060808701356141d781613d6a565b915060a08701356141e781613d6a565b809150509295509295509295565b5f8060408385031215614206575f80fd5b823561421181613d6a565b91506020830135613e2481613d6a565b5f6001600160401b0382111561423957614239613e2f565b5060051b60200190565b5f82601f830112614252575f80fd5b8135602061426761426283614221565b613e6b565b8083825260208201915060208460051b870101935086841115614288575f80fd5b602086015b848110156142ad5780356142a081613d6a565b835291830191830161428d565b509695505050505050565b5f80604083850312156142c9575f80fd5b82356001600160401b03808211156142df575f80fd5b818501915085601f8301126142f2575f80fd5b8135602061430261426283614221565b82815260059290921b84018101918181019089841115614320575f80fd5b8286015b848110156143a35780358681111561433a575f80fd5b87016060818d03601f1901811315614350575f80fd5b614358613e43565b8683013561436581613d6a565b8152604083013587820152908201359088821115614381575f80fd5b61438f8e8884860101613e9b565b604082015285525050918301918301614324565b50965050860135925050808211156143b9575f80fd5b50613f5b85828601614243565b5f805f80608085870312156143d9575f80fd5b5050823594602084013594506040840135936060013592509050565b600181811c9082168061440957607f821691505b602082108103612c0557634e487b7160e01b5f52602260045260245ffd5b634e487b7160e01b5f52601160045260245ffd5b8082028115828204841417610a3157610a31614427565b5f8261446c57634e487b7160e01b5f52601260045260245ffd5b500490565b5f60208284031215614481575f80fd5b8151801515811461118e575f80fd5b5f602082840312156144a0575f80fd5b5051919050565b6001600160a01b03929092168252602082015260400190565b5f602082840312156144d0575f80fd5b815160ff8116811461118e575f80fd5b81810381811115610a3157610a31614427565b5f60208284031215614503575f80fd5b815161118e81613d6a565b6001600160a01b03938416815291909216602082015262ffffff909116604082015260600190565b60208082526017908201527f53776170204661696c65642c20547279204275726e2829000000000000000000604082015260600190565b60a080825281018790525f8860c08301825b8a8110156145af57823561459281613d6a565b6001600160a01b031682526020928301929091019060010161457f565b5083810360208501528781526001600160fb1b038811156145ce575f80fd5b8760051b9150818960208301370160200190506145f660408301866001600160a01b03169052565b6001600160a01b039390931660608201526080015295945050505050565b634e487b7160e01b5f52603260045260245ffd5b5f6040808301604084528086518083526060925060608601915060608160051b8701016020808a015f5b848110156146a257898403605f19018652815180516001600160a01b03168552838101518486015288015188850188905261468f88860182613d2a565b9684019694505090820190600101614652565b5050878203908801526146b58189613fa7565b9998505050505050505050565b80820180821115610a3157610a31614427565b600181815b8085111561470f57815f19048211156146f5576146f5614427565b8085161561470257918102915b93841c93908002906146da565b509250929050565b5f8261472557506001610a31565b8161473157505f610a31565b816001811461474757600281146147515761476d565b6001915050610a31565b60ff84111561476257614762614427565b50506001821b610a31565b5060208310610133831016604e8410600b8410161715614790575081810a610a31565b61479a83836146d5565b805f19048211156147ad576147ad614427565b029392505050565b5f61118e8383614717565b60ff8281168282160390811115610a3157610a31614427565b5f61118e60ff841683614717565b602081525f825160a0602084015261480260c0840182613d2a565b905060018060a01b0360208501511660408401526040840151606084015260608401516080840152608084015160a08401528091505092915050565b601f821115612b1357805f5260205f20601f840160051c810160208510156148635750805b601f840160051c820191505b818110156113d2575f815560010161486f565b81516001600160401b0381111561489b5761489b613e2f565b6148af816148a984546143f5565b8461483e565b602080601f8311600181146148e2575f84156148cb5750858301515b5f19600386901b1c1916600185901b1785556118d7565b5f85815260208120601f198616915b82811015614910578886015182559484019460019091019084016148f1565b508582101561492d57878501515f19600388901b60f8161c191681555b5050505050600190811b01905550565b5f82518060208501845e5f92019182525091905056fe52c63247e1f47db19d5ce0460030c497f067ca4cebf71ba98eeadabe20bace00c7f505b2f371ae2175ee4913f4499e1f2633a7b5936321eed1cdaeb6115181d252c63247e1f47db19d5ce0460030c497f067ca4cebf71ba98eeadabe20bace02360894a13ba1a3210667c828492db98dca3e2076cc3735a920a3ca505d382bbc9b779b17422d0df92223018b32b4d1fa46e071723d6817e2486d003becc55f00f0c57e16840df040f15088dc2f81fe391c3923bec73e23a9662efc9c229c6a00a26469706673582212207c61f8db83613f0a88bb04f03d9c5b5a0b7347435a5ece74b45e23ca976c631564736f6c63430008190033",
    "sourcePath": "c:/Users/Utente/Source/repos/baluni-contracts/contracts/BaluniV1Router.sol",
    "compiler": {
        "name": "solc",
        "version": "0.8.25+commit.b61c2a91"
    },
    "functionHashes": {
        "UPGRADE_INTERFACE_VERSION()": "ad3cb1cc",
        "_BPS_BASE()": "85377188",
        "_BPS_FEE()": "b9f5e617",
        "_MAX_BPS_FEE()": "34decfc9",
        "agentFactory()": "7df107ea",
        "allowance(address,address)": "dd62ed3e",
        "approve(address,uint256)": "095ea7b3",
        "balanceOf(address)": "70a08231",
        "burnERC20(uint256)": "1a168da2",
        "burnUSDC(uint256)": "fe0a4dd1",
        "calculateTokenShare(uint256,uint256,uint256,uint256)": "fe330a51",
        "callRebalance(address[],uint256[],address,address,uint256)": "8e773455",
        "changeAgentFactory(address)": "0a38abab",
        "changeBpsFee(uint256)": "06497cb9",
        "changeMarketOracle(address)": "35aa0efa",
        "changeRebalancer(address)": "0918281b",
        "changeTreasury(address)": "b14f2a39",
        "decimals()": "313ce567",
        "execute((address,uint256,bytes)[],address[])": "eedc3c50",
        "fetchMarketPrices()": "8d483df1",
        "getAgentAddress(address)": "27d54a92",
        "getBpsFee()": "185fcffe",
        "getTreasury()": "3b19e84a",
        "getUSDCShareValue(uint256)": "71ddcfb8",
        "getUnitPrice()": "012a33aa",
        "getVersion()": "0d8e6e2c",
        "initialize(address,address,address,address,address,address)": "cc2a9a5b",
        "initialize(string,string)": "4cd88b76",
        "initializeMarketOracle(address)": "980d24f9",
        "liquidate(address)": "2f865568",
        "liquidateAll()": "3c2066a9",
        "listAllTokens()": "5e7f8b76",
        "marketOracle()": "60961528",
        "mintWithUSDC(uint256)": "0cfc7386",
        "name()": "06fdde03",
        "owner()": "8da5cb5b",
        "proxiableUUID()": "52d1902d",
        "rebalancer()": "01d22ccd",
        "reinitialize(address,address,address,address,address,address,uint64)": "b0d60ba0",
        "renounceOwnership()": "715018a6",
        "requiredUSDCtoMint(uint256)": "aa95d893",
        "symbol()": "95d89b41",
        "tokenValuation(uint256,address)": "2bdd955a",
        "totalSupply()": "18160ddd",
        "totalValuation()": "295b9300",
        "transfer(address,uint256)": "a9059cbb",
        "transferFrom(address,address,uint256)": "23b872dd",
        "transferOwnership(address)": "f2fde38b",
        "treasury()": "61d027b3",
        "upgradeToAndCall(address,bytes)": "4f1ef286"
    },
    "gasEstimates": {
        "creation": {
            "codeDepositCost": "3803400",
            "executionCost": "infinite",
            "totalCost": "infinite"
        },
        "external": {
            "UPGRADE_INTERFACE_VERSION()": "infinite",
            "_BPS_BASE()": "2350",
            "_BPS_FEE()": "2350",
            "_MAX_BPS_FEE()": "2350",
            "agentFactory()": "2381",
            "allowance(address,address)": "infinite",
            "approve(address,uint256)": "infinite",
            "balanceOf(address)": "infinite",
            "burnERC20(uint256)": "infinite",
            "burnUSDC(uint256)": "infinite",
            "calculateTokenShare(uint256,uint256,uint256,uint256)": "783",
            "callRebalance(address[],uint256[],address,address,uint256)": "infinite",
            "changeAgentFactory(address)": "26806",
            "changeBpsFee(uint256)": "25675",
            "changeMarketOracle(address)": "26850",
            "changeRebalancer(address)": "26895",
            "changeTreasury(address)": "26915",
            "decimals()": "332",
            "execute((address,uint256,bytes)[],address[])": "infinite",
            "fetchMarketPrices()": "infinite",
            "getAgentAddress(address)": "infinite",
            "getBpsFee()": "2414",
            "getTreasury()": "2442",
            "getUSDCShareValue(uint256)": "infinite",
            "getUnitPrice()": "infinite",
            "getVersion()": "infinite",
            "initialize(address,address,address,address,address,address)": "infinite",
            "initialize(string,string)": "infinite",
            "initializeMarketOracle(address)": "infinite",
            "liquidate(address)": "infinite",
            "liquidateAll()": "infinite",
            "listAllTokens()": "infinite",
            "marketOracle()": "2404",
            "mintWithUSDC(uint256)": "infinite",
            "name()": "infinite",
            "owner()": "2441",
            "proxiableUUID()": "infinite",
            "rebalancer()": "2405",
            "reinitialize(address,address,address,address,address,address,uint64)": "infinite",
            "renounceOwnership()": "infinite",
            "requiredUSDCtoMint(uint256)": "infinite",
            "symbol()": "infinite",
            "tokenValuation(uint256,address)": "infinite",
            "totalSupply()": "infinite",
            "totalValuation()": "infinite",
            "transfer(address,uint256)": "infinite",
            "transferFrom(address,address,uint256)": "infinite",
            "transferOwnership(address)": "infinite",
            "treasury()": "2426",
            "upgradeToAndCall(address,bytes)": "infinite"
        },
        "internal": {
            "_authorizeUpgrade(address)": "infinite",
            "_calculateBaluniToUSDC(uint256)": "infinite",
            "_calculateERC20Share(uint256,uint256,uint256,uint256)": "infinite",
            "_calculateERC20Valuation(uint256,address)": "infinite",
            "_calculateNetAmountAfterFee(uint256)": "infinite",
            "_checkUSDC(uint256)": "infinite",
            "_multiHopSwap(address,address,address,uint256,address)": "infinite",
            "_resize(uint256[] memory,uint256)": "infinite",
            "_singleSwap(address,address,uint256,address)": "infinite",
            "_totalValuation()": "infinite",
            "secureApproval(address,address,uint256)": "infinite"
        }
    }
}