{
    "contractName": "BaluniV1PoolFactory",
    "abi": [
        {
            "inputs": [
                {
                    "internalType": "address",
                    "name": "target",
                    "type": "address"
                }
            ],
            "name": "AddressEmptyCode",
            "type": "error"
        },
        {
            "inputs": [
                {
                    "internalType": "address",
                    "name": "implementation",
                    "type": "address"
                }
            ],
            "name": "ERC1967InvalidImplementation",
            "type": "error"
        },
        {
            "inputs": [],
            "name": "ERC1967NonPayable",
            "type": "error"
        },
        {
            "inputs": [],
            "name": "FailedInnerCall",
            "type": "error"
        },
        {
            "inputs": [],
            "name": "InvalidInitialization",
            "type": "error"
        },
        {
            "inputs": [],
            "name": "NotInitializing",
            "type": "error"
        },
        {
            "inputs": [
                {
                    "internalType": "address",
                    "name": "owner",
                    "type": "address"
                }
            ],
            "name": "OwnableInvalidOwner",
            "type": "error"
        },
        {
            "inputs": [
                {
                    "internalType": "address",
                    "name": "account",
                    "type": "address"
                }
            ],
            "name": "OwnableUnauthorizedAccount",
            "type": "error"
        },
        {
            "inputs": [],
            "name": "UUPSUnauthorizedCallContext",
            "type": "error"
        },
        {
            "inputs": [
                {
                    "internalType": "bytes32",
                    "name": "slot",
                    "type": "bytes32"
                }
            ],
            "name": "UUPSUnsupportedProxiableUUID",
            "type": "error"
        },
        {
            "anonymous": false,
            "inputs": [
                {
                    "indexed": false,
                    "internalType": "uint64",
                    "name": "version",
                    "type": "uint64"
                }
            ],
            "name": "Initialized",
            "type": "event"
        },
        {
            "anonymous": false,
            "inputs": [
                {
                    "indexed": true,
                    "internalType": "address",
                    "name": "previousOwner",
                    "type": "address"
                },
                {
                    "indexed": true,
                    "internalType": "address",
                    "name": "newOwner",
                    "type": "address"
                }
            ],
            "name": "OwnershipTransferred",
            "type": "event"
        },
        {
            "anonymous": false,
            "inputs": [
                {
                    "indexed": true,
                    "internalType": "address",
                    "name": "pool",
                    "type": "address"
                },
                {
                    "indexed": false,
                    "internalType": "address[]",
                    "name": "assets",
                    "type": "address[]"
                }
            ],
            "name": "PoolCreated",
            "type": "event"
        },
        {
            "anonymous": false,
            "inputs": [
                {
                    "indexed": true,
                    "internalType": "address",
                    "name": "implementation",
                    "type": "address"
                }
            ],
            "name": "Upgraded",
            "type": "event"
        },
        {
            "inputs": [],
            "name": "UPGRADE_INTERFACE_VERSION",
            "outputs": [
                {
                    "internalType": "string",
                    "name": "",
                    "type": "string"
                }
            ],
            "stateMutability": "view",
            "type": "function"
        },
        {
            "inputs": [
                {
                    "internalType": "uint256",
                    "name": "",
                    "type": "uint256"
                }
            ],
            "name": "allPools",
            "outputs": [
                {
                    "internalType": "address",
                    "name": "",
                    "type": "address"
                }
            ],
            "stateMutability": "view",
            "type": "function"
        },
        {
            "inputs": [
                {
                    "internalType": "address[]",
                    "name": "assets",
                    "type": "address[]"
                },
                {
                    "internalType": "uint256[]",
                    "name": "weights",
                    "type": "uint256[]"
                },
                {
                    "internalType": "uint256",
                    "name": "trigger",
                    "type": "uint256"
                }
            ],
            "name": "createPool",
            "outputs": [
                {
                    "internalType": "address",
                    "name": "",
                    "type": "address"
                }
            ],
            "stateMutability": "nonpayable",
            "type": "function"
        },
        {
            "inputs": [],
            "name": "getAllPools",
            "outputs": [
                {
                    "internalType": "address[]",
                    "name": "",
                    "type": "address[]"
                }
            ],
            "stateMutability": "view",
            "type": "function"
        },
        {
            "inputs": [
                {
                    "internalType": "address",
                    "name": "",
                    "type": "address"
                },
                {
                    "internalType": "address",
                    "name": "",
                    "type": "address"
                }
            ],
            "name": "getPool",
            "outputs": [
                {
                    "internalType": "address",
                    "name": "",
                    "type": "address"
                }
            ],
            "stateMutability": "view",
            "type": "function"
        },
        {
            "inputs": [
                {
                    "internalType": "address",
                    "name": "poolAddress",
                    "type": "address"
                }
            ],
            "name": "getPoolAssets",
            "outputs": [
                {
                    "internalType": "address[]",
                    "name": "",
                    "type": "address[]"
                }
            ],
            "stateMutability": "view",
            "type": "function"
        },
        {
            "inputs": [
                {
                    "internalType": "address",
                    "name": "asset1",
                    "type": "address"
                },
                {
                    "internalType": "address",
                    "name": "asset2",
                    "type": "address"
                }
            ],
            "name": "getPoolByAssets",
            "outputs": [
                {
                    "internalType": "address",
                    "name": "",
                    "type": "address"
                }
            ],
            "stateMutability": "view",
            "type": "function"
        },
        {
            "inputs": [
                {
                    "internalType": "address",
                    "name": "token",
                    "type": "address"
                }
            ],
            "name": "getPoolsByAsset",
            "outputs": [
                {
                    "internalType": "address[]",
                    "name": "",
                    "type": "address[]"
                }
            ],
            "stateMutability": "view",
            "type": "function"
        },
        {
            "inputs": [],
            "name": "getPoolsCount",
            "outputs": [
                {
                    "internalType": "uint256",
                    "name": "",
                    "type": "uint256"
                }
            ],
            "stateMutability": "view",
            "type": "function"
        },
        {
            "inputs": [
                {
                    "internalType": "address",
                    "name": "_register",
                    "type": "address"
                }
            ],
            "name": "initialize",
            "outputs": [],
            "stateMutability": "nonpayable",
            "type": "function"
        },
        {
            "inputs": [],
            "name": "owner",
            "outputs": [
                {
                    "internalType": "address",
                    "name": "",
                    "type": "address"
                }
            ],
            "stateMutability": "view",
            "type": "function"
        },
        {
            "inputs": [
                {
                    "internalType": "address",
                    "name": "_pool",
                    "type": "address"
                }
            ],
            "name": "poolExist",
            "outputs": [
                {
                    "internalType": "bool",
                    "name": "",
                    "type": "bool"
                }
            ],
            "stateMutability": "view",
            "type": "function"
        },
        {
            "inputs": [],
            "name": "proxiableUUID",
            "outputs": [
                {
                    "internalType": "bytes32",
                    "name": "",
                    "type": "bytes32"
                }
            ],
            "stateMutability": "view",
            "type": "function"
        },
        {
            "inputs": [],
            "name": "registry",
            "outputs": [
                {
                    "internalType": "contract IBaluniV1Registry",
                    "name": "",
                    "type": "address"
                }
            ],
            "stateMutability": "view",
            "type": "function"
        },
        {
            "inputs": [
                {
                    "internalType": "address",
                    "name": "_register",
                    "type": "address"
                },
                {
                    "internalType": "uint64",
                    "name": "_version",
                    "type": "uint64"
                }
            ],
            "name": "reinitialize",
            "outputs": [],
            "stateMutability": "nonpayable",
            "type": "function"
        },
        {
            "inputs": [],
            "name": "renounceOwnership",
            "outputs": [],
            "stateMutability": "nonpayable",
            "type": "function"
        },
        {
            "inputs": [
                {
                    "internalType": "address",
                    "name": "newOwner",
                    "type": "address"
                }
            ],
            "name": "transferOwnership",
            "outputs": [],
            "stateMutability": "nonpayable",
            "type": "function"
        },
        {
            "inputs": [
                {
                    "internalType": "address",
                    "name": "newImplementation",
                    "type": "address"
                },
                {
                    "internalType": "bytes",
                    "name": "data",
                    "type": "bytes"
                }
            ],
            "name": "upgradeToAndCall",
            "outputs": [],
            "stateMutability": "payable",
            "type": "function"
        }
    ],
    "bytecode": "60a0604052306080523480156012575f80fd5b506080516151186100395f395f8181610dde01528181610e070152610f4b01526151185ff3fe608060405260043610610105575f3560e01c806389345efb11610092578063b4340e6a11610062578063b4340e6a1461031f578063b4ac68601461033e578063c4d66de814610351578063d88ff1f414610370578063f2fde38b14610384575f80fd5b806389345efb146102585780638da5cb5b146102875780638f2248bc146102c3578063ad3cb1cc146102e2575f80fd5b80634f1ef286116100d85780634f1ef286146101af57806352d1902d146101c4578063531aa03e146101e6578063715018a6146102255780637b10399914610239575f80fd5b80632d5e94a7146101095780633069873b1461014557806341d1de97146101645780634276b97b14610183575b5f80fd5b348015610114575f80fd5b506101286101233660046112ad565b6103a3565b6040516001600160a01b0390911681526020015b60405180910390f35b348015610150575f80fd5b5061012861015f3660046113b8565b6103d1565b34801561016f575f80fd5b5061012861017e36600461147c565b6107b7565b34801561018e575f80fd5b506101a261019d366004611493565b6107de565b60405161013c91906114f1565b6101c26101bd366004611503565b610846565b005b3480156101cf575f80fd5b506101d8610865565b60405190815260200161013c565b3480156101f1575f80fd5b506101286102003660046112ad565b600260209081525f92835260408084209091529082529020546001600160a01b031681565b348015610230575f80fd5b506101c2610880565b348015610244575f80fd5b50600154610128906001600160a01b031681565b348015610263575f80fd5b50610277610272366004611493565b610893565b604051901515815260200161013c565b348015610292575f80fd5b507f9016d09d72d40fdae2fd8ceac6b6234c7706214fd39c1cd1e609a0528c199300546001600160a01b0316610128565b3480156102ce575f80fd5b506101c26102dd3660046115a5565b6108ed565b3480156102ed575f80fd5b50610312604051806040016040528060058152602001640352e302e360dc1b81525081565b60405161013c91906115dd565b34801561032a575f80fd5b506101a2610339366004611493565b6109d8565b348015610349575f80fd5b505f546101d8565b34801561035c575f80fd5b506101c261036b366004611493565b610c06565b34801561037b575f80fd5b506101a2610d37565b34801561038f575f80fd5b506101c261039e366004611493565b610d96565b6001600160a01b038083165f9081526002602090815260408083208585168452909152902054165b92915050565b5f60018451116104285760405162461bcd60e51b815260206004820181905260248201527f4174206c656173742074776f206173736574732061726520726571756972656460448201526064015b60405180910390fd5b82518451146104845760405162461bcd60e51b815260206004820152602260248201527f41737365747320616e642077656967687473206c656e677468206d69736d61746044820152610c6d60f31b606482015260840161041f565b5f5b845181101561058f575f61049b826001611626565b90505b8551811015610586575f6001600160a01b031660025f8885815181106104c6576104c6611639565b60200260200101516001600160a01b03166001600160a01b031681526020019081526020015f205f88848151811061050057610500611639565b6020908102919091018101516001600160a01b039081168352908201929092526040015f2054161461057e5760405162461bcd60e51b815260206004820152602160248201527f506f6f6c20616c72656164792065786973747320666f722074686973207061696044820152603960f91b606482015260840161041f565b60010161049e565b50600101610486565b505f8484846040516105a09061128c565b6105ac9392919061164d565b604051809103905ff0801580156105c5573d5f803e3d5ffd5b505f80546001810182558180527f290decd9548b62a8d60345a988386fc84ba6bc95484008f6362f93160ef3e5630180546001600160a01b0319166001600160a01b03841617905590915081905b865181101561076a575f610628826001611626565b90505b8751811015610761578260025f8a858151811061064a5761064a611639565b60200260200101516001600160a01b03166001600160a01b031681526020019081526020015f205f8a848151811061068457610684611639565b60200260200101516001600160a01b03166001600160a01b031681526020019081526020015f205f6101000a8154816001600160a01b0302191690836001600160a01b031602179055508260025f8a84815181106106e4576106e4611639565b60200260200101516001600160a01b03166001600160a01b031681526020019081526020015f205f8a858151811061071e5761071e611639565b6020908102919091018101516001600160a01b039081168352908201929092526040015f2080546001600160a01b0319169290911691909117905560010161062b565b50600101610613565b50806001600160a01b03167f0a4af51f99a910b453b81f2f9f5673acd70bf8895729e0a6de8e5e0908d89f2b876040516107a491906114f1565b60405180910390a29150505b9392505050565b5f81815481106107c5575f80fd5b5f918252602090912001546001600160a01b0316905081565b60605f829050806001600160a01b03166367e4ac2c6040518163ffffffff1660e01b81526004015f60405180830381865afa15801561081f573d5f803e3d5ffd5b505050506040513d5f823e601f3d908101601f191682016040526107b091908101906116ab565b61084e610dd3565b61085782610e77565b6108618282610e7f565b5050565b5f61086e610f40565b505f805160206150c383398151915290565b610888610f89565b6108915f610fe4565b565b5f805b5f548110156108e557826001600160a01b03165f82815481106108bb576108bb611639565b5f918252602090912001546001600160a01b0316036108dd5750600192915050565b600101610896565b505f92915050565b7ff0c57e16840df040f15088dc2f81fe391c3923bec73e23a9662efc9c229c6a008054829190600160401b900460ff16806109365750805467ffffffffffffffff808416911610155b156109545760405163f92ee8a960e01b815260040160405180910390fd5b8054600160401b67ffffffffffffffff841668ffffffffffffffffff199092168217178255600180546001600160a01b0319166001600160a01b038716179055815460ff60401b191682556040519081527fc7f505b2f371ae2175ee4913f4499e1f2633a7b5936321eed1cdaeb6115181d29060200160405180910390a150505050565b5f80546060919067ffffffffffffffff8111156109f7576109f76112e4565b604051908082528060200260200182016040528015610a20578160200160208202803683370190505b5090505f805b5f54811015610b60575f808281548110610a4257610a42611639565b905f5260205f20015f9054906101000a90046001600160a01b031690505f816001600160a01b03166367e4ac2c6040518163ffffffff1660e01b81526004015f60405180830381865afa158015610a9b573d5f803e3d5ffd5b505050506040513d5f823e601f3d908101601f19168201604052610ac291908101906116ab565b90505f5b8151811015610b4657876001600160a01b0316828281518110610aeb57610aeb611639565b60200260200101516001600160a01b031603610b3e5782868681518110610b1457610b14611639565b6001600160a01b039092166020928302919091019091015284610b3681611740565b955050610b46565b600101610ac6565b5084518403610b56575050610b60565b5050600101610a26565b505f8167ffffffffffffffff811115610b7b57610b7b6112e4565b604051908082528060200260200182016040528015610ba4578160200160208202803683370190505b5090505f5b82811015610bfd57838181518110610bc357610bc3611639565b6020026020010151828281518110610bdd57610bdd611639565b6001600160a01b0390921660209283029190910190910152600101610ba9565b50949350505050565b7ff0c57e16840df040f15088dc2f81fe391c3923bec73e23a9662efc9c229c6a008054600160401b810460ff16159067ffffffffffffffff165f81158015610c4b5750825b90505f8267ffffffffffffffff166001148015610c675750303b155b905081158015610c75575080155b15610c935760405163f92ee8a960e01b815260040160405180910390fd5b845467ffffffffffffffff191660011785558315610cbd57845460ff60401b1916600160401b1785555b610cc5611054565b610cce3361105c565b600180546001600160a01b0319166001600160a01b0388161790558315610d2f57845460ff60401b19168555604051600181527fc7f505b2f371ae2175ee4913f4499e1f2633a7b5936321eed1cdaeb6115181d29060200160405180910390a15b505050505050565b60605f805480602002602001604051908101604052809291908181526020018280548015610d8c57602002820191905f5260205f20905b81546001600160a01b03168152600190910190602001808311610d6e575b5050505050905090565b610d9e610f89565b6001600160a01b038116610dc757604051631e4fbdf760e01b81525f600482015260240161041f565b610dd081610fe4565b50565b306001600160a01b037f0000000000000000000000000000000000000000000000000000000000000000161480610e5957507f00000000000000000000000000000000000000000000000000000000000000006001600160a01b0316610e4d5f805160206150c3833981519152546001600160a01b031690565b6001600160a01b031614155b156108915760405163703e46dd60e11b815260040160405180910390fd5b610dd0610f89565b816001600160a01b03166352d1902d6040518163ffffffff1660e01b8152600401602060405180830381865afa925050508015610ed9575060408051601f3d908101601f19168201909252610ed691810190611758565b60015b610f0157604051634c9c8ce360e01b81526001600160a01b038316600482015260240161041f565b5f805160206150c38339815191528114610f3157604051632a87526960e21b81526004810182905260240161041f565b610f3b838361106d565b505050565b306001600160a01b037f000000000000000000000000000000000000000000000000000000000000000016146108915760405163703e46dd60e11b815260040160405180910390fd5b33610fbb7f9016d09d72d40fdae2fd8ceac6b6234c7706214fd39c1cd1e609a0528c199300546001600160a01b031690565b6001600160a01b0316146108915760405163118cdaa760e01b815233600482015260240161041f565b7f9016d09d72d40fdae2fd8ceac6b6234c7706214fd39c1cd1e609a0528c19930080546001600160a01b031981166001600160a01b03848116918217845560405192169182907f8be0079c531659141344cd1fd0a4f28419497f9722a3daafe3b4186f6b6457e0905f90a3505050565b6108916110c2565b6110646110c2565b610dd08161110b565b61107682611113565b6040516001600160a01b038316907fbc7cd75a20ee27fd9adebab32041f755214dbc6bffa90cc0225b39da2e5c2d3b905f90a28051156110ba57610f3b8282611176565b6108616111e8565b7ff0c57e16840df040f15088dc2f81fe391c3923bec73e23a9662efc9c229c6a0054600160401b900460ff1661089157604051631afcd79f60e31b815260040160405180910390fd5b610d9e6110c2565b806001600160a01b03163b5f0361114857604051634c9c8ce360e01b81526001600160a01b038216600482015260240161041f565b5f805160206150c383398151915280546001600160a01b0319166001600160a01b0392909216919091179055565b60605f80846001600160a01b031684604051611192919061176f565b5f60405180830381855af49150503d805f81146111ca576040519150601f19603f3d011682016040523d82523d5f602084013e6111cf565b606091505b50915091506111df858383611207565b95945050505050565b34156108915760405163b398979f60e01b815260040160405180910390fd5b60608261121c5761121782611263565b6107b0565b815115801561123357506001600160a01b0384163b155b1561125c57604051639996b31560e01b81526001600160a01b038516600482015260240161041f565b50806107b0565b8051156112735780518082602001fd5b604051630a12f52160e11b815260040160405180910390fd5b61393d8061178683390190565b6001600160a01b0381168114610dd0575f80fd5b5f80604083850312156112be575f80fd5b82356112c981611299565b915060208301356112d981611299565b809150509250929050565b634e487b7160e01b5f52604160045260245ffd5b604051601f8201601f1916810167ffffffffffffffff81118282101715611321576113216112e4565b604052919050565b5f67ffffffffffffffff821115611342576113426112e4565b5060051b60200190565b5f82601f83011261135b575f80fd5b8135602061137061136b83611329565b6112f8565b8083825260208201915060208460051b870101935086841115611391575f80fd5b602086015b848110156113ad5780358352918301918301611396565b509695505050505050565b5f805f606084860312156113ca575f80fd5b833567ffffffffffffffff808211156113e1575f80fd5b818601915086601f8301126113f4575f80fd5b8135602061140461136b83611329565b82815260059290921b8401810191818101908a841115611422575f80fd5b948201945b8386101561144957853561143a81611299565b82529482019490820190611427565b9750508701359250508082111561145e575f80fd5b5061146b8682870161134c565b925050604084013590509250925092565b5f6020828403121561148c575f80fd5b5035919050565b5f602082840312156114a3575f80fd5b81356107b081611299565b5f815180845260208085019450602084015f5b838110156114e65781516001600160a01b0316875295820195908201906001016114c1565b509495945050505050565b602081525f6107b060208301846114ae565b5f8060408385031215611514575f80fd5b823561151f81611299565b915060208381013567ffffffffffffffff8082111561153c575f80fd5b818601915086601f83011261154f575f80fd5b813581811115611561576115616112e4565b611573601f8201601f191685016112f8565b91508082528784828501011115611588575f80fd5b80848401858401375f848284010152508093505050509250929050565b5f80604083850312156115b6575f80fd5b82356115c181611299565b9150602083013567ffffffffffffffff811681146112d9575f80fd5b602081525f82518060208401528060208501604085015e5f604082850101526040601f19601f83011684010191505092915050565b634e487b7160e01b5f52601160045260245ffd5b808201808211156103cb576103cb611612565b634e487b7160e01b5f52603260045260245ffd5b606081525f61165f60608301866114ae565b8281036020848101919091528551808352868201928201905f5b8181101561169557845183529383019391830191600101611679565b5050809350505050826040830152949350505050565b5f60208083850312156116bc575f80fd5b825167ffffffffffffffff8111156116d2575f80fd5b8301601f810185136116e2575f80fd5b80516116f061136b82611329565b81815260059190911b8201830190838101908783111561170e575f80fd5b928401925b8284101561173557835161172681611299565b82529284019290840190611713565b979650505050505050565b5f6001820161175157611751611612565b5060010190565b5f60208284031215611768575f80fd5b5051919050565b5f82518060208501845e5f92019182525091905056fe608060405234801561000f575f80fd5b5060405161393d38038061393d83398101604081905261002e91610609565b60405180604001604052806009815260200168042616c756e69204c560bc1b81525060405180604001604052806009815260200168042414c554e492d4c560bc1b81525081600390816100819190610751565b50600461008e8282610751565b5050600160055550670de0b6b3a76400006008556100ac83836101ca565b6007819055600a5460408051631bf01e9b60e01b815290516001600160a01b0390921691631bf01e9b916004808201926020929091908290030181865afa1580156100f9573d5f803e3d5ffd5b505050506040513d601f19601f8201168201806040525081019061011d9190610810565b600980546001600160a01b0319166001600160a01b03929092169190911790555f805b83518110156101785783818151811061015b5761015b610830565b60200260200101518261016e9190610844565b9150600101610140565b5080612710146101c15760405162461bcd60e51b815260206004820152600f60248201526e496e76616c6964207765696768747360881b60448201526064015b60405180910390fd5b5050505061089f565b600a54604080516319fe93ad60e31b815290515f926001600160a01b03169163cff49d689160048083019260209291908290030181865afa158015610211573d5f803e3d5ffd5b505050506040513d601f19601f820116820180604052508101906102359190610810565b905081518351146102935760405162461bcd60e51b815260206004820152602260248201527f41737365747320616e642077656967687473206c656e677468206d69736d61746044820152610c6d60f31b60648201526084016101b8565b5f5b8351811015610516575f6001600160a01b03168482815181106102ba576102ba610830565b60200260200101516001600160a01b0316036103185760405162461bcd60e51b815260206004820152601560248201527f496e76616c69642061737365742061646472657373000000000000000000000060448201526064016101b8565b5f83828151811061032b5761032b610830565b6020026020010151116103715760405162461bcd60e51b815260206004820152600e60248201526d125b9d985b1a59081dd95a59da1d60921b60448201526064016101b8565b6006604051806040016040528086848151811061039057610390610830565b60200260200101516001600160a01b031681526020018584815181106103b8576103b8610830565b6020908102919091018101519091528254600180820185555f948552828520845160029093020180546001600160a01b0319166001600160a01b039093169290921782559290910151910155845185908390811061041857610418610830565b6020908102919091010151604051636eb1769f60e11b81523060048201526001600160a01b0385811660248301529192509082169063dd62ed3e90604401602060405180830381865afa158015610471573d5f803e3d5ffd5b505050506040513d601f19601f820116820180604052508101906104959190610869565b5f0361050d5760405163095ea7b360e01b81526001600160a01b0384811660048301525f19602483015282169063095ea7b3906044016020604051808303815f875af11580156104e7573d5f803e3d5ffd5b505050506040513d601f19601f8201168201806040525081019061050b9190610880565b505b50600101610295565b50505050565b634e487b7160e01b5f52604160045260245ffd5b604051601f8201601f191681016001600160401b03811182821017156105585761055861051c565b604052919050565b5f6001600160401b038211156105785761057861051c565b5060051b60200190565b80516001600160a01b0381168114610598575f80fd5b919050565b5f82601f8301126105ac575f80fd5b815160206105c16105bc83610560565b610530565b8083825260208201915060208460051b8701019350868411156105e2575f80fd5b602086015b848110156105fe57805183529183019183016105e7565b509695505050505050565b5f805f6060848603121561061b575f80fd5b83516001600160401b0380821115610631575f80fd5b818601915086601f830112610644575f80fd5b815160206106546105bc83610560565b82815260059290921b8401810191818101908a841115610672575f80fd5b948201945b838610156106975761068886610582565b82529482019490820190610677565b918901519197509093505050808211156106af575f80fd5b506106bc8682870161059d565b925050604084015190509250925092565b600181811c908216806106e157607f821691505b6020821081036106ff57634e487b7160e01b5f52602260045260245ffd5b50919050565b601f82111561074c57805f5260205f20601f840160051c8101602085101561072a5750805b601f840160051c820191505b81811015610749575f8155600101610736565b50505b505050565b81516001600160401b0381111561076a5761076a61051c565b61077e8161077884546106cd565b84610705565b602080601f8311600181146107b1575f841561079a5750858301515b5f19600386901b1c1916600185901b178555610808565b5f85815260208120601f198616915b828110156107df578886015182559484019460019091019084016107c0565b50858210156107fc57878501515f19600388901b60f8161c191681555b505060018460011b0185555b505050505050565b5f60208284031215610820575f80fd5b61082982610582565b9392505050565b634e487b7160e01b5f52603260045260245ffd5b8082018082111561086357634e487b7160e01b5f52601160045260245ffd5b92915050565b5f60208284031215610879575f80fd5b5051919050565b5f60208284031215610890575f80fd5b81518015158114610829575f80fd5b613091806108ac5f395ff3fe608060405234801561000f575f80fd5b50600436106101d1575f3560e01c80637fec8d38116100fe578063c2ee3a081161009e578063dd62ed3e1161006e578063dd62ed3e146103ef578063de836ebd14610427578063e73faa2d1461043a578063f47b45e814610442575f80fd5b8063c2ee3a081461038e578063cdf456e114610397578063cf8fa764146103aa578063d14ef46d146103bd575f80fd5b80638a77c8dc116100d95780638a77c8dc1461035857806395d89b4114610360578063a9059cbb14610368578063b2b55d701461037b575f80fd5b80637fec8d381461032657806389ab35321461032f57806389afcb4414610345575f80fd5b806323b872dd1161017457806367e4ac2c1161014457806367e4ac2c146102ab5780636e81221c146102c057806370a08231146102d35780637b103999146102fb575f80fd5b806323b872dd14610260578063313ce5671461027357806336bf6e39146102825780634aa0665214610298575f80fd5b8063095ea7b3116101af578063095ea7b31461021b57806318160ddd1461023e5780631a6865021461025057806322acb86714610258575f80fd5b806306fdde03146101d55780630723c999146101f35780630902f1ac14610213575b5f80fd5b6101dd610458565b6040516101ea9190612a74565b60405180910390f35b610206610201366004612ac0565b6104e8565b6040516101ea9190612b15565b6102066107b5565b61022e610229366004612b27565b61089d565b60405190151581526020016101ea565b6002545b6040519081526020016101ea565b6102426108b6565b6102066108c7565b61022e61026e366004612b51565b610966565b604051601281526020016101ea565b61028a610989565b6040516101ea929190612b8f565b6102426102a6366004612b51565b61099d565b6102b3610a98565b6040516101ea9190612bdf565b6102426102ce366004612bf1565b610b52565b6102426102e1366004612ac0565b6001600160a01b03165f9081526020819052604090205490565b600a5461030e906001600160a01b031681565b6040516001600160a01b0390911681526020016101ea565b61024260075481565b610337610dcf565b6040516101ea929190612c41565b610206610353366004612ac0565b610f88565b61022e6114ec565b6101dd611566565b61022e610376366004612b27565b611575565b610242610389366004612ac0565b611582565b61024260085481565b60095461030e906001600160a01b031681565b6102426103b8366004612c9a565b611671565b6103d06103cb366004612c9a565b6116e6565b604080516001600160a01b0390931683526020830191909152016101ea565b6102426103fd366004612cb1565b6001600160a01b039182165f90815260016020908152604080832093909416825291909152205490565b610242610435366004612d4e565b61171c565b610242611a61565b61044a611aa9565b6040516101ea929190612df3565b60606003805461046790612e17565b80601f016020809104026020016040519081016040528092919081815260200182805461049390612e17565b80156104de5780601f106104b5576101008083540402835291602001916104de565b820191905f5260205f20905b8154815290600101906020018083116104c157829003601f168201915b5050505050905090565b60605f600a5f9054906101000a90046001600160a01b03166001600160a01b0316631acb61416040518163ffffffff1660e01b8152600401602060405180830381865afa15801561053b573d5f803e3d5ffd5b505050506040513d601f19601f8201168201806040525081019061055f9190612e49565b9050336001600160a01b038216146105925760405162461bcd60e51b815260040161058990612e64565b60405180910390fd5b61059a6114ec565b6105dd5760405162461bcd60e51b8152602060048201526014602482015273149958985b185b98d9481b9bdd081b995959195960621b6044820152606401610589565b5f806105e7611ba7565b915091505f6105f68383611cd6565b90505f61060282611dd7565b90505f60095f9054906101000a90046001600160a01b03166001600160a01b031663313ce5676040518163ffffffff1660e01b8152600401602060405180830381865afa158015610655573d5f803e3d5ffd5b505050506040513d601f19601f820116820180604052508101906106799190612e8c565b60ff16905061069081670de0b6b3a7640000612ec0565b61069a9083612ed3565b6006549092505f906001600160401b038111156106b9576106b9612ce8565b6040519080825280602002602001820160405280156106e2578160200160208202803683370190505b5090505f5b845181101561075b575f85828151811061070357610703612eea565b60200260200101511115610753576107348186838151811061072757610727612eea565b6020026020010151611e13565b82828151811061074657610746612eea565b6020026020010181815250505b6001016106e7565b506107668984611ee3565b336001600160a01b03167fa95ad530009c6f929555e70a66aadbeae7231e45756c5b028ca77fbaa376e73e8560405161079f9190612b15565b60405180910390a2965050505050505b50919050565b60605f600a5f9054906101000a90046001600160a01b03166001600160a01b0316631acb61416040518163ffffffff1660e01b8152600401602060405180830381865afa158015610808573d5f803e3d5ffd5b505050506040513d601f19601f8201168201806040525081019061082c9190612e49565b604051630fa6707960e21b81523060048201529091506001600160a01b03821690633e99c1e4906024015f60405180830381865afa158015610870573d5f803e3d5ffd5b505050506040513d5f823e601f3d908101601f191682016040526108979190810190612efe565b91505090565b5f336108aa818585611f1b565b60019150505b92915050565b5f806108c0611ba7565b5092915050565b6006546060905f906001600160401b038111156108e6576108e6612ce8565b60405190808252806020026020018201604052801561090f578160200160208202803683370190505b5090505f5b6006548110156107af576006818154811061093157610931612eea565b905f5260205f2090600202016001015482828151811061095357610953612eea565b6020908102919091010152600101610914565b5f33610973858285611f2d565b61097e858585611fa8565b506001949350505050565b5f6060610994611ba7565b90939092509050565b5f80600a5f9054906101000a90046001600160a01b03166001600160a01b031663cff49d686040518163ffffffff1660e01b8152600401602060405180830381865afa1580156109ef573d5f803e3d5ffd5b505050506040513d601f19601f82011682018060405250810190610a139190612e49565b60405163248391ff60e01b81526001600160a01b0387811660048301528681166024830152604482018690529192509082169063248391ff906064015b602060405180830381865afa158015610a6b573d5f803e3d5ffd5b505050506040513d601f19601f82011682018060405250810190610a8f9190612f89565b95945050505050565b6006546060905f906001600160401b03811115610ab757610ab7612ce8565b604051908082528060200260200182016040528015610ae0578160200160208202803683370190505b5090505f5b6006548110156107af5760068181548110610b0257610b02612eea565b5f91825260209091206002909102015482516001600160a01b0390911690839083908110610b3257610b32612eea565b6001600160a01b0390921660209283029190910190910152600101610ae5565b5f610b5b612005565b600a54604080516385462d6f60e01b815290515f926001600160a01b0316916385462d6f9160048083019260209291908290030181865afa158015610ba2573d5f803e3d5ffd5b505050506040513d601f19601f82011682018060405250810190610bc69190612f89565b9050846001600160a01b0316866001600160a01b031603610c295760405162461bcd60e51b815260206004820152601a60248201527f43616e6e6f742073776170207468652073616d6520746f6b656e0000000000006044820152606401610589565b5f8411610c785760405162461bcd60e51b815260206004820181905260248201527f416d6f756e74206d7573742062652067726561746572207468616e207a65726f6044820152606401610589565b5f610c8487878761099d565b905080610c9087611582565b1015610cd75760405162461bcd60e51b8152602060048201526016602482015275496e73756666696369656e74204c697175696469747960501b6044820152606401610589565b5f612710610ce58484612ed3565b610cef9190612fa0565b9050610cfb8183612ec0565b93505f8411610d5a5760405162461bcd60e51b815260206004820152602560248201527f416d6f756e7420746f2073656e64206d75737420626520677265617465722074604482015264068616e20360dc1b6064820152608401610589565b866001600160a01b0316886001600160a01b0316866001600160a01b03167fcd3829a3813dc3cdd188fd3d01dcf3268c16be2fdd2dd21d0665418816e460628988604051610db2929190918252602082015260400190565b60405180910390a4505050610dc76001600555565b949350505050565b6060805f80610ddc611ba7565b6006549193509150806001600160401b03811115610dfc57610dfc612ce8565b604051908082528060200260200182016040528015610e25578160200160208202803683370190505b509450806001600160401b03811115610e4057610e40612ce8565b604051908082528060200260200182016040528015610e69578160200160208202803683370190505b5093505f5b81811015610f80575f84848381518110610e8a57610e8a612eea565b6020026020010151612710610e9f9190612ed3565b610ea99190612fa0565b90505f60068381548110610ebf57610ebf612eea565b905f5260205f20906002020160010154905080821115610f2a57610ee38183612ec0565b878481518110610ef557610ef5612eea565b6020026020010181815250506001888481518110610f1557610f15612eea565b91151560209283029190910190910152610f76565b610f348282612ec0565b878481518110610f4657610f46612eea565b6020026020010181815250505f888481518110610f6557610f65612eea565b911515602092830291909101909101525b5050600101610e6e565b505050509091565b60605f600a5f9054906101000a90046001600160a01b03166001600160a01b0316631acb61416040518163ffffffff1660e01b8152600401602060405180830381865afa158015610fdb573d5f803e3d5ffd5b505050506040513d601f19601f82011682018060405250810190610fff9190612e49565b9050336001600160a01b038216146110295760405162461bcd60e51b815260040161058990612e64565b600a54604080516385462d6f60e01b815290515f926001600160a01b0316916385462d6f9160048083019260209291908290030181865afa158015611070573d5f803e3d5ffd5b505050506040513d601f19601f820116820180604052508101906110949190612f89565b90505f600a5f9054906101000a90046001600160a01b03166001600160a01b0316631acb61416040518163ffffffff1660e01b8152600401602060405180830381865afa1580156110e7573d5f803e3d5ffd5b505050506040513d601f19601f8201168201806040525081019061110b9190612e49565b305f908152602081905260409020549091508061116a5760405162461bcd60e51b815260206004820152601c60248201527f5368617265206d7573742062652067726561746572207468616e2030000000006044820152606401610589565b5f61117460025490565b90505f81116111b45760405162461bcd60e51b815260206004820152600c60248201526b4e6f206c697175696469747960a01b6044820152606401610589565b6006545f906001600160401b038111156111d0576111d0612ce8565b6040519080825280602002602001820160405280156111f9578160200160208202803683370190505b5090505f61271061120a8786612ed3565b6112149190612fa0565b90505f6112218286612ec0565b90505f5b60065481101561130d575f876001600160a01b031663a3e113fb306006858154811061125357611253612eea565b5f91825260209091206002909102015460405160e084901b6001600160e01b03191681526001600160a01b03928316600482015291166024820152604401602060405180830381865afa1580156112ac573d5f803e3d5ffd5b505050506040513d601f19601f820116820180604052508101906112d09190612f89565b9050856112dd8483612ed3565b6112e79190612fa0565b8583815181106112f9576112f9612eea565b602090810291909101015250600101611225565b50305f9081526020819052604090205481111561136c5760405162461bcd60e51b815260206004820152601d60248201527f496e73756666696369656e742042414c554e49206c69717569646974790000006044820152606401610589565b600a5460408051631d8cf42560e11b815290515f926001600160a01b031691633b19e84a9160048083019260209291908290030181865afa1580156113b3573d5f803e3d5ffd5b505050506040513d601f19601f820116820180604052508101906113d79190612e49565b60405163a9059cbb60e01b81526001600160a01b0382166004820152602481018590529091505f90309063a9059cbb906044016020604051808303815f875af1158015611426573d5f803e3d5ffd5b505050506040513d601f19601f8201168201806040525081019061144a9190612fbf565b90508061148f5760405162461bcd60e51b8152602060048201526013602482015272119959481d1c985b9cd9995c8819985a5b1959606a1b6044820152606401610589565b611499308461202f565b8b6001600160a01b03167fcc16f5dbb4873280815c1ee09dbd06736cffcc184412cf7a71a0fdb75d397ca5846040516114d491815260200190565b60405180910390a250929a9950505050505050505050565b5f805f6114f7610dcf565b915091505f5b815181101561155d5782818151811061151857611518612eea565b60200260200101518015611546575060075482828151811061153c5761153c612eea565b6020026020010151115b15611555576001935050505090565b6001016114fd565b505f9250505090565b60606004805461046790612e17565b5f336108aa818585611fa8565b5f80600a5f9054906101000a90046001600160a01b03166001600160a01b0316631acb61416040518163ffffffff1660e01b8152600401602060405180830381865afa1580156115d4573d5f803e3d5ffd5b505050506040513d601f19601f820116820180604052508101906115f89190612e49565b60405163a3e113fb60e01b81523060048201526001600160a01b0385811660248301529192509082169063a3e113fb90604401602060405180830381865afa158015611646573d5f803e3d5ffd5b505050506040513d601f19601f8201168201806040525081019061166a9190612f89565b9392505050565b5f8061167b611ba7565b915050805183106116c45760405162461bcd60e51b8152602060048201526013602482015272092dcecc2d8d2c840c2e6e6cae840d2dcc8caf606b1b6044820152606401610589565b8083815181106116d6576116d6612eea565b6020026020010151915050919050565b600681815481106116f5575f80fd5b5f918252602090912060029091020180546001909101546001600160a01b03909116915082565b5f80600a5f9054906101000a90046001600160a01b03166001600160a01b0316631acb61416040518163ffffffff1660e01b8152600401602060405180830381865afa15801561176e573d5f803e3d5ffd5b505050506040513d601f19601f820116820180604052508101906117929190612e49565b9050336001600160a01b038216146117bc5760405162461bcd60e51b815260040161058990612e64565b5f6117c660025490565b90505f806117d26107b5565b8051600654919250146118275760405162461bcd60e51b815260206004820152601760248201527f496e76616c6964207265736572766573206c656e6774680000000000000000006044820152606401610589565b6006546118625760405162461bcd60e51b81526020600482015260096024820152684e6f2061737365747360b81b6044820152606401610589565b5f5b6006548110156118dd575f6006828154811061188257611882612eea565b5f918252602082206002909102015489516001600160a01b0390911692506118c59083908b90869081106118b8576118b8612eea565b6020026020010151612063565b90506118d18186612fde565b94505050600101611864565b505f82116119385760405162461bcd60e51b815260206004820152602260248201527f546f74616c2076616c7565206d7573742062652067726561746572207468616e604482015261020360f41b6064820152608401610589565b5f835f036119475750816119ca565b5f611950611ba7565b5090505f81116119b15760405162461bcd60e51b815260206004820152602660248201527f546f74616c206c6971756964697479206d75737420626520677265617465722060448201526507468616e20360d41b6064820152608401610589565b806119bc8686612ed3565b6119c69190612fa0565b9150505b805f03611a095760405162461bcd60e51b815260206004820152600d60248201526c04d696e7420717479206973203609c1b6044820152606401610589565b611a138882611ee3565b876001600160a01b03167f0f6798a560793a54c3bcfe86a93cde1e73087d944c0ea20544137d412139688582604051611a4e91815260200190565b60405180910390a2979650505050505050565b5f80611a6b611ba7565b5090505f611a7860025490565b9050805f03611a89575f9250505090565b8060085483611a989190612ed3565b611aa29190612fa0565b9250505090565b6060805f600a5f9054906101000a90046001600160a01b03166001600160a01b0316631acb61416040518163ffffffff1660e01b8152600401602060405180830381865afa158015611afd573d5f803e3d5ffd5b505050506040513d601f19601f82011682018060405250810190611b219190612e49565b9050336001600160a01b03821614611b4b5760405162461bcd60e51b815260040161058990612e64565b611b536114ec565b611b965760405162461bcd60e51b8152602060048201526014602482015273149958985b185b98d9481b9bdd081b995959195960621b6044820152606401610589565b611b9e612135565b92509250509091565b6006545f90606090806001600160401b03811115611bc757611bc7612ce8565b604051908082528060200260200182016040528015611bf0578160200160208202803683370190505b5091505f5b81811015611cd0575f60068281548110611c1157611c11612eea565b5f91825260208220600290910201546001600160a01b03169150611c3482611582565b6009549091506001600160a01b0390811690831603611c715780858481518110611c6057611c60612eea565b602002602001018181525050611c9f565b5f611c7c8383612063565b905080868581518110611c9157611c91612eea565b602002602001018181525050505b848381518110611cb157611cb1612eea565b602002602001015186611cc49190612fde565b95505050600101611bf5565b50509091565b6006546060906001600160401b03811115611cf357611cf3612ce8565b604051908082528060200260200182016040528015611d1c578160200160208202803683370190505b5090505f5b6006548110156108c0575f61271060068381548110611d4257611d42612eea565b905f5260205f2090600202016001015486611d5d9190612ed3565b611d679190612fa0565b905080848381518110611d7c57611d7c612eea565b60200260200101511015611dce57838281518110611d9c57611d9c612eea565b602002602001015181611daf9190612ec0565b838381518110611dc157611dc1612eea565b6020026020010181815250505b50600101611d21565b5f805b6006548110156107af57828181518110611df657611df6612eea565b602002602001015182611e099190612fde565b9150600101611dda565b600954600680545f926001600160a01b0316919085908110611e3757611e37612eea565b5f9182526020909120600290910201546001600160a01b031603611e5c5750806108b0565b5f611e9260068581548110611e7357611e73612eea565b5f9182526020909120600290910201546001600160a01b0316846127c0565b90505f811161166a5760405162461bcd60e51b815260206004820152601b60248201527f496e76616c696420746f6b656e20616d6f756e7420746f2061646400000000006044820152606401610589565b6001600160a01b038216611f0c5760405163ec442f0560e01b81525f6004820152602401610589565b611f175f838361287c565b5050565b611f2883838360016129a2565b505050565b6001600160a01b038381165f908152600160209081526040808320938616835292905220545f198114611fa25781811015611f9457604051637dc7a0d960e11b81526001600160a01b03841660048201526024810182905260448101839052606401610589565b611fa284848484035f6129a2565b50505050565b6001600160a01b038316611fd157604051634b637e8f60e11b81525f6004820152602401610589565b6001600160a01b038216611ffa5760405163ec442f0560e01b81525f6004820152602401610589565b611f2883838361287c565b60026005540361202857604051633ee5aeb560e01b815260040160405180910390fd5b6002600555565b6001600160a01b03821661205857604051634b637e8f60e11b81525f6004820152602401610589565b611f17825f8361287c565b5f80600a5f9054906101000a90046001600160a01b03166001600160a01b031663cff49d686040518163ffffffff1660e01b8152600401602060405180830381865afa1580156120b5573d5f803e3d5ffd5b505050506040513d601f19601f820116820180604052508101906120d99190612e49565b60095460405163248391ff60e01b81526001600160a01b0387811660048301529182166024820152604481018690529192505f919083169063248391ff90606401602060405180830381865afa158015610a6b573d5f803e3d5ffd5b6060805f600a5f9054906101000a90046001600160a01b03166001600160a01b0316631acb61416040518163ffffffff1660e01b8152600401602060405180830381865afa158015612189573d5f803e3d5ffd5b505050506040513d601f19601f820116820180604052508101906121ad9190612e49565b90505f600a5f9054906101000a90046001600160a01b03166001600160a01b031663cff49d686040518163ffffffff1660e01b8152600401602060405180830381865afa158015612200573d5f803e3d5ffd5b505050506040513d601f19601f820116820180604052508101906122249190612e49565b6006549091505f906001600160401b0381111561224357612243612ce8565b60405190808252806020026020018201604052801561226c578160200160208202803683370190505b506006549091505f906001600160401b0381111561228c5761228c612ce8565b6040519080825280602002602001820160405280156122b5578160200160208202803683370190505b506006549091505f906001600160401b038111156122d5576122d5612ce8565b6040519080825280602002602001820160405280156122fe578160200160208202803683370190505b506006549091505f906001600160401b0381111561231e5761231e612ce8565b604051908082528060200260200182016040528015612347578160200160208202803683370190505b506006549091505f906001600160401b0381111561236757612367612ce8565b604051908082528060200260200182016040528015612390578160200160208202803683370190505b506006549091505f906001600160401b038111156123b0576123b0612ce8565b6040519080825280602002602001820160405280156123d9578160200160208202803683370190505b5090505f5b60065481101561253757600681815481106123fb576123fb612eea565b5f91825260209091206002909102015487516001600160a01b039091169088908390811061242b5761242b612eea565b60200260200101906001600160a01b031690816001600160a01b0316815250506006818154811061245e5761245e612eea565b905f5260205f2090600202016001015486828151811061248057612480612eea565b60200260200101818152505086818151811061249e5761249e612eea565b60209081029190910101516040516370a0823160e01b81526001600160a01b038b81166004830152909116906370a0823190602401602060405180830381865afa1580156124ee573d5f803e3d5ffd5b505050506040513d601f19601f820116820180604052508101906125129190612f89565b85828151811061252457612524612eea565b60209081029190910101526001016123de565b505f6125416107b5565b9050876001600160a01b031663f0bf77148289896007548e8f60095f9054906101000a90046001600160a01b03166040518863ffffffff1660e01b81526004016125919796959493929190612ff1565b5f604051808303815f87803b1580156125a8575f80fd5b505af11580156125ba573d5f803e3d5ffd5b505050505f5b60065481101561276e578781815181106125dc576125dc612eea565b60209081029190910101516040516370a0823160e01b81526001600160a01b038c81166004830152909116906370a0823190602401602060405180830381865afa15801561262c573d5f803e3d5ffd5b505050506040513d601f19601f820116820180604052508101906126509190612f89565b85828151811061266257612662612eea565b60200260200101818152505085818151811061268057612680612eea565b602002602001015185828151811061269a5761269a612eea565b60200260200101511115612709578581815181106126ba576126ba612eea565b60200260200101518582815181106126d4576126d4612eea565b60200260200101516126e69190612ec0565b8482815181106126f8576126f8612eea565b602002602001018181525050612766565b84818151811061271b5761271b612eea565b602002602001015186828151811061273557612735612eea565b60200260200101516127479190612ec0565b83828151811061275957612759612eea565b6020026020010181815250505b6001016125c0565b50336001600160a01b03167f279b343370f587af7fb675ae7c8578e9c8abcc373236ad02c501a4771fe7a7b8886040516127a89190612bdf565b60405180910390a25090999098509650505050505050565b5f80600a5f9054906101000a90046001600160a01b03166001600160a01b031663cff49d686040518163ffffffff1660e01b8152600401602060405180830381865afa158015612812573d5f803e3d5ffd5b505050506040513d601f19601f820116820180604052508101906128369190612e49565b60095460405163248391ff60e01b81526001600160a01b0391821660048201528682166024820152604481018690529192505f919083169063248391ff90606401610a50565b6001600160a01b0383166128a6578060025f82825461289b9190612fde565b909155506129169050565b6001600160a01b0383165f90815260208190526040902054818110156128f85760405163391434e360e21b81526001600160a01b03851660048201526024810182905260448101839052606401610589565b6001600160a01b0384165f9081526020819052604090209082900390555b6001600160a01b03821661293257600280548290039055612950565b6001600160a01b0382165f9081526020819052604090208054820190555b816001600160a01b0316836001600160a01b03167fddf252ad1be2c89b69c2b068fc378daa952ba7f163c4a11628f55a4df523b3ef8360405161299591815260200190565b60405180910390a3505050565b6001600160a01b0384166129cb5760405163e602df0560e01b81525f6004820152602401610589565b6001600160a01b0383166129f457604051634a1406b160e11b81525f6004820152602401610589565b6001600160a01b038085165f9081526001602090815260408083209387168352929052208290558015611fa257826001600160a01b0316846001600160a01b03167f8c5be1e5ebec7d5bd14f71427d1e84f3dd0314c0f7b2291e5b200ac8c7c3b92584604051612a6691815260200190565b60405180910390a350505050565b602081525f82518060208401528060208501604085015e5f604082850101526040601f19601f83011684010191505092915050565b6001600160a01b0381168114612abd575f80fd5b50565b5f60208284031215612ad0575f80fd5b813561166a81612aa9565b5f815180845260208085019450602084015f5b83811015612b0a57815187529582019590820190600101612aee565b509495945050505050565b602081525f61166a6020830184612adb565b5f8060408385031215612b38575f80fd5b8235612b4381612aa9565b946020939093013593505050565b5f805f60608486031215612b63575f80fd5b8335612b6e81612aa9565b92506020840135612b7e81612aa9565b929592945050506040919091013590565b828152604060208201525f610dc76040830184612adb565b5f815180845260208085019450602084015f5b83811015612b0a5781516001600160a01b031687529582019590820190600101612bba565b602081525f61166a6020830184612ba7565b5f805f8060808587031215612c04575f80fd5b8435612c0f81612aa9565b93506020850135612c1f81612aa9565b9250604085013591506060850135612c3681612aa9565b939692955090935050565b604080825283519082018190525f906020906060840190828701845b82811015612c7b578151151584529284019290840190600101612c5d565b5050508381036020850152612c908186612adb565b9695505050505050565b5f60208284031215612caa575f80fd5b5035919050565b5f8060408385031215612cc2575f80fd5b8235612ccd81612aa9565b91506020830135612cdd81612aa9565b809150509250929050565b634e487b7160e01b5f52604160045260245ffd5b604051601f8201601f191681016001600160401b0381118282101715612d2457612d24612ce8565b604052919050565b5f6001600160401b03821115612d4457612d44612ce8565b5060051b60200190565b5f8060408385031215612d5f575f80fd5b8235612d6a81612aa9565b91506020838101356001600160401b03811115612d85575f80fd5b8401601f81018613612d95575f80fd5b8035612da8612da382612d2c565b612cfc565b81815260059190911b82018301908381019088831115612dc6575f80fd5b928401925b82841015612de457833582529284019290840190612dcb565b80955050505050509250929050565b604081525f612e056040830185612adb565b8281036020840152610a8f8185612adb565b600181811c90821680612e2b57607f821691505b6020821081036107af57634e487b7160e01b5f52602260045260245ffd5b5f60208284031215612e59575f80fd5b815161166a81612aa9565b6020808252600e908201526d4f6e6c792050657269706865727960901b604082015260600190565b5f60208284031215612e9c575f80fd5b815160ff8116811461166a575f80fd5b634e487b7160e01b5f52601160045260245ffd5b818103818111156108b0576108b0612eac565b80820281158282048414176108b0576108b0612eac565b634e487b7160e01b5f52603260045260245ffd5b5f6020808385031215612f0f575f80fd5b82516001600160401b03811115612f24575f80fd5b8301601f81018513612f34575f80fd5b8051612f42612da382612d2c565b81815260059190911b82018301908381019087831115612f60575f80fd5b928401925b82841015612f7e57835182529284019290840190612f65565b979650505050505050565b5f60208284031215612f99575f80fd5b5051919050565b5f82612fba57634e487b7160e01b5f52601260045260245ffd5b500490565b5f60208284031215612fcf575f80fd5b8151801515811461166a575f80fd5b808201808211156108b0576108b0612eac565b60e081525f61300360e083018a612adb565b8281036020840152613015818a612ba7565b905082810360408401526130298189612adb565b606084019790975250506001600160a01b03938416608082015291831660a083015290911660c090910152939250505056fea2646970667358221220c2384f62341da92249ad2c391bf82936b72af97278671dfd8682203a0ae410f264736f6c63430008190033360894a13ba1a3210667c828492db98dca3e2076cc3735a920a3ca505d382bbca26469706673582212206f897931efe3e936ec78ae62bfb08f532c6d199f5ba424828d33faa3dcae3cea64736f6c63430008190033",
    "sourcePath": "c:/Users/Utente/Source/repos/baluni-contracts/contracts/BaluniV1PoolFactory.sol",
    "compiler": {
        "name": "solc",
        "version": "0.8.25+commit.b61c2a91"
    },
    "functionHashes": {
        "UPGRADE_INTERFACE_VERSION()": "ad3cb1cc",
        "allPools(uint256)": "41d1de97",
        "createPool(address[],uint256[],uint256)": "3069873b",
        "getAllPools()": "d88ff1f4",
        "getPool(address,address)": "531aa03e",
        "getPoolAssets(address)": "4276b97b",
        "getPoolByAssets(address,address)": "2d5e94a7",
        "getPoolsByAsset(address)": "b4340e6a",
        "getPoolsCount()": "b4ac6860",
        "initialize(address)": "c4d66de8",
        "owner()": "8da5cb5b",
        "poolExist(address)": "89345efb",
        "proxiableUUID()": "52d1902d",
        "registry()": "7b103999",
        "reinitialize(address,uint64)": "8f2248bc",
        "renounceOwnership()": "715018a6",
        "transferOwnership(address)": "f2fde38b",
        "upgradeToAndCall(address,bytes)": "4f1ef286"
    },
    "gasEstimates": {
        "creation": {
            "codeDepositCost": "4152000",
            "executionCost": "infinite",
            "totalCost": "infinite"
        },
        "external": {
            "UPGRADE_INTERFACE_VERSION()": "infinite",
            "allPools(uint256)": "4667",
            "createPool(address[],uint256[],uint256)": "infinite",
            "getAllPools()": "infinite",
            "getPool(address,address)": "infinite",
            "getPoolAssets(address)": "infinite",
            "getPoolByAssets(address,address)": "infinite",
            "getPoolsByAsset(address)": "infinite",
            "getPoolsCount()": "2334",
            "initialize(address)": "infinite",
            "owner()": "2364",
            "poolExist(address)": "infinite",
            "proxiableUUID()": "infinite",
            "registry()": "2436",
            "reinitialize(address,uint64)": "78510",
            "renounceOwnership()": "infinite",
            "transferOwnership(address)": "infinite",
            "upgradeToAndCall(address,bytes)": "infinite"
        },
        "internal": {
            "_authorizeUpgrade(address)": "infinite"
        }
    }
}