{
    "contractName": "BaluniV1Pool",
    "abi": [
        {
            "inputs": [
                {
                    "internalType": "address",
                    "name": "target",
                    "type": "address"
                }
            ],
            "name": "AddressEmptyCode",
            "type": "error"
        },
        {
            "inputs": [
                {
                    "internalType": "address",
                    "name": "implementation",
                    "type": "address"
                }
            ],
            "name": "ERC1967InvalidImplementation",
            "type": "error"
        },
        {
            "inputs": [],
            "name": "ERC1967NonPayable",
            "type": "error"
        },
        {
            "inputs": [
                {
                    "internalType": "address",
                    "name": "spender",
                    "type": "address"
                },
                {
                    "internalType": "uint256",
                    "name": "allowance",
                    "type": "uint256"
                },
                {
                    "internalType": "uint256",
                    "name": "needed",
                    "type": "uint256"
                }
            ],
            "name": "ERC20InsufficientAllowance",
            "type": "error"
        },
        {
            "inputs": [
                {
                    "internalType": "address",
                    "name": "sender",
                    "type": "address"
                },
                {
                    "internalType": "uint256",
                    "name": "balance",
                    "type": "uint256"
                },
                {
                    "internalType": "uint256",
                    "name": "needed",
                    "type": "uint256"
                }
            ],
            "name": "ERC20InsufficientBalance",
            "type": "error"
        },
        {
            "inputs": [
                {
                    "internalType": "address",
                    "name": "approver",
                    "type": "address"
                }
            ],
            "name": "ERC20InvalidApprover",
            "type": "error"
        },
        {
            "inputs": [
                {
                    "internalType": "address",
                    "name": "receiver",
                    "type": "address"
                }
            ],
            "name": "ERC20InvalidReceiver",
            "type": "error"
        },
        {
            "inputs": [
                {
                    "internalType": "address",
                    "name": "sender",
                    "type": "address"
                }
            ],
            "name": "ERC20InvalidSender",
            "type": "error"
        },
        {
            "inputs": [
                {
                    "internalType": "address",
                    "name": "spender",
                    "type": "address"
                }
            ],
            "name": "ERC20InvalidSpender",
            "type": "error"
        },
        {
            "inputs": [],
            "name": "FailedInnerCall",
            "type": "error"
        },
        {
            "inputs": [],
            "name": "InvalidInitialization",
            "type": "error"
        },
        {
            "inputs": [],
            "name": "NotInitializing",
            "type": "error"
        },
        {
            "inputs": [
                {
                    "internalType": "address",
                    "name": "owner",
                    "type": "address"
                }
            ],
            "name": "OwnableInvalidOwner",
            "type": "error"
        },
        {
            "inputs": [
                {
                    "internalType": "address",
                    "name": "account",
                    "type": "address"
                }
            ],
            "name": "OwnableUnauthorizedAccount",
            "type": "error"
        },
        {
            "inputs": [],
            "name": "ReentrancyGuardReentrantCall",
            "type": "error"
        },
        {
            "inputs": [],
            "name": "UUPSUnauthorizedCallContext",
            "type": "error"
        },
        {
            "inputs": [
                {
                    "internalType": "bytes32",
                    "name": "slot",
                    "type": "bytes32"
                }
            ],
            "name": "UUPSUnsupportedProxiableUUID",
            "type": "error"
        },
        {
            "anonymous": false,
            "inputs": [
                {
                    "indexed": true,
                    "internalType": "address",
                    "name": "owner",
                    "type": "address"
                },
                {
                    "indexed": true,
                    "internalType": "address",
                    "name": "spender",
                    "type": "address"
                },
                {
                    "indexed": false,
                    "internalType": "uint256",
                    "name": "value",
                    "type": "uint256"
                }
            ],
            "name": "Approval",
            "type": "event"
        },
        {
            "anonymous": false,
            "inputs": [
                {
                    "indexed": true,
                    "internalType": "address",
                    "name": "user",
                    "type": "address"
                },
                {
                    "indexed": false,
                    "internalType": "uint256",
                    "name": "sharesBurned",
                    "type": "uint256"
                }
            ],
            "name": "Burn",
            "type": "event"
        },
        {
            "anonymous": false,
            "inputs": [
                {
                    "indexed": false,
                    "internalType": "uint64",
                    "name": "version",
                    "type": "uint64"
                }
            ],
            "name": "Initialized",
            "type": "event"
        },
        {
            "anonymous": false,
            "inputs": [
                {
                    "indexed": true,
                    "internalType": "address",
                    "name": "to",
                    "type": "address"
                },
                {
                    "indexed": false,
                    "internalType": "uint256",
                    "name": "sharesMinted",
                    "type": "uint256"
                }
            ],
            "name": "Mint",
            "type": "event"
        },
        {
            "anonymous": false,
            "inputs": [
                {
                    "indexed": true,
                    "internalType": "address",
                    "name": "previousOwner",
                    "type": "address"
                },
                {
                    "indexed": true,
                    "internalType": "address",
                    "name": "newOwner",
                    "type": "address"
                }
            ],
            "name": "OwnershipTransferred",
            "type": "event"
        },
        {
            "anonymous": false,
            "inputs": [
                {
                    "indexed": true,
                    "internalType": "address",
                    "name": "by",
                    "type": "address"
                },
                {
                    "indexed": false,
                    "internalType": "address[]",
                    "name": "assets",
                    "type": "address[]"
                }
            ],
            "name": "RebalancePerformed",
            "type": "event"
        },
        {
            "anonymous": false,
            "inputs": [
                {
                    "indexed": true,
                    "internalType": "address",
                    "name": "user",
                    "type": "address"
                },
                {
                    "indexed": true,
                    "internalType": "address",
                    "name": "fromToken",
                    "type": "address"
                },
                {
                    "indexed": true,
                    "internalType": "address",
                    "name": "toToken",
                    "type": "address"
                },
                {
                    "indexed": false,
                    "internalType": "uint256",
                    "name": "amountIn",
                    "type": "uint256"
                },
                {
                    "indexed": false,
                    "internalType": "uint256",
                    "name": "amountOut",
                    "type": "uint256"
                }
            ],
            "name": "Swap",
            "type": "event"
        },
        {
            "anonymous": false,
            "inputs": [
                {
                    "indexed": true,
                    "internalType": "address",
                    "name": "from",
                    "type": "address"
                },
                {
                    "indexed": true,
                    "internalType": "address",
                    "name": "to",
                    "type": "address"
                },
                {
                    "indexed": false,
                    "internalType": "uint256",
                    "name": "value",
                    "type": "uint256"
                }
            ],
            "name": "Transfer",
            "type": "event"
        },
        {
            "anonymous": false,
            "inputs": [
                {
                    "indexed": true,
                    "internalType": "address",
                    "name": "implementation",
                    "type": "address"
                }
            ],
            "name": "Upgraded",
            "type": "event"
        },
        {
            "anonymous": false,
            "inputs": [
                {
                    "indexed": true,
                    "internalType": "address",
                    "name": "user",
                    "type": "address"
                },
                {
                    "indexed": false,
                    "internalType": "uint256[]",
                    "name": "amountsAdded",
                    "type": "uint256[]"
                }
            ],
            "name": "WeightsRebalanced",
            "type": "event"
        },
        {
            "inputs": [],
            "name": "ONE",
            "outputs": [
                {
                    "internalType": "uint256",
                    "name": "",
                    "type": "uint256"
                }
            ],
            "stateMutability": "view",
            "type": "function"
        },
        {
            "inputs": [],
            "name": "UPGRADE_INTERFACE_VERSION",
            "outputs": [
                {
                    "internalType": "string",
                    "name": "",
                    "type": "string"
                }
            ],
            "stateMutability": "view",
            "type": "function"
        },
        {
            "inputs": [
                {
                    "internalType": "address",
                    "name": "owner",
                    "type": "address"
                },
                {
                    "internalType": "address",
                    "name": "spender",
                    "type": "address"
                }
            ],
            "name": "allowance",
            "outputs": [
                {
                    "internalType": "uint256",
                    "name": "",
                    "type": "uint256"
                }
            ],
            "stateMutability": "view",
            "type": "function"
        },
        {
            "inputs": [
                {
                    "internalType": "address",
                    "name": "spender",
                    "type": "address"
                },
                {
                    "internalType": "uint256",
                    "name": "value",
                    "type": "uint256"
                }
            ],
            "name": "approve",
            "outputs": [
                {
                    "internalType": "bool",
                    "name": "",
                    "type": "bool"
                }
            ],
            "stateMutability": "nonpayable",
            "type": "function"
        },
        {
            "inputs": [
                {
                    "internalType": "uint256",
                    "name": "",
                    "type": "uint256"
                }
            ],
            "name": "assetInfos",
            "outputs": [
                {
                    "internalType": "address",
                    "name": "asset",
                    "type": "address"
                },
                {
                    "internalType": "uint256",
                    "name": "weight",
                    "type": "uint256"
                },
                {
                    "internalType": "uint256",
                    "name": "slippage",
                    "type": "uint256"
                }
            ],
            "stateMutability": "view",
            "type": "function"
        },
        {
            "inputs": [
                {
                    "internalType": "uint256",
                    "name": "assetIndex",
                    "type": "uint256"
                }
            ],
            "name": "assetLiquidity",
            "outputs": [
                {
                    "internalType": "uint256",
                    "name": "",
                    "type": "uint256"
                }
            ],
            "stateMutability": "view",
            "type": "function"
        },
        {
            "inputs": [
                {
                    "internalType": "address",
                    "name": "account",
                    "type": "address"
                }
            ],
            "name": "balanceOf",
            "outputs": [
                {
                    "internalType": "uint256",
                    "name": "",
                    "type": "uint256"
                }
            ],
            "stateMutability": "view",
            "type": "function"
        },
        {
            "inputs": [],
            "name": "baseAsset",
            "outputs": [
                {
                    "internalType": "address",
                    "name": "",
                    "type": "address"
                }
            ],
            "stateMutability": "view",
            "type": "function"
        },
        {
            "inputs": [
                {
                    "internalType": "address",
                    "name": "to",
                    "type": "address"
                }
            ],
            "name": "burn",
            "outputs": [
                {
                    "internalType": "uint256[]",
                    "name": "",
                    "type": "uint256[]"
                }
            ],
            "stateMutability": "nonpayable",
            "type": "function"
        },
        {
            "inputs": [],
            "name": "computeTotalValuation",
            "outputs": [
                {
                    "internalType": "uint256",
                    "name": "totalVal",
                    "type": "uint256"
                },
                {
                    "internalType": "uint256[]",
                    "name": "valuations",
                    "type": "uint256[]"
                }
            ],
            "stateMutability": "view",
            "type": "function"
        },
        {
            "inputs": [],
            "name": "decimals",
            "outputs": [
                {
                    "internalType": "uint8",
                    "name": "",
                    "type": "uint8"
                }
            ],
            "stateMutability": "view",
            "type": "function"
        },
        {
            "inputs": [
                {
                    "internalType": "address",
                    "name": "fromToken",
                    "type": "address"
                },
                {
                    "internalType": "address",
                    "name": "toToken",
                    "type": "address"
                },
                {
                    "internalType": "uint256",
                    "name": "amount",
                    "type": "uint256"
                }
            ],
            "name": "getAmountOut",
            "outputs": [
                {
                    "internalType": "uint256",
                    "name": "",
                    "type": "uint256"
                }
            ],
            "stateMutability": "view",
            "type": "function"
        },
        {
            "inputs": [
                {
                    "internalType": "address",
                    "name": "fromToken",
                    "type": "address"
                },
                {
                    "internalType": "address",
                    "name": "toToken",
                    "type": "address"
                },
                {
                    "internalType": "uint256",
                    "name": "amount",
                    "type": "uint256"
                }
            ],
            "name": "getAmountOutWithSlippage",
            "outputs": [
                {
                    "internalType": "uint256",
                    "name": "",
                    "type": "uint256"
                }
            ],
            "stateMutability": "view",
            "type": "function"
        },
        {
            "inputs": [
                {
                    "internalType": "address",
                    "name": "asset",
                    "type": "address"
                }
            ],
            "name": "getAssetReserve",
            "outputs": [
                {
                    "internalType": "uint256",
                    "name": "",
                    "type": "uint256"
                }
            ],
            "stateMutability": "view",
            "type": "function"
        },
        {
            "inputs": [],
            "name": "getAssets",
            "outputs": [
                {
                    "internalType": "address[]",
                    "name": "",
                    "type": "address[]"
                }
            ],
            "stateMutability": "view",
            "type": "function"
        },
        {
            "inputs": [],
            "name": "getDeviation",
            "outputs": [
                {
                    "internalType": "bool[]",
                    "name": "directions",
                    "type": "bool[]"
                },
                {
                    "internalType": "uint256[]",
                    "name": "deviations",
                    "type": "uint256[]"
                }
            ],
            "stateMutability": "view",
            "type": "function"
        },
        {
            "inputs": [
                {
                    "internalType": "address",
                    "name": "token",
                    "type": "address"
                }
            ],
            "name": "getDeviationForToken",
            "outputs": [
                {
                    "internalType": "uint256",
                    "name": "",
                    "type": "uint256"
                }
            ],
            "stateMutability": "view",
            "type": "function"
        },
        {
            "inputs": [],
            "name": "getReserves",
            "outputs": [
                {
                    "internalType": "uint256[]",
                    "name": "",
                    "type": "uint256[]"
                }
            ],
            "stateMutability": "view",
            "type": "function"
        },
        {
            "inputs": [
                {
                    "internalType": "address",
                    "name": "token",
                    "type": "address"
                }
            ],
            "name": "getSlippage",
            "outputs": [
                {
                    "internalType": "uint256",
                    "name": "",
                    "type": "uint256"
                }
            ],
            "stateMutability": "view",
            "type": "function"
        },
        {
            "inputs": [],
            "name": "getSlippages",
            "outputs": [
                {
                    "internalType": "uint256[]",
                    "name": "",
                    "type": "uint256[]"
                }
            ],
            "stateMutability": "view",
            "type": "function"
        },
        {
            "inputs": [
                {
                    "internalType": "address",
                    "name": "token",
                    "type": "address"
                }
            ],
            "name": "getTokenWeight",
            "outputs": [
                {
                    "internalType": "uint256",
                    "name": "",
                    "type": "uint256"
                }
            ],
            "stateMutability": "view",
            "type": "function"
        },
        {
            "inputs": [],
            "name": "getWeights",
            "outputs": [
                {
                    "internalType": "uint256[]",
                    "name": "",
                    "type": "uint256[]"
                }
            ],
            "stateMutability": "view",
            "type": "function"
        },
        {
            "inputs": [
                {
                    "internalType": "address[]",
                    "name": "_assets",
                    "type": "address[]"
                },
                {
                    "internalType": "uint256[]",
                    "name": "_weights",
                    "type": "uint256[]"
                },
                {
                    "internalType": "uint256",
                    "name": "_trigger",
                    "type": "uint256"
                },
                {
                    "internalType": "address",
                    "name": "_registry",
                    "type": "address"
                }
            ],
            "name": "initialize",
            "outputs": [],
            "stateMutability": "nonpayable",
            "type": "function"
        },
        {
            "inputs": [],
            "name": "isRebalanceNeeded",
            "outputs": [
                {
                    "internalType": "bool",
                    "name": "",
                    "type": "bool"
                }
            ],
            "stateMutability": "view",
            "type": "function"
        },
        {
            "inputs": [],
            "name": "liquidity",
            "outputs": [
                {
                    "internalType": "uint256",
                    "name": "",
                    "type": "uint256"
                }
            ],
            "stateMutability": "view",
            "type": "function"
        },
        {
            "inputs": [
                {
                    "internalType": "address",
                    "name": "to",
                    "type": "address"
                },
                {
                    "internalType": "uint256[]",
                    "name": "amounts",
                    "type": "uint256[]"
                }
            ],
            "name": "mint",
            "outputs": [
                {
                    "internalType": "uint256",
                    "name": "",
                    "type": "uint256"
                }
            ],
            "stateMutability": "nonpayable",
            "type": "function"
        },
        {
            "inputs": [],
            "name": "name",
            "outputs": [
                {
                    "internalType": "string",
                    "name": "",
                    "type": "string"
                }
            ],
            "stateMutability": "view",
            "type": "function"
        },
        {
            "inputs": [],
            "name": "owner",
            "outputs": [
                {
                    "internalType": "address",
                    "name": "",
                    "type": "address"
                }
            ],
            "stateMutability": "view",
            "type": "function"
        },
        {
            "inputs": [],
            "name": "performRebalanceIfNeeded",
            "outputs": [
                {
                    "internalType": "uint256[]",
                    "name": "amountsToAdd",
                    "type": "uint256[]"
                },
                {
                    "internalType": "uint256[]",
                    "name": "amountsToRemove",
                    "type": "uint256[]"
                }
            ],
            "stateMutability": "nonpayable",
            "type": "function"
        },
        {
            "inputs": [],
            "name": "proxiableUUID",
            "outputs": [
                {
                    "internalType": "bytes32",
                    "name": "",
                    "type": "bytes32"
                }
            ],
            "stateMutability": "view",
            "type": "function"
        },
        {
            "inputs": [
                {
                    "internalType": "address",
                    "name": "receiver",
                    "type": "address"
                }
            ],
            "name": "rebalanceWeights",
            "outputs": [
                {
                    "internalType": "uint256[]",
                    "name": "",
                    "type": "uint256[]"
                }
            ],
            "stateMutability": "nonpayable",
            "type": "function"
        },
        {
            "inputs": [],
            "name": "registry",
            "outputs": [
                {
                    "internalType": "contract IBaluniV1Registry",
                    "name": "",
                    "type": "address"
                }
            ],
            "stateMutability": "view",
            "type": "function"
        },
        {
            "inputs": [],
            "name": "renounceOwnership",
            "outputs": [],
            "stateMutability": "nonpayable",
            "type": "function"
        },
        {
            "inputs": [
                {
                    "internalType": "address",
                    "name": "fromToken",
                    "type": "address"
                },
                {
                    "internalType": "address",
                    "name": "toToken",
                    "type": "address"
                },
                {
                    "internalType": "uint256",
                    "name": "amount",
                    "type": "uint256"
                },
                {
                    "internalType": "address",
                    "name": "receiver",
                    "type": "address"
                }
            ],
            "name": "swap",
            "outputs": [
                {
                    "internalType": "uint256",
                    "name": "amountOut",
                    "type": "uint256"
                }
            ],
            "stateMutability": "nonpayable",
            "type": "function"
        },
        {
            "inputs": [],
            "name": "symbol",
            "outputs": [
                {
                    "internalType": "string",
                    "name": "",
                    "type": "string"
                }
            ],
            "stateMutability": "view",
            "type": "function"
        },
        {
            "inputs": [],
            "name": "totalSupply",
            "outputs": [
                {
                    "internalType": "uint256",
                    "name": "",
                    "type": "uint256"
                }
            ],
            "stateMutability": "view",
            "type": "function"
        },
        {
            "inputs": [
                {
                    "internalType": "address",
                    "name": "to",
                    "type": "address"
                },
                {
                    "internalType": "uint256",
                    "name": "value",
                    "type": "uint256"
                }
            ],
            "name": "transfer",
            "outputs": [
                {
                    "internalType": "bool",
                    "name": "",
                    "type": "bool"
                }
            ],
            "stateMutability": "nonpayable",
            "type": "function"
        },
        {
            "inputs": [
                {
                    "internalType": "address",
                    "name": "from",
                    "type": "address"
                },
                {
                    "internalType": "address",
                    "name": "to",
                    "type": "address"
                },
                {
                    "internalType": "uint256",
                    "name": "value",
                    "type": "uint256"
                }
            ],
            "name": "transferFrom",
            "outputs": [
                {
                    "internalType": "bool",
                    "name": "",
                    "type": "bool"
                }
            ],
            "stateMutability": "nonpayable",
            "type": "function"
        },
        {
            "inputs": [
                {
                    "internalType": "address",
                    "name": "newOwner",
                    "type": "address"
                }
            ],
            "name": "transferOwnership",
            "outputs": [],
            "stateMutability": "nonpayable",
            "type": "function"
        },
        {
            "inputs": [],
            "name": "trigger",
            "outputs": [
                {
                    "internalType": "uint256",
                    "name": "",
                    "type": "uint256"
                }
            ],
            "stateMutability": "view",
            "type": "function"
        },
        {
            "inputs": [],
            "name": "unitPrice",
            "outputs": [
                {
                    "internalType": "uint256",
                    "name": "",
                    "type": "uint256"
                }
            ],
            "stateMutability": "view",
            "type": "function"
        },
        {
            "inputs": [
                {
                    "internalType": "address",
                    "name": "newImplementation",
                    "type": "address"
                },
                {
                    "internalType": "bytes",
                    "name": "data",
                    "type": "bytes"
                }
            ],
            "name": "upgradeToAndCall",
            "outputs": [],
            "stateMutability": "payable",
            "type": "function"
        }
    ],
    "bytecode": "60a0604052306080523480156012575f80fd5b50608051614c7f6100395f395f81816134480152818161347101526135b00152614c7f5ff3fe608060405260043610610249575f3560e01c80637b10399911610134578063ad3cb1cc116100b3578063d14ef46d11610078578063d14ef46d146106b4578063dd62ed3e146106f8578063de836ebd14610717578063e73faa2d14610736578063f2fde38b1461074a578063f47b45e814610769575f80fd5b8063ad3cb1cc14610612578063b2b55d7014610642578063c2ee3a0814610661578063cdf456e114610676578063cf8fa76414610695575f80fd5b80638a77c8dc116100f95780638a77c8dc146105705780638da5cb5b1461058457806395d89b41146105c0578063a1f241cc146105d4578063a9059cbb146105f3575f80fd5b80637b103999146104c45780637fec8d38146104fb57806389ab35321461051057806389afcb441461053257806389b3179b14610551575f80fd5b806323b872dd116101cb5780634f1ef286116101905780634f1ef2861461042a57806352d1902d1461043d57806367e4ac2c146104515780636e81221c1461047257806370a0823114610491578063715018a6146104b0575f80fd5b806323b872dd14610390578063250aa683146103af578063313ce567146103ce57806336bf6e39146103e95780634aa066521461040b575f80fd5b806318160ddd1161021157806318160ddd1461031357806318904ea4146103335780631a68650214610347578063228835ac1461035b57806322acb8671461037c575f80fd5b806306fdde031461024d5780630723c999146102775780630902f1ac146102a3578063095ea7b3146102b757806312899068146102e6575b5f80fd5b348015610258575f80fd5b5061026161078b565b60405161026e9190614277565b60405180910390f35b348015610282575f80fd5b506102966102913660046142d0565b61084b565b60405161026e9190614325565b3480156102ae575f80fd5b50610296610a96565b3480156102c2575f80fd5b506102d66102d1366004614337565b610b7e565b604051901515815260200161026e565b3480156102f1575f80fd5b506103056103003660046142d0565b610b97565b60405190815260200161026e565b34801561031e575f80fd5b505f80516020614c0a83398151915254610305565b34801561033e575f80fd5b50610296610c17565b348015610352575f80fd5b50610305610cb3565b348015610366575f80fd5b5061037a610375366004614433565b610cc4565b005b348015610387575f80fd5b50610296610ffe565b34801561039b575f80fd5b506102d66103aa366004614507565b61109a565b3480156103ba575f80fd5b506103056103c93660046142d0565b6110bf565b3480156103d9575f80fd5b506040516012815260200161026e565b3480156103f4575f80fd5b506103fd611137565b60405161026e929190614545565b348015610416575f80fd5b50610305610425366004614507565b61114b565b61037a61043836600461455d565b611314565b348015610448575f80fd5b50610305611333565b34801561045c575f80fd5b5061046561134e565b60405161026e9190614636565b34801561047d575f80fd5b5061030561048c366004614648565b611405565b34801561049c575f80fd5b506103056104ab3660046142d0565b6116a9565b3480156104bb575f80fd5b5061037a6116cf565b3480156104cf575f80fd5b506005546104e3906001600160a01b031681565b6040516001600160a01b03909116815260200161026e565b348015610506575f80fd5b5061030560015481565b34801561051b575f80fd5b506105246116e2565b60405161026e929190614698565b34801561053d575f80fd5b5061029661054c3660046142d0565b611899565b34801561055c575f80fd5b5061030561056b3660046142d0565b611e05565b34801561057b575f80fd5b506102d6611e8b565b34801561058f575f80fd5b507f9016d09d72d40fdae2fd8ceac6b6234c7706214fd39c1cd1e609a0528c199300546001600160a01b03166104e3565b3480156105cb575f80fd5b50610261611f05565b3480156105df575f80fd5b506103056105ee366004614507565b611f43565b3480156105fe575f80fd5b506102d661060d366004614337565b612021565b34801561061d575f80fd5b50610261604051806040016040528060058152602001640352e302e360dc1b81525081565b34801561064d575f80fd5b5061030561065c3660046142d0565b61202e565b34801561066c575f80fd5b5061030560025481565b348015610681575f80fd5b506003546104e3906001600160a01b031681565b3480156106a0575f80fd5b506103056106af3660046146e7565b612116565b3480156106bf575f80fd5b506106d36106ce3660046146e7565b61218b565b604080516001600160a01b03909416845260208401929092529082015260600161026e565b348015610703575f80fd5b506103056107123660046146fe565b6121c5565b348015610722575f80fd5b50610305610731366004614735565b61220e565b348015610741575f80fd5b506103056125ad565b348015610755575f80fd5b5061037a6107643660046142d0565b6126a1565b348015610774575f80fd5b5061077d6126de565b60405161026e929190614781565b7f52c63247e1f47db19d5ce0460030c497f067ca4cebf71ba98eeadabe20bace0380546060915f80516020614bea833981519152916107c9906147a5565b80601f01602080910402602001604051908101604052809291908181526020018280546107f5906147a5565b80156108405780601f1061081757610100808354040283529160200191610840565b820191905f5260205f20905b81548152906001019060200180831161082357829003601f168201915b505050505091505090565b60605f60055f9054906101000a90046001600160a01b03166001600160a01b0316631acb61416040518163ffffffff1660e01b8152600401602060405180830381865afa15801561089e573d5f803e3d5ffd5b505050506040513d601f19601f820116820180604052508101906108c291906147d7565b9050336001600160a01b038216146108f55760405162461bcd60e51b81526004016108ec906147f2565b60405180910390fd5b6108fd611e8b565b6109405760405162461bcd60e51b8152602060048201526014602482015273149958985b185b98d9481b9bdd081b995959195960621b60448201526064016108ec565b5f8061094a6127dc565b915091505f6109598383612908565b90505f61096582612a06565b905060045481610975919061482e565b5f8054919250906001600160401b0381111561099357610993614361565b6040519080825280602002602001820160405280156109bc578160200160208202803683370190505b5090505f5b8351811015610a35575f8482815181106109dd576109dd614845565b60200260200101511115610a2d57610a0e81858381518110610a0157610a01614845565b6020026020010151612a41565b828281518110610a2057610a20614845565b6020026020010181815250505b6001016109c1565b50610a408883612b10565b610a48612b44565b336001600160a01b03167fa95ad530009c6f929555e70a66aadbeae7231e45756c5b028ca77fbaa376e73e84604051610a819190614325565b60405180910390a29550505050505b50919050565b60605f60055f9054906101000a90046001600160a01b03166001600160a01b0316631acb61416040518163ffffffff1660e01b8152600401602060405180830381865afa158015610ae9573d5f803e3d5ffd5b505050506040513d601f19601f82011682018060405250810190610b0d91906147d7565b604051630fa6707960e21b81523060048201529091506001600160a01b03821690633e99c1e4906024015f60405180830381865afa158015610b51573d5f803e3d5ffd5b505050506040513d5f823e601f3d908101601f19168201604052610b789190810190614859565b91505090565b5f33610b8b818585612f04565b60019150505b92915050565b5f805b5f54811015610c0f57826001600160a01b03165f8281548110610bbf57610bbf614845565b5f9182526020909120600390910201546001600160a01b031603610c07575f8181548110610bef57610bef614845565b905f5260205f20906003020160020154915050919050565b600101610b9a565b505f92915050565b5f8054606091906001600160401b03811115610c3557610c35614361565b604051908082528060200260200182016040528015610c5e578160200160208202803683370190505b5090505f5b5f54811015610a90575f8181548110610c7e57610c7e614845565b905f5260205f20906003020160020154828281518110610ca057610ca0614845565b6020908102919091010152600101610c63565b5f80610cbd6127dc565b5092915050565b7ff0c57e16840df040f15088dc2f81fe391c3923bec73e23a9662efc9c229c6a008054600160401b810460ff1615906001600160401b03165f81158015610d085750825b90505f826001600160401b03166001148015610d235750303b155b905081158015610d31575080155b15610d4f5760405163f92ee8a960e01b815260040160405180910390fd5b845467ffffffffffffffff191660011785558315610d7957845460ff60401b1916600160401b1785555b610d8233612f16565b610dce60405180604001604052806009815260200168042616c756e69204c560bc1b81525060405180604001604052806009815260200168042414c554e492d4c560bc1b815250612f27565b600580546001600160a01b0319166001600160a01b038816179055670de0b6b3a76400006002555f610e008a8a612f39565b905080610e475760405162461bcd60e51b8152602060048201526015602482015274125b9a5d1a585b1a5e985d1a5bdb8819985a5b1959605a1b60448201526064016108ec565b600188905560055460408051631bf01e9b60e01b815290516001600160a01b0390921691631bf01e9b916004808201926020929091908290030181865afa158015610e94573d5f803e3d5ffd5b505050506040513d601f19601f82011682018060405250810190610eb891906147d7565b600380546001600160a01b0319166001600160a01b0392909216918217905564e8d4a51000600455610f2c5760405162461bcd60e51b815260206004820152601a60248201527f496e76616c69642062617365206173736574206164647265737300000000000060448201526064016108ec565b5f805b8a51811015610f67578a8181518110610f4a57610f4a614845565b602002602001015182610f5d91906148e4565b9150600101610f2f565b508061271014610fab5760405162461bcd60e51b815260206004820152600f60248201526e496e76616c6964207765696768747360881b60448201526064016108ec565b50508315610ff357845460ff60401b19168555604051600181527fc7f505b2f371ae2175ee4913f4499e1f2633a7b5936321eed1cdaeb6115181d29060200160405180910390a15b505050505050505050565b5f8054606091906001600160401b0381111561101c5761101c614361565b604051908082528060200260200182016040528015611045578160200160208202803683370190505b5090505f5b5f54811015610a90575f818154811061106557611065614845565b905f5260205f2090600302016001015482828151811061108757611087614845565b602090810291909101015260010161104a565b5f336110a785828561337d565b6110b28585856133e0565b60019150505b9392505050565b5f805b5f54811015610c0f57826001600160a01b03165f82815481106110e7576110e7614845565b5f9182526020909120600390910201546001600160a01b03160361112f575f818154811061111757611117614845565b905f5260205f20906003020160010154915050919050565b6001016110c2565b5f60606111426127dc565b90939092509050565b5f8060055f9054906101000a90046001600160a01b03166001600160a01b031663bb3ba04c6040518163ffffffff1660e01b8152600401602060405180830381865afa15801561119d573d5f803e3d5ffd5b505050506040513d601f19601f820116820180604052508101906111c191906147d7565b90505f6001600160a01b031660055f9054906101000a90046001600160a01b03166001600160a01b031663bb3ba04c6040518163ffffffff1660e01b8152600401602060405180830381865afa15801561121d573d5f803e3d5ffd5b505050506040513d601f19601f8201168201806040525081019061124191906147d7565b6001600160a01b0316036112905760405162461bcd60e51b8152602060048201526016602482015275496e76616c6964206f7261636c65206164647265737360501b60448201526064016108ec565b60405163248391ff60e01b81526001600160a01b0386811660048301528581166024830152604482018590525f919083169063248391ff90606401602060405180830381865afa1580156112e6573d5f803e3d5ffd5b505050506040513d601f19601f8201168201806040525081019061130a91906148f7565b9695505050505050565b61131c61343d565b611325826134e1565b61132f82826134e9565b5050565b5f61133c6135a5565b505f80516020614c2a83398151915290565b5f8054606091906001600160401b0381111561136c5761136c614361565b604051908082528060200260200182016040528015611395578160200160208202803683370190505b5090505f5b5f54811015610a90575f81815481106113b5576113b5614845565b5f91825260209091206003909102015482516001600160a01b03909116908390839081106113e5576113e5614845565b6001600160a01b039092166020928302919091019091015260010161139a565b5f61140e6135ee565b600554604080516385462d6f60e01b815290515f926001600160a01b0316916385462d6f9160048083019260209291908290030181865afa158015611455573d5f803e3d5ffd5b505050506040513d601f19601f8201168201806040525081019061147991906148f7565b9050846001600160a01b0316866001600160a01b0316036114dc5760405162461bcd60e51b815260206004820152601a60248201527f43616e6e6f742073776170207468652073616d6520746f6b656e00000000000060448201526064016108ec565b5f841161152b5760405162461bcd60e51b815260206004820181905260248201527f416d6f756e74206d7573742062652067726561746572207468616e207a65726f60448201526064016108ec565b5f611537878787611f43565b9050806115438761202e565b101561158a5760405162461bcd60e51b8152602060048201526016602482015275496e73756666696369656e74204c697175696469747960501b60448201526064016108ec565b5f612710611598848461482e565b6115a2919061490e565b90506115ae818361492d565b93505f841161160d5760405162461bcd60e51b815260206004820152602560248201527f416d6f756e7420746f2073656e64206d75737420626520677265617465722074604482015264068616e20360dc1b60648201526084016108ec565b611615612b44565b866001600160a01b0316886001600160a01b0316866001600160a01b03167fcd3829a3813dc3cdd188fd3d01dcf3268c16be2fdd2dd21d0665418816e46062898860405161166d929190918252602082015260400190565b60405180910390a45050506116a160017f9b779b17422d0df92223018b32b4d1fa46e071723d6817e2486d003becc55f0055565b949350505050565b6001600160a01b03165f9081525f80516020614bea833981519152602052604090205490565b6116d7613638565b6116e05f613693565b565b6060805f806116ef6127dc565b5f549193509150806001600160401b0381111561170e5761170e614361565b604051908082528060200260200182016040528015611737578160200160208202803683370190505b509450806001600160401b0381111561175257611752614361565b60405190808252806020026020018201604052801561177b578160200160208202803683370190505b5093505f5b81811015611891575f8484838151811061179c5761179c614845565b60200260200101516127106117b1919061482e565b6117bb919061490e565b90505f8083815481106117d0576117d0614845565b905f5260205f2090600302016001015490508082111561183b576117f4818361492d565b87848151811061180657611806614845565b602002602001018181525050600188848151811061182657611826614845565b91151560209283029190910190910152611887565b611845828261492d565b87848151811061185757611857614845565b6020026020010181815250505f88848151811061187657611876614845565b911515602092830291909101909101525b5050600101611780565b505050509091565b60605f60055f9054906101000a90046001600160a01b03166001600160a01b0316631acb61416040518163ffffffff1660e01b8152600401602060405180830381865afa1580156118ec573d5f803e3d5ffd5b505050506040513d601f19601f8201168201806040525081019061191091906147d7565b9050336001600160a01b0382161461193a5760405162461bcd60e51b81526004016108ec906147f2565b600554604080516385462d6f60e01b815290515f926001600160a01b0316916385462d6f9160048083019260209291908290030181865afa158015611981573d5f803e3d5ffd5b505050506040513d601f19601f820116820180604052508101906119a591906148f7565b90505f60055f9054906101000a90046001600160a01b03166001600160a01b0316631acb61416040518163ffffffff1660e01b8152600401602060405180830381865afa1580156119f8573d5f803e3d5ffd5b505050506040513d601f19601f82011682018060405250810190611a1c91906147d7565b90505f611a28306116a9565b90505f8111611a795760405162461bcd60e51b815260206004820152601c60248201527f5368617265206d7573742062652067726561746572207468616e20300000000060448201526064016108ec565b5f611a8f5f80516020614c0a8339815191525490565b90505f8111611acf5760405162461bcd60e51b815260206004820152600c60248201526b4e6f206c697175696469747960a01b60448201526064016108ec565b5f80546001600160401b03811115611ae957611ae9614361565b604051908082528060200260200182016040528015611b12578160200160208202803683370190505b5090505f612710611b23878661482e565b611b2d919061490e565b90505f611b3a828661492d565b90505f5b5f54811015611c24575f876001600160a01b031663a3e113fb305f8581548110611b6a57611b6a614845565b5f91825260209091206003909102015460405160e084901b6001600160e01b03191681526001600160a01b03928316600482015291166024820152604401602060405180830381865afa158015611bc3573d5f803e3d5ffd5b505050506040513d601f19601f82011682018060405250810190611be791906148f7565b905085611bf4848361482e565b611bfe919061490e565b858381518110611c1057611c10614845565b602090810291909101015250600101611b3e565b5080611c2f306116a9565b1015611c7d5760405162461bcd60e51b815260206004820152601d60248201527f496e73756666696369656e742042414c554e49206c697175696469747900000060448201526064016108ec565b60055460408051631d8cf42560e11b815290515f926001600160a01b031691633b19e84a9160048083019260209291908290030181865afa158015611cc4573d5f803e3d5ffd5b505050506040513d601f19601f82011682018060405250810190611ce891906147d7565b60405163a9059cbb60e01b81526001600160a01b0382166004820152602481018590529091505f90309063a9059cbb906044016020604051808303815f875af1158015611d37573d5f803e3d5ffd5b505050506040513d601f19601f82011682018060405250810190611d5b9190614940565b905080611da05760405162461bcd60e51b8152602060048201526013602482015272119959481d1c985b9cd9995c8819985a5b1959606a1b60448201526064016108ec565b611daa3084613703565b611db2612b44565b8b6001600160a01b03167fcc16f5dbb4873280815c1ee09dbd06736cffcc184412cf7a71a0fdb75d397ca584604051611ded91815260200190565b60405180910390a250929a9950505050505050505050565b5f80611e0f6116e2565b9150505f5b5f54811015611e8257836001600160a01b03165f8281548110611e3957611e39614845565b5f9182526020909120600390910201546001600160a01b031603611e7a57818181518110611e6957611e69614845565b602002602001015192505050919050565b600101611e14565b505f9392505050565b5f805f611e966116e2565b915091505f5b8151811015611efc57828181518110611eb757611eb7614845565b60200260200101518015611ee55750600154828281518110611edb57611edb614845565b6020026020010151115b15611ef4576001935050505090565b600101611e9c565b505f9250505090565b7f52c63247e1f47db19d5ce0460030c497f067ca4cebf71ba98eeadabe20bace0480546060915f80516020614bea833981519152916107c9906147a5565b5f80611f5085858561114b565b90505f611f5c86610b97565b90505f611f6886610b97565b90505f611f74886110bf565b90505f611f80886110bf565b90505f612710611f90868861482e565b611f9a919061490e565b90505f612710611faa868961482e565b611fb4919061490e565b9050611fbf8b611e05565b841115611fd757611fd0828861492d565b9650611fe4565b611fe182886148e4565b96505b611fed8a611e05565b83101561200557611ffe81886148e4565b9650612012565b61200f818861492d565b96505b50949998505050505050505050565b5f33610b8b8185856133e0565b5f8060055f9054906101000a90046001600160a01b03166001600160a01b0316631acb61416040518163ffffffff1660e01b8152600401602060405180830381865afa158015612080573d5f803e3d5ffd5b505050506040513d601f19601f820116820180604052508101906120a491906147d7565b60405163a3e113fb60e01b81523060048201526001600160a01b0385811660248301529192509082169063a3e113fb90604401602060405180830381865afa1580156120f2573d5f803e3d5ffd5b505050506040513d601f19601f820116820180604052508101906110b891906148f7565b5f806121206127dc565b915050805183106121695760405162461bcd60e51b8152602060048201526013602482015272092dcecc2d8d2c840c2e6e6cae840d2dcc8caf606b1b60448201526064016108ec565b80838151811061217b5761217b614845565b6020026020010151915050919050565b5f8181548110612199575f80fd5b5f9182526020909120600390910201805460018201546002909201546001600160a01b03909116925083565b6001600160a01b039182165f9081527f52c63247e1f47db19d5ce0460030c497f067ca4cebf71ba98eeadabe20bace016020908152604080832093909416825291909152205490565b5f8060055f9054906101000a90046001600160a01b03166001600160a01b0316631acb61416040518163ffffffff1660e01b8152600401602060405180830381865afa158015612260573d5f803e3d5ffd5b505050506040513d601f19601f8201168201806040525081019061228491906147d7565b9050336001600160a01b038216146122ae5760405162461bcd60e51b81526004016108ec906147f2565b5f6122c45f80516020614c0a8339815191525490565b90505f806122d0610a96565b80515f54919250146123245760405162461bcd60e51b815260206004820152601760248201527f496e76616c6964207265736572766573206c656e67746800000000000000000060448201526064016108ec565b5f5461235e5760405162461bcd60e51b81526020600482015260096024820152684e6f2061737365747360b81b60448201526064016108ec565b5f5b5f548110156123f9575f80828154811061237c5761237c614845565b5f918252602082206003918202015490546001600160a01b0391821693501682036123bd578883815181106123b3576123b3614845565b506123f192505050565b6123e0828a85815181106123d3576123d3614845565b6020026020010151613737565b90506123ec81866148e4565b945050505b600101612360565b505f82116124545760405162461bcd60e51b815260206004820152602260248201527f546f74616c2076616c7565206d7573742062652067726561746572207468616e604482015261020360f41b60648201526084016108ec565b5f835f0361247057600454612469908461482e565b905061250e565b5f6124796127dc565b5090505f81116124da5760405162461bcd60e51b815260206004820152602660248201527f546f74616c206c6971756964697479206d75737420626520677265617465722060448201526507468616e20360d41b60648201526084016108ec565b6004546124e7908261482e565b85600454866124f6919061482e565b612500919061482e565b61250a919061490e565b9150505b805f0361254d5760405162461bcd60e51b815260206004820152600d60248201526c04d696e7420717479206973203609c1b60448201526064016108ec565b6125578882612b10565b61255f612b44565b876001600160a01b03167f0f6798a560793a54c3bcfe86a93cde1e73087d944c0ea20544137d41213968858260405161259a91815260200190565b60405180910390a2979650505050505050565b5f8060035f9054906101000a90046001600160a01b03166001600160a01b031663313ce5676040518163ffffffff1660e01b8152600401602060405180830381865afa1580156125ff573d5f803e3d5ffd5b505050506040513d601f19601f82011682018060405250810190612623919061495f565b60ff1690505f61263482601261492d565b61263f90600a614a5f565b90505f61264a6127dc565b5090505f6126635f80516020614c0a8339815191525490565b9050805f03612676575f94505050505090565b60025481612684858561482e565b61268e919061490e565b612698919061482e565b94505050505090565b6126a9613638565b6001600160a01b0381166126d257604051631e4fbdf760e01b81525f60048201526024016108ec565b6126db81613693565b50565b6060805f60055f9054906101000a90046001600160a01b03166001600160a01b0316631acb61416040518163ffffffff1660e01b8152600401602060405180830381865afa158015612732573d5f803e3d5ffd5b505050506040513d601f19601f8201168201806040525081019061275691906147d7565b9050336001600160a01b038216146127805760405162461bcd60e51b81526004016108ec906147f2565b612788611e8b565b6127cb5760405162461bcd60e51b8152602060048201526014602482015273149958985b185b98d9481b9bdd081b995959195960621b60448201526064016108ec565b6127d3613751565b92509250509091565b5f8054606090806001600160401b038111156127fa576127fa614361565b604051908082528060200260200182016040528015612823578160200160208202803683370190505b5091505f5b81811015612902575f80828154811061284357612843614845565b5f91825260208220600390910201546001600160a01b031691506128668261202e565b6003549091506001600160a01b03908116908316036128a3578085848151811061289257612892614845565b6020026020010181815250506128d1565b5f6128ae8383613737565b9050808685815181106128c3576128c3614845565b602002602001018181525050505b8483815181106128e3576128e3614845565b6020026020010151866128f691906148e4565b95505050600101612828565b50509091565b5f546060906001600160401b0381111561292457612924614361565b60405190808252806020026020018201604052801561294d578160200160208202803683370190505b5090505f5b5f54811015610cbd575f6127105f838154811061297157612971614845565b905f5260205f209060030201600101548661298c919061482e565b612996919061490e565b9050808483815181106129ab576129ab614845565b602002602001015110156129fd578382815181106129cb576129cb614845565b6020026020010151816129de919061492d565b8383815181106129f0576129f0614845565b6020026020010181815250505b50600101612952565b5f805b5f54811015610a9057828181518110612a2457612a24614845565b602002602001015182612a3791906148e4565b9150600101612a09565b6003545f805490916001600160a01b031690829085908110612a6557612a65614845565b5f9182526020909120600390910201546001600160a01b031603612a8a575080610b91565b5f612abf5f8581548110612aa057612aa0614845565b5f9182526020909120600390910201546001600160a01b031684613dd2565b90505f81116110b85760405162461bcd60e51b815260206004820152601b60248201527f496e76616c696420746f6b656e20616d6f756e7420746f20616464000000000060448201526064016108ec565b6001600160a01b038216612b395760405163ec442f0560e01b81525f60048201526024016108ec565b61132f5f8383613deb565b5f80612b4e6116e2565b915091505f60055f9054906101000a90046001600160a01b03166001600160a01b03166385462d6f6040518163ffffffff1660e01b8152600401602060405180830381865afa158015612ba3573d5f803e3d5ffd5b505050506040513d601f19601f82011682018060405250810190612bc791906148f7565b9050606461012c5f5b5f54811015612efc575f808281548110612bec57612bec614845565b905f5260205f20906003020160020154905083868381518110612c1157612c11614845565b602002602001015111612c4a57835f8381548110612c3157612c31614845565b905f5260205f2090600302016002018190555050612ef4565b868281518110612c5c57612c5c614845565b602002602001015115612d3a5783868381518110612c7c57612c7c614845565b6020026020010151612c8e919061490e565b5f8381548110612ca057612ca0614845565b905f5260205f2090600302016002015f828254612cbd91906148e4565b92505081905550805f8381548110612cd757612cd7614845565b905f5260205f209060030201600201541015612d355760405162461bcd60e51b815260206004820152601e60248201527f4f766572666c6f7720696e6372656d656e74696e6720736c697070616765000060448201526064016108ec565b612ea2565b858281518110612d4c57612d4c614845565b60200260200101515f8381548110612d6657612d66614845565b905f5260205f209060030201600201541115612e485783868381518110612d8f57612d8f614845565b6020026020010151612da1919061490e565b5f8381548110612db357612db3614845565b905f5260205f2090600302016002015f828254612dd0919061492d565b92505081905550805f8381548110612dea57612dea614845565b905f5260205f209060030201600201541115612d355760405162461bcd60e51b815260206004820152601f60248201527f556e646572666c6f772064656372656d656e74696e6720736c6970706167650060448201526064016108ec565b83868381518110612e5b57612e5b614845565b6020026020010151612e6d919061490e565b5f8381548110612e7f57612e7f614845565b905f5260205f2090600302016002015f828254612e9c91906148e4565b90915550505b825f8381548110612eb557612eb5614845565b905f5260205f209060030201600201541115612ef257825f8381548110612ede57612ede614845565b905f5260205f209060030201600201819055505b505b600101612bd0565b505050505050565b612f118383836001613f24565b505050565b612f1e614008565b6126db81614051565b612f2f614008565b61132f8282614059565b5f8060055f9054906101000a90046001600160a01b03166001600160a01b031663cff49d686040518163ffffffff1660e01b8152600401602060405180830381865afa158015612f8b573d5f803e3d5ffd5b505050506040513d601f19601f82011682018060405250810190612faf91906147d7565b90505f6001600160a01b031660055f9054906101000a90046001600160a01b03166001600160a01b031663cff49d686040518163ffffffff1660e01b8152600401602060405180830381865afa15801561300b573d5f803e3d5ffd5b505050506040513d601f19601f8201168201806040525081019061302f91906147d7565b6001600160a01b0316036130855760405162461bcd60e51b815260206004820152601a60248201527f496e76616c696420726562616c616e636572206164647265737300000000000060448201526064016108ec565b82518451146130e15760405162461bcd60e51b815260206004820152602260248201527f41737365747320616e642077656967687473206c656e677468206d69736d61746044820152610c6d60f31b60648201526084016108ec565b5f5b8451811015613372575f6001600160a01b031685828151811061310857613108614845565b60200260200101516001600160a01b03160361315e5760405162461bcd60e51b8152602060048201526015602482015274496e76616c6964206173736574206164647265737360581b60448201526064016108ec565b5f84828151811061317157613171614845565b6020026020010151116131b75760405162461bcd60e51b815260206004820152600e60248201526d125b9d985b1a59081dd95a59da1d60921b60448201526064016108ec565b5f60405180606001604052808784815181106131d5576131d5614845565b60200260200101516001600160a01b031681526020018684815181106131fd576131fd614845565b60209081029190910181015182525f918101829052835460018082018655948352818320845160039092020180546001600160a01b0319166001600160a01b039092169190911781559083015193810193909355604090910151600290920191909155855186908390811061327457613274614845565b6020908102919091010151604051636eb1769f60e11b81523060048201526001600160a01b0385811660248301529192509082169063dd62ed3e90604401602060405180830381865afa1580156132cd573d5f803e3d5ffd5b505050506040513d601f19601f820116820180604052508101906132f191906148f7565b5f036133695760405163095ea7b360e01b81526001600160a01b0384811660048301525f19602483015282169063095ea7b3906044016020604051808303815f875af1158015613343573d5f803e3d5ffd5b505050506040513d601f19601f820116820180604052508101906133679190614940565b505b506001016130e3565b506001949350505050565b5f61338884846121c5565b90505f1981146133da57818110156133cc57604051637dc7a0d960e11b81526001600160a01b038416600482015260248101829052604481018390526064016108ec565b6133da84848484035f613f24565b50505050565b6001600160a01b03831661340957604051634b637e8f60e11b81525f60048201526024016108ec565b6001600160a01b0382166134325760405163ec442f0560e01b81525f60048201526024016108ec565b612f11838383613deb565b306001600160a01b037f00000000000000000000000000000000000000000000000000000000000000001614806134c357507f00000000000000000000000000000000000000000000000000000000000000006001600160a01b03166134b75f80516020614c2a833981519152546001600160a01b031690565b6001600160a01b031614155b156116e05760405163703e46dd60e11b815260040160405180910390fd5b6126db613638565b816001600160a01b03166352d1902d6040518163ffffffff1660e01b8152600401602060405180830381865afa925050508015613543575060408051601f3d908101601f19168201909252613540918101906148f7565b60015b61356b57604051634c9c8ce360e01b81526001600160a01b03831660048201526024016108ec565b5f80516020614c2a833981519152811461359b57604051632a87526960e21b8152600481018290526024016108ec565b612f1183836140a9565b306001600160a01b037f000000000000000000000000000000000000000000000000000000000000000016146116e05760405163703e46dd60e11b815260040160405180910390fd5b7f9b779b17422d0df92223018b32b4d1fa46e071723d6817e2486d003becc55f0080546001190161363257604051633ee5aeb560e01b815260040160405180910390fd5b60029055565b3361366a7f9016d09d72d40fdae2fd8ceac6b6234c7706214fd39c1cd1e609a0528c199300546001600160a01b031690565b6001600160a01b0316146116e05760405163118cdaa760e01b81523360048201526024016108ec565b7f9016d09d72d40fdae2fd8ceac6b6234c7706214fd39c1cd1e609a0528c19930080546001600160a01b031981166001600160a01b03848116918217845560405192169182907f8be0079c531659141344cd1fd0a4f28419497f9722a3daafe3b4186f6b6457e0905f90a3505050565b6001600160a01b03821661372c57604051634b637e8f60e11b81525f60048201526024016108ec565b61132f825f83613deb565b6003545f906110b89084906001600160a01b03168461114b565b6060805f60055f9054906101000a90046001600160a01b03166001600160a01b0316631acb61416040518163ffffffff1660e01b8152600401602060405180830381865afa1580156137a5573d5f803e3d5ffd5b505050506040513d601f19601f820116820180604052508101906137c991906147d7565b90505f60055f9054906101000a90046001600160a01b03166001600160a01b031663cff49d686040518163ffffffff1660e01b8152600401602060405180830381865afa15801561381c573d5f803e3d5ffd5b505050506040513d601f19601f8201168201806040525081019061384091906147d7565b5f8054919250906001600160401b0381111561385e5761385e614361565b604051908082528060200260200182016040528015613887578160200160208202803683370190505b505f8054919250906001600160401b038111156138a6576138a6614361565b6040519080825280602002602001820160405280156138cf578160200160208202803683370190505b505f8054919250906001600160401b038111156138ee576138ee614361565b604051908082528060200260200182016040528015613917578160200160208202803683370190505b505f8054919250906001600160401b0381111561393657613936614361565b60405190808252806020026020018201604052801561395f578160200160208202803683370190505b505f8054919250906001600160401b0381111561397e5761397e614361565b6040519080825280602002602001820160405280156139a7578160200160208202803683370190505b505f8054919250906001600160401b038111156139c6576139c6614361565b6040519080825280602002602001820160405280156139ef578160200160208202803683370190505b5090505f5b5f54811015613b4a575f8181548110613a0f57613a0f614845565b5f91825260209091206003909102015487516001600160a01b0390911690889083908110613a3f57613a3f614845565b60200260200101906001600160a01b031690816001600160a01b0316815250505f8181548110613a7157613a71614845565b905f5260205f20906003020160010154868281518110613a9357613a93614845565b602002602001018181525050868181518110613ab157613ab1614845565b60209081029190910101516040516370a0823160e01b81526001600160a01b038b81166004830152909116906370a0823190602401602060405180830381865afa158015613b01573d5f803e3d5ffd5b505050506040513d601f19601f82011682018060405250810190613b2591906148f7565b858281518110613b3757613b37614845565b60209081029190910101526001016139f4565b505f613b54610a96565b9050876001600160a01b031663f0bf77148289896001548e8f60035f9054906101000a90046001600160a01b03166040518863ffffffff1660e01b8152600401613ba49796959493929190614a6a565b5f604051808303815f87803b158015613bbb575f80fd5b505af1158015613bcd573d5f803e3d5ffd5b505050505f5b5f54811015613d8057878181518110613bee57613bee614845565b60209081029190910101516040516370a0823160e01b81526001600160a01b038c81166004830152909116906370a0823190602401602060405180830381865afa158015613c3e573d5f803e3d5ffd5b505050506040513d601f19601f82011682018060405250810190613c6291906148f7565b858281518110613c7457613c74614845565b602002602001018181525050858181518110613c9257613c92614845565b6020026020010151858281518110613cac57613cac614845565b60200260200101511115613d1b57858181518110613ccc57613ccc614845565b6020026020010151858281518110613ce657613ce6614845565b6020026020010151613cf8919061492d565b848281518110613d0a57613d0a614845565b602002602001018181525050613d78565b848181518110613d2d57613d2d614845565b6020026020010151868281518110613d4757613d47614845565b6020026020010151613d59919061492d565b838281518110613d6b57613d6b614845565b6020026020010181815250505b600101613bd3565b50336001600160a01b03167f279b343370f587af7fb675ae7c8578e9c8abcc373236ad02c501a4771fe7a7b888604051613dba9190614636565b60405180910390a25090999098509650505050505050565b6003545f906110b8906001600160a01b0316848461114b565b5f80516020614bea8339815191526001600160a01b038416613e255781816002015f828254613e1a91906148e4565b90915550613e959050565b6001600160a01b0384165f9081526020829052604090205482811015613e775760405163391434e360e21b81526001600160a01b038616600482015260248101829052604481018490526064016108ec565b6001600160a01b0385165f9081526020839052604090209083900390555b6001600160a01b038316613eb3576002810180548390039055613ed1565b6001600160a01b0383165f9081526020829052604090208054830190555b826001600160a01b0316846001600160a01b03167fddf252ad1be2c89b69c2b068fc378daa952ba7f163c4a11628f55a4df523b3ef84604051613f1691815260200190565b60405180910390a350505050565b5f80516020614bea8339815191526001600160a01b038516613f5b5760405163e602df0560e01b81525f60048201526024016108ec565b6001600160a01b038416613f8457604051634a1406b160e11b81525f60048201526024016108ec565b6001600160a01b038086165f9081526001830160209081526040808320938816835292905220839055811561400157836001600160a01b0316856001600160a01b03167f8c5be1e5ebec7d5bd14f71427d1e84f3dd0314c0f7b2291e5b200ac8c7c3b92585604051613ff891815260200190565b60405180910390a35b5050505050565b7ff0c57e16840df040f15088dc2f81fe391c3923bec73e23a9662efc9c229c6a0054600160401b900460ff166116e057604051631afcd79f60e31b815260040160405180910390fd5b6126a9614008565b614061614008565b5f80516020614bea8339815191527f52c63247e1f47db19d5ce0460030c497f067ca4cebf71ba98eeadabe20bace0361409a8482614b18565b50600481016133da8382614b18565b6140b2826140fe565b6040516001600160a01b038316907fbc7cd75a20ee27fd9adebab32041f755214dbc6bffa90cc0225b39da2e5c2d3b905f90a28051156140f657612f118282614161565b61132f6141d3565b806001600160a01b03163b5f0361413357604051634c9c8ce360e01b81526001600160a01b03821660048201526024016108ec565b5f80516020614c2a83398151915280546001600160a01b0319166001600160a01b0392909216919091179055565b60605f80846001600160a01b03168460405161417d9190614bd3565b5f60405180830381855af49150503d805f81146141b5576040519150601f19603f3d011682016040523d82523d5f602084013e6141ba565b606091505b50915091506141ca8583836141f2565b95945050505050565b34156116e05760405163b398979f60e01b815260040160405180910390fd5b606082614207576142028261424e565b6110b8565b815115801561421e57506001600160a01b0384163b155b1561424757604051639996b31560e01b81526001600160a01b03851660048201526024016108ec565b50806110b8565b80511561425e5780518082602001fd5b604051630a12f52160e11b815260040160405180910390fd5b602081525f82518060208401528060208501604085015e5f604082850101526040601f19601f83011684010191505092915050565b6001600160a01b03811681146126db575f80fd5b80356142cb816142ac565b919050565b5f602082840312156142e0575f80fd5b81356110b8816142ac565b5f815180845260208085019450602084015f5b8381101561431a578151875295820195908201906001016142fe565b509495945050505050565b602081525f6110b860208301846142eb565b5f8060408385031215614348575f80fd5b8235614353816142ac565b946020939093013593505050565b634e487b7160e01b5f52604160045260245ffd5b604051601f8201601f191681016001600160401b038111828210171561439d5761439d614361565b604052919050565b5f6001600160401b038211156143bd576143bd614361565b5060051b60200190565b5f82601f8301126143d6575f80fd5b813560206143eb6143e6836143a5565b614375565b8083825260208201915060208460051b87010193508684111561440c575f80fd5b602086015b848110156144285780358352918301918301614411565b509695505050505050565b5f805f8060808587031215614446575f80fd5b84356001600160401b038082111561445c575f80fd5b818701915087601f83011261446f575f80fd5b8135602061447f6143e6836143a5565b82815260059290921b8401810191818101908b84111561449d575f80fd5b948201945b838610156144c45785356144b5816142ac565b825294820194908201906144a2565b985050880135925050808211156144d9575f80fd5b506144e6878288016143c7565b935050604085013591506144fc606086016142c0565b905092959194509250565b5f805f60608486031215614519575f80fd5b8335614524816142ac565b92506020840135614534816142ac565b929592945050506040919091013590565b828152604060208201525f6116a160408301846142eb565b5f806040838503121561456e575f80fd5b8235614579816142ac565b91506020838101356001600160401b0380821115614595575f80fd5b818601915086601f8301126145a8575f80fd5b8135818111156145ba576145ba614361565b6145cc601f8201601f19168501614375565b915080825287848285010111156145e1575f80fd5b80848401858401375f848284010152508093505050509250929050565b5f815180845260208085019450602084015f5b8381101561431a5781516001600160a01b031687529582019590820190600101614611565b602081525f6110b860208301846145fe565b5f805f806080858703121561465b575f80fd5b8435614666816142ac565b93506020850135614676816142ac565b925060408501359150606085013561468d816142ac565b939692955090935050565b604080825283519082018190525f906020906060840190828701845b828110156146d25781511515845292840192908401906001016146b4565b505050838103602085015261130a81866142eb565b5f602082840312156146f7575f80fd5b5035919050565b5f806040838503121561470f575f80fd5b823561471a816142ac565b9150602083013561472a816142ac565b809150509250929050565b5f8060408385031215614746575f80fd5b8235614751816142ac565b915060208301356001600160401b0381111561476b575f80fd5b614777858286016143c7565b9150509250929050565b604081525f61479360408301856142eb565b82810360208401526141ca81856142eb565b600181811c908216806147b957607f821691505b602082108103610a9057634e487b7160e01b5f52602260045260245ffd5b5f602082840312156147e7575f80fd5b81516110b8816142ac565b6020808252600e908201526d4f6e6c792050657269706865727960901b604082015260600190565b634e487b7160e01b5f52601160045260245ffd5b8082028115828204841417610b9157610b9161481a565b634e487b7160e01b5f52603260045260245ffd5b5f602080838503121561486a575f80fd5b82516001600160401b0381111561487f575f80fd5b8301601f8101851361488f575f80fd5b805161489d6143e6826143a5565b81815260059190911b820183019083810190878311156148bb575f80fd5b928401925b828410156148d9578351825292840192908401906148c0565b979650505050505050565b80820180821115610b9157610b9161481a565b5f60208284031215614907575f80fd5b5051919050565b5f8261492857634e487b7160e01b5f52601260045260245ffd5b500490565b81810381811115610b9157610b9161481a565b5f60208284031215614950575f80fd5b815180151581146110b8575f80fd5b5f6020828403121561496f575f80fd5b815160ff811681146110b8575f80fd5b600181815b808511156149b957815f190482111561499f5761499f61481a565b808516156149ac57918102915b93841c9390800290614984565b509250929050565b5f826149cf57506001610b91565b816149db57505f610b91565b81600181146149f157600281146149fb57614a17565b6001915050610b91565b60ff841115614a0c57614a0c61481a565b50506001821b610b91565b5060208310610133831016604e8410600b8410161715614a3a575081810a610b91565b614a44838361497f565b805f1904821115614a5757614a5761481a565b029392505050565b5f6110b883836149c1565b60e081525f614a7c60e083018a6142eb565b8281036020840152614a8e818a6145fe565b90508281036040840152614aa281896142eb565b606084019790975250506001600160a01b03938416608082015291831660a083015290911660c0909101529392505050565b601f821115612f1157805f5260205f20601f840160051c81016020851015614af95750805b601f840160051c820191505b81811015614001575f8155600101614b05565b81516001600160401b03811115614b3157614b31614361565b614b4581614b3f84546147a5565b84614ad4565b602080601f831160018114614b78575f8415614b615750858301515b5f19600386901b1c1916600185901b178555612efc565b5f85815260208120601f198616915b82811015614ba657888601518255948401946001909101908401614b87565b5085821015614bc357878501515f19600388901b60f8161c191681555b5050505050600190811b01905550565b5f82518060208501845e5f92019182525091905056fe52c63247e1f47db19d5ce0460030c497f067ca4cebf71ba98eeadabe20bace0052c63247e1f47db19d5ce0460030c497f067ca4cebf71ba98eeadabe20bace02360894a13ba1a3210667c828492db98dca3e2076cc3735a920a3ca505d382bbca26469706673582212205869ddb05f65d18f381ca05df137a88adf80147fc96054bf41b973faac86e45964736f6c63430008190033",
    "sourcePath": "c:/Users/Utente/Source/repos/baluni-contracts/contracts/BaluniV1Pool.sol",
    "compiler": {
        "name": "solc",
        "version": "0.8.25+commit.b61c2a91"
    },
    "functionHashes": {
        "ONE()": "c2ee3a08",
        "UPGRADE_INTERFACE_VERSION()": "ad3cb1cc",
        "allowance(address,address)": "dd62ed3e",
        "approve(address,uint256)": "095ea7b3",
        "assetInfos(uint256)": "d14ef46d",
        "assetLiquidity(uint256)": "cf8fa764",
        "balanceOf(address)": "70a08231",
        "baseAsset()": "cdf456e1",
        "burn(address)": "89afcb44",
        "computeTotalValuation()": "36bf6e39",
        "decimals()": "313ce567",
        "getAmountOut(address,address,uint256)": "4aa06652",
        "getAmountOutWithSlippage(address,address,uint256)": "a1f241cc",
        "getAssetReserve(address)": "b2b55d70",
        "getAssets()": "67e4ac2c",
        "getDeviation()": "89ab3532",
        "getDeviationForToken(address)": "89b3179b",
        "getReserves()": "0902f1ac",
        "getSlippage(address)": "12899068",
        "getSlippages()": "18904ea4",
        "getTokenWeight(address)": "250aa683",
        "getWeights()": "22acb867",
        "initialize(address[],uint256[],uint256,address)": "228835ac",
        "isRebalanceNeeded()": "8a77c8dc",
        "liquidity()": "1a686502",
        "mint(address,uint256[])": "de836ebd",
        "name()": "06fdde03",
        "owner()": "8da5cb5b",
        "performRebalanceIfNeeded()": "f47b45e8",
        "proxiableUUID()": "52d1902d",
        "rebalanceWeights(address)": "0723c999",
        "registry()": "7b103999",
        "renounceOwnership()": "715018a6",
        "swap(address,address,uint256,address)": "6e81221c",
        "symbol()": "95d89b41",
        "totalSupply()": "18160ddd",
        "transfer(address,uint256)": "a9059cbb",
        "transferFrom(address,address,uint256)": "23b872dd",
        "transferOwnership(address)": "f2fde38b",
        "trigger()": "7fec8d38",
        "unitPrice()": "e73faa2d",
        "upgradeToAndCall(address,bytes)": "4f1ef286"
    },
    "gasEstimates": {
        "creation": {
            "codeDepositCost": "3916600",
            "executionCost": "infinite",
            "totalCost": "infinite"
        },
        "external": {
            "ONE()": "2383",
            "UPGRADE_INTERFACE_VERSION()": "infinite",
            "allowance(address,address)": "infinite",
            "approve(address,uint256)": "infinite",
            "assetInfos(uint256)": "8940",
            "assetLiquidity(uint256)": "infinite",
            "balanceOf(address)": "infinite",
            "baseAsset()": "2447",
            "burn(address)": "infinite",
            "computeTotalValuation()": "infinite",
            "decimals()": "266",
            "getAmountOut(address,address,uint256)": "infinite",
            "getAmountOutWithSlippage(address,address,uint256)": "infinite",
            "getAssetReserve(address)": "infinite",
            "getAssets()": "infinite",
            "getDeviation()": "infinite",
            "getDeviationForToken(address)": "infinite",
            "getReserves()": "infinite",
            "getSlippage(address)": "infinite",
            "getSlippages()": "infinite",
            "getTokenWeight(address)": "infinite",
            "getWeights()": "infinite",
            "initialize(address[],uint256[],uint256,address)": "infinite",
            "isRebalanceNeeded()": "infinite",
            "liquidity()": "infinite",
            "mint(address,uint256[])": "infinite",
            "name()": "infinite",
            "owner()": "2397",
            "performRebalanceIfNeeded()": "infinite",
            "proxiableUUID()": "infinite",
            "rebalanceWeights(address)": "infinite",
            "registry()": "2382",
            "renounceOwnership()": "infinite",
            "swap(address,address,uint256,address)": "infinite",
            "symbol()": "infinite",
            "totalSupply()": "infinite",
            "transfer(address,uint256)": "infinite",
            "transferFrom(address,address,uint256)": "infinite",
            "transferOwnership(address)": "infinite",
            "trigger()": "2362",
            "unitPrice()": "infinite",
            "upgradeToAndCall(address,bytes)": "infinite"
        },
        "internal": {
            "_authorizeUpgrade(address)": "infinite",
            "_calculateAmountsToAdd(uint256,uint256[] memory)": "infinite",
            "_calculateLiquidity(uint256,uint256)": "infinite",
            "_calculateTotalAddedLiquidity(uint256[] memory)": "infinite",
            "_computeTotalValuation()": "infinite",
            "_convertBaseToToken(address,uint256)": "infinite",
            "_convertTokenToBase(address,uint256)": "infinite",
            "_performRebalanceIfNeeded()": "infinite",
            "initializeAssets(address[] memory,uint256[] memory)": "infinite",
            "updateSlippage()": "infinite"
        }
    }
}