{
    "contractName": "BaluniV1Router",
    "abi": [
        {
            "inputs": [
                {
                    "internalType": "address",
                    "name": "target",
                    "type": "address"
                }
            ],
            "name": "AddressEmptyCode",
            "type": "error"
        },
        {
            "inputs": [
                {
                    "internalType": "address",
                    "name": "implementation",
                    "type": "address"
                }
            ],
            "name": "ERC1967InvalidImplementation",
            "type": "error"
        },
        {
            "inputs": [],
            "name": "ERC1967NonPayable",
            "type": "error"
        },
        {
            "inputs": [
                {
                    "internalType": "address",
                    "name": "spender",
                    "type": "address"
                },
                {
                    "internalType": "uint256",
                    "name": "allowance",
                    "type": "uint256"
                },
                {
                    "internalType": "uint256",
                    "name": "needed",
                    "type": "uint256"
                }
            ],
            "name": "ERC20InsufficientAllowance",
            "type": "error"
        },
        {
            "inputs": [
                {
                    "internalType": "address",
                    "name": "sender",
                    "type": "address"
                },
                {
                    "internalType": "uint256",
                    "name": "balance",
                    "type": "uint256"
                },
                {
                    "internalType": "uint256",
                    "name": "needed",
                    "type": "uint256"
                }
            ],
            "name": "ERC20InsufficientBalance",
            "type": "error"
        },
        {
            "inputs": [
                {
                    "internalType": "address",
                    "name": "approver",
                    "type": "address"
                }
            ],
            "name": "ERC20InvalidApprover",
            "type": "error"
        },
        {
            "inputs": [
                {
                    "internalType": "address",
                    "name": "receiver",
                    "type": "address"
                }
            ],
            "name": "ERC20InvalidReceiver",
            "type": "error"
        },
        {
            "inputs": [
                {
                    "internalType": "address",
                    "name": "sender",
                    "type": "address"
                }
            ],
            "name": "ERC20InvalidSender",
            "type": "error"
        },
        {
            "inputs": [
                {
                    "internalType": "address",
                    "name": "spender",
                    "type": "address"
                }
            ],
            "name": "ERC20InvalidSpender",
            "type": "error"
        },
        {
            "inputs": [],
            "name": "FailedInnerCall",
            "type": "error"
        },
        {
            "inputs": [],
            "name": "InvalidInitialization",
            "type": "error"
        },
        {
            "inputs": [],
            "name": "NotInitializing",
            "type": "error"
        },
        {
            "inputs": [
                {
                    "internalType": "address",
                    "name": "owner",
                    "type": "address"
                }
            ],
            "name": "OwnableInvalidOwner",
            "type": "error"
        },
        {
            "inputs": [
                {
                    "internalType": "address",
                    "name": "account",
                    "type": "address"
                }
            ],
            "name": "OwnableUnauthorizedAccount",
            "type": "error"
        },
        {
            "inputs": [],
            "name": "ReentrancyGuardReentrantCall",
            "type": "error"
        },
        {
            "inputs": [],
            "name": "UUPSUnauthorizedCallContext",
            "type": "error"
        },
        {
            "inputs": [
                {
                    "internalType": "bytes32",
                    "name": "slot",
                    "type": "bytes32"
                }
            ],
            "name": "UUPSUnsupportedProxiableUUID",
            "type": "error"
        },
        {
            "anonymous": false,
            "inputs": [
                {
                    "indexed": true,
                    "internalType": "address",
                    "name": "owner",
                    "type": "address"
                },
                {
                    "indexed": true,
                    "internalType": "address",
                    "name": "spender",
                    "type": "address"
                },
                {
                    "indexed": false,
                    "internalType": "uint256",
                    "name": "value",
                    "type": "uint256"
                }
            ],
            "name": "Approval",
            "type": "event"
        },
        {
            "anonymous": false,
            "inputs": [
                {
                    "indexed": false,
                    "internalType": "address",
                    "name": "user",
                    "type": "address"
                },
                {
                    "indexed": false,
                    "internalType": "uint256",
                    "name": "value",
                    "type": "uint256"
                }
            ],
            "name": "Burn",
            "type": "event"
        },
        {
            "anonymous": false,
            "inputs": [
                {
                    "indexed": false,
                    "internalType": "address",
                    "name": "user",
                    "type": "address"
                },
                {
                    "components": [
                        {
                            "internalType": "address",
                            "name": "to",
                            "type": "address"
                        },
                        {
                            "internalType": "uint256",
                            "name": "value",
                            "type": "uint256"
                        },
                        {
                            "internalType": "bytes",
                            "name": "data",
                            "type": "bytes"
                        }
                    ],
                    "indexed": false,
                    "internalType": "struct IBaluniV1Agent.Call[]",
                    "name": "calls",
                    "type": "tuple[]"
                },
                {
                    "indexed": false,
                    "internalType": "address[]",
                    "name": "tokensReturn",
                    "type": "address[]"
                }
            ],
            "name": "Execute",
            "type": "event"
        },
        {
            "anonymous": false,
            "inputs": [
                {
                    "indexed": false,
                    "internalType": "uint64",
                    "name": "version",
                    "type": "uint64"
                }
            ],
            "name": "Initialized",
            "type": "event"
        },
        {
            "anonymous": false,
            "inputs": [
                {
                    "indexed": false,
                    "internalType": "string",
                    "name": "message",
                    "type": "string"
                },
                {
                    "indexed": false,
                    "internalType": "uint256",
                    "name": "value",
                    "type": "uint256"
                }
            ],
            "name": "Log",
            "type": "event"
        },
        {
            "anonymous": false,
            "inputs": [
                {
                    "indexed": false,
                    "internalType": "address",
                    "name": "user",
                    "type": "address"
                },
                {
                    "indexed": false,
                    "internalType": "uint256",
                    "name": "value",
                    "type": "uint256"
                }
            ],
            "name": "Mint",
            "type": "event"
        },
        {
            "anonymous": false,
            "inputs": [
                {
                    "indexed": true,
                    "internalType": "address",
                    "name": "previousOwner",
                    "type": "address"
                },
                {
                    "indexed": true,
                    "internalType": "address",
                    "name": "newOwner",
                    "type": "address"
                }
            ],
            "name": "OwnershipTransferred",
            "type": "event"
        },
        {
            "anonymous": false,
            "inputs": [
                {
                    "indexed": true,
                    "internalType": "address",
                    "name": "from",
                    "type": "address"
                },
                {
                    "indexed": true,
                    "internalType": "address",
                    "name": "to",
                    "type": "address"
                },
                {
                    "indexed": false,
                    "internalType": "uint256",
                    "name": "value",
                    "type": "uint256"
                }
            ],
            "name": "Transfer",
            "type": "event"
        },
        {
            "anonymous": false,
            "inputs": [
                {
                    "indexed": true,
                    "internalType": "address",
                    "name": "implementation",
                    "type": "address"
                }
            ],
            "name": "Upgraded",
            "type": "event"
        },
        {
            "inputs": [],
            "name": "UPGRADE_INTERFACE_VERSION",
            "outputs": [
                {
                    "internalType": "string",
                    "name": "",
                    "type": "string"
                }
            ],
            "stateMutability": "view",
            "type": "function"
        },
        {
            "inputs": [],
            "name": "_BPS_BASE",
            "outputs": [
                {
                    "internalType": "uint256",
                    "name": "",
                    "type": "uint256"
                }
            ],
            "stateMutability": "view",
            "type": "function"
        },
        {
            "inputs": [],
            "name": "_BPS_FEE",
            "outputs": [
                {
                    "internalType": "uint256",
                    "name": "",
                    "type": "uint256"
                }
            ],
            "stateMutability": "view",
            "type": "function"
        },
        {
            "inputs": [],
            "name": "_MAX_BPS_FEE",
            "outputs": [
                {
                    "internalType": "uint256",
                    "name": "",
                    "type": "uint256"
                }
            ],
            "stateMutability": "view",
            "type": "function"
        },
        {
            "inputs": [
                {
                    "internalType": "address",
                    "name": "owner",
                    "type": "address"
                },
                {
                    "internalType": "address",
                    "name": "spender",
                    "type": "address"
                }
            ],
            "name": "allowance",
            "outputs": [
                {
                    "internalType": "uint256",
                    "name": "",
                    "type": "uint256"
                }
            ],
            "stateMutability": "view",
            "type": "function"
        },
        {
            "inputs": [
                {
                    "internalType": "address",
                    "name": "spender",
                    "type": "address"
                },
                {
                    "internalType": "uint256",
                    "name": "value",
                    "type": "uint256"
                }
            ],
            "name": "approve",
            "outputs": [
                {
                    "internalType": "bool",
                    "name": "",
                    "type": "bool"
                }
            ],
            "stateMutability": "nonpayable",
            "type": "function"
        },
        {
            "inputs": [
                {
                    "internalType": "address",
                    "name": "account",
                    "type": "address"
                }
            ],
            "name": "balanceOf",
            "outputs": [
                {
                    "internalType": "uint256",
                    "name": "",
                    "type": "uint256"
                }
            ],
            "stateMutability": "view",
            "type": "function"
        },
        {
            "inputs": [
                {
                    "internalType": "uint256",
                    "name": "burnAmount",
                    "type": "uint256"
                }
            ],
            "name": "burnERC20",
            "outputs": [],
            "stateMutability": "nonpayable",
            "type": "function"
        },
        {
            "inputs": [
                {
                    "internalType": "uint256",
                    "name": "burnAmount",
                    "type": "uint256"
                }
            ],
            "name": "burnUSDC",
            "outputs": [],
            "stateMutability": "nonpayable",
            "type": "function"
        },
        {
            "inputs": [
                {
                    "internalType": "uint256",
                    "name": "totalBaluni",
                    "type": "uint256"
                },
                {
                    "internalType": "uint256",
                    "name": "totalERC20Balance",
                    "type": "uint256"
                },
                {
                    "internalType": "uint256",
                    "name": "baluniAmount",
                    "type": "uint256"
                },
                {
                    "internalType": "uint256",
                    "name": "tokenDecimals",
                    "type": "uint256"
                }
            ],
            "name": "calculateTokenShare",
            "outputs": [
                {
                    "internalType": "uint256",
                    "name": "",
                    "type": "uint256"
                }
            ],
            "stateMutability": "pure",
            "type": "function"
        },
        {
            "inputs": [
                {
                    "internalType": "address[]",
                    "name": "assets",
                    "type": "address[]"
                },
                {
                    "internalType": "uint256[]",
                    "name": "weights",
                    "type": "uint256[]"
                },
                {
                    "internalType": "address",
                    "name": "sender",
                    "type": "address"
                },
                {
                    "internalType": "address",
                    "name": "receiver",
                    "type": "address"
                },
                {
                    "internalType": "uint256",
                    "name": "limit",
                    "type": "uint256"
                },
                {
                    "internalType": "address",
                    "name": "",
                    "type": "address"
                }
            ],
            "name": "callRebalance",
            "outputs": [],
            "stateMutability": "nonpayable",
            "type": "function"
        },
        {
            "inputs": [
                {
                    "internalType": "address",
                    "name": "_agentFactory",
                    "type": "address"
                }
            ],
            "name": "changeAgentFactory",
            "outputs": [],
            "stateMutability": "nonpayable",
            "type": "function"
        },
        {
            "inputs": [
                {
                    "internalType": "uint256",
                    "name": "_newFee",
                    "type": "uint256"
                }
            ],
            "name": "changeBpsFee",
            "outputs": [],
            "stateMutability": "nonpayable",
            "type": "function"
        },
        {
            "inputs": [
                {
                    "internalType": "address",
                    "name": "_newRebalancer",
                    "type": "address"
                }
            ],
            "name": "changeRebalancer",
            "outputs": [],
            "stateMutability": "nonpayable",
            "type": "function"
        },
        {
            "inputs": [
                {
                    "internalType": "address",
                    "name": "_newTreasury",
                    "type": "address"
                }
            ],
            "name": "changeTreasury",
            "outputs": [],
            "stateMutability": "nonpayable",
            "type": "function"
        },
        {
            "inputs": [],
            "name": "decimals",
            "outputs": [
                {
                    "internalType": "uint8",
                    "name": "",
                    "type": "uint8"
                }
            ],
            "stateMutability": "view",
            "type": "function"
        },
        {
            "inputs": [
                {
                    "components": [
                        {
                            "internalType": "address",
                            "name": "to",
                            "type": "address"
                        },
                        {
                            "internalType": "uint256",
                            "name": "value",
                            "type": "uint256"
                        },
                        {
                            "internalType": "bytes",
                            "name": "data",
                            "type": "bytes"
                        }
                    ],
                    "internalType": "struct IBaluniV1Agent.Call[]",
                    "name": "calls",
                    "type": "tuple[]"
                },
                {
                    "internalType": "address[]",
                    "name": "tokensReturn",
                    "type": "address[]"
                }
            ],
            "name": "execute",
            "outputs": [],
            "stateMutability": "nonpayable",
            "type": "function"
        },
        {
            "inputs": [
                {
                    "internalType": "address",
                    "name": "_user",
                    "type": "address"
                }
            ],
            "name": "getAgentAddress",
            "outputs": [
                {
                    "internalType": "address",
                    "name": "",
                    "type": "address"
                }
            ],
            "stateMutability": "view",
            "type": "function"
        },
        {
            "inputs": [],
            "name": "getTokens",
            "outputs": [
                {
                    "internalType": "address[]",
                    "name": "",
                    "type": "address[]"
                }
            ],
            "stateMutability": "view",
            "type": "function"
        },
        {
            "inputs": [
                {
                    "internalType": "uint256",
                    "name": "amount",
                    "type": "uint256"
                }
            ],
            "name": "getUSDCShareValue",
            "outputs": [
                {
                    "internalType": "uint256",
                    "name": "",
                    "type": "uint256"
                }
            ],
            "stateMutability": "view",
            "type": "function"
        },
        {
            "inputs": [],
            "name": "getVersion",
            "outputs": [
                {
                    "internalType": "uint64",
                    "name": "",
                    "type": "uint64"
                }
            ],
            "stateMutability": "view",
            "type": "function"
        },
        {
            "inputs": [
                {
                    "internalType": "address",
                    "name": "_usdc",
                    "type": "address"
                },
                {
                    "internalType": "address",
                    "name": "_wnative",
                    "type": "address"
                },
                {
                    "internalType": "address",
                    "name": "_1inchSpotAgg",
                    "type": "address"
                },
                {
                    "internalType": "address",
                    "name": "_uniRouter",
                    "type": "address"
                },
                {
                    "internalType": "address",
                    "name": "_uniFactory",
                    "type": "address"
                },
                {
                    "internalType": "address",
                    "name": "_rebalancer",
                    "type": "address"
                }
            ],
            "name": "initialize",
            "outputs": [],
            "stateMutability": "nonpayable",
            "type": "function"
        },
        {
            "inputs": [
                {
                    "internalType": "address",
                    "name": "token",
                    "type": "address"
                }
            ],
            "name": "liquidate",
            "outputs": [],
            "stateMutability": "nonpayable",
            "type": "function"
        },
        {
            "inputs": [],
            "name": "liquidateAll",
            "outputs": [],
            "stateMutability": "nonpayable",
            "type": "function"
        },
        {
            "inputs": [
                {
                    "internalType": "uint256",
                    "name": "balAmountToMint",
                    "type": "uint256"
                }
            ],
            "name": "mintWithUSDC",
            "outputs": [],
            "stateMutability": "nonpayable",
            "type": "function"
        },
        {
            "inputs": [
                {
                    "internalType": "address",
                    "name": "token0",
                    "type": "address"
                },
                {
                    "internalType": "address",
                    "name": "token1",
                    "type": "address"
                },
                {
                    "internalType": "address",
                    "name": "token2",
                    "type": "address"
                },
                {
                    "internalType": "uint256",
                    "name": "amount",
                    "type": "uint256"
                },
                {
                    "internalType": "address",
                    "name": "receiver",
                    "type": "address"
                }
            ],
            "name": "multiHopSwap",
            "outputs": [
                {
                    "internalType": "uint256",
                    "name": "amountOut",
                    "type": "uint256"
                }
            ],
            "stateMutability": "nonpayable",
            "type": "function"
        },
        {
            "inputs": [],
            "name": "name",
            "outputs": [
                {
                    "internalType": "string",
                    "name": "",
                    "type": "string"
                }
            ],
            "stateMutability": "view",
            "type": "function"
        },
        {
            "inputs": [],
            "name": "owner",
            "outputs": [
                {
                    "internalType": "address",
                    "name": "",
                    "type": "address"
                }
            ],
            "stateMutability": "view",
            "type": "function"
        },
        {
            "inputs": [],
            "name": "proxiableUUID",
            "outputs": [
                {
                    "internalType": "bytes32",
                    "name": "",
                    "type": "bytes32"
                }
            ],
            "stateMutability": "view",
            "type": "function"
        },
        {
            "inputs": [
                {
                    "internalType": "address",
                    "name": "_usdc",
                    "type": "address"
                },
                {
                    "internalType": "address",
                    "name": "_wnative",
                    "type": "address"
                },
                {
                    "internalType": "address",
                    "name": "_1inchSpotAgg",
                    "type": "address"
                },
                {
                    "internalType": "address",
                    "name": "_uniRouter",
                    "type": "address"
                },
                {
                    "internalType": "address",
                    "name": "_uniFactory",
                    "type": "address"
                },
                {
                    "internalType": "address",
                    "name": "_rebalancer",
                    "type": "address"
                },
                {
                    "internalType": "uint64",
                    "name": "version",
                    "type": "uint64"
                }
            ],
            "name": "reinitialize",
            "outputs": [],
            "stateMutability": "nonpayable",
            "type": "function"
        },
        {
            "inputs": [],
            "name": "renounceOwnership",
            "outputs": [],
            "stateMutability": "nonpayable",
            "type": "function"
        },
        {
            "inputs": [
                {
                    "internalType": "uint256",
                    "name": "balAmountToMint",
                    "type": "uint256"
                }
            ],
            "name": "requiredUSDCtoMint",
            "outputs": [
                {
                    "internalType": "uint256",
                    "name": "",
                    "type": "uint256"
                }
            ],
            "stateMutability": "view",
            "type": "function"
        },
        {
            "inputs": [
                {
                    "internalType": "address",
                    "name": "_baluniPeriphery",
                    "type": "address"
                },
                {
                    "internalType": "address",
                    "name": "_baluniFactory",
                    "type": "address"
                }
            ],
            "name": "setBaluniDexAddresses",
            "outputs": [],
            "stateMutability": "nonpayable",
            "type": "function"
        },
        {
            "inputs": [
                {
                    "internalType": "address",
                    "name": "token0",
                    "type": "address"
                },
                {
                    "internalType": "address",
                    "name": "token1",
                    "type": "address"
                },
                {
                    "internalType": "uint256",
                    "name": "amount",
                    "type": "uint256"
                },
                {
                    "internalType": "address",
                    "name": "receiver",
                    "type": "address"
                }
            ],
            "name": "singleSwap",
            "outputs": [
                {
                    "internalType": "uint256",
                    "name": "amountOut",
                    "type": "uint256"
                }
            ],
            "stateMutability": "nonpayable",
            "type": "function"
        },
        {
            "inputs": [],
            "name": "symbol",
            "outputs": [
                {
                    "internalType": "string",
                    "name": "",
                    "type": "string"
                }
            ],
            "stateMutability": "view",
            "type": "function"
        },
        {
            "inputs": [
                {
                    "internalType": "uint256",
                    "name": "amount",
                    "type": "uint256"
                },
                {
                    "internalType": "address",
                    "name": "token",
                    "type": "address"
                }
            ],
            "name": "tokenValuation",
            "outputs": [
                {
                    "internalType": "uint256",
                    "name": "",
                    "type": "uint256"
                }
            ],
            "stateMutability": "view",
            "type": "function"
        },
        {
            "inputs": [],
            "name": "totalSupply",
            "outputs": [
                {
                    "internalType": "uint256",
                    "name": "",
                    "type": "uint256"
                }
            ],
            "stateMutability": "view",
            "type": "function"
        },
        {
            "inputs": [],
            "name": "totalValuation",
            "outputs": [
                {
                    "internalType": "uint256",
                    "name": "",
                    "type": "uint256"
                }
            ],
            "stateMutability": "view",
            "type": "function"
        },
        {
            "inputs": [
                {
                    "internalType": "address",
                    "name": "to",
                    "type": "address"
                },
                {
                    "internalType": "uint256",
                    "name": "value",
                    "type": "uint256"
                }
            ],
            "name": "transfer",
            "outputs": [
                {
                    "internalType": "bool",
                    "name": "",
                    "type": "bool"
                }
            ],
            "stateMutability": "nonpayable",
            "type": "function"
        },
        {
            "inputs": [
                {
                    "internalType": "address",
                    "name": "from",
                    "type": "address"
                },
                {
                    "internalType": "address",
                    "name": "to",
                    "type": "address"
                },
                {
                    "internalType": "uint256",
                    "name": "value",
                    "type": "uint256"
                }
            ],
            "name": "transferFrom",
            "outputs": [
                {
                    "internalType": "bool",
                    "name": "",
                    "type": "bool"
                }
            ],
            "stateMutability": "nonpayable",
            "type": "function"
        },
        {
            "inputs": [
                {
                    "internalType": "address",
                    "name": "newOwner",
                    "type": "address"
                }
            ],
            "name": "transferOwnership",
            "outputs": [],
            "stateMutability": "nonpayable",
            "type": "function"
        },
        {
            "inputs": [],
            "name": "unitPrice",
            "outputs": [
                {
                    "internalType": "uint256",
                    "name": "",
                    "type": "uint256"
                }
            ],
            "stateMutability": "view",
            "type": "function"
        },
        {
            "inputs": [
                {
                    "internalType": "address",
                    "name": "newImplementation",
                    "type": "address"
                },
                {
                    "internalType": "bytes",
                    "name": "data",
                    "type": "bytes"
                }
            ],
            "name": "upgradeToAndCall",
            "outputs": [],
            "stateMutability": "payable",
            "type": "function"
        }
    ],
    "bytecode": "60a0604052306080523480156012575f80fd5b50608051614b126100395f395f81816132380152818161326101526133a00152614b125ff3fe608060405260043610610254575f3560e01c80635efaaebb1161013f578063ad3cb1cc116100b3578063dd62ed3e11610078578063dd62ed3e146106eb578063e73faa2d1461070a578063eedc3c501461071e578063f2fde38b1461073d578063fe0a4dd11461075c578063fe330a511461077b575f80fd5b8063ad3cb1cc14610649578063b0d60ba014610679578063b14f2a3914610698578063b9f5e617146106b7578063cc2a9a5b146106cc575f80fd5b80638da5cb5b116101045780638da5cb5b1461057b57806395d89b41146105b7578063a9059cbb146105cb578063aa6ca808146105ea578063aa95d8931461060b578063acd05af21461062a575f80fd5b80635efaaebb146104f557806370a0823114610514578063715018a61461053357806371ddcfb8146105475780638537718814610566575f80fd5b806327d54a92116101d6578063313ce5671161019b578063313ce5671461046b57806334decfc9146104865780633c2066a91461049b5780634f1ef286146104af57806352d1902d146104c2578063599f69f7146104d6575f80fd5b806327d54a92146103c3578063295b9300146103fa5780632bdd955a1461040e5780632d6bc8ea1461042d5780632f8655681461044c575f80fd5b80630cfc73861161021c5780630cfc7386146103105780630d8e6e2c1461032f57806318160ddd1461035b5780631a168da21461038557806323b872dd146103a4575f80fd5b806306497cb91461025857806306fdde03146102795780630918281b146102a3578063095ea7b3146102c25780630a38abab146102f1575b5f80fd5b348015610263575f80fd5b50610277610272366004613ce8565b61079a565b005b348015610284575f80fd5b5061028d6107f4565b60405161029a9190613d2d565b60405180910390f35b3480156102ae575f80fd5b506102776102bd366004613d53565b6108b4565b3480156102cd575f80fd5b506102e16102dc366004613d6e565b6108de565b604051901515815260200161029a565b3480156102fc575f80fd5b5061027761030b366004613d53565b6108f7565b34801561031b575f80fd5b5061027761032a366004613ce8565b610921565b34801561033a575f80fd5b50610343610cfb565b6040516001600160401b03909116815260200161029a565b348015610366575f80fd5b505f80516020614a5d833981519152545b60405190815260200161029a565b348015610390575f80fd5b5061027761039f366004613ce8565b610d1f565b3480156103af575f80fd5b506102e16103be366004613d98565b611010565b3480156103ce575f80fd5b506103e26103dd366004613d53565b611035565b6040516001600160a01b03909116815260200161029a565b348015610405575f80fd5b506103776110a1565b348015610419575f80fd5b50610377610428366004613dd6565b6110aa565b348015610438575f80fd5b50610377610447366004613e04565b6110b5565b348015610457575f80fd5b50610277610466366004613d53565b61126a565b348015610476575f80fd5b506040516012815260200161029a565b348015610491575f80fd5b5061037760045481565b3480156104a6575f80fd5b50610277611416565b6102776104bd366004613f2b565b61146f565b3480156104cd575f80fd5b5061037761148e565b3480156104e1575f80fd5b506102776104f0366004613fbe565b6114a9565b348015610500575f80fd5b5061037761050f366004614068565b611533565b34801561051f575f80fd5b5061037761052e366004613d53565b6116ea565b34801561053e575f80fd5b50610277611710565b348015610552575f80fd5b50610377610561366004613ce8565b611721565b348015610571575f80fd5b5061037760065481565b348015610586575f80fd5b507f9016d09d72d40fdae2fd8ceac6b6234c7706214fd39c1cd1e609a0528c199300546001600160a01b03166103e2565b3480156105c2575f80fd5b5061028d61172b565b3480156105d6575f80fd5b506102e16105e5366004613d6e565b611769565b3480156105f5575f80fd5b506105fe611776565b60405161029a919061410f565b348015610616575f80fd5b50610377610625366004613ce8565b611782565b348015610635575f80fd5b50610277610644366004614121565b6117cd565b348015610654575f80fd5b5061028d604051806040016040528060058152602001640352e302e360dc1b81525081565b348015610684575f80fd5b5061027761069336600461414d565b611803565b3480156106a3575f80fd5b506102776106b2366004613d53565b611965565b3480156106c2575f80fd5b5061037760055481565b3480156106d7575f80fd5b506102776106e63660046141e9565b61198f565b3480156106f6575f80fd5b50610377610705366004614121565b611b90565b348015610715575f80fd5b50610377611bd9565b348015610729575f80fd5b506102776107383660046142fe565b611beb565b348015610748575f80fd5b50610277610757366004613d53565b612352565b348015610767575f80fd5b50610277610776366004613ce8565b61238c565b348015610786575f80fd5b5061037761079536600461440c565b6128cd565b6107a26128da565b6004548111156107ef5760405162461bcd60e51b81526020600482015260136024820152724665652065786365656473206d6178696d756d60681b60448201526064015b60405180910390fd5b600555565b7f52c63247e1f47db19d5ce0460030c497f067ca4cebf71ba98eeadabe20bace0380546060915f80516020614a3d833981519152916108329061443b565b80601f016020809104026020016040519081016040528092919081815260200182805461085e9061443b565b80156108a95780601f10610880576101008083540402835291602001916108a9565b820191905f5260205f20905b81548152906001019060200180831161088c57829003601f168201915b505050505091505090565b6108bc6128da565b600d80546001600160a01b0319166001600160a01b0392909216919091179055565b5f336108eb818585612935565b60019150505b92915050565b6108ff6128da565b600c80546001600160a01b0319166001600160a01b0392909216919091179055565b610929612947565b5f61093261297e565b90505f61094a5f80516020614a5d8339815191525490565b90505f816109588486614481565b6109629190614498565b6009549091506001600160a01b03166323b872dd333061098764e8d4a5100086614498565b6040516001600160e01b031960e086901b1681526001600160a01b03938416600482015292909116602483015260448201526064016020604051808303815f875af11580156109d8573d5f803e3d5ffd5b505050506040513d601f19601f820116820180604052508101906109fc91906144b7565b506009546040516370a0823160e01b81523360048201525f916001600160a01b0316906370a0823190602401602060405180830381865afa158015610a43573d5f803e3d5ffd5b505050506040513d601f19601f82011682018060405250810190610a6791906144d6565b600954604051636eb1769f60e11b81523360048201523060248201529192505f916001600160a01b039091169063dd62ed3e90604401602060405180830381865afa158015610ab8573d5f803e3d5ffd5b505050506040513d601f19601f82011682018060405250810190610adc91906144d6565b90505f8411610b385760405162461bcd60e51b815260206004820152602260248201527f546f74616c2042414c554e4920737570706c792063616e6e6f74206265207a65604482015261726f60f01b60648201526084016107e6565b610b4764e8d4a5100084614498565b821015610b965760405162461bcd60e51b815260206004820152601c60248201527f555344432062616c616e636520697320696e73756666696369656e740000000060448201526064016107e6565b610ba564e8d4a5100084614498565b811015610bf45760405162461bcd60e51b815260206004820152601960248201527f436865636b2074686520746f6b656e20616c6c6f77616e63650000000000000060448201526064016107e6565b610bfe3387612a3a565b7f0f6798a560793a54c3bcfe86a93cde1e73087d944c0ea20544137d41213968853387604051610c2f9291906144ed565b60405180910390a15f60065460055464e8d4a5100086610c4f9190614498565b610c599190614481565b610c639190614498565b600954600e5460405163a9059cbb60e01b81529293506001600160a01b039182169263a9059cbb92610c9b92169085906004016144ed565b6020604051808303815f875af1158015610cb7573d5f803e3d5ffd5b505050506040513d601f19601f82011682018060405250810190610cdb91906144b7565b50505050505050610cf860015f80516020614a9d83398151915255565b50565b5f610d1a5f80516020614abd833981519152546001600160401b031690565b905090565b610d27612947565b80610d31336116ea565b1015610d725760405162461bcd60e51b815260206004820152601060248201526f125b9cdd59999a58da595b9d0810905360821b60448201526064016107e6565b5f5b610d7e6007612a81565b811015610fb6575f610d91600783612a8a565b90505f610da95f80516020614a5d8339815191525490565b6040516370a0823160e01b81523060048201529091505f906001600160a01b038416906370a0823190602401602060405180830381865afa158015610df0573d5f803e3d5ffd5b505050506040513d601f19601f82011682018060405250810190610e1491906144d6565b9050801580610e2b57506001600160a01b03831630145b15610e3857505050610fae565b5f836001600160a01b031663313ce5676040518163ffffffff1660e01b8152600401602060405180830381865afa158015610e75573d5f803e3d5ffd5b505050506040513d601f19601f82011682018060405250810190610e999190614506565b60ff1690505f610eab84848985612a95565b90505f610eb782612bb2565b60405163a9059cbb60e01b81529091506001600160a01b0387169063a9059cbb90610ee890339085906004016144ed565b6020604051808303815f875af1158015610f04573d5f803e3d5ffd5b505050506040513d601f19601f82011682018060405250810190610f2891906144b7565b50600e546001600160a01b038088169163a9059cbb9116610f498486614526565b6040518363ffffffff1660e01b8152600401610f669291906144ed565b6020604051808303815f875af1158015610f82573d5f803e3d5ffd5b505050506040513d601f19601f82011682018060405250810190610fa691906144b7565b505050505050505b600101610d74565b50610fc13382612bdb565b7fcc16f5dbb4873280815c1ee09dbd06736cffcc184412cf7a71a0fdb75d397ca53382604051610ff29291906144ed565b60405180910390a1610cf860015f80516020614a9d83398151915255565b5f3361101d858285612c0f565b611028858585612c6c565b60019150505b9392505050565b600c546040516313eaa54960e11b81526001600160a01b0383811660048301525f9216906327d54a9290602401602060405180830381865afa15801561107d573d5f803e3d5ffd5b505050506040513d601f19601f820116820180604052508101906108f19190614539565b5f610d1a61297e565b5f61102e8383612cc9565b5f3033036110f45760405162461bcd60e51b815260206004820152600c60248201526b2bb937b7339039b2b73232b960a11b60448201526064016107e6565b5f83116111315760405162461bcd60e51b815260206004820152600b60248201526a0416d6f756e7420697320360ac1b60448201526064016107e6565b6040516370a0823160e01b815233600482015283906001600160a01b038716906370a0823190602401602060405180830381865afa158015611175573d5f803e3d5ffd5b505050506040513d601f19601f8201168201806040525081019061119991906144d6565b10156111de5760405162461bcd60e51b8152602060048201526014602482015273496e73756666696369656e742042616c616e636560601b60448201526064016107e6565b6040516323b872dd60e01b8152336004820152306024820152604481018490526001600160a01b038616906323b872dd906064016020604051808303815f875af115801561122e573d5f803e3d5ffd5b505050506040513d601f19601f8201168201806040525081019061125291906144b7565b5061125f85858585612f28565b90505b949350505050565b6040516370a0823160e01b81523060048201525f906001600160a01b038316906370a0823190602401602060405180830381865afa1580156112ae573d5f803e3d5ffd5b505050506040513d601f19601f820116820180604052508101906112d291906144d6565b601054600954604051630b4c774160e11b81529293505f926001600160a01b0392831692631698ee829261131292889290911690610bb890600401614554565b602060405180830381865afa15801561132d573d5f803e3d5ffd5b505050506040513d601f19601f820116820180604052508101906113519190614539565b90508115156001600160a01b0382161580159061136b5750805b156113b2576009545f9061138b9086906001600160a01b03168630612f28565b90505f81116113ac5760405162461bcd60e51b81526004016107e69061457c565b50611410565b6001600160a01b0382161580156113c65750805b1561141057600a546009545f916113ed9187916001600160a01b03908116911687306130dc565b90505f811161140e5760405162461bcd60e51b81526004016107e69061457c565b505b50505050565b61141e612947565b5f6114296007612a81565b90505f5b81811015611455575f611441600783612a8a565b905061144c8161126a565b5060010161142d565b505061146d60015f80516020614a9d83398151915255565b565b61147761322d565b611480826132d1565b61148a82826132d9565b5050565b5f611497613395565b505f80516020614a7d83398151915290565b604080515f81526020810191829052600d54600954633c2fddc560e21b90935290916001600160a01b039182169163f0bf7714916114fb9185918e918e918e918e918c918f918f91166024890161461f565b5f604051808303815f87803b158015611512575f80fd5b505af1158015611524573d5f803e3d5ffd5b50505050505050505050505050565b5f3033036115725760405162461bcd60e51b815260206004820152600c60248201526b2bb937b7339039b2b73232b960a11b60448201526064016107e6565b5f83116115af5760405162461bcd60e51b815260206004820152600b60248201526a0416d6f756e7420697320360ac1b60448201526064016107e6565b6040516370a0823160e01b815233600482015283906001600160a01b038816906370a0823190602401602060405180830381865afa1580156115f3573d5f803e3d5ffd5b505050506040513d601f19601f8201168201806040525081019061161791906144d6565b101561165c5760405162461bcd60e51b8152602060048201526014602482015273496e73756666696369656e742042616c616e636560601b60448201526064016107e6565b6040516323b872dd60e01b8152336004820152306024820152604481018490526001600160a01b038716906323b872dd906064016020604051808303815f875af11580156116ac573d5f803e3d5ffd5b505050506040513d601f19601f820116820180604052508101906116d091906144b7565b506116de86868686866130dc565b90505b95945050505050565b6001600160a01b03165f9081525f80516020614a3d833981519152602052604090205490565b6117186128da565b61146d5f6133de565b5f6108f18261344e565b7f52c63247e1f47db19d5ce0460030c497f067ca4cebf71ba98eeadabe20bace0480546060915f80516020614a3d833981519152916108329061443b565b5f336108eb818585612c6c565b6060610d1a60076134d6565b5f8061178c61297e565b90505f6117a45f80516020614a5d8339815191525490565b90505f816117b28487614481565b6117bc9190614498565b90506116e164e8d4a5100082614498565b6117d56128da565b601180546001600160a01b039384166001600160a01b03199182161790915560128054929093169116179055565b5f80516020614abd8339815191528054829190600160401b900460ff1680611838575080546001600160401b03808416911610155b156118565760405163f92ee8a960e01b815260040160405180910390fd5b805468ffffffffffffffffff19166001600160401b03831617600160401b1781556101f4600455601e600555612710600655600980546001600160a01b03808c166001600160a01b03199283168117909355600a80548c8316908416179055600b80548b8316908416179055600f80548a831690841617905560108054918916919092161790556118e9906007906134e2565b50600d80546001600160a01b0386166001600160a01b031991821617909155600e805490911633179055805460ff60401b191681556040516001600160401b03831681527fc7f505b2f371ae2175ee4913f4499e1f2633a7b5936321eed1cdaeb6115181d29060200160405180910390a1505050505050505050565b61196d6128da565b600e80546001600160a01b0319166001600160a01b0392909216919091179055565b5f80516020614abd8339815191528054600160401b810460ff1615906001600160401b03165f811580156119c05750825b90505f826001600160401b031660011480156119db5750303b155b9050811580156119e9575080155b15611a075760405163f92ee8a960e01b815260040160405180910390fd5b845467ffffffffffffffff191660011785558315611a3157845460ff60401b1916600160401b1785555b611a776040518060400160405280600681526020016542616c756e6960d01b8152506040518060400160405280600681526020016542414c554e4960d01b8152506134f6565b611a8033613508565b611a88613519565b611a90613529565b611aa230670de0b6b3a7640000612a3a565b6064600455601e600555612710600655600980546001600160a01b03808e166001600160a01b03199283168117909355600a80548e8316908416179055600b80548d8316908416179055600f80548c831690841617905560108054918b1691909216179055611b13906007906134e2565b50600d80546001600160a01b0388166001600160a01b031991821617909155600e8054909116331790558315611b8357845460ff60401b19168555604051600181527fc7f505b2f371ae2175ee4913f4499e1f2633a7b5936321eed1cdaeb6115181d29060200160405180910390a15b5050505050505050505050565b6001600160a01b039182165f9081527f52c63247e1f47db19d5ce0460030c497f067ca4cebf71ba98eeadabe20bace016020908152604080832093909416825291909152205490565b5f610d1a670de0b6b3a764000061344e565b611bf3612947565b600c546001600160a01b0316611c435760405162461bcd60e51b81526020600482015260156024820152741059d95b9d08199858dd1bdc9e481b9bdd081cd95d605a1b60448201526064016107e6565b600c54604051639b76a5cd60e01b81523360048201525f916001600160a01b031690639b76a5cd906024016020604051808303815f875af1158015611c8a573d5f803e3d5ffd5b505050506040513d601f19601f82011682018060405250810190611cae9190614539565b90505f82516001600160401b03811115611cca57611cca613e54565b604051908082528060200260200182016040528015611cf3578160200160208202803683370190505b5090505f83516001600160401b03811115611d1057611d10613e54565b604051908082528060200260200182016040528015611d39578160200160208202803683370190505b5090505f5b8451811015611e3957611d6b6007868381518110611d5e57611d5e6146ce565b6020026020010151613531565b15838281518110611d7e57611d7e6146ce565b602002602001019015159081151581525050848181518110611da257611da26146ce565b60209081029190910101516040516370a0823160e01b81523060048201526001600160a01b03909116906370a0823190602401602060405180830381865afa158015611df0573d5f803e3d5ffd5b505050506040513d601f19601f82011682018060405250810190611e1491906144d6565b828281518110611e2657611e266146ce565b6020908102919091010152600101611d3e565b50604051630eedc3c560e41b81526001600160a01b0384169063eedc3c5090611e6890889088906004016146e2565b5f604051808303815f87803b158015611e7f575f80fd5b505af1158015611e91573d5f803e3d5ffd5b505050505f5b8451811015612337575f858281518110611eb357611eb36146ce565b60209081029190910101516040516370a0823160e01b81523060048201529091505f906001600160a01b038316906370a0823190602401602060405180830381865afa158015611f05573d5f803e3d5ffd5b505050506040513d601f19601f82011682018060405250810190611f2991906144d6565b601054600a54604051630b4c774160e11b81529293505f926001600160a01b0392831692631698ee8292611f6992889290911690610bb890600401614554565b602060405180830381865afa158015611f84573d5f803e3d5ffd5b505050506040513d601f19601f82011682018060405250810190611fa89190614539565b601054600a54604051630b4c774160e11b81529293505f926001600160a01b0392831692631698ee8292611fe8928992909116906101f490600401614554565b602060405180830381865afa158015612003573d5f803e3d5ffd5b505050506040513d601f19601f820116820180604052508101906120279190614539565b601054600954604051630b4c774160e11b81529293505f926001600160a01b0392831692631698ee8292612067928a92909116906101f490600401614554565b602060405180830381865afa158015612082573d5f803e3d5ffd5b505050506040513d601f19601f820116820180604052508101906120a69190614539565b601054600954604051630b4c774160e11b81529293505f926001600160a01b0392831692631698ee82926120e6928b9290911690610bb890600401614554565b602060405180830381865afa158015612101573d5f803e3d5ffd5b505050506040513d601f19601f820116820180604052508101906121259190614539565b90505f6001600160a01b03851615158061214757506001600160a01b03841615155b8061215a57506001600160a01b03821615155b8061216d57506001600160a01b03831615155b9050898881518110612181576121816146ce565b602002602001015180156121925750805b156121a4576121a26007886134e2565b505b5f8989815181106121b7576121b76146ce565b6020026020010151876121ca9190614526565b9050816122515760405163a9059cbb60e01b81526001600160a01b0389169063a9059cbb906121ff90339085906004016144ed565b6020604051808303815f875af115801561221b573d5f803e3d5ffd5b505050506040513d601f19601f8201168201806040525081019061223f91906144b7565b5050505050505050505050505061233c565b898981518110612263576122636146ce565b6020026020010151871115612323575f600654600554836122849190614481565b61228e9190614498565b90508d8a815181106122a2576122a26146ce565b6020908102919091010151600e5460405163a9059cbb60e01b81526001600160a01b039283169263a9059cbb926122e09291169085906004016144ed565b6020604051808303815f875af11580156122fc573d5f803e3d5ffd5b505050506040513d601f19601f8201168201806040525081019061232091906144b7565b50505b505060019096019550611e97945050505050565b505050505b61148a60015f80516020614a9d83398151915255565b61235a6128da565b6001600160a01b03811661238357604051631e4fbdf760e01b81525f60048201526024016107e6565b610cf8816133de565b612394612947565b5f81116123d65760405162461bcd60e51b815260206004820152601060248201526f125b9cdd59999a58da595b9d0810905360821b60448201526064016107e6565b5f5b6123e26007612a81565b811015610fb6575f6123f5600783612a8a565b90505f61240d5f80516020614a5d8339815191525490565b6040516370a0823160e01b81523060048201529091505f906001600160a01b038416906370a0823190602401602060405180830381865afa158015612454573d5f803e3d5ffd5b505050506040513d601f19601f8201168201806040525081019061247891906144d6565b90508015155f0361248b575050506128c5565b306001600160a01b038416036124a3575050506128c5565b5f836001600160a01b031663313ce5676040518163ffffffff1660e01b8152600401602060405180830381865afa1580156124e0573d5f803e3d5ffd5b505050506040513d601f19601f820116820180604052508101906125049190614506565b60ff1690505f61251684848985612a95565b6009549091506001600160a01b03908116908616036125ac5760095460405163a9059cbb60e01b81526001600160a01b039091169063a9059cbb9061256190339085906004016144ed565b6020604051808303815f875af115801561257d573d5f803e3d5ffd5b505050506040513d601f19601f820116820180604052508101906125a191906144b7565b5050505050506128c5565b601054600954604051630b4c774160e11b81525f926001600160a01b0390811692631698ee82926125e7928b921690610bb890600401614554565b602060405180830381865afa158015612602573d5f803e3d5ffd5b505050506040513d601f19601f820116820180604052508101906126269190614539565b90506001600160a01b03811615612779576009545f906126529088906001600160a01b03168530612f28565b90505f61265e82612bb2565b60095460405163a9059cbb60e01b81529192506001600160a01b03169063a9059cbb9061269190339085906004016144ed565b6020604051808303815f875af11580156126ad573d5f803e3d5ffd5b505050506040513d601f19601f820116820180604052508101906126d191906144b7565b50600954600e546001600160a01b039182169163a9059cbb91166126f58486614526565b6040518363ffffffff1660e01b81526004016127129291906144ed565b6020604051808303815f875af115801561272e573d5f803e3d5ffd5b505050506040513d601f19601f8201168201806040525081019061275291906144b7565b505f82116127725760405162461bcd60e51b81526004016107e69061457c565b50506128be565b600a546009545f9161279b9189916001600160a01b03908116911686336130dc565b90505f6127a782612bb2565b60095460405163a9059cbb60e01b81529192506001600160a01b03169063a9059cbb906127da90339085906004016144ed565b6020604051808303815f875af11580156127f6573d5f803e3d5ffd5b505050506040513d601f19601f8201168201806040525081019061281a91906144b7565b50600954600e546001600160a01b039182169163a9059cbb911661283e8486614526565b6040518363ffffffff1660e01b815260040161285b9291906144ed565b6020604051808303815f875af1158015612877573d5f803e3d5ffd5b505050506040513d601f19601f8201168201806040525081019061289b91906144b7565b505f82116128bb5760405162461bcd60e51b81526004016107e69061457c565b50505b5050505050505b6001016123d8565b5f61125f85858585612a95565b3361290c7f9016d09d72d40fdae2fd8ceac6b6234c7706214fd39c1cd1e609a0528c199300546001600160a01b031690565b6001600160a01b03161461146d5760405163118cdaa760e01b81523360048201526024016107e6565b6129428383836001613552565b505050565b5f80516020614a9d83398151915280546001190161297857604051633ee5aeb560e01b815260040160405180910390fd5b60029055565b5f805f5b61298c6007612a81565b811015612a34575f61299f600783612a8a565b6040516370a0823160e01b81523060048201529091505f906001600160a01b038316906370a0823190602401602060405180830381865afa1580156129e6573d5f803e3d5ffd5b505050506040513d601f19601f82011682018060405250810190612a0a91906144d6565b90505f612a178284612cc9565b9050612a23818661477c565b945050600190920191506129829050565b50919050565b6001600160a01b038216612a635760405163ec442f0560e01b81525f60048201526024016107e6565b61148a5f8383613635565b60015f80516020614a9d83398151915255565b5f6108f1825490565b5f61102e838361376e565b5f808511612ae55760405162461bcd60e51b815260206004820152601b60248201527f546f74616c20737570706c792063616e6e6f74206265207a65726f000000000060448201526064016107e6565b6012821115612b365760405162461bcd60e51b815260206004820152601e60248201527f546f6b656e20646563696d616c732073686f756c64206265203c3d203138000060448201526064016107e6565b5f806012841015612b8a57612b4c846012614526565b612b5790600a61486f565b612b619088614498565b9150612b6e846012614526565b612b7990600a61486f565b612b839086614498565b9050612b90565b50859050835b5f82612b9c8884614481565b612ba69190614498565b98975050505050505050565b5f80600654600554600654612bc79190614526565b612bd19085614481565b61102e9190614498565b6001600160a01b038216612c0457604051634b637e8f60e11b81525f60048201526024016107e6565b61148a825f83613635565b5f612c1a8484611b90565b90505f1981146114105781811015612c5e57604051637dc7a0d960e11b81526001600160a01b038416600482015260248101829052604481018390526064016107e6565b61141084848484035f613552565b6001600160a01b038316612c9557604051634b637e8f60e11b81525f60048201526024016107e6565b6001600160a01b038216612cbe5760405163ec442f0560e01b81525f60048201526024016107e6565b612942838383613635565b5f805f836001600160a01b031663313ce5676040518163ffffffff1660e01b8152600401602060405180830381865afa158015612d08573d5f803e3d5ffd5b505050506040513d601f19601f82011682018060405250810190612d2c9190614506565b90505f60095f9054906101000a90046001600160a01b03166001600160a01b031663313ce5676040518163ffffffff1660e01b8152600401602060405180830381865afa158015612d7f573d5f803e3d5ffd5b505050506040513d601f19601f82011682018060405250810190612da39190614506565b6009549091506001600160a01b0390811690861603612dd557612dcb8664e8d4a51000614481565b93505050506108f1565b600b5460095460405163802431fb60e01b81526001600160a01b03888116600483015291821660248201525f604482015291169063802431fb90606401602060405180830381865afa925050508015612e4b575060408051601f3d908101601f19168201909252612e48918101906144d6565b60015b612e5a575f93505050506108f1565b92508060ff168260ff1603612e9657670de0b6b3a764000083612e828864e8d4a51000614481565b612e8c9190614481565b612dcb9190614498565b5f612ea1828461487a565b612eac90600a614893565b905060128360ff161015612ef657670de0b6b3a7640000612ecd8286614481565b612ed7838a614481565b612ee19190614481565b612eeb9190614498565b9450505050506108f1565b670de0b6b3a7640000612f098286614481565b612f139089614481565b612f1d9190614498565b979650505050505050565b5f80546001600160a01b0316612f3f868286613794565b604051631ba0488760e21b81526001600160a01b03821690636e81221c90612f719089908990899089906004016148a1565b6020604051808303815f875af1925050508015612fab575060408051601f3d908101601f19168201909252612fa8918101906144d6565b60015b6130c357600154612fc79087906001600160a01b031686613794565b60408051610100810182526001600160a01b03888116825287811660208301908152610bb883850190815287831660608501908152426080860190815260a086018b81525f60c0880181815260e08901918252600154995163414bf38960e01b8152895189166004820152965188166024880152945162ffffff166044870152925186166064860152905160848501525160a4840152905160c483015251821660e48201529192169063414bf38990610104016020604051808303815f875af1158015613096573d5f803e3d5ffd5b505050506040513d601f19601f820116820180604052508101906130ba91906144d6565b92505050611262565b80156130d25791506112629050565b5050949350505050565b5f80546001600160a01b0316816130f4888387613794565b604051631ba0488760e21b81526001600160a01b03831690636e81221c90613126908b908b908a9030906004016148a1565b6020604051808303815f875af1925050508015613160575060408051601f3d908101601f1916820190925261315d918101906144d6565b60015b61317a5761317188888888886138e9565b925050506116e1565b80156131885780915061319f565b61319589898989896138e9565b93505050506116e1565b50604051631ba0488760e21b81526001600160a01b03831690636e81221c906131d2908a908a9086908a906004016148a1565b6020604051808303815f875af192505050801561320c575060408051601f3d908101601f19168201909252613209918101906144d6565b60015b61321d5761317188888888886138e9565b80156131885792506116e1915050565b306001600160a01b037f00000000000000000000000000000000000000000000000000000000000000001614806132b357507f00000000000000000000000000000000000000000000000000000000000000006001600160a01b03166132a75f80516020614a7d833981519152546001600160a01b031690565b6001600160a01b031614155b1561146d5760405163703e46dd60e11b815260040160405180910390fd5b610cf86128da565b816001600160a01b03166352d1902d6040518163ffffffff1660e01b8152600401602060405180830381865afa925050508015613333575060408051601f3d908101601f19168201909252613330918101906144d6565b60015b61335b57604051634c9c8ce360e01b81526001600160a01b03831660048201526024016107e6565b5f80516020614a7d833981519152811461338b57604051632a87526960e21b8152600481018290526024016107e6565b61294283836139e8565b306001600160a01b037f0000000000000000000000000000000000000000000000000000000000000000161461146d5760405163703e46dd60e11b815260040160405180910390fd5b7f9016d09d72d40fdae2fd8ceac6b6234c7706214fd39c1cd1e609a0528c19930080546001600160a01b031981166001600160a01b03848116918217845560405192169182907f8be0079c531659141344cd1fd0a4f28419497f9722a3daafe3b4186f6b6457e0905f90a3505050565b5f806134655f80516020614a5d8339815191525490565b90505f81116134b65760405162461bcd60e51b815260206004820152601b60248201527f546f74616c20737570706c792063616e6e6f74206265207a65726f000000000060448201526064016107e6565b5f6134bf61297e565b9050816134cc8286614481565b6112629190614498565b60605f61102e83613a3d565b5f61102e836001600160a01b038416613a96565b6134fe613ae2565b61148a8282613b18565b613510613ae2565b610cf881613b68565b613521613ae2565b61146d613b70565b61146d613ae2565b6001600160a01b0381165f908152600183016020526040812054151561102e565b5f80516020614a3d8339815191526001600160a01b0385166135895760405163e602df0560e01b81525f60048201526024016107e6565b6001600160a01b0384166135b257604051634a1406b160e11b81525f60048201526024016107e6565b6001600160a01b038086165f9081526001830160209081526040808320938816835292905220839055811561140e57836001600160a01b0316856001600160a01b03167f8c5be1e5ebec7d5bd14f71427d1e84f3dd0314c0f7b2291e5b200ac8c7c3b9258560405161362691815260200190565b60405180910390a35050505050565b5f80516020614a3d8339815191526001600160a01b03841661366f5781816002015f828254613664919061477c565b909155506136df9050565b6001600160a01b0384165f90815260208290526040902054828110156136c15760405163391434e360e21b81526001600160a01b038616600482015260248101829052604481018490526064016107e6565b6001600160a01b0385165f9081526020839052604090209083900390555b6001600160a01b0383166136fd57600281018054839003905561371b565b6001600160a01b0383165f9081526020829052604090208054830190555b826001600160a01b0316846001600160a01b03167fddf252ad1be2c89b69c2b068fc378daa952ba7f163c4a11628f55a4df523b3ef8460405161376091815260200190565b60405180910390a350505050565b5f825f018281548110613783576137836146ce565b905f5260205f200154905092915050565b604051636eb1769f60e11b81523060048201526001600160a01b0383811660248301528491839183169063dd62ed3e90604401602060405180830381865afa1580156137e2573d5f803e3d5ffd5b505050506040513d601f19601f8201168201806040525081019061380691906144d6565b10156114105760405163095ea7b360e01b81526001600160a01b0382169063095ea7b39061383a9086905f906004016144ed565b6020604051808303815f875af1158015613856573d5f803e3d5ffd5b505050506040513d601f19601f8201168201806040525081019061387a91906144b7565b5060405163095ea7b360e01b81526001600160a01b0382169063095ea7b3906138a990869086906004016144ed565b6020604051808303815f875af11580156138c5573d5f803e3d5ffd5b505050506040513d601f19601f8201168201806040525081019061140e91906144b7565b6001545f906139039087906001600160a01b031685613794565b6040805160a081018252606088811b6bffffffffffffffffffffffff1990811660c084015261017760eb1b60d4840181905289831b821660d785015260eb84015287821b1660ee830152825160e28184030181526101028301845282526001600160a01b03858116602084015242838501529082018690525f6080830152600154925163c04b8d5960e01b81529192169063c04b8d59906139a89084906004016148cc565b6020604051808303815f875af11580156139c4573d5f803e3d5ffd5b505050506040513d601f19601f82011682018060405250810190612f1d91906144d6565b6139f182613b78565b6040516001600160a01b038316907fbc7cd75a20ee27fd9adebab32041f755214dbc6bffa90cc0225b39da2e5c2d3b905f90a2805115613a35576129428282613bdb565b61148a613c44565b6060815f01805480602002602001604051908101604052809291908181526020018280548015613a8a57602002820191905f5260205f20905b815481526020019060010190808311613a76575b50505050509050919050565b5f818152600183016020526040812054613adb57508154600181810184555f8481526020808220909301849055845484825282860190935260409020919091556108f1565b505f6108f1565b5f80516020614abd83398151915254600160401b900460ff1661146d57604051631afcd79f60e31b815260040160405180910390fd5b613b20613ae2565b5f80516020614a3d8339815191527f52c63247e1f47db19d5ce0460030c497f067ca4cebf71ba98eeadabe20bace03613b598482614967565b50600481016114108382614967565b61235a613ae2565b612a6e613ae2565b806001600160a01b03163b5f03613bad57604051634c9c8ce360e01b81526001600160a01b03821660048201526024016107e6565b5f80516020614a7d83398151915280546001600160a01b0319166001600160a01b0392909216919091179055565b60605f80846001600160a01b031684604051613bf79190614a26565b5f60405180830381855af49150503d805f8114613c2f576040519150601f19603f3d011682016040523d82523d5f602084013e613c34565b606091505b50915091506116e1858383613c63565b341561146d5760405163b398979f60e01b815260040160405180910390fd5b606082613c7857613c7382613cbf565b61102e565b8151158015613c8f57506001600160a01b0384163b155b15613cb857604051639996b31560e01b81526001600160a01b03851660048201526024016107e6565b508061102e565b805115613ccf5780518082602001fd5b604051630a12f52160e11b815260040160405180910390fd5b5f60208284031215613cf8575f80fd5b5035919050565b5f81518084528060208401602086015e5f602082860101526020601f19601f83011685010191505092915050565b602081525f61102e6020830184613cff565b6001600160a01b0381168114610cf8575f80fd5b5f60208284031215613d63575f80fd5b813561102e81613d3f565b5f8060408385031215613d7f575f80fd5b8235613d8a81613d3f565b946020939093013593505050565b5f805f60608486031215613daa575f80fd5b8335613db581613d3f565b92506020840135613dc581613d3f565b929592945050506040919091013590565b5f8060408385031215613de7575f80fd5b823591506020830135613df981613d3f565b809150509250929050565b5f805f8060808587031215613e17575f80fd5b8435613e2281613d3f565b93506020850135613e3281613d3f565b9250604085013591506060850135613e4981613d3f565b939692955090935050565b634e487b7160e01b5f52604160045260245ffd5b604051606081016001600160401b0381118282101715613e8a57613e8a613e54565b60405290565b604051601f8201601f191681016001600160401b0381118282101715613eb857613eb8613e54565b604052919050565b5f82601f830112613ecf575f80fd5b81356001600160401b03811115613ee857613ee8613e54565b613efb601f8201601f1916602001613e90565b818152846020838601011115613f0f575f80fd5b816020850160208301375f918101602001919091529392505050565b5f8060408385031215613f3c575f80fd5b8235613f4781613d3f565b915060208301356001600160401b03811115613f61575f80fd5b613f6d85828601613ec0565b9150509250929050565b5f8083601f840112613f87575f80fd5b5081356001600160401b03811115613f9d575f80fd5b6020830191508360208260051b8501011115613fb7575f80fd5b9250929050565b5f805f805f805f8060c0898b031215613fd5575f80fd5b88356001600160401b0380821115613feb575f80fd5b613ff78c838d01613f77565b909a50985060208b013591508082111561400f575f80fd5b5061401c8b828c01613f77565b909750955050604089013561403081613d3f565b9350606089013561404081613d3f565b92506080890135915060a089013561405781613d3f565b809150509295985092959890939650565b5f805f805f60a0868803121561407c575f80fd5b853561408781613d3f565b9450602086013561409781613d3f565b935060408601356140a781613d3f565b92506060860135915060808601356140be81613d3f565b809150509295509295909350565b5f815180845260208085019450602084015f5b838110156141045781516001600160a01b0316875295820195908201906001016140df565b509495945050505050565b602081525f61102e60208301846140cc565b5f8060408385031215614132575f80fd5b823561413d81613d3f565b91506020830135613df981613d3f565b5f805f805f805f60e0888a031215614163575f80fd5b873561416e81613d3f565b9650602088013561417e81613d3f565b9550604088013561418e81613d3f565b9450606088013561419e81613d3f565b935060808801356141ae81613d3f565b925060a08801356141be81613d3f565b915060c08801356001600160401b03811681146141d9575f80fd5b8091505092959891949750929550565b5f805f805f8060c087890312156141fe575f80fd5b863561420981613d3f565b9550602087013561421981613d3f565b9450604087013561422981613d3f565b9350606087013561423981613d3f565b9250608087013561424981613d3f565b915060a087013561425981613d3f565b809150509295509295509295565b5f6001600160401b0382111561427f5761427f613e54565b5060051b60200190565b5f82601f830112614298575f80fd5b813560206142ad6142a883614267565b613e90565b8083825260208201915060208460051b8701019350868411156142ce575f80fd5b602086015b848110156142f35780356142e681613d3f565b83529183019183016142d3565b509695505050505050565b5f806040838503121561430f575f80fd5b82356001600160401b0380821115614325575f80fd5b818501915085601f830112614338575f80fd5b813560206143486142a883614267565b82815260059290921b84018101918181019089841115614366575f80fd5b8286015b848110156143e957803586811115614380575f80fd5b87016060818d03601f1901811315614396575f80fd5b61439e613e68565b868301356143ab81613d3f565b81526040830135878201529082013590888211156143c7575f80fd5b6143d58e8884860101613ec0565b60408201528552505091830191830161436a565b50965050860135925050808211156143ff575f80fd5b50613f6d85828601614289565b5f805f806080858703121561441f575f80fd5b5050823594602084013594506040840135936060013592509050565b600181811c9082168061444f57607f821691505b602082108103612a3457634e487b7160e01b5f52602260045260245ffd5b634e487b7160e01b5f52601160045260245ffd5b80820281158282048414176108f1576108f161446d565b5f826144b257634e487b7160e01b5f52601260045260245ffd5b500490565b5f602082840312156144c7575f80fd5b8151801515811461102e575f80fd5b5f602082840312156144e6575f80fd5b5051919050565b6001600160a01b03929092168252602082015260400190565b5f60208284031215614516575f80fd5b815160ff8116811461102e575f80fd5b818103818111156108f1576108f161446d565b5f60208284031215614549575f80fd5b815161102e81613d3f565b6001600160a01b03938416815291909216602082015262ffffff909116604082015260600190565b60208082526017908201527f53776170204661696c65642c20547279204275726e2829000000000000000000604082015260600190565b8183525f60208085019450825f5b858110156141045781356145d481613d3f565b6001600160a01b0316875295820195908201906001016145c1565b8183525f6001600160fb1b03831115614606575f80fd5b8260051b80836020870137939093016020019392505050565b60e08082528a519082018190525f90602090610100840190828e01845b828110156146585781518452928401929084019060010161463c565b505050838103602085015261466e818c8e6145b3565b915050828103604084015261468481898b6145ef565b9150508560608301526146a260808301866001600160a01b03169052565b6001600160a01b03841660a08301526001600160a01b03831660c08301529a9950505050505050505050565b634e487b7160e01b5f52603260045260245ffd5b5f6040808301604084528086518083526060925060608601915060608160051b8701016020808a015f5b8481101561475c57898403605f19018652815180516001600160a01b03168552838101518486015288015188850188905261474988860182613cff565b968401969450509082019060010161470c565b50508782039088015261476f81896140cc565b9998505050505050505050565b808201808211156108f1576108f161446d565b600181815b808511156147c957815f19048211156147af576147af61446d565b808516156147bc57918102915b93841c9390800290614794565b509250929050565b5f826147df575060016108f1565b816147eb57505f6108f1565b8160018114614801576002811461480b57614827565b60019150506108f1565b60ff84111561481c5761481c61446d565b50506001821b6108f1565b5060208310610133831016604e8410600b841016171561484a575081810a6108f1565b614854838361478f565b805f19048211156148675761486761446d565b029392505050565b5f61102e83836147d1565b60ff82811682821603908111156108f1576108f161446d565b5f61102e60ff8416836147d1565b6001600160a01b03948516815292841660208401526040830191909152909116606082015260800190565b602081525f825160a060208401526148e760c0840182613cff565b905060018060a01b0360208501511660408401526040840151606084015260608401516080840152608084015160a08401528091505092915050565b601f82111561294257805f5260205f20601f840160051c810160208510156149485750805b601f840160051c820191505b8181101561140e575f8155600101614954565b81516001600160401b0381111561498057614980613e54565b6149948161498e845461443b565b84614923565b602080601f8311600181146149c7575f84156149b05750858301515b5f19600386901b1c1916600185901b178555614a1e565b5f85815260208120601f198616915b828110156149f5578886015182559484019460019091019084016149d6565b5085821015614a1257878501515f19600388901b60f8161c191681555b505060018460011b0185555b505050505050565b5f82518060208501845e5f92019182525091905056fe52c63247e1f47db19d5ce0460030c497f067ca4cebf71ba98eeadabe20bace0052c63247e1f47db19d5ce0460030c497f067ca4cebf71ba98eeadabe20bace02360894a13ba1a3210667c828492db98dca3e2076cc3735a920a3ca505d382bbc9b779b17422d0df92223018b32b4d1fa46e071723d6817e2486d003becc55f00f0c57e16840df040f15088dc2f81fe391c3923bec73e23a9662efc9c229c6a00a2646970667358221220cd9026af7d33040af036dd495f8a0f7ea214f7fba4c9163e4b1162424c4bb0a664736f6c63430008190033",
    "sourcePath": "c:/Users/Utente/Source/repos/baluni-contracts/contracts/BaluniV1Router.sol",
    "compiler": {
        "name": "solc",
        "version": "0.8.25+commit.b61c2a91"
    },
    "functionHashes": {
        "UPGRADE_INTERFACE_VERSION()": "ad3cb1cc",
        "_BPS_BASE()": "85377188",
        "_BPS_FEE()": "b9f5e617",
        "_MAX_BPS_FEE()": "34decfc9",
        "allowance(address,address)": "dd62ed3e",
        "approve(address,uint256)": "095ea7b3",
        "balanceOf(address)": "70a08231",
        "burnERC20(uint256)": "1a168da2",
        "burnUSDC(uint256)": "fe0a4dd1",
        "calculateTokenShare(uint256,uint256,uint256,uint256)": "fe330a51",
        "callRebalance(address[],uint256[],address,address,uint256,address)": "599f69f7",
        "changeAgentFactory(address)": "0a38abab",
        "changeBpsFee(uint256)": "06497cb9",
        "changeRebalancer(address)": "0918281b",
        "changeTreasury(address)": "b14f2a39",
        "decimals()": "313ce567",
        "execute((address,uint256,bytes)[],address[])": "eedc3c50",
        "getAgentAddress(address)": "27d54a92",
        "getTokens()": "aa6ca808",
        "getUSDCShareValue(uint256)": "71ddcfb8",
        "getVersion()": "0d8e6e2c",
        "initialize(address,address,address,address,address,address)": "cc2a9a5b",
        "liquidate(address)": "2f865568",
        "liquidateAll()": "3c2066a9",
        "mintWithUSDC(uint256)": "0cfc7386",
        "multiHopSwap(address,address,address,uint256,address)": "5efaaebb",
        "name()": "06fdde03",
        "owner()": "8da5cb5b",
        "proxiableUUID()": "52d1902d",
        "reinitialize(address,address,address,address,address,address,uint64)": "b0d60ba0",
        "renounceOwnership()": "715018a6",
        "requiredUSDCtoMint(uint256)": "aa95d893",
        "setBaluniDexAddresses(address,address)": "acd05af2",
        "singleSwap(address,address,uint256,address)": "2d6bc8ea",
        "symbol()": "95d89b41",
        "tokenValuation(uint256,address)": "2bdd955a",
        "totalSupply()": "18160ddd",
        "totalValuation()": "295b9300",
        "transfer(address,uint256)": "a9059cbb",
        "transferFrom(address,address,uint256)": "23b872dd",
        "transferOwnership(address)": "f2fde38b",
        "unitPrice()": "e73faa2d",
        "upgradeToAndCall(address,bytes)": "4f1ef286"
    },
    "gasEstimates": {
        "creation": {
            "codeDepositCost": "3843600",
            "executionCost": "infinite",
            "totalCost": "infinite"
        },
        "external": {
            "UPGRADE_INTERFACE_VERSION()": "infinite",
            "_BPS_BASE()": "2428",
            "_BPS_FEE()": "2405",
            "_MAX_BPS_FEE()": "2361",
            "allowance(address,address)": "infinite",
            "approve(address,uint256)": "infinite",
            "balanceOf(address)": "infinite",
            "burnERC20(uint256)": "infinite",
            "burnUSDC(uint256)": "infinite",
            "calculateTokenShare(uint256,uint256,uint256,uint256)": "820",
            "callRebalance(address[],uint256[],address,address,uint256,address)": "infinite",
            "changeAgentFactory(address)": "26895",
            "changeBpsFee(uint256)": "26692",
            "changeRebalancer(address)": "26851",
            "changeTreasury(address)": "26849",
            "decimals()": "221",
            "execute((address,uint256,bytes)[],address[])": "infinite",
            "getAgentAddress(address)": "infinite",
            "getTokens()": "infinite",
            "getUSDCShareValue(uint256)": "infinite",
            "getVersion()": "infinite",
            "initialize(address,address,address,address,address,address)": "infinite",
            "liquidate(address)": "infinite",
            "liquidateAll()": "infinite",
            "mintWithUSDC(uint256)": "infinite",
            "multiHopSwap(address,address,address,uint256,address)": "infinite",
            "name()": "infinite",
            "owner()": "2375",
            "proxiableUUID()": "infinite",
            "reinitialize(address,address,address,address,address,address,uint64)": "infinite",
            "renounceOwnership()": "infinite",
            "requiredUSDCtoMint(uint256)": "infinite",
            "setBaluniDexAddresses(address,address)": "infinite",
            "singleSwap(address,address,uint256,address)": "infinite",
            "symbol()": "infinite",
            "tokenValuation(uint256,address)": "infinite",
            "totalSupply()": "infinite",
            "totalValuation()": "infinite",
            "transfer(address,uint256)": "infinite",
            "transferFrom(address,address,uint256)": "infinite",
            "transferOwnership(address)": "infinite",
            "unitPrice()": "infinite",
            "upgradeToAndCall(address,bytes)": "infinite"
        },
        "internal": {
            "_authorizeUpgrade(address)": "infinite",
            "_calculateBaluniToUSDC(uint256)": "infinite",
            "_calculateERC20Share(uint256,uint256,uint256,uint256)": "infinite",
            "_calculateERC20Valuation(uint256,address)": "infinite",
            "_calculateNetAmountAfterFee(uint256)": "infinite",
            "_resize(uint256[] memory,uint256)": "infinite",
            "_totalValuation()": "infinite"
        }
    }
}