{
    "contractName": "BaluniV1PoolAsset",
    "abi": [
        {
            "inputs": [
                {
                    "internalType": "address",
                    "name": "target",
                    "type": "address"
                }
            ],
            "name": "AddressEmptyCode",
            "type": "error"
        },
        {
            "inputs": [
                {
                    "internalType": "address",
                    "name": "account",
                    "type": "address"
                }
            ],
            "name": "AddressInsufficientBalance",
            "type": "error"
        },
        {
            "inputs": [
                {
                    "internalType": "address",
                    "name": "spender",
                    "type": "address"
                },
                {
                    "internalType": "uint256",
                    "name": "allowance",
                    "type": "uint256"
                },
                {
                    "internalType": "uint256",
                    "name": "needed",
                    "type": "uint256"
                }
            ],
            "name": "ERC20InsufficientAllowance",
            "type": "error"
        },
        {
            "inputs": [
                {
                    "internalType": "address",
                    "name": "sender",
                    "type": "address"
                },
                {
                    "internalType": "uint256",
                    "name": "balance",
                    "type": "uint256"
                },
                {
                    "internalType": "uint256",
                    "name": "needed",
                    "type": "uint256"
                }
            ],
            "name": "ERC20InsufficientBalance",
            "type": "error"
        },
        {
            "inputs": [
                {
                    "internalType": "address",
                    "name": "approver",
                    "type": "address"
                }
            ],
            "name": "ERC20InvalidApprover",
            "type": "error"
        },
        {
            "inputs": [
                {
                    "internalType": "address",
                    "name": "receiver",
                    "type": "address"
                }
            ],
            "name": "ERC20InvalidReceiver",
            "type": "error"
        },
        {
            "inputs": [
                {
                    "internalType": "address",
                    "name": "sender",
                    "type": "address"
                }
            ],
            "name": "ERC20InvalidSender",
            "type": "error"
        },
        {
            "inputs": [
                {
                    "internalType": "address",
                    "name": "spender",
                    "type": "address"
                }
            ],
            "name": "ERC20InvalidSpender",
            "type": "error"
        },
        {
            "inputs": [],
            "name": "FailedInnerCall",
            "type": "error"
        },
        {
            "inputs": [],
            "name": "InvalidInitialization",
            "type": "error"
        },
        {
            "inputs": [],
            "name": "NotInitializing",
            "type": "error"
        },
        {
            "inputs": [
                {
                    "internalType": "address",
                    "name": "owner",
                    "type": "address"
                }
            ],
            "name": "OwnableInvalidOwner",
            "type": "error"
        },
        {
            "inputs": [
                {
                    "internalType": "address",
                    "name": "account",
                    "type": "address"
                }
            ],
            "name": "OwnableUnauthorizedAccount",
            "type": "error"
        },
        {
            "inputs": [
                {
                    "internalType": "address",
                    "name": "token",
                    "type": "address"
                }
            ],
            "name": "SafeERC20FailedOperation",
            "type": "error"
        },
        {
            "anonymous": false,
            "inputs": [
                {
                    "indexed": true,
                    "internalType": "address",
                    "name": "owner",
                    "type": "address"
                },
                {
                    "indexed": true,
                    "internalType": "address",
                    "name": "spender",
                    "type": "address"
                },
                {
                    "indexed": false,
                    "internalType": "uint256",
                    "name": "value",
                    "type": "uint256"
                }
            ],
            "name": "Approval",
            "type": "event"
        },
        {
            "anonymous": false,
            "inputs": [
                {
                    "indexed": false,
                    "internalType": "uint256",
                    "name": "previousCashPosition",
                    "type": "uint256"
                },
                {
                    "indexed": false,
                    "internalType": "uint256",
                    "name": "cashBeingAdded",
                    "type": "uint256"
                }
            ],
            "name": "CashAdded",
            "type": "event"
        },
        {
            "anonymous": false,
            "inputs": [
                {
                    "indexed": false,
                    "internalType": "uint256",
                    "name": "previousCashPosition",
                    "type": "uint256"
                },
                {
                    "indexed": false,
                    "internalType": "uint256",
                    "name": "cashBeingRemoved",
                    "type": "uint256"
                }
            ],
            "name": "CashRemoved",
            "type": "event"
        },
        {
            "anonymous": false,
            "inputs": [
                {
                    "indexed": false,
                    "internalType": "uint64",
                    "name": "version",
                    "type": "uint64"
                }
            ],
            "name": "Initialized",
            "type": "event"
        },
        {
            "anonymous": false,
            "inputs": [
                {
                    "indexed": false,
                    "internalType": "uint256",
                    "name": "previousLiabilityPosition",
                    "type": "uint256"
                },
                {
                    "indexed": false,
                    "internalType": "uint256",
                    "name": "liabilityBeingAdded",
                    "type": "uint256"
                }
            ],
            "name": "LiabilityAdded",
            "type": "event"
        },
        {
            "anonymous": false,
            "inputs": [
                {
                    "indexed": false,
                    "internalType": "uint256",
                    "name": "previousLiabilityPosition",
                    "type": "uint256"
                },
                {
                    "indexed": false,
                    "internalType": "uint256",
                    "name": "liabilityBeingRemoved",
                    "type": "uint256"
                }
            ],
            "name": "LiabilityRemoved",
            "type": "event"
        },
        {
            "anonymous": false,
            "inputs": [
                {
                    "indexed": false,
                    "internalType": "uint256",
                    "name": "previousMaxSupply",
                    "type": "uint256"
                },
                {
                    "indexed": false,
                    "internalType": "uint256",
                    "name": "newMaxSupply",
                    "type": "uint256"
                }
            ],
            "name": "MaxSupplyUpdated",
            "type": "event"
        },
        {
            "anonymous": false,
            "inputs": [
                {
                    "indexed": true,
                    "internalType": "address",
                    "name": "previousOwner",
                    "type": "address"
                },
                {
                    "indexed": true,
                    "internalType": "address",
                    "name": "newOwner",
                    "type": "address"
                }
            ],
            "name": "OwnershipTransferred",
            "type": "event"
        },
        {
            "anonymous": false,
            "inputs": [
                {
                    "indexed": true,
                    "internalType": "address",
                    "name": "previousPool",
                    "type": "address"
                },
                {
                    "indexed": true,
                    "internalType": "address",
                    "name": "newPool",
                    "type": "address"
                }
            ],
            "name": "PoolUpdated",
            "type": "event"
        },
        {
            "anonymous": false,
            "inputs": [
                {
                    "indexed": true,
                    "internalType": "address",
                    "name": "from",
                    "type": "address"
                },
                {
                    "indexed": true,
                    "internalType": "address",
                    "name": "to",
                    "type": "address"
                },
                {
                    "indexed": false,
                    "internalType": "uint256",
                    "name": "value",
                    "type": "uint256"
                }
            ],
            "name": "Transfer",
            "type": "event"
        },
        {
            "inputs": [
                {
                    "internalType": "uint256",
                    "name": "amount",
                    "type": "uint256"
                }
            ],
            "name": "addCash",
            "outputs": [],
            "stateMutability": "nonpayable",
            "type": "function"
        },
        {
            "inputs": [
                {
                    "internalType": "uint256",
                    "name": "amount",
                    "type": "uint256"
                }
            ],
            "name": "addLiability",
            "outputs": [],
            "stateMutability": "nonpayable",
            "type": "function"
        },
        {
            "inputs": [],
            "name": "aggregateAccount",
            "outputs": [
                {
                    "internalType": "address",
                    "name": "",
                    "type": "address"
                }
            ],
            "stateMutability": "view",
            "type": "function"
        },
        {
            "inputs": [
                {
                    "internalType": "address",
                    "name": "owner",
                    "type": "address"
                },
                {
                    "internalType": "address",
                    "name": "spender",
                    "type": "address"
                }
            ],
            "name": "allowance",
            "outputs": [
                {
                    "internalType": "uint256",
                    "name": "",
                    "type": "uint256"
                }
            ],
            "stateMutability": "view",
            "type": "function"
        },
        {
            "inputs": [
                {
                    "internalType": "address",
                    "name": "spender",
                    "type": "address"
                },
                {
                    "internalType": "uint256",
                    "name": "value",
                    "type": "uint256"
                }
            ],
            "name": "approve",
            "outputs": [
                {
                    "internalType": "bool",
                    "name": "",
                    "type": "bool"
                }
            ],
            "stateMutability": "nonpayable",
            "type": "function"
        },
        {
            "inputs": [
                {
                    "internalType": "address",
                    "name": "account",
                    "type": "address"
                }
            ],
            "name": "balanceOf",
            "outputs": [
                {
                    "internalType": "uint256",
                    "name": "",
                    "type": "uint256"
                }
            ],
            "stateMutability": "view",
            "type": "function"
        },
        {
            "inputs": [
                {
                    "internalType": "address",
                    "name": "to",
                    "type": "address"
                },
                {
                    "internalType": "uint256",
                    "name": "amount",
                    "type": "uint256"
                }
            ],
            "name": "burn",
            "outputs": [],
            "stateMutability": "nonpayable",
            "type": "function"
        },
        {
            "inputs": [],
            "name": "cash",
            "outputs": [
                {
                    "internalType": "uint256",
                    "name": "",
                    "type": "uint256"
                }
            ],
            "stateMutability": "view",
            "type": "function"
        },
        {
            "inputs": [],
            "name": "decimals",
            "outputs": [
                {
                    "internalType": "uint8",
                    "name": "",
                    "type": "uint8"
                }
            ],
            "stateMutability": "view",
            "type": "function"
        },
        {
            "inputs": [
                {
                    "internalType": "address",
                    "name": "underlyingToken_",
                    "type": "address"
                },
                {
                    "internalType": "string",
                    "name": "name_",
                    "type": "string"
                },
                {
                    "internalType": "string",
                    "name": "symbol_",
                    "type": "string"
                },
                {
                    "internalType": "address",
                    "name": "aggregateAccount_",
                    "type": "address"
                }
            ],
            "name": "initialize",
            "outputs": [],
            "stateMutability": "nonpayable",
            "type": "function"
        },
        {
            "inputs": [],
            "name": "liability",
            "outputs": [
                {
                    "internalType": "uint256",
                    "name": "",
                    "type": "uint256"
                }
            ],
            "stateMutability": "view",
            "type": "function"
        },
        {
            "inputs": [],
            "name": "maxSupply",
            "outputs": [
                {
                    "internalType": "uint256",
                    "name": "",
                    "type": "uint256"
                }
            ],
            "stateMutability": "view",
            "type": "function"
        },
        {
            "inputs": [
                {
                    "internalType": "address",
                    "name": "to",
                    "type": "address"
                },
                {
                    "internalType": "uint256",
                    "name": "amount",
                    "type": "uint256"
                }
            ],
            "name": "mint",
            "outputs": [],
            "stateMutability": "nonpayable",
            "type": "function"
        },
        {
            "inputs": [],
            "name": "name",
            "outputs": [
                {
                    "internalType": "string",
                    "name": "",
                    "type": "string"
                }
            ],
            "stateMutability": "view",
            "type": "function"
        },
        {
            "inputs": [],
            "name": "owner",
            "outputs": [
                {
                    "internalType": "address",
                    "name": "",
                    "type": "address"
                }
            ],
            "stateMutability": "view",
            "type": "function"
        },
        {
            "inputs": [],
            "name": "pool",
            "outputs": [
                {
                    "internalType": "address",
                    "name": "",
                    "type": "address"
                }
            ],
            "stateMutability": "view",
            "type": "function"
        },
        {
            "inputs": [
                {
                    "internalType": "uint256",
                    "name": "amount",
                    "type": "uint256"
                }
            ],
            "name": "removeCash",
            "outputs": [],
            "stateMutability": "nonpayable",
            "type": "function"
        },
        {
            "inputs": [
                {
                    "internalType": "uint256",
                    "name": "amount",
                    "type": "uint256"
                }
            ],
            "name": "removeLiability",
            "outputs": [],
            "stateMutability": "nonpayable",
            "type": "function"
        },
        {
            "inputs": [],
            "name": "renounceOwnership",
            "outputs": [],
            "stateMutability": "nonpayable",
            "type": "function"
        },
        {
            "inputs": [
                {
                    "internalType": "address",
                    "name": "aggregateAccount_",
                    "type": "address"
                }
            ],
            "name": "setAggregateAccount",
            "outputs": [],
            "stateMutability": "nonpayable",
            "type": "function"
        },
        {
            "inputs": [
                {
                    "internalType": "uint256",
                    "name": "maxSupply_",
                    "type": "uint256"
                }
            ],
            "name": "setMaxSupply",
            "outputs": [],
            "stateMutability": "nonpayable",
            "type": "function"
        },
        {
            "inputs": [
                {
                    "internalType": "address",
                    "name": "pool_",
                    "type": "address"
                }
            ],
            "name": "setPool",
            "outputs": [],
            "stateMutability": "nonpayable",
            "type": "function"
        },
        {
            "inputs": [],
            "name": "symbol",
            "outputs": [
                {
                    "internalType": "string",
                    "name": "",
                    "type": "string"
                }
            ],
            "stateMutability": "view",
            "type": "function"
        },
        {
            "inputs": [],
            "name": "totalSupply",
            "outputs": [
                {
                    "internalType": "uint256",
                    "name": "",
                    "type": "uint256"
                }
            ],
            "stateMutability": "view",
            "type": "function"
        },
        {
            "inputs": [
                {
                    "internalType": "address",
                    "name": "to",
                    "type": "address"
                },
                {
                    "internalType": "uint256",
                    "name": "value",
                    "type": "uint256"
                }
            ],
            "name": "transfer",
            "outputs": [
                {
                    "internalType": "bool",
                    "name": "",
                    "type": "bool"
                }
            ],
            "stateMutability": "nonpayable",
            "type": "function"
        },
        {
            "inputs": [
                {
                    "internalType": "address",
                    "name": "from",
                    "type": "address"
                },
                {
                    "internalType": "address",
                    "name": "to",
                    "type": "address"
                },
                {
                    "internalType": "uint256",
                    "name": "value",
                    "type": "uint256"
                }
            ],
            "name": "transferFrom",
            "outputs": [
                {
                    "internalType": "bool",
                    "name": "",
                    "type": "bool"
                }
            ],
            "stateMutability": "nonpayable",
            "type": "function"
        },
        {
            "inputs": [
                {
                    "internalType": "address",
                    "name": "newOwner",
                    "type": "address"
                }
            ],
            "name": "transferOwnership",
            "outputs": [],
            "stateMutability": "nonpayable",
            "type": "function"
        },
        {
            "inputs": [
                {
                    "internalType": "address",
                    "name": "to",
                    "type": "address"
                },
                {
                    "internalType": "uint256",
                    "name": "amount",
                    "type": "uint256"
                }
            ],
            "name": "transferUnderlyingToken",
            "outputs": [],
            "stateMutability": "nonpayable",
            "type": "function"
        },
        {
            "inputs": [],
            "name": "underlyingToken",
            "outputs": [
                {
                    "internalType": "address",
                    "name": "",
                    "type": "address"
                }
            ],
            "stateMutability": "view",
            "type": "function"
        },
        {
            "inputs": [],
            "name": "underlyingTokenBalance",
            "outputs": [
                {
                    "internalType": "uint256",
                    "name": "",
                    "type": "uint256"
                }
            ],
            "stateMutability": "view",
            "type": "function"
        }
    ],
    "bytecode": "6080604052348015600e575f80fd5b50611c648061001c5f395ff3fe608060405234801561000f575f80fd5b50600436106101d1575f3560e01c80637e1317fa116100fe5780639e79eaa51161009e578063d5abeb011161006e578063d5abeb0114610419578063d8b8785314610421578063dd62ed3e14610434578063f2fde38b14610447575f80fd5b80639e79eaa5146103cd5780639f9ef988146103e0578063a0f0f604146103f3578063a9059cbb14610406575f80fd5b806395d89b41116100d957806395d89b41146103a2578063961be391146103aa57806399c91a64146103b25780639dc29fac146103ba575f80fd5b80637e1317fa1461034e5780638da5cb5b1461035f57806395d6f7b91461038f575f80fd5b8063313ce567116101745780636f8b44b0116101445780636f8b44b0146102f7578063705727b51461030a57806370a0823114610312578063715018a614610346575f80fd5b8063313ce567146102a457806340c10f19146102be5780634437152a146102d1578063613d25bb146102e4575f80fd5b806316f0115b116101af57806316f0115b1461022b57806318160ddd1461025057806323b872dd146102815780632495a59914610294575f80fd5b806306fdde03146101d5578063095ea7b3146101f357806316c9e7a014610216575b5f80fd5b6101dd61045a565b6040516101ea91906117d6565b60405180910390f35b610206610201366004611826565b61051a565b60405190151581526020016101ea565b61022961022436600461184e565b610533565b005b6001546001600160a01b03165b6040516001600160a01b0390911681526020016101ea565b7f52c63247e1f47db19d5ce0460030c497f067ca4cebf71ba98eeadabe20bace02545b6040519081526020016101ea565b61020661028f366004611865565b610624565b5f546001600160a01b0316610238565b6102ac610649565b60405160ff90911681526020016101ea565b6102296102cc366004611826565b6106c2565b6102296102df36600461189e565b610870565b6102296102f2366004611954565b610929565b61022961030536600461184e565b610bf1565b600354610273565b61027361032036600461189e565b6001600160a01b03165f9081525f80516020611c0f833981519152602052604090205490565b610229610c3a565b6005546001600160a01b0316610238565b7f9016d09d72d40fdae2fd8ceac6b6234c7706214fd39c1cd1e609a0528c199300546001600160a01b0316610238565b61022961039d36600461189e565b610c4d565b6101dd610ce2565b600254610273565b610273610d20565b6102296103c8366004611826565b610d8a565b6102296103db366004611826565b610dbe565b6102296103ee36600461184e565b610dfe565b61022961040136600461184e565b610f16565b610206610414366004611826565b610fb6565b600654610273565b61022961042f36600461184e565b610fc3565b6102736104423660046119d4565b6110b5565b61022961045536600461189e565b6110fe565b7f52c63247e1f47db19d5ce0460030c497f067ca4cebf71ba98eeadabe20bace0380546060915f80516020611c0f8339815191529161049890611a05565b80601f01602080910402602001604051908101604052809291908181526020018280546104c490611a05565b801561050f5780601f106104e65761010080835404028352916020019161050f565b820191905f5260205f20905b8154815290600101906020018083116104f257829003601f168201915b505050505091505090565b5f3361052781858561113b565b60019150505b92915050565b6001546001600160a01b031633146105665760405162461bcd60e51b815260040161055d90611a3d565b60405180910390fd5b8060025f8282546105779190611a78565b925050819055507f04da412052b8d39d78da489e294630fcb3874f03dcb0ead4481c0a6d70df1e1581306001600160a01b031663961be3916040518163ffffffff1660e01b8152600401602060405180830381865afa1580156105dc573d5f803e3d5ffd5b505050506040513d601f19601f820116820180604052508101906106009190611a8b565b61060a9190611aa2565b60408051918252602082018490520160405180910390a150565b5f3361063185828561114d565b61063c8585856111b0565b60019150505b9392505050565b5f805f9054906101000a90046001600160a01b03166001600160a01b031663313ce5676040518163ffffffff1660e01b8152600401602060405180830381865afa158015610699573d5f803e3d5ffd5b505050506040513d601f19601f820116820180604052508101906106bd9190611ab5565b905090565b6001546001600160a01b031633146106ec5760405162461bcd60e51b815260040161055d90611a3d565b306001600160a01b031663d5abeb016040518163ffffffff1660e01b8152600401602060405180830381865afa158015610728573d5f803e3d5ffd5b505050506040513d601f19601f8201168201806040525081019061074c9190611a8b565b1561086257306001600160a01b031663d5abeb016040518163ffffffff1660e01b8152600401602060405180830381865afa15801561078d573d5f803e3d5ffd5b505050506040513d601f19601f820116820180604052508101906107b19190611a8b565b306001600160a01b03166318160ddd6040518163ffffffff1660e01b8152600401602060405180830381865afa1580156107ed573d5f803e3d5ffd5b505050506040513d601f19601f820116820180604052508101906108119190611a8b565b61081b9083611a78565b11156108625760405162461bcd60e51b81526020600482015260166024820152751415130e93505617d4d55414131657d4915050d2115160521b604482015260640161055d565b61086c828261120d565b5050565b610878611241565b6001600160a01b0381166108ce5760405162461bcd60e51b815260206004820152601f60248201527f50544c3a506f6f6c20616464726573732063616e6e6f74206265207a65726f00604482015260640161055d565b6001546040516001600160a01b038084169216907f90affc163f1a2dfedcd36aa02ed992eeeba8100a4014f0b4cdc20ea265a66627905f90a3600180546001600160a01b0319166001600160a01b0392909216919091179055565b7ff0c57e16840df040f15088dc2f81fe391c3923bec73e23a9662efc9c229c6a008054600160401b810460ff16159067ffffffffffffffff165f8115801561096e5750825b90505f8267ffffffffffffffff16600114801561098a5750303b155b905081158015610998575080155b156109b65760405163f92ee8a960e01b815260040160405180910390fd5b845467ffffffffffffffff1916600117855583156109e057845460ff60401b1916600160401b1785555b6001600160a01b038916610a365760405162461bcd60e51b815260206004820181905260248201527f50544c3a546f6b656e20616464726573732063616e6e6f74206265207a65726f604482015260640161055d565b6001600160a01b038616610aa15760405162461bcd60e51b815260206004820152602c60248201527f50544c3a416767726567617465206163636f756e74206164647265737320636160448201526b6e6e6f74206265207a65726f60a01b606482015260840161055d565b6012896001600160a01b031663313ce5676040518163ffffffff1660e01b8152600401602060405180830381865afa158015610adf573d5f803e3d5ffd5b505050506040513d601f19601f82011682018060405250810190610b039190611ab5565b60ff161115610b545760405162461bcd60e51b815260206004820152601d60248201527f504c543a446563696d616c73206d75737420626520756e646572203138000000604482015260640161055d565b610b5d3361129c565b610b6788886112ad565b60048054336001600160a01b0319918216179091555f805482166001600160a01b038c811691909117909155600580549092169088161790558315610be657845460ff60401b19168555604051600181527fc7f505b2f371ae2175ee4913f4499e1f2633a7b5936321eed1cdaeb6115181d29060200160405180910390a15b505050505050505050565b610bf9611241565b60065460408051918252602082018390527f44ecfc706d63e347851cfd40acfa6cf2e3a41faa3e8b460210c03938e84a91ad910160405180910390a1600655565b610c42611241565b610c4b5f6112bf565b565b610c55611241565b6001600160a01b038116610cc05760405162461bcd60e51b815260206004820152602c60248201527f50544c3a416767726567617465204163636f756e74206164647265737320636160448201526b6e6e6f74206265207a65726f60a01b606482015260840161055d565b600580546001600160a01b0319166001600160a01b0392909216919091179055565b7f52c63247e1f47db19d5ce0460030c497f067ca4cebf71ba98eeadabe20bace0480546060915f80516020611c0f8339815191529161049890611a05565b5f80546040516370a0823160e01b81523060048201526001600160a01b03909116906370a0823190602401602060405180830381865afa158015610d66573d5f803e3d5ffd5b505050506040513d601f19601f820116820180604052508101906106bd9190611a8b565b6001546001600160a01b03163314610db45760405162461bcd60e51b815260040161055d90611a3d565b61086c828261132f565b6001546001600160a01b03163314610de85760405162461bcd60e51b815260040161055d90611a3d565b5f5461086c906001600160a01b03168383611363565b6001546001600160a01b03163314610e285760405162461bcd60e51b815260040161055d90611a3d565b806002541015610e725760405162461bcd60e51b81526020600482015260156024820152740a0a89874929ca6aa8c8c9286928a9ca8be8682a69605b1b604482015260640161055d565b8060025f828254610e839190611aa2565b925050819055507ff15a954400c2f966714cd09162f79a6682b77351200ad1d595000057fc4ee99981306001600160a01b031663961be3916040518163ffffffff1660e01b8152600401602060405180830381865afa158015610ee8573d5f803e3d5ffd5b505050506040513d601f19601f82011682018060405250810190610f0c9190611a8b565b61060a9190611a78565b6001546001600160a01b03163314610f405760405162461bcd60e51b815260040161055d90611a3d565b8060035f828254610f519190611a78565b925050819055507f2b74a49d287a99ef6b8a9f27aaef936372e282e0e95a6352f07c9fd12596655c81306001600160a01b031663705727b56040518163ffffffff1660e01b8152600401602060405180830381865afa1580156105dc573d5f803e3d5ffd5b5f336105278185856111b0565b6001546001600160a01b03163314610fed5760405162461bcd60e51b815260040161055d90611a3d565b80600354101561103f5760405162461bcd60e51b815260206004820152601a60248201527f50544c3a494e53554646494349454e545f4c494142494c495459000000000000604482015260640161055d565b8060035f8282546110509190611aa2565b925050819055507fdf20ac3c7d97136ceef3f041d542947447276d67c158dced2e33d1ee7984f53081306001600160a01b031663705727b56040518163ffffffff1660e01b8152600401602060405180830381865afa158015610ee8573d5f803e3d5ffd5b6001600160a01b039182165f9081527f52c63247e1f47db19d5ce0460030c497f067ca4cebf71ba98eeadabe20bace016020908152604080832093909416825291909152205490565b611106611241565b6001600160a01b03811661112f57604051631e4fbdf760e01b81525f600482015260240161055d565b611138816112bf565b50565b61114883838360016113b5565b505050565b5f61115884846110b5565b90505f1981146111aa578181101561119c57604051637dc7a0d960e11b81526001600160a01b0384166004820152602481018290526044810183905260640161055d565b6111aa84848484035f6113b5565b50505050565b6001600160a01b0383166111d957604051634b637e8f60e11b81525f600482015260240161055d565b6001600160a01b0382166112025760405163ec442f0560e01b81525f600482015260240161055d565b611148838383611499565b6001600160a01b0382166112365760405163ec442f0560e01b81525f600482015260240161055d565b61086c5f8383611499565b336112737f9016d09d72d40fdae2fd8ceac6b6234c7706214fd39c1cd1e609a0528c199300546001600160a01b031690565b6001600160a01b031614610c4b5760405163118cdaa760e01b815233600482015260240161055d565b6112a46115d2565b6111388161161b565b6112b56115d2565b61086c8282611623565b7f9016d09d72d40fdae2fd8ceac6b6234c7706214fd39c1cd1e609a0528c19930080546001600160a01b031981166001600160a01b03848116918217845560405192169182907f8be0079c531659141344cd1fd0a4f28419497f9722a3daafe3b4186f6b6457e0905f90a3505050565b6001600160a01b03821661135857604051634b637e8f60e11b81525f600482015260240161055d565b61086c825f83611499565b604080516001600160a01b038416602482015260448082018490528251808303909101815260649091019091526020810180516001600160e01b031663a9059cbb60e01b179052611148908490611673565b5f80516020611c0f8339815191526001600160a01b0385166113ec5760405163e602df0560e01b81525f600482015260240161055d565b6001600160a01b03841661141557604051634a1406b160e11b81525f600482015260240161055d565b6001600160a01b038086165f9081526001830160209081526040808320938816835292905220839055811561149257836001600160a01b0316856001600160a01b03167f8c5be1e5ebec7d5bd14f71427d1e84f3dd0314c0f7b2291e5b200ac8c7c3b9258560405161148991815260200190565b60405180910390a35b5050505050565b5f80516020611c0f8339815191526001600160a01b0384166114d35781816002015f8282546114c89190611a78565b909155506115439050565b6001600160a01b0384165f90815260208290526040902054828110156115255760405163391434e360e21b81526001600160a01b0386166004820152602481018290526044810184905260640161055d565b6001600160a01b0385165f9081526020839052604090209083900390555b6001600160a01b03831661156157600281018054839003905561157f565b6001600160a01b0383165f9081526020829052604090208054830190555b826001600160a01b0316846001600160a01b03167fddf252ad1be2c89b69c2b068fc378daa952ba7f163c4a11628f55a4df523b3ef846040516115c491815260200190565b60405180910390a350505050565b7ff0c57e16840df040f15088dc2f81fe391c3923bec73e23a9662efc9c229c6a0054600160401b900460ff16610c4b57604051631afcd79f60e31b815260040160405180910390fd5b6111066115d2565b61162b6115d2565b5f80516020611c0f8339815191527f52c63247e1f47db19d5ce0460030c497f067ca4cebf71ba98eeadabe20bace036116648482611b19565b50600481016111aa8382611b19565b5f6116876001600160a01b038416836116d4565b905080515f141580156116ab5750808060200190518101906116a99190611bd9565b155b1561114857604051635274afe760e01b81526001600160a01b038416600482015260240161055d565b606061064283835f845f80856001600160a01b031684866040516116f89190611bf8565b5f6040518083038185875af1925050503d805f8114611732576040519150601f19603f3d011682016040523d82523d5f602084013e611737565b606091505b5091509150611747868383611751565b9695505050505050565b60608261176657611761826117ad565b610642565b815115801561177d57506001600160a01b0384163b155b156117a657604051639996b31560e01b81526001600160a01b038516600482015260240161055d565b5080610642565b8051156117bd5780518082602001fd5b604051630a12f52160e11b815260040160405180910390fd5b602081525f82518060208401528060208501604085015e5f604082850101526040601f19601f83011684010191505092915050565b80356001600160a01b0381168114611821575f80fd5b919050565b5f8060408385031215611837575f80fd5b6118408361180b565b946020939093013593505050565b5f6020828403121561185e575f80fd5b5035919050565b5f805f60608486031215611877575f80fd5b6118808461180b565b925061188e6020850161180b565b9150604084013590509250925092565b5f602082840312156118ae575f80fd5b6106428261180b565b634e487b7160e01b5f52604160045260245ffd5b5f82601f8301126118da575f80fd5b813567ffffffffffffffff808211156118f5576118f56118b7565b604051601f8301601f19908116603f0116810190828211818310171561191d5761191d6118b7565b81604052838152866020858801011115611935575f80fd5b836020870160208301375f602085830101528094505050505092915050565b5f805f8060808587031215611967575f80fd5b6119708561180b565b9350602085013567ffffffffffffffff8082111561198c575f80fd5b611998888389016118cb565b945060408701359150808211156119ad575f80fd5b506119ba878288016118cb565b9250506119c96060860161180b565b905092959194509250565b5f80604083850312156119e5575f80fd5b6119ee8361180b565b91506119fc6020840161180b565b90509250929050565b600181811c90821680611a1957607f821691505b602082108103611a3757634e487b7160e01b5f52602260045260245ffd5b50919050565b6020808252600d908201526c282a261d2327a92124a22222a760991b604082015260600190565b634e487b7160e01b5f52601160045260245ffd5b8082018082111561052d5761052d611a64565b5f60208284031215611a9b575f80fd5b5051919050565b8181038181111561052d5761052d611a64565b5f60208284031215611ac5575f80fd5b815160ff81168114610642575f80fd5b601f82111561114857805f5260205f20601f840160051c81016020851015611afa5750805b601f840160051c820191505b81811015611492575f8155600101611b06565b815167ffffffffffffffff811115611b3357611b336118b7565b611b4781611b418454611a05565b84611ad5565b602080601f831160018114611b7a575f8415611b635750858301515b5f19600386901b1c1916600185901b178555611bd1565b5f85815260208120601f198616915b82811015611ba857888601518255948401946001909101908401611b89565b5085821015611bc557878501515f19600388901b60f8161c191681555b505060018460011b0185555b505050505050565b5f60208284031215611be9575f80fd5b81518015158114610642575f80fd5b5f82518060208501845e5f92019182525091905056fe52c63247e1f47db19d5ce0460030c497f067ca4cebf71ba98eeadabe20bace00a2646970667358221220cf8a7a5fdd8e268a3e1047238bd286048da9ed1fdd1a3084c6f524cf41cd16af64736f6c63430008190033",
    "sourcePath": "c:/Users/Utente/Source/repos/baluni-contracts/contracts/BaluniV1PoolAsset.sol",
    "compiler": {
        "name": "solc",
        "version": "0.8.25+commit.b61c2a91"
    },
    "functionHashes": {
        "addCash(uint256)": "16c9e7a0",
        "addLiability(uint256)": "a0f0f604",
        "aggregateAccount()": "7e1317fa",
        "allowance(address,address)": "dd62ed3e",
        "approve(address,uint256)": "095ea7b3",
        "balanceOf(address)": "70a08231",
        "burn(address,uint256)": "9dc29fac",
        "cash()": "961be391",
        "decimals()": "313ce567",
        "initialize(address,string,string,address)": "613d25bb",
        "liability()": "705727b5",
        "maxSupply()": "d5abeb01",
        "mint(address,uint256)": "40c10f19",
        "name()": "06fdde03",
        "owner()": "8da5cb5b",
        "pool()": "16f0115b",
        "removeCash(uint256)": "9f9ef988",
        "removeLiability(uint256)": "d8b87853",
        "renounceOwnership()": "715018a6",
        "setAggregateAccount(address)": "95d6f7b9",
        "setMaxSupply(uint256)": "6f8b44b0",
        "setPool(address)": "4437152a",
        "symbol()": "95d89b41",
        "totalSupply()": "18160ddd",
        "transfer(address,uint256)": "a9059cbb",
        "transferFrom(address,address,uint256)": "23b872dd",
        "transferOwnership(address)": "f2fde38b",
        "transferUnderlyingToken(address,uint256)": "9e79eaa5",
        "underlyingToken()": "2495a599",
        "underlyingTokenBalance()": "99c91a64"
    },
    "gasEstimates": {
        "creation": {
            "codeDepositCost": "1453600",
            "executionCost": "1518",
            "totalCost": "1455118"
        },
        "external": {
            "addCash(uint256)": "infinite",
            "addLiability(uint256)": "infinite",
            "aggregateAccount()": "2376",
            "allowance(address,address)": "infinite",
            "approve(address,uint256)": "infinite",
            "balanceOf(address)": "infinite",
            "burn(address,uint256)": "infinite",
            "cash()": "2358",
            "decimals()": "infinite",
            "initialize(address,string,string,address)": "infinite",
            "liability()": "2358",
            "maxSupply()": "2335",
            "mint(address,uint256)": "infinite",
            "name()": "infinite",
            "owner()": "2398",
            "pool()": "2365",
            "removeCash(uint256)": "infinite",
            "removeLiability(uint256)": "infinite",
            "renounceOwnership()": "infinite",
            "setAggregateAccount(address)": "26891",
            "setMaxSupply(uint256)": "28001",
            "setPool(address)": "30544",
            "symbol()": "infinite",
            "totalSupply()": "2348",
            "transfer(address,uint256)": "infinite",
            "transferFrom(address,address,uint256)": "infinite",
            "transferOwnership(address)": "28475",
            "transferUnderlyingToken(address,uint256)": "infinite",
            "underlyingToken()": "2441",
            "underlyingTokenBalance()": "infinite"
        }
    }
}