{
    "contractName": "BaluniV1Registry",
    "abi": [
        {
            "inputs": [
                {
                    "internalType": "address",
                    "name": "target",
                    "type": "address"
                }
            ],
            "name": "AddressEmptyCode",
            "type": "error"
        },
        {
            "inputs": [
                {
                    "internalType": "address",
                    "name": "implementation",
                    "type": "address"
                }
            ],
            "name": "ERC1967InvalidImplementation",
            "type": "error"
        },
        {
            "inputs": [],
            "name": "ERC1967NonPayable",
            "type": "error"
        },
        {
            "inputs": [],
            "name": "FailedInnerCall",
            "type": "error"
        },
        {
            "inputs": [],
            "name": "InvalidInitialization",
            "type": "error"
        },
        {
            "inputs": [],
            "name": "NotInitializing",
            "type": "error"
        },
        {
            "inputs": [
                {
                    "internalType": "address",
                    "name": "owner",
                    "type": "address"
                }
            ],
            "name": "OwnableInvalidOwner",
            "type": "error"
        },
        {
            "inputs": [
                {
                    "internalType": "address",
                    "name": "account",
                    "type": "address"
                }
            ],
            "name": "OwnableUnauthorizedAccount",
            "type": "error"
        },
        {
            "inputs": [],
            "name": "UUPSUnauthorizedCallContext",
            "type": "error"
        },
        {
            "inputs": [
                {
                    "internalType": "bytes32",
                    "name": "slot",
                    "type": "bytes32"
                }
            ],
            "name": "UUPSUnsupportedProxiableUUID",
            "type": "error"
        },
        {
            "anonymous": false,
            "inputs": [
                {
                    "indexed": false,
                    "internalType": "uint64",
                    "name": "version",
                    "type": "uint64"
                }
            ],
            "name": "Initialized",
            "type": "event"
        },
        {
            "anonymous": false,
            "inputs": [
                {
                    "indexed": true,
                    "internalType": "address",
                    "name": "previousOwner",
                    "type": "address"
                },
                {
                    "indexed": true,
                    "internalType": "address",
                    "name": "newOwner",
                    "type": "address"
                }
            ],
            "name": "OwnershipTransferred",
            "type": "event"
        },
        {
            "anonymous": false,
            "inputs": [
                {
                    "indexed": true,
                    "internalType": "address",
                    "name": "implementation",
                    "type": "address"
                }
            ],
            "name": "Upgraded",
            "type": "event"
        },
        {
            "inputs": [],
            "name": "UPGRADE_INTERFACE_VERSION",
            "outputs": [
                {
                    "internalType": "string",
                    "name": "",
                    "type": "string"
                }
            ],
            "stateMutability": "view",
            "type": "function"
        },
        {
            "inputs": [],
            "name": "USDC",
            "outputs": [
                {
                    "internalType": "address",
                    "name": "",
                    "type": "address"
                }
            ],
            "stateMutability": "view",
            "type": "function"
        },
        {
            "inputs": [],
            "name": "WNATIVE",
            "outputs": [
                {
                    "internalType": "address",
                    "name": "",
                    "type": "address"
                }
            ],
            "stateMutability": "view",
            "type": "function"
        },
        {
            "inputs": [],
            "name": "_1inchSpotAgg",
            "outputs": [
                {
                    "internalType": "address",
                    "name": "",
                    "type": "address"
                }
            ],
            "stateMutability": "view",
            "type": "function"
        },
        {
            "inputs": [],
            "name": "_BPS_BASE",
            "outputs": [
                {
                    "internalType": "uint256",
                    "name": "",
                    "type": "uint256"
                }
            ],
            "stateMutability": "view",
            "type": "function"
        },
        {
            "inputs": [],
            "name": "_BPS_FEE",
            "outputs": [
                {
                    "internalType": "uint256",
                    "name": "",
                    "type": "uint256"
                }
            ],
            "stateMutability": "view",
            "type": "function"
        },
        {
            "inputs": [],
            "name": "_MAX_BPS_FEE",
            "outputs": [
                {
                    "internalType": "uint256",
                    "name": "",
                    "type": "uint256"
                }
            ],
            "stateMutability": "view",
            "type": "function"
        },
        {
            "inputs": [],
            "name": "baluniAgentFactory",
            "outputs": [
                {
                    "internalType": "address",
                    "name": "",
                    "type": "address"
                }
            ],
            "stateMutability": "view",
            "type": "function"
        },
        {
            "inputs": [],
            "name": "baluniOracle",
            "outputs": [
                {
                    "internalType": "address",
                    "name": "",
                    "type": "address"
                }
            ],
            "stateMutability": "view",
            "type": "function"
        },
        {
            "inputs": [],
            "name": "baluniPoolFactory",
            "outputs": [
                {
                    "internalType": "address",
                    "name": "",
                    "type": "address"
                }
            ],
            "stateMutability": "view",
            "type": "function"
        },
        {
            "inputs": [],
            "name": "baluniPoolPeriphery",
            "outputs": [
                {
                    "internalType": "address",
                    "name": "",
                    "type": "address"
                }
            ],
            "stateMutability": "view",
            "type": "function"
        },
        {
            "inputs": [],
            "name": "baluniRebalancer",
            "outputs": [
                {
                    "internalType": "address",
                    "name": "",
                    "type": "address"
                }
            ],
            "stateMutability": "view",
            "type": "function"
        },
        {
            "inputs": [],
            "name": "baluniRegistry",
            "outputs": [
                {
                    "internalType": "address",
                    "name": "",
                    "type": "address"
                }
            ],
            "stateMutability": "view",
            "type": "function"
        },
        {
            "inputs": [],
            "name": "baluniRouter",
            "outputs": [
                {
                    "internalType": "address",
                    "name": "",
                    "type": "address"
                }
            ],
            "stateMutability": "view",
            "type": "function"
        },
        {
            "inputs": [],
            "name": "baluniSwapper",
            "outputs": [
                {
                    "internalType": "address",
                    "name": "",
                    "type": "address"
                }
            ],
            "stateMutability": "view",
            "type": "function"
        },
        {
            "inputs": [],
            "name": "get1inchSpotAgg",
            "outputs": [
                {
                    "internalType": "address",
                    "name": "",
                    "type": "address"
                }
            ],
            "stateMutability": "view",
            "type": "function"
        },
        {
            "inputs": [],
            "name": "getBPS_BASE",
            "outputs": [
                {
                    "internalType": "uint256",
                    "name": "",
                    "type": "uint256"
                }
            ],
            "stateMutability": "view",
            "type": "function"
        },
        {
            "inputs": [],
            "name": "getBPS_FEE",
            "outputs": [
                {
                    "internalType": "uint256",
                    "name": "",
                    "type": "uint256"
                }
            ],
            "stateMutability": "view",
            "type": "function"
        },
        {
            "inputs": [],
            "name": "getBaluniAgentFactory",
            "outputs": [
                {
                    "internalType": "address",
                    "name": "",
                    "type": "address"
                }
            ],
            "stateMutability": "view",
            "type": "function"
        },
        {
            "inputs": [],
            "name": "getBaluniOracle",
            "outputs": [
                {
                    "internalType": "address",
                    "name": "",
                    "type": "address"
                }
            ],
            "stateMutability": "view",
            "type": "function"
        },
        {
            "inputs": [],
            "name": "getBaluniPoolFactory",
            "outputs": [
                {
                    "internalType": "address",
                    "name": "",
                    "type": "address"
                }
            ],
            "stateMutability": "view",
            "type": "function"
        },
        {
            "inputs": [],
            "name": "getBaluniPoolPeriphery",
            "outputs": [
                {
                    "internalType": "address",
                    "name": "",
                    "type": "address"
                }
            ],
            "stateMutability": "view",
            "type": "function"
        },
        {
            "inputs": [],
            "name": "getBaluniRebalancer",
            "outputs": [
                {
                    "internalType": "address",
                    "name": "",
                    "type": "address"
                }
            ],
            "stateMutability": "view",
            "type": "function"
        },
        {
            "inputs": [],
            "name": "getBaluniRegistry",
            "outputs": [
                {
                    "internalType": "address",
                    "name": "",
                    "type": "address"
                }
            ],
            "stateMutability": "view",
            "type": "function"
        },
        {
            "inputs": [],
            "name": "getBaluniRouter",
            "outputs": [
                {
                    "internalType": "address",
                    "name": "",
                    "type": "address"
                }
            ],
            "stateMutability": "view",
            "type": "function"
        },
        {
            "inputs": [],
            "name": "getBaluniSwapper",
            "outputs": [
                {
                    "internalType": "address",
                    "name": "",
                    "type": "address"
                }
            ],
            "stateMutability": "view",
            "type": "function"
        },
        {
            "inputs": [],
            "name": "getMAX_BPS_FEE",
            "outputs": [
                {
                    "internalType": "uint256",
                    "name": "",
                    "type": "uint256"
                }
            ],
            "stateMutability": "view",
            "type": "function"
        },
        {
            "inputs": [],
            "name": "getTreasury",
            "outputs": [
                {
                    "internalType": "address",
                    "name": "",
                    "type": "address"
                }
            ],
            "stateMutability": "view",
            "type": "function"
        },
        {
            "inputs": [],
            "name": "getUSDC",
            "outputs": [
                {
                    "internalType": "address",
                    "name": "",
                    "type": "address"
                }
            ],
            "stateMutability": "view",
            "type": "function"
        },
        {
            "inputs": [],
            "name": "getUniswapFactory",
            "outputs": [
                {
                    "internalType": "address",
                    "name": "",
                    "type": "address"
                }
            ],
            "stateMutability": "view",
            "type": "function"
        },
        {
            "inputs": [],
            "name": "getUniswapRouter",
            "outputs": [
                {
                    "internalType": "address",
                    "name": "",
                    "type": "address"
                }
            ],
            "stateMutability": "view",
            "type": "function"
        },
        {
            "inputs": [],
            "name": "getWNATIVE",
            "outputs": [
                {
                    "internalType": "address",
                    "name": "",
                    "type": "address"
                }
            ],
            "stateMutability": "view",
            "type": "function"
        },
        {
            "inputs": [],
            "name": "initialize",
            "outputs": [],
            "stateMutability": "nonpayable",
            "type": "function"
        },
        {
            "inputs": [],
            "name": "owner",
            "outputs": [
                {
                    "internalType": "address",
                    "name": "",
                    "type": "address"
                }
            ],
            "stateMutability": "view",
            "type": "function"
        },
        {
            "inputs": [],
            "name": "proxiableUUID",
            "outputs": [
                {
                    "internalType": "bytes32",
                    "name": "",
                    "type": "bytes32"
                }
            ],
            "stateMutability": "view",
            "type": "function"
        },
        {
            "inputs": [],
            "name": "renounceOwnership",
            "outputs": [],
            "stateMutability": "nonpayable",
            "type": "function"
        },
        {
            "inputs": [
                {
                    "internalType": "address",
                    "name": "__1inchSpotAgg",
                    "type": "address"
                }
            ],
            "name": "set1inchSpotAgg",
            "outputs": [],
            "stateMutability": "nonpayable",
            "type": "function"
        },
        {
            "inputs": [
                {
                    "internalType": "uint256",
                    "name": "__BPS_FEE",
                    "type": "uint256"
                }
            ],
            "name": "setBPS_FEE",
            "outputs": [],
            "stateMutability": "nonpayable",
            "type": "function"
        },
        {
            "inputs": [
                {
                    "internalType": "address",
                    "name": "_baluniAgentFactory",
                    "type": "address"
                }
            ],
            "name": "setBaluniAgentFactory",
            "outputs": [],
            "stateMutability": "nonpayable",
            "type": "function"
        },
        {
            "inputs": [
                {
                    "internalType": "address",
                    "name": "_baluniOracle",
                    "type": "address"
                }
            ],
            "name": "setBaluniOracle",
            "outputs": [],
            "stateMutability": "nonpayable",
            "type": "function"
        },
        {
            "inputs": [
                {
                    "internalType": "address",
                    "name": "_baluniPoolFactory",
                    "type": "address"
                }
            ],
            "name": "setBaluniPoolFactory",
            "outputs": [],
            "stateMutability": "nonpayable",
            "type": "function"
        },
        {
            "inputs": [
                {
                    "internalType": "address",
                    "name": "_baluniPoolPeriphery",
                    "type": "address"
                }
            ],
            "name": "setBaluniPoolPeriphery",
            "outputs": [],
            "stateMutability": "nonpayable",
            "type": "function"
        },
        {
            "inputs": [
                {
                    "internalType": "address",
                    "name": "_baluniRebalancer",
                    "type": "address"
                }
            ],
            "name": "setBaluniRebalancer",
            "outputs": [],
            "stateMutability": "nonpayable",
            "type": "function"
        },
        {
            "inputs": [
                {
                    "internalType": "address",
                    "name": "_baluniRegistry",
                    "type": "address"
                }
            ],
            "name": "setBaluniRegistry",
            "outputs": [],
            "stateMutability": "nonpayable",
            "type": "function"
        },
        {
            "inputs": [
                {
                    "internalType": "address",
                    "name": "_baluniRouter",
                    "type": "address"
                }
            ],
            "name": "setBaluniRouter",
            "outputs": [],
            "stateMutability": "nonpayable",
            "type": "function"
        },
        {
            "inputs": [
                {
                    "internalType": "address",
                    "name": "_baluniSwapper",
                    "type": "address"
                }
            ],
            "name": "setBaluniSwapper",
            "outputs": [],
            "stateMutability": "nonpayable",
            "type": "function"
        },
        {
            "inputs": [
                {
                    "internalType": "address",
                    "name": "_treasury",
                    "type": "address"
                }
            ],
            "name": "setTreasury",
            "outputs": [],
            "stateMutability": "nonpayable",
            "type": "function"
        },
        {
            "inputs": [
                {
                    "internalType": "address",
                    "name": "_USDC",
                    "type": "address"
                }
            ],
            "name": "setUSDC",
            "outputs": [],
            "stateMutability": "nonpayable",
            "type": "function"
        },
        {
            "inputs": [
                {
                    "internalType": "address",
                    "name": "_uniswapFactory",
                    "type": "address"
                }
            ],
            "name": "setUniswapFactory",
            "outputs": [],
            "stateMutability": "nonpayable",
            "type": "function"
        },
        {
            "inputs": [
                {
                    "internalType": "address",
                    "name": "_uniswapRouter",
                    "type": "address"
                }
            ],
            "name": "setUniswapRouter",
            "outputs": [],
            "stateMutability": "nonpayable",
            "type": "function"
        },
        {
            "inputs": [
                {
                    "internalType": "address",
                    "name": "_WNATIVE",
                    "type": "address"
                }
            ],
            "name": "setWNATIVE",
            "outputs": [],
            "stateMutability": "nonpayable",
            "type": "function"
        },
        {
            "inputs": [
                {
                    "internalType": "address",
                    "name": "newOwner",
                    "type": "address"
                }
            ],
            "name": "transferOwnership",
            "outputs": [],
            "stateMutability": "nonpayable",
            "type": "function"
        },
        {
            "inputs": [],
            "name": "treasury",
            "outputs": [
                {
                    "internalType": "address",
                    "name": "",
                    "type": "address"
                }
            ],
            "stateMutability": "view",
            "type": "function"
        },
        {
            "inputs": [],
            "name": "uniswapFactory",
            "outputs": [
                {
                    "internalType": "address",
                    "name": "",
                    "type": "address"
                }
            ],
            "stateMutability": "view",
            "type": "function"
        },
        {
            "inputs": [],
            "name": "uniswapRouter",
            "outputs": [
                {
                    "internalType": "address",
                    "name": "",
                    "type": "address"
                }
            ],
            "stateMutability": "view",
            "type": "function"
        },
        {
            "inputs": [
                {
                    "internalType": "address",
                    "name": "newImplementation",
                    "type": "address"
                },
                {
                    "internalType": "bytes",
                    "name": "data",
                    "type": "bytes"
                }
            ],
            "name": "upgradeToAndCall",
            "outputs": [],
            "stateMutability": "payable",
            "type": "function"
        }
    ],
    "bytecode": "60a0604052306080523480156012575f80fd5b506080516114536100395f395f8181610e2a01528181610e530152610f9701526114535ff3fe60806040526004361061035b575f3560e01c806382755ebb116101bd578063b9f5e617116100f2578063e04b677f11610092578063f1dccde71161006d578063f1dccde714610987578063f2fde38b146109a6578063f5b84f64146108d1578063f5d2d998146109c5575f80fd5b8063e04b677f1461092a578063e528ca1214610949578063f0f4426014610968575f80fd5b8063c08f786b116100cd578063c08f786b146108b2578063c3f5df5c146108d1578063c9aba8ae146108f0578063cff49d681461090d575f80fd5b8063b9f5e61714610861578063bb3ba04c14610876578063bea9849e14610893575f80fd5b80639380fb6f1161015d578063b381cf4011610138578063b381cf40146107e5578063b3e089a214610804578063b691a41914610823578063b6fe9cc714610842575f80fd5b80639380fb6f146107755780639e6453f814610789578063ad3cb1cc146107a8575f80fd5b806389a302711161019857806389a30271146106df5780638bdb2afa146106fe5780638da5cb5b1461071c5780638e1c3a8a14610758575f80fd5b806382755ebb1461069957806385377188146106b657806385462d6f146106cb575f80fd5b8063524900b511610293578063715018a6116102335780637c6fd3081161020e5780637c6fd3081461062a5780637dfb7ea1146106475780638129fc1c146106665780638267c2c81461067a575f80fd5b8063715018a6146105d8578063735de9f7146105ec578063782dd9021461060b575f80fd5b806358a672331161026e57806358a672331461055e57806361d027b31461057d5780636c43274c1461059c5780636c9c0078146105bb575f80fd5b8063524900b51461050e57806352d1902d1461052b578063588c5b701461053f575f80fd5b806339b65140116102fe578063400fb668116102d9578063400fb668146104a9578063468a7071146104c85780634f1ef286146104e75780634f4608a2146104fa575f80fd5b806339b65140146104515780633b19e84a146104705780633e6dfa361461048d575f80fd5b80631acb6141116103395780631acb6141146103d55780631bf01e9b146103f2578063219ce3391461040f57806334decfc91461042e575f80fd5b80630241bffa1461035f57806304cc7325146103805780631292f02e146103b6575b5f80fd5b34801561036a575f80fd5b5061037e61037936600461129b565b6109e2565b005b34801561038b575f80fd5b506006546001600160a01b03165b6040516001600160a01b0390911681526020015b60405180910390f35b3480156103c1575f80fd5b50600254610399906001600160a01b031681565b3480156103e0575f80fd5b506003546001600160a01b0316610399565b3480156103fd575f80fd5b50600c546001600160a01b0316610399565b34801561041a575f80fd5b50600454610399906001600160a01b031681565b348015610439575f80fd5b50610443600e5481565b6040519081526020016103ad565b34801561045c575f80fd5b50600654610399906001600160a01b031681565b34801561047b575f80fd5b50600a546001600160a01b0316610399565b348015610498575f80fd5b505f546001600160a01b0316610399565b3480156104b4575f80fd5b5061037e6104c336600461129b565b610a0c565b3480156104d3575f80fd5b50600854610399906001600160a01b031681565b61037e6104f53660046112c8565b610a36565b348015610505575f80fd5b50601054610443565b348015610519575f80fd5b506001546001600160a01b0316610399565b348015610536575f80fd5b50610443610a55565b34801561054a575f80fd5b5061037e61055936600461129b565b610a70565b348015610569575f80fd5b50600354610399906001600160a01b031681565b348015610588575f80fd5b50600a54610399906001600160a01b031681565b3480156105a7575f80fd5b5061037e6105b636600461129b565b610a9a565b3480156105c6575f80fd5b50600b546001600160a01b0316610399565b3480156105e3575f80fd5b5061037e610ac4565b3480156105f7575f80fd5b50600154610399906001600160a01b031681565b348015610616575f80fd5b50600d54610399906001600160a01b031681565b348015610635575f80fd5b506004546001600160a01b0316610399565b348015610652575f80fd5b50600954610399906001600160a01b031681565b348015610671575f80fd5b5061037e610ad7565b348015610685575f80fd5b5061037e61069436600461129b565b610bfc565b3480156106a4575f80fd5b506009546001600160a01b0316610399565b3480156106c1575f80fd5b5061044360105481565b3480156106d6575f80fd5b50600f54610443565b3480156106ea575f80fd5b50600c54610399906001600160a01b031681565b348015610709575f80fd5b505f54610399906001600160a01b031681565b348015610727575f80fd5b507f9016d09d72d40fdae2fd8ceac6b6234c7706214fd39c1cd1e609a0528c199300546001600160a01b0316610399565b348015610763575f80fd5b50600d546001600160a01b0316610399565b348015610780575f80fd5b50600e54610443565b348015610794575f80fd5b5061037e6107a3366004611384565b610c26565b3480156107b3575f80fd5b506107d8604051806040016040528060058152602001640352e302e360dc1b81525081565b6040516103ad919061139b565b3480156107f0575f80fd5b50600b54610399906001600160a01b031681565b34801561080f575f80fd5b5061037e61081e36600461129b565b610c33565b34801561082e575f80fd5b50600554610399906001600160a01b031681565b34801561084d575f80fd5b5061037e61085c36600461129b565b610c5d565b34801561086c575f80fd5b50610443600f5481565b348015610881575f80fd5b506008546001600160a01b0316610399565b34801561089e575f80fd5b5061037e6108ad36600461129b565b610c87565b3480156108bd575f80fd5b5061037e6108cc36600461129b565b610cb1565b3480156108dc575f80fd5b5061037e6108eb36600461129b565b610cdb565b3480156108fb575f80fd5b506007546001600160a01b0316610399565b348015610918575f80fd5b506005546001600160a01b0316610399565b348015610935575f80fd5b5061037e61094436600461129b565b610d05565b348015610954575f80fd5b50600754610399906001600160a01b031681565b348015610973575f80fd5b5061037e61098236600461129b565b610d2e565b348015610992575f80fd5b5061037e6109a136600461129b565b610d58565b3480156109b1575f80fd5b5061037e6109c036600461129b565b610d82565b3480156109d0575f80fd5b506002546001600160a01b0316610399565b6109ea610dc4565b600580546001600160a01b0319166001600160a01b0392909216919091179055565b610a14610dc4565b600680546001600160a01b0319166001600160a01b0392909216919091179055565b610a3e610e1f565b610a4782610ec3565b610a518282610ecb565b5050565b5f610a5e610f8c565b505f805160206113fe83398151915290565b610a78610dc4565b600380546001600160a01b0319166001600160a01b0392909216919091179055565b610aa2610dc4565b600780546001600160a01b0319166001600160a01b0392909216919091179055565b610acc610dc4565b610ad55f610fd5565b565b7ff0c57e16840df040f15088dc2f81fe391c3923bec73e23a9662efc9c229c6a008054600160401b810460ff16159067ffffffffffffffff165f81158015610b1c5750825b90505f8267ffffffffffffffff166001148015610b385750303b155b905081158015610b46575080155b15610b645760405163f92ee8a960e01b815260040160405180910390fd5b845467ffffffffffffffff191660011785558315610b8e57845460ff60401b1916600160401b1785555b610b9733611045565b610b9f611056565b6064600e55601e600f556127106010558315610bf557845460ff60401b19168555604051600181527fc7f505b2f371ae2175ee4913f4499e1f2633a7b5936321eed1cdaeb6115181d29060200160405180910390a15b5050505050565b610c04610dc4565b600480546001600160a01b0319166001600160a01b0392909216919091179055565b610c2e610dc4565b600f55565b610c3b610dc4565b600c80546001600160a01b0319166001600160a01b0392909216919091179055565b610c65610dc4565b600b80546001600160a01b0319166001600160a01b0392909216919091179055565b610c8f610dc4565b600180546001600160a01b0319166001600160a01b0392909216919091179055565b610cb9610dc4565b600d80546001600160a01b0319166001600160a01b0392909216919091179055565b610ce3610dc4565b600880546001600160a01b0319166001600160a01b0392909216919091179055565b610d0d610dc4565b5f80546001600160a01b0319166001600160a01b0392909216919091179055565b610d36610dc4565b600a80546001600160a01b0319166001600160a01b0392909216919091179055565b610d60610dc4565b600280546001600160a01b0319166001600160a01b0392909216919091179055565b610d8a610dc4565b6001600160a01b038116610db857604051631e4fbdf760e01b81525f60048201526024015b60405180910390fd5b610dc181610fd5565b50565b33610df67f9016d09d72d40fdae2fd8ceac6b6234c7706214fd39c1cd1e609a0528c199300546001600160a01b031690565b6001600160a01b031614610ad55760405163118cdaa760e01b8152336004820152602401610daf565b306001600160a01b037f0000000000000000000000000000000000000000000000000000000000000000161480610ea557507f00000000000000000000000000000000000000000000000000000000000000006001600160a01b0316610e995f805160206113fe833981519152546001600160a01b031690565b6001600160a01b031614155b15610ad55760405163703e46dd60e11b815260040160405180910390fd5b610dc1610dc4565b816001600160a01b03166352d1902d6040518163ffffffff1660e01b8152600401602060405180830381865afa925050508015610f25575060408051601f3d908101601f19168201909252610f22918101906113d0565b60015b610f4d57604051634c9c8ce360e01b81526001600160a01b0383166004820152602401610daf565b5f805160206113fe8339815191528114610f7d57604051632a87526960e21b815260048101829052602401610daf565b610f87838361105e565b505050565b306001600160a01b037f00000000000000000000000000000000000000000000000000000000000000001614610ad55760405163703e46dd60e11b815260040160405180910390fd5b7f9016d09d72d40fdae2fd8ceac6b6234c7706214fd39c1cd1e609a0528c19930080546001600160a01b031981166001600160a01b03848116918217845560405192169182907f8be0079c531659141344cd1fd0a4f28419497f9722a3daafe3b4186f6b6457e0905f90a3505050565b61104d6110b3565b610dc1816110fc565b610ad56110b3565b61106782611104565b6040516001600160a01b038316907fbc7cd75a20ee27fd9adebab32041f755214dbc6bffa90cc0225b39da2e5c2d3b905f90a28051156110ab57610f878282611167565b610a516111d9565b7ff0c57e16840df040f15088dc2f81fe391c3923bec73e23a9662efc9c229c6a0054600160401b900460ff16610ad557604051631afcd79f60e31b815260040160405180910390fd5b610d8a6110b3565b806001600160a01b03163b5f0361113957604051634c9c8ce360e01b81526001600160a01b0382166004820152602401610daf565b5f805160206113fe83398151915280546001600160a01b0319166001600160a01b0392909216919091179055565b60605f80846001600160a01b03168460405161118391906113e7565b5f60405180830381855af49150503d805f81146111bb576040519150601f19603f3d011682016040523d82523d5f602084013e6111c0565b606091505b50915091506111d08583836111f8565b95945050505050565b3415610ad55760405163b398979f60e01b815260040160405180910390fd5b60608261120d5761120882611257565b611250565b815115801561122457506001600160a01b0384163b155b1561124d57604051639996b31560e01b81526001600160a01b0385166004820152602401610daf565b50805b9392505050565b8051156112675780518082602001fd5b604051630a12f52160e11b815260040160405180910390fd5b80356001600160a01b0381168114611296575f80fd5b919050565b5f602082840312156112ab575f80fd5b61125082611280565b634e487b7160e01b5f52604160045260245ffd5b5f80604083850312156112d9575f80fd5b6112e283611280565b9150602083013567ffffffffffffffff808211156112fe575f80fd5b818501915085601f830112611311575f80fd5b813581811115611323576113236112b4565b604051601f8201601f19908116603f0116810190838211818310171561134b5761134b6112b4565b81604052828152886020848701011115611363575f80fd5b826020860160208301375f6020848301015280955050505050509250929050565b5f60208284031215611394575f80fd5b5035919050565b602081525f82518060208401528060208501604085015e5f604082850101526040601f19601f83011684010191505092915050565b5f602082840312156113e0575f80fd5b5051919050565b5f82518060208501845e5f92019182525091905056fe360894a13ba1a3210667c828492db98dca3e2076cc3735a920a3ca505d382bbca26469706673582212200a1299593c2ee19658239d13272feedbd11557929fc6b809e767732464caedd764736f6c63430008190033",
    "sourcePath": "c:/Users/Utente/Source/repos/baluni-contracts/contracts/BaluniV1Registry.sol",
    "compiler": {
        "name": "solc",
        "version": "0.8.25+commit.b61c2a91"
    },
    "functionHashes": {
        "UPGRADE_INTERFACE_VERSION()": "ad3cb1cc",
        "USDC()": "89a30271",
        "WNATIVE()": "b381cf40",
        "_1inchSpotAgg()": "782dd902",
        "_BPS_BASE()": "85377188",
        "_BPS_FEE()": "b9f5e617",
        "_MAX_BPS_FEE()": "34decfc9",
        "baluniAgentFactory()": "1292f02e",
        "baluniOracle()": "468a7071",
        "baluniPoolFactory()": "219ce339",
        "baluniPoolPeriphery()": "58a67233",
        "baluniRebalancer()": "b691a419",
        "baluniRegistry()": "e528ca12",
        "baluniRouter()": "39b65140",
        "baluniSwapper()": "7dfb7ea1",
        "get1inchSpotAgg()": "8e1c3a8a",
        "getBPS_BASE()": "4f4608a2",
        "getBPS_FEE()": "85462d6f",
        "getBaluniAgentFactory()": "f5d2d998",
        "getBaluniOracle()": "bb3ba04c",
        "getBaluniPoolFactory()": "7c6fd308",
        "getBaluniPoolPeriphery()": "1acb6141",
        "getBaluniRebalancer()": "cff49d68",
        "getBaluniRegistry()": "c9aba8ae",
        "getBaluniRouter()": "04cc7325",
        "getBaluniSwapper()": "82755ebb",
        "getMAX_BPS_FEE()": "9380fb6f",
        "getTreasury()": "3b19e84a",
        "getUSDC()": "1bf01e9b",
        "getUniswapFactory()": "3e6dfa36",
        "getUniswapRouter()": "524900b5",
        "getWNATIVE()": "6c9c0078",
        "initialize()": "8129fc1c",
        "owner()": "8da5cb5b",
        "proxiableUUID()": "52d1902d",
        "renounceOwnership()": "715018a6",
        "set1inchSpotAgg(address)": "c08f786b",
        "setBPS_FEE(uint256)": "9e6453f8",
        "setBaluniAgentFactory(address)": "f1dccde7",
        "setBaluniOracle(address)": "f5b84f64",
        "setBaluniPoolFactory(address)": "8267c2c8",
        "setBaluniPoolPeriphery(address)": "588c5b70",
        "setBaluniRebalancer(address)": "0241bffa",
        "setBaluniRegistry(address)": "6c43274c",
        "setBaluniRouter(address)": "400fb668",
        "setBaluniSwapper(address)": "c3f5df5c",
        "setTreasury(address)": "f0f44260",
        "setUSDC(address)": "b3e089a2",
        "setUniswapFactory(address)": "e04b677f",
        "setUniswapRouter(address)": "bea9849e",
        "setWNATIVE(address)": "b6fe9cc7",
        "transferOwnership(address)": "f2fde38b",
        "treasury()": "61d027b3",
        "uniswapFactory()": "8bdb2afa",
        "uniswapRouter()": "735de9f7",
        "upgradeToAndCall(address,bytes)": "4f1ef286"
    },
    "gasEstimates": {
        "creation": {
            "codeDepositCost": "1040600",
            "executionCost": "infinite",
            "totalCost": "infinite"
        },
        "external": {
            "UPGRADE_INTERFACE_VERSION()": "infinite",
            "USDC()": "2393",
            "WNATIVE()": "2392",
            "_1inchSpotAgg()": "2437",
            "_BPS_BASE()": "2385",
            "_BPS_FEE()": "2362",
            "_MAX_BPS_FEE()": "2429",
            "baluniAgentFactory()": "2439",
            "baluniOracle()": "2415",
            "baluniPoolFactory()": "2438",
            "baluniPoolPeriphery()": "2393",
            "baluniRebalancer()": "2436",
            "baluniRegistry()": "2414",
            "baluniRouter()": "2394",
            "baluniSwapper()": "2414",
            "get1inchSpotAgg()": "2453",
            "getBPS_BASE()": "2425",
            "getBPS_FEE()": "2404",
            "getBaluniAgentFactory()": "2451",
            "getBaluniOracle()": "2409",
            "getBaluniPoolFactory()": "2386",
            "getBaluniPoolPeriphery()": "2388",
            "getBaluniRebalancer()": "2452",
            "getBaluniRegistry()": "2430",
            "getBaluniRouter()": "2400",
            "getBaluniSwapper()": "2388",
            "getMAX_BPS_FEE()": "2359",
            "getTreasury()": "2410",
            "getUSDC()": "2410",
            "getUniswapFactory()": "2431",
            "getUniswapRouter()": "2388",
            "getWNATIVE()": "2453",
            "initialize()": "infinite",
            "owner()": "2431",
            "proxiableUUID()": "infinite",
            "renounceOwnership()": "infinite",
            "set1inchSpotAgg(address)": "26833",
            "setBPS_FEE(uint256)": "24609",
            "setBaluniAgentFactory(address)": "26832",
            "setBaluniOracle(address)": "26876",
            "setBaluniPoolFactory(address)": "26899",
            "setBaluniPoolPeriphery(address)": "26879",
            "setBaluniRebalancer(address)": "26836",
            "setBaluniRegistry(address)": "26878",
            "setBaluniRouter(address)": "26834",
            "setBaluniSwapper(address)": "26855",
            "setTreasury(address)": "26877",
            "setUSDC(address)": "26855",
            "setUniswapFactory(address)": "26832",
            "setUniswapRouter(address)": "26878",
            "setWNATIVE(address)": "26899",
            "transferOwnership(address)": "28453",
            "treasury()": "2415",
            "uniswapFactory()": "2414",
            "uniswapRouter()": "2415",
            "upgradeToAndCall(address,bytes)": "infinite"
        },
        "internal": {
            "_authorizeUpgrade(address)": "infinite"
        }
    }
}