{
    "contractName": "BaluniV1Pool",
    "abi": [
        {
            "inputs": [
                {
                    "internalType": "address[]",
                    "name": "_assets",
                    "type": "address[]"
                },
                {
                    "internalType": "uint256[]",
                    "name": "_weights",
                    "type": "uint256[]"
                },
                {
                    "internalType": "uint256",
                    "name": "_trigger",
                    "type": "uint256"
                }
            ],
            "stateMutability": "nonpayable",
            "type": "constructor"
        },
        {
            "inputs": [
                {
                    "internalType": "address",
                    "name": "spender",
                    "type": "address"
                },
                {
                    "internalType": "uint256",
                    "name": "allowance",
                    "type": "uint256"
                },
                {
                    "internalType": "uint256",
                    "name": "needed",
                    "type": "uint256"
                }
            ],
            "name": "ERC20InsufficientAllowance",
            "type": "error"
        },
        {
            "inputs": [
                {
                    "internalType": "address",
                    "name": "sender",
                    "type": "address"
                },
                {
                    "internalType": "uint256",
                    "name": "balance",
                    "type": "uint256"
                },
                {
                    "internalType": "uint256",
                    "name": "needed",
                    "type": "uint256"
                }
            ],
            "name": "ERC20InsufficientBalance",
            "type": "error"
        },
        {
            "inputs": [
                {
                    "internalType": "address",
                    "name": "approver",
                    "type": "address"
                }
            ],
            "name": "ERC20InvalidApprover",
            "type": "error"
        },
        {
            "inputs": [
                {
                    "internalType": "address",
                    "name": "receiver",
                    "type": "address"
                }
            ],
            "name": "ERC20InvalidReceiver",
            "type": "error"
        },
        {
            "inputs": [
                {
                    "internalType": "address",
                    "name": "sender",
                    "type": "address"
                }
            ],
            "name": "ERC20InvalidSender",
            "type": "error"
        },
        {
            "inputs": [
                {
                    "internalType": "address",
                    "name": "spender",
                    "type": "address"
                }
            ],
            "name": "ERC20InvalidSpender",
            "type": "error"
        },
        {
            "inputs": [],
            "name": "ReentrancyGuardReentrantCall",
            "type": "error"
        },
        {
            "anonymous": false,
            "inputs": [
                {
                    "indexed": true,
                    "internalType": "address",
                    "name": "owner",
                    "type": "address"
                },
                {
                    "indexed": true,
                    "internalType": "address",
                    "name": "spender",
                    "type": "address"
                },
                {
                    "indexed": false,
                    "internalType": "uint256",
                    "name": "value",
                    "type": "uint256"
                }
            ],
            "name": "Approval",
            "type": "event"
        },
        {
            "anonymous": false,
            "inputs": [
                {
                    "indexed": true,
                    "internalType": "address",
                    "name": "user",
                    "type": "address"
                },
                {
                    "indexed": false,
                    "internalType": "uint256",
                    "name": "sharesBurned",
                    "type": "uint256"
                }
            ],
            "name": "Burn",
            "type": "event"
        },
        {
            "anonymous": false,
            "inputs": [
                {
                    "indexed": true,
                    "internalType": "address",
                    "name": "to",
                    "type": "address"
                },
                {
                    "indexed": false,
                    "internalType": "uint256",
                    "name": "sharesMinted",
                    "type": "uint256"
                }
            ],
            "name": "Mint",
            "type": "event"
        },
        {
            "anonymous": false,
            "inputs": [
                {
                    "indexed": true,
                    "internalType": "address",
                    "name": "by",
                    "type": "address"
                },
                {
                    "indexed": false,
                    "internalType": "address[]",
                    "name": "assets",
                    "type": "address[]"
                }
            ],
            "name": "RebalancePerformed",
            "type": "event"
        },
        {
            "anonymous": false,
            "inputs": [
                {
                    "indexed": true,
                    "internalType": "address",
                    "name": "user",
                    "type": "address"
                },
                {
                    "indexed": true,
                    "internalType": "address",
                    "name": "fromToken",
                    "type": "address"
                },
                {
                    "indexed": true,
                    "internalType": "address",
                    "name": "toToken",
                    "type": "address"
                },
                {
                    "indexed": false,
                    "internalType": "uint256",
                    "name": "amountIn",
                    "type": "uint256"
                },
                {
                    "indexed": false,
                    "internalType": "uint256",
                    "name": "amountOut",
                    "type": "uint256"
                }
            ],
            "name": "Swap",
            "type": "event"
        },
        {
            "anonymous": false,
            "inputs": [
                {
                    "indexed": true,
                    "internalType": "address",
                    "name": "from",
                    "type": "address"
                },
                {
                    "indexed": true,
                    "internalType": "address",
                    "name": "to",
                    "type": "address"
                },
                {
                    "indexed": false,
                    "internalType": "uint256",
                    "name": "value",
                    "type": "uint256"
                }
            ],
            "name": "Transfer",
            "type": "event"
        },
        {
            "anonymous": false,
            "inputs": [
                {
                    "indexed": true,
                    "internalType": "address",
                    "name": "user",
                    "type": "address"
                },
                {
                    "indexed": false,
                    "internalType": "uint256[]",
                    "name": "amountsAdded",
                    "type": "uint256[]"
                }
            ],
            "name": "WeightsRebalanced",
            "type": "event"
        },
        {
            "inputs": [],
            "name": "ONE",
            "outputs": [
                {
                    "internalType": "uint256",
                    "name": "",
                    "type": "uint256"
                }
            ],
            "stateMutability": "view",
            "type": "function"
        },
        {
            "inputs": [
                {
                    "internalType": "address",
                    "name": "owner",
                    "type": "address"
                },
                {
                    "internalType": "address",
                    "name": "spender",
                    "type": "address"
                }
            ],
            "name": "allowance",
            "outputs": [
                {
                    "internalType": "uint256",
                    "name": "",
                    "type": "uint256"
                }
            ],
            "stateMutability": "view",
            "type": "function"
        },
        {
            "inputs": [
                {
                    "internalType": "address",
                    "name": "spender",
                    "type": "address"
                },
                {
                    "internalType": "uint256",
                    "name": "value",
                    "type": "uint256"
                }
            ],
            "name": "approve",
            "outputs": [
                {
                    "internalType": "bool",
                    "name": "",
                    "type": "bool"
                }
            ],
            "stateMutability": "nonpayable",
            "type": "function"
        },
        {
            "inputs": [
                {
                    "internalType": "uint256",
                    "name": "",
                    "type": "uint256"
                }
            ],
            "name": "assetInfos",
            "outputs": [
                {
                    "internalType": "address",
                    "name": "asset",
                    "type": "address"
                },
                {
                    "internalType": "uint256",
                    "name": "weight",
                    "type": "uint256"
                }
            ],
            "stateMutability": "view",
            "type": "function"
        },
        {
            "inputs": [
                {
                    "internalType": "uint256",
                    "name": "assetIndex",
                    "type": "uint256"
                }
            ],
            "name": "assetLiquidity",
            "outputs": [
                {
                    "internalType": "uint256",
                    "name": "",
                    "type": "uint256"
                }
            ],
            "stateMutability": "view",
            "type": "function"
        },
        {
            "inputs": [
                {
                    "internalType": "address",
                    "name": "account",
                    "type": "address"
                }
            ],
            "name": "balanceOf",
            "outputs": [
                {
                    "internalType": "uint256",
                    "name": "",
                    "type": "uint256"
                }
            ],
            "stateMutability": "view",
            "type": "function"
        },
        {
            "inputs": [],
            "name": "baseAsset",
            "outputs": [
                {
                    "internalType": "address",
                    "name": "",
                    "type": "address"
                }
            ],
            "stateMutability": "view",
            "type": "function"
        },
        {
            "inputs": [
                {
                    "internalType": "address",
                    "name": "to",
                    "type": "address"
                }
            ],
            "name": "burn",
            "outputs": [
                {
                    "internalType": "uint256[]",
                    "name": "",
                    "type": "uint256[]"
                }
            ],
            "stateMutability": "nonpayable",
            "type": "function"
        },
        {
            "inputs": [],
            "name": "computeTotalValuation",
            "outputs": [
                {
                    "internalType": "uint256",
                    "name": "totalVal",
                    "type": "uint256"
                },
                {
                    "internalType": "uint256[]",
                    "name": "valuations",
                    "type": "uint256[]"
                }
            ],
            "stateMutability": "view",
            "type": "function"
        },
        {
            "inputs": [],
            "name": "decimals",
            "outputs": [
                {
                    "internalType": "uint8",
                    "name": "",
                    "type": "uint8"
                }
            ],
            "stateMutability": "view",
            "type": "function"
        },
        {
            "inputs": [
                {
                    "internalType": "address",
                    "name": "fromToken",
                    "type": "address"
                },
                {
                    "internalType": "address",
                    "name": "toToken",
                    "type": "address"
                },
                {
                    "internalType": "uint256",
                    "name": "amount",
                    "type": "uint256"
                }
            ],
            "name": "getAmountOut",
            "outputs": [
                {
                    "internalType": "uint256",
                    "name": "",
                    "type": "uint256"
                }
            ],
            "stateMutability": "view",
            "type": "function"
        },
        {
            "inputs": [
                {
                    "internalType": "address",
                    "name": "asset",
                    "type": "address"
                }
            ],
            "name": "getAssetReserve",
            "outputs": [
                {
                    "internalType": "uint256",
                    "name": "",
                    "type": "uint256"
                }
            ],
            "stateMutability": "view",
            "type": "function"
        },
        {
            "inputs": [],
            "name": "getAssets",
            "outputs": [
                {
                    "internalType": "address[]",
                    "name": "",
                    "type": "address[]"
                }
            ],
            "stateMutability": "view",
            "type": "function"
        },
        {
            "inputs": [],
            "name": "getDeviation",
            "outputs": [
                {
                    "internalType": "bool[]",
                    "name": "directions",
                    "type": "bool[]"
                },
                {
                    "internalType": "uint256[]",
                    "name": "deviations",
                    "type": "uint256[]"
                }
            ],
            "stateMutability": "view",
            "type": "function"
        },
        {
            "inputs": [],
            "name": "getReserves",
            "outputs": [
                {
                    "internalType": "uint256[]",
                    "name": "",
                    "type": "uint256[]"
                }
            ],
            "stateMutability": "view",
            "type": "function"
        },
        {
            "inputs": [],
            "name": "getWeights",
            "outputs": [
                {
                    "internalType": "uint256[]",
                    "name": "",
                    "type": "uint256[]"
                }
            ],
            "stateMutability": "view",
            "type": "function"
        },
        {
            "inputs": [],
            "name": "isRebalanceNeeded",
            "outputs": [
                {
                    "internalType": "bool",
                    "name": "",
                    "type": "bool"
                }
            ],
            "stateMutability": "view",
            "type": "function"
        },
        {
            "inputs": [],
            "name": "liquidity",
            "outputs": [
                {
                    "internalType": "uint256",
                    "name": "",
                    "type": "uint256"
                }
            ],
            "stateMutability": "view",
            "type": "function"
        },
        {
            "inputs": [
                {
                    "internalType": "address",
                    "name": "to",
                    "type": "address"
                },
                {
                    "internalType": "uint256[]",
                    "name": "amounts",
                    "type": "uint256[]"
                }
            ],
            "name": "mint",
            "outputs": [
                {
                    "internalType": "uint256",
                    "name": "",
                    "type": "uint256"
                }
            ],
            "stateMutability": "nonpayable",
            "type": "function"
        },
        {
            "inputs": [],
            "name": "name",
            "outputs": [
                {
                    "internalType": "string",
                    "name": "",
                    "type": "string"
                }
            ],
            "stateMutability": "view",
            "type": "function"
        },
        {
            "inputs": [],
            "name": "performRebalanceIfNeeded",
            "outputs": [
                {
                    "internalType": "uint256[]",
                    "name": "amountsToAdd",
                    "type": "uint256[]"
                },
                {
                    "internalType": "uint256[]",
                    "name": "amountsToRemove",
                    "type": "uint256[]"
                }
            ],
            "stateMutability": "nonpayable",
            "type": "function"
        },
        {
            "inputs": [
                {
                    "internalType": "address",
                    "name": "receiver",
                    "type": "address"
                }
            ],
            "name": "rebalanceWeights",
            "outputs": [
                {
                    "internalType": "uint256[]",
                    "name": "",
                    "type": "uint256[]"
                }
            ],
            "stateMutability": "nonpayable",
            "type": "function"
        },
        {
            "inputs": [],
            "name": "registry",
            "outputs": [
                {
                    "internalType": "contract IBaluniV1Registry",
                    "name": "",
                    "type": "address"
                }
            ],
            "stateMutability": "view",
            "type": "function"
        },
        {
            "inputs": [
                {
                    "internalType": "address",
                    "name": "fromToken",
                    "type": "address"
                },
                {
                    "internalType": "address",
                    "name": "toToken",
                    "type": "address"
                },
                {
                    "internalType": "uint256",
                    "name": "amount",
                    "type": "uint256"
                },
                {
                    "internalType": "address",
                    "name": "receiver",
                    "type": "address"
                }
            ],
            "name": "swap",
            "outputs": [
                {
                    "internalType": "uint256",
                    "name": "toSend",
                    "type": "uint256"
                }
            ],
            "stateMutability": "nonpayable",
            "type": "function"
        },
        {
            "inputs": [],
            "name": "symbol",
            "outputs": [
                {
                    "internalType": "string",
                    "name": "",
                    "type": "string"
                }
            ],
            "stateMutability": "view",
            "type": "function"
        },
        {
            "inputs": [],
            "name": "totalSupply",
            "outputs": [
                {
                    "internalType": "uint256",
                    "name": "",
                    "type": "uint256"
                }
            ],
            "stateMutability": "view",
            "type": "function"
        },
        {
            "inputs": [
                {
                    "internalType": "address",
                    "name": "to",
                    "type": "address"
                },
                {
                    "internalType": "uint256",
                    "name": "value",
                    "type": "uint256"
                }
            ],
            "name": "transfer",
            "outputs": [
                {
                    "internalType": "bool",
                    "name": "",
                    "type": "bool"
                }
            ],
            "stateMutability": "nonpayable",
            "type": "function"
        },
        {
            "inputs": [
                {
                    "internalType": "address",
                    "name": "from",
                    "type": "address"
                },
                {
                    "internalType": "address",
                    "name": "to",
                    "type": "address"
                },
                {
                    "internalType": "uint256",
                    "name": "value",
                    "type": "uint256"
                }
            ],
            "name": "transferFrom",
            "outputs": [
                {
                    "internalType": "bool",
                    "name": "",
                    "type": "bool"
                }
            ],
            "stateMutability": "nonpayable",
            "type": "function"
        },
        {
            "inputs": [],
            "name": "trigger",
            "outputs": [
                {
                    "internalType": "uint256",
                    "name": "",
                    "type": "uint256"
                }
            ],
            "stateMutability": "view",
            "type": "function"
        },
        {
            "inputs": [],
            "name": "unitPrice",
            "outputs": [
                {
                    "internalType": "uint256",
                    "name": "",
                    "type": "uint256"
                }
            ],
            "stateMutability": "view",
            "type": "function"
        }
    ],
    "bytecode": "608060405234801561000f575f80fd5b5060405161393d38038061393d83398101604081905261002e91610609565b60405180604001604052806009815260200168042616c756e69204c560bc1b81525060405180604001604052806009815260200168042414c554e492d4c560bc1b81525081600390816100819190610751565b50600461008e8282610751565b5050600160055550670de0b6b3a76400006008556100ac83836101ca565b6007819055600a5460408051631bf01e9b60e01b815290516001600160a01b0390921691631bf01e9b916004808201926020929091908290030181865afa1580156100f9573d5f803e3d5ffd5b505050506040513d601f19601f8201168201806040525081019061011d9190610810565b600980546001600160a01b0319166001600160a01b03929092169190911790555f805b83518110156101785783818151811061015b5761015b610830565b60200260200101518261016e9190610844565b9150600101610140565b5080612710146101c15760405162461bcd60e51b815260206004820152600f60248201526e496e76616c6964207765696768747360881b60448201526064015b60405180910390fd5b5050505061089f565b600a54604080516319fe93ad60e31b815290515f926001600160a01b03169163cff49d689160048083019260209291908290030181865afa158015610211573d5f803e3d5ffd5b505050506040513d601f19601f820116820180604052508101906102359190610810565b905081518351146102935760405162461bcd60e51b815260206004820152602260248201527f41737365747320616e642077656967687473206c656e677468206d69736d61746044820152610c6d60f31b60648201526084016101b8565b5f5b8351811015610516575f6001600160a01b03168482815181106102ba576102ba610830565b60200260200101516001600160a01b0316036103185760405162461bcd60e51b815260206004820152601560248201527f496e76616c69642061737365742061646472657373000000000000000000000060448201526064016101b8565b5f83828151811061032b5761032b610830565b6020026020010151116103715760405162461bcd60e51b815260206004820152600e60248201526d125b9d985b1a59081dd95a59da1d60921b60448201526064016101b8565b6006604051806040016040528086848151811061039057610390610830565b60200260200101516001600160a01b031681526020018584815181106103b8576103b8610830565b6020908102919091018101519091528254600180820185555f948552828520845160029093020180546001600160a01b0319166001600160a01b039093169290921782559290910151910155845185908390811061041857610418610830565b6020908102919091010151604051636eb1769f60e11b81523060048201526001600160a01b0385811660248301529192509082169063dd62ed3e90604401602060405180830381865afa158015610471573d5f803e3d5ffd5b505050506040513d601f19601f820116820180604052508101906104959190610869565b5f0361050d5760405163095ea7b360e01b81526001600160a01b0384811660048301525f19602483015282169063095ea7b3906044016020604051808303815f875af11580156104e7573d5f803e3d5ffd5b505050506040513d601f19601f8201168201806040525081019061050b9190610880565b505b50600101610295565b50505050565b634e487b7160e01b5f52604160045260245ffd5b604051601f8201601f191681016001600160401b03811182821017156105585761055861051c565b604052919050565b5f6001600160401b038211156105785761057861051c565b5060051b60200190565b80516001600160a01b0381168114610598575f80fd5b919050565b5f82601f8301126105ac575f80fd5b815160206105c16105bc83610560565b610530565b8083825260208201915060208460051b8701019350868411156105e2575f80fd5b602086015b848110156105fe57805183529183019183016105e7565b509695505050505050565b5f805f6060848603121561061b575f80fd5b83516001600160401b0380821115610631575f80fd5b818601915086601f830112610644575f80fd5b815160206106546105bc83610560565b82815260059290921b8401810191818101908a841115610672575f80fd5b948201945b838610156106975761068886610582565b82529482019490820190610677565b918901519197509093505050808211156106af575f80fd5b506106bc8682870161059d565b925050604084015190509250925092565b600181811c908216806106e157607f821691505b6020821081036106ff57634e487b7160e01b5f52602260045260245ffd5b50919050565b601f82111561074c57805f5260205f20601f840160051c8101602085101561072a5750805b601f840160051c820191505b81811015610749575f8155600101610736565b50505b505050565b81516001600160401b0381111561076a5761076a61051c565b61077e8161077884546106cd565b84610705565b602080601f8311600181146107b1575f841561079a5750858301515b5f19600386901b1c1916600185901b178555610808565b5f85815260208120601f198616915b828110156107df578886015182559484019460019091019084016107c0565b50858210156107fc57878501515f19600388901b60f8161c191681555b505060018460011b0185555b505050505050565b5f60208284031215610820575f80fd5b61082982610582565b9392505050565b634e487b7160e01b5f52603260045260245ffd5b8082018082111561086357634e487b7160e01b5f52601160045260245ffd5b92915050565b5f60208284031215610879575f80fd5b5051919050565b5f60208284031215610890575f80fd5b81518015158114610829575f80fd5b613091806108ac5f395ff3fe608060405234801561000f575f80fd5b50600436106101d1575f3560e01c80637fec8d38116100fe578063c2ee3a081161009e578063dd62ed3e1161006e578063dd62ed3e146103ef578063de836ebd14610427578063e73faa2d1461043a578063f47b45e814610442575f80fd5b8063c2ee3a081461038e578063cdf456e114610397578063cf8fa764146103aa578063d14ef46d146103bd575f80fd5b80638a77c8dc116100d95780638a77c8dc1461035857806395d89b4114610360578063a9059cbb14610368578063b2b55d701461037b575f80fd5b80637fec8d381461032657806389ab35321461032f57806389afcb4414610345575f80fd5b806323b872dd1161017457806367e4ac2c1161014457806367e4ac2c146102ab5780636e81221c146102c057806370a08231146102d35780637b103999146102fb575f80fd5b806323b872dd14610260578063313ce5671461027357806336bf6e39146102825780634aa0665214610298575f80fd5b8063095ea7b3116101af578063095ea7b31461021b57806318160ddd1461023e5780631a6865021461025057806322acb86714610258575f80fd5b806306fdde03146101d55780630723c999146101f35780630902f1ac14610213575b5f80fd5b6101dd610458565b6040516101ea9190612a74565b60405180910390f35b610206610201366004612ac0565b6104e8565b6040516101ea9190612b15565b6102066107b5565b61022e610229366004612b27565b61089d565b60405190151581526020016101ea565b6002545b6040519081526020016101ea565b6102426108b6565b6102066108c7565b61022e61026e366004612b51565b610966565b604051601281526020016101ea565b61028a610989565b6040516101ea929190612b8f565b6102426102a6366004612b51565b61099d565b6102b3610a98565b6040516101ea9190612bdf565b6102426102ce366004612bf1565b610b52565b6102426102e1366004612ac0565b6001600160a01b03165f9081526020819052604090205490565b600a5461030e906001600160a01b031681565b6040516001600160a01b0390911681526020016101ea565b61024260075481565b610337610dcf565b6040516101ea929190612c41565b610206610353366004612ac0565b610f88565b61022e6114ec565b6101dd611566565b61022e610376366004612b27565b611575565b610242610389366004612ac0565b611582565b61024260085481565b60095461030e906001600160a01b031681565b6102426103b8366004612c9a565b611671565b6103d06103cb366004612c9a565b6116e6565b604080516001600160a01b0390931683526020830191909152016101ea565b6102426103fd366004612cb1565b6001600160a01b039182165f90815260016020908152604080832093909416825291909152205490565b610242610435366004612d4e565b61171c565b610242611a61565b61044a611aa9565b6040516101ea929190612df3565b60606003805461046790612e17565b80601f016020809104026020016040519081016040528092919081815260200182805461049390612e17565b80156104de5780601f106104b5576101008083540402835291602001916104de565b820191905f5260205f20905b8154815290600101906020018083116104c157829003601f168201915b5050505050905090565b60605f600a5f9054906101000a90046001600160a01b03166001600160a01b0316631acb61416040518163ffffffff1660e01b8152600401602060405180830381865afa15801561053b573d5f803e3d5ffd5b505050506040513d601f19601f8201168201806040525081019061055f9190612e49565b9050336001600160a01b038216146105925760405162461bcd60e51b815260040161058990612e64565b60405180910390fd5b61059a6114ec565b6105dd5760405162461bcd60e51b8152602060048201526014602482015273149958985b185b98d9481b9bdd081b995959195960621b6044820152606401610589565b5f806105e7611ba7565b915091505f6105f68383611cd6565b90505f61060282611dd7565b90505f60095f9054906101000a90046001600160a01b03166001600160a01b031663313ce5676040518163ffffffff1660e01b8152600401602060405180830381865afa158015610655573d5f803e3d5ffd5b505050506040513d601f19601f820116820180604052508101906106799190612e8c565b60ff16905061069081670de0b6b3a7640000612ec0565b61069a9083612ed3565b6006549092505f906001600160401b038111156106b9576106b9612ce8565b6040519080825280602002602001820160405280156106e2578160200160208202803683370190505b5090505f5b845181101561075b575f85828151811061070357610703612eea565b60200260200101511115610753576107348186838151811061072757610727612eea565b6020026020010151611e13565b82828151811061074657610746612eea565b6020026020010181815250505b6001016106e7565b506107668984611ee3565b336001600160a01b03167fa95ad530009c6f929555e70a66aadbeae7231e45756c5b028ca77fbaa376e73e8560405161079f9190612b15565b60405180910390a2965050505050505b50919050565b60605f600a5f9054906101000a90046001600160a01b03166001600160a01b0316631acb61416040518163ffffffff1660e01b8152600401602060405180830381865afa158015610808573d5f803e3d5ffd5b505050506040513d601f19601f8201168201806040525081019061082c9190612e49565b604051630fa6707960e21b81523060048201529091506001600160a01b03821690633e99c1e4906024015f60405180830381865afa158015610870573d5f803e3d5ffd5b505050506040513d5f823e601f3d908101601f191682016040526108979190810190612efe565b91505090565b5f336108aa818585611f1b565b60019150505b92915050565b5f806108c0611ba7565b5092915050565b6006546060905f906001600160401b038111156108e6576108e6612ce8565b60405190808252806020026020018201604052801561090f578160200160208202803683370190505b5090505f5b6006548110156107af576006818154811061093157610931612eea565b905f5260205f2090600202016001015482828151811061095357610953612eea565b6020908102919091010152600101610914565b5f33610973858285611f2d565b61097e858585611fa8565b506001949350505050565b5f6060610994611ba7565b90939092509050565b5f80600a5f9054906101000a90046001600160a01b03166001600160a01b031663cff49d686040518163ffffffff1660e01b8152600401602060405180830381865afa1580156109ef573d5f803e3d5ffd5b505050506040513d601f19601f82011682018060405250810190610a139190612e49565b60405163248391ff60e01b81526001600160a01b0387811660048301528681166024830152604482018690529192509082169063248391ff906064015b602060405180830381865afa158015610a6b573d5f803e3d5ffd5b505050506040513d601f19601f82011682018060405250810190610a8f9190612f89565b95945050505050565b6006546060905f906001600160401b03811115610ab757610ab7612ce8565b604051908082528060200260200182016040528015610ae0578160200160208202803683370190505b5090505f5b6006548110156107af5760068181548110610b0257610b02612eea565b5f91825260209091206002909102015482516001600160a01b0390911690839083908110610b3257610b32612eea565b6001600160a01b0390921660209283029190910190910152600101610ae5565b5f610b5b612005565b600a54604080516385462d6f60e01b815290515f926001600160a01b0316916385462d6f9160048083019260209291908290030181865afa158015610ba2573d5f803e3d5ffd5b505050506040513d601f19601f82011682018060405250810190610bc69190612f89565b9050846001600160a01b0316866001600160a01b031603610c295760405162461bcd60e51b815260206004820152601a60248201527f43616e6e6f742073776170207468652073616d6520746f6b656e0000000000006044820152606401610589565b5f8411610c785760405162461bcd60e51b815260206004820181905260248201527f416d6f756e74206d7573742062652067726561746572207468616e207a65726f6044820152606401610589565b5f610c8487878761099d565b905080610c9087611582565b1015610cd75760405162461bcd60e51b8152602060048201526016602482015275496e73756666696369656e74204c697175696469747960501b6044820152606401610589565b5f612710610ce58484612ed3565b610cef9190612fa0565b9050610cfb8183612ec0565b93505f8411610d5a5760405162461bcd60e51b815260206004820152602560248201527f416d6f756e7420746f2073656e64206d75737420626520677265617465722074604482015264068616e20360dc1b6064820152608401610589565b866001600160a01b0316886001600160a01b0316866001600160a01b03167fcd3829a3813dc3cdd188fd3d01dcf3268c16be2fdd2dd21d0665418816e460628988604051610db2929190918252602082015260400190565b60405180910390a4505050610dc76001600555565b949350505050565b6060805f80610ddc611ba7565b6006549193509150806001600160401b03811115610dfc57610dfc612ce8565b604051908082528060200260200182016040528015610e25578160200160208202803683370190505b509450806001600160401b03811115610e4057610e40612ce8565b604051908082528060200260200182016040528015610e69578160200160208202803683370190505b5093505f5b81811015610f80575f84848381518110610e8a57610e8a612eea565b6020026020010151612710610e9f9190612ed3565b610ea99190612fa0565b90505f60068381548110610ebf57610ebf612eea565b905f5260205f20906002020160010154905080821115610f2a57610ee38183612ec0565b878481518110610ef557610ef5612eea565b6020026020010181815250506001888481518110610f1557610f15612eea565b91151560209283029190910190910152610f76565b610f348282612ec0565b878481518110610f4657610f46612eea565b6020026020010181815250505f888481518110610f6557610f65612eea565b911515602092830291909101909101525b5050600101610e6e565b505050509091565b60605f600a5f9054906101000a90046001600160a01b03166001600160a01b0316631acb61416040518163ffffffff1660e01b8152600401602060405180830381865afa158015610fdb573d5f803e3d5ffd5b505050506040513d601f19601f82011682018060405250810190610fff9190612e49565b9050336001600160a01b038216146110295760405162461bcd60e51b815260040161058990612e64565b600a54604080516385462d6f60e01b815290515f926001600160a01b0316916385462d6f9160048083019260209291908290030181865afa158015611070573d5f803e3d5ffd5b505050506040513d601f19601f820116820180604052508101906110949190612f89565b90505f600a5f9054906101000a90046001600160a01b03166001600160a01b0316631acb61416040518163ffffffff1660e01b8152600401602060405180830381865afa1580156110e7573d5f803e3d5ffd5b505050506040513d601f19601f8201168201806040525081019061110b9190612e49565b305f908152602081905260409020549091508061116a5760405162461bcd60e51b815260206004820152601c60248201527f5368617265206d7573742062652067726561746572207468616e2030000000006044820152606401610589565b5f61117460025490565b90505f81116111b45760405162461bcd60e51b815260206004820152600c60248201526b4e6f206c697175696469747960a01b6044820152606401610589565b6006545f906001600160401b038111156111d0576111d0612ce8565b6040519080825280602002602001820160405280156111f9578160200160208202803683370190505b5090505f61271061120a8786612ed3565b6112149190612fa0565b90505f6112218286612ec0565b90505f5b60065481101561130d575f876001600160a01b031663a3e113fb306006858154811061125357611253612eea565b5f91825260209091206002909102015460405160e084901b6001600160e01b03191681526001600160a01b03928316600482015291166024820152604401602060405180830381865afa1580156112ac573d5f803e3d5ffd5b505050506040513d601f19601f820116820180604052508101906112d09190612f89565b9050856112dd8483612ed3565b6112e79190612fa0565b8583815181106112f9576112f9612eea565b602090810291909101015250600101611225565b50305f9081526020819052604090205481111561136c5760405162461bcd60e51b815260206004820152601d60248201527f496e73756666696369656e742042414c554e49206c69717569646974790000006044820152606401610589565b600a5460408051631d8cf42560e11b815290515f926001600160a01b031691633b19e84a9160048083019260209291908290030181865afa1580156113b3573d5f803e3d5ffd5b505050506040513d601f19601f820116820180604052508101906113d79190612e49565b60405163a9059cbb60e01b81526001600160a01b0382166004820152602481018590529091505f90309063a9059cbb906044016020604051808303815f875af1158015611426573d5f803e3d5ffd5b505050506040513d601f19601f8201168201806040525081019061144a9190612fbf565b90508061148f5760405162461bcd60e51b8152602060048201526013602482015272119959481d1c985b9cd9995c8819985a5b1959606a1b6044820152606401610589565b611499308461202f565b8b6001600160a01b03167fcc16f5dbb4873280815c1ee09dbd06736cffcc184412cf7a71a0fdb75d397ca5846040516114d491815260200190565b60405180910390a250929a9950505050505050505050565b5f805f6114f7610dcf565b915091505f5b815181101561155d5782818151811061151857611518612eea565b60200260200101518015611546575060075482828151811061153c5761153c612eea565b6020026020010151115b15611555576001935050505090565b6001016114fd565b505f9250505090565b60606004805461046790612e17565b5f336108aa818585611fa8565b5f80600a5f9054906101000a90046001600160a01b03166001600160a01b0316631acb61416040518163ffffffff1660e01b8152600401602060405180830381865afa1580156115d4573d5f803e3d5ffd5b505050506040513d601f19601f820116820180604052508101906115f89190612e49565b60405163a3e113fb60e01b81523060048201526001600160a01b0385811660248301529192509082169063a3e113fb90604401602060405180830381865afa158015611646573d5f803e3d5ffd5b505050506040513d601f19601f8201168201806040525081019061166a9190612f89565b9392505050565b5f8061167b611ba7565b915050805183106116c45760405162461bcd60e51b8152602060048201526013602482015272092dcecc2d8d2c840c2e6e6cae840d2dcc8caf606b1b6044820152606401610589565b8083815181106116d6576116d6612eea565b6020026020010151915050919050565b600681815481106116f5575f80fd5b5f918252602090912060029091020180546001909101546001600160a01b03909116915082565b5f80600a5f9054906101000a90046001600160a01b03166001600160a01b0316631acb61416040518163ffffffff1660e01b8152600401602060405180830381865afa15801561176e573d5f803e3d5ffd5b505050506040513d601f19601f820116820180604052508101906117929190612e49565b9050336001600160a01b038216146117bc5760405162461bcd60e51b815260040161058990612e64565b5f6117c660025490565b90505f806117d26107b5565b8051600654919250146118275760405162461bcd60e51b815260206004820152601760248201527f496e76616c6964207265736572766573206c656e6774680000000000000000006044820152606401610589565b6006546118625760405162461bcd60e51b81526020600482015260096024820152684e6f2061737365747360b81b6044820152606401610589565b5f5b6006548110156118dd575f6006828154811061188257611882612eea565b5f918252602082206002909102015489516001600160a01b0390911692506118c59083908b90869081106118b8576118b8612eea565b6020026020010151612063565b90506118d18186612fde565b94505050600101611864565b505f82116119385760405162461bcd60e51b815260206004820152602260248201527f546f74616c2076616c7565206d7573742062652067726561746572207468616e604482015261020360f41b6064820152608401610589565b5f835f036119475750816119ca565b5f611950611ba7565b5090505f81116119b15760405162461bcd60e51b815260206004820152602660248201527f546f74616c206c6971756964697479206d75737420626520677265617465722060448201526507468616e20360d41b6064820152608401610589565b806119bc8686612ed3565b6119c69190612fa0565b9150505b805f03611a095760405162461bcd60e51b815260206004820152600d60248201526c04d696e7420717479206973203609c1b6044820152606401610589565b611a138882611ee3565b876001600160a01b03167f0f6798a560793a54c3bcfe86a93cde1e73087d944c0ea20544137d412139688582604051611a4e91815260200190565b60405180910390a2979650505050505050565b5f80611a6b611ba7565b5090505f611a7860025490565b9050805f03611a89575f9250505090565b8060085483611a989190612ed3565b611aa29190612fa0565b9250505090565b6060805f600a5f9054906101000a90046001600160a01b03166001600160a01b0316631acb61416040518163ffffffff1660e01b8152600401602060405180830381865afa158015611afd573d5f803e3d5ffd5b505050506040513d601f19601f82011682018060405250810190611b219190612e49565b9050336001600160a01b03821614611b4b5760405162461bcd60e51b815260040161058990612e64565b611b536114ec565b611b965760405162461bcd60e51b8152602060048201526014602482015273149958985b185b98d9481b9bdd081b995959195960621b6044820152606401610589565b611b9e612135565b92509250509091565b6006545f90606090806001600160401b03811115611bc757611bc7612ce8565b604051908082528060200260200182016040528015611bf0578160200160208202803683370190505b5091505f5b81811015611cd0575f60068281548110611c1157611c11612eea565b5f91825260208220600290910201546001600160a01b03169150611c3482611582565b6009549091506001600160a01b0390811690831603611c715780858481518110611c6057611c60612eea565b602002602001018181525050611c9f565b5f611c7c8383612063565b905080868581518110611c9157611c91612eea565b602002602001018181525050505b848381518110611cb157611cb1612eea565b602002602001015186611cc49190612fde565b95505050600101611bf5565b50509091565b6006546060906001600160401b03811115611cf357611cf3612ce8565b604051908082528060200260200182016040528015611d1c578160200160208202803683370190505b5090505f5b6006548110156108c0575f61271060068381548110611d4257611d42612eea565b905f5260205f2090600202016001015486611d5d9190612ed3565b611d679190612fa0565b905080848381518110611d7c57611d7c612eea565b60200260200101511015611dce57838281518110611d9c57611d9c612eea565b602002602001015181611daf9190612ec0565b838381518110611dc157611dc1612eea565b6020026020010181815250505b50600101611d21565b5f805b6006548110156107af57828181518110611df657611df6612eea565b602002602001015182611e099190612fde565b9150600101611dda565b600954600680545f926001600160a01b0316919085908110611e3757611e37612eea565b5f9182526020909120600290910201546001600160a01b031603611e5c5750806108b0565b5f611e9260068581548110611e7357611e73612eea565b5f9182526020909120600290910201546001600160a01b0316846127c0565b90505f811161166a5760405162461bcd60e51b815260206004820152601b60248201527f496e76616c696420746f6b656e20616d6f756e7420746f2061646400000000006044820152606401610589565b6001600160a01b038216611f0c5760405163ec442f0560e01b81525f6004820152602401610589565b611f175f838361287c565b5050565b611f2883838360016129a2565b505050565b6001600160a01b038381165f908152600160209081526040808320938616835292905220545f198114611fa25781811015611f9457604051637dc7a0d960e11b81526001600160a01b03841660048201526024810182905260448101839052606401610589565b611fa284848484035f6129a2565b50505050565b6001600160a01b038316611fd157604051634b637e8f60e11b81525f6004820152602401610589565b6001600160a01b038216611ffa5760405163ec442f0560e01b81525f6004820152602401610589565b611f2883838361287c565b60026005540361202857604051633ee5aeb560e01b815260040160405180910390fd5b6002600555565b6001600160a01b03821661205857604051634b637e8f60e11b81525f6004820152602401610589565b611f17825f8361287c565b5f80600a5f9054906101000a90046001600160a01b03166001600160a01b031663cff49d686040518163ffffffff1660e01b8152600401602060405180830381865afa1580156120b5573d5f803e3d5ffd5b505050506040513d601f19601f820116820180604052508101906120d99190612e49565b60095460405163248391ff60e01b81526001600160a01b0387811660048301529182166024820152604481018690529192505f919083169063248391ff90606401602060405180830381865afa158015610a6b573d5f803e3d5ffd5b6060805f600a5f9054906101000a90046001600160a01b03166001600160a01b0316631acb61416040518163ffffffff1660e01b8152600401602060405180830381865afa158015612189573d5f803e3d5ffd5b505050506040513d601f19601f820116820180604052508101906121ad9190612e49565b90505f600a5f9054906101000a90046001600160a01b03166001600160a01b031663cff49d686040518163ffffffff1660e01b8152600401602060405180830381865afa158015612200573d5f803e3d5ffd5b505050506040513d601f19601f820116820180604052508101906122249190612e49565b6006549091505f906001600160401b0381111561224357612243612ce8565b60405190808252806020026020018201604052801561226c578160200160208202803683370190505b506006549091505f906001600160401b0381111561228c5761228c612ce8565b6040519080825280602002602001820160405280156122b5578160200160208202803683370190505b506006549091505f906001600160401b038111156122d5576122d5612ce8565b6040519080825280602002602001820160405280156122fe578160200160208202803683370190505b506006549091505f906001600160401b0381111561231e5761231e612ce8565b604051908082528060200260200182016040528015612347578160200160208202803683370190505b506006549091505f906001600160401b0381111561236757612367612ce8565b604051908082528060200260200182016040528015612390578160200160208202803683370190505b506006549091505f906001600160401b038111156123b0576123b0612ce8565b6040519080825280602002602001820160405280156123d9578160200160208202803683370190505b5090505f5b60065481101561253757600681815481106123fb576123fb612eea565b5f91825260209091206002909102015487516001600160a01b039091169088908390811061242b5761242b612eea565b60200260200101906001600160a01b031690816001600160a01b0316815250506006818154811061245e5761245e612eea565b905f5260205f2090600202016001015486828151811061248057612480612eea565b60200260200101818152505086818151811061249e5761249e612eea565b60209081029190910101516040516370a0823160e01b81526001600160a01b038b81166004830152909116906370a0823190602401602060405180830381865afa1580156124ee573d5f803e3d5ffd5b505050506040513d601f19601f820116820180604052508101906125129190612f89565b85828151811061252457612524612eea565b60209081029190910101526001016123de565b505f6125416107b5565b9050876001600160a01b031663f0bf77148289896007548e8f60095f9054906101000a90046001600160a01b03166040518863ffffffff1660e01b81526004016125919796959493929190612ff1565b5f604051808303815f87803b1580156125a8575f80fd5b505af11580156125ba573d5f803e3d5ffd5b505050505f5b60065481101561276e578781815181106125dc576125dc612eea565b60209081029190910101516040516370a0823160e01b81526001600160a01b038c81166004830152909116906370a0823190602401602060405180830381865afa15801561262c573d5f803e3d5ffd5b505050506040513d601f19601f820116820180604052508101906126509190612f89565b85828151811061266257612662612eea565b60200260200101818152505085818151811061268057612680612eea565b602002602001015185828151811061269a5761269a612eea565b60200260200101511115612709578581815181106126ba576126ba612eea565b60200260200101518582815181106126d4576126d4612eea565b60200260200101516126e69190612ec0565b8482815181106126f8576126f8612eea565b602002602001018181525050612766565b84818151811061271b5761271b612eea565b602002602001015186828151811061273557612735612eea565b60200260200101516127479190612ec0565b83828151811061275957612759612eea565b6020026020010181815250505b6001016125c0565b50336001600160a01b03167f279b343370f587af7fb675ae7c8578e9c8abcc373236ad02c501a4771fe7a7b8886040516127a89190612bdf565b60405180910390a25090999098509650505050505050565b5f80600a5f9054906101000a90046001600160a01b03166001600160a01b031663cff49d686040518163ffffffff1660e01b8152600401602060405180830381865afa158015612812573d5f803e3d5ffd5b505050506040513d601f19601f820116820180604052508101906128369190612e49565b60095460405163248391ff60e01b81526001600160a01b0391821660048201528682166024820152604481018690529192505f919083169063248391ff90606401610a50565b6001600160a01b0383166128a6578060025f82825461289b9190612fde565b909155506129169050565b6001600160a01b0383165f90815260208190526040902054818110156128f85760405163391434e360e21b81526001600160a01b03851660048201526024810182905260448101839052606401610589565b6001600160a01b0384165f9081526020819052604090209082900390555b6001600160a01b03821661293257600280548290039055612950565b6001600160a01b0382165f9081526020819052604090208054820190555b816001600160a01b0316836001600160a01b03167fddf252ad1be2c89b69c2b068fc378daa952ba7f163c4a11628f55a4df523b3ef8360405161299591815260200190565b60405180910390a3505050565b6001600160a01b0384166129cb5760405163e602df0560e01b81525f6004820152602401610589565b6001600160a01b0383166129f457604051634a1406b160e11b81525f6004820152602401610589565b6001600160a01b038085165f9081526001602090815260408083209387168352929052208290558015611fa257826001600160a01b0316846001600160a01b03167f8c5be1e5ebec7d5bd14f71427d1e84f3dd0314c0f7b2291e5b200ac8c7c3b92584604051612a6691815260200190565b60405180910390a350505050565b602081525f82518060208401528060208501604085015e5f604082850101526040601f19601f83011684010191505092915050565b6001600160a01b0381168114612abd575f80fd5b50565b5f60208284031215612ad0575f80fd5b813561166a81612aa9565b5f815180845260208085019450602084015f5b83811015612b0a57815187529582019590820190600101612aee565b509495945050505050565b602081525f61166a6020830184612adb565b5f8060408385031215612b38575f80fd5b8235612b4381612aa9565b946020939093013593505050565b5f805f60608486031215612b63575f80fd5b8335612b6e81612aa9565b92506020840135612b7e81612aa9565b929592945050506040919091013590565b828152604060208201525f610dc76040830184612adb565b5f815180845260208085019450602084015f5b83811015612b0a5781516001600160a01b031687529582019590820190600101612bba565b602081525f61166a6020830184612ba7565b5f805f8060808587031215612c04575f80fd5b8435612c0f81612aa9565b93506020850135612c1f81612aa9565b9250604085013591506060850135612c3681612aa9565b939692955090935050565b604080825283519082018190525f906020906060840190828701845b82811015612c7b578151151584529284019290840190600101612c5d565b5050508381036020850152612c908186612adb565b9695505050505050565b5f60208284031215612caa575f80fd5b5035919050565b5f8060408385031215612cc2575f80fd5b8235612ccd81612aa9565b91506020830135612cdd81612aa9565b809150509250929050565b634e487b7160e01b5f52604160045260245ffd5b604051601f8201601f191681016001600160401b0381118282101715612d2457612d24612ce8565b604052919050565b5f6001600160401b03821115612d4457612d44612ce8565b5060051b60200190565b5f8060408385031215612d5f575f80fd5b8235612d6a81612aa9565b91506020838101356001600160401b03811115612d85575f80fd5b8401601f81018613612d95575f80fd5b8035612da8612da382612d2c565b612cfc565b81815260059190911b82018301908381019088831115612dc6575f80fd5b928401925b82841015612de457833582529284019290840190612dcb565b80955050505050509250929050565b604081525f612e056040830185612adb565b8281036020840152610a8f8185612adb565b600181811c90821680612e2b57607f821691505b6020821081036107af57634e487b7160e01b5f52602260045260245ffd5b5f60208284031215612e59575f80fd5b815161166a81612aa9565b6020808252600e908201526d4f6e6c792050657269706865727960901b604082015260600190565b5f60208284031215612e9c575f80fd5b815160ff8116811461166a575f80fd5b634e487b7160e01b5f52601160045260245ffd5b818103818111156108b0576108b0612eac565b80820281158282048414176108b0576108b0612eac565b634e487b7160e01b5f52603260045260245ffd5b5f6020808385031215612f0f575f80fd5b82516001600160401b03811115612f24575f80fd5b8301601f81018513612f34575f80fd5b8051612f42612da382612d2c565b81815260059190911b82018301908381019087831115612f60575f80fd5b928401925b82841015612f7e57835182529284019290840190612f65565b979650505050505050565b5f60208284031215612f99575f80fd5b5051919050565b5f82612fba57634e487b7160e01b5f52601260045260245ffd5b500490565b5f60208284031215612fcf575f80fd5b8151801515811461166a575f80fd5b808201808211156108b0576108b0612eac565b60e081525f61300360e083018a612adb565b8281036020840152613015818a612ba7565b905082810360408401526130298189612adb565b606084019790975250506001600160a01b03938416608082015291831660a083015290911660c090910152939250505056fea2646970667358221220c2384f62341da92249ad2c391bf82936b72af97278671dfd8682203a0ae410f264736f6c63430008190033",
    "sourcePath": "c:/Users/Utente/Source/repos/baluni-contracts/contracts/BaluniV1Pool.sol",
    "compiler": {
        "name": "solc",
        "version": "0.8.25+commit.b61c2a91"
    },
    "functionHashes": {
        "ONE()": "c2ee3a08",
        "allowance(address,address)": "dd62ed3e",
        "approve(address,uint256)": "095ea7b3",
        "assetInfos(uint256)": "d14ef46d",
        "assetLiquidity(uint256)": "cf8fa764",
        "balanceOf(address)": "70a08231",
        "baseAsset()": "cdf456e1",
        "burn(address)": "89afcb44",
        "computeTotalValuation()": "36bf6e39",
        "decimals()": "313ce567",
        "getAmountOut(address,address,uint256)": "4aa06652",
        "getAssetReserve(address)": "b2b55d70",
        "getAssets()": "67e4ac2c",
        "getDeviation()": "89ab3532",
        "getReserves()": "0902f1ac",
        "getWeights()": "22acb867",
        "isRebalanceNeeded()": "8a77c8dc",
        "liquidity()": "1a686502",
        "mint(address,uint256[])": "de836ebd",
        "name()": "06fdde03",
        "performRebalanceIfNeeded()": "f47b45e8",
        "rebalanceWeights(address)": "0723c999",
        "registry()": "7b103999",
        "swap(address,address,uint256,address)": "6e81221c",
        "symbol()": "95d89b41",
        "totalSupply()": "18160ddd",
        "transfer(address,uint256)": "a9059cbb",
        "transferFrom(address,address,uint256)": "23b872dd",
        "trigger()": "7fec8d38",
        "unitPrice()": "e73faa2d"
    },
    "gasEstimates": {
        "creation": {
            "codeDepositCost": "2486600",
            "executionCost": "infinite",
            "totalCost": "infinite"
        },
        "external": {
            "ONE()": "2339",
            "allowance(address,address)": "infinite",
            "approve(address,uint256)": "24752",
            "assetInfos(uint256)": "6881",
            "assetLiquidity(uint256)": "infinite",
            "balanceOf(address)": "2620",
            "baseAsset()": "2403",
            "burn(address)": "infinite",
            "computeTotalValuation()": "infinite",
            "decimals()": "244",
            "getAmountOut(address,address,uint256)": "infinite",
            "getAssetReserve(address)": "infinite",
            "getAssets()": "infinite",
            "getDeviation()": "infinite",
            "getReserves()": "infinite",
            "getWeights()": "infinite",
            "isRebalanceNeeded()": "infinite",
            "liquidity()": "infinite",
            "mint(address,uint256[])": "infinite",
            "name()": "infinite",
            "performRebalanceIfNeeded()": "infinite",
            "rebalanceWeights(address)": "infinite",
            "registry()": "2447",
            "swap(address,address,uint256,address)": "infinite",
            "symbol()": "infinite",
            "totalSupply()": "2348",
            "transfer(address,uint256)": "51299",
            "transferFrom(address,address,uint256)": "infinite",
            "trigger()": "2340",
            "unitPrice()": "infinite"
        },
        "internal": {
            "_calculateAmountsToAdd(uint256,uint256[] memory)": "infinite",
            "_calculateLiquidity(uint256,uint256)": "infinite",
            "_calculateTotalAddedLiquidity(uint256[] memory)": "infinite",
            "_computeTotalValuation()": "infinite",
            "_convertBaseToToken(address,uint256)": "infinite",
            "_convertTokenToBase(address,uint256)": "infinite",
            "_getTargetWeight(address)": "infinite",
            "_performRebalanceIfNeeded()": "infinite",
            "initializeAssets(address[] memory,uint256[] memory)": "infinite",
            "max(uint8,uint8)": "infinite",
            "min(uint8,uint8)": "infinite"
        }
    }
}