{
    "contractName": "BaluniV1Pool",
    "abi": [
        {
            "inputs": [
                {
                    "internalType": "address",
                    "name": "_rebalancer",
                    "type": "address"
                },
                {
                    "internalType": "address[]",
                    "name": "_assets",
                    "type": "address[]"
                },
                {
                    "internalType": "uint256[]",
                    "name": "_weights",
                    "type": "uint256[]"
                },
                {
                    "internalType": "uint256",
                    "name": "_trigger",
                    "type": "uint256"
                },
                {
                    "internalType": "address",
                    "name": "_periphery",
                    "type": "address"
                }
            ],
            "stateMutability": "nonpayable",
            "type": "constructor"
        },
        {
            "inputs": [
                {
                    "internalType": "address",
                    "name": "spender",
                    "type": "address"
                },
                {
                    "internalType": "uint256",
                    "name": "allowance",
                    "type": "uint256"
                },
                {
                    "internalType": "uint256",
                    "name": "needed",
                    "type": "uint256"
                }
            ],
            "name": "ERC20InsufficientAllowance",
            "type": "error"
        },
        {
            "inputs": [
                {
                    "internalType": "address",
                    "name": "sender",
                    "type": "address"
                },
                {
                    "internalType": "uint256",
                    "name": "balance",
                    "type": "uint256"
                },
                {
                    "internalType": "uint256",
                    "name": "needed",
                    "type": "uint256"
                }
            ],
            "name": "ERC20InsufficientBalance",
            "type": "error"
        },
        {
            "inputs": [
                {
                    "internalType": "address",
                    "name": "approver",
                    "type": "address"
                }
            ],
            "name": "ERC20InvalidApprover",
            "type": "error"
        },
        {
            "inputs": [
                {
                    "internalType": "address",
                    "name": "receiver",
                    "type": "address"
                }
            ],
            "name": "ERC20InvalidReceiver",
            "type": "error"
        },
        {
            "inputs": [
                {
                    "internalType": "address",
                    "name": "sender",
                    "type": "address"
                }
            ],
            "name": "ERC20InvalidSender",
            "type": "error"
        },
        {
            "inputs": [
                {
                    "internalType": "address",
                    "name": "spender",
                    "type": "address"
                }
            ],
            "name": "ERC20InvalidSpender",
            "type": "error"
        },
        {
            "inputs": [],
            "name": "ReentrancyGuardReentrantCall",
            "type": "error"
        },
        {
            "anonymous": false,
            "inputs": [
                {
                    "indexed": true,
                    "internalType": "address",
                    "name": "owner",
                    "type": "address"
                },
                {
                    "indexed": true,
                    "internalType": "address",
                    "name": "spender",
                    "type": "address"
                },
                {
                    "indexed": false,
                    "internalType": "uint256",
                    "name": "value",
                    "type": "uint256"
                }
            ],
            "name": "Approval",
            "type": "event"
        },
        {
            "anonymous": false,
            "inputs": [
                {
                    "indexed": true,
                    "internalType": "address",
                    "name": "user",
                    "type": "address"
                },
                {
                    "indexed": false,
                    "internalType": "uint256",
                    "name": "sharesBurned",
                    "type": "uint256"
                }
            ],
            "name": "Burn",
            "type": "event"
        },
        {
            "anonymous": false,
            "inputs": [
                {
                    "indexed": true,
                    "internalType": "address",
                    "name": "to",
                    "type": "address"
                },
                {
                    "indexed": false,
                    "internalType": "uint256",
                    "name": "sharesMinted",
                    "type": "uint256"
                }
            ],
            "name": "Mint",
            "type": "event"
        },
        {
            "anonymous": false,
            "inputs": [
                {
                    "indexed": true,
                    "internalType": "address",
                    "name": "by",
                    "type": "address"
                },
                {
                    "indexed": false,
                    "internalType": "address[]",
                    "name": "assets",
                    "type": "address[]"
                }
            ],
            "name": "RebalancePerformed",
            "type": "event"
        },
        {
            "anonymous": false,
            "inputs": [
                {
                    "indexed": true,
                    "internalType": "address",
                    "name": "user",
                    "type": "address"
                },
                {
                    "indexed": true,
                    "internalType": "address",
                    "name": "fromToken",
                    "type": "address"
                },
                {
                    "indexed": true,
                    "internalType": "address",
                    "name": "toToken",
                    "type": "address"
                },
                {
                    "indexed": false,
                    "internalType": "uint256",
                    "name": "amountIn",
                    "type": "uint256"
                },
                {
                    "indexed": false,
                    "internalType": "uint256",
                    "name": "amountOut",
                    "type": "uint256"
                }
            ],
            "name": "Swap",
            "type": "event"
        },
        {
            "anonymous": false,
            "inputs": [
                {
                    "indexed": true,
                    "internalType": "address",
                    "name": "from",
                    "type": "address"
                },
                {
                    "indexed": true,
                    "internalType": "address",
                    "name": "to",
                    "type": "address"
                },
                {
                    "indexed": false,
                    "internalType": "uint256",
                    "name": "value",
                    "type": "uint256"
                }
            ],
            "name": "Transfer",
            "type": "event"
        },
        {
            "anonymous": false,
            "inputs": [
                {
                    "indexed": true,
                    "internalType": "address",
                    "name": "user",
                    "type": "address"
                },
                {
                    "indexed": false,
                    "internalType": "uint256[]",
                    "name": "amountsAdded",
                    "type": "uint256[]"
                }
            ],
            "name": "WeightsRebalanced",
            "type": "event"
        },
        {
            "inputs": [],
            "name": "ONE",
            "outputs": [
                {
                    "internalType": "uint256",
                    "name": "",
                    "type": "uint256"
                }
            ],
            "stateMutability": "view",
            "type": "function"
        },
        {
            "inputs": [],
            "name": "SWAP_FEE_BPS",
            "outputs": [
                {
                    "internalType": "uint256",
                    "name": "",
                    "type": "uint256"
                }
            ],
            "stateMutability": "view",
            "type": "function"
        },
        {
            "inputs": [
                {
                    "internalType": "address",
                    "name": "owner",
                    "type": "address"
                },
                {
                    "internalType": "address",
                    "name": "spender",
                    "type": "address"
                }
            ],
            "name": "allowance",
            "outputs": [
                {
                    "internalType": "uint256",
                    "name": "",
                    "type": "uint256"
                }
            ],
            "stateMutability": "view",
            "type": "function"
        },
        {
            "inputs": [
                {
                    "internalType": "address",
                    "name": "spender",
                    "type": "address"
                },
                {
                    "internalType": "uint256",
                    "name": "value",
                    "type": "uint256"
                }
            ],
            "name": "approve",
            "outputs": [
                {
                    "internalType": "bool",
                    "name": "",
                    "type": "bool"
                }
            ],
            "stateMutability": "nonpayable",
            "type": "function"
        },
        {
            "inputs": [
                {
                    "internalType": "uint256",
                    "name": "",
                    "type": "uint256"
                }
            ],
            "name": "assetInfos",
            "outputs": [
                {
                    "internalType": "address",
                    "name": "asset",
                    "type": "address"
                },
                {
                    "internalType": "uint256",
                    "name": "weight",
                    "type": "uint256"
                }
            ],
            "stateMutability": "view",
            "type": "function"
        },
        {
            "inputs": [
                {
                    "internalType": "uint256",
                    "name": "assetIndex",
                    "type": "uint256"
                }
            ],
            "name": "assetLiquidity",
            "outputs": [
                {
                    "internalType": "uint256",
                    "name": "",
                    "type": "uint256"
                }
            ],
            "stateMutability": "view",
            "type": "function"
        },
        {
            "inputs": [
                {
                    "internalType": "address",
                    "name": "account",
                    "type": "address"
                }
            ],
            "name": "balanceOf",
            "outputs": [
                {
                    "internalType": "uint256",
                    "name": "",
                    "type": "uint256"
                }
            ],
            "stateMutability": "view",
            "type": "function"
        },
        {
            "inputs": [
                {
                    "internalType": "address",
                    "name": "to",
                    "type": "address"
                }
            ],
            "name": "burn",
            "outputs": [],
            "stateMutability": "nonpayable",
            "type": "function"
        },
        {
            "inputs": [],
            "name": "computeTotalValuation",
            "outputs": [
                {
                    "internalType": "uint256",
                    "name": "totalVal",
                    "type": "uint256"
                },
                {
                    "internalType": "uint256[]",
                    "name": "valuations",
                    "type": "uint256[]"
                }
            ],
            "stateMutability": "view",
            "type": "function"
        },
        {
            "inputs": [],
            "name": "decimals",
            "outputs": [
                {
                    "internalType": "uint8",
                    "name": "",
                    "type": "uint8"
                }
            ],
            "stateMutability": "view",
            "type": "function"
        },
        {
            "inputs": [
                {
                    "internalType": "address",
                    "name": "fromToken",
                    "type": "address"
                },
                {
                    "internalType": "address",
                    "name": "toToken",
                    "type": "address"
                },
                {
                    "internalType": "uint256",
                    "name": "amount",
                    "type": "uint256"
                }
            ],
            "name": "getAmountOut",
            "outputs": [
                {
                    "internalType": "uint256",
                    "name": "",
                    "type": "uint256"
                }
            ],
            "stateMutability": "view",
            "type": "function"
        },
        {
            "inputs": [],
            "name": "getAssets",
            "outputs": [
                {
                    "internalType": "address[]",
                    "name": "",
                    "type": "address[]"
                }
            ],
            "stateMutability": "view",
            "type": "function"
        },
        {
            "inputs": [],
            "name": "getDeviation",
            "outputs": [
                {
                    "internalType": "bool[]",
                    "name": "directions",
                    "type": "bool[]"
                },
                {
                    "internalType": "uint256[]",
                    "name": "deviations",
                    "type": "uint256[]"
                }
            ],
            "stateMutability": "view",
            "type": "function"
        },
        {
            "inputs": [],
            "name": "getReserves",
            "outputs": [
                {
                    "internalType": "uint256[]",
                    "name": "",
                    "type": "uint256[]"
                }
            ],
            "stateMutability": "view",
            "type": "function"
        },
        {
            "inputs": [],
            "name": "getWeights",
            "outputs": [
                {
                    "internalType": "uint256[]",
                    "name": "",
                    "type": "uint256[]"
                }
            ],
            "stateMutability": "view",
            "type": "function"
        },
        {
            "inputs": [],
            "name": "liquidity",
            "outputs": [
                {
                    "internalType": "uint256",
                    "name": "",
                    "type": "uint256"
                }
            ],
            "stateMutability": "view",
            "type": "function"
        },
        {
            "inputs": [
                {
                    "internalType": "address",
                    "name": "to",
                    "type": "address"
                }
            ],
            "name": "mint",
            "outputs": [
                {
                    "internalType": "uint256",
                    "name": "",
                    "type": "uint256"
                }
            ],
            "stateMutability": "nonpayable",
            "type": "function"
        },
        {
            "inputs": [],
            "name": "name",
            "outputs": [
                {
                    "internalType": "string",
                    "name": "",
                    "type": "string"
                }
            ],
            "stateMutability": "view",
            "type": "function"
        },
        {
            "inputs": [
                {
                    "internalType": "address",
                    "name": "_sender",
                    "type": "address"
                }
            ],
            "name": "performRebalanceIfNeeded",
            "outputs": [],
            "stateMutability": "nonpayable",
            "type": "function"
        },
        {
            "inputs": [],
            "name": "periphery",
            "outputs": [
                {
                    "internalType": "address",
                    "name": "",
                    "type": "address"
                }
            ],
            "stateMutability": "view",
            "type": "function"
        },
        {
            "inputs": [
                {
                    "internalType": "address",
                    "name": "receiver",
                    "type": "address"
                }
            ],
            "name": "rebalanceWeights",
            "outputs": [],
            "stateMutability": "nonpayable",
            "type": "function"
        },
        {
            "inputs": [],
            "name": "rebalancer",
            "outputs": [
                {
                    "internalType": "contract IBaluniV1Rebalancer",
                    "name": "",
                    "type": "address"
                }
            ],
            "stateMutability": "view",
            "type": "function"
        },
        {
            "inputs": [
                {
                    "internalType": "address",
                    "name": "",
                    "type": "address"
                }
            ],
            "name": "reserves",
            "outputs": [
                {
                    "internalType": "uint256",
                    "name": "",
                    "type": "uint256"
                }
            ],
            "stateMutability": "view",
            "type": "function"
        },
        {
            "inputs": [
                {
                    "internalType": "address",
                    "name": "fromToken",
                    "type": "address"
                },
                {
                    "internalType": "address",
                    "name": "toToken",
                    "type": "address"
                },
                {
                    "internalType": "uint256",
                    "name": "amount",
                    "type": "uint256"
                },
                {
                    "internalType": "address",
                    "name": "receiver",
                    "type": "address"
                }
            ],
            "name": "swap",
            "outputs": [
                {
                    "internalType": "uint256",
                    "name": "",
                    "type": "uint256"
                }
            ],
            "stateMutability": "nonpayable",
            "type": "function"
        },
        {
            "inputs": [],
            "name": "symbol",
            "outputs": [
                {
                    "internalType": "string",
                    "name": "",
                    "type": "string"
                }
            ],
            "stateMutability": "view",
            "type": "function"
        },
        {
            "inputs": [],
            "name": "totalSupply",
            "outputs": [
                {
                    "internalType": "uint256",
                    "name": "",
                    "type": "uint256"
                }
            ],
            "stateMutability": "view",
            "type": "function"
        },
        {
            "inputs": [
                {
                    "internalType": "address",
                    "name": "to",
                    "type": "address"
                },
                {
                    "internalType": "uint256",
                    "name": "value",
                    "type": "uint256"
                }
            ],
            "name": "transfer",
            "outputs": [
                {
                    "internalType": "bool",
                    "name": "",
                    "type": "bool"
                }
            ],
            "stateMutability": "nonpayable",
            "type": "function"
        },
        {
            "inputs": [
                {
                    "internalType": "address",
                    "name": "from",
                    "type": "address"
                },
                {
                    "internalType": "address",
                    "name": "to",
                    "type": "address"
                },
                {
                    "internalType": "uint256",
                    "name": "value",
                    "type": "uint256"
                }
            ],
            "name": "transferFrom",
            "outputs": [
                {
                    "internalType": "bool",
                    "name": "",
                    "type": "bool"
                }
            ],
            "stateMutability": "nonpayable",
            "type": "function"
        },
        {
            "inputs": [],
            "name": "trigger",
            "outputs": [
                {
                    "internalType": "uint256",
                    "name": "",
                    "type": "uint256"
                }
            ],
            "stateMutability": "view",
            "type": "function"
        },
        {
            "inputs": [],
            "name": "unitPrice",
            "outputs": [
                {
                    "internalType": "uint256",
                    "name": "",
                    "type": "uint256"
                }
            ],
            "stateMutability": "view",
            "type": "function"
        }
    ],
    "bytecode": "608060405234801561000f575f80fd5b5060405161380f38038061380f83398101604081905261002e9161058f565b60405180604001604052806009815260200168042616c756e69204c560bc1b81525060405180604001604052806009815260200168042414c554e492d4c560bc1b815250816003908161008191906106f9565b50600461008e82826106f9565b5050600160055550600a80546001600160a01b038084166001600160a01b0319928316179092556006805492881692909116919091179055670de0b6b3a76400006009556100dc84846100f1565b6100e46103e0565b5060085550610809915050565b80518251146101525760405162461bcd60e51b815260206004820152602260248201527f41737365747320616e642077656967687473206c656e677468206d69736d61746044820152610c6d60f31b60648201526084015b60405180910390fd5b5f5b82518110156103db575f6001600160a01b0316838281518110610179576101796107b8565b60200260200101516001600160a01b0316036101d75760405162461bcd60e51b815260206004820152601560248201527f496e76616c6964206173736574206164647265737300000000000000000000006044820152606401610149565b5f8282815181106101ea576101ea6107b8565b6020026020010151116102305760405162461bcd60e51b815260206004820152600e60248201526d125b9d985b1a59081dd95a59da1d60921b6044820152606401610149565b6007604051806040016040528085848151811061024f5761024f6107b8565b60200260200101516001600160a01b03168152602001848481518110610277576102776107b8565b6020908102919091018101519091528254600180820185555f948552828520845160029093020180546001600160a01b0319166001600160a01b03909316929092178255929091015191015583518490839081106102d7576102d76107b8565b6020908102919091010151600654604051636eb1769f60e11b81523060048201526001600160a01b03918216602482015291925082169063dd62ed3e90604401602060405180830381865afa158015610332573d5f803e3d5ffd5b505050506040513d601f19601f8201168201806040525081019061035691906107cc565b5f036103d25760065460405163095ea7b360e01b81526001600160a01b0391821660048201525f1960248201529082169063095ea7b3906044016020604051808303815f875af11580156103ac573d5f803e3d5ffd5b505050506040513d601f19601f820116820180604052508101906103d091906107e3565b505b50600101610154565b505050565b5f5b60075481101561049f575f60078281548110610400576104006107b8565b5f9182526020822060029190910201546040516370a0823160e01b81523060048201526001600160a01b03909116925082906370a0823190602401602060405180830381865afa158015610456573d5f803e3d5ffd5b505050506040513d601f19601f8201168201806040525081019061047a91906107cc565b6001600160a01b039092165f908152600b6020526040902091909155506001016103e2565b50565b80516001600160a01b03811681146104b8575f80fd5b919050565b634e487b7160e01b5f52604160045260245ffd5b604051601f8201601f191681016001600160401b03811182821017156104f9576104f96104bd565b604052919050565b5f6001600160401b03821115610519576105196104bd565b5060051b60200190565b5f82601f830112610532575f80fd5b8151602061054761054283610501565b6104d1565b8083825260208201915060208460051b870101935086841115610568575f80fd5b602086015b84811015610584578051835291830191830161056d565b509695505050505050565b5f805f805f60a086880312156105a3575f80fd5b6105ac866104a2565b602087810151919650906001600160401b03808211156105ca575f80fd5b818901915089601f8301126105dd575f80fd5b81516105eb61054282610501565b81815260059190911b8301840190848101908c831115610609575f80fd5b938501935b8285101561062e5761061f856104a2565b8252938501939085019061060e565b60408c01519099509450505080831115610646575f80fd5b505061065488828901610523565b9350506060860151915061066a608087016104a2565b90509295509295909350565b600181811c9082168061068a57607f821691505b6020821081036106a857634e487b7160e01b5f52602260045260245ffd5b50919050565b601f8211156103db57805f5260205f20601f840160051c810160208510156106d35750805b601f840160051c820191505b818110156106f2575f81556001016106df565b5050505050565b81516001600160401b03811115610712576107126104bd565b610726816107208454610676565b846106ae565b602080601f831160018114610759575f84156107425750858301515b5f19600386901b1c1916600185901b1785556107b0565b5f85815260208120601f198616915b8281101561078757888601518255948401946001909101908401610768565b50858210156107a457878501515f19600388901b60f8161c191681555b505060018460011b0185555b505050505050565b634e487b7160e01b5f52603260045260245ffd5b5f602082840312156107dc575f80fd5b5051919050565b5f602082840312156107f3575f80fd5b81518015158114610802575f80fd5b9392505050565b612ff9806108165f395ff3fe608060405234801561000f575f80fd5b50600436106101d1575f3560e01c80636a627842116100fe57806395d89b411161009e578063d14ef46d1161006e578063d14ef46d146103b9578063d66bd524146103eb578063dd62ed3e1461040a578063e73faa2d14610442575f80fd5b806395d89b4114610382578063a9059cbb1461038a578063c2ee3a081461039d578063cf8fa764146103a6575f80fd5b806377aace1a116100d957806377aace1a1461033d5780637fec8d381461035057806389ab35321461035957806389afcb441461036f575f80fd5b80636a627842146103045780636e81221c1461031757806370a082311461032a575f80fd5b806322acb867116101745780634aa06652116101445780634aa06652146102c15780635568081a146102d457806367a6c440146102e757806367e4ac2c146102ef575f80fd5b806322acb8671461028157806323b872dd14610289578063313ce5671461029c57806336bf6e39146102ab575f80fd5b80630902f1ac116101af5780630902f1ac1461022f578063095ea7b31461024457806318160ddd146102675780631a68650214610279575f80fd5b806301d22ccd146101d557806306fdde03146102055780630723c9991461021a575b5f80fd5b6006546101e8906001600160a01b031681565b6040516001600160a01b0390911681526020015b60405180910390f35b61020d61044a565b6040516101fc9190612ac6565b61022d610228366004612b0f565b6104da565b005b6102376105bb565b6040516101fc9190612b64565b610257610252366004612b76565b61067f565b60405190151581526020016101fc565b6002545b6040519081526020016101fc565b61026b610698565b6102376106a9565b610257610297366004612ba0565b610749565b604051601281526020016101fc565b6102b361076e565b6040516101fc929190612bde565b61026b6102cf366004612ba0565b610782565b61022d6102e2366004612b0f565b610a9c565b61026b601e81565b6102f7610b21565b6040516101fc9190612c2e565b61026b610312366004612b0f565b610bdc565b61026b610325366004612c40565b611047565b61026b610338366004612b0f565b611320565b600a546101e8906001600160a01b031681565b61026b60085481565b61036161133a565b6040516101fc929190612c90565b61022d61037d366004612b0f565b6114f5565b61020d611b6f565b610257610398366004612b76565b611b7e565b61026b60095481565b61026b6103b4366004612cdf565b611b8b565b6103cc6103c7366004612cdf565b611c00565b604080516001600160a01b0390931683526020830191909152016101fc565b61026b6103f9366004612b0f565b600b6020525f908152604090205481565b61026b610418366004612cf6565b6001600160a01b039182165f90815260016020908152604080832093909416825291909152205490565b61026b611c36565b60606003805461045990612d2d565b80601f016020809104026020016040519081016040528092919081815260200182805461048590612d2d565b80156104d05780601f106104a7576101008083540402835291602001916104d0565b820191905f5260205f20905b8154815290600101906020018083116104b357829003601f168201915b5050505050905090565b6104e2611c7e565b5f806104ec611d40565b915091505f6104fb8383611e6f565b90505f61050782611fb6565b90505f5b8251811015610560575f83828151811061052757610527612d5f565b60200260200101511115610558576105588184838151811061054b5761054b612d5f565b6020026020010151611ff2565b60010161050b565b5061056b858261216b565b610573611c7e565b336001600160a01b03167fa95ad530009c6f929555e70a66aadbeae7231e45756c5b028ca77fbaa376e73e836040516105ac9190612b64565b60405180910390a25050505050565b6007546060905f9067ffffffffffffffff8111156105db576105db612d73565b604051908082528060200260200182016040528015610604578160200160208202803683370190505b5090505f5b60075481101561067957600b5f6007838154811061062957610629612d5f565b5f91825260208083206002909202909101546001600160a01b03168352820192909252604001902054825183908390811061066657610666612d5f565b6020908102919091010152600101610609565b50919050565b5f3361068c81858561219f565b60019150505b92915050565b5f806106a2611d40565b5092915050565b6007546060905f9067ffffffffffffffff8111156106c9576106c9612d73565b6040519080825280602002602001820160405280156106f2578160200160208202803683370190505b5090505f5b600754811015610679576007818154811061071457610714612d5f565b905f5260205f2090600202016001015482828151811061073657610736612d5f565b60209081029190910101526001016106f7565b5f336107568582856121b1565b61076185858561222c565b60019150505b9392505050565b5f6060610779611d40565b90939092509050565b5f826001600160a01b0316846001600160a01b0316036107e95760405162461bcd60e51b815260206004820152601a60248201527f43616e6e6f742073776170207468652073616d6520746f6b656e00000000000060448201526064015b60405180910390fd5b5f82116108385760405162461bcd60e51b815260206004820181905260248201527f416d6f756e74206d7573742062652067726561746572207468616e207a65726f60448201526064016107e0565b5f612710610847601e85612d9b565b6108519190612db2565b90505f61085e8285612dd1565b90505f866001600160a01b031663313ce5676040518163ffffffff1660e01b8152600401602060405180830381865afa15801561089d573d5f803e3d5ffd5b505050506040513d601f19601f820116820180604052508101906108c19190612de4565b90505f866001600160a01b031663313ce5676040518163ffffffff1660e01b8152600401602060405180830381865afa158015610900573d5f803e3d5ffd5b505050506040513d601f19601f820116820180604052508101906109249190612de4565b60065460405163802431fb60e01b81526001600160a01b038b811660048301528a811660248301525f604483018190529394509091169063802431fb90606401602060405180830381865afa92505050801561099d575060408051601f3d908101601f1916820190925261099a91810190612e04565b60015b6109ae575f95505050505050610767565b90505f806109bd85600a612efb565b90505f6109cb85600a612efb565b9050806109d88386612d9b565b6109e29190612db2565b9350865f60ff88811690881614610a6b578660ff168860ff161115610a4a57610a0b8789612f09565b610a1690600a612efb565b9450610a228583612db2565b9150610a2f87600a612efb565b610a398784612d9b565b610a439190612db2565b9050610a8b565b610a548888612f09565b610a5f90600a612efb565b9450610a228583612d9b565b670de0b6b3a7640000610a7e8784612d9b565b610a889190612db2565b90505b9d9c50505050505050505050505050565b5f612710610aa960025490565b610ab5906103e8612d9b565b610abf9190612db2565b905080610acb83611320565b1015610b0d5760405162461bcd60e51b8152602060048201526011602482015270556e646572203525204c5020736861726560781b60448201526064016107e0565b610b15612289565b610b1d611c7e565b5050565b6007546060905f9067ffffffffffffffff811115610b4157610b41612d73565b604051908082528060200260200182016040528015610b6a578160200160208202803683370190505b5090505f5b6007548110156106795760078181548110610b8c57610b8c612d5f565b5f91825260209091206002909102015482516001600160a01b0390911690839083908110610bbc57610bbc612d5f565b6001600160a01b0390921660209283029190910190910152600101610b6f565b600a545f906001600160a01b03163314610c295760405162461bcd60e51b815260206004820152600e60248201526d4f6e6c792050657269706865727960901b60448201526064016107e0565b5f610c3360025490565b90505f80610c3f6105bb565b805160075491925014610c945760405162461bcd60e51b815260206004820152601760248201527f496e76616c6964207265736572766573206c656e67746800000000000000000060448201526064016107e0565b600754610ccf5760405162461bcd60e51b81526020600482015260096024820152684e6f2061737365747360b81b60448201526064016107e0565b5f5b600754811015610e5a575f60078281548110610cef57610cef612d5f565b5f9182526020822060029190910201546040516370a0823160e01b81523060048201526001600160a01b03909116925082906370a0823190602401602060405180830381865afa158015610d45573d5f803e3d5ffd5b505050506040513d601f19601f82011682018060405250810190610d699190612e04565b90505f8111610dba5760405162461bcd60e51b815260206004820152601e60248201527f42616c616e6365206d7573742062652067726561746572207468616e2030000060448201526064016107e0565b5f848481518110610dcd57610dcd612d5f565b602002602001015182610de09190612dd1565b90505f8111610e315760405162461bcd60e51b815260206004820152601d60248201527f416d6f756e74206d7573742062652067726561746572207468616e203000000060448201526064016107e0565b5f610e3c848361247f565b9050610e488188612f22565b96505060019093019250610cd1915050565b505f8211610eb55760405162461bcd60e51b815260206004820152602260248201527f546f74616c2076616c7565206d7573742062652067726561746572207468616e604482015261020360f41b60648201526084016107e0565b5f835f03610ec4575081610f47565b5f610ecd611d40565b5090505f8111610f2e5760405162461bcd60e51b815260206004820152602660248201527f546f74616c206c6971756964697479206d75737420626520677265617465722060448201526507468616e20360d41b60648201526084016107e0565b80610f398686612d9b565b610f439190612db2565b9150505b805f03610f865760405162461bcd60e51b815260206004820152600d60248201526c04d696e7420717479206973203609c1b60448201526064016107e0565b5f610f9033611320565b9050610f9a611c7e565b610fa4878361216b565b5f81610faf89611320565b610fb99190612dd1565b9050828114610ff85760405162461bcd60e51b815260206004820152600b60248201526a135a5b9d0811985a5b195960aa1b60448201526064016107e0565b876001600160a01b03167f0f6798a560793a54c3bcfe86a93cde1e73087d944c0ea20544137d41213968858460405161103391815260200190565b60405180910390a250909695505050505050565b5f61105061271f565b836001600160a01b0316856001600160a01b0316036110b15760405162461bcd60e51b815260206004820152601a60248201527f43616e6e6f742073776170207468652073616d6520746f6b656e00000000000060448201526064016107e0565b5f83116111005760405162461bcd60e51b815260206004820181905260248201527f416d6f756e74206d7573742062652067726561746572207468616e207a65726f60448201526064016107e0565b6040516323b872dd60e01b8152336004820152306024820152604481018490526001600160a01b038616906323b872dd906064016020604051808303815f875af1158015611150573d5f803e3d5ffd5b505050506040513d601f19601f820116820180604052508101906111749190612f35565b505f611181868686610782565b6040516370a0823160e01b815230600482015290915081906001600160a01b038716906370a0823190602401602060405180830381865afa1580156111c8573d5f803e3d5ffd5b505050506040513d601f19601f820116820180604052508101906111ec9190612e04565b10156112335760405162461bcd60e51b8152602060048201526016602482015275496e73756666696369656e74204c697175696469747960501b60448201526064016107e0565b60405163a9059cbb60e01b81526001600160a01b0384811660048301526024820183905286169063a9059cbb906044016020604051808303815f875af115801561127f573d5f803e3d5ffd5b505050506040513d601f19601f820116820180604052508101906112a39190612f35565b50846001600160a01b0316866001600160a01b0316846001600160a01b03167fcd3829a3813dc3cdd188fd3d01dcf3268c16be2fdd2dd21d0665418816e4606287856040516112fc929190918252602082015260400190565b60405180910390a461130c611c7e565b90506113186001600555565b949350505050565b6001600160a01b03165f9081526020819052604090205490565b6060805f80611347611d40565b60075491935091508067ffffffffffffffff81111561136857611368612d73565b604051908082528060200260200182016040528015611391578160200160208202803683370190505b5094508067ffffffffffffffff8111156113ad576113ad612d73565b6040519080825280602002602001820160405280156113d6578160200160208202803683370190505b5093505f5b818110156114ed575f848483815181106113f7576113f7612d5f565b602002602001015161271061140c9190612d9b565b6114169190612db2565b90505f6007838154811061142c5761142c612d5f565b905f5260205f20906002020160010154905080821115611497576114508183612dd1565b87848151811061146257611462612d5f565b602002602001018181525050600188848151811061148257611482612d5f565b911515602092830291909101909101526114e3565b6114a18282612dd1565b8784815181106114b3576114b3612d5f565b6020026020010181815250505f8884815181106114d2576114d2612d5f565b911515602092830291909101909101525b50506001016113db565b505050509091565b600a546001600160a01b031633146115405760405162461bcd60e51b815260206004820152600e60248201526d4f6e6c792050657269706865727960901b60448201526064016107e0565b5f61154a30611320565b90505f811161159b5760405162461bcd60e51b815260206004820152601c60248201527f5368617265206d7573742062652067726561746572207468616e20300000000060448201526064016107e0565b5f6115a560025490565b90505f81116115e55760405162461bcd60e51b815260206004820152600c60248201526b4e6f206c697175696469747960a01b60448201526064016107e0565b6007545f9067ffffffffffffffff81111561160257611602612d73565b60405190808252806020026020018201604052801561162b578160200160208202803683370190505b5090505f61271061163d601e86612d9b565b6116479190612db2565b90505f6116548286612dd1565b90505f5b60075481101561172a575f6007828154811061167657611676612d5f565b5f9182526020909120600290910201546040516370a0823160e01b81523060048201526001600160a01b03909116906370a0823190602401602060405180830381865afa1580156116c9573d5f803e3d5ffd5b505050506040513d601f19601f820116820180604052508101906116ed9190612e04565b9050856116fa8483612d9b565b6117049190612db2565b85838151811061171657611716612d5f565b602090810291909101015250600101611658565b508061173530611320565b101561177c5760405162461bcd60e51b8152602060048201526016602482015275496e73756666696369656e74206c697175696469747960501b60448201526064016107e0565b5f306001600160a01b031663a9059cbb60065f9054906101000a90046001600160a01b03166001600160a01b0316633b19e84a6040518163ffffffff1660e01b8152600401602060405180830381865afa1580156117dc573d5f803e3d5ffd5b505050506040513d601f19601f820116820180604052508101906118009190612f54565b6040516001600160e01b031960e084901b1681526001600160a01b039091166004820152602481018690526044016020604051808303815f875af115801561184a573d5f803e3d5ffd5b505050506040513d601f19601f8201168201806040525081019061186e9190612f35565b9050806118b35760405162461bcd60e51b8152602060048201526013602482015272119959481d1c985b9cd9995c8819985a5b1959606a1b60448201526064016107e0565b816118bd30611320565b10156119045760405162461bcd60e51b8152602060048201526016602482015275496e73756666696369656e74206c697175696469747960501b60448201526064016107e0565b61190e3083612749565b5f5b600754811015611b1a5784818151811061192c5761192c612d5f565b60200260200101516007828154811061194757611947612d5f565b5f9182526020909120600290910201546040516370a0823160e01b81523060048201526001600160a01b03909116906370a0823190602401602060405180830381865afa15801561199a573d5f803e3d5ffd5b505050506040513d601f19601f820116820180604052508101906119be9190612e04565b1015611a055760405162461bcd60e51b8152602060048201526016602482015275496e73756666696369656e74204c697175696469747960501b60448201526064016107e0565b5f60078281548110611a1957611a19612d5f565b5f91825260209091206002909102015486516001600160a01b039091169063a9059cbb908b90899086908110611a5157611a51612d5f565b60200260200101516040518363ffffffff1660e01b8152600401611a8a9291906001600160a01b03929092168252602082015260400190565b6020604051808303815f875af1158015611aa6573d5f803e3d5ffd5b505050506040513d601f19601f82011682018060405250810190611aca9190612f35565b905080611b115760405162461bcd60e51b8152602060048201526015602482015274105cdcd95d081d1c985b9cd9995c8819985a5b1959605a1b60448201526064016107e0565b50600101611910565b50611b23611c7e565b866001600160a01b03167fcc16f5dbb4873280815c1ee09dbd06736cffcc184412cf7a71a0fdb75d397ca583604051611b5e91815260200190565b60405180910390a250505050505050565b60606004805461045990612d2d565b5f3361068c81858561222c565b5f80611b95611d40565b91505080518310611bde5760405162461bcd60e51b8152602060048201526013602482015272092dcecc2d8d2c840c2e6e6cae840d2dcc8caf606b1b60448201526064016107e0565b808381518110611bf057611bf0612d5f565b6020026020010151915050919050565b60078181548110611c0f575f80fd5b5f918252602090912060029091020180546001909101546001600160a01b03909116915082565b5f80611c40611d40565b5090505f611c4d60025490565b9050805f03611c5e575f9250505090565b8060095483611c6d9190612d9b565b611c779190612db2565b9250505090565b5f5b600754811015611d3d575f60078281548110611c9e57611c9e612d5f565b5f9182526020822060029190910201546040516370a0823160e01b81523060048201526001600160a01b03909116925082906370a0823190602401602060405180830381865afa158015611cf4573d5f803e3d5ffd5b505050506040513d601f19601f82011682018060405250810190611d189190612e04565b6001600160a01b039092165f908152600b602052604090209190915550600101611c80565b50565b6007545f906060908067ffffffffffffffff811115611d6157611d61612d73565b604051908082528060200260200182016040528015611d8a578160200160208202803683370190505b5091505f5b81811015611e69575f60078281548110611dab57611dab612d5f565b905f5260205f2090600202015f015f9054906101000a90046001600160a01b031690505f611e1782600b5f60078781548110611de957611de9612d5f565b5f91825260208083206002909202909101546001600160a01b0316835282019290925260400190205461247f565b905080858481518110611e2c57611e2c612d5f565b602002602001018181525050848381518110611e4a57611e4a612d5f565b602002602001015186611e5d9190612f22565b95505050600101611d8f565b50509091565b60075460609067ffffffffffffffff811115611e8d57611e8d612d73565b604051908082528060200260200182016040528015611eb6578160200160208202803683370190505b5090505f611ec261133a565b9150505f5b600754811015611fae575f61271060078381548110611ee857611ee8612d5f565b905f5260205f2090600202016001015487611f039190612d9b565b611f0d9190612db2565b905080858381518110611f2257611f22612d5f565b60200260200101511015611f8557612710838381518110611f4557611f45612d5f565b602002602001015187611f589190612d9b565b611f629190612db2565b848381518110611f7457611f74612d5f565b602002602001018181525050611fa5565b5f848381518110611f9857611f98612d5f565b6020026020010181815250505b50600101611ec7565b505092915050565b5f805b60075481101561067957828181518110611fd557611fd5612d5f565b602002602001015182611fe89190612f22565b9150600101611fb9565b5f6120286007848154811061200957612009612d5f565b5f9182526020909120600290910201546001600160a01b03168361277d565b90505f81116120795760405162461bcd60e51b815260206004820152601b60248201527f496e76616c696420746f6b656e20616d6f756e7420746f20616464000000000060448201526064016107e0565b6007838154811061208c5761208c612d5f565b5f9182526020909120600290910201546040516323b872dd60e01b8152336004820152306024820152604481018390526001600160a01b03909116906323b872dd906064016020604051808303815f875af11580156120ed573d5f803e3d5ffd5b505050506040513d601f19601f820116820180604052508101906121119190612f35565b5080600b5f6007868154811061212957612129612d5f565b5f91825260208083206002909202909101546001600160a01b0316835282019290925260400181208054909190612161908490612f22565b9091555050505050565b6001600160a01b0382166121945760405163ec442f0560e01b81525f60048201526024016107e0565b610b1d5f838361289d565b6121ac83838360016129c3565b505050565b6001600160a01b038381165f908152600160209081526040808320938616835292905220545f198114612226578181101561221857604051637dc7a0d960e11b81526001600160a01b038416600482015260248101829052604481018390526064016107e0565b61222684848484035f6129c3565b50505050565b6001600160a01b03831661225557604051634b637e8f60e11b81525f60048201526024016107e0565b6001600160a01b03821661227e5760405163ec442f0560e01b81525f60048201526024016107e0565b6121ac83838361289d565b6007545f9067ffffffffffffffff8111156122a6576122a6612d73565b6040519080825280602002602001820160405280156122cf578160200160208202803683370190505b506007549091505f9067ffffffffffffffff8111156122f0576122f0612d73565b604051908082528060200260200182016040528015612319578160200160208202803683370190505b5090505f5b6007548110156123d3576007818154811061233b5761233b612d5f565b5f91825260209091206002909102015483516001600160a01b039091169084908390811061236b5761236b612d5f565b60200260200101906001600160a01b031690816001600160a01b0316815250506007818154811061239e5761239e612d5f565b905f5260205f209060020201600101548282815181106123c0576123c0612d5f565b602090810291909101015260010161231e565b506006546008546040516384db1dfb60e01b81526001600160a01b03909216916384db1dfb9161240d918691869130918291600401612f6f565b5f604051808303815f87803b158015612424575f80fd5b505af1158015612436573d5f803e3d5ffd5b50505050336001600160a01b03167f279b343370f587af7fb675ae7c8578e9c8abcc373236ad02c501a4771fe7a7b8836040516124739190612c2e565b60405180910390a25050565b5f805f60065f9054906101000a90046001600160a01b03166001600160a01b031663956fb5106040518163ffffffff1660e01b8152600401602060405180830381865afa1580156124d2573d5f803e3d5ffd5b505050506040513d601f19601f820116820180604052508101906124f69190612f54565b90505f856001600160a01b031663313ce5676040518163ffffffff1660e01b8152600401602060405180830381865afa158015612535573d5f803e3d5ffd5b505050506040513d601f19601f820116820180604052508101906125599190612de4565b90505f826001600160a01b031663313ce5676040518163ffffffff1660e01b8152600401602060405180830381865afa158015612598573d5f803e3d5ffd5b505050506040513d601f19601f820116820180604052508101906125bc9190612de4565b6006546040516307de4fd160e41b81526001600160a01b038a811660048301525f6024830152929350911690637de4fd1090604401602060405180830381865afa92505050801561262a575060408051601f3d908101601f1916820190925261262791810190612e04565b60015b61263a575f945050505050610692565b93505f8061264984600a612efb565b6009549091508061265a8389612d9b565b6126649190612db2565b96508360ff168560ff16146126ca5761267d8585612a95565b6126878686612ab1565b6126919190612f09565b61269f9060ff16600a612fb8565b92508360ff168560ff1611156126c0576126b9838a612db2565b98506126fa565b6126b9838a612d9b565b8460ff166012146126fa576126e0856012612f09565b6126eb90600a612efb565b92506126f7838a612d9b565b98505b600954612707888b612d9b565b6127119190612db2565b9a9950505050505050505050565b60026005540361274257604051633ee5aeb560e01b815260040160405180910390fd5b6002600555565b6001600160a01b03821661277257604051634b637e8f60e11b81525f60048201526024016107e0565b610b1d825f8361289d565b5f805f60065f9054906101000a90046001600160a01b03166001600160a01b031663956fb5106040518163ffffffff1660e01b8152600401602060405180830381865afa1580156127d0573d5f803e3d5ffd5b505050506040513d601f19601f820116820180604052508101906127f49190612f54565b60065460405163802431fb60e01b81526001600160a01b03808416600483015288811660248301525f604483015292935091169063802431fb90606401602060405180830381865afa92505050801561286a575060408051601f3d908101601f1916820190925261286791810190612e04565b60015b612878575f92505050610692565b91506009545f906128898487612d9b565b6128939190612db2565b9695505050505050565b6001600160a01b0383166128c7578060025f8282546128bc9190612f22565b909155506129379050565b6001600160a01b0383165f90815260208190526040902054818110156129195760405163391434e360e21b81526001600160a01b038516600482015260248101829052604481018390526064016107e0565b6001600160a01b0384165f9081526020819052604090209082900390555b6001600160a01b03821661295357600280548290039055612971565b6001600160a01b0382165f9081526020819052604090208054820190555b816001600160a01b0316836001600160a01b03167fddf252ad1be2c89b69c2b068fc378daa952ba7f163c4a11628f55a4df523b3ef836040516129b691815260200190565b60405180910390a3505050565b6001600160a01b0384166129ec5760405163e602df0560e01b81525f60048201526024016107e0565b6001600160a01b038316612a1557604051634a1406b160e11b81525f60048201526024016107e0565b6001600160a01b038085165f908152600160209081526040808320938716835292905220829055801561222657826001600160a01b0316846001600160a01b03167f8c5be1e5ebec7d5bd14f71427d1e84f3dd0314c0f7b2291e5b200ac8c7c3b92584604051612a8791815260200190565b60405180910390a350505050565b5f8160ff168360ff161115612aaa5781610767565b5090919050565b5f8160ff168360ff161015612aaa5781610767565b602081525f82518060208401528060208501604085015e5f604082850101526040601f19601f83011684010191505092915050565b6001600160a01b0381168114611d3d575f80fd5b5f60208284031215612b1f575f80fd5b813561076781612afb565b5f815180845260208085019450602084015f5b83811015612b5957815187529582019590820190600101612b3d565b509495945050505050565b602081525f6107676020830184612b2a565b5f8060408385031215612b87575f80fd5b8235612b9281612afb565b946020939093013593505050565b5f805f60608486031215612bb2575f80fd5b8335612bbd81612afb565b92506020840135612bcd81612afb565b929592945050506040919091013590565b828152604060208201525f6113186040830184612b2a565b5f815180845260208085019450602084015f5b83811015612b595781516001600160a01b031687529582019590820190600101612c09565b602081525f6107676020830184612bf6565b5f805f8060808587031215612c53575f80fd5b8435612c5e81612afb565b93506020850135612c6e81612afb565b9250604085013591506060850135612c8581612afb565b939692955090935050565b604080825283519082018190525f906020906060840190828701845b82811015612cca578151151584529284019290840190600101612cac565b50505083810360208501526128938186612b2a565b5f60208284031215612cef575f80fd5b5035919050565b5f8060408385031215612d07575f80fd5b8235612d1281612afb565b91506020830135612d2281612afb565b809150509250929050565b600181811c90821680612d4157607f821691505b60208210810361067957634e487b7160e01b5f52602260045260245ffd5b634e487b7160e01b5f52603260045260245ffd5b634e487b7160e01b5f52604160045260245ffd5b634e487b7160e01b5f52601160045260245ffd5b808202811582820484141761069257610692612d87565b5f82612dcc57634e487b7160e01b5f52601260045260245ffd5b500490565b8181038181111561069257610692612d87565b5f60208284031215612df4575f80fd5b815160ff81168114610767575f80fd5b5f60208284031215612e14575f80fd5b5051919050565b600181815b80851115612e5557815f1904821115612e3b57612e3b612d87565b80851615612e4857918102915b93841c9390800290612e20565b509250929050565b5f82612e6b57506001610692565b81612e7757505f610692565b8160018114612e8d5760028114612e9757612eb3565b6001915050610692565b60ff841115612ea857612ea8612d87565b50506001821b610692565b5060208310610133831016604e8410600b8410161715612ed6575081810a610692565b612ee08383612e1b565b805f1904821115612ef357612ef3612d87565b029392505050565b5f61076760ff841683612e5d565b60ff828116828216039081111561069257610692612d87565b8082018082111561069257610692612d87565b5f60208284031215612f45575f80fd5b81518015158114610767575f80fd5b5f60208284031215612f64575f80fd5b815161076781612afb565b60a081525f612f8160a0830188612bf6565b8281036020840152612f938188612b2a565b6001600160a01b03968716604085015294909516606083015250608001529392505050565b5f6107678383612e5d56fea264697066735822122095b3fa41104aa46f6fe4c5346393a7c5b54cb3567dd4005e2d692248ebb5fd2464736f6c63430008190033",
    "sourcePath": "c:/Users/dev/source/repos/baluni-contracts/contracts/BaluniV1Pool.sol",
    "compiler": {
        "name": "solc",
        "version": "0.8.25+commit.b61c2a91"
    },
    "functionHashes": {
        "ONE()": "c2ee3a08",
        "SWAP_FEE_BPS()": "67a6c440",
        "allowance(address,address)": "dd62ed3e",
        "approve(address,uint256)": "095ea7b3",
        "assetInfos(uint256)": "d14ef46d",
        "assetLiquidity(uint256)": "cf8fa764",
        "balanceOf(address)": "70a08231",
        "burn(address)": "89afcb44",
        "computeTotalValuation()": "36bf6e39",
        "decimals()": "313ce567",
        "getAmountOut(address,address,uint256)": "4aa06652",
        "getAssets()": "67e4ac2c",
        "getDeviation()": "89ab3532",
        "getReserves()": "0902f1ac",
        "getWeights()": "22acb867",
        "liquidity()": "1a686502",
        "mint(address)": "6a627842",
        "name()": "06fdde03",
        "performRebalanceIfNeeded(address)": "5568081a",
        "periphery()": "77aace1a",
        "rebalanceWeights(address)": "0723c999",
        "rebalancer()": "01d22ccd",
        "reserves(address)": "d66bd524",
        "swap(address,address,uint256,address)": "6e81221c",
        "symbol()": "95d89b41",
        "totalSupply()": "18160ddd",
        "transfer(address,uint256)": "a9059cbb",
        "transferFrom(address,address,uint256)": "23b872dd",
        "trigger()": "7fec8d38",
        "unitPrice()": "e73faa2d"
    },
    "gasEstimates": {
        "creation": {
            "codeDepositCost": "2456200",
            "executionCost": "infinite",
            "totalCost": "infinite"
        },
        "external": {
            "ONE()": "2383",
            "SWAP_FEE_BPS()": "283",
            "allowance(address,address)": "infinite",
            "approve(address,uint256)": "24774",
            "assetInfos(uint256)": "6814",
            "assetLiquidity(uint256)": "infinite",
            "balanceOf(address)": "2633",
            "burn(address)": "infinite",
            "computeTotalValuation()": "infinite",
            "decimals()": "266",
            "getAmountOut(address,address,uint256)": "infinite",
            "getAssets()": "infinite",
            "getDeviation()": "infinite",
            "getReserves()": "infinite",
            "getWeights()": "infinite",
            "liquidity()": "infinite",
            "mint(address)": "infinite",
            "name()": "infinite",
            "performRebalanceIfNeeded(address)": "infinite",
            "periphery()": "2370",
            "rebalanceWeights(address)": "infinite",
            "rebalancer()": "2372",
            "reserves(address)": "2576",
            "swap(address,address,uint256,address)": "infinite",
            "symbol()": "infinite",
            "totalSupply()": "2370",
            "transfer(address,uint256)": "51277",
            "transferFrom(address,address,uint256)": "infinite",
            "trigger()": "2361",
            "unitPrice()": "infinite"
        },
        "internal": {
            "_calculateAmountsToAdd(uint256,uint256[] memory)": "infinite",
            "_calculateTotalAddedLiquidity(uint256[] memory)": "infinite",
            "_computeTotalValuation()": "infinite",
            "_convertNativeToToken(address,uint256)": "infinite",
            "_convertTokenToNative(address,uint256)": "infinite",
            "_performRebalanceIfNeeded()": "infinite",
            "_transferAndCalculateLiquidity(uint256,uint256)": "infinite",
            "_updateReserves()": "infinite",
            "initializeAssets(address[] memory,uint256[] memory)": "infinite",
            "max(uint8,uint8)": "75",
            "min(uint8,uint8)": "75"
        }
    }
}