{
    "contractName": "BaluniV1Pool",
    "abi": [
        {
            "inputs": [
                {
                    "internalType": "address",
                    "name": "_rebalancer",
                    "type": "address"
                },
                {
                    "internalType": "address[]",
                    "name": "_assets",
                    "type": "address[]"
                },
                {
                    "internalType": "uint256[]",
                    "name": "_weights",
                    "type": "uint256[]"
                },
                {
                    "internalType": "uint256",
                    "name": "_trigger",
                    "type": "uint256"
                },
                {
                    "internalType": "address",
                    "name": "_periphery",
                    "type": "address"
                }
            ],
            "stateMutability": "nonpayable",
            "type": "constructor"
        },
        {
            "inputs": [
                {
                    "internalType": "address",
                    "name": "spender",
                    "type": "address"
                },
                {
                    "internalType": "uint256",
                    "name": "allowance",
                    "type": "uint256"
                },
                {
                    "internalType": "uint256",
                    "name": "needed",
                    "type": "uint256"
                }
            ],
            "name": "ERC20InsufficientAllowance",
            "type": "error"
        },
        {
            "inputs": [
                {
                    "internalType": "address",
                    "name": "sender",
                    "type": "address"
                },
                {
                    "internalType": "uint256",
                    "name": "balance",
                    "type": "uint256"
                },
                {
                    "internalType": "uint256",
                    "name": "needed",
                    "type": "uint256"
                }
            ],
            "name": "ERC20InsufficientBalance",
            "type": "error"
        },
        {
            "inputs": [
                {
                    "internalType": "address",
                    "name": "approver",
                    "type": "address"
                }
            ],
            "name": "ERC20InvalidApprover",
            "type": "error"
        },
        {
            "inputs": [
                {
                    "internalType": "address",
                    "name": "receiver",
                    "type": "address"
                }
            ],
            "name": "ERC20InvalidReceiver",
            "type": "error"
        },
        {
            "inputs": [
                {
                    "internalType": "address",
                    "name": "sender",
                    "type": "address"
                }
            ],
            "name": "ERC20InvalidSender",
            "type": "error"
        },
        {
            "inputs": [
                {
                    "internalType": "address",
                    "name": "spender",
                    "type": "address"
                }
            ],
            "name": "ERC20InvalidSpender",
            "type": "error"
        },
        {
            "inputs": [],
            "name": "ReentrancyGuardReentrantCall",
            "type": "error"
        },
        {
            "anonymous": false,
            "inputs": [
                {
                    "indexed": true,
                    "internalType": "address",
                    "name": "owner",
                    "type": "address"
                },
                {
                    "indexed": true,
                    "internalType": "address",
                    "name": "spender",
                    "type": "address"
                },
                {
                    "indexed": false,
                    "internalType": "uint256",
                    "name": "value",
                    "type": "uint256"
                }
            ],
            "name": "Approval",
            "type": "event"
        },
        {
            "anonymous": false,
            "inputs": [
                {
                    "indexed": true,
                    "internalType": "address",
                    "name": "user",
                    "type": "address"
                },
                {
                    "indexed": false,
                    "internalType": "uint256",
                    "name": "sharesBurned",
                    "type": "uint256"
                }
            ],
            "name": "Burn",
            "type": "event"
        },
        {
            "anonymous": false,
            "inputs": [
                {
                    "indexed": true,
                    "internalType": "address",
                    "name": "to",
                    "type": "address"
                },
                {
                    "indexed": false,
                    "internalType": "uint256",
                    "name": "sharesMinted",
                    "type": "uint256"
                }
            ],
            "name": "Mint",
            "type": "event"
        },
        {
            "anonymous": false,
            "inputs": [
                {
                    "indexed": true,
                    "internalType": "address",
                    "name": "by",
                    "type": "address"
                },
                {
                    "indexed": false,
                    "internalType": "address[]",
                    "name": "assets",
                    "type": "address[]"
                }
            ],
            "name": "RebalancePerformed",
            "type": "event"
        },
        {
            "anonymous": false,
            "inputs": [
                {
                    "indexed": true,
                    "internalType": "address",
                    "name": "user",
                    "type": "address"
                },
                {
                    "indexed": true,
                    "internalType": "address",
                    "name": "fromToken",
                    "type": "address"
                },
                {
                    "indexed": true,
                    "internalType": "address",
                    "name": "toToken",
                    "type": "address"
                },
                {
                    "indexed": false,
                    "internalType": "uint256",
                    "name": "amountIn",
                    "type": "uint256"
                },
                {
                    "indexed": false,
                    "internalType": "uint256",
                    "name": "amountOut",
                    "type": "uint256"
                }
            ],
            "name": "Swap",
            "type": "event"
        },
        {
            "anonymous": false,
            "inputs": [
                {
                    "indexed": true,
                    "internalType": "address",
                    "name": "from",
                    "type": "address"
                },
                {
                    "indexed": true,
                    "internalType": "address",
                    "name": "to",
                    "type": "address"
                },
                {
                    "indexed": false,
                    "internalType": "uint256",
                    "name": "value",
                    "type": "uint256"
                }
            ],
            "name": "Transfer",
            "type": "event"
        },
        {
            "anonymous": false,
            "inputs": [
                {
                    "indexed": true,
                    "internalType": "address",
                    "name": "user",
                    "type": "address"
                },
                {
                    "indexed": false,
                    "internalType": "uint256[]",
                    "name": "amountsAdded",
                    "type": "uint256[]"
                }
            ],
            "name": "WeightsRebalanced",
            "type": "event"
        },
        {
            "inputs": [],
            "name": "ONE",
            "outputs": [
                {
                    "internalType": "uint256",
                    "name": "",
                    "type": "uint256"
                }
            ],
            "stateMutability": "view",
            "type": "function"
        },
        {
            "inputs": [],
            "name": "SWAP_FEE_BPS",
            "outputs": [
                {
                    "internalType": "uint256",
                    "name": "",
                    "type": "uint256"
                }
            ],
            "stateMutability": "view",
            "type": "function"
        },
        {
            "inputs": [
                {
                    "internalType": "address",
                    "name": "owner",
                    "type": "address"
                },
                {
                    "internalType": "address",
                    "name": "spender",
                    "type": "address"
                }
            ],
            "name": "allowance",
            "outputs": [
                {
                    "internalType": "uint256",
                    "name": "",
                    "type": "uint256"
                }
            ],
            "stateMutability": "view",
            "type": "function"
        },
        {
            "inputs": [
                {
                    "internalType": "address",
                    "name": "spender",
                    "type": "address"
                },
                {
                    "internalType": "uint256",
                    "name": "value",
                    "type": "uint256"
                }
            ],
            "name": "approve",
            "outputs": [
                {
                    "internalType": "bool",
                    "name": "",
                    "type": "bool"
                }
            ],
            "stateMutability": "nonpayable",
            "type": "function"
        },
        {
            "inputs": [
                {
                    "internalType": "uint256",
                    "name": "",
                    "type": "uint256"
                }
            ],
            "name": "assetInfos",
            "outputs": [
                {
                    "internalType": "address",
                    "name": "asset",
                    "type": "address"
                },
                {
                    "internalType": "uint256",
                    "name": "weight",
                    "type": "uint256"
                }
            ],
            "stateMutability": "view",
            "type": "function"
        },
        {
            "inputs": [
                {
                    "internalType": "uint256",
                    "name": "assetIndex",
                    "type": "uint256"
                }
            ],
            "name": "assetLiquidity",
            "outputs": [
                {
                    "internalType": "uint256",
                    "name": "",
                    "type": "uint256"
                }
            ],
            "stateMutability": "view",
            "type": "function"
        },
        {
            "inputs": [
                {
                    "internalType": "address",
                    "name": "account",
                    "type": "address"
                }
            ],
            "name": "balanceOf",
            "outputs": [
                {
                    "internalType": "uint256",
                    "name": "",
                    "type": "uint256"
                }
            ],
            "stateMutability": "view",
            "type": "function"
        },
        {
            "inputs": [
                {
                    "internalType": "address",
                    "name": "to",
                    "type": "address"
                }
            ],
            "name": "burn",
            "outputs": [],
            "stateMutability": "nonpayable",
            "type": "function"
        },
        {
            "inputs": [],
            "name": "computeTotalValuation",
            "outputs": [
                {
                    "internalType": "uint256",
                    "name": "totalVal",
                    "type": "uint256"
                },
                {
                    "internalType": "uint256[]",
                    "name": "valuations",
                    "type": "uint256[]"
                }
            ],
            "stateMutability": "view",
            "type": "function"
        },
        {
            "inputs": [],
            "name": "decimals",
            "outputs": [
                {
                    "internalType": "uint8",
                    "name": "",
                    "type": "uint8"
                }
            ],
            "stateMutability": "view",
            "type": "function"
        },
        {
            "inputs": [
                {
                    "internalType": "address",
                    "name": "fromToken",
                    "type": "address"
                },
                {
                    "internalType": "address",
                    "name": "toToken",
                    "type": "address"
                },
                {
                    "internalType": "uint256",
                    "name": "amount",
                    "type": "uint256"
                }
            ],
            "name": "getAmountOut",
            "outputs": [
                {
                    "internalType": "uint256",
                    "name": "",
                    "type": "uint256"
                }
            ],
            "stateMutability": "view",
            "type": "function"
        },
        {
            "inputs": [],
            "name": "getAssets",
            "outputs": [
                {
                    "internalType": "address[]",
                    "name": "",
                    "type": "address[]"
                }
            ],
            "stateMutability": "view",
            "type": "function"
        },
        {
            "inputs": [],
            "name": "getDeviation",
            "outputs": [
                {
                    "internalType": "bool[]",
                    "name": "directions",
                    "type": "bool[]"
                },
                {
                    "internalType": "uint256[]",
                    "name": "deviations",
                    "type": "uint256[]"
                }
            ],
            "stateMutability": "view",
            "type": "function"
        },
        {
            "inputs": [],
            "name": "getReserves",
            "outputs": [
                {
                    "internalType": "uint256[]",
                    "name": "",
                    "type": "uint256[]"
                }
            ],
            "stateMutability": "view",
            "type": "function"
        },
        {
            "inputs": [],
            "name": "getWeights",
            "outputs": [
                {
                    "internalType": "uint256[]",
                    "name": "",
                    "type": "uint256[]"
                }
            ],
            "stateMutability": "view",
            "type": "function"
        },
        {
            "inputs": [],
            "name": "liquidity",
            "outputs": [
                {
                    "internalType": "uint256",
                    "name": "",
                    "type": "uint256"
                }
            ],
            "stateMutability": "view",
            "type": "function"
        },
        {
            "inputs": [
                {
                    "internalType": "address",
                    "name": "to",
                    "type": "address"
                }
            ],
            "name": "mint",
            "outputs": [
                {
                    "internalType": "uint256",
                    "name": "",
                    "type": "uint256"
                }
            ],
            "stateMutability": "nonpayable",
            "type": "function"
        },
        {
            "inputs": [],
            "name": "name",
            "outputs": [
                {
                    "internalType": "string",
                    "name": "",
                    "type": "string"
                }
            ],
            "stateMutability": "view",
            "type": "function"
        },
        {
            "inputs": [
                {
                    "internalType": "address",
                    "name": "_sender",
                    "type": "address"
                }
            ],
            "name": "performRebalanceIfNeeded",
            "outputs": [],
            "stateMutability": "nonpayable",
            "type": "function"
        },
        {
            "inputs": [],
            "name": "periphery",
            "outputs": [
                {
                    "internalType": "address",
                    "name": "",
                    "type": "address"
                }
            ],
            "stateMutability": "view",
            "type": "function"
        },
        {
            "inputs": [
                {
                    "internalType": "address",
                    "name": "receiver",
                    "type": "address"
                }
            ],
            "name": "rebalanceWeights",
            "outputs": [],
            "stateMutability": "nonpayable",
            "type": "function"
        },
        {
            "inputs": [],
            "name": "rebalancer",
            "outputs": [
                {
                    "internalType": "contract IBaluniV1Rebalancer",
                    "name": "",
                    "type": "address"
                }
            ],
            "stateMutability": "view",
            "type": "function"
        },
        {
            "inputs": [
                {
                    "internalType": "address",
                    "name": "",
                    "type": "address"
                }
            ],
            "name": "reserves",
            "outputs": [
                {
                    "internalType": "uint256",
                    "name": "",
                    "type": "uint256"
                }
            ],
            "stateMutability": "view",
            "type": "function"
        },
        {
            "inputs": [
                {
                    "internalType": "address",
                    "name": "fromToken",
                    "type": "address"
                },
                {
                    "internalType": "address",
                    "name": "toToken",
                    "type": "address"
                },
                {
                    "internalType": "uint256",
                    "name": "amount",
                    "type": "uint256"
                },
                {
                    "internalType": "address",
                    "name": "receiver",
                    "type": "address"
                }
            ],
            "name": "swap",
            "outputs": [
                {
                    "internalType": "uint256",
                    "name": "",
                    "type": "uint256"
                }
            ],
            "stateMutability": "nonpayable",
            "type": "function"
        },
        {
            "inputs": [],
            "name": "symbol",
            "outputs": [
                {
                    "internalType": "string",
                    "name": "",
                    "type": "string"
                }
            ],
            "stateMutability": "view",
            "type": "function"
        },
        {
            "inputs": [],
            "name": "totalSupply",
            "outputs": [
                {
                    "internalType": "uint256",
                    "name": "",
                    "type": "uint256"
                }
            ],
            "stateMutability": "view",
            "type": "function"
        },
        {
            "inputs": [
                {
                    "internalType": "address",
                    "name": "to",
                    "type": "address"
                },
                {
                    "internalType": "uint256",
                    "name": "value",
                    "type": "uint256"
                }
            ],
            "name": "transfer",
            "outputs": [
                {
                    "internalType": "bool",
                    "name": "",
                    "type": "bool"
                }
            ],
            "stateMutability": "nonpayable",
            "type": "function"
        },
        {
            "inputs": [
                {
                    "internalType": "address",
                    "name": "from",
                    "type": "address"
                },
                {
                    "internalType": "address",
                    "name": "to",
                    "type": "address"
                },
                {
                    "internalType": "uint256",
                    "name": "value",
                    "type": "uint256"
                }
            ],
            "name": "transferFrom",
            "outputs": [
                {
                    "internalType": "bool",
                    "name": "",
                    "type": "bool"
                }
            ],
            "stateMutability": "nonpayable",
            "type": "function"
        },
        {
            "inputs": [],
            "name": "trigger",
            "outputs": [
                {
                    "internalType": "uint256",
                    "name": "",
                    "type": "uint256"
                }
            ],
            "stateMutability": "view",
            "type": "function"
        },
        {
            "inputs": [],
            "name": "unitPrice",
            "outputs": [
                {
                    "internalType": "uint256",
                    "name": "",
                    "type": "uint256"
                }
            ],
            "stateMutability": "view",
            "type": "function"
        }
    ],
    "bytecode": "608060405234801561000f575f80fd5b506040516138b23803806138b283398101604081905261002e91610611565b60405180604001604052806009815260200168042616c756e69204c560bc1b81525060405180604001604052806009815260200168042414c554e492d4c560bc1b8152508160039081610081919061077b565b50600461008e828261077b565b5050600160055550600a80546001600160a01b038084166001600160a01b0319928316179092556006805492881692909116919091179055670de0b6b3a76400006009556100dc8484610178565b6100e4610462565b60088290555f805b8451811015610124578481815181106101075761010761083a565b60200260200101518261011a919061084e565b91506001016100ec565b50806127101461016d5760405162461bcd60e51b815260206004820152600f60248201526e496e76616c6964207765696768747360881b60448201526064015b60405180910390fd5b5050505050506108b0565b80518251146101d45760405162461bcd60e51b815260206004820152602260248201527f41737365747320616e642077656967687473206c656e677468206d69736d61746044820152610c6d60f31b6064820152608401610164565b5f5b825181101561045d575f6001600160a01b03168382815181106101fb576101fb61083a565b60200260200101516001600160a01b0316036102595760405162461bcd60e51b815260206004820152601560248201527f496e76616c6964206173736574206164647265737300000000000000000000006044820152606401610164565b5f82828151811061026c5761026c61083a565b6020026020010151116102b25760405162461bcd60e51b815260206004820152600e60248201526d125b9d985b1a59081dd95a59da1d60921b6044820152606401610164565b600760405180604001604052808584815181106102d1576102d161083a565b60200260200101516001600160a01b031681526020018484815181106102f9576102f961083a565b6020908102919091018101519091528254600180820185555f948552828520845160029093020180546001600160a01b0319166001600160a01b03909316929092178255929091015191015583518490839081106103595761035961083a565b6020908102919091010151600654604051636eb1769f60e11b81523060048201526001600160a01b03918216602482015291925082169063dd62ed3e90604401602060405180830381865afa1580156103b4573d5f803e3d5ffd5b505050506040513d601f19601f820116820180604052508101906103d89190610873565b5f036104545760065460405163095ea7b360e01b81526001600160a01b0391821660048201525f1960248201529082169063095ea7b3906044016020604051808303815f875af115801561042e573d5f803e3d5ffd5b505050506040513d601f19601f82011682018060405250810190610452919061088a565b505b506001016101d6565b505050565b5f5b600754811015610521575f600782815481106104825761048261083a565b5f9182526020822060029190910201546040516370a0823160e01b81523060048201526001600160a01b03909116925082906370a0823190602401602060405180830381865afa1580156104d8573d5f803e3d5ffd5b505050506040513d601f19601f820116820180604052508101906104fc9190610873565b6001600160a01b039092165f908152600b602052604090209190915550600101610464565b50565b80516001600160a01b038116811461053a575f80fd5b919050565b634e487b7160e01b5f52604160045260245ffd5b604051601f8201601f191681016001600160401b038111828210171561057b5761057b61053f565b604052919050565b5f6001600160401b0382111561059b5761059b61053f565b5060051b60200190565b5f82601f8301126105b4575f80fd5b815160206105c96105c483610583565b610553565b8083825260208201915060208460051b8701019350868411156105ea575f80fd5b602086015b8481101561060657805183529183019183016105ef565b509695505050505050565b5f805f805f60a08688031215610625575f80fd5b61062e86610524565b602087810151919650906001600160401b038082111561064c575f80fd5b818901915089601f83011261065f575f80fd5b815161066d6105c482610583565b81815260059190911b8301840190848101908c83111561068b575f80fd5b938501935b828510156106b0576106a185610524565b82529385019390850190610690565b60408c015190995094505050808311156106c8575f80fd5b50506106d6888289016105a5565b935050606086015191506106ec60808701610524565b90509295509295909350565b600181811c9082168061070c57607f821691505b60208210810361072a57634e487b7160e01b5f52602260045260245ffd5b50919050565b601f82111561045d57805f5260205f20601f840160051c810160208510156107555750805b601f840160051c820191505b81811015610774575f8155600101610761565b5050505050565b81516001600160401b038111156107945761079461053f565b6107a8816107a284546106f8565b84610730565b602080601f8311600181146107db575f84156107c45750858301515b5f19600386901b1c1916600185901b178555610832565b5f85815260208120601f198616915b82811015610809578886015182559484019460019091019084016107ea565b508582101561082657878501515f19600388901b60f8161c191681555b505060018460011b0185555b505050505050565b634e487b7160e01b5f52603260045260245ffd5b8082018082111561086d57634e487b7160e01b5f52601160045260245ffd5b92915050565b5f60208284031215610883575f80fd5b5051919050565b5f6020828403121561089a575f80fd5b815180151581146108a9575f80fd5b9392505050565b612ff5806108bd5f395ff3fe608060405234801561000f575f80fd5b50600436106101d1575f3560e01c80636a627842116100fe57806395d89b411161009e578063d14ef46d1161006e578063d14ef46d146103b9578063d66bd524146103eb578063dd62ed3e1461040a578063e73faa2d14610442575f80fd5b806395d89b4114610382578063a9059cbb1461038a578063c2ee3a081461039d578063cf8fa764146103a6575f80fd5b806377aace1a116100d957806377aace1a1461033d5780637fec8d381461035057806389ab35321461035957806389afcb441461036f575f80fd5b80636a627842146103045780636e81221c1461031757806370a082311461032a575f80fd5b806322acb867116101745780634aa06652116101445780634aa06652146102c15780635568081a146102d457806367a6c440146102e757806367e4ac2c146102ef575f80fd5b806322acb8671461028157806323b872dd14610289578063313ce5671461029c57806336bf6e39146102ab575f80fd5b80630902f1ac116101af5780630902f1ac1461022f578063095ea7b31461024457806318160ddd146102675780631a68650214610279575f80fd5b806301d22ccd146101d557806306fdde03146102055780630723c9991461021a575b5f80fd5b6006546101e8906001600160a01b031681565b6040516001600160a01b0390911681526020015b60405180910390f35b61020d61044a565b6040516101fc9190612aa1565b61022d610228366004612aea565b6104da565b005b6102376105bb565b6040516101fc9190612b3f565b610257610252366004612b51565b61067f565b60405190151581526020016101fc565b6002545b6040519081526020016101fc565b61026b610698565b6102376106a9565b610257610297366004612b7b565b610749565b604051601281526020016101fc565b6102b361076e565b6040516101fc929190612bb9565b61026b6102cf366004612b7b565b610782565b61022d6102e2366004612aea565b610aa8565b61026b601e81565b6102f7610b2d565b6040516101fc9190612c09565b61026b610312366004612aea565b610be8565b61026b610325366004612c1b565b611053565b61026b610338366004612aea565b61132c565b600a546101e8906001600160a01b031681565b61026b60085481565b610361611346565b6040516101fc929190612c6b565b61022d61037d366004612aea565b611501565b61020d611b7b565b610257610398366004612b51565b611b8a565b61026b60095481565b61026b6103b4366004612cba565b611b97565b6103cc6103c7366004612cba565b611c0c565b604080516001600160a01b0390931683526020830191909152016101fc565b61026b6103f9366004612aea565b600b6020525f908152604090205481565b61026b610418366004612cd1565b6001600160a01b039182165f90815260016020908152604080832093909416825291909152205490565b61026b611c42565b60606003805461045990612d08565b80601f016020809104026020016040519081016040528092919081815260200182805461048590612d08565b80156104d05780601f106104a7576101008083540402835291602001916104d0565b820191905f5260205f20905b8154815290600101906020018083116104b357829003601f168201915b5050505050905090565b6104e2611c8a565b5f806104ec611d4c565b915091505f6104fb8383611e7b565b90505f61050782611f91565b90505f5b8251811015610560575f83828151811061052757610527612d3a565b60200260200101511115610558576105588184838151811061054b5761054b612d3a565b6020026020010151611fcd565b60010161050b565b5061056b8582612146565b610573611c8a565b336001600160a01b03167fa95ad530009c6f929555e70a66aadbeae7231e45756c5b028ca77fbaa376e73e836040516105ac9190612b3f565b60405180910390a25050505050565b6007546060905f9067ffffffffffffffff8111156105db576105db612d4e565b604051908082528060200260200182016040528015610604578160200160208202803683370190505b5090505f5b60075481101561067957600b5f6007838154811061062957610629612d3a565b5f91825260208083206002909202909101546001600160a01b03168352820192909252604001902054825183908390811061066657610666612d3a565b6020908102919091010152600101610609565b50919050565b5f3361068c81858561217a565b60019150505b92915050565b5f806106a2611d4c565b5092915050565b6007546060905f9067ffffffffffffffff8111156106c9576106c9612d4e565b6040519080825280602002602001820160405280156106f2578160200160208202803683370190505b5090505f5b600754811015610679576007818154811061071457610714612d3a565b905f5260205f2090600202016001015482828151811061073657610736612d3a565b60209081029190910101526001016106f7565b5f3361075685828561218c565b610761858585612207565b60019150505b9392505050565b5f6060610779611d4c565b90939092509050565b5f826001600160a01b0316846001600160a01b0316036107e95760405162461bcd60e51b815260206004820152601a60248201527f43616e6e6f742073776170207468652073616d6520746f6b656e00000000000060448201526064015b60405180910390fd5b5f82116108385760405162461bcd60e51b815260206004820181905260248201527f416d6f756e74206d7573742062652067726561746572207468616e207a65726f60448201526064016107e0565b5f612710610847601e85612d76565b6108519190612d8d565b90505f61085e8285612dac565b90505f866001600160a01b031663313ce5676040518163ffffffff1660e01b8152600401602060405180830381865afa15801561089d573d5f803e3d5ffd5b505050506040513d601f19601f820116820180604052508101906108c19190612dbf565b90505f866001600160a01b031663313ce5676040518163ffffffff1660e01b8152600401602060405180830381865afa158015610900573d5f803e3d5ffd5b505050506040513d601f19601f820116820180604052508101906109249190612dbf565b60065460405163802431fb60e01b81526001600160a01b038b811660048301528a811660248301525f604483018190529394509091169063802431fb90606401602060405180830381865afa92505050801561099d575060408051601f3d908101601f1916820190925261099a91810190612ddf565b60015b6109ae575f95505050505050610767565b90505f848160ff86811690861614610a79578460ff168660ff161115610a23576109d88587612df6565b6109e390600a612eef565b92506109ef8383612d8d565b915060ff8516670de0b6b3a7640000610a088685612d76565b610a129190612d8d565b610a1c9190612dac565b9050610a99565b610a2d8686612df6565b610a3890600a612eef565b9250610a448383612d76565b9150610a5b60ff8616670de0b6b3a7640000612efd565b67ffffffffffffffff16610a6f8584612d76565b610a1c9190612d8d565b670de0b6b3a7640000610a8c8584612d76565b610a969190612d8d565b90505b9b9a5050505050505050505050565b5f612710610ab560025490565b610ac1906103e8612d76565b610acb9190612d8d565b905080610ad78361132c565b1015610b195760405162461bcd60e51b8152602060048201526011602482015270556e646572203525204c5020736861726560781b60448201526064016107e0565b610b21612264565b610b29611c8a565b5050565b6007546060905f9067ffffffffffffffff811115610b4d57610b4d612d4e565b604051908082528060200260200182016040528015610b76578160200160208202803683370190505b5090505f5b6007548110156106795760078181548110610b9857610b98612d3a565b5f91825260209091206002909102015482516001600160a01b0390911690839083908110610bc857610bc8612d3a565b6001600160a01b0390921660209283029190910190910152600101610b7b565b600a545f906001600160a01b03163314610c355760405162461bcd60e51b815260206004820152600e60248201526d4f6e6c792050657269706865727960901b60448201526064016107e0565b5f610c3f60025490565b90505f80610c4b6105bb565b805160075491925014610ca05760405162461bcd60e51b815260206004820152601760248201527f496e76616c6964207265736572766573206c656e67746800000000000000000060448201526064016107e0565b600754610cdb5760405162461bcd60e51b81526020600482015260096024820152684e6f2061737365747360b81b60448201526064016107e0565b5f5b600754811015610e66575f60078281548110610cfb57610cfb612d3a565b5f9182526020822060029190910201546040516370a0823160e01b81523060048201526001600160a01b03909116925082906370a0823190602401602060405180830381865afa158015610d51573d5f803e3d5ffd5b505050506040513d601f19601f82011682018060405250810190610d759190612ddf565b90505f8111610dc65760405162461bcd60e51b815260206004820152601e60248201527f42616c616e6365206d7573742062652067726561746572207468616e2030000060448201526064016107e0565b5f848481518110610dd957610dd9612d3a565b602002602001015182610dec9190612dac565b90505f8111610e3d5760405162461bcd60e51b815260206004820152601d60248201527f416d6f756e74206d7573742062652067726561746572207468616e203000000060448201526064016107e0565b5f610e48848361245a565b9050610e548188612f1e565b96505060019093019250610cdd915050565b505f8211610ec15760405162461bcd60e51b815260206004820152602260248201527f546f74616c2076616c7565206d7573742062652067726561746572207468616e604482015261020360f41b60648201526084016107e0565b5f835f03610ed0575081610f53565b5f610ed9611d4c565b5090505f8111610f3a5760405162461bcd60e51b815260206004820152602660248201527f546f74616c206c6971756964697479206d75737420626520677265617465722060448201526507468616e20360d41b60648201526084016107e0565b80610f458686612d76565b610f4f9190612d8d565b9150505b805f03610f925760405162461bcd60e51b815260206004820152600d60248201526c04d696e7420717479206973203609c1b60448201526064016107e0565b5f610f9c3361132c565b9050610fa6611c8a565b610fb08783612146565b5f81610fbb8961132c565b610fc59190612dac565b90508281146110045760405162461bcd60e51b815260206004820152600b60248201526a135a5b9d0811985a5b195960aa1b60448201526064016107e0565b876001600160a01b03167f0f6798a560793a54c3bcfe86a93cde1e73087d944c0ea20544137d41213968858460405161103f91815260200190565b60405180910390a250909695505050505050565b5f61105c6126fa565b836001600160a01b0316856001600160a01b0316036110bd5760405162461bcd60e51b815260206004820152601a60248201527f43616e6e6f742073776170207468652073616d6520746f6b656e00000000000060448201526064016107e0565b5f831161110c5760405162461bcd60e51b815260206004820181905260248201527f416d6f756e74206d7573742062652067726561746572207468616e207a65726f60448201526064016107e0565b6040516323b872dd60e01b8152336004820152306024820152604481018490526001600160a01b038616906323b872dd906064016020604051808303815f875af115801561115c573d5f803e3d5ffd5b505050506040513d601f19601f820116820180604052508101906111809190612f31565b505f61118d868686610782565b6040516370a0823160e01b815230600482015290915081906001600160a01b038716906370a0823190602401602060405180830381865afa1580156111d4573d5f803e3d5ffd5b505050506040513d601f19601f820116820180604052508101906111f89190612ddf565b101561123f5760405162461bcd60e51b8152602060048201526016602482015275496e73756666696369656e74204c697175696469747960501b60448201526064016107e0565b60405163a9059cbb60e01b81526001600160a01b0384811660048301526024820183905286169063a9059cbb906044016020604051808303815f875af115801561128b573d5f803e3d5ffd5b505050506040513d601f19601f820116820180604052508101906112af9190612f31565b50846001600160a01b0316866001600160a01b0316846001600160a01b03167fcd3829a3813dc3cdd188fd3d01dcf3268c16be2fdd2dd21d0665418816e460628785604051611308929190918252602082015260400190565b60405180910390a4611318611c8a565b90506113246001600555565b949350505050565b6001600160a01b03165f9081526020819052604090205490565b6060805f80611353611d4c565b60075491935091508067ffffffffffffffff81111561137457611374612d4e565b60405190808252806020026020018201604052801561139d578160200160208202803683370190505b5094508067ffffffffffffffff8111156113b9576113b9612d4e565b6040519080825280602002602001820160405280156113e2578160200160208202803683370190505b5093505f5b818110156114f9575f8484838151811061140357611403612d3a565b60200260200101516127106114189190612d76565b6114229190612d8d565b90505f6007838154811061143857611438612d3a565b905f5260205f209060020201600101549050808211156114a35761145c8183612dac565b87848151811061146e5761146e612d3a565b602002602001018181525050600188848151811061148e5761148e612d3a565b911515602092830291909101909101526114ef565b6114ad8282612dac565b8784815181106114bf576114bf612d3a565b6020026020010181815250505f8884815181106114de576114de612d3a565b911515602092830291909101909101525b50506001016113e7565b505050509091565b600a546001600160a01b0316331461154c5760405162461bcd60e51b815260206004820152600e60248201526d4f6e6c792050657269706865727960901b60448201526064016107e0565b5f6115563061132c565b90505f81116115a75760405162461bcd60e51b815260206004820152601c60248201527f5368617265206d7573742062652067726561746572207468616e20300000000060448201526064016107e0565b5f6115b160025490565b90505f81116115f15760405162461bcd60e51b815260206004820152600c60248201526b4e6f206c697175696469747960a01b60448201526064016107e0565b6007545f9067ffffffffffffffff81111561160e5761160e612d4e565b604051908082528060200260200182016040528015611637578160200160208202803683370190505b5090505f612710611649601e86612d76565b6116539190612d8d565b90505f6116608286612dac565b90505f5b600754811015611736575f6007828154811061168257611682612d3a565b5f9182526020909120600290910201546040516370a0823160e01b81523060048201526001600160a01b03909116906370a0823190602401602060405180830381865afa1580156116d5573d5f803e3d5ffd5b505050506040513d601f19601f820116820180604052508101906116f99190612ddf565b9050856117068483612d76565b6117109190612d8d565b85838151811061172257611722612d3a565b602090810291909101015250600101611664565b50806117413061132c565b10156117885760405162461bcd60e51b8152602060048201526016602482015275496e73756666696369656e74206c697175696469747960501b60448201526064016107e0565b5f306001600160a01b031663a9059cbb60065f9054906101000a90046001600160a01b03166001600160a01b0316633b19e84a6040518163ffffffff1660e01b8152600401602060405180830381865afa1580156117e8573d5f803e3d5ffd5b505050506040513d601f19601f8201168201806040525081019061180c9190612f50565b6040516001600160e01b031960e084901b1681526001600160a01b039091166004820152602481018690526044016020604051808303815f875af1158015611856573d5f803e3d5ffd5b505050506040513d601f19601f8201168201806040525081019061187a9190612f31565b9050806118bf5760405162461bcd60e51b8152602060048201526013602482015272119959481d1c985b9cd9995c8819985a5b1959606a1b60448201526064016107e0565b816118c93061132c565b10156119105760405162461bcd60e51b8152602060048201526016602482015275496e73756666696369656e74206c697175696469747960501b60448201526064016107e0565b61191a3083612724565b5f5b600754811015611b265784818151811061193857611938612d3a565b60200260200101516007828154811061195357611953612d3a565b5f9182526020909120600290910201546040516370a0823160e01b81523060048201526001600160a01b03909116906370a0823190602401602060405180830381865afa1580156119a6573d5f803e3d5ffd5b505050506040513d601f19601f820116820180604052508101906119ca9190612ddf565b1015611a115760405162461bcd60e51b8152602060048201526016602482015275496e73756666696369656e74204c697175696469747960501b60448201526064016107e0565b5f60078281548110611a2557611a25612d3a565b5f91825260209091206002909102015486516001600160a01b039091169063a9059cbb908b90899086908110611a5d57611a5d612d3a565b60200260200101516040518363ffffffff1660e01b8152600401611a969291906001600160a01b03929092168252602082015260400190565b6020604051808303815f875af1158015611ab2573d5f803e3d5ffd5b505050506040513d601f19601f82011682018060405250810190611ad69190612f31565b905080611b1d5760405162461bcd60e51b8152602060048201526015602482015274105cdcd95d081d1c985b9cd9995c8819985a5b1959605a1b60448201526064016107e0565b5060010161191c565b50611b2f611c8a565b866001600160a01b03167fcc16f5dbb4873280815c1ee09dbd06736cffcc184412cf7a71a0fdb75d397ca583604051611b6a91815260200190565b60405180910390a250505050505050565b60606004805461045990612d08565b5f3361068c818585612207565b5f80611ba1611d4c565b91505080518310611bea5760405162461bcd60e51b8152602060048201526013602482015272092dcecc2d8d2c840c2e6e6cae840d2dcc8caf606b1b60448201526064016107e0565b808381518110611bfc57611bfc612d3a565b6020026020010151915050919050565b60078181548110611c1b575f80fd5b5f918252602090912060029091020180546001909101546001600160a01b03909116915082565b5f80611c4c611d4c565b5090505f611c5960025490565b9050805f03611c6a575f9250505090565b8060095483611c799190612d76565b611c839190612d8d565b9250505090565b5f5b600754811015611d49575f60078281548110611caa57611caa612d3a565b5f9182526020822060029190910201546040516370a0823160e01b81523060048201526001600160a01b03909116925082906370a0823190602401602060405180830381865afa158015611d00573d5f803e3d5ffd5b505050506040513d601f19601f82011682018060405250810190611d249190612ddf565b6001600160a01b039092165f908152600b602052604090209190915550600101611c8c565b50565b6007545f906060908067ffffffffffffffff811115611d6d57611d6d612d4e565b604051908082528060200260200182016040528015611d96578160200160208202803683370190505b5091505f5b81811015611e75575f60078281548110611db757611db7612d3a565b905f5260205f2090600202015f015f9054906101000a90046001600160a01b031690505f611e2382600b5f60078781548110611df557611df5612d3a565b5f91825260208083206002909202909101546001600160a01b0316835282019290925260400190205461245a565b905080858481518110611e3857611e38612d3a565b602002602001018181525050848381518110611e5657611e56612d3a565b602002602001015186611e699190612f1e565b95505050600101611d9b565b50509091565b60605f80611e87611346565b600754919350915067ffffffffffffffff811115611ea757611ea7612d4e565b604051908082528060200260200182016040528015611ed0578160200160208202803683370190505b5092505f5b600754811015611f88575f61271060078381548110611ef657611ef6612d3a565b905f5260205f2090600202016001015488611f119190612d76565b611f1b9190612d8d565b9050838281518110611f2f57611f2f612d3a565b6020026020010151611f7f57858281518110611f4d57611f4d612d3a565b602002602001015181611f609190612dac565b858381518110611f7257611f72612d3a565b6020026020010181815250505b50600101611ed5565b50505092915050565b5f805b60075481101561067957828181518110611fb057611fb0612d3a565b602002602001015182611fc39190612f1e565b9150600101611f94565b5f61200360078481548110611fe457611fe4612d3a565b5f9182526020909120600290910201546001600160a01b031683612758565b90505f81116120545760405162461bcd60e51b815260206004820152601b60248201527f496e76616c696420746f6b656e20616d6f756e7420746f20616464000000000060448201526064016107e0565b6007838154811061206757612067612d3a565b5f9182526020909120600290910201546040516323b872dd60e01b8152336004820152306024820152604481018390526001600160a01b03909116906323b872dd906064016020604051808303815f875af11580156120c8573d5f803e3d5ffd5b505050506040513d601f19601f820116820180604052508101906120ec9190612f31565b5080600b5f6007868154811061210457612104612d3a565b5f91825260208083206002909202909101546001600160a01b031683528201929092526040018120805490919061213c908490612f1e565b9091555050505050565b6001600160a01b03821661216f5760405163ec442f0560e01b81525f60048201526024016107e0565b610b295f8383612878565b612187838383600161299e565b505050565b6001600160a01b038381165f908152600160209081526040808320938616835292905220545f19811461220157818110156121f357604051637dc7a0d960e11b81526001600160a01b038416600482015260248101829052604481018390526064016107e0565b61220184848484035f61299e565b50505050565b6001600160a01b03831661223057604051634b637e8f60e11b81525f60048201526024016107e0565b6001600160a01b0382166122595760405163ec442f0560e01b81525f60048201526024016107e0565b612187838383612878565b6007545f9067ffffffffffffffff81111561228157612281612d4e565b6040519080825280602002602001820160405280156122aa578160200160208202803683370190505b506007549091505f9067ffffffffffffffff8111156122cb576122cb612d4e565b6040519080825280602002602001820160405280156122f4578160200160208202803683370190505b5090505f5b6007548110156123ae576007818154811061231657612316612d3a565b5f91825260209091206002909102015483516001600160a01b039091169084908390811061234657612346612d3a565b60200260200101906001600160a01b031690816001600160a01b0316815250506007818154811061237957612379612d3a565b905f5260205f2090600202016001015482828151811061239b5761239b612d3a565b60209081029190910101526001016122f9565b506006546008546040516384db1dfb60e01b81526001600160a01b03909216916384db1dfb916123e8918691869130918291600401612f6b565b5f604051808303815f87803b1580156123ff575f80fd5b505af1158015612411573d5f803e3d5ffd5b50505050336001600160a01b03167f279b343370f587af7fb675ae7c8578e9c8abcc373236ad02c501a4771fe7a7b88360405161244e9190612c09565b60405180910390a25050565b5f805f60065f9054906101000a90046001600160a01b03166001600160a01b031663956fb5106040518163ffffffff1660e01b8152600401602060405180830381865afa1580156124ad573d5f803e3d5ffd5b505050506040513d601f19601f820116820180604052508101906124d19190612f50565b90505f856001600160a01b031663313ce5676040518163ffffffff1660e01b8152600401602060405180830381865afa158015612510573d5f803e3d5ffd5b505050506040513d601f19601f820116820180604052508101906125349190612dbf565b90505f826001600160a01b031663313ce5676040518163ffffffff1660e01b8152600401602060405180830381865afa158015612573573d5f803e3d5ffd5b505050506040513d601f19601f820116820180604052508101906125979190612dbf565b6006546040516307de4fd160e41b81526001600160a01b038a811660048301525f6024830152929350911690637de4fd1090604401602060405180830381865afa925050508015612605575060408051601f3d908101601f1916820190925261260291810190612ddf565b60015b612615575f945050505050610692565b93505f8061262484600a612eef565b600954909150806126358389612d76565b61263f9190612d8d565b96508360ff168560ff16146126a5576126588585612a70565b6126628686612a8c565b61266c9190612df6565b61267a9060ff16600a612fb4565b92508360ff168560ff16111561269b57612694838a612d8d565b98506126d5565b612694838a612d76565b8460ff166012146126d5576126bb856012612df6565b6126c690600a612eef565b92506126d2838a612d76565b98505b6009546126e2888b612d76565b6126ec9190612d8d565b9a9950505050505050505050565b60026005540361271d57604051633ee5aeb560e01b815260040160405180910390fd5b6002600555565b6001600160a01b03821661274d57604051634b637e8f60e11b81525f60048201526024016107e0565b610b29825f83612878565b5f805f60065f9054906101000a90046001600160a01b03166001600160a01b031663956fb5106040518163ffffffff1660e01b8152600401602060405180830381865afa1580156127ab573d5f803e3d5ffd5b505050506040513d601f19601f820116820180604052508101906127cf9190612f50565b60065460405163802431fb60e01b81526001600160a01b03808416600483015288811660248301525f604483015292935091169063802431fb90606401602060405180830381865afa925050508015612845575060408051601f3d908101601f1916820190925261284291810190612ddf565b60015b612853575f92505050610692565b91506009545f906128648487612d76565b61286e9190612d8d565b9695505050505050565b6001600160a01b0383166128a2578060025f8282546128979190612f1e565b909155506129129050565b6001600160a01b0383165f90815260208190526040902054818110156128f45760405163391434e360e21b81526001600160a01b038516600482015260248101829052604481018390526064016107e0565b6001600160a01b0384165f9081526020819052604090209082900390555b6001600160a01b03821661292e5760028054829003905561294c565b6001600160a01b0382165f9081526020819052604090208054820190555b816001600160a01b0316836001600160a01b03167fddf252ad1be2c89b69c2b068fc378daa952ba7f163c4a11628f55a4df523b3ef8360405161299191815260200190565b60405180910390a3505050565b6001600160a01b0384166129c75760405163e602df0560e01b81525f60048201526024016107e0565b6001600160a01b0383166129f057604051634a1406b160e11b81525f60048201526024016107e0565b6001600160a01b038085165f908152600160209081526040808320938716835292905220829055801561220157826001600160a01b0316846001600160a01b03167f8c5be1e5ebec7d5bd14f71427d1e84f3dd0314c0f7b2291e5b200ac8c7c3b92584604051612a6291815260200190565b60405180910390a350505050565b5f8160ff168360ff161115612a855781610767565b5090919050565b5f8160ff168360ff161015612a855781610767565b602081525f82518060208401528060208501604085015e5f604082850101526040601f19601f83011684010191505092915050565b6001600160a01b0381168114611d49575f80fd5b5f60208284031215612afa575f80fd5b813561076781612ad6565b5f815180845260208085019450602084015f5b83811015612b3457815187529582019590820190600101612b18565b509495945050505050565b602081525f6107676020830184612b05565b5f8060408385031215612b62575f80fd5b8235612b6d81612ad6565b946020939093013593505050565b5f805f60608486031215612b8d575f80fd5b8335612b9881612ad6565b92506020840135612ba881612ad6565b929592945050506040919091013590565b828152604060208201525f6113246040830184612b05565b5f815180845260208085019450602084015f5b83811015612b345781516001600160a01b031687529582019590820190600101612be4565b602081525f6107676020830184612bd1565b5f805f8060808587031215612c2e575f80fd5b8435612c3981612ad6565b93506020850135612c4981612ad6565b9250604085013591506060850135612c6081612ad6565b939692955090935050565b604080825283519082018190525f906020906060840190828701845b82811015612ca5578151151584529284019290840190600101612c87565b505050838103602085015261286e8186612b05565b5f60208284031215612cca575f80fd5b5035919050565b5f8060408385031215612ce2575f80fd5b8235612ced81612ad6565b91506020830135612cfd81612ad6565b809150509250929050565b600181811c90821680612d1c57607f821691505b60208210810361067957634e487b7160e01b5f52602260045260245ffd5b634e487b7160e01b5f52603260045260245ffd5b634e487b7160e01b5f52604160045260245ffd5b634e487b7160e01b5f52601160045260245ffd5b808202811582820484141761069257610692612d62565b5f82612da757634e487b7160e01b5f52601260045260245ffd5b500490565b8181038181111561069257610692612d62565b5f60208284031215612dcf575f80fd5b815160ff81168114610767575f80fd5b5f60208284031215612def575f80fd5b5051919050565b60ff828116828216039081111561069257610692612d62565b600181815b80851115612e4957815f1904821115612e2f57612e2f612d62565b80851615612e3c57918102915b93841c9390800290612e14565b509250929050565b5f82612e5f57506001610692565b81612e6b57505f610692565b8160018114612e815760028114612e8b57612ea7565b6001915050610692565b60ff841115612e9c57612e9c612d62565b50506001821b610692565b5060208310610133831016604e8410600b8410161715612eca575081810a610692565b612ed48383612e0f565b805f1904821115612ee757612ee7612d62565b029392505050565b5f61076760ff841683612e51565b67ffffffffffffffff8281168282160390808211156106a2576106a2612d62565b8082018082111561069257610692612d62565b5f60208284031215612f41575f80fd5b81518015158114610767575f80fd5b5f60208284031215612f60575f80fd5b815161076781612ad6565b60a081525f612f7d60a0830188612bd1565b8281036020840152612f8f8188612b05565b6001600160a01b03968716604085015294909516606083015250608001529392505050565b5f6107678383612e5156fea26469706673582212201a75dd08aef2ef480885dc06d8879d43c419ee9491c7d4b16d7ab4f18261b1ae64736f6c63430008190033",
    "sourcePath": "c:/Users/Utente/Source/repos/baluni-contracts/contracts/BaluniV1Pool.sol",
    "compiler": {
        "name": "solc",
        "version": "0.8.25+commit.b61c2a91"
    },
    "functionHashes": {
        "ONE()": "c2ee3a08",
        "SWAP_FEE_BPS()": "67a6c440",
        "allowance(address,address)": "dd62ed3e",
        "approve(address,uint256)": "095ea7b3",
        "assetInfos(uint256)": "d14ef46d",
        "assetLiquidity(uint256)": "cf8fa764",
        "balanceOf(address)": "70a08231",
        "burn(address)": "89afcb44",
        "computeTotalValuation()": "36bf6e39",
        "decimals()": "313ce567",
        "getAmountOut(address,address,uint256)": "4aa06652",
        "getAssets()": "67e4ac2c",
        "getDeviation()": "89ab3532",
        "getReserves()": "0902f1ac",
        "getWeights()": "22acb867",
        "liquidity()": "1a686502",
        "mint(address)": "6a627842",
        "name()": "06fdde03",
        "performRebalanceIfNeeded(address)": "5568081a",
        "periphery()": "77aace1a",
        "rebalanceWeights(address)": "0723c999",
        "rebalancer()": "01d22ccd",
        "reserves(address)": "d66bd524",
        "swap(address,address,uint256,address)": "6e81221c",
        "symbol()": "95d89b41",
        "totalSupply()": "18160ddd",
        "transfer(address,uint256)": "a9059cbb",
        "transferFrom(address,address,uint256)": "23b872dd",
        "trigger()": "7fec8d38",
        "unitPrice()": "e73faa2d"
    },
    "gasEstimates": {
        "creation": {
            "codeDepositCost": "2455400",
            "executionCost": "infinite",
            "totalCost": "infinite"
        },
        "external": {
            "ONE()": "2383",
            "SWAP_FEE_BPS()": "283",
            "allowance(address,address)": "infinite",
            "approve(address,uint256)": "24774",
            "assetInfos(uint256)": "6814",
            "assetLiquidity(uint256)": "infinite",
            "balanceOf(address)": "2633",
            "burn(address)": "infinite",
            "computeTotalValuation()": "infinite",
            "decimals()": "266",
            "getAmountOut(address,address,uint256)": "infinite",
            "getAssets()": "infinite",
            "getDeviation()": "infinite",
            "getReserves()": "infinite",
            "getWeights()": "infinite",
            "liquidity()": "infinite",
            "mint(address)": "infinite",
            "name()": "infinite",
            "performRebalanceIfNeeded(address)": "infinite",
            "periphery()": "2370",
            "rebalanceWeights(address)": "infinite",
            "rebalancer()": "2372",
            "reserves(address)": "2576",
            "swap(address,address,uint256,address)": "infinite",
            "symbol()": "infinite",
            "totalSupply()": "2370",
            "transfer(address,uint256)": "51277",
            "transferFrom(address,address,uint256)": "infinite",
            "trigger()": "2361",
            "unitPrice()": "infinite"
        },
        "internal": {
            "_calculateAmountsToAdd(uint256,uint256[] memory)": "infinite",
            "_calculateTotalAddedLiquidity(uint256[] memory)": "infinite",
            "_computeTotalValuation()": "infinite",
            "_convertNativeToToken(address,uint256)": "infinite",
            "_convertTokenToNative(address,uint256)": "infinite",
            "_performRebalanceIfNeeded()": "infinite",
            "_transferAndCalculateLiquidity(uint256,uint256)": "infinite",
            "_updateReserves()": "infinite",
            "initializeAssets(address[] memory,uint256[] memory)": "infinite",
            "max(uint8,uint8)": "75",
            "min(uint8,uint8)": "75"
        }
    }
}