{
    "contractName": "BaluniV1AgentFactory",
    "abi": [
        {
            "inputs": [
                {
                    "internalType": "address",
                    "name": "target",
                    "type": "address"
                }
            ],
            "name": "AddressEmptyCode",
            "type": "error"
        },
        {
            "inputs": [
                {
                    "internalType": "address",
                    "name": "implementation",
                    "type": "address"
                }
            ],
            "name": "ERC1967InvalidImplementation",
            "type": "error"
        },
        {
            "inputs": [],
            "name": "ERC1967NonPayable",
            "type": "error"
        },
        {
            "inputs": [],
            "name": "FailedInnerCall",
            "type": "error"
        },
        {
            "inputs": [],
            "name": "InvalidInitialization",
            "type": "error"
        },
        {
            "inputs": [],
            "name": "NotInitializing",
            "type": "error"
        },
        {
            "inputs": [
                {
                    "internalType": "address",
                    "name": "owner",
                    "type": "address"
                }
            ],
            "name": "OwnableInvalidOwner",
            "type": "error"
        },
        {
            "inputs": [
                {
                    "internalType": "address",
                    "name": "account",
                    "type": "address"
                }
            ],
            "name": "OwnableUnauthorizedAccount",
            "type": "error"
        },
        {
            "inputs": [],
            "name": "UUPSUnauthorizedCallContext",
            "type": "error"
        },
        {
            "inputs": [
                {
                    "internalType": "bytes32",
                    "name": "slot",
                    "type": "bytes32"
                }
            ],
            "name": "UUPSUnsupportedProxiableUUID",
            "type": "error"
        },
        {
            "anonymous": false,
            "inputs": [
                {
                    "indexed": false,
                    "internalType": "address",
                    "name": "user",
                    "type": "address"
                },
                {
                    "indexed": false,
                    "internalType": "address",
                    "name": "agent",
                    "type": "address"
                }
            ],
            "name": "AgentCreated",
            "type": "event"
        },
        {
            "anonymous": false,
            "inputs": [
                {
                    "indexed": false,
                    "internalType": "uint64",
                    "name": "version",
                    "type": "uint64"
                }
            ],
            "name": "Initialized",
            "type": "event"
        },
        {
            "anonymous": false,
            "inputs": [
                {
                    "indexed": true,
                    "internalType": "address",
                    "name": "previousOwner",
                    "type": "address"
                },
                {
                    "indexed": true,
                    "internalType": "address",
                    "name": "newOwner",
                    "type": "address"
                }
            ],
            "name": "OwnershipTransferred",
            "type": "event"
        },
        {
            "anonymous": false,
            "inputs": [
                {
                    "indexed": true,
                    "internalType": "address",
                    "name": "implementation",
                    "type": "address"
                }
            ],
            "name": "Upgraded",
            "type": "event"
        },
        {
            "inputs": [],
            "name": "UPGRADE_INTERFACE_VERSION",
            "outputs": [
                {
                    "internalType": "string",
                    "name": "",
                    "type": "string"
                }
            ],
            "stateMutability": "view",
            "type": "function"
        },
        {
            "inputs": [],
            "name": "changeImplementation",
            "outputs": [],
            "stateMutability": "nonpayable",
            "type": "function"
        },
        {
            "inputs": [
                {
                    "internalType": "address",
                    "name": "user",
                    "type": "address"
                }
            ],
            "name": "getAgentAddress",
            "outputs": [
                {
                    "internalType": "address",
                    "name": "",
                    "type": "address"
                }
            ],
            "stateMutability": "view",
            "type": "function"
        },
        {
            "inputs": [
                {
                    "internalType": "address",
                    "name": "user",
                    "type": "address"
                }
            ],
            "name": "getOrCreateAgent",
            "outputs": [
                {
                    "internalType": "address",
                    "name": "",
                    "type": "address"
                }
            ],
            "stateMutability": "nonpayable",
            "type": "function"
        },
        {
            "inputs": [
                {
                    "internalType": "address",
                    "name": "_registry",
                    "type": "address"
                }
            ],
            "name": "initialize",
            "outputs": [],
            "stateMutability": "nonpayable",
            "type": "function"
        },
        {
            "inputs": [],
            "name": "owner",
            "outputs": [
                {
                    "internalType": "address",
                    "name": "",
                    "type": "address"
                }
            ],
            "stateMutability": "view",
            "type": "function"
        },
        {
            "inputs": [],
            "name": "proxiableUUID",
            "outputs": [
                {
                    "internalType": "bytes32",
                    "name": "",
                    "type": "bytes32"
                }
            ],
            "stateMutability": "view",
            "type": "function"
        },
        {
            "inputs": [],
            "name": "registry",
            "outputs": [
                {
                    "internalType": "contract IBaluniV1Registry",
                    "name": "",
                    "type": "address"
                }
            ],
            "stateMutability": "view",
            "type": "function"
        },
        {
            "inputs": [
                {
                    "internalType": "address",
                    "name": "_registry",
                    "type": "address"
                },
                {
                    "internalType": "uint64",
                    "name": "version",
                    "type": "uint64"
                }
            ],
            "name": "reinitialize",
            "outputs": [],
            "stateMutability": "nonpayable",
            "type": "function"
        },
        {
            "inputs": [],
            "name": "renounceOwnership",
            "outputs": [],
            "stateMutability": "nonpayable",
            "type": "function"
        },
        {
            "inputs": [
                {
                    "internalType": "address",
                    "name": "newOwner",
                    "type": "address"
                }
            ],
            "name": "transferOwnership",
            "outputs": [],
            "stateMutability": "nonpayable",
            "type": "function"
        },
        {
            "inputs": [
                {
                    "internalType": "address",
                    "name": "newImplementation",
                    "type": "address"
                },
                {
                    "internalType": "bytes",
                    "name": "data",
                    "type": "bytes"
                }
            ],
            "name": "upgradeToAndCall",
            "outputs": [],
            "stateMutability": "payable",
            "type": "function"
        },
        {
            "inputs": [
                {
                    "internalType": "address",
                    "name": "",
                    "type": "address"
                }
            ],
            "name": "userAgents",
            "outputs": [
                {
                    "internalType": "contract BaluniV1Agent",
                    "name": "",
                    "type": "address"
                }
            ],
            "stateMutability": "view",
            "type": "function"
        }
    ],
    "bytecode": "60a0604052306080523480156012575f80fd5b50608051611dc66100395f395f81816108630152818161088c01526109d00152611dc65ff3fe6080604052600436106100bf575f3560e01c80637b1039991161007c5780639b76a5cd116100575780639b76a5cd14610224578063ad3cb1cc14610243578063c4d66de814610280578063f2fde38b1461029f575f80fd5b80637b103999146101aa5780638da5cb5b146101c95780638f2248bc14610205575f80fd5b806327d54a92146100c35780634f1ef2861461011757806352d1902d1461012c5780636c6be5f31461014e578063715018a6146101625780637811a78514610176575b5f80fd5b3480156100ce575f80fd5b506100fa6100dd366004610ed0565b6001600160a01b039081165f908152600160205260409020541690565b6040516001600160a01b0390911681526020015b60405180910390f35b61012a610125366004610eff565b6102be565b005b348015610137575f80fd5b506101406102dd565b60405190815260200161010e565b348015610159575f80fd5b5061012a6102f8565b34801561016d575f80fd5b5061012a61035a565b348015610181575f80fd5b506100fa610190366004610ed0565b60016020525f90815260409020546001600160a01b031681565b3480156101b5575f80fd5b506002546100fa906001600160a01b031681565b3480156101d4575f80fd5b507f9016d09d72d40fdae2fd8ceac6b6234c7706214fd39c1cd1e609a0528c199300546001600160a01b03166100fa565b348015610210575f80fd5b5061012a61021f366004610fbd565b61036d565b34801561022f575f80fd5b506100fa61023e366004610ed0565b6104ca565b34801561024e575f80fd5b50610273604051806040016040528060058152602001640352e302e360dc1b81525081565b60405161010e9190611000565b34801561028b575f80fd5b5061012a61029a366004610ed0565b610690565b3480156102aa575f80fd5b5061012a6102b9366004610ed0565b61081b565b6102c6610858565b6102cf826108fc565b6102d98282610904565b5050565b5f6102e66109c5565b505f80516020611d7183398151915290565b610300610a0e565b5f3060405161030e90610eaf565b6001600160a01b039091168152602001604051809103905ff080158015610337573d5f803e3d5ffd5b505f80546001600160a01b0319166001600160a01b039290921691909117905550565b610362610a0e565b61036b5f610a69565b565b7ff0c57e16840df040f15088dc2f81fe391c3923bec73e23a9662efc9c229c6a008054829190600160401b900460ff16806103b65750805467ffffffffffffffff808416911610155b156103d45760405163f92ee8a960e01b815260040160405180910390fd5b805468ffffffffffffffffff191667ffffffffffffffff831617600160401b1781556103ff33610ad9565b610407610aea565b600280546001600160a01b0319166001600160a01b0386161790556040515f90309061043290610eaf565b6001600160a01b039091168152602001604051809103905ff08015801561045b573d5f803e3d5ffd5b505f80546001600160a01b0319166001600160a01b039290921691909117905550805460ff60401b1916815560405167ffffffffffffffff831681527fc7f505b2f371ae2175ee4913f4499e1f2633a7b5936321eed1cdaeb6115181d29060200160405180910390a150505050565b5f306105155760405162461bcd60e51b81526020600482015260156024820152741059d95b9d08199858dd1bdc9e481b9bdd081cd95d605a1b60448201526064015b60405180910390fd5b6040516bffffffffffffffffffffffff19606084901b1660208201525f9060340160408051601f1981840301815291815281516020928301206001600160a01b038681165f9081526001909452919092205491925016158061059557506001600160a01b038381165f90815260016020526040902054163b63ffffffff16155b15610671575f6105a58285610af2565b9050803b63ffffffff166106095760405162461bcd60e51b815260206004820152602560248201527f4167656e74206372656174696f6e206661696c65642c206e6f74206120636f6e6044820152641d1c9858dd60da1b606482015260840161050c565b6001600160a01b038481165f8181526001602090815260409182902080546001600160a01b031916948616948517905581519283528201929092527f8c6e353968e7ffd60dba22ff7d2a4354af301f9d41858a35668e7292ec1301b6910160405180910390a1505b50506001600160a01b039081165f908152600160205260409020541690565b7ff0c57e16840df040f15088dc2f81fe391c3923bec73e23a9662efc9c229c6a008054600160401b810460ff16159067ffffffffffffffff165f811580156106d55750825b90505f8267ffffffffffffffff1660011480156106f15750303b155b9050811580156106ff575080155b1561071d5760405163f92ee8a960e01b815260040160405180910390fd5b845467ffffffffffffffff19166001178555831561074757845460ff60401b1916600160401b1785555b61075033610ad9565b610758610aea565b600280546001600160a01b0319166001600160a01b0388161790556040515f90309061078390610eaf565b6001600160a01b039091168152602001604051809103905ff0801580156107ac573d5f803e3d5ffd5b505f80546001600160a01b0319166001600160a01b039290921691909117905550831561081357845460ff60401b19168555604051600181527fc7f505b2f371ae2175ee4913f4499e1f2633a7b5936321eed1cdaeb6115181d29060200160405180910390a15b505050505050565b610823610a0e565b6001600160a01b03811661084c57604051631e4fbdf760e01b81525f600482015260240161050c565b61085581610a69565b50565b306001600160a01b037f00000000000000000000000000000000000000000000000000000000000000001614806108de57507f00000000000000000000000000000000000000000000000000000000000000006001600160a01b03166108d25f80516020611d71833981519152546001600160a01b031690565b6001600160a01b031614155b1561036b5760405163703e46dd60e11b815260040160405180910390fd5b610855610a0e565b816001600160a01b03166352d1902d6040518163ffffffff1660e01b8152600401602060405180830381865afa92505050801561095e575060408051601f3d908101601f1916820190925261095b91810190611035565b60015b61098657604051634c9c8ce360e01b81526001600160a01b038316600482015260240161050c565b5f80516020611d7183398151915281146109b657604051632a87526960e21b81526004810182905260240161050c565b6109c08383610bef565b505050565b306001600160a01b037f0000000000000000000000000000000000000000000000000000000000000000161461036b5760405163703e46dd60e11b815260040160405180910390fd5b33610a407f9016d09d72d40fdae2fd8ceac6b6234c7706214fd39c1cd1e609a0528c199300546001600160a01b031690565b6001600160a01b03161461036b5760405163118cdaa760e01b815233600482015260240161050c565b7f9016d09d72d40fdae2fd8ceac6b6234c7706214fd39c1cd1e609a0528c19930080546001600160a01b031981166001600160a01b03848116918217845560405192169182907f8be0079c531659141344cd1fd0a4f28419497f9722a3daafe3b4186f6b6457e0905f90a3505050565b610ae1610c44565b61085581610c8d565b61036b610c44565b5f8060025f9054906101000a90046001600160a01b03166001600160a01b03166304cc73256040518163ffffffff1660e01b8152600401602060405180830381865afa158015610b44573d5f803e3d5ffd5b505050506040513d601f19601f82011682018060405250810190610b68919061104c565b5f805491925090610b82906001600160a01b031686610c95565b60405163485cc95560e01b81526001600160a01b03868116600483015284811660248301529192509082169063485cc955906044015f604051808303815f87803b158015610bce575f80fd5b505af1158015610be0573d5f803e3d5ffd5b50929450505050505b92915050565b610bf882610d33565b6040516001600160a01b038316907fbc7cd75a20ee27fd9adebab32041f755214dbc6bffa90cc0225b39da2e5c2d3b905f90a2805115610c3c576109c08282610d96565b6102d9610e08565b7ff0c57e16840df040f15088dc2f81fe391c3923bec73e23a9662efc9c229c6a0054600160401b900460ff1661036b57604051631afcd79f60e31b815260040160405180910390fd5b610823610c44565b5f604051733d602d80600a3d3981f3363d3d373d3d3d363d7360601b81528360601b60148201526e5af43d82803e903d91602b57fd5bf360881b6028820152826037825ff59150506001600160a01b038116610be95760405162461bcd60e51b815260206004820152601760248201527f455243313136373a2063726561746532206661696c6564000000000000000000604482015260640161050c565b806001600160a01b03163b5f03610d6857604051634c9c8ce360e01b81526001600160a01b038216600482015260240161050c565b5f80516020611d7183398151915280546001600160a01b0319166001600160a01b0392909216919091179055565b60605f80846001600160a01b031684604051610db29190611067565b5f60405180830381855af49150503d805f8114610dea576040519150601f19603f3d011682016040523d82523d5f602084013e610def565b606091505b5091509150610dff858383610e27565b95945050505050565b341561036b5760405163b398979f60e01b815260040160405180910390fd5b606082610e3c57610e3782610e86565b610e7f565b8151158015610e5357506001600160a01b0384163b155b15610e7c57604051639996b31560e01b81526001600160a01b038516600482015260240161050c565b50805b9392505050565b805115610e965780518082602001fd5b604051630a12f52160e11b815260040160405180910390fd5b610cf38061107e83390190565b6001600160a01b0381168114610855575f80fd5b5f60208284031215610ee0575f80fd5b8135610e7f81610ebc565b634e487b7160e01b5f52604160045260245ffd5b5f8060408385031215610f10575f80fd5b8235610f1b81610ebc565b9150602083013567ffffffffffffffff80821115610f37575f80fd5b818501915085601f830112610f4a575f80fd5b813581811115610f5c57610f5c610eeb565b604051601f8201601f19908116603f01168101908382118183101715610f8457610f84610eeb565b81604052828152886020848701011115610f9c575f80fd5b826020860160208301375f6020848301015280955050505050509250929050565b5f8060408385031215610fce575f80fd5b8235610fd981610ebc565b9150602083013567ffffffffffffffff81168114610ff5575f80fd5b809150509250929050565b602081525f82518060208401528060208501604085015e5f604082850101526040601f19601f83011684010191505092915050565b5f60208284031215611045575f80fd5b5051919050565b5f6020828403121561105c575f80fd5b8151610e7f81610ebc565b5f82518060208501845e5f92019182525091905056fe6080604052348015600e575f80fd5b50604051610cf3380380610cf3833981016040819052602b91604f565b600180546001600160a01b0319166001600160a01b0392909216919091179055607a565b5f60208284031215605e575f80fd5b81516001600160a01b03811681146073575f80fd5b9392505050565b610c6c806100875f395ff3fe608060405234801561000f575f80fd5b5060043610610060575f3560e01c8063485cc955146100645780637b1039991461007957806388cc58e4146100a85780638da5cb5b146100b9578063b0f479a1146100cb578063eedc3c50146100d3575b5f80fd5b6100776100723660046108c3565b6100e6565b005b60025461008c906001600160a01b031681565b6040516001600160a01b03909116815260200160405180910390f35b6001546001600160a01b031661008c565b5f5461008c906001600160a01b031681565b61008c610170565b6100776100e1366004610a00565b6101e0565b5f546001600160a01b0316156101395760405162461bcd60e51b8152602060048201526013602482015272105b1c9958591e481a5b9a5d1a585b1a5e9959606a1b60448201526064015b60405180910390fd5b5f80546001600160a01b039384166001600160a01b0319918216179091556001805482163317905560028054929093169116179055565b600254604080516304cc732560e01b815290515f926001600160a01b0316916304cc73259160048083019260209291908290030181865afa1580156101b7573d5f803e3d5ffd5b505050506040513d601f19601f820116820180604052508101906101db9190610b6c565b905090565b600254604080516304cc732560e01b815290515f926001600160a01b0316916304cc73259160048083019260209291908290030181865afa158015610227573d5f803e3d5ffd5b505050506040513d601f19601f8201168201806040525081019061024b9190610b6c565b9050336001600160a01b038216146102a55760405162461bcd60e51b815260206004820152601b60248201527f43616c6c61626c65206f6e6c792062792074686520726f7574657200000000006044820152606401610130565b5f5b83518110156103ad575f8482815181106102c3576102c3610b8e565b60200260200101515f01516001600160a01b03168583815181106102e9576102e9610b8e565b60200260200101516020015186848151811061030757610307610b8e565b6020026020010151604001516040516103209190610ba2565b5f6040518083038185875af1925050503d805f811461035a576040519150601f19603f3d011682016040523d82523d5f602084013e61035f565b606091505b50509050806103a45760405162461bcd60e51b815260206004820152601160248201527010985d18da0818d85b1b0819985a5b1959607a1b6044820152606401610130565b506001016102a7565b506103b7826103c5565b6103c082610624565b505050565b600254604080516304cc732560e01b815290515f926001600160a01b0316916304cc73259160048083019260209291908290030181865afa15801561040c573d5f803e3d5ffd5b505050506040513d601f19601f820116820180604052508101906104309190610b6c565b90505f80826001600160a01b031663b9f5e6176040518163ffffffff1660e01b8152600401602060405180830381865afa158015610470573d5f803e3d5ffd5b505050506040513d601f19601f820116820180604052508101906104949190610bb8565b90505f5b845181101561061d575f8582815181106104b4576104b4610b8e565b6020026020010151905073eeeeeeeeeeeeeeeeeeeeeeeeeeeeeeeeeeeeeeee6001600160a01b0316816001600160a01b03160361051c576127106104f88447610bcf565b6105029190610bf8565b93506105176001600160a01b03861685610797565b610614565b6040516370a0823160e01b81523060048201525f906001600160a01b038316906370a0823190602401602060405180830381865afa158015610560573d5f803e3d5ffd5b505050506040513d601f19601f820116820180604052508101906105849190610bb8565b90506127106105938583610bcf565b61059d9190610bf8565b60405163a9059cbb60e01b81526001600160a01b038881166004830152602482018390529196509083169063a9059cbb906044016020604051808303815f875af11580156105ed573d5f803e3d5ffd5b505050506040513d601f19601f820116820180604052508101906106119190610c17565b50505b50600101610498565b5050505050565b80518015610793575f5b818110156103c0575f83828151811061064957610649610b8e565b6020026020010151905073eeeeeeeeeeeeeeeeeeeeeeeeeeeeeeeeeeeeeeee6001600160a01b0316816001600160a01b0316036106a057471561069b575f5461069b906001600160a01b031647610797565b61078a565b6040516370a0823160e01b81523060048201525f906001600160a01b038316906370a0823190602401602060405180830381865afa1580156106e4573d5f803e3d5ffd5b505050506040513d601f19601f820116820180604052508101906107089190610bb8565b9050600a811115610788575f5460405163a9059cbb60e01b81526001600160a01b039182166004820152602481018390529083169063a9059cbb906044016020604051808303815f875af1158015610762573d5f803e3d5ffd5b505050506040513d601f19601f820116820180604052508101906107869190610c17565b505b505b5060010161062e565b5050565b804710156107e75760405162461bcd60e51b815260206004820152601d60248201527f416464726573733a20696e73756666696369656e742062616c616e63650000006044820152606401610130565b5f826001600160a01b0316826040515f6040518083038185875af1925050503d805f8114610830576040519150601f19603f3d011682016040523d82523d5f602084013e610835565b606091505b50509050806103c05760405162461bcd60e51b815260206004820152603a60248201527f416464726573733a20756e61626c6520746f2073656e642076616c75652c207260448201527f6563697069656e74206d617920686176652072657665727465640000000000006064820152608401610130565b6001600160a01b03811681146108c0575f80fd5b50565b5f80604083850312156108d4575f80fd5b82356108df816108ac565b915060208301356108ef816108ac565b809150509250929050565b634e487b7160e01b5f52604160045260245ffd5b6040516060810167ffffffffffffffff81118282101715610931576109316108fa565b60405290565b604051601f8201601f1916810167ffffffffffffffff81118282101715610960576109606108fa565b604052919050565b5f67ffffffffffffffff821115610981576109816108fa565b5060051b60200190565b5f82601f83011261099a575f80fd5b813560206109af6109aa83610968565b610937565b8083825260208201915060208460051b8701019350868411156109d0575f80fd5b602086015b848110156109f55780356109e8816108ac565b83529183019183016109d5565b509695505050505050565b5f8060408385031215610a11575f80fd5b823567ffffffffffffffff80821115610a28575f80fd5b818501915085601f830112610a3b575f80fd5b81356020610a4b6109aa83610968565b82815260059290921b84018101918181019089841115610a69575f80fd5b8286015b84811015610b3f57803586811115610a83575f80fd5b8701601f196060828e0382011215610a99575f80fd5b610aa161090e565b86830135610aae816108ac565b8152604083013587820152606083013589811115610aca575f80fd5b8084019350508d603f840112610ade575f80fd5b8683013589811115610af257610af26108fa565b610b028884601f84011601610937565b92508083528e888983870101011115610b19575f80fd5b8060408501898501375f9083018801526040810191909152845250918301918301610a6d565b5096505086013592505080821115610b55575f80fd5b50610b628582860161098b565b9150509250929050565b5f60208284031215610b7c575f80fd5b8151610b87816108ac565b9392505050565b634e487b7160e01b5f52603260045260245ffd5b5f82518060208501845e5f920191825250919050565b5f60208284031215610bc8575f80fd5b5051919050565b8082028115828204841417610bf257634e487b7160e01b5f52601160045260245ffd5b92915050565b5f82610c1257634e487b7160e01b5f52601260045260245ffd5b500490565b5f60208284031215610c27575f80fd5b81518015158114610b87575f80fdfea26469706673582212204ef9dc33b46896eb713131595fc63cc818394cd936b901fc5dee3501a6f69b6c64736f6c63430008190033360894a13ba1a3210667c828492db98dca3e2076cc3735a920a3ca505d382bbca2646970667358221220a3889712273fea4361e3c72710c6cba30b6b5ce5f70d7d1d62e74abf3792df2364736f6c63430008190033",
    "sourcePath": "c:/Users/Utente/Source/repos/baluni-contracts/contracts/BaluniV1AgentFactory.sol",
    "compiler": {
        "name": "solc",
        "version": "0.8.25+commit.b61c2a91"
    },
    "functionHashes": {
        "UPGRADE_INTERFACE_VERSION()": "ad3cb1cc",
        "changeImplementation()": "6c6be5f3",
        "getAgentAddress(address)": "27d54a92",
        "getOrCreateAgent(address)": "9b76a5cd",
        "initialize(address)": "c4d66de8",
        "owner()": "8da5cb5b",
        "proxiableUUID()": "52d1902d",
        "registry()": "7b103999",
        "reinitialize(address,uint64)": "8f2248bc",
        "renounceOwnership()": "715018a6",
        "transferOwnership(address)": "f2fde38b",
        "upgradeToAndCall(address,bytes)": "4f1ef286",
        "userAgents(address)": "7811a785"
    },
    "gasEstimates": {
        "creation": {
            "codeDepositCost": "1524400",
            "executionCost": "infinite",
            "totalCost": "infinite"
        },
        "external": {
            "UPGRADE_INTERFACE_VERSION()": "infinite",
            "changeImplementation()": "infinite",
            "getAgentAddress(address)": "2548",
            "getOrCreateAgent(address)": "infinite",
            "initialize(address)": "infinite",
            "owner()": "2364",
            "proxiableUUID()": "infinite",
            "registry()": "2348",
            "reinitialize(address,uint64)": "infinite",
            "renounceOwnership()": "infinite",
            "transferOwnership(address)": "infinite",
            "upgradeToAndCall(address,bytes)": "infinite",
            "userAgents(address)": "2649"
        },
        "internal": {
            "_authorizeUpgrade(address)": "infinite",
            "_createAgent(bytes32,address)": "infinite",
            "isContract(address)": "infinite"
        }
    }
}