{
    "contractName": "BaluniV1Pool",
    "abi": [
        {
            "inputs": [
                {
                    "internalType": "address",
                    "name": "_rebalancer",
                    "type": "address"
                },
                {
                    "internalType": "address[]",
                    "name": "_assets",
                    "type": "address[]"
                },
                {
                    "internalType": "uint256[]",
                    "name": "_weights",
                    "type": "uint256[]"
                },
                {
                    "internalType": "uint256",
                    "name": "_trigger",
                    "type": "uint256"
                },
                {
                    "internalType": "address",
                    "name": "_periphery",
                    "type": "address"
                }
            ],
            "stateMutability": "nonpayable",
            "type": "constructor"
        },
        {
            "inputs": [
                {
                    "internalType": "address",
                    "name": "spender",
                    "type": "address"
                },
                {
                    "internalType": "uint256",
                    "name": "allowance",
                    "type": "uint256"
                },
                {
                    "internalType": "uint256",
                    "name": "needed",
                    "type": "uint256"
                }
            ],
            "name": "ERC20InsufficientAllowance",
            "type": "error"
        },
        {
            "inputs": [
                {
                    "internalType": "address",
                    "name": "sender",
                    "type": "address"
                },
                {
                    "internalType": "uint256",
                    "name": "balance",
                    "type": "uint256"
                },
                {
                    "internalType": "uint256",
                    "name": "needed",
                    "type": "uint256"
                }
            ],
            "name": "ERC20InsufficientBalance",
            "type": "error"
        },
        {
            "inputs": [
                {
                    "internalType": "address",
                    "name": "approver",
                    "type": "address"
                }
            ],
            "name": "ERC20InvalidApprover",
            "type": "error"
        },
        {
            "inputs": [
                {
                    "internalType": "address",
                    "name": "receiver",
                    "type": "address"
                }
            ],
            "name": "ERC20InvalidReceiver",
            "type": "error"
        },
        {
            "inputs": [
                {
                    "internalType": "address",
                    "name": "sender",
                    "type": "address"
                }
            ],
            "name": "ERC20InvalidSender",
            "type": "error"
        },
        {
            "inputs": [
                {
                    "internalType": "address",
                    "name": "spender",
                    "type": "address"
                }
            ],
            "name": "ERC20InvalidSpender",
            "type": "error"
        },
        {
            "inputs": [],
            "name": "ReentrancyGuardReentrantCall",
            "type": "error"
        },
        {
            "anonymous": false,
            "inputs": [
                {
                    "indexed": true,
                    "internalType": "address",
                    "name": "owner",
                    "type": "address"
                },
                {
                    "indexed": true,
                    "internalType": "address",
                    "name": "spender",
                    "type": "address"
                },
                {
                    "indexed": false,
                    "internalType": "uint256",
                    "name": "value",
                    "type": "uint256"
                }
            ],
            "name": "Approval",
            "type": "event"
        },
        {
            "anonymous": false,
            "inputs": [
                {
                    "indexed": true,
                    "internalType": "address",
                    "name": "user",
                    "type": "address"
                },
                {
                    "indexed": false,
                    "internalType": "uint256",
                    "name": "sharesBurned",
                    "type": "uint256"
                }
            ],
            "name": "Burn",
            "type": "event"
        },
        {
            "anonymous": false,
            "inputs": [
                {
                    "indexed": true,
                    "internalType": "address",
                    "name": "to",
                    "type": "address"
                },
                {
                    "indexed": false,
                    "internalType": "uint256",
                    "name": "sharesMinted",
                    "type": "uint256"
                }
            ],
            "name": "Mint",
            "type": "event"
        },
        {
            "anonymous": false,
            "inputs": [
                {
                    "indexed": true,
                    "internalType": "address",
                    "name": "by",
                    "type": "address"
                },
                {
                    "indexed": false,
                    "internalType": "address[]",
                    "name": "assets",
                    "type": "address[]"
                }
            ],
            "name": "RebalancePerformed",
            "type": "event"
        },
        {
            "anonymous": false,
            "inputs": [
                {
                    "indexed": true,
                    "internalType": "address",
                    "name": "user",
                    "type": "address"
                },
                {
                    "indexed": true,
                    "internalType": "address",
                    "name": "fromToken",
                    "type": "address"
                },
                {
                    "indexed": true,
                    "internalType": "address",
                    "name": "toToken",
                    "type": "address"
                },
                {
                    "indexed": false,
                    "internalType": "uint256",
                    "name": "amountIn",
                    "type": "uint256"
                },
                {
                    "indexed": false,
                    "internalType": "uint256",
                    "name": "amountOut",
                    "type": "uint256"
                }
            ],
            "name": "Swap",
            "type": "event"
        },
        {
            "anonymous": false,
            "inputs": [
                {
                    "indexed": true,
                    "internalType": "address",
                    "name": "from",
                    "type": "address"
                },
                {
                    "indexed": true,
                    "internalType": "address",
                    "name": "to",
                    "type": "address"
                },
                {
                    "indexed": false,
                    "internalType": "uint256",
                    "name": "value",
                    "type": "uint256"
                }
            ],
            "name": "Transfer",
            "type": "event"
        },
        {
            "anonymous": false,
            "inputs": [
                {
                    "indexed": true,
                    "internalType": "address",
                    "name": "user",
                    "type": "address"
                },
                {
                    "indexed": false,
                    "internalType": "uint256[]",
                    "name": "amountsAdded",
                    "type": "uint256[]"
                }
            ],
            "name": "WeightsRebalanced",
            "type": "event"
        },
        {
            "inputs": [],
            "name": "ONE",
            "outputs": [
                {
                    "internalType": "uint256",
                    "name": "",
                    "type": "uint256"
                }
            ],
            "stateMutability": "view",
            "type": "function"
        },
        {
            "inputs": [],
            "name": "SWAP_FEE_BPS",
            "outputs": [
                {
                    "internalType": "uint256",
                    "name": "",
                    "type": "uint256"
                }
            ],
            "stateMutability": "view",
            "type": "function"
        },
        {
            "inputs": [
                {
                    "internalType": "address",
                    "name": "owner",
                    "type": "address"
                },
                {
                    "internalType": "address",
                    "name": "spender",
                    "type": "address"
                }
            ],
            "name": "allowance",
            "outputs": [
                {
                    "internalType": "uint256",
                    "name": "",
                    "type": "uint256"
                }
            ],
            "stateMutability": "view",
            "type": "function"
        },
        {
            "inputs": [
                {
                    "internalType": "address",
                    "name": "spender",
                    "type": "address"
                },
                {
                    "internalType": "uint256",
                    "name": "value",
                    "type": "uint256"
                }
            ],
            "name": "approve",
            "outputs": [
                {
                    "internalType": "bool",
                    "name": "",
                    "type": "bool"
                }
            ],
            "stateMutability": "nonpayable",
            "type": "function"
        },
        {
            "inputs": [
                {
                    "internalType": "uint256",
                    "name": "",
                    "type": "uint256"
                }
            ],
            "name": "assetInfos",
            "outputs": [
                {
                    "internalType": "address",
                    "name": "asset",
                    "type": "address"
                },
                {
                    "internalType": "uint256",
                    "name": "weight",
                    "type": "uint256"
                }
            ],
            "stateMutability": "view",
            "type": "function"
        },
        {
            "inputs": [
                {
                    "internalType": "uint256",
                    "name": "assetIndex",
                    "type": "uint256"
                }
            ],
            "name": "assetLiquidity",
            "outputs": [
                {
                    "internalType": "uint256",
                    "name": "",
                    "type": "uint256"
                }
            ],
            "stateMutability": "view",
            "type": "function"
        },
        {
            "inputs": [
                {
                    "internalType": "address",
                    "name": "account",
                    "type": "address"
                }
            ],
            "name": "balanceOf",
            "outputs": [
                {
                    "internalType": "uint256",
                    "name": "",
                    "type": "uint256"
                }
            ],
            "stateMutability": "view",
            "type": "function"
        },
        {
            "inputs": [],
            "name": "baseAsset",
            "outputs": [
                {
                    "internalType": "address",
                    "name": "",
                    "type": "address"
                }
            ],
            "stateMutability": "view",
            "type": "function"
        },
        {
            "inputs": [
                {
                    "internalType": "address",
                    "name": "to",
                    "type": "address"
                }
            ],
            "name": "burn",
            "outputs": [],
            "stateMutability": "nonpayable",
            "type": "function"
        },
        {
            "inputs": [],
            "name": "computeTotalValuation",
            "outputs": [
                {
                    "internalType": "uint256",
                    "name": "totalVal",
                    "type": "uint256"
                },
                {
                    "internalType": "uint256[]",
                    "name": "valuations",
                    "type": "uint256[]"
                }
            ],
            "stateMutability": "view",
            "type": "function"
        },
        {
            "inputs": [],
            "name": "decimals",
            "outputs": [
                {
                    "internalType": "uint8",
                    "name": "",
                    "type": "uint8"
                }
            ],
            "stateMutability": "view",
            "type": "function"
        },
        {
            "inputs": [
                {
                    "internalType": "uint256[]",
                    "name": "amounts",
                    "type": "uint256[]"
                }
            ],
            "name": "decreaseReserves",
            "outputs": [],
            "stateMutability": "nonpayable",
            "type": "function"
        },
        {
            "inputs": [
                {
                    "internalType": "address",
                    "name": "fromToken",
                    "type": "address"
                },
                {
                    "internalType": "address",
                    "name": "toToken",
                    "type": "address"
                },
                {
                    "internalType": "uint256",
                    "name": "amount",
                    "type": "uint256"
                }
            ],
            "name": "getAmountOut",
            "outputs": [
                {
                    "internalType": "uint256",
                    "name": "",
                    "type": "uint256"
                }
            ],
            "stateMutability": "view",
            "type": "function"
        },
        {
            "inputs": [
                {
                    "internalType": "address",
                    "name": "asset",
                    "type": "address"
                }
            ],
            "name": "getAssetReserve",
            "outputs": [
                {
                    "internalType": "uint256",
                    "name": "",
                    "type": "uint256"
                }
            ],
            "stateMutability": "view",
            "type": "function"
        },
        {
            "inputs": [],
            "name": "getAssets",
            "outputs": [
                {
                    "internalType": "address[]",
                    "name": "",
                    "type": "address[]"
                }
            ],
            "stateMutability": "view",
            "type": "function"
        },
        {
            "inputs": [],
            "name": "getDeviation",
            "outputs": [
                {
                    "internalType": "bool[]",
                    "name": "directions",
                    "type": "bool[]"
                },
                {
                    "internalType": "uint256[]",
                    "name": "deviations",
                    "type": "uint256[]"
                }
            ],
            "stateMutability": "view",
            "type": "function"
        },
        {
            "inputs": [],
            "name": "getReserves",
            "outputs": [
                {
                    "internalType": "uint256[]",
                    "name": "",
                    "type": "uint256[]"
                }
            ],
            "stateMutability": "view",
            "type": "function"
        },
        {
            "inputs": [],
            "name": "getWeights",
            "outputs": [
                {
                    "internalType": "uint256[]",
                    "name": "",
                    "type": "uint256[]"
                }
            ],
            "stateMutability": "view",
            "type": "function"
        },
        {
            "inputs": [],
            "name": "isRebalanceNeeded",
            "outputs": [
                {
                    "internalType": "bool",
                    "name": "",
                    "type": "bool"
                }
            ],
            "stateMutability": "view",
            "type": "function"
        },
        {
            "inputs": [],
            "name": "liquidity",
            "outputs": [
                {
                    "internalType": "uint256",
                    "name": "",
                    "type": "uint256"
                }
            ],
            "stateMutability": "view",
            "type": "function"
        },
        {
            "inputs": [
                {
                    "internalType": "address",
                    "name": "to",
                    "type": "address"
                },
                {
                    "internalType": "uint256[]",
                    "name": "amounts",
                    "type": "uint256[]"
                }
            ],
            "name": "mint",
            "outputs": [
                {
                    "internalType": "uint256",
                    "name": "",
                    "type": "uint256"
                }
            ],
            "stateMutability": "nonpayable",
            "type": "function"
        },
        {
            "inputs": [],
            "name": "name",
            "outputs": [
                {
                    "internalType": "string",
                    "name": "",
                    "type": "string"
                }
            ],
            "stateMutability": "view",
            "type": "function"
        },
        {
            "inputs": [
                {
                    "internalType": "address",
                    "name": "_sender",
                    "type": "address"
                }
            ],
            "name": "performRebalanceIfNeeded",
            "outputs": [],
            "stateMutability": "nonpayable",
            "type": "function"
        },
        {
            "inputs": [],
            "name": "periphery",
            "outputs": [
                {
                    "internalType": "address",
                    "name": "",
                    "type": "address"
                }
            ],
            "stateMutability": "view",
            "type": "function"
        },
        {
            "inputs": [
                {
                    "internalType": "address",
                    "name": "receiver",
                    "type": "address"
                }
            ],
            "name": "rebalanceWeights",
            "outputs": [],
            "stateMutability": "nonpayable",
            "type": "function"
        },
        {
            "inputs": [],
            "name": "rebalancer",
            "outputs": [
                {
                    "internalType": "contract IBaluniV1Rebalancer",
                    "name": "",
                    "type": "address"
                }
            ],
            "stateMutability": "view",
            "type": "function"
        },
        {
            "inputs": [
                {
                    "internalType": "address",
                    "name": "",
                    "type": "address"
                }
            ],
            "name": "reserves",
            "outputs": [
                {
                    "internalType": "uint256",
                    "name": "",
                    "type": "uint256"
                }
            ],
            "stateMutability": "view",
            "type": "function"
        },
        {
            "inputs": [
                {
                    "internalType": "address",
                    "name": "fromToken",
                    "type": "address"
                },
                {
                    "internalType": "address",
                    "name": "toToken",
                    "type": "address"
                },
                {
                    "internalType": "uint256",
                    "name": "amount",
                    "type": "uint256"
                },
                {
                    "internalType": "address",
                    "name": "receiver",
                    "type": "address"
                }
            ],
            "name": "swap",
            "outputs": [
                {
                    "internalType": "uint256",
                    "name": "",
                    "type": "uint256"
                }
            ],
            "stateMutability": "nonpayable",
            "type": "function"
        },
        {
            "inputs": [],
            "name": "symbol",
            "outputs": [
                {
                    "internalType": "string",
                    "name": "",
                    "type": "string"
                }
            ],
            "stateMutability": "view",
            "type": "function"
        },
        {
            "inputs": [],
            "name": "totalSupply",
            "outputs": [
                {
                    "internalType": "uint256",
                    "name": "",
                    "type": "uint256"
                }
            ],
            "stateMutability": "view",
            "type": "function"
        },
        {
            "inputs": [
                {
                    "internalType": "address",
                    "name": "to",
                    "type": "address"
                },
                {
                    "internalType": "uint256",
                    "name": "value",
                    "type": "uint256"
                }
            ],
            "name": "transfer",
            "outputs": [
                {
                    "internalType": "bool",
                    "name": "",
                    "type": "bool"
                }
            ],
            "stateMutability": "nonpayable",
            "type": "function"
        },
        {
            "inputs": [
                {
                    "internalType": "address",
                    "name": "from",
                    "type": "address"
                },
                {
                    "internalType": "address",
                    "name": "to",
                    "type": "address"
                },
                {
                    "internalType": "uint256",
                    "name": "value",
                    "type": "uint256"
                }
            ],
            "name": "transferFrom",
            "outputs": [
                {
                    "internalType": "bool",
                    "name": "",
                    "type": "bool"
                }
            ],
            "stateMutability": "nonpayable",
            "type": "function"
        },
        {
            "inputs": [],
            "name": "trigger",
            "outputs": [
                {
                    "internalType": "uint256",
                    "name": "",
                    "type": "uint256"
                }
            ],
            "stateMutability": "view",
            "type": "function"
        },
        {
            "inputs": [],
            "name": "unitPrice",
            "outputs": [
                {
                    "internalType": "uint256",
                    "name": "",
                    "type": "uint256"
                }
            ],
            "stateMutability": "view",
            "type": "function"
        },
        {
            "inputs": [
                {
                    "internalType": "uint256[]",
                    "name": "amounts",
                    "type": "uint256[]"
                },
                {
                    "internalType": "bool",
                    "name": "increase",
                    "type": "bool"
                }
            ],
            "name": "updateReserves",
            "outputs": [],
            "stateMutability": "nonpayable",
            "type": "function"
        }
    ],
    "bytecode": "608060405234801561000f575f80fd5b5060405161374f38038061374f83398101604081905261002e916105c9565b60405180604001604052806009815260200168042616c756e69204c560bc1b81525060405180604001604052806009815260200168042414c554e492d4c560bc1b81525081600390816100819190610733565b50600461008e8282610733565b5050600160055550600a80546001600160a01b038084166001600160a01b0319928316179092556006805492881692909116919091179055670de0b6b3a76400006009556100dc84846101f2565b81600881905550846001600160a01b031663bc06e81d6040518163ffffffff1660e01b8152600401602060405180830381865afa15801561011f573d5f803e3d5ffd5b505050506040513d601f19601f8201168201806040525081019061014391906107f2565b600b80546001600160a01b0319166001600160a01b03929092169190911790555f805b845181101561019e5784818151811061018157610181610812565b6020026020010151826101949190610826565b9150600101610166565b5080612710146101e75760405162461bcd60e51b815260206004820152600f60248201526e496e76616c6964207765696768747360881b60448201526064015b60405180910390fd5b505050505050610881565b805182511461024e5760405162461bcd60e51b815260206004820152602260248201527f41737365747320616e642077656967687473206c656e677468206d69736d61746044820152610c6d60f31b60648201526084016101de565b5f5b82518110156104d7575f6001600160a01b031683828151811061027557610275610812565b60200260200101516001600160a01b0316036102d35760405162461bcd60e51b815260206004820152601560248201527f496e76616c69642061737365742061646472657373000000000000000000000060448201526064016101de565b5f8282815181106102e6576102e6610812565b60200260200101511161032c5760405162461bcd60e51b815260206004820152600e60248201526d125b9d985b1a59081dd95a59da1d60921b60448201526064016101de565b6007604051806040016040528085848151811061034b5761034b610812565b60200260200101516001600160a01b0316815260200184848151811061037357610373610812565b6020908102919091018101519091528254600180820185555f948552828520845160029093020180546001600160a01b0319166001600160a01b03909316929092178255929091015191015583518490839081106103d3576103d3610812565b6020908102919091010151600654604051636eb1769f60e11b81523060048201526001600160a01b03918216602482015291925082169063dd62ed3e90604401602060405180830381865afa15801561042e573d5f803e3d5ffd5b505050506040513d601f19601f82011682018060405250810190610452919061084b565b5f036104ce5760065460405163095ea7b360e01b81526001600160a01b0391821660048201525f1960248201529082169063095ea7b3906044016020604051808303815f875af11580156104a8573d5f803e3d5ffd5b505050506040513d601f19601f820116820180604052508101906104cc9190610862565b505b50600101610250565b505050565b80516001600160a01b03811681146104f2575f80fd5b919050565b634e487b7160e01b5f52604160045260245ffd5b604051601f8201601f191681016001600160401b0381118282101715610533576105336104f7565b604052919050565b5f6001600160401b03821115610553576105536104f7565b5060051b60200190565b5f82601f83011261056c575f80fd5b8151602061058161057c8361053b565b61050b565b8083825260208201915060208460051b8701019350868411156105a2575f80fd5b602086015b848110156105be57805183529183019183016105a7565b509695505050505050565b5f805f805f60a086880312156105dd575f80fd5b6105e6866104dc565b602087810151919650906001600160401b0380821115610604575f80fd5b818901915089601f830112610617575f80fd5b815161062561057c8261053b565b81815260059190911b8301840190848101908c831115610643575f80fd5b938501935b8285101561066857610659856104dc565b82529385019390850190610648565b60408c01519099509450505080831115610680575f80fd5b505061068e8882890161055d565b935050606086015191506106a4608087016104dc565b90509295509295909350565b600181811c908216806106c457607f821691505b6020821081036106e257634e487b7160e01b5f52602260045260245ffd5b50919050565b601f8211156104d757805f5260205f20601f840160051c8101602085101561070d5750805b601f840160051c820191505b8181101561072c575f8155600101610719565b5050505050565b81516001600160401b0381111561074c5761074c6104f7565b6107608161075a84546106b0565b846106e8565b602080601f831160018114610793575f841561077c5750858301515b5f19600386901b1c1916600185901b1785556107ea565b5f85815260208120601f198616915b828110156107c1578886015182559484019460019091019084016107a2565b50858210156107de57878501515f19600388901b60f8161c191681555b505060018460011b0185555b505050505050565b5f60208284031215610802575f80fd5b61080b826104dc565b9392505050565b634e487b7160e01b5f52603260045260245ffd5b8082018082111561084557634e487b7160e01b5f52601160045260245ffd5b92915050565b5f6020828403121561085b575f80fd5b5051919050565b5f60208284031215610872575f80fd5b8151801515811461080b575f80fd5b612ec18061088e5f395ff3fe608060405234801561000f575f80fd5b5060043610610208575f3560e01c806370a082311161011f578063b2b55d70116100a9578063d14ef46d11610079578063d14ef46d14610447578063d66bd52414610479578063dd62ed3e14610498578063de836ebd146104d0578063e73faa2d146104e3575f80fd5b8063b2b55d70146103f0578063c2ee3a0814610418578063cdf456e114610421578063cf8fa76414610434575f80fd5b806389ab3532116100ef57806389ab3532146103a457806389afcb44146103ba5780638a77c8dc146103cd57806395d89b41146103d5578063a9059cbb146103dd575f80fd5b806370a082311461036257806377aace1a146103755780637e04795a146103885780637fec8d381461039b575f80fd5b806323b872dd116101a05780634aa06652116101705780634aa066521461030b5780635568081a1461031e57806367a6c4401461033157806367e4ac2c1461033a5780636e81221c1461034f575f80fd5b806323b872dd146102c0578063313ce567146102d357806336bf6e39146102e25780633dff5b7f146102f8575f80fd5b8063095ea7b3116101db578063095ea7b31461027b57806318160ddd1461029e5780631a686502146102b057806322acb867146102b8575f80fd5b806301d22ccd1461020c57806306fdde031461023c5780630723c999146102515780630902f1ac14610266575b5f80fd5b60065461021f906001600160a01b031681565b6040516001600160a01b0390911681526020015b60405180910390f35b6102446104eb565b60405161023391906128f1565b61026461025f36600461293a565b61057b565b005b61026e61069c565b6040516102339190612996565b61028e6102893660046129a8565b61075f565b6040519015158152602001610233565b6002545b604051908152602001610233565b6102a2610778565b61026e610789565b61028e6102ce3660046129d2565b610828565b60405160128152602001610233565b6102ea61084b565b604051610233929190612a10565b610264610306366004612ae3565b61085f565b6102a26103193660046129d2565b610897565b61026461032c36600461293a565b610912565b6102a261012c81565b6103426109d6565b6040516102339190612b69565b6102a261035d366004612b7b565b610a90565b6102a261037036600461293a565b610ddb565b600a5461021f906001600160a01b031681565b610264610396366004612bcb565b610df5565b6102a260085481565b6103ac610ebe565b604051610233929190612bfc565b6102646103c836600461293a565b611077565b61028e6116d2565b61024461174c565b61028e6103eb3660046129a8565b61175b565b6102a26103fe36600461293a565b6001600160a01b03165f908152600c602052604090205490565b6102a260095481565b600b5461021f906001600160a01b031681565b6102a2610442366004612c55565b611768565b61045a610455366004612c55565b6117dd565b604080516001600160a01b039093168352602083019190915201610233565b6102a261048736600461293a565b600c6020525f908152604090205481565b6102a26104a6366004612c6c565b6001600160a01b039182165f90815260016020908152604080832093909416825291909152205490565b6102a26104de366004612c98565b611813565b6102a2611c61565b6060600380546104fa90612ce4565b80601f016020809104026020016040519081016040528092919081815260200182805461052690612ce4565b80156105715780601f1061054857610100808354040283529160200191610571565b820191905f5260205f20905b81548152906001019060200180831161055457829003601f168201915b5050505050905090565b6105836116d2565b6105cb5760405162461bcd60e51b8152602060048201526014602482015273149958985b185b98d9481b9bdd081b995959195960621b60448201526064015b60405180910390fd5b5f806105d5611ca9565b915091505f6105e48383611df3565b90505f6105f082611ef4565b90505f5b8251811015610649575f83828151811061061057610610612d16565b60200260200101511115610641576106418184838151811061063457610634612d16565b6020026020010151611f30565b6001016105f4565b5061065485826120aa565b336001600160a01b03167fa95ad530009c6f929555e70a66aadbeae7231e45756c5b028ca77fbaa376e73e8360405161068d9190612996565b60405180910390a25050505050565b6007546060905f906001600160401b038111156106bb576106bb612a28565b6040519080825280602002602001820160405280156106e4578160200160208202803683370190505b5090505f5b60075481101561075957600c5f6007838154811061070957610709612d16565b5f91825260208083206002909202909101546001600160a01b03168352820192909252604001902054825183908390811061074657610746612d16565b60209081029190910101526001016106e9565b50919050565b5f3361076c8185856120de565b60019150505b92915050565b5f80610782611ca9565b5092915050565b6007546060905f906001600160401b038111156107a8576107a8612a28565b6040519080825280602002602001820160405280156107d1578160200160208202803683370190505b5090505f5b60075481101561075957600781815481106107f3576107f3612d16565b905f5260205f2090600202016001015482828151811061081557610815612d16565b60209081029190910101526001016107d6565b5f336108358582856120f0565b61084085858561216b565b506001949350505050565b5f6060610856611ca9565b90939092509050565b600a546001600160a01b031633146108895760405162461bcd60e51b81526004016105c290612d2a565b61089382826121c8565b5050565b60065460405163248391ff60e01b81525f916001600160a01b03169063248391ff906108cb90879087908790600401612d52565b602060405180830381865afa1580156108e6573d5f803e3d5ffd5b505050506040513d601f19601f8201168201806040525081019061090a9190612d76565b949350505050565b61091a6116d2565b61095d5760405162461bcd60e51b8152602060048201526014602482015273149958985b185b98d9481b9bdd081b995959195960621b60448201526064016105c2565b5f61271061096a60025490565b610976906103e8612da1565b6109809190612db8565b90508061098c83610ddb565b10156109ce5760405162461bcd60e51b8152602060048201526011602482015270556e646572203525204c5020736861726560781b60448201526064016105c2565b610893612291565b6007546060905f906001600160401b038111156109f5576109f5612a28565b604051908082528060200260200182016040528015610a1e578160200160208202803683370190505b5090505f5b6007548110156107595760078181548110610a4057610a40612d16565b5f91825260209091206002909102015482516001600160a01b0390911690839083908110610a7057610a70612d16565b6001600160a01b0390921660209283029190910190910152600101610a23565b5f610a996124f6565b836001600160a01b0316856001600160a01b031603610afa5760405162461bcd60e51b815260206004820152601a60248201527f43616e6e6f742073776170207468652073616d6520746f6b656e00000000000060448201526064016105c2565b5f8311610b495760405162461bcd60e51b815260206004820181905260248201527f416d6f756e74206d7573742062652067726561746572207468616e207a65726f60448201526064016105c2565b6040516323b872dd60e01b81526001600160a01b038616906323b872dd90610b7990339030908890600401612d52565b6020604051808303815f875af1158015610b95573d5f803e3d5ffd5b505050506040513d601f19601f82011682018060405250810190610bb99190612dd7565b505f610bc6868686610897565b6040516370a0823160e01b815230600482015290915081906001600160a01b038716906370a0823190602401602060405180830381865afa158015610c0d573d5f803e3d5ffd5b505050506040513d601f19601f82011682018060405250810190610c319190612d76565b1015610c785760405162461bcd60e51b8152602060048201526016602482015275496e73756666696369656e74204c697175696469747960501b60448201526064016105c2565b5f612710610c8861012c84612da1565b610c929190612db8565b90505f610c9f8284612df2565b60405163a9059cbb60e01b81526001600160a01b038781166004830152602482018390529192509088169063a9059cbb906044016020604051808303815f875af1158015610cef573d5f803e3d5ffd5b505050506040513d601f19601f82011682018060405250810190610d139190612dd7565b50866001600160a01b0316886001600160a01b0316866001600160a01b03167fcd3829a3813dc3cdd188fd3d01dcf3268c16be2fdd2dd21d0665418816e460628985604051610d6c929190918252602082015260400190565b60405180910390a46001600160a01b0388165f908152600c602052604081208054889290610d9b908490612e05565b90915550506001600160a01b0387165f908152600c602052604081208054839290610dc7908490612e05565b9091555092935050505061090a6001600555565b6001600160a01b03165f9081526020819052604090205490565b600a546001600160a01b03163314610e1f5760405162461bcd60e51b81526004016105c290612d2a565b5f5b600754811015610893575f60078281548110610e3f57610e3f612d16565b5f918252602082206002909102015484516001600160a01b039091169250849084908110610e6f57610e6f612d16565b6020026020010151905080600c5f846001600160a01b03166001600160a01b031681526020019081526020015f205f828254610eab9190612df2565b909155505060019092019150610e219050565b6060805f80610ecb611ca9565b6007549193509150806001600160401b03811115610eeb57610eeb612a28565b604051908082528060200260200182016040528015610f14578160200160208202803683370190505b509450806001600160401b03811115610f2f57610f2f612a28565b604051908082528060200260200182016040528015610f58578160200160208202803683370190505b5093505f5b8181101561106f575f84848381518110610f7957610f79612d16565b6020026020010151612710610f8e9190612da1565b610f989190612db8565b90505f60078381548110610fae57610fae612d16565b905f5260205f2090600202016001015490508082111561101957610fd28183612df2565b878481518110610fe457610fe4612d16565b602002602001018181525050600188848151811061100457611004612d16565b91151560209283029190910190910152611065565b6110238282612df2565b87848151811061103557611035612d16565b6020026020010181815250505f88848151811061105457611054612d16565b911515602092830291909101909101525b5050600101610f5d565b505050509091565b600a546001600160a01b031633146110a15760405162461bcd60e51b81526004016105c290612d2a565b5f6110ab30610ddb565b90505f81116110fc5760405162461bcd60e51b815260206004820152601c60248201527f5368617265206d7573742062652067726561746572207468616e20300000000060448201526064016105c2565b5f61110660025490565b90505f81116111465760405162461bcd60e51b815260206004820152600c60248201526b4e6f206c697175696469747960a01b60448201526064016105c2565b6007545f906001600160401b0381111561116257611162612a28565b60405190808252806020026020018201604052801561118b578160200160208202803683370190505b5090505f61271061119e61012c86612da1565b6111a89190612db8565b90505f6111b58286612df2565b90505f5b60075481101561128b575f600782815481106111d7576111d7612d16565b5f9182526020909120600290910201546040516370a0823160e01b81523060048201526001600160a01b03909116906370a0823190602401602060405180830381865afa15801561122a573d5f803e3d5ffd5b505050506040513d601f19601f8201168201806040525081019061124e9190612d76565b90508561125b8483612da1565b6112659190612db8565b85838151811061127757611277612d16565b6020908102919091010152506001016111b9565b508061129630610ddb565b10156112dd5760405162461bcd60e51b8152602060048201526016602482015275496e73756666696369656e74206c697175696469747960501b60448201526064016105c2565b5f306001600160a01b031663a9059cbb60065f9054906101000a90046001600160a01b03166001600160a01b0316633b19e84a6040518163ffffffff1660e01b8152600401602060405180830381865afa15801561133d573d5f803e3d5ffd5b505050506040513d601f19601f820116820180604052508101906113619190612e18565b6040516001600160e01b031960e084901b1681526001600160a01b039091166004820152602481018690526044016020604051808303815f875af11580156113ab573d5f803e3d5ffd5b505050506040513d601f19601f820116820180604052508101906113cf9190612dd7565b9050806114145760405162461bcd60e51b8152602060048201526013602482015272119959481d1c985b9cd9995c8819985a5b1959606a1b60448201526064016105c2565b8161141e30610ddb565b10156114655760405162461bcd60e51b8152602060048201526016602482015275496e73756666696369656e74206c697175696469747960501b60448201526064016105c2565b61146f3083612520565b5f5b60075481101561167b5784818151811061148d5761148d612d16565b6020026020010151600782815481106114a8576114a8612d16565b5f9182526020909120600290910201546040516370a0823160e01b81523060048201526001600160a01b03909116906370a0823190602401602060405180830381865afa1580156114fb573d5f803e3d5ffd5b505050506040513d601f19601f8201168201806040525081019061151f9190612d76565b10156115665760405162461bcd60e51b8152602060048201526016602482015275496e73756666696369656e74204c697175696469747960501b60448201526064016105c2565b5f6007828154811061157a5761157a612d16565b5f91825260209091206002909102015486516001600160a01b039091169063a9059cbb908b908990869081106115b2576115b2612d16565b60200260200101516040518363ffffffff1660e01b81526004016115eb9291906001600160a01b03929092168252602082015260400190565b6020604051808303815f875af1158015611607573d5f803e3d5ffd5b505050506040513d601f19601f8201168201806040525081019061162b9190612dd7565b9050806116725760405162461bcd60e51b8152602060048201526015602482015274105cdcd95d081d1c985b9cd9995c8819985a5b1959605a1b60448201526064016105c2565b50600101611471565b50611686845f6121c8565b866001600160a01b03167fcc16f5dbb4873280815c1ee09dbd06736cffcc184412cf7a71a0fdb75d397ca5836040516116c191815260200190565b60405180910390a250505050505050565b5f805f6116dd610ebe565b915091505f5b8151811015611743578281815181106116fe576116fe612d16565b6020026020010151801561172c575060085482828151811061172257611722612d16565b6020026020010151115b1561173b576001935050505090565b6001016116e3565b505f9250505090565b6060600480546104fa90612ce4565b5f3361076c81858561216b565b5f80611772611ca9565b915050805183106117bb5760405162461bcd60e51b8152602060048201526013602482015272092dcecc2d8d2c840c2e6e6cae840d2dcc8caf606b1b60448201526064016105c2565b8083815181106117cd576117cd612d16565b6020026020010151915050919050565b600781815481106117ec575f80fd5b5f918252602090912060029091020180546001909101546001600160a01b03909116915082565b600a545f906001600160a01b0316331461183f5760405162461bcd60e51b81526004016105c290612d2a565b5f61184960025490565b90505f8061185561069c565b8051600754919250146118aa5760405162461bcd60e51b815260206004820152601760248201527f496e76616c6964207265736572766573206c656e67746800000000000000000060448201526064016105c2565b6007546118e55760405162461bcd60e51b81526020600482015260096024820152684e6f2061737365747360b81b60448201526064016105c2565b5f5b600754811015611a70575f6007828154811061190557611905612d16565b5f9182526020822060029190910201546040516370a0823160e01b81523060048201526001600160a01b03909116925082906370a0823190602401602060405180830381865afa15801561195b573d5f803e3d5ffd5b505050506040513d601f19601f8201168201806040525081019061197f9190612d76565b90505f81116119d05760405162461bcd60e51b815260206004820152601e60248201527f42616c616e6365206d7573742062652067726561746572207468616e2030000060448201526064016105c2565b5f8484815181106119e3576119e3612d16565b6020026020010151826119f69190612df2565b90505f8111611a475760405162461bcd60e51b815260206004820152601d60248201527f416d6f756e74206d7573742062652067726561746572207468616e203000000060448201526064016105c2565b5f611a528483612554565b9050611a5e8188612e05565b965050600190930192506118e7915050565b505f8211611acb5760405162461bcd60e51b815260206004820152602260248201527f546f74616c2076616c7565206d7573742062652067726561746572207468616e604482015261020360f41b60648201526084016105c2565b5f835f03611ada575081611b5d565b5f611ae3611ca9565b5090505f8111611b445760405162461bcd60e51b815260206004820152602660248201527f546f74616c206c6971756964697479206d75737420626520677265617465722060448201526507468616e20360d41b60648201526084016105c2565b80611b4f8686612da1565b611b599190612db8565b9150505b805f03611b9c5760405162461bcd60e51b815260206004820152600d60248201526c04d696e7420717479206973203609c1b60448201526064016105c2565b5f611ba633610ddb565b9050611bb288836120aa565b5f81611bbd8a610ddb565b611bc79190612df2565b9050828114611c065760405162461bcd60e51b815260206004820152600b60248201526a135a5b9d0811985a5b195960aa1b60448201526064016105c2565b611c118860016121c8565b886001600160a01b03167f0f6798a560793a54c3bcfe86a93cde1e73087d944c0ea20544137d412139688584604051611c4c91815260200190565b60405180910390a25090979650505050505050565b5f80611c6b611ca9565b5090505f611c7860025490565b9050805f03611c89575f9250505090565b8060095483611c989190612da1565b611ca29190612db8565b9250505090565b6007545f90606090806001600160401b03811115611cc957611cc9612a28565b604051908082528060200260200182016040528015611cf2578160200160208202803683370190505b5091505f5b81811015611ded575f60078281548110611d1357611d13612d16565b5f918252602090912060029091020154600b546001600160a01b039182169250168103611d77576001600160a01b0381165f908152600c60205260409020548451859084908110611d6657611d66612d16565b602002602001018181525050611dbd565b6001600160a01b0381165f908152600c6020526040812054611d9a908390612554565b905080858481518110611daf57611daf612d16565b602002602001018181525050505b838281518110611dcf57611dcf612d16565b602002602001015185611de29190612e05565b945050600101611cf7565b50509091565b6007546060906001600160401b03811115611e1057611e10612a28565b604051908082528060200260200182016040528015611e39578160200160208202803683370190505b5090505f5b600754811015610782575f61271060078381548110611e5f57611e5f612d16565b905f5260205f2090600202016001015486611e7a9190612da1565b611e849190612db8565b905080848381518110611e9957611e99612d16565b60200260200101511015611eeb57838281518110611eb957611eb9612d16565b602002602001015181611ecc9190612df2565b838381518110611ede57611ede612d16565b6020026020010181815250505b50600101611e3e565b5f805b60075481101561075957828181518110611f1357611f13612d16565b602002602001015182611f269190612e05565b9150600101611ef7565b5f611f6660078481548110611f4757611f47612d16565b5f9182526020909120600290910201546001600160a01b031683612590565b90505f8111611fb75760405162461bcd60e51b815260206004820152601b60248201527f496e76616c696420746f6b656e20616d6f756e7420746f20616464000000000060448201526064016105c2565b60078381548110611fca57611fca612d16565b5f918252602090912060029091020154600a546040516323b872dd60e01b81526001600160a01b03928316926323b872dd92612010923392909116908690600401612d52565b6020604051808303815f875af115801561202c573d5f803e3d5ffd5b505050506040513d601f19601f820116820180604052508101906120509190612dd7565b5080600c5f6007868154811061206857612068612d16565b5f91825260208083206002909202909101546001600160a01b03168352820192909252604001812080549091906120a0908490612e05565b9091555050505050565b6001600160a01b0382166120d35760405163ec442f0560e01b81525f60048201526024016105c2565b6108935f83836125cb565b6120eb83838360016126f1565b505050565b6001600160a01b038381165f908152600160209081526040808320938616835292905220545f198114612165578181101561215757604051637dc7a0d960e11b81526001600160a01b038416600482015260248101829052604481018390526064016105c2565b61216584848484035f6126f1565b50505050565b6001600160a01b03831661219457604051634b637e8f60e11b81525f60048201526024016105c2565b6001600160a01b0382166121bd5760405163ec442f0560e01b81525f60048201526024016105c2565b6120eb8383836125cb565b5f5b6007548110156120eb575f600782815481106121e8576121e8612d16565b5f918252602082206002909102015485516001600160a01b03909116925085908490811061221857612218612d16565b60200260200101519050831561225a576001600160a01b0382165f908152600c60205260408120805483929061224f908490612e05565b909155506122879050565b6001600160a01b0382165f908152600c602052604081208054839290612281908490612df2565b90915550505b50506001016121ca565b6007545f906001600160401b038111156122ad576122ad612a28565b6040519080825280602002602001820160405280156122d6578160200160208202803683370190505b506007549091505f906001600160401b038111156122f6576122f6612a28565b60405190808252806020026020018201604052801561231f578160200160208202803683370190505b5090505f5b6007548110156123d9576007818154811061234157612341612d16565b5f91825260209091206002909102015483516001600160a01b039091169084908390811061237157612371612d16565b60200260200101906001600160a01b031690816001600160a01b031681525050600781815481106123a4576123a4612d16565b905f5260205f209060020201600101548282815181106123c6576123c6612d16565b6020908102919091010152600101612324565b50600a5f9054906101000a90046001600160a01b03166001600160a01b031663fe1101166040518163ffffffff1660e01b81526004015f604051808303815f87803b158015612426575f80fd5b505af1158015612438573d5f803e3d5ffd5b5050600654600854600b54604051630325192d60e01b81526001600160a01b039384169550630325192d945061247c93889388933093849390911690600401612e33565b5f604051808303815f87803b158015612493575f80fd5b505af11580156124a5573d5f803e3d5ffd5b505050506124b16127c3565b336001600160a01b03167f279b343370f587af7fb675ae7c8578e9c8abcc373236ad02c501a4771fe7a7b8836040516124ea9190612b69565b60405180910390a25050565b60026005540361251957604051633ee5aeb560e01b815260040160405180910390fd5b6002600555565b6001600160a01b03821661254957604051634b637e8f60e11b81525f60048201526024016105c2565b610893825f836125cb565b600654600b5460405163248391ff60e01b81525f9283926001600160a01b039182169263248391ff926108cb9289929116908890600401612d52565b600654600b5460405163248391ff60e01b81525f9283926001600160a01b039182169263248391ff926108cb92169088908890600401612d52565b6001600160a01b0383166125f5578060025f8282546125ea9190612e05565b909155506126659050565b6001600160a01b0383165f90815260208190526040902054818110156126475760405163391434e360e21b81526001600160a01b038516600482015260248101829052604481018390526064016105c2565b6001600160a01b0384165f9081526020819052604090209082900390555b6001600160a01b0382166126815760028054829003905561269f565b6001600160a01b0382165f9081526020819052604090208054820190555b816001600160a01b0316836001600160a01b03167fddf252ad1be2c89b69c2b068fc378daa952ba7f163c4a11628f55a4df523b3ef836040516126e491815260200190565b60405180910390a3505050565b6001600160a01b03841661271a5760405163e602df0560e01b81525f60048201526024016105c2565b6001600160a01b03831661274357604051634a1406b160e11b81525f60048201526024016105c2565b6001600160a01b038085165f908152600160209081526040808320938716835292905220829055801561216557826001600160a01b0316846001600160a01b03167f8c5be1e5ebec7d5bd14f71427d1e84f3dd0314c0f7b2291e5b200ac8c7c3b925846040516127b591815260200190565b60405180910390a350505050565b5f5b6007548110156128ee575f600782815481106127e3576127e3612d16565b5f9182526020822060029190910201546040516370a0823160e01b81523060048201526001600160a01b03909116925082906370a0823190602401602060405180830381865afa158015612839573d5f803e3d5ffd5b505050506040513d601f19601f8201168201806040525081019061285d9190612d76565b6001600160a01b038381165f818152600c602052604090819020849055600a54905163a9059cbb60e01b8152921660048301526024820183905291925063a9059cbb906044016020604051808303815f875af11580156128bf573d5f803e3d5ffd5b505050506040513d601f19601f820116820180604052508101906128e39190612dd7565b5050506001016127c5565b50565b602081525f82518060208401528060208501604085015e5f604082850101526040601f19601f83011684010191505092915050565b6001600160a01b03811681146128ee575f80fd5b5f6020828403121561294a575f80fd5b813561295581612926565b9392505050565b5f815180845260208085019450602084015f5b8381101561298b5781518752958201959082019060010161296f565b509495945050505050565b602081525f612955602083018461295c565b5f80604083850312156129b9575f80fd5b82356129c481612926565b946020939093013593505050565b5f805f606084860312156129e4575f80fd5b83356129ef81612926565b925060208401356129ff81612926565b929592945050506040919091013590565b828152604060208201525f61090a604083018461295c565b634e487b7160e01b5f52604160045260245ffd5b5f82601f830112612a4b575f80fd5b813560206001600160401b0380831115612a6757612a67612a28565b8260051b604051601f19603f83011681018181108482111715612a8c57612a8c612a28565b6040529384526020818701810194908101925087851115612aab575f80fd5b6020870191505b84821015612acb57813583529183019190830190612ab2565b979650505050505050565b80151581146128ee575f80fd5b5f8060408385031215612af4575f80fd5b82356001600160401b03811115612b09575f80fd5b612b1585828601612a3c565b9250506020830135612b2681612ad6565b809150509250929050565b5f815180845260208085019450602084015f5b8381101561298b5781516001600160a01b031687529582019590820190600101612b44565b602081525f6129556020830184612b31565b5f805f8060808587031215612b8e575f80fd5b8435612b9981612926565b93506020850135612ba981612926565b9250604085013591506060850135612bc081612926565b939692955090935050565b5f60208284031215612bdb575f80fd5b81356001600160401b03811115612bf0575f80fd5b61090a84828501612a3c565b604080825283519082018190525f906020906060840190828701845b82811015612c36578151151584529284019290840190600101612c18565b5050508381036020850152612c4b818661295c565b9695505050505050565b5f60208284031215612c65575f80fd5b5035919050565b5f8060408385031215612c7d575f80fd5b8235612c8881612926565b91506020830135612b2681612926565b5f8060408385031215612ca9575f80fd5b8235612cb481612926565b915060208301356001600160401b03811115612cce575f80fd5b612cda85828601612a3c565b9150509250929050565b600181811c90821680612cf857607f821691505b60208210810361075957634e487b7160e01b5f52602260045260245ffd5b634e487b7160e01b5f52603260045260245ffd5b6020808252600e908201526d4f6e6c792050657269706865727960901b604082015260600190565b6001600160a01b039384168152919092166020820152604081019190915260600190565b5f60208284031215612d86575f80fd5b5051919050565b634e487b7160e01b5f52601160045260245ffd5b808202811582820484141761077257610772612d8d565b5f82612dd257634e487b7160e01b5f52601260045260245ffd5b500490565b5f60208284031215612de7575f80fd5b815161295581612ad6565b8181038181111561077257610772612d8d565b8082018082111561077257610772612d8d565b5f60208284031215612e28575f80fd5b815161295581612926565b60c081525f612e4560c0830189612b31565b8281036020840152612e57818961295c565b6001600160a01b03978816604085015295871660608401525050608081019290925290921660a0909201919091529291505056fea264697066735822122003418a673d0e0be650d00c58fe53a46620e62e238d3188cda70f574e712065fe64736f6c63430008190033",
    "sourcePath": "c:/Users/Utente/Source/repos/baluni-contracts/contracts/BaluniV1Pool.sol",
    "compiler": {
        "name": "solc",
        "version": "0.8.25+commit.b61c2a91"
    },
    "functionHashes": {
        "ONE()": "c2ee3a08",
        "SWAP_FEE_BPS()": "67a6c440",
        "allowance(address,address)": "dd62ed3e",
        "approve(address,uint256)": "095ea7b3",
        "assetInfos(uint256)": "d14ef46d",
        "assetLiquidity(uint256)": "cf8fa764",
        "balanceOf(address)": "70a08231",
        "baseAsset()": "cdf456e1",
        "burn(address)": "89afcb44",
        "computeTotalValuation()": "36bf6e39",
        "decimals()": "313ce567",
        "decreaseReserves(uint256[])": "7e04795a",
        "getAmountOut(address,address,uint256)": "4aa06652",
        "getAssetReserve(address)": "b2b55d70",
        "getAssets()": "67e4ac2c",
        "getDeviation()": "89ab3532",
        "getReserves()": "0902f1ac",
        "getWeights()": "22acb867",
        "isRebalanceNeeded()": "8a77c8dc",
        "liquidity()": "1a686502",
        "mint(address,uint256[])": "de836ebd",
        "name()": "06fdde03",
        "performRebalanceIfNeeded(address)": "5568081a",
        "periphery()": "77aace1a",
        "rebalanceWeights(address)": "0723c999",
        "rebalancer()": "01d22ccd",
        "reserves(address)": "d66bd524",
        "swap(address,address,uint256,address)": "6e81221c",
        "symbol()": "95d89b41",
        "totalSupply()": "18160ddd",
        "transfer(address,uint256)": "a9059cbb",
        "transferFrom(address,address,uint256)": "23b872dd",
        "trigger()": "7fec8d38",
        "unitPrice()": "e73faa2d",
        "updateReserves(uint256[],bool)": "3dff5b7f"
    },
    "gasEstimates": {
        "creation": {
            "codeDepositCost": "2393800",
            "executionCost": "infinite",
            "totalCost": "infinite"
        },
        "external": {
            "ONE()": "2361",
            "SWAP_FEE_BPS()": "283",
            "allowance(address,address)": "infinite",
            "approve(address,uint256)": "24752",
            "assetInfos(uint256)": "6814",
            "assetLiquidity(uint256)": "infinite",
            "balanceOf(address)": "2589",
            "baseAsset()": "2414",
            "burn(address)": "infinite",
            "computeTotalValuation()": "infinite",
            "decimals()": "244",
            "decreaseReserves(uint256[])": "infinite",
            "getAmountOut(address,address,uint256)": "infinite",
            "getAssetReserve(address)": "2573",
            "getAssets()": "infinite",
            "getDeviation()": "infinite",
            "getReserves()": "infinite",
            "getWeights()": "infinite",
            "isRebalanceNeeded()": "infinite",
            "liquidity()": "infinite",
            "mint(address,uint256[])": "infinite",
            "name()": "infinite",
            "performRebalanceIfNeeded(address)": "infinite",
            "periphery()": "2393",
            "rebalanceWeights(address)": "infinite",
            "rebalancer()": "2372",
            "reserves(address)": "2576",
            "swap(address,address,uint256,address)": "infinite",
            "symbol()": "infinite",
            "totalSupply()": "2348",
            "transfer(address,uint256)": "51343",
            "transferFrom(address,address,uint256)": "infinite",
            "trigger()": "2406",
            "unitPrice()": "infinite",
            "updateReserves(uint256[],bool)": "infinite"
        },
        "internal": {
            "_calculateAmountsToAdd(uint256,uint256[] memory)": "infinite",
            "_calculateTotalAddedLiquidity(uint256[] memory)": "infinite",
            "_computeTotalValuation()": "infinite",
            "_convertBaseToToken(address,uint256)": "infinite",
            "_convertTokenToBase(address,uint256)": "infinite",
            "_performRebalanceIfNeeded()": "infinite",
            "_transferAndCalculateLiquidity(uint256,uint256)": "infinite",
            "_updateReserves(uint256[] memory,bool)": "infinite",
            "_updateReservesAndTransfer()": "infinite",
            "initializeAssets(address[] memory,uint256[] memory)": "infinite",
            "max(uint8,uint8)": "infinite",
            "min(uint8,uint8)": "infinite"
        }
    }
}