{
    "contractName": "BaluniV1PoolPeriphery",
    "abi": [
        {
            "inputs": [
                {
                    "internalType": "address",
                    "name": "target",
                    "type": "address"
                }
            ],
            "name": "AddressEmptyCode",
            "type": "error"
        },
        {
            "inputs": [
                {
                    "internalType": "address",
                    "name": "implementation",
                    "type": "address"
                }
            ],
            "name": "ERC1967InvalidImplementation",
            "type": "error"
        },
        {
            "inputs": [],
            "name": "ERC1967NonPayable",
            "type": "error"
        },
        {
            "inputs": [],
            "name": "FailedInnerCall",
            "type": "error"
        },
        {
            "inputs": [],
            "name": "InvalidInitialization",
            "type": "error"
        },
        {
            "inputs": [],
            "name": "NotInitializing",
            "type": "error"
        },
        {
            "inputs": [
                {
                    "internalType": "address",
                    "name": "owner",
                    "type": "address"
                }
            ],
            "name": "OwnableInvalidOwner",
            "type": "error"
        },
        {
            "inputs": [
                {
                    "internalType": "address",
                    "name": "account",
                    "type": "address"
                }
            ],
            "name": "OwnableUnauthorizedAccount",
            "type": "error"
        },
        {
            "inputs": [],
            "name": "UUPSUnauthorizedCallContext",
            "type": "error"
        },
        {
            "inputs": [
                {
                    "internalType": "bytes32",
                    "name": "slot",
                    "type": "bytes32"
                }
            ],
            "name": "UUPSUnsupportedProxiableUUID",
            "type": "error"
        },
        {
            "anonymous": false,
            "inputs": [
                {
                    "indexed": false,
                    "internalType": "uint64",
                    "name": "version",
                    "type": "uint64"
                }
            ],
            "name": "Initialized",
            "type": "event"
        },
        {
            "anonymous": false,
            "inputs": [
                {
                    "indexed": true,
                    "internalType": "address",
                    "name": "previousOwner",
                    "type": "address"
                },
                {
                    "indexed": true,
                    "internalType": "address",
                    "name": "newOwner",
                    "type": "address"
                }
            ],
            "name": "OwnershipTransferred",
            "type": "event"
        },
        {
            "anonymous": false,
            "inputs": [
                {
                    "indexed": true,
                    "internalType": "address",
                    "name": "implementation",
                    "type": "address"
                }
            ],
            "name": "Upgraded",
            "type": "event"
        },
        {
            "inputs": [],
            "name": "UPGRADE_INTERFACE_VERSION",
            "outputs": [
                {
                    "internalType": "string",
                    "name": "",
                    "type": "string"
                }
            ],
            "stateMutability": "view",
            "type": "function"
        },
        {
            "inputs": [
                {
                    "internalType": "uint256[]",
                    "name": "amounts",
                    "type": "uint256[]"
                },
                {
                    "internalType": "address",
                    "name": "poolAddress",
                    "type": "address"
                },
                {
                    "internalType": "address",
                    "name": "receiver",
                    "type": "address"
                }
            ],
            "name": "addLiquidity",
            "outputs": [],
            "stateMutability": "nonpayable",
            "type": "function"
        },
        {
            "inputs": [
                {
                    "internalType": "address[]",
                    "name": "fromTokens",
                    "type": "address[]"
                },
                {
                    "internalType": "address[]",
                    "name": "toTokens",
                    "type": "address[]"
                },
                {
                    "internalType": "uint256[]",
                    "name": "amounts",
                    "type": "uint256[]"
                },
                {
                    "internalType": "address[]",
                    "name": "receivers",
                    "type": "address[]"
                }
            ],
            "name": "batchSwap",
            "outputs": [
                {
                    "internalType": "uint256[]",
                    "name": "",
                    "type": "uint256[]"
                }
            ],
            "stateMutability": "nonpayable",
            "type": "function"
        },
        {
            "inputs": [
                {
                    "internalType": "address",
                    "name": "_poolFactory",
                    "type": "address"
                }
            ],
            "name": "changePoolFactory",
            "outputs": [],
            "stateMutability": "nonpayable",
            "type": "function"
        },
        {
            "inputs": [
                {
                    "internalType": "address",
                    "name": "fromToken",
                    "type": "address"
                },
                {
                    "internalType": "address",
                    "name": "toToken",
                    "type": "address"
                },
                {
                    "internalType": "uint256",
                    "name": "amount",
                    "type": "uint256"
                }
            ],
            "name": "getAmountOut",
            "outputs": [
                {
                    "internalType": "uint256",
                    "name": "",
                    "type": "uint256"
                }
            ],
            "stateMutability": "view",
            "type": "function"
        },
        {
            "inputs": [
                {
                    "internalType": "address",
                    "name": "token",
                    "type": "address"
                }
            ],
            "name": "getPoolsContainingToken",
            "outputs": [
                {
                    "internalType": "address[]",
                    "name": "",
                    "type": "address[]"
                }
            ],
            "stateMutability": "view",
            "type": "function"
        },
        {
            "inputs": [],
            "name": "getVersion",
            "outputs": [
                {
                    "internalType": "uint64",
                    "name": "",
                    "type": "uint64"
                }
            ],
            "stateMutability": "view",
            "type": "function"
        },
        {
            "inputs": [
                {
                    "internalType": "address",
                    "name": "_poolFactory",
                    "type": "address"
                }
            ],
            "name": "initialize",
            "outputs": [],
            "stateMutability": "nonpayable",
            "type": "function"
        },
        {
            "inputs": [],
            "name": "owner",
            "outputs": [
                {
                    "internalType": "address",
                    "name": "",
                    "type": "address"
                }
            ],
            "stateMutability": "view",
            "type": "function"
        },
        {
            "inputs": [
                {
                    "internalType": "address",
                    "name": "poolAddress",
                    "type": "address"
                }
            ],
            "name": "performRebalanceIfNeeded",
            "outputs": [],
            "stateMutability": "nonpayable",
            "type": "function"
        },
        {
            "inputs": [],
            "name": "poolFactory",
            "outputs": [
                {
                    "internalType": "contract IBaluniV1PoolFactory",
                    "name": "",
                    "type": "address"
                }
            ],
            "stateMutability": "view",
            "type": "function"
        },
        {
            "inputs": [],
            "name": "proxiableUUID",
            "outputs": [
                {
                    "internalType": "bytes32",
                    "name": "",
                    "type": "bytes32"
                }
            ],
            "stateMutability": "view",
            "type": "function"
        },
        {
            "inputs": [
                {
                    "internalType": "address",
                    "name": "_poolFactory",
                    "type": "address"
                },
                {
                    "internalType": "uint64",
                    "name": "version",
                    "type": "uint64"
                }
            ],
            "name": "reinitialize",
            "outputs": [],
            "stateMutability": "nonpayable",
            "type": "function"
        },
        {
            "inputs": [
                {
                    "internalType": "uint256",
                    "name": "share",
                    "type": "uint256"
                },
                {
                    "internalType": "address",
                    "name": "poolAddress",
                    "type": "address"
                },
                {
                    "internalType": "address",
                    "name": "receiver",
                    "type": "address"
                }
            ],
            "name": "removeLiquidity",
            "outputs": [],
            "stateMutability": "nonpayable",
            "type": "function"
        },
        {
            "inputs": [],
            "name": "renounceOwnership",
            "outputs": [],
            "stateMutability": "nonpayable",
            "type": "function"
        },
        {
            "inputs": [
                {
                    "internalType": "address",
                    "name": "fromToken",
                    "type": "address"
                },
                {
                    "internalType": "address",
                    "name": "toToken",
                    "type": "address"
                },
                {
                    "internalType": "uint256",
                    "name": "amount",
                    "type": "uint256"
                },
                {
                    "internalType": "address",
                    "name": "receiver",
                    "type": "address"
                }
            ],
            "name": "smartSwap",
            "outputs": [
                {
                    "internalType": "uint256",
                    "name": "",
                    "type": "uint256"
                }
            ],
            "stateMutability": "nonpayable",
            "type": "function"
        },
        {
            "inputs": [
                {
                    "internalType": "address",
                    "name": "fromToken",
                    "type": "address"
                },
                {
                    "internalType": "address",
                    "name": "toToken",
                    "type": "address"
                },
                {
                    "internalType": "uint256",
                    "name": "amount",
                    "type": "uint256"
                },
                {
                    "internalType": "address",
                    "name": "receiver",
                    "type": "address"
                }
            ],
            "name": "swap",
            "outputs": [
                {
                    "internalType": "uint256",
                    "name": "",
                    "type": "uint256"
                }
            ],
            "stateMutability": "nonpayable",
            "type": "function"
        },
        {
            "inputs": [
                {
                    "internalType": "address",
                    "name": "newOwner",
                    "type": "address"
                }
            ],
            "name": "transferOwnership",
            "outputs": [],
            "stateMutability": "nonpayable",
            "type": "function"
        },
        {
            "inputs": [],
            "name": "transferToPool",
            "outputs": [],
            "stateMutability": "nonpayable",
            "type": "function"
        },
        {
            "inputs": [
                {
                    "internalType": "address",
                    "name": "newImplementation",
                    "type": "address"
                },
                {
                    "internalType": "bytes",
                    "name": "data",
                    "type": "bytes"
                }
            ],
            "name": "upgradeToAndCall",
            "outputs": [],
            "stateMutability": "payable",
            "type": "function"
        }
    ],
    "bytecode": "60a0604052306080523480156012575f80fd5b506080516126ca6100395f395f81816119d801528181611a010152611b4001526126ca5ff3fe60806040526004361061011b575f3560e01c80638da5cb5b1161009d578063e74e9b0611610062578063e74e9b061461034f578063ec0cd2eb1461037b578063f2fde38b1461039a578063f31abcc4146103b9578063fe110116146103d8575f80fd5b80638da5cb5b1461026c5780638f2248bc146102a8578063ad3cb1cc146102c7578063ae3cce1c14610304578063c4d66de814610330575f80fd5b80635568081a116100e35780635568081a146101dc5780636e81221c146101fb578063715018a61461021a57806372591be51461022e5780637442eca61461024d575f80fd5b80630d8e6e2c1461011f5780634219dc40146101505780634aa06652146101865780634f1ef286146101b357806352d1902d146101c8575b5f80fd5b34801561012a575f80fd5b506101336103ec565b6040516001600160401b0390911681526020015b60405180910390f35b34801561015b575f80fd5b505f5461016e906001600160a01b031681565b6040516001600160a01b039091168152602001610147565b348015610191575f80fd5b506101a56101a0366004611e82565b610410565b604051908152602001610147565b6101c66101c1366004611f04565b610504565b005b3480156101d3575f80fd5b506101a5610523565b3480156101e7575f80fd5b506101c66101f6366004611fa5565b61053e565b348015610206575f80fd5b506101a5610215366004611fc0565b610598565b348015610225575f80fd5b506101c661079c565b348015610239575f80fd5b506101c6610248366004611fa5565b6107af565b348015610258575f80fd5b506101a5610267366004611fc0565b6107d8565b348015610277575f80fd5b507f9016d09d72d40fdae2fd8ceac6b6234c7706214fd39c1cd1e609a0528c199300546001600160a01b031661016e565b3480156102b3575f80fd5b506101c66102c2366004612010565b610c2d565b3480156102d2575f80fd5b506102f7604051806040016040528060058152602001640352e302e360dc1b81525081565b6040516101479190612052565b34801561030f575f80fd5b5061032361031e366004611fa5565b610d02565b6040516101479190612087565b34801561033b575f80fd5b506101c661034a366004611fa5565b610d76565b34801561035a575f80fd5b5061036e61036936600461211a565b610e90565b60405161014791906121d4565b348015610386575f80fd5b506101c661039536600461220b565b6112ef565b3480156103a5575f80fd5b506101c66103b4366004611fa5565b61148a565b3480156103c4575f80fd5b506101c66103d3366004612263565b6114c7565b3480156103e3575f80fd5b506101c6611794565b5f61040b5f80516020612675833981519152546001600160401b031690565b905090565b5f8054604051632d5e94a760e01b81526001600160a01b038681166004830152858116602483015283921690632d5e94a790604401602060405180830381865afa158015610460573d5f803e3d5ffd5b505050506040513d601f19601f8201168201806040525081019061048491906122a2565b604051632550332960e11b815290915081906001600160a01b03821690634aa06652906104b9908990899089906004016122bd565b602060405180830381865afa1580156104d4573d5f803e3d5ffd5b505050506040513d601f19601f820116820180604052508101906104f891906122e1565b925050505b9392505050565b61050c6119cd565b61051582611a71565b61051f8282611a79565b5050565b5f61052c611b35565b505f8051602061265583398151915290565b604051632ab4040d60e11b815233600482015281906001600160a01b03821690635568081a906024015f604051808303815f87803b15801561057e575f80fd5b505af1158015610590573d5f803e3d5ffd5b505050505050565b5f8083116105c15760405162461bcd60e51b81526004016105b8906122f8565b60405180910390fd5b5f8054604051632d5e94a760e01b81526001600160a01b038881166004830152878116602483015290911690632d5e94a790604401602060405180830381865afa158015610611573d5f803e3d5ffd5b505050506040513d601f19601f8201168201806040525081019061063591906122a2565b6040516323b872dd60e01b815290915081906001600160a01b038816906323b872dd9061066a90339030908a906004016122bd565b6020604051808303815f875af1158015610686573d5f803e3d5ffd5b505050506040513d601f19601f820116820180604052508101906106aa9190612341565b5060405163095ea7b360e01b81526001600160a01b0383811660048301526024820187905288169063095ea7b3906044016020604051808303815f875af11580156106f7573d5f803e3d5ffd5b505050506040513d601f19601f8201168201806040525081019061071b9190612341565b50604051631ba0488760e21b81525f906001600160a01b03831690636e81221c90610750908b908b908b908b9060040161235a565b6020604051808303815f875af115801561076c573d5f803e3d5ffd5b505050506040513d601f19601f8201168201806040525081019061079091906122e1565b98975050505050505050565b6107a4611b7e565b6107ad5f611bd9565b565b6107b7611b7e565b5f80546001600160a01b0319166001600160a01b0392909216919091179055565b5f8083116107f85760405162461bcd60e51b81526004016105b8906122f8565b5f8054604051635a1a073560e11b81526001600160a01b0388811660048301529091169063b4340e6a906024015f60405180830381865afa15801561083f573d5f803e3d5ffd5b505050506040513d5f823e601f3d908101601f1916820160405261086691908101906123a7565b90505f8080805b8451811015610a76575f85828151811061088957610889612440565b602002602001015190505f80826001600160a01b03166389ab35326040518163ffffffff1660e01b81526004015f60405180830381865afa1580156108d0573d5f803e3d5ffd5b505050506040513d5f823e601f3d908101601f191682016040526108f791908101906124bb565b915091505f80846001600160a01b03166336bf6e396040518163ffffffff1660e01b81526004015f60405180830381865afa158015610938573d5f803e3d5ffd5b505050506040513d5f823e601f3d908101601f1916820160405261095f9190810190612577565b915091505f5b8451811015610a64578f6001600160a01b0316866001600160a01b031663d14ef46d836040518263ffffffff1660e01b81526004016109a691815260200190565b6040805180830381865afa1580156109c0573d5f803e3d5ffd5b505050506040513d601f19601f820116820180604052508101906109e491906125b0565b516001600160a01b031603610a5c575f828281518110610a0657610a06612440565b60200260200101519050858281518110610a2257610a22612440565b60200260200101518015610a3557508881115b15610a5a578098508b8881518110610a4f57610a4f612440565b602002602001015199505b505b600101610965565b50506001909401935061086d92505050565b506001600160a01b038216610ac65760405162461bcd60e51b8152602060048201526016602482015275139bc81cdd5a5d18589b19481c1bdbdb08199bdd5b9960521b60448201526064016105b8565b6040516323b872dd60e01b815282906001600160a01b038b16906323b872dd90610af890339030908d906004016122bd565b6020604051808303815f875af1158015610b14573d5f803e3d5ffd5b505050506040513d601f19601f82011682018060405250810190610b389190612341565b5060405163095ea7b360e01b81526001600160a01b038481166004830152602482018a90528b169063095ea7b3906044016020604051808303815f875af1158015610b85573d5f803e3d5ffd5b505050506040513d601f19601f82011682018060405250810190610ba99190612341565b50604051631ba0488760e21b81525f906001600160a01b03831690636e81221c90610bde908e908e908e908e9060040161235a565b6020604051808303815f875af1158015610bfa573d5f803e3d5ffd5b505050506040513d601f19601f82011682018060405250810190610c1e91906122e1565b9b9a5050505050505050505050565b5f805160206126758339815191528054829190600160401b900460ff1680610c62575080546001600160401b03808416911610155b15610c805760405163f92ee8a960e01b815260040160405180910390fd5b8054600160401b6001600160401b03841668ffffffffffffffffff1990921682171782555f80546001600160a01b0319166001600160a01b038716179055815460ff60401b191682556040519081527fc7f505b2f371ae2175ee4913f4499e1f2633a7b5936321eed1cdaeb6115181d29060200160405180910390a150505050565b5f54604051635a1a073560e11b81526001600160a01b038381166004830152606092169063b4340e6a906024015f60405180830381865afa158015610d49573d5f803e3d5ffd5b505050506040513d5f823e601f3d908101601f19168201604052610d7091908101906123a7565b92915050565b5f805160206126758339815191528054600160401b810460ff1615906001600160401b03165f81158015610da75750825b90505f826001600160401b03166001148015610dc25750303b155b905081158015610dd0575080155b15610dee5760405163f92ee8a960e01b815260040160405180910390fd5b845467ffffffffffffffff191660011785558315610e1857845460ff60401b1916600160401b1785555b610e20611c49565b610e2933611c51565b5f80546001600160a01b0319166001600160a01b038816179055831561059057845460ff60401b19168555604051600181527fc7f505b2f371ae2175ee4913f4499e1f2633a7b5936321eed1cdaeb6115181d29060200160405180910390a1505050505050565b60608786148015610ea057508584145b8015610eab57508382145b610ef75760405162461bcd60e51b815260206004820152601c60248201527f496e70757420617272617973206c656e677468206d69736d617463680000000060448201526064016105b8565b5f886001600160401b03811115610f1057610f10611ec0565b604051908082528060200260200182016040528015610f39578160200160208202803683370190505b5090505f5b898110156112e1575f878783818110610f5957610f59612440565b9050602002013511610f7d5760405162461bcd60e51b81526004016105b8906122f8565b8a8a82818110610f8f57610f8f612440565b9050602002016020810190610fa49190611fa5565b6001600160a01b03166323b872dd33308a8a86818110610fc657610fc6612440565b905060200201356040518463ffffffff1660e01b8152600401610feb939291906122bd565b6020604051808303815f875af1158015611007573d5f803e3d5ffd5b505050506040513d601f19601f8201168201806040525081019061102b9190612341565b505f80546001600160a01b0316632d5e94a78d8d8581811061104f5761104f612440565b90506020020160208101906110649190611fa5565b8c8c8681811061107657611076612440565b905060200201602081019061108b9190611fa5565b6040516001600160e01b031960e085901b1681526001600160a01b03928316600482015291166024820152604401602060405180830381865afa1580156110d4573d5f803e3d5ffd5b505050506040513d601f19601f820116820180604052508101906110f891906122a2565b9050808c8c8481811061110d5761110d612440565b90506020020160208101906111229190611fa5565b6001600160a01b031663095ea7b3838b8b8781811061114357611143612440565b6040516001600160e01b031960e087901b1681526001600160a01b03909416600485015260200291909101356024830152506044016020604051808303815f875af1158015611194573d5f803e3d5ffd5b505050506040513d601f19601f820116820180604052508101906111b89190612341565b505f816001600160a01b0316636e81221c8f8f878181106111db576111db612440565b90506020020160208101906111f09190611fa5565b8e8e8881811061120257611202612440565b90506020020160208101906112179190611fa5565b8d8d8981811061122957611229612440565b905060200201358c8c8a81811061124257611242612440565b90506020020160208101906112579190611fa5565b6040518563ffffffff1660e01b8152600401611276949392919061235a565b6020604051808303815f875af1158015611292573d5f803e3d5ffd5b505050506040513d601f19601f820116820180604052508101906112b691906122e1565b9050808585815181106112cb576112cb612440565b6020908102919091010152505050600101610f3e565b509998505050505050505050565b5f8290505f816001600160a01b03166367e4ac2c6040518163ffffffff1660e01b81526004015f60405180830381865afa15801561132f573d5f803e3d5ffd5b505050506040513d5f823e601f3d908101601f1916820160405261135691908101906123a7565b90505f5b8151811015611417575f82828151811061137657611376612440565b602002602001015190505f88888481811061139357611393612440565b905060200201359050816001600160a01b03166323b872dd3330846040518463ffffffff1660e01b81526004016113cc939291906122bd565b6020604051808303815f875af11580156113e8573d5f803e3d5ffd5b505050506040513d601f19601f8201168201806040525081019061140c9190612341565b50505060010161135a565b506040516335313c2160e11b81526001600160a01b038481166004830152831690636a627842906024016020604051808303815f875af115801561145d573d5f803e3d5ffd5b505050506040513d601f19601f8201168201806040525081019061148191906122e1565b50505050505050565b611492611b7e565b6001600160a01b0381166114bb57604051631e4fbdf760e01b81525f60048201526024016105b8565b6114c481611bd9565b50565b5f83116115165760405162461bcd60e51b815260206004820152601f60248201527f5368617265206d7573742062652067726561746572207468616e207a65726f0060448201526064016105b8565b604051636eb1769f60e11b815233600482015230602482015282905f906001600160a01b0383169063dd62ed3e90604401602060405180830381865afa158015611562573d5f803e3d5ffd5b505050506040513d601f19601f8201168201806040525081019061158691906122e1565b9050848110156115d15760405162461bcd60e51b8152602060048201526016602482015275496e73756666696369656e7420616c6c6f77616e636560501b60448201526064016105b8565b6040516370a0823160e01b81523360048201525f906001600160a01b038416906370a0823190602401602060405180830381865afa158015611615573d5f803e3d5ffd5b505050506040513d601f19601f8201168201806040525081019061163991906122e1565b9050858110156116825760405162461bcd60e51b8152602060048201526014602482015273496e73756666696369656e742062616c616e636560601b60448201526064016105b8565b6040516323b872dd60e01b81525f906001600160a01b038516906323b872dd906116b49033908a908c906004016122bd565b6020604051808303815f875af11580156116d0573d5f803e3d5ffd5b505050506040513d601f19601f820116820180604052508101906116f49190612341565b9050806117355760405162461bcd60e51b815260206004820152600f60248201526e151c985b9cd9995c8819985a5b1959608a1b60448201526064016105b8565b60405163226bf2d160e21b81526001600160a01b0386811660048301528716906389afcb44906024015f604051808303815f87803b158015611775575f80fd5b505af1158015611787573d5f803e3d5ffd5b5050505050505050505050565b5f546040516389345efb60e01b81523360048201526001600160a01b03909116906389345efb90602401602060405180830381865afa1580156117d9573d5f803e3d5ffd5b505050506040513d601f19601f820116820180604052508101906117fd9190612341565b6118365760405162461bcd60e51b815260206004820152600a6024820152694f6e6c7920506f6f6c7360b01b60448201526064016105b8565b5f336001600160a01b0316630902f1ac6040518163ffffffff1660e01b81526004015f60405180830381865afa158015611872573d5f803e3d5ffd5b505050506040513d5f823e601f3d908101601f191682016040526118999190810190612605565b90505f336001600160a01b03166367e4ac2c6040518163ffffffff1660e01b81526004015f60405180830381865afa1580156118d7573d5f803e3d5ffd5b505050506040513d5f823e601f3d908101601f191682016040526118fe91908101906123a7565b90505f5b81518110156119c85781818151811061191d5761191d612440565b60200260200101516001600160a01b031663a9059cbb3385848151811061194657611946612440565b60200260200101516040518363ffffffff1660e01b815260040161197f9291906001600160a01b03929092168252602082015260400190565b6020604051808303815f875af115801561199b573d5f803e3d5ffd5b505050506040513d601f19601f820116820180604052508101906119bf9190612341565b50600101611902565b505050565b306001600160a01b037f0000000000000000000000000000000000000000000000000000000000000000161480611a5357507f00000000000000000000000000000000000000000000000000000000000000006001600160a01b0316611a475f80516020612655833981519152546001600160a01b031690565b6001600160a01b031614155b156107ad5760405163703e46dd60e11b815260040160405180910390fd5b6114c4611b7e565b816001600160a01b03166352d1902d6040518163ffffffff1660e01b8152600401602060405180830381865afa925050508015611ad3575060408051601f3d908101601f19168201909252611ad0918101906122e1565b60015b611afb57604051634c9c8ce360e01b81526001600160a01b03831660048201526024016105b8565b5f805160206126558339815191528114611b2b57604051632a87526960e21b8152600481018290526024016105b8565b6119c88383611c62565b306001600160a01b037f000000000000000000000000000000000000000000000000000000000000000016146107ad5760405163703e46dd60e11b815260040160405180910390fd5b33611bb07f9016d09d72d40fdae2fd8ceac6b6234c7706214fd39c1cd1e609a0528c199300546001600160a01b031690565b6001600160a01b0316146107ad5760405163118cdaa760e01b81523360048201526024016105b8565b7f9016d09d72d40fdae2fd8ceac6b6234c7706214fd39c1cd1e609a0528c19930080546001600160a01b031981166001600160a01b03848116918217845560405192169182907f8be0079c531659141344cd1fd0a4f28419497f9722a3daafe3b4186f6b6457e0905f90a3505050565b6107ad611cb7565b611c59611cb7565b6114c481611ced565b611c6b82611cf5565b6040516001600160a01b038316907fbc7cd75a20ee27fd9adebab32041f755214dbc6bffa90cc0225b39da2e5c2d3b905f90a2805115611caf576119c88282611d58565b61051f611dca565b5f8051602061267583398151915254600160401b900460ff166107ad57604051631afcd79f60e31b815260040160405180910390fd5b611492611cb7565b806001600160a01b03163b5f03611d2a57604051634c9c8ce360e01b81526001600160a01b03821660048201526024016105b8565b5f8051602061265583398151915280546001600160a01b0319166001600160a01b0392909216919091179055565b60605f80846001600160a01b031684604051611d74919061263e565b5f60405180830381855af49150503d805f8114611dac576040519150601f19603f3d011682016040523d82523d5f602084013e611db1565b606091505b5091509150611dc1858383611de9565b95945050505050565b34156107ad5760405163b398979f60e01b815260040160405180910390fd5b606082611dfe57611df982611e45565b6104fd565b8151158015611e1557506001600160a01b0384163b155b15611e3e57604051639996b31560e01b81526001600160a01b03851660048201526024016105b8565b50806104fd565b805115611e555780518082602001fd5b604051630a12f52160e11b815260040160405180910390fd5b6001600160a01b03811681146114c4575f80fd5b5f805f60608486031215611e94575f80fd5b8335611e9f81611e6e565b92506020840135611eaf81611e6e565b929592945050506040919091013590565b634e487b7160e01b5f52604160045260245ffd5b604051601f8201601f191681016001600160401b0381118282101715611efc57611efc611ec0565b604052919050565b5f8060408385031215611f15575f80fd5b8235611f2081611e6e565b91506020838101356001600160401b0380821115611f3c575f80fd5b818601915086601f830112611f4f575f80fd5b813581811115611f6157611f61611ec0565b611f73601f8201601f19168501611ed4565b91508082528784828501011115611f88575f80fd5b80848401858401375f848284010152508093505050509250929050565b5f60208284031215611fb5575f80fd5b81356104fd81611e6e565b5f805f8060808587031215611fd3575f80fd5b8435611fde81611e6e565b93506020850135611fee81611e6e565b925060408501359150606085013561200581611e6e565b939692955090935050565b5f8060408385031215612021575f80fd5b823561202c81611e6e565b915060208301356001600160401b0381168114612047575f80fd5b809150509250929050565b602081525f82518060208401528060208501604085015e5f604082850101526040601f19601f83011684010191505092915050565b602080825282518282018190525f9190848201906040850190845b818110156120c75783516001600160a01b0316835292840192918401916001016120a2565b50909695505050505050565b5f8083601f8401126120e3575f80fd5b5081356001600160401b038111156120f9575f80fd5b6020830191508360208260051b8501011115612113575f80fd5b9250929050565b5f805f805f805f806080898b031215612131575f80fd5b88356001600160401b0380821115612147575f80fd5b6121538c838d016120d3565b909a50985060208b013591508082111561216b575f80fd5b6121778c838d016120d3565b909850965060408b013591508082111561218f575f80fd5b61219b8c838d016120d3565b909650945060608b01359150808211156121b3575f80fd5b506121c08b828c016120d3565b999c989b5096995094979396929594505050565b602080825282518282018190525f9190848201906040850190845b818110156120c7578351835292840192918401916001016121ef565b5f805f806060858703121561221e575f80fd5b84356001600160401b03811115612233575f80fd5b61223f878288016120d3565b909550935050602085013561225381611e6e565b9150604085013561200581611e6e565b5f805f60608486031215612275575f80fd5b83359250602084013561228781611e6e565b9150604084013561229781611e6e565b809150509250925092565b5f602082840312156122b2575f80fd5b81516104fd81611e6e565b6001600160a01b039384168152919092166020820152604081019190915260600190565b5f602082840312156122f1575f80fd5b5051919050565b6020808252818101527f416d6f756e74206d7573742062652067726561746572207468616e207a65726f604082015260600190565b8051801515811461233c575f80fd5b919050565b5f60208284031215612351575f80fd5b6104fd8261232d565b6001600160a01b03948516815292841660208401526040830191909152909116606082015260800190565b5f6001600160401b0382111561239d5761239d611ec0565b5060051b60200190565b5f60208083850312156123b8575f80fd5b82516001600160401b038111156123cd575f80fd5b8301601f810185136123dd575f80fd5b80516123f06123eb82612385565b611ed4565b81815260059190911b8201830190838101908783111561240e575f80fd5b928401925b8284101561243557835161242681611e6e565b82529284019290840190612413565b979650505050505050565b634e487b7160e01b5f52603260045260245ffd5b5f82601f830112612463575f80fd5b815160206124736123eb83612385565b8083825260208201915060208460051b870101935086841115612494575f80fd5b602086015b848110156124b05780518352918301918301612499565b509695505050505050565b5f80604083850312156124cc575f80fd5b82516001600160401b03808211156124e2575f80fd5b818501915085601f8301126124f5575f80fd5b815160206125056123eb83612385565b82815260059290921b84018101918181019089841115612523575f80fd5b948201945b83861015612548576125398661232d565b82529482019490820190612528565b91880151919650909350505080821115612560575f80fd5b5061256d85828601612454565b9150509250929050565b5f8060408385031215612588575f80fd5b8251915060208301516001600160401b038111156125a4575f80fd5b61256d85828601612454565b5f604082840312156125c0575f80fd5b604051604081018181106001600160401b03821117156125e2576125e2611ec0565b60405282516125f081611e6e565b81526020928301519281019290925250919050565b5f60208284031215612615575f80fd5b81516001600160401b0381111561262a575f80fd5b61263684828501612454565b949350505050565b5f82518060208501845e5f92019182525091905056fe360894a13ba1a3210667c828492db98dca3e2076cc3735a920a3ca505d382bbcf0c57e16840df040f15088dc2f81fe391c3923bec73e23a9662efc9c229c6a00a264697066735822122086f13c2ecc235c4ba5252fa9436124ee8917e07e2bae81e87076abfbd25d18c764736f6c63430008190033",
    "sourcePath": "c:/Users/Utente/Source/repos/baluni-contracts/contracts/BaluniV1PoolPeriphery.sol",
    "compiler": {
        "name": "solc",
        "version": "0.8.25+commit.b61c2a91"
    },
    "functionHashes": {
        "UPGRADE_INTERFACE_VERSION()": "ad3cb1cc",
        "addLiquidity(uint256[],address,address)": "ec0cd2eb",
        "batchSwap(address[],address[],uint256[],address[])": "e74e9b06",
        "changePoolFactory(address)": "72591be5",
        "getAmountOut(address,address,uint256)": "4aa06652",
        "getPoolsContainingToken(address)": "ae3cce1c",
        "getVersion()": "0d8e6e2c",
        "initialize(address)": "c4d66de8",
        "owner()": "8da5cb5b",
        "performRebalanceIfNeeded(address)": "5568081a",
        "poolFactory()": "4219dc40",
        "proxiableUUID()": "52d1902d",
        "reinitialize(address,uint64)": "8f2248bc",
        "removeLiquidity(uint256,address,address)": "f31abcc4",
        "renounceOwnership()": "715018a6",
        "smartSwap(address,address,uint256,address)": "7442eca6",
        "swap(address,address,uint256,address)": "6e81221c",
        "transferOwnership(address)": "f2fde38b",
        "transferToPool()": "fe110116",
        "upgradeToAndCall(address,bytes)": "4f1ef286"
    },
    "gasEstimates": {
        "creation": {
            "codeDepositCost": "1986000",
            "executionCost": "infinite",
            "totalCost": "infinite"
        },
        "external": {
            "UPGRADE_INTERFACE_VERSION()": "infinite",
            "addLiquidity(uint256[],address,address)": "infinite",
            "batchSwap(address[],address[],uint256[],address[])": "infinite",
            "changePoolFactory(address)": "26848",
            "getAmountOut(address,address,uint256)": "infinite",
            "getPoolsContainingToken(address)": "infinite",
            "getVersion()": "infinite",
            "initialize(address)": "infinite",
            "owner()": "2353",
            "performRebalanceIfNeeded(address)": "infinite",
            "poolFactory()": "2381",
            "proxiableUUID()": "infinite",
            "reinitialize(address,uint64)": "infinite",
            "removeLiquidity(uint256,address,address)": "infinite",
            "renounceOwnership()": "infinite",
            "smartSwap(address,address,uint256,address)": "infinite",
            "swap(address,address,uint256,address)": "infinite",
            "transferOwnership(address)": "infinite",
            "transferToPool()": "infinite",
            "upgradeToAndCall(address,bytes)": "infinite"
        },
        "internal": {
            "_authorizeUpgrade(address)": "infinite"
        }
    }
}