{
    "contractName": "BaluniV1Pool",
    "abi": [
        {
            "inputs": [
                {
                    "internalType": "address",
                    "name": "_rebalancer",
                    "type": "address"
                },
                {
                    "internalType": "address[]",
                    "name": "_assets",
                    "type": "address[]"
                },
                {
                    "internalType": "uint256[]",
                    "name": "_weights",
                    "type": "uint256[]"
                },
                {
                    "internalType": "uint256",
                    "name": "_trigger",
                    "type": "uint256"
                }
            ],
            "stateMutability": "nonpayable",
            "type": "constructor"
        },
        {
            "inputs": [
                {
                    "internalType": "address",
                    "name": "spender",
                    "type": "address"
                },
                {
                    "internalType": "uint256",
                    "name": "allowance",
                    "type": "uint256"
                },
                {
                    "internalType": "uint256",
                    "name": "needed",
                    "type": "uint256"
                }
            ],
            "name": "ERC20InsufficientAllowance",
            "type": "error"
        },
        {
            "inputs": [
                {
                    "internalType": "address",
                    "name": "sender",
                    "type": "address"
                },
                {
                    "internalType": "uint256",
                    "name": "balance",
                    "type": "uint256"
                },
                {
                    "internalType": "uint256",
                    "name": "needed",
                    "type": "uint256"
                }
            ],
            "name": "ERC20InsufficientBalance",
            "type": "error"
        },
        {
            "inputs": [
                {
                    "internalType": "address",
                    "name": "approver",
                    "type": "address"
                }
            ],
            "name": "ERC20InvalidApprover",
            "type": "error"
        },
        {
            "inputs": [
                {
                    "internalType": "address",
                    "name": "receiver",
                    "type": "address"
                }
            ],
            "name": "ERC20InvalidReceiver",
            "type": "error"
        },
        {
            "inputs": [
                {
                    "internalType": "address",
                    "name": "sender",
                    "type": "address"
                }
            ],
            "name": "ERC20InvalidSender",
            "type": "error"
        },
        {
            "inputs": [
                {
                    "internalType": "address",
                    "name": "spender",
                    "type": "address"
                }
            ],
            "name": "ERC20InvalidSpender",
            "type": "error"
        },
        {
            "inputs": [],
            "name": "ReentrancyGuardReentrantCall",
            "type": "error"
        },
        {
            "anonymous": false,
            "inputs": [
                {
                    "indexed": true,
                    "internalType": "address",
                    "name": "owner",
                    "type": "address"
                },
                {
                    "indexed": true,
                    "internalType": "address",
                    "name": "spender",
                    "type": "address"
                },
                {
                    "indexed": false,
                    "internalType": "uint256",
                    "name": "value",
                    "type": "uint256"
                }
            ],
            "name": "Approval",
            "type": "event"
        },
        {
            "anonymous": false,
            "inputs": [
                {
                    "indexed": true,
                    "internalType": "address",
                    "name": "user",
                    "type": "address"
                },
                {
                    "indexed": false,
                    "internalType": "uint256[]",
                    "name": "amounts",
                    "type": "uint256[]"
                },
                {
                    "indexed": false,
                    "internalType": "uint256",
                    "name": "sharesMinted",
                    "type": "uint256"
                }
            ],
            "name": "LiquidityAdded",
            "type": "event"
        },
        {
            "anonymous": false,
            "inputs": [
                {
                    "indexed": true,
                    "internalType": "address",
                    "name": "user",
                    "type": "address"
                },
                {
                    "indexed": false,
                    "internalType": "uint256[]",
                    "name": "amounts",
                    "type": "uint256[]"
                },
                {
                    "indexed": false,
                    "internalType": "uint256",
                    "name": "sharesBurned",
                    "type": "uint256"
                }
            ],
            "name": "LiquidityRemoved",
            "type": "event"
        },
        {
            "anonymous": false,
            "inputs": [
                {
                    "indexed": true,
                    "internalType": "address",
                    "name": "user",
                    "type": "address"
                },
                {
                    "indexed": false,
                    "internalType": "uint256",
                    "name": "asset1Amount",
                    "type": "uint256"
                },
                {
                    "indexed": false,
                    "internalType": "uint256",
                    "name": "asset2Amount",
                    "type": "uint256"
                },
                {
                    "indexed": false,
                    "internalType": "uint256",
                    "name": "sharesBurned",
                    "type": "uint256"
                }
            ],
            "name": "LiquidityRemoved",
            "type": "event"
        },
        {
            "anonymous": false,
            "inputs": [
                {
                    "indexed": true,
                    "internalType": "address",
                    "name": "by",
                    "type": "address"
                },
                {
                    "indexed": false,
                    "internalType": "address[]",
                    "name": "assets",
                    "type": "address[]"
                }
            ],
            "name": "RebalancePerformed",
            "type": "event"
        },
        {
            "anonymous": false,
            "inputs": [
                {
                    "indexed": true,
                    "internalType": "address",
                    "name": "user",
                    "type": "address"
                },
                {
                    "indexed": true,
                    "internalType": "address",
                    "name": "fromToken",
                    "type": "address"
                },
                {
                    "indexed": true,
                    "internalType": "address",
                    "name": "toToken",
                    "type": "address"
                },
                {
                    "indexed": false,
                    "internalType": "uint256",
                    "name": "amountIn",
                    "type": "uint256"
                },
                {
                    "indexed": false,
                    "internalType": "uint256",
                    "name": "amountOut",
                    "type": "uint256"
                }
            ],
            "name": "Swap",
            "type": "event"
        },
        {
            "anonymous": false,
            "inputs": [
                {
                    "indexed": true,
                    "internalType": "address",
                    "name": "from",
                    "type": "address"
                },
                {
                    "indexed": true,
                    "internalType": "address",
                    "name": "to",
                    "type": "address"
                },
                {
                    "indexed": false,
                    "internalType": "uint256",
                    "name": "value",
                    "type": "uint256"
                }
            ],
            "name": "Transfer",
            "type": "event"
        },
        {
            "inputs": [],
            "name": "ONE",
            "outputs": [
                {
                    "internalType": "uint256",
                    "name": "",
                    "type": "uint256"
                }
            ],
            "stateMutability": "view",
            "type": "function"
        },
        {
            "inputs": [],
            "name": "SWAP_FEE_BPS",
            "outputs": [
                {
                    "internalType": "uint256",
                    "name": "",
                    "type": "uint256"
                }
            ],
            "stateMutability": "view",
            "type": "function"
        },
        {
            "inputs": [
                {
                    "internalType": "uint256[]",
                    "name": "amounts",
                    "type": "uint256[]"
                }
            ],
            "name": "addLiquidity",
            "outputs": [
                {
                    "internalType": "uint256",
                    "name": "",
                    "type": "uint256"
                }
            ],
            "stateMutability": "nonpayable",
            "type": "function"
        },
        {
            "inputs": [
                {
                    "internalType": "address",
                    "name": "owner",
                    "type": "address"
                },
                {
                    "internalType": "address",
                    "name": "spender",
                    "type": "address"
                }
            ],
            "name": "allowance",
            "outputs": [
                {
                    "internalType": "uint256",
                    "name": "",
                    "type": "uint256"
                }
            ],
            "stateMutability": "view",
            "type": "function"
        },
        {
            "inputs": [
                {
                    "internalType": "address",
                    "name": "spender",
                    "type": "address"
                },
                {
                    "internalType": "uint256",
                    "name": "value",
                    "type": "uint256"
                }
            ],
            "name": "approve",
            "outputs": [
                {
                    "internalType": "bool",
                    "name": "",
                    "type": "bool"
                }
            ],
            "stateMutability": "nonpayable",
            "type": "function"
        },
        {
            "inputs": [
                {
                    "internalType": "uint256",
                    "name": "assetIndex",
                    "type": "uint256"
                }
            ],
            "name": "assetToUSD",
            "outputs": [
                {
                    "internalType": "uint256",
                    "name": "",
                    "type": "uint256"
                }
            ],
            "stateMutability": "view",
            "type": "function"
        },
        {
            "inputs": [
                {
                    "internalType": "uint256",
                    "name": "",
                    "type": "uint256"
                }
            ],
            "name": "assets",
            "outputs": [
                {
                    "internalType": "address",
                    "name": "",
                    "type": "address"
                }
            ],
            "stateMutability": "view",
            "type": "function"
        },
        {
            "inputs": [
                {
                    "internalType": "address",
                    "name": "account",
                    "type": "address"
                }
            ],
            "name": "balanceOf",
            "outputs": [
                {
                    "internalType": "uint256",
                    "name": "",
                    "type": "uint256"
                }
            ],
            "stateMutability": "view",
            "type": "function"
        },
        {
            "inputs": [
                {
                    "internalType": "address",
                    "name": "",
                    "type": "address"
                }
            ],
            "name": "balances",
            "outputs": [
                {
                    "internalType": "uint256",
                    "name": "",
                    "type": "uint256"
                }
            ],
            "stateMutability": "view",
            "type": "function"
        },
        {
            "inputs": [
                {
                    "internalType": "address",
                    "name": "_newRebalancer",
                    "type": "address"
                }
            ],
            "name": "changeRebalancer",
            "outputs": [],
            "stateMutability": "nonpayable",
            "type": "function"
        },
        {
            "inputs": [],
            "name": "decimals",
            "outputs": [
                {
                    "internalType": "uint8",
                    "name": "",
                    "type": "uint8"
                }
            ],
            "stateMutability": "view",
            "type": "function"
        },
        {
            "inputs": [
                {
                    "internalType": "uint256",
                    "name": "share",
                    "type": "uint256"
                },
                {
                    "internalType": "address",
                    "name": "recipient",
                    "type": "address"
                }
            ],
            "name": "exit",
            "outputs": [],
            "stateMutability": "nonpayable",
            "type": "function"
        },
        {
            "inputs": [],
            "name": "factory",
            "outputs": [
                {
                    "internalType": "address",
                    "name": "",
                    "type": "address"
                }
            ],
            "stateMutability": "view",
            "type": "function"
        },
        {
            "inputs": [
                {
                    "internalType": "address",
                    "name": "fromToken",
                    "type": "address"
                },
                {
                    "internalType": "address",
                    "name": "toToken",
                    "type": "address"
                },
                {
                    "internalType": "uint256",
                    "name": "amount",
                    "type": "uint256"
                }
            ],
            "name": "getAmountOut",
            "outputs": [
                {
                    "internalType": "uint256",
                    "name": "",
                    "type": "uint256"
                }
            ],
            "stateMutability": "view",
            "type": "function"
        },
        {
            "inputs": [],
            "name": "getAssets",
            "outputs": [
                {
                    "internalType": "address[]",
                    "name": "",
                    "type": "address[]"
                }
            ],
            "stateMutability": "view",
            "type": "function"
        },
        {
            "inputs": [],
            "name": "getDeviation",
            "outputs": [
                {
                    "internalType": "bool[]",
                    "name": "directions",
                    "type": "bool[]"
                },
                {
                    "internalType": "uint256[]",
                    "name": "deviations",
                    "type": "uint256[]"
                }
            ],
            "stateMutability": "view",
            "type": "function"
        },
        {
            "inputs": [],
            "name": "getReserves",
            "outputs": [
                {
                    "internalType": "uint256[]",
                    "name": "",
                    "type": "uint256[]"
                }
            ],
            "stateMutability": "view",
            "type": "function"
        },
        {
            "inputs": [],
            "name": "getUnitPriceUSD",
            "outputs": [
                {
                    "internalType": "uint256",
                    "name": "",
                    "type": "uint256"
                }
            ],
            "stateMutability": "view",
            "type": "function"
        },
        {
            "inputs": [],
            "name": "getWeights",
            "outputs": [
                {
                    "internalType": "uint256[]",
                    "name": "",
                    "type": "uint256[]"
                }
            ],
            "stateMutability": "view",
            "type": "function"
        },
        {
            "inputs": [
                {
                    "internalType": "address",
                    "name": "asset",
                    "type": "address"
                }
            ],
            "name": "isAssetSupported",
            "outputs": [
                {
                    "internalType": "bool",
                    "name": "",
                    "type": "bool"
                }
            ],
            "stateMutability": "view",
            "type": "function"
        },
        {
            "inputs": [],
            "name": "name",
            "outputs": [
                {
                    "internalType": "string",
                    "name": "",
                    "type": "string"
                }
            ],
            "stateMutability": "view",
            "type": "function"
        },
        {
            "inputs": [
                {
                    "internalType": "address",
                    "name": "_sender",
                    "type": "address"
                }
            ],
            "name": "performRebalanceIfNeeded",
            "outputs": [],
            "stateMutability": "nonpayable",
            "type": "function"
        },
        {
            "inputs": [],
            "name": "rebalancer",
            "outputs": [
                {
                    "internalType": "contract IBaluniV1Rebalancer",
                    "name": "",
                    "type": "address"
                }
            ],
            "stateMutability": "view",
            "type": "function"
        },
        {
            "inputs": [
                {
                    "internalType": "address",
                    "name": "fromToken",
                    "type": "address"
                },
                {
                    "internalType": "address",
                    "name": "toToken",
                    "type": "address"
                },
                {
                    "internalType": "uint256",
                    "name": "amount",
                    "type": "uint256"
                }
            ],
            "name": "swap",
            "outputs": [
                {
                    "internalType": "uint256",
                    "name": "",
                    "type": "uint256"
                }
            ],
            "stateMutability": "nonpayable",
            "type": "function"
        },
        {
            "inputs": [],
            "name": "symbol",
            "outputs": [
                {
                    "internalType": "string",
                    "name": "",
                    "type": "string"
                }
            ],
            "stateMutability": "view",
            "type": "function"
        },
        {
            "inputs": [
                {
                    "internalType": "address",
                    "name": "token",
                    "type": "address"
                }
            ],
            "name": "tokenLiquidityInUSD",
            "outputs": [
                {
                    "internalType": "uint256",
                    "name": "",
                    "type": "uint256"
                }
            ],
            "stateMutability": "view",
            "type": "function"
        },
        {
            "inputs": [],
            "name": "totalLiquidityUSD",
            "outputs": [
                {
                    "internalType": "uint256",
                    "name": "",
                    "type": "uint256"
                }
            ],
            "stateMutability": "view",
            "type": "function"
        },
        {
            "inputs": [],
            "name": "totalSupply",
            "outputs": [
                {
                    "internalType": "uint256",
                    "name": "",
                    "type": "uint256"
                }
            ],
            "stateMutability": "view",
            "type": "function"
        },
        {
            "inputs": [
                {
                    "internalType": "address",
                    "name": "to",
                    "type": "address"
                },
                {
                    "internalType": "uint256",
                    "name": "value",
                    "type": "uint256"
                }
            ],
            "name": "transfer",
            "outputs": [
                {
                    "internalType": "bool",
                    "name": "",
                    "type": "bool"
                }
            ],
            "stateMutability": "nonpayable",
            "type": "function"
        },
        {
            "inputs": [
                {
                    "internalType": "address",
                    "name": "from",
                    "type": "address"
                },
                {
                    "internalType": "address",
                    "name": "to",
                    "type": "address"
                },
                {
                    "internalType": "uint256",
                    "name": "value",
                    "type": "uint256"
                }
            ],
            "name": "transferFrom",
            "outputs": [
                {
                    "internalType": "bool",
                    "name": "",
                    "type": "bool"
                }
            ],
            "stateMutability": "nonpayable",
            "type": "function"
        },
        {
            "inputs": [],
            "name": "trigger",
            "outputs": [
                {
                    "internalType": "uint256",
                    "name": "",
                    "type": "uint256"
                }
            ],
            "stateMutability": "view",
            "type": "function"
        },
        {
            "inputs": [
                {
                    "internalType": "uint256",
                    "name": "",
                    "type": "uint256"
                }
            ],
            "name": "weights",
            "outputs": [
                {
                    "internalType": "uint256",
                    "name": "",
                    "type": "uint256"
                }
            ],
            "stateMutability": "view",
            "type": "function"
        }
    ],
    "bytecode": "6080604052670de0b6b3a7640000600a5534801561001b575f80fd5b50604051612f6b380380612f6b83398101604081905261003a9161049d565b60405180604001604052806009815260200168042616c756e69204c560bc1b81525060405180604001604052806009815260200168042414c554e492d4c560bc1b815250816003908161008d91906105f6565b50600461009a82826105f6565b5050600160055550600b8054336001600160a01b031991821617909155600680549091166001600160a01b03861617905582516100de906007906020860190610300565b5081516100f2906008906020850190610363565b505f5b6007548110156102f3575f6001600160a01b03166007828154811061011c5761011c6106b5565b5f918252602090912001546001600160a01b0316036101825760405162461bcd60e51b815260206004820152601560248201527f496e76616c69642061737365742061646472657373000000000000000000000060448201526064015b60405180910390fd5b5f838281518110610195576101956106b5565b6020026020010151116101db5760405162461bcd60e51b815260206004820152600e60248201526d125b9d985b1a59081dd95a59da1d60921b6044820152606401610179565b5f600782815481106101ef576101ef6106b5565b5f91825260209091200154600654604051636eb1769f60e11b81523060048201526001600160a01b03918216602482015291169150819063dd62ed3e90604401602060405180830381865afa15801561024a573d5f803e3d5ffd5b505050506040513d601f19601f8201168201806040525081019061026e91906106c9565b5f036102ea5760065460405163095ea7b360e01b81526001600160a01b0391821660048201525f1960248201529082169063095ea7b3906044016020604051808303815f875af11580156102c4573d5f803e3d5ffd5b505050506040513d601f19601f820116820180604052508101906102e891906106e0565b505b506001016100f5565b5060095550610706915050565b828054828255905f5260205f20908101928215610353579160200282015b8281111561035357825182546001600160a01b0319166001600160a01b0390911617825560209092019160019091019061031e565b5061035f92915061039c565b5090565b828054828255905f5260205f20908101928215610353579160200282015b82811115610353578251825591602001919060010190610381565b5b8082111561035f575f815560010161039d565b80516001600160a01b03811681146103c6575f80fd5b919050565b634e487b7160e01b5f52604160045260245ffd5b604051601f8201601f191681016001600160401b0381118282101715610407576104076103cb565b604052919050565b5f6001600160401b03821115610427576104276103cb565b5060051b60200190565b5f82601f830112610440575f80fd5b815160206104556104508361040f565b6103df565b8083825260208201915060208460051b870101935086841115610476575f80fd5b602086015b84811015610492578051835291830191830161047b565b509695505050505050565b5f805f80608085870312156104b0575f80fd5b6104b9856103b0565b602086810151919550906001600160401b03808211156104d7575f80fd5b818801915088601f8301126104ea575f80fd5b81516104f86104508261040f565b81815260059190911b8301840190848101908b831115610516575f80fd5b938501935b8285101561053b5761052c856103b0565b8252938501939085019061051b565b60408b01519098509450505080831115610553575f80fd5b505061056187828801610431565b606096909601519497939650505050565b600181811c9082168061058657607f821691505b6020821081036105a457634e487b7160e01b5f52602260045260245ffd5b50919050565b601f8211156105f157805f5260205f20601f840160051c810160208510156105cf5750805b601f840160051c820191505b818110156105ee575f81556001016105db565b50505b505050565b81516001600160401b0381111561060f5761060f6103cb565b6106238161061d8454610572565b846105aa565b602080601f831160018114610656575f841561063f5750858301515b5f19600386901b1c1916600185901b1785556106ad565b5f85815260208120601f198616915b8281101561068457888601518255948401946001909101908401610665565b50858210156106a157878501515f19600388901b60f8161c191681555b505060018460011b0185555b505050505050565b634e487b7160e01b5f52603260045260245ffd5b5f602082840312156106d9575f80fd5b5051919050565b5f602082840312156106f0575f80fd5b815180151581146106ff575f80fd5b9392505050565b612858806107135f395ff3fe608060405234801561000f575f80fd5b50600436106101e7575f3560e01c806367a6c44011610109578063b5f163ff1161009e578063cfa807af1161006e578063cfa807af1461040c578063cff407591461041f578063dd62ed3e14610432578063df791e501461046a575f80fd5b8063b5f163ff146103ca578063c2ee3a08146103dd578063c45a0155146103e6578063cf35bdd0146103f9575f80fd5b80637fec8d38116100d95780637fec8d381461039057806389ab35321461039957806395d89b41146103af578063a9059cbb146103b7575f80fd5b806367a6c4401461034357806367e4ac2c1461034b5780636a3088571461036057806370a0823114610368575f80fd5b806323b872dd1161017f578063492ddc9b1161014f578063492ddc9b146103025780634aa066521461030a5780634de59aa31461031d5780635568081a14610330575f80fd5b806323b872dd146102ae57806327e235e3146102c1578063313ce567146102e0578063464b4158146102ef575f80fd5b8063095ea7b3116101ba578063095ea7b31461025a5780630c6b4c0c1461027d57806318160ddd1461029e57806322acb867146102a6575f80fd5b806301d22ccd146101eb57806306fdde031461021b5780630902f1ac146102305780630918281b14610245575b5f80fd5b6006546101fe906001600160a01b031681565b6040516001600160a01b0390911681526020015b60405180910390f35b61022361047d565b604051610212919061221f565b61023861050d565b604051610212919061228e565b6102586102533660046122b7565b610615565b005b61026d6102683660046122d2565b610685565b6040519015158152602001610212565b61029061028b3660046122b7565b61069e565b604051908152602001610212565b600254610290565b610238610837565b61026d6102bc3660046122fc565b61088c565b6102906102cf3660046122b7565b600c6020525f908152604090205481565b60405160128152602001610212565b61026d6102fd3660046122b7565b6108b1565b61029061090d565b6102906103183660046122fc565b61091e565b61029061032b36600461233a565b610aaa565b61025861033e3660046122b7565b610ea6565b610290601e81565b610353610f38565b60405161021291906123a9565b610290610f97565b6102906103763660046122b7565b6001600160a01b03165f9081526020819052604090205490565b61029060095481565b6103a1610fdf565b6040516102129291906123f5565b610223611193565b61026d6103c53660046122d2565b6111a2565b6102906103d836600461244e565b6111af565b610290600a5481565b600b546101fe906001600160a01b031681565b6101fe61040736600461244e565b6111ce565b61029061041a36600461244e565b6111f6565b61025861042d366004612465565b61126b565b610290610440366004612493565b6001600160a01b039182165f90815260016020908152604080832093909416825291909152205490565b6102906104783660046122fc565b6115fe565b60606003805461048c906124bf565b80601f01602080910402602001604051908101604052809291908181526020018280546104b8906124bf565b80156105035780601f106104da57610100808354040283529160200191610503565b820191905f5260205f20905b8154815290600101906020018083116104e657829003601f168201915b5050505050905090565b6007546060905f9067ffffffffffffffff81111561052d5761052d6124f1565b604051908082528060200260200182016040528015610556578160200160208202803683370190505b5090505f5b60075481101561060f576007818154811061057857610578612505565b5f918252602090912001546040516370a0823160e01b81523060048201526001600160a01b03909116906370a0823190602401602060405180830381865afa1580156105c6573d5f803e3d5ffd5b505050506040513d601f19601f820116820180604052508101906105ea9190612519565b8282815181106105fc576105fc612505565b602090810291909101015260010161055b565b50919050565b600b546001600160a01b031633146106635760405162461bcd60e51b815260206004820152600c60248201526b4f6e6c7920466163746f727960a01b60448201526064015b60405180910390fd5b600680546001600160a01b0319166001600160a01b0392909216919091179055565b5f33610692818585611962565b60019150505b92915050565b5f805f90505f60065f9054906101000a90046001600160a01b03166001600160a01b031663bc06e81d6040518163ffffffff1660e01b8152600401602060405180830381865afa1580156106f4573d5f803e3d5ffd5b505050506040513d601f19601f820116820180604052508101906107189190612530565b90505f5b60075481101561082e575f6007828154811061073a5761073a612505565b5f9182526020808320909101546001600160a01b03908116808452600c8352604080852054815163313ce56760e01b8152915192965094939288169263313ce567926004808401938290030181865afa158015610799573d5f803e3d5ffd5b505050506040513d601f19601f820116820180604052508101906107bd919061254b565b90505f6107cb82601261257f565b6107d690600a612678565b90505f866001600160a01b0316856001600160a01b031603610803576107fc8285612686565b9050610811565b61080e858886611974565b90505b61081b818961269d565b9750506001909401935061071c92505050565b50909392505050565b6060600880548060200260200160405190810160405280929190818152602001828054801561050357602002820191905f5260205f20905b81548152602001906001019080831161086f575050505050905090565b5f33610899858285611b95565b6108a4858585611c10565b60019150505b9392505050565b5f805b60075481101561090557826001600160a01b0316600782815481106108db576108db612505565b5f918252602090912001546001600160a01b0316036108fd5750600192915050565b6001016108b4565b505f92915050565b5f80610917611c6d565b5092915050565b5f826001600160a01b0316846001600160a01b0316036109805760405162461bcd60e51b815260206004820152601a60248201527f43616e6e6f742073776170207468652073616d6520746f6b656e000000000000604482015260640161065a565b5f82116109cf5760405162461bcd60e51b815260206004820181905260248201527f416d6f756e74206d7573742062652067726561746572207468616e207a65726f604482015260640161065a565b5f6127106109de601e85612686565b6109e891906126b0565b90505f6109f582856126cf565b90505f856001600160a01b031663313ce5676040518163ffffffff1660e01b8152600401602060405180830381865afa158015610a34573d5f803e3d5ffd5b505050506040513d601f19601f82011682018060405250810190610a58919061254b565b60ff1690505f610a7082670de0b6b3a76400006126cf565b90505f610a7e898986611974565b905082601214610a9e57610a9282826126b0565b955050505050506108aa565b98975050505050505050565b5f610ab3611ee9565b6007548214610b045760405162461bcd60e51b815260206004820152601760248201527f416d6f756e7473206c656e677468206d69736d61746368000000000000000000604482015260640161065a565b5f610b0e60025490565b90505f8060065f9054906101000a90046001600160a01b03166001600160a01b031663bc06e81d6040518163ffffffff1660e01b8152600401602060405180830381865afa158015610b62573d5f803e3d5ffd5b505050506040513d601f19601f82011682018060405250810190610b869190612530565b90505f816001600160a01b031663313ce5676040518163ffffffff1660e01b8152600401602060405180830381865afa158015610bc5573d5f803e3d5ffd5b505050506040513d601f19601f82011682018060405250810190610be9919061254b565b90505f610bf782601261257f565b610c0290600a612678565b90505f5b600754811015610d66575f60078281548110610c2457610c24612505565b5f9182526020822001546001600160a01b031691508a8a84818110610c4b57610c4b612505565b6040516323b872dd60e01b815233600482015230602482015260209091029290920135604483018190529250506001600160a01b038316906323b872dd906064016020604051808303815f875af1158015610ca8573d5f803e3d5ffd5b505050506040513d601f19601f82011682018060405250810190610ccc91906126e2565b506001600160a01b0382165f908152600c602052604081208054839290610cf490849061269d565b90915550506001600160a01b0380871690831603610d2757610d168482612686565b610d20908861269d565b9650610d5c565b856001600160a01b0316826001600160a01b031614610d5c575f610d4c838884611974565b9050610d58818961269d565b9750505b5050600101610c06565b505f855f03610d76575083610d9b565b5f610d7f611c6d565b50905080610d8d8888612686565b610d9791906126b0565b9150505b805f03610dda5760405162461bcd60e51b815260206004820152600d60248201526c04d696e7420717479206973203609c1b604482015260640161065a565b335f8181526020819052604090205490610df49083611f13565b335f90815260208190526040812054610e0e9083906126cf565b9050828114610e4d5760405162461bcd60e51b815260206004820152600b60248201526a135a5b9d0811985a5b195960aa1b604482015260640161065a565b336001600160a01b03167fb60e972ce1258a7280a8e34204b1df88fcabbe8aea805e46bc1566cdc6e6e1488c8c86604051610e8a93929190612701565b60405180910390a2509096505050505050506106986001600555565b5f612710610eb360025490565b610ebf906103e8612686565b610ec991906126b0565b905080610eea836001600160a01b03165f9081526020819052604090205490565b1015610f2c5760405162461bcd60e51b8152602060048201526011602482015270556e646572203525204c5020736861726560781b604482015260640161065a565b610f34611f47565b5050565b6060600780548060200260200160405190810160405280929190818152602001828054801561050357602002820191905f5260205f20905b81546001600160a01b03168152600190910190602001808311610f70575050505050905090565b5f80610fa1611c6d565b5090505f610fae60025490565b9050805f03610fbf575f9250505090565b80600a5483610fce9190612686565b610fd891906126b0565b9250505090565b6060805f80610fec611c6d565b60075491935091508067ffffffffffffffff81111561100d5761100d6124f1565b604051908082528060200260200182016040528015611036578160200160208202803683370190505b5094508067ffffffffffffffff811115611052576110526124f1565b60405190808252806020026020018201604052801561107b578160200160208202803683370190505b5093505f5b8181101561118b575f8484838151811061109c5761109c612505565b60200260200101516127106110b19190612686565b6110bb91906126b0565b90505f600883815481106110d1576110d1612505565b905f5260205f200154905080821115611135576110ee81836126cf565b87848151811061110057611100612505565b602002602001018181525050600188848151811061112057611120612505565b91151560209283029190910190910152611181565b61113f82826126cf565b87848151811061115157611151612505565b6020026020010181815250505f88848151811061117057611170612505565b911515602092830291909101909101525b5050600101611080565b505050509091565b60606004805461048c906124bf565b5f33610692818585611c10565b600881815481106111be575f80fd5b5f91825260209091200154905081565b600781815481106111dd575f80fd5b5f918252602090912001546001600160a01b0316905081565b5f80611200611c6d565b915050805183106112495760405162461bcd60e51b8152602060048201526013602482015272092dcecc2d8d2c840c2e6e6cae840d2dcc8caf606b1b604482015260640161065a565b80838151811061125b5761125b612505565b6020026020010151915050919050565b611273611ee9565b335f908152602081905260409020548211156112c65760405162461bcd60e51b8152602060048201526012602482015271496e73756666696369656e7420736861726560701b604482015260640161065a565b5f6112d060025490565b90505f81116113105760405162461bcd60e51b815260206004820152600c60248201526b4e6f206c697175696469747960a01b604482015260640161065a565b6007545f9067ffffffffffffffff81111561132d5761132d6124f1565b604051908082528060200260200182016040528015611356578160200160208202803683370190505b5090505f5b600754811015611428575f6007828154811061137957611379612505565b5f918252602090912001546040516370a0823160e01b81523060048201526001600160a01b03909116906370a0823190602401602060405180830381865afa1580156113c7573d5f803e3d5ffd5b505050506040513d601f19601f820116820180604052508101906113eb9190612519565b9050836113f88783612686565b61140291906126b0565b83838151811061141457611414612505565b60209081029190910101525060010161135b565b505f612710611438601e87612686565b61144291906126b0565b90505f61144f82876126cf565b905061145b3387611ff3565b60065460408051631d8cf42560e11b815290516114ce926001600160a01b031691633b19e84a9160048083019260209291908290030181865afa1580156114a4573d5f803e3d5ffd5b505050506040513d601f19601f820116820180604052508101906114c89190612530565b826111a2565b505f5b6007548110156115ac57600781815481106114ee576114ee612505565b905f5260205f20015f9054906101000a90046001600160a01b03166001600160a01b031663a9059cbb8786848151811061152a5761152a612505565b60200260200101516040518363ffffffff1660e01b81526004016115639291906001600160a01b03929092168252602082015260400190565b6020604051808303815f875af115801561157f573d5f803e3d5ffd5b505050506040513d601f19601f820116820180604052508101906115a391906126e2565b506001016114d1565b50846001600160a01b03167f0f74fe264fb7d04b4800409b8a3562eb271296e19c3ec8835639635b3e858c4584886040516115e892919061273d565b60405180910390a250505050610f346001600555565b5f611607611ee9565b826001600160a01b0316846001600160a01b0316036116685760405162461bcd60e51b815260206004820152601a60248201527f43616e6e6f742073776170207468652073616d6520746f6b656e000000000000604482015260640161065a565b5f82116116b75760405162461bcd60e51b815260206004820181905260248201527f416d6f756e74206d7573742062652067726561746572207468616e207a65726f604482015260640161065a565b6040516323b872dd60e01b8152336004820152306024820152604481018390526001600160a01b038516906323b872dd906064016020604051808303815f875af1158015611707573d5f803e3d5ffd5b505050506040513d601f19601f8201168201806040525081019061172b91906126e2565b505f61271061173b601e85612686565b61174591906126b0565b90505f61175282856126cf565b90505f856001600160a01b031663313ce5676040518163ffffffff1660e01b8152600401602060405180830381865afa158015611791573d5f803e3d5ffd5b505050506040513d601f19601f820116820180604052508101906117b5919061254b565b60ff1690505f6117cd82670de0b6b3a76400006126cf565b90505f816117dc8a8a87611974565b6117e691906126b0565b6040516370a0823160e01b815230600482015290915081906001600160a01b038a16906370a0823190602401602060405180830381865afa15801561182d573d5f803e3d5ffd5b505050506040513d601f19601f820116820180604052508101906118519190612519565b10156118985760405162461bcd60e51b8152602060048201526016602482015275496e73756666696369656e74204c697175696469747960501b604482015260640161065a565b60405163a9059cbb60e01b8152336004820152602481018290526001600160a01b0389169063a9059cbb906044016020604051808303815f875af11580156118e2573d5f803e3d5ffd5b505050506040513d601f19601f8201168201806040525081019061190691906126e2565b5060408051888152602081018390526001600160a01b03808b1692908c169133917fcd3829a3813dc3cdd188fd3d01dcf3268c16be2fdd2dd21d0665418816e46062910160405180910390a49450505050506108aa6001600555565b61196f8383836001612027565b505050565b5f805f846001600160a01b031663313ce5676040518163ffffffff1660e01b8152600401602060405180830381865afa1580156119b3573d5f803e3d5ffd5b505050506040513d601f19601f820116820180604052508101906119d7919061254b565b90505f856001600160a01b031663313ce5676040518163ffffffff1660e01b8152600401602060405180830381865afa158015611a16573d5f803e3d5ffd5b505050506040513d601f19601f82011682018060405250810190611a3a919061254b565b60065460405163802431fb60e01b81526001600160a01b038a8116600483015289811660248301525f604483015292935091169063802431fb90606401602060405180830381865afa925050508015611ab0575060408051601f3d908101601f19168201909252611aad91810190612519565b60015b611abf575f93505050506108aa565b92508060ff168260ff1603611b0e57670de0b6b3a76400008360ff8316611ae68884612686565b611af091906126cf565b611afa9190612686565b611b0491906126b0565b93505050506108aa565b5f611b19828461257f565b611b2490600a612678565b905060128360ff161015611b6e57670de0b6b3a7640000611b458286612686565b611b4f8389612686565b611b599190612686565b611b6391906126b0565b9450505050506108aa565b670de0b6b3a7640000611b818286612686565b611b8b9088612686565b610a9e91906126b0565b6001600160a01b038381165f908152600160209081526040808320938616835292905220545f198114611c0a5781811015611bfc57604051637dc7a0d960e11b81526001600160a01b0384166004820152602481018290526044810183905260640161065a565b611c0a84848484035f612027565b50505050565b6001600160a01b038316611c3957604051634b637e8f60e11b81525f600482015260240161065a565b6001600160a01b038216611c625760405163ec442f0560e01b81525f600482015260240161065a565b61196f8383836120f9565b6007545f906060908067ffffffffffffffff811115611c8e57611c8e6124f1565b604051908082528060200260200182016040528015611cb7578160200160208202803683370190505b5091505f60065f9054906101000a90046001600160a01b03166001600160a01b031663bc06e81d6040518163ffffffff1660e01b8152600401602060405180830381865afa158015611d0b573d5f803e3d5ffd5b505050506040513d601f19601f82011682018060405250810190611d2f9190612530565b90505f5b82811015611ee2575f60078281548110611d4f57611d4f612505565b5f9182526020808320909101546040805163313ce56760e01b815290516001600160a01b039092169450849263313ce567926004808401938290030181865afa158015611d9e573d5f803e3d5ffd5b505050506040513d601f19601f82011682018060405250810190611dc2919061254b565b90505f611de58386611dd585600a612678565b611de0906001612686565b611974565b90505f611df383601261257f565b611dfe90600a612678565b600a546040516370a0823160e01b815230600482015291925090839083906001600160a01b038816906370a0823190602401602060405180830381865afa158015611e4b573d5f803e3d5ffd5b505050506040513d601f19601f82011682018060405250810190611e6f9190612519565b611e799190612686565b611e839190612686565b611e8d91906126b0565b888681518110611e9f57611e9f612505565b602002602001018181525050878581518110611ebd57611ebd612505565b602002602001015189611ed0919061269d565b98505060019093019250611d33915050565b5050509091565b600260055403611f0c57604051633ee5aeb560e01b815260040160405180910390fd5b6002600555565b6001600160a01b038216611f3c5760405163ec442f0560e01b81525f600482015260240161065a565b610f345f83836120f9565b6006546009546040516384db1dfb60e01b81526001600160a01b03909216916384db1dfb91611f829160079160089130918291600401612799565b5f604051808303815f87803b158015611f99575f80fd5b505af1158015611fab573d5f803e3d5ffd5b50505050336001600160a01b03167f279b343370f587af7fb675ae7c8578e9c8abcc373236ad02c501a4771fe7a7b86007604051611fe99190612810565b60405180910390a2565b6001600160a01b03821661201c57604051634b637e8f60e11b81525f600482015260240161065a565b610f34825f836120f9565b6001600160a01b0384166120505760405163e602df0560e01b81525f600482015260240161065a565b6001600160a01b03831661207957604051634a1406b160e11b81525f600482015260240161065a565b6001600160a01b038085165f9081526001602090815260408083209387168352929052208290558015611c0a57826001600160a01b0316846001600160a01b03167f8c5be1e5ebec7d5bd14f71427d1e84f3dd0314c0f7b2291e5b200ac8c7c3b925846040516120eb91815260200190565b60405180910390a350505050565b6001600160a01b038316612123578060025f828254612118919061269d565b909155506121939050565b6001600160a01b0383165f90815260208190526040902054818110156121755760405163391434e360e21b81526001600160a01b0385166004820152602481018290526044810183905260640161065a565b6001600160a01b0384165f9081526020819052604090209082900390555b6001600160a01b0382166121af576002805482900390556121cd565b6001600160a01b0382165f9081526020819052604090208054820190555b816001600160a01b0316836001600160a01b03167fddf252ad1be2c89b69c2b068fc378daa952ba7f163c4a11628f55a4df523b3ef8360405161221291815260200190565b60405180910390a3505050565b602081525f82518060208401528060208501604085015e5f604082850101526040601f19601f83011684010191505092915050565b5f815180845260208085019450602084015f5b8381101561228357815187529582019590820190600101612267565b509495945050505050565b602081525f6108aa6020830184612254565b6001600160a01b03811681146122b4575f80fd5b50565b5f602082840312156122c7575f80fd5b81356108aa816122a0565b5f80604083850312156122e3575f80fd5b82356122ee816122a0565b946020939093013593505050565b5f805f6060848603121561230e575f80fd5b8335612319816122a0565b92506020840135612329816122a0565b929592945050506040919091013590565b5f806020838503121561234b575f80fd5b823567ffffffffffffffff80821115612362575f80fd5b818501915085601f830112612375575f80fd5b813581811115612383575f80fd5b8660208260051b8501011115612397575f80fd5b60209290920196919550909350505050565b602080825282518282018190525f9190848201906040850190845b818110156123e95783516001600160a01b0316835292840192918401916001016123c4565b50909695505050505050565b604080825283519082018190525f906020906060840190828701845b8281101561242f578151151584529284019290840190600101612411565b50505083810360208501526124448186612254565b9695505050505050565b5f6020828403121561245e575f80fd5b5035919050565b5f8060408385031215612476575f80fd5b823591506020830135612488816122a0565b809150509250929050565b5f80604083850312156124a4575f80fd5b82356124af816122a0565b91506020830135612488816122a0565b600181811c908216806124d357607f821691505b60208210810361060f57634e487b7160e01b5f52602260045260245ffd5b634e487b7160e01b5f52604160045260245ffd5b634e487b7160e01b5f52603260045260245ffd5b5f60208284031215612529575f80fd5b5051919050565b5f60208284031215612540575f80fd5b81516108aa816122a0565b5f6020828403121561255b575f80fd5b815160ff811681146108aa575f80fd5b634e487b7160e01b5f52601160045260245ffd5b60ff82811682821603908111156106985761069861256b565b600181815b808511156125d257815f19048211156125b8576125b861256b565b808516156125c557918102915b93841c939080029061259d565b509250929050565b5f826125e857506001610698565b816125f457505f610698565b816001811461260a576002811461261457612630565b6001915050610698565b60ff8411156126255761262561256b565b50506001821b610698565b5060208310610133831016604e8410600b8410161715612653575081810a610698565b61265d8383612598565b805f19048211156126705761267061256b565b029392505050565b5f6108aa60ff8416836125da565b80820281158282048414176106985761069861256b565b808201808211156106985761069861256b565b5f826126ca57634e487b7160e01b5f52601260045260245ffd5b500490565b818103818111156106985761069861256b565b5f602082840312156126f2575f80fd5b815180151581146108aa575f80fd5b604080825281018390525f6001600160fb1b0384111561271f575f80fd5b8360051b808660608501376020830193909352500160600192915050565b604081525f61274f6040830185612254565b90508260208301529392505050565b5f815480845260208085019450835f5260205f205f5b838110156122835781546001600160a01b031687529582019560019182019101612774565b60a081525f6127ab60a083018861275e565b60208382036020850152818854808452602084019150895f5260205f2093505f5b818110156127e8578454835260019485019492840192016127cc565b50506001600160a01b0397881660408601529590961660608401525050608001529392505050565b602081525f6108aa602083018461275e56fea2646970667358221220a925a791899658fb7f4d08af2d1c5aab525e954a1b96f33487d19434a35929b764736f6c63430008190033",
    "sourcePath": "c:/Users/Utente/Source/repos/baluni-contracts/contracts/BaluniV1Pool.sol",
    "compiler": {
        "name": "solc",
        "version": "0.8.25+commit.b61c2a91"
    },
    "functionHashes": {
        "ONE()": "c2ee3a08",
        "SWAP_FEE_BPS()": "67a6c440",
        "addLiquidity(uint256[])": "4de59aa3",
        "allowance(address,address)": "dd62ed3e",
        "approve(address,uint256)": "095ea7b3",
        "assetToUSD(uint256)": "cfa807af",
        "assets(uint256)": "cf35bdd0",
        "balanceOf(address)": "70a08231",
        "balances(address)": "27e235e3",
        "changeRebalancer(address)": "0918281b",
        "decimals()": "313ce567",
        "exit(uint256,address)": "cff40759",
        "factory()": "c45a0155",
        "getAmountOut(address,address,uint256)": "4aa06652",
        "getAssets()": "67e4ac2c",
        "getDeviation()": "89ab3532",
        "getReserves()": "0902f1ac",
        "getUnitPriceUSD()": "6a308857",
        "getWeights()": "22acb867",
        "isAssetSupported(address)": "464b4158",
        "name()": "06fdde03",
        "performRebalanceIfNeeded(address)": "5568081a",
        "rebalancer()": "01d22ccd",
        "swap(address,address,uint256)": "df791e50",
        "symbol()": "95d89b41",
        "tokenLiquidityInUSD(address)": "0c6b4c0c",
        "totalLiquidityUSD()": "492ddc9b",
        "totalSupply()": "18160ddd",
        "transfer(address,uint256)": "a9059cbb",
        "transferFrom(address,address,uint256)": "23b872dd",
        "trigger()": "7fec8d38",
        "weights(uint256)": "b5f163ff"
    },
    "gasEstimates": {
        "creation": {
            "codeDepositCost": "2065600",
            "executionCost": "infinite",
            "totalCost": "infinite"
        },
        "external": {
            "ONE()": "2361",
            "SWAP_FEE_BPS()": "240",
            "addLiquidity(uint256[])": "infinite",
            "allowance(address,address)": "infinite",
            "approve(address,uint256)": "24752",
            "assetToUSD(uint256)": "infinite",
            "assets(uint256)": "4711",
            "balanceOf(address)": "2643",
            "balances(address)": "2578",
            "changeRebalancer(address)": "26816",
            "decimals()": "266",
            "exit(uint256,address)": "infinite",
            "factory()": "2414",
            "getAmountOut(address,address,uint256)": "infinite",
            "getAssets()": "infinite",
            "getDeviation()": "infinite",
            "getReserves()": "infinite",
            "getUnitPriceUSD()": "infinite",
            "getWeights()": "infinite",
            "isAssetSupported(address)": "infinite",
            "name()": "infinite",
            "performRebalanceIfNeeded(address)": "infinite",
            "rebalancer()": "2372",
            "swap(address,address,uint256)": "infinite",
            "symbol()": "infinite",
            "tokenLiquidityInUSD(address)": "infinite",
            "totalLiquidityUSD()": "infinite",
            "totalSupply()": "2381",
            "transfer(address,uint256)": "51321",
            "transferFrom(address,address,uint256)": "infinite",
            "trigger()": "2339",
            "weights(uint256)": "4617"
        },
        "internal": {
            "_computeTotalERC20Valuation()": "infinite",
            "_convertTokenWithRateScaled(address,address,uint256)": "infinite",
            "_performRebalanceIfNeeded()": "infinite"
        }
    }
}