{
    "contractName": "BaluniV1Rebalancer",
    "abi": [
        {
            "inputs": [
                {
                    "internalType": "address",
                    "name": "target",
                    "type": "address"
                }
            ],
            "name": "AddressEmptyCode",
            "type": "error"
        },
        {
            "inputs": [
                {
                    "internalType": "address",
                    "name": "implementation",
                    "type": "address"
                }
            ],
            "name": "ERC1967InvalidImplementation",
            "type": "error"
        },
        {
            "inputs": [],
            "name": "ERC1967NonPayable",
            "type": "error"
        },
        {
            "inputs": [],
            "name": "FailedInnerCall",
            "type": "error"
        },
        {
            "inputs": [],
            "name": "InvalidInitialization",
            "type": "error"
        },
        {
            "inputs": [],
            "name": "NotInitializing",
            "type": "error"
        },
        {
            "inputs": [
                {
                    "internalType": "address",
                    "name": "owner",
                    "type": "address"
                }
            ],
            "name": "OwnableInvalidOwner",
            "type": "error"
        },
        {
            "inputs": [
                {
                    "internalType": "address",
                    "name": "account",
                    "type": "address"
                }
            ],
            "name": "OwnableUnauthorizedAccount",
            "type": "error"
        },
        {
            "inputs": [],
            "name": "UUPSUnauthorizedCallContext",
            "type": "error"
        },
        {
            "inputs": [
                {
                    "internalType": "bytes32",
                    "name": "slot",
                    "type": "bytes32"
                }
            ],
            "name": "UUPSUnsupportedProxiableUUID",
            "type": "error"
        },
        {
            "anonymous": false,
            "inputs": [
                {
                    "indexed": false,
                    "internalType": "uint64",
                    "name": "version",
                    "type": "uint64"
                }
            ],
            "name": "Initialized",
            "type": "event"
        },
        {
            "anonymous": false,
            "inputs": [
                {
                    "indexed": true,
                    "internalType": "address",
                    "name": "previousOwner",
                    "type": "address"
                },
                {
                    "indexed": true,
                    "internalType": "address",
                    "name": "newOwner",
                    "type": "address"
                }
            ],
            "name": "OwnershipTransferred",
            "type": "event"
        },
        {
            "anonymous": false,
            "inputs": [
                {
                    "indexed": true,
                    "internalType": "address",
                    "name": "implementation",
                    "type": "address"
                }
            ],
            "name": "Upgraded",
            "type": "event"
        },
        {
            "inputs": [],
            "name": "UPGRADE_INTERFACE_VERSION",
            "outputs": [
                {
                    "internalType": "string",
                    "name": "",
                    "type": "string"
                }
            ],
            "stateMutability": "view",
            "type": "function"
        },
        {
            "inputs": [
                {
                    "internalType": "uint256[]",
                    "name": "balances",
                    "type": "uint256[]"
                },
                {
                    "internalType": "address[]",
                    "name": "assets",
                    "type": "address[]"
                },
                {
                    "internalType": "uint256[]",
                    "name": "weights",
                    "type": "uint256[]"
                },
                {
                    "internalType": "uint256",
                    "name": "limit",
                    "type": "uint256"
                },
                {
                    "internalType": "address",
                    "name": "sender",
                    "type": "address"
                },
                {
                    "internalType": "address",
                    "name": "baseAsset",
                    "type": "address"
                }
            ],
            "name": "checkRebalance",
            "outputs": [
                {
                    "components": [
                        {
                            "internalType": "uint256",
                            "name": "length",
                            "type": "uint256"
                        },
                        {
                            "internalType": "uint256",
                            "name": "totalValue",
                            "type": "uint256"
                        },
                        {
                            "internalType": "uint256",
                            "name": "finalUsdBalance",
                            "type": "uint256"
                        },
                        {
                            "internalType": "uint256",
                            "name": "overweightVaultsLength",
                            "type": "uint256"
                        },
                        {
                            "internalType": "uint256",
                            "name": "underweightVaultsLength",
                            "type": "uint256"
                        },
                        {
                            "internalType": "uint256",
                            "name": "totalActiveWeight",
                            "type": "uint256"
                        },
                        {
                            "internalType": "uint256",
                            "name": "amountOut",
                            "type": "uint256"
                        },
                        {
                            "internalType": "uint256[]",
                            "name": "overweightVaults",
                            "type": "uint256[]"
                        },
                        {
                            "internalType": "uint256[]",
                            "name": "overweightAmounts",
                            "type": "uint256[]"
                        },
                        {
                            "internalType": "uint256[]",
                            "name": "underweightVaults",
                            "type": "uint256[]"
                        },
                        {
                            "internalType": "uint256[]",
                            "name": "underweightAmounts",
                            "type": "uint256[]"
                        },
                        {
                            "internalType": "uint256[]",
                            "name": "balances",
                            "type": "uint256[]"
                        }
                    ],
                    "internalType": "struct IBaluniV1Rebalancer.RebalanceVars",
                    "name": "",
                    "type": "tuple"
                }
            ],
            "stateMutability": "view",
            "type": "function"
        },
        {
            "inputs": [
                {
                    "internalType": "address",
                    "name": "fromToken",
                    "type": "address"
                },
                {
                    "internalType": "address",
                    "name": "toToken",
                    "type": "address"
                },
                {
                    "internalType": "uint256",
                    "name": "amount",
                    "type": "uint256"
                }
            ],
            "name": "convert",
            "outputs": [
                {
                    "internalType": "uint256",
                    "name": "",
                    "type": "uint256"
                }
            ],
            "stateMutability": "view",
            "type": "function"
        },
        {
            "inputs": [
                {
                    "internalType": "address",
                    "name": "_registry",
                    "type": "address"
                }
            ],
            "name": "initialize",
            "outputs": [],
            "stateMutability": "nonpayable",
            "type": "function"
        },
        {
            "inputs": [
                {
                    "internalType": "address",
                    "name": "token0",
                    "type": "address"
                },
                {
                    "internalType": "address",
                    "name": "token1",
                    "type": "address"
                },
                {
                    "internalType": "address",
                    "name": "token2",
                    "type": "address"
                },
                {
                    "internalType": "uint256",
                    "name": "amount",
                    "type": "uint256"
                },
                {
                    "internalType": "address",
                    "name": "receiver",
                    "type": "address"
                }
            ],
            "name": "multiHopSwap",
            "outputs": [
                {
                    "internalType": "uint256",
                    "name": "amountOut",
                    "type": "uint256"
                }
            ],
            "stateMutability": "nonpayable",
            "type": "function"
        },
        {
            "inputs": [],
            "name": "owner",
            "outputs": [
                {
                    "internalType": "address",
                    "name": "",
                    "type": "address"
                }
            ],
            "stateMutability": "view",
            "type": "function"
        },
        {
            "inputs": [],
            "name": "proxiableUUID",
            "outputs": [
                {
                    "internalType": "bytes32",
                    "name": "",
                    "type": "bytes32"
                }
            ],
            "stateMutability": "view",
            "type": "function"
        },
        {
            "inputs": [
                {
                    "internalType": "uint256[]",
                    "name": "balances",
                    "type": "uint256[]"
                },
                {
                    "internalType": "address[]",
                    "name": "assets",
                    "type": "address[]"
                },
                {
                    "internalType": "uint256[]",
                    "name": "weights",
                    "type": "uint256[]"
                },
                {
                    "internalType": "uint256",
                    "name": "limit",
                    "type": "uint256"
                },
                {
                    "internalType": "address",
                    "name": "sender",
                    "type": "address"
                },
                {
                    "internalType": "address",
                    "name": "receiver",
                    "type": "address"
                },
                {
                    "internalType": "address",
                    "name": "baseAsset",
                    "type": "address"
                }
            ],
            "name": "rebalance",
            "outputs": [],
            "stateMutability": "nonpayable",
            "type": "function"
        },
        {
            "inputs": [],
            "name": "registry",
            "outputs": [
                {
                    "internalType": "contract IBaluniV1Registry",
                    "name": "",
                    "type": "address"
                }
            ],
            "stateMutability": "view",
            "type": "function"
        },
        {
            "inputs": [
                {
                    "internalType": "address",
                    "name": "_registry",
                    "type": "address"
                },
                {
                    "internalType": "uint64",
                    "name": "version",
                    "type": "uint64"
                }
            ],
            "name": "reinitialize",
            "outputs": [],
            "stateMutability": "nonpayable",
            "type": "function"
        },
        {
            "inputs": [],
            "name": "renounceOwnership",
            "outputs": [],
            "stateMutability": "nonpayable",
            "type": "function"
        },
        {
            "inputs": [
                {
                    "internalType": "address",
                    "name": "token0",
                    "type": "address"
                },
                {
                    "internalType": "address",
                    "name": "token1",
                    "type": "address"
                },
                {
                    "internalType": "uint256",
                    "name": "amount",
                    "type": "uint256"
                },
                {
                    "internalType": "address",
                    "name": "receiver",
                    "type": "address"
                }
            ],
            "name": "singleSwap",
            "outputs": [
                {
                    "internalType": "uint256",
                    "name": "amountOut",
                    "type": "uint256"
                }
            ],
            "stateMutability": "nonpayable",
            "type": "function"
        },
        {
            "inputs": [
                {
                    "internalType": "address",
                    "name": "newOwner",
                    "type": "address"
                }
            ],
            "name": "transferOwnership",
            "outputs": [],
            "stateMutability": "nonpayable",
            "type": "function"
        },
        {
            "inputs": [
                {
                    "internalType": "address",
                    "name": "newImplementation",
                    "type": "address"
                },
                {
                    "internalType": "bytes",
                    "name": "data",
                    "type": "bytes"
                }
            ],
            "name": "upgradeToAndCall",
            "outputs": [],
            "stateMutability": "payable",
            "type": "function"
        }
    ],
    "bytecode": "60a0604052306080523480156012575f80fd5b506080516137846100395f395f81816118690152818161189201526119d601526137845ff3fe6080604052600436106100d9575f3560e01c80638da5cb5b1161007c578063ad3cb1cc11610057578063ad3cb1cc14610248578063c4d66de814610285578063f0bf7714146102a4578063f2fde38b146102c3575f80fd5b80638da5cb5b146101c15780638f2248bc146101fd578063997146f51461021c575f80fd5b806352d1902d116100b757806352d1902d146101435780635efaaebb14610157578063715018a6146101765780637b1039991461018a575f80fd5b8063248391ff146100dd5780632d6bc8ea1461010f5780634f1ef2861461012e575b5f80fd5b3480156100e8575f80fd5b506100fc6100f7366004612e98565b6102e2565b6040519081526020015b60405180910390f35b34801561011a575f80fd5b506100fc610129366004612ed6565b610598565b61014161013c366004612f6a565b610752565b005b34801561014e575f80fd5b506100fc610771565b348015610162575f80fd5b506100fc61017136600461300b565b61078c565b348015610181575f80fd5b50610141610943565b348015610195575f80fd5b506001546101a9906001600160a01b031681565b6040516001600160a01b039091168152602001610106565b3480156101cc575f80fd5b507f9016d09d72d40fdae2fd8ceac6b6234c7706214fd39c1cd1e609a0528c199300546001600160a01b03166101a9565b348015610208575f80fd5b5061014161021736600461306f565b610956565b348015610227575f80fd5b5061023b610236366004613174565b610a3f565b6040516101069190613269565b348015610253575f80fd5b50610278604051806040016040528060058152602001640352e302e360dc1b81525081565b6040516101069190613382565b348015610290575f80fd5b5061014161029f366004613394565b610a64565b3480156102af575f80fd5b506101416102be3660046133af565b610b93565b3480156102ce575f80fd5b506101416102dd366004613394565b61159d565b5f805f60015f9054906101000a90046001600160a01b03166001600160a01b0316638e1c3a8a6040518163ffffffff1660e01b8152600401602060405180830381865afa158015610335573d5f803e3d5ffd5b505050506040513d601f19601f820116820180604052508101906103599190613477565b90505f866001600160a01b031663313ce5676040518163ffffffff1660e01b8152600401602060405180830381865afa158015610398573d5f803e3d5ffd5b505050506040513d601f19601f820116820180604052508101906103bc9190613492565b90505f866001600160a01b031663313ce5676040518163ffffffff1660e01b8152600401602060405180830381865afa1580156103fb573d5f803e3d5ffd5b505050506040513d601f19601f8201168201806040525081019061041f9190613492565b90505f61042d83600a6135a6565b90505f61043b83600a6135a6565b60405163802431fb60e01b81526001600160a01b038c811660048301528b811660248301525f60448301529192509086169063802431fb90606401602060405180830381865afa158015610491573d5f803e3d5ffd5b505050506040513d601f19601f820116820180604052508101906104b591906135b4565b9550806104c283886135cb565b6104cc91906135e2565b95505f670de0b6b3a76400006104e2888b6135cb565b6104ec91906135e2565b90508360ff168560ff160361052757670de0b6b3a764000061050e888b6135cb565b61051891906135e2565b97506105919650505050505050565b5f8460ff168660ff16116105445761053f8686613601565b61054e565b61054e8587613601565b61055990600a6135a6565b90508460ff168660ff16111561057a5761057381836135e2565b9150610587565b61058481836135cb565b91505b5096505050505050505b9392505050565b5f3033036105dc5760405162461bcd60e51b815260206004820152600c60248201526b2bb937b7339039b2b73232b960a11b60448201526064015b60405180910390fd5b5f83116106195760405162461bcd60e51b815260206004820152600b60248201526a0416d6f756e7420697320360ac1b60448201526064016105d3565b6040516370a0823160e01b815233600482015283906001600160a01b038716906370a0823190602401602060405180830381865afa15801561065d573d5f803e3d5ffd5b505050506040513d601f19601f8201168201806040525081019061068191906135b4565b10156106c65760405162461bcd60e51b8152602060048201526014602482015273496e73756666696369656e742042616c616e636560601b60448201526064016105d3565b6040516323b872dd60e01b8152336004820152306024820152604481018490526001600160a01b038616906323b872dd906064016020604051808303815f875af1158015610716573d5f803e3d5ffd5b505050506040513d601f19601f8201168201806040525081019061073a919061361a565b50610747858585856115da565b90505b949350505050565b61075a61185e565b61076382611902565b61076d828261190a565b5050565b5f61077a6119cb565b505f8051602061372f83398151915290565b5f3033036107cb5760405162461bcd60e51b815260206004820152600c60248201526b2bb937b7339039b2b73232b960a11b60448201526064016105d3565b5f83116108085760405162461bcd60e51b815260206004820152600b60248201526a0416d6f756e7420697320360ac1b60448201526064016105d3565b6040516370a0823160e01b815233600482015283906001600160a01b038816906370a0823190602401602060405180830381865afa15801561084c573d5f803e3d5ffd5b505050506040513d601f19601f8201168201806040525081019061087091906135b4565b10156108b55760405162461bcd60e51b8152602060048201526014602482015273496e73756666696369656e742042616c616e636560601b60448201526064016105d3565b6040516323b872dd60e01b8152336004820152306024820152604481018490526001600160a01b038716906323b872dd906064016020604051808303815f875af1158015610905573d5f803e3d5ffd5b505050506040513d601f19601f82011682018060405250810190610929919061361a565b506109378686868686611a14565b90505b95945050505050565b61094b611bca565b6109545f611c25565b565b7ff0c57e16840df040f15088dc2f81fe391c3923bec73e23a9662efc9c229c6a008054829190600160401b900460ff168061099e575080546001600160401b03808416911610155b156109bc5760405163f92ee8a960e01b815260040160405180910390fd5b8054600160401b6001600160401b03841668ffffffffffffffffff199092168217178255600180546001600160a01b0319166001600160a01b038716179055815460ff60401b191682556040519081527fc7f505b2f371ae2175ee4913f4499e1f2633a7b5936321eed1cdaeb6115181d29060200160405180910390a150505050565b610a47612e1a565b610a578989898989898989611c95565b9998505050505050505050565b7ff0c57e16840df040f15088dc2f81fe391c3923bec73e23a9662efc9c229c6a008054600160401b810460ff1615906001600160401b03165f81158015610aa85750825b90505f826001600160401b03166001148015610ac35750303b155b905081158015610ad1575080155b15610aef5760405163f92ee8a960e01b815260040160405180910390fd5b845467ffffffffffffffff191660011785558315610b1957845460ff60401b1916600160401b1785555b610b216124ed565b610b2a336124f5565b600180546001600160a01b0319166001600160a01b0388161790558315610b8b57845460ff60401b19168555604051600181527fc7f505b2f371ae2175ee4913f4499e1f2633a7b5936321eed1cdaeb6115181d29060200160405180910390a15b505050505050565b60015460408051631bf01e9b60e01b815290515f926001600160a01b031691631bf01e9b9160048083019260209291908290030181865afa158015610bda573d5f803e3d5ffd5b505050506040513d601f19601f82011682018060405250810190610bfe9190613477565b90505f60015f9054906101000a90046001600160a01b03166001600160a01b0316636c9c00786040518163ffffffff1660e01b8152600401602060405180830381865afa158015610c51573d5f803e3d5ffd5b505050506040513d601f19601f82011682018060405250810190610c759190613477565b90505f610c888c8c8c8c8c8c8c8b611c95565b90505f5b8160e0015151811015610f00575f8261010001518281518110610cb157610cb1613639565b60200260200101511115610ef8575f8c8c8460e001518481518110610cd857610cd8613639565b6020026020010151818110610cef57610cef613639565b9050602002016020810190610d049190613394565b90508261010001518281518110610d1d57610d1d613639565b60200260200101518361016001518381518110610d3c57610d3c613639565b60200260200101511015610d925760405162461bcd60e51b815260206004820181905260248201527f42616c616e636520756e646572206f76657277656967687420616d6f756e747360448201526064016105d3565b806001600160a01b03166323b872dd89308661010001518681518110610dba57610dba613639565b60209081029190910101516040516001600160e01b031960e086901b1681526001600160a01b03938416600482015292909116602483015260448201526064016020604051808303815f875af1158015610e16573d5f803e3d5ffd5b505050506040513d601f19601f82011682018060405250810190610e3a919061361a565b50846001600160a01b0316816001600160a01b031603610e5a5750610ef8565b836001600160a01b0316816001600160a01b031603610eb657610e9d81868561010001518581518110610e8f57610e8f613639565b6020026020010151306115da565b8360c001818151610eae919061364d565b905250610ef6565b610ee18185878661010001518681518110610ed357610ed3613639565b602002602001015130611a14565b8360c001818151610ef2919061364d565b9052505b505b600101610c8c565b506040516370a0823160e01b81523060048201525f906001600160a01b038516906370a0823190602401602060405180830381865afa158015610f45573d5f803e3d5ffd5b505050506040513d601f19601f82011682018060405250810190610f6991906135b4565b90508160c00151811015610fbf5760405162461bcd60e51b815260206004820152601960248201527f496e73756666696369656e7420555344432042616c616e63650000000000000060448201526064016105d3565b5f8690505f8d8d808060200260200160405190810160405280939291908181526020018383602002808284375f9201829052509394505050505b8461012001515181101561158b575f856101400151828151811061101f5761101f613639565b60200260200101511115611583575f82866101200151838151811061104657611046613639565b60200260200101518151811061105e5761105e613639565b602002602001015190505f8660a00151876101400151848151811061108557611085613639565b602002602001015161271061109a91906135cb565b6110a491906135e2565b90505f6127106110b488846135cb565b6110c39064e8d4a510006135cb565b6110cd91906135e2565b9050896001600160a01b0316836001600160a01b03160361117c576001600160a01b038a1663a9059cbb8761110764e8d4a51000856135e2565b6040516001600160e01b031960e085901b1681526001600160a01b03909216600483015260248201526044016020604051808303815f875af115801561114f573d5f803e3d5ffd5b505050506040513d601f19601f82011682018060405250810190611173919061361a565b50505050611583565b5f8111801561119957506111958764e8d4a510006135cb565b8111155b1561157f576111ad64e8d4a51000826135e2565b8710156111f55760405162461bcd60e51b815260206004820152601660248201527542616c616e636520756e64657220526562757951747960501b60448201526064016105d3565b5f896001600160a01b0316846001600160a01b031603611230576112298b8b61122364e8d4a51000866135e2565b306115da565b905061124e565b61124b8b8b8661124564e8d4a51000876135e2565b30611a14565b90505b60c089018190525f61125f82612506565b90505f61126c8284613660565b90505f61127882612506565b90505f6112858284613660565b6040516370a0823160e01b815230600482015290915084906001600160a01b038a16906370a0823190602401602060405180830381865afa1580156112cc573d5f803e3d5ffd5b505050506040513d601f19601f820116820180604052508101906112f091906135b4565b101561133e5760405162461bcd60e51b815260206004820152601e60248201527f42616c616e636520756e64657220616d6f756e74546f5472616e73666572000060448201526064016105d3565b600154604080516304cc732560e01b815290515f926001600160a01b0316916304cc73259160048083019260209291908290030181865afa158015611385573d5f803e3d5ffd5b505050506040513d601f19601f820116820180604052508101906113a99190613477565b90505f60015f9054906101000a90046001600160a01b03166001600160a01b0316633b19e84a6040518163ffffffff1660e01b8152600401602060405180830381865afa1580156113fc573d5f803e3d5ffd5b505050506040513d601f19601f820116820180604052508101906114209190613477565b60405163a9059cbb60e01b81526001600160a01b038f8116600483015260248201899052919250908b169063a9059cbb906044016020604051808303815f875af1158015611470573d5f803e3d5ffd5b505050506040513d601f19601f82011682018060405250810190611494919061361a565b5060405163a9059cbb60e01b81526001600160a01b038381166004830152602482018690528b169063a9059cbb906044016020604051808303815f875af11580156114e1573d5f803e3d5ffd5b505050506040513d601f19601f82011682018060405250810190611505919061361a565b5060405163a9059cbb60e01b81526001600160a01b038281166004830152602482018590528b169063a9059cbb906044016020604051808303815f875af1158015611552573d5f803e3d5ffd5b505050506040513d601f19601f82011682018060405250810190611576919061361a565b50505050505050505b5050505b600101610ff9565b50505050505050505050505050505050565b6115a5611bca565b6001600160a01b0381166115ce57604051631e4fbdf760e01b81525f60048201526024016105d3565b6115d781611c25565b50565b5f805460408051631acb614160e01b8152905183926001600160a01b031691631acb61419160048083019260209291908290030181865afa158015611621573d5f803e3d5ffd5b505050506040513d601f19601f820116820180604052508101906116459190613477565b90505f805f9054906101000a90046001600160a01b03166001600160a01b031663524900b56040518163ffffffff1660e01b8152600401602060405180830381865afa158015611697573d5f803e3d5ffd5b505050506040513d601f19601f820116820180604052508101906116bb9190613477565b9050816116c9888288612615565b604051631ba0488760e21b81526001600160a01b03821690636e81221c906116fb908b908b908b908b90600401613673565b6020604051808303815f875af1925050508015611735575060408051601f3d908101601f19168201909252611732918101906135b4565b60015b61184157611744888388612615565b60408051610100810182526001600160a01b038a8116825289811660208301908152610bb883850190815289831660608501908152426080860190815260a086018d81525f60c0880181815260e08901918252985163414bf38960e01b8152885188166004820152955187166024870152935162ffffff1660448601529151851660648501525160848401525160a4830152935160c48201529251811660e484015290919084169063414bf38990610104016020604051808303815f875af1158015611812573d5f803e3d5ffd5b505050506040513d601f19601f8201168201806040525081019061183691906135b4565b94505050505061074a565b801561185257935061074a92505050565b50505050949350505050565b306001600160a01b037f00000000000000000000000000000000000000000000000000000000000000001614806118e457507f00000000000000000000000000000000000000000000000000000000000000006001600160a01b03166118d85f8051602061372f833981519152546001600160a01b031690565b6001600160a01b031614155b156109545760405163703e46dd60e11b815260040160405180910390fd5b6115d7611bca565b816001600160a01b03166352d1902d6040518163ffffffff1660e01b8152600401602060405180830381865afa925050508015611964575060408051601f3d908101601f19168201909252611961918101906135b4565b60015b61198c57604051634c9c8ce360e01b81526001600160a01b03831660048201526024016105d3565b5f8051602061372f83398151915281146119bc57604051632a87526960e21b8152600481018290526024016105d3565b6119c68383612775565b505050565b306001600160a01b037f000000000000000000000000000000000000000000000000000000000000000016146109545760405163703e46dd60e11b815260040160405180910390fd5b5f805460408051631acb614160e01b8152905183926001600160a01b031691631acb61419160048083019260209291908290030181865afa158015611a5b573d5f803e3d5ffd5b505050506040513d601f19601f82011682018060405250810190611a7f9190613477565b9050805f611a8e898388612615565b604051631ba0488760e21b81526001600160a01b03831690636e81221c90611ac0908c908c908b903090600401613673565b6020604051808303815f875af1925050508015611afa575060408051601f3d908101601f19168201909252611af7918101906135b4565b60015b611b1557611b0b89898989896127ca565b935050505061093a565b8015611b2357809150611b3b565b611b308a8a8a8a8a6127ca565b94505050505061093a565b50604051631ba0488760e21b81526001600160a01b03831690636e81221c90611b6e908b908b9086908b90600401613673565b6020604051808303815f875af1925050508015611ba8575060408051601f3d908101601f19168201909252611ba5918101906135b4565b60015b611bb957611b0b89898989896127ca565b8015611b2357935061093a92505050565b33611bfc7f9016d09d72d40fdae2fd8ceac6b6234c7706214fd39c1cd1e609a0528c199300546001600160a01b031690565b6001600160a01b0316146109545760405163118cdaa760e01b81523360048201526024016105d3565b7f9016d09d72d40fdae2fd8ceac6b6234c7706214fd39c1cd1e609a0528c19930080546001600160a01b031981166001600160a01b03848116918217845560405192169182907f8be0079c531659141344cd1fd0a4f28419497f9722a3daafe3b4186f6b6457e0905f90a3505050565b611c9d612e1a565b88515f03611d67575f5b87811015611d6557888882818110611cc157611cc1613639565b9050602002016020810190611cd69190613394565b6040516370a0823160e01b81526001600160a01b03868116600483015291909116906370a0823190602401602060405180830381865afa158015611d1c573d5f803e3d5ffd5b505050506040513d601f19601f82011682018060405250810190611d4091906135b4565b8a8281518110611d5257611d52613639565b6020908102919091010152600101611ca7565b505b5f611da58989808060200260200160405190810160405280939291908181526020018383602002808284375f92019190915250889250612931915050565b90505f6040518061018001604052808b8b905081526020018381526020015f81526020015f81526020015f81526020015f81526020015f81526020018b8b90506002611df191906135cb565b6001600160401b03811115611e0857611e08612f26565b604051908082528060200260200182016040528015611e31578160200160208202803683370190505b508152602001611e428b60026135cb565b6001600160401b03811115611e5957611e59612f26565b604051908082528060200260200182016040528015611e82578160200160208202803683370190505b508152602001611e938b60026135cb565b6001600160401b03811115611eaa57611eaa612f26565b604051908082528060200260200182016040528015611ed3578160200160208202803683370190505b508152602001611ee48b60026135cb565b6001600160401b03811115611efb57611efb612f26565b604051908082528060200260200182016040528015611f24578160200160208202803683370190505b5081526020018a6001600160401b03811115611f4257611f42612f26565b604051908082528060200260200182016040528015611f6b578160200160208202803683370190505b5081525090508a8161016001819052505f8a8a808060200260200160405190810160405280939291908181526020018383602002808284375f920182905250600154604080516304cc732560e01b8152905196975091956001600160a01b0390911694506304cc73259350600480830193506020928290030181865afa158015611ff7573d5f803e3d5ffd5b505050506040513d601f19601f8201168201806040525081019061201b9190613477565b90505f5b8251811015612473575f8d8d8381811061203b5761203b613639565b90506020020160208101906120509190613394565b6001600160a01b031663313ce5676040518163ffffffff1660e01b8152600401602060405180830381865afa15801561208b573d5f803e3d5ffd5b505050506040513d601f19601f820116820180604052508101906120af9190613492565b60ff1690505f806001600160a01b038516632bdd955a6120d085600a61369e565b6120db9060016135cb565b8887815181106120ed576120ed613639565b60200260200101516040518363ffffffff1660e01b81526004016121249291909182526001600160a01b0316602082015260400190565b602060405180830381865afa15801561213f573d5f803e3d5ffd5b505050506040513d601f19601f8201168201806040525081019061216391906135b4565b9050896001600160a01b031686858151811061218157612181613639565b60200260200101516001600160a01b031603612249575f8a6001600160a01b031663313ce5676040518163ffffffff1660e01b8152600401602060405180830381865afa1580156121d4573d5f803e3d5ffd5b505050506040513d601f19601f820116820180604052508101906121f89190613492565b60ff1690505f612209826012613660565b61221490600a61369e565b905080896101600151878151811061222e5761222e613639565b602002602001015161224091906135cb565b9350505061228e565b61228b86858151811061225e5761225e613639565b60200260200101518b896101600151878151811061227e5761227e613639565b60200260200101516102e2565b91505b5f8e8e868181106122a1576122a1613639565b9050602002013590505f89846127106122ba91906135cb565b6122c491906135e2565b90508181115f816122de576122d98385613660565b6122e8565b6122e88484613660565b90508180156122f657508f81115b156123d3575f6127106123098e846135cb565b61231391906135e2565b9050808c604001818151612327919061364d565b9052508561233d82670de0b6b3a76400006135cb565b61234791906135e2565b9050612354886012613660565b61235f90600a61369e565b61236990826135e2565b9050888c60e001518d606001518151811061238657612386613639565b602002602001018181525050808c61010001518d60600151815181106123ae576123ae613639565b602090810291909101015260608c018051906123c9826136a9565b8152505050612460565b811580156123e057508f81115b1561246057808b60a0018181516123f7919061364d565b9052506101208b015160808c015181518a929190811061241957612419613639565b602002602001018181525050808b61014001518c608001518151811061244157612441613639565b602090810291909101015260808b0180519061245c826136a9565b9052505b50506001909501945061201f9350505050565b506124868360e001518460600151612bc1565b60e084015261010083015160608401516124a09190612bc1565b61010084015261012083015160808401516124bb9190612bc1565b61012084015261014083015160808401516124d69190612bc1565b61014084015250909b9a5050505050505050505050565b610954612c59565b6124fd612c59565b6115d781612ca2565b5f8060015f9054906101000a90046001600160a01b03166001600160a01b0316634f4608a26040518163ffffffff1660e01b8152600401602060405180830381865afa158015612558573d5f803e3d5ffd5b505050506040513d601f19601f8201168201806040525081019061257c91906135b4565b90505f60015f9054906101000a90046001600160a01b03166001600160a01b03166385462d6f6040518163ffffffff1660e01b8152600401602060405180830381865afa1580156125cf573d5f803e3d5ffd5b505050506040513d601f19601f820116820180604052508101906125f391906135b4565b90505f826126018382613660565b61260b90876135cb565b61093a91906135e2565b604051636eb1769f60e11b81523060048201526001600160a01b0383811660248301528491839183169063dd62ed3e90604401602060405180830381865afa158015612663573d5f803e3d5ffd5b505050506040513d601f19601f8201168201806040525081019061268791906135b4565b101561276f5760405163095ea7b360e01b81526001600160a01b0384811660048301525f602483015282169063095ea7b3906044016020604051808303815f875af11580156126d8573d5f803e3d5ffd5b505050506040513d601f19601f820116820180604052508101906126fc919061361a565b5060405163095ea7b360e01b81526001600160a01b0384811660048301526024820184905282169063095ea7b3906044016020604051808303815f875af1158015612749573d5f803e3d5ffd5b505050506040513d601f19601f8201168201806040525081019061276d919061361a565b505b50505050565b61277e82612caa565b6040516001600160a01b038316907fbc7cd75a20ee27fd9adebab32041f755214dbc6bffa90cc0225b39da2e5c2d3b905f90a28051156127c2576119c68282612d0d565b61076d612d76565b5f80546040805163524900b560e01b8152905183926001600160a01b03169163524900b59160048083019260209291908290030181865afa158015612811573d5f803e3d5ffd5b505050506040513d601f19601f820116820180604052508101906128359190613477565b9050612842878286612615565b6040805160a081018252606089811b6bffffffffffffffffffffffff1990811660c084015261017760eb1b60d484018190528a831b821660d785015260eb84015288821b1660ee830152825160e28184030181526101028301845282526001600160a01b03808716602084015242838501529082018790525f6080830152915163c04b8d5960e01b8152909183169063c04b8d59906128e59084906004016136c1565b6020604051808303815f875af1158015612901573d5f803e3d5ffd5b505050506040513d601f19601f8201168201806040525081019061292591906135b4565b98975050505050505050565b5f8060015f9054906101000a90046001600160a01b03166001600160a01b0316631bf01e9b6040518163ffffffff1660e01b8152600401602060405180830381865afa158015612983573d5f803e3d5ffd5b505050506040513d601f19601f820116820180604052508101906129a79190613477565b90505f60015f9054906101000a90046001600160a01b03166001600160a01b03166304cc73256040518163ffffffff1660e01b8152600401602060405180830381865afa1580156129fa573d5f803e3d5ffd5b505050506040513d601f19601f82011682018060405250810190612a1e9190613477565b90505f805b8651811015612bb5575f878281518110612a3f57612a3f613639565b60209081029190910101516040516370a0823160e01b81526001600160a01b038981166004830152909116906370a0823190602401602060405180830381865afa158015612a8f573d5f803e3d5ffd5b505050506040513d601f19601f82011682018060405250810190612ab391906135b4565b9050846001600160a01b0316888381518110612ad157612ad1613639565b60200260200101516001600160a01b031603612b0757612af68164e8d4a510006135cb565b612b00908461364d565b9250612bac565b836001600160a01b0316632bdd955a828a8581518110612b2957612b29613639565b60200260200101516040518363ffffffff1660e01b8152600401612b609291909182526001600160a01b0316602082015260400190565b602060405180830381865afa158015612b7b573d5f803e3d5ffd5b505050506040513d601f19601f82011682018060405250810190612b9f91906135b4565b612ba9908461364d565b92505b50600101612a23565b50925050505b92915050565b60605f826001600160401b03811115612bdc57612bdc612f26565b604051908082528060200260200182016040528015612c05578160200160208202803683370190505b5090505f5b83811015612c5157848181518110612c2457612c24613639565b6020026020010151828281518110612c3e57612c3e613639565b6020908102919091010152600101612c0a565b509392505050565b7ff0c57e16840df040f15088dc2f81fe391c3923bec73e23a9662efc9c229c6a0054600160401b900460ff1661095457604051631afcd79f60e31b815260040160405180910390fd5b6115a5612c59565b806001600160a01b03163b5f03612cdf57604051634c9c8ce360e01b81526001600160a01b03821660048201526024016105d3565b5f8051602061372f83398151915280546001600160a01b0319166001600160a01b0392909216919091179055565b60605f80846001600160a01b031684604051612d299190613718565b5f60405180830381855af49150503d805f8114612d61576040519150601f19603f3d011682016040523d82523d5f602084013e612d66565b606091505b509150915061093a858383612d95565b34156109545760405163b398979f60e01b815260040160405180910390fd5b606082612daa57612da582612df1565b610591565b8151158015612dc157506001600160a01b0384163b155b15612dea57604051639996b31560e01b81526001600160a01b03851660048201526024016105d3565b5080610591565b805115612e015780518082602001fd5b604051630a12f52160e11b815260040160405180910390fd5b6040518061018001604052805f81526020015f81526020015f81526020015f81526020015f81526020015f81526020015f815260200160608152602001606081526020016060815260200160608152602001606081525090565b6001600160a01b03811681146115d7575f80fd5b8035612e9381612e74565b919050565b5f805f60608486031215612eaa575f80fd5b8335612eb581612e74565b92506020840135612ec581612e74565b929592945050506040919091013590565b5f805f8060808587031215612ee9575f80fd5b8435612ef481612e74565b93506020850135612f0481612e74565b9250604085013591506060850135612f1b81612e74565b939692955090935050565b634e487b7160e01b5f52604160045260245ffd5b604051601f8201601f191681016001600160401b0381118282101715612f6257612f62612f26565b604052919050565b5f8060408385031215612f7b575f80fd5b8235612f8681612e74565b91506020838101356001600160401b0380821115612fa2575f80fd5b818601915086601f830112612fb5575f80fd5b813581811115612fc757612fc7612f26565b612fd9601f8201601f19168501612f3a565b91508082528784828501011115612fee575f80fd5b80848401858401375f848284010152508093505050509250929050565b5f805f805f60a0868803121561301f575f80fd5b853561302a81612e74565b9450602086013561303a81612e74565b9350604086013561304a81612e74565b925060608601359150608086013561306181612e74565b809150509295509295909350565b5f8060408385031215613080575f80fd5b823561308b81612e74565b915060208301356001600160401b03811681146130a6575f80fd5b809150509250929050565b5f82601f8301126130c0575f80fd5b813560206001600160401b038211156130db576130db612f26565b8160051b6130ea828201612f3a565b9283528481018201928281019087851115613103575f80fd5b83870192505b8483101561312257823582529183019190830190613109565b979650505050505050565b5f8083601f84011261313d575f80fd5b5081356001600160401b03811115613153575f80fd5b6020830191508360208260051b850101111561316d575f80fd5b9250929050565b5f805f805f805f8060c0898b03121561318b575f80fd5b88356001600160401b03808211156131a1575f80fd5b6131ad8c838d016130b1565b995060208b01359150808211156131c2575f80fd5b6131ce8c838d0161312d565b909950975060408b01359150808211156131e6575f80fd5b506131f38b828c0161312d565b90965094505060608901359250608089013561320e81612e74565b915060a089013561321e81612e74565b809150509295985092959890939650565b5f815180845260208085019450602084015f5b8381101561325e57815187529582019590820190600101613242565b509495945050505050565b6020815281516020820152602082015160408201526040820151606082015260608201516080820152608082015160a082015260a082015160c082015260c082015160e08201525f60e083015161018061010081818601526132cf6101a086018461322f565b9250808601519050601f196101208187860301818801526132f0858461322f565b94508088015192505061014081878603018188015261330f858461322f565b94508088015192505061016081878603018188015261332e858461322f565b90880151878203909201848801529350905061334a838261322f565b9695505050505050565b5f81518084528060208401602086015e5f602082860101526020601f19601f83011685010191505092915050565b602081525f6105916020830184613354565b5f602082840312156133a4575f80fd5b813561059181612e74565b5f805f805f805f805f60e08a8c0312156133c7575f80fd5b89356001600160401b03808211156133dd575f80fd5b6133e98d838e016130b1565b9a5060208c01359150808211156133fe575f80fd5b61340a8d838e0161312d565b909a50985060408c0135915080821115613422575f80fd5b5061342f8c828d0161312d565b90975095505060608a0135935060808a013561344a81612e74565b925060a08a013561345a81612e74565b915061346860c08b01612e88565b90509295985092959850929598565b5f60208284031215613487575f80fd5b815161059181612e74565b5f602082840312156134a2575f80fd5b815160ff81168114610591575f80fd5b634e487b7160e01b5f52601160045260245ffd5b600181815b8085111561350057815f19048211156134e6576134e66134b2565b808516156134f357918102915b93841c93908002906134cb565b509250929050565b5f8261351657506001612bbb565b8161352257505f612bbb565b816001811461353857600281146135425761355e565b6001915050612bbb565b60ff841115613553576135536134b2565b50506001821b612bbb565b5060208310610133831016604e8410600b8410161715613581575081810a612bbb565b61358b83836134c6565b805f190482111561359e5761359e6134b2565b029392505050565b5f61059160ff841683613508565b5f602082840312156135c4575f80fd5b5051919050565b8082028115828204841417612bbb57612bbb6134b2565b5f826135fc57634e487b7160e01b5f52601260045260245ffd5b500490565b60ff8281168282160390811115612bbb57612bbb6134b2565b5f6020828403121561362a575f80fd5b81518015158114610591575f80fd5b634e487b7160e01b5f52603260045260245ffd5b80820180821115612bbb57612bbb6134b2565b81810381811115612bbb57612bbb6134b2565b6001600160a01b03948516815292841660208401526040830191909152909116606082015260800190565b5f6105918383613508565b5f600182016136ba576136ba6134b2565b5060010190565b602081525f825160a060208401526136dc60c0840182613354565b905060018060a01b0360208501511660408401526040840151606084015260608401516080840152608084015160a08401528091505092915050565b5f82518060208501845e5f92019182525091905056fe360894a13ba1a3210667c828492db98dca3e2076cc3735a920a3ca505d382bbca2646970667358221220ddc73b9d1871fc057206f2515671b680e152de6cce0b8e7c96221bd5b7fcdcfa64736f6c63430008190033",
    "sourcePath": "c:/Users/Utente/Source/repos/baluni-contracts/contracts/BaluniV1Rebalancer.sol",
    "compiler": {
        "name": "solc",
        "version": "0.8.25+commit.b61c2a91"
    },
    "functionHashes": {
        "UPGRADE_INTERFACE_VERSION()": "ad3cb1cc",
        "checkRebalance(uint256[],address[],uint256[],uint256,address,address)": "997146f5",
        "convert(address,address,uint256)": "248391ff",
        "initialize(address)": "c4d66de8",
        "multiHopSwap(address,address,address,uint256,address)": "5efaaebb",
        "owner()": "8da5cb5b",
        "proxiableUUID()": "52d1902d",
        "rebalance(uint256[],address[],uint256[],uint256,address,address,address)": "f0bf7714",
        "registry()": "7b103999",
        "reinitialize(address,uint64)": "8f2248bc",
        "renounceOwnership()": "715018a6",
        "singleSwap(address,address,uint256,address)": "2d6bc8ea",
        "transferOwnership(address)": "f2fde38b",
        "upgradeToAndCall(address,bytes)": "4f1ef286"
    },
    "gasEstimates": {
        "creation": {
            "codeDepositCost": "2842400",
            "executionCost": "infinite",
            "totalCost": "infinite"
        },
        "external": {
            "UPGRADE_INTERFACE_VERSION()": "infinite",
            "checkRebalance(uint256[],address[],uint256[],uint256,address,address)": "infinite",
            "convert(address,address,uint256)": "infinite",
            "initialize(address)": "infinite",
            "multiHopSwap(address,address,address,uint256,address)": "infinite",
            "owner()": "2353",
            "proxiableUUID()": "infinite",
            "rebalance(uint256[],address[],uint256[],uint256,address,address,address)": "infinite",
            "registry()": "2425",
            "reinitialize(address,uint64)": "78524",
            "renounceOwnership()": "infinite",
            "singleSwap(address,address,uint256,address)": "infinite",
            "transferOwnership(address)": "infinite",
            "upgradeToAndCall(address,bytes)": "infinite"
        },
        "internal": {
            "_authorizeUpgrade(address)": "infinite",
            "_checkRebalance(uint256[] memory,address[] calldata,uint256[] calldata,uint256,address,address)": "infinite",
            "_resize(uint256[] memory,uint256)": "infinite",
            "calculateNetAmountAfterFee(uint256)": "infinite",
            "calculateTotalValue(address[] memory,address)": "infinite"
        }
    }
}