{
    "contractName": "BaluniV1PoolRouter",
    "abi": [
        {
            "inputs": [],
            "stateMutability": "nonpayable",
            "type": "constructor"
        },
        {
            "inputs": [
                {
                    "internalType": "address",
                    "name": "target",
                    "type": "address"
                }
            ],
            "name": "AddressEmptyCode",
            "type": "error"
        },
        {
            "inputs": [
                {
                    "internalType": "address",
                    "name": "account",
                    "type": "address"
                }
            ],
            "name": "AddressInsufficientBalance",
            "type": "error"
        },
        {
            "inputs": [],
            "name": "FailedInnerCall",
            "type": "error"
        },
        {
            "inputs": [
                {
                    "internalType": "address",
                    "name": "owner",
                    "type": "address"
                }
            ],
            "name": "OwnableInvalidOwner",
            "type": "error"
        },
        {
            "inputs": [
                {
                    "internalType": "address",
                    "name": "account",
                    "type": "address"
                }
            ],
            "name": "OwnableUnauthorizedAccount",
            "type": "error"
        },
        {
            "inputs": [],
            "name": "ReentrancyGuardReentrantCall",
            "type": "error"
        },
        {
            "inputs": [
                {
                    "internalType": "address",
                    "name": "token",
                    "type": "address"
                }
            ],
            "name": "SafeERC20FailedOperation",
            "type": "error"
        },
        {
            "anonymous": false,
            "inputs": [
                {
                    "indexed": true,
                    "internalType": "address",
                    "name": "previousOwner",
                    "type": "address"
                },
                {
                    "indexed": true,
                    "internalType": "address",
                    "name": "newOwner",
                    "type": "address"
                }
            ],
            "name": "OwnershipTransferred",
            "type": "event"
        },
        {
            "inputs": [
                {
                    "internalType": "address[]",
                    "name": "tokens",
                    "type": "address[]"
                },
                {
                    "internalType": "address",
                    "name": "pool",
                    "type": "address"
                }
            ],
            "name": "approveSpendingByPool",
            "outputs": [],
            "stateMutability": "nonpayable",
            "type": "function"
        },
        {
            "inputs": [],
            "name": "owner",
            "outputs": [
                {
                    "internalType": "address",
                    "name": "",
                    "type": "address"
                }
            ],
            "stateMutability": "view",
            "type": "function"
        },
        {
            "inputs": [
                {
                    "internalType": "address[]",
                    "name": "tokenPath",
                    "type": "address[]"
                },
                {
                    "internalType": "address[]",
                    "name": "poolPath",
                    "type": "address[]"
                },
                {
                    "internalType": "uint256",
                    "name": "fromAmount",
                    "type": "uint256"
                }
            ],
            "name": "quotePotentialSwaps",
            "outputs": [
                {
                    "internalType": "uint256",
                    "name": "potentialOutcome",
                    "type": "uint256"
                },
                {
                    "internalType": "uint256",
                    "name": "haircut",
                    "type": "uint256"
                }
            ],
            "stateMutability": "view",
            "type": "function"
        },
        {
            "inputs": [],
            "name": "renounceOwnership",
            "outputs": [],
            "stateMutability": "nonpayable",
            "type": "function"
        },
        {
            "inputs": [
                {
                    "internalType": "address[]",
                    "name": "tokenPath",
                    "type": "address[]"
                },
                {
                    "internalType": "address[]",
                    "name": "poolPath",
                    "type": "address[]"
                },
                {
                    "internalType": "uint256",
                    "name": "fromAmount",
                    "type": "uint256"
                },
                {
                    "internalType": "uint256",
                    "name": "minimumToAmount",
                    "type": "uint256"
                },
                {
                    "internalType": "address",
                    "name": "to",
                    "type": "address"
                },
                {
                    "internalType": "uint256",
                    "name": "deadline",
                    "type": "uint256"
                }
            ],
            "name": "swapTokensForTokens",
            "outputs": [
                {
                    "internalType": "uint256",
                    "name": "amountOut",
                    "type": "uint256"
                },
                {
                    "internalType": "uint256",
                    "name": "haircut",
                    "type": "uint256"
                }
            ],
            "stateMutability": "nonpayable",
            "type": "function"
        },
        {
            "inputs": [
                {
                    "internalType": "address",
                    "name": "newOwner",
                    "type": "address"
                }
            ],
            "name": "transferOwnership",
            "outputs": [],
            "stateMutability": "nonpayable",
            "type": "function"
        }
    ],
    "bytecode": "6080604052348015600e575f80fd5b503380603357604051631e4fbdf760e01b81525f600482015260240160405180910390fd5b603a816043565b50600180556092565b5f80546001600160a01b038381166001600160a01b0319831681178455604051919092169283917f8be0079c531659141344cd1fd0a4f28419497f9722a3daafe3b4186f6b6457e09190a35050565b610fa08061009f5f395ff3fe608060405234801561000f575f80fd5b5060043610610060575f3560e01c806321579b79146100645780634209bed014610091578063715018a6146100a45780638d8f82e6146100ae5780638da5cb5b146100c1578063f2fde38b146100db575b5f80fd5b610077610072366004610c1b565b6100ee565b604080519283526020830191909152015b60405180910390f35b61007761009f366004610cb0565b610301565b6100ac6105c7565b005b6100ac6100bc366004610d1e565b6105da565b5f546040516001600160a01b039091168152602001610088565b6100ac6100e9366004610d6e565b610694565b5f8082428110156101305760405162461bcd60e51b8152602060048201526007602482015266195e1c1a5c995960ca1b60448201526064015b60405180910390fd5b6101386106d1565b5f871161017d5760405162461bcd60e51b81526020600482015260136024820152721a5b9d985b1a5908199c9bdb48185b5bdd5b9d606a1b6044820152606401610127565b60028a10156101c35760405162461bcd60e51b81526020600482015260126024820152710d2dcecc2d8d2c840e8ded6cadc40e0c2e8d60731b6044820152606401610127565b6101ce60018b610d9b565b88146102105760405162461bcd60e51b81526020600482015260116024820152700d2dcecc2d8d2c840e0deded840e0c2e8d607b1b6044820152606401610127565b6001600160a01b0385166102555760405162461bcd60e51b815260206004820152600c60248201526b7a65726f206164647265737360a01b6044820152606401610127565b6102933330898e8e5f81811061026d5761026d610dae565b90506020020160208101906102829190610d6e565b6001600160a01b03169291906106fb565b6102a18b8b8b8b8b8a610755565b9093509150858310156102ea5760405162461bcd60e51b8152602060048201526011602482015270616d6f756e744f757420746f6f206c6f7760781b6044820152606401610127565b6102f360018055565b509850989650505050505050565b5f805f83116103485760405162461bcd60e51b81526020600482015260136024820152721a5b9d985b1a5908199c9bdb48185b5bdd5b9d606a1b6044820152606401610127565b600286101561038e5760405162461bcd60e51b81526020600482015260126024820152710d2dcecc2d8d2c840e8ded6cadc40e0c2e8d60731b6044820152606401610127565b610399600187610d9b565b84146103db5760405162461bcd60e51b81526020600482015260116024820152700d2dcecc2d8d2c840e0deded840e0c2e8d607b1b6044820152606401610127565b5f83815b868110156105ba5780156103f1578491505b87878281811061040357610403610dae565b90506020020160208101906104189190610d6e565b6001600160a01b03166343c2e2f58b8b8481811061043857610438610dae565b905060200201602081019061044d9190610d6e565b8c8c61045a866001610dc2565b81811061046957610469610dae565b905060200201602081019061047e9190610d6e565b6040516001600160e01b031960e085901b1681526001600160a01b03928316600482015291166024820152604481018590526064016040805180830381865afa1580156104cd573d5f803e3d5ffd5b505050506040513d601f19601f820116820180604052508101906104f19190610dd5565b90955092508989610503836001610dc2565b81811061051257610512610dae565b90506020020160208101906105279190610d6e565b6001600160a01b031663313ce5676040518163ffffffff1660e01b8152600401602060405180830381865afa158015610562573d5f803e3d5ffd5b505050506040513d601f19601f820116820180604052508101906105869190610df7565b610591906012610e17565b61059c90600a610f10565b6105a69084610f1e565b6105b09085610dc2565b93506001016103df565b5050509550959350505050565b6105cf6109a1565b6105d85f6109cd565b565b6105e26109a1565b5f5b8281101561068e578383828181106105fe576105fe610dae565b90506020020160208101906106139190610d6e565b60405163095ea7b360e01b81526001600160a01b0384811660048301525f196024830152919091169063095ea7b3906044016020604051808303815f875af1158015610661573d5f803e3d5ffd5b505050506040513d601f19601f820116820180604052508101906106859190610f35565b506001016105e4565b50505050565b61069c6109a1565b6001600160a01b0381166106c557604051631e4fbdf760e01b81525f6004820152602401610127565b6106ce816109cd565b50565b6002600154036106f457604051633ee5aeb560e01b815260040160405180910390fd5b6002600155565b604080516001600160a01b0385811660248301528416604482015260648082018490528251808303909101815260849091019091526020810180516001600160e01b03166323b872dd60e01b17905261068e908590610a1c565b5f80808481805b8881101561099257801580156107725750600189145b1561077f578691506107b2565b805f0361078e573091506107b2565b61079960018a610d9b565b8110156107ab573091508592506107b2565b8691508592505b8989828181106107c4576107c4610dae565b90506020020160208101906107d99190610d6e565b6001600160a01b0316639908fc8b8d8d848181106107f9576107f9610dae565b905060200201602081019061080e9190610d6e565b8e8e61081b866001610dc2565b81811061082a5761082a610dae565b905060200201602081019061083f9190610d6e565b6040516001600160e01b031960e085901b1681526001600160a01b0392831660048201529082166024820152604481018790525f606482015290851660848201525f1960a482015260c40160408051808303815f875af11580156108a5573d5f803e3d5ffd5b505050506040513d601f19601f820116820180604052508101906108c99190610dd5565b90965093508b8b6108db836001610dc2565b8181106108ea576108ea610dae565b90506020020160208101906108ff9190610d6e565b6001600160a01b031663313ce5676040518163ffffffff1660e01b8152600401602060405180830381865afa15801561093a573d5f803e3d5ffd5b505050506040513d601f19601f8201168201806040525081019061095e9190610df7565b610969906012610e17565b61097490600a610f10565b61097e9085610f1e565b6109889086610dc2565b945060010161075c565b50505050965096945050505050565b5f546001600160a01b031633146105d85760405163118cdaa760e01b8152336004820152602401610127565b5f80546001600160a01b038381166001600160a01b0319831681178455604051919092169283917f8be0079c531659141344cd1fd0a4f28419497f9722a3daafe3b4186f6b6457e09190a35050565b5f610a306001600160a01b03841683610a82565b905080515f14158015610a54575080806020019051810190610a529190610f35565b155b15610a7d57604051635274afe760e01b81526001600160a01b0384166004820152602401610127565b505050565b6060610a8f83835f610a98565b90505b92915050565b606081471015610abd5760405163cd78605960e01b8152306004820152602401610127565b5f80856001600160a01b03168486604051610ad89190610f54565b5f6040518083038185875af1925050503d805f8114610b12576040519150601f19603f3d011682016040523d82523d5f602084013e610b17565b606091505b5091509150610b27868383610b33565b925050505b9392505050565b606082610b4857610b4382610b8f565b610b2c565b8151158015610b5f57506001600160a01b0384163b155b15610b8857604051639996b31560e01b81526001600160a01b0385166004820152602401610127565b5080610b2c565b805115610b9f5780518082602001fd5b604051630a12f52160e11b815260040160405180910390fd5b5f8083601f840112610bc8575f80fd5b50813567ffffffffffffffff811115610bdf575f80fd5b6020830191508360208260051b8501011115610bf9575f80fd5b9250929050565b80356001600160a01b0381168114610c16575f80fd5b919050565b5f805f805f805f8060c0898b031215610c32575f80fd5b883567ffffffffffffffff80821115610c49575f80fd5b610c558c838d01610bb8565b909a50985060208b0135915080821115610c6d575f80fd5b50610c7a8b828c01610bb8565b9097509550506040890135935060608901359250610c9a60808a01610c00565b915060a089013590509295985092959890939650565b5f805f805f60608688031215610cc4575f80fd5b853567ffffffffffffffff80821115610cdb575f80fd5b610ce789838a01610bb8565b90975095506020880135915080821115610cff575f80fd5b50610d0c88828901610bb8565b96999598509660400135949350505050565b5f805f60408486031215610d30575f80fd5b833567ffffffffffffffff811115610d46575f80fd5b610d5286828701610bb8565b9094509250610d65905060208501610c00565b90509250925092565b5f60208284031215610d7e575f80fd5b610a8f82610c00565b634e487b7160e01b5f52601160045260245ffd5b81810381811115610a9257610a92610d87565b634e487b7160e01b5f52603260045260245ffd5b80820180821115610a9257610a92610d87565b5f8060408385031215610de6575f80fd5b505080516020909101519092909150565b5f60208284031215610e07575f80fd5b815160ff81168114610b2c575f80fd5b60ff8281168282160390811115610a9257610a92610d87565b600181815b80851115610e6a57815f1904821115610e5057610e50610d87565b80851615610e5d57918102915b93841c9390800290610e35565b509250929050565b5f82610e8057506001610a92565b81610e8c57505f610a92565b8160018114610ea25760028114610eac57610ec8565b6001915050610a92565b60ff841115610ebd57610ebd610d87565b50506001821b610a92565b5060208310610133831016604e8410600b8410161715610eeb575081810a610a92565b610ef58383610e30565b805f1904821115610f0857610f08610d87565b029392505050565b5f610a8f60ff841683610e72565b8082028115828204841417610a9257610a92610d87565b5f60208284031215610f45575f80fd5b81518015158114610b2c575f80fd5b5f82518060208501845e5f92019182525091905056fea2646970667358221220a49c83b3641db0027858f67c83e5e38ef6c4fc66e674bb6722c9f5f30f7bb27a64736f6c63430008190033",
    "sourcePath": "c:/Users/Utente/Source/repos/baluni-contracts/contracts/BaluniV1PoolRouter.sol",
    "compiler": {
        "name": "solc",
        "version": "0.8.25+commit.b61c2a91"
    },
    "functionHashes": {
        "approveSpendingByPool(address[],address)": "8d8f82e6",
        "owner()": "8da5cb5b",
        "quotePotentialSwaps(address[],address[],uint256)": "4209bed0",
        "renounceOwnership()": "715018a6",
        "swapTokensForTokens(address[],address[],uint256,uint256,address,uint256)": "21579b79",
        "transferOwnership(address)": "f2fde38b"
    },
    "gasEstimates": {
        "creation": {
            "codeDepositCost": "800000",
            "executionCost": "48797",
            "totalCost": "848797"
        },
        "external": {
            "approveSpendingByPool(address[],address)": "infinite",
            "owner()": "2365",
            "quotePotentialSwaps(address[],address[],uint256)": "infinite",
            "renounceOwnership()": "infinite",
            "swapTokensForTokens(address[],address[],uint256,uint256,address,uint256)": "infinite",
            "transferOwnership(address)": "28421"
        },
        "internal": {
            "_swap(address[] calldata,address[] calldata,uint256,address)": "infinite"
        }
    }
}