{
    "contractName": "BaluniV1Router",
    "abi": [
        {
            "inputs": [
                {
                    "internalType": "address",
                    "name": "target",
                    "type": "address"
                }
            ],
            "name": "AddressEmptyCode",
            "type": "error"
        },
        {
            "inputs": [
                {
                    "internalType": "address",
                    "name": "implementation",
                    "type": "address"
                }
            ],
            "name": "ERC1967InvalidImplementation",
            "type": "error"
        },
        {
            "inputs": [],
            "name": "ERC1967NonPayable",
            "type": "error"
        },
        {
            "inputs": [
                {
                    "internalType": "address",
                    "name": "spender",
                    "type": "address"
                },
                {
                    "internalType": "uint256",
                    "name": "allowance",
                    "type": "uint256"
                },
                {
                    "internalType": "uint256",
                    "name": "needed",
                    "type": "uint256"
                }
            ],
            "name": "ERC20InsufficientAllowance",
            "type": "error"
        },
        {
            "inputs": [
                {
                    "internalType": "address",
                    "name": "sender",
                    "type": "address"
                },
                {
                    "internalType": "uint256",
                    "name": "balance",
                    "type": "uint256"
                },
                {
                    "internalType": "uint256",
                    "name": "needed",
                    "type": "uint256"
                }
            ],
            "name": "ERC20InsufficientBalance",
            "type": "error"
        },
        {
            "inputs": [
                {
                    "internalType": "address",
                    "name": "approver",
                    "type": "address"
                }
            ],
            "name": "ERC20InvalidApprover",
            "type": "error"
        },
        {
            "inputs": [
                {
                    "internalType": "address",
                    "name": "receiver",
                    "type": "address"
                }
            ],
            "name": "ERC20InvalidReceiver",
            "type": "error"
        },
        {
            "inputs": [
                {
                    "internalType": "address",
                    "name": "sender",
                    "type": "address"
                }
            ],
            "name": "ERC20InvalidSender",
            "type": "error"
        },
        {
            "inputs": [
                {
                    "internalType": "address",
                    "name": "spender",
                    "type": "address"
                }
            ],
            "name": "ERC20InvalidSpender",
            "type": "error"
        },
        {
            "inputs": [],
            "name": "FailedInnerCall",
            "type": "error"
        },
        {
            "inputs": [],
            "name": "InvalidInitialization",
            "type": "error"
        },
        {
            "inputs": [],
            "name": "NotInitializing",
            "type": "error"
        },
        {
            "inputs": [
                {
                    "internalType": "address",
                    "name": "owner",
                    "type": "address"
                }
            ],
            "name": "OwnableInvalidOwner",
            "type": "error"
        },
        {
            "inputs": [
                {
                    "internalType": "address",
                    "name": "account",
                    "type": "address"
                }
            ],
            "name": "OwnableUnauthorizedAccount",
            "type": "error"
        },
        {
            "inputs": [],
            "name": "ReentrancyGuardReentrantCall",
            "type": "error"
        },
        {
            "inputs": [],
            "name": "UUPSUnauthorizedCallContext",
            "type": "error"
        },
        {
            "inputs": [
                {
                    "internalType": "bytes32",
                    "name": "slot",
                    "type": "bytes32"
                }
            ],
            "name": "UUPSUnsupportedProxiableUUID",
            "type": "error"
        },
        {
            "anonymous": false,
            "inputs": [
                {
                    "indexed": true,
                    "internalType": "address",
                    "name": "owner",
                    "type": "address"
                },
                {
                    "indexed": true,
                    "internalType": "address",
                    "name": "spender",
                    "type": "address"
                },
                {
                    "indexed": false,
                    "internalType": "uint256",
                    "name": "value",
                    "type": "uint256"
                }
            ],
            "name": "Approval",
            "type": "event"
        },
        {
            "anonymous": false,
            "inputs": [
                {
                    "indexed": false,
                    "internalType": "address",
                    "name": "user",
                    "type": "address"
                },
                {
                    "indexed": false,
                    "internalType": "uint256",
                    "name": "value",
                    "type": "uint256"
                }
            ],
            "name": "Burn",
            "type": "event"
        },
        {
            "anonymous": false,
            "inputs": [
                {
                    "indexed": false,
                    "internalType": "uint256",
                    "name": "newFee",
                    "type": "uint256"
                }
            ],
            "name": "ChangeBpsFee",
            "type": "event"
        },
        {
            "anonymous": false,
            "inputs": [
                {
                    "indexed": false,
                    "internalType": "address",
                    "name": "pool",
                    "type": "address"
                }
            ],
            "name": "ChangeRewardPool",
            "type": "event"
        },
        {
            "anonymous": false,
            "inputs": [
                {
                    "indexed": false,
                    "internalType": "address",
                    "name": "user",
                    "type": "address"
                },
                {
                    "components": [
                        {
                            "internalType": "address",
                            "name": "to",
                            "type": "address"
                        },
                        {
                            "internalType": "uint256",
                            "name": "value",
                            "type": "uint256"
                        },
                        {
                            "internalType": "bytes",
                            "name": "data",
                            "type": "bytes"
                        }
                    ],
                    "indexed": false,
                    "internalType": "struct IBaluniV1Agent.Call[]",
                    "name": "calls",
                    "type": "tuple[]"
                },
                {
                    "indexed": false,
                    "internalType": "address[]",
                    "name": "tokensReturn",
                    "type": "address[]"
                }
            ],
            "name": "Execute",
            "type": "event"
        },
        {
            "anonymous": false,
            "inputs": [
                {
                    "indexed": false,
                    "internalType": "uint64",
                    "name": "version",
                    "type": "uint64"
                }
            ],
            "name": "Initialized",
            "type": "event"
        },
        {
            "anonymous": false,
            "inputs": [
                {
                    "indexed": false,
                    "internalType": "string",
                    "name": "message",
                    "type": "string"
                },
                {
                    "indexed": false,
                    "internalType": "uint256",
                    "name": "value",
                    "type": "uint256"
                }
            ],
            "name": "Log",
            "type": "event"
        },
        {
            "anonymous": false,
            "inputs": [
                {
                    "indexed": false,
                    "internalType": "address",
                    "name": "user",
                    "type": "address"
                },
                {
                    "indexed": false,
                    "internalType": "uint256",
                    "name": "value",
                    "type": "uint256"
                }
            ],
            "name": "Mint",
            "type": "event"
        },
        {
            "anonymous": false,
            "inputs": [
                {
                    "indexed": true,
                    "internalType": "address",
                    "name": "previousOwner",
                    "type": "address"
                },
                {
                    "indexed": true,
                    "internalType": "address",
                    "name": "newOwner",
                    "type": "address"
                }
            ],
            "name": "OwnershipTransferred",
            "type": "event"
        },
        {
            "anonymous": false,
            "inputs": [
                {
                    "indexed": true,
                    "internalType": "address",
                    "name": "from",
                    "type": "address"
                },
                {
                    "indexed": true,
                    "internalType": "address",
                    "name": "to",
                    "type": "address"
                },
                {
                    "indexed": false,
                    "internalType": "uint256",
                    "name": "value",
                    "type": "uint256"
                }
            ],
            "name": "Transfer",
            "type": "event"
        },
        {
            "anonymous": false,
            "inputs": [
                {
                    "indexed": true,
                    "internalType": "address",
                    "name": "implementation",
                    "type": "address"
                }
            ],
            "name": "Upgraded",
            "type": "event"
        },
        {
            "inputs": [],
            "name": "UPGRADE_INTERFACE_VERSION",
            "outputs": [
                {
                    "internalType": "string",
                    "name": "",
                    "type": "string"
                }
            ],
            "stateMutability": "view",
            "type": "function"
        },
        {
            "inputs": [],
            "name": "USDC",
            "outputs": [
                {
                    "internalType": "address",
                    "name": "",
                    "type": "address"
                }
            ],
            "stateMutability": "view",
            "type": "function"
        },
        {
            "inputs": [],
            "name": "WNATIVE",
            "outputs": [
                {
                    "internalType": "address",
                    "name": "",
                    "type": "address"
                }
            ],
            "stateMutability": "view",
            "type": "function"
        },
        {
            "inputs": [],
            "name": "_BPS_BASE",
            "outputs": [
                {
                    "internalType": "uint256",
                    "name": "",
                    "type": "uint256"
                }
            ],
            "stateMutability": "view",
            "type": "function"
        },
        {
            "inputs": [],
            "name": "_BPS_FEE",
            "outputs": [
                {
                    "internalType": "uint256",
                    "name": "",
                    "type": "uint256"
                }
            ],
            "stateMutability": "view",
            "type": "function"
        },
        {
            "inputs": [],
            "name": "_MAX_BPS_FEE",
            "outputs": [
                {
                    "internalType": "uint256",
                    "name": "",
                    "type": "uint256"
                }
            ],
            "stateMutability": "view",
            "type": "function"
        },
        {
            "inputs": [],
            "name": "agentFactory",
            "outputs": [
                {
                    "internalType": "address",
                    "name": "",
                    "type": "address"
                }
            ],
            "stateMutability": "view",
            "type": "function"
        },
        {
            "inputs": [
                {
                    "internalType": "address",
                    "name": "owner",
                    "type": "address"
                },
                {
                    "internalType": "address",
                    "name": "spender",
                    "type": "address"
                }
            ],
            "name": "allowance",
            "outputs": [
                {
                    "internalType": "uint256",
                    "name": "",
                    "type": "uint256"
                }
            ],
            "stateMutability": "view",
            "type": "function"
        },
        {
            "inputs": [
                {
                    "internalType": "address",
                    "name": "spender",
                    "type": "address"
                },
                {
                    "internalType": "uint256",
                    "name": "value",
                    "type": "uint256"
                }
            ],
            "name": "approve",
            "outputs": [
                {
                    "internalType": "bool",
                    "name": "",
                    "type": "bool"
                }
            ],
            "stateMutability": "nonpayable",
            "type": "function"
        },
        {
            "inputs": [
                {
                    "internalType": "address",
                    "name": "account",
                    "type": "address"
                }
            ],
            "name": "balanceOf",
            "outputs": [
                {
                    "internalType": "uint256",
                    "name": "",
                    "type": "uint256"
                }
            ],
            "stateMutability": "view",
            "type": "function"
        },
        {
            "inputs": [
                {
                    "internalType": "uint256",
                    "name": "burnAmount",
                    "type": "uint256"
                }
            ],
            "name": "burnERC20",
            "outputs": [],
            "stateMutability": "nonpayable",
            "type": "function"
        },
        {
            "inputs": [
                {
                    "internalType": "uint256",
                    "name": "burnAmount",
                    "type": "uint256"
                }
            ],
            "name": "burnUSDC",
            "outputs": [],
            "stateMutability": "nonpayable",
            "type": "function"
        },
        {
            "inputs": [
                {
                    "internalType": "uint256",
                    "name": "totalBaluni",
                    "type": "uint256"
                },
                {
                    "internalType": "uint256",
                    "name": "totalERC20Balance",
                    "type": "uint256"
                },
                {
                    "internalType": "uint256",
                    "name": "baluniAmount",
                    "type": "uint256"
                },
                {
                    "internalType": "uint256",
                    "name": "tokenDecimals",
                    "type": "uint256"
                }
            ],
            "name": "calculateTokenShare",
            "outputs": [
                {
                    "internalType": "uint256",
                    "name": "",
                    "type": "uint256"
                }
            ],
            "stateMutability": "pure",
            "type": "function"
        },
        {
            "inputs": [
                {
                    "internalType": "address[]",
                    "name": "assets",
                    "type": "address[]"
                },
                {
                    "internalType": "uint256[]",
                    "name": "weights",
                    "type": "uint256[]"
                },
                {
                    "internalType": "address",
                    "name": "sender",
                    "type": "address"
                },
                {
                    "internalType": "address",
                    "name": "receiver",
                    "type": "address"
                },
                {
                    "internalType": "uint256",
                    "name": "limit",
                    "type": "uint256"
                },
                {
                    "internalType": "address",
                    "name": "",
                    "type": "address"
                }
            ],
            "name": "callRebalance",
            "outputs": [],
            "stateMutability": "nonpayable",
            "type": "function"
        },
        {
            "inputs": [
                {
                    "internalType": "address",
                    "name": "_agentFactory",
                    "type": "address"
                }
            ],
            "name": "changeAgentFactory",
            "outputs": [],
            "stateMutability": "nonpayable",
            "type": "function"
        },
        {
            "inputs": [
                {
                    "internalType": "uint256",
                    "name": "_newFee",
                    "type": "uint256"
                }
            ],
            "name": "changeBpsFee",
            "outputs": [],
            "stateMutability": "nonpayable",
            "type": "function"
        },
        {
            "inputs": [
                {
                    "internalType": "address",
                    "name": "_newRebalancer",
                    "type": "address"
                }
            ],
            "name": "changeRebalancer",
            "outputs": [],
            "stateMutability": "nonpayable",
            "type": "function"
        },
        {
            "inputs": [
                {
                    "internalType": "address",
                    "name": "_newTreasury",
                    "type": "address"
                }
            ],
            "name": "changeTreasury",
            "outputs": [],
            "stateMutability": "nonpayable",
            "type": "function"
        },
        {
            "inputs": [],
            "name": "decimals",
            "outputs": [
                {
                    "internalType": "uint8",
                    "name": "",
                    "type": "uint8"
                }
            ],
            "stateMutability": "view",
            "type": "function"
        },
        {
            "inputs": [
                {
                    "components": [
                        {
                            "internalType": "address",
                            "name": "to",
                            "type": "address"
                        },
                        {
                            "internalType": "uint256",
                            "name": "value",
                            "type": "uint256"
                        },
                        {
                            "internalType": "bytes",
                            "name": "data",
                            "type": "bytes"
                        }
                    ],
                    "internalType": "struct IBaluniV1Agent.Call[]",
                    "name": "calls",
                    "type": "tuple[]"
                },
                {
                    "internalType": "address[]",
                    "name": "tokensReturn",
                    "type": "address[]"
                }
            ],
            "name": "execute",
            "outputs": [],
            "stateMutability": "nonpayable",
            "type": "function"
        },
        {
            "inputs": [
                {
                    "internalType": "address",
                    "name": "_user",
                    "type": "address"
                }
            ],
            "name": "getAgentAddress",
            "outputs": [
                {
                    "internalType": "address",
                    "name": "",
                    "type": "address"
                }
            ],
            "stateMutability": "view",
            "type": "function"
        },
        {
            "inputs": [],
            "name": "getTokens",
            "outputs": [
                {
                    "internalType": "address[]",
                    "name": "",
                    "type": "address[]"
                }
            ],
            "stateMutability": "view",
            "type": "function"
        },
        {
            "inputs": [
                {
                    "internalType": "uint256",
                    "name": "amount",
                    "type": "uint256"
                }
            ],
            "name": "getUSDCShareValue",
            "outputs": [
                {
                    "internalType": "uint256",
                    "name": "",
                    "type": "uint256"
                }
            ],
            "stateMutability": "view",
            "type": "function"
        },
        {
            "inputs": [],
            "name": "getVersion",
            "outputs": [
                {
                    "internalType": "uint64",
                    "name": "",
                    "type": "uint64"
                }
            ],
            "stateMutability": "view",
            "type": "function"
        },
        {
            "inputs": [
                {
                    "internalType": "address",
                    "name": "_usdc",
                    "type": "address"
                },
                {
                    "internalType": "address",
                    "name": "_wnative",
                    "type": "address"
                },
                {
                    "internalType": "address",
                    "name": "_1inchSpotAgg",
                    "type": "address"
                },
                {
                    "internalType": "address",
                    "name": "_uniRouter",
                    "type": "address"
                },
                {
                    "internalType": "address",
                    "name": "_uniFactory",
                    "type": "address"
                },
                {
                    "internalType": "address",
                    "name": "_rebalancer",
                    "type": "address"
                }
            ],
            "name": "initialize",
            "outputs": [],
            "stateMutability": "nonpayable",
            "type": "function"
        },
        {
            "inputs": [
                {
                    "internalType": "address",
                    "name": "token",
                    "type": "address"
                }
            ],
            "name": "liquidate",
            "outputs": [],
            "stateMutability": "nonpayable",
            "type": "function"
        },
        {
            "inputs": [],
            "name": "liquidateAll",
            "outputs": [],
            "stateMutability": "nonpayable",
            "type": "function"
        },
        {
            "inputs": [
                {
                    "internalType": "uint256",
                    "name": "balAmountToMint",
                    "type": "uint256"
                }
            ],
            "name": "mintWithUSDC",
            "outputs": [],
            "stateMutability": "nonpayable",
            "type": "function"
        },
        {
            "inputs": [
                {
                    "internalType": "address",
                    "name": "token0",
                    "type": "address"
                },
                {
                    "internalType": "address",
                    "name": "token1",
                    "type": "address"
                },
                {
                    "internalType": "address",
                    "name": "token2",
                    "type": "address"
                },
                {
                    "internalType": "uint256",
                    "name": "amount",
                    "type": "uint256"
                },
                {
                    "internalType": "address",
                    "name": "receiver",
                    "type": "address"
                }
            ],
            "name": "multiHopSwap",
            "outputs": [
                {
                    "internalType": "uint256",
                    "name": "amountOut",
                    "type": "uint256"
                }
            ],
            "stateMutability": "nonpayable",
            "type": "function"
        },
        {
            "inputs": [],
            "name": "name",
            "outputs": [
                {
                    "internalType": "string",
                    "name": "",
                    "type": "string"
                }
            ],
            "stateMutability": "view",
            "type": "function"
        },
        {
            "inputs": [],
            "name": "oracle",
            "outputs": [
                {
                    "internalType": "address",
                    "name": "",
                    "type": "address"
                }
            ],
            "stateMutability": "view",
            "type": "function"
        },
        {
            "inputs": [],
            "name": "owner",
            "outputs": [
                {
                    "internalType": "address",
                    "name": "",
                    "type": "address"
                }
            ],
            "stateMutability": "view",
            "type": "function"
        },
        {
            "inputs": [],
            "name": "proxiableUUID",
            "outputs": [
                {
                    "internalType": "bytes32",
                    "name": "",
                    "type": "bytes32"
                }
            ],
            "stateMutability": "view",
            "type": "function"
        },
        {
            "inputs": [],
            "name": "rebalancer",
            "outputs": [
                {
                    "internalType": "address",
                    "name": "",
                    "type": "address"
                }
            ],
            "stateMutability": "view",
            "type": "function"
        },
        {
            "inputs": [
                {
                    "internalType": "address",
                    "name": "_usdc",
                    "type": "address"
                },
                {
                    "internalType": "address",
                    "name": "_wnative",
                    "type": "address"
                },
                {
                    "internalType": "address",
                    "name": "_1inchSpotAgg",
                    "type": "address"
                },
                {
                    "internalType": "address",
                    "name": "_uniRouter",
                    "type": "address"
                },
                {
                    "internalType": "address",
                    "name": "_uniFactory",
                    "type": "address"
                },
                {
                    "internalType": "address",
                    "name": "_rebalancer",
                    "type": "address"
                },
                {
                    "internalType": "uint64",
                    "name": "version",
                    "type": "uint64"
                }
            ],
            "name": "reinitialize",
            "outputs": [],
            "stateMutability": "nonpayable",
            "type": "function"
        },
        {
            "inputs": [],
            "name": "renounceOwnership",
            "outputs": [],
            "stateMutability": "nonpayable",
            "type": "function"
        },
        {
            "inputs": [
                {
                    "internalType": "uint256",
                    "name": "balAmountToMint",
                    "type": "uint256"
                }
            ],
            "name": "requiredUSDCtoMint",
            "outputs": [
                {
                    "internalType": "uint256",
                    "name": "",
                    "type": "uint256"
                }
            ],
            "stateMutability": "view",
            "type": "function"
        },
        {
            "inputs": [
                {
                    "internalType": "address",
                    "name": "token0",
                    "type": "address"
                },
                {
                    "internalType": "address",
                    "name": "token1",
                    "type": "address"
                },
                {
                    "internalType": "uint256",
                    "name": "amount",
                    "type": "uint256"
                },
                {
                    "internalType": "address",
                    "name": "receiver",
                    "type": "address"
                }
            ],
            "name": "singleSwap",
            "outputs": [
                {
                    "internalType": "uint256",
                    "name": "amountOut",
                    "type": "uint256"
                }
            ],
            "stateMutability": "nonpayable",
            "type": "function"
        },
        {
            "inputs": [],
            "name": "symbol",
            "outputs": [
                {
                    "internalType": "string",
                    "name": "",
                    "type": "string"
                }
            ],
            "stateMutability": "view",
            "type": "function"
        },
        {
            "inputs": [
                {
                    "internalType": "uint256",
                    "name": "amount",
                    "type": "uint256"
                },
                {
                    "internalType": "address",
                    "name": "token",
                    "type": "address"
                }
            ],
            "name": "tokenValuation",
            "outputs": [
                {
                    "internalType": "uint256",
                    "name": "",
                    "type": "uint256"
                }
            ],
            "stateMutability": "view",
            "type": "function"
        },
        {
            "inputs": [],
            "name": "totalSupply",
            "outputs": [
                {
                    "internalType": "uint256",
                    "name": "",
                    "type": "uint256"
                }
            ],
            "stateMutability": "view",
            "type": "function"
        },
        {
            "inputs": [],
            "name": "totalValuation",
            "outputs": [
                {
                    "internalType": "uint256",
                    "name": "",
                    "type": "uint256"
                }
            ],
            "stateMutability": "view",
            "type": "function"
        },
        {
            "inputs": [
                {
                    "internalType": "address",
                    "name": "to",
                    "type": "address"
                },
                {
                    "internalType": "uint256",
                    "name": "value",
                    "type": "uint256"
                }
            ],
            "name": "transfer",
            "outputs": [
                {
                    "internalType": "bool",
                    "name": "",
                    "type": "bool"
                }
            ],
            "stateMutability": "nonpayable",
            "type": "function"
        },
        {
            "inputs": [
                {
                    "internalType": "address",
                    "name": "from",
                    "type": "address"
                },
                {
                    "internalType": "address",
                    "name": "to",
                    "type": "address"
                },
                {
                    "internalType": "uint256",
                    "name": "value",
                    "type": "uint256"
                }
            ],
            "name": "transferFrom",
            "outputs": [
                {
                    "internalType": "bool",
                    "name": "",
                    "type": "bool"
                }
            ],
            "stateMutability": "nonpayable",
            "type": "function"
        },
        {
            "inputs": [
                {
                    "internalType": "address",
                    "name": "newOwner",
                    "type": "address"
                }
            ],
            "name": "transferOwnership",
            "outputs": [],
            "stateMutability": "nonpayable",
            "type": "function"
        },
        {
            "inputs": [],
            "name": "treasury",
            "outputs": [
                {
                    "internalType": "address",
                    "name": "",
                    "type": "address"
                }
            ],
            "stateMutability": "view",
            "type": "function"
        },
        {
            "inputs": [],
            "name": "unitPrice",
            "outputs": [
                {
                    "internalType": "uint256",
                    "name": "",
                    "type": "uint256"
                }
            ],
            "stateMutability": "view",
            "type": "function"
        },
        {
            "inputs": [
                {
                    "internalType": "address",
                    "name": "newImplementation",
                    "type": "address"
                },
                {
                    "internalType": "bytes",
                    "name": "data",
                    "type": "bytes"
                }
            ],
            "name": "upgradeToAndCall",
            "outputs": [],
            "stateMutability": "payable",
            "type": "function"
        }
    ],
    "bytecode": "60a0604052306080523480156012575f80fd5b506080516149aa6100395f395f81816133470152818161337001526134af01526149aa5ff3fe60806040526004361061028b575f3560e01c806370a0823111610155578063ad3cb1cc116100be578063dd62ed3e11610078578063dd62ed3e146107b9578063e73faa2d146107d8578063eedc3c50146107ec578063f2fde38b1461080b578063fe0a4dd11461082a578063fe330a5114610849575f80fd5b8063ad3cb1cc146106f8578063b0d60ba014610728578063b14f2a3914610747578063b381cf4014610766578063b9f5e61714610785578063cc2a9a5b1461079a575f80fd5b806389a302711161010f57806389a302711461062a5780638da5cb5b1461064957806395d89b4114610685578063a9059cbb14610699578063aa6ca808146106b8578063aa95d893146106d9575f80fd5b806370a0823114610585578063715018a6146105a457806371ddcfb8146105b85780637dc0d1d0146105d75780637df107ea146105f65780638537718814610615575f80fd5b8063295b9300116101f75780633c2066a9116101b15780633c2066a9146104ed5780634f1ef2861461050157806352d1902d14610514578063599f69f7146105285780635efaaebb1461054757806361d027b314610566575f80fd5b8063295b93001461044c5780632bdd955a146104605780632d6bc8ea1461047f5780632f8655681461049e578063313ce567146104bd57806334decfc9146104d8575f80fd5b80630cfc7386116102485780630cfc73861461037a5780630d8e6e2c1461039957806318160ddd146103c55780631a168da2146103ef57806323b872dd1461040e57806327d54a921461042d575f80fd5b806301d22ccd1461028f57806306497cb9146102cb57806306fdde03146102ec5780630918281b1461030d578063095ea7b31461032c5780630a38abab1461035b575b5f80fd5b34801561029a575f80fd5b50600b546102ae906001600160a01b031681565b6040516001600160a01b0390911681526020015b60405180910390f35b3480156102d6575f80fd5b506102ea6102e5366004613bab565b610868565b005b3480156102f7575f80fd5b506103006108ab565b6040516102c29190613bf0565b348015610318575f80fd5b506102ea610327366004613c16565b61096b565b348015610337575f80fd5b5061034b610346366004613c31565b610995565b60405190151581526020016102c2565b348015610366575f80fd5b506102ea610375366004613c16565b6109ae565b348015610385575f80fd5b506102ea610394366004613bab565b6109d8565b3480156103a4575f80fd5b506103ad610db7565b6040516001600160401b0390911681526020016102c2565b3480156103d0575f80fd5b505f805160206148f5833981519152545b6040519081526020016102c2565b3480156103fa575f80fd5b506102ea610409366004613bab565b610ddb565b348015610419575f80fd5b5061034b610428366004613c5b565b6110cc565b348015610438575f80fd5b506102ae610447366004613c16565b6110f1565b348015610457575f80fd5b506103e161115d565b34801561046b575f80fd5b506103e161047a366004613c99565b611166565b34801561048a575f80fd5b506103e1610499366004613cc7565b611171565b3480156104a9575f80fd5b506102ea6104b8366004613c16565b61133b565b3480156104c8575f80fd5b50604051601281526020016102c2565b3480156104e3575f80fd5b506103e160025481565b3480156104f8575f80fd5b506102ea611500565b6102ea61050f366004613dee565b611559565b34801561051f575f80fd5b506103e1611578565b348015610533575f80fd5b506102ea610542366004613e81565b611593565b348015610552575f80fd5b506103e1610561366004613f2b565b61161d565b348015610571575f80fd5b50600c546102ae906001600160a01b031681565b348015610590575f80fd5b506103e161059f366004613c16565b6117e9565b3480156105af575f80fd5b506102ea61180f565b3480156105c3575f80fd5b506103e16105d2366004613bab565b611820565b3480156105e2575f80fd5b506009546102ae906001600160a01b031681565b348015610601575f80fd5b50600a546102ae906001600160a01b031681565b348015610620575f80fd5b506103e160045481565b348015610635575f80fd5b506007546102ae906001600160a01b031681565b348015610654575f80fd5b507f9016d09d72d40fdae2fd8ceac6b6234c7706214fd39c1cd1e609a0528c199300546001600160a01b03166102ae565b348015610690575f80fd5b5061030061182a565b3480156106a4575f80fd5b5061034b6106b3366004613c31565b611868565b3480156106c3575f80fd5b506106cc611875565b6040516102c29190613fd2565b3480156106e4575f80fd5b506103e16106f3366004613bab565b611881565b348015610703575f80fd5b50610300604051806040016040528060058152602001640352e302e360dc1b81525081565b348015610733575f80fd5b506102ea610742366004613fe4565b6118cc565b348015610752575f80fd5b506102ea610761366004613c16565b611a2e565b348015610771575f80fd5b506008546102ae906001600160a01b031681565b348015610790575f80fd5b506103e160035481565b3480156107a5575f80fd5b506102ea6107b4366004614080565b611a58565b3480156107c4575f80fd5b506103e16107d33660046140fe565b611c5a565b3480156107e3575f80fd5b506103e1611ca3565b3480156107f7575f80fd5b506102ea6108063660046141c1565b611cb5565b348015610816575f80fd5b506102ea610825366004613c16565b61241c565b348015610835575f80fd5b506102ea610844366004613bab565b612456565b348015610854575f80fd5b506103e16108633660046142cf565b6129b0565b6108706129bd565b60038190556040518181527fbea1b31142ae4b1f4efad240349036d718b7950d246c127768097ccf602fc7e09060200160405180910390a150565b7f52c63247e1f47db19d5ce0460030c497f067ca4cebf71ba98eeadabe20bace0380546060915f805160206148d5833981519152916108e9906142fe565b80601f0160208091040260200160405190810160405280929190818152602001828054610915906142fe565b80156109605780601f1061093757610100808354040283529160200191610960565b820191905f5260205f20905b81548152906001019060200180831161094357829003601f168201915b505050505091505090565b6109736129bd565b600b80546001600160a01b0319166001600160a01b0392909216919091179055565b5f336109a2818585612a18565b60019150505b92915050565b6109b66129bd565b600a80546001600160a01b0319166001600160a01b0392909216919091179055565b6109e0612a2a565b5f6109e9612a61565b90505f610a015f805160206148f58339815191525490565b90505f81610a0f8486614344565b610a19919061435b565b6007549091506001600160a01b03166323b872dd3330610a3e64e8d4a510008661435b565b6040516001600160e01b031960e086901b1681526001600160a01b03938416600482015292909116602483015260448201526064016020604051808303815f875af1158015610a8f573d5f803e3d5ffd5b505050506040513d601f19601f82011682018060405250810190610ab3919061437a565b506007546040516370a0823160e01b81523360048201525f916001600160a01b0316906370a0823190602401602060405180830381865afa158015610afa573d5f803e3d5ffd5b505050506040513d601f19601f82011682018060405250810190610b1e9190614399565b600754604051636eb1769f60e11b81523360048201523060248201529192505f916001600160a01b039091169063dd62ed3e90604401602060405180830381865afa158015610b6f573d5f803e3d5ffd5b505050506040513d601f19601f82011682018060405250810190610b939190614399565b90505f8411610bf45760405162461bcd60e51b815260206004820152602260248201527f546f74616c2042414c554e4920737570706c792063616e6e6f74206265207a65604482015261726f60f01b60648201526084015b60405180910390fd5b610c0364e8d4a510008461435b565b821015610c525760405162461bcd60e51b815260206004820152601c60248201527f555344432062616c616e636520697320696e73756666696369656e74000000006044820152606401610beb565b610c6164e8d4a510008461435b565b811015610cb05760405162461bcd60e51b815260206004820152601960248201527f436865636b2074686520746f6b656e20616c6c6f77616e6365000000000000006044820152606401610beb565b610cba3387612b1d565b7f0f6798a560793a54c3bcfe86a93cde1e73087d944c0ea20544137d41213968853387604051610ceb9291906143b0565b60405180910390a15f60045460035464e8d4a5100086610d0b919061435b565b610d159190614344565b610d1f919061435b565b600754600c5460405163a9059cbb60e01b81529293506001600160a01b039182169263a9059cbb92610d5792169085906004016143b0565b6020604051808303815f875af1158015610d73573d5f803e3d5ffd5b505050506040513d601f19601f82011682018060405250810190610d97919061437a565b50505050505050610db460015f8051602061493583398151915255565b50565b5f610dd65f80516020614955833981519152546001600160401b031690565b905090565b610de3612a2a565b80610ded336117e9565b1015610e2e5760405162461bcd60e51b815260206004820152601060248201526f125b9cdd59999a58da595b9d0810905360821b6044820152606401610beb565b5f5b610e3a6005612b64565b811015611072575f610e4d600583612b6d565b90505f610e655f805160206148f58339815191525490565b6040516370a0823160e01b81523060048201529091505f906001600160a01b038416906370a0823190602401602060405180830381865afa158015610eac573d5f803e3d5ffd5b505050506040513d601f19601f82011682018060405250810190610ed09190614399565b9050801580610ee757506001600160a01b03831630145b15610ef45750505061106a565b5f836001600160a01b031663313ce5676040518163ffffffff1660e01b8152600401602060405180830381865afa158015610f31573d5f803e3d5ffd5b505050506040513d601f19601f82011682018060405250810190610f5591906143c9565b60ff1690505f610f6784848985612b78565b90505f610f7382612c95565b60405163a9059cbb60e01b81529091506001600160a01b0387169063a9059cbb90610fa490339085906004016143b0565b6020604051808303815f875af1158015610fc0573d5f803e3d5ffd5b505050506040513d601f19601f82011682018060405250810190610fe4919061437a565b50600c546001600160a01b038088169163a9059cbb911661100584866143e9565b6040518363ffffffff1660e01b81526004016110229291906143b0565b6020604051808303815f875af115801561103e573d5f803e3d5ffd5b505050506040513d601f19601f82011682018060405250810190611062919061437a565b505050505050505b600101610e30565b5061107d3382612cbe565b7fcc16f5dbb4873280815c1ee09dbd06736cffcc184412cf7a71a0fdb75d397ca533826040516110ae9291906143b0565b60405180910390a1610db460015f8051602061493583398151915255565b5f336110d9858285612cf2565b6110e4858585612d4f565b60019150505b9392505050565b600a546040516313eaa54960e11b81526001600160a01b0383811660048301525f9216906327d54a9290602401602060405180830381865afa158015611139573d5f803e3d5ffd5b505050506040513d601f19601f820116820180604052508101906109a891906143fc565b5f610dd6612a61565b5f6110ea8383612dac565b5f3033036111b05760405162461bcd60e51b815260206004820152600c60248201526b2bb937b7339039b2b73232b960a11b6044820152606401610beb565b5f83116111ed5760405162461bcd60e51b815260206004820152600b60248201526a0416d6f756e7420697320360ac1b6044820152606401610beb565b6040516370a0823160e01b815233600482015283906001600160a01b038716906370a0823190602401602060405180830381865afa158015611231573d5f803e3d5ffd5b505050506040513d601f19601f820116820180604052508101906112559190614399565b101561129a5760405162461bcd60e51b8152602060048201526014602482015273496e73756666696369656e742042616c616e636560601b6044820152606401610beb565b6040516323b872dd60e01b8152336004820152306024820152604481018490526001600160a01b038616906323b872dd906064016020604051808303815f875af11580156112ea573d5f803e3d5ffd5b505050506040513d601f19601f8201168201806040525081019061130e919061437a565b505f546113269086906001600160a01b03168561300b565b61133285858585613160565b95945050505050565b6040516370a0823160e01b81523060048201525f906001600160a01b038316906370a0823190602401602060405180830381865afa15801561137f573d5f803e3d5ffd5b505050506040513d601f19601f820116820180604052508101906113a39190614399565b600e54600754604051630b4c774160e11b81529293505f926001600160a01b0392831692631698ee82926113e392889290911690610bb890600401614417565b602060405180830381865afa1580156113fe573d5f803e3d5ffd5b505050506040513d601f19601f8201168201806040525081019061142291906143fc565b600d5490915061143d9084906001600160a01b03168461300b565b8115156001600160a01b038216158015906114555750805b1561149c576007545f906114759086906001600160a01b03168630613160565b90505f81116114965760405162461bcd60e51b8152600401610beb9061443f565b506114fa565b6001600160a01b0382161580156114b05750805b156114fa576008546007545f916114d79187916001600160a01b0390811691168730613254565b90505f81116114f85760405162461bcd60e51b8152600401610beb9061443f565b505b50505050565b611508612a2a565b5f6115136005612b64565b90505f5b8181101561153f575f61152b600583612b6d565b90506115368161133b565b50600101611517565b505061155760015f8051602061493583398151915255565b565b61156161333c565b61156a826133e0565b61157482826133e8565b5050565b5f6115816134a4565b505f8051602061491583398151915290565b604080515f81526020810191829052600b54600754633c2fddc560e21b90935290916001600160a01b039182169163f0bf7714916115e59185918e918e918e918e918c918f918f9116602489016144e2565b5f604051808303815f87803b1580156115fc575f80fd5b505af115801561160e573d5f803e3d5ffd5b50505050505050505050505050565b5f30330361165c5760405162461bcd60e51b815260206004820152600c60248201526b2bb937b7339039b2b73232b960a11b6044820152606401610beb565b5f83116116995760405162461bcd60e51b815260206004820152600b60248201526a0416d6f756e7420697320360ac1b6044820152606401610beb565b6040516370a0823160e01b815233600482015283906001600160a01b038816906370a0823190602401602060405180830381865afa1580156116dd573d5f803e3d5ffd5b505050506040513d601f19601f820116820180604052508101906117019190614399565b10156117465760405162461bcd60e51b8152602060048201526014602482015273496e73756666696369656e742042616c616e636560601b6044820152606401610beb565b6040516323b872dd60e01b8152336004820152306024820152604481018490526001600160a01b038716906323b872dd906064016020604051808303815f875af1158015611796573d5f803e3d5ffd5b505050506040513d601f19601f820116820180604052508101906117ba919061437a565b505f546117d29087906001600160a01b03168561300b565b6117df8686868686613254565b9695505050505050565b6001600160a01b03165f9081525f805160206148d5833981519152602052604090205490565b6118176129bd565b6115575f6134ed565b5f6109a88261355d565b7f52c63247e1f47db19d5ce0460030c497f067ca4cebf71ba98eeadabe20bace0480546060915f805160206148d5833981519152916108e9906142fe565b5f336109a2818585612d4f565b6060610dd660056135ed565b5f8061188b612a61565b90505f6118a35f805160206148f58339815191525490565b90505f816118b18487614344565b6118bb919061435b565b905061133264e8d4a510008261435b565b5f805160206149558339815191528054829190600160401b900460ff1680611901575080546001600160401b03808416911610155b1561191f5760405163f92ee8a960e01b815260040160405180910390fd5b805468ffffffffffffffffff19166001600160401b03831617600160401b1781556101f4600255601e600355612710600455600780546001600160a01b03808c166001600160a01b03199283168117909355600880548c8316908416179055600980548b8316908416179055600d80548a8316908416179055600e8054918916919092161790556119b2906005906135f9565b50600b80546001600160a01b0386166001600160a01b031991821617909155600c805490911633179055805460ff60401b191681556040516001600160401b03831681527fc7f505b2f371ae2175ee4913f4499e1f2633a7b5936321eed1cdaeb6115181d29060200160405180910390a1505050505050505050565b611a366129bd565b600c80546001600160a01b0319166001600160a01b0392909216919091179055565b5f805160206149558339815191528054600160401b810460ff1615906001600160401b03165f81158015611a895750825b90505f826001600160401b03166001148015611aa45750303b155b905081158015611ab2575080155b15611ad05760405163f92ee8a960e01b815260040160405180910390fd5b845467ffffffffffffffff191660011785558315611afa57845460ff60401b1916600160401b1785555b611b406040518060400160405280600681526020016542616c756e6960d01b8152506040518060400160405280600681526020016542414c554e4960d01b81525061360d565b611b493361361f565b611b51613630565b611b59613640565b611b6b30670de0b6b3a7640000612b1d565b6101f4600255601e600355612710600455600780546001600160a01b03808e166001600160a01b03199283168117909355600880548e8316908416179055600980548d8316908416179055600d80548c8316908416179055600e8054918b1691909216179055611bdd906005906135f9565b50600b80546001600160a01b0388166001600160a01b031991821617909155600c8054909116331790558315611c4d57845460ff60401b19168555604051600181527fc7f505b2f371ae2175ee4913f4499e1f2633a7b5936321eed1cdaeb6115181d29060200160405180910390a15b5050505050505050505050565b6001600160a01b039182165f9081527f52c63247e1f47db19d5ce0460030c497f067ca4cebf71ba98eeadabe20bace016020908152604080832093909416825291909152205490565b5f610dd6670de0b6b3a764000061355d565b611cbd612a2a565b600a546001600160a01b0316611d0d5760405162461bcd60e51b81526020600482015260156024820152741059d95b9d08199858dd1bdc9e481b9bdd081cd95d605a1b6044820152606401610beb565b600a54604051639b76a5cd60e01b81523360048201525f916001600160a01b031690639b76a5cd906024016020604051808303815f875af1158015611d54573d5f803e3d5ffd5b505050506040513d601f19601f82011682018060405250810190611d7891906143fc565b90505f82516001600160401b03811115611d9457611d94613d17565b604051908082528060200260200182016040528015611dbd578160200160208202803683370190505b5090505f83516001600160401b03811115611dda57611dda613d17565b604051908082528060200260200182016040528015611e03578160200160208202803683370190505b5090505f5b8451811015611f0357611e356005868381518110611e2857611e28614591565b6020026020010151613648565b15838281518110611e4857611e48614591565b602002602001019015159081151581525050848181518110611e6c57611e6c614591565b60209081029190910101516040516370a0823160e01b81523060048201526001600160a01b03909116906370a0823190602401602060405180830381865afa158015611eba573d5f803e3d5ffd5b505050506040513d601f19601f82011682018060405250810190611ede9190614399565b828281518110611ef057611ef0614591565b6020908102919091010152600101611e08565b50604051630eedc3c560e41b81526001600160a01b0384169063eedc3c5090611f3290889088906004016145a5565b5f604051808303815f87803b158015611f49575f80fd5b505af1158015611f5b573d5f803e3d5ffd5b505050505f5b8451811015612401575f858281518110611f7d57611f7d614591565b60209081029190910101516040516370a0823160e01b81523060048201529091505f906001600160a01b038316906370a0823190602401602060405180830381865afa158015611fcf573d5f803e3d5ffd5b505050506040513d601f19601f82011682018060405250810190611ff39190614399565b600e54600854604051630b4c774160e11b81529293505f926001600160a01b0392831692631698ee829261203392889290911690610bb890600401614417565b602060405180830381865afa15801561204e573d5f803e3d5ffd5b505050506040513d601f19601f8201168201806040525081019061207291906143fc565b600e54600854604051630b4c774160e11b81529293505f926001600160a01b0392831692631698ee82926120b2928992909116906101f490600401614417565b602060405180830381865afa1580156120cd573d5f803e3d5ffd5b505050506040513d601f19601f820116820180604052508101906120f191906143fc565b600e54600754604051630b4c774160e11b81529293505f926001600160a01b0392831692631698ee8292612131928a92909116906101f490600401614417565b602060405180830381865afa15801561214c573d5f803e3d5ffd5b505050506040513d601f19601f8201168201806040525081019061217091906143fc565b600e54600754604051630b4c774160e11b81529293505f926001600160a01b0392831692631698ee82926121b0928b9290911690610bb890600401614417565b602060405180830381865afa1580156121cb573d5f803e3d5ffd5b505050506040513d601f19601f820116820180604052508101906121ef91906143fc565b90505f6001600160a01b03851615158061221157506001600160a01b03841615155b8061222457506001600160a01b03821615155b8061223757506001600160a01b03831615155b905089888151811061224b5761224b614591565b6020026020010151801561225c5750805b1561226e5761226c6005886135f9565b505b5f89898151811061228157612281614591565b60200260200101518761229491906143e9565b90508161231b5760405163a9059cbb60e01b81526001600160a01b0389169063a9059cbb906122c990339085906004016143b0565b6020604051808303815f875af11580156122e5573d5f803e3d5ffd5b505050506040513d601f19601f82011682018060405250810190612309919061437a565b50505050505050505050505050612406565b89898151811061232d5761232d614591565b60200260200101518711156123ed575f6004546003548361234e9190614344565b612358919061435b565b90508d8a8151811061236c5761236c614591565b6020908102919091010151600c5460405163a9059cbb60e01b81526001600160a01b039283169263a9059cbb926123aa9291169085906004016143b0565b6020604051808303815f875af11580156123c6573d5f803e3d5ffd5b505050506040513d601f19601f820116820180604052508101906123ea919061437a565b50505b505060019096019550611f61945050505050565b505050505b61157460015f8051602061493583398151915255565b6124246129bd565b6001600160a01b03811661244d57604051631e4fbdf760e01b81525f6004820152602401610beb565b610db4816134ed565b61245e612a2a565b5f81116124a05760405162461bcd60e51b815260206004820152601060248201526f125b9cdd59999a58da595b9d0810905360821b6044820152606401610beb565b5f5b6124ac6005612b64565b811015611072575f6124bf600583612b6d565b90505f6124d75f805160206148f58339815191525490565b6040516370a0823160e01b81523060048201529091505f906001600160a01b038416906370a0823190602401602060405180830381865afa15801561251e573d5f803e3d5ffd5b505050506040513d601f19601f820116820180604052508101906125429190614399565b90508015155f03612555575050506129a8565b306001600160a01b0384160361256d575050506129a8565b5f836001600160a01b031663313ce5676040518163ffffffff1660e01b8152600401602060405180830381865afa1580156125aa573d5f803e3d5ffd5b505050506040513d601f19601f820116820180604052508101906125ce91906143c9565b60ff1690505f6125e084848985612b78565b6007549091506001600160a01b03908116908616036126765760075460405163a9059cbb60e01b81526001600160a01b039091169063a9059cbb9061262b90339085906004016143b0565b6020604051808303815f875af1158015612647573d5f803e3d5ffd5b505050506040513d601f19601f8201168201806040525081019061266b919061437a565b5050505050506129a8565b600e54600754604051630b4c774160e11b81525f926001600160a01b0390811692631698ee82926126b1928b921690610bb890600401614417565b602060405180830381865afa1580156126cc573d5f803e3d5ffd5b505050506040513d601f19601f820116820180604052508101906126f091906143fc565b600d5490915061270b9087906001600160a01b03168461300b565b6001600160a01b0381161561285c576007545f906127359088906001600160a01b03168530613160565b90505f61274182612c95565b60075460405163a9059cbb60e01b81529192506001600160a01b03169063a9059cbb9061277490339085906004016143b0565b6020604051808303815f875af1158015612790573d5f803e3d5ffd5b505050506040513d601f19601f820116820180604052508101906127b4919061437a565b50600754600c546001600160a01b039182169163a9059cbb91166127d884866143e9565b6040518363ffffffff1660e01b81526004016127f59291906143b0565b6020604051808303815f875af1158015612811573d5f803e3d5ffd5b505050506040513d601f19601f82011682018060405250810190612835919061437a565b505f82116128555760405162461bcd60e51b8152600401610beb9061443f565b50506129a1565b6008546007545f9161287e9189916001600160a01b0390811691168633613254565b90505f61288a82612c95565b60075460405163a9059cbb60e01b81529192506001600160a01b03169063a9059cbb906128bd90339085906004016143b0565b6020604051808303815f875af11580156128d9573d5f803e3d5ffd5b505050506040513d601f19601f820116820180604052508101906128fd919061437a565b50600754600c546001600160a01b039182169163a9059cbb911661292184866143e9565b6040518363ffffffff1660e01b815260040161293e9291906143b0565b6020604051808303815f875af115801561295a573d5f803e3d5ffd5b505050506040513d601f19601f8201168201806040525081019061297e919061437a565b505f821161299e5760405162461bcd60e51b8152600401610beb9061443f565b50505b5050505050505b6001016124a2565b5f61133285858585612b78565b336129ef7f9016d09d72d40fdae2fd8ceac6b6234c7706214fd39c1cd1e609a0528c199300546001600160a01b031690565b6001600160a01b0316146115575760405163118cdaa760e01b8152336004820152602401610beb565b612a258383836001613669565b505050565b5f80516020614935833981519152805460011901612a5b57604051633ee5aeb560e01b815260040160405180910390fd5b60029055565b5f805f5b612a6f6005612b64565b811015612b17575f612a82600583612b6d565b6040516370a0823160e01b81523060048201529091505f906001600160a01b038316906370a0823190602401602060405180830381865afa158015612ac9573d5f803e3d5ffd5b505050506040513d601f19601f82011682018060405250810190612aed9190614399565b90505f612afa8284612dac565b9050612b06818661463f565b94505060019092019150612a659050565b50919050565b6001600160a01b038216612b465760405163ec442f0560e01b81525f6004820152602401610beb565b6115745f838361374c565b60015f8051602061493583398151915255565b5f6109a8825490565b5f6110ea8383613885565b5f808511612bc85760405162461bcd60e51b815260206004820152601b60248201527f546f74616c20737570706c792063616e6e6f74206265207a65726f00000000006044820152606401610beb565b6012821115612c195760405162461bcd60e51b815260206004820152601e60248201527f546f6b656e20646563696d616c732073686f756c64206265203c3d20313800006044820152606401610beb565b5f806012841015612c6d57612c2f8460126143e9565b612c3a90600a614732565b612c44908861435b565b9150612c518460126143e9565b612c5c90600a614732565b612c66908661435b565b9050612c73565b50859050835b5f82612c7f8884614344565b612c89919061435b565b98975050505050505050565b5f80600454600354600454612caa91906143e9565b612cb49085614344565b6110ea919061435b565b6001600160a01b038216612ce757604051634b637e8f60e11b81525f6004820152602401610beb565b611574825f8361374c565b5f612cfd8484611c5a565b90505f1981146114fa5781811015612d4157604051637dc7a0d960e11b81526001600160a01b03841660048201526024810182905260448101839052606401610beb565b6114fa84848484035f613669565b6001600160a01b038316612d7857604051634b637e8f60e11b81525f6004820152602401610beb565b6001600160a01b038216612da15760405163ec442f0560e01b81525f6004820152602401610beb565b612a2583838361374c565b5f805f836001600160a01b031663313ce5676040518163ffffffff1660e01b8152600401602060405180830381865afa158015612deb573d5f803e3d5ffd5b505050506040513d601f19601f82011682018060405250810190612e0f91906143c9565b90505f60075f9054906101000a90046001600160a01b03166001600160a01b031663313ce5676040518163ffffffff1660e01b8152600401602060405180830381865afa158015612e62573d5f803e3d5ffd5b505050506040513d601f19601f82011682018060405250810190612e8691906143c9565b6007549091506001600160a01b0390811690861603612eb857612eae8664e8d4a51000614344565b93505050506109a8565b60095460075460405163802431fb60e01b81526001600160a01b03888116600483015291821660248201525f604482015291169063802431fb90606401602060405180830381865afa925050508015612f2e575060408051601f3d908101601f19168201909252612f2b91810190614399565b60015b612f3d575f93505050506109a8565b92508060ff168260ff1603612f7957670de0b6b3a764000083612f658864e8d4a51000614344565b612f6f9190614344565b612eae919061435b565b5f612f84828461473d565b612f8f90600a614756565b905060128360ff161015612fd957670de0b6b3a7640000612fb08286614344565b612fba838a614344565b612fc49190614344565b612fce919061435b565b9450505050506109a8565b670de0b6b3a7640000612fec8286614344565b612ff69089614344565b613000919061435b565b979650505050505050565b604051636eb1769f60e11b81523060048201526001600160a01b0383811660248301528491839183169063dd62ed3e90604401602060405180830381865afa158015613059573d5f803e3d5ffd5b505050506040513d601f19601f8201168201806040525081019061307d9190614399565b10156114fa5760405163095ea7b360e01b81526001600160a01b0382169063095ea7b3906130b19086905f906004016143b0565b6020604051808303815f875af11580156130cd573d5f803e3d5ffd5b505050506040513d601f19601f820116820180604052508101906130f1919061437a565b5060405163095ea7b360e01b81526001600160a01b0382169063095ea7b39061312090869086906004016143b0565b6020604051808303815f875af115801561313c573d5f803e3d5ffd5b505050506040513d601f19601f820116820180604052508101906114f8919061437a565b60408051610100810182526001600160a01b03868116825285811660208301908152610bb883850190815285831660608501908152426080860190815260a086018981525f60c0880181815260e0890182815282549a5163414bf38960e01b81528a518a166004820152975189166024890152955162ffffff166044880152935187166064870152915160848601525160a4850152905160c48401529051831660e4830152939091169063414bf38990610104016020604051808303815f875af1158015613230573d5f803e3d5ffd5b505050506040513d601f19601f820116820180604052508101906117df9190614399565b6040805160a081018252606087811b6bffffffffffffffffffffffff1990811660c084015261017760eb1b60d4840181905288831b821660d785015260eb84015286821b1660ee830152825160e28184030181526101028301845282526001600160a01b03848116602084015242838501529082018590525f608083018190528054935163c04b8d5960e01b815290939091169063c04b8d59906132fc908490600401614764565b6020604051808303815f875af1158015613318573d5f803e3d5ffd5b505050506040513d601f19601f820116820180604052508101906130009190614399565b306001600160a01b037f00000000000000000000000000000000000000000000000000000000000000001614806133c257507f00000000000000000000000000000000000000000000000000000000000000006001600160a01b03166133b65f80516020614915833981519152546001600160a01b031690565b6001600160a01b031614155b156115575760405163703e46dd60e11b815260040160405180910390fd5b610db46129bd565b816001600160a01b03166352d1902d6040518163ffffffff1660e01b8152600401602060405180830381865afa925050508015613442575060408051601f3d908101601f1916820190925261343f91810190614399565b60015b61346a57604051634c9c8ce360e01b81526001600160a01b0383166004820152602401610beb565b5f80516020614915833981519152811461349a57604051632a87526960e21b815260048101829052602401610beb565b612a2583836138ab565b306001600160a01b037f000000000000000000000000000000000000000000000000000000000000000016146115575760405163703e46dd60e11b815260040160405180910390fd5b7f9016d09d72d40fdae2fd8ceac6b6234c7706214fd39c1cd1e609a0528c19930080546001600160a01b031981166001600160a01b03848116918217845560405192169182907f8be0079c531659141344cd1fd0a4f28419497f9722a3daafe3b4186f6b6457e0905f90a3505050565b5f806135745f805160206148f58339815191525490565b90505f81116135c55760405162461bcd60e51b815260206004820152601b60248201527f546f74616c20737570706c792063616e6e6f74206265207a65726f00000000006044820152606401610beb565b5f6135ce612a61565b9050816135db8286614344565b6135e5919061435b565b949350505050565b60605f6110ea83613900565b5f6110ea836001600160a01b038416613959565b6136156139a5565b61157482826139db565b6136276139a5565b610db481613a2b565b6136386139a5565b611557613a33565b6115576139a5565b6001600160a01b0381165f90815260018301602052604081205415156110ea565b5f805160206148d58339815191526001600160a01b0385166136a05760405163e602df0560e01b81525f6004820152602401610beb565b6001600160a01b0384166136c957604051634a1406b160e11b81525f6004820152602401610beb565b6001600160a01b038086165f908152600183016020908152604080832093881683529290522083905581156114f857836001600160a01b0316856001600160a01b03167f8c5be1e5ebec7d5bd14f71427d1e84f3dd0314c0f7b2291e5b200ac8c7c3b9258560405161373d91815260200190565b60405180910390a35050505050565b5f805160206148d58339815191526001600160a01b0384166137865781816002015f82825461377b919061463f565b909155506137f69050565b6001600160a01b0384165f90815260208290526040902054828110156137d85760405163391434e360e21b81526001600160a01b03861660048201526024810182905260448101849052606401610beb565b6001600160a01b0385165f9081526020839052604090209083900390555b6001600160a01b038316613814576002810180548390039055613832565b6001600160a01b0383165f9081526020829052604090208054830190555b826001600160a01b0316846001600160a01b03167fddf252ad1be2c89b69c2b068fc378daa952ba7f163c4a11628f55a4df523b3ef8460405161387791815260200190565b60405180910390a350505050565b5f825f01828154811061389a5761389a614591565b905f5260205f200154905092915050565b6138b482613a3b565b6040516001600160a01b038316907fbc7cd75a20ee27fd9adebab32041f755214dbc6bffa90cc0225b39da2e5c2d3b905f90a28051156138f857612a258282613a9e565b611574613b07565b6060815f0180548060200260200160405190810160405280929190818152602001828054801561394d57602002820191905f5260205f20905b815481526020019060010190808311613939575b50505050509050919050565b5f81815260018301602052604081205461399e57508154600181810184555f8481526020808220909301849055845484825282860190935260409020919091556109a8565b505f6109a8565b5f8051602061495583398151915254600160401b900460ff1661155757604051631afcd79f60e31b815260040160405180910390fd5b6139e36139a5565b5f805160206148d58339815191527f52c63247e1f47db19d5ce0460030c497f067ca4cebf71ba98eeadabe20bace03613a1c84826147ff565b50600481016114fa83826147ff565b6124246139a5565b612b516139a5565b806001600160a01b03163b5f03613a7057604051634c9c8ce360e01b81526001600160a01b0382166004820152602401610beb565b5f8051602061491583398151915280546001600160a01b0319166001600160a01b0392909216919091179055565b60605f80846001600160a01b031684604051613aba91906148be565b5f60405180830381855af49150503d805f8114613af2576040519150601f19603f3d011682016040523d82523d5f602084013e613af7565b606091505b5091509150611332858383613b26565b34156115575760405163b398979f60e01b815260040160405180910390fd5b606082613b3b57613b3682613b82565b6110ea565b8151158015613b5257506001600160a01b0384163b155b15613b7b57604051639996b31560e01b81526001600160a01b0385166004820152602401610beb565b50806110ea565b805115613b925780518082602001fd5b604051630a12f52160e11b815260040160405180910390fd5b5f60208284031215613bbb575f80fd5b5035919050565b5f81518084528060208401602086015e5f602082860101526020601f19601f83011685010191505092915050565b602081525f6110ea6020830184613bc2565b6001600160a01b0381168114610db4575f80fd5b5f60208284031215613c26575f80fd5b81356110ea81613c02565b5f8060408385031215613c42575f80fd5b8235613c4d81613c02565b946020939093013593505050565b5f805f60608486031215613c6d575f80fd5b8335613c7881613c02565b92506020840135613c8881613c02565b929592945050506040919091013590565b5f8060408385031215613caa575f80fd5b823591506020830135613cbc81613c02565b809150509250929050565b5f805f8060808587031215613cda575f80fd5b8435613ce581613c02565b93506020850135613cf581613c02565b9250604085013591506060850135613d0c81613c02565b939692955090935050565b634e487b7160e01b5f52604160045260245ffd5b604051606081016001600160401b0381118282101715613d4d57613d4d613d17565b60405290565b604051601f8201601f191681016001600160401b0381118282101715613d7b57613d7b613d17565b604052919050565b5f82601f830112613d92575f80fd5b81356001600160401b03811115613dab57613dab613d17565b613dbe601f8201601f1916602001613d53565b818152846020838601011115613dd2575f80fd5b816020850160208301375f918101602001919091529392505050565b5f8060408385031215613dff575f80fd5b8235613e0a81613c02565b915060208301356001600160401b03811115613e24575f80fd5b613e3085828601613d83565b9150509250929050565b5f8083601f840112613e4a575f80fd5b5081356001600160401b03811115613e60575f80fd5b6020830191508360208260051b8501011115613e7a575f80fd5b9250929050565b5f805f805f805f8060c0898b031215613e98575f80fd5b88356001600160401b0380821115613eae575f80fd5b613eba8c838d01613e3a565b909a50985060208b0135915080821115613ed2575f80fd5b50613edf8b828c01613e3a565b9097509550506040890135613ef381613c02565b93506060890135613f0381613c02565b92506080890135915060a0890135613f1a81613c02565b809150509295985092959890939650565b5f805f805f60a08688031215613f3f575f80fd5b8535613f4a81613c02565b94506020860135613f5a81613c02565b93506040860135613f6a81613c02565b9250606086013591506080860135613f8181613c02565b809150509295509295909350565b5f815180845260208085019450602084015f5b83811015613fc75781516001600160a01b031687529582019590820190600101613fa2565b509495945050505050565b602081525f6110ea6020830184613f8f565b5f805f805f805f60e0888a031215613ffa575f80fd5b873561400581613c02565b9650602088013561401581613c02565b9550604088013561402581613c02565b9450606088013561403581613c02565b9350608088013561404581613c02565b925060a088013561405581613c02565b915060c08801356001600160401b0381168114614070575f80fd5b8091505092959891949750929550565b5f805f805f8060c08789031215614095575f80fd5b86356140a081613c02565b955060208701356140b081613c02565b945060408701356140c081613c02565b935060608701356140d081613c02565b925060808701356140e081613c02565b915060a08701356140f081613c02565b809150509295509295509295565b5f806040838503121561410f575f80fd5b823561411a81613c02565b91506020830135613cbc81613c02565b5f6001600160401b0382111561414257614142613d17565b5060051b60200190565b5f82601f83011261415b575f80fd5b8135602061417061416b8361412a565b613d53565b8083825260208201915060208460051b870101935086841115614191575f80fd5b602086015b848110156141b65780356141a981613c02565b8352918301918301614196565b509695505050505050565b5f80604083850312156141d2575f80fd5b82356001600160401b03808211156141e8575f80fd5b818501915085601f8301126141fb575f80fd5b8135602061420b61416b8361412a565b82815260059290921b84018101918181019089841115614229575f80fd5b8286015b848110156142ac57803586811115614243575f80fd5b87016060818d03601f1901811315614259575f80fd5b614261613d2b565b8683013561426e81613c02565b815260408301358782015290820135908882111561428a575f80fd5b6142988e8884860101613d83565b60408201528552505091830191830161422d565b50965050860135925050808211156142c2575f80fd5b50613e308582860161414c565b5f805f80608085870312156142e2575f80fd5b5050823594602084013594506040840135936060013592509050565b600181811c9082168061431257607f821691505b602082108103612b1757634e487b7160e01b5f52602260045260245ffd5b634e487b7160e01b5f52601160045260245ffd5b80820281158282048414176109a8576109a8614330565b5f8261437557634e487b7160e01b5f52601260045260245ffd5b500490565b5f6020828403121561438a575f80fd5b815180151581146110ea575f80fd5b5f602082840312156143a9575f80fd5b5051919050565b6001600160a01b03929092168252602082015260400190565b5f602082840312156143d9575f80fd5b815160ff811681146110ea575f80fd5b818103818111156109a8576109a8614330565b5f6020828403121561440c575f80fd5b81516110ea81613c02565b6001600160a01b03938416815291909216602082015262ffffff909116604082015260600190565b60208082526017908201527f53776170204661696c65642c20547279204275726e2829000000000000000000604082015260600190565b8183525f60208085019450825f5b85811015613fc757813561449781613c02565b6001600160a01b031687529582019590820190600101614484565b8183525f6001600160fb1b038311156144c9575f80fd5b8260051b80836020870137939093016020019392505050565b60e08082528a519082018190525f90602090610100840190828e01845b8281101561451b578151845292840192908401906001016144ff565b5050508381036020850152614531818c8e614476565b915050828103604084015261454781898b6144b2565b91505085606083015261456560808301866001600160a01b03169052565b6001600160a01b03841660a08301526001600160a01b03831660c08301529a9950505050505050505050565b634e487b7160e01b5f52603260045260245ffd5b5f6040808301604084528086518083526060925060608601915060608160051b8701016020808a015f5b8481101561461f57898403605f19018652815180516001600160a01b03168552838101518486015288015188850188905261460c88860182613bc2565b96840196945050908201906001016145cf565b5050878203908801526146328189613f8f565b9998505050505050505050565b808201808211156109a8576109a8614330565b600181815b8085111561468c57815f190482111561467257614672614330565b8085161561467f57918102915b93841c9390800290614657565b509250929050565b5f826146a2575060016109a8565b816146ae57505f6109a8565b81600181146146c457600281146146ce576146ea565b60019150506109a8565b60ff8411156146df576146df614330565b50506001821b6109a8565b5060208310610133831016604e8410600b841016171561470d575081810a6109a8565b6147178383614652565b805f190482111561472a5761472a614330565b029392505050565b5f6110ea8383614694565b60ff82811682821603908111156109a8576109a8614330565b5f6110ea60ff841683614694565b602081525f825160a0602084015261477f60c0840182613bc2565b905060018060a01b0360208501511660408401526040840151606084015260608401516080840152608084015160a08401528091505092915050565b601f821115612a2557805f5260205f20601f840160051c810160208510156147e05750805b601f840160051c820191505b818110156114f8575f81556001016147ec565b81516001600160401b0381111561481857614818613d17565b61482c8161482684546142fe565b846147bb565b602080601f83116001811461485f575f84156148485750858301515b5f19600386901b1c1916600185901b1785556148b6565b5f85815260208120601f198616915b8281101561488d5788860151825594840194600190910190840161486e565b50858210156148aa57878501515f19600388901b60f8161c191681555b505060018460011b0185555b505050505050565b5f82518060208501845e5f92019182525091905056fe52c63247e1f47db19d5ce0460030c497f067ca4cebf71ba98eeadabe20bace0052c63247e1f47db19d5ce0460030c497f067ca4cebf71ba98eeadabe20bace02360894a13ba1a3210667c828492db98dca3e2076cc3735a920a3ca505d382bbc9b779b17422d0df92223018b32b4d1fa46e071723d6817e2486d003becc55f00f0c57e16840df040f15088dc2f81fe391c3923bec73e23a9662efc9c229c6a00a26469706673582212206704ead0e905315b25aa514d86a29630b291380bdb4854a8836d7c3e0f1b391d64736f6c63430008190033",
    "sourcePath": "c:/Users/Utente/Source/repos/baluni-contracts/contracts/BaluniV1Router.sol",
    "compiler": {
        "name": "solc",
        "version": "0.8.25+commit.b61c2a91"
    },
    "functionHashes": {
        "UPGRADE_INTERFACE_VERSION()": "ad3cb1cc",
        "USDC()": "89a30271",
        "WNATIVE()": "b381cf40",
        "_BPS_BASE()": "85377188",
        "_BPS_FEE()": "b9f5e617",
        "_MAX_BPS_FEE()": "34decfc9",
        "agentFactory()": "7df107ea",
        "allowance(address,address)": "dd62ed3e",
        "approve(address,uint256)": "095ea7b3",
        "balanceOf(address)": "70a08231",
        "burnERC20(uint256)": "1a168da2",
        "burnUSDC(uint256)": "fe0a4dd1",
        "calculateTokenShare(uint256,uint256,uint256,uint256)": "fe330a51",
        "callRebalance(address[],uint256[],address,address,uint256,address)": "599f69f7",
        "changeAgentFactory(address)": "0a38abab",
        "changeBpsFee(uint256)": "06497cb9",
        "changeRebalancer(address)": "0918281b",
        "changeTreasury(address)": "b14f2a39",
        "decimals()": "313ce567",
        "execute((address,uint256,bytes)[],address[])": "eedc3c50",
        "getAgentAddress(address)": "27d54a92",
        "getTokens()": "aa6ca808",
        "getUSDCShareValue(uint256)": "71ddcfb8",
        "getVersion()": "0d8e6e2c",
        "initialize(address,address,address,address,address,address)": "cc2a9a5b",
        "liquidate(address)": "2f865568",
        "liquidateAll()": "3c2066a9",
        "mintWithUSDC(uint256)": "0cfc7386",
        "multiHopSwap(address,address,address,uint256,address)": "5efaaebb",
        "name()": "06fdde03",
        "oracle()": "7dc0d1d0",
        "owner()": "8da5cb5b",
        "proxiableUUID()": "52d1902d",
        "rebalancer()": "01d22ccd",
        "reinitialize(address,address,address,address,address,address,uint64)": "b0d60ba0",
        "renounceOwnership()": "715018a6",
        "requiredUSDCtoMint(uint256)": "aa95d893",
        "singleSwap(address,address,uint256,address)": "2d6bc8ea",
        "symbol()": "95d89b41",
        "tokenValuation(uint256,address)": "2bdd955a",
        "totalSupply()": "18160ddd",
        "totalValuation()": "295b9300",
        "transfer(address,uint256)": "a9059cbb",
        "transferFrom(address,address,uint256)": "23b872dd",
        "transferOwnership(address)": "f2fde38b",
        "treasury()": "61d027b3",
        "unitPrice()": "e73faa2d",
        "upgradeToAndCall(address,bytes)": "4f1ef286"
    },
    "gasEstimates": {
        "creation": {
            "codeDepositCost": "3771600",
            "executionCost": "infinite",
            "totalCost": "infinite"
        },
        "external": {
            "UPGRADE_INTERFACE_VERSION()": "infinite",
            "USDC()": "2370",
            "WNATIVE()": "2436",
            "_BPS_BASE()": "2450",
            "_BPS_FEE()": "2427",
            "_MAX_BPS_FEE()": "2450",
            "agentFactory()": "2459",
            "allowance(address,address)": "infinite",
            "approve(address,uint256)": "infinite",
            "balanceOf(address)": "infinite",
            "burnERC20(uint256)": "infinite",
            "burnUSDC(uint256)": "infinite",
            "calculateTokenShare(uint256,uint256,uint256,uint256)": "816",
            "callRebalance(address[],uint256[],address,address,uint256,address)": "infinite",
            "changeAgentFactory(address)": "26917",
            "changeBpsFee(uint256)": "25653",
            "changeRebalancer(address)": "26873",
            "changeTreasury(address)": "26849",
            "decimals()": "310",
            "execute((address,uint256,bytes)[],address[])": "infinite",
            "getAgentAddress(address)": "infinite",
            "getTokens()": "infinite",
            "getUSDCShareValue(uint256)": "infinite",
            "getVersion()": "infinite",
            "initialize(address,address,address,address,address,address)": "infinite",
            "liquidate(address)": "infinite",
            "liquidateAll()": "infinite",
            "mintWithUSDC(uint256)": "infinite",
            "multiHopSwap(address,address,address,uint256,address)": "infinite",
            "name()": "infinite",
            "oracle()": "2437",
            "owner()": "2386",
            "proxiableUUID()": "infinite",
            "rebalancer()": "2372",
            "reinitialize(address,address,address,address,address,address,uint64)": "infinite",
            "renounceOwnership()": "infinite",
            "requiredUSDCtoMint(uint256)": "infinite",
            "singleSwap(address,address,uint256,address)": "infinite",
            "symbol()": "infinite",
            "tokenValuation(uint256,address)": "infinite",
            "totalSupply()": "infinite",
            "totalValuation()": "infinite",
            "transfer(address,uint256)": "infinite",
            "transferFrom(address,address,uint256)": "infinite",
            "transferOwnership(address)": "infinite",
            "treasury()": "2480",
            "unitPrice()": "infinite",
            "upgradeToAndCall(address,bytes)": "infinite"
        },
        "internal": {
            "_authorizeUpgrade(address)": "infinite",
            "_calculateBaluniToUSDC(uint256)": "infinite",
            "_calculateERC20Share(uint256,uint256,uint256,uint256)": "infinite",
            "_calculateERC20Valuation(uint256,address)": "infinite",
            "_calculateNetAmountAfterFee(uint256)": "infinite",
            "_resize(uint256[] memory,uint256)": "infinite",
            "_totalValuation()": "infinite"
        }
    }
}