{
    "contractName": "BaluniV1Oracle",
    "abi": [
        {
            "inputs": [
                {
                    "internalType": "address",
                    "name": "target",
                    "type": "address"
                }
            ],
            "name": "AddressEmptyCode",
            "type": "error"
        },
        {
            "inputs": [
                {
                    "internalType": "address",
                    "name": "implementation",
                    "type": "address"
                }
            ],
            "name": "ERC1967InvalidImplementation",
            "type": "error"
        },
        {
            "inputs": [],
            "name": "ERC1967NonPayable",
            "type": "error"
        },
        {
            "inputs": [],
            "name": "FailedInnerCall",
            "type": "error"
        },
        {
            "inputs": [],
            "name": "InvalidInitialization",
            "type": "error"
        },
        {
            "inputs": [],
            "name": "NotInitializing",
            "type": "error"
        },
        {
            "inputs": [
                {
                    "internalType": "address",
                    "name": "owner",
                    "type": "address"
                }
            ],
            "name": "OwnableInvalidOwner",
            "type": "error"
        },
        {
            "inputs": [
                {
                    "internalType": "address",
                    "name": "account",
                    "type": "address"
                }
            ],
            "name": "OwnableUnauthorizedAccount",
            "type": "error"
        },
        {
            "inputs": [],
            "name": "UUPSUnauthorizedCallContext",
            "type": "error"
        },
        {
            "inputs": [
                {
                    "internalType": "bytes32",
                    "name": "slot",
                    "type": "bytes32"
                }
            ],
            "name": "UUPSUnsupportedProxiableUUID",
            "type": "error"
        },
        {
            "anonymous": false,
            "inputs": [
                {
                    "indexed": false,
                    "internalType": "uint64",
                    "name": "version",
                    "type": "uint64"
                }
            ],
            "name": "Initialized",
            "type": "event"
        },
        {
            "anonymous": false,
            "inputs": [
                {
                    "indexed": true,
                    "internalType": "address",
                    "name": "previousOwner",
                    "type": "address"
                },
                {
                    "indexed": true,
                    "internalType": "address",
                    "name": "newOwner",
                    "type": "address"
                }
            ],
            "name": "OwnershipTransferred",
            "type": "event"
        },
        {
            "anonymous": false,
            "inputs": [
                {
                    "indexed": true,
                    "internalType": "address",
                    "name": "implementation",
                    "type": "address"
                }
            ],
            "name": "Upgraded",
            "type": "event"
        },
        {
            "inputs": [],
            "name": "UPGRADE_INTERFACE_VERSION",
            "outputs": [
                {
                    "internalType": "string",
                    "name": "",
                    "type": "string"
                }
            ],
            "stateMutability": "view",
            "type": "function"
        },
        {
            "inputs": [
                {
                    "internalType": "address",
                    "name": "fromToken",
                    "type": "address"
                },
                {
                    "internalType": "address",
                    "name": "toToken",
                    "type": "address"
                },
                {
                    "internalType": "uint256",
                    "name": "amount",
                    "type": "uint256"
                }
            ],
            "name": "convert",
            "outputs": [
                {
                    "internalType": "uint256",
                    "name": "",
                    "type": "uint256"
                }
            ],
            "stateMutability": "view",
            "type": "function"
        },
        {
            "inputs": [
                {
                    "internalType": "address",
                    "name": "fromToken",
                    "type": "address"
                },
                {
                    "internalType": "address",
                    "name": "toToken",
                    "type": "address"
                },
                {
                    "internalType": "uint256",
                    "name": "amount",
                    "type": "uint256"
                }
            ],
            "name": "convertScaled",
            "outputs": [
                {
                    "internalType": "uint256",
                    "name": "",
                    "type": "uint256"
                }
            ],
            "stateMutability": "view",
            "type": "function"
        },
        {
            "inputs": [
                {
                    "internalType": "address",
                    "name": "_registry",
                    "type": "address"
                }
            ],
            "name": "initialize",
            "outputs": [],
            "stateMutability": "nonpayable",
            "type": "function"
        },
        {
            "inputs": [],
            "name": "owner",
            "outputs": [
                {
                    "internalType": "address",
                    "name": "",
                    "type": "address"
                }
            ],
            "stateMutability": "view",
            "type": "function"
        },
        {
            "inputs": [],
            "name": "proxiableUUID",
            "outputs": [
                {
                    "internalType": "bytes32",
                    "name": "",
                    "type": "bytes32"
                }
            ],
            "stateMutability": "view",
            "type": "function"
        },
        {
            "inputs": [],
            "name": "registry",
            "outputs": [
                {
                    "internalType": "contract IBaluniV1Registry",
                    "name": "",
                    "type": "address"
                }
            ],
            "stateMutability": "view",
            "type": "function"
        },
        {
            "inputs": [
                {
                    "internalType": "address",
                    "name": "_registry",
                    "type": "address"
                },
                {
                    "internalType": "uint64",
                    "name": "version",
                    "type": "uint64"
                }
            ],
            "name": "reinitialize",
            "outputs": [],
            "stateMutability": "nonpayable",
            "type": "function"
        },
        {
            "inputs": [],
            "name": "renounceOwnership",
            "outputs": [],
            "stateMutability": "nonpayable",
            "type": "function"
        },
        {
            "inputs": [
                {
                    "internalType": "address",
                    "name": "newOwner",
                    "type": "address"
                }
            ],
            "name": "transferOwnership",
            "outputs": [],
            "stateMutability": "nonpayable",
            "type": "function"
        },
        {
            "inputs": [
                {
                    "internalType": "address",
                    "name": "newImplementation",
                    "type": "address"
                },
                {
                    "internalType": "bytes",
                    "name": "data",
                    "type": "bytes"
                }
            ],
            "name": "upgradeToAndCall",
            "outputs": [],
            "stateMutability": "payable",
            "type": "function"
        }
    ],
    "bytecode": "60a0604052306080523480156012575f80fd5b5060805161134d6100395f395f8181610ad701528181610b000152610c44015261134d5ff3fe60806040526004361061009a575f3560e01c80638da5cb5b116100625780638da5cb5b146101435780638f2248bc1461017f578063ad3cb1cc1461019e578063b27b5e75146101db578063c4d66de8146101fa578063f2fde38b14610219575f80fd5b8063248391ff1461009e5780634f1ef286146100d057806352d1902d146100e5578063715018a6146100f95780637b1039991461010d575b5f80fd5b3480156100a9575f80fd5b506100bd6100b8366004610f9b565b610238565b6040519081526020015b60405180910390f35b6100e36100de366004610fed565b61050a565b005b3480156100f0575f80fd5b506100bd610529565b348015610104575f80fd5b506100e3610544565b348015610118575f80fd5b505f5461012b906001600160a01b031681565b6040516001600160a01b0390911681526020016100c7565b34801561014e575f80fd5b507f9016d09d72d40fdae2fd8ceac6b6234c7706214fd39c1cd1e609a0528c199300546001600160a01b031661012b565b34801561018a575f80fd5b506100e36101993660046110ab565b610557565b3480156101a9575f80fd5b506101ce604051806040016040528060058152602001640352e302e360dc1b81525081565b6040516100c791906110ee565b3480156101e6575f80fd5b506100bd6101f5366004610f9b565b610659565b348015610205575f80fd5b506100e3610214366004611123565b61095a565b348015610224575f80fd5b506100e3610233366004611123565b610a8a565b5f805f805f9054906101000a90046001600160a01b03166001600160a01b0316638e1c3a8a6040518163ffffffff1660e01b8152600401602060405180830381865afa15801561028a573d5f803e3d5ffd5b505050506040513d601f19601f820116820180604052508101906102ae919061113e565b90505f866001600160a01b031663313ce5676040518163ffffffff1660e01b8152600401602060405180830381865afa1580156102ed573d5f803e3d5ffd5b505050506040513d601f19601f820116820180604052508101906103119190611159565b90505f866001600160a01b031663313ce5676040518163ffffffff1660e01b8152600401602060405180830381865afa158015610350573d5f803e3d5ffd5b505050506040513d601f19601f820116820180604052508101906103749190611159565b90505f61038283600a61126d565b90505f61039083600a61126d565b60405163802431fb60e01b81526001600160a01b038c811660048301528b811660248301525f60448301529192509086169063802431fb90606401602060405180830381865afa1580156103e6573d5f803e3d5ffd5b505050506040513d601f19601f8201168201806040525081019061040a919061127b565b9550806104178388611292565b61042191906112a9565b95505f805f8560ff168760ff160361046157670de0b6b3a76400006104468a8d611292565b61045091906112a9565b995061050398505050505050505050565b8560ff168760ff16106104b55761047886886112c8565b61048390600a61126d565b925061048f838c6112a9565b9150670de0b6b3a76400006104a48a84611292565b6104ae91906112a9565b90506104f8565b6104bf87876112c8565b6104ca90600a61126d565b92506104d6838c611292565b9150670de0b6b3a76400006104eb8a84611292565b6104f591906112a9565b90505b985050505050505050505b9392505050565b610512610acc565b61051b82610b70565b6105258282610b78565b5050565b5f610532610c39565b505f805160206112f883398151915290565b61054c610c82565b6105555f610cdd565b565b7ff0c57e16840df040f15088dc2f81fe391c3923bec73e23a9662efc9c229c6a008054829190600160401b900460ff16806105a05750805467ffffffffffffffff808416911610155b156105be5760405163f92ee8a960e01b815260040160405180910390fd5b805468ffffffffffffffffff191667ffffffffffffffff831617600160401b1781556105e933610d4d565b6105f1610d5e565b5f80546001600160a01b0319166001600160a01b038616179055805460ff60401b1916815560405167ffffffffffffffff831681527fc7f505b2f371ae2175ee4913f4499e1f2633a7b5936321eed1cdaeb6115181d29060200160405180910390a150505050565b5f805f805f9054906101000a90046001600160a01b03166001600160a01b0316638e1c3a8a6040518163ffffffff1660e01b8152600401602060405180830381865afa1580156106ab573d5f803e3d5ffd5b505050506040513d601f19601f820116820180604052508101906106cf919061113e565b90505f866001600160a01b031663313ce5676040518163ffffffff1660e01b8152600401602060405180830381865afa15801561070e573d5f803e3d5ffd5b505050506040513d601f19601f820116820180604052508101906107329190611159565b90505f866001600160a01b031663313ce5676040518163ffffffff1660e01b8152600401602060405180830381865afa158015610771573d5f803e3d5ffd5b505050506040513d601f19601f820116820180604052508101906107959190611159565b90505f6107a383600a61126d565b90505f6107b183600a61126d565b60405163802431fb60e01b81526001600160a01b038c811660048301528b811660248301525f60448301529192509086169063802431fb90606401602060405180830381865afa158015610807573d5f803e3d5ffd5b505050506040513d601f19601f8201168201806040525081019061082b919061127b565b9550806108388388611292565b61084291906112a9565b95505f8080806108538760126112c8565b61085e90600a61126d565b90508660ff168860ff16036108a757670de0b6b3a76400006108808b8e611292565b61088a91906112a9565b91506108968183611292565b9a5050505050505050505050610503565b8660ff168860ff16106108fb576108be87896112c8565b6108c990600a61126d565b93506108d5848d6112a9565b9250670de0b6b3a76400006108ea8b85611292565b6108f491906112a9565b915061093e565b61090588886112c8565b61091090600a61126d565b935061091c848d611292565b9250670de0b6b3a76400006109318b85611292565b61093b91906112a9565b91505b6109488183611292565b9e9d5050505050505050505050505050565b7ff0c57e16840df040f15088dc2f81fe391c3923bec73e23a9662efc9c229c6a008054600160401b810460ff16159067ffffffffffffffff165f8115801561099f5750825b90505f8267ffffffffffffffff1660011480156109bb5750303b155b9050811580156109c9575080155b156109e75760405163f92ee8a960e01b815260040160405180910390fd5b845467ffffffffffffffff191660011785558315610a1157845460ff60401b1916600160401b1785555b610a1a33610d4d565b610a22610d5e565b5f80546001600160a01b0319166001600160a01b0388161790558315610a8257845460ff60401b19168555604051600181527fc7f505b2f371ae2175ee4913f4499e1f2633a7b5936321eed1cdaeb6115181d29060200160405180910390a15b505050505050565b610a92610c82565b6001600160a01b038116610ac057604051631e4fbdf760e01b81525f60048201526024015b60405180910390fd5b610ac981610cdd565b50565b306001600160a01b037f0000000000000000000000000000000000000000000000000000000000000000161480610b5257507f00000000000000000000000000000000000000000000000000000000000000006001600160a01b0316610b465f805160206112f8833981519152546001600160a01b031690565b6001600160a01b031614155b156105555760405163703e46dd60e11b815260040160405180910390fd5b610ac9610c82565b816001600160a01b03166352d1902d6040518163ffffffff1660e01b8152600401602060405180830381865afa925050508015610bd2575060408051601f3d908101601f19168201909252610bcf9181019061127b565b60015b610bfa57604051634c9c8ce360e01b81526001600160a01b0383166004820152602401610ab7565b5f805160206112f88339815191528114610c2a57604051632a87526960e21b815260048101829052602401610ab7565b610c348383610d66565b505050565b306001600160a01b037f000000000000000000000000000000000000000000000000000000000000000016146105555760405163703e46dd60e11b815260040160405180910390fd5b33610cb47f9016d09d72d40fdae2fd8ceac6b6234c7706214fd39c1cd1e609a0528c199300546001600160a01b031690565b6001600160a01b0316146105555760405163118cdaa760e01b8152336004820152602401610ab7565b7f9016d09d72d40fdae2fd8ceac6b6234c7706214fd39c1cd1e609a0528c19930080546001600160a01b031981166001600160a01b03848116918217845560405192169182907f8be0079c531659141344cd1fd0a4f28419497f9722a3daafe3b4186f6b6457e0905f90a3505050565b610d55610dbb565b610ac981610e04565b610555610dbb565b610d6f82610e0c565b6040516001600160a01b038316907fbc7cd75a20ee27fd9adebab32041f755214dbc6bffa90cc0225b39da2e5c2d3b905f90a2805115610db357610c348282610e6f565b610525610ee3565b7ff0c57e16840df040f15088dc2f81fe391c3923bec73e23a9662efc9c229c6a0054600160401b900460ff1661055557604051631afcd79f60e31b815260040160405180910390fd5b610a92610dbb565b806001600160a01b03163b5f03610e4157604051634c9c8ce360e01b81526001600160a01b0382166004820152602401610ab7565b5f805160206112f883398151915280546001600160a01b0319166001600160a01b0392909216919091179055565b60605f80846001600160a01b031684604051610e8b91906112e1565b5f60405180830381855af49150503d805f8114610ec3576040519150601f19603f3d011682016040523d82523d5f602084013e610ec8565b606091505b5091509150610ed8858383610f02565b925050505b92915050565b34156105555760405163b398979f60e01b815260040160405180910390fd5b606082610f1757610f1282610f5e565b610503565b8151158015610f2e57506001600160a01b0384163b155b15610f5757604051639996b31560e01b81526001600160a01b0385166004820152602401610ab7565b5080610503565b805115610f6e5780518082602001fd5b604051630a12f52160e11b815260040160405180910390fd5b6001600160a01b0381168114610ac9575f80fd5b5f805f60608486031215610fad575f80fd5b8335610fb881610f87565b92506020840135610fc881610f87565b929592945050506040919091013590565b634e487b7160e01b5f52604160045260245ffd5b5f8060408385031215610ffe575f80fd5b823561100981610f87565b9150602083013567ffffffffffffffff80821115611025575f80fd5b818501915085601f830112611038575f80fd5b81358181111561104a5761104a610fd9565b604051601f8201601f19908116603f0116810190838211818310171561107257611072610fd9565b8160405282815288602084870101111561108a575f80fd5b826020860160208301375f6020848301015280955050505050509250929050565b5f80604083850312156110bc575f80fd5b82356110c781610f87565b9150602083013567ffffffffffffffff811681146110e3575f80fd5b809150509250929050565b602081525f82518060208401528060208501604085015e5f604082850101526040601f19601f83011684010191505092915050565b5f60208284031215611133575f80fd5b813561050381610f87565b5f6020828403121561114e575f80fd5b815161050381610f87565b5f60208284031215611169575f80fd5b815160ff81168114610503575f80fd5b634e487b7160e01b5f52601160045260245ffd5b600181815b808511156111c757815f19048211156111ad576111ad611179565b808516156111ba57918102915b93841c9390800290611192565b509250929050565b5f826111dd57506001610edd565b816111e957505f610edd565b81600181146111ff576002811461120957611225565b6001915050610edd565b60ff84111561121a5761121a611179565b50506001821b610edd565b5060208310610133831016604e8410600b8410161715611248575081810a610edd565b611252838361118d565b805f190482111561126557611265611179565b029392505050565b5f61050360ff8416836111cf565b5f6020828403121561128b575f80fd5b5051919050565b8082028115828204841417610edd57610edd611179565b5f826112c357634e487b7160e01b5f52601260045260245ffd5b500490565b60ff8281168282160390811115610edd57610edd611179565b5f82518060208501845e5f92019182525091905056fe360894a13ba1a3210667c828492db98dca3e2076cc3735a920a3ca505d382bbca2646970667358221220363b6f5bbad0e54faf451913343f422b5f0e645a5cc42f8c97f049a61319332a64736f6c63430008190033",
    "sourcePath": "c:/Users/Utente/Source/repos/baluni-contracts/contracts/BaluniV1Oracle.sol",
    "compiler": {
        "name": "solc",
        "version": "0.8.25+commit.b61c2a91"
    },
    "functionHashes": {
        "UPGRADE_INTERFACE_VERSION()": "ad3cb1cc",
        "convert(address,address,uint256)": "248391ff",
        "convertScaled(address,address,uint256)": "b27b5e75",
        "initialize(address)": "c4d66de8",
        "owner()": "8da5cb5b",
        "proxiableUUID()": "52d1902d",
        "registry()": "7b103999",
        "reinitialize(address,uint64)": "8f2248bc",
        "renounceOwnership()": "715018a6",
        "transferOwnership(address)": "f2fde38b",
        "upgradeToAndCall(address,bytes)": "4f1ef286"
    },
    "gasEstimates": {
        "creation": {
            "codeDepositCost": "988200",
            "executionCost": "infinite",
            "totalCost": "infinite"
        },
        "external": {
            "UPGRADE_INTERFACE_VERSION()": "infinite",
            "convert(address,address,uint256)": "infinite",
            "convertScaled(address,address,uint256)": "infinite",
            "initialize(address)": "infinite",
            "owner()": "2330",
            "proxiableUUID()": "infinite",
            "registry()": "2424",
            "reinitialize(address,uint64)": "infinite",
            "renounceOwnership()": "infinite",
            "transferOwnership(address)": "infinite",
            "upgradeToAndCall(address,bytes)": "infinite"
        },
        "internal": {
            "_authorizeUpgrade(address)": "infinite"
        }
    }
}