{
    "contractName": "BaluniV1Pool",
    "abi": [
        {
            "inputs": [
                {
                    "internalType": "address",
                    "name": "_rebalancer",
                    "type": "address"
                },
                {
                    "internalType": "address[]",
                    "name": "_assets",
                    "type": "address[]"
                },
                {
                    "internalType": "uint256[]",
                    "name": "_weights",
                    "type": "uint256[]"
                },
                {
                    "internalType": "uint256",
                    "name": "_trigger",
                    "type": "uint256"
                },
                {
                    "internalType": "address",
                    "name": "_periphery",
                    "type": "address"
                }
            ],
            "stateMutability": "nonpayable",
            "type": "constructor"
        },
        {
            "inputs": [
                {
                    "internalType": "address",
                    "name": "spender",
                    "type": "address"
                },
                {
                    "internalType": "uint256",
                    "name": "allowance",
                    "type": "uint256"
                },
                {
                    "internalType": "uint256",
                    "name": "needed",
                    "type": "uint256"
                }
            ],
            "name": "ERC20InsufficientAllowance",
            "type": "error"
        },
        {
            "inputs": [
                {
                    "internalType": "address",
                    "name": "sender",
                    "type": "address"
                },
                {
                    "internalType": "uint256",
                    "name": "balance",
                    "type": "uint256"
                },
                {
                    "internalType": "uint256",
                    "name": "needed",
                    "type": "uint256"
                }
            ],
            "name": "ERC20InsufficientBalance",
            "type": "error"
        },
        {
            "inputs": [
                {
                    "internalType": "address",
                    "name": "approver",
                    "type": "address"
                }
            ],
            "name": "ERC20InvalidApprover",
            "type": "error"
        },
        {
            "inputs": [
                {
                    "internalType": "address",
                    "name": "receiver",
                    "type": "address"
                }
            ],
            "name": "ERC20InvalidReceiver",
            "type": "error"
        },
        {
            "inputs": [
                {
                    "internalType": "address",
                    "name": "sender",
                    "type": "address"
                }
            ],
            "name": "ERC20InvalidSender",
            "type": "error"
        },
        {
            "inputs": [
                {
                    "internalType": "address",
                    "name": "spender",
                    "type": "address"
                }
            ],
            "name": "ERC20InvalidSpender",
            "type": "error"
        },
        {
            "inputs": [],
            "name": "ReentrancyGuardReentrantCall",
            "type": "error"
        },
        {
            "anonymous": false,
            "inputs": [
                {
                    "indexed": true,
                    "internalType": "address",
                    "name": "owner",
                    "type": "address"
                },
                {
                    "indexed": true,
                    "internalType": "address",
                    "name": "spender",
                    "type": "address"
                },
                {
                    "indexed": false,
                    "internalType": "uint256",
                    "name": "value",
                    "type": "uint256"
                }
            ],
            "name": "Approval",
            "type": "event"
        },
        {
            "anonymous": false,
            "inputs": [
                {
                    "indexed": true,
                    "internalType": "address",
                    "name": "user",
                    "type": "address"
                },
                {
                    "indexed": false,
                    "internalType": "uint256",
                    "name": "sharesBurned",
                    "type": "uint256"
                }
            ],
            "name": "Burn",
            "type": "event"
        },
        {
            "anonymous": false,
            "inputs": [
                {
                    "indexed": true,
                    "internalType": "address",
                    "name": "to",
                    "type": "address"
                },
                {
                    "indexed": false,
                    "internalType": "uint256",
                    "name": "sharesMinted",
                    "type": "uint256"
                }
            ],
            "name": "Mint",
            "type": "event"
        },
        {
            "anonymous": false,
            "inputs": [
                {
                    "indexed": true,
                    "internalType": "address",
                    "name": "by",
                    "type": "address"
                },
                {
                    "indexed": false,
                    "internalType": "address[]",
                    "name": "assets",
                    "type": "address[]"
                }
            ],
            "name": "RebalancePerformed",
            "type": "event"
        },
        {
            "anonymous": false,
            "inputs": [
                {
                    "indexed": true,
                    "internalType": "address",
                    "name": "user",
                    "type": "address"
                },
                {
                    "indexed": true,
                    "internalType": "address",
                    "name": "fromToken",
                    "type": "address"
                },
                {
                    "indexed": true,
                    "internalType": "address",
                    "name": "toToken",
                    "type": "address"
                },
                {
                    "indexed": false,
                    "internalType": "uint256",
                    "name": "amountIn",
                    "type": "uint256"
                },
                {
                    "indexed": false,
                    "internalType": "uint256",
                    "name": "amountOut",
                    "type": "uint256"
                }
            ],
            "name": "Swap",
            "type": "event"
        },
        {
            "anonymous": false,
            "inputs": [
                {
                    "indexed": true,
                    "internalType": "address",
                    "name": "from",
                    "type": "address"
                },
                {
                    "indexed": true,
                    "internalType": "address",
                    "name": "to",
                    "type": "address"
                },
                {
                    "indexed": false,
                    "internalType": "uint256",
                    "name": "value",
                    "type": "uint256"
                }
            ],
            "name": "Transfer",
            "type": "event"
        },
        {
            "anonymous": false,
            "inputs": [
                {
                    "indexed": true,
                    "internalType": "address",
                    "name": "user",
                    "type": "address"
                },
                {
                    "indexed": false,
                    "internalType": "uint256[]",
                    "name": "amountsAdded",
                    "type": "uint256[]"
                }
            ],
            "name": "WeightsRebalanced",
            "type": "event"
        },
        {
            "inputs": [],
            "name": "ONE",
            "outputs": [
                {
                    "internalType": "uint256",
                    "name": "",
                    "type": "uint256"
                }
            ],
            "stateMutability": "view",
            "type": "function"
        },
        {
            "inputs": [],
            "name": "SWAP_FEE_BPS",
            "outputs": [
                {
                    "internalType": "uint256",
                    "name": "",
                    "type": "uint256"
                }
            ],
            "stateMutability": "view",
            "type": "function"
        },
        {
            "inputs": [
                {
                    "internalType": "address",
                    "name": "owner",
                    "type": "address"
                },
                {
                    "internalType": "address",
                    "name": "spender",
                    "type": "address"
                }
            ],
            "name": "allowance",
            "outputs": [
                {
                    "internalType": "uint256",
                    "name": "",
                    "type": "uint256"
                }
            ],
            "stateMutability": "view",
            "type": "function"
        },
        {
            "inputs": [
                {
                    "internalType": "address",
                    "name": "spender",
                    "type": "address"
                },
                {
                    "internalType": "uint256",
                    "name": "value",
                    "type": "uint256"
                }
            ],
            "name": "approve",
            "outputs": [
                {
                    "internalType": "bool",
                    "name": "",
                    "type": "bool"
                }
            ],
            "stateMutability": "nonpayable",
            "type": "function"
        },
        {
            "inputs": [
                {
                    "internalType": "uint256",
                    "name": "",
                    "type": "uint256"
                }
            ],
            "name": "assetInfos",
            "outputs": [
                {
                    "internalType": "address",
                    "name": "asset",
                    "type": "address"
                },
                {
                    "internalType": "uint256",
                    "name": "weight",
                    "type": "uint256"
                }
            ],
            "stateMutability": "view",
            "type": "function"
        },
        {
            "inputs": [
                {
                    "internalType": "uint256",
                    "name": "assetIndex",
                    "type": "uint256"
                }
            ],
            "name": "assetLiquidity",
            "outputs": [
                {
                    "internalType": "uint256",
                    "name": "",
                    "type": "uint256"
                }
            ],
            "stateMutability": "view",
            "type": "function"
        },
        {
            "inputs": [
                {
                    "internalType": "address",
                    "name": "account",
                    "type": "address"
                }
            ],
            "name": "balanceOf",
            "outputs": [
                {
                    "internalType": "uint256",
                    "name": "",
                    "type": "uint256"
                }
            ],
            "stateMutability": "view",
            "type": "function"
        },
        {
            "inputs": [],
            "name": "baseAsset",
            "outputs": [
                {
                    "internalType": "address",
                    "name": "",
                    "type": "address"
                }
            ],
            "stateMutability": "view",
            "type": "function"
        },
        {
            "inputs": [
                {
                    "internalType": "address",
                    "name": "to",
                    "type": "address"
                }
            ],
            "name": "burn",
            "outputs": [
                {
                    "internalType": "uint256[]",
                    "name": "",
                    "type": "uint256[]"
                }
            ],
            "stateMutability": "nonpayable",
            "type": "function"
        },
        {
            "inputs": [],
            "name": "computeTotalValuation",
            "outputs": [
                {
                    "internalType": "uint256",
                    "name": "totalVal",
                    "type": "uint256"
                },
                {
                    "internalType": "uint256[]",
                    "name": "valuations",
                    "type": "uint256[]"
                }
            ],
            "stateMutability": "view",
            "type": "function"
        },
        {
            "inputs": [],
            "name": "decimals",
            "outputs": [
                {
                    "internalType": "uint8",
                    "name": "",
                    "type": "uint8"
                }
            ],
            "stateMutability": "view",
            "type": "function"
        },
        {
            "inputs": [],
            "name": "factory",
            "outputs": [
                {
                    "internalType": "address",
                    "name": "",
                    "type": "address"
                }
            ],
            "stateMutability": "view",
            "type": "function"
        },
        {
            "inputs": [
                {
                    "internalType": "address",
                    "name": "fromToken",
                    "type": "address"
                },
                {
                    "internalType": "address",
                    "name": "toToken",
                    "type": "address"
                },
                {
                    "internalType": "uint256",
                    "name": "amount",
                    "type": "uint256"
                }
            ],
            "name": "getAmountOut",
            "outputs": [
                {
                    "internalType": "uint256",
                    "name": "",
                    "type": "uint256"
                }
            ],
            "stateMutability": "view",
            "type": "function"
        },
        {
            "inputs": [
                {
                    "internalType": "address",
                    "name": "asset",
                    "type": "address"
                }
            ],
            "name": "getAssetReserve",
            "outputs": [
                {
                    "internalType": "uint256",
                    "name": "",
                    "type": "uint256"
                }
            ],
            "stateMutability": "view",
            "type": "function"
        },
        {
            "inputs": [],
            "name": "getAssets",
            "outputs": [
                {
                    "internalType": "address[]",
                    "name": "",
                    "type": "address[]"
                }
            ],
            "stateMutability": "view",
            "type": "function"
        },
        {
            "inputs": [],
            "name": "getDeviation",
            "outputs": [
                {
                    "internalType": "bool[]",
                    "name": "directions",
                    "type": "bool[]"
                },
                {
                    "internalType": "uint256[]",
                    "name": "deviations",
                    "type": "uint256[]"
                }
            ],
            "stateMutability": "view",
            "type": "function"
        },
        {
            "inputs": [],
            "name": "getReserves",
            "outputs": [
                {
                    "internalType": "uint256[]",
                    "name": "",
                    "type": "uint256[]"
                }
            ],
            "stateMutability": "view",
            "type": "function"
        },
        {
            "inputs": [],
            "name": "getWeights",
            "outputs": [
                {
                    "internalType": "uint256[]",
                    "name": "",
                    "type": "uint256[]"
                }
            ],
            "stateMutability": "view",
            "type": "function"
        },
        {
            "inputs": [],
            "name": "isRebalanceNeeded",
            "outputs": [
                {
                    "internalType": "bool",
                    "name": "",
                    "type": "bool"
                }
            ],
            "stateMutability": "view",
            "type": "function"
        },
        {
            "inputs": [],
            "name": "liquidity",
            "outputs": [
                {
                    "internalType": "uint256",
                    "name": "",
                    "type": "uint256"
                }
            ],
            "stateMutability": "view",
            "type": "function"
        },
        {
            "inputs": [
                {
                    "internalType": "address",
                    "name": "to",
                    "type": "address"
                },
                {
                    "internalType": "uint256[]",
                    "name": "amounts",
                    "type": "uint256[]"
                }
            ],
            "name": "mint",
            "outputs": [
                {
                    "internalType": "uint256",
                    "name": "",
                    "type": "uint256"
                }
            ],
            "stateMutability": "nonpayable",
            "type": "function"
        },
        {
            "inputs": [],
            "name": "name",
            "outputs": [
                {
                    "internalType": "string",
                    "name": "",
                    "type": "string"
                }
            ],
            "stateMutability": "view",
            "type": "function"
        },
        {
            "inputs": [],
            "name": "performRebalanceIfNeeded",
            "outputs": [
                {
                    "internalType": "uint256[]",
                    "name": "amountsToAdd",
                    "type": "uint256[]"
                },
                {
                    "internalType": "uint256[]",
                    "name": "amountsToRemove",
                    "type": "uint256[]"
                }
            ],
            "stateMutability": "nonpayable",
            "type": "function"
        },
        {
            "inputs": [],
            "name": "periphery",
            "outputs": [
                {
                    "internalType": "address",
                    "name": "",
                    "type": "address"
                }
            ],
            "stateMutability": "view",
            "type": "function"
        },
        {
            "inputs": [
                {
                    "internalType": "address",
                    "name": "receiver",
                    "type": "address"
                }
            ],
            "name": "rebalanceWeights",
            "outputs": [
                {
                    "internalType": "uint256[]",
                    "name": "",
                    "type": "uint256[]"
                }
            ],
            "stateMutability": "nonpayable",
            "type": "function"
        },
        {
            "inputs": [],
            "name": "rebalancer",
            "outputs": [
                {
                    "internalType": "address",
                    "name": "",
                    "type": "address"
                }
            ],
            "stateMutability": "view",
            "type": "function"
        },
        {
            "inputs": [
                {
                    "internalType": "address",
                    "name": "fromToken",
                    "type": "address"
                },
                {
                    "internalType": "address",
                    "name": "toToken",
                    "type": "address"
                },
                {
                    "internalType": "uint256",
                    "name": "amount",
                    "type": "uint256"
                },
                {
                    "internalType": "address",
                    "name": "receiver",
                    "type": "address"
                }
            ],
            "name": "swap",
            "outputs": [
                {
                    "internalType": "uint256",
                    "name": "toSend",
                    "type": "uint256"
                }
            ],
            "stateMutability": "nonpayable",
            "type": "function"
        },
        {
            "inputs": [],
            "name": "symbol",
            "outputs": [
                {
                    "internalType": "string",
                    "name": "",
                    "type": "string"
                }
            ],
            "stateMutability": "view",
            "type": "function"
        },
        {
            "inputs": [],
            "name": "totalSupply",
            "outputs": [
                {
                    "internalType": "uint256",
                    "name": "",
                    "type": "uint256"
                }
            ],
            "stateMutability": "view",
            "type": "function"
        },
        {
            "inputs": [
                {
                    "internalType": "address",
                    "name": "to",
                    "type": "address"
                },
                {
                    "internalType": "uint256",
                    "name": "value",
                    "type": "uint256"
                }
            ],
            "name": "transfer",
            "outputs": [
                {
                    "internalType": "bool",
                    "name": "",
                    "type": "bool"
                }
            ],
            "stateMutability": "nonpayable",
            "type": "function"
        },
        {
            "inputs": [
                {
                    "internalType": "address",
                    "name": "from",
                    "type": "address"
                },
                {
                    "internalType": "address",
                    "name": "to",
                    "type": "address"
                },
                {
                    "internalType": "uint256",
                    "name": "value",
                    "type": "uint256"
                }
            ],
            "name": "transferFrom",
            "outputs": [
                {
                    "internalType": "bool",
                    "name": "",
                    "type": "bool"
                }
            ],
            "stateMutability": "nonpayable",
            "type": "function"
        },
        {
            "inputs": [],
            "name": "trigger",
            "outputs": [
                {
                    "internalType": "uint256",
                    "name": "",
                    "type": "uint256"
                }
            ],
            "stateMutability": "view",
            "type": "function"
        },
        {
            "inputs": [],
            "name": "unitPrice",
            "outputs": [
                {
                    "internalType": "uint256",
                    "name": "",
                    "type": "uint256"
                }
            ],
            "stateMutability": "view",
            "type": "function"
        }
    ],
    "bytecode": "608060405234801561000f575f80fd5b506040516133b43803806133b483398101604081905261002e916105d3565b60405180604001604052806009815260200168042616c756e69204c560bc1b81525060405180604001604052806009815260200168042414c554e492d4c560bc1b8152508160039081610081919061073d565b50600461008e828261073d565b5050600160055550600980546001600160a01b038084166001600160a01b031992831617909255600a8054821633179055600c805492881692909116919091179055670de0b6b3a76400006008556100e684846101fc565b81600781905550846001600160a01b03166389a302716040518163ffffffff1660e01b8152600401602060405180830381865afa158015610129573d5f803e3d5ffd5b505050506040513d601f19601f8201168201806040525081019061014d91906107fc565b600b80546001600160a01b0319166001600160a01b03929092169190911790555f805b84518110156101a85784818151811061018b5761018b61081c565b60200260200101518261019e9190610830565b9150600101610170565b5080612710146101f15760405162461bcd60e51b815260206004820152600f60248201526e496e76616c6964207765696768747360881b60448201526064015b60405180910390fd5b50505050505061088b565b80518251146102585760405162461bcd60e51b815260206004820152602260248201527f41737365747320616e642077656967687473206c656e677468206d69736d61746044820152610c6d60f31b60648201526084016101e8565b5f5b82518110156104e1575f6001600160a01b031683828151811061027f5761027f61081c565b60200260200101516001600160a01b0316036102dd5760405162461bcd60e51b815260206004820152601560248201527f496e76616c69642061737365742061646472657373000000000000000000000060448201526064016101e8565b5f8282815181106102f0576102f061081c565b6020026020010151116103365760405162461bcd60e51b815260206004820152600e60248201526d125b9d985b1a59081dd95a59da1d60921b60448201526064016101e8565b600660405180604001604052808584815181106103555761035561081c565b60200260200101516001600160a01b0316815260200184848151811061037d5761037d61081c565b6020908102919091018101519091528254600180820185555f948552828520845160029093020180546001600160a01b0319166001600160a01b03909316929092178255929091015191015583518490839081106103dd576103dd61081c565b6020908102919091010151600c54604051636eb1769f60e11b81523060048201526001600160a01b03918216602482015291925082169063dd62ed3e90604401602060405180830381865afa158015610438573d5f803e3d5ffd5b505050506040513d601f19601f8201168201806040525081019061045c9190610855565b5f036104d857600c5460405163095ea7b360e01b81526001600160a01b0391821660048201525f1960248201529082169063095ea7b3906044016020604051808303815f875af11580156104b2573d5f803e3d5ffd5b505050506040513d601f19601f820116820180604052508101906104d6919061086c565b505b5060010161025a565b505050565b80516001600160a01b03811681146104fc575f80fd5b919050565b634e487b7160e01b5f52604160045260245ffd5b604051601f8201601f191681016001600160401b038111828210171561053d5761053d610501565b604052919050565b5f6001600160401b0382111561055d5761055d610501565b5060051b60200190565b5f82601f830112610576575f80fd5b8151602061058b61058683610545565b610515565b8083825260208201915060208460051b8701019350868411156105ac575f80fd5b602086015b848110156105c857805183529183019183016105b1565b509695505050505050565b5f805f805f60a086880312156105e7575f80fd5b6105f0866104e6565b602087810151919650906001600160401b038082111561060e575f80fd5b818901915089601f830112610621575f80fd5b815161062f61058682610545565b81815260059190911b8301840190848101908c83111561064d575f80fd5b938501935b8285101561067257610663856104e6565b82529385019390850190610652565b60408c0151909950945050508083111561068a575f80fd5b505061069888828901610567565b935050606086015191506106ae608087016104e6565b90509295509295909350565b600181811c908216806106ce57607f821691505b6020821081036106ec57634e487b7160e01b5f52602260045260245ffd5b50919050565b601f8211156104e157805f5260205f20601f840160051c810160208510156107175750805b601f840160051c820191505b81811015610736575f8155600101610723565b5050505050565b81516001600160401b0381111561075657610756610501565b61076a8161076484546106ba565b846106f2565b602080601f83116001811461079d575f84156107865750858301515b5f19600386901b1c1916600185901b1785556107f4565b5f85815260208120601f198616915b828110156107cb578886015182559484019460019091019084016107ac565b50858210156107e857878501515f19600388901b60f8161c191681555b505060018460011b0185555b505050505050565b5f6020828403121561080c575f80fd5b610815826104e6565b9392505050565b634e487b7160e01b5f52603260045260245ffd5b8082018082111561084f57634e487b7160e01b5f52601160045260245ffd5b92915050565b5f60208284031215610865575f80fd5b5051919050565b5f6020828403121561087c575f80fd5b81518015158114610815575f80fd5b612b1c806108985f395ff3fe608060405234801561000f575f80fd5b50600436106101f2575f3560e01c806377aace1a11610114578063c2ee3a08116100a9578063d14ef46d11610079578063d14ef46d14610408578063dd62ed3e1461043a578063de836ebd14610472578063e73faa2d14610485578063f47b45e81461048d575f80fd5b8063c2ee3a08146103c6578063c45a0155146103cf578063cdf456e1146103e2578063cf8fa764146103f5575f80fd5b80638a77c8dc116100e45780638a77c8dc1461039057806395d89b4114610398578063a9059cbb146103a0578063b2b55d70146103b3575f80fd5b806377aace1a1461034b5780637fec8d381461035e57806389ab35321461036757806389afcb441461037d575f80fd5b806323b872dd1161018a57806367a6c4401161015a57806367a6c440146102f357806367e4ac2c146102fb5780636e81221c1461031057806370a0823114610323575f80fd5b806323b872dd146102a8578063313ce567146102bb57806336bf6e39146102ca5780634aa06652146102e0575f80fd5b8063095ea7b3116101c5578063095ea7b31461026357806318160ddd146102865780631a6865021461029857806322acb867146102a0575f80fd5b806301d22ccd146101f657806306fdde03146102265780630723c9991461023b5780630902f1ac1461025b575b5f80fd5b600c54610209906001600160a01b031681565b6040516001600160a01b0390911681526020015b60405180910390f35b61022e6104a3565b60405161021d91906124f6565b61024e610249366004612542565b610533565b60405161021d9190612597565b61024e610789565b6102766102713660046125a9565b6107fb565b604051901515815260200161021d565b6002545b60405190815260200161021d565b61028a610814565b61024e610825565b6102766102b63660046125d3565b6108ca565b6040516012815260200161021d565b6102d26108ed565b60405161021d929190612611565b61028a6102ee3660046125d3565b610901565b61028a601e81565b610303610985565b60405161021d9190612661565b61028a61031e366004612673565b610a3f565b61028a610331366004612542565b6001600160a01b03165f9081526020819052604090205490565b600954610209906001600160a01b031681565b61028a60075481565b61036f610bea565b60405161021d9291906126c3565b61024e61038b366004612542565b610da3565b6102766111c7565b61022e611241565b6102766103ae3660046125a9565b611250565b61028a6103c1366004612542565b61125d565b61028a60085481565b600a54610209906001600160a01b031681565b600b54610209906001600160a01b031681565b61028a61040336600461271c565b6112cf565b61041b61041636600461271c565b611344565b604080516001600160a01b03909316835260208301919091520161021d565b61028a610448366004612733565b6001600160a01b039182165f90815260016020908152604080832093909416825291909152205490565b61028a6104803660046127d0565b61137a565b61028a611773565b6104956117bb565b60405161021d929190612875565b6060600380546104b2906128a2565b80601f01602080910402602001604051908101604052809291908181526020018280546104de906128a2565b80156105295780601f1061050057610100808354040283529160200191610529565b820191905f5260205f20905b81548152906001019060200180831161050c57829003601f168201915b5050505050905090565b6009546060906001600160a01b031633146105695760405162461bcd60e51b8152600401610560906128d4565b60405180910390fd5b6105716111c7565b6105b45760405162461bcd60e51b8152602060048201526014602482015273149958985b185b98d9481b9bdd081b995959195960621b6044820152606401610560565b5f806105be611845565b915091505f6105cd8383611974565b90505f6105d982611a75565b90505f600b5f9054906101000a90046001600160a01b03166001600160a01b031663313ce5676040518163ffffffff1660e01b8152600401602060405180830381865afa15801561062c573d5f803e3d5ffd5b505050506040513d601f19601f8201168201806040525081019061065091906128fc565b60ff16905061066781670de0b6b3a7640000612930565b6106719083612943565b6006549092505f906001600160401b038111156106905761069061276a565b6040519080825280602002602001820160405280156106b9578160200160208202803683370190505b5090505f5b8451811015610732575f8582815181106106da576106da61295a565b6020026020010151111561072a5761070b818683815181106106fe576106fe61295a565b6020026020010151611ab1565b82828151811061071d5761071d61295a565b6020026020010181815250505b6001016106be565b5061073d8884611b40565b336001600160a01b03167fa95ad530009c6f929555e70a66aadbeae7231e45756c5b028ca77fbaa376e73e856040516107769190612597565b60405180910390a2979650505050505050565b600954604051630fa6707960e21b81523060048201526060916001600160a01b031690633e99c1e4906024015f60405180830381865afa1580156107cf573d5f803e3d5ffd5b505050506040513d5f823e601f3d908101601f191682016040526107f6919081019061296e565b905090565b5f33610808818585611b78565b60019150505b92915050565b5f8061081e611845565b5092915050565b6006546060905f906001600160401b038111156108445761084461276a565b60405190808252806020026020018201604052801561086d578160200160208202803683370190505b5090505f5b6006548110156108c4576006818154811061088f5761088f61295a565b905f5260205f209060020201600101548282815181106108b1576108b161295a565b6020908102919091010152600101610872565b50919050565b5f336108d7858285611b8a565b6108e2858585611c05565b506001949350505050565b5f60606108f8611845565b90939092509050565b600c5460405163248391ff60e01b81526001600160a01b0385811660048301528481166024830152604482018490525f92169063248391ff906064015b602060405180830381865afa158015610959573d5f803e3d5ffd5b505050506040513d601f19601f8201168201806040525081019061097d91906129f9565b949350505050565b6006546060905f906001600160401b038111156109a4576109a461276a565b6040519080825280602002602001820160405280156109cd578160200160208202803683370190505b5090505f5b6006548110156108c457600681815481106109ef576109ef61295a565b5f91825260209091206002909102015482516001600160a01b0390911690839083908110610a1f57610a1f61295a565b6001600160a01b03909216602092830291909101909101526001016109d2565b5f610a48611c62565b836001600160a01b0316856001600160a01b031603610aa95760405162461bcd60e51b815260206004820152601a60248201527f43616e6e6f742073776170207468652073616d6520746f6b656e0000000000006044820152606401610560565b5f8311610af85760405162461bcd60e51b815260206004820181905260248201527f416d6f756e74206d7573742062652067726561746572207468616e207a65726f6044820152606401610560565b5f610b04868686610901565b905080610b108661125d565b1015610b575760405162461bcd60e51b8152602060048201526016602482015275496e73756666696369656e74204c697175696469747960501b6044820152606401610560565b5f612710610b66601e84612943565b610b709190612a10565b9050610b7c8183612930565b9250856001600160a01b0316876001600160a01b0316856001600160a01b03167fcd3829a3813dc3cdd188fd3d01dcf3268c16be2fdd2dd21d0665418816e460628887604051610bd6929190918252602082015260400190565b60405180910390a4505061097d6001600555565b6060805f80610bf7611845565b6006549193509150806001600160401b03811115610c1757610c1761276a565b604051908082528060200260200182016040528015610c40578160200160208202803683370190505b509450806001600160401b03811115610c5b57610c5b61276a565b604051908082528060200260200182016040528015610c84578160200160208202803683370190505b5093505f5b81811015610d9b575f84848381518110610ca557610ca561295a565b6020026020010151612710610cba9190612943565b610cc49190612a10565b90505f60068381548110610cda57610cda61295a565b905f5260205f20906002020160010154905080821115610d4557610cfe8183612930565b878481518110610d1057610d1061295a565b6020026020010181815250506001888481518110610d3057610d3061295a565b91151560209283029190910190910152610d91565b610d4f8282612930565b878481518110610d6157610d6161295a565b6020026020010181815250505f888481518110610d8057610d8061295a565b911515602092830291909101909101525b5050600101610c89565b505050509091565b6009546060906001600160a01b03163314610dd05760405162461bcd60e51b8152600401610560906128d4565b305f9081526020819052604090205480610e2c5760405162461bcd60e51b815260206004820152601c60248201527f5368617265206d7573742062652067726561746572207468616e2030000000006044820152606401610560565b5f610e3660025490565b90505f8111610e765760405162461bcd60e51b815260206004820152600c60248201526b4e6f206c697175696469747960a01b6044820152606401610560565b6006545f906001600160401b03811115610e9257610e9261276a565b604051908082528060200260200182016040528015610ebb578160200160208202803683370190505b5090505f612710610ecd601e86612943565b610ed79190612a10565b90505f610ee48286612930565b90505f5b600654811015610fd857600954600680545f926001600160a01b03169163a3e113fb9130919086908110610f1e57610f1e61295a565b5f91825260209091206002909102015460405160e084901b6001600160e01b03191681526001600160a01b03928316600482015291166024820152604401602060405180830381865afa158015610f77573d5f803e3d5ffd5b505050506040513d601f19601f82011682018060405250810190610f9b91906129f9565b905085610fa88483612943565b610fb29190612a10565b858381518110610fc457610fc461295a565b602090810291909101015250600101610ee8565b50305f908152602081905260409020548111156110375760405162461bcd60e51b815260206004820152601d60248201527f496e73756666696369656e742042414c554e49206c69717569646974790000006044820152606401610560565b5f306001600160a01b031663a9059cbb600c5f9054906101000a90046001600160a01b03166001600160a01b03166361d027b36040518163ffffffff1660e01b8152600401602060405180830381865afa158015611097573d5f803e3d5ffd5b505050506040513d601f19601f820116820180604052508101906110bb9190612a2f565b6040516001600160e01b031960e084901b1681526001600160a01b039091166004820152602481018690526044016020604051808303815f875af1158015611105573d5f803e3d5ffd5b505050506040513d601f19601f820116820180604052508101906111299190612a4a565b90508061116e5760405162461bcd60e51b8152602060048201526013602482015272119959481d1c985b9cd9995c8819985a5b1959606a1b6044820152606401610560565b6111783083611c8c565b876001600160a01b03167fcc16f5dbb4873280815c1ee09dbd06736cffcc184412cf7a71a0fdb75d397ca5836040516111b391815260200190565b60405180910390a250919695505050505050565b5f805f6111d2610bea565b915091505f5b8151811015611238578281815181106111f3576111f361295a565b6020026020010151801561122157506007548282815181106112175761121761295a565b6020026020010151115b15611230576001935050505090565b6001016111d8565b505f9250505090565b6060600480546104b2906128a2565b5f33610808818585611c05565b60095460405163a3e113fb60e01b81523060048201526001600160a01b0383811660248301525f92169063a3e113fb90604401602060405180830381865afa1580156112ab573d5f803e3d5ffd5b505050506040513d601f19601f8201168201806040525081019061080e91906129f9565b5f806112d9611845565b915050805183106113225760405162461bcd60e51b8152602060048201526013602482015272092dcecc2d8d2c840c2e6e6cae840d2dcc8caf606b1b6044820152606401610560565b8083815181106113345761133461295a565b6020026020010151915050919050565b60068181548110611353575f80fd5b5f918252602090912060029091020180546001909101546001600160a01b03909116915082565b6009545f906001600160a01b031633146113a65760405162461bcd60e51b8152600401610560906128d4565b5f6113b060025490565b90505f806113bc610789565b8051600654919250146114115760405162461bcd60e51b815260206004820152601760248201527f496e76616c6964207265736572766573206c656e6774680000000000000000006044820152606401610560565b60065461144c5760405162461bcd60e51b81526020600482015260096024820152684e6f2061737365747360b81b6044820152606401610560565b5f5b6006548110156114c7575f6006828154811061146c5761146c61295a565b5f918252602082206002909102015488516001600160a01b0390911692506114af9083908a90869081106114a2576114a261295a565b6020026020010151611cc0565b90506114bb8186612a69565b9450505060010161144e565b505f82116115225760405162461bcd60e51b815260206004820152602260248201527f546f74616c2076616c7565206d7573742062652067726561746572207468616e604482015261020360f41b6064820152608401610560565b5f80600b5f9054906101000a90046001600160a01b03166001600160a01b031663313ce5676040518163ffffffff1660e01b8152600401602060405180830381865afa158015611574573d5f803e3d5ffd5b505050506040513d601f19601f8201168201806040525081019061159891906128fc565b60ff169050845f036115c857806115b785670de0b6b3a7640000612943565b6115c19190612930565b9150611668565b5f6115d1611845565b5090505f81116116325760405162461bcd60e51b815260206004820152602660248201527f546f74616c206c6971756964697479206d75737420626520677265617465722060448201526507468616e20360d41b6064820152608401610560565b818161163e8888612943565b6116489190612a10565b61165a90670de0b6b3a7640000612943565b6116649190612930565b9250505b815f036116a75760405162461bcd60e51b815260206004820152600d60248201526c04d696e7420717479206973203609c1b6044820152606401610560565b335f908152602081905260409020546116c08984611b40565b6001600160a01b0389165f908152602081905260408120546116e3908390612930565b90508381146117225760405162461bcd60e51b815260206004820152600b60248201526a135a5b9d0811985a5b195960aa1b6044820152606401610560565b896001600160a01b03167f0f6798a560793a54c3bcfe86a93cde1e73087d944c0ea20544137d41213968858560405161175d91815260200190565b60405180910390a2509198975050505050505050565b5f8061177d611845565b5090505f61178a60025490565b9050805f0361179b575f9250505090565b80600854836117aa9190612943565b6117b49190612a10565b9250505090565b60095460609081906001600160a01b031633146117ea5760405162461bcd60e51b8152600401610560906128d4565b6117f26111c7565b6118355760405162461bcd60e51b8152602060048201526014602482015273149958985b185b98d9481b9bdd081b995959195960621b6044820152606401610560565b61183d611d1c565b915091509091565b6006545f90606090806001600160401b038111156118655761186561276a565b60405190808252806020026020018201604052801561188e578160200160208202803683370190505b5091505f5b8181101561196e575f600682815481106118af576118af61295a565b5f91825260208220600290910201546001600160a01b031691506118d28261125d565b600b549091506001600160a01b039081169083160361190f57808584815181106118fe576118fe61295a565b60200260200101818152505061193d565b5f61191a8383611cc0565b90508086858151811061192f5761192f61295a565b602002602001018181525050505b84838151811061194f5761194f61295a565b6020026020010151866119629190612a69565b95505050600101611893565b50509091565b6006546060906001600160401b038111156119915761199161276a565b6040519080825280602002602001820160405280156119ba578160200160208202803683370190505b5090505f5b60065481101561081e575f612710600683815481106119e0576119e061295a565b905f5260205f20906002020160010154866119fb9190612943565b611a059190612a10565b905080848381518110611a1a57611a1a61295a565b60200260200101511015611a6c57838281518110611a3a57611a3a61295a565b602002602001015181611a4d9190612930565b838381518110611a5f57611a5f61295a565b6020026020010181815250505b506001016119bf565b5f805b6006548110156108c457828181518110611a9457611a9461295a565b602002602001015182611aa79190612a69565b9150600101611a78565b5f80611ae860068581548110611ac957611ac961295a565b5f9182526020909120600290910201546001600160a01b0316846122b8565b90505f8111611b395760405162461bcd60e51b815260206004820152601b60248201527f496e76616c696420746f6b656e20616d6f756e7420746f2061646400000000006044820152606401610560565b9392505050565b6001600160a01b038216611b695760405163ec442f0560e01b81525f6004820152602401610560565b611b745f83836122fe565b5050565b611b858383836001612424565b505050565b6001600160a01b038381165f908152600160209081526040808320938616835292905220545f198114611bff5781811015611bf157604051637dc7a0d960e11b81526001600160a01b03841660048201526024810182905260448101839052606401610560565b611bff84848484035f612424565b50505050565b6001600160a01b038316611c2e57604051634b637e8f60e11b81525f6004820152602401610560565b6001600160a01b038216611c575760405163ec442f0560e01b81525f6004820152602401610560565b611b858383836122fe565b600260055403611c8557604051633ee5aeb560e01b815260040160405180910390fd5b6002600555565b6001600160a01b038216611cb557604051634b637e8f60e11b81525f6004820152602401610560565b611b74825f836122fe565b600c54600b5460405163248391ff60e01b81526001600160a01b0385811660048301529182166024820152604481018490525f928392169063248391ff90606401602060405180830381865afa158015610959573d5f803e3d5ffd5b6060805f6006805490506001600160401b03811115611d3d57611d3d61276a565b604051908082528060200260200182016040528015611d66578160200160208202803683370190505b506006549091505f906001600160401b03811115611d8657611d8661276a565b604051908082528060200260200182016040528015611daf578160200160208202803683370190505b506006549091505f906001600160401b03811115611dcf57611dcf61276a565b604051908082528060200260200182016040528015611df8578160200160208202803683370190505b506006549091505f906001600160401b03811115611e1857611e1861276a565b604051908082528060200260200182016040528015611e41578160200160208202803683370190505b506006549091505f906001600160401b03811115611e6157611e6161276a565b604051908082528060200260200182016040528015611e8a578160200160208202803683370190505b506006549091505f906001600160401b03811115611eaa57611eaa61276a565b604051908082528060200260200182016040528015611ed3578160200160208202803683370190505b5090505f5b6006548110156120335760068181548110611ef557611ef561295a565b5f91825260209091206002909102015487516001600160a01b0390911690889083908110611f2557611f2561295a565b60200260200101906001600160a01b031690816001600160a01b03168152505060068181548110611f5857611f5861295a565b905f5260205f20906002020160010154868281518110611f7a57611f7a61295a565b602002602001018181525050868181518110611f9857611f9861295a565b60209081029190910101516009546040516370a0823160e01b81526001600160a01b0391821660048201529116906370a0823190602401602060405180830381865afa158015611fea573d5f803e3d5ffd5b505050506040513d601f19601f8201168201806040525081019061200e91906129f9565b8582815181106120205761202061295a565b6020908102919091010152600101611ed8565b505f61203d610789565b600c54600754600954600b54604051633c2fddc560e21b81529495506001600160a01b039384169463f0bf7714946120899488948f948f94929391821692839290911690600401612a7c565b5f604051808303815f87803b1580156120a0575f80fd5b505af11580156120b2573d5f803e3d5ffd5b505050505f5b600654811015612268578781815181106120d4576120d461295a565b60209081029190910101516009546040516370a0823160e01b81526001600160a01b0391821660048201529116906370a0823190602401602060405180830381865afa158015612126573d5f803e3d5ffd5b505050506040513d601f19601f8201168201806040525081019061214a91906129f9565b85828151811061215c5761215c61295a565b60200260200101818152505085818151811061217a5761217a61295a565b60200260200101518582815181106121945761219461295a565b60200260200101511115612203578581815181106121b4576121b461295a565b60200260200101518582815181106121ce576121ce61295a565b60200260200101516121e09190612930565b8482815181106121f2576121f261295a565b602002602001018181525050612260565b8481815181106122155761221561295a565b602002602001015186828151811061222f5761222f61295a565b60200260200101516122419190612930565b8382815181106122535761225361295a565b6020026020010181815250505b6001016120b8565b50336001600160a01b03167f279b343370f587af7fb675ae7c8578e9c8abcc373236ad02c501a4771fe7a7b8886040516122a29190612661565b60405180910390a2509097909650945050505050565b600c54600b5460405163248391ff60e01b81526001600160a01b0391821660048201528482166024820152604481018490525f928392169063248391ff9060640161093e565b6001600160a01b038316612328578060025f82825461231d9190612a69565b909155506123989050565b6001600160a01b0383165f908152602081905260409020548181101561237a5760405163391434e360e21b81526001600160a01b03851660048201526024810182905260448101839052606401610560565b6001600160a01b0384165f9081526020819052604090209082900390555b6001600160a01b0382166123b4576002805482900390556123d2565b6001600160a01b0382165f9081526020819052604090208054820190555b816001600160a01b0316836001600160a01b03167fddf252ad1be2c89b69c2b068fc378daa952ba7f163c4a11628f55a4df523b3ef8360405161241791815260200190565b60405180910390a3505050565b6001600160a01b03841661244d5760405163e602df0560e01b81525f6004820152602401610560565b6001600160a01b03831661247657604051634a1406b160e11b81525f6004820152602401610560565b6001600160a01b038085165f9081526001602090815260408083209387168352929052208290558015611bff57826001600160a01b0316846001600160a01b03167f8c5be1e5ebec7d5bd14f71427d1e84f3dd0314c0f7b2291e5b200ac8c7c3b925846040516124e891815260200190565b60405180910390a350505050565b602081525f82518060208401528060208501604085015e5f604082850101526040601f19601f83011684010191505092915050565b6001600160a01b038116811461253f575f80fd5b50565b5f60208284031215612552575f80fd5b8135611b398161252b565b5f815180845260208085019450602084015f5b8381101561258c57815187529582019590820190600101612570565b509495945050505050565b602081525f611b39602083018461255d565b5f80604083850312156125ba575f80fd5b82356125c58161252b565b946020939093013593505050565b5f805f606084860312156125e5575f80fd5b83356125f08161252b565b925060208401356126008161252b565b929592945050506040919091013590565b828152604060208201525f61097d604083018461255d565b5f815180845260208085019450602084015f5b8381101561258c5781516001600160a01b03168752958201959082019060010161263c565b602081525f611b396020830184612629565b5f805f8060808587031215612686575f80fd5b84356126918161252b565b935060208501356126a18161252b565b92506040850135915060608501356126b88161252b565b939692955090935050565b604080825283519082018190525f906020906060840190828701845b828110156126fd5781511515845292840192908401906001016126df565b5050508381036020850152612712818661255d565b9695505050505050565b5f6020828403121561272c575f80fd5b5035919050565b5f8060408385031215612744575f80fd5b823561274f8161252b565b9150602083013561275f8161252b565b809150509250929050565b634e487b7160e01b5f52604160045260245ffd5b604051601f8201601f191681016001600160401b03811182821017156127a6576127a661276a565b604052919050565b5f6001600160401b038211156127c6576127c661276a565b5060051b60200190565b5f80604083850312156127e1575f80fd5b82356127ec8161252b565b91506020838101356001600160401b03811115612807575f80fd5b8401601f81018613612817575f80fd5b803561282a612825826127ae565b61277e565b81815260059190911b82018301908381019088831115612848575f80fd5b928401925b828410156128665783358252928401929084019061284d565b80955050505050509250929050565b604081525f612887604083018561255d565b8281036020840152612899818561255d565b95945050505050565b600181811c908216806128b657607f821691505b6020821081036108c457634e487b7160e01b5f52602260045260245ffd5b6020808252600e908201526d4f6e6c792050657269706865727960901b604082015260600190565b5f6020828403121561290c575f80fd5b815160ff81168114611b39575f80fd5b634e487b7160e01b5f52601160045260245ffd5b8181038181111561080e5761080e61291c565b808202811582820484141761080e5761080e61291c565b634e487b7160e01b5f52603260045260245ffd5b5f602080838503121561297f575f80fd5b82516001600160401b03811115612994575f80fd5b8301601f810185136129a4575f80fd5b80516129b2612825826127ae565b81815260059190911b820183019083810190878311156129d0575f80fd5b928401925b828410156129ee578351825292840192908401906129d5565b979650505050505050565b5f60208284031215612a09575f80fd5b5051919050565b5f82612a2a57634e487b7160e01b5f52601260045260245ffd5b500490565b5f60208284031215612a3f575f80fd5b8151611b398161252b565b5f60208284031215612a5a575f80fd5b81518015158114611b39575f80fd5b8082018082111561080e5761080e61291c565b60e081525f612a8e60e083018a61255d565b8281036020840152612aa0818a612629565b90508281036040840152612ab4818961255d565b606084019790975250506001600160a01b03938416608082015291831660a083015290911660c090910152939250505056fea2646970667358221220f48e1c149641f572dd75e8c2b3b4212a3671e11e87f400da784649283d04baf564736f6c63430008190033",
    "sourcePath": "c:/Users/Utente/Source/repos/baluni-contracts/contracts/BaluniV1Pool.sol",
    "compiler": {
        "name": "solc",
        "version": "0.8.25+commit.b61c2a91"
    },
    "functionHashes": {
        "ONE()": "c2ee3a08",
        "SWAP_FEE_BPS()": "67a6c440",
        "allowance(address,address)": "dd62ed3e",
        "approve(address,uint256)": "095ea7b3",
        "assetInfos(uint256)": "d14ef46d",
        "assetLiquidity(uint256)": "cf8fa764",
        "balanceOf(address)": "70a08231",
        "baseAsset()": "cdf456e1",
        "burn(address)": "89afcb44",
        "computeTotalValuation()": "36bf6e39",
        "decimals()": "313ce567",
        "factory()": "c45a0155",
        "getAmountOut(address,address,uint256)": "4aa06652",
        "getAssetReserve(address)": "b2b55d70",
        "getAssets()": "67e4ac2c",
        "getDeviation()": "89ab3532",
        "getReserves()": "0902f1ac",
        "getWeights()": "22acb867",
        "isRebalanceNeeded()": "8a77c8dc",
        "liquidity()": "1a686502",
        "mint(address,uint256[])": "de836ebd",
        "name()": "06fdde03",
        "performRebalanceIfNeeded()": "f47b45e8",
        "periphery()": "77aace1a",
        "rebalanceWeights(address)": "0723c999",
        "rebalancer()": "01d22ccd",
        "swap(address,address,uint256,address)": "6e81221c",
        "symbol()": "95d89b41",
        "totalSupply()": "18160ddd",
        "transfer(address,uint256)": "a9059cbb",
        "transferFrom(address,address,uint256)": "23b872dd",
        "trigger()": "7fec8d38",
        "unitPrice()": "e73faa2d"
    },
    "gasEstimates": {
        "creation": {
            "codeDepositCost": "2207200",
            "executionCost": "infinite",
            "totalCost": "infinite"
        },
        "external": {
            "ONE()": "2339",
            "SWAP_FEE_BPS()": "239",
            "allowance(address,address)": "infinite",
            "approve(address,uint256)": "24752",
            "assetInfos(uint256)": "6814",
            "assetLiquidity(uint256)": "infinite",
            "balanceOf(address)": "2642",
            "baseAsset()": "2414",
            "burn(address)": "infinite",
            "computeTotalValuation()": "infinite",
            "decimals()": "244",
            "factory()": "2392",
            "getAmountOut(address,address,uint256)": "infinite",
            "getAssetReserve(address)": "infinite",
            "getAssets()": "infinite",
            "getDeviation()": "infinite",
            "getReserves()": "infinite",
            "getWeights()": "infinite",
            "isRebalanceNeeded()": "infinite",
            "liquidity()": "infinite",
            "mint(address,uint256[])": "infinite",
            "name()": "infinite",
            "performRebalanceIfNeeded()": "infinite",
            "periphery()": "2371",
            "rebalanceWeights(address)": "infinite",
            "rebalancer()": "2372",
            "swap(address,address,uint256,address)": "infinite",
            "symbol()": "infinite",
            "totalSupply()": "2348",
            "transfer(address,uint256)": "51299",
            "transferFrom(address,address,uint256)": "infinite",
            "trigger()": "2362",
            "unitPrice()": "infinite"
        },
        "internal": {
            "_calculateAmountsToAdd(uint256,uint256[] memory)": "infinite",
            "_calculateLiquidity(uint256,uint256)": "infinite",
            "_calculateTotalAddedLiquidity(uint256[] memory)": "infinite",
            "_computeTotalValuation()": "infinite",
            "_convertBaseToToken(address,uint256)": "infinite",
            "_convertTokenToBase(address,uint256)": "infinite",
            "_getTargetWeight(address)": "infinite",
            "_performRebalanceIfNeeded()": "infinite",
            "initializeAssets(address[] memory,uint256[] memory)": "infinite",
            "max(uint8,uint8)": "infinite",
            "min(uint8,uint8)": "infinite"
        }
    }
}