{
    "contractName": "BaluniV1Agent",
    "abi": [
        {
            "inputs": [
                {
                    "internalType": "address",
                    "name": "_factory",
                    "type": "address"
                }
            ],
            "stateMutability": "nonpayable",
            "type": "constructor"
        },
        {
            "inputs": [
                {
                    "components": [
                        {
                            "internalType": "address",
                            "name": "to",
                            "type": "address"
                        },
                        {
                            "internalType": "uint256",
                            "name": "value",
                            "type": "uint256"
                        },
                        {
                            "internalType": "bytes",
                            "name": "data",
                            "type": "bytes"
                        }
                    ],
                    "internalType": "struct BaluniV1Agent.Call[]",
                    "name": "calls",
                    "type": "tuple[]"
                },
                {
                    "internalType": "address[]",
                    "name": "tokensReturn",
                    "type": "address[]"
                }
            ],
            "name": "execute",
            "outputs": [],
            "stateMutability": "nonpayable",
            "type": "function"
        },
        {
            "inputs": [],
            "name": "getFactory",
            "outputs": [
                {
                    "internalType": "address",
                    "name": "",
                    "type": "address"
                }
            ],
            "stateMutability": "view",
            "type": "function"
        },
        {
            "inputs": [],
            "name": "getRouter",
            "outputs": [
                {
                    "internalType": "address",
                    "name": "",
                    "type": "address"
                }
            ],
            "stateMutability": "view",
            "type": "function"
        },
        {
            "inputs": [
                {
                    "internalType": "address",
                    "name": "_owner",
                    "type": "address"
                },
                {
                    "internalType": "address",
                    "name": "_registry",
                    "type": "address"
                }
            ],
            "name": "initialize",
            "outputs": [],
            "stateMutability": "nonpayable",
            "type": "function"
        },
        {
            "inputs": [],
            "name": "owner",
            "outputs": [
                {
                    "internalType": "address",
                    "name": "",
                    "type": "address"
                }
            ],
            "stateMutability": "view",
            "type": "function"
        },
        {
            "inputs": [],
            "name": "registry",
            "outputs": [
                {
                    "internalType": "contract IBaluniV1Registry",
                    "name": "",
                    "type": "address"
                }
            ],
            "stateMutability": "view",
            "type": "function"
        }
    ],
    "bytecode": "6080604052348015600e575f80fd5b50604051610d7b380380610d7b833981016040819052602b91604f565b600180546001600160a01b0319166001600160a01b0392909216919091179055607a565b5f60208284031215605e575f80fd5b81516001600160a01b03811681146073575f80fd5b9392505050565b610cf4806100875f395ff3fe608060405234801561000f575f80fd5b5060043610610060575f3560e01c8063485cc955146100645780637b1039991461007957806388cc58e4146100a85780638da5cb5b146100b9578063b0f479a1146100cb578063eedc3c50146100d3575b5f80fd5b61007761007236600461094b565b6100e6565b005b60025461008c906001600160a01b031681565b6040516001600160a01b03909116815260200160405180910390f35b6001546001600160a01b031661008c565b5f5461008c906001600160a01b031681565b61008c610170565b6100776100e1366004610a88565b6101e0565b5f546001600160a01b0316156101395760405162461bcd60e51b8152602060048201526013602482015272105b1c9958591e481a5b9a5d1a585b1a5e9959606a1b60448201526064015b60405180910390fd5b5f80546001600160a01b039384166001600160a01b0319918216179091556001805482163317905560028054929093169116179055565b600254604080516304cc732560e01b815290515f926001600160a01b0316916304cc73259160048083019260209291908290030181865afa1580156101b7573d5f803e3d5ffd5b505050506040513d601f19601f820116820180604052508101906101db9190610bf4565b905090565b600254604080516304cc732560e01b815290515f926001600160a01b0316916304cc73259160048083019260209291908290030181865afa158015610227573d5f803e3d5ffd5b505050506040513d601f19601f8201168201806040525081019061024b9190610bf4565b9050336001600160a01b038216146102a55760405162461bcd60e51b815260206004820152601b60248201527f43616c6c61626c65206f6e6c792062792074686520726f7574657200000000006044820152606401610130565b5f5b83518110156103ad575f8482815181106102c3576102c3610c16565b60200260200101515f01516001600160a01b03168583815181106102e9576102e9610c16565b60200260200101516020015186848151811061030757610307610c16565b6020026020010151604001516040516103209190610c2a565b5f6040518083038185875af1925050503d805f811461035a576040519150601f19603f3d011682016040523d82523d5f602084013e61035f565b606091505b50509050806103a45760405162461bcd60e51b815260206004820152601160248201527010985d18da0818d85b1b0819985a5b1959607a1b6044820152606401610130565b506001016102a7565b506103b7826103c5565b6103c0826106ac565b505050565b600254604080516304cc732560e01b815290515f926001600160a01b0316916304cc73259160048083019260209291908290030181865afa15801561040c573d5f803e3d5ffd5b505050506040513d601f19601f820116820180604052508101906104309190610bf4565b90505f8060025f9054906101000a90046001600160a01b03166001600160a01b03166385462d6f6040518163ffffffff1660e01b8152600401602060405180830381865afa158015610484573d5f803e3d5ffd5b505050506040513d601f19601f820116820180604052508101906104a89190610c40565b90505f60025f9054906101000a90046001600160a01b03166001600160a01b0316634f4608a26040518163ffffffff1660e01b8152600401602060405180830381865afa1580156104fb573d5f803e3d5ffd5b505050506040513d601f19601f8201168201806040525081019061051f9190610c40565b90505f5b85518110156106a4575f86828151811061053f5761053f610c16565b6020026020010151905073eeeeeeeeeeeeeeeeeeeeeeeeeeeeeeeeeeeeeeee6001600160a01b0316816001600160a01b0316036105a557826105818547610c57565b61058b9190610c80565b94506105a06001600160a01b0387168661081f565b61069b565b6040516370a0823160e01b81523060048201525f906001600160a01b038316906370a0823190602401602060405180830381865afa1580156105e9573d5f803e3d5ffd5b505050506040513d601f19601f8201168201806040525081019061060d9190610c40565b90508361061a8683610c57565b6106249190610c80565b60405163a9059cbb60e01b81526001600160a01b038981166004830152602482018390529197509083169063a9059cbb906044016020604051808303815f875af1158015610674573d5f803e3d5ffd5b505050506040513d601f19601f820116820180604052508101906106989190610c9f565b50505b50600101610523565b505050505050565b8051801561081b575f5b818110156103c0575f8382815181106106d1576106d1610c16565b6020026020010151905073eeeeeeeeeeeeeeeeeeeeeeeeeeeeeeeeeeeeeeee6001600160a01b0316816001600160a01b031603610728574715610723575f54610723906001600160a01b03164761081f565b610812565b6040516370a0823160e01b81523060048201525f906001600160a01b038316906370a0823190602401602060405180830381865afa15801561076c573d5f803e3d5ffd5b505050506040513d601f19601f820116820180604052508101906107909190610c40565b9050600a811115610810575f5460405163a9059cbb60e01b81526001600160a01b039182166004820152602481018390529083169063a9059cbb906044016020604051808303815f875af11580156107ea573d5f803e3d5ffd5b505050506040513d601f19601f8201168201806040525081019061080e9190610c9f565b505b505b506001016106b6565b5050565b8047101561086f5760405162461bcd60e51b815260206004820152601d60248201527f416464726573733a20696e73756666696369656e742062616c616e63650000006044820152606401610130565b5f826001600160a01b0316826040515f6040518083038185875af1925050503d805f81146108b8576040519150601f19603f3d011682016040523d82523d5f602084013e6108bd565b606091505b50509050806103c05760405162461bcd60e51b815260206004820152603a60248201527f416464726573733a20756e61626c6520746f2073656e642076616c75652c207260448201527f6563697069656e74206d617920686176652072657665727465640000000000006064820152608401610130565b6001600160a01b0381168114610948575f80fd5b50565b5f806040838503121561095c575f80fd5b823561096781610934565b9150602083013561097781610934565b809150509250929050565b634e487b7160e01b5f52604160045260245ffd5b6040516060810167ffffffffffffffff811182821017156109b9576109b9610982565b60405290565b604051601f8201601f1916810167ffffffffffffffff811182821017156109e8576109e8610982565b604052919050565b5f67ffffffffffffffff821115610a0957610a09610982565b5060051b60200190565b5f82601f830112610a22575f80fd5b81356020610a37610a32836109f0565b6109bf565b8083825260208201915060208460051b870101935086841115610a58575f80fd5b602086015b84811015610a7d578035610a7081610934565b8352918301918301610a5d565b509695505050505050565b5f8060408385031215610a99575f80fd5b823567ffffffffffffffff80821115610ab0575f80fd5b818501915085601f830112610ac3575f80fd5b81356020610ad3610a32836109f0565b82815260059290921b84018101918181019089841115610af1575f80fd5b8286015b84811015610bc757803586811115610b0b575f80fd5b8701601f196060828e0382011215610b21575f80fd5b610b29610996565b86830135610b3681610934565b8152604083013587820152606083013589811115610b52575f80fd5b8084019350508d603f840112610b66575f80fd5b8683013589811115610b7a57610b7a610982565b610b8a8884601f840116016109bf565b92508083528e888983870101011115610ba1575f80fd5b8060408501898501375f9083018801526040810191909152845250918301918301610af5565b5096505086013592505080821115610bdd575f80fd5b50610bea85828601610a13565b9150509250929050565b5f60208284031215610c04575f80fd5b8151610c0f81610934565b9392505050565b634e487b7160e01b5f52603260045260245ffd5b5f82518060208501845e5f920191825250919050565b5f60208284031215610c50575f80fd5b5051919050565b8082028115828204841417610c7a57634e487b7160e01b5f52601160045260245ffd5b92915050565b5f82610c9a57634e487b7160e01b5f52601260045260245ffd5b500490565b5f60208284031215610caf575f80fd5b81518015158114610c0f575f80fdfea2646970667358221220791b389b4f7524b50d6362708e834db8024c0bb63f76a0d3b64c9495dc4fa9c164736f6c63430008190033",
    "sourcePath": "c:/Users/Utente/Source/repos/baluni-contracts/contracts/BaluniV1Agent.sol",
    "compiler": {
        "name": "solc",
        "version": "0.8.25+commit.b61c2a91"
    },
    "functionHashes": {
        "execute((address,uint256,bytes)[],address[])": "eedc3c50",
        "getFactory()": "88cc58e4",
        "getRouter()": "b0f479a1",
        "initialize(address,address)": "485cc955",
        "owner()": "8da5cb5b",
        "registry()": "7b103999"
    },
    "gasEstimates": {
        "creation": {
            "codeDepositCost": "663200",
            "executionCost": "infinite",
            "totalCost": "infinite"
        },
        "external": {
            "execute((address,uint256,bytes)[],address[])": "infinite",
            "getFactory()": "2340",
            "getRouter()": "infinite",
            "initialize(address,address)": "infinite",
            "owner()": "2367",
            "registry()": "2324"
        },
        "internal": {
            "_chargeFees(address[] memory)": "infinite",
            "_returnTokens(address[] memory)": "infinite"
        }
    }
}