{
    "contractName": "BaluniV1Pool",
    "abi": [
        {
            "inputs": [
                {
                    "internalType": "address",
                    "name": "_rebalancer",
                    "type": "address"
                },
                {
                    "internalType": "address[]",
                    "name": "_assets",
                    "type": "address[]"
                },
                {
                    "internalType": "uint256[]",
                    "name": "_weights",
                    "type": "uint256[]"
                },
                {
                    "internalType": "uint256",
                    "name": "_trigger",
                    "type": "uint256"
                }
            ],
            "stateMutability": "nonpayable",
            "type": "constructor"
        },
        {
            "inputs": [
                {
                    "internalType": "address",
                    "name": "spender",
                    "type": "address"
                },
                {
                    "internalType": "uint256",
                    "name": "allowance",
                    "type": "uint256"
                },
                {
                    "internalType": "uint256",
                    "name": "needed",
                    "type": "uint256"
                }
            ],
            "name": "ERC20InsufficientAllowance",
            "type": "error"
        },
        {
            "inputs": [
                {
                    "internalType": "address",
                    "name": "sender",
                    "type": "address"
                },
                {
                    "internalType": "uint256",
                    "name": "balance",
                    "type": "uint256"
                },
                {
                    "internalType": "uint256",
                    "name": "needed",
                    "type": "uint256"
                }
            ],
            "name": "ERC20InsufficientBalance",
            "type": "error"
        },
        {
            "inputs": [
                {
                    "internalType": "address",
                    "name": "approver",
                    "type": "address"
                }
            ],
            "name": "ERC20InvalidApprover",
            "type": "error"
        },
        {
            "inputs": [
                {
                    "internalType": "address",
                    "name": "receiver",
                    "type": "address"
                }
            ],
            "name": "ERC20InvalidReceiver",
            "type": "error"
        },
        {
            "inputs": [
                {
                    "internalType": "address",
                    "name": "sender",
                    "type": "address"
                }
            ],
            "name": "ERC20InvalidSender",
            "type": "error"
        },
        {
            "inputs": [
                {
                    "internalType": "address",
                    "name": "spender",
                    "type": "address"
                }
            ],
            "name": "ERC20InvalidSpender",
            "type": "error"
        },
        {
            "inputs": [],
            "name": "ReentrancyGuardReentrantCall",
            "type": "error"
        },
        {
            "anonymous": false,
            "inputs": [
                {
                    "indexed": true,
                    "internalType": "address",
                    "name": "owner",
                    "type": "address"
                },
                {
                    "indexed": true,
                    "internalType": "address",
                    "name": "spender",
                    "type": "address"
                },
                {
                    "indexed": false,
                    "internalType": "uint256",
                    "name": "value",
                    "type": "uint256"
                }
            ],
            "name": "Approval",
            "type": "event"
        },
        {
            "anonymous": false,
            "inputs": [
                {
                    "indexed": true,
                    "internalType": "address",
                    "name": "user",
                    "type": "address"
                },
                {
                    "indexed": false,
                    "internalType": "uint256[]",
                    "name": "amounts",
                    "type": "uint256[]"
                },
                {
                    "indexed": false,
                    "internalType": "uint256",
                    "name": "sharesMinted",
                    "type": "uint256"
                }
            ],
            "name": "LiquidityAdded",
            "type": "event"
        },
        {
            "anonymous": false,
            "inputs": [
                {
                    "indexed": true,
                    "internalType": "address",
                    "name": "user",
                    "type": "address"
                },
                {
                    "indexed": false,
                    "internalType": "uint256[]",
                    "name": "amounts",
                    "type": "uint256[]"
                },
                {
                    "indexed": false,
                    "internalType": "uint256",
                    "name": "sharesBurned",
                    "type": "uint256"
                }
            ],
            "name": "LiquidityRemoved",
            "type": "event"
        },
        {
            "anonymous": false,
            "inputs": [
                {
                    "indexed": true,
                    "internalType": "address",
                    "name": "user",
                    "type": "address"
                },
                {
                    "indexed": false,
                    "internalType": "uint256",
                    "name": "asset1Amount",
                    "type": "uint256"
                },
                {
                    "indexed": false,
                    "internalType": "uint256",
                    "name": "asset2Amount",
                    "type": "uint256"
                },
                {
                    "indexed": false,
                    "internalType": "uint256",
                    "name": "sharesBurned",
                    "type": "uint256"
                }
            ],
            "name": "LiquidityRemoved",
            "type": "event"
        },
        {
            "anonymous": false,
            "inputs": [
                {
                    "indexed": true,
                    "internalType": "address",
                    "name": "by",
                    "type": "address"
                },
                {
                    "indexed": false,
                    "internalType": "address[]",
                    "name": "assets",
                    "type": "address[]"
                }
            ],
            "name": "RebalancePerformed",
            "type": "event"
        },
        {
            "anonymous": false,
            "inputs": [
                {
                    "indexed": true,
                    "internalType": "address",
                    "name": "user",
                    "type": "address"
                },
                {
                    "indexed": true,
                    "internalType": "address",
                    "name": "fromToken",
                    "type": "address"
                },
                {
                    "indexed": true,
                    "internalType": "address",
                    "name": "toToken",
                    "type": "address"
                },
                {
                    "indexed": false,
                    "internalType": "uint256",
                    "name": "amountIn",
                    "type": "uint256"
                },
                {
                    "indexed": false,
                    "internalType": "uint256",
                    "name": "amountOut",
                    "type": "uint256"
                }
            ],
            "name": "Swap",
            "type": "event"
        },
        {
            "anonymous": false,
            "inputs": [
                {
                    "indexed": true,
                    "internalType": "address",
                    "name": "from",
                    "type": "address"
                },
                {
                    "indexed": true,
                    "internalType": "address",
                    "name": "to",
                    "type": "address"
                },
                {
                    "indexed": false,
                    "internalType": "uint256",
                    "name": "value",
                    "type": "uint256"
                }
            ],
            "name": "Transfer",
            "type": "event"
        },
        {
            "inputs": [],
            "name": "ONE",
            "outputs": [
                {
                    "internalType": "uint256",
                    "name": "",
                    "type": "uint256"
                }
            ],
            "stateMutability": "view",
            "type": "function"
        },
        {
            "inputs": [],
            "name": "SWAP_FEE_BPS",
            "outputs": [
                {
                    "internalType": "uint256",
                    "name": "",
                    "type": "uint256"
                }
            ],
            "stateMutability": "view",
            "type": "function"
        },
        {
            "inputs": [
                {
                    "internalType": "uint256[]",
                    "name": "amounts",
                    "type": "uint256[]"
                }
            ],
            "name": "addLiquidity",
            "outputs": [
                {
                    "internalType": "uint256",
                    "name": "",
                    "type": "uint256"
                }
            ],
            "stateMutability": "nonpayable",
            "type": "function"
        },
        {
            "inputs": [
                {
                    "internalType": "contract IERC20",
                    "name": "asset",
                    "type": "address"
                },
                {
                    "internalType": "uint256",
                    "name": "amount",
                    "type": "uint256"
                }
            ],
            "name": "addLiquiditySingleAsset",
            "outputs": [
                {
                    "internalType": "uint256",
                    "name": "",
                    "type": "uint256"
                }
            ],
            "stateMutability": "nonpayable",
            "type": "function"
        },
        {
            "inputs": [
                {
                    "internalType": "address",
                    "name": "owner",
                    "type": "address"
                },
                {
                    "internalType": "address",
                    "name": "spender",
                    "type": "address"
                }
            ],
            "name": "allowance",
            "outputs": [
                {
                    "internalType": "uint256",
                    "name": "",
                    "type": "uint256"
                }
            ],
            "stateMutability": "view",
            "type": "function"
        },
        {
            "inputs": [
                {
                    "internalType": "address",
                    "name": "spender",
                    "type": "address"
                },
                {
                    "internalType": "uint256",
                    "name": "value",
                    "type": "uint256"
                }
            ],
            "name": "approve",
            "outputs": [
                {
                    "internalType": "bool",
                    "name": "",
                    "type": "bool"
                }
            ],
            "stateMutability": "nonpayable",
            "type": "function"
        },
        {
            "inputs": [
                {
                    "internalType": "uint256",
                    "name": "assetIndex",
                    "type": "uint256"
                }
            ],
            "name": "assetToStable",
            "outputs": [
                {
                    "internalType": "uint256",
                    "name": "",
                    "type": "uint256"
                }
            ],
            "stateMutability": "view",
            "type": "function"
        },
        {
            "inputs": [
                {
                    "internalType": "uint256",
                    "name": "",
                    "type": "uint256"
                }
            ],
            "name": "assets",
            "outputs": [
                {
                    "internalType": "address",
                    "name": "",
                    "type": "address"
                }
            ],
            "stateMutability": "view",
            "type": "function"
        },
        {
            "inputs": [
                {
                    "internalType": "address",
                    "name": "account",
                    "type": "address"
                }
            ],
            "name": "balanceOf",
            "outputs": [
                {
                    "internalType": "uint256",
                    "name": "",
                    "type": "uint256"
                }
            ],
            "stateMutability": "view",
            "type": "function"
        },
        {
            "inputs": [
                {
                    "internalType": "address",
                    "name": "",
                    "type": "address"
                }
            ],
            "name": "balances",
            "outputs": [
                {
                    "internalType": "uint256",
                    "name": "",
                    "type": "uint256"
                }
            ],
            "stateMutability": "view",
            "type": "function"
        },
        {
            "inputs": [
                {
                    "internalType": "address",
                    "name": "_newRebalancer",
                    "type": "address"
                }
            ],
            "name": "changeRebalancer",
            "outputs": [],
            "stateMutability": "nonpayable",
            "type": "function"
        },
        {
            "inputs": [],
            "name": "decimals",
            "outputs": [
                {
                    "internalType": "uint8",
                    "name": "",
                    "type": "uint8"
                }
            ],
            "stateMutability": "view",
            "type": "function"
        },
        {
            "inputs": [
                {
                    "internalType": "uint256",
                    "name": "share",
                    "type": "uint256"
                }
            ],
            "name": "exit",
            "outputs": [],
            "stateMutability": "nonpayable",
            "type": "function"
        },
        {
            "inputs": [],
            "name": "factory",
            "outputs": [
                {
                    "internalType": "address",
                    "name": "",
                    "type": "address"
                }
            ],
            "stateMutability": "view",
            "type": "function"
        },
        {
            "inputs": [
                {
                    "internalType": "address",
                    "name": "fromToken",
                    "type": "address"
                },
                {
                    "internalType": "address",
                    "name": "toToken",
                    "type": "address"
                },
                {
                    "internalType": "uint256",
                    "name": "amount",
                    "type": "uint256"
                }
            ],
            "name": "getAmountOut",
            "outputs": [
                {
                    "internalType": "uint256",
                    "name": "",
                    "type": "uint256"
                }
            ],
            "stateMutability": "view",
            "type": "function"
        },
        {
            "inputs": [],
            "name": "getAssets",
            "outputs": [
                {
                    "internalType": "address[]",
                    "name": "",
                    "type": "address[]"
                }
            ],
            "stateMutability": "view",
            "type": "function"
        },
        {
            "inputs": [],
            "name": "getDeviation",
            "outputs": [
                {
                    "internalType": "bool[]",
                    "name": "directions",
                    "type": "bool[]"
                },
                {
                    "internalType": "uint256[]",
                    "name": "deviations",
                    "type": "uint256[]"
                }
            ],
            "stateMutability": "view",
            "type": "function"
        },
        {
            "inputs": [],
            "name": "getReserves",
            "outputs": [
                {
                    "internalType": "uint256[]",
                    "name": "",
                    "type": "uint256[]"
                }
            ],
            "stateMutability": "view",
            "type": "function"
        },
        {
            "inputs": [],
            "name": "getUnitPriceStable",
            "outputs": [
                {
                    "internalType": "uint256",
                    "name": "",
                    "type": "uint256"
                }
            ],
            "stateMutability": "view",
            "type": "function"
        },
        {
            "inputs": [],
            "name": "getWeights",
            "outputs": [
                {
                    "internalType": "uint256[]",
                    "name": "",
                    "type": "uint256[]"
                }
            ],
            "stateMutability": "view",
            "type": "function"
        },
        {
            "inputs": [
                {
                    "internalType": "address",
                    "name": "asset",
                    "type": "address"
                }
            ],
            "name": "isAssetSupported",
            "outputs": [
                {
                    "internalType": "bool",
                    "name": "",
                    "type": "bool"
                }
            ],
            "stateMutability": "view",
            "type": "function"
        },
        {
            "inputs": [],
            "name": "name",
            "outputs": [
                {
                    "internalType": "string",
                    "name": "",
                    "type": "string"
                }
            ],
            "stateMutability": "view",
            "type": "function"
        },
        {
            "inputs": [
                {
                    "internalType": "address",
                    "name": "_sender",
                    "type": "address"
                }
            ],
            "name": "performRebalanceIfNeeded",
            "outputs": [],
            "stateMutability": "nonpayable",
            "type": "function"
        },
        {
            "inputs": [],
            "name": "rebalancer",
            "outputs": [
                {
                    "internalType": "contract IBaluniV1Rebalancer",
                    "name": "",
                    "type": "address"
                }
            ],
            "stateMutability": "view",
            "type": "function"
        },
        {
            "inputs": [
                {
                    "internalType": "address",
                    "name": "fromToken",
                    "type": "address"
                },
                {
                    "internalType": "address",
                    "name": "toToken",
                    "type": "address"
                },
                {
                    "internalType": "uint256",
                    "name": "amount",
                    "type": "uint256"
                }
            ],
            "name": "swap",
            "outputs": [
                {
                    "internalType": "uint256",
                    "name": "",
                    "type": "uint256"
                }
            ],
            "stateMutability": "nonpayable",
            "type": "function"
        },
        {
            "inputs": [],
            "name": "symbol",
            "outputs": [
                {
                    "internalType": "string",
                    "name": "",
                    "type": "string"
                }
            ],
            "stateMutability": "view",
            "type": "function"
        },
        {
            "inputs": [
                {
                    "internalType": "address",
                    "name": "token",
                    "type": "address"
                }
            ],
            "name": "totalLiquidityInToken",
            "outputs": [
                {
                    "internalType": "uint256",
                    "name": "",
                    "type": "uint256"
                }
            ],
            "stateMutability": "view",
            "type": "function"
        },
        {
            "inputs": [],
            "name": "totalLiquidityStable",
            "outputs": [
                {
                    "internalType": "uint256",
                    "name": "",
                    "type": "uint256"
                }
            ],
            "stateMutability": "view",
            "type": "function"
        },
        {
            "inputs": [],
            "name": "totalSupply",
            "outputs": [
                {
                    "internalType": "uint256",
                    "name": "",
                    "type": "uint256"
                }
            ],
            "stateMutability": "view",
            "type": "function"
        },
        {
            "inputs": [
                {
                    "internalType": "address",
                    "name": "to",
                    "type": "address"
                },
                {
                    "internalType": "uint256",
                    "name": "value",
                    "type": "uint256"
                }
            ],
            "name": "transfer",
            "outputs": [
                {
                    "internalType": "bool",
                    "name": "",
                    "type": "bool"
                }
            ],
            "stateMutability": "nonpayable",
            "type": "function"
        },
        {
            "inputs": [
                {
                    "internalType": "address",
                    "name": "from",
                    "type": "address"
                },
                {
                    "internalType": "address",
                    "name": "to",
                    "type": "address"
                },
                {
                    "internalType": "uint256",
                    "name": "value",
                    "type": "uint256"
                }
            ],
            "name": "transferFrom",
            "outputs": [
                {
                    "internalType": "bool",
                    "name": "",
                    "type": "bool"
                }
            ],
            "stateMutability": "nonpayable",
            "type": "function"
        },
        {
            "inputs": [],
            "name": "trigger",
            "outputs": [
                {
                    "internalType": "uint256",
                    "name": "",
                    "type": "uint256"
                }
            ],
            "stateMutability": "view",
            "type": "function"
        },
        {
            "inputs": [
                {
                    "internalType": "uint256",
                    "name": "",
                    "type": "uint256"
                }
            ],
            "name": "weights",
            "outputs": [
                {
                    "internalType": "uint256",
                    "name": "",
                    "type": "uint256"
                }
            ],
            "stateMutability": "view",
            "type": "function"
        }
    ],
    "bytecode": "6080604052670de0b6b3a7640000600a5534801561001b575f80fd5b5060405161304838038061304883398101604081905261003a91610483565b60405180604001604052806009815260200168042616c756e69204c560bc1b81525060405180604001604052806009815260200168042414c554e492d4c560bc1b815250816003908161008d91906105dc565b50600461009a82826105dc565b5050600160055550600b8054336001600160a01b031991821617909155600680549091166001600160a01b038616179055600780546100db919081906102fd565b5081516100ef906008906020850190610349565b505f5b6007548110156102f0575f6001600160a01b0316600782815481106101195761011961069b565b5f918252602090912001546001600160a01b03160361017f5760405162461bcd60e51b815260206004820152601560248201527f496e76616c69642061737365742061646472657373000000000000000000000060448201526064015b60405180910390fd5b5f8382815181106101925761019261069b565b6020026020010151116101d85760405162461bcd60e51b815260206004820152600e60248201526d125b9d985b1a59081dd95a59da1d60921b6044820152606401610176565b5f600782815481106101ec576101ec61069b565b5f91825260209091200154600654604051636eb1769f60e11b81523060048201526001600160a01b03918216602482015291169150819063dd62ed3e90604401602060405180830381865afa158015610247573d5f803e3d5ffd5b505050506040513d601f19601f8201168201806040525081019061026b91906106af565b5f036102e75760065460405163095ea7b360e01b81526001600160a01b0391821660048201525f1960248201529082169063095ea7b3906044016020604051808303815f875af11580156102c1573d5f803e3d5ffd5b505050506040513d601f19601f820116820180604052508101906102e591906106c6565b505b506001016100f2565b50600955506106ec915050565b828054828255905f5260205f20908101928215610339575f5260205f209182015b8281111561033957825482559160010191906001019061031e565b50610345929150610382565b5090565b828054828255905f5260205f20908101928215610339579160200282015b82811115610339578251825591602001919060010190610367565b5b80821115610345575f8155600101610383565b80516001600160a01b03811681146103ac575f80fd5b919050565b634e487b7160e01b5f52604160045260245ffd5b604051601f8201601f191681016001600160401b03811182821017156103ed576103ed6103b1565b604052919050565b5f6001600160401b0382111561040d5761040d6103b1565b5060051b60200190565b5f82601f830112610426575f80fd5b8151602061043b610436836103f5565b6103c5565b8083825260208201915060208460051b87010193508684111561045c575f80fd5b602086015b848110156104785780518352918301918301610461565b509695505050505050565b5f805f8060808587031215610496575f80fd5b61049f85610396565b602086810151919550906001600160401b03808211156104bd575f80fd5b818801915088601f8301126104d0575f80fd5b81516104de610436826103f5565b81815260059190911b8301840190848101908b8311156104fc575f80fd5b938501935b828510156105215761051285610396565b82529385019390850190610501565b60408b01519098509450505080831115610539575f80fd5b505061054787828801610417565b606096909601519497939650505050565b600181811c9082168061056c57607f821691505b60208210810361058a57634e487b7160e01b5f52602260045260245ffd5b50919050565b601f8211156105d757805f5260205f20601f840160051c810160208510156105b55750805b601f840160051c820191505b818110156105d4575f81556001016105c1565b50505b505050565b81516001600160401b038111156105f5576105f56103b1565b610609816106038454610558565b84610590565b602080601f83116001811461063c575f84156106255750858301515b5f19600386901b1c1916600185901b178555610693565b5f85815260208120601f198616915b8281101561066a5788860151825594840194600190910190840161064b565b508582101561068757878501515f19600388901b60f8161c191681555b505060018460011b0185555b505050505050565b634e487b7160e01b5f52603260045260245ffd5b5f602082840312156106bf575f80fd5b5051919050565b5f602082840312156106d6575f80fd5b815180151581146106e5575f80fd5b9392505050565b61294f806106f95f395ff3fe608060405234801561000f575f80fd5b50600436106101f2575f3560e01c806367e4ac2c11610114578063a9059cbb116100a9578063cf35bdd011610079578063cf35bdd014610413578063d968226d14610426578063dd62ed3e14610439578063df791e5014610471578063e788e60914610484575f80fd5b8063a9059cbb146103d1578063b5f163ff146103e4578063c2ee3a08146103f7578063c45a015514610400575f80fd5b80637fec8d38116100e45780637fec8d381461039757806389ab3532146103a057806394edacac146103b657806395d89b41146103c9575f80fd5b806367e4ac2c1461033f5780636dc16abb1461035457806370a082311461035c5780637f8661a114610384575f80fd5b806327e235e31161018a5780634aa066521161015a5780634aa06652146102fe5780634de59aa3146103115780635568081a1461032457806367a6c44014610337575f80fd5b806327e235e3146102b5578063313ce567146102d45780633fcec715146102e3578063464b4158146102eb575f80fd5b8063095ea7b3116101c5578063095ea7b31461026557806318160ddd1461028857806322acb8671461029a57806323b872dd146102a2575f80fd5b806301d22ccd146101f657806306fdde03146102265780630902f1ac1461023b5780630918281b14610250575b5f80fd5b600654610209906001600160a01b031681565b6040516001600160a01b0390911681526020015b60405180910390f35b61022e610497565b60405161021d9190612311565b610243610527565b60405161021d9190612380565b61026361025e3660046123a6565b61062f565b005b6102786102733660046123c1565b61069f565b604051901515815260200161021d565b6002545b60405190815260200161021d565b6102436106b8565b6102786102b03660046123eb565b61070d565b61028c6102c33660046123a6565b600c6020525f908152604090205481565b6040516012815260200161021d565b61028c610732565b6102786102f93660046123a6565b610743565b61028c61030c3660046123eb565b61079f565b61028c61031f366004612429565b61085d565b6102636103323660046123a6565b610c56565b61028c601e81565b610347610ce8565b60405161021d9190612498565b61028c610d47565b61028c61036a3660046123a6565b6001600160a01b03165f9081526020819052604090205490565b6102636103923660046124e4565b610d8f565b61028c60095481565b6103a8611087565b60405161021d9291906124fb565b61028c6103c43660046123c1565b61123b565b61022e611581565b6102786103df3660046123c1565b611590565b61028c6103f23660046124e4565b61159d565b61028c600a5481565b600b54610209906001600160a01b031681565b6102096104213660046124e4565b6115bc565b61028c6104343660046123a6565b6115e4565b61028c61044736600461254a565b6001600160a01b039182165f90815260016020908152604080832093909416825291909152205490565b61028c61047f3660046123eb565b611703565b61028c6104923660046124e4565b6119af565b6060600380546104a690612581565b80601f01602080910402602001604051908101604052809291908181526020018280546104d290612581565b801561051d5780601f106104f45761010080835404028352916020019161051d565b820191905f5260205f20905b81548152906001019060200180831161050057829003601f168201915b5050505050905090565b6007546060905f9067ffffffffffffffff811115610547576105476125b3565b604051908082528060200260200182016040528015610570578160200160208202803683370190505b5090505f5b6007548110156106295760078181548110610592576105926125c7565b5f918252602090912001546040516370a0823160e01b81523060048201526001600160a01b03909116906370a0823190602401602060405180830381865afa1580156105e0573d5f803e3d5ffd5b505050506040513d601f19601f8201168201806040525081019061060491906125db565b828281518110610616576106166125c7565b6020908102919091010152600101610575565b50919050565b600b546001600160a01b0316331461067d5760405162461bcd60e51b815260206004820152600c60248201526b4f6e6c7920466163746f727960a01b60448201526064015b60405180910390fd5b600680546001600160a01b0319166001600160a01b0392909216919091179055565b5f336106ac818585611a24565b60019150505b92915050565b6060600880548060200260200160405190810160405280929190818152602001828054801561051d57602002820191905f5260205f20905b8154815260200190600101908083116106f0575050505050905090565b5f3361071a858285611a36565b610725858585611ab1565b60019150505b9392505050565b5f8061073c611b0e565b5092915050565b5f805b60075481101561079757826001600160a01b03166007828154811061076d5761076d6125c7565b5f918252602090912001546001600160a01b03160361078f5750600192915050565b600101610746565b505f92915050565b5f826001600160a01b0316846001600160a01b0316036108015760405162461bcd60e51b815260206004820152601a60248201527f43616e6e6f742073776170207468652073616d6520746f6b656e0000000000006044820152606401610674565b5f82116108205760405162461bcd60e51b8152600401610674906125f2565b5f61271061082f601e8561263b565b6108399190612652565b90505f6108468285612671565b9050610853868683611dfc565b9695505050505050565b5f610866611fdb565b60075482146108b75760405162461bcd60e51b815260206004820152601760248201527f416d6f756e7473206c656e677468206d69736d617463680000000000000000006044820152606401610674565b5f6108c160025490565b90505f805b600754811015610afa575f600782815481106108e4576108e46125c7565b5f9182526020822001546001600160a01b0316915087878481811061090b5761090b6125c7565b9050602002013590505f81116109335760405162461bcd60e51b8152600401610674906125f2565b6040516323b872dd60e01b8152336004820152306024820152604481018290526001600160a01b038316906323b872dd906064016020604051808303815f875af1158015610983573d5f803e3d5ffd5b505050506040513d601f19601f820116820180604052508101906109a79190612684565b506001600160a01b0382165f908152600c6020526040812080548392906109cf9084906126a3565b925050819055505f826001600160a01b031663313ce5676040518163ffffffff1660e01b8152600401602060405180830381865afa158015610a13573d5f803e3d5ffd5b505050506040513d601f19601f82011682018060405250810190610a3791906126b6565b90505f610a458260126126d6565b610a5090600a6127cf565b905060075f81548110610a6557610a656125c7565b5f918252602090912001546001600160a01b0390811690851603610a9e57610a8d818461263b565b610a9790876126a3565b9550610aea565b5f610ad08560075f81548110610ab657610ab66125c7565b5f918252602090912001546001600160a01b031686611dfc565b9050610adc828261263b565b610ae690886126a3565b9650505b5050600190920191506108c69050565b505f825f03610bae5760075f81548110610b1657610b166125c7565b5f91825260209182902001546040805163313ce56760e01b815290516001600160a01b039092169263313ce567926004808401938290030181865afa158015610b61573d5f803e3d5ffd5b505050506040513d601f19601f82011682018060405250810190610b8591906126b6565b610b9090600a6127cf565b600a54610b9d908461263b565b610ba79190612652565b9050610bf9565b5f610bde60075f81548110610bc557610bc56125c7565b5f918252602090912001546001600160a01b03166115e4565b905080610beb858561263b565b610bf59190612652565b9150505b610c033382612005565b336001600160a01b03167fb60e972ce1258a7280a8e34204b1df88fcabbe8aea805e46bc1566cdc6e6e148878784604051610c40939291906127dd565b60405180910390a2925050506106b26001600555565b5f612710610c6360025490565b610c6f906103e861263b565b610c799190612652565b905080610c9a836001600160a01b03165f9081526020819052604090205490565b1015610cdc5760405162461bcd60e51b8152602060048201526011602482015270556e646572203525204c5020736861726560781b6044820152606401610674565b610ce4612039565b5050565b6060600780548060200260200160405190810160405280929190818152602001828054801561051d57602002820191905f5260205f20905b81546001600160a01b03168152600190910190602001808311610d20575050505050905090565b5f80610d51611b0e565b5090505f610d5e60025490565b9050805f03610d6f575f9250505090565b80600a5483610d7e919061263b565b610d889190612652565b9250505090565b610d97611fdb565b335f90815260208190526040902054811115610dea5760405162461bcd60e51b8152602060048201526012602482015271496e73756666696369656e7420736861726560701b6044820152606401610674565b5f610df460025490565b90505f8111610e345760405162461bcd60e51b815260206004820152600c60248201526b4e6f206c697175696469747960a01b6044820152606401610674565b6007545f9067ffffffffffffffff811115610e5157610e516125b3565b604051908082528060200260200182016040528015610e7a578160200160208202803683370190505b5090505f5b600754811015610f4c575f60078281548110610e9d57610e9d6125c7565b5f918252602090912001546040516370a0823160e01b81523060048201526001600160a01b03909116906370a0823190602401602060405180830381865afa158015610eeb573d5f803e3d5ffd5b505050506040513d601f19601f82011682018060405250810190610f0f91906125db565b905083610f1c868361263b565b610f269190612652565b838381518110610f3857610f386125c7565b602090810291909101015250600101610e7f565b50610f5733846120e5565b5f5b6007548110156110345760078181548110610f7657610f766125c7565b905f5260205f20015f9054906101000a90046001600160a01b03166001600160a01b031663a9059cbb33848481518110610fb257610fb26125c7565b60200260200101516040518363ffffffff1660e01b8152600401610feb9291906001600160a01b03929092168252602082015260400190565b6020604051808303815f875af1158015611007573d5f803e3d5ffd5b505050506040513d601f19601f8201168201806040525081019061102b9190612684565b50600101610f59565b50336001600160a01b03167f0f74fe264fb7d04b4800409b8a3562eb271296e19c3ec8835639635b3e858c458285604051611070929190612819565b60405180910390a250506110846001600555565b50565b6060805f80611094611b0e565b60075491935091508067ffffffffffffffff8111156110b5576110b56125b3565b6040519080825280602002602001820160405280156110de578160200160208202803683370190505b5094508067ffffffffffffffff8111156110fa576110fa6125b3565b604051908082528060200260200182016040528015611123578160200160208202803683370190505b5093505f5b81811015611233575f84848381518110611144576111446125c7565b6020026020010151612710611159919061263b565b6111639190612652565b90505f60088381548110611179576111796125c7565b905f5260205f2001549050808211156111dd576111968183612671565b8784815181106111a8576111a86125c7565b60200260200101818152505060018884815181106111c8576111c86125c7565b91151560209283029190910190910152611229565b6111e78282612671565b8784815181106111f9576111f96125c7565b6020026020010181815250505f888481518110611218576112186125c7565b911515602092830291909101909101525b5050600101611128565b505050509091565b5f611244611fdb565b5f82116112635760405162461bcd60e51b8152600401610674906125f2565b61126c83610743565b6112ac5760405162461bcd60e51b8152602060048201526011602482015270155b9cdd5c1c1bdc9d195908185cdcd95d607a1b6044820152606401610674565b6040516323b872dd60e01b8152336004820152306024820152604481018390526001600160a01b038416906323b872dd906064016020604051808303815f875af11580156112fc573d5f803e3d5ffd5b505050506040513d601f19601f820116820180604052508101906113209190612684565b505f60075f81548110611335576113356125c7565b5f918252602090912001546001600160a01b03908116908516036113da57836001600160a01b031663313ce5676040518163ffffffff1660e01b8152600401602060405180830381865afa15801561138f573d5f803e3d5ffd5b505050506040513d601f19601f820116820180604052508101906113b391906126b6565b6113be9060126126d6565b6113c990600a6127cf565b6113d3908461263b565b905061140e565b61140b8460075f815481106113f1576113f16125c7565b5f918252602090912001546001600160a01b031685611dfc565b90505b5f61141860025490565b90505f815f036114cd5760075f81548110611435576114356125c7565b5f91825260209182902001546040805163313ce56760e01b815290516001600160a01b039092169263313ce567926004808401938290030181865afa158015611480573d5f803e3d5ffd5b505050506040513d601f19601f820116820180604052508101906114a491906126b6565b6114af90600a6127cf565b600a546114bc908561263b565b6114c69190612652565b90506114ff565b5f6114e460075f81548110610bc557610bc56125c7565b9050806114f1848661263b565b6114fb9190612652565b9150505b6115093382612005565b60075433907fb60e972ce1258a7280a8e34204b1df88fcabbe8aea805e46bc1566cdc6e6e1489067ffffffffffffffff811115611548576115486125b3565b604051908082528060200260200182016040528015611571578160200160208202803683370190505b5083604051610c40929190612819565b6060600480546104a690612581565b5f336106ac818585611ab1565b600881815481106115ac575f80fd5b5f91825260209091200154905081565b600781815481106115cb575f80fd5b5f918252602090912001546001600160a01b0316905081565b5f80805b60075481101561073c575f60078281548110611606576116066125c7565b5f9182526020808320909101546001600160a01b0316808352600c8252604080842054815163313ce56760e01b815291519295509392859263313ce5679260048082019392918290030181865afa158015611663573d5f803e3d5ffd5b505050506040513d601f19601f8201168201806040525081019061168791906126b6565b90505f6116958260126126d6565b6116a090600a6127cf565b90505f886001600160a01b0316856001600160a01b0316036116cd576116c6828561263b565b90506116e6565b816116d9868b87611dfc565b6116e3919061263b565b90505b6116f081886126a3565b965050600190940193506115e892505050565b5f61170c611fdb565b826001600160a01b0316846001600160a01b03160361176d5760405162461bcd60e51b815260206004820152601a60248201527f43616e6e6f742073776170207468652073616d6520746f6b656e0000000000006044820152606401610674565b5f821161178c5760405162461bcd60e51b8152600401610674906125f2565b6040516323b872dd60e01b8152336004820152306024820152604481018390526001600160a01b038516906323b872dd906064016020604051808303815f875af11580156117dc573d5f803e3d5ffd5b505050506040513d601f19601f820116820180604052508101906118009190612684565b505f612710611810601e8561263b565b61181a9190612652565b90505f6118278285612671565b90505f611835878784611dfc565b6040516370a0823160e01b815230600482015290915081906001600160a01b038816906370a0823190602401602060405180830381865afa15801561187c573d5f803e3d5ffd5b505050506040513d601f19601f820116820180604052508101906118a091906125db565b10156118e75760405162461bcd60e51b8152602060048201526016602482015275496e73756666696369656e74204c697175696469747960501b6044820152606401610674565b60405163a9059cbb60e01b8152336004820152602481018290526001600160a01b0387169063a9059cbb906044016020604051808303815f875af1158015611931573d5f803e3d5ffd5b505050506040513d601f19601f820116820180604052508101906119559190612684565b5060408051868152602081018390526001600160a01b0380891692908a169133917fcd3829a3813dc3cdd188fd3d01dcf3268c16be2fdd2dd21d0665418816e46062910160405180910390a49250505061072b6001600555565b5f806119b9611b0e565b91505080518310611a025760405162461bcd60e51b8152602060048201526013602482015272092dcecc2d8d2c840c2e6e6cae840d2dcc8caf606b1b6044820152606401610674565b808381518110611a1457611a146125c7565b6020026020010151915050919050565b611a318383836001612119565b505050565b6001600160a01b038381165f908152600160209081526040808320938616835292905220545f198114611aab5781811015611a9d57604051637dc7a0d960e11b81526001600160a01b03841660048201526024810182905260448101839052606401610674565b611aab84848484035f612119565b50505050565b6001600160a01b038316611ada57604051634b637e8f60e11b81525f6004820152602401610674565b6001600160a01b038216611b035760405163ec442f0560e01b81525f6004820152602401610674565b611a318383836121eb565b6007545f906060908067ffffffffffffffff811115611b2f57611b2f6125b3565b604051908082528060200260200182016040528015611b58578160200160208202803683370190505b5091505f60065f9054906101000a90046001600160a01b03166001600160a01b03166304cc73256040518163ffffffff1660e01b8152600401602060405180830381865afa158015611bac573d5f803e3d5ffd5b505050506040513d601f19601f82011682018060405250810190611bd0919061283a565b90505f5b82811015611df5575f60078281548110611bf057611bf06125c7565b5f9182526020808320909101546040805163313ce56760e01b815290516001600160a01b039092169450849263313ce567926004808401938290030181865afa158015611c3f573d5f803e3d5ffd5b505050506040513d601f19601f82011682018060405250810190611c6391906126b6565b90505f6001600160a01b038516632bdd955a611c8084600a6127cf565b611c8b90600161263b565b6040516001600160e01b031960e084901b16815260048101919091526001600160a01b0386166024820152604401602060405180830381865afa158015611cd4573d5f803e3d5ffd5b505050506040513d601f19601f82011682018060405250810190611cf891906125db565b90505f611d068360126126d6565b611d1190600a6127cf565b600a546040516370a0823160e01b815230600482015291925090839083906001600160a01b038816906370a0823190602401602060405180830381865afa158015611d5e573d5f803e3d5ffd5b505050506040513d601f19601f82011682018060405250810190611d8291906125db565b611d8c919061263b565b611d96919061263b565b611da09190612652565b888681518110611db257611db26125c7565b602002602001018181525050878581518110611dd057611dd06125c7565b602002602001015189611de391906126a3565b98505060019093019250611bd4915050565b5050509091565b60065460405163802431fb60e01b81526001600160a01b03858116600483015284811660248301525f6044830181905292839291169063802431fb90606401602060405180830381865afa158015611e56573d5f803e3d5ffd5b505050506040513d601f19601f82011682018060405250810190611e7a91906125db565b90505f856001600160a01b031663313ce5676040518163ffffffff1660e01b8152600401602060405180830381865afa158015611eb9573d5f803e3d5ffd5b505050506040513d601f19601f82011682018060405250810190611edd91906126b6565b90505f856001600160a01b031663313ce5676040518163ffffffff1660e01b8152600401602060405180830381865afa158015611f1c573d5f803e3d5ffd5b505050506040513d601f19601f82011682018060405250810190611f4091906126b6565b90505f611f4d848761263b565b90508160ff168360ff161115611f9057600a54611f6a83856126d6565b611f7590600a6127cf565b611f7f908361263b565b611f899190612652565b9450611fd0565b8260ff168260ff161115611fc057600a54611fab84846126d6565b611fb690600a6127cf565b611f7f9083612652565b600a54611fcd9082612652565b94505b505050509392505050565b600260055403611ffe57604051633ee5aeb560e01b815260040160405180910390fd5b6002600555565b6001600160a01b03821661202e5760405163ec442f0560e01b81525f6004820152602401610674565b610ce45f83836121eb565b6006546009546040516384db1dfb60e01b81526001600160a01b03909216916384db1dfb916120749160079160089130918291600401612890565b5f604051808303815f87803b15801561208b575f80fd5b505af115801561209d573d5f803e3d5ffd5b50505050336001600160a01b03167f279b343370f587af7fb675ae7c8578e9c8abcc373236ad02c501a4771fe7a7b860076040516120db9190612907565b60405180910390a2565b6001600160a01b03821661210e57604051634b637e8f60e11b81525f6004820152602401610674565b610ce4825f836121eb565b6001600160a01b0384166121425760405163e602df0560e01b81525f6004820152602401610674565b6001600160a01b03831661216b57604051634a1406b160e11b81525f6004820152602401610674565b6001600160a01b038085165f9081526001602090815260408083209387168352929052208290558015611aab57826001600160a01b0316846001600160a01b03167f8c5be1e5ebec7d5bd14f71427d1e84f3dd0314c0f7b2291e5b200ac8c7c3b925846040516121dd91815260200190565b60405180910390a350505050565b6001600160a01b038316612215578060025f82825461220a91906126a3565b909155506122859050565b6001600160a01b0383165f90815260208190526040902054818110156122675760405163391434e360e21b81526001600160a01b03851660048201526024810182905260448101839052606401610674565b6001600160a01b0384165f9081526020819052604090209082900390555b6001600160a01b0382166122a1576002805482900390556122bf565b6001600160a01b0382165f9081526020819052604090208054820190555b816001600160a01b0316836001600160a01b03167fddf252ad1be2c89b69c2b068fc378daa952ba7f163c4a11628f55a4df523b3ef8360405161230491815260200190565b60405180910390a3505050565b602081525f82518060208401528060208501604085015e5f604082850101526040601f19601f83011684010191505092915050565b5f815180845260208085019450602084015f5b8381101561237557815187529582019590820190600101612359565b509495945050505050565b602081525f61072b6020830184612346565b6001600160a01b0381168114611084575f80fd5b5f602082840312156123b6575f80fd5b813561072b81612392565b5f80604083850312156123d2575f80fd5b82356123dd81612392565b946020939093013593505050565b5f805f606084860312156123fd575f80fd5b833561240881612392565b9250602084013561241881612392565b929592945050506040919091013590565b5f806020838503121561243a575f80fd5b823567ffffffffffffffff80821115612451575f80fd5b818501915085601f830112612464575f80fd5b813581811115612472575f80fd5b8660208260051b8501011115612486575f80fd5b60209290920196919550909350505050565b602080825282518282018190525f9190848201906040850190845b818110156124d85783516001600160a01b0316835292840192918401916001016124b3565b50909695505050505050565b5f602082840312156124f4575f80fd5b5035919050565b604080825283519082018190525f906020906060840190828701845b82811015612535578151151584529284019290840190600101612517565b50505083810360208501526108538186612346565b5f806040838503121561255b575f80fd5b823561256681612392565b9150602083013561257681612392565b809150509250929050565b600181811c9082168061259557607f821691505b60208210810361062957634e487b7160e01b5f52602260045260245ffd5b634e487b7160e01b5f52604160045260245ffd5b634e487b7160e01b5f52603260045260245ffd5b5f602082840312156125eb575f80fd5b5051919050565b6020808252818101527f416d6f756e74206d7573742062652067726561746572207468616e207a65726f604082015260600190565b634e487b7160e01b5f52601160045260245ffd5b80820281158282048414176106b2576106b2612627565b5f8261266c57634e487b7160e01b5f52601260045260245ffd5b500490565b818103818111156106b2576106b2612627565b5f60208284031215612694575f80fd5b8151801515811461072b575f80fd5b808201808211156106b2576106b2612627565b5f602082840312156126c6575f80fd5b815160ff8116811461072b575f80fd5b60ff82811682821603908111156106b2576106b2612627565b600181815b8085111561272957815f190482111561270f5761270f612627565b8085161561271c57918102915b93841c93908002906126f4565b509250929050565b5f8261273f575060016106b2565b8161274b57505f6106b2565b8160018114612761576002811461276b57612787565b60019150506106b2565b60ff84111561277c5761277c612627565b50506001821b6106b2565b5060208310610133831016604e8410600b84101617156127aa575081810a6106b2565b6127b483836126ef565b805f19048211156127c7576127c7612627565b029392505050565b5f61072b60ff841683612731565b604080825281018390525f6001600160fb1b038411156127fb575f80fd5b8360051b808660608501376020830193909352500160600192915050565b604081525f61282b6040830185612346565b90508260208301529392505050565b5f6020828403121561284a575f80fd5b815161072b81612392565b5f815480845260208085019450835f5260205f205f5b838110156123755781546001600160a01b03168752958201956001918201910161286b565b60a081525f6128a260a0830188612855565b60208382036020850152818854808452602084019150895f5260205f2093505f5b818110156128df578454835260019485019492840192016128c3565b50506001600160a01b0397881660408601529590961660608401525050608001529392505050565b602081525f61072b602083018461285556fea2646970667358221220ac64af03fa972b61bd580f688b85b510e1a9b6b5a6cb1e1e0a3d7da252f4e8ea64736f6c63430008190033",
    "sourcePath": "c:/Users/Utente/Source/repos/baluni-contracts/contracts/BaluniV1Pool.sol",
    "compiler": {
        "name": "solc",
        "version": "0.8.25+commit.b61c2a91"
    },
    "functionHashes": {
        "ONE()": "c2ee3a08",
        "SWAP_FEE_BPS()": "67a6c440",
        "addLiquidity(uint256[])": "4de59aa3",
        "addLiquiditySingleAsset(address,uint256)": "94edacac",
        "allowance(address,address)": "dd62ed3e",
        "approve(address,uint256)": "095ea7b3",
        "assetToStable(uint256)": "e788e609",
        "assets(uint256)": "cf35bdd0",
        "balanceOf(address)": "70a08231",
        "balances(address)": "27e235e3",
        "changeRebalancer(address)": "0918281b",
        "decimals()": "313ce567",
        "exit(uint256)": "7f8661a1",
        "factory()": "c45a0155",
        "getAmountOut(address,address,uint256)": "4aa06652",
        "getAssets()": "67e4ac2c",
        "getDeviation()": "89ab3532",
        "getReserves()": "0902f1ac",
        "getUnitPriceStable()": "6dc16abb",
        "getWeights()": "22acb867",
        "isAssetSupported(address)": "464b4158",
        "name()": "06fdde03",
        "performRebalanceIfNeeded(address)": "5568081a",
        "rebalancer()": "01d22ccd",
        "swap(address,address,uint256)": "df791e50",
        "symbol()": "95d89b41",
        "totalLiquidityInToken(address)": "d968226d",
        "totalLiquidityStable()": "3fcec715",
        "totalSupply()": "18160ddd",
        "transfer(address,uint256)": "a9059cbb",
        "transferFrom(address,address,uint256)": "23b872dd",
        "trigger()": "7fec8d38",
        "weights(uint256)": "b5f163ff"
    },
    "gasEstimates": {
        "creation": {
            "codeDepositCost": "2115000",
            "executionCost": "infinite",
            "totalCost": "infinite"
        },
        "external": {
            "ONE()": "2383",
            "SWAP_FEE_BPS()": "305",
            "addLiquidity(uint256[])": "infinite",
            "addLiquiditySingleAsset(address,uint256)": "infinite",
            "allowance(address,address)": "infinite",
            "approve(address,uint256)": "24752",
            "assetToStable(uint256)": "infinite",
            "assets(uint256)": "4644",
            "balanceOf(address)": "2621",
            "balances(address)": "2556",
            "changeRebalancer(address)": "26816",
            "decimals()": "244",
            "exit(uint256)": "infinite",
            "factory()": "2436",
            "getAmountOut(address,address,uint256)": "infinite",
            "getAssets()": "infinite",
            "getDeviation()": "infinite",
            "getReserves()": "infinite",
            "getUnitPriceStable()": "infinite",
            "getWeights()": "infinite",
            "isAssetSupported(address)": "infinite",
            "name()": "infinite",
            "performRebalanceIfNeeded(address)": "infinite",
            "rebalancer()": "2372",
            "swap(address,address,uint256)": "infinite",
            "symbol()": "infinite",
            "totalLiquidityInToken(address)": "infinite",
            "totalLiquidityStable()": "infinite",
            "totalSupply()": "2348",
            "transfer(address,uint256)": "51255",
            "transferFrom(address,address,uint256)": "infinite",
            "trigger()": "2339",
            "weights(uint256)": "4639"
        },
        "internal": {
            "_computeValuation()": "infinite",
            "_convertTokenWithRate(address,address,uint256)": "infinite",
            "_performRebalanceIfNeeded()": "infinite"
        }
    }
}