{
    "contractName": "BaluniV1Pool",
    "abi": [
        {
            "inputs": [
                {
                    "internalType": "address",
                    "name": "_rebalancer",
                    "type": "address"
                },
                {
                    "internalType": "address[]",
                    "name": "_assets",
                    "type": "address[]"
                },
                {
                    "internalType": "uint256[]",
                    "name": "_weights",
                    "type": "uint256[]"
                },
                {
                    "internalType": "uint256",
                    "name": "_trigger",
                    "type": "uint256"
                }
            ],
            "stateMutability": "nonpayable",
            "type": "constructor"
        },
        {
            "inputs": [
                {
                    "internalType": "address",
                    "name": "spender",
                    "type": "address"
                },
                {
                    "internalType": "uint256",
                    "name": "allowance",
                    "type": "uint256"
                },
                {
                    "internalType": "uint256",
                    "name": "needed",
                    "type": "uint256"
                }
            ],
            "name": "ERC20InsufficientAllowance",
            "type": "error"
        },
        {
            "inputs": [
                {
                    "internalType": "address",
                    "name": "sender",
                    "type": "address"
                },
                {
                    "internalType": "uint256",
                    "name": "balance",
                    "type": "uint256"
                },
                {
                    "internalType": "uint256",
                    "name": "needed",
                    "type": "uint256"
                }
            ],
            "name": "ERC20InsufficientBalance",
            "type": "error"
        },
        {
            "inputs": [
                {
                    "internalType": "address",
                    "name": "approver",
                    "type": "address"
                }
            ],
            "name": "ERC20InvalidApprover",
            "type": "error"
        },
        {
            "inputs": [
                {
                    "internalType": "address",
                    "name": "receiver",
                    "type": "address"
                }
            ],
            "name": "ERC20InvalidReceiver",
            "type": "error"
        },
        {
            "inputs": [
                {
                    "internalType": "address",
                    "name": "sender",
                    "type": "address"
                }
            ],
            "name": "ERC20InvalidSender",
            "type": "error"
        },
        {
            "inputs": [
                {
                    "internalType": "address",
                    "name": "spender",
                    "type": "address"
                }
            ],
            "name": "ERC20InvalidSpender",
            "type": "error"
        },
        {
            "inputs": [],
            "name": "ReentrancyGuardReentrantCall",
            "type": "error"
        },
        {
            "anonymous": false,
            "inputs": [
                {
                    "indexed": true,
                    "internalType": "address",
                    "name": "owner",
                    "type": "address"
                },
                {
                    "indexed": true,
                    "internalType": "address",
                    "name": "spender",
                    "type": "address"
                },
                {
                    "indexed": false,
                    "internalType": "uint256",
                    "name": "value",
                    "type": "uint256"
                }
            ],
            "name": "Approval",
            "type": "event"
        },
        {
            "anonymous": false,
            "inputs": [
                {
                    "indexed": true,
                    "internalType": "address",
                    "name": "user",
                    "type": "address"
                },
                {
                    "indexed": false,
                    "internalType": "uint256",
                    "name": "sharesBurned",
                    "type": "uint256"
                }
            ],
            "name": "Burn",
            "type": "event"
        },
        {
            "anonymous": false,
            "inputs": [
                {
                    "indexed": true,
                    "internalType": "address",
                    "name": "to",
                    "type": "address"
                },
                {
                    "indexed": false,
                    "internalType": "uint256",
                    "name": "sharesMinted",
                    "type": "uint256"
                }
            ],
            "name": "Mint",
            "type": "event"
        },
        {
            "anonymous": false,
            "inputs": [
                {
                    "indexed": true,
                    "internalType": "address",
                    "name": "by",
                    "type": "address"
                },
                {
                    "indexed": false,
                    "internalType": "address[]",
                    "name": "assets",
                    "type": "address[]"
                }
            ],
            "name": "RebalancePerformed",
            "type": "event"
        },
        {
            "anonymous": false,
            "inputs": [
                {
                    "indexed": true,
                    "internalType": "address",
                    "name": "user",
                    "type": "address"
                },
                {
                    "indexed": true,
                    "internalType": "address",
                    "name": "fromToken",
                    "type": "address"
                },
                {
                    "indexed": true,
                    "internalType": "address",
                    "name": "toToken",
                    "type": "address"
                },
                {
                    "indexed": false,
                    "internalType": "uint256",
                    "name": "amountIn",
                    "type": "uint256"
                },
                {
                    "indexed": false,
                    "internalType": "uint256",
                    "name": "amountOut",
                    "type": "uint256"
                }
            ],
            "name": "Swap",
            "type": "event"
        },
        {
            "anonymous": false,
            "inputs": [
                {
                    "indexed": true,
                    "internalType": "address",
                    "name": "from",
                    "type": "address"
                },
                {
                    "indexed": true,
                    "internalType": "address",
                    "name": "to",
                    "type": "address"
                },
                {
                    "indexed": false,
                    "internalType": "uint256",
                    "name": "value",
                    "type": "uint256"
                }
            ],
            "name": "Transfer",
            "type": "event"
        },
        {
            "anonymous": false,
            "inputs": [
                {
                    "indexed": true,
                    "internalType": "address",
                    "name": "user",
                    "type": "address"
                },
                {
                    "indexed": false,
                    "internalType": "uint256[]",
                    "name": "amountsAdded",
                    "type": "uint256[]"
                }
            ],
            "name": "WeightsRebalanced",
            "type": "event"
        },
        {
            "inputs": [],
            "name": "ONE",
            "outputs": [
                {
                    "internalType": "uint256",
                    "name": "",
                    "type": "uint256"
                }
            ],
            "stateMutability": "view",
            "type": "function"
        },
        {
            "inputs": [],
            "name": "SWAP_FEE_BPS",
            "outputs": [
                {
                    "internalType": "uint256",
                    "name": "",
                    "type": "uint256"
                }
            ],
            "stateMutability": "view",
            "type": "function"
        },
        {
            "inputs": [
                {
                    "internalType": "address",
                    "name": "owner",
                    "type": "address"
                },
                {
                    "internalType": "address",
                    "name": "spender",
                    "type": "address"
                }
            ],
            "name": "allowance",
            "outputs": [
                {
                    "internalType": "uint256",
                    "name": "",
                    "type": "uint256"
                }
            ],
            "stateMutability": "view",
            "type": "function"
        },
        {
            "inputs": [
                {
                    "internalType": "address",
                    "name": "spender",
                    "type": "address"
                },
                {
                    "internalType": "uint256",
                    "name": "value",
                    "type": "uint256"
                }
            ],
            "name": "approve",
            "outputs": [
                {
                    "internalType": "bool",
                    "name": "",
                    "type": "bool"
                }
            ],
            "stateMutability": "nonpayable",
            "type": "function"
        },
        {
            "inputs": [
                {
                    "internalType": "uint256",
                    "name": "",
                    "type": "uint256"
                }
            ],
            "name": "assetInfos",
            "outputs": [
                {
                    "internalType": "address",
                    "name": "asset",
                    "type": "address"
                },
                {
                    "internalType": "uint256",
                    "name": "weight",
                    "type": "uint256"
                }
            ],
            "stateMutability": "view",
            "type": "function"
        },
        {
            "inputs": [
                {
                    "internalType": "uint256",
                    "name": "assetIndex",
                    "type": "uint256"
                }
            ],
            "name": "assetLiquidity",
            "outputs": [
                {
                    "internalType": "uint256",
                    "name": "",
                    "type": "uint256"
                }
            ],
            "stateMutability": "view",
            "type": "function"
        },
        {
            "inputs": [
                {
                    "internalType": "address",
                    "name": "account",
                    "type": "address"
                }
            ],
            "name": "balanceOf",
            "outputs": [
                {
                    "internalType": "uint256",
                    "name": "",
                    "type": "uint256"
                }
            ],
            "stateMutability": "view",
            "type": "function"
        },
        {
            "inputs": [
                {
                    "internalType": "address",
                    "name": "to",
                    "type": "address"
                }
            ],
            "name": "burn",
            "outputs": [],
            "stateMutability": "nonpayable",
            "type": "function"
        },
        {
            "inputs": [
                {
                    "internalType": "address",
                    "name": "_newRebalancer",
                    "type": "address"
                }
            ],
            "name": "changeRebalancer",
            "outputs": [],
            "stateMutability": "nonpayable",
            "type": "function"
        },
        {
            "inputs": [
                {
                    "internalType": "address",
                    "name": "_newRouter",
                    "type": "address"
                }
            ],
            "name": "changeRouter",
            "outputs": [],
            "stateMutability": "nonpayable",
            "type": "function"
        },
        {
            "inputs": [],
            "name": "decimals",
            "outputs": [
                {
                    "internalType": "uint8",
                    "name": "",
                    "type": "uint8"
                }
            ],
            "stateMutability": "view",
            "type": "function"
        },
        {
            "inputs": [
                {
                    "internalType": "address",
                    "name": "fromToken",
                    "type": "address"
                },
                {
                    "internalType": "address",
                    "name": "toToken",
                    "type": "address"
                },
                {
                    "internalType": "uint256",
                    "name": "amount",
                    "type": "uint256"
                }
            ],
            "name": "getAmountOut",
            "outputs": [
                {
                    "internalType": "uint256",
                    "name": "",
                    "type": "uint256"
                }
            ],
            "stateMutability": "view",
            "type": "function"
        },
        {
            "inputs": [],
            "name": "getAssets",
            "outputs": [
                {
                    "internalType": "address[]",
                    "name": "",
                    "type": "address[]"
                }
            ],
            "stateMutability": "view",
            "type": "function"
        },
        {
            "inputs": [],
            "name": "getDeviation",
            "outputs": [
                {
                    "internalType": "bool[]",
                    "name": "directions",
                    "type": "bool[]"
                },
                {
                    "internalType": "uint256[]",
                    "name": "deviations",
                    "type": "uint256[]"
                }
            ],
            "stateMutability": "view",
            "type": "function"
        },
        {
            "inputs": [],
            "name": "getReserves",
            "outputs": [
                {
                    "internalType": "uint256[]",
                    "name": "",
                    "type": "uint256[]"
                }
            ],
            "stateMutability": "view",
            "type": "function"
        },
        {
            "inputs": [],
            "name": "getWeights",
            "outputs": [
                {
                    "internalType": "uint256[]",
                    "name": "",
                    "type": "uint256[]"
                }
            ],
            "stateMutability": "view",
            "type": "function"
        },
        {
            "inputs": [],
            "name": "liquidity",
            "outputs": [
                {
                    "internalType": "uint256",
                    "name": "",
                    "type": "uint256"
                }
            ],
            "stateMutability": "view",
            "type": "function"
        },
        {
            "inputs": [
                {
                    "internalType": "address",
                    "name": "to",
                    "type": "address"
                }
            ],
            "name": "mint",
            "outputs": [
                {
                    "internalType": "uint256",
                    "name": "",
                    "type": "uint256"
                }
            ],
            "stateMutability": "nonpayable",
            "type": "function"
        },
        {
            "inputs": [],
            "name": "name",
            "outputs": [
                {
                    "internalType": "string",
                    "name": "",
                    "type": "string"
                }
            ],
            "stateMutability": "view",
            "type": "function"
        },
        {
            "inputs": [
                {
                    "internalType": "address",
                    "name": "_sender",
                    "type": "address"
                }
            ],
            "name": "performRebalanceIfNeeded",
            "outputs": [],
            "stateMutability": "nonpayable",
            "type": "function"
        },
        {
            "inputs": [
                {
                    "internalType": "address",
                    "name": "receiver",
                    "type": "address"
                }
            ],
            "name": "rebalanceWeights",
            "outputs": [],
            "stateMutability": "nonpayable",
            "type": "function"
        },
        {
            "inputs": [],
            "name": "rebalancer",
            "outputs": [
                {
                    "internalType": "contract IBaluniV1Rebalancer",
                    "name": "",
                    "type": "address"
                }
            ],
            "stateMutability": "view",
            "type": "function"
        },
        {
            "inputs": [],
            "name": "router",
            "outputs": [
                {
                    "internalType": "address",
                    "name": "",
                    "type": "address"
                }
            ],
            "stateMutability": "view",
            "type": "function"
        },
        {
            "inputs": [
                {
                    "internalType": "address",
                    "name": "fromToken",
                    "type": "address"
                },
                {
                    "internalType": "address",
                    "name": "toToken",
                    "type": "address"
                },
                {
                    "internalType": "uint256",
                    "name": "amount",
                    "type": "uint256"
                }
            ],
            "name": "swap",
            "outputs": [
                {
                    "internalType": "uint256",
                    "name": "",
                    "type": "uint256"
                }
            ],
            "stateMutability": "nonpayable",
            "type": "function"
        },
        {
            "inputs": [],
            "name": "symbol",
            "outputs": [
                {
                    "internalType": "string",
                    "name": "",
                    "type": "string"
                }
            ],
            "stateMutability": "view",
            "type": "function"
        },
        {
            "inputs": [],
            "name": "totalSupply",
            "outputs": [
                {
                    "internalType": "uint256",
                    "name": "",
                    "type": "uint256"
                }
            ],
            "stateMutability": "view",
            "type": "function"
        },
        {
            "inputs": [
                {
                    "internalType": "address",
                    "name": "to",
                    "type": "address"
                },
                {
                    "internalType": "uint256",
                    "name": "value",
                    "type": "uint256"
                }
            ],
            "name": "transfer",
            "outputs": [
                {
                    "internalType": "bool",
                    "name": "",
                    "type": "bool"
                }
            ],
            "stateMutability": "nonpayable",
            "type": "function"
        },
        {
            "inputs": [
                {
                    "internalType": "address",
                    "name": "from",
                    "type": "address"
                },
                {
                    "internalType": "address",
                    "name": "to",
                    "type": "address"
                },
                {
                    "internalType": "uint256",
                    "name": "value",
                    "type": "uint256"
                }
            ],
            "name": "transferFrom",
            "outputs": [
                {
                    "internalType": "bool",
                    "name": "",
                    "type": "bool"
                }
            ],
            "stateMutability": "nonpayable",
            "type": "function"
        },
        {
            "inputs": [],
            "name": "trigger",
            "outputs": [
                {
                    "internalType": "uint256",
                    "name": "",
                    "type": "uint256"
                }
            ],
            "stateMutability": "view",
            "type": "function"
        },
        {
            "inputs": [],
            "name": "unitPrice",
            "outputs": [
                {
                    "internalType": "uint256",
                    "name": "",
                    "type": "uint256"
                }
            ],
            "stateMutability": "view",
            "type": "function"
        }
    ],
    "bytecode": "608060405234801561000f575f80fd5b5060405161340838038061340883398101604081905261002e916104bd565b60405180604001604052806009815260200168042616c756e69204c560bc1b81525060405180604001604052806009815260200168042414c554e492d4c560bc1b81525081600390816100819190610615565b50600461008e8282610615565b5050600160055550600a8054336001600160a01b031991821617909155600680549091166001600160a01b038616179055670de0b6b3a76400006009556100d583836100e1565b60085550610725915050565b80518251146101425760405162461bcd60e51b815260206004820152602260248201527f41737365747320616e642077656967687473206c656e677468206d69736d61746044820152610c6d60f31b60648201526084015b60405180910390fd5b5f5b82518110156103cb575f6001600160a01b0316838281518110610169576101696106d4565b60200260200101516001600160a01b0316036101c75760405162461bcd60e51b815260206004820152601560248201527f496e76616c6964206173736574206164647265737300000000000000000000006044820152606401610139565b5f8282815181106101da576101da6106d4565b6020026020010151116102205760405162461bcd60e51b815260206004820152600e60248201526d125b9d985b1a59081dd95a59da1d60921b6044820152606401610139565b6007604051806040016040528085848151811061023f5761023f6106d4565b60200260200101516001600160a01b03168152602001848481518110610267576102676106d4565b6020908102919091018101519091528254600180820185555f948552828520845160029093020180546001600160a01b0319166001600160a01b03909316929092178255929091015191015583518490839081106102c7576102c76106d4565b6020908102919091010151600654604051636eb1769f60e11b81523060048201526001600160a01b03918216602482015291925082169063dd62ed3e90604401602060405180830381865afa158015610322573d5f803e3d5ffd5b505050506040513d601f19601f8201168201806040525081019061034691906106e8565b5f036103c25760065460405163095ea7b360e01b81526001600160a01b0391821660048201525f1960248201529082169063095ea7b3906044016020604051808303815f875af115801561039c573d5f803e3d5ffd5b505050506040513d601f19601f820116820180604052508101906103c091906106ff565b505b50600101610144565b505050565b80516001600160a01b03811681146103e6575f80fd5b919050565b634e487b7160e01b5f52604160045260245ffd5b604051601f8201601f191681016001600160401b0381118282101715610427576104276103eb565b604052919050565b5f6001600160401b03821115610447576104476103eb565b5060051b60200190565b5f82601f830112610460575f80fd5b815160206104756104708361042f565b6103ff565b8083825260208201915060208460051b870101935086841115610496575f80fd5b602086015b848110156104b2578051835291830191830161049b565b509695505050505050565b5f805f80608085870312156104d0575f80fd5b6104d9856103d0565b602086810151919550906001600160401b03808211156104f7575f80fd5b818801915088601f83011261050a575f80fd5b81516105186104708261042f565b81815260059190911b8301840190848101908b831115610536575f80fd5b938501935b8285101561055b5761054c856103d0565b8252938501939085019061053b565b60408b01519098509450505080831115610573575f80fd5b505061058187828801610451565b606096909601519497939650505050565b600181811c908216806105a657607f821691505b6020821081036105c457634e487b7160e01b5f52602260045260245ffd5b50919050565b601f8211156103cb57805f5260205f20601f840160051c810160208510156105ef5750805b601f840160051c820191505b8181101561060e575f81556001016105fb565b5050505050565b81516001600160401b0381111561062e5761062e6103eb565b6106428161063c8454610592565b846105ca565b602080601f831160018114610675575f841561065e5750858301515b5f19600386901b1c1916600185901b1785556106cc565b5f85815260208120601f198616915b828110156106a357888601518255948401946001909101908401610684565b50858210156106c057878501515f19600388901b60f8161c191681555b505060018460011b0185555b505050505050565b634e487b7160e01b5f52603260045260245ffd5b5f602082840312156106f8575f80fd5b5051919050565b5f6020828403121561070f575f80fd5b8151801515811461071e575f80fd5b9392505050565b612cd6806107325f395ff3fe608060405234801561000f575f80fd5b50600436106101d1575f3560e01c806367e4ac2c116100fe578063a9059cbb1161009e578063dd62ed3e1161006e578063dd62ed3e146103ea578063df791e5014610422578063e73faa2d14610435578063f887ea401461043d575f80fd5b8063a9059cbb14610389578063c2ee3a081461039c578063cf8fa764146103a5578063d14ef46d146103b8575f80fd5b80637fec8d38116100d95780637fec8d381461034f57806389ab35321461035857806389afcb441461036e57806395d89b4114610381575f80fd5b806367e4ac2c146102ff5780636a6278421461031457806370a0823114610327575f80fd5b80631a68650211610174578063340ac20f11610144578063340ac20f146102be5780634aa06652146102d15780635568081a146102e457806367a6c440146102f7575f80fd5b80631a6865021461028c57806322acb8671461029457806323b872dd1461029c578063313ce567146102af575f80fd5b80630902f1ac116101af5780630902f1ac1461022f5780630918281b14610244578063095ea7b31461025757806318160ddd1461027a575f80fd5b806301d22ccd146101d557806306fdde03146102055780630723c9991461021a575b5f80fd5b6006546101e8906001600160a01b031681565b6040516001600160a01b0390911681526020015b60405180910390f35b61020d610450565b6040516101fc91906127d9565b61022d610228366004612825565b6104e0565b005b610237610559565b6040516101fc919061287a565b61022d610252366004612825565b610666565b61026a61026536600461288c565b6106bb565b60405190151581526020016101fc565b6002545b6040519081526020016101fc565b61027e6106d4565b6102376106e5565b61026a6102aa3660046128b6565b610785565b604051601281526020016101fc565b61022d6102cc366004612825565b6107aa565b61027e6102df3660046128b6565b6107f6565b61022d6102f2366004612825565b610ab9565b61027e601e81565b610307610b4b565b6040516101fc919061292c565b61027e610322366004612825565b610c06565b61027e610335366004612825565b6001600160a01b03165f9081526020819052604090205490565b61027e60085481565b610360610e6d565b6040516101fc92919061293e565b61022d61037c366004612825565b611028565b61020d61144f565b61026a61039736600461288c565b61145e565b61027e60095481565b61027e6103b3366004612997565b61146b565b6103cb6103c6366004612997565b6114e0565b604080516001600160a01b0390931683526020830191909152016101fc565b61027e6103f83660046129ae565b6001600160a01b039182165f90815260016020908152604080832093909416825291909152205490565b61027e6104303660046128b6565b611516565b61027e6117f2565b600a546101e8906001600160a01b031681565b60606003805461045f906129e5565b80601f016020809104026020016040519081016040528092919081815260200182805461048b906129e5565b80156104d65780601f106104ad576101008083540402835291602001916104d6565b820191905f5260205f20905b8154815290600101906020018083116104b957829003601f168201915b5050505050905090565b5f806104ea61183a565b915091505f6104f983836119a7565b90505f61050582611a68565b90506105118582611ae9565b336001600160a01b03167fa95ad530009c6f929555e70a66aadbeae7231e45756c5b028ca77fbaa376e73e8360405161054a919061287a565b60405180910390a25050505050565b6007546060905f9067ffffffffffffffff81111561057957610579612a17565b6040519080825280602002602001820160405280156105a2578160200160208202803683370190505b5090505f5b60075481101561066057600781815481106105c4576105c4612a2b565b5f9182526020909120600290910201546040516370a0823160e01b81523060048201526001600160a01b03909116906370a0823190602401602060405180830381865afa158015610617573d5f803e3d5ffd5b505050506040513d601f19601f8201168201806040525081019061063b9190612a3f565b82828151811061064d5761064d612a2b565b60209081029190910101526001016105a7565b50919050565b600a546001600160a01b031633146106995760405162461bcd60e51b815260040161069090612a56565b60405180910390fd5b600680546001600160a01b0319166001600160a01b0392909216919091179055565b5f336106c8818585611b1d565b60019150505b92915050565b5f806106de611b2f565b5092915050565b6007546060905f9067ffffffffffffffff81111561070557610705612a17565b60405190808252806020026020018201604052801561072e578160200160208202803683370190505b5090505f5b600754811015610660576007818154811061075057610750612a2b565b905f5260205f2090600202016001015482828151811061077257610772612a2b565b6020908102919091010152600101610733565b5f33610792858285611c38565b61079d858585611cb3565b60019150505b9392505050565b600a546001600160a01b031633146107d45760405162461bcd60e51b815260040161069090612a56565b600a80546001600160a01b0319166001600160a01b0392909216919091179055565b5f826001600160a01b0316846001600160a01b0316036108585760405162461bcd60e51b815260206004820152601a60248201527f43616e6e6f742073776170207468652073616d6520746f6b656e0000000000006044820152606401610690565b5f82116108a75760405162461bcd60e51b815260206004820181905260248201527f416d6f756e74206d7573742062652067726561746572207468616e207a65726f6044820152606401610690565b5f6127106108b6601e85612a8f565b6108c09190612aa6565b90505f6108cd8285612ac5565b90505f866001600160a01b031663313ce5676040518163ffffffff1660e01b8152600401602060405180830381865afa15801561090c573d5f803e3d5ffd5b505050506040513d601f19601f820116820180604052508101906109309190612ad8565b90505f866001600160a01b031663313ce5676040518163ffffffff1660e01b8152600401602060405180830381865afa15801561096f573d5f803e3d5ffd5b505050506040513d601f19601f820116820180604052508101906109939190612ad8565b60065460405163802431fb60e01b81526001600160a01b038b811660048301528a811660248301525f604483018190529394509091169063802431fb90606401602060405180830381865afa925050508015610a0c575060408051601f3d908101601f19168201909252610a0991810190612a3f565b60015b610a1d575f955050505050506107a3565b90508360ff84811690841614610a8a575f8360ff168560ff161115610a6457610a468486612af8565b610a5190600a612bf1565b9050610a5d8183612aa6565b9150610a88565b610a6e8585612af8565b610a7990600a612bf1565b9050610a858183612a8f565b91505b505b5f610a9684600a612bf1565b610aa08484612a8f565b610aaa9190612aa6565b9b9a5050505050505050505050565b5f612710610ac660025490565b610ad2906103e8612a8f565b610adc9190612aa6565b905080610afd836001600160a01b03165f9081526020819052604090205490565b1015610b3f5760405162461bcd60e51b8152602060048201526011602482015270556e646572203525204c5020736861726560781b6044820152606401610690565b610b47611d10565b5050565b6007546060905f9067ffffffffffffffff811115610b6b57610b6b612a17565b604051908082528060200260200182016040528015610b94578160200160208202803683370190505b5090505f5b6007548110156106605760078181548110610bb657610bb6612a2b565b5f91825260209091206002909102015482516001600160a01b0390911690839083908110610be657610be6612a2b565b6001600160a01b0390921660209283029190910190910152600101610b99565b600a545f906001600160a01b03163314610c325760405162461bcd60e51b815260040161069090612a56565b5f610c3c60025490565b90505f80610c48610559565b90505f5b600754811015610d37575f60078281548110610c6a57610c6a612a2b565b5f9182526020822060029190910201546040516370a0823160e01b81523060048201526001600160a01b03909116925082906370a0823190602401602060405180830381865afa158015610cc0573d5f803e3d5ffd5b505050506040513d601f19601f82011682018060405250810190610ce49190612a3f565b90505f848481518110610cf957610cf9612a2b565b602002602001015182610d0c9190612ac5565b90505f610d198483611f06565b9050610d258188612bff565b96505060019093019250610c4c915050565b505f835f03610d47575081610d6c565b5f610d50611b2f565b50905080610d5e8686612a8f565b610d689190612aa6565b9150505b805f03610dab5760405162461bcd60e51b815260206004820152600d60248201526c04d696e7420717479206973203609c1b6044820152606401610690565b335f8181526020819052604090205490610dc59083611ae9565b335f90815260208190526040812054610ddf908390612ac5565b9050828114610e1e5760405162461bcd60e51b815260206004820152600b60248201526a135a5b9d0811985a5b195960aa1b6044820152606401610690565b876001600160a01b03167f0f6798a560793a54c3bcfe86a93cde1e73087d944c0ea20544137d412139688584604051610e5991815260200190565b60405180910390a250909695505050505050565b6060805f80610e7a611b2f565b60075491935091508067ffffffffffffffff811115610e9b57610e9b612a17565b604051908082528060200260200182016040528015610ec4578160200160208202803683370190505b5094508067ffffffffffffffff811115610ee057610ee0612a17565b604051908082528060200260200182016040528015610f09578160200160208202803683370190505b5093505f5b81811015611020575f84848381518110610f2a57610f2a612a2b565b6020026020010151612710610f3f9190612a8f565b610f499190612aa6565b90505f60078381548110610f5f57610f5f612a2b565b905f5260205f20906002020160010154905080821115610fca57610f838183612ac5565b878481518110610f9557610f95612a2b565b6020026020010181815250506001888481518110610fb557610fb5612a2b565b91151560209283029190910190910152611016565b610fd48282612ac5565b878481518110610fe657610fe6612a2b565b6020026020010181815250505f88848151811061100557611005612a2b565b911515602092830291909101909101525b5050600101610f0e565b505050509091565b305f90815260208190526040902054806110845760405162461bcd60e51b815260206004820152601c60248201527f5368617265206d7573742062652067726561746572207468616e2030000000006044820152606401610690565b5f61108e60025490565b90505f81116110ce5760405162461bcd60e51b815260206004820152600c60248201526b4e6f206c697175696469747960a01b6044820152606401610690565b6007545f9067ffffffffffffffff8111156110eb576110eb612a17565b604051908082528060200260200182016040528015611114578160200160208202803683370190505b5090505f612710611126601e86612a8f565b6111309190612aa6565b90505f61113d8286612ac5565b90505f5b600754811015611213575f6007828154811061115f5761115f612a2b565b5f9182526020909120600290910201546040516370a0823160e01b81523060048201526001600160a01b03909116906370a0823190602401602060405180830381865afa1580156111b2573d5f803e3d5ffd5b505050506040513d601f19601f820116820180604052508101906111d69190612a3f565b9050856111e38483612a8f565b6111ed9190612aa6565b8583815181106111ff576111ff612a2b565b602090810291909101015250600101611141565b5061121e30826121a6565b5f61129c60065f9054906101000a90046001600160a01b03166001600160a01b0316633b19e84a6040518163ffffffff1660e01b8152600401602060405180830381865afa158015611272573d5f803e3d5ffd5b505050506040513d601f19601f820116820180604052508101906112969190612c12565b8461145e565b9050806112e15760405162461bcd60e51b8152602060048201526013602482015272119959481d1c985b9cd9995c8819985a5b1959606a1b6044820152606401610690565b5f5b600754811015611402575f6007828154811061130157611301612a2b565b5f91825260209091206002909102015486516001600160a01b039091169063a9059cbb908b9089908690811061133957611339612a2b565b60200260200101516040518363ffffffff1660e01b81526004016113729291906001600160a01b03929092168252602082015260400190565b6020604051808303815f875af115801561138e573d5f803e3d5ffd5b505050506040513d601f19601f820116820180604052508101906113b29190612c2d565b9050806113f95760405162461bcd60e51b8152602060048201526015602482015274105cdcd95d081d1c985b9cd9995c8819985a5b1959605a1b6044820152606401610690565b506001016112e3565b50866001600160a01b03167fcc16f5dbb4873280815c1ee09dbd06736cffcc184412cf7a71a0fdb75d397ca58360405161143e91815260200190565b60405180910390a250505050505050565b60606004805461045f906129e5565b5f336106c8818585611cb3565b5f80611475611b2f565b915050805183106114be5760405162461bcd60e51b8152602060048201526013602482015272092dcecc2d8d2c840c2e6e6cae840d2dcc8caf606b1b6044820152606401610690565b8083815181106114d0576114d0612a2b565b6020026020010151915050919050565b600781815481106114ef575f80fd5b5f918252602090912060029091020180546001909101546001600160a01b03909116915082565b5f61151f6121da565b826001600160a01b0316846001600160a01b0316036115805760405162461bcd60e51b815260206004820152601a60248201527f43616e6e6f742073776170207468652073616d6520746f6b656e0000000000006044820152606401610690565b5f82116115cf5760405162461bcd60e51b815260206004820181905260248201527f416d6f756e74206d7573742062652067726561746572207468616e207a65726f6044820152606401610690565b6040516323b872dd60e01b8152336004820152306024820152604481018390526001600160a01b038516906323b872dd906064016020604051808303815f875af115801561161f573d5f803e3d5ffd5b505050506040513d601f19601f820116820180604052508101906116439190612c2d565b505f612710611653601e85612a8f565b61165d9190612aa6565b90505f61166a8285612ac5565b90505f6116788787846107f6565b6040516370a0823160e01b815230600482015290915081906001600160a01b038816906370a0823190602401602060405180830381865afa1580156116bf573d5f803e3d5ffd5b505050506040513d601f19601f820116820180604052508101906116e39190612a3f565b101561172a5760405162461bcd60e51b8152602060048201526016602482015275496e73756666696369656e74204c697175696469747960501b6044820152606401610690565b60405163a9059cbb60e01b8152336004820152602481018290526001600160a01b0387169063a9059cbb906044016020604051808303815f875af1158015611774573d5f803e3d5ffd5b505050506040513d601f19601f820116820180604052508101906117989190612c2d565b5060408051868152602081018390526001600160a01b0380891692908a169133917fcd3829a3813dc3cdd188fd3d01dcf3268c16be2fdd2dd21d0665418816e46062910160405180910390a4925050506107a36001600555565b5f806117fc611b2f565b5090505f61180960025490565b9050805f0361181a575f9250505090565b80600954836118299190612a8f565b6118339190612aa6565b9250505090565b6007545f9060609067ffffffffffffffff81111561185a5761185a612a17565b604051908082528060200260200182016040528015611883578160200160208202803683370190505b5090505f5b6007548110156119a257611955600782815481106118a8576118a8612a2b565b5f918252602090912060029091020154600780546001600160a01b0390921691849081106118d8576118d8612a2b565b5f9182526020909120600290910201546040516370a0823160e01b81523060048201526001600160a01b03909116906370a08231906024015b602060405180830381865afa15801561192c573d5f803e3d5ffd5b505050506040513d601f19601f820116820180604052508101906119509190612a3f565b611f06565b82828151811061196757611967612a2b565b60200260200101818152505081818151811061198557611985612a2b565b6020026020010151836119989190612bff565b9250600101611888565b509091565b60075460609067ffffffffffffffff8111156119c5576119c5612a17565b6040519080825280602002602001820160405280156119ee578160200160208202803683370190505b5090505f5b6007548110156106de57611a4384848381518110611a1357611a13612a2b565b602002602001015160078481548110611a2e57611a2e612a2b565b905f5260205f20906002020160010154612204565b828281518110611a5557611a55612a2b565b60209081029190910101526001016119f3565b5f805b600754811015610660575f838281518110611a8857611a88612a2b565b60200260200101511115611ae157611ab981848381518110611aac57611aac612a2b565b602002602001015161223c565b828181518110611acb57611acb612a2b565b602002602001015182611ade9190612bff565b91505b600101611a6b565b6001600160a01b038216611b125760405163ec442f0560e01b81525f6004820152602401610690565b610b475f838361232a565b611b2a8383836001612450565b505050565b6007545f906060908067ffffffffffffffff811115611b5057611b50612a17565b604051908082528060200260200182016040528015611b79578160200160208202803683370190505b5091505f5b81811015611c32575f60078281548110611b9a57611b9a612a2b565b5f9182526020822060029190910201546040516370a0823160e01b81523060048201526001600160a01b039091169250611be090839081906370a0823190602401611911565b905080858481518110611bf557611bf5612a2b565b602002602001018181525050848381518110611c1357611c13612a2b565b602002602001015186611c269190612bff565b95505050600101611b7e565b50509091565b6001600160a01b038381165f908152600160209081526040808320938616835292905220545f198114611cad5781811015611c9f57604051637dc7a0d960e11b81526001600160a01b03841660048201526024810182905260448101839052606401610690565b611cad84848484035f612450565b50505050565b6001600160a01b038316611cdc57604051634b637e8f60e11b81525f6004820152602401610690565b6001600160a01b038216611d055760405163ec442f0560e01b81525f6004820152602401610690565b611b2a83838361232a565b6007545f9067ffffffffffffffff811115611d2d57611d2d612a17565b604051908082528060200260200182016040528015611d56578160200160208202803683370190505b506007549091505f9067ffffffffffffffff811115611d7757611d77612a17565b604051908082528060200260200182016040528015611da0578160200160208202803683370190505b5090505f5b600754811015611e5a5760078181548110611dc257611dc2612a2b565b5f91825260209091206002909102015483516001600160a01b0390911690849083908110611df257611df2612a2b565b60200260200101906001600160a01b031690816001600160a01b03168152505060078181548110611e2557611e25612a2b565b905f5260205f20906002020160010154828281518110611e4757611e47612a2b565b6020908102919091010152600101611da5565b506006546008546040516384db1dfb60e01b81526001600160a01b03909216916384db1dfb91611e94918691869130918291600401612c4c565b5f604051808303815f87803b158015611eab575f80fd5b505af1158015611ebd573d5f803e3d5ffd5b50505050336001600160a01b03167f279b343370f587af7fb675ae7c8578e9c8abcc373236ad02c501a4771fe7a7b883604051611efa919061292c565b60405180910390a25050565b5f805f60065f9054906101000a90046001600160a01b03166001600160a01b031663956fb5106040518163ffffffff1660e01b8152600401602060405180830381865afa158015611f59573d5f803e3d5ffd5b505050506040513d601f19601f82011682018060405250810190611f7d9190612c12565b90505f856001600160a01b031663313ce5676040518163ffffffff1660e01b8152600401602060405180830381865afa158015611fbc573d5f803e3d5ffd5b505050506040513d601f19601f82011682018060405250810190611fe09190612ad8565b90505f826001600160a01b031663313ce5676040518163ffffffff1660e01b8152600401602060405180830381865afa15801561201f573d5f803e3d5ffd5b505050506040513d601f19601f820116820180604052508101906120439190612ad8565b6006546040516307de4fd160e41b81526001600160a01b038a811660048301525f6024830152929350911690637de4fd1090604401602060405180830381865afa9250505080156120b1575060408051601f3d908101601f191682019092526120ae91810190612a3f565b60015b6120c1575f9450505050506106ce565b93505f806120d084600a612bf1565b600954909150806120e18389612a8f565b6120eb9190612aa6565b96508360ff168560ff1614612151576121048585612522565b61210e868661253e565b6121189190612af8565b6121269060ff16600a612c95565b92508360ff168560ff16111561214757612140838a612a8f565b9850612181565b612140838a612a8f565b8460ff1660121461218157612167856012612af8565b61217290600a612bf1565b925061217e838a612a8f565b98505b60095461218e888b612a8f565b6121989190612aa6565b9a9950505050505050505050565b6001600160a01b0382166121cf57604051634b637e8f60e11b81525f6004820152602401610690565b610b47825f8361232a565b6002600554036121fd57604051633ee5aeb560e01b815260040160405180910390fd5b6002600555565b5f806127106122138487612a8f565b61221d9190612aa6565b905080841015612234576122318482612ac5565b91505b509392505050565b6007828154811061224f5761224f612a2b565b905f5260205f2090600202015f015f9054906101000a90046001600160a01b03166001600160a01b03166323b872dd33306122b56007878154811061229657612296612a2b565b5f9182526020909120600290910201546001600160a01b031686612553565b6040516001600160e01b031960e086901b1681526001600160a01b03938416600482015292909116602483015260448201526064016020604051808303815f875af1158015612306573d5f803e3d5ffd5b505050506040513d601f19601f82011682018060405250810190611b2a9190612c2d565b6001600160a01b038316612354578060025f8282546123499190612bff565b909155506123c49050565b6001600160a01b0383165f90815260208190526040902054818110156123a65760405163391434e360e21b81526001600160a01b03851660048201526024810182905260448101839052606401610690565b6001600160a01b0384165f9081526020819052604090209082900390555b6001600160a01b0382166123e0576002805482900390556123fe565b6001600160a01b0382165f9081526020819052604090208054820190555b816001600160a01b0316836001600160a01b03167fddf252ad1be2c89b69c2b068fc378daa952ba7f163c4a11628f55a4df523b3ef8360405161244391815260200190565b60405180910390a3505050565b6001600160a01b0384166124795760405163e602df0560e01b81525f6004820152602401610690565b6001600160a01b0383166124a257604051634a1406b160e11b81525f6004820152602401610690565b6001600160a01b038085165f9081526001602090815260408083209387168352929052208290558015611cad57826001600160a01b0316846001600160a01b03167f8c5be1e5ebec7d5bd14f71427d1e84f3dd0314c0f7b2291e5b200ac8c7c3b9258460405161251491815260200190565b60405180910390a350505050565b5f8160ff168360ff16111561253757816107a3565b5090919050565b5f8160ff168360ff16101561253757816107a3565b5f805f60065f9054906101000a90046001600160a01b03166001600160a01b031663956fb5106040518163ffffffff1660e01b8152600401602060405180830381865afa1580156125a6573d5f803e3d5ffd5b505050506040513d601f19601f820116820180604052508101906125ca9190612c12565b90505f856001600160a01b031663313ce5676040518163ffffffff1660e01b8152600401602060405180830381865afa158015612609573d5f803e3d5ffd5b505050506040513d601f19601f8201168201806040525081019061262d9190612ad8565b90505f826001600160a01b031663313ce5676040518163ffffffff1660e01b8152600401602060405180830381865afa15801561266c573d5f803e3d5ffd5b505050506040513d601f19601f820116820180604052508101906126909190612ad8565b6006546040516307de4fd160e41b81526001600160a01b038a811660048301525f6024830152929350911690637de4fd1090604401602060405180830381865afa9250505080156126fe575060408051601f3d908101601f191682019092526126fb91810190612a3f565b60015b61270e575f9450505050506106ce565b93505f8160ff168360ff1614612778576127288383612522565b612732848461253e565b61273c9190612af8565b61274a9060ff16600a612c95565b90508160ff168360ff16111561276b576127648188612a8f565b9650612778565b6127758188612aa6565b96505b5f85600954896127889190612a8f565b6127929190612aa6565b90508260ff168460ff16146127cd578360ff168360ff1611156127c0576127b98282612aa6565b90506127cd565b6127ca8282612a8f565b90505b98975050505050505050565b602081525f82518060208401528060208501604085015e5f604082850101526040601f19601f83011684010191505092915050565b6001600160a01b0381168114612822575f80fd5b50565b5f60208284031215612835575f80fd5b81356107a38161280e565b5f815180845260208085019450602084015f5b8381101561286f57815187529582019590820190600101612853565b509495945050505050565b602081525f6107a36020830184612840565b5f806040838503121561289d575f80fd5b82356128a88161280e565b946020939093013593505050565b5f805f606084860312156128c8575f80fd5b83356128d38161280e565b925060208401356128e38161280e565b929592945050506040919091013590565b5f815180845260208085019450602084015f5b8381101561286f5781516001600160a01b031687529582019590820190600101612907565b602081525f6107a360208301846128f4565b604080825283519082018190525f906020906060840190828701845b8281101561297857815115158452928401929084019060010161295a565b505050838103602085015261298d8186612840565b9695505050505050565b5f602082840312156129a7575f80fd5b5035919050565b5f80604083850312156129bf575f80fd5b82356129ca8161280e565b915060208301356129da8161280e565b809150509250929050565b600181811c908216806129f957607f821691505b60208210810361066057634e487b7160e01b5f52602260045260245ffd5b634e487b7160e01b5f52604160045260245ffd5b634e487b7160e01b5f52603260045260245ffd5b5f60208284031215612a4f575f80fd5b5051919050565b6020808252600b908201526a27b7363c902937baba32b960a91b604082015260600190565b634e487b7160e01b5f52601160045260245ffd5b80820281158282048414176106ce576106ce612a7b565b5f82612ac057634e487b7160e01b5f52601260045260245ffd5b500490565b818103818111156106ce576106ce612a7b565b5f60208284031215612ae8575f80fd5b815160ff811681146107a3575f80fd5b60ff82811682821603908111156106ce576106ce612a7b565b600181815b80851115612b4b57815f1904821115612b3157612b31612a7b565b80851615612b3e57918102915b93841c9390800290612b16565b509250929050565b5f82612b61575060016106ce565b81612b6d57505f6106ce565b8160018114612b835760028114612b8d57612ba9565b60019150506106ce565b60ff841115612b9e57612b9e612a7b565b50506001821b6106ce565b5060208310610133831016604e8410600b8410161715612bcc575081810a6106ce565b612bd68383612b11565b805f1904821115612be957612be9612a7b565b029392505050565b5f6107a360ff841683612b53565b808201808211156106ce576106ce612a7b565b5f60208284031215612c22575f80fd5b81516107a38161280e565b5f60208284031215612c3d575f80fd5b815180151581146107a3575f80fd5b60a081525f612c5e60a08301886128f4565b8281036020840152612c708188612840565b6001600160a01b03968716604085015294909516606083015250608001529392505050565b5f6107a38383612b5356fea2646970667358221220b104bae1719ae133445a79cd85ba2062e276ea7984be3b25f3219ba90693738064736f6c63430008190033",
    "sourcePath": "c:/Users/Utente/Source/repos/baluni-contracts/contracts/BaluniV1Pool.sol",
    "compiler": {
        "name": "solc",
        "version": "0.8.25+commit.b61c2a91"
    },
    "functionHashes": {
        "ONE()": "c2ee3a08",
        "SWAP_FEE_BPS()": "67a6c440",
        "allowance(address,address)": "dd62ed3e",
        "approve(address,uint256)": "095ea7b3",
        "assetInfos(uint256)": "d14ef46d",
        "assetLiquidity(uint256)": "cf8fa764",
        "balanceOf(address)": "70a08231",
        "burn(address)": "89afcb44",
        "changeRebalancer(address)": "0918281b",
        "changeRouter(address)": "340ac20f",
        "decimals()": "313ce567",
        "getAmountOut(address,address,uint256)": "4aa06652",
        "getAssets()": "67e4ac2c",
        "getDeviation()": "89ab3532",
        "getReserves()": "0902f1ac",
        "getWeights()": "22acb867",
        "liquidity()": "1a686502",
        "mint(address)": "6a627842",
        "name()": "06fdde03",
        "performRebalanceIfNeeded(address)": "5568081a",
        "rebalanceWeights(address)": "0723c999",
        "rebalancer()": "01d22ccd",
        "router()": "f887ea40",
        "swap(address,address,uint256)": "df791e50",
        "symbol()": "95d89b41",
        "totalSupply()": "18160ddd",
        "transfer(address,uint256)": "a9059cbb",
        "transferFrom(address,address,uint256)": "23b872dd",
        "trigger()": "7fec8d38",
        "unitPrice()": "e73faa2d"
    },
    "gasEstimates": {
        "creation": {
            "codeDepositCost": "2295600",
            "executionCost": "infinite",
            "totalCost": "infinite"
        },
        "external": {
            "ONE()": "2361",
            "SWAP_FEE_BPS()": "305",
            "allowance(address,address)": "infinite",
            "approve(address,uint256)": "24796",
            "assetInfos(uint256)": "6881",
            "assetLiquidity(uint256)": "infinite",
            "balanceOf(address)": "2621",
            "burn(address)": "infinite",
            "changeRebalancer(address)": "26771",
            "changeRouter(address)": "26748",
            "decimals()": "288",
            "getAmountOut(address,address,uint256)": "infinite",
            "getAssets()": "infinite",
            "getDeviation()": "infinite",
            "getReserves()": "infinite",
            "getWeights()": "infinite",
            "liquidity()": "infinite",
            "mint(address)": "infinite",
            "name()": "infinite",
            "performRebalanceIfNeeded(address)": "infinite",
            "rebalanceWeights(address)": "infinite",
            "rebalancer()": "2372",
            "router()": "2435",
            "swap(address,address,uint256)": "infinite",
            "symbol()": "infinite",
            "totalSupply()": "2392",
            "transfer(address,uint256)": "51255",
            "transferFrom(address,address,uint256)": "infinite",
            "trigger()": "2339",
            "unitPrice()": "infinite"
        },
        "internal": {
            "_calculateAmountsToAdd(uint256,uint256[] memory)": "infinite",
            "_calculateSingleAmountToAdd(uint256,uint256,uint256)": "infinite",
            "_calculateTotalAddedLiquidity(uint256[] memory)": "infinite",
            "_computeTotalValuation()": "infinite",
            "_computeValuations()": "infinite",
            "_convertNativeToToken(address,uint256)": "infinite",
            "_convertTokenToNative(address,uint256)": "infinite",
            "_performRebalanceIfNeeded()": "infinite",
            "_transferAndCalculateLiquidity(uint256,uint256)": "infinite",
            "initializeAssets(address[] memory,uint256[] memory)": "infinite",
            "max(uint8,uint8)": "75",
            "min(uint8,uint8)": "75"
        }
    }
}