{
    "contractName": "BaluniV1Registry",
    "abi": [
        {
            "inputs": [
                {
                    "internalType": "address",
                    "name": "target",
                    "type": "address"
                }
            ],
            "name": "AddressEmptyCode",
            "type": "error"
        },
        {
            "inputs": [
                {
                    "internalType": "address",
                    "name": "implementation",
                    "type": "address"
                }
            ],
            "name": "ERC1967InvalidImplementation",
            "type": "error"
        },
        {
            "inputs": [],
            "name": "ERC1967NonPayable",
            "type": "error"
        },
        {
            "inputs": [],
            "name": "FailedInnerCall",
            "type": "error"
        },
        {
            "inputs": [],
            "name": "InvalidInitialization",
            "type": "error"
        },
        {
            "inputs": [],
            "name": "NotInitializing",
            "type": "error"
        },
        {
            "inputs": [
                {
                    "internalType": "address",
                    "name": "owner",
                    "type": "address"
                }
            ],
            "name": "OwnableInvalidOwner",
            "type": "error"
        },
        {
            "inputs": [
                {
                    "internalType": "address",
                    "name": "account",
                    "type": "address"
                }
            ],
            "name": "OwnableUnauthorizedAccount",
            "type": "error"
        },
        {
            "inputs": [],
            "name": "UUPSUnauthorizedCallContext",
            "type": "error"
        },
        {
            "inputs": [
                {
                    "internalType": "bytes32",
                    "name": "slot",
                    "type": "bytes32"
                }
            ],
            "name": "UUPSUnsupportedProxiableUUID",
            "type": "error"
        },
        {
            "anonymous": false,
            "inputs": [
                {
                    "indexed": false,
                    "internalType": "uint64",
                    "name": "version",
                    "type": "uint64"
                }
            ],
            "name": "Initialized",
            "type": "event"
        },
        {
            "anonymous": false,
            "inputs": [
                {
                    "indexed": true,
                    "internalType": "address",
                    "name": "previousOwner",
                    "type": "address"
                },
                {
                    "indexed": true,
                    "internalType": "address",
                    "name": "newOwner",
                    "type": "address"
                }
            ],
            "name": "OwnershipTransferred",
            "type": "event"
        },
        {
            "anonymous": false,
            "inputs": [
                {
                    "indexed": true,
                    "internalType": "address",
                    "name": "implementation",
                    "type": "address"
                }
            ],
            "name": "Upgraded",
            "type": "event"
        },
        {
            "inputs": [],
            "name": "UPGRADE_INTERFACE_VERSION",
            "outputs": [
                {
                    "internalType": "string",
                    "name": "",
                    "type": "string"
                }
            ],
            "stateMutability": "view",
            "type": "function"
        },
        {
            "inputs": [],
            "name": "USDC",
            "outputs": [
                {
                    "internalType": "address",
                    "name": "",
                    "type": "address"
                }
            ],
            "stateMutability": "view",
            "type": "function"
        },
        {
            "inputs": [],
            "name": "WNATIVE",
            "outputs": [
                {
                    "internalType": "address",
                    "name": "",
                    "type": "address"
                }
            ],
            "stateMutability": "view",
            "type": "function"
        },
        {
            "inputs": [],
            "name": "_1inchSpotAgg",
            "outputs": [
                {
                    "internalType": "address",
                    "name": "",
                    "type": "address"
                }
            ],
            "stateMutability": "view",
            "type": "function"
        },
        {
            "inputs": [],
            "name": "_BPS_BASE",
            "outputs": [
                {
                    "internalType": "uint256",
                    "name": "",
                    "type": "uint256"
                }
            ],
            "stateMutability": "view",
            "type": "function"
        },
        {
            "inputs": [],
            "name": "_BPS_FEE",
            "outputs": [
                {
                    "internalType": "uint256",
                    "name": "",
                    "type": "uint256"
                }
            ],
            "stateMutability": "view",
            "type": "function"
        },
        {
            "inputs": [],
            "name": "_MAX_BPS_FEE",
            "outputs": [
                {
                    "internalType": "uint256",
                    "name": "",
                    "type": "uint256"
                }
            ],
            "stateMutability": "view",
            "type": "function"
        },
        {
            "inputs": [],
            "name": "baluniAgentFactory",
            "outputs": [
                {
                    "internalType": "address",
                    "name": "",
                    "type": "address"
                }
            ],
            "stateMutability": "view",
            "type": "function"
        },
        {
            "inputs": [],
            "name": "baluniPoolFactory",
            "outputs": [
                {
                    "internalType": "address",
                    "name": "",
                    "type": "address"
                }
            ],
            "stateMutability": "view",
            "type": "function"
        },
        {
            "inputs": [],
            "name": "baluniPoolPeriphery",
            "outputs": [
                {
                    "internalType": "address",
                    "name": "",
                    "type": "address"
                }
            ],
            "stateMutability": "view",
            "type": "function"
        },
        {
            "inputs": [],
            "name": "baluniRebalancer",
            "outputs": [
                {
                    "internalType": "address",
                    "name": "",
                    "type": "address"
                }
            ],
            "stateMutability": "view",
            "type": "function"
        },
        {
            "inputs": [],
            "name": "baluniRegistry",
            "outputs": [
                {
                    "internalType": "address",
                    "name": "",
                    "type": "address"
                }
            ],
            "stateMutability": "view",
            "type": "function"
        },
        {
            "inputs": [],
            "name": "baluniRouter",
            "outputs": [
                {
                    "internalType": "address",
                    "name": "",
                    "type": "address"
                }
            ],
            "stateMutability": "view",
            "type": "function"
        },
        {
            "inputs": [],
            "name": "get1inchSpotAgg",
            "outputs": [
                {
                    "internalType": "address",
                    "name": "",
                    "type": "address"
                }
            ],
            "stateMutability": "view",
            "type": "function"
        },
        {
            "inputs": [],
            "name": "getBPS_BASE",
            "outputs": [
                {
                    "internalType": "uint256",
                    "name": "",
                    "type": "uint256"
                }
            ],
            "stateMutability": "view",
            "type": "function"
        },
        {
            "inputs": [],
            "name": "getBPS_FEE",
            "outputs": [
                {
                    "internalType": "uint256",
                    "name": "",
                    "type": "uint256"
                }
            ],
            "stateMutability": "view",
            "type": "function"
        },
        {
            "inputs": [],
            "name": "getBaluniAgentFactory",
            "outputs": [
                {
                    "internalType": "address",
                    "name": "",
                    "type": "address"
                }
            ],
            "stateMutability": "view",
            "type": "function"
        },
        {
            "inputs": [],
            "name": "getBaluniPoolFactory",
            "outputs": [
                {
                    "internalType": "address",
                    "name": "",
                    "type": "address"
                }
            ],
            "stateMutability": "view",
            "type": "function"
        },
        {
            "inputs": [],
            "name": "getBaluniPoolPeriphery",
            "outputs": [
                {
                    "internalType": "address",
                    "name": "",
                    "type": "address"
                }
            ],
            "stateMutability": "view",
            "type": "function"
        },
        {
            "inputs": [],
            "name": "getBaluniRebalancer",
            "outputs": [
                {
                    "internalType": "address",
                    "name": "",
                    "type": "address"
                }
            ],
            "stateMutability": "view",
            "type": "function"
        },
        {
            "inputs": [],
            "name": "getBaluniRegistry",
            "outputs": [
                {
                    "internalType": "address",
                    "name": "",
                    "type": "address"
                }
            ],
            "stateMutability": "view",
            "type": "function"
        },
        {
            "inputs": [],
            "name": "getBaluniRouter",
            "outputs": [
                {
                    "internalType": "address",
                    "name": "",
                    "type": "address"
                }
            ],
            "stateMutability": "view",
            "type": "function"
        },
        {
            "inputs": [],
            "name": "getMAX_BPS_FEE",
            "outputs": [
                {
                    "internalType": "uint256",
                    "name": "",
                    "type": "uint256"
                }
            ],
            "stateMutability": "view",
            "type": "function"
        },
        {
            "inputs": [],
            "name": "getTreasury",
            "outputs": [
                {
                    "internalType": "address",
                    "name": "",
                    "type": "address"
                }
            ],
            "stateMutability": "view",
            "type": "function"
        },
        {
            "inputs": [],
            "name": "getUSDC",
            "outputs": [
                {
                    "internalType": "address",
                    "name": "",
                    "type": "address"
                }
            ],
            "stateMutability": "view",
            "type": "function"
        },
        {
            "inputs": [],
            "name": "getUniswapFactory",
            "outputs": [
                {
                    "internalType": "address",
                    "name": "",
                    "type": "address"
                }
            ],
            "stateMutability": "view",
            "type": "function"
        },
        {
            "inputs": [],
            "name": "getUniswapRouter",
            "outputs": [
                {
                    "internalType": "address",
                    "name": "",
                    "type": "address"
                }
            ],
            "stateMutability": "view",
            "type": "function"
        },
        {
            "inputs": [],
            "name": "getWNATIVE",
            "outputs": [
                {
                    "internalType": "address",
                    "name": "",
                    "type": "address"
                }
            ],
            "stateMutability": "view",
            "type": "function"
        },
        {
            "inputs": [],
            "name": "initialize",
            "outputs": [],
            "stateMutability": "nonpayable",
            "type": "function"
        },
        {
            "inputs": [],
            "name": "owner",
            "outputs": [
                {
                    "internalType": "address",
                    "name": "",
                    "type": "address"
                }
            ],
            "stateMutability": "view",
            "type": "function"
        },
        {
            "inputs": [],
            "name": "proxiableUUID",
            "outputs": [
                {
                    "internalType": "bytes32",
                    "name": "",
                    "type": "bytes32"
                }
            ],
            "stateMutability": "view",
            "type": "function"
        },
        {
            "inputs": [],
            "name": "renounceOwnership",
            "outputs": [],
            "stateMutability": "nonpayable",
            "type": "function"
        },
        {
            "inputs": [
                {
                    "internalType": "address",
                    "name": "__1inchSpotAgg",
                    "type": "address"
                }
            ],
            "name": "set1inchSpotAgg",
            "outputs": [],
            "stateMutability": "nonpayable",
            "type": "function"
        },
        {
            "inputs": [
                {
                    "internalType": "uint256",
                    "name": "__BPS_FEE",
                    "type": "uint256"
                }
            ],
            "name": "setBPS_FEE",
            "outputs": [],
            "stateMutability": "nonpayable",
            "type": "function"
        },
        {
            "inputs": [
                {
                    "internalType": "address",
                    "name": "_baluniAgentFactory",
                    "type": "address"
                }
            ],
            "name": "setBaluniAgentFactory",
            "outputs": [],
            "stateMutability": "nonpayable",
            "type": "function"
        },
        {
            "inputs": [
                {
                    "internalType": "address",
                    "name": "_baluniPoolFactory",
                    "type": "address"
                }
            ],
            "name": "setBaluniPoolFactory",
            "outputs": [],
            "stateMutability": "nonpayable",
            "type": "function"
        },
        {
            "inputs": [
                {
                    "internalType": "address",
                    "name": "_baluniPoolPeriphery",
                    "type": "address"
                }
            ],
            "name": "setBaluniPoolPeriphery",
            "outputs": [],
            "stateMutability": "nonpayable",
            "type": "function"
        },
        {
            "inputs": [
                {
                    "internalType": "address",
                    "name": "_baluniRebalancer",
                    "type": "address"
                }
            ],
            "name": "setBaluniRebalancer",
            "outputs": [],
            "stateMutability": "nonpayable",
            "type": "function"
        },
        {
            "inputs": [
                {
                    "internalType": "address",
                    "name": "_baluniRegistry",
                    "type": "address"
                }
            ],
            "name": "setBaluniRegistry",
            "outputs": [],
            "stateMutability": "nonpayable",
            "type": "function"
        },
        {
            "inputs": [
                {
                    "internalType": "address",
                    "name": "_baluniRouter",
                    "type": "address"
                }
            ],
            "name": "setBaluniRouter",
            "outputs": [],
            "stateMutability": "nonpayable",
            "type": "function"
        },
        {
            "inputs": [
                {
                    "internalType": "address",
                    "name": "_treasury",
                    "type": "address"
                }
            ],
            "name": "setTreasury",
            "outputs": [],
            "stateMutability": "nonpayable",
            "type": "function"
        },
        {
            "inputs": [
                {
                    "internalType": "address",
                    "name": "_USDC",
                    "type": "address"
                }
            ],
            "name": "setUSDC",
            "outputs": [],
            "stateMutability": "nonpayable",
            "type": "function"
        },
        {
            "inputs": [
                {
                    "internalType": "address",
                    "name": "_uniswapFactory",
                    "type": "address"
                }
            ],
            "name": "setUniswapFactory",
            "outputs": [],
            "stateMutability": "nonpayable",
            "type": "function"
        },
        {
            "inputs": [
                {
                    "internalType": "address",
                    "name": "_uniswapRouter",
                    "type": "address"
                }
            ],
            "name": "setUniswapRouter",
            "outputs": [],
            "stateMutability": "nonpayable",
            "type": "function"
        },
        {
            "inputs": [
                {
                    "internalType": "address",
                    "name": "_WNATIVE",
                    "type": "address"
                }
            ],
            "name": "setWNATIVE",
            "outputs": [],
            "stateMutability": "nonpayable",
            "type": "function"
        },
        {
            "inputs": [
                {
                    "internalType": "address",
                    "name": "newOwner",
                    "type": "address"
                }
            ],
            "name": "transferOwnership",
            "outputs": [],
            "stateMutability": "nonpayable",
            "type": "function"
        },
        {
            "inputs": [],
            "name": "treasury",
            "outputs": [
                {
                    "internalType": "address",
                    "name": "",
                    "type": "address"
                }
            ],
            "stateMutability": "view",
            "type": "function"
        },
        {
            "inputs": [],
            "name": "uniswapFactory",
            "outputs": [
                {
                    "internalType": "address",
                    "name": "",
                    "type": "address"
                }
            ],
            "stateMutability": "view",
            "type": "function"
        },
        {
            "inputs": [],
            "name": "uniswapRouter",
            "outputs": [
                {
                    "internalType": "address",
                    "name": "",
                    "type": "address"
                }
            ],
            "stateMutability": "view",
            "type": "function"
        },
        {
            "inputs": [
                {
                    "internalType": "address",
                    "name": "newImplementation",
                    "type": "address"
                },
                {
                    "internalType": "bytes",
                    "name": "data",
                    "type": "bytes"
                }
            ],
            "name": "upgradeToAndCall",
            "outputs": [],
            "stateMutability": "payable",
            "type": "function"
        }
    ],
    "bytecode": "60a0604052306080523480156012575f80fd5b506080516112f66100395f395f8181610ccd01528181610cf60152610e3a01526112f65ff3fe6080604052600436106102bf575f3560e01c80638267c2c81161016f578063b691a419116100d8578063cff49d6811610092578063f0f442601161006d578063f0f4426014610835578063f1dccde714610854578063f2fde38b14610873578063f5d2d99814610892575f80fd5b8063cff49d68146107da578063e04b677f146107f7578063e528ca1214610816575f80fd5b8063b691a4191461072c578063b6fe9cc71461074b578063b9f5e6171461076a578063bea9849e1461077f578063c08f786b1461079e578063c9aba8ae146107bd575f80fd5b80638e1c3a8a116101295780638e1c3a8a146106615780639380fb6f1461067e5780639e6453f814610692578063ad3cb1cc146106b1578063b381cf40146106ee578063b3e089a21461070d575f80fd5b80638267c2c8146105a057806385377188146105bf57806385462d6f146105d457806389a30271146105e85780638bdb2afa146106075780638da5cb5b14610625575f80fd5b80634f4608a21161022b5780636c43274c116101e5578063735de9f7116101c0578063735de9f714610531578063782dd902146105505780637c6fd3081461056f5780638129fc1c1461058c575f80fd5b80636c43274c146104e15780636c9c007814610500578063715018a61461051d575f80fd5b80634f4608a21461043f578063524900b51461045357806352d1902d14610470578063588c5b701461048457806358a67233146104a357806361d027b3146104c2575f80fd5b806334decfc91161027c57806334decfc91461039257806339b65140146103b55780633b19e84a146103d45780633e6dfa36146103f1578063400fb6681461040d5780634f1ef2861461042c575f80fd5b80630241bffa146102c357806304cc7325146102e45780631292f02e1461031a5780631acb6141146103395780631bf01e9b14610356578063219ce33914610373575b5f80fd5b3480156102ce575f80fd5b506102e26102dd36600461113e565b6108af565b005b3480156102ef575f80fd5b506006546001600160a01b03165b6040516001600160a01b0390911681526020015b60405180910390f35b348015610325575f80fd5b506002546102fd906001600160a01b031681565b348015610344575f80fd5b506003546001600160a01b03166102fd565b348015610361575f80fd5b50600a546001600160a01b03166102fd565b34801561037e575f80fd5b506004546102fd906001600160a01b031681565b34801561039d575f80fd5b506103a7600c5481565b604051908152602001610311565b3480156103c0575f80fd5b506006546102fd906001600160a01b031681565b3480156103df575f80fd5b506008546001600160a01b03166102fd565b3480156103fc575f80fd5b505f546001600160a01b03166102fd565b348015610418575f80fd5b506102e261042736600461113e565b6108d9565b6102e261043a36600461116b565b610903565b34801561044a575f80fd5b50600e546103a7565b34801561045e575f80fd5b506001546001600160a01b03166102fd565b34801561047b575f80fd5b506103a7610922565b34801561048f575f80fd5b506102e261049e36600461113e565b61093d565b3480156104ae575f80fd5b506003546102fd906001600160a01b031681565b3480156104cd575f80fd5b506008546102fd906001600160a01b031681565b3480156104ec575f80fd5b506102e26104fb36600461113e565b610967565b34801561050b575f80fd5b506009546001600160a01b03166102fd565b348015610528575f80fd5b506102e2610991565b34801561053c575f80fd5b506001546102fd906001600160a01b031681565b34801561055b575f80fd5b50600b546102fd906001600160a01b031681565b34801561057a575f80fd5b506004546001600160a01b03166102fd565b348015610597575f80fd5b506102e26109a4565b3480156105ab575f80fd5b506102e26105ba36600461113e565b610ac9565b3480156105ca575f80fd5b506103a7600e5481565b3480156105df575f80fd5b50600d546103a7565b3480156105f3575f80fd5b50600a546102fd906001600160a01b031681565b348015610612575f80fd5b505f546102fd906001600160a01b031681565b348015610630575f80fd5b507f9016d09d72d40fdae2fd8ceac6b6234c7706214fd39c1cd1e609a0528c199300546001600160a01b03166102fd565b34801561066c575f80fd5b50600b546001600160a01b03166102fd565b348015610689575f80fd5b50600c546103a7565b34801561069d575f80fd5b506102e26106ac366004611227565b610af3565b3480156106bc575f80fd5b506106e1604051806040016040528060058152602001640352e302e360dc1b81525081565b604051610311919061123e565b3480156106f9575f80fd5b506009546102fd906001600160a01b031681565b348015610718575f80fd5b506102e261072736600461113e565b610b00565b348015610737575f80fd5b506005546102fd906001600160a01b031681565b348015610756575f80fd5b506102e261076536600461113e565b610b2a565b348015610775575f80fd5b506103a7600d5481565b34801561078a575f80fd5b506102e261079936600461113e565b610b54565b3480156107a9575f80fd5b506102e26107b836600461113e565b610b7e565b3480156107c8575f80fd5b506007546001600160a01b03166102fd565b3480156107e5575f80fd5b506005546001600160a01b03166102fd565b348015610802575f80fd5b506102e261081136600461113e565b610ba8565b348015610821575f80fd5b506007546102fd906001600160a01b031681565b348015610840575f80fd5b506102e261084f36600461113e565b610bd1565b34801561085f575f80fd5b506102e261086e36600461113e565b610bfb565b34801561087e575f80fd5b506102e261088d36600461113e565b610c25565b34801561089d575f80fd5b506002546001600160a01b03166102fd565b6108b7610c67565b600580546001600160a01b0319166001600160a01b0392909216919091179055565b6108e1610c67565b600680546001600160a01b0319166001600160a01b0392909216919091179055565b61090b610cc2565b61091482610d66565b61091e8282610d6e565b5050565b5f61092b610e2f565b505f805160206112a183398151915290565b610945610c67565b600380546001600160a01b0319166001600160a01b0392909216919091179055565b61096f610c67565b600780546001600160a01b0319166001600160a01b0392909216919091179055565b610999610c67565b6109a25f610e78565b565b7ff0c57e16840df040f15088dc2f81fe391c3923bec73e23a9662efc9c229c6a008054600160401b810460ff16159067ffffffffffffffff165f811580156109e95750825b90505f8267ffffffffffffffff166001148015610a055750303b155b905081158015610a13575080155b15610a315760405163f92ee8a960e01b815260040160405180910390fd5b845467ffffffffffffffff191660011785558315610a5b57845460ff60401b1916600160401b1785555b610a6433610ee8565b610a6c610ef9565b6064600c55601e600d55612710600e558315610ac257845460ff60401b19168555604051600181527fc7f505b2f371ae2175ee4913f4499e1f2633a7b5936321eed1cdaeb6115181d29060200160405180910390a15b5050505050565b610ad1610c67565b600480546001600160a01b0319166001600160a01b0392909216919091179055565b610afb610c67565b600d55565b610b08610c67565b600a80546001600160a01b0319166001600160a01b0392909216919091179055565b610b32610c67565b600980546001600160a01b0319166001600160a01b0392909216919091179055565b610b5c610c67565b600180546001600160a01b0319166001600160a01b0392909216919091179055565b610b86610c67565b600b80546001600160a01b0319166001600160a01b0392909216919091179055565b610bb0610c67565b5f80546001600160a01b0319166001600160a01b0392909216919091179055565b610bd9610c67565b600880546001600160a01b0319166001600160a01b0392909216919091179055565b610c03610c67565b600280546001600160a01b0319166001600160a01b0392909216919091179055565b610c2d610c67565b6001600160a01b038116610c5b57604051631e4fbdf760e01b81525f60048201526024015b60405180910390fd5b610c6481610e78565b50565b33610c997f9016d09d72d40fdae2fd8ceac6b6234c7706214fd39c1cd1e609a0528c199300546001600160a01b031690565b6001600160a01b0316146109a25760405163118cdaa760e01b8152336004820152602401610c52565b306001600160a01b037f0000000000000000000000000000000000000000000000000000000000000000161480610d4857507f00000000000000000000000000000000000000000000000000000000000000006001600160a01b0316610d3c5f805160206112a1833981519152546001600160a01b031690565b6001600160a01b031614155b156109a25760405163703e46dd60e11b815260040160405180910390fd5b610c64610c67565b816001600160a01b03166352d1902d6040518163ffffffff1660e01b8152600401602060405180830381865afa925050508015610dc8575060408051601f3d908101601f19168201909252610dc591810190611273565b60015b610df057604051634c9c8ce360e01b81526001600160a01b0383166004820152602401610c52565b5f805160206112a18339815191528114610e2057604051632a87526960e21b815260048101829052602401610c52565b610e2a8383610f01565b505050565b306001600160a01b037f000000000000000000000000000000000000000000000000000000000000000016146109a25760405163703e46dd60e11b815260040160405180910390fd5b7f9016d09d72d40fdae2fd8ceac6b6234c7706214fd39c1cd1e609a0528c19930080546001600160a01b031981166001600160a01b03848116918217845560405192169182907f8be0079c531659141344cd1fd0a4f28419497f9722a3daafe3b4186f6b6457e0905f90a3505050565b610ef0610f56565b610c6481610f9f565b6109a2610f56565b610f0a82610fa7565b6040516001600160a01b038316907fbc7cd75a20ee27fd9adebab32041f755214dbc6bffa90cc0225b39da2e5c2d3b905f90a2805115610f4e57610e2a828261100a565b61091e61107c565b7ff0c57e16840df040f15088dc2f81fe391c3923bec73e23a9662efc9c229c6a0054600160401b900460ff166109a257604051631afcd79f60e31b815260040160405180910390fd5b610c2d610f56565b806001600160a01b03163b5f03610fdc57604051634c9c8ce360e01b81526001600160a01b0382166004820152602401610c52565b5f805160206112a183398151915280546001600160a01b0319166001600160a01b0392909216919091179055565b60605f80846001600160a01b031684604051611026919061128a565b5f60405180830381855af49150503d805f811461105e576040519150601f19603f3d011682016040523d82523d5f602084013e611063565b606091505b509150915061107385838361109b565b95945050505050565b34156109a25760405163b398979f60e01b815260040160405180910390fd5b6060826110b0576110ab826110fa565b6110f3565b81511580156110c757506001600160a01b0384163b155b156110f057604051639996b31560e01b81526001600160a01b0385166004820152602401610c52565b50805b9392505050565b80511561110a5780518082602001fd5b604051630a12f52160e11b815260040160405180910390fd5b80356001600160a01b0381168114611139575f80fd5b919050565b5f6020828403121561114e575f80fd5b6110f382611123565b634e487b7160e01b5f52604160045260245ffd5b5f806040838503121561117c575f80fd5b61118583611123565b9150602083013567ffffffffffffffff808211156111a1575f80fd5b818501915085601f8301126111b4575f80fd5b8135818111156111c6576111c6611157565b604051601f8201601f19908116603f011681019083821181831017156111ee576111ee611157565b81604052828152886020848701011115611206575f80fd5b826020860160208301375f6020848301015280955050505050509250929050565b5f60208284031215611237575f80fd5b5035919050565b602081525f82518060208401528060208501604085015e5f604082850101526040601f19601f83011684010191505092915050565b5f60208284031215611283575f80fd5b5051919050565b5f82518060208501845e5f92019182525091905056fe360894a13ba1a3210667c828492db98dca3e2076cc3735a920a3ca505d382bbca2646970667358221220f58e79e32a1edaccf7a3f14ebdb7a3a46b562889621a5f435b0fc4ecad0de97e64736f6c63430008190033",
    "sourcePath": "c:/Users/Utente/Source/repos/baluni-contracts/contracts/BaluniV1Registry.sol",
    "compiler": {
        "name": "solc",
        "version": "0.8.25+commit.b61c2a91"
    },
    "functionHashes": {
        "UPGRADE_INTERFACE_VERSION()": "ad3cb1cc",
        "USDC()": "89a30271",
        "WNATIVE()": "b381cf40",
        "_1inchSpotAgg()": "782dd902",
        "_BPS_BASE()": "85377188",
        "_BPS_FEE()": "b9f5e617",
        "_MAX_BPS_FEE()": "34decfc9",
        "baluniAgentFactory()": "1292f02e",
        "baluniPoolFactory()": "219ce339",
        "baluniPoolPeriphery()": "58a67233",
        "baluniRebalancer()": "b691a419",
        "baluniRegistry()": "e528ca12",
        "baluniRouter()": "39b65140",
        "get1inchSpotAgg()": "8e1c3a8a",
        "getBPS_BASE()": "4f4608a2",
        "getBPS_FEE()": "85462d6f",
        "getBaluniAgentFactory()": "f5d2d998",
        "getBaluniPoolFactory()": "7c6fd308",
        "getBaluniPoolPeriphery()": "1acb6141",
        "getBaluniRebalancer()": "cff49d68",
        "getBaluniRegistry()": "c9aba8ae",
        "getBaluniRouter()": "04cc7325",
        "getMAX_BPS_FEE()": "9380fb6f",
        "getTreasury()": "3b19e84a",
        "getUSDC()": "1bf01e9b",
        "getUniswapFactory()": "3e6dfa36",
        "getUniswapRouter()": "524900b5",
        "getWNATIVE()": "6c9c0078",
        "initialize()": "8129fc1c",
        "owner()": "8da5cb5b",
        "proxiableUUID()": "52d1902d",
        "renounceOwnership()": "715018a6",
        "set1inchSpotAgg(address)": "c08f786b",
        "setBPS_FEE(uint256)": "9e6453f8",
        "setBaluniAgentFactory(address)": "f1dccde7",
        "setBaluniPoolFactory(address)": "8267c2c8",
        "setBaluniPoolPeriphery(address)": "588c5b70",
        "setBaluniRebalancer(address)": "0241bffa",
        "setBaluniRegistry(address)": "6c43274c",
        "setBaluniRouter(address)": "400fb668",
        "setTreasury(address)": "f0f44260",
        "setUSDC(address)": "b3e089a2",
        "setUniswapFactory(address)": "e04b677f",
        "setUniswapRouter(address)": "bea9849e",
        "setWNATIVE(address)": "b6fe9cc7",
        "transferOwnership(address)": "f2fde38b",
        "treasury()": "61d027b3",
        "uniswapFactory()": "8bdb2afa",
        "uniswapRouter()": "735de9f7",
        "upgradeToAndCall(address,bytes)": "4f1ef286"
    },
    "gasEstimates": {
        "creation": {
            "codeDepositCost": "970800",
            "executionCost": "infinite",
            "totalCost": "infinite"
        },
        "external": {
            "UPGRADE_INTERFACE_VERSION()": "infinite",
            "USDC()": "2437",
            "WNATIVE()": "2458",
            "_1inchSpotAgg()": "2414",
            "_BPS_BASE()": "2362",
            "_BPS_FEE()": "2383",
            "_MAX_BPS_FEE()": "2340",
            "baluniAgentFactory()": "2416",
            "baluniPoolFactory()": "2482",
            "baluniPoolPeriphery()": "2459",
            "baluniRebalancer()": "2370",
            "baluniRegistry()": "2436",
            "baluniRouter()": "2393",
            "get1inchSpotAgg()": "2364",
            "getBPS_BASE()": "2337",
            "getBPS_FEE()": "2381",
            "getBaluniAgentFactory()": "2451",
            "getBaluniPoolFactory()": "2430",
            "getBaluniPoolPeriphery()": "2432",
            "getBaluniRebalancer()": "2386",
            "getBaluniRegistry()": "2474",
            "getBaluniRouter()": "2377",
            "getMAX_BPS_FEE()": "2358",
            "getTreasury()": "2409",
            "getUSDC()": "2454",
            "getUniswapFactory()": "2430",
            "getUniswapRouter()": "2387",
            "getWNATIVE()": "2409",
            "initialize()": "infinite",
            "owner()": "2475",
            "proxiableUUID()": "infinite",
            "renounceOwnership()": "infinite",
            "set1inchSpotAgg(address)": "26899",
            "setBPS_FEE(uint256)": "24608",
            "setBaluniAgentFactory(address)": "26854",
            "setBaluniPoolFactory(address)": "26812",
            "setBaluniPoolPeriphery(address)": "26878",
            "setBaluniRebalancer(address)": "26813",
            "setBaluniRegistry(address)": "26834",
            "setBaluniRouter(address)": "26900",
            "setTreasury(address)": "26832",
            "setUSDC(address)": "26921",
            "setUniswapFactory(address)": "26854",
            "setUniswapRouter(address)": "26877",
            "setWNATIVE(address)": "26833",
            "transferOwnership(address)": "28475",
            "treasury()": "2481",
            "uniswapFactory()": "2458",
            "uniswapRouter()": "2392",
            "upgradeToAndCall(address,bytes)": "infinite"
        },
        "internal": {
            "_authorizeUpgrade(address)": "infinite"
        }
    }
}