{
    "contractName": "BaluniV1Router",
    "abi": [
        {
            "inputs": [
                {
                    "internalType": "address",
                    "name": "target",
                    "type": "address"
                }
            ],
            "name": "AddressEmptyCode",
            "type": "error"
        },
        {
            "inputs": [
                {
                    "internalType": "address",
                    "name": "implementation",
                    "type": "address"
                }
            ],
            "name": "ERC1967InvalidImplementation",
            "type": "error"
        },
        {
            "inputs": [],
            "name": "ERC1967NonPayable",
            "type": "error"
        },
        {
            "inputs": [
                {
                    "internalType": "address",
                    "name": "spender",
                    "type": "address"
                },
                {
                    "internalType": "uint256",
                    "name": "allowance",
                    "type": "uint256"
                },
                {
                    "internalType": "uint256",
                    "name": "needed",
                    "type": "uint256"
                }
            ],
            "name": "ERC20InsufficientAllowance",
            "type": "error"
        },
        {
            "inputs": [
                {
                    "internalType": "address",
                    "name": "sender",
                    "type": "address"
                },
                {
                    "internalType": "uint256",
                    "name": "balance",
                    "type": "uint256"
                },
                {
                    "internalType": "uint256",
                    "name": "needed",
                    "type": "uint256"
                }
            ],
            "name": "ERC20InsufficientBalance",
            "type": "error"
        },
        {
            "inputs": [
                {
                    "internalType": "address",
                    "name": "approver",
                    "type": "address"
                }
            ],
            "name": "ERC20InvalidApprover",
            "type": "error"
        },
        {
            "inputs": [
                {
                    "internalType": "address",
                    "name": "receiver",
                    "type": "address"
                }
            ],
            "name": "ERC20InvalidReceiver",
            "type": "error"
        },
        {
            "inputs": [
                {
                    "internalType": "address",
                    "name": "sender",
                    "type": "address"
                }
            ],
            "name": "ERC20InvalidSender",
            "type": "error"
        },
        {
            "inputs": [
                {
                    "internalType": "address",
                    "name": "spender",
                    "type": "address"
                }
            ],
            "name": "ERC20InvalidSpender",
            "type": "error"
        },
        {
            "inputs": [],
            "name": "FailedInnerCall",
            "type": "error"
        },
        {
            "inputs": [],
            "name": "InvalidInitialization",
            "type": "error"
        },
        {
            "inputs": [],
            "name": "NotInitializing",
            "type": "error"
        },
        {
            "inputs": [
                {
                    "internalType": "address",
                    "name": "owner",
                    "type": "address"
                }
            ],
            "name": "OwnableInvalidOwner",
            "type": "error"
        },
        {
            "inputs": [
                {
                    "internalType": "address",
                    "name": "account",
                    "type": "address"
                }
            ],
            "name": "OwnableUnauthorizedAccount",
            "type": "error"
        },
        {
            "inputs": [],
            "name": "ReentrancyGuardReentrantCall",
            "type": "error"
        },
        {
            "inputs": [],
            "name": "UUPSUnauthorizedCallContext",
            "type": "error"
        },
        {
            "inputs": [
                {
                    "internalType": "bytes32",
                    "name": "slot",
                    "type": "bytes32"
                }
            ],
            "name": "UUPSUnsupportedProxiableUUID",
            "type": "error"
        },
        {
            "anonymous": false,
            "inputs": [
                {
                    "indexed": true,
                    "internalType": "address",
                    "name": "owner",
                    "type": "address"
                },
                {
                    "indexed": true,
                    "internalType": "address",
                    "name": "spender",
                    "type": "address"
                },
                {
                    "indexed": false,
                    "internalType": "uint256",
                    "name": "value",
                    "type": "uint256"
                }
            ],
            "name": "Approval",
            "type": "event"
        },
        {
            "anonymous": false,
            "inputs": [
                {
                    "indexed": false,
                    "internalType": "address",
                    "name": "user",
                    "type": "address"
                },
                {
                    "indexed": false,
                    "internalType": "uint256",
                    "name": "value",
                    "type": "uint256"
                }
            ],
            "name": "Burn",
            "type": "event"
        },
        {
            "anonymous": false,
            "inputs": [
                {
                    "indexed": false,
                    "internalType": "address",
                    "name": "user",
                    "type": "address"
                },
                {
                    "components": [
                        {
                            "internalType": "address",
                            "name": "to",
                            "type": "address"
                        },
                        {
                            "internalType": "uint256",
                            "name": "value",
                            "type": "uint256"
                        },
                        {
                            "internalType": "bytes",
                            "name": "data",
                            "type": "bytes"
                        }
                    ],
                    "indexed": false,
                    "internalType": "struct IBaluniV1Agent.Call[]",
                    "name": "calls",
                    "type": "tuple[]"
                },
                {
                    "indexed": false,
                    "internalType": "address[]",
                    "name": "tokensReturn",
                    "type": "address[]"
                }
            ],
            "name": "Execute",
            "type": "event"
        },
        {
            "anonymous": false,
            "inputs": [
                {
                    "indexed": false,
                    "internalType": "uint64",
                    "name": "version",
                    "type": "uint64"
                }
            ],
            "name": "Initialized",
            "type": "event"
        },
        {
            "anonymous": false,
            "inputs": [
                {
                    "indexed": false,
                    "internalType": "string",
                    "name": "message",
                    "type": "string"
                },
                {
                    "indexed": false,
                    "internalType": "uint256",
                    "name": "value",
                    "type": "uint256"
                }
            ],
            "name": "Log",
            "type": "event"
        },
        {
            "anonymous": false,
            "inputs": [
                {
                    "indexed": false,
                    "internalType": "address",
                    "name": "user",
                    "type": "address"
                },
                {
                    "indexed": false,
                    "internalType": "uint256",
                    "name": "value",
                    "type": "uint256"
                }
            ],
            "name": "Mint",
            "type": "event"
        },
        {
            "anonymous": false,
            "inputs": [
                {
                    "indexed": true,
                    "internalType": "address",
                    "name": "previousOwner",
                    "type": "address"
                },
                {
                    "indexed": true,
                    "internalType": "address",
                    "name": "newOwner",
                    "type": "address"
                }
            ],
            "name": "OwnershipTransferred",
            "type": "event"
        },
        {
            "anonymous": false,
            "inputs": [
                {
                    "indexed": true,
                    "internalType": "address",
                    "name": "from",
                    "type": "address"
                },
                {
                    "indexed": true,
                    "internalType": "address",
                    "name": "to",
                    "type": "address"
                },
                {
                    "indexed": false,
                    "internalType": "uint256",
                    "name": "value",
                    "type": "uint256"
                }
            ],
            "name": "Transfer",
            "type": "event"
        },
        {
            "anonymous": false,
            "inputs": [
                {
                    "indexed": true,
                    "internalType": "address",
                    "name": "implementation",
                    "type": "address"
                }
            ],
            "name": "Upgraded",
            "type": "event"
        },
        {
            "inputs": [],
            "name": "UPGRADE_INTERFACE_VERSION",
            "outputs": [
                {
                    "internalType": "string",
                    "name": "",
                    "type": "string"
                }
            ],
            "stateMutability": "view",
            "type": "function"
        },
        {
            "inputs": [
                {
                    "internalType": "address",
                    "name": "owner",
                    "type": "address"
                },
                {
                    "internalType": "address",
                    "name": "spender",
                    "type": "address"
                }
            ],
            "name": "allowance",
            "outputs": [
                {
                    "internalType": "uint256",
                    "name": "",
                    "type": "uint256"
                }
            ],
            "stateMutability": "view",
            "type": "function"
        },
        {
            "inputs": [
                {
                    "internalType": "address",
                    "name": "spender",
                    "type": "address"
                },
                {
                    "internalType": "uint256",
                    "name": "value",
                    "type": "uint256"
                }
            ],
            "name": "approve",
            "outputs": [
                {
                    "internalType": "bool",
                    "name": "",
                    "type": "bool"
                }
            ],
            "stateMutability": "nonpayable",
            "type": "function"
        },
        {
            "inputs": [
                {
                    "internalType": "address",
                    "name": "account",
                    "type": "address"
                }
            ],
            "name": "balanceOf",
            "outputs": [
                {
                    "internalType": "uint256",
                    "name": "",
                    "type": "uint256"
                }
            ],
            "stateMutability": "view",
            "type": "function"
        },
        {
            "inputs": [
                {
                    "internalType": "uint256",
                    "name": "burnAmount",
                    "type": "uint256"
                }
            ],
            "name": "burnERC20",
            "outputs": [],
            "stateMutability": "nonpayable",
            "type": "function"
        },
        {
            "inputs": [
                {
                    "internalType": "uint256",
                    "name": "burnAmount",
                    "type": "uint256"
                }
            ],
            "name": "burnUSDC",
            "outputs": [],
            "stateMutability": "nonpayable",
            "type": "function"
        },
        {
            "inputs": [
                {
                    "internalType": "uint256",
                    "name": "totalBaluni",
                    "type": "uint256"
                },
                {
                    "internalType": "uint256",
                    "name": "totalERC20Balance",
                    "type": "uint256"
                },
                {
                    "internalType": "uint256",
                    "name": "baluniAmount",
                    "type": "uint256"
                },
                {
                    "internalType": "uint256",
                    "name": "tokenDecimals",
                    "type": "uint256"
                }
            ],
            "name": "calculateTokenShare",
            "outputs": [
                {
                    "internalType": "uint256",
                    "name": "",
                    "type": "uint256"
                }
            ],
            "stateMutability": "pure",
            "type": "function"
        },
        {
            "inputs": [
                {
                    "internalType": "address[]",
                    "name": "assets",
                    "type": "address[]"
                },
                {
                    "internalType": "uint256[]",
                    "name": "weights",
                    "type": "uint256[]"
                },
                {
                    "internalType": "address",
                    "name": "sender",
                    "type": "address"
                },
                {
                    "internalType": "address",
                    "name": "receiver",
                    "type": "address"
                },
                {
                    "internalType": "uint256",
                    "name": "limit",
                    "type": "uint256"
                },
                {
                    "internalType": "address",
                    "name": "",
                    "type": "address"
                }
            ],
            "name": "callRebalance",
            "outputs": [],
            "stateMutability": "nonpayable",
            "type": "function"
        },
        {
            "inputs": [],
            "name": "decimals",
            "outputs": [
                {
                    "internalType": "uint8",
                    "name": "",
                    "type": "uint8"
                }
            ],
            "stateMutability": "view",
            "type": "function"
        },
        {
            "inputs": [
                {
                    "components": [
                        {
                            "internalType": "address",
                            "name": "to",
                            "type": "address"
                        },
                        {
                            "internalType": "uint256",
                            "name": "value",
                            "type": "uint256"
                        },
                        {
                            "internalType": "bytes",
                            "name": "data",
                            "type": "bytes"
                        }
                    ],
                    "internalType": "struct IBaluniV1Agent.Call[]",
                    "name": "calls",
                    "type": "tuple[]"
                },
                {
                    "internalType": "address[]",
                    "name": "tokensReturn",
                    "type": "address[]"
                }
            ],
            "name": "execute",
            "outputs": [],
            "stateMutability": "nonpayable",
            "type": "function"
        },
        {
            "inputs": [
                {
                    "internalType": "address",
                    "name": "_user",
                    "type": "address"
                }
            ],
            "name": "getAgentAddress",
            "outputs": [
                {
                    "internalType": "address",
                    "name": "",
                    "type": "address"
                }
            ],
            "stateMutability": "view",
            "type": "function"
        },
        {
            "inputs": [],
            "name": "getTokens",
            "outputs": [
                {
                    "internalType": "address[]",
                    "name": "",
                    "type": "address[]"
                }
            ],
            "stateMutability": "view",
            "type": "function"
        },
        {
            "inputs": [
                {
                    "internalType": "uint256",
                    "name": "amount",
                    "type": "uint256"
                }
            ],
            "name": "getUSDCShareValue",
            "outputs": [
                {
                    "internalType": "uint256",
                    "name": "",
                    "type": "uint256"
                }
            ],
            "stateMutability": "view",
            "type": "function"
        },
        {
            "inputs": [],
            "name": "getVersion",
            "outputs": [
                {
                    "internalType": "uint64",
                    "name": "",
                    "type": "uint64"
                }
            ],
            "stateMutability": "view",
            "type": "function"
        },
        {
            "inputs": [
                {
                    "internalType": "address",
                    "name": "_registry",
                    "type": "address"
                }
            ],
            "name": "initialize",
            "outputs": [],
            "stateMutability": "nonpayable",
            "type": "function"
        },
        {
            "inputs": [
                {
                    "internalType": "address",
                    "name": "token",
                    "type": "address"
                }
            ],
            "name": "liquidate",
            "outputs": [],
            "stateMutability": "nonpayable",
            "type": "function"
        },
        {
            "inputs": [],
            "name": "liquidateAll",
            "outputs": [],
            "stateMutability": "nonpayable",
            "type": "function"
        },
        {
            "inputs": [
                {
                    "internalType": "uint256",
                    "name": "balAmountToMint",
                    "type": "uint256"
                }
            ],
            "name": "mintWithUSDC",
            "outputs": [],
            "stateMutability": "nonpayable",
            "type": "function"
        },
        {
            "inputs": [
                {
                    "internalType": "address",
                    "name": "token0",
                    "type": "address"
                },
                {
                    "internalType": "address",
                    "name": "token1",
                    "type": "address"
                },
                {
                    "internalType": "address",
                    "name": "token2",
                    "type": "address"
                },
                {
                    "internalType": "uint256",
                    "name": "amount",
                    "type": "uint256"
                },
                {
                    "internalType": "address",
                    "name": "receiver",
                    "type": "address"
                }
            ],
            "name": "multiHopSwap",
            "outputs": [
                {
                    "internalType": "uint256",
                    "name": "amountOut",
                    "type": "uint256"
                }
            ],
            "stateMutability": "nonpayable",
            "type": "function"
        },
        {
            "inputs": [],
            "name": "name",
            "outputs": [
                {
                    "internalType": "string",
                    "name": "",
                    "type": "string"
                }
            ],
            "stateMutability": "view",
            "type": "function"
        },
        {
            "inputs": [],
            "name": "owner",
            "outputs": [
                {
                    "internalType": "address",
                    "name": "",
                    "type": "address"
                }
            ],
            "stateMutability": "view",
            "type": "function"
        },
        {
            "inputs": [],
            "name": "proxiableUUID",
            "outputs": [
                {
                    "internalType": "bytes32",
                    "name": "",
                    "type": "bytes32"
                }
            ],
            "stateMutability": "view",
            "type": "function"
        },
        {
            "inputs": [],
            "name": "registry",
            "outputs": [
                {
                    "internalType": "contract IBaluniV1Registry",
                    "name": "",
                    "type": "address"
                }
            ],
            "stateMutability": "view",
            "type": "function"
        },
        {
            "inputs": [
                {
                    "internalType": "address",
                    "name": "_registry",
                    "type": "address"
                },
                {
                    "internalType": "uint64",
                    "name": "version",
                    "type": "uint64"
                }
            ],
            "name": "reinitialize",
            "outputs": [],
            "stateMutability": "nonpayable",
            "type": "function"
        },
        {
            "inputs": [],
            "name": "renounceOwnership",
            "outputs": [],
            "stateMutability": "nonpayable",
            "type": "function"
        },
        {
            "inputs": [
                {
                    "internalType": "uint256",
                    "name": "balAmountToMint",
                    "type": "uint256"
                }
            ],
            "name": "requiredUSDCtoMint",
            "outputs": [
                {
                    "internalType": "uint256",
                    "name": "",
                    "type": "uint256"
                }
            ],
            "stateMutability": "view",
            "type": "function"
        },
        {
            "inputs": [
                {
                    "internalType": "address",
                    "name": "_registry",
                    "type": "address"
                }
            ],
            "name": "resetContract",
            "outputs": [],
            "stateMutability": "nonpayable",
            "type": "function"
        },
        {
            "inputs": [
                {
                    "internalType": "address",
                    "name": "token0",
                    "type": "address"
                },
                {
                    "internalType": "address",
                    "name": "token1",
                    "type": "address"
                },
                {
                    "internalType": "uint256",
                    "name": "amount",
                    "type": "uint256"
                },
                {
                    "internalType": "address",
                    "name": "receiver",
                    "type": "address"
                }
            ],
            "name": "singleSwap",
            "outputs": [
                {
                    "internalType": "uint256",
                    "name": "amountOut",
                    "type": "uint256"
                }
            ],
            "stateMutability": "nonpayable",
            "type": "function"
        },
        {
            "inputs": [],
            "name": "symbol",
            "outputs": [
                {
                    "internalType": "string",
                    "name": "",
                    "type": "string"
                }
            ],
            "stateMutability": "view",
            "type": "function"
        },
        {
            "inputs": [
                {
                    "internalType": "uint256",
                    "name": "amount",
                    "type": "uint256"
                },
                {
                    "internalType": "address",
                    "name": "token",
                    "type": "address"
                }
            ],
            "name": "tokenValuation",
            "outputs": [
                {
                    "internalType": "uint256",
                    "name": "",
                    "type": "uint256"
                }
            ],
            "stateMutability": "view",
            "type": "function"
        },
        {
            "inputs": [],
            "name": "totalSupply",
            "outputs": [
                {
                    "internalType": "uint256",
                    "name": "",
                    "type": "uint256"
                }
            ],
            "stateMutability": "view",
            "type": "function"
        },
        {
            "inputs": [],
            "name": "totalValuation",
            "outputs": [
                {
                    "internalType": "uint256",
                    "name": "",
                    "type": "uint256"
                }
            ],
            "stateMutability": "view",
            "type": "function"
        },
        {
            "inputs": [
                {
                    "internalType": "address",
                    "name": "to",
                    "type": "address"
                },
                {
                    "internalType": "uint256",
                    "name": "value",
                    "type": "uint256"
                }
            ],
            "name": "transfer",
            "outputs": [
                {
                    "internalType": "bool",
                    "name": "",
                    "type": "bool"
                }
            ],
            "stateMutability": "nonpayable",
            "type": "function"
        },
        {
            "inputs": [
                {
                    "internalType": "address",
                    "name": "from",
                    "type": "address"
                },
                {
                    "internalType": "address",
                    "name": "to",
                    "type": "address"
                },
                {
                    "internalType": "uint256",
                    "name": "value",
                    "type": "uint256"
                }
            ],
            "name": "transferFrom",
            "outputs": [
                {
                    "internalType": "bool",
                    "name": "",
                    "type": "bool"
                }
            ],
            "stateMutability": "nonpayable",
            "type": "function"
        },
        {
            "inputs": [
                {
                    "internalType": "address",
                    "name": "newOwner",
                    "type": "address"
                }
            ],
            "name": "transferOwnership",
            "outputs": [],
            "stateMutability": "nonpayable",
            "type": "function"
        },
        {
            "inputs": [],
            "name": "unitPrice",
            "outputs": [
                {
                    "internalType": "uint256",
                    "name": "",
                    "type": "uint256"
                }
            ],
            "stateMutability": "view",
            "type": "function"
        },
        {
            "inputs": [
                {
                    "internalType": "address",
                    "name": "newImplementation",
                    "type": "address"
                },
                {
                    "internalType": "bytes",
                    "name": "data",
                    "type": "bytes"
                }
            ],
            "name": "upgradeToAndCall",
            "outputs": [],
            "stateMutability": "payable",
            "type": "function"
        }
    ],
    "bytecode": "60a0604052306080523480156012575f80fd5b5060805161541f6100395f395f8181613b8101528181613baa0152613ce9015261541f5ff3fe608060405260043610610212575f3560e01c806370a082311161011e578063aa95d893116100a8578063e73faa2d1161006d578063e73faa2d1461062c578063eedc3c5014610640578063f2fde38b1461065f578063fe0a4dd11461067e578063fe330a511461069d575f80fd5b8063aa95d89314610580578063ad3cb1cc1461059f578063c4d66de8146105cf578063dd62ed3e146105ee578063e67ad7591461060d575f80fd5b80638da5cb5b116100ee5780638da5cb5b146104d15780638f2248bc1461050d57806395d89b411461052c578063a9059cbb14610540578063aa6ca8081461055f575f80fd5b806370a0823114610460578063715018a61461047f57806371ddcfb8146104935780637b103999146104b2575f80fd5b80632bdd955a1161019f5780633c2066a91161016f5780633c2066a9146103e75780634f1ef286146103fb57806352d1902d1461040e578063599f69f7146104225780635efaaebb14610441575f80fd5b80632bdd955a1461036f5780632d6bc8ea1461038e5780632f865568146103ad578063313ce567146103cc575f80fd5b806318160ddd116101e557806318160ddd146102bc5780631a168da2146102e657806323b872dd1461030557806327d54a9214610324578063295b93001461035b575f80fd5b806306fdde0314610216578063095ea7b3146102405780630cfc73861461026f5780630d8e6e2c14610290575b5f80fd5b348015610221575f80fd5b5061022a6106bc565b6040516102379190614717565b60405180910390f35b34801561024b575f80fd5b5061025f61025a36600461473d565b61077c565b6040519015158152602001610237565b34801561027a575f80fd5b5061028e610289366004614767565b610795565b005b34801561029b575f80fd5b506102a4610d34565b6040516001600160401b039091168152602001610237565b3480156102c7575f80fd5b505f8051602061536a833981519152545b604051908152602001610237565b3480156102f1575f80fd5b5061028e610300366004614767565b610d58565b348015610310575f80fd5b5061025f61031f36600461477e565b6110b1565b34801561032f575f80fd5b5061034361033e3660046147bc565b6110d6565b6040516001600160a01b039091168152602001610237565b348015610366575f80fd5b506102d86111b8565b34801561037a575f80fd5b506102d86103893660046147d7565b6111c1565b348015610399575f80fd5b506102d86103a8366004614805565b6111cc565b3480156103b8575f80fd5b5061028e6103c73660046147bc565b611381565b3480156103d7575f80fd5b5060405160128152602001610237565b3480156103f2575f80fd5b5061028e61165f565b61028e61040936600461492c565b6116b8565b348015610419575f80fd5b506102d86116d7565b34801561042d575f80fd5b5061028e61043c3660046149bf565b6116f2565b34801561044c575f80fd5b506102d861045b366004614a69565b61184f565b34801561046b575f80fd5b506102d861047a3660046147bc565b611a06565b34801561048a575f80fd5b5061028e611a2c565b34801561049e575f80fd5b506102d86104ad366004614767565b611a3d565b3480156104bd575f80fd5b50600354610343906001600160a01b031681565b3480156104dc575f80fd5b507f9016d09d72d40fdae2fd8ceac6b6234c7706214fd39c1cd1e609a0528c199300546001600160a01b0316610343565b348015610518575f80fd5b5061028e610527366004614acd565b611a47565b348015610537575f80fd5b5061022a611b1d565b34801561054b575f80fd5b5061025f61055a36600461473d565b611b5b565b34801561056a575f80fd5b50610573611b68565b6040516102379190614b47565b34801561058b575f80fd5b506102d861059a366004614767565b611b74565b3480156105aa575f80fd5b5061022a604051806040016040528060058152602001640352e302e360dc1b81525081565b3480156105da575f80fd5b5061028e6105e93660046147bc565b611bbf565b3480156105f9575f80fd5b506102d8610608366004614b59565b611d3b565b348015610618575f80fd5b5061028e6106273660046147bc565b611d84565b348015610637575f80fd5b506102d8611dae565b34801561064b575f80fd5b5061028e61065a366004614c1c565b611dc0565b34801561066a575f80fd5b5061028e6106793660046147bc565b612808565b348015610689575f80fd5b5061028e610698366004614767565b612842565b3480156106a8575f80fd5b506102d86106b7366004614d2a565b612f72565b7f52c63247e1f47db19d5ce0460030c497f067ca4cebf71ba98eeadabe20bace0380546060915f8051602061534a833981519152916106fa90614d59565b80601f016020809104026020016040519081016040528092919081815260200182805461072690614d59565b80156107715780601f1061074857610100808354040283529160200191610771565b820191905f5260205f20905b81548152906001019060200180831161075457829003601f168201915b505050505091505090565b5f33610789818585612f7f565b60019150505b92915050565b61079d612f91565b60035460408051631d8cf42560e11b815290515f926001600160a01b031691633b19e84a9160048083019260209291908290030181865afa1580156107e4573d5f803e3d5ffd5b505050506040513d601f19601f820116820180604052508101906108089190614d8b565b90505f60035f9054906101000a90046001600160a01b03166001600160a01b0316631bf01e9b6040518163ffffffff1660e01b8152600401602060405180830381865afa15801561085b573d5f803e3d5ffd5b505050506040513d601f19601f8201168201806040525081019061087f9190614d8b565b90505f60035f9054906101000a90046001600160a01b03166001600160a01b03166385462d6f6040518163ffffffff1660e01b8152600401602060405180830381865afa1580156108d2573d5f803e3d5ffd5b505050506040513d601f19601f820116820180604052508101906108f69190614da6565b90505f60035f9054906101000a90046001600160a01b03166001600160a01b0316634f4608a26040518163ffffffff1660e01b8152600401602060405180830381865afa158015610949573d5f803e3d5ffd5b505050506040513d601f19601f8201168201806040525081019061096d9190614da6565b90505f610978612fc8565b90505f6109905f8051602061536a8339815191525490565b90505f8161099e848a614dd1565b6109a89190614de8565b90506001600160a01b0386166323b872dd33306109ca64e8d4a5100086614de8565b6040516001600160e01b031960e086901b1681526001600160a01b03938416600482015292909116602483015260448201526064016020604051808303815f875af1158015610a1b573d5f803e3d5ffd5b505050506040513d601f19601f82011682018060405250810190610a3f9190614e07565b506040516370a0823160e01b81523360048201525f906001600160a01b038816906370a0823190602401602060405180830381865afa158015610a84573d5f803e3d5ffd5b505050506040513d601f19601f82011682018060405250810190610aa89190614da6565b604051636eb1769f60e11b81523360048201523060248201529091505f906001600160a01b0389169063dd62ed3e90604401602060405180830381865afa158015610af5573d5f803e3d5ffd5b505050506040513d601f19601f82011682018060405250810190610b199190614da6565b90505f8411610b7a5760405162461bcd60e51b815260206004820152602260248201527f546f74616c2042414c554e4920737570706c792063616e6e6f74206265207a65604482015261726f60f01b60648201526084015b60405180910390fd5b610b8964e8d4a5100084614de8565b821015610bd85760405162461bcd60e51b815260206004820152601c60248201527f555344432062616c616e636520697320696e73756666696369656e74000000006044820152606401610b71565b610be764e8d4a5100084614de8565b811015610c365760405162461bcd60e51b815260206004820152601960248201527f436865636b2074686520746f6b656e20616c6c6f77616e6365000000000000006044820152606401610b71565b610c40338b613084565b7f0f6798a560793a54c3bcfe86a93cde1e73087d944c0ea20544137d4121396885338b604051610c71929190614e26565b60405180910390a15f8688610c8b64e8d4a5100087614de8565b610c959190614dd1565b610c9f9190614de8565b60405163a9059cbb60e01b81529091506001600160a01b038a169063a9059cbb90610cd0908d908590600401614e26565b6020604051808303815f875af1158015610cec573d5f803e3d5ffd5b505050506040513d601f19601f82011682018060405250810190610d109190614e07565b5050505050505050505050610d3160015f805160206153aa83398151915255565b50565b5f610d535f805160206153ca833981519152546001600160401b031690565b905090565b610d60612f91565b60035460408051631d8cf42560e11b815290515f926001600160a01b031691633b19e84a9160048083019260209291908290030181865afa158015610da7573d5f803e3d5ffd5b505050506040513d601f19601f82011682018060405250810190610dcb9190614d8b565b905081610dd733611a06565b1015610e185760405162461bcd60e51b815260206004820152601060248201526f125b9cdd59999a58da595b9d0810905360821b6044820152606401610b71565b5f5b610e2460016130cb565b811015611056575f610e376001836130d4565b90505f610e4f5f8051602061536a8339815191525490565b6040516370a0823160e01b81523060048201529091505f906001600160a01b038416906370a0823190602401602060405180830381865afa158015610e96573d5f803e3d5ffd5b505050506040513d601f19601f82011682018060405250810190610eba9190614da6565b9050801580610ed157506001600160a01b03831630145b15610ede5750505061104e565b5f836001600160a01b031663313ce5676040518163ffffffff1660e01b8152600401602060405180830381865afa158015610f1b573d5f803e3d5ffd5b505050506040513d601f19601f82011682018060405250810190610f3f9190614e3f565b60ff1690505f610f5184848a856130df565b90505f610f5d826131fc565b60405163a9059cbb60e01b81529091506001600160a01b0387169063a9059cbb90610f8e9033908590600401614e26565b6020604051808303815f875af1158015610faa573d5f803e3d5ffd5b505050506040513d601f19601f82011682018060405250810190610fce9190614e07565b506001600160a01b03861663a9059cbb89610fe98486614e5f565b6040518363ffffffff1660e01b8152600401611006929190614e26565b6020604051808303815f875af1158015611022573d5f803e3d5ffd5b505050506040513d601f19601f820116820180604052508101906110469190614e07565b505050505050505b600101610e1a565b50611061338361330b565b7fcc16f5dbb4873280815c1ee09dbd06736cffcc184412cf7a71a0fdb75d397ca53383604051611092929190614e26565b60405180910390a150610d3160015f805160206153aa83398151915255565b5f336110be85828561333f565b6110c98585856133a2565b60019150505b9392505050565b5f8060035f9054906101000a90046001600160a01b03166001600160a01b031663f5d2d9986040518163ffffffff1660e01b8152600401602060405180830381865afa158015611128573d5f803e3d5ffd5b505050506040513d601f19601f8201168201806040525081019061114c9190614d8b565b6040516313eaa54960e11b81526001600160a01b038581166004830152919250908216906327d54a9290602401602060405180830381865afa158015611194573d5f803e3d5ffd5b505050506040513d601f19601f820116820180604052508101906110cf9190614d8b565b5f610d53612fc8565b5f6110cf83836133ff565b5f30330361120b5760405162461bcd60e51b815260206004820152600c60248201526b2bb937b7339039b2b73232b960a11b6044820152606401610b71565b5f83116112485760405162461bcd60e51b815260206004820152600b60248201526a0416d6f756e7420697320360ac1b6044820152606401610b71565b6040516370a0823160e01b815233600482015283906001600160a01b038716906370a0823190602401602060405180830381865afa15801561128c573d5f803e3d5ffd5b505050506040513d601f19601f820116820180604052508101906112b09190614da6565b10156112f55760405162461bcd60e51b8152602060048201526014602482015273496e73756666696369656e742042616c616e636560601b6044820152606401610b71565b6040516323b872dd60e01b8152336004820152306024820152604481018490526001600160a01b038616906323b872dd906064016020604051808303815f875af1158015611345573d5f803e3d5ffd5b505050506040513d601f19601f820116820180604052508101906113699190614e07565b506113768585858561373c565b90505b949350505050565b60035460408051631bf01e9b60e01b815290515f926001600160a01b031691631bf01e9b9160048083019260209291908290030181865afa1580156113c8573d5f803e3d5ffd5b505050506040513d601f19601f820116820180604052508101906113ec9190614d8b565b90505f60035f9054906101000a90046001600160a01b03166001600160a01b0316636c9c00786040518163ffffffff1660e01b8152600401602060405180830381865afa15801561143f573d5f803e3d5ffd5b505050506040513d601f19601f820116820180604052508101906114639190614d8b565b90505f60035f9054906101000a90046001600160a01b03166001600160a01b0316633e6dfa366040518163ffffffff1660e01b8152600401602060405180830381865afa1580156114b6573d5f803e3d5ffd5b505050506040513d601f19601f820116820180604052508101906114da9190614d8b565b6040516370a0823160e01b81523060048201529091505f906001600160a01b038616906370a0823190602401602060405180830381865afa158015611521573d5f803e3d5ffd5b505050506040513d601f19601f820116820180604052508101906115459190614da6565b90505f826001600160a01b0316631698ee828787610bb86040518463ffffffff1660e01b815260040161157a93929190614e72565b602060405180830381865afa158015611595573d5f803e3d5ffd5b505050506040513d601f19601f820116820180604052508101906115b99190614d8b565b90508115156001600160a01b038216158015906115d35750805b1561160c575f6115e58888863061373c565b90505f81116116065760405162461bcd60e51b8152600401610b7190614e9a565b50611656565b6001600160a01b0382161580156116205750805b15611656575f61163388878987306139c0565b90505f81116116545760405162461bcd60e51b8152600401610b7190614e9a565b505b50505050505050565b611667612f91565b5f61167260016130cb565b90505f5b8181101561169e575f61168a6001836130d4565b905061169581611381565b50600101611676565b50506116b660015f805160206153aa83398151915255565b565b6116c0613b76565b6116c982613c1a565b6116d38282613c22565b5050565b5f6116e0613cde565b505f8051602061538a83398151915290565b60035460408051631bf01e9b60e01b815290515f926001600160a01b031691631bf01e9b9160048083019260209291908290030181865afa158015611739573d5f803e3d5ffd5b505050506040513d601f19601f8201168201806040525081019061175d9190614d8b565b90505f60035f9054906101000a90046001600160a01b03166001600160a01b031663cff49d686040518163ffffffff1660e01b8152600401602060405180830381865afa1580156117b0573d5f803e3d5ffd5b505050506040513d601f19601f820116820180604052508101906117d49190614d8b565b604080515f81526020810191829052633c2fddc560e21b9091529091506001600160a01b03821663f0bf7714611815838e8e8e8e8c8f8f8d60248901614f3d565b5f604051808303815f87803b15801561182c575f80fd5b505af115801561183e573d5f803e3d5ffd5b505050505050505050505050505050565b5f30330361188e5760405162461bcd60e51b815260206004820152600c60248201526b2bb937b7339039b2b73232b960a11b6044820152606401610b71565b5f83116118cb5760405162461bcd60e51b815260206004820152600b60248201526a0416d6f756e7420697320360ac1b6044820152606401610b71565b6040516370a0823160e01b815233600482015283906001600160a01b038816906370a0823190602401602060405180830381865afa15801561190f573d5f803e3d5ffd5b505050506040513d601f19601f820116820180604052508101906119339190614da6565b10156119785760405162461bcd60e51b8152602060048201526014602482015273496e73756666696369656e742042616c616e636560601b6044820152606401610b71565b6040516323b872dd60e01b8152336004820152306024820152604481018490526001600160a01b038716906323b872dd906064016020604051808303815f875af11580156119c8573d5f803e3d5ffd5b505050506040513d601f19601f820116820180604052508101906119ec9190614e07565b506119fa86868686866139c0565b90505b95945050505050565b6001600160a01b03165f9081525f8051602061534a833981519152602052604090205490565b611a34613d27565b6116b65f613d82565b5f61078f82613df2565b5f805160206153ca8339815191528054829190600160401b900460ff1680611a7c575080546001600160401b03808416911610155b15611a9a5760405163f92ee8a960e01b815260040160405180910390fd5b8054600160401b6001600160401b03841668ffffffffffffffffff199092168217178255600380546001600160a01b0319166001600160a01b038716179055815460ff60401b191682556040519081527fc7f505b2f371ae2175ee4913f4499e1f2633a7b5936321eed1cdaeb6115181d29060200160405180910390a150505050565b7f52c63247e1f47db19d5ce0460030c497f067ca4cebf71ba98eeadabe20bace0480546060915f8051602061534a833981519152916106fa90614d59565b5f336107898185856133a2565b6060610d536001613e7a565b5f80611b7e612fc8565b90505f611b965f8051602061536a8339815191525490565b90505f81611ba48487614dd1565b611bae9190614de8565b90506119fd64e8d4a5100082614de8565b5f805160206153ca8339815191528054600160401b810460ff1615906001600160401b03165f81158015611bf05750825b90505f826001600160401b03166001148015611c0b5750303b155b905081158015611c19575080155b15611c375760405163f92ee8a960e01b815260040160405180910390fd5b845467ffffffffffffffff191660011785558315611c6157845460ff60401b1916600160401b1785555b611ca76040518060400160405280600681526020016542616c756e6960d01b8152506040518060400160405280600681526020016542414c554e4960d01b815250613e86565b611cb033613e98565b611cb8613ea9565b611cc0613eb9565b611cd230670de0b6b3a7640000613084565b600380546001600160a01b0319166001600160a01b0388161790558315611d3357845460ff60401b19168555604051600181527fc7f505b2f371ae2175ee4913f4499e1f2633a7b5936321eed1cdaeb6115181d29060200160405180910390a15b505050505050565b6001600160a01b039182165f9081527f52c63247e1f47db19d5ce0460030c497f067ca4cebf71ba98eeadabe20bace016020908152604080832093909416825291909152205490565b611d8c613d27565b600380546001600160a01b0319166001600160a01b0392909216919091179055565b5f610d53670de0b6b3a7640000613df2565b611dc8612f91565b60035460408051631eba5b3360e31b815290515f926001600160a01b03169163f5d2d9989160048083019260209291908290030181865afa158015611e0f573d5f803e3d5ffd5b505050506040513d601f19601f82011682018060405250810190611e339190614d8b565b90505f60035f9054906101000a90046001600160a01b03166001600160a01b0316633e6dfa366040518163ffffffff1660e01b8152600401602060405180830381865afa158015611e86573d5f803e3d5ffd5b505050506040513d601f19601f82011682018060405250810190611eaa9190614d8b565b90505f60035f9054906101000a90046001600160a01b03166001600160a01b0316636c9c00786040518163ffffffff1660e01b8152600401602060405180830381865afa158015611efd573d5f803e3d5ffd5b505050506040513d601f19601f82011682018060405250810190611f219190614d8b565b90505f60035f9054906101000a90046001600160a01b03166001600160a01b0316631bf01e9b6040518163ffffffff1660e01b8152600401602060405180830381865afa158015611f74573d5f803e3d5ffd5b505050506040513d601f19601f82011682018060405250810190611f989190614d8b565b90506001600160a01b038416611fe85760405162461bcd60e51b81526020600482015260156024820152741059d95b9d08199858dd1bdc9e481b9bdd081cd95d605a1b6044820152606401610b71565b604051639b76a5cd60e01b81523360048201525f906001600160a01b03861690639b76a5cd906024016020604051808303815f875af115801561202d573d5f803e3d5ffd5b505050506040513d601f19601f820116820180604052508101906120519190614d8b565b90505f86516001600160401b0381111561206d5761206d614855565b604051908082528060200260200182016040528015612096578160200160208202803683370190505b5090505f87516001600160401b038111156120b3576120b3614855565b6040519080825280602002602001820160405280156120dc578160200160208202803683370190505b5090505f5b88518110156121dc5761210e60018a838151811061210157612101614fec565b6020026020010151613ec1565b1583828151811061212157612121614fec565b60200260200101901515908115158152505088818151811061214557612145614fec565b60209081029190910101516040516370a0823160e01b81523060048201526001600160a01b03909116906370a0823190602401602060405180830381865afa158015612193573d5f803e3d5ffd5b505050506040513d601f19601f820116820180604052508101906121b79190614da6565b8282815181106121c9576121c9614fec565b60209081029190910101526001016120e1565b50604051630eedc3c560e41b81526001600160a01b0384169063eedc3c509061220b908c908c90600401615000565b5f604051808303815f87803b158015612222575f80fd5b505af1158015612234573d5f803e3d5ffd5b505050505f5b88518110156127e9575f89828151811061225657612256614fec565b60209081029190910101516040516370a0823160e01b81523060048201529091505f906001600160a01b038316906370a0823190602401602060405180830381865afa1580156122a8573d5f803e3d5ffd5b505050506040513d601f19601f820116820180604052508101906122cc9190614da6565b90505f896001600160a01b0316631698ee82848b610bb86040518463ffffffff1660e01b815260040161230193929190614e72565b602060405180830381865afa15801561231c573d5f803e3d5ffd5b505050506040513d601f19601f820116820180604052508101906123409190614d8b565b90505f8a6001600160a01b0316631698ee82858c6101f46040518463ffffffff1660e01b815260040161237593929190614e72565b602060405180830381865afa158015612390573d5f803e3d5ffd5b505050506040513d601f19601f820116820180604052508101906123b49190614d8b565b90505f8b6001600160a01b0316631698ee82868c6101f46040518463ffffffff1660e01b81526004016123e993929190614e72565b602060405180830381865afa158015612404573d5f803e3d5ffd5b505050506040513d601f19601f820116820180604052508101906124289190614d8b565b90505f8c6001600160a01b0316631698ee82878d610bb86040518463ffffffff1660e01b815260040161245d93929190614e72565b602060405180830381865afa158015612478573d5f803e3d5ffd5b505050506040513d601f19601f8201168201806040525081019061249c9190614d8b565b90505f6001600160a01b0385161515806124be57506001600160a01b03841615155b806124d157506001600160a01b03821615155b806124e457506001600160a01b03831615155b90508988815181106124f8576124f8614fec565b602002602001015180156125095750805b1561251b57612519600188613ee2565b505b5f89898151811061252e5761252e614fec565b6020026020010151876125419190614e5f565b9050816125cc5760405163a9059cbb60e01b81526001600160a01b0389169063a9059cbb906125769033908590600401614e26565b6020604051808303815f875af1158015612592573d5f803e3d5ffd5b505050506040513d601f19601f820116820180604052508101906125b69190614e07565b50505050505050505050505050505050506127f2565b60035460408051631d8cf42560e11b815290515f926001600160a01b031691633b19e84a9160048083019260209291908290030181865afa158015612613573d5f803e3d5ffd5b505050506040513d601f19601f820116820180604052508101906126379190614d8b565b90505f60035f9054906101000a90046001600160a01b03166001600160a01b03166385462d6f6040518163ffffffff1660e01b8152600401602060405180830381865afa15801561268a573d5f803e3d5ffd5b505050506040513d601f19601f820116820180604052508101906126ae9190614da6565b90505f60035f9054906101000a90046001600160a01b03166001600160a01b0316634f4608a26040518163ffffffff1660e01b8152600401602060405180830381865afa158015612701573d5f803e3d5ffd5b505050506040513d601f19601f820116820180604052508101906127259190614da6565b90508c8c8151811061273957612739614fec565b60200260200101518a11156127d2575f816127548487614dd1565b61275e9190614de8565b60405163a9059cbb60e01b81529091506001600160a01b038d169063a9059cbb9061278f9087908590600401614e26565b6020604051808303815f875af11580156127ab573d5f803e3d5ffd5b505050506040513d601f19601f820116820180604052508101906127cf9190614e07565b50505b50506001909901985061223a975050505050505050565b50505050505050505b6116d360015f805160206153aa83398151915255565b612810613d27565b6001600160a01b03811661283957604051631e4fbdf760e01b81525f6004820152602401610b71565b610d3181613d82565b61284a612f91565b60035460408051631f36fd1b60e11b815290515f926001600160a01b031691633e6dfa369160048083019260209291908290030181865afa158015612891573d5f803e3d5ffd5b505050506040513d601f19601f820116820180604052508101906128b59190614d8b565b90505f60035f9054906101000a90046001600160a01b03166001600160a01b0316633b19e84a6040518163ffffffff1660e01b8152600401602060405180830381865afa158015612908573d5f803e3d5ffd5b505050506040513d601f19601f8201168201806040525081019061292c9190614d8b565b90505f60035f9054906101000a90046001600160a01b03166001600160a01b0316631bf01e9b6040518163ffffffff1660e01b8152600401602060405180830381865afa15801561297f573d5f803e3d5ffd5b505050506040513d601f19601f820116820180604052508101906129a39190614d8b565b90505f60035f9054906101000a90046001600160a01b03166001600160a01b0316636c9c00786040518163ffffffff1660e01b8152600401602060405180830381865afa1580156129f6573d5f803e3d5ffd5b505050506040513d601f19601f82011682018060405250810190612a1a9190614d8b565b90505f8511612a5e5760405162461bcd60e51b815260206004820152601060248201526f125b9cdd59999a58da595b9d0810905360821b6044820152606401610b71565b5f5b612a6a60016130cb565b811015612f14575f612a7d6001836130d4565b90505f612a955f8051602061536a8339815191525490565b6040516370a0823160e01b81523060048201529091505f906001600160a01b038416906370a0823190602401602060405180830381865afa158015612adc573d5f803e3d5ffd5b505050506040513d601f19601f82011682018060405250810190612b009190614da6565b90508015155f03612b1357505050612f0c565b306001600160a01b03841603612b2b57505050612f0c565b5f836001600160a01b031663313ce5676040518163ffffffff1660e01b8152600401602060405180830381865afa158015612b68573d5f803e3d5ffd5b505050506040513d601f19601f82011682018060405250810190612b8c9190614e3f565b60ff1690505f612b9e84848d856130df565b9050876001600160a01b0316856001600160a01b031603612c325760405163a9059cbb60e01b81526001600160a01b0389169063a9059cbb90612be79033908590600401614e26565b6020604051808303815f875af1158015612c03573d5f803e3d5ffd5b505050506040513d601f19601f82011682018060405250810190612c279190614e07565b505050505050612f0c565b604051630b4c774160e11b81525f906001600160a01b038c1690631698ee8290612c669089908d90610bb890600401614e72565b602060405180830381865afa158015612c81573d5f803e3d5ffd5b505050506040513d601f19601f82011682018060405250810190612ca59190614d8b565b90506001600160a01b03811615612ddf575f612cc3878b853061373c565b90505f612ccf826131fc565b60405163a9059cbb60e01b81529091506001600160a01b038c169063a9059cbb90612d009033908590600401614e26565b6020604051808303815f875af1158015612d1c573d5f803e3d5ffd5b505050506040513d601f19601f82011682018060405250810190612d409190614e07565b506001600160a01b038b1663a9059cbb8d612d5b8486614e5f565b6040518363ffffffff1660e01b8152600401612d78929190614e26565b6020604051808303815f875af1158015612d94573d5f803e3d5ffd5b505050506040513d601f19601f82011682018060405250810190612db89190614e07565b505f8211612dd85760405162461bcd60e51b8152600401610b7190614e9a565b5050612f05565b5f612ded878a8c86336139c0565b90505f612df9826131fc565b60405163a9059cbb60e01b81529091506001600160a01b038c169063a9059cbb90612e2a9033908590600401614e26565b6020604051808303815f875af1158015612e46573d5f803e3d5ffd5b505050506040513d601f19601f82011682018060405250810190612e6a9190614e07565b506001600160a01b038b1663a9059cbb8d612e858486614e5f565b6040518363ffffffff1660e01b8152600401612ea2929190614e26565b6020604051808303815f875af1158015612ebe573d5f803e3d5ffd5b505050506040513d601f19601f82011682018060405250810190612ee29190614e07565b505f8211612f025760405162461bcd60e51b8152600401610b7190614e9a565b50505b5050505050505b600101612a60565b50612f1f338661330b565b7fcc16f5dbb4873280815c1ee09dbd06736cffcc184412cf7a71a0fdb75d397ca53386604051612f50929190614e26565b60405180910390a150505050610d3160015f805160206153aa83398151915255565b5f611376858585856130df565b612f8c8383836001613ef6565b505050565b5f805160206153aa833981519152805460011901612fc257604051633ee5aeb560e01b815260040160405180910390fd5b60029055565b5f805f5b612fd660016130cb565b81101561307e575f612fe96001836130d4565b6040516370a0823160e01b81523060048201529091505f906001600160a01b038316906370a0823190602401602060405180830381865afa158015613030573d5f803e3d5ffd5b505050506040513d601f19601f820116820180604052508101906130549190614da6565b90505f61306182846133ff565b905061306d818661508d565b94505060019092019150612fcc9050565b50919050565b6001600160a01b0382166130ad5760405163ec442f0560e01b81525f6004820152602401610b71565b6116d35f8383613fda565b60015f805160206153aa83398151915255565b5f61078f825490565b5f6110cf8383614113565b5f80851161312f5760405162461bcd60e51b815260206004820152601b60248201527f546f74616c20737570706c792063616e6e6f74206265207a65726f00000000006044820152606401610b71565b60128211156131805760405162461bcd60e51b815260206004820152601e60248201527f546f6b656e20646563696d616c732073686f756c64206265203c3d20313800006044820152606401610b71565b5f8060128410156131d457613196846012614e5f565b6131a190600a615180565b6131ab9088614de8565b91506131b8846012614e5f565b6131c390600a615180565b6131cd9086614de8565b90506131da565b50859050835b5f826131e68884614dd1565b6131f09190614de8565b98975050505050505050565b5f8060035f9054906101000a90046001600160a01b03166001600160a01b03166385462d6f6040518163ffffffff1660e01b8152600401602060405180830381865afa15801561324e573d5f803e3d5ffd5b505050506040513d601f19601f820116820180604052508101906132729190614da6565b90505f60035f9054906101000a90046001600160a01b03166001600160a01b0316634f4608a26040518163ffffffff1660e01b8152600401602060405180830381865afa1580156132c5573d5f803e3d5ffd5b505050506040513d601f19601f820116820180604052508101906132e99190614da6565b90505f816132f78482614e5f565b6133019087614dd1565b6119fd9190614de8565b6001600160a01b03821661333457604051634b637e8f60e11b81525f6004820152602401610b71565b6116d3825f83613fda565b5f61334a8484611d3b565b90505f19811461339c578181101561338e57604051637dc7a0d960e11b81526001600160a01b03841660048201526024810182905260448101839052606401610b71565b61339c84848484035f613ef6565b50505050565b6001600160a01b0383166133cb57604051634b637e8f60e11b81525f6004820152602401610b71565b6001600160a01b0382166133f45760405163ec442f0560e01b81525f6004820152602401610b71565b612f8c838383613fda565b5f8060035f9054906101000a90046001600160a01b03166001600160a01b0316638e1c3a8a6040518163ffffffff1660e01b8152600401602060405180830381865afa158015613451573d5f803e3d5ffd5b505050506040513d601f19601f820116820180604052508101906134759190614d8b565b90505f60035f9054906101000a90046001600160a01b03166001600160a01b0316631bf01e9b6040518163ffffffff1660e01b8152600401602060405180830381865afa1580156134c8573d5f803e3d5ffd5b505050506040513d601f19601f820116820180604052508101906134ec9190614d8b565b90505f80856001600160a01b031663313ce5676040518163ffffffff1660e01b8152600401602060405180830381865afa15801561352c573d5f803e3d5ffd5b505050506040513d601f19601f820116820180604052508101906135509190614e3f565b90505f836001600160a01b031663313ce5676040518163ffffffff1660e01b8152600401602060405180830381865afa15801561358f573d5f803e3d5ffd5b505050506040513d601f19601f820116820180604052508101906135b39190614e3f565b9050836001600160a01b0316876001600160a01b0316036135e9576135dd8864e8d4a51000614dd1565b9550505050505061078f565b60405163802431fb60e01b81526001600160a01b03888116600483015285811660248301525f604483015286169063802431fb90606401602060405180830381865afa925050508015613659575060408051601f3d908101601f1916820190925261365691810190614da6565b60015b61366a575f9550505050505061078f565b92508060ff168260ff16036136a657670de0b6b3a7640000836136928a64e8d4a51000614dd1565b61369c9190614dd1565b6135dd9190614de8565b5f6136b1828461518b565b6136bc90600a6151a4565b905060128360ff16101561370857670de0b6b3a76400006136dd8286614dd1565b6136e7838c614dd1565b6136f19190614dd1565b6136fb9190614de8565b965050505050505061078f565b670de0b6b3a764000061371b8286614dd1565b613725908b614dd1565b61372f9190614de8565b9998505050505050505050565b5f805460408051631acb614160e01b8152905183926001600160a01b031691631acb61419160048083019260209291908290030181865afa158015613783573d5f803e3d5ffd5b505050506040513d601f19601f820116820180604052508101906137a79190614d8b565b90505f805f9054906101000a90046001600160a01b03166001600160a01b031663524900b56040518163ffffffff1660e01b8152600401602060405180830381865afa1580156137f9573d5f803e3d5ffd5b505050506040513d601f19601f8201168201806040525081019061381d9190614d8b565b90508161382b888288614139565b604051631ba0488760e21b81526001600160a01b03821690636e81221c9061385d908b908b908b908b906004016151b2565b6020604051808303815f875af1925050508015613897575060408051601f3d908101601f1916820190925261389491810190614da6565b60015b6139a3576138a6888388614139565b60408051610100810182526001600160a01b038a8116825289811660208301908152610bb883850190815289831660608501908152426080860190815260a086018d81525f60c0880181815260e08901918252985163414bf38960e01b8152885188166004820152955187166024870152935162ffffff1660448601529151851660648501525160848401525160a4830152935160c48201529251811660e484015290919084169063414bf38990610104016020604051808303815f875af1158015613974573d5f803e3d5ffd5b505050506040513d601f19601f820116820180604052508101906139989190614da6565b945050505050611379565b80156139b457935061137992505050565b50505050949350505050565b5f805460408051631acb614160e01b8152905183926001600160a01b031691631acb61419160048083019260209291908290030181865afa158015613a07573d5f803e3d5ffd5b505050506040513d601f19601f82011682018060405250810190613a2b9190614d8b565b9050805f613a3a898388614139565b604051631ba0488760e21b81526001600160a01b03831690636e81221c90613a6c908c908c908b9030906004016151b2565b6020604051808303815f875af1925050508015613aa6575060408051601f3d908101601f19168201909252613aa391810190614da6565b60015b613ac157613ab7898989898961428e565b93505050506119fd565b8015613acf57809150613ae7565b613adc8a8a8a8a8a61428e565b9450505050506119fd565b50604051631ba0488760e21b81526001600160a01b03831690636e81221c90613b1a908b908b9086908b906004016151b2565b6020604051808303815f875af1925050508015613b54575060408051601f3d908101601f19168201909252613b5191810190614da6565b60015b613b6557613ab7898989898961428e565b8015613acf5793506119fd92505050565b306001600160a01b037f0000000000000000000000000000000000000000000000000000000000000000161480613bfc57507f00000000000000000000000000000000000000000000000000000000000000006001600160a01b0316613bf05f8051602061538a833981519152546001600160a01b031690565b6001600160a01b031614155b156116b65760405163703e46dd60e11b815260040160405180910390fd5b610d31613d27565b816001600160a01b03166352d1902d6040518163ffffffff1660e01b8152600401602060405180830381865afa925050508015613c7c575060408051601f3d908101601f19168201909252613c7991810190614da6565b60015b613ca457604051634c9c8ce360e01b81526001600160a01b0383166004820152602401610b71565b5f8051602061538a8339815191528114613cd457604051632a87526960e21b815260048101829052602401610b71565b612f8c83836143e9565b306001600160a01b037f000000000000000000000000000000000000000000000000000000000000000016146116b65760405163703e46dd60e11b815260040160405180910390fd5b33613d597f9016d09d72d40fdae2fd8ceac6b6234c7706214fd39c1cd1e609a0528c199300546001600160a01b031690565b6001600160a01b0316146116b65760405163118cdaa760e01b8152336004820152602401610b71565b7f9016d09d72d40fdae2fd8ceac6b6234c7706214fd39c1cd1e609a0528c19930080546001600160a01b031981166001600160a01b03848116918217845560405192169182907f8be0079c531659141344cd1fd0a4f28419497f9722a3daafe3b4186f6b6457e0905f90a3505050565b5f80613e095f8051602061536a8339815191525490565b90505f8111613e5a5760405162461bcd60e51b815260206004820152601b60248201527f546f74616c20737570706c792063616e6e6f74206265207a65726f00000000006044820152606401610b71565b5f613e63612fc8565b905081613e708286614dd1565b6113799190614de8565b60605f6110cf8361443e565b613e8e614497565b6116d382826144cd565b613ea0614497565b610d318161451d565b613eb1614497565b6116b6614525565b6116b6614497565b6001600160a01b0381165f90815260018301602052604081205415156110cf565b5f6110cf836001600160a01b03841661452d565b5f8051602061534a8339815191526001600160a01b038516613f2d5760405163e602df0560e01b81525f6004820152602401610b71565b6001600160a01b038416613f5657604051634a1406b160e11b81525f6004820152602401610b71565b6001600160a01b038086165f90815260018301602090815260408083209388168352929052208390558115613fd357836001600160a01b0316856001600160a01b03167f8c5be1e5ebec7d5bd14f71427d1e84f3dd0314c0f7b2291e5b200ac8c7c3b92585604051613fca91815260200190565b60405180910390a35b5050505050565b5f8051602061534a8339815191526001600160a01b0384166140145781816002015f828254614009919061508d565b909155506140849050565b6001600160a01b0384165f90815260208290526040902054828110156140665760405163391434e360e21b81526001600160a01b03861660048201526024810182905260448101849052606401610b71565b6001600160a01b0385165f9081526020839052604090209083900390555b6001600160a01b0383166140a25760028101805483900390556140c0565b6001600160a01b0383165f9081526020829052604090208054830190555b826001600160a01b0316846001600160a01b03167fddf252ad1be2c89b69c2b068fc378daa952ba7f163c4a11628f55a4df523b3ef8460405161410591815260200190565b60405180910390a350505050565b5f825f01828154811061412857614128614fec565b905f5260205f200154905092915050565b604051636eb1769f60e11b81523060048201526001600160a01b0383811660248301528491839183169063dd62ed3e90604401602060405180830381865afa158015614187573d5f803e3d5ffd5b505050506040513d601f19601f820116820180604052508101906141ab9190614da6565b101561339c5760405163095ea7b360e01b81526001600160a01b0382169063095ea7b3906141df9086905f90600401614e26565b6020604051808303815f875af11580156141fb573d5f803e3d5ffd5b505050506040513d601f19601f8201168201806040525081019061421f9190614e07565b5060405163095ea7b360e01b81526001600160a01b0382169063095ea7b39061424e9086908690600401614e26565b6020604051808303815f875af115801561426a573d5f803e3d5ffd5b505050506040513d601f19601f82011682018060405250810190613fd39190614e07565b5f80546040805163524900b560e01b8152905183926001600160a01b03169163524900b59160048083019260209291908290030181865afa1580156142d5573d5f803e3d5ffd5b505050506040513d601f19601f820116820180604052508101906142f99190614d8b565b9050614306878286614139565b6040805160a081018252606089811b6bffffffffffffffffffffffff1990811660c084015261017760eb1b60d484018190528a831b821660d785015260eb84015288821b1660ee830152825160e28184030181526101028301845282526001600160a01b03808716602084015242838501529082018790525f6080830152915163c04b8d5960e01b8152909183169063c04b8d59906143a99084906004016151dd565b6020604051808303815f875af11580156143c5573d5f803e3d5ffd5b505050506040513d601f19601f820116820180604052508101906131f09190614da6565b6143f282614579565b6040516001600160a01b038316907fbc7cd75a20ee27fd9adebab32041f755214dbc6bffa90cc0225b39da2e5c2d3b905f90a280511561443657612f8c82826145dc565b6116d3614645565b6060815f0180548060200260200160405190810160405280929190818152602001828054801561448b57602002820191905f5260205f20905b815481526020019060010190808311614477575b50505050509050919050565b5f805160206153ca83398151915254600160401b900460ff166116b657604051631afcd79f60e31b815260040160405180910390fd5b6144d5614497565b5f8051602061534a8339815191527f52c63247e1f47db19d5ce0460030c497f067ca4cebf71ba98eeadabe20bace0361450e8482615278565b506004810161339c8382615278565b612810614497565b6130b8614497565b5f81815260018301602052604081205461457257508154600181810184555f84815260208082209093018490558454848252828601909352604090209190915561078f565b505f61078f565b806001600160a01b03163b5f036145ae57604051634c9c8ce360e01b81526001600160a01b0382166004820152602401610b71565b5f8051602061538a83398151915280546001600160a01b0319166001600160a01b0392909216919091179055565b60605f80846001600160a01b0316846040516145f89190615333565b5f60405180830381855af49150503d805f8114614630576040519150601f19603f3d011682016040523d82523d5f602084013e614635565b606091505b50915091506119fd858383614664565b34156116b65760405163b398979f60e01b815260040160405180910390fd5b60608261467957614674826146c0565b6110cf565b815115801561469057506001600160a01b0384163b155b156146b957604051639996b31560e01b81526001600160a01b0385166004820152602401610b71565b50806110cf565b8051156146d05780518082602001fd5b604051630a12f52160e11b815260040160405180910390fd5b5f81518084528060208401602086015e5f602082860101526020601f19601f83011685010191505092915050565b602081525f6110cf60208301846146e9565b6001600160a01b0381168114610d31575f80fd5b5f806040838503121561474e575f80fd5b823561475981614729565b946020939093013593505050565b5f60208284031215614777575f80fd5b5035919050565b5f805f60608486031215614790575f80fd5b833561479b81614729565b925060208401356147ab81614729565b929592945050506040919091013590565b5f602082840312156147cc575f80fd5b81356110cf81614729565b5f80604083850312156147e8575f80fd5b8235915060208301356147fa81614729565b809150509250929050565b5f805f8060808587031215614818575f80fd5b843561482381614729565b9350602085013561483381614729565b925060408501359150606085013561484a81614729565b939692955090935050565b634e487b7160e01b5f52604160045260245ffd5b604051606081016001600160401b038111828210171561488b5761488b614855565b60405290565b604051601f8201601f191681016001600160401b03811182821017156148b9576148b9614855565b604052919050565b5f82601f8301126148d0575f80fd5b81356001600160401b038111156148e9576148e9614855565b6148fc601f8201601f1916602001614891565b818152846020838601011115614910575f80fd5b816020850160208301375f918101602001919091529392505050565b5f806040838503121561493d575f80fd5b823561494881614729565b915060208301356001600160401b03811115614962575f80fd5b61496e858286016148c1565b9150509250929050565b5f8083601f840112614988575f80fd5b5081356001600160401b0381111561499e575f80fd5b6020830191508360208260051b85010111156149b8575f80fd5b9250929050565b5f805f805f805f8060c0898b0312156149d6575f80fd5b88356001600160401b03808211156149ec575f80fd5b6149f88c838d01614978565b909a50985060208b0135915080821115614a10575f80fd5b50614a1d8b828c01614978565b9097509550506040890135614a3181614729565b93506060890135614a4181614729565b92506080890135915060a0890135614a5881614729565b809150509295985092959890939650565b5f805f805f60a08688031215614a7d575f80fd5b8535614a8881614729565b94506020860135614a9881614729565b93506040860135614aa881614729565b9250606086013591506080860135614abf81614729565b809150509295509295909350565b5f8060408385031215614ade575f80fd5b8235614ae981614729565b915060208301356001600160401b03811681146147fa575f80fd5b5f815180845260208085019450602084015f5b83811015614b3c5781516001600160a01b031687529582019590820190600101614b17565b509495945050505050565b602081525f6110cf6020830184614b04565b5f8060408385031215614b6a575f80fd5b8235614b7581614729565b915060208301356147fa81614729565b5f6001600160401b03821115614b9d57614b9d614855565b5060051b60200190565b5f82601f830112614bb6575f80fd5b81356020614bcb614bc683614b85565b614891565b8083825260208201915060208460051b870101935086841115614bec575f80fd5b602086015b84811015614c11578035614c0481614729565b8352918301918301614bf1565b509695505050505050565b5f8060408385031215614c2d575f80fd5b82356001600160401b0380821115614c43575f80fd5b818501915085601f830112614c56575f80fd5b81356020614c66614bc683614b85565b82815260059290921b84018101918181019089841115614c84575f80fd5b8286015b84811015614d0757803586811115614c9e575f80fd5b87016060818d03601f1901811315614cb4575f80fd5b614cbc614869565b86830135614cc981614729565b8152604083013587820152908201359088821115614ce5575f80fd5b614cf38e88848601016148c1565b604082015285525050918301918301614c88565b5096505086013592505080821115614d1d575f80fd5b5061496e85828601614ba7565b5f805f8060808587031215614d3d575f80fd5b5050823594602084013594506040840135936060013592509050565b600181811c90821680614d6d57607f821691505b60208210810361307e57634e487b7160e01b5f52602260045260245ffd5b5f60208284031215614d9b575f80fd5b81516110cf81614729565b5f60208284031215614db6575f80fd5b5051919050565b634e487b7160e01b5f52601160045260245ffd5b808202811582820484141761078f5761078f614dbd565b5f82614e0257634e487b7160e01b5f52601260045260245ffd5b500490565b5f60208284031215614e17575f80fd5b815180151581146110cf575f80fd5b6001600160a01b03929092168252602082015260400190565b5f60208284031215614e4f575f80fd5b815160ff811681146110cf575f80fd5b8181038181111561078f5761078f614dbd565b6001600160a01b03938416815291909216602082015262ffffff909116604082015260600190565b60208082526017908201527f53776170204661696c65642c20547279204275726e2829000000000000000000604082015260600190565b8183525f60208085019450825f5b85811015614b3c578135614ef281614729565b6001600160a01b031687529582019590820190600101614edf565b8183525f6001600160fb1b03831115614f24575f80fd5b8260051b80836020870137939093016020019392505050565b60e08082528a519082018190525f90602090610100840190828e01845b82811015614f7657815184529284019290840190600101614f5a565b5050508381036020850152614f8c818c8e614ed1565b9150508281036040840152614fa281898b614f0d565b915050856060830152614fc060808301866001600160a01b03169052565b6001600160a01b03841660a08301526001600160a01b03831660c08301529a9950505050505050505050565b634e487b7160e01b5f52603260045260245ffd5b5f6040808301604084528086518083526060925060608601915060608160051b8701016020808a015f5b8481101561507a57898403605f19018652815180516001600160a01b031685528381015184860152880151888501889052615067888601826146e9565b968401969450509082019060010161502a565b50508782039088015261372f8189614b04565b8082018082111561078f5761078f614dbd565b600181815b808511156150da57815f19048211156150c0576150c0614dbd565b808516156150cd57918102915b93841c93908002906150a5565b509250929050565b5f826150f05750600161078f565b816150fc57505f61078f565b8160018114615112576002811461511c57615138565b600191505061078f565b60ff84111561512d5761512d614dbd565b50506001821b61078f565b5060208310610133831016604e8410600b841016171561515b575081810a61078f565b61516583836150a0565b805f190482111561517857615178614dbd565b029392505050565b5f6110cf83836150e2565b60ff828116828216039081111561078f5761078f614dbd565b5f6110cf60ff8416836150e2565b6001600160a01b03948516815292841660208401526040830191909152909116606082015260800190565b602081525f825160a060208401526151f860c08401826146e9565b905060018060a01b0360208501511660408401526040840151606084015260608401516080840152608084015160a08401528091505092915050565b601f821115612f8c57805f5260205f20601f840160051c810160208510156152595750805b601f840160051c820191505b81811015613fd3575f8155600101615265565b81516001600160401b0381111561529157615291614855565b6152a58161529f8454614d59565b84615234565b602080601f8311600181146152d8575f84156152c15750858301515b5f19600386901b1c1916600185901b178555611d33565b5f85815260208120601f198616915b82811015615306578886015182559484019460019091019084016152e7565b508582101561532357878501515f19600388901b60f8161c191681555b5050505050600190811b01905550565b5f82518060208501845e5f92019182525091905056fe52c63247e1f47db19d5ce0460030c497f067ca4cebf71ba98eeadabe20bace0052c63247e1f47db19d5ce0460030c497f067ca4cebf71ba98eeadabe20bace02360894a13ba1a3210667c828492db98dca3e2076cc3735a920a3ca505d382bbc9b779b17422d0df92223018b32b4d1fa46e071723d6817e2486d003becc55f00f0c57e16840df040f15088dc2f81fe391c3923bec73e23a9662efc9c229c6a00a2646970667358221220aae9f673f9587ed4b499a50dde32698a0d0d6af9eff5c3527aa130bbf4c83b2864736f6c63430008190033",
    "sourcePath": "c:/Users/Utente/Source/repos/baluni-contracts/contracts/BaluniV1Router.sol",
    "compiler": {
        "name": "solc",
        "version": "0.8.25+commit.b61c2a91"
    },
    "functionHashes": {
        "UPGRADE_INTERFACE_VERSION()": "ad3cb1cc",
        "allowance(address,address)": "dd62ed3e",
        "approve(address,uint256)": "095ea7b3",
        "balanceOf(address)": "70a08231",
        "burnERC20(uint256)": "1a168da2",
        "burnUSDC(uint256)": "fe0a4dd1",
        "calculateTokenShare(uint256,uint256,uint256,uint256)": "fe330a51",
        "callRebalance(address[],uint256[],address,address,uint256,address)": "599f69f7",
        "decimals()": "313ce567",
        "execute((address,uint256,bytes)[],address[])": "eedc3c50",
        "getAgentAddress(address)": "27d54a92",
        "getTokens()": "aa6ca808",
        "getUSDCShareValue(uint256)": "71ddcfb8",
        "getVersion()": "0d8e6e2c",
        "initialize(address)": "c4d66de8",
        "liquidate(address)": "2f865568",
        "liquidateAll()": "3c2066a9",
        "mintWithUSDC(uint256)": "0cfc7386",
        "multiHopSwap(address,address,address,uint256,address)": "5efaaebb",
        "name()": "06fdde03",
        "owner()": "8da5cb5b",
        "proxiableUUID()": "52d1902d",
        "registry()": "7b103999",
        "reinitialize(address,uint64)": "8f2248bc",
        "renounceOwnership()": "715018a6",
        "requiredUSDCtoMint(uint256)": "aa95d893",
        "resetContract(address)": "e67ad759",
        "singleSwap(address,address,uint256,address)": "2d6bc8ea",
        "symbol()": "95d89b41",
        "tokenValuation(uint256,address)": "2bdd955a",
        "totalSupply()": "18160ddd",
        "totalValuation()": "295b9300",
        "transfer(address,uint256)": "a9059cbb",
        "transferFrom(address,address,uint256)": "23b872dd",
        "transferOwnership(address)": "f2fde38b",
        "unitPrice()": "e73faa2d",
        "upgradeToAndCall(address,bytes)": "4f1ef286"
    },
    "gasEstimates": {
        "creation": {
            "codeDepositCost": "4307000",
            "executionCost": "infinite",
            "totalCost": "infinite"
        },
        "external": {
            "UPGRADE_INTERFACE_VERSION()": "infinite",
            "allowance(address,address)": "infinite",
            "approve(address,uint256)": "infinite",
            "balanceOf(address)": "infinite",
            "burnERC20(uint256)": "infinite",
            "burnUSDC(uint256)": "infinite",
            "calculateTokenShare(uint256,uint256,uint256,uint256)": "798",
            "callRebalance(address[],uint256[],address,address,uint256,address)": "infinite",
            "decimals()": "288",
            "execute((address,uint256,bytes)[],address[])": "infinite",
            "getAgentAddress(address)": "infinite",
            "getTokens()": "infinite",
            "getUSDCShareValue(uint256)": "infinite",
            "getVersion()": "infinite",
            "initialize(address)": "infinite",
            "liquidate(address)": "infinite",
            "liquidateAll()": "infinite",
            "mintWithUSDC(uint256)": "infinite",
            "multiHopSwap(address,address,address,uint256,address)": "infinite",
            "name()": "infinite",
            "owner()": "2375",
            "proxiableUUID()": "infinite",
            "registry()": "2448",
            "reinitialize(address,uint64)": "infinite",
            "renounceOwnership()": "infinite",
            "requiredUSDCtoMint(uint256)": "infinite",
            "resetContract(address)": "26893",
            "singleSwap(address,address,uint256,address)": "infinite",
            "symbol()": "infinite",
            "tokenValuation(uint256,address)": "infinite",
            "totalSupply()": "infinite",
            "totalValuation()": "infinite",
            "transfer(address,uint256)": "infinite",
            "transferFrom(address,address,uint256)": "infinite",
            "transferOwnership(address)": "infinite",
            "unitPrice()": "infinite",
            "upgradeToAndCall(address,bytes)": "infinite"
        },
        "internal": {
            "_authorizeUpgrade(address)": "infinite",
            "_calculateBaluniToUSDC(uint256)": "infinite",
            "_calculateERC20Share(uint256,uint256,uint256,uint256)": "infinite",
            "_calculateERC20Valuation(uint256,address)": "infinite",
            "_calculateNetAmountAfterFee(uint256)": "infinite",
            "_resize(uint256[] memory,uint256)": "infinite",
            "_totalValuation()": "infinite"
        }
    }
}