{
    "contractName": "SmartRouterOrder",
    "abi": [
        {
            "inputs": [
                {
                    "internalType": "address",
                    "name": "target",
                    "type": "address"
                }
            ],
            "name": "AddressEmptyCode",
            "type": "error"
        },
        {
            "inputs": [
                {
                    "internalType": "address",
                    "name": "implementation",
                    "type": "address"
                }
            ],
            "name": "ERC1967InvalidImplementation",
            "type": "error"
        },
        {
            "inputs": [],
            "name": "ERC1967NonPayable",
            "type": "error"
        },
        {
            "inputs": [],
            "name": "FailedInnerCall",
            "type": "error"
        },
        {
            "inputs": [],
            "name": "InvalidInitialization",
            "type": "error"
        },
        {
            "inputs": [],
            "name": "NotInitializing",
            "type": "error"
        },
        {
            "inputs": [
                {
                    "internalType": "address",
                    "name": "owner",
                    "type": "address"
                }
            ],
            "name": "OwnableInvalidOwner",
            "type": "error"
        },
        {
            "inputs": [
                {
                    "internalType": "address",
                    "name": "account",
                    "type": "address"
                }
            ],
            "name": "OwnableUnauthorizedAccount",
            "type": "error"
        },
        {
            "inputs": [],
            "name": "UUPSUnauthorizedCallContext",
            "type": "error"
        },
        {
            "inputs": [
                {
                    "internalType": "bytes32",
                    "name": "slot",
                    "type": "bytes32"
                }
            ],
            "name": "UUPSUnsupportedProxiableUUID",
            "type": "error"
        },
        {
            "anonymous": false,
            "inputs": [
                {
                    "indexed": false,
                    "internalType": "uint64",
                    "name": "version",
                    "type": "uint64"
                }
            ],
            "name": "Initialized",
            "type": "event"
        },
        {
            "anonymous": false,
            "inputs": [
                {
                    "indexed": true,
                    "internalType": "address",
                    "name": "previousOwner",
                    "type": "address"
                },
                {
                    "indexed": true,
                    "internalType": "address",
                    "name": "newOwner",
                    "type": "address"
                }
            ],
            "name": "OwnershipTransferred",
            "type": "event"
        },
        {
            "anonymous": false,
            "inputs": [
                {
                    "indexed": true,
                    "internalType": "address",
                    "name": "implementation",
                    "type": "address"
                }
            ],
            "name": "Upgraded",
            "type": "event"
        },
        {
            "inputs": [],
            "name": "UPGRADE_INTERFACE_VERSION",
            "outputs": [
                {
                    "internalType": "string",
                    "name": "",
                    "type": "string"
                }
            ],
            "stateMutability": "view",
            "type": "function"
        },
        {
            "inputs": [
                {
                    "internalType": "address",
                    "name": "_poolFactory",
                    "type": "address"
                }
            ],
            "name": "changePoolFactory",
            "outputs": [],
            "stateMutability": "nonpayable",
            "type": "function"
        },
        {
            "inputs": [
                {
                    "internalType": "address",
                    "name": "_poolFactory",
                    "type": "address"
                }
            ],
            "name": "initialize",
            "outputs": [],
            "stateMutability": "nonpayable",
            "type": "function"
        },
        {
            "inputs": [],
            "name": "owner",
            "outputs": [
                {
                    "internalType": "address",
                    "name": "",
                    "type": "address"
                }
            ],
            "stateMutability": "view",
            "type": "function"
        },
        {
            "inputs": [],
            "name": "poolFactory",
            "outputs": [
                {
                    "internalType": "contract IBaluniV1PoolFactory",
                    "name": "",
                    "type": "address"
                }
            ],
            "stateMutability": "view",
            "type": "function"
        },
        {
            "inputs": [],
            "name": "proxiableUUID",
            "outputs": [
                {
                    "internalType": "bytes32",
                    "name": "",
                    "type": "bytes32"
                }
            ],
            "stateMutability": "view",
            "type": "function"
        },
        {
            "inputs": [
                {
                    "internalType": "address",
                    "name": "_poolFactory",
                    "type": "address"
                },
                {
                    "internalType": "uint64",
                    "name": "version",
                    "type": "uint64"
                }
            ],
            "name": "reinitialize",
            "outputs": [],
            "stateMutability": "nonpayable",
            "type": "function"
        },
        {
            "inputs": [],
            "name": "renounceOwnership",
            "outputs": [],
            "stateMutability": "nonpayable",
            "type": "function"
        },
        {
            "inputs": [
                {
                    "internalType": "address",
                    "name": "fromToken",
                    "type": "address"
                },
                {
                    "internalType": "address",
                    "name": "toToken",
                    "type": "address"
                },
                {
                    "internalType": "uint256",
                    "name": "amount",
                    "type": "uint256"
                },
                {
                    "internalType": "address",
                    "name": "receiver",
                    "type": "address"
                }
            ],
            "name": "smartSwap",
            "outputs": [
                {
                    "internalType": "uint256",
                    "name": "",
                    "type": "uint256"
                }
            ],
            "stateMutability": "nonpayable",
            "type": "function"
        },
        {
            "inputs": [
                {
                    "internalType": "address",
                    "name": "newOwner",
                    "type": "address"
                }
            ],
            "name": "transferOwnership",
            "outputs": [],
            "stateMutability": "nonpayable",
            "type": "function"
        },
        {
            "inputs": [
                {
                    "internalType": "address",
                    "name": "newImplementation",
                    "type": "address"
                },
                {
                    "internalType": "bytes",
                    "name": "data",
                    "type": "bytes"
                }
            ],
            "name": "upgradeToAndCall",
            "outputs": [],
            "stateMutability": "payable",
            "type": "function"
        }
    ],
    "bytecode": "60a0604052306080523480156012575f80fd5b506080516113716100395f395f81816109ad015281816109d60152610b1a01526113715ff3fe60806040526004361061009a575f3560e01c80637442eca6116100625780637442eca6146101435780638da5cb5b146101625780638f2248bc1461019e578063ad3cb1cc146101bd578063c4d66de8146101fa578063f2fde38b14610219575f80fd5b80634219dc401461009e5780634f1ef286146100d957806352d1902d146100ee578063715018a61461011057806372591be514610124575b5f80fd5b3480156100a9575f80fd5b505f546100bc906001600160a01b031681565b6040516001600160a01b0390911681526020015b60405180910390f35b6100ec6100e7366004610eb7565b610238565b005b3480156100f9575f80fd5b50610102610257565b6040519081526020016100d0565b34801561011b575f80fd5b506100ec610272565b34801561012f575f80fd5b506100ec61013e366004610f59565b610285565b34801561014e575f80fd5b5061010261015d366004610f74565b6102ae565b34801561016d575f80fd5b507f9016d09d72d40fdae2fd8ceac6b6234c7706214fd39c1cd1e609a0528c199300546001600160a01b03166100bc565b3480156101a9575f80fd5b506100ec6101b8366004610fc4565b61074b565b3480156101c8575f80fd5b506101ed604051806040016040528060058152602001640352e302e360dc1b81525081565b6040516100d09190611007565b348015610205575f80fd5b506100ec610214366004610f59565b610835565b348015610224575f80fd5b506100ec610233366004610f59565b610965565b6102406109a2565b61024982610a46565b6102538282610a4e565b5050565b5f610260610b0f565b505f8051602061131c83398151915290565b61027a610b58565b6102835f610bb3565b565b61028d610b58565b5f80546001600160a01b0319166001600160a01b0392909216919091179055565b5f8083116103035760405162461bcd60e51b815260206004820181905260248201527f416d6f756e74206d7573742062652067726561746572207468616e207a65726f60448201526064015b60405180910390fd5b5f8054604051635a1a073560e11b81526001600160a01b0388811660048301529091169063b4340e6a906024015f60405180830381865afa15801561034a573d5f803e3d5ffd5b505050506040513d5f823e601f3d908101601f19168201604052610371919081019061105f565b90505f8080805b8451811015610581575f858281518110610394576103946110f9565b602002602001015190505f80826001600160a01b03166389ab35326040518163ffffffff1660e01b81526004015f60405180830381865afa1580156103db573d5f803e3d5ffd5b505050506040513d5f823e601f3d908101601f191682016040526104029190810190611188565b915091505f80846001600160a01b03166336bf6e396040518163ffffffff1660e01b81526004015f60405180830381865afa158015610443573d5f803e3d5ffd5b505050506040513d5f823e601f3d908101601f1916820160405261046a9190810190611245565b915091505f5b845181101561056f578f6001600160a01b0316866001600160a01b031663d14ef46d836040518263ffffffff1660e01b81526004016104b191815260200190565b6040805180830381865afa1580156104cb573d5f803e3d5ffd5b505050506040513d601f19601f820116820180604052508101906104ef919061127f565b516001600160a01b031603610567575f828281518110610511576105116110f9565b6020026020010151905085828151811061052d5761052d6110f9565b6020026020010151801561054057508881115b15610565578098508b888151811061055a5761055a6110f9565b602002602001015199505b505b600101610470565b50506001909401935061037892505050565b506001600160a01b0382166105d15760405162461bcd60e51b8152602060048201526016602482015275139bc81cdd5a5d18589b19481c1bdbdb08199bdd5b9960521b60448201526064016102fa565b6040516323b872dd60e01b81523360048201523060248201526044810188905282906001600160a01b038b16906323b872dd906064016020604051808303815f875af1158015610623573d5f803e3d5ffd5b505050506040513d601f19601f8201168201806040525081019061064791906112d5565b5060405163095ea7b360e01b81526001600160a01b038481166004830152602482018a90528b169063095ea7b3906044016020604051808303815f875af1158015610694573d5f803e3d5ffd5b505050506040513d601f19601f820116820180604052508101906106b891906112d5565b50604051631ba0488760e21b81526001600160a01b038b811660048301528a81166024830152604482018a905288811660648301525f9190831690636e81221c906084016020604051808303815f875af1158015610718573d5f803e3d5ffd5b505050506040513d601f19601f8201168201806040525081019061073c91906112ee565b9b9a5050505050505050505050565b7ff0c57e16840df040f15088dc2f81fe391c3923bec73e23a9662efc9c229c6a008054829190600160401b900460ff16806107945750805467ffffffffffffffff808416911610155b156107b25760405163f92ee8a960e01b815260040160405180910390fd5b8054600160401b67ffffffffffffffff841668ffffffffffffffffff1990921682171782555f80546001600160a01b0319166001600160a01b038716179055815460ff60401b191682556040519081527fc7f505b2f371ae2175ee4913f4499e1f2633a7b5936321eed1cdaeb6115181d29060200160405180910390a150505050565b7ff0c57e16840df040f15088dc2f81fe391c3923bec73e23a9662efc9c229c6a008054600160401b810460ff16159067ffffffffffffffff165f8115801561087a5750825b90505f8267ffffffffffffffff1660011480156108965750303b155b9050811580156108a4575080155b156108c25760405163f92ee8a960e01b815260040160405180910390fd5b845467ffffffffffffffff1916600117855583156108ec57845460ff60401b1916600160401b1785555b6108f4610c23565b6108fd33610c2b565b5f80546001600160a01b0319166001600160a01b038816179055831561095d57845460ff60401b19168555604051600181527fc7f505b2f371ae2175ee4913f4499e1f2633a7b5936321eed1cdaeb6115181d29060200160405180910390a15b505050505050565b61096d610b58565b6001600160a01b03811661099657604051631e4fbdf760e01b81525f60048201526024016102fa565b61099f81610bb3565b50565b306001600160a01b037f0000000000000000000000000000000000000000000000000000000000000000161480610a2857507f00000000000000000000000000000000000000000000000000000000000000006001600160a01b0316610a1c5f8051602061131c833981519152546001600160a01b031690565b6001600160a01b031614155b156102835760405163703e46dd60e11b815260040160405180910390fd5b61099f610b58565b816001600160a01b03166352d1902d6040518163ffffffff1660e01b8152600401602060405180830381865afa925050508015610aa8575060408051601f3d908101601f19168201909252610aa5918101906112ee565b60015b610ad057604051634c9c8ce360e01b81526001600160a01b03831660048201526024016102fa565b5f8051602061131c8339815191528114610b0057604051632a87526960e21b8152600481018290526024016102fa565b610b0a8383610c3c565b505050565b306001600160a01b037f000000000000000000000000000000000000000000000000000000000000000016146102835760405163703e46dd60e11b815260040160405180910390fd5b33610b8a7f9016d09d72d40fdae2fd8ceac6b6234c7706214fd39c1cd1e609a0528c199300546001600160a01b031690565b6001600160a01b0316146102835760405163118cdaa760e01b81523360048201526024016102fa565b7f9016d09d72d40fdae2fd8ceac6b6234c7706214fd39c1cd1e609a0528c19930080546001600160a01b031981166001600160a01b03848116918217845560405192169182907f8be0079c531659141344cd1fd0a4f28419497f9722a3daafe3b4186f6b6457e0905f90a3505050565b610283610c91565b610c33610c91565b61099f81610cda565b610c4582610ce2565b6040516001600160a01b038316907fbc7cd75a20ee27fd9adebab32041f755214dbc6bffa90cc0225b39da2e5c2d3b905f90a2805115610c8957610b0a8282610d45565b610253610db7565b7ff0c57e16840df040f15088dc2f81fe391c3923bec73e23a9662efc9c229c6a0054600160401b900460ff1661028357604051631afcd79f60e31b815260040160405180910390fd5b61096d610c91565b806001600160a01b03163b5f03610d1757604051634c9c8ce360e01b81526001600160a01b03821660048201526024016102fa565b5f8051602061131c83398151915280546001600160a01b0319166001600160a01b0392909216919091179055565b60605f80846001600160a01b031684604051610d619190611305565b5f60405180830381855af49150503d805f8114610d99576040519150601f19603f3d011682016040523d82523d5f602084013e610d9e565b606091505b5091509150610dae858383610dd6565b95945050505050565b34156102835760405163b398979f60e01b815260040160405180910390fd5b606082610deb57610de682610e35565b610e2e565b8151158015610e0257506001600160a01b0384163b155b15610e2b57604051639996b31560e01b81526001600160a01b03851660048201526024016102fa565b50805b9392505050565b805115610e455780518082602001fd5b604051630a12f52160e11b815260040160405180910390fd5b6001600160a01b038116811461099f575f80fd5b634e487b7160e01b5f52604160045260245ffd5b604051601f8201601f1916810167ffffffffffffffff81118282101715610eaf57610eaf610e72565b604052919050565b5f8060408385031215610ec8575f80fd5b8235610ed381610e5e565b915060208381013567ffffffffffffffff80821115610ef0575f80fd5b818601915086601f830112610f03575f80fd5b813581811115610f1557610f15610e72565b610f27601f8201601f19168501610e86565b91508082528784828501011115610f3c575f80fd5b80848401858401375f848284010152508093505050509250929050565b5f60208284031215610f69575f80fd5b8135610e2e81610e5e565b5f805f8060808587031215610f87575f80fd5b8435610f9281610e5e565b93506020850135610fa281610e5e565b9250604085013591506060850135610fb981610e5e565b939692955090935050565b5f8060408385031215610fd5575f80fd5b8235610fe081610e5e565b9150602083013567ffffffffffffffff81168114610ffc575f80fd5b809150509250929050565b602081525f82518060208401528060208501604085015e5f604082850101526040601f19601f83011684010191505092915050565b5f67ffffffffffffffff82111561105557611055610e72565b5060051b60200190565b5f6020808385031215611070575f80fd5b825167ffffffffffffffff811115611086575f80fd5b8301601f81018513611096575f80fd5b80516110a96110a48261103c565b610e86565b81815260059190911b820183019083810190878311156110c7575f80fd5b928401925b828410156110ee5783516110df81610e5e565b825292840192908401906110cc565b979650505050505050565b634e487b7160e01b5f52603260045260245ffd5b8051801515811461111c575f80fd5b919050565b5f82601f830112611130575f80fd5b815160206111406110a48361103c565b8083825260208201915060208460051b870101935086841115611161575f80fd5b602086015b8481101561117d5780518352918301918301611166565b509695505050505050565b5f8060408385031215611199575f80fd5b825167ffffffffffffffff808211156111b0575f80fd5b818501915085601f8301126111c3575f80fd5b815160206111d36110a48361103c565b82815260059290921b840181019181810190898411156111f1575f80fd5b948201945b83861015611216576112078661110d565b825294820194908201906111f6565b9188015191965090935050508082111561122e575f80fd5b5061123b85828601611121565b9150509250929050565b5f8060408385031215611256575f80fd5b82519150602083015167ffffffffffffffff811115611273575f80fd5b61123b85828601611121565b5f6040828403121561128f575f80fd5b6040516040810181811067ffffffffffffffff821117156112b2576112b2610e72565b60405282516112c081610e5e565b81526020928301519281019290925250919050565b5f602082840312156112e5575f80fd5b610e2e8261110d565b5f602082840312156112fe575f80fd5b5051919050565b5f82518060208501845e5f92019182525091905056fe360894a13ba1a3210667c828492db98dca3e2076cc3735a920a3ca505d382bbca26469706673582212207abe4a5968e06ae060812855b5f4a193efb9fe5582d87dc026d06cab231a002a64736f6c63430008190033",
    "sourcePath": "c:/Users/Utente/Source/repos/baluni-contracts/contracts/SmartOrderRouter.sol",
    "compiler": {
        "name": "solc",
        "version": "0.8.25+commit.b61c2a91"
    },
    "functionHashes": {
        "UPGRADE_INTERFACE_VERSION()": "ad3cb1cc",
        "changePoolFactory(address)": "72591be5",
        "initialize(address)": "c4d66de8",
        "owner()": "8da5cb5b",
        "poolFactory()": "4219dc40",
        "proxiableUUID()": "52d1902d",
        "reinitialize(address,uint64)": "8f2248bc",
        "renounceOwnership()": "715018a6",
        "smartSwap(address,address,uint256,address)": "7442eca6",
        "transferOwnership(address)": "f2fde38b",
        "upgradeToAndCall(address,bytes)": "4f1ef286"
    },
    "gasEstimates": {
        "creation": {
            "codeDepositCost": "995400",
            "executionCost": "infinite",
            "totalCost": "infinite"
        },
        "external": {
            "UPGRADE_INTERFACE_VERSION()": "infinite",
            "changePoolFactory(address)": "26848",
            "initialize(address)": "infinite",
            "owner()": "2341",
            "poolFactory()": "2325",
            "proxiableUUID()": "infinite",
            "reinitialize(address,uint64)": "78486",
            "renounceOwnership()": "infinite",
            "smartSwap(address,address,uint256,address)": "infinite",
            "transferOwnership(address)": "infinite",
            "upgradeToAndCall(address,bytes)": "infinite"
        },
        "internal": {
            "_authorizeUpgrade(address)": "infinite"
        }
    }
}