{
  "_format": "hh-sol-artifact-1",
  "contractName": "BaluniV1PoolPeriphery",
  "sourceName": "contracts/pools/BaluniV1PoolPeriphery.sol",
  "abi": [
    {
      "inputs": [
        {
          "internalType": "address",
          "name": "target",
          "type": "address"
        }
      ],
      "name": "AddressEmptyCode",
      "type": "error"
    },
    {
      "inputs": [
        {
          "internalType": "address",
          "name": "implementation",
          "type": "address"
        }
      ],
      "name": "ERC1967InvalidImplementation",
      "type": "error"
    },
    {
      "inputs": [],
      "name": "ERC1967NonPayable",
      "type": "error"
    },
    {
      "inputs": [],
      "name": "FailedInnerCall",
      "type": "error"
    },
    {
      "inputs": [],
      "name": "InvalidInitialization",
      "type": "error"
    },
    {
      "inputs": [],
      "name": "NotInitializing",
      "type": "error"
    },
    {
      "inputs": [
        {
          "internalType": "address",
          "name": "owner",
          "type": "address"
        }
      ],
      "name": "OwnableInvalidOwner",
      "type": "error"
    },
    {
      "inputs": [
        {
          "internalType": "address",
          "name": "account",
          "type": "address"
        }
      ],
      "name": "OwnableUnauthorizedAccount",
      "type": "error"
    },
    {
      "inputs": [],
      "name": "ReentrancyGuardReentrantCall",
      "type": "error"
    },
    {
      "inputs": [],
      "name": "UUPSUnauthorizedCallContext",
      "type": "error"
    },
    {
      "inputs": [
        {
          "internalType": "bytes32",
          "name": "slot",
          "type": "bytes32"
        }
      ],
      "name": "UUPSUnsupportedProxiableUUID",
      "type": "error"
    },
    {
      "anonymous": false,
      "inputs": [
        {
          "indexed": false,
          "internalType": "uint64",
          "name": "version",
          "type": "uint64"
        }
      ],
      "name": "Initialized",
      "type": "event"
    },
    {
      "anonymous": false,
      "inputs": [
        {
          "indexed": true,
          "internalType": "address",
          "name": "previousOwner",
          "type": "address"
        },
        {
          "indexed": true,
          "internalType": "address",
          "name": "newOwner",
          "type": "address"
        }
      ],
      "name": "OwnershipTransferred",
      "type": "event"
    },
    {
      "anonymous": false,
      "inputs": [
        {
          "indexed": true,
          "internalType": "address",
          "name": "implementation",
          "type": "address"
        }
      ],
      "name": "Upgraded",
      "type": "event"
    },
    {
      "inputs": [],
      "name": "UPGRADE_INTERFACE_VERSION",
      "outputs": [
        {
          "internalType": "string",
          "name": "",
          "type": "string"
        }
      ],
      "stateMutability": "view",
      "type": "function"
    },
    {
      "inputs": [
        {
          "internalType": "address[]",
          "name": "fromTokens",
          "type": "address[]"
        },
        {
          "internalType": "address[]",
          "name": "toTokens",
          "type": "address[]"
        },
        {
          "internalType": "uint256[]",
          "name": "amounts",
          "type": "uint256[]"
        },
        {
          "internalType": "address[]",
          "name": "receivers",
          "type": "address[]"
        }
      ],
      "name": "batchSwap",
      "outputs": [
        {
          "internalType": "uint256[]",
          "name": "",
          "type": "uint256[]"
        }
      ],
      "stateMutability": "nonpayable",
      "type": "function"
    },
    {
      "inputs": [
        {
          "internalType": "address",
          "name": "fromToken",
          "type": "address"
        },
        {
          "internalType": "address",
          "name": "toToken",
          "type": "address"
        },
        {
          "internalType": "uint256",
          "name": "amount",
          "type": "uint256"
        }
      ],
      "name": "getAmountOut",
      "outputs": [
        {
          "internalType": "uint256",
          "name": "",
          "type": "uint256"
        }
      ],
      "stateMutability": "view",
      "type": "function"
    },
    {
      "inputs": [
        {
          "internalType": "address",
          "name": "token",
          "type": "address"
        }
      ],
      "name": "getPoolsContainingToken",
      "outputs": [
        {
          "internalType": "address[]",
          "name": "",
          "type": "address[]"
        }
      ],
      "stateMutability": "view",
      "type": "function"
    },
    {
      "inputs": [],
      "name": "getVersion",
      "outputs": [
        {
          "internalType": "uint64",
          "name": "",
          "type": "uint64"
        }
      ],
      "stateMutability": "view",
      "type": "function"
    },
    {
      "inputs": [
        {
          "internalType": "address",
          "name": "_registry",
          "type": "address"
        }
      ],
      "name": "initialize",
      "outputs": [],
      "stateMutability": "nonpayable",
      "type": "function"
    },
    {
      "inputs": [],
      "name": "owner",
      "outputs": [
        {
          "internalType": "address",
          "name": "",
          "type": "address"
        }
      ],
      "stateMutability": "view",
      "type": "function"
    },
    {
      "inputs": [
        {
          "internalType": "address",
          "name": "",
          "type": "address"
        },
        {
          "internalType": "address",
          "name": "",
          "type": "address"
        }
      ],
      "name": "poolsReserves",
      "outputs": [
        {
          "internalType": "uint256",
          "name": "",
          "type": "uint256"
        }
      ],
      "stateMutability": "view",
      "type": "function"
    },
    {
      "inputs": [],
      "name": "proxiableUUID",
      "outputs": [
        {
          "internalType": "bytes32",
          "name": "",
          "type": "bytes32"
        }
      ],
      "stateMutability": "view",
      "type": "function"
    },
    {
      "inputs": [
        {
          "internalType": "address[]",
          "name": "tokenPath",
          "type": "address[]"
        },
        {
          "internalType": "address[]",
          "name": "poolPath",
          "type": "address[]"
        },
        {
          "internalType": "uint256",
          "name": "fromAmount",
          "type": "uint256"
        }
      ],
      "name": "quotePotentialSwaps",
      "outputs": [
        {
          "internalType": "uint256",
          "name": "potentialOutcome",
          "type": "uint256"
        },
        {
          "internalType": "uint256",
          "name": "haircut",
          "type": "uint256"
        }
      ],
      "stateMutability": "view",
      "type": "function"
    },
    {
      "inputs": [],
      "name": "registry",
      "outputs": [
        {
          "internalType": "contract IBaluniV1Registry",
          "name": "",
          "type": "address"
        }
      ],
      "stateMutability": "view",
      "type": "function"
    },
    {
      "inputs": [
        {
          "internalType": "address",
          "name": "_registry",
          "type": "address"
        },
        {
          "internalType": "uint64",
          "name": "version",
          "type": "uint64"
        }
      ],
      "name": "reinitialize",
      "outputs": [],
      "stateMutability": "nonpayable",
      "type": "function"
    },
    {
      "inputs": [],
      "name": "renounceOwnership",
      "outputs": [],
      "stateMutability": "nonpayable",
      "type": "function"
    },
    {
      "inputs": [
        {
          "internalType": "address",
          "name": "fromToken",
          "type": "address"
        },
        {
          "internalType": "address",
          "name": "toToken",
          "type": "address"
        },
        {
          "internalType": "uint256",
          "name": "fromAmount",
          "type": "uint256"
        },
        {
          "internalType": "uint256",
          "name": "minAmount",
          "type": "uint256"
        },
        {
          "internalType": "address",
          "name": "from",
          "type": "address"
        },
        {
          "internalType": "address",
          "name": "to",
          "type": "address"
        },
        {
          "internalType": "uint256",
          "name": "deadline",
          "type": "uint256"
        }
      ],
      "name": "swapTokenForToken",
      "outputs": [
        {
          "internalType": "uint256",
          "name": "amountOut",
          "type": "uint256"
        },
        {
          "internalType": "uint256",
          "name": "haircut",
          "type": "uint256"
        }
      ],
      "stateMutability": "nonpayable",
      "type": "function"
    },
    {
      "inputs": [
        {
          "internalType": "address[]",
          "name": "tokenPath",
          "type": "address[]"
        },
        {
          "internalType": "address[]",
          "name": "poolPath",
          "type": "address[]"
        },
        {
          "internalType": "uint256",
          "name": "fromAmount",
          "type": "uint256"
        },
        {
          "internalType": "uint256",
          "name": "minimumToAmount",
          "type": "uint256"
        },
        {
          "internalType": "address",
          "name": "to",
          "type": "address"
        },
        {
          "internalType": "uint256",
          "name": "deadline",
          "type": "uint256"
        }
      ],
      "name": "swapTokensForTokens",
      "outputs": [
        {
          "internalType": "uint256",
          "name": "amountOut",
          "type": "uint256"
        },
        {
          "internalType": "uint256",
          "name": "haircut",
          "type": "uint256"
        }
      ],
      "stateMutability": "nonpayable",
      "type": "function"
    },
    {
      "inputs": [
        {
          "internalType": "address",
          "name": "newOwner",
          "type": "address"
        }
      ],
      "name": "transferOwnership",
      "outputs": [],
      "stateMutability": "nonpayable",
      "type": "function"
    },
    {
      "inputs": [
        {
          "internalType": "address",
          "name": "newImplementation",
          "type": "address"
        },
        {
          "internalType": "bytes",
          "name": "data",
          "type": "bytes"
        }
      ],
      "name": "upgradeToAndCall",
      "outputs": [],
      "stateMutability": "payable",
      "type": "function"
    }
  ],
  "bytecode": "0x60a0604052306080523480156012575f80fd5b506080516125356100395f395f81816117db01528181611804015261194801526125355ff3fe6080604052600436106100fa575f3560e01c8063715018a611610092578063ad3cb1cc11610062578063ad3cb1cc146102d2578063ae3cce1c1461030f578063c4d66de81461033b578063e74e9b061461035a578063f2fde38b14610386575f80fd5b8063715018a61461022d5780637b103999146102415780638da5cb5b146102775780638f2248bc146102b3575f80fd5b80634209bed0116100cd5780634209bed0146101c65780634aa06652146101e55780634f1ef2861461020457806352d1902d14610219575f80fd5b80630d8e6e2c146100fe57806321579b791461012f57806335823d76146101635780634056c37f14610182575b5f80fd5b348015610109575f80fd5b506101126103a5565b6040516001600160401b0390911681526020015b60405180910390f35b34801561013a575f80fd5b5061014e610149366004611d67565b6103c9565b60408051928352602083019190915201610126565b34801561016e575f80fd5b5061014e61017d366004611df4565b610649565b34801561018d575f80fd5b506101b861019c366004611e6a565b600160209081525f928352604080842090915290825290205481565b604051908152602001610126565b3480156101d1575f80fd5b5061014e6101e0366004611ea1565b610a02565b3480156101f0575f80fd5b506101b86101ff366004611f08565b610c82565b610217610212366004611f46565b610de6565b005b348015610224575f80fd5b506101b8610e05565b348015610238575f80fd5b50610217610e20565b34801561024c575f80fd5b505f5461025f906001600160a01b031681565b6040516001600160a01b039091168152602001610126565b348015610282575f80fd5b507f9016d09d72d40fdae2fd8ceac6b6234c7706214fd39c1cd1e609a0528c199300546001600160a01b031661025f565b3480156102be575f80fd5b506102176102cd366004611fe7565b610e33565b3480156102dd575f80fd5b50610302604051806040016040528060058152602001640352e302e360dc1b81525081565b604051610126919061201e565b34801561031a575f80fd5b5061032e610329366004612053565b610f08565b604051610126919061206e565b348015610346575f80fd5b50610217610355366004612053565b610fe3565b348015610365575f80fd5b50610379610374366004612101565b6110fe565b60405161012691906121bb565b348015610391575f80fd5b506102176103a0366004612053565b6113b4565b5f6103c45f805160206124e0833981519152546001600160401b031690565b905090565b5f80824281101561040b5760405162461bcd60e51b81526020600482015260076024820152661156141254915160ca1b60448201526064015b60405180910390fd5b6104136113f1565b5f87116104585760405162461bcd60e51b81526020600482015260136024820152721a5b9d985b1a5908199c9bdb48185b5bdd5b9d606a1b6044820152606401610402565b60028951101561049f5760405162461bcd60e51b81526020600482015260126024820152710d2dcecc2d8d2c840e8ded6cadc40e0c2e8d60731b6044820152606401610402565b600189516104ad9190612206565b8851146104f05760405162461bcd60e51b81526020600482015260116024820152700d2dcecc2d8d2c840e0deded840e0c2e8d607b1b6044820152606401610402565b6001600160a01b0385166105355760405162461bcd60e51b815260206004820152600c60248201526b7a65726f206164647265737360a01b6044820152606401610402565b885f8151811061054757610547612219565b60200260200101516001600160a01b03166323b872dd33308a6040518463ffffffff1660e01b815260040161057e9392919061222d565b6020604051808303815f875af115801561059a573d5f803e3d5ffd5b505050506040513d601f19601f820116820180604052508101906105be9190612251565b506105cb8989898861143b565b9093509150858310156106145760405162461bcd60e51b8152602060048201526011602482015270616d6f756e744f757420746f6f206c6f7760781b6044820152606401610402565b61063d60017f9b779b17422d0df92223018b32b4d1fa46e071723d6817e2486d003becc55f0055565b50965096945050505050565b5f8082428110156106865760405162461bcd60e51b81526020600482015260076024820152661156141254915160ca1b6044820152606401610402565b61068e6113f1565b5f805f9054906101000a90046001600160a01b03166001600160a01b03166332569e026040518163ffffffff1660e01b8152600401602060405180830381865afa1580156106de573d5f803e3d5ffd5b505050506040513d601f19601f820116820180604052508101906107029190612270565b90505f89116107535760405162461bcd60e51b815260206004820181905260248201527f416d6f756e74206d7573742062652067726561746572207468616e207a65726f6044820152606401610402565b604051632d5e94a760e01b81526001600160a01b038c811660048301528b811660248301525f9190831690632d5e94a790604401602060405180830381865afa1580156107a2573d5f803e3d5ffd5b505050506040513d601f19601f820116820180604052508101906107c69190612270565b90506001600160a01b03811661082c5760405162461bcd60e51b815260206004820152602560248201527f42616c756e695631506f6f6c5065726970686572793a20506f6f6c206e6f7420604482015264199bdd5b9960da1b6064820152608401610402565b6040516323b872dd60e01b81526001600160a01b038d16906323b872dd9061085c908b9030908f9060040161222d565b6020604051808303815f875af1158015610878573d5f803e3d5ffd5b505050506040513d601f19601f8201168201806040525081019061089c9190612251565b506040805160028082526060820183525f926020830190803683370190505090508c815f815181106108d0576108d0612219565b60200260200101906001600160a01b031690816001600160a01b0316815250508b8160018151811061090457610904612219565b6001600160a01b0392909216602092830291909101909101526040805160018082528183019092525f9181602001602082028036833701905050905082815f8151811061095357610953612219565b60200260200101906001600160a01b031690816001600160a01b03168152505061097f82828e8c61143b565b90975095508a8710156109c85760405162461bcd60e51b8152602060048201526011602482015270616d6f756e744f757420746f6f206c6f7760781b6044820152606401610402565b505050506109f560017f9b779b17422d0df92223018b32b4d1fa46e071723d6817e2486d003becc55f0055565b5097509795505050505050565b5f805f8311610a495760405162461bcd60e51b81526020600482015260136024820152721a5b9d985b1a5908199c9bdb48185b5bdd5b9d606a1b6044820152606401610402565b600285511015610a905760405162461bcd60e51b81526020600482015260126024820152710d2dcecc2d8d2c840e8ded6cadc40e0c2e8d60731b6044820152606401610402565b60018551610a9e9190612206565b845114610ae15760405162461bcd60e51b81526020600482015260116024820152700d2dcecc2d8d2c840e0deded840e0c2e8d607b1b6044820152606401610402565b5f83815b8651811015610c77578015610af8578491505b868181518110610b0a57610b0a612219565b60200260200101516001600160a01b03166343c2e2f5898381518110610b3257610b32612219565b60200260200101518a846001610b48919061228b565b81518110610b5857610b58612219565b6020026020010151856040518463ffffffff1660e01b8152600401610b7f9392919061222d565b602060405180830381865afa158015610b9a573d5f803e3d5ffd5b505050506040513d601f19601f82011682018060405250810190610bbe919061229e565b945087610bcc82600161228b565b81518110610bdc57610bdc612219565b60200260200101516001600160a01b031663313ce5676040518163ffffffff1660e01b8152600401602060405180830381865afa158015610c1f573d5f803e3d5ffd5b505050506040513d601f19601f82011682018060405250810190610c4391906122b5565b610c4e9060126122d5565b610c5990600a6123ce565b610c6390846123dc565b610c6d908561228b565b9350600101610ae5565b505050935093915050565b5f80546040805163192b4f0160e11b8152905183926001600160a01b0316916332569e029160048083019260209291908290030181865afa158015610cc9573d5f803e3d5ffd5b505050506040513d601f19601f82011682018060405250810190610ced9190612270565b604051632d5e94a760e01b81526001600160a01b03878116600483015286811660248301529192505f91831690632d5e94a790604401602060405180830381865afa158015610d3e573d5f803e3d5ffd5b505050506040513d601f19601f82011682018060405250810190610d629190612270565b6040516343c2e2f560e01b815290915081905f906001600160a01b038316906343c2e2f590610d99908b908b908b9060040161222d565b602060405180830381865afa158015610db4573d5f803e3d5ffd5b505050506040513d601f19601f82011682018060405250810190610dd8919061229e565b9450505050505b9392505050565b610dee6117d0565b610df782611874565b610e01828261187c565b5050565b5f610e0e61193d565b505f805160206124c083398151915290565b610e28611986565b610e315f6119e1565b565b5f805160206124e08339815191528054829190600160401b900460ff1680610e68575080546001600160401b03808416911610155b15610e865760405163f92ee8a960e01b815260040160405180910390fd5b8054600160401b6001600160401b03841668ffffffffffffffffff1990921682171782555f80546001600160a01b0319166001600160a01b038716179055815460ff60401b191682556040519081527fc7f505b2f371ae2175ee4913f4499e1f2633a7b5936321eed1cdaeb6115181d29060200160405180910390a150505050565b5f80546040805163192b4f0160e11b81529051606093926001600160a01b0316916332569e029160048083019260209291908290030181865afa158015610f51573d5f803e3d5ffd5b505050506040513d601f19601f82011682018060405250810190610f759190612270565b604051635a1a073560e11b81526001600160a01b0385811660048301529192509082169063b4340e6a906024015f60405180830381865afa158015610fbc573d5f803e3d5ffd5b505050506040513d5f823e601f3d908101601f19168201604052610ddf91908101906123f3565b5f805160206124e08339815191528054600160401b810460ff1615906001600160401b03165f811580156110145750825b90505f826001600160401b0316600114801561102f5750303b155b90508115801561103d575080155b1561105b5760405163f92ee8a960e01b815260040160405180910390fd5b845467ffffffffffffffff19166001178555831561108557845460ff60401b1916600160401b1785555b61108d611a51565b61109633611a59565b5f80546001600160a01b0319166001600160a01b03881617905583156110f657845460ff60401b19168555604051600181527fc7f505b2f371ae2175ee4913f4499e1f2633a7b5936321eed1cdaeb6115181d29060200160405180910390a15b505050505050565b6060878614801561110e57508584145b801561111957508382145b6111655760405162461bcd60e51b815260206004820152601c60248201527f496e70757420617272617973206c656e677468206d69736d61746368000000006044820152606401610402565b5f886001600160401b0381111561117e5761117e611c78565b6040519080825280602002602001820160405280156111a7578160200160208202803683370190505b5090505f5b898110156113a6575f8787838181106111c7576111c7612219565b905060200201351161121b5760405162461bcd60e51b815260206004820181905260248201527f416d6f756e74206d7573742062652067726561746572207468616e207a65726f6044820152606401610402565b5f8b8b8381811061122e5761122e612219565b90506020020160208101906112439190612053565b90505f8a8a8481811061125857611258612219565b905060200201602081019061126d9190612053565b90505f89898581811061128257611282612219565b9050602002013590505f88888681811061129e5761129e612219565b90506020020160208101906112b39190612053565b6040516370a0823160e01b815233600482015290915082906001600160a01b038616906370a0823190602401602060405180830381865afa1580156112fa573d5f803e3d5ffd5b505050506040513d601f19601f8201168201806040525081019061131e919061229e565b10156113635760405162461bcd60e51b8152602060048201526014602482015273496e73756666696369656e742042616c616e636560601b6044820152606401610402565b6113788484845f338661017d4261012c61228b565b5086868151811061138b5761138b612219565b60209081029190910101525050600190920191506111ac9050565b509998505050505050505050565b6113bc611986565b6001600160a01b0381166113e557604051631e4fbdf760e01b81525f6004820152602401610402565b6113ee816119e1565b50565b7f9b779b17422d0df92223018b32b4d1fa46e071723d6817e2486d003becc55f0080546001190161143557604051633ee5aeb560e01b815260040160405180910390fd5b60029055565b5f80808481805b88518110156117c3578015801561145a575088516001145b156114675786915061149d565b805f036114765730915061149d565b600189516114849190612206565b8110156114965730915085925061149d565b8691508592505b5f8a82815181106114b0576114b0612219565b60200260200101516001600160a01b031663dd62ed3e308c85815181106114d9576114d9612219565b60200260200101516040518363ffffffff1660e01b81526004016115139291906001600160a01b0392831681529116602082015260400190565b602060405180830381865afa15801561152e573d5f803e3d5ffd5b505050506040513d601f19601f82011682018060405250810190611552919061229e565b9050808410611611578a828151811061156d5761156d612219565b60200260200101516001600160a01b031663095ea7b38b848151811061159557611595612219565b6020026020010151866040518363ffffffff1660e01b81526004016115cf9291906001600160a01b03929092168252602082015260400190565b6020604051808303815f875af11580156115eb573d5f803e3d5ffd5b505050506040513d601f19601f8201168201806040525081019061160f9190612251565b505b89828151811061162357611623612219565b60200260200101516001600160a01b0316639908fc8b8c848151811061164b5761164b612219565b60200260200101518d856001611661919061228b565b8151811061167157611671612219565b60209081029190910101516040516001600160e01b031960e085901b1681526001600160a01b0392831660048201529082166024820152604481018890525f606482015290861660848201525f1960a482015260c40160408051808303815f875af11580156116e2573d5f803e3d5ffd5b505050506040513d601f19601f820116820180604052508101906117069190612487565b90975094508a61171783600161228b565b8151811061172757611727612219565b60200260200101516001600160a01b031663313ce5676040518163ffffffff1660e01b8152600401602060405180830381865afa15801561176a573d5f803e3d5ffd5b505050506040513d601f19601f8201168201806040525081019061178e91906122b5565b6117999060126122d5565b6117a490600a6123ce565b6117ae90866123dc565b6117b8908761228b565b955050600101611442565b5050505094509492505050565b306001600160a01b037f000000000000000000000000000000000000000000000000000000000000000016148061185657507f00000000000000000000000000000000000000000000000000000000000000006001600160a01b031661184a5f805160206124c0833981519152546001600160a01b031690565b6001600160a01b031614155b15610e315760405163703e46dd60e11b815260040160405180910390fd5b6113ee611986565b816001600160a01b03166352d1902d6040518163ffffffff1660e01b8152600401602060405180830381865afa9250505080156118d6575060408051601f3d908101601f191682019092526118d39181019061229e565b60015b6118fe57604051634c9c8ce360e01b81526001600160a01b0383166004820152602401610402565b5f805160206124c0833981519152811461192e57604051632a87526960e21b815260048101829052602401610402565b6119388383611a6a565b505050565b306001600160a01b037f00000000000000000000000000000000000000000000000000000000000000001614610e315760405163703e46dd60e11b815260040160405180910390fd5b336119b87f9016d09d72d40fdae2fd8ceac6b6234c7706214fd39c1cd1e609a0528c199300546001600160a01b031690565b6001600160a01b031614610e315760405163118cdaa760e01b8152336004820152602401610402565b7f9016d09d72d40fdae2fd8ceac6b6234c7706214fd39c1cd1e609a0528c19930080546001600160a01b031981166001600160a01b03848116918217845560405192169182907f8be0079c531659141344cd1fd0a4f28419497f9722a3daafe3b4186f6b6457e0905f90a3505050565b610e31611abf565b611a61611abf565b6113ee81611af5565b611a7382611afd565b6040516001600160a01b038316907fbc7cd75a20ee27fd9adebab32041f755214dbc6bffa90cc0225b39da2e5c2d3b905f90a2805115611ab7576119388282611b60565b610e01611bd4565b5f805160206124e083398151915254600160401b900460ff16610e3157604051631afcd79f60e31b815260040160405180910390fd5b6113bc611abf565b806001600160a01b03163b5f03611b3257604051634c9c8ce360e01b81526001600160a01b0382166004820152602401610402565b5f805160206124c083398151915280546001600160a01b0319166001600160a01b0392909216919091179055565b60605f80846001600160a01b031684604051611b7c91906124a9565b5f60405180830381855af49150503d805f8114611bb4576040519150601f19603f3d011682016040523d82523d5f602084013e611bb9565b606091505b5091509150611bc9858383611bf3565b925050505b92915050565b3415610e315760405163b398979f60e01b815260040160405180910390fd5b606082611c0857611c0382611c4f565b610ddf565b8151158015611c1f57506001600160a01b0384163b155b15611c4857604051639996b31560e01b81526001600160a01b0385166004820152602401610402565b5080610ddf565b805115611c5f5780518082602001fd5b604051630a12f52160e11b815260040160405180910390fd5b634e487b7160e01b5f52604160045260245ffd5b604051601f8201601f191681016001600160401b0381118282101715611cb457611cb4611c78565b604052919050565b5f6001600160401b03821115611cd457611cd4611c78565b5060051b60200190565b6001600160a01b03811681146113ee575f80fd5b5f82601f830112611d01575f80fd5b81356020611d16611d1183611cbc565b611c8c565b8083825260208201915060208460051b870101935086841115611d37575f80fd5b602086015b84811015611d5c578035611d4f81611cde565b8352918301918301611d3c565b509695505050505050565b5f805f805f8060c08789031215611d7c575f80fd5b86356001600160401b0380821115611d92575f80fd5b611d9e8a838b01611cf2565b97506020890135915080821115611db3575f80fd5b50611dc089828a01611cf2565b95505060408701359350606087013592506080870135611ddf81611cde565b8092505060a087013590509295509295509295565b5f805f805f805f60e0888a031215611e0a575f80fd5b8735611e1581611cde565b96506020880135611e2581611cde565b955060408801359450606088013593506080880135611e4381611cde565b925060a0880135611e5381611cde565b8092505060c0880135905092959891949750929550565b5f8060408385031215611e7b575f80fd5b8235611e8681611cde565b91506020830135611e9681611cde565b809150509250929050565b5f805f60608486031215611eb3575f80fd5b83356001600160401b0380821115611ec9575f80fd5b611ed587838801611cf2565b94506020860135915080821115611eea575f80fd5b50611ef786828701611cf2565b925050604084013590509250925092565b5f805f60608486031215611f1a575f80fd5b8335611f2581611cde565b92506020840135611f3581611cde565b929592945050506040919091013590565b5f8060408385031215611f57575f80fd5b8235611f6281611cde565b91506020838101356001600160401b0380821115611f7e575f80fd5b818601915086601f830112611f91575f80fd5b813581811115611fa357611fa3611c78565b611fb5601f8201601f19168501611c8c565b91508082528784828501011115611fca575f80fd5b80848401858401375f848284010152508093505050509250929050565b5f8060408385031215611ff8575f80fd5b823561200381611cde565b915060208301356001600160401b0381168114611e96575f80fd5b602081525f82518060208401528060208501604085015e5f604082850101526040601f19601f83011684010191505092915050565b5f60208284031215612063575f80fd5b8135610ddf81611cde565b602080825282518282018190525f9190848201906040850190845b818110156120ae5783516001600160a01b031683529284019291840191600101612089565b50909695505050505050565b5f8083601f8401126120ca575f80fd5b5081356001600160401b038111156120e0575f80fd5b6020830191508360208260051b85010111156120fa575f80fd5b9250929050565b5f805f805f805f806080898b031215612118575f80fd5b88356001600160401b038082111561212e575f80fd5b61213a8c838d016120ba565b909a50985060208b0135915080821115612152575f80fd5b61215e8c838d016120ba565b909850965060408b0135915080821115612176575f80fd5b6121828c838d016120ba565b909650945060608b013591508082111561219a575f80fd5b506121a78b828c016120ba565b999c989b5096995094979396929594505050565b602080825282518282018190525f9190848201906040850190845b818110156120ae578351835292840192918401916001016121d6565b634e487b7160e01b5f52601160045260245ffd5b81810381811115611bce57611bce6121f2565b634e487b7160e01b5f52603260045260245ffd5b6001600160a01b039384168152919092166020820152604081019190915260600190565b5f60208284031215612261575f80fd5b81518015158114610ddf575f80fd5b5f60208284031215612280575f80fd5b8151610ddf81611cde565b80820180821115611bce57611bce6121f2565b5f602082840312156122ae575f80fd5b5051919050565b5f602082840312156122c5575f80fd5b815160ff81168114610ddf575f80fd5b60ff8281168282160390811115611bce57611bce6121f2565b600181815b8085111561232857815f190482111561230e5761230e6121f2565b8085161561231b57918102915b93841c93908002906122f3565b509250929050565b5f8261233e57506001611bce565b8161234a57505f611bce565b8160018114612360576002811461236a57612386565b6001915050611bce565b60ff84111561237b5761237b6121f2565b50506001821b611bce565b5060208310610133831016604e8410600b84101617156123a9575081810a611bce565b6123b383836122ee565b805f19048211156123c6576123c66121f2565b029392505050565b5f610ddf60ff841683612330565b8082028115828204841417611bce57611bce6121f2565b5f6020808385031215612404575f80fd5b82516001600160401b03811115612419575f80fd5b8301601f81018513612429575f80fd5b8051612437611d1182611cbc565b81815260059190911b82018301908381019087831115612455575f80fd5b928401925b8284101561247c57835161246d81611cde565b8252928401929084019061245a565b979650505050505050565b5f8060408385031215612498575f80fd5b505080516020909101519092909150565b5f82518060208501845e5f92019182525091905056fe360894a13ba1a3210667c828492db98dca3e2076cc3735a920a3ca505d382bbcf0c57e16840df040f15088dc2f81fe391c3923bec73e23a9662efc9c229c6a00a2646970667358221220ac36d3c6bad12b674f8ed1c3a2a61d0b16e9794dc94ecc1548a00ef3b6f0302764736f6c63430008190033",
  "linkReferences": {},
  "deployedLinkReferences": {}
}