{
    "contractName": "BaluniV1Pool",
    "abi": [
        {
            "inputs": [
                {
                    "internalType": "address",
                    "name": "target",
                    "type": "address"
                }
            ],
            "name": "AddressEmptyCode",
            "type": "error"
        },
        {
            "inputs": [
                {
                    "internalType": "address",
                    "name": "implementation",
                    "type": "address"
                }
            ],
            "name": "ERC1967InvalidImplementation",
            "type": "error"
        },
        {
            "inputs": [],
            "name": "ERC1967NonPayable",
            "type": "error"
        },
        {
            "inputs": [
                {
                    "internalType": "address",
                    "name": "spender",
                    "type": "address"
                },
                {
                    "internalType": "uint256",
                    "name": "allowance",
                    "type": "uint256"
                },
                {
                    "internalType": "uint256",
                    "name": "needed",
                    "type": "uint256"
                }
            ],
            "name": "ERC20InsufficientAllowance",
            "type": "error"
        },
        {
            "inputs": [
                {
                    "internalType": "address",
                    "name": "sender",
                    "type": "address"
                },
                {
                    "internalType": "uint256",
                    "name": "balance",
                    "type": "uint256"
                },
                {
                    "internalType": "uint256",
                    "name": "needed",
                    "type": "uint256"
                }
            ],
            "name": "ERC20InsufficientBalance",
            "type": "error"
        },
        {
            "inputs": [
                {
                    "internalType": "address",
                    "name": "approver",
                    "type": "address"
                }
            ],
            "name": "ERC20InvalidApprover",
            "type": "error"
        },
        {
            "inputs": [
                {
                    "internalType": "address",
                    "name": "receiver",
                    "type": "address"
                }
            ],
            "name": "ERC20InvalidReceiver",
            "type": "error"
        },
        {
            "inputs": [
                {
                    "internalType": "address",
                    "name": "sender",
                    "type": "address"
                }
            ],
            "name": "ERC20InvalidSender",
            "type": "error"
        },
        {
            "inputs": [
                {
                    "internalType": "address",
                    "name": "spender",
                    "type": "address"
                }
            ],
            "name": "ERC20InvalidSpender",
            "type": "error"
        },
        {
            "inputs": [],
            "name": "EnforcedPause",
            "type": "error"
        },
        {
            "inputs": [],
            "name": "ExpectedPause",
            "type": "error"
        },
        {
            "inputs": [],
            "name": "FailedInnerCall",
            "type": "error"
        },
        {
            "inputs": [],
            "name": "InvalidInitialization",
            "type": "error"
        },
        {
            "inputs": [],
            "name": "NotInitializing",
            "type": "error"
        },
        {
            "inputs": [
                {
                    "internalType": "address",
                    "name": "owner",
                    "type": "address"
                }
            ],
            "name": "OwnableInvalidOwner",
            "type": "error"
        },
        {
            "inputs": [
                {
                    "internalType": "address",
                    "name": "account",
                    "type": "address"
                }
            ],
            "name": "OwnableUnauthorizedAccount",
            "type": "error"
        },
        {
            "inputs": [],
            "name": "ReentrancyGuardReentrantCall",
            "type": "error"
        },
        {
            "inputs": [],
            "name": "UUPSUnauthorizedCallContext",
            "type": "error"
        },
        {
            "inputs": [
                {
                    "internalType": "bytes32",
                    "name": "slot",
                    "type": "bytes32"
                }
            ],
            "name": "UUPSUnsupportedProxiableUUID",
            "type": "error"
        },
        {
            "anonymous": false,
            "inputs": [
                {
                    "indexed": true,
                    "internalType": "address",
                    "name": "owner",
                    "type": "address"
                },
                {
                    "indexed": true,
                    "internalType": "address",
                    "name": "spender",
                    "type": "address"
                },
                {
                    "indexed": false,
                    "internalType": "uint256",
                    "name": "value",
                    "type": "uint256"
                }
            ],
            "name": "Approval",
            "type": "event"
        },
        {
            "anonymous": false,
            "inputs": [
                {
                    "indexed": true,
                    "internalType": "address",
                    "name": "user",
                    "type": "address"
                },
                {
                    "indexed": false,
                    "internalType": "uint256",
                    "name": "amount",
                    "type": "uint256"
                }
            ],
            "name": "Deposit",
            "type": "event"
        },
        {
            "anonymous": false,
            "inputs": [
                {
                    "indexed": false,
                    "internalType": "uint64",
                    "name": "version",
                    "type": "uint64"
                }
            ],
            "name": "Initialized",
            "type": "event"
        },
        {
            "anonymous": false,
            "inputs": [
                {
                    "indexed": true,
                    "internalType": "address",
                    "name": "previousOwner",
                    "type": "address"
                },
                {
                    "indexed": true,
                    "internalType": "address",
                    "name": "newOwner",
                    "type": "address"
                }
            ],
            "name": "OwnershipTransferred",
            "type": "event"
        },
        {
            "anonymous": false,
            "inputs": [
                {
                    "indexed": false,
                    "internalType": "address",
                    "name": "account",
                    "type": "address"
                }
            ],
            "name": "Paused",
            "type": "event"
        },
        {
            "anonymous": false,
            "inputs": [
                {
                    "indexed": true,
                    "internalType": "address",
                    "name": "user",
                    "type": "address"
                },
                {
                    "indexed": false,
                    "internalType": "address[]",
                    "name": "assets",
                    "type": "address[]"
                }
            ],
            "name": "RebalancePerformed",
            "type": "event"
        },
        {
            "anonymous": false,
            "inputs": [
                {
                    "indexed": true,
                    "internalType": "address",
                    "name": "user",
                    "type": "address"
                },
                {
                    "indexed": false,
                    "internalType": "address",
                    "name": "fromToken",
                    "type": "address"
                },
                {
                    "indexed": false,
                    "internalType": "address",
                    "name": "toToken",
                    "type": "address"
                },
                {
                    "indexed": false,
                    "internalType": "uint256",
                    "name": "amountIn",
                    "type": "uint256"
                },
                {
                    "indexed": false,
                    "internalType": "uint256",
                    "name": "amountOut",
                    "type": "uint256"
                }
            ],
            "name": "Swap",
            "type": "event"
        },
        {
            "anonymous": false,
            "inputs": [
                {
                    "indexed": true,
                    "internalType": "address",
                    "name": "from",
                    "type": "address"
                },
                {
                    "indexed": true,
                    "internalType": "address",
                    "name": "to",
                    "type": "address"
                },
                {
                    "indexed": false,
                    "internalType": "uint256",
                    "name": "value",
                    "type": "uint256"
                }
            ],
            "name": "Transfer",
            "type": "event"
        },
        {
            "anonymous": false,
            "inputs": [
                {
                    "indexed": false,
                    "internalType": "address",
                    "name": "account",
                    "type": "address"
                }
            ],
            "name": "Unpaused",
            "type": "event"
        },
        {
            "anonymous": false,
            "inputs": [
                {
                    "indexed": true,
                    "internalType": "address",
                    "name": "implementation",
                    "type": "address"
                }
            ],
            "name": "Upgraded",
            "type": "event"
        },
        {
            "anonymous": false,
            "inputs": [
                {
                    "indexed": true,
                    "internalType": "address",
                    "name": "user",
                    "type": "address"
                },
                {
                    "indexed": false,
                    "internalType": "uint256[]",
                    "name": "amountsToAdd",
                    "type": "uint256[]"
                }
            ],
            "name": "WeightsRebalanced",
            "type": "event"
        },
        {
            "anonymous": false,
            "inputs": [
                {
                    "indexed": true,
                    "internalType": "address",
                    "name": "user",
                    "type": "address"
                },
                {
                    "indexed": false,
                    "internalType": "uint256",
                    "name": "amount",
                    "type": "uint256"
                }
            ],
            "name": "Withdraw",
            "type": "event"
        },
        {
            "inputs": [],
            "name": "ONE",
            "outputs": [
                {
                    "internalType": "uint256",
                    "name": "",
                    "type": "uint256"
                }
            ],
            "stateMutability": "view",
            "type": "function"
        },
        {
            "inputs": [],
            "name": "UPGRADE_INTERFACE_VERSION",
            "outputs": [
                {
                    "internalType": "string",
                    "name": "",
                    "type": "string"
                }
            ],
            "stateMutability": "view",
            "type": "function"
        },
        {
            "inputs": [
                {
                    "internalType": "address",
                    "name": "owner",
                    "type": "address"
                },
                {
                    "internalType": "address",
                    "name": "spender",
                    "type": "address"
                }
            ],
            "name": "allowance",
            "outputs": [
                {
                    "internalType": "uint256",
                    "name": "",
                    "type": "uint256"
                }
            ],
            "stateMutability": "view",
            "type": "function"
        },
        {
            "inputs": [
                {
                    "internalType": "address",
                    "name": "spender",
                    "type": "address"
                },
                {
                    "internalType": "uint256",
                    "name": "value",
                    "type": "uint256"
                }
            ],
            "name": "approve",
            "outputs": [
                {
                    "internalType": "bool",
                    "name": "",
                    "type": "bool"
                }
            ],
            "stateMutability": "nonpayable",
            "type": "function"
        },
        {
            "inputs": [
                {
                    "internalType": "uint256",
                    "name": "",
                    "type": "uint256"
                }
            ],
            "name": "assetInfos",
            "outputs": [
                {
                    "internalType": "address",
                    "name": "asset",
                    "type": "address"
                },
                {
                    "internalType": "uint256",
                    "name": "weight",
                    "type": "uint256"
                },
                {
                    "internalType": "uint256",
                    "name": "slippage",
                    "type": "uint256"
                }
            ],
            "stateMutability": "view",
            "type": "function"
        },
        {
            "inputs": [
                {
                    "internalType": "uint256",
                    "name": "assetIndex",
                    "type": "uint256"
                }
            ],
            "name": "assetLiquidity",
            "outputs": [
                {
                    "internalType": "uint256",
                    "name": "",
                    "type": "uint256"
                }
            ],
            "stateMutability": "view",
            "type": "function"
        },
        {
            "inputs": [
                {
                    "internalType": "address",
                    "name": "account",
                    "type": "address"
                }
            ],
            "name": "balanceOf",
            "outputs": [
                {
                    "internalType": "uint256",
                    "name": "",
                    "type": "uint256"
                }
            ],
            "stateMutability": "view",
            "type": "function"
        },
        {
            "inputs": [],
            "name": "baseAsset",
            "outputs": [
                {
                    "internalType": "address",
                    "name": "",
                    "type": "address"
                }
            ],
            "stateMutability": "view",
            "type": "function"
        },
        {
            "inputs": [],
            "name": "decimals",
            "outputs": [
                {
                    "internalType": "uint8",
                    "name": "",
                    "type": "uint8"
                }
            ],
            "stateMutability": "view",
            "type": "function"
        },
        {
            "inputs": [
                {
                    "internalType": "address",
                    "name": "to",
                    "type": "address"
                },
                {
                    "internalType": "uint256[]",
                    "name": "amounts",
                    "type": "uint256[]"
                },
                {
                    "internalType": "uint256",
                    "name": "deadline",
                    "type": "uint256"
                }
            ],
            "name": "deposit",
            "outputs": [
                {
                    "internalType": "uint256",
                    "name": "",
                    "type": "uint256"
                }
            ],
            "stateMutability": "nonpayable",
            "type": "function"
        },
        {
            "inputs": [
                {
                    "internalType": "address",
                    "name": "fromToken",
                    "type": "address"
                },
                {
                    "internalType": "address",
                    "name": "toToken",
                    "type": "address"
                },
                {
                    "internalType": "uint256",
                    "name": "amount",
                    "type": "uint256"
                }
            ],
            "name": "getAmountOut",
            "outputs": [
                {
                    "internalType": "uint256",
                    "name": "",
                    "type": "uint256"
                }
            ],
            "stateMutability": "view",
            "type": "function"
        },
        {
            "inputs": [
                {
                    "internalType": "address",
                    "name": "asset",
                    "type": "address"
                }
            ],
            "name": "getAssetReserve",
            "outputs": [
                {
                    "internalType": "uint256",
                    "name": "",
                    "type": "uint256"
                }
            ],
            "stateMutability": "view",
            "type": "function"
        },
        {
            "inputs": [],
            "name": "getAssets",
            "outputs": [
                {
                    "internalType": "address[]",
                    "name": "",
                    "type": "address[]"
                }
            ],
            "stateMutability": "view",
            "type": "function"
        },
        {
            "inputs": [
                {
                    "internalType": "address",
                    "name": "token",
                    "type": "address"
                }
            ],
            "name": "getDeviationForToken",
            "outputs": [
                {
                    "internalType": "uint256",
                    "name": "",
                    "type": "uint256"
                }
            ],
            "stateMutability": "view",
            "type": "function"
        },
        {
            "inputs": [],
            "name": "getDeviations",
            "outputs": [
                {
                    "internalType": "bool[]",
                    "name": "directions",
                    "type": "bool[]"
                },
                {
                    "internalType": "uint256[]",
                    "name": "deviations",
                    "type": "uint256[]"
                }
            ],
            "stateMutability": "view",
            "type": "function"
        },
        {
            "inputs": [],
            "name": "getReserves",
            "outputs": [
                {
                    "internalType": "uint256[]",
                    "name": "",
                    "type": "uint256[]"
                }
            ],
            "stateMutability": "view",
            "type": "function"
        },
        {
            "inputs": [
                {
                    "internalType": "address",
                    "name": "token",
                    "type": "address"
                }
            ],
            "name": "getSlippage",
            "outputs": [
                {
                    "internalType": "uint256",
                    "name": "",
                    "type": "uint256"
                }
            ],
            "stateMutability": "view",
            "type": "function"
        },
        {
            "inputs": [],
            "name": "getSlippageParams",
            "outputs": [
                {
                    "internalType": "uint256[]",
                    "name": "",
                    "type": "uint256[]"
                }
            ],
            "stateMutability": "view",
            "type": "function"
        },
        {
            "inputs": [
                {
                    "internalType": "address",
                    "name": "token",
                    "type": "address"
                }
            ],
            "name": "getTokenWeight",
            "outputs": [
                {
                    "internalType": "uint256",
                    "name": "",
                    "type": "uint256"
                }
            ],
            "stateMutability": "view",
            "type": "function"
        },
        {
            "inputs": [],
            "name": "getWeights",
            "outputs": [
                {
                    "internalType": "uint256[]",
                    "name": "",
                    "type": "uint256[]"
                }
            ],
            "stateMutability": "view",
            "type": "function"
        },
        {
            "inputs": [
                {
                    "internalType": "address[]",
                    "name": "_assets",
                    "type": "address[]"
                },
                {
                    "internalType": "uint256[]",
                    "name": "_weights",
                    "type": "uint256[]"
                },
                {
                    "internalType": "uint256",
                    "name": "_trigger",
                    "type": "uint256"
                },
                {
                    "internalType": "address",
                    "name": "_registry",
                    "type": "address"
                }
            ],
            "name": "initialize",
            "outputs": [],
            "stateMutability": "nonpayable",
            "type": "function"
        },
        {
            "inputs": [],
            "name": "isRebalanceNeeded",
            "outputs": [
                {
                    "internalType": "bool",
                    "name": "",
                    "type": "bool"
                }
            ],
            "stateMutability": "view",
            "type": "function"
        },
        {
            "inputs": [],
            "name": "liquidity",
            "outputs": [
                {
                    "internalType": "uint256",
                    "name": "",
                    "type": "uint256"
                }
            ],
            "stateMutability": "view",
            "type": "function"
        },
        {
            "inputs": [],
            "name": "name",
            "outputs": [
                {
                    "internalType": "string",
                    "name": "",
                    "type": "string"
                }
            ],
            "stateMutability": "view",
            "type": "function"
        },
        {
            "inputs": [],
            "name": "owner",
            "outputs": [
                {
                    "internalType": "address",
                    "name": "",
                    "type": "address"
                }
            ],
            "stateMutability": "view",
            "type": "function"
        },
        {
            "inputs": [],
            "name": "paused",
            "outputs": [
                {
                    "internalType": "bool",
                    "name": "",
                    "type": "bool"
                }
            ],
            "stateMutability": "view",
            "type": "function"
        },
        {
            "inputs": [],
            "name": "proxiableUUID",
            "outputs": [
                {
                    "internalType": "bytes32",
                    "name": "",
                    "type": "bytes32"
                }
            ],
            "stateMutability": "view",
            "type": "function"
        },
        {
            "inputs": [
                {
                    "internalType": "address",
                    "name": "fromToken",
                    "type": "address"
                },
                {
                    "internalType": "address",
                    "name": "toToken",
                    "type": "address"
                },
                {
                    "internalType": "uint256",
                    "name": "amount",
                    "type": "uint256"
                }
            ],
            "name": "quotePotentialSwap",
            "outputs": [
                {
                    "internalType": "uint256",
                    "name": "",
                    "type": "uint256"
                }
            ],
            "stateMutability": "view",
            "type": "function"
        },
        {
            "inputs": [],
            "name": "rebalance",
            "outputs": [],
            "stateMutability": "nonpayable",
            "type": "function"
        },
        {
            "inputs": [
                {
                    "internalType": "address",
                    "name": "receiver",
                    "type": "address"
                }
            ],
            "name": "rebalanceAndDeposit",
            "outputs": [
                {
                    "internalType": "uint256[]",
                    "name": "",
                    "type": "uint256[]"
                }
            ],
            "stateMutability": "nonpayable",
            "type": "function"
        },
        {
            "inputs": [],
            "name": "registry",
            "outputs": [
                {
                    "internalType": "contract IBaluniV1Registry",
                    "name": "",
                    "type": "address"
                }
            ],
            "stateMutability": "view",
            "type": "function"
        },
        {
            "inputs": [],
            "name": "renounceOwnership",
            "outputs": [],
            "stateMutability": "nonpayable",
            "type": "function"
        },
        {
            "inputs": [
                {
                    "internalType": "address",
                    "name": "",
                    "type": "address"
                }
            ],
            "name": "reserves",
            "outputs": [
                {
                    "internalType": "uint256",
                    "name": "",
                    "type": "uint256"
                }
            ],
            "stateMutability": "view",
            "type": "function"
        },
        {
            "inputs": [
                {
                    "internalType": "address",
                    "name": "fromToken",
                    "type": "address"
                },
                {
                    "internalType": "address",
                    "name": "toToken",
                    "type": "address"
                },
                {
                    "internalType": "uint256",
                    "name": "amount",
                    "type": "uint256"
                },
                {
                    "internalType": "uint256",
                    "name": "minAmount",
                    "type": "uint256"
                },
                {
                    "internalType": "address",
                    "name": "receiver",
                    "type": "address"
                },
                {
                    "internalType": "uint256",
                    "name": "deadline",
                    "type": "uint256"
                }
            ],
            "name": "swap",
            "outputs": [
                {
                    "internalType": "uint256",
                    "name": "amountOut",
                    "type": "uint256"
                },
                {
                    "internalType": "uint256",
                    "name": "fee",
                    "type": "uint256"
                }
            ],
            "stateMutability": "nonpayable",
            "type": "function"
        },
        {
            "inputs": [],
            "name": "symbol",
            "outputs": [
                {
                    "internalType": "string",
                    "name": "",
                    "type": "string"
                }
            ],
            "stateMutability": "view",
            "type": "function"
        },
        {
            "inputs": [],
            "name": "totalSupply",
            "outputs": [
                {
                    "internalType": "uint256",
                    "name": "",
                    "type": "uint256"
                }
            ],
            "stateMutability": "view",
            "type": "function"
        },
        {
            "inputs": [],
            "name": "totalValuation",
            "outputs": [
                {
                    "internalType": "uint256",
                    "name": "totalVal",
                    "type": "uint256"
                },
                {
                    "internalType": "uint256[]",
                    "name": "valuations",
                    "type": "uint256[]"
                }
            ],
            "stateMutability": "view",
            "type": "function"
        },
        {
            "inputs": [
                {
                    "internalType": "address",
                    "name": "to",
                    "type": "address"
                },
                {
                    "internalType": "uint256",
                    "name": "value",
                    "type": "uint256"
                }
            ],
            "name": "transfer",
            "outputs": [
                {
                    "internalType": "bool",
                    "name": "",
                    "type": "bool"
                }
            ],
            "stateMutability": "nonpayable",
            "type": "function"
        },
        {
            "inputs": [
                {
                    "internalType": "address",
                    "name": "from",
                    "type": "address"
                },
                {
                    "internalType": "address",
                    "name": "to",
                    "type": "address"
                },
                {
                    "internalType": "uint256",
                    "name": "value",
                    "type": "uint256"
                }
            ],
            "name": "transferFrom",
            "outputs": [
                {
                    "internalType": "bool",
                    "name": "",
                    "type": "bool"
                }
            ],
            "stateMutability": "nonpayable",
            "type": "function"
        },
        {
            "inputs": [
                {
                    "internalType": "address",
                    "name": "newOwner",
                    "type": "address"
                }
            ],
            "name": "transferOwnership",
            "outputs": [],
            "stateMutability": "nonpayable",
            "type": "function"
        },
        {
            "inputs": [],
            "name": "trigger",
            "outputs": [
                {
                    "internalType": "uint256",
                    "name": "",
                    "type": "uint256"
                }
            ],
            "stateMutability": "view",
            "type": "function"
        },
        {
            "inputs": [],
            "name": "unitPrice",
            "outputs": [
                {
                    "internalType": "uint256",
                    "name": "",
                    "type": "uint256"
                }
            ],
            "stateMutability": "view",
            "type": "function"
        },
        {
            "inputs": [
                {
                    "internalType": "address",
                    "name": "newImplementation",
                    "type": "address"
                },
                {
                    "internalType": "bytes",
                    "name": "data",
                    "type": "bytes"
                }
            ],
            "name": "upgradeToAndCall",
            "outputs": [],
            "stateMutability": "payable",
            "type": "function"
        },
        {
            "inputs": [
                {
                    "internalType": "uint256",
                    "name": "share",
                    "type": "uint256"
                },
                {
                    "internalType": "address",
                    "name": "to",
                    "type": "address"
                },
                {
                    "internalType": "uint256",
                    "name": "deadline",
                    "type": "uint256"
                }
            ],
            "name": "withdraw",
            "outputs": [
                {
                    "internalType": "uint256[]",
                    "name": "",
                    "type": "uint256[]"
                }
            ],
            "stateMutability": "nonpayable",
            "type": "function"
        }
    ],
    "bytecode": "60a0604052306080523480156012575f80fd5b50608051614ecd6100395f395f818161313f0152818161316801526132a70152614ecd5ff3fe60806040526004361061025f575f3560e01c80637fec8d381161013f578063b3bf9d32116100b3578063d14ef46d11610078578063d14ef46d14610729578063d66bd5241461076d578063dd62ed3e14610798578063e63697c8146107b7578063e73faa2d146107d6578063f2fde38b146107ea575f80fd5b8063b3bf9d3214610695578063b7110e13146106b4578063c2ee3a08146106d6578063cdf456e1146106eb578063cf8fa7641461070a575f80fd5b80638de30f30116101045780638de30f30146105c057806395d89b41146105df5780639908fc8b146105f3578063a9059cbb14610627578063ad3cb1cc14610646578063b2b55d7014610676575f80fd5b80637fec8d38146105285780637ff1c1791461053d57806389b3179b146105515780638a77c8dc146105705780638da5cb5b14610584575f80fd5b8063313ce567116101d65780635c975abb1161019b5780635c975abb1461045357806367e4ac2c1461048957806370a08231146104aa578063715018a6146104c95780637b103999146104dd5780637d7c2a1c14610514575f80fd5b8063313ce567146103d357806343c2e2f5146103ee5780634aa066521461040d5780634f1ef2861461042c57806352d1902d1461043f575f80fd5b80631a686502116102275780631a6865021461032a578063228835ac1461033e57806322acb8671461035f57806323b872dd14610373578063250aa68314610392578063295b9300146103b1575f80fd5b806306fdde03146102635780630902f1ac1461028d578063095ea7b3146102ae57806312899068146102dd57806318160ddd1461030a575b5f80fd5b34801561026e575f80fd5b50610277610809565b6040516102849190614461565b60405180910390f35b348015610298575f80fd5b506102a16108c9565b60405161028491906144d0565b3480156102b9575f80fd5b506102cd6102c8366004614506565b6109b1565b6040519015158152602001610284565b3480156102e8575f80fd5b506102fc6102f7366004614530565b6109ca565b604051908152602001610284565b348015610315575f80fd5b505f80516020614e38833981519152546102fc565b348015610335575f80fd5b506102fc610a4a565b348015610349575f80fd5b5061035d61035836600461461d565b610a5b565b005b34801561036a575f80fd5b506102a1610d89565b34801561037e575f80fd5b506102cd61038d3660046146f1565b610e2b565b34801561039d575f80fd5b506102fc6103ac366004614530565b610e50565b3480156103bc575f80fd5b506103c5610ec8565b60405161028492919061472f565b3480156103de575f80fd5b5060405160128152602001610284565b3480156103f9575f80fd5b506102fc6104083660046146f1565b610edc565b348015610418575f80fd5b506102fc6104273660046146f1565b610fba565b61035d61043a36600461474f565b61117a565b34801561044a575f80fd5b506102fc611199565b34801561045e575f80fd5b507fcd5ed15c6e187e77e9aee88184c21f4f2182ab5827cb3b7e07fbedcd63f033005460ff166102cd565b348015610494575f80fd5b5061049d6111b4565b6040516102849190614828565b3480156104b5575f80fd5b506102fc6104c4366004614530565b61126b565b3480156104d4575f80fd5b5061035d611291565b3480156104e8575f80fd5b506005546104fc906001600160a01b031681565b6040516001600160a01b039091168152602001610284565b34801561051f575f80fd5b5061035d6112a4565b348015610533575f80fd5b506102fc60015481565b348015610548575f80fd5b506102a16112f7565b34801561055c575f80fd5b506102fc61056b366004614530565b611393565b34801561057b575f80fd5b506102cd611419565b34801561058f575f80fd5b507f9016d09d72d40fdae2fd8ceac6b6234c7706214fd39c1cd1e609a0528c199300546001600160a01b03166104fc565b3480156105cb575f80fd5b506102a16105da366004614530565b611493565b3480156105ea575f80fd5b506102776116ef565b3480156105fe575f80fd5b5061061261060d36600461483a565b61172d565b60408051928352602083019190915201610284565b348015610632575f80fd5b506102cd610641366004614506565b611bee565b348015610651575f80fd5b50610277604051806040016040528060058152602001640352e302e360dc1b81525081565b348015610681575f80fd5b506102fc610690366004614530565b611bfb565b3480156106a0575f80fd5b506102fc6106af36600461489d565b611ce3565b3480156106bf575f80fd5b506106c861211c565b6040516102849291906148f1565b3480156106e1575f80fd5b506102fc60025481565b3480156106f6575f80fd5b506003546104fc906001600160a01b031681565b348015610715575f80fd5b506102fc610724366004614940565b6122d3565b348015610734575f80fd5b50610748610743366004614940565b612348565b604080516001600160a01b039094168452602084019290925290820152606001610284565b348015610778575f80fd5b506102fc610787366004614530565b60066020525f908152604090205481565b3480156107a3575f80fd5b506102fc6107b2366004614957565b612382565b3480156107c2575f80fd5b506102a16107d136600461498e565b6123cb565b3480156107e1575f80fd5b506102fc61299e565b3480156107f5575f80fd5b5061035d610804366004614530565b612a92565b7f52c63247e1f47db19d5ce0460030c497f067ca4cebf71ba98eeadabe20bace0380546060915f80516020614e1883398151915291610847906149b2565b80601f0160208091040260200160405190810160405280929190818152602001828054610873906149b2565b80156108be5780601f10610895576101008083540402835291602001916108be565b820191905f5260205f20905b8154815290600101906020018083116108a157829003601f168201915b505050505091505090565b60605f60055f9054906101000a90046001600160a01b03166001600160a01b0316631acb61416040518163ffffffff1660e01b8152600401602060405180830381865afa15801561091c573d5f803e3d5ffd5b505050506040513d601f19601f8201168201806040525081019061094091906149e4565b604051630fa6707960e21b81523060048201529091506001600160a01b03821690633e99c1e4906024015f60405180830381865afa158015610984573d5f803e3d5ffd5b505050506040513d5f823e601f3d908101601f191682016040526109ab91908101906149ff565b91505090565b5f336109be818585612acf565b60019150505b92915050565b5f805b5f54811015610a4257826001600160a01b03165f82815481106109f2576109f2614a8a565b5f9182526020909120600390910201546001600160a01b031603610a3a575f8181548110610a2257610a22614a8a565b905f5260205f20906003020160020154915050919050565b6001016109cd565b505f92915050565b5f80610a54612ae1565b5092915050565b7ff0c57e16840df040f15088dc2f81fe391c3923bec73e23a9662efc9c229c6a008054600160401b810460ff1615906001600160401b03165f81158015610a9f5750825b90505f826001600160401b03166001148015610aba5750303b155b905081158015610ac8575080155b15610ae65760405163f92ee8a960e01b815260040160405180910390fd5b845467ffffffffffffffff191660011785558315610b1057845460ff60401b1916600160401b1785555b610b1933612c0d565b610b6560405180604001604052806009815260200168042616c756e69204c560bc1b81525060405180604001604052806009815260200168042414c554e492d4c560bc1b815250612c1e565b600580546001600160a01b0319166001600160a01b038816908117909155670de0b6b3a7640000600255600188905560408051631bf01e9b60e01b81529051631bf01e9b916004818101926020929091908290030181865afa158015610bcd573d5f803e3d5ffd5b505050506040513d601f19601f82011682018060405250810190610bf191906149e4565b600380546001600160a01b0319166001600160a01b0392909216918217905564e8d4a51000600455610c6a5760405162461bcd60e51b815260206004820152601a60248201527f496e76616c69642062617365206173736574206164647265737300000000000060448201526064015b60405180910390fd5b610c748989612c30565b610cb85760405162461bcd60e51b8152602060048201526015602482015274125b9a5d1a585b1a5e985d1a5bdb8819985a5b1959605a1b6044820152606401610c61565b5f805b8951811015610cf357898181518110610cd657610cd6614a8a565b602002602001015182610ce99190614ab2565b9150600101610cbb565b508061271014610d375760405162461bcd60e51b815260206004820152600f60248201526e496e76616c6964207765696768747360881b6044820152606401610c61565b508315610d7e57845460ff60401b19168555604051600181527fc7f505b2f371ae2175ee4913f4499e1f2633a7b5936321eed1cdaeb6115181d29060200160405180910390a15b505050505050505050565b5f8054606091906001600160401b03811115610da757610da761454b565b604051908082528060200260200182016040528015610dd0578160200160208202803683370190505b5090505f5b5f54811015610e25575f8181548110610df057610df0614a8a565b905f5260205f20906003020160010154828281518110610e1257610e12614a8a565b6020908102919091010152600101610dd5565b50919050565b5f33610e38858285613074565b610e438585856130d7565b60019150505b9392505050565b5f805b5f54811015610a4257826001600160a01b03165f8281548110610e7857610e78614a8a565b5f9182526020909120600390910201546001600160a01b031603610ec0575f8181548110610ea857610ea8614a8a565b905f5260205f20906003020160010154915050919050565b600101610e53565b5f6060610ed3612ae1565b90939092509050565b5f80610ee9858585610fba565b90505f610ef5866109ca565b90505f610f01866109ca565b90505f610f0d88610e50565b90505f610f1988610e50565b90505f612710610f298688614ac5565b610f339190614adc565b90505f612710610f438689614ac5565b610f4d9190614adc565b9050610f588b611393565b841115610f7057610f698288614afb565b9650610f7d565b610f7a8288614ab2565b96505b610f868a611393565b831015610f9e57610f978188614ab2565b9650610fab565b610fa88188614afb565b96505b50949998505050505050505050565b5f8060055f9054906101000a90046001600160a01b03166001600160a01b031663bb3ba04c6040518163ffffffff1660e01b8152600401602060405180830381865afa15801561100c573d5f803e3d5ffd5b505050506040513d601f19601f8201168201806040525081019061103091906149e4565b90505f6001600160a01b031660055f9054906101000a90046001600160a01b03166001600160a01b031663bb3ba04c6040518163ffffffff1660e01b8152600401602060405180830381865afa15801561108c573d5f803e3d5ffd5b505050506040513d601f19601f820116820180604052508101906110b091906149e4565b6001600160a01b0316036110ff5760405162461bcd60e51b8152602060048201526016602482015275496e76616c6964206f7261636c65206164647265737360501b6044820152606401610c61565b60405163248391ff60e01b81525f906001600160a01b0383169063248391ff9061113190899089908990600401614b0e565b602060405180830381865afa15801561114c573d5f803e3d5ffd5b505050506040513d601f19601f820116820180604052508101906111709190614b32565b9695505050505050565b611182613134565b61118b826131d8565b61119582826131e0565b5050565b5f6111a261329c565b505f80516020614e5883398151915290565b5f8054606091906001600160401b038111156111d2576111d261454b565b6040519080825280602002602001820160405280156111fb578160200160208202803683370190505b5090505f5b5f54811015610e25575f818154811061121b5761121b614a8a565b5f91825260209091206003909102015482516001600160a01b039091169083908390811061124b5761124b614a8a565b6001600160a01b0390921660209283029190910190910152600101611200565b6001600160a01b03165f9081525f80516020614e18833981519152602052604090205490565b6112996132e5565b6112a25f613340565b565b6112ac611419565b6112ef5760405162461bcd60e51b8152602060048201526014602482015273149958985b185b98d9481b9bdd081b995959195960621b6044820152606401610c61565b6112a26133b0565b5f8054606091906001600160401b038111156113155761131561454b565b60405190808252806020026020018201604052801561133e578160200160208202803683370190505b5090505f5b5f54811015610e25575f818154811061135e5761135e614a8a565b905f5260205f2090600302016002015482828151811061138057611380614a8a565b6020908102919091010152600101611343565b5f8061139d61211c565b9150505f5b5f5481101561141057836001600160a01b03165f82815481106113c7576113c7614a8a565b5f9182526020909120600390910201546001600160a01b031603611408578181815181106113f7576113f7614a8a565b602002602001015192505050919050565b6001016113a2565b505f9392505050565b5f805f61142461211c565b915091505f5b815181101561148a5782818151811061144557611445614a8a565b60200260200101518015611473575060015482828151811061146957611469614a8a565b6020026020010151115b15611482576001935050505090565b60010161142a565b505f9250505090565b606061149d611419565b6114e05760405162461bcd60e51b8152602060048201526014602482015273149958985b185b98d9481b9bdd081b995959195960621b6044820152606401610c61565b5f806114ea612ae1565b915091505f6114f98383613970565b5f8054919250906001600160401b038111156115175761151761454b565b604051908082528060200260200182016040528015611540578160200160208202803683370190505b5090505f61154d83613a6e565b90506004548161155d9190614ac5565b90505f5b8351811015611691575f84828151811061157d5761157d614a8a565b60200260200101511115611689576115ae818583815181106115a1576115a1614a8a565b6020026020010151613aa9565b8382815181106115c0576115c0614a8a565b6020026020010181815250505f81815481106115de576115de614a8a565b905f5260205f2090600302015f015f9054906101000a90046001600160a01b03166001600160a01b03166323b872dd333087858151811061162157611621614a8a565b60200260200101516040518463ffffffff1660e01b815260040161164793929190614b0e565b6020604051808303815f875af1158015611663573d5f803e3d5ffd5b505050506040513d601f19601f820116820180604052508101906116879190614b49565b505b600101611561565b5061169c8782613b78565b6116a4613bac565b336001600160a01b03167fa95ad530009c6f929555e70a66aadbeae7231e45756c5b028ca77fbaa376e73e846040516116dd91906144d0565b60405180910390a25095945050505050565b7f52c63247e1f47db19d5ce0460030c497f067ca4cebf71ba98eeadabe20bace0480546060915f80516020614e1883398151915291610847906149b2565b5f8082428110156117505760405162461bcd60e51b8152600401610c6190614b68565b611758613ef5565b600554604080516385462d6f60e01b815290515f926001600160a01b0316916385462d6f9160048083019260209291908290030181865afa15801561179f573d5f803e3d5ffd5b505050506040513d601f19601f820116820180604052508101906117c39190614b32565b90505f60055f9054906101000a90046001600160a01b03166001600160a01b0316634f4608a26040518163ffffffff1660e01b8152600401602060405180830381865afa158015611816573d5f803e3d5ffd5b505050506040513d601f19601f8201168201806040525081019061183a9190614b32565b9050896001600160a01b03168b6001600160a01b03160361189d5760405162461bcd60e51b815260206004820152601a60248201527f43616e6e6f742073776170207468652073616d6520746f6b656e0000000000006044820152606401610c61565b5f89116118ec5760405162461bcd60e51b815260206004820181905260248201527f416d6f756e74206d7573742062652067726561746572207468616e207a65726f6044820152606401610c61565b6040516323b872dd60e01b81526001600160a01b038c16906323b872dd9061191c90339030908e90600401614b0e565b6020604051808303815f875af1158015611938573d5f803e3d5ffd5b505050506040513d601f19601f8201168201806040525081019061195c9190614b49565b506001600160a01b038b165f90815260066020526040812080548b9290611984908490614ab2565b909155505f90506119968c8c8c610edc565b9050806119a28c611bfb565b10156119e95760405162461bcd60e51b8152602060048201526016602482015275496e73756666696369656e74204c697175696469747960501b6044820152606401610c61565b6001600160a01b038b165f9081526006602052604081208054839290611a10908490614ab2565b90915550829050611a218483614ac5565b611a2b9190614adc565b9450611a378582614afb565b95505f8611611a965760405162461bcd60e51b815260206004820152602560248201527f416d6f756e7420746f2073656e64206d75737420626520677265617465722074604482015264068616e20360dc1b6064820152608401610c61565b88861015611af95760405162461bcd60e51b815260206004820152602a60248201527f416d6f756e74206f7574206d7573742062652067726561746572207468616e206044820152691b5a5b88185b5bdd5b9d60b21b6064820152608401610c61565b611b01613bac565b60405163a9059cbb60e01b81526001600160a01b038981166004830152602482018890528c169063a9059cbb906044016020604051808303815f875af1158015611b4d573d5f803e3d5ffd5b505050506040513d601f19601f82011682018060405250810190611b719190614b49565b50604080516001600160a01b038e811682528d811660208301529181018c905260608101889052908916907fcd3829a3813dc3cdd188fd3d01dcf3268c16be2fdd2dd21d0665418816e460629060800160405180910390a2505050611be260015f80516020614e7883398151915255565b50965096945050505050565b5f336109be8185856130d7565b5f8060055f9054906101000a90046001600160a01b03166001600160a01b0316631acb61416040518163ffffffff1660e01b8152600401602060405180830381865afa158015611c4d573d5f803e3d5ffd5b505050506040513d601f19601f82011682018060405250810190611c7191906149e4565b60405163a3e113fb60e01b81523060048201526001600160a01b0385811660248301529192509082169063a3e113fb90604401602060405180830381865afa158015611cbf573d5f803e3d5ffd5b505050506040513d601f19601f82011682018060405250810190610e499190614b32565b5f8142811015611d055760405162461bcd60e51b8152600401610c6190614b68565b611d0d613ef5565b611d15613f2c565b5f611d2b5f80516020614e388339815191525490565b90505f80611d376108c9565b80515f5491925014611d8b5760405162461bcd60e51b815260206004820152601760248201527f496e76616c6964207265736572766573206c656e6774680000000000000000006044820152606401610c61565b5f54611dc55760405162461bcd60e51b81526020600482015260096024820152684e6f2061737365747360b81b6044820152606401610c61565b5f5b5f54811015611f50575f808281548110611de357611de3614a8a565b905f5260205f2090600302015f015f9054906101000a90046001600160a01b03169050806001600160a01b03166323b872dd33308c8681518110611e2957611e29614a8a565b60200260200101516040518463ffffffff1660e01b8152600401611e4f93929190614b0e565b6020604051808303815f875af1158015611e6b573d5f803e3d5ffd5b505050506040513d601f19601f82011682018060405250810190611e8f9190614b49565b50888281518110611ea257611ea2614a8a565b602002602001015160065f836001600160a01b03166001600160a01b031681526020019081526020015f205f828254611edb9190614ab2565b90915550506003545f906001600160a01b0390811690831603611f1457898381518110611f0a57611f0a614a8a565b50611f4892505050565b611f37828b8581518110611f2a57611f2a614a8a565b6020026020010151613f6f565b9050611f438186614ab2565b945050505b600101611dc7565b505f8211611fab5760405162461bcd60e51b815260206004820152602260248201527f546f74616c2076616c7565206d7573742062652067726561746572207468616e604482015261020360f41b6064820152608401610c61565b5f835f03611fc757600454611fc09084614ac5565b9050612065565b5f611fd0612ae1565b5090505f81116120315760405162461bcd60e51b815260206004820152602660248201527f546f74616c206c6971756964697479206d75737420626520677265617465722060448201526507468616e20360d41b6064820152608401610c61565b60045461203e9082614ac5565b856004548661204d9190614ac5565b6120579190614ac5565b6120619190614adc565b9150505b805f036120a45760405162461bcd60e51b815260206004820152600d60248201526c04d696e7420717479206973203609c1b6044820152606401610c61565b6120ae8982613b78565b6120b6613bac565b886001600160a01b03167f884edad9ce6fa2440d8a54cc123490eb96d2768479d49ff9c7366125a9424364826040516120f191815260200190565b60405180910390a2945050505061211460015f80516020614e7883398151915255565b509392505050565b6060805f80612129612ae1565b5f549193509150806001600160401b038111156121485761214861454b565b604051908082528060200260200182016040528015612171578160200160208202803683370190505b509450806001600160401b0381111561218c5761218c61454b565b6040519080825280602002602001820160405280156121b5578160200160208202803683370190505b5093505f5b818110156122cb575f848483815181106121d6576121d6614a8a565b60200260200101516127106121eb9190614ac5565b6121f59190614adc565b90505f80838154811061220a5761220a614a8a565b905f5260205f209060030201600101549050808211156122755761222e8183614afb565b87848151811061224057612240614a8a565b602002602001018181525050600188848151811061226057612260614a8a565b911515602092830291909101909101526122c1565b61227f8282614afb565b87848151811061229157612291614a8a565b6020026020010181815250505f8884815181106122b0576122b0614a8a565b911515602092830291909101909101525b50506001016121ba565b505050509091565b5f806122dd612ae1565b915050805183106123265760405162461bcd60e51b8152602060048201526013602482015272092dcecc2d8d2c840c2e6e6cae840d2dcc8caf606b1b6044820152606401610c61565b80838151811061233857612338614a8a565b6020026020010151915050919050565b5f8181548110612356575f80fd5b5f9182526020909120600390910201805460018201546002909201546001600160a01b03909116925083565b6001600160a01b039182165f9081527f52c63247e1f47db19d5ce0460030c497f067ca4cebf71ba98eeadabe20bace016020908152604080832093909416825291909152205490565b606081428110156123ee5760405162461bcd60e51b8152600401610c6190614b68565b6123f6613ef5565b6123fe613f2c565b600554604080516385462d6f60e01b815290515f926001600160a01b0316916385462d6f9160048083019260209291908290030181865afa158015612445573d5f803e3d5ffd5b505050506040513d601f19601f820116820180604052508101906124699190614b32565b90505f60055f9054906101000a90046001600160a01b03166001600160a01b0316631acb61416040518163ffffffff1660e01b8152600401602060405180830381865afa1580156124bc573d5f803e3d5ffd5b505050506040513d601f19601f820116820180604052508101906124e091906149e4565b90505f87116125315760405162461bcd60e51b815260206004820152601c60248201527f5368617265206d7573742062652067726561746572207468616e2030000000006044820152606401610c61565b61253c333089610e2b565b505f6125535f80516020614e388339815191525490565b90505f81116125935760405162461bcd60e51b815260206004820152600c60248201526b4e6f206c697175696469747960a01b6044820152606401610c61565b5f80546001600160401b038111156125ad576125ad61454b565b6040519080825280602002602001820160405280156125d6578160200160208202803683370190505b5090505f6127106125e7868c614ac5565b6125f19190614adc565b90505f6125fe828c614afb565b90505f5b5f548110156127ad575f866001600160a01b031663a3e113fb305f858154811061262e5761262e614a8a565b5f91825260209091206003909102015460405160e084901b6001600160e01b03191681526001600160a01b03928316600482015291166024820152604401602060405180830381865afa158015612687573d5f803e3d5ffd5b505050506040513d601f19601f820116820180604052508101906126ab9190614b32565b9050856126b88483614ac5565b6126c29190614adc565b8583815181106126d4576126d4614a8a565b6020026020010181815250505f82815481106126f2576126f2614a8a565b5f91825260209091206003909102015485516001600160a01b039091169063a9059cbb908e9088908690811061272a5761272a614a8a565b60200260200101516040518363ffffffff1660e01b81526004016127639291906001600160a01b03929092168252602082015260400190565b6020604051808303815f875af115801561277f573d5f803e3d5ffd5b505050506040513d601f19601f820116820180604052508101906127a39190614b49565b5050600101612602565b50806127b83061126b565b10156128065760405162461bcd60e51b815260206004820152601d60248201527f496e73756666696369656e742042414c554e49206c69717569646974790000006044820152606401610c61565b60055460408051631d8cf42560e11b815290515f926001600160a01b031691633b19e84a9160048083019260209291908290030181865afa15801561284d573d5f803e3d5ffd5b505050506040513d601f19601f8201168201806040525081019061287191906149e4565b60405163a9059cbb60e01b81526001600160a01b0382166004820152602481018590529091505f90309063a9059cbb906044016020604051808303815f875af11580156128c0573d5f803e3d5ffd5b505050506040513d601f19601f820116820180604052508101906128e49190614b49565b9050806129295760405162461bcd60e51b8152602060048201526013602482015272119959481d1c985b9cd9995c8819985a5b1959606a1b6044820152606401610c61565b6129333084613f89565b61293b613bac565b8b6001600160a01b03167fe1fffcc4923d04b559f4d29a8bfc6cda04eb5b0d3c460751c2402c5c5cc9109c8460405161297691815260200190565b60405180910390a25092975050505050505061211460015f80516020614e7883398151915255565b5f8060035f9054906101000a90046001600160a01b03166001600160a01b031663313ce5676040518163ffffffff1660e01b8152600401602060405180830381865afa1580156129f0573d5f803e3d5ffd5b505050506040513d601f19601f82011682018060405250810190612a149190614b89565b60ff1690505f612a25826012614afb565b612a3090600a614c89565b90505f612a3b612ae1565b5090505f612a545f80516020614e388339815191525490565b9050805f03612a67575f94505050505090565b60025481612a758585614ac5565b612a7f9190614adc565b612a899190614ac5565b94505050505090565b612a9a6132e5565b6001600160a01b038116612ac357604051631e4fbdf760e01b81525f6004820152602401610c61565b612acc81613340565b50565b612adc8383836001613fbd565b505050565b5f8054606090806001600160401b03811115612aff57612aff61454b565b604051908082528060200260200182016040528015612b28578160200160208202803683370190505b5091505f5b81811015612c07575f808281548110612b4857612b48614a8a565b5f91825260208220600390910201546001600160a01b03169150612b6b82611bfb565b6003549091506001600160a01b0390811690831603612ba85780858481518110612b9757612b97614a8a565b602002602001018181525050612bd6565b5f612bb38383613f6f565b905080868581518110612bc857612bc8614a8a565b602002602001018181525050505b848381518110612be857612be8614a8a565b602002602001015186612bfb9190614ab2565b95505050600101612b2d565b50509091565b612c156140a0565b612acc816140e9565b612c266140a0565b61119582826140f1565b5f8060055f9054906101000a90046001600160a01b03166001600160a01b031663cff49d686040518163ffffffff1660e01b8152600401602060405180830381865afa158015612c82573d5f803e3d5ffd5b505050506040513d601f19601f82011682018060405250810190612ca691906149e4565b90505f6001600160a01b031660055f9054906101000a90046001600160a01b03166001600160a01b031663cff49d686040518163ffffffff1660e01b8152600401602060405180830381865afa158015612d02573d5f803e3d5ffd5b505050506040513d601f19601f82011682018060405250810190612d2691906149e4565b6001600160a01b031603612d7c5760405162461bcd60e51b815260206004820152601a60248201527f496e76616c696420726562616c616e63657220616464726573730000000000006044820152606401610c61565b8251845114612dd85760405162461bcd60e51b815260206004820152602260248201527f41737365747320616e642077656967687473206c656e677468206d69736d61746044820152610c6d60f31b6064820152608401610c61565b5f5b8451811015613069575f6001600160a01b0316858281518110612dff57612dff614a8a565b60200260200101516001600160a01b031603612e555760405162461bcd60e51b8152602060048201526015602482015274496e76616c6964206173736574206164647265737360581b6044820152606401610c61565b5f848281518110612e6857612e68614a8a565b602002602001015111612eae5760405162461bcd60e51b815260206004820152600e60248201526d125b9d985b1a59081dd95a59da1d60921b6044820152606401610c61565b5f6040518060600160405280878481518110612ecc57612ecc614a8a565b60200260200101516001600160a01b03168152602001868481518110612ef457612ef4614a8a565b60209081029190910181015182525f918101829052835460018082018655948352818320845160039092020180546001600160a01b0319166001600160a01b0390921691909117815590830151938101939093556040909101516002909201919091558551869083908110612f6b57612f6b614a8a565b6020908102919091010151604051636eb1769f60e11b81523060048201526001600160a01b0385811660248301529192509082169063dd62ed3e90604401602060405180830381865afa158015612fc4573d5f803e3d5ffd5b505050506040513d601f19601f82011682018060405250810190612fe89190614b32565b5f036130605760405163095ea7b360e01b81526001600160a01b0384811660048301525f19602483015282169063095ea7b3906044016020604051808303815f875af115801561303a573d5f803e3d5ffd5b505050506040513d601f19601f8201168201806040525081019061305e9190614b49565b505b50600101612dda565b506001949350505050565b5f61307f8484612382565b90505f1981146130d157818110156130c357604051637dc7a0d960e11b81526001600160a01b03841660048201526024810182905260448101839052606401610c61565b6130d184848484035f613fbd565b50505050565b6001600160a01b03831661310057604051634b637e8f60e11b81525f6004820152602401610c61565b6001600160a01b0382166131295760405163ec442f0560e01b81525f6004820152602401610c61565b612adc838383614141565b306001600160a01b037f00000000000000000000000000000000000000000000000000000000000000001614806131ba57507f00000000000000000000000000000000000000000000000000000000000000006001600160a01b03166131ae5f80516020614e58833981519152546001600160a01b031690565b6001600160a01b031614155b156112a25760405163703e46dd60e11b815260040160405180910390fd5b612acc6132e5565b816001600160a01b03166352d1902d6040518163ffffffff1660e01b8152600401602060405180830381865afa92505050801561323a575060408051601f3d908101601f1916820190925261323791810190614b32565b60015b61326257604051634c9c8ce360e01b81526001600160a01b0383166004820152602401610c61565b5f80516020614e58833981519152811461329257604051632a87526960e21b815260048101829052602401610c61565b612adc838361427a565b306001600160a01b037f000000000000000000000000000000000000000000000000000000000000000016146112a25760405163703e46dd60e11b815260040160405180910390fd5b336133177f9016d09d72d40fdae2fd8ceac6b6234c7706214fd39c1cd1e609a0528c199300546001600160a01b031690565b6001600160a01b0316146112a25760405163118cdaa760e01b8152336004820152602401610c61565b7f9016d09d72d40fdae2fd8ceac6b6234c7706214fd39c1cd1e609a0528c19930080546001600160a01b031981166001600160a01b03848116918217845560405192169182907f8be0079c531659141344cd1fd0a4f28419497f9722a3daafe3b4186f6b6457e0905f90a3505050565b60055460408051631acb614160e01b815290515f926001600160a01b031691631acb61419160048083019260209291908290030181865afa1580156133f7573d5f803e3d5ffd5b505050506040513d601f19601f8201168201806040525081019061341b91906149e4565b90505f60055f9054906101000a90046001600160a01b03166001600160a01b031663cff49d686040518163ffffffff1660e01b8152600401602060405180830381865afa15801561346e573d5f803e3d5ffd5b505050506040513d601f19601f8201168201806040525081019061349291906149e4565b90505f61349d6111b4565b90505f6134a8610d89565b90505f60055f9054906101000a90046001600160a01b03166001600160a01b0316634f4608a26040518163ffffffff1660e01b8152600401602060405180830381865afa1580156134fb573d5f803e3d5ffd5b505050506040513d601f19601f8201168201806040525081019061351f9190614b32565b90505f61352b3361126b565b90505f6135435f80516020614e388339815191525490565b90506064816135528585614ac5565b61355c9190614adc565b10156135a15760405162461bcd60e51b8152602060048201526014602482015273496e73756666696369656e742062616c616e636560601b6044820152606401610c61565b5f5b5f548110156136e7575f8082815481106135bf576135bf614a8a565b5f918252602090912060039091020154604051636eb1769f60e11b81523060048201526001600160a01b038a811660248301529091169063dd62ed3e90604401602060405180830381865afa15801561361a573d5f803e3d5ffd5b505050506040513d601f19601f8201168201806040525081019061363e9190614b32565b90505f198110156136de575f828154811061365b5761365b614a8a565b5f91825260209091206003909102015460405163095ea7b360e01b81526001600160a01b038a811660048301525f1960248301529091169063095ea7b3906044016020604051808303815f875af11580156136b8573d5f803e3d5ffd5b505050506040513d601f19601f820116820180604052508101906136dc9190614b49565b505b506001016135a3565b505f6136f16108c9565b9050866001600160a01b031663f0bf77148288886001548d8e60035f9054906101000a90046001600160a01b03166040518863ffffffff1660e01b81526004016137419796959493929190614c94565b5f604051808303815f87803b158015613758575f80fd5b505af115801561376a573d5f803e3d5ffd5b505050505f5b5f54811015613924575f80828154811061378c5761378c614a8a565b5f9182526020909120600390910201546040516370a0823160e01b81523060048201526001600160a01b03909116906370a0823190602401602060405180830381865afa1580156137df573d5f803e3d5ffd5b505050506040513d601f19601f820116820180604052508101906138039190614b32565b905082828151811061381757613817614a8a565b60200260200101518111156138a3578083838151811061383957613839614a8a565b602002602001015161384b9190614afb565b60065f80858154811061386057613860614a8a565b5f91825260208083206003909202909101546001600160a01b0316835282019290925260400181208054909190613898908490614ab2565b9091555061391b9050565b8282815181106138b5576138b5614a8a565b6020026020010151816138c89190614afb565b60065f8085815481106138dd576138dd614a8a565b5f91825260208083206003909202909101546001600160a01b0316835282019290925260400181208054909190613915908490614afb565b90915550505b50600101613770565b50336001600160a01b03167f279b343370f587af7fb675ae7c8578e9c8abcc373236ad02c501a4771fe7a7b88760405161395e9190614828565b60405180910390a25050505050505050565b5f546060906001600160401b0381111561398c5761398c61454b565b6040519080825280602002602001820160405280156139b5578160200160208202803683370190505b5090505f5b5f54811015610a54575f6127105f83815481106139d9576139d9614a8a565b905f5260205f20906003020160010154866139f49190614ac5565b6139fe9190614adc565b905080848381518110613a1357613a13614a8a565b60200260200101511015613a6557838281518110613a3357613a33614a8a565b602002602001015181613a469190614afb565b838381518110613a5857613a58614a8a565b6020026020010181815250505b506001016139ba565b5f805b5f54811015610e2557828181518110613a8c57613a8c614a8a565b602002602001015182613a9f9190614ab2565b9150600101613a71565b6003545f805490916001600160a01b031690829085908110613acd57613acd614a8a565b5f9182526020909120600390910201546001600160a01b031603613af25750806109c4565b5f613b275f8581548110613b0857613b08614a8a565b5f9182526020909120600390910201546001600160a01b0316846142cf565b90505f8111610e495760405162461bcd60e51b815260206004820152601b60248201527f496e76616c696420746f6b656e20616d6f756e7420746f2061646400000000006044820152606401610c61565b6001600160a01b038216613ba15760405163ec442f0560e01b81525f6004820152602401610c61565b6111955f8383614141565b5f80613bb661211c565b9092509050606461012c5f5b5f54811015613eee575f808281548110613bde57613bde614a8a565b905f5260205f20906003020160020154905083858381518110613c0357613c03614a8a565b602002602001015111613c3c57835f8381548110613c2357613c23614a8a565b905f5260205f2090600302016002018190555050613ee6565b858281518110613c4e57613c4e614a8a565b602002602001015115613d2c5783858381518110613c6e57613c6e614a8a565b6020026020010151613c809190614adc565b5f8381548110613c9257613c92614a8a565b905f5260205f2090600302016002015f828254613caf9190614ab2565b92505081905550805f8381548110613cc957613cc9614a8a565b905f5260205f209060030201600201541015613d275760405162461bcd60e51b815260206004820152601e60248201527f4f766572666c6f7720696e6372656d656e74696e6720736c69707061676500006044820152606401610c61565b613e94565b848281518110613d3e57613d3e614a8a565b60200260200101515f8381548110613d5857613d58614a8a565b905f5260205f209060030201600201541115613e3a5783858381518110613d8157613d81614a8a565b6020026020010151613d939190614adc565b5f8381548110613da557613da5614a8a565b905f5260205f2090600302016002015f828254613dc29190614afb565b92505081905550805f8381548110613ddc57613ddc614a8a565b905f5260205f209060030201600201541115613d275760405162461bcd60e51b815260206004820152601f60248201527f556e646572666c6f772064656372656d656e74696e6720736c697070616765006044820152606401610c61565b83858381518110613e4d57613e4d614a8a565b6020026020010151613e5f9190614adc565b5f8381548110613e7157613e71614a8a565b905f5260205f2090600302016002015f828254613e8e9190614ab2565b90915550505b825f8381548110613ea757613ea7614a8a565b905f5260205f209060030201600201541115613ee457825f8381548110613ed057613ed0614a8a565b905f5260205f209060030201600201819055505b505b600101613bc2565b5050505050565b5f80516020614e78833981519152805460011901613f2657604051633ee5aeb560e01b815260040160405180910390fd5b60029055565b7fcd5ed15c6e187e77e9aee88184c21f4f2182ab5827cb3b7e07fbedcd63f033005460ff16156112a25760405163d93c066560e01b815260040160405180910390fd5b6003545f90610e499084906001600160a01b031684610fba565b6001600160a01b038216613fb257604051634b637e8f60e11b81525f6004820152602401610c61565b611195825f83614141565b5f80516020614e188339815191526001600160a01b038516613ff45760405163e602df0560e01b81525f6004820152602401610c61565b6001600160a01b03841661401d57604051634a1406b160e11b81525f6004820152602401610c61565b6001600160a01b038086165f90815260018301602090815260408083209388168352929052208390558115613eee57836001600160a01b0316856001600160a01b03167f8c5be1e5ebec7d5bd14f71427d1e84f3dd0314c0f7b2291e5b200ac8c7c3b9258560405161409191815260200190565b60405180910390a35050505050565b7ff0c57e16840df040f15088dc2f81fe391c3923bec73e23a9662efc9c229c6a0054600160401b900460ff166112a257604051631afcd79f60e31b815260040160405180910390fd5b612a9a6140a0565b6140f96140a0565b5f80516020614e188339815191527f52c63247e1f47db19d5ce0460030c497f067ca4cebf71ba98eeadabe20bace036141328482614d42565b50600481016130d18382614d42565b5f80516020614e188339815191526001600160a01b03841661417b5781816002015f8282546141709190614ab2565b909155506141eb9050565b6001600160a01b0384165f90815260208290526040902054828110156141cd5760405163391434e360e21b81526001600160a01b03861660048201526024810182905260448101849052606401610c61565b6001600160a01b0385165f9081526020839052604090209083900390555b6001600160a01b038316614209576002810180548390039055614227565b6001600160a01b0383165f9081526020829052604090208054830190555b826001600160a01b0316846001600160a01b03167fddf252ad1be2c89b69c2b068fc378daa952ba7f163c4a11628f55a4df523b3ef8460405161426c91815260200190565b60405180910390a350505050565b614283826142e8565b6040516001600160a01b038316907fbc7cd75a20ee27fd9adebab32041f755214dbc6bffa90cc0225b39da2e5c2d3b905f90a28051156142c757612adc828261434b565b6111956143bd565b6003545f90610e49906001600160a01b03168484610fba565b806001600160a01b03163b5f0361431d57604051634c9c8ce360e01b81526001600160a01b0382166004820152602401610c61565b5f80516020614e5883398151915280546001600160a01b0319166001600160a01b0392909216919091179055565b60605f80846001600160a01b0316846040516143679190614e01565b5f60405180830381855af49150503d805f811461439f576040519150601f19603f3d011682016040523d82523d5f602084013e6143a4565b606091505b50915091506143b48583836143dc565b95945050505050565b34156112a25760405163b398979f60e01b815260040160405180910390fd5b6060826143f1576143ec82614438565b610e49565b815115801561440857506001600160a01b0384163b155b1561443157604051639996b31560e01b81526001600160a01b0385166004820152602401610c61565b5080610e49565b8051156144485780518082602001fd5b604051630a12f52160e11b815260040160405180910390fd5b602081525f82518060208401528060208501604085015e5f604082850101526040601f19601f83011684010191505092915050565b5f815180845260208085019450602084015f5b838110156144c5578151875295820195908201906001016144a9565b509495945050505050565b602081525f610e496020830184614496565b6001600160a01b0381168114612acc575f80fd5b8035614501816144e2565b919050565b5f8060408385031215614517575f80fd5b8235614522816144e2565b946020939093013593505050565b5f60208284031215614540575f80fd5b8135610e49816144e2565b634e487b7160e01b5f52604160045260245ffd5b604051601f8201601f191681016001600160401b03811182821017156145875761458761454b565b604052919050565b5f6001600160401b038211156145a7576145a761454b565b5060051b60200190565b5f82601f8301126145c0575f80fd5b813560206145d56145d08361458f565b61455f565b8083825260208201915060208460051b8701019350868411156145f6575f80fd5b602086015b8481101561461257803583529183019183016145fb565b509695505050505050565b5f805f8060808587031215614630575f80fd5b84356001600160401b0380821115614646575f80fd5b818701915087601f830112614659575f80fd5b813560206146696145d08361458f565b82815260059290921b8401810191818101908b841115614687575f80fd5b948201945b838610156146ae57853561469f816144e2565b8252948201949082019061468c565b985050880135925050808211156146c3575f80fd5b506146d0878288016145b1565b935050604085013591506146e6606086016144f6565b905092959194509250565b5f805f60608486031215614703575f80fd5b833561470e816144e2565b9250602084013561471e816144e2565b929592945050506040919091013590565b828152604060208201525f6147476040830184614496565b949350505050565b5f8060408385031215614760575f80fd5b823561476b816144e2565b91506020838101356001600160401b0380821115614787575f80fd5b818601915086601f83011261479a575f80fd5b8135818111156147ac576147ac61454b565b6147be601f8201601f1916850161455f565b915080825287848285010111156147d3575f80fd5b80848401858401375f848284010152508093505050509250929050565b5f815180845260208085019450602084015f5b838110156144c55781516001600160a01b031687529582019590820190600101614803565b602081525f610e4960208301846147f0565b5f805f805f8060c0878903121561484f575f80fd5b863561485a816144e2565b9550602087013561486a816144e2565b945060408701359350606087013592506080870135614888816144e2565b8092505060a087013590509295509295509295565b5f805f606084860312156148af575f80fd5b83356148ba816144e2565b925060208401356001600160401b038111156148d4575f80fd5b6148e0868287016145b1565b925050604084013590509250925092565b604080825283519082018190525f906020906060840190828701845b8281101561492b57815115158452928401929084019060010161490d565b50505083810360208501526111708186614496565b5f60208284031215614950575f80fd5b5035919050565b5f8060408385031215614968575f80fd5b8235614973816144e2565b91506020830135614983816144e2565b809150509250929050565b5f805f606084860312156149a0575f80fd5b83359250602084013561471e816144e2565b600181811c908216806149c657607f821691505b602082108103610e2557634e487b7160e01b5f52602260045260245ffd5b5f602082840312156149f4575f80fd5b8151610e49816144e2565b5f6020808385031215614a10575f80fd5b82516001600160401b03811115614a25575f80fd5b8301601f81018513614a35575f80fd5b8051614a436145d08261458f565b81815260059190911b82018301908381019087831115614a61575f80fd5b928401925b82841015614a7f57835182529284019290840190614a66565b979650505050505050565b634e487b7160e01b5f52603260045260245ffd5b634e487b7160e01b5f52601160045260245ffd5b808201808211156109c4576109c4614a9e565b80820281158282048414176109c4576109c4614a9e565b5f82614af657634e487b7160e01b5f52601260045260245ffd5b500490565b818103818111156109c4576109c4614a9e565b6001600160a01b039384168152919092166020820152604081019190915260600190565b5f60208284031215614b42575f80fd5b5051919050565b5f60208284031215614b59575f80fd5b81518015158114610e49575f80fd5b6020808252600790820152661156141254915160ca1b604082015260600190565b5f60208284031215614b99575f80fd5b815160ff81168114610e49575f80fd5b600181815b80851115614be357815f1904821115614bc957614bc9614a9e565b80851615614bd657918102915b93841c9390800290614bae565b509250929050565b5f82614bf9575060016109c4565b81614c0557505f6109c4565b8160018114614c1b5760028114614c2557614c41565b60019150506109c4565b60ff841115614c3657614c36614a9e565b50506001821b6109c4565b5060208310610133831016604e8410600b8410161715614c64575081810a6109c4565b614c6e8383614ba9565b805f1904821115614c8157614c81614a9e565b029392505050565b5f610e498383614beb565b60e081525f614ca660e083018a614496565b8281036020840152614cb8818a6147f0565b90508281036040840152614ccc8189614496565b606084019790975250506001600160a01b03938416608082015291831660a083015290911660c0909101529392505050565b601f821115612adc57805f5260205f20601f840160051c81016020851015614d235750805b601f840160051c820191505b81811015613eee575f8155600101614d2f565b81516001600160401b03811115614d5b57614d5b61454b565b614d6f81614d6984546149b2565b84614cfe565b602080601f831160018114614da2575f8415614d8b5750858301515b5f19600386901b1c1916600185901b178555614df9565b5f85815260208120601f198616915b82811015614dd057888601518255948401946001909101908401614db1565b5085821015614ded57878501515f19600388901b60f8161c191681555b505060018460011b0185555b505050505050565b5f82518060208501845e5f92019182525091905056fe52c63247e1f47db19d5ce0460030c497f067ca4cebf71ba98eeadabe20bace0052c63247e1f47db19d5ce0460030c497f067ca4cebf71ba98eeadabe20bace02360894a13ba1a3210667c828492db98dca3e2076cc3735a920a3ca505d382bbc9b779b17422d0df92223018b32b4d1fa46e071723d6817e2486d003becc55f00a2646970667358221220998ef2f5f9d951563285a0ce3daf472f17b40d00dc8dffe53097d638952362dc64736f6c63430008190033",
    "sourcePath": "c:/Users/Utente/Source/repos/baluni-contracts/contracts/pools/BaluniV1Pool.sol",
    "compiler": {
        "name": "solc",
        "version": "0.8.25+commit.b61c2a91"
    },
    "functionHashes": {
        "ONE()": "c2ee3a08",
        "UPGRADE_INTERFACE_VERSION()": "ad3cb1cc",
        "allowance(address,address)": "dd62ed3e",
        "approve(address,uint256)": "095ea7b3",
        "assetInfos(uint256)": "d14ef46d",
        "assetLiquidity(uint256)": "cf8fa764",
        "balanceOf(address)": "70a08231",
        "baseAsset()": "cdf456e1",
        "decimals()": "313ce567",
        "deposit(address,uint256[],uint256)": "b3bf9d32",
        "getAmountOut(address,address,uint256)": "4aa06652",
        "getAssetReserve(address)": "b2b55d70",
        "getAssets()": "67e4ac2c",
        "getDeviationForToken(address)": "89b3179b",
        "getDeviations()": "b7110e13",
        "getReserves()": "0902f1ac",
        "getSlippage(address)": "12899068",
        "getSlippageParams()": "7ff1c179",
        "getTokenWeight(address)": "250aa683",
        "getWeights()": "22acb867",
        "initialize(address[],uint256[],uint256,address)": "228835ac",
        "isRebalanceNeeded()": "8a77c8dc",
        "liquidity()": "1a686502",
        "name()": "06fdde03",
        "owner()": "8da5cb5b",
        "paused()": "5c975abb",
        "proxiableUUID()": "52d1902d",
        "quotePotentialSwap(address,address,uint256)": "43c2e2f5",
        "rebalance()": "7d7c2a1c",
        "rebalanceAndDeposit(address)": "8de30f30",
        "registry()": "7b103999",
        "renounceOwnership()": "715018a6",
        "reserves(address)": "d66bd524",
        "swap(address,address,uint256,uint256,address,uint256)": "9908fc8b",
        "symbol()": "95d89b41",
        "totalSupply()": "18160ddd",
        "totalValuation()": "295b9300",
        "transfer(address,uint256)": "a9059cbb",
        "transferFrom(address,address,uint256)": "23b872dd",
        "transferOwnership(address)": "f2fde38b",
        "trigger()": "7fec8d38",
        "unitPrice()": "e73faa2d",
        "upgradeToAndCall(address,bytes)": "4f1ef286",
        "withdraw(uint256,address,uint256)": "e63697c8"
    },
    "gasEstimates": {
        "creation": {
            "codeDepositCost": "4034600",
            "executionCost": "infinite",
            "totalCost": "infinite"
        },
        "external": {
            "ONE()": "2383",
            "UPGRADE_INTERFACE_VERSION()": "infinite",
            "allowance(address,address)": "infinite",
            "approve(address,uint256)": "infinite",
            "assetInfos(uint256)": "8940",
            "assetLiquidity(uint256)": "infinite",
            "balanceOf(address)": "infinite",
            "baseAsset()": "2447",
            "decimals()": "222",
            "deposit(address,uint256[],uint256)": "infinite",
            "getAmountOut(address,address,uint256)": "infinite",
            "getAssetReserve(address)": "infinite",
            "getAssets()": "infinite",
            "getDeviationForToken(address)": "infinite",
            "getDeviations()": "infinite",
            "getReserves()": "infinite",
            "getSlippage(address)": "infinite",
            "getSlippageParams()": "infinite",
            "getTokenWeight(address)": "infinite",
            "getWeights()": "infinite",
            "initialize(address[],uint256[],uint256,address)": "infinite",
            "isRebalanceNeeded()": "infinite",
            "liquidity()": "infinite",
            "name()": "infinite",
            "owner()": "2464",
            "paused()": "2348",
            "proxiableUUID()": "infinite",
            "quotePotentialSwap(address,address,uint256)": "infinite",
            "rebalance()": "infinite",
            "rebalanceAndDeposit(address)": "infinite",
            "registry()": "2469",
            "renounceOwnership()": "infinite",
            "reserves(address)": "2576",
            "swap(address,address,uint256,uint256,address,uint256)": "infinite",
            "symbol()": "infinite",
            "totalSupply()": "infinite",
            "totalValuation()": "infinite",
            "transfer(address,uint256)": "infinite",
            "transferFrom(address,address,uint256)": "infinite",
            "transferOwnership(address)": "infinite",
            "trigger()": "2340",
            "unitPrice()": "infinite",
            "upgradeToAndCall(address,bytes)": "infinite",
            "withdraw(uint256,address,uint256)": "infinite"
        },
        "internal": {
            "_authorizeUpgrade(address)": "infinite",
            "_calculateAmountsToAdd(uint256,uint256[] memory)": "infinite",
            "_calculateLiquidity(uint256,uint256)": "infinite",
            "_calculateTotalAddedLiquidity(uint256[] memory)": "infinite",
            "_computeTotalValuation()": "infinite",
            "_convertBaseToToken(address,uint256)": "infinite",
            "_convertTokenToBase(address,uint256)": "infinite",
            "_performRebalanceIfNeeded()": "infinite",
            "initializeAssets(address[] memory,uint256[] memory)": "infinite",
            "updateSlippage()": "infinite"
        }
    }
}