{
    "contractName": "PoolAlpha",
    "abi": [
        {
            "inputs": [
                {
                    "internalType": "address",
                    "name": "target",
                    "type": "address"
                }
            ],
            "name": "AddressEmptyCode",
            "type": "error"
        },
        {
            "inputs": [
                {
                    "internalType": "address",
                    "name": "account",
                    "type": "address"
                }
            ],
            "name": "AddressInsufficientBalance",
            "type": "error"
        },
        {
            "inputs": [],
            "name": "EnforcedPause",
            "type": "error"
        },
        {
            "inputs": [],
            "name": "ExpectedPause",
            "type": "error"
        },
        {
            "inputs": [],
            "name": "FailedInnerCall",
            "type": "error"
        },
        {
            "inputs": [],
            "name": "InvalidInitialization",
            "type": "error"
        },
        {
            "inputs": [],
            "name": "NotInitializing",
            "type": "error"
        },
        {
            "inputs": [
                {
                    "internalType": "address",
                    "name": "owner",
                    "type": "address"
                }
            ],
            "name": "OwnableInvalidOwner",
            "type": "error"
        },
        {
            "inputs": [
                {
                    "internalType": "address",
                    "name": "account",
                    "type": "address"
                }
            ],
            "name": "OwnableUnauthorizedAccount",
            "type": "error"
        },
        {
            "inputs": [],
            "name": "ReentrancyGuardReentrantCall",
            "type": "error"
        },
        {
            "inputs": [
                {
                    "internalType": "address",
                    "name": "token",
                    "type": "address"
                }
            ],
            "name": "SafeERC20FailedOperation",
            "type": "error"
        },
        {
            "anonymous": false,
            "inputs": [
                {
                    "indexed": true,
                    "internalType": "address",
                    "name": "token",
                    "type": "address"
                },
                {
                    "indexed": true,
                    "internalType": "address",
                    "name": "asset",
                    "type": "address"
                }
            ],
            "name": "AssetAdded",
            "type": "event"
        },
        {
            "anonymous": false,
            "inputs": [
                {
                    "indexed": true,
                    "internalType": "address",
                    "name": "sender",
                    "type": "address"
                },
                {
                    "indexed": false,
                    "internalType": "address",
                    "name": "token",
                    "type": "address"
                },
                {
                    "indexed": false,
                    "internalType": "uint256",
                    "name": "amount",
                    "type": "uint256"
                },
                {
                    "indexed": false,
                    "internalType": "uint256",
                    "name": "liquidity",
                    "type": "uint256"
                },
                {
                    "indexed": true,
                    "internalType": "address",
                    "name": "to",
                    "type": "address"
                }
            ],
            "name": "Deposit",
            "type": "event"
        },
        {
            "anonymous": false,
            "inputs": [
                {
                    "indexed": true,
                    "internalType": "address",
                    "name": "previousDev",
                    "type": "address"
                },
                {
                    "indexed": true,
                    "internalType": "address",
                    "name": "newDev",
                    "type": "address"
                }
            ],
            "name": "DevUpdated",
            "type": "event"
        },
        {
            "anonymous": false,
            "inputs": [
                {
                    "indexed": false,
                    "internalType": "uint256",
                    "name": "previousHaircut",
                    "type": "uint256"
                },
                {
                    "indexed": false,
                    "internalType": "uint256",
                    "name": "newHaircut",
                    "type": "uint256"
                }
            ],
            "name": "HaircutRateUpdated",
            "type": "event"
        },
        {
            "anonymous": false,
            "inputs": [
                {
                    "indexed": false,
                    "internalType": "uint64",
                    "name": "version",
                    "type": "uint64"
                }
            ],
            "name": "Initialized",
            "type": "event"
        },
        {
            "anonymous": false,
            "inputs": [
                {
                    "indexed": true,
                    "internalType": "address",
                    "name": "previousOracle",
                    "type": "address"
                },
                {
                    "indexed": true,
                    "internalType": "address",
                    "name": "newOracle",
                    "type": "address"
                }
            ],
            "name": "OracleUpdated",
            "type": "event"
        },
        {
            "anonymous": false,
            "inputs": [
                {
                    "indexed": true,
                    "internalType": "address",
                    "name": "previousOwner",
                    "type": "address"
                },
                {
                    "indexed": true,
                    "internalType": "address",
                    "name": "newOwner",
                    "type": "address"
                }
            ],
            "name": "OwnershipTransferred",
            "type": "event"
        },
        {
            "anonymous": false,
            "inputs": [
                {
                    "indexed": false,
                    "internalType": "address",
                    "name": "account",
                    "type": "address"
                }
            ],
            "name": "Paused",
            "type": "event"
        },
        {
            "anonymous": false,
            "inputs": [
                {
                    "indexed": false,
                    "internalType": "uint256",
                    "name": "previousPriceDeviation",
                    "type": "uint256"
                },
                {
                    "indexed": false,
                    "internalType": "uint256",
                    "name": "newPriceDeviation",
                    "type": "uint256"
                }
            ],
            "name": "PriceDeviationUpdated",
            "type": "event"
        },
        {
            "anonymous": false,
            "inputs": [
                {
                    "indexed": false,
                    "internalType": "uint256",
                    "name": "previousRetentionRatio",
                    "type": "uint256"
                },
                {
                    "indexed": false,
                    "internalType": "uint256",
                    "name": "newRetentionRatio",
                    "type": "uint256"
                }
            ],
            "name": "RetentionRatioUpdated",
            "type": "event"
        },
        {
            "anonymous": false,
            "inputs": [
                {
                    "indexed": false,
                    "internalType": "uint256",
                    "name": "previousK",
                    "type": "uint256"
                },
                {
                    "indexed": false,
                    "internalType": "uint256",
                    "name": "newK",
                    "type": "uint256"
                },
                {
                    "indexed": false,
                    "internalType": "uint256",
                    "name": "previousN",
                    "type": "uint256"
                },
                {
                    "indexed": false,
                    "internalType": "uint256",
                    "name": "newN",
                    "type": "uint256"
                },
                {
                    "indexed": false,
                    "internalType": "uint256",
                    "name": "previousC1",
                    "type": "uint256"
                },
                {
                    "indexed": false,
                    "internalType": "uint256",
                    "name": "newC1",
                    "type": "uint256"
                },
                {
                    "indexed": false,
                    "internalType": "uint256",
                    "name": "previousXThreshold",
                    "type": "uint256"
                },
                {
                    "indexed": false,
                    "internalType": "uint256",
                    "name": "newXThreshold",
                    "type": "uint256"
                }
            ],
            "name": "SlippageParamsUpdated",
            "type": "event"
        },
        {
            "anonymous": false,
            "inputs": [
                {
                    "indexed": true,
                    "internalType": "address",
                    "name": "sender",
                    "type": "address"
                },
                {
                    "indexed": false,
                    "internalType": "address",
                    "name": "fromToken",
                    "type": "address"
                },
                {
                    "indexed": false,
                    "internalType": "address",
                    "name": "toToken",
                    "type": "address"
                },
                {
                    "indexed": false,
                    "internalType": "uint256",
                    "name": "fromAmount",
                    "type": "uint256"
                },
                {
                    "indexed": false,
                    "internalType": "uint256",
                    "name": "toAmount",
                    "type": "uint256"
                },
                {
                    "indexed": true,
                    "internalType": "address",
                    "name": "to",
                    "type": "address"
                }
            ],
            "name": "Swap",
            "type": "event"
        },
        {
            "anonymous": false,
            "inputs": [
                {
                    "indexed": false,
                    "internalType": "address",
                    "name": "account",
                    "type": "address"
                }
            ],
            "name": "Unpaused",
            "type": "event"
        },
        {
            "anonymous": false,
            "inputs": [
                {
                    "indexed": true,
                    "internalType": "address",
                    "name": "sender",
                    "type": "address"
                },
                {
                    "indexed": false,
                    "internalType": "address",
                    "name": "token",
                    "type": "address"
                },
                {
                    "indexed": false,
                    "internalType": "uint256",
                    "name": "amount",
                    "type": "uint256"
                },
                {
                    "indexed": false,
                    "internalType": "uint256",
                    "name": "liquidity",
                    "type": "uint256"
                },
                {
                    "indexed": true,
                    "internalType": "address",
                    "name": "to",
                    "type": "address"
                }
            ],
            "name": "Withdraw",
            "type": "event"
        },
        {
            "inputs": [
                {
                    "internalType": "address",
                    "name": "token",
                    "type": "address"
                },
                {
                    "internalType": "address",
                    "name": "asset",
                    "type": "address"
                }
            ],
            "name": "addAsset",
            "outputs": [],
            "stateMutability": "nonpayable",
            "type": "function"
        },
        {
            "inputs": [
                {
                    "internalType": "address",
                    "name": "token",
                    "type": "address"
                }
            ],
            "name": "assetOf",
            "outputs": [
                {
                    "internalType": "address",
                    "name": "",
                    "type": "address"
                }
            ],
            "stateMutability": "view",
            "type": "function"
        },
        {
            "inputs": [
                {
                    "internalType": "address",
                    "name": "token",
                    "type": "address"
                },
                {
                    "internalType": "uint256",
                    "name": "amount",
                    "type": "uint256"
                },
                {
                    "internalType": "address",
                    "name": "to",
                    "type": "address"
                },
                {
                    "internalType": "uint256",
                    "name": "deadline",
                    "type": "uint256"
                }
            ],
            "name": "deposit",
            "outputs": [
                {
                    "internalType": "uint256",
                    "name": "liquidity",
                    "type": "uint256"
                }
            ],
            "stateMutability": "nonpayable",
            "type": "function"
        },
        {
            "inputs": [],
            "name": "getC1",
            "outputs": [
                {
                    "internalType": "uint256",
                    "name": "",
                    "type": "uint256"
                }
            ],
            "stateMutability": "view",
            "type": "function"
        },
        {
            "inputs": [],
            "name": "getDev",
            "outputs": [
                {
                    "internalType": "address",
                    "name": "",
                    "type": "address"
                }
            ],
            "stateMutability": "view",
            "type": "function"
        },
        {
            "inputs": [],
            "name": "getEquilibriumCoverageRatio",
            "outputs": [
                {
                    "internalType": "uint256",
                    "name": "",
                    "type": "uint256"
                }
            ],
            "stateMutability": "view",
            "type": "function"
        },
        {
            "inputs": [],
            "name": "getHaircutRate",
            "outputs": [
                {
                    "internalType": "uint256",
                    "name": "",
                    "type": "uint256"
                }
            ],
            "stateMutability": "view",
            "type": "function"
        },
        {
            "inputs": [],
            "name": "getMaxPriceDeviation",
            "outputs": [
                {
                    "internalType": "uint256",
                    "name": "",
                    "type": "uint256"
                }
            ],
            "stateMutability": "view",
            "type": "function"
        },
        {
            "inputs": [],
            "name": "getPriceOracle",
            "outputs": [
                {
                    "internalType": "address",
                    "name": "",
                    "type": "address"
                }
            ],
            "stateMutability": "view",
            "type": "function"
        },
        {
            "inputs": [],
            "name": "getRetentionRatio",
            "outputs": [
                {
                    "internalType": "uint256",
                    "name": "",
                    "type": "uint256"
                }
            ],
            "stateMutability": "view",
            "type": "function"
        },
        {
            "inputs": [],
            "name": "getSlippageParamK",
            "outputs": [
                {
                    "internalType": "uint256",
                    "name": "",
                    "type": "uint256"
                }
            ],
            "stateMutability": "view",
            "type": "function"
        },
        {
            "inputs": [],
            "name": "getSlippageParamN",
            "outputs": [
                {
                    "internalType": "uint256",
                    "name": "",
                    "type": "uint256"
                }
            ],
            "stateMutability": "view",
            "type": "function"
        },
        {
            "inputs": [],
            "name": "getTokenAddresses",
            "outputs": [
                {
                    "internalType": "address[]",
                    "name": "",
                    "type": "address[]"
                }
            ],
            "stateMutability": "view",
            "type": "function"
        },
        {
            "inputs": [],
            "name": "getXThreshold",
            "outputs": [
                {
                    "internalType": "uint256",
                    "name": "",
                    "type": "uint256"
                }
            ],
            "stateMutability": "view",
            "type": "function"
        },
        {
            "inputs": [
                {
                    "internalType": "address",
                    "name": "_registry",
                    "type": "address"
                }
            ],
            "name": "initialize",
            "outputs": [],
            "stateMutability": "nonpayable",
            "type": "function"
        },
        {
            "inputs": [],
            "name": "owner",
            "outputs": [
                {
                    "internalType": "address",
                    "name": "",
                    "type": "address"
                }
            ],
            "stateMutability": "view",
            "type": "function"
        },
        {
            "inputs": [],
            "name": "pause",
            "outputs": [],
            "stateMutability": "nonpayable",
            "type": "function"
        },
        {
            "inputs": [],
            "name": "paused",
            "outputs": [
                {
                    "internalType": "bool",
                    "name": "",
                    "type": "bool"
                }
            ],
            "stateMutability": "view",
            "type": "function"
        },
        {
            "inputs": [
                {
                    "internalType": "address",
                    "name": "initialToken",
                    "type": "address"
                },
                {
                    "internalType": "address",
                    "name": "wantedToken",
                    "type": "address"
                }
            ],
            "name": "quoteMaxInitialAssetWithdrawable",
            "outputs": [
                {
                    "internalType": "uint256",
                    "name": "maxInitialAssetAmount",
                    "type": "uint256"
                }
            ],
            "stateMutability": "view",
            "type": "function"
        },
        {
            "inputs": [
                {
                    "internalType": "address",
                    "name": "fromToken",
                    "type": "address"
                },
                {
                    "internalType": "address",
                    "name": "toToken",
                    "type": "address"
                },
                {
                    "internalType": "uint256",
                    "name": "fromAmount",
                    "type": "uint256"
                }
            ],
            "name": "quotePotentialSwap",
            "outputs": [
                {
                    "internalType": "uint256",
                    "name": "potentialOutcome",
                    "type": "uint256"
                },
                {
                    "internalType": "uint256",
                    "name": "haircut",
                    "type": "uint256"
                }
            ],
            "stateMutability": "view",
            "type": "function"
        },
        {
            "inputs": [
                {
                    "internalType": "address",
                    "name": "token",
                    "type": "address"
                },
                {
                    "internalType": "uint256",
                    "name": "liquidity",
                    "type": "uint256"
                }
            ],
            "name": "quotePotentialWithdraw",
            "outputs": [
                {
                    "internalType": "uint256",
                    "name": "amount",
                    "type": "uint256"
                },
                {
                    "internalType": "uint256",
                    "name": "fee",
                    "type": "uint256"
                },
                {
                    "internalType": "bool",
                    "name": "enoughCash",
                    "type": "bool"
                }
            ],
            "stateMutability": "view",
            "type": "function"
        },
        {
            "inputs": [
                {
                    "internalType": "address",
                    "name": "initialToken",
                    "type": "address"
                },
                {
                    "internalType": "address",
                    "name": "wantedToken",
                    "type": "address"
                },
                {
                    "internalType": "uint256",
                    "name": "liquidity",
                    "type": "uint256"
                }
            ],
            "name": "quotePotentialWithdrawFromOtherAsset",
            "outputs": [
                {
                    "internalType": "uint256",
                    "name": "amount",
                    "type": "uint256"
                },
                {
                    "internalType": "uint256",
                    "name": "fee",
                    "type": "uint256"
                }
            ],
            "stateMutability": "view",
            "type": "function"
        },
        {
            "inputs": [
                {
                    "internalType": "address",
                    "name": "token",
                    "type": "address"
                }
            ],
            "name": "recoverUserFunds",
            "outputs": [],
            "stateMutability": "nonpayable",
            "type": "function"
        },
        {
            "inputs": [
                {
                    "internalType": "address",
                    "name": "key",
                    "type": "address"
                }
            ],
            "name": "removeAsset",
            "outputs": [],
            "stateMutability": "nonpayable",
            "type": "function"
        },
        {
            "inputs": [],
            "name": "renounceOwnership",
            "outputs": [],
            "stateMutability": "nonpayable",
            "type": "function"
        },
        {
            "inputs": [
                {
                    "internalType": "address",
                    "name": "dev",
                    "type": "address"
                }
            ],
            "name": "setDev",
            "outputs": [],
            "stateMutability": "nonpayable",
            "type": "function"
        },
        {
            "inputs": [
                {
                    "internalType": "uint256",
                    "name": "haircutRate_",
                    "type": "uint256"
                }
            ],
            "name": "setHaircutRate",
            "outputs": [],
            "stateMutability": "nonpayable",
            "type": "function"
        },
        {
            "inputs": [
                {
                    "internalType": "uint256",
                    "name": "maxPriceDeviation_",
                    "type": "uint256"
                }
            ],
            "name": "setMaxPriceDeviation",
            "outputs": [],
            "stateMutability": "nonpayable",
            "type": "function"
        },
        {
            "inputs": [
                {
                    "internalType": "address",
                    "name": "priceOracle",
                    "type": "address"
                }
            ],
            "name": "setPriceOracle",
            "outputs": [],
            "stateMutability": "nonpayable",
            "type": "function"
        },
        {
            "inputs": [
                {
                    "internalType": "uint256",
                    "name": "retentionRatio_",
                    "type": "uint256"
                }
            ],
            "name": "setRetentionRatio",
            "outputs": [],
            "stateMutability": "nonpayable",
            "type": "function"
        },
        {
            "inputs": [
                {
                    "internalType": "uint256",
                    "name": "k_",
                    "type": "uint256"
                },
                {
                    "internalType": "uint256",
                    "name": "n_",
                    "type": "uint256"
                },
                {
                    "internalType": "uint256",
                    "name": "c1_",
                    "type": "uint256"
                },
                {
                    "internalType": "uint256",
                    "name": "xThreshold_",
                    "type": "uint256"
                }
            ],
            "name": "setSlippageParams",
            "outputs": [],
            "stateMutability": "nonpayable",
            "type": "function"
        },
        {
            "inputs": [
                {
                    "internalType": "address",
                    "name": "fromToken",
                    "type": "address"
                },
                {
                    "internalType": "address",
                    "name": "toToken",
                    "type": "address"
                },
                {
                    "internalType": "uint256",
                    "name": "fromAmount",
                    "type": "uint256"
                },
                {
                    "internalType": "uint256",
                    "name": "minimumToAmount",
                    "type": "uint256"
                },
                {
                    "internalType": "address",
                    "name": "to",
                    "type": "address"
                },
                {
                    "internalType": "uint256",
                    "name": "deadline",
                    "type": "uint256"
                }
            ],
            "name": "swap",
            "outputs": [
                {
                    "internalType": "uint256",
                    "name": "actualToAmount",
                    "type": "uint256"
                },
                {
                    "internalType": "uint256",
                    "name": "haircut",
                    "type": "uint256"
                }
            ],
            "stateMutability": "nonpayable",
            "type": "function"
        },
        {
            "inputs": [
                {
                    "internalType": "address",
                    "name": "newOwner",
                    "type": "address"
                }
            ],
            "name": "transferOwnership",
            "outputs": [],
            "stateMutability": "nonpayable",
            "type": "function"
        },
        {
            "inputs": [],
            "name": "unpause",
            "outputs": [],
            "stateMutability": "nonpayable",
            "type": "function"
        },
        {
            "inputs": [
                {
                    "internalType": "address",
                    "name": "token",
                    "type": "address"
                },
                {
                    "internalType": "uint256",
                    "name": "liquidity",
                    "type": "uint256"
                },
                {
                    "internalType": "uint256",
                    "name": "minimumAmount",
                    "type": "uint256"
                },
                {
                    "internalType": "address",
                    "name": "to",
                    "type": "address"
                },
                {
                    "internalType": "uint256",
                    "name": "deadline",
                    "type": "uint256"
                }
            ],
            "name": "withdraw",
            "outputs": [
                {
                    "internalType": "uint256",
                    "name": "amount",
                    "type": "uint256"
                }
            ],
            "stateMutability": "nonpayable",
            "type": "function"
        },
        {
            "inputs": [
                {
                    "internalType": "address",
                    "name": "initialToken",
                    "type": "address"
                },
                {
                    "internalType": "address",
                    "name": "wantedToken",
                    "type": "address"
                },
                {
                    "internalType": "uint256",
                    "name": "liquidity",
                    "type": "uint256"
                },
                {
                    "internalType": "uint256",
                    "name": "minimumAmount",
                    "type": "uint256"
                },
                {
                    "internalType": "address",
                    "name": "to",
                    "type": "address"
                },
                {
                    "internalType": "uint256",
                    "name": "deadline",
                    "type": "uint256"
                }
            ],
            "name": "withdrawFromOtherAsset",
            "outputs": [
                {
                    "internalType": "uint256",
                    "name": "amount",
                    "type": "uint256"
                }
            ],
            "stateMutability": "nonpayable",
            "type": "function"
        }
    ],
    "bytecode": "6080604052348015600e575f80fd5b506147588061001c5f395ff3fe608060405234801561000f575f80fd5b5060043610610213575f3560e01c80638456cb591161011f578063cb733d7a116100a9578063df22018111610079578063df22018114610470578063ee8c24b814610483578063f2fde38b14610498578063f57e84d5146104ab578063fca513a8146104be575f80fd5b8063cb733d7a1461043a578063d477f05f14610442578063da48999714610455578063ddcbc51614610468575f80fd5b80639908fc8b116100ef5780639908fc8b146103e65780639ee4c057146103f9578063a4275ceb1461040c578063a76f54d21461041f578063c4d66de814610427575f80fd5b80638456cb591461036b5780638da5cb5b14610373578063907448ed146103a357806390d25074146103d3575f80fd5b80634a5e42b1116101a0578063715018a611610170578063715018a61461033857806371f96211146103405780637727c655146103535780637a1c36d11461035b5780637fdd5a8e14610363575f80fd5b80634a5e42b1146102e8578063530e784f146102fb57806355af008a1461030e5780635c975abb14610316575f80fd5b80630f91f06f116101e65780630f91f06f1461027f5780632a803b5e146102925780633f4ba83a146102a557806343c2e2f5146102ad57806344db964a146102d5575f80fd5b806305f7bc261461021757806309a5fca31461023257806309bb9267146102455780630d4636b51461026a575b5f80fd5b61021f6104cf565b6040519081526020015b60405180910390f35b61021f61024036600461418b565b6104dd565b6047546001600160a01b03165b6040516001600160a01b039091168152602001610229565b61027d6102783660046141d9565b610633565b005b61021f61028d3660046141f4565b6106df565b61021f6102a0366004614257565b610e6b565b61027d6110e5565b6102c06102bb36600461428e565b611119565b60408051928352602083019190915201610229565b61027d6102e33660046142cc565b611321565b61027d6102f63660046141d9565b61137e565b61027d6103093660046141d9565b6114bb565b60405461021f565b5f805160206146e38339815191525460ff166040519015158152602001610229565b61027d611544565b61025261034e3660046141d9565b611555565b60415461021f565b60435461021f565b60445461021f565b61027d611565565b7f9016d09d72d40fdae2fd8ceac6b6234c7706214fd39c1cd1e609a0528c199300546001600160a01b0316610252565b6103b66103b13660046142e3565b611597565b604080519384526020840192909252151590820152606001610229565b61021f6103e136600461430d565b611626565b6102c06103f43660046141f4565b611782565b61027d6104073660046142cc565b611c0c565b6102c061041a36600461428e565b611c69565b60425461021f565b61027d6104353660046141d9565b611f43565b60455461021f565b61027d6104503660046141d9565b6120d3565b61027d610463366004614257565b61215c565b60465461021f565b61027d61047e366004614352565b612255565b61048b6122fc565b6040516102299190614381565b61027d6104a63660046141d9565b61235e565b61027d6104b93660046142cc565b612398565b6049546001600160a01b0316610252565b5f6104d86123f5565b905090565b5f81428110156105085760405162461bcd60e51b81526004016104ff906143cd565b60405180910390fd5b610510612754565b61051861278b565b5f861161055b5760405162461bcd60e51b815260206004820152601160248201527016915493d7d054d4d15517d05353d55395607a1b60448201526064016104ff565b6001600160a01b0387166105815760405162461bcd60e51b81526004016104ff906143ee565b6001600160a01b0384166105a75760405162461bcd60e51b81526004016104ff906143ee565b5f6105b1886127bb565b90506105bf8188888861281d565b604080516001600160a01b038b81168252602082018490529181018a905291945086169033907ffb80d861da582b723be2d19507ce3e03851820c464abea89156ec77e089b1ad99060600160405180910390a35061062960015f8051602061470383398151915255565b5095945050505050565b6047546001600160a01b0316331461065d5760405162461bcd60e51b81526004016104ff9061440c565b6040516370a0823160e01b81523060048201525f906001600160a01b038316906370a0823190602401602060405180830381865afa1580156106a1573d5f803e3d5ffd5b505050506040513d601f19601f820116820180604052508101906106c5919061442f565b90506106db6001600160a01b03831633836129ce565b5050565b5f81428110156107015760405162461bcd60e51b81526004016104ff906143cd565b610709612754565b61071161278b565b5f86116107545760405162461bcd60e51b815260206004820152601160248201527016915493d7d054d4d15517d05353d55395607a1b60448201526064016104ff565b6001600160a01b03871661077a5760405162461bcd60e51b81526004016104ff906143ee565b6001600160a01b0388166107a05760405162461bcd60e51b81526004016104ff906143ee565b6001600160a01b0384166107c65760405162461bcd60e51b81526004016104ff906143ee565b5f6107d0896127bb565b90505f6107dc896127bb565b9050816001600160a01b0316637e1317fa6040518163ffffffff1660e01b8152600401602060405180830381865afa15801561081a573d5f803e3d5ffd5b505050506040513d601f19601f8201168201806040525081019061083e9190614446565b6001600160a01b0316816001600160a01b0316637e1317fa6040518163ffffffff1660e01b8152600401602060405180830381865afa158015610883573d5f803e3d5ffd5b505050506040513d601f19601f820116820180604052508101906108a79190614446565b6001600160a01b0316146108cd5760405162461bcd60e51b81526004016104ff90614461565b6108d78a8a612a32565b5f816001600160a01b031663313ce5676040518163ffffffff1660e01b8152600401602060405180830381865afa158015610914573d5f803e3d5ffd5b505050506040513d601f19601f820116820180604052508101906109389190614487565b61094390600a61459b565b836001600160a01b031663313ce5676040518163ffffffff1660e01b8152600401602060405180830381865afa15801561097f573d5f803e3d5ffd5b505050506040513d601f19601f820116820180604052508101906109a39190614487565b6109ae90600a61459b565b6109b8908b6145a9565b6109c291906145d4565b90505f81116109fb5760405162461bcd60e51b8152602060048201526005602482015264445553543f60d81b60448201526064016104ff565b610a106001600160a01b038416338584612dcd565b5f610a1b838b612dfb565b929850919250829150610a6490505760405162461bcd60e51b815260206004820152600f60248201526e09c9ea8be8a9c9eaa8e90be8682a69608b1b60448201526064016104ff565b670de0b6b3a7640000610b41846001600160a01b031663705727b56040518163ffffffff1660e01b8152600401602060405180830381865afa158015610aac573d5f803e3d5ffd5b505050506040513d601f19601f82011682018060405250810190610ad0919061442f565b88866001600160a01b031663961be3916040518163ffffffff1660e01b8152600401602060405180830381865afa158015610b0d573d5f803e3d5ffd5b505050506040513d601f19601f82011682018060405250810190610b31919061442f565b610b3b91906145e7565b90613126565b1015610b7f5760405162461bcd60e51b815260206004820152600d60248201526c434f565f524154494f5f4c4f5760981b60448201526064016104ff565b85891115610b9f5760405162461bcd60e51b81526004016104ff906145fa565b5f846001600160a01b03166318160ddd6040518163ffffffff1660e01b8152600401602060405180830381865afa158015610bdc573d5f803e3d5ffd5b505050506040513d601f19601f82011682018060405250810190610c00919061442f565b83866001600160a01b031663705727b56040518163ffffffff1660e01b8152600401602060405180830381865afa158015610c3d573d5f803e3d5ffd5b505050506040513d601f19601f82011682018060405250810190610c61919061442f565b610c6b91906145a9565b610c7591906145d4565b604051632770a7eb60e21b81526001600160a01b0387166004820181905260248201869052919250639dc29fac906044015f604051808303815f87803b158015610cbd575f80fd5b505af1158015610ccf573d5f803e3d5ffd5b505060405163d8b8785360e01b8152600481018490526001600160a01b038816925063d8b8785391506024015f604051808303815f87803b158015610d12575f80fd5b505af1158015610d24573d5f803e3d5ffd5b50506040516313f3df3160e31b8152600481018a90526001600160a01b0387169250639f9ef98891506024015f604051808303815f87803b158015610d67575f80fd5b505af1158015610d79573d5f803e3d5ffd5b5050604051639e79eaa560e01b81526001600160a01b038c81166004830152602482018b905287169250639e79eaa591506044015f604051808303815f87803b158015610dc4575f80fd5b505af1158015610dd6573d5f803e3d5ffd5b50505050886001600160a01b0316336001600160a01b03167ffb80d861da582b723be2d19507ce3e03851820c464abea89156ec77e089b1ad98e8a87604051610e3d939291906001600160a01b039390931683526020830191909152604082015260600190565b60405180910390a35050505050610e6060015f8051602061470383398151915255565b509695505050505050565b5f610e7461278b565b610e7e8383612a32565b5f610e88846127bb565b90505f610e94846127bb565b90505f610f5a826001600160a01b031663705727b56040518163ffffffff1660e01b8152600401602060405180830381865afa158015610ed6573d5f803e3d5ffd5b505050506040513d601f19601f82011682018060405250810190610efa919061442f565b836001600160a01b031663961be3916040518163ffffffff1660e01b8152600401602060405180830381865afa158015610f36573d5f803e3d5ffd5b505050506040513d601f19601f82011682018060405250810190610b3b919061442f565b9050670de0b6b3a76400008111156110d857816001600160a01b031663313ce5676040518163ffffffff1660e01b8152600401602060405180830381865afa158015610fa8573d5f803e3d5ffd5b505050506040513d601f19601f82011682018060405250810190610fcc9190614487565b610fd790600a61459b565b836001600160a01b031663313ce5676040518163ffffffff1660e01b8152600401602060405180830381865afa158015611013573d5f803e3d5ffd5b505050506040513d601f19601f820116820180604052508101906110379190614487565b61104290600a61459b565b6110bd846001600160a01b03166318160ddd6040518163ffffffff1660e01b8152600401602060405180830381865afa158015611081573d5f803e3d5ffd5b505050506040513d601f19601f820116820180604052508101906110a5919061442f565b6110b7670de0b6b3a7640000866145e7565b90613160565b6110c791906145a9565b6110d191906145d4565b93506110dc565b5f93505b50505092915050565b6047546001600160a01b0316331461110f5760405162461bcd60e51b81526004016104ff9061440c565b61111761317f565b565b5f8061112361278b565b6001600160a01b0385166111495760405162461bcd60e51b81526004016104ff906143ee565b6001600160a01b03841661116f5760405162461bcd60e51b81526004016104ff906143ee565b836001600160a01b0316856001600160a01b0316036111bf5760405162461bcd60e51b815260206004820152600c60248201526b53414d455f4144445245535360a01b60448201526064016104ff565b5f83116112015760405162461bcd60e51b815260206004820152601060248201526f16915493d7d19493d357d05353d5539560821b60448201526064016104ff565b5f61120b866127bb565b90505f611217866127bb565b9050816001600160a01b0316637e1317fa6040518163ffffffff1660e01b8152600401602060405180830381865afa158015611255573d5f803e3d5ffd5b505050506040513d601f19601f820116820180604052508101906112799190614446565b6001600160a01b0316816001600160a01b0316637e1317fa6040518163ffffffff1660e01b8152600401602060405180830381865afa1580156112be573d5f803e3d5ffd5b505050506040513d601f19601f820116820180604052508101906112e29190614446565b6001600160a01b0316146113085760405162461bcd60e51b81526004016104ff90614461565b6113138282876131de565b909890975095505050505050565b611329613485565b670de0b6b3a764000081111561133d575f80fd5b60455460408051918252602082018390527fbc341359e3658046c114365fc4bf0a6bfe11e53d72faf8ac4fe19b53aec6b3f9910160405180910390a1604555565b611386613485565b6001600160a01b0381165f908152604d602052604090205460ff16156114b8576001600160a01b0381165f908152604d60209081526040808320805460ff19169055604b825280832080546001600160a01b0319169055604c909152812054604a549091906113f7906001906145e7565b90505f604a5f01828154811061140f5761140f614622565b5f9182526020808320909101546001600160a01b03908116808452604c90925260408084208790559087168352822091909155604a805491925082918590811061145b5761145b614622565b5f91825260209091200180546001600160a01b0319166001600160a01b0392909216919091179055604a80548061149457611494614636565b5f8281526020902081015f1990810180546001600160a01b03191690550190555050505b50565b6114c3613485565b6001600160a01b0381166114e95760405162461bcd60e51b81526004016104ff906143ee565b6049546040516001600160a01b038084169216907f078c3b417dadf69374a59793b829c52001247130433427049317bde56607b1b7905f90a3604980546001600160a01b0319166001600160a01b0392909216919091179055565b61154c613485565b6111175f6134e0565b5f61155f826127bb565b92915050565b6047546001600160a01b0316331461158f5760405162461bcd60e51b81526004016104ff9061440c565b611117613550565b5f805f6115a261278b565b6001600160a01b0385166115c85760405162461bcd60e51b81526004016104ff906143ee565b5f84116115ff5760405162461bcd60e51b815260206004820152600560248201526404c49513d360dc1b60448201526064016104ff565b5f611609866127bb565b90506116158186612dfb565b929990985091965090945050505050565b5f81428110156116485760405162461bcd60e51b81526004016104ff906143cd565b611650612754565b61165861278b565b5f85116116955760405162461bcd60e51b815260206004820152600b60248201526a16915493d7d05353d5539560aa1b60448201526064016104ff565b6001600160a01b0386166116bb5760405162461bcd60e51b81526004016104ff906143ee565b6001600160a01b0384166116e15760405162461bcd60e51b81526004016104ff906143ee565b855f6116ec826127bb565b90506117036001600160a01b03831633838a612dcd565b61170e818888613598565b604080516001600160a01b038b81168252602082018b905291810183905291955087169033907ff5dd9317b9e63ac316ce44acc85f670b54b339cfa3e9076e1dd55065b922314b9060600160405180910390a3505061177960015f8051602061470383398151915255565b50949350505050565b5f8082428110156117a55760405162461bcd60e51b81526004016104ff906143cd565b6117ad612754565b6117b561278b565b6001600160a01b0389166117db5760405162461bcd60e51b81526004016104ff906143ee565b6001600160a01b0388166118015760405162461bcd60e51b81526004016104ff906143ee565b876001600160a01b0316896001600160a01b0316036118515760405162461bcd60e51b815260206004820152600c60248201526b53414d455f4144445245535360a01b60448201526064016104ff565b5f87116118935760405162461bcd60e51b815260206004820152601060248201526f16915493d7d19493d357d05353d5539560821b60448201526064016104ff565b6001600160a01b0385166118b95760405162461bcd60e51b81526004016104ff906143ee565b885f6118c4826127bb565b90505f6118d08b6127bb565b9050816001600160a01b0316637e1317fa6040518163ffffffff1660e01b8152600401602060405180830381865afa15801561190e573d5f803e3d5ffd5b505050506040513d601f19601f820116820180604052508101906119329190614446565b6001600160a01b0316816001600160a01b0316637e1317fa6040518163ffffffff1660e01b8152600401602060405180830381865afa158015611977573d5f803e3d5ffd5b505050506040513d601f19601f8201168201806040525081019061199b9190614446565b6001600160a01b0316146119c15760405162461bcd60e51b81526004016104ff90614461565b6119cc82828c6131de565b9096509450858911156119f15760405162461bcd60e51b81526004016104ff906145fa565b611a066001600160a01b03841633848d612dcd565b60405162b64f3d60e51b8152600481018b90526001600160a01b038316906316c9e7a0906024015f604051808303815f87803b158015611a44575f80fd5b505af1158015611a56573d5f803e3d5ffd5b50506040516313f3df3160e31b8152600481018990526001600160a01b0384169250639f9ef98891506024015f604051808303815f87803b158015611a99575f80fd5b505af1158015611aab573d5f803e3d5ffd5b50505050806001600160a01b031663a0f0f604611aca876045546138a4565b6040518263ffffffff1660e01b8152600401611ae891815260200190565b5f604051808303815f87803b158015611aff575f80fd5b505af1158015611b11573d5f803e3d5ffd5b5050604051639e79eaa560e01b81526001600160a01b038b81166004830152602482018a905284169250639e79eaa591506044015f604051808303815f87803b158015611b5c575f80fd5b505af1158015611b6e573d5f803e3d5ffd5b50505050876001600160a01b0316336001600160a01b03167f54787c404bb33c88e86f4baf88183a3b0141d0a848e6a9f7a13b66ae3a9b73d18e8e8e8b604051611bdf94939291906001600160a01b0394851681529290931660208301526040820152606081019190915260800190565b60405180910390a3505050611c0060015f8051602061470383398151915255565b50965096945050505050565b611c14613485565b670de0b6b3a7640000811115611c28575f80fd5b60465460408051918252602082018390527f193a6231bcc3d7de036c920f05884fe0d8e1dad662793abd049d33b4d83a45cd910160405180910390a1604655565b5f80611c7361278b565b6001600160a01b038516611c995760405162461bcd60e51b81526004016104ff906143ee565b6001600160a01b038416611cbf5760405162461bcd60e51b81526004016104ff906143ee565b5f8311611cf65760405162461bcd60e51b815260206004820152600560248201526404c49513d360dc1b60448201526064016104ff565b5f611d00866127bb565b90505f611d0c866127bb565b9050816001600160a01b0316637e1317fa6040518163ffffffff1660e01b8152600401602060405180830381865afa158015611d4a573d5f803e3d5ffd5b505050506040513d601f19601f82011682018060405250810190611d6e9190614446565b6001600160a01b0316816001600160a01b0316637e1317fa6040518163ffffffff1660e01b8152600401602060405180830381865afa158015611db3573d5f803e3d5ffd5b505050506040513d601f19601f82011682018060405250810190611dd79190614446565b6001600160a01b031614611dfd5760405162461bcd60e51b81526004016104ff90614461565b5f611e088287612dfb565b9297509550909150819050611e515760405162461bcd60e51b815260206004820152600f60248201526e09c9ea8be8a9c9eaa8e90be8682a69608b1b60448201526064016104ff565b670de0b6b3a7640000611efa836001600160a01b031663705727b56040518163ffffffff1660e01b8152600401602060405180830381865afa158015611e99573d5f803e3d5ffd5b505050506040513d601f19601f82011682018060405250810190611ebd919061442f565b87856001600160a01b031663961be3916040518163ffffffff1660e01b8152600401602060405180830381865afa158015610b0d573d5f803e3d5ffd5b1015611f385760405162461bcd60e51b815260206004820152600d60248201526c434f565f524154494f5f4c4f5760981b60448201526064016104ff565b505050935093915050565b7ff0c57e16840df040f15088dc2f81fe391c3923bec73e23a9662efc9c229c6a008054600160401b810460ff16159067ffffffffffffffff165f81158015611f885750825b90505f8267ffffffffffffffff166001148015611fa45750303b155b905081158015611fb2575080155b15611fd05760405163f92ee8a960e01b815260040160405180910390fd5b845467ffffffffffffffff191660011785558315611ffa57845460ff60401b1916600160401b1785555b612003336138c1565b61200b6138d2565b6120136138da565b604880546001600160a01b0388166001600160a01b0319918216179091556512309ce54000604055600760415567053b1daa2fd98364604255670493b9f4e9de52f760435566016bcc41e90000604455670de0b6b3a764000060455566470de4df820000604655604780549091163317905583156120cb57845460ff60401b19168555604051600181527fc7f505b2f371ae2175ee4913f4499e1f2633a7b5936321eed1cdaeb6115181d29060200160405180910390a15b505050505050565b6120db613485565b6001600160a01b0381166121015760405162461bcd60e51b81526004016104ff906143ee565b6047546040516001600160a01b038084169216907faa37e6ba252409ccb1daf704a52d3f2fb61265b2f480371d6041193f1cf16ac2905f90a3604780546001600160a01b0319166001600160a01b0392909216919091179055565b612164613485565b6001600160a01b03821661218a5760405162461bcd60e51b81526004016104ff906143ee565b6001600160a01b0381166121b05760405162461bcd60e51b81526004016104ff906143ee565b6001600160a01b0382165f908152604d602052604090205460ff16156122075760405162461bcd60e51b815260206004820152600c60248201526b41535345545f45584953545360a01b60448201526064016104ff565b61221182826138fa565b806001600160a01b0316826001600160a01b03167f0bb5715f0f217c2fe9a0c877ea87d474380c641102f3440ee2a4c8b9d979091860405160405180910390a35050565b61225d613485565b670de0b6b3a7640000841115612271575f80fd5b5f831161227c575f80fd5b604080546041546042546043548451938452602084018990528385019290925260608301879052608083015260a0820185905260c082015260e0810183905290517f4f79edc127ae2274ce8320073956fad0b9e727d4ed275b2d3665a75edaffb7a3918190036101000190a1604093909355604191909155604255604355565b6060604a5f0180548060200260200160405190810160405280929190818152602001828054801561235457602002820191905f5260205f20905b81546001600160a01b03168152600190910190602001808311612336575b5050505050905090565b612366613485565b6001600160a01b03811661238f57604051631e4fbdf760e01b81525f60048201526024016104ff565b6114b8816134e0565b6123a0613485565b670de0b6b3a76400008111156123b4575f80fd5b60445460408051918252602082018390527fbb59363309f944f517c724d17a8f3c89d62efc951e2d7768f7a9d7f307bcad7f910160405180910390a1604455565b5f8080805b604a54811015612722575f61240e826139cf565b90505f60485f9054906101000a90046001600160a01b03166001600160a01b0316631bf01e9b6040518163ffffffff1660e01b8152600401602060405180830381865afa158015612461573d5f803e3d5ffd5b505050506040513d601f19601f820116820180604052508101906124859190614446565b90505f612491836139ff565b6001600160a01b031663313ce5676040518163ffffffff1660e01b8152600401602060405180830381865afa1580156124cc573d5f803e3d5ffd5b505050506040513d601f19601f820116820180604052508101906124f09190614487565b6049549091505f906001600160a01b031663248391ff858561251386600a61459b565b61251e9060016145a9565b6040518463ffffffff1660e01b815260040161253c9392919061464a565b602060405180830381865afa158015612557573d5f803e3d5ffd5b505050506040513d601f19601f8201168201806040525081019061257b919061442f565b90505f612587856139ff565b6001600160a01b031663313ce5676040518163ffffffff1660e01b8152600401602060405180830381865afa1580156125c2573d5f803e3d5ffd5b505050506040513d601f19601f820116820180604052508101906125e69190614487565b6125f190601261466e565b6125fc90600a61459b565b90508181612609876139ff565b6001600160a01b031663961be3916040518163ffffffff1660e01b8152600401602060405180830381865afa158015612644573d5f803e3d5ffd5b505050506040513d601f19601f82011682018060405250810190612668919061442f565b61267291906145a9565b61267c91906145a9565b6126869089614687565b97508181612693876139ff565b6001600160a01b031663705727b56040518163ffffffff1660e01b8152600401602060405180830381865afa1580156126ce573d5f803e3d5ffd5b505050506040513d601f19601f820116820180604052508101906126f2919061442f565b6126fc91906145a9565b61270691906145a9565b6127109088614687565b965050505050508060010190506123fa565b5080158061272e575081155b1561274357670de0b6b3a76400009250505090565b61274d8282613126565b9250505090565b5f8051602061470383398151915280546001190161278557604051633ee5aeb560e01b815260040160405180910390fd5b60029055565b5f805160206146e38339815191525460ff16156111175760405163d93c066560e01b815260040160405180910390fd5b6001600160a01b0381165f908152604d602052604081205460ff166128145760405162461bcd60e51b815260206004820152600f60248201526e1054d4d15517d393d517d1561254d5608a1b60448201526064016104ff565b61155f826139ff565b5f806128298686612dfb565b50919350915050818411156128505760405162461bcd60e51b81526004016104ff906145fa565b604051632770a7eb60e21b8152336004820152602481018690526001600160a01b03871690639dc29fac906044015f604051808303815f87803b158015612895575f80fd5b505af11580156128a7573d5f803e3d5ffd5b50506040516313f3df3160e31b8152600481018590526001600160a01b0389169250639f9ef98891506024015f604051808303815f87803b1580156128ea575f80fd5b505af11580156128fc573d5f803e3d5ffd5b505060405163d8b8785360e01b8152600481018490526001600160a01b038916925063d8b8785391506024015f604051808303815f87803b15801561293f575f80fd5b505af1158015612951573d5f803e3d5ffd5b5050604051639e79eaa560e01b81526001600160a01b0386811660048301526024820186905289169250639e79eaa591506044015f604051808303815f87803b15801561299c575f80fd5b505af11580156129ae573d5f803e3d5ffd5b5050505050949350505050565b60015f8051602061470383398151915255565b6040516001600160a01b03838116602483015260448201839052612a2d91859182169063a9059cbb906064015b604051602081830303815290604052915060e01b6020820180516001600160e01b038381831617835250505050613a1c565b505050565b60485460408051632ecee81360e21b815290516001600160a01b03909216915f91839163bb3ba04c916004808201926020929091908290030181865afa158015612a7e573d5f803e3d5ffd5b505050506040513d601f19601f82011682018060405250810190612aa29190614446565b90505f826001600160a01b0316631bf01e9b6040518163ffffffff1660e01b8152600401602060405180830381865afa158015612ae1573d5f803e3d5ffd5b505050506040513d601f19601f82011682018060405250810190612b059190614446565b90505f612b11866139ff565b6001600160a01b031663313ce5676040518163ffffffff1660e01b8152600401602060405180830381865afa158015612b4c573d5f803e3d5ffd5b505050506040513d601f19601f82011682018060405250810190612b709190614487565b90505f612b7c866139ff565b6001600160a01b031663313ce5676040518163ffffffff1660e01b8152600401602060405180830381865afa158015612bb7573d5f803e3d5ffd5b505050506040513d601f19601f82011682018060405250810190612bdb9190614487565b90505f6001600160a01b03851663248391ff8986612bfa87600a61459b565b612c059060016145a9565b6040518463ffffffff1660e01b8152600401612c239392919061464a565b602060405180830381865afa158015612c3e573d5f803e3d5ffd5b505050506040513d601f19601f82011682018060405250810190612c62919061442f565b90505f6001600160a01b03861663248391ff8987612c8187600a61459b565b612c8c9060016145a9565b6040518463ffffffff1660e01b8152600401612caa9392919061464a565b602060405180830381865afa158015612cc5573d5f803e3d5ffd5b505050506040513d601f19601f82011682018060405250810190612ce9919061442f565b905081811115612d5d5760465481670de0b6b3a7640000612d0a85836145e7565b612d1491906145a9565b612d1e91906145d4565b1115612d585760405162461bcd60e51b8152602060048201526009602482015268282924a1a2afa222ab60b91b60448201526064016104ff565b612dc2565b60465482670de0b6b3a7640000612d7484836145e7565b612d7e91906145a9565b612d8891906145d4565b1115612dc25760405162461bcd60e51b8152602060048201526009602482015268282924a1a2afa222ab60b91b60448201526064016104ff565b505050505050505050565b612df584856001600160a01b03166323b872dd8686866040516024016129fb9392919061464a565b50505050565b5f805f80856001600160a01b03166318160ddd6040518163ffffffff1660e01b8152600401602060405180830381865afa158015612e3b573d5f803e3d5ffd5b505050506040513d601f19601f82011682018060405250810190612e5f919061442f565b85876001600160a01b031663705727b56040518163ffffffff1660e01b8152600401602060405180830381865afa158015612e9c573d5f803e3d5ffd5b505050506040513d601f19601f82011682018060405250810190612ec0919061442f565b612eca91906145a9565b612ed491906145d4565b92505f8311612f1d5760405162461bcd60e51b815260206004820152601560248201527424a729aaa32324a1a4a2a72a2fa624a8afa12aa92760591b60448201526064016104ff565b612ff26040546041546042546043548a6001600160a01b031663961be3916040518163ffffffff1660e01b8152600401602060405180830381865afa158015612f68573d5f803e3d5ffd5b505050506040513d601f19601f82011682018060405250810190612f8c919061442f565b8b6001600160a01b031663705727b56040518163ffffffff1660e01b8152600401602060405180830381865afa158015612fc8573d5f803e3d5ffd5b505050506040513d601f19601f82011682018060405250810190612fec919061442f565b89613a7d565b91505f612ffd6123f5565b9050600191505f670de0b6b3a76400008210156130255761301e8583613160565b9050613028565b50835b838111156131115761303a84826145e7565b955085886001600160a01b031663961be3916040518163ffffffff1660e01b8152600401602060405180830381865afa158015613079573d5f803e3d5ffd5b505050506040513d601f19601f8201168201806040525081019061309d919061442f565b101561310c57876001600160a01b031663961be3916040518163ffffffff1660e01b8152600401602060405180830381865afa1580156130df573d5f803e3d5ffd5b505050506040513d601f19601f82011682018060405250810190613103919061442f565b95505f93505f92505b61311b565b8093505f95505f92505b505092959194509250565b5f816131336002826145d4565b613145670de0b6b3a7640000866145a9565b61314f9190614687565b61315991906145d4565b9392505050565b5f670de0b6b3a76400006131756002826145d4565b61314584866145a9565b613187613b89565b5f805160206146e3833981519152805460ff191681557f5db9ee0a495bf2e6ff9c91a7834c1ba4fdd244a5e8aa4e537bd38aeae4b073aa335b6040516001600160a01b03909116815260200160405180910390a150565b5f805f6131ec868686613bb8565b905080856001600160a01b031663961be3916040518163ffffffff1660e01b8152600401602060405180830381865afa15801561322b573d5f803e3d5ffd5b505050506040513d601f19601f8201168201806040525081019061324f919061442f565b10156132915760405162461bcd60e51b81526020600482015260116024820152700929ca6aa8c8c9286928a9ca8be8682a69607b1b60448201526064016104ff565b5f6133696040546041546042546043548b6001600160a01b031663961be3916040518163ffffffff1660e01b8152600401602060405180830381865afa1580156132dd573d5f803e3d5ffd5b505050506040513d601f19601f82011682018060405250810190613301919061442f565b8c6001600160a01b031663705727b56040518163ffffffff1660e01b8152600401602060405180830381865afa15801561333d573d5f803e3d5ffd5b505050506040513d601f19601f82011682018060405250810190613361919061442f565b8b6001613d73565b90505f6134426040546041546042546043548b6001600160a01b031663961be3916040518163ffffffff1660e01b8152600401602060405180830381865afa1580156133b7573d5f803e3d5ffd5b505050506040513d601f19601f820116820180604052508101906133db919061442f565b8c6001600160a01b031663705727b56040518163ffffffff1660e01b8152600401602060405180830381865afa158015613417573d5f803e3d5ffd5b505050506040513d601f19601f8201168201806040525081019061343b919061442f565b895f613d73565b90505f61344f8383613e2c565b90505f61345c8583613160565b905061346a81604454613e4a565b955061347686826145e7565b96505050505050935093915050565b336134b77f9016d09d72d40fdae2fd8ceac6b6234c7706214fd39c1cd1e609a0528c199300546001600160a01b031690565b6001600160a01b0316146111175760405163118cdaa760e01b81523360048201526024016104ff565b7f9016d09d72d40fdae2fd8ceac6b6234c7706214fd39c1cd1e609a0528c19930080546001600160a01b031981166001600160a01b03848116918217845560405192169182907f8be0079c531659141344cd1fd0a4f28419497f9722a3daafe3b4186f6b6457e0905f90a3505050565b61355861278b565b5f805160206146e3833981519152805460ff191660011781557f62e78cea01bee320cd4e420270b5ea74000d11b0c9f74754ebdbfc544b05a258336131c0565b5f80846001600160a01b03166318160ddd6040518163ffffffff1660e01b8152600401602060405180830381865afa1580156135d6573d5f803e3d5ffd5b505050506040513d601f19601f820116820180604052508101906135fa919061442f565b90505f856001600160a01b031663705727b56040518163ffffffff1660e01b8152600401602060405180830381865afa158015613639573d5f803e3d5ffd5b505050506040513d601f19601f8201168201806040525081019061365d919061442f565b90505f6136d66040546041546042546043548b6001600160a01b031663961be3916040518163ffffffff1660e01b8152600401602060405180830381865afa1580156136ab573d5f803e3d5ffd5b505050506040513d601f19601f820116820180604052508101906136cf919061442f565b878c613e55565b9050815f036136f0576136e981876145e7565b9350613713565b81836136fc83896145e7565b61370691906145a9565b61371091906145d4565b93505b5f61371c6123f5565b9050670de0b6b3a764000081101561373b576137388582613126565b94505b5f85116137825760405162461bcd60e51b8152602060048201526015602482015274125394d551919250d251539517d3125457d3525395605a1b60448201526064016104ff565b60405162b64f3d60e51b8152600481018890526001600160a01b038916906316c9e7a0906024015f604051808303815f87803b1580156137c0575f80fd5b505af11580156137d2573d5f803e3d5ffd5b50505050876001600160a01b031663a0f0f60483896137f191906145e7565b6040518263ffffffff1660e01b815260040161380f91815260200190565b5f604051808303815f87803b158015613826575f80fd5b505af1158015613838573d5f803e3d5ffd5b50506040516340c10f1960e01b81526001600160a01b038981166004830152602482018990528b1692506340c10f1991506044015f604051808303815f87803b158015613883575f80fd5b505af1158015613895573d5f803e3d5ffd5b50505050505050509392505050565b5f6131596138ba83670de0b6b3a76400006145e7565b8490613160565b6138c9613ef5565b6114b881613f3e565b6129bb613ef5565b6138e2613ef5565b5f805160206146e3833981519152805460ff19169055565b6001600160a01b0382165f908152604d602052604090205460ff1615613947576001600160a01b039182165f908152604b6020526040902080546001600160a01b03191691909216179055565b6001600160a01b038083165f818152604d60209081526040808320805460ff19166001908117909155604b835281842080549688166001600160a01b0319978816179055604a8054604c909452918420839055820181559091527ffcc5ba1a98fc477b8948a04d08c6f4a76181fe75021370ab5e6abd22b1792a2a0180549092161790555050565b5f604a5f0182815481106139e5576139e5614622565b5f918252602090912001546001600160a01b031692915050565b6001600160a01b039081165f908152604b60205260409020541690565b5f613a306001600160a01b03841683613f46565b905080515f14158015613a54575080806020019051810190613a52919061469a565b155b15612a2d57604051635274afe760e01b81526001600160a01b03841660048201526024016104ff565b5f80613a898585613126565b9050670de0b6b3a76400008110613aa3575f915050613b7e565b828411613ab3575f915050613b7e565b5f83861115613acd57613ac684876145e7565b9050613ad0565b505f5b5f613ae5613ade86886145e7565b8390613126565b90505f613af58c8c8c8c88613f53565b90505f613b058d8d8d8d87613f53565b90505f613b1d8e8e8e8e670de0b6b3a7640000613f53565b90505f613b2a828a613160565b613b38846110b78c8e6145e7565b613b429190614687565b90505f613b4f8b86613160565b905080821115613b7257613b6381836145e7565b98505050505050505050613b7e565b5f985050505050505050505b979650505050505050565b5f805160206146e38339815191525460ff1661111757604051638dfc202b60e01b815260040160405180910390fd5b5f613c81846001600160a01b0316632495a5996040518163ffffffff1660e01b8152600401602060405180830381865afa158015613bf8573d5f803e3d5ffd5b505050506040513d601f19601f82011682018060405250810190613c1c9190614446565b846001600160a01b0316632495a5996040518163ffffffff1660e01b8152600401602060405180830381865afa158015613c58573d5f803e3d5ffd5b505050506040513d601f19601f82011682018060405250810190613c7c9190614446565b612a32565b836001600160a01b031663313ce5676040518163ffffffff1660e01b8152600401602060405180830381865afa158015613cbd573d5f803e3d5ffd5b505050506040513d601f19601f82011682018060405250810190613ce19190614487565b613cec90600a61459b565b836001600160a01b031663313ce5676040518163ffffffff1660e01b8152600401602060405180830381865afa158015613d28573d5f803e3d5ffd5b505050506040513d601f19601f82011682018060405250810190613d4c9190614487565b613d5790600a61459b565b613d6190846145a9565b613d6b91906145d4565b949350505050565b5f80613d7f8686613126565b90505f8315613d9d57613d9686610b3b878a614687565b9050613dae565b613dab86610b3b878a6145e7565b90505b808203613dbf575f92505050613e20565b5f613dcd8c8c8c8c87613f53565b90505f613ddd8d8d8d8d87613f53565b905082841115613e0957613dfe613df484866145e7565b610b3b84846145e7565b945050505050613e20565b613dfe613e1685856145e7565b610b3b83856145e7565b98975050505050505050565b5f81613e4084670de0b6b3a7640000614687565b61315991906145e7565b5f6131598383613160565b5f825f03613e6457505f613b7e565b5f613e6f8585613126565b9050670de0b6b3a76400008111613e89575f915050613b7e565b5f613ea1613e978587614687565b610b3b8689614687565b90505f613eb18b8b8b8b87613f53565b90505f613ec18c8c8c8c87613f53565b9050613ecd8783613160565b613edb826110b7898b614687565b613ee591906145e7565b9c9b505050505050505050505050565b7ff0c57e16840df040f15088dc2f81fe391c3923bec73e23a9662efc9c229c6a0054600160401b900460ff1661111757604051631afcd79f60e31b815260040160405180910390fd5b612366613ef5565b606061315983835f613fc9565b5f82821015613f6d57613f6682856145e7565b9050613fc0565b613f666b033b2e3c9fd0803ce8000000670de0b6b3a7640000613fa58882613f9585896145a9565b613f9f91906145d4565b90614062565b613faf91906145a9565b613fb991906145d4565b8790613126565b95945050505050565b606081471015613fee5760405163cd78605960e01b81523060048201526024016104ff565b5f80856001600160a01b0316848660405161400991906146b9565b5f6040518083038185875af1925050503d805f8114614043576040519150601f19603f3d011682016040523d82523d5f602084013e614048565b606091505b50915091506140588683836140d9565b9695505050505050565b5f61406e6002836146cf565b5f03614086576b033b2e3c9fd0803ce8000000614088565b825b90506140956002836145d4565b91505b811561155f576140a88384614135565b92506140b56002836146cf565b156140c7576140c48184614135565b90505b6140d26002836145d4565b9150614098565b6060826140ee576140e98261414e565b613159565b815115801561410557506001600160a01b0384163b155b1561412e57604051639996b31560e01b81526001600160a01b03851660048201526024016104ff565b5080613159565b5f6b033b2e3c9fd0803ce80000006131756002826145d4565b80511561415e5780518082602001fd5b604051630a12f52160e11b815260040160405180910390fd5b6001600160a01b03811681146114b8575f80fd5b5f805f805f60a0868803121561419f575f80fd5b85356141aa81614177565b9450602086013593506040860135925060608601356141c881614177565b949793965091946080013592915050565b5f602082840312156141e9575f80fd5b813561315981614177565b5f805f805f8060c08789031215614209575f80fd5b863561421481614177565b9550602087013561422481614177565b94506040870135935060608701359250608087013561424281614177565b8092505060a087013590509295509295509295565b5f8060408385031215614268575f80fd5b823561427381614177565b9150602083013561428381614177565b809150509250929050565b5f805f606084860312156142a0575f80fd5b83356142ab81614177565b925060208401356142bb81614177565b929592945050506040919091013590565b5f602082840312156142dc575f80fd5b5035919050565b5f80604083850312156142f4575f80fd5b82356142ff81614177565b946020939093013593505050565b5f805f8060808587031215614320575f80fd5b843561432b81614177565b935060208501359250604085013561434281614177565b9396929550929360600135925050565b5f805f8060808587031215614365575f80fd5b5050823594602084013594506040840135936060013592509050565b602080825282518282018190525f9190848201906040850190845b818110156143c15783516001600160a01b03168352928401929184019160010161439c565b50909695505050505050565b6020808252600790820152661156141254915160ca1b604082015260600190565b6020808252600490820152635a45524f60e01b604082015260600190565b6020808252600990820152682327a92124a22222a760b91b604082015260600190565b5f6020828403121561443f575f80fd5b5051919050565b5f60208284031215614456575f80fd5b815161315981614177565b6020808252600c908201526b444946465f4147475f41434360a01b604082015260600190565b5f60208284031215614497575f80fd5b815160ff81168114613159575f80fd5b634e487b7160e01b5f52601160045260245ffd5b600181815b808511156144f557815f19048211156144db576144db6144a7565b808516156144e857918102915b93841c93908002906144c0565b509250929050565b5f8261450b5750600161155f565b8161451757505f61155f565b816001811461452d576002811461453757614553565b600191505061155f565b60ff841115614548576145486144a7565b50506001821b61155f565b5060208310610133831016604e8410600b8410161715614576575081810a61155f565b61458083836144bb565b805f1904821115614593576145936144a7565b029392505050565b5f61315960ff8416836144fd565b808202811582820484141761155f5761155f6144a7565b634e487b7160e01b5f52601260045260245ffd5b5f826145e2576145e26145c0565b500490565b8181038181111561155f5761155f6144a7565b6020808252600e908201526d414d4f554e545f544f4f5f4c4f5760901b604082015260600190565b634e487b7160e01b5f52603260045260245ffd5b634e487b7160e01b5f52603160045260245ffd5b6001600160a01b039384168152919092166020820152604081019190915260600190565b60ff828116828216039081111561155f5761155f6144a7565b8082018082111561155f5761155f6144a7565b5f602082840312156146aa575f80fd5b81518015158114613159575f80fd5b5f82518060208501845e5f920191825250919050565b5f826146dd576146dd6145c0565b50069056fecd5ed15c6e187e77e9aee88184c21f4f2182ab5827cb3b7e07fbedcd63f033009b779b17422d0df92223018b32b4d1fa46e071723d6817e2486d003becc55f00a264697066735822122036093e2c1ee191683f7fcbaae102317a14cfd6d18cc6d0eee0cc97d3bb6b865d64736f6c63430008190033",
    "sourcePath": "c:/Users/Utente/Source/repos/baluni-contracts/contracts/pools/BaluniV1PoolAlpha.sol",
    "compiler": {
        "name": "solc",
        "version": "0.8.25+commit.b61c2a91"
    },
    "functionHashes": {
        "addAsset(address,address)": "da489997",
        "assetOf(address)": "71f96211",
        "deposit(address,uint256,address,uint256)": "90d25074",
        "getC1()": "a76f54d2",
        "getDev()": "09bb9267",
        "getEquilibriumCoverageRatio()": "05f7bc26",
        "getHaircutRate()": "7fdd5a8e",
        "getMaxPriceDeviation()": "ddcbc516",
        "getPriceOracle()": "fca513a8",
        "getRetentionRatio()": "cb733d7a",
        "getSlippageParamK()": "55af008a",
        "getSlippageParamN()": "7727c655",
        "getTokenAddresses()": "ee8c24b8",
        "getXThreshold()": "7a1c36d1",
        "initialize(address)": "c4d66de8",
        "owner()": "8da5cb5b",
        "pause()": "8456cb59",
        "paused()": "5c975abb",
        "quoteMaxInitialAssetWithdrawable(address,address)": "2a803b5e",
        "quotePotentialSwap(address,address,uint256)": "43c2e2f5",
        "quotePotentialWithdraw(address,uint256)": "907448ed",
        "quotePotentialWithdrawFromOtherAsset(address,address,uint256)": "a4275ceb",
        "recoverUserFunds(address)": "0d4636b5",
        "removeAsset(address)": "4a5e42b1",
        "renounceOwnership()": "715018a6",
        "setDev(address)": "d477f05f",
        "setHaircutRate(uint256)": "f57e84d5",
        "setMaxPriceDeviation(uint256)": "9ee4c057",
        "setPriceOracle(address)": "530e784f",
        "setRetentionRatio(uint256)": "44db964a",
        "setSlippageParams(uint256,uint256,uint256,uint256)": "df220181",
        "swap(address,address,uint256,uint256,address,uint256)": "9908fc8b",
        "transferOwnership(address)": "f2fde38b",
        "unpause()": "3f4ba83a",
        "withdraw(address,uint256,uint256,address,uint256)": "09a5fca3",
        "withdrawFromOtherAsset(address,address,uint256,uint256,address,uint256)": "0f91f06f"
    },
    "gasEstimates": {
        "creation": {
            "codeDepositCost": "3652800",
            "executionCost": "4111",
            "totalCost": "3656911"
        },
        "external": {
            "addAsset(address,address)": "infinite",
            "assetOf(address)": "infinite",
            "deposit(address,uint256,address,uint256)": "infinite",
            "getC1()": "2391",
            "getDev()": "2410",
            "getEquilibriumCoverageRatio()": "infinite",
            "getHaircutRate()": "2413",
            "getMaxPriceDeviation()": "2391",
            "getPriceOracle()": "2462",
            "getRetentionRatio()": "2325",
            "getSlippageParamK()": "2370",
            "getSlippageParamN()": "2369",
            "getTokenAddresses()": "infinite",
            "getXThreshold()": "2391",
            "initialize(address)": "infinite",
            "owner()": "2398",
            "pause()": "infinite",
            "paused()": "infinite",
            "quoteMaxInitialAssetWithdrawable(address,address)": "infinite",
            "quotePotentialSwap(address,address,uint256)": "infinite",
            "quotePotentialWithdraw(address,uint256)": "infinite",
            "quotePotentialWithdrawFromOtherAsset(address,address,uint256)": "infinite",
            "recoverUserFunds(address)": "infinite",
            "removeAsset(address)": "infinite",
            "renounceOwnership()": "infinite",
            "setDev(address)": "30515",
            "setHaircutRate(uint256)": "28092",
            "setMaxPriceDeviation(uint256)": "28049",
            "setPriceOracle(address)": "30516",
            "setRetentionRatio(uint256)": "28116",
            "setSlippageParams(uint256,uint256,uint256,uint256)": "102399",
            "swap(address,address,uint256,uint256,address,uint256)": "infinite",
            "transferOwnership(address)": "infinite",
            "unpause()": "infinite",
            "withdraw(address,uint256,uint256,address,uint256)": "infinite",
            "withdrawFromOtherAsset(address,address,uint256,uint256,address,uint256)": "infinite"
        },
        "internal": {
            "_addAsset(address,contract BaluniV1Asset)": "121478",
            "_assetOf(address)": "infinite",
            "_checkPriceDeviation(address,address)": "infinite",
            "_containsAsset(address)": "infinite",
            "_deposit(contract BaluniV1Asset,uint256,address)": "infinite",
            "_getAsset(address)": "2213",
            "_getEquilibriumCoverageRatio()": "infinite",
            "_getKeyAtIndex(uint256)": "4335",
            "_quoteFrom(contract BaluniV1Asset,contract BaluniV1Asset,uint256)": "infinite",
            "_quoteIdealToAmount(contract BaluniV1Asset,contract BaluniV1Asset,uint256)": "infinite",
            "_sizeOfAssetList()": "infinite",
            "_withdraw(contract BaluniV1Asset,uint256,uint256,address)": "infinite",
            "_withdrawFrom(contract BaluniV1Asset,uint256)": "infinite"
        }
    }
}