{
  "_format": "hh-sol-artifact-1",
  "contractName": "BaluniV1PoolRegistry",
  "sourceName": "contracts/registry/BaluniV1PoolRegistry.sol",
  "abi": [
    {
      "inputs": [
        {
          "internalType": "address",
          "name": "target",
          "type": "address"
        }
      ],
      "name": "AddressEmptyCode",
      "type": "error"
    },
    {
      "inputs": [
        {
          "internalType": "address",
          "name": "implementation",
          "type": "address"
        }
      ],
      "name": "ERC1967InvalidImplementation",
      "type": "error"
    },
    {
      "inputs": [],
      "name": "ERC1967NonPayable",
      "type": "error"
    },
    {
      "inputs": [],
      "name": "FailedInnerCall",
      "type": "error"
    },
    {
      "inputs": [],
      "name": "InvalidInitialization",
      "type": "error"
    },
    {
      "inputs": [],
      "name": "NotInitializing",
      "type": "error"
    },
    {
      "inputs": [
        {
          "internalType": "address",
          "name": "owner",
          "type": "address"
        }
      ],
      "name": "OwnableInvalidOwner",
      "type": "error"
    },
    {
      "inputs": [
        {
          "internalType": "address",
          "name": "account",
          "type": "address"
        }
      ],
      "name": "OwnableUnauthorizedAccount",
      "type": "error"
    },
    {
      "inputs": [],
      "name": "UUPSUnauthorizedCallContext",
      "type": "error"
    },
    {
      "inputs": [
        {
          "internalType": "bytes32",
          "name": "slot",
          "type": "bytes32"
        }
      ],
      "name": "UUPSUnsupportedProxiableUUID",
      "type": "error"
    },
    {
      "anonymous": false,
      "inputs": [
        {
          "indexed": false,
          "internalType": "uint64",
          "name": "version",
          "type": "uint64"
        }
      ],
      "name": "Initialized",
      "type": "event"
    },
    {
      "anonymous": false,
      "inputs": [
        {
          "indexed": true,
          "internalType": "address",
          "name": "previousOwner",
          "type": "address"
        },
        {
          "indexed": true,
          "internalType": "address",
          "name": "newOwner",
          "type": "address"
        }
      ],
      "name": "OwnershipTransferred",
      "type": "event"
    },
    {
      "anonymous": false,
      "inputs": [
        {
          "indexed": true,
          "internalType": "address",
          "name": "pool",
          "type": "address"
        },
        {
          "indexed": false,
          "internalType": "address[]",
          "name": "assets",
          "type": "address[]"
        }
      ],
      "name": "PoolCreated",
      "type": "event"
    },
    {
      "anonymous": false,
      "inputs": [
        {
          "indexed": true,
          "internalType": "address",
          "name": "implementation",
          "type": "address"
        }
      ],
      "name": "Upgraded",
      "type": "event"
    },
    {
      "inputs": [],
      "name": "UPGRADE_INTERFACE_VERSION",
      "outputs": [
        {
          "internalType": "string",
          "name": "",
          "type": "string"
        }
      ],
      "stateMutability": "view",
      "type": "function"
    },
    {
      "inputs": [
        {
          "internalType": "address",
          "name": "poolAddress",
          "type": "address"
        }
      ],
      "name": "addPool",
      "outputs": [],
      "stateMutability": "nonpayable",
      "type": "function"
    },
    {
      "inputs": [
        {
          "internalType": "uint256",
          "name": "",
          "type": "uint256"
        }
      ],
      "name": "allPools",
      "outputs": [
        {
          "internalType": "address",
          "name": "",
          "type": "address"
        }
      ],
      "stateMutability": "view",
      "type": "function"
    },
    {
      "inputs": [],
      "name": "getAllPools",
      "outputs": [
        {
          "internalType": "address[]",
          "name": "",
          "type": "address[]"
        }
      ],
      "stateMutability": "view",
      "type": "function"
    },
    {
      "inputs": [
        {
          "internalType": "address",
          "name": "",
          "type": "address"
        },
        {
          "internalType": "address",
          "name": "",
          "type": "address"
        }
      ],
      "name": "getPool",
      "outputs": [
        {
          "internalType": "address",
          "name": "",
          "type": "address"
        }
      ],
      "stateMutability": "view",
      "type": "function"
    },
    {
      "inputs": [
        {
          "internalType": "address",
          "name": "poolAddress",
          "type": "address"
        }
      ],
      "name": "getPoolAssets",
      "outputs": [
        {
          "internalType": "address[]",
          "name": "",
          "type": "address[]"
        }
      ],
      "stateMutability": "view",
      "type": "function"
    },
    {
      "inputs": [
        {
          "internalType": "address",
          "name": "asset1",
          "type": "address"
        },
        {
          "internalType": "address",
          "name": "asset2",
          "type": "address"
        }
      ],
      "name": "getPoolByAssets",
      "outputs": [
        {
          "internalType": "address",
          "name": "",
          "type": "address"
        }
      ],
      "stateMutability": "view",
      "type": "function"
    },
    {
      "inputs": [
        {
          "internalType": "address",
          "name": "token",
          "type": "address"
        }
      ],
      "name": "getPoolsByAsset",
      "outputs": [
        {
          "internalType": "address[]",
          "name": "",
          "type": "address[]"
        }
      ],
      "stateMutability": "view",
      "type": "function"
    },
    {
      "inputs": [],
      "name": "getPoolsCount",
      "outputs": [
        {
          "internalType": "uint256",
          "name": "",
          "type": "uint256"
        }
      ],
      "stateMutability": "view",
      "type": "function"
    },
    {
      "inputs": [
        {
          "internalType": "address",
          "name": "_register",
          "type": "address"
        }
      ],
      "name": "initialize",
      "outputs": [],
      "stateMutability": "nonpayable",
      "type": "function"
    },
    {
      "inputs": [],
      "name": "owner",
      "outputs": [
        {
          "internalType": "address",
          "name": "",
          "type": "address"
        }
      ],
      "stateMutability": "view",
      "type": "function"
    },
    {
      "inputs": [
        {
          "internalType": "address",
          "name": "_pool",
          "type": "address"
        }
      ],
      "name": "poolExist",
      "outputs": [
        {
          "internalType": "bool",
          "name": "",
          "type": "bool"
        }
      ],
      "stateMutability": "view",
      "type": "function"
    },
    {
      "inputs": [],
      "name": "proxiableUUID",
      "outputs": [
        {
          "internalType": "bytes32",
          "name": "",
          "type": "bytes32"
        }
      ],
      "stateMutability": "view",
      "type": "function"
    },
    {
      "inputs": [],
      "name": "registry",
      "outputs": [
        {
          "internalType": "contract IBaluniV1Registry",
          "name": "",
          "type": "address"
        }
      ],
      "stateMutability": "view",
      "type": "function"
    },
    {
      "inputs": [
        {
          "internalType": "address",
          "name": "_register",
          "type": "address"
        },
        {
          "internalType": "uint64",
          "name": "_version",
          "type": "uint64"
        }
      ],
      "name": "reinitialize",
      "outputs": [],
      "stateMutability": "nonpayable",
      "type": "function"
    },
    {
      "inputs": [
        {
          "internalType": "address",
          "name": "_pool",
          "type": "address"
        }
      ],
      "name": "removePool",
      "outputs": [],
      "stateMutability": "nonpayable",
      "type": "function"
    },
    {
      "inputs": [],
      "name": "renounceOwnership",
      "outputs": [],
      "stateMutability": "nonpayable",
      "type": "function"
    },
    {
      "inputs": [
        {
          "internalType": "address",
          "name": "newOwner",
          "type": "address"
        }
      ],
      "name": "transferOwnership",
      "outputs": [],
      "stateMutability": "nonpayable",
      "type": "function"
    },
    {
      "inputs": [
        {
          "internalType": "address",
          "name": "newImplementation",
          "type": "address"
        },
        {
          "internalType": "bytes",
          "name": "data",
          "type": "bytes"
        }
      ],
      "name": "upgradeToAndCall",
      "outputs": [],
      "stateMutability": "payable",
      "type": "function"
    }
  ],
  "bytecode": "0x60a0604052306080523480156012575f80fd5b50608051611b756100395f395f81816112470152818161127001526114200152611b755ff3fe60806040526004361061013d575f3560e01c806389345efb116100bb578063b4ac686011610071578063d88ff1f411610057578063d88ff1f4146103c0578063d914cd4b146103d4578063f2fde38b146103f3575f80fd5b8063b4ac68601461038e578063c4d66de8146103a1575f80fd5b80638f2248bc116100a15780638f2248bc146102fb578063ad3cb1cc1461031a578063b4340e6a1461036f575f80fd5b806389345efb146102905780638da5cb5b146102bf575f80fd5b80634f1ef28611610110578063531aa03e116100f6578063531aa03e1461021e578063715018a61461025d5780637b10399914610271575f80fd5b80634f1ef286146101e957806352d1902d146101fc575f80fd5b80632d5e94a7146101415780633b7d09461461017d57806341d1de971461019e5780634276b97b146101bd575b5f80fd5b34801561014c575f80fd5b5061016061015b3660046117e2565b610412565b6040516001600160a01b0390911681526020015b60405180910390f35b348015610188575f80fd5b5061019c610197366004611819565b610440565b005b3480156101a9575f80fd5b506101606101b8366004611834565b610802565b3480156101c8575f80fd5b506101dc6101d7366004611819565b610829565b604051610174919061184b565b61019c6101f73660046118dc565b610898565b348015610207575f80fd5b506102106108b3565b604051908152602001610174565b348015610229575f80fd5b506101606102383660046117e2565b600260209081525f92835260408084209091529082529020546001600160a01b031681565b348015610268575f80fd5b5061019c6108e1565b34801561027c575f80fd5b50600154610160906001600160a01b031681565b34801561029b575f80fd5b506102af6102aa366004611819565b6108f4565b6040519015158152602001610174565b3480156102ca575f80fd5b507f9016d09d72d40fdae2fd8ceac6b6234c7706214fd39c1cd1e609a0528c199300546001600160a01b0316610160565b348015610306575f80fd5b5061019c61031536600461197e565b61094e565b348015610325575f80fd5b506103626040518060400160405280600581526020017f352e302e3000000000000000000000000000000000000000000000000000000081525081565b60405161017491906119b6565b34801561037a575f80fd5b506101dc610389366004611819565b610a84565b348015610399575f80fd5b505f54610210565b3480156103ac575f80fd5b5061019c6103bb366004611819565b610cb2565b3480156103cb575f80fd5b506101dc610e34565b3480156103df575f80fd5b5061019c6103ee366004611819565b610e93565b3480156103fe575f80fd5b5061019c61040d366004611819565b611172565b6001600160a01b038083165f9081526002602090815260408083208585168452909152902054165b92915050565b6104486111c8565b5f5b5f548110156107fe57816001600160a01b03165f828154811061046f5761046f6119eb565b5f918252602090912001546001600160a01b0316036107f6575f805461049790600190611a13565b815481106104a7576104a76119eb565b5f91825260208220015481546001600160a01b039091169190839081106104d0576104d06119eb565b905f5260205f20015f6101000a8154816001600160a01b0302191690836001600160a01b031602179055505f60025f846001600160a01b03166367e4ac2c6040518163ffffffff1660e01b81526004015f60405180830381865afa15801561053a573d5f803e3d5ffd5b505050506040513d5f823e601f3d908101601f191682016040526105619190810190611a26565b5f81518110610572576105726119eb565b60200260200101516001600160a01b03166001600160a01b031681526020019081526020015f205f846001600160a01b03166367e4ac2c6040518163ffffffff1660e01b81526004015f60405180830381865afa1580156105d5573d5f803e3d5ffd5b505050506040513d5f823e601f3d908101601f191682016040526105fc9190810190611a26565b60018151811061060e5761060e6119eb565b60200260200101516001600160a01b03166001600160a01b031681526020019081526020015f205f6101000a8154816001600160a01b0302191690836001600160a01b031602179055505f60025f846001600160a01b03166367e4ac2c6040518163ffffffff1660e01b81526004015f60405180830381865afa158015610697573d5f803e3d5ffd5b505050506040513d5f823e601f3d908101601f191682016040526106be9190810190611a26565b6001815181106106d0576106d06119eb565b60200260200101516001600160a01b03166001600160a01b031681526020019081526020015f205f846001600160a01b03166367e4ac2c6040518163ffffffff1660e01b81526004015f60405180830381865afa158015610733573d5f803e3d5ffd5b505050506040513d5f823e601f3d908101601f1916820160405261075a9190810190611a26565b5f8151811061076b5761076b6119eb565b60200260200101516001600160a01b03166001600160a01b031681526020019081526020015f205f6101000a8154816001600160a01b0302191690836001600160a01b031602179055505f8054806107c5576107c5611ad3565b5f8281526020902081015f19908101805473ffffffffffffffffffffffffffffffffffffffff191690550190555050565b60010161044a565b5050565b5f8181548110610810575f80fd5b5f918252602090912001546001600160a01b0316905081565b60605f829050806001600160a01b03166367e4ac2c6040518163ffffffff1660e01b81526004015f60405180830381865afa15801561086a573d5f803e3d5ffd5b505050506040513d5f823e601f3d908101601f191682016040526108919190810190611a26565b9392505050565b6108a061123c565b6108a98261130c565b6107fe8282611314565b5f6108bc611415565b507f360894a13ba1a3210667c828492db98dca3e2076cc3735a920a3ca505d382bbc90565b6108e96111c8565b6108f25f611477565b565b5f805b5f5481101561094657826001600160a01b03165f828154811061091c5761091c6119eb565b5f918252602090912001546001600160a01b03160361093e5750600192915050565b6001016108f7565b505f92915050565b7ff0c57e16840df040f15088dc2f81fe391c3923bec73e23a9662efc9c229c6a00805482919068010000000000000000900460ff168061099c5750805467ffffffffffffffff808416911610155b156109d3576040517ff92ee8a900000000000000000000000000000000000000000000000000000000815260040160405180910390fd5b80546801000000000000000067ffffffffffffffff84167fffffffffffffffffffffffffffffffffffffffffffffff00000000000000000090921682171782556001805473ffffffffffffffffffffffffffffffffffffffff19166001600160a01b038716179055815468ff0000000000000000191682556040519081527fc7f505b2f371ae2175ee4913f4499e1f2633a7b5936321eed1cdaeb6115181d29060200160405180910390a150505050565b5f80546060919067ffffffffffffffff811115610aa357610aa3611897565b604051908082528060200260200182016040528015610acc578160200160208202803683370190505b5090505f805b5f54811015610c0c575f808281548110610aee57610aee6119eb565b905f5260205f20015f9054906101000a90046001600160a01b031690505f816001600160a01b03166367e4ac2c6040518163ffffffff1660e01b81526004015f60405180830381865afa158015610b47573d5f803e3d5ffd5b505050506040513d5f823e601f3d908101601f19168201604052610b6e9190810190611a26565b90505f5b8151811015610bf257876001600160a01b0316828281518110610b9757610b976119eb565b60200260200101516001600160a01b031603610bea5782868681518110610bc057610bc06119eb565b6001600160a01b039092166020928302919091019091015284610be281611ae7565b955050610bf2565b600101610b72565b5084518403610c02575050610c0c565b5050600101610ad2565b505f8167ffffffffffffffff811115610c2757610c27611897565b604051908082528060200260200182016040528015610c50578160200160208202803683370190505b5090505f5b82811015610ca957838181518110610c6f57610c6f6119eb565b6020026020010151828281518110610c8957610c896119eb565b6001600160a01b0390921660209283029190910190910152600101610c55565b50949350505050565b7ff0c57e16840df040f15088dc2f81fe391c3923bec73e23a9662efc9c229c6a00805468010000000000000000810460ff16159067ffffffffffffffff165f81158015610cfc5750825b90505f8267ffffffffffffffff166001148015610d185750303b155b905081158015610d26575080155b15610d5d576040517ff92ee8a900000000000000000000000000000000000000000000000000000000815260040160405180910390fd5b84547fffffffffffffffffffffffffffffffffffffffffffffffff00000000000000001660011785558315610da857845468ff00000000000000001916680100000000000000001785555b610db06114f4565b610db9336114fc565b6001805473ffffffffffffffffffffffffffffffffffffffff19166001600160a01b0388161790558315610e2c57845468ff000000000000000019168555604051600181527fc7f505b2f371ae2175ee4913f4499e1f2633a7b5936321eed1cdaeb6115181d29060200160405180910390a15b505050505050565b60605f805480602002602001604051908101604052809291908181526020018280548015610e8957602002820191905f5260205f20905b81546001600160a01b03168152600190910190602001808311610e6b575b5050505050905090565b610e9b6111c8565b6001600160a01b038116610f36576040517f08c379a000000000000000000000000000000000000000000000000000000000815260206004820152602960248201527f42616c756e695631506f6f6c466163746f72793a20494e56414c49445f504f4f60448201527f4c5f41444452455353000000000000000000000000000000000000000000000060648201526084015b60405180910390fd5b5f80546001810182558180527f290decd9548b62a8d60345a988386fc84ba6bc95484008f6362f93160ef3e56301805473ffffffffffffffffffffffffffffffffffffffff19166001600160a01b038416908117909155604080517f67e4ac2c00000000000000000000000000000000000000000000000000000000815290516367e4ac2c9160048082019286929091908290030181865afa158015610fde573d5f803e3d5ffd5b505050506040513d5f823e601f3d908101601f191682016040526110059190810190611a26565b90505f5b815181101561116d575f61101e826001611aff565b90505b8251811015611164578360025f858581518110611040576110406119eb565b60200260200101516001600160a01b03166001600160a01b031681526020019081526020015f205f85848151811061107a5761107a6119eb565b60200260200101516001600160a01b03166001600160a01b031681526020019081526020015f205f6101000a8154816001600160a01b0302191690836001600160a01b031602179055508360025f8584815181106110da576110da6119eb565b60200260200101516001600160a01b03166001600160a01b031681526020019081526020015f205f858581518110611114576111146119eb565b6020908102919091018101516001600160a01b039081168352908201929092526040015f20805473ffffffffffffffffffffffffffffffffffffffff191692909116919091179055600101611021565b50600101611009565b505050565b61117a6111c8565b6001600160a01b0381166111bc576040517f1e4fbdf70000000000000000000000000000000000000000000000000000000081525f6004820152602401610f2d565b6111c581611477565b50565b336111fa7f9016d09d72d40fdae2fd8ceac6b6234c7706214fd39c1cd1e609a0528c199300546001600160a01b031690565b6001600160a01b0316146108f2576040517f118cdaa7000000000000000000000000000000000000000000000000000000008152336004820152602401610f2d565b306001600160a01b037f00000000000000000000000000000000000000000000000000000000000000001614806112d557507f00000000000000000000000000000000000000000000000000000000000000006001600160a01b03166112c97f360894a13ba1a3210667c828492db98dca3e2076cc3735a920a3ca505d382bbc546001600160a01b031690565b6001600160a01b031614155b156108f2576040517fe07c8dba00000000000000000000000000000000000000000000000000000000815260040160405180910390fd5b6111c56111c8565b816001600160a01b03166352d1902d6040518163ffffffff1660e01b8152600401602060405180830381865afa92505050801561136e575060408051601f3d908101601f1916820190925261136b91810190611b12565b60015b6113af576040517f4c9c8ce30000000000000000000000000000000000000000000000000000000081526001600160a01b0383166004820152602401610f2d565b7f360894a13ba1a3210667c828492db98dca3e2076cc3735a920a3ca505d382bbc811461140b576040517faa1d49a400000000000000000000000000000000000000000000000000000000815260048101829052602401610f2d565b61116d838361150d565b306001600160a01b037f000000000000000000000000000000000000000000000000000000000000000016146108f2576040517fe07c8dba00000000000000000000000000000000000000000000000000000000815260040160405180910390fd5b7f9016d09d72d40fdae2fd8ceac6b6234c7706214fd39c1cd1e609a0528c199300805473ffffffffffffffffffffffffffffffffffffffff1981166001600160a01b03848116918217845560405192169182907f8be0079c531659141344cd1fd0a4f28419497f9722a3daafe3b4186f6b6457e0905f90a3505050565b6108f2611562565b611504611562565b6111c5816115c9565b611516826115d1565b6040516001600160a01b038316907fbc7cd75a20ee27fd9adebab32041f755214dbc6bffa90cc0225b39da2e5c2d3b905f90a280511561155a5761116d828261166d565b6107fe6116df565b7ff0c57e16840df040f15088dc2f81fe391c3923bec73e23a9662efc9c229c6a005468010000000000000000900460ff166108f2576040517fd7e6bcf800000000000000000000000000000000000000000000000000000000815260040160405180910390fd5b61117a611562565b806001600160a01b03163b5f0361161f576040517f4c9c8ce30000000000000000000000000000000000000000000000000000000081526001600160a01b0382166004820152602401610f2d565b7f360894a13ba1a3210667c828492db98dca3e2076cc3735a920a3ca505d382bbc805473ffffffffffffffffffffffffffffffffffffffff19166001600160a01b0392909216919091179055565b60605f80846001600160a01b0316846040516116899190611b29565b5f60405180830381855af49150503d805f81146116c1576040519150601f19603f3d011682016040523d82523d5f602084013e6116c6565b606091505b50915091506116d6858383611717565b95945050505050565b34156108f2576040517fb398979f00000000000000000000000000000000000000000000000000000000815260040160405180910390fd5b60608261172c576117278261178c565b610891565b815115801561174357506001600160a01b0384163b155b15611785576040517f9996b3150000000000000000000000000000000000000000000000000000000081526001600160a01b0385166004820152602401610f2d565b5092915050565b80511561179c5780518082602001fd5b6040517f1425ea4200000000000000000000000000000000000000000000000000000000815260040160405180910390fd5b6001600160a01b03811681146111c5575f80fd5b5f80604083850312156117f3575f80fd5b82356117fe816117ce565b9150602083013561180e816117ce565b809150509250929050565b5f60208284031215611829575f80fd5b8135610891816117ce565b5f60208284031215611844575f80fd5b5035919050565b602080825282518282018190525f9190848201906040850190845b8181101561188b5783516001600160a01b031683529284019291840191600101611866565b50909695505050505050565b634e487b7160e01b5f52604160045260245ffd5b604051601f8201601f1916810167ffffffffffffffff811182821017156118d4576118d4611897565b604052919050565b5f80604083850312156118ed575f80fd5b82356118f8816117ce565b915060208381013567ffffffffffffffff80821115611915575f80fd5b818601915086601f830112611928575f80fd5b81358181111561193a5761193a611897565b61194c84601f19601f840116016118ab565b91508082528784828501011115611961575f80fd5b80848401858401375f848284010152508093505050509250929050565b5f806040838503121561198f575f80fd5b823561199a816117ce565b9150602083013567ffffffffffffffff8116811461180e575f80fd5b602081525f82518060208401528060208501604085015e5f604082850101526040601f19601f83011684010191505092915050565b634e487b7160e01b5f52603260045260245ffd5b634e487b7160e01b5f52601160045260245ffd5b8181038181111561043a5761043a6119ff565b5f6020808385031215611a37575f80fd5b825167ffffffffffffffff80821115611a4e575f80fd5b818501915085601f830112611a61575f80fd5b815181811115611a7357611a73611897565b8060051b9150611a848483016118ab565b8181529183018401918481019088841115611a9d575f80fd5b938501935b83851015611ac75784519250611ab7836117ce565b8282529385019390850190611aa2565b98975050505050505050565b634e487b7160e01b5f52603160045260245ffd5b5f5f198203611af857611af86119ff565b5060010190565b8082018082111561043a5761043a6119ff565b5f60208284031215611b22575f80fd5b5051919050565b5f82518060208501845e5f92019182525091905056fea26469706673582212209d095f42c0c5818ebd2161b9ea4e958da956bb01fa1c5c335f05da4510f8674264736f6c63430008190033",
  "linkReferences": {},
  "deployedLinkReferences": {}
}