{
  "_format": "hh-sol-artifact-1",
  "contractName": "BaluniV1PoolRegistry",
  "sourceName": "contracts/registry/BaluniV1PoolRegistry.sol",
  "abi": [
    {
      "inputs": [
        {
          "internalType": "address",
          "name": "target",
          "type": "address"
        }
      ],
      "name": "AddressEmptyCode",
      "type": "error"
    },
    {
      "inputs": [
        {
          "internalType": "address",
          "name": "implementation",
          "type": "address"
        }
      ],
      "name": "ERC1967InvalidImplementation",
      "type": "error"
    },
    {
      "inputs": [],
      "name": "ERC1967NonPayable",
      "type": "error"
    },
    {
      "inputs": [],
      "name": "FailedInnerCall",
      "type": "error"
    },
    {
      "inputs": [],
      "name": "InvalidInitialization",
      "type": "error"
    },
    {
      "inputs": [],
      "name": "NotInitializing",
      "type": "error"
    },
    {
      "inputs": [
        {
          "internalType": "address",
          "name": "owner",
          "type": "address"
        }
      ],
      "name": "OwnableInvalidOwner",
      "type": "error"
    },
    {
      "inputs": [
        {
          "internalType": "address",
          "name": "account",
          "type": "address"
        }
      ],
      "name": "OwnableUnauthorizedAccount",
      "type": "error"
    },
    {
      "inputs": [],
      "name": "UUPSUnauthorizedCallContext",
      "type": "error"
    },
    {
      "inputs": [
        {
          "internalType": "bytes32",
          "name": "slot",
          "type": "bytes32"
        }
      ],
      "name": "UUPSUnsupportedProxiableUUID",
      "type": "error"
    },
    {
      "anonymous": false,
      "inputs": [
        {
          "indexed": false,
          "internalType": "uint64",
          "name": "version",
          "type": "uint64"
        }
      ],
      "name": "Initialized",
      "type": "event"
    },
    {
      "anonymous": false,
      "inputs": [
        {
          "indexed": true,
          "internalType": "address",
          "name": "previousOwner",
          "type": "address"
        },
        {
          "indexed": true,
          "internalType": "address",
          "name": "newOwner",
          "type": "address"
        }
      ],
      "name": "OwnershipTransferred",
      "type": "event"
    },
    {
      "anonymous": false,
      "inputs": [
        {
          "indexed": true,
          "internalType": "address",
          "name": "pool",
          "type": "address"
        },
        {
          "indexed": false,
          "internalType": "address[]",
          "name": "assets",
          "type": "address[]"
        }
      ],
      "name": "PoolCreated",
      "type": "event"
    },
    {
      "anonymous": false,
      "inputs": [
        {
          "indexed": true,
          "internalType": "address",
          "name": "implementation",
          "type": "address"
        }
      ],
      "name": "Upgraded",
      "type": "event"
    },
    {
      "inputs": [],
      "name": "UPGRADE_INTERFACE_VERSION",
      "outputs": [
        {
          "internalType": "string",
          "name": "",
          "type": "string"
        }
      ],
      "stateMutability": "view",
      "type": "function"
    },
    {
      "inputs": [
        {
          "internalType": "address",
          "name": "poolAddress",
          "type": "address"
        }
      ],
      "name": "addPool",
      "outputs": [],
      "stateMutability": "nonpayable",
      "type": "function"
    },
    {
      "inputs": [
        {
          "internalType": "uint256",
          "name": "",
          "type": "uint256"
        }
      ],
      "name": "allPools",
      "outputs": [
        {
          "internalType": "address",
          "name": "",
          "type": "address"
        }
      ],
      "stateMutability": "view",
      "type": "function"
    },
    {
      "inputs": [],
      "name": "getAllPools",
      "outputs": [
        {
          "internalType": "address[]",
          "name": "",
          "type": "address[]"
        }
      ],
      "stateMutability": "view",
      "type": "function"
    },
    {
      "inputs": [
        {
          "internalType": "address",
          "name": "",
          "type": "address"
        },
        {
          "internalType": "address",
          "name": "",
          "type": "address"
        }
      ],
      "name": "getPool",
      "outputs": [
        {
          "internalType": "address",
          "name": "",
          "type": "address"
        }
      ],
      "stateMutability": "view",
      "type": "function"
    },
    {
      "inputs": [
        {
          "internalType": "address",
          "name": "poolAddress",
          "type": "address"
        }
      ],
      "name": "getPoolAssets",
      "outputs": [
        {
          "internalType": "address[]",
          "name": "",
          "type": "address[]"
        }
      ],
      "stateMutability": "view",
      "type": "function"
    },
    {
      "inputs": [
        {
          "internalType": "address",
          "name": "asset1",
          "type": "address"
        },
        {
          "internalType": "address",
          "name": "asset2",
          "type": "address"
        }
      ],
      "name": "getPoolByAssets",
      "outputs": [
        {
          "internalType": "address",
          "name": "",
          "type": "address"
        }
      ],
      "stateMutability": "view",
      "type": "function"
    },
    {
      "inputs": [
        {
          "internalType": "address",
          "name": "token",
          "type": "address"
        }
      ],
      "name": "getPoolsByAsset",
      "outputs": [
        {
          "internalType": "address[]",
          "name": "",
          "type": "address[]"
        }
      ],
      "stateMutability": "view",
      "type": "function"
    },
    {
      "inputs": [],
      "name": "getPoolsCount",
      "outputs": [
        {
          "internalType": "uint256",
          "name": "",
          "type": "uint256"
        }
      ],
      "stateMutability": "view",
      "type": "function"
    },
    {
      "inputs": [
        {
          "internalType": "address",
          "name": "_register",
          "type": "address"
        }
      ],
      "name": "initialize",
      "outputs": [],
      "stateMutability": "nonpayable",
      "type": "function"
    },
    {
      "inputs": [],
      "name": "owner",
      "outputs": [
        {
          "internalType": "address",
          "name": "",
          "type": "address"
        }
      ],
      "stateMutability": "view",
      "type": "function"
    },
    {
      "inputs": [
        {
          "internalType": "address",
          "name": "_pool",
          "type": "address"
        }
      ],
      "name": "poolExist",
      "outputs": [
        {
          "internalType": "bool",
          "name": "",
          "type": "bool"
        }
      ],
      "stateMutability": "view",
      "type": "function"
    },
    {
      "inputs": [],
      "name": "proxiableUUID",
      "outputs": [
        {
          "internalType": "bytes32",
          "name": "",
          "type": "bytes32"
        }
      ],
      "stateMutability": "view",
      "type": "function"
    },
    {
      "inputs": [],
      "name": "registry",
      "outputs": [
        {
          "internalType": "contract IBaluniV1Registry",
          "name": "",
          "type": "address"
        }
      ],
      "stateMutability": "view",
      "type": "function"
    },
    {
      "inputs": [
        {
          "internalType": "address",
          "name": "_register",
          "type": "address"
        },
        {
          "internalType": "uint64",
          "name": "_version",
          "type": "uint64"
        }
      ],
      "name": "reinitialize",
      "outputs": [],
      "stateMutability": "nonpayable",
      "type": "function"
    },
    {
      "inputs": [
        {
          "internalType": "address",
          "name": "_pool",
          "type": "address"
        }
      ],
      "name": "removePool",
      "outputs": [],
      "stateMutability": "nonpayable",
      "type": "function"
    },
    {
      "inputs": [],
      "name": "renounceOwnership",
      "outputs": [],
      "stateMutability": "nonpayable",
      "type": "function"
    },
    {
      "inputs": [
        {
          "internalType": "address",
          "name": "newOwner",
          "type": "address"
        }
      ],
      "name": "transferOwnership",
      "outputs": [],
      "stateMutability": "nonpayable",
      "type": "function"
    },
    {
      "inputs": [
        {
          "internalType": "address",
          "name": "newImplementation",
          "type": "address"
        },
        {
          "internalType": "bytes",
          "name": "data",
          "type": "bytes"
        }
      ],
      "name": "upgradeToAndCall",
      "outputs": [],
      "stateMutability": "payable",
      "type": "function"
    }
  ],
  "bytecode": "0x60a060405234603957600e6047565b6014603d565b6129496100a48239608051818181612128015281816121ad01526123a8015261294990f35b6043565b60405190565b5f80fd5b604d604f565b565b60556057565b565b605d6097565b565b60018060a01b031690565b90565b607c6078608092605f565b606a565b605f565b90565b608a90606d565b90565b6094906083565b90565b609e30608d565b60805256fe60806040526004361015610013575b610bcb565b61001d5f3561014c565b80632d5e94a7146101475780633b7d09461461014257806341d1de971461013d5780634276b97b146101385780634f1ef2861461013357806352d1902d1461012e578063531aa03e14610129578063715018a6146101245780637b1039991461011f57806389345efb1461011a5780638da5cb5b146101155780638f2248bc14610110578063ad3cb1cc1461010b578063b4340e6a14610106578063b4ac686014610101578063c4d66de8146100fc578063d88ff1f4146100f7578063d914cd4b146100f25763f2fde38b0361000e57610b98565b610b65565b610b30565b610afd565b610ac8565b610a71565b610a3c565b61090c565b61087a565b610845565b6107e9565b61073a565b610704565b61064b565b6105ed565b61046f565b61039b565b610254565b6101fb565b60e01c90565b60405190565b5f80fd5b5f80fd5b5f80fd5b73ffffffffffffffffffffffffffffffffffffffff1690565b61018690610164565b90565b6101928161017d565b0361019957565b5f80fd5b905035906101aa82610189565b565b91906040838203126101d457806101c86101d1925f860161019d565b9360200161019d565b90565b61015c565b6101e29061017d565b9052565b91906101f9905f602085019401906101d9565b565b3461022c576102286102176102113660046101ac565b90610bf9565b61021f610152565b918291826101e6565b0390f35b610158565b9060208282031261024a57610247915f0161019d565b90565b61015c565b5f0190565b346102825761026c610267366004610231565b6112eb565b610274610152565b8061027e8161024f565b0390f35b610158565b90565b61029381610287565b0361029a57565b5f80fd5b905035906102ab8261028a565b565b906020828203126102c6576102c3915f0161029e565b90565b61015c565b7f4e487b71000000000000000000000000000000000000000000000000000000005f52603260045260245ffd5b5490565b5f5260205f2090565b61030e816102f8565b821015610328576103206001916102fc565b910201905f90565b6102cb565b1c90565b73ffffffffffffffffffffffffffffffffffffffff1690565b61035a90600861035f930261032d565b610331565b90565b9061036d915461034a565b90565b5f61037a816102f8565b821015610397576103949161038e91610305565b90610362565b90565b5f80fd5b346103cb576103c76103b66103b13660046102ad565b610370565b6103be610152565b918291826101e6565b0390f35b610158565b5190565b60209181520190565b60200190565b6103ec9061017d565b9052565b906103fd816020936103e3565b0190565b60200190565b9061042461041e610417846103d0565b80936103d4565b926103dd565b905f5b8181106104345750505090565b90919261044d61044760019286516103f0565b94610401565b9101919091610427565b61046c9160208201915f818403910152610407565b90565b3461049f5761049b61048a610485366004610231565b6112fb565b610492610152565b91829182610457565b0390f35b610158565b5f80fd5b5f80fd5b601f801991011690565b7f4e487b71000000000000000000000000000000000000000000000000000000005f52604160045260245ffd5b906104ed906104ac565b810190811067ffffffffffffffff82111761050757604052565b6104b6565b9061051f610518610152565b92836104e3565b565b67ffffffffffffffff811161053f5761053b6020916104ac565b0190565b6104b6565b90825f939282370152565b9092919261056461055f82610521565b61050c565b938185526020850190828401116105805761057e92610544565b565b6104a8565b9080601f830112156105a3578160206105a09335910161054f565b90565b6104a4565b9190916040818403126105e8576105c1835f830161019d565b92602082013567ffffffffffffffff81116105e3576105e09201610585565b90565b610160565b61015c565b6106016105fb3660046105a8565b906113a5565b610609610152565b806106138161024f565b0390f35b5f91031261062157565b61015c565b90565b61063290610626565b9052565b9190610649905f60208501940190610629565b565b3461067b5761065b366004610617565b610677610666611420565b61066e610152565b91829182610636565b0390f35b610158565b90565b61069761069261069c92610164565b610680565b610164565b90565b6106a890610683565b90565b6106b49061069f565b90565b906106c1906106ab565b5f5260205260405f2090565b906106d7906106ab565b5f5260205260405f2090565b6106fc610701926106f76002935f946106b7565b6106cd565b610362565b90565b346107355761073161072061071a3660046101ac565b906106e3565b610728610152565b918291826101e6565b0390f35b610158565b346107685761074a366004610617565b610752611458565b61075a610152565b806107648161024f565b0390f35b610158565b73ffffffffffffffffffffffffffffffffffffffff1690565b61079690600861079b930261032d565b61076d565b90565b906107a99154610786565b90565b6107b860015f9061079e565b90565b6107c49061069f565b90565b6107d0906107bb565b9052565b91906107e7905f602085019401906107c7565b565b34610819576107f9366004610617565b6108156108046107ac565b61080c610152565b918291826107d4565b0390f35b610158565b151590565b61082c9061081e565b9052565b9190610843905f60208501940190610823565b565b346108755761087161086061085b366004610231565b611466565b610868610152565b91829182610830565b0390f35b610158565b346108aa5761088a366004610617565b6108a66108956114e0565b61089d610152565b918291826101e6565b0390f35b610158565b67ffffffffffffffff1690565b6108c5816108af565b036108cc57565b5f80fd5b905035906108dd826108bc565b565b919060408382031261090757806108fb610904925f860161019d565b936020016108d0565b90565b61015c565b3461093b5761092561091f3660046108df565b90611775565b61092d610152565b806109378161024f565b0390f35b610158565b67ffffffffffffffff811161095e5761095a6020916104ac565b0190565b6104b6565b9061097561097083610940565b61050c565b918252565b5f7f352e302e30000000000000000000000000000000000000000000000000000000910152565b6109ab6005610963565b906109b86020830161097a565b565b6109c26109a1565b90565b6109cd6109ba565b90565b6109d86109c5565b90565b5190565b60209181520190565b90825f9392825e0152565b610a12610a1b602093610a2093610a09816109db565b938480936109df565b958691016109e8565b6104ac565b0190565b610a399160208201915f8184039101526109f3565b90565b34610a6c57610a4c366004610617565b610a68610a576109d0565b610a5f610152565b91829182610a24565b0390f35b610158565b34610aa157610a9d610a8c610a87366004610231565b61180d565b610a94610152565b91829182610457565b0390f35b610158565b610aaf90610287565b9052565b9190610ac6905f60208501940190610aa6565b565b34610af857610ad8366004610617565b610af4610ae3611a2d565b610aeb610152565b91829182610ab3565b0390f35b610158565b34610b2b57610b15610b10366004610231565b611c4b565b610b1d610152565b80610b278161024f565b0390f35b610158565b34610b6057610b40366004610617565b610b5c610b4b611d04565b610b53610152565b91829182610457565b0390f35b610158565b34610b9357610b7d610b78366004610231565b612002565b610b85610152565b80610b8f8161024f565b0390f35b610158565b34610bc657610bb0610bab366004610231565b612092565b610bb8610152565b80610bc28161024f565b0390f35b610158565b5f80fd5b5f90565b5f1c90565b610be4610be991610bd3565b610331565b90565b610bf69054610bd8565b90565b610c1e91610c14610c1992610c0c610bcf565b5060026106b7565b6106cd565b610bec565b90565b610c3290610c2d61209d565b610f98565b565b90565b610c4b610c46610c5092610c34565b610680565b610287565b90565b6001610c5f9101610287565b90565b90565b610c79610c74610c7e92610c62565b610680565b610287565b90565b7f4e487b71000000000000000000000000000000000000000000000000000000005f52601160045260245ffd5b610cbd610cc391939293610287565b92610287565b8203918211610cce57565b610c81565b1b90565b91906008610d05910291610cff73ffffffffffffffffffffffffffffffffffffffff84610cd3565b92610cd3565b9181191691161790565b90565b9190610d28610d23610d30936106ab565b610d0f565b908354610cd7565b9055565b610d48610d43610d4d92610c34565b610680565b610164565b90565b610d5990610d34565b90565b610d6590610683565b90565b610d7190610d5c565b90565b610d7d9061069f565b90565b60e01b90565b67ffffffffffffffff8111610d9e5760208091020190565b6104b6565b5f80fd5b90505190610db482610189565b565b90929192610dcb610dc682610d86565b61050c565b9381855260208086019202830192818411610e0857915b838310610def5750505050565b60208091610dfd8486610da7565b815201920191610de2565b610da3565b9080601f83011215610e2b57816020610e2893519101610db6565b90565b6104a4565b90602082820312610e60575f82015167ffffffffffffffff8111610e5b57610e589201610e0d565b90565b610160565b61015c565b610e6d610152565b3d5f823e3d90fd5b90610e7f826103d0565b811015610e90576020809102010190565b6102cb565b610e9f905161017d565b90565b5f1b90565b90610ec673ffffffffffffffffffffffffffffffffffffffff91610ea2565b9181191691161790565b90610ee5610ee0610eec926106ab565b610d0f565b8254610ea7565b9055565b90565b7f4e487b71000000000000000000000000000000000000000000000000000000005f52603160045260245ffd5b5490565b5f5260205f2090565b610f3681610f20565b821015610f5057610f48600191610f24565b910201905f90565b6102cb565b610f6791610f61610bcf565b91610d12565b565b610f7281610f20565b8015610f93576001900390610f90610f8a8383610f2d565b90610f55565b55565b610ef3565b610fa15f610c37565b5b80610fbd610fb7610fb25f6102f8565b610287565b91610287565b10156112e457610fd7610fd15f8390610305565b90610362565b610fe9610fe38461017d565b9161017d565b14610ffc57610ff790610c53565b610fa2565b61103f9061103961103261102c5f6110266110165f6102f8565b6110206001610c65565b90610cae565b90610305565b90610362565b915f610305565b90610d12565b6110485f610d50565b61107560025f61105f61105a86610d68565b610d74565b6367e4ac2c9061106d610152565b948592610d80565b825281806110856004820161024f565b03915afa80156112df576110b16110b6916110bc945f916112bd575b506110ab5f610c37565b90610e75565b610e95565b906106b7565b906110e85f6110d26110cd86610d68565b610d74565b6367e4ac2c906110e0610152565b938492610d80565b825281806110f86004820161024f565b03915afa9283156112b85761112e61112961113995611134945f91611296575b506111236001610c65565b90610e75565b610e95565b906106cd565b610ed0565b6111425f610d50565b600261116f5f61115961115486610d68565b610d74565b6367e4ac2c90611167610152565b938492610d80565b8252818061117f6004820161024f565b03915afa918215611291576111c96111c36111ce926111bd6111b86111e4975f97889161126f575b506111b26001610c65565b90610e75565b610e95565b906106b7565b95610d68565b610d74565b6367e4ac2c906111dc610152565b938492610d80565b825281806111f46004820161024f565b03915afa92831561126a576112296112246112349561122f945f91611248575b5061121e5f610c37565b90610e75565b610e95565b906106cd565b610ed0565b6112456112405f610ef0565b610f69565b5b565b61126491503d805f833e61125c81836104e3565b810190610e30565b5f611214565b610e65565b61128b91503d808a833e61128381836104e3565b810190610e30565b5f6111a7565b610e65565b6112b291503d805f833e6112aa81836104e3565b810190610e30565b5f611118565b610e65565b6112d991503d805f833e6112d181836104e3565b810190610e30565b5f6110a1565b610e65565b5050611246565b6112f490610c21565b565b606090565b5f61131961131461132f9361130e6112f6565b50610d68565b610d74565b6367e4ac2c90611327610152565b938492610d80565b8252818061133f6004820161024f565b03915afa908115611377575f91611355575b5090565b61137191503d805f833e61136981836104e3565b810190610e30565b5f611351565b610e65565b9061138e91611389612117565b611390565b565b906113a39161139e816121e9565b612259565b565b906113af9161137c565b565b5f90565b6113c6906113c1612397565b611414565b90565b90565b6113e06113db6113e5926113c9565b610ea2565b610626565b90565b6114117f360894a13ba1a3210667c828492db98dca3e2076cc3735a920a3ca505d382bbc6113cc565b90565b5061141d6113e8565b90565b61143061142b6113b1565b6113b5565b90565b61143b61209d565b611443611445565b565b6114566114515f610d50565b612415565b565b611460611433565b565b5f90565b61146e611462565b506114785f610c37565b5b8061149461148e6114895f6102f8565b610287565b91610287565b10156114da576114ae6114a85f8390610305565b90610362565b6114c06114ba8461017d565b9161017d565b146114d3576114ce90610c53565b611479565b5050600190565b50505f90565b6114e8610bcf565b506114fb5f6114f5612481565b01610bec565b90565b60401c90565b60ff1690565b61151661151b916114fe565b611504565b90565b611528905461150a565b90565b67ffffffffffffffff1690565b61154461154991610bd3565b61152b565b90565b6115569054611538565b90565b9061156c67ffffffffffffffff91610ea2565b9181191691161790565b61158a61158561158f926108af565b610680565b6108af565b90565b90565b906115aa6115a56115b192611576565b611592565b8254611559565b9055565b60401b90565b906115cf68ff0000000000000000916115b5565b9181191691161790565b6115e29061081e565b90565b90565b906115fd6115f8611604926115d9565b6115e5565b82546115bb565b9055565b611611906108af565b9052565b9190611628905f60208501940190611608565b565b9080916116356124a5565b906116415f830161151e565b80156116f2575b6116b65761167b9261167291611660865f8601611595565b61166d60015f86016115e8565b61175e565b5f8091016115e8565b6116b17fc7f505b2f371ae2175ee4913f4499e1f2633a7b5936321eed1cdaeb6115181d2916116a8610152565b91829182611615565b0390a1565b6116be610152565b7ff92ee8a9000000000000000000000000000000000000000000000000000000008152806116ee6004820161024f565b0390fd5b506116fe5f830161154c565b61171061170a866108af565b916108af565b1015611648565b61172090610683565b90565b61172c90611717565b90565b61173890611717565b90565b90565b9061175361174e61175a9261172f565b61173b565b8254610ea7565b9055565b611773915061176c90611723565b600161173e565b565b9061177f9161162a565b565b9061179361178e83610d86565b61050c565b918252565b369037565b906117c26117aa83611781565b926020806117b88693610d86565b9201910390611798565b565b906117ce9061017d565b9052565b6117db90610287565b7fffffffffffffffffffffffffffffffffffffffffffffffffffffffffffffffff81146118085760010190565b610c81565b6118156112f6565b506118276118225f6102f8565b61179d565b916118315f610c37565b9061183b5f610c37565b915b8261185861185261184d5f6102f8565b610287565b91610287565b1015611a1f5761187a61187561186f5f8690610305565b90610362565b610d68565b61189d5f61188783610d74565b6367e4ac2c90611895610152565b938492610d80565b825281806118ad6004820161024f565b03915afa908115611a1a575f916119f8575b50946118ca5f610c37565b5b806118e66118e06118db8a6103d0565b610287565b91610287565b10156119ee576118ff6118fa888390610e75565b610e95565b61191161190b8461017d565b9161017d565b146119245761191f90610c53565b6118cb565b5094509061194961193761194e93610d74565b6119448891849092610e75565b6117c4565b6117d2565b915b8261196b611965611960886103d0565b610287565b91610287565b1461197f5761197990610c53565b9161183d565b509150915b61198d8361179d565b916119975f610c37565b5b806119ab6119a587610287565b91610287565b10156119e7576119e2906119dd6119cb6119c6868490610e75565b610e95565b6119d88791849092610e75565b6117c4565b610c53565b611998565b5092505090565b5094505091611950565b611a1491503d805f833e611a0c81836104e3565b810190610e30565b5f6118bf565b610e65565b9391509150611984565b5f90565b611a35611a29565b50611a3f5f6102f8565b90565b611a56611a51611a5b92610c34565b610680565b6108af565b90565b611a72611a6d611a7792610c62565b610680565b6108af565b90565b611a839061069f565b90565b611a8f90611a5e565b9052565b9190611aa6905f60208501940190611a86565b565b611ab06124a5565b90611ac5611abf5f840161151e565b1561081e565b90611ad15f840161154c565b80611ae4611ade5f611a42565b916108af565b1480611c1e575b90611aff611af96001611a5e565b916108af565b1480611bf6575b611b1190911561081e565b9081611be5575b50611ba957611b4190611b36611b2e6001611a5e565b5f8601611595565b82611b97575b611c25565b611b49575b50565b611b56905f8091016115e8565b6001611b8e7fc7f505b2f371ae2175ee4913f4499e1f2633a7b5936321eed1cdaeb6115181d291611b85610152565b91829182611a93565b0390a15f611b46565b611ba460015f86016115e8565b611b3c565b611bb1610152565b7ff92ee8a900000000000000000000000000000000000000000000000000000000815280611be16004820161024f565b0390fd5b611bf091501561081e565b5f611b18565b50611b11611c0330611a7a565b3b611c16611c105f610c37565b91610287565b149050611b06565b5082611aeb565b611c42611c4991611c346124d3565b611c3d336124fb565b611723565b600161173e565b565b611c5490611aa8565b565b60209181520190565b611c699054610bd8565b90565b60010190565b90611c8f611c89611c82846102f8565b8093611c56565b926102fc565b905f5b818110611c9f5750505090565b909192611cbf611cb9600192611cb487611c5f565b6103f0565b94611c6c565b9101919091611c92565b90611cd391611c72565b90565b90611cf6611cef92611ce6610152565b93848092611cc9565b03836104e3565b565b611d0190611cd6565b90565b611d0c6112f6565b50611d165f611cf8565b90565b611d2a90611d2561209d565b611e48565b565b60207f4c5f414444524553530000000000000000000000000000000000000000000000917f42616c756e695631506f6f6c466163746f72793a20494e56414c49445f504f4f5f8201520152565b611d8660296040926109df565b611d8f81611d2c565b0190565b611da89060208101905f818303910152611d79565b90565b15611db257565b611dba610152565b7f08c379a000000000000000000000000000000000000000000000000000000000815280611dea60048201611d93565b0390fd5b9081549168010000000000000000831015611e1e5782611e16916001611e1c95018155610f2d565b90610d12565b565b6104b6565b611e32611e3891939293610287565b92610287565b8201809211611e4357565b610c81565b611e6d81611e66611e60611e5b5f610d50565b61017d565b9161017d565b1415611dab565b611e80611e795f610ef0565b8290611dee565b611eab5f611e95611e9084610d68565b610d74565b6367e4ac2c90611ea3610152565b938492610d80565b82528180611ebb6004820161024f565b03915afa908115611ffd575f91611fdb575b50611ed75f610c37565b925b83611ef4611eee611ee9856103d0565b610287565b91610287565b1015611fd557611f0e84611f086001610c65565b90611e23565b5b80611f2a611f24611f1f866103d0565b610287565b91610287565b1015611fc457611fbf90611f7785611f72611f596002611f53611f4e8a8d90610e75565b610e95565b906106b7565b611f6c611f67898790610e75565b610e95565b906106cd565b610ed0565b611fba85611fb5611f9c6002611f96611f918a8890610e75565b610e95565b906106b7565b611faf611faa898c90610e75565b610e95565b906106cd565b610ed0565b610c53565b611f0f565b5092611fcf90610c53565b92611ed9565b92505050565b611ff791503d805f833e611fef81836104e3565b810190610e30565b5f611ecd565b610e65565b61200b90611d19565b565b61201e9061201961209d565b612020565b565b8061203b6120356120305f610d50565b61017d565b9161017d565b1461204b5761204990612415565b565b61208e6120575f610d50565b61205f610152565b9182917f1e4fbdf7000000000000000000000000000000000000000000000000000000008352600483016101e6565b0390fd5b61209b9061200d565b565b6120a56114e0565b6120be6120b86120b3612506565b61017d565b9161017d565b036120c557565b6121076120d0612506565b6120d8610152565b9182917f118cdaa7000000000000000000000000000000000000000000000000000000008352600483016101e6565b0390fd5b6121149061069f565b90565b6121203061210b565b61215261214c7f000000000000000000000000000000000000000000000000000000000000000061017d565b9161017d565b14801561219c575b61216057565b612168610152565b7fe07c8dba000000000000000000000000000000000000000000000000000000008152806121986004820161024f565b0390fd5b506121a5612513565b6121d76121d17f000000000000000000000000000000000000000000000000000000000000000061017d565b9161017d565b141561215a565b506121e761209d565b565b6121f2906121de565b565b6121fd90610683565b90565b612209906121f4565b90565b6122159061069f565b90565b61222181610626565b0361222857565b5f80fd5b9050519061223982612218565b565b9060208282031261225457612251915f0161222c565b90565b61015c565b9190612287602061227161226c86612200565b61220c565b6352d1902d9061227f610152565b938492610d80565b825281806122976004820161024f565b03915afa80915f92612367575b50155f146122f85750509060016122b957505b565b6122f4906122c5610152565b9182917f4c9c8ce3000000000000000000000000000000000000000000000000000000008352600483016101e6565b0390fd5b928361231361230d6123086113e8565b610626565b91610626565b036123285761232392935061253d565b6122b7565b61236384612334610152565b9182917faa1d49a400000000000000000000000000000000000000000000000000000000835260048301610636565b0390fd5b61238991925060203d8111612390575b61238181836104e3565b81019061223b565b905f6122a4565b503d612377565b6123a03061210b565b6123d26123cc7f000000000000000000000000000000000000000000000000000000000000000061017d565b9161017d565b036123d957565b6123e1610152565b7fe07c8dba000000000000000000000000000000000000000000000000000000008152806124116004820161024f565b0390fd5b61241d612481565b61243561242b5f8301610bec565b915f849101610ed0565b906124696124637f8be0079c531659141344cd1fd0a4f28419497f9722a3daafe3b4186f6b6457e0936106ab565b916106ab565b91612472610152565b8061247c8161024f565b0390a3565b7f9016d09d72d40fdae2fd8ceac6b6234c7706214fd39c1cd1e609a0528c19930090565b7ff0c57e16840df040f15088dc2f81fe391c3923bec73e23a9662efc9c229c6a0090565b6124d16125c6565b565b6124db6124c9565b565b6124ee906124e96125c6565b6124f0565b565b6124f99061269e565b565b612504906124dd565b565b61250e610bcf565b503390565b61251b610bcf565b506125365f61253061252b6113e8565b6126a9565b01610bec565b90565b5190565b90612547826126ac565b816125727fbc7cd75a20ee27fd9adebab32041f755214dbc6bffa90cc0225b39da2e5c2d3b916106ab565b9061257b610152565b806125858161024f565b0390a261259181612539565b6125a361259d5f610c37565b91610287565b115f146125b7576125b3916127bc565b505b565b50506125c1612721565b6125b5565b6125d76125d16127eb565b1561081e565b6125dd57565b6125e5610152565b7fd7e6bcf8000000000000000000000000000000000000000000000000000000008152806126156004820161024f565b0390fd5b61262a906126256125c6565b61262c565b565b8061264761264161263c5f610d50565b61017d565b9161017d565b146126575761265590612415565b565b61269a6126635f610d50565b61266b610152565b9182917f1e4fbdf7000000000000000000000000000000000000000000000000000000008352600483016101e6565b0390fd5b6126a790612619565b565b90565b803b6126c06126ba5f610c37565b91610287565b146126e2576126e0905f6126da6126d56113e8565b6126a9565b01610ed0565b565b61271d906126ee610152565b9182917f4c9c8ce3000000000000000000000000000000000000000000000000000000008352600483016101e6565b0390fd5b3461273461272e5f610c37565b91610287565b1161273b57565b612743610152565b7fb398979f000000000000000000000000000000000000000000000000000000008152806127736004820161024f565b0390fd5b606090565b9061278e61278983610521565b61050c565b918252565b3d5f146127ae576127a33d61277c565b903d5f602084013e5b565b6127b6612777565b906127ac565b5f806127e8936127ca612777565b508390602081019051915af4906127df612793565b90919091612809565b90565b6127f3611462565b506128065f6128006124a5565b0161151e565b90565b9061281d90612816612777565b501561081e565b5f1461282957506128ad565b61283282612539565b61284461283e5f610c37565b91610287565b1480612892575b612853575090565b61288e9061285f610152565b9182917f9996b315000000000000000000000000000000000000000000000000000000008352600483016101e6565b0390fd5b50803b6128a76128a15f610c37565b91610287565b1461284b565b6128b681612539565b6128c86128c25f610c37565b91610287565b115f146128d757805190602001fd5b6128df610152565b7f1425ea420000000000000000000000000000000000000000000000000000000081528061290f6004820161024f565b0390fdfea26469706673582212203ca55f136c411b847392e5b4891ad86c84c5ae909920653a8811713e4133db6064736f6c63430008190033",
  "linkReferences": {},
  "deployedLinkReferences": {}
}