{
  "_format": "hh-sol-artifact-1",
  "contractName": "BaluniV1PoolRegistry",
  "sourceName": "contracts/registry/BaluniV1PoolRegistry.sol",
  "abi": [
    {
      "inputs": [
        {
          "internalType": "address",
          "name": "target",
          "type": "address"
        }
      ],
      "name": "AddressEmptyCode",
      "type": "error"
    },
    {
      "inputs": [
        {
          "internalType": "address",
          "name": "implementation",
          "type": "address"
        }
      ],
      "name": "ERC1967InvalidImplementation",
      "type": "error"
    },
    {
      "inputs": [],
      "name": "ERC1967NonPayable",
      "type": "error"
    },
    {
      "inputs": [],
      "name": "FailedInnerCall",
      "type": "error"
    },
    {
      "inputs": [],
      "name": "InvalidInitialization",
      "type": "error"
    },
    {
      "inputs": [],
      "name": "NotInitializing",
      "type": "error"
    },
    {
      "inputs": [
        {
          "internalType": "address",
          "name": "owner",
          "type": "address"
        }
      ],
      "name": "OwnableInvalidOwner",
      "type": "error"
    },
    {
      "inputs": [
        {
          "internalType": "address",
          "name": "account",
          "type": "address"
        }
      ],
      "name": "OwnableUnauthorizedAccount",
      "type": "error"
    },
    {
      "inputs": [],
      "name": "UUPSUnauthorizedCallContext",
      "type": "error"
    },
    {
      "inputs": [
        {
          "internalType": "bytes32",
          "name": "slot",
          "type": "bytes32"
        }
      ],
      "name": "UUPSUnsupportedProxiableUUID",
      "type": "error"
    },
    {
      "anonymous": false,
      "inputs": [
        {
          "indexed": false,
          "internalType": "uint64",
          "name": "version",
          "type": "uint64"
        }
      ],
      "name": "Initialized",
      "type": "event"
    },
    {
      "anonymous": false,
      "inputs": [
        {
          "indexed": true,
          "internalType": "address",
          "name": "previousOwner",
          "type": "address"
        },
        {
          "indexed": true,
          "internalType": "address",
          "name": "newOwner",
          "type": "address"
        }
      ],
      "name": "OwnershipTransferred",
      "type": "event"
    },
    {
      "anonymous": false,
      "inputs": [
        {
          "indexed": true,
          "internalType": "address",
          "name": "pool",
          "type": "address"
        },
        {
          "indexed": false,
          "internalType": "address[]",
          "name": "assets",
          "type": "address[]"
        }
      ],
      "name": "PoolCreated",
      "type": "event"
    },
    {
      "anonymous": false,
      "inputs": [
        {
          "indexed": true,
          "internalType": "address",
          "name": "implementation",
          "type": "address"
        }
      ],
      "name": "Upgraded",
      "type": "event"
    },
    {
      "inputs": [],
      "name": "UPGRADE_INTERFACE_VERSION",
      "outputs": [
        {
          "internalType": "string",
          "name": "",
          "type": "string"
        }
      ],
      "stateMutability": "view",
      "type": "function"
    },
    {
      "inputs": [
        {
          "internalType": "address",
          "name": "poolAddress",
          "type": "address"
        }
      ],
      "name": "addPool",
      "outputs": [],
      "stateMutability": "nonpayable",
      "type": "function"
    },
    {
      "inputs": [
        {
          "internalType": "uint256",
          "name": "",
          "type": "uint256"
        }
      ],
      "name": "allPools",
      "outputs": [
        {
          "internalType": "address",
          "name": "",
          "type": "address"
        }
      ],
      "stateMutability": "view",
      "type": "function"
    },
    {
      "inputs": [],
      "name": "getAllPools",
      "outputs": [
        {
          "internalType": "address[]",
          "name": "",
          "type": "address[]"
        }
      ],
      "stateMutability": "view",
      "type": "function"
    },
    {
      "inputs": [
        {
          "internalType": "address",
          "name": "",
          "type": "address"
        },
        {
          "internalType": "address",
          "name": "",
          "type": "address"
        }
      ],
      "name": "getPool",
      "outputs": [
        {
          "internalType": "address",
          "name": "",
          "type": "address"
        }
      ],
      "stateMutability": "view",
      "type": "function"
    },
    {
      "inputs": [
        {
          "internalType": "address",
          "name": "poolAddress",
          "type": "address"
        }
      ],
      "name": "getPoolAssets",
      "outputs": [
        {
          "internalType": "address[]",
          "name": "",
          "type": "address[]"
        }
      ],
      "stateMutability": "view",
      "type": "function"
    },
    {
      "inputs": [
        {
          "internalType": "address",
          "name": "asset1",
          "type": "address"
        },
        {
          "internalType": "address",
          "name": "asset2",
          "type": "address"
        }
      ],
      "name": "getPoolByAssets",
      "outputs": [
        {
          "internalType": "address",
          "name": "",
          "type": "address"
        }
      ],
      "stateMutability": "view",
      "type": "function"
    },
    {
      "inputs": [
        {
          "internalType": "address",
          "name": "token",
          "type": "address"
        }
      ],
      "name": "getPoolsByAsset",
      "outputs": [
        {
          "internalType": "address[]",
          "name": "",
          "type": "address[]"
        }
      ],
      "stateMutability": "view",
      "type": "function"
    },
    {
      "inputs": [],
      "name": "getPoolsCount",
      "outputs": [
        {
          "internalType": "uint256",
          "name": "",
          "type": "uint256"
        }
      ],
      "stateMutability": "view",
      "type": "function"
    },
    {
      "inputs": [
        {
          "internalType": "address",
          "name": "_register",
          "type": "address"
        }
      ],
      "name": "initialize",
      "outputs": [],
      "stateMutability": "nonpayable",
      "type": "function"
    },
    {
      "inputs": [],
      "name": "owner",
      "outputs": [
        {
          "internalType": "address",
          "name": "",
          "type": "address"
        }
      ],
      "stateMutability": "view",
      "type": "function"
    },
    {
      "inputs": [
        {
          "internalType": "address",
          "name": "_pool",
          "type": "address"
        }
      ],
      "name": "poolExist",
      "outputs": [
        {
          "internalType": "bool",
          "name": "",
          "type": "bool"
        }
      ],
      "stateMutability": "view",
      "type": "function"
    },
    {
      "inputs": [],
      "name": "proxiableUUID",
      "outputs": [
        {
          "internalType": "bytes32",
          "name": "",
          "type": "bytes32"
        }
      ],
      "stateMutability": "view",
      "type": "function"
    },
    {
      "inputs": [],
      "name": "registry",
      "outputs": [
        {
          "internalType": "contract IBaluniV1Registry",
          "name": "",
          "type": "address"
        }
      ],
      "stateMutability": "view",
      "type": "function"
    },
    {
      "inputs": [
        {
          "internalType": "address",
          "name": "_register",
          "type": "address"
        },
        {
          "internalType": "uint64",
          "name": "_version",
          "type": "uint64"
        }
      ],
      "name": "reinitialize",
      "outputs": [],
      "stateMutability": "nonpayable",
      "type": "function"
    },
    {
      "inputs": [],
      "name": "renounceOwnership",
      "outputs": [],
      "stateMutability": "nonpayable",
      "type": "function"
    },
    {
      "inputs": [
        {
          "internalType": "address",
          "name": "newOwner",
          "type": "address"
        }
      ],
      "name": "transferOwnership",
      "outputs": [],
      "stateMutability": "nonpayable",
      "type": "function"
    },
    {
      "inputs": [
        {
          "internalType": "address",
          "name": "newImplementation",
          "type": "address"
        },
        {
          "internalType": "bytes",
          "name": "data",
          "type": "bytes"
        }
      ],
      "name": "upgradeToAndCall",
      "outputs": [],
      "stateMutability": "payable",
      "type": "function"
    }
  ],
  "bytecode": "0x60a0604052306080523480156012575f80fd5b506080516114c66100395f395f8181610c7d01528181610ca60152610de501526114c65ff3fe608060405260043610610105575f3560e01c80638da5cb5b11610092578063b4ac686011610062578063b4ac68601461031f578063c4d66de814610332578063d88ff1f414610351578063d914cd4b14610365578063f2fde38b14610384575f80fd5b80638da5cb5b146102685780638f2248bc146102a4578063ad3cb1cc146102c3578063b4340e6a14610300575f80fd5b806352d1902d116100d857806352d1902d146101a5578063531aa03e146101c7578063715018a6146102065780637b1039991461021a57806389345efb14610239575f80fd5b80632d5e94a71461010957806341d1de97146101455780634276b97b146101645780634f1ef28614610190575b5f80fd5b348015610114575f80fd5b5061012861012336600461113a565b6103a3565b6040516001600160a01b0390911681526020015b60405180910390f35b348015610150575f80fd5b5061012861015f366004611171565b6103d1565b34801561016f575f80fd5b5061018361017e366004611188565b6103f8565b60405161013c91906111a3565b6101a361019e366004611234565b610467565b005b3480156101b0575f80fd5b506101b9610486565b60405190815260200161013c565b3480156101d2575f80fd5b506101286101e136600461113a565b600260209081525f92835260408084209091529082529020546001600160a01b031681565b348015610211575f80fd5b506101a36104a1565b348015610225575f80fd5b50600154610128906001600160a01b031681565b348015610244575f80fd5b50610258610253366004611188565b6104b4565b604051901515815260200161013c565b348015610273575f80fd5b507f9016d09d72d40fdae2fd8ceac6b6234c7706214fd39c1cd1e609a0528c199300546001600160a01b0316610128565b3480156102af575f80fd5b506101a36102be3660046112d6565b61050e565b3480156102ce575f80fd5b506102f3604051806040016040528060058152602001640352e302e360dc1b81525081565b60405161013c919061130e565b34801561030b575f80fd5b5061018361031a366004611188565b6105f9565b34801561032a575f80fd5b505f546101b9565b34801561033d575f80fd5b506101a361034c366004611188565b610827565b34801561035c575f80fd5b50610183610958565b348015610370575f80fd5b506101a361037f366004611188565b6109b7565b34801561038f575f80fd5b506101a361039e366004611188565b610c35565b6001600160a01b038083165f9081526002602090815260408083208585168452909152902054165b92915050565b5f81815481106103df575f80fd5b5f918252602090912001546001600160a01b0316905081565b60605f829050806001600160a01b03166367e4ac2c6040518163ffffffff1660e01b81526004015f60405180830381865afa158015610439573d5f803e3d5ffd5b505050506040513d5f823e601f3d908101601f191682016040526104609190810190611343565b9392505050565b61046f610c72565b61047882610d16565b6104828282610d1e565b5050565b5f61048f610dda565b505f8051602061147183398151915290565b6104a9610e23565b6104b25f610e7e565b565b5f805b5f5481101561050657826001600160a01b03165f82815481106104dc576104dc6113f0565b5f918252602090912001546001600160a01b0316036104fe5750600192915050565b6001016104b7565b505f92915050565b7ff0c57e16840df040f15088dc2f81fe391c3923bec73e23a9662efc9c229c6a008054829190600160401b900460ff16806105575750805467ffffffffffffffff808416911610155b156105755760405163f92ee8a960e01b815260040160405180910390fd5b8054600160401b67ffffffffffffffff841668ffffffffffffffffff199092168217178255600180546001600160a01b0319166001600160a01b038716179055815460ff60401b191682556040519081527fc7f505b2f371ae2175ee4913f4499e1f2633a7b5936321eed1cdaeb6115181d29060200160405180910390a150505050565b5f80546060919067ffffffffffffffff811115610618576106186111ef565b604051908082528060200260200182016040528015610641578160200160208202803683370190505b5090505f805b5f54811015610781575f808281548110610663576106636113f0565b905f5260205f20015f9054906101000a90046001600160a01b031690505f816001600160a01b03166367e4ac2c6040518163ffffffff1660e01b81526004015f60405180830381865afa1580156106bc573d5f803e3d5ffd5b505050506040513d5f823e601f3d908101601f191682016040526106e39190810190611343565b90505f5b815181101561076757876001600160a01b031682828151811061070c5761070c6113f0565b60200260200101516001600160a01b03160361075f5782868681518110610735576107356113f0565b6001600160a01b03909216602092830291909101909101528461075781611418565b955050610767565b6001016106e7565b5084518403610777575050610781565b5050600101610647565b505f8167ffffffffffffffff81111561079c5761079c6111ef565b6040519080825280602002602001820160405280156107c5578160200160208202803683370190505b5090505f5b8281101561081e578381815181106107e4576107e46113f0565b60200260200101518282815181106107fe576107fe6113f0565b6001600160a01b03909216602092830291909101909101526001016107ca565b50949350505050565b7ff0c57e16840df040f15088dc2f81fe391c3923bec73e23a9662efc9c229c6a008054600160401b810460ff16159067ffffffffffffffff165f8115801561086c5750825b90505f8267ffffffffffffffff1660011480156108885750303b155b905081158015610896575080155b156108b45760405163f92ee8a960e01b815260040160405180910390fd5b845467ffffffffffffffff1916600117855583156108de57845460ff60401b1916600160401b1785555b6108e6610eee565b6108ef33610ef6565b600180546001600160a01b0319166001600160a01b038816179055831561095057845460ff60401b19168555604051600181527fc7f505b2f371ae2175ee4913f4499e1f2633a7b5936321eed1cdaeb6115181d29060200160405180910390a15b505050505050565b60605f8054806020026020016040519081016040528092919081815260200182805480156109ad57602002820191905f5260205f20905b81546001600160a01b0316815260019091019060200180831161098f575b5050505050905090565b6109bf610e23565b6001600160a01b038116610a2c5760405162461bcd60e51b815260206004820152602960248201527f42616c756e695631506f6f6c466163746f72793a20494e56414c49445f504f4f6044820152684c5f4144445245535360b81b60648201526084015b60405180910390fd5b5f80546001810182558180527f290decd9548b62a8d60345a988386fc84ba6bc95484008f6362f93160ef3e5630180546001600160a01b0319166001600160a01b038416908117909155604080516319f92b0b60e21b815290516367e4ac2c9160048082019286929091908290030181865afa158015610aae573d5f803e3d5ffd5b505050506040513d5f823e601f3d908101601f19168201604052610ad59190810190611343565b90505f5b8151811015610c30575f610aee826001611430565b90505b8251811015610c27578360025f858581518110610b1057610b106113f0565b60200260200101516001600160a01b03166001600160a01b031681526020019081526020015f205f858481518110610b4a57610b4a6113f0565b60200260200101516001600160a01b03166001600160a01b031681526020019081526020015f205f6101000a8154816001600160a01b0302191690836001600160a01b031602179055508360025f858481518110610baa57610baa6113f0565b60200260200101516001600160a01b03166001600160a01b031681526020019081526020015f205f858581518110610be457610be46113f0565b6020908102919091018101516001600160a01b039081168352908201929092526040015f2080546001600160a01b03191692909116919091179055600101610af1565b50600101610ad9565b505050565b610c3d610e23565b6001600160a01b038116610c6657604051631e4fbdf760e01b81525f6004820152602401610a23565b610c6f81610e7e565b50565b306001600160a01b037f0000000000000000000000000000000000000000000000000000000000000000161480610cf857507f00000000000000000000000000000000000000000000000000000000000000006001600160a01b0316610cec5f80516020611471833981519152546001600160a01b031690565b6001600160a01b031614155b156104b25760405163703e46dd60e11b815260040160405180910390fd5b610c6f610e23565b816001600160a01b03166352d1902d6040518163ffffffff1660e01b8152600401602060405180830381865afa925050508015610d78575060408051601f3d908101601f19168201909252610d7591810190611443565b60015b610da057604051634c9c8ce360e01b81526001600160a01b0383166004820152602401610a23565b5f805160206114718339815191528114610dd057604051632a87526960e21b815260048101829052602401610a23565b610c308383610f07565b306001600160a01b037f000000000000000000000000000000000000000000000000000000000000000016146104b25760405163703e46dd60e11b815260040160405180910390fd5b33610e557f9016d09d72d40fdae2fd8ceac6b6234c7706214fd39c1cd1e609a0528c199300546001600160a01b031690565b6001600160a01b0316146104b25760405163118cdaa760e01b8152336004820152602401610a23565b7f9016d09d72d40fdae2fd8ceac6b6234c7706214fd39c1cd1e609a0528c19930080546001600160a01b031981166001600160a01b03848116918217845560405192169182907f8be0079c531659141344cd1fd0a4f28419497f9722a3daafe3b4186f6b6457e0905f90a3505050565b6104b2610f5c565b610efe610f5c565b610c6f81610fa5565b610f1082610fad565b6040516001600160a01b038316907fbc7cd75a20ee27fd9adebab32041f755214dbc6bffa90cc0225b39da2e5c2d3b905f90a2805115610f5457610c308282611010565b610482611082565b7ff0c57e16840df040f15088dc2f81fe391c3923bec73e23a9662efc9c229c6a0054600160401b900460ff166104b257604051631afcd79f60e31b815260040160405180910390fd5b610c3d610f5c565b806001600160a01b03163b5f03610fe257604051634c9c8ce360e01b81526001600160a01b0382166004820152602401610a23565b5f8051602061147183398151915280546001600160a01b0319166001600160a01b0392909216919091179055565b60605f80846001600160a01b03168460405161102c919061145a565b5f60405180830381855af49150503d805f8114611064576040519150601f19603f3d011682016040523d82523d5f602084013e611069565b606091505b50915091506110798583836110a1565b95945050505050565b34156104b25760405163b398979f60e01b815260040160405180910390fd5b6060826110b6576110b1826110fd565b610460565b81511580156110cd57506001600160a01b0384163b155b156110f657604051639996b31560e01b81526001600160a01b0385166004820152602401610a23565b5092915050565b80511561110d5780518082602001fd5b604051630a12f52160e11b815260040160405180910390fd5b6001600160a01b0381168114610c6f575f80fd5b5f806040838503121561114b575f80fd5b823561115681611126565b9150602083013561116681611126565b809150509250929050565b5f60208284031215611181575f80fd5b5035919050565b5f60208284031215611198575f80fd5b813561046081611126565b602080825282518282018190525f9190848201906040850190845b818110156111e35783516001600160a01b0316835292840192918401916001016111be565b50909695505050505050565b634e487b7160e01b5f52604160045260245ffd5b604051601f8201601f1916810167ffffffffffffffff8111828210171561122c5761122c6111ef565b604052919050565b5f8060408385031215611245575f80fd5b823561125081611126565b915060208381013567ffffffffffffffff8082111561126d575f80fd5b818601915086601f830112611280575f80fd5b813581811115611292576112926111ef565b6112a4601f8201601f19168501611203565b915080825287848285010111156112b9575f80fd5b80848401858401375f848284010152508093505050509250929050565b5f80604083850312156112e7575f80fd5b82356112f281611126565b9150602083013567ffffffffffffffff81168114611166575f80fd5b602081525f82518060208401528060208501604085015e5f604082850101526040601f19601f83011684010191505092915050565b5f6020808385031215611354575f80fd5b825167ffffffffffffffff8082111561136b575f80fd5b818501915085601f83011261137e575f80fd5b815181811115611390576113906111ef565b8060051b91506113a1848301611203565b81815291830184019184810190888411156113ba575f80fd5b938501935b838510156113e457845192506113d483611126565b82825293850193908501906113bf565b98975050505050505050565b634e487b7160e01b5f52603260045260245ffd5b634e487b7160e01b5f52601160045260245ffd5b5f6001820161142957611429611404565b5060010190565b808201808211156103cb576103cb611404565b5f60208284031215611453575f80fd5b5051919050565b5f82518060208501845e5f92019182525091905056fe360894a13ba1a3210667c828492db98dca3e2076cc3735a920a3ca505d382bbca2646970667358221220136b22a4e27e81311040da22dcc7c0d77913d0e7bc8801700b1f24ede1a6196964736f6c63430008190033",
  "linkReferences": {},
  "deployedLinkReferences": {}
}