{
    "contractName": "BMath",
    "abi": [
        {
            "inputs": [],
            "name": "BONE",
            "outputs": [
                {
                    "internalType": "uint256",
                    "name": "",
                    "type": "uint256"
                }
            ],
            "stateMutability": "view",
            "type": "function"
        },
        {
            "inputs": [],
            "name": "BPOW_PRECISION",
            "outputs": [
                {
                    "internalType": "uint256",
                    "name": "",
                    "type": "uint256"
                }
            ],
            "stateMutability": "view",
            "type": "function"
        },
        {
            "inputs": [],
            "name": "EXIT_FEE",
            "outputs": [
                {
                    "internalType": "uint256",
                    "name": "",
                    "type": "uint256"
                }
            ],
            "stateMutability": "view",
            "type": "function"
        },
        {
            "inputs": [],
            "name": "INIT_POOL_SUPPLY",
            "outputs": [
                {
                    "internalType": "uint256",
                    "name": "",
                    "type": "uint256"
                }
            ],
            "stateMutability": "view",
            "type": "function"
        },
        {
            "inputs": [],
            "name": "MAX_BOUND_TOKENS",
            "outputs": [
                {
                    "internalType": "uint256",
                    "name": "",
                    "type": "uint256"
                }
            ],
            "stateMutability": "view",
            "type": "function"
        },
        {
            "inputs": [],
            "name": "MAX_BPOW_BASE",
            "outputs": [
                {
                    "internalType": "uint256",
                    "name": "",
                    "type": "uint256"
                }
            ],
            "stateMutability": "view",
            "type": "function"
        },
        {
            "inputs": [],
            "name": "MAX_FEE",
            "outputs": [
                {
                    "internalType": "uint256",
                    "name": "",
                    "type": "uint256"
                }
            ],
            "stateMutability": "view",
            "type": "function"
        },
        {
            "inputs": [],
            "name": "MAX_IN_RATIO",
            "outputs": [
                {
                    "internalType": "uint256",
                    "name": "",
                    "type": "uint256"
                }
            ],
            "stateMutability": "view",
            "type": "function"
        },
        {
            "inputs": [],
            "name": "MAX_OUT_RATIO",
            "outputs": [
                {
                    "internalType": "uint256",
                    "name": "",
                    "type": "uint256"
                }
            ],
            "stateMutability": "view",
            "type": "function"
        },
        {
            "inputs": [],
            "name": "MAX_TOTAL_WEIGHT",
            "outputs": [
                {
                    "internalType": "uint256",
                    "name": "",
                    "type": "uint256"
                }
            ],
            "stateMutability": "view",
            "type": "function"
        },
        {
            "inputs": [],
            "name": "MAX_WEIGHT",
            "outputs": [
                {
                    "internalType": "uint256",
                    "name": "",
                    "type": "uint256"
                }
            ],
            "stateMutability": "view",
            "type": "function"
        },
        {
            "inputs": [],
            "name": "MIN_BALANCE",
            "outputs": [
                {
                    "internalType": "uint256",
                    "name": "",
                    "type": "uint256"
                }
            ],
            "stateMutability": "view",
            "type": "function"
        },
        {
            "inputs": [],
            "name": "MIN_BOUND_TOKENS",
            "outputs": [
                {
                    "internalType": "uint256",
                    "name": "",
                    "type": "uint256"
                }
            ],
            "stateMutability": "view",
            "type": "function"
        },
        {
            "inputs": [],
            "name": "MIN_BPOW_BASE",
            "outputs": [
                {
                    "internalType": "uint256",
                    "name": "",
                    "type": "uint256"
                }
            ],
            "stateMutability": "view",
            "type": "function"
        },
        {
            "inputs": [],
            "name": "MIN_FEE",
            "outputs": [
                {
                    "internalType": "uint256",
                    "name": "",
                    "type": "uint256"
                }
            ],
            "stateMutability": "view",
            "type": "function"
        },
        {
            "inputs": [],
            "name": "MIN_WEIGHT",
            "outputs": [
                {
                    "internalType": "uint256",
                    "name": "",
                    "type": "uint256"
                }
            ],
            "stateMutability": "view",
            "type": "function"
        },
        {
            "inputs": [
                {
                    "internalType": "uint256",
                    "name": "tokenBalanceIn",
                    "type": "uint256"
                },
                {
                    "internalType": "uint256",
                    "name": "tokenWeightIn",
                    "type": "uint256"
                },
                {
                    "internalType": "uint256",
                    "name": "tokenBalanceOut",
                    "type": "uint256"
                },
                {
                    "internalType": "uint256",
                    "name": "tokenWeightOut",
                    "type": "uint256"
                },
                {
                    "internalType": "uint256",
                    "name": "tokenAmountOut",
                    "type": "uint256"
                },
                {
                    "internalType": "uint256",
                    "name": "swapFee",
                    "type": "uint256"
                }
            ],
            "name": "calcInGivenOut",
            "outputs": [
                {
                    "internalType": "uint256",
                    "name": "tokenAmountIn",
                    "type": "uint256"
                }
            ],
            "stateMutability": "pure",
            "type": "function"
        },
        {
            "inputs": [
                {
                    "internalType": "uint256",
                    "name": "tokenBalanceIn",
                    "type": "uint256"
                },
                {
                    "internalType": "uint256",
                    "name": "tokenWeightIn",
                    "type": "uint256"
                },
                {
                    "internalType": "uint256",
                    "name": "tokenBalanceOut",
                    "type": "uint256"
                },
                {
                    "internalType": "uint256",
                    "name": "tokenWeightOut",
                    "type": "uint256"
                },
                {
                    "internalType": "uint256",
                    "name": "tokenAmountIn",
                    "type": "uint256"
                },
                {
                    "internalType": "uint256",
                    "name": "swapFee",
                    "type": "uint256"
                }
            ],
            "name": "calcOutGivenIn",
            "outputs": [
                {
                    "internalType": "uint256",
                    "name": "tokenAmountOut",
                    "type": "uint256"
                }
            ],
            "stateMutability": "pure",
            "type": "function"
        },
        {
            "inputs": [
                {
                    "internalType": "uint256",
                    "name": "tokenBalanceOut",
                    "type": "uint256"
                },
                {
                    "internalType": "uint256",
                    "name": "tokenWeightOut",
                    "type": "uint256"
                },
                {
                    "internalType": "uint256",
                    "name": "poolSupply",
                    "type": "uint256"
                },
                {
                    "internalType": "uint256",
                    "name": "totalWeight",
                    "type": "uint256"
                },
                {
                    "internalType": "uint256",
                    "name": "tokenAmountOut",
                    "type": "uint256"
                },
                {
                    "internalType": "uint256",
                    "name": "swapFee",
                    "type": "uint256"
                }
            ],
            "name": "calcPoolInGivenSingleOut",
            "outputs": [
                {
                    "internalType": "uint256",
                    "name": "poolAmountIn",
                    "type": "uint256"
                }
            ],
            "stateMutability": "pure",
            "type": "function"
        },
        {
            "inputs": [
                {
                    "internalType": "uint256",
                    "name": "tokenBalanceIn",
                    "type": "uint256"
                },
                {
                    "internalType": "uint256",
                    "name": "tokenWeightIn",
                    "type": "uint256"
                },
                {
                    "internalType": "uint256",
                    "name": "poolSupply",
                    "type": "uint256"
                },
                {
                    "internalType": "uint256",
                    "name": "totalWeight",
                    "type": "uint256"
                },
                {
                    "internalType": "uint256",
                    "name": "tokenAmountIn",
                    "type": "uint256"
                },
                {
                    "internalType": "uint256",
                    "name": "swapFee",
                    "type": "uint256"
                }
            ],
            "name": "calcPoolOutGivenSingleIn",
            "outputs": [
                {
                    "internalType": "uint256",
                    "name": "poolAmountOut",
                    "type": "uint256"
                }
            ],
            "stateMutability": "pure",
            "type": "function"
        },
        {
            "inputs": [
                {
                    "internalType": "uint256",
                    "name": "tokenBalanceIn",
                    "type": "uint256"
                },
                {
                    "internalType": "uint256",
                    "name": "tokenWeightIn",
                    "type": "uint256"
                },
                {
                    "internalType": "uint256",
                    "name": "poolSupply",
                    "type": "uint256"
                },
                {
                    "internalType": "uint256",
                    "name": "totalWeight",
                    "type": "uint256"
                },
                {
                    "internalType": "uint256",
                    "name": "poolAmountOut",
                    "type": "uint256"
                },
                {
                    "internalType": "uint256",
                    "name": "swapFee",
                    "type": "uint256"
                }
            ],
            "name": "calcSingleInGivenPoolOut",
            "outputs": [
                {
                    "internalType": "uint256",
                    "name": "tokenAmountIn",
                    "type": "uint256"
                }
            ],
            "stateMutability": "pure",
            "type": "function"
        },
        {
            "inputs": [
                {
                    "internalType": "uint256",
                    "name": "tokenBalanceOut",
                    "type": "uint256"
                },
                {
                    "internalType": "uint256",
                    "name": "tokenWeightOut",
                    "type": "uint256"
                },
                {
                    "internalType": "uint256",
                    "name": "poolSupply",
                    "type": "uint256"
                },
                {
                    "internalType": "uint256",
                    "name": "totalWeight",
                    "type": "uint256"
                },
                {
                    "internalType": "uint256",
                    "name": "poolAmountIn",
                    "type": "uint256"
                },
                {
                    "internalType": "uint256",
                    "name": "swapFee",
                    "type": "uint256"
                }
            ],
            "name": "calcSingleOutGivenPoolIn",
            "outputs": [
                {
                    "internalType": "uint256",
                    "name": "tokenAmountOut",
                    "type": "uint256"
                }
            ],
            "stateMutability": "pure",
            "type": "function"
        },
        {
            "inputs": [
                {
                    "internalType": "uint256",
                    "name": "tokenBalanceIn",
                    "type": "uint256"
                },
                {
                    "internalType": "uint256",
                    "name": "tokenWeightIn",
                    "type": "uint256"
                },
                {
                    "internalType": "uint256",
                    "name": "tokenBalanceOut",
                    "type": "uint256"
                },
                {
                    "internalType": "uint256",
                    "name": "tokenWeightOut",
                    "type": "uint256"
                },
                {
                    "internalType": "uint256",
                    "name": "swapFee",
                    "type": "uint256"
                }
            ],
            "name": "calcSpotPrice",
            "outputs": [
                {
                    "internalType": "uint256",
                    "name": "spotPrice",
                    "type": "uint256"
                }
            ],
            "stateMutability": "pure",
            "type": "function"
        },
        {
            "inputs": [],
            "name": "getColor",
            "outputs": [
                {
                    "internalType": "bytes32",
                    "name": "",
                    "type": "bytes32"
                }
            ],
            "stateMutability": "view",
            "type": "function"
        }
    ],
    "bytecode": "6080604052348015600e575f80fd5b50610e358061001c5f395ff3fe608060405234801561000f575f80fd5b5060043610610153575f3560e01c8063a221ee49116100bf578063bc694ea211610079578063bc694ea214610249578063c36596a614610179578063c6580d1214610251578063e4a28a5214610157578063ec09302114610258578063f8d6aed414610260575f80fd5b8063a221ee4914610203578063b0e0d13614610216578063b7b800a41461021e578063ba019dab14610226578063ba9530a61461022e578063bc063e1a14610241575f80fd5b80638656b653116101105780638656b653146101b6578063867378c5146101c957806389298012146101d15780639381cd2b146101e4578063992e2a92146101ec5780639a86139b146101f4575f80fd5b806309a3bbe414610157578063189d00ca14610171578063218b5382146101795780635c1bbaf71461018857806376c7a3c71461019b57806382f652ad146101a3575b5f80fd5b61015f610273565b60405190815260200160405180910390f35b61015f610289565b61015f670de0b6b3a764000081565b61015f610196366004610ce6565b6102a0565b61015f610350565b61015f6101b1366004610ce6565b610365565b61015f6101c4366004610ce6565b61041a565b61015f6104b4565b61015f6101df366004610ce6565b6104cb565b61015f610572565b61015f610585565b6542524f4e5a4560d01b61015f565b61015f610211366004610d25565b6105a3565b61015f600881565b61015f600281565b61015f600181565b61015f61023c366004610ce6565b610604565b61015f610680565b61015f610693565b61015f5f81565b61015f6106b2565b61015f61026e366004610ce6565b6106c5565b610286670de0b6b3a76400006032610d70565b81565b6102866402540be400670de0b6b3a7640000610d9b565b5f806102ac8786610744565b90505f6102b9878661086b565b90505f6102c68289610744565b90505f6102db670de0b6b3a764000085610744565b90505f6102e883836108c3565b90505f6102f5828e6109ec565b90505f610302828f610ac4565b90505f61032061031a670de0b6b3a76400008a610ac4565b8b6109ec565b905061033d82610338670de0b6b3a764000084610ac4565b610744565b9f9e505050505050505050505050505050565b610286620f4240670de0b6b3a7640000610d9b565b5f806103718786610744565b90505f610386670de0b6b3a764000083610ac4565b90505f61039382866109ec565b90505f6103ac87610338670de0b6b3a764000085610ac4565b90505f6103b98c83610ac4565b90505f6103c6828e610744565b90505f6103d382886108c3565b90505f6103e0828e6109ec565b90505f6103ed8e83610ac4565b905061040581610338670de0b6b3a76400005f610ac4565b99505050505050505050509695505050505050565b5f806104268786610744565b90505f61044461043e670de0b6b3a764000084610ac4565b856109ec565b90505f6104628661045d670de0b6b3a764000085610ac4565b6109ec565b90505f61046f8b8361086b565b90505f61047c828d610744565b90505f61048982876108c3565b90505f610496828d6109ec565b90506104a2818d610ac4565b9e9d5050505050505050505050505050565b61028664e8d4a51000670de0b6b3a7640000610d9b565b5f806104d78786610744565b90505f6104f08561045d670de0b6b3a76400005f610ac4565b90505f6104fd8883610ac4565b90505f61050a828a610744565b90505f61052882610523670de0b6b3a764000088610744565b6108c3565b90505f610535828e6109ec565b90505f6105428e83610ac4565b90505f61055a61031a670de0b6b3a76400008a610ac4565b905061033d8261045d670de0b6b3a764000084610ac4565b610286670de0b6b3a76400006064610d70565b6105986003670de0b6b3a7640000610d9b565b610286906001610dae565b5f806105af8787610744565b90505f6105bc8686610744565b90505f6105c98383610744565b90505f6105ea670de0b6b3a7640000610338670de0b6b3a764000089610ac4565b90506105f682826109ec565b9a9950505050505050505050565b5f806106108786610744565b90505f610625670de0b6b3a764000085610ac4565b905061063185826109ec565b90505f6106428a6103388c8561086b565b90505f61064f82856108c3565b90505f610664670de0b6b3a764000083610ac4565b90506106708a826109ec565b9c9b505050505050505050505050565b610286600a670de0b6b3a7640000610d9b565b60016106a8670de0b6b3a76400006002610d70565b6102869190610dc1565b6102866002670de0b6b3a7640000610d9b565b5f806106d18588610744565b90505f6106de8786610ac4565b90505f6106eb8883610744565b90505f6106f882856108c3565b905061070c81670de0b6b3a7640000610ac4565b9050610720670de0b6b3a764000087610ac4565b945061073561072f8c836109ec565b86610744565b9b9a5050505050505050505050565b5f815f036107885760405162461bcd60e51b815260206004820152600c60248201526b4552525f4449565f5a45524f60a01b60448201526064015b60405180910390fd5b5f61079b670de0b6b3a764000085610d70565b90508315806107ba5750670de0b6b3a76400006107b88583610d9b565b145b6107f95760405162461bcd60e51b815260206004820152601060248201526f11549497d1125597d25395115493905360821b604482015260640161077f565b5f610805600285610d9b565b61080f9083610dae565b9050818110156108545760405162461bcd60e51b815260206004820152601060248201526f11549497d1125597d25395115493905360821b604482015260640161077f565b5f61085f8583610d9b565b93505050505b92915050565b5f806108778385610dae565b9050838110156108bc5760405162461bcd60e51b815260206004820152601060248201526f4552525f4144445f4f564552464c4f5760801b604482015260640161077f565b9392505050565b5f600183101561090d5760405162461bcd60e51b81526020600482015260156024820152744552525f42504f575f424153455f544f4f5f4c4f5760581b604482015260640161077f565b6001610922670de0b6b3a76400006002610d70565b61092c9190610dc1565b8311156109745760405162461bcd60e51b815260206004820152601660248201527508aa4a4be84a09eaebe8482a68abea89e9ebe90928e960531b604482015260640161077f565b5f61097e83610b1f565b90505f61098b8483610ac4565b90505f6109a08661099b85610b3c565b610b4f565b9050815f036109b3579250610865915050565b5f6109d587846109d06402540be400670de0b6b3a7640000610d9b565b610bc3565b90506109e182826109ec565b979650505050505050565b5f806109f88385610d70565b9050831580610a0f575082610a0d8583610d9b565b145b610a4e5760405162461bcd60e51b815260206004820152601060248201526f4552525f4d554c5f4f564552464c4f5760801b604482015260640161077f565b5f610a626002670de0b6b3a7640000610d9b565b610a6c9083610dae565b905081811015610ab15760405162461bcd60e51b815260206004820152601060248201526f4552525f4d554c5f4f564552464c4f5760801b604482015260640161077f565b5f61085f670de0b6b3a764000083610d9b565b5f805f610ad18585610cb1565b915091508015610b175760405162461bcd60e51b81526020600482015260116024820152704552525f5355425f554e444552464c4f5760781b604482015260640161077f565b509392505050565b5f670de0b6b3a7640000610b3283610b3c565b6108659190610d70565b5f610865670de0b6b3a764000083610d9b565b5f80610b5c600284610dd4565b5f03610b7057670de0b6b3a7640000610b72565b835b9050610b7f600284610d9b565b92505b82156108bc57610b9284856109ec565b9350610b9f600284610dd4565b15610bb157610bae81856109ec565b90505b610bbc600284610d9b565b9250610b82565b5f828180610bd987670de0b6b3a7640000610cb1565b9092509050670de0b6b3a7640000805f60015b888410610ca2575f610c06670de0b6b3a764000083610d70565b90505f80610c258a610c2085670de0b6b3a7640000610ac4565b610cb1565b91509150610c378761045d848c6109ec565b9650610c438784610744565b9650865f03610c5457505050610ca2565b8715610c5e579315935b8015610c68579315935b8415610c7f57610c788688610ac4565b9550610c8c565b610c89868861086b565b95505b5050508080610c9a90610de7565b915050610bec565b50909998505050505050505050565b5f80828410610cce57610cc48385610dc1565b5f91509150610cdf565b610cd88484610dc1565b6001915091505b9250929050565b5f805f805f8060c08789031215610cfb575f80fd5b505084359660208601359650604086013595606081013595506080810135945060a0013592509050565b5f805f805f60a08688031215610d39575f80fd5b505083359560208501359550604085013594606081013594506080013592509050565b634e487b7160e01b5f52601160045260245ffd5b808202811582820484141761086557610865610d5c565b634e487b7160e01b5f52601260045260245ffd5b5f82610da957610da9610d87565b500490565b8082018082111561086557610865610d5c565b8181038181111561086557610865610d5c565b5f82610de257610de2610d87565b500690565b5f60018201610df857610df8610d5c565b506001019056fea26469706673582212201105f4fdd4f5a0494c9bbcc3055514ac781782e2a0a9bc1e22a55a03503ee53d64736f6c63430008190033",
    "sourcePath": "c:/Users/Utente/Source/repos/baluni-contracts/contracts/balancer/BMath.sol",
    "compiler": {
        "name": "solc",
        "version": "0.8.25+commit.b61c2a91"
    },
    "functionHashes": {
        "BONE()": "c36596a6",
        "BPOW_PRECISION()": "189d00ca",
        "EXIT_FEE()": "c6580d12",
        "INIT_POOL_SUPPLY()": "9381cd2b",
        "MAX_BOUND_TOKENS()": "b0e0d136",
        "MAX_BPOW_BASE()": "bc694ea2",
        "MAX_FEE()": "bc063e1a",
        "MAX_IN_RATIO()": "ec093021",
        "MAX_OUT_RATIO()": "992e2a92",
        "MAX_TOTAL_WEIGHT()": "09a3bbe4",
        "MAX_WEIGHT()": "e4a28a52",
        "MIN_BALANCE()": "867378c5",
        "MIN_BOUND_TOKENS()": "b7b800a4",
        "MIN_BPOW_BASE()": "ba019dab",
        "MIN_FEE()": "76c7a3c7",
        "MIN_WEIGHT()": "218b5382",
        "calcInGivenOut(uint256,uint256,uint256,uint256,uint256,uint256)": "f8d6aed4",
        "calcOutGivenIn(uint256,uint256,uint256,uint256,uint256,uint256)": "ba9530a6",
        "calcPoolInGivenSingleOut(uint256,uint256,uint256,uint256,uint256,uint256)": "82f652ad",
        "calcPoolOutGivenSingleIn(uint256,uint256,uint256,uint256,uint256,uint256)": "8656b653",
        "calcSingleInGivenPoolOut(uint256,uint256,uint256,uint256,uint256,uint256)": "5c1bbaf7",
        "calcSingleOutGivenPoolIn(uint256,uint256,uint256,uint256,uint256,uint256)": "89298012",
        "calcSpotPrice(uint256,uint256,uint256,uint256,uint256)": "a221ee49",
        "getColor()": "9a86139b"
    },
    "gasEstimates": {
        "creation": {
            "codeDepositCost": "727400",
            "executionCost": "758",
            "totalCost": "728158"
        },
        "external": {
            "BONE()": "226",
            "BPOW_PRECISION()": "296",
            "EXIT_FEE()": "247",
            "INIT_POOL_SUPPLY()": "371",
            "MAX_BOUND_TOKENS()": "227",
            "MAX_BPOW_BASE()": "infinite",
            "MAX_FEE()": "383",
            "MAX_IN_RATIO()": "360",
            "MAX_OUT_RATIO()": "436",
            "MAX_TOTAL_WEIGHT()": "306",
            "MAX_WEIGHT()": "370",
            "MIN_BALANCE()": "295",
            "MIN_BOUND_TOKENS()": "249",
            "MIN_BPOW_BASE()": "271",
            "MIN_FEE()": "362",
            "MIN_WEIGHT()": "250",
            "calcInGivenOut(uint256,uint256,uint256,uint256,uint256,uint256)": "infinite",
            "calcOutGivenIn(uint256,uint256,uint256,uint256,uint256,uint256)": "infinite",
            "calcPoolInGivenSingleOut(uint256,uint256,uint256,uint256,uint256,uint256)": "infinite",
            "calcPoolOutGivenSingleIn(uint256,uint256,uint256,uint256,uint256,uint256)": "infinite",
            "calcSingleInGivenPoolOut(uint256,uint256,uint256,uint256,uint256,uint256)": "infinite",
            "calcSingleOutGivenPoolIn(uint256,uint256,uint256,uint256,uint256,uint256)": "infinite",
            "calcSpotPrice(uint256,uint256,uint256,uint256,uint256)": "infinite",
            "getColor()": "318"
        }
    }
}