{
    "contractName": "BNum",
    "abi": [
        {
            "inputs": [],
            "name": "BONE",
            "outputs": [
                {
                    "internalType": "uint256",
                    "name": "",
                    "type": "uint256"
                }
            ],
            "stateMutability": "view",
            "type": "function"
        },
        {
            "inputs": [],
            "name": "BPOW_PRECISION",
            "outputs": [
                {
                    "internalType": "uint256",
                    "name": "",
                    "type": "uint256"
                }
            ],
            "stateMutability": "view",
            "type": "function"
        },
        {
            "inputs": [],
            "name": "EXIT_FEE",
            "outputs": [
                {
                    "internalType": "uint256",
                    "name": "",
                    "type": "uint256"
                }
            ],
            "stateMutability": "view",
            "type": "function"
        },
        {
            "inputs": [],
            "name": "INIT_POOL_SUPPLY",
            "outputs": [
                {
                    "internalType": "uint256",
                    "name": "",
                    "type": "uint256"
                }
            ],
            "stateMutability": "view",
            "type": "function"
        },
        {
            "inputs": [],
            "name": "MAX_BOUND_TOKENS",
            "outputs": [
                {
                    "internalType": "uint256",
                    "name": "",
                    "type": "uint256"
                }
            ],
            "stateMutability": "view",
            "type": "function"
        },
        {
            "inputs": [],
            "name": "MAX_BPOW_BASE",
            "outputs": [
                {
                    "internalType": "uint256",
                    "name": "",
                    "type": "uint256"
                }
            ],
            "stateMutability": "view",
            "type": "function"
        },
        {
            "inputs": [],
            "name": "MAX_FEE",
            "outputs": [
                {
                    "internalType": "uint256",
                    "name": "",
                    "type": "uint256"
                }
            ],
            "stateMutability": "view",
            "type": "function"
        },
        {
            "inputs": [],
            "name": "MAX_IN_RATIO",
            "outputs": [
                {
                    "internalType": "uint256",
                    "name": "",
                    "type": "uint256"
                }
            ],
            "stateMutability": "view",
            "type": "function"
        },
        {
            "inputs": [],
            "name": "MAX_OUT_RATIO",
            "outputs": [
                {
                    "internalType": "uint256",
                    "name": "",
                    "type": "uint256"
                }
            ],
            "stateMutability": "view",
            "type": "function"
        },
        {
            "inputs": [],
            "name": "MAX_TOTAL_WEIGHT",
            "outputs": [
                {
                    "internalType": "uint256",
                    "name": "",
                    "type": "uint256"
                }
            ],
            "stateMutability": "view",
            "type": "function"
        },
        {
            "inputs": [],
            "name": "MAX_WEIGHT",
            "outputs": [
                {
                    "internalType": "uint256",
                    "name": "",
                    "type": "uint256"
                }
            ],
            "stateMutability": "view",
            "type": "function"
        },
        {
            "inputs": [],
            "name": "MIN_BALANCE",
            "outputs": [
                {
                    "internalType": "uint256",
                    "name": "",
                    "type": "uint256"
                }
            ],
            "stateMutability": "view",
            "type": "function"
        },
        {
            "inputs": [],
            "name": "MIN_BOUND_TOKENS",
            "outputs": [
                {
                    "internalType": "uint256",
                    "name": "",
                    "type": "uint256"
                }
            ],
            "stateMutability": "view",
            "type": "function"
        },
        {
            "inputs": [],
            "name": "MIN_BPOW_BASE",
            "outputs": [
                {
                    "internalType": "uint256",
                    "name": "",
                    "type": "uint256"
                }
            ],
            "stateMutability": "view",
            "type": "function"
        },
        {
            "inputs": [],
            "name": "MIN_FEE",
            "outputs": [
                {
                    "internalType": "uint256",
                    "name": "",
                    "type": "uint256"
                }
            ],
            "stateMutability": "view",
            "type": "function"
        },
        {
            "inputs": [],
            "name": "MIN_WEIGHT",
            "outputs": [
                {
                    "internalType": "uint256",
                    "name": "",
                    "type": "uint256"
                }
            ],
            "stateMutability": "view",
            "type": "function"
        },
        {
            "inputs": [],
            "name": "getColor",
            "outputs": [
                {
                    "internalType": "bytes32",
                    "name": "",
                    "type": "bytes32"
                }
            ],
            "stateMutability": "view",
            "type": "function"
        }
    ],
    "bytecode": "6080604052348015600e575f80fd5b5061031c8061001c5f395ff3fe608060405234801561000f575f80fd5b5060043610610106575f3560e01c8063b0e0d1361161009e578063bc694ea21161006e578063bc694ea21461018a578063c36596a61461012c578063c6580d1214610192578063e4a28a521461010a578063ec09302114610199575f80fd5b8063b0e0d1361461016a578063b7b800a414610172578063ba019dab1461017a578063bc063e1a14610182575f80fd5b8063867378c5116100d9578063867378c5146101435780639381cd2b1461014b578063992e2a92146101535780639a86139b1461015b575f80fd5b806309a3bbe41461010a578063189d00ca14610124578063218b53821461012c57806376c7a3c71461013b575b5f80fd5b6101126101a1565b60405190815260200160405180910390f35b6101126101b7565b610112670de0b6b3a764000081565b6101126101ce565b6101126101e3565b6101126101fa565b61011261020d565b6542524f4e5a4560d01b610112565b610112600881565b610112600281565b610112600181565b61011261022b565b61011261023e565b6101125f81565b61011261025d565b6101b4670de0b6b3a76400006032610284565b81565b6101b46402540be400670de0b6b3a76400006102a1565b6101b4620f4240670de0b6b3a76400006102a1565b6101b464e8d4a51000670de0b6b3a76400006102a1565b6101b4670de0b6b3a76400006064610284565b6102206003670de0b6b3a76400006102a1565b6101b49060016102c0565b6101b4600a670de0b6b3a76400006102a1565b6001610253670de0b6b3a76400006002610284565b6101b491906102d3565b6101b46002670de0b6b3a76400006102a1565b634e487b7160e01b5f52601160045260245ffd5b808202811582820484141761029b5761029b610270565b92915050565b5f826102bb57634e487b7160e01b5f52601260045260245ffd5b500490565b8082018082111561029b5761029b610270565b8181038181111561029b5761029b61027056fea26469706673582212207c651504241ae9604152e3408a7fe72200aceabc10a15196f5289ad182c5287b64736f6c63430008190033",
    "sourcePath": "c:/Users/Utente/Source/repos/baluni-contracts/contracts/balancer/BNum.sol",
    "compiler": {
        "name": "solc",
        "version": "0.8.25+commit.b61c2a91"
    },
    "functionHashes": {
        "BONE()": "c36596a6",
        "BPOW_PRECISION()": "189d00ca",
        "EXIT_FEE()": "c6580d12",
        "INIT_POOL_SUPPLY()": "9381cd2b",
        "MAX_BOUND_TOKENS()": "b0e0d136",
        "MAX_BPOW_BASE()": "bc694ea2",
        "MAX_FEE()": "bc063e1a",
        "MAX_IN_RATIO()": "ec093021",
        "MAX_OUT_RATIO()": "992e2a92",
        "MAX_TOTAL_WEIGHT()": "09a3bbe4",
        "MAX_WEIGHT()": "e4a28a52",
        "MIN_BALANCE()": "867378c5",
        "MIN_BOUND_TOKENS()": "b7b800a4",
        "MIN_BPOW_BASE()": "ba019dab",
        "MIN_FEE()": "76c7a3c7",
        "MIN_WEIGHT()": "218b5382",
        "getColor()": "9a86139b"
    },
    "gasEstimates": {
        "creation": {
            "codeDepositCost": "159200",
            "executionCost": "200",
            "totalCost": "159400"
        },
        "external": {
            "BONE()": "226",
            "BPOW_PRECISION()": "296",
            "EXIT_FEE()": "247",
            "INIT_POOL_SUPPLY()": "327",
            "MAX_BOUND_TOKENS()": "205",
            "MAX_BPOW_BASE()": "infinite",
            "MAX_FEE()": "339",
            "MAX_IN_RATIO()": "360",
            "MAX_OUT_RATIO()": "392",
            "MAX_TOTAL_WEIGHT()": "306",
            "MAX_WEIGHT()": "370",
            "MIN_BALANCE()": "273",
            "MIN_BOUND_TOKENS()": "227",
            "MIN_BPOW_BASE()": "249",
            "MIN_FEE()": "340",
            "MIN_WEIGHT()": "250",
            "getColor()": "274"
        },
        "internal": {
            "badd(uint256,uint256)": "infinite",
            "bdiv(uint256,uint256)": "infinite",
            "bfloor(uint256)": "infinite",
            "bmul(uint256,uint256)": "infinite",
            "bpow(uint256,uint256)": "infinite",
            "bpowApprox(uint256,uint256,uint256)": "infinite",
            "bpowi(uint256,uint256)": "infinite",
            "bsub(uint256,uint256)": "infinite",
            "bsubSign(uint256,uint256)": "infinite",
            "btoi(uint256)": "infinite"
        }
    }
}