{
    "contractName": "BToken",
    "abi": [
        {
            "anonymous": false,
            "inputs": [
                {
                    "indexed": true,
                    "internalType": "address",
                    "name": "src",
                    "type": "address"
                },
                {
                    "indexed": true,
                    "internalType": "address",
                    "name": "dst",
                    "type": "address"
                },
                {
                    "indexed": false,
                    "internalType": "uint256",
                    "name": "amt",
                    "type": "uint256"
                }
            ],
            "name": "Approval",
            "type": "event"
        },
        {
            "anonymous": false,
            "inputs": [
                {
                    "indexed": true,
                    "internalType": "address",
                    "name": "src",
                    "type": "address"
                },
                {
                    "indexed": true,
                    "internalType": "address",
                    "name": "dst",
                    "type": "address"
                },
                {
                    "indexed": false,
                    "internalType": "uint256",
                    "name": "amt",
                    "type": "uint256"
                }
            ],
            "name": "Transfer",
            "type": "event"
        },
        {
            "inputs": [],
            "name": "BONE",
            "outputs": [
                {
                    "internalType": "uint256",
                    "name": "",
                    "type": "uint256"
                }
            ],
            "stateMutability": "view",
            "type": "function"
        },
        {
            "inputs": [],
            "name": "BPOW_PRECISION",
            "outputs": [
                {
                    "internalType": "uint256",
                    "name": "",
                    "type": "uint256"
                }
            ],
            "stateMutability": "view",
            "type": "function"
        },
        {
            "inputs": [],
            "name": "EXIT_FEE",
            "outputs": [
                {
                    "internalType": "uint256",
                    "name": "",
                    "type": "uint256"
                }
            ],
            "stateMutability": "view",
            "type": "function"
        },
        {
            "inputs": [],
            "name": "INIT_POOL_SUPPLY",
            "outputs": [
                {
                    "internalType": "uint256",
                    "name": "",
                    "type": "uint256"
                }
            ],
            "stateMutability": "view",
            "type": "function"
        },
        {
            "inputs": [],
            "name": "MAX_BOUND_TOKENS",
            "outputs": [
                {
                    "internalType": "uint256",
                    "name": "",
                    "type": "uint256"
                }
            ],
            "stateMutability": "view",
            "type": "function"
        },
        {
            "inputs": [],
            "name": "MAX_BPOW_BASE",
            "outputs": [
                {
                    "internalType": "uint256",
                    "name": "",
                    "type": "uint256"
                }
            ],
            "stateMutability": "view",
            "type": "function"
        },
        {
            "inputs": [],
            "name": "MAX_FEE",
            "outputs": [
                {
                    "internalType": "uint256",
                    "name": "",
                    "type": "uint256"
                }
            ],
            "stateMutability": "view",
            "type": "function"
        },
        {
            "inputs": [],
            "name": "MAX_IN_RATIO",
            "outputs": [
                {
                    "internalType": "uint256",
                    "name": "",
                    "type": "uint256"
                }
            ],
            "stateMutability": "view",
            "type": "function"
        },
        {
            "inputs": [],
            "name": "MAX_OUT_RATIO",
            "outputs": [
                {
                    "internalType": "uint256",
                    "name": "",
                    "type": "uint256"
                }
            ],
            "stateMutability": "view",
            "type": "function"
        },
        {
            "inputs": [],
            "name": "MAX_TOTAL_WEIGHT",
            "outputs": [
                {
                    "internalType": "uint256",
                    "name": "",
                    "type": "uint256"
                }
            ],
            "stateMutability": "view",
            "type": "function"
        },
        {
            "inputs": [],
            "name": "MAX_WEIGHT",
            "outputs": [
                {
                    "internalType": "uint256",
                    "name": "",
                    "type": "uint256"
                }
            ],
            "stateMutability": "view",
            "type": "function"
        },
        {
            "inputs": [],
            "name": "MIN_BALANCE",
            "outputs": [
                {
                    "internalType": "uint256",
                    "name": "",
                    "type": "uint256"
                }
            ],
            "stateMutability": "view",
            "type": "function"
        },
        {
            "inputs": [],
            "name": "MIN_BOUND_TOKENS",
            "outputs": [
                {
                    "internalType": "uint256",
                    "name": "",
                    "type": "uint256"
                }
            ],
            "stateMutability": "view",
            "type": "function"
        },
        {
            "inputs": [],
            "name": "MIN_BPOW_BASE",
            "outputs": [
                {
                    "internalType": "uint256",
                    "name": "",
                    "type": "uint256"
                }
            ],
            "stateMutability": "view",
            "type": "function"
        },
        {
            "inputs": [],
            "name": "MIN_FEE",
            "outputs": [
                {
                    "internalType": "uint256",
                    "name": "",
                    "type": "uint256"
                }
            ],
            "stateMutability": "view",
            "type": "function"
        },
        {
            "inputs": [],
            "name": "MIN_WEIGHT",
            "outputs": [
                {
                    "internalType": "uint256",
                    "name": "",
                    "type": "uint256"
                }
            ],
            "stateMutability": "view",
            "type": "function"
        },
        {
            "inputs": [
                {
                    "internalType": "address",
                    "name": "src",
                    "type": "address"
                },
                {
                    "internalType": "address",
                    "name": "dst",
                    "type": "address"
                }
            ],
            "name": "allowance",
            "outputs": [
                {
                    "internalType": "uint256",
                    "name": "",
                    "type": "uint256"
                }
            ],
            "stateMutability": "view",
            "type": "function"
        },
        {
            "inputs": [
                {
                    "internalType": "address",
                    "name": "dst",
                    "type": "address"
                },
                {
                    "internalType": "uint256",
                    "name": "amt",
                    "type": "uint256"
                }
            ],
            "name": "approve",
            "outputs": [
                {
                    "internalType": "bool",
                    "name": "",
                    "type": "bool"
                }
            ],
            "stateMutability": "nonpayable",
            "type": "function"
        },
        {
            "inputs": [
                {
                    "internalType": "address",
                    "name": "whom",
                    "type": "address"
                }
            ],
            "name": "balanceOf",
            "outputs": [
                {
                    "internalType": "uint256",
                    "name": "",
                    "type": "uint256"
                }
            ],
            "stateMutability": "view",
            "type": "function"
        },
        {
            "inputs": [],
            "name": "decimals",
            "outputs": [
                {
                    "internalType": "uint8",
                    "name": "",
                    "type": "uint8"
                }
            ],
            "stateMutability": "view",
            "type": "function"
        },
        {
            "inputs": [
                {
                    "internalType": "address",
                    "name": "dst",
                    "type": "address"
                },
                {
                    "internalType": "uint256",
                    "name": "amt",
                    "type": "uint256"
                }
            ],
            "name": "decreaseApproval",
            "outputs": [
                {
                    "internalType": "bool",
                    "name": "",
                    "type": "bool"
                }
            ],
            "stateMutability": "nonpayable",
            "type": "function"
        },
        {
            "inputs": [],
            "name": "getColor",
            "outputs": [
                {
                    "internalType": "bytes32",
                    "name": "",
                    "type": "bytes32"
                }
            ],
            "stateMutability": "view",
            "type": "function"
        },
        {
            "inputs": [
                {
                    "internalType": "address",
                    "name": "dst",
                    "type": "address"
                },
                {
                    "internalType": "uint256",
                    "name": "amt",
                    "type": "uint256"
                }
            ],
            "name": "increaseApproval",
            "outputs": [
                {
                    "internalType": "bool",
                    "name": "",
                    "type": "bool"
                }
            ],
            "stateMutability": "nonpayable",
            "type": "function"
        },
        {
            "inputs": [],
            "name": "name",
            "outputs": [
                {
                    "internalType": "string",
                    "name": "",
                    "type": "string"
                }
            ],
            "stateMutability": "view",
            "type": "function"
        },
        {
            "inputs": [],
            "name": "symbol",
            "outputs": [
                {
                    "internalType": "string",
                    "name": "",
                    "type": "string"
                }
            ],
            "stateMutability": "view",
            "type": "function"
        },
        {
            "inputs": [],
            "name": "totalSupply",
            "outputs": [
                {
                    "internalType": "uint256",
                    "name": "",
                    "type": "uint256"
                }
            ],
            "stateMutability": "view",
            "type": "function"
        },
        {
            "inputs": [
                {
                    "internalType": "address",
                    "name": "dst",
                    "type": "address"
                },
                {
                    "internalType": "uint256",
                    "name": "amt",
                    "type": "uint256"
                }
            ],
            "name": "transfer",
            "outputs": [
                {
                    "internalType": "bool",
                    "name": "",
                    "type": "bool"
                }
            ],
            "stateMutability": "nonpayable",
            "type": "function"
        },
        {
            "inputs": [
                {
                    "internalType": "address",
                    "name": "src",
                    "type": "address"
                },
                {
                    "internalType": "address",
                    "name": "dst",
                    "type": "address"
                },
                {
                    "internalType": "uint256",
                    "name": "amt",
                    "type": "uint256"
                }
            ],
            "name": "transferFrom",
            "outputs": [
                {
                    "internalType": "bool",
                    "name": "",
                    "type": "bool"
                }
            ],
            "stateMutability": "nonpayable",
            "type": "function"
        }
    ],
    "bytecode": "60c0604052601360809081527f42616c616e63657220506f6f6c20546f6b656e0000000000000000000000000060a05260039061003c908261011b565b5060408051808201909152600381526210941560ea1b6020820152600490610064908261011b565b506005805460ff1916601217905534801561007d575f80fd5b506101da565b634e487b7160e01b5f52604160045260245ffd5b600181811c908216806100ab57607f821691505b6020821081036100c957634e487b7160e01b5f52602260045260245ffd5b50919050565b601f82111561011657805f5260205f20601f840160051c810160208510156100f45750805b601f840160051c820191505b81811015610113575f8155600101610100565b50505b505050565b81516001600160401b0381111561013457610134610083565b610148816101428454610097565b846100cf565b602080601f83116001811461017b575f84156101645750858301515b5f19600386901b1c1916600185901b1785556101d2565b5f85815260208120601f198616915b828110156101a95788860151825594840194600190910190840161018a565b50858210156101c657878501515f19600388901b60f8161c191681555b505060018460011b0185555b505050505050565b610bba806101e75f395ff3fe608060405234801561000f575f80fd5b50600436106101bb575f3560e01c8063992e2a92116100f3578063bc694ea211610093578063d73dd6231161006e578063d73dd62314610311578063dd62ed3e14610324578063e4a28a5214610200578063ec0930211461035c575f80fd5b8063bc694ea214610302578063c36596a614610226578063c6580d121461030a575f80fd5b8063b0e0d136116100ce578063b0e0d136146102e2578063b7b800a4146102ea578063ba019dab146102f2578063bc063e1a146102fa575f80fd5b8063992e2a92146102b85780639a86139b146102c0578063a9059cbb146102cf575f80fd5b8063313ce5671161015e57806376c7a3c71161013957806376c7a3c714610298578063867378c5146102a05780639381cd2b146102a857806395d89b41146102b0575f80fd5b8063313ce56714610248578063661884631461025d57806370a0823114610270575f80fd5b806318160ddd1161019957806318160ddd14610216578063189d00ca1461021e578063218b53821461022657806323b872dd14610235575f80fd5b806306fdde03146101bf578063095ea7b3146101dd57806309a3bbe414610200575b5f80fd5b6101c7610364565b6040516101d491906109c1565b60405180910390f35b6101f06101eb366004610a11565b6103f4565b60405190151581526020016101d4565b61020861044d565b6040519081526020016101d4565b600254610208565b610208610463565b610208670de0b6b3a764000081565b6101f0610243366004610a39565b61047a565b60055460405160ff90911681526020016101d4565b6101f061026b366004610a11565b6105cc565b61020861027e366004610a72565b6001600160a01b03165f9081526020819052604090205490565b61020861069d565b6102086106b2565b6102086106c9565b6101c76106dc565b6102086106eb565b6542524f4e5a4560d01b610208565b6101f06102dd366004610a11565b610709565b610208600881565b610208600281565b610208600181565b61020861071e565b610208610731565b6102085f81565b6101f061031f366004610a11565b610750565b610208610332366004610a8b565b6001600160a01b039182165f90815260016020908152604080832093909416825291909152205490565b6102086107c0565b60606003805461037390610abc565b80601f016020809104026020016040519081016040528092919081815260200182805461039f90610abc565b80156103ea5780601f106103c1576101008083540402835291602001916103ea565b820191905f5260205f20905b8154815290600101906020018083116103cd57829003601f168201915b5050505050905090565b335f8181526001602090815260408083206001600160a01b038716808552925280832085905551919290915f80516020610b658339815191529061043b9086815260200190565b60405180910390a35060015b92915050565b610460670de0b6b3a76400006032610b08565b81565b6104606402540be400670de0b6b3a7640000610b1f565b5f336001600160a01b03851614806104b457506001600160a01b0384165f9081526001602090815260408083203384529091529020548211155b6104fd5760405162461bcd60e51b815260206004820152601560248201527422a9292fa12a27a5a2a72fa120a22fa1a0a62622a960591b60448201526064015b60405180910390fd5b6105088484846107d3565b336001600160a01b0385161480159061054457506001600160a01b0384165f9081526001602090815260408083203384529091529020545f1914155b156105c2576001600160a01b0384165f90815260016020908152604080832033845290915290205461057690836108d9565b6001600160a01b038581165f9081526001602090815260408083203380855290835292819020859055519384529186169290915f80516020610b65833981519152910160405180910390a35b5060019392505050565b335f9081526001602090815260408083206001600160a01b03861684529091528120548083111561061f57335f9081526001602090815260408083206001600160a01b038816845290915281205561064d565b61062981846108d9565b335f9081526001602090815260408083206001600160a01b03891684529091529020555b335f8181526001602090815260408083206001600160a01b038916808552908352928190205490519081529192915f80516020610b65833981519152910160405180910390a35060019392505050565b610460620f4240670de0b6b3a7640000610b1f565b61046064e8d4a51000670de0b6b3a7640000610b1f565b610460670de0b6b3a76400006064610b08565b60606004805461037390610abc565b6106fe6003670de0b6b3a7640000610b1f565b610460906001610b3e565b5f6107153384846107d3565b50600192915050565b610460600a670de0b6b3a7640000610b1f565b6001610746670de0b6b3a76400006002610b08565b6104609190610b51565b335f9081526001602090815260408083206001600160a01b038616845290915281205461077d9083610934565b335f8181526001602090815260408083206001600160a01b038916808552908352928190208590555193845290925f80516020610b65833981519152910161043b565b6104606002670de0b6b3a7640000610b1f565b6001600160a01b0383165f908152602081905260409020548111156108315760405162461bcd60e51b815260206004820152601460248201527311549497d25394d551919250d251539517d0905360621b60448201526064016104f4565b6001600160a01b0383165f9081526020819052604090205461085390826108d9565b6001600160a01b038085165f9081526020819052604080822093909355908416815220546108819082610934565b6001600160a01b038381165f818152602081815260409182902094909455518481529092918616917fddf252ad1be2c89b69c2b068fc378daa952ba7f163c4a11628f55a4df523b3ef910160405180910390a3505050565b5f805f6108e6858561098c565b91509150801561092c5760405162461bcd60e51b81526020600482015260116024820152704552525f5355425f554e444552464c4f5760781b60448201526064016104f4565b509392505050565b5f806109408385610b3e565b9050838110156109855760405162461bcd60e51b815260206004820152601060248201526f4552525f4144445f4f564552464c4f5760801b60448201526064016104f4565b9392505050565b5f808284106109a95761099f8385610b51565b5f915091506109ba565b6109b38484610b51565b6001915091505b9250929050565b602081525f82518060208401528060208501604085015e5f604082850101526040601f19601f83011684010191505092915050565b80356001600160a01b0381168114610a0c575f80fd5b919050565b5f8060408385031215610a22575f80fd5b610a2b836109f6565b946020939093013593505050565b5f805f60608486031215610a4b575f80fd5b610a54846109f6565b9250610a62602085016109f6565b9150604084013590509250925092565b5f60208284031215610a82575f80fd5b610985826109f6565b5f8060408385031215610a9c575f80fd5b610aa5836109f6565b9150610ab3602084016109f6565b90509250929050565b600181811c90821680610ad057607f821691505b602082108103610aee57634e487b7160e01b5f52602260045260245ffd5b50919050565b634e487b7160e01b5f52601160045260245ffd5b808202811582820484141761044757610447610af4565b5f82610b3957634e487b7160e01b5f52601260045260245ffd5b500490565b8082018082111561044757610447610af4565b8181038181111561044757610447610af456fe8c5be1e5ebec7d5bd14f71427d1e84f3dd0314c0f7b2291e5b200ac8c7c3b925a2646970667358221220df0c5deaea7316cbb02e55a56670a62452647cbbc2fa728653309838323fbffc64736f6c63430008190033",
    "sourcePath": "c:/Users/Utente/Source/repos/baluni-contracts/contracts/balancer/BToken.sol",
    "compiler": {
        "name": "solc",
        "version": "0.8.25+commit.b61c2a91"
    },
    "functionHashes": {
        "BONE()": "c36596a6",
        "BPOW_PRECISION()": "189d00ca",
        "EXIT_FEE()": "c6580d12",
        "INIT_POOL_SUPPLY()": "9381cd2b",
        "MAX_BOUND_TOKENS()": "b0e0d136",
        "MAX_BPOW_BASE()": "bc694ea2",
        "MAX_FEE()": "bc063e1a",
        "MAX_IN_RATIO()": "ec093021",
        "MAX_OUT_RATIO()": "992e2a92",
        "MAX_TOTAL_WEIGHT()": "09a3bbe4",
        "MAX_WEIGHT()": "e4a28a52",
        "MIN_BALANCE()": "867378c5",
        "MIN_BOUND_TOKENS()": "b7b800a4",
        "MIN_BPOW_BASE()": "ba019dab",
        "MIN_FEE()": "76c7a3c7",
        "MIN_WEIGHT()": "218b5382",
        "allowance(address,address)": "dd62ed3e",
        "approve(address,uint256)": "095ea7b3",
        "balanceOf(address)": "70a08231",
        "decimals()": "313ce567",
        "decreaseApproval(address,uint256)": "66188463",
        "getColor()": "9a86139b",
        "increaseApproval(address,uint256)": "d73dd623",
        "name()": "06fdde03",
        "symbol()": "95d89b41",
        "totalSupply()": "18160ddd",
        "transfer(address,uint256)": "a9059cbb",
        "transferFrom(address,address,uint256)": "23b872dd"
    },
    "gasEstimates": {
        "creation": {
            "codeDepositCost": "600400",
            "executionCost": "infinite",
            "totalCost": "infinite"
        },
        "external": {
            "BONE()": "261",
            "BPOW_PRECISION()": "330",
            "EXIT_FEE()": "282",
            "INIT_POOL_SUPPLY()": "383",
            "MAX_BOUND_TOKENS()": "239",
            "MAX_BPOW_BASE()": "infinite",
            "MAX_FEE()": "373",
            "MAX_IN_RATIO()": "372",
            "MAX_OUT_RATIO()": "383",
            "MAX_TOTAL_WEIGHT()": "385",
            "MAX_WEIGHT()": "382",
            "MIN_BALANCE()": "329",
            "MIN_BOUND_TOKENS()": "261",
            "MIN_BPOW_BASE()": "283",
            "MIN_FEE()": "307",
            "MIN_WEIGHT()": "284",
            "allowance(address,address)": "infinite",
            "approve(address,uint256)": "infinite",
            "balanceOf(address)": "2627",
            "decimals()": "2334",
            "decreaseApproval(address,uint256)": "infinite",
            "getColor()": "265",
            "increaseApproval(address,uint256)": "infinite",
            "name()": "infinite",
            "symbol()": "infinite",
            "totalSupply()": "2337",
            "transfer(address,uint256)": "5174",
            "transferFrom(address,address,uint256)": "infinite"
        }
    }
}