{
    "contractName": "PoolManager",
    "abi": [
        {
            "inputs": [
                {
                    "internalType": "address",
                    "name": "_factory",
                    "type": "address"
                }
            ],
            "stateMutability": "nonpayable",
            "type": "constructor"
        },
        {
            "anonymous": false,
            "inputs": [
                {
                    "indexed": false,
                    "internalType": "address",
                    "name": "bpoolAddress",
                    "type": "address"
                }
            ],
            "name": "PoolCreated",
            "type": "event"
        },
        {
            "anonymous": false,
            "inputs": [
                {
                    "indexed": false,
                    "internalType": "address",
                    "name": "token",
                    "type": "address"
                },
                {
                    "indexed": false,
                    "internalType": "address",
                    "name": "currentPoolAddress",
                    "type": "address"
                },
                {
                    "indexed": false,
                    "internalType": "uint256",
                    "name": "balance",
                    "type": "uint256"
                }
            ],
            "name": "TokenApproved",
            "type": "event"
        },
        {
            "anonymous": false,
            "inputs": [
                {
                    "indexed": false,
                    "internalType": "address",
                    "name": "currentPool",
                    "type": "address"
                },
                {
                    "indexed": false,
                    "internalType": "address",
                    "name": "token",
                    "type": "address"
                },
                {
                    "indexed": false,
                    "internalType": "uint256",
                    "name": "balance",
                    "type": "uint256"
                },
                {
                    "indexed": false,
                    "internalType": "uint256",
                    "name": "denorm",
                    "type": "uint256"
                }
            ],
            "name": "TokenBound",
            "type": "event"
        },
        {
            "anonymous": false,
            "inputs": [
                {
                    "indexed": false,
                    "internalType": "address",
                    "name": "currentPool",
                    "type": "address"
                },
                {
                    "indexed": false,
                    "internalType": "address",
                    "name": "token",
                    "type": "address"
                },
                {
                    "indexed": false,
                    "internalType": "uint256",
                    "name": "balance",
                    "type": "uint256"
                },
                {
                    "indexed": false,
                    "internalType": "uint256",
                    "name": "denorm",
                    "type": "uint256"
                }
            ],
            "name": "TokenRebound",
            "type": "event"
        },
        {
            "anonymous": false,
            "inputs": [
                {
                    "indexed": false,
                    "internalType": "address",
                    "name": "currentPool",
                    "type": "address"
                },
                {
                    "indexed": false,
                    "internalType": "address",
                    "name": "token",
                    "type": "address"
                }
            ],
            "name": "TokenUnbound",
            "type": "event"
        },
        {
            "inputs": [
                {
                    "internalType": "address",
                    "name": "_token",
                    "type": "address"
                },
                {
                    "internalType": "address",
                    "name": "_currentPoolAddress",
                    "type": "address"
                },
                {
                    "internalType": "uint256",
                    "name": "_balance",
                    "type": "uint256"
                }
            ],
            "name": "approveToken",
            "outputs": [],
            "stateMutability": "nonpayable",
            "type": "function"
        },
        {
            "inputs": [
                {
                    "internalType": "address",
                    "name": "_currentPoolAddress",
                    "type": "address"
                },
                {
                    "internalType": "address",
                    "name": "_token",
                    "type": "address"
                },
                {
                    "internalType": "uint256",
                    "name": "_balance",
                    "type": "uint256"
                },
                {
                    "internalType": "uint256",
                    "name": "_denorm",
                    "type": "uint256"
                }
            ],
            "name": "bindToken",
            "outputs": [],
            "stateMutability": "nonpayable",
            "type": "function"
        },
        {
            "inputs": [
                {
                    "internalType": "address",
                    "name": "_currentPoolAddress",
                    "type": "address"
                },
                {
                    "internalType": "address",
                    "name": "_token",
                    "type": "address"
                }
            ],
            "name": "checkToken",
            "outputs": [
                {
                    "internalType": "bool",
                    "name": "",
                    "type": "bool"
                }
            ],
            "stateMutability": "view",
            "type": "function"
        },
        {
            "inputs": [],
            "name": "createPool",
            "outputs": [
                {
                    "internalType": "contract BPool",
                    "name": "",
                    "type": "address"
                }
            ],
            "stateMutability": "nonpayable",
            "type": "function"
        },
        {
            "inputs": [
                {
                    "internalType": "address",
                    "name": "_currentPoolAddress",
                    "type": "address"
                }
            ],
            "name": "currentTokens",
            "outputs": [
                {
                    "internalType": "address[]",
                    "name": "",
                    "type": "address[]"
                }
            ],
            "stateMutability": "view",
            "type": "function"
        },
        {
            "inputs": [
                {
                    "internalType": "address",
                    "name": "_currentPoolAddress",
                    "type": "address"
                },
                {
                    "internalType": "address",
                    "name": "_token",
                    "type": "address"
                }
            ],
            "name": "denormalizedWeight",
            "outputs": [
                {
                    "internalType": "uint256",
                    "name": "",
                    "type": "uint256"
                }
            ],
            "stateMutability": "view",
            "type": "function"
        },
        {
            "inputs": [],
            "name": "factory",
            "outputs": [
                {
                    "internalType": "address",
                    "name": "",
                    "type": "address"
                }
            ],
            "stateMutability": "view",
            "type": "function"
        },
        {
            "inputs": [
                {
                    "internalType": "address",
                    "name": "_currentPoolAddress",
                    "type": "address"
                }
            ],
            "name": "isPublic",
            "outputs": [
                {
                    "internalType": "bool",
                    "name": "",
                    "type": "bool"
                }
            ],
            "stateMutability": "view",
            "type": "function"
        },
        {
            "inputs": [
                {
                    "internalType": "address",
                    "name": "_currentPoolAddress",
                    "type": "address"
                },
                {
                    "internalType": "address",
                    "name": "_token",
                    "type": "address"
                }
            ],
            "name": "normalizedWeight",
            "outputs": [
                {
                    "internalType": "uint256",
                    "name": "",
                    "type": "uint256"
                }
            ],
            "stateMutability": "view",
            "type": "function"
        },
        {
            "inputs": [],
            "name": "owner",
            "outputs": [
                {
                    "internalType": "address",
                    "name": "",
                    "type": "address"
                }
            ],
            "stateMutability": "view",
            "type": "function"
        },
        {
            "inputs": [
                {
                    "internalType": "address",
                    "name": "_currentPoolAddress",
                    "type": "address"
                },
                {
                    "internalType": "address",
                    "name": "_token",
                    "type": "address"
                },
                {
                    "internalType": "uint256",
                    "name": "_balance",
                    "type": "uint256"
                },
                {
                    "internalType": "uint256",
                    "name": "_denorm",
                    "type": "uint256"
                }
            ],
            "name": "rebindToken",
            "outputs": [],
            "stateMutability": "nonpayable",
            "type": "function"
        },
        {
            "inputs": [
                {
                    "internalType": "address",
                    "name": "_currentPoolAddress",
                    "type": "address"
                },
                {
                    "internalType": "uint256",
                    "name": "_fee",
                    "type": "uint256"
                }
            ],
            "name": "setFee",
            "outputs": [],
            "stateMutability": "nonpayable",
            "type": "function"
        },
        {
            "inputs": [
                {
                    "internalType": "address",
                    "name": "_currentPoolAddress",
                    "type": "address"
                },
                {
                    "internalType": "bool",
                    "name": "_public",
                    "type": "bool"
                }
            ],
            "name": "setPublic",
            "outputs": [],
            "stateMutability": "nonpayable",
            "type": "function"
        },
        {
            "inputs": [
                {
                    "internalType": "address",
                    "name": "_currentPoolAddress",
                    "type": "address"
                }
            ],
            "name": "swapFee",
            "outputs": [
                {
                    "internalType": "uint256",
                    "name": "",
                    "type": "uint256"
                }
            ],
            "stateMutability": "view",
            "type": "function"
        },
        {
            "inputs": [
                {
                    "internalType": "address",
                    "name": "_currentPoolAddress",
                    "type": "address"
                },
                {
                    "internalType": "address",
                    "name": "_token",
                    "type": "address"
                }
            ],
            "name": "tokenBalance",
            "outputs": [
                {
                    "internalType": "uint256",
                    "name": "",
                    "type": "uint256"
                }
            ],
            "stateMutability": "view",
            "type": "function"
        },
        {
            "inputs": [
                {
                    "internalType": "address",
                    "name": "_currentPoolAddress",
                    "type": "address"
                },
                {
                    "internalType": "address",
                    "name": "_token",
                    "type": "address"
                }
            ],
            "name": "unbindToken",
            "outputs": [],
            "stateMutability": "nonpayable",
            "type": "function"
        }
    ],
    "bytecode": "6080604052348015600e575f80fd5b50604051610e0f380380610e0f833981016040819052602b91605c565b5f8054336001600160a01b031991821617909155600180549091166001600160a01b03929092169190911790556087565b5f60208284031215606b575f80fd5b81516001600160a01b03811681146080575f80fd5b9392505050565b610d7b806100945f395ff3fe608060405234801561000f575f80fd5b50600436106100fb575f3560e01c8063b9d6a8a511610093578063da3e339711610063578063da3e339714610221578063e1fbf9ad14610234578063e55156b514610247578063feaef1771461025a575f80fd5b8063b9d6a8a5146101c8578063c43f363e146101db578063c45a0155146101fb578063d7c980ca1461020e575f80fd5b80638da5cb5b116100ce5780638da5cb5b1461016e5780639a06b11314610198578063a6ae80e2146101a0578063b8518d23146101b3575f80fd5b80631049334f146100ff5780634f054afe146101255780637367bac4146101385780637380726f1461015b575b5f80fd5b61011261010d366004610a51565b61026d565b6040519081526020015b60405180910390f35b610112610133366004610a51565b6102e2565b61014b610146366004610a88565b610314565b604051901515815260200161011c565b61014b610169366004610a51565b610380565b5f54610180906001600160a01b031681565b6040516001600160a01b03909116815260200161011c565b6101806103ec565b6101126101ae366004610a88565b6104d8565b6101c66101c1366004610ab0565b61053d565b005b6101c66101d6366004610adc565b6105c4565b6101ee6101e9366004610a88565b6106af565b60405161011c9190610b1f565b600154610180906001600160a01b031681565b6101c661021c366004610adc565b610717565b6101c661022f366004610b6b565b6107f7565b610112610242366004610a51565b6108e5565b6101c6610255366004610ba9565b610917565b6101c6610268366004610a51565b61096f565b60405163f8b2cb4f60e01b81526001600160a01b0382811660048301525f91849182169063f8b2cb4f906024015b602060405180830381865afa1580156102b6573d5f803e3d5ffd5b505050506040513d601f19601f820116820180604052508101906102da9190610bd3565b949350505050565b60405163f1b8a9b760e01b81526001600160a01b0382811660048301525f91849182169063f1b8a9b79060240161029b565b5f80829050806001600160a01b031663fde924f76040518163ffffffff1660e01b8152600401602060405180830381865afa158015610355573d5f803e3d5ffd5b505050506040513d601f19601f820116820180604052508101906103799190610bea565b9392505050565b604051630bcded8960e21b81526001600160a01b0382811660048301525f918491821690632f37b62490602401602060405180830381865afa1580156103c8573d5f803e3d5ffd5b505050506040513d601f19601f820116820180604052508101906102da9190610bea565b5f80546001600160a01b0316331461041f5760405162461bcd60e51b815260040161041690610c05565b60405180910390fd5b60015460408051633555b17760e21b815290516001600160a01b03909216915f91839163d556c5dc91600480820192602092909190829003018187875af115801561046c573d5f803e3d5ffd5b505050506040513d601f19601f820116820180604052508101906104909190610c46565b6040516001600160a01b038216815290915081907f83a48fbcfc991335314e74d0496aab6a1987e992ddc85dddbcc4d6dd6ef2e9fc9060200160405180910390a15091505090565b5f80829050806001600160a01b031663d4cadf686040518163ffffffff1660e01b8152600401602060405180830381865afa158015610519573d5f803e3d5ffd5b505050506040513d601f19601f820116820180604052508101906103799190610bd3565b5f546001600160a01b031633146105665760405162461bcd60e51b815260040161041690610c05565b6040516324dacaa960e11b8152811515600482015282906001600160a01b038216906349b59552906024015b5f604051808303815f87803b1580156105a9575f80fd5b505af11580156105bb573d5f803e3d5ffd5b50505050505050565b5f546001600160a01b031633146105ed5760405162461bcd60e51b815260040161041690610c05565b604051631feeed5160e11b81526001600160a01b0384811660048301526024820184905260448201839052859190821690633fdddaa2906064015f604051808303815f87803b15801561063e575f80fd5b505af1158015610650573d5f803e3d5ffd5b5050604080516001600160a01b03808a16825288166020820152908101869052606081018590527f9a99b71c4cf232ef1b26dafda743fa55ea29e8675f5fb3b087e4521d9d658929925060800190505b60405180910390a15050505050565b60605f829050806001600160a01b031663cc77828d6040518163ffffffff1660e01b81526004015f60405180830381865afa1580156106f0573d5f803e3d5ffd5b505050506040513d5f823e601f3d908101601f191682016040526103799190810190610c85565b5f546001600160a01b031633146107405760405162461bcd60e51b815260040161041690610c05565b604051631c9c3ca760e31b81526001600160a01b038481166004830152602482018490526044820183905285919082169063e4e1e538906064015f604051808303815f87803b158015610791575f80fd5b505af11580156107a3573d5f803e3d5ffd5b5050604080516001600160a01b03808a16825288166020820152908101869052606081018590527f194cdbdc6669374257b08c6948a71e61892de19c5d86896c9e7e26fc71c1ec6f925060800190506106a0565b5f546001600160a01b031633146108205760405162461bcd60e51b815260040161041690610c05565b60405163095ea7b360e01b81526001600160a01b0383811660048301526024820183905284919082169063095ea7b3906044016020604051808303815f875af115801561086f573d5f803e3d5ffd5b505050506040513d601f19601f820116820180604052508101906108939190610bea565b50604080516001600160a01b038087168252851660208201529081018390527fc532e6b60637d86dd3fe55f7548ed169de9c79cfdef610593bea3569f079bc659060600160405180910390a150505050565b604051634a46c67360e11b81526001600160a01b0382811660048301525f91849182169063948d8ce69060240161029b565b5f546001600160a01b031633146109405760405162461bcd60e51b815260040161041690610c05565b6040516334e1990760e01b81526004810182905282906001600160a01b038216906334e1990790602401610592565b5f546001600160a01b031633146109985760405162461bcd60e51b815260040161041690610c05565b60405163cf5e7bd360e01b81526001600160a01b03828116600483015283919082169063cf5e7bd3906024015f604051808303815f87803b1580156109db575f80fd5b505af11580156109ed573d5f803e3d5ffd5b5050604080516001600160a01b038088168252861660208201527f851fb1ea978289f547bc8cf664ad4d224d0dcd927c0fcb8a62d887aed42343c4935001905060405180910390a1505050565b6001600160a01b0381168114610a4e575f80fd5b50565b5f8060408385031215610a62575f80fd5b8235610a6d81610a3a565b91506020830135610a7d81610a3a565b809150509250929050565b5f60208284031215610a98575f80fd5b813561037981610a3a565b8015158114610a4e575f80fd5b5f8060408385031215610ac1575f80fd5b8235610acc81610a3a565b91506020830135610a7d81610aa3565b5f805f8060808587031215610aef575f80fd5b8435610afa81610a3a565b93506020850135610b0a81610a3a565b93969395505050506040820135916060013590565b602080825282518282018190525f9190848201906040850190845b81811015610b5f5783516001600160a01b031683529284019291840191600101610b3a565b50909695505050505050565b5f805f60608486031215610b7d575f80fd5b8335610b8881610a3a565b92506020840135610b9881610a3a565b929592945050506040919091013590565b5f8060408385031215610bba575f80fd5b8235610bc581610a3a565b946020939093013593505050565b5f60208284031215610be3575f80fd5b5051919050565b5f60208284031215610bfa575f80fd5b815161037981610aa3565b60208082526021908201527f4f6e6c79206f776e65722063616e2063616c6c20746869732066756e6374696f6040820152603760f91b606082015260800190565b5f60208284031215610c56575f80fd5b815161037981610a3a565b634e487b7160e01b5f52604160045260245ffd5b8051610c8081610a3a565b919050565b5f6020808385031215610c96575f80fd5b825167ffffffffffffffff80821115610cad575f80fd5b818501915085601f830112610cc0575f80fd5b815181811115610cd257610cd2610c61565b8060051b604051601f19603f83011681018181108582111715610cf757610cf7610c61565b604052918252848201925083810185019188831115610d14575f80fd5b938501935b82851015610d3957610d2a85610c75565b84529385019392850192610d19565b9897505050505050505056fea2646970667358221220da7276f022d3a48de5ff46ae16e83fd57715b292fc91c5ef6cb3133b71f63f1b64736f6c63430008190033",
    "sourcePath": "c:/Users/Utente/Source/repos/baluni-contracts/contracts/balancer/PoolManager.sol",
    "compiler": {
        "name": "solc",
        "version": "0.8.25+commit.b61c2a91"
    },
    "functionHashes": {
        "approveToken(address,address,uint256)": "da3e3397",
        "bindToken(address,address,uint256,uint256)": "d7c980ca",
        "checkToken(address,address)": "7380726f",
        "createPool()": "9a06b113",
        "currentTokens(address)": "c43f363e",
        "denormalizedWeight(address,address)": "e1fbf9ad",
        "factory()": "c45a0155",
        "isPublic(address)": "7367bac4",
        "normalizedWeight(address,address)": "4f054afe",
        "owner()": "8da5cb5b",
        "rebindToken(address,address,uint256,uint256)": "b9d6a8a5",
        "setFee(address,uint256)": "e55156b5",
        "setPublic(address,bool)": "b8518d23",
        "swapFee(address)": "a6ae80e2",
        "tokenBalance(address,address)": "1049334f",
        "unbindToken(address,address)": "feaef177"
    },
    "gasEstimates": {
        "creation": {
            "codeDepositCost": "690200",
            "executionCost": "infinite",
            "totalCost": "infinite"
        },
        "external": {
            "approveToken(address,address,uint256)": "infinite",
            "bindToken(address,address,uint256,uint256)": "infinite",
            "checkToken(address,address)": "infinite",
            "createPool()": "infinite",
            "currentTokens(address)": "infinite",
            "denormalizedWeight(address,address)": "infinite",
            "factory()": "2403",
            "isPublic(address)": "infinite",
            "normalizedWeight(address,address)": "infinite",
            "owner()": "2358",
            "rebindToken(address,address,uint256,uint256)": "infinite",
            "setFee(address,uint256)": "infinite",
            "setPublic(address,bool)": "infinite",
            "swapFee(address)": "infinite",
            "tokenBalance(address,address)": "infinite",
            "unbindToken(address,address)": "infinite"
        }
    }
}