{
  "_format": "hh-sol-artifact-1",
  "contractName": "BMath",
  "sourceName": "contracts/balancer/BMath.sol",
  "abi": [
    {
      "inputs": [],
      "name": "BONE",
      "outputs": [
        {
          "internalType": "uint256",
          "name": "",
          "type": "uint256"
        }
      ],
      "stateMutability": "view",
      "type": "function"
    },
    {
      "inputs": [],
      "name": "BPOW_PRECISION",
      "outputs": [
        {
          "internalType": "uint256",
          "name": "",
          "type": "uint256"
        }
      ],
      "stateMutability": "view",
      "type": "function"
    },
    {
      "inputs": [],
      "name": "EXIT_FEE",
      "outputs": [
        {
          "internalType": "uint256",
          "name": "",
          "type": "uint256"
        }
      ],
      "stateMutability": "view",
      "type": "function"
    },
    {
      "inputs": [],
      "name": "INIT_POOL_SUPPLY",
      "outputs": [
        {
          "internalType": "uint256",
          "name": "",
          "type": "uint256"
        }
      ],
      "stateMutability": "view",
      "type": "function"
    },
    {
      "inputs": [],
      "name": "MAX_BOUND_TOKENS",
      "outputs": [
        {
          "internalType": "uint256",
          "name": "",
          "type": "uint256"
        }
      ],
      "stateMutability": "view",
      "type": "function"
    },
    {
      "inputs": [],
      "name": "MAX_BPOW_BASE",
      "outputs": [
        {
          "internalType": "uint256",
          "name": "",
          "type": "uint256"
        }
      ],
      "stateMutability": "view",
      "type": "function"
    },
    {
      "inputs": [],
      "name": "MAX_FEE",
      "outputs": [
        {
          "internalType": "uint256",
          "name": "",
          "type": "uint256"
        }
      ],
      "stateMutability": "view",
      "type": "function"
    },
    {
      "inputs": [],
      "name": "MAX_IN_RATIO",
      "outputs": [
        {
          "internalType": "uint256",
          "name": "",
          "type": "uint256"
        }
      ],
      "stateMutability": "view",
      "type": "function"
    },
    {
      "inputs": [],
      "name": "MAX_OUT_RATIO",
      "outputs": [
        {
          "internalType": "uint256",
          "name": "",
          "type": "uint256"
        }
      ],
      "stateMutability": "view",
      "type": "function"
    },
    {
      "inputs": [],
      "name": "MAX_TOTAL_WEIGHT",
      "outputs": [
        {
          "internalType": "uint256",
          "name": "",
          "type": "uint256"
        }
      ],
      "stateMutability": "view",
      "type": "function"
    },
    {
      "inputs": [],
      "name": "MAX_WEIGHT",
      "outputs": [
        {
          "internalType": "uint256",
          "name": "",
          "type": "uint256"
        }
      ],
      "stateMutability": "view",
      "type": "function"
    },
    {
      "inputs": [],
      "name": "MIN_BALANCE",
      "outputs": [
        {
          "internalType": "uint256",
          "name": "",
          "type": "uint256"
        }
      ],
      "stateMutability": "view",
      "type": "function"
    },
    {
      "inputs": [],
      "name": "MIN_BOUND_TOKENS",
      "outputs": [
        {
          "internalType": "uint256",
          "name": "",
          "type": "uint256"
        }
      ],
      "stateMutability": "view",
      "type": "function"
    },
    {
      "inputs": [],
      "name": "MIN_BPOW_BASE",
      "outputs": [
        {
          "internalType": "uint256",
          "name": "",
          "type": "uint256"
        }
      ],
      "stateMutability": "view",
      "type": "function"
    },
    {
      "inputs": [],
      "name": "MIN_FEE",
      "outputs": [
        {
          "internalType": "uint256",
          "name": "",
          "type": "uint256"
        }
      ],
      "stateMutability": "view",
      "type": "function"
    },
    {
      "inputs": [],
      "name": "MIN_WEIGHT",
      "outputs": [
        {
          "internalType": "uint256",
          "name": "",
          "type": "uint256"
        }
      ],
      "stateMutability": "view",
      "type": "function"
    },
    {
      "inputs": [
        {
          "internalType": "uint256",
          "name": "tokenBalanceIn",
          "type": "uint256"
        },
        {
          "internalType": "uint256",
          "name": "tokenWeightIn",
          "type": "uint256"
        },
        {
          "internalType": "uint256",
          "name": "tokenBalanceOut",
          "type": "uint256"
        },
        {
          "internalType": "uint256",
          "name": "tokenWeightOut",
          "type": "uint256"
        },
        {
          "internalType": "uint256",
          "name": "tokenAmountOut",
          "type": "uint256"
        },
        {
          "internalType": "uint256",
          "name": "swapFee",
          "type": "uint256"
        }
      ],
      "name": "calcInGivenOut",
      "outputs": [
        {
          "internalType": "uint256",
          "name": "tokenAmountIn",
          "type": "uint256"
        }
      ],
      "stateMutability": "pure",
      "type": "function"
    },
    {
      "inputs": [
        {
          "internalType": "uint256",
          "name": "tokenBalanceIn",
          "type": "uint256"
        },
        {
          "internalType": "uint256",
          "name": "tokenWeightIn",
          "type": "uint256"
        },
        {
          "internalType": "uint256",
          "name": "tokenBalanceOut",
          "type": "uint256"
        },
        {
          "internalType": "uint256",
          "name": "tokenWeightOut",
          "type": "uint256"
        },
        {
          "internalType": "uint256",
          "name": "tokenAmountIn",
          "type": "uint256"
        },
        {
          "internalType": "uint256",
          "name": "swapFee",
          "type": "uint256"
        }
      ],
      "name": "calcOutGivenIn",
      "outputs": [
        {
          "internalType": "uint256",
          "name": "tokenAmountOut",
          "type": "uint256"
        }
      ],
      "stateMutability": "pure",
      "type": "function"
    },
    {
      "inputs": [
        {
          "internalType": "uint256",
          "name": "tokenBalanceOut",
          "type": "uint256"
        },
        {
          "internalType": "uint256",
          "name": "tokenWeightOut",
          "type": "uint256"
        },
        {
          "internalType": "uint256",
          "name": "poolSupply",
          "type": "uint256"
        },
        {
          "internalType": "uint256",
          "name": "totalWeight",
          "type": "uint256"
        },
        {
          "internalType": "uint256",
          "name": "tokenAmountOut",
          "type": "uint256"
        },
        {
          "internalType": "uint256",
          "name": "swapFee",
          "type": "uint256"
        }
      ],
      "name": "calcPoolInGivenSingleOut",
      "outputs": [
        {
          "internalType": "uint256",
          "name": "poolAmountIn",
          "type": "uint256"
        }
      ],
      "stateMutability": "pure",
      "type": "function"
    },
    {
      "inputs": [
        {
          "internalType": "uint256",
          "name": "tokenBalanceIn",
          "type": "uint256"
        },
        {
          "internalType": "uint256",
          "name": "tokenWeightIn",
          "type": "uint256"
        },
        {
          "internalType": "uint256",
          "name": "poolSupply",
          "type": "uint256"
        },
        {
          "internalType": "uint256",
          "name": "totalWeight",
          "type": "uint256"
        },
        {
          "internalType": "uint256",
          "name": "tokenAmountIn",
          "type": "uint256"
        },
        {
          "internalType": "uint256",
          "name": "swapFee",
          "type": "uint256"
        }
      ],
      "name": "calcPoolOutGivenSingleIn",
      "outputs": [
        {
          "internalType": "uint256",
          "name": "poolAmountOut",
          "type": "uint256"
        }
      ],
      "stateMutability": "pure",
      "type": "function"
    },
    {
      "inputs": [
        {
          "internalType": "uint256",
          "name": "tokenBalanceIn",
          "type": "uint256"
        },
        {
          "internalType": "uint256",
          "name": "tokenWeightIn",
          "type": "uint256"
        },
        {
          "internalType": "uint256",
          "name": "poolSupply",
          "type": "uint256"
        },
        {
          "internalType": "uint256",
          "name": "totalWeight",
          "type": "uint256"
        },
        {
          "internalType": "uint256",
          "name": "poolAmountOut",
          "type": "uint256"
        },
        {
          "internalType": "uint256",
          "name": "swapFee",
          "type": "uint256"
        }
      ],
      "name": "calcSingleInGivenPoolOut",
      "outputs": [
        {
          "internalType": "uint256",
          "name": "tokenAmountIn",
          "type": "uint256"
        }
      ],
      "stateMutability": "pure",
      "type": "function"
    },
    {
      "inputs": [
        {
          "internalType": "uint256",
          "name": "tokenBalanceOut",
          "type": "uint256"
        },
        {
          "internalType": "uint256",
          "name": "tokenWeightOut",
          "type": "uint256"
        },
        {
          "internalType": "uint256",
          "name": "poolSupply",
          "type": "uint256"
        },
        {
          "internalType": "uint256",
          "name": "totalWeight",
          "type": "uint256"
        },
        {
          "internalType": "uint256",
          "name": "poolAmountIn",
          "type": "uint256"
        },
        {
          "internalType": "uint256",
          "name": "swapFee",
          "type": "uint256"
        }
      ],
      "name": "calcSingleOutGivenPoolIn",
      "outputs": [
        {
          "internalType": "uint256",
          "name": "tokenAmountOut",
          "type": "uint256"
        }
      ],
      "stateMutability": "pure",
      "type": "function"
    },
    {
      "inputs": [
        {
          "internalType": "uint256",
          "name": "tokenBalanceIn",
          "type": "uint256"
        },
        {
          "internalType": "uint256",
          "name": "tokenWeightIn",
          "type": "uint256"
        },
        {
          "internalType": "uint256",
          "name": "tokenBalanceOut",
          "type": "uint256"
        },
        {
          "internalType": "uint256",
          "name": "tokenWeightOut",
          "type": "uint256"
        },
        {
          "internalType": "uint256",
          "name": "swapFee",
          "type": "uint256"
        }
      ],
      "name": "calcSpotPrice",
      "outputs": [
        {
          "internalType": "uint256",
          "name": "spotPrice",
          "type": "uint256"
        }
      ],
      "stateMutability": "pure",
      "type": "function"
    },
    {
      "inputs": [],
      "name": "getColor",
      "outputs": [
        {
          "internalType": "bytes32",
          "name": "",
          "type": "bytes32"
        }
      ],
      "stateMutability": "view",
      "type": "function"
    }
  ],
  "bytecode": "0x60808060405234601557610bc9908161001a8239f35b5f80fdfe604060808152600480361015610013575f80fd5b5f3560e01c90816309a3bbe4146105fb578163189d00ca146105dd578163218b5382146101cf5781635c1bbaf71461059657816376c7a3c71461057757816382f652ad146104c45781638656b65314610479578163867378c51461045c57816389298012146103685781639381cd2b14610345578163992e2a92146103235781639a86139b14610300578163a221ee49146102b757508063b0e0d1361461029c578063b7b800a414610281578063ba019dab14610266578063ba9530a614610218578063bc063e1a146101f6578063bc694ea2146101d4578063c36596a6146101cf578063c6580d12146101b5578063e4a28a52146101b0578063ec0930211461018e5763f8d6aed414610125575f80fd5b3461018a5760209061018361016261017e61016861017861017261016d61015b61014e3661065e565b99949b9293909591610760565b9382610af2565b90610760565b610812565b610ae9565b91610aa0565b92610a3d565b610760565b9051908152f35b5f80fd5b503461018a575f36600319011261018a57602090516706f05b59d3b200008152f35b6105fb565b503461018a575f36600319011261018a57602090515f8152f35b61063c565b503461018a575f36600319011261018a5760209051671bc16d674ec7ffff8152f35b503461018a575f36600319011261018a576020905167016345785d8a00008152f35b503461018a5760209061018361024f61025561026161025b6101686102556101626102423661065e565b989496929b919093610760565b96610aa0565b90610a3d565b826107c5565b610aa0565b503461018a575f36600319011261018a576020905160018152f35b503461018a575f36600319011261018a576020905160028152f35b503461018a575f36600319011261018a576020905160088152f35b823461018a5760a036600319011261018a576101836102ed6102df6020946024359035610760565b610162606435604435610760565b6102556102fb608435610aa0565b6106f1565b823461018a575f36600319011261018a57516542524f4e5a4560d01b8152602090f35b823461018a575f36600319011261018a57602090516704a03ce68d2155568152f35b823461018a575f36600319011261018a576020905168056bc75e2d631000008152f35b823461018a5761038461037a3661065e565b9591909293610760565b95670de0b6b3a7640000918281029080159080830485148217156104495790846103b6928215610435575b50506109fe565b6706f05b59d3b20000810191828211610422575061041c8561041660209a976104116104026102559961017e6102619a8a6101839f9b6104119b6103fb9110156109fe565b0482610af2565b61040b8b6106f1565b90610812565b610a3d565b90610af2565b94610aa0565b601190634e487b7160e01b5f525260245ffd5b6104419192508461061e565b14848b6103af565b601184634e487b7160e01b5f525260245ffd5b823461018a575f36600319011261018a5760209051620f42408152f35b823461018a576020906101836102616104bf6104b561041161025b61016861025561017e6104a63661065e565b989496929c918d9b9194610760565b9761041189610aa0565b610af2565b90503461018a576104f56102616104166104b56104116104ef61016861016261017e6104a63661065e565b82610af2565b91670de0b6b3a764000090818402938015908086048414821715610564579083610527928215610550575b50506106b2565b6706f05b59d3b2000084019283851161042257506105496020948410156106b2565b5191048152f35b61055c9192508761061e565b14835f610520565b601185634e487b7160e01b5f525260245ffd5b823461018a575f36600319011261018a576020905164e8d4a510008152f35b823461018a576020906101836105d661016261026161041161041161041c6104026104bf61017e6105c63661065e565b9a949793918896929e919e610760565b9c826107c5565b823461018a575f36600319011261018a57602090516305f5e1008152f35b3461018a575f36600319011261018a5760206040516802b5e3af16b18800008152f35b8115610628570490565b634e487b7160e01b5f52601260045260245ffd5b3461018a575f36600319011261018a576020604051670de0b6b3a76400008152f35b60c090600319011261018a57600435906024359060443590606435906084359060a43590565b9190820180921161069157565b634e487b7160e01b5f52601160045260245ffd5b9190820391821161069157565b156106b957565b60405162461bcd60e51b815260206004820152601060248201526f11549497d1125597d25395115493905360821b6044820152606490fd5b801561072c576ec097ce7bc90715b34b9f1000000000908060011c820180831161069157610724610729938210156106b2565b61061e565b90565b60405162461bcd60e51b815260206004820152600c60248201526b4552525f4449565f5a45524f60a01b6044820152606490fd5b90801561072c57670de0b6b3a764000091828102908015818304851481171561069157610729946107989282156107b15750506106b2565b6107246107a88360011c83610684565b918210156106b2565b6107bd9192508461061e565b145f80610520565b906107d09082610684565b9081106107da5790565b60405162461bcd60e51b815260206004820152601060248201526f4552525f4144445f4f564552464c4f5760801b6044820152606490fd5b91906001928381106109c157671bc16d674ec7ffff811161098357670de0b6b3a764000091828104908382029180830485149015171561069157610857828592610af2565b910491808684161561097d57815b93871c90815b61095057505081156109485761088390939193610afc565b82949183915f9289955b6305f5e1008210156108ac575b50505050505050610729929350610a3d565b909192939495978189029289840483148a151715610691578361017e6108e9926102556108e26108dc8b99610ae9565b8d610b6e565b9890610a3d565b9283156109415784610939575b610931575b8286156109225761090b91610af2565b975b5f198114610691578a0195949392919061088d565b61092b916107c5565b9761090d565b9415946108fb565b9515956108f6565b509761089a565b509093505050565b8061095a91610a3d565b9087811661096c575b871c908161086b565b938161097791610a3d565b93610963565b84610865565b60405162461bcd60e51b815260206004820152601660248201527508aa4a4be84a09eaebe8482a68abea89e9ebe90928e960531b6044820152606490fd5b60405162461bcd60e51b81526020600482015260156024820152744552525f42504f575f424153455f544f4f5f4c4f5760581b6044820152606490fd5b15610a0557565b60405162461bcd60e51b815260206004820152601060248201526f4552525f4d554c5f4f564552464c4f5760801b6044820152606490fd5b81810291811590828404811482171561069157610a61928215610a8c5750506109fe565b6706f05b59d3b20000810180821161069157610a88670de0b6b3a7640000928210156109fe565b0490565b610a989192508461061e565b145f806103af565b610aa990610b35565b610ab05790565b60405162461bcd60e51b81526020600482015260116024820152704552525f5355425f554e444552464c4f5760781b6044820152606490fd5b610aa990610afc565b90610aa991610b6e565b670de0b6b3a7640000808210610b255750670de0b6b3a763ffff19810190811161069157905f90565b9081039081116106915790600190565b670de0b6b3a764000090808210610b5457810390811161069157905f90565b670de0b6b3a763ffff198101915081116106915790600190565b818110610b845790610b7f916106a5565b905f90565b610b8d916106a5565b9060019056fea26469706673582212201bf0c51113e645e3eff4a3d111f52bfea0af04cc6d2b51d668a82644bf68aab764736f6c63430008190033",
  "linkReferences": {},
  "deployedLinkReferences": {}
}