{
  "_format": "hh-sol-artifact-1",
  "contractName": "MockToken",
  "sourceName": "contracts/mock/MockToken.sol",
  "abi": [
    {
      "inputs": [
        {
          "internalType": "string",
          "name": "name",
          "type": "string"
        },
        {
          "internalType": "string",
          "name": "symbol",
          "type": "string"
        },
        {
          "internalType": "uint8",
          "name": "decimals_",
          "type": "uint8"
        }
      ],
      "stateMutability": "nonpayable",
      "type": "constructor"
    },
    {
      "inputs": [
        {
          "internalType": "address",
          "name": "spender",
          "type": "address"
        },
        {
          "internalType": "uint256",
          "name": "allowance",
          "type": "uint256"
        },
        {
          "internalType": "uint256",
          "name": "needed",
          "type": "uint256"
        }
      ],
      "name": "ERC20InsufficientAllowance",
      "type": "error"
    },
    {
      "inputs": [
        {
          "internalType": "address",
          "name": "sender",
          "type": "address"
        },
        {
          "internalType": "uint256",
          "name": "balance",
          "type": "uint256"
        },
        {
          "internalType": "uint256",
          "name": "needed",
          "type": "uint256"
        }
      ],
      "name": "ERC20InsufficientBalance",
      "type": "error"
    },
    {
      "inputs": [
        {
          "internalType": "address",
          "name": "approver",
          "type": "address"
        }
      ],
      "name": "ERC20InvalidApprover",
      "type": "error"
    },
    {
      "inputs": [
        {
          "internalType": "address",
          "name": "receiver",
          "type": "address"
        }
      ],
      "name": "ERC20InvalidReceiver",
      "type": "error"
    },
    {
      "inputs": [
        {
          "internalType": "address",
          "name": "sender",
          "type": "address"
        }
      ],
      "name": "ERC20InvalidSender",
      "type": "error"
    },
    {
      "inputs": [
        {
          "internalType": "address",
          "name": "spender",
          "type": "address"
        }
      ],
      "name": "ERC20InvalidSpender",
      "type": "error"
    },
    {
      "anonymous": false,
      "inputs": [
        {
          "indexed": true,
          "internalType": "address",
          "name": "owner",
          "type": "address"
        },
        {
          "indexed": true,
          "internalType": "address",
          "name": "spender",
          "type": "address"
        },
        {
          "indexed": false,
          "internalType": "uint256",
          "name": "value",
          "type": "uint256"
        }
      ],
      "name": "Approval",
      "type": "event"
    },
    {
      "anonymous": false,
      "inputs": [
        {
          "indexed": true,
          "internalType": "address",
          "name": "from",
          "type": "address"
        },
        {
          "indexed": true,
          "internalType": "address",
          "name": "to",
          "type": "address"
        },
        {
          "indexed": false,
          "internalType": "uint256",
          "name": "value",
          "type": "uint256"
        }
      ],
      "name": "Transfer",
      "type": "event"
    },
    {
      "inputs": [
        {
          "internalType": "address",
          "name": "owner",
          "type": "address"
        },
        {
          "internalType": "address",
          "name": "spender",
          "type": "address"
        }
      ],
      "name": "allowance",
      "outputs": [
        {
          "internalType": "uint256",
          "name": "",
          "type": "uint256"
        }
      ],
      "stateMutability": "view",
      "type": "function"
    },
    {
      "inputs": [
        {
          "internalType": "address",
          "name": "spender",
          "type": "address"
        },
        {
          "internalType": "uint256",
          "name": "value",
          "type": "uint256"
        }
      ],
      "name": "approve",
      "outputs": [
        {
          "internalType": "bool",
          "name": "",
          "type": "bool"
        }
      ],
      "stateMutability": "nonpayable",
      "type": "function"
    },
    {
      "inputs": [
        {
          "internalType": "address",
          "name": "account",
          "type": "address"
        }
      ],
      "name": "balanceOf",
      "outputs": [
        {
          "internalType": "uint256",
          "name": "",
          "type": "uint256"
        }
      ],
      "stateMutability": "view",
      "type": "function"
    },
    {
      "inputs": [],
      "name": "decimals",
      "outputs": [
        {
          "internalType": "uint8",
          "name": "",
          "type": "uint8"
        }
      ],
      "stateMutability": "view",
      "type": "function"
    },
    {
      "inputs": [
        {
          "internalType": "address",
          "name": "to",
          "type": "address"
        },
        {
          "internalType": "uint256",
          "name": "amount",
          "type": "uint256"
        }
      ],
      "name": "mint",
      "outputs": [],
      "stateMutability": "nonpayable",
      "type": "function"
    },
    {
      "inputs": [],
      "name": "name",
      "outputs": [
        {
          "internalType": "string",
          "name": "",
          "type": "string"
        }
      ],
      "stateMutability": "view",
      "type": "function"
    },
    {
      "inputs": [],
      "name": "symbol",
      "outputs": [
        {
          "internalType": "string",
          "name": "",
          "type": "string"
        }
      ],
      "stateMutability": "view",
      "type": "function"
    },
    {
      "inputs": [],
      "name": "totalSupply",
      "outputs": [
        {
          "internalType": "uint256",
          "name": "",
          "type": "uint256"
        }
      ],
      "stateMutability": "view",
      "type": "function"
    },
    {
      "inputs": [
        {
          "internalType": "address",
          "name": "to",
          "type": "address"
        },
        {
          "internalType": "uint256",
          "name": "value",
          "type": "uint256"
        }
      ],
      "name": "transfer",
      "outputs": [
        {
          "internalType": "bool",
          "name": "",
          "type": "bool"
        }
      ],
      "stateMutability": "nonpayable",
      "type": "function"
    },
    {
      "inputs": [
        {
          "internalType": "address",
          "name": "from",
          "type": "address"
        },
        {
          "internalType": "address",
          "name": "to",
          "type": "address"
        },
        {
          "internalType": "uint256",
          "name": "value",
          "type": "uint256"
        }
      ],
      "name": "transferFrom",
      "outputs": [
        {
          "internalType": "bool",
          "name": "",
          "type": "bool"
        }
      ],
      "stateMutability": "nonpayable",
      "type": "function"
    }
  ],
  "bytecode": "0x608060405234801561000f575f80fd5b50604051610c63380380610c6383398101604081905261002e91610105565b8282600361003c8382610200565b5060046100498282610200565b50506005805460ff191660ff9390931692909217909155506102bf915050565b634e487b7160e01b5f52604160045260245ffd5b5f82601f83011261008c575f80fd5b81516001600160401b03808211156100a6576100a6610069565b604051601f8301601f19908116603f011681019082821181831017156100ce576100ce610069565b816040528381528660208588010111156100e6575f80fd5b8360208701602083015e5f602085830101528094505050505092915050565b5f805f60608486031215610117575f80fd5b83516001600160401b038082111561012d575f80fd5b6101398783880161007d565b9450602086015191508082111561014e575f80fd5b5061015b8682870161007d565b925050604084015160ff81168114610171575f80fd5b809150509250925092565b600181811c9082168061019057607f821691505b6020821081036101ae57634e487b7160e01b5f52602260045260245ffd5b50919050565b601f8211156101fb57805f5260205f20601f840160051c810160208510156101d95750805b601f840160051c820191505b818110156101f8575f81556001016101e5565b50505b505050565b81516001600160401b0381111561021957610219610069565b61022d81610227845461017c565b846101b4565b602080601f831160018114610260575f84156102495750858301515b5f19600386901b1c1916600185901b1785556102b7565b5f85815260208120601f198616915b8281101561028e5788860151825594840194600190910190840161026f565b50858210156102ab57878501515f19600388901b60f8161c191681555b505060018460011b0185555b505050505050565b610997806102cc5f395ff3fe608060405234801561000f575f80fd5b50600436106100b9575f3560e01c806340c10f191161007257806395d89b411161005857806395d89b4114610182578063a9059cbb1461018a578063dd62ed3e1461019d575f80fd5b806340c10f191461013857806370a082311461014d575f80fd5b806318160ddd116100a257806318160ddd146100fe57806323b872dd14610110578063313ce56714610123575f80fd5b806306fdde03146100bd578063095ea7b3146100db575b5f80fd5b6100c56101e2565b6040516100d291906107ab565b60405180910390f35b6100ee6100e9366004610826565b610272565b60405190151581526020016100d2565b6002545b6040519081526020016100d2565b6100ee61011e36600461084e565b61028b565b60055460405160ff90911681526020016100d2565b61014b610146366004610826565b6102ae565b005b61010261015b366004610887565b73ffffffffffffffffffffffffffffffffffffffff165f9081526020819052604090205490565b6100c56102bc565b6100ee610198366004610826565b6102cb565b6101026101ab3660046108a7565b73ffffffffffffffffffffffffffffffffffffffff9182165f90815260016020908152604080832093909416825291909152205490565b6060600380546101f1906108d8565b80601f016020809104026020016040519081016040528092919081815260200182805461021d906108d8565b80156102685780601f1061023f57610100808354040283529160200191610268565b820191905f5260205f20905b81548152906001019060200180831161024b57829003601f168201915b5050505050905090565b5f3361027f8185856102d8565b60019150505b92915050565b5f336102988582856102ea565b6102a38585856103bc565b506001949350505050565b6102b88282610465565b5050565b6060600480546101f1906108d8565b5f3361027f8185856103bc565b6102e583838360016104bf565b505050565b73ffffffffffffffffffffffffffffffffffffffff8381165f908152600160209081526040808320938616835292905220547fffffffffffffffffffffffffffffffffffffffffffffffffffffffffffffffff81146103b657818110156103a8576040517ffb8f41b200000000000000000000000000000000000000000000000000000000815273ffffffffffffffffffffffffffffffffffffffff8416600482015260248101829052604481018390526064015b60405180910390fd5b6103b684848484035f6104bf565b50505050565b73ffffffffffffffffffffffffffffffffffffffff831661040b576040517f96c6fd1e0000000000000000000000000000000000000000000000000000000081525f600482015260240161039f565b73ffffffffffffffffffffffffffffffffffffffff821661045a576040517fec442f050000000000000000000000000000000000000000000000000000000081525f600482015260240161039f565b6102e5838383610604565b73ffffffffffffffffffffffffffffffffffffffff82166104b4576040517fec442f050000000000000000000000000000000000000000000000000000000081525f600482015260240161039f565b6102b85f8383610604565b73ffffffffffffffffffffffffffffffffffffffff841661050e576040517fe602df050000000000000000000000000000000000000000000000000000000081525f600482015260240161039f565b73ffffffffffffffffffffffffffffffffffffffff831661055d576040517f94280d620000000000000000000000000000000000000000000000000000000081525f600482015260240161039f565b73ffffffffffffffffffffffffffffffffffffffff8085165f90815260016020908152604080832093871683529290522082905580156103b6578273ffffffffffffffffffffffffffffffffffffffff168473ffffffffffffffffffffffffffffffffffffffff167f8c5be1e5ebec7d5bd14f71427d1e84f3dd0314c0f7b2291e5b200ac8c7c3b925846040516105f691815260200190565b60405180910390a350505050565b73ffffffffffffffffffffffffffffffffffffffff831661063b578060025f8282546106309190610929565b909155506106eb9050565b73ffffffffffffffffffffffffffffffffffffffff83165f90815260208190526040902054818110156106c0576040517fe450d38c00000000000000000000000000000000000000000000000000000000815273ffffffffffffffffffffffffffffffffffffffff85166004820152602481018290526044810183905260640161039f565b73ffffffffffffffffffffffffffffffffffffffff84165f9081526020819052604090209082900390555b73ffffffffffffffffffffffffffffffffffffffff82166107145760028054829003905561073f565b73ffffffffffffffffffffffffffffffffffffffff82165f9081526020819052604090208054820190555b8173ffffffffffffffffffffffffffffffffffffffff168373ffffffffffffffffffffffffffffffffffffffff167fddf252ad1be2c89b69c2b068fc378daa952ba7f163c4a11628f55a4df523b3ef8360405161079e91815260200190565b60405180910390a3505050565b602081525f82518060208401528060208501604085015e5f6040828501015260407fffffffffffffffffffffffffffffffffffffffffffffffffffffffffffffffe0601f83011684010191505092915050565b803573ffffffffffffffffffffffffffffffffffffffff81168114610821575f80fd5b919050565b5f8060408385031215610837575f80fd5b610840836107fe565b946020939093013593505050565b5f805f60608486031215610860575f80fd5b610869846107fe565b9250610877602085016107fe565b9150604084013590509250925092565b5f60208284031215610897575f80fd5b6108a0826107fe565b9392505050565b5f80604083850312156108b8575f80fd5b6108c1836107fe565b91506108cf602084016107fe565b90509250929050565b600181811c908216806108ec57607f821691505b602082108103610923577f4e487b71000000000000000000000000000000000000000000000000000000005f52602260045260245ffd5b50919050565b80820180821115610285577f4e487b71000000000000000000000000000000000000000000000000000000005f52601160045260245ffdfea26469706673582212209a6463f2dd1c44a2e19e2a1545f7ba3e6fdfce3d4fb4ba0d3543aa14d77bc3ef64736f6c63430008190033",
  "linkReferences": {},
  "deployedLinkReferences": {}
}