{
  "_format": "hh-sol-artifact-1",
  "contractName": "BaluniV1YearnVaultRegistry",
  "sourceName": "contracts/registry/BaluniV1YearnVaultRegistry.sol",
  "abi": [
    {
      "inputs": [
        {
          "internalType": "address",
          "name": "target",
          "type": "address"
        }
      ],
      "name": "AddressEmptyCode",
      "type": "error"
    },
    {
      "inputs": [
        {
          "internalType": "address",
          "name": "implementation",
          "type": "address"
        }
      ],
      "name": "ERC1967InvalidImplementation",
      "type": "error"
    },
    {
      "inputs": [],
      "name": "ERC1967NonPayable",
      "type": "error"
    },
    {
      "inputs": [],
      "name": "FailedInnerCall",
      "type": "error"
    },
    {
      "inputs": [],
      "name": "InvalidInitialization",
      "type": "error"
    },
    {
      "inputs": [],
      "name": "NotInitializing",
      "type": "error"
    },
    {
      "inputs": [
        {
          "internalType": "address",
          "name": "owner",
          "type": "address"
        }
      ],
      "name": "OwnableInvalidOwner",
      "type": "error"
    },
    {
      "inputs": [
        {
          "internalType": "address",
          "name": "account",
          "type": "address"
        }
      ],
      "name": "OwnableUnauthorizedAccount",
      "type": "error"
    },
    {
      "inputs": [],
      "name": "UUPSUnauthorizedCallContext",
      "type": "error"
    },
    {
      "inputs": [
        {
          "internalType": "bytes32",
          "name": "slot",
          "type": "bytes32"
        }
      ],
      "name": "UUPSUnsupportedProxiableUUID",
      "type": "error"
    },
    {
      "anonymous": false,
      "inputs": [
        {
          "indexed": false,
          "internalType": "uint64",
          "name": "version",
          "type": "uint64"
        }
      ],
      "name": "Initialized",
      "type": "event"
    },
    {
      "anonymous": false,
      "inputs": [
        {
          "indexed": true,
          "internalType": "address",
          "name": "previousOwner",
          "type": "address"
        },
        {
          "indexed": true,
          "internalType": "address",
          "name": "newOwner",
          "type": "address"
        }
      ],
      "name": "OwnershipTransferred",
      "type": "event"
    },
    {
      "anonymous": false,
      "inputs": [
        {
          "indexed": true,
          "internalType": "address",
          "name": "implementation",
          "type": "address"
        }
      ],
      "name": "Upgraded",
      "type": "event"
    },
    {
      "anonymous": false,
      "inputs": [
        {
          "indexed": true,
          "internalType": "address",
          "name": "vault",
          "type": "address"
        },
        {
          "indexed": false,
          "internalType": "address[]",
          "name": "assets",
          "type": "address[]"
        }
      ],
      "name": "vaultCreated",
      "type": "event"
    },
    {
      "inputs": [],
      "name": "UPGRADE_INTERFACE_VERSION",
      "outputs": [
        {
          "internalType": "string",
          "name": "",
          "type": "string"
        }
      ],
      "stateMutability": "view",
      "type": "function"
    },
    {
      "inputs": [
        {
          "internalType": "address",
          "name": "vaultAddress",
          "type": "address"
        }
      ],
      "name": "addVault",
      "outputs": [],
      "stateMutability": "nonpayable",
      "type": "function"
    },
    {
      "inputs": [
        {
          "internalType": "uint256",
          "name": "",
          "type": "uint256"
        }
      ],
      "name": "allVaults",
      "outputs": [
        {
          "internalType": "address",
          "name": "",
          "type": "address"
        }
      ],
      "stateMutability": "view",
      "type": "function"
    },
    {
      "inputs": [],
      "name": "getAllVaults",
      "outputs": [
        {
          "internalType": "address[]",
          "name": "",
          "type": "address[]"
        }
      ],
      "stateMutability": "view",
      "type": "function"
    },
    {
      "inputs": [
        {
          "internalType": "address",
          "name": "vaultAddress",
          "type": "address"
        }
      ],
      "name": "getVaultAsset",
      "outputs": [
        {
          "internalType": "address[]",
          "name": "",
          "type": "address[]"
        }
      ],
      "stateMutability": "view",
      "type": "function"
    },
    {
      "inputs": [
        {
          "internalType": "address",
          "name": "",
          "type": "address"
        }
      ],
      "name": "getVaultType0",
      "outputs": [
        {
          "internalType": "address",
          "name": "",
          "type": "address"
        }
      ],
      "stateMutability": "view",
      "type": "function"
    },
    {
      "inputs": [
        {
          "internalType": "address",
          "name": "asset",
          "type": "address"
        }
      ],
      "name": "getVaultType0ByAsset",
      "outputs": [
        {
          "internalType": "address",
          "name": "",
          "type": "address"
        }
      ],
      "stateMutability": "view",
      "type": "function"
    },
    {
      "inputs": [
        {
          "internalType": "address",
          "name": "",
          "type": "address"
        },
        {
          "internalType": "address",
          "name": "",
          "type": "address"
        }
      ],
      "name": "getVaultType1",
      "outputs": [
        {
          "internalType": "address",
          "name": "",
          "type": "address"
        }
      ],
      "stateMutability": "view",
      "type": "function"
    },
    {
      "inputs": [
        {
          "internalType": "address",
          "name": "asset1",
          "type": "address"
        },
        {
          "internalType": "address",
          "name": "asset2",
          "type": "address"
        }
      ],
      "name": "getVaultType1ByAssets",
      "outputs": [
        {
          "internalType": "address",
          "name": "",
          "type": "address"
        }
      ],
      "stateMutability": "view",
      "type": "function"
    },
    {
      "inputs": [
        {
          "internalType": "address",
          "name": "token",
          "type": "address"
        }
      ],
      "name": "getVaultsByAsset",
      "outputs": [
        {
          "internalType": "address[]",
          "name": "",
          "type": "address[]"
        }
      ],
      "stateMutability": "view",
      "type": "function"
    },
    {
      "inputs": [],
      "name": "getVaultsCount",
      "outputs": [
        {
          "internalType": "uint256",
          "name": "",
          "type": "uint256"
        }
      ],
      "stateMutability": "view",
      "type": "function"
    },
    {
      "inputs": [
        {
          "internalType": "address",
          "name": "_register",
          "type": "address"
        }
      ],
      "name": "initialize",
      "outputs": [],
      "stateMutability": "nonpayable",
      "type": "function"
    },
    {
      "inputs": [],
      "name": "owner",
      "outputs": [
        {
          "internalType": "address",
          "name": "",
          "type": "address"
        }
      ],
      "stateMutability": "view",
      "type": "function"
    },
    {
      "inputs": [],
      "name": "proxiableUUID",
      "outputs": [
        {
          "internalType": "bytes32",
          "name": "",
          "type": "bytes32"
        }
      ],
      "stateMutability": "view",
      "type": "function"
    },
    {
      "inputs": [],
      "name": "registry",
      "outputs": [
        {
          "internalType": "contract IBaluniV1Registry",
          "name": "",
          "type": "address"
        }
      ],
      "stateMutability": "view",
      "type": "function"
    },
    {
      "inputs": [
        {
          "internalType": "address",
          "name": "_register",
          "type": "address"
        },
        {
          "internalType": "uint64",
          "name": "_version",
          "type": "uint64"
        }
      ],
      "name": "reinitialize",
      "outputs": [],
      "stateMutability": "nonpayable",
      "type": "function"
    },
    {
      "inputs": [
        {
          "internalType": "address",
          "name": "_vault",
          "type": "address"
        }
      ],
      "name": "removeVault",
      "outputs": [],
      "stateMutability": "nonpayable",
      "type": "function"
    },
    {
      "inputs": [],
      "name": "renounceOwnership",
      "outputs": [],
      "stateMutability": "nonpayable",
      "type": "function"
    },
    {
      "inputs": [
        {
          "internalType": "address",
          "name": "newOwner",
          "type": "address"
        }
      ],
      "name": "transferOwnership",
      "outputs": [],
      "stateMutability": "nonpayable",
      "type": "function"
    },
    {
      "inputs": [
        {
          "internalType": "address",
          "name": "newImplementation",
          "type": "address"
        },
        {
          "internalType": "bytes",
          "name": "data",
          "type": "bytes"
        }
      ],
      "name": "upgradeToAndCall",
      "outputs": [],
      "stateMutability": "payable",
      "type": "function"
    },
    {
      "inputs": [
        {
          "internalType": "address",
          "name": "_vault",
          "type": "address"
        }
      ],
      "name": "vaultExist",
      "outputs": [
        {
          "internalType": "bool",
          "name": "",
          "type": "bool"
        }
      ],
      "stateMutability": "view",
      "type": "function"
    }
  ],
  "bytecode": "0x60a060405234603957600e6047565b6014603d565b612a6f6100a4823960805181818161224e015281816122d301526124ce0152612a6f90f35b6043565b60405190565b5f80fd5b604d604f565b565b60556057565b565b605d6097565b565b60018060a01b031690565b90565b607c6078608092605f565b606a565b605f565b90565b608a90606d565b90565b6094906083565b90565b609e30608d565b60805256fe60806040526004361015610013575b610c6e565b61001d5f3561016c565b806302b3537d1461016757806310894052146101625780631f844a4c1461015d578063256b5a02146101585780634f1ef2861461015357806352d1902d1461014e578063592717af14610149578063715018a6146101445780637b1039991461013f5780638da5cb5b1461013a5780638f2248bc146101355780639094a91e1461013057806397331bf91461012b578063a14eb08514610126578063ad3cb1cc14610121578063b9b658db1461011c578063c4d66de814610117578063ca9d67c814610112578063ceb68c231461010d578063f2fde38b146101085763f76932270361000e57610c39565b610c06565b610bd3565b610b9e565b610b6b565b610b36565b610adf565b6109ad565b610941565b61090c565b610807565b610775565b610740565b610691565b61065b565b6105f9565b61059b565b61041f565b6103e5565b6102e5565b610211565b60e01c90565b60405190565b5f80fd5b5f80fd5b5f80fd5b73ffffffffffffffffffffffffffffffffffffffff1690565b6101a690610184565b90565b6101b28161019d565b036101b957565b5f80fd5b905035906101ca826101a9565b565b906020828203126101e5576101e2915f016101bd565b90565b61017c565b151590565b6101f8906101ea565b9052565b919061020f905f602085019401906101ef565b565b346102415761023d61022c6102273660046101cc565b610ca4565b610234610172565b918291826101fc565b0390f35b610178565b5190565b60209181520190565b60200190565b6102629061019d565b9052565b9061027381602093610259565b0190565b60200190565b9061029a61029461028d84610246565b809361024a565b92610253565b905f5b8181106102aa5750505090565b9091926102c36102bd6001928651610266565b94610277565b910191909161029d565b6102e29160208201915f81840391015261027d565b90565b34610315576103116103006102fb3660046101cc565b610e8d565b610308610172565b918291826102cd565b0390f35b610178565b90565b61033161032c61033692610184565b61031a565b610184565b90565b6103429061031d565b90565b61034e90610339565b90565b9061035b90610345565b5f5260205260405f2090565b1c90565b73ffffffffffffffffffffffffffffffffffffffff1690565b6103949060086103999302610367565b61036b565b90565b906103a79154610384565b90565b6103c0906103bb6002915f92610351565b61039c565b90565b6103cc9061019d565b9052565b91906103e3905f602085019401906103c3565b565b34610415576104116104006103fb3660046101cc565b6103aa565b610408610172565b918291826103d0565b0390f35b610178565b5f0190565b3461044d576104376104323660046101cc565b611436565b61043f610172565b806104498161041a565b0390f35b610178565b5f80fd5b5f80fd5b601f801991011690565b7f4e487b71000000000000000000000000000000000000000000000000000000005f52604160045260245ffd5b9061049b9061045a565b810190811067ffffffffffffffff8211176104b557604052565b610464565b906104cd6104c6610172565b9283610491565b565b67ffffffffffffffff81116104ed576104e960209161045a565b0190565b610464565b90825f939282370152565b9092919261051261050d826104cf565b6104ba565b9381855260208501908284011161052e5761052c926104f2565b565b610456565b9080601f830112156105515781602061054e933591016104fd565b90565b610452565b9190916040818403126105965761056f835f83016101bd565b92602082013567ffffffffffffffff81116105915761058e9201610533565b90565b610180565b61017c565b6105af6105a9366004610556565b9061146a565b6105b7610172565b806105c18161041a565b0390f35b5f9103126105cf57565b61017c565b90565b6105e0906105d4565b9052565b91906105f7905f602085019401906105d7565b565b34610629576106093660046105c5565b6106256106146114e5565b61061c610172565b918291826105e4565b0390f35b610178565b9190604083820312610656578061064a610653925f86016101bd565b936020016101bd565b90565b61017c565b3461068c5761068861067761067136600461062e565b90611522565b61067f610172565b918291826103d0565b0390f35b610178565b346106bf576106a13660046105c5565b6106a961156f565b6106b1610172565b806106bb8161041a565b0390f35b610178565b73ffffffffffffffffffffffffffffffffffffffff1690565b6106ed9060086106f29302610367565b6106c4565b90565b9061070091546106dd565b90565b61070f60015f906106f5565b90565b61071b90610339565b90565b61072790610712565b9052565b919061073e905f6020850194019061071e565b565b34610770576107503660046105c5565b61076c61075b610703565b610763610172565b9182918261072b565b0390f35b610178565b346107a5576107853660046105c5565b6107a1610790611579565b610798610172565b918291826103d0565b0390f35b610178565b67ffffffffffffffff1690565b6107c0816107aa565b036107c757565b5f80fd5b905035906107d8826107b7565b565b919060408382031261080257806107f66107ff925f86016101bd565b936020016107cb565b90565b61017c565b346108365761082061081a3660046107da565b9061180e565b610828610172565b806108328161041a565b0390f35b610178565b90565b6108478161083b565b0361084e57565b5f80fd5b9050359061085f8261083e565b565b9060208282031261087a57610877915f01610852565b90565b61017c565b7f4e487b71000000000000000000000000000000000000000000000000000000005f52603260045260245ffd5b5490565b5f5260205f2090565b6108c2816108ac565b8210156108dc576108d46001916108b0565b910201905f90565b61087f565b5f6108eb816108ac565b82101561090857610905916108ff916108b9565b9061039c565b90565b5f80fd5b3461093c57610938610927610922366004610861565b6108e1565b61092f610172565b918291826103d0565b0390f35b610178565b34610971576109513660046105c5565b61096d61095c6118c8565b610964610172565b918291826102cd565b0390f35b610178565b9061098090610345565b5f5260205260405f2090565b6109a56109aa926109a06003935f94610976565b610351565b61039c565b90565b346109de576109da6109c96109c336600461062e565b9061098c565b6109d1610172565b918291826103d0565b0390f35b610178565b67ffffffffffffffff8111610a01576109fd60209161045a565b0190565b610464565b90610a18610a13836109e3565b6104ba565b918252565b5f7f352e302e30000000000000000000000000000000000000000000000000000000910152565b610a4e6005610a06565b90610a5b60208301610a1d565b565b610a65610a44565b90565b610a70610a5d565b90565b610a7b610a68565b90565b5190565b60209181520190565b90825f9392825e0152565b610ab5610abe602093610ac393610aac81610a7e565b93848093610a82565b95869101610a8b565b61045a565b0190565b610adc9160208201915f818403910152610a96565b90565b34610b0f57610aef3660046105c5565b610b0b610afa610a73565b610b02610172565b91829182610ac7565b0390f35b610178565b610b1d9061083b565b9052565b9190610b34905f60208501940190610b14565b565b34610b6657610b463660046105c5565b610b62610b516118e1565b610b59610172565b91829182610b21565b0390f35b610178565b34610b9957610b83610b7e3660046101cc565b611b02565b610b8b610172565b80610b958161041a565b0390f35b610178565b34610bce57610bca610bb9610bb43660046101cc565b611b48565b610bc1610172565b918291826102cd565b0390f35b610178565b34610c0157610beb610be63660046101cc565b612109565b610bf3610172565b80610bfd8161041a565b0390f35b610178565b34610c3457610c1e610c193660046101cc565b612199565b610c26610172565b80610c308161041a565b0390f35b610178565b34610c6957610c65610c54610c4f3660046101cc565b6121a4565b610c5c610172565b918291826103d0565b0390f35b610178565b5f80fd5b5f90565b90565b610c8d610c88610c9292610c76565b61031a565b61083b565b90565b6001610ca1910161083b565b90565b610cac610c72565b50610cb65f610c79565b5b80610cd2610ccc610cc75f6108ac565b61083b565b9161083b565b1015610d1857610cec610ce65f83906108b9565b9061039c565b610cfe610cf88461019d565b9161019d565b14610d1157610d0c90610c95565b610cb7565b5050600190565b50505f90565b606090565b67ffffffffffffffff8111610d3b5760208091020190565b610464565b90610d52610d4d83610d23565b6104ba565b918252565b369037565b90610d81610d6983610d40565b92602080610d778693610d23565b9201910390610d57565b565b610d8c9061031d565b90565b610d9890610d83565b90565b610da490610339565b90565b60e01b90565b90505190610dba826101a9565b565b90602082820312610dd557610dd2915f01610dad565b90565b61017c565b610de2610172565b3d5f823e3d90fd5b90610df482610246565b811015610e05576020809102010190565b61087f565b90610e149061019d565b9052565b7f4e487b71000000000000000000000000000000000000000000000000000000005f52601160045260245ffd5b610e4e9061083b565b7fffffffffffffffffffffffffffffffffffffffffffffffffffffffffffffffff8114610e7b5760010190565b610e18565b610e8a905161019d565b90565b610e95610d1e565b50610ea7610ea25f6108ac565b610d5c565b91610eb15f610c79565b92610ebb5f610c79565b5b80610ed7610ed1610ecc5f6108ac565b61083b565b9161083b565b101561105c57610ef9610ef4610eee5f84906108b9565b9061039c565b610d8f565b610f1d6020610f0783610d9b565b63cdf456e190610f15610172565b938492610da7565b82528180610f2d6004820161041a565b03915afa908115611057575f91611029575b50610f52610f4c8761019d565b9161019d565b14610ff5575084610f73610f6d610f6885610246565b61083b565b9161083b565b14610f8657610f8190610c95565b610ebc565b509091505b610f9483610d5c565b91610f9e5f610c79565b5b80610fb2610fac8761083b565b9161083b565b1015610fee57610fe990610fe4610fd2610fcd868490610dea565b610e80565b610fdf8791849092610dea565b610e0a565b610c95565b610f9f565b5092505090565b61102393945061101e915061100c90959295610d9b565b6110198691849092610dea565b610e0a565b610e45565b91610f8b565b61104a915060203d8111611050575b6110428183610491565b810190610dbc565b5f610f3f565b503d611038565b610dda565b50909150610f8b565b611076906110716121c3565b61127e565b565b61108c61108761109192610c76565b61031a565b610184565b90565b61109d90611078565b90565b60207f756c745f41444452455353000000000000000000000000000000000000000000917f42616c756e6956315661756c74466163746f72793a20494e56414c49445f76615f8201520152565b6110fa602b604092610a82565b611103816110a0565b0190565b61111c9060208101905f8183039101526110ed565b90565b1561112657565b61112e610172565b7f08c379a00000000000000000000000000000000000000000000000000000000081528061115e60048201611107565b0390fd5b90565b5f5260205f2090565b5490565b61117b8161116e565b8210156111955761118d600191611165565b910201905f90565b61087f565b1b90565b919060086111cc9102916111c673ffffffffffffffffffffffffffffffffffffffff8461119a565b9261119a565b9181191691161790565b90565b91906111ef6111ea6111f793610345565b6111d6565b90835461119e565b9055565b908154916801000000000000000083101561122b578261122391600161122995018155611172565b906111d9565b565b610464565b5f1b90565b9061125473ffffffffffffffffffffffffffffffffffffffff91611230565b9181191691161790565b9061127361126e61127a92610345565b6111d6565b8254611235565b9055565b6112a38161129c6112966112915f611094565b61019d565b9161019d565b141561111f565b6112b66112af5f611162565b82906111fb565b6112e260206112cc6112c784610d8f565b610d9b565b63cdf456e1906112da610172565b938492610da7565b825281806112f26004820161041a565b03915afa908115611431575f91611403575b50611331602061131b61131685610d8f565b610d9b565b63fdf262b790611329610172565b938492610da7565b825281806113416004820161041a565b03915afa9081156113fe575f916113d0575b508061136f6113696113645f611094565b61019d565b9161019d565b145f1461138e575061138661138b92916002610351565b61125e565b5b565b906113c6906113c1846113b96113cb966113b46113ad60038790610976565b8890610351565b61125e565b936003610976565b610351565b61125e565b61138c565b6113f1915060203d81116113f7575b6113e98183610491565b810190610dbc565b5f611353565b503d6113df565b610dda565b611424915060203d811161142a575b61141c8183610491565b810190610dbc565b5f611304565b503d611412565b610dda565b61143f90611065565b565b906114539161144e61223d565b611455565b565b90611468916114638161230f565b61237f565b565b9061147491611441565b565b5f90565b61148b906114866124bd565b6114d9565b90565b90565b6114a56114a06114aa9261148e565b611230565b6105d4565b90565b6114d67f360894a13ba1a3210667c828492db98dca3e2076cc3735a920a3ca505d382bbc611491565b90565b506114e26114ad565b90565b6114f56114f0611476565b61147a565b90565b5f90565b5f1c90565b61150d611512916114fc565b61036b565b90565b61151f9054611501565b90565b6115479161153d611542926115356114f8565b506003610976565b610351565b611515565b90565b6115526121c3565b61155a61155c565b565b61156d6115685f611094565b61253b565b565b61157761154a565b565b6115816114f8565b506115945f61158e6125a7565b01611515565b90565b60401c90565b60ff1690565b6115af6115b491611597565b61159d565b90565b6115c190546115a3565b90565b67ffffffffffffffff1690565b6115dd6115e2916114fc565b6115c4565b90565b6115ef90546115d1565b90565b9061160567ffffffffffffffff91611230565b9181191691161790565b61162361161e611628926107aa565b61031a565b6107aa565b90565b90565b9061164361163e61164a9261160f565b61162b565b82546115f2565b9055565b60401b90565b9061166868ff00000000000000009161164e565b9181191691161790565b61167b906101ea565b90565b90565b9061169661169161169d92611672565b61167e565b8254611654565b9055565b6116aa906107aa565b9052565b91906116c1905f602085019401906116a1565b565b9080916116ce6125cb565b906116da5f83016115b7565b801561178b575b61174f576117149261170b916116f9865f860161162e565b61170660015f8601611681565b6117f7565b5f809101611681565b61174a7fc7f505b2f371ae2175ee4913f4499e1f2633a7b5936321eed1cdaeb6115181d291611741610172565b918291826116ae565b0390a1565b611757610172565b7ff92ee8a9000000000000000000000000000000000000000000000000000000008152806117876004820161041a565b0390fd5b506117975f83016115e5565b6117a96117a3866107aa565b916107aa565b10156116e1565b6117b99061031d565b90565b6117c5906117b0565b90565b6117d1906117b0565b90565b90565b906117ec6117e76117f3926117c8565b6117d4565b8254611235565b9055565b61180c9150611805906117bc565b60016117d7565b565b90611818916116c3565b565b60209181520190565b61182d9054611501565b90565b60010190565b9061185361184d611846846108ac565b809361181a565b926108b0565b905f5b8181106118635750505090565b90919261188361187d60019261187887611823565b610266565b94611830565b9101919091611856565b9061189791611836565b90565b906118ba6118b3926118aa610172565b9384809261188d565b0383610491565b565b6118c59061189a565b90565b6118d0610d1e565b506118da5f6118bc565b90565b5f90565b6118e96118dd565b506118f35f6108ac565b90565b61190a61190561190f92610c76565b61031a565b6107aa565b90565b90565b61192961192461192e92611912565b61031a565b6107aa565b90565b61193a90610339565b90565b61194690611915565b9052565b919061195d905f6020850194019061193d565b565b6119676125cb565b9061197c6119765f84016115b7565b156101ea565b906119885f84016115e5565b8061199b6119955f6118f6565b916107aa565b1480611ad5575b906119b66119b06001611915565b916107aa565b1480611aad575b6119c89091156101ea565b9081611a9c575b50611a60576119f8906119ed6119e56001611915565b5f860161162e565b82611a4e575b611adc565b611a00575b50565b611a0d905f809101611681565b6001611a457fc7f505b2f371ae2175ee4913f4499e1f2633a7b5936321eed1cdaeb6115181d291611a3c610172565b9182918261194a565b0390a15f6119fd565b611a5b60015f8601611681565b6119f3565b611a68610172565b7ff92ee8a900000000000000000000000000000000000000000000000000000000815280611a986004820161041a565b0390fd5b611aa79150156101ea565b5f6119cf565b506119c8611aba30611931565b3b611acd611ac75f610c79565b9161083b565b1490506119bd565b50826119a2565b611af9611b0091611aeb6125f9565b611af433612621565b6117bc565b60016117d7565b565b611b0b9061195f565b565b90565b611b24611b1f611b2992611b0d565b61031a565b61083b565b90565b611b40611b3b611b4592611912565b61031a565b61083b565b90565b611b50610d1e565b50611b90611b66611b616002611b10565b610d5c565b916020611b7a611b7583610d8f565b610d9b565b63cdf456e190611b88610172565b948592610da7565b82528180611ba06004820161041a565b03915afa918215611c9e57611be1602092611bdc611bfc95611be6945f91611c71575b50611bd788611bd15f610c79565b90610dea565b610e0a565b610d8f565b610d9b565b63fdf262b790611bf4610172565b938492610da7565b82528180611c0c6004820161041a565b03915afa8015611c6c57611c3b915f91611c3e575b50611c3683611c306001611b2c565b90610dea565b610e0a565b90565b611c5f915060203d8111611c65575b611c578183610491565b810190610dbc565b5f611c21565b503d611c4d565b610dda565b611c919150863d8111611c97575b611c898183610491565b810190610dbc565b5f611bc3565b503d611c7f565b610dda565b611cb490611caf6121c3565b611d4b565b565b611cc5611ccb9193929361083b565b9261083b565b8203918211611cd657565b610e18565b7f4e487b71000000000000000000000000000000000000000000000000000000005f52603160045260245ffd5b611d1a91611d146114f8565b916111d9565b565b611d258161116e565b8015611d46576001900390611d43611d3d8383611172565b90611d08565b55565b611cdb565b611d545f610c79565b5b80611d70611d6a611d655f6108ac565b61083b565b9161083b565b101561210257611d8a611d845f83906108b9565b9061039c565b611d9c611d968461019d565b9161019d565b14611daf57611daa90610c95565b611d55565b611df290611dec611de5611ddf5f611dd9611dc95f6108ac565b611dd36001611b2c565b90611cb6565b906108b9565b9061039c565b915f6108b9565b906111d9565b611dfb5f611094565b600290611e2a6020611e14611e0f86610d8f565b610d9b565b63cdf456e190611e22610172565b938492610da7565b82528180611e3a6004820161041a565b03915afa80156120fd57611e5e93611e59925f926120cd575b50610351565b61125e565b611e675f611094565b611e9560036020611e7f611e7a86610d8f565b610d9b565b63fdf262b790611e8d610172565b948592610da7565b82528180611ea56004820161041a565b03915afa9081156120c857611ec1925f92612098575b50610976565b90611eee6020611ed8611ed386610d8f565b610d9b565b63cdf456e190611ee6610172565b938492610da7565b82528180611efe6004820161041a565b03915afa801561209357611f2293611f1d925f92612063575b50610351565b61125e565b611f2b5f611094565b6003611f596020611f43611f3e86610d8f565b610d9b565b63cdf456e190611f51610172565b938492610da7565b82528180611f696004820161041a565b03915afa801561205e57611f97611f91611f9c92611fb2956020955f9261202f575b50610976565b95610d8f565b610d9b565b63fdf262b790611faa610172565b938492610da7565b82528180611fc26004820161041a565b03915afa801561202a57611fe693611fe1925f92611ffa575b50610351565b61125e565b611ff7611ff25f611162565b611d1c565b5b565b61201c91925060203d8111612023575b6120148183610491565b810190610dbc565b905f611fdb565b503d61200a565b610dda565b612050919250863d8111612057575b6120488183610491565b810190610dbc565b905f611f8b565b503d61203e565b610dda565b61208591925060203d811161208c575b61207d8183610491565b810190610dbc565b905f611f17565b503d612073565b610dda565b6120ba91925060203d81116120c1575b6120b28183610491565b810190610dbc565b905f611ebb565b503d6120a8565b610dda565b6120ef91925060203d81116120f6575b6120e78183610491565b810190610dbc565b905f611e53565b503d6120dd565b610dda565b5050611ff8565b61211290611ca3565b565b612125906121206121c3565b612127565b565b8061214261213c6121375f611094565b61019d565b9161019d565b14612152576121509061253b565b565b61219561215e5f611094565b612166610172565b9182917f1e4fbdf7000000000000000000000000000000000000000000000000000000008352600483016103d0565b0390fd5b6121a290612114565b565b6121bb6121c0916121b36114f8565b506002610351565b611515565b90565b6121cb611579565b6121e46121de6121d961262c565b61019d565b9161019d565b036121eb57565b61222d6121f661262c565b6121fe610172565b9182917f118cdaa7000000000000000000000000000000000000000000000000000000008352600483016103d0565b0390fd5b61223a90610339565b90565b61224630612231565b6122786122727f000000000000000000000000000000000000000000000000000000000000000061019d565b9161019d565b1480156122c2575b61228657565b61228e610172565b7fe07c8dba000000000000000000000000000000000000000000000000000000008152806122be6004820161041a565b0390fd5b506122cb612639565b6122fd6122f77f000000000000000000000000000000000000000000000000000000000000000061019d565b9161019d565b1415612280565b5061230d6121c3565b565b61231890612304565b565b6123239061031d565b90565b61232f9061231a565b90565b61233b90610339565b90565b612347816105d4565b0361234e57565b5f80fd5b9050519061235f8261233e565b565b9060208282031261237a57612377915f01612352565b90565b61017c565b91906123ad602061239761239286612326565b612332565b6352d1902d906123a5610172565b938492610da7565b825281806123bd6004820161041a565b03915afa80915f9261248d575b50155f1461241e5750509060016123df57505b565b61241a906123eb610172565b9182917f4c9c8ce3000000000000000000000000000000000000000000000000000000008352600483016103d0565b0390fd5b928361243961243361242e6114ad565b6105d4565b916105d4565b0361244e57612449929350612663565b6123dd565b6124898461245a610172565b9182917faa1d49a4000000000000000000000000000000000000000000000000000000008352600483016105e4565b0390fd5b6124af91925060203d81116124b6575b6124a78183610491565b810190612361565b905f6123ca565b503d61249d565b6124c630612231565b6124f86124f27f000000000000000000000000000000000000000000000000000000000000000061019d565b9161019d565b036124ff57565b612507610172565b7fe07c8dba000000000000000000000000000000000000000000000000000000008152806125376004820161041a565b0390fd5b6125436125a7565b61255b6125515f8301611515565b915f84910161125e565b9061258f6125897f8be0079c531659141344cd1fd0a4f28419497f9722a3daafe3b4186f6b6457e093610345565b91610345565b91612598610172565b806125a28161041a565b0390a3565b7f9016d09d72d40fdae2fd8ceac6b6234c7706214fd39c1cd1e609a0528c19930090565b7ff0c57e16840df040f15088dc2f81fe391c3923bec73e23a9662efc9c229c6a0090565b6125f76126ec565b565b6126016125ef565b565b6126149061260f6126ec565b612616565b565b61261f906127c4565b565b61262a90612603565b565b6126346114f8565b503390565b6126416114f8565b5061265c5f6126566126516114ad565b6127cf565b01611515565b90565b5190565b9061266d826127d2565b816126987fbc7cd75a20ee27fd9adebab32041f755214dbc6bffa90cc0225b39da2e5c2d3b91610345565b906126a1610172565b806126ab8161041a565b0390a26126b78161265f565b6126c96126c35f610c79565b9161083b565b115f146126dd576126d9916128e2565b505b565b50506126e7612847565b6126db565b6126fd6126f7612911565b156101ea565b61270357565b61270b610172565b7fd7e6bcf80000000000000000000000000000000000000000000000000000000081528061273b6004820161041a565b0390fd5b6127509061274b6126ec565b612752565b565b8061276d6127676127625f611094565b61019d565b9161019d565b1461277d5761277b9061253b565b565b6127c06127895f611094565b612791610172565b9182917f1e4fbdf7000000000000000000000000000000000000000000000000000000008352600483016103d0565b0390fd5b6127cd9061273f565b565b90565b803b6127e66127e05f610c79565b9161083b565b1461280857612806905f6128006127fb6114ad565b6127cf565b0161125e565b565b61284390612814610172565b9182917f4c9c8ce3000000000000000000000000000000000000000000000000000000008352600483016103d0565b0390fd5b3461285a6128545f610c79565b9161083b565b1161286157565b612869610172565b7fb398979f000000000000000000000000000000000000000000000000000000008152806128996004820161041a565b0390fd5b606090565b906128b46128af836104cf565b6104ba565b918252565b3d5f146128d4576128c93d6128a2565b903d5f602084013e5b565b6128dc61289d565b906128d2565b5f8061290e936128f061289d565b508390602081019051915af4906129056128b9565b9091909161292f565b90565b612919610c72565b5061292c5f6129266125cb565b016115b7565b90565b906129439061293c61289d565b50156101ea565b5f1461294f57506129d3565b6129588261265f565b61296a6129645f610c79565b9161083b565b14806129b8575b612979575090565b6129b490612985610172565b9182917f9996b315000000000000000000000000000000000000000000000000000000008352600483016103d0565b0390fd5b50803b6129cd6129c75f610c79565b9161083b565b14612971565b6129dc8161265f565b6129ee6129e85f610c79565b9161083b565b115f146129fd57805190602001fd5b612a05610172565b7f1425ea4200000000000000000000000000000000000000000000000000000000815280612a356004820161041a565b0390fdfea26469706673582212209bc8fd3e4e25f516c0b2ff472c250d13fd5b5ba4bd31f4eeae401f6ff016763d64736f6c63430008190033",
  "linkReferences": {},
  "deployedLinkReferences": {}
}