{
  "_format": "hh-sol-artifact-1",
  "contractName": "BaluniToken",
  "sourceName": "contracts/BaluniToken.sol",
  "abi": [
    {
      "inputs": [
        {
          "internalType": "address",
          "name": "spender",
          "type": "address"
        },
        {
          "internalType": "uint256",
          "name": "allowance",
          "type": "uint256"
        },
        {
          "internalType": "uint256",
          "name": "needed",
          "type": "uint256"
        }
      ],
      "name": "ERC20InsufficientAllowance",
      "type": "error"
    },
    {
      "inputs": [
        {
          "internalType": "address",
          "name": "sender",
          "type": "address"
        },
        {
          "internalType": "uint256",
          "name": "balance",
          "type": "uint256"
        },
        {
          "internalType": "uint256",
          "name": "needed",
          "type": "uint256"
        }
      ],
      "name": "ERC20InsufficientBalance",
      "type": "error"
    },
    {
      "inputs": [
        {
          "internalType": "address",
          "name": "approver",
          "type": "address"
        }
      ],
      "name": "ERC20InvalidApprover",
      "type": "error"
    },
    {
      "inputs": [
        {
          "internalType": "address",
          "name": "receiver",
          "type": "address"
        }
      ],
      "name": "ERC20InvalidReceiver",
      "type": "error"
    },
    {
      "inputs": [
        {
          "internalType": "address",
          "name": "sender",
          "type": "address"
        }
      ],
      "name": "ERC20InvalidSender",
      "type": "error"
    },
    {
      "inputs": [
        {
          "internalType": "address",
          "name": "spender",
          "type": "address"
        }
      ],
      "name": "ERC20InvalidSpender",
      "type": "error"
    },
    {
      "inputs": [],
      "name": "InvalidInitialization",
      "type": "error"
    },
    {
      "inputs": [],
      "name": "NotInitializing",
      "type": "error"
    },
    {
      "anonymous": false,
      "inputs": [
        {
          "indexed": true,
          "internalType": "address",
          "name": "owner",
          "type": "address"
        },
        {
          "indexed": true,
          "internalType": "address",
          "name": "spender",
          "type": "address"
        },
        {
          "indexed": false,
          "internalType": "uint256",
          "name": "value",
          "type": "uint256"
        }
      ],
      "name": "Approval",
      "type": "event"
    },
    {
      "anonymous": false,
      "inputs": [
        {
          "indexed": false,
          "internalType": "uint64",
          "name": "version",
          "type": "uint64"
        }
      ],
      "name": "Initialized",
      "type": "event"
    },
    {
      "anonymous": false,
      "inputs": [
        {
          "indexed": true,
          "internalType": "address",
          "name": "from",
          "type": "address"
        },
        {
          "indexed": true,
          "internalType": "address",
          "name": "to",
          "type": "address"
        },
        {
          "indexed": false,
          "internalType": "uint256",
          "name": "value",
          "type": "uint256"
        }
      ],
      "name": "Transfer",
      "type": "event"
    },
    {
      "inputs": [
        {
          "internalType": "address",
          "name": "owner",
          "type": "address"
        },
        {
          "internalType": "address",
          "name": "spender",
          "type": "address"
        }
      ],
      "name": "allowance",
      "outputs": [
        {
          "internalType": "uint256",
          "name": "",
          "type": "uint256"
        }
      ],
      "stateMutability": "view",
      "type": "function"
    },
    {
      "inputs": [
        {
          "internalType": "address",
          "name": "spender",
          "type": "address"
        },
        {
          "internalType": "uint256",
          "name": "value",
          "type": "uint256"
        }
      ],
      "name": "approve",
      "outputs": [
        {
          "internalType": "bool",
          "name": "",
          "type": "bool"
        }
      ],
      "stateMutability": "nonpayable",
      "type": "function"
    },
    {
      "inputs": [
        {
          "internalType": "address",
          "name": "account",
          "type": "address"
        }
      ],
      "name": "balanceOf",
      "outputs": [
        {
          "internalType": "uint256",
          "name": "",
          "type": "uint256"
        }
      ],
      "stateMutability": "view",
      "type": "function"
    },
    {
      "inputs": [],
      "name": "decimals",
      "outputs": [
        {
          "internalType": "uint8",
          "name": "",
          "type": "uint8"
        }
      ],
      "stateMutability": "view",
      "type": "function"
    },
    {
      "inputs": [
        {
          "internalType": "string",
          "name": "name",
          "type": "string"
        },
        {
          "internalType": "string",
          "name": "symbol",
          "type": "string"
        }
      ],
      "name": "initialize",
      "outputs": [],
      "stateMutability": "nonpayable",
      "type": "function"
    },
    {
      "inputs": [],
      "name": "name",
      "outputs": [
        {
          "internalType": "string",
          "name": "",
          "type": "string"
        }
      ],
      "stateMutability": "view",
      "type": "function"
    },
    {
      "inputs": [],
      "name": "symbol",
      "outputs": [
        {
          "internalType": "string",
          "name": "",
          "type": "string"
        }
      ],
      "stateMutability": "view",
      "type": "function"
    },
    {
      "inputs": [],
      "name": "totalSupply",
      "outputs": [
        {
          "internalType": "uint256",
          "name": "",
          "type": "uint256"
        }
      ],
      "stateMutability": "view",
      "type": "function"
    },
    {
      "inputs": [
        {
          "internalType": "address",
          "name": "to",
          "type": "address"
        },
        {
          "internalType": "uint256",
          "name": "value",
          "type": "uint256"
        }
      ],
      "name": "transfer",
      "outputs": [
        {
          "internalType": "bool",
          "name": "",
          "type": "bool"
        }
      ],
      "stateMutability": "nonpayable",
      "type": "function"
    },
    {
      "inputs": [
        {
          "internalType": "address",
          "name": "from",
          "type": "address"
        },
        {
          "internalType": "address",
          "name": "to",
          "type": "address"
        },
        {
          "internalType": "uint256",
          "name": "value",
          "type": "uint256"
        }
      ],
      "name": "transferFrom",
      "outputs": [
        {
          "internalType": "bool",
          "name": "",
          "type": "bool"
        }
      ],
      "stateMutability": "nonpayable",
      "type": "function"
    }
  ],
  "bytecode": "0x6080806040523460155761118f908161001a8239f35b5f80fdfe6080604090808252600480361015610015575f80fd5b5f3560e01c91826306fdde0314610cb257508163095ea7b314610b7057816318160ddd14610b1557816323b872dd14610914578163313ce567146108db5781634cd88b761461034d5750806370a08231146102cc57806395d89b411461018e578063a9059cbb146101405763dd62ed3e1461008e575f80fd5b3461013c57807ffffffffffffffffffffffffffffffffffffffffffffffffffffffffffffffffc36011261013c576020906100c7610e28565b73ffffffffffffffffffffffffffffffffffffffff61012b6100e7610e4b565b9273ffffffffffffffffffffffffffffffffffffffff165f527f52c63247e1f47db19d5ce0460030c497f067ca4cebf71ba98eeadabe20bace0160205260405f2090565b91165f528252805f20549051908152f35b5f80fd5b503461013c57807ffffffffffffffffffffffffffffffffffffffffffffffffffffffffffffffffc36011261013c5760209061018761017d610e28565b6024359033610fa1565b5160018152f35b503461013c575f7ffffffffffffffffffffffffffffffffffffffffffffffffffffffffffffffffc36011261013c5780515f7f52c63247e1f47db19d5ce0460030c497f067ca4cebf71ba98eeadabe20bace048054906101ed82610f50565b808552916020916001918281169081156102815750600114610229575b610225868861021b82890383610e6e565b5191829182610de0565b0390f35b5f90815293507f46a2803e59a4de4e7a4c574b1243f25977ac4c77d5a1a4a609b5394cebb4a2aa5b83851061026e5750505050810160200161021b826102255f61020a565b8054868601840152938201938101610251565b6102259896508794506020935061021b9592507fffffffffffffffffffffffffffffffffffffffffffffffffffffffffffffff0091501682840152151560051b82010192945f61020a565b503461013c5760207ffffffffffffffffffffffffffffffffffffffffffffffffffffffffffffffffc36011261013c5760209073ffffffffffffffffffffffffffffffffffffffff61031c610e28565b165f527f52c63247e1f47db19d5ce0460030c497f067ca4cebf71ba98eeadabe20bace008252805f20549051908152f35b90503461013c57817ffffffffffffffffffffffffffffffffffffffffffffffffffffffffffffffffc36011261013c5767ffffffffffffffff90803582811161013c5761039d9036908301610edc565b9060243583811161013c576103b59036908301610edc565b7ff0c57e16840df040f15088dc2f81fe391c3923bec73e23a9662efc9c229c6a009384549360ff85881c161593828616958615806108d4575b600180981490816108ca575b1590816108c1575b506108995785877fffffffffffffffffffffffffffffffffffffffffffffffff00000000000000008316178955610864575b5061043d611100565b610445611100565b8151838111610838577f52c63247e1f47db19d5ce0460030c497f067ca4cebf71ba98eeadabe20bace03908061047b8354610f50565b94601f958681116107cb575b50602090868311600114610713575f92610708575b50507fffffffffffffffffffffffffffffffffffffffffffffffffffffffffffffffff828a1b9260031b1c19161790555b83519283116106dc575081907f52c63247e1f47db19d5ce0460030c497f067ca4cebf71ba98eeadabe20bace04936105058554610f50565b82811161066d575b5060209183116001146105b5575f926105aa575b50507fffffffffffffffffffffffffffffffffffffffffffffffffffffffffffffffff82861b9260031b1c19161790555b61055857005b7fc7f505b2f371ae2175ee4913f4499e1f2633a7b5936321eed1cdaeb6115181d292827fffffffffffffffffffffffffffffffffffffffffffffff00ffffffffffffffff6020945416905551908152a1005b015190505f80610521565b907fffffffffffffffffffffffffffffffffffffffffffffffffffffffffffffffe087941691855f527f46a2803e59a4de4e7a4c574b1243f25977ac4c77d5a1a4a609b5394cebb4a2aa925f5b8181106106555750841161061e575b505050811b019055610552565b01517fffffffffffffffffffffffffffffffffffffffffffffffffffffffffffffffff60f88460031b161c191690555f8080610611565b82840151855589969094019360209384019301610602565b90919250845f527f46a2803e59a4de4e7a4c574b1243f25977ac4c77d5a1a4a609b5394cebb4a2aa8380860160051c820192602087106106d3575b9186958a929594930160051c01915b8281106106c557505061050d565b5f81558695508991016106b7565b925081926106a8565b6041907f4e487b71000000000000000000000000000000000000000000000000000000005f525260245ffd5b015190505f8061049c565b907fffffffffffffffffffffffffffffffffffffffffffffffffffffffffffffffe08b941691855f527f2ae08a8e29253f69ac5d979a101956ab8f8d9d7ded63fa7a83b16fc47648eab0925f5b8181106107b35750841161077c575b505050811b0190556104cd565b01517fffffffffffffffffffffffffffffffffffffffffffffffffffffffffffffffff60f88460031b161c191690555f808061076f565b8284015185558d969094019360209384019301610760565b909150835f527f2ae08a8e29253f69ac5d979a101956ab8f8d9d7ded63fa7a83b16fc47648eab08680850160051c8201926020861061082f575b918c91869594930160051c01915b828110610821575050610487565b5f81558594508c9101610813565b92508192610805565b6041827f4e487b71000000000000000000000000000000000000000000000000000000005f525260245ffd5b7fffffffffffffffffffffffffffffffffffffffffffffff00000000000000000016680100000000000000011787555f610434565b5087517ff92ee8a9000000000000000000000000000000000000000000000000000000008152fd5b9050155f610402565b303b1591506103fa565b50856103ee565b823461013c575f7ffffffffffffffffffffffffffffffffffffffffffffffffffffffffffffffffc36011261013c576020905160128152f35b90503461013c5760607ffffffffffffffffffffffffffffffffffffffffffffffffffffffffffffffffc36011261013c5761094d610e28565b610955610e4b565b90604435926109a18273ffffffffffffffffffffffffffffffffffffffff165f527f52c63247e1f47db19d5ce0460030c497f067ca4cebf71ba98eeadabe20bace0160205260405f2090565b335f52602052845f2054907fffffffffffffffffffffffffffffffffffffffffffffffffffffffffffffffff82036109e2575b602086610187878787610fa1565b848210610ad15773ffffffffffffffffffffffffffffffffffffffff831615610aa2573315610a73575091818461018794610a5e602098979573ffffffffffffffffffffffffffffffffffffffff165f527f52c63247e1f47db19d5ce0460030c497f067ca4cebf71ba98eeadabe20bace0160205260405f2090565b335f52885203855f20559193948193506109d4565b6024905f8751917f94280d62000000000000000000000000000000000000000000000000000000008352820152fd5b6024905f8751917fe602df05000000000000000000000000000000000000000000000000000000008352820152fd5b85517ffb8f41b20000000000000000000000000000000000000000000000000000000081523391810191825260208201929092526040810185905281906060010390fd5b823461013c575f7ffffffffffffffffffffffffffffffffffffffffffffffffffffffffffffffffc36011261013c576020907f52c63247e1f47db19d5ce0460030c497f067ca4cebf71ba98eeadabe20bace02549051908152f35b823461013c57807ffffffffffffffffffffffffffffffffffffffffffffffffffffffffffffffffc36011261013c57610ba7610e28565b602435903315610c835773ffffffffffffffffffffffffffffffffffffffff16908115610c545760209350610c193373ffffffffffffffffffffffffffffffffffffffff165f527f52c63247e1f47db19d5ce0460030c497f067ca4cebf71ba98eeadabe20bace0160205260405f2090565b825f52845280835f205582519081527f8c5be1e5ebec7d5bd14f71427d1e84f3dd0314c0f7b2291e5b200ac8c7c3b925843392a35160018152f35b6024845f8551917f94280d62000000000000000000000000000000000000000000000000000000008352820152fd5b6024845f8551917fe602df05000000000000000000000000000000000000000000000000000000008352820152fd5b83903461013c575f7ffffffffffffffffffffffffffffffffffffffffffffffffffffffffffffffffc36011261013c575f7f52c63247e1f47db19d5ce0460030c497f067ca4cebf71ba98eeadabe20bace03805490610d1082610f50565b80855291602091600191828116908115610d955750600114610d3d57610225868861021b82890383610e6e565b5f90815293507f2ae08a8e29253f69ac5d979a101956ab8f8d9d7ded63fa7a83b16fc47648eab05b838510610d825750505050810160200161021b826102258661020a565b8054868601840152938201938101610d65565b6102259896508794506020935061021b9592507fffffffffffffffffffffffffffffffffffffffffffffffffffffffffffffff0091501682840152151560051b82010192948661020a565b7fffffffffffffffffffffffffffffffffffffffffffffffffffffffffffffffe0601f602060409481855280519182918282880152018686015e5f8582860101520116010190565b6004359073ffffffffffffffffffffffffffffffffffffffff8216820361013c57565b6024359073ffffffffffffffffffffffffffffffffffffffff8216820361013c57565b90601f7fffffffffffffffffffffffffffffffffffffffffffffffffffffffffffffffe0910116810190811067ffffffffffffffff821117610eaf57604052565b7f4e487b71000000000000000000000000000000000000000000000000000000005f52604160045260245ffd5b81601f8201121561013c5780359067ffffffffffffffff8211610eaf5760405192610f2f60207fffffffffffffffffffffffffffffffffffffffffffffffffffffffffffffffe0601f8601160185610e6e565b8284526020838301011161013c57815f926020809301838601378301015290565b90600182811c92168015610f97575b6020831014610f6a57565b7f4e487b71000000000000000000000000000000000000000000000000000000005f52602260045260245ffd5b91607f1691610f5f565b9173ffffffffffffffffffffffffffffffffffffffff8084169283156110d057169283156110a057825f527f52c63247e1f47db19d5ce0460030c497f067ca4cebf71ba98eeadabe20bace008060205260405f205491838310611047575091806020927fddf252ad1be2c89b69c2b068fc378daa952ba7f163c4a11628f55a4df523b3ef94865f5284520360405f2055845f5260405f20818154019055604051908152a3565b6040517fe450d38c00000000000000000000000000000000000000000000000000000000815273ffffffffffffffffffffffffffffffffffffffff91909116600482015260248101929092525060448101829052606490fd5b60246040517fec442f050000000000000000000000000000000000000000000000000000000081525f6004820152fd5b60246040517f96c6fd1e0000000000000000000000000000000000000000000000000000000081525f6004820152fd5b60ff7ff0c57e16840df040f15088dc2f81fe391c3923bec73e23a9662efc9c229c6a005460401c161561112f57565b60046040517fd7e6bcf8000000000000000000000000000000000000000000000000000000008152fdfea2646970667358221220022e9b2233dd635cc42ad54f1ff18e93f6425e88a2024c7acb8e2a8a4defb20b64736f6c63430008190033",
  "linkReferences": {},
  "deployedLinkReferences": {}
}