{
  "_format": "hh-sol-artifact-1",
  "contractName": "BaluniToken",
  "sourceName": "contracts/BaluniToken.sol",
  "abi": [
    {
      "inputs": [
        {
          "internalType": "address",
          "name": "spender",
          "type": "address"
        },
        {
          "internalType": "uint256",
          "name": "allowance",
          "type": "uint256"
        },
        {
          "internalType": "uint256",
          "name": "needed",
          "type": "uint256"
        }
      ],
      "name": "ERC20InsufficientAllowance",
      "type": "error"
    },
    {
      "inputs": [
        {
          "internalType": "address",
          "name": "sender",
          "type": "address"
        },
        {
          "internalType": "uint256",
          "name": "balance",
          "type": "uint256"
        },
        {
          "internalType": "uint256",
          "name": "needed",
          "type": "uint256"
        }
      ],
      "name": "ERC20InsufficientBalance",
      "type": "error"
    },
    {
      "inputs": [
        {
          "internalType": "address",
          "name": "approver",
          "type": "address"
        }
      ],
      "name": "ERC20InvalidApprover",
      "type": "error"
    },
    {
      "inputs": [
        {
          "internalType": "address",
          "name": "receiver",
          "type": "address"
        }
      ],
      "name": "ERC20InvalidReceiver",
      "type": "error"
    },
    {
      "inputs": [
        {
          "internalType": "address",
          "name": "sender",
          "type": "address"
        }
      ],
      "name": "ERC20InvalidSender",
      "type": "error"
    },
    {
      "inputs": [
        {
          "internalType": "address",
          "name": "spender",
          "type": "address"
        }
      ],
      "name": "ERC20InvalidSpender",
      "type": "error"
    },
    {
      "inputs": [],
      "name": "InvalidInitialization",
      "type": "error"
    },
    {
      "inputs": [],
      "name": "NotInitializing",
      "type": "error"
    },
    {
      "anonymous": false,
      "inputs": [
        {
          "indexed": true,
          "internalType": "address",
          "name": "owner",
          "type": "address"
        },
        {
          "indexed": true,
          "internalType": "address",
          "name": "spender",
          "type": "address"
        },
        {
          "indexed": false,
          "internalType": "uint256",
          "name": "value",
          "type": "uint256"
        }
      ],
      "name": "Approval",
      "type": "event"
    },
    {
      "anonymous": false,
      "inputs": [
        {
          "indexed": false,
          "internalType": "uint64",
          "name": "version",
          "type": "uint64"
        }
      ],
      "name": "Initialized",
      "type": "event"
    },
    {
      "anonymous": false,
      "inputs": [
        {
          "indexed": true,
          "internalType": "address",
          "name": "from",
          "type": "address"
        },
        {
          "indexed": true,
          "internalType": "address",
          "name": "to",
          "type": "address"
        },
        {
          "indexed": false,
          "internalType": "uint256",
          "name": "value",
          "type": "uint256"
        }
      ],
      "name": "Transfer",
      "type": "event"
    },
    {
      "inputs": [
        {
          "internalType": "address",
          "name": "owner",
          "type": "address"
        },
        {
          "internalType": "address",
          "name": "spender",
          "type": "address"
        }
      ],
      "name": "allowance",
      "outputs": [
        {
          "internalType": "uint256",
          "name": "",
          "type": "uint256"
        }
      ],
      "stateMutability": "view",
      "type": "function"
    },
    {
      "inputs": [
        {
          "internalType": "address",
          "name": "spender",
          "type": "address"
        },
        {
          "internalType": "uint256",
          "name": "value",
          "type": "uint256"
        }
      ],
      "name": "approve",
      "outputs": [
        {
          "internalType": "bool",
          "name": "",
          "type": "bool"
        }
      ],
      "stateMutability": "nonpayable",
      "type": "function"
    },
    {
      "inputs": [
        {
          "internalType": "address",
          "name": "account",
          "type": "address"
        }
      ],
      "name": "balanceOf",
      "outputs": [
        {
          "internalType": "uint256",
          "name": "",
          "type": "uint256"
        }
      ],
      "stateMutability": "view",
      "type": "function"
    },
    {
      "inputs": [],
      "name": "decimals",
      "outputs": [
        {
          "internalType": "uint8",
          "name": "",
          "type": "uint8"
        }
      ],
      "stateMutability": "view",
      "type": "function"
    },
    {
      "inputs": [
        {
          "internalType": "string",
          "name": "name",
          "type": "string"
        },
        {
          "internalType": "string",
          "name": "symbol",
          "type": "string"
        }
      ],
      "name": "initialize",
      "outputs": [],
      "stateMutability": "nonpayable",
      "type": "function"
    },
    {
      "inputs": [],
      "name": "name",
      "outputs": [
        {
          "internalType": "string",
          "name": "",
          "type": "string"
        }
      ],
      "stateMutability": "view",
      "type": "function"
    },
    {
      "inputs": [],
      "name": "symbol",
      "outputs": [
        {
          "internalType": "string",
          "name": "",
          "type": "string"
        }
      ],
      "stateMutability": "view",
      "type": "function"
    },
    {
      "inputs": [],
      "name": "totalSupply",
      "outputs": [
        {
          "internalType": "uint256",
          "name": "",
          "type": "uint256"
        }
      ],
      "stateMutability": "view",
      "type": "function"
    },
    {
      "inputs": [
        {
          "internalType": "address",
          "name": "to",
          "type": "address"
        },
        {
          "internalType": "uint256",
          "name": "value",
          "type": "uint256"
        }
      ],
      "name": "transfer",
      "outputs": [
        {
          "internalType": "bool",
          "name": "",
          "type": "bool"
        }
      ],
      "stateMutability": "nonpayable",
      "type": "function"
    },
    {
      "inputs": [
        {
          "internalType": "address",
          "name": "from",
          "type": "address"
        },
        {
          "internalType": "address",
          "name": "to",
          "type": "address"
        },
        {
          "internalType": "uint256",
          "name": "value",
          "type": "uint256"
        }
      ],
      "name": "transferFrom",
      "outputs": [
        {
          "internalType": "bool",
          "name": "",
          "type": "bool"
        }
      ],
      "stateMutability": "nonpayable",
      "type": "function"
    }
  ],
  "bytecode": "0x60808060405234601557610c34908161001a8239f35b5f80fdfe6080604090808252600480361015610015575f80fd5b5f3560e01c91826306fdde031461087d57508163095ea7b3146107d657816318160ddd1461079957816323b872dd146106a9578163313ce5671461068e5781634cd88b761461025e5750806370a082311461020857806395d89b4114610106578063a9059cbb146100d65763dd62ed3e1461008e575f80fd5b346100d257806003193601126100d2576020906100a9610999565b6100ba6100b46109af565b91610a89565b9060018060a01b03165f528252805f20549051908152f35b5f80fd5b50346100d257806003193601126100d2576020906100ff6100f5610999565b6024359033610ac1565b5160018152f35b50346100d2575f3660031901126100d25780515f7f52c63247e1f47db19d5ce0460030c497f067ca4cebf71ba98eeadabe20bace0480549061014782610a51565b808552916020916001918281169081156101db5750600114610183575b61017f8688610175828903836109c5565b519182918261096f565b0390f35b5f90815293507f46a2803e59a4de4e7a4c574b1243f25977ac4c77d5a1a4a609b5394cebb4a2aa5b8385106101c8575050505081016020016101758261017f5f610164565b80548686018401529382019381016101ab565b905061017f9795508693506020925061017594915060ff191682840152151560051b82010192945f610164565b50346100d25760203660031901126100d2576020906001600160a01b0361022d610999565b165f527f52c63247e1f47db19d5ce0460030c497f067ca4cebf71ba98eeadabe20bace008252805f20549051908152f35b9050346100d257816003193601126100d25767ffffffffffffffff9080358281116100d25761029090369083016109fb565b906024358381116100d2576102a890369083016109fb565b7ff0c57e16840df040f15088dc2f81fe391c3923bec73e23a9662efc9c229c6a009384549360ff85881c16159382861695861580610687575b6001809814908161067d575b159081610674575b506106655767ffffffffffffffff1981168717885585610646575b50610319610bbd565b610321610bbd565b8151838111610633577f52c63247e1f47db19d5ce0460030c497f067ca4cebf71ba98eeadabe20bace0390806103578354610a51565b94601f958681116105c6575b50602090868311600114610549575f9261053e575b50505f19600383901b1c191690881b1790555b835192831161052b575081907f52c63247e1f47db19d5ce0460030c497f067ca4cebf71ba98eeadabe20bace04936103c38554610a51565b8281116104bc575b50602091831160011461043f575f92610434575b50505f19600383901b1c191690841b1790555b6103f857005b7fc7f505b2f371ae2175ee4913f4499e1f2633a7b5936321eed1cdaeb6115181d29260209268ff000000000000000019815416905551908152a1005b015190505f806103df565b90869350601f19831691855f527f46a2803e59a4de4e7a4c574b1243f25977ac4c77d5a1a4a609b5394cebb4a2aa925f5b8181106104a45750841161048c575b505050811b0190556103f2565b01515f1960f88460031b161c191690555f808061047f565b82840151855589969094019360209384019301610470565b90919250845f527f46a2803e59a4de4e7a4c574b1243f25977ac4c77d5a1a4a609b5394cebb4a2aa8380860160051c82019260208710610522575b9186958a929594930160051c01915b8281106105145750506103cb565b5f8155869550899101610506565b925081926104f7565b604190634e487b7160e01b5f525260245ffd5b015190505f80610378565b908a9350601f19831691855f527f2ae08a8e29253f69ac5d979a101956ab8f8d9d7ded63fa7a83b16fc47648eab0925f5b8181106105ae57508411610596575b505050811b01905561038b565b01515f1960f88460031b161c191690555f8080610589565b8284015185558d96909401936020938401930161057a565b909150835f527f2ae08a8e29253f69ac5d979a101956ab8f8d9d7ded63fa7a83b16fc47648eab08680850160051c8201926020861061062a575b918c91869594930160051c01915b82811061061c575050610363565b5f81558594508c910161060e565b92508192610600565b604182634e487b7160e01b5f525260245ffd5b68ffffffffffffffffff1916680100000000000000011787555f610310565b50875163f92ee8a960e01b8152fd5b9050155f6102f5565b303b1591506102ed565b50856102e1565b82346100d2575f3660031901126100d2576020905160128152f35b9050346100d25760603660031901126100d2576106c4610999565b6106cc6109af565b90604435926106da82610a89565b335f52602052845f2054905f1982036106fc575b6020866100ff878787610ac1565b84821061076e576001600160a01b0383161561075857331561074257509181846100ff9461072d6020989795610a89565b335f52885203855f20559193948193506106ee565b6024905f875191634a1406b160e11b8352820152fd5b6024905f87519163e602df0560e01b8352820152fd5b8551637dc7a0d960e11b81523391810191825260208201929092526040810185905281906060010390fd5b82346100d2575f3660031901126100d2576020907f52c63247e1f47db19d5ce0460030c497f067ca4cebf71ba98eeadabe20bace02549051908152f35b82346100d257806003193601126100d2576107ef610999565b602435903315610867576001600160a01b0316908115610851576020935061081633610a89565b825f52845280835f205582519081527f8c5be1e5ebec7d5bd14f71427d1e84f3dd0314c0f7b2291e5b200ac8c7c3b925843392a35160018152f35b8251634a1406b160e11b81525f81860152602490fd5b825163e602df0560e01b81525f81860152602490fd5b8390346100d2575f3660031901126100d2575f7f52c63247e1f47db19d5ce0460030c497f067ca4cebf71ba98eeadabe20bace038054906108bd82610a51565b8085529160209160019182811690811561094257506001146108ea5761017f8688610175828903836109c5565b5f90815293507f2ae08a8e29253f69ac5d979a101956ab8f8d9d7ded63fa7a83b16fc47648eab05b83851061092f575050505081016020016101758261017f86610164565b8054868601840152938201938101610912565b905061017f9795508693506020925061017594915060ff191682840152151560051b820101929486610164565b602060409281835280519182918282860152018484015e5f828201840152601f01601f1916010190565b600435906001600160a01b03821682036100d257565b602435906001600160a01b03821682036100d257565b90601f8019910116810190811067ffffffffffffffff8211176109e757604052565b634e487b7160e01b5f52604160045260245ffd5b81601f820112156100d25780359067ffffffffffffffff82116109e75760405192610a30601f8401601f1916602001856109c5565b828452602083830101116100d257815f926020809301838601378301015290565b90600182811c92168015610a7f575b6020831014610a6b57565b634e487b7160e01b5f52602260045260245ffd5b91607f1691610a60565b6001600160a01b03165f9081527f52c63247e1f47db19d5ce0460030c497f067ca4cebf71ba98eeadabe20bace016020526040902090565b916001600160a01b03808416928315610ba55716928315610b8d57825f527f52c63247e1f47db19d5ce0460030c497f067ca4cebf71ba98eeadabe20bace008060205260405f205491838310610b5a575091806020927fddf252ad1be2c89b69c2b068fc378daa952ba7f163c4a11628f55a4df523b3ef94865f5284520360405f2055845f5260405f20818154019055604051908152a3565b60405163391434e360e21b81526001600160a01b0391909116600482015260248101929092525060448101829052606490fd5b60405163ec442f0560e01b81525f6004820152602490fd5b604051634b637e8f60e11b81525f6004820152602490fd5b60ff7ff0c57e16840df040f15088dc2f81fe391c3923bec73e23a9662efc9c229c6a005460401c1615610bec57565b604051631afcd79f60e31b8152600490fdfea2646970667358221220a3f1bc08551a01c594186aead46f4c815f5108c70e5249901e2cfb4cfa033a8b64736f6c63430008190033",
  "linkReferences": {},
  "deployedLinkReferences": {}
}