{
  "_format": "hh-sol-artifact-1",
  "contractName": "BaluniV1MarketOracle",
  "sourceName": "contracts/BaluniV1MarketOracle.sol",
  "abi": [
    {
      "inputs": [
        {
          "internalType": "address",
          "name": "target",
          "type": "address"
        }
      ],
      "name": "AddressEmptyCode",
      "type": "error"
    },
    {
      "inputs": [
        {
          "internalType": "address",
          "name": "implementation",
          "type": "address"
        }
      ],
      "name": "ERC1967InvalidImplementation",
      "type": "error"
    },
    {
      "inputs": [],
      "name": "ERC1967NonPayable",
      "type": "error"
    },
    {
      "inputs": [],
      "name": "FailedInnerCall",
      "type": "error"
    },
    {
      "inputs": [],
      "name": "InvalidInitialization",
      "type": "error"
    },
    {
      "inputs": [],
      "name": "NotInitializing",
      "type": "error"
    },
    {
      "inputs": [
        {
          "internalType": "address",
          "name": "owner",
          "type": "address"
        }
      ],
      "name": "OwnableInvalidOwner",
      "type": "error"
    },
    {
      "inputs": [
        {
          "internalType": "address",
          "name": "account",
          "type": "address"
        }
      ],
      "name": "OwnableUnauthorizedAccount",
      "type": "error"
    },
    {
      "inputs": [],
      "name": "UUPSUnauthorizedCallContext",
      "type": "error"
    },
    {
      "inputs": [
        {
          "internalType": "bytes32",
          "name": "slot",
          "type": "bytes32"
        }
      ],
      "name": "UUPSUnsupportedProxiableUUID",
      "type": "error"
    },
    {
      "anonymous": false,
      "inputs": [
        {
          "indexed": false,
          "internalType": "uint64",
          "name": "version",
          "type": "uint64"
        }
      ],
      "name": "Initialized",
      "type": "event"
    },
    {
      "anonymous": false,
      "inputs": [
        {
          "indexed": true,
          "internalType": "address",
          "name": "previousOwner",
          "type": "address"
        },
        {
          "indexed": true,
          "internalType": "address",
          "name": "newOwner",
          "type": "address"
        }
      ],
      "name": "OwnershipTransferred",
      "type": "event"
    },
    {
      "anonymous": false,
      "inputs": [
        {
          "indexed": false,
          "internalType": "uint256",
          "name": "priceBALUNI",
          "type": "uint256"
        },
        {
          "indexed": false,
          "internalType": "uint256",
          "name": "priceBALUNIPool",
          "type": "uint256"
        },
        {
          "indexed": false,
          "internalType": "uint256",
          "name": "lastUpdated",
          "type": "uint256"
        }
      ],
      "name": "PriceUpdated",
      "type": "event"
    },
    {
      "anonymous": false,
      "inputs": [
        {
          "indexed": true,
          "internalType": "address",
          "name": "implementation",
          "type": "address"
        }
      ],
      "name": "Upgraded",
      "type": "event"
    },
    {
      "inputs": [],
      "name": "BALUNI",
      "outputs": [
        {
          "internalType": "contract IERC20",
          "name": "",
          "type": "address"
        }
      ],
      "stateMutability": "view",
      "type": "function"
    },
    {
      "inputs": [],
      "name": "UPGRADE_INTERFACE_VERSION",
      "outputs": [
        {
          "internalType": "string",
          "name": "",
          "type": "string"
        }
      ],
      "stateMutability": "view",
      "type": "function"
    },
    {
      "inputs": [],
      "name": "USDC",
      "outputs": [
        {
          "internalType": "contract IERC20",
          "name": "",
          "type": "address"
        }
      ],
      "stateMutability": "view",
      "type": "function"
    },
    {
      "inputs": [],
      "name": "_priceBALUNI",
      "outputs": [
        {
          "internalType": "uint256",
          "name": "",
          "type": "uint256"
        }
      ],
      "stateMutability": "view",
      "type": "function"
    },
    {
      "inputs": [],
      "name": "_unitPriceBALUNI",
      "outputs": [
        {
          "internalType": "uint256",
          "name": "",
          "type": "uint256"
        }
      ],
      "stateMutability": "view",
      "type": "function"
    },
    {
      "inputs": [],
      "name": "baluniRouter",
      "outputs": [
        {
          "internalType": "contract IBaluniV1Router",
          "name": "",
          "type": "address"
        }
      ],
      "stateMutability": "view",
      "type": "function"
    },
    {
      "inputs": [
        {
          "internalType": "address",
          "name": "_baluni",
          "type": "address"
        },
        {
          "internalType": "address",
          "name": "_usdc",
          "type": "address"
        },
        {
          "internalType": "address",
          "name": "_oracle",
          "type": "address"
        }
      ],
      "name": "initialize",
      "outputs": [],
      "stateMutability": "nonpayable",
      "type": "function"
    },
    {
      "inputs": [],
      "name": "oracle",
      "outputs": [
        {
          "internalType": "address",
          "name": "",
          "type": "address"
        }
      ],
      "stateMutability": "view",
      "type": "function"
    },
    {
      "inputs": [],
      "name": "owner",
      "outputs": [
        {
          "internalType": "address",
          "name": "",
          "type": "address"
        }
      ],
      "stateMutability": "view",
      "type": "function"
    },
    {
      "inputs": [],
      "name": "priceBALUNI",
      "outputs": [
        {
          "internalType": "uint256",
          "name": "",
          "type": "uint256"
        }
      ],
      "stateMutability": "view",
      "type": "function"
    },
    {
      "inputs": [],
      "name": "proxiableUUID",
      "outputs": [
        {
          "internalType": "bytes32",
          "name": "",
          "type": "bytes32"
        }
      ],
      "stateMutability": "view",
      "type": "function"
    },
    {
      "inputs": [
        {
          "internalType": "address",
          "name": "_baluni",
          "type": "address"
        },
        {
          "internalType": "address",
          "name": "_usdc",
          "type": "address"
        },
        {
          "internalType": "address",
          "name": "_oracle",
          "type": "address"
        },
        {
          "internalType": "uint64",
          "name": "version",
          "type": "uint64"
        }
      ],
      "name": "reinitialize",
      "outputs": [],
      "stateMutability": "nonpayable",
      "type": "function"
    },
    {
      "inputs": [],
      "name": "renounceOwnership",
      "outputs": [],
      "stateMutability": "nonpayable",
      "type": "function"
    },
    {
      "inputs": [
        {
          "internalType": "address",
          "name": "_address",
          "type": "address"
        }
      ],
      "name": "setStaticOracle",
      "outputs": [],
      "stateMutability": "nonpayable",
      "type": "function"
    },
    {
      "inputs": [
        {
          "internalType": "address",
          "name": "newOwner",
          "type": "address"
        }
      ],
      "name": "transferOwnership",
      "outputs": [],
      "stateMutability": "nonpayable",
      "type": "function"
    },
    {
      "inputs": [],
      "name": "unitPriceBALUNI",
      "outputs": [
        {
          "internalType": "uint256",
          "name": "",
          "type": "uint256"
        }
      ],
      "stateMutability": "view",
      "type": "function"
    },
    {
      "inputs": [
        {
          "internalType": "address",
          "name": "newImplementation",
          "type": "address"
        },
        {
          "internalType": "bytes",
          "name": "data",
          "type": "bytes"
        }
      ],
      "name": "upgradeToAndCall",
      "outputs": [],
      "stateMutability": "payable",
      "type": "function"
    }
  ],
  "bytecode": "0x60a08060405234602957306080526114c9908161002e8239608051818181610781015261089b0152f35b5f80fdfe6080604081815260049081361015610015575f80fd5b5f3560e01c9283632c224b3f14610b735750826339b6514014610b225782634f1ef286146107f657826352d1902d1461073c578263683a8c81146101b0578263715018a6146106805782637dc0d1d01461062f57826389a30271146105de5782638c7eab9d146104805782638da5cb5b14610410578263ad3cb1cc14610361578263c0c53b8b146101b55750508063c42a8678146101b0578063cc01e9a61461012e578063d9ef6e5114610129578063efdba04f146101295763f2fde38b146100dc575f80fd5b346101255760207ffffffffffffffffffffffffffffffffffffffffffffffffffffffffffffffffc36011261012557610123610116610bc0565b61011e61132a565b611269565b005b5f80fd5b611054565b346101255760207ffffffffffffffffffffffffffffffffffffffffffffffffffffffffffffffffc3601126101255773ffffffffffffffffffffffffffffffffffffffff61017a610bc0565b61018261132a565b167fffffffffffffffffffffffff000000000000000000000000000000000000000060035416176003555f80f35b610ced565b346101255760607ffffffffffffffffffffffffffffffffffffffffffffffffffffffffffffffffc360112610125576101ec610bc0565b6101f4610be3565b906101fd610c06565b7ff0c57e16840df040f15088dc2f81fe391c3923bec73e23a9662efc9c229c6a009283549260ff84871c16159367ffffffffffffffff811680159081610359575b600114908161034f575b159081610346575b5061031e5790818560017fffffffffffffffffffffffffffffffffffffffffffffffff0000000000000000610290979695161788556102e9575b506111e4565b61029657005b7fc7f505b2f371ae2175ee4913f4499e1f2633a7b5936321eed1cdaeb6115181d291817fffffffffffffffffffffffffffffffffffffffffffffff00ffffffffffffffff602093541690555160018152a1005b7fffffffffffffffffffffffffffffffffffffffffffffff00000000000000000016680100000000000000011786558761028a565b8787517ff92ee8a9000000000000000000000000000000000000000000000000000000008152fd5b90501589610250565b303b159150610248565b86915061023e565b34610125575f7ffffffffffffffffffffffffffffffffffffffffffffffffffffffffffffffffc3601126101255780519061039b82610c29565b6005825260208201917f352e302e3000000000000000000000000000000000000000000000000000000083527fffffffffffffffffffffffffffffffffffffffffffffffffffffffffffffffe0601f8351948593602085525180918160208701528686015e5f85828601015201168101030190f35b34610125575f7ffffffffffffffffffffffffffffffffffffffffffffffffffffffffffffffffc3601126101255760209073ffffffffffffffffffffffffffffffffffffffff7f9016d09d72d40fdae2fd8ceac6b6234c7706214fd39c1cd1e609a0528c19930054169051908152f35b346101255760807ffffffffffffffffffffffffffffffffffffffffffffffffffffffffffffffffc360112610125576104b7610bc0565b916104c0610be3565b6104c8610c06565b906064359467ffffffffffffffff808716809703610125577ff0c57e16840df040f15088dc2f81fe391c3923bec73e23a9662efc9c229c6a00948554918860ff848a1c169182156105d1575b50506105aa577fc7f505b2f371ae2175ee4913f4499e1f2633a7b5936321eed1cdaeb6115181d2602089898961057d8a8a8a68010000000000000000877fffffffffffffffffffffffffffffffffffffffffffffff0000000000000000008d16171785556111e4565b7fffffffffffffffffffffffffffffffffffffffffffffff00ffffffffffffffff815416905551908152a1005b86517ff92ee8a9000000000000000000000000000000000000000000000000000000008152fd5b841610159050888a610514565b34610125575f7ffffffffffffffffffffffffffffffffffffffffffffffffffffffffffffffffc3601126101255760209073ffffffffffffffffffffffffffffffffffffffff600154169051908152f35b34610125575f7ffffffffffffffffffffffffffffffffffffffffffffffffffffffffffffffffc3601126101255760209073ffffffffffffffffffffffffffffffffffffffff600354169051908152f35b34610125575f7ffffffffffffffffffffffffffffffffffffffffffffffffffffffffffffffffc360112610125576106b661132a565b5f73ffffffffffffffffffffffffffffffffffffffff7f9016d09d72d40fdae2fd8ceac6b6234c7706214fd39c1cd1e609a0528c1993008054907fffffffffffffffffffffffff000000000000000000000000000000000000000082169055167f8be0079c531659141344cd1fd0a4f28419497f9722a3daafe3b4186f6b6457e08280a3005b34610125575f7ffffffffffffffffffffffffffffffffffffffffffffffffffffffffffffffffc3601126101255773ffffffffffffffffffffffffffffffffffffffff7f00000000000000000000000000000000000000000000000000000000000000001630036107d057602090517f360894a13ba1a3210667c828492db98dca3e2076cc3735a920a3ca505d382bbc8152f35b517fe07c8dba000000000000000000000000000000000000000000000000000000008152fd5b90817ffffffffffffffffffffffffffffffffffffffffffffffffffffffffffffffffc36011261012557610828610bc0565b602492833567ffffffffffffffff81116101255736602382011215610125578084013561085481610cb3565b9361086184519586610c72565b818552602091828601933689838301011161012557815f928a86930187378701015273ffffffffffffffffffffffffffffffffffffffff807f000000000000000000000000000000000000000000000000000000000000000016803014908115610af4575b50610acc576108d361132a565b81169484517f52d1902d000000000000000000000000000000000000000000000000000000008152838189818a5afa5f9181610a9d575b5061093e57505050505051917f4c9c8ce3000000000000000000000000000000000000000000000000000000008352820152fd5b9087878794938b7f360894a13ba1a3210667c828492db98dca3e2076cc3735a920a3ca505d382bbc91828103610a705750853b15610a435750817fffffffffffffffffffffffff00000000000000000000000000000000000000008254161790558451907fbc7cd75a20ee27fd9adebab32041f755214dbc6bffa90cc0225b39da2e5c2d3b5f80a2825115610a105750505f6101239581925190845af4913d15610a06573d6109f86109ef82610cb3565b92519283610c72565b81525f81943d92013e6113f3565b50606092506113f3565b9450945050505034610a1e57005b7fb398979f000000000000000000000000000000000000000000000000000000008152fd5b83838851917f4c9c8ce3000000000000000000000000000000000000000000000000000000008352820152fd5b84908851917faa1d49a4000000000000000000000000000000000000000000000000000000008352820152fd5b9091508481813d8311610ac5575b610ab58183610c72565b810103126101255751908a61090a565b503d610aab565b8685517fe07c8dba000000000000000000000000000000000000000000000000000000008152fd5b9050817f360894a13ba1a3210667c828492db98dca3e2076cc3735a920a3ca505d382bbc54161415896108c6565b34610125575f7ffffffffffffffffffffffffffffffffffffffffffffffffffffffffffffffffc3601126101255760209073ffffffffffffffffffffffffffffffffffffffff600254169051908152f35b34610125575f7ffffffffffffffffffffffffffffffffffffffffffffffffffffffffffffffffc3601126101255760209073ffffffffffffffffffffffffffffffffffffffff5f54168152f35b6004359073ffffffffffffffffffffffffffffffffffffffff8216820361012557565b6024359073ffffffffffffffffffffffffffffffffffffffff8216820361012557565b6044359073ffffffffffffffffffffffffffffffffffffffff8216820361012557565b6040810190811067ffffffffffffffff821117610c4557604052565b7f4e487b71000000000000000000000000000000000000000000000000000000005f52604160045260245ffd5b90601f7fffffffffffffffffffffffffffffffffffffffffffffffffffffffffffffffe0910116810190811067ffffffffffffffff821117610c4557604052565b67ffffffffffffffff8111610c4557601f017fffffffffffffffffffffffffffffffffffffffffffffffffffffffffffffffe01660200190565b34610125575f7ffffffffffffffffffffffffffffffffffffffffffffffffffffffffffffffffc3601126101255773ffffffffffffffffffffffffffffffffffffffff8060035416908115610ff657805f5416916001908260015416926040928351957f1698ee82000000000000000000000000000000000000000000000000000000008752806004880152856024880152610bb860448801526020968781606481731f98431c8ad98523631ae4a59f267346ea31f9845afa908115610fec579084915f91610fb2575b5016928315610f55578551610dcb81610c29565b600181528881019489368737815115610f28579285938a97959299965287519889967f07f7ca9f00000000000000000000000000000000000000000000000000000000885260a4880192670de0b6b3a764000060048a01526024890152604488015260a060648801525180915260c4860193925f905b828210610f0c575050505050828091603c608483015203915afa918215610f02575f92610ed3575b508115610e765751908152f35b8260649151907f08c379a00000000000000000000000000000000000000000000000000000000082526004820152601960248201527f496e76616c69642070726963652066726f6d206f7261636c65000000000000006044820152fd5b9091508281813d8311610efb575b610eeb8183610c72565b810103126101255751905f610e69565b503d610ee1565b50513d5f823e3d90fd5b8451811686528b988b9850958601959094019390830190610e41565b7f4e487b71000000000000000000000000000000000000000000000000000000005f52603260045260245ffd5b6064888751907f08c379a00000000000000000000000000000000000000000000000000000000082526004820152601e60248201527f556e697377617020563320706f6f6c20646f6573206e6f7420657869737400006044820152fd5b809250898092503d8311610fe5575b610fcb8183610c72565b81010312610125575183811681036101255783905f610db7565b503d610fc1565b86513d5f823e3d90fd5b60646040517f08c379a000000000000000000000000000000000000000000000000000000000815260206004820152601960248201527f4f7261636c652061646472657373206973206e6f7420736574000000000000006044820152fd5b34610125575f7ffffffffffffffffffffffffffffffffffffffffffffffffffffffffffffffffc3601126101255773ffffffffffffffffffffffffffffffffffffffff6002541680156111865760405180917f012a33aa00000000000000000000000000000000000000000000000000000000825281600460209485935afa90811561117b575f9161114e575b5080156110f057604051908152f35b606482604051907f08c379a00000000000000000000000000000000000000000000000000000000082526004820152601e60248201527f496e76616c696420756e69742070726963652066726f6d20726f7574657200006044820152fd5b90508181813d8311611174575b6111658183610c72565b8101031261012557515f6110e1565b503d61115b565b6040513d5f823e3d90fd5b60646040517f08c379a000000000000000000000000000000000000000000000000000000000815260206004820152601960248201527f526f757465722061646472657373206973206e6f7420736574000000000000006044820152fd5b90916111ee61139a565b6111f661139a565b6111ff33611269565b61120761139a565b73ffffffffffffffffffffffffffffffffffffffff809216827fffffffffffffffffffffffff00000000000000000000000000000000000000009482865f5416175f551684600154161760015583600254161760025516906003541617600355565b73ffffffffffffffffffffffffffffffffffffffff8091169081156112fa577f9016d09d72d40fdae2fd8ceac6b6234c7706214fd39c1cd1e609a0528c199300805490837fffffffffffffffffffffffff00000000000000000000000000000000000000008316179055167f8be0079c531659141344cd1fd0a4f28419497f9722a3daafe3b4186f6b6457e05f80a3565b60246040517f1e4fbdf70000000000000000000000000000000000000000000000000000000081525f6004820152fd5b73ffffffffffffffffffffffffffffffffffffffff7f9016d09d72d40fdae2fd8ceac6b6234c7706214fd39c1cd1e609a0528c1993005416330361136a57565b60246040517f118cdaa7000000000000000000000000000000000000000000000000000000008152336004820152fd5b60ff7ff0c57e16840df040f15088dc2f81fe391c3923bec73e23a9662efc9c229c6a005460401c16156113c957565b60046040517fd7e6bcf8000000000000000000000000000000000000000000000000000000008152fd5b90611432575080511561140857805190602001fd5b60046040517f1425ea42000000000000000000000000000000000000000000000000000000008152fd5b8151158061148a575b611443575090565b60249073ffffffffffffffffffffffffffffffffffffffff604051917f9996b315000000000000000000000000000000000000000000000000000000008352166004820152fd5b50803b1561143b56fea2646970667358221220d0c435b60e90d781cdb3ac9819d2294305a9131327e0afb0a0bbdb833d4c5b1f64736f6c63430008190033",
  "linkReferences": {},
  "deployedLinkReferences": {}
}