{
  "_format": "hh-sol-artifact-1",
  "contractName": "MockOracle",
  "sourceName": "contracts/mock/MockOracle.sol",
  "abi": [
    {
      "inputs": [
        {
          "internalType": "address",
          "name": "usdt",
          "type": "address"
        },
        {
          "internalType": "address",
          "name": "_usdc",
          "type": "address"
        },
        {
          "internalType": "address",
          "name": "_wmatic",
          "type": "address"
        },
        {
          "internalType": "address",
          "name": "weth",
          "type": "address"
        },
        {
          "internalType": "address",
          "name": "wbtc",
          "type": "address"
        }
      ],
      "stateMutability": "nonpayable",
      "type": "constructor"
    },
    {
      "inputs": [],
      "name": "USDC",
      "outputs": [
        {
          "internalType": "address",
          "name": "",
          "type": "address"
        }
      ],
      "stateMutability": "view",
      "type": "function"
    },
    {
      "inputs": [],
      "name": "USDC_TO_USDT_RATE",
      "outputs": [
        {
          "internalType": "uint256",
          "name": "",
          "type": "uint256"
        }
      ],
      "stateMutability": "view",
      "type": "function"
    },
    {
      "inputs": [],
      "name": "USDC_TO_WBTC_RATE",
      "outputs": [
        {
          "internalType": "uint256",
          "name": "",
          "type": "uint256"
        }
      ],
      "stateMutability": "view",
      "type": "function"
    },
    {
      "inputs": [],
      "name": "USDC_TO_WETH_RATE",
      "outputs": [
        {
          "internalType": "uint256",
          "name": "",
          "type": "uint256"
        }
      ],
      "stateMutability": "view",
      "type": "function"
    },
    {
      "inputs": [],
      "name": "USDC_TO_WMATIC_RATE",
      "outputs": [
        {
          "internalType": "uint256",
          "name": "",
          "type": "uint256"
        }
      ],
      "stateMutability": "view",
      "type": "function"
    },
    {
      "inputs": [],
      "name": "USDT_TO_USDC_RATE",
      "outputs": [
        {
          "internalType": "uint256",
          "name": "",
          "type": "uint256"
        }
      ],
      "stateMutability": "view",
      "type": "function"
    },
    {
      "inputs": [],
      "name": "USDT_TO_WBTC_RATE",
      "outputs": [
        {
          "internalType": "uint256",
          "name": "",
          "type": "uint256"
        }
      ],
      "stateMutability": "view",
      "type": "function"
    },
    {
      "inputs": [],
      "name": "USDT_TO_WETH_RATE",
      "outputs": [
        {
          "internalType": "uint256",
          "name": "",
          "type": "uint256"
        }
      ],
      "stateMutability": "view",
      "type": "function"
    },
    {
      "inputs": [],
      "name": "USDT_TO_WMATIC_RATE",
      "outputs": [
        {
          "internalType": "uint256",
          "name": "",
          "type": "uint256"
        }
      ],
      "stateMutability": "view",
      "type": "function"
    },
    {
      "inputs": [],
      "name": "WBTC_TO_USDC_RATE",
      "outputs": [
        {
          "internalType": "uint256",
          "name": "",
          "type": "uint256"
        }
      ],
      "stateMutability": "view",
      "type": "function"
    },
    {
      "inputs": [],
      "name": "WBTC_TO_USDT_RATE",
      "outputs": [
        {
          "internalType": "uint256",
          "name": "",
          "type": "uint256"
        }
      ],
      "stateMutability": "view",
      "type": "function"
    },
    {
      "inputs": [],
      "name": "WBTC_TO_WETH_RATE",
      "outputs": [
        {
          "internalType": "uint256",
          "name": "",
          "type": "uint256"
        }
      ],
      "stateMutability": "view",
      "type": "function"
    },
    {
      "inputs": [],
      "name": "WBTC_TO_WMATIC_RATE",
      "outputs": [
        {
          "internalType": "uint256",
          "name": "",
          "type": "uint256"
        }
      ],
      "stateMutability": "view",
      "type": "function"
    },
    {
      "inputs": [],
      "name": "WETH_TO_USDC_RATE",
      "outputs": [
        {
          "internalType": "uint256",
          "name": "",
          "type": "uint256"
        }
      ],
      "stateMutability": "view",
      "type": "function"
    },
    {
      "inputs": [],
      "name": "WETH_TO_USDT_RATE",
      "outputs": [
        {
          "internalType": "uint256",
          "name": "",
          "type": "uint256"
        }
      ],
      "stateMutability": "view",
      "type": "function"
    },
    {
      "inputs": [],
      "name": "WETH_TO_WBTC_RATE",
      "outputs": [
        {
          "internalType": "uint256",
          "name": "",
          "type": "uint256"
        }
      ],
      "stateMutability": "view",
      "type": "function"
    },
    {
      "inputs": [],
      "name": "WETH_TO_WMATIC_RATE",
      "outputs": [
        {
          "internalType": "uint256",
          "name": "",
          "type": "uint256"
        }
      ],
      "stateMutability": "view",
      "type": "function"
    },
    {
      "inputs": [],
      "name": "WMATIC_TO_USDC_RATE",
      "outputs": [
        {
          "internalType": "uint256",
          "name": "",
          "type": "uint256"
        }
      ],
      "stateMutability": "view",
      "type": "function"
    },
    {
      "inputs": [],
      "name": "WMATIC_TO_USDT_RATE",
      "outputs": [
        {
          "internalType": "uint256",
          "name": "",
          "type": "uint256"
        }
      ],
      "stateMutability": "view",
      "type": "function"
    },
    {
      "inputs": [],
      "name": "WMATIC_TO_WBTC_RATE",
      "outputs": [
        {
          "internalType": "uint256",
          "name": "",
          "type": "uint256"
        }
      ],
      "stateMutability": "view",
      "type": "function"
    },
    {
      "inputs": [],
      "name": "WMATIC_TO_WETH_RATE",
      "outputs": [
        {
          "internalType": "uint256",
          "name": "",
          "type": "uint256"
        }
      ],
      "stateMutability": "view",
      "type": "function"
    },
    {
      "inputs": [],
      "name": "WNATIVE",
      "outputs": [
        {
          "internalType": "address",
          "name": "",
          "type": "address"
        }
      ],
      "stateMutability": "view",
      "type": "function"
    },
    {
      "inputs": [
        {
          "internalType": "address",
          "name": "fromToken",
          "type": "address"
        },
        {
          "internalType": "address",
          "name": "toToken",
          "type": "address"
        },
        {
          "internalType": "uint256",
          "name": "amount",
          "type": "uint256"
        }
      ],
      "name": "convert",
      "outputs": [
        {
          "internalType": "uint256",
          "name": "valuation",
          "type": "uint256"
        }
      ],
      "stateMutability": "view",
      "type": "function"
    },
    {
      "inputs": [
        {
          "internalType": "address",
          "name": "fromToken",
          "type": "address"
        },
        {
          "internalType": "address",
          "name": "toToken",
          "type": "address"
        },
        {
          "internalType": "uint256",
          "name": "amount",
          "type": "uint256"
        }
      ],
      "name": "convertScaled",
      "outputs": [
        {
          "internalType": "uint256",
          "name": "valuation",
          "type": "uint256"
        }
      ],
      "stateMutability": "view",
      "type": "function"
    },
    {
      "inputs": [
        {
          "internalType": "address",
          "name": "",
          "type": "address"
        },
        {
          "internalType": "address",
          "name": "",
          "type": "address"
        }
      ],
      "name": "rates",
      "outputs": [
        {
          "internalType": "uint256",
          "name": "",
          "type": "uint256"
        }
      ],
      "stateMutability": "view",
      "type": "function"
    },
    {
      "inputs": [],
      "name": "treasury",
      "outputs": [
        {
          "internalType": "address",
          "name": "",
          "type": "address"
        }
      ],
      "stateMutability": "view",
      "type": "function"
    }
  ],
  "bytecode": "0x608060405234801561000f575f80fd5b50604051610c53380380610c5383398101604081905261002e9161028c565b600280546001600160a01b039485166001600160a01b031991821617825560018054968616968216871781556003805490921633179091559584165f81815260208181526040808320988352978152878220670ddc9893b8f6933190558354871682528782206c110f11bc46bc3efcc5b8ff1223905593861680825287822066052de6f3e9958f90559486168082528782206ad47d67cce9223fad7de347905585825281855287822083835285528782206824efc5d2223b2ab2b290558354871682528782206d2d9856fc421a9fd095f8b44c49db9055885487168252878220682506936e734ac2f92690558082528782206c0236febc16a26943df322289be90558854871682528185528782208383528552878220670de435a2a433cf4890558854871682528185528782208683528552878220660533304f826d31905588548716825281855287822084548816835285528782206c110dcba2e6f97b2a41a7eba1b8905588548716825281855287822081835285528782206ad4801858112018c8850bae905583548716825281855287822086835285528782206104389055835487168252818552878220818352855287822065ac76a57eb9a490558354871682528185528782208954881683528552878220620b32d190558354871682528185528782208383528552878220620b68f7905581528084528681209254861681529190925284812069011de1930ce9ab44b5a190559454909216845282842063e163500a9081905591845282842091909155825290206254dddd90556102ed565b80516001600160a01b0381168114610287575f80fd5b919050565b5f805f805f60a086880312156102a0575f80fd5b6102a986610271565b94506102b760208701610271565b93506102c560408701610271565b92506102d360608701610271565b91506102e160808701610271565b90509295509295909350565b610959806102fa5f395ff3fe608060405234801561000f575f80fd5b5060043610610187575f3560e01c806389a30271116100d9578063b381cf4011610093578063c01849831161006e578063c018498314610329578063d135e3be14610333578063e2338e7214610343578063e30f689214610355575f80fd5b8063b381cf40146102f3578063b537d24b14610306578063b9e9381014610315575f80fd5b806389a302711461028e5780638e5139ed146102a157806397db8e02146102b6578063a58a7f8a146102c4578063ae3bcc96146102d3578063b27b5e75146102e0575f80fd5b8063431463991161014457806353ff493e1161011f57806353ff493e146102215780635fc8cd691461023157806361d027b31461023c5780637b0cf44d14610267575f80fd5b806343146399146101f1578063443dc789146101fb5780635107e94e1461020d575f80fd5b8063020987191461018b5780630e091762146101ac578063187029b8146101b65780631a1e4a1f146101bf578063248391ff146101d35780634039e687146101e6575b5f80fd5b610199660533304f826d3181565b6040519081526020015b60405180910390f35b610199620b68f781565b61019961043881565b6101996c110f11bc46bc3efcc5b8ff122381565b6101996101e136600461073f565b610366565b61019963e163500a81565b6101996254dddd81565b6101996ad47d67cce9223fad7de34781565b6101996c110dcba2e6f97b2a41a7eba1b881565b610199682506936e734ac2f92681565b61019963df77b36f81565b60035461024f906001600160a01b031681565b6040516001600160a01b0390911681526020016101a3565b610199610275366004610778565b5f60208181529281526040808220909352908152205481565b60015461024f906001600160a01b031681565b6101996d2d9856fc421a9fd095f8b44c49db81565b61019966052de6f3e9958f81565b610199670ddc9893b8f6933181565b61019965ac76a57eb9a481565b6101996102ee36600461073f565b610520565b60025461024f906001600160a01b031681565b610199670de435a2a433cf4881565b6101996c0236febc16a26943df322289be81565b610199620b32d181565b6101996824efc5d2223b2ab2b281565b6101996ad4801858112018c8850bae81565b61019969011de1930ce9ab44b5a181565b5f805f856001600160a01b031663313ce5676040518163ffffffff1660e01b8152600401602060405180830381865afa1580156103a5573d5f803e3d5ffd5b505050506040513d601f19601f820116820180604052508101906103c991906107a9565b90505f856001600160a01b031663313ce5676040518163ffffffff1660e01b8152600401602060405180830381865afa158015610408573d5f803e3d5ffd5b505050506040513d601f19601f8201168201806040525081019061042c91906107a9565b6001600160a01b038089165f90815260208181526040808320938b16835292905220549350905061045e81600a6108c6565b61046983600a6108c6565b61047390856108d4565b61047d91906108eb565b92505f8160ff168360ff16106104d357610497828461090a565b6104a290600a6108c6565b9050670de0b6b3a7640000846104b883896108eb565b6104c291906108d4565b6104cc91906108eb565b9450610515565b6104dd838361090a565b6104e890600a6108c6565b9050670de0b6b3a7640000846104fe83896108d4565b61050891906108d4565b61051291906108eb565b94505b505050509392505050565b5f805f856001600160a01b031663313ce5676040518163ffffffff1660e01b8152600401602060405180830381865afa15801561055f573d5f803e3d5ffd5b505050506040513d601f19601f8201168201806040525081019061058391906107a9565b90505f856001600160a01b031663313ce5676040518163ffffffff1660e01b8152600401602060405180830381865afa1580156105c2573d5f803e3d5ffd5b505050506040513d601f19601f820116820180604052508101906105e691906107a9565b6001600160a01b038089165f90815260208181526040808320938b16835292905220549350905061061881600a6108c6565b61062383600a6108c6565b61062d90856108d4565b61063791906108eb565b92505f808061064784601261090a565b61065290600a6108c6565b90508360ff168560ff160361068557670de0b6b3a7640000610674878a6108d4565b61067e91906108eb565b965061070c565b8360ff168560ff1611156106c95761069d848661090a565b6106a890600a6108c6565b92506106b483896108eb565b9150670de0b6b3a764000061067487846108d4565b6106d3858561090a565b6106de90600a6108c6565b92506106ea83896108d4565b9150670de0b6b3a76400006106ff87846108d4565b61070991906108eb565b96505b61071681886108d4565b9a9950505050505050505050565b80356001600160a01b038116811461073a575f80fd5b919050565b5f805f60608486031215610751575f80fd5b61075a84610724565b925061076860208501610724565b9150604084013590509250925092565b5f8060408385031215610789575f80fd5b61079283610724565b91506107a060208401610724565b90509250929050565b5f602082840312156107b9575f80fd5b815160ff811681146107c9575f80fd5b9392505050565b634e487b7160e01b5f52601160045260245ffd5b600181815b8085111561081e57815f1904821115610804576108046107d0565b8085161561081157918102915b93841c93908002906107e9565b509250929050565b5f82610834575060016108c0565b8161084057505f6108c0565b816001811461085657600281146108605761087c565b60019150506108c0565b60ff841115610871576108716107d0565b50506001821b6108c0565b5060208310610133831016604e8410600b841016171561089f575081810a6108c0565b6108a983836107e4565b805f19048211156108bc576108bc6107d0565b0290505b92915050565b5f6107c960ff841683610826565b80820281158282048414176108c0576108c06107d0565b5f8261090557634e487b7160e01b5f52601260045260245ffd5b500490565b60ff82811682821603908111156108c0576108c06107d056fea26469706673582212208c225452b3ccb307944d78fef2e6e3dacc0f24130057b5edca9bd4530a93014e64736f6c63430008190033",
  "linkReferences": {},
  "deployedLinkReferences": {}
}