{
  "_format": "hh-sol-artifact-1",
  "contractName": "MockOracle",
  "sourceName": "contracts/mock/MockOracle.sol",
  "abi": [
    {
      "inputs": [
        {
          "internalType": "address",
          "name": "usdt",
          "type": "address"
        },
        {
          "internalType": "address",
          "name": "_usdc",
          "type": "address"
        },
        {
          "internalType": "address",
          "name": "_wmatic",
          "type": "address"
        },
        {
          "internalType": "address",
          "name": "weth",
          "type": "address"
        },
        {
          "internalType": "address",
          "name": "wbtc",
          "type": "address"
        }
      ],
      "stateMutability": "nonpayable",
      "type": "constructor"
    },
    {
      "inputs": [],
      "name": "USDC",
      "outputs": [
        {
          "internalType": "address",
          "name": "",
          "type": "address"
        }
      ],
      "stateMutability": "view",
      "type": "function"
    },
    {
      "inputs": [],
      "name": "USDC_TO_USDT_RATE",
      "outputs": [
        {
          "internalType": "uint256",
          "name": "",
          "type": "uint256"
        }
      ],
      "stateMutability": "view",
      "type": "function"
    },
    {
      "inputs": [],
      "name": "USDC_TO_WBTC_RATE",
      "outputs": [
        {
          "internalType": "uint256",
          "name": "",
          "type": "uint256"
        }
      ],
      "stateMutability": "view",
      "type": "function"
    },
    {
      "inputs": [],
      "name": "USDC_TO_WETH_RATE",
      "outputs": [
        {
          "internalType": "uint256",
          "name": "",
          "type": "uint256"
        }
      ],
      "stateMutability": "view",
      "type": "function"
    },
    {
      "inputs": [],
      "name": "USDC_TO_WMATIC_RATE",
      "outputs": [
        {
          "internalType": "uint256",
          "name": "",
          "type": "uint256"
        }
      ],
      "stateMutability": "view",
      "type": "function"
    },
    {
      "inputs": [],
      "name": "USDT_TO_USDC_RATE",
      "outputs": [
        {
          "internalType": "uint256",
          "name": "",
          "type": "uint256"
        }
      ],
      "stateMutability": "view",
      "type": "function"
    },
    {
      "inputs": [],
      "name": "USDT_TO_WBTC_RATE",
      "outputs": [
        {
          "internalType": "uint256",
          "name": "",
          "type": "uint256"
        }
      ],
      "stateMutability": "view",
      "type": "function"
    },
    {
      "inputs": [],
      "name": "USDT_TO_WETH_RATE",
      "outputs": [
        {
          "internalType": "uint256",
          "name": "",
          "type": "uint256"
        }
      ],
      "stateMutability": "view",
      "type": "function"
    },
    {
      "inputs": [],
      "name": "USDT_TO_WMATIC_RATE",
      "outputs": [
        {
          "internalType": "uint256",
          "name": "",
          "type": "uint256"
        }
      ],
      "stateMutability": "view",
      "type": "function"
    },
    {
      "inputs": [],
      "name": "WBTC_TO_USDC_RATE",
      "outputs": [
        {
          "internalType": "uint256",
          "name": "",
          "type": "uint256"
        }
      ],
      "stateMutability": "view",
      "type": "function"
    },
    {
      "inputs": [],
      "name": "WBTC_TO_USDT_RATE",
      "outputs": [
        {
          "internalType": "uint256",
          "name": "",
          "type": "uint256"
        }
      ],
      "stateMutability": "view",
      "type": "function"
    },
    {
      "inputs": [],
      "name": "WBTC_TO_WETH_RATE",
      "outputs": [
        {
          "internalType": "uint256",
          "name": "",
          "type": "uint256"
        }
      ],
      "stateMutability": "view",
      "type": "function"
    },
    {
      "inputs": [],
      "name": "WBTC_TO_WMATIC_RATE",
      "outputs": [
        {
          "internalType": "uint256",
          "name": "",
          "type": "uint256"
        }
      ],
      "stateMutability": "view",
      "type": "function"
    },
    {
      "inputs": [],
      "name": "WETH_TO_USDC_RATE",
      "outputs": [
        {
          "internalType": "uint256",
          "name": "",
          "type": "uint256"
        }
      ],
      "stateMutability": "view",
      "type": "function"
    },
    {
      "inputs": [],
      "name": "WETH_TO_USDT_RATE",
      "outputs": [
        {
          "internalType": "uint256",
          "name": "",
          "type": "uint256"
        }
      ],
      "stateMutability": "view",
      "type": "function"
    },
    {
      "inputs": [],
      "name": "WETH_TO_WBTC_RATE",
      "outputs": [
        {
          "internalType": "uint256",
          "name": "",
          "type": "uint256"
        }
      ],
      "stateMutability": "view",
      "type": "function"
    },
    {
      "inputs": [],
      "name": "WETH_TO_WMATIC_RATE",
      "outputs": [
        {
          "internalType": "uint256",
          "name": "",
          "type": "uint256"
        }
      ],
      "stateMutability": "view",
      "type": "function"
    },
    {
      "inputs": [],
      "name": "WMATIC_TO_USDC_RATE",
      "outputs": [
        {
          "internalType": "uint256",
          "name": "",
          "type": "uint256"
        }
      ],
      "stateMutability": "view",
      "type": "function"
    },
    {
      "inputs": [],
      "name": "WMATIC_TO_USDT_RATE",
      "outputs": [
        {
          "internalType": "uint256",
          "name": "",
          "type": "uint256"
        }
      ],
      "stateMutability": "view",
      "type": "function"
    },
    {
      "inputs": [],
      "name": "WMATIC_TO_WBTC_RATE",
      "outputs": [
        {
          "internalType": "uint256",
          "name": "",
          "type": "uint256"
        }
      ],
      "stateMutability": "view",
      "type": "function"
    },
    {
      "inputs": [],
      "name": "WMATIC_TO_WETH_RATE",
      "outputs": [
        {
          "internalType": "uint256",
          "name": "",
          "type": "uint256"
        }
      ],
      "stateMutability": "view",
      "type": "function"
    },
    {
      "inputs": [],
      "name": "WNATIVE",
      "outputs": [
        {
          "internalType": "address",
          "name": "",
          "type": "address"
        }
      ],
      "stateMutability": "view",
      "type": "function"
    },
    {
      "inputs": [
        {
          "internalType": "address",
          "name": "fromToken",
          "type": "address"
        },
        {
          "internalType": "address",
          "name": "toToken",
          "type": "address"
        },
        {
          "internalType": "uint256",
          "name": "amount",
          "type": "uint256"
        }
      ],
      "name": "convert",
      "outputs": [
        {
          "internalType": "uint256",
          "name": "valuation",
          "type": "uint256"
        }
      ],
      "stateMutability": "view",
      "type": "function"
    },
    {
      "inputs": [
        {
          "internalType": "address",
          "name": "fromToken",
          "type": "address"
        },
        {
          "internalType": "address",
          "name": "toToken",
          "type": "address"
        },
        {
          "internalType": "uint256",
          "name": "amount",
          "type": "uint256"
        }
      ],
      "name": "convertScaled",
      "outputs": [
        {
          "internalType": "uint256",
          "name": "valuation",
          "type": "uint256"
        }
      ],
      "stateMutability": "view",
      "type": "function"
    },
    {
      "inputs": [
        {
          "internalType": "address",
          "name": "",
          "type": "address"
        },
        {
          "internalType": "address",
          "name": "",
          "type": "address"
        }
      ],
      "name": "rates",
      "outputs": [
        {
          "internalType": "uint256",
          "name": "",
          "type": "uint256"
        }
      ],
      "stateMutability": "view",
      "type": "function"
    },
    {
      "inputs": [],
      "name": "treasury",
      "outputs": [
        {
          "internalType": "address",
          "name": "",
          "type": "address"
        }
      ],
      "stateMutability": "view",
      "type": "function"
    }
  ],
  "bytecode": "0x608060405234801561000f575f80fd5b50604051610de9380380610de983398101604081905261002e9161028c565b600280546001600160a01b039485166001600160a01b031991821617825560018054968616968216871781556003805490921633179091559584165f81815260208181526040808320988352978152878220670ddc9893b8f6933190558354871682528782206c110f11bc46bc3efcc5b8ff1223905593861680825287822066052de6f3e9958f90559486168082528782206ad47d67cce9223fad7de347905585825281855287822083835285528782206824efc5d2223b2ab2b290558354871682528782206d2d9856fc421a9fd095f8b44c49db9055885487168252878220682506936e734ac2f92690558082528782206c0236febc16a26943df322289be90558854871682528185528782208383528552878220670de435a2a433cf4890558854871682528185528782208683528552878220660533304f826d31905588548716825281855287822084548816835285528782206c110dcba2e6f97b2a41a7eba1b8905588548716825281855287822081835285528782206ad4801858112018c8850bae905583548716825281855287822086835285528782206104389055835487168252818552878220818352855287822065ac76a57eb9a490558354871682528185528782208954881683528552878220620b32d190558354871682528185528782208383528552878220620b68f7905581528084528681209254861681529190925284812069011de1930ce9ab44b5a190559454909216845282842063e163500a9081905591845282842091909155825290206254dddd90556102ed565b80516001600160a01b0381168114610287575f80fd5b919050565b5f805f805f60a086880312156102a0575f80fd5b6102a986610271565b94506102b760208701610271565b93506102c560408701610271565b92506102d360608701610271565b91506102e160808701610271565b90509295509295909350565b610aef806102fa5f395ff3fe608060405234801561000f575f80fd5b50600436106101a5575f3560e01c806389a30271116100e8578063b381cf4011610093578063c01849831161006e578063c01849831461037b578063d135e3be14610385578063e2338e7214610395578063e30f6892146103a7575f80fd5b8063b381cf4014610338578063b537d24b14610358578063b9e9381014610367575f80fd5b8063a58a7f8a116100c3578063a58a7f8a14610309578063ae3bcc9614610318578063b27b5e7514610325575f80fd5b806389a30271146102c65780638e5139ed146102e657806397db8e02146102fb575f80fd5b8063431463991161015357806353ff493e1161012e57806353ff493e1461023f5780635fc8cd691461024f57806361d027b31461025a5780637b0cf44d1461029f575f80fd5b8063431463991461020f578063443dc789146102195780635107e94e1461022b575f80fd5b80631a1e4a1f116101835780631a1e4a1f146101dd578063248391ff146101f15780634039e68714610204575f80fd5b806302098719146101a95780630e091762146101ca578063187029b8146101d4575b5f80fd5b6101b7660533304f826d3181565b6040519081526020015b60405180910390f35b6101b7620b68f781565b6101b761043881565b6101b76c110f11bc46bc3efcc5b8ff122381565b6101b76101ff36600461086c565b6103b8565b6101b763e163500a81565b6101b76254dddd81565b6101b76ad47d67cce9223fad7de34781565b6101b76c110dcba2e6f97b2a41a7eba1b881565b6101b7682506936e734ac2f92681565b6101b763df77b36f81565b60035461027a9073ffffffffffffffffffffffffffffffffffffffff1681565b60405173ffffffffffffffffffffffffffffffffffffffff90911681526020016101c1565b6101b76102ad3660046108a5565b5f60208181529281526040808220909352908152205481565b60015461027a9073ffffffffffffffffffffffffffffffffffffffff1681565b6101b76d2d9856fc421a9fd095f8b44c49db81565b6101b766052de6f3e9958f81565b6101b7670ddc9893b8f6933181565b6101b765ac76a57eb9a481565b6101b761033336600461086c565b6105df565b60025461027a9073ffffffffffffffffffffffffffffffffffffffff1681565b6101b7670de435a2a433cf4881565b6101b76c0236febc16a26943df322289be81565b6101b7620b32d181565b6101b76824efc5d2223b2ab2b281565b6101b76ad4801858112018c8850bae81565b6101b769011de1930ce9ab44b5a181565b5f805f8573ffffffffffffffffffffffffffffffffffffffff1663313ce5676040518163ffffffff1660e01b8152600401602060405180830381865afa158015610404573d5f803e3d5ffd5b505050506040513d601f19601f8201168201806040525081019061042891906108d6565b90505f8573ffffffffffffffffffffffffffffffffffffffff1663313ce5676040518163ffffffff1660e01b8152600401602060405180830381865afa158015610474573d5f803e3d5ffd5b505050506040513d601f19601f8201168201806040525081019061049891906108d6565b90505f6104a683600a610a43565b90505f6104b483600a610a43565b73ffffffffffffffffffffffffffffffffffffffff808b165f90815260208181526040808320938d168352929052205495509050806104f38387610a51565b6104fd9190610a68565b94505f808460ff168660ff160361053957670de0b6b3a7640000610521888b610a51565b61052b9190610a68565b9750505050505050506105d8565b8460ff168660ff161061058d576105508587610aa0565b61055b90600a610a43565b9150610567828a610a68565b9050670de0b6b3a764000061057c8883610a51565b6105869190610a68565b97506105d0565b6105978686610aa0565b6105a290600a610a43565b91506105ae828a610a51565b9050670de0b6b3a76400006105c38883610a51565b6105cd9190610a68565b97505b505050505050505b9392505050565b5f805f8573ffffffffffffffffffffffffffffffffffffffff1663313ce5676040518163ffffffff1660e01b8152600401602060405180830381865afa15801561062b573d5f803e3d5ffd5b505050506040513d601f19601f8201168201806040525081019061064f91906108d6565b90505f8573ffffffffffffffffffffffffffffffffffffffff1663313ce5676040518163ffffffff1660e01b8152600401602060405180830381865afa15801561069b573d5f803e3d5ffd5b505050506040513d601f19601f820116820180604052508101906106bf91906108d6565b90505f6106cd83600a610a43565b90505f6106db83600a610a43565b73ffffffffffffffffffffffffffffffffffffffff808b165f90815260208181526040808320938d1683529290522054955090508061071a8387610a51565b6107249190610a68565b94505f8080610734866012610aa0565b61073f90600a610a43565b90508560ff168760ff160361078657670de0b6b3a7640000610761898c610a51565b61076b9190610a68565b9850610777818a610a51565b985050505050505050506105d8565b8560ff168760ff16106107e65761079d8688610aa0565b6107a890600a610a43565b92506107b4838b610a68565b9150670de0b6b3a76400006107c98984610a51565b6107d39190610a68565b98506107df818a610a51565b9850610835565b6107f08787610aa0565b6107fb90600a610a43565b9250610807838b610a51565b9150670de0b6b3a764000061081c8984610a51565b6108269190610a68565b9850610832818a610a51565b98505b50505050505050509392505050565b803573ffffffffffffffffffffffffffffffffffffffff81168114610867575f80fd5b919050565b5f805f6060848603121561087e575f80fd5b61088784610844565b925061089560208501610844565b9150604084013590509250925092565b5f80604083850312156108b6575f80fd5b6108bf83610844565b91506108cd60208401610844565b90509250929050565b5f602082840312156108e6575f80fd5b815160ff811681146105d8575f80fd5b7f4e487b71000000000000000000000000000000000000000000000000000000005f52601160045260245ffd5b600181815b8085111561097c57817fffffffffffffffffffffffffffffffffffffffffffffffffffffffffffffffff04821115610962576109626108f6565b8085161561096f57918102915b93841c9390800290610928565b509250929050565b5f8261099257506001610a3d565b8161099e57505f610a3d565b81600181146109b457600281146109be576109da565b6001915050610a3d565b60ff8411156109cf576109cf6108f6565b50506001821b610a3d565b5060208310610133831016604e8410600b84101617156109fd575081810a610a3d565b610a078383610923565b807fffffffffffffffffffffffffffffffffffffffffffffffffffffffffffffffff04821115610a3957610a396108f6565b0290505b92915050565b5f6105d860ff841683610984565b8082028115828204841417610a3d57610a3d6108f6565b5f82610a9b577f4e487b71000000000000000000000000000000000000000000000000000000005f52601260045260245ffd5b500490565b60ff8281168282160390811115610a3d57610a3d6108f656fea264697066735822122014a80ddea42c5c66cf5d1075e0a830943cfbd879366e215033f041b2f308c5dc64736f6c63430008190033",
  "linkReferences": {},
  "deployedLinkReferences": {}
}