{
    "contractName": "BBronze",
    "abi": [
        {
            "inputs": [],
            "name": "getColor",
            "outputs": [
                {
                    "internalType": "bytes32",
                    "name": "",
                    "type": "bytes32"
                }
            ],
            "stateMutability": "view",
            "type": "function"
        }
    ],
    "bytecode": "6080604052348015600e575f80fd5b50607c80601a5f395ff3fe6080604052348015600e575f80fd5b50600436106026575f3560e01c80639a86139b14602a575b5f80fd5b6542524f4e5a4560d01b60405190815260200160405180910390f3fea2646970667358221220acb1f97454f3bbcfc89df4950c5f96b3818f4e5da33250de3d74f25dcf5d5beb64736f6c63430008190033",
    "sourcePath": "c:/Users/Utente/Source/repos/baluni-contracts/contracts/pools/balancer/BColor.sol",
    "compiler": {
        "name": "solc",
        "version": "0.8.25+commit.b61c2a91"
    },
    "functionHashes": {
        "getColor()": "9a86139b"
    },
    "gasEstimates": {
        "creation": {
            "codeDepositCost": "24800",
            "executionCost": "73",
            "totalCost": "24873"
        },
        "external": {
            "getColor()": "151"
        }
    }
}