{
  "_format": "hh-sol-artifact-1",
  "contractName": "BaluniV1Agent",
  "sourceName": "contracts/orchestators/BaluniV1Agent.sol",
  "abi": [
    {
      "inputs": [
        {
          "internalType": "address",
          "name": "_factory",
          "type": "address"
        }
      ],
      "stateMutability": "nonpayable",
      "type": "constructor"
    },
    {
      "inputs": [
        {
          "components": [
            {
              "internalType": "address",
              "name": "to",
              "type": "address"
            },
            {
              "internalType": "uint256",
              "name": "value",
              "type": "uint256"
            },
            {
              "internalType": "bytes",
              "name": "data",
              "type": "bytes"
            }
          ],
          "internalType": "struct BaluniV1Agent.Call[]",
          "name": "calls",
          "type": "tuple[]"
        },
        {
          "internalType": "address[]",
          "name": "tokensReturn",
          "type": "address[]"
        }
      ],
      "name": "execute",
      "outputs": [],
      "stateMutability": "nonpayable",
      "type": "function"
    },
    {
      "inputs": [],
      "name": "getFactory",
      "outputs": [
        {
          "internalType": "address",
          "name": "",
          "type": "address"
        }
      ],
      "stateMutability": "view",
      "type": "function"
    },
    {
      "inputs": [],
      "name": "getRouter",
      "outputs": [
        {
          "internalType": "address",
          "name": "",
          "type": "address"
        }
      ],
      "stateMutability": "view",
      "type": "function"
    },
    {
      "inputs": [
        {
          "internalType": "address",
          "name": "_owner",
          "type": "address"
        }
      ],
      "name": "initialize",
      "outputs": [],
      "stateMutability": "nonpayable",
      "type": "function"
    },
    {
      "inputs": [],
      "name": "owner",
      "outputs": [
        {
          "internalType": "address",
          "name": "",
          "type": "address"
        }
      ],
      "stateMutability": "view",
      "type": "function"
    }
  ],
  "bytecode": "0x60806040523461002f576100196100146100f4565b61018f565b610021610034565b61168061019d823961168090f35b61003a565b60405190565b5f80fd5b601f801991011690565b634e487b7160e01b5f52604160045260245ffd5b906100669061003e565b810190811060018060401b0382111761007e57604052565b610048565b9061009661008f610034565b928361005c565b565b5f80fd5b60018060a01b031690565b6100b09061009c565b90565b6100bc816100a7565b036100c357565b5f80fd5b905051906100d4826100b3565b565b906020828203126100ef576100ec915f016100c7565b90565b610098565b61011261181d8038038061010781610083565b9283398101906100d6565b90565b5f1b90565b9061012b60018060a01b0391610115565b9181191691161790565b90565b61014c6101476101519261009c565b610135565b61009c565b90565b61015d90610138565b90565b61016990610154565b90565b90565b9061018461017f61018b92610160565b61016c565b825461011a565b9055565b61019a90600161016f565b56fe60806040526004361015610013575b6105b9565b61001d5f3561006c565b806388cc58e4146100675780638da5cb5b14610062578063b0f479a11461005d578063c4d66de8146100585763eedc3c500361000e57610585565b61020f565b610190565b61015b565b6100d6565b60e01c90565b60405190565b5f80fd5b5f80fd5b5f91031261008a57565b61007c565b73ffffffffffffffffffffffffffffffffffffffff1690565b6100b19061008f565b90565b6100bd906100a8565b9052565b91906100d4905f602085019401906100b4565b565b34610106576100e6366004610080565b6101026100f16105e7565b6100f9610072565b918291826100c1565b0390f35b610078565b1c90565b73ffffffffffffffffffffffffffffffffffffffff1690565b61013890600861013d930261010b565b61010f565b90565b9061014b9154610128565b90565b6101585f80610140565b90565b3461018b5761016b366004610080565b61018761017661014e565b61017e610072565b918291826100c1565b0390f35b610078565b346101c0576101a0366004610080565b6101bc6101ab6106b3565b6101b3610072565b918291826100c1565b0390f35b610078565b5f80fd5b6101d2816100a8565b036101d957565b5f80fd5b905035906101ea826101c9565b565b9060208282031261020557610202915f016101dd565b90565b61007c565b5f0190565b3461023d576102276102223660046101ec565b6108f9565b61022f610072565b806102398161020a565b0390f35b610078565b5f80fd5b601f801991011690565b7f4e487b71000000000000000000000000000000000000000000000000000000005f52604160045260245ffd5b9061028790610246565b810190811067ffffffffffffffff8211176102a157604052565b610250565b906102b96102b2610072565b928361027d565b565b67ffffffffffffffff81116102d35760208091020190565b610250565b5f80fd5b5f80fd5b5f80fd5b90565b6102f0816102e4565b036102f757565b5f80fd5b90503590610308826102e7565b565b5f80fd5b67ffffffffffffffff811161032c57610328602091610246565b0190565b610250565b90825f939282370152565b9092919261035161034c8261030e565b6102a6565b9381855260208501908284011161036d5761036b92610331565b565b61030a565b9080601f830112156103905781602061038d9335910161033c565b90565b610242565b9190916060818403126103f9576103ac60606102a6565b926103b9815f84016101dd565b5f8501526103ca81602084016102fb565b6020850152604082013567ffffffffffffffff81116103f4576103ed9201610372565b6040830152565b6102e0565b6102dc565b92919061041261040d826102bb565b6102a6565b93818552602080860192028101918383116104695781905b838210610438575050505050565b813567ffffffffffffffff8111610464576020916104598784938701610395565b81520191019061042a565b610242565b6102d8565b9080601f8301121561048c57816020610489933591016103fe565b90565b610242565b67ffffffffffffffff81116104a95760208091020190565b610250565b909291926104c36104be82610491565b6102a6565b938185526020808601920283019281841161050057915b8383106104e75750505050565b602080916104f584866101dd565b8152019201916104da565b6102d8565b9080601f8301121561052357816020610520933591016104ae565b90565b610242565b919091604081840312610580575f81013567ffffffffffffffff811161057b578361055491830161046e565b92602082013567ffffffffffffffff8111610576576105739201610505565b90565b6101c5565b6101c5565b61007c565b346105b45761059e610598366004610528565b90610c29565b6105a6610072565b806105b08161020a565b0390f35b610078565b5f80fd5b5f90565b5f1c90565b6105d26105d7916105c1565b61010f565b90565b6105e490546105c6565b90565b6105ef6105bd565b506105fa60016105da565b90565b90565b61061461060f6106199261008f565b6105fd565b61008f565b90565b61062590610600565b90565b6106319061061c565b90565b61063d90610600565b90565b61064990610634565b90565b60e01b90565b9050519061065f826101c9565b565b9060208282031261067a57610677915f01610652565b90565b61007c565b610687610072565b3d5f823e3d90fd5b61069890610600565b90565b6106a49061068f565b90565b6106b090610634565b90565b6106bb6105bd565b506106f160206106db6106d66106d160016105da565b610628565b610640565b635ab1bd53906106e9610072565b93849261064c565b825281806107016004820161020a565b03915afa9081156107c75761072b610726610741936020935f9161079a575b5061069b565b6106a7565b6304cc732590610739610072565b93849261064c565b825281806107516004820161020a565b03915afa908115610795575f91610767575b5090565b610788915060203d811161078e575b610780818361027d565b810190610661565b5f610763565b503d610776565b61067f565b6107ba9150843d81116107c0575b6107b2818361027d565b810190610661565b5f610720565b503d6107a8565b61067f565b90565b6107e36107de6107e8926107cc565b6105fd565b61008f565b90565b6107f4906107cf565b90565b60209181520190565b5f7f416c726561647920696e697469616c697a656400000000000000000000000000910152565b61083460136020926107f7565b61083d81610800565b0190565b6108569060208101905f818303910152610827565b90565b1561086057565b610868610072565b7f08c379a00000000000000000000000000000000000000000000000000000000081528061089860048201610841565b0390fd5b5f1b90565b906108c073ffffffffffffffffffffffffffffffffffffffff9161089c565b9181191691161790565b6108d390610634565b90565b90565b906108ee6108e96108f5926108ca565b6108d6565b82546108a1565b9055565b61092f906109296109095f6105da565b61092361091d6109185f6107eb565b6100a8565b916100a8565b14610859565b5f6108d9565b61093a3360016108d9565b565b5f7f43616c6c61626c65206f6e6c792062792074686520726f757465720000000000910152565b610970601b6020926107f7565b6109798161093c565b0190565b6109929060208101905f818303910152610963565b90565b1561099c57565b6109a4610072565b7f08c379a0000000000000000000000000000000000000000000000000000000008152806109d46004820161097d565b0390fd5b90610a0591610a00336109fa6109f46109ef6106b3565b6100a8565b916100a8565b14610995565b610b7e565b565b610a1b610a16610a20926107cc565b6105fd565b6102e4565b90565b6001610a2f91016102e4565b90565b5190565b7f4e487b71000000000000000000000000000000000000000000000000000000005f52603260045260245ffd5b90610a6d82610a32565b811015610a7e576020809102010190565b610a36565b610a8d90516100a8565b90565b610a9a90516102e4565b90565b90610aaf610aaa8361030e565b6102a6565b918252565b606090565b3d5f14610ad457610ac93d610a9d565b903d5f602084013e5b565b610adc610ab4565b90610ad2565b5f7f42617463682063616c6c206661696c6564000000000000000000000000000000910152565b610b1660116020926107f7565b610b1f81610ae2565b0190565b610b389060208101905f818303910152610b09565b90565b15610b4257565b610b4a610072565b7f08c379a000000000000000000000000000000000000000000000000000000000815280610b7a60048201610b23565b0390fd5b91610b885f610a07565b5b80610ba4610b9e610b9987610a32565b6102e4565b916102e4565b1015610c1257610c0d90610c085f80610bc981610bc28a8790610a63565b5101610a83565b610be06020610bd98b8890610a63565b5101610a90565b6040610bed8b8890610a63565b51015190602082019151925af1610c02610ab9565b50610b3b565b610a23565b610b89565b509150610c2790610c2281610e11565b611222565b565b90610c33916109d8565b565b5f90565b90505190610c46826102e7565b565b90602082820312610c6157610c5e915f01610c39565b90565b61007c565b5190565b90610c7482610c66565b811015610c85576020809102010190565b610a36565b73eeeeeeeeeeeeeeeeeeeeeeeeeeeeeeeeeeeeeeee90565b610cab90610600565b90565b610cb790610ca2565b90565b610cc390610634565b90565b610ccf90610634565b90565b7f4e487b71000000000000000000000000000000000000000000000000000000005f52601160045260245ffd5b610d0e610d14919392936102e4565b926102e4565b91610d208382026102e4565b928184041490151715610d2f57565b610cd2565b7f4e487b71000000000000000000000000000000000000000000000000000000005f52601260045260245ffd5b610d6d610d73916102e4565b916102e4565b908115610d7e570490565b610d34565b151590565b610d9181610d83565b03610d9857565b5f80fd5b90505190610da982610d88565b565b90602082820312610dc457610dc1915f01610d9c565b90565b61007c565b610dd2906102e4565b9052565b916020610df7929493610df060408201965f8301906100b4565b0190610dc9565b565b610e0290610600565b90565b610e0e90610df9565b90565b90610e476020610e31610e2c610e2760016105da565b610628565b610640565b635ab1bd5390610e3f610072565b93849261064c565b82528180610e576004820161020a565b03915afa80156111f157610e72915f916111c3575b5061069b565b91610e976020610e81856106a7565b6304cc732590610e8f610072565b93849261064c565b82528180610ea76004820161020a565b03915afa9081156111be575f91611190575b5092610ec3610c35565b50610ee86020610ed2836106a7565b6385462d6f90610ee0610072565b93849261064c565b82528180610ef86004820161020a565b03915afa801561118b57610f1a602091610f30935f9161115e575b50936106a7565b634f4608a290610f28610072565b93849261064c565b82528180610f406004820161020a565b03915afa908115611159575f9161112b575b5091610f5d5f610a07565b5b80610f79610f73610f6e85610c66565b6102e4565b916102e4565b101561112357610f92610f8d838390610c6a565b610a83565b9081610fad610fa7610fa2610c8a565b6100a8565b916100a8565b145f14610ff357610fee9150610fe8610fda610fd3610fcb30610cc6565b318790610cff565b8790610d61565b610fe389610e05565b6115ed565b5b610a23565b610f5e565b61103b602061100961100485610cae565b610cba565b6370a082319061103061101b30610cc6565b92611024610072565b9586948593849361064c565b8352600483016100c1565b03915afa801561111e5761107161106b611064611076936020955f916110f1575b508990610cff565b8990610d61565b94610cae565b610cba565b9263a9059cbb9361109b5f8b93966110a661108f610072565b9889968795869461064c565b845260048401610dd6565b03925af19182156110ec57610fee926110c0575b50610fe9565b6110e09060203d81116110e5575b6110d8818361027d565b810190610dab565b6110ba565b503d6110ce565b61067f565b6111119150863d8111611117575b611109818361027d565b810190610c48565b5f61105c565b503d6110ff565b61067f565b505050509050565b61114c915060203d8111611152575b611144818361027d565b810190610c48565b5f610f52565b503d61113a565b61067f565b61117e9150833d8111611184575b611176818361027d565b810190610c48565b5f610f13565b503d61116c565b61067f565b6111b1915060203d81116111b7575b6111a9818361027d565b810190610661565b5f610eb9565b503d61119f565b61067f565b6111e4915060203d81116111ea575b6111dc818361027d565b810190610661565b5f610e6c565b503d6111d2565b61067f565b90565b61120d611208611212926111f6565b6105fd565b6102e4565b90565b61121f600a6111f9565b90565b61122b81610c66565b908161123f6112395f610a07565b916102e4565b11611249575b5050565b9091611253610c35565b5b80611267611261866102e4565b916102e4565b101561144c5761128061127b848390610c6a565b610a83565b908161129b611295611290610c8a565b6100a8565b916100a8565b145f146112fd576112cf91506112b030610cc6565b316112c36112bd5f610a07565b916102e4565b116112d4575b5b610a23565b611254565b6112f86112e86112e35f6105da565b610e05565b6112f130610cc6565b31906115ed565b6112c9565b611345602061131361130e85610cae565b610cba565b6370a082319061133a61132530610cc6565b9261132e610072565b9586948593849361064c565b8352600483016100c1565b03915afa908115611447575f91611419575b50918261137361136d611368611215565b6102e4565b916102e4565b11611384575b506112cf91506112ca565b611397611392602092610cae565b610cba565b9263a9059cbb936113c45f6113ab816105da565b93966113cf6113b8610072565b9889968795869461064c565b845260048401610dd6565b03925af1918215611414576112cf926113e8575b611379565b6114089060203d811161140d575b611400818361027d565b810190610dab565b6113e3565b503d6113f6565b61067f565b61143a915060203d8111611440575b611432818361027d565b810190610c48565b5f611357565b503d611428565b61067f565b509150505f80611245565b61146090610634565b90565b5f7f416464726573733a20696e73756666696369656e742062616c616e6365000000910152565b611497601d6020926107f7565b6114a081611463565b0190565b6114b99060208101905f81830391015261148a565b90565b156114c357565b6114cb610072565b7f08c379a0000000000000000000000000000000000000000000000000000000008152806114fb600482016114a4565b0390fd5b61150890610634565b90565b905090565b61151b5f809261150b565b0190565b61152890611510565b90565b60207f6563697069656e74206d61792068617665207265766572746564000000000000917f416464726573733a20756e61626c6520746f2073656e642076616c75652c20725f8201520152565b611585603a6040926107f7565b61158e8161152b565b0190565b6115a79060208101905f818303910152611578565b90565b156115b157565b6115b9610072565b7f08c379a0000000000000000000000000000000000000000000000000000000008152806115e960048201611592565b0390fd5b5f61164892611622829361161d61160330611457565b31611616611610866102e4565b916102e4565b10156114bc565b6114ff565b9061162b610072565b90816116368161151f565b03925af1611642610ab9565b506115aa565b56fea2646970667358221220c7b0b6a5047614f7da4310b4da483b8e1c4168e4e72e0645b14b479ea3a87c3e64736f6c63430008190033",
  "linkReferences": {},
  "deployedLinkReferences": {}
}