{
  "_format": "hh-sol-artifact-1",
  "contractName": "BaluniV1Agent",
  "sourceName": "contracts/orchestators/BaluniV1Agent.sol",
  "abi": [
    {
      "inputs": [
        {
          "internalType": "address",
          "name": "_factory",
          "type": "address"
        }
      ],
      "stateMutability": "nonpayable",
      "type": "constructor"
    },
    {
      "inputs": [
        {
          "components": [
            {
              "internalType": "address",
              "name": "to",
              "type": "address"
            },
            {
              "internalType": "uint256",
              "name": "value",
              "type": "uint256"
            },
            {
              "internalType": "bytes",
              "name": "data",
              "type": "bytes"
            }
          ],
          "internalType": "struct BaluniV1Agent.Call[]",
          "name": "calls",
          "type": "tuple[]"
        },
        {
          "internalType": "address[]",
          "name": "tokensReturn",
          "type": "address[]"
        }
      ],
      "name": "execute",
      "outputs": [],
      "stateMutability": "nonpayable",
      "type": "function"
    },
    {
      "inputs": [],
      "name": "getFactory",
      "outputs": [
        {
          "internalType": "address",
          "name": "",
          "type": "address"
        }
      ],
      "stateMutability": "view",
      "type": "function"
    },
    {
      "inputs": [],
      "name": "getRouter",
      "outputs": [
        {
          "internalType": "address",
          "name": "",
          "type": "address"
        }
      ],
      "stateMutability": "view",
      "type": "function"
    },
    {
      "inputs": [
        {
          "internalType": "address",
          "name": "_owner",
          "type": "address"
        }
      ],
      "name": "initialize",
      "outputs": [],
      "stateMutability": "nonpayable",
      "type": "function"
    },
    {
      "inputs": [],
      "name": "owner",
      "outputs": [
        {
          "internalType": "address",
          "name": "",
          "type": "address"
        }
      ],
      "stateMutability": "view",
      "type": "function"
    }
  ],
  "bytecode": "0x608034607057601f610f4a38819003918201601f19168301916001600160401b03831184841017607457808492602094604052833981010312607057516001600160a01b03811690819003607057600180546001600160a01b031916919091179055604051610ec190816100898239f35b5f80fd5b634e487b7160e01b5f52604160045260245ffdfe608060409080825260049081361015610016575f80fd5b5f3560e01c90816388cc58e414610a3b575080638da5cb5b146109ea578063b0f479a114610993578063c4d66de8146108a35763eedc3c5014610057575f80fd5b346104c957817ffffffffffffffffffffffffffffffffffffffffffffffffffffffffffffffffc3601126104c95767ffffffffffffffff9080358281116104c957366023820112156104c957808201356024916100b382610b18565b906100c087519283610aaa565b828252602092848484019160051b830101913683116104c957858101915b8383106107b0575050505082359485116104c957366023860112156104c957848401359461010b86610b18565b9561011888519788610aaa565b808752848488019160051b830101913683116104c95785859101915b838310610798575050505073ffffffffffffffffffffffffffffffffffffffff8061015d610b96565b16330361073d575f5b8251811015610216575f808361017c8487610c75565b5151168661018a8588610c75565b510151908b6101998689610c75565b510151918883519301915af16101ad610cb6565b50156101bb57600101610166565b606486601187878c51937f08c379a00000000000000000000000000000000000000000000000000000000085528401528201527f42617463682063616c6c206661696c65640000000000000000000000000000006044820152fd5b84878386898c600195828486600154168451928380927f5ab1bd530000000000000000000000000000000000000000000000000000000082525afa908115610733579086915f91610716575b50168251907f04cc732500000000000000000000000000000000000000000000000000000000825285828681845afa91821561070c575f926106dd575b508351907f85462d6f00000000000000000000000000000000000000000000000000000000825286828781845afa918215610491578693929188915f936106ab575b508651948580927f4f4608a20000000000000000000000000000000000000000000000000000000082525afa92831561049157908a9392915f93610679575b505f845b6104de575b50505050508551958661033857005b5f5b87811061034357005b80876103508b9385610c75565b511673eeeeeeeeeeeeeeeeeeeeeeeeeeeeeeeeeeeeeeee810361038d57504761037a575b0161033a565b610388885f54164790610d74565b610374565b85517f70a08231000000000000000000000000000000000000000000000000000000008152308882015291925087828681845afa9182156104d4579188918c94935f9261049b575b50600a82116103e7575b505050610374565b6104499394508a5f54165f8a8a51968795869485937fa9059cbb00000000000000000000000000000000000000000000000000000000855284016020909392919373ffffffffffffffffffffffffffffffffffffffff60408201951681520152565b03925af1801561049157908a9291610464575b8088916103df565b61048390883d8a1161048a575b61047b8183610aaa565b810190610d5c565b508a61045c565b503d610471565b85513d5f823e3d90fd5b92839195508092503d83116104cd575b6104b58183610aaa565b810103126104c9578a92889151908d6103d5565b5f80fd5b503d6104ab565b86513d5f823e3d90fd5b8a5181101561067457896104f2828d610c75565b511673eeeeeeeeeeeeeeeeeeeeeeeeeeeeeeeeeeeeeeee810361053757508490610530610528866105238647610ce5565b610d25565b8c8616610d74565b0184610324565b90919293945086517f70a08231000000000000000000000000000000000000000000000000000000008152308982015289818881855afa90811561066a57848b9288925f91610633575b5091610523610594926105ee9694610ce5565b90865f8c8c51968795869485937fa9059cbb00000000000000000000000000000000000000000000000000000000855284016020909392919373ffffffffffffffffffffffffffffffffffffffff60408201951681520152565b03925af1801561062957918c9594939291869261060c575b50610530565b610622908b3d8d1161048a5761047b8183610aaa565b508d610606565b87513d5f823e3d90fd5b939250505081813d8311610663575b61064c8183610aaa565b810103126104c95751899086908590610523610581565b503d610642565b88513d5f823e3d90fd5b610329565b935091508683813d81116106a4575b6106928183610aaa565b810103126104c957899251918b610320565b503d610688565b9450915083813d83116106d6575b6106c38183610aaa565b810103126104c95786869351918c6102e1565b503d6106b9565b6106fe919250863d8811610705575b6106f68183610aaa565b810190610b6a565b908961029f565b503d6106ec565b84513d5f823e3d90fd5b61072d9150863d8811610705576106f68183610aaa565b89610262565b83513d5f823e3d90fd5b606485601b86868b51937f08c379a00000000000000000000000000000000000000000000000000000000085528401528201527f43616c6c61626c65206f6e6c792062792074686520726f7574657200000000006044820152fd5b81906107a384610a89565b8152019101908490610134565b82358981116104c957820190606090817fffffffffffffffffffffffffffffffffffffffffffffffffffffffffffffffdc84360301126104c9578b519182018281108c821117610878578c52610807898401610a89565b825260449283810135898401526064810135908c82116104c9570191366043840112156104c9578c8a8401359361084961084086610b30565b92519283610aaa565b848252368686830101116104c9578a8581979682975f940183860137830101528d8201528152019201916100de565b8960418c7f4e487b71000000000000000000000000000000000000000000000000000000005f52525ffd5b50346104c95760207ffffffffffffffffffffffffffffffffffffffffffffffffffffffffffffffffc3601126104c95780359073ffffffffffffffffffffffffffffffffffffffff928383168093036104c9575f549384166109365750507fffffffffffffffffffffffff0000000000000000000000000000000000000000809216175f55339060015416176001555f80f35b90602060649251917f08c379a0000000000000000000000000000000000000000000000000000000008352820152601360248201527f416c726561647920696e697469616c697a6564000000000000000000000000006044820152fd5b82346104c9575f7ffffffffffffffffffffffffffffffffffffffffffffffffffffffffffffffffc3601126104c95760209073ffffffffffffffffffffffffffffffffffffffff6109e2610b96565b915191168152f35b82346104c9575f7ffffffffffffffffffffffffffffffffffffffffffffffffffffffffffffffffc3601126104c95760209073ffffffffffffffffffffffffffffffffffffffff5f54169051908152f35b346104c9575f7ffffffffffffffffffffffffffffffffffffffffffffffffffffffffffffffffc3601126104c95760209073ffffffffffffffffffffffffffffffffffffffff600154168152f35b359073ffffffffffffffffffffffffffffffffffffffff821682036104c957565b90601f7fffffffffffffffffffffffffffffffffffffffffffffffffffffffffffffffe0910116810190811067ffffffffffffffff821117610aeb57604052565b7f4e487b71000000000000000000000000000000000000000000000000000000005f52604160045260245ffd5b67ffffffffffffffff8111610aeb5760051b60200190565b67ffffffffffffffff8111610aeb57601f017fffffffffffffffffffffffffffffffffffffffffffffffffffffffffffffffe01660200190565b908160209103126104c9575173ffffffffffffffffffffffffffffffffffffffff811681036104c95790565b73ffffffffffffffffffffffffffffffffffffffff80600154169060405180927f5ab1bd5300000000000000000000000000000000000000000000000000000000825281600460209586935afa8015610c4d5783915f91610c58575b506004604051809481937f04cc7325000000000000000000000000000000000000000000000000000000008352165afa918215610c4d575f92610c3457505090565b610c4a9250803d10610705576106f68183610aaa565b90565b6040513d5f823e3d90fd5b610c6f9150823d8411610705576106f68183610aaa565b5f610bf2565b8051821015610c895760209160051b010190565b7f4e487b71000000000000000000000000000000000000000000000000000000005f52603260045260245ffd5b3d15610ce0573d90610cc782610b30565b91610cd56040519384610aaa565b82523d5f602084013e565b606090565b81810292918115918404141715610cf857565b7f4e487b71000000000000000000000000000000000000000000000000000000005f52601160045260245ffd5b8115610d2f570490565b7f4e487b71000000000000000000000000000000000000000000000000000000005f52601260045260245ffd5b908160209103126104c9575180151581036104c95790565b814710610e2d575f80809373ffffffffffffffffffffffffffffffffffffffff8294165af1610da1610cb6565b5015610da957565b60846040517f08c379a000000000000000000000000000000000000000000000000000000000815260206004820152603a60248201527f416464726573733a20756e61626c6520746f2073656e642076616c75652c207260448201527f6563697069656e74206d617920686176652072657665727465640000000000006064820152fd5b60646040517f08c379a000000000000000000000000000000000000000000000000000000000815260206004820152601d60248201527f416464726573733a20696e73756666696369656e742062616c616e63650000006044820152fdfea2646970667358221220b09f6b5994f9dad0dbf4b2aa5b84886623ec23baaec9a117135bfc368d4b89d564736f6c63430008190033",
  "linkReferences": {},
  "deployedLinkReferences": {}
}