{
  "_format": "hh-sol-artifact-1",
  "contractName": "MockRebalancer",
  "sourceName": "contracts/mock/MockRebalancer.sol",
  "abi": [
    {
      "inputs": [
        {
          "internalType": "address",
          "name": "usdt",
          "type": "address"
        },
        {
          "internalType": "address",
          "name": "_usdc",
          "type": "address"
        },
        {
          "internalType": "address",
          "name": "_wmatic",
          "type": "address"
        },
        {
          "internalType": "address",
          "name": "weth",
          "type": "address"
        },
        {
          "internalType": "address",
          "name": "wbtc",
          "type": "address"
        }
      ],
      "stateMutability": "nonpayable",
      "type": "constructor"
    },
    {
      "inputs": [],
      "name": "USDC",
      "outputs": [
        {
          "internalType": "address",
          "name": "",
          "type": "address"
        }
      ],
      "stateMutability": "view",
      "type": "function"
    },
    {
      "inputs": [],
      "name": "USDC_TO_USDT_RATE",
      "outputs": [
        {
          "internalType": "uint256",
          "name": "",
          "type": "uint256"
        }
      ],
      "stateMutability": "view",
      "type": "function"
    },
    {
      "inputs": [],
      "name": "USDC_TO_WBTC_RATE",
      "outputs": [
        {
          "internalType": "uint256",
          "name": "",
          "type": "uint256"
        }
      ],
      "stateMutability": "view",
      "type": "function"
    },
    {
      "inputs": [],
      "name": "USDC_TO_WETH_RATE",
      "outputs": [
        {
          "internalType": "uint256",
          "name": "",
          "type": "uint256"
        }
      ],
      "stateMutability": "view",
      "type": "function"
    },
    {
      "inputs": [],
      "name": "USDC_TO_WMATIC_RATE",
      "outputs": [
        {
          "internalType": "uint256",
          "name": "",
          "type": "uint256"
        }
      ],
      "stateMutability": "view",
      "type": "function"
    },
    {
      "inputs": [],
      "name": "USDT_TO_USDC_RATE",
      "outputs": [
        {
          "internalType": "uint256",
          "name": "",
          "type": "uint256"
        }
      ],
      "stateMutability": "view",
      "type": "function"
    },
    {
      "inputs": [],
      "name": "USDT_TO_WBTC_RATE",
      "outputs": [
        {
          "internalType": "uint256",
          "name": "",
          "type": "uint256"
        }
      ],
      "stateMutability": "view",
      "type": "function"
    },
    {
      "inputs": [],
      "name": "USDT_TO_WETH_RATE",
      "outputs": [
        {
          "internalType": "uint256",
          "name": "",
          "type": "uint256"
        }
      ],
      "stateMutability": "view",
      "type": "function"
    },
    {
      "inputs": [],
      "name": "USDT_TO_WMATIC_RATE",
      "outputs": [
        {
          "internalType": "uint256",
          "name": "",
          "type": "uint256"
        }
      ],
      "stateMutability": "view",
      "type": "function"
    },
    {
      "inputs": [],
      "name": "WBTC_TO_USDC_RATE",
      "outputs": [
        {
          "internalType": "uint256",
          "name": "",
          "type": "uint256"
        }
      ],
      "stateMutability": "view",
      "type": "function"
    },
    {
      "inputs": [],
      "name": "WBTC_TO_USDT_RATE",
      "outputs": [
        {
          "internalType": "uint256",
          "name": "",
          "type": "uint256"
        }
      ],
      "stateMutability": "view",
      "type": "function"
    },
    {
      "inputs": [],
      "name": "WBTC_TO_WETH_RATE",
      "outputs": [
        {
          "internalType": "uint256",
          "name": "",
          "type": "uint256"
        }
      ],
      "stateMutability": "view",
      "type": "function"
    },
    {
      "inputs": [],
      "name": "WBTC_TO_WMATIC_RATE",
      "outputs": [
        {
          "internalType": "uint256",
          "name": "",
          "type": "uint256"
        }
      ],
      "stateMutability": "view",
      "type": "function"
    },
    {
      "inputs": [],
      "name": "WETH_TO_USDC_RATE",
      "outputs": [
        {
          "internalType": "uint256",
          "name": "",
          "type": "uint256"
        }
      ],
      "stateMutability": "view",
      "type": "function"
    },
    {
      "inputs": [],
      "name": "WETH_TO_USDT_RATE",
      "outputs": [
        {
          "internalType": "uint256",
          "name": "",
          "type": "uint256"
        }
      ],
      "stateMutability": "view",
      "type": "function"
    },
    {
      "inputs": [],
      "name": "WETH_TO_WBTC_RATE",
      "outputs": [
        {
          "internalType": "uint256",
          "name": "",
          "type": "uint256"
        }
      ],
      "stateMutability": "view",
      "type": "function"
    },
    {
      "inputs": [],
      "name": "WETH_TO_WMATIC_RATE",
      "outputs": [
        {
          "internalType": "uint256",
          "name": "",
          "type": "uint256"
        }
      ],
      "stateMutability": "view",
      "type": "function"
    },
    {
      "inputs": [],
      "name": "WMATIC_TO_USDC_RATE",
      "outputs": [
        {
          "internalType": "uint256",
          "name": "",
          "type": "uint256"
        }
      ],
      "stateMutability": "view",
      "type": "function"
    },
    {
      "inputs": [],
      "name": "WMATIC_TO_USDT_RATE",
      "outputs": [
        {
          "internalType": "uint256",
          "name": "",
          "type": "uint256"
        }
      ],
      "stateMutability": "view",
      "type": "function"
    },
    {
      "inputs": [],
      "name": "WMATIC_TO_WBTC_RATE",
      "outputs": [
        {
          "internalType": "uint256",
          "name": "",
          "type": "uint256"
        }
      ],
      "stateMutability": "view",
      "type": "function"
    },
    {
      "inputs": [],
      "name": "WMATIC_TO_WETH_RATE",
      "outputs": [
        {
          "internalType": "uint256",
          "name": "",
          "type": "uint256"
        }
      ],
      "stateMutability": "view",
      "type": "function"
    },
    {
      "inputs": [],
      "name": "WNATIVE",
      "outputs": [
        {
          "internalType": "address",
          "name": "",
          "type": "address"
        }
      ],
      "stateMutability": "view",
      "type": "function"
    },
    {
      "inputs": [
        {
          "internalType": "address[]",
          "name": "",
          "type": "address[]"
        },
        {
          "internalType": "uint256[]",
          "name": "",
          "type": "uint256[]"
        },
        {
          "internalType": "uint256[]",
          "name": "",
          "type": "uint256[]"
        }
      ],
      "name": "checkRebalance",
      "outputs": [
        {
          "internalType": "bool",
          "name": "",
          "type": "bool"
        }
      ],
      "stateMutability": "view",
      "type": "function"
    },
    {
      "inputs": [
        {
          "internalType": "address",
          "name": "fromToken",
          "type": "address"
        },
        {
          "internalType": "address",
          "name": "toToken",
          "type": "address"
        },
        {
          "internalType": "uint256",
          "name": "amount",
          "type": "uint256"
        }
      ],
      "name": "convert",
      "outputs": [
        {
          "internalType": "uint256",
          "name": "",
          "type": "uint256"
        }
      ],
      "stateMutability": "view",
      "type": "function"
    },
    {
      "inputs": [],
      "name": "getBaluniRouter",
      "outputs": [
        {
          "internalType": "address",
          "name": "",
          "type": "address"
        }
      ],
      "stateMutability": "view",
      "type": "function"
    },
    {
      "inputs": [
        {
          "internalType": "contract IERC20",
          "name": "fromToken",
          "type": "address"
        },
        {
          "internalType": "contract IERC20",
          "name": "toToken",
          "type": "address"
        },
        {
          "internalType": "bool",
          "name": "",
          "type": "bool"
        }
      ],
      "name": "getRate",
      "outputs": [
        {
          "internalType": "uint256",
          "name": "",
          "type": "uint256"
        }
      ],
      "stateMutability": "view",
      "type": "function"
    },
    {
      "inputs": [
        {
          "internalType": "contract IERC20",
          "name": "fromToken",
          "type": "address"
        },
        {
          "internalType": "bool",
          "name": "",
          "type": "bool"
        }
      ],
      "name": "getRateToEth",
      "outputs": [
        {
          "internalType": "uint256",
          "name": "",
          "type": "uint256"
        }
      ],
      "stateMutability": "view",
      "type": "function"
    },
    {
      "inputs": [],
      "name": "getTreasury",
      "outputs": [
        {
          "internalType": "address",
          "name": "",
          "type": "address"
        }
      ],
      "stateMutability": "view",
      "type": "function"
    },
    {
      "inputs": [
        {
          "internalType": "address",
          "name": "",
          "type": "address"
        },
        {
          "internalType": "address",
          "name": "",
          "type": "address"
        }
      ],
      "name": "rates",
      "outputs": [
        {
          "internalType": "uint256",
          "name": "",
          "type": "uint256"
        }
      ],
      "stateMutability": "view",
      "type": "function"
    },
    {
      "inputs": [
        {
          "internalType": "address[]",
          "name": "",
          "type": "address[]"
        },
        {
          "internalType": "uint256[]",
          "name": "",
          "type": "uint256[]"
        },
        {
          "internalType": "address",
          "name": "",
          "type": "address"
        },
        {
          "internalType": "address",
          "name": "",
          "type": "address"
        },
        {
          "internalType": "uint256",
          "name": "",
          "type": "uint256"
        }
      ],
      "name": "rebalance",
      "outputs": [],
      "stateMutability": "nonpayable",
      "type": "function"
    },
    {
      "inputs": [
        {
          "internalType": "address",
          "name": "fromToken",
          "type": "address"
        },
        {
          "internalType": "address",
          "name": "toToken",
          "type": "address"
        },
        {
          "internalType": "uint256",
          "name": "rate",
          "type": "uint256"
        }
      ],
      "name": "setRate",
      "outputs": [],
      "stateMutability": "nonpayable",
      "type": "function"
    },
    {
      "inputs": [
        {
          "internalType": "address",
          "name": "_treasury",
          "type": "address"
        }
      ],
      "name": "setTreasury",
      "outputs": [],
      "stateMutability": "nonpayable",
      "type": "function"
    },
    {
      "inputs": [],
      "name": "treasury",
      "outputs": [
        {
          "internalType": "address",
          "name": "",
          "type": "address"
        }
      ],
      "stateMutability": "view",
      "type": "function"
    }
  ],
  "bytecode": "0x60803461030e57601f61122438819003918201601f191683019291906001600160401b03841183851017610312578160a0928492604096875283398101031261030e5761004b81610326565b9060209061005a828201610326565b92610066858301610326565b9361007f608061007860608601610326565b9401610326565b9460018060a01b0390818060018060a01b03199481600294168685541617845516946001948681875416178655339060035416176003551693845f525f8752885f20905f528652670ddbb3130051477a885f2055835f525f8652875f20828254165f5286526c110f11bc46bc3efcc5b8ff1223885f2055835f525f865281885f20971696875f52865266052de6f3e9958f885f2055835f525f865281885f20951694855f5286526ad47d67cce9223fad7de347885f2055865f525f8652875f20845f5286526824efc5d2223b2ab2b2885f2055865f525f8652875f20828254165f5286526d2d9856fc421a9fd095f8b44c49db885f2055865f525f8652875f20828454165f528652682506936e734ac2f926885f2055865f525f8652875f20855f5286526c0236febc16a26943df322289be885f2055818354165f525f8652875f20845f528652670de435a2a433cf48885f2055818354165f525f8652875f20875f528652660533304f826d31885f2055818354165f525f8652875f20828254165f5286526c110dcba2e6f97b2a41a7eba1b8885f2055818354165f525f8652875f20855f5286526ad4801858112018c8850bae885f2055818154165f525f8652875f20875f528652610438885f2055818154165f525f8652875f20855f52865265ac76a57eb9a4885f2055818154165f525f8652875f20828454165f528652620b32d1885f2055818154165f525f8652875f20845f528652620b68f7885f2055845f525f865281885f209154165f52855269011de1930ce9ab44b5a1875f2055835f525f8552865f209154165f52835263e4ac05169081865f2055825f525f8452855f20905f528352845f20555f525f8152825f20915f52526254dddd815f205551610ee9908161033b8239f35b5f80fd5b634e487b7160e01b5f52604160045260245ffd5b51906001600160a01b038216820361030e5756fe60806040818152600480361015610014575f80fd5b5f3560e01c9283630209871914610add5750826304cc732514610aa55782630e09176214610a6a578263187029b814610a3057826318cdc49a146109a45782631a1e4a1f1461095f578263248391ff1461093d5782633b19e84a1461072f5782634039e6871461090157826343146399146108c6578263443dc789146108835782635107e94e1461083e57826353ff493e146107fd5782635911fb9a146107bd5782635fc8cd691461078157826361d027b31461072f5782637b0cf44d146106bb5782637de4fd1014610641578263802431fb146105c157826384db1dfb1461052a5750816389a30271146104d95781638e5139ed1461049457816397db8e0214610456578163a58a7f8a14610417578163ae3bcc96146103da578163b381cf4014610389578163b537d24b1461034a578163b9e9381014610306578163c0184983146102cc578163d135e3be1461028c578163e2338e721461024a578163e30f689214610209575063f0f442601461018b575f80fd5b346102055760207ffffffffffffffffffffffffffffffffffffffffffffffffffffffffffffffffc3601126102055773ffffffffffffffffffffffffffffffffffffffff6101d7610b4b565b167fffffffffffffffffffffffff000000000000000000000000000000000000000060035416176003555f80f35b5f80fd5b34610205575f7ffffffffffffffffffffffffffffffffffffffffffffffffffffffffffffffffc360112610205576020905169011de1930ce9ab44b5a18152f35b34610205575f7ffffffffffffffffffffffffffffffffffffffffffffffffffffffffffffffffc36011261020557602090516ad4801858112018c8850bae8152f35b34610205575f7ffffffffffffffffffffffffffffffffffffffffffffffffffffffffffffffffc36011261020557602090516824efc5d2223b2ab2b28152f35b34610205575f7ffffffffffffffffffffffffffffffffffffffffffffffffffffffffffffffffc3601126102055760209051620b32d18152f35b34610205575f7ffffffffffffffffffffffffffffffffffffffffffffffffffffffffffffffffc36011261020557602090516c0236febc16a26943df322289be8152f35b34610205575f7ffffffffffffffffffffffffffffffffffffffffffffffffffffffffffffffffc3601126102055760209051670de435a2a433cf488152f35b34610205575f7ffffffffffffffffffffffffffffffffffffffffffffffffffffffffffffffffc3601126102055760209073ffffffffffffffffffffffffffffffffffffffff600254169051908152f35b34610205575f7ffffffffffffffffffffffffffffffffffffffffffffffffffffffffffffffffc360112610205576020905165ac76a57eb9a48152f35b34610205575f7ffffffffffffffffffffffffffffffffffffffffffffffffffffffffffffffffc3601126102055760209051670ddbb3130051477a8152f35b34610205575f7ffffffffffffffffffffffffffffffffffffffffffffffffffffffffffffffffc360112610205576020905166052de6f3e9958f8152f35b34610205575f7ffffffffffffffffffffffffffffffffffffffffffffffffffffffffffffffffc36011261020557602090516d2d9856fc421a9fd095f8b44c49db8152f35b34610205575f7ffffffffffffffffffffffffffffffffffffffffffffffffffffffffffffffffc3601126102055760209073ffffffffffffffffffffffffffffffffffffffff600154169051908152f35b346102055760a07ffffffffffffffffffffffffffffffffffffffffffffffffffffffffffffffffc3601126102055767ffffffffffffffff908035828111610205576105799036908301610b1a565b50506024359182116102055761059191369101610b1a565b505060443573ffffffffffffffffffffffffffffffffffffffff9081811603610205576064359081160361020557005b50346102055760607ffffffffffffffffffffffffffffffffffffffffffffffffffffffffffffffffc360112610205576105f9610b4b565b90610602610b6e565b604435801515036102055760209273ffffffffffffffffffffffffffffffffffffffff8091165f525f8452825f2091165f528252805f20549051908152f35b503461020557807ffffffffffffffffffffffffffffffffffffffffffffffffffffffffffffffffc36011261020557610678610b4b565b90602435801515036102055760209173ffffffffffffffffffffffffffffffffffffffff8091165f525f8352815f2090600254165f528252805f20549051908152f35b503461020557807ffffffffffffffffffffffffffffffffffffffffffffffffffffffffffffffffc360112610205576020906106f5610b4b565b6106fd610b6e565b9073ffffffffffffffffffffffffffffffffffffffff8091165f525f8452825f2091165f528252805f20549051908152f35b5034610205575f7ffffffffffffffffffffffffffffffffffffffffffffffffffffffffffffffffc3601126102055760209073ffffffffffffffffffffffffffffffffffffffff600354169051908152f35b5034610205575f7ffffffffffffffffffffffffffffffffffffffffffffffffffffffffffffffffc360112610205576020905163df77b36f8152f35b5034610205576107cc36610b91565b929173ffffffffffffffffffffffffffffffffffffffff8091165f525f602052825f2091165f526020525f20555f80f35b5034610205575f7ffffffffffffffffffffffffffffffffffffffffffffffffffffffffffffffffc3601126102055760209051682506936e734ac2f9268152f35b5034610205575f7ffffffffffffffffffffffffffffffffffffffffffffffffffffffffffffffffc36011261020557602090516c110dcba2e6f97b2a41a7eba1b88152f35b5034610205575f7ffffffffffffffffffffffffffffffffffffffffffffffffffffffffffffffffc36011261020557602090516ad47d67cce9223fad7de3478152f35b5034610205575f7ffffffffffffffffffffffffffffffffffffffffffffffffffffffffffffffffc36011261020557602090516254dddd8152f35b5034610205575f7ffffffffffffffffffffffffffffffffffffffffffffffffffffffffffffffffc360112610205576020905163e4ac05168152f35b50346102055760209061095861095236610b91565b91610d14565b9051908152f35b5034610205575f7ffffffffffffffffffffffffffffffffffffffffffffffffffffffffffffffffc36011261020557602090516c110f11bc46bc3efcc5b8ff12238152f35b90346102055760607ffffffffffffffffffffffffffffffffffffffffffffffffffffffffffffffffc3601126102055767ffffffffffffffff8235818111610205576109f39036908501610b1a565b505060243581811161020557610a0c9036908501610b1a565b505060443590811161020557602092610a2791369101610b1a565b50505160018152f35b5034610205575f7ffffffffffffffffffffffffffffffffffffffffffffffffffffffffffffffffc36011261020557602090516104388152f35b5034610205575f7ffffffffffffffffffffffffffffffffffffffffffffffffffffffffffffffffc3601126102055760209051620b68f78152f35b5034610205575f7ffffffffffffffffffffffffffffffffffffffffffffffffffffffffffffffffc36011261020557602090515f8152f35b34610205575f7ffffffffffffffffffffffffffffffffffffffffffffffffffffffffffffffffc3601126102055780660533304f826d3160209252f35b9181601f840112156102055782359167ffffffffffffffff8311610205576020808501948460051b01011161020557565b6004359073ffffffffffffffffffffffffffffffffffffffff8216820361020557565b6024359073ffffffffffffffffffffffffffffffffffffffff8216820361020557565b7ffffffffffffffffffffffffffffffffffffffffffffffffffffffffffffffffc60609101126102055773ffffffffffffffffffffffffffffffffffffffff90600435828116810361020557916024359081168103610205579060443590565b90601f7fffffffffffffffffffffffffffffffffffffffffffffffffffffffffffffffe0910116810190811067ffffffffffffffff821117610c3257604052565b7f4e487b71000000000000000000000000000000000000000000000000000000005f52604160045260245ffd5b90816020910312610205575160ff811681036102055790565b60ff16604d8111610c8957600a0a90565b7f4e487b71000000000000000000000000000000000000000000000000000000005f52601160045260245ffd5b81810292918115918404141715610c8957565b8115610cd3570490565b7f4e487b71000000000000000000000000000000000000000000000000000000005f52601260045260245ffd5b9060ff8091169116039060ff8211610c8957565b9173ffffffffffffffffffffffffffffffffffffffff8093166040928351937f313ce56700000000000000000000000000000000000000000000000000000000958686526020928387600481885afa968715610ea9575f97610e8a575b501681519687528287600481845afa968715610e80575f97610e33575b5092610dce670de0b6b3a76400009593610dd393610dd996610daf8a610c78565b92610db98c610c78565b955f525f8152825f20915f52525f2054610cb6565b610cc9565b90610cb6565b049160ff81169060ff831691808314610e2c57610e08921192835f14610e235790610e0391610d00565b610c78565b9015610e1a57610e1791610cc9565b90565b610e1791610cb6565b610e0391610d00565b5050505090565b610dd99491975083610dd393610e6b610dce93670de0b6b3a764000099973d8511610e79575b610e638183610bf1565b810190610c5f565b999396509350939550610d8e565b503d610e59565b82513d5f823e3d90fd5b610ea2919750843d8611610e7957610e638183610bf1565b955f610d71565b83513d5f823e3d90fdfea2646970667358221220bd0d93ebd1f53655e0d0c85211db868f8d9f5e4a72a9e77e893d2d745878fdb664736f6c63430008190033",
  "linkReferences": {},
  "deployedLinkReferences": {}
}