{
  "_format": "hh-sol-artifact-1",
  "contractName": "MockRebalancer",
  "sourceName": "contracts/mock/MockRebalancer.sol",
  "abi": [
    {
      "inputs": [
        {
          "internalType": "address",
          "name": "usdc",
          "type": "address"
        },
        {
          "internalType": "address",
          "name": "usdt",
          "type": "address"
        },
        {
          "internalType": "address",
          "name": "_wmatic",
          "type": "address"
        },
        {
          "internalType": "address",
          "name": "weth",
          "type": "address"
        },
        {
          "internalType": "address",
          "name": "wbtc",
          "type": "address"
        }
      ],
      "stateMutability": "nonpayable",
      "type": "constructor"
    },
    {
      "inputs": [],
      "name": "USDC_TO_USDT_RATE",
      "outputs": [
        {
          "internalType": "uint256",
          "name": "",
          "type": "uint256"
        }
      ],
      "stateMutability": "view",
      "type": "function"
    },
    {
      "inputs": [],
      "name": "USDC_TO_WBTC_RATE",
      "outputs": [
        {
          "internalType": "uint256",
          "name": "",
          "type": "uint256"
        }
      ],
      "stateMutability": "view",
      "type": "function"
    },
    {
      "inputs": [],
      "name": "USDC_TO_WETH_RATE",
      "outputs": [
        {
          "internalType": "uint256",
          "name": "",
          "type": "uint256"
        }
      ],
      "stateMutability": "view",
      "type": "function"
    },
    {
      "inputs": [],
      "name": "USDC_TO_WMATIC_RATE",
      "outputs": [
        {
          "internalType": "uint256",
          "name": "",
          "type": "uint256"
        }
      ],
      "stateMutability": "view",
      "type": "function"
    },
    {
      "inputs": [],
      "name": "USDT_TO_USDC_RATE",
      "outputs": [
        {
          "internalType": "uint256",
          "name": "",
          "type": "uint256"
        }
      ],
      "stateMutability": "view",
      "type": "function"
    },
    {
      "inputs": [],
      "name": "USDT_TO_WBTC_RATE",
      "outputs": [
        {
          "internalType": "uint256",
          "name": "",
          "type": "uint256"
        }
      ],
      "stateMutability": "view",
      "type": "function"
    },
    {
      "inputs": [],
      "name": "USDT_TO_WETH_RATE",
      "outputs": [
        {
          "internalType": "uint256",
          "name": "",
          "type": "uint256"
        }
      ],
      "stateMutability": "view",
      "type": "function"
    },
    {
      "inputs": [],
      "name": "USDT_TO_WMATIC_RATE",
      "outputs": [
        {
          "internalType": "uint256",
          "name": "",
          "type": "uint256"
        }
      ],
      "stateMutability": "view",
      "type": "function"
    },
    {
      "inputs": [],
      "name": "WBTC_TO_USDC_RATE",
      "outputs": [
        {
          "internalType": "uint256",
          "name": "",
          "type": "uint256"
        }
      ],
      "stateMutability": "view",
      "type": "function"
    },
    {
      "inputs": [],
      "name": "WBTC_TO_USDT_RATE",
      "outputs": [
        {
          "internalType": "uint256",
          "name": "",
          "type": "uint256"
        }
      ],
      "stateMutability": "view",
      "type": "function"
    },
    {
      "inputs": [],
      "name": "WBTC_TO_WETH_RATE",
      "outputs": [
        {
          "internalType": "uint256",
          "name": "",
          "type": "uint256"
        }
      ],
      "stateMutability": "view",
      "type": "function"
    },
    {
      "inputs": [],
      "name": "WBTC_TO_WMATIC_RATE",
      "outputs": [
        {
          "internalType": "uint256",
          "name": "",
          "type": "uint256"
        }
      ],
      "stateMutability": "view",
      "type": "function"
    },
    {
      "inputs": [],
      "name": "WETH_TO_WMATIC_RATE",
      "outputs": [
        {
          "internalType": "uint256",
          "name": "",
          "type": "uint256"
        }
      ],
      "stateMutability": "view",
      "type": "function"
    },
    {
      "inputs": [],
      "name": "WMATIC_TO_USDC_RATE",
      "outputs": [
        {
          "internalType": "uint256",
          "name": "",
          "type": "uint256"
        }
      ],
      "stateMutability": "view",
      "type": "function"
    },
    {
      "inputs": [],
      "name": "WMATIC_TO_USDT_RATE",
      "outputs": [
        {
          "internalType": "uint256",
          "name": "",
          "type": "uint256"
        }
      ],
      "stateMutability": "view",
      "type": "function"
    },
    {
      "inputs": [],
      "name": "WMATIC_TO_WBTC_RATE",
      "outputs": [
        {
          "internalType": "uint256",
          "name": "",
          "type": "uint256"
        }
      ],
      "stateMutability": "view",
      "type": "function"
    },
    {
      "inputs": [],
      "name": "WMATIC_TO_WETH_RATE",
      "outputs": [
        {
          "internalType": "uint256",
          "name": "",
          "type": "uint256"
        }
      ],
      "stateMutability": "view",
      "type": "function"
    },
    {
      "inputs": [
        {
          "internalType": "address[]",
          "name": "",
          "type": "address[]"
        },
        {
          "internalType": "uint256[]",
          "name": "",
          "type": "uint256[]"
        },
        {
          "internalType": "uint256[]",
          "name": "",
          "type": "uint256[]"
        }
      ],
      "name": "checkRebalance",
      "outputs": [
        {
          "internalType": "bool",
          "name": "",
          "type": "bool"
        }
      ],
      "stateMutability": "view",
      "type": "function"
    },
    {
      "inputs": [
        {
          "internalType": "address",
          "name": "fromToken",
          "type": "address"
        },
        {
          "internalType": "address",
          "name": "toToken",
          "type": "address"
        },
        {
          "internalType": "uint256",
          "name": "amount",
          "type": "uint256"
        }
      ],
      "name": "convert",
      "outputs": [
        {
          "internalType": "uint256",
          "name": "",
          "type": "uint256"
        }
      ],
      "stateMutability": "view",
      "type": "function"
    },
    {
      "inputs": [],
      "name": "getBaluniRouter",
      "outputs": [
        {
          "internalType": "address",
          "name": "",
          "type": "address"
        }
      ],
      "stateMutability": "view",
      "type": "function"
    },
    {
      "inputs": [
        {
          "internalType": "contract IERC20",
          "name": "fromToken",
          "type": "address"
        },
        {
          "internalType": "contract IERC20",
          "name": "toToken",
          "type": "address"
        },
        {
          "internalType": "bool",
          "name": "",
          "type": "bool"
        }
      ],
      "name": "getRate",
      "outputs": [
        {
          "internalType": "uint256",
          "name": "",
          "type": "uint256"
        }
      ],
      "stateMutability": "view",
      "type": "function"
    },
    {
      "inputs": [
        {
          "internalType": "contract IERC20",
          "name": "fromToken",
          "type": "address"
        },
        {
          "internalType": "bool",
          "name": "",
          "type": "bool"
        }
      ],
      "name": "getRateToEth",
      "outputs": [
        {
          "internalType": "uint256",
          "name": "",
          "type": "uint256"
        }
      ],
      "stateMutability": "view",
      "type": "function"
    },
    {
      "inputs": [],
      "name": "getTreasury",
      "outputs": [
        {
          "internalType": "address",
          "name": "",
          "type": "address"
        }
      ],
      "stateMutability": "view",
      "type": "function"
    },
    {
      "inputs": [],
      "name": "getUSDCAddress",
      "outputs": [
        {
          "internalType": "address",
          "name": "",
          "type": "address"
        }
      ],
      "stateMutability": "view",
      "type": "function"
    },
    {
      "inputs": [],
      "name": "getWNATIVEAddress",
      "outputs": [
        {
          "internalType": "address",
          "name": "",
          "type": "address"
        }
      ],
      "stateMutability": "view",
      "type": "function"
    },
    {
      "inputs": [
        {
          "internalType": "address",
          "name": "",
          "type": "address"
        },
        {
          "internalType": "address",
          "name": "",
          "type": "address"
        }
      ],
      "name": "rates",
      "outputs": [
        {
          "internalType": "uint256",
          "name": "",
          "type": "uint256"
        }
      ],
      "stateMutability": "view",
      "type": "function"
    },
    {
      "inputs": [
        {
          "internalType": "address[]",
          "name": "",
          "type": "address[]"
        },
        {
          "internalType": "uint256[]",
          "name": "",
          "type": "uint256[]"
        },
        {
          "internalType": "address",
          "name": "",
          "type": "address"
        },
        {
          "internalType": "address",
          "name": "",
          "type": "address"
        },
        {
          "internalType": "uint256",
          "name": "",
          "type": "uint256"
        }
      ],
      "name": "rebalance",
      "outputs": [],
      "stateMutability": "nonpayable",
      "type": "function"
    },
    {
      "inputs": [
        {
          "internalType": "address",
          "name": "fromToken",
          "type": "address"
        },
        {
          "internalType": "address",
          "name": "toToken",
          "type": "address"
        },
        {
          "internalType": "uint256",
          "name": "rate",
          "type": "uint256"
        }
      ],
      "name": "setRate",
      "outputs": [],
      "stateMutability": "nonpayable",
      "type": "function"
    },
    {
      "inputs": [
        {
          "internalType": "address",
          "name": "_treasury",
          "type": "address"
        }
      ],
      "name": "setTreasury",
      "outputs": [],
      "stateMutability": "nonpayable",
      "type": "function"
    },
    {
      "inputs": [],
      "name": "treasury",
      "outputs": [
        {
          "internalType": "address",
          "name": "",
          "type": "address"
        }
      ],
      "stateMutability": "view",
      "type": "function"
    },
    {
      "inputs": [],
      "name": "wmatic",
      "outputs": [
        {
          "internalType": "address",
          "name": "",
          "type": "address"
        }
      ],
      "stateMutability": "view",
      "type": "function"
    }
  ],
  "bytecode": "0x60803461029957601f6110ba38819003918201601f191683019291906001600160401b0384118385101761029d578160a092849260409687528339810103126102995761004b816102b1565b9060209061005a8282016102b1565b906100668582016102b1565b9361007f6080610078606085016102b1565b93016102b1565b9060018060a01b038094816001981660018060a01b03198954161788551691825f525f865284885f20921691825f528652670ddc25ba9553c8e4885f2055825f525f865284885f20911690815f52865266052de6f3e9958f885f2055825f525f865284885f20941693845f5286526ad47d67cce9223fad7de347885f2055825f525f8652875f20858854165f5286526c110f11bc46bc3efcc5b8ff1223885f2055805f525f8652875f20835f5286526824efc5d2223b2ab2b280895f2055815f525f8752885f20868954165f5287526d2d9856fc421a9fd095f8b44c49db895f2055815f525f8752885f20835f528752885f2055805f525f8652875f20845f5286526c0236febc16a26943df322289be885f2055815f525f8652875f20835f528652670de435a2a433cf48885f2055815f525f8652875f20815f528652660533304f826d31885f2055815f525f8652875f20858854165f5286526c110dcba2e6f97b2a41a7eba1b8885f2055815f525f8652875f20845f5286526ad4801858112018c8850bae885f2055848754165f525f8652875f20905f528552610438875f2055838654165f525f8552865f20835f52855265ac76a57eb9a4875f2055838654165f525f8552865f20905f528452620b48cd865f2055828554165f525f8452855f20905f528352620b68f7855f20555f525f8252835f209254165f525269011de1930ce9ab44b5a1815f205551610df490816102c68239f35b5f80fd5b634e487b7160e01b5f52604160045260245ffd5b51906001600160a01b03821682036102995756fe6080604090808252600480361015610015575f80fd5b5f3560e01c918263020987191461096f5750816304cc7325146103095781630e09176214610934578163187029b8146108fa57816318cdc49a1461086e5781631a1e4a1f14610829578163248391ff146108075781633b19e84a146106ed578163443dc789146107c45781635107e94e1461077f57816353ff493e146102c95781635911fb9a1461073f57816361d027b3146106ed5781637b0cf44d146106795781637de4fd10146105ff578163802431fb1461057f57816384db1dfb146104e8575080638e5139ed146104a2578063956fb5101461045057806397db8e0214610411578063a58a7f8a146103d1578063ae3bcc9614610393578063b537d24b14610353578063b9e938101461030e578063bc06e81d14610309578063c0184983146102ce578063d135e3be146102c9578063e2338e7214610286578063e30f689214610244578063f0f44260146101ca5763fb41be1614610175575f80fd5b346101c6575f7ffffffffffffffffffffffffffffffffffffffffffffffffffffffffffffffffc3601126101c65760209073ffffffffffffffffffffffffffffffffffffffff600154169051908152f35b5f80fd5b346101c65760207ffffffffffffffffffffffffffffffffffffffffffffffffffffffffffffffffc3601126101c65773ffffffffffffffffffffffffffffffffffffffff610216610a15565b167fffffffffffffffffffffffff000000000000000000000000000000000000000060025416176002555f80f35b50346101c6575f7ffffffffffffffffffffffffffffffffffffffffffffffffffffffffffffffffc3601126101c6576020905169011de1930ce9ab44b5a18152f35b50346101c6575f7ffffffffffffffffffffffffffffffffffffffffffffffffffffffffffffffffc3601126101c657602090516ad4801858112018c8850bae8152f35b610abb565b50346101c6575f7ffffffffffffffffffffffffffffffffffffffffffffffffffffffffffffffffc3601126101c65760209051620b48cd8152f35b6109ac565b50346101c6575f7ffffffffffffffffffffffffffffffffffffffffffffffffffffffffffffffffc3601126101c657602090516c0236febc16a26943df322289be8152f35b50346101c6575f7ffffffffffffffffffffffffffffffffffffffffffffffffffffffffffffffffc3601126101c65760209051670de435a2a433cf488152f35b50346101c6575f7ffffffffffffffffffffffffffffffffffffffffffffffffffffffffffffffffc3601126101c6576020905165ac76a57eb9a48152f35b50346101c6575f7ffffffffffffffffffffffffffffffffffffffffffffffffffffffffffffffffc3601126101c65760209051670ddc25ba9553c8e48152f35b50346101c6575f7ffffffffffffffffffffffffffffffffffffffffffffffffffffffffffffffffc3601126101c6576020905166052de6f3e9958f8152f35b50346101c6575f7ffffffffffffffffffffffffffffffffffffffffffffffffffffffffffffffffc3601126101c65760209073ffffffffffffffffffffffffffffffffffffffff600154169051908152f35b50346101c6575f7ffffffffffffffffffffffffffffffffffffffffffffffffffffffffffffffffc3601126101c657602090516d2d9856fc421a9fd095f8b44c49db8152f35b346101c65760a07ffffffffffffffffffffffffffffffffffffffffffffffffffffffffffffffffc3601126101c65767ffffffffffffffff9080358281116101c65761053790369083016109e4565b50506024359182116101c65761054f913691016109e4565b505060443573ffffffffffffffffffffffffffffffffffffffff90818116036101c657606435908116036101c657005b82346101c65760607ffffffffffffffffffffffffffffffffffffffffffffffffffffffffffffffffc3601126101c6576105b7610a15565b906105c0610a38565b604435801515036101c65760209273ffffffffffffffffffffffffffffffffffffffff8091165f525f8452825f2091165f528252805f20549051908152f35b82346101c657807ffffffffffffffffffffffffffffffffffffffffffffffffffffffffffffffffc3601126101c657610636610a15565b90602435801515036101c65760209173ffffffffffffffffffffffffffffffffffffffff8091165f525f8352815f2090600154165f528252805f20549051908152f35b82346101c657807ffffffffffffffffffffffffffffffffffffffffffffffffffffffffffffffffc3601126101c6576020906106b3610a15565b6106bb610a38565b9073ffffffffffffffffffffffffffffffffffffffff8091165f525f8452825f2091165f528252805f20549051908152f35b82346101c6575f7ffffffffffffffffffffffffffffffffffffffffffffffffffffffffffffffffc3601126101c65760209073ffffffffffffffffffffffffffffffffffffffff600254169051908152f35b82346101c65761074e36610a5b565b929173ffffffffffffffffffffffffffffffffffffffff8091165f525f602052825f2091165f526020525f20555f80f35b82346101c6575f7ffffffffffffffffffffffffffffffffffffffffffffffffffffffffffffffffc3601126101c657602090516c110dcba2e6f97b2a41a7eba1b88152f35b82346101c6575f7ffffffffffffffffffffffffffffffffffffffffffffffffffffffffffffffffc3601126101c657602090516ad47d67cce9223fad7de3478152f35b82346101c65760209061082261081c36610a5b565b91610c1f565b9051908152f35b82346101c6575f7ffffffffffffffffffffffffffffffffffffffffffffffffffffffffffffffffc3601126101c657602090516c110f11bc46bc3efcc5b8ff12238152f35b82346101c65760607ffffffffffffffffffffffffffffffffffffffffffffffffffffffffffffffffc3601126101c65767ffffffffffffffff82358181116101c6576108bd90369085016109e4565b50506024358181116101c6576108d690369085016109e4565b50506044359081116101c6576020926108f1913691016109e4565b50505160018152f35b82346101c6575f7ffffffffffffffffffffffffffffffffffffffffffffffffffffffffffffffffc3601126101c657602090516104388152f35b82346101c6575f7ffffffffffffffffffffffffffffffffffffffffffffffffffffffffffffffffc3601126101c65760209051620b68f78152f35b346101c6575f7ffffffffffffffffffffffffffffffffffffffffffffffffffffffffffffffffc3601126101c65780660533304f826d3160209252f35b346101c6575f7ffffffffffffffffffffffffffffffffffffffffffffffffffffffffffffffffc3601126101c65760206040515f8152f35b9181601f840112156101c65782359167ffffffffffffffff83116101c6576020808501948460051b0101116101c657565b6004359073ffffffffffffffffffffffffffffffffffffffff821682036101c657565b6024359073ffffffffffffffffffffffffffffffffffffffff821682036101c657565b7ffffffffffffffffffffffffffffffffffffffffffffffffffffffffffffffffc60609101126101c65773ffffffffffffffffffffffffffffffffffffffff9060043582811681036101c6579160243590811681036101c6579060443590565b346101c6575f7ffffffffffffffffffffffffffffffffffffffffffffffffffffffffffffffffc3601126101c65760206040516824efc5d2223b2ab2b28152f35b90601f7fffffffffffffffffffffffffffffffffffffffffffffffffffffffffffffffe0910116810190811067ffffffffffffffff821117610b3d57604052565b7f4e487b71000000000000000000000000000000000000000000000000000000005f52604160045260245ffd5b908160209103126101c6575160ff811681036101c65790565b60ff16604d8111610b9457600a0a90565b7f4e487b71000000000000000000000000000000000000000000000000000000005f52601160045260245ffd5b81810292918115918404141715610b9457565b8115610bde570490565b7f4e487b71000000000000000000000000000000000000000000000000000000005f52601260045260245ffd5b9060ff8091169116039060ff8211610b9457565b9173ffffffffffffffffffffffffffffffffffffffff8093166040928351937f313ce56700000000000000000000000000000000000000000000000000000000958686526020928387600481885afa968715610db4575f97610d95575b501681519687528287600481845afa968715610d8b575f97610d3e575b5092610cd9670de0b6b3a76400009593610cde93610ce496610cba8a610b83565b92610cc48c610b83565b955f525f8152825f20915f52525f2054610bc1565b610bd4565b90610bc1565b049160ff81169060ff831691808314610d3757610d13921192835f14610d2e5790610d0e91610c0b565b610b83565b9015610d2557610d2291610bd4565b90565b610d2291610bc1565b610d0e91610c0b565b5050505090565b610ce49491975083610cde93610d76610cd993670de0b6b3a764000099973d8511610d84575b610d6e8183610afc565b810190610b6a565b999396509350939550610c99565b503d610d64565b82513d5f823e3d90fd5b610dad919750843d8611610d8457610d6e8183610afc565b955f610c7c565b83513d5f823e3d90fdfea26469706673582212206801b6760a54cabc5a9a1dd43e07b039f84098153b956b0afe977c787643a2f964736f6c63430008190033",
  "linkReferences": {},
  "deployedLinkReferences": {}
}