{
  "_format": "hh-sol-artifact-1",
  "contractName": "MockRebalancer",
  "sourceName": "contracts/mock/MockRebalancer.sol",
  "abi": [
    {
      "inputs": [
        {
          "internalType": "address",
          "name": "usdt",
          "type": "address"
        },
        {
          "internalType": "address",
          "name": "_usdc",
          "type": "address"
        },
        {
          "internalType": "address",
          "name": "_wmatic",
          "type": "address"
        },
        {
          "internalType": "address",
          "name": "weth",
          "type": "address"
        },
        {
          "internalType": "address",
          "name": "wbtc",
          "type": "address"
        }
      ],
      "stateMutability": "nonpayable",
      "type": "constructor"
    },
    {
      "inputs": [],
      "name": "USDC_TO_USDT_RATE",
      "outputs": [
        {
          "internalType": "uint256",
          "name": "",
          "type": "uint256"
        }
      ],
      "stateMutability": "view",
      "type": "function"
    },
    {
      "inputs": [],
      "name": "USDC_TO_WBTC_RATE",
      "outputs": [
        {
          "internalType": "uint256",
          "name": "",
          "type": "uint256"
        }
      ],
      "stateMutability": "view",
      "type": "function"
    },
    {
      "inputs": [],
      "name": "USDC_TO_WETH_RATE",
      "outputs": [
        {
          "internalType": "uint256",
          "name": "",
          "type": "uint256"
        }
      ],
      "stateMutability": "view",
      "type": "function"
    },
    {
      "inputs": [],
      "name": "USDC_TO_WMATIC_RATE",
      "outputs": [
        {
          "internalType": "uint256",
          "name": "",
          "type": "uint256"
        }
      ],
      "stateMutability": "view",
      "type": "function"
    },
    {
      "inputs": [],
      "name": "USDT_TO_USDC_RATE",
      "outputs": [
        {
          "internalType": "uint256",
          "name": "",
          "type": "uint256"
        }
      ],
      "stateMutability": "view",
      "type": "function"
    },
    {
      "inputs": [],
      "name": "USDT_TO_WBTC_RATE",
      "outputs": [
        {
          "internalType": "uint256",
          "name": "",
          "type": "uint256"
        }
      ],
      "stateMutability": "view",
      "type": "function"
    },
    {
      "inputs": [],
      "name": "USDT_TO_WETH_RATE",
      "outputs": [
        {
          "internalType": "uint256",
          "name": "",
          "type": "uint256"
        }
      ],
      "stateMutability": "view",
      "type": "function"
    },
    {
      "inputs": [],
      "name": "USDT_TO_WMATIC_RATE",
      "outputs": [
        {
          "internalType": "uint256",
          "name": "",
          "type": "uint256"
        }
      ],
      "stateMutability": "view",
      "type": "function"
    },
    {
      "inputs": [],
      "name": "WBTC_TO_USDC_RATE",
      "outputs": [
        {
          "internalType": "uint256",
          "name": "",
          "type": "uint256"
        }
      ],
      "stateMutability": "view",
      "type": "function"
    },
    {
      "inputs": [],
      "name": "WBTC_TO_USDT_RATE",
      "outputs": [
        {
          "internalType": "uint256",
          "name": "",
          "type": "uint256"
        }
      ],
      "stateMutability": "view",
      "type": "function"
    },
    {
      "inputs": [],
      "name": "WBTC_TO_WETH_RATE",
      "outputs": [
        {
          "internalType": "uint256",
          "name": "",
          "type": "uint256"
        }
      ],
      "stateMutability": "view",
      "type": "function"
    },
    {
      "inputs": [],
      "name": "WBTC_TO_WMATIC_RATE",
      "outputs": [
        {
          "internalType": "uint256",
          "name": "",
          "type": "uint256"
        }
      ],
      "stateMutability": "view",
      "type": "function"
    },
    {
      "inputs": [],
      "name": "WETH_TO_USDC_RATE",
      "outputs": [
        {
          "internalType": "uint256",
          "name": "",
          "type": "uint256"
        }
      ],
      "stateMutability": "view",
      "type": "function"
    },
    {
      "inputs": [],
      "name": "WETH_TO_WMATIC_RATE",
      "outputs": [
        {
          "internalType": "uint256",
          "name": "",
          "type": "uint256"
        }
      ],
      "stateMutability": "view",
      "type": "function"
    },
    {
      "inputs": [],
      "name": "WMATIC_TO_USDC_RATE",
      "outputs": [
        {
          "internalType": "uint256",
          "name": "",
          "type": "uint256"
        }
      ],
      "stateMutability": "view",
      "type": "function"
    },
    {
      "inputs": [],
      "name": "WMATIC_TO_USDT_RATE",
      "outputs": [
        {
          "internalType": "uint256",
          "name": "",
          "type": "uint256"
        }
      ],
      "stateMutability": "view",
      "type": "function"
    },
    {
      "inputs": [],
      "name": "WMATIC_TO_WBTC_RATE",
      "outputs": [
        {
          "internalType": "uint256",
          "name": "",
          "type": "uint256"
        }
      ],
      "stateMutability": "view",
      "type": "function"
    },
    {
      "inputs": [],
      "name": "WMATIC_TO_WETH_RATE",
      "outputs": [
        {
          "internalType": "uint256",
          "name": "",
          "type": "uint256"
        }
      ],
      "stateMutability": "view",
      "type": "function"
    },
    {
      "inputs": [
        {
          "internalType": "address[]",
          "name": "",
          "type": "address[]"
        },
        {
          "internalType": "uint256[]",
          "name": "",
          "type": "uint256[]"
        },
        {
          "internalType": "uint256[]",
          "name": "",
          "type": "uint256[]"
        }
      ],
      "name": "checkRebalance",
      "outputs": [
        {
          "internalType": "bool",
          "name": "",
          "type": "bool"
        }
      ],
      "stateMutability": "view",
      "type": "function"
    },
    {
      "inputs": [
        {
          "internalType": "address",
          "name": "fromToken",
          "type": "address"
        },
        {
          "internalType": "address",
          "name": "toToken",
          "type": "address"
        },
        {
          "internalType": "uint256",
          "name": "amount",
          "type": "uint256"
        }
      ],
      "name": "convert",
      "outputs": [
        {
          "internalType": "uint256",
          "name": "",
          "type": "uint256"
        }
      ],
      "stateMutability": "view",
      "type": "function"
    },
    {
      "inputs": [],
      "name": "getBaluniRouter",
      "outputs": [
        {
          "internalType": "address",
          "name": "",
          "type": "address"
        }
      ],
      "stateMutability": "view",
      "type": "function"
    },
    {
      "inputs": [
        {
          "internalType": "contract IERC20",
          "name": "fromToken",
          "type": "address"
        },
        {
          "internalType": "contract IERC20",
          "name": "toToken",
          "type": "address"
        },
        {
          "internalType": "bool",
          "name": "",
          "type": "bool"
        }
      ],
      "name": "getRate",
      "outputs": [
        {
          "internalType": "uint256",
          "name": "",
          "type": "uint256"
        }
      ],
      "stateMutability": "view",
      "type": "function"
    },
    {
      "inputs": [
        {
          "internalType": "contract IERC20",
          "name": "fromToken",
          "type": "address"
        },
        {
          "internalType": "bool",
          "name": "",
          "type": "bool"
        }
      ],
      "name": "getRateToEth",
      "outputs": [
        {
          "internalType": "uint256",
          "name": "",
          "type": "uint256"
        }
      ],
      "stateMutability": "view",
      "type": "function"
    },
    {
      "inputs": [],
      "name": "getTreasury",
      "outputs": [
        {
          "internalType": "address",
          "name": "",
          "type": "address"
        }
      ],
      "stateMutability": "view",
      "type": "function"
    },
    {
      "inputs": [],
      "name": "getUSDCAddress",
      "outputs": [
        {
          "internalType": "address",
          "name": "",
          "type": "address"
        }
      ],
      "stateMutability": "view",
      "type": "function"
    },
    {
      "inputs": [],
      "name": "getWNATIVEAddress",
      "outputs": [
        {
          "internalType": "address",
          "name": "",
          "type": "address"
        }
      ],
      "stateMutability": "view",
      "type": "function"
    },
    {
      "inputs": [
        {
          "internalType": "address",
          "name": "",
          "type": "address"
        },
        {
          "internalType": "address",
          "name": "",
          "type": "address"
        }
      ],
      "name": "rates",
      "outputs": [
        {
          "internalType": "uint256",
          "name": "",
          "type": "uint256"
        }
      ],
      "stateMutability": "view",
      "type": "function"
    },
    {
      "inputs": [
        {
          "internalType": "address[]",
          "name": "",
          "type": "address[]"
        },
        {
          "internalType": "uint256[]",
          "name": "",
          "type": "uint256[]"
        },
        {
          "internalType": "address",
          "name": "",
          "type": "address"
        },
        {
          "internalType": "address",
          "name": "",
          "type": "address"
        },
        {
          "internalType": "uint256",
          "name": "",
          "type": "uint256"
        }
      ],
      "name": "rebalance",
      "outputs": [],
      "stateMutability": "nonpayable",
      "type": "function"
    },
    {
      "inputs": [
        {
          "internalType": "address",
          "name": "fromToken",
          "type": "address"
        },
        {
          "internalType": "address",
          "name": "toToken",
          "type": "address"
        },
        {
          "internalType": "uint256",
          "name": "rate",
          "type": "uint256"
        }
      ],
      "name": "setRate",
      "outputs": [],
      "stateMutability": "nonpayable",
      "type": "function"
    },
    {
      "inputs": [
        {
          "internalType": "address",
          "name": "_treasury",
          "type": "address"
        }
      ],
      "name": "setTreasury",
      "outputs": [],
      "stateMutability": "nonpayable",
      "type": "function"
    },
    {
      "inputs": [],
      "name": "treasury",
      "outputs": [
        {
          "internalType": "address",
          "name": "",
          "type": "address"
        }
      ],
      "stateMutability": "view",
      "type": "function"
    },
    {
      "inputs": [],
      "name": "usdc",
      "outputs": [
        {
          "internalType": "address",
          "name": "",
          "type": "address"
        }
      ],
      "stateMutability": "view",
      "type": "function"
    },
    {
      "inputs": [],
      "name": "wmatic",
      "outputs": [
        {
          "internalType": "address",
          "name": "",
          "type": "address"
        }
      ],
      "stateMutability": "view",
      "type": "function"
    }
  ],
  "bytecode": "0x6080346102d757601f61122538819003918201601f191683019291906001600160401b038411838510176102db578160a092849260409687528339810103126102d75761004b816102ef565b6020906100598284016102ef565b926100658582016102ef565b61007d6080610076606085016102ef565b93016102ef565b9260018060a01b0393848060018060a01b03199881600196168a8754161786551692836002998a54161789551691825f525f8752885f20905f528652670ddbb3130051477a885f2055815f525f865284885f20911690815f52865266052de6f3e9958f885f2055815f525f865284885f20941693845f5286526ad47d67cce9223fad7de347885f2055815f525f8652875f20858454165f5286526c110f11bc46bc3efcc5b8ff1223885f2055805f525f8652875f20825f5286526824efc5d2223b2ab2b2885f2055805f525f8652875f20858454165f5286526d2d9856fc421a9fd095f8b44c49db885f2055805f525f8652875f20858854165f528652682506936e734ac2f926885f2055805f525f8652875f20845f5286526c0236febc16a26943df322289be885f2055848754165f525f8652875f20825f528652670de435a2a433cf48885f2055848754165f525f8652875f20815f528652660533304f826d31885f2055848754165f525f8652875f20858454165f5286526c110dcba2e6f97b2a41a7eba1b8885f2055848754165f525f8652875f20845f5286526ad4801858112018c8850bae885f2055848354165f525f8652875f20905f528552610438875f2055838254165f525f8552865f20835f52855265ac76a57eb9a4875f2055838254165f525f8552865f20848754165f528552620b32d1875f2055838254165f525f8552865f20905f528452620b68f7865f2055815f525f845282865f209154165f52835269011de1930ce9ab44b5a1855f20555f525f8252835f209254165f525263e4ac0516815f205551610f2190816103048239f35b5f80fd5b634e487b7160e01b5f52604160045260245ffd5b51906001600160a01b03821682036102d75756fe6080604090808252600480361015610015575f80fd5b5f3560e01c9182630209871914610b155750816304cc732514610add5781630e09176214610aa2578163187029b814610a6857816318cdc49a146109dc5781631a1e4a1f14610997578163248391ff146109755781633b19e84a1461078c5781633e413bee146109235781634039e687146108e7578163443dc789146108a45781635107e94e1461085f57816353ff493e1461081e5781635911fb9a146107de57816361d027b31461078c5781637b0cf44d146107185781637de4fd101461069e578163802431fb1461061e57816384db1dfb14610587575080638e5139ed14610541578063956fb510146104ef57806397db8e02146104b0578063a58a7f8a14610470578063ae3bcc9614610432578063b537d24b146103f2578063b9e93810146103ad578063bc06e81d1461035b578063c018498314610320578063d135e3be146102df578063e2338e721461029c578063e30f68921461025a578063f0f44260146101e05763fb41be161461018b575f80fd5b346101dc575f7ffffffffffffffffffffffffffffffffffffffffffffffffffffffffffffffffc3601126101dc5760209073ffffffffffffffffffffffffffffffffffffffff600154169051908152f35b5f80fd5b346101dc5760207ffffffffffffffffffffffffffffffffffffffffffffffffffffffffffffffffc3601126101dc5773ffffffffffffffffffffffffffffffffffffffff61022c610b83565b167fffffffffffffffffffffffff000000000000000000000000000000000000000060035416176003555f80f35b50346101dc575f7ffffffffffffffffffffffffffffffffffffffffffffffffffffffffffffffffc3601126101dc576020905169011de1930ce9ab44b5a18152f35b50346101dc575f7ffffffffffffffffffffffffffffffffffffffffffffffffffffffffffffffffc3601126101dc57602090516ad4801858112018c8850bae8152f35b50346101dc575f7ffffffffffffffffffffffffffffffffffffffffffffffffffffffffffffffffc3601126101dc57602090516824efc5d2223b2ab2b28152f35b50346101dc575f7ffffffffffffffffffffffffffffffffffffffffffffffffffffffffffffffffc3601126101dc5760209051620b32d18152f35b50346101dc575f7ffffffffffffffffffffffffffffffffffffffffffffffffffffffffffffffffc3601126101dc5760209073ffffffffffffffffffffffffffffffffffffffff600254169051908152f35b50346101dc575f7ffffffffffffffffffffffffffffffffffffffffffffffffffffffffffffffffc3601126101dc57602090516c0236febc16a26943df322289be8152f35b50346101dc575f7ffffffffffffffffffffffffffffffffffffffffffffffffffffffffffffffffc3601126101dc5760209051670de435a2a433cf488152f35b50346101dc575f7ffffffffffffffffffffffffffffffffffffffffffffffffffffffffffffffffc3601126101dc576020905165ac76a57eb9a48152f35b50346101dc575f7ffffffffffffffffffffffffffffffffffffffffffffffffffffffffffffffffc3601126101dc5760209051670ddbb3130051477a8152f35b50346101dc575f7ffffffffffffffffffffffffffffffffffffffffffffffffffffffffffffffffc3601126101dc576020905166052de6f3e9958f8152f35b50346101dc575f7ffffffffffffffffffffffffffffffffffffffffffffffffffffffffffffffffc3601126101dc5760209073ffffffffffffffffffffffffffffffffffffffff600154169051908152f35b50346101dc575f7ffffffffffffffffffffffffffffffffffffffffffffffffffffffffffffffffc3601126101dc57602090516d2d9856fc421a9fd095f8b44c49db8152f35b346101dc5760a07ffffffffffffffffffffffffffffffffffffffffffffffffffffffffffffffffc3601126101dc5767ffffffffffffffff9080358281116101dc576105d69036908301610b52565b50506024359182116101dc576105ee91369101610b52565b505060443573ffffffffffffffffffffffffffffffffffffffff90818116036101dc57606435908116036101dc57005b82346101dc5760607ffffffffffffffffffffffffffffffffffffffffffffffffffffffffffffffffc3601126101dc57610656610b83565b9061065f610ba6565b604435801515036101dc5760209273ffffffffffffffffffffffffffffffffffffffff8091165f525f8452825f2091165f528252805f20549051908152f35b82346101dc57807ffffffffffffffffffffffffffffffffffffffffffffffffffffffffffffffffc3601126101dc576106d5610b83565b90602435801515036101dc5760209173ffffffffffffffffffffffffffffffffffffffff8091165f525f8352815f2090600154165f528252805f20549051908152f35b82346101dc57807ffffffffffffffffffffffffffffffffffffffffffffffffffffffffffffffffc3601126101dc57602090610752610b83565b61075a610ba6565b9073ffffffffffffffffffffffffffffffffffffffff8091165f525f8452825f2091165f528252805f20549051908152f35b82346101dc575f7ffffffffffffffffffffffffffffffffffffffffffffffffffffffffffffffffc3601126101dc5760209073ffffffffffffffffffffffffffffffffffffffff600354169051908152f35b82346101dc576107ed36610bc9565b929173ffffffffffffffffffffffffffffffffffffffff8091165f525f602052825f2091165f526020525f20555f80f35b82346101dc575f7ffffffffffffffffffffffffffffffffffffffffffffffffffffffffffffffffc3601126101dc5760209051682506936e734ac2f9268152f35b82346101dc575f7ffffffffffffffffffffffffffffffffffffffffffffffffffffffffffffffffc3601126101dc57602090516c110dcba2e6f97b2a41a7eba1b88152f35b82346101dc575f7ffffffffffffffffffffffffffffffffffffffffffffffffffffffffffffffffc3601126101dc57602090516ad47d67cce9223fad7de3478152f35b82346101dc575f7ffffffffffffffffffffffffffffffffffffffffffffffffffffffffffffffffc3601126101dc576020905163e4ac05168152f35b82346101dc575f7ffffffffffffffffffffffffffffffffffffffffffffffffffffffffffffffffc3601126101dc5760209073ffffffffffffffffffffffffffffffffffffffff600254169051908152f35b82346101dc5760209061099061098a36610bc9565b91610d4c565b9051908152f35b82346101dc575f7ffffffffffffffffffffffffffffffffffffffffffffffffffffffffffffffffc3601126101dc57602090516c110f11bc46bc3efcc5b8ff12238152f35b82346101dc5760607ffffffffffffffffffffffffffffffffffffffffffffffffffffffffffffffffc3601126101dc5767ffffffffffffffff82358181116101dc57610a2b9036908501610b52565b50506024358181116101dc57610a449036908501610b52565b50506044359081116101dc57602092610a5f91369101610b52565b50505160018152f35b82346101dc575f7ffffffffffffffffffffffffffffffffffffffffffffffffffffffffffffffffc3601126101dc57602090516104388152f35b82346101dc575f7ffffffffffffffffffffffffffffffffffffffffffffffffffffffffffffffffc3601126101dc5760209051620b68f78152f35b82346101dc575f7ffffffffffffffffffffffffffffffffffffffffffffffffffffffffffffffffc3601126101dc57602090515f8152f35b346101dc575f7ffffffffffffffffffffffffffffffffffffffffffffffffffffffffffffffffc3601126101dc5780660533304f826d3160209252f35b9181601f840112156101dc5782359167ffffffffffffffff83116101dc576020808501948460051b0101116101dc57565b6004359073ffffffffffffffffffffffffffffffffffffffff821682036101dc57565b6024359073ffffffffffffffffffffffffffffffffffffffff821682036101dc57565b7ffffffffffffffffffffffffffffffffffffffffffffffffffffffffffffffffc60609101126101dc5773ffffffffffffffffffffffffffffffffffffffff9060043582811681036101dc579160243590811681036101dc579060443590565b90601f7fffffffffffffffffffffffffffffffffffffffffffffffffffffffffffffffe0910116810190811067ffffffffffffffff821117610c6a57604052565b7f4e487b71000000000000000000000000000000000000000000000000000000005f52604160045260245ffd5b908160209103126101dc575160ff811681036101dc5790565b60ff16604d8111610cc157600a0a90565b7f4e487b71000000000000000000000000000000000000000000000000000000005f52601160045260245ffd5b81810292918115918404141715610cc157565b8115610d0b570490565b7f4e487b71000000000000000000000000000000000000000000000000000000005f52601260045260245ffd5b9060ff8091169116039060ff8211610cc157565b9173ffffffffffffffffffffffffffffffffffffffff8093166040928351937f313ce56700000000000000000000000000000000000000000000000000000000958686526020928387600481885afa968715610ee1575f97610ec2575b501681519687528287600481845afa968715610eb8575f97610e6b575b5092610e06670de0b6b3a76400009593610e0b93610e1196610de78a610cb0565b92610df18c610cb0565b955f525f8152825f20915f52525f2054610cee565b610d01565b90610cee565b049160ff81169060ff831691808314610e6457610e40921192835f14610e5b5790610e3b91610d38565b610cb0565b9015610e5257610e4f91610d01565b90565b610e4f91610cee565b610e3b91610d38565b5050505090565b610e119491975083610e0b93610ea3610e0693670de0b6b3a764000099973d8511610eb1575b610e9b8183610c29565b810190610c97565b999396509350939550610dc6565b503d610e91565b82513d5f823e3d90fd5b610eda919750843d8611610eb157610e9b8183610c29565b955f610da9565b83513d5f823e3d90fdfea2646970667358221220ad1b7b56147bada4b0c17000d38c769c1d25faa2ec3f20154ad3945722ce6b2564736f6c63430008190033",
  "linkReferences": {},
  "deployedLinkReferences": {}
}