{
  "_format": "hh-sol-artifact-1",
  "contractName": "MockRebalancer",
  "sourceName": "contracts/mock/MockRebalancer.sol",
  "abi": [
    {
      "inputs": [
        {
          "internalType": "address",
          "name": "usdc",
          "type": "address"
        },
        {
          "internalType": "address",
          "name": "usdt",
          "type": "address"
        },
        {
          "internalType": "address",
          "name": "_wmatic",
          "type": "address"
        },
        {
          "internalType": "address",
          "name": "weth",
          "type": "address"
        },
        {
          "internalType": "address",
          "name": "wbtc",
          "type": "address"
        }
      ],
      "stateMutability": "nonpayable",
      "type": "constructor"
    },
    {
      "inputs": [],
      "name": "USDC_TO_USDT_RATE",
      "outputs": [
        {
          "internalType": "uint256",
          "name": "",
          "type": "uint256"
        }
      ],
      "stateMutability": "view",
      "type": "function"
    },
    {
      "inputs": [],
      "name": "USDC_TO_WBTC_RATE",
      "outputs": [
        {
          "internalType": "uint256",
          "name": "",
          "type": "uint256"
        }
      ],
      "stateMutability": "view",
      "type": "function"
    },
    {
      "inputs": [],
      "name": "USDC_TO_WETH_RATE",
      "outputs": [
        {
          "internalType": "uint256",
          "name": "",
          "type": "uint256"
        }
      ],
      "stateMutability": "view",
      "type": "function"
    },
    {
      "inputs": [],
      "name": "USDC_TO_WMATIC_RATE",
      "outputs": [
        {
          "internalType": "uint256",
          "name": "",
          "type": "uint256"
        }
      ],
      "stateMutability": "view",
      "type": "function"
    },
    {
      "inputs": [],
      "name": "USDT_TO_USDC_RATE",
      "outputs": [
        {
          "internalType": "uint256",
          "name": "",
          "type": "uint256"
        }
      ],
      "stateMutability": "view",
      "type": "function"
    },
    {
      "inputs": [],
      "name": "USDT_TO_WBTC_RATE",
      "outputs": [
        {
          "internalType": "uint256",
          "name": "",
          "type": "uint256"
        }
      ],
      "stateMutability": "view",
      "type": "function"
    },
    {
      "inputs": [],
      "name": "USDT_TO_WETH_RATE",
      "outputs": [
        {
          "internalType": "uint256",
          "name": "",
          "type": "uint256"
        }
      ],
      "stateMutability": "view",
      "type": "function"
    },
    {
      "inputs": [],
      "name": "USDT_TO_WMATIC_RATE",
      "outputs": [
        {
          "internalType": "uint256",
          "name": "",
          "type": "uint256"
        }
      ],
      "stateMutability": "view",
      "type": "function"
    },
    {
      "inputs": [],
      "name": "WBTC_TO_USDC_RATE",
      "outputs": [
        {
          "internalType": "uint256",
          "name": "",
          "type": "uint256"
        }
      ],
      "stateMutability": "view",
      "type": "function"
    },
    {
      "inputs": [],
      "name": "WBTC_TO_USDT_RATE",
      "outputs": [
        {
          "internalType": "uint256",
          "name": "",
          "type": "uint256"
        }
      ],
      "stateMutability": "view",
      "type": "function"
    },
    {
      "inputs": [],
      "name": "WBTC_TO_WETH_RATE",
      "outputs": [
        {
          "internalType": "uint256",
          "name": "",
          "type": "uint256"
        }
      ],
      "stateMutability": "view",
      "type": "function"
    },
    {
      "inputs": [],
      "name": "WBTC_TO_WMATIC_RATE",
      "outputs": [
        {
          "internalType": "uint256",
          "name": "",
          "type": "uint256"
        }
      ],
      "stateMutability": "view",
      "type": "function"
    },
    {
      "inputs": [],
      "name": "WETH_TO_WMATIC_RATE",
      "outputs": [
        {
          "internalType": "uint256",
          "name": "",
          "type": "uint256"
        }
      ],
      "stateMutability": "view",
      "type": "function"
    },
    {
      "inputs": [],
      "name": "WMATIC_TO_USDC_RATE",
      "outputs": [
        {
          "internalType": "uint256",
          "name": "",
          "type": "uint256"
        }
      ],
      "stateMutability": "view",
      "type": "function"
    },
    {
      "inputs": [],
      "name": "WMATIC_TO_USDT_RATE",
      "outputs": [
        {
          "internalType": "uint256",
          "name": "",
          "type": "uint256"
        }
      ],
      "stateMutability": "view",
      "type": "function"
    },
    {
      "inputs": [],
      "name": "WMATIC_TO_WBTC_RATE",
      "outputs": [
        {
          "internalType": "uint256",
          "name": "",
          "type": "uint256"
        }
      ],
      "stateMutability": "view",
      "type": "function"
    },
    {
      "inputs": [],
      "name": "WMATIC_TO_WETH_RATE",
      "outputs": [
        {
          "internalType": "uint256",
          "name": "",
          "type": "uint256"
        }
      ],
      "stateMutability": "view",
      "type": "function"
    },
    {
      "inputs": [
        {
          "internalType": "address[]",
          "name": "",
          "type": "address[]"
        },
        {
          "internalType": "uint256[]",
          "name": "",
          "type": "uint256[]"
        },
        {
          "internalType": "uint256[]",
          "name": "",
          "type": "uint256[]"
        }
      ],
      "name": "checkRebalance",
      "outputs": [
        {
          "internalType": "bool",
          "name": "",
          "type": "bool"
        }
      ],
      "stateMutability": "view",
      "type": "function"
    },
    {
      "inputs": [],
      "name": "getBaluniRouter",
      "outputs": [
        {
          "internalType": "address",
          "name": "",
          "type": "address"
        }
      ],
      "stateMutability": "view",
      "type": "function"
    },
    {
      "inputs": [
        {
          "internalType": "contract IERC20",
          "name": "fromToken",
          "type": "address"
        },
        {
          "internalType": "contract IERC20",
          "name": "toToken",
          "type": "address"
        },
        {
          "internalType": "bool",
          "name": "",
          "type": "bool"
        }
      ],
      "name": "getRate",
      "outputs": [
        {
          "internalType": "uint256",
          "name": "",
          "type": "uint256"
        }
      ],
      "stateMutability": "view",
      "type": "function"
    },
    {
      "inputs": [
        {
          "internalType": "contract IERC20",
          "name": "fromToken",
          "type": "address"
        },
        {
          "internalType": "bool",
          "name": "",
          "type": "bool"
        }
      ],
      "name": "getRateToEth",
      "outputs": [
        {
          "internalType": "uint256",
          "name": "",
          "type": "uint256"
        }
      ],
      "stateMutability": "view",
      "type": "function"
    },
    {
      "inputs": [],
      "name": "getTreasury",
      "outputs": [
        {
          "internalType": "address",
          "name": "",
          "type": "address"
        }
      ],
      "stateMutability": "view",
      "type": "function"
    },
    {
      "inputs": [],
      "name": "getUSDCAddress",
      "outputs": [
        {
          "internalType": "address",
          "name": "",
          "type": "address"
        }
      ],
      "stateMutability": "view",
      "type": "function"
    },
    {
      "inputs": [],
      "name": "getWNATIVEAddress",
      "outputs": [
        {
          "internalType": "address",
          "name": "",
          "type": "address"
        }
      ],
      "stateMutability": "view",
      "type": "function"
    },
    {
      "inputs": [
        {
          "internalType": "address",
          "name": "",
          "type": "address"
        },
        {
          "internalType": "address",
          "name": "",
          "type": "address"
        }
      ],
      "name": "rates",
      "outputs": [
        {
          "internalType": "uint256",
          "name": "",
          "type": "uint256"
        }
      ],
      "stateMutability": "view",
      "type": "function"
    },
    {
      "inputs": [
        {
          "internalType": "address[]",
          "name": "",
          "type": "address[]"
        },
        {
          "internalType": "uint256[]",
          "name": "",
          "type": "uint256[]"
        },
        {
          "internalType": "address",
          "name": "",
          "type": "address"
        },
        {
          "internalType": "address",
          "name": "",
          "type": "address"
        },
        {
          "internalType": "uint256",
          "name": "",
          "type": "uint256"
        }
      ],
      "name": "rebalance",
      "outputs": [],
      "stateMutability": "nonpayable",
      "type": "function"
    },
    {
      "inputs": [
        {
          "internalType": "address",
          "name": "fromToken",
          "type": "address"
        },
        {
          "internalType": "address",
          "name": "toToken",
          "type": "address"
        },
        {
          "internalType": "uint256",
          "name": "rate",
          "type": "uint256"
        }
      ],
      "name": "setRate",
      "outputs": [],
      "stateMutability": "nonpayable",
      "type": "function"
    },
    {
      "inputs": [
        {
          "internalType": "address",
          "name": "_treasury",
          "type": "address"
        }
      ],
      "name": "setTreasury",
      "outputs": [],
      "stateMutability": "nonpayable",
      "type": "function"
    },
    {
      "inputs": [],
      "name": "treasury",
      "outputs": [
        {
          "internalType": "address",
          "name": "",
          "type": "address"
        }
      ],
      "stateMutability": "view",
      "type": "function"
    },
    {
      "inputs": [],
      "name": "wmatic",
      "outputs": [
        {
          "internalType": "address",
          "name": "",
          "type": "address"
        }
      ],
      "stateMutability": "view",
      "type": "function"
    }
  ],
  "bytecode": "0x60803461029957601f610a7538819003918201601f191683019291906001600160401b0384118385101761029d578160a092849260409687528339810103126102995761004b816102b1565b9060209061005a8282016102b1565b906100668582016102b1565b9361007f6080610078606085016102b1565b93016102b1565b9060018060a01b038094816001981660018060a01b03198954161788551691825f525f865284885f20921691825f528652670ddc25ba9553c8e4885f2055825f525f865284885f20911690815f52865266052de6f3e9958f885f2055825f525f865284885f20941693845f5286526ad47d67cce9223fad7de347885f2055825f525f8652875f20858854165f5286526c110f11bc46bc3efcc5b8ff1223885f2055805f525f8652875f20835f5286526824efc5d2223b2ab2b280895f2055815f525f8752885f20868954165f5287526d2d9856fc421a9fd095f8b44c49db895f2055815f525f8752885f20835f528752885f2055805f525f8652875f20845f5286526c0236febc16a26943df322289be885f2055815f525f8652875f20835f528652670de435a2a433cf48885f2055815f525f8652875f20815f528652660533304f826d31885f2055815f525f8652875f20858854165f5286526c110dcba2e6f97b2a41a7eba1b8885f2055815f525f8652875f20845f5286526ad4801858112018c8850bae885f2055848754165f525f8652875f20905f528552610438875f2055838654165f525f8552865f20835f52855265ac76a57eb9a4875f2055838654165f525f8552865f20905f528452620b48cd865f2055828554165f525f8452855f20905f528352620b68f7855f20555f525f8252835f209254165f525269011de1930ce9ab44b5a1815f2055516107af90816102c68239f35b5f80fd5b634e487b7160e01b5f52604160045260245ffd5b51906001600160a01b03821682036102995756fe6080604090808252600480361015610015575f80fd5b5f3560e01c91826302098719146106a65750816304cc7325146102685781630e09176214610689578163187029b81461066d57816318cdc49a146105ff5781631a1e4a1f146105d85781633b19e84a14610502578163443dc789146105b35781635107e94e1461058c57816353ff493e146102465781635911fb9a1461053657816361d027b3146105025781637b0cf44d146104ac5781637de4fd1014610450578163802431fb146103ee57816384db1dfb14610375575080638e5139ed1461034d578063956fb5101461031957806397db8e02146102f8578063a58a7f8a146102d6578063ae3bcc96146102b6578063b537d24b14610294578063b9e938101461026d578063bc06e81d14610268578063c01849831461024b578063d135e3be14610246578063e2338e7214610221578063e30f6892146101fd578063f0f44260146101a15763fb41be161461016a575f80fd5b3461019d575f60031936011261019d5760209073ffffffffffffffffffffffffffffffffffffffff600154169051908152f35b5f80fd5b3461019d57602060031936011261019d5773ffffffffffffffffffffffffffffffffffffffff6101cf610733565b167fffffffffffffffffffffffff000000000000000000000000000000000000000060025416176002555f80f35b503461019d575f60031936011261019d576020905169011de1930ce9ab44b5a18152f35b503461019d575f60031936011261019d57602090516ad4801858112018c8850bae8152f35b610710565b503461019d575f60031936011261019d5760209051620b48cd8152f35b6106c5565b503461019d575f60031936011261019d57602090516c0236febc16a26943df322289be8152f35b503461019d575f60031936011261019d5760209051670de435a2a433cf488152f35b503461019d575f60031936011261019d576020905165ac76a57eb9a48152f35b503461019d575f60031936011261019d5760209051670ddc25ba9553c8e48152f35b503461019d575f60031936011261019d576020905166052de6f3e9958f8152f35b503461019d575f60031936011261019d5760209073ffffffffffffffffffffffffffffffffffffffff600154169051908152f35b503461019d575f60031936011261019d57602090516d2d9856fc421a9fd095f8b44c49db8152f35b3461019d5760a060031936011261019d5767ffffffffffffffff90803582811161019d576103a690369083016106df565b505060243591821161019d576103be913691016106df565b505060443573ffffffffffffffffffffffffffffffffffffffff908181160361019d576064359081160361019d57005b823461019d57606060031936011261019d57610408610733565b90610411610756565b6044358015150361019d5760209273ffffffffffffffffffffffffffffffffffffffff8091165f525f8452825f2091165f528252805f20549051908152f35b823461019d578060031936011261019d57610469610733565b906024358015150361019d5760209173ffffffffffffffffffffffffffffffffffffffff8091165f525f8352815f2090600154165f528252805f20549051908152f35b823461019d578060031936011261019d576020906104c8610733565b6104d0610756565b9073ffffffffffffffffffffffffffffffffffffffff8091165f525f8452825f2091165f528252805f20549051908152f35b823461019d575f60031936011261019d5760209073ffffffffffffffffffffffffffffffffffffffff600254169051908152f35b823461019d57606060031936011261019d57610550610733565b610558610756565b9073ffffffffffffffffffffffffffffffffffffffff8091165f525f602052825f2091165f52602052604435905f20555f80f35b823461019d575f60031936011261019d57602090516c110dcba2e6f97b2a41a7eba1b88152f35b823461019d575f60031936011261019d57602090516ad47d67cce9223fad7de3478152f35b823461019d575f60031936011261019d57602090516c110f11bc46bc3efcc5b8ff12238152f35b823461019d57606060031936011261019d5767ffffffffffffffff823581811161019d5761063090369085016106df565b505060243581811161019d5761064990369085016106df565b505060443590811161019d57602092610664913691016106df565b50505160018152f35b823461019d575f60031936011261019d57602090516104388152f35b823461019d575f60031936011261019d5760209051620b68f78152f35b3461019d575f60031936011261019d5780660533304f826d3160209252f35b3461019d575f60031936011261019d5760206040515f8152f35b9181601f8401121561019d5782359167ffffffffffffffff831161019d576020808501948460051b01011161019d57565b3461019d575f60031936011261019d5760206040516824efc5d2223b2ab2b28152f35b6004359073ffffffffffffffffffffffffffffffffffffffff8216820361019d57565b6024359073ffffffffffffffffffffffffffffffffffffffff8216820361019d5756fea2646970667358221220cb7b0c28347fa275fd5ff067d6688d2f8de76ef7c3cfc54d95b03179913301f964736f6c63430008190033",
  "linkReferences": {},
  "deployedLinkReferences": {}
}