{
  "_format": "hh-sol-artifact-1",
  "contractName": "MockRebalancer",
  "sourceName": "contracts/mock/MockRebalancer.sol",
  "abi": [
    {
      "inputs": [
        {
          "internalType": "address",
          "name": "usdt",
          "type": "address"
        },
        {
          "internalType": "address",
          "name": "_usdc",
          "type": "address"
        },
        {
          "internalType": "address",
          "name": "_wmatic",
          "type": "address"
        },
        {
          "internalType": "address",
          "name": "weth",
          "type": "address"
        },
        {
          "internalType": "address",
          "name": "wbtc",
          "type": "address"
        }
      ],
      "stateMutability": "nonpayable",
      "type": "constructor"
    },
    {
      "inputs": [],
      "name": "USDC",
      "outputs": [
        {
          "internalType": "address",
          "name": "",
          "type": "address"
        }
      ],
      "stateMutability": "view",
      "type": "function"
    },
    {
      "inputs": [],
      "name": "USDC_TO_USDT_RATE",
      "outputs": [
        {
          "internalType": "uint256",
          "name": "",
          "type": "uint256"
        }
      ],
      "stateMutability": "view",
      "type": "function"
    },
    {
      "inputs": [],
      "name": "USDC_TO_WBTC_RATE",
      "outputs": [
        {
          "internalType": "uint256",
          "name": "",
          "type": "uint256"
        }
      ],
      "stateMutability": "view",
      "type": "function"
    },
    {
      "inputs": [],
      "name": "USDC_TO_WETH_RATE",
      "outputs": [
        {
          "internalType": "uint256",
          "name": "",
          "type": "uint256"
        }
      ],
      "stateMutability": "view",
      "type": "function"
    },
    {
      "inputs": [],
      "name": "USDC_TO_WMATIC_RATE",
      "outputs": [
        {
          "internalType": "uint256",
          "name": "",
          "type": "uint256"
        }
      ],
      "stateMutability": "view",
      "type": "function"
    },
    {
      "inputs": [],
      "name": "USDT_TO_USDC_RATE",
      "outputs": [
        {
          "internalType": "uint256",
          "name": "",
          "type": "uint256"
        }
      ],
      "stateMutability": "view",
      "type": "function"
    },
    {
      "inputs": [],
      "name": "USDT_TO_WBTC_RATE",
      "outputs": [
        {
          "internalType": "uint256",
          "name": "",
          "type": "uint256"
        }
      ],
      "stateMutability": "view",
      "type": "function"
    },
    {
      "inputs": [],
      "name": "USDT_TO_WETH_RATE",
      "outputs": [
        {
          "internalType": "uint256",
          "name": "",
          "type": "uint256"
        }
      ],
      "stateMutability": "view",
      "type": "function"
    },
    {
      "inputs": [],
      "name": "USDT_TO_WMATIC_RATE",
      "outputs": [
        {
          "internalType": "uint256",
          "name": "",
          "type": "uint256"
        }
      ],
      "stateMutability": "view",
      "type": "function"
    },
    {
      "inputs": [],
      "name": "WBTC_TO_USDC_RATE",
      "outputs": [
        {
          "internalType": "uint256",
          "name": "",
          "type": "uint256"
        }
      ],
      "stateMutability": "view",
      "type": "function"
    },
    {
      "inputs": [],
      "name": "WBTC_TO_USDT_RATE",
      "outputs": [
        {
          "internalType": "uint256",
          "name": "",
          "type": "uint256"
        }
      ],
      "stateMutability": "view",
      "type": "function"
    },
    {
      "inputs": [],
      "name": "WBTC_TO_WETH_RATE",
      "outputs": [
        {
          "internalType": "uint256",
          "name": "",
          "type": "uint256"
        }
      ],
      "stateMutability": "view",
      "type": "function"
    },
    {
      "inputs": [],
      "name": "WBTC_TO_WMATIC_RATE",
      "outputs": [
        {
          "internalType": "uint256",
          "name": "",
          "type": "uint256"
        }
      ],
      "stateMutability": "view",
      "type": "function"
    },
    {
      "inputs": [],
      "name": "WETH_TO_USDC_RATE",
      "outputs": [
        {
          "internalType": "uint256",
          "name": "",
          "type": "uint256"
        }
      ],
      "stateMutability": "view",
      "type": "function"
    },
    {
      "inputs": [],
      "name": "WETH_TO_USDT_RATE",
      "outputs": [
        {
          "internalType": "uint256",
          "name": "",
          "type": "uint256"
        }
      ],
      "stateMutability": "view",
      "type": "function"
    },
    {
      "inputs": [],
      "name": "WETH_TO_WBTC_RATE",
      "outputs": [
        {
          "internalType": "uint256",
          "name": "",
          "type": "uint256"
        }
      ],
      "stateMutability": "view",
      "type": "function"
    },
    {
      "inputs": [],
      "name": "WETH_TO_WMATIC_RATE",
      "outputs": [
        {
          "internalType": "uint256",
          "name": "",
          "type": "uint256"
        }
      ],
      "stateMutability": "view",
      "type": "function"
    },
    {
      "inputs": [],
      "name": "WMATIC_TO_USDC_RATE",
      "outputs": [
        {
          "internalType": "uint256",
          "name": "",
          "type": "uint256"
        }
      ],
      "stateMutability": "view",
      "type": "function"
    },
    {
      "inputs": [],
      "name": "WMATIC_TO_USDT_RATE",
      "outputs": [
        {
          "internalType": "uint256",
          "name": "",
          "type": "uint256"
        }
      ],
      "stateMutability": "view",
      "type": "function"
    },
    {
      "inputs": [],
      "name": "WMATIC_TO_WBTC_RATE",
      "outputs": [
        {
          "internalType": "uint256",
          "name": "",
          "type": "uint256"
        }
      ],
      "stateMutability": "view",
      "type": "function"
    },
    {
      "inputs": [],
      "name": "WMATIC_TO_WETH_RATE",
      "outputs": [
        {
          "internalType": "uint256",
          "name": "",
          "type": "uint256"
        }
      ],
      "stateMutability": "view",
      "type": "function"
    },
    {
      "inputs": [],
      "name": "WNATIVE",
      "outputs": [
        {
          "internalType": "address",
          "name": "",
          "type": "address"
        }
      ],
      "stateMutability": "view",
      "type": "function"
    },
    {
      "inputs": [
        {
          "internalType": "address[]",
          "name": "",
          "type": "address[]"
        },
        {
          "internalType": "uint256[]",
          "name": "",
          "type": "uint256[]"
        },
        {
          "internalType": "uint256[]",
          "name": "",
          "type": "uint256[]"
        }
      ],
      "name": "checkRebalance",
      "outputs": [
        {
          "internalType": "bool",
          "name": "",
          "type": "bool"
        }
      ],
      "stateMutability": "view",
      "type": "function"
    },
    {
      "inputs": [],
      "name": "getBaluniRouter",
      "outputs": [
        {
          "internalType": "address",
          "name": "",
          "type": "address"
        }
      ],
      "stateMutability": "view",
      "type": "function"
    },
    {
      "inputs": [
        {
          "internalType": "contract IERC20",
          "name": "fromToken",
          "type": "address"
        },
        {
          "internalType": "contract IERC20",
          "name": "toToken",
          "type": "address"
        },
        {
          "internalType": "bool",
          "name": "",
          "type": "bool"
        }
      ],
      "name": "getRate",
      "outputs": [
        {
          "internalType": "uint256",
          "name": "",
          "type": "uint256"
        }
      ],
      "stateMutability": "view",
      "type": "function"
    },
    {
      "inputs": [
        {
          "internalType": "contract IERC20",
          "name": "fromToken",
          "type": "address"
        },
        {
          "internalType": "bool",
          "name": "",
          "type": "bool"
        }
      ],
      "name": "getRateToEth",
      "outputs": [
        {
          "internalType": "uint256",
          "name": "",
          "type": "uint256"
        }
      ],
      "stateMutability": "view",
      "type": "function"
    },
    {
      "inputs": [],
      "name": "getTreasury",
      "outputs": [
        {
          "internalType": "address",
          "name": "",
          "type": "address"
        }
      ],
      "stateMutability": "view",
      "type": "function"
    },
    {
      "inputs": [
        {
          "internalType": "address",
          "name": "",
          "type": "address"
        },
        {
          "internalType": "address",
          "name": "",
          "type": "address"
        }
      ],
      "name": "rates",
      "outputs": [
        {
          "internalType": "uint256",
          "name": "",
          "type": "uint256"
        }
      ],
      "stateMutability": "view",
      "type": "function"
    },
    {
      "inputs": [
        {
          "internalType": "address[]",
          "name": "",
          "type": "address[]"
        },
        {
          "internalType": "uint256[]",
          "name": "",
          "type": "uint256[]"
        },
        {
          "internalType": "address",
          "name": "",
          "type": "address"
        },
        {
          "internalType": "address",
          "name": "",
          "type": "address"
        },
        {
          "internalType": "uint256",
          "name": "",
          "type": "uint256"
        }
      ],
      "name": "rebalance",
      "outputs": [],
      "stateMutability": "nonpayable",
      "type": "function"
    },
    {
      "inputs": [
        {
          "internalType": "address",
          "name": "fromToken",
          "type": "address"
        },
        {
          "internalType": "address",
          "name": "toToken",
          "type": "address"
        },
        {
          "internalType": "uint256",
          "name": "rate",
          "type": "uint256"
        }
      ],
      "name": "setRate",
      "outputs": [],
      "stateMutability": "nonpayable",
      "type": "function"
    },
    {
      "inputs": [
        {
          "internalType": "address",
          "name": "_treasury",
          "type": "address"
        }
      ],
      "name": "setTreasury",
      "outputs": [],
      "stateMutability": "nonpayable",
      "type": "function"
    },
    {
      "inputs": [],
      "name": "treasury",
      "outputs": [
        {
          "internalType": "address",
          "name": "",
          "type": "address"
        }
      ],
      "stateMutability": "view",
      "type": "function"
    }
  ],
  "bytecode": "0x60803461030e57601f610b6738819003918201601f191683019291906001600160401b03841183851017610312578160a0928492604096875283398101031261030e5761004b81610326565b9060209061005a828201610326565b92610066858301610326565b9361007f608061007860608601610326565b9401610326565b9460018060a01b0390818060018060a01b03199481600294168685541617845516946001948681875416178655339060035416176003551693845f525f8752885f20905f528652670ddc9893b8f69331885f2055835f525f8652875f20828254165f5286526c110f11bc46bc3efcc5b8ff1223885f2055835f525f865281885f20971696875f52865266052de6f3e9958f885f2055835f525f865281885f20951694855f5286526ad47d67cce9223fad7de347885f2055865f525f8652875f20845f5286526824efc5d2223b2ab2b2885f2055865f525f8652875f20828254165f5286526d2d9856fc421a9fd095f8b44c49db885f2055865f525f8652875f20828454165f528652682506936e734ac2f926885f2055865f525f8652875f20855f5286526c0236febc16a26943df322289be885f2055818354165f525f8652875f20845f528652670de435a2a433cf48885f2055818354165f525f8652875f20875f528652660533304f826d31885f2055818354165f525f8652875f20828254165f5286526c110dcba2e6f97b2a41a7eba1b8885f2055818354165f525f8652875f20855f5286526ad4801858112018c8850bae885f2055818154165f525f8652875f20875f528652610438885f2055818154165f525f8652875f20855f52865265ac76a57eb9a4885f2055818154165f525f8652875f20828454165f528652620b32d1885f2055818154165f525f8652875f20845f528652620b68f7885f2055845f525f865281885f209154165f52855269011de1930ce9ab44b5a1875f2055835f525f8552865f209154165f52835263e163500a9081865f2055825f525f8452855f20905f528352845f20555f525f8152825f20915f52526254dddd815f20555161082c908161033b8239f35b5f80fd5b634e487b7160e01b5f52604160045260245ffd5b51906001600160a01b038216820361030e5756fe60806040818152600480361015610014575f80fd5b5f3560e01c92836302098719146107605750826304cc7325146107465782630e09176214610729578263187029b81461070d57826318cdc49a1461069f5782631a1e4a1f146106785782633b19e84a146105265782634039e6871461065a578263431463991461063d578263443dc789146106185782635107e94e146105f157826353ff493e146105ce5782635911fb9a146105785782635fc8cd691461055a57826361d027b3146105265782637b0cf44d146104d05782637de4fd1014610474578263802431fb1461041257826384db1dfb146103995750816389a30271146103665781638e5139ed1461033f57816397db8e021461031f578163a58a7f8a146102fe578163ae3bcc96146102df578163b381cf40146102ac578163b537d24b1461028b578163b9e9381014610265578163c018498314610249578163d135e3be14610227578163e2338e7214610203578163e30f6892146101e0575063f0f4426014610180575f80fd5b346101dc5760206003193601126101dc5773ffffffffffffffffffffffffffffffffffffffff6101ae6107b0565b167fffffffffffffffffffffffff000000000000000000000000000000000000000060035416176003555f80f35b5f80fd5b346101dc575f6003193601126101dc576020905169011de1930ce9ab44b5a18152f35b346101dc575f6003193601126101dc57602090516ad4801858112018c8850bae8152f35b346101dc575f6003193601126101dc57602090516824efc5d2223b2ab2b28152f35b346101dc575f6003193601126101dc5760209051620b32d18152f35b346101dc575f6003193601126101dc57602090516c0236febc16a26943df322289be8152f35b346101dc575f6003193601126101dc5760209051670de435a2a433cf488152f35b346101dc575f6003193601126101dc5760209073ffffffffffffffffffffffffffffffffffffffff600254169051908152f35b346101dc575f6003193601126101dc576020905165ac76a57eb9a48152f35b346101dc575f6003193601126101dc5760209051670ddc9893b8f693318152f35b346101dc575f6003193601126101dc576020905166052de6f3e9958f8152f35b346101dc575f6003193601126101dc57602090516d2d9856fc421a9fd095f8b44c49db8152f35b346101dc575f6003193601126101dc5760209073ffffffffffffffffffffffffffffffffffffffff600154169051908152f35b346101dc5760a06003193601126101dc5767ffffffffffffffff9080358281116101dc576103ca903690830161077f565b50506024359182116101dc576103e29136910161077f565b505060443573ffffffffffffffffffffffffffffffffffffffff90818116036101dc57606435908116036101dc57005b50346101dc5760606003193601126101dc5761042c6107b0565b906104356107d3565b604435801515036101dc5760209273ffffffffffffffffffffffffffffffffffffffff8091165f525f8452825f2091165f528252805f20549051908152f35b50346101dc57806003193601126101dc5761048d6107b0565b90602435801515036101dc5760209173ffffffffffffffffffffffffffffffffffffffff8091165f525f8352815f2090600254165f528252805f20549051908152f35b50346101dc57806003193601126101dc576020906104ec6107b0565b6104f46107d3565b9073ffffffffffffffffffffffffffffffffffffffff8091165f525f8452825f2091165f528252805f20549051908152f35b50346101dc575f6003193601126101dc5760209073ffffffffffffffffffffffffffffffffffffffff600354169051908152f35b50346101dc575f6003193601126101dc576020905163df77b36f8152f35b50346101dc5760606003193601126101dc576105926107b0565b61059a6107d3565b9073ffffffffffffffffffffffffffffffffffffffff8091165f525f602052825f2091165f52602052604435905f20555f80f35b50346101dc575f6003193601126101dc5760209051682506936e734ac2f9268152f35b50346101dc575f6003193601126101dc57602090516c110dcba2e6f97b2a41a7eba1b88152f35b50346101dc575f6003193601126101dc57602090516ad47d67cce9223fad7de3478152f35b50346101dc575f6003193601126101dc57602090516254dddd8152f35b50346101dc575f6003193601126101dc576020905163e163500a8152f35b50346101dc575f6003193601126101dc57602090516c110f11bc46bc3efcc5b8ff12238152f35b90346101dc5760606003193601126101dc5767ffffffffffffffff82358181116101dc576106d0903690850161077f565b50506024358181116101dc576106e9903690850161077f565b50506044359081116101dc576020926107049136910161077f565b50505160018152f35b50346101dc575f6003193601126101dc57602090516104388152f35b50346101dc575f6003193601126101dc5760209051620b68f78152f35b50346101dc575f6003193601126101dc57602090515f8152f35b346101dc575f6003193601126101dc5780660533304f826d3160209252f35b9181601f840112156101dc5782359167ffffffffffffffff83116101dc576020808501948460051b0101116101dc57565b6004359073ffffffffffffffffffffffffffffffffffffffff821682036101dc57565b6024359073ffffffffffffffffffffffffffffffffffffffff821682036101dc5756fea2646970667358221220e30d8990b1696748fc306d92ba588312ae7d186efe2be227358c7153fc1d8a7164736f6c63430008190033",
  "linkReferences": {},
  "deployedLinkReferences": {}
}