{
  "_format": "hh-sol-artifact-1",
  "contractName": "MockRebalancer",
  "sourceName": "contracts/mock/MockRebalancer.sol",
  "abi": [
    {
      "inputs": [
        {
          "internalType": "address",
          "name": "usdt",
          "type": "address"
        },
        {
          "internalType": "address",
          "name": "_usdc",
          "type": "address"
        },
        {
          "internalType": "address",
          "name": "_wmatic",
          "type": "address"
        },
        {
          "internalType": "address",
          "name": "weth",
          "type": "address"
        },
        {
          "internalType": "address",
          "name": "wbtc",
          "type": "address"
        }
      ],
      "stateMutability": "nonpayable",
      "type": "constructor"
    },
    {
      "inputs": [],
      "name": "USDC",
      "outputs": [
        {
          "internalType": "address",
          "name": "",
          "type": "address"
        }
      ],
      "stateMutability": "view",
      "type": "function"
    },
    {
      "inputs": [],
      "name": "USDC_TO_USDT_RATE",
      "outputs": [
        {
          "internalType": "uint256",
          "name": "",
          "type": "uint256"
        }
      ],
      "stateMutability": "view",
      "type": "function"
    },
    {
      "inputs": [],
      "name": "USDC_TO_WBTC_RATE",
      "outputs": [
        {
          "internalType": "uint256",
          "name": "",
          "type": "uint256"
        }
      ],
      "stateMutability": "view",
      "type": "function"
    },
    {
      "inputs": [],
      "name": "USDC_TO_WETH_RATE",
      "outputs": [
        {
          "internalType": "uint256",
          "name": "",
          "type": "uint256"
        }
      ],
      "stateMutability": "view",
      "type": "function"
    },
    {
      "inputs": [],
      "name": "USDC_TO_WMATIC_RATE",
      "outputs": [
        {
          "internalType": "uint256",
          "name": "",
          "type": "uint256"
        }
      ],
      "stateMutability": "view",
      "type": "function"
    },
    {
      "inputs": [],
      "name": "USDT_TO_USDC_RATE",
      "outputs": [
        {
          "internalType": "uint256",
          "name": "",
          "type": "uint256"
        }
      ],
      "stateMutability": "view",
      "type": "function"
    },
    {
      "inputs": [],
      "name": "USDT_TO_WBTC_RATE",
      "outputs": [
        {
          "internalType": "uint256",
          "name": "",
          "type": "uint256"
        }
      ],
      "stateMutability": "view",
      "type": "function"
    },
    {
      "inputs": [],
      "name": "USDT_TO_WETH_RATE",
      "outputs": [
        {
          "internalType": "uint256",
          "name": "",
          "type": "uint256"
        }
      ],
      "stateMutability": "view",
      "type": "function"
    },
    {
      "inputs": [],
      "name": "USDT_TO_WMATIC_RATE",
      "outputs": [
        {
          "internalType": "uint256",
          "name": "",
          "type": "uint256"
        }
      ],
      "stateMutability": "view",
      "type": "function"
    },
    {
      "inputs": [],
      "name": "WBTC_TO_USDC_RATE",
      "outputs": [
        {
          "internalType": "uint256",
          "name": "",
          "type": "uint256"
        }
      ],
      "stateMutability": "view",
      "type": "function"
    },
    {
      "inputs": [],
      "name": "WBTC_TO_USDT_RATE",
      "outputs": [
        {
          "internalType": "uint256",
          "name": "",
          "type": "uint256"
        }
      ],
      "stateMutability": "view",
      "type": "function"
    },
    {
      "inputs": [],
      "name": "WBTC_TO_WETH_RATE",
      "outputs": [
        {
          "internalType": "uint256",
          "name": "",
          "type": "uint256"
        }
      ],
      "stateMutability": "view",
      "type": "function"
    },
    {
      "inputs": [],
      "name": "WBTC_TO_WMATIC_RATE",
      "outputs": [
        {
          "internalType": "uint256",
          "name": "",
          "type": "uint256"
        }
      ],
      "stateMutability": "view",
      "type": "function"
    },
    {
      "inputs": [],
      "name": "WETH_TO_USDC_RATE",
      "outputs": [
        {
          "internalType": "uint256",
          "name": "",
          "type": "uint256"
        }
      ],
      "stateMutability": "view",
      "type": "function"
    },
    {
      "inputs": [],
      "name": "WETH_TO_USDT_RATE",
      "outputs": [
        {
          "internalType": "uint256",
          "name": "",
          "type": "uint256"
        }
      ],
      "stateMutability": "view",
      "type": "function"
    },
    {
      "inputs": [],
      "name": "WETH_TO_WBTC_RATE",
      "outputs": [
        {
          "internalType": "uint256",
          "name": "",
          "type": "uint256"
        }
      ],
      "stateMutability": "view",
      "type": "function"
    },
    {
      "inputs": [],
      "name": "WETH_TO_WMATIC_RATE",
      "outputs": [
        {
          "internalType": "uint256",
          "name": "",
          "type": "uint256"
        }
      ],
      "stateMutability": "view",
      "type": "function"
    },
    {
      "inputs": [],
      "name": "WMATIC_TO_USDC_RATE",
      "outputs": [
        {
          "internalType": "uint256",
          "name": "",
          "type": "uint256"
        }
      ],
      "stateMutability": "view",
      "type": "function"
    },
    {
      "inputs": [],
      "name": "WMATIC_TO_USDT_RATE",
      "outputs": [
        {
          "internalType": "uint256",
          "name": "",
          "type": "uint256"
        }
      ],
      "stateMutability": "view",
      "type": "function"
    },
    {
      "inputs": [],
      "name": "WMATIC_TO_WBTC_RATE",
      "outputs": [
        {
          "internalType": "uint256",
          "name": "",
          "type": "uint256"
        }
      ],
      "stateMutability": "view",
      "type": "function"
    },
    {
      "inputs": [],
      "name": "WMATIC_TO_WETH_RATE",
      "outputs": [
        {
          "internalType": "uint256",
          "name": "",
          "type": "uint256"
        }
      ],
      "stateMutability": "view",
      "type": "function"
    },
    {
      "inputs": [],
      "name": "WNATIVE",
      "outputs": [
        {
          "internalType": "address",
          "name": "",
          "type": "address"
        }
      ],
      "stateMutability": "view",
      "type": "function"
    },
    {
      "inputs": [
        {
          "internalType": "address[]",
          "name": "",
          "type": "address[]"
        },
        {
          "internalType": "uint256[]",
          "name": "",
          "type": "uint256[]"
        },
        {
          "internalType": "uint256[]",
          "name": "",
          "type": "uint256[]"
        }
      ],
      "name": "checkRebalance",
      "outputs": [
        {
          "internalType": "bool",
          "name": "",
          "type": "bool"
        }
      ],
      "stateMutability": "view",
      "type": "function"
    },
    {
      "inputs": [],
      "name": "getBaluniRouter",
      "outputs": [
        {
          "internalType": "address",
          "name": "",
          "type": "address"
        }
      ],
      "stateMutability": "view",
      "type": "function"
    },
    {
      "inputs": [
        {
          "internalType": "contract IERC20",
          "name": "fromToken",
          "type": "address"
        },
        {
          "internalType": "contract IERC20",
          "name": "toToken",
          "type": "address"
        },
        {
          "internalType": "bool",
          "name": "",
          "type": "bool"
        }
      ],
      "name": "getRate",
      "outputs": [
        {
          "internalType": "uint256",
          "name": "",
          "type": "uint256"
        }
      ],
      "stateMutability": "view",
      "type": "function"
    },
    {
      "inputs": [
        {
          "internalType": "contract IERC20",
          "name": "fromToken",
          "type": "address"
        },
        {
          "internalType": "bool",
          "name": "",
          "type": "bool"
        }
      ],
      "name": "getRateToEth",
      "outputs": [
        {
          "internalType": "uint256",
          "name": "",
          "type": "uint256"
        }
      ],
      "stateMutability": "view",
      "type": "function"
    },
    {
      "inputs": [],
      "name": "getTreasury",
      "outputs": [
        {
          "internalType": "address",
          "name": "",
          "type": "address"
        }
      ],
      "stateMutability": "view",
      "type": "function"
    },
    {
      "inputs": [
        {
          "internalType": "address",
          "name": "",
          "type": "address"
        },
        {
          "internalType": "address",
          "name": "",
          "type": "address"
        }
      ],
      "name": "rates",
      "outputs": [
        {
          "internalType": "uint256",
          "name": "",
          "type": "uint256"
        }
      ],
      "stateMutability": "view",
      "type": "function"
    },
    {
      "inputs": [
        {
          "internalType": "address[]",
          "name": "",
          "type": "address[]"
        },
        {
          "internalType": "uint256[]",
          "name": "",
          "type": "uint256[]"
        },
        {
          "internalType": "address",
          "name": "",
          "type": "address"
        },
        {
          "internalType": "address",
          "name": "",
          "type": "address"
        },
        {
          "internalType": "uint256",
          "name": "",
          "type": "uint256"
        }
      ],
      "name": "rebalance",
      "outputs": [],
      "stateMutability": "nonpayable",
      "type": "function"
    },
    {
      "inputs": [
        {
          "internalType": "address",
          "name": "fromToken",
          "type": "address"
        },
        {
          "internalType": "address",
          "name": "toToken",
          "type": "address"
        },
        {
          "internalType": "uint256",
          "name": "rate",
          "type": "uint256"
        }
      ],
      "name": "setRate",
      "outputs": [],
      "stateMutability": "nonpayable",
      "type": "function"
    },
    {
      "inputs": [
        {
          "internalType": "address",
          "name": "_treasury",
          "type": "address"
        }
      ],
      "name": "setTreasury",
      "outputs": [],
      "stateMutability": "nonpayable",
      "type": "function"
    },
    {
      "inputs": [],
      "name": "treasury",
      "outputs": [
        {
          "internalType": "address",
          "name": "",
          "type": "address"
        }
      ],
      "stateMutability": "view",
      "type": "function"
    }
  ],
  "bytecode": "0x608060405234801561000f575f80fd5b50604051610b43380380610b4383398101604081905261002e9161028c565b600280546001600160a01b039485166001600160a01b031991821617825560018054968616968216871781556003805490921633179091559584165f81815260208181526040808320988352978152878220670ddc9893b8f6933190558354871682528782206c110f11bc46bc3efcc5b8ff1223905593861680825287822066052de6f3e9958f90559486168082528782206ad47d67cce9223fad7de347905585825281855287822083835285528782206824efc5d2223b2ab2b290558354871682528782206d2d9856fc421a9fd095f8b44c49db9055885487168252878220682506936e734ac2f92690558082528782206c0236febc16a26943df322289be90558854871682528185528782208383528552878220670de435a2a433cf4890558854871682528185528782208683528552878220660533304f826d31905588548716825281855287822084548816835285528782206c110dcba2e6f97b2a41a7eba1b8905588548716825281855287822081835285528782206ad4801858112018c8850bae905583548716825281855287822086835285528782206104389055835487168252818552878220818352855287822065ac76a57eb9a490558354871682528185528782208954881683528552878220620b32d190558354871682528185528782208383528552878220620b68f7905581528084528681209254861681529190925284812069011de1930ce9ab44b5a190559454909216845282842063e163500a9081905591845282842091909155825290206254dddd90556102ed565b80516001600160a01b0381168114610287575f80fd5b919050565b5f805f805f60a086880312156102a0575f80fd5b6102a986610271565b94506102b760208701610271565b93506102c560408701610271565b92506102d360608701610271565b91506102e160808701610271565b90509295509295909350565b610849806102fa5f395ff3fe608060405234801561000f575f80fd5b50600436106101e7575f3560e01c80637de4fd1011610109578063b381cf401161009e578063d135e3be1161006e578063d135e3be146104d1578063e2338e72146104e1578063e30f6892146104f3578063f0f4426014610504575f80fd5b8063b381cf4014610484578063b537d24b146104a4578063b9e93810146104b3578063c0184983146104c7575f80fd5b80638e5139ed116100d95780638e5139ed1461044557806397db8e021461045a578063a58a7f8a14610468578063ae3bcc9614610477575f80fd5b80637de4fd1014610385578063802431fb146103ca57806384db1dfb1461040e57806389a3027114610425575f80fd5b8063431463991161017f5780635911fb9a1161014f5780635911fb9a146102ed5780635fc8cd691461033357806361d027b31461033e5780637b0cf44d1461035e575f80fd5b806343146399146102ad578063443dc789146102b75780635107e94e146102c957806353ff493e146102dd575f80fd5b806318cdc49a116101ba57806318cdc49a146102465780631a1e4a1f146102705780633b19e84a146102845780634039e687146102a2575f80fd5b806302098719146101eb57806304cc73251461020c5780630e09176214610233578063187029b81461023d575b5f80fd5b6101f9660533304f826d3181565b6040519081526020015b60405180910390f35b5f5b60405173ffffffffffffffffffffffffffffffffffffffff9091168152602001610203565b6101f9620b68f781565b6101f961043881565b6102606102543660046105a1565b60019695505050505050565b6040519015158152602001610203565b6101f96c110f11bc46bc3efcc5b8ff122381565b60035473ffffffffffffffffffffffffffffffffffffffff1661020e565b6101f963e163500a81565b6101f96254dddd81565b6101f96ad47d67cce9223fad7de34781565b6101f96c110dcba2e6f97b2a41a7eba1b881565b6101f9682506936e734ac2f92681565b6103316102fb366004610658565b73ffffffffffffffffffffffffffffffffffffffff9283165f908152602081815260408083209490951682529290925291902055565b005b6101f963df77b36f81565b60035461020e9073ffffffffffffffffffffffffffffffffffffffff1681565b6101f961036c366004610696565b5f60208181529281526040808220909352908152205481565b6101f96103933660046106e1565b5073ffffffffffffffffffffffffffffffffffffffff9081165f908152602081815260408083206002549094168352929052205490565b6101f96103d8366004610714565b5073ffffffffffffffffffffffffffffffffffffffff9182165f9081526020818152604080832093909416825291909152205490565b61033161041c366004610758565b50505050505050565b60015461020e9073ffffffffffffffffffffffffffffffffffffffff1681565b6101f96d2d9856fc421a9fd095f8b44c49db81565b6101f966052de6f3e9958f81565b6101f9670ddc9893b8f6933181565b6101f965ac76a57eb9a481565b60025461020e9073ffffffffffffffffffffffffffffffffffffffff1681565b6101f9670de435a2a433cf4881565b6101f96c0236febc16a26943df322289be81565b6101f9620b32d181565b6101f96824efc5d2223b2ab2b281565b6101f96ad4801858112018c8850bae81565b6101f969011de1930ce9ab44b5a181565b6103316105123660046107f1565b600380547fffffffffffffffffffffffff00000000000000000000000000000000000000001673ffffffffffffffffffffffffffffffffffffffff92909216919091179055565b5f8083601f840112610569575f80fd5b50813567ffffffffffffffff811115610580575f80fd5b6020830191508360208260051b850101111561059a575f80fd5b9250929050565b5f805f805f80606087890312156105b6575f80fd5b863567ffffffffffffffff808211156105cd575f80fd5b6105d98a838b01610559565b909850965060208901359150808211156105f1575f80fd5b6105fd8a838b01610559565b90965094506040890135915080821115610615575f80fd5b5061062289828a01610559565b979a9699509497509295939492505050565b73ffffffffffffffffffffffffffffffffffffffff81168114610655575f80fd5b50565b5f805f6060848603121561066a575f80fd5b833561067581610634565b9250602084013561068581610634565b929592945050506040919091013590565b5f80604083850312156106a7575f80fd5b82356106b281610634565b915060208301356106c281610634565b809150509250929050565b803580151581146106dc575f80fd5b919050565b5f80604083850312156106f2575f80fd5b82356106fd81610634565b915061070b602084016106cd565b90509250929050565b5f805f60608486031215610726575f80fd5b833561073181610634565b9250602084013561074181610634565b915061074f604085016106cd565b90509250925092565b5f805f805f805f60a0888a03121561076e575f80fd5b873567ffffffffffffffff80821115610785575f80fd5b6107918b838c01610559565b909950975060208a01359150808211156107a9575f80fd5b506107b68a828b01610559565b90965094505060408801356107ca81610634565b925060608801356107da81610634565b809250506080880135905092959891949750929550565b5f60208284031215610801575f80fd5b813561080c81610634565b939250505056fea2646970667358221220756c09692593000469e7648dd2578fc50a9e3517189ceff23272d381253bf7b464736f6c63430008190033",
  "linkReferences": {},
  "deployedLinkReferences": {}
}