{
  "_format": "hh-sol-artifact-1",
  "contractName": "BaluniV1Router",
  "sourceName": "contracts/orchestators/BaluniV1Router.sol",
  "abi": [
    {
      "inputs": [
        {
          "internalType": "address",
          "name": "target",
          "type": "address"
        }
      ],
      "name": "AddressEmptyCode",
      "type": "error"
    },
    {
      "inputs": [
        {
          "internalType": "address",
          "name": "implementation",
          "type": "address"
        }
      ],
      "name": "ERC1967InvalidImplementation",
      "type": "error"
    },
    {
      "inputs": [],
      "name": "ERC1967NonPayable",
      "type": "error"
    },
    {
      "inputs": [
        {
          "internalType": "address",
          "name": "spender",
          "type": "address"
        },
        {
          "internalType": "uint256",
          "name": "allowance",
          "type": "uint256"
        },
        {
          "internalType": "uint256",
          "name": "needed",
          "type": "uint256"
        }
      ],
      "name": "ERC20InsufficientAllowance",
      "type": "error"
    },
    {
      "inputs": [
        {
          "internalType": "address",
          "name": "sender",
          "type": "address"
        },
        {
          "internalType": "uint256",
          "name": "balance",
          "type": "uint256"
        },
        {
          "internalType": "uint256",
          "name": "needed",
          "type": "uint256"
        }
      ],
      "name": "ERC20InsufficientBalance",
      "type": "error"
    },
    {
      "inputs": [
        {
          "internalType": "address",
          "name": "approver",
          "type": "address"
        }
      ],
      "name": "ERC20InvalidApprover",
      "type": "error"
    },
    {
      "inputs": [
        {
          "internalType": "address",
          "name": "receiver",
          "type": "address"
        }
      ],
      "name": "ERC20InvalidReceiver",
      "type": "error"
    },
    {
      "inputs": [
        {
          "internalType": "address",
          "name": "sender",
          "type": "address"
        }
      ],
      "name": "ERC20InvalidSender",
      "type": "error"
    },
    {
      "inputs": [
        {
          "internalType": "address",
          "name": "spender",
          "type": "address"
        }
      ],
      "name": "ERC20InvalidSpender",
      "type": "error"
    },
    {
      "inputs": [],
      "name": "FailedInnerCall",
      "type": "error"
    },
    {
      "inputs": [],
      "name": "InvalidInitialization",
      "type": "error"
    },
    {
      "inputs": [],
      "name": "NotInitializing",
      "type": "error"
    },
    {
      "inputs": [
        {
          "internalType": "address",
          "name": "owner",
          "type": "address"
        }
      ],
      "name": "OwnableInvalidOwner",
      "type": "error"
    },
    {
      "inputs": [
        {
          "internalType": "address",
          "name": "account",
          "type": "address"
        }
      ],
      "name": "OwnableUnauthorizedAccount",
      "type": "error"
    },
    {
      "inputs": [],
      "name": "ReentrancyGuardReentrantCall",
      "type": "error"
    },
    {
      "inputs": [],
      "name": "UUPSUnauthorizedCallContext",
      "type": "error"
    },
    {
      "inputs": [
        {
          "internalType": "bytes32",
          "name": "slot",
          "type": "bytes32"
        }
      ],
      "name": "UUPSUnsupportedProxiableUUID",
      "type": "error"
    },
    {
      "anonymous": false,
      "inputs": [
        {
          "indexed": true,
          "internalType": "address",
          "name": "owner",
          "type": "address"
        },
        {
          "indexed": true,
          "internalType": "address",
          "name": "spender",
          "type": "address"
        },
        {
          "indexed": false,
          "internalType": "uint256",
          "name": "value",
          "type": "uint256"
        }
      ],
      "name": "Approval",
      "type": "event"
    },
    {
      "anonymous": false,
      "inputs": [
        {
          "indexed": false,
          "internalType": "address",
          "name": "user",
          "type": "address"
        },
        {
          "indexed": false,
          "internalType": "uint256",
          "name": "value",
          "type": "uint256"
        }
      ],
      "name": "Burn",
      "type": "event"
    },
    {
      "anonymous": false,
      "inputs": [
        {
          "indexed": false,
          "internalType": "address",
          "name": "user",
          "type": "address"
        },
        {
          "components": [
            {
              "internalType": "address",
              "name": "to",
              "type": "address"
            },
            {
              "internalType": "uint256",
              "name": "value",
              "type": "uint256"
            },
            {
              "internalType": "bytes",
              "name": "data",
              "type": "bytes"
            }
          ],
          "indexed": false,
          "internalType": "struct IBaluniV1Agent.Call[]",
          "name": "calls",
          "type": "tuple[]"
        },
        {
          "indexed": false,
          "internalType": "address[]",
          "name": "tokensReturn",
          "type": "address[]"
        }
      ],
      "name": "Execute",
      "type": "event"
    },
    {
      "anonymous": false,
      "inputs": [
        {
          "indexed": false,
          "internalType": "uint64",
          "name": "version",
          "type": "uint64"
        }
      ],
      "name": "Initialized",
      "type": "event"
    },
    {
      "anonymous": false,
      "inputs": [
        {
          "indexed": false,
          "internalType": "string",
          "name": "message",
          "type": "string"
        },
        {
          "indexed": false,
          "internalType": "uint256",
          "name": "value",
          "type": "uint256"
        }
      ],
      "name": "Log",
      "type": "event"
    },
    {
      "anonymous": false,
      "inputs": [
        {
          "indexed": false,
          "internalType": "address",
          "name": "user",
          "type": "address"
        },
        {
          "indexed": false,
          "internalType": "uint256",
          "name": "value",
          "type": "uint256"
        }
      ],
      "name": "Mint",
      "type": "event"
    },
    {
      "anonymous": false,
      "inputs": [
        {
          "indexed": true,
          "internalType": "address",
          "name": "previousOwner",
          "type": "address"
        },
        {
          "indexed": true,
          "internalType": "address",
          "name": "newOwner",
          "type": "address"
        }
      ],
      "name": "OwnershipTransferred",
      "type": "event"
    },
    {
      "anonymous": false,
      "inputs": [
        {
          "indexed": true,
          "internalType": "address",
          "name": "from",
          "type": "address"
        },
        {
          "indexed": true,
          "internalType": "address",
          "name": "to",
          "type": "address"
        },
        {
          "indexed": false,
          "internalType": "uint256",
          "name": "value",
          "type": "uint256"
        }
      ],
      "name": "Transfer",
      "type": "event"
    },
    {
      "anonymous": false,
      "inputs": [
        {
          "indexed": true,
          "internalType": "address",
          "name": "implementation",
          "type": "address"
        }
      ],
      "name": "Upgraded",
      "type": "event"
    },
    {
      "inputs": [],
      "name": "UPGRADE_INTERFACE_VERSION",
      "outputs": [
        {
          "internalType": "string",
          "name": "",
          "type": "string"
        }
      ],
      "stateMutability": "view",
      "type": "function"
    },
    {
      "inputs": [
        {
          "internalType": "address",
          "name": "_token",
          "type": "address"
        }
      ],
      "name": "addToken",
      "outputs": [],
      "stateMutability": "nonpayable",
      "type": "function"
    },
    {
      "inputs": [
        {
          "internalType": "address",
          "name": "owner",
          "type": "address"
        },
        {
          "internalType": "address",
          "name": "spender",
          "type": "address"
        }
      ],
      "name": "allowance",
      "outputs": [
        {
          "internalType": "uint256",
          "name": "",
          "type": "uint256"
        }
      ],
      "stateMutability": "view",
      "type": "function"
    },
    {
      "inputs": [
        {
          "internalType": "address",
          "name": "spender",
          "type": "address"
        },
        {
          "internalType": "uint256",
          "name": "value",
          "type": "uint256"
        }
      ],
      "name": "approve",
      "outputs": [
        {
          "internalType": "bool",
          "name": "",
          "type": "bool"
        }
      ],
      "stateMutability": "nonpayable",
      "type": "function"
    },
    {
      "inputs": [
        {
          "internalType": "address",
          "name": "account",
          "type": "address"
        }
      ],
      "name": "balanceOf",
      "outputs": [
        {
          "internalType": "uint256",
          "name": "",
          "type": "uint256"
        }
      ],
      "stateMutability": "view",
      "type": "function"
    },
    {
      "inputs": [],
      "name": "baseAsset",
      "outputs": [
        {
          "internalType": "address",
          "name": "",
          "type": "address"
        }
      ],
      "stateMutability": "view",
      "type": "function"
    },
    {
      "inputs": [
        {
          "internalType": "uint256",
          "name": "burnAmount",
          "type": "uint256"
        }
      ],
      "name": "burnERC20",
      "outputs": [],
      "stateMutability": "nonpayable",
      "type": "function"
    },
    {
      "inputs": [
        {
          "internalType": "uint256",
          "name": "burnAmount",
          "type": "uint256"
        }
      ],
      "name": "burnUSDC",
      "outputs": [],
      "stateMutability": "nonpayable",
      "type": "function"
    },
    {
      "inputs": [
        {
          "internalType": "uint256",
          "name": "totalBaluni",
          "type": "uint256"
        },
        {
          "internalType": "uint256",
          "name": "totalERC20Balance",
          "type": "uint256"
        },
        {
          "internalType": "uint256",
          "name": "baluniAmount",
          "type": "uint256"
        },
        {
          "internalType": "uint256",
          "name": "tokenDecimals",
          "type": "uint256"
        }
      ],
      "name": "calculateTokenShare",
      "outputs": [
        {
          "internalType": "uint256",
          "name": "",
          "type": "uint256"
        }
      ],
      "stateMutability": "pure",
      "type": "function"
    },
    {
      "inputs": [
        {
          "internalType": "address[]",
          "name": "assets",
          "type": "address[]"
        },
        {
          "internalType": "uint256[]",
          "name": "weights",
          "type": "uint256[]"
        },
        {
          "internalType": "address",
          "name": "sender",
          "type": "address"
        },
        {
          "internalType": "address",
          "name": "receiver",
          "type": "address"
        },
        {
          "internalType": "uint256",
          "name": "limit",
          "type": "uint256"
        },
        {
          "internalType": "address",
          "name": "",
          "type": "address"
        }
      ],
      "name": "callRebalance",
      "outputs": [],
      "stateMutability": "nonpayable",
      "type": "function"
    },
    {
      "inputs": [],
      "name": "decimals",
      "outputs": [
        {
          "internalType": "uint8",
          "name": "",
          "type": "uint8"
        }
      ],
      "stateMutability": "view",
      "type": "function"
    },
    {
      "inputs": [
        {
          "components": [
            {
              "internalType": "address",
              "name": "to",
              "type": "address"
            },
            {
              "internalType": "uint256",
              "name": "value",
              "type": "uint256"
            },
            {
              "internalType": "bytes",
              "name": "data",
              "type": "bytes"
            }
          ],
          "internalType": "struct IBaluniV1Agent.Call[]",
          "name": "calls",
          "type": "tuple[]"
        },
        {
          "internalType": "address[]",
          "name": "tokensReturn",
          "type": "address[]"
        }
      ],
      "name": "execute",
      "outputs": [],
      "stateMutability": "nonpayable",
      "type": "function"
    },
    {
      "inputs": [
        {
          "internalType": "address",
          "name": "_user",
          "type": "address"
        }
      ],
      "name": "getAgentAddress",
      "outputs": [
        {
          "internalType": "address",
          "name": "",
          "type": "address"
        }
      ],
      "stateMutability": "view",
      "type": "function"
    },
    {
      "inputs": [],
      "name": "getTokens",
      "outputs": [
        {
          "internalType": "address[]",
          "name": "",
          "type": "address[]"
        }
      ],
      "stateMutability": "view",
      "type": "function"
    },
    {
      "inputs": [
        {
          "internalType": "uint256",
          "name": "amount",
          "type": "uint256"
        }
      ],
      "name": "getUSDCShareValue",
      "outputs": [
        {
          "internalType": "uint256",
          "name": "",
          "type": "uint256"
        }
      ],
      "stateMutability": "view",
      "type": "function"
    },
    {
      "inputs": [],
      "name": "getVersion",
      "outputs": [
        {
          "internalType": "uint64",
          "name": "",
          "type": "uint64"
        }
      ],
      "stateMutability": "view",
      "type": "function"
    },
    {
      "inputs": [
        {
          "internalType": "address",
          "name": "_registry",
          "type": "address"
        }
      ],
      "name": "initialize",
      "outputs": [],
      "stateMutability": "nonpayable",
      "type": "function"
    },
    {
      "inputs": [
        {
          "internalType": "address",
          "name": "token",
          "type": "address"
        }
      ],
      "name": "liquidate",
      "outputs": [],
      "stateMutability": "nonpayable",
      "type": "function"
    },
    {
      "inputs": [],
      "name": "liquidateAll",
      "outputs": [],
      "stateMutability": "nonpayable",
      "type": "function"
    },
    {
      "inputs": [
        {
          "internalType": "uint256",
          "name": "balAmountToMint",
          "type": "uint256"
        }
      ],
      "name": "mintWithUSDC",
      "outputs": [],
      "stateMutability": "nonpayable",
      "type": "function"
    },
    {
      "inputs": [],
      "name": "name",
      "outputs": [
        {
          "internalType": "string",
          "name": "",
          "type": "string"
        }
      ],
      "stateMutability": "view",
      "type": "function"
    },
    {
      "inputs": [],
      "name": "owner",
      "outputs": [
        {
          "internalType": "address",
          "name": "",
          "type": "address"
        }
      ],
      "stateMutability": "view",
      "type": "function"
    },
    {
      "inputs": [],
      "name": "proxiableUUID",
      "outputs": [
        {
          "internalType": "bytes32",
          "name": "",
          "type": "bytes32"
        }
      ],
      "stateMutability": "view",
      "type": "function"
    },
    {
      "inputs": [],
      "name": "registry",
      "outputs": [
        {
          "internalType": "contract IBaluniV1Registry",
          "name": "",
          "type": "address"
        }
      ],
      "stateMutability": "view",
      "type": "function"
    },
    {
      "inputs": [
        {
          "internalType": "address",
          "name": "_registry",
          "type": "address"
        },
        {
          "internalType": "uint64",
          "name": "version",
          "type": "uint64"
        }
      ],
      "name": "reinitialize",
      "outputs": [],
      "stateMutability": "nonpayable",
      "type": "function"
    },
    {
      "inputs": [
        {
          "internalType": "address",
          "name": "_token",
          "type": "address"
        }
      ],
      "name": "removeToken",
      "outputs": [],
      "stateMutability": "nonpayable",
      "type": "function"
    },
    {
      "inputs": [],
      "name": "renounceOwnership",
      "outputs": [],
      "stateMutability": "nonpayable",
      "type": "function"
    },
    {
      "inputs": [
        {
          "internalType": "uint256",
          "name": "balAmountToMint",
          "type": "uint256"
        }
      ],
      "name": "requiredUSDCtoMint",
      "outputs": [
        {
          "internalType": "uint256",
          "name": "",
          "type": "uint256"
        }
      ],
      "stateMutability": "view",
      "type": "function"
    },
    {
      "inputs": [
        {
          "internalType": "address",
          "name": "_registry",
          "type": "address"
        }
      ],
      "name": "resetContract",
      "outputs": [],
      "stateMutability": "nonpayable",
      "type": "function"
    },
    {
      "inputs": [],
      "name": "symbol",
      "outputs": [
        {
          "internalType": "string",
          "name": "",
          "type": "string"
        }
      ],
      "stateMutability": "view",
      "type": "function"
    },
    {
      "inputs": [
        {
          "internalType": "uint256",
          "name": "amount",
          "type": "uint256"
        },
        {
          "internalType": "address",
          "name": "token",
          "type": "address"
        }
      ],
      "name": "tokenValuation",
      "outputs": [
        {
          "internalType": "uint256",
          "name": "",
          "type": "uint256"
        }
      ],
      "stateMutability": "view",
      "type": "function"
    },
    {
      "inputs": [],
      "name": "totalSupply",
      "outputs": [
        {
          "internalType": "uint256",
          "name": "",
          "type": "uint256"
        }
      ],
      "stateMutability": "view",
      "type": "function"
    },
    {
      "inputs": [],
      "name": "totalValuation",
      "outputs": [
        {
          "internalType": "uint256",
          "name": "",
          "type": "uint256"
        }
      ],
      "stateMutability": "view",
      "type": "function"
    },
    {
      "inputs": [
        {
          "internalType": "address",
          "name": "to",
          "type": "address"
        },
        {
          "internalType": "uint256",
          "name": "value",
          "type": "uint256"
        }
      ],
      "name": "transfer",
      "outputs": [
        {
          "internalType": "bool",
          "name": "",
          "type": "bool"
        }
      ],
      "stateMutability": "nonpayable",
      "type": "function"
    },
    {
      "inputs": [
        {
          "internalType": "address",
          "name": "from",
          "type": "address"
        },
        {
          "internalType": "address",
          "name": "to",
          "type": "address"
        },
        {
          "internalType": "uint256",
          "name": "value",
          "type": "uint256"
        }
      ],
      "name": "transferFrom",
      "outputs": [
        {
          "internalType": "bool",
          "name": "",
          "type": "bool"
        }
      ],
      "stateMutability": "nonpayable",
      "type": "function"
    },
    {
      "inputs": [
        {
          "internalType": "address",
          "name": "newOwner",
          "type": "address"
        }
      ],
      "name": "transferOwnership",
      "outputs": [],
      "stateMutability": "nonpayable",
      "type": "function"
    },
    {
      "inputs": [],
      "name": "unitPrice",
      "outputs": [
        {
          "internalType": "uint256",
          "name": "",
          "type": "uint256"
        }
      ],
      "stateMutability": "view",
      "type": "function"
    },
    {
      "inputs": [
        {
          "internalType": "address",
          "name": "newImplementation",
          "type": "address"
        },
        {
          "internalType": "bytes",
          "name": "data",
          "type": "bytes"
        }
      ],
      "name": "upgradeToAndCall",
      "outputs": [],
      "stateMutability": "payable",
      "type": "function"
    }
  ],
  "bytecode": "0x60a0604052306080523480156012575f80fd5b506080516156a46100395f395f8181613f4801528181613f71015261412101526156a45ff3fe608060405260043610610277575f3560e01c806371ddcfb81161014b578063c4d66de8116100c6578063e73faa2d1161007c578063f2fde38b11610062578063f2fde38b14610787578063fe0a4dd1146107a6578063fe330a51146107c5575f80fd5b8063e73faa2d14610754578063eedc3c5014610768575f80fd5b8063d48bfca7116100ac578063d48bfca7146106b3578063dd62ed3e146106d2578063e67ad75914610735575f80fd5b8063c4d66de814610675578063cdf456e114610694575f80fd5b806395d89b411161011b578063aa6ca80811610101578063aa6ca808146105ed578063aa95d8931461060e578063ad3cb1cc1461062d575f80fd5b806395d89b41146105ba578063a9059cbb146105ce575f80fd5b806371ddcfb8146105215780637b103999146105405780638da5cb5b1461055f5780638f2248bc1461059b575f80fd5b80632bdd955a116101f557806352d1902d116101ab5780635fa7b584116101915780635fa7b5841461049b57806370a08231146104ba578063715018a61461050d575f80fd5b806352d1902d14610468578063599f69f71461047c575f80fd5b8063313ce567116101db578063313ce567146104265780633c2066a9146104415780634f1ef28614610455575f80fd5b80632bdd955a146103e85780632f86556814610407575f80fd5b806318160ddd1161024a57806323b872dd1161023057806323b872dd1461037e57806327d54a921461039d578063295b9300146103d4575f80fd5b806318160ddd146103225780631a168da21461035f575f80fd5b806306fdde031461027b578063095ea7b3146102a55780630cfc7386146102d45780630d8e6e2c146102f5575b5f80fd5b348015610286575f80fd5b5061028f6107e4565b60405161029c9190614bbc565b60405180910390f35b3480156102b0575f80fd5b506102c46102bf366004614be2565b6108b7565b604051901515815260200161029c565b3480156102df575f80fd5b506102f36102ee366004614c0c565b6108d0565b005b348015610300575f80fd5b50610309610ee4565b60405167ffffffffffffffff909116815260200161029c565b34801561032d575f80fd5b507f52c63247e1f47db19d5ce0460030c497f067ca4cebf71ba98eeadabe20bace02545b60405190815260200161029c565b34801561036a575f80fd5b506102f3610379366004614c0c565b610f1c565b348015610389575f80fd5b506102c4610398366004614c23565b611470565b3480156103a8575f80fd5b506103bc6103b7366004614c61565b611495565b6040516001600160a01b03909116815260200161029c565b3480156103df575f80fd5b50610351611590565b3480156103f3575f80fd5b50610351610402366004614c7c565b611599565b348015610412575f80fd5b506102f3610421366004614c61565b6116ad565b348015610431575f80fd5b506040516012815260200161029c565b34801561044c575f80fd5b506102f3611a4d565b6102f3610463366004614d84565b611ad5565b348015610473575f80fd5b50610351611af4565b348015610487575f80fd5b506102f3610496366004614e19565b611b22565b3480156104a6575f80fd5b506102f36104b5366004614c61565b611cb1565b3480156104c5575f80fd5b506103516104d4366004614c61565b6001600160a01b03165f9081527f52c63247e1f47db19d5ce0460030c497f067ca4cebf71ba98eeadabe20bace00602052604090205490565b348015610518575f80fd5b506102f3611cc3565b34801561052c575f80fd5b5061035161053b366004614c0c565b611cd4565b34801561054b575f80fd5b506002546103bc906001600160a01b031681565b34801561056a575f80fd5b507f9016d09d72d40fdae2fd8ceac6b6234c7706214fd39c1cd1e609a0528c199300546001600160a01b03166103bc565b3480156105a6575f80fd5b506102f36105b5366004614ec4565b611cde565b3480156105c5575f80fd5b5061028f611e14565b3480156105d9575f80fd5b506102c46105e8366004614be2565b611e65565b3480156105f8575f80fd5b50610601611e72565b60405161029c9190614f3f565b348015610619575f80fd5b50610351610628366004614c0c565b611e7d565b348015610638575f80fd5b5061028f6040518060400160405280600581526020017f352e302e3000000000000000000000000000000000000000000000000000000081525081565b348015610680575f80fd5b506102f361068f366004614c61565b611ee4565b34801561069f575f80fd5b506003546103bc906001600160a01b031681565b3480156106be575f80fd5b506102f36106cd366004614c61565b612199565b3480156106dd575f80fd5b506103516106ec366004614f51565b6001600160a01b039182165f9081527f52c63247e1f47db19d5ce0460030c497f067ca4cebf71ba98eeadabe20bace016020908152604080832093909416825291909152205490565b348015610740575f80fd5b506102f361074f366004614c61565b6121ab565b34801561075f575f80fd5b506103516121e2565b348015610773575f80fd5b506102f3610782366004615015565b6121f4565b348015610792575f80fd5b506102f36107a1366004614c61565b612cc9565b3480156107b1575f80fd5b506102f36107c0366004614c0c565b612d1c565b3480156107d0575f80fd5b506103516107df366004615124565b61380d565b7f52c63247e1f47db19d5ce0460030c497f067ca4cebf71ba98eeadabe20bace0380546060917f52c63247e1f47db19d5ce0460030c497f067ca4cebf71ba98eeadabe20bace009161083590615153565b80601f016020809104026020016040519081016040528092919081815260200182805461086190615153565b80156108ac5780601f10610883576101008083540402835291602001916108ac565b820191905f5260205f20905b81548152906001019060200180831161088f57829003601f168201915b505050505091505090565b5f336108c481858561381a565b60019150505b92915050565b6108d861382c565b60025460408051631d8cf42560e11b815290515f926001600160a01b031691633b19e84a9160048083019260209291908290030181865afa15801561091f573d5f803e3d5ffd5b505050506040513d601f19601f820116820180604052508101906109439190615185565b90505f60025f9054906101000a90046001600160a01b03166001600160a01b0316631bf01e9b6040518163ffffffff1660e01b8152600401602060405180830381865afa158015610996573d5f803e3d5ffd5b505050506040513d601f19601f820116820180604052508101906109ba9190615185565b90505f60025f9054906101000a90046001600160a01b03166001600160a01b03166385462d6f6040518163ffffffff1660e01b8152600401602060405180830381865afa158015610a0d573d5f803e3d5ffd5b505050506040513d601f19601f82011682018060405250810190610a3191906151a0565b90505f60025f9054906101000a90046001600160a01b03166001600160a01b0316634f4608a26040518163ffffffff1660e01b8152600401602060405180830381865afa158015610a84573d5f803e3d5ffd5b505050506040513d601f19601f82011682018060405250810190610aa891906151a0565b90505f610ab36138ad565b90505f610ade7f52c63247e1f47db19d5ce0460030c497f067ca4cebf71ba98eeadabe20bace025490565b90505f81610aec848a6151cb565b610af691906151e2565b90506001600160a01b0386166323b872dd3330610b1864e8d4a51000866151e2565b6040517fffffffff0000000000000000000000000000000000000000000000000000000060e086901b1681526001600160a01b03938416600482015292909116602483015260448201526064016020604051808303815f875af1158015610b81573d5f803e3d5ffd5b505050506040513d601f19601f82011682018060405250810190610ba59190615201565b506040516370a0823160e01b81523360048201525f906001600160a01b038816906370a0823190602401602060405180830381865afa158015610bea573d5f803e3d5ffd5b505050506040513d601f19601f82011682018060405250810190610c0e91906151a0565b6040517fdd62ed3e0000000000000000000000000000000000000000000000000000000081523360048201523060248201529091505f906001600160a01b0389169063dd62ed3e90604401602060405180830381865afa158015610c74573d5f803e3d5ffd5b505050506040513d601f19601f82011682018060405250810190610c9891906151a0565b90505f8411610d145760405162461bcd60e51b815260206004820152602260248201527f546f74616c2042414c554e4920737570706c792063616e6e6f74206265207a6560448201527f726f00000000000000000000000000000000000000000000000000000000000060648201526084015b60405180910390fd5b610d2364e8d4a51000846151e2565b821015610d725760405162461bcd60e51b815260206004820152601c60248201527f555344432062616c616e636520697320696e73756666696369656e74000000006044820152606401610d0b565b610d8164e8d4a51000846151e2565b811015610dd05760405162461bcd60e51b815260206004820152601960248201527f436865636b2074686520746f6b656e20616c6c6f77616e6365000000000000006044820152606401610d0b565b610dda338b613b0c565b60408051338152602081018c90527f0f6798a560793a54c3bcfe86a93cde1e73087d944c0ea20544137d4121396885910160405180910390a15f8688610e2564e8d4a51000876151e2565b610e2f91906151cb565b610e3991906151e2565b60405163a9059cbb60e01b81526001600160a01b038c8116600483015260248201839052919250908a169063a9059cbb906044016020604051808303815f875af1158015610e89573d5f803e3d5ffd5b505050506040513d601f19601f82011682018060405250810190610ead9190615201565b5050505050505050505050610ee160017f9b779b17422d0df92223018b32b4d1fa46e071723d6817e2486d003becc55f0055565b50565b5f610f177ff0c57e16840df040f15088dc2f81fe391c3923bec73e23a9662efc9c229c6a005467ffffffffffffffff1690565b905090565b610f2461382c565b5f8111610f995760405162461bcd60e51b815260206004820152602260248201527f4275726e20616d6f756e74206d7573742062652067726561746572207468616e60448201527f20300000000000000000000000000000000000000000000000000000000000006064820152608401610d0b565b60025460408051631d8cf42560e11b815290515f926001600160a01b031691633b19e84a9160048083019260209291908290030181865afa158015610fe0573d5f803e3d5ffd5b505050506040513d601f19601f820116820180604052508101906110049190615185565b90506001600160a01b03811661105c5760405162461bcd60e51b815260206004820152601060248201527f5472656173757279206e6f7420736574000000000000000000000000000000006044820152606401610d0b565b335f9081527f52c63247e1f47db19d5ce0460030c497f067ca4cebf71ba98eeadabe20bace0060205260409020548211156110d95760405162461bcd60e51b815260206004820152601060248201527f496e73756666696369656e742042414c000000000000000000000000000000006044820152606401610d0b565b5f6110e383613b7f565b9050828111156111355760405162461bcd60e51b815260206004820152601560248201527f4665652063616c63756c6174696f6e206572726f7200000000000000000000006044820152606401610d0b565b611143826105e88386615220565b505f5b61114f5f613c8e565b811015611401575f6111618183613c97565b90506001600160a01b0381166111b95760405162461bcd60e51b815260206004820152601560248201527f496e76616c696420746f6b656e206164647265737300000000000000000000006044820152606401610d0b565b5f6111e27f52c63247e1f47db19d5ce0460030c497f067ca4cebf71ba98eeadabe20bace025490565b90505f81116112335760405162461bcd60e51b815260206004820152601160248201527f546f74616c20737570706c7920697320300000000000000000000000000000006044820152606401610d0b565b6040516370a0823160e01b81523060048201525f906001600160a01b038416906370a0823190602401602060405180830381865afa158015611277573d5f803e3d5ffd5b505050506040513d601f19601f8201168201806040525081019061129b91906151a0565b90508015806112b257506001600160a01b03831630145b156112bf575050506113f9565b5f836001600160a01b031663313ce5676040518163ffffffff1660e01b8152600401602060405180830381865afa1580156112fc573d5f803e3d5ffd5b505050506040513d601f19601f820116820180604052508101906113209190615233565b60ff1690505f61133284848985613ca2565b9050828111156113845760405162461bcd60e51b815260206004820152601760248201527f53686172652063616c63756c6174696f6e206572726f720000000000000000006044820152606401610d0b565b60405163a9059cbb60e01b8152336004820152602481018290526001600160a01b0386169063a9059cbb906044016020604051808303815f875af11580156113ce573d5f803e3d5ffd5b505050506040513d601f19601f820116820180604052508101906113f29190615201565b5050505050505b600101611146565b5061140c3382613dae565b60408051338152602081018390527fcc16f5dbb4873280815c1ee09dbd06736cffcc184412cf7a71a0fdb75d397ca5910160405180910390a15050610ee160017f9b779b17422d0df92223018b32b4d1fa46e071723d6817e2486d003becc55f0055565b5f3361147d858285613dfb565b611488858585613eae565b60019150505b9392505050565b5f8060025f9054906101000a90046001600160a01b03166001600160a01b031663f5d2d9986040518163ffffffff1660e01b8152600401602060405180830381865afa1580156114e7573d5f803e3d5ffd5b505050506040513d601f19601f8201168201806040525081019061150b9190615185565b6040517f27d54a920000000000000000000000000000000000000000000000000000000081526001600160a01b038581166004830152919250908216906327d54a9290602401602060405180830381865afa15801561156c573d5f803e3d5ffd5b505050506040513d601f19601f8201168201806040525081019061148e9190615185565b5f610f176138ad565b5f8060025f9054906101000a90046001600160a01b03166001600160a01b031663bb3ba04c6040518163ffffffff1660e01b8152600401602060405180830381865afa1580156115eb573d5f803e3d5ffd5b505050506040513d601f19601f8201168201806040525081019061160f9190615185565b6003546040517fb27b5e750000000000000000000000000000000000000000000000000000000081526001600160a01b03868116600483015291821660248201526044810187905291925082169063b27b5e7590606401602060405180830381865afa158015611681573d5f803e3d5ffd5b505050506040513d601f19601f820116820180604052508101906116a591906151a0565b949350505050565b600254604080517f6c9c007800000000000000000000000000000000000000000000000000000000815290515f926001600160a01b031691636c9c00789160048083019260209291908290030181865afa15801561170d573d5f803e3d5ffd5b505050506040513d601f19601f820116820180604052508101906117319190615185565b90505f60025f9054906101000a90046001600160a01b03166001600160a01b03166382755ebb6040518163ffffffff1660e01b8152600401602060405180830381865afa158015611784573d5f803e3d5ffd5b505050506040513d601f19601f820116820180604052508101906117a89190615185565b6040516370a0823160e01b81523060048201529091505f906001600160a01b038516906370a0823190602401602060405180830381865afa1580156117ef573d5f803e3d5ffd5b505050506040513d601f19601f8201168201806040525081019061181391906151a0565b6040517f095ea7b30000000000000000000000000000000000000000000000000000000081526001600160a01b038481166004830152602482018390529192508215159186169063095ea7b3906044016020604051808303815f875af115801561187f573d5f803e3d5ffd5b505050506040513d601f19601f820116820180604052508101906118a39190615201565b50806118b0575050505050565b6003546040517f2d6bc8ea0000000000000000000000000000000000000000000000000000000081526001600160a01b03878116600483015291821660248201526044810184905230606482015290841690632d6bc8ea906084016020604051808303815f875af1925050508015611945575060408051601f3d908101601f19168201909252611942918101906151a0565b60015b611a3e576003546040517f5efaaebb0000000000000000000000000000000000000000000000000000000081526001600160a01b03878116600483015286811660248301529182166044820152606481018490523060848201525f91851690635efaaebb9060a4016020604051808303815f875af11580156119c9573d5f803e3d5ffd5b505050506040513d601f19601f820116820180604052508101906119ed91906151a0565b90505f8111611a3e5760405162461bcd60e51b815260206004820181905260248201527f4d75746920486f702053776170204661696c65642c20547279204275726e28296044820152606401610d0b565b505050505050565b5050505050565b611a5561382c565b5f611a5f5f613c8e565b90505f5b81811015611aa8575f611a768183613c97565b6003549091506001600160a01b0390811690821603611a955750611aa0565b611a9e816116ad565b505b600101611a63565b5050611ad360017f9b779b17422d0df92223018b32b4d1fa46e071723d6817e2486d003becc55f0055565b565b611add613f3d565b611ae68261400d565b611af08282614015565b5050565b5f611afd614116565b507f360894a13ba1a3210667c828492db98dca3e2076cc3735a920a3ca505d382bbc90565b600254604080517f1bf01e9b00000000000000000000000000000000000000000000000000000000815290515f926001600160a01b031691631bf01e9b9160048083019260209291908290030181865afa158015611b82573d5f803e3d5ffd5b505050506040513d601f19601f82011682018060405250810190611ba69190615185565b90505f60025f9054906101000a90046001600160a01b03166001600160a01b031663cff49d686040518163ffffffff1660e01b8152600401602060405180830381865afa158015611bf9573d5f803e3d5ffd5b505050506040513d601f19601f82011682018060405250810190611c1d9190615185565b604080515f815260208101918290527ff0bf7714000000000000000000000000000000000000000000000000000000009091529091506001600160a01b03821663f0bf7714611c77838e8e8e8e8c8f8f8d602489016152d8565b5f604051808303815f87803b158015611c8e575f80fd5b505af1158015611ca0573d5f803e3d5ffd5b505050505050505050505050505050565b611cb9614178565b611af05f826141ec565b611ccb614178565b611ad35f614200565b5f6108ca8261427d565b7ff0c57e16840df040f15088dc2f81fe391c3923bec73e23a9662efc9c229c6a00805482919068010000000000000000900460ff1680611d2c5750805467ffffffffffffffff808416911610155b15611d63576040517ff92ee8a900000000000000000000000000000000000000000000000000000000815260040160405180910390fd5b80546801000000000000000067ffffffffffffffff84167fffffffffffffffffffffffffffffffffffffffffffffff00000000000000000090921682171782556002805473ffffffffffffffffffffffffffffffffffffffff19166001600160a01b038716179055815468ff0000000000000000191682556040519081527fc7f505b2f371ae2175ee4913f4499e1f2633a7b5936321eed1cdaeb6115181d29060200160405180910390a150505050565b7f52c63247e1f47db19d5ce0460030c497f067ca4cebf71ba98eeadabe20bace0480546060917f52c63247e1f47db19d5ce0460030c497f067ca4cebf71ba98eeadabe20bace009161083590615153565b5f336108c4818585613eae565b6060610f175f6143b4565b5f80611e876138ad565b90505f611eb27f52c63247e1f47db19d5ce0460030c497f067ca4cebf71ba98eeadabe20bace025490565b90505f81611ec084876151cb565b611eca91906151e2565b9050611edb64e8d4a51000826151e2565b95945050505050565b7ff0c57e16840df040f15088dc2f81fe391c3923bec73e23a9662efc9c229c6a00805468010000000000000000810460ff16159067ffffffffffffffff165f81158015611f2e5750825b90505f8267ffffffffffffffff166001148015611f4a5750303b155b905081158015611f58575080155b15611f8f576040517ff92ee8a900000000000000000000000000000000000000000000000000000000815260040160405180910390fd5b84547fffffffffffffffffffffffffffffffffffffffffffffffff00000000000000001660011785558315611fda57845468ff00000000000000001916680100000000000000001785555b61204e6040518060400160405280600681526020017f42616c756e6900000000000000000000000000000000000000000000000000008152506040518060400160405280600681526020017f42414c554e4900000000000000000000000000000000000000000000000000008152506143c0565b612057336143d2565b61205f6143e3565b6120676143f3565b61207930670de0b6b3a7640000613b0c565b6002805473ffffffffffffffffffffffffffffffffffffffff19166001600160a01b038816908117909155604080517f1bf01e9b0000000000000000000000000000000000000000000000000000000081529051631bf01e9b916004808201926020929091908290030181865afa1580156120f6573d5f803e3d5ffd5b505050506040513d601f19601f8201168201806040525081019061211a9190615185565b6003805473ffffffffffffffffffffffffffffffffffffffff19166001600160a01b03929092169190911790558315611a3e57845468ff000000000000000019168555604051600181527fc7f505b2f371ae2175ee4913f4499e1f2633a7b5936321eed1cdaeb6115181d29060200160405180910390a1505050505050565b6121a1614178565b611af05f826143fb565b6121b3614178565b6002805473ffffffffffffffffffffffffffffffffffffffff19166001600160a01b0392909216919091179055565b5f610f17670de0b6b3a764000061427d565b6121fc61382c565b600254604080517ff5d2d99800000000000000000000000000000000000000000000000000000000815290515f926001600160a01b03169163f5d2d9989160048083019260209291908290030181865afa15801561225c573d5f803e3d5ffd5b505050506040513d601f19601f820116820180604052508101906122809190615185565b90505f60025f9054906101000a90046001600160a01b03166001600160a01b0316633e6dfa366040518163ffffffff1660e01b8152600401602060405180830381865afa1580156122d3573d5f803e3d5ffd5b505050506040513d601f19601f820116820180604052508101906122f79190615185565b90505f60025f9054906101000a90046001600160a01b03166001600160a01b0316636c9c00786040518163ffffffff1660e01b8152600401602060405180830381865afa15801561234a573d5f803e3d5ffd5b505050506040513d601f19601f8201168201806040525081019061236e9190615185565b90505f60025f9054906101000a90046001600160a01b03166001600160a01b0316631bf01e9b6040518163ffffffff1660e01b8152600401602060405180830381865afa1580156123c1573d5f803e3d5ffd5b505050506040513d601f19601f820116820180604052508101906123e59190615185565b90506001600160a01b03841661243d5760405162461bcd60e51b815260206004820152601560248201527f4167656e7420666163746f7279206e6f742073657400000000000000000000006044820152606401610d0b565b6040517f9b76a5cd0000000000000000000000000000000000000000000000000000000081523360048201525f906001600160a01b03861690639b76a5cd906024016020604051808303815f875af115801561249b573d5f803e3d5ffd5b505050506040513d601f19601f820116820180604052508101906124bf9190615185565b90505f865167ffffffffffffffff8111156124dc576124dc614caa565b604051908082528060200260200182016040528015612505578160200160208202803683370190505b5090505f875167ffffffffffffffff81111561252357612523614caa565b60405190808252806020026020018201604052801561254c578160200160208202803683370190505b5090505f5b885181101561264b5761257d5f8a838151811061257057612570615387565b602002602001015161440f565b1583828151811061259057612590615387565b6020026020010190151590811515815250508881815181106125b4576125b4615387565b60209081029190910101516040516370a0823160e01b81523060048201526001600160a01b03909116906370a0823190602401602060405180830381865afa158015612602573d5f803e3d5ffd5b505050506040513d601f19601f8201168201806040525081019061262691906151a0565b82828151811061263857612638615387565b6020908102919091010152600101612551565b506040517feedc3c500000000000000000000000000000000000000000000000000000000081526001600160a01b0384169063eedc3c5090612693908c908c9060040161539b565b5f604051808303815f87803b1580156126aa575f80fd5b505af11580156126bc573d5f803e3d5ffd5b505050505f5b8851811015612c97575f8982815181106126de576126de615387565b60209081029190910101516040516370a0823160e01b81523060048201529091505f906001600160a01b038316906370a0823190602401602060405180830381865afa158015612730573d5f803e3d5ffd5b505050506040513d601f19601f8201168201806040525081019061275491906151a0565b604051630b4c774160e11b81526001600160a01b0384811660048301528a81166024830152610bb860448301529192505f918b1690631698ee8290606401602060405180830381865afa1580156127ad573d5f803e3d5ffd5b505050506040513d601f19601f820116820180604052508101906127d19190615185565b604051630b4c774160e11b81526001600160a01b0385811660048301528b811660248301526101f460448301529192505f918c1690631698ee8290606401602060405180830381865afa15801561282a573d5f803e3d5ffd5b505050506040513d601f19601f8201168201806040525081019061284e9190615185565b604051630b4c774160e11b81526001600160a01b0386811660048301528b811660248301526101f460448301529192505f918d1690631698ee8290606401602060405180830381865afa1580156128a7573d5f803e3d5ffd5b505050506040513d601f19601f820116820180604052508101906128cb9190615185565b604051630b4c774160e11b81526001600160a01b0387811660048301528c81166024830152610bb860448301529192505f918e1690631698ee8290606401602060405180830381865afa158015612924573d5f803e3d5ffd5b505050506040513d601f19601f820116820180604052508101906129489190615185565b90505f6001600160a01b03851615158061296a57506001600160a01b03841615155b8061297d57506001600160a01b03821615155b8061299057506001600160a01b03831615155b90508988815181106129a4576129a4615387565b602002602001015180156129b55750805b156129c6576129c45f886143fb565b505b5f8989815181106129d9576129d9615387565b6020026020010151876129ec9190615220565b905081612a775760405163a9059cbb60e01b8152336004820152602481018290526001600160a01b0389169063a9059cbb906044016020604051808303815f875af1158015612a3d573d5f803e3d5ffd5b505050506040513d601f19601f82011682018060405250810190612a619190615201565b5050505050505050505050505050505050612ca0565b60025460408051631d8cf42560e11b815290515f926001600160a01b031691633b19e84a9160048083019260209291908290030181865afa158015612abe573d5f803e3d5ffd5b505050506040513d601f19601f82011682018060405250810190612ae29190615185565b90505f60025f9054906101000a90046001600160a01b03166001600160a01b03166385462d6f6040518163ffffffff1660e01b8152600401602060405180830381865afa158015612b35573d5f803e3d5ffd5b505050506040513d601f19601f82011682018060405250810190612b5991906151a0565b90505f60025f9054906101000a90046001600160a01b03166001600160a01b0316634f4608a26040518163ffffffff1660e01b8152600401602060405180830381865afa158015612bac573d5f803e3d5ffd5b505050506040513d601f19601f82011682018060405250810190612bd091906151a0565b90508c8c81518110612be457612be4615387565b60200260200101518a1115612c80575f81612bff84876151cb565b612c0991906151e2565b60405163a9059cbb60e01b81526001600160a01b03868116600483015260248201839052919250908d169063a9059cbb906044016020604051808303815f875af1158015612c59573d5f803e3d5ffd5b505050506040513d601f19601f82011682018060405250810190612c7d9190615201565b50505b5050600190990198506126c2975050505050505050565b50505050505050505b611af060017f9b779b17422d0df92223018b32b4d1fa46e071723d6817e2486d003becc55f0055565b612cd1614178565b6001600160a01b038116612d13576040517f1e4fbdf70000000000000000000000000000000000000000000000000000000081525f6004820152602401610d0b565b610ee181614200565b612d2461382c565b5f8111612d995760405162461bcd60e51b815260206004820152602260248201527f4275726e20616d6f756e74206d7573742062652067726561746572207468616e60448201527f20300000000000000000000000000000000000000000000000000000000000006064820152608401610d0b565b600254604080517f3e6dfa3600000000000000000000000000000000000000000000000000000000815290515f926001600160a01b031691633e6dfa369160048083019260209291908290030181865afa158015612df9573d5f803e3d5ffd5b505050506040513d601f19601f82011682018060405250810190612e1d9190615185565b90506001600160a01b038116612e755760405162461bcd60e51b815260206004820152601660248201527f556e6973776170466163746f7279206e6f7420736574000000000000000000006044820152606401610d0b565b60025460408051631d8cf42560e11b815290515f926001600160a01b031691633b19e84a9160048083019260209291908290030181865afa158015612ebc573d5f803e3d5ffd5b505050506040513d601f19601f82011682018060405250810190612ee09190615185565b90506001600160a01b038116612f385760405162461bcd60e51b815260206004820152601060248201527f5472656173757279206e6f7420736574000000000000000000000000000000006044820152606401610d0b565b600254604080517f6c9c007800000000000000000000000000000000000000000000000000000000815290515f926001600160a01b031691636c9c00789160048083019260209291908290030181865afa158015612f98573d5f803e3d5ffd5b505050506040513d601f19601f82011682018060405250810190612fbc9190615185565b90506001600160a01b0381166130145760405162461bcd60e51b815260206004820152600f60248201527f574e4154495645206e6f742073657400000000000000000000000000000000006044820152606401610d0b565b5f61301e85613b7f565b9050848111156130705760405162461bcd60e51b815260206004820152601560248201527f4665652063616c63756c6174696f6e206572726f7200000000000000000000006044820152606401610d0b565b5f61307b8287615220565b90506130878482611e65565b505f5b6130935f613c8e565b81101561379b575f6130a58183613c97565b90506001600160a01b0381166130fd5760405162461bcd60e51b815260206004820152601560248201527f496e76616c696420746f6b656e206164647265737300000000000000000000006044820152606401610d0b565b5f6131267f52c63247e1f47db19d5ce0460030c497f067ca4cebf71ba98eeadabe20bace025490565b90505f81116131775760405162461bcd60e51b815260206004820152601160248201527f546f74616c20737570706c7920697320300000000000000000000000000000006044820152606401610d0b565b6040516370a0823160e01b81523060048201525f906001600160a01b038416906370a0823190602401602060405180830381865afa1580156131bb573d5f803e3d5ffd5b505050506040513d601f19601f820116820180604052508101906131df91906151a0565b90508015806131f657506001600160a01b03831630145b1561320357505050613793565b5f836001600160a01b031663313ce5676040518163ffffffff1660e01b8152600401602060405180830381865afa158015613240573d5f803e3d5ffd5b505050506040513d601f19601f820116820180604052508101906132649190615233565b60ff1690505f61327684848a85613ca2565b9050828111156132c85760405162461bcd60e51b815260206004820152601760248201527f53686172652063616c63756c6174696f6e206572726f720000000000000000006044820152606401610d0b565b6003546001600160a01b039081169086160361335b5760035460405163a9059cbb60e01b8152336004820152602481018390526001600160a01b039091169063a9059cbb906044016020604051808303815f875af115801561332c573d5f803e3d5ffd5b505050506040513d601f19601f820116820180604052508101906133509190615201565b505050505050613793565b600254604080517f82755ebb00000000000000000000000000000000000000000000000000000000815290515f926001600160a01b0316916382755ebb9160048083019260209291908290030181865afa1580156133bb573d5f803e3d5ffd5b505050506040513d601f19601f820116820180604052508101906133df9190615185565b90506001600160a01b0381166134375760405162461bcd60e51b815260206004820152601560248201527f42616c756e6953776170706572206e6f742073657400000000000000000000006044820152606401610d0b565b6040517f095ea7b30000000000000000000000000000000000000000000000000000000081526001600160a01b0382811660048301526024820184905287169063095ea7b3906044016020604051808303815f875af115801561349c573d5f803e3d5ffd5b505050506040513d601f19601f820116820180604052508101906134c09190615201565b506003546040517f2d6bc8ea0000000000000000000000000000000000000000000000000000000081526001600160a01b03888116600483015291821660248201526044810184905233606482015290821690632d6bc8ea906084016020604051808303815f875af1925050508015613556575060408051601f3d908101601f19168201909252613553918101906151a0565b60015b6136c8576003546040517f5efaaebb0000000000000000000000000000000000000000000000000000000081526001600160a01b0388811660048301528c811660248301529182166044820152606481018490523360848201525f91831690635efaaebb9060a4016020604051808303815f875af11580156135da573d5f803e3d5ffd5b505050506040513d601f19601f820116820180604052508101906135fe91906151a0565b90505f811161364f5760405162461bcd60e51b815260206004820152601360248201527f4d756c7469486f7053776170204661696c6564000000000000000000000000006044820152606401610d0b565b60035460405163a9059cbb60e01b8152336004820152602481018390526001600160a01b039091169063a9059cbb906044016020604051808303815f875af115801561369d573d5f803e3d5ffd5b505050506040513d601f19601f820116820180604052508101906136c19190615201565b505061378c565b5f81116137175760405162461bcd60e51b815260206004820152600b60248201527f53776170204661696c65640000000000000000000000000000000000000000006044820152606401610d0b565b60035460405163a9059cbb60e01b8152336004820152602481018390526001600160a01b039091169063a9059cbb906044016020604051808303815f875af1158015613765573d5f803e3d5ffd5b505050506040513d601f19601f820116820180604052508101906137899190615201565b50505b5050505050505b60010161308a565b506137a63383613dae565b60408051338152602081018490527fcc16f5dbb4873280815c1ee09dbd06736cffcc184412cf7a71a0fdb75d397ca5910160405180910390a15050505050610ee160017f9b779b17422d0df92223018b32b4d1fa46e071723d6817e2486d003becc55f0055565b5f611edb85858585613ca2565b6138278383836001614430565b505050565b7f9b779b17422d0df92223018b32b4d1fa46e071723d6817e2486d003becc55f0080547ffffffffffffffffffffffffffffffffffffffffffffffffffffffffffffffffe016138a7576040517f3ee5aeb500000000000000000000000000000000000000000000000000000000815260040160405180910390fd5b60029055565b5f80805b6138ba5f613c8e565b811015613b06575f6138cc8183613c97565b6040516370a0823160e01b81523060048201529091505f906001600160a01b038316906370a0823190602401602060405180830381865afa158015613913573d5f803e3d5ffd5b505050506040513d601f19601f8201168201806040525081019061393791906151a0565b9050805f03613947575050613afe565b6003546001600160a01b039081169083160361397f5761396c8164e8d4a510006151cb565b6139769085615446565b93505050613afe565b600254604080517fbb3ba04c00000000000000000000000000000000000000000000000000000000815290515f926001600160a01b03169163bb3ba04c9160048083019260209291908290030181865afa1580156139df573d5f803e3d5ffd5b505050506040513d601f19601f82011682018060405250810190613a039190615185565b6003546040517fb27b5e750000000000000000000000000000000000000000000000000000000081526001600160a01b0386811660048301529182166024820152604481018590529192505f919083169063b27b5e7590606401602060405180830381865afa158015613a78573d5f803e3d5ffd5b505050506040513d601f19601f82011682018060405250810190613a9c91906151a0565b90505f8111613aed5760405162461bcd60e51b815260206004820152601760248201527f546f6b656e2076616c756174696f6e206973207a65726f0000000000000000006044820152606401610d0b565b613af78187615446565b9550505050505b6001016138b1565b50919050565b6001600160a01b038216613b4e576040517fec442f050000000000000000000000000000000000000000000000000000000081525f6004820152602401610d0b565b611af05f8383614558565b60017f9b779b17422d0df92223018b32b4d1fa46e071723d6817e2486d003becc55f0055565b5f8060025f9054906101000a90046001600160a01b03166001600160a01b03166385462d6f6040518163ffffffff1660e01b8152600401602060405180830381865afa158015613bd1573d5f803e3d5ffd5b505050506040513d601f19601f82011682018060405250810190613bf591906151a0565b90505f60025f9054906101000a90046001600160a01b03166001600160a01b0316634f4608a26040518163ffffffff1660e01b8152600401602060405180830381865afa158015613c48573d5f803e3d5ffd5b505050506040513d601f19601f82011682018060405250810190613c6c91906151a0565b90505f81613c7a8482615220565b613c8490876151cb565b611edb91906151e2565b5f6108ca825490565b5f61148e83836146bd565b5f808511613cf25760405162461bcd60e51b815260206004820152601b60248201527f546f74616c20737570706c792063616e6e6f74206265207a65726f00000000006044820152606401610d0b565b6012821115613d435760405162461bcd60e51b815260206004820152601e60248201527f546f6b656e20646563696d616c732073686f756c64206265203c3d20313800006044820152606401610d0b565b5f8080613d51856012615220565b613d5c90600a615539565b90506012851015613d8457613d7181896151e2565b9250613d7d81876151e2565b9150613d8b565b8792508591505b5f83613d9789856151cb565b613da191906151e2565b9998505050505050505050565b6001600160a01b038216613df0576040517f96c6fd1e0000000000000000000000000000000000000000000000000000000081525f6004820152602401610d0b565b611af0825f83614558565b6001600160a01b038381165f9081527f52c63247e1f47db19d5ce0460030c497f067ca4cebf71ba98eeadabe20bace0160209081526040808320938616835292905220545f198114613ea85781811015613e9a576040517ffb8f41b20000000000000000000000000000000000000000000000000000000081526001600160a01b03841660048201526024810182905260448101839052606401610d0b565b613ea884848484035f614430565b50505050565b6001600160a01b038316613ef0576040517f96c6fd1e0000000000000000000000000000000000000000000000000000000081525f6004820152602401610d0b565b6001600160a01b038216613f32576040517fec442f050000000000000000000000000000000000000000000000000000000081525f6004820152602401610d0b565b613827838383614558565b306001600160a01b037f0000000000000000000000000000000000000000000000000000000000000000161480613fd657507f00000000000000000000000000000000000000000000000000000000000000006001600160a01b0316613fca7f360894a13ba1a3210667c828492db98dca3e2076cc3735a920a3ca505d382bbc546001600160a01b031690565b6001600160a01b031614155b15611ad3576040517fe07c8dba00000000000000000000000000000000000000000000000000000000815260040160405180910390fd5b610ee1614178565b816001600160a01b03166352d1902d6040518163ffffffff1660e01b8152600401602060405180830381865afa92505050801561406f575060408051601f3d908101601f1916820190925261406c918101906151a0565b60015b6140b0576040517f4c9c8ce30000000000000000000000000000000000000000000000000000000081526001600160a01b0383166004820152602401610d0b565b7f360894a13ba1a3210667c828492db98dca3e2076cc3735a920a3ca505d382bbc811461410c576040517faa1d49a400000000000000000000000000000000000000000000000000000000815260048101829052602401610d0b565b61382783836146e3565b306001600160a01b037f00000000000000000000000000000000000000000000000000000000000000001614611ad3576040517fe07c8dba00000000000000000000000000000000000000000000000000000000815260040160405180910390fd5b336141aa7f9016d09d72d40fdae2fd8ceac6b6234c7706214fd39c1cd1e609a0528c199300546001600160a01b031690565b6001600160a01b031614611ad3576040517f118cdaa7000000000000000000000000000000000000000000000000000000008152336004820152602401610d0b565b5f61148e836001600160a01b038416614738565b7f9016d09d72d40fdae2fd8ceac6b6234c7706214fd39c1cd1e609a0528c199300805473ffffffffffffffffffffffffffffffffffffffff1981166001600160a01b03848116918217845560405192169182907f8be0079c531659141344cd1fd0a4f28419497f9722a3daafe3b4186f6b6457e0905f90a3505050565b5f8060035f9054906101000a90046001600160a01b03166001600160a01b031663313ce5676040518163ffffffff1660e01b8152600401602060405180830381865afa1580156142cf573d5f803e3d5ffd5b505050506040513d601f19601f820116820180604052508101906142f39190615233565b60ff1690505f6143217f52c63247e1f47db19d5ce0460030c497f067ca4cebf71ba98eeadabe20bace025490565b90505f81116143725760405162461bcd60e51b815260206004820152601b60248201527f546f74616c20737570706c792063616e6e6f74206265207a65726f00000000006044820152606401610d0b565b5f61437b6138ad565b90508161438882876151cb565b61439291906151e2565b935061439f836012615220565b6143aa90600a615539565b611edb90856151e2565b60605f61148e8361481b565b6143c8614874565b611af082826148db565b6143da614874565b610ee18161493e565b6143eb614874565b611ad3614946565b611ad3614874565b5f61148e836001600160a01b03841661494e565b6001600160a01b0381165f908152600183016020526040812054151561148e565b7f52c63247e1f47db19d5ce0460030c497f067ca4cebf71ba98eeadabe20bace006001600160a01b038516614493576040517fe602df050000000000000000000000000000000000000000000000000000000081525f6004820152602401610d0b565b6001600160a01b0384166144d5576040517f94280d620000000000000000000000000000000000000000000000000000000081525f6004820152602401610d0b565b6001600160a01b038086165f90815260018301602090815260408083209388168352929052208390558115611a4657836001600160a01b0316856001600160a01b03167f8c5be1e5ebec7d5bd14f71427d1e84f3dd0314c0f7b2291e5b200ac8c7c3b9258560405161454991815260200190565b60405180910390a35050505050565b7f52c63247e1f47db19d5ce0460030c497f067ca4cebf71ba98eeadabe20bace006001600160a01b0384166145a55781816002015f82825461459a9190615446565b9091555061462e9050565b6001600160a01b0384165f9081526020829052604090205482811015614610576040517fe450d38c0000000000000000000000000000000000000000000000000000000081526001600160a01b03861660048201526024810182905260448101849052606401610d0b565b6001600160a01b0385165f9081526020839052604090209083900390555b6001600160a01b03831661464c57600281018054839003905561466a565b6001600160a01b0383165f9081526020829052604090208054830190555b826001600160a01b0316846001600160a01b03167fddf252ad1be2c89b69c2b068fc378daa952ba7f163c4a11628f55a4df523b3ef846040516146af91815260200190565b60405180910390a350505050565b5f825f0182815481106146d2576146d2615387565b905f5260205f200154905092915050565b6146ec8261499a565b6040516001600160a01b038316907fbc7cd75a20ee27fd9adebab32041f755214dbc6bffa90cc0225b39da2e5c2d3b905f90a2805115614730576138278282614a36565b611af0614a9f565b5f8181526001830160205260408120548015614812575f61475a600183615220565b85549091505f9061476d90600190615220565b90508181146147cc575f865f01828154811061478b5761478b615387565b905f5260205f200154905080875f0184815481106147ab576147ab615387565b5f918252602080832090910192909255918252600188019052604090208390555b85548690806147dd576147dd615544565b600190038181905f5260205f20015f90559055856001015f8681526020019081526020015f205f9055600193505050506108ca565b5f9150506108ca565b6060815f0180548060200260200160405190810160405280929190818152602001828054801561486857602002820191905f5260205f20905b815481526020019060010190808311614854575b50505050509050919050565b7ff0c57e16840df040f15088dc2f81fe391c3923bec73e23a9662efc9c229c6a005468010000000000000000900460ff16611ad3576040517fd7e6bcf800000000000000000000000000000000000000000000000000000000815260040160405180910390fd5b6148e3614874565b7f52c63247e1f47db19d5ce0460030c497f067ca4cebf71ba98eeadabe20bace007f52c63247e1f47db19d5ce0460030c497f067ca4cebf71ba98eeadabe20bace0361492f848261559c565b5060048101613ea8838261559c565b612cd1614874565b613b59614874565b5f81815260018301602052604081205461499357508154600181810184555f8481526020808220909301849055845484825282860190935260409020919091556108ca565b505f6108ca565b806001600160a01b03163b5f036149e8576040517f4c9c8ce30000000000000000000000000000000000000000000000000000000081526001600160a01b0382166004820152602401610d0b565b7f360894a13ba1a3210667c828492db98dca3e2076cc3735a920a3ca505d382bbc805473ffffffffffffffffffffffffffffffffffffffff19166001600160a01b0392909216919091179055565b60605f80846001600160a01b031684604051614a529190615658565b5f60405180830381855af49150503d805f8114614a8a576040519150601f19603f3d011682016040523d82523d5f602084013e614a8f565b606091505b5091509150611edb858383614ad7565b3415611ad3576040517fb398979f00000000000000000000000000000000000000000000000000000000815260040160405180910390fd5b606082614aec57614ae782614b4c565b61148e565b8151158015614b0357506001600160a01b0384163b155b15614b45576040517f9996b3150000000000000000000000000000000000000000000000000000000081526001600160a01b0385166004820152602401610d0b565b508061148e565b805115614b5c5780518082602001fd5b6040517f1425ea4200000000000000000000000000000000000000000000000000000000815260040160405180910390fd5b5f81518084528060208401602086015e5f602082860101526020601f19601f83011685010191505092915050565b602081525f61148e6020830184614b8e565b6001600160a01b0381168114610ee1575f80fd5b5f8060408385031215614bf3575f80fd5b8235614bfe81614bce565b946020939093013593505050565b5f60208284031215614c1c575f80fd5b5035919050565b5f805f60608486031215614c35575f80fd5b8335614c4081614bce565b92506020840135614c5081614bce565b929592945050506040919091013590565b5f60208284031215614c71575f80fd5b813561148e81614bce565b5f8060408385031215614c8d575f80fd5b823591506020830135614c9f81614bce565b809150509250929050565b634e487b7160e01b5f52604160045260245ffd5b6040516060810167ffffffffffffffff81118282101715614ce157614ce1614caa565b60405290565b604051601f8201601f1916810167ffffffffffffffff81118282101715614d1057614d10614caa565b604052919050565b5f82601f830112614d27575f80fd5b813567ffffffffffffffff811115614d4157614d41614caa565b614d546020601f19601f84011601614ce7565b818152846020838601011115614d68575f80fd5b816020850160208301375f918101602001919091529392505050565b5f8060408385031215614d95575f80fd5b8235614da081614bce565b9150602083013567ffffffffffffffff811115614dbb575f80fd5b614dc785828601614d18565b9150509250929050565b5f8083601f840112614de1575f80fd5b50813567ffffffffffffffff811115614df8575f80fd5b6020830191508360208260051b8501011115614e12575f80fd5b9250929050565b5f805f805f805f8060c0898b031215614e30575f80fd5b883567ffffffffffffffff80821115614e47575f80fd5b614e538c838d01614dd1565b909a50985060208b0135915080821115614e6b575f80fd5b50614e788b828c01614dd1565b9097509550506040890135614e8c81614bce565b93506060890135614e9c81614bce565b92506080890135915060a0890135614eb381614bce565b809150509295985092959890939650565b5f8060408385031215614ed5575f80fd5b8235614ee081614bce565b9150602083013567ffffffffffffffff81168114614c9f575f80fd5b5f815180845260208085019450602084015f5b83811015614f345781516001600160a01b031687529582019590820190600101614f0f565b509495945050505050565b602081525f61148e6020830184614efc565b5f8060408385031215614f62575f80fd5b8235614f6d81614bce565b91506020830135614c9f81614bce565b5f67ffffffffffffffff821115614f9657614f96614caa565b5060051b60200190565b5f82601f830112614faf575f80fd5b81356020614fc4614fbf83614f7d565b614ce7565b8083825260208201915060208460051b870101935086841115614fe5575f80fd5b602086015b8481101561500a578035614ffd81614bce565b8352918301918301614fea565b509695505050505050565b5f8060408385031215615026575f80fd5b823567ffffffffffffffff8082111561503d575f80fd5b818501915085601f830112615050575f80fd5b81356020615060614fbf83614f7d565b82815260059290921b8401810191818101908984111561507e575f80fd5b8286015b8481101561510157803586811115615098575f80fd5b87016060818d03601f19018113156150ae575f80fd5b6150b6614cbe565b868301356150c381614bce565b81526040830135878201529082013590888211156150df575f80fd5b6150ed8e8884860101614d18565b604082015285525050918301918301615082565b5096505086013592505080821115615117575f80fd5b50614dc785828601614fa0565b5f805f8060808587031215615137575f80fd5b5050823594602084013594506040840135936060013592509050565b600181811c9082168061516757607f821691505b602082108103613b0657634e487b7160e01b5f52602260045260245ffd5b5f60208284031215615195575f80fd5b815161148e81614bce565b5f602082840312156151b0575f80fd5b5051919050565b634e487b7160e01b5f52601160045260245ffd5b80820281158282048414176108ca576108ca6151b7565b5f826151fc57634e487b7160e01b5f52601260045260245ffd5b500490565b5f60208284031215615211575f80fd5b8151801515811461148e575f80fd5b818103818111156108ca576108ca6151b7565b5f60208284031215615243575f80fd5b815160ff8116811461148e575f80fd5b8183525f60208085019450825f5b85811015614f3457813561527481614bce565b6001600160a01b031687529582019590820190600101615261565b8183525f7f07ffffffffffffffffffffffffffffffffffffffffffffffffffffffffffffff8311156152bf575f80fd5b8260051b80836020870137939093016020019392505050565b60e08082528a519082018190525f90602090610100840190828e01845b82811015615311578151845292840192908401906001016152f5565b5050508381036020850152615327818c8e615253565b915050828103604084015261533d81898b61528f565b91505085606083015261535b60808301866001600160a01b03169052565b6001600160a01b03841660a08301526001600160a01b03831660c08301529a9950505050505050505050565b634e487b7160e01b5f52603260045260245ffd5b5f6040808301604084528086518083526060925060608601915060608160051b8701016020808a015f5b84811015615433578984037fffffffffffffffffffffffffffffffffffffffffffffffffffffffffffffffa0018652815180516001600160a01b03168552838101518486015288015188850188905261542088860182614b8e565b96840196945050908201906001016153c5565b505087820390880152613da18189614efc565b808201808211156108ca576108ca6151b7565b600181815b8085111561549357815f1904821115615479576154796151b7565b8085161561548657918102915b93841c939080029061545e565b509250929050565b5f826154a9575060016108ca565b816154b557505f6108ca565b81600181146154cb57600281146154d5576154f1565b60019150506108ca565b60ff8411156154e6576154e66151b7565b50506001821b6108ca565b5060208310610133831016604e8410600b8410161715615514575081810a6108ca565b61551e8383615459565b805f1904821115615531576155316151b7565b029392505050565b5f61148e838361549b565b634e487b7160e01b5f52603160045260245ffd5b601f82111561382757805f5260205f20601f840160051c8101602085101561557d5750805b601f840160051c820191505b81811015611a46575f8155600101615589565b815167ffffffffffffffff8111156155b6576155b6614caa565b6155ca816155c48454615153565b84615558565b602080601f8311600181146155fd575f84156155e65750858301515b5f19600386901b1c1916600185901b178555611a3e565b5f85815260208120601f198616915b8281101561562b5788860151825594840194600190910190840161560c565b508582101561564857878501515f19600388901b60f8161c191681555b5050505050600190811b01905550565b5f82518060208501845e5f92019182525091905056fea26469706673582212205def48d1e770b2d00d6ab94e72a23d1f435ec70b33f2b71243b0bac763f9901964736f6c63430008190033",
  "linkReferences": {},
  "deployedLinkReferences": {}
}