{
  "_format": "hh-sol-artifact-1",
  "contractName": "BaluniV1Router",
  "sourceName": "contracts/orchestators/BaluniV1Router.sol",
  "abi": [
    {
      "inputs": [
        {
          "internalType": "address",
          "name": "target",
          "type": "address"
        }
      ],
      "name": "AddressEmptyCode",
      "type": "error"
    },
    {
      "inputs": [
        {
          "internalType": "address",
          "name": "implementation",
          "type": "address"
        }
      ],
      "name": "ERC1967InvalidImplementation",
      "type": "error"
    },
    {
      "inputs": [],
      "name": "ERC1967NonPayable",
      "type": "error"
    },
    {
      "inputs": [
        {
          "internalType": "address",
          "name": "spender",
          "type": "address"
        },
        {
          "internalType": "uint256",
          "name": "allowance",
          "type": "uint256"
        },
        {
          "internalType": "uint256",
          "name": "needed",
          "type": "uint256"
        }
      ],
      "name": "ERC20InsufficientAllowance",
      "type": "error"
    },
    {
      "inputs": [
        {
          "internalType": "address",
          "name": "sender",
          "type": "address"
        },
        {
          "internalType": "uint256",
          "name": "balance",
          "type": "uint256"
        },
        {
          "internalType": "uint256",
          "name": "needed",
          "type": "uint256"
        }
      ],
      "name": "ERC20InsufficientBalance",
      "type": "error"
    },
    {
      "inputs": [
        {
          "internalType": "address",
          "name": "approver",
          "type": "address"
        }
      ],
      "name": "ERC20InvalidApprover",
      "type": "error"
    },
    {
      "inputs": [
        {
          "internalType": "address",
          "name": "receiver",
          "type": "address"
        }
      ],
      "name": "ERC20InvalidReceiver",
      "type": "error"
    },
    {
      "inputs": [
        {
          "internalType": "address",
          "name": "sender",
          "type": "address"
        }
      ],
      "name": "ERC20InvalidSender",
      "type": "error"
    },
    {
      "inputs": [
        {
          "internalType": "address",
          "name": "spender",
          "type": "address"
        }
      ],
      "name": "ERC20InvalidSpender",
      "type": "error"
    },
    {
      "inputs": [],
      "name": "FailedInnerCall",
      "type": "error"
    },
    {
      "inputs": [],
      "name": "InvalidInitialization",
      "type": "error"
    },
    {
      "inputs": [],
      "name": "NotInitializing",
      "type": "error"
    },
    {
      "inputs": [
        {
          "internalType": "address",
          "name": "owner",
          "type": "address"
        }
      ],
      "name": "OwnableInvalidOwner",
      "type": "error"
    },
    {
      "inputs": [
        {
          "internalType": "address",
          "name": "account",
          "type": "address"
        }
      ],
      "name": "OwnableUnauthorizedAccount",
      "type": "error"
    },
    {
      "inputs": [],
      "name": "ReentrancyGuardReentrantCall",
      "type": "error"
    },
    {
      "inputs": [],
      "name": "UUPSUnauthorizedCallContext",
      "type": "error"
    },
    {
      "inputs": [
        {
          "internalType": "bytes32",
          "name": "slot",
          "type": "bytes32"
        }
      ],
      "name": "UUPSUnsupportedProxiableUUID",
      "type": "error"
    },
    {
      "anonymous": false,
      "inputs": [
        {
          "indexed": true,
          "internalType": "address",
          "name": "owner",
          "type": "address"
        },
        {
          "indexed": true,
          "internalType": "address",
          "name": "spender",
          "type": "address"
        },
        {
          "indexed": false,
          "internalType": "uint256",
          "name": "value",
          "type": "uint256"
        }
      ],
      "name": "Approval",
      "type": "event"
    },
    {
      "anonymous": false,
      "inputs": [
        {
          "indexed": false,
          "internalType": "address",
          "name": "user",
          "type": "address"
        },
        {
          "indexed": false,
          "internalType": "uint256",
          "name": "value",
          "type": "uint256"
        }
      ],
      "name": "Burn",
      "type": "event"
    },
    {
      "anonymous": false,
      "inputs": [
        {
          "indexed": false,
          "internalType": "address",
          "name": "user",
          "type": "address"
        },
        {
          "components": [
            {
              "internalType": "address",
              "name": "to",
              "type": "address"
            },
            {
              "internalType": "uint256",
              "name": "value",
              "type": "uint256"
            },
            {
              "internalType": "bytes",
              "name": "data",
              "type": "bytes"
            }
          ],
          "indexed": false,
          "internalType": "struct IBaluniV1Agent.Call[]",
          "name": "calls",
          "type": "tuple[]"
        },
        {
          "indexed": false,
          "internalType": "address[]",
          "name": "tokensReturn",
          "type": "address[]"
        }
      ],
      "name": "Execute",
      "type": "event"
    },
    {
      "anonymous": false,
      "inputs": [
        {
          "indexed": false,
          "internalType": "uint64",
          "name": "version",
          "type": "uint64"
        }
      ],
      "name": "Initialized",
      "type": "event"
    },
    {
      "anonymous": false,
      "inputs": [
        {
          "indexed": false,
          "internalType": "string",
          "name": "message",
          "type": "string"
        },
        {
          "indexed": false,
          "internalType": "uint256",
          "name": "value",
          "type": "uint256"
        }
      ],
      "name": "Log",
      "type": "event"
    },
    {
      "anonymous": false,
      "inputs": [
        {
          "indexed": false,
          "internalType": "address",
          "name": "user",
          "type": "address"
        },
        {
          "indexed": false,
          "internalType": "uint256",
          "name": "value",
          "type": "uint256"
        }
      ],
      "name": "Mint",
      "type": "event"
    },
    {
      "anonymous": false,
      "inputs": [
        {
          "indexed": true,
          "internalType": "address",
          "name": "previousOwner",
          "type": "address"
        },
        {
          "indexed": true,
          "internalType": "address",
          "name": "newOwner",
          "type": "address"
        }
      ],
      "name": "OwnershipTransferred",
      "type": "event"
    },
    {
      "anonymous": false,
      "inputs": [
        {
          "indexed": true,
          "internalType": "address",
          "name": "from",
          "type": "address"
        },
        {
          "indexed": true,
          "internalType": "address",
          "name": "to",
          "type": "address"
        },
        {
          "indexed": false,
          "internalType": "uint256",
          "name": "value",
          "type": "uint256"
        }
      ],
      "name": "Transfer",
      "type": "event"
    },
    {
      "anonymous": false,
      "inputs": [
        {
          "indexed": true,
          "internalType": "address",
          "name": "implementation",
          "type": "address"
        }
      ],
      "name": "Upgraded",
      "type": "event"
    },
    {
      "inputs": [],
      "name": "UPGRADE_INTERFACE_VERSION",
      "outputs": [
        {
          "internalType": "string",
          "name": "",
          "type": "string"
        }
      ],
      "stateMutability": "view",
      "type": "function"
    },
    {
      "inputs": [
        {
          "internalType": "address",
          "name": "_token",
          "type": "address"
        }
      ],
      "name": "addToken",
      "outputs": [],
      "stateMutability": "nonpayable",
      "type": "function"
    },
    {
      "inputs": [
        {
          "internalType": "address",
          "name": "owner",
          "type": "address"
        },
        {
          "internalType": "address",
          "name": "spender",
          "type": "address"
        }
      ],
      "name": "allowance",
      "outputs": [
        {
          "internalType": "uint256",
          "name": "",
          "type": "uint256"
        }
      ],
      "stateMutability": "view",
      "type": "function"
    },
    {
      "inputs": [
        {
          "internalType": "address",
          "name": "spender",
          "type": "address"
        },
        {
          "internalType": "uint256",
          "name": "value",
          "type": "uint256"
        }
      ],
      "name": "approve",
      "outputs": [
        {
          "internalType": "bool",
          "name": "",
          "type": "bool"
        }
      ],
      "stateMutability": "nonpayable",
      "type": "function"
    },
    {
      "inputs": [
        {
          "internalType": "address",
          "name": "account",
          "type": "address"
        }
      ],
      "name": "balanceOf",
      "outputs": [
        {
          "internalType": "uint256",
          "name": "",
          "type": "uint256"
        }
      ],
      "stateMutability": "view",
      "type": "function"
    },
    {
      "inputs": [],
      "name": "baseAsset",
      "outputs": [
        {
          "internalType": "address",
          "name": "",
          "type": "address"
        }
      ],
      "stateMutability": "view",
      "type": "function"
    },
    {
      "inputs": [
        {
          "internalType": "uint256",
          "name": "burnAmount",
          "type": "uint256"
        }
      ],
      "name": "burnERC20",
      "outputs": [],
      "stateMutability": "nonpayable",
      "type": "function"
    },
    {
      "inputs": [
        {
          "internalType": "uint256",
          "name": "burnAmount",
          "type": "uint256"
        }
      ],
      "name": "burnUSDC",
      "outputs": [],
      "stateMutability": "nonpayable",
      "type": "function"
    },
    {
      "inputs": [
        {
          "internalType": "uint256",
          "name": "totalBaluni",
          "type": "uint256"
        },
        {
          "internalType": "uint256",
          "name": "totalERC20Balance",
          "type": "uint256"
        },
        {
          "internalType": "uint256",
          "name": "baluniAmount",
          "type": "uint256"
        },
        {
          "internalType": "uint256",
          "name": "tokenDecimals",
          "type": "uint256"
        }
      ],
      "name": "calculateTokenShare",
      "outputs": [
        {
          "internalType": "uint256",
          "name": "",
          "type": "uint256"
        }
      ],
      "stateMutability": "pure",
      "type": "function"
    },
    {
      "inputs": [
        {
          "internalType": "address[]",
          "name": "assets",
          "type": "address[]"
        },
        {
          "internalType": "uint256[]",
          "name": "weights",
          "type": "uint256[]"
        },
        {
          "internalType": "address",
          "name": "sender",
          "type": "address"
        },
        {
          "internalType": "address",
          "name": "receiver",
          "type": "address"
        },
        {
          "internalType": "uint256",
          "name": "limit",
          "type": "uint256"
        },
        {
          "internalType": "address",
          "name": "",
          "type": "address"
        }
      ],
      "name": "callRebalance",
      "outputs": [],
      "stateMutability": "nonpayable",
      "type": "function"
    },
    {
      "inputs": [],
      "name": "decimals",
      "outputs": [
        {
          "internalType": "uint8",
          "name": "",
          "type": "uint8"
        }
      ],
      "stateMutability": "view",
      "type": "function"
    },
    {
      "inputs": [
        {
          "components": [
            {
              "internalType": "address",
              "name": "to",
              "type": "address"
            },
            {
              "internalType": "uint256",
              "name": "value",
              "type": "uint256"
            },
            {
              "internalType": "bytes",
              "name": "data",
              "type": "bytes"
            }
          ],
          "internalType": "struct IBaluniV1Agent.Call[]",
          "name": "calls",
          "type": "tuple[]"
        },
        {
          "internalType": "address[]",
          "name": "tokensReturn",
          "type": "address[]"
        }
      ],
      "name": "execute",
      "outputs": [],
      "stateMutability": "nonpayable",
      "type": "function"
    },
    {
      "inputs": [
        {
          "internalType": "address",
          "name": "_user",
          "type": "address"
        }
      ],
      "name": "getAgentAddress",
      "outputs": [
        {
          "internalType": "address",
          "name": "",
          "type": "address"
        }
      ],
      "stateMutability": "view",
      "type": "function"
    },
    {
      "inputs": [],
      "name": "getTokens",
      "outputs": [
        {
          "internalType": "address[]",
          "name": "",
          "type": "address[]"
        }
      ],
      "stateMutability": "view",
      "type": "function"
    },
    {
      "inputs": [
        {
          "internalType": "uint256",
          "name": "amount",
          "type": "uint256"
        }
      ],
      "name": "getUSDCShareValue",
      "outputs": [
        {
          "internalType": "uint256",
          "name": "",
          "type": "uint256"
        }
      ],
      "stateMutability": "view",
      "type": "function"
    },
    {
      "inputs": [],
      "name": "getVersion",
      "outputs": [
        {
          "internalType": "uint64",
          "name": "",
          "type": "uint64"
        }
      ],
      "stateMutability": "view",
      "type": "function"
    },
    {
      "inputs": [
        {
          "internalType": "address",
          "name": "_registry",
          "type": "address"
        }
      ],
      "name": "initialize",
      "outputs": [],
      "stateMutability": "nonpayable",
      "type": "function"
    },
    {
      "inputs": [
        {
          "internalType": "address",
          "name": "token",
          "type": "address"
        }
      ],
      "name": "liquidate",
      "outputs": [],
      "stateMutability": "nonpayable",
      "type": "function"
    },
    {
      "inputs": [],
      "name": "liquidateAll",
      "outputs": [],
      "stateMutability": "nonpayable",
      "type": "function"
    },
    {
      "inputs": [
        {
          "internalType": "uint256",
          "name": "balAmountToMint",
          "type": "uint256"
        }
      ],
      "name": "mintWithUSDC",
      "outputs": [],
      "stateMutability": "nonpayable",
      "type": "function"
    },
    {
      "inputs": [],
      "name": "name",
      "outputs": [
        {
          "internalType": "string",
          "name": "",
          "type": "string"
        }
      ],
      "stateMutability": "view",
      "type": "function"
    },
    {
      "inputs": [],
      "name": "owner",
      "outputs": [
        {
          "internalType": "address",
          "name": "",
          "type": "address"
        }
      ],
      "stateMutability": "view",
      "type": "function"
    },
    {
      "inputs": [],
      "name": "proxiableUUID",
      "outputs": [
        {
          "internalType": "bytes32",
          "name": "",
          "type": "bytes32"
        }
      ],
      "stateMutability": "view",
      "type": "function"
    },
    {
      "inputs": [],
      "name": "registry",
      "outputs": [
        {
          "internalType": "contract IBaluniV1Registry",
          "name": "",
          "type": "address"
        }
      ],
      "stateMutability": "view",
      "type": "function"
    },
    {
      "inputs": [
        {
          "internalType": "address",
          "name": "_registry",
          "type": "address"
        },
        {
          "internalType": "uint64",
          "name": "version",
          "type": "uint64"
        }
      ],
      "name": "reinitialize",
      "outputs": [],
      "stateMutability": "nonpayable",
      "type": "function"
    },
    {
      "inputs": [
        {
          "internalType": "address",
          "name": "_token",
          "type": "address"
        }
      ],
      "name": "removeToken",
      "outputs": [],
      "stateMutability": "nonpayable",
      "type": "function"
    },
    {
      "inputs": [],
      "name": "renounceOwnership",
      "outputs": [],
      "stateMutability": "nonpayable",
      "type": "function"
    },
    {
      "inputs": [
        {
          "internalType": "uint256",
          "name": "balAmountToMint",
          "type": "uint256"
        }
      ],
      "name": "requiredUSDCtoMint",
      "outputs": [
        {
          "internalType": "uint256",
          "name": "",
          "type": "uint256"
        }
      ],
      "stateMutability": "view",
      "type": "function"
    },
    {
      "inputs": [
        {
          "internalType": "address",
          "name": "_registry",
          "type": "address"
        }
      ],
      "name": "resetContract",
      "outputs": [],
      "stateMutability": "nonpayable",
      "type": "function"
    },
    {
      "inputs": [],
      "name": "symbol",
      "outputs": [
        {
          "internalType": "string",
          "name": "",
          "type": "string"
        }
      ],
      "stateMutability": "view",
      "type": "function"
    },
    {
      "inputs": [
        {
          "internalType": "uint256",
          "name": "amount",
          "type": "uint256"
        },
        {
          "internalType": "address",
          "name": "token",
          "type": "address"
        }
      ],
      "name": "tokenValuation",
      "outputs": [
        {
          "internalType": "uint256",
          "name": "",
          "type": "uint256"
        }
      ],
      "stateMutability": "view",
      "type": "function"
    },
    {
      "inputs": [],
      "name": "totalSupply",
      "outputs": [
        {
          "internalType": "uint256",
          "name": "",
          "type": "uint256"
        }
      ],
      "stateMutability": "view",
      "type": "function"
    },
    {
      "inputs": [],
      "name": "totalValuation",
      "outputs": [
        {
          "internalType": "uint256",
          "name": "",
          "type": "uint256"
        }
      ],
      "stateMutability": "view",
      "type": "function"
    },
    {
      "inputs": [
        {
          "internalType": "address",
          "name": "to",
          "type": "address"
        },
        {
          "internalType": "uint256",
          "name": "value",
          "type": "uint256"
        }
      ],
      "name": "transfer",
      "outputs": [
        {
          "internalType": "bool",
          "name": "",
          "type": "bool"
        }
      ],
      "stateMutability": "nonpayable",
      "type": "function"
    },
    {
      "inputs": [
        {
          "internalType": "address",
          "name": "from",
          "type": "address"
        },
        {
          "internalType": "address",
          "name": "to",
          "type": "address"
        },
        {
          "internalType": "uint256",
          "name": "value",
          "type": "uint256"
        }
      ],
      "name": "transferFrom",
      "outputs": [
        {
          "internalType": "bool",
          "name": "",
          "type": "bool"
        }
      ],
      "stateMutability": "nonpayable",
      "type": "function"
    },
    {
      "inputs": [
        {
          "internalType": "address",
          "name": "newOwner",
          "type": "address"
        }
      ],
      "name": "transferOwnership",
      "outputs": [],
      "stateMutability": "nonpayable",
      "type": "function"
    },
    {
      "inputs": [],
      "name": "unitPrice",
      "outputs": [
        {
          "internalType": "uint256",
          "name": "",
          "type": "uint256"
        }
      ],
      "stateMutability": "view",
      "type": "function"
    },
    {
      "inputs": [
        {
          "internalType": "address",
          "name": "newImplementation",
          "type": "address"
        },
        {
          "internalType": "bytes",
          "name": "data",
          "type": "bytes"
        }
      ],
      "name": "upgradeToAndCall",
      "outputs": [],
      "stateMutability": "payable",
      "type": "function"
    }
  ],
  "bytecode": "0x60a060405234603957600e6047565b6014603d565b617e44610094823960805181818161694a015281816169cf0152616bca0152617e4490f35b6043565b60405190565b5f80fd5b604d6087565b565b60018060a01b031690565b90565b606c6068607092604f565b605a565b604f565b90565b607a90605d565b90565b6084906073565b90565b608e30607d565b60805256fe60806040526004361015610013575b61146a565b61001d5f3561027c565b806306fdde0314610277578063095ea7b3146102725780630cfc73861461026d5780630d8e6e2c1461026857806318160ddd146102635780631a168da21461025e57806323b872dd1461025957806327d54a9214610254578063295b93001461024f5780632bdd955a1461024a5780632f86556814610245578063313ce567146102405780633c2066a91461023b5780634f1ef2861461023657806352d1902d14610231578063599f69f71461022c5780635fa7b5841461022757806370a0823114610222578063715018a61461021d57806371ddcfb8146102185780637b103999146102135780638da5cb5b1461020e5780638f2248bc1461020957806395d89b4114610204578063a9059cbb146101ff578063aa6ca808146101fa578063aa95d893146101f5578063ad3cb1cc146101f0578063c4d66de8146101eb578063cdf456e1146101e6578063d48bfca7146101e1578063dd62ed3e146101dc578063e67ad759146101d7578063e73faa2d146101d2578063eedc3c50146101cd578063f2fde38b146101c8578063fe0a4dd1146101c35763fe330a510361000e57611431565b6113b8565b611385565b611351565b611107565b6110d4565b61109e565b61103e565b611009565b610f88565b610f53565b610e83565b610e4e565b610d79565b610d44565b610d10565b610c8b565b610c56565b610b76565b610b43565b610b0e565b610adb565b610a9e565b61094d565b6108fe565b61078c565b610757565b6106fc565b6106c6565b610664565b61062f565b6105b9565b61054c565b610517565b6104c0565b61045e565b610405565b61030a565b60e01c90565b60405190565b5f80fd5b5f80fd5b5f91031261029a57565b61028c565b5190565b60209181520190565b90825f9392825e0152565b601f801991011690565b6102e06102e96020936102ee936102d78161029f565b938480936102a3565b958691016102ac565b6102b7565b0190565b6103079160208201915f8184039101526102c1565b90565b3461033a5761031a366004610290565b6103366103256115a3565b61032d610282565b918291826102f2565b0390f35b610288565b5f80fd5b73ffffffffffffffffffffffffffffffffffffffff1690565b61036590610343565b90565b6103718161035c565b0361037857565b5f80fd5b9050359061038982610368565b565b90565b6103978161038b565b0361039e57565b5f80fd5b905035906103af8261038e565b565b91906040838203126103d957806103cd6103d6925f860161037c565b936020016103a2565b90565b61028c565b151590565b6103ec906103de565b9052565b9190610403905f602085019401906103e3565b565b346104365761043261042161041b3660046103b1565b906115c6565b610429610282565b918291826103f0565b0390f35b610288565b9060208282031261045457610451915f016103a2565b90565b61028c565b5f0190565b3461048c5761047661047136600461043b565b611fd7565b61047e610282565b8061048881610459565b0390f35b610288565b67ffffffffffffffff1690565b6104a790610491565b9052565b91906104be905f6020850194019061049e565b565b346104f0576104d0366004610290565b6104ec6104db611fe6565b6104e3610282565b918291826104ab565b0390f35b610288565b6104fe9061038b565b9052565b9190610515905f602085019401906104f5565b565b3461054757610527366004610290565b610543610532612022565b61053a610282565b91829182610502565b0390f35b610288565b3461057a5761056461055f36600461043b565b6129ce565b61056c610282565b8061057681610459565b0390f35b610288565b90916060828403126105b4576105b161059a845f850161037c565b936105a8816020860161037c565b936040016103a2565b90565b61028c565b346105ea576105e66105d56105cf36600461057f565b916129d9565b6105dd610282565b918291826103f0565b0390f35b610288565b9060208282031261060857610605915f0161037c565b90565b61028c565b6106169061035c565b9052565b919061062d905f6020850194019061060d565b565b3461065f5761065b61064a6106453660046105ef565b612a30565b610652610282565b9182918261061a565b0390f35b610288565b3461069457610674366004610290565b61069061067f612b42565b610687610282565b91829182610502565b0390f35b610288565b91906040838203126106c157806106b56106be925f86016103a2565b9360200161037c565b90565b61028c565b346106f7576106f36106e26106dc366004610699565b90612b9b565b6106ea610282565b91829182610502565b0390f35b610288565b3461072a5761071461070f3660046105ef565b612e03565b61071c610282565b8061072681610459565b0390f35b610288565b60ff1690565b61073e9061072f565b9052565b9190610755905f60208501940190610735565b565b3461078757610767366004610290565b6107836107726131cc565b61077a610282565b91829182610742565b0390f35b610288565b346107ba5761079c366004610290565b6107a4613286565b6107ac610282565b806107b681610459565b0390f35b610288565b5f80fd5b5f80fd5b7f4e487b71000000000000000000000000000000000000000000000000000000005f52604160045260245ffd5b906107fe906102b7565b810190811067ffffffffffffffff82111761081857604052565b6107c7565b90610830610829610282565b92836107f4565b565b67ffffffffffffffff81116108505761084c6020916102b7565b0190565b6107c7565b90825f939282370152565b9092919261087561087082610832565b61081d565b938185526020850190828401116108915761088f92610855565b565b6107c3565b9080601f830112156108b4578160206108b193359101610860565b90565b6107bf565b9190916040818403126108f9576108d2835f830161037c565b92602082013567ffffffffffffffff81116108f4576108f19201610896565b90565b61033f565b61028c565b61091261090c3660046108b9565b906132b9565b61091a610282565b8061092481610459565b0390f35b90565b61093490610928565b9052565b919061094b905f6020850194019061092b565b565b3461097d5761095d366004610290565b610979610968613339565b610970610282565b91829182610938565b0390f35b610288565b5f80fd5b5f80fd5b909182601f830112156109c45781359167ffffffffffffffff83116109bf5760200192602083028401116109ba57565b610986565b610982565b6107bf565b909182601f83011215610a035781359167ffffffffffffffff83116109fe5760200192602083028401116109f957565b610986565b610982565b6107bf565b60c081830312610a99575f81013567ffffffffffffffff8111610a945782610a3191830161098a565b929093602083013567ffffffffffffffff8111610a8f5782610a549185016109c9565b929093610a64826040830161037c565b92610a8c610a75846060850161037c565b93610a8381608086016103a2565b9360a00161037c565b90565b61033f565b61033f565b61028c565b34610ad657610ac0610ab1366004610a08565b969590959491949392936135a6565b610ac8610282565b80610ad281610459565b0390f35b610288565b34610b0957610af3610aee3660046105ef565b61378b565b610afb610282565b80610b0581610459565b0390f35b610288565b34610b3e57610b3a610b29610b243660046105ef565b6137b8565b610b31610282565b91829182610502565b0390f35b610288565b34610b7157610b53366004610290565b610b5b613804565b610b63610282565b80610b6d81610459565b0390f35b610288565b34610ba657610ba2610b91610b8c36600461043b565b61380e565b610b99610282565b91829182610502565b0390f35b610288565b1c90565b73ffffffffffffffffffffffffffffffffffffffff1690565b610bd8906008610bdd9302610bab565b610baf565b90565b90610beb9154610bc8565b90565b610bfa60025f90610be0565b90565b90565b610c14610c0f610c1992610343565b610bfd565b610343565b90565b610c2590610c00565b90565b610c3190610c1c565b90565b610c3d90610c28565b9052565b9190610c54905f60208501940190610c34565b565b34610c8657610c66366004610290565b610c82610c71610bee565b610c79610282565b91829182610c41565b0390f35b610288565b34610cbb57610c9b366004610290565b610cb7610ca6613823565b610cae610282565b9182918261061a565b0390f35b610288565b610cc981610491565b03610cd057565b5f80fd5b90503590610ce182610cc0565b565b9190604083820312610d0b5780610cff610d08925f860161037c565b93602001610cd4565b90565b61028c565b34610d3f57610d29610d23366004610ce3565b90613abf565b610d31610282565b80610d3b81610459565b0390f35b610288565b34610d7457610d54366004610290565b610d70610d5f613acb565b610d67610282565b918291826102f2565b0390f35b610288565b34610daa57610da6610d95610d8f3660046103b1565b90613aea565b610d9d610282565b918291826103f0565b0390f35b610288565b5190565b60209181520190565b60200190565b610dcb9061035c565b9052565b90610ddc81602093610dc2565b0190565b60200190565b90610e03610dfd610df684610daf565b8093610db3565b92610dbc565b905f5b818110610e135750505090565b909192610e2c610e266001928651610dcf565b94610de0565b9101919091610e06565b610e4b9160208201915f818403910152610de6565b90565b34610e7e57610e5e366004610290565b610e7a610e69613b11565b610e71610282565b91829182610e36565b0390f35b610288565b34610eb357610eaf610e9e610e9936600461043b565b613b2e565b610ea6610282565b91829182610502565b0390f35b610288565b67ffffffffffffffff8111610ed657610ed26020916102b7565b0190565b6107c7565b90610eed610ee883610eb8565b61081d565b918252565b5f7f352e302e30000000000000000000000000000000000000000000000000000000910152565b610f236005610edb565b90610f3060208301610ef2565b565b610f3a610f19565b90565b610f45610f32565b90565b610f50610f3d565b90565b34610f8357610f63366004610290565b610f7f610f6e610f48565b610f76610282565b918291826102f2565b0390f35b610288565b34610fb657610fa0610f9b3660046105ef565b613f28565b610fa8610282565b80610fb281610459565b0390f35b610288565b73ffffffffffffffffffffffffffffffffffffffff1690565b610fe4906008610fe99302610bab565b610fbb565b90565b90610ff79154610fd4565b90565b61100660035f90610fec565b90565b3461103957611019366004610290565b611035611024610ffa565b61102c610282565b9182918261061a565b0390f35b610288565b3461106c576110566110513660046105ef565b613f5b565b61105e610282565b8061106881610459565b0390f35b610288565b9190604083820312611099578061108d611096925f860161037c565b9360200161037c565b90565b61028c565b346110cf576110cb6110ba6110b4366004611071565b90613f7c565b6110c2610282565b91829182610502565b0390f35b610288565b34611102576110ec6110e73660046105ef565b613fd5565b6110f4610282565b806110fe81610459565b0390f35b610288565b3461113757611117366004610290565b611133611122613fe0565b61112a610282565b91829182610502565b0390f35b610288565b67ffffffffffffffff81116111545760208091020190565b6107c7565b5f80fd5b5f80fd5b9190916060818403126111c557611178606061081d565b92611185815f840161037c565b5f85015261119681602084016103a2565b6020850152604082013567ffffffffffffffff81116111c0576111b99201610896565b6040830152565b61115d565b611159565b9291906111de6111d98261113c565b61081d565b93818552602080860192028101918383116112355781905b838210611204575050505050565b813567ffffffffffffffff8111611230576020916112258784938701611161565b8152019101906111f6565b6107bf565b610986565b9080601f8301121561125857816020611255933591016111ca565b90565b6107bf565b67ffffffffffffffff81116112755760208091020190565b6107c7565b9092919261128f61128a8261125d565b61081d565b93818552602080860192028301928184116112cc57915b8383106112b35750505050565b602080916112c1848661037c565b8152019201916112a6565b610986565b9080601f830112156112ef578160206112ec9335910161127a565b90565b6107bf565b91909160408184031261134c575f81013567ffffffffffffffff8111611347578361132091830161123a565b92602082013567ffffffffffffffff81116113425761133f92016112d1565b90565b61033f565b61033f565b61028c565b346113805761136a6113643660046112f4565b90614ff3565b611372610282565b8061137c81610459565b0390f35b610288565b346113b35761139d6113983660046105ef565b615084565b6113a5610282565b806113af81610459565b0390f35b610288565b346113e6576113d06113cb36600461043b565b615d07565b6113d8610282565b806113e281610459565b0390f35b610288565b60808183031261142c57611401825f83016103a2565b9261142961141284602085016103a2565b9361142081604086016103a2565b936060016103a2565b90565b61028c565b34611465576114616114506114473660046113eb565b92919091615d12565b611458610282565b91829182610502565b0390f35b610288565b5f80fd5b606090565b7f4e487b71000000000000000000000000000000000000000000000000000000005f52602260045260245ffd5b90600160028304921680156114c0575b60208310146114bb57565b611473565b91607f16916114b0565b60209181520190565b5f5260205f2090565b905f92918054906114f66114ef836114a0565b80946114ca565b916001811690815f1461154d5750600114611511575b505050565b61151e91929394506114d3565b915f925b81841061153557505001905f808061150c565b60018160209295939554848601520191019290611522565b92949550505060ff19168252151560200201905f808061150c565b90611572916114dc565b90565b9061159561158e92611585610282565b93848092611568565b03836107f4565b565b6115a090611575565b90565b6115ab61146e565b506115bf60036115b9615d2e565b01611597565b90565b5f90565b6115e3916115d26115c2565b506115db615d52565b919091615d5f565b600190565b6115f9906115f4615e0f565b611a6f565b611601615ebb565b565b5f1c90565b61161461161991611603565b610baf565b90565b6116269054611608565b90565b5f80fd5b60e01b90565b9050519061164082610368565b565b9060208282031261165b57611658915f01611633565b90565b61028c565b611668610282565b3d5f823e3d90fd5b9050519061167d8261038e565b565b9060208282031261169857611695915f01611670565b90565b61028c565b7f4e487b71000000000000000000000000000000000000000000000000000000005f52601160045260245ffd5b6116d96116df9193929361038b565b9261038b565b916116eb83820261038b565b9281840414901517156116fa57565b61169d565b7f4e487b71000000000000000000000000000000000000000000000000000000005f52601260045260245ffd5b61173861173e9161038b565b9161038b565b908115611749570490565b6116ff565b61175790610c00565b90565b6117639061174e565b90565b61176f90610c1c565b90565b61177b90610c1c565b90565b90565b61179561179061179a9261177e565b610bfd565b61038b565b90565b6117a6816103de565b036117ad57565b5f80fd5b905051906117be8261179d565b565b906020828203126117d9576117d6915f016117b1565b90565b61028c565b60409061180761180e94969593966117fd60608401985f85019061060d565b602083019061060d565b01906104f5565b565b91602061183192949361182a60408201965f83019061060d565b019061060d565b565b90565b61184a61184561184f92611833565b610bfd565b61038b565b90565b60207f726f000000000000000000000000000000000000000000000000000000000000917f546f74616c2042414c554e4920737570706c792063616e6e6f74206265207a655f8201520152565b6118ac60226040926102a3565b6118b581611852565b0190565b6118ce9060208101905f81830391015261189f565b90565b156118d857565b6118e0610282565b7f08c379a000000000000000000000000000000000000000000000000000000000815280611910600482016118b9565b0390fd5b5f7f555344432062616c616e636520697320696e73756666696369656e7400000000910152565b611948601c6020926102a3565b61195181611914565b0190565b61196a9060208101905f81830391015261193b565b90565b1561197457565b61197c610282565b7f08c379a0000000000000000000000000000000000000000000000000000000008152806119ac60048201611955565b0390fd5b5f7f436865636b2074686520746f6b656e20616c6c6f77616e636500000000000000910152565b6119e460196020926102a3565b6119ed816119b0565b0190565b611a069060208101905f8183039101526119d7565b90565b15611a1057565b611a18610282565b7f08c379a000000000000000000000000000000000000000000000000000000000815280611a48600482016119f1565b0390fd5b916020611a6d929493611a6660408201965f83019061060d565b01906104f5565b565b611a9c6020611a86611a81600261161c565b610c28565b633b19e84a90611a94610282565b93849261162d565b82528180611aac60048201610459565b03915afa908115611fd2575f91611fa4575b5090611aed6020611ad7611ad2600261161c565b610c28565b631bf01e9b90611ae5610282565b93849261162d565b82528180611afd60048201610459565b03915afa908115611f9f575f91611f71575b50611b3d6020611b27611b22600261161c565b610c28565b6385462d6f90611b35610282565b93849261162d565b82528180611b4d60048201610459565b03915afa908115611f6c575f91611f3e575b5091611b8e6020611b78611b73600261161c565b610c28565b634f4608a290611b86610282565b93849261162d565b82528180611b9e60048201610459565b03915afa908115611f39575f91611f0b575b5092611bba615f99565b611bd6611bcf611bc8612022565b92856116ca565b829061172c565b94856020611beb611be68861175a565b611766565b6323b872dd90611c2f5f3393611c3a611c1b611c0630611772565b98611c1564e8d4a51000611781565b9061172c565b611c23610282565b9889978896879561162d565b8552600485016117de565b03925af18015611f0657611eda575b50611c8a6020611c60611c5b8861175a565b611766565b6370a0823190611c7f3392611c73610282565b9586948593849361162d565b83526004830161061a565b03915afa908115611ed5575f91611ea7575b50611cae611ca98761175a565b611766565b93602063dd62ed3e953390611cdd611cc530611772565b98611ce8611cd1610282565b9a8b958694859461162d565b845260048401611810565b03915afa918215611ea257602098611e0397611d94611df897611d64611dee95611d34611df399611dfe9d5f91611e74575b5093611d2e611d285f611836565b9161038b565b116118d1565b611d5d611d57611d5288611d4c64e8d4a51000611781565b9061172c565b61038b565b9161038b565b101561196d565b611d8d611d87611d8286611d7c64e8d4a51000611781565b9061172c565b61038b565b9161038b565b1015611a09565b611d9f338290616241565b33907f0f6798a560793a54c3bcfe86a93cde1e73087d944c0ea20544137d412139688591611dd7611dce610282565b92839283611a4c565b0390a1611de864e8d4a51000611781565b9061172c565b6116ca565b61172c565b9261175a565b611766565b611e265f63a9059cbb959395611e31611e1a610282565b9788968795869461162d565b845260048401611a4c565b03925af18015611e6f57611e43575b50565b611e639060203d8111611e68575b611e5b81836107f4565b8101906117c0565b611e40565b503d611e51565b611660565b6020611e9592503d8111611e9b575b611e8d81836107f4565b81019061167f565b5f611d1a565b503d611e83565b611660565b611ec8915060203d8111611ece575b611ec081836107f4565b81019061167f565b5f611c9c565b503d611eb6565b611660565b611efa9060203d8111611eff575b611ef281836107f4565b8101906117c0565b611c49565b503d611ee8565b611660565b611f2c915060203d8111611f32575b611f2481836107f4565b81019061167f565b5f611bb0565b503d611f1a565b611660565b611f5f915060203d8111611f65575b611f5781836107f4565b81019061167f565b5f611b5f565b503d611f4d565b611660565b611f92915060203d8111611f98575b611f8a81836107f4565b810190611642565b5f611b0f565b503d611f80565b611660565b611fc5915060203d8111611fcb575b611fbd81836107f4565b810190611642565b5f611abe565b503d611fb3565b611660565b611fe0906115e8565b565b5f90565b611fee611fe2565b50611ff76162bf565b90565b5f90565b90565b61200d61201291611603565b611ffe565b90565b61201f9054612001565b90565b61202a611ffa565b5061203e6002612038615d2e565b01612015565b90565b6120529061204d615e0f565b6125a6565b61205a615ebb565b565b60207f2030000000000000000000000000000000000000000000000000000000000000917f4275726e20616d6f756e74206d7573742062652067726561746572207468616e5f8201520152565b6120b660226040926102a3565b6120bf8161205c565b0190565b6120d89060208101905f8183039101526120a9565b90565b156120e257565b6120ea610282565b7f08c379a00000000000000000000000000000000000000000000000000000000081528061211a600482016120c3565b0390fd5b61213261212d61213792611833565b610bfd565b610343565b90565b6121439061211e565b90565b5f7f5472656173757279206e6f742073657400000000000000000000000000000000910152565b61217a60106020926102a3565b61218381612146565b0190565b61219c9060208101905f81830391015261216d565b90565b156121a657565b6121ae610282565b7f08c379a0000000000000000000000000000000000000000000000000000000008152806121de60048201612187565b0390fd5b5f7f496e73756666696369656e742042414c00000000000000000000000000000000910152565b61221660106020926102a3565b61221f816121e2565b0190565b6122389060208101905f818303910152612209565b90565b1561224257565b61224a610282565b7f08c379a00000000000000000000000000000000000000000000000000000000081528061227a60048201612223565b0390fd5b5f7f4665652063616c63756c6174696f6e206572726f720000000000000000000000910152565b6122b260156020926102a3565b6122bb8161227e565b0190565b6122d49060208101905f8183039101526122a5565b90565b156122de57565b6122e6610282565b7f08c379a000000000000000000000000000000000000000000000000000000000815280612316600482016122bf565b0390fd5b61232961232f9193929361038b565b9261038b565b820391821161233a57565b61169d565b600161234b910161038b565b90565b90565b5f7f496e76616c696420746f6b656e20616464726573730000000000000000000000910152565b61238560156020926102a3565b61238e81612351565b0190565b6123a79060208101905f818303910152612378565b90565b156123b157565b6123b9610282565b7f08c379a0000000000000000000000000000000000000000000000000000000008152806123e960048201612392565b0390fd5b5f7f546f74616c20737570706c792069732030000000000000000000000000000000910152565b61242160116020926102a3565b61242a816123ed565b0190565b6124439060208101905f818303910152612414565b90565b1561244d57565b612455610282565b7f08c379a0000000000000000000000000000000000000000000000000000000008152806124856004820161242e565b0390fd5b61249290610c00565b90565b61249e90612489565b90565b6124aa90610c1c565b90565b6124b68161072f565b036124bd57565b5f80fd5b905051906124ce826124ad565b565b906020828203126124e9576124e6915f016124c1565b90565b61028c565b6125026124fd6125079261072f565b610bfd565b61038b565b90565b5f7f53686172652063616c63756c6174696f6e206572726f72000000000000000000910152565b61253e60176020926102a3565b6125478161250a565b0190565b6125609060208101905f818303910152612531565b90565b1561256a57565b612572610282565b7f08c379a0000000000000000000000000000000000000000000000000000000008152806125a26004820161254b565b0390fd5b906125c3826125bd6125b75f611836565b9161038b565b116120db565b6125f060206125da6125d5600261161c565b610c28565b633b19e84a906125e8610282565b93849261162d565b8252818061260060048201610459565b03915afa80156129c957612699915f9161299b575b509261263c8461263561262f61262a5f61213a565b61035c565b9161035c565b141561219f565b612661612648336137b8565b61265a6126548461038b565b9161038b565b101561223b565b61269361266d826162dd565b9461268b8661268461267e8661038b565b9161038b565b11156122d7565b91859061231a565b90613aea565b506126a2611ffa565b5b806126c66126c06126bb6126b65f61234e565b616411565b61038b565b9161038b565b1015612951576126df6126d85f61234e565b8290616460565b90612705826126fe6126f86126f35f61213a565b61035c565b9161035c565b14156123aa565b61270d612022565b9161272a8361272461271e5f611836565b9161038b565b11612446565b612772602061274061273b8461175a565b611766565b6370a082319061276761275230611772565b9261275b610282565b9586948593849361162d565b83526004830161061a565b03915afa90811561294c575f9161291e575b5092836127996127935f611836565b9161038b565b1480156128fc575b6128f057906127d39160206127bd6127b884612495565b6124a1565b63313ce567906127cb610282565b95869261162d565b825281806127e360048201610459565b03915afa9182156128eb576128336128186128389361280f61283d966020985f916128be575b506124ee565b898c9192616608565b9661282c612826899261038b565b9161038b565b1115612563565b61175a565b611766565b9263a9059cbb936128625f33939661286d612856610282565b9889968795869461162d565b845260048401611a4c565b03925af19182156128b9576128889261288d575b505b61233f565b6126a3565b6128ad9060203d81116128b2575b6128a581836107f4565b8101906117c0565b612881565b503d61289b565b611660565b6128de9150893d81116128e4575b6128d681836107f4565b8101906124d0565b5f612809565b503d6128cc565b611660565b50506128889150612883565b508161291861291261290d30611772565b61035c565b9161035c565b146127a1565b61293f915060203d8111612945575b61293781836107f4565b81019061167f565b5f612784565b503d61292d565b611660565b509061295e3382906166c6565b33907fcc16f5dbb4873280815c1ee09dbd06736cffcc184412cf7a71a0fdb75d397ca59161299661298d610282565b92839283611a4c565b0390a1565b6129bc915060203d81116129c2575b6129b481836107f4565b810190611642565b5f612615565b503d6129aa565b611660565b6129d790612041565b565b91612a03926129e66115c2565b506129fb6129f2615d52565b82908491616785565b919091616850565b600190565b5f90565b612a1590610c00565b90565b612a2190612a0c565b90565b612a2d90610c1c565b90565b612a38612a08565b50612a666020612a50612a4b600261161c565b610c28565b63f5d2d99890612a5e610282565b93849261162d565b82528180612a7660048201610459565b03915afa918215612b3d57612aa0612a9b612ac7946020945f91612b10575b50612a18565b612a24565b612abc6327d54a92612ab0610282565b9586948593849361162d565b83526004830161061a565b03915afa908115612b0b575f91612add575b5090565b612afe915060203d8111612b04575b612af681836107f4565b810190611642565b5f612ad9565b503d612aec565b611660565b612b309150853d8111612b36575b612b2881836107f4565b810190611642565b5f612a95565b503d612b1e565b611660565b612b4a611ffa565b50612b53615f99565b90565b612b5f90610c00565b90565b612b6b90612b56565b90565b612b7790610c1c565b90565b612b86612b8b91611603565b610fbb565b90565b612b989054612b7a565b90565b90612bd390612ba8611ffa565b506020612bbd612bb8600261161c565b610c28565b63bb3ba04c90612bcb610282565b94859261162d565b82528180612be360048201610459565b03915afa8015612cb457612c04612c09916020945f91612c87575b50612b62565b612b6e565b612c3363b27b5e75612c3e612c1e6003612b8e565b96612c27610282565b9788968795869561162d565b8552600485016117de565b03915afa908115612c82575f91612c54575b5090565b612c75915060203d8111612c7b575b612c6d81836107f4565b81019061167f565b5f612c50565b503d612c63565b611660565b612ca79150853d8111612cad575b612c9f81836107f4565b810190611642565b5f612bfe565b503d612c95565b611660565b612cc290610c00565b90565b612cce90612cb9565b90565b612cda90610c1c565b90565b612d12612d1994612d08606094989795612cfe608086019a5f87019061060d565b602085019061060d565b60408301906104f5565b019061060d565b565b90959492612d6694612d55612d5f92612d4b608096612d4160a088019c5f89019061060d565b602087019061060d565b604085019061060d565b60608301906104f5565b019061060d565b565b5f7f4d75746920486f702053776170204661696c65642c20547279204275726e2829910152565b612d9b602080926102a3565b612da481612d68565b0190565b612dbd9060208101905f818303910152612d8f565b90565b15612dc757565b612dcf610282565b7f08c379a000000000000000000000000000000000000000000000000000000000815280612dff60048201612da8565b0390fd5b612e306020612e1a612e15600261161c565b610c28565b636c9c007890612e28610282565b93849261162d565b82528180612e4060048201610459565b03915afa9081156131a4575f91613176575b50612e806020612e6a612e65600261161c565b610c28565b6382755ebb90612e78610282565b93849261162d565b82528180612e9060048201610459565b03915afa908115613171575f91613143575b5090612eec6020612eba612eb58661175a565b611766565b6370a0823190612ee1612ecc30611772565b92612ed5610282565b9586948593849361162d565b83526004830161061a565b03915afa90811561313e575f91613110575b509283612f13612f0d5f611836565b9161038b565b11612f25612f208361175a565b611766565b90602063095ea7b3928690612f4d5f8a96612f58612f41610282565b9889968795869461162d565b845260048401611a4c565b03925af191821561310b57612f73926130df575b50156103de565b6130d957612f88612f8384612cc5565b612cd1565b6020632d6bc8ea918390612fc35f612fa06003612b8e565b95612fce8b612fae30611772565b90612fb7610282565b998a988997889661162d565b865260048601612cdd565b03925af190816130ad575b50155f146130a7576001612fed5750505050565b6130395f613004612fff602096612cc5565b612cd1565b92613044635efaaebb91959761301a6003612b8e565b9061302430611772565b9161302d610282565b9a8b998a98899761162d565b875260048701612d1b565b03925af180156130a257613072915f91613074575b5061306c6130665f611836565b9161038b565b11612dc0565b565b613095915060203d811161309b575b61308d81836107f4565b81019061167f565b5f613059565b503d613083565b611660565b50505050565b6130cd9060203d81116130d2575b6130c581836107f4565b81019061167f565b612fd9565b503d6130bb565b50505050565b6130ff9060203d8111613104575b6130f781836107f4565b8101906117c0565b612f6c565b503d6130ed565b611660565b613131915060203d8111613137575b61312981836107f4565b81019061167f565b5f612efe565b503d61311f565b611660565b613164915060203d811161316a575b61315c81836107f4565b810190611642565b5f612ea2565b503d613152565b611660565b613197915060203d811161319d575b61318f81836107f4565b810190611642565b5f612e52565b503d613185565b611660565b5f90565b90565b6131c46131bf6131c9926131ad565b610bfd565b61072f565b90565b6131d46131a9565b506131df60126131b0565b90565b6131ea615e0f565b6131f26131fc565b6131fa615ebb565b565b61320d6132085f61234e565b616411565b6132165f611836565b5b8061322a6132248461038b565b9161038b565b101561328257613277906132476132405f61234e565b8290616460565b8061326361325d6132586003612b8e565b61035c565b9161035c565b1461327c5761327190612e03565b5b61233f565b613217565b50613272565b5050565b61328e6131e2565b565b906132a29161329d616939565b6132a4565b565b906132b7916132b281616a0b565b616a7b565b565b906132c391613290565b565b5f90565b6132da906132d5616bb9565b61332d565b90565b90565b5f1b90565b6132f96132f46132fe926132dd565b6132e0565b610928565b90565b61332a7f360894a13ba1a3210667c828492db98dca3e2076cc3735a920a3ca505d382bbc6132e5565b90565b50613336613301565b90565b6133496133446132c5565b6132c9565b90565b67ffffffffffffffff81116133645760208091020190565b6107c7565b9061337b6133768361334c565b61081d565b918252565b369037565b906133aa61339283613369565b926020806133a0869361334c565b9201910390613380565b565b6133b590610c00565b90565b6133c1906133ac565b90565b6133cd90610c1c565b90565b5f9103126133da57565b61028c565b5190565b60209181520190565b60200190565b6133fb9061038b565b9052565b9061340c816020936133f2565b0190565b60200190565b9061343361342d613426846133df565b80936133e3565b926133ec565b905f5b8181106134435750505090565b90919261345c61345660019286516133ff565b94613410565b9101919091613436565b90565b5061347890602081019061037c565b90565b60200190565b9161348f8261349592610db3565b92613466565b90815f905b8282106134a8575050505090565b909192936134ca6134c46001926134bf8886613469565b610dcf565b9561347b565b92019092919261349a565b5f80fd5b9037565b9091826134e9916133e3565b917f07ffffffffffffffffffffffffffffffffffffffffffffffffffffffffffffff8111613526578291602061352292029384916134d9565b0190565b6134d5565b9461357e61359d95613589926135706135939660c09b9f9e9c96986135616135a49f9a8d9060e08201915f818403910152613416565b918c6020818503910152613481565b9189830360408b01526134dd565b9a60608701906104f5565b608085019061060d565b60a083019061060d565b019061060d565b565b9490965094919092946135dc60206135c66135c1600261161c565b610c28565b631bf01e9b906135d4610282565b93849261162d565b825281806135ec60048201610459565b03915afa90811561375e575f91613730575b509361362d6020613617613612600261161c565b610c28565b63cff49d6890613625610282565b93849261162d565b8252818061363d60048201610459565b03915afa90811561372b575f916136fd575b509161367361366e6136686136635f611836565b613385565b946133b8565b6133c4565b9563f0bf771493979992949598919091873b156136f8575f996136aa978b976136b59661369e610282565b9e8f9d8e9c8d9b61162d565b8b5260048b0161352b565b03925af180156136f3576136c7575b50565b6136e6905f3d81116136ec575b6136de81836107f4565b8101906133d0565b5f6136c4565b503d6136d4565b611660565b611629565b61371e915060203d8111613724575b61371681836107f4565b810190611642565b5f61364f565b503d61370c565b611660565b613751915060203d8111613757575b61374981836107f4565b810190611642565b5f6135fe565b503d61373f565b611660565b6137749061376f616c37565b613776565b565b613788906137835f61234e565b616ce9565b50565b61379490613763565b565b61379f90610c1c565b90565b906137ac90613796565b5f5260205260405f2090565b6137d76137dc916137c7611ffa565b505f6137d1615d2e565b016137a2565b612015565b90565b6137e7616c37565b6137ef6137f1565b565b6138026137fd5f61213a565b616d23565b565b61380c6137df565b565b6138209061381a611ffa565b50616d8f565b90565b61382b612a08565b5061383e5f613838616e93565b01612b8e565b90565b60401c90565b60ff1690565b61385961385e91613841565b613847565b90565b61386b905461384d565b90565b67ffffffffffffffff1690565b61388761388c91611603565b61386e565b90565b613899905461387b565b90565b906138af67ffffffffffffffff916132e0565b9181191691161790565b6138cd6138c86138d292610491565b610bfd565b610491565b90565b90565b906138ed6138e86138f4926138b9565b6138d5565b825461389c565b9055565b60401b90565b9061391268ff0000000000000000916138f8565b9181191691161790565b613925906103de565b90565b90565b9061394061393b6139479261391c565b613928565b82546138fe565b9055565b908091613956616eb7565b906139625f8301613861565b8015613a13575b6139d75761399c9261399391613981865f86016138d8565b61398e60015f860161392b565b613aa8565b5f80910161392b565b6139d27fc7f505b2f371ae2175ee4913f4499e1f2633a7b5936321eed1cdaeb6115181d2916139c9610282565b918291826104ab565b0390a1565b6139df610282565b7ff92ee8a900000000000000000000000000000000000000000000000000000000815280613a0f60048201610459565b0390fd5b50613a1f5f830161388f565b613a31613a2b86610491565b91610491565b1015613969565b613a4190610c00565b90565b613a4d90613a38565b90565b90613a6f73ffffffffffffffffffffffffffffffffffffffff916132e0565b9181191691161790565b613a8290613a38565b90565b90565b90613a9d613a98613aa492613a79565b613a85565b8254613a50565b9055565b613abd9150613ab690613a44565b6002613a88565b565b90613ac99161394b565b565b613ad361146e565b50613ae76004613ae1615d2e565b01611597565b90565b613b0791613af66115c2565b50613aff615d52565b919091616850565b600190565b606090565b613b19613b0c565b50613b2b613b265f61234e565b616edb565b90565b613b5c613b7091613b3d611ffa565b50613b57613b49615f99565b613b51612022565b926116ca565b61172c565b613b6a64e8d4a51000611781565b9061172c565b90565b613b87613b82613b8c92611833565b610bfd565b610491565b90565b90565b613ba6613ba1613bab92613b8f565b610bfd565b610491565b90565b613bb790610c1c565b90565b613bc390613b92565b9052565b9190613bda905f60208501940190613bba565b565b613be4616eb7565b90613bf9613bf35f8401613861565b156103de565b90613c055f840161388f565b80613c18613c125f613b73565b91610491565b1480613d52575b90613c33613c2d6001613b92565b91610491565b1480613d2a575b613c459091156103de565b9081613d19575b50613cdd57613c7590613c6a613c626001613b92565b5f86016138d8565b82613ccb575b613e31565b613c7d575b50565b613c8a905f80910161392b565b6001613cc27fc7f505b2f371ae2175ee4913f4499e1f2633a7b5936321eed1cdaeb6115181d291613cb9610282565b91829182613bc7565b0390a15f613c7a565b613cd860015f860161392b565b613c70565b613ce5610282565b7ff92ee8a900000000000000000000000000000000000000000000000000000000815280613d1560048201610459565b0390fd5b613d249150156103de565b5f613c4c565b50613c45613d3730613bae565b3b613d4a613d445f611836565b9161038b565b149050613c3a565b5082613c1f565b5f7f42616c756e690000000000000000000000000000000000000000000000000000910152565b613d8a6006610edb565b90613d9760208301613d59565b565b613da1613d80565b90565b5f7f42414c554e490000000000000000000000000000000000000000000000000000910152565b613dd56006610edb565b90613de260208301613da4565b565b613dec613dcb565b90565b90565b613e06613e01613e0b92613def565b610bfd565b61038b565b90565b90565b90613e26613e21613e2d92613796565b613e0e565b8254613a50565b9055565b613e92613e9991613e51613e43613d99565b613e4b613de4565b90616f23565b613e5a33616f4d565b613e62616f74565b613e6a616f88565b613e8d613e7630611772565b613e87670de0b6b3a7640000613df2565b90616241565b613a44565b6002613a88565b613ec66020613eb0613eab600261161c565b610c28565b631bf01e9b90613ebe610282565b93849261162d565b82528180613ed660048201610459565b03915afa8015613f2357613ef3915f91613ef5575b506003613e11565b565b613f16915060203d8111613f1c575b613f0e81836107f4565b810190611642565b5f613eeb565b503d613f04565b611660565b613f3190613bdc565b565b613f4490613f3f616c37565b613f46565b565b613f5890613f535f61234e565b616f92565b50565b613f6490613f33565b565b90613f7090613796565b5f5260205260405f2090565b613faa91613fa0613fa592613f8f611ffa565b506001613f9a615d2e565b01613f66565b6137a2565b612015565b90565b613fbe90613fb9616c37565b613fc0565b565b613fcc613fd391613a44565b6002613a88565b565b613fde90613fad565b565b613fe8611ffa565b50614002613ffd670de0b6b3a7640000613df2565b616d8f565b90565b9061401791614012615e0f565b614433565b61401f615ebb565b565b5f7f4167656e7420666163746f7279206e6f74207365740000000000000000000000910152565b61405560156020926102a3565b61405e81614021565b0190565b6140779060208101905f818303910152614048565b90565b1561408157565b614089610282565b7f08c379a0000000000000000000000000000000000000000000000000000000008152806140b960048201614062565b0390fd5b67ffffffffffffffff81116140d55760208091020190565b6107c7565b906140ec6140e7836140bd565b61081d565b918252565b369037565b9061411b614103836140da565b9260208061411186936140bd565b92019103906140f1565b565b7f4e487b71000000000000000000000000000000000000000000000000000000005f52603260045260245ffd5b9061415482610daf565b811015614165576020809102010190565b61411d565b614174905161035c565b90565b5190565b9061418582614177565b811015614196576020809102010190565b61411d565b906141a5906103de565b9052565b906141b3826133df565b8110156141c4576020809102010190565b61411d565b906141d39061038b565b9052565b6141e090610c00565b90565b6141ec906141d7565b90565b6141f890610c1c565b90565b5190565b60209181520190565b60200190565b5190565b60209181520190565b61423a614243602093614248936142318161420e565b93848093614212565b958691016102ac565b6102b7565b0190565b61428991604060608201926142675f8201515f850190610dc2565b614279602082015160208501906133f2565b015190604081840391015261421b565b90565b906142969161424c565b90565b60200190565b906142b36142ac836141fb565b80926141ff565b90816142c460208302840194614208565b925f915b8383106142d757505050505090565b909192939460206142f96142f38385600195038752895161428c565b97614299565b93019301919392906142c8565b909161432061432e9360408401908482035f86015261429f565b916020818403910152610de6565b90565b61433a90610c00565b90565b61434690614331565b90565b61435290610c1c565b90565b90565b62ffffff1690565b61437461436f61437992614355565b610bfd565b614358565b90565b61438590614360565b9052565b6040906143b26143b994969593966143a860608401985f85019061060d565b602083019061060d565b019061437c565b565b90565b6143d26143cd6143d7926143bb565b610bfd565b614358565b90565b6143e3906143be565b9052565b604090614410614417949695939661440660608401985f85019061060d565b602083019061060d565b01906143da565b565b61442390516103de565b90565b614430905161038b565b90565b9190614462602061444c614447600261161c565b610c28565b63f5d2d9989061445a610282565b93849261162d565b8252818061447260048201610459565b03915afa908115614fee575f91614fc0575b506144b2602061449c614497600261161c565b610c28565b633e6dfa36906144aa610282565b93849261162d565b825281806144c260048201610459565b03915afa908115614fbb575f91614f8d575b509061450360206144ed6144e8600261161c565b610c28565b636c9c0078906144fb610282565b93849261162d565b8252818061451360048201610459565b03915afa908115614f88575f91614f5a575b5091614554602061453e614539600261161c565b610c28565b631bf01e9b9061454c610282565b93849261162d565b8252818061456460048201610459565b03915afa908115614f55576145b46145af6145df936020935f91614f28575b50956145aa816145a361459d6145985f61213a565b61035c565b9161035c565b141561407a565b612a18565b612a24565b639b76a5cd906145d45f33936145c8610282565b9687958694859361162d565b83526004830161061a565b03925af1908115614f23575f91614ef5575b50946146046145ff86610daf565b6140f6565b9361461661461187610daf565b613385565b976146205f611836565b5b8061463c6146366146318b610daf565b61038b565b9161038b565b101561474b576146e19061468a6146786146728b61466d6146676146625f93889061414a565b61416a565b9161234e565b616fcc565b156103de565b6146858a9184909261417b565b61419b565b60206146af6146aa6146a56146a08d869061414a565b61416a565b61175a565b611766565b6370a08231906146d66146c130611772565b926146ca610282565b9687948593849361162d565b83526004830161061a565b03915afa918215614746576147139261470e915f91614718575b506147098d918490926141a9565b6141c9565b61233f565b614621565b614739915060203d811161473f575b61473181836107f4565b81019061167f565b5f6146fb565b503d614727565b611660565b509091929497939596614760614765916141e3565b6141ef565b9063eedc3c50908892803b15614ef0576147925f809461479d614786610282565b9788968795869461162d565b845260048401614306565b03925af18015614eeb57614ebf575b506147b65f611836565b5b806147d26147cc6147c78a610daf565b61038b565b9161038b565b1015614eb5576147eb6147e688839061414a565b61416a565b9061483460206148026147fd8561175a565b611766565b6370a082319061482961481430611772565b9261481d610282565b9586948593849361162d565b83526004830161061a565b03915afa908115614eb0575f91614e82575b50916148596148548861433d565b614349565b6020631698ee82918390614882889461488d610bb8614876610282565b9788968795869561162d565b855260048501614389565b03915afa908115614e7d575f91614e4f575b506148b16148ac8961433d565b614349565b6020631698ee829184906148da89946148e56101f46148ce610282565b9788968795869561162d565b8552600485016143e7565b03915afa908115614e4a575f91614e1c575b509061490a6149058a61433d565b614349565b60208b631698ee829261493387929461493e6101f4614927610282565b9788968795869561162d565b8552600485016143e7565b03915afa908115614e17575f91614de9575b509161496361495e8b61433d565b614349565b60208c631698ee829261498c889294614997610bb8614980610282565b9788968795869561162d565b855260048501614389565b03915afa908115614de4575f91614db6575b50916149c56149bf6149ba5f61213a565b61035c565b9161035c565b1415908115614d92575b50908115614d6e575b50908115614d4a575b50926149f66149f18c859061417b565b614419565b80614d43575b614d2a575b614a28614a2182614a1b614a168b88906141a9565b614426565b9061231a565b94156103de565b614c9757614a596020614a43614a3e600261161c565b610c28565b633b19e84a90614a51610282565b93849261162d565b82528180614a6960048201610459565b03915afa908115614c92575f91614c64575b5093614aaa6020614a94614a8f600261161c565b610c28565b6385462d6f90614aa2610282565b93849261162d565b82528180614aba60048201610459565b03915afa908115614c5f575f91614c31575b5090614afb6020614ae5614ae0600261161c565b610c28565b634f4608a290614af3610282565b93849261162d565b82528180614b0b60048201610459565b03915afa908115614c2c575f91614bfe575b5092614b43614b3d614b38614b338d8a906141a9565b614426565b61038b565b9161038b565b11614b5c575b50505050614b57915061233f565b6147b7565b614b7860209493614b73614b8394614b7e946116ca565b61172c565b9261175a565b611766565b614ba65f63a9059cbb969396614bb1614b9a610282565b9889968795869461162d565b845260048401611a4c565b03925af1918215614bf957614b5792614bcd575b808080614b49565b614bed9060203d8111614bf2575b614be581836107f4565b8101906117c0565b614bc5565b503d614bdb565b611660565b614c1f915060203d8111614c25575b614c1781836107f4565b81019061167f565b5f614b1d565b503d614c0d565b611660565b614c52915060203d8111614c58575b614c4a81836107f4565b81019061167f565b5f614acc565b503d614c40565b611660565b614c85915060203d8111614c8b575b614c7d81836107f4565b810190611642565b5f614a7b565b503d614c73565b611660565b509398505095505060209350614cb79250614cb2915061175a565b611766565b9163a9059cbb92614cdc5f339395614ce7614cd0610282565b9788968795869461162d565b845260048401611a4c565b03925af18015614d2557614cf9575b50565b614d199060203d8111614d1e575b614d1181836107f4565b8101906117c0565b614cf6565b503d614d07565b611660565b614d3d5f614d38849161234e565b616f92565b50614a01565b50836149fc565b9050614d66614d60614d5b5f61213a565b61035c565b9161035c565b14155f6149e1565b9050614d8a614d84614d7f5f61213a565b61035c565b9161035c565b14155f6149d8565b9050614dae614da8614da35f61213a565b61035c565b9161035c565b14155f6149cf565b614dd7915060203d8111614ddd575b614dcf81836107f4565b810190611642565b5f6149a9565b503d614dc5565b611660565b614e0a915060203d8111614e10575b614e0281836107f4565b810190611642565b5f614950565b503d614df8565b611660565b614e3d915060203d8111614e43575b614e3581836107f4565b810190611642565b5f6148f7565b503d614e2b565b611660565b614e70915060203d8111614e76575b614e6881836107f4565b810190611642565b5f61489f565b503d614e5e565b611660565b614ea3915060203d8111614ea9575b614e9b81836107f4565b81019061167f565b5f614846565b503d614e91565b611660565b5050945050505050565b614ede905f3d8111614ee4575b614ed681836107f4565b8101906133d0565b5f6147ac565b503d614ecc565b611660565b611629565b614f16915060203d8111614f1c575b614f0e81836107f4565b810190611642565b5f6145f1565b503d614f04565b611660565b614f489150843d8111614f4e575b614f4081836107f4565b810190611642565b5f614583565b503d614f36565b611660565b614f7b915060203d8111614f81575b614f7381836107f4565b810190611642565b5f614525565b503d614f69565b611660565b614fae915060203d8111614fb4575b614fa681836107f4565b810190611642565b5f6144d4565b503d614f9c565b611660565b614fe1915060203d8111614fe7575b614fd981836107f4565b810190611642565b5f614484565b503d614fcf565b611660565b90614ffd91614005565b565b6150109061500b616c37565b615012565b565b8061502d6150276150225f61213a565b61035c565b9161035c565b1461503d5761503b90616d23565b565b6150806150495f61213a565b615051610282565b9182917f1e4fbdf70000000000000000000000000000000000000000000000000000000083526004830161061a565b0390fd5b61508d90614fff565b565b6150a09061509b615e0f565b6153b6565b6150a8615ebb565b565b5f7f556e6973776170466163746f7279206e6f742073657400000000000000000000910152565b6150de60166020926102a3565b6150e7816150aa565b0190565b6151009060208101905f8183039101526150d1565b90565b1561510a57565b615112610282565b7f08c379a000000000000000000000000000000000000000000000000000000000815280615142600482016150eb565b0390fd5b5f7f574e4154495645206e6f74207365740000000000000000000000000000000000910152565b61517a600f6020926102a3565b61518381615146565b0190565b61519c9060208101905f81830391015261516d565b90565b156151a657565b6151ae610282565b7f08c379a0000000000000000000000000000000000000000000000000000000008152806151de60048201615187565b0390fd5b5f7f42616c756e6953776170706572206e6f74207365740000000000000000000000910152565b61521660156020926102a3565b61521f816151e2565b0190565b6152389060208101905f818303910152615209565b90565b1561524257565b61524a610282565b7f08c379a00000000000000000000000000000000000000000000000000000000081528061527a60048201615223565b0390fd5b5f7f53776170204661696c6564000000000000000000000000000000000000000000910152565b6152b2600b6020926102a3565b6152bb8161527e565b0190565b6152d49060208101905f8183039101526152a5565b90565b156152de57565b6152e6610282565b7f08c379a000000000000000000000000000000000000000000000000000000000815280615316600482016152bf565b0390fd5b5f7f4d756c7469486f7053776170204661696c656400000000000000000000000000910152565b61534e60136020926102a3565b6153578161531a565b0190565b6153709060208101905f818303910152615341565b90565b1561537a57565b615382610282565b7f08c379a0000000000000000000000000000000000000000000000000000000008152806153b26004820161535b565b0390fd5b6153d2816153cc6153c65f611836565b9161038b565b116120db565b6153ff60206153e96153e4600261161c565b610c28565b633e6dfa36906153f7610282565b93849261162d565b8252818061540f60048201610459565b03915afa8015615d0257615446915f91615cd4575b5061543f6154396154345f61213a565b61035c565b9161035c565b1415615103565b615473602061545d615458600261161c565b610c28565b633b19e84a9061546b610282565b93849261162d565b8252818061548360048201610459565b03915afa908115615ccf575f91615ca1575b506154bb816154b46154ae6154a95f61213a565b61035c565b9161035c565b141561219f565b6154e860206154d26154cd600261161c565b610c28565b636c9c0078906154e0610282565b93849261162d565b825281806154f860048201610459565b03915afa8015615c9c5761556b915f91615c6e575b50916155348361552d6155276155225f61213a565b61035c565b9161035c565b141561519f565b615565615540856162dd565b9461555e866155576155518461038b565b9161038b565b11156122d7565b859061231a565b90613aea565b50615574611ffa565b5b8061559861559261558d6155885f61234e565b616411565b61038b565b9161038b565b1015615c24576155b16155aa5f61234e565b8290616460565b6155d6816155cf6155c96155c45f61213a565b61035c565b9161035c565b14156123aa565b6155de612022565b906155fb826155f56155ef5f611836565b9161038b565b11612446565b615643602061561161560c8461175a565b611766565b6370a082319061563861562330611772565b9261562c610282565b9586948593849361162d565b83526004830161061a565b03915afa908115615c1f575f91615bf1575b50918261566a6156645f611836565b9161038b565b148015615bcf575b615bc3576156a390602061568d61568885612495565b6124a1565b63313ce5679061569b610282565b94859261162d565b825281806156b360048201610459565b03915afa908115615bbe576156d66156df926156fa945f91615b90575b506124ee565b85899192616608565b926156f36156ed859261038b565b9161038b565b1115612563565b8061571661571061570b6003612b8e565b61035c565b9161035c565b14615af757615748602061573261572d600261161c565b610c28565b6382755ebb90615740610282565b93849261162d565b8252818061575860048201610459565b03915afa908115615af2575f91615ac4575b506157908161578961578361577e5f61213a565b61035c565b9161035c565b141561523b565b6157a161579c8361175a565b611766565b602063095ea7b39183906157c85f88956157d36157bc610282565b9788968795869461162d565b845260048401611a4c565b03925af18015615abf57615a93575b506157f46157ef82612cc5565b612cd1565b6020632d6bc8ea9184906158275f61580c6003612b8e565b956158328a339061581b610282565b998a988997889661162d565b865260048601612cdd565b03925af180915f92615a63575b50155f146159ab57506001615862575b50505061585d905b5b61233f565b615575565b90615876615871602093612cc5565b612cd1565b6158a55f635efaaebb6158b0899761588e6003612b8e565b903391615899610282565b9a8b998a98899761162d565b875260048701612d1b565b03925af19081156159a6575f91615978575b50906158e0826158da6158d45f611836565b9161038b565b11615373565b60206158fc6158f76158f26003612b8e565b61175a565b611766565b9263a9059cbb936159215f33939661592c615915610282565b9889968795869461162d565b845260048401611a4c565b03925af19182156159735761585d92615947575b819261584f565b6159679060203d811161596c575b61595f81836107f4565b8101906117c0565b615940565b503d615955565b611660565b615999915060203d811161599f575b61599181836107f4565b81019061167f565b5f6158c2565b503d615987565b611660565b92505050906159cc826159c66159c05f611836565b9161038b565b116152d7565b60206159e86159e36159de6003612b8e565b61175a565b611766565b9263a9059cbb93615a0d5f339396615a18615a01610282565b9889968795869461162d565b845260048401611a4c565b03925af1918215615a5e5761585d92615a32575b50615857565b615a529060203d8111615a57575b615a4a81836107f4565b8101906117c0565b615a2c565b503d615a40565b611660565b615a8591925060203d8111615a8c575b615a7d81836107f4565b81019061167f565b905f61583f565b503d615a73565b615ab39060203d8111615ab8575b615aab81836107f4565b8101906117c0565b6157e2565b503d615aa1565b611660565b615ae5915060203d8111615aeb575b615add81836107f4565b810190611642565b5f61576a565b503d615ad3565b611660565b50906020615b15615b10615b0b6003612b8e565b61175a565b611766565b9263a9059cbb93615b3a5f339396615b45615b2e610282565b9889968795869461162d565b845260048401611a4c565b03925af1918215615b8b5761585d92615b5f575b50615858565b615b7f9060203d8111615b84575b615b7781836107f4565b8101906117c0565b615b59565b503d615b6d565b611660565b615bb1915060203d8111615bb7575b615ba981836107f4565b8101906124d0565b5f6156d0565b503d615b9f565b611660565b50505061585d90615858565b5081615beb615be5615be030611772565b61035c565b9161035c565b14615672565b615c12915060203d8111615c18575b615c0a81836107f4565b81019061167f565b5f615655565b503d615c00565b611660565b5050615c313382906166c6565b33907fcc16f5dbb4873280815c1ee09dbd06736cffcc184412cf7a71a0fdb75d397ca591615c69615c60610282565b92839283611a4c565b0390a1565b615c8f915060203d8111615c95575b615c8781836107f4565b810190611642565b5f61550d565b503d615c7d565b611660565b615cc2915060203d8111615cc8575b615cba81836107f4565b810190611642565b5f615495565b503d615cb0565b611660565b615cf5915060203d8111615cfb575b615ced81836107f4565b810190611642565b5f615424565b503d615ce3565b611660565b615d109061508f565b565b91615d2b939192615d21611ffa565b5092909192616608565b90565b7f52c63247e1f47db19d5ce0460030c497f067ca4cebf71ba98eeadabe20bace0090565b615d5a612a08565b503390565b91615d6d9291600192617006565b565b90565b615d86615d81615d8b92615d6f565b610bfd565b61038b565b90565b615d986002615d72565b90565b90615dc67fffffffffffffffffffffffffffffffffffffffffffffffffffffffffffffffff916132e0565b9181191691161790565b615de4615ddf615de99261038b565b610bfd565b61038b565b90565b90565b90615e04615dff615e0b92615dd0565b615dec565b8254615d9b565b9055565b615e17617160565b615e225f8201612015565b615e3b615e35615e30615d8e565b61038b565b9161038b565b14615e5657615e54905f615e4d615d8e565b9101615def565b565b615e5e610282565b7f3ee5aeb500000000000000000000000000000000000000000000000000000000815280615e8e60048201610459565b0390fd5b615ea6615ea1615eab92613b8f565b610bfd565b61038b565b90565b615eb86001615e92565b90565b615ed6615ec6617160565b5f615ecf615eae565b9101615def565b565b615ee7615eed9193929361038b565b9261038b565b8201809211615ef857565b61169d565b5f7f546f6b656e2076616c756174696f6e206973207a65726f000000000000000000910152565b615f3160176020926102a3565b615f3a81615efd565b0190565b615f539060208101905f818303910152615f24565b90565b15615f5d57565b615f65610282565b7f08c379a000000000000000000000000000000000000000000000000000000000815280615f9560048201615f3e565b0390fd5b615fa1611ffa565b50615fab5f611836565b90615fb55f611836565b915b82615fda615fd4615fcf615fca5f61234e565b616411565b61038b565b9161038b565b101561623b57615ff3615fec5f61234e565b8490616460565b61603b60206160096160048461175a565b611766565b6370a082319061603061601b30611772565b92616024610282565b9586948593849361162d565b83526004830161061a565b03915afa908115616236575f91616208575b50908161606261605c5f611836565b9161038b565b146161fc578061608361607d6160786003612b8e565b61035c565b9161035c565b146161d0576160b69060206160a061609b600261161c565b610c28565b63bb3ba04c906160ae610282565b94859261162d565b825281806160c660048201610459565b03915afa80156161cb576160e76160ec916020945f9161619e575b50612b62565b612b6e565b61611663b27b5e756161216161016003612b8e565b9661610a610282565b9788968795869561162d565b8552600485016117de565b03915afa918215616199576161659261615e925f9161616b575b506161588161615261614c5f611836565b9161038b565b11615f56565b90615ed8565b925b61233f565b91615fb7565b61618c915060203d8111616192575b61618481836107f4565b81019061167f565b5f61613b565b503d61617a565b611660565b6161be9150853d81116161c4575b6161b681836107f4565b810190611642565b5f6160e1565b503d6161ac565b611660565b50616165916161f06161f6926161ea64e8d4a51000611781565b906116ca565b90615ed8565b92616160565b50509161616590616160565b616229915060203d811161622f575b61622181836107f4565b81019061167f565b5f61604d565b503d616217565b611660565b90915090565b8061625c6162566162515f61213a565b61035c565b9161035c565b14616278576162769161626e5f61213a565b919091617192565b565b6162bb6162845f61213a565b61628c610282565b9182917fec442f050000000000000000000000000000000000000000000000000000000083526004830161061a565b0390fd5b6162c7611fe2565b506162da5f6162d4616eb7565b0161388f565b90565b616314906162e9611ffa565b5060206162fe6162f9600261161c565b610c28565b6385462d6f9061630c610282565b94859261162d565b8252818061632460048201610459565b03915afa801561640957616364925f916163db575b50602061634e616349600261161c565b610c28565b634f4608a29061635c610282565b95869261162d565b8252818061637460048201610459565b03915afa9081156163d65761639a6163a0926163a5955f916163a8575b5093918461231a565b906116ca565b61172c565b90565b6163c9915060203d81116163cf575b6163c181836107f4565b81019061167f565b5f616391565b503d6163b7565b611660565b6163fc915060203d8111616402575b6163f481836107f4565b81019061167f565b5f616339565b503d6163ea565b611660565b90565b6164285f61642d92616421611ffa565b500161640e565b61733c565b90565b61643c61644191611603565b615dd0565b90565b61645861645361645d9261038b565b610bfd565b610343565b90565b61648b616486616495936164815f6164909561647a612a08565b500161640e565b6173ad565b616430565b616444565b610c1c565b90565b5f7f546f74616c20737570706c792063616e6e6f74206265207a65726f0000000000910152565b6164cc601b6020926102a3565b6164d581616498565b0190565b6164ee9060208101905f8183039101526164bf565b90565b156164f857565b616500610282565b7f08c379a000000000000000000000000000000000000000000000000000000000815280616530600482016164d9565b0390fd5b61654861654361654d926131ad565b610bfd565b61038b565b90565b5f7f546f6b656e20646563696d616c732073686f756c64206265203c3d2031380000910152565b616584601e6020926102a3565b61658d81616550565b0190565b6165a69060208101905f818303910152616577565b90565b156165b057565b6165b8610282565b7f08c379a0000000000000000000000000000000000000000000000000000000008152806165e860048201616591565b0390fd5b6165f59061038b565b604d811161660357600a0a90565b61169d565b906166b7916166bc94616619611ffa565b506166368261663061662a5f611836565b9161038b565b116164f1565b6166548161664d6166476012616534565b9161038b565b11156165a9565b61665c611ffa565b50616665611ffa565b5061668261667d60126166788491616534565b61231a565b6165ec565b906166966166906012616534565b9161038b565b105f146166bf576166ab6166b192829061172c565b9461172c565b5b6116ca565b61172c565b90565b50926166b2565b90816166e26166dc6166d75f61213a565b61035c565b9161035c565b146166fe576166fc91906166f55f61213a565b9091617192565b565b61674161670a5f61213a565b616712610282565b9182917f96c6fd1e0000000000000000000000000000000000000000000000000000000083526004830161061a565b0390fd5b60409061676e616775949695939661676460608401985f85019061060d565b60208301906104f5565b01906104f5565b565b90616782910361038b565b90565b929192616793818390613f7c565b90816167c76167c17fffffffffffffffffffffffffffffffffffffffffffffffffffffffffffffffff61038b565b9161038b565b036167d4575b5050509050565b816167e76167e18761038b565b9161038b565b1061680d5761680493946167fc919392616777565b905f92617006565b805f80806167cd565b5061684c8492919261681d610282565b9384937ffb8f41b200000000000000000000000000000000000000000000000000000000855260048501616745565b0390fd5b918261686c6168666168615f61213a565b61035c565b9161035c565b146168e6578161688c6168866168815f61213a565b61035c565b9161035c565b1461689f5761689d92919091617192565b565b6168e26168ab5f61213a565b6168b3610282565b9182917fec442f050000000000000000000000000000000000000000000000000000000083526004830161061a565b0390fd5b6169296168f25f61213a565b6168fa610282565b9182917f96c6fd1e0000000000000000000000000000000000000000000000000000000083526004830161061a565b0390fd5b61693690610c1c565b90565b6169423061692d565b61697461696e7f000000000000000000000000000000000000000000000000000000000000000061035c565b9161035c565b1480156169be575b61698257565b61698a610282565b7fe07c8dba000000000000000000000000000000000000000000000000000000008152806169ba60048201610459565b0390fd5b506169c76173ce565b6169f96169f37f000000000000000000000000000000000000000000000000000000000000000061035c565b9161035c565b141561697c565b50616a09616c37565b565b616a1490616a00565b565b616a1f90610c00565b90565b616a2b90616a16565b90565b616a3790610c1c565b90565b616a4381610928565b03616a4a57565b5f80fd5b90505190616a5b82616a3a565b565b90602082820312616a7657616a73915f01616a4e565b90565b61028c565b9190616aa96020616a93616a8e86616a22565b616a2e565b6352d1902d90616aa1610282565b93849261162d565b82528180616ab960048201610459565b03915afa80915f92616b89575b50155f14616b1a575050906001616adb57505b565b616b1690616ae7610282565b9182917f4c9c8ce30000000000000000000000000000000000000000000000000000000083526004830161061a565b0390fd5b9283616b35616b2f616b2a613301565b610928565b91610928565b03616b4a57616b459293506173f4565b616ad9565b616b8584616b56610282565b9182917faa1d49a400000000000000000000000000000000000000000000000000000000835260048301610938565b0390fd5b616bab91925060203d8111616bb2575b616ba381836107f4565b810190616a5d565b905f616ac6565b503d616b99565b616bc23061692d565b616bf4616bee7f000000000000000000000000000000000000000000000000000000000000000061035c565b9161035c565b03616bfb57565b616c03610282565b7fe07c8dba00000000000000000000000000000000000000000000000000000000815280616c3360048201610459565b0390fd5b616c3f613823565b616c58616c52616c4d615d52565b61035c565b9161035c565b03616c5f57565b616ca1616c6a615d52565b616c72610282565b9182917f118cdaa70000000000000000000000000000000000000000000000000000000083526004830161061a565b0390fd5b616cae90610c00565b90565b616cc5616cc0616cca92610343565b610bfd565b61038b565b90565b616ce1616cdc616ce69261038b565b6132e0565b610928565b90565b90616d1b616d15616d10616d0b5f616d2096616d036115c2565b500194616ca5565b616cb1565b616ccd565b9161640e565b6175f3565b90565b616d2b616e93565b616d43616d395f8301612b8e565b915f849101613e11565b90616d77616d717f8be0079c531659141344cd1fd0a4f28419497f9722a3daafe3b4186f6b6457e093613796565b91613796565b91616d80610282565b80616d8a81610459565b0390a3565b616dce90616d9b611ffa565b506020616db8616db3616dae6003612b8e565b612495565b6124a1565b63313ce56790616dc6610282565b94859261162d565b82528180616dde60048201610459565b03915afa8015616e8e57616e52616e42616e06616e5793616e5d965f91616e60575b506124ee565b93616e3d616e12612022565b91616e2f83616e29616e235f611836565b9161038b565b116164f1565b616e37615f99565b906116ca565b61172c565b92616e4d6012616534565b61231a565b6165ec565b9061172c565b90565b616e81915060203d8111616e87575b616e7981836107f4565b8101906124d0565b5f616e00565b503d616e6f565b611660565b7f9016d09d72d40fdae2fd8ceac6b6234c7706214fd39c1cd1e609a0528c19930090565b7ff0c57e16840df040f15088dc2f81fe391c3923bec73e23a9662efc9c229c6a0090565b616ef25f616ef792616eeb613b0c565b500161640e565b6177de565b616eff613b0c565b5090565b90616f1591616f106177f5565b616f17565b565b90616f2191617a02565b565b90616f2d91616f03565b565b616f4090616f3b6177f5565b616f42565b565b616f4b90617a93565b565b616f5690616f2f565b565b616f606177f5565b616f68616f6a565b565b616f72617acd565b565b616f7c616f58565b565b616f866177f5565b565b616f90616f7e565b565b90616fc4616fbe616fb9616fb45f616fc996616fac6115c2565b500194616ca5565b616cb1565b616ccd565b9161640e565b617b0c565b90565b90616ffe616ff8616ff3616fee5f61700396616fe66115c2565b500194616ca5565b616cb1565b616ccd565b9161640e565b617b6f565b90565b9092617010615d2e565b8261702b6170256170205f61213a565b61035c565b9161035c565b14617119578461704b6170456170405f61213a565b61035c565b9161035c565b146170d2576170729061706d61706660018793018690613f66565b87906137a2565b615def565b61707c575b505050565b9190916170c76170b56170af7f8c5be1e5ebec7d5bd14f71427d1e84f3dd0314c0f7b2291e5b200ac8c7c3b92593613796565b93613796565b936170be610282565b91829182610502565b0390a35f8080617077565b6171156170de5f61213a565b6170e6610282565b9182917f94280d620000000000000000000000000000000000000000000000000000000083526004830161061a565b0390fd5b61715c6171255f61213a565b61712d610282565b9182917fe602df050000000000000000000000000000000000000000000000000000000083526004830161061a565b0390fd5b7f9b779b17422d0df92223018b32b4d1fa46e071723d6817e2486d003becc55f0090565b9061718f910161038b565b90565b91909161719d615d2e565b816171b86171b26171ad5f61213a565b61035c565b9161035c565b145f146172a3576171df836171d960028401916171d483612015565b615ed8565b90615def565b5b836171fb6171f56171f05f61213a565b61035c565b9161035c565b145f14617274576172239061721d60028592019161721883612015565b616777565b90615def565b5b91909161726f61725d6172577fddf252ad1be2c89b69c2b068fc378daa952ba7f163c4a11628f55a4df523b3ef93613796565b93613796565b93617266610282565b91829182610502565b0390a3565b61729e906172986172895f86930187906137a2565b9161729383612015565b617184565b90615def565b617224565b6172b86172b35f830184906137a2565b612015565b806172cb6172c58661038b565b9161038b565b106172f5576172de6172f0918590616777565b6172eb5f840185906137a2565b615def565b6171e0565b9161733491509192617305610282565b9384937fe450d38c00000000000000000000000000000000000000000000000000000000855260048501616745565b0390fd5b5490565b5f61735091617349611ffa565b5001617338565b90565b5f5260205f2090565b61736581617338565b82101561737f57617377600191617353565b910201905f90565b61411d565b90565b61739790600861739c9302610bab565b617384565b90565b906173aa9154617387565b90565b6173cb915f6173c5926173be6132c5565b500161735c565b9061739f565b90565b6173d6612a08565b506173f15f6173eb6173e6613301565b617ba4565b01612b8e565b90565b906173fe82617ba7565b816174297fbc7cd75a20ee27fd9adebab32041f755214dbc6bffa90cc0225b39da2e5c2d3b91613796565b90617432610282565b8061743c81610459565b0390a26174488161420e565b61745a6174545f611836565b9161038b565b115f1461746e5761746a91617cb7565b505b565b5050617478617c1c565b61746c565b61748690610928565b90565b906174939061747d565b5f5260205260405f2090565b1b90565b919060086174dd9102916174d77fffffffffffffffffffffffffffffffffffffffffffffffffffffffffffffffff8461749f565b9261749f565b9181191691161790565b6174f090611603565b90565b91906175096175046175119361747d565b6174e7565b9083546174a3565b9055565b90565b7f4e487b71000000000000000000000000000000000000000000000000000000005f52603160045260245ffd5b5490565b5f5260205f2090565b61755b81617545565b8210156175755761756d600191617549565b910201905f90565b61411d565b61758c916175866132c5565b916174f3565b565b61759781617545565b80156175b85760019003906175b56175af8383617552565b9061757a565b55565b617518565b91906175d36175ce6175db93615dd0565b615dec565b9083546174a3565b9055565b6175f1916175eb611ffa565b916175bd565b565b6175fb6115c2565b5061761261760d600183018490617489565b612015565b90816176266176205f611836565b9161038b565b14155f146176f2576176a492600161769f928461764d5f9661764785615e92565b9061231a565b61766a61765b888501617338565b61766486615e92565b9061231a565b8061767d6176778461038b565b9161038b565b036176a9575b505050617699617694868301617515565b61758e565b01617489565b6175df565b600190565b6176ea926176dc6176c86176c26176e5948c890161735c565b9061739f565b936176d685918c890161735c565b906174f3565b91858501617489565b615def565b5f8080617683565b5050505f90565b606090565b60209181520190565b61771090610928565b9052565b9061772181602093617707565b0190565b61773161773691611603565b617384565b90565b6177439054617725565b90565b60010190565b9061776961776361775c84617338565b80936176fe565b92617353565b905f5b8181106177795750505090565b90919261779961779360019261778e87617739565b617714565b94617746565b910191909161776c565b906177ad9161774c565b90565b906177d06177c9926177c0610282565b938480926177a3565b03836107f4565b565b6177db906177b0565b90565b5f6177f2916177eb6176f9565b50016177d2565b90565b617806617800617ce6565b156103de565b61780c57565b617814610282565b7fd7e6bcf80000000000000000000000000000000000000000000000000000000081528061784460048201610459565b0390fd5b9061785a916178556177f5565b6179de565b565b601f602091010490565b5b818110617872575050565b8061787f5f6001936175df565b01617867565b9190601f8111617895575b505050565b6178a16178c6936114d3565b9060206178ad8461785c565b830193106178ce575b6178bf9061785c565b0190617866565b5f8080617890565b91506178bf819290506178b6565b906178ec905f1990600802610bab565b191690565b816178fb916178dc565b906002021790565b9061790d8161029f565b9067ffffffffffffffff82116179cd576179318261792b85546114a0565b85617885565b602090601f831160011461796557918091617954935f92617959575b50506178f1565b90555b565b90915001515f8061794d565b601f19831691617974856114d3565b925f5b8181106179b55750916002939185600196941061799b575b50505002019055617957565b6179ab910151601f8416906178dc565b90555f808061798f565b91936020600181928787015181550195019201617977565b6107c7565b906179dc91617903565b565b6004617a00926179f96179ef615d2e565b93600385016179d2565b91016179d2565b565b90617a0c91617848565b565b617a1f90617a1a6177f5565b617a21565b565b80617a3c617a36617a315f61213a565b61035c565b9161035c565b14617a4c57617a4a90616d23565b565b617a8f617a585f61213a565b617a60610282565b9182917f1e4fbdf70000000000000000000000000000000000000000000000000000000083526004830161061a565b0390fd5b617a9c90617a0e565b565b617aa66177f5565b617aae617ab0565b565b617acb617abb617160565b5f617ac4615eae565b9101615def565b565b617ad5617a9e565b565b9081549168010000000000000000831015617b075782617aff916001617b0595018155617552565b906174f3565b565b6107c7565b617b146115c2565b50617b29617b23828490617b6f565b156103de565b5f14617b6957617b5f617b6492617b4b617b445f8501617515565b8290617ad7565b6001617b585f8501617338565b9301617489565b615def565b600190565b50505f90565b617b8d916001617b8892617b816115c2565b5001617489565b612015565b617b9f617b995f611836565b9161038b565b141590565b90565b803b617bbb617bb55f611836565b9161038b565b14617bdd57617bdb905f617bd5617bd0613301565b617ba4565b01613e11565b565b617c1890617be9610282565b9182917f4c9c8ce30000000000000000000000000000000000000000000000000000000083526004830161061a565b0390fd5b34617c2f617c295f611836565b9161038b565b11617c3657565b617c3e610282565b7fb398979f00000000000000000000000000000000000000000000000000000000815280617c6e60048201610459565b0390fd5b606090565b90617c89617c8483610832565b61081d565b918252565b3d5f14617ca957617c9e3d617c77565b903d5f602084013e5b565b617cb1617c72565b90617ca7565b5f80617ce393617cc5617c72565b508390602081019051915af490617cda617c8e565b90919091617d04565b90565b617cee6115c2565b50617d015f617cfb616eb7565b01613861565b90565b90617d1890617d11617c72565b50156103de565b5f14617d245750617da8565b617d2d8261420e565b617d3f617d395f611836565b9161038b565b1480617d8d575b617d4e575090565b617d8990617d5a610282565b9182917f9996b3150000000000000000000000000000000000000000000000000000000083526004830161061a565b0390fd5b50803b617da2617d9c5f611836565b9161038b565b14617d46565b617db18161420e565b617dc3617dbd5f611836565b9161038b565b115f14617dd257805190602001fd5b617dda610282565b7f1425ea4200000000000000000000000000000000000000000000000000000000815280617e0a60048201610459565b0390fdfea26469706673582212209159a6065dd8b4ee1aca7be41a399ba6e883a08cb1c66c7f6775a544fd0c8ac364736f6c63430008190033",
  "linkReferences": {},
  "deployedLinkReferences": {}
}