{
  "_format": "hh-sol-artifact-1",
  "contractName": "BaluniV1Oracle",
  "sourceName": "contracts/oracles/BaluniV1Oracle.sol",
  "abi": [
    {
      "inputs": [
        {
          "internalType": "address",
          "name": "target",
          "type": "address"
        }
      ],
      "name": "AddressEmptyCode",
      "type": "error"
    },
    {
      "inputs": [
        {
          "internalType": "address",
          "name": "implementation",
          "type": "address"
        }
      ],
      "name": "ERC1967InvalidImplementation",
      "type": "error"
    },
    {
      "inputs": [],
      "name": "ERC1967NonPayable",
      "type": "error"
    },
    {
      "inputs": [],
      "name": "FailedInnerCall",
      "type": "error"
    },
    {
      "inputs": [],
      "name": "InvalidInitialization",
      "type": "error"
    },
    {
      "inputs": [],
      "name": "NotInitializing",
      "type": "error"
    },
    {
      "inputs": [
        {
          "internalType": "address",
          "name": "owner",
          "type": "address"
        }
      ],
      "name": "OwnableInvalidOwner",
      "type": "error"
    },
    {
      "inputs": [
        {
          "internalType": "address",
          "name": "account",
          "type": "address"
        }
      ],
      "name": "OwnableUnauthorizedAccount",
      "type": "error"
    },
    {
      "inputs": [],
      "name": "UUPSUnauthorizedCallContext",
      "type": "error"
    },
    {
      "inputs": [
        {
          "internalType": "bytes32",
          "name": "slot",
          "type": "bytes32"
        }
      ],
      "name": "UUPSUnsupportedProxiableUUID",
      "type": "error"
    },
    {
      "anonymous": false,
      "inputs": [
        {
          "indexed": false,
          "internalType": "uint64",
          "name": "version",
          "type": "uint64"
        }
      ],
      "name": "Initialized",
      "type": "event"
    },
    {
      "anonymous": false,
      "inputs": [
        {
          "indexed": true,
          "internalType": "address",
          "name": "previousOwner",
          "type": "address"
        },
        {
          "indexed": true,
          "internalType": "address",
          "name": "newOwner",
          "type": "address"
        }
      ],
      "name": "OwnershipTransferred",
      "type": "event"
    },
    {
      "anonymous": false,
      "inputs": [
        {
          "indexed": true,
          "internalType": "address",
          "name": "implementation",
          "type": "address"
        }
      ],
      "name": "Upgraded",
      "type": "event"
    },
    {
      "inputs": [],
      "name": "UPGRADE_INTERFACE_VERSION",
      "outputs": [
        {
          "internalType": "string",
          "name": "",
          "type": "string"
        }
      ],
      "stateMutability": "view",
      "type": "function"
    },
    {
      "inputs": [
        {
          "internalType": "address",
          "name": "fromToken",
          "type": "address"
        },
        {
          "internalType": "address",
          "name": "toToken",
          "type": "address"
        },
        {
          "internalType": "uint256",
          "name": "amount",
          "type": "uint256"
        }
      ],
      "name": "convert",
      "outputs": [
        {
          "internalType": "uint256",
          "name": "valuation",
          "type": "uint256"
        }
      ],
      "stateMutability": "view",
      "type": "function"
    },
    {
      "inputs": [
        {
          "internalType": "address",
          "name": "fromToken",
          "type": "address"
        },
        {
          "internalType": "address",
          "name": "toToken",
          "type": "address"
        },
        {
          "internalType": "uint256",
          "name": "amount",
          "type": "uint256"
        }
      ],
      "name": "convertScaled",
      "outputs": [
        {
          "internalType": "uint256",
          "name": "valuation",
          "type": "uint256"
        }
      ],
      "stateMutability": "view",
      "type": "function"
    },
    {
      "inputs": [
        {
          "internalType": "address",
          "name": "fromToken",
          "type": "address"
        },
        {
          "internalType": "address",
          "name": "toToken",
          "type": "address"
        },
        {
          "internalType": "uint256",
          "name": "amount",
          "type": "uint256"
        }
      ],
      "name": "convertScaledWithAgg",
      "outputs": [
        {
          "internalType": "uint256",
          "name": "valuation",
          "type": "uint256"
        }
      ],
      "stateMutability": "view",
      "type": "function"
    },
    {
      "inputs": [
        {
          "internalType": "address",
          "name": "fromToken",
          "type": "address"
        },
        {
          "internalType": "address",
          "name": "toToken",
          "type": "address"
        },
        {
          "internalType": "uint256",
          "name": "amount",
          "type": "uint256"
        }
      ],
      "name": "convertScaledWithStaticOracle",
      "outputs": [
        {
          "internalType": "uint256",
          "name": "valuation",
          "type": "uint256"
        }
      ],
      "stateMutability": "view",
      "type": "function"
    },
    {
      "inputs": [
        {
          "internalType": "address",
          "name": "fromToken",
          "type": "address"
        },
        {
          "internalType": "address",
          "name": "toToken",
          "type": "address"
        },
        {
          "internalType": "uint256",
          "name": "amount",
          "type": "uint256"
        }
      ],
      "name": "convertWithAgg",
      "outputs": [
        {
          "internalType": "uint256",
          "name": "valuation",
          "type": "uint256"
        }
      ],
      "stateMutability": "view",
      "type": "function"
    },
    {
      "inputs": [
        {
          "internalType": "address",
          "name": "fromToken",
          "type": "address"
        },
        {
          "internalType": "address",
          "name": "toToken",
          "type": "address"
        },
        {
          "internalType": "uint256",
          "name": "amount",
          "type": "uint256"
        }
      ],
      "name": "convertWithStaticOracle",
      "outputs": [
        {
          "internalType": "uint256",
          "name": "valuation",
          "type": "uint256"
        }
      ],
      "stateMutability": "view",
      "type": "function"
    },
    {
      "inputs": [
        {
          "internalType": "address",
          "name": "_registry",
          "type": "address"
        }
      ],
      "name": "initialize",
      "outputs": [],
      "stateMutability": "nonpayable",
      "type": "function"
    },
    {
      "inputs": [],
      "name": "owner",
      "outputs": [
        {
          "internalType": "address",
          "name": "",
          "type": "address"
        }
      ],
      "stateMutability": "view",
      "type": "function"
    },
    {
      "inputs": [],
      "name": "proxiableUUID",
      "outputs": [
        {
          "internalType": "bytes32",
          "name": "",
          "type": "bytes32"
        }
      ],
      "stateMutability": "view",
      "type": "function"
    },
    {
      "inputs": [],
      "name": "registry",
      "outputs": [
        {
          "internalType": "contract IBaluniV1Registry",
          "name": "",
          "type": "address"
        }
      ],
      "stateMutability": "view",
      "type": "function"
    },
    {
      "inputs": [
        {
          "internalType": "address",
          "name": "_registry",
          "type": "address"
        },
        {
          "internalType": "uint64",
          "name": "version",
          "type": "uint64"
        }
      ],
      "name": "reinitialize",
      "outputs": [],
      "stateMutability": "nonpayable",
      "type": "function"
    },
    {
      "inputs": [],
      "name": "renounceOwnership",
      "outputs": [],
      "stateMutability": "nonpayable",
      "type": "function"
    },
    {
      "inputs": [
        {
          "internalType": "address",
          "name": "newOwner",
          "type": "address"
        }
      ],
      "name": "transferOwnership",
      "outputs": [],
      "stateMutability": "nonpayable",
      "type": "function"
    },
    {
      "inputs": [
        {
          "internalType": "address",
          "name": "newImplementation",
          "type": "address"
        },
        {
          "internalType": "bytes",
          "name": "data",
          "type": "bytes"
        }
      ],
      "name": "upgradeToAndCall",
      "outputs": [],
      "stateMutability": "payable",
      "type": "function"
    }
  ],
  "bytecode": "0x60a0604052306080523480156012575f80fd5b506080516114d26100395f395f8181610a3301528181610a5c0152610c1101526114d25ff3fe6080604052600436106100e4575f3560e01c80638da5cb5b11610087578063c4d66de811610057578063c4d66de81461027e578063ca66d9a81461029d578063f2fde38b146102bc578063fac0ba74146102db575f80fd5b80638da5cb5b146101af5780638f2248bc146101eb578063ad3cb1cc1461020a578063b27b5e751461025f575f80fd5b806352d1902d116100c257806352d1902d14610151578063715018a6146101655780637b103999146101795780638c41a354146100e8575f80fd5b80631f0e3cd2146100e8578063248391ff1461011d5780634f1ef2861461013c575b5f80fd5b3480156100f3575f80fd5b5061010a610102366004611068565b5f9392505050565b6040519081526020015b60405180910390f35b348015610128575f80fd5b5061010a610137366004611068565b6102fa565b61014f61014a366004611104565b610395565b005b34801561015c575f80fd5b5061010a6103b4565b348015610170575f80fd5b5061014f6103e2565b348015610184575f80fd5b505f54610197906001600160a01b031681565b6040516001600160a01b039091168152602001610114565b3480156101ba575f80fd5b507f9016d09d72d40fdae2fd8ceac6b6234c7706214fd39c1cd1e609a0528c199300546001600160a01b0316610197565b3480156101f6575f80fd5b5061014f6102053660046111a6565b6103f5565b348015610215575f80fd5b506102526040518060400160405280600581526020017f352e302e3000000000000000000000000000000000000000000000000000000081525081565b60405161011491906111e9565b34801561026a575f80fd5b5061010a610279366004611068565b610542565b348015610289575f80fd5b5061014f61029836600461121e565b610598565b3480156102a8575f80fd5b5061010a6102b7366004611068565b610719565b3480156102c7575f80fd5b5061014f6102d636600461121e565b610822565b3480156102e6575f80fd5b5061010a6102f5366004611068565b61087d565b6040517ffac0ba740000000000000000000000000000000000000000000000000000000081526001600160a01b03808516600483015283166024820152604481018290525f90309063fac0ba74906064015b602060405180830381865afa158015610367573d5f803e3d5ffd5b505050506040513d601f19601f8201168201806040525081019061038b9190611239565b90505b9392505050565b61039d610a28565b6103a682610af8565b6103b08282610b00565b5050565b5f6103bd610c06565b507f360894a13ba1a3210667c828492db98dca3e2076cc3735a920a3ca505d382bbc90565b6103ea610c68565b6103f35f610cdc565b565b7ff0c57e16840df040f15088dc2f81fe391c3923bec73e23a9662efc9c229c6a00805482919068010000000000000000900460ff16806104435750805467ffffffffffffffff808416911610155b1561047a576040517ff92ee8a900000000000000000000000000000000000000000000000000000000815260040160405180910390fd5b80547fffffffffffffffffffffffffffffffffffffffffffffff0000000000000000001667ffffffffffffffff831617680100000000000000001781556104c033610d59565b6104c8610d6a565b5f805473ffffffffffffffffffffffffffffffffffffffff19166001600160a01b038616179055805468ff00000000000000001916815560405167ffffffffffffffff831681527fc7f505b2f371ae2175ee4913f4499e1f2633a7b5936321eed1cdaeb6115181d29060200160405180910390a150505050565b6040517fca66d9a80000000000000000000000000000000000000000000000000000000081526001600160a01b03808516600483015283166024820152604481018290525f90309063ca66d9a89060640161034c565b7ff0c57e16840df040f15088dc2f81fe391c3923bec73e23a9662efc9c229c6a00805468010000000000000000810460ff16159067ffffffffffffffff165f811580156105e25750825b90505f8267ffffffffffffffff1660011480156105fe5750303b155b90508115801561060c575080155b15610643576040517ff92ee8a900000000000000000000000000000000000000000000000000000000815260040160405180910390fd5b84547fffffffffffffffffffffffffffffffffffffffffffffffff0000000000000000166001178555831561068e57845468ff00000000000000001916680100000000000000001785555b61069733610d59565b61069f610d6a565b5f805473ffffffffffffffffffffffffffffffffffffffff19166001600160a01b038816179055831561071157845468ff000000000000000019168555604051600181527fc7f505b2f371ae2175ee4913f4499e1f2633a7b5936321eed1cdaeb6115181d29060200160405180910390a15b505050505050565b6040517ffac0ba740000000000000000000000000000000000000000000000000000000081526001600160a01b03808516600483015283166024820152604481018290525f908190309063fac0ba7490606401602060405180830381865afa158015610787573d5f803e3d5ffd5b505050506040513d601f19601f820116820180604052508101906107ab9190611239565b905061081981856001600160a01b031663313ce5676040518163ffffffff1660e01b8152600401602060405180830381865afa1580156107ed573d5f803e3d5ffd5b505050506040513d601f19601f820116820180604052508101906108119190611250565b60ff16610d72565b95945050505050565b61082a610c68565b6001600160a01b038116610871576040517f1e4fbdf70000000000000000000000000000000000000000000000000000000081525f60048201526024015b60405180910390fd5b61087a81610cdc565b50565b5f8054604080517fa5d2236f000000000000000000000000000000000000000000000000000000008152905183926001600160a01b03169163a5d2236f9160048083019260209291908290030181865afa1580156108dd573d5f803e3d5ffd5b505050506040513d601f19601f820116820180604052508101906109019190611270565b90506001600160a01b038116610973576040517f08c379a000000000000000000000000000000000000000000000000000000000815260206004820152601460248201527f5374617469634f7261636c65206e6f74207365740000000000000000000000006044820152606401610868565b6040517f0757bc810000000000000000000000000000000000000000000000000000000081526fffffffffffffffffffffffffffffffff841660048201526001600160a01b0386811660248301528581166044830152610e106064830152821690630757bc81906084015f60405180830381865afa1580156109f7573d5f803e3d5ffd5b505050506040513d5f823e601f3d908101601f19168201604052610a1e919081019061128b565b5095945050505050565b306001600160a01b037f0000000000000000000000000000000000000000000000000000000000000000161480610ac157507f00000000000000000000000000000000000000000000000000000000000000006001600160a01b0316610ab57f360894a13ba1a3210667c828492db98dca3e2076cc3735a920a3ca505d382bbc546001600160a01b031690565b6001600160a01b031614155b156103f3576040517fe07c8dba00000000000000000000000000000000000000000000000000000000815260040160405180910390fd5b61087a610c68565b816001600160a01b03166352d1902d6040518163ffffffff1660e01b8152600401602060405180830381865afa925050508015610b5a575060408051601f3d908101601f19168201909252610b5791810190611239565b60015b610b9b576040517f4c9c8ce30000000000000000000000000000000000000000000000000000000081526001600160a01b0383166004820152602401610868565b7f360894a13ba1a3210667c828492db98dca3e2076cc3735a920a3ca505d382bbc8114610bf7576040517faa1d49a400000000000000000000000000000000000000000000000000000000815260048101829052602401610868565b610c018383610d9c565b505050565b306001600160a01b037f000000000000000000000000000000000000000000000000000000000000000016146103f3576040517fe07c8dba00000000000000000000000000000000000000000000000000000000815260040160405180910390fd5b33610c9a7f9016d09d72d40fdae2fd8ceac6b6234c7706214fd39c1cd1e609a0528c199300546001600160a01b031690565b6001600160a01b0316146103f3576040517f118cdaa7000000000000000000000000000000000000000000000000000000008152336004820152602401610868565b7f9016d09d72d40fdae2fd8ceac6b6234c7706214fd39c1cd1e609a0528c199300805473ffffffffffffffffffffffffffffffffffffffff1981166001600160a01b03848116918217845560405192169182907f8be0079c531659141344cd1fd0a4f28419497f9722a3daafe3b4186f6b6457e0905f90a3505050565b610d61610df1565b61087a81610e58565b6103f3610df1565b5f610d7e826012611371565b610d8990600a611464565b610d93908461146f565b90505b92915050565b610da582610e60565b6040516001600160a01b038316907fbc7cd75a20ee27fd9adebab32041f755214dbc6bffa90cc0225b39da2e5c2d3b905f90a2805115610de957610c018282610efc565b6103b0610f65565b7ff0c57e16840df040f15088dc2f81fe391c3923bec73e23a9662efc9c229c6a005468010000000000000000900460ff166103f3576040517fd7e6bcf800000000000000000000000000000000000000000000000000000000815260040160405180910390fd5b61082a610df1565b806001600160a01b03163b5f03610eae576040517f4c9c8ce30000000000000000000000000000000000000000000000000000000081526001600160a01b0382166004820152602401610868565b7f360894a13ba1a3210667c828492db98dca3e2076cc3735a920a3ca505d382bbc805473ffffffffffffffffffffffffffffffffffffffff19166001600160a01b0392909216919091179055565b60605f80846001600160a01b031684604051610f189190611486565b5f60405180830381855af49150503d805f8114610f50576040519150601f19603f3d011682016040523d82523d5f602084013e610f55565b606091505b5091509150610819858383610f9d565b34156103f3576040517fb398979f00000000000000000000000000000000000000000000000000000000815260040160405180910390fd5b606082610fb257610fad82611012565b61038e565b8151158015610fc957506001600160a01b0384163b155b1561100b576040517f9996b3150000000000000000000000000000000000000000000000000000000081526001600160a01b0385166004820152602401610868565b508061038e565b8051156110225780518082602001fd5b6040517f1425ea4200000000000000000000000000000000000000000000000000000000815260040160405180910390fd5b6001600160a01b038116811461087a575f80fd5b5f805f6060848603121561107a575f80fd5b833561108581611054565b9250602084013561109581611054565b929592945050506040919091013590565b7f4e487b71000000000000000000000000000000000000000000000000000000005f52604160045260245ffd5b604051601f8201601f1916810167ffffffffffffffff811182821017156110fc576110fc6110a6565b604052919050565b5f8060408385031215611115575f80fd5b823561112081611054565b915060208381013567ffffffffffffffff8082111561113d575f80fd5b818601915086601f830112611150575f80fd5b813581811115611162576111626110a6565b61117484601f19601f840116016110d3565b91508082528784828501011115611189575f80fd5b80848401858401375f848284010152508093505050509250929050565b5f80604083850312156111b7575f80fd5b82356111c281611054565b9150602083013567ffffffffffffffff811681146111de575f80fd5b809150509250929050565b602081525f82518060208401528060208501604085015e5f604082850101526040601f19601f83011684010191505092915050565b5f6020828403121561122e575f80fd5b813561038e81611054565b5f60208284031215611249575f80fd5b5051919050565b5f60208284031215611260575f80fd5b815160ff8116811461038e575f80fd5b5f60208284031215611280575f80fd5b815161038e81611054565b5f806040838503121561129c575f80fd5b8251915060208084015167ffffffffffffffff808211156112bb575f80fd5b818601915086601f8301126112ce575f80fd5b8151818111156112e0576112e06110a6565b8060051b91506112f18483016110d3565b818152918301840191848101908984111561130a575f80fd5b938501935b83851015611334578451925061132483611054565b828252938501939085019061130f565b8096505050505050509250929050565b7f4e487b71000000000000000000000000000000000000000000000000000000005f52601160045260245ffd5b81810381811115610d9657610d96611344565b600181815b808511156113be57815f19048211156113a4576113a4611344565b808516156113b157918102915b93841c9390800290611389565b509250929050565b5f826113d457506001610d96565b816113e057505f610d96565b81600181146113f657600281146114005761141c565b6001915050610d96565b60ff84111561141157611411611344565b50506001821b610d96565b5060208310610133831016604e8410600b841016171561143f575081810a610d96565b6114498383611384565b805f190482111561145c5761145c611344565b029392505050565b5f610d9383836113c6565b8082028115828204841417610d9657610d96611344565b5f82518060208501845e5f92019182525091905056fea2646970667358221220183d2636d960fec499da1acb208f2d9ac5a7c378ad66c985e27a98c25693fca564736f6c63430008190033",
  "linkReferences": {},
  "deployedLinkReferences": {}
}