{
  "_format": "hh-sol-artifact-1",
  "contractName": "BaluniV1Oracle",
  "sourceName": "contracts/oracles/BaluniV1Oracle.sol",
  "abi": [
    {
      "inputs": [
        {
          "internalType": "address",
          "name": "target",
          "type": "address"
        }
      ],
      "name": "AddressEmptyCode",
      "type": "error"
    },
    {
      "inputs": [
        {
          "internalType": "address",
          "name": "implementation",
          "type": "address"
        }
      ],
      "name": "ERC1967InvalidImplementation",
      "type": "error"
    },
    {
      "inputs": [],
      "name": "ERC1967NonPayable",
      "type": "error"
    },
    {
      "inputs": [],
      "name": "FailedInnerCall",
      "type": "error"
    },
    {
      "inputs": [],
      "name": "InvalidInitialization",
      "type": "error"
    },
    {
      "inputs": [],
      "name": "NotInitializing",
      "type": "error"
    },
    {
      "inputs": [
        {
          "internalType": "address",
          "name": "owner",
          "type": "address"
        }
      ],
      "name": "OwnableInvalidOwner",
      "type": "error"
    },
    {
      "inputs": [
        {
          "internalType": "address",
          "name": "account",
          "type": "address"
        }
      ],
      "name": "OwnableUnauthorizedAccount",
      "type": "error"
    },
    {
      "inputs": [],
      "name": "UUPSUnauthorizedCallContext",
      "type": "error"
    },
    {
      "inputs": [
        {
          "internalType": "bytes32",
          "name": "slot",
          "type": "bytes32"
        }
      ],
      "name": "UUPSUnsupportedProxiableUUID",
      "type": "error"
    },
    {
      "anonymous": false,
      "inputs": [
        {
          "indexed": false,
          "internalType": "uint64",
          "name": "version",
          "type": "uint64"
        }
      ],
      "name": "Initialized",
      "type": "event"
    },
    {
      "anonymous": false,
      "inputs": [
        {
          "indexed": true,
          "internalType": "address",
          "name": "previousOwner",
          "type": "address"
        },
        {
          "indexed": true,
          "internalType": "address",
          "name": "newOwner",
          "type": "address"
        }
      ],
      "name": "OwnershipTransferred",
      "type": "event"
    },
    {
      "anonymous": false,
      "inputs": [
        {
          "indexed": true,
          "internalType": "address",
          "name": "implementation",
          "type": "address"
        }
      ],
      "name": "Upgraded",
      "type": "event"
    },
    {
      "inputs": [],
      "name": "UPGRADE_INTERFACE_VERSION",
      "outputs": [
        {
          "internalType": "string",
          "name": "",
          "type": "string"
        }
      ],
      "stateMutability": "view",
      "type": "function"
    },
    {
      "inputs": [
        {
          "internalType": "address",
          "name": "fromToken",
          "type": "address"
        },
        {
          "internalType": "address",
          "name": "toToken",
          "type": "address"
        },
        {
          "internalType": "uint256",
          "name": "amount",
          "type": "uint256"
        }
      ],
      "name": "convert",
      "outputs": [
        {
          "internalType": "uint256",
          "name": "valuation",
          "type": "uint256"
        }
      ],
      "stateMutability": "view",
      "type": "function"
    },
    {
      "inputs": [
        {
          "internalType": "address",
          "name": "fromToken",
          "type": "address"
        },
        {
          "internalType": "address",
          "name": "toToken",
          "type": "address"
        },
        {
          "internalType": "uint256",
          "name": "amount",
          "type": "uint256"
        }
      ],
      "name": "convertScaled",
      "outputs": [
        {
          "internalType": "uint256",
          "name": "valuation",
          "type": "uint256"
        }
      ],
      "stateMutability": "view",
      "type": "function"
    },
    {
      "inputs": [
        {
          "internalType": "address",
          "name": "fromToken",
          "type": "address"
        },
        {
          "internalType": "address",
          "name": "toToken",
          "type": "address"
        },
        {
          "internalType": "uint256",
          "name": "amount",
          "type": "uint256"
        }
      ],
      "name": "convertScaledWithAgg",
      "outputs": [
        {
          "internalType": "uint256",
          "name": "valuation",
          "type": "uint256"
        }
      ],
      "stateMutability": "view",
      "type": "function"
    },
    {
      "inputs": [
        {
          "internalType": "address",
          "name": "fromToken",
          "type": "address"
        },
        {
          "internalType": "address",
          "name": "toToken",
          "type": "address"
        },
        {
          "internalType": "uint256",
          "name": "amount",
          "type": "uint256"
        }
      ],
      "name": "convertScaledWithStaticOracle",
      "outputs": [
        {
          "internalType": "uint256",
          "name": "valuation",
          "type": "uint256"
        }
      ],
      "stateMutability": "view",
      "type": "function"
    },
    {
      "inputs": [
        {
          "internalType": "address",
          "name": "fromToken",
          "type": "address"
        },
        {
          "internalType": "address",
          "name": "toToken",
          "type": "address"
        },
        {
          "internalType": "uint256",
          "name": "amount",
          "type": "uint256"
        }
      ],
      "name": "convertWithAgg",
      "outputs": [
        {
          "internalType": "uint256",
          "name": "valuation",
          "type": "uint256"
        }
      ],
      "stateMutability": "view",
      "type": "function"
    },
    {
      "inputs": [
        {
          "internalType": "address",
          "name": "fromToken",
          "type": "address"
        },
        {
          "internalType": "address",
          "name": "toToken",
          "type": "address"
        },
        {
          "internalType": "uint256",
          "name": "amount",
          "type": "uint256"
        }
      ],
      "name": "convertWithStaticOracle",
      "outputs": [
        {
          "internalType": "uint256",
          "name": "valuation",
          "type": "uint256"
        }
      ],
      "stateMutability": "view",
      "type": "function"
    },
    {
      "inputs": [
        {
          "internalType": "address",
          "name": "_registry",
          "type": "address"
        }
      ],
      "name": "initialize",
      "outputs": [],
      "stateMutability": "nonpayable",
      "type": "function"
    },
    {
      "inputs": [],
      "name": "owner",
      "outputs": [
        {
          "internalType": "address",
          "name": "",
          "type": "address"
        }
      ],
      "stateMutability": "view",
      "type": "function"
    },
    {
      "inputs": [],
      "name": "proxiableUUID",
      "outputs": [
        {
          "internalType": "bytes32",
          "name": "",
          "type": "bytes32"
        }
      ],
      "stateMutability": "view",
      "type": "function"
    },
    {
      "inputs": [],
      "name": "registry",
      "outputs": [
        {
          "internalType": "contract IBaluniV1Registry",
          "name": "",
          "type": "address"
        }
      ],
      "stateMutability": "view",
      "type": "function"
    },
    {
      "inputs": [
        {
          "internalType": "address",
          "name": "_registry",
          "type": "address"
        },
        {
          "internalType": "uint64",
          "name": "version",
          "type": "uint64"
        }
      ],
      "name": "reinitialize",
      "outputs": [],
      "stateMutability": "nonpayable",
      "type": "function"
    },
    {
      "inputs": [],
      "name": "renounceOwnership",
      "outputs": [],
      "stateMutability": "nonpayable",
      "type": "function"
    },
    {
      "inputs": [
        {
          "internalType": "address",
          "name": "newOwner",
          "type": "address"
        }
      ],
      "name": "transferOwnership",
      "outputs": [],
      "stateMutability": "nonpayable",
      "type": "function"
    },
    {
      "inputs": [
        {
          "internalType": "address",
          "name": "newImplementation",
          "type": "address"
        },
        {
          "internalType": "bytes",
          "name": "data",
          "type": "bytes"
        }
      ],
      "name": "upgradeToAndCall",
      "outputs": [],
      "stateMutability": "payable",
      "type": "function"
    }
  ],
  "bytecode": "0x60a0604052306080523480156012575f80fd5b5060805161188d6100395f395f8181610dda01528181610e030152610fb8015261188d5ff3fe6080604052600436106100e4575f3560e01c80638da5cb5b11610087578063c4d66de811610057578063c4d66de81461029d578063ca66d9a8146102bc578063f2fde38b146102db578063fac0ba74146102fa575f80fd5b80638da5cb5b146101ce5780638f2248bc1461020a578063ad3cb1cc14610229578063b27b5e751461027e575f80fd5b806352d1902d116100c257806352d1902d14610151578063715018a6146101655780637b103999146101795780638c41a354146101af575f80fd5b80631f0e3cd2146100e8578063248391ff1461011d5780634f1ef2861461013c575b5f80fd5b3480156100f3575f80fd5b5061010a61010236600461140f565b5f9392505050565b6040519081526020015b60405180910390f35b348015610128575f80fd5b5061010a61013736600461140f565b610319565b61014f61014a366004611492565b6103b4565b005b34801561015c575f80fd5b5061010a6103d3565b348015610170575f80fd5b5061014f610401565b348015610184575f80fd5b505f54610197906001600160a01b031681565b6040516001600160a01b039091168152602001610114565b3480156101ba575f80fd5b5061010a6101c936600461140f565b610414565b3480156101d9575f80fd5b507f9016d09d72d40fdae2fd8ceac6b6234c7706214fd39c1cd1e609a0528c199300546001600160a01b0316610197565b348015610215575f80fd5b5061014f610224366004611534565b61079d565b348015610234575f80fd5b506102716040518060400160405280600581526020017f352e302e3000000000000000000000000000000000000000000000000000000081525081565b6040516101149190611577565b348015610289575f80fd5b5061010a61029836600461140f565b6108ea565b3480156102a8575f80fd5b5061014f6102b73660046115ac565b610940565b3480156102c7575f80fd5b5061010a6102d636600461140f565b610ac1565b3480156102e6575f80fd5b5061014f6102f53660046115ac565b610bca565b348015610305575f80fd5b5061010a61031436600461140f565b610c25565b6040517ffac0ba740000000000000000000000000000000000000000000000000000000081526001600160a01b03808516600483015283166024820152604481018290525f90309063fac0ba74906064015b602060405180830381865afa158015610386573d5f803e3d5ffd5b505050506040513d601f19601f820116820180604052508101906103aa91906115c7565b90505b9392505050565b6103bc610dcf565b6103c582610e9f565b6103cf8282610ea7565b5050565b5f6103dc610fad565b507f360894a13ba1a3210667c828492db98dca3e2076cc3735a920a3ca505d382bbc90565b61040961100f565b6104125f611083565b565b5f826001600160a01b0316846001600160a01b0316036104b557826001600160a01b031663313ce5676040518163ffffffff1660e01b8152600401602060405180830381865afa15801561046a573d5f803e3d5ffd5b505050506040513d601f19601f8201168201806040525081019061048e91906115de565b610499906012611612565b6104a490600a61170b565b6104ae9083611719565b90506103ad565b5f805f9054906101000a90046001600160a01b03166001600160a01b0316638e1c3a8a6040518163ffffffff1660e01b8152600401602060405180830381865afa158015610505573d5f803e3d5ffd5b505050506040513d601f19601f820116820180604052508101906105299190611730565b90505f856001600160a01b031663313ce5676040518163ffffffff1660e01b8152600401602060405180830381865afa158015610568573d5f803e3d5ffd5b505050506040513d601f19601f8201168201806040525081019061058c91906115de565b90505f856001600160a01b031663313ce5676040518163ffffffff1660e01b8152600401602060405180830381865afa1580156105cb573d5f803e3d5ffd5b505050506040513d601f19601f820116820180604052508101906105ef91906115de565b6040517f802431fb0000000000000000000000000000000000000000000000000000000081526001600160a01b03898116600483015288811660248301525f6044830181905292935085169063802431fb90606401602060405180830381865afa15801561065f573d5f803e3d5ffd5b505050506040513d601f19601f8201168201806040525081019061068391906115c7565b905061069082600a61170b565b61069b84600a61170b565b6106a59083611719565b6106af919061174b565b90505f80806106bf856012611612565b6106ca90600a61170b565b90508460ff168660ff16036106fd57670de0b6b3a76400006106ec858b611719565b6106f6919061174b565b9750610784565b8460ff168660ff161115610741576107158587611612565b61072090600a61170b565b925061072c838a61174b565b9150670de0b6b3a76400006106ec8584611719565b61074b8686611612565b61075690600a61170b565b9250610762838a611719565b9150670de0b6b3a76400006107778584611719565b610781919061174b565b97505b61078e8189611719565b9b9a5050505050505050505050565b7ff0c57e16840df040f15088dc2f81fe391c3923bec73e23a9662efc9c229c6a00805482919068010000000000000000900460ff16806107eb5750805467ffffffffffffffff808416911610155b15610822576040517ff92ee8a900000000000000000000000000000000000000000000000000000000815260040160405180910390fd5b80547fffffffffffffffffffffffffffffffffffffffffffffff0000000000000000001667ffffffffffffffff8316176801000000000000000017815561086833611100565b610870611111565b5f805473ffffffffffffffffffffffffffffffffffffffff19166001600160a01b038616179055805468ff00000000000000001916815560405167ffffffffffffffff831681527fc7f505b2f371ae2175ee4913f4499e1f2633a7b5936321eed1cdaeb6115181d29060200160405180910390a150505050565b6040517fca66d9a80000000000000000000000000000000000000000000000000000000081526001600160a01b03808516600483015283166024820152604481018290525f90309063ca66d9a89060640161036b565b7ff0c57e16840df040f15088dc2f81fe391c3923bec73e23a9662efc9c229c6a00805468010000000000000000810460ff16159067ffffffffffffffff165f8115801561098a5750825b90505f8267ffffffffffffffff1660011480156109a65750303b155b9050811580156109b4575080155b156109eb576040517ff92ee8a900000000000000000000000000000000000000000000000000000000815260040160405180910390fd5b84547fffffffffffffffffffffffffffffffffffffffffffffffff00000000000000001660011785558315610a3657845468ff00000000000000001916680100000000000000001785555b610a3f33611100565b610a47611111565b5f805473ffffffffffffffffffffffffffffffffffffffff19166001600160a01b0388161790558315610ab957845468ff000000000000000019168555604051600181527fc7f505b2f371ae2175ee4913f4499e1f2633a7b5936321eed1cdaeb6115181d29060200160405180910390a15b505050505050565b6040517ffac0ba740000000000000000000000000000000000000000000000000000000081526001600160a01b03808516600483015283166024820152604481018290525f908190309063fac0ba7490606401602060405180830381865afa158015610b2f573d5f803e3d5ffd5b505050506040513d601f19601f82011682018060405250810190610b5391906115c7565b9050610bc181856001600160a01b031663313ce5676040518163ffffffff1660e01b8152600401602060405180830381865afa158015610b95573d5f803e3d5ffd5b505050506040513d601f19601f82011682018060405250810190610bb991906115de565b60ff16611119565b95945050505050565b610bd261100f565b6001600160a01b038116610c19576040517f1e4fbdf70000000000000000000000000000000000000000000000000000000081525f60048201526024015b60405180910390fd5b610c2281611083565b50565b5f8054604080517fa5d2236f000000000000000000000000000000000000000000000000000000008152905183926001600160a01b03169163a5d2236f9160048083019260209291908290030181865afa158015610c85573d5f803e3d5ffd5b505050506040513d601f19601f82011682018060405250810190610ca99190611730565b90506001600160a01b038116610d1b576040517f08c379a000000000000000000000000000000000000000000000000000000000815260206004820152601460248201527f5374617469634f7261636c65206e6f74207365740000000000000000000000006044820152606401610c10565b6040517f0757bc810000000000000000000000000000000000000000000000000000000081526fffffffffffffffffffffffffffffffff841660048201526001600160a01b0386811660248301528581166044830152603c6064830152821690630757bc81906084015f60405180830381865afa158015610d9e573d5f803e3d5ffd5b505050506040513d5f823e601f3d908101601f19168201604052610dc5919081019061176a565b5095945050505050565b306001600160a01b037f0000000000000000000000000000000000000000000000000000000000000000161480610e6857507f00000000000000000000000000000000000000000000000000000000000000006001600160a01b0316610e5c7f360894a13ba1a3210667c828492db98dca3e2076cc3735a920a3ca505d382bbc546001600160a01b031690565b6001600160a01b031614155b15610412576040517fe07c8dba00000000000000000000000000000000000000000000000000000000815260040160405180910390fd5b610c2261100f565b816001600160a01b03166352d1902d6040518163ffffffff1660e01b8152600401602060405180830381865afa925050508015610f01575060408051601f3d908101601f19168201909252610efe918101906115c7565b60015b610f42576040517f4c9c8ce30000000000000000000000000000000000000000000000000000000081526001600160a01b0383166004820152602401610c10565b7f360894a13ba1a3210667c828492db98dca3e2076cc3735a920a3ca505d382bbc8114610f9e576040517faa1d49a400000000000000000000000000000000000000000000000000000000815260048101829052602401610c10565b610fa88383611143565b505050565b306001600160a01b037f00000000000000000000000000000000000000000000000000000000000000001614610412576040517fe07c8dba00000000000000000000000000000000000000000000000000000000815260040160405180910390fd5b336110417f9016d09d72d40fdae2fd8ceac6b6234c7706214fd39c1cd1e609a0528c199300546001600160a01b031690565b6001600160a01b031614610412576040517f118cdaa7000000000000000000000000000000000000000000000000000000008152336004820152602401610c10565b7f9016d09d72d40fdae2fd8ceac6b6234c7706214fd39c1cd1e609a0528c199300805473ffffffffffffffffffffffffffffffffffffffff1981166001600160a01b03848116918217845560405192169182907f8be0079c531659141344cd1fd0a4f28419497f9722a3daafe3b4186f6b6457e0905f90a3505050565b611108611198565b610c22816111ff565b610412611198565b5f611125826012611823565b61113090600a611836565b61113a9084611719565b90505b92915050565b61114c82611207565b6040516001600160a01b038316907fbc7cd75a20ee27fd9adebab32041f755214dbc6bffa90cc0225b39da2e5c2d3b905f90a280511561119057610fa882826112a3565b6103cf61130c565b7ff0c57e16840df040f15088dc2f81fe391c3923bec73e23a9662efc9c229c6a005468010000000000000000900460ff16610412576040517fd7e6bcf800000000000000000000000000000000000000000000000000000000815260040160405180910390fd5b610bd2611198565b806001600160a01b03163b5f03611255576040517f4c9c8ce30000000000000000000000000000000000000000000000000000000081526001600160a01b0382166004820152602401610c10565b7f360894a13ba1a3210667c828492db98dca3e2076cc3735a920a3ca505d382bbc805473ffffffffffffffffffffffffffffffffffffffff19166001600160a01b0392909216919091179055565b60605f80846001600160a01b0316846040516112bf9190611841565b5f60405180830381855af49150503d805f81146112f7576040519150601f19603f3d011682016040523d82523d5f602084013e6112fc565b606091505b5091509150610bc1858383611344565b3415610412576040517fb398979f00000000000000000000000000000000000000000000000000000000815260040160405180910390fd5b60608261135957611354826113b9565b6103ad565b815115801561137057506001600160a01b0384163b155b156113b2576040517f9996b3150000000000000000000000000000000000000000000000000000000081526001600160a01b0385166004820152602401610c10565b50806103ad565b8051156113c95780518082602001fd5b6040517f1425ea4200000000000000000000000000000000000000000000000000000000815260040160405180910390fd5b6001600160a01b0381168114610c22575f80fd5b5f805f60608486031215611421575f80fd5b833561142c816113fb565b9250602084013561143c816113fb565b929592945050506040919091013590565b634e487b7160e01b5f52604160045260245ffd5b604051601f8201601f1916810167ffffffffffffffff8111828210171561148a5761148a61144d565b604052919050565b5f80604083850312156114a3575f80fd5b82356114ae816113fb565b915060208381013567ffffffffffffffff808211156114cb575f80fd5b818601915086601f8301126114de575f80fd5b8135818111156114f0576114f061144d565b61150284601f19601f84011601611461565b91508082528784828501011115611517575f80fd5b80848401858401375f848284010152508093505050509250929050565b5f8060408385031215611545575f80fd5b8235611550816113fb565b9150602083013567ffffffffffffffff8116811461156c575f80fd5b809150509250929050565b602081525f82518060208401528060208501604085015e5f604082850101526040601f19601f83011684010191505092915050565b5f602082840312156115bc575f80fd5b81356103ad816113fb565b5f602082840312156115d7575f80fd5b5051919050565b5f602082840312156115ee575f80fd5b815160ff811681146103ad575f80fd5b634e487b7160e01b5f52601160045260245ffd5b60ff828116828216039081111561113d5761113d6115fe565b600181815b8085111561166557815f190482111561164b5761164b6115fe565b8085161561165857918102915b93841c9390800290611630565b509250929050565b5f8261167b5750600161113d565b8161168757505f61113d565b816001811461169d57600281146116a7576116c3565b600191505061113d565b60ff8411156116b8576116b86115fe565b50506001821b61113d565b5060208310610133831016604e8410600b84101617156116e6575081810a61113d565b6116f0838361162b565b805f1904821115611703576117036115fe565b029392505050565b5f61113a60ff84168361166d565b808202811582820484141761113d5761113d6115fe565b5f60208284031215611740575f80fd5b81516103ad816113fb565b5f8261176557634e487b7160e01b5f52601260045260245ffd5b500490565b5f806040838503121561177b575f80fd5b8251915060208084015167ffffffffffffffff8082111561179a575f80fd5b818601915086601f8301126117ad575f80fd5b8151818111156117bf576117bf61144d565b8060051b91506117d0848301611461565b81815291830184019184810190898411156117e9575f80fd5b938501935b838510156118135784519250611803836113fb565b82825293850193908501906117ee565b8096505050505050509250929050565b8181038181111561113d5761113d6115fe565b5f61113a838361166d565b5f82518060208501845e5f92019182525091905056fea2646970667358221220ad774a817aa82879e21ab40ea4a3fb08493be0de5268a2bd06b10cde2ae02efd64736f6c63430008190033",
  "linkReferences": {},
  "deployedLinkReferences": {}
}