{
  "_format": "hh-sol-artifact-1",
  "contractName": "BaluniV1Oracle",
  "sourceName": "contracts/oracles/BaluniV1Oracle.sol",
  "abi": [
    {
      "inputs": [
        {
          "internalType": "address",
          "name": "target",
          "type": "address"
        }
      ],
      "name": "AddressEmptyCode",
      "type": "error"
    },
    {
      "inputs": [
        {
          "internalType": "address",
          "name": "implementation",
          "type": "address"
        }
      ],
      "name": "ERC1967InvalidImplementation",
      "type": "error"
    },
    {
      "inputs": [],
      "name": "ERC1967NonPayable",
      "type": "error"
    },
    {
      "inputs": [],
      "name": "FailedInnerCall",
      "type": "error"
    },
    {
      "inputs": [],
      "name": "InvalidInitialization",
      "type": "error"
    },
    {
      "inputs": [],
      "name": "NotInitializing",
      "type": "error"
    },
    {
      "inputs": [
        {
          "internalType": "address",
          "name": "owner",
          "type": "address"
        }
      ],
      "name": "OwnableInvalidOwner",
      "type": "error"
    },
    {
      "inputs": [
        {
          "internalType": "address",
          "name": "account",
          "type": "address"
        }
      ],
      "name": "OwnableUnauthorizedAccount",
      "type": "error"
    },
    {
      "inputs": [],
      "name": "UUPSUnauthorizedCallContext",
      "type": "error"
    },
    {
      "inputs": [
        {
          "internalType": "bytes32",
          "name": "slot",
          "type": "bytes32"
        }
      ],
      "name": "UUPSUnsupportedProxiableUUID",
      "type": "error"
    },
    {
      "anonymous": false,
      "inputs": [
        {
          "indexed": false,
          "internalType": "uint64",
          "name": "version",
          "type": "uint64"
        }
      ],
      "name": "Initialized",
      "type": "event"
    },
    {
      "anonymous": false,
      "inputs": [
        {
          "indexed": true,
          "internalType": "address",
          "name": "previousOwner",
          "type": "address"
        },
        {
          "indexed": true,
          "internalType": "address",
          "name": "newOwner",
          "type": "address"
        }
      ],
      "name": "OwnershipTransferred",
      "type": "event"
    },
    {
      "anonymous": false,
      "inputs": [
        {
          "indexed": true,
          "internalType": "address",
          "name": "implementation",
          "type": "address"
        }
      ],
      "name": "Upgraded",
      "type": "event"
    },
    {
      "inputs": [],
      "name": "UPGRADE_INTERFACE_VERSION",
      "outputs": [
        {
          "internalType": "string",
          "name": "",
          "type": "string"
        }
      ],
      "stateMutability": "view",
      "type": "function"
    },
    {
      "inputs": [
        {
          "internalType": "address",
          "name": "fromToken",
          "type": "address"
        },
        {
          "internalType": "address",
          "name": "toToken",
          "type": "address"
        },
        {
          "internalType": "uint256",
          "name": "amount",
          "type": "uint256"
        }
      ],
      "name": "convert",
      "outputs": [
        {
          "internalType": "uint256",
          "name": "valuation",
          "type": "uint256"
        }
      ],
      "stateMutability": "view",
      "type": "function"
    },
    {
      "inputs": [
        {
          "internalType": "address",
          "name": "fromToken",
          "type": "address"
        },
        {
          "internalType": "address",
          "name": "toToken",
          "type": "address"
        },
        {
          "internalType": "uint256",
          "name": "amount",
          "type": "uint256"
        }
      ],
      "name": "convertScaled",
      "outputs": [
        {
          "internalType": "uint256",
          "name": "valuation",
          "type": "uint256"
        }
      ],
      "stateMutability": "view",
      "type": "function"
    },
    {
      "inputs": [
        {
          "internalType": "address",
          "name": "fromToken",
          "type": "address"
        },
        {
          "internalType": "address",
          "name": "toToken",
          "type": "address"
        },
        {
          "internalType": "uint256",
          "name": "amount",
          "type": "uint256"
        }
      ],
      "name": "convertScaledWithAgg",
      "outputs": [
        {
          "internalType": "uint256",
          "name": "valuation",
          "type": "uint256"
        }
      ],
      "stateMutability": "view",
      "type": "function"
    },
    {
      "inputs": [
        {
          "internalType": "address",
          "name": "fromToken",
          "type": "address"
        },
        {
          "internalType": "address",
          "name": "toToken",
          "type": "address"
        },
        {
          "internalType": "uint256",
          "name": "amount",
          "type": "uint256"
        }
      ],
      "name": "convertScaledWithStaticOracle",
      "outputs": [
        {
          "internalType": "uint256",
          "name": "valuation",
          "type": "uint256"
        }
      ],
      "stateMutability": "view",
      "type": "function"
    },
    {
      "inputs": [
        {
          "internalType": "address",
          "name": "fromToken",
          "type": "address"
        },
        {
          "internalType": "address",
          "name": "toToken",
          "type": "address"
        },
        {
          "internalType": "uint256",
          "name": "amount",
          "type": "uint256"
        }
      ],
      "name": "convertWithAgg",
      "outputs": [
        {
          "internalType": "uint256",
          "name": "valuation",
          "type": "uint256"
        }
      ],
      "stateMutability": "view",
      "type": "function"
    },
    {
      "inputs": [
        {
          "internalType": "address",
          "name": "fromToken",
          "type": "address"
        },
        {
          "internalType": "address",
          "name": "toToken",
          "type": "address"
        },
        {
          "internalType": "uint256",
          "name": "amount",
          "type": "uint256"
        }
      ],
      "name": "convertWithStaticOracle",
      "outputs": [
        {
          "internalType": "uint256",
          "name": "valuation",
          "type": "uint256"
        }
      ],
      "stateMutability": "view",
      "type": "function"
    },
    {
      "inputs": [
        {
          "internalType": "address",
          "name": "_registry",
          "type": "address"
        }
      ],
      "name": "initialize",
      "outputs": [],
      "stateMutability": "nonpayable",
      "type": "function"
    },
    {
      "inputs": [
        {
          "internalType": "address",
          "name": "_address",
          "type": "address"
        },
        {
          "internalType": "uint256",
          "name": "amount",
          "type": "uint256"
        }
      ],
      "name": "isYearnVault",
      "outputs": [
        {
          "internalType": "address",
          "name": "",
          "type": "address"
        },
        {
          "internalType": "uint256",
          "name": "",
          "type": "uint256"
        }
      ],
      "stateMutability": "view",
      "type": "function"
    },
    {
      "inputs": [],
      "name": "owner",
      "outputs": [
        {
          "internalType": "address",
          "name": "",
          "type": "address"
        }
      ],
      "stateMutability": "view",
      "type": "function"
    },
    {
      "inputs": [],
      "name": "proxiableUUID",
      "outputs": [
        {
          "internalType": "bytes32",
          "name": "",
          "type": "bytes32"
        }
      ],
      "stateMutability": "view",
      "type": "function"
    },
    {
      "inputs": [],
      "name": "registry",
      "outputs": [
        {
          "internalType": "contract IBaluniV1Registry",
          "name": "",
          "type": "address"
        }
      ],
      "stateMutability": "view",
      "type": "function"
    },
    {
      "inputs": [
        {
          "internalType": "address",
          "name": "_registry",
          "type": "address"
        },
        {
          "internalType": "uint64",
          "name": "version",
          "type": "uint64"
        }
      ],
      "name": "reinitialize",
      "outputs": [],
      "stateMutability": "nonpayable",
      "type": "function"
    },
    {
      "inputs": [],
      "name": "renounceOwnership",
      "outputs": [],
      "stateMutability": "nonpayable",
      "type": "function"
    },
    {
      "inputs": [
        {
          "internalType": "address",
          "name": "newOwner",
          "type": "address"
        }
      ],
      "name": "transferOwnership",
      "outputs": [],
      "stateMutability": "nonpayable",
      "type": "function"
    },
    {
      "inputs": [
        {
          "internalType": "address",
          "name": "newImplementation",
          "type": "address"
        },
        {
          "internalType": "bytes",
          "name": "data",
          "type": "bytes"
        }
      ],
      "name": "upgradeToAndCall",
      "outputs": [],
      "stateMutability": "payable",
      "type": "function"
    }
  ],
  "bytecode": "0x60a0604052306080523480156012575f80fd5b50608051611f9e6100395f395f81816114c1015281816114ea015261169f0152611f9e5ff3fe6080604052600436106100ef575f3560e01c80638da5cb5b11610087578063c4d66de811610057578063c4d66de8146102e3578063ca66d9a814610302578063f2fde38b14610321578063fac0ba7414610340575f80fd5b80638da5cb5b146102145780638f2248bc14610250578063ad3cb1cc1461026f578063b27b5e75146102c4575f80fd5b8063715018a6116100c2578063715018a61461016d5780637b10399914610181578063805df6c4146101b75780638c41a354146101f5575f80fd5b80631f0e3cd2146100f3578063248391ff146101255780634f1ef2861461014457806352d1902d14610159575b5f80fd5b3480156100fe575f80fd5b5061011261010d366004611af6565b61035f565b6040519081526020015b60405180910390f35b348015610130575f80fd5b5061011261013f366004611af6565b61061f565b610157610152366004611b79565b6107dc565b005b348015610164575f80fd5b506101126107fb565b348015610178575f80fd5b50610157610829565b34801561018c575f80fd5b505f5461019f906001600160a01b031681565b6040516001600160a01b03909116815260200161011c565b3480156101c2575f80fd5b506101d66101d1366004611c1b565b61083c565b604080516001600160a01b03909316835260208301919091520161011c565b348015610200575f80fd5b5061011261020f366004611af6565b610a1c565b34801561021f575f80fd5b507f9016d09d72d40fdae2fd8ceac6b6234c7706214fd39c1cd1e609a0528c199300546001600160a01b031661019f565b34801561025b575f80fd5b5061015761026a366004611c45565b610da5565b34801561027a575f80fd5b506102b76040518060400160405280600581526020017f352e302e3000000000000000000000000000000000000000000000000000000081525081565b60405161011c9190611c88565b3480156102cf575f80fd5b506101126102de366004611af6565b610ef2565b3480156102ee575f80fd5b506101576102fd366004611cbd565b611040565b34801561030d575f80fd5b5061011261031c366004611af6565b6111c1565b34801561032c575f80fd5b5061015761033b366004611cbd565b6112b1565b34801561034b575f80fd5b5061011261035a366004611af6565b61130c565b5f826001600160a01b0316846001600160a01b031603610380575080610618565b5f805f9054906101000a90046001600160a01b03166001600160a01b0316638e1c3a8a6040518163ffffffff1660e01b8152600401602060405180830381865afa1580156103d0573d5f803e3d5ffd5b505050506040513d601f19601f820116820180604052508101906103f49190611cd8565b90505f856001600160a01b031663313ce5676040518163ffffffff1660e01b8152600401602060405180830381865afa158015610433573d5f803e3d5ffd5b505050506040513d601f19601f820116820180604052508101906104579190611cf3565b90505f856001600160a01b031663313ce5676040518163ffffffff1660e01b8152600401602060405180830381865afa158015610496573d5f803e3d5ffd5b505050506040513d601f19601f820116820180604052508101906104ba9190611cf3565b6040517f802431fb0000000000000000000000000000000000000000000000000000000081526001600160a01b03898116600483015288811660248301525f6044830181905292935085169063802431fb90606401602060405180830381865afa15801561052a573d5f803e3d5ffd5b505050506040513d601f19601f8201168201806040525081019061054e9190611d13565b905061055b82600a611e1e565b61056684600a611e1e565b6105709083611e2c565b61057a9190611e43565b90505f8260ff168460ff16106105d0576105948385611e62565b61059f90600a611e1e565b9050670de0b6b3a7640000826105b5838a611e43565b6105bf9190611e2c565b6105c99190611e43565b9550610612565b6105da8484611e62565b6105e590600a611e1e565b9050670de0b6b3a7640000826105fb838a611e2c565b6106059190611e2c565b61060f9190611e43565b95505b50505050505b9392505050565b5f805f61062c868561083c565b915091505f61063b865f61083c565b5090506001600160a01b0383161580159061065e57506001600160a01b03811615155b156106e357604051633eb02e9d60e21b81526001600160a01b0380851660048301528216602482015260448101839052309063fac0ba74906064015b602060405180830381865afa1580156106b5573d5f803e3d5ffd5b505050506040513d601f19601f820116820180604052508101906106d99190611d13565b9350505050610618565b6001600160a01b0383161580159061070257506001600160a01b038116155b1561074257604051633eb02e9d60e21b81526001600160a01b0380851660048301528716602482015260448101839052309063fac0ba749060640161069a565b6001600160a01b0381161580159061076157506001600160a01b038316155b156107a157604051633eb02e9d60e21b81526001600160a01b0380891660048301528216602482015260448101869052309063fac0ba749060640161069a565b604051633eb02e9d60e21b81526001600160a01b0380891660048301528716602482015260448101869052309063fac0ba749060640161069a565b6107e46114b6565b6107ed82611586565b6107f7828261158e565b5050565b5f610804611694565b507f360894a13ba1a3210667c828492db98dca3e2076cc3735a920a3ca505d382bbc90565b6108316116f6565b61083a5f61176a565b565b5f805f8490505f6001600160a01b0316816001600160a01b0316639db5df466040518163ffffffff1660e01b8152600401602060405180830381865afa158015610888573d5f803e3d5ffd5b505050506040513d601f19601f820116820180604052508101906108ac9190611cd8565b6001600160a01b0316036108c6575f809250925050610a15565b5f816001600160a01b0316639db5df466040518163ffffffff1660e01b8152600401602060405180830381865afa158015610903573d5f803e3d5ffd5b505050506040513d601f19601f820116820180604052508101906109279190611cd8565b6040517f07a2d13a000000000000000000000000000000000000000000000000000000008152600481018790529091505f906001600160a01b038316906307a2d13a90602401602060405180830381865afa158015610988573d5f803e3d5ffd5b505050506040513d601f19601f820116820180604052508101906109ac9190611d13565b9050816001600160a01b03166338d52e0f6040518163ffffffff1660e01b8152600401602060405180830381865afa1580156109ea573d5f803e3d5ffd5b505050506040513d601f19601f82011682018060405250810190610a0e9190611cd8565b9450925050505b9250929050565b5f826001600160a01b0316846001600160a01b031603610abd57826001600160a01b031663313ce5676040518163ffffffff1660e01b8152600401602060405180830381865afa158015610a72573d5f803e3d5ffd5b505050506040513d601f19601f82011682018060405250810190610a969190611cf3565b610aa1906012611e62565b610aac90600a611e1e565b610ab69083611e2c565b9050610618565b5f805f9054906101000a90046001600160a01b03166001600160a01b0316638e1c3a8a6040518163ffffffff1660e01b8152600401602060405180830381865afa158015610b0d573d5f803e3d5ffd5b505050506040513d601f19601f82011682018060405250810190610b319190611cd8565b90505f856001600160a01b031663313ce5676040518163ffffffff1660e01b8152600401602060405180830381865afa158015610b70573d5f803e3d5ffd5b505050506040513d601f19601f82011682018060405250810190610b949190611cf3565b90505f856001600160a01b031663313ce5676040518163ffffffff1660e01b8152600401602060405180830381865afa158015610bd3573d5f803e3d5ffd5b505050506040513d601f19601f82011682018060405250810190610bf79190611cf3565b6040517f802431fb0000000000000000000000000000000000000000000000000000000081526001600160a01b03898116600483015288811660248301525f6044830181905292935085169063802431fb90606401602060405180830381865afa158015610c67573d5f803e3d5ffd5b505050506040513d601f19601f82011682018060405250810190610c8b9190611d13565b9050610c9882600a611e1e565b610ca384600a611e1e565b610cad9083611e2c565b610cb79190611e43565b90505f8080610cc7856012611e62565b610cd290600a611e1e565b90508460ff168660ff1603610d0557670de0b6b3a7640000610cf4858b611e2c565b610cfe9190611e43565b9750610d8c565b8460ff168660ff161115610d4957610d1d8587611e62565b610d2890600a611e1e565b9250610d34838a611e43565b9150670de0b6b3a7640000610cf48584611e2c565b610d538686611e62565b610d5e90600a611e1e565b9250610d6a838a611e2c565b9150670de0b6b3a7640000610d7f8584611e2c565b610d899190611e43565b97505b610d968189611e2c565b9b9a5050505050505050505050565b7ff0c57e16840df040f15088dc2f81fe391c3923bec73e23a9662efc9c229c6a00805482919068010000000000000000900460ff1680610df35750805467ffffffffffffffff808416911610155b15610e2a576040517ff92ee8a900000000000000000000000000000000000000000000000000000000815260040160405180910390fd5b80547fffffffffffffffffffffffffffffffffffffffffffffff0000000000000000001667ffffffffffffffff83161768010000000000000000178155610e70336117e7565b610e786117f8565b5f805473ffffffffffffffffffffffffffffffffffffffff19166001600160a01b038616179055805468ff00000000000000001916815560405167ffffffffffffffff831681527fc7f505b2f371ae2175ee4913f4499e1f2633a7b5936321eed1cdaeb6115181d29060200160405180910390a150505050565b5f805f610eff868561083c565b915091505f610f0e865f61083c565b5090506001600160a01b03831615801590610f3157506001600160a01b03811615155b15610f715760405163194cdb3560e31b81526001600160a01b0380851660048301528216602482015260448101839052309063ca66d9a89060640161069a565b6001600160a01b03831615610fbb5760405163194cdb3560e31b81526001600160a01b0380851660048301528716602482015260448101839052309063ca66d9a89060640161069a565b6001600160a01b038116156110055760405163194cdb3560e31b81526001600160a01b0380891660048301528216602482015260448101869052309063ca66d9a89060640161069a565b60405163194cdb3560e31b81526001600160a01b0380891660048301528716602482015260448101869052309063ca66d9a89060640161069a565b7ff0c57e16840df040f15088dc2f81fe391c3923bec73e23a9662efc9c229c6a00805468010000000000000000810460ff16159067ffffffffffffffff165f8115801561108a5750825b90505f8267ffffffffffffffff1660011480156110a65750303b155b9050811580156110b4575080155b156110eb576040517ff92ee8a900000000000000000000000000000000000000000000000000000000815260040160405180910390fd5b84547fffffffffffffffffffffffffffffffffffffffffffffffff0000000000000000166001178555831561113657845468ff00000000000000001916680100000000000000001785555b61113f336117e7565b6111476117f8565b5f805473ffffffffffffffffffffffffffffffffffffffff19166001600160a01b03881617905583156111b957845468ff000000000000000019168555604051600181527fc7f505b2f371ae2175ee4913f4499e1f2633a7b5936321eed1cdaeb6115181d29060200160405180910390a15b505050505050565b604051633eb02e9d60e21b81526001600160a01b03808516600483015283166024820152604481018290525f908190309063fac0ba7490606401602060405180830381865afa158015611216573d5f803e3d5ffd5b505050506040513d601f19601f8201168201806040525081019061123a9190611d13565b90506112a881856001600160a01b031663313ce5676040518163ffffffff1660e01b8152600401602060405180830381865afa15801561127c573d5f803e3d5ffd5b505050506040513d601f19601f820116820180604052508101906112a09190611cf3565b60ff16611800565b95945050505050565b6112b96116f6565b6001600160a01b038116611300576040517f1e4fbdf70000000000000000000000000000000000000000000000000000000081525f60048201526024015b60405180910390fd5b6113098161176a565b50565b5f8054604080517fa5d2236f000000000000000000000000000000000000000000000000000000008152905183926001600160a01b03169163a5d2236f9160048083019260209291908290030181865afa15801561136c573d5f803e3d5ffd5b505050506040513d601f19601f820116820180604052508101906113909190611cd8565b90506001600160a01b038116611402576040517f08c379a000000000000000000000000000000000000000000000000000000000815260206004820152601460248201527f5374617469634f7261636c65206e6f742073657400000000000000000000000060448201526064016112f7565b6040517f0757bc810000000000000000000000000000000000000000000000000000000081526fffffffffffffffffffffffffffffffff841660048201526001600160a01b0386811660248301528581166044830152603c6064830152821690630757bc81906084015f60405180830381865afa158015611485573d5f803e3d5ffd5b505050506040513d5f823e601f3d908101601f191682016040526114ac9190810190611e7b565b5095945050505050565b306001600160a01b037f000000000000000000000000000000000000000000000000000000000000000016148061154f57507f00000000000000000000000000000000000000000000000000000000000000006001600160a01b03166115437f360894a13ba1a3210667c828492db98dca3e2076cc3735a920a3ca505d382bbc546001600160a01b031690565b6001600160a01b031614155b1561083a576040517fe07c8dba00000000000000000000000000000000000000000000000000000000815260040160405180910390fd5b6113096116f6565b816001600160a01b03166352d1902d6040518163ffffffff1660e01b8152600401602060405180830381865afa9250505080156115e8575060408051601f3d908101601f191682019092526115e591810190611d13565b60015b611629576040517f4c9c8ce30000000000000000000000000000000000000000000000000000000081526001600160a01b03831660048201526024016112f7565b7f360894a13ba1a3210667c828492db98dca3e2076cc3735a920a3ca505d382bbc8114611685576040517faa1d49a4000000000000000000000000000000000000000000000000000000008152600481018290526024016112f7565b61168f838361182a565b505050565b306001600160a01b037f0000000000000000000000000000000000000000000000000000000000000000161461083a576040517fe07c8dba00000000000000000000000000000000000000000000000000000000815260040160405180910390fd5b336117287f9016d09d72d40fdae2fd8ceac6b6234c7706214fd39c1cd1e609a0528c199300546001600160a01b031690565b6001600160a01b03161461083a576040517f118cdaa70000000000000000000000000000000000000000000000000000000081523360048201526024016112f7565b7f9016d09d72d40fdae2fd8ceac6b6234c7706214fd39c1cd1e609a0528c199300805473ffffffffffffffffffffffffffffffffffffffff1981166001600160a01b03848116918217845560405192169182907f8be0079c531659141344cd1fd0a4f28419497f9722a3daafe3b4186f6b6457e0905f90a3505050565b6117ef61187f565b611309816118e6565b61083a61187f565b5f61180c826012611f34565b61181790600a611f47565b6118219084611e2c565b90505b92915050565b611833826118ee565b6040516001600160a01b038316907fbc7cd75a20ee27fd9adebab32041f755214dbc6bffa90cc0225b39da2e5c2d3b905f90a28051156118775761168f828261198a565b6107f76119f3565b7ff0c57e16840df040f15088dc2f81fe391c3923bec73e23a9662efc9c229c6a005468010000000000000000900460ff1661083a576040517fd7e6bcf800000000000000000000000000000000000000000000000000000000815260040160405180910390fd5b6112b961187f565b806001600160a01b03163b5f0361193c576040517f4c9c8ce30000000000000000000000000000000000000000000000000000000081526001600160a01b03821660048201526024016112f7565b7f360894a13ba1a3210667c828492db98dca3e2076cc3735a920a3ca505d382bbc805473ffffffffffffffffffffffffffffffffffffffff19166001600160a01b0392909216919091179055565b60605f80846001600160a01b0316846040516119a69190611f52565b5f60405180830381855af49150503d805f81146119de576040519150601f19603f3d011682016040523d82523d5f602084013e6119e3565b606091505b50915091506112a8858383611a2b565b341561083a576040517fb398979f00000000000000000000000000000000000000000000000000000000815260040160405180910390fd5b606082611a4057611a3b82611aa0565b610618565b8151158015611a5757506001600160a01b0384163b155b15611a99576040517f9996b3150000000000000000000000000000000000000000000000000000000081526001600160a01b03851660048201526024016112f7565b5080610618565b805115611ab05780518082602001fd5b6040517f1425ea4200000000000000000000000000000000000000000000000000000000815260040160405180910390fd5b6001600160a01b0381168114611309575f80fd5b5f805f60608486031215611b08575f80fd5b8335611b1381611ae2565b92506020840135611b2381611ae2565b929592945050506040919091013590565b634e487b7160e01b5f52604160045260245ffd5b604051601f8201601f1916810167ffffffffffffffff81118282101715611b7157611b71611b34565b604052919050565b5f8060408385031215611b8a575f80fd5b8235611b9581611ae2565b915060208381013567ffffffffffffffff80821115611bb2575f80fd5b818601915086601f830112611bc5575f80fd5b813581811115611bd757611bd7611b34565b611be984601f19601f84011601611b48565b91508082528784828501011115611bfe575f80fd5b80848401858401375f848284010152508093505050509250929050565b5f8060408385031215611c2c575f80fd5b8235611c3781611ae2565b946020939093013593505050565b5f8060408385031215611c56575f80fd5b8235611c6181611ae2565b9150602083013567ffffffffffffffff81168114611c7d575f80fd5b809150509250929050565b602081525f82518060208401528060208501604085015e5f604082850101526040601f19601f83011684010191505092915050565b5f60208284031215611ccd575f80fd5b813561061881611ae2565b5f60208284031215611ce8575f80fd5b815161061881611ae2565b5f60208284031215611d03575f80fd5b815160ff81168114610618575f80fd5b5f60208284031215611d23575f80fd5b5051919050565b634e487b7160e01b5f52601160045260245ffd5b600181815b80851115611d7857815f1904821115611d5e57611d5e611d2a565b80851615611d6b57918102915b93841c9390800290611d43565b509250929050565b5f82611d8e57506001611824565b81611d9a57505f611824565b8160018114611db05760028114611dba57611dd6565b6001915050611824565b60ff841115611dcb57611dcb611d2a565b50506001821b611824565b5060208310610133831016604e8410600b8410161715611df9575081810a611824565b611e038383611d3e565b805f1904821115611e1657611e16611d2a565b029392505050565b5f61182160ff841683611d80565b808202811582820484141761182457611824611d2a565b5f82611e5d57634e487b7160e01b5f52601260045260245ffd5b500490565b60ff828116828216039081111561182457611824611d2a565b5f8060408385031215611e8c575f80fd5b8251915060208084015167ffffffffffffffff80821115611eab575f80fd5b818601915086601f830112611ebe575f80fd5b815181811115611ed057611ed0611b34565b8060051b9150611ee1848301611b48565b8181529183018401918481019089841115611efa575f80fd5b938501935b83851015611f245784519250611f1483611ae2565b8282529385019390850190611eff565b8096505050505050509250929050565b8181038181111561182457611824611d2a565b5f6118218383611d80565b5f82518060208501845e5f92019182525091905056fea2646970667358221220c7292250c371bdd092de358a9e5e5ba9be503610d9f86d569453f26c55b049b464736f6c63430008190033",
  "linkReferences": {},
  "deployedLinkReferences": {}
}