{
  "_format": "hh-sol-artifact-1",
  "contractName": "BaluniV1Registry",
  "sourceName": "contracts/registry/BaluniV1Registry.sol",
  "abi": [
    {
      "inputs": [
        {
          "internalType": "address",
          "name": "target",
          "type": "address"
        }
      ],
      "name": "AddressEmptyCode",
      "type": "error"
    },
    {
      "inputs": [
        {
          "internalType": "address",
          "name": "implementation",
          "type": "address"
        }
      ],
      "name": "ERC1967InvalidImplementation",
      "type": "error"
    },
    {
      "inputs": [],
      "name": "ERC1967NonPayable",
      "type": "error"
    },
    {
      "inputs": [],
      "name": "FailedInnerCall",
      "type": "error"
    },
    {
      "inputs": [],
      "name": "InvalidInitialization",
      "type": "error"
    },
    {
      "inputs": [],
      "name": "NotInitializing",
      "type": "error"
    },
    {
      "inputs": [
        {
          "internalType": "address",
          "name": "owner",
          "type": "address"
        }
      ],
      "name": "OwnableInvalidOwner",
      "type": "error"
    },
    {
      "inputs": [
        {
          "internalType": "address",
          "name": "account",
          "type": "address"
        }
      ],
      "name": "OwnableUnauthorizedAccount",
      "type": "error"
    },
    {
      "inputs": [],
      "name": "UUPSUnauthorizedCallContext",
      "type": "error"
    },
    {
      "inputs": [
        {
          "internalType": "bytes32",
          "name": "slot",
          "type": "bytes32"
        }
      ],
      "name": "UUPSUnsupportedProxiableUUID",
      "type": "error"
    },
    {
      "anonymous": false,
      "inputs": [
        {
          "indexed": false,
          "internalType": "uint64",
          "name": "version",
          "type": "uint64"
        }
      ],
      "name": "Initialized",
      "type": "event"
    },
    {
      "anonymous": false,
      "inputs": [
        {
          "indexed": true,
          "internalType": "address",
          "name": "previousOwner",
          "type": "address"
        },
        {
          "indexed": true,
          "internalType": "address",
          "name": "newOwner",
          "type": "address"
        }
      ],
      "name": "OwnershipTransferred",
      "type": "event"
    },
    {
      "anonymous": false,
      "inputs": [
        {
          "indexed": true,
          "internalType": "address",
          "name": "implementation",
          "type": "address"
        }
      ],
      "name": "Upgraded",
      "type": "event"
    },
    {
      "inputs": [],
      "name": "UPGRADE_INTERFACE_VERSION",
      "outputs": [
        {
          "internalType": "string",
          "name": "",
          "type": "string"
        }
      ],
      "stateMutability": "view",
      "type": "function"
    },
    {
      "inputs": [],
      "name": "USDC",
      "outputs": [
        {
          "internalType": "address",
          "name": "",
          "type": "address"
        }
      ],
      "stateMutability": "view",
      "type": "function"
    },
    {
      "inputs": [],
      "name": "WNATIVE",
      "outputs": [
        {
          "internalType": "address",
          "name": "",
          "type": "address"
        }
      ],
      "stateMutability": "view",
      "type": "function"
    },
    {
      "inputs": [],
      "name": "_1inchSpotAgg",
      "outputs": [
        {
          "internalType": "address",
          "name": "",
          "type": "address"
        }
      ],
      "stateMutability": "view",
      "type": "function"
    },
    {
      "inputs": [],
      "name": "_BPS_BASE",
      "outputs": [
        {
          "internalType": "uint256",
          "name": "",
          "type": "uint256"
        }
      ],
      "stateMutability": "view",
      "type": "function"
    },
    {
      "inputs": [],
      "name": "_BPS_FEE",
      "outputs": [
        {
          "internalType": "uint256",
          "name": "",
          "type": "uint256"
        }
      ],
      "stateMutability": "view",
      "type": "function"
    },
    {
      "inputs": [],
      "name": "_MAX_BPS_FEE",
      "outputs": [
        {
          "internalType": "uint256",
          "name": "",
          "type": "uint256"
        }
      ],
      "stateMutability": "view",
      "type": "function"
    },
    {
      "inputs": [],
      "name": "_REBALANCE_THRESHOLD",
      "outputs": [
        {
          "internalType": "uint256",
          "name": "",
          "type": "uint256"
        }
      ],
      "stateMutability": "view",
      "type": "function"
    },
    {
      "inputs": [],
      "name": "baluniAgentFactory",
      "outputs": [
        {
          "internalType": "address",
          "name": "",
          "type": "address"
        }
      ],
      "stateMutability": "view",
      "type": "function"
    },
    {
      "inputs": [],
      "name": "baluniDCAVaultRegistry",
      "outputs": [
        {
          "internalType": "address",
          "name": "",
          "type": "address"
        }
      ],
      "stateMutability": "view",
      "type": "function"
    },
    {
      "inputs": [],
      "name": "baluniHyperPoolZap",
      "outputs": [
        {
          "internalType": "address",
          "name": "",
          "type": "address"
        }
      ],
      "stateMutability": "view",
      "type": "function"
    },
    {
      "inputs": [],
      "name": "baluniOracle",
      "outputs": [
        {
          "internalType": "address",
          "name": "",
          "type": "address"
        }
      ],
      "stateMutability": "view",
      "type": "function"
    },
    {
      "inputs": [],
      "name": "baluniPoolPeriphery",
      "outputs": [
        {
          "internalType": "address",
          "name": "",
          "type": "address"
        }
      ],
      "stateMutability": "view",
      "type": "function"
    },
    {
      "inputs": [],
      "name": "baluniPoolRegistry",
      "outputs": [
        {
          "internalType": "address",
          "name": "",
          "type": "address"
        }
      ],
      "stateMutability": "view",
      "type": "function"
    },
    {
      "inputs": [],
      "name": "baluniPoolZap",
      "outputs": [
        {
          "internalType": "address",
          "name": "",
          "type": "address"
        }
      ],
      "stateMutability": "view",
      "type": "function"
    },
    {
      "inputs": [],
      "name": "baluniRebalancer",
      "outputs": [
        {
          "internalType": "address",
          "name": "",
          "type": "address"
        }
      ],
      "stateMutability": "view",
      "type": "function"
    },
    {
      "inputs": [],
      "name": "baluniRegistry",
      "outputs": [
        {
          "internalType": "address",
          "name": "",
          "type": "address"
        }
      ],
      "stateMutability": "view",
      "type": "function"
    },
    {
      "inputs": [],
      "name": "baluniRouter",
      "outputs": [
        {
          "internalType": "address",
          "name": "",
          "type": "address"
        }
      ],
      "stateMutability": "view",
      "type": "function"
    },
    {
      "inputs": [],
      "name": "baluniSwapper",
      "outputs": [
        {
          "internalType": "address",
          "name": "",
          "type": "address"
        }
      ],
      "stateMutability": "view",
      "type": "function"
    },
    {
      "inputs": [],
      "name": "baluniYearnVaultRegistry",
      "outputs": [
        {
          "internalType": "address",
          "name": "",
          "type": "address"
        }
      ],
      "stateMutability": "view",
      "type": "function"
    },
    {
      "inputs": [],
      "name": "get1inchSpotAgg",
      "outputs": [
        {
          "internalType": "address",
          "name": "",
          "type": "address"
        }
      ],
      "stateMutability": "view",
      "type": "function"
    },
    {
      "inputs": [],
      "name": "getBPS_BASE",
      "outputs": [
        {
          "internalType": "uint256",
          "name": "",
          "type": "uint256"
        }
      ],
      "stateMutability": "view",
      "type": "function"
    },
    {
      "inputs": [],
      "name": "getBPS_FEE",
      "outputs": [
        {
          "internalType": "uint256",
          "name": "",
          "type": "uint256"
        }
      ],
      "stateMutability": "view",
      "type": "function"
    },
    {
      "inputs": [],
      "name": "getBaluniAgentFactory",
      "outputs": [
        {
          "internalType": "address",
          "name": "",
          "type": "address"
        }
      ],
      "stateMutability": "view",
      "type": "function"
    },
    {
      "inputs": [],
      "name": "getBaluniDCAVaultRegistry",
      "outputs": [
        {
          "internalType": "address",
          "name": "",
          "type": "address"
        }
      ],
      "stateMutability": "view",
      "type": "function"
    },
    {
      "inputs": [],
      "name": "getBaluniHyperPoolZap",
      "outputs": [
        {
          "internalType": "address",
          "name": "",
          "type": "address"
        }
      ],
      "stateMutability": "view",
      "type": "function"
    },
    {
      "inputs": [],
      "name": "getBaluniOracle",
      "outputs": [
        {
          "internalType": "address",
          "name": "",
          "type": "address"
        }
      ],
      "stateMutability": "view",
      "type": "function"
    },
    {
      "inputs": [],
      "name": "getBaluniPoolPeriphery",
      "outputs": [
        {
          "internalType": "address",
          "name": "",
          "type": "address"
        }
      ],
      "stateMutability": "view",
      "type": "function"
    },
    {
      "inputs": [],
      "name": "getBaluniPoolRegistry",
      "outputs": [
        {
          "internalType": "address",
          "name": "",
          "type": "address"
        }
      ],
      "stateMutability": "view",
      "type": "function"
    },
    {
      "inputs": [],
      "name": "getBaluniPoolZap",
      "outputs": [
        {
          "internalType": "address",
          "name": "",
          "type": "address"
        }
      ],
      "stateMutability": "view",
      "type": "function"
    },
    {
      "inputs": [],
      "name": "getBaluniRebalancer",
      "outputs": [
        {
          "internalType": "address",
          "name": "",
          "type": "address"
        }
      ],
      "stateMutability": "view",
      "type": "function"
    },
    {
      "inputs": [],
      "name": "getBaluniRegistry",
      "outputs": [
        {
          "internalType": "address",
          "name": "",
          "type": "address"
        }
      ],
      "stateMutability": "view",
      "type": "function"
    },
    {
      "inputs": [],
      "name": "getBaluniRouter",
      "outputs": [
        {
          "internalType": "address",
          "name": "",
          "type": "address"
        }
      ],
      "stateMutability": "view",
      "type": "function"
    },
    {
      "inputs": [],
      "name": "getBaluniSwapper",
      "outputs": [
        {
          "internalType": "address",
          "name": "",
          "type": "address"
        }
      ],
      "stateMutability": "view",
      "type": "function"
    },
    {
      "inputs": [],
      "name": "getBaluniYearnVaultRegistry",
      "outputs": [
        {
          "internalType": "address",
          "name": "",
          "type": "address"
        }
      ],
      "stateMutability": "view",
      "type": "function"
    },
    {
      "inputs": [],
      "name": "getMAX_BPS_FEE",
      "outputs": [
        {
          "internalType": "uint256",
          "name": "",
          "type": "uint256"
        }
      ],
      "stateMutability": "view",
      "type": "function"
    },
    {
      "inputs": [],
      "name": "getREBALANCE_THRESHOLD",
      "outputs": [
        {
          "internalType": "uint256",
          "name": "",
          "type": "uint256"
        }
      ],
      "stateMutability": "view",
      "type": "function"
    },
    {
      "inputs": [],
      "name": "getStaticOracle",
      "outputs": [
        {
          "internalType": "address",
          "name": "",
          "type": "address"
        }
      ],
      "stateMutability": "view",
      "type": "function"
    },
    {
      "inputs": [],
      "name": "getTreasury",
      "outputs": [
        {
          "internalType": "address",
          "name": "",
          "type": "address"
        }
      ],
      "stateMutability": "view",
      "type": "function"
    },
    {
      "inputs": [],
      "name": "getUSDC",
      "outputs": [
        {
          "internalType": "address",
          "name": "",
          "type": "address"
        }
      ],
      "stateMutability": "view",
      "type": "function"
    },
    {
      "inputs": [],
      "name": "getUniswapFactory",
      "outputs": [
        {
          "internalType": "address",
          "name": "",
          "type": "address"
        }
      ],
      "stateMutability": "view",
      "type": "function"
    },
    {
      "inputs": [],
      "name": "getUniswapQuoter",
      "outputs": [
        {
          "internalType": "address",
          "name": "",
          "type": "address"
        }
      ],
      "stateMutability": "view",
      "type": "function"
    },
    {
      "inputs": [],
      "name": "getUniswapRouter",
      "outputs": [
        {
          "internalType": "address",
          "name": "",
          "type": "address"
        }
      ],
      "stateMutability": "view",
      "type": "function"
    },
    {
      "inputs": [],
      "name": "getWNATIVE",
      "outputs": [
        {
          "internalType": "address",
          "name": "",
          "type": "address"
        }
      ],
      "stateMutability": "view",
      "type": "function"
    },
    {
      "inputs": [],
      "name": "initialize",
      "outputs": [],
      "stateMutability": "nonpayable",
      "type": "function"
    },
    {
      "inputs": [],
      "name": "owner",
      "outputs": [
        {
          "internalType": "address",
          "name": "",
          "type": "address"
        }
      ],
      "stateMutability": "view",
      "type": "function"
    },
    {
      "inputs": [],
      "name": "proxiableUUID",
      "outputs": [
        {
          "internalType": "bytes32",
          "name": "",
          "type": "bytes32"
        }
      ],
      "stateMutability": "view",
      "type": "function"
    },
    {
      "inputs": [],
      "name": "renounceOwnership",
      "outputs": [],
      "stateMutability": "nonpayable",
      "type": "function"
    },
    {
      "inputs": [
        {
          "internalType": "address",
          "name": "__1inchSpotAgg",
          "type": "address"
        }
      ],
      "name": "set1inchSpotAgg",
      "outputs": [],
      "stateMutability": "nonpayable",
      "type": "function"
    },
    {
      "inputs": [
        {
          "internalType": "uint256",
          "name": "__BPS_FEE",
          "type": "uint256"
        }
      ],
      "name": "setBPS_FEE",
      "outputs": [],
      "stateMutability": "nonpayable",
      "type": "function"
    },
    {
      "inputs": [
        {
          "internalType": "address",
          "name": "_baluniAgentFactory",
          "type": "address"
        }
      ],
      "name": "setBaluniAgentFactory",
      "outputs": [],
      "stateMutability": "nonpayable",
      "type": "function"
    },
    {
      "inputs": [
        {
          "internalType": "address",
          "name": "_baluniDCAVaultRegistry",
          "type": "address"
        }
      ],
      "name": "setBaluniDCAVaultRegistry",
      "outputs": [],
      "stateMutability": "nonpayable",
      "type": "function"
    },
    {
      "inputs": [
        {
          "internalType": "address",
          "name": "_baluniHyperPoolZap",
          "type": "address"
        }
      ],
      "name": "setBaluniHyperPoolZap",
      "outputs": [],
      "stateMutability": "nonpayable",
      "type": "function"
    },
    {
      "inputs": [
        {
          "internalType": "address",
          "name": "_baluniOracle",
          "type": "address"
        }
      ],
      "name": "setBaluniOracle",
      "outputs": [],
      "stateMutability": "nonpayable",
      "type": "function"
    },
    {
      "inputs": [
        {
          "internalType": "address",
          "name": "_baluniPoolPeriphery",
          "type": "address"
        }
      ],
      "name": "setBaluniPoolPeriphery",
      "outputs": [],
      "stateMutability": "nonpayable",
      "type": "function"
    },
    {
      "inputs": [
        {
          "internalType": "address",
          "name": "_baluniPoolRegistry",
          "type": "address"
        }
      ],
      "name": "setBaluniPoolRegistry",
      "outputs": [],
      "stateMutability": "nonpayable",
      "type": "function"
    },
    {
      "inputs": [
        {
          "internalType": "address",
          "name": "_baluniPoolZap",
          "type": "address"
        }
      ],
      "name": "setBaluniPoolZap",
      "outputs": [],
      "stateMutability": "nonpayable",
      "type": "function"
    },
    {
      "inputs": [
        {
          "internalType": "address",
          "name": "_baluniRebalancer",
          "type": "address"
        }
      ],
      "name": "setBaluniRebalancer",
      "outputs": [],
      "stateMutability": "nonpayable",
      "type": "function"
    },
    {
      "inputs": [
        {
          "internalType": "address",
          "name": "_baluniRegistry",
          "type": "address"
        }
      ],
      "name": "setBaluniRegistry",
      "outputs": [],
      "stateMutability": "nonpayable",
      "type": "function"
    },
    {
      "inputs": [
        {
          "internalType": "address",
          "name": "_baluniRouter",
          "type": "address"
        }
      ],
      "name": "setBaluniRouter",
      "outputs": [],
      "stateMutability": "nonpayable",
      "type": "function"
    },
    {
      "inputs": [
        {
          "internalType": "address",
          "name": "_baluniSwapper",
          "type": "address"
        }
      ],
      "name": "setBaluniSwapper",
      "outputs": [],
      "stateMutability": "nonpayable",
      "type": "function"
    },
    {
      "inputs": [
        {
          "internalType": "address",
          "name": "_baluniYearnVaultRegistry",
          "type": "address"
        }
      ],
      "name": "setBaluniYearnVaultRegistry",
      "outputs": [],
      "stateMutability": "nonpayable",
      "type": "function"
    },
    {
      "inputs": [
        {
          "internalType": "uint256",
          "name": "__REBALANCE_THRESHOLD",
          "type": "uint256"
        }
      ],
      "name": "setREBALANCE_THRESHOLD",
      "outputs": [],
      "stateMutability": "nonpayable",
      "type": "function"
    },
    {
      "inputs": [
        {
          "internalType": "address",
          "name": "_staticOracle",
          "type": "address"
        }
      ],
      "name": "setStaticOracle",
      "outputs": [],
      "stateMutability": "nonpayable",
      "type": "function"
    },
    {
      "inputs": [
        {
          "internalType": "address",
          "name": "_treasury",
          "type": "address"
        }
      ],
      "name": "setTreasury",
      "outputs": [],
      "stateMutability": "nonpayable",
      "type": "function"
    },
    {
      "inputs": [
        {
          "internalType": "address",
          "name": "_USDC",
          "type": "address"
        }
      ],
      "name": "setUSDC",
      "outputs": [],
      "stateMutability": "nonpayable",
      "type": "function"
    },
    {
      "inputs": [
        {
          "internalType": "address",
          "name": "_uniswapFactory",
          "type": "address"
        }
      ],
      "name": "setUniswapFactory",
      "outputs": [],
      "stateMutability": "nonpayable",
      "type": "function"
    },
    {
      "inputs": [
        {
          "internalType": "address",
          "name": "_uniswapQuoter",
          "type": "address"
        }
      ],
      "name": "setUniswapQuoter",
      "outputs": [],
      "stateMutability": "nonpayable",
      "type": "function"
    },
    {
      "inputs": [
        {
          "internalType": "address",
          "name": "_uniswapRouter",
          "type": "address"
        }
      ],
      "name": "setUniswapRouter",
      "outputs": [],
      "stateMutability": "nonpayable",
      "type": "function"
    },
    {
      "inputs": [
        {
          "internalType": "address",
          "name": "_WNATIVE",
          "type": "address"
        }
      ],
      "name": "setWNATIVE",
      "outputs": [],
      "stateMutability": "nonpayable",
      "type": "function"
    },
    {
      "inputs": [],
      "name": "staticOracle",
      "outputs": [
        {
          "internalType": "address",
          "name": "",
          "type": "address"
        }
      ],
      "stateMutability": "view",
      "type": "function"
    },
    {
      "inputs": [
        {
          "internalType": "address",
          "name": "newOwner",
          "type": "address"
        }
      ],
      "name": "transferOwnership",
      "outputs": [],
      "stateMutability": "nonpayable",
      "type": "function"
    },
    {
      "inputs": [],
      "name": "treasury",
      "outputs": [
        {
          "internalType": "address",
          "name": "",
          "type": "address"
        }
      ],
      "stateMutability": "view",
      "type": "function"
    },
    {
      "inputs": [],
      "name": "uniswapFactory",
      "outputs": [
        {
          "internalType": "address",
          "name": "",
          "type": "address"
        }
      ],
      "stateMutability": "view",
      "type": "function"
    },
    {
      "inputs": [],
      "name": "uniswapQuoter",
      "outputs": [
        {
          "internalType": "address",
          "name": "",
          "type": "address"
        }
      ],
      "stateMutability": "view",
      "type": "function"
    },
    {
      "inputs": [],
      "name": "uniswapRouter",
      "outputs": [
        {
          "internalType": "address",
          "name": "",
          "type": "address"
        }
      ],
      "stateMutability": "view",
      "type": "function"
    },
    {
      "inputs": [
        {
          "internalType": "address",
          "name": "newImplementation",
          "type": "address"
        },
        {
          "internalType": "bytes",
          "name": "data",
          "type": "bytes"
        }
      ],
      "name": "upgradeToAndCall",
      "outputs": [],
      "stateMutability": "payable",
      "type": "function"
    }
  ],
  "bytecode": "0x60a0806040523460295730608052611ac5908161002e823960805181818161120101526112fe0152f35b5f80fdfe6080604090808252600480361015610015575f80fd5b5f3560e01c9182630218ecd61461176a575081630241bffa14611706578163040f767e146111a557816304cc73251461161b5781630f21717d14610c0e5781631292f02e146104075781631acb61411461110d5781631bf01e9b14610d7e57816326158136146116a25781632da524421461168357816332327d1f1461164f57816332569e021461158557816334decfc914610c4257816339b651401461161b5781633b19e84a146110d95781633e6dfa3614610d4b578163400fb668146115b7578163468a7071146108a25781634b66a135146115855781634db4a35214610a545781634f1ef286146112765781634f4608a214610db2578163524900b514610fa357816352d1902d146111d95781635333c118146111a5578163588c5b701461114157816358a672331461110d57816361d027b3146110d95781636c43274c146110755781636c9c007814610a20578163715018a614610fd7578163735de9f714610fa3578163782dd90214610cc45781637dfb7ea114610dd05781638129fc1c14610e0457816382755ebb14610dd05781638537718814610db257816385462d6f1461093a57816389a3027114610d7e5781638bdb2afa14610d4b5781638da5cb5b14610cf85781638e1c3a8a14610cc45781638ffc067314610c605781639380fb6f14610c425781639454705f14610b5757816399c22ca6146105925781639d9a9d4714610c0e5781639e6453f814610bef578163a23dccee14610b8b578163a5d2236f14610b57578163ad3cb1cc14610a88578163b0a7097514610a54578163b381cf4014610a20578163b3e089a2146109bc578163b691a419146106de578163b6fe9cc714610958578163b9f5e6171461093a578163ba535c54146108d6578163bb3ba04c146108a2578163bea9849e1461083e578163c08f786b146107da578163c3f5df5c14610776578163c9aba8ae146105b0578163cc01e9a614610712578163cff49d68146106de578163d7e536731461067a578163e04b677f14610618578163e23d837b146105e4578163e528ca12146105b0578163ea233c0514610592578163f0f442601461052e578163f1dccde7146104ca578163f2fde38b1461049f578163f5b84f641461043b578163f5d2d99814610407578163f98977a9146103a6575063ffa08e951461036f575f80fd5b346103a2575f6003193601126103a25760209073ffffffffffffffffffffffffffffffffffffffff600b54169051908152f35b5f80fd5b346103a25760206003193601126103a25773ffffffffffffffffffffffffffffffffffffffff6103d461179a565b6103dc611926565b82547fffffffffffffffffffffffff0000000000000000000000000000000000000000169116179055005b82346103a2575f6003193601126103a25760209073ffffffffffffffffffffffffffffffffffffffff600254169051908152f35b346103a25760206003193601126103a25773ffffffffffffffffffffffffffffffffffffffff61046961179a565b610471611926565b167fffffffffffffffffffffffff000000000000000000000000000000000000000060085416176008555f80f35b346103a25760206003193601126103a2576104c86104bb61179a565b6104c3611926565b611865565b005b346103a25760206003193601126103a25773ffffffffffffffffffffffffffffffffffffffff6104f861179a565b610500611926565b167fffffffffffffffffffffffff000000000000000000000000000000000000000060025416176002555f80f35b346103a25760206003193601126103a25773ffffffffffffffffffffffffffffffffffffffff61055c61179a565b610564611926565b167fffffffffffffffffffffffff0000000000000000000000000000000000000000600c541617600c555f80f35b82346103a2575f6003193601126103a2576020906014549051908152f35b82346103a2575f6003193601126103a25760209073ffffffffffffffffffffffffffffffffffffffff600754169051908152f35b82346103a2575f6003193601126103a25760209073ffffffffffffffffffffffffffffffffffffffff600b54169051908152f35b346103a25760206003193601126103a25773ffffffffffffffffffffffffffffffffffffffff61064661179a565b61064e611926565b167fffffffffffffffffffffffff00000000000000000000000000000000000000005f5416175f555f80f35b346103a25760206003193601126103a25773ffffffffffffffffffffffffffffffffffffffff6106a861179a565b6106b0611926565b167fffffffffffffffffffffffff0000000000000000000000000000000000000000600b541617600b555f80f35b82346103a2575f6003193601126103a25760209073ffffffffffffffffffffffffffffffffffffffff600554169051908152f35b346103a25760206003193601126103a25773ffffffffffffffffffffffffffffffffffffffff61074061179a565b610748611926565b167fffffffffffffffffffffffff0000000000000000000000000000000000000000600d541617600d555f80f35b346103a25760206003193601126103a25773ffffffffffffffffffffffffffffffffffffffff6107a461179a565b6107ac611926565b167fffffffffffffffffffffffff000000000000000000000000000000000000000060095416176009555f80f35b346103a25760206003193601126103a25773ffffffffffffffffffffffffffffffffffffffff61080861179a565b610810611926565b167fffffffffffffffffffffffff000000000000000000000000000000000000000060105416176010555f80f35b346103a25760206003193601126103a25773ffffffffffffffffffffffffffffffffffffffff61086c61179a565b610874611926565b167fffffffffffffffffffffffff000000000000000000000000000000000000000060015416176001555f80f35b82346103a2575f6003193601126103a25760209073ffffffffffffffffffffffffffffffffffffffff600854169051908152f35b346103a25760206003193601126103a25773ffffffffffffffffffffffffffffffffffffffff61090461179a565b61090c611926565b167fffffffffffffffffffffffff0000000000000000000000000000000000000000600a541617600a555f80f35b82346103a2575f6003193601126103a2576020906012549051908152f35b346103a25760206003193601126103a25773ffffffffffffffffffffffffffffffffffffffff61098661179a565b61098e611926565b167fffffffffffffffffffffffff0000000000000000000000000000000000000000600e541617600e555f80f35b346103a25760206003193601126103a25773ffffffffffffffffffffffffffffffffffffffff6109ea61179a565b6109f2611926565b167fffffffffffffffffffffffff0000000000000000000000000000000000000000600f541617600f555f80f35b82346103a2575f6003193601126103a25760209073ffffffffffffffffffffffffffffffffffffffff600e54169051908152f35b82346103a2575f6003193601126103a25760209073ffffffffffffffffffffffffffffffffffffffff601554169051908152f35b82346103a2575f6003193601126103a2578051918183019083821067ffffffffffffffff831117610b2b575081526005825260208201917f352e302e3000000000000000000000000000000000000000000000000000000083527fffffffffffffffffffffffffffffffffffffffffffffffffffffffffffffffe0601f8351948593602085525180918160208701528686015e5f85828601015201168101030190f35b6041907f4e487b71000000000000000000000000000000000000000000000000000000005f525260245ffd5b82346103a2575f6003193601126103a25760209073ffffffffffffffffffffffffffffffffffffffff600d54169051908152f35b346103a25760206003193601126103a25773ffffffffffffffffffffffffffffffffffffffff610bb961179a565b610bc1611926565b167fffffffffffffffffffffffff000000000000000000000000000000000000000060175416176017555f80f35b346103a25760206003193601126103a257610c08611926565b35601255005b82346103a2575f6003193601126103a25760209073ffffffffffffffffffffffffffffffffffffffff601754169051908152f35b82346103a2575f6003193601126103a2576020906011549051908152f35b346103a25760206003193601126103a25773ffffffffffffffffffffffffffffffffffffffff610c8e61179a565b610c96611926565b167fffffffffffffffffffffffff000000000000000000000000000000000000000060165416176016555f80f35b82346103a2575f6003193601126103a25760209073ffffffffffffffffffffffffffffffffffffffff601054169051908152f35b82346103a2575f6003193601126103a25760209073ffffffffffffffffffffffffffffffffffffffff7f9016d09d72d40fdae2fd8ceac6b6234c7706214fd39c1cd1e609a0528c19930054169051908152f35b82346103a2575f6003193601126103a25760209073ffffffffffffffffffffffffffffffffffffffff5f54169051908152f35b82346103a2575f6003193601126103a25760209073ffffffffffffffffffffffffffffffffffffffff600f54169051908152f35b82346103a2575f6003193601126103a2576020906013549051908152f35b82346103a2575f6003193601126103a25760209073ffffffffffffffffffffffffffffffffffffffff600954169051908152f35b9050346103a2575f6003193601126103a2577ff0c57e16840df040f15088dc2f81fe391c3923bec73e23a9662efc9c229c6a0090815460ff81851c16159167ffffffffffffffff821680159081610f9b575b6001149081610f91575b159081610f88575b50610f6157508160017fffffffffffffffffffffffffffffffffffffffffffffffff00000000000000008316178455610f2c575b50610ea5611996565b610ead611996565b610eb633611865565b610ebe611996565b6064601155601e6012556127106013556064601455610ed957005b7fc7f505b2f371ae2175ee4913f4499e1f2633a7b5936321eed1cdaeb6115181d291817fffffffffffffffffffffffffffffffffffffffffffffff00ffffffffffffffff602093541690555160018152a1005b7fffffffffffffffffffffffffffffffffffffffffffffff00000000000000000016680100000000000000011782555f610e9c565b84517ff92ee8a9000000000000000000000000000000000000000000000000000000008152fd5b9050155f610e68565b303b159150610e60565b849150610e56565b82346103a2575f6003193601126103a25760209073ffffffffffffffffffffffffffffffffffffffff600154169051908152f35b346103a2575f6003193601126103a257610fef611926565b5f73ffffffffffffffffffffffffffffffffffffffff7f9016d09d72d40fdae2fd8ceac6b6234c7706214fd39c1cd1e609a0528c1993008054907fffffffffffffffffffffffff000000000000000000000000000000000000000082169055167f8be0079c531659141344cd1fd0a4f28419497f9722a3daafe3b4186f6b6457e08280a3005b346103a25760206003193601126103a25773ffffffffffffffffffffffffffffffffffffffff6110a361179a565b6110ab611926565b167fffffffffffffffffffffffff000000000000000000000000000000000000000060075416176007555f80f35b82346103a2575f6003193601126103a25760209073ffffffffffffffffffffffffffffffffffffffff600c54169051908152f35b82346103a2575f6003193601126103a25760209073ffffffffffffffffffffffffffffffffffffffff600354169051908152f35b346103a25760206003193601126103a25773ffffffffffffffffffffffffffffffffffffffff61116f61179a565b611177611926565b167fffffffffffffffffffffffff000000000000000000000000000000000000000060035416176003555f80f35b82346103a2575f6003193601126103a25760209073ffffffffffffffffffffffffffffffffffffffff601654169051908152f35b82346103a2575f6003193601126103a25773ffffffffffffffffffffffffffffffffffffffff7f000000000000000000000000000000000000000000000000000000000000000016300361125057602090517f360894a13ba1a3210667c828492db98dca3e2076cc3735a920a3ca505d382bbc8152f35b517fe07c8dba000000000000000000000000000000000000000000000000000000008152fd5b9050816003193601126103a25761128b61179a565b602492833567ffffffffffffffff81116103a257366023820112156103a257808401356112b78161182b565b936112c4845195866117bd565b81855260209182860193368983830101116103a257815f928a86930187378701015273ffffffffffffffffffffffffffffffffffffffff807f000000000000000000000000000000000000000000000000000000000000000016803014908115611557575b5061152f57611336611926565b81169484517f52d1902d000000000000000000000000000000000000000000000000000000008152838189818a5afa5f9181611500575b506113a157505050505051917f4c9c8ce3000000000000000000000000000000000000000000000000000000008352820152fd5b9087878794938b7f360894a13ba1a3210667c828492db98dca3e2076cc3735a920a3ca505d382bbc918281036114d35750853b156114a65750817fffffffffffffffffffffffff00000000000000000000000000000000000000008254161790558451907fbc7cd75a20ee27fd9adebab32041f755214dbc6bffa90cc0225b39da2e5c2d3b5f80a28251156114735750505f6104c89581925190845af4913d15611469573d61145b6114528261182b565b925192836117bd565b81525f81943d92013e6119ef565b50606092506119ef565b945094505050503461148157005b7fb398979f000000000000000000000000000000000000000000000000000000008152fd5b83838851917f4c9c8ce3000000000000000000000000000000000000000000000000000000008352820152fd5b84908851917faa1d49a4000000000000000000000000000000000000000000000000000000008352820152fd5b9091508481813d8311611528575b61151881836117bd565b810103126103a25751905f61136d565b503d61150e565b8685517fe07c8dba000000000000000000000000000000000000000000000000000000008152fd5b9050817f360894a13ba1a3210667c828492db98dca3e2076cc3735a920a3ca505d382bbc541614155f611329565b82346103a2575f6003193601126103a25773ffffffffffffffffffffffffffffffffffffffff60209254169051908152f35b346103a25760206003193601126103a25773ffffffffffffffffffffffffffffffffffffffff6115e561179a565b6115ed611926565b167fffffffffffffffffffffffff000000000000000000000000000000000000000060065416176006555f80f35b82346103a2575f6003193601126103a25760209073ffffffffffffffffffffffffffffffffffffffff600654169051908152f35b82346103a2575f6003193601126103a25760209073ffffffffffffffffffffffffffffffffffffffff600a54169051908152f35b346103a25760206003193601126103a25761169c611926565b35601455005b346103a25760206003193601126103a25773ffffffffffffffffffffffffffffffffffffffff6116d061179a565b6116d8611926565b167fffffffffffffffffffffffff000000000000000000000000000000000000000060155416176015555f80f35b346103a25760206003193601126103a25773ffffffffffffffffffffffffffffffffffffffff61173461179a565b61173c611926565b167fffffffffffffffffffffffff000000000000000000000000000000000000000060055416176005555f80f35b346103a2575f6003193601126103a25760209073ffffffffffffffffffffffffffffffffffffffff600a54168152f35b6004359073ffffffffffffffffffffffffffffffffffffffff821682036103a257565b90601f7fffffffffffffffffffffffffffffffffffffffffffffffffffffffffffffffe0910116810190811067ffffffffffffffff8211176117fe57604052565b7f4e487b71000000000000000000000000000000000000000000000000000000005f52604160045260245ffd5b67ffffffffffffffff81116117fe57601f017fffffffffffffffffffffffffffffffffffffffffffffffffffffffffffffffe01660200190565b73ffffffffffffffffffffffffffffffffffffffff8091169081156118f6577f9016d09d72d40fdae2fd8ceac6b6234c7706214fd39c1cd1e609a0528c199300805490837fffffffffffffffffffffffff00000000000000000000000000000000000000008316179055167f8be0079c531659141344cd1fd0a4f28419497f9722a3daafe3b4186f6b6457e05f80a3565b60246040517f1e4fbdf70000000000000000000000000000000000000000000000000000000081525f6004820152fd5b73ffffffffffffffffffffffffffffffffffffffff7f9016d09d72d40fdae2fd8ceac6b6234c7706214fd39c1cd1e609a0528c1993005416330361196657565b60246040517f118cdaa7000000000000000000000000000000000000000000000000000000008152336004820152fd5b60ff7ff0c57e16840df040f15088dc2f81fe391c3923bec73e23a9662efc9c229c6a005460401c16156119c557565b60046040517fd7e6bcf8000000000000000000000000000000000000000000000000000000008152fd5b90611a2e5750805115611a0457805190602001fd5b60046040517f1425ea42000000000000000000000000000000000000000000000000000000008152fd5b81511580611a86575b611a3f575090565b60249073ffffffffffffffffffffffffffffffffffffffff604051917f9996b315000000000000000000000000000000000000000000000000000000008352166004820152fd5b50803b15611a3756fea264697066735822122015472d774a545623e956187d5515a4e0e3c71a23d8bee471c73c8cf421bd75cb64736f6c63430008190033",
  "linkReferences": {},
  "deployedLinkReferences": {}
}