{
  "_format": "hh-sol-artifact-1",
  "contractName": "BaluniV1Registry",
  "sourceName": "contracts/registry/BaluniV1Registry.sol",
  "abi": [
    {
      "inputs": [
        {
          "internalType": "address",
          "name": "target",
          "type": "address"
        }
      ],
      "name": "AddressEmptyCode",
      "type": "error"
    },
    {
      "inputs": [
        {
          "internalType": "address",
          "name": "implementation",
          "type": "address"
        }
      ],
      "name": "ERC1967InvalidImplementation",
      "type": "error"
    },
    {
      "inputs": [],
      "name": "ERC1967NonPayable",
      "type": "error"
    },
    {
      "inputs": [],
      "name": "FailedInnerCall",
      "type": "error"
    },
    {
      "inputs": [],
      "name": "InvalidInitialization",
      "type": "error"
    },
    {
      "inputs": [],
      "name": "NotInitializing",
      "type": "error"
    },
    {
      "inputs": [
        {
          "internalType": "address",
          "name": "owner",
          "type": "address"
        }
      ],
      "name": "OwnableInvalidOwner",
      "type": "error"
    },
    {
      "inputs": [
        {
          "internalType": "address",
          "name": "account",
          "type": "address"
        }
      ],
      "name": "OwnableUnauthorizedAccount",
      "type": "error"
    },
    {
      "inputs": [],
      "name": "UUPSUnauthorizedCallContext",
      "type": "error"
    },
    {
      "inputs": [
        {
          "internalType": "bytes32",
          "name": "slot",
          "type": "bytes32"
        }
      ],
      "name": "UUPSUnsupportedProxiableUUID",
      "type": "error"
    },
    {
      "anonymous": false,
      "inputs": [
        {
          "indexed": false,
          "internalType": "uint64",
          "name": "version",
          "type": "uint64"
        }
      ],
      "name": "Initialized",
      "type": "event"
    },
    {
      "anonymous": false,
      "inputs": [
        {
          "indexed": true,
          "internalType": "address",
          "name": "previousOwner",
          "type": "address"
        },
        {
          "indexed": true,
          "internalType": "address",
          "name": "newOwner",
          "type": "address"
        }
      ],
      "name": "OwnershipTransferred",
      "type": "event"
    },
    {
      "anonymous": false,
      "inputs": [
        {
          "indexed": true,
          "internalType": "address",
          "name": "implementation",
          "type": "address"
        }
      ],
      "name": "Upgraded",
      "type": "event"
    },
    {
      "inputs": [],
      "name": "UPGRADE_INTERFACE_VERSION",
      "outputs": [
        {
          "internalType": "string",
          "name": "",
          "type": "string"
        }
      ],
      "stateMutability": "view",
      "type": "function"
    },
    {
      "inputs": [],
      "name": "USDC",
      "outputs": [
        {
          "internalType": "address",
          "name": "",
          "type": "address"
        }
      ],
      "stateMutability": "view",
      "type": "function"
    },
    {
      "inputs": [],
      "name": "WNATIVE",
      "outputs": [
        {
          "internalType": "address",
          "name": "",
          "type": "address"
        }
      ],
      "stateMutability": "view",
      "type": "function"
    },
    {
      "inputs": [],
      "name": "_1inchSpotAgg",
      "outputs": [
        {
          "internalType": "address",
          "name": "",
          "type": "address"
        }
      ],
      "stateMutability": "view",
      "type": "function"
    },
    {
      "inputs": [],
      "name": "_BPS_BASE",
      "outputs": [
        {
          "internalType": "uint256",
          "name": "",
          "type": "uint256"
        }
      ],
      "stateMutability": "view",
      "type": "function"
    },
    {
      "inputs": [],
      "name": "_BPS_FEE",
      "outputs": [
        {
          "internalType": "uint256",
          "name": "",
          "type": "uint256"
        }
      ],
      "stateMutability": "view",
      "type": "function"
    },
    {
      "inputs": [],
      "name": "_MAX_BPS_FEE",
      "outputs": [
        {
          "internalType": "uint256",
          "name": "",
          "type": "uint256"
        }
      ],
      "stateMutability": "view",
      "type": "function"
    },
    {
      "inputs": [],
      "name": "baluniAgentFactory",
      "outputs": [
        {
          "internalType": "address",
          "name": "",
          "type": "address"
        }
      ],
      "stateMutability": "view",
      "type": "function"
    },
    {
      "inputs": [],
      "name": "baluniOracle",
      "outputs": [
        {
          "internalType": "address",
          "name": "",
          "type": "address"
        }
      ],
      "stateMutability": "view",
      "type": "function"
    },
    {
      "inputs": [],
      "name": "baluniPoolPeriphery",
      "outputs": [
        {
          "internalType": "address",
          "name": "",
          "type": "address"
        }
      ],
      "stateMutability": "view",
      "type": "function"
    },
    {
      "inputs": [],
      "name": "baluniPoolRegistry",
      "outputs": [
        {
          "internalType": "address",
          "name": "",
          "type": "address"
        }
      ],
      "stateMutability": "view",
      "type": "function"
    },
    {
      "inputs": [],
      "name": "baluniRebalancer",
      "outputs": [
        {
          "internalType": "address",
          "name": "",
          "type": "address"
        }
      ],
      "stateMutability": "view",
      "type": "function"
    },
    {
      "inputs": [],
      "name": "baluniRegistry",
      "outputs": [
        {
          "internalType": "address",
          "name": "",
          "type": "address"
        }
      ],
      "stateMutability": "view",
      "type": "function"
    },
    {
      "inputs": [],
      "name": "baluniRouter",
      "outputs": [
        {
          "internalType": "address",
          "name": "",
          "type": "address"
        }
      ],
      "stateMutability": "view",
      "type": "function"
    },
    {
      "inputs": [],
      "name": "baluniSwapper",
      "outputs": [
        {
          "internalType": "address",
          "name": "",
          "type": "address"
        }
      ],
      "stateMutability": "view",
      "type": "function"
    },
    {
      "inputs": [],
      "name": "get1inchSpotAgg",
      "outputs": [
        {
          "internalType": "address",
          "name": "",
          "type": "address"
        }
      ],
      "stateMutability": "view",
      "type": "function"
    },
    {
      "inputs": [],
      "name": "getBPS_BASE",
      "outputs": [
        {
          "internalType": "uint256",
          "name": "",
          "type": "uint256"
        }
      ],
      "stateMutability": "view",
      "type": "function"
    },
    {
      "inputs": [],
      "name": "getBPS_FEE",
      "outputs": [
        {
          "internalType": "uint256",
          "name": "",
          "type": "uint256"
        }
      ],
      "stateMutability": "view",
      "type": "function"
    },
    {
      "inputs": [],
      "name": "getBaluniAgentFactory",
      "outputs": [
        {
          "internalType": "address",
          "name": "",
          "type": "address"
        }
      ],
      "stateMutability": "view",
      "type": "function"
    },
    {
      "inputs": [],
      "name": "getBaluniOracle",
      "outputs": [
        {
          "internalType": "address",
          "name": "",
          "type": "address"
        }
      ],
      "stateMutability": "view",
      "type": "function"
    },
    {
      "inputs": [],
      "name": "getBaluniPoolPeriphery",
      "outputs": [
        {
          "internalType": "address",
          "name": "",
          "type": "address"
        }
      ],
      "stateMutability": "view",
      "type": "function"
    },
    {
      "inputs": [],
      "name": "getBaluniPoolRegistry",
      "outputs": [
        {
          "internalType": "address",
          "name": "",
          "type": "address"
        }
      ],
      "stateMutability": "view",
      "type": "function"
    },
    {
      "inputs": [],
      "name": "getBaluniRebalancer",
      "outputs": [
        {
          "internalType": "address",
          "name": "",
          "type": "address"
        }
      ],
      "stateMutability": "view",
      "type": "function"
    },
    {
      "inputs": [],
      "name": "getBaluniRegistry",
      "outputs": [
        {
          "internalType": "address",
          "name": "",
          "type": "address"
        }
      ],
      "stateMutability": "view",
      "type": "function"
    },
    {
      "inputs": [],
      "name": "getBaluniRouter",
      "outputs": [
        {
          "internalType": "address",
          "name": "",
          "type": "address"
        }
      ],
      "stateMutability": "view",
      "type": "function"
    },
    {
      "inputs": [],
      "name": "getBaluniSwapper",
      "outputs": [
        {
          "internalType": "address",
          "name": "",
          "type": "address"
        }
      ],
      "stateMutability": "view",
      "type": "function"
    },
    {
      "inputs": [],
      "name": "getMAX_BPS_FEE",
      "outputs": [
        {
          "internalType": "uint256",
          "name": "",
          "type": "uint256"
        }
      ],
      "stateMutability": "view",
      "type": "function"
    },
    {
      "inputs": [],
      "name": "getStaticOracle",
      "outputs": [
        {
          "internalType": "address",
          "name": "",
          "type": "address"
        }
      ],
      "stateMutability": "view",
      "type": "function"
    },
    {
      "inputs": [],
      "name": "getTreasury",
      "outputs": [
        {
          "internalType": "address",
          "name": "",
          "type": "address"
        }
      ],
      "stateMutability": "view",
      "type": "function"
    },
    {
      "inputs": [],
      "name": "getUSDC",
      "outputs": [
        {
          "internalType": "address",
          "name": "",
          "type": "address"
        }
      ],
      "stateMutability": "view",
      "type": "function"
    },
    {
      "inputs": [],
      "name": "getUniswapFactory",
      "outputs": [
        {
          "internalType": "address",
          "name": "",
          "type": "address"
        }
      ],
      "stateMutability": "view",
      "type": "function"
    },
    {
      "inputs": [],
      "name": "getUniswapRouter",
      "outputs": [
        {
          "internalType": "address",
          "name": "",
          "type": "address"
        }
      ],
      "stateMutability": "view",
      "type": "function"
    },
    {
      "inputs": [],
      "name": "getWNATIVE",
      "outputs": [
        {
          "internalType": "address",
          "name": "",
          "type": "address"
        }
      ],
      "stateMutability": "view",
      "type": "function"
    },
    {
      "inputs": [],
      "name": "initialize",
      "outputs": [],
      "stateMutability": "nonpayable",
      "type": "function"
    },
    {
      "inputs": [],
      "name": "owner",
      "outputs": [
        {
          "internalType": "address",
          "name": "",
          "type": "address"
        }
      ],
      "stateMutability": "view",
      "type": "function"
    },
    {
      "inputs": [],
      "name": "proxiableUUID",
      "outputs": [
        {
          "internalType": "bytes32",
          "name": "",
          "type": "bytes32"
        }
      ],
      "stateMutability": "view",
      "type": "function"
    },
    {
      "inputs": [],
      "name": "renounceOwnership",
      "outputs": [],
      "stateMutability": "nonpayable",
      "type": "function"
    },
    {
      "inputs": [
        {
          "internalType": "address",
          "name": "__1inchSpotAgg",
          "type": "address"
        }
      ],
      "name": "set1inchSpotAgg",
      "outputs": [],
      "stateMutability": "nonpayable",
      "type": "function"
    },
    {
      "inputs": [
        {
          "internalType": "uint256",
          "name": "__BPS_FEE",
          "type": "uint256"
        }
      ],
      "name": "setBPS_FEE",
      "outputs": [],
      "stateMutability": "nonpayable",
      "type": "function"
    },
    {
      "inputs": [
        {
          "internalType": "address",
          "name": "_baluniAgentFactory",
          "type": "address"
        }
      ],
      "name": "setBaluniAgentFactory",
      "outputs": [],
      "stateMutability": "nonpayable",
      "type": "function"
    },
    {
      "inputs": [
        {
          "internalType": "address",
          "name": "_baluniOracle",
          "type": "address"
        }
      ],
      "name": "setBaluniOracle",
      "outputs": [],
      "stateMutability": "nonpayable",
      "type": "function"
    },
    {
      "inputs": [
        {
          "internalType": "address",
          "name": "_baluniPoolPeriphery",
          "type": "address"
        }
      ],
      "name": "setBaluniPoolPeriphery",
      "outputs": [],
      "stateMutability": "nonpayable",
      "type": "function"
    },
    {
      "inputs": [
        {
          "internalType": "address",
          "name": "_baluniPoolRegistry",
          "type": "address"
        }
      ],
      "name": "setBaluniPoolRegistry",
      "outputs": [],
      "stateMutability": "nonpayable",
      "type": "function"
    },
    {
      "inputs": [
        {
          "internalType": "address",
          "name": "_baluniRebalancer",
          "type": "address"
        }
      ],
      "name": "setBaluniRebalancer",
      "outputs": [],
      "stateMutability": "nonpayable",
      "type": "function"
    },
    {
      "inputs": [
        {
          "internalType": "address",
          "name": "_baluniRegistry",
          "type": "address"
        }
      ],
      "name": "setBaluniRegistry",
      "outputs": [],
      "stateMutability": "nonpayable",
      "type": "function"
    },
    {
      "inputs": [
        {
          "internalType": "address",
          "name": "_baluniRouter",
          "type": "address"
        }
      ],
      "name": "setBaluniRouter",
      "outputs": [],
      "stateMutability": "nonpayable",
      "type": "function"
    },
    {
      "inputs": [
        {
          "internalType": "address",
          "name": "_baluniSwapper",
          "type": "address"
        }
      ],
      "name": "setBaluniSwapper",
      "outputs": [],
      "stateMutability": "nonpayable",
      "type": "function"
    },
    {
      "inputs": [
        {
          "internalType": "address",
          "name": "_staticOracle",
          "type": "address"
        }
      ],
      "name": "setStaticOracle",
      "outputs": [],
      "stateMutability": "nonpayable",
      "type": "function"
    },
    {
      "inputs": [
        {
          "internalType": "address",
          "name": "_treasury",
          "type": "address"
        }
      ],
      "name": "setTreasury",
      "outputs": [],
      "stateMutability": "nonpayable",
      "type": "function"
    },
    {
      "inputs": [
        {
          "internalType": "address",
          "name": "_USDC",
          "type": "address"
        }
      ],
      "name": "setUSDC",
      "outputs": [],
      "stateMutability": "nonpayable",
      "type": "function"
    },
    {
      "inputs": [
        {
          "internalType": "address",
          "name": "_uniswapFactory",
          "type": "address"
        }
      ],
      "name": "setUniswapFactory",
      "outputs": [],
      "stateMutability": "nonpayable",
      "type": "function"
    },
    {
      "inputs": [
        {
          "internalType": "address",
          "name": "_uniswapRouter",
          "type": "address"
        }
      ],
      "name": "setUniswapRouter",
      "outputs": [],
      "stateMutability": "nonpayable",
      "type": "function"
    },
    {
      "inputs": [
        {
          "internalType": "address",
          "name": "_WNATIVE",
          "type": "address"
        }
      ],
      "name": "setWNATIVE",
      "outputs": [],
      "stateMutability": "nonpayable",
      "type": "function"
    },
    {
      "inputs": [],
      "name": "staticOracle",
      "outputs": [
        {
          "internalType": "address",
          "name": "",
          "type": "address"
        }
      ],
      "stateMutability": "view",
      "type": "function"
    },
    {
      "inputs": [
        {
          "internalType": "address",
          "name": "newOwner",
          "type": "address"
        }
      ],
      "name": "transferOwnership",
      "outputs": [],
      "stateMutability": "nonpayable",
      "type": "function"
    },
    {
      "inputs": [],
      "name": "treasury",
      "outputs": [
        {
          "internalType": "address",
          "name": "",
          "type": "address"
        }
      ],
      "stateMutability": "view",
      "type": "function"
    },
    {
      "inputs": [],
      "name": "uniswapFactory",
      "outputs": [
        {
          "internalType": "address",
          "name": "",
          "type": "address"
        }
      ],
      "stateMutability": "view",
      "type": "function"
    },
    {
      "inputs": [],
      "name": "uniswapRouter",
      "outputs": [
        {
          "internalType": "address",
          "name": "",
          "type": "address"
        }
      ],
      "stateMutability": "view",
      "type": "function"
    },
    {
      "inputs": [
        {
          "internalType": "address",
          "name": "newImplementation",
          "type": "address"
        },
        {
          "internalType": "bytes",
          "name": "data",
          "type": "bytes"
        }
      ],
      "name": "upgradeToAndCall",
      "outputs": [],
      "stateMutability": "payable",
      "type": "function"
    }
  ],
  "bytecode": "0x60a0604052306080523480156012575f80fd5b506080516115426100395f395f8181610f1901528181610f42015261108601526115425ff3fe60806040526004361061037c575f3560e01c806385462d6f116101d3578063bb3ba04c116100fd578063e04b677f1161009d578063f2fde38b1161006d578063f2fde38b14610a03578063f5b84f6414610a22578063f5d2d99814610a41578063f98977a914610a5e575f80fd5b8063e04b677f14610987578063e528ca12146109a6578063f0f44260146109c5578063f1dccde7146109e4575f80fd5b8063c3f5df5c116100d8578063c3f5df5c1461090f578063c9aba8ae1461092e578063cc01e9a61461094b578063cff49d681461096a575f80fd5b8063bb3ba04c146108b4578063bea9849e146108d1578063c08f786b146108f0575f80fd5b80639e6453f811610173578063b3e089a211610143578063b3e089a214610842578063b691a41914610861578063b6fe9cc714610880578063b9f5e6171461089f575f80fd5b80639e6453f8146107aa578063a5d2236f146107c9578063ad3cb1cc146107e6578063b381cf4014610823575f80fd5b80638da5cb5b116101ae5780638da5cb5b1461071e5780638e1c3a8a1461075a5780639380fb6f146107775780639454705f1461078b575f80fd5b806385462d6f146106cd57806389a30271146106e15780638bdb2afa14610700575f80fd5b80634f4608a2116102b45780636c9c0078116102545780637dfb7ea1116102245780637dfb7ea1146106685780638129fc1c1461068757806382755ebb1461069b57806385377188146106b8575f80fd5b80636c9c0078146105f9578063715018a614610616578063735de9f71461062a578063782dd90214610649575f80fd5b8063588c5b701161028f578063588c5b701461057d57806358a672331461059c57806361d027b3146105bb5780636c43274c146105da575f80fd5b80634f4608a214610538578063524900b51461054c57806352d1902d14610569575f80fd5b806339b651401161031f578063400fb668116102fa578063400fb668146104c8578063468a7071146104e75780634b66a135146105065780634f1ef28614610525575f80fd5b806339b65140146104705780633b19e84a1461048f5780633e6dfa36146104ac575f80fd5b80631acb61411161035a5780631acb6141146103f65780631bf01e9b1461041357806332569e021461043057806334decfc91461044d575f80fd5b80630241bffa1461038057806304cc7325146103a15780631292f02e146103d7575b5f80fd5b34801561038b575f80fd5b5061039f61039a36600461138a565b610a7d565b005b3480156103ac575f80fd5b506006546001600160a01b03165b6040516001600160a01b0390911681526020015b60405180910390f35b3480156103e2575f80fd5b506002546103ba906001600160a01b031681565b348015610401575f80fd5b506003546001600160a01b03166103ba565b34801561041e575f80fd5b50600c546001600160a01b03166103ba565b34801561043b575f80fd5b506004546001600160a01b03166103ba565b348015610458575f80fd5b50610462600e5481565b6040519081526020016103ce565b34801561047b575f80fd5b506006546103ba906001600160a01b031681565b34801561049a575f80fd5b50600a546001600160a01b03166103ba565b3480156104b7575f80fd5b505f546001600160a01b03166103ba565b3480156104d3575f80fd5b5061039f6104e236600461138a565b610aa7565b3480156104f2575f80fd5b506008546103ba906001600160a01b031681565b348015610511575f80fd5b506004546103ba906001600160a01b031681565b61039f6105333660046113b7565b610ad1565b348015610543575f80fd5b50601054610462565b348015610557575f80fd5b506001546001600160a01b03166103ba565b348015610574575f80fd5b50610462610af0565b348015610588575f80fd5b5061039f61059736600461138a565b610b0b565b3480156105a7575f80fd5b506003546103ba906001600160a01b031681565b3480156105c6575f80fd5b50600a546103ba906001600160a01b031681565b3480156105e5575f80fd5b5061039f6105f436600461138a565b610b35565b348015610604575f80fd5b50600b546001600160a01b03166103ba565b348015610621575f80fd5b5061039f610b5f565b348015610635575f80fd5b506001546103ba906001600160a01b031681565b348015610654575f80fd5b50600d546103ba906001600160a01b031681565b348015610673575f80fd5b506009546103ba906001600160a01b031681565b348015610692575f80fd5b5061039f610b72565b3480156106a6575f80fd5b506009546001600160a01b03166103ba565b3480156106c3575f80fd5b5061046260105481565b3480156106d8575f80fd5b50600f54610462565b3480156106ec575f80fd5b50600c546103ba906001600160a01b031681565b34801561070b575f80fd5b505f546103ba906001600160a01b031681565b348015610729575f80fd5b507f9016d09d72d40fdae2fd8ceac6b6234c7706214fd39c1cd1e609a0528c199300546001600160a01b03166103ba565b348015610765575f80fd5b50600d546001600160a01b03166103ba565b348015610782575f80fd5b50600e54610462565b348015610796575f80fd5b506011546103ba906001600160a01b031681565b3480156107b5575f80fd5b5061039f6107c4366004611473565b610c97565b3480156107d4575f80fd5b506011546001600160a01b03166103ba565b3480156107f1575f80fd5b50610816604051806040016040528060058152602001640352e302e360dc1b81525081565b6040516103ce919061148a565b34801561082e575f80fd5b50600b546103ba906001600160a01b031681565b34801561084d575f80fd5b5061039f61085c36600461138a565b610ca4565b34801561086c575f80fd5b506005546103ba906001600160a01b031681565b34801561088b575f80fd5b5061039f61089a36600461138a565b610cce565b3480156108aa575f80fd5b50610462600f5481565b3480156108bf575f80fd5b506008546001600160a01b03166103ba565b3480156108dc575f80fd5b5061039f6108eb36600461138a565b610cf8565b3480156108fb575f80fd5b5061039f61090a36600461138a565b610d22565b34801561091a575f80fd5b5061039f61092936600461138a565b610d4c565b348015610939575f80fd5b506007546001600160a01b03166103ba565b348015610956575f80fd5b5061039f61096536600461138a565b610d76565b348015610975575f80fd5b506005546001600160a01b03166103ba565b348015610992575f80fd5b5061039f6109a136600461138a565b610da0565b3480156109b1575f80fd5b506007546103ba906001600160a01b031681565b3480156109d0575f80fd5b5061039f6109df36600461138a565b610dc9565b3480156109ef575f80fd5b5061039f6109fe36600461138a565b610df3565b348015610a0e575f80fd5b5061039f610a1d36600461138a565b610e1d565b348015610a2d575f80fd5b5061039f610a3c36600461138a565b610e5f565b348015610a4c575f80fd5b506002546001600160a01b03166103ba565b348015610a69575f80fd5b5061039f610a7836600461138a565b610e89565b610a85610eb3565b600580546001600160a01b0319166001600160a01b0392909216919091179055565b610aaf610eb3565b600680546001600160a01b0319166001600160a01b0392909216919091179055565b610ad9610f0e565b610ae282610fb2565b610aec8282610fba565b5050565b5f610af961107b565b505f805160206114ed83398151915290565b610b13610eb3565b600380546001600160a01b0319166001600160a01b0392909216919091179055565b610b3d610eb3565b600780546001600160a01b0319166001600160a01b0392909216919091179055565b610b67610eb3565b610b705f6110c4565b565b7ff0c57e16840df040f15088dc2f81fe391c3923bec73e23a9662efc9c229c6a008054600160401b810460ff16159067ffffffffffffffff165f81158015610bb75750825b90505f8267ffffffffffffffff166001148015610bd35750303b155b905081158015610be1575080155b15610bff5760405163f92ee8a960e01b815260040160405180910390fd5b845467ffffffffffffffff191660011785558315610c2957845460ff60401b1916600160401b1785555b610c3233611134565b610c3a611145565b6064600e55601e600f556127106010558315610c9057845460ff60401b19168555604051600181527fc7f505b2f371ae2175ee4913f4499e1f2633a7b5936321eed1cdaeb6115181d29060200160405180910390a15b5050505050565b610c9f610eb3565b600f55565b610cac610eb3565b600c80546001600160a01b0319166001600160a01b0392909216919091179055565b610cd6610eb3565b600b80546001600160a01b0319166001600160a01b0392909216919091179055565b610d00610eb3565b600180546001600160a01b0319166001600160a01b0392909216919091179055565b610d2a610eb3565b600d80546001600160a01b0319166001600160a01b0392909216919091179055565b610d54610eb3565b600980546001600160a01b0319166001600160a01b0392909216919091179055565b610d7e610eb3565b601180546001600160a01b0319166001600160a01b0392909216919091179055565b610da8610eb3565b5f80546001600160a01b0319166001600160a01b0392909216919091179055565b610dd1610eb3565b600a80546001600160a01b0319166001600160a01b0392909216919091179055565b610dfb610eb3565b600280546001600160a01b0319166001600160a01b0392909216919091179055565b610e25610eb3565b6001600160a01b038116610e5357604051631e4fbdf760e01b81525f60048201526024015b60405180910390fd5b610e5c816110c4565b50565b610e67610eb3565b600880546001600160a01b0319166001600160a01b0392909216919091179055565b610e91610eb3565b600480546001600160a01b0319166001600160a01b0392909216919091179055565b33610ee57f9016d09d72d40fdae2fd8ceac6b6234c7706214fd39c1cd1e609a0528c199300546001600160a01b031690565b6001600160a01b031614610b705760405163118cdaa760e01b8152336004820152602401610e4a565b306001600160a01b037f0000000000000000000000000000000000000000000000000000000000000000161480610f9457507f00000000000000000000000000000000000000000000000000000000000000006001600160a01b0316610f885f805160206114ed833981519152546001600160a01b031690565b6001600160a01b031614155b15610b705760405163703e46dd60e11b815260040160405180910390fd5b610e5c610eb3565b816001600160a01b03166352d1902d6040518163ffffffff1660e01b8152600401602060405180830381865afa925050508015611014575060408051601f3d908101601f19168201909252611011918101906114bf565b60015b61103c57604051634c9c8ce360e01b81526001600160a01b0383166004820152602401610e4a565b5f805160206114ed833981519152811461106c57604051632a87526960e21b815260048101829052602401610e4a565b611076838361114d565b505050565b306001600160a01b037f00000000000000000000000000000000000000000000000000000000000000001614610b705760405163703e46dd60e11b815260040160405180910390fd5b7f9016d09d72d40fdae2fd8ceac6b6234c7706214fd39c1cd1e609a0528c19930080546001600160a01b031981166001600160a01b03848116918217845560405192169182907f8be0079c531659141344cd1fd0a4f28419497f9722a3daafe3b4186f6b6457e0905f90a3505050565b61113c6111a2565b610e5c816111eb565b610b706111a2565b611156826111f3565b6040516001600160a01b038316907fbc7cd75a20ee27fd9adebab32041f755214dbc6bffa90cc0225b39da2e5c2d3b905f90a280511561119a576110768282611256565b610aec6112c8565b7ff0c57e16840df040f15088dc2f81fe391c3923bec73e23a9662efc9c229c6a0054600160401b900460ff16610b7057604051631afcd79f60e31b815260040160405180910390fd5b610e256111a2565b806001600160a01b03163b5f0361122857604051634c9c8ce360e01b81526001600160a01b0382166004820152602401610e4a565b5f805160206114ed83398151915280546001600160a01b0319166001600160a01b0392909216919091179055565b60605f80846001600160a01b03168460405161127291906114d6565b5f60405180830381855af49150503d805f81146112aa576040519150601f19603f3d011682016040523d82523d5f602084013e6112af565b606091505b50915091506112bf8583836112e7565b95945050505050565b3415610b705760405163b398979f60e01b815260040160405180910390fd5b6060826112fc576112f782611346565b61133f565b815115801561131357506001600160a01b0384163b155b1561133c57604051639996b31560e01b81526001600160a01b0385166004820152602401610e4a565b50805b9392505050565b8051156113565780518082602001fd5b604051630a12f52160e11b815260040160405180910390fd5b80356001600160a01b0381168114611385575f80fd5b919050565b5f6020828403121561139a575f80fd5b61133f8261136f565b634e487b7160e01b5f52604160045260245ffd5b5f80604083850312156113c8575f80fd5b6113d18361136f565b9150602083013567ffffffffffffffff808211156113ed575f80fd5b818501915085601f830112611400575f80fd5b813581811115611412576114126113a3565b604051601f8201601f19908116603f0116810190838211818310171561143a5761143a6113a3565b81604052828152886020848701011115611452575f80fd5b826020860160208301375f6020848301015280955050505050509250929050565b5f60208284031215611483575f80fd5b5035919050565b602081525f82518060208401528060208501604085015e5f604082850101526040601f19601f83011684010191505092915050565b5f602082840312156114cf575f80fd5b5051919050565b5f82518060208501845e5f92019182525091905056fe360894a13ba1a3210667c828492db98dca3e2076cc3735a920a3ca505d382bbca264697066735822122044ab00d606a85b9d8878a7cdcd4a72ed62a0f76b6b7ffa869f8c4e2c26ec602864736f6c63430008190033",
  "linkReferences": {},
  "deployedLinkReferences": {}
}