{
  "_format": "hh-sol-artifact-1",
  "contractName": "BaluniV1Registry",
  "sourceName": "contracts/registry/BaluniV1Registry.sol",
  "abi": [
    {
      "inputs": [
        {
          "internalType": "address",
          "name": "target",
          "type": "address"
        }
      ],
      "name": "AddressEmptyCode",
      "type": "error"
    },
    {
      "inputs": [
        {
          "internalType": "address",
          "name": "implementation",
          "type": "address"
        }
      ],
      "name": "ERC1967InvalidImplementation",
      "type": "error"
    },
    {
      "inputs": [],
      "name": "ERC1967NonPayable",
      "type": "error"
    },
    {
      "inputs": [],
      "name": "FailedInnerCall",
      "type": "error"
    },
    {
      "inputs": [],
      "name": "InvalidInitialization",
      "type": "error"
    },
    {
      "inputs": [],
      "name": "NotInitializing",
      "type": "error"
    },
    {
      "inputs": [
        {
          "internalType": "address",
          "name": "owner",
          "type": "address"
        }
      ],
      "name": "OwnableInvalidOwner",
      "type": "error"
    },
    {
      "inputs": [
        {
          "internalType": "address",
          "name": "account",
          "type": "address"
        }
      ],
      "name": "OwnableUnauthorizedAccount",
      "type": "error"
    },
    {
      "inputs": [],
      "name": "UUPSUnauthorizedCallContext",
      "type": "error"
    },
    {
      "inputs": [
        {
          "internalType": "bytes32",
          "name": "slot",
          "type": "bytes32"
        }
      ],
      "name": "UUPSUnsupportedProxiableUUID",
      "type": "error"
    },
    {
      "anonymous": false,
      "inputs": [
        {
          "indexed": false,
          "internalType": "uint64",
          "name": "version",
          "type": "uint64"
        }
      ],
      "name": "Initialized",
      "type": "event"
    },
    {
      "anonymous": false,
      "inputs": [
        {
          "indexed": true,
          "internalType": "address",
          "name": "previousOwner",
          "type": "address"
        },
        {
          "indexed": true,
          "internalType": "address",
          "name": "newOwner",
          "type": "address"
        }
      ],
      "name": "OwnershipTransferred",
      "type": "event"
    },
    {
      "anonymous": false,
      "inputs": [
        {
          "indexed": true,
          "internalType": "address",
          "name": "implementation",
          "type": "address"
        }
      ],
      "name": "Upgraded",
      "type": "event"
    },
    {
      "inputs": [],
      "name": "UPGRADE_INTERFACE_VERSION",
      "outputs": [
        {
          "internalType": "string",
          "name": "",
          "type": "string"
        }
      ],
      "stateMutability": "view",
      "type": "function"
    },
    {
      "inputs": [],
      "name": "USDC",
      "outputs": [
        {
          "internalType": "address",
          "name": "",
          "type": "address"
        }
      ],
      "stateMutability": "view",
      "type": "function"
    },
    {
      "inputs": [],
      "name": "WNATIVE",
      "outputs": [
        {
          "internalType": "address",
          "name": "",
          "type": "address"
        }
      ],
      "stateMutability": "view",
      "type": "function"
    },
    {
      "inputs": [],
      "name": "_1inchSpotAgg",
      "outputs": [
        {
          "internalType": "address",
          "name": "",
          "type": "address"
        }
      ],
      "stateMutability": "view",
      "type": "function"
    },
    {
      "inputs": [],
      "name": "_BPS_BASE",
      "outputs": [
        {
          "internalType": "uint256",
          "name": "",
          "type": "uint256"
        }
      ],
      "stateMutability": "view",
      "type": "function"
    },
    {
      "inputs": [],
      "name": "_BPS_FEE",
      "outputs": [
        {
          "internalType": "uint256",
          "name": "",
          "type": "uint256"
        }
      ],
      "stateMutability": "view",
      "type": "function"
    },
    {
      "inputs": [],
      "name": "_MAX_BPS_FEE",
      "outputs": [
        {
          "internalType": "uint256",
          "name": "",
          "type": "uint256"
        }
      ],
      "stateMutability": "view",
      "type": "function"
    },
    {
      "inputs": [],
      "name": "_REBALANCE_THRESHOLD",
      "outputs": [
        {
          "internalType": "uint256",
          "name": "",
          "type": "uint256"
        }
      ],
      "stateMutability": "view",
      "type": "function"
    },
    {
      "inputs": [],
      "name": "baluniAgentFactory",
      "outputs": [
        {
          "internalType": "address",
          "name": "",
          "type": "address"
        }
      ],
      "stateMutability": "view",
      "type": "function"
    },
    {
      "inputs": [],
      "name": "baluniDCAVaultRegistry",
      "outputs": [
        {
          "internalType": "address",
          "name": "",
          "type": "address"
        }
      ],
      "stateMutability": "view",
      "type": "function"
    },
    {
      "inputs": [],
      "name": "baluniOracle",
      "outputs": [
        {
          "internalType": "address",
          "name": "",
          "type": "address"
        }
      ],
      "stateMutability": "view",
      "type": "function"
    },
    {
      "inputs": [],
      "name": "baluniPoolPeriphery",
      "outputs": [
        {
          "internalType": "address",
          "name": "",
          "type": "address"
        }
      ],
      "stateMutability": "view",
      "type": "function"
    },
    {
      "inputs": [],
      "name": "baluniPoolRegistry",
      "outputs": [
        {
          "internalType": "address",
          "name": "",
          "type": "address"
        }
      ],
      "stateMutability": "view",
      "type": "function"
    },
    {
      "inputs": [],
      "name": "baluniRebalancer",
      "outputs": [
        {
          "internalType": "address",
          "name": "",
          "type": "address"
        }
      ],
      "stateMutability": "view",
      "type": "function"
    },
    {
      "inputs": [],
      "name": "baluniRegistry",
      "outputs": [
        {
          "internalType": "address",
          "name": "",
          "type": "address"
        }
      ],
      "stateMutability": "view",
      "type": "function"
    },
    {
      "inputs": [],
      "name": "baluniRouter",
      "outputs": [
        {
          "internalType": "address",
          "name": "",
          "type": "address"
        }
      ],
      "stateMutability": "view",
      "type": "function"
    },
    {
      "inputs": [],
      "name": "baluniSwapper",
      "outputs": [
        {
          "internalType": "address",
          "name": "",
          "type": "address"
        }
      ],
      "stateMutability": "view",
      "type": "function"
    },
    {
      "inputs": [],
      "name": "baluniYearnVaultRegistry",
      "outputs": [
        {
          "internalType": "address",
          "name": "",
          "type": "address"
        }
      ],
      "stateMutability": "view",
      "type": "function"
    },
    {
      "inputs": [],
      "name": "get1inchSpotAgg",
      "outputs": [
        {
          "internalType": "address",
          "name": "",
          "type": "address"
        }
      ],
      "stateMutability": "view",
      "type": "function"
    },
    {
      "inputs": [],
      "name": "getBPS_BASE",
      "outputs": [
        {
          "internalType": "uint256",
          "name": "",
          "type": "uint256"
        }
      ],
      "stateMutability": "view",
      "type": "function"
    },
    {
      "inputs": [],
      "name": "getBPS_FEE",
      "outputs": [
        {
          "internalType": "uint256",
          "name": "",
          "type": "uint256"
        }
      ],
      "stateMutability": "view",
      "type": "function"
    },
    {
      "inputs": [],
      "name": "getBaluniAgentFactory",
      "outputs": [
        {
          "internalType": "address",
          "name": "",
          "type": "address"
        }
      ],
      "stateMutability": "view",
      "type": "function"
    },
    {
      "inputs": [],
      "name": "getBaluniDCAVaultRegistry",
      "outputs": [
        {
          "internalType": "address",
          "name": "",
          "type": "address"
        }
      ],
      "stateMutability": "view",
      "type": "function"
    },
    {
      "inputs": [],
      "name": "getBaluniOracle",
      "outputs": [
        {
          "internalType": "address",
          "name": "",
          "type": "address"
        }
      ],
      "stateMutability": "view",
      "type": "function"
    },
    {
      "inputs": [],
      "name": "getBaluniPoolPeriphery",
      "outputs": [
        {
          "internalType": "address",
          "name": "",
          "type": "address"
        }
      ],
      "stateMutability": "view",
      "type": "function"
    },
    {
      "inputs": [],
      "name": "getBaluniPoolRegistry",
      "outputs": [
        {
          "internalType": "address",
          "name": "",
          "type": "address"
        }
      ],
      "stateMutability": "view",
      "type": "function"
    },
    {
      "inputs": [],
      "name": "getBaluniRebalancer",
      "outputs": [
        {
          "internalType": "address",
          "name": "",
          "type": "address"
        }
      ],
      "stateMutability": "view",
      "type": "function"
    },
    {
      "inputs": [],
      "name": "getBaluniRegistry",
      "outputs": [
        {
          "internalType": "address",
          "name": "",
          "type": "address"
        }
      ],
      "stateMutability": "view",
      "type": "function"
    },
    {
      "inputs": [],
      "name": "getBaluniRouter",
      "outputs": [
        {
          "internalType": "address",
          "name": "",
          "type": "address"
        }
      ],
      "stateMutability": "view",
      "type": "function"
    },
    {
      "inputs": [],
      "name": "getBaluniSwapper",
      "outputs": [
        {
          "internalType": "address",
          "name": "",
          "type": "address"
        }
      ],
      "stateMutability": "view",
      "type": "function"
    },
    {
      "inputs": [],
      "name": "getBaluniYearnVaultRegistry",
      "outputs": [
        {
          "internalType": "address",
          "name": "",
          "type": "address"
        }
      ],
      "stateMutability": "view",
      "type": "function"
    },
    {
      "inputs": [],
      "name": "getMAX_BPS_FEE",
      "outputs": [
        {
          "internalType": "uint256",
          "name": "",
          "type": "uint256"
        }
      ],
      "stateMutability": "view",
      "type": "function"
    },
    {
      "inputs": [],
      "name": "getREBALANCE_THRESHOLD",
      "outputs": [
        {
          "internalType": "uint256",
          "name": "",
          "type": "uint256"
        }
      ],
      "stateMutability": "view",
      "type": "function"
    },
    {
      "inputs": [],
      "name": "getStaticOracle",
      "outputs": [
        {
          "internalType": "address",
          "name": "",
          "type": "address"
        }
      ],
      "stateMutability": "view",
      "type": "function"
    },
    {
      "inputs": [],
      "name": "getTreasury",
      "outputs": [
        {
          "internalType": "address",
          "name": "",
          "type": "address"
        }
      ],
      "stateMutability": "view",
      "type": "function"
    },
    {
      "inputs": [],
      "name": "getUSDC",
      "outputs": [
        {
          "internalType": "address",
          "name": "",
          "type": "address"
        }
      ],
      "stateMutability": "view",
      "type": "function"
    },
    {
      "inputs": [],
      "name": "getUniswapFactory",
      "outputs": [
        {
          "internalType": "address",
          "name": "",
          "type": "address"
        }
      ],
      "stateMutability": "view",
      "type": "function"
    },
    {
      "inputs": [],
      "name": "getUniswapRouter",
      "outputs": [
        {
          "internalType": "address",
          "name": "",
          "type": "address"
        }
      ],
      "stateMutability": "view",
      "type": "function"
    },
    {
      "inputs": [],
      "name": "getWNATIVE",
      "outputs": [
        {
          "internalType": "address",
          "name": "",
          "type": "address"
        }
      ],
      "stateMutability": "view",
      "type": "function"
    },
    {
      "inputs": [],
      "name": "initialize",
      "outputs": [],
      "stateMutability": "nonpayable",
      "type": "function"
    },
    {
      "inputs": [],
      "name": "owner",
      "outputs": [
        {
          "internalType": "address",
          "name": "",
          "type": "address"
        }
      ],
      "stateMutability": "view",
      "type": "function"
    },
    {
      "inputs": [],
      "name": "proxiableUUID",
      "outputs": [
        {
          "internalType": "bytes32",
          "name": "",
          "type": "bytes32"
        }
      ],
      "stateMutability": "view",
      "type": "function"
    },
    {
      "inputs": [],
      "name": "renounceOwnership",
      "outputs": [],
      "stateMutability": "nonpayable",
      "type": "function"
    },
    {
      "inputs": [
        {
          "internalType": "address",
          "name": "__1inchSpotAgg",
          "type": "address"
        }
      ],
      "name": "set1inchSpotAgg",
      "outputs": [],
      "stateMutability": "nonpayable",
      "type": "function"
    },
    {
      "inputs": [
        {
          "internalType": "uint256",
          "name": "__BPS_FEE",
          "type": "uint256"
        }
      ],
      "name": "setBPS_FEE",
      "outputs": [],
      "stateMutability": "nonpayable",
      "type": "function"
    },
    {
      "inputs": [
        {
          "internalType": "address",
          "name": "_baluniAgentFactory",
          "type": "address"
        }
      ],
      "name": "setBaluniAgentFactory",
      "outputs": [],
      "stateMutability": "nonpayable",
      "type": "function"
    },
    {
      "inputs": [
        {
          "internalType": "address",
          "name": "_baluniDCAVaultRegistry",
          "type": "address"
        }
      ],
      "name": "setBaluniDCAVaultRegistry",
      "outputs": [],
      "stateMutability": "nonpayable",
      "type": "function"
    },
    {
      "inputs": [
        {
          "internalType": "address",
          "name": "_baluniOracle",
          "type": "address"
        }
      ],
      "name": "setBaluniOracle",
      "outputs": [],
      "stateMutability": "nonpayable",
      "type": "function"
    },
    {
      "inputs": [
        {
          "internalType": "address",
          "name": "_baluniPoolPeriphery",
          "type": "address"
        }
      ],
      "name": "setBaluniPoolPeriphery",
      "outputs": [],
      "stateMutability": "nonpayable",
      "type": "function"
    },
    {
      "inputs": [
        {
          "internalType": "address",
          "name": "_baluniPoolRegistry",
          "type": "address"
        }
      ],
      "name": "setBaluniPoolRegistry",
      "outputs": [],
      "stateMutability": "nonpayable",
      "type": "function"
    },
    {
      "inputs": [
        {
          "internalType": "address",
          "name": "_baluniRebalancer",
          "type": "address"
        }
      ],
      "name": "setBaluniRebalancer",
      "outputs": [],
      "stateMutability": "nonpayable",
      "type": "function"
    },
    {
      "inputs": [
        {
          "internalType": "address",
          "name": "_baluniRegistry",
          "type": "address"
        }
      ],
      "name": "setBaluniRegistry",
      "outputs": [],
      "stateMutability": "nonpayable",
      "type": "function"
    },
    {
      "inputs": [
        {
          "internalType": "address",
          "name": "_baluniRouter",
          "type": "address"
        }
      ],
      "name": "setBaluniRouter",
      "outputs": [],
      "stateMutability": "nonpayable",
      "type": "function"
    },
    {
      "inputs": [
        {
          "internalType": "address",
          "name": "_baluniSwapper",
          "type": "address"
        }
      ],
      "name": "setBaluniSwapper",
      "outputs": [],
      "stateMutability": "nonpayable",
      "type": "function"
    },
    {
      "inputs": [
        {
          "internalType": "address",
          "name": "_baluniYearnVaultRegistry",
          "type": "address"
        }
      ],
      "name": "setBaluniYearnVaultRegistry",
      "outputs": [],
      "stateMutability": "nonpayable",
      "type": "function"
    },
    {
      "inputs": [
        {
          "internalType": "uint256",
          "name": "__REBALANCE_THRESHOLD",
          "type": "uint256"
        }
      ],
      "name": "setREBALANCE_THRESHOLD",
      "outputs": [],
      "stateMutability": "nonpayable",
      "type": "function"
    },
    {
      "inputs": [
        {
          "internalType": "address",
          "name": "_staticOracle",
          "type": "address"
        }
      ],
      "name": "setStaticOracle",
      "outputs": [],
      "stateMutability": "nonpayable",
      "type": "function"
    },
    {
      "inputs": [
        {
          "internalType": "address",
          "name": "_treasury",
          "type": "address"
        }
      ],
      "name": "setTreasury",
      "outputs": [],
      "stateMutability": "nonpayable",
      "type": "function"
    },
    {
      "inputs": [
        {
          "internalType": "address",
          "name": "_USDC",
          "type": "address"
        }
      ],
      "name": "setUSDC",
      "outputs": [],
      "stateMutability": "nonpayable",
      "type": "function"
    },
    {
      "inputs": [
        {
          "internalType": "address",
          "name": "_uniswapFactory",
          "type": "address"
        }
      ],
      "name": "setUniswapFactory",
      "outputs": [],
      "stateMutability": "nonpayable",
      "type": "function"
    },
    {
      "inputs": [
        {
          "internalType": "address",
          "name": "_uniswapRouter",
          "type": "address"
        }
      ],
      "name": "setUniswapRouter",
      "outputs": [],
      "stateMutability": "nonpayable",
      "type": "function"
    },
    {
      "inputs": [
        {
          "internalType": "address",
          "name": "_WNATIVE",
          "type": "address"
        }
      ],
      "name": "setWNATIVE",
      "outputs": [],
      "stateMutability": "nonpayable",
      "type": "function"
    },
    {
      "inputs": [],
      "name": "staticOracle",
      "outputs": [
        {
          "internalType": "address",
          "name": "",
          "type": "address"
        }
      ],
      "stateMutability": "view",
      "type": "function"
    },
    {
      "inputs": [
        {
          "internalType": "address",
          "name": "newOwner",
          "type": "address"
        }
      ],
      "name": "transferOwnership",
      "outputs": [],
      "stateMutability": "nonpayable",
      "type": "function"
    },
    {
      "inputs": [],
      "name": "treasury",
      "outputs": [
        {
          "internalType": "address",
          "name": "",
          "type": "address"
        }
      ],
      "stateMutability": "view",
      "type": "function"
    },
    {
      "inputs": [],
      "name": "uniswapFactory",
      "outputs": [
        {
          "internalType": "address",
          "name": "",
          "type": "address"
        }
      ],
      "stateMutability": "view",
      "type": "function"
    },
    {
      "inputs": [],
      "name": "uniswapRouter",
      "outputs": [
        {
          "internalType": "address",
          "name": "",
          "type": "address"
        }
      ],
      "stateMutability": "view",
      "type": "function"
    },
    {
      "inputs": [
        {
          "internalType": "address",
          "name": "newImplementation",
          "type": "address"
        },
        {
          "internalType": "bytes",
          "name": "data",
          "type": "bytes"
        }
      ],
      "name": "upgradeToAndCall",
      "outputs": [],
      "stateMutability": "payable",
      "type": "function"
    }
  ],
  "bytecode": "0x60a08060405234602957306080526117be908161002e8239608051818181610f8a01526110870152f35b5f80fdfe6080604090808252600480361015610015575f80fd5b5f3560e01c9182630218ecd61461146e575081630241bffa1461141557816304cc73251461138e5781631292f02e146103995781631acb614114610ed55781631bf01e9b14610b5c5781632da52442146113f657816332327d1f146113c257816332569e021461130357816334decfc914610a8457816339b651401461138e5781633b19e84a14610ea15781633e6dfa3614610b29578163400fb66814611335578163468a7071146107d15781634b66a135146113035781634f1ef28614610fff5781634f4608a214610b90578163524900b514610d8157816352d1902d14610f62578163588c5b7014610f0957816358a6723314610ed557816361d027b314610ea15781636c43274c14610e485781636c9c00781461092e578163715018a614610db5578163735de9f714610d81578163782dd90214610aa25781637dfb7ea114610bae5781638129fc1c14610be257816382755ebb14610bae5781638537718814610b9057816385462d6f1461085e57816389a3027114610b5c5781638bdb2afa14610b295781638da5cb5b14610ad65781638e1c3a8a14610aa25781639380fb6f14610a845781639454705f14610a3157816399c22ca6146105035781639e6453f814610a65578163a5d2236f14610a31578163ad3cb1cc14610962578163b381cf401461092e578163b3e089a2146108d5578163b691a41914610639578163b6fe9cc71461087c578163b9f5e6171461085e578163ba535c5414610805578163bb3ba04c146107d1578163bea9849e14610778578163c08f786b1461071f578163c3f5df5c146106c6578163c9aba8ae14610521578163cc01e9a61461066d578163cff49d6814610639578163d7e53673146105e0578163e04b677f14610589578163e23d837b14610555578163e528ca1214610521578163ea233c0514610503578163f0f44260146104aa578163f1dccde714610451578163f2fde38b14610426578163f5b84f64146103cd578163f5d2d99814610399578163f98977a914610343575063ffa08e951461030c575f80fd5b3461033f575f60031936011261033f5760209073ffffffffffffffffffffffffffffffffffffffff600b54169051908152f35b5f80fd5b3461033f57602060031936011261033f5773ffffffffffffffffffffffffffffffffffffffff61037161149e565b61037961161f565b825473ffffffffffffffffffffffffffffffffffffffff19169116179055005b823461033f575f60031936011261033f5760209073ffffffffffffffffffffffffffffffffffffffff600254169051908152f35b3461033f57602060031936011261033f5773ffffffffffffffffffffffffffffffffffffffff6103fb61149e565b61040361161f565b1673ffffffffffffffffffffffffffffffffffffffff1960085416176008555f80f35b3461033f57602060031936011261033f5761044f61044261149e565b61044a61161f565b611569565b005b3461033f57602060031936011261033f5773ffffffffffffffffffffffffffffffffffffffff61047f61149e565b61048761161f565b1673ffffffffffffffffffffffffffffffffffffffff1960025416176002555f80f35b3461033f57602060031936011261033f5773ffffffffffffffffffffffffffffffffffffffff6104d861149e565b6104e061161f565b1673ffffffffffffffffffffffffffffffffffffffff19600c541617600c555f80f35b823461033f575f60031936011261033f576020906014549051908152f35b823461033f575f60031936011261033f5760209073ffffffffffffffffffffffffffffffffffffffff600754169051908152f35b823461033f575f60031936011261033f5760209073ffffffffffffffffffffffffffffffffffffffff600b54169051908152f35b3461033f57602060031936011261033f5773ffffffffffffffffffffffffffffffffffffffff6105b761149e565b6105bf61161f565b1673ffffffffffffffffffffffffffffffffffffffff195f5416175f555f80f35b3461033f57602060031936011261033f5773ffffffffffffffffffffffffffffffffffffffff61060e61149e565b61061661161f565b1673ffffffffffffffffffffffffffffffffffffffff19600b541617600b555f80f35b823461033f575f60031936011261033f5760209073ffffffffffffffffffffffffffffffffffffffff600554169051908152f35b3461033f57602060031936011261033f5773ffffffffffffffffffffffffffffffffffffffff61069b61149e565b6106a361161f565b1673ffffffffffffffffffffffffffffffffffffffff19600d541617600d555f80f35b3461033f57602060031936011261033f5773ffffffffffffffffffffffffffffffffffffffff6106f461149e565b6106fc61161f565b1673ffffffffffffffffffffffffffffffffffffffff1960095416176009555f80f35b3461033f57602060031936011261033f5773ffffffffffffffffffffffffffffffffffffffff61074d61149e565b61075561161f565b1673ffffffffffffffffffffffffffffffffffffffff1960105416176010555f80f35b3461033f57602060031936011261033f5773ffffffffffffffffffffffffffffffffffffffff6107a661149e565b6107ae61161f565b1673ffffffffffffffffffffffffffffffffffffffff1960015416176001555f80f35b823461033f575f60031936011261033f5760209073ffffffffffffffffffffffffffffffffffffffff600854169051908152f35b3461033f57602060031936011261033f5773ffffffffffffffffffffffffffffffffffffffff61083361149e565b61083b61161f565b1673ffffffffffffffffffffffffffffffffffffffff19600a541617600a555f80f35b823461033f575f60031936011261033f576020906012549051908152f35b3461033f57602060031936011261033f5773ffffffffffffffffffffffffffffffffffffffff6108aa61149e565b6108b261161f565b1673ffffffffffffffffffffffffffffffffffffffff19600e541617600e555f80f35b3461033f57602060031936011261033f5773ffffffffffffffffffffffffffffffffffffffff61090361149e565b61090b61161f565b1673ffffffffffffffffffffffffffffffffffffffff19600f541617600f555f80f35b823461033f575f60031936011261033f5760209073ffffffffffffffffffffffffffffffffffffffff600e54169051908152f35b823461033f575f60031936011261033f578051918183019083821067ffffffffffffffff831117610a05575081526005825260208201917f352e302e3000000000000000000000000000000000000000000000000000000083527fffffffffffffffffffffffffffffffffffffffffffffffffffffffffffffffe0601f8351948593602085525180918160208701528686015e5f85828601015201168101030190f35b6041907f4e487b71000000000000000000000000000000000000000000000000000000005f525260245ffd5b823461033f575f60031936011261033f5760209073ffffffffffffffffffffffffffffffffffffffff600d54169051908152f35b3461033f57602060031936011261033f57610a7e61161f565b35601255005b823461033f575f60031936011261033f576020906011549051908152f35b823461033f575f60031936011261033f5760209073ffffffffffffffffffffffffffffffffffffffff601054169051908152f35b823461033f575f60031936011261033f5760209073ffffffffffffffffffffffffffffffffffffffff7f9016d09d72d40fdae2fd8ceac6b6234c7706214fd39c1cd1e609a0528c19930054169051908152f35b823461033f575f60031936011261033f5760209073ffffffffffffffffffffffffffffffffffffffff5f54169051908152f35b823461033f575f60031936011261033f5760209073ffffffffffffffffffffffffffffffffffffffff600f54169051908152f35b823461033f575f60031936011261033f576020906013549051908152f35b823461033f575f60031936011261033f5760209073ffffffffffffffffffffffffffffffffffffffff600954169051908152f35b90503461033f575f60031936011261033f577ff0c57e16840df040f15088dc2f81fe391c3923bec73e23a9662efc9c229c6a0090815460ff81851c16159167ffffffffffffffff821680159081610d79575b6001149081610d6f575b159081610d66575b50610d3f57508160017fffffffffffffffffffffffffffffffffffffffffffffffff00000000000000008316178455610d0a575b50610c8361168f565b610c8b61168f565b610c9433611569565b610c9c61168f565b6064601155601e6012556127106013556064601455610cb757005b7fc7f505b2f371ae2175ee4913f4499e1f2633a7b5936321eed1cdaeb6115181d291817fffffffffffffffffffffffffffffffffffffffffffffff00ffffffffffffffff602093541690555160018152a1005b7fffffffffffffffffffffffffffffffffffffffffffffff00000000000000000016680100000000000000011782555f610c7a565b84517ff92ee8a9000000000000000000000000000000000000000000000000000000008152fd5b9050155f610c46565b303b159150610c3e565b849150610c34565b823461033f575f60031936011261033f5760209073ffffffffffffffffffffffffffffffffffffffff600154169051908152f35b3461033f575f60031936011261033f57610dcd61161f565b5f73ffffffffffffffffffffffffffffffffffffffff7f9016d09d72d40fdae2fd8ceac6b6234c7706214fd39c1cd1e609a0528c19930080549073ffffffffffffffffffffffffffffffffffffffff1982169055167f8be0079c531659141344cd1fd0a4f28419497f9722a3daafe3b4186f6b6457e08280a3005b3461033f57602060031936011261033f5773ffffffffffffffffffffffffffffffffffffffff610e7661149e565b610e7e61161f565b1673ffffffffffffffffffffffffffffffffffffffff1960075416176007555f80f35b823461033f575f60031936011261033f5760209073ffffffffffffffffffffffffffffffffffffffff600c54169051908152f35b823461033f575f60031936011261033f5760209073ffffffffffffffffffffffffffffffffffffffff600354169051908152f35b3461033f57602060031936011261033f5773ffffffffffffffffffffffffffffffffffffffff610f3761149e565b610f3f61161f565b1673ffffffffffffffffffffffffffffffffffffffff1960035416176003555f80f35b823461033f575f60031936011261033f5773ffffffffffffffffffffffffffffffffffffffff7f0000000000000000000000000000000000000000000000000000000000000000163003610fd957602090517f360894a13ba1a3210667c828492db98dca3e2076cc3735a920a3ca505d382bbc8152f35b517fe07c8dba000000000000000000000000000000000000000000000000000000008152fd5b90508160031936011261033f5761101461149e565b602492833567ffffffffffffffff811161033f573660238201121561033f57808401356110408161152f565b9361104d845195866114c1565b818552602091828601933689838301011161033f57815f928a86930187378701015273ffffffffffffffffffffffffffffffffffffffff807f0000000000000000000000000000000000000000000000000000000000000000168030149081156112d5575b506112ad576110bf61161f565b81169484517f52d1902d000000000000000000000000000000000000000000000000000000008152838189818a5afa5f918161127e575b5061112a57505050505051917f4c9c8ce3000000000000000000000000000000000000000000000000000000008352820152fd5b9087878794938b7f360894a13ba1a3210667c828492db98dca3e2076cc3735a920a3ca505d382bbc918281036112515750853b1561122457508173ffffffffffffffffffffffffffffffffffffffff198254161790558451907fbc7cd75a20ee27fd9adebab32041f755214dbc6bffa90cc0225b39da2e5c2d3b5f80a28251156111f15750505f61044f9581925190845af4913d156111e7573d6111d96111d08261152f565b925192836114c1565b81525f81943d92013e6116e8565b50606092506116e8565b94509450505050346111ff57005b7fb398979f000000000000000000000000000000000000000000000000000000008152fd5b83838851917f4c9c8ce3000000000000000000000000000000000000000000000000000000008352820152fd5b84908851917faa1d49a4000000000000000000000000000000000000000000000000000000008352820152fd5b9091508481813d83116112a6575b61129681836114c1565b8101031261033f5751905f6110f6565b503d61128c565b8685517fe07c8dba000000000000000000000000000000000000000000000000000000008152fd5b9050817f360894a13ba1a3210667c828492db98dca3e2076cc3735a920a3ca505d382bbc541614155f6110b2565b823461033f575f60031936011261033f5773ffffffffffffffffffffffffffffffffffffffff60209254169051908152f35b3461033f57602060031936011261033f5773ffffffffffffffffffffffffffffffffffffffff61136361149e565b61136b61161f565b1673ffffffffffffffffffffffffffffffffffffffff1960065416176006555f80f35b823461033f575f60031936011261033f5760209073ffffffffffffffffffffffffffffffffffffffff600654169051908152f35b823461033f575f60031936011261033f5760209073ffffffffffffffffffffffffffffffffffffffff600a54169051908152f35b3461033f57602060031936011261033f5761140f61161f565b35601455005b3461033f57602060031936011261033f5773ffffffffffffffffffffffffffffffffffffffff61144361149e565b61144b61161f565b1673ffffffffffffffffffffffffffffffffffffffff1960055416176005555f80f35b3461033f575f60031936011261033f5760209073ffffffffffffffffffffffffffffffffffffffff600a54168152f35b6004359073ffffffffffffffffffffffffffffffffffffffff8216820361033f57565b90601f7fffffffffffffffffffffffffffffffffffffffffffffffffffffffffffffffe0910116810190811067ffffffffffffffff82111761150257604052565b7f4e487b71000000000000000000000000000000000000000000000000000000005f52604160045260245ffd5b67ffffffffffffffff811161150257601f017fffffffffffffffffffffffffffffffffffffffffffffffffffffffffffffffe01660200190565b73ffffffffffffffffffffffffffffffffffffffff8091169081156115ef577f9016d09d72d40fdae2fd8ceac6b6234c7706214fd39c1cd1e609a0528c1993008054908373ffffffffffffffffffffffffffffffffffffffff198316179055167f8be0079c531659141344cd1fd0a4f28419497f9722a3daafe3b4186f6b6457e05f80a3565b60246040517f1e4fbdf70000000000000000000000000000000000000000000000000000000081525f6004820152fd5b73ffffffffffffffffffffffffffffffffffffffff7f9016d09d72d40fdae2fd8ceac6b6234c7706214fd39c1cd1e609a0528c1993005416330361165f57565b60246040517f118cdaa7000000000000000000000000000000000000000000000000000000008152336004820152fd5b60ff7ff0c57e16840df040f15088dc2f81fe391c3923bec73e23a9662efc9c229c6a005460401c16156116be57565b60046040517fd7e6bcf8000000000000000000000000000000000000000000000000000000008152fd5b9061172757508051156116fd57805190602001fd5b60046040517f1425ea42000000000000000000000000000000000000000000000000000000008152fd5b8151158061177f575b611738575090565b60249073ffffffffffffffffffffffffffffffffffffffff604051917f9996b315000000000000000000000000000000000000000000000000000000008352166004820152fd5b50803b1561173056fea26469706673582212203079603645d6ea497336fee6359458a035721f86d76985c7626e3465772839e564736f6c63430008190033",
  "linkReferences": {},
  "deployedLinkReferences": {}
}