{
  "_format": "hh-sol-artifact-1",
  "contractName": "BaluniV1Registry",
  "sourceName": "contracts/registry/BaluniV1Registry.sol",
  "abi": [
    {
      "inputs": [
        {
          "internalType": "address",
          "name": "target",
          "type": "address"
        }
      ],
      "name": "AddressEmptyCode",
      "type": "error"
    },
    {
      "inputs": [
        {
          "internalType": "address",
          "name": "implementation",
          "type": "address"
        }
      ],
      "name": "ERC1967InvalidImplementation",
      "type": "error"
    },
    {
      "inputs": [],
      "name": "ERC1967NonPayable",
      "type": "error"
    },
    {
      "inputs": [],
      "name": "FailedInnerCall",
      "type": "error"
    },
    {
      "inputs": [],
      "name": "InvalidInitialization",
      "type": "error"
    },
    {
      "inputs": [],
      "name": "NotInitializing",
      "type": "error"
    },
    {
      "inputs": [
        {
          "internalType": "address",
          "name": "owner",
          "type": "address"
        }
      ],
      "name": "OwnableInvalidOwner",
      "type": "error"
    },
    {
      "inputs": [
        {
          "internalType": "address",
          "name": "account",
          "type": "address"
        }
      ],
      "name": "OwnableUnauthorizedAccount",
      "type": "error"
    },
    {
      "inputs": [],
      "name": "UUPSUnauthorizedCallContext",
      "type": "error"
    },
    {
      "inputs": [
        {
          "internalType": "bytes32",
          "name": "slot",
          "type": "bytes32"
        }
      ],
      "name": "UUPSUnsupportedProxiableUUID",
      "type": "error"
    },
    {
      "anonymous": false,
      "inputs": [
        {
          "indexed": false,
          "internalType": "uint64",
          "name": "version",
          "type": "uint64"
        }
      ],
      "name": "Initialized",
      "type": "event"
    },
    {
      "anonymous": false,
      "inputs": [
        {
          "indexed": true,
          "internalType": "address",
          "name": "previousOwner",
          "type": "address"
        },
        {
          "indexed": true,
          "internalType": "address",
          "name": "newOwner",
          "type": "address"
        }
      ],
      "name": "OwnershipTransferred",
      "type": "event"
    },
    {
      "anonymous": false,
      "inputs": [
        {
          "indexed": true,
          "internalType": "address",
          "name": "implementation",
          "type": "address"
        }
      ],
      "name": "Upgraded",
      "type": "event"
    },
    {
      "inputs": [],
      "name": "UPGRADE_INTERFACE_VERSION",
      "outputs": [
        {
          "internalType": "string",
          "name": "",
          "type": "string"
        }
      ],
      "stateMutability": "view",
      "type": "function"
    },
    {
      "inputs": [],
      "name": "USDC",
      "outputs": [
        {
          "internalType": "address",
          "name": "",
          "type": "address"
        }
      ],
      "stateMutability": "view",
      "type": "function"
    },
    {
      "inputs": [],
      "name": "WNATIVE",
      "outputs": [
        {
          "internalType": "address",
          "name": "",
          "type": "address"
        }
      ],
      "stateMutability": "view",
      "type": "function"
    },
    {
      "inputs": [],
      "name": "_1inchSpotAgg",
      "outputs": [
        {
          "internalType": "address",
          "name": "",
          "type": "address"
        }
      ],
      "stateMutability": "view",
      "type": "function"
    },
    {
      "inputs": [],
      "name": "_BPS_BASE",
      "outputs": [
        {
          "internalType": "uint256",
          "name": "",
          "type": "uint256"
        }
      ],
      "stateMutability": "view",
      "type": "function"
    },
    {
      "inputs": [],
      "name": "_BPS_FEE",
      "outputs": [
        {
          "internalType": "uint256",
          "name": "",
          "type": "uint256"
        }
      ],
      "stateMutability": "view",
      "type": "function"
    },
    {
      "inputs": [],
      "name": "_MAX_BPS_FEE",
      "outputs": [
        {
          "internalType": "uint256",
          "name": "",
          "type": "uint256"
        }
      ],
      "stateMutability": "view",
      "type": "function"
    },
    {
      "inputs": [],
      "name": "_REBALANCE_THRESHOLD",
      "outputs": [
        {
          "internalType": "uint256",
          "name": "",
          "type": "uint256"
        }
      ],
      "stateMutability": "view",
      "type": "function"
    },
    {
      "inputs": [],
      "name": "baluniAgentFactory",
      "outputs": [
        {
          "internalType": "address",
          "name": "",
          "type": "address"
        }
      ],
      "stateMutability": "view",
      "type": "function"
    },
    {
      "inputs": [],
      "name": "baluniDCAVaultRegistry",
      "outputs": [
        {
          "internalType": "address",
          "name": "",
          "type": "address"
        }
      ],
      "stateMutability": "view",
      "type": "function"
    },
    {
      "inputs": [],
      "name": "baluniOracle",
      "outputs": [
        {
          "internalType": "address",
          "name": "",
          "type": "address"
        }
      ],
      "stateMutability": "view",
      "type": "function"
    },
    {
      "inputs": [],
      "name": "baluniPoolPeriphery",
      "outputs": [
        {
          "internalType": "address",
          "name": "",
          "type": "address"
        }
      ],
      "stateMutability": "view",
      "type": "function"
    },
    {
      "inputs": [],
      "name": "baluniPoolRegistry",
      "outputs": [
        {
          "internalType": "address",
          "name": "",
          "type": "address"
        }
      ],
      "stateMutability": "view",
      "type": "function"
    },
    {
      "inputs": [],
      "name": "baluniRebalancer",
      "outputs": [
        {
          "internalType": "address",
          "name": "",
          "type": "address"
        }
      ],
      "stateMutability": "view",
      "type": "function"
    },
    {
      "inputs": [],
      "name": "baluniRegistry",
      "outputs": [
        {
          "internalType": "address",
          "name": "",
          "type": "address"
        }
      ],
      "stateMutability": "view",
      "type": "function"
    },
    {
      "inputs": [],
      "name": "baluniRouter",
      "outputs": [
        {
          "internalType": "address",
          "name": "",
          "type": "address"
        }
      ],
      "stateMutability": "view",
      "type": "function"
    },
    {
      "inputs": [],
      "name": "baluniSwapper",
      "outputs": [
        {
          "internalType": "address",
          "name": "",
          "type": "address"
        }
      ],
      "stateMutability": "view",
      "type": "function"
    },
    {
      "inputs": [],
      "name": "baluniYearnVaultRegistry",
      "outputs": [
        {
          "internalType": "address",
          "name": "",
          "type": "address"
        }
      ],
      "stateMutability": "view",
      "type": "function"
    },
    {
      "inputs": [],
      "name": "get1inchSpotAgg",
      "outputs": [
        {
          "internalType": "address",
          "name": "",
          "type": "address"
        }
      ],
      "stateMutability": "view",
      "type": "function"
    },
    {
      "inputs": [],
      "name": "getBPS_BASE",
      "outputs": [
        {
          "internalType": "uint256",
          "name": "",
          "type": "uint256"
        }
      ],
      "stateMutability": "view",
      "type": "function"
    },
    {
      "inputs": [],
      "name": "getBPS_FEE",
      "outputs": [
        {
          "internalType": "uint256",
          "name": "",
          "type": "uint256"
        }
      ],
      "stateMutability": "view",
      "type": "function"
    },
    {
      "inputs": [],
      "name": "getBaluniAgentFactory",
      "outputs": [
        {
          "internalType": "address",
          "name": "",
          "type": "address"
        }
      ],
      "stateMutability": "view",
      "type": "function"
    },
    {
      "inputs": [],
      "name": "getBaluniDCAVaultRegistry",
      "outputs": [
        {
          "internalType": "address",
          "name": "",
          "type": "address"
        }
      ],
      "stateMutability": "view",
      "type": "function"
    },
    {
      "inputs": [],
      "name": "getBaluniOracle",
      "outputs": [
        {
          "internalType": "address",
          "name": "",
          "type": "address"
        }
      ],
      "stateMutability": "view",
      "type": "function"
    },
    {
      "inputs": [],
      "name": "getBaluniPoolPeriphery",
      "outputs": [
        {
          "internalType": "address",
          "name": "",
          "type": "address"
        }
      ],
      "stateMutability": "view",
      "type": "function"
    },
    {
      "inputs": [],
      "name": "getBaluniPoolRegistry",
      "outputs": [
        {
          "internalType": "address",
          "name": "",
          "type": "address"
        }
      ],
      "stateMutability": "view",
      "type": "function"
    },
    {
      "inputs": [],
      "name": "getBaluniRebalancer",
      "outputs": [
        {
          "internalType": "address",
          "name": "",
          "type": "address"
        }
      ],
      "stateMutability": "view",
      "type": "function"
    },
    {
      "inputs": [],
      "name": "getBaluniRegistry",
      "outputs": [
        {
          "internalType": "address",
          "name": "",
          "type": "address"
        }
      ],
      "stateMutability": "view",
      "type": "function"
    },
    {
      "inputs": [],
      "name": "getBaluniRouter",
      "outputs": [
        {
          "internalType": "address",
          "name": "",
          "type": "address"
        }
      ],
      "stateMutability": "view",
      "type": "function"
    },
    {
      "inputs": [],
      "name": "getBaluniSwapper",
      "outputs": [
        {
          "internalType": "address",
          "name": "",
          "type": "address"
        }
      ],
      "stateMutability": "view",
      "type": "function"
    },
    {
      "inputs": [],
      "name": "getBaluniYearnVaultRegistry",
      "outputs": [
        {
          "internalType": "address",
          "name": "",
          "type": "address"
        }
      ],
      "stateMutability": "view",
      "type": "function"
    },
    {
      "inputs": [],
      "name": "getMAX_BPS_FEE",
      "outputs": [
        {
          "internalType": "uint256",
          "name": "",
          "type": "uint256"
        }
      ],
      "stateMutability": "view",
      "type": "function"
    },
    {
      "inputs": [],
      "name": "getREBALANCE_THRESHOLD",
      "outputs": [
        {
          "internalType": "uint256",
          "name": "",
          "type": "uint256"
        }
      ],
      "stateMutability": "view",
      "type": "function"
    },
    {
      "inputs": [],
      "name": "getStaticOracle",
      "outputs": [
        {
          "internalType": "address",
          "name": "",
          "type": "address"
        }
      ],
      "stateMutability": "view",
      "type": "function"
    },
    {
      "inputs": [],
      "name": "getTreasury",
      "outputs": [
        {
          "internalType": "address",
          "name": "",
          "type": "address"
        }
      ],
      "stateMutability": "view",
      "type": "function"
    },
    {
      "inputs": [],
      "name": "getUSDC",
      "outputs": [
        {
          "internalType": "address",
          "name": "",
          "type": "address"
        }
      ],
      "stateMutability": "view",
      "type": "function"
    },
    {
      "inputs": [],
      "name": "getUniswapFactory",
      "outputs": [
        {
          "internalType": "address",
          "name": "",
          "type": "address"
        }
      ],
      "stateMutability": "view",
      "type": "function"
    },
    {
      "inputs": [],
      "name": "getUniswapQuoter",
      "outputs": [
        {
          "internalType": "address",
          "name": "",
          "type": "address"
        }
      ],
      "stateMutability": "view",
      "type": "function"
    },
    {
      "inputs": [],
      "name": "getUniswapRouter",
      "outputs": [
        {
          "internalType": "address",
          "name": "",
          "type": "address"
        }
      ],
      "stateMutability": "view",
      "type": "function"
    },
    {
      "inputs": [],
      "name": "getWNATIVE",
      "outputs": [
        {
          "internalType": "address",
          "name": "",
          "type": "address"
        }
      ],
      "stateMutability": "view",
      "type": "function"
    },
    {
      "inputs": [],
      "name": "initialize",
      "outputs": [],
      "stateMutability": "nonpayable",
      "type": "function"
    },
    {
      "inputs": [],
      "name": "owner",
      "outputs": [
        {
          "internalType": "address",
          "name": "",
          "type": "address"
        }
      ],
      "stateMutability": "view",
      "type": "function"
    },
    {
      "inputs": [],
      "name": "proxiableUUID",
      "outputs": [
        {
          "internalType": "bytes32",
          "name": "",
          "type": "bytes32"
        }
      ],
      "stateMutability": "view",
      "type": "function"
    },
    {
      "inputs": [],
      "name": "renounceOwnership",
      "outputs": [],
      "stateMutability": "nonpayable",
      "type": "function"
    },
    {
      "inputs": [
        {
          "internalType": "address",
          "name": "__1inchSpotAgg",
          "type": "address"
        }
      ],
      "name": "set1inchSpotAgg",
      "outputs": [],
      "stateMutability": "nonpayable",
      "type": "function"
    },
    {
      "inputs": [
        {
          "internalType": "uint256",
          "name": "__BPS_FEE",
          "type": "uint256"
        }
      ],
      "name": "setBPS_FEE",
      "outputs": [],
      "stateMutability": "nonpayable",
      "type": "function"
    },
    {
      "inputs": [
        {
          "internalType": "address",
          "name": "_baluniAgentFactory",
          "type": "address"
        }
      ],
      "name": "setBaluniAgentFactory",
      "outputs": [],
      "stateMutability": "nonpayable",
      "type": "function"
    },
    {
      "inputs": [
        {
          "internalType": "address",
          "name": "_baluniDCAVaultRegistry",
          "type": "address"
        }
      ],
      "name": "setBaluniDCAVaultRegistry",
      "outputs": [],
      "stateMutability": "nonpayable",
      "type": "function"
    },
    {
      "inputs": [
        {
          "internalType": "address",
          "name": "_baluniOracle",
          "type": "address"
        }
      ],
      "name": "setBaluniOracle",
      "outputs": [],
      "stateMutability": "nonpayable",
      "type": "function"
    },
    {
      "inputs": [
        {
          "internalType": "address",
          "name": "_baluniPoolPeriphery",
          "type": "address"
        }
      ],
      "name": "setBaluniPoolPeriphery",
      "outputs": [],
      "stateMutability": "nonpayable",
      "type": "function"
    },
    {
      "inputs": [
        {
          "internalType": "address",
          "name": "_baluniPoolRegistry",
          "type": "address"
        }
      ],
      "name": "setBaluniPoolRegistry",
      "outputs": [],
      "stateMutability": "nonpayable",
      "type": "function"
    },
    {
      "inputs": [
        {
          "internalType": "address",
          "name": "_baluniRebalancer",
          "type": "address"
        }
      ],
      "name": "setBaluniRebalancer",
      "outputs": [],
      "stateMutability": "nonpayable",
      "type": "function"
    },
    {
      "inputs": [
        {
          "internalType": "address",
          "name": "_baluniRegistry",
          "type": "address"
        }
      ],
      "name": "setBaluniRegistry",
      "outputs": [],
      "stateMutability": "nonpayable",
      "type": "function"
    },
    {
      "inputs": [
        {
          "internalType": "address",
          "name": "_baluniRouter",
          "type": "address"
        }
      ],
      "name": "setBaluniRouter",
      "outputs": [],
      "stateMutability": "nonpayable",
      "type": "function"
    },
    {
      "inputs": [
        {
          "internalType": "address",
          "name": "_baluniSwapper",
          "type": "address"
        }
      ],
      "name": "setBaluniSwapper",
      "outputs": [],
      "stateMutability": "nonpayable",
      "type": "function"
    },
    {
      "inputs": [
        {
          "internalType": "address",
          "name": "_baluniYearnVaultRegistry",
          "type": "address"
        }
      ],
      "name": "setBaluniYearnVaultRegistry",
      "outputs": [],
      "stateMutability": "nonpayable",
      "type": "function"
    },
    {
      "inputs": [
        {
          "internalType": "uint256",
          "name": "__REBALANCE_THRESHOLD",
          "type": "uint256"
        }
      ],
      "name": "setREBALANCE_THRESHOLD",
      "outputs": [],
      "stateMutability": "nonpayable",
      "type": "function"
    },
    {
      "inputs": [
        {
          "internalType": "address",
          "name": "_staticOracle",
          "type": "address"
        }
      ],
      "name": "setStaticOracle",
      "outputs": [],
      "stateMutability": "nonpayable",
      "type": "function"
    },
    {
      "inputs": [
        {
          "internalType": "address",
          "name": "_treasury",
          "type": "address"
        }
      ],
      "name": "setTreasury",
      "outputs": [],
      "stateMutability": "nonpayable",
      "type": "function"
    },
    {
      "inputs": [
        {
          "internalType": "address",
          "name": "_USDC",
          "type": "address"
        }
      ],
      "name": "setUSDC",
      "outputs": [],
      "stateMutability": "nonpayable",
      "type": "function"
    },
    {
      "inputs": [
        {
          "internalType": "address",
          "name": "_uniswapFactory",
          "type": "address"
        }
      ],
      "name": "setUniswapFactory",
      "outputs": [],
      "stateMutability": "nonpayable",
      "type": "function"
    },
    {
      "inputs": [
        {
          "internalType": "address",
          "name": "_uniswapQuoter",
          "type": "address"
        }
      ],
      "name": "setUniswapQuoter",
      "outputs": [],
      "stateMutability": "nonpayable",
      "type": "function"
    },
    {
      "inputs": [
        {
          "internalType": "address",
          "name": "_uniswapRouter",
          "type": "address"
        }
      ],
      "name": "setUniswapRouter",
      "outputs": [],
      "stateMutability": "nonpayable",
      "type": "function"
    },
    {
      "inputs": [
        {
          "internalType": "address",
          "name": "_WNATIVE",
          "type": "address"
        }
      ],
      "name": "setWNATIVE",
      "outputs": [],
      "stateMutability": "nonpayable",
      "type": "function"
    },
    {
      "inputs": [],
      "name": "staticOracle",
      "outputs": [
        {
          "internalType": "address",
          "name": "",
          "type": "address"
        }
      ],
      "stateMutability": "view",
      "type": "function"
    },
    {
      "inputs": [
        {
          "internalType": "address",
          "name": "newOwner",
          "type": "address"
        }
      ],
      "name": "transferOwnership",
      "outputs": [],
      "stateMutability": "nonpayable",
      "type": "function"
    },
    {
      "inputs": [],
      "name": "treasury",
      "outputs": [
        {
          "internalType": "address",
          "name": "",
          "type": "address"
        }
      ],
      "stateMutability": "view",
      "type": "function"
    },
    {
      "inputs": [],
      "name": "uniswapFactory",
      "outputs": [
        {
          "internalType": "address",
          "name": "",
          "type": "address"
        }
      ],
      "stateMutability": "view",
      "type": "function"
    },
    {
      "inputs": [],
      "name": "uniswapQuoter",
      "outputs": [
        {
          "internalType": "address",
          "name": "",
          "type": "address"
        }
      ],
      "stateMutability": "view",
      "type": "function"
    },
    {
      "inputs": [],
      "name": "uniswapRouter",
      "outputs": [
        {
          "internalType": "address",
          "name": "",
          "type": "address"
        }
      ],
      "stateMutability": "view",
      "type": "function"
    },
    {
      "inputs": [
        {
          "internalType": "address",
          "name": "newImplementation",
          "type": "address"
        },
        {
          "internalType": "bytes",
          "name": "data",
          "type": "bytes"
        }
      ],
      "name": "upgradeToAndCall",
      "outputs": [],
      "stateMutability": "payable",
      "type": "function"
    }
  ],
  "bytecode": "0x60a080604052346029573060805261186c908161002e8239608051818181610fdf01526110dc0152f35b5f80fdfe6080604090808252600480361015610015575f80fd5b5f3560e01c9182630218ecd61461151c575081630241bffa146114c357816304cc7325146113e35781631292f02e146103ba5781631acb614114610f2a5781631bf01e9b14610bb1578163261581361461146a5781632da524421461144b57816332327d1f1461141757816332569e021461135857816334decfc914610ad957816339b65140146113e35781633b19e84a14610ef65781633e6dfa3614610b7e578163400fb6681461138a578163468a7071146107f25781634b66a135146113585781634db4a352146109835781634f1ef286146110545781634f4608a214610be5578163524900b514610dd657816352d1902d14610fb7578163588c5b7014610f5e57816358a6723314610f2a57816361d027b314610ef65781636c43274c14610e9d5781636c9c00781461094f578163715018a614610e0a578163735de9f714610dd6578163782dd90214610af75781637dfb7ea114610c035781638129fc1c14610c3757816382755ebb14610c035781638537718814610be557816385462d6f1461087f57816389a3027114610bb15781638bdb2afa14610b7e5781638da5cb5b14610b2b5781638e1c3a8a14610af75781639380fb6f14610ad95781639454705f14610a8657816399c22ca6146105245781639e6453f814610aba578163a5d2236f14610a86578163ad3cb1cc146109b7578163b0a7097514610983578163b381cf401461094f578163b3e089a2146108f6578163b691a4191461065a578163b6fe9cc71461089d578163b9f5e6171461087f578163ba535c5414610826578163bb3ba04c146107f2578163bea9849e14610799578163c08f786b14610740578163c3f5df5c146106e7578163c9aba8ae14610542578163cc01e9a61461068e578163cff49d681461065a578163d7e5367314610601578163e04b677f146105aa578163e23d837b14610576578163e528ca1214610542578163ea233c0514610524578163f0f44260146104cb578163f1dccde714610472578163f2fde38b14610447578163f5b84f64146103ee578163f5d2d998146103ba578163f98977a914610364575063ffa08e951461032d575f80fd5b34610360575f6003193601126103605760209073ffffffffffffffffffffffffffffffffffffffff600b54169051908152f35b5f80fd5b346103605760206003193601126103605773ffffffffffffffffffffffffffffffffffffffff61039261154c565b61039a6116cd565b825473ffffffffffffffffffffffffffffffffffffffff19169116179055005b8234610360575f6003193601126103605760209073ffffffffffffffffffffffffffffffffffffffff600254169051908152f35b346103605760206003193601126103605773ffffffffffffffffffffffffffffffffffffffff61041c61154c565b6104246116cd565b1673ffffffffffffffffffffffffffffffffffffffff1960085416176008555f80f35b346103605760206003193601126103605761047061046361154c565b61046b6116cd565b611617565b005b346103605760206003193601126103605773ffffffffffffffffffffffffffffffffffffffff6104a061154c565b6104a86116cd565b1673ffffffffffffffffffffffffffffffffffffffff1960025416176002555f80f35b346103605760206003193601126103605773ffffffffffffffffffffffffffffffffffffffff6104f961154c565b6105016116cd565b1673ffffffffffffffffffffffffffffffffffffffff19600c541617600c555f80f35b8234610360575f600319360112610360576020906014549051908152f35b8234610360575f6003193601126103605760209073ffffffffffffffffffffffffffffffffffffffff600754169051908152f35b8234610360575f6003193601126103605760209073ffffffffffffffffffffffffffffffffffffffff600b54169051908152f35b346103605760206003193601126103605773ffffffffffffffffffffffffffffffffffffffff6105d861154c565b6105e06116cd565b1673ffffffffffffffffffffffffffffffffffffffff195f5416175f555f80f35b346103605760206003193601126103605773ffffffffffffffffffffffffffffffffffffffff61062f61154c565b6106376116cd565b1673ffffffffffffffffffffffffffffffffffffffff19600b541617600b555f80f35b8234610360575f6003193601126103605760209073ffffffffffffffffffffffffffffffffffffffff600554169051908152f35b346103605760206003193601126103605773ffffffffffffffffffffffffffffffffffffffff6106bc61154c565b6106c46116cd565b1673ffffffffffffffffffffffffffffffffffffffff19600d541617600d555f80f35b346103605760206003193601126103605773ffffffffffffffffffffffffffffffffffffffff61071561154c565b61071d6116cd565b1673ffffffffffffffffffffffffffffffffffffffff1960095416176009555f80f35b346103605760206003193601126103605773ffffffffffffffffffffffffffffffffffffffff61076e61154c565b6107766116cd565b1673ffffffffffffffffffffffffffffffffffffffff1960105416176010555f80f35b346103605760206003193601126103605773ffffffffffffffffffffffffffffffffffffffff6107c761154c565b6107cf6116cd565b1673ffffffffffffffffffffffffffffffffffffffff1960015416176001555f80f35b8234610360575f6003193601126103605760209073ffffffffffffffffffffffffffffffffffffffff600854169051908152f35b346103605760206003193601126103605773ffffffffffffffffffffffffffffffffffffffff61085461154c565b61085c6116cd565b1673ffffffffffffffffffffffffffffffffffffffff19600a541617600a555f80f35b8234610360575f600319360112610360576020906012549051908152f35b346103605760206003193601126103605773ffffffffffffffffffffffffffffffffffffffff6108cb61154c565b6108d36116cd565b1673ffffffffffffffffffffffffffffffffffffffff19600e541617600e555f80f35b346103605760206003193601126103605773ffffffffffffffffffffffffffffffffffffffff61092461154c565b61092c6116cd565b1673ffffffffffffffffffffffffffffffffffffffff19600f541617600f555f80f35b8234610360575f6003193601126103605760209073ffffffffffffffffffffffffffffffffffffffff600e54169051908152f35b8234610360575f6003193601126103605760209073ffffffffffffffffffffffffffffffffffffffff601554169051908152f35b8234610360575f600319360112610360578051918183019083821067ffffffffffffffff831117610a5a575081526005825260208201917f352e302e3000000000000000000000000000000000000000000000000000000083527fffffffffffffffffffffffffffffffffffffffffffffffffffffffffffffffe0601f8351948593602085525180918160208701528686015e5f85828601015201168101030190f35b6041907f4e487b71000000000000000000000000000000000000000000000000000000005f525260245ffd5b8234610360575f6003193601126103605760209073ffffffffffffffffffffffffffffffffffffffff600d54169051908152f35b3461036057602060031936011261036057610ad36116cd565b35601255005b8234610360575f600319360112610360576020906011549051908152f35b8234610360575f6003193601126103605760209073ffffffffffffffffffffffffffffffffffffffff601054169051908152f35b8234610360575f6003193601126103605760209073ffffffffffffffffffffffffffffffffffffffff7f9016d09d72d40fdae2fd8ceac6b6234c7706214fd39c1cd1e609a0528c19930054169051908152f35b8234610360575f6003193601126103605760209073ffffffffffffffffffffffffffffffffffffffff5f54169051908152f35b8234610360575f6003193601126103605760209073ffffffffffffffffffffffffffffffffffffffff600f54169051908152f35b8234610360575f600319360112610360576020906013549051908152f35b8234610360575f6003193601126103605760209073ffffffffffffffffffffffffffffffffffffffff600954169051908152f35b905034610360575f600319360112610360577ff0c57e16840df040f15088dc2f81fe391c3923bec73e23a9662efc9c229c6a0090815460ff81851c16159167ffffffffffffffff821680159081610dce575b6001149081610dc4575b159081610dbb575b50610d9457508160017fffffffffffffffffffffffffffffffffffffffffffffffff00000000000000008316178455610d5f575b50610cd861173d565b610ce061173d565b610ce933611617565b610cf161173d565b6064601155601e6012556127106013556064601455610d0c57005b7fc7f505b2f371ae2175ee4913f4499e1f2633a7b5936321eed1cdaeb6115181d291817fffffffffffffffffffffffffffffffffffffffffffffff00ffffffffffffffff602093541690555160018152a1005b7fffffffffffffffffffffffffffffffffffffffffffffff00000000000000000016680100000000000000011782555f610ccf565b84517ff92ee8a9000000000000000000000000000000000000000000000000000000008152fd5b9050155f610c9b565b303b159150610c93565b849150610c89565b8234610360575f6003193601126103605760209073ffffffffffffffffffffffffffffffffffffffff600154169051908152f35b34610360575f60031936011261036057610e226116cd565b5f73ffffffffffffffffffffffffffffffffffffffff7f9016d09d72d40fdae2fd8ceac6b6234c7706214fd39c1cd1e609a0528c19930080549073ffffffffffffffffffffffffffffffffffffffff1982169055167f8be0079c531659141344cd1fd0a4f28419497f9722a3daafe3b4186f6b6457e08280a3005b346103605760206003193601126103605773ffffffffffffffffffffffffffffffffffffffff610ecb61154c565b610ed36116cd565b1673ffffffffffffffffffffffffffffffffffffffff1960075416176007555f80f35b8234610360575f6003193601126103605760209073ffffffffffffffffffffffffffffffffffffffff600c54169051908152f35b8234610360575f6003193601126103605760209073ffffffffffffffffffffffffffffffffffffffff600354169051908152f35b346103605760206003193601126103605773ffffffffffffffffffffffffffffffffffffffff610f8c61154c565b610f946116cd565b1673ffffffffffffffffffffffffffffffffffffffff1960035416176003555f80f35b8234610360575f6003193601126103605773ffffffffffffffffffffffffffffffffffffffff7f000000000000000000000000000000000000000000000000000000000000000016300361102e57602090517f360894a13ba1a3210667c828492db98dca3e2076cc3735a920a3ca505d382bbc8152f35b517fe07c8dba000000000000000000000000000000000000000000000000000000008152fd5b9050816003193601126103605761106961154c565b602492833567ffffffffffffffff811161036057366023820112156103605780840135611095816115dd565b936110a28451958661156f565b818552602091828601933689838301011161036057815f928a86930187378701015273ffffffffffffffffffffffffffffffffffffffff807f00000000000000000000000000000000000000000000000000000000000000001680301490811561132a575b50611302576111146116cd565b81169484517f52d1902d000000000000000000000000000000000000000000000000000000008152838189818a5afa5f91816112d3575b5061117f57505050505051917f4c9c8ce3000000000000000000000000000000000000000000000000000000008352820152fd5b9087878794938b7f360894a13ba1a3210667c828492db98dca3e2076cc3735a920a3ca505d382bbc918281036112a65750853b1561127957508173ffffffffffffffffffffffffffffffffffffffff198254161790558451907fbc7cd75a20ee27fd9adebab32041f755214dbc6bffa90cc0225b39da2e5c2d3b5f80a28251156112465750505f6104709581925190845af4913d1561123c573d61122e611225826115dd565b9251928361156f565b81525f81943d92013e611796565b5060609250611796565b945094505050503461125457005b7fb398979f000000000000000000000000000000000000000000000000000000008152fd5b83838851917f4c9c8ce3000000000000000000000000000000000000000000000000000000008352820152fd5b84908851917faa1d49a4000000000000000000000000000000000000000000000000000000008352820152fd5b9091508481813d83116112fb575b6112eb818361156f565b810103126103605751905f61114b565b503d6112e1565b8685517fe07c8dba000000000000000000000000000000000000000000000000000000008152fd5b9050817f360894a13ba1a3210667c828492db98dca3e2076cc3735a920a3ca505d382bbc541614155f611107565b8234610360575f6003193601126103605773ffffffffffffffffffffffffffffffffffffffff60209254169051908152f35b346103605760206003193601126103605773ffffffffffffffffffffffffffffffffffffffff6113b861154c565b6113c06116cd565b1673ffffffffffffffffffffffffffffffffffffffff1960065416176006555f80f35b8234610360575f6003193601126103605760209073ffffffffffffffffffffffffffffffffffffffff600654169051908152f35b8234610360575f6003193601126103605760209073ffffffffffffffffffffffffffffffffffffffff600a54169051908152f35b34610360576020600319360112610360576114646116cd565b35601455005b346103605760206003193601126103605773ffffffffffffffffffffffffffffffffffffffff61149861154c565b6114a06116cd565b1673ffffffffffffffffffffffffffffffffffffffff1960155416176015555f80f35b346103605760206003193601126103605773ffffffffffffffffffffffffffffffffffffffff6114f161154c565b6114f96116cd565b1673ffffffffffffffffffffffffffffffffffffffff1960055416176005555f80f35b34610360575f6003193601126103605760209073ffffffffffffffffffffffffffffffffffffffff600a54168152f35b6004359073ffffffffffffffffffffffffffffffffffffffff8216820361036057565b90601f7fffffffffffffffffffffffffffffffffffffffffffffffffffffffffffffffe0910116810190811067ffffffffffffffff8211176115b057604052565b7f4e487b71000000000000000000000000000000000000000000000000000000005f52604160045260245ffd5b67ffffffffffffffff81116115b057601f017fffffffffffffffffffffffffffffffffffffffffffffffffffffffffffffffe01660200190565b73ffffffffffffffffffffffffffffffffffffffff80911690811561169d577f9016d09d72d40fdae2fd8ceac6b6234c7706214fd39c1cd1e609a0528c1993008054908373ffffffffffffffffffffffffffffffffffffffff198316179055167f8be0079c531659141344cd1fd0a4f28419497f9722a3daafe3b4186f6b6457e05f80a3565b60246040517f1e4fbdf70000000000000000000000000000000000000000000000000000000081525f6004820152fd5b73ffffffffffffffffffffffffffffffffffffffff7f9016d09d72d40fdae2fd8ceac6b6234c7706214fd39c1cd1e609a0528c1993005416330361170d57565b60246040517f118cdaa7000000000000000000000000000000000000000000000000000000008152336004820152fd5b60ff7ff0c57e16840df040f15088dc2f81fe391c3923bec73e23a9662efc9c229c6a005460401c161561176c57565b60046040517fd7e6bcf8000000000000000000000000000000000000000000000000000000008152fd5b906117d557508051156117ab57805190602001fd5b60046040517f1425ea42000000000000000000000000000000000000000000000000000000008152fd5b8151158061182d575b6117e6575090565b60249073ffffffffffffffffffffffffffffffffffffffff604051917f9996b315000000000000000000000000000000000000000000000000000000008352166004820152fd5b50803b156117de56fea2646970667358221220ef62c2406be6d7bece15a4c360f4cb9d5812b81067891c166fc3e6b29603675264736f6c63430008190033",
  "linkReferences": {},
  "deployedLinkReferences": {}
}