{
  "_format": "hh-sol-artifact-1",
  "contractName": "BaluniV1Registry",
  "sourceName": "contracts/registry/BaluniV1Registry.sol",
  "abi": [
    {
      "inputs": [
        {
          "internalType": "address",
          "name": "target",
          "type": "address"
        }
      ],
      "name": "AddressEmptyCode",
      "type": "error"
    },
    {
      "inputs": [
        {
          "internalType": "address",
          "name": "implementation",
          "type": "address"
        }
      ],
      "name": "ERC1967InvalidImplementation",
      "type": "error"
    },
    {
      "inputs": [],
      "name": "ERC1967NonPayable",
      "type": "error"
    },
    {
      "inputs": [],
      "name": "FailedInnerCall",
      "type": "error"
    },
    {
      "inputs": [],
      "name": "InvalidInitialization",
      "type": "error"
    },
    {
      "inputs": [],
      "name": "NotInitializing",
      "type": "error"
    },
    {
      "inputs": [
        {
          "internalType": "address",
          "name": "owner",
          "type": "address"
        }
      ],
      "name": "OwnableInvalidOwner",
      "type": "error"
    },
    {
      "inputs": [
        {
          "internalType": "address",
          "name": "account",
          "type": "address"
        }
      ],
      "name": "OwnableUnauthorizedAccount",
      "type": "error"
    },
    {
      "inputs": [],
      "name": "UUPSUnauthorizedCallContext",
      "type": "error"
    },
    {
      "inputs": [
        {
          "internalType": "bytes32",
          "name": "slot",
          "type": "bytes32"
        }
      ],
      "name": "UUPSUnsupportedProxiableUUID",
      "type": "error"
    },
    {
      "anonymous": false,
      "inputs": [
        {
          "indexed": false,
          "internalType": "uint64",
          "name": "version",
          "type": "uint64"
        }
      ],
      "name": "Initialized",
      "type": "event"
    },
    {
      "anonymous": false,
      "inputs": [
        {
          "indexed": true,
          "internalType": "address",
          "name": "previousOwner",
          "type": "address"
        },
        {
          "indexed": true,
          "internalType": "address",
          "name": "newOwner",
          "type": "address"
        }
      ],
      "name": "OwnershipTransferred",
      "type": "event"
    },
    {
      "anonymous": false,
      "inputs": [
        {
          "indexed": true,
          "internalType": "address",
          "name": "implementation",
          "type": "address"
        }
      ],
      "name": "Upgraded",
      "type": "event"
    },
    {
      "inputs": [],
      "name": "UPGRADE_INTERFACE_VERSION",
      "outputs": [
        {
          "internalType": "string",
          "name": "",
          "type": "string"
        }
      ],
      "stateMutability": "view",
      "type": "function"
    },
    {
      "inputs": [],
      "name": "USDC",
      "outputs": [
        {
          "internalType": "address",
          "name": "",
          "type": "address"
        }
      ],
      "stateMutability": "view",
      "type": "function"
    },
    {
      "inputs": [],
      "name": "WNATIVE",
      "outputs": [
        {
          "internalType": "address",
          "name": "",
          "type": "address"
        }
      ],
      "stateMutability": "view",
      "type": "function"
    },
    {
      "inputs": [],
      "name": "_1inchSpotAgg",
      "outputs": [
        {
          "internalType": "address",
          "name": "",
          "type": "address"
        }
      ],
      "stateMutability": "view",
      "type": "function"
    },
    {
      "inputs": [],
      "name": "_BPS_BASE",
      "outputs": [
        {
          "internalType": "uint256",
          "name": "",
          "type": "uint256"
        }
      ],
      "stateMutability": "view",
      "type": "function"
    },
    {
      "inputs": [],
      "name": "_BPS_FEE",
      "outputs": [
        {
          "internalType": "uint256",
          "name": "",
          "type": "uint256"
        }
      ],
      "stateMutability": "view",
      "type": "function"
    },
    {
      "inputs": [],
      "name": "_MAX_BPS_FEE",
      "outputs": [
        {
          "internalType": "uint256",
          "name": "",
          "type": "uint256"
        }
      ],
      "stateMutability": "view",
      "type": "function"
    },
    {
      "inputs": [],
      "name": "_REBALANCE_THRESHOLD",
      "outputs": [
        {
          "internalType": "uint256",
          "name": "",
          "type": "uint256"
        }
      ],
      "stateMutability": "view",
      "type": "function"
    },
    {
      "inputs": [],
      "name": "baluniAgentFactory",
      "outputs": [
        {
          "internalType": "address",
          "name": "",
          "type": "address"
        }
      ],
      "stateMutability": "view",
      "type": "function"
    },
    {
      "inputs": [],
      "name": "baluniDCAVaultRegistry",
      "outputs": [
        {
          "internalType": "address",
          "name": "",
          "type": "address"
        }
      ],
      "stateMutability": "view",
      "type": "function"
    },
    {
      "inputs": [],
      "name": "baluniOracle",
      "outputs": [
        {
          "internalType": "address",
          "name": "",
          "type": "address"
        }
      ],
      "stateMutability": "view",
      "type": "function"
    },
    {
      "inputs": [],
      "name": "baluniPoolPeriphery",
      "outputs": [
        {
          "internalType": "address",
          "name": "",
          "type": "address"
        }
      ],
      "stateMutability": "view",
      "type": "function"
    },
    {
      "inputs": [],
      "name": "baluniPoolRegistry",
      "outputs": [
        {
          "internalType": "address",
          "name": "",
          "type": "address"
        }
      ],
      "stateMutability": "view",
      "type": "function"
    },
    {
      "inputs": [],
      "name": "baluniPoolZap",
      "outputs": [
        {
          "internalType": "address",
          "name": "",
          "type": "address"
        }
      ],
      "stateMutability": "view",
      "type": "function"
    },
    {
      "inputs": [],
      "name": "baluniRebalancer",
      "outputs": [
        {
          "internalType": "address",
          "name": "",
          "type": "address"
        }
      ],
      "stateMutability": "view",
      "type": "function"
    },
    {
      "inputs": [],
      "name": "baluniRegistry",
      "outputs": [
        {
          "internalType": "address",
          "name": "",
          "type": "address"
        }
      ],
      "stateMutability": "view",
      "type": "function"
    },
    {
      "inputs": [],
      "name": "baluniRouter",
      "outputs": [
        {
          "internalType": "address",
          "name": "",
          "type": "address"
        }
      ],
      "stateMutability": "view",
      "type": "function"
    },
    {
      "inputs": [],
      "name": "baluniSwapper",
      "outputs": [
        {
          "internalType": "address",
          "name": "",
          "type": "address"
        }
      ],
      "stateMutability": "view",
      "type": "function"
    },
    {
      "inputs": [],
      "name": "baluniYearnVaultRegistry",
      "outputs": [
        {
          "internalType": "address",
          "name": "",
          "type": "address"
        }
      ],
      "stateMutability": "view",
      "type": "function"
    },
    {
      "inputs": [],
      "name": "get1inchSpotAgg",
      "outputs": [
        {
          "internalType": "address",
          "name": "",
          "type": "address"
        }
      ],
      "stateMutability": "view",
      "type": "function"
    },
    {
      "inputs": [],
      "name": "getBPS_BASE",
      "outputs": [
        {
          "internalType": "uint256",
          "name": "",
          "type": "uint256"
        }
      ],
      "stateMutability": "view",
      "type": "function"
    },
    {
      "inputs": [],
      "name": "getBPS_FEE",
      "outputs": [
        {
          "internalType": "uint256",
          "name": "",
          "type": "uint256"
        }
      ],
      "stateMutability": "view",
      "type": "function"
    },
    {
      "inputs": [],
      "name": "getBaluniAgentFactory",
      "outputs": [
        {
          "internalType": "address",
          "name": "",
          "type": "address"
        }
      ],
      "stateMutability": "view",
      "type": "function"
    },
    {
      "inputs": [],
      "name": "getBaluniDCAVaultRegistry",
      "outputs": [
        {
          "internalType": "address",
          "name": "",
          "type": "address"
        }
      ],
      "stateMutability": "view",
      "type": "function"
    },
    {
      "inputs": [],
      "name": "getBaluniOracle",
      "outputs": [
        {
          "internalType": "address",
          "name": "",
          "type": "address"
        }
      ],
      "stateMutability": "view",
      "type": "function"
    },
    {
      "inputs": [],
      "name": "getBaluniPoolPeriphery",
      "outputs": [
        {
          "internalType": "address",
          "name": "",
          "type": "address"
        }
      ],
      "stateMutability": "view",
      "type": "function"
    },
    {
      "inputs": [],
      "name": "getBaluniPoolRegistry",
      "outputs": [
        {
          "internalType": "address",
          "name": "",
          "type": "address"
        }
      ],
      "stateMutability": "view",
      "type": "function"
    },
    {
      "inputs": [],
      "name": "getBaluniPoolZap",
      "outputs": [
        {
          "internalType": "address",
          "name": "",
          "type": "address"
        }
      ],
      "stateMutability": "view",
      "type": "function"
    },
    {
      "inputs": [],
      "name": "getBaluniRebalancer",
      "outputs": [
        {
          "internalType": "address",
          "name": "",
          "type": "address"
        }
      ],
      "stateMutability": "view",
      "type": "function"
    },
    {
      "inputs": [],
      "name": "getBaluniRegistry",
      "outputs": [
        {
          "internalType": "address",
          "name": "",
          "type": "address"
        }
      ],
      "stateMutability": "view",
      "type": "function"
    },
    {
      "inputs": [],
      "name": "getBaluniRouter",
      "outputs": [
        {
          "internalType": "address",
          "name": "",
          "type": "address"
        }
      ],
      "stateMutability": "view",
      "type": "function"
    },
    {
      "inputs": [],
      "name": "getBaluniSwapper",
      "outputs": [
        {
          "internalType": "address",
          "name": "",
          "type": "address"
        }
      ],
      "stateMutability": "view",
      "type": "function"
    },
    {
      "inputs": [],
      "name": "getBaluniYearnVaultRegistry",
      "outputs": [
        {
          "internalType": "address",
          "name": "",
          "type": "address"
        }
      ],
      "stateMutability": "view",
      "type": "function"
    },
    {
      "inputs": [],
      "name": "getMAX_BPS_FEE",
      "outputs": [
        {
          "internalType": "uint256",
          "name": "",
          "type": "uint256"
        }
      ],
      "stateMutability": "view",
      "type": "function"
    },
    {
      "inputs": [],
      "name": "getREBALANCE_THRESHOLD",
      "outputs": [
        {
          "internalType": "uint256",
          "name": "",
          "type": "uint256"
        }
      ],
      "stateMutability": "view",
      "type": "function"
    },
    {
      "inputs": [],
      "name": "getStaticOracle",
      "outputs": [
        {
          "internalType": "address",
          "name": "",
          "type": "address"
        }
      ],
      "stateMutability": "view",
      "type": "function"
    },
    {
      "inputs": [],
      "name": "getTreasury",
      "outputs": [
        {
          "internalType": "address",
          "name": "",
          "type": "address"
        }
      ],
      "stateMutability": "view",
      "type": "function"
    },
    {
      "inputs": [],
      "name": "getUSDC",
      "outputs": [
        {
          "internalType": "address",
          "name": "",
          "type": "address"
        }
      ],
      "stateMutability": "view",
      "type": "function"
    },
    {
      "inputs": [],
      "name": "getUniswapFactory",
      "outputs": [
        {
          "internalType": "address",
          "name": "",
          "type": "address"
        }
      ],
      "stateMutability": "view",
      "type": "function"
    },
    {
      "inputs": [],
      "name": "getUniswapQuoter",
      "outputs": [
        {
          "internalType": "address",
          "name": "",
          "type": "address"
        }
      ],
      "stateMutability": "view",
      "type": "function"
    },
    {
      "inputs": [],
      "name": "getUniswapRouter",
      "outputs": [
        {
          "internalType": "address",
          "name": "",
          "type": "address"
        }
      ],
      "stateMutability": "view",
      "type": "function"
    },
    {
      "inputs": [],
      "name": "getWNATIVE",
      "outputs": [
        {
          "internalType": "address",
          "name": "",
          "type": "address"
        }
      ],
      "stateMutability": "view",
      "type": "function"
    },
    {
      "inputs": [],
      "name": "initialize",
      "outputs": [],
      "stateMutability": "nonpayable",
      "type": "function"
    },
    {
      "inputs": [],
      "name": "owner",
      "outputs": [
        {
          "internalType": "address",
          "name": "",
          "type": "address"
        }
      ],
      "stateMutability": "view",
      "type": "function"
    },
    {
      "inputs": [],
      "name": "proxiableUUID",
      "outputs": [
        {
          "internalType": "bytes32",
          "name": "",
          "type": "bytes32"
        }
      ],
      "stateMutability": "view",
      "type": "function"
    },
    {
      "inputs": [],
      "name": "renounceOwnership",
      "outputs": [],
      "stateMutability": "nonpayable",
      "type": "function"
    },
    {
      "inputs": [
        {
          "internalType": "address",
          "name": "__1inchSpotAgg",
          "type": "address"
        }
      ],
      "name": "set1inchSpotAgg",
      "outputs": [],
      "stateMutability": "nonpayable",
      "type": "function"
    },
    {
      "inputs": [
        {
          "internalType": "uint256",
          "name": "__BPS_FEE",
          "type": "uint256"
        }
      ],
      "name": "setBPS_FEE",
      "outputs": [],
      "stateMutability": "nonpayable",
      "type": "function"
    },
    {
      "inputs": [
        {
          "internalType": "address",
          "name": "_baluniAgentFactory",
          "type": "address"
        }
      ],
      "name": "setBaluniAgentFactory",
      "outputs": [],
      "stateMutability": "nonpayable",
      "type": "function"
    },
    {
      "inputs": [
        {
          "internalType": "address",
          "name": "_baluniDCAVaultRegistry",
          "type": "address"
        }
      ],
      "name": "setBaluniDCAVaultRegistry",
      "outputs": [],
      "stateMutability": "nonpayable",
      "type": "function"
    },
    {
      "inputs": [
        {
          "internalType": "address",
          "name": "_baluniOracle",
          "type": "address"
        }
      ],
      "name": "setBaluniOracle",
      "outputs": [],
      "stateMutability": "nonpayable",
      "type": "function"
    },
    {
      "inputs": [
        {
          "internalType": "address",
          "name": "_baluniPoolPeriphery",
          "type": "address"
        }
      ],
      "name": "setBaluniPoolPeriphery",
      "outputs": [],
      "stateMutability": "nonpayable",
      "type": "function"
    },
    {
      "inputs": [
        {
          "internalType": "address",
          "name": "_baluniPoolRegistry",
          "type": "address"
        }
      ],
      "name": "setBaluniPoolRegistry",
      "outputs": [],
      "stateMutability": "nonpayable",
      "type": "function"
    },
    {
      "inputs": [
        {
          "internalType": "address",
          "name": "_baluniPoolZap",
          "type": "address"
        }
      ],
      "name": "setBaluniPoolZap",
      "outputs": [],
      "stateMutability": "nonpayable",
      "type": "function"
    },
    {
      "inputs": [
        {
          "internalType": "address",
          "name": "_baluniRebalancer",
          "type": "address"
        }
      ],
      "name": "setBaluniRebalancer",
      "outputs": [],
      "stateMutability": "nonpayable",
      "type": "function"
    },
    {
      "inputs": [
        {
          "internalType": "address",
          "name": "_baluniRegistry",
          "type": "address"
        }
      ],
      "name": "setBaluniRegistry",
      "outputs": [],
      "stateMutability": "nonpayable",
      "type": "function"
    },
    {
      "inputs": [
        {
          "internalType": "address",
          "name": "_baluniRouter",
          "type": "address"
        }
      ],
      "name": "setBaluniRouter",
      "outputs": [],
      "stateMutability": "nonpayable",
      "type": "function"
    },
    {
      "inputs": [
        {
          "internalType": "address",
          "name": "_baluniSwapper",
          "type": "address"
        }
      ],
      "name": "setBaluniSwapper",
      "outputs": [],
      "stateMutability": "nonpayable",
      "type": "function"
    },
    {
      "inputs": [
        {
          "internalType": "address",
          "name": "_baluniYearnVaultRegistry",
          "type": "address"
        }
      ],
      "name": "setBaluniYearnVaultRegistry",
      "outputs": [],
      "stateMutability": "nonpayable",
      "type": "function"
    },
    {
      "inputs": [
        {
          "internalType": "uint256",
          "name": "__REBALANCE_THRESHOLD",
          "type": "uint256"
        }
      ],
      "name": "setREBALANCE_THRESHOLD",
      "outputs": [],
      "stateMutability": "nonpayable",
      "type": "function"
    },
    {
      "inputs": [
        {
          "internalType": "address",
          "name": "_staticOracle",
          "type": "address"
        }
      ],
      "name": "setStaticOracle",
      "outputs": [],
      "stateMutability": "nonpayable",
      "type": "function"
    },
    {
      "inputs": [
        {
          "internalType": "address",
          "name": "_treasury",
          "type": "address"
        }
      ],
      "name": "setTreasury",
      "outputs": [],
      "stateMutability": "nonpayable",
      "type": "function"
    },
    {
      "inputs": [
        {
          "internalType": "address",
          "name": "_USDC",
          "type": "address"
        }
      ],
      "name": "setUSDC",
      "outputs": [],
      "stateMutability": "nonpayable",
      "type": "function"
    },
    {
      "inputs": [
        {
          "internalType": "address",
          "name": "_uniswapFactory",
          "type": "address"
        }
      ],
      "name": "setUniswapFactory",
      "outputs": [],
      "stateMutability": "nonpayable",
      "type": "function"
    },
    {
      "inputs": [
        {
          "internalType": "address",
          "name": "_uniswapQuoter",
          "type": "address"
        }
      ],
      "name": "setUniswapQuoter",
      "outputs": [],
      "stateMutability": "nonpayable",
      "type": "function"
    },
    {
      "inputs": [
        {
          "internalType": "address",
          "name": "_uniswapRouter",
          "type": "address"
        }
      ],
      "name": "setUniswapRouter",
      "outputs": [],
      "stateMutability": "nonpayable",
      "type": "function"
    },
    {
      "inputs": [
        {
          "internalType": "address",
          "name": "_WNATIVE",
          "type": "address"
        }
      ],
      "name": "setWNATIVE",
      "outputs": [],
      "stateMutability": "nonpayable",
      "type": "function"
    },
    {
      "inputs": [],
      "name": "staticOracle",
      "outputs": [
        {
          "internalType": "address",
          "name": "",
          "type": "address"
        }
      ],
      "stateMutability": "view",
      "type": "function"
    },
    {
      "inputs": [
        {
          "internalType": "address",
          "name": "newOwner",
          "type": "address"
        }
      ],
      "name": "transferOwnership",
      "outputs": [],
      "stateMutability": "nonpayable",
      "type": "function"
    },
    {
      "inputs": [],
      "name": "treasury",
      "outputs": [
        {
          "internalType": "address",
          "name": "",
          "type": "address"
        }
      ],
      "stateMutability": "view",
      "type": "function"
    },
    {
      "inputs": [],
      "name": "uniswapFactory",
      "outputs": [
        {
          "internalType": "address",
          "name": "",
          "type": "address"
        }
      ],
      "stateMutability": "view",
      "type": "function"
    },
    {
      "inputs": [],
      "name": "uniswapQuoter",
      "outputs": [
        {
          "internalType": "address",
          "name": "",
          "type": "address"
        }
      ],
      "stateMutability": "view",
      "type": "function"
    },
    {
      "inputs": [],
      "name": "uniswapRouter",
      "outputs": [
        {
          "internalType": "address",
          "name": "",
          "type": "address"
        }
      ],
      "stateMutability": "view",
      "type": "function"
    },
    {
      "inputs": [
        {
          "internalType": "address",
          "name": "newImplementation",
          "type": "address"
        },
        {
          "internalType": "bytes",
          "name": "data",
          "type": "bytes"
        }
      ],
      "name": "upgradeToAndCall",
      "outputs": [],
      "stateMutability": "payable",
      "type": "function"
    }
  ],
  "bytecode": "0x60a0806040523460295730608052611a0c908161002e823960805181818161114801526112450152f35b5f80fdfe6080604090808252600480361015610015575f80fd5b5f3560e01c9182630218ecd6146116b1575081630241bffa1461164d578163040f767e146110ec57816304cc7325146115625781631292f02e146103e65781631acb6141146110545781631bf01e9b14610cc557816326158136146115e95781632da52442146115ca57816332327d1f1461159657816332569e02146114cc57816334decfc914610b8957816339b65140146115625781633b19e84a146110205781633e6dfa3614610c92578163400fb668146114fe578163468a7071146108815781634b66a135146114cc5781634db4a35214610a335781634f1ef286146111bd5781634f4608a214610cf9578163524900b514610eea57816352d1902d146111205781635333c118146110ec578163588c5b701461108857816358a672331461105457816361d027b3146110205781636c43274c14610fbc5781636c9c0078146109ff578163715018a614610f1e578163735de9f714610eea578163782dd90214610c0b5781637dfb7ea114610d175781638129fc1c14610d4b57816382755ebb14610d175781638537718814610cf957816385462d6f1461091957816389a3027114610cc55781638bdb2afa14610c925781638da5cb5b14610c3f5781638e1c3a8a14610c0b5781638ffc067314610ba75781639380fb6f14610b895781639454705f14610b3657816399c22ca6146105715781639e6453f814610b6a578163a5d2236f14610b36578163ad3cb1cc14610a67578163b0a7097514610a33578163b381cf40146109ff578163b3e089a21461099b578163b691a419146106bd578163b6fe9cc714610937578163b9f5e61714610919578163ba535c54146108b5578163bb3ba04c14610881578163bea9849e1461081d578163c08f786b146107b9578163c3f5df5c14610755578163c9aba8ae1461058f578163cc01e9a6146106f1578163cff49d68146106bd578163d7e5367314610659578163e04b677f146105f7578163e23d837b146105c3578163e528ca121461058f578163ea233c0514610571578163f0f442601461050d578163f1dccde7146104a9578163f2fde38b1461047e578163f5b84f641461041a578163f5d2d998146103e6578163f98977a914610385575063ffa08e951461034e575f80fd5b34610381575f6003193601126103815760209073ffffffffffffffffffffffffffffffffffffffff600b54169051908152f35b5f80fd5b346103815760206003193601126103815773ffffffffffffffffffffffffffffffffffffffff6103b36116e1565b6103bb61186d565b82547fffffffffffffffffffffffff0000000000000000000000000000000000000000169116179055005b8234610381575f6003193601126103815760209073ffffffffffffffffffffffffffffffffffffffff600254169051908152f35b346103815760206003193601126103815773ffffffffffffffffffffffffffffffffffffffff6104486116e1565b61045061186d565b167fffffffffffffffffffffffff000000000000000000000000000000000000000060085416176008555f80f35b34610381576020600319360112610381576104a761049a6116e1565b6104a261186d565b6117ac565b005b346103815760206003193601126103815773ffffffffffffffffffffffffffffffffffffffff6104d76116e1565b6104df61186d565b167fffffffffffffffffffffffff000000000000000000000000000000000000000060025416176002555f80f35b346103815760206003193601126103815773ffffffffffffffffffffffffffffffffffffffff61053b6116e1565b61054361186d565b167fffffffffffffffffffffffff0000000000000000000000000000000000000000600c541617600c555f80f35b8234610381575f600319360112610381576020906014549051908152f35b8234610381575f6003193601126103815760209073ffffffffffffffffffffffffffffffffffffffff600754169051908152f35b8234610381575f6003193601126103815760209073ffffffffffffffffffffffffffffffffffffffff600b54169051908152f35b346103815760206003193601126103815773ffffffffffffffffffffffffffffffffffffffff6106256116e1565b61062d61186d565b167fffffffffffffffffffffffff00000000000000000000000000000000000000005f5416175f555f80f35b346103815760206003193601126103815773ffffffffffffffffffffffffffffffffffffffff6106876116e1565b61068f61186d565b167fffffffffffffffffffffffff0000000000000000000000000000000000000000600b541617600b555f80f35b8234610381575f6003193601126103815760209073ffffffffffffffffffffffffffffffffffffffff600554169051908152f35b346103815760206003193601126103815773ffffffffffffffffffffffffffffffffffffffff61071f6116e1565b61072761186d565b167fffffffffffffffffffffffff0000000000000000000000000000000000000000600d541617600d555f80f35b346103815760206003193601126103815773ffffffffffffffffffffffffffffffffffffffff6107836116e1565b61078b61186d565b167fffffffffffffffffffffffff000000000000000000000000000000000000000060095416176009555f80f35b346103815760206003193601126103815773ffffffffffffffffffffffffffffffffffffffff6107e76116e1565b6107ef61186d565b167fffffffffffffffffffffffff000000000000000000000000000000000000000060105416176010555f80f35b346103815760206003193601126103815773ffffffffffffffffffffffffffffffffffffffff61084b6116e1565b61085361186d565b167fffffffffffffffffffffffff000000000000000000000000000000000000000060015416176001555f80f35b8234610381575f6003193601126103815760209073ffffffffffffffffffffffffffffffffffffffff600854169051908152f35b346103815760206003193601126103815773ffffffffffffffffffffffffffffffffffffffff6108e36116e1565b6108eb61186d565b167fffffffffffffffffffffffff0000000000000000000000000000000000000000600a541617600a555f80f35b8234610381575f600319360112610381576020906012549051908152f35b346103815760206003193601126103815773ffffffffffffffffffffffffffffffffffffffff6109656116e1565b61096d61186d565b167fffffffffffffffffffffffff0000000000000000000000000000000000000000600e541617600e555f80f35b346103815760206003193601126103815773ffffffffffffffffffffffffffffffffffffffff6109c96116e1565b6109d161186d565b167fffffffffffffffffffffffff0000000000000000000000000000000000000000600f541617600f555f80f35b8234610381575f6003193601126103815760209073ffffffffffffffffffffffffffffffffffffffff600e54169051908152f35b8234610381575f6003193601126103815760209073ffffffffffffffffffffffffffffffffffffffff601554169051908152f35b8234610381575f600319360112610381578051918183019083821067ffffffffffffffff831117610b0a575081526005825260208201917f352e302e3000000000000000000000000000000000000000000000000000000083527fffffffffffffffffffffffffffffffffffffffffffffffffffffffffffffffe0601f8351948593602085525180918160208701528686015e5f85828601015201168101030190f35b6041907f4e487b71000000000000000000000000000000000000000000000000000000005f525260245ffd5b8234610381575f6003193601126103815760209073ffffffffffffffffffffffffffffffffffffffff600d54169051908152f35b3461038157602060031936011261038157610b8361186d565b35601255005b8234610381575f600319360112610381576020906011549051908152f35b346103815760206003193601126103815773ffffffffffffffffffffffffffffffffffffffff610bd56116e1565b610bdd61186d565b167fffffffffffffffffffffffff000000000000000000000000000000000000000060165416176016555f80f35b8234610381575f6003193601126103815760209073ffffffffffffffffffffffffffffffffffffffff601054169051908152f35b8234610381575f6003193601126103815760209073ffffffffffffffffffffffffffffffffffffffff7f9016d09d72d40fdae2fd8ceac6b6234c7706214fd39c1cd1e609a0528c19930054169051908152f35b8234610381575f6003193601126103815760209073ffffffffffffffffffffffffffffffffffffffff5f54169051908152f35b8234610381575f6003193601126103815760209073ffffffffffffffffffffffffffffffffffffffff600f54169051908152f35b8234610381575f600319360112610381576020906013549051908152f35b8234610381575f6003193601126103815760209073ffffffffffffffffffffffffffffffffffffffff600954169051908152f35b905034610381575f600319360112610381577ff0c57e16840df040f15088dc2f81fe391c3923bec73e23a9662efc9c229c6a0090815460ff81851c16159167ffffffffffffffff821680159081610ee2575b6001149081610ed8575b159081610ecf575b50610ea857508160017fffffffffffffffffffffffffffffffffffffffffffffffff00000000000000008316178455610e73575b50610dec6118dd565b610df46118dd565b610dfd336117ac565b610e056118dd565b6064601155601e6012556127106013556064601455610e2057005b7fc7f505b2f371ae2175ee4913f4499e1f2633a7b5936321eed1cdaeb6115181d291817fffffffffffffffffffffffffffffffffffffffffffffff00ffffffffffffffff602093541690555160018152a1005b7fffffffffffffffffffffffffffffffffffffffffffffff00000000000000000016680100000000000000011782555f610de3565b84517ff92ee8a9000000000000000000000000000000000000000000000000000000008152fd5b9050155f610daf565b303b159150610da7565b849150610d9d565b8234610381575f6003193601126103815760209073ffffffffffffffffffffffffffffffffffffffff600154169051908152f35b34610381575f60031936011261038157610f3661186d565b5f73ffffffffffffffffffffffffffffffffffffffff7f9016d09d72d40fdae2fd8ceac6b6234c7706214fd39c1cd1e609a0528c1993008054907fffffffffffffffffffffffff000000000000000000000000000000000000000082169055167f8be0079c531659141344cd1fd0a4f28419497f9722a3daafe3b4186f6b6457e08280a3005b346103815760206003193601126103815773ffffffffffffffffffffffffffffffffffffffff610fea6116e1565b610ff261186d565b167fffffffffffffffffffffffff000000000000000000000000000000000000000060075416176007555f80f35b8234610381575f6003193601126103815760209073ffffffffffffffffffffffffffffffffffffffff600c54169051908152f35b8234610381575f6003193601126103815760209073ffffffffffffffffffffffffffffffffffffffff600354169051908152f35b346103815760206003193601126103815773ffffffffffffffffffffffffffffffffffffffff6110b66116e1565b6110be61186d565b167fffffffffffffffffffffffff000000000000000000000000000000000000000060035416176003555f80f35b8234610381575f6003193601126103815760209073ffffffffffffffffffffffffffffffffffffffff601654169051908152f35b8234610381575f6003193601126103815773ffffffffffffffffffffffffffffffffffffffff7f000000000000000000000000000000000000000000000000000000000000000016300361119757602090517f360894a13ba1a3210667c828492db98dca3e2076cc3735a920a3ca505d382bbc8152f35b517fe07c8dba000000000000000000000000000000000000000000000000000000008152fd5b905081600319360112610381576111d26116e1565b602492833567ffffffffffffffff8111610381573660238201121561038157808401356111fe81611772565b9361120b84519586611704565b818552602091828601933689838301011161038157815f928a86930187378701015273ffffffffffffffffffffffffffffffffffffffff807f00000000000000000000000000000000000000000000000000000000000000001680301490811561149e575b506114765761127d61186d565b81169484517f52d1902d000000000000000000000000000000000000000000000000000000008152838189818a5afa5f9181611447575b506112e857505050505051917f4c9c8ce3000000000000000000000000000000000000000000000000000000008352820152fd5b9087878794938b7f360894a13ba1a3210667c828492db98dca3e2076cc3735a920a3ca505d382bbc9182810361141a5750853b156113ed5750817fffffffffffffffffffffffff00000000000000000000000000000000000000008254161790558451907fbc7cd75a20ee27fd9adebab32041f755214dbc6bffa90cc0225b39da2e5c2d3b5f80a28251156113ba5750505f6104a79581925190845af4913d156113b0573d6113a261139982611772565b92519283611704565b81525f81943d92013e611936565b5060609250611936565b94509450505050346113c857005b7fb398979f000000000000000000000000000000000000000000000000000000008152fd5b83838851917f4c9c8ce3000000000000000000000000000000000000000000000000000000008352820152fd5b84908851917faa1d49a4000000000000000000000000000000000000000000000000000000008352820152fd5b9091508481813d831161146f575b61145f8183611704565b810103126103815751905f6112b4565b503d611455565b8685517fe07c8dba000000000000000000000000000000000000000000000000000000008152fd5b9050817f360894a13ba1a3210667c828492db98dca3e2076cc3735a920a3ca505d382bbc541614155f611270565b8234610381575f6003193601126103815773ffffffffffffffffffffffffffffffffffffffff60209254169051908152f35b346103815760206003193601126103815773ffffffffffffffffffffffffffffffffffffffff61152c6116e1565b61153461186d565b167fffffffffffffffffffffffff000000000000000000000000000000000000000060065416176006555f80f35b8234610381575f6003193601126103815760209073ffffffffffffffffffffffffffffffffffffffff600654169051908152f35b8234610381575f6003193601126103815760209073ffffffffffffffffffffffffffffffffffffffff600a54169051908152f35b34610381576020600319360112610381576115e361186d565b35601455005b346103815760206003193601126103815773ffffffffffffffffffffffffffffffffffffffff6116176116e1565b61161f61186d565b167fffffffffffffffffffffffff000000000000000000000000000000000000000060155416176015555f80f35b346103815760206003193601126103815773ffffffffffffffffffffffffffffffffffffffff61167b6116e1565b61168361186d565b167fffffffffffffffffffffffff000000000000000000000000000000000000000060055416176005555f80f35b34610381575f6003193601126103815760209073ffffffffffffffffffffffffffffffffffffffff600a54168152f35b6004359073ffffffffffffffffffffffffffffffffffffffff8216820361038157565b90601f7fffffffffffffffffffffffffffffffffffffffffffffffffffffffffffffffe0910116810190811067ffffffffffffffff82111761174557604052565b7f4e487b71000000000000000000000000000000000000000000000000000000005f52604160045260245ffd5b67ffffffffffffffff811161174557601f017fffffffffffffffffffffffffffffffffffffffffffffffffffffffffffffffe01660200190565b73ffffffffffffffffffffffffffffffffffffffff80911690811561183d577f9016d09d72d40fdae2fd8ceac6b6234c7706214fd39c1cd1e609a0528c199300805490837fffffffffffffffffffffffff00000000000000000000000000000000000000008316179055167f8be0079c531659141344cd1fd0a4f28419497f9722a3daafe3b4186f6b6457e05f80a3565b60246040517f1e4fbdf70000000000000000000000000000000000000000000000000000000081525f6004820152fd5b73ffffffffffffffffffffffffffffffffffffffff7f9016d09d72d40fdae2fd8ceac6b6234c7706214fd39c1cd1e609a0528c199300541633036118ad57565b60246040517f118cdaa7000000000000000000000000000000000000000000000000000000008152336004820152fd5b60ff7ff0c57e16840df040f15088dc2f81fe391c3923bec73e23a9662efc9c229c6a005460401c161561190c57565b60046040517fd7e6bcf8000000000000000000000000000000000000000000000000000000008152fd5b90611975575080511561194b57805190602001fd5b60046040517f1425ea42000000000000000000000000000000000000000000000000000000008152fd5b815115806119cd575b611986575090565b60249073ffffffffffffffffffffffffffffffffffffffff604051917f9996b315000000000000000000000000000000000000000000000000000000008352166004820152fd5b50803b1561197e56fea2646970667358221220c7299bf4cfeaf0207bcaadfdcc49521bc9c069131bd8ea24b40f9107cbbce52a64736f6c63430008190033",
  "linkReferences": {},
  "deployedLinkReferences": {}
}