{
  "_format": "hh-sol-artifact-1",
  "contractName": "BaluniV1Registry",
  "sourceName": "contracts/registry/BaluniV1Registry.sol",
  "abi": [
    {
      "inputs": [
        {
          "internalType": "address",
          "name": "target",
          "type": "address"
        }
      ],
      "name": "AddressEmptyCode",
      "type": "error"
    },
    {
      "inputs": [
        {
          "internalType": "address",
          "name": "implementation",
          "type": "address"
        }
      ],
      "name": "ERC1967InvalidImplementation",
      "type": "error"
    },
    {
      "inputs": [],
      "name": "ERC1967NonPayable",
      "type": "error"
    },
    {
      "inputs": [],
      "name": "FailedInnerCall",
      "type": "error"
    },
    {
      "inputs": [],
      "name": "InvalidInitialization",
      "type": "error"
    },
    {
      "inputs": [],
      "name": "NotInitializing",
      "type": "error"
    },
    {
      "inputs": [
        {
          "internalType": "address",
          "name": "owner",
          "type": "address"
        }
      ],
      "name": "OwnableInvalidOwner",
      "type": "error"
    },
    {
      "inputs": [
        {
          "internalType": "address",
          "name": "account",
          "type": "address"
        }
      ],
      "name": "OwnableUnauthorizedAccount",
      "type": "error"
    },
    {
      "inputs": [],
      "name": "UUPSUnauthorizedCallContext",
      "type": "error"
    },
    {
      "inputs": [
        {
          "internalType": "bytes32",
          "name": "slot",
          "type": "bytes32"
        }
      ],
      "name": "UUPSUnsupportedProxiableUUID",
      "type": "error"
    },
    {
      "anonymous": false,
      "inputs": [
        {
          "indexed": false,
          "internalType": "uint64",
          "name": "version",
          "type": "uint64"
        }
      ],
      "name": "Initialized",
      "type": "event"
    },
    {
      "anonymous": false,
      "inputs": [
        {
          "indexed": true,
          "internalType": "address",
          "name": "previousOwner",
          "type": "address"
        },
        {
          "indexed": true,
          "internalType": "address",
          "name": "newOwner",
          "type": "address"
        }
      ],
      "name": "OwnershipTransferred",
      "type": "event"
    },
    {
      "anonymous": false,
      "inputs": [
        {
          "indexed": true,
          "internalType": "address",
          "name": "implementation",
          "type": "address"
        }
      ],
      "name": "Upgraded",
      "type": "event"
    },
    {
      "inputs": [],
      "name": "UPGRADE_INTERFACE_VERSION",
      "outputs": [
        {
          "internalType": "string",
          "name": "",
          "type": "string"
        }
      ],
      "stateMutability": "view",
      "type": "function"
    },
    {
      "inputs": [],
      "name": "USDC",
      "outputs": [
        {
          "internalType": "address",
          "name": "",
          "type": "address"
        }
      ],
      "stateMutability": "view",
      "type": "function"
    },
    {
      "inputs": [],
      "name": "WNATIVE",
      "outputs": [
        {
          "internalType": "address",
          "name": "",
          "type": "address"
        }
      ],
      "stateMutability": "view",
      "type": "function"
    },
    {
      "inputs": [],
      "name": "_1inchSpotAgg",
      "outputs": [
        {
          "internalType": "address",
          "name": "",
          "type": "address"
        }
      ],
      "stateMutability": "view",
      "type": "function"
    },
    {
      "inputs": [],
      "name": "_BPS_BASE",
      "outputs": [
        {
          "internalType": "uint256",
          "name": "",
          "type": "uint256"
        }
      ],
      "stateMutability": "view",
      "type": "function"
    },
    {
      "inputs": [],
      "name": "_BPS_FEE",
      "outputs": [
        {
          "internalType": "uint256",
          "name": "",
          "type": "uint256"
        }
      ],
      "stateMutability": "view",
      "type": "function"
    },
    {
      "inputs": [],
      "name": "_MAX_BPS_FEE",
      "outputs": [
        {
          "internalType": "uint256",
          "name": "",
          "type": "uint256"
        }
      ],
      "stateMutability": "view",
      "type": "function"
    },
    {
      "inputs": [],
      "name": "_REBALANCE_THRESHOLD",
      "outputs": [
        {
          "internalType": "uint256",
          "name": "",
          "type": "uint256"
        }
      ],
      "stateMutability": "view",
      "type": "function"
    },
    {
      "inputs": [],
      "name": "baluniAgentFactory",
      "outputs": [
        {
          "internalType": "address",
          "name": "",
          "type": "address"
        }
      ],
      "stateMutability": "view",
      "type": "function"
    },
    {
      "inputs": [],
      "name": "baluniDCAVaultRegistry",
      "outputs": [
        {
          "internalType": "address",
          "name": "",
          "type": "address"
        }
      ],
      "stateMutability": "view",
      "type": "function"
    },
    {
      "inputs": [],
      "name": "baluniHyperPoolZap",
      "outputs": [
        {
          "internalType": "address",
          "name": "",
          "type": "address"
        }
      ],
      "stateMutability": "view",
      "type": "function"
    },
    {
      "inputs": [],
      "name": "baluniOracle",
      "outputs": [
        {
          "internalType": "address",
          "name": "",
          "type": "address"
        }
      ],
      "stateMutability": "view",
      "type": "function"
    },
    {
      "inputs": [],
      "name": "baluniPoolPeriphery",
      "outputs": [
        {
          "internalType": "address",
          "name": "",
          "type": "address"
        }
      ],
      "stateMutability": "view",
      "type": "function"
    },
    {
      "inputs": [],
      "name": "baluniPoolRegistry",
      "outputs": [
        {
          "internalType": "address",
          "name": "",
          "type": "address"
        }
      ],
      "stateMutability": "view",
      "type": "function"
    },
    {
      "inputs": [],
      "name": "baluniPoolZap",
      "outputs": [
        {
          "internalType": "address",
          "name": "",
          "type": "address"
        }
      ],
      "stateMutability": "view",
      "type": "function"
    },
    {
      "inputs": [],
      "name": "baluniRebalancer",
      "outputs": [
        {
          "internalType": "address",
          "name": "",
          "type": "address"
        }
      ],
      "stateMutability": "view",
      "type": "function"
    },
    {
      "inputs": [],
      "name": "baluniRegistry",
      "outputs": [
        {
          "internalType": "address",
          "name": "",
          "type": "address"
        }
      ],
      "stateMutability": "view",
      "type": "function"
    },
    {
      "inputs": [],
      "name": "baluniRouter",
      "outputs": [
        {
          "internalType": "address",
          "name": "",
          "type": "address"
        }
      ],
      "stateMutability": "view",
      "type": "function"
    },
    {
      "inputs": [],
      "name": "baluniSwapper",
      "outputs": [
        {
          "internalType": "address",
          "name": "",
          "type": "address"
        }
      ],
      "stateMutability": "view",
      "type": "function"
    },
    {
      "inputs": [],
      "name": "baluniYearnVaultRegistry",
      "outputs": [
        {
          "internalType": "address",
          "name": "",
          "type": "address"
        }
      ],
      "stateMutability": "view",
      "type": "function"
    },
    {
      "inputs": [],
      "name": "get1inchSpotAgg",
      "outputs": [
        {
          "internalType": "address",
          "name": "",
          "type": "address"
        }
      ],
      "stateMutability": "view",
      "type": "function"
    },
    {
      "inputs": [],
      "name": "getBPS_BASE",
      "outputs": [
        {
          "internalType": "uint256",
          "name": "",
          "type": "uint256"
        }
      ],
      "stateMutability": "view",
      "type": "function"
    },
    {
      "inputs": [],
      "name": "getBPS_FEE",
      "outputs": [
        {
          "internalType": "uint256",
          "name": "",
          "type": "uint256"
        }
      ],
      "stateMutability": "view",
      "type": "function"
    },
    {
      "inputs": [],
      "name": "getBaluniAgentFactory",
      "outputs": [
        {
          "internalType": "address",
          "name": "",
          "type": "address"
        }
      ],
      "stateMutability": "view",
      "type": "function"
    },
    {
      "inputs": [],
      "name": "getBaluniDCAVaultRegistry",
      "outputs": [
        {
          "internalType": "address",
          "name": "",
          "type": "address"
        }
      ],
      "stateMutability": "view",
      "type": "function"
    },
    {
      "inputs": [],
      "name": "getBaluniHyperPoolZap",
      "outputs": [
        {
          "internalType": "address",
          "name": "",
          "type": "address"
        }
      ],
      "stateMutability": "view",
      "type": "function"
    },
    {
      "inputs": [],
      "name": "getBaluniOracle",
      "outputs": [
        {
          "internalType": "address",
          "name": "",
          "type": "address"
        }
      ],
      "stateMutability": "view",
      "type": "function"
    },
    {
      "inputs": [],
      "name": "getBaluniPoolPeriphery",
      "outputs": [
        {
          "internalType": "address",
          "name": "",
          "type": "address"
        }
      ],
      "stateMutability": "view",
      "type": "function"
    },
    {
      "inputs": [],
      "name": "getBaluniPoolRegistry",
      "outputs": [
        {
          "internalType": "address",
          "name": "",
          "type": "address"
        }
      ],
      "stateMutability": "view",
      "type": "function"
    },
    {
      "inputs": [],
      "name": "getBaluniPoolZap",
      "outputs": [
        {
          "internalType": "address",
          "name": "",
          "type": "address"
        }
      ],
      "stateMutability": "view",
      "type": "function"
    },
    {
      "inputs": [],
      "name": "getBaluniRebalancer",
      "outputs": [
        {
          "internalType": "address",
          "name": "",
          "type": "address"
        }
      ],
      "stateMutability": "view",
      "type": "function"
    },
    {
      "inputs": [],
      "name": "getBaluniRegistry",
      "outputs": [
        {
          "internalType": "address",
          "name": "",
          "type": "address"
        }
      ],
      "stateMutability": "view",
      "type": "function"
    },
    {
      "inputs": [],
      "name": "getBaluniRouter",
      "outputs": [
        {
          "internalType": "address",
          "name": "",
          "type": "address"
        }
      ],
      "stateMutability": "view",
      "type": "function"
    },
    {
      "inputs": [],
      "name": "getBaluniSwapper",
      "outputs": [
        {
          "internalType": "address",
          "name": "",
          "type": "address"
        }
      ],
      "stateMutability": "view",
      "type": "function"
    },
    {
      "inputs": [],
      "name": "getBaluniYearnVaultRegistry",
      "outputs": [
        {
          "internalType": "address",
          "name": "",
          "type": "address"
        }
      ],
      "stateMutability": "view",
      "type": "function"
    },
    {
      "inputs": [],
      "name": "getMAX_BPS_FEE",
      "outputs": [
        {
          "internalType": "uint256",
          "name": "",
          "type": "uint256"
        }
      ],
      "stateMutability": "view",
      "type": "function"
    },
    {
      "inputs": [],
      "name": "getREBALANCE_THRESHOLD",
      "outputs": [
        {
          "internalType": "uint256",
          "name": "",
          "type": "uint256"
        }
      ],
      "stateMutability": "view",
      "type": "function"
    },
    {
      "inputs": [],
      "name": "getStaticOracle",
      "outputs": [
        {
          "internalType": "address",
          "name": "",
          "type": "address"
        }
      ],
      "stateMutability": "view",
      "type": "function"
    },
    {
      "inputs": [],
      "name": "getTreasury",
      "outputs": [
        {
          "internalType": "address",
          "name": "",
          "type": "address"
        }
      ],
      "stateMutability": "view",
      "type": "function"
    },
    {
      "inputs": [],
      "name": "getUSDC",
      "outputs": [
        {
          "internalType": "address",
          "name": "",
          "type": "address"
        }
      ],
      "stateMutability": "view",
      "type": "function"
    },
    {
      "inputs": [],
      "name": "getUniswapFactory",
      "outputs": [
        {
          "internalType": "address",
          "name": "",
          "type": "address"
        }
      ],
      "stateMutability": "view",
      "type": "function"
    },
    {
      "inputs": [],
      "name": "getUniswapQuoter",
      "outputs": [
        {
          "internalType": "address",
          "name": "",
          "type": "address"
        }
      ],
      "stateMutability": "view",
      "type": "function"
    },
    {
      "inputs": [],
      "name": "getUniswapRouter",
      "outputs": [
        {
          "internalType": "address",
          "name": "",
          "type": "address"
        }
      ],
      "stateMutability": "view",
      "type": "function"
    },
    {
      "inputs": [],
      "name": "getWNATIVE",
      "outputs": [
        {
          "internalType": "address",
          "name": "",
          "type": "address"
        }
      ],
      "stateMutability": "view",
      "type": "function"
    },
    {
      "inputs": [],
      "name": "initialize",
      "outputs": [],
      "stateMutability": "nonpayable",
      "type": "function"
    },
    {
      "inputs": [],
      "name": "owner",
      "outputs": [
        {
          "internalType": "address",
          "name": "",
          "type": "address"
        }
      ],
      "stateMutability": "view",
      "type": "function"
    },
    {
      "inputs": [],
      "name": "proxiableUUID",
      "outputs": [
        {
          "internalType": "bytes32",
          "name": "",
          "type": "bytes32"
        }
      ],
      "stateMutability": "view",
      "type": "function"
    },
    {
      "inputs": [],
      "name": "renounceOwnership",
      "outputs": [],
      "stateMutability": "nonpayable",
      "type": "function"
    },
    {
      "inputs": [
        {
          "internalType": "address",
          "name": "__1inchSpotAgg",
          "type": "address"
        }
      ],
      "name": "set1inchSpotAgg",
      "outputs": [],
      "stateMutability": "nonpayable",
      "type": "function"
    },
    {
      "inputs": [
        {
          "internalType": "uint256",
          "name": "__BPS_FEE",
          "type": "uint256"
        }
      ],
      "name": "setBPS_FEE",
      "outputs": [],
      "stateMutability": "nonpayable",
      "type": "function"
    },
    {
      "inputs": [
        {
          "internalType": "address",
          "name": "_baluniAgentFactory",
          "type": "address"
        }
      ],
      "name": "setBaluniAgentFactory",
      "outputs": [],
      "stateMutability": "nonpayable",
      "type": "function"
    },
    {
      "inputs": [
        {
          "internalType": "address",
          "name": "_baluniDCAVaultRegistry",
          "type": "address"
        }
      ],
      "name": "setBaluniDCAVaultRegistry",
      "outputs": [],
      "stateMutability": "nonpayable",
      "type": "function"
    },
    {
      "inputs": [
        {
          "internalType": "address",
          "name": "_baluniHyperPoolZap",
          "type": "address"
        }
      ],
      "name": "setBaluniHyperPoolZap",
      "outputs": [],
      "stateMutability": "nonpayable",
      "type": "function"
    },
    {
      "inputs": [
        {
          "internalType": "address",
          "name": "_baluniOracle",
          "type": "address"
        }
      ],
      "name": "setBaluniOracle",
      "outputs": [],
      "stateMutability": "nonpayable",
      "type": "function"
    },
    {
      "inputs": [
        {
          "internalType": "address",
          "name": "_baluniPoolPeriphery",
          "type": "address"
        }
      ],
      "name": "setBaluniPoolPeriphery",
      "outputs": [],
      "stateMutability": "nonpayable",
      "type": "function"
    },
    {
      "inputs": [
        {
          "internalType": "address",
          "name": "_baluniPoolRegistry",
          "type": "address"
        }
      ],
      "name": "setBaluniPoolRegistry",
      "outputs": [],
      "stateMutability": "nonpayable",
      "type": "function"
    },
    {
      "inputs": [
        {
          "internalType": "address",
          "name": "_baluniPoolZap",
          "type": "address"
        }
      ],
      "name": "setBaluniPoolZap",
      "outputs": [],
      "stateMutability": "nonpayable",
      "type": "function"
    },
    {
      "inputs": [
        {
          "internalType": "address",
          "name": "_baluniRebalancer",
          "type": "address"
        }
      ],
      "name": "setBaluniRebalancer",
      "outputs": [],
      "stateMutability": "nonpayable",
      "type": "function"
    },
    {
      "inputs": [
        {
          "internalType": "address",
          "name": "_baluniRegistry",
          "type": "address"
        }
      ],
      "name": "setBaluniRegistry",
      "outputs": [],
      "stateMutability": "nonpayable",
      "type": "function"
    },
    {
      "inputs": [
        {
          "internalType": "address",
          "name": "_baluniRouter",
          "type": "address"
        }
      ],
      "name": "setBaluniRouter",
      "outputs": [],
      "stateMutability": "nonpayable",
      "type": "function"
    },
    {
      "inputs": [
        {
          "internalType": "address",
          "name": "_baluniSwapper",
          "type": "address"
        }
      ],
      "name": "setBaluniSwapper",
      "outputs": [],
      "stateMutability": "nonpayable",
      "type": "function"
    },
    {
      "inputs": [
        {
          "internalType": "address",
          "name": "_baluniYearnVaultRegistry",
          "type": "address"
        }
      ],
      "name": "setBaluniYearnVaultRegistry",
      "outputs": [],
      "stateMutability": "nonpayable",
      "type": "function"
    },
    {
      "inputs": [
        {
          "internalType": "uint256",
          "name": "__REBALANCE_THRESHOLD",
          "type": "uint256"
        }
      ],
      "name": "setREBALANCE_THRESHOLD",
      "outputs": [],
      "stateMutability": "nonpayable",
      "type": "function"
    },
    {
      "inputs": [
        {
          "internalType": "address",
          "name": "_staticOracle",
          "type": "address"
        }
      ],
      "name": "setStaticOracle",
      "outputs": [],
      "stateMutability": "nonpayable",
      "type": "function"
    },
    {
      "inputs": [
        {
          "internalType": "address",
          "name": "_treasury",
          "type": "address"
        }
      ],
      "name": "setTreasury",
      "outputs": [],
      "stateMutability": "nonpayable",
      "type": "function"
    },
    {
      "inputs": [
        {
          "internalType": "address",
          "name": "_USDC",
          "type": "address"
        }
      ],
      "name": "setUSDC",
      "outputs": [],
      "stateMutability": "nonpayable",
      "type": "function"
    },
    {
      "inputs": [
        {
          "internalType": "address",
          "name": "_uniswapFactory",
          "type": "address"
        }
      ],
      "name": "setUniswapFactory",
      "outputs": [],
      "stateMutability": "nonpayable",
      "type": "function"
    },
    {
      "inputs": [
        {
          "internalType": "address",
          "name": "_uniswapQuoter",
          "type": "address"
        }
      ],
      "name": "setUniswapQuoter",
      "outputs": [],
      "stateMutability": "nonpayable",
      "type": "function"
    },
    {
      "inputs": [
        {
          "internalType": "address",
          "name": "_uniswapRouter",
          "type": "address"
        }
      ],
      "name": "setUniswapRouter",
      "outputs": [],
      "stateMutability": "nonpayable",
      "type": "function"
    },
    {
      "inputs": [
        {
          "internalType": "address",
          "name": "_WNATIVE",
          "type": "address"
        }
      ],
      "name": "setWNATIVE",
      "outputs": [],
      "stateMutability": "nonpayable",
      "type": "function"
    },
    {
      "inputs": [],
      "name": "staticOracle",
      "outputs": [
        {
          "internalType": "address",
          "name": "",
          "type": "address"
        }
      ],
      "stateMutability": "view",
      "type": "function"
    },
    {
      "inputs": [
        {
          "internalType": "address",
          "name": "newOwner",
          "type": "address"
        }
      ],
      "name": "transferOwnership",
      "outputs": [],
      "stateMutability": "nonpayable",
      "type": "function"
    },
    {
      "inputs": [],
      "name": "treasury",
      "outputs": [
        {
          "internalType": "address",
          "name": "",
          "type": "address"
        }
      ],
      "stateMutability": "view",
      "type": "function"
    },
    {
      "inputs": [],
      "name": "uniswapFactory",
      "outputs": [
        {
          "internalType": "address",
          "name": "",
          "type": "address"
        }
      ],
      "stateMutability": "view",
      "type": "function"
    },
    {
      "inputs": [],
      "name": "uniswapQuoter",
      "outputs": [
        {
          "internalType": "address",
          "name": "",
          "type": "address"
        }
      ],
      "stateMutability": "view",
      "type": "function"
    },
    {
      "inputs": [],
      "name": "uniswapRouter",
      "outputs": [
        {
          "internalType": "address",
          "name": "",
          "type": "address"
        }
      ],
      "stateMutability": "view",
      "type": "function"
    },
    {
      "inputs": [
        {
          "internalType": "address",
          "name": "newImplementation",
          "type": "address"
        },
        {
          "internalType": "bytes",
          "name": "data",
          "type": "bytes"
        }
      ],
      "name": "upgradeToAndCall",
      "outputs": [],
      "stateMutability": "payable",
      "type": "function"
    }
  ],
  "bytecode": "0x60a060405234603957600e6047565b6014603d565b612f6061009c8239608051818181612735015281816127ba01526129bb0152612f6090f35b6043565b60405190565b5f80fd5b604d604f565b565b6055608f565b565b60018060a01b031690565b90565b607460706078926057565b6062565b6057565b90565b6082906065565b90565b608c90607b565b90565b6096306085565b60805256fe60806040526004361015610013575b6119f6565b61001d5f356104ec565b80630218ecd6146104e75780630241bffa146104e2578063040f767e146104dd57806304cc7325146104d85780630f21717d146104d35780631292f02e146104ce5780631acb6141146104c95780631bf01e9b146104c457806326158136146104bf5780632da52442146104ba57806332327d1f146104b557806332569e02146104b057806334decfc9146104ab57806339b65140146104a65780633b19e84a146104a15780633e6dfa361461049c578063400fb66814610497578063468a7071146104925780634b66a1351461048d5780634db4a352146104885780634f1ef286146104835780634f4608a21461047e578063524900b51461047957806352d1902d146104745780635333c1181461046f578063588c5b701461046a57806358a672331461046557806361d027b3146104605780636c43274c1461045b5780636c9c007814610456578063715018a614610451578063735de9f71461044c578063782dd902146104475780637dfb7ea1146104425780638129fc1c1461043d57806382755ebb14610438578063853771881461043357806385462d6f1461042e57806389a30271146104295780638bdb2afa146104245780638da5cb5b1461041f5780638e1c3a8a1461041a5780638ffc0673146104155780639380fb6f146104105780639454705f1461040b57806399c22ca6146104065780639d9a9d47146104015780639e6453f8146103fc578063a23dccee146103f7578063a5d2236f146103f2578063ad3cb1cc146103ed578063b0a70975146103e8578063b381cf40146103e3578063b3e089a2146103de578063b691a419146103d9578063b6fe9cc7146103d4578063b9f5e617146103cf578063ba535c54146103ca578063bb3ba04c146103c5578063bea9849e146103c0578063c08f786b146103bb578063c3f5df5c146103b6578063c9aba8ae146103b1578063cc01e9a6146103ac578063cff49d68146103a7578063d7e53673146103a2578063e04b677f1461039d578063e23d837b14610398578063e528ca1214610393578063ea233c051461038e578063f0f4426014610389578063f1dccde714610384578063f2fde38b1461037f578063f5b84f641461037a578063f5d2d99814610375578063f98977a9146103705763ffa08e950361000e576119c1565b61198e565b611959565b611926565b6118f3565b6118c0565b61188d565b611858565b611823565b6117df565b61179d565b61176a565b611735565b611702565b6116cd565b61169a565b611667565b611634565b6115ff565b6115cc565b611597565b611555565b611520565b6114de565b6114a9565b611465565b611430565b6112ff565b6112cc565b611299565b611264565b611220565b6111dc565b611198565b611165565b611130565b6110fb565b6110c6565b611084565b611040565b61100b565b610fc7565b610f94565b610f5f565b610f1b565b610ed7565b610e95565b610e60565b610e2d565b610df8565b610db4565b610d72565b610d3d565b610cf9565b610c9f565b610c6a565b610c40565b610ac2565b610a7e565b610a3a565b6109f8565b6109c3565b61098e565b610959565b610915565b610886565b610851565b61081e565b6107a7565b610772565b61073d565b610708565b6106c4565b61068f565b61065a565b610627565b6105a8565b60e01c90565b60405190565b5f80fd5b5f80fd5b5f91031261050a57565b6104fc565b1c90565b73ffffffffffffffffffffffffffffffffffffffff1690565b61053c906008610541930261050f565b610513565b90565b9061054f915461052c565b90565b61055e600a5f90610544565b90565b73ffffffffffffffffffffffffffffffffffffffff1690565b61058390610561565b90565b61058f9061057a565b9052565b91906105a6905f60208501940190610586565b565b346105d8576105b8366004610500565b6105d46105c3610552565b6105cb6104f2565b91829182610593565b0390f35b6104f8565b5f80fd5b6105ea8161057a565b036105f157565b5f80fd5b90503590610602826105e1565b565b9060208282031261061d5761061a915f016105f5565b90565b6104fc565b5f0190565b346106555761063f61063a366004610604565b611aa2565b6106476104f2565b8061065181610622565b0390f35b6104f8565b3461068a5761066a366004610500565b610686610675611ad7565b61067d6104f2565b91829182610593565b0390f35b6104f8565b346106bf5761069f366004610500565b6106bb6106aa611aed565b6106b26104f2565b91829182610593565b0390f35b6104f8565b346106f4576106d4366004610500565b6106f06106df611b03565b6106e76104f2565b91829182610593565b0390f35b6104f8565b61070560025f90610544565b90565b3461073857610718366004610500565b6107346107236106f9565b61072b6104f2565b91829182610593565b0390f35b6104f8565b3461076d5761074d366004610500565b610769610758611b19565b6107606104f2565b91829182610593565b0390f35b6104f8565b346107a257610782366004610500565b61079e61078d611b2f565b6107956104f2565b91829182610593565b0390f35b6104f8565b346107d5576107bf6107ba366004610604565b611b65565b6107c76104f2565b806107d181610622565b0390f35b6104f8565b90565b6107e6816107da565b036107ed57565b5f80fd5b905035906107fe826107dd565b565b9060208282031261081957610816915f016107f1565b90565b6104fc565b3461084c57610836610831366004610800565b611c04565b61083e6104f2565b8061084881610622565b0390f35b6104f8565b3461088157610861366004610500565b61087d61086c611c0f565b6108746104f2565b91829182610593565b0390f35b6104f8565b346108b657610896366004610500565b6108b26108a1611c25565b6108a96104f2565b91829182610593565b0390f35b6104f8565b90565b6108ce9060086108d3930261050f565b6108bb565b90565b906108e191546108be565b90565b6108f060115f906108d6565b90565b6108fc906107da565b9052565b9190610913905f602085019401906108f3565b565b3461094557610925366004610500565b6109416109306108e4565b6109386104f2565b91829182610900565b0390f35b6104f8565b61095660065f90610544565b90565b3461098957610969366004610500565b61098561097461094a565b61097c6104f2565b91829182610593565b0390f35b6104f8565b346109be5761099e366004610500565b6109ba6109a9611c3b565b6109b16104f2565b91829182610593565b0390f35b6104f8565b346109f3576109d3366004610500565b6109ef6109de611c51565b6109e66104f2565b91829182610593565b0390f35b6104f8565b34610a2657610a10610a0b366004610604565b611c86565b610a186104f2565b80610a2281610622565b0390f35b6104f8565b610a3760085f90610544565b90565b34610a6a57610a4a366004610500565b610a66610a55610a2b565b610a5d6104f2565b91829182610593565b0390f35b6104f8565b610a7b60045f90610544565b90565b34610aae57610a8e366004610500565b610aaa610a99610a6f565b610aa16104f2565b91829182610593565b0390f35b6104f8565b610abf60155f90610544565b90565b34610af257610ad2366004610500565b610aee610add610ab3565b610ae56104f2565b91829182610593565b0390f35b6104f8565b5f80fd5b5f80fd5b601f801991011690565b7f4e487b71000000000000000000000000000000000000000000000000000000005f52604160045260245ffd5b90610b4090610aff565b810190811067ffffffffffffffff821117610b5a57604052565b610b09565b90610b72610b6b6104f2565b9283610b36565b565b67ffffffffffffffff8111610b9257610b8e602091610aff565b0190565b610b09565b90825f939282370152565b90929192610bb7610bb282610b74565b610b5f565b93818552602085019082840111610bd357610bd192610b97565b565b610afb565b9080601f83011215610bf657816020610bf393359101610ba2565b90565b610af7565b919091604081840312610c3b57610c14835f83016105f5565b92602082013567ffffffffffffffff8111610c3657610c339201610bd8565b90565b6105dd565b6104fc565b610c54610c4e366004610bfb565b90611cba565b610c5c6104f2565b80610c6681610622565b0390f35b34610c9a57610c7a366004610500565b610c96610c85611ceb565b610c8d6104f2565b91829182610900565b0390f35b6104f8565b34610ccf57610caf366004610500565b610ccb610cba611d01565b610cc26104f2565b91829182610593565b0390f35b6104f8565b90565b610ce090610cd4565b9052565b9190610cf7905f60208501940190610cd7565b565b34610d2957610d09366004610500565b610d25610d14611d86565b610d1c6104f2565b91829182610ce4565b0390f35b6104f8565b610d3a60165f90610544565b90565b34610d6d57610d4d366004610500565b610d69610d58610d2e565b610d606104f2565b91829182610593565b0390f35b6104f8565b34610da057610d8a610d85366004610604565b611db9565b610d926104f2565b80610d9c81610622565b0390f35b6104f8565b610db160035f90610544565b90565b34610de457610dc4366004610500565b610de0610dcf610da5565b610dd76104f2565b91829182610593565b0390f35b6104f8565b610df5600c5f90610544565b90565b34610e2857610e08366004610500565b610e24610e13610de9565b610e1b6104f2565b91829182610593565b0390f35b6104f8565b34610e5b57610e45610e40366004610604565b611de4565b610e4d6104f2565b80610e5781610622565b0390f35b6104f8565b34610e9057610e70366004610500565b610e8c610e7b611def565b610e836104f2565b91829182610593565b0390f35b6104f8565b34610ec357610ea5366004610500565b610ead611e55565b610eb56104f2565b80610ebf81610622565b0390f35b6104f8565b610ed460015f90610544565b90565b34610f0757610ee7366004610500565b610f03610ef2610ec8565b610efa6104f2565b91829182610593565b0390f35b6104f8565b610f1860105f90610544565b90565b34610f4b57610f2b366004610500565b610f47610f36610f0c565b610f3e6104f2565b91829182610593565b0390f35b6104f8565b610f5c60095f90610544565b90565b34610f8f57610f6f366004610500565b610f8b610f7a610f50565b610f826104f2565b91829182610593565b0390f35b6104f8565b34610fc257610fa4366004610500565b610fac61223b565b610fb46104f2565b80610fbe81610622565b0390f35b6104f8565b34610ff757610fd7366004610500565b610ff3610fe2612245565b610fea6104f2565b91829182610593565b0390f35b6104f8565b61100860135f906108d6565b90565b3461103b5761101b366004610500565b611037611026610ffc565b61102e6104f2565b91829182610900565b0390f35b6104f8565b3461107057611050366004610500565b61106c61105b61225b565b6110636104f2565b91829182610900565b0390f35b6104f8565b611081600f5f90610544565b90565b346110b457611094366004610500565b6110b061109f611075565b6110a76104f2565b91829182610593565b0390f35b6104f8565b6110c35f80610544565b90565b346110f6576110d6366004610500565b6110f26110e16110b9565b6110e96104f2565b91829182610593565b0390f35b6104f8565b3461112b5761110b366004610500565b611127611116612271565b61111e6104f2565b91829182610593565b0390f35b6104f8565b3461116057611140366004610500565b61115c61114b61228f565b6111536104f2565b91829182610593565b0390f35b6104f8565b346111935761117d611178366004610604565b6122c5565b6111856104f2565b8061118f81610622565b0390f35b6104f8565b346111c8576111a8366004610500565b6111c46111b36122d0565b6111bb6104f2565b91829182610900565b0390f35b6104f8565b6111d9600d5f90610544565b90565b3461120c576111ec366004610500565b6112086111f76111cd565b6111ff6104f2565b91829182610593565b0390f35b6104f8565b61121d60145f906108d6565b90565b3461125057611230366004610500565b61124c61123b611211565b6112436104f2565b91829182610900565b0390f35b6104f8565b61126160175f90610544565b90565b3461129457611274366004610500565b61129061127f611255565b6112876104f2565b91829182610593565b0390f35b6104f8565b346112c7576112b16112ac366004610800565b612306565b6112b96104f2565b806112c381610622565b0390f35b6104f8565b346112fa576112e46112df366004610604565b612331565b6112ec6104f2565b806112f681610622565b0390f35b6104f8565b3461132f5761130f366004610500565b61132b61131a61233c565b6113226104f2565b91829182610593565b0390f35b6104f8565b67ffffffffffffffff81116113525761134e602091610aff565b0190565b610b09565b9061136961136483611334565b610b5f565b918252565b5f7f352e302e30000000000000000000000000000000000000000000000000000000910152565b61139f6005611357565b906113ac6020830161136e565b565b6113b6611395565b90565b6113c16113ae565b90565b6113cc6113b9565b90565b5190565b60209181520190565b90825f9392825e0152565b61140661140f602093611414936113fd816113cf565b938480936113d3565b958691016113dc565b610aff565b0190565b61142d9160208201915f8184039101526113e7565b90565b3461146057611440366004610500565b61145c61144b6113c4565b6114536104f2565b91829182611418565b0390f35b6104f8565b3461149557611475366004610500565b611491611480612352565b6114886104f2565b91829182610593565b0390f35b6104f8565b6114a6600e5f90610544565b90565b346114d9576114b9366004610500565b6114d56114c461149a565b6114cc6104f2565b91829182610593565b0390f35b6104f8565b3461150c576114f66114f1366004610604565b612388565b6114fe6104f2565b8061150881610622565b0390f35b6104f8565b61151d60055f90610544565b90565b3461155057611530366004610500565b61154c61153b611511565b6115436104f2565b91829182610593565b0390f35b6104f8565b346115835761156d611568366004610604565b6123b3565b6115756104f2565b8061157f81610622565b0390f35b6104f8565b61159460125f906108d6565b90565b346115c7576115a7366004610500565b6115c36115b2611588565b6115ba6104f2565b91829182610900565b0390f35b6104f8565b346115fa576115e46115df366004610604565b6123de565b6115ec6104f2565b806115f681610622565b0390f35b6104f8565b3461162f5761160f366004610500565b61162b61161a6123e9565b6116226104f2565b91829182610593565b0390f35b6104f8565b346116625761164c611647366004610604565b61241f565b6116546104f2565b8061165e81610622565b0390f35b6104f8565b346116955761167f61167a366004610604565b61244a565b6116876104f2565b8061169181610622565b0390f35b6104f8565b346116c8576116b26116ad366004610604565b612475565b6116ba6104f2565b806116c481610622565b0390f35b6104f8565b346116fd576116dd366004610500565b6116f96116e8612480565b6116f06104f2565b91829182610593565b0390f35b6104f8565b346117305761171a611715366004610604565b6124b6565b6117226104f2565b8061172c81610622565b0390f35b6104f8565b3461176557611745366004610500565b6117616117506124c1565b6117586104f2565b91829182610593565b0390f35b6104f8565b346117985761178261177d366004610604565b6124f7565b61178a6104f2565b8061179481610622565b0390f35b6104f8565b346117cb576117b56117b0366004610604565b612521565b6117bd6104f2565b806117c781610622565b0390f35b6104f8565b6117dc600b5f90610544565b90565b3461180f576117ef366004610500565b61180b6117fa6117d0565b6118026104f2565b91829182610593565b0390f35b6104f8565b61182060075f90610544565b90565b3461185357611833366004610500565b61184f61183e611814565b6118466104f2565b91829182610593565b0390f35b6104f8565b3461188857611868366004610500565b61188461187361252c565b61187b6104f2565b91829182610900565b0390f35b6104f8565b346118bb576118a56118a0366004610604565b612562565b6118ad6104f2565b806118b781610622565b0390f35b6104f8565b346118ee576118d86118d3366004610604565b61258d565b6118e06104f2565b806118ea81610622565b0390f35b6104f8565b346119215761190b611906366004610604565b61261d565b6119136104f2565b8061191d81610622565b0390f35b6104f8565b346119545761193e611939366004610604565b612648565b6119466104f2565b8061195081610622565b0390f35b6104f8565b3461198957611969366004610500565b611985611974612653565b61197c6104f2565b91829182610593565b0390f35b6104f8565b346119bc576119a66119a1366004610604565b612689565b6119ae6104f2565b806119b881610622565b0390f35b6104f8565b346119f1576119d1366004610500565b6119ed6119dc612694565b6119e46104f2565b91829182610593565b0390f35b6104f8565b5f80fd5b611a0b90611a066126aa565b611a95565b565b5f1b90565b90611a3173ffffffffffffffffffffffffffffffffffffffff91611a0d565b9181191691161790565b90565b611a52611a4d611a5792610561565b611a3b565b610561565b90565b611a6390611a3e565b90565b611a6f90611a5a565b90565b90565b90611a8a611a85611a9192611a66565b611a72565b8254611a12565b9055565b611aa0906005611a75565b565b611aab906119fa565b565b5f90565b5f1c90565b611ac2611ac791611ab1565b610513565b90565b611ad49054611ab6565b90565b611adf611aad565b50611aea6016611aca565b90565b611af5611aad565b50611b006006611aca565b90565b611b0b611aad565b50611b166017611aca565b90565b611b21611aad565b50611b2c6003611aca565b90565b611b37611aad565b50611b42600f611aca565b90565b611b5690611b516126aa565b611b58565b565b611b63906015611a75565b565b611b6e90611b45565b565b611b8190611b7c6126aa565b611bf7565b565b90611bae7fffffffffffffffffffffffffffffffffffffffffffffffffffffffffffffffff91611a0d565b9181191691161790565b611bcc611bc7611bd1926107da565b611a3b565b6107da565b90565b90565b90611bec611be7611bf392611bb8565b611bd4565b8254611b83565b9055565b611c02906014611bd7565b565b611c0d90611b70565b565b611c17611aad565b50611c22600a611aca565b90565b611c2d611aad565b50611c386004611aca565b90565b611c43611aad565b50611c4e600c611aca565b90565b611c59611aad565b50611c635f611aca565b90565b611c7790611c726126aa565b611c79565b565b611c84906006611a75565b565b611c8f90611c66565b565b90611ca391611c9e612724565b611ca5565b565b90611cb891611cb3816127f6565b61286c565b565b90611cc491611c91565b565b5f90565b611cd6611cdb91611ab1565b6108bb565b90565b611ce89054611cca565b90565b611cf3611cc6565b50611cfe6013611cde565b90565b611d09611aad565b50611d146001611aca565b90565b5f90565b611d2c90611d276129aa565b611d7a565b90565b90565b611d46611d41611d4b92611d2f565b611a0d565b610cd4565b90565b611d777f360894a13ba1a3210667c828492db98dca3e2076cc3735a920a3ca505d382bbc611d32565b90565b50611d83611d4e565b90565b611d96611d91611d17565b611d1b565b90565b611daa90611da56126aa565b611dac565b565b611db7906003611a75565b565b611dc290611d99565b565b611dd590611dd06126aa565b611dd7565b565b611de2906007611a75565b565b611ded90611dc4565b565b611df7611aad565b50611e02600e611aca565b90565b611e0d6126aa565b611e15611e42565b565b90565b611e2e611e29611e3392611e17565b611a3b565b610561565b90565b611e3f90611e1a565b90565b611e53611e4e5f611e36565b612a28565b565b611e5d611e05565b565b60401c90565b60ff1690565b611e77611e7c91611e5f565b611e65565b90565b611e899054611e6b565b90565b151590565b67ffffffffffffffff1690565b611eaa611eaf91611ab1565b611e91565b90565b611ebc9054611e9e565b90565b67ffffffffffffffff1690565b611ee0611edb611ee592611e17565b611a3b565b611ebf565b90565b90565b611eff611efa611f0492611ee8565b611a3b565b611ebf565b90565b611f1090611a5a565b90565b611f27611f22611f2c92611e17565b611a3b565b6107da565b90565b90611f4267ffffffffffffffff91611a0d565b9181191691161790565b611f60611f5b611f6592611ebf565b611a3b565b611ebf565b90565b90565b90611f80611f7b611f8792611f4c565b611f68565b8254611f2f565b9055565b60401b90565b90611fa568ff000000000000000091611f8b565b9181191691161790565b611fb890611e8c565b90565b90565b90611fd3611fce611fda92611faf565b611fbb565b8254611f91565b9055565b611fe790611eeb565b9052565b9190611ffe905f60208501940190611fde565b565b612008612a94565b61201c6120165f8301611e7f565b15611e8c565b6120275f8301611eb2565b8061203a6120345f611ecc565b91611ebf565b1480612173575b9061205561204f6001611eeb565b91611ebf565b148061214b575b612067909115611e8c565b908161213a575b506120fe576120886120806001611eeb565b5f8401611f6b565b806120ec575b6120966121d7565b61209e575b50565b6120ab905f809101611fbe565b60016120e37fc7f505b2f371ae2175ee4913f4499e1f2633a7b5936321eed1cdaeb6115181d2916120da6104f2565b91829182611feb565b0390a15f61209b565b6120f960015f8401611fbe565b61208e565b6121066104f2565b7ff92ee8a90000000000000000000000000000000000000000000000000000000081528061213660048201610622565b0390fd5b612145915015611e8c565b5f61206e565b5061206761215830611f07565b3b61216b6121655f611f13565b916107da565b14905061205c565b5081612041565b90565b61219161218c6121969261217a565b611a3b565b6107da565b90565b90565b6121b06121ab6121b592612199565b611a3b565b6107da565b90565b90565b6121cf6121ca6121d4926121b8565b611a3b565b6107da565b90565b6121e033612ad6565b6121e8612aeb565b6121fc6121f5606461217d565b6011611bd7565b612210612209601e61219c565b6012611bd7565b61222561221e6127106121bb565b6013611bd7565b612239612232606461217d565b6014611bd7565b565b612243612000565b565b61224d611aad565b506122586009611aca565b90565b612263611cc6565b5061226e6012611cde565b90565b612279611aad565b5061228c5f612286612af5565b01611aca565b90565b612297611aad565b506122a26010611aca565b90565b6122b6906122b16126aa565b6122b8565b565b6122c3906016611a75565b565b6122ce906122a5565b565b6122d8611cc6565b506122e36011611cde565b90565b6122f7906122f26126aa565b6122f9565b565b612304906012611bd7565b565b61230f906122e6565b565b6123229061231d6126aa565b612324565b565b61232f906017611a75565b565b61233a90612311565b565b612344611aad565b5061234f600d611aca565b90565b61235a611aad565b506123656015611aca565b90565b612379906123746126aa565b61237b565b565b61238690600f611a75565b565b61239190612368565b565b6123a49061239f6126aa565b6123a6565b565b6123b190600e611a75565b565b6123bc90612393565b565b6123cf906123ca6126aa565b6123d1565b565b6123dc90600a611a75565b565b6123e7906123be565b565b6123f1611aad565b506123fc6008611aca565b90565b6124109061240b6126aa565b612412565b565b61241d906001611a75565b565b612428906123ff565b565b61243b906124366126aa565b61243d565b565b612448906010611a75565b565b6124539061242a565b565b612466906124616126aa565b612468565b565b612473906009611a75565b565b61247e90612455565b565b612488611aad565b506124936007611aca565b90565b6124a7906124a26126aa565b6124a9565b565b6124b490600d611a75565b565b6124bf90612496565b565b6124c9611aad565b506124d46005611aca565b90565b6124e8906124e36126aa565b6124ea565b565b6124f590600b611a75565b565b612500906124d7565b565b6125139061250e6126aa565b612515565b565b61251f905f611a75565b565b61252a90612502565b565b612534611cc6565b5061253f6014611cde565b90565b6125539061254e6126aa565b612555565b565b61256090600c611a75565b565b61256b90612542565b565b61257e906125796126aa565b612580565b565b61258b906002611a75565b565b6125969061256d565b565b6125a9906125a46126aa565b6125ab565b565b806125c66125c06125bb5f611e36565b61057a565b9161057a565b146125d6576125d490612a28565b565b6126196125e25f611e36565b6125ea6104f2565b9182917f1e4fbdf700000000000000000000000000000000000000000000000000000000835260048301610593565b0390fd5b61262690612598565b565b612639906126346126aa565b61263b565b565b612646906008611a75565b565b61265190612628565b565b61265b611aad565b506126666002611aca565b90565b61267a906126756126aa565b61267c565b565b612687906004611a75565b565b61269290612669565b565b61269c611aad565b506126a7600b611aca565b90565b6126b2612271565b6126cb6126c56126c0612b19565b61057a565b9161057a565b036126d257565b6127146126dd612b19565b6126e56104f2565b9182917f118cdaa700000000000000000000000000000000000000000000000000000000835260048301610593565b0390fd5b61272190611a5a565b90565b61272d30612718565b61275f6127597f000000000000000000000000000000000000000000000000000000000000000061057a565b9161057a565b1480156127a9575b61276d57565b6127756104f2565b7fe07c8dba000000000000000000000000000000000000000000000000000000008152806127a560048201610622565b0390fd5b506127b2612b26565b6127e46127de7f000000000000000000000000000000000000000000000000000000000000000061057a565b9161057a565b1415612767565b506127f46126aa565b565b6127ff906127eb565b565b61280a90611a3e565b90565b61281690612801565b90565b61282290611a5a565b90565b60e01b90565b61283481610cd4565b0361283b57565b5f80fd5b9050519061284c8261282b565b565b9060208282031261286757612864915f0161283f565b90565b6104fc565b919061289a602061288461287f8661280d565b612819565b6352d1902d906128926104f2565b938492612825565b825281806128aa60048201610622565b03915afa80915f9261297a575b50155f1461290b5750509060016128cc57505b565b612907906128d86104f2565b9182917f4c9c8ce300000000000000000000000000000000000000000000000000000000835260048301610593565b0390fd5b928361292661292061291b611d4e565b610cd4565b91610cd4565b0361293b57612936929350612b50565b6128ca565b612976846129476104f2565b9182917faa1d49a400000000000000000000000000000000000000000000000000000000835260048301610ce4565b0390fd5b61299c91925060203d81116129a3575b6129948183610b36565b81019061284e565b905f6128b7565b503d61298a565b6129b330612718565b6129e56129df7f000000000000000000000000000000000000000000000000000000000000000061057a565b9161057a565b036129ec57565b6129f46104f2565b7fe07c8dba00000000000000000000000000000000000000000000000000000000815280612a2460048201610622565b0390fd5b612a30612af5565b612a48612a3e5f8301611aca565b915f849101611a75565b90612a7c612a767f8be0079c531659141344cd1fd0a4f28419497f9722a3daafe3b4186f6b6457e093611a66565b91611a66565b91612a856104f2565b80612a8f81610622565b0390a3565b7ff0c57e16840df040f15088dc2f81fe391c3923bec73e23a9662efc9c229c6a0090565b612ac990612ac4612bd9565b612acb565b565b612ad490612cb1565b565b612adf90612ab8565b565b612ae9612bd9565b565b612af3612ae1565b565b7f9016d09d72d40fdae2fd8ceac6b6234c7706214fd39c1cd1e609a0528c19930090565b612b21611aad565b503390565b612b2e611aad565b50612b495f612b43612b3e611d4e565b612cbc565b01611aca565b90565b5190565b90612b5a82612cbf565b81612b857fbc7cd75a20ee27fd9adebab32041f755214dbc6bffa90cc0225b39da2e5c2d3b91611a66565b90612b8e6104f2565b80612b9881610622565b0390a2612ba481612b4c565b612bb6612bb05f611f13565b916107da565b115f14612bca57612bc691612dcf565b505b565b5050612bd4612d34565b612bc8565b612bea612be4612e02565b15611e8c565b612bf057565b612bf86104f2565b7fd7e6bcf800000000000000000000000000000000000000000000000000000000815280612c2860048201610622565b0390fd5b612c3d90612c38612bd9565b612c3f565b565b80612c5a612c54612c4f5f611e36565b61057a565b9161057a565b14612c6a57612c6890612a28565b565b612cad612c765f611e36565b612c7e6104f2565b9182917f1e4fbdf700000000000000000000000000000000000000000000000000000000835260048301610593565b0390fd5b612cba90612c2c565b565b90565b803b612cd3612ccd5f611f13565b916107da565b14612cf557612cf3905f612ced612ce8611d4e565b612cbc565b01611a75565b565b612d3090612d016104f2565b9182917f4c9c8ce300000000000000000000000000000000000000000000000000000000835260048301610593565b0390fd5b34612d47612d415f611f13565b916107da565b11612d4e57565b612d566104f2565b7fb398979f00000000000000000000000000000000000000000000000000000000815280612d8660048201610622565b0390fd5b606090565b90612da1612d9c83610b74565b610b5f565b918252565b3d5f14612dc157612db63d612d8f565b903d5f602084013e5b565b612dc9612d8a565b90612dbf565b5f80612dfb93612ddd612d8a565b508390602081019051915af490612df2612da6565b90919091612e20565b90565b5f90565b612e0a612dfe565b50612e1d5f612e17612a94565b01611e7f565b90565b90612e3490612e2d612d8a565b5015611e8c565b5f14612e405750612ec4565b612e4982612b4c565b612e5b612e555f611f13565b916107da565b1480612ea9575b612e6a575090565b612ea590612e766104f2565b9182917f9996b31500000000000000000000000000000000000000000000000000000000835260048301610593565b0390fd5b50803b612ebe612eb85f611f13565b916107da565b14612e62565b612ecd81612b4c565b612edf612ed95f611f13565b916107da565b115f14612eee57805190602001fd5b612ef66104f2565b7f1425ea4200000000000000000000000000000000000000000000000000000000815280612f2660048201610622565b0390fdfea2646970667358221220dbc3380cea3011a6ab926c13e065657aab37171c04ecc1bed89c2b10dd9ee9ea64736f6c63430008190033",
  "linkReferences": {},
  "deployedLinkReferences": {}
}