{
  "_format": "hh-sol-artifact-1",
  "contractName": "BaluniV1Registry",
  "sourceName": "contracts/registry/BaluniV1Registry.sol",
  "abi": [
    {
      "inputs": [
        {
          "internalType": "address",
          "name": "target",
          "type": "address"
        }
      ],
      "name": "AddressEmptyCode",
      "type": "error"
    },
    {
      "inputs": [
        {
          "internalType": "address",
          "name": "implementation",
          "type": "address"
        }
      ],
      "name": "ERC1967InvalidImplementation",
      "type": "error"
    },
    {
      "inputs": [],
      "name": "ERC1967NonPayable",
      "type": "error"
    },
    {
      "inputs": [],
      "name": "FailedInnerCall",
      "type": "error"
    },
    {
      "inputs": [],
      "name": "InvalidInitialization",
      "type": "error"
    },
    {
      "inputs": [],
      "name": "NotInitializing",
      "type": "error"
    },
    {
      "inputs": [
        {
          "internalType": "address",
          "name": "owner",
          "type": "address"
        }
      ],
      "name": "OwnableInvalidOwner",
      "type": "error"
    },
    {
      "inputs": [
        {
          "internalType": "address",
          "name": "account",
          "type": "address"
        }
      ],
      "name": "OwnableUnauthorizedAccount",
      "type": "error"
    },
    {
      "inputs": [],
      "name": "UUPSUnauthorizedCallContext",
      "type": "error"
    },
    {
      "inputs": [
        {
          "internalType": "bytes32",
          "name": "slot",
          "type": "bytes32"
        }
      ],
      "name": "UUPSUnsupportedProxiableUUID",
      "type": "error"
    },
    {
      "anonymous": false,
      "inputs": [
        {
          "indexed": false,
          "internalType": "uint64",
          "name": "version",
          "type": "uint64"
        }
      ],
      "name": "Initialized",
      "type": "event"
    },
    {
      "anonymous": false,
      "inputs": [
        {
          "indexed": true,
          "internalType": "address",
          "name": "previousOwner",
          "type": "address"
        },
        {
          "indexed": true,
          "internalType": "address",
          "name": "newOwner",
          "type": "address"
        }
      ],
      "name": "OwnershipTransferred",
      "type": "event"
    },
    {
      "anonymous": false,
      "inputs": [
        {
          "indexed": true,
          "internalType": "address",
          "name": "implementation",
          "type": "address"
        }
      ],
      "name": "Upgraded",
      "type": "event"
    },
    {
      "inputs": [],
      "name": "UPGRADE_INTERFACE_VERSION",
      "outputs": [
        {
          "internalType": "string",
          "name": "",
          "type": "string"
        }
      ],
      "stateMutability": "view",
      "type": "function"
    },
    {
      "inputs": [],
      "name": "USDC",
      "outputs": [
        {
          "internalType": "address",
          "name": "",
          "type": "address"
        }
      ],
      "stateMutability": "view",
      "type": "function"
    },
    {
      "inputs": [],
      "name": "WNATIVE",
      "outputs": [
        {
          "internalType": "address",
          "name": "",
          "type": "address"
        }
      ],
      "stateMutability": "view",
      "type": "function"
    },
    {
      "inputs": [],
      "name": "_1inchSpotAgg",
      "outputs": [
        {
          "internalType": "address",
          "name": "",
          "type": "address"
        }
      ],
      "stateMutability": "view",
      "type": "function"
    },
    {
      "inputs": [],
      "name": "_BPS_BASE",
      "outputs": [
        {
          "internalType": "uint256",
          "name": "",
          "type": "uint256"
        }
      ],
      "stateMutability": "view",
      "type": "function"
    },
    {
      "inputs": [],
      "name": "_BPS_FEE",
      "outputs": [
        {
          "internalType": "uint256",
          "name": "",
          "type": "uint256"
        }
      ],
      "stateMutability": "view",
      "type": "function"
    },
    {
      "inputs": [],
      "name": "_MAX_BPS_FEE",
      "outputs": [
        {
          "internalType": "uint256",
          "name": "",
          "type": "uint256"
        }
      ],
      "stateMutability": "view",
      "type": "function"
    },
    {
      "inputs": [],
      "name": "baluniAgentFactory",
      "outputs": [
        {
          "internalType": "address",
          "name": "",
          "type": "address"
        }
      ],
      "stateMutability": "view",
      "type": "function"
    },
    {
      "inputs": [],
      "name": "baluniOracle",
      "outputs": [
        {
          "internalType": "address",
          "name": "",
          "type": "address"
        }
      ],
      "stateMutability": "view",
      "type": "function"
    },
    {
      "inputs": [],
      "name": "baluniPoolPeriphery",
      "outputs": [
        {
          "internalType": "address",
          "name": "",
          "type": "address"
        }
      ],
      "stateMutability": "view",
      "type": "function"
    },
    {
      "inputs": [],
      "name": "baluniPoolRegistry",
      "outputs": [
        {
          "internalType": "address",
          "name": "",
          "type": "address"
        }
      ],
      "stateMutability": "view",
      "type": "function"
    },
    {
      "inputs": [],
      "name": "baluniRebalancer",
      "outputs": [
        {
          "internalType": "address",
          "name": "",
          "type": "address"
        }
      ],
      "stateMutability": "view",
      "type": "function"
    },
    {
      "inputs": [],
      "name": "baluniRegistry",
      "outputs": [
        {
          "internalType": "address",
          "name": "",
          "type": "address"
        }
      ],
      "stateMutability": "view",
      "type": "function"
    },
    {
      "inputs": [],
      "name": "baluniRouter",
      "outputs": [
        {
          "internalType": "address",
          "name": "",
          "type": "address"
        }
      ],
      "stateMutability": "view",
      "type": "function"
    },
    {
      "inputs": [],
      "name": "baluniSwapper",
      "outputs": [
        {
          "internalType": "address",
          "name": "",
          "type": "address"
        }
      ],
      "stateMutability": "view",
      "type": "function"
    },
    {
      "inputs": [],
      "name": "get1inchSpotAgg",
      "outputs": [
        {
          "internalType": "address",
          "name": "",
          "type": "address"
        }
      ],
      "stateMutability": "view",
      "type": "function"
    },
    {
      "inputs": [],
      "name": "getBPS_BASE",
      "outputs": [
        {
          "internalType": "uint256",
          "name": "",
          "type": "uint256"
        }
      ],
      "stateMutability": "view",
      "type": "function"
    },
    {
      "inputs": [],
      "name": "getBPS_FEE",
      "outputs": [
        {
          "internalType": "uint256",
          "name": "",
          "type": "uint256"
        }
      ],
      "stateMutability": "view",
      "type": "function"
    },
    {
      "inputs": [],
      "name": "getBaluniAgentFactory",
      "outputs": [
        {
          "internalType": "address",
          "name": "",
          "type": "address"
        }
      ],
      "stateMutability": "view",
      "type": "function"
    },
    {
      "inputs": [],
      "name": "getBaluniOracle",
      "outputs": [
        {
          "internalType": "address",
          "name": "",
          "type": "address"
        }
      ],
      "stateMutability": "view",
      "type": "function"
    },
    {
      "inputs": [],
      "name": "getBaluniPoolPeriphery",
      "outputs": [
        {
          "internalType": "address",
          "name": "",
          "type": "address"
        }
      ],
      "stateMutability": "view",
      "type": "function"
    },
    {
      "inputs": [],
      "name": "getBaluniPoolRegistry",
      "outputs": [
        {
          "internalType": "address",
          "name": "",
          "type": "address"
        }
      ],
      "stateMutability": "view",
      "type": "function"
    },
    {
      "inputs": [],
      "name": "getBaluniRebalancer",
      "outputs": [
        {
          "internalType": "address",
          "name": "",
          "type": "address"
        }
      ],
      "stateMutability": "view",
      "type": "function"
    },
    {
      "inputs": [],
      "name": "getBaluniRegistry",
      "outputs": [
        {
          "internalType": "address",
          "name": "",
          "type": "address"
        }
      ],
      "stateMutability": "view",
      "type": "function"
    },
    {
      "inputs": [],
      "name": "getBaluniRouter",
      "outputs": [
        {
          "internalType": "address",
          "name": "",
          "type": "address"
        }
      ],
      "stateMutability": "view",
      "type": "function"
    },
    {
      "inputs": [],
      "name": "getBaluniSwapper",
      "outputs": [
        {
          "internalType": "address",
          "name": "",
          "type": "address"
        }
      ],
      "stateMutability": "view",
      "type": "function"
    },
    {
      "inputs": [],
      "name": "getMAX_BPS_FEE",
      "outputs": [
        {
          "internalType": "uint256",
          "name": "",
          "type": "uint256"
        }
      ],
      "stateMutability": "view",
      "type": "function"
    },
    {
      "inputs": [],
      "name": "getStaticOracle",
      "outputs": [
        {
          "internalType": "address",
          "name": "",
          "type": "address"
        }
      ],
      "stateMutability": "view",
      "type": "function"
    },
    {
      "inputs": [],
      "name": "getTreasury",
      "outputs": [
        {
          "internalType": "address",
          "name": "",
          "type": "address"
        }
      ],
      "stateMutability": "view",
      "type": "function"
    },
    {
      "inputs": [],
      "name": "getUSDC",
      "outputs": [
        {
          "internalType": "address",
          "name": "",
          "type": "address"
        }
      ],
      "stateMutability": "view",
      "type": "function"
    },
    {
      "inputs": [],
      "name": "getUniswapFactory",
      "outputs": [
        {
          "internalType": "address",
          "name": "",
          "type": "address"
        }
      ],
      "stateMutability": "view",
      "type": "function"
    },
    {
      "inputs": [],
      "name": "getUniswapRouter",
      "outputs": [
        {
          "internalType": "address",
          "name": "",
          "type": "address"
        }
      ],
      "stateMutability": "view",
      "type": "function"
    },
    {
      "inputs": [],
      "name": "getWNATIVE",
      "outputs": [
        {
          "internalType": "address",
          "name": "",
          "type": "address"
        }
      ],
      "stateMutability": "view",
      "type": "function"
    },
    {
      "inputs": [],
      "name": "initialize",
      "outputs": [],
      "stateMutability": "nonpayable",
      "type": "function"
    },
    {
      "inputs": [],
      "name": "owner",
      "outputs": [
        {
          "internalType": "address",
          "name": "",
          "type": "address"
        }
      ],
      "stateMutability": "view",
      "type": "function"
    },
    {
      "inputs": [],
      "name": "proxiableUUID",
      "outputs": [
        {
          "internalType": "bytes32",
          "name": "",
          "type": "bytes32"
        }
      ],
      "stateMutability": "view",
      "type": "function"
    },
    {
      "inputs": [],
      "name": "renounceOwnership",
      "outputs": [],
      "stateMutability": "nonpayable",
      "type": "function"
    },
    {
      "inputs": [
        {
          "internalType": "address",
          "name": "__1inchSpotAgg",
          "type": "address"
        }
      ],
      "name": "set1inchSpotAgg",
      "outputs": [],
      "stateMutability": "nonpayable",
      "type": "function"
    },
    {
      "inputs": [
        {
          "internalType": "uint256",
          "name": "__BPS_FEE",
          "type": "uint256"
        }
      ],
      "name": "setBPS_FEE",
      "outputs": [],
      "stateMutability": "nonpayable",
      "type": "function"
    },
    {
      "inputs": [
        {
          "internalType": "address",
          "name": "_baluniAgentFactory",
          "type": "address"
        }
      ],
      "name": "setBaluniAgentFactory",
      "outputs": [],
      "stateMutability": "nonpayable",
      "type": "function"
    },
    {
      "inputs": [
        {
          "internalType": "address",
          "name": "_baluniOracle",
          "type": "address"
        }
      ],
      "name": "setBaluniOracle",
      "outputs": [],
      "stateMutability": "nonpayable",
      "type": "function"
    },
    {
      "inputs": [
        {
          "internalType": "address",
          "name": "_baluniPoolPeriphery",
          "type": "address"
        }
      ],
      "name": "setBaluniPoolPeriphery",
      "outputs": [],
      "stateMutability": "nonpayable",
      "type": "function"
    },
    {
      "inputs": [
        {
          "internalType": "address",
          "name": "_baluniPoolRegistry",
          "type": "address"
        }
      ],
      "name": "setBaluniPoolRegistry",
      "outputs": [],
      "stateMutability": "nonpayable",
      "type": "function"
    },
    {
      "inputs": [
        {
          "internalType": "address",
          "name": "_baluniRebalancer",
          "type": "address"
        }
      ],
      "name": "setBaluniRebalancer",
      "outputs": [],
      "stateMutability": "nonpayable",
      "type": "function"
    },
    {
      "inputs": [
        {
          "internalType": "address",
          "name": "_baluniRegistry",
          "type": "address"
        }
      ],
      "name": "setBaluniRegistry",
      "outputs": [],
      "stateMutability": "nonpayable",
      "type": "function"
    },
    {
      "inputs": [
        {
          "internalType": "address",
          "name": "_baluniRouter",
          "type": "address"
        }
      ],
      "name": "setBaluniRouter",
      "outputs": [],
      "stateMutability": "nonpayable",
      "type": "function"
    },
    {
      "inputs": [
        {
          "internalType": "address",
          "name": "_baluniSwapper",
          "type": "address"
        }
      ],
      "name": "setBaluniSwapper",
      "outputs": [],
      "stateMutability": "nonpayable",
      "type": "function"
    },
    {
      "inputs": [
        {
          "internalType": "address",
          "name": "_staticOracle",
          "type": "address"
        }
      ],
      "name": "setStaticOracle",
      "outputs": [],
      "stateMutability": "nonpayable",
      "type": "function"
    },
    {
      "inputs": [
        {
          "internalType": "address",
          "name": "_treasury",
          "type": "address"
        }
      ],
      "name": "setTreasury",
      "outputs": [],
      "stateMutability": "nonpayable",
      "type": "function"
    },
    {
      "inputs": [
        {
          "internalType": "address",
          "name": "_USDC",
          "type": "address"
        }
      ],
      "name": "setUSDC",
      "outputs": [],
      "stateMutability": "nonpayable",
      "type": "function"
    },
    {
      "inputs": [
        {
          "internalType": "address",
          "name": "_uniswapFactory",
          "type": "address"
        }
      ],
      "name": "setUniswapFactory",
      "outputs": [],
      "stateMutability": "nonpayable",
      "type": "function"
    },
    {
      "inputs": [
        {
          "internalType": "address",
          "name": "_uniswapRouter",
          "type": "address"
        }
      ],
      "name": "setUniswapRouter",
      "outputs": [],
      "stateMutability": "nonpayable",
      "type": "function"
    },
    {
      "inputs": [
        {
          "internalType": "address",
          "name": "_WNATIVE",
          "type": "address"
        }
      ],
      "name": "setWNATIVE",
      "outputs": [],
      "stateMutability": "nonpayable",
      "type": "function"
    },
    {
      "inputs": [],
      "name": "staticOracle",
      "outputs": [
        {
          "internalType": "address",
          "name": "",
          "type": "address"
        }
      ],
      "stateMutability": "view",
      "type": "function"
    },
    {
      "inputs": [
        {
          "internalType": "address",
          "name": "newOwner",
          "type": "address"
        }
      ],
      "name": "transferOwnership",
      "outputs": [],
      "stateMutability": "nonpayable",
      "type": "function"
    },
    {
      "inputs": [],
      "name": "treasury",
      "outputs": [
        {
          "internalType": "address",
          "name": "",
          "type": "address"
        }
      ],
      "stateMutability": "view",
      "type": "function"
    },
    {
      "inputs": [],
      "name": "uniswapFactory",
      "outputs": [
        {
          "internalType": "address",
          "name": "",
          "type": "address"
        }
      ],
      "stateMutability": "view",
      "type": "function"
    },
    {
      "inputs": [],
      "name": "uniswapRouter",
      "outputs": [
        {
          "internalType": "address",
          "name": "",
          "type": "address"
        }
      ],
      "stateMutability": "view",
      "type": "function"
    },
    {
      "inputs": [
        {
          "internalType": "address",
          "name": "newImplementation",
          "type": "address"
        },
        {
          "internalType": "bytes",
          "name": "data",
          "type": "bytes"
        }
      ],
      "name": "upgradeToAndCall",
      "outputs": [],
      "stateMutability": "payable",
      "type": "function"
    }
  ],
  "bytecode": "0x60a0604052306080523480156012575f80fd5b506080516116fb6100395f395f8181610fba01528181610fe3015261119801526116fb5ff3fe60806040526004361061037c575f3560e01c806385462d6f116101d3578063bb3ba04c116100fd578063e04b677f1161009d578063f2fde38b1161006d578063f2fde38b14610a1b578063f5b84f6414610a3a578063f5d2d99814610a59578063f98977a914610a76575f80fd5b8063e04b677f1461099f578063e528ca12146109be578063f0f44260146109dd578063f1dccde7146109fc575f80fd5b8063c3f5df5c116100d8578063c3f5df5c14610927578063c9aba8ae14610946578063cc01e9a614610963578063cff49d6814610982575f80fd5b8063bb3ba04c146108cc578063bea9849e146108e9578063c08f786b14610908575f80fd5b80639e6453f811610173578063b3e089a211610143578063b3e089a21461085a578063b691a41914610879578063b6fe9cc714610898578063b9f5e617146108b7575f80fd5b80639e6453f8146107aa578063a5d2236f146107c9578063ad3cb1cc146107e6578063b381cf401461083b575f80fd5b80638da5cb5b116101ae5780638da5cb5b1461071e5780638e1c3a8a1461075a5780639380fb6f146107775780639454705f1461078b575f80fd5b806385462d6f146106cd57806389a30271146106e15780638bdb2afa14610700575f80fd5b80634f4608a2116102b45780636c9c0078116102545780637dfb7ea1116102245780637dfb7ea1146106685780638129fc1c1461068757806382755ebb1461069b57806385377188146106b8575f80fd5b80636c9c0078146105f9578063715018a614610616578063735de9f71461062a578063782dd90214610649575f80fd5b8063588c5b701161028f578063588c5b701461057d57806358a672331461059c57806361d027b3146105bb5780636c43274c146105da575f80fd5b80634f4608a214610538578063524900b51461054c57806352d1902d14610569575f80fd5b806339b651401161031f578063400fb668116102fa578063400fb668146104c8578063468a7071146104e75780634b66a135146105065780634f1ef28614610525575f80fd5b806339b65140146104705780633b19e84a1461048f5780633e6dfa36146104ac575f80fd5b80631acb61411161035a5780631acb6141146103f65780631bf01e9b1461041357806332569e021461043057806334decfc91461044d575f80fd5b80630241bffa1461038057806304cc7325146103a15780631292f02e146103d7575b5f80fd5b34801561038b575f80fd5b5061039f61039a36600461154a565b610a95565b005b3480156103ac575f80fd5b506006546001600160a01b03165b6040516001600160a01b0390911681526020015b60405180910390f35b3480156103e2575f80fd5b506002546103ba906001600160a01b031681565b348015610401575f80fd5b506003546001600160a01b03166103ba565b34801561041e575f80fd5b50600c546001600160a01b03166103ba565b34801561043b575f80fd5b506004546001600160a01b03166103ba565b348015610458575f80fd5b50610462600e5481565b6040519081526020016103ce565b34801561047b575f80fd5b506006546103ba906001600160a01b031681565b34801561049a575f80fd5b50600a546001600160a01b03166103ba565b3480156104b7575f80fd5b505f546001600160a01b03166103ba565b3480156104d3575f80fd5b5061039f6104e236600461154a565b610abf565b3480156104f2575f80fd5b506008546103ba906001600160a01b031681565b348015610511575f80fd5b506004546103ba906001600160a01b031681565b61039f610533366004611590565b610ae9565b348015610543575f80fd5b50601054610462565b348015610557575f80fd5b506001546001600160a01b03166103ba565b348015610574575f80fd5b50610462610b08565b348015610588575f80fd5b5061039f61059736600461154a565b610b36565b3480156105a7575f80fd5b506003546103ba906001600160a01b031681565b3480156105c6575f80fd5b50600a546103ba906001600160a01b031681565b3480156105e5575f80fd5b5061039f6105f436600461154a565b610b60565b348015610604575f80fd5b50600b546001600160a01b03166103ba565b348015610621575f80fd5b5061039f610b8a565b348015610635575f80fd5b506001546103ba906001600160a01b031681565b348015610654575f80fd5b50600d546103ba906001600160a01b031681565b348015610673575f80fd5b506009546103ba906001600160a01b031681565b348015610692575f80fd5b5061039f610b9d565b3480156106a6575f80fd5b506009546001600160a01b03166103ba565b3480156106c3575f80fd5b5061046260105481565b3480156106d8575f80fd5b50600f54610462565b3480156106ec575f80fd5b50600c546103ba906001600160a01b031681565b34801561070b575f80fd5b505f546103ba906001600160a01b031681565b348015610729575f80fd5b507f9016d09d72d40fdae2fd8ceac6b6234c7706214fd39c1cd1e609a0528c199300546001600160a01b03166103ba565b348015610765575f80fd5b50600d546001600160a01b03166103ba565b348015610782575f80fd5b50600e54610462565b348015610796575f80fd5b506011546103ba906001600160a01b031681565b3480156107b5575f80fd5b5061039f6107c436600461164c565b610d06565b3480156107d4575f80fd5b506011546001600160a01b03166103ba565b3480156107f1575f80fd5b5061082e6040518060400160405280600581526020017f352e302e3000000000000000000000000000000000000000000000000000000081525081565b6040516103ce9190611663565b348015610846575f80fd5b50600b546103ba906001600160a01b031681565b348015610865575f80fd5b5061039f61087436600461154a565b610d13565b348015610884575f80fd5b506005546103ba906001600160a01b031681565b3480156108a3575f80fd5b5061039f6108b236600461154a565b610d3d565b3480156108c2575f80fd5b50610462600f5481565b3480156108d7575f80fd5b506008546001600160a01b03166103ba565b3480156108f4575f80fd5b5061039f61090336600461154a565b610d67565b348015610913575f80fd5b5061039f61092236600461154a565b610d91565b348015610932575f80fd5b5061039f61094136600461154a565b610dbb565b348015610951575f80fd5b506007546001600160a01b03166103ba565b34801561096e575f80fd5b5061039f61097d36600461154a565b610de5565b34801561098d575f80fd5b506005546001600160a01b03166103ba565b3480156109aa575f80fd5b5061039f6109b936600461154a565b610e0f565b3480156109c9575f80fd5b506007546103ba906001600160a01b031681565b3480156109e8575f80fd5b5061039f6109f736600461154a565b610e38565b348015610a07575f80fd5b5061039f610a1636600461154a565b610e62565b348015610a26575f80fd5b5061039f610a3536600461154a565b610e8c565b348015610a45575f80fd5b5061039f610a5436600461154a565b610ee7565b348015610a64575f80fd5b506002546001600160a01b03166103ba565b348015610a81575f80fd5b5061039f610a9036600461154a565b610f11565b610a9d610f3b565b600580546001600160a01b0319166001600160a01b0392909216919091179055565b610ac7610f3b565b600680546001600160a01b0319166001600160a01b0392909216919091179055565b610af1610faf565b610afa8261107f565b610b048282611087565b5050565b5f610b1161118d565b507f360894a13ba1a3210667c828492db98dca3e2076cc3735a920a3ca505d382bbc90565b610b3e610f3b565b600380546001600160a01b0319166001600160a01b0392909216919091179055565b610b68610f3b565b600780546001600160a01b0319166001600160a01b0392909216919091179055565b610b92610f3b565b610b9b5f6111ef565b565b7ff0c57e16840df040f15088dc2f81fe391c3923bec73e23a9662efc9c229c6a00805468010000000000000000810460ff16159067ffffffffffffffff165f81158015610be75750825b90505f8267ffffffffffffffff166001148015610c035750303b155b905081158015610c11575080155b15610c48576040517ff92ee8a900000000000000000000000000000000000000000000000000000000815260040160405180910390fd5b84547fffffffffffffffffffffffffffffffffffffffffffffffff00000000000000001660011785558315610c9357845468ff00000000000000001916680100000000000000001785555b610c9c3361125f565b610ca4611270565b6064600e55601e600f556127106010558315610cff57845468ff000000000000000019168555604051600181527fc7f505b2f371ae2175ee4913f4499e1f2633a7b5936321eed1cdaeb6115181d29060200160405180910390a15b5050505050565b610d0e610f3b565b600f55565b610d1b610f3b565b600c80546001600160a01b0319166001600160a01b0392909216919091179055565b610d45610f3b565b600b80546001600160a01b0319166001600160a01b0392909216919091179055565b610d6f610f3b565b600180546001600160a01b0319166001600160a01b0392909216919091179055565b610d99610f3b565b600d80546001600160a01b0319166001600160a01b0392909216919091179055565b610dc3610f3b565b600980546001600160a01b0319166001600160a01b0392909216919091179055565b610ded610f3b565b601180546001600160a01b0319166001600160a01b0392909216919091179055565b610e17610f3b565b5f80546001600160a01b0319166001600160a01b0392909216919091179055565b610e40610f3b565b600a80546001600160a01b0319166001600160a01b0392909216919091179055565b610e6a610f3b565b600280546001600160a01b0319166001600160a01b0392909216919091179055565b610e94610f3b565b6001600160a01b038116610edb576040517f1e4fbdf70000000000000000000000000000000000000000000000000000000081525f60048201526024015b60405180910390fd5b610ee4816111ef565b50565b610eef610f3b565b600880546001600160a01b0319166001600160a01b0392909216919091179055565b610f19610f3b565b600480546001600160a01b0319166001600160a01b0392909216919091179055565b33610f6d7f9016d09d72d40fdae2fd8ceac6b6234c7706214fd39c1cd1e609a0528c199300546001600160a01b031690565b6001600160a01b031614610b9b576040517f118cdaa7000000000000000000000000000000000000000000000000000000008152336004820152602401610ed2565b306001600160a01b037f000000000000000000000000000000000000000000000000000000000000000016148061104857507f00000000000000000000000000000000000000000000000000000000000000006001600160a01b031661103c7f360894a13ba1a3210667c828492db98dca3e2076cc3735a920a3ca505d382bbc546001600160a01b031690565b6001600160a01b031614155b15610b9b576040517fe07c8dba00000000000000000000000000000000000000000000000000000000815260040160405180910390fd5b610ee4610f3b565b816001600160a01b03166352d1902d6040518163ffffffff1660e01b8152600401602060405180830381865afa9250505080156110e1575060408051601f3d908101601f191682019092526110de91810190611698565b60015b611122576040517f4c9c8ce30000000000000000000000000000000000000000000000000000000081526001600160a01b0383166004820152602401610ed2565b7f360894a13ba1a3210667c828492db98dca3e2076cc3735a920a3ca505d382bbc811461117e576040517faa1d49a400000000000000000000000000000000000000000000000000000000815260048101829052602401610ed2565b6111888383611278565b505050565b306001600160a01b037f00000000000000000000000000000000000000000000000000000000000000001614610b9b576040517fe07c8dba00000000000000000000000000000000000000000000000000000000815260040160405180910390fd5b7f9016d09d72d40fdae2fd8ceac6b6234c7706214fd39c1cd1e609a0528c19930080546001600160a01b031981166001600160a01b03848116918217845560405192169182907f8be0079c531659141344cd1fd0a4f28419497f9722a3daafe3b4186f6b6457e0905f90a3505050565b6112676112cd565b610ee481611334565b610b9b6112cd565b6112818261133c565b6040516001600160a01b038316907fbc7cd75a20ee27fd9adebab32041f755214dbc6bffa90cc0225b39da2e5c2d3b905f90a28051156112c55761118882826113cb565b610b0461143d565b7ff0c57e16840df040f15088dc2f81fe391c3923bec73e23a9662efc9c229c6a005468010000000000000000900460ff16610b9b576040517fd7e6bcf800000000000000000000000000000000000000000000000000000000815260040160405180910390fd5b610e946112cd565b806001600160a01b03163b5f0361138a576040517f4c9c8ce30000000000000000000000000000000000000000000000000000000081526001600160a01b0382166004820152602401610ed2565b7f360894a13ba1a3210667c828492db98dca3e2076cc3735a920a3ca505d382bbc80546001600160a01b0319166001600160a01b0392909216919091179055565b60605f80846001600160a01b0316846040516113e791906116af565b5f60405180830381855af49150503d805f811461141f576040519150601f19603f3d011682016040523d82523d5f602084013e611424565b606091505b5091509150611434858383611475565b95945050505050565b3415610b9b576040517fb398979f00000000000000000000000000000000000000000000000000000000815260040160405180910390fd5b60608261148a57611485826114ed565b6114e6565b81511580156114a157506001600160a01b0384163b155b156114e3576040517f9996b3150000000000000000000000000000000000000000000000000000000081526001600160a01b0385166004820152602401610ed2565b50805b9392505050565b8051156114fd5780518082602001fd5b6040517f1425ea4200000000000000000000000000000000000000000000000000000000815260040160405180910390fd5b80356001600160a01b0381168114611545575f80fd5b919050565b5f6020828403121561155a575f80fd5b6114e68261152f565b7f4e487b71000000000000000000000000000000000000000000000000000000005f52604160045260245ffd5b5f80604083850312156115a1575f80fd5b6115aa8361152f565b9150602083013567ffffffffffffffff808211156115c6575f80fd5b818501915085601f8301126115d9575f80fd5b8135818111156115eb576115eb611563565b604051601f8201601f19908116603f0116810190838211818310171561161357611613611563565b8160405282815288602084870101111561162b575f80fd5b826020860160208301375f6020848301015280955050505050509250929050565b5f6020828403121561165c575f80fd5b5035919050565b602081525f82518060208401528060208501604085015e5f604082850101526040601f19601f83011684010191505092915050565b5f602082840312156116a8575f80fd5b5051919050565b5f82518060208501845e5f92019182525091905056fea2646970667358221220aff3a5de3c23e2d05f1d3e2b5b5b7b392008b4935376b3d03c3656e15768167464736f6c63430008190033",
  "linkReferences": {},
  "deployedLinkReferences": {}
}