{
  "_format": "hh-sol-artifact-1",
  "contractName": "BaluniV1Registry",
  "sourceName": "contracts/registry/BaluniV1Registry.sol",
  "abi": [
    {
      "inputs": [
        {
          "internalType": "address",
          "name": "target",
          "type": "address"
        }
      ],
      "name": "AddressEmptyCode",
      "type": "error"
    },
    {
      "inputs": [
        {
          "internalType": "address",
          "name": "implementation",
          "type": "address"
        }
      ],
      "name": "ERC1967InvalidImplementation",
      "type": "error"
    },
    {
      "inputs": [],
      "name": "ERC1967NonPayable",
      "type": "error"
    },
    {
      "inputs": [],
      "name": "FailedInnerCall",
      "type": "error"
    },
    {
      "inputs": [],
      "name": "InvalidInitialization",
      "type": "error"
    },
    {
      "inputs": [],
      "name": "NotInitializing",
      "type": "error"
    },
    {
      "inputs": [
        {
          "internalType": "address",
          "name": "owner",
          "type": "address"
        }
      ],
      "name": "OwnableInvalidOwner",
      "type": "error"
    },
    {
      "inputs": [
        {
          "internalType": "address",
          "name": "account",
          "type": "address"
        }
      ],
      "name": "OwnableUnauthorizedAccount",
      "type": "error"
    },
    {
      "inputs": [],
      "name": "UUPSUnauthorizedCallContext",
      "type": "error"
    },
    {
      "inputs": [
        {
          "internalType": "bytes32",
          "name": "slot",
          "type": "bytes32"
        }
      ],
      "name": "UUPSUnsupportedProxiableUUID",
      "type": "error"
    },
    {
      "anonymous": false,
      "inputs": [
        {
          "indexed": false,
          "internalType": "uint64",
          "name": "version",
          "type": "uint64"
        }
      ],
      "name": "Initialized",
      "type": "event"
    },
    {
      "anonymous": false,
      "inputs": [
        {
          "indexed": true,
          "internalType": "address",
          "name": "previousOwner",
          "type": "address"
        },
        {
          "indexed": true,
          "internalType": "address",
          "name": "newOwner",
          "type": "address"
        }
      ],
      "name": "OwnershipTransferred",
      "type": "event"
    },
    {
      "anonymous": false,
      "inputs": [
        {
          "indexed": true,
          "internalType": "address",
          "name": "implementation",
          "type": "address"
        }
      ],
      "name": "Upgraded",
      "type": "event"
    },
    {
      "inputs": [],
      "name": "UPGRADE_INTERFACE_VERSION",
      "outputs": [
        {
          "internalType": "string",
          "name": "",
          "type": "string"
        }
      ],
      "stateMutability": "view",
      "type": "function"
    },
    {
      "inputs": [],
      "name": "USDC",
      "outputs": [
        {
          "internalType": "address",
          "name": "",
          "type": "address"
        }
      ],
      "stateMutability": "view",
      "type": "function"
    },
    {
      "inputs": [],
      "name": "WNATIVE",
      "outputs": [
        {
          "internalType": "address",
          "name": "",
          "type": "address"
        }
      ],
      "stateMutability": "view",
      "type": "function"
    },
    {
      "inputs": [],
      "name": "_1inchSpotAgg",
      "outputs": [
        {
          "internalType": "address",
          "name": "",
          "type": "address"
        }
      ],
      "stateMutability": "view",
      "type": "function"
    },
    {
      "inputs": [],
      "name": "_BPS_BASE",
      "outputs": [
        {
          "internalType": "uint256",
          "name": "",
          "type": "uint256"
        }
      ],
      "stateMutability": "view",
      "type": "function"
    },
    {
      "inputs": [],
      "name": "_BPS_FEE",
      "outputs": [
        {
          "internalType": "uint256",
          "name": "",
          "type": "uint256"
        }
      ],
      "stateMutability": "view",
      "type": "function"
    },
    {
      "inputs": [],
      "name": "_MAX_BPS_FEE",
      "outputs": [
        {
          "internalType": "uint256",
          "name": "",
          "type": "uint256"
        }
      ],
      "stateMutability": "view",
      "type": "function"
    },
    {
      "inputs": [],
      "name": "_REBALANCE_THRESHOLD",
      "outputs": [
        {
          "internalType": "uint256",
          "name": "",
          "type": "uint256"
        }
      ],
      "stateMutability": "view",
      "type": "function"
    },
    {
      "inputs": [],
      "name": "baluniAgentFactory",
      "outputs": [
        {
          "internalType": "address",
          "name": "",
          "type": "address"
        }
      ],
      "stateMutability": "view",
      "type": "function"
    },
    {
      "inputs": [],
      "name": "baluniDCAVaultRegistry",
      "outputs": [
        {
          "internalType": "address",
          "name": "",
          "type": "address"
        }
      ],
      "stateMutability": "view",
      "type": "function"
    },
    {
      "inputs": [],
      "name": "baluniOracle",
      "outputs": [
        {
          "internalType": "address",
          "name": "",
          "type": "address"
        }
      ],
      "stateMutability": "view",
      "type": "function"
    },
    {
      "inputs": [],
      "name": "baluniPoolPeriphery",
      "outputs": [
        {
          "internalType": "address",
          "name": "",
          "type": "address"
        }
      ],
      "stateMutability": "view",
      "type": "function"
    },
    {
      "inputs": [],
      "name": "baluniPoolRegistry",
      "outputs": [
        {
          "internalType": "address",
          "name": "",
          "type": "address"
        }
      ],
      "stateMutability": "view",
      "type": "function"
    },
    {
      "inputs": [],
      "name": "baluniRebalancer",
      "outputs": [
        {
          "internalType": "address",
          "name": "",
          "type": "address"
        }
      ],
      "stateMutability": "view",
      "type": "function"
    },
    {
      "inputs": [],
      "name": "baluniRegistry",
      "outputs": [
        {
          "internalType": "address",
          "name": "",
          "type": "address"
        }
      ],
      "stateMutability": "view",
      "type": "function"
    },
    {
      "inputs": [],
      "name": "baluniRouter",
      "outputs": [
        {
          "internalType": "address",
          "name": "",
          "type": "address"
        }
      ],
      "stateMutability": "view",
      "type": "function"
    },
    {
      "inputs": [],
      "name": "baluniSwapper",
      "outputs": [
        {
          "internalType": "address",
          "name": "",
          "type": "address"
        }
      ],
      "stateMutability": "view",
      "type": "function"
    },
    {
      "inputs": [],
      "name": "baluniYearnVaultRegistry",
      "outputs": [
        {
          "internalType": "address",
          "name": "",
          "type": "address"
        }
      ],
      "stateMutability": "view",
      "type": "function"
    },
    {
      "inputs": [],
      "name": "get1inchSpotAgg",
      "outputs": [
        {
          "internalType": "address",
          "name": "",
          "type": "address"
        }
      ],
      "stateMutability": "view",
      "type": "function"
    },
    {
      "inputs": [],
      "name": "getBPS_BASE",
      "outputs": [
        {
          "internalType": "uint256",
          "name": "",
          "type": "uint256"
        }
      ],
      "stateMutability": "view",
      "type": "function"
    },
    {
      "inputs": [],
      "name": "getBPS_FEE",
      "outputs": [
        {
          "internalType": "uint256",
          "name": "",
          "type": "uint256"
        }
      ],
      "stateMutability": "view",
      "type": "function"
    },
    {
      "inputs": [],
      "name": "getBaluniAgentFactory",
      "outputs": [
        {
          "internalType": "address",
          "name": "",
          "type": "address"
        }
      ],
      "stateMutability": "view",
      "type": "function"
    },
    {
      "inputs": [],
      "name": "getBaluniDCAVaultRegistry",
      "outputs": [
        {
          "internalType": "address",
          "name": "",
          "type": "address"
        }
      ],
      "stateMutability": "view",
      "type": "function"
    },
    {
      "inputs": [],
      "name": "getBaluniOracle",
      "outputs": [
        {
          "internalType": "address",
          "name": "",
          "type": "address"
        }
      ],
      "stateMutability": "view",
      "type": "function"
    },
    {
      "inputs": [],
      "name": "getBaluniPoolPeriphery",
      "outputs": [
        {
          "internalType": "address",
          "name": "",
          "type": "address"
        }
      ],
      "stateMutability": "view",
      "type": "function"
    },
    {
      "inputs": [],
      "name": "getBaluniPoolRegistry",
      "outputs": [
        {
          "internalType": "address",
          "name": "",
          "type": "address"
        }
      ],
      "stateMutability": "view",
      "type": "function"
    },
    {
      "inputs": [],
      "name": "getBaluniRebalancer",
      "outputs": [
        {
          "internalType": "address",
          "name": "",
          "type": "address"
        }
      ],
      "stateMutability": "view",
      "type": "function"
    },
    {
      "inputs": [],
      "name": "getBaluniRegistry",
      "outputs": [
        {
          "internalType": "address",
          "name": "",
          "type": "address"
        }
      ],
      "stateMutability": "view",
      "type": "function"
    },
    {
      "inputs": [],
      "name": "getBaluniRouter",
      "outputs": [
        {
          "internalType": "address",
          "name": "",
          "type": "address"
        }
      ],
      "stateMutability": "view",
      "type": "function"
    },
    {
      "inputs": [],
      "name": "getBaluniSwapper",
      "outputs": [
        {
          "internalType": "address",
          "name": "",
          "type": "address"
        }
      ],
      "stateMutability": "view",
      "type": "function"
    },
    {
      "inputs": [],
      "name": "getBaluniYearnVaultRegistry",
      "outputs": [
        {
          "internalType": "address",
          "name": "",
          "type": "address"
        }
      ],
      "stateMutability": "view",
      "type": "function"
    },
    {
      "inputs": [],
      "name": "getMAX_BPS_FEE",
      "outputs": [
        {
          "internalType": "uint256",
          "name": "",
          "type": "uint256"
        }
      ],
      "stateMutability": "view",
      "type": "function"
    },
    {
      "inputs": [],
      "name": "getREBALANCE_THRESHOLD",
      "outputs": [
        {
          "internalType": "uint256",
          "name": "",
          "type": "uint256"
        }
      ],
      "stateMutability": "view",
      "type": "function"
    },
    {
      "inputs": [],
      "name": "getStaticOracle",
      "outputs": [
        {
          "internalType": "address",
          "name": "",
          "type": "address"
        }
      ],
      "stateMutability": "view",
      "type": "function"
    },
    {
      "inputs": [],
      "name": "getTreasury",
      "outputs": [
        {
          "internalType": "address",
          "name": "",
          "type": "address"
        }
      ],
      "stateMutability": "view",
      "type": "function"
    },
    {
      "inputs": [],
      "name": "getUSDC",
      "outputs": [
        {
          "internalType": "address",
          "name": "",
          "type": "address"
        }
      ],
      "stateMutability": "view",
      "type": "function"
    },
    {
      "inputs": [],
      "name": "getUniswapFactory",
      "outputs": [
        {
          "internalType": "address",
          "name": "",
          "type": "address"
        }
      ],
      "stateMutability": "view",
      "type": "function"
    },
    {
      "inputs": [],
      "name": "getUniswapQuoter",
      "outputs": [
        {
          "internalType": "address",
          "name": "",
          "type": "address"
        }
      ],
      "stateMutability": "view",
      "type": "function"
    },
    {
      "inputs": [],
      "name": "getUniswapRouter",
      "outputs": [
        {
          "internalType": "address",
          "name": "",
          "type": "address"
        }
      ],
      "stateMutability": "view",
      "type": "function"
    },
    {
      "inputs": [],
      "name": "getWNATIVE",
      "outputs": [
        {
          "internalType": "address",
          "name": "",
          "type": "address"
        }
      ],
      "stateMutability": "view",
      "type": "function"
    },
    {
      "inputs": [],
      "name": "initialize",
      "outputs": [],
      "stateMutability": "nonpayable",
      "type": "function"
    },
    {
      "inputs": [],
      "name": "owner",
      "outputs": [
        {
          "internalType": "address",
          "name": "",
          "type": "address"
        }
      ],
      "stateMutability": "view",
      "type": "function"
    },
    {
      "inputs": [],
      "name": "proxiableUUID",
      "outputs": [
        {
          "internalType": "bytes32",
          "name": "",
          "type": "bytes32"
        }
      ],
      "stateMutability": "view",
      "type": "function"
    },
    {
      "inputs": [],
      "name": "renounceOwnership",
      "outputs": [],
      "stateMutability": "nonpayable",
      "type": "function"
    },
    {
      "inputs": [
        {
          "internalType": "address",
          "name": "__1inchSpotAgg",
          "type": "address"
        }
      ],
      "name": "set1inchSpotAgg",
      "outputs": [],
      "stateMutability": "nonpayable",
      "type": "function"
    },
    {
      "inputs": [
        {
          "internalType": "uint256",
          "name": "__BPS_FEE",
          "type": "uint256"
        }
      ],
      "name": "setBPS_FEE",
      "outputs": [],
      "stateMutability": "nonpayable",
      "type": "function"
    },
    {
      "inputs": [
        {
          "internalType": "address",
          "name": "_baluniAgentFactory",
          "type": "address"
        }
      ],
      "name": "setBaluniAgentFactory",
      "outputs": [],
      "stateMutability": "nonpayable",
      "type": "function"
    },
    {
      "inputs": [
        {
          "internalType": "address",
          "name": "_baluniDCAVaultRegistry",
          "type": "address"
        }
      ],
      "name": "setBaluniDCAVaultRegistry",
      "outputs": [],
      "stateMutability": "nonpayable",
      "type": "function"
    },
    {
      "inputs": [
        {
          "internalType": "address",
          "name": "_baluniOracle",
          "type": "address"
        }
      ],
      "name": "setBaluniOracle",
      "outputs": [],
      "stateMutability": "nonpayable",
      "type": "function"
    },
    {
      "inputs": [
        {
          "internalType": "address",
          "name": "_baluniPoolPeriphery",
          "type": "address"
        }
      ],
      "name": "setBaluniPoolPeriphery",
      "outputs": [],
      "stateMutability": "nonpayable",
      "type": "function"
    },
    {
      "inputs": [
        {
          "internalType": "address",
          "name": "_baluniPoolRegistry",
          "type": "address"
        }
      ],
      "name": "setBaluniPoolRegistry",
      "outputs": [],
      "stateMutability": "nonpayable",
      "type": "function"
    },
    {
      "inputs": [
        {
          "internalType": "address",
          "name": "_baluniRebalancer",
          "type": "address"
        }
      ],
      "name": "setBaluniRebalancer",
      "outputs": [],
      "stateMutability": "nonpayable",
      "type": "function"
    },
    {
      "inputs": [
        {
          "internalType": "address",
          "name": "_baluniRegistry",
          "type": "address"
        }
      ],
      "name": "setBaluniRegistry",
      "outputs": [],
      "stateMutability": "nonpayable",
      "type": "function"
    },
    {
      "inputs": [
        {
          "internalType": "address",
          "name": "_baluniRouter",
          "type": "address"
        }
      ],
      "name": "setBaluniRouter",
      "outputs": [],
      "stateMutability": "nonpayable",
      "type": "function"
    },
    {
      "inputs": [
        {
          "internalType": "address",
          "name": "_baluniSwapper",
          "type": "address"
        }
      ],
      "name": "setBaluniSwapper",
      "outputs": [],
      "stateMutability": "nonpayable",
      "type": "function"
    },
    {
      "inputs": [
        {
          "internalType": "address",
          "name": "_baluniYearnVaultRegistry",
          "type": "address"
        }
      ],
      "name": "setBaluniYearnVaultRegistry",
      "outputs": [],
      "stateMutability": "nonpayable",
      "type": "function"
    },
    {
      "inputs": [
        {
          "internalType": "uint256",
          "name": "__REBALANCE_THRESHOLD",
          "type": "uint256"
        }
      ],
      "name": "setREBALANCE_THRESHOLD",
      "outputs": [],
      "stateMutability": "nonpayable",
      "type": "function"
    },
    {
      "inputs": [
        {
          "internalType": "address",
          "name": "_staticOracle",
          "type": "address"
        }
      ],
      "name": "setStaticOracle",
      "outputs": [],
      "stateMutability": "nonpayable",
      "type": "function"
    },
    {
      "inputs": [
        {
          "internalType": "address",
          "name": "_treasury",
          "type": "address"
        }
      ],
      "name": "setTreasury",
      "outputs": [],
      "stateMutability": "nonpayable",
      "type": "function"
    },
    {
      "inputs": [
        {
          "internalType": "address",
          "name": "_USDC",
          "type": "address"
        }
      ],
      "name": "setUSDC",
      "outputs": [],
      "stateMutability": "nonpayable",
      "type": "function"
    },
    {
      "inputs": [
        {
          "internalType": "address",
          "name": "_uniswapFactory",
          "type": "address"
        }
      ],
      "name": "setUniswapFactory",
      "outputs": [],
      "stateMutability": "nonpayable",
      "type": "function"
    },
    {
      "inputs": [
        {
          "internalType": "address",
          "name": "_uniswapQuoter",
          "type": "address"
        }
      ],
      "name": "setUniswapQuoter",
      "outputs": [],
      "stateMutability": "nonpayable",
      "type": "function"
    },
    {
      "inputs": [
        {
          "internalType": "address",
          "name": "_uniswapRouter",
          "type": "address"
        }
      ],
      "name": "setUniswapRouter",
      "outputs": [],
      "stateMutability": "nonpayable",
      "type": "function"
    },
    {
      "inputs": [
        {
          "internalType": "address",
          "name": "_WNATIVE",
          "type": "address"
        }
      ],
      "name": "setWNATIVE",
      "outputs": [],
      "stateMutability": "nonpayable",
      "type": "function"
    },
    {
      "inputs": [],
      "name": "staticOracle",
      "outputs": [
        {
          "internalType": "address",
          "name": "",
          "type": "address"
        }
      ],
      "stateMutability": "view",
      "type": "function"
    },
    {
      "inputs": [
        {
          "internalType": "address",
          "name": "newOwner",
          "type": "address"
        }
      ],
      "name": "transferOwnership",
      "outputs": [],
      "stateMutability": "nonpayable",
      "type": "function"
    },
    {
      "inputs": [],
      "name": "treasury",
      "outputs": [
        {
          "internalType": "address",
          "name": "",
          "type": "address"
        }
      ],
      "stateMutability": "view",
      "type": "function"
    },
    {
      "inputs": [],
      "name": "uniswapFactory",
      "outputs": [
        {
          "internalType": "address",
          "name": "",
          "type": "address"
        }
      ],
      "stateMutability": "view",
      "type": "function"
    },
    {
      "inputs": [],
      "name": "uniswapQuoter",
      "outputs": [
        {
          "internalType": "address",
          "name": "",
          "type": "address"
        }
      ],
      "stateMutability": "view",
      "type": "function"
    },
    {
      "inputs": [],
      "name": "uniswapRouter",
      "outputs": [
        {
          "internalType": "address",
          "name": "",
          "type": "address"
        }
      ],
      "stateMutability": "view",
      "type": "function"
    },
    {
      "inputs": [
        {
          "internalType": "address",
          "name": "newImplementation",
          "type": "address"
        },
        {
          "internalType": "bytes",
          "name": "data",
          "type": "bytes"
        }
      ],
      "name": "upgradeToAndCall",
      "outputs": [],
      "stateMutability": "payable",
      "type": "function"
    }
  ],
  "bytecode": "0x60a0806040523460295730608052611953908161002e823960805181818161108f015261118c0152f35b5f80fdfe6080604090808252600480361015610015575f80fd5b5f3560e01c9182630218ecd6146115f8575081630241bffa1461159457816304cc7325146114a95781631292f02e146103c55781631acb614114610fcf5781631bf01e9b14610c4057816326158136146115305781632da524421461151157816332327d1f146114dd57816332569e021461141357816334decfc914610b6857816339b65140146114a95781633b19e84a14610f9b5781633e6dfa3614610c0d578163400fb66814611445578163468a7071146108605781634b66a135146114135781634db4a35214610a125781634f1ef286146111045781634f4608a214610c74578163524900b514610e6557816352d1902d14611067578163588c5b701461100357816358a6723314610fcf57816361d027b314610f9b5781636c43274c14610f375781636c9c0078146109de578163715018a614610e99578163735de9f714610e65578163782dd90214610b865781637dfb7ea114610c925781638129fc1c14610cc657816382755ebb14610c925781638537718814610c7457816385462d6f146108f857816389a3027114610c405781638bdb2afa14610c0d5781638da5cb5b14610bba5781638e1c3a8a14610b865781639380fb6f14610b685781639454705f14610b1557816399c22ca6146105505781639e6453f814610b49578163a5d2236f14610b15578163ad3cb1cc14610a46578163b0a7097514610a12578163b381cf40146109de578163b3e089a21461097a578163b691a4191461069c578163b6fe9cc714610916578163b9f5e617146108f8578163ba535c5414610894578163bb3ba04c14610860578163bea9849e146107fc578163c08f786b14610798578163c3f5df5c14610734578163c9aba8ae1461056e578163cc01e9a6146106d0578163cff49d681461069c578163d7e5367314610638578163e04b677f146105d6578163e23d837b146105a2578163e528ca121461056e578163ea233c0514610550578163f0f44260146104ec578163f1dccde714610488578163f2fde38b1461045d578163f5b84f64146103f9578163f5d2d998146103c5578163f98977a914610364575063ffa08e951461032d575f80fd5b34610360575f6003193601126103605760209073ffffffffffffffffffffffffffffffffffffffff600b54169051908152f35b5f80fd5b346103605760206003193601126103605773ffffffffffffffffffffffffffffffffffffffff610392611628565b61039a6117b4565b82547fffffffffffffffffffffffff0000000000000000000000000000000000000000169116179055005b8234610360575f6003193601126103605760209073ffffffffffffffffffffffffffffffffffffffff600254169051908152f35b346103605760206003193601126103605773ffffffffffffffffffffffffffffffffffffffff610427611628565b61042f6117b4565b167fffffffffffffffffffffffff000000000000000000000000000000000000000060085416176008555f80f35b3461036057602060031936011261036057610486610479611628565b6104816117b4565b6116f3565b005b346103605760206003193601126103605773ffffffffffffffffffffffffffffffffffffffff6104b6611628565b6104be6117b4565b167fffffffffffffffffffffffff000000000000000000000000000000000000000060025416176002555f80f35b346103605760206003193601126103605773ffffffffffffffffffffffffffffffffffffffff61051a611628565b6105226117b4565b167fffffffffffffffffffffffff0000000000000000000000000000000000000000600c541617600c555f80f35b8234610360575f600319360112610360576020906014549051908152f35b8234610360575f6003193601126103605760209073ffffffffffffffffffffffffffffffffffffffff600754169051908152f35b8234610360575f6003193601126103605760209073ffffffffffffffffffffffffffffffffffffffff600b54169051908152f35b346103605760206003193601126103605773ffffffffffffffffffffffffffffffffffffffff610604611628565b61060c6117b4565b167fffffffffffffffffffffffff00000000000000000000000000000000000000005f5416175f555f80f35b346103605760206003193601126103605773ffffffffffffffffffffffffffffffffffffffff610666611628565b61066e6117b4565b167fffffffffffffffffffffffff0000000000000000000000000000000000000000600b541617600b555f80f35b8234610360575f6003193601126103605760209073ffffffffffffffffffffffffffffffffffffffff600554169051908152f35b346103605760206003193601126103605773ffffffffffffffffffffffffffffffffffffffff6106fe611628565b6107066117b4565b167fffffffffffffffffffffffff0000000000000000000000000000000000000000600d541617600d555f80f35b346103605760206003193601126103605773ffffffffffffffffffffffffffffffffffffffff610762611628565b61076a6117b4565b167fffffffffffffffffffffffff000000000000000000000000000000000000000060095416176009555f80f35b346103605760206003193601126103605773ffffffffffffffffffffffffffffffffffffffff6107c6611628565b6107ce6117b4565b167fffffffffffffffffffffffff000000000000000000000000000000000000000060105416176010555f80f35b346103605760206003193601126103605773ffffffffffffffffffffffffffffffffffffffff61082a611628565b6108326117b4565b167fffffffffffffffffffffffff000000000000000000000000000000000000000060015416176001555f80f35b8234610360575f6003193601126103605760209073ffffffffffffffffffffffffffffffffffffffff600854169051908152f35b346103605760206003193601126103605773ffffffffffffffffffffffffffffffffffffffff6108c2611628565b6108ca6117b4565b167fffffffffffffffffffffffff0000000000000000000000000000000000000000600a541617600a555f80f35b8234610360575f600319360112610360576020906012549051908152f35b346103605760206003193601126103605773ffffffffffffffffffffffffffffffffffffffff610944611628565b61094c6117b4565b167fffffffffffffffffffffffff0000000000000000000000000000000000000000600e541617600e555f80f35b346103605760206003193601126103605773ffffffffffffffffffffffffffffffffffffffff6109a8611628565b6109b06117b4565b167fffffffffffffffffffffffff0000000000000000000000000000000000000000600f541617600f555f80f35b8234610360575f6003193601126103605760209073ffffffffffffffffffffffffffffffffffffffff600e54169051908152f35b8234610360575f6003193601126103605760209073ffffffffffffffffffffffffffffffffffffffff601554169051908152f35b8234610360575f600319360112610360578051918183019083821067ffffffffffffffff831117610ae9575081526005825260208201917f352e302e3000000000000000000000000000000000000000000000000000000083527fffffffffffffffffffffffffffffffffffffffffffffffffffffffffffffffe0601f8351948593602085525180918160208701528686015e5f85828601015201168101030190f35b6041907f4e487b71000000000000000000000000000000000000000000000000000000005f525260245ffd5b8234610360575f6003193601126103605760209073ffffffffffffffffffffffffffffffffffffffff600d54169051908152f35b3461036057602060031936011261036057610b626117b4565b35601255005b8234610360575f600319360112610360576020906011549051908152f35b8234610360575f6003193601126103605760209073ffffffffffffffffffffffffffffffffffffffff601054169051908152f35b8234610360575f6003193601126103605760209073ffffffffffffffffffffffffffffffffffffffff7f9016d09d72d40fdae2fd8ceac6b6234c7706214fd39c1cd1e609a0528c19930054169051908152f35b8234610360575f6003193601126103605760209073ffffffffffffffffffffffffffffffffffffffff5f54169051908152f35b8234610360575f6003193601126103605760209073ffffffffffffffffffffffffffffffffffffffff600f54169051908152f35b8234610360575f600319360112610360576020906013549051908152f35b8234610360575f6003193601126103605760209073ffffffffffffffffffffffffffffffffffffffff600954169051908152f35b905034610360575f600319360112610360577ff0c57e16840df040f15088dc2f81fe391c3923bec73e23a9662efc9c229c6a0090815460ff81851c16159167ffffffffffffffff821680159081610e5d575b6001149081610e53575b159081610e4a575b50610e2357508160017fffffffffffffffffffffffffffffffffffffffffffffffff00000000000000008316178455610dee575b50610d67611824565b610d6f611824565b610d78336116f3565b610d80611824565b6064601155601e6012556127106013556064601455610d9b57005b7fc7f505b2f371ae2175ee4913f4499e1f2633a7b5936321eed1cdaeb6115181d291817fffffffffffffffffffffffffffffffffffffffffffffff00ffffffffffffffff602093541690555160018152a1005b7fffffffffffffffffffffffffffffffffffffffffffffff00000000000000000016680100000000000000011782555f610d5e565b84517ff92ee8a9000000000000000000000000000000000000000000000000000000008152fd5b9050155f610d2a565b303b159150610d22565b849150610d18565b8234610360575f6003193601126103605760209073ffffffffffffffffffffffffffffffffffffffff600154169051908152f35b34610360575f60031936011261036057610eb16117b4565b5f73ffffffffffffffffffffffffffffffffffffffff7f9016d09d72d40fdae2fd8ceac6b6234c7706214fd39c1cd1e609a0528c1993008054907fffffffffffffffffffffffff000000000000000000000000000000000000000082169055167f8be0079c531659141344cd1fd0a4f28419497f9722a3daafe3b4186f6b6457e08280a3005b346103605760206003193601126103605773ffffffffffffffffffffffffffffffffffffffff610f65611628565b610f6d6117b4565b167fffffffffffffffffffffffff000000000000000000000000000000000000000060075416176007555f80f35b8234610360575f6003193601126103605760209073ffffffffffffffffffffffffffffffffffffffff600c54169051908152f35b8234610360575f6003193601126103605760209073ffffffffffffffffffffffffffffffffffffffff600354169051908152f35b346103605760206003193601126103605773ffffffffffffffffffffffffffffffffffffffff611031611628565b6110396117b4565b167fffffffffffffffffffffffff000000000000000000000000000000000000000060035416176003555f80f35b8234610360575f6003193601126103605773ffffffffffffffffffffffffffffffffffffffff7f00000000000000000000000000000000000000000000000000000000000000001630036110de57602090517f360894a13ba1a3210667c828492db98dca3e2076cc3735a920a3ca505d382bbc8152f35b517fe07c8dba000000000000000000000000000000000000000000000000000000008152fd5b90508160031936011261036057611119611628565b602492833567ffffffffffffffff811161036057366023820112156103605780840135611145816116b9565b936111528451958661164b565b818552602091828601933689838301011161036057815f928a86930187378701015273ffffffffffffffffffffffffffffffffffffffff807f0000000000000000000000000000000000000000000000000000000000000000168030149081156113e5575b506113bd576111c46117b4565b81169484517f52d1902d000000000000000000000000000000000000000000000000000000008152838189818a5afa5f918161138e575b5061122f57505050505051917f4c9c8ce3000000000000000000000000000000000000000000000000000000008352820152fd5b9087878794938b7f360894a13ba1a3210667c828492db98dca3e2076cc3735a920a3ca505d382bbc918281036113615750853b156113345750817fffffffffffffffffffffffff00000000000000000000000000000000000000008254161790558451907fbc7cd75a20ee27fd9adebab32041f755214dbc6bffa90cc0225b39da2e5c2d3b5f80a28251156113015750505f6104869581925190845af4913d156112f7573d6112e96112e0826116b9565b9251928361164b565b81525f81943d92013e61187d565b506060925061187d565b945094505050503461130f57005b7fb398979f000000000000000000000000000000000000000000000000000000008152fd5b83838851917f4c9c8ce3000000000000000000000000000000000000000000000000000000008352820152fd5b84908851917faa1d49a4000000000000000000000000000000000000000000000000000000008352820152fd5b9091508481813d83116113b6575b6113a6818361164b565b810103126103605751905f6111fb565b503d61139c565b8685517fe07c8dba000000000000000000000000000000000000000000000000000000008152fd5b9050817f360894a13ba1a3210667c828492db98dca3e2076cc3735a920a3ca505d382bbc541614155f6111b7565b8234610360575f6003193601126103605773ffffffffffffffffffffffffffffffffffffffff60209254169051908152f35b346103605760206003193601126103605773ffffffffffffffffffffffffffffffffffffffff611473611628565b61147b6117b4565b167fffffffffffffffffffffffff000000000000000000000000000000000000000060065416176006555f80f35b8234610360575f6003193601126103605760209073ffffffffffffffffffffffffffffffffffffffff600654169051908152f35b8234610360575f6003193601126103605760209073ffffffffffffffffffffffffffffffffffffffff600a54169051908152f35b346103605760206003193601126103605761152a6117b4565b35601455005b346103605760206003193601126103605773ffffffffffffffffffffffffffffffffffffffff61155e611628565b6115666117b4565b167fffffffffffffffffffffffff000000000000000000000000000000000000000060155416176015555f80f35b346103605760206003193601126103605773ffffffffffffffffffffffffffffffffffffffff6115c2611628565b6115ca6117b4565b167fffffffffffffffffffffffff000000000000000000000000000000000000000060055416176005555f80f35b34610360575f6003193601126103605760209073ffffffffffffffffffffffffffffffffffffffff600a54168152f35b6004359073ffffffffffffffffffffffffffffffffffffffff8216820361036057565b90601f7fffffffffffffffffffffffffffffffffffffffffffffffffffffffffffffffe0910116810190811067ffffffffffffffff82111761168c57604052565b7f4e487b71000000000000000000000000000000000000000000000000000000005f52604160045260245ffd5b67ffffffffffffffff811161168c57601f017fffffffffffffffffffffffffffffffffffffffffffffffffffffffffffffffe01660200190565b73ffffffffffffffffffffffffffffffffffffffff809116908115611784577f9016d09d72d40fdae2fd8ceac6b6234c7706214fd39c1cd1e609a0528c199300805490837fffffffffffffffffffffffff00000000000000000000000000000000000000008316179055167f8be0079c531659141344cd1fd0a4f28419497f9722a3daafe3b4186f6b6457e05f80a3565b60246040517f1e4fbdf70000000000000000000000000000000000000000000000000000000081525f6004820152fd5b73ffffffffffffffffffffffffffffffffffffffff7f9016d09d72d40fdae2fd8ceac6b6234c7706214fd39c1cd1e609a0528c199300541633036117f457565b60246040517f118cdaa7000000000000000000000000000000000000000000000000000000008152336004820152fd5b60ff7ff0c57e16840df040f15088dc2f81fe391c3923bec73e23a9662efc9c229c6a005460401c161561185357565b60046040517fd7e6bcf8000000000000000000000000000000000000000000000000000000008152fd5b906118bc575080511561189257805190602001fd5b60046040517f1425ea42000000000000000000000000000000000000000000000000000000008152fd5b81511580611914575b6118cd575090565b60249073ffffffffffffffffffffffffffffffffffffffff604051917f9996b315000000000000000000000000000000000000000000000000000000008352166004820152fd5b50803b156118c556fea2646970667358221220ed40f53b46899778a8b0c5d7a5a8912844534bbd4698a43c9cc0dcaa634b110864736f6c63430008190033",
  "linkReferences": {},
  "deployedLinkReferences": {}
}