{
  "_format": "hh-sol-artifact-1",
  "contractName": "BaluniV1PoolPeriphery",
  "sourceName": "contracts/BaluniV1PoolPeriphery.sol",
  "abi": [
    {
      "inputs": [
        {
          "internalType": "address",
          "name": "target",
          "type": "address"
        }
      ],
      "name": "AddressEmptyCode",
      "type": "error"
    },
    {
      "inputs": [
        {
          "internalType": "address",
          "name": "implementation",
          "type": "address"
        }
      ],
      "name": "ERC1967InvalidImplementation",
      "type": "error"
    },
    {
      "inputs": [],
      "name": "ERC1967NonPayable",
      "type": "error"
    },
    {
      "inputs": [],
      "name": "FailedInnerCall",
      "type": "error"
    },
    {
      "inputs": [],
      "name": "InvalidInitialization",
      "type": "error"
    },
    {
      "inputs": [],
      "name": "NotInitializing",
      "type": "error"
    },
    {
      "inputs": [
        {
          "internalType": "address",
          "name": "owner",
          "type": "address"
        }
      ],
      "name": "OwnableInvalidOwner",
      "type": "error"
    },
    {
      "inputs": [
        {
          "internalType": "address",
          "name": "account",
          "type": "address"
        }
      ],
      "name": "OwnableUnauthorizedAccount",
      "type": "error"
    },
    {
      "inputs": [],
      "name": "UUPSUnauthorizedCallContext",
      "type": "error"
    },
    {
      "inputs": [
        {
          "internalType": "bytes32",
          "name": "slot",
          "type": "bytes32"
        }
      ],
      "name": "UUPSUnsupportedProxiableUUID",
      "type": "error"
    },
    {
      "anonymous": false,
      "inputs": [
        {
          "indexed": false,
          "internalType": "uint64",
          "name": "version",
          "type": "uint64"
        }
      ],
      "name": "Initialized",
      "type": "event"
    },
    {
      "anonymous": false,
      "inputs": [
        {
          "indexed": true,
          "internalType": "address",
          "name": "previousOwner",
          "type": "address"
        },
        {
          "indexed": true,
          "internalType": "address",
          "name": "newOwner",
          "type": "address"
        }
      ],
      "name": "OwnershipTransferred",
      "type": "event"
    },
    {
      "anonymous": false,
      "inputs": [
        {
          "indexed": true,
          "internalType": "address",
          "name": "implementation",
          "type": "address"
        }
      ],
      "name": "Upgraded",
      "type": "event"
    },
    {
      "inputs": [],
      "name": "UPGRADE_INTERFACE_VERSION",
      "outputs": [
        {
          "internalType": "string",
          "name": "",
          "type": "string"
        }
      ],
      "stateMutability": "view",
      "type": "function"
    },
    {
      "inputs": [
        {
          "internalType": "uint256[]",
          "name": "amounts",
          "type": "uint256[]"
        },
        {
          "internalType": "address",
          "name": "poolAddress",
          "type": "address"
        },
        {
          "internalType": "address",
          "name": "receiver",
          "type": "address"
        }
      ],
      "name": "addLiquidity",
      "outputs": [],
      "stateMutability": "nonpayable",
      "type": "function"
    },
    {
      "inputs": [
        {
          "internalType": "address[]",
          "name": "fromTokens",
          "type": "address[]"
        },
        {
          "internalType": "address[]",
          "name": "toTokens",
          "type": "address[]"
        },
        {
          "internalType": "uint256[]",
          "name": "amounts",
          "type": "uint256[]"
        },
        {
          "internalType": "address[]",
          "name": "receivers",
          "type": "address[]"
        }
      ],
      "name": "batchSwap",
      "outputs": [
        {
          "internalType": "uint256[]",
          "name": "",
          "type": "uint256[]"
        }
      ],
      "stateMutability": "nonpayable",
      "type": "function"
    },
    {
      "inputs": [
        {
          "internalType": "address",
          "name": "_poolFactory",
          "type": "address"
        }
      ],
      "name": "changePoolFactory",
      "outputs": [],
      "stateMutability": "nonpayable",
      "type": "function"
    },
    {
      "inputs": [
        {
          "internalType": "address",
          "name": "fromToken",
          "type": "address"
        },
        {
          "internalType": "address",
          "name": "toToken",
          "type": "address"
        },
        {
          "internalType": "uint256",
          "name": "amount",
          "type": "uint256"
        }
      ],
      "name": "getAmountOut",
      "outputs": [
        {
          "internalType": "uint256",
          "name": "",
          "type": "uint256"
        }
      ],
      "stateMutability": "view",
      "type": "function"
    },
    {
      "inputs": [
        {
          "internalType": "address",
          "name": "token",
          "type": "address"
        }
      ],
      "name": "getPoolsContainingToken",
      "outputs": [
        {
          "internalType": "address[]",
          "name": "",
          "type": "address[]"
        }
      ],
      "stateMutability": "view",
      "type": "function"
    },
    {
      "inputs": [],
      "name": "getVersion",
      "outputs": [
        {
          "internalType": "uint64",
          "name": "",
          "type": "uint64"
        }
      ],
      "stateMutability": "view",
      "type": "function"
    },
    {
      "inputs": [
        {
          "internalType": "address",
          "name": "_poolFactory",
          "type": "address"
        }
      ],
      "name": "initialize",
      "outputs": [],
      "stateMutability": "nonpayable",
      "type": "function"
    },
    {
      "inputs": [],
      "name": "owner",
      "outputs": [
        {
          "internalType": "address",
          "name": "",
          "type": "address"
        }
      ],
      "stateMutability": "view",
      "type": "function"
    },
    {
      "inputs": [
        {
          "internalType": "address",
          "name": "poolAddress",
          "type": "address"
        }
      ],
      "name": "performRebalanceIfNeeded",
      "outputs": [],
      "stateMutability": "nonpayable",
      "type": "function"
    },
    {
      "inputs": [],
      "name": "poolFactory",
      "outputs": [
        {
          "internalType": "contract IBaluniV1PoolFactory",
          "name": "",
          "type": "address"
        }
      ],
      "stateMutability": "view",
      "type": "function"
    },
    {
      "inputs": [],
      "name": "proxiableUUID",
      "outputs": [
        {
          "internalType": "bytes32",
          "name": "",
          "type": "bytes32"
        }
      ],
      "stateMutability": "view",
      "type": "function"
    },
    {
      "inputs": [
        {
          "internalType": "address",
          "name": "_poolFactory",
          "type": "address"
        },
        {
          "internalType": "uint64",
          "name": "version",
          "type": "uint64"
        }
      ],
      "name": "reinitialize",
      "outputs": [],
      "stateMutability": "nonpayable",
      "type": "function"
    },
    {
      "inputs": [
        {
          "internalType": "uint256",
          "name": "share",
          "type": "uint256"
        },
        {
          "internalType": "address",
          "name": "poolAddress",
          "type": "address"
        },
        {
          "internalType": "address",
          "name": "receiver",
          "type": "address"
        }
      ],
      "name": "removeLiquidity",
      "outputs": [],
      "stateMutability": "nonpayable",
      "type": "function"
    },
    {
      "inputs": [],
      "name": "renounceOwnership",
      "outputs": [],
      "stateMutability": "nonpayable",
      "type": "function"
    },
    {
      "inputs": [
        {
          "internalType": "address",
          "name": "fromToken",
          "type": "address"
        },
        {
          "internalType": "address",
          "name": "toToken",
          "type": "address"
        },
        {
          "internalType": "uint256",
          "name": "amount",
          "type": "uint256"
        },
        {
          "internalType": "address",
          "name": "receiver",
          "type": "address"
        }
      ],
      "name": "smartSwap",
      "outputs": [
        {
          "internalType": "uint256",
          "name": "",
          "type": "uint256"
        }
      ],
      "stateMutability": "nonpayable",
      "type": "function"
    },
    {
      "inputs": [
        {
          "internalType": "address",
          "name": "fromToken",
          "type": "address"
        },
        {
          "internalType": "address",
          "name": "toToken",
          "type": "address"
        },
        {
          "internalType": "uint256",
          "name": "amount",
          "type": "uint256"
        },
        {
          "internalType": "address",
          "name": "receiver",
          "type": "address"
        }
      ],
      "name": "swap",
      "outputs": [
        {
          "internalType": "uint256",
          "name": "",
          "type": "uint256"
        }
      ],
      "stateMutability": "nonpayable",
      "type": "function"
    },
    {
      "inputs": [
        {
          "internalType": "address",
          "name": "newOwner",
          "type": "address"
        }
      ],
      "name": "transferOwnership",
      "outputs": [],
      "stateMutability": "nonpayable",
      "type": "function"
    },
    {
      "inputs": [
        {
          "internalType": "address",
          "name": "newImplementation",
          "type": "address"
        },
        {
          "internalType": "bytes",
          "name": "data",
          "type": "bytes"
        }
      ],
      "name": "upgradeToAndCall",
      "outputs": [],
      "stateMutability": "payable",
      "type": "function"
    }
  ],
  "bytecode": "0x60a0806040523460295730608052612a86908161002e8239608051818181611ec90152611fea0152f35b5f80fdfe6080806040526004361015610012575f80fd5b5f905f3560e01c9081630d8e6e2c1461242f575080634219dc40146123df5780634aa066521461224d5780634f1ef28614611f4357806352d1902d14611e845780635568081a14611dd35780636e81221c14611b23578063715018a614611a6557806372591be5146119e55780637442eca6146113515780638da5cb5b146112e05780638f2248bc14611186578063ad3cb1cc14611097578063ae3cce1c14610f98578063c4d66de814610da4578063e74e9b0614610789578063ec0cd2eb1461054f578063f2fde38b146105045763f31abcc4146100ef575f80fd5b346102c45760607ffffffffffffffffffffffffffffffffffffffffffffffffffffffffffffffffc3601126102c4576004359061012a6124b3565b916101336124d6565b81156104a6576040517fdd62ed3e00000000000000000000000000000000000000000000000000000000815233600482015230602482015260209473ffffffffffffffffffffffffffffffffffffffff8082169490929091908781604481895afa90811561040c579083918891610475575b5010610417576040517f70a082310000000000000000000000000000000000000000000000000000000081523360048201528781602481895afa90811561040c5790839188916103d7575b5010610379576040517f23b872dd00000000000000000000000000000000000000000000000000000000815233600482015273ffffffffffffffffffffffffffffffffffffffff9190911660248201526044810191909152858160648188885af190811561036e578591610335575b50156102d757839450823b156102d257602484928360405195869485937f89afcb440000000000000000000000000000000000000000000000000000000085521660048401525af180156102c7576102b45750f35b6102bd906124f9565b6102c45780f35b80fd5b6040513d84823e3d90fd5b505050fd5b606485604051907f08c379a00000000000000000000000000000000000000000000000000000000082526004820152600f60248201527f5472616e73666572206661696c656400000000000000000000000000000000006044820152fd5b90508581813d8311610367575b61034c818361250d565b810103126103635761035d906126ac565b5f61025f565b8480fd5b503d610342565b6040513d87823e3d90fd5b606487604051907f08c379a00000000000000000000000000000000000000000000000000000000082526004820152601460248201527f496e73756666696369656e742062616c616e63650000000000000000000000006044820152fd5b809250898092503d8311610405575b6103f0818361250d565b81010312610401578290515f6101f0565b5f80fd5b503d6103e6565b6040513d89823e3d90fd5b606487604051907f08c379a00000000000000000000000000000000000000000000000000000000082526004820152601660248201527f496e73756666696369656e7420616c6c6f77616e6365000000000000000000006044820152fd5b809250898092503d831161049f575b61048e818361250d565b81010312610401578290515f6101a5565b503d610484565b60646040517f08c379a000000000000000000000000000000000000000000000000000000000815260206004820152601f60248201527f5368617265206d7573742062652067726561746572207468616e207a65726f006044820152fd5b50346102c45760207ffffffffffffffffffffffffffffffffffffffffffffffffffffffffffffffffc3601126102c45761054c61053f612490565b6105476128e7565b612826565b80f35b50346102c45760607ffffffffffffffffffffffffffffffffffffffffffffffffffffffffffffffffc3601126102c45760043567ffffffffffffffff81116107855761059f9036906004016125f5565b90916105a96124b3565b6105b16124d6565b9273ffffffffffffffffffffffffffffffffffffffff808316604051907f67e4ac2c0000000000000000000000000000000000000000000000000000000082528582600481845afa91821561077a578692610756575b50855b82518110156106e6578361061e8285612753565b511661062b82878c6127f5565b6040517f23b872dd00000000000000000000000000000000000000000000000000000000815233600482015273ffffffffffffffffffffffffffffffffffffffff8916602482015290356044820152906020908190839060649082908d905af180156106db576106a0575b505060010161060a565b81813d83116106d4575b6106b4818361250d565b810103126106d057906106c86001926126ac565b50905f610696565b8780fd5b503d6106aa565b6040513d8b823e3d90fd5b6040517f6a6278420000000000000000000000000000000000000000000000000000000081528885166004820152879060208160248185885af180156102c75761072e575080f35b602090813d831161074f575b610744818361250d565b810103126104015780f35b503d61073a565b6107739192503d8088833e61076b818361250d565b8101906126d1565b905f610607565b6040513d88823e3d90fd5b5080fd5b50346102c45760807ffffffffffffffffffffffffffffffffffffffffffffffffffffffffffffffffc3601126102c45767ffffffffffffffff600435818111610da0576107da9036906004016125f5565b9091602435818111610363576107f49036906004016125f5565b91604435818111610d9c5761080d9036906004016125f5565b90916064359081116106d0576108279036906004016125f5565b9285871480610d93575b80610d8a575b15610d2c5761084b879997989695986126b9565b97610859604051998a61250d565b8989527fffffffffffffffffffffffffffffffffffffffffffffffffffffffffffffffe06108868b6126b9565b013660208b013787995b808b106108dd578989604051918291602083016020845282518091526020604085019301915b8181106108c4575050500390f35b82518452859450602093840193909201916001016108b6565b8a89602061097f73ffffffffffffffffffffffffffffffffffffffff839f8d9f9e9c9d8188610926926109218f61092b968f91610919926127f5565b351515612647565b6127f5565b612805565b16610937858b8a6127f5565b6040517f23b872dd0000000000000000000000000000000000000000000000000000000081523360048201523060248201529035604482015293849283919082906064820190565b03925af19081156106db5782848b8f938e95610cb5575b50610926836109cb610926610a2c98966020989673ffffffffffffffffffffffffffffffffffffffff6109d2975416976127f5565b948a6127f5565b6040517f2d5e94a700000000000000000000000000000000000000000000000000000000815273ffffffffffffffffffffffffffffffffffffffff9384166004820152921660248301529092839190829081906044820190565b03915afa9081156106db5782848e8c938495610c47575b50610a6c610926602094610ad09473ffffffffffffffffffffffffffffffffffffffff946127f5565b16610a78868c8b6127f5565b6040517f095ea7b300000000000000000000000000000000000000000000000000000000815273ffffffffffffffffffffffffffffffffffffffff871660048201529035602482015293849283919082906044820190565b03925af18015610c3c57848e8592610bf7575b610aed93506127f5565b610af690612805565b90610b02838c876127f5565b610b0b90612805565b610b16848a896127f5565b3590610b23858c8b6127f5565b610b2c90612805565b6040517f6e81221c00000000000000000000000000000000000000000000000000000000815273ffffffffffffffffffffffffffffffffffffffff95861660048201529185166024830152604482019290925290831660648201529116816084818c5a94602095f19081156106db578991610bbf575b5090600191610bb1828d612753565b52019a509896959798610890565b919850506020813d602011610bef575b81610bdc6020938361250d565b8101031261040157518b97906001610ba2565b3d9150610bcf565b5050506020813d602011610c34575b81610c136020938361250d565b81010312610c305782848e610c2a610aed946126ac565b50610ae3565b8980fd5b3d9150610c06565b6040513d8c823e3d90fd5b9450505050506020813d602011610cad575b81610c666020938361250d565b81010312610ca957886020610ad073ffffffffffffffffffffffffffffffffffffffff8f946109268789610c9c610a6c94612626565b9894509450945050610a43565b8880fd5b3d9150610c59565b9450505050506020813d602011610d24575b81610cd46020938361250d565b81010312610ca95760208a8d6109d2610926866109cb8f828b73ffffffffffffffffffffffffffffffffffffffff61092693610d12610a2c9d6126ac565b50975050969850505050939550610996565b3d9150610cc7565b60646040517f08c379a000000000000000000000000000000000000000000000000000000000815260206004820152601c60248201527f496e70757420617272617973206c656e677468206d69736d61746368000000006044820152fd5b50838314610837565b50828614610831565b8680fd5b8280fd5b50346102c45760207ffffffffffffffffffffffffffffffffffffffffffffffffffffffffffffffffc3601126102c457610ddc612490565b7ff0c57e16840df040f15088dc2f81fe391c3923bec73e23a9662efc9c229c6a0090815460ff8160401c16159167ffffffffffffffff821680159081610f90575b6001149081610f86575b159081610f7d575b50610f5357818360017fffffffffffffffffffffffffffffffffffffffffffffffff000000000000000073ffffffffffffffffffffffffffffffffffffffff9516178655610f1e575b50610e81612957565b610e89612957565b610e91612957565b610e9a33612826565b167fffffffffffffffffffffffff0000000000000000000000000000000000000000845416178355610eca575080f35b7fffffffffffffffffffffffffffffffffffffffffffffff00ffffffffffffffff81541690557fc7f505b2f371ae2175ee4913f4499e1f2633a7b5936321eed1cdaeb6115181d2602060405160018152a180f35b7fffffffffffffffffffffffffffffffffffffffffffffff00000000000000000016680100000000000000011784555f610e78565b60046040517ff92ee8a9000000000000000000000000000000000000000000000000000000008152fd5b9050155f610e2f565b303b159150610e27565b849150610e1d565b50346102c4576020807ffffffffffffffffffffffffffffffffffffffffffffffffffffffffffffffffc36011261078557610fd1612490565b73ffffffffffffffffffffffffffffffffffffffff9280846024818354169460405195869384927fb4340e6a0000000000000000000000000000000000000000000000000000000084521660048301525afa91821561108a57819261106e575b506040519280840190808552835180925280604086019401925b8281106110585785850386f35b835187168552938101939281019260010161104b565b6110839192503d8084833e61076b818361250d565b905f611031565b50604051903d90823e3d90fd5b50346102c457807ffffffffffffffffffffffffffffffffffffffffffffffffffffffffffffffffc3601126102c457604051604081019080821067ffffffffffffffff831117611159576040918252600581527fffffffffffffffffffffffffffffffffffffffffffffffffffffffffffffffe0601f602083017f352e302e3000000000000000000000000000000000000000000000000000000081528451958694602086525180928160208801528787015e85828601015201168101030190f35b7f4e487b71000000000000000000000000000000000000000000000000000000005f52604160045260245ffd5b50346102c45760407ffffffffffffffffffffffffffffffffffffffffffffffffffffffffffffffffc3601126102c4576111be612490565b6024359067ffffffffffffffff918281168091036112dc577ff0c57e16840df040f15088dc2f81fe391c3923bec73e23a9662efc9c229c6a008054938260ff8660401c169182156112cf575b5050610f53577fffffffffffffffffffffffffffffffffffffffffffffff00ffffffffffffffff68010000000000000000837fffffffffffffffffffffffffffffffffffffffffffffff0000000000000000007fc7f505b2f371ae2175ee4913f4499e1f2633a7b5936321eed1cdaeb6115181d29773ffffffffffffffffffffffffffffffffffffffff602098167fffffffffffffffffffffffff00000000000000000000000000000000000000005f5416175f55161717169055604051908152a180f35b861610159050825f61120a565b8380fd5b50346102c457807ffffffffffffffffffffffffffffffffffffffffffffffffffffffffffffffffc3601126102c457602073ffffffffffffffffffffffffffffffffffffffff7f9016d09d72d40fdae2fd8ceac6b6234c7706214fd39c1cd1e609a0528c1993005416604051908152f35b50346102c457602461136236612588565b61137182959493921515612647565b8573ffffffffffffffffffffffffffffffffffffffff815416604051958680927fb4340e6a00000000000000000000000000000000000000000000000000000000825273ffffffffffffffffffffffffffffffffffffffff881660048301525afa93841561077a5786946119c9575b5090939185908190815b86518410156117235773ffffffffffffffffffffffffffffffffffffffff6114128589612753565b511697604051957f89ab35320000000000000000000000000000000000000000000000000000000087528a876004818d5afa968715611718578b97611649575b506004949596978b8b604051978880927f36bf6e390000000000000000000000000000000000000000000000000000000082525afa95861561163e578c966115f7575b508b5b8c8a518210156115e357602460408e8151928380927fd14ef46d0000000000000000000000000000000000000000000000000000000082528760048301525afa9182156115d7579161156f575b5073ffffffffffffffffffffffffffffffffffffffff8088169151161461150f575b600101611498565b6115198188612753565b51611524828c612753565b51151580611566575b611538575b50611507565b97509350600173ffffffffffffffffffffffffffffffffffffffff61155d8a8d612753565b51169490611532565b5088811161152d565b90506040813d6040116115cf575b8161158a6040938361250d565b810103126115cb57604051906040820182811067ffffffffffffffff821117611159576040526115b981612626565b8252602080910151908201525f6114e5565b8d80fd5b3d915061157d565b604051903d90823e3d90fd5b50929a509750956001019493506113ea9050565b9095503d808d833e611609818361250d565b810160408282031261163a57602082015167ffffffffffffffff81116115cb576116339201612794565b945f611495565b8c80fd5b6040513d8e823e3d90fd5b949596503d94858c823e61165d868261250d565b60408187810103126117145780519567ffffffffffffffff968781116115cb57820191818101601f840112156115cb5782519260209061169c856126b9565b946116aa604051968761250d565b808652828087019160051b83010191858501831161170e5783809101915b8383106116f657505050508101519788116115cb576004976116ed9282019101612794565b50969594611452565b8190611701846126ac565b81520191019083906116c8565b50508f80fd5b8b80fd5b6040513d8d823e3d90fd5b888686928a73ffffffffffffffffffffffffffffffffffffffff82161561196b576040517f23b872dd000000000000000000000000000000000000000000000000000000008152336004820152306024820152604481018490526020816064818873ffffffffffffffffffffffffffffffffffffffff8c165af1801561036e57611932575b506040517f095ea7b300000000000000000000000000000000000000000000000000000000815273ffffffffffffffffffffffffffffffffffffffff8316600482015260248101849052602081806044810103818873ffffffffffffffffffffffffffffffffffffffff8c165af1801561036e576118da575b506040517f6e81221c00000000000000000000000000000000000000000000000000000000815273ffffffffffffffffffffffffffffffffffffffff9687166004820152908616602482015260448101929092529284166064820152929091602091849160849183918691165af19081156115d757906118a7575b602090604051908152f35b506020813d6020116118d2575b816118c16020938361250d565b81010312610401576020905161189c565b3d91506118b4565b6020813d60201161192a575b816118f36020938361250d565b81010312610363579373ffffffffffffffffffffffffffffffffffffffff81969761191f6020976126ac565b509796955050611821565b3d91506118e6565b6020813d602011611963575b8161194b6020938361250d565b810103126103635761195c906126ac565b50866117a8565b3d915061193e565b60646040517f08c379a000000000000000000000000000000000000000000000000000000000815260206004820152601660248201527f4e6f207375697461626c6520706f6f6c20666f756e64000000000000000000006044820152fd5b6119de9194503d8088833e61076b818361250d565b925f6113e0565b50346102c45760207ffffffffffffffffffffffffffffffffffffffffffffffffffffffffffffffffc3601126102c45773ffffffffffffffffffffffffffffffffffffffff611a32612490565b611a3a6128e7565b167fffffffffffffffffffffffff00000000000000000000000000000000000000005f5416175f5580f35b50346102c457807ffffffffffffffffffffffffffffffffffffffffffffffffffffffffffffffffc3601126102c457611a9c6128e7565b5f73ffffffffffffffffffffffffffffffffffffffff7f9016d09d72d40fdae2fd8ceac6b6234c7706214fd39c1cd1e609a0528c1993008054907fffffffffffffffffffffffff000000000000000000000000000000000000000082169055167f8be0079c531659141344cd1fd0a4f28419497f9722a3daafe3b4186f6b6457e08280a380f35b50346102c457611b3236612588565b91611b41829594951515612647565b83546040517f2d5e94a700000000000000000000000000000000000000000000000000000000815273ffffffffffffffffffffffffffffffffffffffff8781166004830152838116602483015260209791939290919088908590604490829086165afa93841561040c578794611d9c575b506040517f23b872dd000000000000000000000000000000000000000000000000000000008152336004820152306024820152604481018690528282169089816064818c865af180156106db57611d68575b506040517f095ea7b300000000000000000000000000000000000000000000000000000000815273ffffffffffffffffffffffffffffffffffffffff8616600482015260248101879052908990829060449082908c905af18015611d5d57918996959493918993611d1b575b506040517f6e81221c00000000000000000000000000000000000000000000000000000000815273ffffffffffffffffffffffffffffffffffffffff9182166004820152938116602485015260448401959095529590931660648201529384926084928492165af19182156115d75791611cee575b50604051908152f35b90508181813d8311611d14575b611d05818361250d565b8101031261040157515f611ce5565b503d611cfb565b878193959697989294503d8311611d56575b611d37818361250d565b810103126106d057918791611d4f8a979695946126ac565b505f611c70565b503d611d2d565b6040513d8a823e3d90fd5b8981813d8311611d95575b611d7d818361250d565b81010312610ca957611d8e906126ac565b505f611c04565b503d611d73565b9093508781813d8311611dcc575b611db4818361250d565b81010312610d9c57611dc590612626565b925f611bb2565b503d611daa565b50346104015760207ffffffffffffffffffffffffffffffffffffffffffffffffffffffffffffffffc3601126104015773ffffffffffffffffffffffffffffffffffffffff611e20612490565b16803b15610401575f80916024604051809481937f5568081a0000000000000000000000000000000000000000000000000000000083523360048401525af18015611e7957611e6d575080f35b611e7791506124f9565b005b6040513d5f823e3d90fd5b34610401575f7ffffffffffffffffffffffffffffffffffffffffffffffffffffffffffffffffc3601126104015773ffffffffffffffffffffffffffffffffffffffff7f0000000000000000000000000000000000000000000000000000000000000000163003611f195760206040517f360894a13ba1a3210667c828492db98dca3e2076cc3735a920a3ca505d382bbc8152f35b60046040517fe07c8dba000000000000000000000000000000000000000000000000000000008152fd5b60407ffffffffffffffffffffffffffffffffffffffffffffffffffffffffffffffffc36011261040157611f75612490565b602490813567ffffffffffffffff81116104015736602382011215610401578060040135611fa28161254e565b92611fb0604051948561250d565b818452602091828501933687838301011161040157815f928886930187378601015273ffffffffffffffffffffffffffffffffffffffff807f00000000000000000000000000000000000000000000000000000000000000001680301490811561221f575b50611f19576120226128e7565b8116936040517f52d1902d0000000000000000000000000000000000000000000000000000000081528381600481895afa5f91816121f0575b50612090578686604051907f4c9c8ce30000000000000000000000000000000000000000000000000000000082526004820152fd5b8590877f360894a13ba1a3210667c828492db98dca3e2076cc3735a920a3ca505d382bbc918281036121c25750843b156121935750817fffffffffffffffffffffffff0000000000000000000000000000000000000000825416179055604051907fbc7cd75a20ee27fd9adebab32041f755214dbc6bffa90cc0225b39da2e5c2d3b5f80a281511561215f57505f611e779481925190845af4903d15612156573d61213a8161254e565b90612148604051928361250d565b81525f81943d92013e6129b0565b606092506129b0565b93505050503461216b57005b807fb398979f0000000000000000000000000000000000000000000000000000000060049252fd5b82604051907f4c9c8ce30000000000000000000000000000000000000000000000000000000082526004820152fd5b604051907faa1d49a40000000000000000000000000000000000000000000000000000000082526004820152fd5b9091508481813d8311612218575b612208818361250d565b810103126104015751908861205b565b503d6121fe565b9050817f360894a13ba1a3210667c828492db98dca3e2076cc3735a920a3ca505d382bbc5416141587612015565b346104015760607ffffffffffffffffffffffffffffffffffffffffffffffffffffffffffffffffc36011261040157612284612490565b61228c6124b3565b5f546040517f2d5e94a700000000000000000000000000000000000000000000000000000000815273ffffffffffffffffffffffffffffffffffffffff84811660048301528381166024830152602094919285908490604490829085165afa908115611e795785935f926123a2575b506040517f4aa0665200000000000000000000000000000000000000000000000000000000815273ffffffffffffffffffffffffffffffffffffffff938416600482015294909216602485015260448035908501528391829081606481015b0392165afa908115611e79575f916123755750604051908152f35b90508181813d831161239b575b61238c818361250d565b81010312610401575182611ce5565b503d612382565b8481959293503d83116123d8575b6123ba818361250d565b810103126104015761235a936123d08694612626565b9190946122fb565b503d6123b0565b34610401575f7ffffffffffffffffffffffffffffffffffffffffffffffffffffffffffffffffc36011261040157602073ffffffffffffffffffffffffffffffffffffffff5f5416604051908152f35b34610401575f7ffffffffffffffffffffffffffffffffffffffffffffffffffffffffffffffffc3601126104015760209067ffffffffffffffff7ff0c57e16840df040f15088dc2f81fe391c3923bec73e23a9662efc9c229c6a0054168152f35b6004359073ffffffffffffffffffffffffffffffffffffffff8216820361040157565b6024359073ffffffffffffffffffffffffffffffffffffffff8216820361040157565b6044359073ffffffffffffffffffffffffffffffffffffffff8216820361040157565b67ffffffffffffffff811161115957604052565b90601f7fffffffffffffffffffffffffffffffffffffffffffffffffffffffffffffffe0910116810190811067ffffffffffffffff82111761115957604052565b67ffffffffffffffff811161115957601f017fffffffffffffffffffffffffffffffffffffffffffffffffffffffffffffffe01660200190565b7ffffffffffffffffffffffffffffffffffffffffffffffffffffffffffffffffc60809101126104015773ffffffffffffffffffffffffffffffffffffffff9060043582811681036104015791602435818116810361040157916044359160643590811681036104015790565b9181601f840112156104015782359167ffffffffffffffff8311610401576020808501948460051b01011161040157565b519073ffffffffffffffffffffffffffffffffffffffff8216820361040157565b1561264e57565b60646040517f08c379a000000000000000000000000000000000000000000000000000000000815260206004820152602060248201527f416d6f756e74206d7573742062652067726561746572207468616e207a65726f6044820152fd5b5190811515820361040157565b67ffffffffffffffff81116111595760051b60200190565b60209081818403126104015780519067ffffffffffffffff821161040157019180601f84011215610401578251612707816126b9565b93612715604051958661250d565b818552838086019260051b820101928311610401578301905b82821061273c575050505090565b83809161274884612626565b81520191019061272e565b80518210156127675760209160051b010190565b7f4e487b71000000000000000000000000000000000000000000000000000000005f52603260045260245ffd5b9080601f83011215610401578151906020916127af816126b9565b936127bd604051958661250d565b81855260208086019260051b82010192831161040157602001905b8282106127e6575050505090565b815181529083019083016127d8565b91908110156127675760051b0190565b3573ffffffffffffffffffffffffffffffffffffffff811681036104015790565b73ffffffffffffffffffffffffffffffffffffffff8091169081156128b7577f9016d09d72d40fdae2fd8ceac6b6234c7706214fd39c1cd1e609a0528c199300805490837fffffffffffffffffffffffff00000000000000000000000000000000000000008316179055167f8be0079c531659141344cd1fd0a4f28419497f9722a3daafe3b4186f6b6457e05f80a3565b60246040517f1e4fbdf70000000000000000000000000000000000000000000000000000000081525f6004820152fd5b73ffffffffffffffffffffffffffffffffffffffff7f9016d09d72d40fdae2fd8ceac6b6234c7706214fd39c1cd1e609a0528c1993005416330361292757565b60246040517f118cdaa7000000000000000000000000000000000000000000000000000000008152336004820152fd5b60ff7ff0c57e16840df040f15088dc2f81fe391c3923bec73e23a9662efc9c229c6a005460401c161561298657565b60046040517fd7e6bcf8000000000000000000000000000000000000000000000000000000008152fd5b906129ef57508051156129c557805190602001fd5b60046040517f1425ea42000000000000000000000000000000000000000000000000000000008152fd5b81511580612a47575b612a00575090565b60249073ffffffffffffffffffffffffffffffffffffffff604051917f9996b315000000000000000000000000000000000000000000000000000000008352166004820152fd5b50803b156129f856fea26469706673582212200ec7e8bb3d6a4f670c0394f9e33e291f679d898bfaaedf6d861b011084df30e164736f6c63430008190033",
  "linkReferences": {},
  "deployedLinkReferences": {}
}