{
  "_format": "hh-sol-artifact-1",
  "contractName": "BaluniV1PoolPeriphery",
  "sourceName": "contracts/BaluniV1PoolPeriphery.sol",
  "abi": [
    {
      "inputs": [
        {
          "internalType": "address",
          "name": "target",
          "type": "address"
        }
      ],
      "name": "AddressEmptyCode",
      "type": "error"
    },
    {
      "inputs": [
        {
          "internalType": "address",
          "name": "implementation",
          "type": "address"
        }
      ],
      "name": "ERC1967InvalidImplementation",
      "type": "error"
    },
    {
      "inputs": [],
      "name": "ERC1967NonPayable",
      "type": "error"
    },
    {
      "inputs": [],
      "name": "FailedInnerCall",
      "type": "error"
    },
    {
      "inputs": [],
      "name": "InvalidInitialization",
      "type": "error"
    },
    {
      "inputs": [],
      "name": "NotInitializing",
      "type": "error"
    },
    {
      "inputs": [
        {
          "internalType": "address",
          "name": "owner",
          "type": "address"
        }
      ],
      "name": "OwnableInvalidOwner",
      "type": "error"
    },
    {
      "inputs": [
        {
          "internalType": "address",
          "name": "account",
          "type": "address"
        }
      ],
      "name": "OwnableUnauthorizedAccount",
      "type": "error"
    },
    {
      "inputs": [],
      "name": "UUPSUnauthorizedCallContext",
      "type": "error"
    },
    {
      "inputs": [
        {
          "internalType": "bytes32",
          "name": "slot",
          "type": "bytes32"
        }
      ],
      "name": "UUPSUnsupportedProxiableUUID",
      "type": "error"
    },
    {
      "anonymous": false,
      "inputs": [
        {
          "indexed": false,
          "internalType": "uint64",
          "name": "version",
          "type": "uint64"
        }
      ],
      "name": "Initialized",
      "type": "event"
    },
    {
      "anonymous": false,
      "inputs": [
        {
          "indexed": true,
          "internalType": "address",
          "name": "previousOwner",
          "type": "address"
        },
        {
          "indexed": true,
          "internalType": "address",
          "name": "newOwner",
          "type": "address"
        }
      ],
      "name": "OwnershipTransferred",
      "type": "event"
    },
    {
      "anonymous": false,
      "inputs": [
        {
          "indexed": true,
          "internalType": "address",
          "name": "implementation",
          "type": "address"
        }
      ],
      "name": "Upgraded",
      "type": "event"
    },
    {
      "inputs": [],
      "name": "UPGRADE_INTERFACE_VERSION",
      "outputs": [
        {
          "internalType": "string",
          "name": "",
          "type": "string"
        }
      ],
      "stateMutability": "view",
      "type": "function"
    },
    {
      "inputs": [
        {
          "internalType": "uint256[]",
          "name": "amounts",
          "type": "uint256[]"
        },
        {
          "internalType": "address",
          "name": "poolAddress",
          "type": "address"
        },
        {
          "internalType": "address",
          "name": "receiver",
          "type": "address"
        }
      ],
      "name": "addLiquidity",
      "outputs": [],
      "stateMutability": "nonpayable",
      "type": "function"
    },
    {
      "inputs": [
        {
          "internalType": "address[]",
          "name": "fromTokens",
          "type": "address[]"
        },
        {
          "internalType": "address[]",
          "name": "toTokens",
          "type": "address[]"
        },
        {
          "internalType": "uint256[]",
          "name": "amounts",
          "type": "uint256[]"
        },
        {
          "internalType": "address[]",
          "name": "receivers",
          "type": "address[]"
        }
      ],
      "name": "batchSwap",
      "outputs": [
        {
          "internalType": "uint256[]",
          "name": "",
          "type": "uint256[]"
        }
      ],
      "stateMutability": "nonpayable",
      "type": "function"
    },
    {
      "inputs": [
        {
          "internalType": "address",
          "name": "_poolFactory",
          "type": "address"
        }
      ],
      "name": "changePoolFactory",
      "outputs": [],
      "stateMutability": "nonpayable",
      "type": "function"
    },
    {
      "inputs": [
        {
          "internalType": "address",
          "name": "fromToken",
          "type": "address"
        },
        {
          "internalType": "address",
          "name": "toToken",
          "type": "address"
        },
        {
          "internalType": "uint256",
          "name": "amount",
          "type": "uint256"
        }
      ],
      "name": "getAmountOut",
      "outputs": [
        {
          "internalType": "uint256",
          "name": "",
          "type": "uint256"
        }
      ],
      "stateMutability": "view",
      "type": "function"
    },
    {
      "inputs": [
        {
          "internalType": "address",
          "name": "pool",
          "type": "address"
        },
        {
          "internalType": "address",
          "name": "asset",
          "type": "address"
        }
      ],
      "name": "getAssetReserve",
      "outputs": [
        {
          "internalType": "uint256",
          "name": "",
          "type": "uint256"
        }
      ],
      "stateMutability": "view",
      "type": "function"
    },
    {
      "inputs": [
        {
          "internalType": "address",
          "name": "token",
          "type": "address"
        }
      ],
      "name": "getPoolsContainingToken",
      "outputs": [
        {
          "internalType": "address[]",
          "name": "",
          "type": "address[]"
        }
      ],
      "stateMutability": "view",
      "type": "function"
    },
    {
      "inputs": [
        {
          "internalType": "address",
          "name": "pool",
          "type": "address"
        }
      ],
      "name": "getReserves",
      "outputs": [
        {
          "internalType": "uint256[]",
          "name": "",
          "type": "uint256[]"
        }
      ],
      "stateMutability": "view",
      "type": "function"
    },
    {
      "inputs": [],
      "name": "getVersion",
      "outputs": [
        {
          "internalType": "uint64",
          "name": "",
          "type": "uint64"
        }
      ],
      "stateMutability": "view",
      "type": "function"
    },
    {
      "inputs": [
        {
          "internalType": "address",
          "name": "_poolFactory",
          "type": "address"
        }
      ],
      "name": "initialize",
      "outputs": [],
      "stateMutability": "nonpayable",
      "type": "function"
    },
    {
      "inputs": [],
      "name": "owner",
      "outputs": [
        {
          "internalType": "address",
          "name": "",
          "type": "address"
        }
      ],
      "stateMutability": "view",
      "type": "function"
    },
    {
      "inputs": [
        {
          "internalType": "address",
          "name": "poolAddress",
          "type": "address"
        }
      ],
      "name": "performRebalanceIfNeeded",
      "outputs": [],
      "stateMutability": "nonpayable",
      "type": "function"
    },
    {
      "inputs": [],
      "name": "poolFactory",
      "outputs": [
        {
          "internalType": "contract IBaluniV1PoolFactory",
          "name": "",
          "type": "address"
        }
      ],
      "stateMutability": "view",
      "type": "function"
    },
    {
      "inputs": [
        {
          "internalType": "address",
          "name": "",
          "type": "address"
        },
        {
          "internalType": "address",
          "name": "",
          "type": "address"
        }
      ],
      "name": "poolsReserves",
      "outputs": [
        {
          "internalType": "uint256",
          "name": "",
          "type": "uint256"
        }
      ],
      "stateMutability": "view",
      "type": "function"
    },
    {
      "inputs": [],
      "name": "proxiableUUID",
      "outputs": [
        {
          "internalType": "bytes32",
          "name": "",
          "type": "bytes32"
        }
      ],
      "stateMutability": "view",
      "type": "function"
    },
    {
      "inputs": [
        {
          "internalType": "address",
          "name": "poolAddress",
          "type": "address"
        },
        {
          "internalType": "address",
          "name": "receiver",
          "type": "address"
        }
      ],
      "name": "rebalanceWeights",
      "outputs": [],
      "stateMutability": "nonpayable",
      "type": "function"
    },
    {
      "inputs": [
        {
          "internalType": "address",
          "name": "_poolFactory",
          "type": "address"
        },
        {
          "internalType": "uint64",
          "name": "version",
          "type": "uint64"
        }
      ],
      "name": "reinitialize",
      "outputs": [],
      "stateMutability": "nonpayable",
      "type": "function"
    },
    {
      "inputs": [
        {
          "internalType": "uint256",
          "name": "share",
          "type": "uint256"
        },
        {
          "internalType": "address",
          "name": "poolAddress",
          "type": "address"
        },
        {
          "internalType": "address",
          "name": "receiver",
          "type": "address"
        }
      ],
      "name": "removeLiquidity",
      "outputs": [],
      "stateMutability": "nonpayable",
      "type": "function"
    },
    {
      "inputs": [],
      "name": "renounceOwnership",
      "outputs": [],
      "stateMutability": "nonpayable",
      "type": "function"
    },
    {
      "inputs": [
        {
          "internalType": "address",
          "name": "fromToken",
          "type": "address"
        },
        {
          "internalType": "address",
          "name": "toToken",
          "type": "address"
        },
        {
          "internalType": "uint256",
          "name": "amount",
          "type": "uint256"
        },
        {
          "internalType": "address",
          "name": "receiver",
          "type": "address"
        }
      ],
      "name": "smartSwap",
      "outputs": [
        {
          "internalType": "uint256",
          "name": "",
          "type": "uint256"
        }
      ],
      "stateMutability": "nonpayable",
      "type": "function"
    },
    {
      "inputs": [
        {
          "internalType": "address",
          "name": "fromToken",
          "type": "address"
        },
        {
          "internalType": "address",
          "name": "toToken",
          "type": "address"
        },
        {
          "internalType": "uint256",
          "name": "amount",
          "type": "uint256"
        },
        {
          "internalType": "address",
          "name": "receiver",
          "type": "address"
        }
      ],
      "name": "swap",
      "outputs": [
        {
          "internalType": "uint256",
          "name": "",
          "type": "uint256"
        }
      ],
      "stateMutability": "nonpayable",
      "type": "function"
    },
    {
      "inputs": [
        {
          "internalType": "address",
          "name": "newOwner",
          "type": "address"
        }
      ],
      "name": "transferOwnership",
      "outputs": [],
      "stateMutability": "nonpayable",
      "type": "function"
    },
    {
      "inputs": [
        {
          "internalType": "address",
          "name": "newImplementation",
          "type": "address"
        },
        {
          "internalType": "bytes",
          "name": "data",
          "type": "bytes"
        }
      ],
      "name": "upgradeToAndCall",
      "outputs": [],
      "stateMutability": "payable",
      "type": "function"
    }
  ],
  "bytecode": "0x60a0806040523460295730608052612aa1908161002e8239608051818181611c430152611d1f0152f35b5f80fdfe608060409080825260049081361015610016575f80fd5b5f3560e01c9081630d8e6e2c1461208b575080633e99c1e41461205a5780634056c37f146111525780634219dc40146120335780634aa0665214611efb5780634f1ef28614611ca757806352d1902d14611c2f5780635568081a146119d25780636e81221c14611770578063715018a61461170957806372591be5146116c75780637442eca6146112ad5780638da5cb5b146112795780638f2248bc1461119b578063a3e113fb14611152578063ad3cb1cc146110d2578063ad41426314610f31578063ae3cce1c14610e81578063c4d66de814610d45578063e74e9b061461086b578063ec0cd2eb14610691578063f2fde38b146106685763f31abcc41461011d575f80fd5b3461046e57606036600319011261046e578035906101396120d0565b6101416120e6565b8315610625578451636eb1769f60e11b815233848201908152306020828101919091526001600160a01b039490939092838616928590829081906040010381865afa801561061b5788915f916105ea575b50106105ae5787516370a0823160e01b8082523388830152976024969186818981885afa801561049f5782905f9061057d575b6101d1925010156123ae565b89516323b872dd60e01b8152338982019081523060208201526040810183905287908290819060600103815f895af190811561049f575f91610560575b501561052857895163a9059cbb60e01b8082526001600160a01b0390961689820190815260208101929092529086908290819060400103815f885af19081156104cd575f9161050b575b50156104d757885163226bf2d160e21b815282821688820152925f84888183855af19384156104cd575f946104a9575b5089516319f92b0b60e21b8152905f828a81845afa91821561049f575f9261047b575b505f5b8251811015610479578b888b8b8e886102c7878a6122d7565b511694519485938492835230908301525afa908115610402575f91610448575b506102f282886122d7565b511161040c578b8886888d5f8c61037a610352898d61034a828f8f6103438f8f61031d8f87906122d7565b51938d5260018152818d20908861033488886122d7565b51168e52528b20918254612473565b90556122d7565b5116966122d7565b519751978896879586948552840160209093929193604081019460018060a01b031681520152565b03925af1908115610402575f916103d5575b501561039a576001016102ae565b508a5162461bcd60e51b8152808a018890526015818a015274105cdcd95d081d1c985b9cd9995c8819985a5b1959605a1b6044820152606490fd5b6103f59150893d8b116103fb575b6103ed8183612137565b8101906124cb565b5f61038c565b503d6103e3565b8d513d5f823e3d90fd5b508a5162461bcd60e51b8152808a018890526016818a015275496e73756666696369656e74204c697175696469747960501b6044820152606490fd5b90508881813d8311610472575b61045f8183612137565b8101031261046e57515f6102e7565b5f80fd5b503d610455565b005b6104989192503d805f833e6104908183612137565b810190612224565b905f6102ab565b8b513d5f823e3d90fd5b6104c69194503d805f833e6104be8183612137565b8101906124e3565b925f610288565b8a513d5f823e3d90fd5b885162461bcd60e51b8152808801869052600f818801526e151c985b9cd9995c8819985a5b1959608a1b6044820152606490fd5b6105229150863d88116103fb576103ed8183612137565b5f610258565b895162461bcd60e51b815280890187905260138189015272151c985b9cd9995c919c9bdb4819985a5b1959606a1b6044820152606490fd5b6105779150873d89116103fb576103ed8183612137565b5f61020e565b50508681813d83116105a7575b6105948183612137565b8101031261046e57816101d191516101c5565b503d61058a565b875162461bcd60e51b81528087018590526016602482015275496e73756666696369656e7420616c6c6f77616e636560501b6044820152606490fd5b809250868092503d8311610614575b6106038183612137565b8101031261046e578790515f610192565b503d6105f9565b89513d5f823e3d90fd5b845162461bcd60e51b8152602081850152601f60248201527f5368617265206d7573742062652067726561746572207468616e207a65726f006044820152606490fd5b3461046e57602036600319011261046e576104796106846120ba565b61068c6125a0565b61252f565b503461046e57606036600319011261046e5780356001600160401b03811161046e576106c090369083016121c9565b916106c96120d0565b6106d16120e6565b85516319f92b0b60e21b815290946001600160a01b039283169290915f818681875afa908115610861575f91610847575b505f5b81518110156107bc57805f8a8561071f61078395876122d7565b511661072c84898d61250b565b35908984528a6020948594600186528082208483528652808220610751868254612452565b9055516323b872dd60e01b81523392810192835230602084015260408301949094529296879384929091839160600190565b03925af192831561049f5760019361079e575b505001610705565b816107b492903d106103fb576103ed8183612137565b505f80610796565b885163de836ebd60e01b815283891681880152602481018a905260448101859052898886886001600160fb1b03821161046e57845f606482602096819660051b80918484013781010301925af190811561083e575061081757005b602090813d8311610837575b61082d8183612137565b8101031261046e57005b503d610823565b513d5f823e3d90fd5b61085b91503d805f833e6104908183612137565b5f610702565b88513d5f823e3d90fd5b503461046e57608036600319011261046e576001600160401b03813581811161046e5761089b90369084016121c9565b91909260243582811161046e576108b590369083016121c9565b92909160443582811161046e576108cf90369083016121c9565b91909260643590811161046e576108e990369083016121c9565b86889392931480610d3c575b80610d33575b15610cf057610909886122a5565b985f5b898110610924578b51806109208d826120fc565b0390f35b80888b8e87866109728f878f918f6109466109ad9c61094e926109679661250b565b351515612480565b61096c6109678360018060a01b039a8b5f54169861250b565b61251b565b9861250b565b8351632d5e94a760e01b81526001600160a01b0396871693810193845295166020838101919091529496859288929183918291604090910190565b03915afa90811561083e578a8f88938e985f91610c91575b50878793876109e261096784610a1b9e97846109e998169b61250b565b169361250b565b83516323b872dd60e01b815233818e01908152306020820152913560408301529889929183915f918391606090910190565b03925af18015610c69578f8f8f908f8f938f918f948f9d908f610a4f8f8f9b968197938d83978496610c73575b505061250b565b610a589061251b565b96610a629261250b565b610a6b9061251b565b96610a759261250b565b359b610a809261250b565b610a899061251b565b8551631ba0488760e21b81526001600160a01b039283169381019384529382166020840152604083019a909a52909816606089015296879081906080010381855a905f91f1928315610c69578f8f918f928f938f938f978f968f968f915f9c610c01575b610bbe9f508e610b8a978f9e9d9c9b9994978f8f908e610b7c915f9f9a9b879c6109679e610b228a610b839d6109679d61250b565b35905f8390528d610b406109678d600197888a525f8b90209561250b565b165f5284525f85610b549120918254612452565b90555f5281528f829020908a610b6e6109678a8a8a61250b565b165f52528e20918254612473565b905561250b565b169761250b565b925163a9059cbb60e01b81526001600160a01b03909316908301908152602081019490945290968793849291839160400190565b03925af1928315610bf757600193610bd9575b50500161090c565b81610bef92903d106103fb576103ed8183612137565b505f80610bd1565b8e513d5f823e3d90fd5b5050509b975050505094505050508281813d8311610c62575b610c248183612137565b8101031261046e578f94858f8f8f938f958f8f968f94998f918f94938e8e9d8196938f8395519850509794999b9c9d929350979499959d5050610aed565b503d610c1a565b50513d5f823e3d90fd5b81610c8992903d106103fb576103ed8183612137565b508d5f610a48565b985050505050508184813d8311610ce9575b610cad8183612137565b8101031261046e57848f838f6109e9878f928f906109e2610967848b93610a1b9f610cd88691612210565b985050979e505050505093506109c5565b503d610ca3565b895162461bcd60e51b8152602081840152601c60248201527f496e70757420617272617973206c656e677468206d69736d61746368000000006044820152606490fd5b508084146108fb565b508387146108f5565b503461046e57602036600319011261046e57610d5f6120ba565b905f80516020612a4c83398151915291825460ff81861c1615926001600160401b03821680159081610e79575b6001149081610e6f575b159081610e66575b50610e58575067ffffffffffffffff198116600117845582610e39575b50610dc461299a565b610dcc61299a565b610dd461299a565b610ddd3361252f565b60018060a01b03166bffffffffffffffffffffffff60a01b5f5416175f55610e0157005b805460ff60401b1916905551600181527fc7f505b2f371ae2175ee4913f4499e1f2633a7b5936321eed1cdaeb6115181d290602090a1005b68ffffffffffffffffff1916680100000000000000011783555f610dbb565b855163f92ee8a960e01b8152fd5b9050155f610d9e565b303b159150610d96565b859150610d8c565b503461046e576020908160031936011261046e576024925f610ea16120ba565b81548351635a1a073560e11b81526001600160a01b039283169581019590955290958491829088165afa918215610c69575f92610f15575b50918251928180850191818652845180935285019301915f5b828110610eff5785850386f35b8351871685529381019392810192600101610ef2565b610f2a9192503d805f833e6104908183612137565b905f610ed9565b503461046e578160031936011261046e57610f4a6120ba565b610f526120d0565b8351630723c99960e01b81526001600160a01b0382811685830152929091908316905f8360248183865af19283156110c8575f936110ac575b5085516319f92b0b60e21b8152925f848781865afa9384156110a2575f94611086575b505f5b84518110156104795780610fc861104d92846122d7565b51855f52602090600182528a5f2089610fe1858b6122d7565b51165f528252610ff58b5f20918254612452565b9055808a89611004858b6122d7565b51168b5f611012878a6122d7565b5193516323b872dd60e01b81526001600160a01b038b1692810192835230602084015260408301949094529296879384929091839160600190565b03925af19283156104cd57600193611068575b505001610fb1565b8161107e92903d106103fb576103ed8183612137565b505f80611060565b61109b9194503d805f833e6104908183612137565b925f610fae565b87513d5f823e3d90fd5b6110c19193503d805f833e6104be8183612137565b915f610f8b565b86513d5f823e3d90fd5b50903461046e575f36600319011261046e57805191818301908382106001600160401b0383111761113f57508152600582526020820191640352e302e360dc1b83528151928391602083525180918160208501528484015e5f828201840152601f01601f19168101030190f35b604190634e487b7160e01b5f525260245ffd5b823461046e578060031936011261046e5760209061116e6120ba565b6111766120d0565b9060018060a01b038091165f5260018452825f2091165f528252805f20549051908152f35b50903461046e578060031936011261046e576111b56120ba565b91602435926001600160401b039081851680950361046e575f80516020612a4c833981519152928354928660ff85881c1691821561126c575b505061125e575f80546001600160a01b0319166001600160a01b03841617905568ffffffffffffffffff1983168617680100000000000000001760ff60401b1916845584518681527fc7f505b2f371ae2175ee4913f4499e1f2633a7b5936321eed1cdaeb6115181d290602090a1005b845163f92ee8a960e01b8152fd5b851610159050865f6111ee565b823461046e575f36600319011261046e575f80516020612a2c8339815191525490516001600160a01b039091168152602090f35b50903461046e576112d86112c036612187565b959190809394916112d2821515612480565b856125e6565b948551156116935784516323b872dd60e01b81523383820190815230602082810191909152604082018690526001600160a01b039790959092909186908290819060600103815f8c8c165af180156116895761166c575b5094915f945b88518610156116655787611349878b6122d7565b5116938351986319f92b0b60e21b8a525f8a8881895afa998a1561152c578b905f9b61163d575b508161137f8a611386936122d7565b51166122ff565b995f9a5f5b825181101561162c578361139f82856122d7565b5116848616141580611619575b6113b85760010161138b565b9050829b506113cf919a969594999a9793976122d7565b5116905b8982169081156115d6578451630b2b55d760e41b81528881018390526024908a818381865afa9081156110a2579088915f916115a5575b5010611554578c515f1981019190821161154257508387928b928d145f1461153657895f8c6114758a5b8c519d8e9788968795631ba0488760e21b875286019293606092919594608085019660018060a01b0393848092168752166020860152604085015216910152565b03925af195861561152c578a8d8b938e935f9a6114ec575b50908291600198999a9b856114a56114c596856122d7565b51165f528996878152868d5f2092165f52526103438b5f20918254612452565b51165f528852845f20905f528752835f206114e1868254612473565b905593960194611335565b94935096979850505081813d8311611525575b6115098183612137565b8101031261046e575194939288908b908b908e906114c561148d565b503d6114ff565b85513d5f823e3d90fd5b895f8c61147530611434565b634e487b7160e01b5f90815260118b52fd5b8860276084928c89519362461bcd60e51b85528401528201527f496e73756666696369656e74206c697175696469747920696e20706f6f6c206660448201526606f7220737761760cc1b6064820152fd5b8092508c8092503d83116115cf575b6115be8183612137565b8101031261046e578790515f61140a565b503d6115b4565b845162461bcd60e51b81528089018a9052601960248201527f4e6f2076616c6964206e65787420746f6b656e20666f756e64000000000000006044820152606490fd5b5061162481836122d7565b5115156113ac565b5050509890949793929196976113d3565b611386919b5061137f8a61165b85933d805f833e6104908183612137565b9d93505050611370565b8251878152f35b61168290863d88116103fb576103ed8183612137565b505f61132f565b83513d5f823e3d90fd5b845162461bcd60e51b8152602081840152600e60248201526d139bc81c9bdd5d1948199bdd5b9960921b6044820152606490fd5b3461046e57602036600319011261046e576116e06120ba565b6116e86125a0565b5f80546001600160a01b0319166001600160a01b0392909216919091179055005b3461046e575f36600319011261046e576117216125a0565b5f80516020612a2c83398151915280546001600160a01b031981169091555f906001600160a01b03167f8be0079c531659141344cd1fd0a4f28419497f9722a3daafe3b4186f6b6457e08280a3005b503461046e5761177f36612187565b61178d829693921515612480565b5f548351632d5e94a760e01b81526001600160a01b038681168289019081528582166020828101919091529893919291899183918516908290819060400103915afa9081156110c8579082915f9161199a575b5086516323b872dd60e01b815233858201908152306020820152604081018c9052848a169992909316928a908290819060600103815f8d5af18015610861578b928b92899261197d575b508951631ba0488760e21b81526001600160a01b039182168882019081529282166020840152604083019d909d52871660608201528b90819060800103815f865af19788156110a257899a5f9a989961193d575b509282611900989795928b97955f95865260018a528b862090865289526118a98b8620918254612452565b905583526001875288832094169384835286528782206118ca868254612473565b9055875163a9059cbb60e01b81526001600160a01b03909316908301908152602081019490945290948593849291839160400190565b03925af1801561193357611916575b5051908152f35b61192c90843d86116103fb576103ed8183612137565b505f61190f565b82513d5f823e3d90fd5b80939795929a5088919694983d8311611976575b61195b8183612137565b8101031261046e57905197899693959294919392915f61187e565b503d611951565b61199390843d86116103fb576103ed8183612137565b505f61182a565b809250898092503d83116119cb575b6119b38183612137565b8101031261046e576119c58291612210565b5f6117e0565b503d6119a9565b503461046e576020918260031936011261046e576001600160a01b0391826119f86120ba565b169180516370a0823160e01b815233838201528581602481875afa908115611933575f91611c02575b5081516318160ddd60e01b81529086828581885afa918215611689575f92611bd3575b5061271090818102918183041490151715611bc0578115611bad57611a6e916064910410156123ae565b8051631e8f68bd60e31b8152915f83828183885af1958615611933575f935f97611b52575b505f835180936319f92b0b60e21b825281885afa918215611689575f92611b36575b505f5b82518110156104795780611ace600192876122d7565b51875f528290818552865f208a611ae585896122d7565b51165f528552611af9875f20918254612452565b9055611b05828b6122d7565b5190885f528452855f2089611b1a84886122d7565b51165f528452611b2e865f20918254612473565b905501611ab8565b611b4b9192503d805f833e6104908183612137565b905f611ab5565b935095503d805f853e611b658185612137565b830192828185031261046e578051936001600160401b039485811161046e5781611b909184016123f1565b948883015190811161046e57611ba692016123f1565b955f611a93565b601284634e487b7160e01b5f525260245ffd5b601184634e487b7160e01b5f525260245ffd5b9091508681813d8311611bfb575b611beb8183612137565b8101031261046e5751905f611a44565b503d611be1565b90508581813d8311611c28575b611c198183612137565b8101031261046e57515f611a21565b503d611c0f565b50903461046e575f36600319011261046e577f00000000000000000000000000000000000000000000000000000000000000006001600160a01b03163003611c9a57602090517f360894a13ba1a3210667c828492db98dca3e2076cc3735a920a3ca505d382bbc8152f35b5163703e46dd60e11b8152fd5b508160031936011261046e57611cbb6120ba565b60249283356001600160401b03811161046e573660238201121561046e5780840135611ce68161216c565b93611cf384519586612137565b818552602091828601933689838301011161046e57815f928a8693018737870101526001600160a01b037f00000000000000000000000000000000000000000000000000000000000000008116308114908115611ecd575b50611ebd57611d586125a0565b81169484516352d1902d60e01b8152838189818a5afa5f9181611e8e575b50611d915750505050505191634c9c8ce360e01b8352820152fd5b9087878794938b7f360894a13ba1a3210667c828492db98dca3e2076cc3735a920a3ca505d382bbc91828103611e795750853b15611e65575080546001600160a01b031916821790558451907fbc7cd75a20ee27fd9adebab32041f755214dbc6bffa90cc0225b39da2e5c2d3b5f80a2825115611e4b5750505f6104799581925190845af4913d15611e41573d611e33611e2a8261216c565b92519283612137565b81525f81943d92013e6129c8565b50606092506129c8565b9450945050505034611e5957005b63b398979f60e01b8152fd5b8651634c9c8ce360e01b8152808501849052fd5b8751632a87526960e21b815280860191909152fd5b9091508481813d8311611eb6575b611ea68183612137565b8101031261046e5751905f611d76565b503d611e9c565b845163703e46dd60e11b81528790fd5b9050817f360894a13ba1a3210667c828492db98dca3e2076cc3735a920a3ca505d382bbc541614155f611d4b565b503461046e57606036600319011261046e57611f156120ba565b91611f1e6120d0565b5f548251632d5e94a760e01b81526001600160a01b03868116828701908152818516602082810191909152979196949293889185918916908290819060400103915afa92831561152c579087949392915f93611ff6575b508551632550332960e11b81526001600160a01b0391821694810194855291166020840152604435604084015294859283919082906060015b0392165afa918215610c69575f92611fc7575051908152f35b9091508281813d8311611fef575b611fdf8183612137565b8101031261046e5751905f61190f565b503d611fd5565b8581969294503d831161202c575b61200e8183612137565b8101031261046e57611fae956120248895612210565b929096611f75565b503d612004565b823461046e575f36600319011261046e575f5490516001600160a01b039091168152602090f35b823461046e57602036600319011261046e576109209061208061207b6120ba565b6122ff565b9051918291826120fc565b3461046e575f36600319011261046e576020906001600160401b035f80516020612a4c83398151915254168152f35b600435906001600160a01b038216820361046e57565b602435906001600160a01b038216820361046e57565b604435906001600160a01b038216820361046e57565b60209060206040818301928281528551809452019301915f5b828110612123575050505090565b835185529381019392810192600101612115565b90601f801991011681019081106001600160401b0382111761215857604052565b634e487b7160e01b5f52604160045260245ffd5b6001600160401b03811161215857601f01601f191660200190565b608090600319011261046e576001600160a01b0390600435828116810361046e5791602435818116810361046e579160443591606435908116810361046e5790565b9181601f8401121561046e578235916001600160401b03831161046e576020808501948460051b01011161046e57565b6001600160401b0381116121585760051b60200190565b51906001600160a01b038216820361046e57565b602090818184031261046e578051906001600160401b03821161046e57019180601f8401121561046e578251612259816121f9565b936122676040519586612137565b818552838086019260051b82010192831161046e578301905b82821061228e575050505090565b83809161229a84612210565b815201910190612280565b906122af826121f9565b6122bc6040519182612137565b82815280926122cd601f19916121f9565b0190602036910137565b80518210156122eb5760209160051b010190565b634e487b7160e01b5f52603260045260245ffd5b604080516319f92b0b60e21b81529092916001600160a01b0390811691905f82600481865afa9182156123a3575f92612387575b5061233e82516122a5565b925f5b835181101561237e57600190825f526020828152885f20908561236484896122d7565b51165f5252875f205461237782886122d7565b5201612341565b50929450505050565b61239c9192503d805f833e6104908183612137565b905f612333565b6040513d5f823e3d90fd5b156123b557565b60405162461bcd60e51b8152602060048201526014602482015273496e73756666696369656e742062616c616e636560601b6044820152606490fd5b9080601f8301121561046e5781519060209161240c816121f9565b9361241a6040519586612137565b81855260208086019260051b82010192831161046e57602001905b828210612443575050505090565b81518152908301908301612435565b9190820180921161245f57565b634e487b7160e01b5f52601160045260245ffd5b9190820391821161245f57565b1561248757565b606460405162461bcd60e51b815260206004820152602060248201527f416d6f756e74206d7573742062652067726561746572207468616e207a65726f6044820152fd5b9081602091031261046e5751801515810361046e5790565b9060208282031261046e5781516001600160401b03811161046e5761250892016123f1565b90565b91908110156122eb5760051b0190565b356001600160a01b038116810361046e5790565b6001600160a01b03908116908115612588575f80516020612a2c83398151915280546001600160a01b031981168417909155167f8be0079c531659141344cd1fd0a4f28419497f9722a3daafe3b4186f6b6457e05f80a3565b604051631e4fbdf760e01b81525f6004820152602490fd5b5f80516020612a2c833981519152546001600160a01b031633036125c057565b60405163118cdaa760e01b8152336004820152602490fd5b5f19811461245f5760010190565b5f8054604051633623fc7d60e21b81526001600160a01b039290918290600490829086165afa9081156123a3575f91612819575b50805193612627856122a5565b915f93612633876121f9565b926126416040519485612137565b878452601f19612650896121f9565b01366020860137612660886122a5565b965f6001918951156122eb57841660208a01525b8181106126ac575050505050505050505050604051602081018181106001600160401b03821117612158576040525f81525f36813790565b836126c06126b9836125d8565b928b6122d7565b511684841681146127d2575f5b8b81106126db575050612674565b6126e581896122d7565b51156126f4575b6001016126cd565b856126ff82896122d7565b516040516319f92b0b60e21b815291165f82600481845afa9081156123a3578f85935f936127b6575b50836127348185612833565b92836127a4575b50505061274a575b50506126ec565b9061275491612913565b8661275f838a6122d7565b511661276a8c6125d8565b9b612775908c6122d7565b52868c612781876125d8565b9661278b916122d7565b9116905261279981896122d7565b60019052815f612743565b6127ae9350612873565b8f835f61273b565b6127cb9193503d805f833e6104908183612137565b915f612728565b5050505094505050935091506127e7826122a5565b925f5b8381106127f8575050505090565b8083612806600193856122d7565b511661281282886122d7565b52016127ea565b61282d91503d805f833e6104908183612137565b5f61261a565b905f5b825181101561286c576001600160a01b038061285283866122d7565b51169083161461286457600101612836565b505050600190565b5050505f90565b600492916001600160a01b03918216915f61288d846122ff565b93604051968780926319f92b0b60e21b82525afa9485156123a3575f956128f7575b505f5b85518110156128ed57816128c682886122d7565b5116828416146128d8576001016128b2565b929150506128e79293506122d7565b51101590565b5050505050505f90565b61290c9195503d805f833e6104908183612137565b935f6128af565b905f5b8251811015612955576001600160a01b038061293283866122d7565b5116818416036129455750600101612916565b9261295092506122d7565b511690565b60405162461bcd60e51b815260206004820152601760248201527f546f6b656e206e6f7420666f756e6420696e20706f6f6c0000000000000000006044820152606490fd5b60ff5f80516020612a4c8339815191525460401c16156129b657565b604051631afcd79f60e31b8152600490fd5b906129ef57508051156129dd57805190602001fd5b604051630a12f52160e11b8152600490fd5b81511580612a22575b612a00575090565b604051639996b31560e01b81526001600160a01b039091166004820152602490fd5b50803b156129f856fe9016d09d72d40fdae2fd8ceac6b6234c7706214fd39c1cd1e609a0528c199300f0c57e16840df040f15088dc2f81fe391c3923bec73e23a9662efc9c229c6a00a2646970667358221220f93321bd283b573c98e6f0d3447a3d37c9284424177399acfc7c02ffd6a0014c64736f6c63430008190033",
  "linkReferences": {},
  "deployedLinkReferences": {}
}