{
  "_format": "hh-sol-artifact-1",
  "contractName": "BaluniV1PoolPeriphery",
  "sourceName": "contracts/BaluniV1PoolPeriphery.sol",
  "abi": [
    {
      "inputs": [
        {
          "internalType": "address",
          "name": "target",
          "type": "address"
        }
      ],
      "name": "AddressEmptyCode",
      "type": "error"
    },
    {
      "inputs": [
        {
          "internalType": "address",
          "name": "implementation",
          "type": "address"
        }
      ],
      "name": "ERC1967InvalidImplementation",
      "type": "error"
    },
    {
      "inputs": [],
      "name": "ERC1967NonPayable",
      "type": "error"
    },
    {
      "inputs": [],
      "name": "FailedInnerCall",
      "type": "error"
    },
    {
      "inputs": [],
      "name": "InvalidInitialization",
      "type": "error"
    },
    {
      "inputs": [],
      "name": "NotInitializing",
      "type": "error"
    },
    {
      "inputs": [
        {
          "internalType": "address",
          "name": "owner",
          "type": "address"
        }
      ],
      "name": "OwnableInvalidOwner",
      "type": "error"
    },
    {
      "inputs": [
        {
          "internalType": "address",
          "name": "account",
          "type": "address"
        }
      ],
      "name": "OwnableUnauthorizedAccount",
      "type": "error"
    },
    {
      "inputs": [],
      "name": "UUPSUnauthorizedCallContext",
      "type": "error"
    },
    {
      "inputs": [
        {
          "internalType": "bytes32",
          "name": "slot",
          "type": "bytes32"
        }
      ],
      "name": "UUPSUnsupportedProxiableUUID",
      "type": "error"
    },
    {
      "anonymous": false,
      "inputs": [
        {
          "indexed": false,
          "internalType": "uint64",
          "name": "version",
          "type": "uint64"
        }
      ],
      "name": "Initialized",
      "type": "event"
    },
    {
      "anonymous": false,
      "inputs": [
        {
          "indexed": true,
          "internalType": "address",
          "name": "previousOwner",
          "type": "address"
        },
        {
          "indexed": true,
          "internalType": "address",
          "name": "newOwner",
          "type": "address"
        }
      ],
      "name": "OwnershipTransferred",
      "type": "event"
    },
    {
      "anonymous": false,
      "inputs": [
        {
          "indexed": true,
          "internalType": "address",
          "name": "implementation",
          "type": "address"
        }
      ],
      "name": "Upgraded",
      "type": "event"
    },
    {
      "inputs": [],
      "name": "UPGRADE_INTERFACE_VERSION",
      "outputs": [
        {
          "internalType": "string",
          "name": "",
          "type": "string"
        }
      ],
      "stateMutability": "view",
      "type": "function"
    },
    {
      "inputs": [
        {
          "internalType": "uint256[]",
          "name": "amounts",
          "type": "uint256[]"
        },
        {
          "internalType": "address",
          "name": "poolAddress",
          "type": "address"
        },
        {
          "internalType": "address",
          "name": "receiver",
          "type": "address"
        }
      ],
      "name": "addLiquidity",
      "outputs": [],
      "stateMutability": "nonpayable",
      "type": "function"
    },
    {
      "inputs": [
        {
          "internalType": "uint256",
          "name": "amount",
          "type": "uint256"
        },
        {
          "internalType": "address",
          "name": "token",
          "type": "address"
        },
        {
          "internalType": "address",
          "name": "poolAddress",
          "type": "address"
        },
        {
          "internalType": "address",
          "name": "receiver",
          "type": "address"
        }
      ],
      "name": "addLiquidityOneSide",
      "outputs": [],
      "stateMutability": "nonpayable",
      "type": "function"
    },
    {
      "inputs": [
        {
          "internalType": "address[]",
          "name": "fromTokens",
          "type": "address[]"
        },
        {
          "internalType": "address[]",
          "name": "toTokens",
          "type": "address[]"
        },
        {
          "internalType": "uint256[]",
          "name": "amounts",
          "type": "uint256[]"
        },
        {
          "internalType": "address[]",
          "name": "receivers",
          "type": "address[]"
        }
      ],
      "name": "batchSwap",
      "outputs": [
        {
          "internalType": "uint256[]",
          "name": "",
          "type": "uint256[]"
        }
      ],
      "stateMutability": "nonpayable",
      "type": "function"
    },
    {
      "inputs": [
        {
          "internalType": "address",
          "name": "_poolFactory",
          "type": "address"
        }
      ],
      "name": "changePoolFactory",
      "outputs": [],
      "stateMutability": "nonpayable",
      "type": "function"
    },
    {
      "inputs": [
        {
          "internalType": "address",
          "name": "fromToken",
          "type": "address"
        },
        {
          "internalType": "address",
          "name": "toToken",
          "type": "address"
        },
        {
          "internalType": "uint256",
          "name": "amount",
          "type": "uint256"
        }
      ],
      "name": "getAmountOut",
      "outputs": [
        {
          "internalType": "uint256",
          "name": "",
          "type": "uint256"
        }
      ],
      "stateMutability": "view",
      "type": "function"
    },
    {
      "inputs": [
        {
          "internalType": "address",
          "name": "token",
          "type": "address"
        }
      ],
      "name": "getPoolsContainingToken",
      "outputs": [
        {
          "internalType": "address[]",
          "name": "",
          "type": "address[]"
        }
      ],
      "stateMutability": "view",
      "type": "function"
    },
    {
      "inputs": [],
      "name": "getVersion",
      "outputs": [
        {
          "internalType": "uint64",
          "name": "",
          "type": "uint64"
        }
      ],
      "stateMutability": "view",
      "type": "function"
    },
    {
      "inputs": [
        {
          "internalType": "address",
          "name": "_poolFactory",
          "type": "address"
        }
      ],
      "name": "initialize",
      "outputs": [],
      "stateMutability": "nonpayable",
      "type": "function"
    },
    {
      "inputs": [],
      "name": "owner",
      "outputs": [
        {
          "internalType": "address",
          "name": "",
          "type": "address"
        }
      ],
      "stateMutability": "view",
      "type": "function"
    },
    {
      "inputs": [
        {
          "internalType": "address",
          "name": "poolAddress",
          "type": "address"
        }
      ],
      "name": "performRebalanceIfNeeded",
      "outputs": [],
      "stateMutability": "nonpayable",
      "type": "function"
    },
    {
      "inputs": [],
      "name": "poolFactory",
      "outputs": [
        {
          "internalType": "contract IBaluniV1PoolFactory",
          "name": "",
          "type": "address"
        }
      ],
      "stateMutability": "view",
      "type": "function"
    },
    {
      "inputs": [],
      "name": "proxiableUUID",
      "outputs": [
        {
          "internalType": "bytes32",
          "name": "",
          "type": "bytes32"
        }
      ],
      "stateMutability": "view",
      "type": "function"
    },
    {
      "inputs": [
        {
          "internalType": "address",
          "name": "_poolFactory",
          "type": "address"
        },
        {
          "internalType": "uint64",
          "name": "version",
          "type": "uint64"
        }
      ],
      "name": "reinitialize",
      "outputs": [],
      "stateMutability": "nonpayable",
      "type": "function"
    },
    {
      "inputs": [
        {
          "internalType": "uint256",
          "name": "share",
          "type": "uint256"
        },
        {
          "internalType": "address",
          "name": "poolAddress",
          "type": "address"
        },
        {
          "internalType": "address",
          "name": "receiver",
          "type": "address"
        }
      ],
      "name": "removeLiquidity",
      "outputs": [],
      "stateMutability": "nonpayable",
      "type": "function"
    },
    {
      "inputs": [],
      "name": "renounceOwnership",
      "outputs": [],
      "stateMutability": "nonpayable",
      "type": "function"
    },
    {
      "inputs": [
        {
          "internalType": "address",
          "name": "fromToken",
          "type": "address"
        },
        {
          "internalType": "address",
          "name": "toToken",
          "type": "address"
        },
        {
          "internalType": "uint256",
          "name": "amount",
          "type": "uint256"
        },
        {
          "internalType": "address",
          "name": "receiver",
          "type": "address"
        }
      ],
      "name": "smartSwap",
      "outputs": [
        {
          "internalType": "uint256",
          "name": "",
          "type": "uint256"
        }
      ],
      "stateMutability": "nonpayable",
      "type": "function"
    },
    {
      "inputs": [
        {
          "internalType": "address",
          "name": "fromToken",
          "type": "address"
        },
        {
          "internalType": "address",
          "name": "toToken",
          "type": "address"
        },
        {
          "internalType": "uint256",
          "name": "amount",
          "type": "uint256"
        },
        {
          "internalType": "address",
          "name": "receiver",
          "type": "address"
        }
      ],
      "name": "swap",
      "outputs": [
        {
          "internalType": "uint256",
          "name": "",
          "type": "uint256"
        }
      ],
      "stateMutability": "nonpayable",
      "type": "function"
    },
    {
      "inputs": [
        {
          "internalType": "address",
          "name": "newOwner",
          "type": "address"
        }
      ],
      "name": "transferOwnership",
      "outputs": [],
      "stateMutability": "nonpayable",
      "type": "function"
    },
    {
      "inputs": [
        {
          "internalType": "address",
          "name": "newImplementation",
          "type": "address"
        },
        {
          "internalType": "bytes",
          "name": "data",
          "type": "bytes"
        }
      ],
      "name": "upgradeToAndCall",
      "outputs": [],
      "stateMutability": "payable",
      "type": "function"
    }
  ],
  "bytecode": "0x60a0806040523460295730608052612cb7908161002e8239608051818181611ed40152611ff50152f35b5f80fdfe6080806040526004361015610012575f80fd5b5f905f3560e01c9081630d8e6e2c14612660575080633ea049771461243a5780634219dc40146123ea5780634aa06652146122585780634f1ef28614611f4e57806352d1902d14611e8f5780635568081a14611dde5780636e81221c14611b2e578063715018a614611a7057806372591be5146119f05780637442eca61461135c5780638da5cb5b146112eb5780638f2248bc14611191578063ad3cb1cc146110a2578063ae3cce1c14610fa3578063c4d66de814610daf578063e74e9b0614610794578063ec0cd2eb1461055a578063f2fde38b1461050f5763f31abcc4146100fa575f80fd5b346102cf5760607ffffffffffffffffffffffffffffffffffffffffffffffffffffffffffffffffc3601126102cf57600435906101356126c1565b9161013e6126e4565b81156104b1576040517fdd62ed3e00000000000000000000000000000000000000000000000000000000815233600482015230602482015260209473ffffffffffffffffffffffffffffffffffffffff8082169490929091908781604481895afa908115610417579083918891610480575b5010610422576040517f70a082310000000000000000000000000000000000000000000000000000000081523360048201528781602481895afa9081156104175790839188916103e2575b5010610384576040517f23b872dd00000000000000000000000000000000000000000000000000000000815233600482015273ffffffffffffffffffffffffffffffffffffffff9190911660248201526044810191909152858160648188885af1908115610379578591610340575b50156102e257839450823b156102dd57602484928360405195869485937f89afcb440000000000000000000000000000000000000000000000000000000085521660048401525af180156102d2576102bf5750f35b6102c89061272a565b6102cf5780f35b80fd5b6040513d84823e3d90fd5b505050fd5b606485604051907f08c379a00000000000000000000000000000000000000000000000000000000082526004820152600f60248201527f5472616e73666572206661696c656400000000000000000000000000000000006044820152fd5b90508581813d8311610372575b610357818361273e565b8101031261036e5761036890612953565b5f61026a565b8480fd5b503d61034d565b6040513d87823e3d90fd5b606487604051907f08c379a00000000000000000000000000000000000000000000000000000000082526004820152601460248201527f496e73756666696369656e742062616c616e63650000000000000000000000006044820152fd5b809250898092503d8311610410575b6103fb818361273e565b8101031261040c578290515f6101fb565b5f80fd5b503d6103f1565b6040513d89823e3d90fd5b606487604051907f08c379a00000000000000000000000000000000000000000000000000000000082526004820152601660248201527f496e73756666696369656e7420616c6c6f77616e6365000000000000000000006044820152fd5b809250898092503d83116104aa575b610499818361273e565b8101031261040c578290515f6101b0565b503d61048f565b60646040517f08c379a000000000000000000000000000000000000000000000000000000000815260206004820152601f60248201527f5368617265206d7573742062652067726561746572207468616e207a65726f006044820152fd5b50346102cf5760207ffffffffffffffffffffffffffffffffffffffffffffffffffffffffffffffffc3601126102cf5761055761054a612707565b610552612b18565b612a57565b80f35b50346102cf5760607ffffffffffffffffffffffffffffffffffffffffffffffffffffffffffffffffc3601126102cf5760043567ffffffffffffffff8111610790576105aa903690600401612826565b90916105b46126c1565b6105bc6126e4565b9273ffffffffffffffffffffffffffffffffffffffff808316604051907f67e4ac2c0000000000000000000000000000000000000000000000000000000082528582600481845afa918215610785578692610761575b50855b82518110156106f157836106298285612912565b511661063682878c612a26565b6040517f23b872dd00000000000000000000000000000000000000000000000000000000815233600482015273ffffffffffffffffffffffffffffffffffffffff8916602482015290356044820152906020908190839060649082908d905af180156106e6576106ab575b5050600101610615565b81813d83116106df575b6106bf818361273e565b810103126106db57906106d3600192612953565b50905f6106a1565b8780fd5b503d6106b5565b6040513d8b823e3d90fd5b6040517f6a6278420000000000000000000000000000000000000000000000000000000081528885166004820152879060208160248185885af180156102d257610739575080f35b602090813d831161075a575b61074f818361273e565b8101031261040c5780f35b503d610745565b61077e9192503d8088833e610776818361273e565b810190612890565b905f610612565b6040513d88823e3d90fd5b5080fd5b50346102cf5760807ffffffffffffffffffffffffffffffffffffffffffffffffffffffffffffffffc3601126102cf5767ffffffffffffffff600435818111610dab576107e5903690600401612826565b909160243581811161036e576107ff903690600401612826565b91604435818111610da757610818903690600401612826565b90916064359081116106db57610832903690600401612826565b9285871480610d9e575b80610d95575b15610d375761085687999798969598612857565b97610864604051998a61273e565b8989527fffffffffffffffffffffffffffffffffffffffffffffffffffffffffffffffe06108918b612857565b013660208b013787995b808b106108e8578989604051918291602083016020845282518091526020604085019301915b8181106108cf575050500390f35b82518452859450602093840193909201916001016108c1565b8a89602061098a73ffffffffffffffffffffffffffffffffffffffff839f8d9f9e9c9d81886109319261092c8f610936968f9161092492612a26565b351515612960565b612a26565b612a36565b16610942858b8a612a26565b6040517f23b872dd0000000000000000000000000000000000000000000000000000000081523360048201523060248201529035604482015293849283919082906064820190565b03925af19081156106e65782848b8f938e95610cc0575b50610931836109d6610931610a3798966020989673ffffffffffffffffffffffffffffffffffffffff6109dd97541697612a26565b948a612a26565b6040517f2d5e94a700000000000000000000000000000000000000000000000000000000815273ffffffffffffffffffffffffffffffffffffffff9384166004820152921660248301529092839190829081906044820190565b03915afa9081156106e65782848e8c938495610c52575b50610a77610931602094610adb9473ffffffffffffffffffffffffffffffffffffffff94612a26565b16610a83868c8b612a26565b6040517f095ea7b300000000000000000000000000000000000000000000000000000000815273ffffffffffffffffffffffffffffffffffffffff871660048201529035602482015293849283919082906044820190565b03925af18015610c4757848e8592610c02575b610af89350612a26565b610b0190612a36565b90610b0d838c87612a26565b610b1690612a36565b610b21848a89612a26565b3590610b2e858c8b612a26565b610b3790612a36565b6040517f6e81221c00000000000000000000000000000000000000000000000000000000815273ffffffffffffffffffffffffffffffffffffffff95861660048201529185166024830152604482019290925290831660648201529116816084818c5a94602095f19081156106e6578991610bca575b5090600191610bbc828d612912565b52019a50989695979861089b565b919850506020813d602011610bfa575b81610be76020938361273e565b8101031261040c57518b97906001610bad565b3d9150610bda565b5050506020813d602011610c3f575b81610c1e6020938361273e565b81010312610c3b5782848e610c35610af894612953565b50610aee565b8980fd5b3d9150610c11565b6040513d8c823e3d90fd5b9450505050506020813d602011610cb8575b81610c716020938361273e565b81010312610cb457886020610adb73ffffffffffffffffffffffffffffffffffffffff8f946109318789610ca7610a779461286f565b9894509450945050610a4e565b8880fd5b3d9150610c64565b9450505050506020813d602011610d2f575b81610cdf6020938361273e565b81010312610cb45760208a8d6109dd610931866109d68f828b73ffffffffffffffffffffffffffffffffffffffff61093193610d1d610a379d612953565b509750509698505050509395506109a1565b3d9150610cd2565b60646040517f08c379a000000000000000000000000000000000000000000000000000000000815260206004820152601c60248201527f496e70757420617272617973206c656e677468206d69736d61746368000000006044820152fd5b50838314610842565b5082861461083c565b8680fd5b8280fd5b50346102cf5760207ffffffffffffffffffffffffffffffffffffffffffffffffffffffffffffffffc3601126102cf57610de7612707565b7ff0c57e16840df040f15088dc2f81fe391c3923bec73e23a9662efc9c229c6a0090815460ff8160401c16159167ffffffffffffffff821680159081610f9b575b6001149081610f91575b159081610f88575b50610f5e57818360017fffffffffffffffffffffffffffffffffffffffffffffffff000000000000000073ffffffffffffffffffffffffffffffffffffffff9516178655610f29575b50610e8c612b88565b610e94612b88565b610e9c612b88565b610ea533612a57565b167fffffffffffffffffffffffff0000000000000000000000000000000000000000845416178355610ed5575080f35b7fffffffffffffffffffffffffffffffffffffffffffffff00ffffffffffffffff81541690557fc7f505b2f371ae2175ee4913f4499e1f2633a7b5936321eed1cdaeb6115181d2602060405160018152a180f35b7fffffffffffffffffffffffffffffffffffffffffffffff00000000000000000016680100000000000000011784555f610e83565b60046040517ff92ee8a9000000000000000000000000000000000000000000000000000000008152fd5b9050155f610e3a565b303b159150610e32565b849150610e28565b50346102cf576020807ffffffffffffffffffffffffffffffffffffffffffffffffffffffffffffffffc36011261079057610fdc612707565b73ffffffffffffffffffffffffffffffffffffffff9280846024818354169460405195869384927fb4340e6a0000000000000000000000000000000000000000000000000000000084521660048301525afa918215611095578192611079575b506040519280840190808552835180925280604086019401925b8281106110635785850386f35b8351871685529381019392810192600101611056565b61108e9192503d8084833e610776818361273e565b905f61103c565b50604051903d90823e3d90fd5b50346102cf57807ffffffffffffffffffffffffffffffffffffffffffffffffffffffffffffffffc3601126102cf57604051604081019080821067ffffffffffffffff831117611164576040918252600581527fffffffffffffffffffffffffffffffffffffffffffffffffffffffffffffffe0601f602083017f352e302e3000000000000000000000000000000000000000000000000000000081528451958694602086525180928160208801528787015e85828601015201168101030190f35b7f4e487b71000000000000000000000000000000000000000000000000000000005f52604160045260245ffd5b50346102cf5760407ffffffffffffffffffffffffffffffffffffffffffffffffffffffffffffffffc3601126102cf576111c9612707565b6024359067ffffffffffffffff918281168091036112e7577ff0c57e16840df040f15088dc2f81fe391c3923bec73e23a9662efc9c229c6a008054938260ff8660401c169182156112da575b5050610f5e577fffffffffffffffffffffffffffffffffffffffffffffff00ffffffffffffffff68010000000000000000837fffffffffffffffffffffffffffffffffffffffffffffff0000000000000000007fc7f505b2f371ae2175ee4913f4499e1f2633a7b5936321eed1cdaeb6115181d29773ffffffffffffffffffffffffffffffffffffffff602098167fffffffffffffffffffffffff00000000000000000000000000000000000000005f5416175f55161717169055604051908152a180f35b861610159050825f611215565b8380fd5b50346102cf57807ffffffffffffffffffffffffffffffffffffffffffffffffffffffffffffffffc3601126102cf57602073ffffffffffffffffffffffffffffffffffffffff7f9016d09d72d40fdae2fd8ceac6b6234c7706214fd39c1cd1e609a0528c1993005416604051908152f35b50346102cf57602461136d366127b9565b61137c82959493921515612960565b8573ffffffffffffffffffffffffffffffffffffffff815416604051958680927fb4340e6a00000000000000000000000000000000000000000000000000000000825273ffffffffffffffffffffffffffffffffffffffff881660048301525afa9384156107855786946119d4575b5090939185908190815b865184101561172e5773ffffffffffffffffffffffffffffffffffffffff61141d8589612912565b511697604051957f89ab35320000000000000000000000000000000000000000000000000000000087528a876004818d5afa968715611723578b97611654575b506004949596978b8b604051978880927f36bf6e390000000000000000000000000000000000000000000000000000000082525afa958615611649578c96611602575b508b5b8c8a518210156115ee57602460408e8151928380927fd14ef46d0000000000000000000000000000000000000000000000000000000082528760048301525afa9182156115e2579161157a575b5073ffffffffffffffffffffffffffffffffffffffff8088169151161461151a575b6001016114a3565b6115248188612912565b5161152f828c612912565b51151580611571575b611543575b50611512565b97509350600173ffffffffffffffffffffffffffffffffffffffff6115688a8d612912565b5116949061153d565b50888111611538565b90506040813d6040116115da575b816115956040938361273e565b810103126115d657604051906040820182811067ffffffffffffffff821117611164576040526115c48161286f565b8252602080910151908201525f6114f0565b8d80fd5b3d9150611588565b604051903d90823e3d90fd5b50929a509750956001019493506113f59050565b9095503d808d833e611614818361273e565b810160408282031261164557602082015167ffffffffffffffff81116115d65761163e92016129c5565b945f6114a0565b8c80fd5b6040513d8e823e3d90fd5b949596503d94858c823e611668868261273e565b604081878101031261171f5780519567ffffffffffffffff968781116115d657820191818101601f840112156115d6578251926020906116a785612857565b946116b5604051968761273e565b808652828087019160051b8301019185850183116117195783809101915b83831061170157505050508101519788116115d6576004976116f892820191016129c5565b5096959461145d565b819061170c84612953565b81520191019083906116d3565b50508f80fd5b8b80fd5b6040513d8d823e3d90fd5b888686928a73ffffffffffffffffffffffffffffffffffffffff821615611976576040517f23b872dd000000000000000000000000000000000000000000000000000000008152336004820152306024820152604481018490526020816064818873ffffffffffffffffffffffffffffffffffffffff8c165af180156103795761193d575b506040517f095ea7b300000000000000000000000000000000000000000000000000000000815273ffffffffffffffffffffffffffffffffffffffff8316600482015260248101849052602081806044810103818873ffffffffffffffffffffffffffffffffffffffff8c165af18015610379576118e5575b506040517f6e81221c00000000000000000000000000000000000000000000000000000000815273ffffffffffffffffffffffffffffffffffffffff9687166004820152908616602482015260448101929092529284166064820152929091602091849160849183918691165af19081156115e257906118b2575b602090604051908152f35b506020813d6020116118dd575b816118cc6020938361273e565b8101031261040c57602090516118a7565b3d91506118bf565b6020813d602011611935575b816118fe6020938361273e565b8101031261036e579373ffffffffffffffffffffffffffffffffffffffff81969761192a602097612953565b50979695505061182c565b3d91506118f1565b6020813d60201161196e575b816119566020938361273e565b8101031261036e5761196790612953565b50866117b3565b3d9150611949565b60646040517f08c379a000000000000000000000000000000000000000000000000000000000815260206004820152601660248201527f4e6f207375697461626c6520706f6f6c20666f756e64000000000000000000006044820152fd5b6119e99194503d8088833e610776818361273e565b925f6113eb565b50346102cf5760207ffffffffffffffffffffffffffffffffffffffffffffffffffffffffffffffffc3601126102cf5773ffffffffffffffffffffffffffffffffffffffff611a3d612707565b611a45612b18565b167fffffffffffffffffffffffff00000000000000000000000000000000000000005f5416175f5580f35b50346102cf57807ffffffffffffffffffffffffffffffffffffffffffffffffffffffffffffffffc3601126102cf57611aa7612b18565b5f73ffffffffffffffffffffffffffffffffffffffff7f9016d09d72d40fdae2fd8ceac6b6234c7706214fd39c1cd1e609a0528c1993008054907fffffffffffffffffffffffff000000000000000000000000000000000000000082169055167f8be0079c531659141344cd1fd0a4f28419497f9722a3daafe3b4186f6b6457e08280a380f35b50346102cf57611b3d366127b9565b91611b4c829594951515612960565b83546040517f2d5e94a700000000000000000000000000000000000000000000000000000000815273ffffffffffffffffffffffffffffffffffffffff8781166004830152838116602483015260209791939290919088908590604490829086165afa938415610417578794611da7575b506040517f23b872dd000000000000000000000000000000000000000000000000000000008152336004820152306024820152604481018690528282169089816064818c865af180156106e657611d73575b506040517f095ea7b300000000000000000000000000000000000000000000000000000000815273ffffffffffffffffffffffffffffffffffffffff8616600482015260248101879052908990829060449082908c905af18015611d6857918996959493918993611d26575b506040517f6e81221c00000000000000000000000000000000000000000000000000000000815273ffffffffffffffffffffffffffffffffffffffff9182166004820152938116602485015260448401959095529590931660648201529384926084928492165af19182156115e25791611cf9575b50604051908152f35b90508181813d8311611d1f575b611d10818361273e565b8101031261040c57515f611cf0565b503d611d06565b878193959697989294503d8311611d61575b611d42818361273e565b810103126106db57918791611d5a8a97969594612953565b505f611c7b565b503d611d38565b6040513d8a823e3d90fd5b8981813d8311611da0575b611d88818361273e565b81010312610cb457611d9990612953565b505f611c0f565b503d611d7e565b9093508781813d8311611dd7575b611dbf818361273e565b81010312610da757611dd09061286f565b925f611bbd565b503d611db5565b503461040c5760207ffffffffffffffffffffffffffffffffffffffffffffffffffffffffffffffffc36011261040c5773ffffffffffffffffffffffffffffffffffffffff611e2b612707565b16803b1561040c575f80916024604051809481937f5568081a0000000000000000000000000000000000000000000000000000000083523360048401525af18015611e8457611e78575080f35b611e82915061272a565b005b6040513d5f823e3d90fd5b3461040c575f7ffffffffffffffffffffffffffffffffffffffffffffffffffffffffffffffffc36011261040c5773ffffffffffffffffffffffffffffffffffffffff7f0000000000000000000000000000000000000000000000000000000000000000163003611f245760206040517f360894a13ba1a3210667c828492db98dca3e2076cc3735a920a3ca505d382bbc8152f35b60046040517fe07c8dba000000000000000000000000000000000000000000000000000000008152fd5b60407ffffffffffffffffffffffffffffffffffffffffffffffffffffffffffffffffc36011261040c57611f80612707565b602490813567ffffffffffffffff811161040c573660238201121561040c578060040135611fad8161277f565b92611fbb604051948561273e565b818452602091828501933687838301011161040c57815f928886930187378601015273ffffffffffffffffffffffffffffffffffffffff807f00000000000000000000000000000000000000000000000000000000000000001680301490811561222a575b50611f245761202d612b18565b8116936040517f52d1902d0000000000000000000000000000000000000000000000000000000081528381600481895afa5f91816121fb575b5061209b578686604051907f4c9c8ce30000000000000000000000000000000000000000000000000000000082526004820152fd5b8590877f360894a13ba1a3210667c828492db98dca3e2076cc3735a920a3ca505d382bbc918281036121cd5750843b1561219e5750817fffffffffffffffffffffffff0000000000000000000000000000000000000000825416179055604051907fbc7cd75a20ee27fd9adebab32041f755214dbc6bffa90cc0225b39da2e5c2d3b5f80a281511561216a57505f611e829481925190845af4903d15612161573d6121458161277f565b90612153604051928361273e565b81525f81943d92013e612be1565b60609250612be1565b93505050503461217657005b807fb398979f0000000000000000000000000000000000000000000000000000000060049252fd5b82604051907f4c9c8ce30000000000000000000000000000000000000000000000000000000082526004820152fd5b604051907faa1d49a40000000000000000000000000000000000000000000000000000000082526004820152fd5b9091508481813d8311612223575b612213818361273e565b8101031261040c57519088612066565b503d612209565b9050817f360894a13ba1a3210667c828492db98dca3e2076cc3735a920a3ca505d382bbc5416141587612020565b3461040c5760607ffffffffffffffffffffffffffffffffffffffffffffffffffffffffffffffffc36011261040c5761228f612707565b6122976126c1565b5f546040517f2d5e94a700000000000000000000000000000000000000000000000000000000815273ffffffffffffffffffffffffffffffffffffffff84811660048301528381166024830152602094919285908490604490829085165afa908115611e845785935f926123ad575b506040517f4aa0665200000000000000000000000000000000000000000000000000000000815273ffffffffffffffffffffffffffffffffffffffff938416600482015294909216602485015260448035908501528391829081606481015b0392165afa908115611e84575f916123805750604051908152f35b90508181813d83116123a6575b612397818361273e565b8101031261040c575182611cf0565b503d61238d565b8481959293503d83116123e3575b6123c5818361273e565b8101031261040c57612365936123db869461286f565b919094612306565b503d6123bb565b3461040c575f7ffffffffffffffffffffffffffffffffffffffffffffffffffffffffffffffffc36011261040c57602073ffffffffffffffffffffffffffffffffffffffff5f5416604051908152f35b3461040c5760807ffffffffffffffffffffffffffffffffffffffffffffffffffffffffffffffffc36011261040c576004356124746126c1565b61247c6126e4565b6064359073ffffffffffffffffffffffffffffffffffffffff9081831680930361040c57818116604051927f67e4ac2c0000000000000000000000000000000000000000000000000000000084525f84600481855afa938415611e84575f94612644575b505f9581169387875b82518110156126375786846124fe8386612912565b51161461250d576001016124e9565b92509495965050915b6040517f23b872dd00000000000000000000000000000000000000000000000000000000815233600482015273ffffffffffffffffffffffffffffffffffffffff9190911660248201526044810196909652602095938690859060649082905f905af1938415611e845786946125f9575b50905f60649260405196879586947f3bb9339d0000000000000000000000000000000000000000000000000000000086526004860152602485015260448401525af18015611e84576125d557005b813d83116125f2575b6125e8818361273e565b8101031261040c57005b503d6125de565b9384819392933d8311612630575b612611818361273e565b8101031261040c575f6064926126278896612953565b50919250612587565b503d612607565b5094959693915050612516565b6126599194503d805f833e610776818361273e565b92876124e0565b3461040c575f7ffffffffffffffffffffffffffffffffffffffffffffffffffffffffffffffffc36011261040c5760209067ffffffffffffffff7ff0c57e16840df040f15088dc2f81fe391c3923bec73e23a9662efc9c229c6a0054168152f35b6024359073ffffffffffffffffffffffffffffffffffffffff8216820361040c57565b6044359073ffffffffffffffffffffffffffffffffffffffff8216820361040c57565b6004359073ffffffffffffffffffffffffffffffffffffffff8216820361040c57565b67ffffffffffffffff811161116457604052565b90601f7fffffffffffffffffffffffffffffffffffffffffffffffffffffffffffffffe0910116810190811067ffffffffffffffff82111761116457604052565b67ffffffffffffffff811161116457601f017fffffffffffffffffffffffffffffffffffffffffffffffffffffffffffffffe01660200190565b7ffffffffffffffffffffffffffffffffffffffffffffffffffffffffffffffffc608091011261040c5773ffffffffffffffffffffffffffffffffffffffff90600435828116810361040c5791602435818116810361040c579160443591606435908116810361040c5790565b9181601f8401121561040c5782359167ffffffffffffffff831161040c576020808501948460051b01011161040c57565b67ffffffffffffffff81116111645760051b60200190565b519073ffffffffffffffffffffffffffffffffffffffff8216820361040c57565b602090818184031261040c5780519067ffffffffffffffff821161040c57019180601f8401121561040c5782516128c681612857565b936128d4604051958661273e565b818552838086019260051b82010192831161040c578301905b8282106128fb575050505090565b8380916129078461286f565b8152019101906128ed565b80518210156129265760209160051b010190565b7f4e487b71000000000000000000000000000000000000000000000000000000005f52603260045260245ffd5b5190811515820361040c57565b1561296757565b60646040517f08c379a000000000000000000000000000000000000000000000000000000000815260206004820152602060248201527f416d6f756e74206d7573742062652067726561746572207468616e207a65726f6044820152fd5b9080601f8301121561040c578151906020916129e081612857565b936129ee604051958661273e565b81855260208086019260051b82010192831161040c57602001905b828210612a17575050505090565b81518152908301908301612a09565b91908110156129265760051b0190565b3573ffffffffffffffffffffffffffffffffffffffff8116810361040c5790565b73ffffffffffffffffffffffffffffffffffffffff809116908115612ae8577f9016d09d72d40fdae2fd8ceac6b6234c7706214fd39c1cd1e609a0528c199300805490837fffffffffffffffffffffffff00000000000000000000000000000000000000008316179055167f8be0079c531659141344cd1fd0a4f28419497f9722a3daafe3b4186f6b6457e05f80a3565b60246040517f1e4fbdf70000000000000000000000000000000000000000000000000000000081525f6004820152fd5b73ffffffffffffffffffffffffffffffffffffffff7f9016d09d72d40fdae2fd8ceac6b6234c7706214fd39c1cd1e609a0528c19930054163303612b5857565b60246040517f118cdaa7000000000000000000000000000000000000000000000000000000008152336004820152fd5b60ff7ff0c57e16840df040f15088dc2f81fe391c3923bec73e23a9662efc9c229c6a005460401c1615612bb757565b60046040517fd7e6bcf8000000000000000000000000000000000000000000000000000000008152fd5b90612c205750805115612bf657805190602001fd5b60046040517f1425ea42000000000000000000000000000000000000000000000000000000008152fd5b81511580612c78575b612c31575090565b60249073ffffffffffffffffffffffffffffffffffffffff604051917f9996b315000000000000000000000000000000000000000000000000000000008352166004820152fd5b50803b15612c2956fea2646970667358221220d3ca0a72ac660e1eb1b372e23b186f342d61a252e5eca765182a010a878c8c4864736f6c63430008190033",
  "linkReferences": {},
  "deployedLinkReferences": {}
}