{
  "_format": "hh-sol-artifact-1",
  "contractName": "BaluniV1PoolPeriphery",
  "sourceName": "contracts/BaluniV1PoolPeriphery.sol",
  "abi": [
    {
      "inputs": [
        {
          "internalType": "address",
          "name": "target",
          "type": "address"
        }
      ],
      "name": "AddressEmptyCode",
      "type": "error"
    },
    {
      "inputs": [
        {
          "internalType": "address",
          "name": "implementation",
          "type": "address"
        }
      ],
      "name": "ERC1967InvalidImplementation",
      "type": "error"
    },
    {
      "inputs": [],
      "name": "ERC1967NonPayable",
      "type": "error"
    },
    {
      "inputs": [],
      "name": "FailedInnerCall",
      "type": "error"
    },
    {
      "inputs": [],
      "name": "InvalidInitialization",
      "type": "error"
    },
    {
      "inputs": [],
      "name": "NotInitializing",
      "type": "error"
    },
    {
      "inputs": [
        {
          "internalType": "address",
          "name": "owner",
          "type": "address"
        }
      ],
      "name": "OwnableInvalidOwner",
      "type": "error"
    },
    {
      "inputs": [
        {
          "internalType": "address",
          "name": "account",
          "type": "address"
        }
      ],
      "name": "OwnableUnauthorizedAccount",
      "type": "error"
    },
    {
      "inputs": [],
      "name": "UUPSUnauthorizedCallContext",
      "type": "error"
    },
    {
      "inputs": [
        {
          "internalType": "bytes32",
          "name": "slot",
          "type": "bytes32"
        }
      ],
      "name": "UUPSUnsupportedProxiableUUID",
      "type": "error"
    },
    {
      "anonymous": false,
      "inputs": [
        {
          "indexed": false,
          "internalType": "uint64",
          "name": "version",
          "type": "uint64"
        }
      ],
      "name": "Initialized",
      "type": "event"
    },
    {
      "anonymous": false,
      "inputs": [
        {
          "indexed": true,
          "internalType": "address",
          "name": "previousOwner",
          "type": "address"
        },
        {
          "indexed": true,
          "internalType": "address",
          "name": "newOwner",
          "type": "address"
        }
      ],
      "name": "OwnershipTransferred",
      "type": "event"
    },
    {
      "anonymous": false,
      "inputs": [
        {
          "indexed": true,
          "internalType": "address",
          "name": "implementation",
          "type": "address"
        }
      ],
      "name": "Upgraded",
      "type": "event"
    },
    {
      "inputs": [],
      "name": "UPGRADE_INTERFACE_VERSION",
      "outputs": [
        {
          "internalType": "string",
          "name": "",
          "type": "string"
        }
      ],
      "stateMutability": "view",
      "type": "function"
    },
    {
      "inputs": [],
      "name": "_BPS_BASE",
      "outputs": [
        {
          "internalType": "uint256",
          "name": "",
          "type": "uint256"
        }
      ],
      "stateMutability": "view",
      "type": "function"
    },
    {
      "inputs": [],
      "name": "_BPS_FEE",
      "outputs": [
        {
          "internalType": "uint256",
          "name": "",
          "type": "uint256"
        }
      ],
      "stateMutability": "view",
      "type": "function"
    },
    {
      "inputs": [],
      "name": "_MAX_BPS_FEE",
      "outputs": [
        {
          "internalType": "uint256",
          "name": "",
          "type": "uint256"
        }
      ],
      "stateMutability": "view",
      "type": "function"
    },
    {
      "inputs": [
        {
          "internalType": "uint256[]",
          "name": "amounts",
          "type": "uint256[]"
        },
        {
          "internalType": "address",
          "name": "poolAddress",
          "type": "address"
        },
        {
          "internalType": "address",
          "name": "receiver",
          "type": "address"
        }
      ],
      "name": "addLiquidity",
      "outputs": [],
      "stateMutability": "nonpayable",
      "type": "function"
    },
    {
      "inputs": [
        {
          "internalType": "address[]",
          "name": "fromTokens",
          "type": "address[]"
        },
        {
          "internalType": "address[]",
          "name": "toTokens",
          "type": "address[]"
        },
        {
          "internalType": "uint256[]",
          "name": "amounts",
          "type": "uint256[]"
        },
        {
          "internalType": "address[]",
          "name": "receivers",
          "type": "address[]"
        }
      ],
      "name": "batchSwap",
      "outputs": [
        {
          "internalType": "uint256[]",
          "name": "",
          "type": "uint256[]"
        }
      ],
      "stateMutability": "nonpayable",
      "type": "function"
    },
    {
      "inputs": [
        {
          "internalType": "uint256",
          "name": "_newFee",
          "type": "uint256"
        }
      ],
      "name": "changeBpsFee",
      "outputs": [],
      "stateMutability": "nonpayable",
      "type": "function"
    },
    {
      "inputs": [
        {
          "internalType": "address",
          "name": "_poolFactory",
          "type": "address"
        }
      ],
      "name": "changePoolFactory",
      "outputs": [],
      "stateMutability": "nonpayable",
      "type": "function"
    },
    {
      "inputs": [
        {
          "internalType": "address",
          "name": "_treasury",
          "type": "address"
        }
      ],
      "name": "changeTreausry",
      "outputs": [],
      "stateMutability": "nonpayable",
      "type": "function"
    },
    {
      "inputs": [
        {
          "internalType": "address",
          "name": "fromToken",
          "type": "address"
        },
        {
          "internalType": "address",
          "name": "toToken",
          "type": "address"
        },
        {
          "internalType": "uint256",
          "name": "amount",
          "type": "uint256"
        }
      ],
      "name": "getAmountOut",
      "outputs": [
        {
          "internalType": "uint256",
          "name": "",
          "type": "uint256"
        }
      ],
      "stateMutability": "view",
      "type": "function"
    },
    {
      "inputs": [
        {
          "internalType": "address",
          "name": "pool",
          "type": "address"
        },
        {
          "internalType": "address",
          "name": "asset",
          "type": "address"
        }
      ],
      "name": "getAssetReserve",
      "outputs": [
        {
          "internalType": "uint256",
          "name": "",
          "type": "uint256"
        }
      ],
      "stateMutability": "view",
      "type": "function"
    },
    {
      "inputs": [
        {
          "internalType": "address",
          "name": "token",
          "type": "address"
        }
      ],
      "name": "getPoolsContainingToken",
      "outputs": [
        {
          "internalType": "address[]",
          "name": "",
          "type": "address[]"
        }
      ],
      "stateMutability": "view",
      "type": "function"
    },
    {
      "inputs": [
        {
          "internalType": "address",
          "name": "pool",
          "type": "address"
        }
      ],
      "name": "getReserves",
      "outputs": [
        {
          "internalType": "uint256[]",
          "name": "",
          "type": "uint256[]"
        }
      ],
      "stateMutability": "view",
      "type": "function"
    },
    {
      "inputs": [],
      "name": "getVersion",
      "outputs": [
        {
          "internalType": "uint64",
          "name": "",
          "type": "uint64"
        }
      ],
      "stateMutability": "view",
      "type": "function"
    },
    {
      "inputs": [
        {
          "internalType": "address",
          "name": "_poolFactory",
          "type": "address"
        }
      ],
      "name": "initialize",
      "outputs": [],
      "stateMutability": "nonpayable",
      "type": "function"
    },
    {
      "inputs": [],
      "name": "owner",
      "outputs": [
        {
          "internalType": "address",
          "name": "",
          "type": "address"
        }
      ],
      "stateMutability": "view",
      "type": "function"
    },
    {
      "inputs": [
        {
          "internalType": "address",
          "name": "poolAddress",
          "type": "address"
        }
      ],
      "name": "performRebalanceIfNeeded",
      "outputs": [],
      "stateMutability": "nonpayable",
      "type": "function"
    },
    {
      "inputs": [],
      "name": "poolFactory",
      "outputs": [
        {
          "internalType": "contract IBaluniV1PoolFactory",
          "name": "",
          "type": "address"
        }
      ],
      "stateMutability": "view",
      "type": "function"
    },
    {
      "inputs": [
        {
          "internalType": "address",
          "name": "",
          "type": "address"
        },
        {
          "internalType": "address",
          "name": "",
          "type": "address"
        }
      ],
      "name": "poolsReserves",
      "outputs": [
        {
          "internalType": "uint256",
          "name": "",
          "type": "uint256"
        }
      ],
      "stateMutability": "view",
      "type": "function"
    },
    {
      "inputs": [],
      "name": "proxiableUUID",
      "outputs": [
        {
          "internalType": "bytes32",
          "name": "",
          "type": "bytes32"
        }
      ],
      "stateMutability": "view",
      "type": "function"
    },
    {
      "inputs": [
        {
          "internalType": "address",
          "name": "poolAddress",
          "type": "address"
        },
        {
          "internalType": "address",
          "name": "receiver",
          "type": "address"
        }
      ],
      "name": "rebalanceWeights",
      "outputs": [],
      "stateMutability": "nonpayable",
      "type": "function"
    },
    {
      "inputs": [
        {
          "internalType": "address",
          "name": "_poolFactory",
          "type": "address"
        },
        {
          "internalType": "uint64",
          "name": "version",
          "type": "uint64"
        }
      ],
      "name": "reinitialize",
      "outputs": [],
      "stateMutability": "nonpayable",
      "type": "function"
    },
    {
      "inputs": [
        {
          "internalType": "uint256",
          "name": "share",
          "type": "uint256"
        },
        {
          "internalType": "address",
          "name": "poolAddress",
          "type": "address"
        },
        {
          "internalType": "address",
          "name": "receiver",
          "type": "address"
        }
      ],
      "name": "removeLiquidity",
      "outputs": [],
      "stateMutability": "nonpayable",
      "type": "function"
    },
    {
      "inputs": [],
      "name": "renounceOwnership",
      "outputs": [],
      "stateMutability": "nonpayable",
      "type": "function"
    },
    {
      "inputs": [
        {
          "internalType": "address",
          "name": "fromToken",
          "type": "address"
        },
        {
          "internalType": "address",
          "name": "toToken",
          "type": "address"
        },
        {
          "internalType": "uint256",
          "name": "amount",
          "type": "uint256"
        },
        {
          "internalType": "address",
          "name": "receiver",
          "type": "address"
        }
      ],
      "name": "swap",
      "outputs": [
        {
          "internalType": "uint256",
          "name": "",
          "type": "uint256"
        }
      ],
      "stateMutability": "nonpayable",
      "type": "function"
    },
    {
      "inputs": [
        {
          "internalType": "address",
          "name": "newOwner",
          "type": "address"
        }
      ],
      "name": "transferOwnership",
      "outputs": [],
      "stateMutability": "nonpayable",
      "type": "function"
    },
    {
      "inputs": [],
      "name": "treasury",
      "outputs": [
        {
          "internalType": "address",
          "name": "",
          "type": "address"
        }
      ],
      "stateMutability": "view",
      "type": "function"
    },
    {
      "inputs": [
        {
          "internalType": "address",
          "name": "newImplementation",
          "type": "address"
        },
        {
          "internalType": "bytes",
          "name": "data",
          "type": "bytes"
        }
      ],
      "name": "upgradeToAndCall",
      "outputs": [],
      "stateMutability": "payable",
      "type": "function"
    }
  ],
  "bytecode": "0x60a08060405234602957306080526126bb908161002e8239608051818181611bb10152611c950152f35b5f80fdfe60806040526004361015610011575f80fd5b5f3560e01c806306497cb9146120c05780630d8e6e2c1461208e57806334decfc9146120715780633e99c1e414611fb55780634056c37f1461144b5780634219dc4014611f8e5780634aa0665214611e655780634f1ef28614611c1b57806352d1902d14611b9f5780635568081a1461196157806361d027b3146119395780636e81221c14611681578063715018a61461161a57806372591be5146115d857806385377188146115bb5780638da5cb5b146115875780638f2248bc14611498578063a3e113fb1461144b578063ad3cb1cc146113ca578063ad4142631461123b578063ae3cce1c1461118c578063b9f5e6171461116f578063c4d66de814611014578063e74e9b06146109b8578063ec0cd2eb1461077d578063f2fde38b14610754578063f31abcc4146101945763f4011c4c1461014d575f80fd5b3461019057602036600319011261019057610166612125565b61016e61257c565b600180546001600160a01b0319166001600160a01b0392909216919091179055005b5f80fd5b34610190576060366003190112610190576004356101b061213b565b6101b8612151565b821561070f57604051636eb1769f60e11b81523360048201523060248201526020926001600160a01b039182821691908581604481865afa80156105105787915f916106de575b50106106a0576040516370a0823160e01b808252336004830152966024959187818881885afa80156105105782905f9061066f575b61024092501015612359565b6040516323b872dd60e01b81523360048201523060248201526044810182905287816064815f895af1908115610510575f91610652575b50156106185760405163a9059cbb60e01b8082526001600160a01b03949094166004820152602481019190915286816044815f885af1908115610510575f916105fb575b50156105c55760405163226bf2d160e21b81528482166004820152905f82878183885af1918215610510575f926105a1575b506040516319f92b0b60e21b8152975f89600481885afa988915610510575f9961057d575b505f5b895181101561057b57610386818a8c8a61035361034b610342610338878d6122ec565b5160035490612314565b6004549061233b565b9485936122ec565b51168b600154165f8b6040519788958694859384526004840160209093929193604081019460018060a01b031681520152565b03925af191821561051057896103a6858f8f948f9761055e575b506122ec565b5116604051938480928882523060048301525afa8015610510578c8c92888b87948e975f9161051b575b5061044e9361043887855f9b98956103fb61043e966103f3856104879e9b6122ec565b5111156124c6565b61040583836122ec565b51908d5260058c5260408d208a61041c858a6122ec565b51168e528c5261043160408e2091825461240a565b90556122ec565b5161240a565b610448838d6122ec565b526122ec565b511661045a85896122ec565b516040518a81526001600160a01b0389166004820152602481019190915293849283919082906044820190565b03925af1908115610510575f916104e3575b50156104a757600101610315565b60405162461bcd60e51b8152600481018a90526015818a015274105cdcd95d081d1c985b9cd9995c8819985a5b1959605a1b6044820152606490fd5b61050391508a3d8c11610509575b6104fb81836121a2565b810190612462565b8b610499565b503d6104f1565b6040513d5f823e3d90fd5b9750505050928092508491503d8311610557575b61053981836121a2565b8101031261019057905188918b9184918e9189908c9061044e6103d0565b503d61052f565b61057490863d8811610509576104fb81836121a2565b505f6103a0565b005b61059a9199503d805f833e61059281836121a2565b810190612239565b9789610312565b6105be9192503d805f833e6105b681836121a2565b81019061247a565b90886102ed565b60405162461bcd60e51b815260048101879052600f818701526e151c985b9cd9995c8819985a5b1959608a1b6044820152606490fd5b6106129150873d8911610509576104fb81836121a2565b886102bb565b60405162461bcd60e51b81526004810188905260138188015272151c985b9cd9995c919c9bdb4819985a5b1959606a1b6044820152606490fd5b6106699150883d8a11610509576104fb81836121a2565b89610277565b50508781813d8311610699575b61068681836121a2565b8101031261019057816102409151610234565b503d61067c565b60405162461bcd60e51b8152600481018690526016602482015275496e73756666696369656e7420616c6c6f77616e636560501b6044820152606490fd5b809250878092503d8311610708575b6106f781836121a2565b8101031261019057869051886101ff565b503d6106ed565b60405162461bcd60e51b815260206004820152601f60248201527f5368617265206d7573742062652067726561746572207468616e207a65726f006044820152606490fd5b346101905760203660031901126101905761057b610770612125565b61077861257c565b61250b565b34610190576060366003190112610190576004356001600160401b038111610190576107ad9036906004016121de565b906107b661213b565b916107bf612151565b6040516319f92b0b60e21b81526001600160a01b0394919391851692905f81600481875afa908115610510575f9161099e575b505f5b815181101561091d578661080982846122ec565b5116906108178185876124a2565b6040516323b872dd60e01b8152336004820152306024820152903560448201819052909260209182856064815f865af19485156105105761089d95610900575b5061086761034260035483612314565b60015460405163a9059cbb60e01b8152908d166001600160a01b0316600482015260248101829052958490879081906044820190565b03815f875af1918215610510576001966108bc936108e3575b5061240a565b91885f526005815260405f20915f52526108db60405f209182546123fd565b9055016107f5565b6108f990863d8811610509576104fb81836121a2565b508d6108b6565b61091690843d8611610509576104fb81836121a2565b508b610857565b50506040805163de836ebd60e01b8152948616600486015260248501526044840181905290916001600160fb1b03821161019057835f606482602096819660051b80918484013781010301925af180156105105761097757005b602090813d8311610997575b61098d81836121a2565b8101031261019057005b503d610983565b6109b291503d805f833e61059281836121a2565b866107f2565b34610190576080366003190112610190576001600160401b03600435818111610190576109e99036906004016121de565b919060243582811161019057610a039036906004016121de565b60449491943584811161019057610a1e9036906004016121de565b95909460643590811161019057610a399036906004016121de565b938381148061100b575b80611002575b15610fbd57610a57816122ba565b965f5b828110610a735760405180610a6f8b82612167565b0390f35b610a89610a81828c856124a2565b351515612417565b5f54610af1906020906001600160a01b0316610aae610aa985888e6124a2565b6124b2565b90610abd610aa9868c8c6124a2565b604051632d5e94a760e01b81526001600160a01b039384166004820152921660248301529092839190829081906044820190565b03915afa908115610510575f91610f83575b50602460206001600160a01b03610b1e610aa986898f6124a2565b16604051928380926370a0823160e01b82523360048301525afa908115610510575f91610f51575b50610b52838d866124a2565b3511610f15575f906020610bb18d610b82868e610b7a610aa9838d60018060a01b03946124a2565b1692896124a2565b6040516323b872dd60e01b81523360048201523060248201529035604482015294859283919082906064820190565b03925af1918215610510578c88610c9a610c5a610aa98f8f988f610c4b610aa98f8f938f96610aa98f60209f948f938b9992610c008b610c4597819a96610c529f978398610ef7575b506124a2565b6001600160a01b039182165f908152600560205260409020903591610c29610aa98787876124a2565b165f52602052610c3e60405f209182546123fd565b90556124a2565b9a6124a2565b978d6124a2565b35988d6124a2565b604051631ba0488760e21b81526001600160a01b039384166004820152938316602485015260448401969096529416606482015292839081906084820190565b03815f6001600160a01b0386165af1908115610510575f91610ec2575b6024925060206001600160a01b03610cd3610aa9878d8d6124a2565b16604051948580926370a0823160e01b82523060048301525afa80156105105784935f91610e8b575b5082610d099110156124c6565b610d7460208a8a610d36610aa9610d256103426003548a612314565b998a946001600160a01b03946124a2565b60015460405163a9059cbb60e01b81526001600160a01b039091166004820152602481019390935291938492919091169082905f9082906044820190565b03925af1948515610510578b610dc1610aa9878d8f95610aa9610da8610db992859c610df89f9b60209c610e6e575061240a565b9a8b986001600160a01b03946124a2565b16938d6124a2565b60405163a9059cbb60e01b81526001600160a01b0390911660048201526024810192909252909586919082905f9082906044820190565b03925af193841561051057600194610e4f575b50838060a01b03165f52600560205260405f20838060a01b03610e32610aa9858c8c6124a2565b165f52602052610e4760405f2091825461240a565b905501610a5a565b610e679060203d602011610509576104fb81836121a2565b508d610e0b565b610e84908d3d8f11610509576104fb81836121a2565b505f6108b6565b9350506020833d602011610eba575b81610ea7602093836121a2565b8101031261019057915183929082610cfc565b3d9150610e9a565b90506020823d602011610eef575b81610edd602093836121a2565b81010312610190576024915190610cb7565b3d9150610ed0565b610f0e9060203d8111610509576104fb81836121a2565b505f610bfa565b60405162461bcd60e51b8152602060048201526014602482015273496e73756666696369656e742042616c616e636560601b6044820152606490fd5b90506020813d602011610f7b575b81610f6c602093836121a2565b8101031261019057518c610b46565b3d9150610f5f565b90506020813d602011610fb5575b81610f9e602093836121a2565b8101031261019057610faf90612225565b8b610b03565b3d9150610f91565b60405162461bcd60e51b815260206004820152601c60248201527f496e70757420617272617973206c656e677468206d69736d61746368000000006044820152606490fd5b50848814610a49565b50878414610a43565b346101905760203660031901126101905761102d612125565b5f805160206126668339815191529081549060ff8260401c1615916001600160401b03811680159081611167575b600114908161115d575b159081611154575b506111425767ffffffffffffffff198116600117845582611123575b506110926125b4565b61109a6125b4565b6110a26125b4565b6110ab3361250b565b6bffffffffffffffffffffffff60a01b9060018060a01b0316815f5416175f55339060015416176001556064600255601e6003556127106004556110eb57005b60ff60401b1981541690557fc7f505b2f371ae2175ee4913f4499e1f2633a7b5936321eed1cdaeb6115181d2602060405160018152a1005b68ffffffffffffffffff19166801000000000000000117835583611089565b60405163f92ee8a960e01b8152600490fd5b9050158561106d565b303b159150611065565b84915061105b565b34610190575f366003190112610190576020600354604051908152f35b3461019057602080600319360112610190576111a6612125565b5f8054604051635a1a073560e11b81526001600160a01b03938416600482015292939291908290602490829087165afa908115610510575f91611221575b5060405191808301818452825180915281604085019301915f5b82811061120b5785850386f35b83518716855293810193928101926001016111fe565b61123591503d805f833e61059281836121a2565b836111e4565b3461019057604036600319011261019057611254612125565b61125c61213b565b604051630723c99960e01b81526001600160a01b0382811660048301529290919083165f8360248183855af1928315610510575f936113ae575b506040516319f92b0b60e21b8152915f83600481855afa928315610510575f93611392575b505f5b835181101561057b57806112d35f92876122ec565b518483526020906005825260408420896112ed858a6122ec565b511685528252611302604085209182546123fd565b90558061135989611313858a6122ec565b511661131f858b6122ec565b516040516323b872dd60e01b81526001600160a01b0389166004820152306024820152604481019190915295869283919082906064820190565b03925af192831561051057600193611374575b5050016112be565b8161138a92903d10610509576104fb81836121a2565b50878061136c565b6113a79193503d805f833e61059281836121a2565b91856112bb565b6113c39193503d805f833e6105b681836121a2565b9184611296565b34610190575f36600319011261019057604051604081018181106001600160401b03821117611437576040526005815260406020820191640352e302e360dc1b83528151928391602083525180918160208501528484015e5f828201840152601f01601f19168101030190f35b634e487b7160e01b5f52604160045260245ffd5b3461019057604036600319011261019057611464612125565b61146c61213b565b9060018060a01b038091165f52600560205260405f2091165f52602052602060405f2054604051908152f35b34610190576040366003190112610190576114b1612125565b602435906001600160401b0391828116809103610190575f805160206126668339815191528054938260ff8660401c1691821561157a575b5050611142577fc7f505b2f371ae2175ee4913f4499e1f2633a7b5936321eed1cdaeb6115181d2936020936bffffffffffffffffffffffff60a01b9060018060a01b0316815f5416175f55339060015416176001556064600255601e600355612710600455680100000000000000008360ff60401b199268ffffffffffffffffff19161717169055604051908152a1005b86161015905082866114e9565b34610190575f366003190112610190575f80516020612646833981519152546040516001600160a01b039091168152602090f35b34610190575f366003190112610190576020600454604051908152f35b34610190576020366003190112610190576115f1612125565b6115f961257c565b5f80546001600160a01b0319166001600160a01b0392909216919091179055005b34610190575f3660031901126101905761163261257c565b5f8051602061264683398151915280546001600160a01b031981169091555f906001600160a01b03167f8be0079c531659141344cd1fd0a4f28419497f9722a3daafe3b4186f6b6457e08280a3005b346101905760803660031901126101905761169a612125565b6116a261213b565b90606435906001600160a01b03906044358284168403610190576116c7811515612417565b5f54604051632d5e94a760e01b81526001600160a01b038481166004830152871660248201526020969187908290604490829089165afa80156105105785915f91611901575b506040516323b872dd60e01b8152336004820152306024820152604481018590529116938581169088836064815f865af191821561051057899385936118e4575b50865f526005845260405f20905f52835260405f2061176e8682546123fd565b9055604051631ba0488760e21b81526001600160a01b039182166004820152918116602483015260448201949094529286166064840152826084815f875af1918215610510575f926118b5575b50836117cc61034260035485612314565b60015460405163a9059cbb60e01b808252979091166001600160a01b0316600482015260248101829052929091169492908783806044810103815f8a5af191821561051057889361182193611898575061240a565b6040519283526001600160a01b0395909516600483015260248201859052816044815f875af180156105105761187b575b505f526005835260405f20905f52825260405f2061187182825461240a565b9055604051908152f35b61189190853d8711610509576104fb81836121a2565b5084611852565b6118ae90853d8711610509576104fb81836121a2565b50896108b6565b9091508581813d83116118dd575b6118cd81836121a2565b81010312610190575190866117bb565b503d6118c3565b6118fa90853d8711610509576104fb81836121a2565b508a61174e565b809250888092503d8311611932575b61191a81836121a2565b810103126101905761192c8591612225565b8861170d565b503d611910565b34610190575f366003190112610190576001546040516001600160a01b039091168152602090f35b3461019057602080600319360112610190576001600160a01b039081611985612125565b166040516370a0823160e01b81523360048201528281602481855afa908115610510575f91611b72575b506040516318160ddd60e01b8152908382600481865afa918215610510575f92611b41575b506119f06119f7926119eb60649360045490612314565b61233b565b1015612359565b604051631e8f68bd60e31b8152925f8460048183865af1928315610510575f945f94611ae5575b506040516319f92b0b60e21b8152915f83600481875afa928315610510575f93611ac9575b505f5b835181101561057b5780611a5c600192896122ec565b51865f5260059081865260405f2085611a75858a6122ec565b51165f528652611a8a60405f209182546123fd565b9055611a9682896122ec565b5190875f52855260405f2084611aac84896122ec565b51165f528552611ac160405f2091825461240a565b905501611a46565b611ade9193503d805f833e61059281836121a2565b9186611a43565b945092503d805f863e611af881866121a2565b840193604081860312610190578051946001600160401b03958681116101905781611b2491840161239c565b958583015190811161019057611b3a920161239c565b9285611a1e565b91508382813d8311611b6b575b611b5881836121a2565b81010312610190579051906119f06119d4565b503d611b4e565b90508281813d8311611b98575b611b8981836121a2565b810103126101905751846119af565b503d611b7f565b34610190575f366003190112610190577f00000000000000000000000000000000000000000000000000000000000000006001600160a01b03163003611c095760206040517f360894a13ba1a3210667c828492db98dca3e2076cc3735a920a3ca505d382bbc8152f35b60405163703e46dd60e11b8152600490fd5b604036600319011261019057611c2f612125565b60249081356001600160401b0381116101905736602382011215610190578060040135611c5b816121c3565b92611c6960405194856121a2565b818452602091828501933687838301011161019057815f92888693018737860101526001600160a01b037f00000000000000000000000000000000000000000000000000000000000000008116308114908115611e37575b50611c0957611cce61257c565b8116936040516352d1902d60e01b81528381600481895afa5f9181611e08575b50611d0b57604051634c9c8ce360e01b8152600481018790528790fd5b8590877f360894a13ba1a3210667c828492db98dca3e2076cc3735a920a3ca505d382bbc91828103611df35750843b15611ddd575080546001600160a01b03191682179055604051907fbc7cd75a20ee27fd9adebab32041f755214dbc6bffa90cc0225b39da2e5c2d3b5f80a2815115611dc257505f61057b9481925190845af4903d15611db9573d611d9d816121c3565b90611dab60405192836121a2565b81525f81943d92013e6125e2565b606092506125e2565b935050505034611dce57005b63b398979f60e01b8152600490fd5b604051634c9c8ce360e01b815260048101849052fd5b60405190632a87526960e21b82526004820152fd5b9091508481813d8311611e30575b611e2081836121a2565b8101031261019057519088611cee565b503d611e16565b9050817f360894a13ba1a3210667c828492db98dca3e2076cc3735a920a3ca505d382bbc5416141587611cc1565b3461019057606036600319011261019057611e7e612125565b611e8661213b565b5f54604051632d5e94a760e01b81526001600160a01b0384811660048301528381166024830152602094919285908490604490829085165afa9081156105105785935f92611f51575b50604051632550332960e11b81526001600160a01b03938416600482015294909216602485015260448035908501528391829081606481015b0392165afa908115610510575f91611f24575b50604051908152f35b90508181813d8311611f4a575b611f3b81836121a2565b81010312610190575182611f1b565b503d611f31565b8481959293503d8311611f87575b611f6981836121a2565b8101031261019057611f0893611f7f8694612225565b919094611ecf565b503d611f5f565b34610190575f366003190112610190575f546040516001600160a01b039091168152602090f35b3461019057602080600319360112610190576001600160a01b0380611fd8612125565b16916040516319f92b0b60e21b81525f81600481875afa908115610510575f91612057575b5061200881516122ba565b915f5b825181101561204957600190865f526005835260405f208661202d83876122ec565b51165f52835260405f205461204282876122ec565b520161200b565b60405180610a6f8682612167565b61206b91503d805f833e61059281836121a2565b84611ffd565b34610190575f366003190112610190576020600254604051908152f35b34610190575f3660031901126101905760206001600160401b035f805160206126668339815191525416604051908152f35b34610190576020366003190112610190576004356120dc61257c565b60025481116120ea57600355005b60405162461bcd60e51b81526020600482015260136024820152724665652065786365656473206d6178696d756d60681b6044820152606490fd5b600435906001600160a01b038216820361019057565b602435906001600160a01b038216820361019057565b604435906001600160a01b038216820361019057565b60209060206040818301928281528551809452019301915f5b82811061218e575050505090565b835185529381019392810192600101612180565b90601f801991011681019081106001600160401b0382111761143757604052565b6001600160401b03811161143757601f01601f191660200190565b9181601f84011215610190578235916001600160401b038311610190576020808501948460051b01011161019057565b6001600160401b0381116114375760051b60200190565b51906001600160a01b038216820361019057565b6020908181840312610190578051906001600160401b03821161019057019180601f8401121561019057825161226e8161220e565b9361227c60405195866121a2565b818552838086019260051b820101928311610190578301905b8282106122a3575050505090565b8380916122af84612225565b815201910190612295565b906122c48261220e565b6122d160405191826121a2565b82815280926122e2601f199161220e565b0190602036910137565b80518210156123005760209160051b010190565b634e487b7160e01b5f52603260045260245ffd5b8181029291811591840414171561232757565b634e487b7160e01b5f52601160045260245ffd5b8115612345570490565b634e487b7160e01b5f52601260045260245ffd5b1561236057565b60405162461bcd60e51b8152602060048201526014602482015273496e73756666696369656e742062616c616e636560601b6044820152606490fd5b9080601f83011215610190578151906020916123b78161220e565b936123c560405195866121a2565b81855260208086019260051b82010192831161019057602001905b8282106123ee575050505090565b815181529083019083016123e0565b9190820180921161232757565b9190820391821161232757565b1561241e57565b606460405162461bcd60e51b815260206004820152602060248201527f416d6f756e74206d7573742062652067726561746572207468616e207a65726f6044820152fd5b90816020910312610190575180151581036101905790565b906020828203126101905781516001600160401b0381116101905761249f920161239c565b90565b91908110156123005760051b0190565b356001600160a01b03811681036101905790565b156124cd57565b60405162461bcd60e51b8152602060048201526016602482015275496e73756666696369656e74204c697175696469747960501b6044820152606490fd5b6001600160a01b03908116908115612564575f8051602061264683398151915280546001600160a01b031981168417909155167f8be0079c531659141344cd1fd0a4f28419497f9722a3daafe3b4186f6b6457e05f80a3565b604051631e4fbdf760e01b81525f6004820152602490fd5b5f80516020612646833981519152546001600160a01b0316330361259c57565b60405163118cdaa760e01b8152336004820152602490fd5b60ff5f805160206126668339815191525460401c16156125d057565b604051631afcd79f60e31b8152600490fd5b9061260957508051156125f757805190602001fd5b604051630a12f52160e11b8152600490fd5b8151158061263c575b61261a575090565b604051639996b31560e01b81526001600160a01b039091166004820152602490fd5b50803b1561261256fe9016d09d72d40fdae2fd8ceac6b6234c7706214fd39c1cd1e609a0528c199300f0c57e16840df040f15088dc2f81fe391c3923bec73e23a9662efc9c229c6a00a264697066735822122031513c589ad277d9689fd63e9fe9b51f0114c893e0fc2a925204741b456923c164736f6c63430008190033",
  "linkReferences": {},
  "deployedLinkReferences": {}
}