{
  "_format": "hh-sol-artifact-1",
  "contractName": "BaluniV1PoolPeriphery",
  "sourceName": "contracts/BaluniV1PoolPeriphery.sol",
  "abi": [
    {
      "inputs": [
        {
          "internalType": "address",
          "name": "target",
          "type": "address"
        }
      ],
      "name": "AddressEmptyCode",
      "type": "error"
    },
    {
      "inputs": [
        {
          "internalType": "address",
          "name": "implementation",
          "type": "address"
        }
      ],
      "name": "ERC1967InvalidImplementation",
      "type": "error"
    },
    {
      "inputs": [],
      "name": "ERC1967NonPayable",
      "type": "error"
    },
    {
      "inputs": [],
      "name": "FailedInnerCall",
      "type": "error"
    },
    {
      "inputs": [],
      "name": "InvalidInitialization",
      "type": "error"
    },
    {
      "inputs": [],
      "name": "NotInitializing",
      "type": "error"
    },
    {
      "inputs": [
        {
          "internalType": "address",
          "name": "owner",
          "type": "address"
        }
      ],
      "name": "OwnableInvalidOwner",
      "type": "error"
    },
    {
      "inputs": [
        {
          "internalType": "address",
          "name": "account",
          "type": "address"
        }
      ],
      "name": "OwnableUnauthorizedAccount",
      "type": "error"
    },
    {
      "inputs": [],
      "name": "UUPSUnauthorizedCallContext",
      "type": "error"
    },
    {
      "inputs": [
        {
          "internalType": "bytes32",
          "name": "slot",
          "type": "bytes32"
        }
      ],
      "name": "UUPSUnsupportedProxiableUUID",
      "type": "error"
    },
    {
      "anonymous": false,
      "inputs": [
        {
          "indexed": false,
          "internalType": "uint64",
          "name": "version",
          "type": "uint64"
        }
      ],
      "name": "Initialized",
      "type": "event"
    },
    {
      "anonymous": false,
      "inputs": [
        {
          "indexed": true,
          "internalType": "address",
          "name": "previousOwner",
          "type": "address"
        },
        {
          "indexed": true,
          "internalType": "address",
          "name": "newOwner",
          "type": "address"
        }
      ],
      "name": "OwnershipTransferred",
      "type": "event"
    },
    {
      "anonymous": false,
      "inputs": [
        {
          "indexed": true,
          "internalType": "address",
          "name": "implementation",
          "type": "address"
        }
      ],
      "name": "Upgraded",
      "type": "event"
    },
    {
      "inputs": [],
      "name": "UPGRADE_INTERFACE_VERSION",
      "outputs": [
        {
          "internalType": "string",
          "name": "",
          "type": "string"
        }
      ],
      "stateMutability": "view",
      "type": "function"
    },
    {
      "inputs": [
        {
          "internalType": "uint256[]",
          "name": "amounts",
          "type": "uint256[]"
        },
        {
          "internalType": "address",
          "name": "poolAddress",
          "type": "address"
        },
        {
          "internalType": "address",
          "name": "receiver",
          "type": "address"
        }
      ],
      "name": "addLiquidity",
      "outputs": [
        {
          "internalType": "uint256",
          "name": "",
          "type": "uint256"
        }
      ],
      "stateMutability": "nonpayable",
      "type": "function"
    },
    {
      "inputs": [
        {
          "internalType": "address[]",
          "name": "fromTokens",
          "type": "address[]"
        },
        {
          "internalType": "address[]",
          "name": "toTokens",
          "type": "address[]"
        },
        {
          "internalType": "uint256[]",
          "name": "amounts",
          "type": "uint256[]"
        },
        {
          "internalType": "address[]",
          "name": "receivers",
          "type": "address[]"
        }
      ],
      "name": "batchSwap",
      "outputs": [
        {
          "internalType": "uint256[]",
          "name": "",
          "type": "uint256[]"
        }
      ],
      "stateMutability": "nonpayable",
      "type": "function"
    },
    {
      "inputs": [
        {
          "internalType": "address",
          "name": "fromToken",
          "type": "address"
        },
        {
          "internalType": "address",
          "name": "toToken",
          "type": "address"
        },
        {
          "internalType": "uint256",
          "name": "amount",
          "type": "uint256"
        }
      ],
      "name": "getAmountOut",
      "outputs": [
        {
          "internalType": "uint256",
          "name": "",
          "type": "uint256"
        }
      ],
      "stateMutability": "view",
      "type": "function"
    },
    {
      "inputs": [
        {
          "internalType": "address",
          "name": "pool",
          "type": "address"
        },
        {
          "internalType": "address",
          "name": "asset",
          "type": "address"
        }
      ],
      "name": "getAssetReserve",
      "outputs": [
        {
          "internalType": "uint256",
          "name": "",
          "type": "uint256"
        }
      ],
      "stateMutability": "view",
      "type": "function"
    },
    {
      "inputs": [
        {
          "internalType": "address",
          "name": "token",
          "type": "address"
        }
      ],
      "name": "getPoolsContainingToken",
      "outputs": [
        {
          "internalType": "address[]",
          "name": "",
          "type": "address[]"
        }
      ],
      "stateMutability": "view",
      "type": "function"
    },
    {
      "inputs": [
        {
          "internalType": "address",
          "name": "pool",
          "type": "address"
        }
      ],
      "name": "getReserves",
      "outputs": [
        {
          "internalType": "uint256[]",
          "name": "",
          "type": "uint256[]"
        }
      ],
      "stateMutability": "view",
      "type": "function"
    },
    {
      "inputs": [],
      "name": "getVersion",
      "outputs": [
        {
          "internalType": "uint64",
          "name": "",
          "type": "uint64"
        }
      ],
      "stateMutability": "view",
      "type": "function"
    },
    {
      "inputs": [
        {
          "internalType": "address",
          "name": "_registry",
          "type": "address"
        }
      ],
      "name": "initialize",
      "outputs": [],
      "stateMutability": "nonpayable",
      "type": "function"
    },
    {
      "inputs": [],
      "name": "owner",
      "outputs": [
        {
          "internalType": "address",
          "name": "",
          "type": "address"
        }
      ],
      "stateMutability": "view",
      "type": "function"
    },
    {
      "inputs": [
        {
          "internalType": "address",
          "name": "poolAddress",
          "type": "address"
        }
      ],
      "name": "performRebalanceIfNeeded",
      "outputs": [],
      "stateMutability": "nonpayable",
      "type": "function"
    },
    {
      "inputs": [
        {
          "internalType": "address",
          "name": "",
          "type": "address"
        },
        {
          "internalType": "address",
          "name": "",
          "type": "address"
        }
      ],
      "name": "poolsReserves",
      "outputs": [
        {
          "internalType": "uint256",
          "name": "",
          "type": "uint256"
        }
      ],
      "stateMutability": "view",
      "type": "function"
    },
    {
      "inputs": [],
      "name": "proxiableUUID",
      "outputs": [
        {
          "internalType": "bytes32",
          "name": "",
          "type": "bytes32"
        }
      ],
      "stateMutability": "view",
      "type": "function"
    },
    {
      "inputs": [
        {
          "internalType": "address",
          "name": "poolAddress",
          "type": "address"
        },
        {
          "internalType": "address",
          "name": "receiver",
          "type": "address"
        }
      ],
      "name": "rebalanceWeights",
      "outputs": [],
      "stateMutability": "nonpayable",
      "type": "function"
    },
    {
      "inputs": [],
      "name": "registry",
      "outputs": [
        {
          "internalType": "contract IBaluniV1Registry",
          "name": "",
          "type": "address"
        }
      ],
      "stateMutability": "view",
      "type": "function"
    },
    {
      "inputs": [
        {
          "internalType": "address",
          "name": "_registry",
          "type": "address"
        },
        {
          "internalType": "uint64",
          "name": "version",
          "type": "uint64"
        }
      ],
      "name": "reinitialize",
      "outputs": [],
      "stateMutability": "nonpayable",
      "type": "function"
    },
    {
      "inputs": [
        {
          "internalType": "uint256",
          "name": "share",
          "type": "uint256"
        },
        {
          "internalType": "address",
          "name": "poolAddress",
          "type": "address"
        },
        {
          "internalType": "address",
          "name": "receiver",
          "type": "address"
        }
      ],
      "name": "removeLiquidity",
      "outputs": [],
      "stateMutability": "nonpayable",
      "type": "function"
    },
    {
      "inputs": [],
      "name": "renounceOwnership",
      "outputs": [],
      "stateMutability": "nonpayable",
      "type": "function"
    },
    {
      "inputs": [
        {
          "internalType": "address",
          "name": "fromToken",
          "type": "address"
        },
        {
          "internalType": "address",
          "name": "toToken",
          "type": "address"
        },
        {
          "internalType": "uint256",
          "name": "amount",
          "type": "uint256"
        },
        {
          "internalType": "address",
          "name": "receiver",
          "type": "address"
        }
      ],
      "name": "swap",
      "outputs": [
        {
          "internalType": "uint256",
          "name": "",
          "type": "uint256"
        }
      ],
      "stateMutability": "nonpayable",
      "type": "function"
    },
    {
      "inputs": [
        {
          "internalType": "address",
          "name": "newOwner",
          "type": "address"
        }
      ],
      "name": "transferOwnership",
      "outputs": [],
      "stateMutability": "nonpayable",
      "type": "function"
    },
    {
      "inputs": [
        {
          "internalType": "address",
          "name": "newImplementation",
          "type": "address"
        },
        {
          "internalType": "bytes",
          "name": "data",
          "type": "bytes"
        }
      ],
      "name": "upgradeToAndCall",
      "outputs": [],
      "stateMutability": "payable",
      "type": "function"
    }
  ],
  "bytecode": "0x60a0604052306080523480156012575f80fd5b506080516132636100395f395f818161258d015281816125b601526126fa01526132635ff3fe608060405260043610610126575f3560e01c80638da5cb5b116100a8578063ae3cce1c1161006d578063ae3cce1c14610371578063c4d66de81461039d578063e74e9b06146103bc578063ec0cd2eb146103db578063f2fde38b146103fa578063f31abcc414610419575f80fd5b80638da5cb5b1461029b5780638f2248bc146102d7578063a3e113fb146102f6578063ad3cb1cc14610315578063ad41426314610352575f80fd5b806352d1902d116100ee57806352d1902d146101ff5780635568081a146102135780636e81221c14610232578063715018a6146102515780637b10399914610265575f80fd5b80630d8e6e2c1461012a5780633e99c1e41461015b5780634056c37f146101875780634aa06652146101cb5780634f1ef286146101ea575b5f80fd5b348015610135575f80fd5b5061013e610438565b6040516001600160401b0390911681526020015b60405180910390f35b348015610166575f80fd5b5061017a610175366004612a4c565b61045c565b6040516101529190612aa1565b348015610192575f80fd5b506101bd6101a1366004612ab3565b600160209081525f928352604080842090915290825290205481565b604051908152602001610152565b3480156101d6575f80fd5b506101bd6101e5366004612aea565b610597565b6101fd6101f8366004612b6c565b6106f8565b005b34801561020a575f80fd5b506101bd610717565b34801561021e575f80fd5b506101fd61022d366004612a4c565b610732565b34801561023d575f80fd5b506101bd61024c366004612c0d565b610dab565b34801561025c575f80fd5b506101fd61125e565b348015610270575f80fd5b505f54610283906001600160a01b031681565b6040516001600160a01b039091168152602001610152565b3480156102a6575f80fd5b507f9016d09d72d40fdae2fd8ceac6b6234c7706214fd39c1cd1e609a0528c199300546001600160a01b0316610283565b3480156102e2575f80fd5b506101fd6102f1366004612c5d565b611271565b348015610301575f80fd5b506101bd610310366004612ab3565b611346565b348015610320575f80fd5b50610345604051806040016040528060058152602001640352e302e360dc1b81525081565b6040516101529190612c94565b34801561035d575f80fd5b506101fd61036c366004612ab3565b611372565b34801561037c575f80fd5b5061039061038b366004612a4c565b611592565b6040516101529190612cc9565b3480156103a8575f80fd5b506101fd6103b7366004612a4c565b61166d565b3480156103c7575f80fd5b5061017a6103d6366004612d5c565b611787565b3480156103e6575f80fd5b506101bd6103f5366004612e38565b611a33565b348015610405575f80fd5b506101fd610414366004612a4c565b611c56565b348015610424575f80fd5b506101fd610433366004612ee9565b611c93565b5f6104575f8051602061320e833981519152546001600160401b031690565b905090565b60605f826001600160a01b03166367e4ac2c6040518163ffffffff1660e01b81526004015f60405180830381865afa15801561049a573d5f803e3d5ffd5b505050506040513d5f823e601f3d908101601f191682016040526104c19190810190612f28565b90505f81516001600160401b038111156104dd576104dd612b28565b604051908082528060200260200182016040528015610506578160200160208202803683370190505b5090505f5b825181101561058f576001600160a01b0385165f908152600160205260408120845190919085908490811061054257610542612fbc565b60200260200101516001600160a01b03166001600160a01b031681526020019081526020015f205482828151811061057c5761057c612fbc565b602090810291909101015260010161050b565b509392505050565b5f805460408051630f8dfa6160e31b8152905183926001600160a01b031691637c6fd3089160048083019260209291908290030181865afa1580156105de573d5f803e3d5ffd5b505050506040513d601f19601f820116820180604052508101906106029190612fd0565b604051632d5e94a760e01b81526001600160a01b03878116600483015286811660248301529192505f91831690632d5e94a790604401602060405180830381865afa158015610653573d5f803e3d5ffd5b505050506040513d601f19601f820116820180604052508101906106779190612fd0565b604051632550332960e11b815290915081906001600160a01b03821690634aa06652906106ac908a908a908a90600401612feb565b602060405180830381865afa1580156106c7573d5f803e3d5ffd5b505050506040513d601f19601f820116820180604052508101906106eb919061300f565b93505050505b9392505050565b610700612582565b61070982612626565b610713828261262e565b5050565b5f6107206126ef565b505f805160206131ee83398151915290565b5f805f9054906101000a90046001600160a01b03166001600160a01b0316634f4608a26040518163ffffffff1660e01b8152600401602060405180830381865afa158015610782573d5f803e3d5ffd5b505050506040513d601f19601f820116820180604052508101906107a6919061300f565b5f8054604080516319fe93ad60e31b8152905193945085936001600160a01b039092169163cff49d68916004808201926020929091908290030181865afa1580156107f3573d5f803e3d5ffd5b505050506040513d601f19601f820116820180604052508101906108179190612fd0565b6040516370a0823160e01b81523360048201529091505f906001600160a01b038616906370a0823190602401602060405180830381865afa15801561085e573d5f803e3d5ffd5b505050506040513d601f19601f82011682018060405250810190610882919061300f565b90505f856001600160a01b03166318160ddd6040518163ffffffff1660e01b8152600401602060405180830381865afa1580156108c1573d5f803e3d5ffd5b505050506040513d601f19601f820116820180604052508101906108e5919061300f565b90506064816108f4878561303a565b6108fe9190613051565b10156109485760405162461bcd60e51b8152602060048201526014602482015273496e73756666696369656e742062616c616e636560601b60448201526064015b60405180910390fd5b5f5b846001600160a01b03166367e4ac2c6040518163ffffffff1660e01b81526004015f60405180830381865afa158015610985573d5f803e3d5ffd5b505050506040513d5f823e601f3d908101601f191682016040526109ac9190810190612f28565b51811015610ba7575f856001600160a01b03166367e4ac2c6040518163ffffffff1660e01b81526004015f60405180830381865afa1580156109f0573d5f803e3d5ffd5b505050506040513d5f823e601f3d908101601f19168201604052610a179190810190612f28565b8281518110610a2857610a28612fbc565b6020908102919091010151604051636eb1769f60e11b81523060048201526001600160a01b0387811660248301529091169063dd62ed3e90604401602060405180830381865afa158015610a7e573d5f803e3d5ffd5b505050506040513d601f19601f82011682018060405250810190610aa2919061300f565b90505f19811015610b9e57856001600160a01b03166367e4ac2c6040518163ffffffff1660e01b81526004015f60405180830381865afa158015610ae8573d5f803e3d5ffd5b505050506040513d5f823e601f3d908101601f19168201604052610b0f9190810190612f28565b8281518110610b2057610b20612fbc565b602090810291909101015160405163095ea7b360e01b81526001600160a01b0387811660048301525f1960248301529091169063095ea7b3906044016020604051808303815f875af1158015610b78573d5f803e3d5ffd5b505050506040513d601f19601f82011682018060405250810190610b9c9190613070565b505b5060010161094a565b505f80856001600160a01b031663f47b45e86040518163ffffffff1660e01b81526004015f604051808303815f875af1158015610be6573d5f803e3d5ffd5b505050506040513d5f823e601f3d908101601f19168201604052610c0d91908101906130f6565b915091505f866001600160a01b03166367e4ac2c6040518163ffffffff1660e01b81526004015f60405180830381865afa158015610c4d573d5f803e3d5ffd5b505050506040513d5f823e601f3d908101601f19168201604052610c749190810190612f28565b90505f5b8151811015610d9f57838181518110610c9357610c93612fbc565b602002602001015160015f8c6001600160a01b03166001600160a01b031681526020019081526020015f205f848481518110610cd157610cd1612fbc565b60200260200101516001600160a01b03166001600160a01b031681526020019081526020015f205f828254610d069190613155565b92505081905550828181518110610d1f57610d1f612fbc565b602002602001015160015f8c6001600160a01b03166001600160a01b031681526020019081526020015f205f848481518110610d5d57610d5d612fbc565b60200260200101516001600160a01b03166001600160a01b031681526020019081526020015f205f828254610d929190613168565b9091555050600101610c78565b50505050505050505050565b5f805460408051630f8dfa6160e31b8152905183926001600160a01b031691637c6fd3089160048083019260209291908290030181865afa158015610df2573d5f803e3d5ffd5b505050506040513d601f19601f82011682018060405250810190610e169190612fd0565b90505f8411610e675760405162461bcd60e51b815260206004820181905260248201527f416d6f756e74206d7573742062652067726561746572207468616e207a65726f604482015260640161093f565b604051632d5e94a760e01b81526001600160a01b03878116600483015286811660248301525f9190831690632d5e94a790604401602060405180830381865afa158015610eb6573d5f803e3d5ffd5b505050506040513d601f19601f82011682018060405250810190610eda9190612fd0565b6001600160a01b038181165f9081526001602090815260408083208b85168452909152808220549051636eb1769f60e11b8152336004820152306024820152939450849390928b169063dd62ed3e90604401602060405180830381865afa158015610f47573d5f803e3d5ffd5b505050506040513d601f19601f82011682018060405250810190610f6b919061300f565b905087811015610fcd5760405162461bcd60e51b815260206004820152602760248201527f42616c756e695065726970686572793a20496e73756666696369656e7420616c6044820152666c6f77616e636560c81b606482015260840161093f565b6040516323b872dd60e01b81526001600160a01b038b16906323b872dd90610ffd90339030908d90600401612feb565b6020604051808303815f875af1158015611019573d5f803e3d5ffd5b505050506040513d601f19601f8201168201806040525081019061103d9190613070565b506001600160a01b038085165f908152600160209081526040808320938e16835292905290812080548a9290611074908490613155565b9091555050604051631ba0488760e21b81526001600160a01b038b811660048301528a81166024830152604482018a905288811660648301525f9190851690636e81221c906084016020604051808303815f875af11580156110d8573d5f803e3d5ffd5b505050506040513d601f19601f820116820180604052508101906110fc919061300f565b6001600160a01b038087165f908152600160209081526040808320938f16835292905290812080549293508392909190611137908490613168565b90915550506001600160a01b038086165f908152600160209081526040808320938e16835292905220546127106111708561138861303a565b61117a9190613051565b8110156111dd5760405162461bcd60e51b815260206004820152602b60248201527f506f6f6c205265736572766520697320756e646572203525206f6620696e697460448201526a69616c207265736572766560a81b606482015260840161093f565b60405163a9059cbb60e01b81526001600160a01b038a81166004830152602482018490528c169063a9059cbb906044016020604051808303815f875af1158015611229573d5f803e3d5ffd5b505050506040513d601f19601f8201168201806040525081019061124d9190613070565b50909b9a5050505050505050505050565b611266612738565b61126f5f612793565b565b5f8051602061320e8339815191528054829190600160401b900460ff16806112a6575080546001600160401b03808416911610155b156112c45760405163f92ee8a960e01b815260040160405180910390fd5b8054600160401b6001600160401b03841668ffffffffffffffffff1990921682171782555f80546001600160a01b0319166001600160a01b038716179055815460ff60401b191682556040519081527fc7f505b2f371ae2175ee4913f4499e1f2633a7b5936321eed1cdaeb6115181d29060200160405180910390a150505050565b6001600160a01b038083165f908152600160209081526040808320938516835292905220545b92915050565b604051630723c99960e01b81526001600160a01b03828116600483015283915f91831690630723c999906024015f604051808303815f875af11580156113ba573d5f803e3d5ffd5b505050506040513d5f823e601f3d908101601f191682016040526113e1919081019061317b565b90505f826001600160a01b03166367e4ac2c6040518163ffffffff1660e01b81526004015f60405180830381865afa15801561141f573d5f803e3d5ffd5b505050506040513d5f823e601f3d908101601f191682016040526114469190810190612f28565b90505f5b815181101561158a5782818151811061146557611465612fbc565b602002602001015160015f886001600160a01b03166001600160a01b031681526020019081526020015f205f8484815181106114a3576114a3612fbc565b60200260200101516001600160a01b03166001600160a01b031681526020019081526020015f205f8282546114d89190613155565b925050819055508181815181106114f1576114f1612fbc565b60200260200101516001600160a01b03166323b872dd863086858151811061151b5761151b612fbc565b60200260200101516040518463ffffffff1660e01b815260040161154193929190612feb565b6020604051808303815f875af115801561155d573d5f803e3d5ffd5b505050506040513d601f19601f820116820180604052508101906115819190613070565b5060010161144a565b505050505050565b5f805460408051630f8dfa6160e31b81529051606093926001600160a01b031691637c6fd3089160048083019260209291908290030181865afa1580156115db573d5f803e3d5ffd5b505050506040513d601f19601f820116820180604052508101906115ff9190612fd0565b604051635a1a073560e11b81526001600160a01b0385811660048301529192509082169063b4340e6a906024015f60405180830381865afa158015611646573d5f803e3d5ffd5b505050506040513d5f823e601f3d908101601f191682016040526106f19190810190612f28565b5f8051602061320e8339815191528054600160401b810460ff1615906001600160401b03165f8115801561169e5750825b90505f826001600160401b031660011480156116b95750303b155b9050811580156116c7575080155b156116e55760405163f92ee8a960e01b815260040160405180910390fd5b845467ffffffffffffffff19166001178555831561170f57845460ff60401b1916600160401b1785555b611717612803565b6117203361280b565b5f80546001600160a01b0319166001600160a01b038816179055831561158a57845460ff60401b19168555604051600181527fc7f505b2f371ae2175ee4913f4499e1f2633a7b5936321eed1cdaeb6115181d29060200160405180910390a1505050505050565b6060878614801561179757508584145b80156117a257508382145b6117ee5760405162461bcd60e51b815260206004820152601c60248201527f496e70757420617272617973206c656e677468206d69736d6174636800000000604482015260640161093f565b5f886001600160401b0381111561180757611807612b28565b604051908082528060200260200182016040528015611830578160200160208202803683370190505b5090505f5b89811015611a25575f87878381811061185057611850612fbc565b90506020020135116118a45760405162461bcd60e51b815260206004820181905260248201527f416d6f756e74206d7573742062652067726561746572207468616e207a65726f604482015260640161093f565b5f8b8b838181106118b7576118b7612fbc565b90506020020160208101906118cc9190612a4c565b90505f8a8a848181106118e1576118e1612fbc565b90506020020160208101906118f69190612a4c565b90505f89898581811061190b5761190b612fbc565b9050602002013590505f88888681811061192757611927612fbc565b905060200201602081019061193c9190612a4c565b6040516370a0823160e01b815233600482015290915082906001600160a01b038616906370a0823190602401602060405180830381865afa158015611983573d5f803e3d5ffd5b505050506040513d601f19601f820116820180604052508101906119a7919061300f565b10156119ec5760405162461bcd60e51b8152602060048201526014602482015273496e73756666696369656e742042616c616e636560601b604482015260640161093f565b6119f884848484610dab565b868681518110611a0a57611a0a612fbc565b60209081029190910101525050600190920191506118359050565b509998505050505050505050565b5f808390505f816001600160a01b03166367e4ac2c6040518163ffffffff1660e01b81526004015f60405180830381865afa158015611a74573d5f803e3d5ffd5b505050506040513d5f823e601f3d908101601f19168201604052611a9b9190810190612f28565b90505f5b8151811015611bdd57818181518110611aba57611aba612fbc565b60200260200101516001600160a01b03166323b872dd33308a8581518110611ae457611ae4612fbc565b60200260200101516040518463ffffffff1660e01b8152600401611b0a93929190612feb565b6020604051808303815f875af1158015611b26573d5f803e3d5ffd5b505050506040513d601f19601f82011682018060405250810190611b4a9190613070565b50868181518110611b5d57611b5d612fbc565b602002602001015160015f886001600160a01b03166001600160a01b031681526020019081526020015f205f848481518110611b9b57611b9b612fbc565b60200260200101516001600160a01b03166001600160a01b031681526020019081526020015f205f828254611bd09190613155565b9091555050600101611a9f565b5060405163de836ebd60e01b81526001600160a01b0383169063de836ebd90611c0c9087908a906004016131b4565b6020604051808303815f875af1158015611c28573d5f803e3d5ffd5b505050506040513d601f19601f82011682018060405250810190611c4c919061300f565b9695505050505050565b611c5e612738565b6001600160a01b038116611c8757604051631e4fbdf760e01b81525f600482015260240161093f565b611c9081612793565b50565b5f805f9054906101000a90046001600160a01b03166001600160a01b0316633b19e84a6040518163ffffffff1660e01b8152600401602060405180830381865afa158015611ce3573d5f803e3d5ffd5b505050506040513d601f19601f82011682018060405250810190611d079190612fd0565b90505f805f9054906101000a90046001600160a01b03166001600160a01b03166385462d6f6040518163ffffffff1660e01b8152600401602060405180830381865afa158015611d59573d5f803e3d5ffd5b505050506040513d601f19601f82011682018060405250810190611d7d919061300f565b90505f805f9054906101000a90046001600160a01b03166001600160a01b0316634f4608a26040518163ffffffff1660e01b8152600401602060405180830381865afa158015611dcf573d5f803e3d5ffd5b505050506040513d601f19601f82011682018060405250810190611df3919061300f565b90505f8611611e445760405162461bcd60e51b815260206004820152601f60248201527f5368617265206d7573742062652067726561746572207468616e207a65726f00604482015260640161093f565b604051636eb1769f60e11b815233600482015230602482015285905f906001600160a01b0383169063dd62ed3e90604401602060405180830381865afa158015611e90573d5f803e3d5ffd5b505050506040513d601f19601f82011682018060405250810190611eb4919061300f565b905087811015611eff5760405162461bcd60e51b8152602060048201526016602482015275496e73756666696369656e7420616c6c6f77616e636560501b604482015260640161093f565b6040516370a0823160e01b81523360048201525f906001600160a01b038416906370a0823190602401602060405180830381865afa158015611f43573d5f803e3d5ffd5b505050506040513d601f19601f82011682018060405250810190611f67919061300f565b905088811015611fb05760405162461bcd60e51b8152602060048201526014602482015273496e73756666696369656e742062616c616e636560601b604482015260640161093f565b6040516323b872dd60e01b81525f906001600160a01b038516906323b872dd90611fe290339030908f90600401612feb565b6020604051808303815f875af1158015611ffe573d5f803e3d5ffd5b505050506040513d601f19601f820116820180604052508101906120229190613070565b9050806120675760405162461bcd60e51b8152602060048201526013602482015272151c985b9cd9995c919c9bdb4819985a5b1959606a1b604482015260640161093f565b60405163a9059cbb60e01b81526001600160a01b038a81166004830152602482018c90525f919086169063a9059cbb906044016020604051808303815f875af11580156120b6573d5f803e3d5ffd5b505050506040513d601f19601f820116820180604052508101906120da9190613070565b90508061211b5760405162461bcd60e51b815260206004820152600f60248201526e151c985b9cd9995c8819985a5b1959608a1b604482015260640161093f565b60405163226bf2d160e21b81526001600160a01b038a811660048301525f91908c16906389afcb44906024015f604051808303815f875af1158015612162573d5f803e3d5ffd5b505050506040513d5f823e601f3d908101601f19168201604052612189919081019061317b565b90505f8b6001600160a01b03166367e4ac2c6040518163ffffffff1660e01b81526004015f60405180830381865afa1580156121c7573d5f803e3d5ffd5b505050506040513d5f823e601f3d908101601f191682016040526121ee9190810190612f28565b90508b8b5f5b8351811015612570575f8b8d87848151811061221257612212612fbc565b6020026020010151612224919061303a565b61222e9190613051565b905084828151811061224257612242612fbc565b60200260200101516001600160a01b031663a9059cbb8f836040518363ffffffff1660e01b815260040161228b9291906001600160a01b03929092168252602082015260400190565b6020604051808303815f875af11580156122a7573d5f803e3d5ffd5b505050506040513d601f19601f820116820180604052508101906122cb9190613070565b508582815181106122de576122de612fbc565b60200260200101518583815181106122f8576122f8612fbc565b60209081029190910101516040516370a0823160e01b81523060048201526001600160a01b03909116906370a0823190602401602060405180830381865afa158015612346573d5f803e3d5ffd5b505050506040513d601f19601f8201168201806040525081019061236a919061300f565b10156123b15760405162461bcd60e51b8152602060048201526016602482015275496e73756666696369656e74204c697175696469747960501b604482015260640161093f565b8582815181106123c3576123c3612fbc565b602002602001015160015f866001600160a01b03166001600160a01b031681526020019081526020015f205f87858151811061240157612401612fbc565b60200260200101516001600160a01b03166001600160a01b031681526020019081526020015f205f8282546124369190613168565b925050819055508086838151811061245057612450612fbc565b602002602001018181516124649190613168565b90525084515f9086908490811061247d5761247d612fbc565b60200260200101516001600160a01b031663a9059cbb858986815181106124a6576124a6612fbc565b60200260200101516040518363ffffffff1660e01b81526004016124df9291906001600160a01b03929092168252602082015260400190565b6020604051808303815f875af11580156124fb573d5f803e3d5ffd5b505050506040513d601f19601f8201168201806040525081019061251f9190613070565b9050806125665760405162461bcd60e51b8152602060048201526015602482015274105cdcd95d081d1c985b9cd9995c8819985a5b1959605a1b604482015260640161093f565b50506001016121f4565b50505050505050505050505050505050565b306001600160a01b037f000000000000000000000000000000000000000000000000000000000000000016148061260857507f00000000000000000000000000000000000000000000000000000000000000006001600160a01b03166125fc5f805160206131ee833981519152546001600160a01b031690565b6001600160a01b031614155b1561126f5760405163703e46dd60e11b815260040160405180910390fd5b611c90612738565b816001600160a01b03166352d1902d6040518163ffffffff1660e01b8152600401602060405180830381865afa925050508015612688575060408051601f3d908101601f191682019092526126859181019061300f565b60015b6126b057604051634c9c8ce360e01b81526001600160a01b038316600482015260240161093f565b5f805160206131ee83398151915281146126e057604051632a87526960e21b81526004810182905260240161093f565b6126ea838361281c565b505050565b306001600160a01b037f0000000000000000000000000000000000000000000000000000000000000000161461126f5760405163703e46dd60e11b815260040160405180910390fd5b3361276a7f9016d09d72d40fdae2fd8ceac6b6234c7706214fd39c1cd1e609a0528c199300546001600160a01b031690565b6001600160a01b03161461126f5760405163118cdaa760e01b815233600482015260240161093f565b7f9016d09d72d40fdae2fd8ceac6b6234c7706214fd39c1cd1e609a0528c19930080546001600160a01b031981166001600160a01b03848116918217845560405192169182907f8be0079c531659141344cd1fd0a4f28419497f9722a3daafe3b4186f6b6457e0905f90a3505050565b61126f612871565b612813612871565b611c90816128a7565b612825826128af565b6040516001600160a01b038316907fbc7cd75a20ee27fd9adebab32041f755214dbc6bffa90cc0225b39da2e5c2d3b905f90a2805115612869576126ea8282612912565b610713612984565b5f8051602061320e83398151915254600160401b900460ff1661126f57604051631afcd79f60e31b815260040160405180910390fd5b611c5e612871565b806001600160a01b03163b5f036128e457604051634c9c8ce360e01b81526001600160a01b038216600482015260240161093f565b5f805160206131ee83398151915280546001600160a01b0319166001600160a01b0392909216919091179055565b60605f80846001600160a01b03168460405161292e91906131d7565b5f60405180830381855af49150503d805f8114612966576040519150601f19603f3d011682016040523d82523d5f602084013e61296b565b606091505b509150915061297b8583836129a3565b95945050505050565b341561126f5760405163b398979f60e01b815260040160405180910390fd5b6060826129b8576129b3826129ff565b6106f1565b81511580156129cf57506001600160a01b0384163b155b156129f857604051639996b31560e01b81526001600160a01b038516600482015260240161093f565b50806106f1565b805115612a0f5780518082602001fd5b604051630a12f52160e11b815260040160405180910390fd5b6001600160a01b0381168114611c90575f80fd5b8035612a4781612a28565b919050565b5f60208284031215612a5c575f80fd5b81356106f181612a28565b5f815180845260208085019450602084015f5b83811015612a9657815187529582019590820190600101612a7a565b509495945050505050565b602081525f6106f16020830184612a67565b5f8060408385031215612ac4575f80fd5b8235612acf81612a28565b91506020830135612adf81612a28565b809150509250929050565b5f805f60608486031215612afc575f80fd5b8335612b0781612a28565b92506020840135612b1781612a28565b929592945050506040919091013590565b634e487b7160e01b5f52604160045260245ffd5b604051601f8201601f191681016001600160401b0381118282101715612b6457612b64612b28565b604052919050565b5f8060408385031215612b7d575f80fd5b8235612b8881612a28565b91506020838101356001600160401b0380821115612ba4575f80fd5b818601915086601f830112612bb7575f80fd5b813581811115612bc957612bc9612b28565b612bdb601f8201601f19168501612b3c565b91508082528784828501011115612bf0575f80fd5b80848401858401375f848284010152508093505050509250929050565b5f805f8060808587031215612c20575f80fd5b8435612c2b81612a28565b93506020850135612c3b81612a28565b9250604085013591506060850135612c5281612a28565b939692955090935050565b5f8060408385031215612c6e575f80fd5b8235612c7981612a28565b915060208301356001600160401b0381168114612adf575f80fd5b602081525f82518060208401528060208501604085015e5f604082850101526040601f19601f83011684010191505092915050565b602080825282518282018190525f9190848201906040850190845b81811015612d095783516001600160a01b031683529284019291840191600101612ce4565b50909695505050505050565b5f8083601f840112612d25575f80fd5b5081356001600160401b03811115612d3b575f80fd5b6020830191508360208260051b8501011115612d55575f80fd5b9250929050565b5f805f805f805f806080898b031215612d73575f80fd5b88356001600160401b0380821115612d89575f80fd5b612d958c838d01612d15565b909a50985060208b0135915080821115612dad575f80fd5b612db98c838d01612d15565b909850965060408b0135915080821115612dd1575f80fd5b612ddd8c838d01612d15565b909650945060608b0135915080821115612df5575f80fd5b50612e028b828c01612d15565b999c989b5096995094979396929594505050565b5f6001600160401b03821115612e2e57612e2e612b28565b5060051b60200190565b5f805f60608486031215612e4a575f80fd5b83356001600160401b03811115612e5f575f80fd5b8401601f81018613612e6f575f80fd5b80356020612e84612e7f83612e16565b612b3c565b82815260059290921b83018101918181019089841115612ea2575f80fd5b938201935b83851015612ec057843582529382019390820190612ea7565b9650612ecf9050878201612a3c565b9450505050612ee060408501612a3c565b90509250925092565b5f805f60608486031215612efb575f80fd5b833592506020840135612f0d81612a28565b91506040840135612f1d81612a28565b809150509250925092565b5f6020808385031215612f39575f80fd5b82516001600160401b03811115612f4e575f80fd5b8301601f81018513612f5e575f80fd5b8051612f6c612e7f82612e16565b81815260059190911b82018301908381019087831115612f8a575f80fd5b928401925b82841015612fb1578351612fa281612a28565b82529284019290840190612f8f565b979650505050505050565b634e487b7160e01b5f52603260045260245ffd5b5f60208284031215612fe0575f80fd5b81516106f181612a28565b6001600160a01b039384168152919092166020820152604081019190915260600190565b5f6020828403121561301f575f80fd5b5051919050565b634e487b7160e01b5f52601160045260245ffd5b808202811582820484141761136c5761136c613026565b5f8261306b57634e487b7160e01b5f52601260045260245ffd5b500490565b5f60208284031215613080575f80fd5b815180151581146106f1575f80fd5b5f82601f83011261309e575f80fd5b815160206130ae612e7f83612e16565b8083825260208201915060208460051b8701019350868411156130cf575f80fd5b602086015b848110156130eb57805183529183019183016130d4565b509695505050505050565b5f8060408385031215613107575f80fd5b82516001600160401b038082111561311d575f80fd5b6131298683870161308f565b9350602085015191508082111561313e575f80fd5b5061314b8582860161308f565b9150509250929050565b8082018082111561136c5761136c613026565b8181038181111561136c5761136c613026565b5f6020828403121561318b575f80fd5b81516001600160401b038111156131a0575f80fd5b6131ac8482850161308f565b949350505050565b6001600160a01b03831681526040602082018190525f906131ac90830184612a67565b5f82518060208501845e5f92019182525091905056fe360894a13ba1a3210667c828492db98dca3e2076cc3735a920a3ca505d382bbcf0c57e16840df040f15088dc2f81fe391c3923bec73e23a9662efc9c229c6a00a26469706673582212201efc8c2a0e76120488d16bd98ba203f7f63a25a344cb87115d72db6930b2475564736f6c63430008190033",
  "linkReferences": {},
  "deployedLinkReferences": {}
}