{
  "_format": "hh-sol-artifact-1",
  "contractName": "BaluniV1PoolPeriphery",
  "sourceName": "contracts/BaluniV1PoolPeriphery.sol",
  "abi": [
    {
      "inputs": [
        {
          "internalType": "address",
          "name": "target",
          "type": "address"
        }
      ],
      "name": "AddressEmptyCode",
      "type": "error"
    },
    {
      "inputs": [
        {
          "internalType": "address",
          "name": "implementation",
          "type": "address"
        }
      ],
      "name": "ERC1967InvalidImplementation",
      "type": "error"
    },
    {
      "inputs": [],
      "name": "ERC1967NonPayable",
      "type": "error"
    },
    {
      "inputs": [],
      "name": "FailedInnerCall",
      "type": "error"
    },
    {
      "inputs": [],
      "name": "InvalidInitialization",
      "type": "error"
    },
    {
      "inputs": [],
      "name": "NotInitializing",
      "type": "error"
    },
    {
      "inputs": [
        {
          "internalType": "address",
          "name": "owner",
          "type": "address"
        }
      ],
      "name": "OwnableInvalidOwner",
      "type": "error"
    },
    {
      "inputs": [
        {
          "internalType": "address",
          "name": "account",
          "type": "address"
        }
      ],
      "name": "OwnableUnauthorizedAccount",
      "type": "error"
    },
    {
      "inputs": [],
      "name": "UUPSUnauthorizedCallContext",
      "type": "error"
    },
    {
      "inputs": [
        {
          "internalType": "bytes32",
          "name": "slot",
          "type": "bytes32"
        }
      ],
      "name": "UUPSUnsupportedProxiableUUID",
      "type": "error"
    },
    {
      "anonymous": false,
      "inputs": [
        {
          "indexed": false,
          "internalType": "uint64",
          "name": "version",
          "type": "uint64"
        }
      ],
      "name": "Initialized",
      "type": "event"
    },
    {
      "anonymous": false,
      "inputs": [
        {
          "indexed": true,
          "internalType": "address",
          "name": "previousOwner",
          "type": "address"
        },
        {
          "indexed": true,
          "internalType": "address",
          "name": "newOwner",
          "type": "address"
        }
      ],
      "name": "OwnershipTransferred",
      "type": "event"
    },
    {
      "anonymous": false,
      "inputs": [
        {
          "indexed": true,
          "internalType": "address",
          "name": "implementation",
          "type": "address"
        }
      ],
      "name": "Upgraded",
      "type": "event"
    },
    {
      "inputs": [],
      "name": "UPGRADE_INTERFACE_VERSION",
      "outputs": [
        {
          "internalType": "string",
          "name": "",
          "type": "string"
        }
      ],
      "stateMutability": "view",
      "type": "function"
    },
    {
      "inputs": [
        {
          "internalType": "uint256[]",
          "name": "amounts",
          "type": "uint256[]"
        },
        {
          "internalType": "address",
          "name": "poolAddress",
          "type": "address"
        },
        {
          "internalType": "address",
          "name": "receiver",
          "type": "address"
        }
      ],
      "name": "addLiquidity",
      "outputs": [
        {
          "internalType": "uint256",
          "name": "",
          "type": "uint256"
        }
      ],
      "stateMutability": "nonpayable",
      "type": "function"
    },
    {
      "inputs": [
        {
          "internalType": "address[]",
          "name": "fromTokens",
          "type": "address[]"
        },
        {
          "internalType": "address[]",
          "name": "toTokens",
          "type": "address[]"
        },
        {
          "internalType": "uint256[]",
          "name": "amounts",
          "type": "uint256[]"
        },
        {
          "internalType": "address[]",
          "name": "receivers",
          "type": "address[]"
        }
      ],
      "name": "batchSwap",
      "outputs": [
        {
          "internalType": "uint256[]",
          "name": "",
          "type": "uint256[]"
        }
      ],
      "stateMutability": "nonpayable",
      "type": "function"
    },
    {
      "inputs": [
        {
          "internalType": "address",
          "name": "fromToken",
          "type": "address"
        },
        {
          "internalType": "address",
          "name": "toToken",
          "type": "address"
        },
        {
          "internalType": "uint256",
          "name": "amount",
          "type": "uint256"
        }
      ],
      "name": "getAmountOut",
      "outputs": [
        {
          "internalType": "uint256",
          "name": "",
          "type": "uint256"
        }
      ],
      "stateMutability": "view",
      "type": "function"
    },
    {
      "inputs": [
        {
          "internalType": "address",
          "name": "pool",
          "type": "address"
        },
        {
          "internalType": "address",
          "name": "asset",
          "type": "address"
        }
      ],
      "name": "getAssetReserve",
      "outputs": [
        {
          "internalType": "uint256",
          "name": "",
          "type": "uint256"
        }
      ],
      "stateMutability": "view",
      "type": "function"
    },
    {
      "inputs": [
        {
          "internalType": "address",
          "name": "token",
          "type": "address"
        }
      ],
      "name": "getPoolsContainingToken",
      "outputs": [
        {
          "internalType": "address[]",
          "name": "",
          "type": "address[]"
        }
      ],
      "stateMutability": "view",
      "type": "function"
    },
    {
      "inputs": [
        {
          "internalType": "address",
          "name": "pool",
          "type": "address"
        }
      ],
      "name": "getReserves",
      "outputs": [
        {
          "internalType": "uint256[]",
          "name": "",
          "type": "uint256[]"
        }
      ],
      "stateMutability": "view",
      "type": "function"
    },
    {
      "inputs": [],
      "name": "getVersion",
      "outputs": [
        {
          "internalType": "uint64",
          "name": "",
          "type": "uint64"
        }
      ],
      "stateMutability": "view",
      "type": "function"
    },
    {
      "inputs": [
        {
          "internalType": "address",
          "name": "_registry",
          "type": "address"
        }
      ],
      "name": "initialize",
      "outputs": [],
      "stateMutability": "nonpayable",
      "type": "function"
    },
    {
      "inputs": [],
      "name": "owner",
      "outputs": [
        {
          "internalType": "address",
          "name": "",
          "type": "address"
        }
      ],
      "stateMutability": "view",
      "type": "function"
    },
    {
      "inputs": [
        {
          "internalType": "address",
          "name": "poolAddress",
          "type": "address"
        }
      ],
      "name": "performRebalanceIfNeeded",
      "outputs": [],
      "stateMutability": "nonpayable",
      "type": "function"
    },
    {
      "inputs": [
        {
          "internalType": "address",
          "name": "",
          "type": "address"
        },
        {
          "internalType": "address",
          "name": "",
          "type": "address"
        }
      ],
      "name": "poolsReserves",
      "outputs": [
        {
          "internalType": "uint256",
          "name": "",
          "type": "uint256"
        }
      ],
      "stateMutability": "view",
      "type": "function"
    },
    {
      "inputs": [],
      "name": "proxiableUUID",
      "outputs": [
        {
          "internalType": "bytes32",
          "name": "",
          "type": "bytes32"
        }
      ],
      "stateMutability": "view",
      "type": "function"
    },
    {
      "inputs": [
        {
          "internalType": "address",
          "name": "poolAddress",
          "type": "address"
        },
        {
          "internalType": "address",
          "name": "receiver",
          "type": "address"
        }
      ],
      "name": "rebalanceWeights",
      "outputs": [],
      "stateMutability": "nonpayable",
      "type": "function"
    },
    {
      "inputs": [],
      "name": "registry",
      "outputs": [
        {
          "internalType": "contract IBaluniV1Registry",
          "name": "",
          "type": "address"
        }
      ],
      "stateMutability": "view",
      "type": "function"
    },
    {
      "inputs": [
        {
          "internalType": "address",
          "name": "_registry",
          "type": "address"
        },
        {
          "internalType": "uint64",
          "name": "version",
          "type": "uint64"
        }
      ],
      "name": "reinitialize",
      "outputs": [],
      "stateMutability": "nonpayable",
      "type": "function"
    },
    {
      "inputs": [
        {
          "internalType": "uint256",
          "name": "share",
          "type": "uint256"
        },
        {
          "internalType": "address",
          "name": "poolAddress",
          "type": "address"
        },
        {
          "internalType": "address",
          "name": "receiver",
          "type": "address"
        }
      ],
      "name": "removeLiquidity",
      "outputs": [],
      "stateMutability": "nonpayable",
      "type": "function"
    },
    {
      "inputs": [],
      "name": "renounceOwnership",
      "outputs": [],
      "stateMutability": "nonpayable",
      "type": "function"
    },
    {
      "inputs": [
        {
          "internalType": "address",
          "name": "fromToken",
          "type": "address"
        },
        {
          "internalType": "address",
          "name": "toToken",
          "type": "address"
        },
        {
          "internalType": "uint256",
          "name": "amount",
          "type": "uint256"
        },
        {
          "internalType": "address",
          "name": "receiver",
          "type": "address"
        }
      ],
      "name": "swap",
      "outputs": [
        {
          "internalType": "uint256",
          "name": "",
          "type": "uint256"
        }
      ],
      "stateMutability": "nonpayable",
      "type": "function"
    },
    {
      "inputs": [
        {
          "internalType": "address",
          "name": "newOwner",
          "type": "address"
        }
      ],
      "name": "transferOwnership",
      "outputs": [],
      "stateMutability": "nonpayable",
      "type": "function"
    },
    {
      "inputs": [
        {
          "internalType": "address",
          "name": "newImplementation",
          "type": "address"
        },
        {
          "internalType": "bytes",
          "name": "data",
          "type": "bytes"
        }
      ],
      "name": "upgradeToAndCall",
      "outputs": [],
      "stateMutability": "payable",
      "type": "function"
    }
  ],
  "bytecode": "0x60a0604052306080523480156012575f80fd5b506080516132686100395f395f8181612489015281816124b2015261266701526132685ff3fe608060405260043610610162575f3560e01c80638da5cb5b116100c6578063ae3cce1c1161007c578063ec0cd2eb11610057578063ec0cd2eb14610430578063f2fde38b1461044f578063f31abcc41461046e575f80fd5b8063ae3cce1c146103c6578063c4d66de8146103f2578063e74e9b0614610411575f80fd5b8063a3e113fb116100ac578063a3e113fb14610333578063ad3cb1cc14610352578063ad414263146103a7575f80fd5b80638da5cb5b146102d85780638f2248bc14610314575f80fd5b806352d1902d1161011b5780636e81221c116101015780636e81221c1461026f578063715018a61461028e5780637b103999146102a2575f80fd5b806352d1902d1461023c5780635568081a14610250575f80fd5b80634056c37f1161014b5780634056c37f146101c45780634aa06652146102085780634f1ef28614610227575f80fd5b80630d8e6e2c146101665780633e99c1e414610198575b5f80fd5b348015610171575f80fd5b5061017a61048d565b60405167ffffffffffffffff90911681526020015b60405180910390f35b3480156101a3575f80fd5b506101b76101b2366004612aad565b6104c5565b60405161018f9190612b02565b3480156101cf575f80fd5b506101fa6101de366004612b14565b600160209081525f928352604080842090915290825290205481565b60405190815260200161018f565b348015610213575f80fd5b506101fa610222366004612b4b565b610601565b61023a610235366004612bce565b61079c565b005b348015610247575f80fd5b506101fa6107bb565b34801561025b575f80fd5b5061023a61026a366004612aad565b6107e9565b34801561027a575f80fd5b506101fa610289366004612c70565b610b9b565b348015610299575f80fd5b5061023a610f23565b3480156102ad575f80fd5b505f546102c0906001600160a01b031681565b6040516001600160a01b03909116815260200161018f565b3480156102e3575f80fd5b507f9016d09d72d40fdae2fd8ceac6b6234c7706214fd39c1cd1e609a0528c199300546001600160a01b03166102c0565b34801561031f575f80fd5b5061023a61032e366004612cc0565b610f36565b34801561033e575f80fd5b506101fa61034d366004612b14565b61106b565b34801561035d575f80fd5b5061039a6040518060400160405280600581526020017f352e302e3000000000000000000000000000000000000000000000000000000081525081565b60405161018f9190612cf8565b3480156103b2575f80fd5b5061023a6103c1366004612b14565b611097565b3480156103d1575f80fd5b506103e56103e0366004612aad565b611302565b60405161018f9190612d2d565b3480156103fd575f80fd5b5061023a61040c366004612aad565b6113f6565b34801561041c575f80fd5b506101b761042b366004612dc1565b611576565b34801561043b575f80fd5b506101fa61044a366004612e9f565b61182c565b34801561045a575f80fd5b5061023a610469366004612aad565b611a9a565b348015610479575f80fd5b5061023a610488366004612f51565b611af0565b5f6104c07ff0c57e16840df040f15088dc2f81fe391c3923bec73e23a9662efc9c229c6a005467ffffffffffffffff1690565b905090565b60605f826001600160a01b03166367e4ac2c6040518163ffffffff1660e01b81526004015f60405180830381865afa158015610503573d5f803e3d5ffd5b505050506040513d5f823e601f3d908101601f1916820160405261052a9190810190612f90565b90505f815167ffffffffffffffff81111561054757610547612b89565b604051908082528060200260200182016040528015610570578160200160208202803683370190505b5090505f5b82518110156105f9576001600160a01b0385165f90815260016020526040812084519091908590849081106105ac576105ac613025565b60200260200101516001600160a01b03166001600160a01b031681526020019081526020015f20548282815181106105e6576105e6613025565b6020908102919091010152600101610575565b509392505050565b5f805460408051630f8dfa6160e31b8152905183926001600160a01b031691637c6fd3089160048083019260209291908290030181865afa158015610648573d5f803e3d5ffd5b505050506040513d601f19601f8201168201806040525081019061066c9190613039565b6040517f2d5e94a70000000000000000000000000000000000000000000000000000000081526001600160a01b03878116600483015286811660248301529192505f91831690632d5e94a790604401602060405180830381865afa1580156106d6573d5f803e3d5ffd5b505050506040513d601f19601f820116820180604052508101906106fa9190613039565b6040517f4aa066520000000000000000000000000000000000000000000000000000000081526001600160a01b0388811660048301528781166024830152604482018790529192508291821690634aa0665290606401602060405180830381865afa15801561076b573d5f803e3d5ffd5b505050506040513d601f19601f8201168201806040525081019061078f9190613054565b93505050505b9392505050565b6107a461247e565b6107ad8261254e565b6107b78282612556565b5050565b5f6107c461265c565b507f360894a13ba1a3210667c828492db98dca3e2076cc3735a920a3ca505d382bbc90565b5f805f9054906101000a90046001600160a01b03166001600160a01b0316634f4608a26040518163ffffffff1660e01b8152600401602060405180830381865afa158015610839573d5f803e3d5ffd5b505050506040513d601f19601f8201168201806040525081019061085d9190613054565b6040516370a0823160e01b815233600482015290915082905f906001600160a01b038316906370a0823190602401602060405180830381865afa1580156108a6573d5f803e3d5ffd5b505050506040513d601f19601f820116820180604052508101906108ca9190613054565b90505f846001600160a01b03166318160ddd6040518163ffffffff1660e01b8152600401602060405180830381865afa158015610909573d5f803e3d5ffd5b505050506040513d601f19601f8201168201806040525081019061092d9190613054565b905060648161093c868561307f565b6109469190613096565b10156109995760405162461bcd60e51b815260206004820152601460248201527f496e73756666696369656e742062616c616e636500000000000000000000000060448201526064015b60405180910390fd5b5f80846001600160a01b031663f47b45e86040518163ffffffff1660e01b81526004015f604051808303815f875af11580156109d7573d5f803e3d5ffd5b505050506040513d5f823e601f3d908101601f191682016040526109fe919081019061311c565b915091505f856001600160a01b03166367e4ac2c6040518163ffffffff1660e01b81526004015f60405180830381865afa158015610a3e573d5f803e3d5ffd5b505050506040513d5f823e601f3d908101601f19168201604052610a659190810190612f90565b90505f5b8151811015610b9057838181518110610a8457610a84613025565b602002602001015160015f8b6001600160a01b03166001600160a01b031681526020019081526020015f205f848481518110610ac257610ac2613025565b60200260200101516001600160a01b03166001600160a01b031681526020019081526020015f205f828254610af7919061317c565b92505081905550828181518110610b1057610b10613025565b602002602001015160015f8b6001600160a01b03166001600160a01b031681526020019081526020015f205f848481518110610b4e57610b4e613025565b60200260200101516001600160a01b03166001600160a01b031681526020019081526020015f205f828254610b83919061318f565b9091555050600101610a69565b505050505050505050565b5f805460408051630f8dfa6160e31b8152905183926001600160a01b031691637c6fd3089160048083019260209291908290030181865afa158015610be2573d5f803e3d5ffd5b505050506040513d601f19601f82011682018060405250810190610c069190613039565b90505f8411610c575760405162461bcd60e51b815260206004820181905260248201527f416d6f756e74206d7573742062652067726561746572207468616e207a65726f6044820152606401610990565b6040517f2d5e94a70000000000000000000000000000000000000000000000000000000081526001600160a01b03878116600483015286811660248301525f9190831690632d5e94a790604401602060405180830381865afa158015610cbf573d5f803e3d5ffd5b505050506040513d601f19601f82011682018060405250810190610ce39190613039565b6040517f23b872dd0000000000000000000000000000000000000000000000000000000081523360048201523060248201526044810187905290915081906001600160a01b038916906323b872dd906064016020604051808303815f875af1158015610d51573d5f803e3d5ffd5b505050506040513d601f19601f82011682018060405250810190610d7591906131a2565b506001600160a01b038083165f908152600160209081526040808320938c1683529290529081208054889290610dac90849061317c565b90915550506040517f6e81221c0000000000000000000000000000000000000000000000000000000081526001600160a01b03898116600483015288811660248301526044820188905286811660648301525f9190831690636e81221c906084016020604051808303815f875af1158015610e29573d5f803e3d5ffd5b505050506040513d601f19601f82011682018060405250810190610e4d9190613054565b6001600160a01b038085165f908152600160209081526040808320938d16835292905290812080549293508392909190610e8890849061318f565b90915550506040517fa9059cbb0000000000000000000000000000000000000000000000000000000081526001600160a01b0387811660048301526024820183905289169063a9059cbb906044016020604051808303815f875af1158015610ef2573d5f803e3d5ffd5b505050506040513d601f19601f82011682018060405250810190610f1691906131a2565b5098975050505050505050565b610f2b6126be565b610f345f612732565b565b7ff0c57e16840df040f15088dc2f81fe391c3923bec73e23a9662efc9c229c6a00805482919068010000000000000000900460ff1680610f845750805467ffffffffffffffff808416911610155b15610fbb576040517ff92ee8a900000000000000000000000000000000000000000000000000000000815260040160405180910390fd5b80546801000000000000000067ffffffffffffffff84167fffffffffffffffffffffffffffffffffffffffffffffff00000000000000000090921682171782555f805473ffffffffffffffffffffffffffffffffffffffff19166001600160a01b038716179055815468ff0000000000000000191682556040519081527fc7f505b2f371ae2175ee4913f4499e1f2633a7b5936321eed1cdaeb6115181d29060200160405180910390a150505050565b6001600160a01b038083165f908152600160209081526040808320938516835292905220545b92915050565b6040517f0723c9990000000000000000000000000000000000000000000000000000000081526001600160a01b03828116600483015283915f91831690630723c999906024015f604051808303815f875af11580156110f8573d5f803e3d5ffd5b505050506040513d5f823e601f3d908101601f1916820160405261111f91908101906131c1565b90505f826001600160a01b03166367e4ac2c6040518163ffffffff1660e01b81526004015f60405180830381865afa15801561115d573d5f803e3d5ffd5b505050506040513d5f823e601f3d908101601f191682016040526111849190810190612f90565b90505f5b81518110156112fa578281815181106111a3576111a3613025565b602002602001015160015f886001600160a01b03166001600160a01b031681526020019081526020015f205f8484815181106111e1576111e1613025565b60200260200101516001600160a01b03166001600160a01b031681526020019081526020015f205f828254611216919061317c565b9250508190555081818151811061122f5761122f613025565b60200260200101516001600160a01b03166323b872dd863086858151811061125957611259613025565b60209081029190910101516040517fffffffff0000000000000000000000000000000000000000000000000000000060e086901b1681526001600160a01b03938416600482015292909116602483015260448201526064016020604051808303815f875af11580156112cd573d5f803e3d5ffd5b505050506040513d601f19601f820116820180604052508101906112f191906131a2565b50600101611188565b505050505050565b5f805460408051630f8dfa6160e31b81529051606093926001600160a01b031691637c6fd3089160048083019260209291908290030181865afa15801561134b573d5f803e3d5ffd5b505050506040513d601f19601f8201168201806040525081019061136f9190613039565b6040517fb4340e6a0000000000000000000000000000000000000000000000000000000081526001600160a01b0385811660048301529192509082169063b4340e6a906024015f60405180830381865afa1580156113cf573d5f803e3d5ffd5b505050506040513d5f823e601f3d908101601f191682016040526107959190810190612f90565b7ff0c57e16840df040f15088dc2f81fe391c3923bec73e23a9662efc9c229c6a00805468010000000000000000810460ff16159067ffffffffffffffff165f811580156114405750825b90505f8267ffffffffffffffff16600114801561145c5750303b155b90508115801561146a575080155b156114a1576040517ff92ee8a900000000000000000000000000000000000000000000000000000000815260040160405180910390fd5b84547fffffffffffffffffffffffffffffffffffffffffffffffff000000000000000016600117855583156114ec57845468ff00000000000000001916680100000000000000001785555b6114f46127af565b6114fd336127b7565b5f805473ffffffffffffffffffffffffffffffffffffffff19166001600160a01b03881617905583156112fa57845468ff000000000000000019168555604051600181527fc7f505b2f371ae2175ee4913f4499e1f2633a7b5936321eed1cdaeb6115181d29060200160405180910390a1505050505050565b6060878614801561158657508584145b801561159157508382145b6115dd5760405162461bcd60e51b815260206004820152601c60248201527f496e70757420617272617973206c656e677468206d69736d61746368000000006044820152606401610990565b5f8867ffffffffffffffff8111156115f7576115f7612b89565b604051908082528060200260200182016040528015611620578160200160208202803683370190505b5090505f5b8981101561181e575f87878381811061164057611640613025565b90506020020135116116945760405162461bcd60e51b815260206004820181905260248201527f416d6f756e74206d7573742062652067726561746572207468616e207a65726f6044820152606401610990565b5f8b8b838181106116a7576116a7613025565b90506020020160208101906116bc9190612aad565b90505f8a8a848181106116d1576116d1613025565b90506020020160208101906116e69190612aad565b90505f8989858181106116fb576116fb613025565b9050602002013590505f88888681811061171757611717613025565b905060200201602081019061172c9190612aad565b6040516370a0823160e01b815233600482015290915082906001600160a01b038616906370a0823190602401602060405180830381865afa158015611773573d5f803e3d5ffd5b505050506040513d601f19601f820116820180604052508101906117979190613054565b10156117e55760405162461bcd60e51b815260206004820152601460248201527f496e73756666696369656e742042616c616e63650000000000000000000000006044820152606401610990565b6117f184848484610b9b565b86868151811061180357611803613025565b60209081029190910101525050600190920191506116259050565b509998505050505050505050565b5f808390505f816001600160a01b03166367e4ac2c6040518163ffffffff1660e01b81526004015f60405180830381865afa15801561186d573d5f803e3d5ffd5b505050506040513d5f823e601f3d908101601f191682016040526118949190810190612f90565b90505f5b8151811015611a08578181815181106118b3576118b3613025565b60200260200101516001600160a01b03166323b872dd33308a85815181106118dd576118dd613025565b60209081029190910101516040517fffffffff0000000000000000000000000000000000000000000000000000000060e086901b1681526001600160a01b03938416600482015292909116602483015260448201526064016020604051808303815f875af1158015611951573d5f803e3d5ffd5b505050506040513d601f19601f8201168201806040525081019061197591906131a2565b5086818151811061198857611988613025565b602002602001015160015f886001600160a01b03166001600160a01b031681526020019081526020015f205f8484815181106119c6576119c6613025565b60200260200101516001600160a01b03166001600160a01b031681526020019081526020015f205f8282546119fb919061317c565b9091555050600101611898565b506040517fde836ebd0000000000000000000000000000000000000000000000000000000081526001600160a01b0383169063de836ebd90611a509087908a906004016131fb565b6020604051808303815f875af1158015611a6c573d5f803e3d5ffd5b505050506040513d601f19601f82011682018060405250810190611a909190613054565b9695505050505050565b611aa26126be565b6001600160a01b038116611ae4576040517f1e4fbdf70000000000000000000000000000000000000000000000000000000081525f6004820152602401610990565b611aed81612732565b50565b5f805f9054906101000a90046001600160a01b03166001600160a01b0316633b19e84a6040518163ffffffff1660e01b8152600401602060405180830381865afa158015611b40573d5f803e3d5ffd5b505050506040513d601f19601f82011682018060405250810190611b649190613039565b90505f805f9054906101000a90046001600160a01b03166001600160a01b03166385462d6f6040518163ffffffff1660e01b8152600401602060405180830381865afa158015611bb6573d5f803e3d5ffd5b505050506040513d601f19601f82011682018060405250810190611bda9190613054565b90505f805f9054906101000a90046001600160a01b03166001600160a01b0316634f4608a26040518163ffffffff1660e01b8152600401602060405180830381865afa158015611c2c573d5f803e3d5ffd5b505050506040513d601f19601f82011682018060405250810190611c509190613054565b90505f8611611ca15760405162461bcd60e51b815260206004820152601f60248201527f5368617265206d7573742062652067726561746572207468616e207a65726f006044820152606401610990565b6040517fdd62ed3e00000000000000000000000000000000000000000000000000000000815233600482015230602482015285905f906001600160a01b0383169063dd62ed3e90604401602060405180830381865afa158015611d06573d5f803e3d5ffd5b505050506040513d601f19601f82011682018060405250810190611d2a9190613054565b905087811015611d7c5760405162461bcd60e51b815260206004820152601660248201527f496e73756666696369656e7420616c6c6f77616e6365000000000000000000006044820152606401610990565b6040516370a0823160e01b81523360048201525f906001600160a01b038416906370a0823190602401602060405180830381865afa158015611dc0573d5f803e3d5ffd5b505050506040513d601f19601f82011682018060405250810190611de49190613054565b905088811015611e365760405162461bcd60e51b815260206004820152601460248201527f496e73756666696369656e742062616c616e63650000000000000000000000006044820152606401610990565b6040517f23b872dd000000000000000000000000000000000000000000000000000000008152336004820152306024820152604481018a90525f906001600160a01b038516906323b872dd906064016020604051808303815f875af1158015611ea1573d5f803e3d5ffd5b505050506040513d601f19601f82011682018060405250810190611ec591906131a2565b905080611f145760405162461bcd60e51b815260206004820152601360248201527f5472616e7366657246726f6d206661696c6564000000000000000000000000006044820152606401610990565b6040517fa9059cbb0000000000000000000000000000000000000000000000000000000081526001600160a01b038a81166004830152602482018c90525f919086169063a9059cbb906044016020604051808303815f875af1158015611f7c573d5f803e3d5ffd5b505050506040513d601f19601f82011682018060405250810190611fa091906131a2565b905080611fef5760405162461bcd60e51b815260206004820152600f60248201527f5472616e73666572206661696c656400000000000000000000000000000000006044820152606401610990565b6040517f89afcb440000000000000000000000000000000000000000000000000000000081526001600160a01b038a811660048301525f91908c16906389afcb44906024015f604051808303815f875af115801561204f573d5f803e3d5ffd5b505050506040513d5f823e601f3d908101601f1916820160405261207691908101906131c1565b90505f8b6001600160a01b03166367e4ac2c6040518163ffffffff1660e01b81526004015f60405180830381865afa1580156120b4573d5f803e3d5ffd5b505050506040513d5f823e601f3d908101601f191682016040526120db9190810190612f90565b90508b8b5f5b835181101561246c575f8b8d8784815181106120ff576120ff613025565b6020026020010151612111919061307f565b61211b9190613096565b905084828151811061212f5761212f613025565b60200260200101516001600160a01b031663a9059cbb8f836040518363ffffffff1660e01b81526004016121789291906001600160a01b03929092168252602082015260400190565b6020604051808303815f875af1158015612194573d5f803e3d5ffd5b505050506040513d601f19601f820116820180604052508101906121b891906131a2565b508582815181106121cb576121cb613025565b60200260200101518583815181106121e5576121e5613025565b60209081029190910101516040516370a0823160e01b81523060048201526001600160a01b03909116906370a0823190602401602060405180830381865afa158015612233573d5f803e3d5ffd5b505050506040513d601f19601f820116820180604052508101906122579190613054565b10156122a55760405162461bcd60e51b815260206004820152601660248201527f496e73756666696369656e74204c6971756964697479000000000000000000006044820152606401610990565b8582815181106122b7576122b7613025565b602002602001015160015f866001600160a01b03166001600160a01b031681526020019081526020015f205f8785815181106122f5576122f5613025565b60200260200101516001600160a01b03166001600160a01b031681526020019081526020015f205f82825461232a919061318f565b925050819055508086838151811061234457612344613025565b60200260200101818151612358919061318f565b90525084515f9086908490811061237157612371613025565b60200260200101516001600160a01b031663a9059cbb8589868151811061239a5761239a613025565b60200260200101516040518363ffffffff1660e01b81526004016123d39291906001600160a01b03929092168252602082015260400190565b6020604051808303815f875af11580156123ef573d5f803e3d5ffd5b505050506040513d601f19601f8201168201806040525081019061241391906131a2565b9050806124625760405162461bcd60e51b815260206004820152601560248201527f4173736574207472616e73666572206661696c656400000000000000000000006044820152606401610990565b50506001016120e1565b50505050505050505050505050505050565b306001600160a01b037f000000000000000000000000000000000000000000000000000000000000000016148061251757507f00000000000000000000000000000000000000000000000000000000000000006001600160a01b031661250b7f360894a13ba1a3210667c828492db98dca3e2076cc3735a920a3ca505d382bbc546001600160a01b031690565b6001600160a01b031614155b15610f34576040517fe07c8dba00000000000000000000000000000000000000000000000000000000815260040160405180910390fd5b611aed6126be565b816001600160a01b03166352d1902d6040518163ffffffff1660e01b8152600401602060405180830381865afa9250505080156125b0575060408051601f3d908101601f191682019092526125ad91810190613054565b60015b6125f1576040517f4c9c8ce30000000000000000000000000000000000000000000000000000000081526001600160a01b0383166004820152602401610990565b7f360894a13ba1a3210667c828492db98dca3e2076cc3735a920a3ca505d382bbc811461264d576040517faa1d49a400000000000000000000000000000000000000000000000000000000815260048101829052602401610990565b61265783836127c8565b505050565b306001600160a01b037f00000000000000000000000000000000000000000000000000000000000000001614610f34576040517fe07c8dba00000000000000000000000000000000000000000000000000000000815260040160405180910390fd5b336126f07f9016d09d72d40fdae2fd8ceac6b6234c7706214fd39c1cd1e609a0528c199300546001600160a01b031690565b6001600160a01b031614610f34576040517f118cdaa7000000000000000000000000000000000000000000000000000000008152336004820152602401610990565b7f9016d09d72d40fdae2fd8ceac6b6234c7706214fd39c1cd1e609a0528c199300805473ffffffffffffffffffffffffffffffffffffffff1981166001600160a01b03848116918217845560405192169182907f8be0079c531659141344cd1fd0a4f28419497f9722a3daafe3b4186f6b6457e0905f90a3505050565b610f3461281d565b6127bf61281d565b611aed81612884565b6127d18261288c565b6040516001600160a01b038316907fbc7cd75a20ee27fd9adebab32041f755214dbc6bffa90cc0225b39da2e5c2d3b905f90a2805115612815576126578282612928565b6107b761299a565b7ff0c57e16840df040f15088dc2f81fe391c3923bec73e23a9662efc9c229c6a005468010000000000000000900460ff16610f34576040517fd7e6bcf800000000000000000000000000000000000000000000000000000000815260040160405180910390fd5b611aa261281d565b806001600160a01b03163b5f036128da576040517f4c9c8ce30000000000000000000000000000000000000000000000000000000081526001600160a01b0382166004820152602401610990565b7f360894a13ba1a3210667c828492db98dca3e2076cc3735a920a3ca505d382bbc805473ffffffffffffffffffffffffffffffffffffffff19166001600160a01b0392909216919091179055565b60605f80846001600160a01b031684604051612944919061321c565b5f60405180830381855af49150503d805f811461297c576040519150601f19603f3d011682016040523d82523d5f602084013e612981565b606091505b50915091506129918583836129d2565b95945050505050565b3415610f34576040517fb398979f00000000000000000000000000000000000000000000000000000000815260040160405180910390fd5b6060826129e7576129e282612a47565b610795565b81511580156129fe57506001600160a01b0384163b155b15612a40576040517f9996b3150000000000000000000000000000000000000000000000000000000081526001600160a01b0385166004820152602401610990565b5080610795565b805115612a575780518082602001fd5b6040517f1425ea4200000000000000000000000000000000000000000000000000000000815260040160405180910390fd5b6001600160a01b0381168114611aed575f80fd5b8035612aa881612a89565b919050565b5f60208284031215612abd575f80fd5b813561079581612a89565b5f815180845260208085019450602084015f5b83811015612af757815187529582019590820190600101612adb565b509495945050505050565b602081525f6107956020830184612ac8565b5f8060408385031215612b25575f80fd5b8235612b3081612a89565b91506020830135612b4081612a89565b809150509250929050565b5f805f60608486031215612b5d575f80fd5b8335612b6881612a89565b92506020840135612b7881612a89565b929592945050506040919091013590565b634e487b7160e01b5f52604160045260245ffd5b604051601f8201601f1916810167ffffffffffffffff81118282101715612bc657612bc6612b89565b604052919050565b5f8060408385031215612bdf575f80fd5b8235612bea81612a89565b915060208381013567ffffffffffffffff80821115612c07575f80fd5b818601915086601f830112612c1a575f80fd5b813581811115612c2c57612c2c612b89565b612c3e84601f19601f84011601612b9d565b91508082528784828501011115612c53575f80fd5b80848401858401375f848284010152508093505050509250929050565b5f805f8060808587031215612c83575f80fd5b8435612c8e81612a89565b93506020850135612c9e81612a89565b9250604085013591506060850135612cb581612a89565b939692955090935050565b5f8060408385031215612cd1575f80fd5b8235612cdc81612a89565b9150602083013567ffffffffffffffff81168114612b40575f80fd5b602081525f82518060208401528060208501604085015e5f604082850101526040601f19601f83011684010191505092915050565b602080825282518282018190525f9190848201906040850190845b81811015612d6d5783516001600160a01b031683529284019291840191600101612d48565b50909695505050505050565b5f8083601f840112612d89575f80fd5b50813567ffffffffffffffff811115612da0575f80fd5b6020830191508360208260051b8501011115612dba575f80fd5b9250929050565b5f805f805f805f806080898b031215612dd8575f80fd5b883567ffffffffffffffff80821115612def575f80fd5b612dfb8c838d01612d79565b909a50985060208b0135915080821115612e13575f80fd5b612e1f8c838d01612d79565b909850965060408b0135915080821115612e37575f80fd5b612e438c838d01612d79565b909650945060608b0135915080821115612e5b575f80fd5b50612e688b828c01612d79565b999c989b5096995094979396929594505050565b5f67ffffffffffffffff821115612e9557612e95612b89565b5060051b60200190565b5f805f60608486031215612eb1575f80fd5b833567ffffffffffffffff811115612ec7575f80fd5b8401601f81018613612ed7575f80fd5b80356020612eec612ee783612e7c565b612b9d565b82815260059290921b83018101918181019089841115612f0a575f80fd5b938201935b83851015612f2857843582529382019390820190612f0f565b9650612f379050878201612a9d565b9450505050612f4860408501612a9d565b90509250925092565b5f805f60608486031215612f63575f80fd5b833592506020840135612f7581612a89565b91506040840135612f8581612a89565b809150509250925092565b5f6020808385031215612fa1575f80fd5b825167ffffffffffffffff811115612fb7575f80fd5b8301601f81018513612fc7575f80fd5b8051612fd5612ee782612e7c565b81815260059190911b82018301908381019087831115612ff3575f80fd5b928401925b8284101561301a57835161300b81612a89565b82529284019290840190612ff8565b979650505050505050565b634e487b7160e01b5f52603260045260245ffd5b5f60208284031215613049575f80fd5b815161079581612a89565b5f60208284031215613064575f80fd5b5051919050565b634e487b7160e01b5f52601160045260245ffd5b80820281158282048414176110915761109161306b565b5f826130b057634e487b7160e01b5f52601260045260245ffd5b500490565b5f82601f8301126130c4575f80fd5b815160206130d4612ee783612e7c565b8083825260208201915060208460051b8701019350868411156130f5575f80fd5b602086015b8481101561311157805183529183019183016130fa565b509695505050505050565b5f806040838503121561312d575f80fd5b825167ffffffffffffffff80821115613144575f80fd5b613150868387016130b5565b93506020850151915080821115613165575f80fd5b50613172858286016130b5565b9150509250929050565b808201808211156110915761109161306b565b818103818111156110915761109161306b565b5f602082840312156131b2575f80fd5b81518015158114610795575f80fd5b5f602082840312156131d1575f80fd5b815167ffffffffffffffff8111156131e7575f80fd5b6131f3848285016130b5565b949350505050565b6001600160a01b0383168152604060208201525f6131f36040830184612ac8565b5f82518060208501845e5f92019182525091905056fea264697066735822122074f017f81e3c393a0a33708d9f19f2fb01682e179f6bae8d75506eeb46c5ffef64736f6c63430008190033",
  "linkReferences": {},
  "deployedLinkReferences": {}
}