{
  "_format": "hh-sol-artifact-1",
  "contractName": "BaluniV1PoolPeriphery",
  "sourceName": "contracts/BaluniV1PoolPeriphery.sol",
  "abi": [
    {
      "inputs": [
        {
          "internalType": "address",
          "name": "target",
          "type": "address"
        }
      ],
      "name": "AddressEmptyCode",
      "type": "error"
    },
    {
      "inputs": [
        {
          "internalType": "address",
          "name": "implementation",
          "type": "address"
        }
      ],
      "name": "ERC1967InvalidImplementation",
      "type": "error"
    },
    {
      "inputs": [],
      "name": "ERC1967NonPayable",
      "type": "error"
    },
    {
      "inputs": [],
      "name": "FailedInnerCall",
      "type": "error"
    },
    {
      "inputs": [],
      "name": "InvalidInitialization",
      "type": "error"
    },
    {
      "inputs": [],
      "name": "NotInitializing",
      "type": "error"
    },
    {
      "inputs": [
        {
          "internalType": "address",
          "name": "owner",
          "type": "address"
        }
      ],
      "name": "OwnableInvalidOwner",
      "type": "error"
    },
    {
      "inputs": [
        {
          "internalType": "address",
          "name": "account",
          "type": "address"
        }
      ],
      "name": "OwnableUnauthorizedAccount",
      "type": "error"
    },
    {
      "inputs": [],
      "name": "UUPSUnauthorizedCallContext",
      "type": "error"
    },
    {
      "inputs": [
        {
          "internalType": "bytes32",
          "name": "slot",
          "type": "bytes32"
        }
      ],
      "name": "UUPSUnsupportedProxiableUUID",
      "type": "error"
    },
    {
      "anonymous": false,
      "inputs": [
        {
          "indexed": false,
          "internalType": "uint64",
          "name": "version",
          "type": "uint64"
        }
      ],
      "name": "Initialized",
      "type": "event"
    },
    {
      "anonymous": false,
      "inputs": [
        {
          "indexed": true,
          "internalType": "address",
          "name": "previousOwner",
          "type": "address"
        },
        {
          "indexed": true,
          "internalType": "address",
          "name": "newOwner",
          "type": "address"
        }
      ],
      "name": "OwnershipTransferred",
      "type": "event"
    },
    {
      "anonymous": false,
      "inputs": [
        {
          "indexed": true,
          "internalType": "address",
          "name": "implementation",
          "type": "address"
        }
      ],
      "name": "Upgraded",
      "type": "event"
    },
    {
      "inputs": [],
      "name": "UPGRADE_INTERFACE_VERSION",
      "outputs": [
        {
          "internalType": "string",
          "name": "",
          "type": "string"
        }
      ],
      "stateMutability": "view",
      "type": "function"
    },
    {
      "inputs": [
        {
          "internalType": "uint256[]",
          "name": "amounts",
          "type": "uint256[]"
        },
        {
          "internalType": "address",
          "name": "poolAddress",
          "type": "address"
        },
        {
          "internalType": "address",
          "name": "receiver",
          "type": "address"
        }
      ],
      "name": "addLiquidity",
      "outputs": [],
      "stateMutability": "nonpayable",
      "type": "function"
    },
    {
      "inputs": [
        {
          "internalType": "address[]",
          "name": "fromTokens",
          "type": "address[]"
        },
        {
          "internalType": "address[]",
          "name": "toTokens",
          "type": "address[]"
        },
        {
          "internalType": "uint256[]",
          "name": "amounts",
          "type": "uint256[]"
        },
        {
          "internalType": "address[]",
          "name": "receivers",
          "type": "address[]"
        }
      ],
      "name": "batchSwap",
      "outputs": [
        {
          "internalType": "uint256[]",
          "name": "",
          "type": "uint256[]"
        }
      ],
      "stateMutability": "nonpayable",
      "type": "function"
    },
    {
      "inputs": [
        {
          "internalType": "address",
          "name": "_poolFactory",
          "type": "address"
        }
      ],
      "name": "changePoolFactory",
      "outputs": [],
      "stateMutability": "nonpayable",
      "type": "function"
    },
    {
      "inputs": [
        {
          "internalType": "address",
          "name": "fromToken",
          "type": "address"
        },
        {
          "internalType": "address",
          "name": "toToken",
          "type": "address"
        },
        {
          "internalType": "uint256",
          "name": "amount",
          "type": "uint256"
        }
      ],
      "name": "getAmountOut",
      "outputs": [
        {
          "internalType": "uint256",
          "name": "",
          "type": "uint256"
        }
      ],
      "stateMutability": "view",
      "type": "function"
    },
    {
      "inputs": [
        {
          "internalType": "address",
          "name": "token",
          "type": "address"
        }
      ],
      "name": "getPoolsContainingToken",
      "outputs": [
        {
          "internalType": "address[]",
          "name": "",
          "type": "address[]"
        }
      ],
      "stateMutability": "view",
      "type": "function"
    },
    {
      "inputs": [],
      "name": "getVersion",
      "outputs": [
        {
          "internalType": "uint64",
          "name": "",
          "type": "uint64"
        }
      ],
      "stateMutability": "view",
      "type": "function"
    },
    {
      "inputs": [
        {
          "internalType": "address",
          "name": "_poolFactory",
          "type": "address"
        }
      ],
      "name": "initialize",
      "outputs": [],
      "stateMutability": "nonpayable",
      "type": "function"
    },
    {
      "inputs": [],
      "name": "moveAll",
      "outputs": [],
      "stateMutability": "nonpayable",
      "type": "function"
    },
    {
      "inputs": [
        {
          "internalType": "address",
          "name": "asset",
          "type": "address"
        },
        {
          "internalType": "address",
          "name": "to",
          "type": "address"
        },
        {
          "internalType": "uint256",
          "name": "amount",
          "type": "uint256"
        }
      ],
      "name": "moveAsset",
      "outputs": [],
      "stateMutability": "nonpayable",
      "type": "function"
    },
    {
      "inputs": [],
      "name": "owner",
      "outputs": [
        {
          "internalType": "address",
          "name": "",
          "type": "address"
        }
      ],
      "stateMutability": "view",
      "type": "function"
    },
    {
      "inputs": [
        {
          "internalType": "address",
          "name": "poolAddress",
          "type": "address"
        }
      ],
      "name": "performRebalanceIfNeeded",
      "outputs": [],
      "stateMutability": "nonpayable",
      "type": "function"
    },
    {
      "inputs": [],
      "name": "poolFactory",
      "outputs": [
        {
          "internalType": "contract IBaluniV1PoolFactory",
          "name": "",
          "type": "address"
        }
      ],
      "stateMutability": "view",
      "type": "function"
    },
    {
      "inputs": [],
      "name": "proxiableUUID",
      "outputs": [
        {
          "internalType": "bytes32",
          "name": "",
          "type": "bytes32"
        }
      ],
      "stateMutability": "view",
      "type": "function"
    },
    {
      "inputs": [
        {
          "internalType": "address",
          "name": "_poolFactory",
          "type": "address"
        },
        {
          "internalType": "uint64",
          "name": "version",
          "type": "uint64"
        }
      ],
      "name": "reinitialize",
      "outputs": [],
      "stateMutability": "nonpayable",
      "type": "function"
    },
    {
      "inputs": [
        {
          "internalType": "uint256",
          "name": "share",
          "type": "uint256"
        },
        {
          "internalType": "address",
          "name": "poolAddress",
          "type": "address"
        },
        {
          "internalType": "address",
          "name": "receiver",
          "type": "address"
        }
      ],
      "name": "removeLiquidity",
      "outputs": [],
      "stateMutability": "nonpayable",
      "type": "function"
    },
    {
      "inputs": [],
      "name": "renounceOwnership",
      "outputs": [],
      "stateMutability": "nonpayable",
      "type": "function"
    },
    {
      "inputs": [
        {
          "internalType": "address",
          "name": "fromToken",
          "type": "address"
        },
        {
          "internalType": "address",
          "name": "toToken",
          "type": "address"
        },
        {
          "internalType": "uint256",
          "name": "amount",
          "type": "uint256"
        },
        {
          "internalType": "address",
          "name": "receiver",
          "type": "address"
        }
      ],
      "name": "smartSwap",
      "outputs": [
        {
          "internalType": "uint256",
          "name": "",
          "type": "uint256"
        }
      ],
      "stateMutability": "nonpayable",
      "type": "function"
    },
    {
      "inputs": [
        {
          "internalType": "address",
          "name": "fromToken",
          "type": "address"
        },
        {
          "internalType": "address",
          "name": "toToken",
          "type": "address"
        },
        {
          "internalType": "uint256",
          "name": "amount",
          "type": "uint256"
        },
        {
          "internalType": "address",
          "name": "receiver",
          "type": "address"
        }
      ],
      "name": "swap",
      "outputs": [
        {
          "internalType": "uint256",
          "name": "",
          "type": "uint256"
        }
      ],
      "stateMutability": "nonpayable",
      "type": "function"
    },
    {
      "inputs": [
        {
          "internalType": "address",
          "name": "newOwner",
          "type": "address"
        }
      ],
      "name": "transferOwnership",
      "outputs": [],
      "stateMutability": "nonpayable",
      "type": "function"
    },
    {
      "inputs": [
        {
          "internalType": "address",
          "name": "newImplementation",
          "type": "address"
        },
        {
          "internalType": "bytes",
          "name": "data",
          "type": "bytes"
        }
      ],
      "name": "upgradeToAndCall",
      "outputs": [],
      "stateMutability": "payable",
      "type": "function"
    }
  ],
  "bytecode": "0x60a0806040523460295730608052612f5c908161002e823960805181818161230401526124250152f35b5f80fdfe6080806040526004361015610012575f80fd5b5f905f3560e01c9081630d8e6e2c14612840575080634219dc40146127f05780634aa06652146126885780634f1ef2861461237e57806352d1902d146122bf5780635568081a1461220e5780636e81221c14611f69578063715018a614611eab57806372591be514611e2b5780637442eca6146117975780638da5cb5b146117265780638f2248bc146115d0578063ad3cb1cc146114e1578063ae3cce1c146113e2578063b997352714611168578063c4d66de814610f74578063e3898e9514610dfc578063e74e9b06146107d6578063ec0cd2eb14610565578063f2fde38b1461051a5763f31abcc414610105575f80fd5b346102da5760607ffffffffffffffffffffffffffffffffffffffffffffffffffffffffffffffffc3601126102da57600435906101406128c4565b916101496128e7565b81156104bc576040517fdd62ed3e00000000000000000000000000000000000000000000000000000000815233600482015230602482015260209473ffffffffffffffffffffffffffffffffffffffff8082169490929091908781604481895afa90811561042257908391889161048b575b501061042d576040517f70a082310000000000000000000000000000000000000000000000000000000081523360048201528781602481895afa9081156104225790839188916103ed575b501061038f576040517f23b872dd00000000000000000000000000000000000000000000000000000000815233600482015273ffffffffffffffffffffffffffffffffffffffff9190911660248201526044810191909152858160648188885af190811561038457859161034b575b50156102ed57839450823b156102e857602484928360405195869485937f89afcb440000000000000000000000000000000000000000000000000000000085521660048401525af180156102dd576102ca5750f35b6102d39061296a565b6102da5780f35b80fd5b6040513d84823e3d90fd5b505050fd5b606485604051907f08c379a00000000000000000000000000000000000000000000000000000000082526004820152600f60248201527f5472616e73666572206661696c656400000000000000000000000000000000006044820152fd5b90508581813d831161037d575b610362818361297e565b810103126103795761037390612b1d565b5f610275565b8480fd5b503d610358565b6040513d87823e3d90fd5b606487604051907f08c379a00000000000000000000000000000000000000000000000000000000082526004820152601460248201527f496e73756666696369656e742062616c616e63650000000000000000000000006044820152fd5b809250898092503d831161041b575b610406818361297e565b81010312610417578290515f610206565b5f80fd5b503d6103fc565b6040513d89823e3d90fd5b606487604051907f08c379a00000000000000000000000000000000000000000000000000000000082526004820152601660248201527f496e73756666696369656e7420616c6c6f77616e6365000000000000000000006044820152fd5b809250898092503d83116104b5575b6104a4818361297e565b81010312610417578290515f6101bb565b503d61049a565b60646040517f08c379a000000000000000000000000000000000000000000000000000000000815260206004820152601f60248201527f5368617265206d7573742062652067726561746572207468616e207a65726f006044820152fd5b50346102da5760207ffffffffffffffffffffffffffffffffffffffffffffffffffffffffffffffffc3601126102da576105626105556128a1565b61055d612dbd565b612cfc565b80f35b50346102da5760607ffffffffffffffffffffffffffffffffffffffffffffffffffffffffffffffffc3601126102da5760043567ffffffffffffffff81116107d2576105b5903690600401612a66565b90916105bf6128c4565b916105c86128e7565b6040517f67e4ac2c00000000000000000000000000000000000000000000000000000000815273ffffffffffffffffffffffffffffffffffffffff94851694918482600481895afa9182156103845785926107ae575b50845b82518110156106f257836106358285612bc4565b511661069361064583888c612ccb565b6040517f23b872dd00000000000000000000000000000000000000000000000000000000815233600482015230602482015290356044820152916020918291849182908c9082906064820190565b03925af180156106e7576106ac575b5050600101610621565b81813d83116106e0575b6106c0818361297e565b810103126106dc57906106d4600192612b1d565b50905f6106a2565b8680fd5b503d6106b6565b6040513d8a823e3d90fd5b8582818a8a8989604051957fde836ebd000000000000000000000000000000000000000000000000000000008752166004860152604060248601528060448601527f07ffffffffffffffffffffffffffffffffffffffffffffffffffffffffffffff81116107aa576020936064868095819460051b80918484013781010301925af180156102dd57610782575080f35b602090813d83116107a3575b610798818361297e565b810103126104175780f35b503d61078e565b8380fd5b6107cb9192503d8087833e6107c3818361297e565b810190612b42565b905f61061e565b5080fd5b50346102da5760807ffffffffffffffffffffffffffffffffffffffffffffffffffffffffffffffffc3601126102da5767ffffffffffffffff600435818111610df857610827903690600401612a66565b909160243581811161037957610841903690600401612a66565b916044358181116106dc5761085a903690600401612a66565b9091606435908111610df457610874903690600401612a66565b9285871480610deb575b80610de2575b15610d845761089887999798969598612b2a565b976108a6604051998a61297e565b8989527fffffffffffffffffffffffffffffffffffffffffffffffffffffffffffffffe06108d38b612b2a565b013660208b013787995b808b1061092a578989604051918291602083016020845282518091526020604085019301915b818110610911575050500390f35b8251845285945060209384019390920191600101610903565b8a8960206109cc73ffffffffffffffffffffffffffffffffffffffff839f8d9f9e9c9d81886109739261096e8f610978968f9161096692612ccb565b351515612ab8565b612ccb565b612cdb565b16610984858b8a612ccb565b6040517f23b872dd0000000000000000000000000000000000000000000000000000000081523360048201523060248201529035604482015293849283919082906064820190565b03925af1908115610c445782848b8f938e95610d0d575b5061097383610a18610973610a7998966020989673ffffffffffffffffffffffffffffffffffffffff610a1f97541697612ccb565b948a612ccb565b6040517f2d5e94a700000000000000000000000000000000000000000000000000000000815273ffffffffffffffffffffffffffffffffffffffff9384166004820152921660248301529092839190829081906044820190565b03915afa908115610c445782848e8c938495610c9f575b50610ab9610973602094610b1d9473ffffffffffffffffffffffffffffffffffffffff94612ccb565b16610ac5868c8b612ccb565b6040517f095ea7b300000000000000000000000000000000000000000000000000000000815273ffffffffffffffffffffffffffffffffffffffff871660048201529035602482015293849283919082906044820190565b03925af18015610c9457848e8592610c4f575b610b3a9350612ccb565b610b4390612cdb565b90610b4f838c87612ccb565b610b5890612cdb565b610b63848a89612ccb565b3590610b70858c8b612ccb565b610b7990612cdb565b6040517f6e81221c00000000000000000000000000000000000000000000000000000000815273ffffffffffffffffffffffffffffffffffffffff95861660048201529185166024830152604482019290925290831660648201529116816084818c5a94602095f1908115610c44578991610c0c575b5090600191610bfe828d612bc4565b52019a5098969597986108dd565b919850506020813d602011610c3c575b81610c296020938361297e565b8101031261041757518b97906001610bef565b3d9150610c1c565b6040513d8b823e3d90fd5b5050506020813d602011610c8c575b81610c6b6020938361297e565b81010312610c885782848e610c82610b3a94612b1d565b50610b30565b8980fd5b3d9150610c5e565b6040513d8c823e3d90fd5b9450505050506020813d602011610d05575b81610cbe6020938361297e565b81010312610d0157886020610b1d73ffffffffffffffffffffffffffffffffffffffff8f946109738789610cf4610ab994612a97565b9894509450945050610a90565b8880fd5b3d9150610cb1565b9450505050506020813d602011610d7c575b81610d2c6020938361297e565b81010312610d015760208a8d610a1f61097386610a188f828b73ffffffffffffffffffffffffffffffffffffffff61097393610d6a610a799d612b1d565b509750509698505050509395506109e3565b3d9150610d1f565b60646040517f08c379a000000000000000000000000000000000000000000000000000000000815260206004820152601c60248201527f496e70757420617272617973206c656e677468206d69736d61746368000000006044820152fd5b50838314610884565b5082861461087e565b8780fd5b8280fd5b50346102da57610e0b3661290a565b9173ffffffffffffffffffffffffffffffffffffffff9184838154169360405180957f89345efb00000000000000000000000000000000000000000000000000000000825233600483015281602460209889935afa908115610f1f578391610f2a575b5091610ed9969391610e81879694612c66565b6040518098819682957fa9059cbb000000000000000000000000000000000000000000000000000000008452600484016020909392919373ffffffffffffffffffffffffffffffffffffffff60408201951681520152565b0393165af18015610f1f57610eec578280f35b81813d8311610f18575b610f00818361297e565b810103126107d257610f1190612b1d565b505f808280f35b503d610ef6565b6040513d85823e3d90fd5b94929050858581989593983d8311610f6d575b610f47818361297e565b810103126102da57610ed996610e81610f608897612b1d565b9294965050919396610e6e565b503d610f3d565b50346102da5760207ffffffffffffffffffffffffffffffffffffffffffffffffffffffffffffffffc3601126102da57610fac6128a1565b7ff0c57e16840df040f15088dc2f81fe391c3923bec73e23a9662efc9c229c6a0090815460ff8160401c16159167ffffffffffffffff821680159081611160575b6001149081611156575b15908161114d575b5061112357818360017fffffffffffffffffffffffffffffffffffffffffffffffff000000000000000073ffffffffffffffffffffffffffffffffffffffff95161786556110ee575b50611051612e2d565b611059612e2d565b611061612e2d565b61106a33612cfc565b167fffffffffffffffffffffffff000000000000000000000000000000000000000084541617835561109a575080f35b7fffffffffffffffffffffffffffffffffffffffffffffff00ffffffffffffffff81541690557fc7f505b2f371ae2175ee4913f4499e1f2633a7b5936321eed1cdaeb6115181d2602060405160018152a180f35b7fffffffffffffffffffffffffffffffffffffffffffffff00000000000000000016680100000000000000011784555f611048565b60046040517ff92ee8a9000000000000000000000000000000000000000000000000000000008152fd5b9050155f610fff565b303b159150610ff7565b849150610fed565b50346102da57807ffffffffffffffffffffffffffffffffffffffffffffffffffffffffffffffffc3601126102da5773ffffffffffffffffffffffffffffffffffffffff818181541660405180917f89345efb00000000000000000000000000000000000000000000000000000000825233600483015281602460209485935afa8015610f1f5783906113ac575b6112009150612c66565b604051927f0902f1ac0000000000000000000000000000000000000000000000000000000084528284600481335afa938415610f1f57839461136d575b506040517f67e4ac2c0000000000000000000000000000000000000000000000000000000081528381600481335afa908115611362578491611348575b50835b81518110156113445780846112e785611297899587612bc4565b51166112a3848b612bc4565b516040517fa9059cbb000000000000000000000000000000000000000000000000000000008152336004820152602481019190915294859283919082906044820190565b03925af1801561133957611300575b600191500161127d565b8482813d8311611332575b611315818361297e565b8101031261132e57611328600192612b1d565b506112f6565b8580fd5b503d61130b565b6040513d88823e3d90fd5b8480f35b61135c91503d8086833e6107c3818361297e565b5f61127a565b6040513d86823e3d90fd5b9093503d8084833e61137f818361297e565b810182828203126107aa57815167ffffffffffffffff8111610379576113a59201612c05565b925f61123d565b508181813d83116113db575b6113c2818361297e565b81010312610df8576113d661120091612b1d565b6111f6565b503d6113b8565b50346102da576020807ffffffffffffffffffffffffffffffffffffffffffffffffffffffffffffffffc3601126107d25761141b6128a1565b73ffffffffffffffffffffffffffffffffffffffff9280846024818354169460405195869384927fb4340e6a0000000000000000000000000000000000000000000000000000000084521660048301525afa9182156114d45781926114b8575b506040519280840190808552835180925280604086019401925b8281106114a25785850386f35b8351871685529381019392810192600101611495565b6114cd9192503d8084833e6107c3818361297e565b905f61147b565b50604051903d90823e3d90fd5b50346102da57807ffffffffffffffffffffffffffffffffffffffffffffffffffffffffffffffffc3601126102da57604051604081019080821067ffffffffffffffff8311176115a3576040918252600581527fffffffffffffffffffffffffffffffffffffffffffffffffffffffffffffffe0601f602083017f352e302e3000000000000000000000000000000000000000000000000000000081528451958694602086525180928160208801528787015e85828601015201168101030190f35b7f4e487b71000000000000000000000000000000000000000000000000000000005f52604160045260245ffd5b50346102da5760407ffffffffffffffffffffffffffffffffffffffffffffffffffffffffffffffffc3601126102da576116086128a1565b6024359067ffffffffffffffff918281168091036107aa577ff0c57e16840df040f15088dc2f81fe391c3923bec73e23a9662efc9c229c6a008054938260ff8660401c16918215611719575b5050611123577fffffffffffffffffffffffffffffffffffffffffffffff00ffffffffffffffff68010000000000000000837fffffffffffffffffffffffffffffffffffffffffffffff0000000000000000007fc7f505b2f371ae2175ee4913f4499e1f2633a7b5936321eed1cdaeb6115181d29773ffffffffffffffffffffffffffffffffffffffff602098167fffffffffffffffffffffffff00000000000000000000000000000000000000005f5416175f55161717169055604051908152a180f35b861610159050825f611654565b50346102da57807ffffffffffffffffffffffffffffffffffffffffffffffffffffffffffffffffc3601126102da57602073ffffffffffffffffffffffffffffffffffffffff7f9016d09d72d40fdae2fd8ceac6b6234c7706214fd39c1cd1e609a0528c1993005416604051908152f35b50346102da5760246117a8366129f9565b6117b782959493921515612ab8565b8573ffffffffffffffffffffffffffffffffffffffff815416604051958680927fb4340e6a00000000000000000000000000000000000000000000000000000000825273ffffffffffffffffffffffffffffffffffffffff881660048301525afa938415611339578694611e0f575b5090939185908190815b8651841015611b695773ffffffffffffffffffffffffffffffffffffffff6118588589612bc4565b511697604051957f89ab35320000000000000000000000000000000000000000000000000000000087528a876004818d5afa968715611b5e578b97611a8f575b506004949596978b8b604051978880927f36bf6e390000000000000000000000000000000000000000000000000000000082525afa958615611a84578c96611a3d575b508b5b8c8a51821015611a2957602460408e8151928380927fd14ef46d0000000000000000000000000000000000000000000000000000000082528760048301525afa918215611a1d57916119b5575b5073ffffffffffffffffffffffffffffffffffffffff80881691511614611955575b6001016118de565b61195f8188612bc4565b5161196a828c612bc4565b511515806119ac575b61197e575b5061194d565b97509350600173ffffffffffffffffffffffffffffffffffffffff6119a38a8d612bc4565b51169490611978565b50888111611973565b90506040813d604011611a15575b816119d06040938361297e565b81010312611a1157604051906040820182811067ffffffffffffffff8211176115a3576040526119ff81612a97565b8252602080910151908201525f61192b565b8d80fd5b3d91506119c3565b604051903d90823e3d90fd5b50929a509750956001019493506118309050565b9095503d808d833e611a4f818361297e565b8101604082820312611a8057602082015167ffffffffffffffff8111611a1157611a799201612c05565b945f6118db565b8c80fd5b6040513d8e823e3d90fd5b949596503d94858c823e611aa3868261297e565b6040818781010312611b5a5780519567ffffffffffffffff96878111611a1157820191818101601f84011215611a1157825192602090611ae285612b2a565b94611af0604051968761297e565b808652828087019160051b830101918585018311611b545783809101915b838310611b3c5750505050810151978811611a1157600497611b339282019101612c05565b50969594611898565b8190611b4784612b1d565b8152019101908390611b0e565b50508f80fd5b8b80fd5b6040513d8d823e3d90fd5b888686928a73ffffffffffffffffffffffffffffffffffffffff821615611db1576040517f23b872dd000000000000000000000000000000000000000000000000000000008152336004820152306024820152604481018490526020816064818873ffffffffffffffffffffffffffffffffffffffff8c165af1801561038457611d78575b506040517f095ea7b300000000000000000000000000000000000000000000000000000000815273ffffffffffffffffffffffffffffffffffffffff8316600482015260248101849052602081806044810103818873ffffffffffffffffffffffffffffffffffffffff8c165af1801561038457611d20575b506040517f6e81221c00000000000000000000000000000000000000000000000000000000815273ffffffffffffffffffffffffffffffffffffffff9687166004820152908616602482015260448101929092529284166064820152929091602091849160849183918691165af1908115611a1d5790611ced575b602090604051908152f35b506020813d602011611d18575b81611d076020938361297e565b810103126104175760209051611ce2565b3d9150611cfa565b6020813d602011611d70575b81611d396020938361297e565b81010312610379579373ffffffffffffffffffffffffffffffffffffffff819697611d65602097612b1d565b509796955050611c67565b3d9150611d2c565b6020813d602011611da9575b81611d916020938361297e565b8101031261037957611da290612b1d565b5086611bee565b3d9150611d84565b60646040517f08c379a000000000000000000000000000000000000000000000000000000000815260206004820152601660248201527f4e6f207375697461626c6520706f6f6c20666f756e64000000000000000000006044820152fd5b611e249194503d8088833e6107c3818361297e565b925f611826565b50346102da5760207ffffffffffffffffffffffffffffffffffffffffffffffffffffffffffffffffc3601126102da5773ffffffffffffffffffffffffffffffffffffffff611e786128a1565b611e80612dbd565b167fffffffffffffffffffffffff00000000000000000000000000000000000000005f5416175f5580f35b50346102da57807ffffffffffffffffffffffffffffffffffffffffffffffffffffffffffffffffc3601126102da57611ee2612dbd565b5f73ffffffffffffffffffffffffffffffffffffffff7f9016d09d72d40fdae2fd8ceac6b6234c7706214fd39c1cd1e609a0528c1993008054907fffffffffffffffffffffffff000000000000000000000000000000000000000082169055167f8be0079c531659141344cd1fd0a4f28419497f9722a3daafe3b4186f6b6457e08280a380f35b50346102da57611f78366129f9565b91611f87829594951515612ab8565b83546040517f2d5e94a700000000000000000000000000000000000000000000000000000000815273ffffffffffffffffffffffffffffffffffffffff8781166004830152838116602483015260209791939290919088908590604490829086165afa9384156104225787946121d7575b506040517f23b872dd000000000000000000000000000000000000000000000000000000008152336004820152306024820152604481018690528282169089816064818c865af18015610c44576121a3575b506040517f095ea7b300000000000000000000000000000000000000000000000000000000815273ffffffffffffffffffffffffffffffffffffffff8616600482015260248101879052908990829060449082908c905af180156106e757918996959493918993612161575b506040517f6e81221c00000000000000000000000000000000000000000000000000000000815273ffffffffffffffffffffffffffffffffffffffff9182166004820152938116602485015260448401959095529590931660648201529384926084928492165af1918215611a1d5791612134575b50604051908152f35b90508181813d831161215a575b61214b818361297e565b8101031261041757515f61212b565b503d612141565b878193959697989294503d831161219c575b61217d818361297e565b81010312610df4579187916121958a97969594612b1d565b505f6120b6565b503d612173565b8981813d83116121d0575b6121b8818361297e565b81010312610d01576121c990612b1d565b505f61204a565b503d6121ae565b9093508781813d8311612207575b6121ef818361297e565b810103126106dc5761220090612a97565b925f611ff8565b503d6121e5565b50346104175760207ffffffffffffffffffffffffffffffffffffffffffffffffffffffffffffffffc3601126104175773ffffffffffffffffffffffffffffffffffffffff61225b6128a1565b16803b15610417575f80916024604051809481937f5568081a0000000000000000000000000000000000000000000000000000000083523360048401525af180156122b4576122a8575080f35b6122b2915061296a565b005b6040513d5f823e3d90fd5b34610417575f7ffffffffffffffffffffffffffffffffffffffffffffffffffffffffffffffffc3601126104175773ffffffffffffffffffffffffffffffffffffffff7f00000000000000000000000000000000000000000000000000000000000000001630036123545760206040517f360894a13ba1a3210667c828492db98dca3e2076cc3735a920a3ca505d382bbc8152f35b60046040517fe07c8dba000000000000000000000000000000000000000000000000000000008152fd5b60407ffffffffffffffffffffffffffffffffffffffffffffffffffffffffffffffffc360112610417576123b06128a1565b602490813567ffffffffffffffff811161041757366023820112156104175780600401356123dd816129bf565b926123eb604051948561297e565b818452602091828501933687838301011161041757815f928886930187378601015273ffffffffffffffffffffffffffffffffffffffff807f00000000000000000000000000000000000000000000000000000000000000001680301490811561265a575b506123545761245d612dbd565b8116936040517f52d1902d0000000000000000000000000000000000000000000000000000000081528381600481895afa5f918161262b575b506124cb578686604051907f4c9c8ce30000000000000000000000000000000000000000000000000000000082526004820152fd5b8590877f360894a13ba1a3210667c828492db98dca3e2076cc3735a920a3ca505d382bbc918281036125fd5750843b156125ce5750817fffffffffffffffffffffffff0000000000000000000000000000000000000000825416179055604051907fbc7cd75a20ee27fd9adebab32041f755214dbc6bffa90cc0225b39da2e5c2d3b5f80a281511561259a57505f6122b29481925190845af4903d15612591573d612575816129bf565b90612583604051928361297e565b81525f81943d92013e612e86565b60609250612e86565b9350505050346125a657005b807fb398979f0000000000000000000000000000000000000000000000000000000060049252fd5b82604051907f4c9c8ce30000000000000000000000000000000000000000000000000000000082526004820152fd5b604051907faa1d49a40000000000000000000000000000000000000000000000000000000082526004820152fd5b9091508481813d8311612653575b612643818361297e565b8101031261041757519088612496565b503d612639565b9050817f360894a13ba1a3210667c828492db98dca3e2076cc3735a920a3ca505d382bbc5416141587612450565b34610417576126963661290a565b5f546040517f2d5e94a700000000000000000000000000000000000000000000000000000000815273ffffffffffffffffffffffffffffffffffffffff85811660048301528481166024830152602095909491939290919086908590604490829089165afa9182156122b45786945f936127b3575b506040517f4aa0665200000000000000000000000000000000000000000000000000000000815273ffffffffffffffffffffffffffffffffffffffff91821660048201529116602482015260448101929092529092839190829081606481015b0392165afa9081156122b4575f916127865750604051908152f35b90508181813d83116127ac575b61279d818361297e565b8101031261041757518261212b565b503d612793565b8581969294503d83116127e9575b6127cb818361297e565b810103126104175761276b946127e18795612a97565b92909561270b565b503d6127c1565b34610417575f7ffffffffffffffffffffffffffffffffffffffffffffffffffffffffffffffffc36011261041757602073ffffffffffffffffffffffffffffffffffffffff5f5416604051908152f35b34610417575f7ffffffffffffffffffffffffffffffffffffffffffffffffffffffffffffffffc3601126104175760209067ffffffffffffffff7ff0c57e16840df040f15088dc2f81fe391c3923bec73e23a9662efc9c229c6a0054168152f35b6004359073ffffffffffffffffffffffffffffffffffffffff8216820361041757565b6024359073ffffffffffffffffffffffffffffffffffffffff8216820361041757565b6044359073ffffffffffffffffffffffffffffffffffffffff8216820361041757565b7ffffffffffffffffffffffffffffffffffffffffffffffffffffffffffffffffc60609101126104175773ffffffffffffffffffffffffffffffffffffffff90600435828116810361041757916024359081168103610417579060443590565b67ffffffffffffffff81116115a357604052565b90601f7fffffffffffffffffffffffffffffffffffffffffffffffffffffffffffffffe0910116810190811067ffffffffffffffff8211176115a357604052565b67ffffffffffffffff81116115a357601f017fffffffffffffffffffffffffffffffffffffffffffffffffffffffffffffffe01660200190565b7ffffffffffffffffffffffffffffffffffffffffffffffffffffffffffffffffc60809101126104175773ffffffffffffffffffffffffffffffffffffffff9060043582811681036104175791602435818116810361041757916044359160643590811681036104175790565b9181601f840112156104175782359167ffffffffffffffff8311610417576020808501948460051b01011161041757565b519073ffffffffffffffffffffffffffffffffffffffff8216820361041757565b15612abf57565b60646040517f08c379a000000000000000000000000000000000000000000000000000000000815260206004820152602060248201527f416d6f756e74206d7573742062652067726561746572207468616e207a65726f6044820152fd5b5190811515820361041757565b67ffffffffffffffff81116115a35760051b60200190565b60209081818403126104175780519067ffffffffffffffff821161041757019180601f84011215610417578251612b7881612b2a565b93612b86604051958661297e565b818552838086019260051b820101928311610417578301905b828210612bad575050505090565b838091612bb984612a97565b815201910190612b9f565b8051821015612bd85760209160051b010190565b7f4e487b71000000000000000000000000000000000000000000000000000000005f52603260045260245ffd5b9080601f8301121561041757815190602091612c2081612b2a565b93612c2e604051958661297e565b81855260208086019260051b82010192831161041757602001905b828210612c57575050505090565b81518152908301908301612c49565b15612c6d57565b60646040517f08c379a000000000000000000000000000000000000000000000000000000000815260206004820152600a60248201527f4f6e6c7920506f6f6c73000000000000000000000000000000000000000000006044820152fd5b9190811015612bd85760051b0190565b3573ffffffffffffffffffffffffffffffffffffffff811681036104175790565b73ffffffffffffffffffffffffffffffffffffffff809116908115612d8d577f9016d09d72d40fdae2fd8ceac6b6234c7706214fd39c1cd1e609a0528c199300805490837fffffffffffffffffffffffff00000000000000000000000000000000000000008316179055167f8be0079c531659141344cd1fd0a4f28419497f9722a3daafe3b4186f6b6457e05f80a3565b60246040517f1e4fbdf70000000000000000000000000000000000000000000000000000000081525f6004820152fd5b73ffffffffffffffffffffffffffffffffffffffff7f9016d09d72d40fdae2fd8ceac6b6234c7706214fd39c1cd1e609a0528c19930054163303612dfd57565b60246040517f118cdaa7000000000000000000000000000000000000000000000000000000008152336004820152fd5b60ff7ff0c57e16840df040f15088dc2f81fe391c3923bec73e23a9662efc9c229c6a005460401c1615612e5c57565b60046040517fd7e6bcf8000000000000000000000000000000000000000000000000000000008152fd5b90612ec55750805115612e9b57805190602001fd5b60046040517f1425ea42000000000000000000000000000000000000000000000000000000008152fd5b81511580612f1d575b612ed6575090565b60249073ffffffffffffffffffffffffffffffffffffffff604051917f9996b315000000000000000000000000000000000000000000000000000000008352166004820152fd5b50803b15612ece56fea26469706673582212206e0c701376ecf1f99b1c8720cc13cbaf7195d83adae4f37e8104e3ec588422a364736f6c63430008190033",
  "linkReferences": {},
  "deployedLinkReferences": {}
}