{
  "_format": "hh-sol-artifact-1",
  "contractName": "BaluniV1Swapper",
  "sourceName": "contracts/managers/BaluniV1Swapper.sol",
  "abi": [
    {
      "inputs": [
        {
          "internalType": "address",
          "name": "target",
          "type": "address"
        }
      ],
      "name": "AddressEmptyCode",
      "type": "error"
    },
    {
      "inputs": [
        {
          "internalType": "address",
          "name": "implementation",
          "type": "address"
        }
      ],
      "name": "ERC1967InvalidImplementation",
      "type": "error"
    },
    {
      "inputs": [],
      "name": "ERC1967NonPayable",
      "type": "error"
    },
    {
      "inputs": [],
      "name": "FailedInnerCall",
      "type": "error"
    },
    {
      "inputs": [],
      "name": "InvalidInitialization",
      "type": "error"
    },
    {
      "inputs": [],
      "name": "NotInitializing",
      "type": "error"
    },
    {
      "inputs": [
        {
          "internalType": "address",
          "name": "owner",
          "type": "address"
        }
      ],
      "name": "OwnableInvalidOwner",
      "type": "error"
    },
    {
      "inputs": [
        {
          "internalType": "address",
          "name": "account",
          "type": "address"
        }
      ],
      "name": "OwnableUnauthorizedAccount",
      "type": "error"
    },
    {
      "inputs": [],
      "name": "UUPSUnauthorizedCallContext",
      "type": "error"
    },
    {
      "inputs": [
        {
          "internalType": "bytes32",
          "name": "slot",
          "type": "bytes32"
        }
      ],
      "name": "UUPSUnsupportedProxiableUUID",
      "type": "error"
    },
    {
      "anonymous": false,
      "inputs": [
        {
          "indexed": false,
          "internalType": "uint64",
          "name": "version",
          "type": "uint64"
        }
      ],
      "name": "Initialized",
      "type": "event"
    },
    {
      "anonymous": false,
      "inputs": [
        {
          "indexed": true,
          "internalType": "address",
          "name": "previousOwner",
          "type": "address"
        },
        {
          "indexed": true,
          "internalType": "address",
          "name": "newOwner",
          "type": "address"
        }
      ],
      "name": "OwnershipTransferred",
      "type": "event"
    },
    {
      "anonymous": false,
      "inputs": [
        {
          "indexed": true,
          "internalType": "address",
          "name": "implementation",
          "type": "address"
        }
      ],
      "name": "Upgraded",
      "type": "event"
    },
    {
      "inputs": [],
      "name": "UPGRADE_INTERFACE_VERSION",
      "outputs": [
        {
          "internalType": "string",
          "name": "",
          "type": "string"
        }
      ],
      "stateMutability": "view",
      "type": "function"
    },
    {
      "inputs": [],
      "name": "getSlippagePercentage",
      "outputs": [
        {
          "internalType": "uint256",
          "name": "",
          "type": "uint256"
        }
      ],
      "stateMutability": "view",
      "type": "function"
    },
    {
      "inputs": [
        {
          "internalType": "address",
          "name": "_registry",
          "type": "address"
        }
      ],
      "name": "initialize",
      "outputs": [],
      "stateMutability": "nonpayable",
      "type": "function"
    },
    {
      "inputs": [
        {
          "internalType": "address",
          "name": "token0",
          "type": "address"
        },
        {
          "internalType": "address",
          "name": "token1",
          "type": "address"
        },
        {
          "internalType": "address",
          "name": "token2",
          "type": "address"
        },
        {
          "internalType": "uint256",
          "name": "amount",
          "type": "uint256"
        },
        {
          "internalType": "address",
          "name": "receiver",
          "type": "address"
        }
      ],
      "name": "multiHopSwap",
      "outputs": [
        {
          "internalType": "uint256",
          "name": "amountOut",
          "type": "uint256"
        }
      ],
      "stateMutability": "nonpayable",
      "type": "function"
    },
    {
      "inputs": [],
      "name": "owner",
      "outputs": [
        {
          "internalType": "address",
          "name": "",
          "type": "address"
        }
      ],
      "stateMutability": "view",
      "type": "function"
    },
    {
      "inputs": [],
      "name": "proxiableUUID",
      "outputs": [
        {
          "internalType": "bytes32",
          "name": "",
          "type": "bytes32"
        }
      ],
      "stateMutability": "view",
      "type": "function"
    },
    {
      "inputs": [],
      "name": "registry",
      "outputs": [
        {
          "internalType": "contract IBaluniV1Registry",
          "name": "",
          "type": "address"
        }
      ],
      "stateMutability": "view",
      "type": "function"
    },
    {
      "inputs": [
        {
          "internalType": "address",
          "name": "_registry",
          "type": "address"
        },
        {
          "internalType": "uint64",
          "name": "version",
          "type": "uint64"
        }
      ],
      "name": "reinitialize",
      "outputs": [],
      "stateMutability": "nonpayable",
      "type": "function"
    },
    {
      "inputs": [],
      "name": "renounceOwnership",
      "outputs": [],
      "stateMutability": "nonpayable",
      "type": "function"
    },
    {
      "inputs": [
        {
          "internalType": "uint256",
          "name": "_slippagePercentage",
          "type": "uint256"
        }
      ],
      "name": "setSlippagePercentage",
      "outputs": [],
      "stateMutability": "nonpayable",
      "type": "function"
    },
    {
      "inputs": [
        {
          "internalType": "address",
          "name": "token0",
          "type": "address"
        },
        {
          "internalType": "address",
          "name": "token1",
          "type": "address"
        },
        {
          "internalType": "uint256",
          "name": "amount",
          "type": "uint256"
        },
        {
          "internalType": "address",
          "name": "receiver",
          "type": "address"
        }
      ],
      "name": "singleSwap",
      "outputs": [
        {
          "internalType": "uint256",
          "name": "amountOut",
          "type": "uint256"
        }
      ],
      "stateMutability": "nonpayable",
      "type": "function"
    },
    {
      "inputs": [
        {
          "internalType": "address",
          "name": "newOwner",
          "type": "address"
        }
      ],
      "name": "transferOwnership",
      "outputs": [],
      "stateMutability": "nonpayable",
      "type": "function"
    },
    {
      "inputs": [
        {
          "internalType": "address",
          "name": "newImplementation",
          "type": "address"
        },
        {
          "internalType": "bytes",
          "name": "data",
          "type": "bytes"
        }
      ],
      "name": "upgradeToAndCall",
      "outputs": [],
      "stateMutability": "payable",
      "type": "function"
    }
  ],
  "bytecode": "0x60a060405234603957600e6047565b6014603d565b613127610094823960805181818161210c01528181612191015261238c015261312790f35b6043565b60405190565b5f80fd5b604d6087565b565b60018060a01b031690565b90565b606c6068607092604f565b605a565b604f565b90565b607a90605d565b90565b6084906073565b90565b608e30607d565b60805256fe60806040526004361015610013575b6108b7565b61001d5f356100ec565b806303baf066146100e757806325635dbe146100e25780632d6bc8ea146100dd5780634f1ef286146100d857806352d1902d146100d35780635efaaebb146100ce578063715018a6146100c95780637b103999146100c45780638da5cb5b146100bf5780638f2248bc146100ba578063ad3cb1cc146100b5578063c4d66de8146100b05763f2fde38b0361000e57610884565b610851565b6107fe565b6106ce565b61063c565b6105e5565b610509565b6104d0565b610445565b6103f6565b610274565b6101b1565b61014d565b60e01c90565b60405190565b5f80fd5b5f80fd5b5f80fd5b90565b61011081610104565b0361011757565b5f80fd5b9050359061012882610107565b565b9060208282031261014357610140915f0161011b565b90565b6100fc565b5f0190565b3461017b5761016561016036600461012a565b610954565b61016d6100f2565b8061017781610148565b0390f35b6100f8565b5f91031261018a57565b6100fc565b61019890610104565b9052565b91906101af905f6020850194019061018f565b565b346101e1576101c1366004610180565b6101dd6101cc61098c565b6101d46100f2565b9182918261019c565b0390f35b6100f8565b73ffffffffffffffffffffffffffffffffffffffff1690565b610208906101e6565b90565b610214816101ff565b0361021b57565b5f80fd5b9050359061022c8261020b565b565b60808183031261026f57610244825f830161021f565b9261026c610255846020850161021f565b93610263816040860161011b565b9360600161021f565b90565b6100fc565b346102a8576102a461029361028a36600461022e565b92919091610d65565b61029b6100f2565b9182918261019c565b0390f35b6100f8565b5f80fd5b5f80fd5b601f801991011690565b7f4e487b71000000000000000000000000000000000000000000000000000000005f52604160045260245ffd5b906102f6906102b5565b810190811067ffffffffffffffff82111761031057604052565b6102bf565b906103286103216100f2565b92836102ec565b565b67ffffffffffffffff8111610348576103446020916102b5565b0190565b6102bf565b90825f939282370152565b9092919261036d6103688261032a565b610315565b93818552602085019082840111610389576103879261034d565b565b6102b1565b9080601f830112156103ac578160206103a993359101610358565b90565b6102ad565b9190916040818403126103f1576103ca835f830161021f565b92602082013567ffffffffffffffff81116103ec576103e9920161038e565b90565b610100565b6100fc565b61040a6104043660046103b1565b90610fc8565b6104126100f2565b8061041c81610148565b0390f35b90565b61042c90610420565b9052565b9190610443905f60208501940190610423565b565b3461047557610455366004610180565b610471610460611043565b6104686100f2565b91829182610430565b0390f35b6100f8565b919060a0838203126104cb57610492815f850161021f565b926104a0826020830161021f565b926104c86104b1846040850161021f565b936104bf816060860161011b565b9360800161021f565b90565b6100fc565b34610504576105006104ef6104e636600461047a565b93929092611056565b6104f76100f2565b9182918261019c565b0390f35b6100f8565b3461053757610519366004610180565b6105216112e0565b6105296100f2565b8061053381610148565b0390f35b6100f8565b1c90565b73ffffffffffffffffffffffffffffffffffffffff1690565b61056990600861056e930261053c565b610540565b90565b9061057c9154610559565b90565b6105895f80610571565b90565b90565b6105a361059e6105a8926101e6565b61058c565b6101e6565b90565b6105b49061058f565b90565b6105c0906105ab565b90565b6105cc906105b7565b9052565b91906105e3905f602085019401906105c3565b565b34610615576105f5366004610180565b61061161060061057f565b6106086100f2565b918291826105d0565b0390f35b6100f8565b610623906101ff565b9052565b919061063a905f6020850194019061061a565b565b3461066c5761064c366004610180565b610668610657611328565b61065f6100f2565b91829182610627565b0390f35b6100f8565b67ffffffffffffffff1690565b61068781610671565b0361068e57565b5f80fd5b9050359061069f8261067e565b565b91906040838203126106c957806106bd6106c6925f860161021f565b93602001610692565b90565b6100fc565b346106fd576106e76106e13660046106a1565b906115f6565b6106ef6100f2565b806106f981610148565b0390f35b6100f8565b67ffffffffffffffff81116107205761071c6020916102b5565b0190565b6102bf565b9061073761073283610702565b610315565b918252565b5f7f352e302e30000000000000000000000000000000000000000000000000000000910152565b61076d6005610725565b9061077a6020830161073c565b565b610784610763565b90565b61078f61077c565b90565b61079a610787565b90565b5190565b60209181520190565b90825f9392825e0152565b6107d46107dd6020936107e2936107cb8161079d565b938480936107a1565b958691016107aa565b6102b5565b0190565b6107fb9160208201915f8184039101526107b5565b90565b3461082e5761080e366004610180565b61082a610819610792565b6108216100f2565b918291826107e6565b0390f35b6100f8565b9060208282031261084c57610849915f0161021f565b90565b6100fc565b3461087f57610869610864366004610833565b61180d565b6108716100f2565b8061087b81610148565b0390f35b6100f8565b346108b25761089c610897366004610833565b61189d565b6108a46100f2565b806108ae81610148565b0390f35b6100f8565b5f80fd5b6108cc906108c76118a8565b610947565b565b5f1b90565b906108fe7fffffffffffffffffffffffffffffffffffffffffffffffffffffffffffffffff916108ce565b9181191691161790565b61091c61091761092192610104565b61058c565b610104565b90565b90565b9061093c61093761094392610908565b610924565b82546108d3565b9055565b610952906001610927565b565b61095d906108bb565b565b5f90565b5f1c90565b90565b61097761097c91610963565b610968565b90565b610989905461096b565b90565b61099461095f565b5061099f600161097f565b90565b6109ab906105ab565b90565b5f7f57726f6e672073656e6465720000000000000000000000000000000000000000910152565b6109e2600c6020926107a1565b6109eb816109ae565b0190565b610a049060208101905f8183039101526109d5565b90565b15610a0e57565b610a166100f2565b7f08c379a000000000000000000000000000000000000000000000000000000000815280610a46600482016109ef565b0390fd5b90565b610a61610a5c610a6692610a4a565b61058c565b610104565b90565b5f7f416d6f756e742069732030000000000000000000000000000000000000000000910152565b610a9d600b6020926107a1565b610aa681610a69565b0190565b610abf9060208101905f818303910152610a90565b90565b15610ac957565b610ad16100f2565b7f08c379a000000000000000000000000000000000000000000000000000000000815280610b0160048201610aaa565b0390fd5b610b0e9061058f565b90565b610b1a90610b05565b90565b610b26906105ab565b90565b60e01b90565b90505190610b3c82610107565b565b90602082820312610b5757610b54915f01610b2f565b90565b6100fc565b610b646100f2565b3d5f823e3d90fd5b5f7f496e73756666696369656e742042616c616e6365000000000000000000000000910152565b610ba060146020926107a1565b610ba981610b6c565b0190565b610bc29060208101905f818303910152610b93565b90565b15610bcc57565b610bd46100f2565b7f08c379a000000000000000000000000000000000000000000000000000000000815280610c0460048201610bad565b0390fd5b916020610c29929493610c2260408201965f83019061061a565b019061061a565b565b60207f77616e6365000000000000000000000000000000000000000000000000000000917f42616c756e69537761707065723a20496e73756666696369656e7420416c6c6f5f8201520152565b610c8560256040926107a1565b610c8e81610c2b565b0190565b610ca79060208101905f818303910152610c78565b90565b15610cb157565b610cb96100f2565b7f08c379a000000000000000000000000000000000000000000000000000000000815280610ce960048201610c92565b0390fd5b151590565b610cfb81610ced565b03610d0257565b5f80fd5b90505190610d1382610cf2565b565b90602082820312610d2e57610d2b915f01610d06565b90565b6100fc565b604090610d5c610d639496959396610d5260608401985f85019061061a565b602083019061061a565b019061018f565b565b929091610d7061095f565b50610d9633610d8f610d89610d84306109a2565b6101ff565b916101ff565b1415610a07565b610db281610dac610da65f610a4d565b91610104565b11610ac2565b610df26020610dc8610dc387610b11565b610b1d565b6370a0823190610de73392610ddb6100f2565b95869485938493610b29565b835260048301610627565b03915afa8015610f9a57610e21915f91610f6c575b50610e1a610e1484610104565b91610104565b1015610bc5565b610e32610e2d85610b11565b610b1d565b602063dd62ed3e913390610e60610e48306109a2565b94610e6b610e546100f2565b96879586948594610b29565b845260048401610c08565b03915afa8015610f6757610e9a915f91610f39575b50610e93610e8d84610104565b91610104565b1015610caa565b610eab610ea685610b11565b610b1d565b9360206323b872dd953390610edc5f610ec3306109a2565b99610ee788610ed06100f2565b9c8d9788968795610b29565b855260048501610d33565b03925af1948515610f3457610f0595610f08575b5092909192611dad565b90565b610f289060203d8111610f2d575b610f2081836102ec565b810190610d15565b610efb565b503d610f16565b610b5c565b610f5a915060203d8111610f60575b610f5281836102ec565b810190610b3e565b5f610e80565b503d610f48565b610b5c565b610f8d915060203d8111610f93575b610f8581836102ec565b810190610b3e565b5f610e07565b503d610f7b565b610b5c565b90610fb191610fac6120fb565b610fb3565b565b90610fc691610fc1816121cd565b61223d565b565b90610fd291610f9f565b565b5f90565b610fe990610fe461237b565b611037565b90565b90565b611003610ffe61100892610fec565b6108ce565b610420565b90565b6110347f360894a13ba1a3210667c828492db98dca3e2076cc3735a920a3ca505d382bbc610fef565b90565b5061104061100b565b90565b61105361104e610fd4565b610fd8565b90565b939192909261106361095f565b506110893361108261107c611077306109a2565b6101ff565b916101ff565b1415610a07565b6110a58261109f6110995f610a4d565b91610104565b11610ac2565b6110e560206110bb6110b688610b11565b610b1d565b6370a08231906110da33926110ce6100f2565b95869485938493610b29565b835260048301610627565b03915afa801561128e57611114915f91611260575b5061110d61110785610104565b91610104565b1015610bc5565b61112561112086610b11565b610b1d565b602063dd62ed3e91339061115361113b306109a2565b9461115e6111476100f2565b96879586948594610b29565b845260048401610c08565b03915afa801561125b5761118d915f9161122d575b5061118661118085610104565b91610104565b1015610caa565b61119e61119986610b11565b610b1d565b9460206323b872dd9633906111cf5f6111b6306109a2565b9a6111da896111c36100f2565b9d8e9788968795610b29565b855260048501610d33565b03925af1958615611228576111f9966111fc575b5093909192936123f9565b90565b61121c9060203d8111611221575b61121481836102ec565b810190610d15565b6111ee565b503d61120a565b610b5c565b61124e915060203d8111611254575b61124681836102ec565b810190610b3e565b5f611173565b503d61123c565b610b5c565b611281915060203d8111611287575b61127981836102ec565b810190610b3e565b5f6110fa565b503d61126f565b610b5c565b61129b6118a8565b6112a36112cd565b565b6112b96112b46112be92610a4a565b61058c565b6101e6565b90565b6112ca906112a5565b90565b6112de6112d95f6112c1565b6124d7565b565b6112e8611293565b565b5f90565b73ffffffffffffffffffffffffffffffffffffffff1690565b61131361131891610963565b6112ee565b90565b6113259054611307565b90565b6113306112ea565b506113435f61133d612543565b0161131b565b90565b60401c90565b60ff1690565b61135e61136391611346565b61134c565b90565b6113709054611352565b90565b67ffffffffffffffff1690565b61138c61139191610963565b611373565b90565b61139e9054611380565b90565b906113b467ffffffffffffffff916108ce565b9181191691161790565b6113d26113cd6113d792610671565b61058c565b610671565b90565b90565b906113f26113ed6113f9926113be565b6113da565b82546113a1565b9055565b60401b90565b9061141768ff0000000000000000916113fd565b9181191691161790565b61142a90610ced565b90565b90565b9061144561144061144c92611421565b61142d565b8254611403565b9055565b61145990610671565b9052565b9190611470905f60208501940190611450565b565b90809161147d612567565b906114895f8301611366565b801561153a575b6114fe576114c3926114ba916114a8865f86016113dd565b6114b560015f8601611430565b6115cf565b5f809101611430565b6114f97fc7f505b2f371ae2175ee4913f4499e1f2633a7b5936321eed1cdaeb6115181d2916114f06100f2565b9182918261145d565b0390a1565b6115066100f2565b7ff92ee8a90000000000000000000000000000000000000000000000000000000081528061153660048201610148565b0390fd5b506115465f8301611394565b61155861155286610671565b91610671565b1015611490565b6115689061058f565b90565b6115749061155f565b90565b9061159673ffffffffffffffffffffffffffffffffffffffff916108ce565b9181191691161790565b6115a99061155f565b90565b90565b906115c46115bf6115cb926115a0565b6115ac565b8254611577565b9055565b6115f491506115ee906115e1336125a9565b6115e96125be565b61156b565b5f6115af565b565b9061160091611472565b565b61161661161161161b92610a4a565b61058c565b610671565b90565b90565b61163561163061163a9261161e565b61058c565b610671565b90565b611646906105ab565b90565b61165290611621565b9052565b9190611669905f60208501940190611649565b565b611673612567565b906116886116825f8401611366565b15610ced565b906116945f8401611394565b806116a76116a15f611602565b91610671565b14806117e1575b906116c26116bc6001611621565b91610671565b14806117b9575b6116d4909115610ced565b90816117a8575b5061176c57611704906116f96116f16001611621565b5f86016113dd565b8261175a575b6117e8565b61170c575b50565b611719905f809101611430565b60016117517fc7f505b2f371ae2175ee4913f4499e1f2633a7b5936321eed1cdaeb6115181d2916117486100f2565b91829182611656565b0390a15f611709565b61176760015f8601611430565b6116ff565b6117746100f2565b7ff92ee8a9000000000000000000000000000000000000000000000000000000008152806117a460048201610148565b0390fd5b6117b3915015610ced565b5f6116db565b506116d46117c63061163d565b3b6117d96117d35f610a4d565b91610104565b1490506116c9565b50826116ae565b61180561180b916117f8336125a9565b6118006125be565b61156b565b5f6115af565b565b6118169061166b565b565b611829906118246118a8565b61182b565b565b8061184661184061183b5f6112c1565b6101ff565b916101ff565b1461185657611854906124d7565b565b6118996118625f6112c1565b61186a6100f2565b9182917f1e4fbdf700000000000000000000000000000000000000000000000000000000835260048301610627565b0390fd5b6118a690611818565b565b6118b0611328565b6118c96118c36118be6125c8565b6101ff565b916101ff565b036118d057565b6119126118db6125c8565b6118e36100f2565b9182917f118cdaa700000000000000000000000000000000000000000000000000000000835260048301610627565b0390fd5b61192261192791610963565b610540565b90565b6119349054611916565b90565b905051906119448261020b565b565b9060208282031261195f5761195c915f01611937565b90565b6100fc565b5f7f42616c756e69537761707065723a2041646472657373206e6f74207365740000910152565b611998601e6020926107a1565b6119a181611964565b0190565b6119ba9060208101905f81830391015261198b565b90565b156119c457565b6119cc6100f2565b7f08c379a0000000000000000000000000000000000000000000000000000000008152806119fc600482016119a5565b0390fd5b611a099061058f565b90565b611a1590611a00565b90565b611a21906105ab565b90565b90565b62ffffff1690565b611a43611a3e611a4892611a24565b61058c565b611a27565b90565b611a5490611a2f565b9052565b611a61906112a5565b9052565b90959492611ab094611a9f611aa992611a95608096611a8b60a088019c5f89019061061a565b602087019061061a565b6040850190611a4b565b606083019061018f565b0190611a58565b565b7f4e487b71000000000000000000000000000000000000000000000000000000005f52601160045260245ffd5b611aee611af491939293610104565b92610104565b91611b00838202610104565b928184041490151715611b0f57565b611ab2565b90565b611b2b611b26611b3092611b14565b61058c565b610104565b90565b7f4e487b71000000000000000000000000000000000000000000000000000000005f52601260045260245ffd5b611b6c611b7291610104565b91610104565b908115611b7d570490565b611b33565b611b91611b9791939293610104565b92610104565b8203918211611ba257565b611ab2565b611bb2610100610315565b90565b90611bbf906101ff565b9052565b90611bcd90611a27565b9052565b90611bdb90610104565b9052565b90611be9906101e6565b9052565b611bf69061058f565b90565b611c0290611bed565b90565b611c0e906105ab565b90565b611c1a906101ff565b9052565b611c2790611a27565b9052565b611c3490610104565b9052565b611c41906101e6565b9052565b9060e080611cd393611c5d5f8201515f860190611c11565b611c6f60208201516020860190611c11565b611c8160408201516040860190611c1e565b611c9360608201516060860190611c11565b611ca560808201516080860190611c2b565b611cb760a082015160a0860190611c2b565b611cc960c082015160c0860190611c2b565b0151910190611c38565b565b9190611ce9905f6101008501940190611c45565b565b60207f7320300000000000000000000000000000000000000000000000000000000000917f42616c756e69537761707065723a20416d6f756e7420526563656976656420695f8201520152565b611d4560236040926107a1565b611d4e81611ceb565b0190565b611d679060208101905f818303910152611d38565b90565b15611d7157565b611d796100f2565b7f08c379a000000000000000000000000000000000000000000000000000000000815280611da960048201611d52565b0390fd5b92919091611db961095f565b50611de66020611dd0611dcb5f61192a565b6105b7565b63524900b590611dde6100f2565b938492610b29565b82528180611df660048201610148565b03915afa9081156120ea575f916120bc575b5093611e2f85611e28611e22611e1d5f6112c1565b6101ff565b916101ff565b14156119bd565b611e3b81868591612628565b611e676020611e51611e4c5f61192a565b6105b7565b63b0a7097590611e5f6100f2565b938492610b29565b82528180611e7760048201610148565b03915afa9081156120b757611e9c91611e97915f91612089575b50611a0c565b611a18565b602063f7729d43918390611ec95f8995611ed4610bb88b8491611ebd6100f2565b9a8b998a988997610b29565b875260048701611a65565b03925af1908115612084575f91612056575b5080611ef2600161097f565b611efb91611adf565b612710611f0790611b17565b611f1091611b60565b611f1991611b82565b909392610bb892429192935f95611f2e611ba7565b975f890190611f3c91611bb5565b6020880190611f4a91611bb5565b611f5390611a2f565b6040870190611f6191611bc3565b6060860190611f6f91611bb5565b6080850190611f7d91611bd1565b60a0840190611f8b91611bd1565b60c0830190611f9991611bd1565b611fa2906112a5565b60e0820190611fb091611bdf565b90611fba90611bf9565b611fc390611c05565b63414bf389611fd06100f2565b8093611fdc8293610b29565b82526004820190611fec91611cd5565b03815a6020945f91f1908115612051575f91612023575b506120208161201a6120145f610a4d565b91610104565b11611d6a565b90565b612044915060203d811161204a575b61203c81836102ec565b810190610b3e565b5f612003565b503d612032565b610b5c565b612077915060203d811161207d575b61206f81836102ec565b810190610b3e565b5f611ee6565b503d612065565b610b5c565b6120aa915060203d81116120b0575b6120a281836102ec565b810190611946565b5f611e91565b503d612098565b610b5c565b6120dd915060203d81116120e3575b6120d581836102ec565b810190611946565b5f611e08565b503d6120cb565b610b5c565b6120f8906105ab565b90565b612104306120ef565b6121366121307f00000000000000000000000000000000000000000000000000000000000000006101ff565b916101ff565b148015612180575b61214457565b61214c6100f2565b7fe07c8dba0000000000000000000000000000000000000000000000000000000081528061217c60048201610148565b0390fd5b506121896127d8565b6121bb6121b57f00000000000000000000000000000000000000000000000000000000000000006101ff565b916101ff565b141561213e565b506121cb6118a8565b565b6121d6906121c2565b565b6121e19061058f565b90565b6121ed906121d8565b90565b6121f9906105ab565b90565b61220581610420565b0361220c57565b5f80fd5b9050519061221d826121fc565b565b9060208282031261223857612235915f01612210565b90565b6100fc565b919061226b6020612255612250866121e4565b6121f0565b6352d1902d906122636100f2565b938492610b29565b8252818061227b60048201610148565b03915afa80915f9261234b575b50155f146122dc57505090600161229d57505b565b6122d8906122a96100f2565b9182917f4c9c8ce300000000000000000000000000000000000000000000000000000000835260048301610627565b0390fd5b92836122f76122f16122ec61100b565b610420565b91610420565b0361230c57612307929350612802565b61229b565b612347846123186100f2565b9182917faa1d49a400000000000000000000000000000000000000000000000000000000835260048301610430565b0390fd5b61236d91925060203d8111612374575b61236581836102ec565b81019061221f565b905f612288565b503d61235b565b612384306120ef565b6123b66123b07f00000000000000000000000000000000000000000000000000000000000000006101ff565b916101ff565b036123bd57565b6123c56100f2565b7fe07c8dba000000000000000000000000000000000000000000000000000000008152806123f560048201610148565b0390fd5b91612434949293919361240a61095f565b50602061241e6124195f61192a565b6105b7565b63524900b59061242c6100f2565b988992610b29565b8252818061244460048201610148565b03915afa9586156124a35761247296612468915f91612475575b5082908591612628565b9390919293612a50565b90565b612496915060203d811161249c575b61248e81836102ec565b810190611946565b5f61245e565b503d612484565b610b5c565b6124b1906105ab565b90565b90565b906124cc6124c76124d3926124a8565b6124b4565b8254611577565b9055565b6124df612543565b6124f76124ed5f830161131b565b915f8491016124b7565b9061252b6125257f8be0079c531659141344cd1fd0a4f28419497f9722a3daafe3b4186f6b6457e0936124a8565b916124a8565b916125346100f2565b8061253e81610148565b0390a3565b7f9016d09d72d40fdae2fd8ceac6b6234c7706214fd39c1cd1e609a0528c19930090565b7ff0c57e16840df040f15088dc2f81fe391c3923bec73e23a9662efc9c229c6a0090565b61259c90612597612da0565b61259e565b565b6125a790612e78565b565b6125b29061258b565b565b6125bc612da0565b565b6125c66125b4565b565b6125d06112ea565b503390565b6125de90610a4d565b9052565b9160206126039294936125fc60408201965f83019061061a565b01906125d5565b565b91602061262692949361261f60408201965f83019061061a565b019061018f565b565b61263490929192610b11565b9061263e82610b1d565b602063dd62ed3e9161264f306109a2565b9061266c87946126776126606100f2565b96879586948594610b29565b845260048401610c08565b03915afa9081156127d3575f916127a5575b5061269c61269683610104565b91610104565b106126a7575b505050565b6126b082610b1d565b91602063095ea7b39385906126d85f80976126e36126cc6100f2565b998a9687958694610b29565b8452600484016125e2565b03925af19081156127a05760209361270092612775575b50610b1d565b6127235f63095ea7b395939561272e6127176100f2565b97889687958694610b29565b845260048401612605565b03925af1801561277057612744575b80806126a2565b6127649060203d8111612769575b61275c81836102ec565b810190610d15565b61273d565b503d612752565b610b5c565b61279490853d8111612799575b61278c81836102ec565b810190610d15565b6126fa565b503d612782565b610b5c565b6127c6915060203d81116127cc575b6127be81836102ec565b810190610b3e565b5f612689565b503d6127b4565b610b5c565b6127e06112ea565b506127fb5f6127f56127f061100b565b612e83565b0161131b565b90565b5190565b9061280c82612e86565b816128377fbc7cd75a20ee27fd9adebab32041f755214dbc6bffa90cc0225b39da2e5c2d3b916124a8565b906128406100f2565b8061284a81610148565b0390a2612856816127fe565b6128686128625f610a4d565b91610104565b115f1461287c5761287891612f96565b505b565b5050612886612efb565b61287a565b60601b90565b61289a9061288b565b90565b6128a690612891565b90565b6128b56128ba916101ff565b61289d565b9052565b60e81b90565b6128cd906128be565b90565b6128dc6128e191611a27565b6128c4565b9052565b6014612927946129176003809661290f858761290761291f99839f9e9b6128a9565b0180926128d0565b0180926128a9565b0180926128d0565b0180926128a9565b0190565b60209181520190565b61295361295c6020936129619361294a816127fe565b9384809361292b565b958691016107aa565b6102b5565b0190565b929160206129816129899360408701908782035f890152612934565b94019061018f565b565b61299560a0610315565b90565b52565b60209181520190565b6129c36129cc6020936129d1936129ba816127fe565b9384809361299b565b958691016107aa565b6102b5565b0190565b90612a35906080806129f460a084015f8701518582035f8701526129a4565b94612a0760208201516020860190611c11565b612a1960408201516040860190611c2b565b612a2b60608201516060860190611c2b565b0151910190611c2b565b90565b612a4d9160208201915f8184039101526129d5565b90565b92909193612a5c61095f565b50612a896020612a73612a6e5f61192a565b6105b7565b63524900b590612a816100f2565b938492610b29565b82528180612a9960048201610148565b03915afa908115612d9b575f91612d6d575b5092612ab985858591612628565b612ae56020612acf612aca5f61192a565b6105b7565b63b0a7097590612add6100f2565b938492610b29565b82528180612af560048201610148565b03915afa908115612d68575f91612d3a575b506020612b5f612b5a88612b54612b1f610bb8611a2f565b91612b468d8990612b31610bb8611a2f565b9091612b3b6100f2565b9687958b87016128e5565b8682018103825203826102ec565b93611a0c565b611a18565b63cdca17539290612b835f8895612b8e612b776100f2565b97889687958694610b29565b845260048401612965565b03925af1938415612d3557612c66602097612c5d612c7596612c30612ca29c612c22612bf1612c7a9c612c6f9a5f91612d07575b50612beb612bda82612bd4600161097f565b90611adf565b612be5612710611b17565b90611b60565b90611b82565b9591612bfe610bb8611a2f565b9a90612c0b610bb8611a2f565b9091612c156100f2565b9c6020958e9687016128e5565b8d82018103825203886102ec565b93612c5442919395612c4c612c4361298b565b995f8b01612998565b8c8901611bb5565b60408701611bd1565b60608501611bd1565b60808301611bd1565b92611bf9565b611c05565b612c975f63c04b8d59612c8b6100f2565b96879586948593610b29565b835260048301612a38565b03925af1908115612d02575f91612cd4575b50612cd181612ccb612cc55f610a4d565b91610104565b11611d6a565b90565b612cf5915060203d8111612cfb575b612ced81836102ec565b810190610b3e565b5f612cb4565b503d612ce3565b610b5c565b6020612d2892503d8111612d2e575b612d2081836102ec565b810190610b3e565b5f612bc2565b503d612d16565b610b5c565b612d5b915060203d8111612d61575b612d5381836102ec565b810190611946565b5f612b07565b503d612d49565b610b5c565b612d8e915060203d8111612d94575b612d8681836102ec565b810190611946565b5f612aab565b503d612d7c565b610b5c565b612db1612dab612fc9565b15610ced565b612db757565b612dbf6100f2565b7fd7e6bcf800000000000000000000000000000000000000000000000000000000815280612def60048201610148565b0390fd5b612e0490612dff612da0565b612e06565b565b80612e21612e1b612e165f6112c1565b6101ff565b916101ff565b14612e3157612e2f906124d7565b565b612e74612e3d5f6112c1565b612e456100f2565b9182917f1e4fbdf700000000000000000000000000000000000000000000000000000000835260048301610627565b0390fd5b612e8190612df3565b565b90565b803b612e9a612e945f610a4d565b91610104565b14612ebc57612eba905f612eb4612eaf61100b565b612e83565b016124b7565b565b612ef790612ec86100f2565b9182917f4c9c8ce300000000000000000000000000000000000000000000000000000000835260048301610627565b0390fd5b34612f0e612f085f610a4d565b91610104565b11612f1557565b612f1d6100f2565b7fb398979f00000000000000000000000000000000000000000000000000000000815280612f4d60048201610148565b0390fd5b606090565b90612f68612f638361032a565b610315565b918252565b3d5f14612f8857612f7d3d612f56565b903d5f602084013e5b565b612f90612f51565b90612f86565b5f80612fc293612fa4612f51565b508390602081019051915af490612fb9612f6d565b90919091612fe7565b90565b5f90565b612fd1612fc5565b50612fe45f612fde612567565b01611366565b90565b90612ffb90612ff4612f51565b5015610ced565b5f14613007575061308b565b613010826127fe565b61302261301c5f610a4d565b91610104565b1480613070575b613031575090565b61306c9061303d6100f2565b9182917f9996b31500000000000000000000000000000000000000000000000000000000835260048301610627565b0390fd5b50803b61308561307f5f610a4d565b91610104565b14613029565b613094816127fe565b6130a66130a05f610a4d565b91610104565b115f146130b557805190602001fd5b6130bd6100f2565b7f1425ea42000000000000000000000000000000000000000000000000000000008152806130ed60048201610148565b0390fdfea264697066735822122055749730b427dca3d0ab855d099d42e33226deaf9e13d73653adc03ff987b5dc64736f6c63430008190033",
  "linkReferences": {},
  "deployedLinkReferences": {}
}