{
  "_format": "hh-sol-artifact-1",
  "contractName": "BaluniV1PoolZap",
  "sourceName": "contracts/managers/BaluniV1PoolZap.sol",
  "abi": [
    {
      "inputs": [
        {
          "internalType": "address",
          "name": "target",
          "type": "address"
        }
      ],
      "name": "AddressEmptyCode",
      "type": "error"
    },
    {
      "inputs": [
        {
          "internalType": "address",
          "name": "implementation",
          "type": "address"
        }
      ],
      "name": "ERC1967InvalidImplementation",
      "type": "error"
    },
    {
      "inputs": [],
      "name": "ERC1967NonPayable",
      "type": "error"
    },
    {
      "inputs": [],
      "name": "FailedInnerCall",
      "type": "error"
    },
    {
      "inputs": [],
      "name": "InvalidInitialization",
      "type": "error"
    },
    {
      "inputs": [],
      "name": "NotInitializing",
      "type": "error"
    },
    {
      "inputs": [
        {
          "internalType": "address",
          "name": "owner",
          "type": "address"
        }
      ],
      "name": "OwnableInvalidOwner",
      "type": "error"
    },
    {
      "inputs": [
        {
          "internalType": "address",
          "name": "account",
          "type": "address"
        }
      ],
      "name": "OwnableUnauthorizedAccount",
      "type": "error"
    },
    {
      "inputs": [],
      "name": "ReentrancyGuardReentrantCall",
      "type": "error"
    },
    {
      "inputs": [],
      "name": "UUPSUnauthorizedCallContext",
      "type": "error"
    },
    {
      "inputs": [
        {
          "internalType": "bytes32",
          "name": "slot",
          "type": "bytes32"
        }
      ],
      "name": "UUPSUnsupportedProxiableUUID",
      "type": "error"
    },
    {
      "anonymous": false,
      "inputs": [
        {
          "indexed": false,
          "internalType": "uint64",
          "name": "version",
          "type": "uint64"
        }
      ],
      "name": "Initialized",
      "type": "event"
    },
    {
      "anonymous": false,
      "inputs": [
        {
          "indexed": true,
          "internalType": "address",
          "name": "previousOwner",
          "type": "address"
        },
        {
          "indexed": true,
          "internalType": "address",
          "name": "newOwner",
          "type": "address"
        }
      ],
      "name": "OwnershipTransferred",
      "type": "event"
    },
    {
      "anonymous": false,
      "inputs": [
        {
          "indexed": true,
          "internalType": "address",
          "name": "implementation",
          "type": "address"
        }
      ],
      "name": "Upgraded",
      "type": "event"
    },
    {
      "inputs": [],
      "name": "UPGRADE_INTERFACE_VERSION",
      "outputs": [
        {
          "internalType": "string",
          "name": "",
          "type": "string"
        }
      ],
      "stateMutability": "view",
      "type": "function"
    },
    {
      "inputs": [],
      "name": "WETH9",
      "outputs": [
        {
          "internalType": "address",
          "name": "",
          "type": "address"
        }
      ],
      "stateMutability": "view",
      "type": "function"
    },
    {
      "inputs": [],
      "name": "baluniSwapper",
      "outputs": [
        {
          "internalType": "contract IBaluniV1Swapper",
          "name": "",
          "type": "address"
        }
      ],
      "stateMutability": "view",
      "type": "function"
    },
    {
      "inputs": [
        {
          "internalType": "address",
          "name": "_registry",
          "type": "address"
        }
      ],
      "name": "initialize",
      "outputs": [],
      "stateMutability": "nonpayable",
      "type": "function"
    },
    {
      "inputs": [],
      "name": "owner",
      "outputs": [
        {
          "internalType": "address",
          "name": "",
          "type": "address"
        }
      ],
      "stateMutability": "view",
      "type": "function"
    },
    {
      "inputs": [],
      "name": "proxiableUUID",
      "outputs": [
        {
          "internalType": "bytes32",
          "name": "",
          "type": "bytes32"
        }
      ],
      "stateMutability": "view",
      "type": "function"
    },
    {
      "inputs": [],
      "name": "registry",
      "outputs": [
        {
          "internalType": "contract IBaluniV1Registry",
          "name": "",
          "type": "address"
        }
      ],
      "stateMutability": "view",
      "type": "function"
    },
    {
      "inputs": [],
      "name": "renounceOwnership",
      "outputs": [],
      "stateMutability": "nonpayable",
      "type": "function"
    },
    {
      "inputs": [
        {
          "internalType": "address",
          "name": "newOwner",
          "type": "address"
        }
      ],
      "name": "transferOwnership",
      "outputs": [],
      "stateMutability": "nonpayable",
      "type": "function"
    },
    {
      "inputs": [
        {
          "internalType": "address",
          "name": "newImplementation",
          "type": "address"
        },
        {
          "internalType": "bytes",
          "name": "data",
          "type": "bytes"
        }
      ],
      "name": "upgradeToAndCall",
      "outputs": [],
      "stateMutability": "payable",
      "type": "function"
    },
    {
      "inputs": [
        {
          "internalType": "address",
          "name": "poolAddress",
          "type": "address"
        },
        {
          "internalType": "address",
          "name": "tokenIn",
          "type": "address"
        },
        {
          "internalType": "uint256",
          "name": "amountIn",
          "type": "uint256"
        },
        {
          "internalType": "uint256",
          "name": "minAmountsOut",
          "type": "uint256"
        },
        {
          "internalType": "address",
          "name": "receiver",
          "type": "address"
        }
      ],
      "name": "zapIn",
      "outputs": [],
      "stateMutability": "payable",
      "type": "function"
    },
    {
      "inputs": [
        {
          "internalType": "address",
          "name": "poolAddress",
          "type": "address"
        },
        {
          "internalType": "uint256",
          "name": "share",
          "type": "uint256"
        },
        {
          "internalType": "address",
          "name": "tokenOut",
          "type": "address"
        },
        {
          "internalType": "uint256",
          "name": "minAmountOut",
          "type": "uint256"
        },
        {
          "internalType": "address",
          "name": "receiver",
          "type": "address"
        }
      ],
      "name": "zapOut",
      "outputs": [],
      "stateMutability": "nonpayable",
      "type": "function"
    },
    {
      "stateMutability": "payable",
      "type": "receive"
    }
  ],
  "bytecode": "0x60a0806040523460295730608052611d2f908161002e8239608051818181611248015261134b0152f35b5f80fdfe608080604052600436101561001c575b50361561001a575f80fd5b005b5f905f3560e01c9081634aa4a4fc146115ae575080634f1ef286146112c257806352d1902d14611221578063715018a6146111835780637b103999146111515780637dfb7ea11461111e5780638da5cb5b146110cc578063ad3cb1cc14610ffb578063b1aa8cd1146108ca578063b487c54a14610413578063c4d66de8146100d75763f2fde38b0361000f57346100d45760206003193601126100d4576100d16100c46115de565b6100cc61198d565b6118cc565b80f35b80fd5b50346100d45760208060031936011261040f576100f26115de565b907ff0c57e16840df040f15088dc2f81fe391c3923bec73e23a9662efc9c229c6a009182549060ff8260401c16159067ffffffffffffffff831692831580610408575b600180951490816103fe575b1590816103f5575b506103cb5782847fffffffffffffffffffffffffffffffffffffffffffffffff00000000000000008316178755610396575b50610184611c00565b61018c611c00565b610195336118cc565b61019d611c00565b6101a5611c00565b827f9b779b17422d0df92223018b32b4d1fa46e071723d6817e2486d003becc55f00556101d0611c00565b73ffffffffffffffffffffffffffffffffffffffff80911690865491877fffffffffffffffffffffffff0000000000000000000000000000000000000000938285821617825516176040517f82755ebb0000000000000000000000000000000000000000000000000000000081528681600481855afa91821561038b578388928b9461034a575b506004931685885416178755604051928380927f6c9c00780000000000000000000000000000000000000000000000000000000082525afa90811561033f578891610306575b50169060025416176002556102b0578380f35b827fffffffffffffffffffffffffffffffffffffffffffffff00ffffffffffffffff7fc7f505b2f371ae2175ee4913f4499e1f2633a7b5936321eed1cdaeb6115181d29454169055604051908152a15f80808380f35b90508581813d8311610338575b61031d8183611638565b810103126103345761032e906116d8565b5f61029d565b8780fd5b503d610313565b6040513d8a823e3d90fd5b92809294508391503d8311610384575b6103648183611638565b81010312610380576004918361037a89936116d8565b93610257565b8880fd5b503d61035a565b6040513d8b823e3d90fd5b7fffffffffffffffffffffffffffffffffffffffffffffff00000000000000000016680100000000000000011785555f61017b565b60046040517ff92ee8a9000000000000000000000000000000000000000000000000000000008152fd5b9050155f610149565b303b159150610141565b5082610135565b5080fd5b5060a06003193601126100d4576104286115de565b906024359073ffffffffffffffffffffffffffffffffffffffff908183169182840361074e57604435946064359161045e611601565b956104676119fd565b9361012c42019283421161089d57821692604051957f67e4ac2c0000000000000000000000000000000000000000000000000000000087528287600481885afa968715610759578397610879575b506104c0875161177b565b97806107f6575050883403610798578260025416803b1561079457828a916004604051809481937fd0e30db00000000000000000000000000000000000000000000000000000000083525af1801561075957908391610780575b50508260025416935b825b87518110156105b55780888c828880610540600197866117ca565b5116818c16145f1461056c5750505061055a90518d611895565b610564828c6117ca565b525b01610525565b61057c6105879261058f956117ca565b5116918c5190611895565b30918a611a57565b610599828c6117ca565b526105b0886105a8838d6117ca565b511015611818565b610566565b508784888b865b825181101561068957836105d082856117ca565b5116906105dd81876117ca565b516040517f095ea7b300000000000000000000000000000000000000000000000000000000815273ffffffffffffffffffffffffffffffffffffffff891660048201526024810191909152916020908190849060449082908e905af192831561067e57600193610650575b5050016105bc565b8161066f92903d10610677575b6106678183611638565b81019061187d565b508980610648565b503d61065d565b6040513d8c823e3d90fd5b5092905084918694856040519485937fb3bf9d32000000000000000000000000000000000000000000000000000000008552606485019716600485015260606024850152845180975260848401906020978880970190845b818110610764575050508492918391604483015203925af180156107595761072c575b8260017f9b779b17422d0df92223018b32b4d1fa46e071723d6817e2486d003becc55f005580f35b813d8311610752575b61073f8183611638565b8101031261074e578180610704565b5f80fd5b503d610735565b6040513d85823e3d90fd5b825185528a988a98508c965094850194909201916001016106e1565b61078990611624565b61040f57815f61051a565b8280fd5b60646040517f08c379a000000000000000000000000000000000000000000000000000000000815260206004820152601460248201527f496e636f72726563742045544820616d6f756e740000000000000000000000006044820152fd5b6020849160648d60409995995194859384927f23b872dd00000000000000000000000000000000000000000000000000000000845233600485015230602485015260448401525af1801561086e5761084f575b50610523565b6108679060203d602011610677576106678183611638565b505f610849565b6040513d86823e3d90fd5b6108969197503d8085833e61088e8183611638565b8101906116f9565b955f6104b5565b6024827f4e487b710000000000000000000000000000000000000000000000000000000081526011600452fd5b503461074e5760a060031936011261074e576108e46115de565b73ffffffffffffffffffffffffffffffffffffffff604435166044350361074e5761090d611601565b6109156119fd565b61012c420191824211610fce5773ffffffffffffffffffffffffffffffffffffffff1690604051907f67e4ac2c0000000000000000000000000000000000000000000000000000000082525f82600481865afa918215610bb5575f92610fb2575b50610981825161177b565b92604051947f70a0823100000000000000000000000000000000000000000000000000000000865230600487015260208660248173ffffffffffffffffffffffffffffffffffffffff604435165afa958615610bb5575f96610f7e575b505f91606460209260405194859384927fe63697c8000000000000000000000000000000000000000000000000000000008452602435600485015230602485015260448401525af18015610bb557610f53575b505f94855b8351871015610cef576024602073ffffffffffffffffffffffffffffffffffffffff610a628a886117ca565b5116604051928380927f70a082310000000000000000000000000000000000000000000000000000000082523060048301525afa908115610bb5575f91610cbd575b5073ffffffffffffffffffffffffffffffffffffffff6044351673ffffffffffffffffffffffffffffffffffffffff610add8a886117ca565b511603610bc0576024602073ffffffffffffffffffffffffffffffffffffffff610b078b896117ca565b5116604051928380927f70a082310000000000000000000000000000000000000000000000000000000082523060048301525afa908115610bb5575f91610b7f575b5091610b5a610b769260019461180b565b610b648a896117ca565b52610b6f89886117ca565b51906116b3565b965b0195610a36565b9290506020833d602011610bad575b81610b9b60209383611638565b8101031261074e579151610b5a610b49565b3d9150610b8e565b6040513d5f823e3d90fd5b6024602073ffffffffffffffffffffffffffffffffffffffff610be38b896117ca565b5116604051928380927f70a082310000000000000000000000000000000000000000000000000000000082523060048301525afa908115610bb5575f91610c87575b5091610c36610c819260019461180b565b610c408a896117ca565b52610c7b73ffffffffffffffffffffffffffffffffffffffff610c638b896117ca565b5116610c6f8b8a6117ca565b51339160443590611a57565b906116b3565b96610b78565b9290506020833d602011610cb5575b81610ca360209383611638565b8101031261074e579151610c36610c25565b3d9150610c96565b90506020813d602011610ce7575b81610cd860209383611638565b8101031261074e57515f610aa4565b3d9150610ccb565b506040517f70a082310000000000000000000000000000000000000000000000000000000081523060048201528560208260248160443573ffffffffffffffffffffffffffffffffffffffff165afa8015610bb5575f90610f1f575b610d55925061180b565b91610d64606435841015611818565b73ffffffffffffffffffffffffffffffffffffffff6002541673ffffffffffffffffffffffffffffffffffffffff60443516145f14610e7d5773ffffffffffffffffffffffffffffffffffffffff60025416803b1561074e575f80916024604051809481937f2e1a7d4d0000000000000000000000000000000000000000000000000000000083528960048401525af18015610bb557610e6a575b5081808094819382908215610e60575b73ffffffffffffffffffffffffffffffffffffffff1690f115610e54575b60017f9b779b17422d0df92223018b32b4d1fa46e071723d6817e2486d003becc55f005580f35b604051903d90823e3d90fd5b6108fc9150610e0f565b610e75919250611624565b5f9083610dff565b6040517fa9059cbb00000000000000000000000000000000000000000000000000000000815273ffffffffffffffffffffffffffffffffffffffff9091166004820152602481019290925290602081806044810103815f73ffffffffffffffffffffffffffffffffffffffff604435165af18015610bb557610f00575b50610e2d565b610f189060203d602011610677576106678183611638565b5081610efa565b506020823d602011610f4b575b81610f3960209383611638565b8101031261074e57610d559151610d4b565b3d9150610f2c565b602090813d8311610f77575b610f698183611638565b8101031261074e575f610a31565b503d610f5f565b9095506020813d602011610faa575b81610f9a60209383611638565b8101031261074e5751945f6109de565b3d9150610f8d565b610fc79192503d805f833e61088e8183611638565b905f610976565b7f4e487b71000000000000000000000000000000000000000000000000000000005f52601160045260245ffd5b3461074e575f60031936011261074e576040516040810181811067ffffffffffffffff82111761109f5760405260058152604060208201917f352e302e3000000000000000000000000000000000000000000000000000000083527fffffffffffffffffffffffffffffffffffffffffffffffffffffffffffffffe0601f8351948593602085525180918160208701528686015e5f85828601015201168101030190f35b7f4e487b71000000000000000000000000000000000000000000000000000000005f52604160045260245ffd5b3461074e575f60031936011261074e57602073ffffffffffffffffffffffffffffffffffffffff7f9016d09d72d40fdae2fd8ceac6b6234c7706214fd39c1cd1e609a0528c1993005416604051908152f35b3461074e575f60031936011261074e57602073ffffffffffffffffffffffffffffffffffffffff60015416604051908152f35b3461074e575f60031936011261074e57602073ffffffffffffffffffffffffffffffffffffffff5f5416604051908152f35b3461074e575f60031936011261074e5761119b61198d565b5f73ffffffffffffffffffffffffffffffffffffffff7f9016d09d72d40fdae2fd8ceac6b6234c7706214fd39c1cd1e609a0528c1993008054907fffffffffffffffffffffffff000000000000000000000000000000000000000082169055167f8be0079c531659141344cd1fd0a4f28419497f9722a3daafe3b4186f6b6457e08280a3005b3461074e575f60031936011261074e5773ffffffffffffffffffffffffffffffffffffffff7f00000000000000000000000000000000000000000000000000000000000000001630036112985760206040517f360894a13ba1a3210667c828492db98dca3e2076cc3735a920a3ca505d382bbc8152f35b60046040517fe07c8dba000000000000000000000000000000000000000000000000000000008152fd5b604060031936011261074e576112d66115de565b602490813567ffffffffffffffff811161074e573660238201121561074e57806004013561130381611679565b926113116040519485611638565b818452602091828501933687838301011161074e57815f928886930187378601015273ffffffffffffffffffffffffffffffffffffffff807f000000000000000000000000000000000000000000000000000000000000000016803014908115611580575b506112985761138361198d565b8116936040517f52d1902d0000000000000000000000000000000000000000000000000000000081528381600481895afa5f9181611551575b506113f1578686604051907f4c9c8ce30000000000000000000000000000000000000000000000000000000082526004820152fd5b8590877f360894a13ba1a3210667c828492db98dca3e2076cc3735a920a3ca505d382bbc918281036115235750843b156114f45750817fffffffffffffffffffffffff0000000000000000000000000000000000000000825416179055604051907fbc7cd75a20ee27fd9adebab32041f755214dbc6bffa90cc0225b39da2e5c2d3b5f80a28151156114c057505f61001a9481925190845af4903d156114b7573d61149b81611679565b906114a96040519283611638565b81525f81943d92013e611c59565b60609250611c59565b9350505050346114cc57005b807fb398979f0000000000000000000000000000000000000000000000000000000060049252fd5b82604051907f4c9c8ce30000000000000000000000000000000000000000000000000000000082526004820152fd5b604051907faa1d49a40000000000000000000000000000000000000000000000000000000082526004820152fd5b9091508481813d8311611579575b6115698183611638565b8101031261074e575190886113bc565b503d61155f565b9050817f360894a13ba1a3210667c828492db98dca3e2076cc3735a920a3ca505d382bbc5416141587611376565b3461074e575f60031936011261074e5760209073ffffffffffffffffffffffffffffffffffffffff600254168152f35b6004359073ffffffffffffffffffffffffffffffffffffffff8216820361074e57565b6084359073ffffffffffffffffffffffffffffffffffffffff8216820361074e57565b67ffffffffffffffff811161109f57604052565b90601f7fffffffffffffffffffffffffffffffffffffffffffffffffffffffffffffffe0910116810190811067ffffffffffffffff82111761109f57604052565b67ffffffffffffffff811161109f57601f017fffffffffffffffffffffffffffffffffffffffffffffffffffffffffffffffe01660200190565b91908201809211610fce57565b67ffffffffffffffff811161109f5760051b60200190565b519073ffffffffffffffffffffffffffffffffffffffff8216820361074e57565b602090818184031261074e5780519067ffffffffffffffff821161074e57019180601f8401121561074e57825161172f816116c0565b9361173d6040519586611638565b818552838086019260051b82010192831161074e578301905b828210611764575050505090565b838091611770846116d8565b815201910190611756565b90611785826116c0565b6117926040519182611638565b8281527fffffffffffffffffffffffffffffffffffffffffffffffffffffffffffffffe06117c082946116c0565b0190602036910137565b80518210156117de5760209160051b010190565b7f4e487b71000000000000000000000000000000000000000000000000000000005f52603260045260245ffd5b91908203918211610fce57565b1561181f57565b60646040517f08c379a000000000000000000000000000000000000000000000000000000000815260206004820152601a60248201527f496e73756666696369656e74206f757470757420616d6f756e740000000000006044820152fd5b9081602091031261074e5751801515810361074e5790565b811561189f570490565b7f4e487b71000000000000000000000000000000000000000000000000000000005f52601260045260245ffd5b73ffffffffffffffffffffffffffffffffffffffff80911690811561195d577f9016d09d72d40fdae2fd8ceac6b6234c7706214fd39c1cd1e609a0528c199300805490837fffffffffffffffffffffffff00000000000000000000000000000000000000008316179055167f8be0079c531659141344cd1fd0a4f28419497f9722a3daafe3b4186f6b6457e05f80a3565b60246040517f1e4fbdf70000000000000000000000000000000000000000000000000000000081525f6004820152fd5b73ffffffffffffffffffffffffffffffffffffffff7f9016d09d72d40fdae2fd8ceac6b6234c7706214fd39c1cd1e609a0528c199300541633036119cd57565b60246040517f118cdaa7000000000000000000000000000000000000000000000000000000008152336004820152fd5b7f9b779b17422d0df92223018b32b4d1fa46e071723d6817e2486d003becc55f006002815414611a2d5760029055565b60046040517f3ee5aeb5000000000000000000000000000000000000000000000000000000008152fd5b9091939273ffffffffffffffffffffffffffffffffffffffff808094169216828114611bfa576001546040517f095ea7b300000000000000000000000000000000000000000000000000000000815290851673ffffffffffffffffffffffffffffffffffffffff16600482015260248101879052602094939290919085836044815f865af1908115610bb55786956084945f93611bdd575b508060015416916040519a8b9788967f2d6bc8ea0000000000000000000000000000000000000000000000000000000088526004880152602487015260448601521660648401525af1928315610bb5575f93611bae575b508215611b505750565b606490604051907f08c379a00000000000000000000000000000000000000000000000000000000082526004820152600b60248201527f53776170206661696c65640000000000000000000000000000000000000000006044820152fd5b9080935081813d8311611bd6575b611bc68183611638565b8101031261074e5751915f611b46565b503d611bbc565b611bf390883d8a11610677576106678183611638565b505f611aef565b50505050565b60ff7ff0c57e16840df040f15088dc2f81fe391c3923bec73e23a9662efc9c229c6a005460401c1615611c2f57565b60046040517fd7e6bcf8000000000000000000000000000000000000000000000000000000008152fd5b90611c985750805115611c6e57805190602001fd5b60046040517f1425ea42000000000000000000000000000000000000000000000000000000008152fd5b81511580611cf0575b611ca9575090565b60249073ffffffffffffffffffffffffffffffffffffffff604051917f9996b315000000000000000000000000000000000000000000000000000000008352166004820152fd5b50803b15611ca156fea2646970667358221220aa4dd62685d236aaa1976ef250e4215fbd0780b3e310fc91cc9a172ced24ea4364736f6c63430008190033",
  "linkReferences": {},
  "deployedLinkReferences": {}
}