{
  "_format": "hh-sol-artifact-1",
  "contractName": "BaluniV1PoolZap",
  "sourceName": "contracts/managers/BaluniV1PoolZap.sol",
  "abi": [
    {
      "inputs": [
        {
          "internalType": "address",
          "name": "target",
          "type": "address"
        }
      ],
      "name": "AddressEmptyCode",
      "type": "error"
    },
    {
      "inputs": [
        {
          "internalType": "address",
          "name": "implementation",
          "type": "address"
        }
      ],
      "name": "ERC1967InvalidImplementation",
      "type": "error"
    },
    {
      "inputs": [],
      "name": "ERC1967NonPayable",
      "type": "error"
    },
    {
      "inputs": [],
      "name": "FailedInnerCall",
      "type": "error"
    },
    {
      "inputs": [],
      "name": "InvalidInitialization",
      "type": "error"
    },
    {
      "inputs": [],
      "name": "NotInitializing",
      "type": "error"
    },
    {
      "inputs": [
        {
          "internalType": "address",
          "name": "owner",
          "type": "address"
        }
      ],
      "name": "OwnableInvalidOwner",
      "type": "error"
    },
    {
      "inputs": [
        {
          "internalType": "address",
          "name": "account",
          "type": "address"
        }
      ],
      "name": "OwnableUnauthorizedAccount",
      "type": "error"
    },
    {
      "inputs": [],
      "name": "ReentrancyGuardReentrantCall",
      "type": "error"
    },
    {
      "inputs": [],
      "name": "UUPSUnauthorizedCallContext",
      "type": "error"
    },
    {
      "inputs": [
        {
          "internalType": "bytes32",
          "name": "slot",
          "type": "bytes32"
        }
      ],
      "name": "UUPSUnsupportedProxiableUUID",
      "type": "error"
    },
    {
      "anonymous": false,
      "inputs": [
        {
          "indexed": false,
          "internalType": "uint64",
          "name": "version",
          "type": "uint64"
        }
      ],
      "name": "Initialized",
      "type": "event"
    },
    {
      "anonymous": false,
      "inputs": [
        {
          "indexed": true,
          "internalType": "address",
          "name": "previousOwner",
          "type": "address"
        },
        {
          "indexed": true,
          "internalType": "address",
          "name": "newOwner",
          "type": "address"
        }
      ],
      "name": "OwnershipTransferred",
      "type": "event"
    },
    {
      "anonymous": false,
      "inputs": [
        {
          "indexed": true,
          "internalType": "address",
          "name": "implementation",
          "type": "address"
        }
      ],
      "name": "Upgraded",
      "type": "event"
    },
    {
      "inputs": [],
      "name": "UPGRADE_INTERFACE_VERSION",
      "outputs": [
        {
          "internalType": "string",
          "name": "",
          "type": "string"
        }
      ],
      "stateMutability": "view",
      "type": "function"
    },
    {
      "inputs": [],
      "name": "WETH9",
      "outputs": [
        {
          "internalType": "address",
          "name": "",
          "type": "address"
        }
      ],
      "stateMutability": "view",
      "type": "function"
    },
    {
      "inputs": [],
      "name": "baluniSwapper",
      "outputs": [
        {
          "internalType": "contract IBaluniV1Swapper",
          "name": "",
          "type": "address"
        }
      ],
      "stateMutability": "view",
      "type": "function"
    },
    {
      "inputs": [
        {
          "internalType": "address",
          "name": "_registry",
          "type": "address"
        }
      ],
      "name": "initialize",
      "outputs": [],
      "stateMutability": "nonpayable",
      "type": "function"
    },
    {
      "inputs": [],
      "name": "owner",
      "outputs": [
        {
          "internalType": "address",
          "name": "",
          "type": "address"
        }
      ],
      "stateMutability": "view",
      "type": "function"
    },
    {
      "inputs": [],
      "name": "proxiableUUID",
      "outputs": [
        {
          "internalType": "bytes32",
          "name": "",
          "type": "bytes32"
        }
      ],
      "stateMutability": "view",
      "type": "function"
    },
    {
      "inputs": [],
      "name": "registry",
      "outputs": [
        {
          "internalType": "contract IBaluniV1Registry",
          "name": "",
          "type": "address"
        }
      ],
      "stateMutability": "view",
      "type": "function"
    },
    {
      "inputs": [],
      "name": "renounceOwnership",
      "outputs": [],
      "stateMutability": "nonpayable",
      "type": "function"
    },
    {
      "inputs": [
        {
          "internalType": "address",
          "name": "newOwner",
          "type": "address"
        }
      ],
      "name": "transferOwnership",
      "outputs": [],
      "stateMutability": "nonpayable",
      "type": "function"
    },
    {
      "inputs": [
        {
          "internalType": "address",
          "name": "newImplementation",
          "type": "address"
        },
        {
          "internalType": "bytes",
          "name": "data",
          "type": "bytes"
        }
      ],
      "name": "upgradeToAndCall",
      "outputs": [],
      "stateMutability": "payable",
      "type": "function"
    },
    {
      "inputs": [
        {
          "internalType": "address",
          "name": "poolAddress",
          "type": "address"
        },
        {
          "internalType": "address",
          "name": "tokenIn",
          "type": "address"
        },
        {
          "internalType": "uint256",
          "name": "amountIn",
          "type": "uint256"
        },
        {
          "internalType": "uint256",
          "name": "minAmountsOut",
          "type": "uint256"
        },
        {
          "internalType": "address",
          "name": "receiver",
          "type": "address"
        }
      ],
      "name": "zapIn",
      "outputs": [],
      "stateMutability": "payable",
      "type": "function"
    },
    {
      "inputs": [
        {
          "internalType": "address",
          "name": "poolAddress",
          "type": "address"
        },
        {
          "internalType": "uint256",
          "name": "share",
          "type": "uint256"
        },
        {
          "internalType": "address",
          "name": "tokenOut",
          "type": "address"
        },
        {
          "internalType": "uint256",
          "name": "minAmountOut",
          "type": "uint256"
        },
        {
          "internalType": "address",
          "name": "receiver",
          "type": "address"
        }
      ],
      "name": "zapOut",
      "outputs": [],
      "stateMutability": "nonpayable",
      "type": "function"
    },
    {
      "stateMutability": "payable",
      "type": "receive"
    }
  ],
  "bytecode": "0x60a060405234603957600e6047565b6014603d565b613331610094823960805181818161249c01528181612521015261271c015261333190f35b6043565b60405190565b5f80fd5b604d6087565b565b60018060a01b031690565b90565b606c6068607092604f565b605a565b604f565b90565b607a90605d565b90565b6084906073565b90565b608e30607d565b60805256fe60806040526004361015610015575b366108a657005b61001f5f356100de565b80634aa4a4fc146100d95780634f1ef286146100d457806352d1902d146100cf578063715018a6146100ca5780637b103999146100c55780637dfb7ea1146100c05780638da5cb5b146100bb578063ad3cb1cc146100b6578063b1aa8cd1146100b1578063b487c54a146100ac578063c4d66de8146100a75763f2fde38b0361000e57610873565b610840565b6107f5565b610768565b6106b7565b610586565b610551565b6104a0565b6103c8565b610393565b610344565b61019a565b60e01c90565b60405190565b5f80fd5b5f80fd5b5f9103126100fc57565b6100ee565b1c90565b73ffffffffffffffffffffffffffffffffffffffff1690565b61012e9060086101339302610101565b610105565b90565b90610141915461011e565b90565b61015060025f90610136565b90565b73ffffffffffffffffffffffffffffffffffffffff1690565b61017590610153565b90565b6101819061016c565b9052565b9190610198905f60208501940190610178565b565b346101ca576101aa3660046100f2565b6101c66101b5610144565b6101bd6100e4565b91829182610185565b0390f35b6100ea565b5f80fd5b6101dc8161016c565b036101e357565b5f80fd5b905035906101f4826101d3565b565b5f80fd5b5f80fd5b601f801991011690565b7f4e487b71000000000000000000000000000000000000000000000000000000005f52604160045260245ffd5b9061023f906101fe565b810190811067ffffffffffffffff82111761025957604052565b610208565b9061027161026a6100e4565b9283610235565b565b67ffffffffffffffff81116102915761028d6020916101fe565b0190565b610208565b90825f939282370152565b909291926102b66102b182610273565b61025e565b938185526020850190828401116102d2576102d092610296565b565b6101fa565b9080601f830112156102f5578160206102f2933591016102a1565b90565b6101f6565b91909160408184031261033a57610313835f83016101e7565b92602082013567ffffffffffffffff81116103355761033292016102d7565b90565b6101cf565b6100ee565b5f0190565b6103586103523660046102fa565b906108d3565b6103606100e4565b8061036a8161033f565b0390f35b90565b61037a9061036e565b9052565b9190610391905f60208501940190610371565b565b346103c3576103a33660046100f2565b6103bf6103ae610953565b6103b66100e4565b9182918261037e565b0390f35b6100ea565b346103f6576103d83660046100f2565b6103e06109b6565b6103e86100e4565b806103f28161033f565b0390f35b6100ea565b73ffffffffffffffffffffffffffffffffffffffff1690565b6104249060086104299302610101565b6103fb565b90565b906104379154610414565b90565b6104445f8061042c565b90565b90565b61045e61045961046392610153565b610447565b610153565b90565b61046f9061044a565b90565b61047b90610466565b90565b61048790610472565b9052565b919061049e905f6020850194019061047e565b565b346104d0576104b03660046100f2565b6104cc6104bb61043a565b6104c36100e4565b9182918261048b565b0390f35b6100ea565b73ffffffffffffffffffffffffffffffffffffffff1690565b6104fe9060086105039302610101565b6104d5565b90565b9061051191546104ee565b90565b61052060015f90610506565b90565b61052c90610466565b90565b61053890610523565b9052565b919061054f905f6020850194019061052f565b565b34610581576105613660046100f2565b61057d61056c610514565b6105746100e4565b9182918261053c565b0390f35b6100ea565b346105b6576105963660046100f2565b6105b26105a16109ea565b6105a96100e4565b91829182610185565b0390f35b6100ea565b67ffffffffffffffff81116105d9576105d56020916101fe565b0190565b610208565b906105f06105eb836105bb565b61025e565b918252565b5f7f352e302e30000000000000000000000000000000000000000000000000000000910152565b61062660056105de565b90610633602083016105f5565b565b61063d61061c565b90565b610648610635565b90565b610653610640565b90565b5190565b60209181520190565b90825f9392825e0152565b61068d61069660209361069b9361068481610656565b9384809361065a565b95869101610663565b6101fe565b0190565b6106b49160208201915f81840391015261066e565b90565b346106e7576106c73660046100f2565b6106e36106d261064b565b6106da6100e4565b9182918261069f565b0390f35b6100ea565b90565b6106f8816106ec565b036106ff57565b5f80fd5b90503590610710826106ef565b565b919060a0838203126107635761072a815f85016101e7565b926107388260208301610703565b9261076061074984604085016101e7565b936107578160608601610703565b936080016101e7565b90565b6100ee565b3461079a5761078461077b366004610712565b939290926117f3565b61078c6100e4565b806107968161033f565b0390f35b6100ea565b919060a0838203126107f0576107b7815f85016101e7565b926107c582602083016101e7565b926107ed6107d68460408501610703565b936107e48160608601610703565b936080016101e7565b90565b6100ee565b61080c61080336600461079f565b93929092611e64565b6108146100e4565b8061081e8161033f565b0390f35b9060208282031261083b57610838915f016101e7565b90565b6100ee565b3461086e57610858610853366004610822565b6123e4565b6108606100e4565b8061086a8161033f565b0390f35b6100ea565b346108a15761088b610886366004610822565b612474565b6108936100e4565b8061089d8161033f565b0390f35b6100ea565b5f80fd5b906108bc916108b761248b565b6108be565b565b906108d1916108cc8161255d565b6125cd565b565b906108dd916108aa565b565b5f90565b6108f4906108ef61270b565b610947565b90565b90565b5f1b90565b61091361090e610918926108f7565b6108fa565b61036e565b90565b6109447f360894a13ba1a3210667c828492db98dca3e2076cc3735a920a3ca505d382bbc6108ff565b90565b5061095061091b565b90565b61096361095e6108df565b6108e3565b90565b61096e612789565b6109766109a3565b565b90565b61098f61098a61099492610978565b610447565b610153565b90565b6109a09061097b565b90565b6109b46109af5f610997565b6127f7565b565b6109be610966565b565b5f90565b5f1c90565b6109d56109da916109c4565b610105565b90565b6109e790546109c9565b90565b6109f26109c0565b50610a055f6109ff612863565b016109dd565b90565b90610a1d94939291610a1861294b565b610f41565b610a256129f7565b565b90565b610a3e610a39610a4392610a27565b610447565b6106ec565b90565b7f4e487b71000000000000000000000000000000000000000000000000000000005f52601160045260245ffd5b610a82610a88919392936106ec565b926106ec565b8201809211610a9357565b610a46565b610aa19061044a565b90565b610aad90610a98565b90565b610ab990610466565b90565b5f80fd5b60e01b90565b67ffffffffffffffff8111610ade5760208091020190565b610208565b5f80fd5b90505190610af4826101d3565b565b90929192610b0b610b0682610ac6565b61025e565b9381855260208086019202830192818411610b4857915b838310610b2f5750505050565b60208091610b3d8486610ae7565b815201920191610b22565b610ae3565b9080601f83011215610b6b57816020610b6893519101610af6565b90565b6101f6565b90602082820312610ba0575f82015167ffffffffffffffff8111610b9b57610b989201610b4d565b90565b6101cf565b6100ee565b610bad6100e4565b3d5f823e3d90fd5b5190565b67ffffffffffffffff8111610bd15760208091020190565b610208565b90610be8610be383610bb9565b61025e565b918252565b369037565b90610c17610bff83610bd6565b92602080610c0d8693610bb9565b9201910390610bed565b565b610c2d610c28610c3292610978565b610447565b6106ec565b90565b6001610c4191016106ec565b90565b7f4e487b71000000000000000000000000000000000000000000000000000000005f52603260045260245ffd5b90610c7b82610bb5565b811015610c8c576020809102010190565b610c44565b610c9b905161016c565b90565b610ca79061044a565b90565b610cb390610c9e565b90565b610cbf90610466565b90565b610ccb90610466565b90565b90505190610cdb826106ef565b565b90602082820312610cf657610cf3915f01610cce565b90565b6100ee565b5190565b90610d0982610cfb565b811015610d1a576020809102010190565b610c44565b90610d29906106ec565b9052565b151590565b610d3b81610d2d565b03610d4257565b5f80fd5b90505190610d5382610d32565b565b90602082820312610d6e57610d6b915f01610d46565b90565b6100ee565b610d7c906106ec565b9052565b604090610da9610db09496959396610d9f60608401985f850190610178565b6020830190610178565b0190610d73565b565b916020610dd3929493610dcc60408201965f830190610178565b0190610d73565b565b604090610dfe610e059496959396610df460608401985f850190610d73565b6020830190610178565b0190610d73565b565b610e1190516106ec565b90565b610e23610e29919392936106ec565b926106ec565b8203918211610e3457565b610a46565b5f7f496e73756666696369656e74206f757470757420616d6f756e74000000000000910152565b610e6d601a60209261065a565b610e7681610e39565b0190565b610e8f9060208101905f818303910152610e60565b90565b15610e9957565b610ea16100e4565b7f08c379a000000000000000000000000000000000000000000000000000000000815280610ed160048201610e7a565b0390fd5b610ede9061044a565b90565b610eea90610ed5565b90565b610ef690610466565b90565b5f910312610f0357565b6100ee565b9190610f1b905f60208501940190610d73565b565b610f269061044a565b90565b610f3290610f1d565b90565b610f3e90610466565b90565b9093610f5842610f5261012c610a2a565b90610a73565b92610f6283610aa4565b96610f865f610f708a610ab0565b6367e4ac2c90610f7e6100e4565b938492610ac0565b82528180610f966004820161033f565b03915afa9081156117ee575f916117cc575b5095610fbb610fb688610bb5565b610bf2565b95610fcd610fc889610bb5565b610bf2565b99610fd75f610c19565b5b80610ff3610fed610fe88d610bb5565b6106ec565b916106ec565b10156110c55761105490602061102261101d6110186110138f8690610c71565b610c91565b610caa565b610cb6565b6370a082319061104961103430610cc2565b9261103d6100e4565b96879485938493610ac0565b835260048301610185565b03915afa9182156110c057611087928e611082925f9261108c575b5061107d9091849092610cff565b610d1f565b610c35565b610fd8565b61107d9192506110b29060203d81116110b9575b6110aa8183610235565b810190610cdd565b919061106f565b503d6110a0565b610ba5565b509091929394969997959861111860206110e66110e189610caa565b610cb6565b6370a082319061110d6110f830610cc2565b926111016100e4565b95869485938493610ac0565b835260048301610185565b03915afa9081156117c7575f91611799575b509961113d61113882610caa565b610cb6565b9060206323b872dd92339061116e5f61115530610cc2565b96611179896111626100e4565b998a9788968795610ac0565b855260048501610d80565b03925af19081156117945761119c9261119792611768575b50610caa565b610cb6565b91602063095ea7b3936111ae83610ab0565b906111cc5f86976111d76111c06100e4565b998a9687958694610ac0565b845260048401610db2565b03925af1908115611763576020936111f492611738575b50610ab0565b61121e5f63e63697c861122961120930610cc2565b976112126100e4565b98899788968795610ac0565b855260048501610dd5565b03925af1801561173357611707575b506112425f610c19565b9461124c5f610c19565b955b8661126961126361125e89610bb5565b6106ec565b916106ec565b10156114c95761128261127d878990610c71565b610c91565b61129461128e8761016c565b9161016c565b145f146113a6576112f560206112c36112be6112b96112b48b8d90610c71565b610c91565b610caa565b610cb6565b6370a08231906112ea6112d530610cc2565b926112de6100e4565b95869485938493610ac0565b835260048301610185565b03915afa9182156113a1576113418c61133c611334611361968d8f61135a985f93611367575b5061132e9161132991610cff565b610e07565b90610e14565b8c9092610cff565b610d1f565b61135461134f8d8b90610cff565b610e07565b90610a73565b965b610c35565b9561124e565b6113299193509161139161132e9360203d811161139a575b6113898183610235565b810190610cdd565b9391509161131b565b503d61137f565b610ba5565b61140060206113ce6113c96113c46113bf8b8d90610c71565b610c91565b610caa565b610cb6565b6370a08231906113f56113e030610cc2565b926113e96100e4565b95869485938493610ac0565b835260048301610185565b03915afa9182156114c45761144c8c61144761143f611361968d8f611484985f9361148a575b506114399161143491610cff565b610e07565b90610e14565b8c9092610cff565b610d1f565b61147e61146261145d8a8c90610c71565b610c91565b8d6114766114718d8c93610cff565b610e07565b903392612b60565b90610a73565b9661135c565b611434919350916114b46114399360203d81116114bd575b6114ac8183610235565b810190610cdd565b93915091611426565b503d6114a2565b610ba5565b5095509592509550915061151b60206114e96114e485610caa565b610cb6565b6370a08231906115106114fb30610cc2565b926115046100e4565b95869485938493610ac0565b835260048301610185565b03915afa918215611702576115569261153b925f916116d4575b50610e14565b9361154f61154986926106ec565b916106ec565b1015610e92565b8061157261156c61156760026109dd565b61016c565b9161016c565b145f1461164b575061159461158f61158a60026109dd565b610ee1565b610eed565b90632e1a7d4d83833b15611646576115cb936115c05f80946115b46100e4565b97889586948593610ac0565b835260048301610f08565b03925af1908115611641575f936115f66115f18695938695948695611615575b50610f29565b610f35565b82821561160c575bf115611607575b565b610ba5565b506108fc6115fe565b61163490863d811161163a575b61162c8183610235565b810190610ef9565b5f6115eb565b503d611622565b610ba5565b610abc565b9161166061165b60209394610caa565b610cb6565b6116835f63a9059cbb95939561168e6116776100e4565b97889687958694610ac0565b845260048401610db2565b03925af180156116cf576116a3575b50611605565b6116c39060203d81116116c8575b6116bb8183610235565b810190610d55565b61169d565b503d6116b1565b610ba5565b6116f5915060203d81116116fb575b6116ed8183610235565b810190610cdd565b5f611535565b503d6116e3565b610ba5565b6117279060203d811161172c575b61171f8183610235565b810190610cdd565b611238565b503d611715565b610ba5565b61175790853d811161175c575b61174f8183610235565b810190610d55565b6111ee565b503d611745565b610ba5565b6117889060203d811161178d575b6117808183610235565b810190610d55565b611191565b503d611776565b610ba5565b6117ba915060203d81116117c0575b6117b28183610235565b810190610cdd565b5f61112a565b503d6117a8565b610ba5565b6117e891503d805f833e6117e08183610235565b810190610b70565b5f610fa8565b610ba5565b9061180094939291610a08565b565b906118179493929161181261294b565b6119c4565b61181f6129f7565b565b5f7f496e636f72726563742045544820616d6f756e74000000000000000000000000910152565b611855601460209261065a565b61185e81611821565b0190565b6118779060208101905f818303910152611848565b90565b1561188157565b6118896100e4565b7f08c379a0000000000000000000000000000000000000000000000000000000008152806118b960048201611862565b0390fd5b7f4e487b71000000000000000000000000000000000000000000000000000000005f52601260045260245ffd5b6118f66118fc916106ec565b916106ec565b908115611907570490565b6118bd565b60209181520190565b60200190565b611924906106ec565b9052565b906119358160209361191b565b0190565b60200190565b9061195c61195661194f84610cfb565b809361190c565b92611915565b905f5b81811061196c5750505090565b90919261198561197f6001928651611928565b94611939565b910191909161195f565b9392906119ba6040916119c2946119ad60608901925f8a0190610178565b878203602089015261193f565b940190610d73565b565b93929190916119e76119e1426119db61012c610a2a565b90610a73565b95610aa4565b611a0a5f6119f483610ab0565b6367e4ac2c90611a026100e4565b938492610ac0565b82528180611a1a6004820161033f565b03915afa908115611e5f575f91611e3d575b5094611a3f611a3a87610bb5565b610bf2565b9480611a5b611a55611a505f610997565b61016c565b9161016c565b145f14611daa5750611a7f34611a79611a73876106ec565b916106ec565b1461187a565b611a99611a94611a8f60026109dd565b610ee1565b610eed565b63d0e30db0859190813b15611da5575f91611ac091611ab66100e4565b9485938492610ac0565b825281611acf6004820161033f565b03925af18015611da057611d74575b50611ae960026109dd565b975b611af45f610c19565b5b80611b10611b0a611b058b610bb5565b6106ec565b916106ec565b1015611bfd57611b74908a611b3f611b39611b34611b2f8d8690610c71565b610c91565b61016c565b9161016c565b145f14611b7957611b6e611b5c88611b568c610bb5565b906118ea565b611b698a91849092610cff565b610d1f565b5b610c35565b611af5565b611bc9611bb78c611b93611b8e8d8690610c71565b610c91565b611ba78d611ba18d91610bb5565b906118ea565b90611bb130610cc2565b92612b60565b611bc48a91849092610cff565b610d1f565b611bf8611bdf611bda8a8490610cff565b610e07565b611bf1611beb896106ec565b916106ec565b1015610e92565b611b6f565b509350949650949050611c0f5f610c19565b5b80611c2b611c25611c208a610bb5565b6106ec565b916106ec565b1015611cf157611c54611c4f611c4a611c458a8590610c71565b610c91565b610caa565b610cb6565b90602063095ea7b392611c6689610ab0565b90611c965f611c7e611c798b8890610cff565b610e07565b96611ca1611c8a6100e4565b98899687958694610ac0565b845260048401610db2565b03925af1918215611cec57611cbb92611cc0575b50610c35565b611c10565b611ce09060203d8111611ce5575b611cd88183610235565b810190610d55565b611cb5565b503d611cce565b610ba5565b50936020939195505f611d06611d2692610ab0565b92611d3163b3bf9d32919597611d1a6100e4565b98899788968795610ac0565b85526004850161198f565b03925af18015611d6f57611d43575b50565b611d639060203d8111611d68575b611d5b8183610235565b810190610cdd565b611d40565b503d611d51565b610ba5565b611d93905f3d8111611d99575b611d8b8183610235565b810190610ef9565b5f611ade565b503d611d81565b610ba5565b610abc565b97611dbc611db78a610caa565b610cb6565b60206323b872dd913390611dec5f611dd330610cc2565b95611df78c611de06100e4565b98899788968795610ac0565b855260048501610d80565b03925af18015611e3857611e0c575b50611aeb565b611e2c9060203d8111611e31575b611e248183610235565b810190610d55565b611e06565b503d611e1a565b610ba5565b611e5991503d805f833e611e518183610235565b810190610b70565b5f611a2c565b610ba5565b90611e7194939291611802565b565b60401c90565b60ff1690565b611e8b611e9091611e73565b611e79565b90565b611e9d9054611e7f565b90565b67ffffffffffffffff1690565b611eb9611ebe916109c4565b611ea0565b90565b611ecb9054611ead565b90565b67ffffffffffffffff1690565b611eef611eea611ef492610978565b610447565b611ece565b90565b90565b611f0e611f09611f1392611ef7565b610447565b611ece565b90565b611f1f90610466565b90565b90611f3567ffffffffffffffff916108fa565b9181191691161790565b611f53611f4e611f5892611ece565b610447565b611ece565b90565b90565b90611f73611f6e611f7a92611f3f565b611f5b565b8254611f22565b9055565b60401b90565b90611f9868ff000000000000000091611f7e565b9181191691161790565b611fab90610d2d565b90565b90565b90611fc6611fc1611fcd92611fa2565b611fae565b8254611f84565b9055565b611fda90611efa565b9052565b9190611ff1905f60208501940190611fd1565b565b611ffb612e06565b9061201061200a5f8401611e93565b15610d2d565b9061201c5f8401611ec1565b8061202f6120295f611edb565b91611ece565b1480612169575b9061204a6120446001611efa565b91611ece565b1480612141575b61205c909115610d2d565b9081612130575b506120f45761208c906120816120796001611efa565b5f8601611f5e565b826120e2575b612295565b612094575b50565b6120a1905f809101611fb1565b60016120d97fc7f505b2f371ae2175ee4913f4499e1f2633a7b5936321eed1cdaeb6115181d2916120d06100e4565b91829182611fde565b0390a15f612091565b6120ef60015f8601611fb1565b612087565b6120fc6100e4565b7ff92ee8a90000000000000000000000000000000000000000000000000000000081528061212c6004820161033f565b0390fd5b61213b915015610d2d565b5f612063565b5061205c61214e30611f16565b3b61216161215b5f610c19565b916106ec565b149050612051565b5082612036565b6121799061044a565b90565b61218590612170565b90565b906121a773ffffffffffffffffffffffffffffffffffffffff916108fa565b9181191691161790565b6121ba90612170565b90565b90565b906121d56121d06121dc926121b1565b6121bd565b8254612188565b9055565b6121ec6121f1916109c4565b6103fb565b90565b6121fe90546121e0565b90565b9060208282031261221a57612217915f01610ae7565b90565b6100ee565b6122289061044a565b90565b6122349061221f565b90565b6122409061221f565b90565b90565b9061225b61225661226292612237565b612243565b8254612188565b9055565b61226f90610466565b90565b90565b9061228a61228561229192612266565b612272565b8254612188565b9055565b6122ba6122c0916122a533612e48565b6122ad612e6f565b6122b5612e83565b61217c565b5f6121c0565b6122ec60206122d66122d15f6121f4565b610472565b6382755ebb906122e46100e4565b938492610ac0565b825281806122fc6004820161033f565b03915afa9081156123df576123239161231c915f916123b1575b5061222b565b6001612246565b61234f60206123396123345f6121f4565b610472565b636c9c0078906123476100e4565b938492610ac0565b8252818061235f6004820161033f565b03915afa80156123ac5761237c915f9161237e575b506002612275565b565b61239f915060203d81116123a5575b6123978183610235565b810190612201565b5f612374565b503d61238d565b610ba5565b6123d2915060203d81116123d8575b6123ca8183610235565b810190612201565b5f612316565b503d6123c0565b610ba5565b6123ed90611ff3565b565b612400906123fb612789565b612402565b565b8061241d6124176124125f610997565b61016c565b9161016c565b1461242d5761242b906127f7565b565b6124706124395f610997565b6124416100e4565b9182917f1e4fbdf700000000000000000000000000000000000000000000000000000000835260048301610185565b0390fd5b61247d906123ef565b565b61248890610466565b90565b6124943061247f565b6124c66124c07f000000000000000000000000000000000000000000000000000000000000000061016c565b9161016c565b148015612510575b6124d457565b6124dc6100e4565b7fe07c8dba0000000000000000000000000000000000000000000000000000000081528061250c6004820161033f565b0390fd5b50612519612e8d565b61254b6125457f000000000000000000000000000000000000000000000000000000000000000061016c565b9161016c565b14156124ce565b5061255b612789565b565b61256690612552565b565b6125719061044a565b90565b61257d90612568565b90565b61258990610466565b90565b6125958161036e565b0361259c57565b5f80fd5b905051906125ad8261258c565b565b906020828203126125c8576125c5915f016125a0565b90565b6100ee565b91906125fb60206125e56125e086612574565b612580565b6352d1902d906125f36100e4565b938492610ac0565b8252818061260b6004820161033f565b03915afa80915f926126db575b50155f1461266c57505090600161262d57505b565b612668906126396100e4565b9182917f4c9c8ce300000000000000000000000000000000000000000000000000000000835260048301610185565b0390fd5b928361268761268161267c61091b565b61036e565b9161036e565b0361269c57612697929350612eb7565b61262b565b6126d7846126a86100e4565b9182917faa1d49a40000000000000000000000000000000000000000000000000000000083526004830161037e565b0390fd5b6126fd91925060203d8111612704575b6126f58183610235565b8101906125af565b905f612618565b503d6126eb565b6127143061247f565b6127466127407f000000000000000000000000000000000000000000000000000000000000000061016c565b9161016c565b0361274d57565b6127556100e4565b7fe07c8dba000000000000000000000000000000000000000000000000000000008152806127856004820161033f565b0390fd5b6127916109ea565b6127aa6127a461279f612f40565b61016c565b9161016c565b036127b157565b6127f36127bc612f40565b6127c46100e4565b9182917f118cdaa700000000000000000000000000000000000000000000000000000000835260048301610185565b0390fd5b6127ff612863565b61281761280d5f83016109dd565b915f849101612275565b9061284b6128457f8be0079c531659141344cd1fd0a4f28419497f9722a3daafe3b4186f6b6457e093612266565b91612266565b916128546100e4565b8061285e8161033f565b0390a3565b7f9016d09d72d40fdae2fd8ceac6b6234c7706214fd39c1cd1e609a0528c19930090565b90565b61289661289b916109c4565b612887565b90565b6128a8905461288a565b90565b90565b6128c26128bd6128c7926128ab565b610447565b6106ec565b90565b6128d460026128ae565b90565b906129027fffffffffffffffffffffffffffffffffffffffffffffffffffffffffffffffff916108fa565b9181191691161790565b61292061291b612925926106ec565b610447565b6106ec565b90565b90565b9061294061293b6129479261290c565b612928565b82546128d7565b9055565b612953612f4d565b61295e5f820161289e565b61297761297161296c6128ca565b6106ec565b916106ec565b1461299257612990905f6129896128ca565b910161292b565b565b61299a6100e4565b7f3ee5aeb5000000000000000000000000000000000000000000000000000000008152806129ca6004820161033f565b0390fd5b6129e26129dd6129e792611ef7565b610447565b6106ec565b90565b6129f460016129ce565b90565b612a12612a02612f4d565b5f612a0b6129ea565b910161292b565b565b5f90565b612a24612a29916109c4565b6104d5565b90565b612a369054612a18565b90565b612a6e612a7594612a64606094989795612a5a608086019a5f870190610178565b6020850190610178565b6040830190610d73565b0190610178565b565b90959492612ac294612ab1612abb92612aa7608096612a9d60a088019c5f890190610178565b6020870190610178565b6040850190610178565b6060830190610d73565b0190610178565b565b5f7f53776170206661696c6564000000000000000000000000000000000000000000910152565b612af8600b60209261065a565b612b0181612ac4565b0190565b612b1a9060208101905f818303910152612aeb565b90565b15612b2457565b612b2c6100e4565b7f08c379a000000000000000000000000000000000000000000000000000000000815280612b5c60048201612b05565b0390fd5b92919091612b6c612a14565b93612b996020612b83612b7e5f6121f4565b610472565b636c9c007890612b916100e4565b938492610ac0565b82528180612ba96004820161033f565b03915afa908115612e01575f91612dd3575b509281612bd0612bca8761016c565b9161016c565b14612dca57612be6612be183610caa565b610cb6565b602063095ea7b391612c00612bfb6001612a2c565b610523565b90612c1e5f8695612c29612c126100e4565b97889687958694610ac0565b845260048401610db2565b03925af18015612dc557612d99575b50612c4b612c466001612a2c565b610523565b6020632d6bc8ea918490612c755f8a95612c80888b90612c696100e4565b998a9889978896610ac0565b865260048601612a39565b03925af180915f92612d69575b50155f14612d5d57506001612cc2575b50505050505b612cbf81612cb9612cb35f610c19565b916106ec565b11612b1d565b90565b6020949550612d0291612d0d5f92612ce2612cdd6001612a2c565b610523565b95635efaaebb939799919091612cf66100e4565b9a8b998a988997610ac0565b875260048701612a77565b03925af1908115612d58575f91612d2a575b505f80808080612c9d565b612d4b915060203d8111612d51575b612d438183610235565b810190610cdd565b5f612d1f565b503d612d39565b610ba5565b95505050505050612ca3565b612d8b91925060203d8111612d92575b612d838183610235565b810190610cdd565b905f612c8d565b503d612d79565b612db99060203d8111612dbe575b612db18183610235565b810190610d55565b612c38565b503d612da7565b610ba5565b94505050505090565b612df4915060203d8111612dfa575b612dec8183610235565b810190612201565b5f612bbb565b503d612de2565b610ba5565b7ff0c57e16840df040f15088dc2f81fe391c3923bec73e23a9662efc9c229c6a0090565b612e3b90612e36612f71565b612e3d565b565b612e4690613049565b565b612e5190612e2a565b565b612e5b612f71565b612e63612e65565b565b612e6d613083565b565b612e77612e53565b565b612e81612f71565b565b612e8b612e79565b565b612e956109c0565b50612eb05f612eaa612ea561091b565b61308d565b016109dd565b90565b5190565b90612ec182613090565b81612eec7fbc7cd75a20ee27fd9adebab32041f755214dbc6bffa90cc0225b39da2e5c2d3b91612266565b90612ef56100e4565b80612eff8161033f565b0390a2612f0b81612eb3565b612f1d612f175f610c19565b916106ec565b115f14612f3157612f2d916131a0565b505b565b5050612f3b613105565b612f2f565b612f486109c0565b503390565b7f9b779b17422d0df92223018b32b4d1fa46e071723d6817e2486d003becc55f0090565b612f82612f7c6131d3565b15610d2d565b612f8857565b612f906100e4565b7fd7e6bcf800000000000000000000000000000000000000000000000000000000815280612fc06004820161033f565b0390fd5b612fd590612fd0612f71565b612fd7565b565b80612ff2612fec612fe75f610997565b61016c565b9161016c565b1461300257613000906127f7565b565b61304561300e5f610997565b6130166100e4565b9182917f1e4fbdf700000000000000000000000000000000000000000000000000000000835260048301610185565b0390fd5b61305290612fc4565b565b61305c612f71565b613064613066565b565b613081613071612f4d565b5f61307a6129ea565b910161292b565b565b61308b613054565b565b90565b803b6130a461309e5f610c19565b916106ec565b146130c6576130c4905f6130be6130b961091b565b61308d565b01612275565b565b613101906130d26100e4565b9182917f4c9c8ce300000000000000000000000000000000000000000000000000000000835260048301610185565b0390fd5b346131186131125f610c19565b916106ec565b1161311f57565b6131276100e4565b7fb398979f000000000000000000000000000000000000000000000000000000008152806131576004820161033f565b0390fd5b606090565b9061317261316d83610273565b61025e565b918252565b3d5f14613192576131873d613160565b903d5f602084013e5b565b61319a61315b565b90613190565b5f806131cc936131ae61315b565b508390602081019051915af4906131c3613177565b909190916131f1565b90565b5f90565b6131db6131cf565b506131ee5f6131e8612e06565b01611e93565b90565b90613205906131fe61315b565b5015610d2d565b5f146132115750613295565b61321a82612eb3565b61322c6132265f610c19565b916106ec565b148061327a575b61323b575090565b613276906132476100e4565b9182917f9996b31500000000000000000000000000000000000000000000000000000000835260048301610185565b0390fd5b50803b61328f6132895f610c19565b916106ec565b14613233565b61329e81612eb3565b6132b06132aa5f610c19565b916106ec565b115f146132bf57805190602001fd5b6132c76100e4565b7f1425ea42000000000000000000000000000000000000000000000000000000008152806132f76004820161033f565b0390fdfea2646970667358221220a1058efb432de981fa2fe4ef79521bb6b92bd07801933e12399c68b567fc12f364736f6c63430008190033",
  "linkReferences": {},
  "deployedLinkReferences": {}
}