{
  "_format": "hh-sol-artifact-1",
  "contractName": "BaluniV1AgentFactory",
  "sourceName": "contracts/orchestators/BaluniV1AgentFactory.sol",
  "abi": [
    {
      "inputs": [
        {
          "internalType": "address",
          "name": "target",
          "type": "address"
        }
      ],
      "name": "AddressEmptyCode",
      "type": "error"
    },
    {
      "inputs": [
        {
          "internalType": "address",
          "name": "implementation",
          "type": "address"
        }
      ],
      "name": "ERC1967InvalidImplementation",
      "type": "error"
    },
    {
      "inputs": [],
      "name": "ERC1967NonPayable",
      "type": "error"
    },
    {
      "inputs": [],
      "name": "FailedInnerCall",
      "type": "error"
    },
    {
      "inputs": [],
      "name": "InvalidInitialization",
      "type": "error"
    },
    {
      "inputs": [],
      "name": "NotInitializing",
      "type": "error"
    },
    {
      "inputs": [
        {
          "internalType": "address",
          "name": "owner",
          "type": "address"
        }
      ],
      "name": "OwnableInvalidOwner",
      "type": "error"
    },
    {
      "inputs": [
        {
          "internalType": "address",
          "name": "account",
          "type": "address"
        }
      ],
      "name": "OwnableUnauthorizedAccount",
      "type": "error"
    },
    {
      "inputs": [],
      "name": "UUPSUnauthorizedCallContext",
      "type": "error"
    },
    {
      "inputs": [
        {
          "internalType": "bytes32",
          "name": "slot",
          "type": "bytes32"
        }
      ],
      "name": "UUPSUnsupportedProxiableUUID",
      "type": "error"
    },
    {
      "anonymous": false,
      "inputs": [
        {
          "indexed": false,
          "internalType": "address",
          "name": "user",
          "type": "address"
        },
        {
          "indexed": false,
          "internalType": "address",
          "name": "agent",
          "type": "address"
        }
      ],
      "name": "AgentCreated",
      "type": "event"
    },
    {
      "anonymous": false,
      "inputs": [
        {
          "indexed": false,
          "internalType": "uint64",
          "name": "version",
          "type": "uint64"
        }
      ],
      "name": "Initialized",
      "type": "event"
    },
    {
      "anonymous": false,
      "inputs": [
        {
          "indexed": true,
          "internalType": "address",
          "name": "previousOwner",
          "type": "address"
        },
        {
          "indexed": true,
          "internalType": "address",
          "name": "newOwner",
          "type": "address"
        }
      ],
      "name": "OwnershipTransferred",
      "type": "event"
    },
    {
      "anonymous": false,
      "inputs": [
        {
          "indexed": true,
          "internalType": "address",
          "name": "implementation",
          "type": "address"
        }
      ],
      "name": "Upgraded",
      "type": "event"
    },
    {
      "inputs": [],
      "name": "UPGRADE_INTERFACE_VERSION",
      "outputs": [
        {
          "internalType": "string",
          "name": "",
          "type": "string"
        }
      ],
      "stateMutability": "view",
      "type": "function"
    },
    {
      "inputs": [],
      "name": "changeImplementation",
      "outputs": [],
      "stateMutability": "nonpayable",
      "type": "function"
    },
    {
      "inputs": [
        {
          "internalType": "address",
          "name": "_newRegistry",
          "type": "address"
        }
      ],
      "name": "changeRegistry",
      "outputs": [],
      "stateMutability": "nonpayable",
      "type": "function"
    },
    {
      "inputs": [
        {
          "internalType": "address",
          "name": "_newAddress",
          "type": "address"
        }
      ],
      "name": "changeRegistryAddress",
      "outputs": [],
      "stateMutability": "nonpayable",
      "type": "function"
    },
    {
      "inputs": [
        {
          "internalType": "address",
          "name": "user",
          "type": "address"
        }
      ],
      "name": "getAgentAddress",
      "outputs": [
        {
          "internalType": "address",
          "name": "",
          "type": "address"
        }
      ],
      "stateMutability": "view",
      "type": "function"
    },
    {
      "inputs": [
        {
          "internalType": "address",
          "name": "user",
          "type": "address"
        }
      ],
      "name": "getOrCreateAgent",
      "outputs": [
        {
          "internalType": "address",
          "name": "",
          "type": "address"
        }
      ],
      "stateMutability": "nonpayable",
      "type": "function"
    },
    {
      "inputs": [],
      "name": "getRegistry",
      "outputs": [
        {
          "internalType": "address",
          "name": "",
          "type": "address"
        }
      ],
      "stateMutability": "view",
      "type": "function"
    },
    {
      "inputs": [
        {
          "internalType": "address",
          "name": "_registry",
          "type": "address"
        }
      ],
      "name": "initialize",
      "outputs": [],
      "stateMutability": "nonpayable",
      "type": "function"
    },
    {
      "inputs": [],
      "name": "owner",
      "outputs": [
        {
          "internalType": "address",
          "name": "",
          "type": "address"
        }
      ],
      "stateMutability": "view",
      "type": "function"
    },
    {
      "inputs": [],
      "name": "proxiableUUID",
      "outputs": [
        {
          "internalType": "bytes32",
          "name": "",
          "type": "bytes32"
        }
      ],
      "stateMutability": "view",
      "type": "function"
    },
    {
      "inputs": [],
      "name": "registry",
      "outputs": [
        {
          "internalType": "contract IBaluniV1Registry",
          "name": "",
          "type": "address"
        }
      ],
      "stateMutability": "view",
      "type": "function"
    },
    {
      "inputs": [
        {
          "internalType": "address",
          "name": "_registry",
          "type": "address"
        },
        {
          "internalType": "uint64",
          "name": "version",
          "type": "uint64"
        }
      ],
      "name": "reinitialize",
      "outputs": [],
      "stateMutability": "nonpayable",
      "type": "function"
    },
    {
      "inputs": [],
      "name": "renounceOwnership",
      "outputs": [],
      "stateMutability": "nonpayable",
      "type": "function"
    },
    {
      "inputs": [
        {
          "internalType": "address",
          "name": "newOwner",
          "type": "address"
        }
      ],
      "name": "transferOwnership",
      "outputs": [],
      "stateMutability": "nonpayable",
      "type": "function"
    },
    {
      "inputs": [
        {
          "internalType": "address",
          "name": "newImplementation",
          "type": "address"
        },
        {
          "internalType": "bytes",
          "name": "data",
          "type": "bytes"
        }
      ],
      "name": "upgradeToAndCall",
      "outputs": [],
      "stateMutability": "payable",
      "type": "function"
    },
    {
      "inputs": [
        {
          "internalType": "address",
          "name": "",
          "type": "address"
        }
      ],
      "name": "userAgents",
      "outputs": [
        {
          "internalType": "contract BaluniV1Agent",
          "name": "",
          "type": "address"
        }
      ],
      "stateMutability": "view",
      "type": "function"
    }
  ],
  "bytecode": "0x60a060405234603957600e6047565b6014603d565b613a2861009482396080518181816116c001528181611745015261194a0152613a2890f35b6043565b60405190565b5f80fd5b604d6087565b565b60018060a01b031690565b90565b606c6068607092604f565b605a565b604f565b90565b607a90605d565b90565b6084906073565b90565b608e30607d565b60805256fe60806040526004361015610013575b610922565b61001d5f3561011c565b80630889e14c1461011757806315554c551461011257806327d54a921461010d5780634f1ef2861461010857806352d1902d146101035780635ab1bd53146100fe5780636c6be5f3146100f9578063715018a6146100f45780637811a785146100ef5780637b103999146100ea5780638da5cb5b146100e55780638f2248bc146100e05780639b76a5cd146100db578063ad3cb1cc146100d6578063c4d66de8146100d15763f2fde38b0361000e576108ef565b6108bc565b610887565b610756565b610722565b610690565b61065b565b6105aa565b6104a0565b61046d565b610438565b610403565b6103a5565b610227565b6101d2565b61019f565b60e01c90565b60405190565b5f80fd5b5f80fd5b5f80fd5b73ffffffffffffffffffffffffffffffffffffffff1690565b61015690610134565b90565b6101628161014d565b0361016957565b5f80fd5b9050359061017a82610159565b565b9060208282031261019557610192915f0161016d565b90565b61012c565b5f0190565b346101cd576101b76101b236600461017c565b6109c3565b6101bf610122565b806101c98161019a565b0390f35b610128565b34610200576101ea6101e536600461017c565b6109f6565b6101f2610122565b806101fc8161019a565b0390f35b610128565b61020e9061014d565b9052565b9190610225905f60208501940190610205565b565b346102575761025361024261023d36600461017c565b610a2b565b61024a610122565b91829182610212565b0390f35b610128565b5f80fd5b5f80fd5b601f801991011690565b7f4e487b71000000000000000000000000000000000000000000000000000000005f52604160045260245ffd5b906102a590610264565b810190811067ffffffffffffffff8211176102bf57604052565b61026e565b906102d76102d0610122565b928361029b565b565b67ffffffffffffffff81116102f7576102f3602091610264565b0190565b61026e565b90825f939282370152565b9092919261031c610317826102d9565b6102c4565b9381855260208501908284011161033857610336926102fc565b565b610260565b9080601f8301121561035b5781602061035893359101610307565b90565b61025c565b9190916040818403126103a057610379835f830161016d565b92602082013567ffffffffffffffff811161039b57610398920161033d565b90565b610130565b61012c565b6103b96103b3366004610360565b90610a7b565b6103c1610122565b806103cb8161019a565b0390f35b5f9103126103d957565b61012c565b90565b6103ea906103de565b9052565b9190610401905f602085019401906103e1565b565b34610433576104133660046103cf565b61042f61041e610af6565b610426610122565b918291826103ee565b0390f35b610128565b34610468576104483660046103cf565b610464610453610b2a565b61045b610122565b91829182610212565b0390f35b610128565b3461049b5761047d3660046103cf565b610485610bfe565b61048d610122565b806104978161019a565b0390f35b610128565b346104ce576104b03660046103cf565b6104b8610c58565b6104c0610122565b806104ca8161019a565b0390f35b610128565b90565b6104ea6104e56104ef92610134565b6104d3565b610134565b90565b6104fb906104d6565b90565b610507906104f2565b90565b90610514906104fe565b5f5260205260405f2090565b1c90565b73ffffffffffffffffffffffffffffffffffffffff1690565b61054d9060086105529302610520565b610524565b90565b90610560915461053d565b90565b610579906105746001915f9261050a565b610555565b90565b610585906104f2565b90565b6105919061057c565b9052565b91906105a8905f60208501940190610588565b565b346105da576105d66105c56105c036600461017c565b610563565b6105cd610122565b91829182610595565b0390f35b610128565b73ffffffffffffffffffffffffffffffffffffffff1690565b61060890600861060d9302610520565b6105df565b90565b9061061b91546105f8565b90565b61062a60025f90610610565b90565b610636906104f2565b90565b6106429061062d565b9052565b9190610659905f60208501940190610639565b565b3461068b5761066b3660046103cf565b61068761067661061e565b61067e610122565b91829182610646565b0390f35b610128565b346106c0576106a03660046103cf565b6106bc6106ab610c9c565b6106b3610122565b91829182610212565b0390f35b610128565b67ffffffffffffffff1690565b6106db816106c5565b036106e257565b5f80fd5b905035906106f3826106d2565b565b919060408382031261071d578061071161071a925f860161016d565b936020016106e6565b90565b61012c565b346107515761073b6107353660046106f5565b90610f63565b610743610122565b8061074d8161019a565b0390f35b610128565b346107865761078261077161076c36600461017c565b611178565b610779610122565b91829182610212565b0390f35b610128565b67ffffffffffffffff81116107a9576107a5602091610264565b0190565b61026e565b906107c06107bb8361078b565b6102c4565b918252565b5f7f352e302e30000000000000000000000000000000000000000000000000000000910152565b6107f660056107ae565b90610803602083016107c5565b565b61080d6107ec565b90565b610818610805565b90565b610823610810565b90565b5190565b60209181520190565b90825f9392825e0152565b61085d61086660209361086b9361085481610826565b9384809361082a565b95869101610833565b610264565b0190565b6108849160208201915f81840391015261083e565b90565b346108b7576108973660046103cf565b6108b36108a261081b565b6108aa610122565b9182918261086f565b0390f35b610128565b346108ea576108d46108cf36600461017c565b61159a565b6108dc610122565b806108e68161019a565b0390f35b610128565b3461091d5761090761090236600461017c565b61162a565b61090f610122565b806109198161019a565b0390f35b610128565b5f80fd5b61093790610932611635565b6109ae565b565b610942906104d6565b90565b61094e90610939565b90565b5f1b90565b9061097573ffffffffffffffffffffffffffffffffffffffff91610951565b9181191691161790565b61098890610939565b90565b90565b906109a361099e6109aa9261097f565b61098b565b8254610956565b9055565b6109ba6109c191610945565b600261098e565b565b6109cc90610926565b565b6109df906109da611635565b6109e1565b565b6109ed6109f491610945565b600261098e565b565b6109ff906109ce565b565b5f90565b5f1c90565b610a16610a1b91610a05565b610524565b90565b610a289054610a0a565b90565b610a4a610a45610a4f92610a3d610a01565b50600161050a565b610a1e565b61057c565b90565b90610a6491610a5f6116af565b610a66565b565b90610a7991610a7481611781565b6117fb565b565b90610a8591610a52565b565b5f90565b610a9c90610a97611939565b610aea565b90565b90565b610ab6610ab1610abb92610a9f565b610951565b6103de565b90565b610ae77f360894a13ba1a3210667c828492db98dca3e2076cc3735a920a3ca505d382bbc610aa2565b90565b50610af3610abe565b90565b610b06610b01610a87565b610a8b565b90565b610b15610b1a91610a05565b6105df565b90565b610b279054610b09565b90565b610b32610a01565b50610b45610b406002610b1d565b61062d565b90565b610b50611635565b610b58610b99565b565b610b63906104f2565b90565b610b6e610122565b3d5f823e3d90fd5b90565b90610b8e610b89610b95926104fe565b610b76565b8254610956565b9055565b610ba230610b5a565b610baa610122565b9061181d820182811067ffffffffffffffff821117610bf9578291610bd69161181d6121d68539610212565b03905ff08015610bf457610bec610bf29161057c565b5f610b79565b565b610b66565b61026e565b610c06610b48565b565b610c10611635565b610c18610c45565b565b90565b610c31610c2c610c3692610c1a565b6104d3565b610134565b90565b610c4290610c1d565b90565b610c56610c515f610c39565b6119b7565b565b610c60610c08565b565b73ffffffffffffffffffffffffffffffffffffffff1690565b610c87610c8c91610a05565b610c62565b90565b610c999054610c7b565b90565b610ca4610a01565b50610cb75f610cb1611a23565b01610c8f565b90565b60401c90565b60ff1690565b610cd2610cd791610cba565b610cc0565b90565b610ce49054610cc6565b90565b67ffffffffffffffff1690565b610d00610d0591610a05565b610ce7565b90565b610d129054610cf4565b90565b90610d2867ffffffffffffffff91610951565b9181191691161790565b610d46610d41610d4b926106c5565b6104d3565b6106c5565b90565b90565b90610d66610d61610d6d92610d32565b610d4e565b8254610d15565b9055565b60401b90565b90610d8b68ff000000000000000091610d71565b9181191691161790565b151590565b610da390610d95565b90565b90565b90610dbe610db9610dc592610d9a565b610da6565b8254610d77565b9055565b610dd2906106c5565b9052565b9190610de9905f60208501940190610dc9565b565b908091610df6611a47565b90610e025f8301610cda565b8015610eb3575b610e7757610e3c92610e3391610e21865f8601610d51565b610e2e60015f8601610da9565b610ed8565b5f809101610da9565b610e727fc7f505b2f371ae2175ee4913f4499e1f2633a7b5936321eed1cdaeb6115181d291610e69610122565b91829182610dd6565b0390a1565b610e7f610122565b7ff92ee8a900000000000000000000000000000000000000000000000000000000815280610eaf6004820161019a565b0390fd5b50610ebf5f8301610d08565b610ed1610ecb866106c5565b916106c5565b1015610e09565b610efe9150610ef790610eea33611a89565b610ef2611a9e565b610945565b600261098e565b610f0730610b5a565b610f0f610122565b9061181d820182811067ffffffffffffffff821117610f5e578291610f3b9161181d6121d68539610212565b03905ff08015610f5957610f51610f579161057c565b5f610b79565b565b610b66565b61026e565b90610f6d91610deb565b565b5f7f4167656e7420666163746f7279206e6f74207365740000000000000000000000910152565b610fa3601560209261082a565b610fac81610f6f565b0190565b610fc59060208101905f818303910152610f96565b90565b15610fcf57565b610fd7610122565b7f08c379a00000000000000000000000000000000000000000000000000000000081528061100760048201610fb0565b0390fd5b60601b90565b61101a9061100b565b90565b61102690611011565b90565b61103561103a9161014d565b61101d565b9052565b61104a81601493611029565b0190565b60200190565b5190565b60207f7472616374000000000000000000000000000000000000000000000000000000917f4167656e74206372656174696f6e206661696c65642c206e6f74206120636f6e5f8201520152565b6110b2602560409261082a565b6110bb81611058565b0190565b6110d49060208101905f8183039101526110a5565b90565b156110de57565b6110e6610122565b7f08c379a000000000000000000000000000000000000000000000000000000000815280611116600482016110bf565b0390fd5b611123906104d6565b90565b61112f9061111a565b90565b90565b9061114a61114561115192611126565b611132565b8254610956565b9055565b91602061117692949361116f60408201965f830190610205565b0190610205565b565b61124561124061124a9261118a610a01565b506111b861119730610b5a565b6111b16111ab6111a65f610c39565b61014d565b9161014d565b1415610fc8565b6111d36111e2826111c7610122565b9283916020830161103e565b6020820181038252038261029b565b6111f46111ee82611054565b9161104e565b2061121161120c6112076001859061050a565b610a1e565b61057c565b61122b6112256112205f610c39565b61014d565b9161014d565b1480156112cf575b61124d575b50600161050a565b610a1e565b61057c565b90565b611258908290611bb9565b61127161126c6112678361057c565b611ad5565b6110d7565b611286816112816001859061050a565b611135565b611290829161057c565b7f8c6e353968e7ffd60dba22ff7d2a4354af301f9d41858a35668e7292ec1301b6916112c66112bd610122565b92839283611155565b0390a15f611238565b506112f46112ef6112ea6112e56001869061050a565b610a1e565b61057c565b611ad5565b6113066113005f610d95565b91610d95565b14611233565b61132061131b61132592610c1a565b6104d3565b6106c5565b90565b90565b61133f61133a61134492611328565b6104d3565b6106c5565b90565b611350906104f2565b90565b90565b61136a61136561136f92610c1a565b6104d3565b611353565b90565b61137b9061132b565b9052565b9190611392905f60208501940190611372565b565b61139c611a47565b906113b16113ab5f8401610cda565b15610d95565b906113bd5f8401610d08565b806113d06113ca5f61130c565b916106c5565b148061150a575b906113eb6113e5600161132b565b916106c5565b14806114e2575b6113fd909115610d95565b90816114d1575b506114955761142d9061142261141a600161132b565b5f8601610d51565b82611483575b611511565b611435575b50565b611442905f809101610da9565b600161147a7fc7f505b2f371ae2175ee4913f4499e1f2633a7b5936321eed1cdaeb6115181d291611471610122565b9182918261137f565b0390a15f611432565b61149060015f8601610da9565b611428565b61149d610122565b7ff92ee8a9000000000000000000000000000000000000000000000000000000008152806114cd6004820161019a565b0390fd5b6114dc915015610d95565b5f611404565b506113fd6114ef30611347565b3b6115026114fc5f611356565b91611353565b1490506113f2565b50826113d7565b61152e6115359161152133611a89565b611529611a9e565b610945565b600261098e565b61153e30610b5a565b611546610122565b9061181d820182811067ffffffffffffffff8211176115955782916115729161181d6121d68539610212565b03905ff080156115905761158861158e9161057c565b5f610b79565b565b610b66565b61026e565b6115a390611394565b565b6115b6906115b1611635565b6115b8565b565b806115d36115cd6115c85f610c39565b61014d565b9161014d565b146115e3576115e1906119b7565b565b6116266115ef5f610c39565b6115f7610122565b9182917f1e4fbdf700000000000000000000000000000000000000000000000000000000835260048301610212565b0390fd5b611633906115a5565b565b61163d610c9c565b61165661165061164b611ca5565b61014d565b9161014d565b0361165d57565b61169f611668611ca5565b611670610122565b9182917f118cdaa700000000000000000000000000000000000000000000000000000000835260048301610212565b0390fd5b6116ac906104f2565b90565b6116b8306116a3565b6116ea6116e47f000000000000000000000000000000000000000000000000000000000000000061014d565b9161014d565b148015611734575b6116f857565b611700610122565b7fe07c8dba000000000000000000000000000000000000000000000000000000008152806117306004820161019a565b0390fd5b5061173d611cb2565b61176f6117697f000000000000000000000000000000000000000000000000000000000000000061014d565b9161014d565b14156116f2565b5061177f611635565b565b61178a90611776565b565b611795906104d6565b90565b6117a19061178c565b90565b6117ad906104f2565b90565b5f80fd5b60e01b90565b6117c3816103de565b036117ca57565b5f80fd5b905051906117db826117ba565b565b906020828203126117f6576117f3915f016117ce565b90565b61012c565b9190611829602061181361180e86611798565b6117a4565b6352d1902d90611821610122565b9384926117b4565b825281806118396004820161019a565b03915afa80915f92611909575b50155f1461189a57505090600161185b57505b565b61189690611867610122565b9182917f4c9c8ce300000000000000000000000000000000000000000000000000000000835260048301610212565b0390fd5b92836118b56118af6118aa610abe565b6103de565b916103de565b036118ca576118c5929350611cd8565b611859565b611905846118d6610122565b9182917faa1d49a4000000000000000000000000000000000000000000000000000000008352600483016103ee565b0390fd5b61192b91925060203d8111611932575b611923818361029b565b8101906117dd565b905f611846565b503d611919565b611942306116a3565b61197461196e7f000000000000000000000000000000000000000000000000000000000000000061014d565b9161014d565b0361197b57565b611983610122565b7fe07c8dba000000000000000000000000000000000000000000000000000000008152806119b36004820161019a565b0390fd5b6119bf611a23565b6119d76119cd5f8301610c8f565b915f849101610b79565b90611a0b611a057f8be0079c531659141344cd1fd0a4f28419497f9722a3daafe3b4186f6b6457e0936104fe565b916104fe565b91611a14610122565b80611a1e8161019a565b0390a3565b7f9016d09d72d40fdae2fd8ceac6b6234c7706214fd39c1cd1e609a0528c19930090565b7ff0c57e16840df040f15088dc2f81fe391c3923bec73e23a9662efc9c229c6a0090565b611a7c90611a77611d61565b611a7e565b565b611a8790611e39565b565b611a9290611a6b565b565b611a9c611d61565b565b611aa6611a94565b565b5f90565b5f90565b63ffffffff1690565b611acd611ac8611ad292610c1a565b6104d3565b611ab0565b90565b611add611aa8565b50611ae6611aac565b503b611afa611af45f611ab9565b91611ab0565b1190565b5f90565b5f7f7265676973747279206e6f742073657400000000000000000000000000000000910152565b611b36601060209261082a565b611b3f81611b02565b0190565b611b589060208101905f818303910152611b29565b90565b15611b6257565b611b6a610122565b7f08c379a000000000000000000000000000000000000000000000000000000000815280611b9a60048201611b43565b0390fd5b611ba79061111a565b90565b5f910312611bb457565b61012c565b611c0a90611bc5611afe565b50611bfc611bdb611bd66002610b1d565b61062d565b611bf5611bef611bea5f610c39565b61014d565b9161014d565b1415611b5b565b611c055f610c8f565b611ee0565b611c1b611c1682611b9e565b61057c565b9163c4d66de890833b15611ca057611c5293611c475f8094611c3b610122565b978895869485936117b4565b835260048301610212565b03925af1918215611c9b57611c6c92611c6f575b50611b9e565b90565b611c8e905f3d8111611c94575b611c86818361029b565b810190611baa565b5f611c66565b503d611c7c565b610b66565b6117b0565b611cad610a01565b503390565b611cba610a01565b50611cd55f611ccf611cca610abe565b611f6b565b01610c8f565b90565b90611ce282611f6e565b81611d0d7fbc7cd75a20ee27fd9adebab32041f755214dbc6bffa90cc0225b39da2e5c2d3b916104fe565b90611d16610122565b80611d208161019a565b0390a2611d2c81611054565b611d3e611d385f611356565b91611353565b115f14611d5257611d4e9161207e565b505b565b5050611d5c611fe3565b611d50565b611d72611d6c6120ad565b15610d95565b611d7857565b611d80610122565b7fd7e6bcf800000000000000000000000000000000000000000000000000000000815280611db06004820161019a565b0390fd5b611dc590611dc0611d61565b611dc7565b565b80611de2611ddc611dd75f610c39565b61014d565b9161014d565b14611df257611df0906119b7565b565b611e35611dfe5f610c39565b611e06610122565b9182917f1e4fbdf700000000000000000000000000000000000000000000000000000000835260048301610212565b0390fd5b611e4290611db4565b565b5f7f455243313136373a2063726561746532206661696c6564000000000000000000910152565b611e78601760209261082a565b611e8181611e44565b0190565b611e9a9060208101905f818303910152611e6b565b90565b15611ea457565b611eac610122565b7f08c379a000000000000000000000000000000000000000000000000000000000815280611edc60048201611e85565b0390fd5b603790611eeb610a01565b50604051907f3d602d80600a3d3981f3363d3d373d3d3d363d73000000000000000000000000825260601b60148201527f5af43d82803e903d91602b57fd5bf3000000000000000000000000000000000060288201525ff590611f6982611f62611f5c611f575f610c39565b61014d565b9161014d565b1415611e9d565b565b90565b803b611f82611f7c5f611356565b91611353565b14611fa457611fa2905f611f9c611f97610abe565b611f6b565b01610b79565b565b611fdf90611fb0610122565b9182917f4c9c8ce300000000000000000000000000000000000000000000000000000000835260048301610212565b0390fd5b34611ff6611ff05f611356565b91611353565b11611ffd57565b612005610122565b7fb398979f000000000000000000000000000000000000000000000000000000008152806120356004820161019a565b0390fd5b606090565b9061205061204b836102d9565b6102c4565b918252565b3d5f14612070576120653d61203e565b903d5f602084013e5b565b612078612039565b9061206e565b5f806120aa9361208c612039565b508390602081019051915af4906120a1612055565b909190916120cb565b90565b6120b5611aa8565b506120c85f6120c2611a47565b01610cda565b90565b906120df906120d8612039565b5015610d95565b5f146120eb575061216f565b6120f482611054565b6121066121005f611356565b91611353565b1480612154575b612115575090565b61215090612121610122565b9182917f9996b31500000000000000000000000000000000000000000000000000000000835260048301610212565b0390fd5b50803b6121696121635f611356565b91611353565b1461210d565b61217881611054565b61218a6121845f611356565b91611353565b115f1461219957805190602001fd5b6121a1610122565b7f1425ea42000000000000000000000000000000000000000000000000000000008152806121d16004820161019a565b0390fdfe60806040523461002f576100196100146100f4565b61018f565b610021610034565b61168061019d823961168090f35b61003a565b60405190565b5f80fd5b601f801991011690565b634e487b7160e01b5f52604160045260245ffd5b906100669061003e565b810190811060018060401b0382111761007e57604052565b610048565b9061009661008f610034565b928361005c565b565b5f80fd5b60018060a01b031690565b6100b09061009c565b90565b6100bc816100a7565b036100c357565b5f80fd5b905051906100d4826100b3565b565b906020828203126100ef576100ec915f016100c7565b90565b610098565b61011261181d8038038061010781610083565b9283398101906100d6565b90565b5f1b90565b9061012b60018060a01b0391610115565b9181191691161790565b90565b61014c6101476101519261009c565b610135565b61009c565b90565b61015d90610138565b90565b61016990610154565b90565b90565b9061018461017f61018b92610160565b61016c565b825461011a565b9055565b61019a90600161016f565b56fe60806040526004361015610013575b6105b9565b61001d5f3561006c565b806388cc58e4146100675780638da5cb5b14610062578063b0f479a11461005d578063c4d66de8146100585763eedc3c500361000e57610585565b61020f565b610190565b61015b565b6100d6565b60e01c90565b60405190565b5f80fd5b5f80fd5b5f91031261008a57565b61007c565b73ffffffffffffffffffffffffffffffffffffffff1690565b6100b19061008f565b90565b6100bd906100a8565b9052565b91906100d4905f602085019401906100b4565b565b34610106576100e6366004610080565b6101026100f16105e7565b6100f9610072565b918291826100c1565b0390f35b610078565b1c90565b73ffffffffffffffffffffffffffffffffffffffff1690565b61013890600861013d930261010b565b61010f565b90565b9061014b9154610128565b90565b6101585f80610140565b90565b3461018b5761016b366004610080565b61018761017661014e565b61017e610072565b918291826100c1565b0390f35b610078565b346101c0576101a0366004610080565b6101bc6101ab6106b3565b6101b3610072565b918291826100c1565b0390f35b610078565b5f80fd5b6101d2816100a8565b036101d957565b5f80fd5b905035906101ea826101c9565b565b9060208282031261020557610202915f016101dd565b90565b61007c565b5f0190565b3461023d576102276102223660046101ec565b6108f9565b61022f610072565b806102398161020a565b0390f35b610078565b5f80fd5b601f801991011690565b7f4e487b71000000000000000000000000000000000000000000000000000000005f52604160045260245ffd5b9061028790610246565b810190811067ffffffffffffffff8211176102a157604052565b610250565b906102b96102b2610072565b928361027d565b565b67ffffffffffffffff81116102d35760208091020190565b610250565b5f80fd5b5f80fd5b5f80fd5b90565b6102f0816102e4565b036102f757565b5f80fd5b90503590610308826102e7565b565b5f80fd5b67ffffffffffffffff811161032c57610328602091610246565b0190565b610250565b90825f939282370152565b9092919261035161034c8261030e565b6102a6565b9381855260208501908284011161036d5761036b92610331565b565b61030a565b9080601f830112156103905781602061038d9335910161033c565b90565b610242565b9190916060818403126103f9576103ac60606102a6565b926103b9815f84016101dd565b5f8501526103ca81602084016102fb565b6020850152604082013567ffffffffffffffff81116103f4576103ed9201610372565b6040830152565b6102e0565b6102dc565b92919061041261040d826102bb565b6102a6565b93818552602080860192028101918383116104695781905b838210610438575050505050565b813567ffffffffffffffff8111610464576020916104598784938701610395565b81520191019061042a565b610242565b6102d8565b9080601f8301121561048c57816020610489933591016103fe565b90565b610242565b67ffffffffffffffff81116104a95760208091020190565b610250565b909291926104c36104be82610491565b6102a6565b938185526020808601920283019281841161050057915b8383106104e75750505050565b602080916104f584866101dd565b8152019201916104da565b6102d8565b9080601f8301121561052357816020610520933591016104ae565b90565b610242565b919091604081840312610580575f81013567ffffffffffffffff811161057b578361055491830161046e565b92602082013567ffffffffffffffff8111610576576105739201610505565b90565b6101c5565b6101c5565b61007c565b346105b45761059e610598366004610528565b90610c29565b6105a6610072565b806105b08161020a565b0390f35b610078565b5f80fd5b5f90565b5f1c90565b6105d26105d7916105c1565b61010f565b90565b6105e490546105c6565b90565b6105ef6105bd565b506105fa60016105da565b90565b90565b61061461060f6106199261008f565b6105fd565b61008f565b90565b61062590610600565b90565b6106319061061c565b90565b61063d90610600565b90565b61064990610634565b90565b60e01b90565b9050519061065f826101c9565b565b9060208282031261067a57610677915f01610652565b90565b61007c565b610687610072565b3d5f823e3d90fd5b61069890610600565b90565b6106a49061068f565b90565b6106b090610634565b90565b6106bb6105bd565b506106f160206106db6106d66106d160016105da565b610628565b610640565b635ab1bd53906106e9610072565b93849261064c565b825281806107016004820161020a565b03915afa9081156107c75761072b610726610741936020935f9161079a575b5061069b565b6106a7565b6304cc732590610739610072565b93849261064c565b825281806107516004820161020a565b03915afa908115610795575f91610767575b5090565b610788915060203d811161078e575b610780818361027d565b810190610661565b5f610763565b503d610776565b61067f565b6107ba9150843d81116107c0575b6107b2818361027d565b810190610661565b5f610720565b503d6107a8565b61067f565b90565b6107e36107de6107e8926107cc565b6105fd565b61008f565b90565b6107f4906107cf565b90565b60209181520190565b5f7f416c726561647920696e697469616c697a656400000000000000000000000000910152565b61083460136020926107f7565b61083d81610800565b0190565b6108569060208101905f818303910152610827565b90565b1561086057565b610868610072565b7f08c379a00000000000000000000000000000000000000000000000000000000081528061089860048201610841565b0390fd5b5f1b90565b906108c073ffffffffffffffffffffffffffffffffffffffff9161089c565b9181191691161790565b6108d390610634565b90565b90565b906108ee6108e96108f5926108ca565b6108d6565b82546108a1565b9055565b61092f906109296109095f6105da565b61092361091d6109185f6107eb565b6100a8565b916100a8565b14610859565b5f6108d9565b61093a3360016108d9565b565b5f7f43616c6c61626c65206f6e6c792062792074686520726f757465720000000000910152565b610970601b6020926107f7565b6109798161093c565b0190565b6109929060208101905f818303910152610963565b90565b1561099c57565b6109a4610072565b7f08c379a0000000000000000000000000000000000000000000000000000000008152806109d46004820161097d565b0390fd5b90610a0591610a00336109fa6109f46109ef6106b3565b6100a8565b916100a8565b14610995565b610b7e565b565b610a1b610a16610a20926107cc565b6105fd565b6102e4565b90565b6001610a2f91016102e4565b90565b5190565b7f4e487b71000000000000000000000000000000000000000000000000000000005f52603260045260245ffd5b90610a6d82610a32565b811015610a7e576020809102010190565b610a36565b610a8d90516100a8565b90565b610a9a90516102e4565b90565b90610aaf610aaa8361030e565b6102a6565b918252565b606090565b3d5f14610ad457610ac93d610a9d565b903d5f602084013e5b565b610adc610ab4565b90610ad2565b5f7f42617463682063616c6c206661696c6564000000000000000000000000000000910152565b610b1660116020926107f7565b610b1f81610ae2565b0190565b610b389060208101905f818303910152610b09565b90565b15610b4257565b610b4a610072565b7f08c379a000000000000000000000000000000000000000000000000000000000815280610b7a60048201610b23565b0390fd5b91610b885f610a07565b5b80610ba4610b9e610b9987610a32565b6102e4565b916102e4565b1015610c1257610c0d90610c085f80610bc981610bc28a8790610a63565b5101610a83565b610be06020610bd98b8890610a63565b5101610a90565b6040610bed8b8890610a63565b51015190602082019151925af1610c02610ab9565b50610b3b565b610a23565b610b89565b509150610c2790610c2281610e11565b611222565b565b90610c33916109d8565b565b5f90565b90505190610c46826102e7565b565b90602082820312610c6157610c5e915f01610c39565b90565b61007c565b5190565b90610c7482610c66565b811015610c85576020809102010190565b610a36565b73eeeeeeeeeeeeeeeeeeeeeeeeeeeeeeeeeeeeeeee90565b610cab90610600565b90565b610cb790610ca2565b90565b610cc390610634565b90565b610ccf90610634565b90565b7f4e487b71000000000000000000000000000000000000000000000000000000005f52601160045260245ffd5b610d0e610d14919392936102e4565b926102e4565b91610d208382026102e4565b928184041490151715610d2f57565b610cd2565b7f4e487b71000000000000000000000000000000000000000000000000000000005f52601260045260245ffd5b610d6d610d73916102e4565b916102e4565b908115610d7e570490565b610d34565b151590565b610d9181610d83565b03610d9857565b5f80fd5b90505190610da982610d88565b565b90602082820312610dc457610dc1915f01610d9c565b90565b61007c565b610dd2906102e4565b9052565b916020610df7929493610df060408201965f8301906100b4565b0190610dc9565b565b610e0290610600565b90565b610e0e90610df9565b90565b90610e476020610e31610e2c610e2760016105da565b610628565b610640565b635ab1bd5390610e3f610072565b93849261064c565b82528180610e576004820161020a565b03915afa80156111f157610e72915f916111c3575b5061069b565b91610e976020610e81856106a7565b6304cc732590610e8f610072565b93849261064c565b82528180610ea76004820161020a565b03915afa9081156111be575f91611190575b5092610ec3610c35565b50610ee86020610ed2836106a7565b6385462d6f90610ee0610072565b93849261064c565b82528180610ef86004820161020a565b03915afa801561118b57610f1a602091610f30935f9161115e575b50936106a7565b634f4608a290610f28610072565b93849261064c565b82528180610f406004820161020a565b03915afa908115611159575f9161112b575b5091610f5d5f610a07565b5b80610f79610f73610f6e85610c66565b6102e4565b916102e4565b101561112357610f92610f8d838390610c6a565b610a83565b9081610fad610fa7610fa2610c8a565b6100a8565b916100a8565b145f14610ff357610fee9150610fe8610fda610fd3610fcb30610cc6565b318790610cff565b8790610d61565b610fe389610e05565b6115ed565b5b610a23565b610f5e565b61103b602061100961100485610cae565b610cba565b6370a082319061103061101b30610cc6565b92611024610072565b9586948593849361064c565b8352600483016100c1565b03915afa801561111e5761107161106b611064611076936020955f916110f1575b508990610cff565b8990610d61565b94610cae565b610cba565b9263a9059cbb9361109b5f8b93966110a661108f610072565b9889968795869461064c565b845260048401610dd6565b03925af19182156110ec57610fee926110c0575b50610fe9565b6110e09060203d81116110e5575b6110d8818361027d565b810190610dab565b6110ba565b503d6110ce565b61067f565b6111119150863d8111611117575b611109818361027d565b810190610c48565b5f61105c565b503d6110ff565b61067f565b505050509050565b61114c915060203d8111611152575b611144818361027d565b810190610c48565b5f610f52565b503d61113a565b61067f565b61117e9150833d8111611184575b611176818361027d565b810190610c48565b5f610f13565b503d61116c565b61067f565b6111b1915060203d81116111b7575b6111a9818361027d565b810190610661565b5f610eb9565b503d61119f565b61067f565b6111e4915060203d81116111ea575b6111dc818361027d565b810190610661565b5f610e6c565b503d6111d2565b61067f565b90565b61120d611208611212926111f6565b6105fd565b6102e4565b90565b61121f600a6111f9565b90565b61122b81610c66565b908161123f6112395f610a07565b916102e4565b11611249575b5050565b9091611253610c35565b5b80611267611261866102e4565b916102e4565b101561144c5761128061127b848390610c6a565b610a83565b908161129b611295611290610c8a565b6100a8565b916100a8565b145f146112fd576112cf91506112b030610cc6565b316112c36112bd5f610a07565b916102e4565b116112d4575b5b610a23565b611254565b6112f86112e86112e35f6105da565b610e05565b6112f130610cc6565b31906115ed565b6112c9565b611345602061131361130e85610cae565b610cba565b6370a082319061133a61132530610cc6565b9261132e610072565b9586948593849361064c565b8352600483016100c1565b03915afa908115611447575f91611419575b50918261137361136d611368611215565b6102e4565b916102e4565b11611384575b506112cf91506112ca565b611397611392602092610cae565b610cba565b9263a9059cbb936113c45f6113ab816105da565b93966113cf6113b8610072565b9889968795869461064c565b845260048401610dd6565b03925af1918215611414576112cf926113e8575b611379565b6114089060203d811161140d575b611400818361027d565b810190610dab565b6113e3565b503d6113f6565b61067f565b61143a915060203d8111611440575b611432818361027d565b810190610c48565b5f611357565b503d611428565b61067f565b509150505f80611245565b61146090610634565b90565b5f7f416464726573733a20696e73756666696369656e742062616c616e6365000000910152565b611497601d6020926107f7565b6114a081611463565b0190565b6114b99060208101905f81830391015261148a565b90565b156114c357565b6114cb610072565b7f08c379a0000000000000000000000000000000000000000000000000000000008152806114fb600482016114a4565b0390fd5b61150890610634565b90565b905090565b61151b5f809261150b565b0190565b61152890611510565b90565b60207f6563697069656e74206d61792068617665207265766572746564000000000000917f416464726573733a20756e61626c6520746f2073656e642076616c75652c20725f8201520152565b611585603a6040926107f7565b61158e8161152b565b0190565b6115a79060208101905f818303910152611578565b90565b156115b157565b6115b9610072565b7f08c379a0000000000000000000000000000000000000000000000000000000008152806115e960048201611592565b0390fd5b5f61164892611622829361161d61160330611457565b31611616611610866102e4565b916102e4565b10156114bc565b6114ff565b9061162b610072565b90816116368161151f565b03925af1611642610ab9565b506115aa565b56fea2646970667358221220c7b0b6a5047614f7da4310b4da483b8e1c4168e4e72e0645b14b479ea3a87c3e64736f6c63430008190033a2646970667358221220b24300b1dae695fe47fa313b6aedf38c57eeef26ec494a378ebc8c2586bd3b6164736f6c63430008190033",
  "linkReferences": {},
  "deployedLinkReferences": {}
}