{
  "_format": "hh-sol-artifact-1",
  "contractName": "BaluniV1AgentFactory",
  "sourceName": "contracts/orchestators/BaluniV1AgentFactory.sol",
  "abi": [
    {
      "inputs": [
        {
          "internalType": "address",
          "name": "target",
          "type": "address"
        }
      ],
      "name": "AddressEmptyCode",
      "type": "error"
    },
    {
      "inputs": [
        {
          "internalType": "address",
          "name": "implementation",
          "type": "address"
        }
      ],
      "name": "ERC1967InvalidImplementation",
      "type": "error"
    },
    {
      "inputs": [],
      "name": "ERC1967NonPayable",
      "type": "error"
    },
    {
      "inputs": [],
      "name": "FailedInnerCall",
      "type": "error"
    },
    {
      "inputs": [],
      "name": "InvalidInitialization",
      "type": "error"
    },
    {
      "inputs": [],
      "name": "NotInitializing",
      "type": "error"
    },
    {
      "inputs": [
        {
          "internalType": "address",
          "name": "owner",
          "type": "address"
        }
      ],
      "name": "OwnableInvalidOwner",
      "type": "error"
    },
    {
      "inputs": [
        {
          "internalType": "address",
          "name": "account",
          "type": "address"
        }
      ],
      "name": "OwnableUnauthorizedAccount",
      "type": "error"
    },
    {
      "inputs": [],
      "name": "UUPSUnauthorizedCallContext",
      "type": "error"
    },
    {
      "inputs": [
        {
          "internalType": "bytes32",
          "name": "slot",
          "type": "bytes32"
        }
      ],
      "name": "UUPSUnsupportedProxiableUUID",
      "type": "error"
    },
    {
      "anonymous": false,
      "inputs": [
        {
          "indexed": false,
          "internalType": "address",
          "name": "user",
          "type": "address"
        },
        {
          "indexed": false,
          "internalType": "address",
          "name": "agent",
          "type": "address"
        }
      ],
      "name": "AgentCreated",
      "type": "event"
    },
    {
      "anonymous": false,
      "inputs": [
        {
          "indexed": false,
          "internalType": "uint64",
          "name": "version",
          "type": "uint64"
        }
      ],
      "name": "Initialized",
      "type": "event"
    },
    {
      "anonymous": false,
      "inputs": [
        {
          "indexed": true,
          "internalType": "address",
          "name": "previousOwner",
          "type": "address"
        },
        {
          "indexed": true,
          "internalType": "address",
          "name": "newOwner",
          "type": "address"
        }
      ],
      "name": "OwnershipTransferred",
      "type": "event"
    },
    {
      "anonymous": false,
      "inputs": [
        {
          "indexed": true,
          "internalType": "address",
          "name": "implementation",
          "type": "address"
        }
      ],
      "name": "Upgraded",
      "type": "event"
    },
    {
      "inputs": [],
      "name": "UPGRADE_INTERFACE_VERSION",
      "outputs": [
        {
          "internalType": "string",
          "name": "",
          "type": "string"
        }
      ],
      "stateMutability": "view",
      "type": "function"
    },
    {
      "inputs": [],
      "name": "changeImplementation",
      "outputs": [],
      "stateMutability": "nonpayable",
      "type": "function"
    },
    {
      "inputs": [
        {
          "internalType": "address",
          "name": "_newRegistry",
          "type": "address"
        }
      ],
      "name": "changeRegistry",
      "outputs": [],
      "stateMutability": "nonpayable",
      "type": "function"
    },
    {
      "inputs": [
        {
          "internalType": "address",
          "name": "_newAddress",
          "type": "address"
        }
      ],
      "name": "changeRegistryAddress",
      "outputs": [],
      "stateMutability": "nonpayable",
      "type": "function"
    },
    {
      "inputs": [
        {
          "internalType": "address",
          "name": "user",
          "type": "address"
        }
      ],
      "name": "getAgentAddress",
      "outputs": [
        {
          "internalType": "address",
          "name": "",
          "type": "address"
        }
      ],
      "stateMutability": "view",
      "type": "function"
    },
    {
      "inputs": [
        {
          "internalType": "address",
          "name": "user",
          "type": "address"
        }
      ],
      "name": "getOrCreateAgent",
      "outputs": [
        {
          "internalType": "address",
          "name": "",
          "type": "address"
        }
      ],
      "stateMutability": "nonpayable",
      "type": "function"
    },
    {
      "inputs": [],
      "name": "getRegistry",
      "outputs": [
        {
          "internalType": "address",
          "name": "",
          "type": "address"
        }
      ],
      "stateMutability": "view",
      "type": "function"
    },
    {
      "inputs": [
        {
          "internalType": "address",
          "name": "_registry",
          "type": "address"
        }
      ],
      "name": "initialize",
      "outputs": [],
      "stateMutability": "nonpayable",
      "type": "function"
    },
    {
      "inputs": [],
      "name": "owner",
      "outputs": [
        {
          "internalType": "address",
          "name": "",
          "type": "address"
        }
      ],
      "stateMutability": "view",
      "type": "function"
    },
    {
      "inputs": [],
      "name": "proxiableUUID",
      "outputs": [
        {
          "internalType": "bytes32",
          "name": "",
          "type": "bytes32"
        }
      ],
      "stateMutability": "view",
      "type": "function"
    },
    {
      "inputs": [],
      "name": "registry",
      "outputs": [
        {
          "internalType": "contract IBaluniV1Registry",
          "name": "",
          "type": "address"
        }
      ],
      "stateMutability": "view",
      "type": "function"
    },
    {
      "inputs": [
        {
          "internalType": "address",
          "name": "_registry",
          "type": "address"
        },
        {
          "internalType": "uint64",
          "name": "version",
          "type": "uint64"
        }
      ],
      "name": "reinitialize",
      "outputs": [],
      "stateMutability": "nonpayable",
      "type": "function"
    },
    {
      "inputs": [],
      "name": "renounceOwnership",
      "outputs": [],
      "stateMutability": "nonpayable",
      "type": "function"
    },
    {
      "inputs": [
        {
          "internalType": "address",
          "name": "newOwner",
          "type": "address"
        }
      ],
      "name": "transferOwnership",
      "outputs": [],
      "stateMutability": "nonpayable",
      "type": "function"
    },
    {
      "inputs": [
        {
          "internalType": "address",
          "name": "newImplementation",
          "type": "address"
        },
        {
          "internalType": "bytes",
          "name": "data",
          "type": "bytes"
        }
      ],
      "name": "upgradeToAndCall",
      "outputs": [],
      "stateMutability": "payable",
      "type": "function"
    },
    {
      "inputs": [
        {
          "internalType": "address",
          "name": "",
          "type": "address"
        }
      ],
      "name": "userAgents",
      "outputs": [
        {
          "internalType": "contract BaluniV1Agent",
          "name": "",
          "type": "address"
        }
      ],
      "stateMutability": "view",
      "type": "function"
    }
  ],
  "bytecode": "0x60a0604052306080523480156012575f80fd5b506080516122366100395f395f8181610ac101528181610aea0152610c9f01526122365ff3fe6080604052600436106100ef575f3560e01c80637811a785116100875780639b76a5cd116100575780639b76a5cd14610290578063ad3cb1cc146102af578063c4d66de814610304578063f2fde38b14610323575f80fd5b80637811a785146101e25780637b103999146102165780638da5cb5b146102355780638f2248bc14610271575f80fd5b806352d1902d116100c257806352d1902d1461017b5780635ab1bd531461019d5780636c6be5f3146101ba578063715018a6146101ce575f80fd5b80630889e14c146100f357806315554c55146100f357806327d54a92146101145780634f1ef28614610168575b5f80fd5b3480156100fe575f80fd5b5061011261010d36600461121a565b610342565b005b34801561011f575f80fd5b5061014b61012e36600461121a565b6001600160a01b039081165f908152600160205260409020541690565b6040516001600160a01b0390911681526020015b60405180910390f35b610112610176366004611260565b610379565b348015610186575f80fd5b5061018f610398565b60405190815260200161015f565b3480156101a8575f80fd5b506002546001600160a01b031661014b565b3480156101c5575f80fd5b506101126103c6565b3480156101d9575f80fd5b50610112610435565b3480156101ed575f80fd5b5061014b6101fc36600461121a565b60016020525f90815260409020546001600160a01b031681565b348015610221575f80fd5b5060025461014b906001600160a01b031681565b348015610240575f80fd5b507f9016d09d72d40fdae2fd8ceac6b6234c7706214fd39c1cd1e609a0528c199300546001600160a01b031661014b565b34801561027c575f80fd5b5061011261028b36600461131c565b610448565b34801561029b575f80fd5b5061014b6102aa36600461121a565b6105fd565b3480156102ba575f80fd5b506102f76040518060400160405280600581526020017f352e302e3000000000000000000000000000000000000000000000000000000081525081565b60405161015f919061135d565b34801561030f575f80fd5b5061011261031e36600461121a565b610803565b34801561032e575f80fd5b5061011261033d36600461121a565b6109ec565b61034a610a42565b6002805473ffffffffffffffffffffffffffffffffffffffff19166001600160a01b0392909216919091179055565b610381610ab6565b61038a82610b86565b6103948282610b8e565b5050565b5f6103a1610c94565b507f360894a13ba1a3210667c828492db98dca3e2076cc3735a920a3ca505d382bbc90565b6103ce610a42565b5f306040516103dc906111f2565b6001600160a01b039091168152602001604051809103905ff080158015610405573d5f803e3d5ffd5b505f805473ffffffffffffffffffffffffffffffffffffffff19166001600160a01b039290921691909117905550565b61043d610a42565b6104465f610cf6565b565b7ff0c57e16840df040f15088dc2f81fe391c3923bec73e23a9662efc9c229c6a00805482919068010000000000000000900460ff16806104965750805467ffffffffffffffff808416911610155b156104cd576040517ff92ee8a900000000000000000000000000000000000000000000000000000000815260040160405180910390fd5b80547fffffffffffffffffffffffffffffffffffffffffffffff0000000000000000001667ffffffffffffffff8316176801000000000000000017815561051333610d73565b61051b610d84565b6002805473ffffffffffffffffffffffffffffffffffffffff19166001600160a01b0386161790556040515f903090610553906111f2565b6001600160a01b039091168152602001604051809103905ff08015801561057c573d5f803e3d5ffd5b505f805473ffffffffffffffffffffffffffffffffffffffff19166001600160a01b039290921691909117905550805468ff00000000000000001916815560405167ffffffffffffffff831681527fc7f505b2f371ae2175ee4913f4499e1f2633a7b5936321eed1cdaeb6115181d29060200160405180910390a150505050565b5f306106505760405162461bcd60e51b815260206004820152601560248201527f4167656e7420666163746f7279206e6f7420736574000000000000000000000060448201526064015b60405180910390fd5b6040517fffffffffffffffffffffffffffffffffffffffff000000000000000000000000606084901b1660208201525f9060340160408051601f1981840301815291815281516020928301206001600160a01b038681165f908152600190945291909220549192501615806106e357506001600160a01b038381165f90815260016020526040902054163b63ffffffff16155b156107e4575f6106f38285610d8c565b9050803b63ffffffff1661076f5760405162461bcd60e51b815260206004820152602560248201527f4167656e74206372656174696f6e206661696c65642c206e6f74206120636f6e60448201527f74726163740000000000000000000000000000000000000000000000000000006064820152608401610647565b6001600160a01b038481165f81815260016020908152604091829020805473ffffffffffffffffffffffffffffffffffffffff1916948616948517905581519283528201929092527f8c6e353968e7ffd60dba22ff7d2a4354af301f9d41858a35668e7292ec1301b6910160405180910390a1505b50506001600160a01b039081165f908152600160205260409020541690565b7ff0c57e16840df040f15088dc2f81fe391c3923bec73e23a9662efc9c229c6a00805468010000000000000000810460ff16159067ffffffffffffffff165f8115801561084d5750825b90505f8267ffffffffffffffff1660011480156108695750303b155b905081158015610877575080155b156108ae576040517ff92ee8a900000000000000000000000000000000000000000000000000000000815260040160405180910390fd5b84547fffffffffffffffffffffffffffffffffffffffffffffffff000000000000000016600117855583156108f957845468ff00000000000000001916680100000000000000001785555b61090233610d73565b61090a610d84565b6002805473ffffffffffffffffffffffffffffffffffffffff19166001600160a01b0388161790556040515f903090610942906111f2565b6001600160a01b039091168152602001604051809103905ff08015801561096b573d5f803e3d5ffd5b505f805473ffffffffffffffffffffffffffffffffffffffff19166001600160a01b03929092169190911790555083156109e457845468ff000000000000000019168555604051600181527fc7f505b2f371ae2175ee4913f4499e1f2633a7b5936321eed1cdaeb6115181d29060200160405180910390a15b505050505050565b6109f4610a42565b6001600160a01b038116610a36576040517f1e4fbdf70000000000000000000000000000000000000000000000000000000081525f6004820152602401610647565b610a3f81610cf6565b50565b33610a747f9016d09d72d40fdae2fd8ceac6b6234c7706214fd39c1cd1e609a0528c199300546001600160a01b031690565b6001600160a01b031614610446576040517f118cdaa7000000000000000000000000000000000000000000000000000000008152336004820152602401610647565b306001600160a01b037f0000000000000000000000000000000000000000000000000000000000000000161480610b4f57507f00000000000000000000000000000000000000000000000000000000000000006001600160a01b0316610b437f360894a13ba1a3210667c828492db98dca3e2076cc3735a920a3ca505d382bbc546001600160a01b031690565b6001600160a01b031614155b15610446576040517fe07c8dba00000000000000000000000000000000000000000000000000000000815260040160405180910390fd5b610a3f610a42565b816001600160a01b03166352d1902d6040518163ffffffff1660e01b8152600401602060405180830381865afa925050508015610be8575060408051601f3d908101601f19168201909252610be591810190611392565b60015b610c29576040517f4c9c8ce30000000000000000000000000000000000000000000000000000000081526001600160a01b0383166004820152602401610647565b7f360894a13ba1a3210667c828492db98dca3e2076cc3735a920a3ca505d382bbc8114610c85576040517faa1d49a400000000000000000000000000000000000000000000000000000000815260048101829052602401610647565b610c8f8383610e79565b505050565b306001600160a01b037f00000000000000000000000000000000000000000000000000000000000000001614610446576040517fe07c8dba00000000000000000000000000000000000000000000000000000000815260040160405180910390fd5b7f9016d09d72d40fdae2fd8ceac6b6234c7706214fd39c1cd1e609a0528c199300805473ffffffffffffffffffffffffffffffffffffffff1981166001600160a01b03848116918217845560405192169182907f8be0079c531659141344cd1fd0a4f28419497f9722a3daafe3b4186f6b6457e0905f90a3505050565b610d7b610ece565b610a3f81610f35565b610446610ece565b6002545f906001600160a01b0316610de65760405162461bcd60e51b815260206004820152601060248201527f7265676973747279206e6f7420736574000000000000000000000000000000006044820152606401610647565b5f8054610dfc906001600160a01b031685610f3d565b6040517fc4d66de80000000000000000000000000000000000000000000000000000000081526001600160a01b0385811660048301529192509082169063c4d66de8906024015f604051808303815f87803b158015610e59575f80fd5b505af1158015610e6b573d5f803e3d5ffd5b509293505050505b92915050565b610e8282610ff2565b6040516001600160a01b038316907fbc7cd75a20ee27fd9adebab32041f755214dbc6bffa90cc0225b39da2e5c2d3b905f90a2805115610ec657610c8f828261108e565b610394611100565b7ff0c57e16840df040f15088dc2f81fe391c3923bec73e23a9662efc9c229c6a005468010000000000000000900460ff16610446576040517fd7e6bcf800000000000000000000000000000000000000000000000000000000815260040160405180910390fd5b6109f4610ece565b5f6040517f3d602d80600a3d3981f3363d3d373d3d3d363d7300000000000000000000000081528360601b60148201527f5af43d82803e903d91602b57fd5bf300000000000000000000000000000000006028820152826037825ff59150506001600160a01b038116610e735760405162461bcd60e51b815260206004820152601760248201527f455243313136373a2063726561746532206661696c65640000000000000000006044820152606401610647565b806001600160a01b03163b5f03611040576040517f4c9c8ce30000000000000000000000000000000000000000000000000000000081526001600160a01b0382166004820152602401610647565b7f360894a13ba1a3210667c828492db98dca3e2076cc3735a920a3ca505d382bbc805473ffffffffffffffffffffffffffffffffffffffff19166001600160a01b0392909216919091179055565b60605f80846001600160a01b0316846040516110aa91906113a9565b5f60405180830381855af49150503d805f81146110e2576040519150601f19603f3d011682016040523d82523d5f602084013e6110e7565b606091505b50915091506110f7858383611138565b95945050505050565b3415610446576040517fb398979f00000000000000000000000000000000000000000000000000000000815260040160405180910390fd5b60608261114d57611148826111b0565b6111a9565b815115801561116457506001600160a01b0384163b155b156111a6576040517f9996b3150000000000000000000000000000000000000000000000000000000081526001600160a01b0385166004820152602401610647565b50805b9392505050565b8051156111c05780518082602001fd5b6040517f1425ea4200000000000000000000000000000000000000000000000000000000815260040160405180910390fd5b610e41806113c083390190565b80356001600160a01b0381168114611215575f80fd5b919050565b5f6020828403121561122a575f80fd5b6111a9826111ff565b7f4e487b71000000000000000000000000000000000000000000000000000000005f52604160045260245ffd5b5f8060408385031215611271575f80fd5b61127a836111ff565b9150602083013567ffffffffffffffff80821115611296575f80fd5b818501915085601f8301126112a9575f80fd5b8135818111156112bb576112bb611233565b604051601f8201601f19908116603f011681019083821181831017156112e3576112e3611233565b816040528281528860208487010111156112fb575f80fd5b826020860160208301375f6020848301015280955050505050509250929050565b5f806040838503121561132d575f80fd5b611336836111ff565b9150602083013567ffffffffffffffff81168114611352575f80fd5b809150509250929050565b602081525f82518060208401528060208501604085015e5f604082850101526040601f19601f83011684010191505092915050565b5f602082840312156113a2575f80fd5b5051919050565b5f82518060208501845e5f92019182525091905056fe6080604052348015600e575f80fd5b50604051610e41380380610e41833981016040819052602b91604f565b600180546001600160a01b0319166001600160a01b0392909216919091179055607a565b5f60208284031215605e575f80fd5b81516001600160a01b03811681146073575f80fd5b9392505050565b610dba806100875f395ff3fe608060405234801561000f575f80fd5b5060043610610064575f3560e01c8063b0f479a11161004d578063b0f479a1146100a3578063c4d66de8146100ab578063eedc3c50146100c0575f80fd5b806388cc58e4146100685780638da5cb5b14610091575b5f80fd5b6001546001600160a01b03165b6040516001600160a01b03909116815260200160405180910390f35b5f54610075906001600160a01b031681565b6100756100d3565b6100be6100b9366004610a2d565b6101bb565b005b6100be6100ce366004610b55565b61025a565b600154604080517f5ab1bd5300000000000000000000000000000000000000000000000000000000815290515f926001600160a01b031691635ab1bd539160048083019260209291908290030181865afa158015610133573d5f803e3d5ffd5b505050506040513d601f19601f820116820180604052508101906101579190610cc1565b6001600160a01b03166304cc73256040518163ffffffff1660e01b8152600401602060405180830381865afa158015610192573d5f803e3d5ffd5b505050506040513d601f19601f820116820180604052508101906101b69190610cc1565b905090565b5f546001600160a01b0316156102185760405162461bcd60e51b815260206004820152601360248201527f416c726561647920696e697469616c697a65640000000000000000000000000060448201526064015b60405180910390fd5b5f80546001600160a01b039092167fffffffffffffffffffffffff00000000000000000000000000000000000000009283161790556001805490911633179055565b6102626100d3565b6001600160a01b0316336001600160a01b0316146102c25760405162461bcd60e51b815260206004820152601b60248201527f43616c6c61626c65206f6e6c792062792074686520726f757465720000000000604482015260640161020f565b5f5b82518110156103d6575f8382815181106102e0576102e0610cdc565b60200260200101515f01516001600160a01b031684838151811061030657610306610cdc565b60200260200101516020015185848151811061032457610324610cdc565b60200260200101516040015160405161033d9190610cf0565b5f6040518083038185875af1925050503d805f8114610377576040519150601f19603f3d011682016040523d82523d5f602084013e61037c565b606091505b50509050806103cd5760405162461bcd60e51b815260206004820152601160248201527f42617463682063616c6c206661696c6564000000000000000000000000000000604482015260640161020f565b506001016102c4565b506103e0816103ed565b6103e98161075b565b5050565b600154604080517f5ab1bd5300000000000000000000000000000000000000000000000000000000815290515f926001600160a01b031691635ab1bd539160048083019260209291908290030181865afa15801561044d573d5f803e3d5ffd5b505050506040513d601f19601f820116820180604052508101906104719190610cc1565b90505f816001600160a01b03166304cc73256040518163ffffffff1660e01b8152600401602060405180830381865afa1580156104b0573d5f803e3d5ffd5b505050506040513d601f19601f820116820180604052508101906104d49190610cc1565b90505f80836001600160a01b03166385462d6f6040518163ffffffff1660e01b8152600401602060405180830381865afa158015610514573d5f803e3d5ffd5b505050506040513d601f19601f820116820180604052508101906105389190610d06565b90505f846001600160a01b0316634f4608a26040518163ffffffff1660e01b8152600401602060405180830381865afa158015610577573d5f803e3d5ffd5b505050506040513d601f19601f8201168201806040525081019061059b9190610d06565b90505f5b8651811015610752575f8782815181106105bb576105bb610cdc565b6020026020010151905073eeeeeeeeeeeeeeeeeeeeeeeeeeeeeeeeeeeeeeee6001600160a01b0316816001600160a01b03160361062157826105fd8547610d1d565b6106079190610d46565b945061061c6001600160a01b03871686610901565b610749565b6040517f70a082310000000000000000000000000000000000000000000000000000000081523060048201525f906001600160a01b038316906370a0823190602401602060405180830381865afa15801561067e573d5f803e3d5ffd5b505050506040513d601f19601f820116820180604052508101906106a29190610d06565b9050836106af8683610d1d565b6106b99190610d46565b6040517fa9059cbb0000000000000000000000000000000000000000000000000000000081526001600160a01b038981166004830152602482018390529197509083169063a9059cbb906044016020604051808303815f875af1158015610722573d5f803e3d5ffd5b505050506040513d601f19601f820116820180604052508101906107469190610d65565b50505b5060010161059f565b50505050505050565b805180156103e9575f5b818110156108fc575f83828151811061078057610780610cdc565b6020026020010151905073eeeeeeeeeeeeeeeeeeeeeeeeeeeeeeeeeeeeeeee6001600160a01b0316816001600160a01b0316036107d75747156107d2575f546107d2906001600160a01b031647610901565b6108f3565b6040517f70a082310000000000000000000000000000000000000000000000000000000081523060048201525f906001600160a01b038316906370a0823190602401602060405180830381865afa158015610834573d5f803e3d5ffd5b505050506040513d601f19601f820116820180604052508101906108589190610d06565b9050600a8111156108f1575f546040517fa9059cbb0000000000000000000000000000000000000000000000000000000081526001600160a01b039182166004820152602481018390529083169063a9059cbb906044016020604051808303815f875af11580156108cb573d5f803e3d5ffd5b505050506040513d601f19601f820116820180604052508101906108ef9190610d65565b505b505b50600101610765565b505050565b804710156109515760405162461bcd60e51b815260206004820152601d60248201527f416464726573733a20696e73756666696369656e742062616c616e6365000000604482015260640161020f565b5f826001600160a01b0316826040515f6040518083038185875af1925050503d805f811461099a576040519150601f19603f3d011682016040523d82523d5f602084013e61099f565b606091505b50509050806108fc5760405162461bcd60e51b815260206004820152603a60248201527f416464726573733a20756e61626c6520746f2073656e642076616c75652c207260448201527f6563697069656e74206d61792068617665207265766572746564000000000000606482015260840161020f565b6001600160a01b0381168114610a2a575f80fd5b50565b5f60208284031215610a3d575f80fd5b8135610a4881610a16565b9392505050565b634e487b7160e01b5f52604160045260245ffd5b6040516060810167ffffffffffffffff81118282101715610a8657610a86610a4f565b60405290565b604051601f8201601f1916810167ffffffffffffffff81118282101715610ab557610ab5610a4f565b604052919050565b5f67ffffffffffffffff821115610ad657610ad6610a4f565b5060051b60200190565b5f82601f830112610aef575f80fd5b81356020610b04610aff83610abd565b610a8c565b8083825260208201915060208460051b870101935086841115610b25575f80fd5b602086015b84811015610b4a578035610b3d81610a16565b8352918301918301610b2a565b509695505050505050565b5f8060408385031215610b66575f80fd5b823567ffffffffffffffff80821115610b7d575f80fd5b818501915085601f830112610b90575f80fd5b81356020610ba0610aff83610abd565b82815260059290921b84018101918181019089841115610bbe575f80fd5b8286015b84811015610c9457803586811115610bd8575f80fd5b8701601f196060828e0382011215610bee575f80fd5b610bf6610a63565b86830135610c0381610a16565b8152604083013587820152606083013589811115610c1f575f80fd5b8084019350508d603f840112610c33575f80fd5b8683013589811115610c4757610c47610a4f565b610c578884601f84011601610a8c565b92508083528e888983870101011115610c6e575f80fd5b8060408501898501375f9083018801526040810191909152845250918301918301610bc2565b5096505086013592505080821115610caa575f80fd5b50610cb785828601610ae0565b9150509250929050565b5f60208284031215610cd1575f80fd5b8151610a4881610a16565b634e487b7160e01b5f52603260045260245ffd5b5f82518060208501845e5f920191825250919050565b5f60208284031215610d16575f80fd5b5051919050565b8082028115828204841417610d4057634e487b7160e01b5f52601160045260245ffd5b92915050565b5f82610d6057634e487b7160e01b5f52601260045260245ffd5b500490565b5f60208284031215610d75575f80fd5b81518015158114610a48575f80fdfea2646970667358221220bcaa71c80da7b5f785e5858c0841e57ae7f58ffacf13ee6014eff9a330fbab1a64736f6c63430008190033a26469706673582212202bc677ac96f304971332abeb539bdc7870e6e933163e8665948cc08ffd5a59d664736f6c63430008190033",
  "linkReferences": {},
  "deployedLinkReferences": {}
}