{
  "_format": "hh-sol-artifact-1",
  "contractName": "BaluniV1DCAVaultRegistry",
  "sourceName": "contracts/registry/BaluniV1DCAVaultRegistry.sol",
  "abi": [
    {
      "inputs": [
        {
          "internalType": "address",
          "name": "target",
          "type": "address"
        }
      ],
      "name": "AddressEmptyCode",
      "type": "error"
    },
    {
      "inputs": [
        {
          "internalType": "address",
          "name": "implementation",
          "type": "address"
        }
      ],
      "name": "ERC1967InvalidImplementation",
      "type": "error"
    },
    {
      "inputs": [],
      "name": "ERC1967NonPayable",
      "type": "error"
    },
    {
      "inputs": [],
      "name": "FailedInnerCall",
      "type": "error"
    },
    {
      "inputs": [],
      "name": "InvalidInitialization",
      "type": "error"
    },
    {
      "inputs": [],
      "name": "NotInitializing",
      "type": "error"
    },
    {
      "inputs": [
        {
          "internalType": "address",
          "name": "owner",
          "type": "address"
        }
      ],
      "name": "OwnableInvalidOwner",
      "type": "error"
    },
    {
      "inputs": [
        {
          "internalType": "address",
          "name": "account",
          "type": "address"
        }
      ],
      "name": "OwnableUnauthorizedAccount",
      "type": "error"
    },
    {
      "inputs": [],
      "name": "UUPSUnauthorizedCallContext",
      "type": "error"
    },
    {
      "inputs": [
        {
          "internalType": "bytes32",
          "name": "slot",
          "type": "bytes32"
        }
      ],
      "name": "UUPSUnsupportedProxiableUUID",
      "type": "error"
    },
    {
      "anonymous": false,
      "inputs": [
        {
          "indexed": false,
          "internalType": "uint64",
          "name": "version",
          "type": "uint64"
        }
      ],
      "name": "Initialized",
      "type": "event"
    },
    {
      "anonymous": false,
      "inputs": [
        {
          "indexed": true,
          "internalType": "address",
          "name": "previousOwner",
          "type": "address"
        },
        {
          "indexed": true,
          "internalType": "address",
          "name": "newOwner",
          "type": "address"
        }
      ],
      "name": "OwnershipTransferred",
      "type": "event"
    },
    {
      "anonymous": false,
      "inputs": [
        {
          "indexed": true,
          "internalType": "address",
          "name": "implementation",
          "type": "address"
        }
      ],
      "name": "Upgraded",
      "type": "event"
    },
    {
      "anonymous": false,
      "inputs": [
        {
          "indexed": true,
          "internalType": "address",
          "name": "vault",
          "type": "address"
        },
        {
          "indexed": false,
          "internalType": "address[]",
          "name": "assets",
          "type": "address[]"
        }
      ],
      "name": "vaultCreated",
      "type": "event"
    },
    {
      "inputs": [],
      "name": "UPGRADE_INTERFACE_VERSION",
      "outputs": [
        {
          "internalType": "string",
          "name": "",
          "type": "string"
        }
      ],
      "stateMutability": "view",
      "type": "function"
    },
    {
      "inputs": [
        {
          "internalType": "address",
          "name": "vaultAddress",
          "type": "address"
        }
      ],
      "name": "addVault",
      "outputs": [],
      "stateMutability": "nonpayable",
      "type": "function"
    },
    {
      "inputs": [
        {
          "internalType": "uint256",
          "name": "",
          "type": "uint256"
        }
      ],
      "name": "allVaults",
      "outputs": [
        {
          "internalType": "address",
          "name": "",
          "type": "address"
        }
      ],
      "stateMutability": "view",
      "type": "function"
    },
    {
      "inputs": [],
      "name": "getAllVaults",
      "outputs": [
        {
          "internalType": "address[]",
          "name": "",
          "type": "address[]"
        }
      ],
      "stateMutability": "view",
      "type": "function"
    },
    {
      "inputs": [
        {
          "internalType": "address",
          "name": "",
          "type": "address"
        },
        {
          "internalType": "address",
          "name": "",
          "type": "address"
        }
      ],
      "name": "getVault",
      "outputs": [
        {
          "internalType": "address",
          "name": "",
          "type": "address"
        }
      ],
      "stateMutability": "view",
      "type": "function"
    },
    {
      "inputs": [
        {
          "internalType": "address",
          "name": "vaultAddress",
          "type": "address"
        }
      ],
      "name": "getVaultAsset",
      "outputs": [
        {
          "internalType": "address[]",
          "name": "",
          "type": "address[]"
        }
      ],
      "stateMutability": "view",
      "type": "function"
    },
    {
      "inputs": [
        {
          "internalType": "address",
          "name": "asset1",
          "type": "address"
        },
        {
          "internalType": "address",
          "name": "asset2",
          "type": "address"
        }
      ],
      "name": "getVaultType1ByAssets",
      "outputs": [
        {
          "internalType": "address",
          "name": "",
          "type": "address"
        }
      ],
      "stateMutability": "view",
      "type": "function"
    },
    {
      "inputs": [
        {
          "internalType": "address",
          "name": "token",
          "type": "address"
        }
      ],
      "name": "getVaultsByAsset",
      "outputs": [
        {
          "internalType": "address[]",
          "name": "",
          "type": "address[]"
        }
      ],
      "stateMutability": "view",
      "type": "function"
    },
    {
      "inputs": [],
      "name": "getVaultsCount",
      "outputs": [
        {
          "internalType": "uint256",
          "name": "",
          "type": "uint256"
        }
      ],
      "stateMutability": "view",
      "type": "function"
    },
    {
      "inputs": [
        {
          "internalType": "address",
          "name": "_register",
          "type": "address"
        }
      ],
      "name": "initialize",
      "outputs": [],
      "stateMutability": "nonpayable",
      "type": "function"
    },
    {
      "inputs": [],
      "name": "owner",
      "outputs": [
        {
          "internalType": "address",
          "name": "",
          "type": "address"
        }
      ],
      "stateMutability": "view",
      "type": "function"
    },
    {
      "inputs": [],
      "name": "proxiableUUID",
      "outputs": [
        {
          "internalType": "bytes32",
          "name": "",
          "type": "bytes32"
        }
      ],
      "stateMutability": "view",
      "type": "function"
    },
    {
      "inputs": [],
      "name": "registry",
      "outputs": [
        {
          "internalType": "contract IBaluniV1Registry",
          "name": "",
          "type": "address"
        }
      ],
      "stateMutability": "view",
      "type": "function"
    },
    {
      "inputs": [
        {
          "internalType": "address",
          "name": "_register",
          "type": "address"
        },
        {
          "internalType": "uint64",
          "name": "_version",
          "type": "uint64"
        }
      ],
      "name": "reinitialize",
      "outputs": [],
      "stateMutability": "nonpayable",
      "type": "function"
    },
    {
      "inputs": [
        {
          "internalType": "address",
          "name": "_vault",
          "type": "address"
        }
      ],
      "name": "removeVault",
      "outputs": [],
      "stateMutability": "nonpayable",
      "type": "function"
    },
    {
      "inputs": [],
      "name": "renounceOwnership",
      "outputs": [],
      "stateMutability": "nonpayable",
      "type": "function"
    },
    {
      "inputs": [
        {
          "internalType": "address",
          "name": "newOwner",
          "type": "address"
        }
      ],
      "name": "transferOwnership",
      "outputs": [],
      "stateMutability": "nonpayable",
      "type": "function"
    },
    {
      "inputs": [
        {
          "internalType": "address",
          "name": "newImplementation",
          "type": "address"
        },
        {
          "internalType": "bytes",
          "name": "data",
          "type": "bytes"
        }
      ],
      "name": "upgradeToAndCall",
      "outputs": [],
      "stateMutability": "payable",
      "type": "function"
    },
    {
      "inputs": [
        {
          "internalType": "address",
          "name": "_vault",
          "type": "address"
        }
      ],
      "name": "vaultExist",
      "outputs": [
        {
          "internalType": "bool",
          "name": "",
          "type": "bool"
        }
      ],
      "stateMutability": "view",
      "type": "function"
    }
  ],
  "bytecode": "0x60a0604052306080523480156012575f80fd5b50608051611a676100395f395f81816111eb0152818161121401526113c90152611a675ff3fe60806040526004361061013d575f3560e01c80638f2248bc116100bb578063bbd7edc511610071578063ca9d67c811610057578063ca9d67c8146103b5578063ceb68c23146103d4578063f2fde38b146103f3575f80fd5b8063bbd7edc514610357578063c4d66de814610396575f80fd5b806397331bf9116100a157806397331bf9146102db578063ad3cb1cc146102ef578063b9b658db14610344575f80fd5b80638f2248bc1461029d5780639094a91e146102bc575f80fd5b806352d1902d11610110578063715018a6116100f6578063715018a61461022e5780637b103999146102425780638da5cb5b14610261575f80fd5b806352d1902d146101d5578063592717af146101f7575f80fd5b806302b3537d146101415780631089405214610175578063256b5a02146101a15780634f1ef286146101c2575b5f80fd5b34801561014c575f80fd5b5061016061015b36600461178e565b610412565b60405190151581526020015b60405180910390f35b348015610180575f80fd5b5061019461018f36600461178e565b61046c565b60405161016c91906117a9565b3480156101ac575f80fd5b506101c06101bb36600461178e565b61067b565b005b6101c06101d0366004611809565b6108b3565b3480156101e0575f80fd5b506101e96108d2565b60405190815260200161016c565b348015610202575f80fd5b506102166102113660046118c7565b610900565b6040516001600160a01b03909116815260200161016c565b348015610239575f80fd5b506101c061092e565b34801561024d575f80fd5b50600154610216906001600160a01b031681565b34801561026c575f80fd5b507f9016d09d72d40fdae2fd8ceac6b6234c7706214fd39c1cd1e609a0528c199300546001600160a01b0316610216565b3480156102a8575f80fd5b506101c06102b73660046118fe565b610941565b3480156102c7575f80fd5b506102166102d6366004611936565b610a77565b3480156102e6575f80fd5b50610194610a9e565b3480156102fa575f80fd5b506103376040518060400160405280600581526020017f352e302e3000000000000000000000000000000000000000000000000000000081525081565b60405161016c919061194d565b34801561034f575f80fd5b505f546101e9565b348015610362575f80fd5b506102166103713660046118c7565b600260209081525f92835260408084209091529082529020546001600160a01b031681565b3480156103a1575f80fd5b506101c06103b036600461178e565b610afd565b3480156103c0575f80fd5b506101946103cf36600461178e565b610c7f565b3480156103df575f80fd5b506101c06103ee36600461178e565b610dc6565b3480156103fe575f80fd5b506101c061040d36600461178e565b611116565b5f805b5f5481101561046457826001600160a01b03165f828154811061043a5761043a611982565b5f918252602090912001546001600160a01b03160361045c5750600192915050565b600101610415565b505f92915050565b5f80546060919067ffffffffffffffff81111561048b5761048b6117f5565b6040519080825280602002602001820160405280156104b4578160200160208202803683370190505b5090505f805b5f548110156105d5575f8082815481106104d6576104d6611982565b5f918252602080832090910154604080517fcdf456e100000000000000000000000000000000000000000000000000000000815290516001600160a01b039092169450849263cdf456e1926004808401938290030181865afa15801561053e573d5f803e3d5ffd5b505050506040513d601f19601f820116820180604052508101906105629190611996565b9050866001600160a01b0316816001600160a01b0316036105bc578185858151811061059057610590611982565b6001600160a01b0390921660209283029190910190910152836105b2816119c5565b94505050506105d5565b845184036105cb5750506105d5565b50506001016104ba565b505f8167ffffffffffffffff8111156105f0576105f06117f5565b604051908082528060200260200182016040528015610619578160200160208202803683370190505b5090505f5b828110156106725783818151811061063857610638611982565b602002602001015182828151811061065257610652611982565b6001600160a01b039092166020928302919091019091015260010161061e565b50949350505050565b61068361116c565b6001600160a01b03811661071e576040517f08c379a000000000000000000000000000000000000000000000000000000000815260206004820152602b60248201527f42616c756e6956315661756c74466163746f72793a20494e56414c49445f766160448201527f756c745f4144445245535300000000000000000000000000000000000000000060648201526084015b60405180910390fd5b5f80546001810182558180527f290decd9548b62a8d60345a988386fc84ba6bc95484008f6362f93160ef3e56301805473ffffffffffffffffffffffffffffffffffffffff19166001600160a01b038416908117909155604080517fcdf456e1000000000000000000000000000000000000000000000000000000008152905163cdf456e1916004808201926020929091908290030181865afa1580156107c7573d5f803e3d5ffd5b505050506040513d601f19601f820116820180604052508101906107eb9190611996565b90505f826001600160a01b031663fdf262b76040518163ffffffff1660e01b8152600401602060405180830381865afa15801561082a573d5f803e3d5ffd5b505050506040513d601f19601f8201168201806040525081019061084e9190611996565b6001600160a01b039283165f818152600260208181526040808420958816845294815284832080549790981673ffffffffffffffffffffffffffffffffffffffff19978816811790985590815283822092825291909152208054909216909217905550565b6108bb6111e0565b6108c4826112b0565b6108ce82826112b8565b5050565b5f6108db6113be565b507f360894a13ba1a3210667c828492db98dca3e2076cc3735a920a3ca505d382bbc90565b6001600160a01b038083165f9081526002602090815260408083208585168452909152902054165b92915050565b61093661116c565b61093f5f611420565b565b7ff0c57e16840df040f15088dc2f81fe391c3923bec73e23a9662efc9c229c6a00805482919068010000000000000000900460ff168061098f5750805467ffffffffffffffff808416911610155b156109c6576040517ff92ee8a900000000000000000000000000000000000000000000000000000000815260040160405180910390fd5b80546801000000000000000067ffffffffffffffff84167fffffffffffffffffffffffffffffffffffffffffffffff00000000000000000090921682171782556001805473ffffffffffffffffffffffffffffffffffffffff19166001600160a01b038716179055815468ff0000000000000000191682556040519081527fc7f505b2f371ae2175ee4913f4499e1f2633a7b5936321eed1cdaeb6115181d29060200160405180910390a150505050565b5f8181548110610a85575f80fd5b5f918252602090912001546001600160a01b0316905081565b60605f805480602002602001604051908101604052809291908181526020018280548015610af357602002820191905f5260205f20905b81546001600160a01b03168152600190910190602001808311610ad5575b5050505050905090565b7ff0c57e16840df040f15088dc2f81fe391c3923bec73e23a9662efc9c229c6a00805468010000000000000000810460ff16159067ffffffffffffffff165f81158015610b475750825b90505f8267ffffffffffffffff166001148015610b635750303b155b905081158015610b71575080155b15610ba8576040517ff92ee8a900000000000000000000000000000000000000000000000000000000815260040160405180910390fd5b84547fffffffffffffffffffffffffffffffffffffffffffffffff00000000000000001660011785558315610bf357845468ff00000000000000001916680100000000000000001785555b610bfb61149d565b610c04336114a5565b6001805473ffffffffffffffffffffffffffffffffffffffff19166001600160a01b0388161790558315610c7757845468ff000000000000000019168555604051600181527fc7f505b2f371ae2175ee4913f4499e1f2633a7b5936321eed1cdaeb6115181d29060200160405180910390a15b505050505050565b60408051600280825260608083018452925f929190602083019080368337019050509050826001600160a01b031663cdf456e16040518163ffffffff1660e01b8152600401602060405180830381865afa158015610cdf573d5f803e3d5ffd5b505050506040513d601f19601f82011682018060405250810190610d039190611996565b815f81518110610d1557610d15611982565b60200260200101906001600160a01b031690816001600160a01b031681525050826001600160a01b031663fdf262b76040518163ffffffff1660e01b8152600401602060405180830381865afa158015610d71573d5f803e3d5ffd5b505050506040513d601f19601f82011682018060405250810190610d959190611996565b81600181518110610da857610da8611982565b6001600160a01b039092166020928302919091019091015292915050565b610dce61116c565b5f5b5f548110156108ce57816001600160a01b03165f8281548110610df557610df5611982565b5f918252602090912001546001600160a01b03160361110e575f8054610e1d906001906119dd565b81548110610e2d57610e2d611982565b5f91825260208220015481546001600160a01b03909116919083908110610e5657610e56611982565b905f5260205f20015f6101000a8154816001600160a01b0302191690836001600160a01b031602179055505f60025f846001600160a01b031663fdf262b76040518163ffffffff1660e01b8152600401602060405180830381865afa158015610ec1573d5f803e3d5ffd5b505050506040513d601f19601f82011682018060405250810190610ee59190611996565b6001600160a01b03166001600160a01b031681526020019081526020015f205f846001600160a01b031663cdf456e16040518163ffffffff1660e01b8152600401602060405180830381865afa158015610f41573d5f803e3d5ffd5b505050506040513d601f19601f82011682018060405250810190610f659190611996565b6001600160a01b03166001600160a01b031681526020019081526020015f205f6101000a8154816001600160a01b0302191690836001600160a01b031602179055505f60025f846001600160a01b031663cdf456e16040518163ffffffff1660e01b8152600401602060405180830381865afa158015610fe7573d5f803e3d5ffd5b505050506040513d601f19601f8201168201806040525081019061100b9190611996565b6001600160a01b03166001600160a01b031681526020019081526020015f205f846001600160a01b031663fdf262b76040518163ffffffff1660e01b8152600401602060405180830381865afa158015611067573d5f803e3d5ffd5b505050506040513d601f19601f8201168201806040525081019061108b9190611996565b6001600160a01b03166001600160a01b031681526020019081526020015f205f6101000a8154816001600160a01b0302191690836001600160a01b031602179055505f8054806110dd576110dd6119f0565b5f8281526020902081015f19908101805473ffffffffffffffffffffffffffffffffffffffff191690550190555050565b600101610dd0565b61111e61116c565b6001600160a01b038116611160576040517f1e4fbdf70000000000000000000000000000000000000000000000000000000081525f6004820152602401610715565b61116981611420565b50565b3361119e7f9016d09d72d40fdae2fd8ceac6b6234c7706214fd39c1cd1e609a0528c199300546001600160a01b031690565b6001600160a01b03161461093f576040517f118cdaa7000000000000000000000000000000000000000000000000000000008152336004820152602401610715565b306001600160a01b037f000000000000000000000000000000000000000000000000000000000000000016148061127957507f00000000000000000000000000000000000000000000000000000000000000006001600160a01b031661126d7f360894a13ba1a3210667c828492db98dca3e2076cc3735a920a3ca505d382bbc546001600160a01b031690565b6001600160a01b031614155b1561093f576040517fe07c8dba00000000000000000000000000000000000000000000000000000000815260040160405180910390fd5b61116961116c565b816001600160a01b03166352d1902d6040518163ffffffff1660e01b8152600401602060405180830381865afa925050508015611312575060408051601f3d908101601f1916820190925261130f91810190611a04565b60015b611353576040517f4c9c8ce30000000000000000000000000000000000000000000000000000000081526001600160a01b0383166004820152602401610715565b7f360894a13ba1a3210667c828492db98dca3e2076cc3735a920a3ca505d382bbc81146113af576040517faa1d49a400000000000000000000000000000000000000000000000000000000815260048101829052602401610715565b6113b983836114b6565b505050565b306001600160a01b037f0000000000000000000000000000000000000000000000000000000000000000161461093f576040517fe07c8dba00000000000000000000000000000000000000000000000000000000815260040160405180910390fd5b7f9016d09d72d40fdae2fd8ceac6b6234c7706214fd39c1cd1e609a0528c199300805473ffffffffffffffffffffffffffffffffffffffff1981166001600160a01b03848116918217845560405192169182907f8be0079c531659141344cd1fd0a4f28419497f9722a3daafe3b4186f6b6457e0905f90a3505050565b61093f61150b565b6114ad61150b565b61116981611572565b6114bf8261157a565b6040516001600160a01b038316907fbc7cd75a20ee27fd9adebab32041f755214dbc6bffa90cc0225b39da2e5c2d3b905f90a2805115611503576113b98282611616565b6108ce611688565b7ff0c57e16840df040f15088dc2f81fe391c3923bec73e23a9662efc9c229c6a005468010000000000000000900460ff1661093f576040517fd7e6bcf800000000000000000000000000000000000000000000000000000000815260040160405180910390fd5b61111e61150b565b806001600160a01b03163b5f036115c8576040517f4c9c8ce30000000000000000000000000000000000000000000000000000000081526001600160a01b0382166004820152602401610715565b7f360894a13ba1a3210667c828492db98dca3e2076cc3735a920a3ca505d382bbc805473ffffffffffffffffffffffffffffffffffffffff19166001600160a01b0392909216919091179055565b60605f80846001600160a01b0316846040516116329190611a1b565b5f60405180830381855af49150503d805f811461166a576040519150601f19603f3d011682016040523d82523d5f602084013e61166f565b606091505b509150915061167f8583836116c0565b95945050505050565b341561093f576040517fb398979f00000000000000000000000000000000000000000000000000000000815260040160405180910390fd5b6060826116d5576116d082611738565b611731565b81511580156116ec57506001600160a01b0384163b155b1561172e576040517f9996b3150000000000000000000000000000000000000000000000000000000081526001600160a01b0385166004820152602401610715565b50805b9392505050565b8051156117485780518082602001fd5b6040517f1425ea4200000000000000000000000000000000000000000000000000000000815260040160405180910390fd5b6001600160a01b0381168114611169575f80fd5b5f6020828403121561179e575f80fd5b81356117318161177a565b602080825282518282018190525f9190848201906040850190845b818110156117e95783516001600160a01b0316835292840192918401916001016117c4565b50909695505050505050565b634e487b7160e01b5f52604160045260245ffd5b5f806040838503121561181a575f80fd5b82356118258161177a565b9150602083013567ffffffffffffffff80821115611841575f80fd5b818501915085601f830112611854575f80fd5b813581811115611866576118666117f5565b604051601f8201601f19908116603f0116810190838211818310171561188e5761188e6117f5565b816040528281528860208487010111156118a6575f80fd5b826020860160208301375f6020848301015280955050505050509250929050565b5f80604083850312156118d8575f80fd5b82356118e38161177a565b915060208301356118f38161177a565b809150509250929050565b5f806040838503121561190f575f80fd5b823561191a8161177a565b9150602083013567ffffffffffffffff811681146118f3575f80fd5b5f60208284031215611946575f80fd5b5035919050565b602081525f82518060208401528060208501604085015e5f604082850101526040601f19601f83011684010191505092915050565b634e487b7160e01b5f52603260045260245ffd5b5f602082840312156119a6575f80fd5b81516117318161177a565b634e487b7160e01b5f52601160045260245ffd5b5f5f1982036119d6576119d66119b1565b5060010190565b81810381811115610928576109286119b1565b634e487b7160e01b5f52603160045260245ffd5b5f60208284031215611a14575f80fd5b5051919050565b5f82518060208501845e5f92019182525091905056fea2646970667358221220e32fa962712e9cb8319f196e9d09a82dceafd4e11bb9fbedab88fd1c9a30cd8a64736f6c63430008190033",
  "linkReferences": {},
  "deployedLinkReferences": {}
}