{
  "_format": "hh-sol-artifact-1",
  "contractName": "BaluniV1DCAVaultRegistry",
  "sourceName": "contracts/registry/BaluniV1DCAVaultRegistry.sol",
  "abi": [
    {
      "inputs": [
        {
          "internalType": "address",
          "name": "target",
          "type": "address"
        }
      ],
      "name": "AddressEmptyCode",
      "type": "error"
    },
    {
      "inputs": [
        {
          "internalType": "address",
          "name": "implementation",
          "type": "address"
        }
      ],
      "name": "ERC1967InvalidImplementation",
      "type": "error"
    },
    {
      "inputs": [],
      "name": "ERC1967NonPayable",
      "type": "error"
    },
    {
      "inputs": [],
      "name": "FailedInnerCall",
      "type": "error"
    },
    {
      "inputs": [],
      "name": "InvalidInitialization",
      "type": "error"
    },
    {
      "inputs": [],
      "name": "NotInitializing",
      "type": "error"
    },
    {
      "inputs": [
        {
          "internalType": "address",
          "name": "owner",
          "type": "address"
        }
      ],
      "name": "OwnableInvalidOwner",
      "type": "error"
    },
    {
      "inputs": [
        {
          "internalType": "address",
          "name": "account",
          "type": "address"
        }
      ],
      "name": "OwnableUnauthorizedAccount",
      "type": "error"
    },
    {
      "inputs": [],
      "name": "UUPSUnauthorizedCallContext",
      "type": "error"
    },
    {
      "inputs": [
        {
          "internalType": "bytes32",
          "name": "slot",
          "type": "bytes32"
        }
      ],
      "name": "UUPSUnsupportedProxiableUUID",
      "type": "error"
    },
    {
      "anonymous": false,
      "inputs": [
        {
          "indexed": false,
          "internalType": "uint64",
          "name": "version",
          "type": "uint64"
        }
      ],
      "name": "Initialized",
      "type": "event"
    },
    {
      "anonymous": false,
      "inputs": [
        {
          "indexed": true,
          "internalType": "address",
          "name": "previousOwner",
          "type": "address"
        },
        {
          "indexed": true,
          "internalType": "address",
          "name": "newOwner",
          "type": "address"
        }
      ],
      "name": "OwnershipTransferred",
      "type": "event"
    },
    {
      "anonymous": false,
      "inputs": [
        {
          "indexed": true,
          "internalType": "address",
          "name": "implementation",
          "type": "address"
        }
      ],
      "name": "Upgraded",
      "type": "event"
    },
    {
      "anonymous": false,
      "inputs": [
        {
          "indexed": true,
          "internalType": "address",
          "name": "vault",
          "type": "address"
        },
        {
          "indexed": false,
          "internalType": "address[]",
          "name": "assets",
          "type": "address[]"
        }
      ],
      "name": "vaultCreated",
      "type": "event"
    },
    {
      "inputs": [],
      "name": "UPGRADE_INTERFACE_VERSION",
      "outputs": [
        {
          "internalType": "string",
          "name": "",
          "type": "string"
        }
      ],
      "stateMutability": "view",
      "type": "function"
    },
    {
      "inputs": [
        {
          "internalType": "address",
          "name": "vaultAddress",
          "type": "address"
        }
      ],
      "name": "addVault",
      "outputs": [],
      "stateMutability": "nonpayable",
      "type": "function"
    },
    {
      "inputs": [
        {
          "internalType": "uint256",
          "name": "",
          "type": "uint256"
        }
      ],
      "name": "allVaults",
      "outputs": [
        {
          "internalType": "address",
          "name": "",
          "type": "address"
        }
      ],
      "stateMutability": "view",
      "type": "function"
    },
    {
      "inputs": [],
      "name": "getAllVaults",
      "outputs": [
        {
          "internalType": "address[]",
          "name": "",
          "type": "address[]"
        }
      ],
      "stateMutability": "view",
      "type": "function"
    },
    {
      "inputs": [
        {
          "internalType": "address",
          "name": "",
          "type": "address"
        },
        {
          "internalType": "address",
          "name": "",
          "type": "address"
        }
      ],
      "name": "getVault",
      "outputs": [
        {
          "internalType": "address",
          "name": "",
          "type": "address"
        }
      ],
      "stateMutability": "view",
      "type": "function"
    },
    {
      "inputs": [
        {
          "internalType": "address",
          "name": "vaultAddress",
          "type": "address"
        }
      ],
      "name": "getVaultAsset",
      "outputs": [
        {
          "internalType": "address[]",
          "name": "",
          "type": "address[]"
        }
      ],
      "stateMutability": "view",
      "type": "function"
    },
    {
      "inputs": [
        {
          "internalType": "address",
          "name": "asset1",
          "type": "address"
        },
        {
          "internalType": "address",
          "name": "asset2",
          "type": "address"
        }
      ],
      "name": "getVaultType1ByAssets",
      "outputs": [
        {
          "internalType": "address",
          "name": "",
          "type": "address"
        }
      ],
      "stateMutability": "view",
      "type": "function"
    },
    {
      "inputs": [
        {
          "internalType": "address",
          "name": "token",
          "type": "address"
        }
      ],
      "name": "getVaultsByAsset",
      "outputs": [
        {
          "internalType": "address[]",
          "name": "",
          "type": "address[]"
        }
      ],
      "stateMutability": "view",
      "type": "function"
    },
    {
      "inputs": [],
      "name": "getVaultsCount",
      "outputs": [
        {
          "internalType": "uint256",
          "name": "",
          "type": "uint256"
        }
      ],
      "stateMutability": "view",
      "type": "function"
    },
    {
      "inputs": [
        {
          "internalType": "address",
          "name": "_register",
          "type": "address"
        }
      ],
      "name": "initialize",
      "outputs": [],
      "stateMutability": "nonpayable",
      "type": "function"
    },
    {
      "inputs": [],
      "name": "owner",
      "outputs": [
        {
          "internalType": "address",
          "name": "",
          "type": "address"
        }
      ],
      "stateMutability": "view",
      "type": "function"
    },
    {
      "inputs": [],
      "name": "proxiableUUID",
      "outputs": [
        {
          "internalType": "bytes32",
          "name": "",
          "type": "bytes32"
        }
      ],
      "stateMutability": "view",
      "type": "function"
    },
    {
      "inputs": [],
      "name": "registry",
      "outputs": [
        {
          "internalType": "contract IBaluniV1Registry",
          "name": "",
          "type": "address"
        }
      ],
      "stateMutability": "view",
      "type": "function"
    },
    {
      "inputs": [
        {
          "internalType": "address",
          "name": "_register",
          "type": "address"
        },
        {
          "internalType": "uint64",
          "name": "_version",
          "type": "uint64"
        }
      ],
      "name": "reinitialize",
      "outputs": [],
      "stateMutability": "nonpayable",
      "type": "function"
    },
    {
      "inputs": [
        {
          "internalType": "address",
          "name": "_vault",
          "type": "address"
        }
      ],
      "name": "removeVault",
      "outputs": [],
      "stateMutability": "nonpayable",
      "type": "function"
    },
    {
      "inputs": [],
      "name": "renounceOwnership",
      "outputs": [],
      "stateMutability": "nonpayable",
      "type": "function"
    },
    {
      "inputs": [
        {
          "internalType": "address",
          "name": "newOwner",
          "type": "address"
        }
      ],
      "name": "transferOwnership",
      "outputs": [],
      "stateMutability": "nonpayable",
      "type": "function"
    },
    {
      "inputs": [
        {
          "internalType": "address",
          "name": "newImplementation",
          "type": "address"
        },
        {
          "internalType": "bytes",
          "name": "data",
          "type": "bytes"
        }
      ],
      "name": "upgradeToAndCall",
      "outputs": [],
      "stateMutability": "payable",
      "type": "function"
    },
    {
      "inputs": [
        {
          "internalType": "address",
          "name": "_vault",
          "type": "address"
        }
      ],
      "name": "vaultExist",
      "outputs": [
        {
          "internalType": "bool",
          "name": "",
          "type": "bool"
        }
      ],
      "stateMutability": "view",
      "type": "function"
    }
  ],
  "bytecode": "0x60a060405234603957600e6047565b6014603d565b6128d06100a482396080518181816120af01528181612134015261232f01526128d090f35b6043565b60405190565b5f80fd5b604d604f565b565b60556057565b565b605d6097565b565b60018060a01b031690565b90565b607c6078608092605f565b606a565b605f565b90565b608a90606d565b90565b6094906083565b90565b609e30608d565b60805256fe60806040526004361015610013575b610bcb565b61001d5f3561014c565b806302b3537d146101475780631089405214610142578063256b5a021461013d5780634f1ef2861461013857806352d1902d14610133578063592717af1461012e578063715018a6146101295780637b103999146101245780638da5cb5b1461011f5780638f2248bc1461011a5780639094a91e1461011557806397331bf914610110578063ad3cb1cc1461010b578063b9b658db14610106578063bbd7edc514610101578063c4d66de8146100fc578063ca9d67c8146100f7578063ceb68c23146100f25763f2fde38b0361000e57610b98565b610b65565b610b30565b610afd565b610ac7565b610a39565b6109e2565b6108b1565b61087c565b610738565b6106a6565b610671565b610593565b61055d565b6104d9565b61047b565b6102ff565b6102c5565b6101f1565b60e01c90565b60405190565b5f80fd5b5f80fd5b5f80fd5b73ffffffffffffffffffffffffffffffffffffffff1690565b61018690610164565b90565b6101928161017d565b0361019957565b5f80fd5b905035906101aa82610189565b565b906020828203126101c5576101c2915f0161019d565b90565b61015c565b151590565b6101d8906101ca565b9052565b91906101ef905f602085019401906101cf565b565b346102215761021d61020c6102073660046101ac565b610c01565b610214610152565b918291826101dc565b0390f35b610158565b5190565b60209181520190565b60200190565b6102429061017d565b9052565b9061025381602093610239565b0190565b60200190565b9061027a61027461026d84610226565b809361022a565b92610233565b905f5b81811061028a5750505090565b9091926102a361029d6001928651610246565b94610257565b910191909161027d565b6102c29160208201915f81840391015261025d565b90565b346102f5576102f16102e06102db3660046101ac565b610dea565b6102e8610152565b918291826102ad565b0390f35b610158565b5f0190565b3461032d576103176103123660046101ac565b611357565b61031f610152565b80610329816102fa565b0390f35b610158565b5f80fd5b5f80fd5b601f801991011690565b7f4e487b71000000000000000000000000000000000000000000000000000000005f52604160045260245ffd5b9061037b9061033a565b810190811067ffffffffffffffff82111761039557604052565b610344565b906103ad6103a6610152565b9283610371565b565b67ffffffffffffffff81116103cd576103c960209161033a565b0190565b610344565b90825f939282370152565b909291926103f26103ed826103af565b61039a565b9381855260208501908284011161040e5761040c926103d2565b565b610336565b9080601f830112156104315781602061042e933591016103dd565b90565b610332565b9190916040818403126104765761044f835f830161019d565b92602082013567ffffffffffffffff81116104715761046e9201610413565b90565b610160565b61015c565b61048f610489366004610436565b9061138b565b610497610152565b806104a1816102fa565b0390f35b5f9103126104af57565b61015c565b90565b6104c0906104b4565b9052565b91906104d7905f602085019401906104b7565b565b34610509576104e93660046104a5565b6105056104f4611406565b6104fc610152565b918291826104c4565b0390f35b610158565b9190604083820312610536578061052a610533925f860161019d565b9360200161019d565b90565b61015c565b6105449061017d565b9052565b919061055b905f6020850194019061053b565b565b3461058e5761058a61057961057336600461050e565b90611443565b610581610152565b91829182610548565b0390f35b610158565b346105c1576105a33660046104a5565b6105ab611490565b6105b3610152565b806105bd816102fa565b0390f35b610158565b1c90565b73ffffffffffffffffffffffffffffffffffffffff1690565b6105f39060086105f893026105c6565b6105ca565b90565b9061060691546105e3565b90565b61061560015f906105fb565b90565b90565b61062f61062a61063492610164565b610618565b610164565b90565b6106409061061b565b90565b61064c90610637565b90565b61065890610643565b9052565b919061066f905f6020850194019061064f565b565b346106a1576106813660046104a5565b61069d61068c610609565b610694610152565b9182918261065c565b0390f35b610158565b346106d6576106b63660046104a5565b6106d26106c161149a565b6106c9610152565b91829182610548565b0390f35b610158565b67ffffffffffffffff1690565b6106f1816106db565b036106f857565b5f80fd5b90503590610709826106e8565b565b91906040838203126107335780610727610730925f860161019d565b936020016106fc565b90565b61015c565b346107675761075161074b36600461070b565b9061172f565b610759610152565b80610763816102fa565b0390f35b610158565b90565b6107788161076c565b0361077f57565b5f80fd5b905035906107908261076f565b565b906020828203126107ab576107a8915f01610783565b90565b61015c565b7f4e487b71000000000000000000000000000000000000000000000000000000005f52603260045260245ffd5b5490565b5f5260205f2090565b6107f3816107dd565b82101561080d576108056001916107e1565b910201905f90565b6107b0565b73ffffffffffffffffffffffffffffffffffffffff1690565b61083b90600861084093026105c6565b610812565b90565b9061084e915461082b565b90565b5f61085b816107dd565b821015610878576108759161086f916107ea565b90610843565b90565b5f80fd5b346108ac576108a8610897610892366004610792565b610851565b61089f610152565b91829182610548565b0390f35b610158565b346108e1576108c13660046104a5565b6108dd6108cc6117e9565b6108d4610152565b918291826102ad565b0390f35b610158565b67ffffffffffffffff81116109045761090060209161033a565b0190565b610344565b9061091b610916836108e6565b61039a565b918252565b5f7f352e302e30000000000000000000000000000000000000000000000000000000910152565b6109516005610909565b9061095e60208301610920565b565b610968610947565b90565b610973610960565b90565b61097e61096b565b90565b5190565b60209181520190565b90825f9392825e0152565b6109b86109c16020936109c6936109af81610981565b93848093610985565b9586910161098e565b61033a565b0190565b6109df9160208201915f818403910152610999565b90565b34610a12576109f23660046104a5565b610a0e6109fd610976565b610a05610152565b918291826109ca565b0390f35b610158565b610a209061076c565b9052565b9190610a37905f60208501940190610a17565b565b34610a6957610a493660046104a5565b610a65610a54611802565b610a5c610152565b91829182610a24565b0390f35b610158565b610a7790610637565b90565b90610a8490610a6e565b5f5260205260405f2090565b90610a9a90610a6e565b5f5260205260405f2090565b610abf610ac492610aba6002935f94610a7a565b610a90565b610843565b90565b34610af857610af4610ae3610add36600461050e565b90610aa6565b610aeb610152565b91829182610548565b0390f35b610158565b34610b2b57610b15610b103660046101ac565b611a23565b610b1d610152565b80610b27816102fa565b0390f35b610158565b34610b6057610b5c610b4b610b463660046101ac565b611a69565b610b53610152565b918291826102ad565b0390f35b610158565b34610b9357610b7d610b783660046101ac565b611f89565b610b85610152565b80610b8f816102fa565b0390f35b610158565b34610bc657610bb0610bab3660046101ac565b612019565b610bb8610152565b80610bc2816102fa565b0390f35b610158565b5f80fd5b5f90565b90565b610bea610be5610bef92610bd3565b610618565b61076c565b90565b6001610bfe910161076c565b90565b610c09610bcf565b50610c135f610bd6565b5b80610c2f610c29610c245f6107dd565b61076c565b9161076c565b1015610c7557610c49610c435f83906107ea565b90610843565b610c5b610c558461017d565b9161017d565b14610c6e57610c6990610bf2565b610c14565b5050600190565b50505f90565b606090565b67ffffffffffffffff8111610c985760208091020190565b610344565b90610caf610caa83610c80565b61039a565b918252565b369037565b90610cde610cc683610c9d565b92602080610cd48693610c80565b9201910390610cb4565b565b610ce99061061b565b90565b610cf590610ce0565b90565b610d0190610637565b90565b60e01b90565b90505190610d1782610189565b565b90602082820312610d3257610d2f915f01610d0a565b90565b61015c565b610d3f610152565b3d5f823e3d90fd5b90610d5182610226565b811015610d62576020809102010190565b6107b0565b90610d719061017d565b9052565b7f4e487b71000000000000000000000000000000000000000000000000000000005f52601160045260245ffd5b610dab9061076c565b7fffffffffffffffffffffffffffffffffffffffffffffffffffffffffffffffff8114610dd85760010190565b610d75565b610de7905161017d565b90565b610df2610c7b565b50610e04610dff5f6107dd565b610cb9565b91610e0e5f610bd6565b92610e185f610bd6565b5b80610e34610e2e610e295f6107dd565b61076c565b9161076c565b1015610fb957610e56610e51610e4b5f84906107ea565b90610843565b610cec565b610e7a6020610e6483610cf8565b63cdf456e190610e72610152565b938492610d04565b82528180610e8a600482016102fa565b03915afa908115610fb4575f91610f86575b50610eaf610ea98761017d565b9161017d565b14610f52575084610ed0610eca610ec585610226565b61076c565b9161076c565b14610ee357610ede90610bf2565b610e19565b509091505b610ef183610cb9565b91610efb5f610bd6565b5b80610f0f610f098761076c565b9161076c565b1015610f4b57610f4690610f41610f2f610f2a868490610d47565b610ddd565b610f3c8791849092610d47565b610d67565b610bf2565b610efc565b5092505090565b610f80939450610f7b9150610f6990959295610cf8565b610f768691849092610d47565b610d67565b610da2565b91610ee8565b610fa7915060203d8111610fad575b610f9f8183610371565b810190610d19565b5f610e9c565b503d610f95565b610d37565b50909150610ee8565b610fd390610fce612024565b6111db565b565b610fe9610fe4610fee92610bd3565b610618565b610164565b90565b610ffa90610fd5565b90565b60207f756c745f41444452455353000000000000000000000000000000000000000000917f42616c756e6956315661756c74466163746f72793a20494e56414c49445f76615f8201520152565b611057602b604092610985565b61106081610ffd565b0190565b6110799060208101905f81830391015261104a565b90565b1561108357565b61108b610152565b7f08c379a0000000000000000000000000000000000000000000000000000000008152806110bb60048201611064565b0390fd5b90565b5f5260205f2090565b5490565b6110d8816110cb565b8210156110f2576110ea6001916110c2565b910201905f90565b6107b0565b1b90565b9190600861112991029161112373ffffffffffffffffffffffffffffffffffffffff846110f7565b926110f7565b9181191691161790565b90565b919061114c61114761115493610a6e565b611133565b9083546110fb565b9055565b90815491680100000000000000008310156111885782611180916001611186950181556110cf565b90611136565b565b610344565b5f1b90565b906111b173ffffffffffffffffffffffffffffffffffffffff9161118d565b9181191691161790565b906111d06111cb6111d792610a6e565b611133565b8254611192565b9055565b61124090611204816111fd6111f76111f25f610ff1565b61017d565b9161017d565b141561107c565b6112176112105f6110bf565b8290611158565b602061122a61122583610cec565b610cf8565b63cdf456e190611238610152565b948592610d04565b82528180611250600482016102fa565b03915afa80156113525761128f925f91611324575b50602061127961127484610cec565b610cf8565b63fdf262b790611287610152565b958692610d04565b8252818061129f600482016102fa565b03915afa90811561131f576112e56112ea926112ef955f916112f1575b50936112dd816112d86112d160028790610a7a565b8890610a90565b6111bb565b936002610a7a565b610a90565b6111bb565b565b611312915060203d8111611318575b61130a8183610371565b810190610d19565b5f6112bc565b503d611300565b610d37565b611345915060203d811161134b575b61133d8183610371565b810190610d19565b5f611265565b503d611333565b610d37565b61136090610fc2565b565b906113749161136f61209e565b611376565b565b906113899161138481612170565b6121e0565b565b9061139591611362565b565b5f90565b6113ac906113a761231e565b6113fa565b90565b90565b6113c66113c16113cb926113af565b61118d565b6104b4565b90565b6113f77f360894a13ba1a3210667c828492db98dca3e2076cc3735a920a3ca505d382bbc6113b2565b90565b506114036113ce565b90565b611416611411611397565b61139b565b90565b5f90565b5f1c90565b61142e6114339161141d565b610812565b90565b6114409054611422565b90565b6114689161145e61146392611456611419565b506002610a7a565b610a90565b611436565b90565b611473612024565b61147b61147d565b565b61148e6114895f610ff1565b61239c565b565b61149861146b565b565b6114a2611419565b506114b55f6114af612408565b01611436565b90565b60401c90565b60ff1690565b6114d06114d5916114b8565b6114be565b90565b6114e290546114c4565b90565b67ffffffffffffffff1690565b6114fe6115039161141d565b6114e5565b90565b61151090546114f2565b90565b9061152667ffffffffffffffff9161118d565b9181191691161790565b61154461153f611549926106db565b610618565b6106db565b90565b90565b9061156461155f61156b92611530565b61154c565b8254611513565b9055565b60401b90565b9061158968ff00000000000000009161156f565b9181191691161790565b61159c906101ca565b90565b90565b906115b76115b26115be92611593565b61159f565b8254611575565b9055565b6115cb906106db565b9052565b91906115e2905f602085019401906115c2565b565b9080916115ef61242c565b906115fb5f83016114d8565b80156116ac575b611670576116359261162c9161161a865f860161154f565b61162760015f86016115a2565b611718565b5f8091016115a2565b61166b7fc7f505b2f371ae2175ee4913f4499e1f2633a7b5936321eed1cdaeb6115181d291611662610152565b918291826115cf565b0390a1565b611678610152565b7ff92ee8a9000000000000000000000000000000000000000000000000000000008152806116a8600482016102fa565b0390fd5b506116b85f8301611506565b6116ca6116c4866106db565b916106db565b1015611602565b6116da9061061b565b90565b6116e6906116d1565b90565b6116f2906116d1565b90565b90565b9061170d611708611714926116e9565b6116f5565b8254611192565b9055565b61172d9150611726906116dd565b60016116f8565b565b90611739916115e4565b565b60209181520190565b61174e9054611422565b90565b60010190565b9061177461176e611767846107dd565b809361173b565b926107e1565b905f5b8181106117845750505090565b9091926117a461179e60019261179987611744565b610246565b94611751565b9101919091611777565b906117b891611757565b90565b906117db6117d4926117cb610152565b938480926117ae565b0383610371565b565b6117e6906117bb565b90565b6117f1610c7b565b506117fb5f6117dd565b90565b5f90565b61180a6117fe565b506118145f6107dd565b90565b61182b61182661183092610bd3565b610618565b6106db565b90565b90565b61184a61184561184f92611833565b610618565b6106db565b90565b61185b90610637565b90565b61186790611836565b9052565b919061187e905f6020850194019061185e565b565b61188861242c565b9061189d6118975f84016114d8565b156101ca565b906118a95f8401611506565b806118bc6118b65f611817565b916106db565b14806119f6575b906118d76118d16001611836565b916106db565b14806119ce575b6118e99091156101ca565b90816119bd575b50611981576119199061190e6119066001611836565b5f860161154f565b8261196f575b6119fd565b611921575b50565b61192e905f8091016115a2565b60016119667fc7f505b2f371ae2175ee4913f4499e1f2633a7b5936321eed1cdaeb6115181d29161195d610152565b9182918261186b565b0390a15f61191e565b61197c60015f86016115a2565b611914565b611989610152565b7ff92ee8a9000000000000000000000000000000000000000000000000000000008152806119b9600482016102fa565b0390fd5b6119c89150156101ca565b5f6118f0565b506118e96119db30611852565b3b6119ee6119e85f610bd6565b9161076c565b1490506118de565b50826118c3565b611a1a611a2191611a0c61245a565b611a1533612482565b6116dd565b60016116f8565b565b611a2c90611880565b565b90565b611a45611a40611a4a92611a2e565b610618565b61076c565b90565b611a61611a5c611a6692611833565b610618565b61076c565b90565b611a71610c7b565b50611ab1611a87611a826002611a31565b610cb9565b916020611a9b611a9683610cec565b610cf8565b63cdf456e190611aa9610152565b948592610d04565b82528180611ac1600482016102fa565b03915afa918215611bbf57611b02602092611afd611b1d95611b07945f91611b92575b50611af888611af25f610bd6565b90610d47565b610d67565b610cec565b610cf8565b63fdf262b790611b15610152565b938492610d04565b82528180611b2d600482016102fa565b03915afa8015611b8d57611b5c915f91611b5f575b50611b5783611b516001611a4d565b90610d47565b610d67565b90565b611b80915060203d8111611b86575b611b788183610371565b810190610d19565b5f611b42565b503d611b6e565b610d37565b611bb29150863d8111611bb8575b611baa8183610371565b810190610d19565b5f611ae4565b503d611ba0565b610d37565b611bd590611bd0612024565b611c6c565b565b611be6611bec9193929361076c565b9261076c565b8203918211611bf757565b610d75565b7f4e487b71000000000000000000000000000000000000000000000000000000005f52603160045260245ffd5b611c3b91611c35611419565b91611136565b565b611c46816110cb565b8015611c67576001900390611c64611c5e83836110cf565b90611c29565b55565b611bfc565b611c755f610bd6565b5b80611c91611c8b611c865f6107dd565b61076c565b9161076c565b1015611f8257611cab611ca55f83906107ea565b90610843565b611cbd611cb78461017d565b9161017d565b14611cd057611ccb90610bf2565b611c76565b611d1390611d0d611d06611d005f611cfa611cea5f6107dd565b611cf46001611a4d565b90611bd7565b906107ea565b90610843565b915f6107ea565b90611136565b611d1c5f610ff1565b611d4a60026020611d34611d2f86610cec565b610cf8565b63fdf262b790611d42610152565b948592610d04565b82528180611d5a600482016102fa565b03915afa908115611f7d57611d76925f92611f4d575b50610a7a565b90611da36020611d8d611d8886610cec565b610cf8565b63cdf456e190611d9b610152565b938492610d04565b82528180611db3600482016102fa565b03915afa8015611f4857611dd793611dd2925f92611f18575b50610a90565b6111bb565b611de05f610ff1565b6002611e0e6020611df8611df386610cec565b610cf8565b63cdf456e190611e06610152565b938492610d04565b82528180611e1e600482016102fa565b03915afa8015611f1357611e4c611e46611e5192611e67956020955f92611ee4575b50610a7a565b95610cec565b610cf8565b63fdf262b790611e5f610152565b938492610d04565b82528180611e77600482016102fa565b03915afa8015611edf57611e9b93611e96925f92611eaf575b50610a90565b6111bb565b611eac611ea75f6110bf565b611c3d565b5b565b611ed191925060203d8111611ed8575b611ec98183610371565b810190610d19565b905f611e90565b503d611ebf565b610d37565b611f05919250863d8111611f0c575b611efd8183610371565b810190610d19565b905f611e40565b503d611ef3565b610d37565b611f3a91925060203d8111611f41575b611f328183610371565b810190610d19565b905f611dcc565b503d611f28565b610d37565b611f6f91925060203d8111611f76575b611f678183610371565b810190610d19565b905f611d70565b503d611f5d565b610d37565b5050611ead565b611f9290611bc4565b565b611fa590611fa0612024565b611fa7565b565b80611fc2611fbc611fb75f610ff1565b61017d565b9161017d565b14611fd257611fd09061239c565b565b612015611fde5f610ff1565b611fe6610152565b9182917f1e4fbdf700000000000000000000000000000000000000000000000000000000835260048301610548565b0390fd5b61202290611f94565b565b61202c61149a565b61204561203f61203a61248d565b61017d565b9161017d565b0361204c57565b61208e61205761248d565b61205f610152565b9182917f118cdaa700000000000000000000000000000000000000000000000000000000835260048301610548565b0390fd5b61209b90610637565b90565b6120a730612092565b6120d96120d37f000000000000000000000000000000000000000000000000000000000000000061017d565b9161017d565b148015612123575b6120e757565b6120ef610152565b7fe07c8dba0000000000000000000000000000000000000000000000000000000081528061211f600482016102fa565b0390fd5b5061212c61249a565b61215e6121587f000000000000000000000000000000000000000000000000000000000000000061017d565b9161017d565b14156120e1565b5061216e612024565b565b61217990612165565b565b6121849061061b565b90565b6121909061217b565b90565b61219c90610637565b90565b6121a8816104b4565b036121af57565b5f80fd5b905051906121c08261219f565b565b906020828203126121db576121d8915f016121b3565b90565b61015c565b919061220e60206121f86121f386612187565b612193565b6352d1902d90612206610152565b938492610d04565b8252818061221e600482016102fa565b03915afa80915f926122ee575b50155f1461227f57505090600161224057505b565b61227b9061224c610152565b9182917f4c9c8ce300000000000000000000000000000000000000000000000000000000835260048301610548565b0390fd5b928361229a61229461228f6113ce565b6104b4565b916104b4565b036122af576122aa9293506124c4565b61223e565b6122ea846122bb610152565b9182917faa1d49a4000000000000000000000000000000000000000000000000000000008352600483016104c4565b0390fd5b61231091925060203d8111612317575b6123088183610371565b8101906121c2565b905f61222b565b503d6122fe565b61232730612092565b6123596123537f000000000000000000000000000000000000000000000000000000000000000061017d565b9161017d565b0361236057565b612368610152565b7fe07c8dba00000000000000000000000000000000000000000000000000000000815280612398600482016102fa565b0390fd5b6123a4612408565b6123bc6123b25f8301611436565b915f8491016111bb565b906123f06123ea7f8be0079c531659141344cd1fd0a4f28419497f9722a3daafe3b4186f6b6457e093610a6e565b91610a6e565b916123f9610152565b80612403816102fa565b0390a3565b7f9016d09d72d40fdae2fd8ceac6b6234c7706214fd39c1cd1e609a0528c19930090565b7ff0c57e16840df040f15088dc2f81fe391c3923bec73e23a9662efc9c229c6a0090565b61245861254d565b565b612462612450565b565b6124759061247061254d565b612477565b565b61248090612625565b565b61248b90612464565b565b612495611419565b503390565b6124a2611419565b506124bd5f6124b76124b26113ce565b612630565b01611436565b90565b5190565b906124ce82612633565b816124f97fbc7cd75a20ee27fd9adebab32041f755214dbc6bffa90cc0225b39da2e5c2d3b91610a6e565b90612502610152565b8061250c816102fa565b0390a2612518816124c0565b61252a6125245f610bd6565b9161076c565b115f1461253e5761253a91612743565b505b565b50506125486126a8565b61253c565b61255e612558612772565b156101ca565b61256457565b61256c610152565b7fd7e6bcf80000000000000000000000000000000000000000000000000000000081528061259c600482016102fa565b0390fd5b6125b1906125ac61254d565b6125b3565b565b806125ce6125c86125c35f610ff1565b61017d565b9161017d565b146125de576125dc9061239c565b565b6126216125ea5f610ff1565b6125f2610152565b9182917f1e4fbdf700000000000000000000000000000000000000000000000000000000835260048301610548565b0390fd5b61262e906125a0565b565b90565b803b6126476126415f610bd6565b9161076c565b1461266957612667905f61266161265c6113ce565b612630565b016111bb565b565b6126a490612675610152565b9182917f4c9c8ce300000000000000000000000000000000000000000000000000000000835260048301610548565b0390fd5b346126bb6126b55f610bd6565b9161076c565b116126c257565b6126ca610152565b7fb398979f000000000000000000000000000000000000000000000000000000008152806126fa600482016102fa565b0390fd5b606090565b90612715612710836103af565b61039a565b918252565b3d5f146127355761272a3d612703565b903d5f602084013e5b565b61273d6126fe565b90612733565b5f8061276f936127516126fe565b508390602081019051915af49061276661271a565b90919091612790565b90565b61277a610bcf565b5061278d5f61278761242c565b016114d8565b90565b906127a49061279d6126fe565b50156101ca565b5f146127b05750612834565b6127b9826124c0565b6127cb6127c55f610bd6565b9161076c565b1480612819575b6127da575090565b612815906127e6610152565b9182917f9996b31500000000000000000000000000000000000000000000000000000000835260048301610548565b0390fd5b50803b61282e6128285f610bd6565b9161076c565b146127d2565b61283d816124c0565b61284f6128495f610bd6565b9161076c565b115f1461285e57805190602001fd5b612866610152565b7f1425ea4200000000000000000000000000000000000000000000000000000000815280612896600482016102fa565b0390fdfea26469706673582212203116b2266f6b96d641c8de02b45785323c192c69e59804699623c2225ba5b10c64736f6c63430008190033",
  "linkReferences": {},
  "deployedLinkReferences": {}
}