{
  "_format": "hh-sol-artifact-1",
  "contractName": "BaluniV1Oracle",
  "sourceName": "contracts/BaluniV1Oracle.sol",
  "abi": [
    {
      "inputs": [
        {
          "internalType": "address",
          "name": "target",
          "type": "address"
        }
      ],
      "name": "AddressEmptyCode",
      "type": "error"
    },
    {
      "inputs": [
        {
          "internalType": "address",
          "name": "implementation",
          "type": "address"
        }
      ],
      "name": "ERC1967InvalidImplementation",
      "type": "error"
    },
    {
      "inputs": [],
      "name": "ERC1967NonPayable",
      "type": "error"
    },
    {
      "inputs": [],
      "name": "FailedInnerCall",
      "type": "error"
    },
    {
      "inputs": [],
      "name": "InvalidInitialization",
      "type": "error"
    },
    {
      "inputs": [],
      "name": "NotInitializing",
      "type": "error"
    },
    {
      "inputs": [
        {
          "internalType": "address",
          "name": "owner",
          "type": "address"
        }
      ],
      "name": "OwnableInvalidOwner",
      "type": "error"
    },
    {
      "inputs": [
        {
          "internalType": "address",
          "name": "account",
          "type": "address"
        }
      ],
      "name": "OwnableUnauthorizedAccount",
      "type": "error"
    },
    {
      "inputs": [],
      "name": "UUPSUnauthorizedCallContext",
      "type": "error"
    },
    {
      "inputs": [
        {
          "internalType": "bytes32",
          "name": "slot",
          "type": "bytes32"
        }
      ],
      "name": "UUPSUnsupportedProxiableUUID",
      "type": "error"
    },
    {
      "anonymous": false,
      "inputs": [
        {
          "indexed": false,
          "internalType": "uint64",
          "name": "version",
          "type": "uint64"
        }
      ],
      "name": "Initialized",
      "type": "event"
    },
    {
      "anonymous": false,
      "inputs": [
        {
          "indexed": true,
          "internalType": "address",
          "name": "previousOwner",
          "type": "address"
        },
        {
          "indexed": true,
          "internalType": "address",
          "name": "newOwner",
          "type": "address"
        }
      ],
      "name": "OwnershipTransferred",
      "type": "event"
    },
    {
      "anonymous": false,
      "inputs": [
        {
          "indexed": true,
          "internalType": "address",
          "name": "implementation",
          "type": "address"
        }
      ],
      "name": "Upgraded",
      "type": "event"
    },
    {
      "inputs": [],
      "name": "UPGRADE_INTERFACE_VERSION",
      "outputs": [
        {
          "internalType": "string",
          "name": "",
          "type": "string"
        }
      ],
      "stateMutability": "view",
      "type": "function"
    },
    {
      "inputs": [
        {
          "internalType": "address",
          "name": "fromToken",
          "type": "address"
        },
        {
          "internalType": "address",
          "name": "toToken",
          "type": "address"
        },
        {
          "internalType": "uint256",
          "name": "amount",
          "type": "uint256"
        }
      ],
      "name": "convert",
      "outputs": [
        {
          "internalType": "uint256",
          "name": "valuation",
          "type": "uint256"
        }
      ],
      "stateMutability": "view",
      "type": "function"
    },
    {
      "inputs": [
        {
          "internalType": "address",
          "name": "fromToken",
          "type": "address"
        },
        {
          "internalType": "address",
          "name": "toToken",
          "type": "address"
        },
        {
          "internalType": "uint256",
          "name": "amount",
          "type": "uint256"
        }
      ],
      "name": "convertScaled",
      "outputs": [
        {
          "internalType": "uint256",
          "name": "valuation",
          "type": "uint256"
        }
      ],
      "stateMutability": "view",
      "type": "function"
    },
    {
      "inputs": [
        {
          "internalType": "address",
          "name": "_registry",
          "type": "address"
        }
      ],
      "name": "initialize",
      "outputs": [],
      "stateMutability": "nonpayable",
      "type": "function"
    },
    {
      "inputs": [],
      "name": "owner",
      "outputs": [
        {
          "internalType": "address",
          "name": "",
          "type": "address"
        }
      ],
      "stateMutability": "view",
      "type": "function"
    },
    {
      "inputs": [],
      "name": "proxiableUUID",
      "outputs": [
        {
          "internalType": "bytes32",
          "name": "",
          "type": "bytes32"
        }
      ],
      "stateMutability": "view",
      "type": "function"
    },
    {
      "inputs": [],
      "name": "registry",
      "outputs": [
        {
          "internalType": "contract IBaluniV1Registry",
          "name": "",
          "type": "address"
        }
      ],
      "stateMutability": "view",
      "type": "function"
    },
    {
      "inputs": [
        {
          "internalType": "address",
          "name": "_registry",
          "type": "address"
        },
        {
          "internalType": "uint64",
          "name": "version",
          "type": "uint64"
        }
      ],
      "name": "reinitialize",
      "outputs": [],
      "stateMutability": "nonpayable",
      "type": "function"
    },
    {
      "inputs": [],
      "name": "renounceOwnership",
      "outputs": [],
      "stateMutability": "nonpayable",
      "type": "function"
    },
    {
      "inputs": [
        {
          "internalType": "address",
          "name": "newOwner",
          "type": "address"
        }
      ],
      "name": "transferOwnership",
      "outputs": [],
      "stateMutability": "nonpayable",
      "type": "function"
    },
    {
      "inputs": [
        {
          "internalType": "address",
          "name": "newImplementation",
          "type": "address"
        },
        {
          "internalType": "bytes",
          "name": "data",
          "type": "bytes"
        }
      ],
      "name": "upgradeToAndCall",
      "outputs": [],
      "stateMutability": "payable",
      "type": "function"
    }
  ],
  "bytecode": "0x60a0604052306080523480156012575f80fd5b506080516117b36100395f395f8181610b4901528181610b720152610d9301526117b35ff3fe6080604052600436106100b8575f3560e01c80638da5cb5b11610071578063b27b5e751161004c578063b27b5e7514610238578063c4d66de814610257578063f2fde38b14610276575f80fd5b80638da5cb5b1461017b5780638f2248bc146101c4578063ad3cb1cc146101e3575f80fd5b806352d1902d116100a157806352d1902d14610103578063715018a6146101175780637b1039991461012b575f80fd5b8063248391ff146100bc5780634f1ef286146100ee575b5f80fd5b3480156100c7575f80fd5b506100db6100d6366004611270565b610295565b6040519081526020015b60405180910390f35b6101016100fc36600461132a565b61048c565b005b34801561010e575f80fd5b506100db6104ab565b348015610122575f80fd5b506101016104d9565b348015610136575f80fd5b505f546101569073ffffffffffffffffffffffffffffffffffffffff1681565b60405173ffffffffffffffffffffffffffffffffffffffff90911681526020016100e5565b348015610186575f80fd5b507f9016d09d72d40fdae2fd8ceac6b6234c7706214fd39c1cd1e609a0528c1993005473ffffffffffffffffffffffffffffffffffffffff16610156565b3480156101cf575f80fd5b506101016101de3660046113ea565b6104ec565b3480156101ee575f80fd5b5061022b6040518060400160405280600581526020017f352e302e3000000000000000000000000000000000000000000000000000000081525081565b6040516100e5919061142d565b348015610243575f80fd5b506100db610252366004611270565b610667565b348015610262575f80fd5b50610101610271366004611480565b610909565b348015610281575f80fd5b50610101610290366004611480565b610ace565b5f8054604080517fa5d2236f0000000000000000000000000000000000000000000000000000000081529051839273ffffffffffffffffffffffffffffffffffffffff169163a5d2236f9160048083019260209291908290030181865afa158015610302573d5f803e3d5ffd5b505050506040513d601f19601f82011682018060405250810190610326919061149b565b905073ffffffffffffffffffffffffffffffffffffffff81166103aa576040517f08c379a000000000000000000000000000000000000000000000000000000000815260206004820152601460248201527f5374617469634f7261636c65206e6f742073657400000000000000000000000060448201526064015b60405180910390fd5b6040517f0757bc810000000000000000000000000000000000000000000000000000000081526fffffffffffffffffffffffffffffffff8416600482015273ffffffffffffffffffffffffffffffffffffffff86811660248301528581166044830152610e106064830152821690630757bc81906084015f60405180830381865afa15801561043b573d5f803e3d5ffd5b505050506040513d5f823e601f3d9081017fffffffffffffffffffffffffffffffffffffffffffffffffffffffffffffffe016820160405261048091908101906114b6565b509150505b9392505050565b610494610b31565b61049d82610c35565b6104a78282610c3d565b5050565b5f6104b4610d7b565b507f360894a13ba1a3210667c828492db98dca3e2076cc3735a920a3ca505d382bbc90565b6104e1610dea565b6104ea5f610e78565b565b7ff0c57e16840df040f15088dc2f81fe391c3923bec73e23a9662efc9c229c6a00805482919068010000000000000000900460ff168061053a5750805467ffffffffffffffff808416911610155b15610571576040517ff92ee8a900000000000000000000000000000000000000000000000000000000815260040160405180910390fd5b80547fffffffffffffffffffffffffffffffffffffffffffffff0000000000000000001667ffffffffffffffff831617680100000000000000001781556105b733610f0d565b6105bf610f1e565b5f80547fffffffffffffffffffffffff00000000000000000000000000000000000000001673ffffffffffffffffffffffffffffffffffffffff861617905580547fffffffffffffffffffffffffffffffffffffffffffffff00ffffffffffffffff16815560405167ffffffffffffffff831681527fc7f505b2f371ae2175ee4913f4499e1f2633a7b5936321eed1cdaeb6115181d29060200160405180910390a150505050565b5f805f8573ffffffffffffffffffffffffffffffffffffffff1663313ce5676040518163ffffffff1660e01b8152600401602060405180830381865afa1580156106b3573d5f803e3d5ffd5b505050506040513d601f19601f820116820180604052508101906106d7919061156f565b90505f8573ffffffffffffffffffffffffffffffffffffffff1663313ce5676040518163ffffffff1660e01b8152600401602060405180830381865afa158015610723573d5f803e3d5ffd5b505050506040513d601f19601f82011682018060405250810190610747919061156f565b90505f61075583600a6116da565b90505f61076383600a6116da565b90508773ffffffffffffffffffffffffffffffffffffffff168973ffffffffffffffffffffffffffffffffffffffff16036107c4576107a38360126116e8565b6107ae90600a6116da565b6107b89088611701565b95505050505050610485565b6107df89896107d487600a6116da565b6100d6906001611701565b9450806107ec8387611701565b6107f69190611718565b94505f80806108068660126116e8565b61081190600a6116da565b90508560ff168760ff160361085857670de0b6b3a7640000610833898c611701565b61083d9190611718565b9850610849818a611701565b98505050505050505050610485565b8560ff168760ff16106108ac5761086f86886116e8565b61087a90600a6116da565b9250610886838b611718565b9150670de0b6b3a764000061089b8984611701565b6108a59190611718565b98506108ef565b6108b687876116e8565b6108c190600a6116da565b92506108cd838b611701565b9150670de0b6b3a76400006108e28984611701565b6108ec9190611718565b98505b6108f9818a611701565b9c9b505050505050505050505050565b7ff0c57e16840df040f15088dc2f81fe391c3923bec73e23a9662efc9c229c6a00805468010000000000000000810460ff16159067ffffffffffffffff165f811580156109535750825b90505f8267ffffffffffffffff16600114801561096f5750303b155b90508115801561097d575080155b156109b4576040517ff92ee8a900000000000000000000000000000000000000000000000000000000815260040160405180910390fd5b84547fffffffffffffffffffffffffffffffffffffffffffffffff00000000000000001660011785558315610a155784547fffffffffffffffffffffffffffffffffffffffffffffff00ffffffffffffffff16680100000000000000001785555b610a1e33610f0d565b610a26610f1e565b5f80547fffffffffffffffffffffffff00000000000000000000000000000000000000001673ffffffffffffffffffffffffffffffffffffffff88161790558315610ac65784547fffffffffffffffffffffffffffffffffffffffffffffff00ffffffffffffffff168555604051600181527fc7f505b2f371ae2175ee4913f4499e1f2633a7b5936321eed1cdaeb6115181d29060200160405180910390a15b505050505050565b610ad6610dea565b73ffffffffffffffffffffffffffffffffffffffff8116610b25576040517f1e4fbdf70000000000000000000000000000000000000000000000000000000081525f60048201526024016103a1565b610b2e81610e78565b50565b3073ffffffffffffffffffffffffffffffffffffffff7f0000000000000000000000000000000000000000000000000000000000000000161480610bfe57507f000000000000000000000000000000000000000000000000000000000000000073ffffffffffffffffffffffffffffffffffffffff16610be57f360894a13ba1a3210667c828492db98dca3e2076cc3735a920a3ca505d382bbc5473ffffffffffffffffffffffffffffffffffffffff1690565b73ffffffffffffffffffffffffffffffffffffffff1614155b156104ea576040517fe07c8dba00000000000000000000000000000000000000000000000000000000815260040160405180910390fd5b610b2e610dea565b8173ffffffffffffffffffffffffffffffffffffffff166352d1902d6040518163ffffffff1660e01b8152600401602060405180830381865afa925050508015610cc2575060408051601f3d9081017fffffffffffffffffffffffffffffffffffffffffffffffffffffffffffffffe0168201909252610cbf91810190611750565b60015b610d10576040517f4c9c8ce300000000000000000000000000000000000000000000000000000000815273ffffffffffffffffffffffffffffffffffffffff831660048201526024016103a1565b7f360894a13ba1a3210667c828492db98dca3e2076cc3735a920a3ca505d382bbc8114610d6c576040517faa1d49a4000000000000000000000000000000000000000000000000000000008152600481018290526024016103a1565b610d768383610f26565b505050565b3073ffffffffffffffffffffffffffffffffffffffff7f000000000000000000000000000000000000000000000000000000000000000016146104ea576040517fe07c8dba00000000000000000000000000000000000000000000000000000000815260040160405180910390fd5b33610e297f9016d09d72d40fdae2fd8ceac6b6234c7706214fd39c1cd1e609a0528c1993005473ffffffffffffffffffffffffffffffffffffffff1690565b73ffffffffffffffffffffffffffffffffffffffff16146104ea576040517f118cdaa70000000000000000000000000000000000000000000000000000000081523360048201526024016103a1565b7f9016d09d72d40fdae2fd8ceac6b6234c7706214fd39c1cd1e609a0528c19930080547fffffffffffffffffffffffff0000000000000000000000000000000000000000811673ffffffffffffffffffffffffffffffffffffffff848116918217845560405192169182907f8be0079c531659141344cd1fd0a4f28419497f9722a3daafe3b4186f6b6457e0905f90a3505050565b610f15610f88565b610b2e81610fef565b6104ea610f88565b610f2f82610ff7565b60405173ffffffffffffffffffffffffffffffffffffffff8316907fbc7cd75a20ee27fd9adebab32041f755214dbc6bffa90cc0225b39da2e5c2d3b905f90a2805115610f8057610d7682826110c5565b6104a7611146565b7ff0c57e16840df040f15088dc2f81fe391c3923bec73e23a9662efc9c229c6a005468010000000000000000900460ff166104ea576040517fd7e6bcf800000000000000000000000000000000000000000000000000000000815260040160405180910390fd5b610ad6610f88565b8073ffffffffffffffffffffffffffffffffffffffff163b5f0361105f576040517f4c9c8ce300000000000000000000000000000000000000000000000000000000815273ffffffffffffffffffffffffffffffffffffffff821660048201526024016103a1565b7f360894a13ba1a3210667c828492db98dca3e2076cc3735a920a3ca505d382bbc80547fffffffffffffffffffffffff00000000000000000000000000000000000000001673ffffffffffffffffffffffffffffffffffffffff92909216919091179055565b60605f808473ffffffffffffffffffffffffffffffffffffffff16846040516110ee9190611767565b5f60405180830381855af49150503d805f8114611126576040519150601f19603f3d011682016040523d82523d5f602084013e61112b565b606091505b509150915061113b85838361117e565b925050505b92915050565b34156104ea576040517fb398979f00000000000000000000000000000000000000000000000000000000815260040160405180910390fd5b6060826111935761118e8261120d565b610485565b81511580156111b7575073ffffffffffffffffffffffffffffffffffffffff84163b155b15611206576040517f9996b31500000000000000000000000000000000000000000000000000000000815273ffffffffffffffffffffffffffffffffffffffff851660048201526024016103a1565b5080610485565b80511561121d5780518082602001fd5b6040517f1425ea4200000000000000000000000000000000000000000000000000000000815260040160405180910390fd5b73ffffffffffffffffffffffffffffffffffffffff81168114610b2e575f80fd5b5f805f60608486031215611282575f80fd5b833561128d8161124f565b9250602084013561129d8161124f565b929592945050506040919091013590565b7f4e487b71000000000000000000000000000000000000000000000000000000005f52604160045260245ffd5b604051601f82017fffffffffffffffffffffffffffffffffffffffffffffffffffffffffffffffe016810167ffffffffffffffff81118282101715611322576113226112ae565b604052919050565b5f806040838503121561133b575f80fd5b82356113468161124f565b915060208381013567ffffffffffffffff80821115611363575f80fd5b818601915086601f830112611376575f80fd5b813581811115611388576113886112ae565b6113b8847fffffffffffffffffffffffffffffffffffffffffffffffffffffffffffffffe0601f840116016112db565b915080825287848285010111156113cd575f80fd5b80848401858401375f848284010152508093505050509250929050565b5f80604083850312156113fb575f80fd5b82356114068161124f565b9150602083013567ffffffffffffffff81168114611422575f80fd5b809150509250929050565b602081525f82518060208401528060208501604085015e5f6040828501015260407fffffffffffffffffffffffffffffffffffffffffffffffffffffffffffffffe0601f83011684010191505092915050565b5f60208284031215611490575f80fd5b81356104858161124f565b5f602082840312156114ab575f80fd5b81516104858161124f565b5f80604083850312156114c7575f80fd5b8251915060208084015167ffffffffffffffff808211156114e6575f80fd5b818601915086601f8301126114f9575f80fd5b81518181111561150b5761150b6112ae565b8060051b915061151c8483016112db565b8181529183018401918481019089841115611535575f80fd5b938501935b8385101561155f578451925061154f8361124f565b828252938501939085019061153a565b8096505050505050509250929050565b5f6020828403121561157f575f80fd5b815160ff81168114610485575f80fd5b7f4e487b71000000000000000000000000000000000000000000000000000000005f52601160045260245ffd5b600181815b8085111561161557817fffffffffffffffffffffffffffffffffffffffffffffffffffffffffffffffff048211156115fb576115fb61158f565b8085161561160857918102915b93841c93908002906115c1565b509250929050565b5f8261162b57506001611140565b8161163757505f611140565b816001811461164d576002811461165757611673565b6001915050611140565b60ff8411156116685761166861158f565b50506001821b611140565b5060208310610133831016604e8410600b8410161715611696575081810a611140565b6116a083836115bc565b807fffffffffffffffffffffffffffffffffffffffffffffffffffffffffffffffff048211156116d2576116d261158f565b029392505050565b5f61048560ff84168361161d565b60ff82811682821603908111156111405761114061158f565b80820281158282048414176111405761114061158f565b5f8261174b577f4e487b71000000000000000000000000000000000000000000000000000000005f52601260045260245ffd5b500490565b5f60208284031215611760575f80fd5b5051919050565b5f82518060208501845e5f92019182525091905056fea2646970667358221220200e2cc77c122b656cd2f02a64b6e751db699cd8383745b277184ea00ca0f2b664736f6c63430008190033",
  "linkReferences": {},
  "deployedLinkReferences": {}
}