{
  "_format": "hh-sol-artifact-1",
  "contractName": "BaluniV1Router",
  "sourceName": "contracts/BaluniV1Router.sol",
  "abi": [
    {
      "inputs": [
        {
          "internalType": "address",
          "name": "target",
          "type": "address"
        }
      ],
      "name": "AddressEmptyCode",
      "type": "error"
    },
    {
      "inputs": [
        {
          "internalType": "address",
          "name": "implementation",
          "type": "address"
        }
      ],
      "name": "ERC1967InvalidImplementation",
      "type": "error"
    },
    {
      "inputs": [],
      "name": "ERC1967NonPayable",
      "type": "error"
    },
    {
      "inputs": [
        {
          "internalType": "address",
          "name": "spender",
          "type": "address"
        },
        {
          "internalType": "uint256",
          "name": "allowance",
          "type": "uint256"
        },
        {
          "internalType": "uint256",
          "name": "needed",
          "type": "uint256"
        }
      ],
      "name": "ERC20InsufficientAllowance",
      "type": "error"
    },
    {
      "inputs": [
        {
          "internalType": "address",
          "name": "sender",
          "type": "address"
        },
        {
          "internalType": "uint256",
          "name": "balance",
          "type": "uint256"
        },
        {
          "internalType": "uint256",
          "name": "needed",
          "type": "uint256"
        }
      ],
      "name": "ERC20InsufficientBalance",
      "type": "error"
    },
    {
      "inputs": [
        {
          "internalType": "address",
          "name": "approver",
          "type": "address"
        }
      ],
      "name": "ERC20InvalidApprover",
      "type": "error"
    },
    {
      "inputs": [
        {
          "internalType": "address",
          "name": "receiver",
          "type": "address"
        }
      ],
      "name": "ERC20InvalidReceiver",
      "type": "error"
    },
    {
      "inputs": [
        {
          "internalType": "address",
          "name": "sender",
          "type": "address"
        }
      ],
      "name": "ERC20InvalidSender",
      "type": "error"
    },
    {
      "inputs": [
        {
          "internalType": "address",
          "name": "spender",
          "type": "address"
        }
      ],
      "name": "ERC20InvalidSpender",
      "type": "error"
    },
    {
      "inputs": [],
      "name": "FailedInnerCall",
      "type": "error"
    },
    {
      "inputs": [],
      "name": "InvalidInitialization",
      "type": "error"
    },
    {
      "inputs": [],
      "name": "NotInitializing",
      "type": "error"
    },
    {
      "inputs": [
        {
          "internalType": "address",
          "name": "owner",
          "type": "address"
        }
      ],
      "name": "OwnableInvalidOwner",
      "type": "error"
    },
    {
      "inputs": [
        {
          "internalType": "address",
          "name": "account",
          "type": "address"
        }
      ],
      "name": "OwnableUnauthorizedAccount",
      "type": "error"
    },
    {
      "inputs": [],
      "name": "ReentrancyGuardReentrantCall",
      "type": "error"
    },
    {
      "inputs": [],
      "name": "UUPSUnauthorizedCallContext",
      "type": "error"
    },
    {
      "inputs": [
        {
          "internalType": "bytes32",
          "name": "slot",
          "type": "bytes32"
        }
      ],
      "name": "UUPSUnsupportedProxiableUUID",
      "type": "error"
    },
    {
      "anonymous": false,
      "inputs": [
        {
          "indexed": true,
          "internalType": "address",
          "name": "owner",
          "type": "address"
        },
        {
          "indexed": true,
          "internalType": "address",
          "name": "spender",
          "type": "address"
        },
        {
          "indexed": false,
          "internalType": "uint256",
          "name": "value",
          "type": "uint256"
        }
      ],
      "name": "Approval",
      "type": "event"
    },
    {
      "anonymous": false,
      "inputs": [
        {
          "indexed": false,
          "internalType": "address",
          "name": "user",
          "type": "address"
        },
        {
          "indexed": false,
          "internalType": "uint256",
          "name": "value",
          "type": "uint256"
        }
      ],
      "name": "Burn",
      "type": "event"
    },
    {
      "anonymous": false,
      "inputs": [
        {
          "indexed": false,
          "internalType": "address",
          "name": "user",
          "type": "address"
        },
        {
          "components": [
            {
              "internalType": "address",
              "name": "to",
              "type": "address"
            },
            {
              "internalType": "uint256",
              "name": "value",
              "type": "uint256"
            },
            {
              "internalType": "bytes",
              "name": "data",
              "type": "bytes"
            }
          ],
          "indexed": false,
          "internalType": "struct IBaluniV1Agent.Call[]",
          "name": "calls",
          "type": "tuple[]"
        },
        {
          "indexed": false,
          "internalType": "address[]",
          "name": "tokensReturn",
          "type": "address[]"
        }
      ],
      "name": "Execute",
      "type": "event"
    },
    {
      "anonymous": false,
      "inputs": [
        {
          "indexed": false,
          "internalType": "uint64",
          "name": "version",
          "type": "uint64"
        }
      ],
      "name": "Initialized",
      "type": "event"
    },
    {
      "anonymous": false,
      "inputs": [
        {
          "indexed": false,
          "internalType": "string",
          "name": "message",
          "type": "string"
        },
        {
          "indexed": false,
          "internalType": "uint256",
          "name": "value",
          "type": "uint256"
        }
      ],
      "name": "Log",
      "type": "event"
    },
    {
      "anonymous": false,
      "inputs": [
        {
          "indexed": false,
          "internalType": "address",
          "name": "user",
          "type": "address"
        },
        {
          "indexed": false,
          "internalType": "uint256",
          "name": "value",
          "type": "uint256"
        }
      ],
      "name": "Mint",
      "type": "event"
    },
    {
      "anonymous": false,
      "inputs": [
        {
          "indexed": true,
          "internalType": "address",
          "name": "previousOwner",
          "type": "address"
        },
        {
          "indexed": true,
          "internalType": "address",
          "name": "newOwner",
          "type": "address"
        }
      ],
      "name": "OwnershipTransferred",
      "type": "event"
    },
    {
      "anonymous": false,
      "inputs": [
        {
          "indexed": true,
          "internalType": "address",
          "name": "from",
          "type": "address"
        },
        {
          "indexed": true,
          "internalType": "address",
          "name": "to",
          "type": "address"
        },
        {
          "indexed": false,
          "internalType": "uint256",
          "name": "value",
          "type": "uint256"
        }
      ],
      "name": "Transfer",
      "type": "event"
    },
    {
      "anonymous": false,
      "inputs": [
        {
          "indexed": true,
          "internalType": "address",
          "name": "implementation",
          "type": "address"
        }
      ],
      "name": "Upgraded",
      "type": "event"
    },
    {
      "inputs": [],
      "name": "UPGRADE_INTERFACE_VERSION",
      "outputs": [
        {
          "internalType": "string",
          "name": "",
          "type": "string"
        }
      ],
      "stateMutability": "view",
      "type": "function"
    },
    {
      "inputs": [
        {
          "internalType": "address",
          "name": "owner",
          "type": "address"
        },
        {
          "internalType": "address",
          "name": "spender",
          "type": "address"
        }
      ],
      "name": "allowance",
      "outputs": [
        {
          "internalType": "uint256",
          "name": "",
          "type": "uint256"
        }
      ],
      "stateMutability": "view",
      "type": "function"
    },
    {
      "inputs": [
        {
          "internalType": "address",
          "name": "spender",
          "type": "address"
        },
        {
          "internalType": "uint256",
          "name": "value",
          "type": "uint256"
        }
      ],
      "name": "approve",
      "outputs": [
        {
          "internalType": "bool",
          "name": "",
          "type": "bool"
        }
      ],
      "stateMutability": "nonpayable",
      "type": "function"
    },
    {
      "inputs": [
        {
          "internalType": "address",
          "name": "account",
          "type": "address"
        }
      ],
      "name": "balanceOf",
      "outputs": [
        {
          "internalType": "uint256",
          "name": "",
          "type": "uint256"
        }
      ],
      "stateMutability": "view",
      "type": "function"
    },
    {
      "inputs": [],
      "name": "baseAsset",
      "outputs": [
        {
          "internalType": "address",
          "name": "",
          "type": "address"
        }
      ],
      "stateMutability": "view",
      "type": "function"
    },
    {
      "inputs": [
        {
          "internalType": "uint256",
          "name": "burnAmount",
          "type": "uint256"
        }
      ],
      "name": "burnERC20",
      "outputs": [],
      "stateMutability": "nonpayable",
      "type": "function"
    },
    {
      "inputs": [
        {
          "internalType": "uint256",
          "name": "burnAmount",
          "type": "uint256"
        }
      ],
      "name": "burnUSDC",
      "outputs": [],
      "stateMutability": "nonpayable",
      "type": "function"
    },
    {
      "inputs": [
        {
          "internalType": "uint256",
          "name": "totalBaluni",
          "type": "uint256"
        },
        {
          "internalType": "uint256",
          "name": "totalERC20Balance",
          "type": "uint256"
        },
        {
          "internalType": "uint256",
          "name": "baluniAmount",
          "type": "uint256"
        },
        {
          "internalType": "uint256",
          "name": "tokenDecimals",
          "type": "uint256"
        }
      ],
      "name": "calculateTokenShare",
      "outputs": [
        {
          "internalType": "uint256",
          "name": "",
          "type": "uint256"
        }
      ],
      "stateMutability": "pure",
      "type": "function"
    },
    {
      "inputs": [
        {
          "internalType": "address[]",
          "name": "assets",
          "type": "address[]"
        },
        {
          "internalType": "uint256[]",
          "name": "weights",
          "type": "uint256[]"
        },
        {
          "internalType": "address",
          "name": "sender",
          "type": "address"
        },
        {
          "internalType": "address",
          "name": "receiver",
          "type": "address"
        },
        {
          "internalType": "uint256",
          "name": "limit",
          "type": "uint256"
        },
        {
          "internalType": "address",
          "name": "",
          "type": "address"
        }
      ],
      "name": "callRebalance",
      "outputs": [],
      "stateMutability": "nonpayable",
      "type": "function"
    },
    {
      "inputs": [],
      "name": "decimals",
      "outputs": [
        {
          "internalType": "uint8",
          "name": "",
          "type": "uint8"
        }
      ],
      "stateMutability": "view",
      "type": "function"
    },
    {
      "inputs": [
        {
          "components": [
            {
              "internalType": "address",
              "name": "to",
              "type": "address"
            },
            {
              "internalType": "uint256",
              "name": "value",
              "type": "uint256"
            },
            {
              "internalType": "bytes",
              "name": "data",
              "type": "bytes"
            }
          ],
          "internalType": "struct IBaluniV1Agent.Call[]",
          "name": "calls",
          "type": "tuple[]"
        },
        {
          "internalType": "address[]",
          "name": "tokensReturn",
          "type": "address[]"
        }
      ],
      "name": "execute",
      "outputs": [],
      "stateMutability": "nonpayable",
      "type": "function"
    },
    {
      "inputs": [
        {
          "internalType": "address",
          "name": "_user",
          "type": "address"
        }
      ],
      "name": "getAgentAddress",
      "outputs": [
        {
          "internalType": "address",
          "name": "",
          "type": "address"
        }
      ],
      "stateMutability": "view",
      "type": "function"
    },
    {
      "inputs": [],
      "name": "getTokens",
      "outputs": [
        {
          "internalType": "address[]",
          "name": "",
          "type": "address[]"
        }
      ],
      "stateMutability": "view",
      "type": "function"
    },
    {
      "inputs": [
        {
          "internalType": "uint256",
          "name": "amount",
          "type": "uint256"
        }
      ],
      "name": "getUSDCShareValue",
      "outputs": [
        {
          "internalType": "uint256",
          "name": "",
          "type": "uint256"
        }
      ],
      "stateMutability": "view",
      "type": "function"
    },
    {
      "inputs": [],
      "name": "getVersion",
      "outputs": [
        {
          "internalType": "uint64",
          "name": "",
          "type": "uint64"
        }
      ],
      "stateMutability": "view",
      "type": "function"
    },
    {
      "inputs": [
        {
          "internalType": "address",
          "name": "_registry",
          "type": "address"
        }
      ],
      "name": "initialize",
      "outputs": [],
      "stateMutability": "nonpayable",
      "type": "function"
    },
    {
      "inputs": [
        {
          "internalType": "address",
          "name": "token",
          "type": "address"
        }
      ],
      "name": "liquidate",
      "outputs": [],
      "stateMutability": "nonpayable",
      "type": "function"
    },
    {
      "inputs": [],
      "name": "liquidateAll",
      "outputs": [],
      "stateMutability": "nonpayable",
      "type": "function"
    },
    {
      "inputs": [
        {
          "internalType": "uint256",
          "name": "balAmountToMint",
          "type": "uint256"
        }
      ],
      "name": "mintWithUSDC",
      "outputs": [],
      "stateMutability": "nonpayable",
      "type": "function"
    },
    {
      "inputs": [],
      "name": "name",
      "outputs": [
        {
          "internalType": "string",
          "name": "",
          "type": "string"
        }
      ],
      "stateMutability": "view",
      "type": "function"
    },
    {
      "inputs": [],
      "name": "owner",
      "outputs": [
        {
          "internalType": "address",
          "name": "",
          "type": "address"
        }
      ],
      "stateMutability": "view",
      "type": "function"
    },
    {
      "inputs": [],
      "name": "proxiableUUID",
      "outputs": [
        {
          "internalType": "bytes32",
          "name": "",
          "type": "bytes32"
        }
      ],
      "stateMutability": "view",
      "type": "function"
    },
    {
      "inputs": [],
      "name": "registry",
      "outputs": [
        {
          "internalType": "contract IBaluniV1Registry",
          "name": "",
          "type": "address"
        }
      ],
      "stateMutability": "view",
      "type": "function"
    },
    {
      "inputs": [
        {
          "internalType": "address",
          "name": "_registry",
          "type": "address"
        },
        {
          "internalType": "uint64",
          "name": "version",
          "type": "uint64"
        }
      ],
      "name": "reinitialize",
      "outputs": [],
      "stateMutability": "nonpayable",
      "type": "function"
    },
    {
      "inputs": [],
      "name": "renounceOwnership",
      "outputs": [],
      "stateMutability": "nonpayable",
      "type": "function"
    },
    {
      "inputs": [
        {
          "internalType": "uint256",
          "name": "balAmountToMint",
          "type": "uint256"
        }
      ],
      "name": "requiredUSDCtoMint",
      "outputs": [
        {
          "internalType": "uint256",
          "name": "",
          "type": "uint256"
        }
      ],
      "stateMutability": "view",
      "type": "function"
    },
    {
      "inputs": [
        {
          "internalType": "address",
          "name": "_registry",
          "type": "address"
        }
      ],
      "name": "resetContract",
      "outputs": [],
      "stateMutability": "nonpayable",
      "type": "function"
    },
    {
      "inputs": [],
      "name": "symbol",
      "outputs": [
        {
          "internalType": "string",
          "name": "",
          "type": "string"
        }
      ],
      "stateMutability": "view",
      "type": "function"
    },
    {
      "inputs": [
        {
          "internalType": "uint256",
          "name": "amount",
          "type": "uint256"
        },
        {
          "internalType": "address",
          "name": "token",
          "type": "address"
        }
      ],
      "name": "tokenValuation",
      "outputs": [
        {
          "internalType": "uint256",
          "name": "",
          "type": "uint256"
        }
      ],
      "stateMutability": "view",
      "type": "function"
    },
    {
      "inputs": [],
      "name": "totalSupply",
      "outputs": [
        {
          "internalType": "uint256",
          "name": "",
          "type": "uint256"
        }
      ],
      "stateMutability": "view",
      "type": "function"
    },
    {
      "inputs": [],
      "name": "totalValuation",
      "outputs": [
        {
          "internalType": "uint256",
          "name": "",
          "type": "uint256"
        }
      ],
      "stateMutability": "view",
      "type": "function"
    },
    {
      "inputs": [
        {
          "internalType": "address",
          "name": "to",
          "type": "address"
        },
        {
          "internalType": "uint256",
          "name": "value",
          "type": "uint256"
        }
      ],
      "name": "transfer",
      "outputs": [
        {
          "internalType": "bool",
          "name": "",
          "type": "bool"
        }
      ],
      "stateMutability": "nonpayable",
      "type": "function"
    },
    {
      "inputs": [
        {
          "internalType": "address",
          "name": "from",
          "type": "address"
        },
        {
          "internalType": "address",
          "name": "to",
          "type": "address"
        },
        {
          "internalType": "uint256",
          "name": "value",
          "type": "uint256"
        }
      ],
      "name": "transferFrom",
      "outputs": [
        {
          "internalType": "bool",
          "name": "",
          "type": "bool"
        }
      ],
      "stateMutability": "nonpayable",
      "type": "function"
    },
    {
      "inputs": [
        {
          "internalType": "address",
          "name": "newOwner",
          "type": "address"
        }
      ],
      "name": "transferOwnership",
      "outputs": [],
      "stateMutability": "nonpayable",
      "type": "function"
    },
    {
      "inputs": [],
      "name": "unitPrice",
      "outputs": [
        {
          "internalType": "uint256",
          "name": "",
          "type": "uint256"
        }
      ],
      "stateMutability": "view",
      "type": "function"
    },
    {
      "inputs": [
        {
          "internalType": "address",
          "name": "newImplementation",
          "type": "address"
        },
        {
          "internalType": "bytes",
          "name": "data",
          "type": "bytes"
        }
      ],
      "name": "upgradeToAndCall",
      "outputs": [],
      "stateMutability": "payable",
      "type": "function"
    }
  ],
  "bytecode": "0x60a0604052306080523480156012575f80fd5b506080516155916100395f395f8181613ecc01528181613ef501526140a501526155915ff3fe608060405260043610610243575f3560e01c806371ddcfb811610131578063c4d66de8116100ac578063e73faa2d1161007c578063f2fde38b11610062578063f2fde38b14610715578063fe0a4dd114610734578063fe330a5114610753575f80fd5b8063e73faa2d146106e2578063eedc3c50146106f6575f80fd5b8063c4d66de814610622578063cdf456e114610641578063dd62ed3e14610660578063e67ad759146106c3575f80fd5b806395d89b4111610101578063aa6ca808116100e7578063aa6ca8081461059a578063aa95d893146105bb578063ad3cb1cc146105da575f80fd5b806395d89b4114610567578063a9059cbb1461057b575f80fd5b806371ddcfb8146104ce5780637b103999146104ed5780638da5cb5b1461050c5780638f2248bc14610548575f80fd5b80632bdd955a116101c15780634f1ef28611610191578063599f69f711610177578063599f69f71461044857806370a0823114610467578063715018a6146104ba575f80fd5b80634f1ef2861461042157806352d1902d14610434575f80fd5b80632bdd955a146103b45780632f865568146103d3578063313ce567146103f25780633c2066a91461040d575f80fd5b806318160ddd1161021657806323b872dd116101fc57806323b872dd1461034a57806327d54a9214610369578063295b9300146103a0575f80fd5b806318160ddd146102ee5780631a168da21461032b575f80fd5b806306fdde0314610247578063095ea7b3146102715780630cfc7386146102a05780630d8e6e2c146102c1575b5f80fd5b348015610252575f80fd5b5061025b610772565b60405161026891906149c4565b60405180910390f35b34801561027c575f80fd5b5061029061028b3660046149ea565b610845565b6040519015158152602001610268565b3480156102ab575f80fd5b506102bf6102ba366004614a14565b61085e565b005b3480156102cc575f80fd5b506102d5610ebd565b60405167ffffffffffffffff9091168152602001610268565b3480156102f9575f80fd5b507f52c63247e1f47db19d5ce0460030c497f067ca4cebf71ba98eeadabe20bace02545b604051908152602001610268565b348015610336575f80fd5b506102bf610345366004614a14565b610ef5565b348015610355575f80fd5b50610290610364366004614a2b565b611287565b348015610374575f80fd5b50610388610383366004614a69565b6112ac565b6040516001600160a01b039091168152602001610268565b3480156103ab575f80fd5b5061031d6113a7565b3480156103bf575f80fd5b5061031d6103ce366004614a84565b6113b0565b3480156103de575f80fd5b506102bf6103ed366004614a69565b6114c4565b3480156103fd575f80fd5b5060405160128152602001610268565b348015610418575f80fd5b506102bf611b03565b6102bf61042f366004614ba5565b611b6d565b34801561043f575f80fd5b5061031d611b8c565b348015610453575f80fd5b506102bf610462366004614c3a565b611bba565b348015610472575f80fd5b5061031d610481366004614a69565b6001600160a01b03165f9081527f52c63247e1f47db19d5ce0460030c497f067ca4cebf71ba98eeadabe20bace00602052604090205490565b3480156104c5575f80fd5b506102bf611d49565b3480156104d9575f80fd5b5061031d6104e8366004614a14565b611d5a565b3480156104f8575f80fd5b50600254610388906001600160a01b031681565b348015610517575f80fd5b507f9016d09d72d40fdae2fd8ceac6b6234c7706214fd39c1cd1e609a0528c199300546001600160a01b0316610388565b348015610553575f80fd5b506102bf610562366004614ce5565b611d64565b348015610572575f80fd5b5061025b611ebb565b348015610586575f80fd5b506102906105953660046149ea565b611f0c565b3480156105a5575f80fd5b506105ae611f19565b6040516102689190614d60565b3480156105c6575f80fd5b5061031d6105d5366004614a14565b611f24565b3480156105e5575f80fd5b5061025b6040518060400160405280600581526020017f352e302e3000000000000000000000000000000000000000000000000000000081525081565b34801561062d575f80fd5b506102bf61063c366004614a69565b611f8b565b34801561064c575f80fd5b50600354610388906001600160a01b031681565b34801561066b575f80fd5b5061031d61067a366004614d72565b6001600160a01b039182165f9081527f52c63247e1f47db19d5ce0460030c497f067ca4cebf71ba98eeadabe20bace016020908152604080832093909416825291909152205490565b3480156106ce575f80fd5b506102bf6106dd366004614a69565b612283565b3480156106ed575f80fd5b5061031d6122c5565b348015610701575f80fd5b506102bf610710366004614e36565b6122d7565b348015610720575f80fd5b506102bf61072f366004614a69565b612e8d565b34801561073f575f80fd5b506102bf61074e366004614a14565b612ee0565b34801561075e575f80fd5b5061031d61076d366004614f45565b6138fe565b7f52c63247e1f47db19d5ce0460030c497f067ca4cebf71ba98eeadabe20bace0380546060917f52c63247e1f47db19d5ce0460030c497f067ca4cebf71ba98eeadabe20bace00916107c390614f74565b80601f01602080910402602001604051908101604052809291908181526020018280546107ef90614f74565b801561083a5780601f106108115761010080835404028352916020019161083a565b820191905f5260205f20905b81548152906001019060200180831161081d57829003601f168201915b505050505091505090565b5f3361085281858561390b565b60019150505b92915050565b61086661391d565b600254604080517f3b19e84a00000000000000000000000000000000000000000000000000000000815290515f926001600160a01b031691633b19e84a9160048083019260209291908290030181865afa1580156108c6573d5f803e3d5ffd5b505050506040513d601f19601f820116820180604052508101906108ea9190614fbf565b90505f60025f9054906101000a90046001600160a01b03166001600160a01b0316631bf01e9b6040518163ffffffff1660e01b8152600401602060405180830381865afa15801561093d573d5f803e3d5ffd5b505050506040513d601f19601f820116820180604052508101906109619190614fbf565b90505f60025f9054906101000a90046001600160a01b03166001600160a01b03166385462d6f6040518163ffffffff1660e01b8152600401602060405180830381865afa1580156109b4573d5f803e3d5ffd5b505050506040513d601f19601f820116820180604052508101906109d89190614fda565b90505f60025f9054906101000a90046001600160a01b03166001600160a01b0316634f4608a26040518163ffffffff1660e01b8152600401602060405180830381865afa158015610a2b573d5f803e3d5ffd5b505050506040513d601f19601f82011682018060405250810190610a4f9190614fda565b90505f610a5a61399e565b90505f610a857f52c63247e1f47db19d5ce0460030c497f067ca4cebf71ba98eeadabe20bace025490565b90505f81610a93848a61501e565b610a9d9190615035565b90506001600160a01b0386166323b872dd3330610abf64e8d4a5100086615035565b6040517fffffffff0000000000000000000000000000000000000000000000000000000060e086901b1681526001600160a01b03938416600482015292909116602483015260448201526064016020604051808303815f875af1158015610b28573d5f803e3d5ffd5b505050506040513d601f19601f82011682018060405250810190610b4c919061506d565b506040517f70a082310000000000000000000000000000000000000000000000000000000081523360048201525f906001600160a01b038816906370a0823190602401602060405180830381865afa158015610baa573d5f803e3d5ffd5b505050506040513d601f19601f82011682018060405250810190610bce9190614fda565b6040517fdd62ed3e0000000000000000000000000000000000000000000000000000000081523360048201523060248201529091505f906001600160a01b0389169063dd62ed3e90604401602060405180830381865afa158015610c34573d5f803e3d5ffd5b505050506040513d601f19601f82011682018060405250810190610c589190614fda565b90505f8411610cd45760405162461bcd60e51b815260206004820152602260248201527f546f74616c2042414c554e4920737570706c792063616e6e6f74206265207a6560448201527f726f00000000000000000000000000000000000000000000000000000000000060648201526084015b60405180910390fd5b610ce364e8d4a5100084615035565b821015610d325760405162461bcd60e51b815260206004820152601c60248201527f555344432062616c616e636520697320696e73756666696369656e74000000006044820152606401610ccb565b610d4164e8d4a5100084615035565b811015610d905760405162461bcd60e51b815260206004820152601960248201527f436865636b2074686520746f6b656e20616c6c6f77616e6365000000000000006044820152606401610ccb565b610d9a338b613a71565b60408051338152602081018c90527f0f6798a560793a54c3bcfe86a93cde1e73087d944c0ea20544137d4121396885910160405180910390a15f8688610de564e8d4a5100087615035565b610def919061501e565b610df99190615035565b6040517fa9059cbb0000000000000000000000000000000000000000000000000000000081526001600160a01b038c8116600483015260248201839052919250908a169063a9059cbb906044016020604051808303815f875af1158015610e62573d5f803e3d5ffd5b505050506040513d601f19601f82011682018060405250810190610e86919061506d565b5050505050505050505050610eba60017f9b779b17422d0df92223018b32b4d1fa46e071723d6817e2486d003becc55f0055565b50565b5f610ef07ff0c57e16840df040f15088dc2f81fe391c3923bec73e23a9662efc9c229c6a005467ffffffffffffffff1690565b905090565b610efd61391d565b600254604080517f3b19e84a00000000000000000000000000000000000000000000000000000000815290515f926001600160a01b031691633b19e84a9160048083019260209291908290030181865afa158015610f5d573d5f803e3d5ffd5b505050506040513d601f19601f82011682018060405250810190610f819190614fbf565b335f9081527f52c63247e1f47db19d5ce0460030c497f067ca4cebf71ba98eeadabe20bace0060205260409020549091508211156110015760405162461bcd60e51b815260206004820152601060248201527f496e73756666696369656e742042414c000000000000000000000000000000006044820152606401610ccb565b5f61100b83613ae4565b90505f5b6110185f613bf3565b811015611218575f61102a8183613bfc565b90505f6110557f52c63247e1f47db19d5ce0460030c497f067ca4cebf71ba98eeadabe20bace025490565b6040517f70a082310000000000000000000000000000000000000000000000000000000081523060048201529091505f906001600160a01b038416906370a0823190602401602060405180830381865afa1580156110b5573d5f803e3d5ffd5b505050506040513d601f19601f820116820180604052508101906110d99190614fda565b90508015806110f057506001600160a01b03831630145b156110fd57505050611210565b5f836001600160a01b031663313ce5676040518163ffffffff1660e01b8152600401602060405180830381865afa15801561113a573d5f803e3d5ffd5b505050506040513d601f19601f8201168201806040525081019061115e919061508c565b60ff16905061117187610595888b6150ac565b505f61117f84848985613c07565b6040517fa9059cbb000000000000000000000000000000000000000000000000000000008152336004820152602481018290529091506001600160a01b0386169063a9059cbb906044016020604051808303815f875af11580156111e5573d5f803e3d5ffd5b505050506040513d601f19601f82011682018060405250810190611209919061506d565b5050505050505b60010161100f565b506112233382613d13565b60408051338152602081018390527fcc16f5dbb4873280815c1ee09dbd06736cffcc184412cf7a71a0fdb75d397ca5910160405180910390a15050610eba60017f9b779b17422d0df92223018b32b4d1fa46e071723d6817e2486d003becc55f0055565b5f33611294858285613d60565b61129f858585613e32565b60019150505b9392505050565b5f8060025f9054906101000a90046001600160a01b03166001600160a01b031663f5d2d9986040518163ffffffff1660e01b8152600401602060405180830381865afa1580156112fe573d5f803e3d5ffd5b505050506040513d601f19601f820116820180604052508101906113229190614fbf565b6040517f27d54a920000000000000000000000000000000000000000000000000000000081526001600160a01b038581166004830152919250908216906327d54a9290602401602060405180830381865afa158015611383573d5f803e3d5ffd5b505050506040513d601f19601f820116820180604052508101906112a59190614fbf565b5f610ef061399e565b5f8060025f9054906101000a90046001600160a01b03166001600160a01b031663bb3ba04c6040518163ffffffff1660e01b8152600401602060405180830381865afa158015611402573d5f803e3d5ffd5b505050506040513d601f19601f820116820180604052508101906114269190614fbf565b6003546040517fb27b5e750000000000000000000000000000000000000000000000000000000081526001600160a01b03868116600483015291821660248201526044810187905291925082169063b27b5e7590606401602060405180830381865afa158015611498573d5f803e3d5ffd5b505050506040513d601f19601f820116820180604052508101906114bc9190614fda565b949350505050565b600254604080517f1bf01e9b00000000000000000000000000000000000000000000000000000000815290515f926001600160a01b031691631bf01e9b9160048083019260209291908290030181865afa158015611524573d5f803e3d5ffd5b505050506040513d601f19601f820116820180604052508101906115489190614fbf565b90505f60025f9054906101000a90046001600160a01b03166001600160a01b0316636c9c00786040518163ffffffff1660e01b8152600401602060405180830381865afa15801561159b573d5f803e3d5ffd5b505050506040513d601f19601f820116820180604052508101906115bf9190614fbf565b90505f60025f9054906101000a90046001600160a01b03166001600160a01b0316633e6dfa366040518163ffffffff1660e01b8152600401602060405180830381865afa158015611612573d5f803e3d5ffd5b505050506040513d601f19601f820116820180604052508101906116369190614fbf565b90505f60025f9054906101000a90046001600160a01b03166001600160a01b03166382755ebb6040518163ffffffff1660e01b8152600401602060405180830381865afa158015611689573d5f803e3d5ffd5b505050506040513d601f19601f820116820180604052508101906116ad9190614fbf565b6040517f70a082310000000000000000000000000000000000000000000000000000000081523060048201529091505f906001600160a01b038716906370a0823190602401602060405180830381865afa15801561170d573d5f803e3d5ffd5b505050506040513d601f19601f820116820180604052508101906117319190614fda565b6040517f1698ee820000000000000000000000000000000000000000000000000000000081526001600160a01b0388811660048301528781166024830152610bb860448301529192505f91851690631698ee8290606401602060405180830381865afa1580156117a3573d5f803e3d5ffd5b505050506040513d601f19601f820116820180604052508101906117c79190614fbf565b90508115156001600160a01b038216158015906117e15750805b15611961576040517f095ea7b30000000000000000000000000000000000000000000000000000000081526001600160a01b0385811660048301526024820185905289169063095ea7b3906044016020604051808303815f875af115801561184b573d5f803e3d5ffd5b505050506040513d601f19601f8201168201806040525081019061186f919061506d565b506040517f2d6bc8ea0000000000000000000000000000000000000000000000000000000081526001600160a01b0389811660048301528881166024830152604482018590523060648301525f9190861690632d6bc8ea906084016020604051808303815f875af11580156118e6573d5f803e3d5ffd5b505050506040513d601f19601f8201168201806040525081019061190a9190614fda565b90505f811161195b5760405162461bcd60e51b815260206004820152601760248201527f53776170204661696c65642c20547279204275726e28290000000000000000006044820152606401610ccb565b50611af9565b6001600160a01b0382161580156119755750805b15611af9576040517f095ea7b30000000000000000000000000000000000000000000000000000000081526001600160a01b0385811660048301526024820185905289169063095ea7b3906044016020604051808303815f875af11580156119df573d5f803e3d5ffd5b505050506040513d601f19601f82011682018060405250810190611a03919061506d565b506040517f5efaaebb0000000000000000000000000000000000000000000000000000000081526001600160a01b03898116600483015287811660248301528881166044830152606482018590523060848301525f9190861690635efaaebb9060a4016020604051808303815f875af1158015611a82573d5f803e3d5ffd5b505050506040513d601f19601f82011682018060405250810190611aa69190614fda565b90505f8111611af75760405162461bcd60e51b815260206004820152601760248201527f53776170204661696c65642c20547279204275726e28290000000000000000006044820152606401610ccb565b505b5050505050505050565b611b0b61391d565b5f611b155f613bf3565b90505f5b81811015611b40575f611b2c8183613bfc565b9050611b37816114c4565b50600101611b19565b5050611b6b60017f9b779b17422d0df92223018b32b4d1fa46e071723d6817e2486d003becc55f0055565b565b611b75613ec1565b611b7e82613f91565b611b888282613f99565b5050565b5f611b9561409a565b507f360894a13ba1a3210667c828492db98dca3e2076cc3735a920a3ca505d382bbc90565b600254604080517f1bf01e9b00000000000000000000000000000000000000000000000000000000815290515f926001600160a01b031691631bf01e9b9160048083019260209291908290030181865afa158015611c1a573d5f803e3d5ffd5b505050506040513d601f19601f82011682018060405250810190611c3e9190614fbf565b90505f60025f9054906101000a90046001600160a01b03166001600160a01b031663cff49d686040518163ffffffff1660e01b8152600401602060405180830381865afa158015611c91573d5f803e3d5ffd5b505050506040513d601f19601f82011682018060405250810190611cb59190614fbf565b604080515f815260208101918290527ff0bf7714000000000000000000000000000000000000000000000000000000009091529091506001600160a01b03821663f0bf7714611d0f838e8e8e8e8c8f8f8d60248901615144565b5f604051808303815f87803b158015611d26575f80fd5b505af1158015611d38573d5f803e3d5ffd5b505050505050505050505050505050565b611d516140fc565b611b6b5f614170565b5f610858826141f8565b7ff0c57e16840df040f15088dc2f81fe391c3923bec73e23a9662efc9c229c6a00805482919068010000000000000000900460ff1680611db25750805467ffffffffffffffff808416911610155b15611de9576040517ff92ee8a900000000000000000000000000000000000000000000000000000000815260040160405180910390fd5b80546801000000000000000067ffffffffffffffff84167fffffffffffffffffffffffffffffffffffffffffffffff0000000000000000009092168217178255600280547fffffffffffffffffffffffff0000000000000000000000000000000000000000166001600160a01b03871617905581547fffffffffffffffffffffffffffffffffffffffffffffff00ffffffffffffffff1682556040519081527fc7f505b2f371ae2175ee4913f4499e1f2633a7b5936321eed1cdaeb6115181d29060200160405180910390a150505050565b7f52c63247e1f47db19d5ce0460030c497f067ca4cebf71ba98eeadabe20bace0480546060917f52c63247e1f47db19d5ce0460030c497f067ca4cebf71ba98eeadabe20bace00916107c390614f74565b5f33610852818585613e32565b6060610ef05f614293565b5f80611f2e61399e565b90505f611f597f52c63247e1f47db19d5ce0460030c497f067ca4cebf71ba98eeadabe20bace025490565b90505f81611f67848761501e565b611f719190615035565b9050611f8264e8d4a5100082615035565b95945050505050565b7ff0c57e16840df040f15088dc2f81fe391c3923bec73e23a9662efc9c229c6a00805468010000000000000000810460ff16159067ffffffffffffffff165f81158015611fd55750825b90505f8267ffffffffffffffff166001148015611ff15750303b155b905081158015611fff575080155b15612036576040517ff92ee8a900000000000000000000000000000000000000000000000000000000815260040160405180910390fd5b84547fffffffffffffffffffffffffffffffffffffffffffffffff000000000000000016600117855583156120975784547fffffffffffffffffffffffffffffffffffffffffffffff00ffffffffffffffff16680100000000000000001785555b61210b6040518060400160405280600681526020017f42616c756e6900000000000000000000000000000000000000000000000000008152506040518060400160405280600681526020017f42414c554e49000000000000000000000000000000000000000000000000000081525061429f565b612114336142b1565b61211c6142c2565b6121246142d2565b61213630670de0b6b3a7640000613a71565b600280547fffffffffffffffffffffffff0000000000000000000000000000000000000000166001600160a01b038816908117909155604080517f1bf01e9b0000000000000000000000000000000000000000000000000000000081529051631bf01e9b916004808201926020929091908290030181865afa1580156121be573d5f803e3d5ffd5b505050506040513d601f19601f820116820180604052508101906121e29190614fbf565b600380547fffffffffffffffffffffffff0000000000000000000000000000000000000000166001600160a01b0392909216919091179055831561227b5784547fffffffffffffffffffffffffffffffffffffffffffffff00ffffffffffffffff168555604051600181527fc7f505b2f371ae2175ee4913f4499e1f2633a7b5936321eed1cdaeb6115181d29060200160405180910390a15b505050505050565b61228b6140fc565b600280547fffffffffffffffffffffffff0000000000000000000000000000000000000000166001600160a01b0392909216919091179055565b5f610ef0670de0b6b3a76400006141f8565b6122df61391d565b600254604080517ff5d2d99800000000000000000000000000000000000000000000000000000000815290515f926001600160a01b03169163f5d2d9989160048083019260209291908290030181865afa15801561233f573d5f803e3d5ffd5b505050506040513d601f19601f820116820180604052508101906123639190614fbf565b90505f60025f9054906101000a90046001600160a01b03166001600160a01b0316633e6dfa366040518163ffffffff1660e01b8152600401602060405180830381865afa1580156123b6573d5f803e3d5ffd5b505050506040513d601f19601f820116820180604052508101906123da9190614fbf565b90505f60025f9054906101000a90046001600160a01b03166001600160a01b0316636c9c00786040518163ffffffff1660e01b8152600401602060405180830381865afa15801561242d573d5f803e3d5ffd5b505050506040513d601f19601f820116820180604052508101906124519190614fbf565b90505f60025f9054906101000a90046001600160a01b03166001600160a01b0316631bf01e9b6040518163ffffffff1660e01b8152600401602060405180830381865afa1580156124a4573d5f803e3d5ffd5b505050506040513d601f19601f820116820180604052508101906124c89190614fbf565b90506001600160a01b0384166125205760405162461bcd60e51b815260206004820152601560248201527f4167656e7420666163746f7279206e6f742073657400000000000000000000006044820152606401610ccb565b6040517f9b76a5cd0000000000000000000000000000000000000000000000000000000081523360048201525f906001600160a01b03861690639b76a5cd906024016020604051808303815f875af115801561257e573d5f803e3d5ffd5b505050506040513d601f19601f820116820180604052508101906125a29190614fbf565b90505f865167ffffffffffffffff8111156125bf576125bf614ab2565b6040519080825280602002602001820160405280156125e8578160200160208202803683370190505b5090505f875167ffffffffffffffff81111561260657612606614ab2565b60405190808252806020026020018201604052801561262f578160200160208202803683370190505b5090505f5b8851811015612747576126605f8a8381518110612653576126536151f3565b60200260200101516142da565b15838281518110612673576126736151f3565b602002602001019015159081151581525050888181518110612697576126976151f3565b60209081029190910101516040517f70a082310000000000000000000000000000000000000000000000000000000081523060048201526001600160a01b03909116906370a0823190602401602060405180830381865afa1580156126fe573d5f803e3d5ffd5b505050506040513d601f19601f820116820180604052508101906127229190614fda565b828281518110612734576127346151f3565b6020908102919091010152600101612634565b506040517feedc3c500000000000000000000000000000000000000000000000000000000081526001600160a01b0384169063eedc3c509061278f908c908c90600401615220565b5f604051808303815f87803b1580156127a6575f80fd5b505af11580156127b8573d5f803e3d5ffd5b505050505f5b8851811015612e5b575f8982815181106127da576127da6151f3565b60209081029190910101516040517f70a082310000000000000000000000000000000000000000000000000000000081523060048201529091505f906001600160a01b038316906370a0823190602401602060405180830381865afa158015612845573d5f803e3d5ffd5b505050506040513d601f19601f820116820180604052508101906128699190614fda565b6040517f1698ee820000000000000000000000000000000000000000000000000000000081526001600160a01b0384811660048301528a81166024830152610bb860448301529192505f918b1690631698ee8290606401602060405180830381865afa1580156128db573d5f803e3d5ffd5b505050506040513d601f19601f820116820180604052508101906128ff9190614fbf565b6040517f1698ee820000000000000000000000000000000000000000000000000000000081526001600160a01b0385811660048301528b811660248301526101f460448301529192505f918c1690631698ee8290606401602060405180830381865afa158015612971573d5f803e3d5ffd5b505050506040513d601f19601f820116820180604052508101906129959190614fbf565b6040517f1698ee820000000000000000000000000000000000000000000000000000000081526001600160a01b0386811660048301528b811660248301526101f460448301529192505f918d1690631698ee8290606401602060405180830381865afa158015612a07573d5f803e3d5ffd5b505050506040513d601f19601f82011682018060405250810190612a2b9190614fbf565b6040517f1698ee820000000000000000000000000000000000000000000000000000000081526001600160a01b0387811660048301528c81166024830152610bb860448301529192505f918e1690631698ee8290606401602060405180830381865afa158015612a9d573d5f803e3d5ffd5b505050506040513d601f19601f82011682018060405250810190612ac19190614fbf565b90505f6001600160a01b038516151580612ae357506001600160a01b03841615155b80612af657506001600160a01b03821615155b80612b0957506001600160a01b03831615155b9050898881518110612b1d57612b1d6151f3565b60200260200101518015612b2e5750805b15612b3f57612b3d5f886142fb565b505b5f898981518110612b5257612b526151f3565b602002602001015187612b6591906150ac565b905081612c09576040517fa9059cbb000000000000000000000000000000000000000000000000000000008152336004820152602481018290526001600160a01b0389169063a9059cbb906044016020604051808303815f875af1158015612bcf573d5f803e3d5ffd5b505050506040513d601f19601f82011682018060405250810190612bf3919061506d565b5050505050505050505050505050505050612e64565b600254604080517f3b19e84a00000000000000000000000000000000000000000000000000000000815290515f926001600160a01b031691633b19e84a9160048083019260209291908290030181865afa158015612c69573d5f803e3d5ffd5b505050506040513d601f19601f82011682018060405250810190612c8d9190614fbf565b90505f60025f9054906101000a90046001600160a01b03166001600160a01b03166385462d6f6040518163ffffffff1660e01b8152600401602060405180830381865afa158015612ce0573d5f803e3d5ffd5b505050506040513d601f19601f82011682018060405250810190612d049190614fda565b90505f60025f9054906101000a90046001600160a01b03166001600160a01b0316634f4608a26040518163ffffffff1660e01b8152600401602060405180830381865afa158015612d57573d5f803e3d5ffd5b505050506040513d601f19601f82011682018060405250810190612d7b9190614fda565b90508c8c81518110612d8f57612d8f6151f3565b60200260200101518a1115612e44575f81612daa848761501e565b612db49190615035565b6040517fa9059cbb0000000000000000000000000000000000000000000000000000000081526001600160a01b03868116600483015260248201839052919250908d169063a9059cbb906044016020604051808303815f875af1158015612e1d573d5f803e3d5ffd5b505050506040513d601f19601f82011682018060405250810190612e41919061506d565b50505b5050600190990198506127be975050505050505050565b50505050505050505b611b8860017f9b779b17422d0df92223018b32b4d1fa46e071723d6817e2486d003becc55f0055565b612e956140fc565b6001600160a01b038116612ed7576040517f1e4fbdf70000000000000000000000000000000000000000000000000000000081525f6004820152602401610ccb565b610eba81614170565b612ee861391d565b600254604080517f3e6dfa3600000000000000000000000000000000000000000000000000000000815290515f926001600160a01b031691633e6dfa369160048083019260209291908290030181865afa158015612f48573d5f803e3d5ffd5b505050506040513d601f19601f82011682018060405250810190612f6c9190614fbf565b90505f60025f9054906101000a90046001600160a01b03166001600160a01b0316633b19e84a6040518163ffffffff1660e01b8152600401602060405180830381865afa158015612fbf573d5f803e3d5ffd5b505050506040513d601f19601f82011682018060405250810190612fe39190614fbf565b90505f60025f9054906101000a90046001600160a01b03166001600160a01b0316631bf01e9b6040518163ffffffff1660e01b8152600401602060405180830381865afa158015613036573d5f803e3d5ffd5b505050506040513d601f19601f8201168201806040525081019061305a9190614fbf565b90505f60025f9054906101000a90046001600160a01b03166001600160a01b0316636c9c00786040518163ffffffff1660e01b8152600401602060405180830381865afa1580156130ad573d5f803e3d5ffd5b505050506040513d601f19601f820116820180604052508101906130d19190614fbf565b90505f85116131225760405162461bcd60e51b815260206004820152601060248201527f496e73756666696369656e742042414c000000000000000000000000000000006044820152606401610ccb565b5f61312c86613ae4565b90505f5b6131395f613bf3565b81101561388c575f61314b8183613bfc565b90505f6131767f52c63247e1f47db19d5ce0460030c497f067ca4cebf71ba98eeadabe20bace025490565b6040517f70a082310000000000000000000000000000000000000000000000000000000081523060048201529091505f906001600160a01b038416906370a0823190602401602060405180830381865afa1580156131d6573d5f803e3d5ffd5b505050506040513d601f19601f820116820180604052508101906131fa9190614fda565b90508015155f0361320d57505050613884565b306001600160a01b0384160361322557505050613884565b5f836001600160a01b031663313ce5676040518163ffffffff1660e01b8152600401602060405180830381865afa158015613262573d5f803e3d5ffd5b505050506040513d601f19601f82011682018060405250810190613286919061508c565b60ff16905061329989610595888e6150ac565b505f6132a784848985613c07565b9050886001600160a01b0316856001600160a01b031603613354576040517fa9059cbb000000000000000000000000000000000000000000000000000000008152336004820152602481018290526001600160a01b038a169063a9059cbb906044016020604051808303815f875af1158015613325573d5f803e3d5ffd5b505050506040513d601f19601f82011682018060405250810190613349919061506d565b505050505050613884565b6040517f1698ee820000000000000000000000000000000000000000000000000000000081526001600160a01b0386811660048301528a81166024830152610bb860448301525f91908d1690631698ee8290606401602060405180830381865afa1580156133c4573d5f803e3d5ffd5b505050506040513d601f19601f820116820180604052508101906133e89190614fbf565b90505f60025f9054906101000a90046001600160a01b03166001600160a01b03166382755ebb6040518163ffffffff1660e01b8152600401602060405180830381865afa15801561343b573d5f803e3d5ffd5b505050506040513d601f19601f8201168201806040525081019061345f9190614fbf565b90506001600160a01b03821615613674576040517f095ea7b30000000000000000000000000000000000000000000000000000000081526001600160a01b0382811660048301526024820185905288169063095ea7b3906044016020604051808303815f875af11580156134d5573d5f803e3d5ffd5b505050506040513d601f19601f820116820180604052508101906134f9919061506d565b506040517f2d6bc8ea0000000000000000000000000000000000000000000000000000000081526001600160a01b0388811660048301528c81166024830152604482018590523360648301525f9190831690632d6bc8ea906084016020604051808303815f875af1158015613570573d5f803e3d5ffd5b505050506040513d601f19601f820116820180604052508101906135949190614fda565b6040517fa9059cbb000000000000000000000000000000000000000000000000000000008152336004820152602481018290529091506001600160a01b038d169063a9059cbb906044016020604051808303815f875af11580156135fa573d5f803e3d5ffd5b505050506040513d601f19601f8201168201806040525081019061361e919061506d565b505f811161366e5760405162461bcd60e51b815260206004820152601760248201527f53776170204661696c65642c20547279204275726e28290000000000000000006044820152606401610ccb565b5061387c565b6040517f095ea7b30000000000000000000000000000000000000000000000000000000081526001600160a01b0382811660048301526024820185905288169063095ea7b3906044016020604051808303815f875af11580156136d9573d5f803e3d5ffd5b505050506040513d601f19601f820116820180604052508101906136fd919061506d565b506040517f5efaaebb0000000000000000000000000000000000000000000000000000000081526001600160a01b0388811660048301528b811660248301528c81166044830152606482018590523360848301525f9190831690635efaaebb9060a4016020604051808303815f875af115801561377c573d5f803e3d5ffd5b505050506040513d601f19601f820116820180604052508101906137a09190614fda565b6040517fa9059cbb000000000000000000000000000000000000000000000000000000008152336004820152602481018290529091506001600160a01b038d169063a9059cbb906044016020604051808303815f875af1158015613806573d5f803e3d5ffd5b505050506040513d601f19601f8201168201806040525081019061382a919061506d565b505f811161387a5760405162461bcd60e51b815260206004820152601760248201527f53776170204661696c65642c20547279204275726e28290000000000000000006044820152606401610ccb565b505b505050505050505b600101613130565b506138973382613d13565b60408051338152602081018390527fcc16f5dbb4873280815c1ee09dbd06736cffcc184412cf7a71a0fdb75d397ca5910160405180910390a15050505050610eba60017f9b779b17422d0df92223018b32b4d1fa46e071723d6817e2486d003becc55f0055565b5f611f8285858585613c07565b613918838383600161430f565b505050565b7f9b779b17422d0df92223018b32b4d1fa46e071723d6817e2486d003becc55f0080547ffffffffffffffffffffffffffffffffffffffffffffffffffffffffffffffffe01613998576040517f3ee5aeb500000000000000000000000000000000000000000000000000000000815260040160405180910390fd5b60029055565b5f805f5b6139ab5f613bf3565b811015613a6b575f6139bd8183613bfc565b6040517f70a082310000000000000000000000000000000000000000000000000000000081523060048201529091505f906001600160a01b038316906370a0823190602401602060405180830381865afa158015613a1d573d5f803e3d5ffd5b505050506040513d601f19601f82011682018060405250810190613a419190614fda565b90505f613a4e82846113b0565b9050613a5a81866152cb565b945050600190920191506139a29050565b50919050565b6001600160a01b038216613ab3576040517fec442f050000000000000000000000000000000000000000000000000000000081525f6004820152602401610ccb565b611b885f8383614438565b60017f9b779b17422d0df92223018b32b4d1fa46e071723d6817e2486d003becc55f0055565b5f8060025f9054906101000a90046001600160a01b03166001600160a01b03166385462d6f6040518163ffffffff1660e01b8152600401602060405180830381865afa158015613b36573d5f803e3d5ffd5b505050506040513d601f19601f82011682018060405250810190613b5a9190614fda565b90505f60025f9054906101000a90046001600160a01b03166001600160a01b0316634f4608a26040518163ffffffff1660e01b8152600401602060405180830381865afa158015613bad573d5f803e3d5ffd5b505050506040513d601f19601f82011682018060405250810190613bd19190614fda565b90505f81613bdf84826150ac565b613be9908761501e565b611f829190615035565b5f610858825490565b5f6112a5838361459d565b5f808511613c575760405162461bcd60e51b815260206004820152601b60248201527f546f74616c20737570706c792063616e6e6f74206265207a65726f00000000006044820152606401610ccb565b6012821115613ca85760405162461bcd60e51b815260206004820152601e60248201527f546f6b656e20646563696d616c732073686f756c64206265203c3d20313800006044820152606401610ccb565b5f8080613cb68560126150ac565b613cc190600a6153fc565b90506012851015613ce957613cd68189615035565b9250613ce28187615035565b9150613cf0565b8792508591505b5f83613cfc898561501e565b613d069190615035565b9998505050505050505050565b6001600160a01b038216613d55576040517f96c6fd1e0000000000000000000000000000000000000000000000000000000081525f6004820152602401610ccb565b611b88825f83614438565b6001600160a01b038381165f9081527f52c63247e1f47db19d5ce0460030c497f067ca4cebf71ba98eeadabe20bace0160209081526040808320938616835292905220547fffffffffffffffffffffffffffffffffffffffffffffffffffffffffffffffff8114613e2c5781811015613e1e576040517ffb8f41b20000000000000000000000000000000000000000000000000000000081526001600160a01b03841660048201526024810182905260448101839052606401610ccb565b613e2c84848484035f61430f565b50505050565b6001600160a01b038316613e74576040517f96c6fd1e0000000000000000000000000000000000000000000000000000000081525f6004820152602401610ccb565b6001600160a01b038216613eb6576040517fec442f050000000000000000000000000000000000000000000000000000000081525f6004820152602401610ccb565b613918838383614438565b306001600160a01b037f0000000000000000000000000000000000000000000000000000000000000000161480613f5a57507f00000000000000000000000000000000000000000000000000000000000000006001600160a01b0316613f4e7f360894a13ba1a3210667c828492db98dca3e2076cc3735a920a3ca505d382bbc546001600160a01b031690565b6001600160a01b031614155b15611b6b576040517fe07c8dba00000000000000000000000000000000000000000000000000000000815260040160405180910390fd5b610eba6140fc565b816001600160a01b03166352d1902d6040518163ffffffff1660e01b8152600401602060405180830381865afa925050508015613ff3575060408051601f3d908101601f19168201909252613ff091810190614fda565b60015b614034576040517f4c9c8ce30000000000000000000000000000000000000000000000000000000081526001600160a01b0383166004820152602401610ccb565b7f360894a13ba1a3210667c828492db98dca3e2076cc3735a920a3ca505d382bbc8114614090576040517faa1d49a400000000000000000000000000000000000000000000000000000000815260048101829052602401610ccb565b61391883836145c3565b306001600160a01b037f00000000000000000000000000000000000000000000000000000000000000001614611b6b576040517fe07c8dba00000000000000000000000000000000000000000000000000000000815260040160405180910390fd5b3361412e7f9016d09d72d40fdae2fd8ceac6b6234c7706214fd39c1cd1e609a0528c199300546001600160a01b031690565b6001600160a01b031614611b6b576040517f118cdaa7000000000000000000000000000000000000000000000000000000008152336004820152602401610ccb565b7f9016d09d72d40fdae2fd8ceac6b6234c7706214fd39c1cd1e609a0528c19930080547fffffffffffffffffffffffff000000000000000000000000000000000000000081166001600160a01b03848116918217845560405192169182907f8be0079c531659141344cd1fd0a4f28419497f9722a3daafe3b4186f6b6457e0905f90a3505050565b5f806142227f52c63247e1f47db19d5ce0460030c497f067ca4cebf71ba98eeadabe20bace025490565b90505f81116142735760405162461bcd60e51b815260206004820152601b60248201527f546f74616c20737570706c792063616e6e6f74206265207a65726f00000000006044820152606401610ccb565b5f61427c61399e565b905081614289828661501e565b6114bc9190615035565b60605f6112a583614618565b6142a7614671565b611b8882826146d8565b6142b9614671565b610eba8161473b565b6142ca614671565b611b6b614743565b611b6b614671565b6001600160a01b0381165f90815260018301602052604081205415156112a5565b5f6112a5836001600160a01b03841661474b565b7f52c63247e1f47db19d5ce0460030c497f067ca4cebf71ba98eeadabe20bace006001600160a01b038516614372576040517fe602df050000000000000000000000000000000000000000000000000000000081525f6004820152602401610ccb565b6001600160a01b0384166143b4576040517f94280d620000000000000000000000000000000000000000000000000000000081525f6004820152602401610ccb565b6001600160a01b038086165f9081526001830160209081526040808320938816835292905220839055811561443157836001600160a01b0316856001600160a01b03167f8c5be1e5ebec7d5bd14f71427d1e84f3dd0314c0f7b2291e5b200ac8c7c3b9258560405161442891815260200190565b60405180910390a35b5050505050565b7f52c63247e1f47db19d5ce0460030c497f067ca4cebf71ba98eeadabe20bace006001600160a01b0384166144855781816002015f82825461447a91906152cb565b9091555061450e9050565b6001600160a01b0384165f90815260208290526040902054828110156144f0576040517fe450d38c0000000000000000000000000000000000000000000000000000000081526001600160a01b03861660048201526024810182905260448101849052606401610ccb565b6001600160a01b0385165f9081526020839052604090209083900390555b6001600160a01b03831661452c57600281018054839003905561454a565b6001600160a01b0383165f9081526020829052604090208054830190555b826001600160a01b0316846001600160a01b03167fddf252ad1be2c89b69c2b068fc378daa952ba7f163c4a11628f55a4df523b3ef8460405161458f91815260200190565b60405180910390a350505050565b5f825f0182815481106145b2576145b26151f3565b905f5260205f200154905092915050565b6145cc82614797565b6040516001600160a01b038316907fbc7cd75a20ee27fd9adebab32041f755214dbc6bffa90cc0225b39da2e5c2d3b905f90a280511561461057613918828261483e565b611b886148a7565b6060815f0180548060200260200160405190810160405280929190818152602001828054801561466557602002820191905f5260205f20905b815481526020019060010190808311614651575b50505050509050919050565b7ff0c57e16840df040f15088dc2f81fe391c3923bec73e23a9662efc9c229c6a005468010000000000000000900460ff16611b6b576040517fd7e6bcf800000000000000000000000000000000000000000000000000000000815260040160405180910390fd5b6146e0614671565b7f52c63247e1f47db19d5ce0460030c497f067ca4cebf71ba98eeadabe20bace007f52c63247e1f47db19d5ce0460030c497f067ca4cebf71ba98eeadabe20bace0361472c848261544b565b5060048101613e2c838261544b565b612e95614671565b613abe614671565b5f81815260018301602052604081205461479057508154600181810184555f848152602080822090930184905584548482528286019093526040902091909155610858565b505f610858565b806001600160a01b03163b5f036147e5576040517f4c9c8ce30000000000000000000000000000000000000000000000000000000081526001600160a01b0382166004820152602401610ccb565b7f360894a13ba1a3210667c828492db98dca3e2076cc3735a920a3ca505d382bbc80547fffffffffffffffffffffffff0000000000000000000000000000000000000000166001600160a01b0392909216919091179055565b60605f80846001600160a01b03168460405161485a9190615545565b5f60405180830381855af49150503d805f8114614892576040519150601f19603f3d011682016040523d82523d5f602084013e614897565b606091505b5091509150611f828583836148df565b3415611b6b576040517fb398979f00000000000000000000000000000000000000000000000000000000815260040160405180910390fd5b6060826148f4576148ef82614954565b6112a5565b815115801561490b57506001600160a01b0384163b155b1561494d576040517f9996b3150000000000000000000000000000000000000000000000000000000081526001600160a01b0385166004820152602401610ccb565b50806112a5565b8051156149645780518082602001fd5b6040517f1425ea4200000000000000000000000000000000000000000000000000000000815260040160405180910390fd5b5f81518084528060208401602086015e5f602082860101526020601f19601f83011685010191505092915050565b602081525f6112a56020830184614996565b6001600160a01b0381168114610eba575f80fd5b5f80604083850312156149fb575f80fd5b8235614a06816149d6565b946020939093013593505050565b5f60208284031215614a24575f80fd5b5035919050565b5f805f60608486031215614a3d575f80fd5b8335614a48816149d6565b92506020840135614a58816149d6565b929592945050506040919091013590565b5f60208284031215614a79575f80fd5b81356112a5816149d6565b5f8060408385031215614a95575f80fd5b823591506020830135614aa7816149d6565b809150509250929050565b7f4e487b71000000000000000000000000000000000000000000000000000000005f52604160045260245ffd5b6040516060810167ffffffffffffffff81118282101715614b0257614b02614ab2565b60405290565b604051601f8201601f1916810167ffffffffffffffff81118282101715614b3157614b31614ab2565b604052919050565b5f82601f830112614b48575f80fd5b813567ffffffffffffffff811115614b6257614b62614ab2565b614b756020601f19601f84011601614b08565b818152846020838601011115614b89575f80fd5b816020850160208301375f918101602001919091529392505050565b5f8060408385031215614bb6575f80fd5b8235614bc1816149d6565b9150602083013567ffffffffffffffff811115614bdc575f80fd5b614be885828601614b39565b9150509250929050565b5f8083601f840112614c02575f80fd5b50813567ffffffffffffffff811115614c19575f80fd5b6020830191508360208260051b8501011115614c33575f80fd5b9250929050565b5f805f805f805f8060c0898b031215614c51575f80fd5b883567ffffffffffffffff80821115614c68575f80fd5b614c748c838d01614bf2565b909a50985060208b0135915080821115614c8c575f80fd5b50614c998b828c01614bf2565b9097509550506040890135614cad816149d6565b93506060890135614cbd816149d6565b92506080890135915060a0890135614cd4816149d6565b809150509295985092959890939650565b5f8060408385031215614cf6575f80fd5b8235614d01816149d6565b9150602083013567ffffffffffffffff81168114614aa7575f80fd5b5f815180845260208085019450602084015f5b83811015614d555781516001600160a01b031687529582019590820190600101614d30565b509495945050505050565b602081525f6112a56020830184614d1d565b5f8060408385031215614d83575f80fd5b8235614d8e816149d6565b91506020830135614aa7816149d6565b5f67ffffffffffffffff821115614db757614db7614ab2565b5060051b60200190565b5f82601f830112614dd0575f80fd5b81356020614de5614de083614d9e565b614b08565b8083825260208201915060208460051b870101935086841115614e06575f80fd5b602086015b84811015614e2b578035614e1e816149d6565b8352918301918301614e0b565b509695505050505050565b5f8060408385031215614e47575f80fd5b823567ffffffffffffffff80821115614e5e575f80fd5b818501915085601f830112614e71575f80fd5b81356020614e81614de083614d9e565b82815260059290921b84018101918181019089841115614e9f575f80fd5b8286015b84811015614f2257803586811115614eb9575f80fd5b87016060818d03601f1901811315614ecf575f80fd5b614ed7614adf565b86830135614ee4816149d6565b8152604083013587820152908201359088821115614f00575f80fd5b614f0e8e8884860101614b39565b604082015285525050918301918301614ea3565b5096505086013592505080821115614f38575f80fd5b50614be885828601614dc1565b5f805f8060808587031215614f58575f80fd5b5050823594602084013594506040840135936060013592509050565b600181811c90821680614f8857607f821691505b602082108103613a6b577f4e487b71000000000000000000000000000000000000000000000000000000005f52602260045260245ffd5b5f60208284031215614fcf575f80fd5b81516112a5816149d6565b5f60208284031215614fea575f80fd5b5051919050565b7f4e487b71000000000000000000000000000000000000000000000000000000005f52601160045260245ffd5b808202811582820484141761085857610858614ff1565b5f82615068577f4e487b71000000000000000000000000000000000000000000000000000000005f52601260045260245ffd5b500490565b5f6020828403121561507d575f80fd5b815180151581146112a5575f80fd5b5f6020828403121561509c575f80fd5b815160ff811681146112a5575f80fd5b8181038181111561085857610858614ff1565b8183525f60208085019450825f5b85811015614d555781356150e0816149d6565b6001600160a01b0316875295820195908201906001016150cd565b8183525f7f07ffffffffffffffffffffffffffffffffffffffffffffffffffffffffffffff83111561512b575f80fd5b8260051b80836020870137939093016020019392505050565b60e08082528a519082018190525f90602090610100840190828e01845b8281101561517d57815184529284019290840190600101615161565b5050508381036020850152615193818c8e6150bf565b91505082810360408401526151a981898b6150fb565b9150508560608301526151c760808301866001600160a01b03169052565b6001600160a01b03841660a08301526001600160a01b03831660c08301529a9950505050505050505050565b7f4e487b71000000000000000000000000000000000000000000000000000000005f52603260045260245ffd5b5f6040808301604084528086518083526060925060608601915060608160051b8701016020808a015f5b848110156152b8578984037fffffffffffffffffffffffffffffffffffffffffffffffffffffffffffffffa0018652815180516001600160a01b0316855283810151848601528801518885018890526152a588860182614996565b968401969450509082019060010161524a565b505087820390880152613d068189614d1d565b8082018082111561085857610858614ff1565b600181815b8085111561533757817fffffffffffffffffffffffffffffffffffffffffffffffffffffffffffffffff0482111561531d5761531d614ff1565b8085161561532a57918102915b93841c93908002906152e3565b509250929050565b5f8261534d57506001610858565b8161535957505f610858565b816001811461536f576002811461537957615395565b6001915050610858565b60ff84111561538a5761538a614ff1565b50506001821b610858565b5060208310610133831016604e8410600b84101617156153b8575081810a610858565b6153c283836152de565b807fffffffffffffffffffffffffffffffffffffffffffffffffffffffffffffffff048211156153f4576153f4614ff1565b029392505050565b5f6112a5838361533f565b601f82111561391857805f5260205f20601f840160051c8101602085101561542c5750805b601f840160051c820191505b81811015614431575f8155600101615438565b815167ffffffffffffffff81111561546557615465614ab2565b615479816154738454614f74565b84615407565b602080601f8311600181146154cb575f84156154955750858301515b7fffffffffffffffffffffffffffffffffffffffffffffffffffffffffffffffff600386901b1c1916600185901b17855561227b565b5f85815260208120601f198616915b828110156154f9578886015182559484019460019091019084016154da565b508582101561553557878501517fffffffffffffffffffffffffffffffffffffffffffffffffffffffffffffffff600388901b60f8161c191681555b5050505050600190811b01905550565b5f82518060208501845e5f92019182525091905056fea264697066735822122038f85a9910bc7e31d3f08ddf866be512d3ab77ac24ceb2e234ecaf77cfa3bb0a64736f6c63430008190033",
  "linkReferences": {},
  "deployedLinkReferences": {}
}