{
  "_format": "hh-sol-artifact-1",
  "contractName": "BaluniV1Router",
  "sourceName": "contracts/BaluniV1Router.sol",
  "abi": [
    {
      "inputs": [
        {
          "internalType": "address",
          "name": "target",
          "type": "address"
        }
      ],
      "name": "AddressEmptyCode",
      "type": "error"
    },
    {
      "inputs": [
        {
          "internalType": "address",
          "name": "implementation",
          "type": "address"
        }
      ],
      "name": "ERC1967InvalidImplementation",
      "type": "error"
    },
    {
      "inputs": [],
      "name": "ERC1967NonPayable",
      "type": "error"
    },
    {
      "inputs": [
        {
          "internalType": "address",
          "name": "spender",
          "type": "address"
        },
        {
          "internalType": "uint256",
          "name": "allowance",
          "type": "uint256"
        },
        {
          "internalType": "uint256",
          "name": "needed",
          "type": "uint256"
        }
      ],
      "name": "ERC20InsufficientAllowance",
      "type": "error"
    },
    {
      "inputs": [
        {
          "internalType": "address",
          "name": "sender",
          "type": "address"
        },
        {
          "internalType": "uint256",
          "name": "balance",
          "type": "uint256"
        },
        {
          "internalType": "uint256",
          "name": "needed",
          "type": "uint256"
        }
      ],
      "name": "ERC20InsufficientBalance",
      "type": "error"
    },
    {
      "inputs": [
        {
          "internalType": "address",
          "name": "approver",
          "type": "address"
        }
      ],
      "name": "ERC20InvalidApprover",
      "type": "error"
    },
    {
      "inputs": [
        {
          "internalType": "address",
          "name": "receiver",
          "type": "address"
        }
      ],
      "name": "ERC20InvalidReceiver",
      "type": "error"
    },
    {
      "inputs": [
        {
          "internalType": "address",
          "name": "sender",
          "type": "address"
        }
      ],
      "name": "ERC20InvalidSender",
      "type": "error"
    },
    {
      "inputs": [
        {
          "internalType": "address",
          "name": "spender",
          "type": "address"
        }
      ],
      "name": "ERC20InvalidSpender",
      "type": "error"
    },
    {
      "inputs": [],
      "name": "FailedInnerCall",
      "type": "error"
    },
    {
      "inputs": [],
      "name": "InvalidInitialization",
      "type": "error"
    },
    {
      "inputs": [],
      "name": "NotInitializing",
      "type": "error"
    },
    {
      "inputs": [
        {
          "internalType": "address",
          "name": "owner",
          "type": "address"
        }
      ],
      "name": "OwnableInvalidOwner",
      "type": "error"
    },
    {
      "inputs": [
        {
          "internalType": "address",
          "name": "account",
          "type": "address"
        }
      ],
      "name": "OwnableUnauthorizedAccount",
      "type": "error"
    },
    {
      "inputs": [],
      "name": "ReentrancyGuardReentrantCall",
      "type": "error"
    },
    {
      "inputs": [],
      "name": "UUPSUnauthorizedCallContext",
      "type": "error"
    },
    {
      "inputs": [
        {
          "internalType": "bytes32",
          "name": "slot",
          "type": "bytes32"
        }
      ],
      "name": "UUPSUnsupportedProxiableUUID",
      "type": "error"
    },
    {
      "anonymous": false,
      "inputs": [
        {
          "indexed": true,
          "internalType": "address",
          "name": "owner",
          "type": "address"
        },
        {
          "indexed": true,
          "internalType": "address",
          "name": "spender",
          "type": "address"
        },
        {
          "indexed": false,
          "internalType": "uint256",
          "name": "value",
          "type": "uint256"
        }
      ],
      "name": "Approval",
      "type": "event"
    },
    {
      "anonymous": false,
      "inputs": [
        {
          "indexed": false,
          "internalType": "address",
          "name": "user",
          "type": "address"
        },
        {
          "indexed": false,
          "internalType": "uint256",
          "name": "value",
          "type": "uint256"
        }
      ],
      "name": "Burn",
      "type": "event"
    },
    {
      "anonymous": false,
      "inputs": [
        {
          "indexed": false,
          "internalType": "uint256",
          "name": "newFee",
          "type": "uint256"
        }
      ],
      "name": "ChangeBpsFee",
      "type": "event"
    },
    {
      "anonymous": false,
      "inputs": [
        {
          "indexed": false,
          "internalType": "address",
          "name": "pool",
          "type": "address"
        }
      ],
      "name": "ChangeRewardPool",
      "type": "event"
    },
    {
      "anonymous": false,
      "inputs": [
        {
          "indexed": false,
          "internalType": "address",
          "name": "user",
          "type": "address"
        },
        {
          "components": [
            {
              "internalType": "address",
              "name": "to",
              "type": "address"
            },
            {
              "internalType": "uint256",
              "name": "value",
              "type": "uint256"
            },
            {
              "internalType": "bytes",
              "name": "data",
              "type": "bytes"
            }
          ],
          "indexed": false,
          "internalType": "struct IBaluniV1Agent.Call[]",
          "name": "calls",
          "type": "tuple[]"
        },
        {
          "indexed": false,
          "internalType": "address[]",
          "name": "tokensReturn",
          "type": "address[]"
        }
      ],
      "name": "Execute",
      "type": "event"
    },
    {
      "anonymous": false,
      "inputs": [
        {
          "indexed": false,
          "internalType": "uint64",
          "name": "version",
          "type": "uint64"
        }
      ],
      "name": "Initialized",
      "type": "event"
    },
    {
      "anonymous": false,
      "inputs": [
        {
          "indexed": false,
          "internalType": "string",
          "name": "message",
          "type": "string"
        },
        {
          "indexed": false,
          "internalType": "uint256",
          "name": "value",
          "type": "uint256"
        }
      ],
      "name": "Log",
      "type": "event"
    },
    {
      "anonymous": false,
      "inputs": [
        {
          "indexed": false,
          "internalType": "address",
          "name": "user",
          "type": "address"
        },
        {
          "indexed": false,
          "internalType": "uint256",
          "name": "value",
          "type": "uint256"
        }
      ],
      "name": "Mint",
      "type": "event"
    },
    {
      "anonymous": false,
      "inputs": [
        {
          "indexed": true,
          "internalType": "address",
          "name": "previousOwner",
          "type": "address"
        },
        {
          "indexed": true,
          "internalType": "address",
          "name": "newOwner",
          "type": "address"
        }
      ],
      "name": "OwnershipTransferred",
      "type": "event"
    },
    {
      "anonymous": false,
      "inputs": [
        {
          "indexed": true,
          "internalType": "address",
          "name": "from",
          "type": "address"
        },
        {
          "indexed": true,
          "internalType": "address",
          "name": "to",
          "type": "address"
        },
        {
          "indexed": false,
          "internalType": "uint256",
          "name": "value",
          "type": "uint256"
        }
      ],
      "name": "Transfer",
      "type": "event"
    },
    {
      "anonymous": false,
      "inputs": [
        {
          "indexed": true,
          "internalType": "address",
          "name": "implementation",
          "type": "address"
        }
      ],
      "name": "Upgraded",
      "type": "event"
    },
    {
      "inputs": [],
      "name": "UPGRADE_INTERFACE_VERSION",
      "outputs": [
        {
          "internalType": "string",
          "name": "",
          "type": "string"
        }
      ],
      "stateMutability": "view",
      "type": "function"
    },
    {
      "inputs": [],
      "name": "_BPS_BASE",
      "outputs": [
        {
          "internalType": "uint256",
          "name": "",
          "type": "uint256"
        }
      ],
      "stateMutability": "view",
      "type": "function"
    },
    {
      "inputs": [],
      "name": "_BPS_FEE",
      "outputs": [
        {
          "internalType": "uint256",
          "name": "",
          "type": "uint256"
        }
      ],
      "stateMutability": "view",
      "type": "function"
    },
    {
      "inputs": [],
      "name": "_MAX_BPS_FEE",
      "outputs": [
        {
          "internalType": "uint256",
          "name": "",
          "type": "uint256"
        }
      ],
      "stateMutability": "view",
      "type": "function"
    },
    {
      "inputs": [],
      "name": "agentFactory",
      "outputs": [
        {
          "internalType": "contract IBaluniV1AgentFactory",
          "name": "",
          "type": "address"
        }
      ],
      "stateMutability": "view",
      "type": "function"
    },
    {
      "inputs": [
        {
          "internalType": "address",
          "name": "owner",
          "type": "address"
        },
        {
          "internalType": "address",
          "name": "spender",
          "type": "address"
        }
      ],
      "name": "allowance",
      "outputs": [
        {
          "internalType": "uint256",
          "name": "",
          "type": "uint256"
        }
      ],
      "stateMutability": "view",
      "type": "function"
    },
    {
      "inputs": [
        {
          "internalType": "address",
          "name": "spender",
          "type": "address"
        },
        {
          "internalType": "uint256",
          "name": "value",
          "type": "uint256"
        }
      ],
      "name": "approve",
      "outputs": [
        {
          "internalType": "bool",
          "name": "",
          "type": "bool"
        }
      ],
      "stateMutability": "nonpayable",
      "type": "function"
    },
    {
      "inputs": [
        {
          "internalType": "address",
          "name": "account",
          "type": "address"
        }
      ],
      "name": "balanceOf",
      "outputs": [
        {
          "internalType": "uint256",
          "name": "",
          "type": "uint256"
        }
      ],
      "stateMutability": "view",
      "type": "function"
    },
    {
      "inputs": [
        {
          "internalType": "uint256",
          "name": "burnAmount",
          "type": "uint256"
        }
      ],
      "name": "burnERC20",
      "outputs": [],
      "stateMutability": "nonpayable",
      "type": "function"
    },
    {
      "inputs": [
        {
          "internalType": "uint256",
          "name": "burnAmount",
          "type": "uint256"
        }
      ],
      "name": "burnUSDC",
      "outputs": [],
      "stateMutability": "nonpayable",
      "type": "function"
    },
    {
      "inputs": [
        {
          "internalType": "uint256",
          "name": "totalBaluni",
          "type": "uint256"
        },
        {
          "internalType": "uint256",
          "name": "totalERC20Balance",
          "type": "uint256"
        },
        {
          "internalType": "uint256",
          "name": "baluniAmount",
          "type": "uint256"
        },
        {
          "internalType": "uint256",
          "name": "tokenDecimals",
          "type": "uint256"
        }
      ],
      "name": "calculateTokenShare",
      "outputs": [
        {
          "internalType": "uint256",
          "name": "",
          "type": "uint256"
        }
      ],
      "stateMutability": "pure",
      "type": "function"
    },
    {
      "inputs": [
        {
          "internalType": "address[]",
          "name": "assets",
          "type": "address[]"
        },
        {
          "internalType": "uint256[]",
          "name": "weights",
          "type": "uint256[]"
        },
        {
          "internalType": "address",
          "name": "sender",
          "type": "address"
        },
        {
          "internalType": "address",
          "name": "receiver",
          "type": "address"
        },
        {
          "internalType": "uint256",
          "name": "limit",
          "type": "uint256"
        }
      ],
      "name": "callRebalance",
      "outputs": [],
      "stateMutability": "nonpayable",
      "type": "function"
    },
    {
      "inputs": [
        {
          "internalType": "address",
          "name": "_agentFactory",
          "type": "address"
        }
      ],
      "name": "changeAgentFactory",
      "outputs": [],
      "stateMutability": "nonpayable",
      "type": "function"
    },
    {
      "inputs": [
        {
          "internalType": "uint256",
          "name": "_newFee",
          "type": "uint256"
        }
      ],
      "name": "changeBpsFee",
      "outputs": [],
      "stateMutability": "nonpayable",
      "type": "function"
    },
    {
      "inputs": [
        {
          "internalType": "address",
          "name": "_marketOracle",
          "type": "address"
        }
      ],
      "name": "changeMarketOracle",
      "outputs": [],
      "stateMutability": "nonpayable",
      "type": "function"
    },
    {
      "inputs": [
        {
          "internalType": "address",
          "name": "_newRebalancer",
          "type": "address"
        }
      ],
      "name": "changeRebalancer",
      "outputs": [],
      "stateMutability": "nonpayable",
      "type": "function"
    },
    {
      "inputs": [
        {
          "internalType": "address",
          "name": "_newTreasury",
          "type": "address"
        }
      ],
      "name": "changeTreasury",
      "outputs": [],
      "stateMutability": "nonpayable",
      "type": "function"
    },
    {
      "inputs": [],
      "name": "decimals",
      "outputs": [
        {
          "internalType": "uint8",
          "name": "",
          "type": "uint8"
        }
      ],
      "stateMutability": "view",
      "type": "function"
    },
    {
      "inputs": [
        {
          "components": [
            {
              "internalType": "address",
              "name": "to",
              "type": "address"
            },
            {
              "internalType": "uint256",
              "name": "value",
              "type": "uint256"
            },
            {
              "internalType": "bytes",
              "name": "data",
              "type": "bytes"
            }
          ],
          "internalType": "struct IBaluniV1Agent.Call[]",
          "name": "calls",
          "type": "tuple[]"
        },
        {
          "internalType": "address[]",
          "name": "tokensReturn",
          "type": "address[]"
        }
      ],
      "name": "execute",
      "outputs": [],
      "stateMutability": "nonpayable",
      "type": "function"
    },
    {
      "inputs": [],
      "name": "fetchMarketPrices",
      "outputs": [
        {
          "internalType": "uint256",
          "name": "",
          "type": "uint256"
        },
        {
          "internalType": "uint256",
          "name": "",
          "type": "uint256"
        }
      ],
      "stateMutability": "view",
      "type": "function"
    },
    {
      "inputs": [
        {
          "internalType": "address",
          "name": "_user",
          "type": "address"
        }
      ],
      "name": "getAgentAddress",
      "outputs": [
        {
          "internalType": "address",
          "name": "",
          "type": "address"
        }
      ],
      "stateMutability": "view",
      "type": "function"
    },
    {
      "inputs": [],
      "name": "getBpsFee",
      "outputs": [
        {
          "internalType": "uint256",
          "name": "",
          "type": "uint256"
        }
      ],
      "stateMutability": "view",
      "type": "function"
    },
    {
      "inputs": [],
      "name": "getTreasury",
      "outputs": [
        {
          "internalType": "address",
          "name": "",
          "type": "address"
        }
      ],
      "stateMutability": "view",
      "type": "function"
    },
    {
      "inputs": [
        {
          "internalType": "uint256",
          "name": "amount",
          "type": "uint256"
        }
      ],
      "name": "getUSDCShareValue",
      "outputs": [
        {
          "internalType": "uint256",
          "name": "",
          "type": "uint256"
        }
      ],
      "stateMutability": "view",
      "type": "function"
    },
    {
      "inputs": [],
      "name": "getUnitPrice",
      "outputs": [
        {
          "internalType": "uint256",
          "name": "",
          "type": "uint256"
        }
      ],
      "stateMutability": "view",
      "type": "function"
    },
    {
      "inputs": [],
      "name": "getVersion",
      "outputs": [
        {
          "internalType": "uint64",
          "name": "",
          "type": "uint64"
        }
      ],
      "stateMutability": "view",
      "type": "function"
    },
    {
      "inputs": [
        {
          "internalType": "string",
          "name": "name",
          "type": "string"
        },
        {
          "internalType": "string",
          "name": "symbol",
          "type": "string"
        }
      ],
      "name": "initialize",
      "outputs": [],
      "stateMutability": "nonpayable",
      "type": "function"
    },
    {
      "inputs": [
        {
          "internalType": "address",
          "name": "_usdc",
          "type": "address"
        },
        {
          "internalType": "address",
          "name": "_wnative",
          "type": "address"
        },
        {
          "internalType": "address",
          "name": "_1inchSpotAgg",
          "type": "address"
        },
        {
          "internalType": "address",
          "name": "_uniRouter",
          "type": "address"
        },
        {
          "internalType": "address",
          "name": "_uniFactory",
          "type": "address"
        },
        {
          "internalType": "address",
          "name": "_rebalancer",
          "type": "address"
        }
      ],
      "name": "initialize",
      "outputs": [],
      "stateMutability": "nonpayable",
      "type": "function"
    },
    {
      "inputs": [
        {
          "internalType": "address",
          "name": "_marketOracle",
          "type": "address"
        }
      ],
      "name": "initializeMarketOracle",
      "outputs": [],
      "stateMutability": "nonpayable",
      "type": "function"
    },
    {
      "inputs": [
        {
          "internalType": "address",
          "name": "token",
          "type": "address"
        }
      ],
      "name": "liquidate",
      "outputs": [],
      "stateMutability": "nonpayable",
      "type": "function"
    },
    {
      "inputs": [],
      "name": "liquidateAll",
      "outputs": [],
      "stateMutability": "nonpayable",
      "type": "function"
    },
    {
      "inputs": [],
      "name": "listAllTokens",
      "outputs": [
        {
          "internalType": "address[]",
          "name": "",
          "type": "address[]"
        }
      ],
      "stateMutability": "view",
      "type": "function"
    },
    {
      "inputs": [],
      "name": "marketOracle",
      "outputs": [
        {
          "internalType": "contract IBaluniV1MarketOracle",
          "name": "",
          "type": "address"
        }
      ],
      "stateMutability": "view",
      "type": "function"
    },
    {
      "inputs": [
        {
          "internalType": "uint256",
          "name": "balAmountToMint",
          "type": "uint256"
        }
      ],
      "name": "mintWithUSDC",
      "outputs": [],
      "stateMutability": "nonpayable",
      "type": "function"
    },
    {
      "inputs": [],
      "name": "name",
      "outputs": [
        {
          "internalType": "string",
          "name": "",
          "type": "string"
        }
      ],
      "stateMutability": "view",
      "type": "function"
    },
    {
      "inputs": [],
      "name": "owner",
      "outputs": [
        {
          "internalType": "address",
          "name": "",
          "type": "address"
        }
      ],
      "stateMutability": "view",
      "type": "function"
    },
    {
      "inputs": [],
      "name": "proxiableUUID",
      "outputs": [
        {
          "internalType": "bytes32",
          "name": "",
          "type": "bytes32"
        }
      ],
      "stateMutability": "view",
      "type": "function"
    },
    {
      "inputs": [],
      "name": "rebalancer",
      "outputs": [
        {
          "internalType": "contract IBaluniV1Rebalancer",
          "name": "",
          "type": "address"
        }
      ],
      "stateMutability": "view",
      "type": "function"
    },
    {
      "inputs": [
        {
          "internalType": "address",
          "name": "_usdc",
          "type": "address"
        },
        {
          "internalType": "address",
          "name": "_wnative",
          "type": "address"
        },
        {
          "internalType": "address",
          "name": "_1inchSpotAgg",
          "type": "address"
        },
        {
          "internalType": "address",
          "name": "_uniRouter",
          "type": "address"
        },
        {
          "internalType": "address",
          "name": "_uniFactory",
          "type": "address"
        },
        {
          "internalType": "address",
          "name": "_rebalancer",
          "type": "address"
        },
        {
          "internalType": "uint64",
          "name": "version",
          "type": "uint64"
        }
      ],
      "name": "reinitialize",
      "outputs": [],
      "stateMutability": "nonpayable",
      "type": "function"
    },
    {
      "inputs": [],
      "name": "renounceOwnership",
      "outputs": [],
      "stateMutability": "nonpayable",
      "type": "function"
    },
    {
      "inputs": [
        {
          "internalType": "uint256",
          "name": "balAmountToMint",
          "type": "uint256"
        }
      ],
      "name": "requiredUSDCtoMint",
      "outputs": [
        {
          "internalType": "uint256",
          "name": "",
          "type": "uint256"
        }
      ],
      "stateMutability": "view",
      "type": "function"
    },
    {
      "inputs": [],
      "name": "symbol",
      "outputs": [
        {
          "internalType": "string",
          "name": "",
          "type": "string"
        }
      ],
      "stateMutability": "view",
      "type": "function"
    },
    {
      "inputs": [
        {
          "internalType": "uint256",
          "name": "amount",
          "type": "uint256"
        },
        {
          "internalType": "address",
          "name": "token",
          "type": "address"
        }
      ],
      "name": "tokenValuation",
      "outputs": [
        {
          "internalType": "uint256",
          "name": "",
          "type": "uint256"
        }
      ],
      "stateMutability": "view",
      "type": "function"
    },
    {
      "inputs": [],
      "name": "totalSupply",
      "outputs": [
        {
          "internalType": "uint256",
          "name": "",
          "type": "uint256"
        }
      ],
      "stateMutability": "view",
      "type": "function"
    },
    {
      "inputs": [],
      "name": "totalValuation",
      "outputs": [
        {
          "internalType": "uint256",
          "name": "",
          "type": "uint256"
        }
      ],
      "stateMutability": "view",
      "type": "function"
    },
    {
      "inputs": [
        {
          "internalType": "address",
          "name": "to",
          "type": "address"
        },
        {
          "internalType": "uint256",
          "name": "value",
          "type": "uint256"
        }
      ],
      "name": "transfer",
      "outputs": [
        {
          "internalType": "bool",
          "name": "",
          "type": "bool"
        }
      ],
      "stateMutability": "nonpayable",
      "type": "function"
    },
    {
      "inputs": [
        {
          "internalType": "address",
          "name": "from",
          "type": "address"
        },
        {
          "internalType": "address",
          "name": "to",
          "type": "address"
        },
        {
          "internalType": "uint256",
          "name": "value",
          "type": "uint256"
        }
      ],
      "name": "transferFrom",
      "outputs": [
        {
          "internalType": "bool",
          "name": "",
          "type": "bool"
        }
      ],
      "stateMutability": "nonpayable",
      "type": "function"
    },
    {
      "inputs": [
        {
          "internalType": "address",
          "name": "newOwner",
          "type": "address"
        }
      ],
      "name": "transferOwnership",
      "outputs": [],
      "stateMutability": "nonpayable",
      "type": "function"
    },
    {
      "inputs": [],
      "name": "treasury",
      "outputs": [
        {
          "internalType": "address",
          "name": "",
          "type": "address"
        }
      ],
      "stateMutability": "view",
      "type": "function"
    },
    {
      "inputs": [
        {
          "internalType": "address",
          "name": "newImplementation",
          "type": "address"
        },
        {
          "internalType": "bytes",
          "name": "data",
          "type": "bytes"
        }
      ],
      "name": "upgradeToAndCall",
      "outputs": [],
      "stateMutability": "payable",
      "type": "function"
    }
  ],
  "bytecode": "0x60a080604052346029573060805261588b908161002e82396080518181816120fe01526121c50152f35b5f80fdfe60806040526004361015610011575f80fd5b5f803560e01c8063012a33aa146138dc57806301d22ccd146138a957806306497cb91461385d57806306fdde03146137525780630918281b146136ee578063095ea7b31461363e5780630a38abab146135da5780630cfc7386146130fb5780630d8e6e2c146130b557806318160ddd14613079578063185fcffe1461305c5780631a168da214612d4457806323b872dd14612b7557806327d54a9214612acf578063295b930014612ab55780632bdd955a14612a8f5780632f86556814612a6e578063313ce56714612a5357806334decfc914612a3757806335aa0efa146129d35780633b19e84a14611fe55780633c2066a9146129525780634cd88b76146124325780634f1ef2861461217857806352d1902d146120d75780635e7f8b761461204b578063609615281461201857806361d027b314611fe557806370a0823114611f81578063715018a614611ee357806371ddcfb814611e8d5780637df107ea14611e5a5780638537718814611e3d5780638d483df114611d135780638da5cb5b14611cc15780638e77345514611b4a57806395d89b4114611a26578063980d24f91461180b578063a9059cbb146117d9578063aa95d8931461177d578063ad3cb1cc1461171b578063b0d60ba01461154a578063b14f2a39146114e6578063b9f5e617146114c8578063cc2a9a5b14610a8b578063dd62ed3e146109f7578063eedc3c5014610806578063f2fde38b146107d9578063fe0a4dd1146102725763fe330a5114610240575f80fd5b3461026f57608060031936011261026f576020610267606435604435602435600435614ce5565b604051908152f35b80fd5b503461026f576020908160031936011261026f5760043591610292614a2c565b61029d831515613cae565b6102a683614b74565b815b60038054821015610767576102bc826156a3565b9173ffffffffffffffffffffffffffffffffffffffff92839254911b1c167f52c63247e1f47db19d5ce0460030c497f067ca4cebf71ba98eeadabe20bace025490604051917f70a0823100000000000000000000000000000000000000000000000000000000835230600484015260249286818581865afa90811561066f578891610736575b50801561072957308314610729576040517f313ce5670000000000000000000000000000000000000000000000000000000081528781600481875afa908115610579579160ff8b9261039e95948c916106fc575b501692614ce5565b9060059287878686541680851461067a575090508560095416916064878754169160405194859384927f1698ee82000000000000000000000000000000000000000000000000000000008452886004850152830152610bb860448301525afa90811561066f579085918991610642575b5061041e8483600854168561525b565b161561058457610434913091858554169061557f565b9161045560025461045061044a60015483613d2c565b86613c4c565b613c5f565b82546040517fa9059cbb000000000000000000000000000000000000000000000000000000008082523360048301526024820184905294918890829060449082908d9089165af18015610579576104c5858a96946104fe9896948d9461055c575b50541693600d54169288613d2c565b93604051968795869485938452600484016020909392919373ffffffffffffffffffffffffffffffffffffffff60408201951681520152565b03925af18015610551579161051e9160019493610524575b501515613d65565b016102a8565b61054390863d881161054a575b61053b8183613aa8565b810190613c96565b505f610516565b503d610531565b6040513d87823e3d90fd5b61057290893d8b1161054a5761053b8183613aa8565b505f6104b6565b6040513d8b823e3d90fd5b610599918460065416858554169033936153f4565b916105af60025461045061044a60015483613d2c565b82546040517fa9059cbb000000000000000000000000000000000000000000000000000000008082523360048301526024820184905294918890829060449082908d9089165af18015610579576104c5858a969461061e9896948d9461055c5750541693600d54169288613d2c565b03925af18015610551579161063d916001949361052457501515613d65565b61051e565b6106629150883d8a11610668575b61065a8183613aa8565b810190613d39565b5f61040e565b503d610650565b6040513d8a823e3d90fd5b6040517fa9059cbb000000000000000000000000000000000000000000000000000000008152336004820152602481019690965294965094508593604493508492505af180156106f15790600192916106d4575b5061051e565b6106ea90843d861161054a5761053b8183613aa8565b505f6106ce565b6040513d86823e3d90fd5b61071c91508b3d8d11610722575b6107148183613aa8565b810190613d13565b5f610396565b503d61070a565b505050505060019061051e565b90508681813d8311610760575b61074d8183613aa8565b8101031261075c57515f610342565b5f80fd5b503d610743565b837fcc16f5dbb4873280815c1ee09dbd06736cffcc184412cf7a71a0fdb75d397ca56107af876107978133614dac565b60408051338152602081019290925290918291820190565b0390a160017f9b779b17422d0df92223018b32b4d1fa46e071723d6817e2486d003becc55f005580f35b503461026f57602060031936011261026f576108036107f6613985565b6107fe6149bc565b614896565b80f35b503461026f57604060031936011261026f576004359067ffffffffffffffff8083116109f357366023840112156109f35782600401359260249161084985613be3565b916108576040519384613aa8565b858352602095848785019160051b8301019136831161092157858101915b8383106109295750505050823590811161092557366023820112156109255780600401356108a281613be3565b936108b06040519586613aa8565b818552808786019260051b840101923684116109215701905b82821061090a57856108e386866108de614a2c565b613f91565b60017f9b779b17422d0df92223018b32b4d1fa46e071723d6817e2486d003becc55f005580f35b86809161091684613a57565b8152019101906108c9565b8680fd5b8380fd5b82358581116109ef578201606090817fffffffffffffffffffffffffffffffffffffffffffffffffffffffffffffffdc82360301126109eb57604051918201828110888211176109bf57604052610981898201613a57565b825260448101358b83015260648101358781116109bb57916109ab8c94928b869536920101613b23565b6040820152815201920191610875565b8a80fd5b897f4e487b71000000000000000000000000000000000000000000000000000000005f5260416004525ffd5b8980fd5b8880fd5b5080fd5b503461026f57604060031936011261026f57610a11613985565b73ffffffffffffffffffffffffffffffffffffffff610a75610a316139a8565b9273ffffffffffffffffffffffffffffffffffffffff165f527f52c63247e1f47db19d5ce0460030c497f067ca4cebf71ba98eeadabe20bace0160205260405f2090565b91165f52602052602060405f2054604051908152f35b503461026f5760c060031936011261026f57610aa5613985565b610aad6139a8565b610ab56139cb565b90610abe6139ee565b610ac6613a11565b91610acf613a34565b907ff0c57e16840df040f15088dc2f81fe391c3923bec73e23a9662efc9c229c6a00549467ffffffffffffffff8616801590816114b8575b60011490816114ae575b1590816114a5575b5061147b5760017fffffffffffffffffffffffffffffffffffffffffffffffff00000000000000008716177ff0c57e16840df040f15088dc2f81fe391c3923bec73e23a9662efc9c229c6a005560ff8660401c1615611426575b604051610b7f81613a8c565b600681527f42616c756e690000000000000000000000000000000000000000000000000000602082015260405190610bb682613a8c565b600682527f42414c554e4900000000000000000000000000000000000000000000000000006020830152610be86156d8565b610bf06156d8565b80519067ffffffffffffffff82116113f9578190610c2e7f52c63247e1f47db19d5ce0460030c497f067ca4cebf71ba98eeadabe20bace0354613bfb565b601f8111611332575b50602090601f8311600114611212578c92611207575b50507fffffffffffffffffffffffffffffffffffffffffffffffffffffffffffffffff8260011b9260031b1c1916177f52c63247e1f47db19d5ce0460030c497f067ca4cebf71ba98eeadabe20bace03555b80519067ffffffffffffffff82116111da578190610cdd7f52c63247e1f47db19d5ce0460030c497f067ca4cebf71ba98eeadabe20bace0454613bfb565b601f8111611113575b50602090601f8311600114610ff3578b92610fe8575b50507fffffffffffffffffffffffffffffffffffffffffffffffffffffffffffffffff8260011b9260031b1c1916177f52c63247e1f47db19d5ce0460030c497f067ca4cebf71ba98eeadabe20bace04555b610d566156d8565b610d5e6156d8565b610d6733614896565b610d6f6156d8565b610d776156d8565b60017f9b779b17422d0df92223018b32b4d1fa46e071723d6817e2486d003becc55f0055610da36156d8565b3015610fb8577f52c63247e1f47db19d5ce0460030c497f067ca4cebf71ba98eeadabe20bace02805492670de0b6b3a764000098898501809511610f8b5760ff99610ed6958c9455305f527f52c63247e1f47db19d5ce0460030c497f067ca4cebf71ba98eeadabe20bace0060205260405f208181540190556040519081525f7fddf252ad1be2c89b69c2b068fc378daa952ba7f163c4a11628f55a4df523b3ef60203093a36101f48355601e60015561271060025573ffffffffffffffffffffffffffffffffffffffff97888098818094169a8b9781600554977fffffffffffffffffffffffff00000000000000000000000000000000000000009e8f8a1617600555168d6006541617600655168b600754161760075516896008541617600855168760095416176009551617615731565b501681600c541617600c553390600d541617600d5560401c1615610ef75780f35b7fffffffffffffffffffffffffffffffffffffffffffffff00ffffffffffffffff7ff0c57e16840df040f15088dc2f81fe391c3923bec73e23a9662efc9c229c6a0054167ff0c57e16840df040f15088dc2f81fe391c3923bec73e23a9662efc9c229c6a00557fc7f505b2f371ae2175ee4913f4499e1f2633a7b5936321eed1cdaeb6115181d2602060405160018152a180f35b7f4e487b71000000000000000000000000000000000000000000000000000000005f52601160045260245ffd5b60246040517fec442f050000000000000000000000000000000000000000000000000000000081525f6004820152fd5b015190505f80610cfc565b92507f52c63247e1f47db19d5ce0460030c497f067ca4cebf71ba98eeadabe20bace048b527f46a2803e59a4de4e7a4c574b1243f25977ac4c77d5a1a4a609b5394cebb4a2aa908b935b7fffffffffffffffffffffffffffffffffffffffffffffffffffffffffffffffe0841685106110f85760019450837fffffffffffffffffffffffffffffffffffffffffffffffffffffffffffffffe08116106110c1575b505050811b017f52c63247e1f47db19d5ce0460030c497f067ca4cebf71ba98eeadabe20bace0455610d4e565b01517fffffffffffffffffffffffffffffffffffffffffffffffffffffffffffffffff60f88460031b161c191690555f8080611094565b8181015183556020948501946001909301929091019061103d565b9091507f52c63247e1f47db19d5ce0460030c497f067ca4cebf71ba98eeadabe20bace048b52601f830160051c7f46a2803e59a4de4e7a4c574b1243f25977ac4c77d5a1a4a609b5394cebb4a2aa01602084106111b3575b908392915b601f820160051c7f46a2803e59a4de4e7a4c574b1243f25977ac4c77d5a1a4a609b5394cebb4a2aa0181106111a55750610ce6565b5f8155849350600101611170565b507f46a2803e59a4de4e7a4c574b1243f25977ac4c77d5a1a4a609b5394cebb4a2aa61116b565b60248a7f4e487b710000000000000000000000000000000000000000000000000000000081526041600452fd5b015190505f80610c4d565b92507f52c63247e1f47db19d5ce0460030c497f067ca4cebf71ba98eeadabe20bace038c527f2ae08a8e29253f69ac5d979a101956ab8f8d9d7ded63fa7a83b16fc47648eab0908c935b7fffffffffffffffffffffffffffffffffffffffffffffffffffffffffffffffe0841685106113175760019450837fffffffffffffffffffffffffffffffffffffffffffffffffffffffffffffffe08116106112e0575b505050811b017f52c63247e1f47db19d5ce0460030c497f067ca4cebf71ba98eeadabe20bace0355610c9f565b01517fffffffffffffffffffffffffffffffffffffffffffffffffffffffffffffffff60f88460031b161c191690555f80806112b3565b8181015183556020948501946001909301929091019061125c565b9091507f52c63247e1f47db19d5ce0460030c497f067ca4cebf71ba98eeadabe20bace038c52601f830160051c7f2ae08a8e29253f69ac5d979a101956ab8f8d9d7ded63fa7a83b16fc47648eab001602084106113d2575b908392915b601f820160051c7f2ae08a8e29253f69ac5d979a101956ab8f8d9d7ded63fa7a83b16fc47648eab00181106113c45750610c37565b5f815584935060010161138f565b507f2ae08a8e29253f69ac5d979a101956ab8f8d9d7ded63fa7a83b16fc47648eab061138a565b60248b7f4e487b710000000000000000000000000000000000000000000000000000000081526041600452fd5b680100000000000000017fffffffffffffffffffffffffffffffffffffffffffffff0000000000000000008716177ff0c57e16840df040f15088dc2f81fe391c3923bec73e23a9662efc9c229c6a0055610b73565b60046040517ff92ee8a9000000000000000000000000000000000000000000000000000000008152fd5b9050155f610b19565b303b159150610b11565b604088901c60ff16159150610b07565b503461026f578060031936011261026f576020600154604051908152f35b503461026f57602060031936011261026f5773ffffffffffffffffffffffffffffffffffffffff611515613985565b61151d6149bc565b167fffffffffffffffffffffffff0000000000000000000000000000000000000000600d541617600d5580f35b503461026f5760e060031936011261026f57611564613985565b61156c6139a8565b6115746139cb565b61157c6139ee565b90611585613a11565b61158d613a34565b9260c4359367ffffffffffffffff968786168096036109ef577ff0c57e16840df040f15088dc2f81fe391c3923bec73e23a9662efc9c229c6a00948554988760ff8b60401c1691821561170e575b505061147b57896020986116c993680100000000000000008a7fffffffffffffffffffffffffffffffffffffffffffffff0000000000000000007fc7f505b2f371ae2175ee4913f4499e1f2633a7b5936321eed1cdaeb6115181d29e16171789556101f48355601e60015561271060025573ffffffffffffffffffffffffffffffffffffffff97888098818094169a8b9781600554977fffffffffffffffffffffffff00000000000000000000000000000000000000009e8f8a1617600555168d6006541617600655168b600754161760075516896008541617600855168760095416176009551617615731565b501681600c541617600c553390600d541617600d557fffffffffffffffffffffffffffffffffffffffffffffff00ffffffffffffffff8154169055604051908152a180f35b8b1610159050875f6115db565b503461026f578060031936011261026f5761177960405161173b81613a8c565b600581527f352e302e300000000000000000000000000000000000000000000000000000006020820152604051918291602083526020830190613942565b0390f35b503461026f57602060031936011261026f57602064e8d4a510006117d06117a2614a93565b6104507f52c63247e1f47db19d5ce0460030c497f067ca4cebf71ba98eeadabe20bace025491600435613c4c565b04604051908152f35b503461026f57604060031936011261026f576118006117f6613985565b6024359033614eed565b602060405160018152f35b503461026f57602060031936011261026f57611825613985565b7ff0c57e16840df040f15088dc2f81fe391c3923bec73e23a9662efc9c229c6a009081549060ff8260401c16159167ffffffffffffffff811680159081611a1e575b6001149081611a14575b159081611a0b575b5061147b578260017fffffffffffffffffffffffffffffffffffffffffffffffff000000000000000083161785556119d6575b50600b549073ffffffffffffffffffffffffffffffffffffffff808316611952577fffffffffffffffffffffffff00000000000000000000000000000000000000009116911617600b556118fe575080f35b7fffffffffffffffffffffffffffffffffffffffffffffff00ffffffffffffffff81541690557fc7f505b2f371ae2175ee4913f4499e1f2633a7b5936321eed1cdaeb6115181d2602060405160018152a180f35b60846040517f08c379a000000000000000000000000000000000000000000000000000000000815260206004820152602160248201527f4d61726b6574204f7261636c6520416c726561647920496e697469616c697a6560448201527f64000000000000000000000000000000000000000000000000000000000000006064820152fd5b7fffffffffffffffffffffffffffffffffffffffffffffff00000000000000000016680100000000000000011783555f6118ac565b9050155f611879565b303b159150611871565b849150611867565b503461026f578060031936011261026f576040519080827f52c63247e1f47db19d5ce0460030c497f067ca4cebf71ba98eeadabe20bace04928354611a6a81613bfb565b93848452602095600192876001821691825f14611b07575050600114611aae575b505050611a9a92500383613aa8565b611779604051928284938452830190613942565b8152859250907f46a2803e59a4de4e7a4c574b1243f25977ac4c77d5a1a4a609b5394cebb4a2aa5b858310611aef575050611a9a93508201015f8080611a8b565b80548389018501528794508693909201918101611ad6565b9250945050611a9a9592507fffffffffffffffffffffffffffffffffffffffffffffffffffffffffffffff0091501682840152151560051b8201015f8080611a8b565b503461075c5760031960a08136011261075c5767ffffffffffffffff9060043582811161075c57611b7f903690600401613bb2565b9260243590811161075c57611b98903690600401613bb2565b611ba39391936139cb565b90611bac6139ee565b9073ffffffffffffffffffffffffffffffffffffffff9283600c541694853b1561075c57604051987f84db1dfb000000000000000000000000000000000000000000000000000000008a528060a48b0160a060048d01525260c48a0197905f5b818110611c9f575050508887030160248901528186527f07ffffffffffffffffffffffffffffffffffffffffffffffffffffffffffffff821161075c575f9688968589958997889560209760051b8096898701371660448601521660648401526084356084840152010301925af18015611c9457611c88575080f35b611c929150613a78565b005b6040513d5f823e3d90fd5b90919860019088611caf8c613a57565b16815260209081019a01929101611c0c565b3461075c575f60031936011261075c57602073ffffffffffffffffffffffffffffffffffffffff7f9016d09d72d40fdae2fd8ceac6b6234c7706214fd39c1cd1e609a0528c1993005416604051908152f35b3461075c575f60031936011261075c5773ffffffffffffffffffffffffffffffffffffffff600b5416604051907fefdba04f0000000000000000000000000000000000000000000000000000000082526020918281600481855afa908115611c945783905f92611e0f575b5060049192604051928380927f683a8c810000000000000000000000000000000000000000000000000000000082525afa908115611c94575f91611de2575b5064e8d4a5100090818102918183041490151715610f8b576040928351928352820152f35b90508281813d8311611e08575b611df98183613aa8565b8101031261075c575183611dbd565b503d611def565b809250813d8311611e36575b611e258183613aa8565b8101031261075c5751826004611d7e565b503d611e1b565b3461075c575f60031936011261075c576020600254604051908152f35b3461075c575f60031936011261075c57602073ffffffffffffffffffffffffffffffffffffffff600a5416604051908152f35b3461075c57602060031936011261075c5760206102677f52c63247e1f47db19d5ce0460030c497f067ca4cebf71ba98eeadabe20bace0254611ed0811515614957565b610450611edb614a93565b600435613c4c565b3461075c575f60031936011261075c57611efb6149bc565b5f73ffffffffffffffffffffffffffffffffffffffff7f9016d09d72d40fdae2fd8ceac6b6234c7706214fd39c1cd1e609a0528c1993008054907fffffffffffffffffffffffff000000000000000000000000000000000000000082169055167f8be0079c531659141344cd1fd0a4f28419497f9722a3daafe3b4186f6b6457e08280a3005b3461075c57602060031936011261075c5773ffffffffffffffffffffffffffffffffffffffff611faf613985565b165f527f52c63247e1f47db19d5ce0460030c497f067ca4cebf71ba98eeadabe20bace00602052602060405f2054604051908152f35b3461075c575f60031936011261075c57602073ffffffffffffffffffffffffffffffffffffffff600d5416604051908152f35b3461075c575f60031936011261075c57602073ffffffffffffffffffffffffffffffffffffffff600b5416604051908152f35b3461075c575f60031936011261075c57604051806003549182815260208091019260035f527fc2575a0e9e593c00f959f8c92f12db2869c3395a3b0502d05e2516446f71f85b915f905b8282106120c057611779856120ac81890382613aa8565b604051918291602083526020830190613b69565b835486529485019460019384019390910190612095565b3461075c575f60031936011261075c5773ffffffffffffffffffffffffffffffffffffffff7f000000000000000000000000000000000000000000000000000000000000000016300361214e5760206040517f360894a13ba1a3210667c828492db98dca3e2076cc3735a920a3ca505d382bbc8152f35b60046040517fe07c8dba000000000000000000000000000000000000000000000000000000008152fd5b604060031936011261075c5761218c613985565b60243567ffffffffffffffff811161075c576121ac903690600401613b23565b9073ffffffffffffffffffffffffffffffffffffffff807f000000000000000000000000000000000000000000000000000000000000000016803014908115612404575b5061214e576121fd6149bc565b811690604051907f52d1902d0000000000000000000000000000000000000000000000000000000082526020918281600481875afa5f91816123d5575b5061227057602484604051907f4c9c8ce30000000000000000000000000000000000000000000000000000000082526004820152fd5b9284937f360894a13ba1a3210667c828492db98dca3e2076cc3735a920a3ca505d382bbc908181036123a45750823b1561237357817fffffffffffffffffffffffff0000000000000000000000000000000000000000825416179055604051907fbc7cd75a20ee27fd9adebab32041f755214dbc6bffa90cc0225b39da2e5c2d3b5f80a283511561234057505f808484611c9296519101845af4903d15612337573d61231b81613ae9565b906123296040519283613aa8565b81525f81943d92013e6157b5565b606092506157b5565b925050503461234b57005b807fb398979f0000000000000000000000000000000000000000000000000000000060049252fd5b602482604051907f4c9c8ce30000000000000000000000000000000000000000000000000000000082526004820152fd5b602490604051907faa1d49a40000000000000000000000000000000000000000000000000000000082526004820152fd5b9091508381813d83116123fd575b6123ed8183613aa8565b8101031261075c5751908661223a565b503d6123e3565b9050817f360894a13ba1a3210667c828492db98dca3e2076cc3735a920a3ca505d382bbc54161415846121f0565b3461075c57604060031936011261075c5767ffffffffffffffff60043581811161075c57612464903690600401613b23565b60243582811161075c5761247c903690600401613b23565b907ff0c57e16840df040f15088dc2f81fe391c3923bec73e23a9662efc9c229c6a009182549360ff8560401c1615928186169586158061294b575b60018098149081612941575b159081612938575b5061147b5784877fffffffffffffffffffffffffffffffffffffffffffffffff00000000000000008316178755612903575b506125066156d8565b61250e6156d8565b80518281116127a6577f52c63247e1f47db19d5ce0460030c497f067ca4cebf71ba98eeadabe20bace0390806125448354613bfb565b93601f94858111612896575b506020908583116001146127de575f926127d3575b50507fffffffffffffffffffffffffffffffffffffffffffffffffffffffffffffffff828a1b9260031b1c19161790555b82519182116127a65781907f52c63247e1f47db19d5ce0460030c497f067ca4cebf71ba98eeadabe20bace04936125cd8554613bfb565b828111612737575b50602091831160011461267f575f92612674575b50507fffffffffffffffffffffffffffffffffffffffffffffffffffffffffffffffff82871b9260031b1c19161790555b61262057005b7fc7f505b2f371ae2175ee4913f4499e1f2633a7b5936321eed1cdaeb6115181d291817fffffffffffffffffffffffffffffffffffffffffffffff00ffffffffffffffff60209354169055604051908152a1005b0151905086806125e9565b907fffffffffffffffffffffffffffffffffffffffffffffffffffffffffffffffe088941691855f527f46a2803e59a4de4e7a4c574b1243f25977ac4c77d5a1a4a609b5394cebb4a2aa925f5b81811061271f575084116126e8575b505050811b01905561261a565b01517fffffffffffffffffffffffffffffffffffffffffffffffffffffffffffffffff60f88460031b161c191690558680806126db565b8284015185558a9690940193602093840193016126cc565b90919250845f527f46a2803e59a4de4e7a4c574b1243f25977ac4c77d5a1a4a609b5394cebb4a2aa8380860160051c8201926020871061279d575b9186958b929594930160051c01915b82811061278f5750506125d5565b5f81558695508a9101612781565b92508192612772565b7f4e487b71000000000000000000000000000000000000000000000000000000005f52604160045260245ffd5b015190508980612565565b907fffffffffffffffffffffffffffffffffffffffffffffffffffffffffffffffe08b941691855f527f2ae08a8e29253f69ac5d979a101956ab8f8d9d7ded63fa7a83b16fc47648eab0925f5b81811061287e57508411612847575b505050811b019055612596565b01517fffffffffffffffffffffffffffffffffffffffffffffffffffffffffffffffff60f88460031b161c1916905589808061283a565b8284015185558d96909401936020938401930161282b565b909150835f527f2ae08a8e29253f69ac5d979a101956ab8f8d9d7ded63fa7a83b16fc47648eab08580850160051c820192602086106128fa575b918c91869594930160051c01915b8281106128ec575050612550565b5f81558594508c91016128de565b925081926128d0565b7fffffffffffffffffffffffffffffffffffffffffffffff0000000000000000001668010000000000000001178555866124fd565b905015886124cb565b303b1591506124c3565b50846124b7565b3461075c575f60031936011261075c5761296a614a2c565b600380545f5b81811061299d5760017f9b779b17422d0df92223018b32b4d1fa46e071723d6817e2486d003becc55f0055005b806129cd73ffffffffffffffffffffffffffffffffffffffff6129c16001946156a3565b905490871b1c16613dca565b01612970565b3461075c57602060031936011261075c5773ffffffffffffffffffffffffffffffffffffffff612a01613985565b612a096149bc565b167fffffffffffffffffffffffff0000000000000000000000000000000000000000600b541617600b555f80f35b3461075c575f60031936011261075c5760205f54604051908152f35b3461075c575f60031936011261075c57602060405160128152f35b3461075c57602060031936011261075c57611c92612a8a613985565b613dca565b3461075c57604060031936011261075c576020610267612aad6139a8565b600435614fec565b3461075c575f60031936011261075c576020610267614a93565b3461075c57602060031936011261075c57612ae8613985565b73ffffffffffffffffffffffffffffffffffffffff602081602481600a54169460405195869384927f27d54a920000000000000000000000000000000000000000000000000000000084521660048301525afa908115611c94576020925f92612b56575b5060405191168152f35b612b6e919250833d85116106685761065a8183613aa8565b9083612b4c565b3461075c57606060031936011261075c57612b8e613985565b612b966139a8565b60443590612be18373ffffffffffffffffffffffffffffffffffffffff165f527f52c63247e1f47db19d5ce0460030c497f067ca4cebf71ba98eeadabe20bace0160205260405f2090565b335f5260205260405f2054927fffffffffffffffffffffffffffffffffffffffffffffffffffffffffffffffff8403612c1f575b6118009350614eed565b828410612d055773ffffffffffffffffffffffffffffffffffffffff811615612cd5573315612ca5578261180094612c948373ffffffffffffffffffffffffffffffffffffffff165f527f52c63247e1f47db19d5ce0460030c497f067ca4cebf71ba98eeadabe20bace0160205260405f2090565b335f526020520360405f2055612c15565b60246040517f94280d620000000000000000000000000000000000000000000000000000000081525f6004820152fd5b60246040517fe602df050000000000000000000000000000000000000000000000000000000081525f6004820152fd5b6040517ffb8f41b20000000000000000000000000000000000000000000000000000000081523360048201526024810185905260448101849052606490fd5b3461075c5760208060031936011261075c5760043590612d62614a2c565b335f527f52c63247e1f47db19d5ce0460030c497f067ca4cebf71ba98eeadabe20bace008152612d988260405f20541015613cae565b612da182614b74565b5f5b600390815481101561300457612db8816156a3565b9273ffffffffffffffffffffffffffffffffffffffff93849254911b1c16917f52c63247e1f47db19d5ce0460030c497f067ca4cebf71ba98eeadabe20bace0254604051907f70a082310000000000000000000000000000000000000000000000000000000082523060048301528582602481885afa918215611c94575f92612fd5575b5081158015612fcc575b612fc057604051917f313ce5670000000000000000000000000000000000000000000000000000000083528683600481895afa908115611c945760ff8992612e96955f91612fa357501692614ce5565b612eb1600254610450612eab60015483613d2c565b84613c4c565b6040517fa9059cbb0000000000000000000000000000000000000000000000000000000080825233600483015260248201839052919591929087816044815f875af18015611c9457612f4e9789965f93612f1593612f86575b50600d541693613d2c565b93604051978895869485938452600484016020909392919373ffffffffffffffffffffffffffffffffffffffff60408201951681520152565b03925af1918215611c9457600192612f69575b505b01612da3565b612f7f90843d861161054a5761053b8183613aa8565b5084612f61565b612f9c90893d8b1161054a5761053b8183613aa8565b508c612f0a565b612fba91508a3d8c11610722576107148183613aa8565b8b610396565b50505060019150612f63565b50308514612e46565b9091508581813d8311612ffd575b612fed8183613aa8565b8101031261075c57519087612e3c565b503d612fe3565b7fcc16f5dbb4873280815c1ee09dbd06736cffcc184412cf7a71a0fdb75d397ca5613033856107978133614dac565b0390a160017f9b779b17422d0df92223018b32b4d1fa46e071723d6817e2486d003becc55f0055005b3461075c575f60031936011261075c576020600154604051908152f35b3461075c575f60031936011261075c5760207f52c63247e1f47db19d5ce0460030c497f067ca4cebf71ba98eeadabe20bace0254604051908152f35b3461075c575f60031936011261075c57602067ffffffffffffffff7ff0c57e16840df040f15088dc2f81fe391c3923bec73e23a9662efc9c229c6a005416604051908152f35b3461075c5760208060031936011261075c57600435613118614a2c565b610450613123614a93565b916131547f52c63247e1f47db19d5ce0460030c497f067ca4cebf71ba98eeadabe20bace0293845493849184613c4c565b9273ffffffffffffffffffffffffffffffffffffffff9364e8d4a5100085600554169104936040517f23b872dd00000000000000000000000000000000000000000000000000000000815233600482015287816064815f60249730898401528b60448401525af18015611c94576135bd575b50856005541690604051907f70a0823100000000000000000000000000000000000000000000000000000000825233600483015288828581865afa918215611c94575f9261358e575b506040517fdd62ed3e000000000000000000000000000000000000000000000000000000008152336004820152306024820152928990849060449082905afa928315611c94575f9361355f575b50156134dc57851161347f5784116134225733156133f4575061333485937f0f6798a560793a54c3bcfe86a93cde1e73087d944c0ea20544137d412139688561332885856132b26133a19a9861333d9854614a86565b9055335f527f52c63247e1f47db19d5ce0460030c497f067ca4cebf71ba98eeadabe20bace00885260405f208181540190556040518181525f7fddf252ad1be2c89b69c2b068fc378daa952ba7f163c4a11628f55a4df523b3ef8a3393a360408051338152602081019290925290918291820190565b0390a160015490613c4c565b60025490613c5f565b90806005541690600d54165f6040518096819582947fa9059cbb000000000000000000000000000000000000000000000000000000008452600484016020909392919373ffffffffffffffffffffffffffffffffffffffff60408201951681520152565b03925af18015611c94576133d6575b60017f9b779b17422d0df92223018b32b4d1fa46e071723d6817e2486d003becc55f0055005b816133ec92903d1061054a5761053b8183613aa8565b5080806133b0565b6040517fec442f050000000000000000000000000000000000000000000000000000000081525f6004820152fd5b856019606492604051927f08c379a000000000000000000000000000000000000000000000000000000000845260048401528201527f436865636b2074686520746f6b656e20616c6c6f77616e6365000000000000006044820152fd5b606487601c84604051927f08c379a000000000000000000000000000000000000000000000000000000000845260048401528201527f555344432062616c616e636520697320696e73756666696369656e74000000006044820152fd5b608488602285604051927f08c379a000000000000000000000000000000000000000000000000000000000845260048401528201527f546f74616c2042414c554e4920737570706c792063616e6e6f74206265207a6560448201527f726f0000000000000000000000000000000000000000000000000000000000006064820152fd5b9092508881813d8311613587575b6135778183613aa8565b8101031261075c5751918961325c565b503d61356d565b9091508881813d83116135b6575b6135a68183613aa8565b8101031261075c5751908961320f565b503d61359c565b6135d390883d8a1161054a5761053b8183613aa8565b50876131c6565b3461075c57602060031936011261075c5773ffffffffffffffffffffffffffffffffffffffff613608613985565b6136106149bc565b167fffffffffffffffffffffffff0000000000000000000000000000000000000000600a541617600a555f80f35b3461075c57604060031936011261075c57613657613985565b602435903315612cd55773ffffffffffffffffffffffffffffffffffffffff16908115612ca557335f9081527f52c63247e1f47db19d5ce0460030c497f067ca4cebf71ba98eeadabe20bace0160205260409020825f526020528060405f20556040519081527f8c5be1e5ebec7d5bd14f71427d1e84f3dd0314c0f7b2291e5b200ac8c7c3b92560203392a3602060405160018152f35b3461075c57602060031936011261075c5773ffffffffffffffffffffffffffffffffffffffff61371c613985565b6137246149bc565b167fffffffffffffffffffffffff0000000000000000000000000000000000000000600c541617600c555f80f35b3461075c575f60031936011261075c576040517f52c63247e1f47db19d5ce0460030c497f067ca4cebf71ba98eeadabe20bace038054825f61379383613bfb565b92838352602094600191866001821691825f1461381c5750506001146137c2575b5050611a9a92500383613aa8565b8592505f527f2ae08a8e29253f69ac5d979a101956ab8f8d9d7ded63fa7a83b16fc47648eab0905f915b858310613804575050611a9a935082010185806137b4565b805483890185015287945086939092019181016137ec565b91509350611a9a9592507fffffffffffffffffffffffffffffffffffffffffffffffffffffffffffffff0091501682840152151560051b82010185806137b4565b3461075c57602060031936011261075c577fbea1b31142ae4b1f4efad240349036d718b7950d246c127768097ccf602fc7e0602060043561389c6149bc565b80600155604051908152a1005b3461075c575f60031936011261075c57602073ffffffffffffffffffffffffffffffffffffffff600c5416604051908152f35b3461075c575f60031936011261075c577f52c63247e1f47db19d5ce0460030c497f067ca4cebf71ba98eeadabe20bace0254613919811515614957565b613921614a93565b670de0b6b3a76400009080820291820403610f8b5760209161026791613c5f565b907fffffffffffffffffffffffffffffffffffffffffffffffffffffffffffffffe0601f602080948051918291828752018686015e5f8582860101520116010190565b6004359073ffffffffffffffffffffffffffffffffffffffff8216820361075c57565b6024359073ffffffffffffffffffffffffffffffffffffffff8216820361075c57565b6044359073ffffffffffffffffffffffffffffffffffffffff8216820361075c57565b6064359073ffffffffffffffffffffffffffffffffffffffff8216820361075c57565b6084359073ffffffffffffffffffffffffffffffffffffffff8216820361075c57565b60a4359073ffffffffffffffffffffffffffffffffffffffff8216820361075c57565b359073ffffffffffffffffffffffffffffffffffffffff8216820361075c57565b67ffffffffffffffff81116127a657604052565b6040810190811067ffffffffffffffff8211176127a657604052565b90601f7fffffffffffffffffffffffffffffffffffffffffffffffffffffffffffffffe0910116810190811067ffffffffffffffff8211176127a657604052565b67ffffffffffffffff81116127a657601f017fffffffffffffffffffffffffffffffffffffffffffffffffffffffffffffffe01660200190565b81601f8201121561075c57803590613b3a82613ae9565b92613b486040519485613aa8565b8284526020838301011161075c57815f926020809301838601378301015290565b9081518082526020808093019301915f5b828110613b88575050505090565b835173ffffffffffffffffffffffffffffffffffffffff1685529381019392810192600101613b7a565b9181601f8401121561075c5782359167ffffffffffffffff831161075c576020808501948460051b01011161075c57565b67ffffffffffffffff81116127a65760051b60200190565b90600182811c92168015613c42575b6020831014613c1557565b7f4e487b71000000000000000000000000000000000000000000000000000000005f52602260045260245ffd5b91607f1691613c0a565b81810292918115918404141715610f8b57565b8115613c69570490565b7f4e487b71000000000000000000000000000000000000000000000000000000005f52601260045260245ffd5b9081602091031261075c5751801515810361075c5790565b15613cb557565b60646040517f08c379a000000000000000000000000000000000000000000000000000000000815260206004820152601060248201527f496e73756666696369656e742042414c000000000000000000000000000000006044820152fd5b9081602091031261075c575160ff8116810361075c5790565b91908203918211610f8b57565b9081602091031261075c575173ffffffffffffffffffffffffffffffffffffffff8116810361075c5790565b15613d6c57565b60646040517f08c379a000000000000000000000000000000000000000000000000000000000815260206004820152601760248201527f53776170204661696c65642c20547279204275726e28290000000000000000006044820152fd5b6040517f70a082310000000000000000000000000000000000000000000000000000000081523060048201529073ffffffffffffffffffffffffffffffffffffffff9060208183168185602481845afa948515611c94575f95613f21575b5081846009541691606486600554169160405194859384927f1698ee8200000000000000000000000000000000000000000000000000000000845260048401526024830152610bb860448301525afa918215611c94575f92613f04575b5050613e968484600854168461525b565b821615831515811580613efd575b15613ec957505090613ec792613ec0923092600554169061557f565b1515613d65565b565b91929181613ef5575b50613edc57505050565b613ec792613ec0928260065416309360055416916153f4565b90505f613ed2565b5080613ea4565b613f1a9250803d106106685761065a8183613aa8565b5f80613e85565b9094508181813d8311613f49575b613f398183613aa8565b8101031261075c5751935f613e28565b503d613f2f565b8051821015613f645760209160051b010190565b7f4e487b71000000000000000000000000000000000000000000000000000000005f52603260045260245ffd5b90600a549273ffffffffffffffffffffffffffffffffffffffff5f94169384156148385760205f956024604051809881937f9b76a5cd0000000000000000000000000000000000000000000000000000000083523360048401525af1948515611c94575f95614817575b5082519161402161400b84613be3565b936140196040519586613aa8565b808552613be3565b947fffffffffffffffffffffffffffffffffffffffffffffffffffffffffffffffe080960136602086013784519561407161405b88613be3565b97614069604051998a613aa8565b808952613be3565b013660208801375f5b8551811015614169578073ffffffffffffffffffffffffffffffffffffffff6140a560249389613f50565b51165f52600460205260405f2054156140be8288613f50565b52602073ffffffffffffffffffffffffffffffffffffffff6140e0838a613f50565b5116604051938480927f70a082310000000000000000000000000000000000000000000000000000000082523060048301525afa8015611c94575f90614136575b6001925061412f828a613f50565b520161407a565b506020823d602011614161575b8161415060209383613aa8565b8101031261075c5760019151614121565b3d9150614143565b5090919573ffffffffffffffffffffffffffffffffffffffff81163b1561075c5760405180927feedc3c50000000000000000000000000000000000000000000000000000000008252604482016040600484015281518091526064830190602060648260051b8601019301915f905b82821061479a575050505091815f73ffffffffffffffffffffffffffffffffffffffff826142138760031983869a030160248401528c613b69565b0393165af18015611c9457614787575b50845b835181101561477f5773ffffffffffffffffffffffffffffffffffffffff61424e8286613f50565b5116906040517f70a08231000000000000000000000000000000000000000000000000000000008152306004820152602081602481865afa90811561066f57889161474d575b5073ffffffffffffffffffffffffffffffffffffffff600954169273ffffffffffffffffffffffffffffffffffffffff6006541693604051907f1698ee82000000000000000000000000000000000000000000000000000000008252826004830152856024830152610bb86044830152602082606481845afa918215614721578b9261472c575b50604051957f1698ee8200000000000000000000000000000000000000000000000000000000875283600488015260248701526101f46044870152602086606481845afa958615614721578b96614700575b5073ffffffffffffffffffffffffffffffffffffffff6005541691604051927f1698ee820000000000000000000000000000000000000000000000000000000084528460048501528060248501526101f46044850152602084606481865afa9384156146f5578d946146d3575b506020906064604051809581937f1698ee820000000000000000000000000000000000000000000000000000000083528960048401526024830152610bb860448301525afa9182156146c8578c92614691575b5073ffffffffffffffffffffffffffffffffffffffff161595861596614671575b508515614651575b508415614631575b506144698387613f50565b5115158061462a575b61461b575b61448b614484848a613f50565b5183613d2c565b9315614598575061449c8288613f50565b51106144ad575b6001915001614226565b60206144c26133346145559460015490613c4c565b73ffffffffffffffffffffffffffffffffffffffff6144e18489613f50565b511673ffffffffffffffffffffffffffffffffffffffff600d54168a6040518097819582947fa9059cbb000000000000000000000000000000000000000000000000000000008452600484016020909392919373ffffffffffffffffffffffffffffffffffffffff60408201951681520152565b03925af191821561458d5760019261456e575b506144a3565b6145869060203d60201161054a5761053b8183613aa8565b505f614568565b6040513d89823e3d90fd5b6040517fa9059cbb000000000000000000000000000000000000000000000000000000008152336004820152602481019490945293979296509194506020935085926044925083915085905af190811561460f57506145f45750565b61460c9060203d60201161054a5761053b8183613aa8565b50565b604051903d90823e3d90fd5b61462481615731565b50614477565b5083614472565b73ffffffffffffffffffffffffffffffffffffffff16151593505f61445e565b73ffffffffffffffffffffffffffffffffffffffff16151594505f614456565b73ffffffffffffffffffffffffffffffffffffffff16151595505f61444e565b73ffffffffffffffffffffffffffffffffffffffff9192506146c19060203d6020116106685761065a8183613aa8565b919061442d565b6040513d8e823e3d90fd5b60209194506146ee90823d84116106685761065a8183613aa8565b93906143da565b6040513d8f823e3d90fd5b61471a91965060203d6020116106685761065a8183613aa8565b945f61436d565b6040513d8d823e3d90fd5b61474691925060203d6020116106685761065a8183613aa8565b905f61431b565b90506020813d602011614777575b8161476860209383613aa8565b8101031261075c57515f614294565b3d915061475b565b509350505050565b614792919550613a78565b5f935f614223565b91936020614807827fffffffffffffffffffffffffffffffffffffffffffffffffffffffffffffff9c60019597998495030186528851604060609173ffffffffffffffffffffffffffffffffffffffff815116845285810151868501520151918160408201520190613942565b96019201920186949391926141d8565b61483191955060203d6020116106685761065a8183613aa8565b935f613ffb565b60646040517f08c379a000000000000000000000000000000000000000000000000000000000815260206004820152601560248201527f4167656e7420666163746f7279206e6f742073657400000000000000000000006044820152fd5b73ffffffffffffffffffffffffffffffffffffffff809116908115614927577f9016d09d72d40fdae2fd8ceac6b6234c7706214fd39c1cd1e609a0528c199300805490837fffffffffffffffffffffffff00000000000000000000000000000000000000008316179055167f8be0079c531659141344cd1fd0a4f28419497f9722a3daafe3b4186f6b6457e05f80a3565b60246040517f1e4fbdf70000000000000000000000000000000000000000000000000000000081525f6004820152fd5b1561495e57565b60646040517f08c379a000000000000000000000000000000000000000000000000000000000815260206004820152601b60248201527f546f74616c20737570706c792063616e6e6f74206265207a65726f00000000006044820152fd5b73ffffffffffffffffffffffffffffffffffffffff7f9016d09d72d40fdae2fd8ceac6b6234c7706214fd39c1cd1e609a0528c199300541633036149fc57565b60246040517f118cdaa7000000000000000000000000000000000000000000000000000000008152336004820152fd5b7f9b779b17422d0df92223018b32b4d1fa46e071723d6817e2486d003becc55f006002815414614a5c5760029055565b60046040517f3ee5aeb5000000000000000000000000000000000000000000000000000000008152fd5b91908201809211610f8b57565b5f8060038054905b818310614aa85750505090565b90919273ffffffffffffffffffffffffffffffffffffffff614ac9856156a3565b905490841b1c16604080517f70a0823100000000000000000000000000000000000000000000000000000000815230600482015260208082602481875afa928315614b6b57505f92614b37575b505091614b28614b2e92600194614fec565b90614a86565b93019190614a9b565b9080949250813d8311614b64575b614b4f8183613aa8565b8101031261075c579151614b28614b2e614b16565b503d614b45565b513d5f823e3d90fd5b6024602073ffffffffffffffffffffffffffffffffffffffff60055416604051928380927f70a082310000000000000000000000000000000000000000000000000000000082523060048301525afa8015611c94575f90614ca3575b6103e89150101580614c77575b614be45750565b662386f26fc1000011614bf357565b60846040517f08c379a000000000000000000000000000000000000000000000000000000000815260206004820152602260248201527f4d696e696d756d206275726e20616d6f756e7420697320302e30312042414c5560448201527f4e490000000000000000000000000000000000000000000000000000000000006064820152fd5b5060017f52c63247e1f47db19d5ce0460030c497f067ca4cebf71ba98eeadabe20bace02541015614bdd565b506020813d602011614ccf575b81614cbd60209383613aa8565b8101031261075c576103e89051614bd0565b3d9150614cb0565b604d8111610f8b57600a0a90565b92919091614cf4841515614957565b60128111614d4e576012811015614d3f576012039160128311610f8b57614d3761045092614d2b614d31614d3c97614d2b88614cd7565b90613c5f565b95614cd7565b613c4c565b90565b50614d3c929161045091613c4c565b60646040517f08c379a000000000000000000000000000000000000000000000000000000000815260206004820152601e60248201527f546f6b656e20646563696d616c732073686f756c64206265203c3d20313800006044820152fd5b919073ffffffffffffffffffffffffffffffffffffffff8316908115614ebd57815f527f52c63247e1f47db19d5ce0460030c497f067ca4cebf71ba98eeadabe20bace008060205260405f205494828610614e665750817fddf252ad1be2c89b69c2b068fc378daa952ba7f163c4a11628f55a4df523b3ef925f959660209386885284520360408620557f52c63247e1f47db19d5ce0460030c497f067ca4cebf71ba98eeadabe20bace02818154039055604051908152a3565b6040517fe450d38c00000000000000000000000000000000000000000000000000000000815273ffffffffffffffffffffffffffffffffffffffff9190911660048201526024810186905260448101839052606490fd5b60246040517f96c6fd1e0000000000000000000000000000000000000000000000000000000081525f6004820152fd5b9173ffffffffffffffffffffffffffffffffffffffff808416928315614ebd5716928315610fb857825f527f52c63247e1f47db19d5ce0460030c497f067ca4cebf71ba98eeadabe20bace008060205260405f205491838310614f93575091806020927fddf252ad1be2c89b69c2b068fc378daa952ba7f163c4a11628f55a4df523b3ef94865f5284520360405f2055845f5260405f20818154019055604051908152a3565b6040517fe450d38c00000000000000000000000000000000000000000000000000000000815273ffffffffffffffffffffffffffffffffffffffff91909116600482015260248101929092525060448101829052606490fd5b91909173ffffffffffffffffffffffffffffffffffffffff80931690604051917f313ce5670000000000000000000000000000000000000000000000000000000090818452602060049681868981865afa958615611c94575f9661523c575b5080600554169060405194855282858a81855afa948515611c94575f9561521d575b508184146151f9579060648392600754169460405195869384927f802431fb0000000000000000000000000000000000000000000000000000000084528d84015260248301525f60448301525afa9182915f936151c9575b50506150d457505f9450505050565b60ff8091921693169280841461519857830360ff811161516c5760ff1694604d861161514057506012670de0b6b3a76400009495600a0a9310615128576151249261511e91613c4c565b90613c4c565b0490565b908261513a6151249461511e93613c4c565b92613c4c565b6011907f4e487b71000000000000000000000000000000000000000000000000000000005f525260245ffd5b6011867f4e487b71000000000000000000000000000000000000000000000000000000005f525260245ffd5b50929390915064e8d4a51000918281029281840414901517156151405750670de0b6b3a76400009161512491613c4c565b9080929350813d83116151f2575b6151e18183613aa8565b8101031261075c5751905f806150c5565b503d6151d7565b50505050509192905064e8d4a5100091828102928184041490151715615140575090565b615235919550833d8511610722576107148183613aa8565b935f61506d565b615254919650823d8411610722576107148183613aa8565b945f61504b565b604080517fdd62ed3e00000000000000000000000000000000000000000000000000000000815230600482015273ffffffffffffffffffffffffffffffffffffffff848116602483015260209592949293811692918681604481875afa9081156153b9579085915f916153c3575b50106152d8575b505050505050565b84517f095ea7b30000000000000000000000000000000000000000000000000000000091828252831660048201525f602482015286816044815f885af180156153b957879492615364979694925f9261539c575b508651978895869485938452600484016020909392919373ffffffffffffffffffffffffffffffffffffffff60408201951681520152565b03925af1908115614b6b575061537e575b808080806152d0565b8161539492903d1061054a5761053b8183613aa8565b505f80615375565b6153b290873d891161054a5761053b8183613aa8565b505f61532c565b86513d5f823e3d90fd5b809250888092503d83116153ed575b6153dc8183613aa8565b8101031261075c578490515f6152c9565b503d6153d2565b939093929192604051936020957fffffffffffffffffffffffffffffffffffffffff000000000000000000000000809360601b1687870152827e0bb800000000000000000000000000000000000000000000000000000000009182603489015260601b166037870152604b86015260601b16604e84015260428352608083019167ffffffffffffffff92848110848211176127a6576101208501938411818510176127a6575f61552591879560405286815260a0870173ffffffffffffffffffffffffffffffffffffffff809616815261010060c0890198428a5260e0810196875201838152866008541695604051998a98899788967fc04b8d590000000000000000000000000000000000000000000000000000000088528c60048901525160a0602489015260c4880190613942565b94511660448601525160648501525160848401525160a483015203925af1918215611c94575f9261555557505090565b90809250813d8311615578575b61556c8183613aa8565b8101031261075c575190565b503d615562565b90929160405191610100830183811067ffffffffffffffff8211176127a65760405273ffffffffffffffffffffffffffffffffffffffff938480921684528160208501961686526040840192610bb88452826060860192168252608085019042825260a0860190815260c08601915f83528460e08801945f8652816008541697826040519c8d9c8d9c7f414bf389000000000000000000000000000000000000000000000000000000008e52511660048d0152511660248b01525162ffffff1660448a0152511660648801525160848701525160a48601525160c4850152511660e48301525a925f61010492602095f1908115611c94575f91615680575090565b90506020813d60201161569b575b8161556c60209383613aa8565b3d915061568e565b600354811015613f645760035f527fc2575a0e9e593c00f959f8c92f12db2869c3395a3b0502d05e2516446f71f85b01905f90565b60ff7ff0c57e16840df040f15088dc2f81fe391c3923bec73e23a9662efc9c229c6a005460401c161561570757565b60046040517fd7e6bcf8000000000000000000000000000000000000000000000000000000008152fd5b805f52600460205260405f2054155f146157b057600354680100000000000000008110156127a65780600161576992016003556156a3565b81549060031b907fffffffffffffffffffffffffffffffffffffffffffffffffffffffffffffffff84831b921b1916179055600354905f52600460205260405f2055600190565b505f90565b906157f457508051156157ca57805190602001fd5b60046040517f1425ea42000000000000000000000000000000000000000000000000000000008152fd5b8151158061584c575b615805575090565b60249073ffffffffffffffffffffffffffffffffffffffff604051917f9996b315000000000000000000000000000000000000000000000000000000008352166004820152fd5b50803b156157fd56fea2646970667358221220320bbcd77dfa0d43ae10282e1917ba6583d9000fc71666a779c640b05bf5b7e864736f6c63430008190033",
  "linkReferences": {},
  "deployedLinkReferences": {}
}