{
  "_format": "hh-sol-artifact-1",
  "contractName": "BaluniV1Router",
  "sourceName": "contracts/BaluniV1Router.sol",
  "abi": [
    {
      "inputs": [
        {
          "internalType": "address",
          "name": "target",
          "type": "address"
        }
      ],
      "name": "AddressEmptyCode",
      "type": "error"
    },
    {
      "inputs": [
        {
          "internalType": "address",
          "name": "implementation",
          "type": "address"
        }
      ],
      "name": "ERC1967InvalidImplementation",
      "type": "error"
    },
    {
      "inputs": [],
      "name": "ERC1967NonPayable",
      "type": "error"
    },
    {
      "inputs": [
        {
          "internalType": "address",
          "name": "spender",
          "type": "address"
        },
        {
          "internalType": "uint256",
          "name": "allowance",
          "type": "uint256"
        },
        {
          "internalType": "uint256",
          "name": "needed",
          "type": "uint256"
        }
      ],
      "name": "ERC20InsufficientAllowance",
      "type": "error"
    },
    {
      "inputs": [
        {
          "internalType": "address",
          "name": "sender",
          "type": "address"
        },
        {
          "internalType": "uint256",
          "name": "balance",
          "type": "uint256"
        },
        {
          "internalType": "uint256",
          "name": "needed",
          "type": "uint256"
        }
      ],
      "name": "ERC20InsufficientBalance",
      "type": "error"
    },
    {
      "inputs": [
        {
          "internalType": "address",
          "name": "approver",
          "type": "address"
        }
      ],
      "name": "ERC20InvalidApprover",
      "type": "error"
    },
    {
      "inputs": [
        {
          "internalType": "address",
          "name": "receiver",
          "type": "address"
        }
      ],
      "name": "ERC20InvalidReceiver",
      "type": "error"
    },
    {
      "inputs": [
        {
          "internalType": "address",
          "name": "sender",
          "type": "address"
        }
      ],
      "name": "ERC20InvalidSender",
      "type": "error"
    },
    {
      "inputs": [
        {
          "internalType": "address",
          "name": "spender",
          "type": "address"
        }
      ],
      "name": "ERC20InvalidSpender",
      "type": "error"
    },
    {
      "inputs": [],
      "name": "FailedInnerCall",
      "type": "error"
    },
    {
      "inputs": [],
      "name": "InvalidInitialization",
      "type": "error"
    },
    {
      "inputs": [],
      "name": "NotInitializing",
      "type": "error"
    },
    {
      "inputs": [
        {
          "internalType": "address",
          "name": "owner",
          "type": "address"
        }
      ],
      "name": "OwnableInvalidOwner",
      "type": "error"
    },
    {
      "inputs": [
        {
          "internalType": "address",
          "name": "account",
          "type": "address"
        }
      ],
      "name": "OwnableUnauthorizedAccount",
      "type": "error"
    },
    {
      "inputs": [],
      "name": "ReentrancyGuardReentrantCall",
      "type": "error"
    },
    {
      "inputs": [],
      "name": "UUPSUnauthorizedCallContext",
      "type": "error"
    },
    {
      "inputs": [
        {
          "internalType": "bytes32",
          "name": "slot",
          "type": "bytes32"
        }
      ],
      "name": "UUPSUnsupportedProxiableUUID",
      "type": "error"
    },
    {
      "anonymous": false,
      "inputs": [
        {
          "indexed": true,
          "internalType": "address",
          "name": "owner",
          "type": "address"
        },
        {
          "indexed": true,
          "internalType": "address",
          "name": "spender",
          "type": "address"
        },
        {
          "indexed": false,
          "internalType": "uint256",
          "name": "value",
          "type": "uint256"
        }
      ],
      "name": "Approval",
      "type": "event"
    },
    {
      "anonymous": false,
      "inputs": [
        {
          "indexed": false,
          "internalType": "address",
          "name": "user",
          "type": "address"
        },
        {
          "indexed": false,
          "internalType": "uint256",
          "name": "value",
          "type": "uint256"
        }
      ],
      "name": "Burn",
      "type": "event"
    },
    {
      "anonymous": false,
      "inputs": [
        {
          "indexed": false,
          "internalType": "address",
          "name": "user",
          "type": "address"
        },
        {
          "components": [
            {
              "internalType": "address",
              "name": "to",
              "type": "address"
            },
            {
              "internalType": "uint256",
              "name": "value",
              "type": "uint256"
            },
            {
              "internalType": "bytes",
              "name": "data",
              "type": "bytes"
            }
          ],
          "indexed": false,
          "internalType": "struct IBaluniV1Agent.Call[]",
          "name": "calls",
          "type": "tuple[]"
        },
        {
          "indexed": false,
          "internalType": "address[]",
          "name": "tokensReturn",
          "type": "address[]"
        }
      ],
      "name": "Execute",
      "type": "event"
    },
    {
      "anonymous": false,
      "inputs": [
        {
          "indexed": false,
          "internalType": "uint64",
          "name": "version",
          "type": "uint64"
        }
      ],
      "name": "Initialized",
      "type": "event"
    },
    {
      "anonymous": false,
      "inputs": [
        {
          "indexed": false,
          "internalType": "string",
          "name": "message",
          "type": "string"
        },
        {
          "indexed": false,
          "internalType": "uint256",
          "name": "value",
          "type": "uint256"
        }
      ],
      "name": "Log",
      "type": "event"
    },
    {
      "anonymous": false,
      "inputs": [
        {
          "indexed": false,
          "internalType": "address",
          "name": "user",
          "type": "address"
        },
        {
          "indexed": false,
          "internalType": "uint256",
          "name": "value",
          "type": "uint256"
        }
      ],
      "name": "Mint",
      "type": "event"
    },
    {
      "anonymous": false,
      "inputs": [
        {
          "indexed": true,
          "internalType": "address",
          "name": "previousOwner",
          "type": "address"
        },
        {
          "indexed": true,
          "internalType": "address",
          "name": "newOwner",
          "type": "address"
        }
      ],
      "name": "OwnershipTransferred",
      "type": "event"
    },
    {
      "anonymous": false,
      "inputs": [
        {
          "indexed": true,
          "internalType": "address",
          "name": "from",
          "type": "address"
        },
        {
          "indexed": true,
          "internalType": "address",
          "name": "to",
          "type": "address"
        },
        {
          "indexed": false,
          "internalType": "uint256",
          "name": "value",
          "type": "uint256"
        }
      ],
      "name": "Transfer",
      "type": "event"
    },
    {
      "anonymous": false,
      "inputs": [
        {
          "indexed": true,
          "internalType": "address",
          "name": "implementation",
          "type": "address"
        }
      ],
      "name": "Upgraded",
      "type": "event"
    },
    {
      "inputs": [],
      "name": "UPGRADE_INTERFACE_VERSION",
      "outputs": [
        {
          "internalType": "string",
          "name": "",
          "type": "string"
        }
      ],
      "stateMutability": "view",
      "type": "function"
    },
    {
      "inputs": [
        {
          "internalType": "address",
          "name": "_token",
          "type": "address"
        }
      ],
      "name": "addToken",
      "outputs": [],
      "stateMutability": "nonpayable",
      "type": "function"
    },
    {
      "inputs": [
        {
          "internalType": "address",
          "name": "owner",
          "type": "address"
        },
        {
          "internalType": "address",
          "name": "spender",
          "type": "address"
        }
      ],
      "name": "allowance",
      "outputs": [
        {
          "internalType": "uint256",
          "name": "",
          "type": "uint256"
        }
      ],
      "stateMutability": "view",
      "type": "function"
    },
    {
      "inputs": [
        {
          "internalType": "address",
          "name": "spender",
          "type": "address"
        },
        {
          "internalType": "uint256",
          "name": "value",
          "type": "uint256"
        }
      ],
      "name": "approve",
      "outputs": [
        {
          "internalType": "bool",
          "name": "",
          "type": "bool"
        }
      ],
      "stateMutability": "nonpayable",
      "type": "function"
    },
    {
      "inputs": [
        {
          "internalType": "address",
          "name": "account",
          "type": "address"
        }
      ],
      "name": "balanceOf",
      "outputs": [
        {
          "internalType": "uint256",
          "name": "",
          "type": "uint256"
        }
      ],
      "stateMutability": "view",
      "type": "function"
    },
    {
      "inputs": [],
      "name": "baseAsset",
      "outputs": [
        {
          "internalType": "address",
          "name": "",
          "type": "address"
        }
      ],
      "stateMutability": "view",
      "type": "function"
    },
    {
      "inputs": [
        {
          "internalType": "uint256",
          "name": "burnAmount",
          "type": "uint256"
        }
      ],
      "name": "burnERC20",
      "outputs": [],
      "stateMutability": "nonpayable",
      "type": "function"
    },
    {
      "inputs": [
        {
          "internalType": "uint256",
          "name": "burnAmount",
          "type": "uint256"
        }
      ],
      "name": "burnUSDC",
      "outputs": [],
      "stateMutability": "nonpayable",
      "type": "function"
    },
    {
      "inputs": [
        {
          "internalType": "uint256",
          "name": "totalBaluni",
          "type": "uint256"
        },
        {
          "internalType": "uint256",
          "name": "totalERC20Balance",
          "type": "uint256"
        },
        {
          "internalType": "uint256",
          "name": "baluniAmount",
          "type": "uint256"
        },
        {
          "internalType": "uint256",
          "name": "tokenDecimals",
          "type": "uint256"
        }
      ],
      "name": "calculateTokenShare",
      "outputs": [
        {
          "internalType": "uint256",
          "name": "",
          "type": "uint256"
        }
      ],
      "stateMutability": "pure",
      "type": "function"
    },
    {
      "inputs": [
        {
          "internalType": "address[]",
          "name": "assets",
          "type": "address[]"
        },
        {
          "internalType": "uint256[]",
          "name": "weights",
          "type": "uint256[]"
        },
        {
          "internalType": "address",
          "name": "sender",
          "type": "address"
        },
        {
          "internalType": "address",
          "name": "receiver",
          "type": "address"
        },
        {
          "internalType": "uint256",
          "name": "limit",
          "type": "uint256"
        },
        {
          "internalType": "address",
          "name": "",
          "type": "address"
        }
      ],
      "name": "callRebalance",
      "outputs": [],
      "stateMutability": "nonpayable",
      "type": "function"
    },
    {
      "inputs": [],
      "name": "decimals",
      "outputs": [
        {
          "internalType": "uint8",
          "name": "",
          "type": "uint8"
        }
      ],
      "stateMutability": "view",
      "type": "function"
    },
    {
      "inputs": [
        {
          "components": [
            {
              "internalType": "address",
              "name": "to",
              "type": "address"
            },
            {
              "internalType": "uint256",
              "name": "value",
              "type": "uint256"
            },
            {
              "internalType": "bytes",
              "name": "data",
              "type": "bytes"
            }
          ],
          "internalType": "struct IBaluniV1Agent.Call[]",
          "name": "calls",
          "type": "tuple[]"
        },
        {
          "internalType": "address[]",
          "name": "tokensReturn",
          "type": "address[]"
        }
      ],
      "name": "execute",
      "outputs": [],
      "stateMutability": "nonpayable",
      "type": "function"
    },
    {
      "inputs": [
        {
          "internalType": "address",
          "name": "_user",
          "type": "address"
        }
      ],
      "name": "getAgentAddress",
      "outputs": [
        {
          "internalType": "address",
          "name": "",
          "type": "address"
        }
      ],
      "stateMutability": "view",
      "type": "function"
    },
    {
      "inputs": [],
      "name": "getTokens",
      "outputs": [
        {
          "internalType": "address[]",
          "name": "",
          "type": "address[]"
        }
      ],
      "stateMutability": "view",
      "type": "function"
    },
    {
      "inputs": [
        {
          "internalType": "uint256",
          "name": "amount",
          "type": "uint256"
        }
      ],
      "name": "getUSDCShareValue",
      "outputs": [
        {
          "internalType": "uint256",
          "name": "",
          "type": "uint256"
        }
      ],
      "stateMutability": "view",
      "type": "function"
    },
    {
      "inputs": [],
      "name": "getVersion",
      "outputs": [
        {
          "internalType": "uint64",
          "name": "",
          "type": "uint64"
        }
      ],
      "stateMutability": "view",
      "type": "function"
    },
    {
      "inputs": [
        {
          "internalType": "address",
          "name": "_registry",
          "type": "address"
        }
      ],
      "name": "initialize",
      "outputs": [],
      "stateMutability": "nonpayable",
      "type": "function"
    },
    {
      "inputs": [
        {
          "internalType": "address",
          "name": "token",
          "type": "address"
        }
      ],
      "name": "liquidate",
      "outputs": [],
      "stateMutability": "nonpayable",
      "type": "function"
    },
    {
      "inputs": [],
      "name": "liquidateAll",
      "outputs": [],
      "stateMutability": "nonpayable",
      "type": "function"
    },
    {
      "inputs": [
        {
          "internalType": "uint256",
          "name": "balAmountToMint",
          "type": "uint256"
        }
      ],
      "name": "mintWithUSDC",
      "outputs": [],
      "stateMutability": "nonpayable",
      "type": "function"
    },
    {
      "inputs": [],
      "name": "name",
      "outputs": [
        {
          "internalType": "string",
          "name": "",
          "type": "string"
        }
      ],
      "stateMutability": "view",
      "type": "function"
    },
    {
      "inputs": [],
      "name": "owner",
      "outputs": [
        {
          "internalType": "address",
          "name": "",
          "type": "address"
        }
      ],
      "stateMutability": "view",
      "type": "function"
    },
    {
      "inputs": [],
      "name": "proxiableUUID",
      "outputs": [
        {
          "internalType": "bytes32",
          "name": "",
          "type": "bytes32"
        }
      ],
      "stateMutability": "view",
      "type": "function"
    },
    {
      "inputs": [],
      "name": "registry",
      "outputs": [
        {
          "internalType": "contract IBaluniV1Registry",
          "name": "",
          "type": "address"
        }
      ],
      "stateMutability": "view",
      "type": "function"
    },
    {
      "inputs": [
        {
          "internalType": "address",
          "name": "_registry",
          "type": "address"
        },
        {
          "internalType": "uint64",
          "name": "version",
          "type": "uint64"
        }
      ],
      "name": "reinitialize",
      "outputs": [],
      "stateMutability": "nonpayable",
      "type": "function"
    },
    {
      "inputs": [],
      "name": "renounceOwnership",
      "outputs": [],
      "stateMutability": "nonpayable",
      "type": "function"
    },
    {
      "inputs": [
        {
          "internalType": "uint256",
          "name": "balAmountToMint",
          "type": "uint256"
        }
      ],
      "name": "requiredUSDCtoMint",
      "outputs": [
        {
          "internalType": "uint256",
          "name": "",
          "type": "uint256"
        }
      ],
      "stateMutability": "view",
      "type": "function"
    },
    {
      "inputs": [
        {
          "internalType": "address",
          "name": "_registry",
          "type": "address"
        }
      ],
      "name": "resetContract",
      "outputs": [],
      "stateMutability": "nonpayable",
      "type": "function"
    },
    {
      "inputs": [],
      "name": "symbol",
      "outputs": [
        {
          "internalType": "string",
          "name": "",
          "type": "string"
        }
      ],
      "stateMutability": "view",
      "type": "function"
    },
    {
      "inputs": [
        {
          "internalType": "uint256",
          "name": "amount",
          "type": "uint256"
        },
        {
          "internalType": "address",
          "name": "token",
          "type": "address"
        }
      ],
      "name": "tokenValuation",
      "outputs": [
        {
          "internalType": "uint256",
          "name": "",
          "type": "uint256"
        }
      ],
      "stateMutability": "view",
      "type": "function"
    },
    {
      "inputs": [],
      "name": "totalSupply",
      "outputs": [
        {
          "internalType": "uint256",
          "name": "",
          "type": "uint256"
        }
      ],
      "stateMutability": "view",
      "type": "function"
    },
    {
      "inputs": [],
      "name": "totalValuation",
      "outputs": [
        {
          "internalType": "uint256",
          "name": "",
          "type": "uint256"
        }
      ],
      "stateMutability": "view",
      "type": "function"
    },
    {
      "inputs": [
        {
          "internalType": "address",
          "name": "to",
          "type": "address"
        },
        {
          "internalType": "uint256",
          "name": "value",
          "type": "uint256"
        }
      ],
      "name": "transfer",
      "outputs": [
        {
          "internalType": "bool",
          "name": "",
          "type": "bool"
        }
      ],
      "stateMutability": "nonpayable",
      "type": "function"
    },
    {
      "inputs": [
        {
          "internalType": "address",
          "name": "from",
          "type": "address"
        },
        {
          "internalType": "address",
          "name": "to",
          "type": "address"
        },
        {
          "internalType": "uint256",
          "name": "value",
          "type": "uint256"
        }
      ],
      "name": "transferFrom",
      "outputs": [
        {
          "internalType": "bool",
          "name": "",
          "type": "bool"
        }
      ],
      "stateMutability": "nonpayable",
      "type": "function"
    },
    {
      "inputs": [
        {
          "internalType": "address",
          "name": "newOwner",
          "type": "address"
        }
      ],
      "name": "transferOwnership",
      "outputs": [],
      "stateMutability": "nonpayable",
      "type": "function"
    },
    {
      "inputs": [],
      "name": "unitPrice",
      "outputs": [
        {
          "internalType": "uint256",
          "name": "",
          "type": "uint256"
        }
      ],
      "stateMutability": "view",
      "type": "function"
    },
    {
      "inputs": [
        {
          "internalType": "address",
          "name": "newImplementation",
          "type": "address"
        },
        {
          "internalType": "bytes",
          "name": "data",
          "type": "bytes"
        }
      ],
      "name": "upgradeToAndCall",
      "outputs": [],
      "stateMutability": "payable",
      "type": "function"
    }
  ],
  "bytecode": "0x60a0604052306080523480156012575f80fd5b506080516157cd6100395f395f81816141090152818161413201526142e201526157cd5ff3fe60806040526004361061025d575f3560e01c806371ddcfb81161014b578063c4d66de8116100c6578063e73faa2d1161007c578063f2fde38b11610062578063f2fde38b1461074e578063fe0a4dd11461076d578063fe330a511461078c575f80fd5b8063e73faa2d1461071b578063eedc3c501461072f575f80fd5b8063d48bfca7116100ac578063d48bfca71461067a578063dd62ed3e14610699578063e67ad759146106fc575f80fd5b8063c4d66de81461063c578063cdf456e11461065b575f80fd5b806395d89b411161011b578063aa6ca80811610101578063aa6ca808146105b4578063aa95d893146105d5578063ad3cb1cc146105f4575f80fd5b806395d89b4114610581578063a9059cbb14610595575f80fd5b806371ddcfb8146104e85780637b103999146105075780638da5cb5b146105265780638f2248bc14610562575f80fd5b80632bdd955a116101db5780634f1ef286116101ab578063599f69f711610191578063599f69f71461046257806370a0823114610481578063715018a6146104d4575f80fd5b80634f1ef2861461043b57806352d1902d1461044e575f80fd5b80632bdd955a146103ce5780632f865568146103ed578063313ce5671461040c5780633c2066a914610427575f80fd5b806318160ddd1161023057806323b872dd1161021657806323b872dd1461036457806327d54a9214610383578063295b9300146103ba575f80fd5b806318160ddd146103085780631a168da214610345575f80fd5b806306fdde0314610261578063095ea7b31461028b5780630cfc7386146102ba5780630d8e6e2c146102db575b5f80fd5b34801561026c575f80fd5b506102756107ab565b6040516102829190614c00565b60405180910390f35b348015610296575f80fd5b506102aa6102a5366004614c26565b61087e565b6040519015158152602001610282565b3480156102c5575f80fd5b506102d96102d4366004614c50565b610897565b005b3480156102e6575f80fd5b506102ef610ef6565b60405167ffffffffffffffff9091168152602001610282565b348015610313575f80fd5b507f52c63247e1f47db19d5ce0460030c497f067ca4cebf71ba98eeadabe20bace02545b604051908152602001610282565b348015610350575f80fd5b506102d961035f366004614c50565b610f2e565b34801561036f575f80fd5b506102aa61037e366004614c67565b6114cd565b34801561038e575f80fd5b506103a261039d366004614ca5565b6114f2565b6040516001600160a01b039091168152602001610282565b3480156103c5575f80fd5b506103376115ed565b3480156103d9575f80fd5b506103376103e8366004614cc0565b6115f6565b3480156103f8575f80fd5b506102d9610407366004614ca5565b61170a565b348015610417575f80fd5b5060405160128152602001610282565b348015610432575f80fd5b506102d9611ac3565b6102d9610449366004614de1565b611b4b565b348015610459575f80fd5b50610337611b6a565b34801561046d575f80fd5b506102d961047c366004614e76565b611b98565b34801561048c575f80fd5b5061033761049b366004614ca5565b6001600160a01b03165f9081527f52c63247e1f47db19d5ce0460030c497f067ca4cebf71ba98eeadabe20bace00602052604090205490565b3480156104df575f80fd5b506102d9611d27565b3480156104f3575f80fd5b50610337610502366004614c50565b611d38565b348015610512575f80fd5b506002546103a2906001600160a01b031681565b348015610531575f80fd5b507f9016d09d72d40fdae2fd8ceac6b6234c7706214fd39c1cd1e609a0528c199300546001600160a01b03166103a2565b34801561056d575f80fd5b506102d961057c366004614f21565b611d42565b34801561058c575f80fd5b50610275611e99565b3480156105a0575f80fd5b506102aa6105af366004614c26565b611eea565b3480156105bf575f80fd5b506105c8611ef7565b6040516102829190614f9c565b3480156105e0575f80fd5b506103376105ef366004614c50565b611f02565b3480156105ff575f80fd5b506102756040518060400160405280600581526020017f352e302e3000000000000000000000000000000000000000000000000000000081525081565b348015610647575f80fd5b506102d9610656366004614ca5565b611f69565b348015610666575f80fd5b506003546103a2906001600160a01b031681565b348015610685575f80fd5b506102d9610694366004614ca5565b612260565b3480156106a4575f80fd5b506103376106b3366004614fae565b6001600160a01b039182165f9081527f52c63247e1f47db19d5ce0460030c497f067ca4cebf71ba98eeadabe20bace016020908152604080832093909416825291909152205490565b348015610707575f80fd5b506102d9610716366004614ca5565b612272565b348015610726575f80fd5b506103376122b4565b34801561073a575f80fd5b506102d9610749366004615072565b6122c6565b348015610759575f80fd5b506102d9610768366004614ca5565b612e7c565b348015610778575f80fd5b506102d9610787366004614c50565b612ecf565b348015610797575f80fd5b506103376107a6366004615181565b613b0c565b7f52c63247e1f47db19d5ce0460030c497f067ca4cebf71ba98eeadabe20bace0380546060917f52c63247e1f47db19d5ce0460030c497f067ca4cebf71ba98eeadabe20bace00916107fc906151b0565b80601f0160208091040260200160405190810160405280929190818152602001828054610828906151b0565b80156108735780601f1061084a57610100808354040283529160200191610873565b820191905f5260205f20905b81548152906001019060200180831161085657829003601f168201915b505050505091505090565b5f3361088b818585613b19565b60019150505b92915050565b61089f613b2b565b600254604080517f3b19e84a00000000000000000000000000000000000000000000000000000000815290515f926001600160a01b031691633b19e84a9160048083019260209291908290030181865afa1580156108ff573d5f803e3d5ffd5b505050506040513d601f19601f8201168201806040525081019061092391906151fb565b90505f60025f9054906101000a90046001600160a01b03166001600160a01b0316631bf01e9b6040518163ffffffff1660e01b8152600401602060405180830381865afa158015610976573d5f803e3d5ffd5b505050506040513d601f19601f8201168201806040525081019061099a91906151fb565b90505f60025f9054906101000a90046001600160a01b03166001600160a01b03166385462d6f6040518163ffffffff1660e01b8152600401602060405180830381865afa1580156109ed573d5f803e3d5ffd5b505050506040513d601f19601f82011682018060405250810190610a119190615216565b90505f60025f9054906101000a90046001600160a01b03166001600160a01b0316634f4608a26040518163ffffffff1660e01b8152600401602060405180830381865afa158015610a64573d5f803e3d5ffd5b505050506040513d601f19601f82011682018060405250810190610a889190615216565b90505f610a93613bac565b90505f610abe7f52c63247e1f47db19d5ce0460030c497f067ca4cebf71ba98eeadabe20bace025490565b90505f81610acc848a61525a565b610ad69190615271565b90506001600160a01b0386166323b872dd3330610af864e8d4a5100086615271565b6040517fffffffff0000000000000000000000000000000000000000000000000000000060e086901b1681526001600160a01b03938416600482015292909116602483015260448201526064016020604051808303815f875af1158015610b61573d5f803e3d5ffd5b505050506040513d601f19601f82011682018060405250810190610b8591906152a9565b506040517f70a082310000000000000000000000000000000000000000000000000000000081523360048201525f906001600160a01b038816906370a0823190602401602060405180830381865afa158015610be3573d5f803e3d5ffd5b505050506040513d601f19601f82011682018060405250810190610c079190615216565b6040517fdd62ed3e0000000000000000000000000000000000000000000000000000000081523360048201523060248201529091505f906001600160a01b0389169063dd62ed3e90604401602060405180830381865afa158015610c6d573d5f803e3d5ffd5b505050506040513d601f19601f82011682018060405250810190610c919190615216565b90505f8411610d0d5760405162461bcd60e51b815260206004820152602260248201527f546f74616c2042414c554e4920737570706c792063616e6e6f74206265207a6560448201527f726f00000000000000000000000000000000000000000000000000000000000060648201526084015b60405180910390fd5b610d1c64e8d4a5100084615271565b821015610d6b5760405162461bcd60e51b815260206004820152601c60248201527f555344432062616c616e636520697320696e73756666696369656e74000000006044820152606401610d04565b610d7a64e8d4a5100084615271565b811015610dc95760405162461bcd60e51b815260206004820152601960248201527f436865636b2074686520746f6b656e20616c6c6f77616e6365000000000000006044820152606401610d04565b610dd3338b613cae565b60408051338152602081018c90527f0f6798a560793a54c3bcfe86a93cde1e73087d944c0ea20544137d4121396885910160405180910390a15f8688610e1e64e8d4a5100087615271565b610e28919061525a565b610e329190615271565b6040517fa9059cbb0000000000000000000000000000000000000000000000000000000081526001600160a01b038c8116600483015260248201839052919250908a169063a9059cbb906044016020604051808303815f875af1158015610e9b573d5f803e3d5ffd5b505050506040513d601f19601f82011682018060405250810190610ebf91906152a9565b5050505050505050505050610ef360017f9b779b17422d0df92223018b32b4d1fa46e071723d6817e2486d003becc55f0055565b50565b5f610f297ff0c57e16840df040f15088dc2f81fe391c3923bec73e23a9662efc9c229c6a005467ffffffffffffffff1690565b905090565b610f36613b2b565b5f8111610fab5760405162461bcd60e51b815260206004820152602260248201527f4275726e20616d6f756e74206d7573742062652067726561746572207468616e60448201527f20300000000000000000000000000000000000000000000000000000000000006064820152608401610d04565b600254604080517f3b19e84a00000000000000000000000000000000000000000000000000000000815290515f926001600160a01b031691633b19e84a9160048083019260209291908290030181865afa15801561100b573d5f803e3d5ffd5b505050506040513d601f19601f8201168201806040525081019061102f91906151fb565b90506001600160a01b0381166110875760405162461bcd60e51b815260206004820152601060248201527f5472656173757279206e6f7420736574000000000000000000000000000000006044820152606401610d04565b335f9081527f52c63247e1f47db19d5ce0460030c497f067ca4cebf71ba98eeadabe20bace0060205260409020548211156111045760405162461bcd60e51b815260206004820152601060248201527f496e73756666696369656e742042414c000000000000000000000000000000006044820152606401610d04565b5f61110e83613d21565b9050828111156111605760405162461bcd60e51b815260206004820152601560248201527f4665652063616c63756c6174696f6e206572726f7200000000000000000000006044820152606401610d04565b61116e826105af83866152c8565b505f5b61117a5f613e30565b81101561145e575f61118c8183613e39565b90506001600160a01b0381166111e45760405162461bcd60e51b815260206004820152601560248201527f496e76616c696420746f6b656e206164647265737300000000000000000000006044820152606401610d04565b5f61120d7f52c63247e1f47db19d5ce0460030c497f067ca4cebf71ba98eeadabe20bace025490565b90505f811161125e5760405162461bcd60e51b815260206004820152601160248201527f546f74616c20737570706c7920697320300000000000000000000000000000006044820152606401610d04565b6040517f70a082310000000000000000000000000000000000000000000000000000000081523060048201525f906001600160a01b038416906370a0823190602401602060405180830381865afa1580156112bb573d5f803e3d5ffd5b505050506040513d601f19601f820116820180604052508101906112df9190615216565b90508015806112f657506001600160a01b03831630145b1561130357505050611456565b5f836001600160a01b031663313ce5676040518163ffffffff1660e01b8152600401602060405180830381865afa158015611340573d5f803e3d5ffd5b505050506040513d601f19601f8201168201806040525081019061136491906152db565b60ff1690505f61137684848985613e44565b9050828111156113c85760405162461bcd60e51b815260206004820152601760248201527f53686172652063616c63756c6174696f6e206572726f720000000000000000006044820152606401610d04565b6040517fa9059cbb000000000000000000000000000000000000000000000000000000008152336004820152602481018290526001600160a01b0386169063a9059cbb906044016020604051808303815f875af115801561142b573d5f803e3d5ffd5b505050506040513d601f19601f8201168201806040525081019061144f91906152a9565b5050505050505b600101611171565b506114693382613f50565b60408051338152602081018390527fcc16f5dbb4873280815c1ee09dbd06736cffcc184412cf7a71a0fdb75d397ca5910160405180910390a15050610ef360017f9b779b17422d0df92223018b32b4d1fa46e071723d6817e2486d003becc55f0055565b5f336114da858285613f9d565b6114e585858561406f565b60019150505b9392505050565b5f8060025f9054906101000a90046001600160a01b03166001600160a01b031663f5d2d9986040518163ffffffff1660e01b8152600401602060405180830381865afa158015611544573d5f803e3d5ffd5b505050506040513d601f19601f8201168201806040525081019061156891906151fb565b6040517f27d54a920000000000000000000000000000000000000000000000000000000081526001600160a01b038581166004830152919250908216906327d54a9290602401602060405180830381865afa1580156115c9573d5f803e3d5ffd5b505050506040513d601f19601f820116820180604052508101906114eb91906151fb565b5f610f29613bac565b5f8060025f9054906101000a90046001600160a01b03166001600160a01b031663bb3ba04c6040518163ffffffff1660e01b8152600401602060405180830381865afa158015611648573d5f803e3d5ffd5b505050506040513d601f19601f8201168201806040525081019061166c91906151fb565b6003546040517fb27b5e750000000000000000000000000000000000000000000000000000000081526001600160a01b03868116600483015291821660248201526044810187905291925082169063b27b5e7590606401602060405180830381865afa1580156116de573d5f803e3d5ffd5b505050506040513d601f19601f820116820180604052508101906117029190615216565b949350505050565b600254604080517f6c9c007800000000000000000000000000000000000000000000000000000000815290515f926001600160a01b031691636c9c00789160048083019260209291908290030181865afa15801561176a573d5f803e3d5ffd5b505050506040513d601f19601f8201168201806040525081019061178e91906151fb565b90505f60025f9054906101000a90046001600160a01b03166001600160a01b03166382755ebb6040518163ffffffff1660e01b8152600401602060405180830381865afa1580156117e1573d5f803e3d5ffd5b505050506040513d601f19601f8201168201806040525081019061180591906151fb565b6040517f70a082310000000000000000000000000000000000000000000000000000000081523060048201529091505f906001600160a01b038516906370a0823190602401602060405180830381865afa158015611865573d5f803e3d5ffd5b505050506040513d601f19601f820116820180604052508101906118899190615216565b6040517f095ea7b30000000000000000000000000000000000000000000000000000000081526001600160a01b038481166004830152602482018390529192508215159186169063095ea7b3906044016020604051808303815f875af11580156118f5573d5f803e3d5ffd5b505050506040513d601f19601f8201168201806040525081019061191991906152a9565b5080611926575050505050565b6003546040517f2d6bc8ea0000000000000000000000000000000000000000000000000000000081526001600160a01b03878116600483015291821660248201526044810184905230606482015290841690632d6bc8ea906084016020604051808303815f875af19250505080156119bb575060408051601f3d908101601f191682019092526119b891810190615216565b60015b611ab4576003546040517f5efaaebb0000000000000000000000000000000000000000000000000000000081526001600160a01b03878116600483015286811660248301529182166044820152606481018490523060848201525f91851690635efaaebb9060a4016020604051808303815f875af1158015611a3f573d5f803e3d5ffd5b505050506040513d601f19601f82011682018060405250810190611a639190615216565b90505f8111611ab45760405162461bcd60e51b815260206004820181905260248201527f4d75746920486f702053776170204661696c65642c20547279204275726e28296044820152606401610d04565b505050505050565b5050505050565b611acb613b2b565b5f611ad55f613e30565b90505f5b81811015611b1e575f611aec8183613e39565b6003549091506001600160a01b0390811690821603611b0b5750611b16565b611b148161170a565b505b600101611ad9565b5050611b4960017f9b779b17422d0df92223018b32b4d1fa46e071723d6817e2486d003becc55f0055565b565b611b536140fe565b611b5c826141ce565b611b6682826141d6565b5050565b5f611b736142d7565b507f360894a13ba1a3210667c828492db98dca3e2076cc3735a920a3ca505d382bbc90565b600254604080517f1bf01e9b00000000000000000000000000000000000000000000000000000000815290515f926001600160a01b031691631bf01e9b9160048083019260209291908290030181865afa158015611bf8573d5f803e3d5ffd5b505050506040513d601f19601f82011682018060405250810190611c1c91906151fb565b90505f60025f9054906101000a90046001600160a01b03166001600160a01b031663cff49d686040518163ffffffff1660e01b8152600401602060405180830381865afa158015611c6f573d5f803e3d5ffd5b505050506040513d601f19601f82011682018060405250810190611c9391906151fb565b604080515f815260208101918290527ff0bf7714000000000000000000000000000000000000000000000000000000009091529091506001600160a01b03821663f0bf7714611ced838e8e8e8e8c8f8f8d60248901615380565b5f604051808303815f87803b158015611d04575f80fd5b505af1158015611d16573d5f803e3d5ffd5b505050505050505050505050505050565b611d2f614339565b611b495f6143ad565b5f61089182614435565b7ff0c57e16840df040f15088dc2f81fe391c3923bec73e23a9662efc9c229c6a00805482919068010000000000000000900460ff1680611d905750805467ffffffffffffffff808416911610155b15611dc7576040517ff92ee8a900000000000000000000000000000000000000000000000000000000815260040160405180910390fd5b80546801000000000000000067ffffffffffffffff84167fffffffffffffffffffffffffffffffffffffffffffffff0000000000000000009092168217178255600280547fffffffffffffffffffffffff0000000000000000000000000000000000000000166001600160a01b03871617905581547fffffffffffffffffffffffffffffffffffffffffffffff00ffffffffffffffff1682556040519081527fc7f505b2f371ae2175ee4913f4499e1f2633a7b5936321eed1cdaeb6115181d29060200160405180910390a150505050565b7f52c63247e1f47db19d5ce0460030c497f067ca4cebf71ba98eeadabe20bace0480546060917f52c63247e1f47db19d5ce0460030c497f067ca4cebf71ba98eeadabe20bace00916107fc906151b0565b5f3361088b81858561406f565b6060610f295f6144d0565b5f80611f0c613bac565b90505f611f377f52c63247e1f47db19d5ce0460030c497f067ca4cebf71ba98eeadabe20bace025490565b90505f81611f45848761525a565b611f4f9190615271565b9050611f6064e8d4a5100082615271565b95945050505050565b7ff0c57e16840df040f15088dc2f81fe391c3923bec73e23a9662efc9c229c6a00805468010000000000000000810460ff16159067ffffffffffffffff165f81158015611fb35750825b90505f8267ffffffffffffffff166001148015611fcf5750303b155b905081158015611fdd575080155b15612014576040517ff92ee8a900000000000000000000000000000000000000000000000000000000815260040160405180910390fd5b84547fffffffffffffffffffffffffffffffffffffffffffffffff000000000000000016600117855583156120755784547fffffffffffffffffffffffffffffffffffffffffffffff00ffffffffffffffff16680100000000000000001785555b6120e96040518060400160405280600681526020017f42616c756e6900000000000000000000000000000000000000000000000000008152506040518060400160405280600681526020017f42414c554e4900000000000000000000000000000000000000000000000000008152506144dc565b6120f2336144ee565b6120fa6144ff565b61210261450f565b61211430670de0b6b3a7640000613cae565b600280547fffffffffffffffffffffffff0000000000000000000000000000000000000000166001600160a01b038816908117909155604080517f1bf01e9b0000000000000000000000000000000000000000000000000000000081529051631bf01e9b916004808201926020929091908290030181865afa15801561219c573d5f803e3d5ffd5b505050506040513d601f19601f820116820180604052508101906121c091906151fb565b600380547fffffffffffffffffffffffff0000000000000000000000000000000000000000166001600160a01b03929092169190911790558315611ab45784547fffffffffffffffffffffffffffffffffffffffffffffff00ffffffffffffffff168555604051600181527fc7f505b2f371ae2175ee4913f4499e1f2633a7b5936321eed1cdaeb6115181d29060200160405180910390a1505050505050565b612268614339565b611b665f82614517565b61227a614339565b600280547fffffffffffffffffffffffff0000000000000000000000000000000000000000166001600160a01b0392909216919091179055565b5f610f29670de0b6b3a7640000614435565b6122ce613b2b565b600254604080517ff5d2d99800000000000000000000000000000000000000000000000000000000815290515f926001600160a01b03169163f5d2d9989160048083019260209291908290030181865afa15801561232e573d5f803e3d5ffd5b505050506040513d601f19601f8201168201806040525081019061235291906151fb565b90505f60025f9054906101000a90046001600160a01b03166001600160a01b0316633e6dfa366040518163ffffffff1660e01b8152600401602060405180830381865afa1580156123a5573d5f803e3d5ffd5b505050506040513d601f19601f820116820180604052508101906123c991906151fb565b90505f60025f9054906101000a90046001600160a01b03166001600160a01b0316636c9c00786040518163ffffffff1660e01b8152600401602060405180830381865afa15801561241c573d5f803e3d5ffd5b505050506040513d601f19601f8201168201806040525081019061244091906151fb565b90505f60025f9054906101000a90046001600160a01b03166001600160a01b0316631bf01e9b6040518163ffffffff1660e01b8152600401602060405180830381865afa158015612493573d5f803e3d5ffd5b505050506040513d601f19601f820116820180604052508101906124b791906151fb565b90506001600160a01b03841661250f5760405162461bcd60e51b815260206004820152601560248201527f4167656e7420666163746f7279206e6f742073657400000000000000000000006044820152606401610d04565b6040517f9b76a5cd0000000000000000000000000000000000000000000000000000000081523360048201525f906001600160a01b03861690639b76a5cd906024016020604051808303815f875af115801561256d573d5f803e3d5ffd5b505050506040513d601f19601f8201168201806040525081019061259191906151fb565b90505f865167ffffffffffffffff8111156125ae576125ae614cee565b6040519080825280602002602001820160405280156125d7578160200160208202803683370190505b5090505f875167ffffffffffffffff8111156125f5576125f5614cee565b60405190808252806020026020018201604052801561261e578160200160208202803683370190505b5090505f5b88518110156127365761264f5f8a83815181106126425761264261542f565b602002602001015161452b565b158382815181106126625761266261542f565b6020026020010190151590811515815250508881815181106126865761268661542f565b60209081029190910101516040517f70a082310000000000000000000000000000000000000000000000000000000081523060048201526001600160a01b03909116906370a0823190602401602060405180830381865afa1580156126ed573d5f803e3d5ffd5b505050506040513d601f19601f820116820180604052508101906127119190615216565b8282815181106127235761272361542f565b6020908102919091010152600101612623565b506040517feedc3c500000000000000000000000000000000000000000000000000000000081526001600160a01b0384169063eedc3c509061277e908c908c9060040161545c565b5f604051808303815f87803b158015612795575f80fd5b505af11580156127a7573d5f803e3d5ffd5b505050505f5b8851811015612e4a575f8982815181106127c9576127c961542f565b60209081029190910101516040517f70a082310000000000000000000000000000000000000000000000000000000081523060048201529091505f906001600160a01b038316906370a0823190602401602060405180830381865afa158015612834573d5f803e3d5ffd5b505050506040513d601f19601f820116820180604052508101906128589190615216565b6040517f1698ee820000000000000000000000000000000000000000000000000000000081526001600160a01b0384811660048301528a81166024830152610bb860448301529192505f918b1690631698ee8290606401602060405180830381865afa1580156128ca573d5f803e3d5ffd5b505050506040513d601f19601f820116820180604052508101906128ee91906151fb565b6040517f1698ee820000000000000000000000000000000000000000000000000000000081526001600160a01b0385811660048301528b811660248301526101f460448301529192505f918c1690631698ee8290606401602060405180830381865afa158015612960573d5f803e3d5ffd5b505050506040513d601f19601f8201168201806040525081019061298491906151fb565b6040517f1698ee820000000000000000000000000000000000000000000000000000000081526001600160a01b0386811660048301528b811660248301526101f460448301529192505f918d1690631698ee8290606401602060405180830381865afa1580156129f6573d5f803e3d5ffd5b505050506040513d601f19601f82011682018060405250810190612a1a91906151fb565b6040517f1698ee820000000000000000000000000000000000000000000000000000000081526001600160a01b0387811660048301528c81166024830152610bb860448301529192505f918e1690631698ee8290606401602060405180830381865afa158015612a8c573d5f803e3d5ffd5b505050506040513d601f19601f82011682018060405250810190612ab091906151fb565b90505f6001600160a01b038516151580612ad257506001600160a01b03841615155b80612ae557506001600160a01b03821615155b80612af857506001600160a01b03831615155b9050898881518110612b0c57612b0c61542f565b60200260200101518015612b1d5750805b15612b2e57612b2c5f88614517565b505b5f898981518110612b4157612b4161542f565b602002602001015187612b5491906152c8565b905081612bf8576040517fa9059cbb000000000000000000000000000000000000000000000000000000008152336004820152602481018290526001600160a01b0389169063a9059cbb906044016020604051808303815f875af1158015612bbe573d5f803e3d5ffd5b505050506040513d601f19601f82011682018060405250810190612be291906152a9565b5050505050505050505050505050505050612e53565b600254604080517f3b19e84a00000000000000000000000000000000000000000000000000000000815290515f926001600160a01b031691633b19e84a9160048083019260209291908290030181865afa158015612c58573d5f803e3d5ffd5b505050506040513d601f19601f82011682018060405250810190612c7c91906151fb565b90505f60025f9054906101000a90046001600160a01b03166001600160a01b03166385462d6f6040518163ffffffff1660e01b8152600401602060405180830381865afa158015612ccf573d5f803e3d5ffd5b505050506040513d601f19601f82011682018060405250810190612cf39190615216565b90505f60025f9054906101000a90046001600160a01b03166001600160a01b0316634f4608a26040518163ffffffff1660e01b8152600401602060405180830381865afa158015612d46573d5f803e3d5ffd5b505050506040513d601f19601f82011682018060405250810190612d6a9190615216565b90508c8c81518110612d7e57612d7e61542f565b60200260200101518a1115612e33575f81612d99848761525a565b612da39190615271565b6040517fa9059cbb0000000000000000000000000000000000000000000000000000000081526001600160a01b03868116600483015260248201839052919250908d169063a9059cbb906044016020604051808303815f875af1158015612e0c573d5f803e3d5ffd5b505050506040513d601f19601f82011682018060405250810190612e3091906152a9565b50505b5050600190990198506127ad975050505050505050565b50505050505050505b611b6660017f9b779b17422d0df92223018b32b4d1fa46e071723d6817e2486d003becc55f0055565b612e84614339565b6001600160a01b038116612ec6576040517f1e4fbdf70000000000000000000000000000000000000000000000000000000081525f6004820152602401610d04565b610ef3816143ad565b612ed7613b2b565b5f8111612f4c5760405162461bcd60e51b815260206004820152602260248201527f4275726e20616d6f756e74206d7573742062652067726561746572207468616e60448201527f20300000000000000000000000000000000000000000000000000000000000006064820152608401610d04565b600254604080517f3e6dfa3600000000000000000000000000000000000000000000000000000000815290515f926001600160a01b031691633e6dfa369160048083019260209291908290030181865afa158015612fac573d5f803e3d5ffd5b505050506040513d601f19601f82011682018060405250810190612fd091906151fb565b90506001600160a01b0381166130285760405162461bcd60e51b815260206004820152601660248201527f556e6973776170466163746f7279206e6f7420736574000000000000000000006044820152606401610d04565b600254604080517f3b19e84a00000000000000000000000000000000000000000000000000000000815290515f926001600160a01b031691633b19e84a9160048083019260209291908290030181865afa158015613088573d5f803e3d5ffd5b505050506040513d601f19601f820116820180604052508101906130ac91906151fb565b90506001600160a01b0381166131045760405162461bcd60e51b815260206004820152601060248201527f5472656173757279206e6f7420736574000000000000000000000000000000006044820152606401610d04565b600254604080517f1bf01e9b00000000000000000000000000000000000000000000000000000000815290515f926001600160a01b031691631bf01e9b9160048083019260209291908290030181865afa158015613164573d5f803e3d5ffd5b505050506040513d601f19601f8201168201806040525081019061318891906151fb565b90506001600160a01b0381166131e05760405162461bcd60e51b815260206004820152600c60248201527f55534443206e6f742073657400000000000000000000000000000000000000006044820152606401610d04565b600254604080517f6c9c007800000000000000000000000000000000000000000000000000000000815290515f926001600160a01b031691636c9c00789160048083019260209291908290030181865afa158015613240573d5f803e3d5ffd5b505050506040513d601f19601f8201168201806040525081019061326491906151fb565b90506001600160a01b0381166132bc5760405162461bcd60e51b815260206004820152600f60248201527f574e4154495645206e6f742073657400000000000000000000000000000000006044820152606401610d04565b5f6132c686613d21565b9050858111156133185760405162461bcd60e51b815260206004820152601560248201527f4665652063616c63756c6174696f6e206572726f7200000000000000000000006044820152606401610d04565b5f5b6133235f613e30565b811015613a9a575f6133358183613e39565b90506001600160a01b03811661338d5760405162461bcd60e51b815260206004820152601560248201527f496e76616c696420746f6b656e206164647265737300000000000000000000006044820152606401610d04565b5f6133b67f52c63247e1f47db19d5ce0460030c497f067ca4cebf71ba98eeadabe20bace025490565b90505f81116134075760405162461bcd60e51b815260206004820152601160248201527f546f74616c20737570706c7920697320300000000000000000000000000000006044820152606401610d04565b6040517f70a082310000000000000000000000000000000000000000000000000000000081523060048201525f906001600160a01b038416906370a0823190602401602060405180830381865afa158015613464573d5f803e3d5ffd5b505050506040513d601f19601f820116820180604052508101906134889190615216565b905080158061349f57506001600160a01b03831630145b156134ac57505050613a92565b5f836001600160a01b031663313ce5676040518163ffffffff1660e01b8152600401602060405180830381865afa1580156134e9573d5f803e3d5ffd5b505050506040513d601f19601f8201168201806040525081019061350d91906152db565b60ff169050613520896105af888e6152c8565b505f61352e84848985613e44565b9050828111156135805760405162461bcd60e51b815260206004820152601760248201527f53686172652063616c63756c6174696f6e206572726f720000000000000000006044820152606401610d04565b6003546001600160a01b0390811690861603613628576040517fa9059cbb000000000000000000000000000000000000000000000000000000008152336004820152602481018290526001600160a01b038a169063a9059cbb906044016020604051808303815f875af11580156135f9573d5f803e3d5ffd5b505050506040513d601f19601f8201168201806040525081019061361d91906152a9565b505050505050613a92565b600254604080517f82755ebb00000000000000000000000000000000000000000000000000000000815290515f926001600160a01b0316916382755ebb9160048083019260209291908290030181865afa158015613688573d5f803e3d5ffd5b505050506040513d601f19601f820116820180604052508101906136ac91906151fb565b90506001600160a01b0381166137045760405162461bcd60e51b815260206004820152601560248201527f42616c756e6953776170706572206e6f742073657400000000000000000000006044820152606401610d04565b6040517f095ea7b30000000000000000000000000000000000000000000000000000000081526001600160a01b0382811660048301526024820184905287169063095ea7b3906044016020604051808303815f875af1158015613769573d5f803e3d5ffd5b505050506040513d601f19601f8201168201806040525081019061378d91906152a9565b506003546040517f2d6bc8ea0000000000000000000000000000000000000000000000000000000081526001600160a01b03888116600483015291821660248201526044810184905233606482015290821690632d6bc8ea906084016020604051808303815f875af1925050508015613823575060408051601f3d908101601f1916820190925261382091810190615216565b60015b6139ae576003546040517f5efaaebb0000000000000000000000000000000000000000000000000000000081526001600160a01b0388811660048301528b811660248301529182166044820152606481018490523360848201525f91831690635efaaebb9060a4016020604051808303815f875af11580156138a7573d5f803e3d5ffd5b505050506040513d601f19601f820116820180604052508101906138cb9190615216565b90505f811161391c5760405162461bcd60e51b815260206004820152601360248201527f4d756c7469486f7053776170204661696c6564000000000000000000000000006044820152606401610d04565b6003546040517fa9059cbb000000000000000000000000000000000000000000000000000000008152336004820152602481018390526001600160a01b039091169063a9059cbb906044016020604051808303815f875af1158015613983573d5f803e3d5ffd5b505050506040513d601f19601f820116820180604052508101906139a791906152a9565b5050613a8b565b5f81116139fd5760405162461bcd60e51b815260206004820152600b60248201527f53776170204661696c65640000000000000000000000000000000000000000006044820152606401610d04565b6003546040517fa9059cbb000000000000000000000000000000000000000000000000000000008152336004820152602481018390526001600160a01b039091169063a9059cbb906044016020604051808303815f875af1158015613a64573d5f803e3d5ffd5b505050506040513d601f19601f82011682018060405250810190613a8891906152a9565b50505b5050505050505b60010161331a565b50613aa53382613f50565b60408051338152602081018390527fcc16f5dbb4873280815c1ee09dbd06736cffcc184412cf7a71a0fdb75d397ca5910160405180910390a15050505050610ef360017f9b779b17422d0df92223018b32b4d1fa46e071723d6817e2486d003becc55f0055565b5f611f6085858585613e44565b613b26838383600161454c565b505050565b7f9b779b17422d0df92223018b32b4d1fa46e071723d6817e2486d003becc55f0080547ffffffffffffffffffffffffffffffffffffffffffffffffffffffffffffffffe01613ba6576040517f3ee5aeb500000000000000000000000000000000000000000000000000000000815260040160405180910390fd5b60029055565b5f805f5b613bb95f613e30565b811015613ca8575f613bcb8183613e39565b6040517f70a082310000000000000000000000000000000000000000000000000000000081523060048201529091505f906001600160a01b038316906370a0823190602401602060405180830381865afa158015613c2b573d5f803e3d5ffd5b505050506040513d601f19601f82011682018060405250810190613c4f9190615216565b6003549091506001600160a01b0390811690831603613c8057613c778164e8d4a5100061525a565b94505050505090565b5f613c8b82846115f6565b9050613c978186615507565b94505060019092019150613bb09050565b50919050565b6001600160a01b038216613cf0576040517fec442f050000000000000000000000000000000000000000000000000000000081525f6004820152602401610d04565b611b665f8383614674565b60017f9b779b17422d0df92223018b32b4d1fa46e071723d6817e2486d003becc55f0055565b5f8060025f9054906101000a90046001600160a01b03166001600160a01b03166385462d6f6040518163ffffffff1660e01b8152600401602060405180830381865afa158015613d73573d5f803e3d5ffd5b505050506040513d601f19601f82011682018060405250810190613d979190615216565b90505f60025f9054906101000a90046001600160a01b03166001600160a01b0316634f4608a26040518163ffffffff1660e01b8152600401602060405180830381865afa158015613dea573d5f803e3d5ffd5b505050506040513d601f19601f82011682018060405250810190613e0e9190615216565b90505f81613e1c84826152c8565b613e26908761525a565b611f609190615271565b5f610891825490565b5f6114eb83836147d9565b5f808511613e945760405162461bcd60e51b815260206004820152601b60248201527f546f74616c20737570706c792063616e6e6f74206265207a65726f00000000006044820152606401610d04565b6012821115613ee55760405162461bcd60e51b815260206004820152601e60248201527f546f6b656e20646563696d616c732073686f756c64206265203c3d20313800006044820152606401610d04565b5f8080613ef38560126152c8565b613efe90600a615638565b90506012851015613f2657613f138189615271565b9250613f1f8187615271565b9150613f2d565b8792508591505b5f83613f39898561525a565b613f439190615271565b9998505050505050505050565b6001600160a01b038216613f92576040517f96c6fd1e0000000000000000000000000000000000000000000000000000000081525f6004820152602401610d04565b611b66825f83614674565b6001600160a01b038381165f9081527f52c63247e1f47db19d5ce0460030c497f067ca4cebf71ba98eeadabe20bace0160209081526040808320938616835292905220547fffffffffffffffffffffffffffffffffffffffffffffffffffffffffffffffff8114614069578181101561405b576040517ffb8f41b20000000000000000000000000000000000000000000000000000000081526001600160a01b03841660048201526024810182905260448101839052606401610d04565b61406984848484035f61454c565b50505050565b6001600160a01b0383166140b1576040517f96c6fd1e0000000000000000000000000000000000000000000000000000000081525f6004820152602401610d04565b6001600160a01b0382166140f3576040517fec442f050000000000000000000000000000000000000000000000000000000081525f6004820152602401610d04565b613b26838383614674565b306001600160a01b037f000000000000000000000000000000000000000000000000000000000000000016148061419757507f00000000000000000000000000000000000000000000000000000000000000006001600160a01b031661418b7f360894a13ba1a3210667c828492db98dca3e2076cc3735a920a3ca505d382bbc546001600160a01b031690565b6001600160a01b031614155b15611b49576040517fe07c8dba00000000000000000000000000000000000000000000000000000000815260040160405180910390fd5b610ef3614339565b816001600160a01b03166352d1902d6040518163ffffffff1660e01b8152600401602060405180830381865afa925050508015614230575060408051601f3d908101601f1916820190925261422d91810190615216565b60015b614271576040517f4c9c8ce30000000000000000000000000000000000000000000000000000000081526001600160a01b0383166004820152602401610d04565b7f360894a13ba1a3210667c828492db98dca3e2076cc3735a920a3ca505d382bbc81146142cd576040517faa1d49a400000000000000000000000000000000000000000000000000000000815260048101829052602401610d04565b613b2683836147ff565b306001600160a01b037f00000000000000000000000000000000000000000000000000000000000000001614611b49576040517fe07c8dba00000000000000000000000000000000000000000000000000000000815260040160405180910390fd5b3361436b7f9016d09d72d40fdae2fd8ceac6b6234c7706214fd39c1cd1e609a0528c199300546001600160a01b031690565b6001600160a01b031614611b49576040517f118cdaa7000000000000000000000000000000000000000000000000000000008152336004820152602401610d04565b7f9016d09d72d40fdae2fd8ceac6b6234c7706214fd39c1cd1e609a0528c19930080547fffffffffffffffffffffffff000000000000000000000000000000000000000081166001600160a01b03848116918217845560405192169182907f8be0079c531659141344cd1fd0a4f28419497f9722a3daafe3b4186f6b6457e0905f90a3505050565b5f8061445f7f52c63247e1f47db19d5ce0460030c497f067ca4cebf71ba98eeadabe20bace025490565b90505f81116144b05760405162461bcd60e51b815260206004820152601b60248201527f546f74616c20737570706c792063616e6e6f74206265207a65726f00000000006044820152606401610d04565b5f6144b9613bac565b9050816144c6828661525a565b6117029190615271565b60605f6114eb83614854565b6144e46148ad565b611b668282614914565b6144f66148ad565b610ef381614977565b6145076148ad565b611b4961497f565b611b496148ad565b5f6114eb836001600160a01b038416614987565b6001600160a01b0381165f90815260018301602052604081205415156114eb565b7f52c63247e1f47db19d5ce0460030c497f067ca4cebf71ba98eeadabe20bace006001600160a01b0385166145af576040517fe602df050000000000000000000000000000000000000000000000000000000081525f6004820152602401610d04565b6001600160a01b0384166145f1576040517f94280d620000000000000000000000000000000000000000000000000000000081525f6004820152602401610d04565b6001600160a01b038086165f90815260018301602090815260408083209388168352929052208390558115611abc57836001600160a01b0316856001600160a01b03167f8c5be1e5ebec7d5bd14f71427d1e84f3dd0314c0f7b2291e5b200ac8c7c3b9258560405161466591815260200190565b60405180910390a35050505050565b7f52c63247e1f47db19d5ce0460030c497f067ca4cebf71ba98eeadabe20bace006001600160a01b0384166146c15781816002015f8282546146b69190615507565b9091555061474a9050565b6001600160a01b0384165f908152602082905260409020548281101561472c576040517fe450d38c0000000000000000000000000000000000000000000000000000000081526001600160a01b03861660048201526024810182905260448101849052606401610d04565b6001600160a01b0385165f9081526020839052604090209083900390555b6001600160a01b038316614768576002810180548390039055614786565b6001600160a01b0383165f9081526020829052604090208054830190555b826001600160a01b0316846001600160a01b03167fddf252ad1be2c89b69c2b068fc378daa952ba7f163c4a11628f55a4df523b3ef846040516147cb91815260200190565b60405180910390a350505050565b5f825f0182815481106147ee576147ee61542f565b905f5260205f200154905092915050565b614808826149d3565b6040516001600160a01b038316907fbc7cd75a20ee27fd9adebab32041f755214dbc6bffa90cc0225b39da2e5c2d3b905f90a280511561484c57613b268282614a7a565b611b66614ae3565b6060815f018054806020026020016040519081016040528092919081815260200182805480156148a157602002820191905f5260205f20905b81548152602001906001019080831161488d575b50505050509050919050565b7ff0c57e16840df040f15088dc2f81fe391c3923bec73e23a9662efc9c229c6a005468010000000000000000900460ff16611b49576040517fd7e6bcf800000000000000000000000000000000000000000000000000000000815260040160405180910390fd5b61491c6148ad565b7f52c63247e1f47db19d5ce0460030c497f067ca4cebf71ba98eeadabe20bace007f52c63247e1f47db19d5ce0460030c497f067ca4cebf71ba98eeadabe20bace036149688482615687565b50600481016140698382615687565b612e846148ad565b613cfb6148ad565b5f8181526001830160205260408120546149cc57508154600181810184555f848152602080822090930184905584548482528286019093526040902091909155610891565b505f610891565b806001600160a01b03163b5f03614a21576040517f4c9c8ce30000000000000000000000000000000000000000000000000000000081526001600160a01b0382166004820152602401610d04565b7f360894a13ba1a3210667c828492db98dca3e2076cc3735a920a3ca505d382bbc80547fffffffffffffffffffffffff0000000000000000000000000000000000000000166001600160a01b0392909216919091179055565b60605f80846001600160a01b031684604051614a969190615781565b5f60405180830381855af49150503d805f8114614ace576040519150601f19603f3d011682016040523d82523d5f602084013e614ad3565b606091505b5091509150611f60858383614b1b565b3415611b49576040517fb398979f00000000000000000000000000000000000000000000000000000000815260040160405180910390fd5b606082614b3057614b2b82614b90565b6114eb565b8151158015614b4757506001600160a01b0384163b155b15614b89576040517f9996b3150000000000000000000000000000000000000000000000000000000081526001600160a01b0385166004820152602401610d04565b50806114eb565b805115614ba05780518082602001fd5b6040517f1425ea4200000000000000000000000000000000000000000000000000000000815260040160405180910390fd5b5f81518084528060208401602086015e5f602082860101526020601f19601f83011685010191505092915050565b602081525f6114eb6020830184614bd2565b6001600160a01b0381168114610ef3575f80fd5b5f8060408385031215614c37575f80fd5b8235614c4281614c12565b946020939093013593505050565b5f60208284031215614c60575f80fd5b5035919050565b5f805f60608486031215614c79575f80fd5b8335614c8481614c12565b92506020840135614c9481614c12565b929592945050506040919091013590565b5f60208284031215614cb5575f80fd5b81356114eb81614c12565b5f8060408385031215614cd1575f80fd5b823591506020830135614ce381614c12565b809150509250929050565b7f4e487b71000000000000000000000000000000000000000000000000000000005f52604160045260245ffd5b6040516060810167ffffffffffffffff81118282101715614d3e57614d3e614cee565b60405290565b604051601f8201601f1916810167ffffffffffffffff81118282101715614d6d57614d6d614cee565b604052919050565b5f82601f830112614d84575f80fd5b813567ffffffffffffffff811115614d9e57614d9e614cee565b614db16020601f19601f84011601614d44565b818152846020838601011115614dc5575f80fd5b816020850160208301375f918101602001919091529392505050565b5f8060408385031215614df2575f80fd5b8235614dfd81614c12565b9150602083013567ffffffffffffffff811115614e18575f80fd5b614e2485828601614d75565b9150509250929050565b5f8083601f840112614e3e575f80fd5b50813567ffffffffffffffff811115614e55575f80fd5b6020830191508360208260051b8501011115614e6f575f80fd5b9250929050565b5f805f805f805f8060c0898b031215614e8d575f80fd5b883567ffffffffffffffff80821115614ea4575f80fd5b614eb08c838d01614e2e565b909a50985060208b0135915080821115614ec8575f80fd5b50614ed58b828c01614e2e565b9097509550506040890135614ee981614c12565b93506060890135614ef981614c12565b92506080890135915060a0890135614f1081614c12565b809150509295985092959890939650565b5f8060408385031215614f32575f80fd5b8235614f3d81614c12565b9150602083013567ffffffffffffffff81168114614ce3575f80fd5b5f815180845260208085019450602084015f5b83811015614f915781516001600160a01b031687529582019590820190600101614f6c565b509495945050505050565b602081525f6114eb6020830184614f59565b5f8060408385031215614fbf575f80fd5b8235614fca81614c12565b91506020830135614ce381614c12565b5f67ffffffffffffffff821115614ff357614ff3614cee565b5060051b60200190565b5f82601f83011261500c575f80fd5b8135602061502161501c83614fda565b614d44565b8083825260208201915060208460051b870101935086841115615042575f80fd5b602086015b8481101561506757803561505a81614c12565b8352918301918301615047565b509695505050505050565b5f8060408385031215615083575f80fd5b823567ffffffffffffffff8082111561509a575f80fd5b818501915085601f8301126150ad575f80fd5b813560206150bd61501c83614fda565b82815260059290921b840181019181810190898411156150db575f80fd5b8286015b8481101561515e578035868111156150f5575f80fd5b87016060818d03601f190181131561510b575f80fd5b615113614d1b565b8683013561512081614c12565b815260408301358782015290820135908882111561513c575f80fd5b61514a8e8884860101614d75565b6040820152855250509183019183016150df565b5096505086013592505080821115615174575f80fd5b50614e2485828601614ffd565b5f805f8060808587031215615194575f80fd5b5050823594602084013594506040840135936060013592509050565b600181811c908216806151c457607f821691505b602082108103613ca8577f4e487b71000000000000000000000000000000000000000000000000000000005f52602260045260245ffd5b5f6020828403121561520b575f80fd5b81516114eb81614c12565b5f60208284031215615226575f80fd5b5051919050565b7f4e487b71000000000000000000000000000000000000000000000000000000005f52601160045260245ffd5b80820281158282048414176108915761089161522d565b5f826152a4577f4e487b71000000000000000000000000000000000000000000000000000000005f52601260045260245ffd5b500490565b5f602082840312156152b9575f80fd5b815180151581146114eb575f80fd5b818103818111156108915761089161522d565b5f602082840312156152eb575f80fd5b815160ff811681146114eb575f80fd5b8183525f60208085019450825f5b85811015614f9157813561531c81614c12565b6001600160a01b031687529582019590820190600101615309565b8183525f7f07ffffffffffffffffffffffffffffffffffffffffffffffffffffffffffffff831115615367575f80fd5b8260051b80836020870137939093016020019392505050565b60e08082528a519082018190525f90602090610100840190828e01845b828110156153b95781518452928401929084019060010161539d565b50505083810360208501526153cf818c8e6152fb565b91505082810360408401526153e581898b615337565b91505085606083015261540360808301866001600160a01b03169052565b6001600160a01b03841660a08301526001600160a01b03831660c08301529a9950505050505050505050565b7f4e487b71000000000000000000000000000000000000000000000000000000005f52603260045260245ffd5b5f6040808301604084528086518083526060925060608601915060608160051b8701016020808a015f5b848110156154f4578984037fffffffffffffffffffffffffffffffffffffffffffffffffffffffffffffffa0018652815180516001600160a01b0316855283810151848601528801518885018890526154e188860182614bd2565b9684019694505090820190600101615486565b505087820390880152613f438189614f59565b808201808211156108915761089161522d565b600181815b8085111561557357817fffffffffffffffffffffffffffffffffffffffffffffffffffffffffffffffff048211156155595761555961522d565b8085161561556657918102915b93841c939080029061551f565b509250929050565b5f8261558957506001610891565b8161559557505f610891565b81600181146155ab57600281146155b5576155d1565b6001915050610891565b60ff8411156155c6576155c661522d565b50506001821b610891565b5060208310610133831016604e8410600b84101617156155f4575081810a610891565b6155fe838361551a565b807fffffffffffffffffffffffffffffffffffffffffffffffffffffffffffffffff048211156156305761563061522d565b029392505050565b5f6114eb838361557b565b601f821115613b2657805f5260205f20601f840160051c810160208510156156685750805b601f840160051c820191505b81811015611abc575f8155600101615674565b815167ffffffffffffffff8111156156a1576156a1614cee565b6156b5816156af84546151b0565b84615643565b602080601f831160018114615707575f84156156d15750858301515b7fffffffffffffffffffffffffffffffffffffffffffffffffffffffffffffffff600386901b1c1916600185901b178555611ab4565b5f85815260208120601f198616915b8281101561573557888601518255948401946001909101908401615716565b508582101561577157878501517fffffffffffffffffffffffffffffffffffffffffffffffffffffffffffffffff600388901b60f8161c191681555b5050505050600190811b01905550565b5f82518060208501845e5f92019182525091905056fea2646970667358221220a1d4851e694bd0e3f11f1554d19a00d224a060d8bd4c1503f377c4a8d286298a64736f6c63430008190033",
  "linkReferences": {},
  "deployedLinkReferences": {}
}