{
  "_format": "hh-sol-artifact-1",
  "contractName": "BaluniV1Router",
  "sourceName": "contracts/BaluniV1Router.sol",
  "abi": [
    {
      "inputs": [
        {
          "internalType": "address",
          "name": "target",
          "type": "address"
        }
      ],
      "name": "AddressEmptyCode",
      "type": "error"
    },
    {
      "inputs": [
        {
          "internalType": "address",
          "name": "implementation",
          "type": "address"
        }
      ],
      "name": "ERC1967InvalidImplementation",
      "type": "error"
    },
    {
      "inputs": [],
      "name": "ERC1967NonPayable",
      "type": "error"
    },
    {
      "inputs": [
        {
          "internalType": "address",
          "name": "spender",
          "type": "address"
        },
        {
          "internalType": "uint256",
          "name": "allowance",
          "type": "uint256"
        },
        {
          "internalType": "uint256",
          "name": "needed",
          "type": "uint256"
        }
      ],
      "name": "ERC20InsufficientAllowance",
      "type": "error"
    },
    {
      "inputs": [
        {
          "internalType": "address",
          "name": "sender",
          "type": "address"
        },
        {
          "internalType": "uint256",
          "name": "balance",
          "type": "uint256"
        },
        {
          "internalType": "uint256",
          "name": "needed",
          "type": "uint256"
        }
      ],
      "name": "ERC20InsufficientBalance",
      "type": "error"
    },
    {
      "inputs": [
        {
          "internalType": "address",
          "name": "approver",
          "type": "address"
        }
      ],
      "name": "ERC20InvalidApprover",
      "type": "error"
    },
    {
      "inputs": [
        {
          "internalType": "address",
          "name": "receiver",
          "type": "address"
        }
      ],
      "name": "ERC20InvalidReceiver",
      "type": "error"
    },
    {
      "inputs": [
        {
          "internalType": "address",
          "name": "sender",
          "type": "address"
        }
      ],
      "name": "ERC20InvalidSender",
      "type": "error"
    },
    {
      "inputs": [
        {
          "internalType": "address",
          "name": "spender",
          "type": "address"
        }
      ],
      "name": "ERC20InvalidSpender",
      "type": "error"
    },
    {
      "inputs": [],
      "name": "FailedInnerCall",
      "type": "error"
    },
    {
      "inputs": [],
      "name": "InvalidInitialization",
      "type": "error"
    },
    {
      "inputs": [],
      "name": "NotInitializing",
      "type": "error"
    },
    {
      "inputs": [
        {
          "internalType": "address",
          "name": "owner",
          "type": "address"
        }
      ],
      "name": "OwnableInvalidOwner",
      "type": "error"
    },
    {
      "inputs": [
        {
          "internalType": "address",
          "name": "account",
          "type": "address"
        }
      ],
      "name": "OwnableUnauthorizedAccount",
      "type": "error"
    },
    {
      "inputs": [],
      "name": "ReentrancyGuardReentrantCall",
      "type": "error"
    },
    {
      "inputs": [],
      "name": "UUPSUnauthorizedCallContext",
      "type": "error"
    },
    {
      "inputs": [
        {
          "internalType": "bytes32",
          "name": "slot",
          "type": "bytes32"
        }
      ],
      "name": "UUPSUnsupportedProxiableUUID",
      "type": "error"
    },
    {
      "anonymous": false,
      "inputs": [
        {
          "indexed": true,
          "internalType": "address",
          "name": "owner",
          "type": "address"
        },
        {
          "indexed": true,
          "internalType": "address",
          "name": "spender",
          "type": "address"
        },
        {
          "indexed": false,
          "internalType": "uint256",
          "name": "value",
          "type": "uint256"
        }
      ],
      "name": "Approval",
      "type": "event"
    },
    {
      "anonymous": false,
      "inputs": [
        {
          "indexed": false,
          "internalType": "address",
          "name": "user",
          "type": "address"
        },
        {
          "indexed": false,
          "internalType": "uint256",
          "name": "value",
          "type": "uint256"
        }
      ],
      "name": "Burn",
      "type": "event"
    },
    {
      "anonymous": false,
      "inputs": [
        {
          "indexed": false,
          "internalType": "address",
          "name": "user",
          "type": "address"
        },
        {
          "components": [
            {
              "internalType": "address",
              "name": "to",
              "type": "address"
            },
            {
              "internalType": "uint256",
              "name": "value",
              "type": "uint256"
            },
            {
              "internalType": "bytes",
              "name": "data",
              "type": "bytes"
            }
          ],
          "indexed": false,
          "internalType": "struct IBaluniV1Agent.Call[]",
          "name": "calls",
          "type": "tuple[]"
        },
        {
          "indexed": false,
          "internalType": "address[]",
          "name": "tokensReturn",
          "type": "address[]"
        }
      ],
      "name": "Execute",
      "type": "event"
    },
    {
      "anonymous": false,
      "inputs": [
        {
          "indexed": false,
          "internalType": "uint64",
          "name": "version",
          "type": "uint64"
        }
      ],
      "name": "Initialized",
      "type": "event"
    },
    {
      "anonymous": false,
      "inputs": [
        {
          "indexed": false,
          "internalType": "string",
          "name": "message",
          "type": "string"
        },
        {
          "indexed": false,
          "internalType": "uint256",
          "name": "value",
          "type": "uint256"
        }
      ],
      "name": "Log",
      "type": "event"
    },
    {
      "anonymous": false,
      "inputs": [
        {
          "indexed": false,
          "internalType": "address",
          "name": "user",
          "type": "address"
        },
        {
          "indexed": false,
          "internalType": "uint256",
          "name": "value",
          "type": "uint256"
        }
      ],
      "name": "Mint",
      "type": "event"
    },
    {
      "anonymous": false,
      "inputs": [
        {
          "indexed": true,
          "internalType": "address",
          "name": "previousOwner",
          "type": "address"
        },
        {
          "indexed": true,
          "internalType": "address",
          "name": "newOwner",
          "type": "address"
        }
      ],
      "name": "OwnershipTransferred",
      "type": "event"
    },
    {
      "anonymous": false,
      "inputs": [
        {
          "indexed": true,
          "internalType": "address",
          "name": "from",
          "type": "address"
        },
        {
          "indexed": true,
          "internalType": "address",
          "name": "to",
          "type": "address"
        },
        {
          "indexed": false,
          "internalType": "uint256",
          "name": "value",
          "type": "uint256"
        }
      ],
      "name": "Transfer",
      "type": "event"
    },
    {
      "anonymous": false,
      "inputs": [
        {
          "indexed": true,
          "internalType": "address",
          "name": "implementation",
          "type": "address"
        }
      ],
      "name": "Upgraded",
      "type": "event"
    },
    {
      "inputs": [],
      "name": "UPGRADE_INTERFACE_VERSION",
      "outputs": [
        {
          "internalType": "string",
          "name": "",
          "type": "string"
        }
      ],
      "stateMutability": "view",
      "type": "function"
    },
    {
      "inputs": [
        {
          "internalType": "address",
          "name": "owner",
          "type": "address"
        },
        {
          "internalType": "address",
          "name": "spender",
          "type": "address"
        }
      ],
      "name": "allowance",
      "outputs": [
        {
          "internalType": "uint256",
          "name": "",
          "type": "uint256"
        }
      ],
      "stateMutability": "view",
      "type": "function"
    },
    {
      "inputs": [
        {
          "internalType": "address",
          "name": "spender",
          "type": "address"
        },
        {
          "internalType": "uint256",
          "name": "value",
          "type": "uint256"
        }
      ],
      "name": "approve",
      "outputs": [
        {
          "internalType": "bool",
          "name": "",
          "type": "bool"
        }
      ],
      "stateMutability": "nonpayable",
      "type": "function"
    },
    {
      "inputs": [
        {
          "internalType": "address",
          "name": "account",
          "type": "address"
        }
      ],
      "name": "balanceOf",
      "outputs": [
        {
          "internalType": "uint256",
          "name": "",
          "type": "uint256"
        }
      ],
      "stateMutability": "view",
      "type": "function"
    },
    {
      "inputs": [
        {
          "internalType": "uint256",
          "name": "burnAmount",
          "type": "uint256"
        }
      ],
      "name": "burnERC20",
      "outputs": [],
      "stateMutability": "nonpayable",
      "type": "function"
    },
    {
      "inputs": [
        {
          "internalType": "uint256",
          "name": "burnAmount",
          "type": "uint256"
        }
      ],
      "name": "burnUSDC",
      "outputs": [],
      "stateMutability": "nonpayable",
      "type": "function"
    },
    {
      "inputs": [
        {
          "internalType": "uint256",
          "name": "totalBaluni",
          "type": "uint256"
        },
        {
          "internalType": "uint256",
          "name": "totalERC20Balance",
          "type": "uint256"
        },
        {
          "internalType": "uint256",
          "name": "baluniAmount",
          "type": "uint256"
        },
        {
          "internalType": "uint256",
          "name": "tokenDecimals",
          "type": "uint256"
        }
      ],
      "name": "calculateTokenShare",
      "outputs": [
        {
          "internalType": "uint256",
          "name": "",
          "type": "uint256"
        }
      ],
      "stateMutability": "pure",
      "type": "function"
    },
    {
      "inputs": [
        {
          "internalType": "address[]",
          "name": "assets",
          "type": "address[]"
        },
        {
          "internalType": "uint256[]",
          "name": "weights",
          "type": "uint256[]"
        },
        {
          "internalType": "address",
          "name": "sender",
          "type": "address"
        },
        {
          "internalType": "address",
          "name": "receiver",
          "type": "address"
        },
        {
          "internalType": "uint256",
          "name": "limit",
          "type": "uint256"
        },
        {
          "internalType": "address",
          "name": "",
          "type": "address"
        }
      ],
      "name": "callRebalance",
      "outputs": [],
      "stateMutability": "nonpayable",
      "type": "function"
    },
    {
      "inputs": [],
      "name": "decimals",
      "outputs": [
        {
          "internalType": "uint8",
          "name": "",
          "type": "uint8"
        }
      ],
      "stateMutability": "view",
      "type": "function"
    },
    {
      "inputs": [
        {
          "components": [
            {
              "internalType": "address",
              "name": "to",
              "type": "address"
            },
            {
              "internalType": "uint256",
              "name": "value",
              "type": "uint256"
            },
            {
              "internalType": "bytes",
              "name": "data",
              "type": "bytes"
            }
          ],
          "internalType": "struct IBaluniV1Agent.Call[]",
          "name": "calls",
          "type": "tuple[]"
        },
        {
          "internalType": "address[]",
          "name": "tokensReturn",
          "type": "address[]"
        }
      ],
      "name": "execute",
      "outputs": [],
      "stateMutability": "nonpayable",
      "type": "function"
    },
    {
      "inputs": [
        {
          "internalType": "address",
          "name": "_user",
          "type": "address"
        }
      ],
      "name": "getAgentAddress",
      "outputs": [
        {
          "internalType": "address",
          "name": "",
          "type": "address"
        }
      ],
      "stateMutability": "view",
      "type": "function"
    },
    {
      "inputs": [],
      "name": "getTokens",
      "outputs": [
        {
          "internalType": "address[]",
          "name": "",
          "type": "address[]"
        }
      ],
      "stateMutability": "view",
      "type": "function"
    },
    {
      "inputs": [
        {
          "internalType": "uint256",
          "name": "amount",
          "type": "uint256"
        }
      ],
      "name": "getUSDCShareValue",
      "outputs": [
        {
          "internalType": "uint256",
          "name": "",
          "type": "uint256"
        }
      ],
      "stateMutability": "view",
      "type": "function"
    },
    {
      "inputs": [],
      "name": "getVersion",
      "outputs": [
        {
          "internalType": "uint64",
          "name": "",
          "type": "uint64"
        }
      ],
      "stateMutability": "view",
      "type": "function"
    },
    {
      "inputs": [
        {
          "internalType": "address",
          "name": "_registry",
          "type": "address"
        }
      ],
      "name": "initialize",
      "outputs": [],
      "stateMutability": "nonpayable",
      "type": "function"
    },
    {
      "inputs": [
        {
          "internalType": "address",
          "name": "token",
          "type": "address"
        }
      ],
      "name": "liquidate",
      "outputs": [],
      "stateMutability": "nonpayable",
      "type": "function"
    },
    {
      "inputs": [],
      "name": "liquidateAll",
      "outputs": [],
      "stateMutability": "nonpayable",
      "type": "function"
    },
    {
      "inputs": [
        {
          "internalType": "uint256",
          "name": "balAmountToMint",
          "type": "uint256"
        }
      ],
      "name": "mintWithUSDC",
      "outputs": [],
      "stateMutability": "nonpayable",
      "type": "function"
    },
    {
      "inputs": [
        {
          "internalType": "address",
          "name": "token0",
          "type": "address"
        },
        {
          "internalType": "address",
          "name": "token1",
          "type": "address"
        },
        {
          "internalType": "address",
          "name": "token2",
          "type": "address"
        },
        {
          "internalType": "uint256",
          "name": "amount",
          "type": "uint256"
        },
        {
          "internalType": "address",
          "name": "receiver",
          "type": "address"
        }
      ],
      "name": "multiHopSwap",
      "outputs": [
        {
          "internalType": "uint256",
          "name": "amountOut",
          "type": "uint256"
        }
      ],
      "stateMutability": "nonpayable",
      "type": "function"
    },
    {
      "inputs": [],
      "name": "name",
      "outputs": [
        {
          "internalType": "string",
          "name": "",
          "type": "string"
        }
      ],
      "stateMutability": "view",
      "type": "function"
    },
    {
      "inputs": [],
      "name": "owner",
      "outputs": [
        {
          "internalType": "address",
          "name": "",
          "type": "address"
        }
      ],
      "stateMutability": "view",
      "type": "function"
    },
    {
      "inputs": [],
      "name": "proxiableUUID",
      "outputs": [
        {
          "internalType": "bytes32",
          "name": "",
          "type": "bytes32"
        }
      ],
      "stateMutability": "view",
      "type": "function"
    },
    {
      "inputs": [],
      "name": "registry",
      "outputs": [
        {
          "internalType": "contract IBaluniV1Registry",
          "name": "",
          "type": "address"
        }
      ],
      "stateMutability": "view",
      "type": "function"
    },
    {
      "inputs": [
        {
          "internalType": "address",
          "name": "_registry",
          "type": "address"
        },
        {
          "internalType": "uint64",
          "name": "version",
          "type": "uint64"
        }
      ],
      "name": "reinitialize",
      "outputs": [],
      "stateMutability": "nonpayable",
      "type": "function"
    },
    {
      "inputs": [],
      "name": "renounceOwnership",
      "outputs": [],
      "stateMutability": "nonpayable",
      "type": "function"
    },
    {
      "inputs": [
        {
          "internalType": "uint256",
          "name": "balAmountToMint",
          "type": "uint256"
        }
      ],
      "name": "requiredUSDCtoMint",
      "outputs": [
        {
          "internalType": "uint256",
          "name": "",
          "type": "uint256"
        }
      ],
      "stateMutability": "view",
      "type": "function"
    },
    {
      "inputs": [
        {
          "internalType": "address",
          "name": "_registry",
          "type": "address"
        }
      ],
      "name": "resetContract",
      "outputs": [],
      "stateMutability": "nonpayable",
      "type": "function"
    },
    {
      "inputs": [
        {
          "internalType": "address",
          "name": "token0",
          "type": "address"
        },
        {
          "internalType": "address",
          "name": "token1",
          "type": "address"
        },
        {
          "internalType": "uint256",
          "name": "amount",
          "type": "uint256"
        },
        {
          "internalType": "address",
          "name": "receiver",
          "type": "address"
        }
      ],
      "name": "singleSwap",
      "outputs": [
        {
          "internalType": "uint256",
          "name": "amountOut",
          "type": "uint256"
        }
      ],
      "stateMutability": "nonpayable",
      "type": "function"
    },
    {
      "inputs": [],
      "name": "symbol",
      "outputs": [
        {
          "internalType": "string",
          "name": "",
          "type": "string"
        }
      ],
      "stateMutability": "view",
      "type": "function"
    },
    {
      "inputs": [
        {
          "internalType": "uint256",
          "name": "amount",
          "type": "uint256"
        },
        {
          "internalType": "address",
          "name": "token",
          "type": "address"
        }
      ],
      "name": "tokenValuation",
      "outputs": [
        {
          "internalType": "uint256",
          "name": "",
          "type": "uint256"
        }
      ],
      "stateMutability": "view",
      "type": "function"
    },
    {
      "inputs": [],
      "name": "totalSupply",
      "outputs": [
        {
          "internalType": "uint256",
          "name": "",
          "type": "uint256"
        }
      ],
      "stateMutability": "view",
      "type": "function"
    },
    {
      "inputs": [],
      "name": "totalValuation",
      "outputs": [
        {
          "internalType": "uint256",
          "name": "",
          "type": "uint256"
        }
      ],
      "stateMutability": "view",
      "type": "function"
    },
    {
      "inputs": [
        {
          "internalType": "address",
          "name": "to",
          "type": "address"
        },
        {
          "internalType": "uint256",
          "name": "value",
          "type": "uint256"
        }
      ],
      "name": "transfer",
      "outputs": [
        {
          "internalType": "bool",
          "name": "",
          "type": "bool"
        }
      ],
      "stateMutability": "nonpayable",
      "type": "function"
    },
    {
      "inputs": [
        {
          "internalType": "address",
          "name": "from",
          "type": "address"
        },
        {
          "internalType": "address",
          "name": "to",
          "type": "address"
        },
        {
          "internalType": "uint256",
          "name": "value",
          "type": "uint256"
        }
      ],
      "name": "transferFrom",
      "outputs": [
        {
          "internalType": "bool",
          "name": "",
          "type": "bool"
        }
      ],
      "stateMutability": "nonpayable",
      "type": "function"
    },
    {
      "inputs": [
        {
          "internalType": "address",
          "name": "newOwner",
          "type": "address"
        }
      ],
      "name": "transferOwnership",
      "outputs": [],
      "stateMutability": "nonpayable",
      "type": "function"
    },
    {
      "inputs": [],
      "name": "unitPrice",
      "outputs": [
        {
          "internalType": "uint256",
          "name": "",
          "type": "uint256"
        }
      ],
      "stateMutability": "view",
      "type": "function"
    },
    {
      "inputs": [
        {
          "internalType": "address",
          "name": "newImplementation",
          "type": "address"
        },
        {
          "internalType": "bytes",
          "name": "data",
          "type": "bytes"
        }
      ],
      "name": "upgradeToAndCall",
      "outputs": [],
      "stateMutability": "payable",
      "type": "function"
    }
  ],
  "bytecode": "0x60a0604052306080523480156012575f80fd5b50608051615d4e6100395f395f81816143080152818161433101526144e10152615d4e5ff3fe60806040526004361061025d575f3560e01c806370a082311161014b578063aa95d893116100c6578063e73faa2d1161007c578063f2fde38b11610062578063f2fde38b1461074e578063fe0a4dd11461076d578063fe330a511461078c575f80fd5b8063e73faa2d1461071b578063eedc3c501461072f575f80fd5b8063c4d66de8116100ac578063c4d66de81461067a578063dd62ed3e14610699578063e67ad759146106fc575f80fd5b8063aa95d89314610613578063ad3cb1cc14610632575f80fd5b80638da5cb5b1161011b57806395d89b411161010157806395d89b41146105bf578063a9059cbb146105d3578063aa6ca808146105f2575f80fd5b80638da5cb5b146105645780638f2248bc146105a0575f80fd5b806370a08231146104bf578063715018a61461051257806371ddcfb8146105265780637b10399914610545575f80fd5b80632bdd955a116101db5780633c2066a9116101ab57806352d1902d1161019157806352d1902d1461046d578063599f69f7146104815780635efaaebb146104a0575f80fd5b80633c2066a9146104465780634f1ef2861461045a575f80fd5b80632bdd955a146103ce5780632d6bc8ea146103ed5780632f8655681461040c578063313ce5671461042b575f80fd5b806318160ddd1161023057806323b872dd1161021657806323b872dd1461036457806327d54a9214610383578063295b9300146103ba575f80fd5b806318160ddd146103085780631a168da214610345575f80fd5b806306fdde0314610261578063095ea7b31461028b5780630cfc7386146102ba5780630d8e6e2c146102db575b5f80fd5b34801561026c575f80fd5b506102756107ab565b6040516102829190615147565b60405180910390f35b348015610296575f80fd5b506102aa6102a536600461516d565b61087e565b6040519015158152602001610282565b3480156102c5575f80fd5b506102d96102d4366004615197565b610897565b005b3480156102e6575f80fd5b506102ef610eab565b60405167ffffffffffffffff9091168152602001610282565b348015610313575f80fd5b507f52c63247e1f47db19d5ce0460030c497f067ca4cebf71ba98eeadabe20bace02545b604051908152602001610282565b348015610350575f80fd5b506102d961035f366004615197565b610ee3565b34801561036f575f80fd5b506102aa61037e3660046151ae565b6112bc565b34801561038e575f80fd5b506103a261039d3660046151ec565b6112e1565b6040516001600160a01b039091168152602001610282565b3480156103c5575f80fd5b506103376113dc565b3480156103d9575f80fd5b506103376103e8366004615207565b6113e5565b3480156103f8575f80fd5b50610337610407366004615235565b6113f0565b348015610417575f80fd5b506102d96104263660046151ec565b6115ea565b348015610436575f80fd5b5060405160128152602001610282565b348015610451575f80fd5b506102d961194a565b6102d961046836600461535f565b6119b6565b348015610478575f80fd5b506103376119d5565b34801561048c575f80fd5b506102d961049b3660046153f4565b611a03565b3480156104ab575f80fd5b506103376104ba36600461549f565b611b92565b3480156104ca575f80fd5b506103376104d93660046151ec565b6001600160a01b03165f9081527f52c63247e1f47db19d5ce0460030c497f067ca4cebf71ba98eeadabe20bace00602052604090205490565b34801561051d575f80fd5b506102d9611d8e565b348015610531575f80fd5b50610337610540366004615197565b611d9f565b348015610550575f80fd5b506003546103a2906001600160a01b031681565b34801561056f575f80fd5b507f9016d09d72d40fdae2fd8ceac6b6234c7706214fd39c1cd1e609a0528c199300546001600160a01b03166103a2565b3480156105ab575f80fd5b506102d96105ba366004615503565b611da9565b3480156105ca575f80fd5b50610275611edf565b3480156105de575f80fd5b506102aa6105ed36600461516d565b611f30565b3480156105fd575f80fd5b50610606611f3d565b604051610282919061557e565b34801561061e575f80fd5b5061033761062d366004615197565b611f49565b34801561063d575f80fd5b506102756040518060400160405280600581526020017f352e302e3000000000000000000000000000000000000000000000000000000081525081565b348015610685575f80fd5b506102d96106943660046151ec565b611fa7565b3480156106a4575f80fd5b506103376106b3366004615590565b6001600160a01b039182165f9081527f52c63247e1f47db19d5ce0460030c497f067ca4cebf71ba98eeadabe20bace016020908152604080832093909416825291909152205490565b348015610707575f80fd5b506102d96107163660046151ec565b6121b7565b348015610726575f80fd5b506103376121ee565b34801561073a575f80fd5b506102d9610749366004615654565b612200565b348015610759575f80fd5b506102d96107683660046151ec565b612cd7565b348015610778575f80fd5b506102d9610787366004615197565b612d2a565b348015610797575f80fd5b506103376107a6366004615763565b61355c565b7f52c63247e1f47db19d5ce0460030c497f067ca4cebf71ba98eeadabe20bace0380546060917f52c63247e1f47db19d5ce0460030c497f067ca4cebf71ba98eeadabe20bace00916107fc90615792565b80601f016020809104026020016040519081016040528092919081815260200182805461082890615792565b80156108735780601f1061084a57610100808354040283529160200191610873565b820191905f5260205f20905b81548152906001019060200180831161085657829003601f168201915b505050505091505090565b5f3361088b818585613569565b60019150505b92915050565b61089f61357b565b60035460408051631d8cf42560e11b815290515f926001600160a01b031691633b19e84a9160048083019260209291908290030181865afa1580156108e6573d5f803e3d5ffd5b505050506040513d601f19601f8201168201806040525081019061090a91906157c4565b90505f60035f9054906101000a90046001600160a01b03166001600160a01b0316631bf01e9b6040518163ffffffff1660e01b8152600401602060405180830381865afa15801561095d573d5f803e3d5ffd5b505050506040513d601f19601f8201168201806040525081019061098191906157c4565b90505f60035f9054906101000a90046001600160a01b03166001600160a01b03166385462d6f6040518163ffffffff1660e01b8152600401602060405180830381865afa1580156109d4573d5f803e3d5ffd5b505050506040513d601f19601f820116820180604052508101906109f891906157df565b90505f60035f9054906101000a90046001600160a01b03166001600160a01b0316634f4608a26040518163ffffffff1660e01b8152600401602060405180830381865afa158015610a4b573d5f803e3d5ffd5b505050506040513d601f19601f82011682018060405250810190610a6f91906157df565b90505f610a7a6135fc565b90505f610aa57f52c63247e1f47db19d5ce0460030c497f067ca4cebf71ba98eeadabe20bace025490565b90505f81610ab3848a61580a565b610abd9190615821565b90506001600160a01b0386166323b872dd3330610adf64e8d4a5100086615821565b6040517fffffffff0000000000000000000000000000000000000000000000000000000060e086901b1681526001600160a01b03938416600482015292909116602483015260448201526064016020604051808303815f875af1158015610b48573d5f803e3d5ffd5b505050506040513d601f19601f82011682018060405250810190610b6c9190615840565b506040516370a0823160e01b81523360048201525f906001600160a01b038816906370a0823190602401602060405180830381865afa158015610bb1573d5f803e3d5ffd5b505050506040513d601f19601f82011682018060405250810190610bd591906157df565b6040517fdd62ed3e0000000000000000000000000000000000000000000000000000000081523360048201523060248201529091505f906001600160a01b0389169063dd62ed3e90604401602060405180830381865afa158015610c3b573d5f803e3d5ffd5b505050506040513d601f19601f82011682018060405250810190610c5f91906157df565b90505f8411610cdb5760405162461bcd60e51b815260206004820152602260248201527f546f74616c2042414c554e4920737570706c792063616e6e6f74206265207a6560448201527f726f00000000000000000000000000000000000000000000000000000000000060648201526084015b60405180910390fd5b610cea64e8d4a5100084615821565b821015610d395760405162461bcd60e51b815260206004820152601c60248201527f555344432062616c616e636520697320696e73756666696369656e74000000006044820152606401610cd2565b610d4864e8d4a5100084615821565b811015610d975760405162461bcd60e51b815260206004820152601960248201527f436865636b2074686520746f6b656e20616c6c6f77616e6365000000000000006044820152606401610cd2565b610da1338b6136b8565b60408051338152602081018c90527f0f6798a560793a54c3bcfe86a93cde1e73087d944c0ea20544137d4121396885910160405180910390a15f8688610dec64e8d4a5100087615821565b610df6919061580a565b610e009190615821565b60405163a9059cbb60e01b81526001600160a01b038c8116600483015260248201839052919250908a169063a9059cbb906044016020604051808303815f875af1158015610e50573d5f803e3d5ffd5b505050506040513d601f19601f82011682018060405250810190610e749190615840565b5050505050505050505050610ea860017f9b779b17422d0df92223018b32b4d1fa46e071723d6817e2486d003becc55f0055565b50565b5f610ede7ff0c57e16840df040f15088dc2f81fe391c3923bec73e23a9662efc9c229c6a005467ffffffffffffffff1690565b905090565b610eeb61357b565b60035460408051631d8cf42560e11b815290515f926001600160a01b031691633b19e84a9160048083019260209291908290030181865afa158015610f32573d5f803e3d5ffd5b505050506040513d601f19601f82011682018060405250810190610f5691906157c4565b335f9081527f52c63247e1f47db19d5ce0460030c497f067ca4cebf71ba98eeadabe20bace006020526040902054909150821115610fd65760405162461bcd60e51b815260206004820152601060248201527f496e73756666696369656e742042414c000000000000000000000000000000006044820152606401610cd2565b5f5b610fe2600161372b565b81101561124e575f610ff5600183613734565b90505f6110207f52c63247e1f47db19d5ce0460030c497f067ca4cebf71ba98eeadabe20bace025490565b6040516370a0823160e01b81523060048201529091505f906001600160a01b038416906370a0823190602401602060405180830381865afa158015611067573d5f803e3d5ffd5b505050506040513d601f19601f8201168201806040525081019061108b91906157df565b90508015806110a257506001600160a01b03831630145b156110af57505050611246565b5f836001600160a01b031663313ce5676040518163ffffffff1660e01b8152600401602060405180830381865afa1580156110ec573d5f803e3d5ffd5b505050506040513d601f19601f82011682018060405250810190611110919061585f565b60ff1690505f61112284848a8561373f565b90505f61112e8261385c565b60405163a9059cbb60e01b8152336004820152602481018290529091506001600160a01b0387169063a9059cbb906044016020604051808303815f875af115801561117b573d5f803e3d5ffd5b505050506040513d601f19601f8201168201806040525081019061119f9190615840565b506001600160a01b03861663a9059cbb896111ba848661587f565b6040517fffffffff0000000000000000000000000000000000000000000000000000000060e085901b1681526001600160a01b03909216600483015260248201526044016020604051808303815f875af115801561121a573d5f803e3d5ffd5b505050506040513d601f19601f8201168201806040525081019061123e9190615840565b505050505050505b600101610fd8565b50611259338361396b565b60408051338152602081018490527fcc16f5dbb4873280815c1ee09dbd06736cffcc184412cf7a71a0fdb75d397ca5910160405180910390a150610ea860017f9b779b17422d0df92223018b32b4d1fa46e071723d6817e2486d003becc55f0055565b5f336112c98582856139b8565b6112d4858585613a6b565b60019150505b9392505050565b5f8060035f9054906101000a90046001600160a01b03166001600160a01b031663f5d2d9986040518163ffffffff1660e01b8152600401602060405180830381865afa158015611333573d5f803e3d5ffd5b505050506040513d601f19601f8201168201806040525081019061135791906157c4565b6040517f27d54a920000000000000000000000000000000000000000000000000000000081526001600160a01b038581166004830152919250908216906327d54a9290602401602060405180830381865afa1580156113b8573d5f803e3d5ffd5b505050506040513d601f19601f820116820180604052508101906112da91906157c4565b5f610ede6135fc565b5f6112da8383613afa565b5f3033036114405760405162461bcd60e51b815260206004820152600c60248201527f57726f6e672073656e64657200000000000000000000000000000000000000006044820152606401610cd2565b5f831161148f5760405162461bcd60e51b815260206004820152600b60248201527f416d6f756e7420697320300000000000000000000000000000000000000000006044820152606401610cd2565b6040516370a0823160e01b815233600482015283906001600160a01b038716906370a0823190602401602060405180830381865afa1580156114d3573d5f803e3d5ffd5b505050506040513d601f19601f820116820180604052508101906114f791906157df565b10156115455760405162461bcd60e51b815260206004820152601460248201527f496e73756666696369656e742042616c616e63650000000000000000000000006044820152606401610cd2565b6040517f23b872dd000000000000000000000000000000000000000000000000000000008152336004820152306024820152604481018490526001600160a01b038616906323b872dd906064016020604051808303815f875af11580156115ae573d5f803e3d5ffd5b505050506040513d601f19601f820116820180604052508101906115d29190615840565b506115df85858585613e50565b90505b949350505050565b600354604080517f1bf01e9b00000000000000000000000000000000000000000000000000000000815290515f926001600160a01b031691631bf01e9b9160048083019260209291908290030181865afa15801561164a573d5f803e3d5ffd5b505050506040513d601f19601f8201168201806040525081019061166e91906157c4565b90505f60035f9054906101000a90046001600160a01b03166001600160a01b0316636c9c00786040518163ffffffff1660e01b8152600401602060405180830381865afa1580156116c1573d5f803e3d5ffd5b505050506040513d601f19601f820116820180604052508101906116e591906157c4565b90505f60035f9054906101000a90046001600160a01b03166001600160a01b0316633e6dfa366040518163ffffffff1660e01b8152600401602060405180830381865afa158015611738573d5f803e3d5ffd5b505050506040513d601f19601f8201168201806040525081019061175c91906157c4565b6040516370a0823160e01b81523060048201529091505f906001600160a01b038616906370a0823190602401602060405180830381865afa1580156117a3573d5f803e3d5ffd5b505050506040513d601f19601f820116820180604052508101906117c791906157df565b604051630b4c774160e11b81526001600160a01b0387811660048301528681166024830152610bb860448301529192505f91841690631698ee8290606401602060405180830381865afa158015611820573d5f803e3d5ffd5b505050506040513d601f19601f8201168201806040525081019061184491906157c4565b90508115156001600160a01b0382161580159061185e5750805b156118c7575f61187088888630613e50565b90505f81116118c15760405162461bcd60e51b815260206004820152601760248201527f53776170204661696c65642c20547279204275726e28290000000000000000006044820152606401610cd2565b50611941565b6001600160a01b0382161580156118db5750805b15611941575f6118ee8887898730614114565b90505f811161193f5760405162461bcd60e51b815260206004820152601760248201527f53776170204661696c65642c20547279204275726e28290000000000000000006044820152606401610cd2565b505b50505050505050565b61195261357b565b5f61195d600161372b565b90505f5b81811015611989575f611975600183613734565b9050611980816115ea565b50600101611961565b50506119b460017f9b779b17422d0df92223018b32b4d1fa46e071723d6817e2486d003becc55f0055565b565b6119be6142fd565b6119c7826143cd565b6119d182826143d5565b5050565b5f6119de6144d6565b507f360894a13ba1a3210667c828492db98dca3e2076cc3735a920a3ca505d382bbc90565b600354604080517f1bf01e9b00000000000000000000000000000000000000000000000000000000815290515f926001600160a01b031691631bf01e9b9160048083019260209291908290030181865afa158015611a63573d5f803e3d5ffd5b505050506040513d601f19601f82011682018060405250810190611a8791906157c4565b90505f60035f9054906101000a90046001600160a01b03166001600160a01b031663cff49d686040518163ffffffff1660e01b8152600401602060405180830381865afa158015611ada573d5f803e3d5ffd5b505050506040513d601f19601f82011682018060405250810190611afe91906157c4565b604080515f815260208101918290527ff0bf7714000000000000000000000000000000000000000000000000000000009091529091506001600160a01b03821663f0bf7714611b58838e8e8e8e8c8f8f8d60248901615917565b5f604051808303815f87803b158015611b6f575f80fd5b505af1158015611b81573d5f803e3d5ffd5b505050505050505050505050505050565b5f303303611be25760405162461bcd60e51b815260206004820152600c60248201527f57726f6e672073656e64657200000000000000000000000000000000000000006044820152606401610cd2565b5f8311611c315760405162461bcd60e51b815260206004820152600b60248201527f416d6f756e7420697320300000000000000000000000000000000000000000006044820152606401610cd2565b6040516370a0823160e01b815233600482015283906001600160a01b038816906370a0823190602401602060405180830381865afa158015611c75573d5f803e3d5ffd5b505050506040513d601f19601f82011682018060405250810190611c9991906157df565b1015611ce75760405162461bcd60e51b815260206004820152601460248201527f496e73756666696369656e742042616c616e63650000000000000000000000006044820152606401610cd2565b6040517f23b872dd000000000000000000000000000000000000000000000000000000008152336004820152306024820152604481018490526001600160a01b038716906323b872dd906064016020604051808303815f875af1158015611d50573d5f803e3d5ffd5b505050506040513d601f19601f82011682018060405250810190611d749190615840565b50611d828686868686614114565b90505b95945050505050565b611d96614538565b6119b45f6145ac565b5f61089182614629565b7ff0c57e16840df040f15088dc2f81fe391c3923bec73e23a9662efc9c229c6a00805482919068010000000000000000900460ff1680611df75750805467ffffffffffffffff808416911610155b15611e2e576040517ff92ee8a900000000000000000000000000000000000000000000000000000000815260040160405180910390fd5b80546801000000000000000067ffffffffffffffff84167fffffffffffffffffffffffffffffffffffffffffffffff00000000000000000090921682171782556003805473ffffffffffffffffffffffffffffffffffffffff19166001600160a01b038716179055815468ff0000000000000000191682556040519081527fc7f505b2f371ae2175ee4913f4499e1f2633a7b5936321eed1cdaeb6115181d29060200160405180910390a150505050565b7f52c63247e1f47db19d5ce0460030c497f067ca4cebf71ba98eeadabe20bace0480546060917f52c63247e1f47db19d5ce0460030c497f067ca4cebf71ba98eeadabe20bace00916107fc90615792565b5f3361088b818585613a6b565b6060610ede60016146c4565b5f80611f536135fc565b90505f611f7e7f52c63247e1f47db19d5ce0460030c497f067ca4cebf71ba98eeadabe20bace025490565b90505f81611f8c848761580a565b611f969190615821565b9050611d8564e8d4a5100082615821565b7ff0c57e16840df040f15088dc2f81fe391c3923bec73e23a9662efc9c229c6a00805468010000000000000000810460ff16159067ffffffffffffffff165f81158015611ff15750825b90505f8267ffffffffffffffff16600114801561200d5750303b155b90508115801561201b575080155b15612052576040517ff92ee8a900000000000000000000000000000000000000000000000000000000815260040160405180910390fd5b84547fffffffffffffffffffffffffffffffffffffffffffffffff0000000000000000166001178555831561209d57845468ff00000000000000001916680100000000000000001785555b6121116040518060400160405280600681526020017f42616c756e6900000000000000000000000000000000000000000000000000008152506040518060400160405280600681526020017f42414c554e4900000000000000000000000000000000000000000000000000008152506146d0565b61211a336146e2565b6121226146f3565b61212a614703565b61213c30670de0b6b3a76400006136b8565b6003805473ffffffffffffffffffffffffffffffffffffffff19166001600160a01b03881617905583156121af57845468ff000000000000000019168555604051600181527fc7f505b2f371ae2175ee4913f4499e1f2633a7b5936321eed1cdaeb6115181d29060200160405180910390a15b505050505050565b6121bf614538565b6003805473ffffffffffffffffffffffffffffffffffffffff19166001600160a01b0392909216919091179055565b5f610ede670de0b6b3a7640000614629565b61220861357b565b600354604080517ff5d2d99800000000000000000000000000000000000000000000000000000000815290515f926001600160a01b03169163f5d2d9989160048083019260209291908290030181865afa158015612268573d5f803e3d5ffd5b505050506040513d601f19601f8201168201806040525081019061228c91906157c4565b90505f60035f9054906101000a90046001600160a01b03166001600160a01b0316633e6dfa366040518163ffffffff1660e01b8152600401602060405180830381865afa1580156122df573d5f803e3d5ffd5b505050506040513d601f19601f8201168201806040525081019061230391906157c4565b90505f60035f9054906101000a90046001600160a01b03166001600160a01b0316636c9c00786040518163ffffffff1660e01b8152600401602060405180830381865afa158015612356573d5f803e3d5ffd5b505050506040513d601f19601f8201168201806040525081019061237a91906157c4565b90505f60035f9054906101000a90046001600160a01b03166001600160a01b0316631bf01e9b6040518163ffffffff1660e01b8152600401602060405180830381865afa1580156123cd573d5f803e3d5ffd5b505050506040513d601f19601f820116820180604052508101906123f191906157c4565b90506001600160a01b0384166124495760405162461bcd60e51b815260206004820152601560248201527f4167656e7420666163746f7279206e6f742073657400000000000000000000006044820152606401610cd2565b6040517f9b76a5cd0000000000000000000000000000000000000000000000000000000081523360048201525f906001600160a01b03861690639b76a5cd906024016020604051808303815f875af11580156124a7573d5f803e3d5ffd5b505050506040513d601f19601f820116820180604052508101906124cb91906157c4565b90505f865167ffffffffffffffff8111156124e8576124e8615285565b604051908082528060200260200182016040528015612511578160200160208202803683370190505b5090505f875167ffffffffffffffff81111561252f5761252f615285565b604051908082528060200260200182016040528015612558578160200160208202803683370190505b5090505f5b88518110156126585761258a60018a838151811061257d5761257d6159c6565b602002602001015161470b565b1583828151811061259d5761259d6159c6565b6020026020010190151590811515815250508881815181106125c1576125c16159c6565b60209081029190910101516040516370a0823160e01b81523060048201526001600160a01b03909116906370a0823190602401602060405180830381865afa15801561260f573d5f803e3d5ffd5b505050506040513d601f19601f8201168201806040525081019061263391906157df565b828281518110612645576126456159c6565b602090810291909101015260010161255d565b506040517feedc3c500000000000000000000000000000000000000000000000000000000081526001600160a01b0384169063eedc3c50906126a0908c908c906004016159da565b5f604051808303815f87803b1580156126b7575f80fd5b505af11580156126c9573d5f803e3d5ffd5b505050505f5b8851811015612ca5575f8982815181106126eb576126eb6159c6565b60209081029190910101516040516370a0823160e01b81523060048201529091505f906001600160a01b038316906370a0823190602401602060405180830381865afa15801561273d573d5f803e3d5ffd5b505050506040513d601f19601f8201168201806040525081019061276191906157df565b604051630b4c774160e11b81526001600160a01b0384811660048301528a81166024830152610bb860448301529192505f918b1690631698ee8290606401602060405180830381865afa1580156127ba573d5f803e3d5ffd5b505050506040513d601f19601f820116820180604052508101906127de91906157c4565b604051630b4c774160e11b81526001600160a01b0385811660048301528b811660248301526101f460448301529192505f918c1690631698ee8290606401602060405180830381865afa158015612837573d5f803e3d5ffd5b505050506040513d601f19601f8201168201806040525081019061285b91906157c4565b604051630b4c774160e11b81526001600160a01b0386811660048301528b811660248301526101f460448301529192505f918d1690631698ee8290606401602060405180830381865afa1580156128b4573d5f803e3d5ffd5b505050506040513d601f19601f820116820180604052508101906128d891906157c4565b604051630b4c774160e11b81526001600160a01b0387811660048301528c81166024830152610bb860448301529192505f918e1690631698ee8290606401602060405180830381865afa158015612931573d5f803e3d5ffd5b505050506040513d601f19601f8201168201806040525081019061295591906157c4565b90505f6001600160a01b03851615158061297757506001600160a01b03841615155b8061298a57506001600160a01b03821615155b8061299d57506001600160a01b03831615155b90508988815181106129b1576129b16159c6565b602002602001015180156129c25750805b156129d4576129d260018861472c565b505b5f8989815181106129e7576129e76159c6565b6020026020010151876129fa919061587f565b905081612a855760405163a9059cbb60e01b8152336004820152602481018290526001600160a01b0389169063a9059cbb906044016020604051808303815f875af1158015612a4b573d5f803e3d5ffd5b505050506040513d601f19601f82011682018060405250810190612a6f9190615840565b5050505050505050505050505050505050612cae565b60035460408051631d8cf42560e11b815290515f926001600160a01b031691633b19e84a9160048083019260209291908290030181865afa158015612acc573d5f803e3d5ffd5b505050506040513d601f19601f82011682018060405250810190612af091906157c4565b90505f60035f9054906101000a90046001600160a01b03166001600160a01b03166385462d6f6040518163ffffffff1660e01b8152600401602060405180830381865afa158015612b43573d5f803e3d5ffd5b505050506040513d601f19601f82011682018060405250810190612b6791906157df565b90505f60035f9054906101000a90046001600160a01b03166001600160a01b0316634f4608a26040518163ffffffff1660e01b8152600401602060405180830381865afa158015612bba573d5f803e3d5ffd5b505050506040513d601f19601f82011682018060405250810190612bde91906157df565b90508c8c81518110612bf257612bf26159c6565b60200260200101518a1115612c8e575f81612c0d848761580a565b612c179190615821565b60405163a9059cbb60e01b81526001600160a01b03868116600483015260248201839052919250908d169063a9059cbb906044016020604051808303815f875af1158015612c67573d5f803e3d5ffd5b505050506040513d601f19601f82011682018060405250810190612c8b9190615840565b50505b5050600190990198506126cf975050505050505050565b50505050505050505b6119d160017f9b779b17422d0df92223018b32b4d1fa46e071723d6817e2486d003becc55f0055565b612cdf614538565b6001600160a01b038116612d21576040517f1e4fbdf70000000000000000000000000000000000000000000000000000000081525f6004820152602401610cd2565b610ea8816145ac565b612d3261357b565b600354604080517f3e6dfa3600000000000000000000000000000000000000000000000000000000815290515f926001600160a01b031691633e6dfa369160048083019260209291908290030181865afa158015612d92573d5f803e3d5ffd5b505050506040513d601f19601f82011682018060405250810190612db691906157c4565b90505f60035f9054906101000a90046001600160a01b03166001600160a01b0316633b19e84a6040518163ffffffff1660e01b8152600401602060405180830381865afa158015612e09573d5f803e3d5ffd5b505050506040513d601f19601f82011682018060405250810190612e2d91906157c4565b90505f60035f9054906101000a90046001600160a01b03166001600160a01b0316631bf01e9b6040518163ffffffff1660e01b8152600401602060405180830381865afa158015612e80573d5f803e3d5ffd5b505050506040513d601f19601f82011682018060405250810190612ea491906157c4565b90505f60035f9054906101000a90046001600160a01b03166001600160a01b0316636c9c00786040518163ffffffff1660e01b8152600401602060405180830381865afa158015612ef7573d5f803e3d5ffd5b505050506040513d601f19601f82011682018060405250810190612f1b91906157c4565b90505f8511612f6c5760405162461bcd60e51b815260206004820152601060248201527f496e73756666696369656e742042414c000000000000000000000000000000006044820152606401610cd2565b5f5b612f78600161372b565b8110156134eb575f612f8b600183613734565b90505f612fb67f52c63247e1f47db19d5ce0460030c497f067ca4cebf71ba98eeadabe20bace025490565b6040516370a0823160e01b81523060048201529091505f906001600160a01b038416906370a0823190602401602060405180830381865afa158015612ffd573d5f803e3d5ffd5b505050506040513d601f19601f8201168201806040525081019061302191906157df565b90508015155f03613034575050506134e3565b306001600160a01b0384160361304c575050506134e3565b5f836001600160a01b031663313ce5676040518163ffffffff1660e01b8152600401602060405180830381865afa158015613089573d5f803e3d5ffd5b505050506040513d601f19601f820116820180604052508101906130ad919061585f565b60ff1690505f6130bf84848d8561373f565b9050876001600160a01b0316856001600160a01b0316036131535760405163a9059cbb60e01b8152336004820152602481018290526001600160a01b0389169063a9059cbb906044016020604051808303815f875af1158015613124573d5f803e3d5ffd5b505050506040513d601f19601f820116820180604052508101906131489190615840565b5050505050506134e3565b604051630b4c774160e11b81526001600160a01b0386811660048301528981166024830152610bb860448301525f91908c1690631698ee8290606401602060405180830381865afa1580156131aa573d5f803e3d5ffd5b505050506040513d601f19601f820116820180604052508101906131ce91906157c4565b90506001600160a01b0381161561335f575f6131ec878b8530613e50565b90505f6131f88261385c565b60405163a9059cbb60e01b8152336004820152602481018290529091506001600160a01b038c169063a9059cbb906044016020604051808303815f875af1158015613245573d5f803e3d5ffd5b505050506040513d601f19601f820116820180604052508101906132699190615840565b506001600160a01b038b1663a9059cbb8d613284848661587f565b6040517fffffffff0000000000000000000000000000000000000000000000000000000060e085901b1681526001600160a01b03909216600483015260248201526044016020604051808303815f875af11580156132e4573d5f803e3d5ffd5b505050506040513d601f19601f820116820180604052508101906133089190615840565b505f82116133585760405162461bcd60e51b815260206004820152601760248201527f53776170204661696c65642c20547279204275726e28290000000000000000006044820152606401610cd2565b50506134dc565b5f61336d878a8c8633614114565b90505f6133798261385c565b60405163a9059cbb60e01b8152336004820152602481018290529091506001600160a01b038c169063a9059cbb906044016020604051808303815f875af11580156133c6573d5f803e3d5ffd5b505050506040513d601f19601f820116820180604052508101906133ea9190615840565b506001600160a01b038b1663a9059cbb8d613405848661587f565b6040517fffffffff0000000000000000000000000000000000000000000000000000000060e085901b1681526001600160a01b03909216600483015260248201526044016020604051808303815f875af1158015613465573d5f803e3d5ffd5b505050506040513d601f19601f820116820180604052508101906134899190615840565b505f82116134d95760405162461bcd60e51b815260206004820152601760248201527f53776170204661696c65642c20547279204275726e28290000000000000000006044820152606401610cd2565b50505b5050505050505b600101612f6e565b506134f6338661396b565b60408051338152602081018790527fcc16f5dbb4873280815c1ee09dbd06736cffcc184412cf7a71a0fdb75d397ca5910160405180910390a150505050610ea860017f9b779b17422d0df92223018b32b4d1fa46e071723d6817e2486d003becc55f0055565b5f6115df8585858561373f565b6135768383836001614740565b505050565b7f9b779b17422d0df92223018b32b4d1fa46e071723d6817e2486d003becc55f0080547ffffffffffffffffffffffffffffffffffffffffffffffffffffffffffffffffe016135f6576040517f3ee5aeb500000000000000000000000000000000000000000000000000000000815260040160405180910390fd5b60029055565b5f805f5b61360a600161372b565b8110156136b2575f61361d600183613734565b6040516370a0823160e01b81523060048201529091505f906001600160a01b038316906370a0823190602401602060405180830381865afa158015613664573d5f803e3d5ffd5b505050506040513d601f19601f8201168201806040525081019061368891906157df565b90505f6136958284613afa565b90506136a18186615a85565b945050600190920191506136009050565b50919050565b6001600160a01b0382166136fa576040517fec442f050000000000000000000000000000000000000000000000000000000081525f6004820152602401610cd2565b6119d15f8383614869565b60017f9b779b17422d0df92223018b32b4d1fa46e071723d6817e2486d003becc55f0055565b5f610891825490565b5f6112da83836149ce565b5f80851161378f5760405162461bcd60e51b815260206004820152601b60248201527f546f74616c20737570706c792063616e6e6f74206265207a65726f00000000006044820152606401610cd2565b60128211156137e05760405162461bcd60e51b815260206004820152601e60248201527f546f6b656e20646563696d616c732073686f756c64206265203c3d20313800006044820152606401610cd2565b5f806012841015613834576137f684601261587f565b61380190600a615b78565b61380b9088615821565b915061381884601261587f565b61382390600a615b78565b61382d9086615821565b905061383a565b50859050835b5f82613846888461580a565b6138509190615821565b98975050505050505050565b5f8060035f9054906101000a90046001600160a01b03166001600160a01b03166385462d6f6040518163ffffffff1660e01b8152600401602060405180830381865afa1580156138ae573d5f803e3d5ffd5b505050506040513d601f19601f820116820180604052508101906138d291906157df565b90505f60035f9054906101000a90046001600160a01b03166001600160a01b0316634f4608a26040518163ffffffff1660e01b8152600401602060405180830381865afa158015613925573d5f803e3d5ffd5b505050506040513d601f19601f8201168201806040525081019061394991906157df565b90505f81613957848261587f565b613961908761580a565b611d859190615821565b6001600160a01b0382166139ad576040517f96c6fd1e0000000000000000000000000000000000000000000000000000000081525f6004820152602401610cd2565b6119d1825f83614869565b6001600160a01b038381165f9081527f52c63247e1f47db19d5ce0460030c497f067ca4cebf71ba98eeadabe20bace0160209081526040808320938616835292905220545f198114613a655781811015613a57576040517ffb8f41b20000000000000000000000000000000000000000000000000000000081526001600160a01b03841660048201526024810182905260448101839052606401610cd2565b613a6584848484035f614740565b50505050565b6001600160a01b038316613aad576040517f96c6fd1e0000000000000000000000000000000000000000000000000000000081525f6004820152602401610cd2565b6001600160a01b038216613aef576040517fec442f050000000000000000000000000000000000000000000000000000000081525f6004820152602401610cd2565b613576838383614869565b5f8060035f9054906101000a90046001600160a01b03166001600160a01b0316638e1c3a8a6040518163ffffffff1660e01b8152600401602060405180830381865afa158015613b4c573d5f803e3d5ffd5b505050506040513d601f19601f82011682018060405250810190613b7091906157c4565b90505f60035f9054906101000a90046001600160a01b03166001600160a01b0316631bf01e9b6040518163ffffffff1660e01b8152600401602060405180830381865afa158015613bc3573d5f803e3d5ffd5b505050506040513d601f19601f82011682018060405250810190613be791906157c4565b90505f80856001600160a01b031663313ce5676040518163ffffffff1660e01b8152600401602060405180830381865afa158015613c27573d5f803e3d5ffd5b505050506040513d601f19601f82011682018060405250810190613c4b919061585f565b90505f836001600160a01b031663313ce5676040518163ffffffff1660e01b8152600401602060405180830381865afa158015613c8a573d5f803e3d5ffd5b505050506040513d601f19601f82011682018060405250810190613cae919061585f565b9050836001600160a01b0316876001600160a01b031603613ce457613cd88864e8d4a5100061580a565b95505050505050610891565b6040517f802431fb0000000000000000000000000000000000000000000000000000000081526001600160a01b03888116600483015285811660248301525f604483015286169063802431fb90606401602060405180830381865afa925050508015613d6d575060408051601f3d908101601f19168201909252613d6a918101906157df565b60015b613d7e575f95505050505050610891565b92508060ff168260ff1603613dba57670de0b6b3a764000083613da68a64e8d4a5100061580a565b613db0919061580a565b613cd89190615821565b5f613dc58284615b83565b613dd090600a615b9c565b905060128360ff161015613e1c57670de0b6b3a7640000613df1828661580a565b613dfb838c61580a565b613e05919061580a565b613e0f9190615821565b9650505050505050610891565b670de0b6b3a7640000613e2f828661580a565b613e39908b61580a565b613e439190615821565b9998505050505050505050565b5f8054604080517f1acb6141000000000000000000000000000000000000000000000000000000008152905183926001600160a01b031691631acb61419160048083019260209291908290030181865afa158015613eb0573d5f803e3d5ffd5b505050506040513d601f19601f82011682018060405250810190613ed491906157c4565b90505f805f9054906101000a90046001600160a01b03166001600160a01b031663524900b56040518163ffffffff1660e01b8152600401602060405180830381865afa158015613f26573d5f803e3d5ffd5b505050506040513d601f19601f82011682018060405250810190613f4a91906157c4565b905081613f588882886149f4565b604051631ba0488760e21b81526001600160a01b0389811660048301528881166024830152604482018890528681166064830152821690636e81221c906084016020604051808303815f875af1925050508015613fd2575060408051601f3d908101601f19168201909252613fcf918101906157df565b60015b6140f757613fe18883886149f4565b60408051610100810182526001600160a01b038a8116825289811660208301908152610bb883850190815289831660608501908152426080860190815260a086018d81525f60c0880181815260e0890191825298517f414bf389000000000000000000000000000000000000000000000000000000008152885188166004820152955187166024870152935162ffffff1660448601529151851660648501525160848401525160a4830152935160c48201529251811660e484015290919084169063414bf38990610104016020604051808303815f875af11580156140c8573d5f803e3d5ffd5b505050506040513d601f19601f820116820180604052508101906140ec91906157df565b9450505050506115e2565b80156141085793506115e292505050565b50505050949350505050565b5f8054604080517f1acb6141000000000000000000000000000000000000000000000000000000008152905183926001600160a01b031691631acb61419160048083019260209291908290030181865afa158015614174573d5f803e3d5ffd5b505050506040513d601f19601f8201168201806040525081019061419891906157c4565b9050805f6141a78983886149f4565b604051631ba0488760e21b81526001600160a01b038a81166004830152898116602483015260448201889052306064830152831690636e81221c906084016020604051808303815f875af192505050801561421f575060408051601f3d908101601f1916820190925261421c918101906157df565b60015b61423a576142308989898989614b97565b9350505050611d85565b801561424857809150614260565b6142558a8a8a8a8a614b97565b945050505050611d85565b50604051631ba0488760e21b81526001600160a01b0389811660048301528881166024830152604482018390528681166064830152831690636e81221c906084016020604051808303815f875af19250505080156142db575060408051601f3d908101601f191682019092526142d8918101906157df565b60015b6142ec576142308989898989614b97565b8015614248579350611d8592505050565b306001600160a01b037f000000000000000000000000000000000000000000000000000000000000000016148061439657507f00000000000000000000000000000000000000000000000000000000000000006001600160a01b031661438a7f360894a13ba1a3210667c828492db98dca3e2076cc3735a920a3ca505d382bbc546001600160a01b031690565b6001600160a01b031614155b156119b4576040517fe07c8dba00000000000000000000000000000000000000000000000000000000815260040160405180910390fd5b610ea8614538565b816001600160a01b03166352d1902d6040518163ffffffff1660e01b8152600401602060405180830381865afa92505050801561442f575060408051601f3d908101601f1916820190925261442c918101906157df565b60015b614470576040517f4c9c8ce30000000000000000000000000000000000000000000000000000000081526001600160a01b0383166004820152602401610cd2565b7f360894a13ba1a3210667c828492db98dca3e2076cc3735a920a3ca505d382bbc81146144cc576040517faa1d49a400000000000000000000000000000000000000000000000000000000815260048101829052602401610cd2565b6135768383614d51565b306001600160a01b037f000000000000000000000000000000000000000000000000000000000000000016146119b4576040517fe07c8dba00000000000000000000000000000000000000000000000000000000815260040160405180910390fd5b3361456a7f9016d09d72d40fdae2fd8ceac6b6234c7706214fd39c1cd1e609a0528c199300546001600160a01b031690565b6001600160a01b0316146119b4576040517f118cdaa7000000000000000000000000000000000000000000000000000000008152336004820152602401610cd2565b7f9016d09d72d40fdae2fd8ceac6b6234c7706214fd39c1cd1e609a0528c199300805473ffffffffffffffffffffffffffffffffffffffff1981166001600160a01b03848116918217845560405192169182907f8be0079c531659141344cd1fd0a4f28419497f9722a3daafe3b4186f6b6457e0905f90a3505050565b5f806146537f52c63247e1f47db19d5ce0460030c497f067ca4cebf71ba98eeadabe20bace025490565b90505f81116146a45760405162461bcd60e51b815260206004820152601b60248201527f546f74616c20737570706c792063616e6e6f74206265207a65726f00000000006044820152606401610cd2565b5f6146ad6135fc565b9050816146ba828661580a565b6115e29190615821565b60605f6112da83614da6565b6146d8614dff565b6119d18282614e66565b6146ea614dff565b610ea881614ec9565b6146fb614dff565b6119b4614ed1565b6119b4614dff565b6001600160a01b0381165f90815260018301602052604081205415156112da565b5f6112da836001600160a01b038416614ed9565b7f52c63247e1f47db19d5ce0460030c497f067ca4cebf71ba98eeadabe20bace006001600160a01b0385166147a3576040517fe602df050000000000000000000000000000000000000000000000000000000081525f6004820152602401610cd2565b6001600160a01b0384166147e5576040517f94280d620000000000000000000000000000000000000000000000000000000081525f6004820152602401610cd2565b6001600160a01b038086165f9081526001830160209081526040808320938816835292905220839055811561486257836001600160a01b0316856001600160a01b03167f8c5be1e5ebec7d5bd14f71427d1e84f3dd0314c0f7b2291e5b200ac8c7c3b9258560405161485991815260200190565b60405180910390a35b5050505050565b7f52c63247e1f47db19d5ce0460030c497f067ca4cebf71ba98eeadabe20bace006001600160a01b0384166148b65781816002015f8282546148ab9190615a85565b9091555061493f9050565b6001600160a01b0384165f9081526020829052604090205482811015614921576040517fe450d38c0000000000000000000000000000000000000000000000000000000081526001600160a01b03861660048201526024810182905260448101849052606401610cd2565b6001600160a01b0385165f9081526020839052604090209083900390555b6001600160a01b03831661495d57600281018054839003905561497b565b6001600160a01b0383165f9081526020829052604090208054830190555b826001600160a01b0316846001600160a01b03167fddf252ad1be2c89b69c2b068fc378daa952ba7f163c4a11628f55a4df523b3ef846040516149c091815260200190565b60405180910390a350505050565b5f825f0182815481106149e3576149e36159c6565b905f5260205f200154905092915050565b6040517fdd62ed3e0000000000000000000000000000000000000000000000000000000081523060048201526001600160a01b0383811660248301528491839183169063dd62ed3e90604401602060405180830381865afa158015614a5b573d5f803e3d5ffd5b505050506040513d601f19601f82011682018060405250810190614a7f91906157df565b1015613a65576040517f095ea7b30000000000000000000000000000000000000000000000000000000081526001600160a01b0384811660048301525f602483015282169063095ea7b3906044016020604051808303815f875af1158015614ae9573d5f803e3d5ffd5b505050506040513d601f19601f82011682018060405250810190614b0d9190615840565b506040517f095ea7b30000000000000000000000000000000000000000000000000000000081526001600160a01b0384811660048301526024820184905282169063095ea7b3906044016020604051808303815f875af1158015614b73573d5f803e3d5ffd5b505050506040513d601f19601f820116820180604052508101906148629190615840565b5f8054604080517f524900b5000000000000000000000000000000000000000000000000000000008152905183926001600160a01b03169163524900b59160048083019260209291908290030181865afa158015614bf7573d5f803e3d5ffd5b505050506040513d601f19601f82011682018060405250810190614c1b91906157c4565b9050614c288782866149f4565b6040805160a081018252606089811b7fffffffffffffffffffffffffffffffffffffffff00000000000000000000000090811660c08401527e0bb8000000000000000000000000000000000000000000000000000000000060d484018190528a831b821660d785015260eb84015288821b1660ee830152825160e28184030181526101028301845282526001600160a01b03808716602084015242838501529082018790525f608083015291517fc04b8d59000000000000000000000000000000000000000000000000000000008152909183169063c04b8d5990614d11908490600401615baa565b6020604051808303815f875af1158015614d2d573d5f803e3d5ffd5b505050506040513d601f19601f8201168201806040525081019061385091906157df565b614d5a82614f25565b6040516001600160a01b038316907fbc7cd75a20ee27fd9adebab32041f755214dbc6bffa90cc0225b39da2e5c2d3b905f90a2805115614d9e576135768282614fc1565b6119d161502a565b6060815f01805480602002602001604051908101604052809291908181526020018280548015614df357602002820191905f5260205f20905b815481526020019060010190808311614ddf575b50505050509050919050565b7ff0c57e16840df040f15088dc2f81fe391c3923bec73e23a9662efc9c229c6a005468010000000000000000900460ff166119b4576040517fd7e6bcf800000000000000000000000000000000000000000000000000000000815260040160405180910390fd5b614e6e614dff565b7f52c63247e1f47db19d5ce0460030c497f067ca4cebf71ba98eeadabe20bace007f52c63247e1f47db19d5ce0460030c497f067ca4cebf71ba98eeadabe20bace03614eba8482615c46565b5060048101613a658382615c46565b612cdf614dff565b613705614dff565b5f818152600183016020526040812054614f1e57508154600181810184555f848152602080822090930184905584548482528286019093526040902091909155610891565b505f610891565b806001600160a01b03163b5f03614f73576040517f4c9c8ce30000000000000000000000000000000000000000000000000000000081526001600160a01b0382166004820152602401610cd2565b7f360894a13ba1a3210667c828492db98dca3e2076cc3735a920a3ca505d382bbc805473ffffffffffffffffffffffffffffffffffffffff19166001600160a01b0392909216919091179055565b60605f80846001600160a01b031684604051614fdd9190615d02565b5f60405180830381855af49150503d805f8114615015576040519150601f19603f3d011682016040523d82523d5f602084013e61501a565b606091505b5091509150611d85858383615062565b34156119b4576040517fb398979f00000000000000000000000000000000000000000000000000000000815260040160405180910390fd5b60608261507757615072826150d7565b6112da565b815115801561508e57506001600160a01b0384163b155b156150d0576040517f9996b3150000000000000000000000000000000000000000000000000000000081526001600160a01b0385166004820152602401610cd2565b50806112da565b8051156150e75780518082602001fd5b6040517f1425ea4200000000000000000000000000000000000000000000000000000000815260040160405180910390fd5b5f81518084528060208401602086015e5f602082860101526020601f19601f83011685010191505092915050565b602081525f6112da6020830184615119565b6001600160a01b0381168114610ea8575f80fd5b5f806040838503121561517e575f80fd5b823561518981615159565b946020939093013593505050565b5f602082840312156151a7575f80fd5b5035919050565b5f805f606084860312156151c0575f80fd5b83356151cb81615159565b925060208401356151db81615159565b929592945050506040919091013590565b5f602082840312156151fc575f80fd5b81356112da81615159565b5f8060408385031215615218575f80fd5b82359150602083013561522a81615159565b809150509250929050565b5f805f8060808587031215615248575f80fd5b843561525381615159565b9350602085013561526381615159565b925060408501359150606085013561527a81615159565b939692955090935050565b634e487b7160e01b5f52604160045260245ffd5b6040516060810167ffffffffffffffff811182821017156152bc576152bc615285565b60405290565b604051601f8201601f1916810167ffffffffffffffff811182821017156152eb576152eb615285565b604052919050565b5f82601f830112615302575f80fd5b813567ffffffffffffffff81111561531c5761531c615285565b61532f6020601f19601f840116016152c2565b818152846020838601011115615343575f80fd5b816020850160208301375f918101602001919091529392505050565b5f8060408385031215615370575f80fd5b823561537b81615159565b9150602083013567ffffffffffffffff811115615396575f80fd5b6153a2858286016152f3565b9150509250929050565b5f8083601f8401126153bc575f80fd5b50813567ffffffffffffffff8111156153d3575f80fd5b6020830191508360208260051b85010111156153ed575f80fd5b9250929050565b5f805f805f805f8060c0898b03121561540b575f80fd5b883567ffffffffffffffff80821115615422575f80fd5b61542e8c838d016153ac565b909a50985060208b0135915080821115615446575f80fd5b506154538b828c016153ac565b909750955050604089013561546781615159565b9350606089013561547781615159565b92506080890135915060a089013561548e81615159565b809150509295985092959890939650565b5f805f805f60a086880312156154b3575f80fd5b85356154be81615159565b945060208601356154ce81615159565b935060408601356154de81615159565b92506060860135915060808601356154f581615159565b809150509295509295909350565b5f8060408385031215615514575f80fd5b823561551f81615159565b9150602083013567ffffffffffffffff8116811461522a575f80fd5b5f815180845260208085019450602084015f5b838110156155735781516001600160a01b03168752958201959082019060010161554e565b509495945050505050565b602081525f6112da602083018461553b565b5f80604083850312156155a1575f80fd5b82356155ac81615159565b9150602083013561522a81615159565b5f67ffffffffffffffff8211156155d5576155d5615285565b5060051b60200190565b5f82601f8301126155ee575f80fd5b813560206156036155fe836155bc565b6152c2565b8083825260208201915060208460051b870101935086841115615624575f80fd5b602086015b8481101561564957803561563c81615159565b8352918301918301615629565b509695505050505050565b5f8060408385031215615665575f80fd5b823567ffffffffffffffff8082111561567c575f80fd5b818501915085601f83011261568f575f80fd5b8135602061569f6155fe836155bc565b82815260059290921b840181019181810190898411156156bd575f80fd5b8286015b84811015615740578035868111156156d7575f80fd5b87016060818d03601f19018113156156ed575f80fd5b6156f5615299565b8683013561570281615159565b815260408301358782015290820135908882111561571e575f80fd5b61572c8e88848601016152f3565b6040820152855250509183019183016156c1565b5096505086013592505080821115615756575f80fd5b506153a2858286016155df565b5f805f8060808587031215615776575f80fd5b5050823594602084013594506040840135936060013592509050565b600181811c908216806157a657607f821691505b6020821081036136b257634e487b7160e01b5f52602260045260245ffd5b5f602082840312156157d4575f80fd5b81516112da81615159565b5f602082840312156157ef575f80fd5b5051919050565b634e487b7160e01b5f52601160045260245ffd5b8082028115828204841417610891576108916157f6565b5f8261583b57634e487b7160e01b5f52601260045260245ffd5b500490565b5f60208284031215615850575f80fd5b815180151581146112da575f80fd5b5f6020828403121561586f575f80fd5b815160ff811681146112da575f80fd5b81810381811115610891576108916157f6565b8183525f60208085019450825f5b858110156155735781356158b381615159565b6001600160a01b0316875295820195908201906001016158a0565b8183525f7f07ffffffffffffffffffffffffffffffffffffffffffffffffffffffffffffff8311156158fe575f80fd5b8260051b80836020870137939093016020019392505050565b60e08082528a519082018190525f90602090610100840190828e01845b8281101561595057815184529284019290840190600101615934565b5050508381036020850152615966818c8e615892565b915050828103604084015261597c81898b6158ce565b91505085606083015261599a60808301866001600160a01b03169052565b6001600160a01b03841660a08301526001600160a01b03831660c08301529a9950505050505050505050565b634e487b7160e01b5f52603260045260245ffd5b5f6040808301604084528086518083526060925060608601915060608160051b8701016020808a015f5b84811015615a72578984037fffffffffffffffffffffffffffffffffffffffffffffffffffffffffffffffa0018652815180516001600160a01b031685528381015184860152880151888501889052615a5f88860182615119565b9684019694505090820190600101615a04565b505087820390880152613e43818961553b565b80820180821115610891576108916157f6565b600181815b80851115615ad257815f1904821115615ab857615ab86157f6565b80851615615ac557918102915b93841c9390800290615a9d565b509250929050565b5f82615ae857506001610891565b81615af457505f610891565b8160018114615b0a5760028114615b1457615b30565b6001915050610891565b60ff841115615b2557615b256157f6565b50506001821b610891565b5060208310610133831016604e8410600b8410161715615b53575081810a610891565b615b5d8383615a98565b805f1904821115615b7057615b706157f6565b029392505050565b5f6112da8383615ada565b60ff8281168282160390811115610891576108916157f6565b5f6112da60ff841683615ada565b602081525f825160a06020840152615bc560c0840182615119565b90506001600160a01b0360208501511660408401526040840151606084015260608401516080840152608084015160a08401528091505092915050565b601f82111561357657805f5260205f20601f840160051c81016020851015615c275750805b601f840160051c820191505b81811015614862575f8155600101615c33565b815167ffffffffffffffff811115615c6057615c60615285565b615c7481615c6e8454615792565b84615c02565b602080601f831160018114615ca7575f8415615c905750858301515b5f19600386901b1c1916600185901b1785556121af565b5f85815260208120601f198616915b82811015615cd557888601518255948401946001909101908401615cb6565b5085821015615cf257878501515f19600388901b60f8161c191681555b5050505050600190811b01905550565b5f82518060208501845e5f92019182525091905056fea2646970667358221220dad5f47c0815656e8f1789689f289b3ed4fb062dfbc22b4eedc5d2266b96da9664736f6c63430008190033",
  "linkReferences": {},
  "deployedLinkReferences": {}
}