{
  "_format": "hh-sol-artifact-1",
  "contractName": "BaluniV1Router",
  "sourceName": "contracts/BaluniV1Router.sol",
  "abi": [
    {
      "inputs": [
        {
          "internalType": "address",
          "name": "target",
          "type": "address"
        }
      ],
      "name": "AddressEmptyCode",
      "type": "error"
    },
    {
      "inputs": [
        {
          "internalType": "address",
          "name": "implementation",
          "type": "address"
        }
      ],
      "name": "ERC1967InvalidImplementation",
      "type": "error"
    },
    {
      "inputs": [],
      "name": "ERC1967NonPayable",
      "type": "error"
    },
    {
      "inputs": [
        {
          "internalType": "address",
          "name": "spender",
          "type": "address"
        },
        {
          "internalType": "uint256",
          "name": "allowance",
          "type": "uint256"
        },
        {
          "internalType": "uint256",
          "name": "needed",
          "type": "uint256"
        }
      ],
      "name": "ERC20InsufficientAllowance",
      "type": "error"
    },
    {
      "inputs": [
        {
          "internalType": "address",
          "name": "sender",
          "type": "address"
        },
        {
          "internalType": "uint256",
          "name": "balance",
          "type": "uint256"
        },
        {
          "internalType": "uint256",
          "name": "needed",
          "type": "uint256"
        }
      ],
      "name": "ERC20InsufficientBalance",
      "type": "error"
    },
    {
      "inputs": [
        {
          "internalType": "address",
          "name": "approver",
          "type": "address"
        }
      ],
      "name": "ERC20InvalidApprover",
      "type": "error"
    },
    {
      "inputs": [
        {
          "internalType": "address",
          "name": "receiver",
          "type": "address"
        }
      ],
      "name": "ERC20InvalidReceiver",
      "type": "error"
    },
    {
      "inputs": [
        {
          "internalType": "address",
          "name": "sender",
          "type": "address"
        }
      ],
      "name": "ERC20InvalidSender",
      "type": "error"
    },
    {
      "inputs": [
        {
          "internalType": "address",
          "name": "spender",
          "type": "address"
        }
      ],
      "name": "ERC20InvalidSpender",
      "type": "error"
    },
    {
      "inputs": [],
      "name": "FailedInnerCall",
      "type": "error"
    },
    {
      "inputs": [],
      "name": "InvalidInitialization",
      "type": "error"
    },
    {
      "inputs": [],
      "name": "NotInitializing",
      "type": "error"
    },
    {
      "inputs": [
        {
          "internalType": "address",
          "name": "owner",
          "type": "address"
        }
      ],
      "name": "OwnableInvalidOwner",
      "type": "error"
    },
    {
      "inputs": [
        {
          "internalType": "address",
          "name": "account",
          "type": "address"
        }
      ],
      "name": "OwnableUnauthorizedAccount",
      "type": "error"
    },
    {
      "inputs": [],
      "name": "ReentrancyGuardReentrantCall",
      "type": "error"
    },
    {
      "inputs": [],
      "name": "UUPSUnauthorizedCallContext",
      "type": "error"
    },
    {
      "inputs": [
        {
          "internalType": "bytes32",
          "name": "slot",
          "type": "bytes32"
        }
      ],
      "name": "UUPSUnsupportedProxiableUUID",
      "type": "error"
    },
    {
      "anonymous": false,
      "inputs": [
        {
          "indexed": true,
          "internalType": "address",
          "name": "owner",
          "type": "address"
        },
        {
          "indexed": true,
          "internalType": "address",
          "name": "spender",
          "type": "address"
        },
        {
          "indexed": false,
          "internalType": "uint256",
          "name": "value",
          "type": "uint256"
        }
      ],
      "name": "Approval",
      "type": "event"
    },
    {
      "anonymous": false,
      "inputs": [
        {
          "indexed": false,
          "internalType": "address",
          "name": "user",
          "type": "address"
        },
        {
          "indexed": false,
          "internalType": "uint256",
          "name": "value",
          "type": "uint256"
        }
      ],
      "name": "Burn",
      "type": "event"
    },
    {
      "anonymous": false,
      "inputs": [
        {
          "indexed": false,
          "internalType": "address",
          "name": "user",
          "type": "address"
        },
        {
          "components": [
            {
              "internalType": "address",
              "name": "to",
              "type": "address"
            },
            {
              "internalType": "uint256",
              "name": "value",
              "type": "uint256"
            },
            {
              "internalType": "bytes",
              "name": "data",
              "type": "bytes"
            }
          ],
          "indexed": false,
          "internalType": "struct IBaluniV1Agent.Call[]",
          "name": "calls",
          "type": "tuple[]"
        },
        {
          "indexed": false,
          "internalType": "address[]",
          "name": "tokensReturn",
          "type": "address[]"
        }
      ],
      "name": "Execute",
      "type": "event"
    },
    {
      "anonymous": false,
      "inputs": [
        {
          "indexed": false,
          "internalType": "uint64",
          "name": "version",
          "type": "uint64"
        }
      ],
      "name": "Initialized",
      "type": "event"
    },
    {
      "anonymous": false,
      "inputs": [
        {
          "indexed": false,
          "internalType": "string",
          "name": "message",
          "type": "string"
        },
        {
          "indexed": false,
          "internalType": "uint256",
          "name": "value",
          "type": "uint256"
        }
      ],
      "name": "Log",
      "type": "event"
    },
    {
      "anonymous": false,
      "inputs": [
        {
          "indexed": false,
          "internalType": "address",
          "name": "user",
          "type": "address"
        },
        {
          "indexed": false,
          "internalType": "uint256",
          "name": "value",
          "type": "uint256"
        }
      ],
      "name": "Mint",
      "type": "event"
    },
    {
      "anonymous": false,
      "inputs": [
        {
          "indexed": true,
          "internalType": "address",
          "name": "previousOwner",
          "type": "address"
        },
        {
          "indexed": true,
          "internalType": "address",
          "name": "newOwner",
          "type": "address"
        }
      ],
      "name": "OwnershipTransferred",
      "type": "event"
    },
    {
      "anonymous": false,
      "inputs": [
        {
          "indexed": true,
          "internalType": "address",
          "name": "from",
          "type": "address"
        },
        {
          "indexed": true,
          "internalType": "address",
          "name": "to",
          "type": "address"
        },
        {
          "indexed": false,
          "internalType": "uint256",
          "name": "value",
          "type": "uint256"
        }
      ],
      "name": "Transfer",
      "type": "event"
    },
    {
      "anonymous": false,
      "inputs": [
        {
          "indexed": true,
          "internalType": "address",
          "name": "implementation",
          "type": "address"
        }
      ],
      "name": "Upgraded",
      "type": "event"
    },
    {
      "inputs": [],
      "name": "UPGRADE_INTERFACE_VERSION",
      "outputs": [
        {
          "internalType": "string",
          "name": "",
          "type": "string"
        }
      ],
      "stateMutability": "view",
      "type": "function"
    },
    {
      "inputs": [
        {
          "internalType": "address",
          "name": "_token",
          "type": "address"
        }
      ],
      "name": "addToken",
      "outputs": [],
      "stateMutability": "nonpayable",
      "type": "function"
    },
    {
      "inputs": [
        {
          "internalType": "address",
          "name": "owner",
          "type": "address"
        },
        {
          "internalType": "address",
          "name": "spender",
          "type": "address"
        }
      ],
      "name": "allowance",
      "outputs": [
        {
          "internalType": "uint256",
          "name": "",
          "type": "uint256"
        }
      ],
      "stateMutability": "view",
      "type": "function"
    },
    {
      "inputs": [
        {
          "internalType": "address",
          "name": "spender",
          "type": "address"
        },
        {
          "internalType": "uint256",
          "name": "value",
          "type": "uint256"
        }
      ],
      "name": "approve",
      "outputs": [
        {
          "internalType": "bool",
          "name": "",
          "type": "bool"
        }
      ],
      "stateMutability": "nonpayable",
      "type": "function"
    },
    {
      "inputs": [
        {
          "internalType": "address",
          "name": "account",
          "type": "address"
        }
      ],
      "name": "balanceOf",
      "outputs": [
        {
          "internalType": "uint256",
          "name": "",
          "type": "uint256"
        }
      ],
      "stateMutability": "view",
      "type": "function"
    },
    {
      "inputs": [],
      "name": "baseAsset",
      "outputs": [
        {
          "internalType": "address",
          "name": "",
          "type": "address"
        }
      ],
      "stateMutability": "view",
      "type": "function"
    },
    {
      "inputs": [
        {
          "internalType": "uint256",
          "name": "burnAmount",
          "type": "uint256"
        }
      ],
      "name": "burnERC20",
      "outputs": [],
      "stateMutability": "nonpayable",
      "type": "function"
    },
    {
      "inputs": [
        {
          "internalType": "uint256",
          "name": "burnAmount",
          "type": "uint256"
        }
      ],
      "name": "burnUSDC",
      "outputs": [],
      "stateMutability": "nonpayable",
      "type": "function"
    },
    {
      "inputs": [
        {
          "internalType": "uint256",
          "name": "totalBaluni",
          "type": "uint256"
        },
        {
          "internalType": "uint256",
          "name": "totalERC20Balance",
          "type": "uint256"
        },
        {
          "internalType": "uint256",
          "name": "baluniAmount",
          "type": "uint256"
        },
        {
          "internalType": "uint256",
          "name": "tokenDecimals",
          "type": "uint256"
        }
      ],
      "name": "calculateTokenShare",
      "outputs": [
        {
          "internalType": "uint256",
          "name": "",
          "type": "uint256"
        }
      ],
      "stateMutability": "pure",
      "type": "function"
    },
    {
      "inputs": [
        {
          "internalType": "address[]",
          "name": "assets",
          "type": "address[]"
        },
        {
          "internalType": "uint256[]",
          "name": "weights",
          "type": "uint256[]"
        },
        {
          "internalType": "address",
          "name": "sender",
          "type": "address"
        },
        {
          "internalType": "address",
          "name": "receiver",
          "type": "address"
        },
        {
          "internalType": "uint256",
          "name": "limit",
          "type": "uint256"
        },
        {
          "internalType": "address",
          "name": "",
          "type": "address"
        }
      ],
      "name": "callRebalance",
      "outputs": [],
      "stateMutability": "nonpayable",
      "type": "function"
    },
    {
      "inputs": [],
      "name": "decimals",
      "outputs": [
        {
          "internalType": "uint8",
          "name": "",
          "type": "uint8"
        }
      ],
      "stateMutability": "view",
      "type": "function"
    },
    {
      "inputs": [
        {
          "components": [
            {
              "internalType": "address",
              "name": "to",
              "type": "address"
            },
            {
              "internalType": "uint256",
              "name": "value",
              "type": "uint256"
            },
            {
              "internalType": "bytes",
              "name": "data",
              "type": "bytes"
            }
          ],
          "internalType": "struct IBaluniV1Agent.Call[]",
          "name": "calls",
          "type": "tuple[]"
        },
        {
          "internalType": "address[]",
          "name": "tokensReturn",
          "type": "address[]"
        }
      ],
      "name": "execute",
      "outputs": [],
      "stateMutability": "nonpayable",
      "type": "function"
    },
    {
      "inputs": [
        {
          "internalType": "address",
          "name": "_user",
          "type": "address"
        }
      ],
      "name": "getAgentAddress",
      "outputs": [
        {
          "internalType": "address",
          "name": "",
          "type": "address"
        }
      ],
      "stateMutability": "view",
      "type": "function"
    },
    {
      "inputs": [],
      "name": "getTokens",
      "outputs": [
        {
          "internalType": "address[]",
          "name": "",
          "type": "address[]"
        }
      ],
      "stateMutability": "view",
      "type": "function"
    },
    {
      "inputs": [
        {
          "internalType": "uint256",
          "name": "amount",
          "type": "uint256"
        }
      ],
      "name": "getUSDCShareValue",
      "outputs": [
        {
          "internalType": "uint256",
          "name": "",
          "type": "uint256"
        }
      ],
      "stateMutability": "view",
      "type": "function"
    },
    {
      "inputs": [],
      "name": "getVersion",
      "outputs": [
        {
          "internalType": "uint64",
          "name": "",
          "type": "uint64"
        }
      ],
      "stateMutability": "view",
      "type": "function"
    },
    {
      "inputs": [
        {
          "internalType": "address",
          "name": "_registry",
          "type": "address"
        }
      ],
      "name": "initialize",
      "outputs": [],
      "stateMutability": "nonpayable",
      "type": "function"
    },
    {
      "inputs": [
        {
          "internalType": "address",
          "name": "token",
          "type": "address"
        }
      ],
      "name": "liquidate",
      "outputs": [],
      "stateMutability": "nonpayable",
      "type": "function"
    },
    {
      "inputs": [],
      "name": "liquidateAll",
      "outputs": [],
      "stateMutability": "nonpayable",
      "type": "function"
    },
    {
      "inputs": [
        {
          "internalType": "uint256",
          "name": "balAmountToMint",
          "type": "uint256"
        }
      ],
      "name": "mintWithUSDC",
      "outputs": [],
      "stateMutability": "nonpayable",
      "type": "function"
    },
    {
      "inputs": [],
      "name": "name",
      "outputs": [
        {
          "internalType": "string",
          "name": "",
          "type": "string"
        }
      ],
      "stateMutability": "view",
      "type": "function"
    },
    {
      "inputs": [],
      "name": "owner",
      "outputs": [
        {
          "internalType": "address",
          "name": "",
          "type": "address"
        }
      ],
      "stateMutability": "view",
      "type": "function"
    },
    {
      "inputs": [],
      "name": "proxiableUUID",
      "outputs": [
        {
          "internalType": "bytes32",
          "name": "",
          "type": "bytes32"
        }
      ],
      "stateMutability": "view",
      "type": "function"
    },
    {
      "inputs": [],
      "name": "registry",
      "outputs": [
        {
          "internalType": "contract IBaluniV1Registry",
          "name": "",
          "type": "address"
        }
      ],
      "stateMutability": "view",
      "type": "function"
    },
    {
      "inputs": [
        {
          "internalType": "address",
          "name": "_registry",
          "type": "address"
        },
        {
          "internalType": "uint64",
          "name": "version",
          "type": "uint64"
        }
      ],
      "name": "reinitialize",
      "outputs": [],
      "stateMutability": "nonpayable",
      "type": "function"
    },
    {
      "inputs": [],
      "name": "renounceOwnership",
      "outputs": [],
      "stateMutability": "nonpayable",
      "type": "function"
    },
    {
      "inputs": [
        {
          "internalType": "uint256",
          "name": "balAmountToMint",
          "type": "uint256"
        }
      ],
      "name": "requiredUSDCtoMint",
      "outputs": [
        {
          "internalType": "uint256",
          "name": "",
          "type": "uint256"
        }
      ],
      "stateMutability": "view",
      "type": "function"
    },
    {
      "inputs": [
        {
          "internalType": "address",
          "name": "_registry",
          "type": "address"
        }
      ],
      "name": "resetContract",
      "outputs": [],
      "stateMutability": "nonpayable",
      "type": "function"
    },
    {
      "inputs": [],
      "name": "symbol",
      "outputs": [
        {
          "internalType": "string",
          "name": "",
          "type": "string"
        }
      ],
      "stateMutability": "view",
      "type": "function"
    },
    {
      "inputs": [
        {
          "internalType": "uint256",
          "name": "amount",
          "type": "uint256"
        },
        {
          "internalType": "address",
          "name": "token",
          "type": "address"
        }
      ],
      "name": "tokenValuation",
      "outputs": [
        {
          "internalType": "uint256",
          "name": "",
          "type": "uint256"
        }
      ],
      "stateMutability": "view",
      "type": "function"
    },
    {
      "inputs": [],
      "name": "totalSupply",
      "outputs": [
        {
          "internalType": "uint256",
          "name": "",
          "type": "uint256"
        }
      ],
      "stateMutability": "view",
      "type": "function"
    },
    {
      "inputs": [],
      "name": "totalValuation",
      "outputs": [
        {
          "internalType": "uint256",
          "name": "",
          "type": "uint256"
        }
      ],
      "stateMutability": "view",
      "type": "function"
    },
    {
      "inputs": [
        {
          "internalType": "address",
          "name": "to",
          "type": "address"
        },
        {
          "internalType": "uint256",
          "name": "value",
          "type": "uint256"
        }
      ],
      "name": "transfer",
      "outputs": [
        {
          "internalType": "bool",
          "name": "",
          "type": "bool"
        }
      ],
      "stateMutability": "nonpayable",
      "type": "function"
    },
    {
      "inputs": [
        {
          "internalType": "address",
          "name": "from",
          "type": "address"
        },
        {
          "internalType": "address",
          "name": "to",
          "type": "address"
        },
        {
          "internalType": "uint256",
          "name": "value",
          "type": "uint256"
        }
      ],
      "name": "transferFrom",
      "outputs": [
        {
          "internalType": "bool",
          "name": "",
          "type": "bool"
        }
      ],
      "stateMutability": "nonpayable",
      "type": "function"
    },
    {
      "inputs": [
        {
          "internalType": "address",
          "name": "newOwner",
          "type": "address"
        }
      ],
      "name": "transferOwnership",
      "outputs": [],
      "stateMutability": "nonpayable",
      "type": "function"
    },
    {
      "inputs": [],
      "name": "unitPrice",
      "outputs": [
        {
          "internalType": "uint256",
          "name": "",
          "type": "uint256"
        }
      ],
      "stateMutability": "view",
      "type": "function"
    },
    {
      "inputs": [
        {
          "internalType": "address",
          "name": "newImplementation",
          "type": "address"
        },
        {
          "internalType": "bytes",
          "name": "data",
          "type": "bytes"
        }
      ],
      "name": "upgradeToAndCall",
      "outputs": [],
      "stateMutability": "payable",
      "type": "function"
    }
  ],
  "bytecode": "0x60a0604052306080523480156012575f80fd5b506080516153246100395f395f8181613c4601528181613c6f0152613e1f01526153245ff3fe60806040526004361061025d575f3560e01c806371ddcfb81161014b578063c4d66de8116100c6578063e73faa2d1161007c578063f2fde38b11610062578063f2fde38b1461074e578063fe0a4dd11461076d578063fe330a511461078c575f80fd5b8063e73faa2d1461071b578063eedc3c501461072f575f80fd5b8063d48bfca7116100ac578063d48bfca71461067a578063dd62ed3e14610699578063e67ad759146106fc575f80fd5b8063c4d66de81461063c578063cdf456e11461065b575f80fd5b806395d89b411161011b578063aa6ca80811610101578063aa6ca808146105b4578063aa95d893146105d5578063ad3cb1cc146105f4575f80fd5b806395d89b4114610581578063a9059cbb14610595575f80fd5b806371ddcfb8146104e85780637b103999146105075780638da5cb5b146105265780638f2248bc14610562575f80fd5b80632bdd955a116101db5780634f1ef286116101ab578063599f69f711610191578063599f69f71461046257806370a0823114610481578063715018a6146104d4575f80fd5b80634f1ef2861461043b57806352d1902d1461044e575f80fd5b80632bdd955a146103ce5780632f865568146103ed578063313ce5671461040c5780633c2066a914610427575f80fd5b806318160ddd1161023057806323b872dd1161021657806323b872dd1461036457806327d54a9214610383578063295b9300146103ba575f80fd5b806318160ddd146103085780631a168da214610345575f80fd5b806306fdde0314610261578063095ea7b31461028b5780630cfc7386146102ba5780630d8e6e2c146102db575b5f80fd5b34801561026c575f80fd5b506102756107ab565b6040516102829190614757565b60405180910390f35b348015610296575f80fd5b506102aa6102a536600461477d565b61087e565b6040519015158152602001610282565b3480156102c5575f80fd5b506102d96102d43660046147a7565b610897565b005b3480156102e6575f80fd5b506102ef610f44565b60405167ffffffffffffffff9091168152602001610282565b348015610313575f80fd5b507f52c63247e1f47db19d5ce0460030c497f067ca4cebf71ba98eeadabe20bace02545b604051908152602001610282565b348015610350575f80fd5b506102d961035f3660046147a7565b610f7c565b34801561036f575f80fd5b506102aa61037e3660046147be565b611328565b34801561038e575f80fd5b506103a261039d3660046147fc565b61134d565b6040516001600160a01b039091168152602001610282565b3480156103c5575f80fd5b50610337611448565b3480156103d9575f80fd5b506103376103e8366004614817565b611451565b3480156103f8575f80fd5b506102d96104073660046147fc565b611565565b348015610417575f80fd5b5060405160128152602001610282565b348015610432575f80fd5b506102d9611938565b6102d9610449366004614938565b6119c0565b348015610459575f80fd5b506103376119df565b34801561046d575f80fd5b506102d961047c3660046149cd565b611a0d565b34801561048c575f80fd5b5061033761049b3660046147fc565b6001600160a01b03165f9081527f52c63247e1f47db19d5ce0460030c497f067ca4cebf71ba98eeadabe20bace00602052604090205490565b3480156104df575f80fd5b506102d9611b9c565b3480156104f3575f80fd5b506103376105023660046147a7565b611bad565b348015610512575f80fd5b506002546103a2906001600160a01b031681565b348015610531575f80fd5b507f9016d09d72d40fdae2fd8ceac6b6234c7706214fd39c1cd1e609a0528c199300546001600160a01b03166103a2565b34801561056d575f80fd5b506102d961057c366004614a78565b611bb7565b34801561058c575f80fd5b50610275611d0e565b3480156105a0575f80fd5b506102aa6105af36600461477d565b611d5f565b3480156105bf575f80fd5b506105c8611d6c565b6040516102829190614af3565b3480156105e0575f80fd5b506103376105ef3660046147a7565b611d77565b3480156105ff575f80fd5b506102756040518060400160405280600581526020017f352e302e3000000000000000000000000000000000000000000000000000000081525081565b348015610647575f80fd5b506102d96106563660046147fc565b611dde565b348015610666575f80fd5b506003546103a2906001600160a01b031681565b348015610685575f80fd5b506102d96106943660046147fc565b6120d5565b3480156106a4575f80fd5b506103376106b3366004614b05565b6001600160a01b039182165f9081527f52c63247e1f47db19d5ce0460030c497f067ca4cebf71ba98eeadabe20bace016020908152604080832093909416825291909152205490565b348015610707575f80fd5b506102d96107163660046147fc565b6120e7565b348015610726575f80fd5b50610337612129565b34801561073a575f80fd5b506102d9610749366004614bc9565b61213b565b348015610759575f80fd5b506102d96107683660046147fc565b612d0b565b348015610778575f80fd5b506102d96107873660046147a7565b612d5e565b348015610797575f80fd5b506103376107a6366004614cd8565b613644565b7f52c63247e1f47db19d5ce0460030c497f067ca4cebf71ba98eeadabe20bace0380546060917f52c63247e1f47db19d5ce0460030c497f067ca4cebf71ba98eeadabe20bace00916107fc90614d07565b80601f016020809104026020016040519081016040528092919081815260200182805461082890614d07565b80156108735780601f1061084a57610100808354040283529160200191610873565b820191905f5260205f20905b81548152906001019060200180831161085657829003601f168201915b505050505091505090565b5f3361088b818585613651565b60019150505b92915050565b61089f613663565b600254604080517f3b19e84a00000000000000000000000000000000000000000000000000000000815290515f926001600160a01b031691633b19e84a9160048083019260209291908290030181865afa1580156108ff573d5f803e3d5ffd5b505050506040513d601f19601f820116820180604052508101906109239190614d52565b90505f60025f9054906101000a90046001600160a01b03166001600160a01b0316631bf01e9b6040518163ffffffff1660e01b8152600401602060405180830381865afa158015610976573d5f803e3d5ffd5b505050506040513d601f19601f8201168201806040525081019061099a9190614d52565b90505f60025f9054906101000a90046001600160a01b03166001600160a01b03166385462d6f6040518163ffffffff1660e01b8152600401602060405180830381865afa1580156109ed573d5f803e3d5ffd5b505050506040513d601f19601f82011682018060405250810190610a119190614d6d565b90505f60025f9054906101000a90046001600160a01b03166001600160a01b0316634f4608a26040518163ffffffff1660e01b8152600401602060405180830381865afa158015610a64573d5f803e3d5ffd5b505050506040513d601f19601f82011682018060405250810190610a889190614d6d565b90505f610a936136e4565b90505f610abe7f52c63247e1f47db19d5ce0460030c497f067ca4cebf71ba98eeadabe20bace025490565b90505f81610acc848a614db1565b610ad69190614dc8565b90506001600160a01b0386166323b872dd3330610af864e8d4a5100086614dc8565b6040517fffffffff0000000000000000000000000000000000000000000000000000000060e086901b1681526001600160a01b03938416600482015292909116602483015260448201526064016020604051808303815f875af1158015610b61573d5f803e3d5ffd5b505050506040513d601f19601f82011682018060405250810190610b859190614e00565b506040517f70a082310000000000000000000000000000000000000000000000000000000081523360048201525f906001600160a01b038816906370a0823190602401602060405180830381865afa158015610be3573d5f803e3d5ffd5b505050506040513d601f19601f82011682018060405250810190610c079190614d6d565b6040517fdd62ed3e0000000000000000000000000000000000000000000000000000000081523360048201523060248201529091505f906001600160a01b0389169063dd62ed3e90604401602060405180830381865afa158015610c6d573d5f803e3d5ffd5b505050506040513d601f19601f82011682018060405250810190610c919190614d6d565b90505f8411610d27576040517f08c379a000000000000000000000000000000000000000000000000000000000815260206004820152602260248201527f546f74616c2042414c554e4920737570706c792063616e6e6f74206265207a6560448201527f726f00000000000000000000000000000000000000000000000000000000000060648201526084015b60405180910390fd5b610d3664e8d4a5100084614dc8565b821015610d9f576040517f08c379a000000000000000000000000000000000000000000000000000000000815260206004820152601c60248201527f555344432062616c616e636520697320696e73756666696369656e74000000006044820152606401610d1e565b610dae64e8d4a5100084614dc8565b811015610e17576040517f08c379a000000000000000000000000000000000000000000000000000000000815260206004820152601960248201527f436865636b2074686520746f6b656e20616c6c6f77616e6365000000000000006044820152606401610d1e565b610e21338b6137b7565b60408051338152602081018c90527f0f6798a560793a54c3bcfe86a93cde1e73087d944c0ea20544137d4121396885910160405180910390a15f8688610e6c64e8d4a5100087614dc8565b610e769190614db1565b610e809190614dc8565b6040517fa9059cbb0000000000000000000000000000000000000000000000000000000081526001600160a01b038c8116600483015260248201839052919250908a169063a9059cbb906044016020604051808303815f875af1158015610ee9573d5f803e3d5ffd5b505050506040513d601f19601f82011682018060405250810190610f0d9190614e00565b5050505050505050505050610f4160017f9b779b17422d0df92223018b32b4d1fa46e071723d6817e2486d003becc55f0055565b50565b5f610f777ff0c57e16840df040f15088dc2f81fe391c3923bec73e23a9662efc9c229c6a005467ffffffffffffffff1690565b905090565b610f84613663565b600254604080517f3b19e84a00000000000000000000000000000000000000000000000000000000815290515f926001600160a01b031691633b19e84a9160048083019260209291908290030181865afa158015610fe4573d5f803e3d5ffd5b505050506040513d601f19601f820116820180604052508101906110089190614d52565b335f9081527f52c63247e1f47db19d5ce0460030c497f067ca4cebf71ba98eeadabe20bace0060205260409020549091508211156110a2576040517f08c379a000000000000000000000000000000000000000000000000000000000815260206004820152601060248201527f496e73756666696369656e742042414c000000000000000000000000000000006044820152606401610d1e565b5f6110ac8361382a565b90505f5b6110b95f613939565b8110156112b9575f6110cb8183613942565b90505f6110f67f52c63247e1f47db19d5ce0460030c497f067ca4cebf71ba98eeadabe20bace025490565b6040517f70a082310000000000000000000000000000000000000000000000000000000081523060048201529091505f906001600160a01b038416906370a0823190602401602060405180830381865afa158015611156573d5f803e3d5ffd5b505050506040513d601f19601f8201168201806040525081019061117a9190614d6d565b905080158061119157506001600160a01b03831630145b1561119e575050506112b1565b5f836001600160a01b031663313ce5676040518163ffffffff1660e01b8152600401602060405180830381865afa1580156111db573d5f803e3d5ffd5b505050506040513d601f19601f820116820180604052508101906111ff9190614e1f565b60ff169050611212876105af888b614e3f565b505f6112208484898561394d565b6040517fa9059cbb000000000000000000000000000000000000000000000000000000008152336004820152602481018290529091506001600160a01b0386169063a9059cbb906044016020604051808303815f875af1158015611286573d5f803e3d5ffd5b505050506040513d601f19601f820116820180604052508101906112aa9190614e00565b5050505050505b6001016110b0565b506112c43382613a8d565b60408051338152602081018390527fcc16f5dbb4873280815c1ee09dbd06736cffcc184412cf7a71a0fdb75d397ca5910160405180910390a15050610f4160017f9b779b17422d0df92223018b32b4d1fa46e071723d6817e2486d003becc55f0055565b5f33611335858285613ada565b611340858585613bac565b60019150505b9392505050565b5f8060025f9054906101000a90046001600160a01b03166001600160a01b031663f5d2d9986040518163ffffffff1660e01b8152600401602060405180830381865afa15801561139f573d5f803e3d5ffd5b505050506040513d601f19601f820116820180604052508101906113c39190614d52565b6040517f27d54a920000000000000000000000000000000000000000000000000000000081526001600160a01b038581166004830152919250908216906327d54a9290602401602060405180830381865afa158015611424573d5f803e3d5ffd5b505050506040513d601f19601f820116820180604052508101906113469190614d52565b5f610f776136e4565b5f8060025f9054906101000a90046001600160a01b03166001600160a01b031663bb3ba04c6040518163ffffffff1660e01b8152600401602060405180830381865afa1580156114a3573d5f803e3d5ffd5b505050506040513d601f19601f820116820180604052508101906114c79190614d52565b6003546040517fb27b5e750000000000000000000000000000000000000000000000000000000081526001600160a01b03868116600483015291821660248201526044810187905291925082169063b27b5e7590606401602060405180830381865afa158015611539573d5f803e3d5ffd5b505050506040513d601f19601f8201168201806040525081019061155d9190614d6d565b949350505050565b600254604080517f6c9c007800000000000000000000000000000000000000000000000000000000815290515f926001600160a01b031691636c9c00789160048083019260209291908290030181865afa1580156115c5573d5f803e3d5ffd5b505050506040513d601f19601f820116820180604052508101906115e99190614d52565b90505f60025f9054906101000a90046001600160a01b03166001600160a01b03166382755ebb6040518163ffffffff1660e01b8152600401602060405180830381865afa15801561163c573d5f803e3d5ffd5b505050506040513d601f19601f820116820180604052508101906116609190614d52565b6040517f70a082310000000000000000000000000000000000000000000000000000000081523060048201529091505f906001600160a01b038516906370a0823190602401602060405180830381865afa1580156116c0573d5f803e3d5ffd5b505050506040513d601f19601f820116820180604052508101906116e49190614d6d565b6040517f095ea7b30000000000000000000000000000000000000000000000000000000081526001600160a01b038481166004830152602482018390529192508215159186169063095ea7b3906044016020604051808303815f875af1158015611750573d5f803e3d5ffd5b505050506040513d601f19601f820116820180604052508101906117749190614e00565b5080611781575050505050565b6003546040517f2d6bc8ea0000000000000000000000000000000000000000000000000000000081526001600160a01b03878116600483015291821660248201526044810184905230606482015290841690632d6bc8ea906084016020604051808303815f875af1925050508015611816575060408051601f3d908101601f1916820190925261181391810190614d6d565b60015b611929576003546040517f5efaaebb0000000000000000000000000000000000000000000000000000000081526001600160a01b03878116600483015286811660248301529182166044820152606481018490523060848201525f91851690635efaaebb9060a4016020604051808303815f875af115801561189a573d5f803e3d5ffd5b505050506040513d601f19601f820116820180604052508101906118be9190614d6d565b90505f8111611929576040517f08c379a000000000000000000000000000000000000000000000000000000000815260206004820181905260248201527f4d75746920486f702053776170204661696c65642c20547279204275726e28296044820152606401610d1e565b505050505050565b5050505050565b611940613663565b5f61194a5f613939565b90505f5b81811015611993575f6119618183613942565b6003549091506001600160a01b0390811690821603611980575061198b565b61198981611565565b505b60010161194e565b50506119be60017f9b779b17422d0df92223018b32b4d1fa46e071723d6817e2486d003becc55f0055565b565b6119c8613c3b565b6119d182613d0b565b6119db8282613d13565b5050565b5f6119e8613e14565b507f360894a13ba1a3210667c828492db98dca3e2076cc3735a920a3ca505d382bbc90565b600254604080517f1bf01e9b00000000000000000000000000000000000000000000000000000000815290515f926001600160a01b031691631bf01e9b9160048083019260209291908290030181865afa158015611a6d573d5f803e3d5ffd5b505050506040513d601f19601f82011682018060405250810190611a919190614d52565b90505f60025f9054906101000a90046001600160a01b03166001600160a01b031663cff49d686040518163ffffffff1660e01b8152600401602060405180830381865afa158015611ae4573d5f803e3d5ffd5b505050506040513d601f19601f82011682018060405250810190611b089190614d52565b604080515f815260208101918290527ff0bf7714000000000000000000000000000000000000000000000000000000009091529091506001600160a01b03821663f0bf7714611b62838e8e8e8e8c8f8f8d60248901614ed7565b5f604051808303815f87803b158015611b79575f80fd5b505af1158015611b8b573d5f803e3d5ffd5b505050505050505050505050505050565b611ba4613e76565b6119be5f613eea565b5f61089182613f72565b7ff0c57e16840df040f15088dc2f81fe391c3923bec73e23a9662efc9c229c6a00805482919068010000000000000000900460ff1680611c055750805467ffffffffffffffff808416911610155b15611c3c576040517ff92ee8a900000000000000000000000000000000000000000000000000000000815260040160405180910390fd5b80546801000000000000000067ffffffffffffffff84167fffffffffffffffffffffffffffffffffffffffffffffff0000000000000000009092168217178255600280547fffffffffffffffffffffffff0000000000000000000000000000000000000000166001600160a01b03871617905581547fffffffffffffffffffffffffffffffffffffffffffffff00ffffffffffffffff1682556040519081527fc7f505b2f371ae2175ee4913f4499e1f2633a7b5936321eed1cdaeb6115181d29060200160405180910390a150505050565b7f52c63247e1f47db19d5ce0460030c497f067ca4cebf71ba98eeadabe20bace0480546060917f52c63247e1f47db19d5ce0460030c497f067ca4cebf71ba98eeadabe20bace00916107fc90614d07565b5f3361088b818585613bac565b6060610f775f614027565b5f80611d816136e4565b90505f611dac7f52c63247e1f47db19d5ce0460030c497f067ca4cebf71ba98eeadabe20bace025490565b90505f81611dba8487614db1565b611dc49190614dc8565b9050611dd564e8d4a5100082614dc8565b95945050505050565b7ff0c57e16840df040f15088dc2f81fe391c3923bec73e23a9662efc9c229c6a00805468010000000000000000810460ff16159067ffffffffffffffff165f81158015611e285750825b90505f8267ffffffffffffffff166001148015611e445750303b155b905081158015611e52575080155b15611e89576040517ff92ee8a900000000000000000000000000000000000000000000000000000000815260040160405180910390fd5b84547fffffffffffffffffffffffffffffffffffffffffffffffff00000000000000001660011785558315611eea5784547fffffffffffffffffffffffffffffffffffffffffffffff00ffffffffffffffff16680100000000000000001785555b611f5e6040518060400160405280600681526020017f42616c756e6900000000000000000000000000000000000000000000000000008152506040518060400160405280600681526020017f42414c554e490000000000000000000000000000000000000000000000000000815250614033565b611f6733614045565b611f6f614056565b611f77614066565b611f8930670de0b6b3a76400006137b7565b600280547fffffffffffffffffffffffff0000000000000000000000000000000000000000166001600160a01b038816908117909155604080517f1bf01e9b0000000000000000000000000000000000000000000000000000000081529051631bf01e9b916004808201926020929091908290030181865afa158015612011573d5f803e3d5ffd5b505050506040513d601f19601f820116820180604052508101906120359190614d52565b600380547fffffffffffffffffffffffff0000000000000000000000000000000000000000166001600160a01b039290921691909117905583156119295784547fffffffffffffffffffffffffffffffffffffffffffffff00ffffffffffffffff168555604051600181527fc7f505b2f371ae2175ee4913f4499e1f2633a7b5936321eed1cdaeb6115181d29060200160405180910390a1505050505050565b6120dd613e76565b6119db5f8261406e565b6120ef613e76565b600280547fffffffffffffffffffffffff0000000000000000000000000000000000000000166001600160a01b0392909216919091179055565b5f610f77670de0b6b3a7640000613f72565b612143613663565b600254604080517ff5d2d99800000000000000000000000000000000000000000000000000000000815290515f926001600160a01b03169163f5d2d9989160048083019260209291908290030181865afa1580156121a3573d5f803e3d5ffd5b505050506040513d601f19601f820116820180604052508101906121c79190614d52565b90505f60025f9054906101000a90046001600160a01b03166001600160a01b0316633e6dfa366040518163ffffffff1660e01b8152600401602060405180830381865afa15801561221a573d5f803e3d5ffd5b505050506040513d601f19601f8201168201806040525081019061223e9190614d52565b90505f60025f9054906101000a90046001600160a01b03166001600160a01b0316636c9c00786040518163ffffffff1660e01b8152600401602060405180830381865afa158015612291573d5f803e3d5ffd5b505050506040513d601f19601f820116820180604052508101906122b59190614d52565b90505f60025f9054906101000a90046001600160a01b03166001600160a01b0316631bf01e9b6040518163ffffffff1660e01b8152600401602060405180830381865afa158015612308573d5f803e3d5ffd5b505050506040513d601f19601f8201168201806040525081019061232c9190614d52565b90506001600160a01b03841661239e576040517f08c379a000000000000000000000000000000000000000000000000000000000815260206004820152601560248201527f4167656e7420666163746f7279206e6f742073657400000000000000000000006044820152606401610d1e565b6040517f9b76a5cd0000000000000000000000000000000000000000000000000000000081523360048201525f906001600160a01b03861690639b76a5cd906024016020604051808303815f875af11580156123fc573d5f803e3d5ffd5b505050506040513d601f19601f820116820180604052508101906124209190614d52565b90505f865167ffffffffffffffff81111561243d5761243d614845565b604051908082528060200260200182016040528015612466578160200160208202803683370190505b5090505f875167ffffffffffffffff81111561248457612484614845565b6040519080825280602002602001820160405280156124ad578160200160208202803683370190505b5090505f5b88518110156125c5576124de5f8a83815181106124d1576124d1614f86565b6020026020010151614082565b158382815181106124f1576124f1614f86565b60200260200101901515908115158152505088818151811061251557612515614f86565b60209081029190910101516040517f70a082310000000000000000000000000000000000000000000000000000000081523060048201526001600160a01b03909116906370a0823190602401602060405180830381865afa15801561257c573d5f803e3d5ffd5b505050506040513d601f19601f820116820180604052508101906125a09190614d6d565b8282815181106125b2576125b2614f86565b60209081029190910101526001016124b2565b506040517feedc3c500000000000000000000000000000000000000000000000000000000081526001600160a01b0384169063eedc3c509061260d908c908c90600401614fb3565b5f604051808303815f87803b158015612624575f80fd5b505af1158015612636573d5f803e3d5ffd5b505050505f5b8851811015612cd9575f89828151811061265857612658614f86565b60209081029190910101516040517f70a082310000000000000000000000000000000000000000000000000000000081523060048201529091505f906001600160a01b038316906370a0823190602401602060405180830381865afa1580156126c3573d5f803e3d5ffd5b505050506040513d601f19601f820116820180604052508101906126e79190614d6d565b6040517f1698ee820000000000000000000000000000000000000000000000000000000081526001600160a01b0384811660048301528a81166024830152610bb860448301529192505f918b1690631698ee8290606401602060405180830381865afa158015612759573d5f803e3d5ffd5b505050506040513d601f19601f8201168201806040525081019061277d9190614d52565b6040517f1698ee820000000000000000000000000000000000000000000000000000000081526001600160a01b0385811660048301528b811660248301526101f460448301529192505f918c1690631698ee8290606401602060405180830381865afa1580156127ef573d5f803e3d5ffd5b505050506040513d601f19601f820116820180604052508101906128139190614d52565b6040517f1698ee820000000000000000000000000000000000000000000000000000000081526001600160a01b0386811660048301528b811660248301526101f460448301529192505f918d1690631698ee8290606401602060405180830381865afa158015612885573d5f803e3d5ffd5b505050506040513d601f19601f820116820180604052508101906128a99190614d52565b6040517f1698ee820000000000000000000000000000000000000000000000000000000081526001600160a01b0387811660048301528c81166024830152610bb860448301529192505f918e1690631698ee8290606401602060405180830381865afa15801561291b573d5f803e3d5ffd5b505050506040513d601f19601f8201168201806040525081019061293f9190614d52565b90505f6001600160a01b03851615158061296157506001600160a01b03841615155b8061297457506001600160a01b03821615155b8061298757506001600160a01b03831615155b905089888151811061299b5761299b614f86565b602002602001015180156129ac5750805b156129bd576129bb5f8861406e565b505b5f8989815181106129d0576129d0614f86565b6020026020010151876129e39190614e3f565b905081612a87576040517fa9059cbb000000000000000000000000000000000000000000000000000000008152336004820152602481018290526001600160a01b0389169063a9059cbb906044016020604051808303815f875af1158015612a4d573d5f803e3d5ffd5b505050506040513d601f19601f82011682018060405250810190612a719190614e00565b5050505050505050505050505050505050612ce2565b600254604080517f3b19e84a00000000000000000000000000000000000000000000000000000000815290515f926001600160a01b031691633b19e84a9160048083019260209291908290030181865afa158015612ae7573d5f803e3d5ffd5b505050506040513d601f19601f82011682018060405250810190612b0b9190614d52565b90505f60025f9054906101000a90046001600160a01b03166001600160a01b03166385462d6f6040518163ffffffff1660e01b8152600401602060405180830381865afa158015612b5e573d5f803e3d5ffd5b505050506040513d601f19601f82011682018060405250810190612b829190614d6d565b90505f60025f9054906101000a90046001600160a01b03166001600160a01b0316634f4608a26040518163ffffffff1660e01b8152600401602060405180830381865afa158015612bd5573d5f803e3d5ffd5b505050506040513d601f19601f82011682018060405250810190612bf99190614d6d565b90508c8c81518110612c0d57612c0d614f86565b60200260200101518a1115612cc2575f81612c288487614db1565b612c329190614dc8565b6040517fa9059cbb0000000000000000000000000000000000000000000000000000000081526001600160a01b03868116600483015260248201839052919250908d169063a9059cbb906044016020604051808303815f875af1158015612c9b573d5f803e3d5ffd5b505050506040513d601f19601f82011682018060405250810190612cbf9190614e00565b50505b50506001909901985061263c975050505050505050565b50505050505050505b6119db60017f9b779b17422d0df92223018b32b4d1fa46e071723d6817e2486d003becc55f0055565b612d13613e76565b6001600160a01b038116612d55576040517f1e4fbdf70000000000000000000000000000000000000000000000000000000081525f6004820152602401610d1e565b610f4181613eea565b612d66613663565b600254604080517f3e6dfa3600000000000000000000000000000000000000000000000000000000815290515f926001600160a01b031691633e6dfa369160048083019260209291908290030181865afa158015612dc6573d5f803e3d5ffd5b505050506040513d601f19601f82011682018060405250810190612dea9190614d52565b90505f60025f9054906101000a90046001600160a01b03166001600160a01b0316633b19e84a6040518163ffffffff1660e01b8152600401602060405180830381865afa158015612e3d573d5f803e3d5ffd5b505050506040513d601f19601f82011682018060405250810190612e619190614d52565b90505f60025f9054906101000a90046001600160a01b03166001600160a01b0316631bf01e9b6040518163ffffffff1660e01b8152600401602060405180830381865afa158015612eb4573d5f803e3d5ffd5b505050506040513d601f19601f82011682018060405250810190612ed89190614d52565b90505f60025f9054906101000a90046001600160a01b03166001600160a01b0316636c9c00786040518163ffffffff1660e01b8152600401602060405180830381865afa158015612f2b573d5f803e3d5ffd5b505050506040513d601f19601f82011682018060405250810190612f4f9190614d52565b90505f8511612fba576040517f08c379a000000000000000000000000000000000000000000000000000000000815260206004820152601060248201527f496e73756666696369656e742042414c000000000000000000000000000000006044820152606401610d1e565b5f612fc48661382a565b90505f5b612fd15f613939565b8110156135d2575f612fe38183613942565b90505f61300e7f52c63247e1f47db19d5ce0460030c497f067ca4cebf71ba98eeadabe20bace025490565b6040517f70a082310000000000000000000000000000000000000000000000000000000081523060048201529091505f906001600160a01b038416906370a0823190602401602060405180830381865afa15801561306e573d5f803e3d5ffd5b505050506040513d601f19601f820116820180604052508101906130929190614d6d565b90508015155f036130a5575050506135ca565b306001600160a01b038416036130bd575050506135ca565b5f836001600160a01b031663313ce5676040518163ffffffff1660e01b8152600401602060405180830381865afa1580156130fa573d5f803e3d5ffd5b505050506040513d601f19601f8201168201806040525081019061311e9190614e1f565b60ff169050613131896105af888e614e3f565b505f61313f8484898561394d565b6003549091506001600160a01b03908116908616036131ea576040517fa9059cbb000000000000000000000000000000000000000000000000000000008152336004820152602481018290526001600160a01b038a169063a9059cbb906044016020604051808303815f875af11580156131bb573d5f803e3d5ffd5b505050506040513d601f19601f820116820180604052508101906131df9190614e00565b5050505050506135ca565b600254604080517f82755ebb00000000000000000000000000000000000000000000000000000000815290515f926001600160a01b0316916382755ebb9160048083019260209291908290030181865afa15801561324a573d5f803e3d5ffd5b505050506040513d601f19601f8201168201806040525081019061326e9190614d52565b6040517f095ea7b30000000000000000000000000000000000000000000000000000000081526001600160a01b038083166004830152602482018590529192509087169063095ea7b3906044016020604051808303815f875af11580156132d7573d5f803e3d5ffd5b505050506040513d601f19601f820116820180604052508101906132fb9190614e00565b506003546040517f2d6bc8ea0000000000000000000000000000000000000000000000000000000081526001600160a01b03888116600483015291821660248201526044810184905233606482015290821690632d6bc8ea906084016020604051808303815f875af1925050508015613391575060408051601f3d908101601f1916820190925261338e91810190614d6d565b60015b613535576003546040517f5efaaebb0000000000000000000000000000000000000000000000000000000081526001600160a01b0388811660048301528b811660248301529182166044820152606481018490523360848201525f91831690635efaaebb9060a4016020604051808303815f875af1158015613415573d5f803e3d5ffd5b505050506040513d601f19601f820116820180604052508101906134399190614d6d565b6003546040517fa9059cbb000000000000000000000000000000000000000000000000000000008152336004820152602481018390529192506001600160a01b03169063a9059cbb906044016020604051808303815f875af11580156134a1573d5f803e3d5ffd5b505050506040513d601f19601f820116820180604052508101906134c59190614e00565b505f811161352f576040517f08c379a000000000000000000000000000000000000000000000000000000000815260206004820152601760248201527f53776170204661696c65642c20547279204275726e28290000000000000000006044820152606401610d1e565b506135c3565b6003546040517fa9059cbb000000000000000000000000000000000000000000000000000000008152336004820152602481018390526001600160a01b039091169063a9059cbb906044016020604051808303815f875af115801561359c573d5f803e3d5ffd5b505050506040513d601f19601f820116820180604052508101906135c09190614e00565b50505b5050505050505b600101612fc8565b506135dd3382613a8d565b60408051338152602081018390527fcc16f5dbb4873280815c1ee09dbd06736cffcc184412cf7a71a0fdb75d397ca5910160405180910390a15050505050610f4160017f9b779b17422d0df92223018b32b4d1fa46e071723d6817e2486d003becc55f0055565b5f611dd58585858561394d565b61365e83838360016140a3565b505050565b7f9b779b17422d0df92223018b32b4d1fa46e071723d6817e2486d003becc55f0080547ffffffffffffffffffffffffffffffffffffffffffffffffffffffffffffffffe016136de576040517f3ee5aeb500000000000000000000000000000000000000000000000000000000815260040160405180910390fd5b60029055565b5f805f5b6136f15f613939565b8110156137b1575f6137038183613942565b6040517f70a082310000000000000000000000000000000000000000000000000000000081523060048201529091505f906001600160a01b038316906370a0823190602401602060405180830381865afa158015613763573d5f803e3d5ffd5b505050506040513d601f19601f820116820180604052508101906137879190614d6d565b90505f6137948284611451565b90506137a0818661505e565b945050600190920191506136e89050565b50919050565b6001600160a01b0382166137f9576040517fec442f050000000000000000000000000000000000000000000000000000000081525f6004820152602401610d1e565b6119db5f83836141cb565b60017f9b779b17422d0df92223018b32b4d1fa46e071723d6817e2486d003becc55f0055565b5f8060025f9054906101000a90046001600160a01b03166001600160a01b03166385462d6f6040518163ffffffff1660e01b8152600401602060405180830381865afa15801561387c573d5f803e3d5ffd5b505050506040513d601f19601f820116820180604052508101906138a09190614d6d565b90505f60025f9054906101000a90046001600160a01b03166001600160a01b0316634f4608a26040518163ffffffff1660e01b8152600401602060405180830381865afa1580156138f3573d5f803e3d5ffd5b505050506040513d601f19601f820116820180604052508101906139179190614d6d565b90505f816139258482614e3f565b61392f9087614db1565b611dd59190614dc8565b5f610891825490565b5f6113468383614330565b5f8085116139b7576040517f08c379a000000000000000000000000000000000000000000000000000000000815260206004820152601b60248201527f546f74616c20737570706c792063616e6e6f74206265207a65726f00000000006044820152606401610d1e565b6012821115613a22576040517f08c379a000000000000000000000000000000000000000000000000000000000815260206004820152601e60248201527f546f6b656e20646563696d616c732073686f756c64206265203c3d20313800006044820152606401610d1e565b5f8080613a30856012614e3f565b613a3b90600a61518f565b90506012851015613a6357613a508189614dc8565b9250613a5c8187614dc8565b9150613a6a565b8792508591505b5f83613a768985614db1565b613a809190614dc8565b9998505050505050505050565b6001600160a01b038216613acf576040517f96c6fd1e0000000000000000000000000000000000000000000000000000000081525f6004820152602401610d1e565b6119db825f836141cb565b6001600160a01b038381165f9081527f52c63247e1f47db19d5ce0460030c497f067ca4cebf71ba98eeadabe20bace0160209081526040808320938616835292905220547fffffffffffffffffffffffffffffffffffffffffffffffffffffffffffffffff8114613ba65781811015613b98576040517ffb8f41b20000000000000000000000000000000000000000000000000000000081526001600160a01b03841660048201526024810182905260448101839052606401610d1e565b613ba684848484035f6140a3565b50505050565b6001600160a01b038316613bee576040517f96c6fd1e0000000000000000000000000000000000000000000000000000000081525f6004820152602401610d1e565b6001600160a01b038216613c30576040517fec442f050000000000000000000000000000000000000000000000000000000081525f6004820152602401610d1e565b61365e8383836141cb565b306001600160a01b037f0000000000000000000000000000000000000000000000000000000000000000161480613cd457507f00000000000000000000000000000000000000000000000000000000000000006001600160a01b0316613cc87f360894a13ba1a3210667c828492db98dca3e2076cc3735a920a3ca505d382bbc546001600160a01b031690565b6001600160a01b031614155b156119be576040517fe07c8dba00000000000000000000000000000000000000000000000000000000815260040160405180910390fd5b610f41613e76565b816001600160a01b03166352d1902d6040518163ffffffff1660e01b8152600401602060405180830381865afa925050508015613d6d575060408051601f3d908101601f19168201909252613d6a91810190614d6d565b60015b613dae576040517f4c9c8ce30000000000000000000000000000000000000000000000000000000081526001600160a01b0383166004820152602401610d1e565b7f360894a13ba1a3210667c828492db98dca3e2076cc3735a920a3ca505d382bbc8114613e0a576040517faa1d49a400000000000000000000000000000000000000000000000000000000815260048101829052602401610d1e565b61365e8383614356565b306001600160a01b037f000000000000000000000000000000000000000000000000000000000000000016146119be576040517fe07c8dba00000000000000000000000000000000000000000000000000000000815260040160405180910390fd5b33613ea87f9016d09d72d40fdae2fd8ceac6b6234c7706214fd39c1cd1e609a0528c199300546001600160a01b031690565b6001600160a01b0316146119be576040517f118cdaa7000000000000000000000000000000000000000000000000000000008152336004820152602401610d1e565b7f9016d09d72d40fdae2fd8ceac6b6234c7706214fd39c1cd1e609a0528c19930080547fffffffffffffffffffffffff000000000000000000000000000000000000000081166001600160a01b03848116918217845560405192169182907f8be0079c531659141344cd1fd0a4f28419497f9722a3daafe3b4186f6b6457e0905f90a3505050565b5f80613f9c7f52c63247e1f47db19d5ce0460030c497f067ca4cebf71ba98eeadabe20bace025490565b90505f8111614007576040517f08c379a000000000000000000000000000000000000000000000000000000000815260206004820152601b60248201527f546f74616c20737570706c792063616e6e6f74206265207a65726f00000000006044820152606401610d1e565b5f6140106136e4565b90508161401d8286614db1565b61155d9190614dc8565b60605f611346836143ab565b61403b614404565b6119db828261446b565b61404d614404565b610f41816144ce565b61405e614404565b6119be6144d6565b6119be614404565b5f611346836001600160a01b0384166144de565b6001600160a01b0381165f9081526001830160205260408120541515611346565b7f52c63247e1f47db19d5ce0460030c497f067ca4cebf71ba98eeadabe20bace006001600160a01b038516614106576040517fe602df050000000000000000000000000000000000000000000000000000000081525f6004820152602401610d1e565b6001600160a01b038416614148576040517f94280d620000000000000000000000000000000000000000000000000000000081525f6004820152602401610d1e565b6001600160a01b038086165f9081526001830160209081526040808320938816835292905220839055811561193157836001600160a01b0316856001600160a01b03167f8c5be1e5ebec7d5bd14f71427d1e84f3dd0314c0f7b2291e5b200ac8c7c3b925856040516141bc91815260200190565b60405180910390a35050505050565b7f52c63247e1f47db19d5ce0460030c497f067ca4cebf71ba98eeadabe20bace006001600160a01b0384166142185781816002015f82825461420d919061505e565b909155506142a19050565b6001600160a01b0384165f9081526020829052604090205482811015614283576040517fe450d38c0000000000000000000000000000000000000000000000000000000081526001600160a01b03861660048201526024810182905260448101849052606401610d1e565b6001600160a01b0385165f9081526020839052604090209083900390555b6001600160a01b0383166142bf5760028101805483900390556142dd565b6001600160a01b0383165f9081526020829052604090208054830190555b826001600160a01b0316846001600160a01b03167fddf252ad1be2c89b69c2b068fc378daa952ba7f163c4a11628f55a4df523b3ef8460405161432291815260200190565b60405180910390a350505050565b5f825f01828154811061434557614345614f86565b905f5260205f200154905092915050565b61435f8261452a565b6040516001600160a01b038316907fbc7cd75a20ee27fd9adebab32041f755214dbc6bffa90cc0225b39da2e5c2d3b905f90a28051156143a35761365e82826145d1565b6119db61463a565b6060815f018054806020026020016040519081016040528092919081815260200182805480156143f857602002820191905f5260205f20905b8154815260200190600101908083116143e4575b50505050509050919050565b7ff0c57e16840df040f15088dc2f81fe391c3923bec73e23a9662efc9c229c6a005468010000000000000000900460ff166119be576040517fd7e6bcf800000000000000000000000000000000000000000000000000000000815260040160405180910390fd5b614473614404565b7f52c63247e1f47db19d5ce0460030c497f067ca4cebf71ba98eeadabe20bace007f52c63247e1f47db19d5ce0460030c497f067ca4cebf71ba98eeadabe20bace036144bf84826151de565b5060048101613ba683826151de565b612d13614404565b613804614404565b5f81815260018301602052604081205461452357508154600181810184555f848152602080822090930184905584548482528286019093526040902091909155610891565b505f610891565b806001600160a01b03163b5f03614578576040517f4c9c8ce30000000000000000000000000000000000000000000000000000000081526001600160a01b0382166004820152602401610d1e565b7f360894a13ba1a3210667c828492db98dca3e2076cc3735a920a3ca505d382bbc80547fffffffffffffffffffffffff0000000000000000000000000000000000000000166001600160a01b0392909216919091179055565b60605f80846001600160a01b0316846040516145ed91906152d8565b5f60405180830381855af49150503d805f8114614625576040519150601f19603f3d011682016040523d82523d5f602084013e61462a565b606091505b5091509150611dd5858383614672565b34156119be576040517fb398979f00000000000000000000000000000000000000000000000000000000815260040160405180910390fd5b60608261468757614682826146e7565b611346565b815115801561469e57506001600160a01b0384163b155b156146e0576040517f9996b3150000000000000000000000000000000000000000000000000000000081526001600160a01b0385166004820152602401610d1e565b5080611346565b8051156146f75780518082602001fd5b6040517f1425ea4200000000000000000000000000000000000000000000000000000000815260040160405180910390fd5b5f81518084528060208401602086015e5f602082860101526020601f19601f83011685010191505092915050565b602081525f6113466020830184614729565b6001600160a01b0381168114610f41575f80fd5b5f806040838503121561478e575f80fd5b823561479981614769565b946020939093013593505050565b5f602082840312156147b7575f80fd5b5035919050565b5f805f606084860312156147d0575f80fd5b83356147db81614769565b925060208401356147eb81614769565b929592945050506040919091013590565b5f6020828403121561480c575f80fd5b813561134681614769565b5f8060408385031215614828575f80fd5b82359150602083013561483a81614769565b809150509250929050565b7f4e487b71000000000000000000000000000000000000000000000000000000005f52604160045260245ffd5b6040516060810167ffffffffffffffff8111828210171561489557614895614845565b60405290565b604051601f8201601f1916810167ffffffffffffffff811182821017156148c4576148c4614845565b604052919050565b5f82601f8301126148db575f80fd5b813567ffffffffffffffff8111156148f5576148f5614845565b6149086020601f19601f8401160161489b565b81815284602083860101111561491c575f80fd5b816020850160208301375f918101602001919091529392505050565b5f8060408385031215614949575f80fd5b823561495481614769565b9150602083013567ffffffffffffffff81111561496f575f80fd5b61497b858286016148cc565b9150509250929050565b5f8083601f840112614995575f80fd5b50813567ffffffffffffffff8111156149ac575f80fd5b6020830191508360208260051b85010111156149c6575f80fd5b9250929050565b5f805f805f805f8060c0898b0312156149e4575f80fd5b883567ffffffffffffffff808211156149fb575f80fd5b614a078c838d01614985565b909a50985060208b0135915080821115614a1f575f80fd5b50614a2c8b828c01614985565b9097509550506040890135614a4081614769565b93506060890135614a5081614769565b92506080890135915060a0890135614a6781614769565b809150509295985092959890939650565b5f8060408385031215614a89575f80fd5b8235614a9481614769565b9150602083013567ffffffffffffffff8116811461483a575f80fd5b5f815180845260208085019450602084015f5b83811015614ae85781516001600160a01b031687529582019590820190600101614ac3565b509495945050505050565b602081525f6113466020830184614ab0565b5f8060408385031215614b16575f80fd5b8235614b2181614769565b9150602083013561483a81614769565b5f67ffffffffffffffff821115614b4a57614b4a614845565b5060051b60200190565b5f82601f830112614b63575f80fd5b81356020614b78614b7383614b31565b61489b565b8083825260208201915060208460051b870101935086841115614b99575f80fd5b602086015b84811015614bbe578035614bb181614769565b8352918301918301614b9e565b509695505050505050565b5f8060408385031215614bda575f80fd5b823567ffffffffffffffff80821115614bf1575f80fd5b818501915085601f830112614c04575f80fd5b81356020614c14614b7383614b31565b82815260059290921b84018101918181019089841115614c32575f80fd5b8286015b84811015614cb557803586811115614c4c575f80fd5b87016060818d03601f1901811315614c62575f80fd5b614c6a614872565b86830135614c7781614769565b8152604083013587820152908201359088821115614c93575f80fd5b614ca18e88848601016148cc565b604082015285525050918301918301614c36565b5096505086013592505080821115614ccb575f80fd5b5061497b85828601614b54565b5f805f8060808587031215614ceb575f80fd5b5050823594602084013594506040840135936060013592509050565b600181811c90821680614d1b57607f821691505b6020821081036137b1577f4e487b71000000000000000000000000000000000000000000000000000000005f52602260045260245ffd5b5f60208284031215614d62575f80fd5b815161134681614769565b5f60208284031215614d7d575f80fd5b5051919050565b7f4e487b71000000000000000000000000000000000000000000000000000000005f52601160045260245ffd5b808202811582820484141761089157610891614d84565b5f82614dfb577f4e487b71000000000000000000000000000000000000000000000000000000005f52601260045260245ffd5b500490565b5f60208284031215614e10575f80fd5b81518015158114611346575f80fd5b5f60208284031215614e2f575f80fd5b815160ff81168114611346575f80fd5b8181038181111561089157610891614d84565b8183525f60208085019450825f5b85811015614ae8578135614e7381614769565b6001600160a01b031687529582019590820190600101614e60565b8183525f7f07ffffffffffffffffffffffffffffffffffffffffffffffffffffffffffffff831115614ebe575f80fd5b8260051b80836020870137939093016020019392505050565b60e08082528a519082018190525f90602090610100840190828e01845b82811015614f1057815184529284019290840190600101614ef4565b5050508381036020850152614f26818c8e614e52565b9150508281036040840152614f3c81898b614e8e565b915050856060830152614f5a60808301866001600160a01b03169052565b6001600160a01b03841660a08301526001600160a01b03831660c08301529a9950505050505050505050565b7f4e487b71000000000000000000000000000000000000000000000000000000005f52603260045260245ffd5b5f6040808301604084528086518083526060925060608601915060608160051b8701016020808a015f5b8481101561504b578984037fffffffffffffffffffffffffffffffffffffffffffffffffffffffffffffffa0018652815180516001600160a01b03168552838101518486015288015188850188905261503888860182614729565b9684019694505090820190600101614fdd565b505087820390880152613a808189614ab0565b8082018082111561089157610891614d84565b600181815b808511156150ca57817fffffffffffffffffffffffffffffffffffffffffffffffffffffffffffffffff048211156150b0576150b0614d84565b808516156150bd57918102915b93841c9390800290615076565b509250929050565b5f826150e057506001610891565b816150ec57505f610891565b8160018114615102576002811461510c57615128565b6001915050610891565b60ff84111561511d5761511d614d84565b50506001821b610891565b5060208310610133831016604e8410600b841016171561514b575081810a610891565b6151558383615071565b807fffffffffffffffffffffffffffffffffffffffffffffffffffffffffffffffff0482111561518757615187614d84565b029392505050565b5f61134683836150d2565b601f82111561365e57805f5260205f20601f840160051c810160208510156151bf5750805b601f840160051c820191505b81811015611931575f81556001016151cb565b815167ffffffffffffffff8111156151f8576151f8614845565b61520c816152068454614d07565b8461519a565b602080601f83116001811461525e575f84156152285750858301515b7fffffffffffffffffffffffffffffffffffffffffffffffffffffffffffffffff600386901b1c1916600185901b178555611929565b5f85815260208120601f198616915b8281101561528c5788860151825594840194600190910190840161526d565b50858210156152c857878501517fffffffffffffffffffffffffffffffffffffffffffffffffffffffffffffffff600388901b60f8161c191681555b5050505050600190811b01905550565b5f82518060208501845e5f92019182525091905056fea2646970667358221220bd7a500e9d6050da78452aaee67d7d29a6dd8d4bc6e81c7ad0936efd24aad0ed64736f6c63430008190033",
  "linkReferences": {},
  "deployedLinkReferences": {}
}