{
  "_format": "hh-sol-artifact-1",
  "contractName": "BaluniV1Router",
  "sourceName": "contracts/BaluniV1Router.sol",
  "abi": [
    {
      "inputs": [
        {
          "internalType": "address",
          "name": "target",
          "type": "address"
        }
      ],
      "name": "AddressEmptyCode",
      "type": "error"
    },
    {
      "inputs": [
        {
          "internalType": "address",
          "name": "implementation",
          "type": "address"
        }
      ],
      "name": "ERC1967InvalidImplementation",
      "type": "error"
    },
    {
      "inputs": [],
      "name": "ERC1967NonPayable",
      "type": "error"
    },
    {
      "inputs": [
        {
          "internalType": "address",
          "name": "spender",
          "type": "address"
        },
        {
          "internalType": "uint256",
          "name": "allowance",
          "type": "uint256"
        },
        {
          "internalType": "uint256",
          "name": "needed",
          "type": "uint256"
        }
      ],
      "name": "ERC20InsufficientAllowance",
      "type": "error"
    },
    {
      "inputs": [
        {
          "internalType": "address",
          "name": "sender",
          "type": "address"
        },
        {
          "internalType": "uint256",
          "name": "balance",
          "type": "uint256"
        },
        {
          "internalType": "uint256",
          "name": "needed",
          "type": "uint256"
        }
      ],
      "name": "ERC20InsufficientBalance",
      "type": "error"
    },
    {
      "inputs": [
        {
          "internalType": "address",
          "name": "approver",
          "type": "address"
        }
      ],
      "name": "ERC20InvalidApprover",
      "type": "error"
    },
    {
      "inputs": [
        {
          "internalType": "address",
          "name": "receiver",
          "type": "address"
        }
      ],
      "name": "ERC20InvalidReceiver",
      "type": "error"
    },
    {
      "inputs": [
        {
          "internalType": "address",
          "name": "sender",
          "type": "address"
        }
      ],
      "name": "ERC20InvalidSender",
      "type": "error"
    },
    {
      "inputs": [
        {
          "internalType": "address",
          "name": "spender",
          "type": "address"
        }
      ],
      "name": "ERC20InvalidSpender",
      "type": "error"
    },
    {
      "inputs": [],
      "name": "FailedInnerCall",
      "type": "error"
    },
    {
      "inputs": [],
      "name": "InvalidInitialization",
      "type": "error"
    },
    {
      "inputs": [],
      "name": "NotInitializing",
      "type": "error"
    },
    {
      "inputs": [
        {
          "internalType": "address",
          "name": "owner",
          "type": "address"
        }
      ],
      "name": "OwnableInvalidOwner",
      "type": "error"
    },
    {
      "inputs": [
        {
          "internalType": "address",
          "name": "account",
          "type": "address"
        }
      ],
      "name": "OwnableUnauthorizedAccount",
      "type": "error"
    },
    {
      "inputs": [],
      "name": "ReentrancyGuardReentrantCall",
      "type": "error"
    },
    {
      "inputs": [],
      "name": "UUPSUnauthorizedCallContext",
      "type": "error"
    },
    {
      "inputs": [
        {
          "internalType": "bytes32",
          "name": "slot",
          "type": "bytes32"
        }
      ],
      "name": "UUPSUnsupportedProxiableUUID",
      "type": "error"
    },
    {
      "anonymous": false,
      "inputs": [
        {
          "indexed": true,
          "internalType": "address",
          "name": "owner",
          "type": "address"
        },
        {
          "indexed": true,
          "internalType": "address",
          "name": "spender",
          "type": "address"
        },
        {
          "indexed": false,
          "internalType": "uint256",
          "name": "value",
          "type": "uint256"
        }
      ],
      "name": "Approval",
      "type": "event"
    },
    {
      "anonymous": false,
      "inputs": [
        {
          "indexed": false,
          "internalType": "address",
          "name": "user",
          "type": "address"
        },
        {
          "indexed": false,
          "internalType": "uint256",
          "name": "value",
          "type": "uint256"
        }
      ],
      "name": "Burn",
      "type": "event"
    },
    {
      "anonymous": false,
      "inputs": [
        {
          "indexed": false,
          "internalType": "address",
          "name": "user",
          "type": "address"
        },
        {
          "components": [
            {
              "internalType": "address",
              "name": "to",
              "type": "address"
            },
            {
              "internalType": "uint256",
              "name": "value",
              "type": "uint256"
            },
            {
              "internalType": "bytes",
              "name": "data",
              "type": "bytes"
            }
          ],
          "indexed": false,
          "internalType": "struct IBaluniV1Agent.Call[]",
          "name": "calls",
          "type": "tuple[]"
        },
        {
          "indexed": false,
          "internalType": "address[]",
          "name": "tokensReturn",
          "type": "address[]"
        }
      ],
      "name": "Execute",
      "type": "event"
    },
    {
      "anonymous": false,
      "inputs": [
        {
          "indexed": false,
          "internalType": "uint64",
          "name": "version",
          "type": "uint64"
        }
      ],
      "name": "Initialized",
      "type": "event"
    },
    {
      "anonymous": false,
      "inputs": [
        {
          "indexed": false,
          "internalType": "string",
          "name": "message",
          "type": "string"
        },
        {
          "indexed": false,
          "internalType": "uint256",
          "name": "value",
          "type": "uint256"
        }
      ],
      "name": "Log",
      "type": "event"
    },
    {
      "anonymous": false,
      "inputs": [
        {
          "indexed": false,
          "internalType": "address",
          "name": "user",
          "type": "address"
        },
        {
          "indexed": false,
          "internalType": "uint256",
          "name": "value",
          "type": "uint256"
        }
      ],
      "name": "Mint",
      "type": "event"
    },
    {
      "anonymous": false,
      "inputs": [
        {
          "indexed": true,
          "internalType": "address",
          "name": "previousOwner",
          "type": "address"
        },
        {
          "indexed": true,
          "internalType": "address",
          "name": "newOwner",
          "type": "address"
        }
      ],
      "name": "OwnershipTransferred",
      "type": "event"
    },
    {
      "anonymous": false,
      "inputs": [
        {
          "indexed": true,
          "internalType": "address",
          "name": "from",
          "type": "address"
        },
        {
          "indexed": true,
          "internalType": "address",
          "name": "to",
          "type": "address"
        },
        {
          "indexed": false,
          "internalType": "uint256",
          "name": "value",
          "type": "uint256"
        }
      ],
      "name": "Transfer",
      "type": "event"
    },
    {
      "anonymous": false,
      "inputs": [
        {
          "indexed": true,
          "internalType": "address",
          "name": "implementation",
          "type": "address"
        }
      ],
      "name": "Upgraded",
      "type": "event"
    },
    {
      "inputs": [],
      "name": "UPGRADE_INTERFACE_VERSION",
      "outputs": [
        {
          "internalType": "string",
          "name": "",
          "type": "string"
        }
      ],
      "stateMutability": "view",
      "type": "function"
    },
    {
      "inputs": [
        {
          "internalType": "address",
          "name": "owner",
          "type": "address"
        },
        {
          "internalType": "address",
          "name": "spender",
          "type": "address"
        }
      ],
      "name": "allowance",
      "outputs": [
        {
          "internalType": "uint256",
          "name": "",
          "type": "uint256"
        }
      ],
      "stateMutability": "view",
      "type": "function"
    },
    {
      "inputs": [
        {
          "internalType": "address",
          "name": "spender",
          "type": "address"
        },
        {
          "internalType": "uint256",
          "name": "value",
          "type": "uint256"
        }
      ],
      "name": "approve",
      "outputs": [
        {
          "internalType": "bool",
          "name": "",
          "type": "bool"
        }
      ],
      "stateMutability": "nonpayable",
      "type": "function"
    },
    {
      "inputs": [
        {
          "internalType": "address",
          "name": "account",
          "type": "address"
        }
      ],
      "name": "balanceOf",
      "outputs": [
        {
          "internalType": "uint256",
          "name": "",
          "type": "uint256"
        }
      ],
      "stateMutability": "view",
      "type": "function"
    },
    {
      "inputs": [],
      "name": "baseAsset",
      "outputs": [
        {
          "internalType": "address",
          "name": "",
          "type": "address"
        }
      ],
      "stateMutability": "view",
      "type": "function"
    },
    {
      "inputs": [
        {
          "internalType": "uint256",
          "name": "burnAmount",
          "type": "uint256"
        }
      ],
      "name": "burnERC20",
      "outputs": [],
      "stateMutability": "nonpayable",
      "type": "function"
    },
    {
      "inputs": [
        {
          "internalType": "uint256",
          "name": "burnAmount",
          "type": "uint256"
        }
      ],
      "name": "burnUSDC",
      "outputs": [],
      "stateMutability": "nonpayable",
      "type": "function"
    },
    {
      "inputs": [
        {
          "internalType": "uint256",
          "name": "totalBaluni",
          "type": "uint256"
        },
        {
          "internalType": "uint256",
          "name": "totalERC20Balance",
          "type": "uint256"
        },
        {
          "internalType": "uint256",
          "name": "baluniAmount",
          "type": "uint256"
        },
        {
          "internalType": "uint256",
          "name": "tokenDecimals",
          "type": "uint256"
        }
      ],
      "name": "calculateTokenShare",
      "outputs": [
        {
          "internalType": "uint256",
          "name": "",
          "type": "uint256"
        }
      ],
      "stateMutability": "pure",
      "type": "function"
    },
    {
      "inputs": [
        {
          "internalType": "address[]",
          "name": "assets",
          "type": "address[]"
        },
        {
          "internalType": "uint256[]",
          "name": "weights",
          "type": "uint256[]"
        },
        {
          "internalType": "address",
          "name": "sender",
          "type": "address"
        },
        {
          "internalType": "address",
          "name": "receiver",
          "type": "address"
        },
        {
          "internalType": "uint256",
          "name": "limit",
          "type": "uint256"
        },
        {
          "internalType": "address",
          "name": "",
          "type": "address"
        }
      ],
      "name": "callRebalance",
      "outputs": [],
      "stateMutability": "nonpayable",
      "type": "function"
    },
    {
      "inputs": [],
      "name": "decimals",
      "outputs": [
        {
          "internalType": "uint8",
          "name": "",
          "type": "uint8"
        }
      ],
      "stateMutability": "view",
      "type": "function"
    },
    {
      "inputs": [
        {
          "components": [
            {
              "internalType": "address",
              "name": "to",
              "type": "address"
            },
            {
              "internalType": "uint256",
              "name": "value",
              "type": "uint256"
            },
            {
              "internalType": "bytes",
              "name": "data",
              "type": "bytes"
            }
          ],
          "internalType": "struct IBaluniV1Agent.Call[]",
          "name": "calls",
          "type": "tuple[]"
        },
        {
          "internalType": "address[]",
          "name": "tokensReturn",
          "type": "address[]"
        }
      ],
      "name": "execute",
      "outputs": [],
      "stateMutability": "nonpayable",
      "type": "function"
    },
    {
      "inputs": [
        {
          "internalType": "address",
          "name": "_user",
          "type": "address"
        }
      ],
      "name": "getAgentAddress",
      "outputs": [
        {
          "internalType": "address",
          "name": "",
          "type": "address"
        }
      ],
      "stateMutability": "view",
      "type": "function"
    },
    {
      "inputs": [],
      "name": "getTokens",
      "outputs": [
        {
          "internalType": "address[]",
          "name": "",
          "type": "address[]"
        }
      ],
      "stateMutability": "view",
      "type": "function"
    },
    {
      "inputs": [
        {
          "internalType": "uint256",
          "name": "amount",
          "type": "uint256"
        }
      ],
      "name": "getUSDCShareValue",
      "outputs": [
        {
          "internalType": "uint256",
          "name": "",
          "type": "uint256"
        }
      ],
      "stateMutability": "view",
      "type": "function"
    },
    {
      "inputs": [],
      "name": "getVersion",
      "outputs": [
        {
          "internalType": "uint64",
          "name": "",
          "type": "uint64"
        }
      ],
      "stateMutability": "view",
      "type": "function"
    },
    {
      "inputs": [
        {
          "internalType": "address",
          "name": "_registry",
          "type": "address"
        }
      ],
      "name": "initialize",
      "outputs": [],
      "stateMutability": "nonpayable",
      "type": "function"
    },
    {
      "inputs": [
        {
          "internalType": "address",
          "name": "token",
          "type": "address"
        }
      ],
      "name": "liquidate",
      "outputs": [],
      "stateMutability": "nonpayable",
      "type": "function"
    },
    {
      "inputs": [],
      "name": "liquidateAll",
      "outputs": [],
      "stateMutability": "nonpayable",
      "type": "function"
    },
    {
      "inputs": [
        {
          "internalType": "uint256",
          "name": "balAmountToMint",
          "type": "uint256"
        }
      ],
      "name": "mintWithUSDC",
      "outputs": [],
      "stateMutability": "nonpayable",
      "type": "function"
    },
    {
      "inputs": [],
      "name": "name",
      "outputs": [
        {
          "internalType": "string",
          "name": "",
          "type": "string"
        }
      ],
      "stateMutability": "view",
      "type": "function"
    },
    {
      "inputs": [],
      "name": "owner",
      "outputs": [
        {
          "internalType": "address",
          "name": "",
          "type": "address"
        }
      ],
      "stateMutability": "view",
      "type": "function"
    },
    {
      "inputs": [],
      "name": "proxiableUUID",
      "outputs": [
        {
          "internalType": "bytes32",
          "name": "",
          "type": "bytes32"
        }
      ],
      "stateMutability": "view",
      "type": "function"
    },
    {
      "inputs": [],
      "name": "registry",
      "outputs": [
        {
          "internalType": "contract IBaluniV1Registry",
          "name": "",
          "type": "address"
        }
      ],
      "stateMutability": "view",
      "type": "function"
    },
    {
      "inputs": [
        {
          "internalType": "address",
          "name": "_registry",
          "type": "address"
        },
        {
          "internalType": "uint64",
          "name": "version",
          "type": "uint64"
        }
      ],
      "name": "reinitialize",
      "outputs": [],
      "stateMutability": "nonpayable",
      "type": "function"
    },
    {
      "inputs": [],
      "name": "renounceOwnership",
      "outputs": [],
      "stateMutability": "nonpayable",
      "type": "function"
    },
    {
      "inputs": [
        {
          "internalType": "uint256",
          "name": "balAmountToMint",
          "type": "uint256"
        }
      ],
      "name": "requiredUSDCtoMint",
      "outputs": [
        {
          "internalType": "uint256",
          "name": "",
          "type": "uint256"
        }
      ],
      "stateMutability": "view",
      "type": "function"
    },
    {
      "inputs": [
        {
          "internalType": "address",
          "name": "_registry",
          "type": "address"
        }
      ],
      "name": "resetContract",
      "outputs": [],
      "stateMutability": "nonpayable",
      "type": "function"
    },
    {
      "inputs": [],
      "name": "symbol",
      "outputs": [
        {
          "internalType": "string",
          "name": "",
          "type": "string"
        }
      ],
      "stateMutability": "view",
      "type": "function"
    },
    {
      "inputs": [
        {
          "internalType": "uint256",
          "name": "amount",
          "type": "uint256"
        },
        {
          "internalType": "address",
          "name": "token",
          "type": "address"
        }
      ],
      "name": "tokenValuation",
      "outputs": [
        {
          "internalType": "uint256",
          "name": "",
          "type": "uint256"
        }
      ],
      "stateMutability": "view",
      "type": "function"
    },
    {
      "inputs": [],
      "name": "totalSupply",
      "outputs": [
        {
          "internalType": "uint256",
          "name": "",
          "type": "uint256"
        }
      ],
      "stateMutability": "view",
      "type": "function"
    },
    {
      "inputs": [],
      "name": "totalValuation",
      "outputs": [
        {
          "internalType": "uint256",
          "name": "",
          "type": "uint256"
        }
      ],
      "stateMutability": "view",
      "type": "function"
    },
    {
      "inputs": [
        {
          "internalType": "address",
          "name": "to",
          "type": "address"
        },
        {
          "internalType": "uint256",
          "name": "value",
          "type": "uint256"
        }
      ],
      "name": "transfer",
      "outputs": [
        {
          "internalType": "bool",
          "name": "",
          "type": "bool"
        }
      ],
      "stateMutability": "nonpayable",
      "type": "function"
    },
    {
      "inputs": [
        {
          "internalType": "address",
          "name": "from",
          "type": "address"
        },
        {
          "internalType": "address",
          "name": "to",
          "type": "address"
        },
        {
          "internalType": "uint256",
          "name": "value",
          "type": "uint256"
        }
      ],
      "name": "transferFrom",
      "outputs": [
        {
          "internalType": "bool",
          "name": "",
          "type": "bool"
        }
      ],
      "stateMutability": "nonpayable",
      "type": "function"
    },
    {
      "inputs": [
        {
          "internalType": "address",
          "name": "newOwner",
          "type": "address"
        }
      ],
      "name": "transferOwnership",
      "outputs": [],
      "stateMutability": "nonpayable",
      "type": "function"
    },
    {
      "inputs": [],
      "name": "unitPrice",
      "outputs": [
        {
          "internalType": "uint256",
          "name": "",
          "type": "uint256"
        }
      ],
      "stateMutability": "view",
      "type": "function"
    },
    {
      "inputs": [
        {
          "internalType": "address",
          "name": "newImplementation",
          "type": "address"
        },
        {
          "internalType": "bytes",
          "name": "data",
          "type": "bytes"
        }
      ],
      "name": "upgradeToAndCall",
      "outputs": [],
      "stateMutability": "payable",
      "type": "function"
    }
  ],
  "bytecode": "0x60a0604052306080523480156012575f80fd5b506080516151076100395f395f8181613b5101528181613b7a0152613d2a01526151075ff3fe608060405260043610610243575f3560e01c806371ddcfb811610131578063c4d66de8116100ac578063e73faa2d1161007c578063f2fde38b11610062578063f2fde38b14610715578063fe0a4dd114610734578063fe330a5114610753575f80fd5b8063e73faa2d146106e2578063eedc3c50146106f6575f80fd5b8063c4d66de814610622578063cdf456e114610641578063dd62ed3e14610660578063e67ad759146106c3575f80fd5b806395d89b4111610101578063aa6ca808116100e7578063aa6ca8081461059a578063aa95d893146105bb578063ad3cb1cc146105da575f80fd5b806395d89b4114610567578063a9059cbb1461057b575f80fd5b806371ddcfb8146104ce5780637b103999146104ed5780638da5cb5b1461050c5780638f2248bc14610548575f80fd5b80632bdd955a116101c15780634f1ef28611610191578063599f69f711610177578063599f69f71461044857806370a0823114610467578063715018a6146104ba575f80fd5b80634f1ef2861461042157806352d1902d14610434575f80fd5b80632bdd955a146103b45780632f865568146103d3578063313ce567146103f25780633c2066a91461040d575f80fd5b806318160ddd1161021657806323b872dd116101fc57806323b872dd1461034a57806327d54a9214610369578063295b9300146103a0575f80fd5b806318160ddd146102ee5780631a168da21461032b575f80fd5b806306fdde0314610247578063095ea7b3146102715780630cfc7386146102a05780630d8e6e2c146102c1575b5f80fd5b348015610252575f80fd5b5061025b610772565b6040516102689190614633565b60405180910390f35b34801561027c575f80fd5b5061029061028b366004614659565b610845565b6040519015158152602001610268565b3480156102ab575f80fd5b506102bf6102ba366004614683565b61085e565b005b3480156102cc575f80fd5b506102d5610e72565b60405167ffffffffffffffff9091168152602001610268565b3480156102f9575f80fd5b507f52c63247e1f47db19d5ce0460030c497f067ca4cebf71ba98eeadabe20bace02545b604051908152602001610268565b348015610336575f80fd5b506102bf610345366004614683565b610eaa565b348015610355575f80fd5b5061029061036436600461469a565b6111f1565b348015610374575f80fd5b506103886103833660046146d8565b611216565b6040516001600160a01b039091168152602001610268565b3480156103ab575f80fd5b5061031d611311565b3480156103bf575f80fd5b5061031d6103ce3660046146f3565b61131a565b3480156103de575f80fd5b506102bf6103ed3660046146d8565b61142e565b3480156103fd575f80fd5b5060405160128152602001610268565b348015610418575f80fd5b506102bf6119f0565b6102bf61042f3660046147fb565b611a5a565b34801561043f575f80fd5b5061031d611a79565b348015610453575f80fd5b506102bf610462366004614890565b611aa7565b348015610472575f80fd5b5061031d6104813660046146d8565b6001600160a01b03165f9081527f52c63247e1f47db19d5ce0460030c497f067ca4cebf71ba98eeadabe20bace00602052604090205490565b3480156104c5575f80fd5b506102bf611c1d565b3480156104d9575f80fd5b5061031d6104e8366004614683565b611c2e565b3480156104f8575f80fd5b50600254610388906001600160a01b031681565b348015610517575f80fd5b507f9016d09d72d40fdae2fd8ceac6b6234c7706214fd39c1cd1e609a0528c199300546001600160a01b0316610388565b348015610553575f80fd5b506102bf61056236600461493b565b611c38565b348015610572575f80fd5b5061025b611d6e565b348015610586575f80fd5b50610290610595366004614659565b611dbf565b3480156105a5575f80fd5b506105ae611dcc565b60405161026891906149b6565b3480156105c6575f80fd5b5061031d6105d5366004614683565b611dd7565b3480156105e5575f80fd5b5061025b6040518060400160405280600581526020017f352e302e3000000000000000000000000000000000000000000000000000000081525081565b34801561062d575f80fd5b506102bf61063c3660046146d8565b611e3e565b34801561064c575f80fd5b50600354610388906001600160a01b031681565b34801561066b575f80fd5b5061031d61067a3660046149c8565b6001600160a01b039182165f9081527f52c63247e1f47db19d5ce0460030c497f067ca4cebf71ba98eeadabe20bace016020908152604080832093909416825291909152205490565b3480156106ce575f80fd5b506102bf6106dd3660046146d8565b6120db565b3480156106ed575f80fd5b5061031d612112565b348015610701575f80fd5b506102bf610710366004614a8c565b612124565b348015610720575f80fd5b506102bf61072f3660046146d8565b612bf9565b34801561073f575f80fd5b506102bf61074e366004614683565b612c4c565b34801561075e575f80fd5b5061031d61076d366004614b9b565b6135bb565b7f52c63247e1f47db19d5ce0460030c497f067ca4cebf71ba98eeadabe20bace0380546060917f52c63247e1f47db19d5ce0460030c497f067ca4cebf71ba98eeadabe20bace00916107c390614bca565b80601f01602080910402602001604051908101604052809291908181526020018280546107ef90614bca565b801561083a5780601f106108115761010080835404028352916020019161083a565b820191905f5260205f20905b81548152906001019060200180831161081d57829003601f168201915b505050505091505090565b5f336108528185856135c8565b60019150505b92915050565b6108666135da565b60025460408051631d8cf42560e11b815290515f926001600160a01b031691633b19e84a9160048083019260209291908290030181865afa1580156108ad573d5f803e3d5ffd5b505050506040513d601f19601f820116820180604052508101906108d19190614bfc565b90505f60025f9054906101000a90046001600160a01b03166001600160a01b0316631bf01e9b6040518163ffffffff1660e01b8152600401602060405180830381865afa158015610924573d5f803e3d5ffd5b505050506040513d601f19601f820116820180604052508101906109489190614bfc565b90505f60025f9054906101000a90046001600160a01b03166001600160a01b03166385462d6f6040518163ffffffff1660e01b8152600401602060405180830381865afa15801561099b573d5f803e3d5ffd5b505050506040513d601f19601f820116820180604052508101906109bf9190614c17565b90505f60025f9054906101000a90046001600160a01b03166001600160a01b0316634f4608a26040518163ffffffff1660e01b8152600401602060405180830381865afa158015610a12573d5f803e3d5ffd5b505050506040513d601f19601f82011682018060405250810190610a369190614c17565b90505f610a4161365b565b90505f610a6c7f52c63247e1f47db19d5ce0460030c497f067ca4cebf71ba98eeadabe20bace025490565b90505f81610a7a848a614c42565b610a849190614c59565b90506001600160a01b0386166323b872dd3330610aa664e8d4a5100086614c59565b6040517fffffffff0000000000000000000000000000000000000000000000000000000060e086901b1681526001600160a01b03938416600482015292909116602483015260448201526064016020604051808303815f875af1158015610b0f573d5f803e3d5ffd5b505050506040513d601f19601f82011682018060405250810190610b339190614c78565b506040516370a0823160e01b81523360048201525f906001600160a01b038816906370a0823190602401602060405180830381865afa158015610b78573d5f803e3d5ffd5b505050506040513d601f19601f82011682018060405250810190610b9c9190614c17565b6040517fdd62ed3e0000000000000000000000000000000000000000000000000000000081523360048201523060248201529091505f906001600160a01b0389169063dd62ed3e90604401602060405180830381865afa158015610c02573d5f803e3d5ffd5b505050506040513d601f19601f82011682018060405250810190610c269190614c17565b90505f8411610ca25760405162461bcd60e51b815260206004820152602260248201527f546f74616c2042414c554e4920737570706c792063616e6e6f74206265207a6560448201527f726f00000000000000000000000000000000000000000000000000000000000060648201526084015b60405180910390fd5b610cb164e8d4a5100084614c59565b821015610d005760405162461bcd60e51b815260206004820152601c60248201527f555344432062616c616e636520697320696e73756666696369656e74000000006044820152606401610c99565b610d0f64e8d4a5100084614c59565b811015610d5e5760405162461bcd60e51b815260206004820152601960248201527f436865636b2074686520746f6b656e20616c6c6f77616e6365000000000000006044820152606401610c99565b610d68338b613715565b60408051338152602081018c90527f0f6798a560793a54c3bcfe86a93cde1e73087d944c0ea20544137d4121396885910160405180910390a15f8688610db364e8d4a5100087614c59565b610dbd9190614c42565b610dc79190614c59565b60405163a9059cbb60e01b81526001600160a01b038c8116600483015260248201839052919250908a169063a9059cbb906044016020604051808303815f875af1158015610e17573d5f803e3d5ffd5b505050506040513d601f19601f82011682018060405250810190610e3b9190614c78565b5050505050505050505050610e6f60017f9b779b17422d0df92223018b32b4d1fa46e071723d6817e2486d003becc55f0055565b50565b5f610ea57ff0c57e16840df040f15088dc2f81fe391c3923bec73e23a9662efc9c229c6a005467ffffffffffffffff1690565b905090565b610eb26135da565b60025460408051631d8cf42560e11b815290515f926001600160a01b031691633b19e84a9160048083019260209291908290030181865afa158015610ef9573d5f803e3d5ffd5b505050506040513d601f19601f82011682018060405250810190610f1d9190614bfc565b335f9081527f52c63247e1f47db19d5ce0460030c497f067ca4cebf71ba98eeadabe20bace006020526040902054909150821115610f9d5760405162461bcd60e51b815260206004820152601060248201527f496e73756666696369656e742042414c000000000000000000000000000000006044820152606401610c99565b5f610fa783613788565b90505f5b610fb45f613897565b811015611182575f610fc681836138a0565b90505f610ff17f52c63247e1f47db19d5ce0460030c497f067ca4cebf71ba98eeadabe20bace025490565b6040516370a0823160e01b81523060048201529091505f906001600160a01b038416906370a0823190602401602060405180830381865afa158015611038573d5f803e3d5ffd5b505050506040513d601f19601f8201168201806040525081019061105c9190614c17565b905080158061107357506001600160a01b03831630145b156110805750505061117a565b5f836001600160a01b031663313ce5676040518163ffffffff1660e01b8152600401602060405180830381865afa1580156110bd573d5f803e3d5ffd5b505050506040513d601f19601f820116820180604052508101906110e19190614c97565b60ff1690506110f487610595888b614cb7565b505f611102848489856138ab565b60405163a9059cbb60e01b8152336004820152602481018290529091506001600160a01b0386169063a9059cbb906044016020604051808303815f875af115801561114f573d5f803e3d5ffd5b505050506040513d601f19601f820116820180604052508101906111739190614c78565b5050505050505b600101610fab565b5061118d33826139b7565b60408051338152602081018390527fcc16f5dbb4873280815c1ee09dbd06736cffcc184412cf7a71a0fdb75d397ca5910160405180910390a15050610e6f60017f9b779b17422d0df92223018b32b4d1fa46e071723d6817e2486d003becc55f0055565b5f336111fe858285613a04565b611209858585613ab7565b60019150505b9392505050565b5f8060025f9054906101000a90046001600160a01b03166001600160a01b031663f5d2d9986040518163ffffffff1660e01b8152600401602060405180830381865afa158015611268573d5f803e3d5ffd5b505050506040513d601f19601f8201168201806040525081019061128c9190614bfc565b6040517f27d54a920000000000000000000000000000000000000000000000000000000081526001600160a01b038581166004830152919250908216906327d54a9290602401602060405180830381865afa1580156112ed573d5f803e3d5ffd5b505050506040513d601f19601f8201168201806040525081019061120f9190614bfc565b5f610ea561365b565b5f8060025f9054906101000a90046001600160a01b03166001600160a01b031663bb3ba04c6040518163ffffffff1660e01b8152600401602060405180830381865afa15801561136c573d5f803e3d5ffd5b505050506040513d601f19601f820116820180604052508101906113909190614bfc565b6003546040517fb27b5e750000000000000000000000000000000000000000000000000000000081526001600160a01b03868116600483015291821660248201526044810187905291925082169063b27b5e7590606401602060405180830381865afa158015611402573d5f803e3d5ffd5b505050506040513d601f19601f820116820180604052508101906114269190614c17565b949350505050565b60025460408051631bf01e9b60e01b815290515f926001600160a01b031691631bf01e9b9160048083019260209291908290030181865afa158015611475573d5f803e3d5ffd5b505050506040513d601f19601f820116820180604052508101906114999190614bfc565b90505f60025f9054906101000a90046001600160a01b03166001600160a01b0316636c9c00786040518163ffffffff1660e01b8152600401602060405180830381865afa1580156114ec573d5f803e3d5ffd5b505050506040513d601f19601f820116820180604052508101906115109190614bfc565b90505f60025f9054906101000a90046001600160a01b03166001600160a01b0316633e6dfa366040518163ffffffff1660e01b8152600401602060405180830381865afa158015611563573d5f803e3d5ffd5b505050506040513d601f19601f820116820180604052508101906115879190614bfc565b90505f60025f9054906101000a90046001600160a01b03166001600160a01b03166382755ebb6040518163ffffffff1660e01b8152600401602060405180830381865afa1580156115da573d5f803e3d5ffd5b505050506040513d601f19601f820116820180604052508101906115fe9190614bfc565b6040516370a0823160e01b81523060048201529091505f906001600160a01b038716906370a0823190602401602060405180830381865afa158015611645573d5f803e3d5ffd5b505050506040513d601f19601f820116820180604052508101906116699190614c17565b604051630b4c774160e11b81526001600160a01b0388811660048301528781166024830152610bb860448301529192505f91851690631698ee8290606401602060405180830381865afa1580156116c2573d5f803e3d5ffd5b505050506040513d601f19601f820116820180604052508101906116e69190614bfc565b90508115156001600160a01b038216158015906117005750805b156118675760405163095ea7b360e01b81526001600160a01b0385811660048301526024820185905289169063095ea7b3906044016020604051808303815f875af1158015611751573d5f803e3d5ffd5b505050506040513d601f19601f820116820180604052508101906117759190614c78565b506040517f2d6bc8ea0000000000000000000000000000000000000000000000000000000081526001600160a01b0389811660048301528881166024830152604482018590523060648301525f9190861690632d6bc8ea906084016020604051808303815f875af11580156117ec573d5f803e3d5ffd5b505050506040513d601f19601f820116820180604052508101906118109190614c17565b90505f81116118615760405162461bcd60e51b815260206004820152601760248201527f53776170204661696c65642c20547279204275726e28290000000000000000006044820152606401610c99565b506119e6565b6001600160a01b03821615801561187b5750805b156119e65760405163095ea7b360e01b81526001600160a01b0385811660048301526024820185905289169063095ea7b3906044016020604051808303815f875af11580156118cc573d5f803e3d5ffd5b505050506040513d601f19601f820116820180604052508101906118f09190614c78565b506040517f5efaaebb0000000000000000000000000000000000000000000000000000000081526001600160a01b03898116600483015287811660248301528881166044830152606482018590523060848301525f9190861690635efaaebb9060a4016020604051808303815f875af115801561196f573d5f803e3d5ffd5b505050506040513d601f19601f820116820180604052508101906119939190614c17565b90505f81116119e45760405162461bcd60e51b815260206004820152601760248201527f53776170204661696c65642c20547279204275726e28290000000000000000006044820152606401610c99565b505b5050505050505050565b6119f86135da565b5f611a025f613897565b90505f5b81811015611a2d575f611a1981836138a0565b9050611a248161142e565b50600101611a06565b5050611a5860017f9b779b17422d0df92223018b32b4d1fa46e071723d6817e2486d003becc55f0055565b565b611a62613b46565b611a6b82613c16565b611a758282613c1e565b5050565b5f611a82613d1f565b507f360894a13ba1a3210667c828492db98dca3e2076cc3735a920a3ca505d382bbc90565b60025460408051631bf01e9b60e01b815290515f926001600160a01b031691631bf01e9b9160048083019260209291908290030181865afa158015611aee573d5f803e3d5ffd5b505050506040513d601f19601f82011682018060405250810190611b129190614bfc565b90505f60025f9054906101000a90046001600160a01b03166001600160a01b031663cff49d686040518163ffffffff1660e01b8152600401602060405180830381865afa158015611b65573d5f803e3d5ffd5b505050506040513d601f19601f82011682018060405250810190611b899190614bfc565b604080515f815260208101918290527ff0bf7714000000000000000000000000000000000000000000000000000000009091529091506001600160a01b03821663f0bf7714611be3838e8e8e8e8c8f8f8d60248901614d4f565b5f604051808303815f87803b158015611bfa575f80fd5b505af1158015611c0c573d5f803e3d5ffd5b505050505050505050505050505050565b611c25613d81565b611a585f613df5565b5f61085882613e72565b7ff0c57e16840df040f15088dc2f81fe391c3923bec73e23a9662efc9c229c6a00805482919068010000000000000000900460ff1680611c865750805467ffffffffffffffff808416911610155b15611cbd576040517ff92ee8a900000000000000000000000000000000000000000000000000000000815260040160405180910390fd5b80546801000000000000000067ffffffffffffffff84167fffffffffffffffffffffffffffffffffffffffffffffff00000000000000000090921682171782556002805473ffffffffffffffffffffffffffffffffffffffff19166001600160a01b038716179055815468ff0000000000000000191682556040519081527fc7f505b2f371ae2175ee4913f4499e1f2633a7b5936321eed1cdaeb6115181d29060200160405180910390a150505050565b7f52c63247e1f47db19d5ce0460030c497f067ca4cebf71ba98eeadabe20bace0480546060917f52c63247e1f47db19d5ce0460030c497f067ca4cebf71ba98eeadabe20bace00916107c390614bca565b5f33610852818585613ab7565b6060610ea55f613f0d565b5f80611de161365b565b90505f611e0c7f52c63247e1f47db19d5ce0460030c497f067ca4cebf71ba98eeadabe20bace025490565b90505f81611e1a8487614c42565b611e249190614c59565b9050611e3564e8d4a5100082614c59565b95945050505050565b7ff0c57e16840df040f15088dc2f81fe391c3923bec73e23a9662efc9c229c6a00805468010000000000000000810460ff16159067ffffffffffffffff165f81158015611e885750825b90505f8267ffffffffffffffff166001148015611ea45750303b155b905081158015611eb2575080155b15611ee9576040517ff92ee8a900000000000000000000000000000000000000000000000000000000815260040160405180910390fd5b84547fffffffffffffffffffffffffffffffffffffffffffffffff00000000000000001660011785558315611f3457845468ff00000000000000001916680100000000000000001785555b611fa86040518060400160405280600681526020017f42616c756e6900000000000000000000000000000000000000000000000000008152506040518060400160405280600681526020017f42414c554e490000000000000000000000000000000000000000000000000000815250613f19565b611fb133613f2b565b611fb9613f3c565b611fc1613f4c565b611fd330670de0b6b3a7640000613715565b6002805473ffffffffffffffffffffffffffffffffffffffff19166001600160a01b03881690811790915560408051631bf01e9b60e01b81529051631bf01e9b916004808201926020929091908290030181865afa158015612037573d5f803e3d5ffd5b505050506040513d601f19601f8201168201806040525081019061205b9190614bfc565b6003805473ffffffffffffffffffffffffffffffffffffffff19166001600160a01b039290921691909117905583156120d357845468ff000000000000000019168555604051600181527fc7f505b2f371ae2175ee4913f4499e1f2633a7b5936321eed1cdaeb6115181d29060200160405180910390a15b505050505050565b6120e3613d81565b6002805473ffffffffffffffffffffffffffffffffffffffff19166001600160a01b0392909216919091179055565b5f610ea5670de0b6b3a7640000613e72565b61212c6135da565b600254604080517ff5d2d99800000000000000000000000000000000000000000000000000000000815290515f926001600160a01b03169163f5d2d9989160048083019260209291908290030181865afa15801561218c573d5f803e3d5ffd5b505050506040513d601f19601f820116820180604052508101906121b09190614bfc565b90505f60025f9054906101000a90046001600160a01b03166001600160a01b0316633e6dfa366040518163ffffffff1660e01b8152600401602060405180830381865afa158015612203573d5f803e3d5ffd5b505050506040513d601f19601f820116820180604052508101906122279190614bfc565b90505f60025f9054906101000a90046001600160a01b03166001600160a01b0316636c9c00786040518163ffffffff1660e01b8152600401602060405180830381865afa15801561227a573d5f803e3d5ffd5b505050506040513d601f19601f8201168201806040525081019061229e9190614bfc565b90505f60025f9054906101000a90046001600160a01b03166001600160a01b0316631bf01e9b6040518163ffffffff1660e01b8152600401602060405180830381865afa1580156122f1573d5f803e3d5ffd5b505050506040513d601f19601f820116820180604052508101906123159190614bfc565b90506001600160a01b03841661236d5760405162461bcd60e51b815260206004820152601560248201527f4167656e7420666163746f7279206e6f742073657400000000000000000000006044820152606401610c99565b6040517f9b76a5cd0000000000000000000000000000000000000000000000000000000081523360048201525f906001600160a01b03861690639b76a5cd906024016020604051808303815f875af11580156123cb573d5f803e3d5ffd5b505050506040513d601f19601f820116820180604052508101906123ef9190614bfc565b90505f865167ffffffffffffffff81111561240c5761240c614721565b604051908082528060200260200182016040528015612435578160200160208202803683370190505b5090505f875167ffffffffffffffff81111561245357612453614721565b60405190808252806020026020018201604052801561247c578160200160208202803683370190505b5090505f5b885181101561257b576124ad5f8a83815181106124a0576124a0614dfe565b6020026020010151613f54565b158382815181106124c0576124c0614dfe565b6020026020010190151590811515815250508881815181106124e4576124e4614dfe565b60209081029190910101516040516370a0823160e01b81523060048201526001600160a01b03909116906370a0823190602401602060405180830381865afa158015612532573d5f803e3d5ffd5b505050506040513d601f19601f820116820180604052508101906125569190614c17565b82828151811061256857612568614dfe565b6020908102919091010152600101612481565b506040517feedc3c500000000000000000000000000000000000000000000000000000000081526001600160a01b0384169063eedc3c50906125c3908c908c90600401614e12565b5f604051808303815f87803b1580156125da575f80fd5b505af11580156125ec573d5f803e3d5ffd5b505050505f5b8851811015612bc7575f89828151811061260e5761260e614dfe565b60209081029190910101516040516370a0823160e01b81523060048201529091505f906001600160a01b038316906370a0823190602401602060405180830381865afa158015612660573d5f803e3d5ffd5b505050506040513d601f19601f820116820180604052508101906126849190614c17565b604051630b4c774160e11b81526001600160a01b0384811660048301528a81166024830152610bb860448301529192505f918b1690631698ee8290606401602060405180830381865afa1580156126dd573d5f803e3d5ffd5b505050506040513d601f19601f820116820180604052508101906127019190614bfc565b604051630b4c774160e11b81526001600160a01b0385811660048301528b811660248301526101f460448301529192505f918c1690631698ee8290606401602060405180830381865afa15801561275a573d5f803e3d5ffd5b505050506040513d601f19601f8201168201806040525081019061277e9190614bfc565b604051630b4c774160e11b81526001600160a01b0386811660048301528b811660248301526101f460448301529192505f918d1690631698ee8290606401602060405180830381865afa1580156127d7573d5f803e3d5ffd5b505050506040513d601f19601f820116820180604052508101906127fb9190614bfc565b604051630b4c774160e11b81526001600160a01b0387811660048301528c81166024830152610bb860448301529192505f918e1690631698ee8290606401602060405180830381865afa158015612854573d5f803e3d5ffd5b505050506040513d601f19601f820116820180604052508101906128789190614bfc565b90505f6001600160a01b03851615158061289a57506001600160a01b03841615155b806128ad57506001600160a01b03821615155b806128c057506001600160a01b03831615155b90508988815181106128d4576128d4614dfe565b602002602001015180156128e55750805b156128f6576128f45f88613f75565b505b5f89898151811061290957612909614dfe565b60200260200101518761291c9190614cb7565b9050816129a75760405163a9059cbb60e01b8152336004820152602481018290526001600160a01b0389169063a9059cbb906044016020604051808303815f875af115801561296d573d5f803e3d5ffd5b505050506040513d601f19601f820116820180604052508101906129919190614c78565b5050505050505050505050505050505050612bd0565b60025460408051631d8cf42560e11b815290515f926001600160a01b031691633b19e84a9160048083019260209291908290030181865afa1580156129ee573d5f803e3d5ffd5b505050506040513d601f19601f82011682018060405250810190612a129190614bfc565b90505f60025f9054906101000a90046001600160a01b03166001600160a01b03166385462d6f6040518163ffffffff1660e01b8152600401602060405180830381865afa158015612a65573d5f803e3d5ffd5b505050506040513d601f19601f82011682018060405250810190612a899190614c17565b90505f60025f9054906101000a90046001600160a01b03166001600160a01b0316634f4608a26040518163ffffffff1660e01b8152600401602060405180830381865afa158015612adc573d5f803e3d5ffd5b505050506040513d601f19601f82011682018060405250810190612b009190614c17565b90508c8c81518110612b1457612b14614dfe565b60200260200101518a1115612bb0575f81612b2f8487614c42565b612b399190614c59565b60405163a9059cbb60e01b81526001600160a01b03868116600483015260248201839052919250908d169063a9059cbb906044016020604051808303815f875af1158015612b89573d5f803e3d5ffd5b505050506040513d601f19601f82011682018060405250810190612bad9190614c78565b50505b5050600190990198506125f2975050505050505050565b50505050505050505b611a7560017f9b779b17422d0df92223018b32b4d1fa46e071723d6817e2486d003becc55f0055565b612c01613d81565b6001600160a01b038116612c43576040517f1e4fbdf70000000000000000000000000000000000000000000000000000000081525f6004820152602401610c99565b610e6f81613df5565b612c546135da565b600254604080517f3e6dfa3600000000000000000000000000000000000000000000000000000000815290515f926001600160a01b031691633e6dfa369160048083019260209291908290030181865afa158015612cb4573d5f803e3d5ffd5b505050506040513d601f19601f82011682018060405250810190612cd89190614bfc565b90505f60025f9054906101000a90046001600160a01b03166001600160a01b0316633b19e84a6040518163ffffffff1660e01b8152600401602060405180830381865afa158015612d2b573d5f803e3d5ffd5b505050506040513d601f19601f82011682018060405250810190612d4f9190614bfc565b90505f60025f9054906101000a90046001600160a01b03166001600160a01b0316631bf01e9b6040518163ffffffff1660e01b8152600401602060405180830381865afa158015612da2573d5f803e3d5ffd5b505050506040513d601f19601f82011682018060405250810190612dc69190614bfc565b90505f60025f9054906101000a90046001600160a01b03166001600160a01b0316636c9c00786040518163ffffffff1660e01b8152600401602060405180830381865afa158015612e19573d5f803e3d5ffd5b505050506040513d601f19601f82011682018060405250810190612e3d9190614bfc565b90505f8511612e8e5760405162461bcd60e51b815260206004820152601060248201527f496e73756666696369656e742042414c000000000000000000000000000000006044820152606401610c99565b5f612e9886613788565b90505f5b612ea55f613897565b811015613549575f612eb781836138a0565b90505f612ee27f52c63247e1f47db19d5ce0460030c497f067ca4cebf71ba98eeadabe20bace025490565b6040516370a0823160e01b81523060048201529091505f906001600160a01b038416906370a0823190602401602060405180830381865afa158015612f29573d5f803e3d5ffd5b505050506040513d601f19601f82011682018060405250810190612f4d9190614c17565b90508015155f03612f6057505050613541565b306001600160a01b03841603612f7857505050613541565b5f836001600160a01b031663313ce5676040518163ffffffff1660e01b8152600401602060405180830381865afa158015612fb5573d5f803e3d5ffd5b505050506040513d601f19601f82011682018060405250810190612fd99190614c97565b60ff169050612fec89610595888e614cb7565b505f612ffa848489856138ab565b9050886001600160a01b0316856001600160a01b03160361308e5760405163a9059cbb60e01b8152336004820152602481018290526001600160a01b038a169063a9059cbb906044016020604051808303815f875af115801561305f573d5f803e3d5ffd5b505050506040513d601f19601f820116820180604052508101906130839190614c78565b505050505050613541565b604051630b4c774160e11b81526001600160a01b0386811660048301528a81166024830152610bb860448301525f91908d1690631698ee8290606401602060405180830381865afa1580156130e5573d5f803e3d5ffd5b505050506040513d601f19601f820116820180604052508101906131099190614bfc565b90505f60025f9054906101000a90046001600160a01b03166001600160a01b03166382755ebb6040518163ffffffff1660e01b8152600401602060405180830381865afa15801561315c573d5f803e3d5ffd5b505050506040513d601f19601f820116820180604052508101906131809190614bfc565b90506001600160a01b038216156133635760405163095ea7b360e01b81526001600160a01b0382811660048301526024820185905288169063095ea7b3906044016020604051808303815f875af11580156131dd573d5f803e3d5ffd5b505050506040513d601f19601f820116820180604052508101906132019190614c78565b506040517f2d6bc8ea0000000000000000000000000000000000000000000000000000000081526001600160a01b0388811660048301528c81166024830152604482018590523360648301525f9190831690632d6bc8ea906084016020604051808303815f875af1158015613278573d5f803e3d5ffd5b505050506040513d601f19601f8201168201806040525081019061329c9190614c17565b60405163a9059cbb60e01b8152336004820152602481018290529091506001600160a01b038d169063a9059cbb906044016020604051808303815f875af11580156132e9573d5f803e3d5ffd5b505050506040513d601f19601f8201168201806040525081019061330d9190614c78565b505f811161335d5760405162461bcd60e51b815260206004820152601760248201527f53776170204661696c65642c20547279204275726e28290000000000000000006044820152606401610c99565b50613539565b60405163095ea7b360e01b81526001600160a01b0382811660048301526024820185905288169063095ea7b3906044016020604051808303815f875af11580156133af573d5f803e3d5ffd5b505050506040513d601f19601f820116820180604052508101906133d39190614c78565b506040517f5efaaebb0000000000000000000000000000000000000000000000000000000081526001600160a01b0388811660048301528b811660248301528c81166044830152606482018590523360848301525f9190831690635efaaebb9060a4016020604051808303815f875af1158015613452573d5f803e3d5ffd5b505050506040513d601f19601f820116820180604052508101906134769190614c17565b60405163a9059cbb60e01b8152336004820152602481018290529091506001600160a01b038d169063a9059cbb906044016020604051808303815f875af11580156134c3573d5f803e3d5ffd5b505050506040513d601f19601f820116820180604052508101906134e79190614c78565b505f81116135375760405162461bcd60e51b815260206004820152601760248201527f53776170204661696c65642c20547279204275726e28290000000000000000006044820152606401610c99565b505b505050505050505b600101612e9c565b5061355433826139b7565b60408051338152602081018390527fcc16f5dbb4873280815c1ee09dbd06736cffcc184412cf7a71a0fdb75d397ca5910160405180910390a15050505050610e6f60017f9b779b17422d0df92223018b32b4d1fa46e071723d6817e2486d003becc55f0055565b5f611e35858585856138ab565b6135d58383836001613f89565b505050565b7f9b779b17422d0df92223018b32b4d1fa46e071723d6817e2486d003becc55f0080547ffffffffffffffffffffffffffffffffffffffffffffffffffffffffffffffffe01613655576040517f3ee5aeb500000000000000000000000000000000000000000000000000000000815260040160405180910390fd5b60029055565b5f805f5b6136685f613897565b81101561370f575f61367a81836138a0565b6040516370a0823160e01b81523060048201529091505f906001600160a01b038316906370a0823190602401602060405180830381865afa1580156136c1573d5f803e3d5ffd5b505050506040513d601f19601f820116820180604052508101906136e59190614c17565b90505f6136f2828461131a565b90506136fe8186614ebd565b9450506001909201915061365f9050565b50919050565b6001600160a01b038216613757576040517fec442f050000000000000000000000000000000000000000000000000000000081525f6004820152602401610c99565b611a755f83836140b2565b60017f9b779b17422d0df92223018b32b4d1fa46e071723d6817e2486d003becc55f0055565b5f8060025f9054906101000a90046001600160a01b03166001600160a01b03166385462d6f6040518163ffffffff1660e01b8152600401602060405180830381865afa1580156137da573d5f803e3d5ffd5b505050506040513d601f19601f820116820180604052508101906137fe9190614c17565b90505f60025f9054906101000a90046001600160a01b03166001600160a01b0316634f4608a26040518163ffffffff1660e01b8152600401602060405180830381865afa158015613851573d5f803e3d5ffd5b505050506040513d601f19601f820116820180604052508101906138759190614c17565b90505f816138838482614cb7565b61388d9087614c42565b611e359190614c59565b5f610858825490565b5f61120f8383614217565b5f8085116138fb5760405162461bcd60e51b815260206004820152601b60248201527f546f74616c20737570706c792063616e6e6f74206265207a65726f00000000006044820152606401610c99565b601282111561394c5760405162461bcd60e51b815260206004820152601e60248201527f546f6b656e20646563696d616c732073686f756c64206265203c3d20313800006044820152606401610c99565b5f808061395a856012614cb7565b61396590600a614fb0565b9050601285101561398d5761397a8189614c59565b92506139868187614c59565b9150613994565b8792508591505b5f836139a08985614c42565b6139aa9190614c59565b9998505050505050505050565b6001600160a01b0382166139f9576040517f96c6fd1e0000000000000000000000000000000000000000000000000000000081525f6004820152602401610c99565b611a75825f836140b2565b6001600160a01b038381165f9081527f52c63247e1f47db19d5ce0460030c497f067ca4cebf71ba98eeadabe20bace0160209081526040808320938616835292905220545f198114613ab15781811015613aa3576040517ffb8f41b20000000000000000000000000000000000000000000000000000000081526001600160a01b03841660048201526024810182905260448101839052606401610c99565b613ab184848484035f613f89565b50505050565b6001600160a01b038316613af9576040517f96c6fd1e0000000000000000000000000000000000000000000000000000000081525f6004820152602401610c99565b6001600160a01b038216613b3b576040517fec442f050000000000000000000000000000000000000000000000000000000081525f6004820152602401610c99565b6135d58383836140b2565b306001600160a01b037f0000000000000000000000000000000000000000000000000000000000000000161480613bdf57507f00000000000000000000000000000000000000000000000000000000000000006001600160a01b0316613bd37f360894a13ba1a3210667c828492db98dca3e2076cc3735a920a3ca505d382bbc546001600160a01b031690565b6001600160a01b031614155b15611a58576040517fe07c8dba00000000000000000000000000000000000000000000000000000000815260040160405180910390fd5b610e6f613d81565b816001600160a01b03166352d1902d6040518163ffffffff1660e01b8152600401602060405180830381865afa925050508015613c78575060408051601f3d908101601f19168201909252613c7591810190614c17565b60015b613cb9576040517f4c9c8ce30000000000000000000000000000000000000000000000000000000081526001600160a01b0383166004820152602401610c99565b7f360894a13ba1a3210667c828492db98dca3e2076cc3735a920a3ca505d382bbc8114613d15576040517faa1d49a400000000000000000000000000000000000000000000000000000000815260048101829052602401610c99565b6135d5838361423d565b306001600160a01b037f00000000000000000000000000000000000000000000000000000000000000001614611a58576040517fe07c8dba00000000000000000000000000000000000000000000000000000000815260040160405180910390fd5b33613db37f9016d09d72d40fdae2fd8ceac6b6234c7706214fd39c1cd1e609a0528c199300546001600160a01b031690565b6001600160a01b031614611a58576040517f118cdaa7000000000000000000000000000000000000000000000000000000008152336004820152602401610c99565b7f9016d09d72d40fdae2fd8ceac6b6234c7706214fd39c1cd1e609a0528c199300805473ffffffffffffffffffffffffffffffffffffffff1981166001600160a01b03848116918217845560405192169182907f8be0079c531659141344cd1fd0a4f28419497f9722a3daafe3b4186f6b6457e0905f90a3505050565b5f80613e9c7f52c63247e1f47db19d5ce0460030c497f067ca4cebf71ba98eeadabe20bace025490565b90505f8111613eed5760405162461bcd60e51b815260206004820152601b60248201527f546f74616c20737570706c792063616e6e6f74206265207a65726f00000000006044820152606401610c99565b5f613ef661365b565b905081613f038286614c42565b6114269190614c59565b60605f61120f83614292565b613f216142eb565b611a758282614352565b613f336142eb565b610e6f816143b5565b613f446142eb565b611a586143bd565b611a586142eb565b6001600160a01b0381165f908152600183016020526040812054151561120f565b5f61120f836001600160a01b0384166143c5565b7f52c63247e1f47db19d5ce0460030c497f067ca4cebf71ba98eeadabe20bace006001600160a01b038516613fec576040517fe602df050000000000000000000000000000000000000000000000000000000081525f6004820152602401610c99565b6001600160a01b03841661402e576040517f94280d620000000000000000000000000000000000000000000000000000000081525f6004820152602401610c99565b6001600160a01b038086165f908152600183016020908152604080832093881683529290522083905581156140ab57836001600160a01b0316856001600160a01b03167f8c5be1e5ebec7d5bd14f71427d1e84f3dd0314c0f7b2291e5b200ac8c7c3b925856040516140a291815260200190565b60405180910390a35b5050505050565b7f52c63247e1f47db19d5ce0460030c497f067ca4cebf71ba98eeadabe20bace006001600160a01b0384166140ff5781816002015f8282546140f49190614ebd565b909155506141889050565b6001600160a01b0384165f908152602082905260409020548281101561416a576040517fe450d38c0000000000000000000000000000000000000000000000000000000081526001600160a01b03861660048201526024810182905260448101849052606401610c99565b6001600160a01b0385165f9081526020839052604090209083900390555b6001600160a01b0383166141a65760028101805483900390556141c4565b6001600160a01b0383165f9081526020829052604090208054830190555b826001600160a01b0316846001600160a01b03167fddf252ad1be2c89b69c2b068fc378daa952ba7f163c4a11628f55a4df523b3ef8460405161420991815260200190565b60405180910390a350505050565b5f825f01828154811061422c5761422c614dfe565b905f5260205f200154905092915050565b61424682614411565b6040516001600160a01b038316907fbc7cd75a20ee27fd9adebab32041f755214dbc6bffa90cc0225b39da2e5c2d3b905f90a280511561428a576135d582826144ad565b611a75614516565b6060815f018054806020026020016040519081016040528092919081815260200182805480156142df57602002820191905f5260205f20905b8154815260200190600101908083116142cb575b50505050509050919050565b7ff0c57e16840df040f15088dc2f81fe391c3923bec73e23a9662efc9c229c6a005468010000000000000000900460ff16611a58576040517fd7e6bcf800000000000000000000000000000000000000000000000000000000815260040160405180910390fd5b61435a6142eb565b7f52c63247e1f47db19d5ce0460030c497f067ca4cebf71ba98eeadabe20bace007f52c63247e1f47db19d5ce0460030c497f067ca4cebf71ba98eeadabe20bace036143a68482614fff565b5060048101613ab18382614fff565b612c016142eb565b6137626142eb565b5f81815260018301602052604081205461440a57508154600181810184555f848152602080822090930184905584548482528286019093526040902091909155610858565b505f610858565b806001600160a01b03163b5f0361445f576040517f4c9c8ce30000000000000000000000000000000000000000000000000000000081526001600160a01b0382166004820152602401610c99565b7f360894a13ba1a3210667c828492db98dca3e2076cc3735a920a3ca505d382bbc805473ffffffffffffffffffffffffffffffffffffffff19166001600160a01b0392909216919091179055565b60605f80846001600160a01b0316846040516144c991906150bb565b5f60405180830381855af49150503d805f8114614501576040519150601f19603f3d011682016040523d82523d5f602084013e614506565b606091505b5091509150611e3585838361454e565b3415611a58576040517fb398979f00000000000000000000000000000000000000000000000000000000815260040160405180910390fd5b6060826145635761455e826145c3565b61120f565b815115801561457a57506001600160a01b0384163b155b156145bc576040517f9996b3150000000000000000000000000000000000000000000000000000000081526001600160a01b0385166004820152602401610c99565b508061120f565b8051156145d35780518082602001fd5b6040517f1425ea4200000000000000000000000000000000000000000000000000000000815260040160405180910390fd5b5f81518084528060208401602086015e5f602082860101526020601f19601f83011685010191505092915050565b602081525f61120f6020830184614605565b6001600160a01b0381168114610e6f575f80fd5b5f806040838503121561466a575f80fd5b823561467581614645565b946020939093013593505050565b5f60208284031215614693575f80fd5b5035919050565b5f805f606084860312156146ac575f80fd5b83356146b781614645565b925060208401356146c781614645565b929592945050506040919091013590565b5f602082840312156146e8575f80fd5b813561120f81614645565b5f8060408385031215614704575f80fd5b82359150602083013561471681614645565b809150509250929050565b634e487b7160e01b5f52604160045260245ffd5b6040516060810167ffffffffffffffff8111828210171561475857614758614721565b60405290565b604051601f8201601f1916810167ffffffffffffffff8111828210171561478757614787614721565b604052919050565b5f82601f83011261479e575f80fd5b813567ffffffffffffffff8111156147b8576147b8614721565b6147cb6020601f19601f8401160161475e565b8181528460208386010111156147df575f80fd5b816020850160208301375f918101602001919091529392505050565b5f806040838503121561480c575f80fd5b823561481781614645565b9150602083013567ffffffffffffffff811115614832575f80fd5b61483e8582860161478f565b9150509250929050565b5f8083601f840112614858575f80fd5b50813567ffffffffffffffff81111561486f575f80fd5b6020830191508360208260051b8501011115614889575f80fd5b9250929050565b5f805f805f805f8060c0898b0312156148a7575f80fd5b883567ffffffffffffffff808211156148be575f80fd5b6148ca8c838d01614848565b909a50985060208b01359150808211156148e2575f80fd5b506148ef8b828c01614848565b909750955050604089013561490381614645565b9350606089013561491381614645565b92506080890135915060a089013561492a81614645565b809150509295985092959890939650565b5f806040838503121561494c575f80fd5b823561495781614645565b9150602083013567ffffffffffffffff81168114614716575f80fd5b5f815180845260208085019450602084015f5b838110156149ab5781516001600160a01b031687529582019590820190600101614986565b509495945050505050565b602081525f61120f6020830184614973565b5f80604083850312156149d9575f80fd5b82356149e481614645565b9150602083013561471681614645565b5f67ffffffffffffffff821115614a0d57614a0d614721565b5060051b60200190565b5f82601f830112614a26575f80fd5b81356020614a3b614a36836149f4565b61475e565b8083825260208201915060208460051b870101935086841115614a5c575f80fd5b602086015b84811015614a81578035614a7481614645565b8352918301918301614a61565b509695505050505050565b5f8060408385031215614a9d575f80fd5b823567ffffffffffffffff80821115614ab4575f80fd5b818501915085601f830112614ac7575f80fd5b81356020614ad7614a36836149f4565b82815260059290921b84018101918181019089841115614af5575f80fd5b8286015b84811015614b7857803586811115614b0f575f80fd5b87016060818d03601f1901811315614b25575f80fd5b614b2d614735565b86830135614b3a81614645565b8152604083013587820152908201359088821115614b56575f80fd5b614b648e888486010161478f565b604082015285525050918301918301614af9565b5096505086013592505080821115614b8e575f80fd5b5061483e85828601614a17565b5f805f8060808587031215614bae575f80fd5b5050823594602084013594506040840135936060013592509050565b600181811c90821680614bde57607f821691505b60208210810361370f57634e487b7160e01b5f52602260045260245ffd5b5f60208284031215614c0c575f80fd5b815161120f81614645565b5f60208284031215614c27575f80fd5b5051919050565b634e487b7160e01b5f52601160045260245ffd5b808202811582820484141761085857610858614c2e565b5f82614c7357634e487b7160e01b5f52601260045260245ffd5b500490565b5f60208284031215614c88575f80fd5b8151801515811461120f575f80fd5b5f60208284031215614ca7575f80fd5b815160ff8116811461120f575f80fd5b8181038181111561085857610858614c2e565b8183525f60208085019450825f5b858110156149ab578135614ceb81614645565b6001600160a01b031687529582019590820190600101614cd8565b8183525f7f07ffffffffffffffffffffffffffffffffffffffffffffffffffffffffffffff831115614d36575f80fd5b8260051b80836020870137939093016020019392505050565b60e08082528a519082018190525f90602090610100840190828e01845b82811015614d8857815184529284019290840190600101614d6c565b5050508381036020850152614d9e818c8e614cca565b9150508281036040840152614db481898b614d06565b915050856060830152614dd260808301866001600160a01b03169052565b6001600160a01b03841660a08301526001600160a01b03831660c08301529a9950505050505050505050565b634e487b7160e01b5f52603260045260245ffd5b5f6040808301604084528086518083526060925060608601915060608160051b8701016020808a015f5b84811015614eaa578984037fffffffffffffffffffffffffffffffffffffffffffffffffffffffffffffffa0018652815180516001600160a01b031685528381015184860152880151888501889052614e9788860182614605565b9684019694505090820190600101614e3c565b5050878203908801526139aa8189614973565b8082018082111561085857610858614c2e565b600181815b80851115614f0a57815f1904821115614ef057614ef0614c2e565b80851615614efd57918102915b93841c9390800290614ed5565b509250929050565b5f82614f2057506001610858565b81614f2c57505f610858565b8160018114614f425760028114614f4c57614f68565b6001915050610858565b60ff841115614f5d57614f5d614c2e565b50506001821b610858565b5060208310610133831016604e8410600b8410161715614f8b575081810a610858565b614f958383614ed0565b805f1904821115614fa857614fa8614c2e565b029392505050565b5f61120f8383614f12565b601f8211156135d557805f5260205f20601f840160051c81016020851015614fe05750805b601f840160051c820191505b818110156140ab575f8155600101614fec565b815167ffffffffffffffff81111561501957615019614721565b61502d816150278454614bca565b84614fbb565b602080601f831160018114615060575f84156150495750858301515b5f19600386901b1c1916600185901b1785556120d3565b5f85815260208120601f198616915b8281101561508e5788860151825594840194600190910190840161506f565b50858210156150ab57878501515f19600388901b60f8161c191681555b5050505050600190811b01905550565b5f82518060208501845e5f92019182525091905056fea264697066735822122029833bb2c13545c6aca5fb111a3874cabc9294f5550c8d9ce3c96e4caca50bcf64736f6c63430008190033",
  "linkReferences": {},
  "deployedLinkReferences": {}
}