{
  "_format": "hh-sol-artifact-1",
  "contractName": "BaluniV1Router",
  "sourceName": "contracts/BaluniV1Router.sol",
  "abi": [
    {
      "inputs": [
        {
          "internalType": "address",
          "name": "target",
          "type": "address"
        }
      ],
      "name": "AddressEmptyCode",
      "type": "error"
    },
    {
      "inputs": [
        {
          "internalType": "address",
          "name": "implementation",
          "type": "address"
        }
      ],
      "name": "ERC1967InvalidImplementation",
      "type": "error"
    },
    {
      "inputs": [],
      "name": "ERC1967NonPayable",
      "type": "error"
    },
    {
      "inputs": [
        {
          "internalType": "address",
          "name": "spender",
          "type": "address"
        },
        {
          "internalType": "uint256",
          "name": "allowance",
          "type": "uint256"
        },
        {
          "internalType": "uint256",
          "name": "needed",
          "type": "uint256"
        }
      ],
      "name": "ERC20InsufficientAllowance",
      "type": "error"
    },
    {
      "inputs": [
        {
          "internalType": "address",
          "name": "sender",
          "type": "address"
        },
        {
          "internalType": "uint256",
          "name": "balance",
          "type": "uint256"
        },
        {
          "internalType": "uint256",
          "name": "needed",
          "type": "uint256"
        }
      ],
      "name": "ERC20InsufficientBalance",
      "type": "error"
    },
    {
      "inputs": [
        {
          "internalType": "address",
          "name": "approver",
          "type": "address"
        }
      ],
      "name": "ERC20InvalidApprover",
      "type": "error"
    },
    {
      "inputs": [
        {
          "internalType": "address",
          "name": "receiver",
          "type": "address"
        }
      ],
      "name": "ERC20InvalidReceiver",
      "type": "error"
    },
    {
      "inputs": [
        {
          "internalType": "address",
          "name": "sender",
          "type": "address"
        }
      ],
      "name": "ERC20InvalidSender",
      "type": "error"
    },
    {
      "inputs": [
        {
          "internalType": "address",
          "name": "spender",
          "type": "address"
        }
      ],
      "name": "ERC20InvalidSpender",
      "type": "error"
    },
    {
      "inputs": [],
      "name": "FailedInnerCall",
      "type": "error"
    },
    {
      "inputs": [],
      "name": "InvalidInitialization",
      "type": "error"
    },
    {
      "inputs": [],
      "name": "NotInitializing",
      "type": "error"
    },
    {
      "inputs": [
        {
          "internalType": "address",
          "name": "owner",
          "type": "address"
        }
      ],
      "name": "OwnableInvalidOwner",
      "type": "error"
    },
    {
      "inputs": [
        {
          "internalType": "address",
          "name": "account",
          "type": "address"
        }
      ],
      "name": "OwnableUnauthorizedAccount",
      "type": "error"
    },
    {
      "inputs": [],
      "name": "ReentrancyGuardReentrantCall",
      "type": "error"
    },
    {
      "inputs": [],
      "name": "UUPSUnauthorizedCallContext",
      "type": "error"
    },
    {
      "inputs": [
        {
          "internalType": "bytes32",
          "name": "slot",
          "type": "bytes32"
        }
      ],
      "name": "UUPSUnsupportedProxiableUUID",
      "type": "error"
    },
    {
      "anonymous": false,
      "inputs": [
        {
          "indexed": true,
          "internalType": "address",
          "name": "owner",
          "type": "address"
        },
        {
          "indexed": true,
          "internalType": "address",
          "name": "spender",
          "type": "address"
        },
        {
          "indexed": false,
          "internalType": "uint256",
          "name": "value",
          "type": "uint256"
        }
      ],
      "name": "Approval",
      "type": "event"
    },
    {
      "anonymous": false,
      "inputs": [
        {
          "indexed": false,
          "internalType": "address",
          "name": "user",
          "type": "address"
        },
        {
          "indexed": false,
          "internalType": "uint256",
          "name": "value",
          "type": "uint256"
        }
      ],
      "name": "Burn",
      "type": "event"
    },
    {
      "anonymous": false,
      "inputs": [
        {
          "indexed": false,
          "internalType": "uint256",
          "name": "newFee",
          "type": "uint256"
        }
      ],
      "name": "ChangeBpsFee",
      "type": "event"
    },
    {
      "anonymous": false,
      "inputs": [
        {
          "indexed": false,
          "internalType": "address",
          "name": "pool",
          "type": "address"
        }
      ],
      "name": "ChangeRewardPool",
      "type": "event"
    },
    {
      "anonymous": false,
      "inputs": [
        {
          "indexed": false,
          "internalType": "address",
          "name": "user",
          "type": "address"
        },
        {
          "components": [
            {
              "internalType": "address",
              "name": "to",
              "type": "address"
            },
            {
              "internalType": "uint256",
              "name": "value",
              "type": "uint256"
            },
            {
              "internalType": "bytes",
              "name": "data",
              "type": "bytes"
            }
          ],
          "indexed": false,
          "internalType": "struct IBaluniV1Agent.Call[]",
          "name": "calls",
          "type": "tuple[]"
        },
        {
          "indexed": false,
          "internalType": "address[]",
          "name": "tokensReturn",
          "type": "address[]"
        }
      ],
      "name": "Execute",
      "type": "event"
    },
    {
      "anonymous": false,
      "inputs": [
        {
          "indexed": false,
          "internalType": "uint64",
          "name": "version",
          "type": "uint64"
        }
      ],
      "name": "Initialized",
      "type": "event"
    },
    {
      "anonymous": false,
      "inputs": [
        {
          "indexed": false,
          "internalType": "string",
          "name": "message",
          "type": "string"
        },
        {
          "indexed": false,
          "internalType": "uint256",
          "name": "value",
          "type": "uint256"
        }
      ],
      "name": "Log",
      "type": "event"
    },
    {
      "anonymous": false,
      "inputs": [
        {
          "indexed": false,
          "internalType": "address",
          "name": "user",
          "type": "address"
        },
        {
          "indexed": false,
          "internalType": "uint256",
          "name": "value",
          "type": "uint256"
        }
      ],
      "name": "Mint",
      "type": "event"
    },
    {
      "anonymous": false,
      "inputs": [
        {
          "indexed": true,
          "internalType": "address",
          "name": "previousOwner",
          "type": "address"
        },
        {
          "indexed": true,
          "internalType": "address",
          "name": "newOwner",
          "type": "address"
        }
      ],
      "name": "OwnershipTransferred",
      "type": "event"
    },
    {
      "anonymous": false,
      "inputs": [
        {
          "indexed": true,
          "internalType": "address",
          "name": "from",
          "type": "address"
        },
        {
          "indexed": true,
          "internalType": "address",
          "name": "to",
          "type": "address"
        },
        {
          "indexed": false,
          "internalType": "uint256",
          "name": "value",
          "type": "uint256"
        }
      ],
      "name": "Transfer",
      "type": "event"
    },
    {
      "anonymous": false,
      "inputs": [
        {
          "indexed": true,
          "internalType": "address",
          "name": "implementation",
          "type": "address"
        }
      ],
      "name": "Upgraded",
      "type": "event"
    },
    {
      "inputs": [],
      "name": "UPGRADE_INTERFACE_VERSION",
      "outputs": [
        {
          "internalType": "string",
          "name": "",
          "type": "string"
        }
      ],
      "stateMutability": "view",
      "type": "function"
    },
    {
      "inputs": [],
      "name": "USDC",
      "outputs": [
        {
          "internalType": "address",
          "name": "",
          "type": "address"
        }
      ],
      "stateMutability": "view",
      "type": "function"
    },
    {
      "inputs": [],
      "name": "WNATIVE",
      "outputs": [
        {
          "internalType": "address",
          "name": "",
          "type": "address"
        }
      ],
      "stateMutability": "view",
      "type": "function"
    },
    {
      "inputs": [],
      "name": "_BPS_BASE",
      "outputs": [
        {
          "internalType": "uint256",
          "name": "",
          "type": "uint256"
        }
      ],
      "stateMutability": "view",
      "type": "function"
    },
    {
      "inputs": [],
      "name": "_BPS_FEE",
      "outputs": [
        {
          "internalType": "uint256",
          "name": "",
          "type": "uint256"
        }
      ],
      "stateMutability": "view",
      "type": "function"
    },
    {
      "inputs": [],
      "name": "_MAX_BPS_FEE",
      "outputs": [
        {
          "internalType": "uint256",
          "name": "",
          "type": "uint256"
        }
      ],
      "stateMutability": "view",
      "type": "function"
    },
    {
      "inputs": [],
      "name": "agentFactory",
      "outputs": [
        {
          "internalType": "address",
          "name": "",
          "type": "address"
        }
      ],
      "stateMutability": "view",
      "type": "function"
    },
    {
      "inputs": [
        {
          "internalType": "address",
          "name": "owner",
          "type": "address"
        },
        {
          "internalType": "address",
          "name": "spender",
          "type": "address"
        }
      ],
      "name": "allowance",
      "outputs": [
        {
          "internalType": "uint256",
          "name": "",
          "type": "uint256"
        }
      ],
      "stateMutability": "view",
      "type": "function"
    },
    {
      "inputs": [
        {
          "internalType": "address",
          "name": "spender",
          "type": "address"
        },
        {
          "internalType": "uint256",
          "name": "value",
          "type": "uint256"
        }
      ],
      "name": "approve",
      "outputs": [
        {
          "internalType": "bool",
          "name": "",
          "type": "bool"
        }
      ],
      "stateMutability": "nonpayable",
      "type": "function"
    },
    {
      "inputs": [
        {
          "internalType": "address",
          "name": "account",
          "type": "address"
        }
      ],
      "name": "balanceOf",
      "outputs": [
        {
          "internalType": "uint256",
          "name": "",
          "type": "uint256"
        }
      ],
      "stateMutability": "view",
      "type": "function"
    },
    {
      "inputs": [
        {
          "internalType": "uint256",
          "name": "burnAmount",
          "type": "uint256"
        }
      ],
      "name": "burnERC20",
      "outputs": [],
      "stateMutability": "nonpayable",
      "type": "function"
    },
    {
      "inputs": [
        {
          "internalType": "uint256",
          "name": "burnAmount",
          "type": "uint256"
        }
      ],
      "name": "burnUSDC",
      "outputs": [],
      "stateMutability": "nonpayable",
      "type": "function"
    },
    {
      "inputs": [
        {
          "internalType": "uint256",
          "name": "totalBaluni",
          "type": "uint256"
        },
        {
          "internalType": "uint256",
          "name": "totalERC20Balance",
          "type": "uint256"
        },
        {
          "internalType": "uint256",
          "name": "baluniAmount",
          "type": "uint256"
        },
        {
          "internalType": "uint256",
          "name": "tokenDecimals",
          "type": "uint256"
        }
      ],
      "name": "calculateTokenShare",
      "outputs": [
        {
          "internalType": "uint256",
          "name": "",
          "type": "uint256"
        }
      ],
      "stateMutability": "pure",
      "type": "function"
    },
    {
      "inputs": [
        {
          "internalType": "address[]",
          "name": "assets",
          "type": "address[]"
        },
        {
          "internalType": "uint256[]",
          "name": "weights",
          "type": "uint256[]"
        },
        {
          "internalType": "address",
          "name": "sender",
          "type": "address"
        },
        {
          "internalType": "address",
          "name": "receiver",
          "type": "address"
        },
        {
          "internalType": "uint256",
          "name": "limit",
          "type": "uint256"
        },
        {
          "internalType": "address",
          "name": "",
          "type": "address"
        }
      ],
      "name": "callRebalance",
      "outputs": [],
      "stateMutability": "nonpayable",
      "type": "function"
    },
    {
      "inputs": [
        {
          "internalType": "address",
          "name": "_agentFactory",
          "type": "address"
        }
      ],
      "name": "changeAgentFactory",
      "outputs": [],
      "stateMutability": "nonpayable",
      "type": "function"
    },
    {
      "inputs": [
        {
          "internalType": "uint256",
          "name": "_newFee",
          "type": "uint256"
        }
      ],
      "name": "changeBpsFee",
      "outputs": [],
      "stateMutability": "nonpayable",
      "type": "function"
    },
    {
      "inputs": [
        {
          "internalType": "address",
          "name": "_newRebalancer",
          "type": "address"
        }
      ],
      "name": "changeRebalancer",
      "outputs": [],
      "stateMutability": "nonpayable",
      "type": "function"
    },
    {
      "inputs": [
        {
          "internalType": "address",
          "name": "_newTreasury",
          "type": "address"
        }
      ],
      "name": "changeTreasury",
      "outputs": [],
      "stateMutability": "nonpayable",
      "type": "function"
    },
    {
      "inputs": [],
      "name": "decimals",
      "outputs": [
        {
          "internalType": "uint8",
          "name": "",
          "type": "uint8"
        }
      ],
      "stateMutability": "view",
      "type": "function"
    },
    {
      "inputs": [
        {
          "components": [
            {
              "internalType": "address",
              "name": "to",
              "type": "address"
            },
            {
              "internalType": "uint256",
              "name": "value",
              "type": "uint256"
            },
            {
              "internalType": "bytes",
              "name": "data",
              "type": "bytes"
            }
          ],
          "internalType": "struct IBaluniV1Agent.Call[]",
          "name": "calls",
          "type": "tuple[]"
        },
        {
          "internalType": "address[]",
          "name": "tokensReturn",
          "type": "address[]"
        }
      ],
      "name": "execute",
      "outputs": [],
      "stateMutability": "nonpayable",
      "type": "function"
    },
    {
      "inputs": [
        {
          "internalType": "address",
          "name": "_user",
          "type": "address"
        }
      ],
      "name": "getAgentAddress",
      "outputs": [
        {
          "internalType": "address",
          "name": "",
          "type": "address"
        }
      ],
      "stateMutability": "view",
      "type": "function"
    },
    {
      "inputs": [],
      "name": "getTokens",
      "outputs": [
        {
          "internalType": "address[]",
          "name": "",
          "type": "address[]"
        }
      ],
      "stateMutability": "view",
      "type": "function"
    },
    {
      "inputs": [
        {
          "internalType": "uint256",
          "name": "amount",
          "type": "uint256"
        }
      ],
      "name": "getUSDCShareValue",
      "outputs": [
        {
          "internalType": "uint256",
          "name": "",
          "type": "uint256"
        }
      ],
      "stateMutability": "view",
      "type": "function"
    },
    {
      "inputs": [],
      "name": "getVersion",
      "outputs": [
        {
          "internalType": "uint64",
          "name": "",
          "type": "uint64"
        }
      ],
      "stateMutability": "view",
      "type": "function"
    },
    {
      "inputs": [
        {
          "internalType": "string",
          "name": "name",
          "type": "string"
        },
        {
          "internalType": "string",
          "name": "symbol",
          "type": "string"
        }
      ],
      "name": "initialize",
      "outputs": [],
      "stateMutability": "nonpayable",
      "type": "function"
    },
    {
      "inputs": [
        {
          "internalType": "address",
          "name": "_usdc",
          "type": "address"
        },
        {
          "internalType": "address",
          "name": "_wnative",
          "type": "address"
        },
        {
          "internalType": "address",
          "name": "_1inchSpotAgg",
          "type": "address"
        },
        {
          "internalType": "address",
          "name": "_uniRouter",
          "type": "address"
        },
        {
          "internalType": "address",
          "name": "_uniFactory",
          "type": "address"
        },
        {
          "internalType": "address",
          "name": "_rebalancer",
          "type": "address"
        }
      ],
      "name": "initialize",
      "outputs": [],
      "stateMutability": "nonpayable",
      "type": "function"
    },
    {
      "inputs": [
        {
          "internalType": "address",
          "name": "token",
          "type": "address"
        }
      ],
      "name": "liquidate",
      "outputs": [],
      "stateMutability": "nonpayable",
      "type": "function"
    },
    {
      "inputs": [],
      "name": "liquidateAll",
      "outputs": [],
      "stateMutability": "nonpayable",
      "type": "function"
    },
    {
      "inputs": [
        {
          "internalType": "uint256",
          "name": "balAmountToMint",
          "type": "uint256"
        }
      ],
      "name": "mintWithUSDC",
      "outputs": [],
      "stateMutability": "nonpayable",
      "type": "function"
    },
    {
      "inputs": [
        {
          "internalType": "address",
          "name": "token0",
          "type": "address"
        },
        {
          "internalType": "address",
          "name": "token1",
          "type": "address"
        },
        {
          "internalType": "address",
          "name": "token2",
          "type": "address"
        },
        {
          "internalType": "uint256",
          "name": "amount",
          "type": "uint256"
        },
        {
          "internalType": "address",
          "name": "receiver",
          "type": "address"
        }
      ],
      "name": "multiHopSwap",
      "outputs": [
        {
          "internalType": "uint256",
          "name": "amountOut",
          "type": "uint256"
        }
      ],
      "stateMutability": "nonpayable",
      "type": "function"
    },
    {
      "inputs": [],
      "name": "name",
      "outputs": [
        {
          "internalType": "string",
          "name": "",
          "type": "string"
        }
      ],
      "stateMutability": "view",
      "type": "function"
    },
    {
      "inputs": [],
      "name": "oracle",
      "outputs": [
        {
          "internalType": "address",
          "name": "",
          "type": "address"
        }
      ],
      "stateMutability": "view",
      "type": "function"
    },
    {
      "inputs": [],
      "name": "owner",
      "outputs": [
        {
          "internalType": "address",
          "name": "",
          "type": "address"
        }
      ],
      "stateMutability": "view",
      "type": "function"
    },
    {
      "inputs": [],
      "name": "proxiableUUID",
      "outputs": [
        {
          "internalType": "bytes32",
          "name": "",
          "type": "bytes32"
        }
      ],
      "stateMutability": "view",
      "type": "function"
    },
    {
      "inputs": [],
      "name": "rebalancer",
      "outputs": [
        {
          "internalType": "address",
          "name": "",
          "type": "address"
        }
      ],
      "stateMutability": "view",
      "type": "function"
    },
    {
      "inputs": [
        {
          "internalType": "address",
          "name": "_usdc",
          "type": "address"
        },
        {
          "internalType": "address",
          "name": "_wnative",
          "type": "address"
        },
        {
          "internalType": "address",
          "name": "_1inchSpotAgg",
          "type": "address"
        },
        {
          "internalType": "address",
          "name": "_uniRouter",
          "type": "address"
        },
        {
          "internalType": "address",
          "name": "_uniFactory",
          "type": "address"
        },
        {
          "internalType": "address",
          "name": "_rebalancer",
          "type": "address"
        },
        {
          "internalType": "uint64",
          "name": "version",
          "type": "uint64"
        }
      ],
      "name": "reinitialize",
      "outputs": [],
      "stateMutability": "nonpayable",
      "type": "function"
    },
    {
      "inputs": [],
      "name": "renounceOwnership",
      "outputs": [],
      "stateMutability": "nonpayable",
      "type": "function"
    },
    {
      "inputs": [
        {
          "internalType": "uint256",
          "name": "balAmountToMint",
          "type": "uint256"
        }
      ],
      "name": "requiredUSDCtoMint",
      "outputs": [
        {
          "internalType": "uint256",
          "name": "",
          "type": "uint256"
        }
      ],
      "stateMutability": "view",
      "type": "function"
    },
    {
      "inputs": [
        {
          "internalType": "address",
          "name": "token0",
          "type": "address"
        },
        {
          "internalType": "address",
          "name": "token1",
          "type": "address"
        },
        {
          "internalType": "uint256",
          "name": "amount",
          "type": "uint256"
        },
        {
          "internalType": "address",
          "name": "receiver",
          "type": "address"
        }
      ],
      "name": "singleSwap",
      "outputs": [
        {
          "internalType": "uint256",
          "name": "amountOut",
          "type": "uint256"
        }
      ],
      "stateMutability": "nonpayable",
      "type": "function"
    },
    {
      "inputs": [],
      "name": "symbol",
      "outputs": [
        {
          "internalType": "string",
          "name": "",
          "type": "string"
        }
      ],
      "stateMutability": "view",
      "type": "function"
    },
    {
      "inputs": [
        {
          "internalType": "uint256",
          "name": "amount",
          "type": "uint256"
        },
        {
          "internalType": "address",
          "name": "token",
          "type": "address"
        }
      ],
      "name": "tokenValuation",
      "outputs": [
        {
          "internalType": "uint256",
          "name": "",
          "type": "uint256"
        }
      ],
      "stateMutability": "view",
      "type": "function"
    },
    {
      "inputs": [],
      "name": "totalSupply",
      "outputs": [
        {
          "internalType": "uint256",
          "name": "",
          "type": "uint256"
        }
      ],
      "stateMutability": "view",
      "type": "function"
    },
    {
      "inputs": [],
      "name": "totalValuation",
      "outputs": [
        {
          "internalType": "uint256",
          "name": "",
          "type": "uint256"
        }
      ],
      "stateMutability": "view",
      "type": "function"
    },
    {
      "inputs": [
        {
          "internalType": "address",
          "name": "to",
          "type": "address"
        },
        {
          "internalType": "uint256",
          "name": "value",
          "type": "uint256"
        }
      ],
      "name": "transfer",
      "outputs": [
        {
          "internalType": "bool",
          "name": "",
          "type": "bool"
        }
      ],
      "stateMutability": "nonpayable",
      "type": "function"
    },
    {
      "inputs": [
        {
          "internalType": "address",
          "name": "from",
          "type": "address"
        },
        {
          "internalType": "address",
          "name": "to",
          "type": "address"
        },
        {
          "internalType": "uint256",
          "name": "value",
          "type": "uint256"
        }
      ],
      "name": "transferFrom",
      "outputs": [
        {
          "internalType": "bool",
          "name": "",
          "type": "bool"
        }
      ],
      "stateMutability": "nonpayable",
      "type": "function"
    },
    {
      "inputs": [
        {
          "internalType": "address",
          "name": "newOwner",
          "type": "address"
        }
      ],
      "name": "transferOwnership",
      "outputs": [],
      "stateMutability": "nonpayable",
      "type": "function"
    },
    {
      "inputs": [],
      "name": "treasury",
      "outputs": [
        {
          "internalType": "address",
          "name": "",
          "type": "address"
        }
      ],
      "stateMutability": "view",
      "type": "function"
    },
    {
      "inputs": [],
      "name": "unitPrice",
      "outputs": [
        {
          "internalType": "uint256",
          "name": "",
          "type": "uint256"
        }
      ],
      "stateMutability": "view",
      "type": "function"
    },
    {
      "inputs": [
        {
          "internalType": "address",
          "name": "newImplementation",
          "type": "address"
        },
        {
          "internalType": "bytes",
          "name": "data",
          "type": "bytes"
        }
      ],
      "name": "upgradeToAndCall",
      "outputs": [],
      "stateMutability": "payable",
      "type": "function"
    }
  ],
  "bytecode": "0x60a0806040523460295730608052614321908161002e8239608051818181611892015261193a0152f35b5f80fdfe6080806040526004361015610012575f80fd5b5f905f3560e01c90816301d22ccd14612a805750806306497cb914612a3457806306fdde031461296e5780630918281b1461292b578063095ea7b3146128ac5780630a38abab146128695780630cfc7386146124df5780630d8e6e2c146124ad57806318160ddd146124845780631a168da21461221157806323b872dd1461213357806327d54a92146120b0578063295b9300146120965780632bdd955a146120705780632d6bc8ea14611f455780632f86556814611f24578063313ce56714611f0957806334decfc914611eec5780633c2066a914611e8d5780634cd88b7614611b155780634f1ef286146118fc57806352d1902d14611880578063599f69f7146116bf5780635efaaebb1461158957806361d027b31461156057806370a082311461151b578063715018a6146114b257806371ddcfb81461146e5780637dc0d1d0146114455780637df107ea1461141c57806385377188146113fe57806389a30271146113d55780638da5cb5b146113a057806395d89b41146112c1578063a9059cbb1461128f578063aa6ca80814611205578063aa95d893146111bc578063ad3cb1cc14611172578063b0d60ba01461100e578063b14f2a3914610fce578063b381cf4014610fa5578063b9f5e61714610f87578063cc2a9a5b14610969578063dd62ed3e14610921578063e73faa2d146108b9578063eedc3c5014610713578063f2fde38b146106e6578063fe0a4dd11461026b5763fe330a5114610239575f80fd5b346102685760803660031901126102685760206102606064356044356024356004356138f9565b604051908152f35b80fd5b50346102685760209081600319360112610268576004359161028b6137ad565b610296831515612d13565b815b600554811015610687576102ab81614084565b90545f8051602061424c833981519152546040516370a0823160e01b81523060048201526003936024936001600160a01b039391861b1c83169187818681865afa9081156104d9578991610656575b508015610648573083146106485760405163313ce56760e01b81528881600481875afa90811561063d579160ff8c9261033d95948d91610610575b5016926138f9565b6007938888858754168086146105a45750905084600e541691606486885416916040519485938492630b4c774160e11b8452896004850152830152610bb860448301525afa9081156104d9579084918a91610577575b506103a38383600d541686613d08565b16156104e4576103da916103bd9130918587541690613e56565b936103d56103cf600454925483612d6b565b86612cca565b612cdd565b825460405163a9059cbb60e01b8082523360048301526024820184905294918890829060449082908d9089165af180156104d957610431858a969461045e9896948d946104bc575b50541693600c54169288612d6b565b6040519485526001600160a01b039092166004850152602484019190915291938492839182906044820190565b03925af180156104b1579161047e9160019493610484575b501515612e4f565b01610298565b6104a390863d88116104aa575b61049b8183612b8d565b810190612cfb565b505f610476565b503d610491565b6040513d87823e3d90fd5b6104d290893d8b116104aa5761049b8183612b8d565b505f610422565b6040513d8b823e3d90fd5b6104fd916103bd91846008541685875416903393613f60565b825460405163a9059cbb60e01b8082523360048301526024820184905294918890829060449082908d9089165af180156104d957610431858a96946105539896948d946104bc5750541693600c54169288612d6b565b03925af180156104b15791610572916001949361048457501515612e4f565b61047e565b6105979150893d8b1161059d575b61058f8183612b8d565b810190612d78565b5f610393565b503d610585565b60405163a9059cbb60e01b8152336004820152602481019590955293975095508694506044935084929091505af180156106055790600192916105e8575b5061047e565b6105fe90843d86116104aa5761049b8183612b8d565b505f6105e2565b6040513d86823e3d90fd5b61063091508c8d3d10610636575b6106288183612b8d565b810190612d52565b5f610335565b503d61061e565b6040513d8c823e3d90fd5b50505050505060019061047e565b90508781813d8311610680575b61066d8183612b8d565b8101031261067c57515f6102fa565b5f80fd5b503d610663565b827fcc16f5dbb4873280815c1ee09dbd06736cffcc184412cf7a71a0fdb75d397ca56106cf866106b781336139a7565b60408051338152602081019290925290918291820190565b0390a160015f805160206142ac8339815191525580f35b503461026857602036600319011261026857610710610703612ac7565b61070b613775565b613704565b80f35b503461026857604036600319011261026857600435906001600160401b038083116108b557366023840112156108b55782600401359260249161075585612c7b565b916107636040519384612b8d565b858352602095848785019160051b8301019136831161081a57858101915b8383106108225750505050823590811161081e573660238201121561081e5780600401356107ae81612c7b565b936107bc6040519586612b8d565b818552808786019260051b8401019236841161081a5701905b82821061080357856107ef86866107ea6137ad565b613042565b60015f805160206142ac8339815191525580f35b86809161080f84612b4b565b8152019101906107d5565b8680fd5b8380fd5b82358581116108b15782016060908160231982360301126108ad576040519182018281108882111761089a5760405261085c898201612b4b565b825260448101358b830152606481013587811161089657916108868c94928b869536920101612bc9565b6040820152815201920191610781565b8a80fd5b89634e487b7160e01b5f5260416004525ffd5b8980fd5b8880fd5b5080fd5b50346102685780600319360112610268575f8051602061424c833981519152546108e481151561389f565b6108ec6137e9565b670de0b6b3a7640000908082029182040361090d5760209161026091612cdd565b634e487b7160e01b5f52601160045260245ffd5b50346102685760403660031901126102685761093b612ac7565b61094c610946612add565b91612fe2565b9060018060a01b03165f52602052602060405f2054604051908152f35b50346102685760c036600319011261026857610983612ac7565b61098b612add565b610993612b09565b9061099c612af3565b6109a4612b35565b916109ad612b1f565b905f805160206142cc83398151915254946001600160401b03861680159081610f77575b6001149081610f6d575b159081610f64575b50610f525760016001600160401b03198716175f805160206142cc8339815191525560ff8660401c1615610f26575b604051610a1e81612b72565b600681526542616c756e6960d01b602082015260405190610a3e82612b72565b600682526542414c554e4960d01b6020830152610a596140b9565b610a616140b9565b8051906001600160401b038211610f12578190610a8b5f805160206141cc83398151915254612c92565b601f8111610e97575b50602090601f8311600114610e0b578c92610e00575b50508160011b915f199060031b1c1916175f805160206141cc833981519152555b8051906001600160401b038211610dec578190610af55f8051602061420c83398151915254612c92565b601f8111610d71575b50602090601f8311600114610ce5578b92610cda575b50508160011b915f199060031b1c1916175f8051602061420c833981519152555b610b3d6140b9565b610b456140b9565b610b4e33613704565b610b566140b9565b610b5e6140b9565b60015f805160206142ac83398151915255610b776140b9565b3015610cc2575f8051602061424c833981519152805492670de0b6b3a76400009889850180951161090d5760ff99610c4e958c9455305f525f805160206141ec83398151915260205260405f208181540190556040519081525f5f8051602061426c83398151915260203093a36101f4600255601e60035561271060045560018060a01b0397888098818094169a8b9781600754976001600160601b0360a01b9e8f8a1617600755168d6008541617600855168b60095416176009551689600d541617600d551687600e541617600e5516176140e7565b501681600b541617600b553390600c541617600c5560401c1615610c6f5780f35b60ff60401b195f805160206142cc83398151915254165f805160206142cc833981519152557fc7f505b2f371ae2175ee4913f4499e1f2633a7b5936321eed1cdaeb6115181d2602060405160018152a180f35b60405163ec442f0560e01b81525f6004820152602490fd5b015190505f80610b14565b92505f8051602061420c8339815191528b525f8051602061428c833981519152908b935b601f1984168510610d56576001945083601f19811610610d3e575b505050811b015f8051602061420c83398151915255610b35565b01515f1960f88460031b161c191690555f8080610d24565b81810151835560209485019460019093019290910190610d09565b9091505f8051602061420c8339815191528b52601f830160051c5f8051602061428c8339815191520160208410610dd8575b908392915b601f820160051c5f8051602061428c833981519152018110610dca5750610afe565b5f8155849350600101610da8565b505f8051602061428c833981519152610da3565b634e487b7160e01b8a52604160045260248afd5b015190505f80610aaa565b92505f805160206141cc8339815191528c525f805160206141ac833981519152908c935b601f1984168510610e7c576001945083601f19811610610e64575b505050811b015f805160206141cc83398151915255610acb565b01515f1960f88460031b161c191690555f8080610e4a565b81810151835560209485019460019093019290910190610e2f565b9091505f805160206141cc8339815191528c52601f830160051c5f805160206141ac8339815191520160208410610efe575b908392915b601f820160051c5f805160206141ac833981519152018110610ef05750610a94565b5f8155849350600101610ece565b505f805160206141ac833981519152610ec9565b634e487b7160e01b8b52604160045260248bfd5b68ffffffffffffffffff19861668010000000000000001175f805160206142cc83398151915255610a12565b60405163f92ee8a960e01b8152600490fd5b9050155f6109e3565b303b1591506109db565b604088901c60ff161591506109d1565b50346102685780600319360112610268576020600354604051908152f35b50346102685780600319360112610268576008546040516001600160a01b039091168152602090f35b503461026857602036600319011261026857610fe8612ac7565b610ff0613775565b60018060a01b03166001600160601b0360a01b600c541617600c5580f35b50346102685760e036600319011261026857611028612ac7565b611030612add565b611038612b09565b611040612af3565b90611049612b35565b611051612b1f565b9260c435936001600160401b03968786168096036108b1575f805160206142cc833981519152948554988760ff8b60401c16918215611165575b5050610f52578960209861113b93600160401b8a7fc7f505b2f371ae2175ee4913f4499e1f2633a7b5936321eed1cdaeb6115181d29d68ffffffffffffffffff1916171789556101f4600255601e60035561271060045560018060a01b0397888098818094169a8b9781600754976001600160601b0360a01b9e8f8a1617600755168d6008541617600855168b60095416176009551689600d541617600d551687600e541617600e5516176140e7565b501681600b541617600b553390600c541617600c5560ff60401b198154169055604051908152a180f35b8b1610159050875f61108b565b50346102685780600319360112610268576111b860405161119281612b72565b60058152640352e302e360dc1b6020820152604051918291602083526020830190612aa3565b0390f35b503461026857602036600319011261026857602064e8d4a510006111fc6111e16137e9565b6103d55f8051602061424c8339815191525491600435612cca565b04604051908152f35b5034610268578060031936011261026857604051600580548083529083526020808301937f036b6384b5eca791c62761152d0c79bb0604c104a5fb6f4eb0703f3154bb3db092915b828210611278576111b88561126481890382612b8d565b604051918291602083526020830190612c3f565b83548652948501946001938401939091019061124d565b5034610268576040366003190112610268576112b66112ac612ac7565b6024359033613a64565b602060405160018152f35b50346102685780600319360112610268576040519080825f8051602061420c8339815191529283546112f281612c92565b93848452602095600192876001821691825f1461137c575050600114611336575b50505061132292500383612b8d565b6111b8604051928284938452830190612aa3565b8152859250905f8051602061428c8339815191525b85831061136457505061132293508201015f8080611313565b8054838901850152879450869390920191810161134b565b93509450505061132294915060ff191682840152151560051b8201015f8080611313565b50346102685780600319360112610268575f8051602061422c833981519152546040516001600160a01b039091168152602090f35b50346102685780600319360112610268576007546040516001600160a01b039091168152602090f35b50346102685780600319360112610268576020600454604051908152f35b5034610268578060031936011261026857600a546040516001600160a01b039091168152602090f35b50346102685780600319360112610268576009546040516001600160a01b039091168152602090f35b50346102685760203660031901126102685760206102605f8051602061424c8339815191525461149f81151561389f565b6103d56114aa6137e9565b600435612cca565b50346102685780600319360112610268576114cb613775565b5f8051602061422c83398151915280546001600160a01b031981169091555f906001600160a01b03167f8be0079c531659141344cd1fd0a4f28419497f9722a3daafe3b4186f6b6457e08280a380f35b5034610268576020366003190112610268576020906040906001600160a01b03611543612ac7565b1681525f805160206141ec83398151915283522054604051908152f35b5034610268578060031936011261026857600c546040516001600160a01b039091168152602090f35b50346102685760a0366003190112610268576115a3612ac7565b6115ab612add565b6115b3612b09565b606435906115bf612b35565b926115cc30331415612d97565b6115d7831515612dd2565b6040516370a0823160e01b8152336004820152602095906001600160a01b0390828216908881602481855afa801561063d5787908b9061168e575b61161e92501015612e0c565b6040516323b872dd60e01b815233600482015230602482015260448101879052908890829060649082908d905af180156104d957916102609899879261166c94611671575b50541683613d08565b613f60565b611687908c8d3d106104aa5761049b8183612b8d565b505f611663565b50508881813d83116116b8575b6116a58183612b8d565b8101031261067c578661161e9151611612565b503d61169b565b503461067c5760031960c03682011261067c576001600160401b0360043581811161067c576116f2903690600401612c0f565b60243583811161067c5761170a903690600401612c0f565b611715949194612b09565b61171d612af3565b91611726612b1f565b5060405197602089019485118986101761186c5760408590525f8952600b546007546001600160a01b0391821697911695873b1561067c57604051633c2fddc560e21b815260e060048201529a5160e48c018190526101048c01905f5b81811061185657505060209150838c82030160248d01528281520197905f5b81811061182a575050508887030160448901528086526001600160fb1b03811161067c575f96889687958995602095889560051b8095888601376084803560648801526001600160a01b03918216908701521660a485015260c4840152010301925af1801561181f57611813575080f35b61181d9150612b5f565b005b6040513d5f823e3d90fd5b919890919060019060209081906001600160a01b036118488e612b4b565b168152019a019291016117a2565b8351835260209384019390920191600101611783565b634e487b7160e01b5f52604160045260245ffd5b3461067c575f36600319011261067c577f00000000000000000000000000000000000000000000000000000000000000006001600160a01b031630036118ea5760206040517f360894a13ba1a3210667c828492db98dca3e2076cc3735a920a3ca505d382bbc8152f35b60405163703e46dd60e11b8152600490fd5b604036600319011261067c57611910612ac7565b6024356001600160401b03811161067c5761192f903690600401612bc9565b906001600160a01b037f00000000000000000000000000000000000000000000000000000000000000008116308114908115611ae7575b506118ea57611973613775565b6040516352d1902d60e01b8152908216916020918281600481875afa5f9181611ab8575b506119b557604051634c9c8ce360e01b815260048101859052602490fd5b9284937f360894a13ba1a3210667c828492db98dca3e2076cc3735a920a3ca505d382bbc90818103611aa05750823b15611a875780546001600160a01b03191682179055604051907fbc7cd75a20ee27fd9adebab32041f755214dbc6bffa90cc0225b39da2e5c2d3b5f80a2835115611a6d57505f80848461181d96519101845af4903d15611a64573d611a4881612bae565b90611a566040519283612b8d565b81525f81943d92013e614148565b60609250614148565b9250505034611a7857005b63b398979f60e01b8152600490fd5b604051634c9c8ce360e01b815260048101839052602490fd5b60249060405190632a87526960e21b82526004820152fd5b9091508381813d8311611ae0575b611ad08183612b8d565b8101031261067c57519086611997565b503d611ac6565b9050817f360894a13ba1a3210667c828492db98dca3e2076cc3735a920a3ca505d382bbc5416141584611966565b3461067c57604036600319011261067c576001600160401b0360043581811161067c57611b46903690600401612bc9565b60243582811161067c57611b5e903690600401612bc9565b905f805160206142cc8339815191529182549360ff8560401c16159281861695861580611e86575b60018098149081611e7c575b159081611e73575b50610f525767ffffffffffffffff1981168717865584611e54575b50611bbe6140b9565b611bc66140b9565b805182811161186c575f805160206141cc8339815191529080611be98354612c92565b93601f94858111611dfa575b50602090858311600114611d90575f92611d85575b50505f19600383901b1c191690881b1790555b825191821161186c5781905f8051602061420c83398151915293611c418554612c92565b828111611d29575b506020918311600114611cbf575f92611cb4575b50505f19600383901b1c191690851b1790555b611c7657005b805468ff0000000000000000191690556040519081527fc7f505b2f371ae2175ee4913f4499e1f2633a7b5936321eed1cdaeb6115181d290602090a1005b015190508680611c5d565b90879350601f19831691855f525f8051602061428c833981519152925f5b818110611d1157508411611cf9575b505050811b019055611c70565b01515f1960f88460031b161c19169055868080611cec565b8284015185558a969094019360209384019301611cdd565b90919250845f525f8051602061428c8339815191528380860160051c82019260208710611d7c575b9186958b929594930160051c01915b828110611d6e575050611c49565b5f81558695508a9101611d60565b92508192611d51565b015190508980611c0a565b908a9350601f19831691855f525f805160206141ac833981519152925f5b818110611de257508411611dca575b505050811b019055611c1d565b01515f1960f88460031b161c19169055898080611dbd565b8284015185558d969094019360209384019301611dae565b909150835f525f805160206141ac8339815191528580850160051c82019260208610611e4b575b918c91869594930160051c01915b828110611e3d575050611bf5565b5f81558594508c9101611e2f565b92508192611e21565b68ffffffffffffffffff19166801000000000000000117855586611bb5565b90501588611b9a565b303b159150611b92565b5084611b86565b3461067c575f36600319011261067c57611ea56137ad565b6005545f5b818110611ec45760015f805160206142ac83398151915255005b80611ee6611ed3600193614084565b848060a01b0391549060031b1c16612e9b565b01611eaa565b3461067c575f36600319011261067c576020600254604051908152f35b3461067c575f36600319011261067c57602060405160128152f35b3461067c57602036600319011261067c5761181d611f40612ac7565b612e9b565b3461067c57608036600319011261067c57611f5e612ac7565b611f66612add565b604435611f71612af3565b90611f7e30331415612d97565b611f89811515612dd2565b6040516370a0823160e01b81523360048201526020946001600160a01b039491818616908781602481855afa801561181f5785905f9061203f575b611fd092501015612e0c565b6040516323b872dd60e01b815233600482015230602482015260448101859052908790829060649082905f905af1801561181f576102609661201d928692612022575b505f541683613d08565b613e56565b612038908a3d8c116104aa5761049b8183612b8d565b5089612013565b50508781813d8311612069575b6120568183612b8d565b8101031261067c5784611fd09151611fc4565b503d61204c565b3461067c57604036600319011261067c57602061026061208e612add565b600435613b0a565b3461067c575f36600319011261067c5760206102606137e9565b3461067c57602036600319011261067c576120c9612ac7565b600a546040516313eaa54960e11b81526001600160a01b03928316600482015291906020908390602490829085165afa90811561181f576020925f92612114575b5060405191168152f35b61212c919250833d851161059d5761058f8183612b8d565b908361210a565b3461067c57606036600319011261067c5761214c612ac7565b612154612add565b6044359061216183612fe2565b335f5260205260405f2054925f198403612180575b6112b69350613a64565b8284106121eb576001600160a01b038116156121d35733156121bb57826112b6946121aa83612fe2565b335f526020520360405f2055612176565b604051634a1406b160e11b81525f6004820152602490fd5b60405163e602df0560e01b81525f6004820152602490fd5b604051637dc7a0d960e11b81523360048201526024810185905260448101849052606490fd5b3461067c5760208060031936011261067c576004359061222f6137ad565b335f525f805160206141ec83398151915281526122528260405f20541015612d13565b5f5b60055481101561243f5761226781614084565b919060018060a01b03809154600394851b1c16925f8051602061424c83398151915254604051906370a0823160e01b82523060048301528682602481895afa91821561181f575f92612410575b5081158015612407575b6123fa5760405163313ce56760e01b81529087826004818a5afa801561181f576123109360ff8b926122f8955f916123dd575016926138f9565b916103d561230a600454925483612d6b565b84612cca565b60405163a9059cbb60e01b80825233600483015260248201839052919591929087816044815f875af1801561181f576123889789965f9361235b936123c0575b50600c541693612d6b565b6040519485526001600160a01b039092166004850152602484019190915291948592839182906044820190565b03925af191821561181f576001926123a3575b505b01612254565b6123b990843d86116104aa5761049b8183612b8d565b508461239b565b6123d690893d8b116104aa5761049b8183612b8d565b508c612350565b6123f491508c8d3d10610636576106288183612b8d565b8d610335565b505050506001915061239d565b503086146122be565b9091508681813d8311612438575b6124288183612b8d565b8101031261067c575190886122b4565b503d61241e565b7fcc16f5dbb4873280815c1ee09dbd06736cffcc184412cf7a71a0fdb75d397ca561246e846106b781336139a7565b0390a160015f805160206142ac83398151915255005b3461067c575f36600319011261067c5760205f8051602061424c83398151915254604051908152f35b3461067c575f36600319011261067c5760206001600160401b035f805160206142cc8339815191525416604051908152f35b3461067c5760208060031936011261067c576004356124fc6137ad565b6125046137e9565b906103d56125255f8051602061424c83398151915293845492839185612cca565b6007546040516323b872dd60e01b815233600482015230602482015264e8d4a5100090920460448301819052936001600160a01b0393909290918790829060649082905f9089165af1801561181f5761284c575b506007546040516370a0823160e01b8152336004820152908416918782602481865afa91821561181f575f9261281d575b50604051636eb1769f60e11b8152336004820152306024820152928890849060449082905afa92831561181f575f936127ee575b501561279e578411612759578311612714573315610cc25761268e85937f0f6798a560793a54c3bcfe86a93cde1e73087d944c0ea20544137d41213968856126828488612632612697976126d49b546137dc565b9055335f525f805160206141ec833981519152885260405f208181540190556040518181525f5f8051602061426c8339815191528a3393a360408051338152602081019290925290918291820190565b0390a160035490612cca565b60045490612cdd565b90806007541690600c54165f60405180968195829463a9059cbb60e01b84526004840160209093929193604081019460018060a01b031681520152565b03925af1801561181f576126f6575b60015f805160206142ac83398151915255005b8161270c92903d106104aa5761049b8183612b8d565b5080806126e3565b60405162461bcd60e51b815260048101869052601960248201527f436865636b2074686520746f6b656e20616c6c6f77616e6365000000000000006044820152606490fd5b60405162461bcd60e51b815260048101879052601c60248201527f555344432062616c616e636520697320696e73756666696369656e74000000006044820152606490fd5b60405162461bcd60e51b815260048101889052602260248201527f546f74616c2042414c554e4920737570706c792063616e6e6f74206265207a65604482015261726f60f01b6064820152608490fd5b9092508781813d8311612816575b6128068183612b8d565b8101031261067c575191886125de565b503d6127fc565b9091508781813d8311612845575b6128358183612b8d565b8101031261067c575190886125aa565b503d61282b565b61286290873d89116104aa5761049b8183612b8d565b5086612579565b3461067c57602036600319011261067c57612882612ac7565b61288a613775565b600a80546001600160a01b0319166001600160a01b0392909216919091179055005b3461067c57604036600319011261067c576128c5612ac7565b6024359033156121d3576001600160a01b03169081156121bb576128e833612fe2565b825f526020528060405f20556040519081527f8c5be1e5ebec7d5bd14f71427d1e84f3dd0314c0f7b2291e5b200ac8c7c3b92560203392a3602060405160018152f35b3461067c57602036600319011261067c57612944612ac7565b61294c613775565b600b80546001600160a01b0319166001600160a01b0392909216919091179055005b3461067c575f36600319011261067c576040515f805160206141cc8339815191528054825f61299c83612c92565b92838352602094600191866001821691825f14612a125750506001146129cb575b505061132292500383612b8d565b8592505f525f805160206141ac833981519152905f915b8583106129fa575050611322935082010185806129bd565b805483890185015287945086939092019181016129e2565b925093505061132294915060ff191682840152151560051b82010185806129bd565b3461067c57602036600319011261067c577fbea1b31142ae4b1f4efad240349036d718b7950d246c127768097ccf602fc7e06020600435612a73613775565b80600355604051908152a1005b3461067c575f36600319011261067c57600b546001600160a01b03168152602090f35b805180835260209291819084018484015e5f828201840152601f01601f1916010190565b600435906001600160a01b038216820361067c57565b602435906001600160a01b038216820361067c57565b606435906001600160a01b038216820361067c57565b604435906001600160a01b038216820361067c57565b60a435906001600160a01b038216820361067c57565b608435906001600160a01b038216820361067c57565b35906001600160a01b038216820361067c57565b6001600160401b03811161186c57604052565b604081019081106001600160401b0382111761186c57604052565b90601f801991011681019081106001600160401b0382111761186c57604052565b6001600160401b03811161186c57601f01601f191660200190565b81601f8201121561067c57803590612be082612bae565b92612bee6040519485612b8d565b8284526020838301011161067c57815f926020809301838601378301015290565b9181601f8401121561067c578235916001600160401b03831161067c576020808501948460051b01011161067c57565b9081518082526020808093019301915f5b828110612c5e575050505090565b83516001600160a01b031685529381019392810192600101612c50565b6001600160401b03811161186c5760051b60200190565b90600182811c92168015612cc0575b6020831014612cac57565b634e487b7160e01b5f52602260045260245ffd5b91607f1691612ca1565b8181029291811591840414171561090d57565b8115612ce7570490565b634e487b7160e01b5f52601260045260245ffd5b9081602091031261067c5751801515810361067c5790565b15612d1a57565b60405162461bcd60e51b815260206004820152601060248201526f125b9cdd59999a58da595b9d0810905360821b6044820152606490fd5b9081602091031261067c575160ff8116810361067c5790565b9190820391821161090d57565b9081602091031261067c57516001600160a01b038116810361067c5790565b15612d9e57565b60405162461bcd60e51b815260206004820152600c60248201526b2bb937b7339039b2b73232b960a11b6044820152606490fd5b15612dd957565b60405162461bcd60e51b815260206004820152600b60248201526a0416d6f756e7420697320360ac1b6044820152606490fd5b15612e1357565b60405162461bcd60e51b8152602060048201526014602482015273496e73756666696369656e742042616c616e636560601b6044820152606490fd5b15612e5657565b60405162461bcd60e51b815260206004820152601760248201527f53776170204661696c65642c20547279204275726e28290000000000000000006044820152606490fd5b6040516370a0823160e01b8152306004820152906001600160a01b039060208183168185602481845afa94851561181f575f95612fb3575b508184600e54169160648660075416916040519485938492630b4c774160e11b845260048401526024830152610bb860448301525afa91821561181f575f92612f96575b5050612f288484600d541684613d08565b821615831515811580612f8f575b15612f5b57505090612f5992612f529230926007541690613e56565b1515612e4f565b565b91929181612f87575b50612f6e57505050565b612f5992612f5292826008541630936007541691613f60565b90505f612f64565b5080612f36565b612fac9250803d1061059d5761058f8183612b8d565b5f80612f17565b9094508181813d8311612fdb575b612fcb8183612b8d565b8101031261067c5751935f612ed3565b503d612fc1565b6001600160a01b03165f9081527f52c63247e1f47db19d5ce0460030c497f067ca4cebf71ba98eeadabe20bace016020526040902090565b805182101561302e5760209160051b010190565b634e487b7160e01b5f52603260045260245ffd5b600a546001600160a01b0316929091905f84156136c75760205f95602460405180988193639b76a5cd60e01b83523360048401525af194851561181f575f956136a6575b508251916130ac61309684612c7b565b936130a46040519586612b8d565b808552612c7b565b601f19959086013660208601378451956130de6130c888612c7b565b976130d6604051998a612b8d565b808952612c7b565b013660208801375f5b85518110156131a3576024906001600160a01b03613105828961301a565b51165f52600660205260405f20541561311e828861301a565b5260206001600160a01b03613133838a61301a565b5116604051938480926370a0823160e01b82523060048301525afa801561181f575f90613170575b60019250613169828a61301a565b52016130e7565b506020823d60201161319b575b8161318a60209383612b8d565b8101031261067c576001915161315b565b3d915061317d565b5091959091906001600160a01b0381163b1561067c576040518092630eedc3c560e41b8252604482016040600484015281518091526064830190602060648260051b8601019301915f905b828210613654575050505091815f8161321482966003198382030160248401528b612c3f565b03926001600160a01b03165af1801561181f57613641575b50845b8351811015613639576001600160a01b0361324a828661301a565b5116906040516370a0823160e01b8152306004820152602081602481865afa90811561362e5788916135fc575b50600e54600854604051630b4c774160e11b8152600481018690526001600160a01b0391821660248201819052610bb860448301529592909116602082606481845afa9182156135d0578b926135db575b5060405195630b4c774160e11b875283600488015260248701526101f46044870152602086606481845afa9586156135d0578b966135af575b5060018060a01b03600754169160405192630b4c774160e11b84528460048501528060248501526101f46044850152602084606481865afa9384156135a4578d94613582575b50602090606460405180958193630b4c774160e11b83528960048401526024830152610bb860448301525afa918215613577578c92613556575b506001600160a01b03161580159690613543575b508515613530575b50841561351d575b506133b0838761301a565b51151580613516575b613507575b6133d26133cb848a61301a565b5183612d6b565b931561349d57506133e3828861301a565b51106133f4575b600191500161322f565b602061340961268e61345a9460035490612cca565b6001600160a01b0361341b848961301a565b51600c5460405163a9059cbb60e01b81526001600160a01b039091166004820152602481019390935291948592919091169082908b9082906044820190565b03925af191821561349257600192613473575b506133ea565b61348b9060203d6020116104aa5761049b8183612b8d565b505f61346d565b6040513d89823e3d90fd5b60405163a9059cbb60e01b8152336004820152602481019490945293979296509194506020935085926044925083915085905af19081156134fb57506134e05750565b6134f89060203d6020116104aa5761049b8183612b8d565b50565b604051903d90823e3d90fd5b613510816140e7565b506133be565b50836133b9565b6001600160a01b0316151593505f6133a5565b6001600160a01b0316151594505f61339d565b6001600160a01b0316151595505f613395565b61357091925060203d60201161059d5761058f8183612b8d565b905f613381565b6040513d8e823e3d90fd5b602091945061359d90823d841161059d5761058f8183612b8d565b9390613347565b6040513d8f823e3d90fd5b6135c991965060203d60201161059d5761058f8183612b8d565b945f613301565b6040513d8d823e3d90fd5b6135f591925060203d60201161059d5761058f8183612b8d565b905f6132c8565b90506020813d602011613626575b8161361760209383612b8d565b8101031261067c57515f613277565b3d915061360a565b6040513d8a823e3d90fd5b509350505050565b61364c919550612b5f565b5f935f61322c565b9193600191939550602061369681926063198b820301865288516040606091878060a01b03815116845285810151868501520151918160408201520190612aa3565b96019201920186949391926131ee565b6136c091955060203d60201161059d5761058f8183612b8d565b935f613086565b60405162461bcd60e51b81526020600482015260156024820152741059d95b9d08199858dd1bdc9e481b9bdd081cd95d605a1b6044820152606490fd5b6001600160a01b0390811690811561375d575f8051602061422c83398151915280546001600160a01b031981168417909155167f8be0079c531659141344cd1fd0a4f28419497f9722a3daafe3b4186f6b6457e05f80a3565b604051631e4fbdf760e01b81525f6004820152602490fd5b5f8051602061422c833981519152546001600160a01b0316330361379557565b60405163118cdaa760e01b8152336004820152602490fd5b5f805160206142ac83398151915260028154146137ca5760029055565b604051633ee5aeb560e01b8152600490fd5b9190820180921161090d57565b5f806005545b8082106137fb57505090565b909161380683614084565b60018060a01b0391549060031b1c16604080516370a0823160e01b815230600482015260208082602481875afa92831561389657505f92613862575b50509161385461385a92600194613b0a565b906137dc565b9201906137ef565b9080949250813d831161388f575b61387a8183612b8d565b8101031261067c57915161385461385a613842565b503d613870565b513d5f823e3d90fd5b156138a657565b60405162461bcd60e51b815260206004820152601b60248201527f546f74616c20737570706c792063616e6e6f74206265207a65726f00000000006044820152606490fd5b604d811161090d57600a0a90565b9291909161390884151561389f565b6012811161396257601281101561395357601203916012831161090d5761394b6103d59261393f6139456139509761393f886138eb565b90612cdd565b956138eb565b612cca565b90565b5061395092916103d591612cca565b60405162461bcd60e51b815260206004820152601e60248201527f546f6b656e20646563696d616c732073686f756c64206265203c3d20313800006044820152606490fd5b91906001600160a01b038316908115613a4c57815f525f805160206141ec8339815191528060205260405f205494828610613a1b5750815f8051602061426c833981519152925f959660209386885284520360408620555f8051602061424c833981519152818154039055604051908152a3565b60405163391434e360e21b81526001600160a01b039190911660048201526024810186905260448101839052606490fd5b604051634b637e8f60e11b81525f6004820152602490fd5b916001600160a01b03808416928315613a4c5716928315610cc257825f525f805160206141ec8339815191528060205260405f205491838310613ad7575091806020925f8051602061426c83398151915294865f5284520360405f2055845f5260405f20818154019055604051908152a3565b60405163391434e360e21b81526001600160a01b0391909116600482015260248101929092525060448101829052606490fd5b60405163313ce56760e01b808252600494939192916001600160a01b039081169060209081868981865afa95861561181f575f96613ce9575b5080600754169060405194855282858a81855afa94851561181f575f95613cca575b50818414613ca65790606483926009541694604051958693849263802431fb60e01b84528d84015260248301525f60448301525afa9182915f93613c76575b5050613bb357505f9450505050565b60ff80919216931692808414613c4557830360ff8111613c325760ff1694604d8611613c1f57506012670de0b6b3a76400009495600a0a9310613c0757613c0392613bfd91612cca565b90612cca565b0490565b9082613c19613c0394613bfd93612cca565b92612cca565b601190634e487b7160e01b5f525260245ffd5b601186634e487b7160e01b5f525260245ffd5b50929390915064e8d4a5100091828102928184041490151715613c1f5750670de0b6b3a764000091613c0391612cca565b9080929350813d8311613c9f575b613c8e8183612b8d565b8101031261067c5751905f80613ba4565b503d613c84565b50505050509192905064e8d4a5100091828102928184041490151715613c1f575090565b613ce2919550833d8511610636576106288183612b8d565b935f613b65565b613d01919650823d8411610636576106288183612b8d565b945f613b43565b60408051636eb1769f60e11b81523060048201526001600160a01b03848116602483015260209592949293811692918681604481875afa908115613e1b579085915f91613e25575b5010613d5f575b505050505050565b845163095ea7b360e01b91828252831660048201525f602482015286816044815f885af18015613e1b57879492613dc6979694925f92613dfe575b5086519081526001600160a01b0390921660048301526024820193909352948592839182906044820190565b03925af19081156138965750613de0575b80808080613d57565b81613df692903d106104aa5761049b8183612b8d565b505f80613dd7565b613e1490873d89116104aa5761049b8183612b8d565b505f613d9a565b86513d5f823e3d90fd5b809250888092503d8311613e4f575b613e3e8183612b8d565b8101031261067c578490515f613d50565b503d613e34565b9092916040519161010083018381106001600160401b0382111761186c57604052600160a01b60019003938480921684528160208501961686526040840192610bb88452826060860192168252608085019042825260a0860190815260c08601915f83528460e08801945f8652815f541697826040519c8d9c8d9c8d63414bf38960e01b9052511660048d0152511660248b01525162ffffff1660448a0152511660648801525160848701525160a48601525160c4850152511660e48301525a925f61010492602095f190811561181f575f91613f31575090565b90506020813d602011613f58575b81613f4c60209383612b8d565b8101031261067c575190565b3d9150613f3f565b939093929192604051936020956001600160601b0319809360601b16878701528261017760eb1b9182603489015260601b166037870152604b86015260601b16604e8401526042835260808301916001600160401b03928481108482111761186c5761012085019384118185101761186c575f61403691879560405286815260a0870160018060a01b03809616815261010060c0890198428a5260e08101968752018381528684541695604051998a988997889663c04b8d5960e01b88528c60048901525160a0602489015260c4880190612aa3565b94511660448601525160648501525160848401525160a483015203925af191821561181f575f9261406657505090565b90809250813d831161407d575b613f4c8183612b8d565b503d614073565b60055481101561302e5760055f527f036b6384b5eca791c62761152d0c79bb0604c104a5fb6f4eb0703f3154bb3db001905f90565b60ff5f805160206142cc8339815191525460401c16156140d557565b604051631afcd79f60e31b8152600490fd5b805f52600660205260405f2054155f1461414357600554600160401b81101561186c5780600161411a9201600555614084565b81549060031b9083821b915f19901b1916179055600554905f52600660205260405f2055600190565b505f90565b9061416f575080511561415d57805190602001fd5b604051630a12f52160e11b8152600490fd5b815115806141a2575b614180575090565b604051639996b31560e01b81526001600160a01b039091166004820152602490fd5b50803b1561417856fe2ae08a8e29253f69ac5d979a101956ab8f8d9d7ded63fa7a83b16fc47648eab052c63247e1f47db19d5ce0460030c497f067ca4cebf71ba98eeadabe20bace0352c63247e1f47db19d5ce0460030c497f067ca4cebf71ba98eeadabe20bace0052c63247e1f47db19d5ce0460030c497f067ca4cebf71ba98eeadabe20bace049016d09d72d40fdae2fd8ceac6b6234c7706214fd39c1cd1e609a0528c19930052c63247e1f47db19d5ce0460030c497f067ca4cebf71ba98eeadabe20bace02ddf252ad1be2c89b69c2b068fc378daa952ba7f163c4a11628f55a4df523b3ef46a2803e59a4de4e7a4c574b1243f25977ac4c77d5a1a4a609b5394cebb4a2aa9b779b17422d0df92223018b32b4d1fa46e071723d6817e2486d003becc55f00f0c57e16840df040f15088dc2f81fe391c3923bec73e23a9662efc9c229c6a00a26469706673582212207a973e3bb346141fa2fede090efb2c19095355804a414f483da69677fd987b8964736f6c63430008190033",
  "linkReferences": {},
  "deployedLinkReferences": {}
}