{
    "contractName": "BaluniRouter",
    "abi": [
        {
            "inputs": [],
            "stateMutability": "nonpayable",
            "type": "constructor"
        },
        {
            "inputs": [
                {
                    "internalType": "address",
                    "name": "target",
                    "type": "address"
                }
            ],
            "name": "AddressEmptyCode",
            "type": "error"
        },
        {
            "inputs": [
                {
                    "internalType": "address",
                    "name": "account",
                    "type": "address"
                }
            ],
            "name": "AddressInsufficientBalance",
            "type": "error"
        },
        {
            "inputs": [
                {
                    "internalType": "address",
                    "name": "spender",
                    "type": "address"
                },
                {
                    "internalType": "uint256",
                    "name": "allowance",
                    "type": "uint256"
                },
                {
                    "internalType": "uint256",
                    "name": "needed",
                    "type": "uint256"
                }
            ],
            "name": "ERC20InsufficientAllowance",
            "type": "error"
        },
        {
            "inputs": [
                {
                    "internalType": "address",
                    "name": "sender",
                    "type": "address"
                },
                {
                    "internalType": "uint256",
                    "name": "balance",
                    "type": "uint256"
                },
                {
                    "internalType": "uint256",
                    "name": "needed",
                    "type": "uint256"
                }
            ],
            "name": "ERC20InsufficientBalance",
            "type": "error"
        },
        {
            "inputs": [
                {
                    "internalType": "address",
                    "name": "approver",
                    "type": "address"
                }
            ],
            "name": "ERC20InvalidApprover",
            "type": "error"
        },
        {
            "inputs": [
                {
                    "internalType": "address",
                    "name": "receiver",
                    "type": "address"
                }
            ],
            "name": "ERC20InvalidReceiver",
            "type": "error"
        },
        {
            "inputs": [
                {
                    "internalType": "address",
                    "name": "sender",
                    "type": "address"
                }
            ],
            "name": "ERC20InvalidSender",
            "type": "error"
        },
        {
            "inputs": [
                {
                    "internalType": "address",
                    "name": "spender",
                    "type": "address"
                }
            ],
            "name": "ERC20InvalidSpender",
            "type": "error"
        },
        {
            "inputs": [
                {
                    "internalType": "address",
                    "name": "receiver",
                    "type": "address"
                },
                {
                    "internalType": "uint256",
                    "name": "assets",
                    "type": "uint256"
                },
                {
                    "internalType": "uint256",
                    "name": "max",
                    "type": "uint256"
                }
            ],
            "name": "ERC4626ExceededMaxDeposit",
            "type": "error"
        },
        {
            "inputs": [
                {
                    "internalType": "address",
                    "name": "receiver",
                    "type": "address"
                },
                {
                    "internalType": "uint256",
                    "name": "shares",
                    "type": "uint256"
                },
                {
                    "internalType": "uint256",
                    "name": "max",
                    "type": "uint256"
                }
            ],
            "name": "ERC4626ExceededMaxMint",
            "type": "error"
        },
        {
            "inputs": [
                {
                    "internalType": "address",
                    "name": "owner",
                    "type": "address"
                },
                {
                    "internalType": "uint256",
                    "name": "shares",
                    "type": "uint256"
                },
                {
                    "internalType": "uint256",
                    "name": "max",
                    "type": "uint256"
                }
            ],
            "name": "ERC4626ExceededMaxRedeem",
            "type": "error"
        },
        {
            "inputs": [
                {
                    "internalType": "address",
                    "name": "owner",
                    "type": "address"
                },
                {
                    "internalType": "uint256",
                    "name": "assets",
                    "type": "uint256"
                },
                {
                    "internalType": "uint256",
                    "name": "max",
                    "type": "uint256"
                }
            ],
            "name": "ERC4626ExceededMaxWithdraw",
            "type": "error"
        },
        {
            "inputs": [],
            "name": "FailedInnerCall",
            "type": "error"
        },
        {
            "inputs": [],
            "name": "MathOverflowedMulDiv",
            "type": "error"
        },
        {
            "inputs": [
                {
                    "internalType": "address",
                    "name": "owner",
                    "type": "address"
                }
            ],
            "name": "OwnableInvalidOwner",
            "type": "error"
        },
        {
            "inputs": [
                {
                    "internalType": "address",
                    "name": "account",
                    "type": "address"
                }
            ],
            "name": "OwnableUnauthorizedAccount",
            "type": "error"
        },
        {
            "inputs": [],
            "name": "ReentrancyGuardReentrantCall",
            "type": "error"
        },
        {
            "inputs": [
                {
                    "internalType": "address",
                    "name": "token",
                    "type": "address"
                }
            ],
            "name": "SafeERC20FailedOperation",
            "type": "error"
        },
        {
            "anonymous": false,
            "inputs": [
                {
                    "indexed": false,
                    "internalType": "address",
                    "name": "user",
                    "type": "address"
                },
                {
                    "indexed": false,
                    "internalType": "address",
                    "name": "agent",
                    "type": "address"
                }
            ],
            "name": "AgentCreated",
            "type": "event"
        },
        {
            "anonymous": false,
            "inputs": [
                {
                    "indexed": true,
                    "internalType": "address",
                    "name": "owner",
                    "type": "address"
                },
                {
                    "indexed": true,
                    "internalType": "address",
                    "name": "spender",
                    "type": "address"
                },
                {
                    "indexed": false,
                    "internalType": "uint256",
                    "name": "value",
                    "type": "uint256"
                }
            ],
            "name": "Approval",
            "type": "event"
        },
        {
            "anonymous": false,
            "inputs": [
                {
                    "indexed": false,
                    "internalType": "address",
                    "name": "user",
                    "type": "address"
                },
                {
                    "indexed": false,
                    "internalType": "uint256",
                    "name": "value",
                    "type": "uint256"
                }
            ],
            "name": "Burn",
            "type": "event"
        },
        {
            "anonymous": false,
            "inputs": [
                {
                    "indexed": false,
                    "internalType": "uint256",
                    "name": "newFee",
                    "type": "uint256"
                }
            ],
            "name": "ChangeBpsFee",
            "type": "event"
        },
        {
            "anonymous": false,
            "inputs": [
                {
                    "indexed": false,
                    "internalType": "uint256",
                    "name": "newFee",
                    "type": "uint256"
                }
            ],
            "name": "ChangeLiquidateFee",
            "type": "event"
        },
        {
            "anonymous": false,
            "inputs": [
                {
                    "indexed": true,
                    "internalType": "address",
                    "name": "sender",
                    "type": "address"
                },
                {
                    "indexed": true,
                    "internalType": "address",
                    "name": "owner",
                    "type": "address"
                },
                {
                    "indexed": false,
                    "internalType": "uint256",
                    "name": "assets",
                    "type": "uint256"
                },
                {
                    "indexed": false,
                    "internalType": "uint256",
                    "name": "shares",
                    "type": "uint256"
                }
            ],
            "name": "Deposit",
            "type": "event"
        },
        {
            "anonymous": false,
            "inputs": [
                {
                    "indexed": false,
                    "internalType": "address",
                    "name": "user",
                    "type": "address"
                },
                {
                    "components": [
                        {
                            "internalType": "address",
                            "name": "to",
                            "type": "address"
                        },
                        {
                            "internalType": "uint256",
                            "name": "value",
                            "type": "uint256"
                        },
                        {
                            "internalType": "bytes",
                            "name": "data",
                            "type": "bytes"
                        }
                    ],
                    "indexed": false,
                    "internalType": "struct BaluniAgent.Call[]",
                    "name": "calls",
                    "type": "tuple[]"
                },
                {
                    "indexed": false,
                    "internalType": "address[]",
                    "name": "tokensReturn",
                    "type": "address[]"
                }
            ],
            "name": "Execute",
            "type": "event"
        },
        {
            "anonymous": false,
            "inputs": [
                {
                    "indexed": false,
                    "internalType": "address",
                    "name": "user",
                    "type": "address"
                },
                {
                    "indexed": false,
                    "internalType": "uint256",
                    "name": "value",
                    "type": "uint256"
                }
            ],
            "name": "Mint",
            "type": "event"
        },
        {
            "anonymous": false,
            "inputs": [
                {
                    "indexed": true,
                    "internalType": "address",
                    "name": "previousOwner",
                    "type": "address"
                },
                {
                    "indexed": true,
                    "internalType": "address",
                    "name": "newOwner",
                    "type": "address"
                }
            ],
            "name": "OwnershipTransferred",
            "type": "event"
        },
        {
            "anonymous": false,
            "inputs": [
                {
                    "indexed": true,
                    "internalType": "address",
                    "name": "user",
                    "type": "address"
                },
                {
                    "indexed": false,
                    "internalType": "uint256",
                    "name": "amount",
                    "type": "uint256"
                }
            ],
            "name": "RewardClaimed",
            "type": "event"
        },
        {
            "anonymous": false,
            "inputs": [
                {
                    "indexed": true,
                    "internalType": "address",
                    "name": "from",
                    "type": "address"
                },
                {
                    "indexed": true,
                    "internalType": "address",
                    "name": "to",
                    "type": "address"
                },
                {
                    "indexed": false,
                    "internalType": "uint256",
                    "name": "value",
                    "type": "uint256"
                }
            ],
            "name": "Transfer",
            "type": "event"
        },
        {
            "anonymous": false,
            "inputs": [
                {
                    "indexed": true,
                    "internalType": "address",
                    "name": "sender",
                    "type": "address"
                },
                {
                    "indexed": true,
                    "internalType": "address",
                    "name": "receiver",
                    "type": "address"
                },
                {
                    "indexed": true,
                    "internalType": "address",
                    "name": "owner",
                    "type": "address"
                },
                {
                    "indexed": false,
                    "internalType": "uint256",
                    "name": "assets",
                    "type": "uint256"
                },
                {
                    "indexed": false,
                    "internalType": "uint256",
                    "name": "shares",
                    "type": "uint256"
                }
            ],
            "name": "Withdraw",
            "type": "event"
        },
        {
            "inputs": [],
            "name": "USDC",
            "outputs": [
                {
                    "internalType": "contract IERC20",
                    "name": "",
                    "type": "address"
                }
            ],
            "stateMutability": "view",
            "type": "function"
        },
        {
            "inputs": [],
            "name": "_BPS_BASE",
            "outputs": [
                {
                    "internalType": "uint256",
                    "name": "",
                    "type": "uint256"
                }
            ],
            "stateMutability": "view",
            "type": "function"
        },
        {
            "inputs": [],
            "name": "_BPS_FEE",
            "outputs": [
                {
                    "internalType": "uint256",
                    "name": "",
                    "type": "uint256"
                }
            ],
            "stateMutability": "view",
            "type": "function"
        },
        {
            "inputs": [],
            "name": "_BPS_LIQUIDATE_FEE",
            "outputs": [
                {
                    "internalType": "uint256",
                    "name": "",
                    "type": "uint256"
                }
            ],
            "stateMutability": "view",
            "type": "function"
        },
        {
            "inputs": [],
            "name": "_MAX_BPS_FEE",
            "outputs": [
                {
                    "internalType": "uint256",
                    "name": "",
                    "type": "uint256"
                }
            ],
            "stateMutability": "view",
            "type": "function"
        },
        {
            "inputs": [
                {
                    "internalType": "address",
                    "name": "owner",
                    "type": "address"
                },
                {
                    "internalType": "address",
                    "name": "spender",
                    "type": "address"
                }
            ],
            "name": "allowance",
            "outputs": [
                {
                    "internalType": "uint256",
                    "name": "",
                    "type": "uint256"
                }
            ],
            "stateMutability": "view",
            "type": "function"
        },
        {
            "inputs": [
                {
                    "internalType": "address",
                    "name": "spender",
                    "type": "address"
                },
                {
                    "internalType": "uint256",
                    "name": "value",
                    "type": "uint256"
                }
            ],
            "name": "approve",
            "outputs": [
                {
                    "internalType": "bool",
                    "name": "",
                    "type": "bool"
                }
            ],
            "stateMutability": "nonpayable",
            "type": "function"
        },
        {
            "inputs": [],
            "name": "asset",
            "outputs": [
                {
                    "internalType": "address",
                    "name": "",
                    "type": "address"
                }
            ],
            "stateMutability": "view",
            "type": "function"
        },
        {
            "inputs": [
                {
                    "internalType": "address",
                    "name": "account",
                    "type": "address"
                }
            ],
            "name": "balanceOf",
            "outputs": [
                {
                    "internalType": "uint256",
                    "name": "",
                    "type": "uint256"
                }
            ],
            "stateMutability": "view",
            "type": "function"
        },
        {
            "inputs": [
                {
                    "internalType": "address",
                    "name": "",
                    "type": "address"
                }
            ],
            "name": "balanceStakedOf",
            "outputs": [
                {
                    "internalType": "uint256",
                    "name": "",
                    "type": "uint256"
                }
            ],
            "stateMutability": "view",
            "type": "function"
        },
        {
            "inputs": [
                {
                    "internalType": "uint256",
                    "name": "amount",
                    "type": "uint256"
                }
            ],
            "name": "burn",
            "outputs": [],
            "stateMutability": "nonpayable",
            "type": "function"
        },
        {
            "inputs": [
                {
                    "internalType": "uint256",
                    "name": "amount",
                    "type": "uint256"
                }
            ],
            "name": "burnTokensAndSwapToUSDC",
            "outputs": [],
            "stateMutability": "nonpayable",
            "type": "function"
        },
        {
            "inputs": [
                {
                    "internalType": "address",
                    "name": "account",
                    "type": "address"
                }
            ],
            "name": "calculateRewardsEarned",
            "outputs": [
                {
                    "internalType": "uint256",
                    "name": "",
                    "type": "uint256"
                }
            ],
            "stateMutability": "view",
            "type": "function"
        },
        {
            "inputs": [],
            "name": "calculateTotalUSDCValuation",
            "outputs": [
                {
                    "internalType": "uint256",
                    "name": "",
                    "type": "uint256"
                }
            ],
            "stateMutability": "view",
            "type": "function"
        },
        {
            "inputs": [
                {
                    "internalType": "uint256",
                    "name": "_newFee",
                    "type": "uint256"
                }
            ],
            "name": "changeBpsFee",
            "outputs": [],
            "stateMutability": "nonpayable",
            "type": "function"
        },
        {
            "inputs": [
                {
                    "internalType": "uint256",
                    "name": "_newFee",
                    "type": "uint256"
                }
            ],
            "name": "changeBpsLiquidateFee",
            "outputs": [],
            "stateMutability": "nonpayable",
            "type": "function"
        },
        {
            "inputs": [],
            "name": "claim",
            "outputs": [
                {
                    "internalType": "uint256",
                    "name": "",
                    "type": "uint256"
                }
            ],
            "stateMutability": "nonpayable",
            "type": "function"
        },
        {
            "inputs": [
                {
                    "internalType": "address",
                    "name": "staker",
                    "type": "address"
                },
                {
                    "internalType": "address",
                    "name": "_to",
                    "type": "address"
                }
            ],
            "name": "claimTo",
            "outputs": [
                {
                    "internalType": "uint256",
                    "name": "",
                    "type": "uint256"
                }
            ],
            "stateMutability": "nonpayable",
            "type": "function"
        },
        {
            "inputs": [
                {
                    "internalType": "uint256",
                    "name": "shares",
                    "type": "uint256"
                }
            ],
            "name": "convertToAssets",
            "outputs": [
                {
                    "internalType": "uint256",
                    "name": "",
                    "type": "uint256"
                }
            ],
            "stateMutability": "view",
            "type": "function"
        },
        {
            "inputs": [
                {
                    "internalType": "uint256",
                    "name": "assets",
                    "type": "uint256"
                }
            ],
            "name": "convertToShares",
            "outputs": [
                {
                    "internalType": "uint256",
                    "name": "",
                    "type": "uint256"
                }
            ],
            "stateMutability": "view",
            "type": "function"
        },
        {
            "inputs": [],
            "name": "decimals",
            "outputs": [
                {
                    "internalType": "uint8",
                    "name": "",
                    "type": "uint8"
                }
            ],
            "stateMutability": "view",
            "type": "function"
        },
        {
            "inputs": [
                {
                    "internalType": "uint256",
                    "name": "assets",
                    "type": "uint256"
                },
                {
                    "internalType": "address",
                    "name": "receiver",
                    "type": "address"
                }
            ],
            "name": "deposit",
            "outputs": [
                {
                    "internalType": "uint256",
                    "name": "",
                    "type": "uint256"
                }
            ],
            "stateMutability": "nonpayable",
            "type": "function"
        },
        {
            "inputs": [
                {
                    "internalType": "uint256",
                    "name": "reserveA",
                    "type": "uint256"
                },
                {
                    "internalType": "uint256",
                    "name": "reserveB",
                    "type": "uint256"
                },
                {
                    "internalType": "uint8",
                    "name": "decimalsA",
                    "type": "uint8"
                },
                {
                    "internalType": "uint8",
                    "name": "decimalsB",
                    "type": "uint8"
                }
            ],
            "name": "div",
            "outputs": [
                {
                    "internalType": "uint256",
                    "name": "price",
                    "type": "uint256"
                }
            ],
            "stateMutability": "pure",
            "type": "function"
        },
        {
            "inputs": [
                {
                    "components": [
                        {
                            "internalType": "address",
                            "name": "to",
                            "type": "address"
                        },
                        {
                            "internalType": "uint256",
                            "name": "value",
                            "type": "uint256"
                        },
                        {
                            "internalType": "bytes",
                            "name": "data",
                            "type": "bytes"
                        }
                    ],
                    "internalType": "struct BaluniAgent.Call[]",
                    "name": "calls",
                    "type": "tuple[]"
                },
                {
                    "internalType": "address[]",
                    "name": "tokensReturn",
                    "type": "address[]"
                }
            ],
            "name": "execute",
            "outputs": [],
            "stateMutability": "nonpayable",
            "type": "function"
        },
        {
            "inputs": [
                {
                    "internalType": "address",
                    "name": "_user",
                    "type": "address"
                }
            ],
            "name": "getAgentAddress",
            "outputs": [
                {
                    "internalType": "address",
                    "name": "",
                    "type": "address"
                }
            ],
            "stateMutability": "view",
            "type": "function"
        },
        {
            "inputs": [],
            "name": "getBpsFee",
            "outputs": [
                {
                    "internalType": "uint256",
                    "name": "",
                    "type": "uint256"
                }
            ],
            "stateMutability": "view",
            "type": "function"
        },
        {
            "inputs": [],
            "name": "getMarketPrice",
            "outputs": [
                {
                    "internalType": "uint256",
                    "name": "",
                    "type": "uint256"
                }
            ],
            "stateMutability": "view",
            "type": "function"
        },
        {
            "inputs": [
                {
                    "internalType": "uint256",
                    "name": "amount",
                    "type": "uint256"
                }
            ],
            "name": "getUSDCShareValue",
            "outputs": [
                {
                    "internalType": "uint256",
                    "name": "",
                    "type": "uint256"
                }
            ],
            "stateMutability": "view",
            "type": "function"
        },
        {
            "inputs": [],
            "name": "getUnitPrice",
            "outputs": [
                {
                    "internalType": "uint256",
                    "name": "",
                    "type": "uint256"
                }
            ],
            "stateMutability": "view",
            "type": "function"
        },
        {
            "inputs": [
                {
                    "internalType": "address",
                    "name": "token",
                    "type": "address"
                }
            ],
            "name": "liquidate",
            "outputs": [],
            "stateMutability": "nonpayable",
            "type": "function"
        },
        {
            "inputs": [],
            "name": "listAllTokens",
            "outputs": [
                {
                    "internalType": "address[]",
                    "name": "",
                    "type": "address[]"
                }
            ],
            "stateMutability": "view",
            "type": "function"
        },
        {
            "inputs": [
                {
                    "internalType": "address",
                    "name": "",
                    "type": "address"
                }
            ],
            "name": "maxDeposit",
            "outputs": [
                {
                    "internalType": "uint256",
                    "name": "",
                    "type": "uint256"
                }
            ],
            "stateMutability": "view",
            "type": "function"
        },
        {
            "inputs": [
                {
                    "internalType": "address",
                    "name": "",
                    "type": "address"
                }
            ],
            "name": "maxMint",
            "outputs": [
                {
                    "internalType": "uint256",
                    "name": "",
                    "type": "uint256"
                }
            ],
            "stateMutability": "view",
            "type": "function"
        },
        {
            "inputs": [
                {
                    "internalType": "address",
                    "name": "owner",
                    "type": "address"
                }
            ],
            "name": "maxRedeem",
            "outputs": [
                {
                    "internalType": "uint256",
                    "name": "",
                    "type": "uint256"
                }
            ],
            "stateMutability": "view",
            "type": "function"
        },
        {
            "inputs": [
                {
                    "internalType": "address",
                    "name": "owner",
                    "type": "address"
                }
            ],
            "name": "maxWithdraw",
            "outputs": [
                {
                    "internalType": "uint256",
                    "name": "",
                    "type": "uint256"
                }
            ],
            "stateMutability": "view",
            "type": "function"
        },
        {
            "inputs": [
                {
                    "internalType": "uint256",
                    "name": "shares",
                    "type": "uint256"
                },
                {
                    "internalType": "address",
                    "name": "receiver",
                    "type": "address"
                }
            ],
            "name": "mint",
            "outputs": [
                {
                    "internalType": "uint256",
                    "name": "",
                    "type": "uint256"
                }
            ],
            "stateMutability": "nonpayable",
            "type": "function"
        },
        {
            "inputs": [
                {
                    "internalType": "uint256",
                    "name": "balAmountToMint",
                    "type": "uint256"
                }
            ],
            "name": "mint",
            "outputs": [
                {
                    "internalType": "uint256",
                    "name": "",
                    "type": "uint256"
                }
            ],
            "stateMutability": "nonpayable",
            "type": "function"
        },
        {
            "inputs": [
                {
                    "internalType": "uint256",
                    "name": "reserveA",
                    "type": "uint256"
                },
                {
                    "internalType": "uint256",
                    "name": "reserveB",
                    "type": "uint256"
                },
                {
                    "internalType": "uint8",
                    "name": "decimalsA",
                    "type": "uint8"
                },
                {
                    "internalType": "uint8",
                    "name": "decimalsB",
                    "type": "uint8"
                }
            ],
            "name": "mul",
            "outputs": [
                {
                    "internalType": "uint256",
                    "name": "price",
                    "type": "uint256"
                }
            ],
            "stateMutability": "pure",
            "type": "function"
        },
        {
            "inputs": [],
            "name": "name",
            "outputs": [
                {
                    "internalType": "string",
                    "name": "",
                    "type": "string"
                }
            ],
            "stateMutability": "view",
            "type": "function"
        },
        {
            "inputs": [],
            "name": "oracle",
            "outputs": [
                {
                    "internalType": "contract IOracle",
                    "name": "",
                    "type": "address"
                }
            ],
            "stateMutability": "view",
            "type": "function"
        },
        {
            "inputs": [],
            "name": "owner",
            "outputs": [
                {
                    "internalType": "address",
                    "name": "",
                    "type": "address"
                }
            ],
            "stateMutability": "view",
            "type": "function"
        },
        {
            "inputs": [],
            "name": "performArbitrage",
            "outputs": [],
            "stateMutability": "nonpayable",
            "type": "function"
        },
        {
            "inputs": [
                {
                    "internalType": "uint256",
                    "name": "assets",
                    "type": "uint256"
                }
            ],
            "name": "previewDeposit",
            "outputs": [
                {
                    "internalType": "uint256",
                    "name": "",
                    "type": "uint256"
                }
            ],
            "stateMutability": "view",
            "type": "function"
        },
        {
            "inputs": [
                {
                    "internalType": "uint256",
                    "name": "shares",
                    "type": "uint256"
                }
            ],
            "name": "previewMint",
            "outputs": [
                {
                    "internalType": "uint256",
                    "name": "",
                    "type": "uint256"
                }
            ],
            "stateMutability": "view",
            "type": "function"
        },
        {
            "inputs": [
                {
                    "internalType": "uint256",
                    "name": "shares",
                    "type": "uint256"
                }
            ],
            "name": "previewRedeem",
            "outputs": [
                {
                    "internalType": "uint256",
                    "name": "",
                    "type": "uint256"
                }
            ],
            "stateMutability": "view",
            "type": "function"
        },
        {
            "inputs": [
                {
                    "internalType": "uint256",
                    "name": "assets",
                    "type": "uint256"
                }
            ],
            "name": "previewWithdraw",
            "outputs": [
                {
                    "internalType": "uint256",
                    "name": "",
                    "type": "uint256"
                }
            ],
            "stateMutability": "view",
            "type": "function"
        },
        {
            "inputs": [
                {
                    "internalType": "uint256",
                    "name": "shares",
                    "type": "uint256"
                },
                {
                    "internalType": "address",
                    "name": "receiver",
                    "type": "address"
                },
                {
                    "internalType": "address",
                    "name": "owner",
                    "type": "address"
                }
            ],
            "name": "redeem",
            "outputs": [
                {
                    "internalType": "uint256",
                    "name": "",
                    "type": "uint256"
                }
            ],
            "stateMutability": "nonpayable",
            "type": "function"
        },
        {
            "inputs": [],
            "name": "renounceOwnership",
            "outputs": [],
            "stateMutability": "nonpayable",
            "type": "function"
        },
        {
            "inputs": [],
            "name": "rewardToken",
            "outputs": [
                {
                    "internalType": "contract IERC20",
                    "name": "",
                    "type": "address"
                }
            ],
            "stateMutability": "view",
            "type": "function"
        },
        {
            "inputs": [
                {
                    "internalType": "uint256",
                    "name": "amount",
                    "type": "uint256"
                }
            ],
            "name": "stake",
            "outputs": [],
            "stateMutability": "nonpayable",
            "type": "function"
        },
        {
            "inputs": [
                {
                    "internalType": "address",
                    "name": "",
                    "type": "address"
                }
            ],
            "name": "stakeTimestamp",
            "outputs": [
                {
                    "internalType": "uint256",
                    "name": "",
                    "type": "uint256"
                }
            ],
            "stateMutability": "view",
            "type": "function"
        },
        {
            "inputs": [],
            "name": "stakingSupply",
            "outputs": [
                {
                    "internalType": "uint256",
                    "name": "",
                    "type": "uint256"
                }
            ],
            "stateMutability": "view",
            "type": "function"
        },
        {
            "inputs": [],
            "name": "stakingToken",
            "outputs": [
                {
                    "internalType": "contract IERC20",
                    "name": "",
                    "type": "address"
                }
            ],
            "stateMutability": "view",
            "type": "function"
        },
        {
            "inputs": [],
            "name": "symbol",
            "outputs": [
                {
                    "internalType": "string",
                    "name": "",
                    "type": "string"
                }
            ],
            "stateMutability": "view",
            "type": "function"
        },
        {
            "inputs": [
                {
                    "internalType": "address",
                    "name": "",
                    "type": "address"
                }
            ],
            "name": "tokenBalanceMap",
            "outputs": [
                {
                    "internalType": "uint256",
                    "name": "",
                    "type": "uint256"
                }
            ],
            "stateMutability": "view",
            "type": "function"
        },
        {
            "inputs": [],
            "name": "totalAssets",
            "outputs": [
                {
                    "internalType": "uint256",
                    "name": "",
                    "type": "uint256"
                }
            ],
            "stateMutability": "view",
            "type": "function"
        },
        {
            "inputs": [],
            "name": "totalSupply",
            "outputs": [
                {
                    "internalType": "uint256",
                    "name": "",
                    "type": "uint256"
                }
            ],
            "stateMutability": "view",
            "type": "function"
        },
        {
            "inputs": [
                {
                    "internalType": "address",
                    "name": "to",
                    "type": "address"
                },
                {
                    "internalType": "uint256",
                    "name": "value",
                    "type": "uint256"
                }
            ],
            "name": "transfer",
            "outputs": [
                {
                    "internalType": "bool",
                    "name": "",
                    "type": "bool"
                }
            ],
            "stateMutability": "nonpayable",
            "type": "function"
        },
        {
            "inputs": [
                {
                    "internalType": "address",
                    "name": "from",
                    "type": "address"
                },
                {
                    "internalType": "address",
                    "name": "to",
                    "type": "address"
                },
                {
                    "internalType": "uint256",
                    "name": "value",
                    "type": "uint256"
                }
            ],
            "name": "transferFrom",
            "outputs": [
                {
                    "internalType": "bool",
                    "name": "",
                    "type": "bool"
                }
            ],
            "stateMutability": "nonpayable",
            "type": "function"
        },
        {
            "inputs": [
                {
                    "internalType": "address",
                    "name": "newOwner",
                    "type": "address"
                }
            ],
            "name": "transferOwnership",
            "outputs": [],
            "stateMutability": "nonpayable",
            "type": "function"
        },
        {
            "inputs": [],
            "name": "uniswapFactory",
            "outputs": [
                {
                    "internalType": "contract IUniswapV3Factory",
                    "name": "",
                    "type": "address"
                }
            ],
            "stateMutability": "view",
            "type": "function"
        },
        {
            "inputs": [],
            "name": "uniswapRouter",
            "outputs": [
                {
                    "internalType": "contract ISwapRouter",
                    "name": "",
                    "type": "address"
                }
            ],
            "stateMutability": "view",
            "type": "function"
        },
        {
            "inputs": [
                {
                    "internalType": "uint256",
                    "name": "amount",
                    "type": "uint256"
                }
            ],
            "name": "unstake",
            "outputs": [],
            "stateMutability": "nonpayable",
            "type": "function"
        },
        {
            "inputs": [
                {
                    "internalType": "uint256",
                    "name": "reward",
                    "type": "uint256"
                }
            ],
            "name": "updateRewardIndexPublic",
            "outputs": [],
            "stateMutability": "nonpayable",
            "type": "function"
        },
        {
            "inputs": [
                {
                    "internalType": "address",
                    "name": "",
                    "type": "address"
                }
            ],
            "name": "userAgents",
            "outputs": [
                {
                    "internalType": "contract BaluniAgent",
                    "name": "",
                    "type": "address"
                }
            ],
            "stateMutability": "view",
            "type": "function"
        },
        {
            "inputs": [
                {
                    "internalType": "uint256",
                    "name": "assets",
                    "type": "uint256"
                },
                {
                    "internalType": "address",
                    "name": "receiver",
                    "type": "address"
                },
                {
                    "internalType": "address",
                    "name": "owner",
                    "type": "address"
                }
            ],
            "name": "withdraw",
            "outputs": [
                {
                    "internalType": "uint256",
                    "name": "",
                    "type": "uint256"
                }
            ],
            "stateMutability": "nonpayable",
            "type": "function"
        }
    ],
    "bytecode": "610160604052601e600d819055612710600e55600f55670de0b6b3a7640000601055730addd25a91563696d8567df78d5a01c9a991f9b86101005273e592427a0aece92de3edee1f18e0157c0586156461012052731f98431c8ad98523631ae4a59f267346ea31f98461014052348015610077575f80fd5b503030306040518060400160405280600681526020016542616c756e6960d01b8152506040518060400160405280600681526020016542414c554e4960d01b815250335f6001600160a01b0316816001600160a01b0316036100f357604051631e4fbdf760e01b81525f60048201526024015b60405180910390fd5b6100fc8161018f565b506004610109838261064b565b506005610116828261064b565b5050505f8061012a836101de60201b60201c565b915091508161013a57601261013c565b805b60ff1660a05250506001600160a01b0390811660805291821660c0521660e0526001600c5560105461016f9030906102b4565b610181306010546102ec60201b60201c565b61018a3061035a565b6107ad565b5f80546001600160a01b038381166001600160a01b0319831681178455604051919092169283917f8be0079c531659141344cd1fd0a4f28419497f9722a3daafe3b4186f6b6457e09190a35050565b60408051600481526024810182526020810180516001600160e01b031663313ce56760e01b17905290515f918291829182916001600160a01b038716916102249161070a565b5f60405180830381855afa9150503d805f811461025c576040519150601f19603f3d011682016040523d82523d5f602084013e610261565b606091505b509150915081801561027557506020815110155b156102a8575f8180602001905181019061028f9190610720565b905060ff81116102a6576001969095509350505050565b505b505f9485945092505050565b6001600160a01b0382166102dd5760405163ec442f0560e01b81525f60048201526024016100ea565b6102e85f83836103ad565b5050565b6001600160a01b0382165f908152600660205260408120805483929061031390849061074b565b90915550506001600160a01b0382165f9081526007602052604081204290556008805483929061034490849061074b565b9091555050600854156102e8576102e8816104d3565b6103638161050a565b6001600160a01b0382165f908152600b60205260408120805490919061038a90849061074b565b90915550506009546001600160a01b039091165f908152600a6020526040902055565b6001600160a01b0383166103d7578060035f8282546103cc919061074b565b909155506104479050565b6001600160a01b0383165f90815260016020526040902054818110156104295760405163391434e360e21b81526001600160a01b038516600482015260248101829052604481018390526064016100ea565b6001600160a01b0384165f9081526001602052604090209082900390555b6001600160a01b03821661046357600380548290039055610481565b6001600160a01b0382165f9081526001602052604090208054820190555b816001600160a01b0316836001600160a01b03167fddf252ad1be2c89b69c2b068fc378daa952ba7f163c4a11628f55a4df523b3ef836040516104c691815260200190565b60405180910390a3505050565b6008546104e8670de0b6b3a764000083610764565b6104f2919061077b565b60095f828254610502919061074b565b909155505050565b6001600160a01b0381165f9081526006602090815260408083205460079092528220548290610539904261079a565b90506301e1338081111561054e57506301e133805b6001600160a01b0384165f908152600a60205260409020546009546301e1338091670de0b6b3a764000091610583919061079a565b61058d8486610764565b6105979190610764565b6105a1919061077b565b6105ab919061077b565b949350505050565b634e487b7160e01b5f52604160045260245ffd5b600181811c908216806105db57607f821691505b6020821081036105f957634e487b7160e01b5f52602260045260245ffd5b50919050565b601f82111561064657805f5260205f20601f840160051c810160208510156106245750805b601f840160051c820191505b81811015610643575f8155600101610630565b50505b505050565b81516001600160401b03811115610664576106646105b3565b6106788161067284546105c7565b846105ff565b602080601f8311600181146106ab575f84156106945750858301515b5f19600386901b1c1916600185901b178555610702565b5f85815260208120601f198616915b828110156106d9578886015182559484019460019091019084016106ba565b50858210156106f657878501515f19600388901b60f8161c191681555b505060018460011b0185555b505050505050565b5f82518060208501845e5f920191825250919050565b5f60208284031215610730575f80fd5b5051919050565b634e487b7160e01b5f52601160045260245ffd5b8082018082111561075e5761075e610737565b92915050565b808202811582820484141761075e5761075e610737565b5f8261079557634e487b7160e01b5f52601260045260245ffd5b500490565b8181038181111561075e5761075e610737565b60805160a05160c05160e0516101005161012051610140516151e96108a65f395f8181610743015281816110f5015281816118fc015281816123c20152818161269b015261274301525f818161065801528181610c3b01528181610cab01528181610dc601528181610e39015281816111990152818161245101528181612cdd0152612faf01525f81816106ba01528181610b0a015261332d01525f81816108f5015281816113a30152818161143401528181611746015261202301525f8181610631015281816110050152611fbd01525f61132d01525f8181610523015281816109450152818161346c01526136c101526151e95ff3fe608060405234801561000f575f80fd5b50600436106103d5575f3560e01c8063735de9f711610200578063ab86c69e1161011f578063cde53358116100b4578063eedc3c5011610084578063eedc3c50146108c1578063ef8b30f71461083d578063f2fde38b146108d4578063f377e7cf146108e7578063f7c618c1146108f0575f80fd5b8063cde5335814610850578063ce96cb7714610863578063d905777e14610876578063dd62ed3e14610889575f80fd5b8063ba087652116100ef578063ba0876521461080b578063bf9c89bb1461081e578063c63d75b614610547578063c6e6f5921461083d575f80fd5b8063ab86c69e146107c9578063b3d7f6b9146107dc578063b460af94146107ef578063b9f5e61714610802575f80fd5b80638b0867641161019557806395d89b411161016557806395d89b4114610788578063a0712d6814610790578063a694fc3a146107a3578063a9059cbb146107b6575f80fd5b80638b0867641461072b5780638bdb2afa1461073e5780638da5cb5b1461076557806394bf804d14610775575f80fd5b806383173c6c116101d057806383173c6c146106dc578063833d557f146106ef578063853771881461070e57806389a3027114610717575f80fd5b8063735de9f7146106535780637811a7851461067a5780637b848914146106a25780637dc0d1d0146106b5575f80fd5b806334decfc9116102f757806365534d521161028c578063702590771161025c57806370259077146105ca57806370a08231146105e9578063715018a61461061157806371ddcfb81461061957806372f702f31461062c575f80fd5b806365534d521461059e578063660e16c3146105a75780636aea3238146105af5780636e553f65146105b7575f80fd5b80634cdad506116102c75780634cdad506146104265780634e71d92d1461056e578063587f073d146105765780635e7f8b7614610589575f80fd5b806334decfc91461051857806338d52e0f14610521578063402d267d1461054757806342966c681461055b575f80fd5b806318160ddd1161036d5780632e17de781161033d5780632e17de78146104c55780632f865568146104d8578063313ce567146104eb57806334a1ca8914610505575f80fd5b806318160ddd14610477578063185fcffe1461047f57806323b872dd1461048757806327d54a921461049a575f80fd5b806307a2d13a116103a857806307a2d13a14610426578063095ea7b3146104395780630a28a4771461045c57806312f399cf1461046f575f80fd5b8063012a33aa146103d957806301e1d114146103f457806306497cb9146103fc57806306fdde0314610411575b5f80fd5b6103e1610917565b6040519081526020015b60405180910390f35b6103e161092e565b61040f61040a366004613df6565b6109b6565b005b6104196109fa565b6040516103eb9190613e3b565b6103e1610434366004613df6565b610a8a565b61044c610447366004613e61565b610a9b565b60405190151581526020016103eb565b6103e161046a366004613df6565b610ab2565b61040f610abe565b6003546103e1565b600d546103e1565b61044c610495366004613e8b565b610ee7565b6104ad6104a8366004613ec9565b610f0c565b6040516001600160a01b0390911681526020016103eb565b61040f6104d3366004613df6565b610faa565b61040f6104e6366004613ec9565b611080565b6104f3611326565b60405160ff90911681526020016103eb565b6103e1610513366004613ee4565b611351565b6103e16101f481565b7f00000000000000000000000000000000000000000000000000000000000000006104ad565b6103e1610555366004613ec9565b505f1990565b61040f610569366004613df6565b6114b3565b6103e1611707565b6103e1610584366004613f29565b611800565b6105916118ec565b6040516103eb9190613f70565b6103e1600f5481565b6103e16118f8565b6103e1611a37565b6103e16105c5366004613fbc565b611af3565b6103e16105d8366004613ec9565b60076020525f908152604090205481565b6103e16105f7366004613ec9565b6001600160a01b03165f9081526001602052604090205490565b61040f611b16565b6103e1610627366004613df6565b611b27565b6104ad7f000000000000000000000000000000000000000000000000000000000000000081565b6104ad7f000000000000000000000000000000000000000000000000000000000000000081565b6104ad610688366004613ec9565b60136020525f90815260409020546001600160a01b031681565b61040f6106b0366004613df6565b611b31565b6104ad7f000000000000000000000000000000000000000000000000000000000000000081565b6103e16106ea366004613f29565b611b6e565b6103e16106fd366004613ec9565b60146020525f908152604090205481565b6103e1600e5481565b6104ad5f8051602061519483398151915281565b6103e1610739366004613ec9565b611bc9565b6104ad7f000000000000000000000000000000000000000000000000000000000000000081565b5f546001600160a01b03166104ad565b6103e1610783366004613fbc565b611bf5565b610419611c10565b6103e161079e366004613df6565b611c1f565b61040f6107b1366004613df6565b611f4a565b61044c6107c4366004613e61565b611ff4565b61040f6107d7366004613df6565b612001565b6103e16107ea366004613df6565b6120cd565b6103e16107fd366004613fdf565b6120d9565b6103e1600d5481565b6103e1610819366004613fdf565b61212f565b6103e161082c366004613ec9565b60066020525f908152604090205481565b6103e161084b366004613df6565b61217c565b61040f61085e366004613df6565b612187565b6103e1610871366004613ec9565b612505565b6103e1610884366004613ec9565b612527565b6103e1610897366004613ee4565b6001600160a01b039182165f90815260026020908152604080832093909416825291909152205490565b61040f6108cf366004614066565b612544565b61040f6108e2366004613ec9565b612943565b6103e160085481565b6104ad7f000000000000000000000000000000000000000000000000000000000000000081565b5f610929670de0b6b3a764000061297d565b905090565b6040516370a0823160e01b81523060048201525f907f00000000000000000000000000000000000000000000000000000000000000006001600160a01b0316906370a0823190602401602060405180830381865afa158015610992573d5f803e3d5ffd5b505050506040513d601f19601f8201168201806040525081019061092991906140cd565b6109be612a01565b600d8190556040518181527fbea1b31142ae4b1f4efad240349036d718b7950d246c127768097ccf602fc7e0906020015b60405180910390a150565b606060048054610a09906140e4565b80601f0160208091040260200160405190810160405280929190818152602001828054610a35906140e4565b8015610a805780601f10610a5757610100808354040283529160200191610a80565b820191905f5260205f20905b815481529060010190602001808311610a6357829003601f168201915b5050505050905090565b5f610a95825f612a2d565b92915050565b5f33610aa8818585612a65565b5060019392505050565b5f610a95826001612a77565b610ac6612aa6565b5f610acf610917565b60405163802431fb60e01b81523060048201525f8051602061519483398151915260248201525f604482018190529192506001600160a01b037f0000000000000000000000000000000000000000000000000000000000000000169063802431fb90606401602060405180830381865afa158015610b4f573d5f803e3d5ffd5b505050506040513d601f19601f82011682018060405250810190610b7391906140cd565b305f90815260016020526040812054919250906040516370a0823160e01b81523060048201529091505f905f80516020615194833981519152906370a0823190602401602060405180830381865afa158015610bd1573d5f803e3d5ffd5b505050506040513d601f19601f82011682018060405250810190610bf591906140cd565b905083610c0764e8d4a510008561412a565b1015610da9575f610c1b8285600680611b6e565b905082811115610c285750815b610c605f805160206151948339815191527f000000000000000000000000000000000000000000000000000000000000000084612ad0565b5f610c7a5f80516020615194833981519152308530612c38565b905081811015610ca55760405162461bcd60e51b8152600401610c9c90614141565b60405180910390fd5b610cd0307f000000000000000000000000000000000000000000000000000000000000000083612ad0565b5f610cea305f805160206151948339815191528430612c38565b6040516370a0823160e01b815230600482015290915084905f80516020615194833981519152906370a0823190602401602060405180830381865afa158015610d35573d5f803e3d5ffd5b505050506040513d601f19601f82011682018060405250810190610d5991906140cd565b11610da15760405162461bcd60e51b8152602060048201526018602482015277105c989a5d1c9859d948191a59081b9bdd081c1c9bd99a5d60421b6044820152606401610c9c565b505050610ed7565b83610db964e8d4a510008561412a565b1115610ed75781610deb307f000000000000000000000000000000000000000000000000000000000000000083612ad0565b5f610e05305f805160206151948339815191528430612c38565b9050828111610e265760405162461bcd60e51b8152600401610c9c90614141565b610e5e5f805160206151948339815191527f000000000000000000000000000000000000000000000000000000000000000083612ad0565b5f610e785f80516020615194833981519152308430612c38565b305f908152600160205260409020549091508510610ed35760405162461bcd60e51b8152602060048201526018602482015277105c989a5d1c9859d948191a59081b9bdd081c1c9bd99a5d60421b6044820152606401610c9c565b5050505b50505050610ee56001600c55565b565b5f33610ef4858285612d4a565b610eff858585612dac565b60019150505b9392505050565b6040516001600160601b0319606083901b1660208201525f9081906034016040516020818303038152906040528051906020012090505f610f4c84612e09565b8051602091820120604080516001600160f81b0319818501523060601b6001600160601b0319166021820152603581019590955260558086019290925280518086039092018252607590940190935282519201919091209392505050565b610fb333612ed3565b335f9081526006602052604081208054839290610fd190849061418d565b925050819055508060085f828254610fe9919061418d565b909155505060405163a9059cbb60e01b81526001600160a01b037f0000000000000000000000000000000000000000000000000000000000000000169063a9059cbb9061103c90339085906004016141a0565b6020604051808303815f875af1158015611058573d5f803e3d5ffd5b505050506040513d601f19601f8201168201806040525081019061107c91906141c8565b5050565b611088612aa6565b6040516370a0823160e01b81523060048201525f906001600160a01b038316906370a0823190602401602060405180830381865afa1580156110cc573d5f803e3d5ffd5b505050506040513d601f19601f820116820180604052508101906110f091906140cd565b90505f7f00000000000000000000000000000000000000000000000000000000000000006001600160a01b0316631698ee82845f80516020615194833981519152610bb86040518463ffffffff1660e01b8152600401611152939291906141e1565b602060405180830381865afa15801561116d573d5f803e3d5ffd5b505050506040513d601f19601f820116820180604052508101906111919190614209565b90506111be837f000000000000000000000000000000000000000000000000000000000000000084612ad0565b6001600160a01b0381161561120e575f6111e7845f805160206151948339815191528530612c38565b90505f81116112085760405162461bcd60e51b8152600401610c9c90614224565b50611260565b5f61123d84730d500b1d8e8ef31e21c99d1db9a6444d3adf12705f805160206151948339815191528630612f26565b90505f811161125e5760405162461bcd60e51b8152600401610c9c90614224565b505b5f612710600f5461127060035490565b61127a919061412a565b611284919061426f565b90506112903082613031565b5f61129b3033611351565b90506112a73083613065565b7f0f6798a560793a54c3bcfe86a93cde1e73087d944c0ea20544137d412139688530836040516112d89291906141a0565b60405180910390a160405181815233907f106f923f993c2149d49b4255ff723acafa1f2d94393f561d3eda32ae348f72419060200160405180910390a2505050506113236001600c55565b50565b5f610929817f0000000000000000000000000000000000000000000000000000000000000000614282565b5f61135b83612ed3565b6001600160a01b0383165f908152600b60205260409020548015610f05576001600160a01b038085165f908152600b6020526040808220919091555163095ea7b360e01b81527f00000000000000000000000000000000000000000000000000000000000000009091169063095ea7b3906113dc90869085906004016141a0565b6020604051808303815f875af11580156113f8573d5f803e3d5ffd5b505050506040513d601f19601f8201168201806040525081019061141c91906141c8565b5060405163a9059cbb60e01b81526001600160a01b037f0000000000000000000000000000000000000000000000000000000000000000169063a9059cbb9061146b90869085906004016141a0565b6020604051808303815f875af1158015611487573d5f803e3d5ffd5b505050506040513d601f19601f820116820180604052508101906114ab91906141c8565b509392505050565b6114bb612aa6565b335f9081526001602052604090205481111561150c5760405162461bcd60e51b815260206004820152601060248201526f125b9cdd59999a58da595b9d0810905360821b6044820152606401610c9c565b5f5b61151860116130d3565b8110156116b9575f61152b6011836130dc565b90505f61153760035490565b6040516370a0823160e01b81523060048201529091505f906001600160a01b038416906370a0823190602401602060405180830381865afa15801561157e573d5f803e3d5ffd5b505050506040513d601f19601f820116820180604052508101906115a291906140cd565b90508015806115b957506001600160a01b03831630145b156115c6575050506116b1565b5f836001600160a01b031663313ce5676040518163ffffffff1660e01b8152600401602060405180830381865afa158015611603573d5f803e3d5ffd5b505050506040513d601f19601f82011682018060405250810190611627919061429b565b60ff1690505f611639848489856130e7565b60405163a9059cbb60e01b81529091506001600160a01b0386169063a9059cbb9061166a90339085906004016141a0565b6020604051808303815f875af1158015611686573d5f803e3d5ffd5b505050506040513d601f19601f820116820180604052508101906116aa91906141c8565b5050505050505b60010161150e565b506116c43382613177565b7fcc16f5dbb4873280815c1ee09dbd06736cffcc184412cf7a71a0fdb75d397ca533826040516116f59291906141a0565b60405180910390a16113236001600c55565b5f61171133612ed3565b335f908152600b602052604090205480156117c657335f818152600b6020526040808220919091555163a9059cbb60e01b81527f00000000000000000000000000000000000000000000000000000000000000006001600160a01b03169163a9059cbb91611784919085906004016141a0565b6020604051808303815f875af11580156117a0573d5f803e3d5ffd5b505050506040513d601f19601f820116820180604052508101906117c491906141c8565b505b60405181815233907f106f923f993c2149d49b4255ff723acafa1f2d94393f561d3eda32ae348f72419060200160405180910390a2919050565b5f8160ff168360ff1611156118355761181982846142b6565b61182490600a6143af565b61182e908561412a565b9350611865565b8260ff168260ff1611156118655761184d83836142b6565b61185890600a6143af565b611862908661412a565b94505b6001600160801b03851180159061188357506001600160801b038411155b6118c25760405162461bcd60e51b815260206004820152601060248201526f52657365727665206f766572666c6f7760801b6044820152606401610c9c565b5f6118d286600160801b876131ab565b90506118e2600160801b8261426f565b9695505050505050565b60606109296011613247565b5f807f00000000000000000000000000000000000000000000000000000000000000006001600160a01b0316631698ee82305f80516020615194833981519152610bb86040518463ffffffff1660e01b8152600401611959939291906141e1565b602060405180830381865afa158015611974573d5f803e3d5ffd5b505050506040513d601f19601f820116820180604052508101906119989190614209565b90505f816001600160a01b0316633850c7bd6040518163ffffffff1660e01b815260040160e060405180830381865afa1580156119d7573d5f803e3d5ffd5b505050506040513d601f19601f820116820180604052508101906119fb91906143ce565b5050505050509050600160c01b816001600160a01b0316826001600160a01b0316611a26919061412a565b611a30919061426f565b9250505090565b5f805f5b611a4560116130d3565b811015611aed575f611a586011836130dc565b6040516370a0823160e01b81523060048201529091505f906001600160a01b038316906370a0823190602401602060405180830381865afa158015611a9f573d5f803e3d5ffd5b505050506040513d601f19601f82011682018060405250810190611ac391906140cd565b90505f611ad08284613253565b9050611adc818661445c565b94505060019092019150611a3b9050565b50919050565b5f5f195f611b008561217c565b9050611b0e33858784613467565b949350505050565b611b1e612a01565b610ee55f6134f9565b5f610a958261297d565b611b39612a01565b600f8190556040518181527f120de5c966483867382dce1eb95f0d016a917f91b2188b2f4c1413333a9ffb0f906020016109ef565b5f835f03611bb15760405162461bcd60e51b815260206004820152601060248201526f4469766973696f6e206279207a65726f60801b6044820152606401610c9c565b8160ff168360ff1611156118355761181982846142b6565b5f611bd382613548565b6001600160a01b0383165f908152600b6020526040902054610a95919061445c565b5f5f195f611c02856120cd565b9050611b0e33858388613467565b606060058054610a09906140e4565b5f611c28612aa6565b5f611c31611a37565b90505f611c3d60035490565b90505f8111611c995760405162461bcd60e51b815260206004820152602260248201527f546f74616c2042414c554e4920737570706c792063616e6e6f74206265207a65604482015261726f60f01b6064820152608401610c9c565b5f611ca78386601280611800565b90505f611cb78284601280611b6e565b6040516370a0823160e01b81523360048201529091505f905f80516020615194833981519152906370a0823190602401602060405180830381865afa158015611d02573d5f803e3d5ffd5b505050506040513d601f19601f82011682018060405250810190611d2691906140cd565b9050611d3764e8d4a510008361426f565b811015611d865760405162461bcd60e51b815260206004820152601c60248201527f555344432062616c616e636520697320696e73756666696369656e74000000006044820152606401610c9c565b604051636eb1769f60e11b81523360048201523060248201525f905f805160206151948339815191529063dd62ed3e90604401602060405180830381865afa158015611dd4573d5f803e3d5ffd5b505050506040513d601f19601f82011682018060405250810190611df891906140cd565b9050611e0964e8d4a510008461426f565b811015611e585760405162461bcd60e51b815260206004820152601960248201527f436865636b2074686520746f6b656e20616c6c6f77616e6365000000000000006044820152606401610c9c565b611e823330611e6c64e8d4a510008761426f565b5f805160206151948339815191529291906135e9565b5f611e8c89613650565b90505f611e99828b61418d565b9050611ea53083613031565b60085415611eb657611eb682613679565b611ec03382613031565b7f0f6798a560793a54c3bcfe86a93cde1e73087d944c0ea20544137d41213968853382604051611ef19291906141a0565b60405180910390a17f0f6798a560793a54c3bcfe86a93cde1e73087d944c0ea20544137d41213968853083604051611f2a9291906141a0565b60405180910390a1975050505050505050611f456001600c55565b919050565b611f5333612ed3565b335f908152600760209081526040808320429055600690915281208054839290611f7e90849061445c565b925050819055508060085f828254611f96919061445c565b90915550506040516323b872dd60e01b8152336004820152306024820152604481018290527f00000000000000000000000000000000000000000000000000000000000000006001600160a01b0316906323b872dd9060640161103c565b5f33610aa8818585612dac565b6040516323b872dd60e01b8152336004820152306024820152604481018290527f00000000000000000000000000000000000000000000000000000000000000006001600160a01b0316906323b872dd906064016020604051808303815f875af1158015612071573d5f803e3d5ffd5b505050506040513d601f19601f8201168201806040525081019061209591906141c8565b506008546120ab670de0b6b3a76400008361412a565b6120b5919061426f565b60095f8282546120c5919061445c565b909155505050565b5f610a95826001612a2d565b5f806120e483612505565b90508085111561210d57828582604051633fa733bb60e21b8152600401610c9c9392919061446f565b5f61211786610ab2565b9050612126338686898561368e565b95945050505050565b5f8061213a83612527565b90508085111561216357828582604051632e52afbb60e21b8152600401610c9c9392919061446f565b5f61216d86610a8a565b9050612126338686848a61368e565b5f610a95825f612a77565b61218f612aa6565b5f81116121d15760405162461bcd60e51b815260206004820152601060248201526f125b9cdd59999a58da595b9d0810905360821b6044820152606401610c9c565b5f5b6121dd60116130d3565b8110156116b9575f6121f06011836130dc565b90505f6121fc60035490565b6040516370a0823160e01b81523060048201529091505f906001600160a01b038416906370a0823190602401602060405180830381865afa158015612243573d5f803e3d5ffd5b505050506040513d601f19601f8201168201806040525081019061226791906140cd565b90508015155f0361227a575050506124fd565b306001600160a01b03841603612292575050506124fd565b5f836001600160a01b031663313ce5676040518163ffffffff1660e01b8152600401602060405180830381865afa1580156122cf573d5f803e3d5ffd5b505050506040513d601f19601f820116820180604052508101906122f3919061429b565b60ff1690505f612305848489856130e7565b9050732791bca1f2de4661ed88a30c99a7a9449aa84173196001600160a01b038616016123a95760405163a9059cbb60e01b81525f805160206151948339815191529063a9059cbb9061235e90339085906004016141a0565b6020604051808303815f875af115801561237a573d5f803e3d5ffd5b505050506040513d601f19601f8201168201806040525081019061239e91906141c8565b5050505050506124fd565b604051630b4c774160e11b81525f906001600160a01b037f00000000000000000000000000000000000000000000000000000000000000001690631698ee829061240a9089905f8051602061519483398151915290610bb8906004016141e1565b602060405180830381865afa158015612425573d5f803e3d5ffd5b505050506040513d601f19601f820116820180604052508101906124499190614209565b9050612476867f000000000000000000000000000000000000000000000000000000000000000084612ad0565b6001600160a01b038116156124a45761249e865f805160206151948339815191528433612c38565b506124f6565b5f6124d387730d500b1d8e8ef31e21c99d1db9a6444d3adf12705f805160206151948339815191528633612f26565b90505f81116124f45760405162461bcd60e51b8152600401610c9c90614224565b505b5050505050505b6001016121d3565b6001600160a01b0381165f90815260016020526040812054610a95905f612a2d565b6001600160a01b0381165f90815260016020526040812054610a95565b61254c612aa6565b5f6125563361374e565b90505f8267ffffffffffffffff81111561257257612572614490565b60405190808252806020026020018201604052801561259b578160200160208202803683370190505b5090505f5b83811015612604576125d960118686848181106125bf576125bf6144a4565b90506020020160208101906125d49190613ec9565b6138d5565b158282815181106125ec576125ec6144a4565b911515602092830291909101909101526001016125a0565b50604051630eedc3c560e41b81526001600160a01b0383169063eedc3c5090612637908990899089908990600401614527565b5f604051808303815f87803b15801561264e575f80fd5b505af1158015612660573d5f803e3d5ffd5b505050505f5b83811015612930575f858583818110612681576126816144a4565b90506020020160208101906126969190613ec9565b90505f7f00000000000000000000000000000000000000000000000000000000000000006001600160a01b0316631698ee8283730d500b1d8e8ef31e21c99d1db9a6444d3adf1270610bb86040518463ffffffff1660e01b81526004016126ff939291906141e1565b602060405180830381865afa15801561271a573d5f803e3d5ffd5b505050506040513d601f19601f8201168201806040525081019061273e9190614209565b90505f7f00000000000000000000000000000000000000000000000000000000000000006001600160a01b0316631698ee8284730d500b1d8e8ef31e21c99d1db9a6444d3adf12706101f46040518463ffffffff1660e01b81526004016127a7939291906141e1565b602060405180830381865afa1580156127c2573d5f803e3d5ffd5b505050506040513d601f19601f820116820180604052508101906127e69190614209565b90505f6001600160a01b03831615158061280857506001600160a01b03821615155b905085858151811061281c5761281c6144a4565b6020026020010151801561282d5750805b1561283f5761283d6011856138f6565b505b80612920576040516370a0823160e01b81523060048201525f906001600160a01b038616906370a0823190602401602060405180830381865afa158015612888573d5f803e3d5ffd5b505050506040513d601f19601f820116820180604052508101906128ac91906140cd565b60405163a9059cbb60e01b81529091506001600160a01b0386169063a9059cbb906128dd90339085906004016141a0565b6020604051808303815f875af11580156128f9573d5f803e3d5ffd5b505050506040513d601f19601f8201168201806040525081019061291d91906141c8565b50505b5050600190920191506126669050565b50505061293d6001600c55565b50505050565b61294b612a01565b6001600160a01b03811661297457604051631e4fbdf760e01b81525f6004820152602401610c9c565b611323816134f9565b5f8061298860035490565b90505f81116129d95760405162461bcd60e51b815260206004820152601b60248201527f546f74616c20737570706c792063616e6e6f74206265207a65726f00000000006044820152606401610c9c565b5f6129e2611a37565b90505f6129f28583601280611800565b90506121268184601280611b6e565b5f546001600160a01b03163314610ee55760405163118cdaa760e01b8152336004820152602401610c9c565b5f610f05612a3961092e565b612a4490600161445c565b612a4f5f600a6143af565b600354612a5c919061445c565b8591908561390a565b612a72838383600161394d565b505050565b5f610f05612a8682600a6143af565b600354612a93919061445c565b612a9b61092e565b612a5c90600161445c565b6002600c5403612ac957604051633ee5aeb560e01b815260040160405180910390fd5b6002600c55565b604051636eb1769f60e11b81523060048201526001600160a01b03838116602483015284915f9183169063dd62ed3e90604401602060405180830381865afa158015612b1e573d5f803e3d5ffd5b505050506040513d601f19601f82011682018060405250810190612b4291906140cd565b9050828114612c31578015612bc15760405163095ea7b360e01b81526001600160a01b0383169063095ea7b390612b7f9087905f906004016141a0565b6020604051808303815f875af1158015612b9b573d5f803e3d5ffd5b505050506040513d601f19601f82011682018060405250810190612bbf91906141c8565b505b60405163095ea7b360e01b81526001600160a01b0383169063095ea7b390612bef90879087906004016141a0565b6020604051808303815f875af1158015612c0b573d5f803e3d5ffd5b505050506040513d601f19601f82011682018060405250810190612c2f91906141c8565b505b5050505050565b60408051610100810182526001600160a01b03868116825285811660208301908152610bb883850190815285831660608501908152426080860190815260a086018981525f60c0880181815260e08901828152995163414bf38960e01b8152895189166004820152965188166024880152945162ffffff166044870152925186166064860152905160848501525160a4840152905160c48301529351821660e48201527f00000000000000000000000000000000000000000000000000000000000000009091169063414bf38990610104016020604051808303815f875af1158015612d26573d5f803e3d5ffd5b505050506040513d601f19601f820116820180604052508101906118e291906140cd565b6001600160a01b038381165f908152600260209081526040808320938616835292905220545f19811461293d5781811015612d9e57828183604051637dc7a0d960e11b8152600401610c9c9392919061446f565b61293d84848484035f61394d565b6001600160a01b038316612dd557604051634b637e8f60e11b81525f6004820152602401610c9c565b6001600160a01b038216612dfe5760405163ec442f0560e01b81525f6004820152602401610c9c565b612a72838383613a11565b60606001600160a01b038216612e615760405162461bcd60e51b815260206004820152601d60248201527f4f776e657220616464726573732063616e6e6f74206265207a65726f2e0000006044820152606401610c9c565b5f60405180602001612e7290613de9565b601f1982820381018352601f9091011660408181526001600160a01b0386166020830152308183015280518083038201815260608301909152919250612ebc91839160800161462e565b604051602081830303815290604052915050919050565b612edc81613548565b6001600160a01b0382165f908152600b602052604081208054909190612f0390849061445c565b90915550506009546001600160a01b039091165f908152600a6020526040902055565b6040805160a081018252606087811b6001600160601b031990811660c084015261017760eb1b60d4840181905288831b821660d785015260eb84015286821b1660ee830152825160e28184030181526101028301845282526001600160a01b03808516602084015242838501529082018590525f60808301819052925163c04b8d5960e01b81527f00000000000000000000000000000000000000000000000000000000000000009091169063c04b8d5990612fe6908490600401614642565b6020604051808303815f875af1158015613002573d5f803e3d5ffd5b505050506040513d601f19601f8201168201806040525081019061302691906140cd565b979650505050505050565b6001600160a01b03821661305a5760405163ec442f0560e01b81525f6004820152602401610c9c565b61107c5f8383613a11565b6001600160a01b0382165f908152600660205260408120805483929061308c90849061445c565b90915550506001600160a01b0382165f908152600760205260408120429055600880548392906130bd90849061445c565b90915550506008541561107c5761107c81613679565b5f610a95825490565b5f610f058383613b24565b5f8085116131375760405162461bcd60e51b815260206004820152601b60248201527f546f74616c20737570706c792063616e6e6f74206265207a65726f00000000006044820152606401610c9c565b5f85613143868661412a565b61314d919061426f565b9050826012146121265761316283601261418d565b61316d90600a614699565b6118e2908261426f565b6001600160a01b0382166131a057604051634b637e8f60e11b81525f6004820152602401610c9c565b61107c825f83613a11565b5f838302815f19858709828110838203039150508084116131ca575f80fd5b805f036131dc57508290049050610f05565b5f848688095f868103871696879004966002600389028118808a02820302808a02820302808a02820302808a02820302808a02820302808a02909103029181900381900460010186841190950394909402919094039290920491909117919091029150509392505050565b60605f610f0583613b4a565b5f805f836001600160a01b031663313ce5676040518163ffffffff1660e01b8152600401602060405180830381865afa158015613292573d5f803e3d5ffd5b505050506040513d601f19601f820116820180604052508101906132b6919061429b565b9050732791bca1f2de4661ed88a30c99a7a9449aa84173196001600160a01b038516016132f5576132ec64e8d4a510008661412a565b92505050610a95565b60405163802431fb60e01b81526001600160a01b0385811660048301525f8051602061519483398151915260248301525f60448301527f0000000000000000000000000000000000000000000000000000000000000000169063802431fb90606401602060405180830381865afa925050508015613390575060408051601f3d908101601f1916820190925261338d918101906140cd565b60015b61339e575f92505050610a95565b91505f6133a9611326565b90508160ff166008036133fc5760646133c2818561412a565b9350670de0b6b3a7640000846133dd896402540be40061412a565b6133e7919061412a565b6133f1919061426f565b945050505050610a95565b8160ff1660060361342e576001613413818561412a565b9350670de0b6b3a7640000846133dd8964e8d4a5100061412a565b8160ff1660120361345e5764e8d4a51000613449818561412a565b9350670de0b6b3a76400006133e7858961412a565b50505092915050565b6134937f00000000000000000000000000000000000000000000000000000000000000008530856135e9565b61349d8382613031565b826001600160a01b0316846001600160a01b03167fdcbc1c05240f31ff3ad067ef1ee35ce4997762752e3a095284754544f4c709d784846040516134eb929190918252602082015260400190565b60405180910390a350505050565b5f80546001600160a01b038381166001600160a01b0319831681178455604051919092169283917f8be0079c531659141344cd1fd0a4f28419497f9722a3daafe3b4186f6b6457e09190a35050565b6001600160a01b0381165f9081526006602090815260408083205460079092528220548290613577904261418d565b90506301e1338081111561358c57506301e133805b6001600160a01b0384165f908152600a60205260409020546009546301e1338091670de0b6b3a7640000916135c1919061418d565b6135cb848661412a565b6135d5919061412a565b6135df919061426f565b611b0e919061426f565b6040516001600160a01b03848116602483015283811660448301526064820183905261293d9186918216906323b872dd906084015b604051602081830303815290604052915060e01b6020820180516001600160e01b038381831617835250505050613ba3565b5f80600e54600d54600e54613665919061418d565b61366f908561412a565b610f05919061426f565b6008546120ab670de0b6b3a76400008361412a565b826001600160a01b0316856001600160a01b0316146136b2576136b2838683612d4a565b6136bc8382613177565b6136e77f00000000000000000000000000000000000000000000000000000000000000008584613c04565b826001600160a01b0316846001600160a01b0316866001600160a01b03167ffbde797d201c681b91056529119e0b02407c7bb96a4a2c75c01fc9667232c8db858560405161373f929190918252602082015260400190565b60405180910390a45050505050565b6040516001600160601b0319606083901b1660208201525f90819060340160408051601f1981840301815291815281516020928301206001600160a01b038681165f90815260139094529190922054919250166138b6575f8184306040516137b590613de9565b6001600160a01b039283168152911660208201526040018190604051809103905ff59050801580156137e9573d5f803e3d5ffd5b509050803b63ffffffff1661384e5760405162461bcd60e51b815260206004820152602560248201527f4167656e74206372656174696f6e206661696c65642c206e6f74206120636f6e6044820152641d1c9858dd60da1b6064820152608401610c9c565b6001600160a01b038481165f8181526013602090815260409182902080546001600160a01b031916948616948517905581519283528201929092527f8c6e353968e7ffd60dba22ff7d2a4354af301f9d41858a35668e7292ec1301b6910160405180910390a1505b50506001600160a01b039081165f908152601360205260409020541690565b6001600160a01b0381165f9081526001830160205260408120541515610f05565b5f610f05836001600160a01b038416613c2a565b5f80613917868686613c76565b905061392283613cca565b801561393d57505f84806139385761393861425b565b868809115b15612126576118e260018261445c565b6001600160a01b0384166139765760405163e602df0560e01b81525f6004820152602401610c9c565b6001600160a01b03831661399f57604051634a1406b160e11b81525f6004820152602401610c9c565b6001600160a01b038085165f908152600260209081526040808320938716835292905220829055801561293d57826001600160a01b0316846001600160a01b03167f8c5be1e5ebec7d5bd14f71427d1e84f3dd0314c0f7b2291e5b200ac8c7c3b925846040516134eb91815260200190565b6001600160a01b038316613a3b578060035f828254613a30919061445c565b90915550613a989050565b6001600160a01b0383165f9081526001602052604090205481811015613a7a5783818360405163391434e360e21b8152600401610c9c9392919061446f565b6001600160a01b0384165f9081526001602052604090209082900390555b6001600160a01b038216613ab457600380548290039055613ad2565b6001600160a01b0382165f9081526001602052604090208054820190555b816001600160a01b0316836001600160a01b03167fddf252ad1be2c89b69c2b068fc378daa952ba7f163c4a11628f55a4df523b3ef83604051613b1791815260200190565b60405180910390a3505050565b5f825f018281548110613b3957613b396144a4565b905f5260205f200154905092915050565b6060815f01805480602002602001604051908101604052809291908181526020018280548015613b9757602002820191905f5260205f20905b815481526020019060010190808311613b83575b50505050509050919050565b5f613bb76001600160a01b03841683613cf6565b905080515f14158015613bdb575080806020019051810190613bd991906141c8565b155b15612a7257604051635274afe760e01b81526001600160a01b0384166004820152602401610c9c565b612a7283846001600160a01b031663a9059cbb858560405160240161361e9291906141a0565b5f818152600183016020526040812054613c6f57508154600181810184555f848152602080822090930184905584548482528286019093526040902091909155610a95565b505f610a95565b5f838302815f1985870982811083820303915050805f03613caa57838281613ca057613ca061425b565b0492505050610f05565b8084116131dc5760405163227bc15360e01b815260040160405180910390fd5b5f6002826003811115613cdf57613cdf6146a4565b613ce991906146b8565b60ff166001149050919050565b6060610f0583835f845f80856001600160a01b03168486604051613d1a91906146d9565b5f6040518083038185875af1925050503d805f8114613d54576040519150601f19603f3d011682016040523d82523d5f602084013e613d59565b606091505b50915091506118e2868383606082613d7957613d7482613dc0565b610f05565b8151158015613d9057506001600160a01b0384163b155b15613db957604051639996b31560e01b81526001600160a01b0385166004820152602401610c9c565b5080610f05565b805115613dd05780518082602001fd5b604051630a12f52160e11b815260040160405180910390fd5b610aaf806146e583390190565b5f60208284031215613e06575f80fd5b5035919050565b5f81518084528060208401602086015e5f602082860101526020601f19601f83011685010191505092915050565b602081525f610f056020830184613e0d565b6001600160a01b0381168114611323575f80fd5b5f8060408385031215613e72575f80fd5b8235613e7d81613e4d565b946020939093013593505050565b5f805f60608486031215613e9d575f80fd5b8335613ea881613e4d565b92506020840135613eb881613e4d565b929592945050506040919091013590565b5f60208284031215613ed9575f80fd5b8135610f0581613e4d565b5f8060408385031215613ef5575f80fd5b8235613f0081613e4d565b91506020830135613f1081613e4d565b809150509250929050565b60ff81168114611323575f80fd5b5f805f8060808587031215613f3c575f80fd5b84359350602085013592506040850135613f5581613f1b565b91506060850135613f6581613f1b565b939692955090935050565b602080825282518282018190525f9190848201906040850190845b81811015613fb05783516001600160a01b031683529284019291840191600101613f8b565b50909695505050505050565b5f8060408385031215613fcd575f80fd5b823591506020830135613f1081613e4d565b5f805f60608486031215613ff1575f80fd5b83359250602084013561400381613e4d565b9150604084013561401381613e4d565b809150509250925092565b5f8083601f84011261402e575f80fd5b50813567ffffffffffffffff811115614045575f80fd5b6020830191508360208260051b850101111561405f575f80fd5b9250929050565b5f805f8060408587031215614079575f80fd5b843567ffffffffffffffff80821115614090575f80fd5b61409c8883890161401e565b909650945060208701359150808211156140b4575f80fd5b506140c18782880161401e565b95989497509550505050565b5f602082840312156140dd575f80fd5b5051919050565b600181811c908216806140f857607f821691505b602082108103611aed57634e487b7160e01b5f52602260045260245ffd5b634e487b7160e01b5f52601160045260245ffd5b8082028115828204841417610a9557610a95614116565b6020808252602c908201527f417262697472616765206661696c65643a20696e73756666696369656e74206f60408201526b1d5d1c1d5d08185b5bdd5b9d60a21b606082015260800190565b81810381811115610a9557610a95614116565b6001600160a01b03929092168252602082015260400190565b80518015158114611f45575f80fd5b5f602082840312156141d8575f80fd5b610f05826141b9565b6001600160a01b03938416815291909216602082015262ffffff909116604082015260600190565b5f60208284031215614219575f80fd5b8151610f0581613e4d565b60208082526017908201527f53776170204661696c65642c20547279204275726e2829000000000000000000604082015260600190565b634e487b7160e01b5f52601260045260245ffd5b5f8261427d5761427d61425b565b500490565b60ff8181168382160190811115610a9557610a95614116565b5f602082840312156142ab575f80fd5b8151610f0581613f1b565b60ff8281168282160390811115610a9557610a95614116565b600181815b8085111561430957815f19048211156142ef576142ef614116565b808516156142fc57918102915b93841c93908002906142d4565b509250929050565b5f8261431f57506001610a95565b8161432b57505f610a95565b8160018114614341576002811461434b57614367565b6001915050610a95565b60ff84111561435c5761435c614116565b50506001821b610a95565b5060208310610133831016604e8410600b841016171561438a575081810a610a95565b61439483836142cf565b805f19048211156143a7576143a7614116565b029392505050565b5f610f0560ff841683614311565b805161ffff81168114611f45575f80fd5b5f805f805f805f60e0888a0312156143e4575f80fd5b87516143ef81613e4d565b8097505060208801518060020b8114614406575f80fd5b9550614414604089016143bd565b9450614422606089016143bd565b9350614430608089016143bd565b925060a088015161444081613f1b565b915061444e60c089016141b9565b905092959891949750929550565b80820180821115610a9557610a95614116565b6001600160a01b039390931683526020830191909152604082015260600190565b634e487b7160e01b5f52604160045260245ffd5b634e487b7160e01b5f52603260045260245ffd5b81835281816020850137505f828201602090810191909152601f909101601f19169091010190565b8183525f60208085019450825f5b8581101561451c57813561450181613e4d565b6001600160a01b0316875295820195908201906001016144ee565b509495945050505050565b60408082528181018590525f906060808401600588901b8501820189855b8a8110156145f457878303605f190184528135368d9003605e1901811261456a575f80fd5b8c01803561457781613e4d565b6001600160a01b03168452602081810135818601528782013536839003601e190181126145a2575f80fd5b90910181810191903567ffffffffffffffff8111156145bf575f80fd5b8036038313156145cd575f80fd5b87898701526145df88870182856144b8565b96820196955050929092019150600101614545565b5050858103602087015261460981888a6144e0565b9a9950505050505050505050565b5f81518060208401855e5f93019283525090919050565b5f611b0e61463c8386614617565b84614617565b602081525f825160a0602084015261465d60c0840182613e0d565b905060018060a01b0360208501511660408401526040840151606084015260608401516080840152608084015160a08401528091505092915050565b5f610f058383614311565b634e487b7160e01b5f52602160045260245ffd5b5f60ff8316806146ca576146ca61425b565b8060ff84160691505092915050565b5f610f05828461461756fe608060405234801561000f575f80fd5b50604051610aaf380380610aaf83398101604081905261002e916100c3565b336001600160a01b038216146100785760405162461bcd60e51b815260206004820152600b60248201526a27b7363c902937baba32b960a91b604482015260640160405180910390fd5b5f80546001600160a01b039384166001600160a01b031991821617909155600180549290931691161790556100f4565b80516001600160a01b03811681146100be575f80fd5b919050565b5f80604083850312156100d4575f80fd5b6100dd836100a8565b91506100eb602084016100a8565b90509250929050565b6109ae806101015f395ff3fe608060405234801561000f575f80fd5b506004361061003f575f3560e01c80638da5cb5b14610043578063b0f479a114610071578063eedc3c5014610082575b5f80fd5b5f54610055906001600160a01b031681565b6040516001600160a01b03909116815260200160405180910390f35b6001546001600160a01b0316610055565b6100956100903660046107d9565b610097565b005b6001546001600160a01b031633146100f65760405162461bcd60e51b815260206004820152601b60248201527f43616c6c61626c65206f6e6c792062792074686520726f75746572000000000060448201526064015b60405180910390fd5b5f5b83811015610231575f85858381811061011357610113610840565b90506020028101906101259190610854565b610133906020810190610872565b6001600160a01b031686868481811061014e5761014e610840565b90506020028101906101609190610854565b6020013587878581811061017657610176610840565b90506020028101906101889190610854565b610196906040810190610898565b6040516101a49291906108db565b5f6040518083038185875af1925050503d805f81146101de576040519150601f19603f3d011682016040523d82523d5f602084013e6101e3565b606091505b50509050806102285760405162461bcd60e51b815260206004820152601160248201527010985d18da0818d85b1b0819985a5b1959607a1b60448201526064016100ed565b506001016100f8565b5061023c828261024c565b6102468282610402565b50505050565b5f8060015f9054906101000a90046001600160a01b03166001600160a01b031663185fcffe6040518163ffffffff1660e01b8152600401602060405180830381865afa15801561029e573d5f803e3d5ffd5b505050506040513d601f19601f820116820180604052508101906102c291906108ea565b90505f5b838110156103fb575f8585838181106102e1576102e1610840565b90506020020160208101906102f69190610872565b905073eeeeeeeeeeeeeeeeeeeeeeeeeeeeeeeeeeeeeeed196001600160a01b038216016103525761271061032a8447610901565b6103349190610924565b60015490945061034d906001600160a01b03168561051e565b6103f2565b6040516370a0823160e01b81523060048201525f906001600160a01b038316906370a0823190602401602060405180830381865afa158015610396573d5f803e3d5ffd5b505050506040513d601f19601f820116820180604052508101906103ba91906108ea565b90506127106103c98583610901565b6103d39190610924565b6001549095506103f0906001600160a01b038481169116876105b1565b505b506001016102c6565b5050505050565b808015610519575f5b81811015610246575f84848381811061042657610426610840565b905060200201602081019061043b9190610872565b905073eeeeeeeeeeeeeeeeeeeeeeeeeeeeeeeeeeeeeeed196001600160a01b0382160161048257471561047d575f5461047d906001600160a01b03164761051e565b610510565b6040516370a0823160e01b81523060048201525f906001600160a01b038316906370a0823190602401602060405180830381865afa1580156104c6573d5f803e3d5ffd5b505050506040513d601f19601f820116820180604052508101906104ea91906108ea565b9050600a81111561050e575f5461050e906001600160a01b038481169116836105b1565b505b5060010161040b565b505050565b804710156105415760405163cd78605960e01b81523060048201526024016100ed565b5f826001600160a01b0316826040515f6040518083038185875af1925050503d805f811461058a576040519150601f19603f3d011682016040523d82523d5f602084013e61058f565b606091505b505090508061051957604051630a12f52160e11b815260040160405180910390fd5b604080516001600160a01b03848116602483015260448083018590528351808403909101815260649092019092526020810180516001600160e01b031663a9059cbb60e01b179052610519918591905f9061060e9084168361065b565b905080515f141580156106325750808060200190518101906106309190610943565b155b1561051957604051635274afe760e01b81526001600160a01b03841660048201526024016100ed565b606061066883835f610671565b90505b92915050565b6060814710156106965760405163cd78605960e01b81523060048201526024016100ed565b5f80856001600160a01b031684866040516106b19190610962565b5f6040518083038185875af1925050503d805f81146106eb576040519150601f19603f3d011682016040523d82523d5f602084013e6106f0565b606091505b509150915061070086838361070c565b925050505b9392505050565b6060826107215761071c82610768565b610705565b815115801561073857506001600160a01b0384163b155b1561076157604051639996b31560e01b81526001600160a01b03851660048201526024016100ed565b5080610705565b8051156107785780518082602001fd5b604051630a12f52160e11b815260040160405180910390fd5b5f8083601f8401126107a1575f80fd5b50813567ffffffffffffffff8111156107b8575f80fd5b6020830191508360208260051b85010111156107d2575f80fd5b9250929050565b5f805f80604085870312156107ec575f80fd5b843567ffffffffffffffff80821115610803575f80fd5b61080f88838901610791565b90965094506020870135915080821115610827575f80fd5b5061083487828801610791565b95989497509550505050565b634e487b7160e01b5f52603260045260245ffd5b5f8235605e19833603018112610868575f80fd5b9190910192915050565b5f60208284031215610882575f80fd5b81356001600160a01b0381168114610705575f80fd5b5f808335601e198436030181126108ad575f80fd5b83018035915067ffffffffffffffff8211156108c7575f80fd5b6020019150368190038213156107d2575f80fd5b818382375f9101908152919050565b5f602082840312156108fa575f80fd5b5051919050565b808202811582820484141761066b57634e487b7160e01b5f52601160045260245ffd5b5f8261093e57634e487b7160e01b5f52601260045260245ffd5b500490565b5f60208284031215610953575f80fd5b81518015158114610705575f80fd5b5f82518060208501845e5f92019182525091905056fea26469706673582212205c7231436aa50c1fa5e2d5459bb6802896503b3dcf69cd0f7729697524c0fc2664736f6c634300081900330000000000000000000000002791bca1f2de4661ed88a30c99a7a9449aa84174a2646970667358221220515dfefb81a9645622ee60fdd9f36424561753d763236b23c02b6486e994c70364736f6c63430008190033",
    "sourcePath": "c:/Users/Utente/Source/repos/baluni-contracts/contracts/core/BaluniRouter.sol",
    "compiler": {
        "name": "solc",
        "version": "0.8.25+commit.b61c2a91"
    },
    "functionHashes": {
        "USDC()": "89a30271",
        "_BPS_BASE()": "85377188",
        "_BPS_FEE()": "b9f5e617",
        "_BPS_LIQUIDATE_FEE()": "65534d52",
        "_MAX_BPS_FEE()": "34decfc9",
        "allowance(address,address)": "dd62ed3e",
        "approve(address,uint256)": "095ea7b3",
        "asset()": "38d52e0f",
        "balanceOf(address)": "70a08231",
        "balanceStakedOf(address)": "bf9c89bb",
        "burn(uint256)": "42966c68",
        "burnTokensAndSwapToUSDC(uint256)": "cde53358",
        "calculateRewardsEarned(address)": "8b086764",
        "calculateTotalUSDCValuation()": "6aea3238",
        "changeBpsFee(uint256)": "06497cb9",
        "changeBpsLiquidateFee(uint256)": "7b848914",
        "claim()": "4e71d92d",
        "claimTo(address,address)": "34a1ca89",
        "convertToAssets(uint256)": "07a2d13a",
        "convertToShares(uint256)": "c6e6f592",
        "decimals()": "313ce567",
        "deposit(uint256,address)": "6e553f65",
        "div(uint256,uint256,uint8,uint8)": "83173c6c",
        "execute((address,uint256,bytes)[],address[])": "eedc3c50",
        "getAgentAddress(address)": "27d54a92",
        "getBpsFee()": "185fcffe",
        "getMarketPrice()": "660e16c3",
        "getUSDCShareValue(uint256)": "71ddcfb8",
        "getUnitPrice()": "012a33aa",
        "liquidate(address)": "2f865568",
        "listAllTokens()": "5e7f8b76",
        "maxDeposit(address)": "402d267d",
        "maxMint(address)": "c63d75b6",
        "maxRedeem(address)": "d905777e",
        "maxWithdraw(address)": "ce96cb77",
        "mint(uint256)": "a0712d68",
        "mint(uint256,address)": "94bf804d",
        "mul(uint256,uint256,uint8,uint8)": "587f073d",
        "name()": "06fdde03",
        "oracle()": "7dc0d1d0",
        "owner()": "8da5cb5b",
        "performArbitrage()": "12f399cf",
        "previewDeposit(uint256)": "ef8b30f7",
        "previewMint(uint256)": "b3d7f6b9",
        "previewRedeem(uint256)": "4cdad506",
        "previewWithdraw(uint256)": "0a28a477",
        "redeem(uint256,address,address)": "ba087652",
        "renounceOwnership()": "715018a6",
        "rewardToken()": "f7c618c1",
        "stake(uint256)": "a694fc3a",
        "stakeTimestamp(address)": "70259077",
        "stakingSupply()": "f377e7cf",
        "stakingToken()": "72f702f3",
        "symbol()": "95d89b41",
        "tokenBalanceMap(address)": "833d557f",
        "totalAssets()": "01e1d114",
        "totalSupply()": "18160ddd",
        "transfer(address,uint256)": "a9059cbb",
        "transferFrom(address,address,uint256)": "23b872dd",
        "transferOwnership(address)": "f2fde38b",
        "uniswapFactory()": "8bdb2afa",
        "uniswapRouter()": "735de9f7",
        "unstake(uint256)": "2e17de78",
        "updateRewardIndexPublic(uint256)": "ab86c69e",
        "userAgents(address)": "7811a785",
        "withdraw(uint256,address,address)": "b460af94"
    },
    "gasEstimates": {
        "creation": {
            "codeDepositCost": "4193800",
            "executionCost": "infinite",
            "totalCost": "infinite"
        },
        "external": {
            "USDC()": "infinite",
            "_BPS_BASE()": "2395",
            "_BPS_FEE()": "2417",
            "_BPS_LIQUIDATE_FEE()": "2351",
            "_MAX_BPS_FEE()": "252",
            "allowance(address,address)": "infinite",
            "approve(address,uint256)": "24793",
            "asset()": "infinite",
            "balanceOf(address)": "2606",
            "balanceStakedOf(address)": "2588",
            "burn(uint256)": "infinite",
            "burnTokensAndSwapToUSDC(uint256)": "infinite",
            "calculateRewardsEarned(address)": "infinite",
            "calculateTotalUSDCValuation()": "infinite",
            "changeBpsFee(uint256)": "25665",
            "changeBpsLiquidateFee(uint256)": "25675",
            "claim()": "infinite",
            "claimTo(address,address)": "infinite",
            "convertToAssets(uint256)": "infinite",
            "convertToShares(uint256)": "infinite",
            "decimals()": "infinite",
            "deposit(uint256,address)": "infinite",
            "div(uint256,uint256,uint8,uint8)": "infinite",
            "execute((address,uint256,bytes)[],address[])": "infinite",
            "getAgentAddress(address)": "infinite",
            "getBpsFee()": "2371",
            "getMarketPrice()": "infinite",
            "getUSDCShareValue(uint256)": "infinite",
            "getUnitPrice()": "infinite",
            "liquidate(address)": "infinite",
            "listAllTokens()": "infinite",
            "maxDeposit(address)": "451",
            "maxMint(address)": "449",
            "maxRedeem(address)": "2662",
            "maxWithdraw(address)": "infinite",
            "mint(uint256)": "infinite",
            "mint(uint256,address)": "infinite",
            "mul(uint256,uint256,uint8,uint8)": "infinite",
            "name()": "infinite",
            "oracle()": "infinite",
            "owner()": "2441",
            "performArbitrage()": "infinite",
            "previewDeposit(uint256)": "infinite",
            "previewMint(uint256)": "infinite",
            "previewRedeem(uint256)": "infinite",
            "previewWithdraw(uint256)": "infinite",
            "redeem(uint256,address,address)": "infinite",
            "renounceOwnership()": "infinite",
            "rewardToken()": "infinite",
            "stake(uint256)": "infinite",
            "stakeTimestamp(address)": "2566",
            "stakingSupply()": "2415",
            "stakingToken()": "infinite",
            "symbol()": "infinite",
            "tokenBalanceMap(address)": "2589",
            "totalAssets()": "infinite",
            "totalSupply()": "2349",
            "transfer(address,uint256)": "51330",
            "transferFrom(address,address,uint256)": "infinite",
            "transferOwnership(address)": "infinite",
            "uniswapFactory()": "infinite",
            "uniswapRouter()": "infinite",
            "unstake(uint256)": "infinite",
            "updateRewardIndexPublic(uint256)": "infinite",
            "userAgents(address)": "2640",
            "withdraw(uint256,address,address)": "infinite"
        },
        "internal": {
            "_calculateProportionalUSDCShare(uint256)": "infinite",
            "_calculateTokenShare(uint256,uint256,uint256,uint256)": "infinite",
            "_calculateTokenValuation(uint256,address)": "infinite",
            "_stakeToContract(address,uint256)": "infinite",
            "calculateNetAmountAfterFee(uint256)": "infinite",
            "getBytecode(address)": "infinite",
            "getOrCreateAgent(address)": "infinite",
            "isContract(address)": "infinite",
            "multiHopSwap(address,address,address,uint256,address)": "infinite",
            "secureApproval(address,address,uint256)": "infinite",
            "singleSwap(address,address,uint256,address)": "infinite"
        }
    }
}