{
    "contractName": "BaluniV1RewardPool",
    "abi": [
        {
            "inputs": [
                {
                    "internalType": "address",
                    "name": "caller",
                    "type": "address"
                }
            ],
            "name": "NotManager",
            "type": "error"
        },
        {
            "inputs": [
                {
                    "internalType": "address",
                    "name": "reward",
                    "type": "address"
                }
            ],
            "name": "RewardNotFound",
            "type": "error"
        },
        {
            "inputs": [
                {
                    "internalType": "uint256",
                    "name": "duration",
                    "type": "uint256"
                }
            ],
            "name": "ShortDuration",
            "type": "error"
        },
        {
            "inputs": [],
            "name": "StakedTokenIsNotAReward",
            "type": "error"
        },
        {
            "inputs": [],
            "name": "TooManyRewards",
            "type": "error"
        },
        {
            "inputs": [
                {
                    "internalType": "address",
                    "name": "reward",
                    "type": "address"
                }
            ],
            "name": "WithdrawingRewardToken",
            "type": "error"
        },
        {
            "inputs": [],
            "name": "WithdrawingStakedToken",
            "type": "error"
        },
        {
            "anonymous": false,
            "inputs": [
                {
                    "indexed": false,
                    "internalType": "address",
                    "name": "reward",
                    "type": "address"
                }
            ],
            "name": "AddReward",
            "type": "event"
        },
        {
            "anonymous": false,
            "inputs": [
                {
                    "indexed": false,
                    "internalType": "address",
                    "name": "previousAdmin",
                    "type": "address"
                },
                {
                    "indexed": false,
                    "internalType": "address",
                    "name": "newAdmin",
                    "type": "address"
                }
            ],
            "name": "AdminChanged",
            "type": "event"
        },
        {
            "anonymous": false,
            "inputs": [
                {
                    "indexed": true,
                    "internalType": "address",
                    "name": "owner",
                    "type": "address"
                },
                {
                    "indexed": true,
                    "internalType": "address",
                    "name": "spender",
                    "type": "address"
                },
                {
                    "indexed": false,
                    "internalType": "uint256",
                    "name": "value",
                    "type": "uint256"
                }
            ],
            "name": "Approval",
            "type": "event"
        },
        {
            "anonymous": false,
            "inputs": [
                {
                    "indexed": true,
                    "internalType": "address",
                    "name": "beacon",
                    "type": "address"
                }
            ],
            "name": "BeaconUpgraded",
            "type": "event"
        },
        {
            "anonymous": false,
            "inputs": [
                {
                    "indexed": false,
                    "internalType": "uint8",
                    "name": "version",
                    "type": "uint8"
                }
            ],
            "name": "Initialized",
            "type": "event"
        },
        {
            "anonymous": false,
            "inputs": [
                {
                    "indexed": true,
                    "internalType": "address",
                    "name": "reward",
                    "type": "address"
                },
                {
                    "indexed": false,
                    "internalType": "uint256",
                    "name": "amount",
                    "type": "uint256"
                },
                {
                    "indexed": false,
                    "internalType": "uint256",
                    "name": "duration",
                    "type": "uint256"
                }
            ],
            "name": "NotifyReward",
            "type": "event"
        },
        {
            "anonymous": false,
            "inputs": [
                {
                    "indexed": true,
                    "internalType": "address",
                    "name": "previousOwner",
                    "type": "address"
                },
                {
                    "indexed": true,
                    "internalType": "address",
                    "name": "newOwner",
                    "type": "address"
                }
            ],
            "name": "OwnershipTransferred",
            "type": "event"
        },
        {
            "anonymous": false,
            "inputs": [
                {
                    "indexed": false,
                    "internalType": "address",
                    "name": "reward",
                    "type": "address"
                },
                {
                    "indexed": false,
                    "internalType": "address",
                    "name": "recipient",
                    "type": "address"
                }
            ],
            "name": "RemoveReward",
            "type": "event"
        },
        {
            "anonymous": false,
            "inputs": [
                {
                    "indexed": false,
                    "internalType": "address",
                    "name": "token",
                    "type": "address"
                },
                {
                    "indexed": false,
                    "internalType": "address",
                    "name": "recipient",
                    "type": "address"
                }
            ],
            "name": "RescueTokens",
            "type": "event"
        },
        {
            "anonymous": false,
            "inputs": [
                {
                    "indexed": true,
                    "internalType": "address",
                    "name": "user",
                    "type": "address"
                },
                {
                    "indexed": true,
                    "internalType": "address",
                    "name": "reward",
                    "type": "address"
                },
                {
                    "indexed": false,
                    "internalType": "uint256",
                    "name": "amount",
                    "type": "uint256"
                }
            ],
            "name": "RewardPaid",
            "type": "event"
        },
        {
            "anonymous": false,
            "inputs": [
                {
                    "indexed": false,
                    "internalType": "address",
                    "name": "manager",
                    "type": "address"
                },
                {
                    "indexed": false,
                    "internalType": "bool",
                    "name": "whitelist",
                    "type": "bool"
                }
            ],
            "name": "SetWhitelist",
            "type": "event"
        },
        {
            "anonymous": false,
            "inputs": [
                {
                    "indexed": true,
                    "internalType": "address",
                    "name": "user",
                    "type": "address"
                },
                {
                    "indexed": false,
                    "internalType": "uint256",
                    "name": "amount",
                    "type": "uint256"
                }
            ],
            "name": "Staked",
            "type": "event"
        },
        {
            "anonymous": false,
            "inputs": [
                {
                    "indexed": true,
                    "internalType": "address",
                    "name": "from",
                    "type": "address"
                },
                {
                    "indexed": true,
                    "internalType": "address",
                    "name": "to",
                    "type": "address"
                },
                {
                    "indexed": false,
                    "internalType": "uint256",
                    "name": "value",
                    "type": "uint256"
                }
            ],
            "name": "Transfer",
            "type": "event"
        },
        {
            "anonymous": false,
            "inputs": [
                {
                    "indexed": true,
                    "internalType": "address",
                    "name": "implementation",
                    "type": "address"
                }
            ],
            "name": "Upgraded",
            "type": "event"
        },
        {
            "anonymous": false,
            "inputs": [
                {
                    "indexed": true,
                    "internalType": "address",
                    "name": "user",
                    "type": "address"
                },
                {
                    "indexed": false,
                    "internalType": "uint256",
                    "name": "amount",
                    "type": "uint256"
                }
            ],
            "name": "Withdrawn",
            "type": "event"
        },
        {
            "inputs": [
                {
                    "internalType": "address",
                    "name": "owner",
                    "type": "address"
                },
                {
                    "internalType": "address",
                    "name": "spender",
                    "type": "address"
                }
            ],
            "name": "allowance",
            "outputs": [
                {
                    "internalType": "uint256",
                    "name": "",
                    "type": "uint256"
                }
            ],
            "stateMutability": "view",
            "type": "function"
        },
        {
            "inputs": [
                {
                    "internalType": "address",
                    "name": "spender",
                    "type": "address"
                },
                {
                    "internalType": "uint256",
                    "name": "amount",
                    "type": "uint256"
                }
            ],
            "name": "approve",
            "outputs": [
                {
                    "internalType": "bool",
                    "name": "",
                    "type": "bool"
                }
            ],
            "stateMutability": "nonpayable",
            "type": "function"
        },
        {
            "inputs": [
                {
                    "internalType": "address",
                    "name": "account",
                    "type": "address"
                }
            ],
            "name": "balanceOf",
            "outputs": [
                {
                    "internalType": "uint256",
                    "name": "",
                    "type": "uint256"
                }
            ],
            "stateMutability": "view",
            "type": "function"
        },
        {
            "inputs": [],
            "name": "decimals",
            "outputs": [
                {
                    "internalType": "uint8",
                    "name": "",
                    "type": "uint8"
                }
            ],
            "stateMutability": "view",
            "type": "function"
        },
        {
            "inputs": [
                {
                    "internalType": "address",
                    "name": "spender",
                    "type": "address"
                },
                {
                    "internalType": "uint256",
                    "name": "subtractedValue",
                    "type": "uint256"
                }
            ],
            "name": "decreaseAllowance",
            "outputs": [
                {
                    "internalType": "bool",
                    "name": "",
                    "type": "bool"
                }
            ],
            "stateMutability": "nonpayable",
            "type": "function"
        },
        {
            "inputs": [
                {
                    "internalType": "address",
                    "name": "_user",
                    "type": "address"
                }
            ],
            "name": "earned",
            "outputs": [
                {
                    "internalType": "address[]",
                    "name": "rewardTokens",
                    "type": "address[]"
                },
                {
                    "internalType": "uint256[]",
                    "name": "earnedAmounts",
                    "type": "uint256[]"
                }
            ],
            "stateMutability": "view",
            "type": "function"
        },
        {
            "inputs": [
                {
                    "internalType": "address",
                    "name": "_user",
                    "type": "address"
                },
                {
                    "internalType": "address",
                    "name": "_reward",
                    "type": "address"
                }
            ],
            "name": "earned",
            "outputs": [
                {
                    "internalType": "uint256",
                    "name": "earnedAmount",
                    "type": "uint256"
                }
            ],
            "stateMutability": "view",
            "type": "function"
        },
        {
            "inputs": [],
            "name": "exit",
            "outputs": [],
            "stateMutability": "nonpayable",
            "type": "function"
        },
        {
            "inputs": [],
            "name": "getReward",
            "outputs": [],
            "stateMutability": "nonpayable",
            "type": "function"
        },
        {
            "inputs": [
                {
                    "internalType": "address",
                    "name": "spender",
                    "type": "address"
                },
                {
                    "internalType": "uint256",
                    "name": "addedValue",
                    "type": "uint256"
                }
            ],
            "name": "increaseAllowance",
            "outputs": [
                {
                    "internalType": "bool",
                    "name": "",
                    "type": "bool"
                }
            ],
            "stateMutability": "nonpayable",
            "type": "function"
        },
        {
            "inputs": [
                {
                    "internalType": "address",
                    "name": "_stakedToken",
                    "type": "address"
                }
            ],
            "name": "initialize",
            "outputs": [],
            "stateMutability": "nonpayable",
            "type": "function"
        },
        {
            "inputs": [],
            "name": "name",
            "outputs": [
                {
                    "internalType": "string",
                    "name": "",
                    "type": "string"
                }
            ],
            "stateMutability": "view",
            "type": "function"
        },
        {
            "inputs": [
                {
                    "internalType": "address",
                    "name": "_reward",
                    "type": "address"
                },
                {
                    "internalType": "uint256",
                    "name": "_amount",
                    "type": "uint256"
                },
                {
                    "internalType": "uint256",
                    "name": "_duration",
                    "type": "uint256"
                }
            ],
            "name": "notifyRewardAmount",
            "outputs": [],
            "stateMutability": "nonpayable",
            "type": "function"
        },
        {
            "inputs": [],
            "name": "owner",
            "outputs": [
                {
                    "internalType": "address",
                    "name": "",
                    "type": "address"
                }
            ],
            "stateMutability": "view",
            "type": "function"
        },
        {
            "inputs": [],
            "name": "proxiableUUID",
            "outputs": [
                {
                    "internalType": "bytes32",
                    "name": "",
                    "type": "bytes32"
                }
            ],
            "stateMutability": "view",
            "type": "function"
        },
        {
            "inputs": [
                {
                    "internalType": "address",
                    "name": "_reward",
                    "type": "address"
                },
                {
                    "internalType": "address",
                    "name": "_recipient",
                    "type": "address"
                }
            ],
            "name": "removeReward",
            "outputs": [],
            "stateMutability": "nonpayable",
            "type": "function"
        },
        {
            "inputs": [],
            "name": "renounceOwnership",
            "outputs": [],
            "stateMutability": "nonpayable",
            "type": "function"
        },
        {
            "inputs": [
                {
                    "internalType": "address",
                    "name": "_token",
                    "type": "address"
                },
                {
                    "internalType": "address",
                    "name": "_recipient",
                    "type": "address"
                }
            ],
            "name": "rescueTokens",
            "outputs": [],
            "stateMutability": "nonpayable",
            "type": "function"
        },
        {
            "inputs": [
                {
                    "internalType": "uint256",
                    "name": "_rewardId",
                    "type": "uint256"
                }
            ],
            "name": "rewardInfo",
            "outputs": [
                {
                    "internalType": "address",
                    "name": "reward",
                    "type": "address"
                },
                {
                    "internalType": "uint256",
                    "name": "periodFinish",
                    "type": "uint256"
                },
                {
                    "internalType": "uint256",
                    "name": "duration",
                    "type": "uint256"
                },
                {
                    "internalType": "uint256",
                    "name": "lastUpdateTime",
                    "type": "uint256"
                },
                {
                    "internalType": "uint256",
                    "name": "rate",
                    "type": "uint256"
                }
            ],
            "stateMutability": "view",
            "type": "function"
        },
        {
            "inputs": [
                {
                    "internalType": "uint256",
                    "name": "",
                    "type": "uint256"
                }
            ],
            "name": "rewards",
            "outputs": [
                {
                    "internalType": "address",
                    "name": "",
                    "type": "address"
                }
            ],
            "stateMutability": "view",
            "type": "function"
        },
        {
            "inputs": [
                {
                    "internalType": "address",
                    "name": "_manager",
                    "type": "address"
                },
                {
                    "internalType": "bool",
                    "name": "_whitelisted",
                    "type": "bool"
                }
            ],
            "name": "setWhitelist",
            "outputs": [],
            "stateMutability": "nonpayable",
            "type": "function"
        },
        {
            "inputs": [
                {
                    "internalType": "uint256",
                    "name": "_amount",
                    "type": "uint256"
                }
            ],
            "name": "stake",
            "outputs": [],
            "stateMutability": "nonpayable",
            "type": "function"
        },
        {
            "inputs": [
                {
                    "internalType": "address",
                    "name": "_user",
                    "type": "address"
                },
                {
                    "internalType": "uint256",
                    "name": "_amount",
                    "type": "uint256"
                },
                {
                    "internalType": "uint256",
                    "name": "_deadline",
                    "type": "uint256"
                },
                {
                    "internalType": "uint8",
                    "name": "_v",
                    "type": "uint8"
                },
                {
                    "internalType": "bytes32",
                    "name": "_r",
                    "type": "bytes32"
                },
                {
                    "internalType": "bytes32",
                    "name": "_s",
                    "type": "bytes32"
                }
            ],
            "name": "stakeWithPermit",
            "outputs": [],
            "stateMutability": "nonpayable",
            "type": "function"
        },
        {
            "inputs": [],
            "name": "stakedToken",
            "outputs": [
                {
                    "internalType": "contract IERC20Upgradeable",
                    "name": "",
                    "type": "address"
                }
            ],
            "stateMutability": "view",
            "type": "function"
        },
        {
            "inputs": [],
            "name": "symbol",
            "outputs": [
                {
                    "internalType": "string",
                    "name": "",
                    "type": "string"
                }
            ],
            "stateMutability": "view",
            "type": "function"
        },
        {
            "inputs": [],
            "name": "totalSupply",
            "outputs": [
                {
                    "internalType": "uint256",
                    "name": "",
                    "type": "uint256"
                }
            ],
            "stateMutability": "view",
            "type": "function"
        },
        {
            "inputs": [
                {
                    "internalType": "address",
                    "name": "_to",
                    "type": "address"
                },
                {
                    "internalType": "uint256",
                    "name": "_value",
                    "type": "uint256"
                }
            ],
            "name": "transfer",
            "outputs": [
                {
                    "internalType": "bool",
                    "name": "success",
                    "type": "bool"
                }
            ],
            "stateMutability": "nonpayable",
            "type": "function"
        },
        {
            "inputs": [
                {
                    "internalType": "address",
                    "name": "_from",
                    "type": "address"
                },
                {
                    "internalType": "address",
                    "name": "_to",
                    "type": "address"
                },
                {
                    "internalType": "uint256",
                    "name": "_value",
                    "type": "uint256"
                }
            ],
            "name": "transferFrom",
            "outputs": [
                {
                    "internalType": "bool",
                    "name": "success",
                    "type": "bool"
                }
            ],
            "stateMutability": "nonpayable",
            "type": "function"
        },
        {
            "inputs": [
                {
                    "internalType": "address",
                    "name": "newOwner",
                    "type": "address"
                }
            ],
            "name": "transferOwnership",
            "outputs": [],
            "stateMutability": "nonpayable",
            "type": "function"
        },
        {
            "inputs": [
                {
                    "internalType": "address",
                    "name": "newImplementation",
                    "type": "address"
                }
            ],
            "name": "upgradeTo",
            "outputs": [],
            "stateMutability": "nonpayable",
            "type": "function"
        },
        {
            "inputs": [
                {
                    "internalType": "address",
                    "name": "newImplementation",
                    "type": "address"
                },
                {
                    "internalType": "bytes",
                    "name": "data",
                    "type": "bytes"
                }
            ],
            "name": "upgradeToAndCall",
            "outputs": [],
            "stateMutability": "payable",
            "type": "function"
        },
        {
            "inputs": [
                {
                    "internalType": "address",
                    "name": "",
                    "type": "address"
                }
            ],
            "name": "whitelisted",
            "outputs": [
                {
                    "internalType": "bool",
                    "name": "",
                    "type": "bool"
                }
            ],
            "stateMutability": "view",
            "type": "function"
        },
        {
            "inputs": [
                {
                    "internalType": "uint256",
                    "name": "_amount",
                    "type": "uint256"
                }
            ],
            "name": "withdraw",
            "outputs": [],
            "stateMutability": "nonpayable",
            "type": "function"
        }
    ],
    "bytecode": "60a0604052306080523480156012575f80fd5b50608051612d606100475f395f8181610a2101528181610a6101528181610b3101528181610b710152610bfe0152612d605ff3fe6080604052600436106101e5575f3560e01c806370a0823111610108578063a694fc3a1161009d578063d936547e1161006d578063d936547e14610594578063dd62ed3e146105c2578063e9fad8ee146105e1578063f2fde38b146105f5578063f301af4214610614575f80fd5b8063a694fc3a14610518578063a9059cbb14610537578063c4d66de814610556578063cc7a262e14610575575f80fd5b80638da5cb5b116100d85780638da5cb5b1461049557806395d89b41146104c6578063a3cd8ac4146104da578063a457c2d7146104f9575f80fd5b806370a08231146103dd578063715018a61461041157806373d6a8891461042557806381a00f8314610444575f80fd5b8063313ce5671161017e5780634f1ef2861161014e5780634f1ef2861461037857806352d1902d1461038b57806353d6fd591461039f5780635431c94e146103be575f80fd5b8063313ce5671461030b5780633659cfe61461032657806339509351146103455780633d18b91214610364575f80fd5b806318160ddd116101b957806318160ddd14610290578063211dc32d146102ae57806323b872dd146102cd5780632e1a7d4d146102ec575f80fd5b80628cc262146101e957806306fdde031461021f578063095ea7b314610240578063165d21c91461026f575b5f80fd5b3480156101f4575f80fd5b506102086102033660046126cd565b610633565b6040516102169291906126e6565b60405180910390f35b34801561022a575f80fd5b50610233610746565b6040516102169190612768565b34801561024b575f80fd5b5061025f61025a36600461279d565b6107d6565b6040519015158152602001610216565b34801561027a575f80fd5b5061028e6102893660046127c5565b6107ef565b005b34801561029b575f80fd5b506035545b604051908152602001610216565b3480156102b9575f80fd5b506102a06102c83660046127c5565b6109c8565b3480156102d8575f80fd5b5061025f6102e73660046127f6565b6109da565b3480156102f7575f80fd5b5061028e61030636600461282f565b610a00565b348015610316575f80fd5b5060405160128152602001610216565b348015610331575f80fd5b5061028e6103403660046126cd565b610a17565b348015610350575f80fd5b5061025f61035f36600461279d565b610af4565b34801561036f575f80fd5b5061028e610b15565b61028e61038636600461285a565b610b27565b348015610396575f80fd5b506102a0610bf2565b3480156103aa575f80fd5b5061028e6103b9366004612923565b610ca3565b3480156103c9575f80fd5b5061028e6103d83660046127c5565b610d0e565b3480156103e8575f80fd5b506102a06103f73660046126cd565b6001600160a01b03165f9081526033602052604090205490565b34801561041c575f80fd5b5061028e610e3d565b348015610430575f80fd5b5061028e61043f366004612958565b610e50565b34801561044f575f80fd5b5061046361045e36600461282f565b610ef2565b604080516001600160a01b0390961686526020860194909452928401919091526060830152608082015260a001610216565b3480156104a0575f80fd5b506065546001600160a01b03165b6040516001600160a01b039091168152602001610216565b3480156104d1575f80fd5b50610233610f4c565b3480156104e5575f80fd5b5061028e6104f43660046129b3565b610f5b565b348015610504575f80fd5b5061025f61051336600461279d565b6111b0565b348015610523575f80fd5b5061028e61053236600461282f565b611235565b348015610542575f80fd5b5061025f61055136600461279d565b611249565b348015610561575f80fd5b5061028e6105703660046126cd565b611266565b348015610580575f80fd5b5060fb546104ae906001600160a01b031681565b34801561059f575f80fd5b5061025f6105ae3660046126cd565b60fd6020525f908152604090205460ff1681565b3480156105cd575f80fd5b506102a06105dc3660046127c5565b6113e5565b3480156105ec575f80fd5b5061028e61140f565b348015610600575f80fd5b5061028e61060f3660046126cd565b611431565b34801561061f575f80fd5b506104ae61062e36600461282f565b6114a7565b60fc5460609081905f8167ffffffffffffffff81111561065557610655612846565b60405190808252806020026020018201604052801561067e578160200160208202803683370190505b5090505f5b828110156106e0576106bb8660fc83815481106106a2576106a26129e3565b5f918252602090912001546001600160a01b03166114cf565b8282815181106106cd576106cd6129e3565b6020908102919091010152600101610683565b5080925060fc80548060200260200160405190810160405280929190818152602001828054801561073857602002820191905f5260205f20905b81546001600160a01b0316815260019091019060200180831161071a575b505050505093505050915091565b606060368054610755906129f7565b80601f0160208091040260200160405190810160405280929190818152602001828054610781906129f7565b80156107cc5780601f106107a3576101008083540402835291602001916107cc565b820191905f5260205f20905b8154815290600101906020018083116107af57829003601f168201915b5050505050905090565b5f336107e3818585611564565b60019150505b92915050565b6107f7611687565b610800826116e1565b61082d5760405163d6e12d4d60e01b81526001600160a01b03831660048201526024015b60405180910390fd5b6001600160a01b0382165f90815260ff602052604081205460fc805491929161085890600190612a3d565b81548110610868576108686129e3565b5f9182526020909120015460fc80546001600160a01b039092169250829184908110610896576108966129e3565b5f91825260208083209190910180546001600160a01b0319166001600160a01b03948516179055918316815260ff9091526040902082905560fc8054806108df576108df612a50565b5f828152602081205f19908301810180546001600160a01b03191690559091019091556040516370a0823160e01b81523060048201526001600160a01b038616906370a0823190602401602060405180830381865afa158015610944573d5f803e3d5ffd5b505050506040513d601f19601f820116820180604052508101906109689190612a64565b905061097e6001600160a01b0386168583611739565b604080516001600160a01b038088168252861660208201527f650580407a4a6781be5974ccbb4e76f8e86fd7da0b6a0eda265806d936bb9cc8910160405180910390a15050505050565b5f6109d383836114cf565b9392505050565b5f6109e4846117a1565b6109ed836117a1565b6109f8848484611854565b949350505050565b33610a0a816117a1565b610a138261186c565b5050565b6001600160a01b037f0000000000000000000000000000000000000000000000000000000000000000163003610a5f5760405162461bcd60e51b815260040161082490612a7b565b7f00000000000000000000000000000000000000000000000000000000000000006001600160a01b0316610aa75f80516020612ce4833981519152546001600160a01b031690565b6001600160a01b031614610acd5760405162461bcd60e51b815260040161082490612ac7565b610ad6816118c5565b604080515f80825260208201909252610af1918391906118cd565b50565b5f336107e3818585610b0683836113e5565b610b109190612b13565b611564565b33610b1f816117a1565b610af1611a37565b6001600160a01b037f0000000000000000000000000000000000000000000000000000000000000000163003610b6f5760405162461bcd60e51b815260040161082490612a7b565b7f00000000000000000000000000000000000000000000000000000000000000006001600160a01b0316610bb75f80516020612ce4833981519152546001600160a01b031690565b6001600160a01b031614610bdd5760405162461bcd60e51b815260040161082490612ac7565b610be6826118c5565b610a13828260016118cd565b5f306001600160a01b037f00000000000000000000000000000000000000000000000000000000000000001614610c915760405162461bcd60e51b815260206004820152603860248201527f555550535570677261646561626c653a206d757374206e6f742062652063616c60448201527f6c6564207468726f7567682064656c656761746563616c6c00000000000000006064820152608401610824565b505f80516020612ce483398151915290565b610cab611687565b6001600160a01b0382165f81815260fd6020908152604091829020805460ff19168515159081179091558251938452908301527ff6019ec0a78d156d249a1ec7579e2321f6ac7521d6e1d2eacf90ba4a184dcceb91015b60405180910390a15050565b610d16611687565b60fb546001600160a01b0390811690831603610d4557604051637640a2f760e01b815260040160405180910390fd5b610d4e826116e1565b15610d775760405163b4506ab160e01b81526001600160a01b0383166004820152602401610824565b6040516370a0823160e01b81523060048201525f906001600160a01b038416906370a0823190602401602060405180830381865afa158015610dbb573d5f803e3d5ffd5b505050506040513d601f19601f82011682018060405250810190610ddf9190612a64565b9050610df56001600160a01b0384168383611739565b604080516001600160a01b038086168252841660208201527fbfad076d6a1d05fa5f54965cabe504bdca88c511c84830d3ae5e52be23632dd0910160405180910390a1505050565b610e45611687565b610e4e5f611af7565b565b85610e5a816117a1565b60fb5460405163d505accf60e01b81526001600160a01b038981166004830152306024830152604482018990526064820188905260ff8716608483015260a4820186905260c482018590529091169063d505accf9060e4015f604051808303815f87803b158015610ec9575f80fd5b505af1158015610edb573d5f803e3d5ffd5b50505050610ee98787611b48565b50505050505050565b5f805f805f60fc8681548110610f0a57610f0a6129e3565b5f9182526020822001546001600160a01b03169550610f2886611ba3565b805460018201546002830154600390930154989a9199509791965090945092505050565b606060378054610755906129f7565b335f90815260fd602052604090205460ff16610f8c57604051632a19e83360e01b8152336004820152602401610824565b5f610f96816117a1565b610e10821015610fbc5760405163361ef67360e21b815260048101839052602401610824565b610fc5846116e1565b6110dc576040516bffffffffffffffffffffffff19606086901b16602082015242603482015260540160408051601f1981840301815291815281516020928301206001600160a01b0387165f90815261010090935291205560fc5460fe5461102e826001612b13565b111561104d5760405163428680e160e11b815260040160405180910390fd5b6001600160a01b0385165f81815260ff6020908152604080832085905560fc805460018101825593527f371f36870d18f32a11fea0f144b021c8b407bb50f8e0267c711123f454b963c090920180546001600160a01b0319168417905590519182527f1714865bf5baa84e3439536a013c87cfe030b4cd69f344a5f2a4877de3d517ce910160405180910390a1505b6110f16001600160a01b038516333086611bcb565b5f6110fb85611ba3565b90505f815f015442101561112e5781545f90611118904290612a3d565b905082600301548161112a9190612b26565b9150505b836111398287612b13565b6111439190612b3d565b6003830155426002830181905561115b908590612b13565b82556001820184905560408051868152602081018690526001600160a01b038816917f3c0f5c48b0ffa2c570c1a0f4fbf7b0f8982213afff9eb42cd258ead865cf3c9d910160405180910390a2505050505050565b5f33816111bd82866113e5565b90508381101561121d5760405162461bcd60e51b815260206004820152602560248201527f45524332303a2064656372656173656420616c6c6f77616e63652062656c6f77604482015264207a65726f60d81b6064820152608401610824565b61122a8286868403611564565b506001949350505050565b3361123f816117a1565b610a133383611b48565b5f611253336117a1565b61125c836117a1565b6109d38383611c09565b5f54610100900460ff161580801561128457505f54600160ff909116105b8061129d5750303b15801561129d57505f5460ff166001145b6113005760405162461bcd60e51b815260206004820152602e60248201527f496e697469616c697a61626c653a20636f6e747261637420697320616c72656160448201526d191e481a5b9a5d1a585b1a5e995960921b6064820152608401610824565b5f805460ff191660011790558015611321575f805461ff0019166101001790555b61137460405180604001604052806012815260200171109053155392481c995dd85c99081c1bdbdb60721b815250604051806040016040528060078152602001667242414c554e4960c81b815250611c16565b61137c611c46565b611384611c74565b60fb80546001600160a01b0319166001600160a01b038416179055606460fe558015610a13575f805461ff0019169055604051600181527f7f26b83ff96e1f2b6a682f133852f6798a09c465da95921460cefb384740249890602001610d02565b6001600160a01b039182165f90815260346020908152604080832093909416825291909152205490565b33611419816117a1565b335f90815260336020526040902054610b1f9061186c565b611439611687565b6001600160a01b03811661149e5760405162461bcd60e51b815260206004820152602660248201527f4f776e61626c653a206e6577206f776e657220697320746865207a65726f206160448201526564647265737360d01b6064820152608401610824565b610af181611af7565b60fc81815481106114b6575f80fd5b5f918252602090912001546001600160a01b0316905081565b5f806114da83611ba3565b6001600160a01b0385165f908152600582016020526040902054909150670de0b6b3a76400009061150a85611c9a565b6115149190612a3d565b6001600160a01b0386165f908152603360205260409020546115369190612b26565b6115409190612b3d565b6001600160a01b0385165f9081526006830160205260409020546109f89190612b13565b6001600160a01b0383166115c65760405162461bcd60e51b8152602060048201526024808201527f45524332303a20617070726f76652066726f6d20746865207a65726f206164646044820152637265737360e01b6064820152608401610824565b6001600160a01b0382166116275760405162461bcd60e51b815260206004820152602260248201527f45524332303a20617070726f766520746f20746865207a65726f206164647265604482015261737360f01b6064820152608401610824565b6001600160a01b038381165f8181526034602090815260408083209487168084529482529182902085905590518481527f8c5be1e5ebec7d5bd14f71427d1e84f3dd0314c0f7b2291e5b200ac8c7c3b925910160405180910390a3505050565b6065546001600160a01b03163314610e4e5760405162461bcd60e51b815260206004820181905260248201527f4f776e61626c653a2063616c6c6572206973206e6f7420746865206f776e65726044820152606401610824565b60fc545f9015611734576001600160a01b0382165f90815260ff602052604090205460fc80549091908110611718576117186129e3565b5f918252602090912001546001600160a01b0383811691161490505b919050565b6040516001600160a01b03831660248201526044810182905261179c90849063a9059cbb60e01b906064015b60408051601f198184030181529190526020810180516001600160e01b03166001600160e01b031990931692909217909152611d22565b505050565b60fc545f5b8181101561179c575f60fc82815481106117c2576117c26129e3565b5f9182526020822001546001600160a01b031691506117e082611ba3565b90506117eb82611c9a565b600482015580546117fb90611df3565b60028201556001600160a01b0385161561184a5761181985836114cf565b6001600160a01b0386165f908152600683016020908152604080832093909355600484015460058501909152919020555b50506001016117a6565b5f33611861858285611e05565b61122a858585611e77565b6118763382612020565b60fb5461188d906001600160a01b03163383611739565b60405181815233907f7084f5476618d8e60b11ef0d7d3f06914655adb8793e28ff7f018d4c76d505d59060200160405180910390a250565b610af1611687565b7f4910fdfa16fed3260ed0e7147f7cc6da11a60208b5b9406d12a635614ffd91435460ff16156119005761179c83612152565b826001600160a01b03166352d1902d6040518163ffffffff1660e01b8152600401602060405180830381865afa92505050801561195a575060408051601f3d908101601f1916820190925261195791810190612a64565b60015b6119bd5760405162461bcd60e51b815260206004820152602e60248201527f45524331393637557067726164653a206e657720696d706c656d656e7461746960448201526d6f6e206973206e6f74205555505360901b6064820152608401610824565b5f80516020612ce48339815191528114611a2b5760405162461bcd60e51b815260206004820152602960248201527f45524331393637557067726164653a20756e737570706f727465642070726f786044820152681a58589b195555525160ba1b6064820152608401610824565b5061179c8383836121ed565b60fc545f5b81811015610a13575f60fc8281548110611a5857611a586129e3565b5f9182526020822001546001600160a01b03169150611a7733836114cf565b90508015611aed575f611a8983611ba3565b335f818152600692909201602052604090912091909155611aac90839083612211565b6040518181526001600160a01b0383169033907f540798df468d7b23d11f156fdb954cb19ad414d150722a7b6d55ba369dea792e9060200160405180910390a35b5050600101611a3c565b606580546001600160a01b038381166001600160a01b0319831681179093556040519116919082907f8be0079c531659141344cd1fd0a4f28419497f9722a3daafe3b4186f6b6457e0905f90a35050565b611b5282826122a1565b60fb54611b6a906001600160a01b0316833084611bcb565b60405181815233907f9e71bc8eea02a63969f509818f2dafb9254532904319f9dbda79b67bd34a5f3d9060200160405180910390a25050565b6001600160a01b03165f90815261010060209081526040808320548352610101909152902090565b6040516001600160a01b0380851660248301528316604482015260648101829052611c039085906323b872dd60e01b90608401611765565b50505050565b5f336107e3818585611e77565b5f54610100900460ff16611c3c5760405162461bcd60e51b815260040161082490612b5c565b610a138282612360565b5f54610100900460ff16611c6c5760405162461bcd60e51b815260040161082490612b5c565b610e4e61239f565b5f54610100900460ff16610e4e5760405162461bcd60e51b815260040161082490612b5c565b5f80611ca583611ba3565b9050611cb060355490565b5f03611cc25780600401549150611d1c565b603554600382015460028301548354611cda90611df3565b611ce49190612a3d565b611cee9190612b26565b611d0090670de0b6b3a7640000612b26565b611d0a9190612b3d565b8160040154611d199190612b13565b91505b50919050565b5f611d76826040518060400160405280602081526020017f5361666545524332303a206c6f772d6c6576656c2063616c6c206661696c6564815250856001600160a01b03166123ce9092919063ffffffff16565b80519091501561179c5780806020019051810190611d949190612ba7565b61179c5760405162461bcd60e51b815260206004820152602a60248201527f5361666545524332303a204552433230206f7065726174696f6e20646964206e6044820152691bdd081cdd58d8d9595960b21b6064820152608401610824565b5f814211611e0157426107e9565b5090565b5f611e1084846113e5565b90505f198114611c035781811015611e6a5760405162461bcd60e51b815260206004820152601d60248201527f45524332303a20696e73756666696369656e7420616c6c6f77616e63650000006044820152606401610824565b611c038484848403611564565b6001600160a01b038316611edb5760405162461bcd60e51b815260206004820152602560248201527f45524332303a207472616e736665722066726f6d20746865207a65726f206164604482015264647265737360d81b6064820152608401610824565b6001600160a01b038216611f3d5760405162461bcd60e51b815260206004820152602360248201527f45524332303a207472616e7366657220746f20746865207a65726f206164647260448201526265737360e81b6064820152608401610824565b6001600160a01b0383165f9081526033602052604090205481811015611fb45760405162461bcd60e51b815260206004820152602660248201527f45524332303a207472616e7366657220616d6f756e7420657863656564732062604482015265616c616e636560d01b6064820152608401610824565b6001600160a01b038085165f8181526033602052604080822086860390559286168082529083902080548601905591517fddf252ad1be2c89b69c2b068fc378daa952ba7f163c4a11628f55a4df523b3ef906120139086815260200190565b60405180910390a3611c03565b6001600160a01b0382166120805760405162461bcd60e51b815260206004820152602160248201527f45524332303a206275726e2066726f6d20746865207a65726f206164647265736044820152607360f81b6064820152608401610824565b6001600160a01b0382165f90815260336020526040902054818110156120f35760405162461bcd60e51b815260206004820152602260248201527f45524332303a206275726e20616d6f756e7420657863656564732062616c616e604482015261636560f01b6064820152608401610824565b6001600160a01b0383165f8181526033602090815260408083208686039055603580548790039055518581529192917fddf252ad1be2c89b69c2b068fc378daa952ba7f163c4a11628f55a4df523b3ef910160405180910390a3505050565b6001600160a01b0381163b6121bf5760405162461bcd60e51b815260206004820152602d60248201527f455243313936373a206e657720696d706c656d656e746174696f6e206973206e60448201526c1bdd08184818dbdb9d1c9858dd609a1b6064820152608401610824565b5f80516020612ce483398151915280546001600160a01b0319166001600160a01b0392909216919091179055565b6121f6836123dc565b5f825111806122025750805b1561179c57611c03838361241b565b6040516370a0823160e01b81523060048201525f906001600160a01b038516906370a0823190602401602060405180830381865afa158015612255573d5f803e3d5ffd5b505050506040513d601f19601f820116820180604052508101906122799190612a64565b905080821115612287578091505b8115611c0357611c036001600160a01b0385168484611739565b6001600160a01b0382166122f75760405162461bcd60e51b815260206004820152601f60248201527f45524332303a206d696e7420746f20746865207a65726f2061646472657373006044820152606401610824565b8060355f8282546123089190612b13565b90915550506001600160a01b0382165f818152603360209081526040808320805486019055518481527fddf252ad1be2c89b69c2b068fc378daa952ba7f163c4a11628f55a4df523b3ef910160405180910390a35050565b5f54610100900460ff166123865760405162461bcd60e51b815260040161082490612b5c565b60366123928382612c0d565b50603761179c8282612c0d565b5f54610100900460ff166123c55760405162461bcd60e51b815260040161082490612b5c565b610e4e33611af7565b60606109f884845f85612440565b6123e581612152565b6040516001600160a01b038216907fbc7cd75a20ee27fd9adebab32041f755214dbc6bffa90cc0225b39da2e5c2d3b905f90a250565b60606109d38383604051806060016040528060278152602001612d046027913961256d565b6060824710156124a15760405162461bcd60e51b815260206004820152602660248201527f416464726573733a20696e73756666696369656e742062616c616e636520666f6044820152651c8818d85b1b60d21b6064820152608401610824565b6001600160a01b0385163b6124f85760405162461bcd60e51b815260206004820152601d60248201527f416464726573733a2063616c6c20746f206e6f6e2d636f6e74726163740000006044820152606401610824565b5f80866001600160a01b031685876040516125139190612ccd565b5f6040518083038185875af1925050503d805f811461254d576040519150601f19603f3d011682016040523d82523d5f602084013e612552565b606091505b50915091506125628282866125e1565b979650505050505050565b60605f80856001600160a01b0316856040516125899190612ccd565b5f60405180830381855af49150503d805f81146125c1576040519150601f19603f3d011682016040523d82523d5f602084013e6125c6565b606091505b50915091506125d78683838761261a565b9695505050505050565b606083156125f05750816109d3565b8251156126005782518084602001fd5b8160405162461bcd60e51b81526004016108249190612768565b606083156126885782515f03612681576001600160a01b0385163b6126815760405162461bcd60e51b815260206004820152601d60248201527f416464726573733a2063616c6c20746f206e6f6e2d636f6e74726163740000006044820152606401610824565b50816109f8565b6109f8838381511561269d5781518083602001fd5b8060405162461bcd60e51b81526004016108249190612768565b80356001600160a01b0381168114611734575f80fd5b5f602082840312156126dd575f80fd5b6109d3826126b7565b604080825283519082018190525f906020906060840190828701845b828110156127275781516001600160a01b031684529284019290840190600101612702565b505050838103828501528451808252858301918301905f5b8181101561275b5783518352928401929184019160010161273f565b5090979650505050505050565b602081525f82518060208401528060208501604085015e5f604082850101526040601f19601f83011684010191505092915050565b5f80604083850312156127ae575f80fd5b6127b7836126b7565b946020939093013593505050565b5f80604083850312156127d6575f80fd5b6127df836126b7565b91506127ed602084016126b7565b90509250929050565b5f805f60608486031215612808575f80fd5b612811846126b7565b925061281f602085016126b7565b9150604084013590509250925092565b5f6020828403121561283f575f80fd5b5035919050565b634e487b7160e01b5f52604160045260245ffd5b5f806040838503121561286b575f80fd5b612874836126b7565b9150602083013567ffffffffffffffff80821115612890575f80fd5b818501915085601f8301126128a3575f80fd5b8135818111156128b5576128b5612846565b604051601f8201601f19908116603f011681019083821181831017156128dd576128dd612846565b816040528281528860208487010111156128f5575f80fd5b826020860160208301375f6020848301015280955050505050509250929050565b8015158114610af1575f80fd5b5f8060408385031215612934575f80fd5b61293d836126b7565b9150602083013561294d81612916565b809150509250929050565b5f805f805f8060c0878903121561296d575f80fd5b612976876126b7565b95506020870135945060408701359350606087013560ff81168114612999575f80fd5b9598949750929560808101359460a0909101359350915050565b5f805f606084860312156129c5575f80fd5b6129ce846126b7565b95602085013595506040909401359392505050565b634e487b7160e01b5f52603260045260245ffd5b600181811c90821680612a0b57607f821691505b602082108103611d1c57634e487b7160e01b5f52602260045260245ffd5b634e487b7160e01b5f52601160045260245ffd5b818103818111156107e9576107e9612a29565b634e487b7160e01b5f52603160045260245ffd5b5f60208284031215612a74575f80fd5b5051919050565b6020808252602c908201527f46756e6374696f6e206d7573742062652063616c6c6564207468726f7567682060408201526b19195b1959d85d1958d85b1b60a21b606082015260800190565b6020808252602c908201527f46756e6374696f6e206d7573742062652063616c6c6564207468726f7567682060408201526b6163746976652070726f787960a01b606082015260800190565b808201808211156107e9576107e9612a29565b80820281158282048414176107e9576107e9612a29565b5f82612b5757634e487b7160e01b5f52601260045260245ffd5b500490565b6020808252602b908201527f496e697469616c697a61626c653a20636f6e7472616374206973206e6f74206960408201526a6e697469616c697a696e6760a81b606082015260800190565b5f60208284031215612bb7575f80fd5b81516109d381612916565b601f82111561179c57805f5260205f20601f840160051c81016020851015612be75750805b601f840160051c820191505b81811015612c06575f8155600101612bf3565b5050505050565b815167ffffffffffffffff811115612c2757612c27612846565b612c3b81612c3584546129f7565b84612bc2565b602080601f831160018114612c6e575f8415612c575750858301515b5f19600386901b1c1916600185901b178555612cc5565b5f85815260208120601f198616915b82811015612c9c57888601518255948401946001909101908401612c7d565b5085821015612cb957878501515f19600388901b60f8161c191681555b505060018460011b0185555b505050505050565b5f82518060208501845e5f92019182525091905056fe360894a13ba1a3210667c828492db98dca3e2076cc3735a920a3ca505d382bbc416464726573733a206c6f772d6c6576656c2064656c65676174652063616c6c206661696c6564a26469706673582212208b5a34ba218e8bafdece71b35e2a4054d928286502b80840901eb263f8af3d8164736f6c63430008190033",
    "sourcePath": "c:/Users/Utente/Source/repos/baluni-contracts/contracts/core/BaluniV1RewardPool.sol",
    "compiler": {
        "name": "solc",
        "version": "0.8.25+commit.b61c2a91"
    },
    "functionHashes": {
        "allowance(address,address)": "dd62ed3e",
        "approve(address,uint256)": "095ea7b3",
        "balanceOf(address)": "70a08231",
        "decimals()": "313ce567",
        "decreaseAllowance(address,uint256)": "a457c2d7",
        "earned(address)": "008cc262",
        "earned(address,address)": "211dc32d",
        "exit()": "e9fad8ee",
        "getReward()": "3d18b912",
        "increaseAllowance(address,uint256)": "39509351",
        "initialize(address)": "c4d66de8",
        "name()": "06fdde03",
        "notifyRewardAmount(address,uint256,uint256)": "a3cd8ac4",
        "owner()": "8da5cb5b",
        "proxiableUUID()": "52d1902d",
        "removeReward(address,address)": "165d21c9",
        "renounceOwnership()": "715018a6",
        "rescueTokens(address,address)": "5431c94e",
        "rewardInfo(uint256)": "81a00f83",
        "rewards(uint256)": "f301af42",
        "setWhitelist(address,bool)": "53d6fd59",
        "stake(uint256)": "a694fc3a",
        "stakeWithPermit(address,uint256,uint256,uint8,bytes32,bytes32)": "73d6a889",
        "stakedToken()": "cc7a262e",
        "symbol()": "95d89b41",
        "totalSupply()": "18160ddd",
        "transfer(address,uint256)": "a9059cbb",
        "transferFrom(address,address,uint256)": "23b872dd",
        "transferOwnership(address)": "f2fde38b",
        "upgradeTo(address)": "3659cfe6",
        "upgradeToAndCall(address,bytes)": "4f1ef286",
        "whitelisted(address)": "d936547e",
        "withdraw(uint256)": "2e1a7d4d"
    },
    "gasEstimates": {
        "creation": {
            "codeDepositCost": "2323200",
            "executionCost": "infinite",
            "totalCost": "infinite"
        },
        "external": {
            "allowance(address,address)": "infinite",
            "approve(address,uint256)": "24692",
            "balanceOf(address)": "2580",
            "decimals()": "222",
            "decreaseAllowance(address,uint256)": "27056",
            "earned(address)": "infinite",
            "earned(address,address)": "infinite",
            "exit()": "infinite",
            "getReward()": "infinite",
            "increaseAllowance(address,uint256)": "infinite",
            "initialize(address)": "infinite",
            "name()": "infinite",
            "notifyRewardAmount(address,uint256,uint256)": "infinite",
            "owner()": "2364",
            "proxiableUUID()": "infinite",
            "removeReward(address,address)": "infinite",
            "renounceOwnership()": "infinite",
            "rescueTokens(address,address)": "infinite",
            "rewardInfo(uint256)": "15573",
            "rewards(uint256)": "4743",
            "setWhitelist(address,bool)": "28309",
            "stake(uint256)": "infinite",
            "stakeWithPermit(address,uint256,uint256,uint8,bytes32,bytes32)": "infinite",
            "stakedToken()": "2447",
            "symbol()": "infinite",
            "totalSupply()": "2326",
            "transfer(address,uint256)": "infinite",
            "transferFrom(address,address,uint256)": "infinite",
            "transferOwnership(address)": "28443",
            "upgradeTo(address)": "infinite",
            "upgradeToAndCall(address,bytes)": "infinite",
            "whitelisted(address)": "2572",
            "withdraw(uint256)": "infinite"
        },
        "internal": {
            "_authorizeUpgrade(address)": "infinite",
            "_earned(address,address)": "infinite",
            "_getReward()": "infinite",
            "_getRewardInfo(address)": "2276",
            "_lastTimeRewardApplicable(uint256)": "56",
            "_rewardExists(address)": "8669",
            "_rewardPerToken(address)": "infinite",
            "_rewardTransfer(address,address,uint256)": "infinite",
            "_stake(address,uint256)": "infinite",
            "_update(address)": "infinite",
            "_withdraw(uint256)": "infinite"
        }
    }
}