{
    "contractName": "BaluniV1Agent",
    "abi": [
        {
            "inputs": [
                {
                    "internalType": "address",
                    "name": "target",
                    "type": "address"
                }
            ],
            "name": "AddressEmptyCode",
            "type": "error"
        },
        {
            "inputs": [
                {
                    "internalType": "address",
                    "name": "account",
                    "type": "address"
                }
            ],
            "name": "AddressInsufficientBalance",
            "type": "error"
        },
        {
            "inputs": [],
            "name": "FailedInnerCall",
            "type": "error"
        },
        {
            "inputs": [
                {
                    "internalType": "address",
                    "name": "token",
                    "type": "address"
                }
            ],
            "name": "SafeERC20FailedOperation",
            "type": "error"
        },
        {
            "inputs": [
                {
                    "components": [
                        {
                            "internalType": "address",
                            "name": "to",
                            "type": "address"
                        },
                        {
                            "internalType": "uint256",
                            "name": "value",
                            "type": "uint256"
                        },
                        {
                            "internalType": "bytes",
                            "name": "data",
                            "type": "bytes"
                        }
                    ],
                    "internalType": "struct BaluniV1Agent.Call[]",
                    "name": "calls",
                    "type": "tuple[]"
                },
                {
                    "internalType": "address[]",
                    "name": "tokensReturn",
                    "type": "address[]"
                }
            ],
            "name": "execute",
            "outputs": [],
            "stateMutability": "nonpayable",
            "type": "function"
        },
        {
            "inputs": [],
            "name": "getFactory",
            "outputs": [
                {
                    "internalType": "address",
                    "name": "",
                    "type": "address"
                }
            ],
            "stateMutability": "view",
            "type": "function"
        },
        {
            "inputs": [],
            "name": "getRouter",
            "outputs": [
                {
                    "internalType": "address",
                    "name": "",
                    "type": "address"
                }
            ],
            "stateMutability": "view",
            "type": "function"
        },
        {
            "inputs": [
                {
                    "internalType": "address",
                    "name": "_owner",
                    "type": "address"
                },
                {
                    "internalType": "address",
                    "name": "_router",
                    "type": "address"
                }
            ],
            "name": "initialize",
            "outputs": [],
            "stateMutability": "nonpayable",
            "type": "function"
        },
        {
            "inputs": [],
            "name": "owner",
            "outputs": [
                {
                    "internalType": "address",
                    "name": "",
                    "type": "address"
                }
            ],
            "stateMutability": "view",
            "type": "function"
        }
    ],
    "bytecode": "6080604052348015600e575f80fd5b50610b4c8061001c5f395ff3fe608060405234801561000f575f80fd5b5060043610610055575f3560e01c8063485cc9551461005957806388cc58e4146100a65780638da5cb5b146100cf578063b0f479a1146100e1578063eedc3c50146100f2575b5f80fd5b6100a46100673660046107d5565b5f80546001600160a01b039384166001600160a01b0319918216179091556001805492909316918116919091179091556002805490911633179055565b005b6002546001600160a01b03165b6040516001600160a01b03909116815260200160405180910390f35b5f546100b3906001600160a01b031681565b6001546001600160a01b03166100b3565b6100a461010036600461090a565b6001546001600160a01b0316331461015f5760405162461bcd60e51b815260206004820152601b60248201527f43616c6c61626c65206f6e6c792062792074686520726f75746572000000000060448201526064015b60405180910390fd5b5f5b8251811015610267575f83828151811061017d5761017d610a74565b60200260200101515f01516001600160a01b03168483815181106101a3576101a3610a74565b6020026020010151602001518584815181106101c1576101c1610a74565b6020026020010151604001516040516101da9190610a88565b5f6040518083038185875af1925050503d805f8114610214576040519150601f19603f3d011682016040523d82523d5f602084013e610219565b606091505b505090508061025e5760405162461bcd60e51b815260206004820152601160248201527010985d18da0818d85b1b0819985a5b1959607a1b6044820152606401610156565b50600101610161565b506102718161027e565b61027a8161042f565b5050565b5f8060015f9054906101000a90046001600160a01b03166001600160a01b031663185fcffe6040518163ffffffff1660e01b8152600401602060405180830381865afa1580156102d0573d5f803e3d5ffd5b505050506040513d601f19601f820116820180604052508101906102f49190610a9e565b90505f5b8351811015610429575f84828151811061031457610314610a74565b6020026020010151905073eeeeeeeeeeeeeeeeeeeeeeeeeeeeeeeeeeeeeeee6001600160a01b0316816001600160a01b031603610380576127106103588447610ab5565b6103629190610ad8565b60015490945061037b906001600160a01b031685610547565b610420565b6040516370a0823160e01b81523060048201525f906001600160a01b038316906370a0823190602401602060405180830381865afa1580156103c4573d5f803e3d5ffd5b505050506040513d601f19601f820116820180604052508101906103e89190610a9e565b90506127106103f78583610ab5565b6104019190610ad8565b60015490955061041e906001600160a01b038481169116876105da565b505b506001016102f8565b50505050565b8051801561027a575f5b81811015610542575f83828151811061045457610454610a74565b6020026020010151905073eeeeeeeeeeeeeeeeeeeeeeeeeeeeeeeeeeeeeeee6001600160a01b0316816001600160a01b0316036104ab5747156104a6575f546104a6906001600160a01b031647610547565b610539565b6040516370a0823160e01b81523060048201525f906001600160a01b038316906370a0823190602401602060405180830381865afa1580156104ef573d5f803e3d5ffd5b505050506040513d601f19601f820116820180604052508101906105139190610a9e565b9050600a811115610537575f54610537906001600160a01b038481169116836105da565b505b50600101610439565b505050565b8047101561056a5760405163cd78605960e01b8152306004820152602401610156565b5f826001600160a01b0316826040515f6040518083038185875af1925050503d805f81146105b3576040519150601f19603f3d011682016040523d82523d5f602084013e6105b8565b606091505b505090508061054257604051630a12f52160e11b815260040160405180910390fd5b604080516001600160a01b03848116602483015260448083018590528351808403909101815260649092019092526020810180516001600160e01b031663a9059cbb60e01b179052610542918591905f9061063790841683610684565b905080515f1415801561065b5750808060200190518101906106599190610af7565b155b1561054257604051635274afe760e01b81526001600160a01b0384166004820152602401610156565b606061069183835f61069a565b90505b92915050565b6060814710156106bf5760405163cd78605960e01b8152306004820152602401610156565b5f80856001600160a01b031684866040516106da9190610a88565b5f6040518083038185875af1925050503d805f8114610714576040519150601f19603f3d011682016040523d82523d5f602084013e610719565b606091505b5091509150610729868383610735565b925050505b9392505050565b60608261074a5761074582610791565b61072e565b815115801561076157506001600160a01b0384163b155b1561078a57604051639996b31560e01b81526001600160a01b0385166004820152602401610156565b508061072e565b8051156107a15780518082602001fd5b604051630a12f52160e11b815260040160405180910390fd5b80356001600160a01b03811681146107d0575f80fd5b919050565b5f80604083850312156107e6575f80fd5b6107ef836107ba565b91506107fd602084016107ba565b90509250929050565b634e487b7160e01b5f52604160045260245ffd5b6040516060810167ffffffffffffffff8111828210171561083d5761083d610806565b60405290565b604051601f8201601f1916810167ffffffffffffffff8111828210171561086c5761086c610806565b604052919050565b5f67ffffffffffffffff82111561088d5761088d610806565b5060051b60200190565b5f82601f8301126108a6575f80fd5b813560206108bb6108b683610874565b610843565b8083825260208201915060208460051b8701019350868411156108dc575f80fd5b602086015b848110156108ff576108f2816107ba565b83529183019183016108e1565b509695505050505050565b5f806040838503121561091b575f80fd5b823567ffffffffffffffff80821115610932575f80fd5b818501915085601f830112610945575f80fd5b813560206109556108b683610874565b82815260059290921b84018101918181019089841115610973575f80fd5b8286015b84811015610a475780358681111561098d575f80fd5b8701601f196060828e03820112156109a3575f80fd5b6109ab61081a565b6109b68784016107ba565b81526040830135878201526060830135898111156109d2575f80fd5b8084019350508d603f8401126109e6575f80fd5b86830135898111156109fa576109fa610806565b610a0a8884601f84011601610843565b92508083528e888983870101011115610a21575f80fd5b8060408501898501375f9083018801526040810191909152845250918301918301610977565b5096505086013592505080821115610a5d575f80fd5b50610a6a85828601610897565b9150509250929050565b634e487b7160e01b5f52603260045260245ffd5b5f82518060208501845e5f920191825250919050565b5f60208284031215610aae575f80fd5b5051919050565b808202811582820484141761069457634e487b7160e01b5f52601160045260245ffd5b5f82610af257634e487b7160e01b5f52601260045260245ffd5b500490565b5f60208284031215610b07575f80fd5b8151801515811461072e575f80fdfea2646970667358221220b951949aed69d9023358fe3e2f6b988e2c26d70c0cdd7037417767060b560d4e64736f6c63430008190033",
    "sourcePath": "c:/Users/Utente/Source/repos/baluni-contracts/contracts/core/BaluniV1Agent.sol",
    "compiler": {
        "name": "solc",
        "version": "0.8.25+commit.b61c2a91"
    },
    "functionHashes": {
        "execute((address,uint256,bytes)[],address[])": "eedc3c50",
        "getFactory()": "88cc58e4",
        "getRouter()": "b0f479a1",
        "initialize(address,address)": "485cc955",
        "owner()": "8da5cb5b"
    },
    "gasEstimates": {
        "creation": {
            "codeDepositCost": "578400",
            "executionCost": "611",
            "totalCost": "579011"
        },
        "external": {
            "execute((address,uint256,bytes)[],address[])": "infinite",
            "getFactory()": "2307",
            "getRouter()": "2362",
            "initialize(address,address)": "infinite",
            "owner()": "2345"
        },
        "internal": {
            "_chargeFees(address[] memory)": "infinite",
            "_returnTokens(address[] memory)": "infinite"
        }
    }
}