{
    "contractName": "BaluniV1Router",
    "abi": [
        {
            "anonymous": false,
            "inputs": [
                {
                    "indexed": false,
                    "internalType": "address",
                    "name": "previousAdmin",
                    "type": "address"
                },
                {
                    "indexed": false,
                    "internalType": "address",
                    "name": "newAdmin",
                    "type": "address"
                }
            ],
            "name": "AdminChanged",
            "type": "event"
        },
        {
            "anonymous": false,
            "inputs": [
                {
                    "indexed": true,
                    "internalType": "address",
                    "name": "owner",
                    "type": "address"
                },
                {
                    "indexed": true,
                    "internalType": "address",
                    "name": "spender",
                    "type": "address"
                },
                {
                    "indexed": false,
                    "internalType": "uint256",
                    "name": "value",
                    "type": "uint256"
                }
            ],
            "name": "Approval",
            "type": "event"
        },
        {
            "anonymous": false,
            "inputs": [
                {
                    "indexed": true,
                    "internalType": "address",
                    "name": "beacon",
                    "type": "address"
                }
            ],
            "name": "BeaconUpgraded",
            "type": "event"
        },
        {
            "anonymous": false,
            "inputs": [
                {
                    "indexed": false,
                    "internalType": "address",
                    "name": "user",
                    "type": "address"
                },
                {
                    "indexed": false,
                    "internalType": "uint256",
                    "name": "value",
                    "type": "uint256"
                }
            ],
            "name": "Burn",
            "type": "event"
        },
        {
            "anonymous": false,
            "inputs": [
                {
                    "indexed": false,
                    "internalType": "uint256",
                    "name": "newFee",
                    "type": "uint256"
                }
            ],
            "name": "ChangeBpsFee",
            "type": "event"
        },
        {
            "anonymous": false,
            "inputs": [
                {
                    "indexed": false,
                    "internalType": "address",
                    "name": "pool",
                    "type": "address"
                }
            ],
            "name": "ChangeRewardPool",
            "type": "event"
        },
        {
            "anonymous": false,
            "inputs": [
                {
                    "indexed": false,
                    "internalType": "address",
                    "name": "user",
                    "type": "address"
                },
                {
                    "components": [
                        {
                            "internalType": "address",
                            "name": "to",
                            "type": "address"
                        },
                        {
                            "internalType": "uint256",
                            "name": "value",
                            "type": "uint256"
                        },
                        {
                            "internalType": "bytes",
                            "name": "data",
                            "type": "bytes"
                        }
                    ],
                    "indexed": false,
                    "internalType": "struct IBaluniV1Agent.Call[]",
                    "name": "calls",
                    "type": "tuple[]"
                },
                {
                    "indexed": false,
                    "internalType": "address[]",
                    "name": "tokensReturn",
                    "type": "address[]"
                }
            ],
            "name": "Execute",
            "type": "event"
        },
        {
            "anonymous": false,
            "inputs": [
                {
                    "indexed": false,
                    "internalType": "uint8",
                    "name": "version",
                    "type": "uint8"
                }
            ],
            "name": "Initialized",
            "type": "event"
        },
        {
            "anonymous": false,
            "inputs": [
                {
                    "indexed": false,
                    "internalType": "address",
                    "name": "user",
                    "type": "address"
                },
                {
                    "indexed": false,
                    "internalType": "uint256",
                    "name": "value",
                    "type": "uint256"
                }
            ],
            "name": "Mint",
            "type": "event"
        },
        {
            "anonymous": false,
            "inputs": [
                {
                    "indexed": true,
                    "internalType": "address",
                    "name": "previousOwner",
                    "type": "address"
                },
                {
                    "indexed": true,
                    "internalType": "address",
                    "name": "newOwner",
                    "type": "address"
                }
            ],
            "name": "OwnershipTransferred",
            "type": "event"
        },
        {
            "anonymous": false,
            "inputs": [
                {
                    "indexed": true,
                    "internalType": "address",
                    "name": "from",
                    "type": "address"
                },
                {
                    "indexed": true,
                    "internalType": "address",
                    "name": "to",
                    "type": "address"
                },
                {
                    "indexed": false,
                    "internalType": "uint256",
                    "name": "value",
                    "type": "uint256"
                }
            ],
            "name": "Transfer",
            "type": "event"
        },
        {
            "anonymous": false,
            "inputs": [
                {
                    "indexed": true,
                    "internalType": "address",
                    "name": "implementation",
                    "type": "address"
                }
            ],
            "name": "Upgraded",
            "type": "event"
        },
        {
            "inputs": [],
            "name": "_BPS_BASE",
            "outputs": [
                {
                    "internalType": "uint256",
                    "name": "",
                    "type": "uint256"
                }
            ],
            "stateMutability": "view",
            "type": "function"
        },
        {
            "inputs": [],
            "name": "_BPS_FEE",
            "outputs": [
                {
                    "internalType": "uint256",
                    "name": "",
                    "type": "uint256"
                }
            ],
            "stateMutability": "view",
            "type": "function"
        },
        {
            "inputs": [],
            "name": "_MAX_BPS_FEE",
            "outputs": [
                {
                    "internalType": "uint256",
                    "name": "",
                    "type": "uint256"
                }
            ],
            "stateMutability": "view",
            "type": "function"
        },
        {
            "inputs": [
                {
                    "internalType": "address",
                    "name": "owner",
                    "type": "address"
                },
                {
                    "internalType": "address",
                    "name": "spender",
                    "type": "address"
                }
            ],
            "name": "allowance",
            "outputs": [
                {
                    "internalType": "uint256",
                    "name": "",
                    "type": "uint256"
                }
            ],
            "stateMutability": "view",
            "type": "function"
        },
        {
            "inputs": [
                {
                    "internalType": "address",
                    "name": "spender",
                    "type": "address"
                },
                {
                    "internalType": "uint256",
                    "name": "amount",
                    "type": "uint256"
                }
            ],
            "name": "approve",
            "outputs": [
                {
                    "internalType": "bool",
                    "name": "",
                    "type": "bool"
                }
            ],
            "stateMutability": "nonpayable",
            "type": "function"
        },
        {
            "inputs": [
                {
                    "internalType": "address",
                    "name": "account",
                    "type": "address"
                }
            ],
            "name": "balanceOf",
            "outputs": [
                {
                    "internalType": "uint256",
                    "name": "",
                    "type": "uint256"
                }
            ],
            "stateMutability": "view",
            "type": "function"
        },
        {
            "inputs": [
                {
                    "internalType": "uint256",
                    "name": "burnAmount",
                    "type": "uint256"
                }
            ],
            "name": "burnERC20",
            "outputs": [],
            "stateMutability": "nonpayable",
            "type": "function"
        },
        {
            "inputs": [
                {
                    "internalType": "uint256",
                    "name": "burnAmount",
                    "type": "uint256"
                }
            ],
            "name": "burnUSDC",
            "outputs": [],
            "stateMutability": "nonpayable",
            "type": "function"
        },
        {
            "inputs": [
                {
                    "internalType": "uint256",
                    "name": "totalBaluni",
                    "type": "uint256"
                },
                {
                    "internalType": "uint256",
                    "name": "totalERC20Balance",
                    "type": "uint256"
                },
                {
                    "internalType": "uint256",
                    "name": "baluniAmount",
                    "type": "uint256"
                },
                {
                    "internalType": "uint256",
                    "name": "tokenDecimals",
                    "type": "uint256"
                }
            ],
            "name": "calculateTokenShare",
            "outputs": [
                {
                    "internalType": "uint256",
                    "name": "",
                    "type": "uint256"
                }
            ],
            "stateMutability": "pure",
            "type": "function"
        },
        {
            "inputs": [
                {
                    "internalType": "address",
                    "name": "_agentFactory",
                    "type": "address"
                }
            ],
            "name": "changeAgentFactory",
            "outputs": [],
            "stateMutability": "nonpayable",
            "type": "function"
        },
        {
            "inputs": [
                {
                    "internalType": "uint256",
                    "name": "_newFee",
                    "type": "uint256"
                }
            ],
            "name": "changeBpsFee",
            "outputs": [],
            "stateMutability": "nonpayable",
            "type": "function"
        },
        {
            "inputs": [
                {
                    "internalType": "address",
                    "name": "_rewardPool",
                    "type": "address"
                }
            ],
            "name": "changeRewardPool",
            "outputs": [],
            "stateMutability": "nonpayable",
            "type": "function"
        },
        {
            "inputs": [],
            "name": "decimals",
            "outputs": [
                {
                    "internalType": "uint8",
                    "name": "",
                    "type": "uint8"
                }
            ],
            "stateMutability": "view",
            "type": "function"
        },
        {
            "inputs": [
                {
                    "internalType": "address",
                    "name": "spender",
                    "type": "address"
                },
                {
                    "internalType": "uint256",
                    "name": "subtractedValue",
                    "type": "uint256"
                }
            ],
            "name": "decreaseAllowance",
            "outputs": [
                {
                    "internalType": "bool",
                    "name": "",
                    "type": "bool"
                }
            ],
            "stateMutability": "nonpayable",
            "type": "function"
        },
        {
            "inputs": [
                {
                    "components": [
                        {
                            "internalType": "address",
                            "name": "to",
                            "type": "address"
                        },
                        {
                            "internalType": "uint256",
                            "name": "value",
                            "type": "uint256"
                        },
                        {
                            "internalType": "bytes",
                            "name": "data",
                            "type": "bytes"
                        }
                    ],
                    "internalType": "struct IBaluniV1Agent.Call[]",
                    "name": "calls",
                    "type": "tuple[]"
                },
                {
                    "internalType": "address[]",
                    "name": "tokensReturn",
                    "type": "address[]"
                }
            ],
            "name": "execute",
            "outputs": [],
            "stateMutability": "nonpayable",
            "type": "function"
        },
        {
            "inputs": [],
            "name": "getBpsFee",
            "outputs": [
                {
                    "internalType": "uint256",
                    "name": "",
                    "type": "uint256"
                }
            ],
            "stateMutability": "view",
            "type": "function"
        },
        {
            "inputs": [
                {
                    "internalType": "uint256",
                    "name": "amount",
                    "type": "uint256"
                }
            ],
            "name": "getUSDCShareValue",
            "outputs": [
                {
                    "internalType": "uint256",
                    "name": "",
                    "type": "uint256"
                }
            ],
            "stateMutability": "view",
            "type": "function"
        },
        {
            "inputs": [],
            "name": "getUnitPrice",
            "outputs": [
                {
                    "internalType": "uint256",
                    "name": "",
                    "type": "uint256"
                }
            ],
            "stateMutability": "view",
            "type": "function"
        },
        {
            "inputs": [],
            "name": "getVersion",
            "outputs": [
                {
                    "internalType": "string",
                    "name": "",
                    "type": "string"
                }
            ],
            "stateMutability": "pure",
            "type": "function"
        },
        {
            "inputs": [
                {
                    "internalType": "address",
                    "name": "spender",
                    "type": "address"
                },
                {
                    "internalType": "uint256",
                    "name": "addedValue",
                    "type": "uint256"
                }
            ],
            "name": "increaseAllowance",
            "outputs": [
                {
                    "internalType": "bool",
                    "name": "",
                    "type": "bool"
                }
            ],
            "stateMutability": "nonpayable",
            "type": "function"
        },
        {
            "inputs": [],
            "name": "initialize",
            "outputs": [],
            "stateMutability": "nonpayable",
            "type": "function"
        },
        {
            "inputs": [
                {
                    "internalType": "address",
                    "name": "token",
                    "type": "address"
                }
            ],
            "name": "liquidate",
            "outputs": [],
            "stateMutability": "nonpayable",
            "type": "function"
        },
        {
            "inputs": [],
            "name": "listAllTokens",
            "outputs": [
                {
                    "internalType": "address[]",
                    "name": "",
                    "type": "address[]"
                }
            ],
            "stateMutability": "view",
            "type": "function"
        },
        {
            "inputs": [
                {
                    "internalType": "uint256",
                    "name": "balAmountToMint",
                    "type": "uint256"
                },
                {
                    "internalType": "address",
                    "name": "asset",
                    "type": "address"
                }
            ],
            "name": "mintERC20",
            "outputs": [],
            "stateMutability": "nonpayable",
            "type": "function"
        },
        {
            "inputs": [
                {
                    "internalType": "uint256",
                    "name": "balAmountToMint",
                    "type": "uint256"
                }
            ],
            "name": "mintUSDC",
            "outputs": [],
            "stateMutability": "nonpayable",
            "type": "function"
        },
        {
            "inputs": [],
            "name": "name",
            "outputs": [
                {
                    "internalType": "string",
                    "name": "",
                    "type": "string"
                }
            ],
            "stateMutability": "view",
            "type": "function"
        },
        {
            "inputs": [],
            "name": "owner",
            "outputs": [
                {
                    "internalType": "address",
                    "name": "",
                    "type": "address"
                }
            ],
            "stateMutability": "view",
            "type": "function"
        },
        {
            "inputs": [],
            "name": "performArbitrage",
            "outputs": [],
            "stateMutability": "nonpayable",
            "type": "function"
        },
        {
            "inputs": [],
            "name": "proxiableUUID",
            "outputs": [
                {
                    "internalType": "bytes32",
                    "name": "",
                    "type": "bytes32"
                }
            ],
            "stateMutability": "view",
            "type": "function"
        },
        {
            "inputs": [],
            "name": "renounceOwnership",
            "outputs": [],
            "stateMutability": "nonpayable",
            "type": "function"
        },
        {
            "inputs": [],
            "name": "rewardPool",
            "outputs": [
                {
                    "internalType": "contract IBaluniV1RewardPool",
                    "name": "",
                    "type": "address"
                }
            ],
            "stateMutability": "view",
            "type": "function"
        },
        {
            "inputs": [],
            "name": "symbol",
            "outputs": [
                {
                    "internalType": "string",
                    "name": "",
                    "type": "string"
                }
            ],
            "stateMutability": "view",
            "type": "function"
        },
        {
            "inputs": [
                {
                    "internalType": "uint256",
                    "name": "amount",
                    "type": "uint256"
                },
                {
                    "internalType": "address",
                    "name": "token",
                    "type": "address"
                }
            ],
            "name": "tokenValuation",
            "outputs": [
                {
                    "internalType": "uint256",
                    "name": "",
                    "type": "uint256"
                }
            ],
            "stateMutability": "view",
            "type": "function"
        },
        {
            "inputs": [],
            "name": "totalSupply",
            "outputs": [
                {
                    "internalType": "uint256",
                    "name": "",
                    "type": "uint256"
                }
            ],
            "stateMutability": "view",
            "type": "function"
        },
        {
            "inputs": [],
            "name": "totalValuation",
            "outputs": [
                {
                    "internalType": "uint256",
                    "name": "",
                    "type": "uint256"
                }
            ],
            "stateMutability": "view",
            "type": "function"
        },
        {
            "inputs": [
                {
                    "internalType": "address",
                    "name": "to",
                    "type": "address"
                },
                {
                    "internalType": "uint256",
                    "name": "amount",
                    "type": "uint256"
                }
            ],
            "name": "transfer",
            "outputs": [
                {
                    "internalType": "bool",
                    "name": "",
                    "type": "bool"
                }
            ],
            "stateMutability": "nonpayable",
            "type": "function"
        },
        {
            "inputs": [
                {
                    "internalType": "address",
                    "name": "from",
                    "type": "address"
                },
                {
                    "internalType": "address",
                    "name": "to",
                    "type": "address"
                },
                {
                    "internalType": "uint256",
                    "name": "amount",
                    "type": "uint256"
                }
            ],
            "name": "transferFrom",
            "outputs": [
                {
                    "internalType": "bool",
                    "name": "",
                    "type": "bool"
                }
            ],
            "stateMutability": "nonpayable",
            "type": "function"
        },
        {
            "inputs": [
                {
                    "internalType": "address",
                    "name": "newOwner",
                    "type": "address"
                }
            ],
            "name": "transferOwnership",
            "outputs": [],
            "stateMutability": "nonpayable",
            "type": "function"
        },
        {
            "inputs": [
                {
                    "internalType": "address",
                    "name": "newImplementation",
                    "type": "address"
                }
            ],
            "name": "upgradeTo",
            "outputs": [],
            "stateMutability": "nonpayable",
            "type": "function"
        },
        {
            "inputs": [
                {
                    "internalType": "address",
                    "name": "newImplementation",
                    "type": "address"
                },
                {
                    "internalType": "bytes",
                    "name": "data",
                    "type": "bytes"
                }
            ],
            "name": "upgradeToAndCall",
            "outputs": [],
            "stateMutability": "payable",
            "type": "function"
        }
    ],
    "bytecode": "60a0604052306080523480156012575f80fd5b50608051614a786100475f395f81816110ad015281816110ed015281816111a8015281816111e801526118060152614a785ff3fe608060405260043610610233575f3560e01c806352d1902d116101295780638da5cb5b116100a8578063dd62ed3e1161006d578063dd62ed3e1461064b578063eedc3c501461066a578063f2fde38b14610689578063fe0a4dd1146106a8578063fe330a51146106c7575f80fd5b80638da5cb5b146105c657806395d89b41146105e3578063a457c2d7146105f7578063a9059cbb14610616578063b9f5e61714610635575f80fd5b8063715018a6116100ee578063715018a61461054a57806371ddcfb81461055e5780637d9fc7171461057d5780638129fc1c1461059c57806385377188146105b0575f80fd5b806352d1902d1461048a5780635bf72b581461049e5780635e7f8b76146104bd57806366666aa9146104de57806370a0823114610516575f80fd5b806323b872dd116101b557806334decfc91161017a57806334decfc9146104045780633659cfe61461041a57806339509351146104395780634f1ef2861461045857806350b1b34a1461046b575f80fd5b806323b872dd14610378578063295b9300146103975780632bdd955a146103ab5780632f865568146103ca578063313ce567146103e9575f80fd5b80630d8e6e2c116101fb5780630d8e6e2c146102ee57806312f399cf1461031c57806318160ddd14610330578063185fcffe146103445780631a168da214610359575f80fd5b8063012a33aa1461023757806306497cb91461025e57806306fdde031461027f578063095ea7b3146102a05780630a38abab146102cf575b5f80fd5b348015610242575f80fd5b5061024b6106e6565b6040519081526020015b60405180910390f35b348015610269575f80fd5b5061027d610278366004613eb9565b6106fd565b005b34801561028a575f80fd5b50610293610742565b6040516102559190613efe565b3480156102ab575f80fd5b506102bf6102ba366004613f24565b6107d2565b6040519015158152602001610255565b3480156102da575f80fd5b5061027d6102e9366004613f4e565b6107eb565b3480156102f9575f80fd5b5060408051808201909152600681526576312e302e3160d01b6020820152610293565b348015610327575f80fd5b5061027d610816565b34801561033b575f80fd5b5060355461024b565b34801561034f575f80fd5b5061012e5461024b565b348015610364575f80fd5b5061027d610373366004613eb9565b610c51565b348015610383575f80fd5b506102bf610392366004613f69565b610eb3565b3480156103a2575f80fd5b5061024b610ed6565b3480156103b6575f80fd5b5061024b6103c5366004613fa7565b610edf565b3480156103d5575f80fd5b5061027d6103e4366004613f4e565b610ef1565b3480156103f4575f80fd5b5060405160128152602001610255565b34801561040f575f80fd5b5061024b61012d5481565b348015610425575f80fd5b5061027d610434366004613f4e565b6110a3565b348015610444575f80fd5b506102bf610453366004613f24565b61117d565b61027d6104663660046140af565b61119e565b348015610476575f80fd5b5061027d610485366004613fa7565b61126d565b348015610495575f80fd5b5061024b6117fa565b3480156104a9575f80fd5b5061027d6104b8366004613f4e565b6118ab565b3480156104c8575f80fd5b506104d1611902565b604051610255919061413f565b3480156104e9575f80fd5b50610130546104fe906001600160a01b031681565b6040516001600160a01b039091168152602001610255565b348015610521575f80fd5b5061024b610530366004613f4e565b6001600160a01b03165f9081526033602052604090205490565b348015610555575f80fd5b5061027d61190f565b348015610569575f80fd5b5061024b610578366004613eb9565b611920565b348015610588575f80fd5b5061027d610597366004613eb9565b61192a565b3480156105a7575f80fd5b5061027d611c7b565b3480156105bb575f80fd5b5061024b61012f5481565b3480156105d1575f80fd5b506065546001600160a01b03166104fe565b3480156105ee575f80fd5b50610293611eb2565b348015610602575f80fd5b506102bf610611366004613f24565b611ec1565b348015610621575f80fd5b506102bf610630366004613f24565b611f3b565b348015610640575f80fd5b5061024b61012e5481565b348015610656575f80fd5b5061024b610665366004614151565b611f48565b348015610675575f80fd5b5061027d610684366004614215565b611f72565b348015610694575f80fd5b5061027d6106a3366004613f4e565b6123ba565b3480156106b3575f80fd5b5061027d6106c2366004613eb9565b612430565b3480156106d2575f80fd5b5061024b6106e1366004614324565b61276e565b5f6106f8670de0b6b3a7640000612786565b905090565b610705612802565b61012e8190556040518181527fbea1b31142ae4b1f4efad240349036d718b7950d246c127768097ccf602fc7e0906020015b60405180910390a150565b60606036805461075190614353565b80601f016020809104026020016040519081016040528092919081815260200182805461077d90614353565b80156107c85780601f1061079f576101008083540402835291602001916107c8565b820191905f5260205f20905b8154815290600101906020018083116107ab57829003601f168201915b5050505050905090565b5f336107df81858561285c565b60019150505b92915050565b6107f3612802565b61013880546001600160a01b0319166001600160a01b0392909216919091179055565b61081e612980565b5f6108276106e6565b610135546101335460405163802431fb60e01b81523060048201526001600160a01b0391821660248201525f6044820181905293945091169063802431fb90606401602060405180830381865afa158015610884573d5f803e3d5ffd5b505050506040513d601f19601f820116820180604052508101906108a89190614385565b90506108b98164e8d4a510006143b0565b305f9081526033602052604081205491925090610133546040516370a0823160e01b81523060048201529192505f916001600160a01b03909116906370a0823190602401602060405180830381865afa158015610918573d5f803e3d5ffd5b505050506040513d601f19601f8201168201806040525081019061093c9190614385565b905061094d8164e8d4a510006143b0565b905083831015610b12575f61096284836143c7565b61097490670de0b6b3a76400006143b0565b9050828111156109815750815b5f81116109a95760405162461bcd60e51b81526004016109a0906143e6565b60405180910390fd5b5f82116109c85760405162461bcd60e51b81526004016109a090614433565b61013354610136546109e7916001600160a01b039081169116846129d9565b610133545f90610a02906001600160a01b0316308581612b44565b905081811015610a245760405162461bcd60e51b81526004016109a09061447e565b61013654610a3d9030906001600160a01b0316836129d9565b61013354610a579030906001600160a01b03168382612b44565b50610133546040516370a0823160e01b815230600482015284916001600160a01b0316906370a0823190602401602060405180830381865afa158015610a9f573d5f803e3d5ffd5b505050506040513d601f19601f82011682018060405250810190610ac39190614385565b11610b0b5760405162461bcd60e51b8152602060048201526018602482015277105c989a5d1c9859d948191a59081b9bdd081c1c9bd99a5d60421b60448201526064016109a0565b5050610c41565b83831115610c41578180610b385760405162461bcd60e51b81526004016109a0906143e6565b5f8211610b575760405162461bcd60e51b81526004016109a090614433565b61013654610b709030906001600160a01b0316836129d9565b610133545f90610b8c9030906001600160a01b03168482612b44565b9050828111610bad5760405162461bcd60e51b81526004016109a09061447e565b6101335461013654610bcc916001600160a01b039081169116836129d9565b61013354610be5906001600160a01b0316308381612b44565b50305f908152603360205260409020548410610c3e5760405162461bcd60e51b8152602060048201526018602482015277105c989a5d1c9859d948191a59081b9bdd081c1c9bd99a5d60421b60448201526064016109a0565b50505b50505050610c4f6001609755565b565b610c59612980565b335f90815260336020526040902054811115610caa5760405162461bcd60e51b815260206004820152601060248201526f125b9cdd59999a58da595b9d0810905360821b60448201526064016109a0565b610cb381612c4b565b5f5b610cc0610131612d3a565b811015610e62575f610cd461013183612d43565b90505f610ce060355490565b6040516370a0823160e01b81523060048201529091505f906001600160a01b038416906370a0823190602401602060405180830381865afa158015610d27573d5f803e3d5ffd5b505050506040513d601f19601f82011682018060405250810190610d4b9190614385565b9050801580610d6257506001600160a01b03831630145b15610d6f57505050610e5a565b5f836001600160a01b031663313ce5676040518163ffffffff1660e01b8152600401602060405180830381865afa158015610dac573d5f803e3d5ffd5b505050506040513d601f19601f82011682018060405250810190610dd091906144ca565b60ff1690505f610de284848985612d4e565b60405163a9059cbb60e01b8152336004820152602481018290529091506001600160a01b0386169063a9059cbb906044016020604051808303815f875af1158015610e2f573d5f803e3d5ffd5b505050506040513d601f19601f82011682018060405250810190610e5391906144ea565b5050505050505b600101610cb5565b50610e6d3382612e6b565b60408051338152602081018390527fcc16f5dbb4873280815c1ee09dbd06736cffcc184412cf7a71a0fdb75d397ca5910160405180910390a1610eb06001609755565b50565b5f33610ec0858285612f9a565b610ecb858585613012565b506001949350505050565b5f6106f86131bb565b5f610eea8383613279565b9392505050565b610ef9612980565b6040516370a0823160e01b81523060048201525f906001600160a01b038316906370a0823190602401602060405180830381865afa158015610f3d573d5f803e3d5ffd5b505050506040513d601f19601f82011682018060405250810190610f619190614385565b6101375461013354604051630b4c774160e11b81529293505f926001600160a01b0392831692631698ee8292610fa392889290911690610bb890600401614509565b602060405180830381865afa158015610fbe573d5f803e3d5ffd5b505050506040513d601f19601f82011682018060405250810190610fe29190614531565b61013654909150610ffe9084906001600160a01b0316846129d9565b6001600160a01b0381161561105057610133545f906110299085906001600160a01b03168530612b44565b90505f811161104a5760405162461bcd60e51b81526004016109a09061454c565b50611097565b61013454610133545f916110749186916001600160a01b03908116911686306134a2565b90505f81116110955760405162461bcd60e51b81526004016109a09061454c565b505b5050610eb06001609755565b6001600160a01b037f00000000000000000000000000000000000000000000000000000000000000001630036110eb5760405162461bcd60e51b81526004016109a090614583565b7f00000000000000000000000000000000000000000000000000000000000000006001600160a01b03166111335f805160206149fc833981519152546001600160a01b031690565b6001600160a01b0316146111595760405162461bcd60e51b81526004016109a0906145cf565b6111628161358c565b604080515f80825260208201909252610eb091839190613594565b5f336107df81858561118f8383611f48565b611199919061461b565b61285c565b6001600160a01b037f00000000000000000000000000000000000000000000000000000000000000001630036111e65760405162461bcd60e51b81526004016109a090614583565b7f00000000000000000000000000000000000000000000000000000000000000006001600160a01b031661122e5f805160206149fc833981519152546001600160a01b031690565b6001600160a01b0316146112545760405162461bcd60e51b81526004016109a0906145cf565b61125d8261358c565b61126982826001613594565b5050565b611275612980565b5f61127e6131bb565b90505f61128a60355490565b90505f81116112ab5760405162461bcd60e51b81526004016109a09061462e565b5f816112b784876143b0565b6112c191906143c7565b90505f6101335f9054906101000a90046001600160a01b03166001600160a01b031663313ce5676040518163ffffffff1660e01b8152600401602060405180830381865afa158015611315573d5f803e3d5ffd5b505050506040513d601f19601f8201168201806040525081019061133991906144ca565b90505f856001600160a01b031663313ce5676040518163ffffffff1660e01b8152600401602060405180830381865afa158015611378573d5f803e3d5ffd5b505050506040513d601f19601f8201168201806040525081019061139c91906144ca565b610135546101335460405163802431fb60e01b81526001600160a01b03918216600482015289821660248201525f6044820181905293945091169063802431fb90606401602060405180830381865afa1580156113fb573d5f803e3d5ffd5b505050506040513d601f19601f8201168201806040525081019061141f9190614385565b90505f8360ff168360ff161115611497575f61143b8585614670565b61144690600a614769565b61145090846143c7565b905061145c81876143c7565b61146e90670de0b6b3a76400006143b0565b915061147a8585614670565b61148590600a614769565b61148f90836143c7565b9150506114fa565b5f6114a28486614670565b6114ad90600a614769565b6114b790846143b0565b90506114c381876143c7565b6114d590670de0b6b3a76400006143b0565b91506114e18486614670565b6114ec90600a614769565b6114f690836143c7565b9150505b6040516370a0823160e01b81523360048201525f906001600160a01b038a16906370a0823190602401602060405180830381865afa15801561153e573d5f803e3d5ffd5b505050506040513d601f19601f820116820180604052508101906115629190614385565b9050818110156115b45760405162461bcd60e51b815260206004820152601760248201527f42616c616e636520697320696e73756666696369656e7400000000000000000060448201526064016109a0565b604051636eb1769f60e11b81523360048201523060248201525f906001600160a01b038b169063dd62ed3e90604401602060405180830381865afa1580156115fe573d5f803e3d5ffd5b505050506040513d601f19601f820116820180604052508101906116229190614385565b9050828110156116705760405162461bcd60e51b8152602060048201526019602482015278436865636b2074686520746f6b656e20616c6c6f77616e636560381b60448201526064016109a0565b6116856001600160a01b038b163330866136fe565b61168f338c613758565b60408051338152602081018d90527f0f6798a560793a54c3bcfe86a93cde1e73087d944c0ea20544137d4121396885910160405180910390a1610130546001600160a01b03166116e7575050505050505050506117f0565b5f6116f184613817565b90505f6116fe8286614777565b6101305460405163095ea7b360e01b81526001600160a01b039182166004820152602481018390529192508d169063095ea7b3906044016020604051808303815f875af1158015611751573d5f803e3d5ffd5b505050506040513d601f19601f8201168201806040525081019061177591906144ea565b5061013054610133546040516328f362b160e21b81526001600160a01b0391821660048201526024810184905262278d00604482015291169063a3cd8ac4906064015f604051808303815f87803b1580156117ce575f80fd5b505af11580156117e0573d5f803e3d5ffd5b5050505050505050505050505050505b6112696001609755565b5f306001600160a01b037f000000000000000000000000000000000000000000000000000000000000000016146118995760405162461bcd60e51b815260206004820152603860248201527f555550535570677261646561626c653a206d757374206e6f742062652063616c60448201527f6c6564207468726f7567682064656c656761746563616c6c000000000000000060648201526084016109a0565b505f805160206149fc83398151915290565b6118b3612802565b61013080546001600160a01b0319166001600160a01b0383169081179091556040519081527f2960baf6793bc0b6accc4e85d9eeae1bee7db9b218d2d95905336cda49e740e290602001610737565b60606106f8610131613843565b611917612802565b610c4f5f61384f565b5f6107e582612786565b611932612980565b5f61193b6131bb565b90505f61194760355490565b90505f8161195584866143b0565b61195f91906143c7565b905061198a333061197564e8d4a51000856143c7565b610133546001600160a01b03169291906136fe565b610133546040516370a0823160e01b81523360048201525f916001600160a01b0316906370a0823190602401602060405180830381865afa1580156119d1573d5f803e3d5ffd5b505050506040513d601f19601f820116820180604052508101906119f59190614385565b61013354604051636eb1769f60e11b81523360048201523060248201529192505f916001600160a01b039091169063dd62ed3e90604401602060405180830381865afa158015611a47573d5f803e3d5ffd5b505050506040513d601f19601f82011682018060405250810190611a6b9190614385565b90505f8411611a8c5760405162461bcd60e51b81526004016109a09061462e565b611a9b64e8d4a51000846143c7565b821015611aea5760405162461bcd60e51b815260206004820152601c60248201527f555344432062616c616e636520697320696e73756666696369656e740000000060448201526064016109a0565b611af964e8d4a51000846143c7565b811015611b445760405162461bcd60e51b8152602060048201526019602482015278436865636b2074686520746f6b656e20616c6c6f77616e636560381b60448201526064016109a0565b611b4e3387613758565b60408051338152602081018890527f0f6798a560793a54c3bcfe86a93cde1e73087d944c0ea20544137d4121396885910160405180910390a1610130546001600160a01b0316611ba2575050505050611c71565b5f611bac84613817565b90505f611bb98286614777565b61013054909150611bdc906001600160a01b03166102ba64e8d4a51000846143c7565b5061013054610133546001600160a01b039182169163a3cd8ac49116611c0764e8d4a51000856143c7565b6040516001600160e01b031960e085901b1681526001600160a01b039092166004830152602482015262278d0060448201526064015f604051808303815f87803b158015611c53575f80fd5b505af1158015611c65573d5f803e3d5ffd5b50505050505050505050505b610eb06001609755565b5f54610100900460ff1615808015611c9957505f54600160ff909116105b80611cb25750303b158015611cb257505f5460ff166001145b611d155760405162461bcd60e51b815260206004820152602e60248201527f496e697469616c697a61626c653a20636f6e747261637420697320616c72656160448201526d191e481a5b9a5d1a585b1a5e995960921b60648201526084016109a0565b5f805460ff191660011790558015611d36575f805461ff0019166101001790555b611d7c6040518060400160405280600681526020016542616c756e6960d01b8152506040518060400160405280600681526020016542414c554e4960d01b8152506138a0565b611d846138d0565b611d8c6138fe565b611d9461392c565b611da630670de0b6b3a7640000613758565b6101f461012d55601e61012e5561271061012f5561013380546001600160a01b0319908116732791bca1f2de4661ed88a30c99a7a9449aa8417490811790925561013480548216730d500b1d8e8ef31e21c99d1db9a6444d3adf127017905561013580548216730addd25a91563696d8567df78d5a01c9a991f9b81790556101368054821673e592427a0aece92de3edee1f18e0157c058615641790556101378054909116731f98431c8ad98523631ae4a59f267346ea31f984179055611e709061013190613952565b508015610eb0575f805461ff0019169055604051600181527f7f26b83ff96e1f2b6a682f133852f6798a09c465da95921460cefb384740249890602001610737565b60606037805461075190614353565b5f3381611ece8286611f48565b905083811015611f2e5760405162461bcd60e51b815260206004820152602560248201527f45524332303a2064656372656173656420616c6c6f77616e63652062656c6f77604482015264207a65726f60d81b60648201526084016109a0565b610ecb828686840361285c565b5f336107df818585613012565b6001600160a01b039182165f90815260346020908152604080832093909416825291909152205490565b611f7a612980565b610138546001600160a01b0316611fcb5760405162461bcd60e51b81526020600482015260156024820152741059d95b9d08199858dd1bdc9e481b9bdd081cd95d605a1b60448201526064016109a0565b61013854604051639b76a5cd60e01b81523360048201525f916001600160a01b031690639b76a5cd906024016020604051808303815f875af1158015612013573d5f803e3d5ffd5b505050506040513d601f19601f820116820180604052508101906120379190614531565b90505f825167ffffffffffffffff81111561205457612054613fd5565b60405190808252806020026020018201604052801561207d578160200160208202803683370190505b5090505f5b83518110156120db576120b06101318583815181106120a3576120a361478a565b6020026020010151613966565b158282815181106120c3576120c361478a565b91151560209283029190910190910152600101612082565b50604051630eedc3c560e41b81526001600160a01b0383169063eedc3c509061210a908790879060040161479e565b5f604051808303815f87803b158015612121575f80fd5b505af1158015612133573d5f803e3d5ffd5b505050505f5b83518110156123ad575f8482815181106121555761215561478a565b60209081029190910101516101375461013454604051630b4c774160e11b81529293505f926001600160a01b0392831692631698ee82926121a292879290911690610bb890600401614509565b602060405180830381865afa1580156121bd573d5f803e3d5ffd5b505050506040513d601f19601f820116820180604052508101906121e19190614531565b6101375461013454604051630b4c774160e11b81529293505f926001600160a01b0392831692631698ee8292612223928892909116906101f490600401614509565b602060405180830381865afa15801561223e573d5f803e3d5ffd5b505050506040513d601f19601f820116820180604052508101906122629190614531565b90505f6001600160a01b03831615158061228457506001600160a01b03821615155b90508585815181106122985761229861478a565b602002602001015180156122a95750805b156122bc576122ba61013185613952565b505b8061239d576040516370a0823160e01b81523060048201525f906001600160a01b038616906370a0823190602401602060405180830381865afa158015612305573d5f803e3d5ffd5b505050506040513d601f19601f820116820180604052508101906123299190614385565b60405163a9059cbb60e01b8152336004820152602481018290529091506001600160a01b0386169063a9059cbb906044016020604051808303815f875af1158015612376573d5f803e3d5ffd5b505050506040513d601f19601f8201168201806040525081019061239a91906144ea565b50505b5050600190920191506121399050565b5050506112696001609755565b6123c2612802565b6001600160a01b0381166124275760405162461bcd60e51b815260206004820152602660248201527f4f776e61626c653a206e6577206f776e657220697320746865207a65726f206160448201526564647265737360d01b60648201526084016109a0565b610eb08161384f565b612438612980565b5f811161247a5760405162461bcd60e51b815260206004820152601060248201526f125b9cdd59999a58da595b9d0810905360821b60448201526064016109a0565b61248381612c4b565b5f5b612490610131612d3a565b811015610e62575f6124a461013183612d43565b90505f6124b060355490565b6040516370a0823160e01b81523060048201529091505f906001600160a01b038416906370a0823190602401602060405180830381865afa1580156124f7573d5f803e3d5ffd5b505050506040513d601f19601f8201168201806040525081019061251b9190614385565b90508015155f0361252e57505050612766565b306001600160a01b0384160361254657505050612766565b5f836001600160a01b031663313ce5676040518163ffffffff1660e01b8152600401602060405180830381865afa158015612583573d5f803e3d5ffd5b505050506040513d601f19601f820116820180604052508101906125a791906144ca565b60ff1690505f6125b984848985612d4e565b610133549091506001600160a01b0390811690861603612651576101335460405163a9059cbb60e01b8152336004820152602481018390526001600160a01b039091169063a9059cbb906044016020604051808303815f875af1158015612622573d5f803e3d5ffd5b505050506040513d601f19601f8201168201806040525081019061264691906144ea565b505050505050612766565b6101375461013354604051630b4c774160e11b81525f926001600160a01b0390811692631698ee829261268e928b921690610bb890600401614509565b602060405180830381865afa1580156126a9573d5f803e3d5ffd5b505050506040513d601f19601f820116820180604052508101906126cd9190614531565b610136549091506126e99087906001600160a01b0316846129d9565b6001600160a01b0381161561271857610133546127129087906001600160a01b03168433612b44565b5061275f565b61013454610133545f9161273c9189916001600160a01b03908116911686336134a2565b90505f811161275d5760405162461bcd60e51b81526004016109a09061454c565b505b5050505050505b600101612485565b5f61277b85858585612d4e565b90505b949350505050565b5f8061279160355490565b90505f81116127e25760405162461bcd60e51b815260206004820152601b60248201527f546f74616c20737570706c792063616e6e6f74206265207a65726f000000000060448201526064016109a0565b5f6127eb6131bb565b9050816127f882866143b0565b61277e91906143c7565b6065546001600160a01b03163314610c4f5760405162461bcd60e51b815260206004820181905260248201527f4f776e61626c653a2063616c6c6572206973206e6f7420746865206f776e657260448201526064016109a0565b6001600160a01b0383166128be5760405162461bcd60e51b8152602060048201526024808201527f45524332303a20617070726f76652066726f6d20746865207a65726f206164646044820152637265737360e01b60648201526084016109a0565b6001600160a01b03821661291f5760405162461bcd60e51b815260206004820152602260248201527f45524332303a20617070726f766520746f20746865207a65726f206164647265604482015261737360f01b60648201526084016109a0565b6001600160a01b038381165f8181526034602090815260408083209487168084529482529182902085905590518481527f8c5be1e5ebec7d5bd14f71427d1e84f3dd0314c0f7b2291e5b200ac8c7c3b92591015b60405180910390a3505050565b6002609754036129d25760405162461bcd60e51b815260206004820152601f60248201527f5265656e7472616e637947756172643a207265656e7472616e742063616c6c0060448201526064016109a0565b6002609755565b604051636eb1769f60e11b81523060048201526001600160a01b03838116602483015284915f9183169063dd62ed3e90604401602060405180830381865afa158015612a27573d5f803e3d5ffd5b505050506040513d601f19601f82011682018060405250810190612a4b9190614385565b9050828114612b3d578015612acb5760405163095ea7b360e01b81526001600160a01b0385811660048301525f602483015283169063095ea7b3906044016020604051808303815f875af1158015612aa5573d5f803e3d5ffd5b505050506040513d601f19601f82011682018060405250810190612ac991906144ea565b505b60405163095ea7b360e01b81526001600160a01b0385811660048301526024820185905283169063095ea7b3906044016020604051808303815f875af1158015612b17573d5f803e3d5ffd5b505050506040513d601f19601f82011682018060405250810190612b3b91906144ea565b505b5050505050565b60408051610100810182526001600160a01b03868116825285811660208301908152610bb883850190815285831660608501908152426080860190815260a086018981525f60c0880181815260e08901828152610136549a5163414bf38960e01b81528a518a166004820152975189166024890152955162ffffff166044880152935187166064870152915160848601525160a4850152905160c48401529051831660e4830152939091169063414bf38990610104016020604051808303815f875af1158015612c16573d5f803e3d5ffd5b505050506040513d601f19601f82011682018060405250810190612c3a9190614385565b9695505050505050565b6001609755565b610133546040516370a0823160e01b81523060048201525f916001600160a01b0316906370a0823190602401602060405180830381865afa158015612c92573d5f803e3d5ffd5b505050506040513d601f19601f82011682018060405250810190612cb69190614385565b90506103e88110158015612cd357506001612cd060355490565b10155b1561126957662386f26fc100008210156112695760405162461bcd60e51b815260206004820152602260248201527f4d696e696d756d206275726e20616d6f756e7420697320302e30312042414c556044820152614e4960f01b60648201526084016109a0565b5f6107e5825490565b5f610eea8383613987565b5f808511612d9e5760405162461bcd60e51b815260206004820152601b60248201527f546f74616c20737570706c792063616e6e6f74206265207a65726f000000000060448201526064016109a0565b6012821115612def5760405162461bcd60e51b815260206004820152601e60248201527f546f6b656e20646563696d616c732073686f756c64206265203c3d203138000060448201526064016109a0565b5f806012841015612e4357612e05846012614777565b612e1090600a614838565b612e1a90886143c7565b9150612e27846012614777565b612e3290600a614838565b612e3c90866143c7565b9050612e49565b50859050835b5f82612e5588846143b0565b612e5f91906143c7565b98975050505050505050565b6001600160a01b038216612ecb5760405162461bcd60e51b815260206004820152602160248201527f45524332303a206275726e2066726f6d20746865207a65726f206164647265736044820152607360f81b60648201526084016109a0565b6001600160a01b0382165f9081526033602052604090205481811015612f3e5760405162461bcd60e51b815260206004820152602260248201527f45524332303a206275726e20616d6f756e7420657863656564732062616c616e604482015261636560f01b60648201526084016109a0565b6001600160a01b0383165f8181526033602090815260408083208686039055603580548790039055518581529192917fddf252ad1be2c89b69c2b068fc378daa952ba7f163c4a11628f55a4df523b3ef9101612973565b505050565b5f612fa58484611f48565b90505f19811461300c5781811015612fff5760405162461bcd60e51b815260206004820152601d60248201527f45524332303a20696e73756666696369656e7420616c6c6f77616e636500000060448201526064016109a0565b61300c848484840361285c565b50505050565b6001600160a01b0383166130765760405162461bcd60e51b815260206004820152602560248201527f45524332303a207472616e736665722066726f6d20746865207a65726f206164604482015264647265737360d81b60648201526084016109a0565b6001600160a01b0382166130d85760405162461bcd60e51b815260206004820152602360248201527f45524332303a207472616e7366657220746f20746865207a65726f206164647260448201526265737360e81b60648201526084016109a0565b6001600160a01b0383165f908152603360205260409020548181101561314f5760405162461bcd60e51b815260206004820152602660248201527f45524332303a207472616e7366657220616d6f756e7420657863656564732062604482015265616c616e636560d01b60648201526084016109a0565b6001600160a01b038085165f8181526033602052604080822086860390559286168082529083902080548601905591517fddf252ad1be2c89b69c2b068fc378daa952ba7f163c4a11628f55a4df523b3ef906131ae9086815260200190565b60405180910390a361300c565b5f805f5b6131ca610131612d3a565b811015613273575f6131de61013183612d43565b6040516370a0823160e01b81523060048201529091505f906001600160a01b038316906370a0823190602401602060405180830381865afa158015613225573d5f803e3d5ffd5b505050506040513d601f19601f820116820180604052508101906132499190614385565b90505f6132568284613279565b9050613262818661461b565b945050600190920191506131bf9050565b50919050565b5f805f836001600160a01b031663313ce5676040518163ffffffff1660e01b8152600401602060405180830381865afa1580156132b8573d5f803e3d5ffd5b505050506040513d601f19601f820116820180604052508101906132dc91906144ca565b90505f6101335f9054906101000a90046001600160a01b03166001600160a01b031663313ce5676040518163ffffffff1660e01b8152600401602060405180830381865afa158015613330573d5f803e3d5ffd5b505050506040513d601f19601f8201168201806040525081019061335491906144ca565b610133549091506001600160a01b03908116908616036133875761337d8664e8d4a510006143b0565b93505050506107e5565b610135546101335460405163802431fb60e01b81526001600160a01b03888116600483015291821660248201525f604482015291169063802431fb90606401602060405180830381865afa9250505080156133ff575060408051601f3d908101601f191682019092526133fc91810190614385565b60015b61340e575f93505050506107e5565b92505f61341b8284614670565b61342690600a614769565b905060128360ff16101561347057670de0b6b3a764000061344782866143b0565b613451838a6143b0565b61345b91906143b0565b61346591906143c7565b9450505050506107e5565b670de0b6b3a764000061348382866143b0565b61348d90896143b0565b61349791906143c7565b979650505050505050565b6040805160a081018252606087811b6bffffffffffffffffffffffff1990811660c084015261017760eb1b60d4840181905288831b821660d785015260eb84015286821b1660ee830152825160e28184030181526101028301845282526001600160a01b03848116602084015242838501529082018590525f6080830181905261013654935163c04b8d5960e01b815290939091169063c04b8d599061354c908490600401614843565b6020604051808303815f875af1158015613568573d5f803e3d5ffd5b505050506040513d601f19601f820116820180604052508101906134979190614385565b610eb0612802565b7f4910fdfa16fed3260ed0e7147f7cc6da11a60208b5b9406d12a635614ffd91435460ff16156135c757612f95836139ad565b826001600160a01b03166352d1902d6040518163ffffffff1660e01b8152600401602060405180830381865afa925050508015613621575060408051601f3d908101601f1916820190925261361e91810190614385565b60015b6136845760405162461bcd60e51b815260206004820152602e60248201527f45524331393637557067726164653a206e657720696d706c656d656e7461746960448201526d6f6e206973206e6f74205555505360901b60648201526084016109a0565b5f805160206149fc83398151915281146136f25760405162461bcd60e51b815260206004820152602960248201527f45524331393637557067726164653a20756e737570706f727465642070726f786044820152681a58589b195555525160ba1b60648201526084016109a0565b50612f95838383613a48565b604080516001600160a01b0385811660248301528416604482015260648082018490528251808303909101815260849091019091526020810180516001600160e01b03166323b872dd60e01b17905261300c908590613a6c565b6001600160a01b0382166137ae5760405162461bcd60e51b815260206004820152601f60248201527f45524332303a206d696e7420746f20746865207a65726f20616464726573730060448201526064016109a0565b8060355f8282546137bf919061461b565b90915550506001600160a01b0382165f818152603360209081526040808320805486019055518481527fddf252ad1be2c89b69c2b068fc378daa952ba7f163c4a11628f55a4df523b3ef910160405180910390a35050565b5f8061012f5461012e5461012f5461382f9190614777565b61383990856143b0565b610eea91906143c7565b60605f610eea83613b3f565b606580546001600160a01b038381166001600160a01b0319831681179093556040519116919082907f8be0079c531659141344cd1fd0a4f28419497f9722a3daafe3b4186f6b6457e0905f90a35050565b5f54610100900460ff166138c65760405162461bcd60e51b81526004016109a09061489a565b6112698282613b98565b5f54610100900460ff166138f65760405162461bcd60e51b81526004016109a09061489a565b610c4f613bd7565b5f54610100900460ff166139245760405162461bcd60e51b81526004016109a09061489a565b610c4f613c06565b5f54610100900460ff16610c4f5760405162461bcd60e51b81526004016109a09061489a565b5f610eea836001600160a01b038416613c2c565b6001600160a01b0381165f9081526001830160205260408120541515610eea565b5f825f01828154811061399c5761399c61478a565b905f5260205f200154905092915050565b6001600160a01b0381163b613a1a5760405162461bcd60e51b815260206004820152602d60248201527f455243313936373a206e657720696d706c656d656e746174696f6e206973206e60448201526c1bdd08184818dbdb9d1c9858dd609a1b60648201526084016109a0565b5f805160206149fc83398151915280546001600160a01b0319166001600160a01b0392909216919091179055565b613a5183613c78565b5f82511180613a5d5750805b15612f955761300c8383613cb7565b5f613ac0826040518060400160405280602081526020017f5361666545524332303a206c6f772d6c6576656c2063616c6c206661696c6564815250856001600160a01b0316613cdc9092919063ffffffff16565b905080515f1480613ae0575080806020019051810190613ae091906144ea565b612f955760405162461bcd60e51b815260206004820152602a60248201527f5361666545524332303a204552433230206f7065726174696f6e20646964206e6044820152691bdd081cdd58d8d9595960b21b60648201526084016109a0565b6060815f01805480602002602001604051908101604052809291908181526020018280548015613b8c57602002820191905f5260205f20905b815481526020019060010190808311613b78575b50505050509050919050565b5f54610100900460ff16613bbe5760405162461bcd60e51b81526004016109a09061489a565b6036613bca8382614929565b506037612f958282614929565b5f54610100900460ff16613bfd5760405162461bcd60e51b81526004016109a09061489a565b610c4f3361384f565b5f54610100900460ff16612c445760405162461bcd60e51b81526004016109a09061489a565b5f818152600183016020526040812054613c7157508154600181810184555f8481526020808220909301849055845484825282860190935260409020919091556107e5565b505f6107e5565b613c81816139ad565b6040516001600160a01b038216907fbc7cd75a20ee27fd9adebab32041f755214dbc6bffa90cc0225b39da2e5c2d3b905f90a250565b6060610eea8383604051806060016040528060278152602001614a1c60279139613cea565b606061277e84845f85613d54565b60605f80856001600160a01b031685604051613d0691906149e5565b5f60405180830381855af49150503d805f8114613d3e576040519150601f19603f3d011682016040523d82523d5f602084013e613d43565b606091505b5091509150612c3a86838387613e1c565b606082471015613db55760405162461bcd60e51b815260206004820152602660248201527f416464726573733a20696e73756666696369656e742062616c616e636520666f6044820152651c8818d85b1b60d21b60648201526084016109a0565b5f80866001600160a01b03168587604051613dd091906149e5565b5f6040518083038185875af1925050503d805f8114613e0a576040519150601f19603f3d011682016040523d82523d5f602084013e613e0f565b606091505b5091509150613497878383875b60608315613e8a5782515f03613e83576001600160a01b0385163b613e835760405162461bcd60e51b815260206004820152601d60248201527f416464726573733a2063616c6c20746f206e6f6e2d636f6e747261637400000060448201526064016109a0565b508161277e565b61277e8383815115613e9f5781518083602001fd5b8060405162461bcd60e51b81526004016109a09190613efe565b5f60208284031215613ec9575f80fd5b5035919050565b5f81518084528060208401602086015e5f602082860101526020601f19601f83011685010191505092915050565b602081525f610eea6020830184613ed0565b6001600160a01b0381168114610eb0575f80fd5b5f8060408385031215613f35575f80fd5b8235613f4081613f10565b946020939093013593505050565b5f60208284031215613f5e575f80fd5b8135610eea81613f10565b5f805f60608486031215613f7b575f80fd5b8335613f8681613f10565b92506020840135613f9681613f10565b929592945050506040919091013590565b5f8060408385031215613fb8575f80fd5b823591506020830135613fca81613f10565b809150509250929050565b634e487b7160e01b5f52604160045260245ffd5b6040516060810167ffffffffffffffff8111828210171561400c5761400c613fd5565b60405290565b604051601f8201601f1916810167ffffffffffffffff8111828210171561403b5761403b613fd5565b604052919050565b5f82601f830112614052575f80fd5b813567ffffffffffffffff81111561406c5761406c613fd5565b61407f601f8201601f1916602001614012565b818152846020838601011115614093575f80fd5b816020850160208301375f918101602001919091529392505050565b5f80604083850312156140c0575f80fd5b82356140cb81613f10565b9150602083013567ffffffffffffffff8111156140e6575f80fd5b6140f285828601614043565b9150509250929050565b5f815180845260208085019450602084015f5b838110156141345781516001600160a01b03168752958201959082019060010161410f565b509495945050505050565b602081525f610eea60208301846140fc565b5f8060408385031215614162575f80fd5b823561416d81613f10565b91506020830135613fca81613f10565b5f67ffffffffffffffff82111561419657614196613fd5565b5060051b60200190565b5f82601f8301126141af575f80fd5b813560206141c46141bf8361417d565b614012565b8083825260208201915060208460051b8701019350868411156141e5575f80fd5b602086015b8481101561420a5780356141fd81613f10565b83529183019183016141ea565b509695505050505050565b5f8060408385031215614226575f80fd5b823567ffffffffffffffff8082111561423d575f80fd5b818501915085601f830112614250575f80fd5b813560206142606141bf8361417d565b82815260059290921b8401810191818101908984111561427e575f80fd5b8286015b8481101561430157803586811115614298575f80fd5b87016060818d03601f19018113156142ae575f80fd5b6142b6613fe9565b868301356142c381613f10565b81526040830135878201529082013590888211156142df575f80fd5b6142ed8e8884860101614043565b604082015285525050918301918301614282565b5096505086013592505080821115614317575f80fd5b506140f2858286016141a0565b5f805f8060808587031215614337575f80fd5b5050823594602084013594506040840135936060013592509050565b600181811c9082168061436757607f821691505b60208210810361327357634e487b7160e01b5f52602260045260245ffd5b5f60208284031215614395575f80fd5b5051919050565b634e487b7160e01b5f52601160045260245ffd5b80820281158282048414176107e5576107e561439c565b5f826143e157634e487b7160e01b5f52601260045260245ffd5b500490565b6020808252602d908201527f417262697472616765206661696c65643a20696e73756666696369656e74204260408201526c414c554e492062616c616e636560981b606082015260800190565b6020808252602b908201527f417262697472616765206661696c65643a20696e73756666696369656e74205560408201526a5344432062616c616e636560a81b606082015260800190565b6020808252602c908201527f417262697472616765206661696c65643a20696e73756666696369656e74206f60408201526b1d5d1c1d5d08185b5bdd5b9d60a21b606082015260800190565b5f602082840312156144da575f80fd5b815160ff81168114610eea575f80fd5b5f602082840312156144fa575f80fd5b81518015158114610eea575f80fd5b6001600160a01b03938416815291909216602082015262ffffff909116604082015260600190565b5f60208284031215614541575f80fd5b8151610eea81613f10565b60208082526017908201527f53776170204661696c65642c20547279204275726e2829000000000000000000604082015260600190565b6020808252602c908201527f46756e6374696f6e206d7573742062652063616c6c6564207468726f7567682060408201526b19195b1959d85d1958d85b1b60a21b606082015260800190565b6020808252602c908201527f46756e6374696f6e206d7573742062652063616c6c6564207468726f7567682060408201526b6163746976652070726f787960a01b606082015260800190565b808201808211156107e5576107e561439c565b60208082526022908201527f546f74616c2042414c554e4920737570706c792063616e6e6f74206265207a65604082015261726f60f01b606082015260800190565b60ff82811682821603908111156107e5576107e561439c565b600181815b808511156146c357815f19048211156146a9576146a961439c565b808516156146b657918102915b93841c939080029061468e565b509250929050565b5f826146d9575060016107e5565b816146e557505f6107e5565b81600181146146fb576002811461470557614721565b60019150506107e5565b60ff8411156147165761471661439c565b50506001821b6107e5565b5060208310610133831016604e8410600b8410161715614744575081810a6107e5565b61474e8383614689565b805f19048211156147615761476161439c565b029392505050565b5f610eea60ff8416836146cb565b818103818111156107e5576107e561439c565b634e487b7160e01b5f52603260045260245ffd5b5f6040808301604084528086518083526060925060608601915060608160051b8701016020808a015f5b8481101561481857898403605f19018652815180516001600160a01b03168552838101518486015288015188850188905261480588860182613ed0565b96840196945050908201906001016147c8565b50508782039088015261482b81896140fc565b9998505050505050505050565b5f610eea83836146cb565b602081525f825160a0602084015261485e60c0840182613ed0565b905060018060a01b0360208501511660408401526040840151606084015260608401516080840152608084015160a08401528091505092915050565b6020808252602b908201527f496e697469616c697a61626c653a20636f6e7472616374206973206e6f74206960408201526a6e697469616c697a696e6760a81b606082015260800190565b601f821115612f9557805f5260205f20601f840160051c8101602085101561490a5750805b601f840160051c820191505b81811015612b3d575f8155600101614916565b815167ffffffffffffffff81111561494357614943613fd5565b614957816149518454614353565b846148e5565b602080601f83116001811461498a575f84156149735750858301515b5f19600386901b1c1916600185901b178555612b3b565b5f85815260208120601f198616915b828110156149b857888601518255948401946001909101908401614999565b50858210156149d557878501515f19600388901b60f8161c191681555b5050505050600190811b01905550565b5f82518060208501845e5f92019182525091905056fe360894a13ba1a3210667c828492db98dca3e2076cc3735a920a3ca505d382bbc416464726573733a206c6f772d6c6576656c2064656c65676174652063616c6c206661696c6564a264697066735822122078193b6a91da9c1dfceb0c861d36d4cac1e0dfc7cd56c1461e65fbf36deba66c64736f6c63430008190033",
    "sourcePath": "c:/Users/Utente/Source/repos/baluni-contracts/contracts/core/BaluniV1Router.sol",
    "compiler": {
        "name": "solc",
        "version": "0.8.25+commit.b61c2a91"
    },
    "functionHashes": {
        "_BPS_BASE()": "85377188",
        "_BPS_FEE()": "b9f5e617",
        "_MAX_BPS_FEE()": "34decfc9",
        "allowance(address,address)": "dd62ed3e",
        "approve(address,uint256)": "095ea7b3",
        "balanceOf(address)": "70a08231",
        "burnERC20(uint256)": "1a168da2",
        "burnUSDC(uint256)": "fe0a4dd1",
        "calculateTokenShare(uint256,uint256,uint256,uint256)": "fe330a51",
        "changeAgentFactory(address)": "0a38abab",
        "changeBpsFee(uint256)": "06497cb9",
        "changeRewardPool(address)": "5bf72b58",
        "decimals()": "313ce567",
        "decreaseAllowance(address,uint256)": "a457c2d7",
        "execute((address,uint256,bytes)[],address[])": "eedc3c50",
        "getBpsFee()": "185fcffe",
        "getUSDCShareValue(uint256)": "71ddcfb8",
        "getUnitPrice()": "012a33aa",
        "getVersion()": "0d8e6e2c",
        "increaseAllowance(address,uint256)": "39509351",
        "initialize()": "8129fc1c",
        "liquidate(address)": "2f865568",
        "listAllTokens()": "5e7f8b76",
        "mintERC20(uint256,address)": "50b1b34a",
        "mintUSDC(uint256)": "7d9fc717",
        "name()": "06fdde03",
        "owner()": "8da5cb5b",
        "performArbitrage()": "12f399cf",
        "proxiableUUID()": "52d1902d",
        "renounceOwnership()": "715018a6",
        "rewardPool()": "66666aa9",
        "symbol()": "95d89b41",
        "tokenValuation(uint256,address)": "2bdd955a",
        "totalSupply()": "18160ddd",
        "totalValuation()": "295b9300",
        "transfer(address,uint256)": "a9059cbb",
        "transferFrom(address,address,uint256)": "23b872dd",
        "transferOwnership(address)": "f2fde38b",
        "upgradeTo(address)": "3659cfe6",
        "upgradeToAndCall(address,bytes)": "4f1ef286"
    },
    "gasEstimates": {
        "creation": {
            "codeDepositCost": "3812800",
            "executionCost": "infinite",
            "totalCost": "infinite"
        },
        "external": {
            "_BPS_BASE()": "2416",
            "_BPS_FEE()": "2416",
            "_MAX_BPS_FEE()": "2328",
            "allowance(address,address)": "infinite",
            "approve(address,uint256)": "24709",
            "balanceOf(address)": "2651",
            "burnERC20(uint256)": "infinite",
            "burnUSDC(uint256)": "infinite",
            "calculateTokenShare(uint256,uint256,uint256,uint256)": "787",
            "changeAgentFactory(address)": "26862",
            "changeBpsFee(uint256)": "25621",
            "changeRewardPool(address)": "27860",
            "decimals()": "310",
            "decreaseAllowance(address,uint256)": "27029",
            "execute((address,uint256,bytes)[],address[])": "infinite",
            "getBpsFee()": "2392",
            "getUSDCShareValue(uint256)": "infinite",
            "getUnitPrice()": "infinite",
            "getVersion()": "infinite",
            "increaseAllowance(address,uint256)": "infinite",
            "initialize()": "infinite",
            "liquidate(address)": "infinite",
            "listAllTokens()": "infinite",
            "mintERC20(uint256,address)": "infinite",
            "mintUSDC(uint256)": "infinite",
            "name()": "infinite",
            "owner()": "2375",
            "performArbitrage()": "infinite",
            "proxiableUUID()": "infinite",
            "renounceOwnership()": "infinite",
            "rewardPool()": "2448",
            "symbol()": "infinite",
            "tokenValuation(uint256,address)": "infinite",
            "totalSupply()": "2370",
            "totalValuation()": "infinite",
            "transfer(address,uint256)": "51159",
            "transferFrom(address,address,uint256)": "infinite",
            "transferOwnership(address)": "infinite",
            "upgradeTo(address)": "infinite",
            "upgradeToAndCall(address,bytes)": "infinite"
        },
        "internal": {
            "_authorizeUpgrade(address)": "infinite",
            "_calculateBaluniToUSDC(uint256)": "infinite",
            "_calculateERC20Share(uint256,uint256,uint256,uint256)": "infinite",
            "_calculateERC20Valuation(uint256,address)": "infinite",
            "_calculateNetAmountAfterFee(uint256)": "infinite",
            "_checkUSDC(uint256)": "infinite",
            "_multiHopSwap(address,address,address,uint256,address)": "infinite",
            "_resize(uint256[] memory,uint256)": "infinite",
            "_singleSwap(address,address,uint256,address)": "infinite",
            "_totalValuation()": "infinite",
            "secureApproval(address,address,uint256)": "infinite"
        }
    }
}