{
    "contractName": "BaluniV1AgentFactory",
    "abi": [
        {
            "anonymous": false,
            "inputs": [
                {
                    "indexed": false,
                    "internalType": "address",
                    "name": "previousAdmin",
                    "type": "address"
                },
                {
                    "indexed": false,
                    "internalType": "address",
                    "name": "newAdmin",
                    "type": "address"
                }
            ],
            "name": "AdminChanged",
            "type": "event"
        },
        {
            "anonymous": false,
            "inputs": [
                {
                    "indexed": false,
                    "internalType": "address",
                    "name": "user",
                    "type": "address"
                },
                {
                    "indexed": false,
                    "internalType": "address",
                    "name": "agent",
                    "type": "address"
                }
            ],
            "name": "AgentCreated",
            "type": "event"
        },
        {
            "anonymous": false,
            "inputs": [
                {
                    "indexed": true,
                    "internalType": "address",
                    "name": "beacon",
                    "type": "address"
                }
            ],
            "name": "BeaconUpgraded",
            "type": "event"
        },
        {
            "anonymous": false,
            "inputs": [
                {
                    "indexed": false,
                    "internalType": "uint8",
                    "name": "version",
                    "type": "uint8"
                }
            ],
            "name": "Initialized",
            "type": "event"
        },
        {
            "anonymous": false,
            "inputs": [
                {
                    "indexed": true,
                    "internalType": "address",
                    "name": "previousOwner",
                    "type": "address"
                },
                {
                    "indexed": true,
                    "internalType": "address",
                    "name": "newOwner",
                    "type": "address"
                }
            ],
            "name": "OwnershipTransferred",
            "type": "event"
        },
        {
            "anonymous": false,
            "inputs": [
                {
                    "indexed": true,
                    "internalType": "address",
                    "name": "implementation",
                    "type": "address"
                }
            ],
            "name": "Upgraded",
            "type": "event"
        },
        {
            "inputs": [],
            "name": "changeImplementation",
            "outputs": [],
            "stateMutability": "nonpayable",
            "type": "function"
        },
        {
            "inputs": [
                {
                    "internalType": "address",
                    "name": "_user",
                    "type": "address"
                }
            ],
            "name": "getAgentAddress",
            "outputs": [
                {
                    "internalType": "address",
                    "name": "",
                    "type": "address"
                }
            ],
            "stateMutability": "view",
            "type": "function"
        },
        {
            "inputs": [
                {
                    "internalType": "address",
                    "name": "user",
                    "type": "address"
                }
            ],
            "name": "getOrCreateAgent",
            "outputs": [
                {
                    "internalType": "address",
                    "name": "",
                    "type": "address"
                }
            ],
            "stateMutability": "nonpayable",
            "type": "function"
        },
        {
            "inputs": [],
            "name": "initialize",
            "outputs": [],
            "stateMutability": "nonpayable",
            "type": "function"
        },
        {
            "inputs": [],
            "name": "owner",
            "outputs": [
                {
                    "internalType": "address",
                    "name": "",
                    "type": "address"
                }
            ],
            "stateMutability": "view",
            "type": "function"
        },
        {
            "inputs": [],
            "name": "proxiableUUID",
            "outputs": [
                {
                    "internalType": "bytes32",
                    "name": "",
                    "type": "bytes32"
                }
            ],
            "stateMutability": "view",
            "type": "function"
        },
        {
            "inputs": [],
            "name": "renounceOwnership",
            "outputs": [],
            "stateMutability": "nonpayable",
            "type": "function"
        },
        {
            "inputs": [
                {
                    "internalType": "address",
                    "name": "newOwner",
                    "type": "address"
                }
            ],
            "name": "transferOwnership",
            "outputs": [],
            "stateMutability": "nonpayable",
            "type": "function"
        },
        {
            "inputs": [
                {
                    "internalType": "address",
                    "name": "newImplementation",
                    "type": "address"
                }
            ],
            "name": "upgradeTo",
            "outputs": [],
            "stateMutability": "nonpayable",
            "type": "function"
        },
        {
            "inputs": [
                {
                    "internalType": "address",
                    "name": "newImplementation",
                    "type": "address"
                },
                {
                    "internalType": "bytes",
                    "name": "data",
                    "type": "bytes"
                }
            ],
            "name": "upgradeToAndCall",
            "outputs": [],
            "stateMutability": "payable",
            "type": "function"
        },
        {
            "inputs": [
                {
                    "internalType": "address",
                    "name": "",
                    "type": "address"
                }
            ],
            "name": "userAgents",
            "outputs": [
                {
                    "internalType": "contract BaluniV1Agent",
                    "name": "",
                    "type": "address"
                }
            ],
            "stateMutability": "view",
            "type": "function"
        }
    ],
    "bytecode": "60a0604052306080523480156012575f80fd5b50608051611e036100475f395f81816102a3015281816102ec01528181610389015281816103c9015261045a0152611e035ff3fe60806040526004361061009a575f3560e01c8063715018a611610062578063715018a6146101445780637811a785146101585780638129fc1c1461018c5780638da5cb5b146101a05780639b76a5cd146101bd578063f2fde38b146101dc575f80fd5b806327d54a921461009e5780633659cfe6146100da5780634f1ef286146100fb57806352d1902d1461010e5780636c6be5f314610130575b5f80fd5b3480156100a9575f80fd5b506100bd6100b8366004610fd0565b6101fb565b6040516001600160a01b0390911681526020015b60405180910390f35b3480156100e5575f80fd5b506100f96100f4366004610fd0565b610299565b005b6100f9610109366004610ffd565b61037f565b348015610119575f80fd5b5061012261044e565b6040519081526020016100d1565b34801561013b575f80fd5b506100f96104ff565b34801561014f575f80fd5b506100f9610551565b348015610163575f80fd5b506100bd610172366004610fd0565b60ca6020525f90815260409020546001600160a01b031681565b348015610197575f80fd5b506100f9610564565b3480156101ab575f80fd5b506033546001600160a01b03166100bd565b3480156101c8575f80fd5b506100bd6101d7366004610fd0565b6106be565b3480156101e7575f80fd5b506100f96101f6366004610fd0565b610850565b6040516001600160601b0319606083901b1660208201525f9081906034016040516020818303038152906040528051906020012090505f61023b846108c6565b8051602091820120604080516001600160f81b0319818501523060601b6001600160601b0319166021820152603581019590955260558086019290925280518086039092018252607590940190935282519201919091209392505050565b6001600160a01b037f00000000000000000000000000000000000000000000000000000000000000001630036102ea5760405162461bcd60e51b81526004016102e1906110b9565b60405180910390fd5b7f00000000000000000000000000000000000000000000000000000000000000006001600160a01b03166103325f80516020611d87833981519152546001600160a01b031690565b6001600160a01b0316146103585760405162461bcd60e51b81526004016102e190611105565b61036181610990565b604080515f8082526020820190925261037c91839190610998565b50565b6001600160a01b037f00000000000000000000000000000000000000000000000000000000000000001630036103c75760405162461bcd60e51b81526004016102e1906110b9565b7f00000000000000000000000000000000000000000000000000000000000000006001600160a01b031661040f5f80516020611d87833981519152546001600160a01b031690565b6001600160a01b0316146104355760405162461bcd60e51b81526004016102e190611105565b61043e82610990565b61044a82826001610998565b5050565b5f306001600160a01b037f000000000000000000000000000000000000000000000000000000000000000016146104ed5760405162461bcd60e51b815260206004820152603860248201527f555550535570677261646561626c653a206d757374206e6f742062652063616c60448201527f6c6564207468726f7567682064656c656761746563616c6c000000000000000060648201526084016102e1565b505f80516020611d8783398151915290565b610507610b07565b5f60405161051490610fa8565b604051809103905ff08015801561052d573d5f803e3d5ffd5b5060c980546001600160a01b0319166001600160a01b039290921691909117905550565b610559610b07565b6105625f610b61565b565b5f54610100900460ff161580801561058257505f54600160ff909116105b8061059b5750303b15801561059b57505f5460ff166001145b6105fe5760405162461bcd60e51b815260206004820152602e60248201527f496e697469616c697a61626c653a20636f6e747261637420697320616c72656160448201526d191e481a5b9a5d1a585b1a5e995960921b60648201526084016102e1565b5f805460ff19166001179055801561061f575f805461ff0019166101001790555b610627610bb2565b61062f610be0565b5f60405161063c90610fa8565b604051809103905ff080158015610655573d5f803e3d5ffd5b5060c980546001600160a01b0319166001600160a01b039290921691909117905550801561037c575f805461ff0019169055604051600181527f7f26b83ff96e1f2b6a682f133852f6798a09c465da95921460cefb38474024989060200160405180910390a150565b5f306107045760405162461bcd60e51b81526020600482015260156024820152741059d95b9d08199858dd1bdc9e481b9bdd081cd95d605a1b60448201526064016102e1565b6040516001600160601b0319606084901b1660208201525f9060340160408051601f1981840301815291815281516020928301206001600160a01b038681165f90815260ca909452919092205491925016610831575f610765828530610c06565b9050803b63ffffffff166107c95760405162461bcd60e51b815260206004820152602560248201527f4167656e74206372656174696f6e206661696c65642c206e6f74206120636f6e6044820152641d1c9858dd60da1b60648201526084016102e1565b6001600160a01b038481165f81815260ca602090815260409182902080546001600160a01b031916948616948517905581519283528201929092527f8c6e353968e7ffd60dba22ff7d2a4354af301f9d41858a35668e7292ec1301b6910160405180910390a1505b50506001600160a01b039081165f90815260ca60205260409020541690565b610858610b07565b6001600160a01b0381166108bd5760405162461bcd60e51b815260206004820152602660248201527f4f776e61626c653a206e6577206f776e657220697320746865207a65726f206160448201526564647265737360d01b60648201526084016102e1565b61037c81610b61565b60606001600160a01b03821661091e5760405162461bcd60e51b815260206004820152601d60248201527f4f776e657220616464726573732063616e6e6f74206265207a65726f2e00000060448201526064016102e1565b5f6040518060200161092f90610fa8565b601f1982820381018352601f9091011660408181526001600160a01b0386166020830152308183015280518083038201815260608301909152919250610979918391608001611168565b604051602081830303815290604052915050919050565b61037c610b07565b7f4910fdfa16fed3260ed0e7147f7cc6da11a60208b5b9406d12a635614ffd91435460ff16156109d0576109cb83610c8b565b505050565b826001600160a01b03166352d1902d6040518163ffffffff1660e01b8152600401602060405180830381865afa925050508015610a2a575060408051601f3d908101601f19168201909252610a279181019061117c565b60015b610a8d5760405162461bcd60e51b815260206004820152602e60248201527f45524331393637557067726164653a206e657720696d706c656d656e7461746960448201526d6f6e206973206e6f74205555505360901b60648201526084016102e1565b5f80516020611d878339815191528114610afb5760405162461bcd60e51b815260206004820152602960248201527f45524331393637557067726164653a20756e737570706f727465642070726f786044820152681a58589b195555525160ba1b60648201526084016102e1565b506109cb838383610d26565b6033546001600160a01b031633146105625760405162461bcd60e51b815260206004820181905260248201527f4f776e61626c653a2063616c6c6572206973206e6f7420746865206f776e657260448201526064016102e1565b603380546001600160a01b038381166001600160a01b0319831681179093556040519116919082907f8be0079c531659141344cd1fd0a4f28419497f9722a3daafe3b4186f6b6457e0905f90a35050565b5f54610100900460ff16610bd85760405162461bcd60e51b81526004016102e190611193565b610562610d50565b5f54610100900460ff166105625760405162461bcd60e51b81526004016102e190611193565b60c9545f908190610c20906001600160a01b031686610d7f565b60405163485cc95560e01b81526001600160a01b03868116600483015285811660248301529192509082169063485cc955906044015f604051808303815f87803b158015610c6c575f80fd5b505af1158015610c7e573d5f803e3d5ffd5b5092979650505050505050565b6001600160a01b0381163b610cf85760405162461bcd60e51b815260206004820152602d60248201527f455243313936373a206e657720696d706c656d656e746174696f6e206973206e60448201526c1bdd08184818dbdb9d1c9858dd609a1b60648201526084016102e1565b5f80516020611d8783398151915280546001600160a01b0319166001600160a01b0392909216919091179055565b610d2f83610e1f565b5f82511180610d3b5750805b156109cb57610d4a8383610e5e565b50505050565b5f54610100900460ff16610d765760405162461bcd60e51b81526004016102e190611193565b61056233610b61565b5f763d602d80600a3d3981f3363d3d373d3d3d363d730000008360601b60e81c175f526e5af43d82803e903d91602b57fd5bf38360781b1760205281603760095ff590506001600160a01b038116610e195760405162461bcd60e51b815260206004820152601760248201527f455243313136373a2063726561746532206661696c656400000000000000000060448201526064016102e1565b92915050565b610e2881610c8b565b6040516001600160a01b038216907fbc7cd75a20ee27fd9adebab32041f755214dbc6bffa90cc0225b39da2e5c2d3b905f90a250565b6060610e838383604051806060016040528060278152602001611da760279139610e8a565b9392505050565b60605f80856001600160a01b031685604051610ea691906111de565b5f60405180830381855af49150503d805f8114610ede576040519150601f19603f3d011682016040523d82523d5f602084013e610ee3565b606091505b5091509150610ef486838387610efe565b9695505050505050565b60608315610f6c5782515f03610f65576001600160a01b0385163b610f655760405162461bcd60e51b815260206004820152601d60248201527f416464726573733a2063616c6c20746f206e6f6e2d636f6e747261637400000060448201526064016102e1565b5081610f76565b610f768383610f7e565b949350505050565b815115610f8e5781518083602001fd5b8060405162461bcd60e51b81526004016102e191906111e9565b610b688061121f83390190565b80356001600160a01b0381168114610fcb575f80fd5b919050565b5f60208284031215610fe0575f80fd5b610e8382610fb5565b634e487b7160e01b5f52604160045260245ffd5b5f806040838503121561100e575f80fd5b61101783610fb5565b9150602083013567ffffffffffffffff80821115611033575f80fd5b818501915085601f830112611046575f80fd5b81358181111561105857611058610fe9565b604051601f8201601f19908116603f0116810190838211818310171561108057611080610fe9565b81604052828152886020848701011115611098575f80fd5b826020860160208301375f6020848301015280955050505050509250929050565b6020808252602c908201527f46756e6374696f6e206d7573742062652063616c6c6564207468726f7567682060408201526b19195b1959d85d1958d85b1b60a21b606082015260800190565b6020808252602c908201527f46756e6374696f6e206d7573742062652063616c6c6564207468726f7567682060408201526b6163746976652070726f787960a01b606082015260800190565b5f81518060208401855e5f93019283525090919050565b5f610f766111768386611151565b84611151565b5f6020828403121561118c575f80fd5b5051919050565b6020808252602b908201527f496e697469616c697a61626c653a20636f6e7472616374206973206e6f74206960408201526a6e697469616c697a696e6760a81b606082015260800190565b5f610e838284611151565b602081525f82518060208401528060208501604085015e5f604082850101526040601f19601f8301168401019150509291505056fe6080604052348015600e575f80fd5b50610b4c8061001c5f395ff3fe608060405234801561000f575f80fd5b5060043610610055575f3560e01c8063485cc9551461005957806388cc58e4146100a65780638da5cb5b146100cf578063b0f479a1146100e1578063eedc3c50146100f2575b5f80fd5b6100a46100673660046107d5565b5f80546001600160a01b039384166001600160a01b0319918216179091556001805492909316918116919091179091556002805490911633179055565b005b6002546001600160a01b03165b6040516001600160a01b03909116815260200160405180910390f35b5f546100b3906001600160a01b031681565b6001546001600160a01b03166100b3565b6100a461010036600461090a565b6001546001600160a01b0316331461015f5760405162461bcd60e51b815260206004820152601b60248201527f43616c6c61626c65206f6e6c792062792074686520726f75746572000000000060448201526064015b60405180910390fd5b5f5b8251811015610267575f83828151811061017d5761017d610a74565b60200260200101515f01516001600160a01b03168483815181106101a3576101a3610a74565b6020026020010151602001518584815181106101c1576101c1610a74565b6020026020010151604001516040516101da9190610a88565b5f6040518083038185875af1925050503d805f8114610214576040519150601f19603f3d011682016040523d82523d5f602084013e610219565b606091505b505090508061025e5760405162461bcd60e51b815260206004820152601160248201527010985d18da0818d85b1b0819985a5b1959607a1b6044820152606401610156565b50600101610161565b506102718161027e565b61027a8161042f565b5050565b5f8060015f9054906101000a90046001600160a01b03166001600160a01b031663185fcffe6040518163ffffffff1660e01b8152600401602060405180830381865afa1580156102d0573d5f803e3d5ffd5b505050506040513d601f19601f820116820180604052508101906102f49190610a9e565b90505f5b8351811015610429575f84828151811061031457610314610a74565b6020026020010151905073eeeeeeeeeeeeeeeeeeeeeeeeeeeeeeeeeeeeeeee6001600160a01b0316816001600160a01b031603610380576127106103588447610ab5565b6103629190610ad8565b60015490945061037b906001600160a01b031685610547565b610420565b6040516370a0823160e01b81523060048201525f906001600160a01b038316906370a0823190602401602060405180830381865afa1580156103c4573d5f803e3d5ffd5b505050506040513d601f19601f820116820180604052508101906103e89190610a9e565b90506127106103f78583610ab5565b6104019190610ad8565b60015490955061041e906001600160a01b038481169116876105da565b505b506001016102f8565b50505050565b8051801561027a575f5b81811015610542575f83828151811061045457610454610a74565b6020026020010151905073eeeeeeeeeeeeeeeeeeeeeeeeeeeeeeeeeeeeeeee6001600160a01b0316816001600160a01b0316036104ab5747156104a6575f546104a6906001600160a01b031647610547565b610539565b6040516370a0823160e01b81523060048201525f906001600160a01b038316906370a0823190602401602060405180830381865afa1580156104ef573d5f803e3d5ffd5b505050506040513d601f19601f820116820180604052508101906105139190610a9e565b9050600a811115610537575f54610537906001600160a01b038481169116836105da565b505b50600101610439565b505050565b8047101561056a5760405163cd78605960e01b8152306004820152602401610156565b5f826001600160a01b0316826040515f6040518083038185875af1925050503d805f81146105b3576040519150601f19603f3d011682016040523d82523d5f602084013e6105b8565b606091505b505090508061054257604051630a12f52160e11b815260040160405180910390fd5b604080516001600160a01b03848116602483015260448083018590528351808403909101815260649092019092526020810180516001600160e01b031663a9059cbb60e01b179052610542918591905f9061063790841683610684565b905080515f1415801561065b5750808060200190518101906106599190610af7565b155b1561054257604051635274afe760e01b81526001600160a01b0384166004820152602401610156565b606061069183835f61069a565b90505b92915050565b6060814710156106bf5760405163cd78605960e01b8152306004820152602401610156565b5f80856001600160a01b031684866040516106da9190610a88565b5f6040518083038185875af1925050503d805f8114610714576040519150601f19603f3d011682016040523d82523d5f602084013e610719565b606091505b5091509150610729868383610735565b925050505b9392505050565b60608261074a5761074582610791565b61072e565b815115801561076157506001600160a01b0384163b155b1561078a57604051639996b31560e01b81526001600160a01b0385166004820152602401610156565b508061072e565b8051156107a15780518082602001fd5b604051630a12f52160e11b815260040160405180910390fd5b80356001600160a01b03811681146107d0575f80fd5b919050565b5f80604083850312156107e6575f80fd5b6107ef836107ba565b91506107fd602084016107ba565b90509250929050565b634e487b7160e01b5f52604160045260245ffd5b6040516060810167ffffffffffffffff8111828210171561083d5761083d610806565b60405290565b604051601f8201601f1916810167ffffffffffffffff8111828210171561086c5761086c610806565b604052919050565b5f67ffffffffffffffff82111561088d5761088d610806565b5060051b60200190565b5f82601f8301126108a6575f80fd5b813560206108bb6108b683610874565b610843565b8083825260208201915060208460051b8701019350868411156108dc575f80fd5b602086015b848110156108ff576108f2816107ba565b83529183019183016108e1565b509695505050505050565b5f806040838503121561091b575f80fd5b823567ffffffffffffffff80821115610932575f80fd5b818501915085601f830112610945575f80fd5b813560206109556108b683610874565b82815260059290921b84018101918181019089841115610973575f80fd5b8286015b84811015610a475780358681111561098d575f80fd5b8701601f196060828e03820112156109a3575f80fd5b6109ab61081a565b6109b68784016107ba565b81526040830135878201526060830135898111156109d2575f80fd5b8084019350508d603f8401126109e6575f80fd5b86830135898111156109fa576109fa610806565b610a0a8884601f84011601610843565b92508083528e888983870101011115610a21575f80fd5b8060408501898501375f9083018801526040810191909152845250918301918301610977565b5096505086013592505080821115610a5d575f80fd5b50610a6a85828601610897565b9150509250929050565b634e487b7160e01b5f52603260045260245ffd5b5f82518060208501845e5f920191825250919050565b5f60208284031215610aae575f80fd5b5051919050565b808202811582820484141761069457634e487b7160e01b5f52601160045260245ffd5b5f82610af257634e487b7160e01b5f52601260045260245ffd5b500490565b5f60208284031215610b07575f80fd5b8151801515811461072e575f80fdfea2646970667358221220b951949aed69d9023358fe3e2f6b988e2c26d70c0cdd7037417767060b560d4e64736f6c63430008190033360894a13ba1a3210667c828492db98dca3e2076cc3735a920a3ca505d382bbc416464726573733a206c6f772d6c6576656c2064656c65676174652063616c6c206661696c6564a26469706673582212201c889c39d1349b3f54d445fcde87b301ede0d4af995a8df3633c673725d008f064736f6c63430008190033",
    "sourcePath": "c:/Users/Utente/Source/repos/baluni-contracts/contracts/core/BaluniV1AgentFactory.sol",
    "compiler": {
        "name": "solc",
        "version": "0.8.25+commit.b61c2a91"
    },
    "functionHashes": {
        "changeImplementation()": "6c6be5f3",
        "getAgentAddress(address)": "27d54a92",
        "getOrCreateAgent(address)": "9b76a5cd",
        "initialize()": "8129fc1c",
        "owner()": "8da5cb5b",
        "proxiableUUID()": "52d1902d",
        "renounceOwnership()": "715018a6",
        "transferOwnership(address)": "f2fde38b",
        "upgradeTo(address)": "3659cfe6",
        "upgradeToAndCall(address,bytes)": "4f1ef286",
        "userAgents(address)": "7811a785"
    },
    "gasEstimates": {
        "creation": {
            "codeDepositCost": "1536600",
            "executionCost": "infinite",
            "totalCost": "infinite"
        },
        "external": {
            "changeImplementation()": "infinite",
            "getAgentAddress(address)": "infinite",
            "getOrCreateAgent(address)": "infinite",
            "initialize()": "infinite",
            "owner()": "2385",
            "proxiableUUID()": "infinite",
            "renounceOwnership()": "infinite",
            "transferOwnership(address)": "28443",
            "upgradeTo(address)": "infinite",
            "upgradeToAndCall(address,bytes)": "infinite",
            "userAgents(address)": "2566"
        },
        "internal": {
            "_authorizeUpgrade(address)": "infinite",
            "_createAgent(bytes32,address,address)": "infinite",
            "getBytecode(address)": "infinite",
            "isContract(address)": "infinite"
        }
    }
}