{
  "_format": "hh-sol-artifact-1",
  "contractName": "BaluniV1Pool",
  "sourceName": "contracts/BaluniV1Pool.sol",
  "abi": [
    {
      "inputs": [
        {
          "internalType": "address[]",
          "name": "_assets",
          "type": "address[]"
        },
        {
          "internalType": "uint256[]",
          "name": "_weights",
          "type": "uint256[]"
        },
        {
          "internalType": "uint256",
          "name": "_trigger",
          "type": "uint256"
        },
        {
          "internalType": "address",
          "name": "_registry",
          "type": "address"
        }
      ],
      "stateMutability": "nonpayable",
      "type": "constructor"
    },
    {
      "inputs": [
        {
          "internalType": "address",
          "name": "spender",
          "type": "address"
        },
        {
          "internalType": "uint256",
          "name": "allowance",
          "type": "uint256"
        },
        {
          "internalType": "uint256",
          "name": "needed",
          "type": "uint256"
        }
      ],
      "name": "ERC20InsufficientAllowance",
      "type": "error"
    },
    {
      "inputs": [
        {
          "internalType": "address",
          "name": "sender",
          "type": "address"
        },
        {
          "internalType": "uint256",
          "name": "balance",
          "type": "uint256"
        },
        {
          "internalType": "uint256",
          "name": "needed",
          "type": "uint256"
        }
      ],
      "name": "ERC20InsufficientBalance",
      "type": "error"
    },
    {
      "inputs": [
        {
          "internalType": "address",
          "name": "approver",
          "type": "address"
        }
      ],
      "name": "ERC20InvalidApprover",
      "type": "error"
    },
    {
      "inputs": [
        {
          "internalType": "address",
          "name": "receiver",
          "type": "address"
        }
      ],
      "name": "ERC20InvalidReceiver",
      "type": "error"
    },
    {
      "inputs": [
        {
          "internalType": "address",
          "name": "sender",
          "type": "address"
        }
      ],
      "name": "ERC20InvalidSender",
      "type": "error"
    },
    {
      "inputs": [
        {
          "internalType": "address",
          "name": "spender",
          "type": "address"
        }
      ],
      "name": "ERC20InvalidSpender",
      "type": "error"
    },
    {
      "inputs": [],
      "name": "ReentrancyGuardReentrantCall",
      "type": "error"
    },
    {
      "anonymous": false,
      "inputs": [
        {
          "indexed": true,
          "internalType": "address",
          "name": "owner",
          "type": "address"
        },
        {
          "indexed": true,
          "internalType": "address",
          "name": "spender",
          "type": "address"
        },
        {
          "indexed": false,
          "internalType": "uint256",
          "name": "value",
          "type": "uint256"
        }
      ],
      "name": "Approval",
      "type": "event"
    },
    {
      "anonymous": false,
      "inputs": [
        {
          "indexed": true,
          "internalType": "address",
          "name": "user",
          "type": "address"
        },
        {
          "indexed": false,
          "internalType": "uint256",
          "name": "sharesBurned",
          "type": "uint256"
        }
      ],
      "name": "Burn",
      "type": "event"
    },
    {
      "anonymous": false,
      "inputs": [
        {
          "indexed": true,
          "internalType": "address",
          "name": "to",
          "type": "address"
        },
        {
          "indexed": false,
          "internalType": "uint256",
          "name": "sharesMinted",
          "type": "uint256"
        }
      ],
      "name": "Mint",
      "type": "event"
    },
    {
      "anonymous": false,
      "inputs": [
        {
          "indexed": true,
          "internalType": "address",
          "name": "by",
          "type": "address"
        },
        {
          "indexed": false,
          "internalType": "address[]",
          "name": "assets",
          "type": "address[]"
        }
      ],
      "name": "RebalancePerformed",
      "type": "event"
    },
    {
      "anonymous": false,
      "inputs": [
        {
          "indexed": true,
          "internalType": "address",
          "name": "user",
          "type": "address"
        },
        {
          "indexed": true,
          "internalType": "address",
          "name": "fromToken",
          "type": "address"
        },
        {
          "indexed": true,
          "internalType": "address",
          "name": "toToken",
          "type": "address"
        },
        {
          "indexed": false,
          "internalType": "uint256",
          "name": "amountIn",
          "type": "uint256"
        },
        {
          "indexed": false,
          "internalType": "uint256",
          "name": "amountOut",
          "type": "uint256"
        }
      ],
      "name": "Swap",
      "type": "event"
    },
    {
      "anonymous": false,
      "inputs": [
        {
          "indexed": true,
          "internalType": "address",
          "name": "from",
          "type": "address"
        },
        {
          "indexed": true,
          "internalType": "address",
          "name": "to",
          "type": "address"
        },
        {
          "indexed": false,
          "internalType": "uint256",
          "name": "value",
          "type": "uint256"
        }
      ],
      "name": "Transfer",
      "type": "event"
    },
    {
      "anonymous": false,
      "inputs": [
        {
          "indexed": true,
          "internalType": "address",
          "name": "user",
          "type": "address"
        },
        {
          "indexed": false,
          "internalType": "uint256[]",
          "name": "amountsAdded",
          "type": "uint256[]"
        }
      ],
      "name": "WeightsRebalanced",
      "type": "event"
    },
    {
      "inputs": [],
      "name": "ONE",
      "outputs": [
        {
          "internalType": "uint256",
          "name": "",
          "type": "uint256"
        }
      ],
      "stateMutability": "view",
      "type": "function"
    },
    {
      "inputs": [
        {
          "internalType": "address",
          "name": "owner",
          "type": "address"
        },
        {
          "internalType": "address",
          "name": "spender",
          "type": "address"
        }
      ],
      "name": "allowance",
      "outputs": [
        {
          "internalType": "uint256",
          "name": "",
          "type": "uint256"
        }
      ],
      "stateMutability": "view",
      "type": "function"
    },
    {
      "inputs": [
        {
          "internalType": "address",
          "name": "spender",
          "type": "address"
        },
        {
          "internalType": "uint256",
          "name": "value",
          "type": "uint256"
        }
      ],
      "name": "approve",
      "outputs": [
        {
          "internalType": "bool",
          "name": "",
          "type": "bool"
        }
      ],
      "stateMutability": "nonpayable",
      "type": "function"
    },
    {
      "inputs": [
        {
          "internalType": "uint256",
          "name": "",
          "type": "uint256"
        }
      ],
      "name": "assetInfos",
      "outputs": [
        {
          "internalType": "address",
          "name": "asset",
          "type": "address"
        },
        {
          "internalType": "uint256",
          "name": "weight",
          "type": "uint256"
        }
      ],
      "stateMutability": "view",
      "type": "function"
    },
    {
      "inputs": [
        {
          "internalType": "uint256",
          "name": "assetIndex",
          "type": "uint256"
        }
      ],
      "name": "assetLiquidity",
      "outputs": [
        {
          "internalType": "uint256",
          "name": "",
          "type": "uint256"
        }
      ],
      "stateMutability": "view",
      "type": "function"
    },
    {
      "inputs": [
        {
          "internalType": "address",
          "name": "account",
          "type": "address"
        }
      ],
      "name": "balanceOf",
      "outputs": [
        {
          "internalType": "uint256",
          "name": "",
          "type": "uint256"
        }
      ],
      "stateMutability": "view",
      "type": "function"
    },
    {
      "inputs": [],
      "name": "baseAsset",
      "outputs": [
        {
          "internalType": "address",
          "name": "",
          "type": "address"
        }
      ],
      "stateMutability": "view",
      "type": "function"
    },
    {
      "inputs": [
        {
          "internalType": "address",
          "name": "to",
          "type": "address"
        }
      ],
      "name": "burn",
      "outputs": [
        {
          "internalType": "uint256[]",
          "name": "",
          "type": "uint256[]"
        }
      ],
      "stateMutability": "nonpayable",
      "type": "function"
    },
    {
      "inputs": [],
      "name": "computeTotalValuation",
      "outputs": [
        {
          "internalType": "uint256",
          "name": "totalVal",
          "type": "uint256"
        },
        {
          "internalType": "uint256[]",
          "name": "valuations",
          "type": "uint256[]"
        }
      ],
      "stateMutability": "view",
      "type": "function"
    },
    {
      "inputs": [],
      "name": "decimals",
      "outputs": [
        {
          "internalType": "uint8",
          "name": "",
          "type": "uint8"
        }
      ],
      "stateMutability": "view",
      "type": "function"
    },
    {
      "inputs": [
        {
          "internalType": "address",
          "name": "fromToken",
          "type": "address"
        },
        {
          "internalType": "address",
          "name": "toToken",
          "type": "address"
        },
        {
          "internalType": "uint256",
          "name": "amount",
          "type": "uint256"
        }
      ],
      "name": "getAmountOut",
      "outputs": [
        {
          "internalType": "uint256",
          "name": "",
          "type": "uint256"
        }
      ],
      "stateMutability": "view",
      "type": "function"
    },
    {
      "inputs": [
        {
          "internalType": "address",
          "name": "asset",
          "type": "address"
        }
      ],
      "name": "getAssetReserve",
      "outputs": [
        {
          "internalType": "uint256",
          "name": "",
          "type": "uint256"
        }
      ],
      "stateMutability": "view",
      "type": "function"
    },
    {
      "inputs": [],
      "name": "getAssets",
      "outputs": [
        {
          "internalType": "address[]",
          "name": "",
          "type": "address[]"
        }
      ],
      "stateMutability": "view",
      "type": "function"
    },
    {
      "inputs": [],
      "name": "getDeviation",
      "outputs": [
        {
          "internalType": "bool[]",
          "name": "directions",
          "type": "bool[]"
        },
        {
          "internalType": "uint256[]",
          "name": "deviations",
          "type": "uint256[]"
        }
      ],
      "stateMutability": "view",
      "type": "function"
    },
    {
      "inputs": [],
      "name": "getReserves",
      "outputs": [
        {
          "internalType": "uint256[]",
          "name": "",
          "type": "uint256[]"
        }
      ],
      "stateMutability": "view",
      "type": "function"
    },
    {
      "inputs": [],
      "name": "getWeights",
      "outputs": [
        {
          "internalType": "uint256[]",
          "name": "",
          "type": "uint256[]"
        }
      ],
      "stateMutability": "view",
      "type": "function"
    },
    {
      "inputs": [],
      "name": "isRebalanceNeeded",
      "outputs": [
        {
          "internalType": "bool",
          "name": "",
          "type": "bool"
        }
      ],
      "stateMutability": "view",
      "type": "function"
    },
    {
      "inputs": [],
      "name": "liquidity",
      "outputs": [
        {
          "internalType": "uint256",
          "name": "",
          "type": "uint256"
        }
      ],
      "stateMutability": "view",
      "type": "function"
    },
    {
      "inputs": [
        {
          "internalType": "address",
          "name": "to",
          "type": "address"
        },
        {
          "internalType": "uint256[]",
          "name": "amounts",
          "type": "uint256[]"
        }
      ],
      "name": "mint",
      "outputs": [
        {
          "internalType": "uint256",
          "name": "",
          "type": "uint256"
        }
      ],
      "stateMutability": "nonpayable",
      "type": "function"
    },
    {
      "inputs": [],
      "name": "name",
      "outputs": [
        {
          "internalType": "string",
          "name": "",
          "type": "string"
        }
      ],
      "stateMutability": "view",
      "type": "function"
    },
    {
      "inputs": [],
      "name": "performRebalanceIfNeeded",
      "outputs": [
        {
          "internalType": "uint256[]",
          "name": "amountsToAdd",
          "type": "uint256[]"
        },
        {
          "internalType": "uint256[]",
          "name": "amountsToRemove",
          "type": "uint256[]"
        }
      ],
      "stateMutability": "nonpayable",
      "type": "function"
    },
    {
      "inputs": [
        {
          "internalType": "address",
          "name": "receiver",
          "type": "address"
        }
      ],
      "name": "rebalanceWeights",
      "outputs": [
        {
          "internalType": "uint256[]",
          "name": "",
          "type": "uint256[]"
        }
      ],
      "stateMutability": "nonpayable",
      "type": "function"
    },
    {
      "inputs": [],
      "name": "registry",
      "outputs": [
        {
          "internalType": "contract IBaluniV1Registry",
          "name": "",
          "type": "address"
        }
      ],
      "stateMutability": "view",
      "type": "function"
    },
    {
      "inputs": [
        {
          "internalType": "address",
          "name": "fromToken",
          "type": "address"
        },
        {
          "internalType": "address",
          "name": "toToken",
          "type": "address"
        },
        {
          "internalType": "uint256",
          "name": "amount",
          "type": "uint256"
        },
        {
          "internalType": "address",
          "name": "receiver",
          "type": "address"
        }
      ],
      "name": "swap",
      "outputs": [
        {
          "internalType": "uint256",
          "name": "toSend",
          "type": "uint256"
        }
      ],
      "stateMutability": "nonpayable",
      "type": "function"
    },
    {
      "inputs": [],
      "name": "symbol",
      "outputs": [
        {
          "internalType": "string",
          "name": "",
          "type": "string"
        }
      ],
      "stateMutability": "view",
      "type": "function"
    },
    {
      "inputs": [],
      "name": "totalSupply",
      "outputs": [
        {
          "internalType": "uint256",
          "name": "",
          "type": "uint256"
        }
      ],
      "stateMutability": "view",
      "type": "function"
    },
    {
      "inputs": [
        {
          "internalType": "address",
          "name": "to",
          "type": "address"
        },
        {
          "internalType": "uint256",
          "name": "value",
          "type": "uint256"
        }
      ],
      "name": "transfer",
      "outputs": [
        {
          "internalType": "bool",
          "name": "",
          "type": "bool"
        }
      ],
      "stateMutability": "nonpayable",
      "type": "function"
    },
    {
      "inputs": [
        {
          "internalType": "address",
          "name": "from",
          "type": "address"
        },
        {
          "internalType": "address",
          "name": "to",
          "type": "address"
        },
        {
          "internalType": "uint256",
          "name": "value",
          "type": "uint256"
        }
      ],
      "name": "transferFrom",
      "outputs": [
        {
          "internalType": "bool",
          "name": "",
          "type": "bool"
        }
      ],
      "stateMutability": "nonpayable",
      "type": "function"
    },
    {
      "inputs": [],
      "name": "trigger",
      "outputs": [
        {
          "internalType": "uint256",
          "name": "",
          "type": "uint256"
        }
      ],
      "stateMutability": "view",
      "type": "function"
    },
    {
      "inputs": [],
      "name": "unitPrice",
      "outputs": [
        {
          "internalType": "uint256",
          "name": "",
          "type": "uint256"
        }
      ],
      "stateMutability": "view",
      "type": "function"
    }
  ],
  "bytecode": "0x608060405234801561000f575f80fd5b50604051613e96380380613e9683398101604081905261002e91610825565b60405180604001604052806009815260200168042616c756e69204c560bc1b81525060405180604001604052806009815260200168042414c554e492d4c560bc1b8152508160039081610081919061097e565b50600461008e828261097e565b5050600160055550600a80546001600160a01b0319166001600160a01b038316179055670de0b6b3a76400006008555f6100c88585610300565b90508061011c5760405162461bcd60e51b815260206004820152601560248201527f496e697469616c697a6174696f6e206661696c6564000000000000000000000060448201526064015b60405180910390fd5b6007839055600a5460408051631bf01e9b60e01b815290515f926001600160a01b031691631bf01e9b9160048083019260209291908290030181865afa158015610168573d5f803e3d5ffd5b505050506040513d601f19601f8201168201806040525081019061018c9190610a3d565b6001600160a01b0316036101e25760405162461bcd60e51b815260206004820152601a60248201527f496e76616c6964206261736520617373657420616464726573730000000000006044820152606401610113565b600a5f9054906101000a90046001600160a01b03166001600160a01b0316636c9c00786040518163ffffffff1660e01b8152600401602060405180830381865afa158015610232573d5f803e3d5ffd5b505050506040513d601f19601f820116820180604052508101906102569190610a3d565b600980546001600160a01b0319166001600160a01b03929092169190911790555f805b85518110156102b15785818151811061029457610294610a5d565b6020026020010151826102a79190610a71565b9150600101610279565b5080612710146102f55760405162461bcd60e51b815260206004820152600f60248201526e496e76616c6964207765696768747360881b6044820152606401610113565b505050505050610ac6565b5f80600a5f9054906101000a90046001600160a01b03166001600160a01b031663cff49d686040518163ffffffff1660e01b8152600401602060405180830381865afa158015610352573d5f803e3d5ffd5b505050506040513d601f19601f820116820180604052508101906103769190610a3d565b90505f6001600160a01b0316600a5f9054906101000a90046001600160a01b03166001600160a01b031663cff49d686040518163ffffffff1660e01b8152600401602060405180830381865afa1580156103d2573d5f803e3d5ffd5b505050506040513d601f19601f820116820180604052508101906103f69190610a3d565b6001600160a01b03160361044c5760405162461bcd60e51b815260206004820152601a60248201527f496e76616c696420726562616c616e63657220616464726573730000000000006044820152606401610113565b82518451146104a85760405162461bcd60e51b815260206004820152602260248201527f41737365747320616e642077656967687473206c656e677468206d69736d61746044820152610c6d60f31b6064820152608401610113565b5f5b845181101561072b575f6001600160a01b03168582815181106104cf576104cf610a5d565b60200260200101516001600160a01b03160361052d5760405162461bcd60e51b815260206004820152601560248201527f496e76616c6964206173736574206164647265737300000000000000000000006044820152606401610113565b5f84828151811061054057610540610a5d565b6020026020010151116105865760405162461bcd60e51b815260206004820152600e60248201526d125b9d985b1a59081dd95a59da1d60921b6044820152606401610113565b600660405180604001604052808784815181106105a5576105a5610a5d565b60200260200101516001600160a01b031681526020018684815181106105cd576105cd610a5d565b6020908102919091018101519091528254600180820185555f948552828520845160029093020180546001600160a01b0319166001600160a01b039093169290921782559290910151910155855186908390811061062d5761062d610a5d565b6020908102919091010151604051636eb1769f60e11b81523060048201526001600160a01b0385811660248301529192509082169063dd62ed3e90604401602060405180830381865afa158015610686573d5f803e3d5ffd5b505050506040513d601f19601f820116820180604052508101906106aa9190610a90565b5f036107225760405163095ea7b360e01b81526001600160a01b0384811660048301525f19602483015282169063095ea7b3906044016020604051808303815f875af11580156106fc573d5f803e3d5ffd5b505050506040513d601f19601f820116820180604052508101906107209190610aa7565b505b506001016104aa565b5060019150505b92915050565b634e487b7160e01b5f52604160045260245ffd5b604051601f8201601f191681016001600160401b038111828210171561077457610774610738565b604052919050565b5f6001600160401b0382111561079457610794610738565b5060051b60200190565b80516001600160a01b03811681146107b4575f80fd5b919050565b5f82601f8301126107c8575f80fd5b815160206107dd6107d88361077c565b61074c565b8083825260208201915060208460051b8701019350868411156107fe575f80fd5b602086015b8481101561081a5780518352918301918301610803565b509695505050505050565b5f805f8060808587031215610838575f80fd5b84516001600160401b038082111561084e575f80fd5b818701915087601f830112610861575f80fd5b815160206108716107d88361077c565b82815260059290921b8401810191818101908b84111561088f575f80fd5b948201945b838610156108b4576108a58661079e565b82529482019490820190610894565b918a01519198509093505050808211156108cc575f80fd5b506108d9878288016107b9565b935050604085015191506108ef6060860161079e565b905092959194509250565b600181811c9082168061090e57607f821691505b60208210810361092c57634e487b7160e01b5f52602260045260245ffd5b50919050565b601f82111561097957805f5260205f20601f840160051c810160208510156109575750805b601f840160051c820191505b81811015610976575f8155600101610963565b50505b505050565b81516001600160401b0381111561099757610997610738565b6109ab816109a584546108fa565b84610932565b602080601f8311600181146109de575f84156109c75750858301515b5f19600386901b1c1916600185901b178555610a35565b5f85815260208120601f198616915b82811015610a0c578886015182559484019460019091019084016109ed565b5085821015610a2957878501515f19600388901b60f8161c191681555b505060018460011b0185555b505050505050565b5f60208284031215610a4d575f80fd5b610a568261079e565b9392505050565b634e487b7160e01b5f52603260045260245ffd5b8082018082111561073257634e487b7160e01b5f52601160045260245ffd5b5f60208284031215610aa0575f80fd5b5051919050565b5f60208284031215610ab7575f80fd5b81518015158114610a56575f80fd5b6133c380610ad35f395ff3fe608060405234801561000f575f80fd5b50600436106101d1575f3560e01c80637fec8d38116100fe578063c2ee3a081161009e578063dd62ed3e1161006e578063dd62ed3e146103ef578063de836ebd14610427578063e73faa2d1461043a578063f47b45e814610442575f80fd5b8063c2ee3a081461038e578063cdf456e114610397578063cf8fa764146103aa578063d14ef46d146103bd575f80fd5b80638a77c8dc116100d95780638a77c8dc1461035857806395d89b4114610360578063a9059cbb14610368578063b2b55d701461037b575f80fd5b80637fec8d381461032657806389ab35321461032f57806389afcb4414610345575f80fd5b806323b872dd1161017457806367e4ac2c1161014457806367e4ac2c146102ab5780636e81221c146102c057806370a08231146102d35780637b103999146102fb575f80fd5b806323b872dd14610260578063313ce5671461027357806336bf6e39146102825780634aa0665214610298575f80fd5b8063095ea7b3116101af578063095ea7b31461021b57806318160ddd1461023e5780631a6865021461025057806322acb86714610258575f80fd5b806306fdde03146101d55780630723c999146101f35780630902f1ac14610213575b5f80fd5b6101dd610458565b6040516101ea9190612dca565b60405180910390f35b610206610201366004612e16565b6104e8565b6040516101ea9190612e6b565b6102066107eb565b61022e610229366004612e7d565b6108ec565b60405190151581526020016101ea565b6002545b6040519081526020016101ea565b610242610905565b610206610916565b61022e61026e366004612ea7565b6109b6565b604051601281526020016101ea565b61028a6109d9565b6040516101ea929190612ee5565b6102426102a6366004612ea7565b6109ed565b6102b3610ae8565b6040516101ea9190612f35565b6102426102ce366004612f47565b610ba3565b6102426102e1366004612e16565b6001600160a01b03165f9081526020819052604090205490565b600a5461030e906001600160a01b031681565b6040516001600160a01b0390911681526020016101ea565b61024260075481565b610337610e58565b6040516101ea929190612f97565b610206610353366004612e16565b611013565b61022e611626565b6101dd6116a0565b61022e610376366004612e7d565b6116af565b610242610389366004612e16565b6116bc565b61024260085481565b60095461030e906001600160a01b031681565b6102426103b8366004612ff0565b6117c4565b6103d06103cb366004612ff0565b611843565b604080516001600160a01b0390931683526020830191909152016101ea565b6102426103fd366004613007565b6001600160a01b039182165f90815260016020908152604080832093909416825291909152205490565b6102426104353660046130a6565b611879565b610242611c44565b61044a611c8c565b6040516101ea92919061314c565b60606003805461046790613170565b80601f016020809104026020016040519081016040528092919081815260200182805461049390613170565b80156104de5780601f106104b5576101008083540402835291602001916104de565b820191905f5260205f20905b8154815290600101906020018083116104c157829003601f168201915b5050505050905090565b60605f600a5f9054906101000a90046001600160a01b03166001600160a01b0316631acb61416040518163ffffffff1660e01b8152600401602060405180830381865afa15801561053b573d5f803e3d5ffd5b505050506040513d601f19601f8201168201806040525081019061055f91906131a2565b9050336001600160a01b038216146105be5760405162461bcd60e51b815260206004820152600e60248201527f4f6e6c792050657269706865727900000000000000000000000000000000000060448201526064015b60405180910390fd5b6105c6611626565b6106125760405162461bcd60e51b815260206004820152601460248201527f526562616c616e6365206e6f74206e656564656400000000000000000000000060448201526064016105b5565b5f8061061c611dc3565b915091505f61062b8383611ef3565b90505f61063782611ff5565b90505f60095f9054906101000a90046001600160a01b03166001600160a01b031663313ce5676040518163ffffffff1660e01b8152600401602060405180830381865afa15801561068a573d5f803e3d5ffd5b505050506040513d601f19601f820116820180604052508101906106ae91906131bd565b60ff1690506106c581670de0b6b3a76400006131f1565b6106cf9083613204565b6006549092505f9067ffffffffffffffff8111156106ef576106ef61303e565b604051908082528060200260200182016040528015610718578160200160208202803683370190505b5090505f5b8451811015610791575f8582815181106107395761073961321b565b602002602001015111156107895761076a8186838151811061075d5761075d61321b565b6020026020010151612031565b82828151811061077c5761077c61321b565b6020026020010181815250505b60010161071d565b5061079c8984612101565b336001600160a01b03167fa95ad530009c6f929555e70a66aadbeae7231e45756c5b028ca77fbaa376e73e856040516107d59190612e6b565b60405180910390a2965050505050505b50919050565b60605f600a5f9054906101000a90046001600160a01b03166001600160a01b0316631acb61416040518163ffffffff1660e01b8152600401602060405180830381865afa15801561083e573d5f803e3d5ffd5b505050506040513d601f19601f8201168201806040525081019061086291906131a2565b6040517f3e99c1e40000000000000000000000000000000000000000000000000000000081523060048201529091506001600160a01b03821690633e99c1e4906024015f60405180830381865afa1580156108bf573d5f803e3d5ffd5b505050506040513d5f823e601f3d908101601f191682016040526108e6919081019061322f565b91505090565b5f336108f9818585612152565b60019150505b92915050565b5f8061090f611dc3565b5092915050565b6006546060905f9067ffffffffffffffff8111156109365761093661303e565b60405190808252806020026020018201604052801561095f578160200160208202803683370190505b5090505f5b6006548110156107e557600681815481106109815761098161321b565b905f5260205f209060020201600101548282815181106109a3576109a361321b565b6020908102919091010152600101610964565b5f336109c3858285612164565b6109ce858585612217565b506001949350505050565b5f60606109e4611dc3565b90939092509050565b5f80600a5f9054906101000a90046001600160a01b03166001600160a01b031663cff49d686040518163ffffffff1660e01b8152600401602060405180830381865afa158015610a3f573d5f803e3d5ffd5b505050506040513d601f19601f82011682018060405250810190610a6391906131a2565b60405163248391ff60e01b81526001600160a01b0387811660048301528681166024830152604482018690529192509082169063248391ff906064015b602060405180830381865afa158015610abb573d5f803e3d5ffd5b505050506040513d601f19601f82011682018060405250810190610adf91906132bb565b95945050505050565b6006546060905f9067ffffffffffffffff811115610b0857610b0861303e565b604051908082528060200260200182016040528015610b31578160200160208202803683370190505b5090505f5b6006548110156107e55760068181548110610b5357610b5361321b565b5f91825260209091206002909102015482516001600160a01b0390911690839083908110610b8357610b8361321b565b6001600160a01b0390921660209283029190910190910152600101610b36565b5f610bac6122a6565b600a54604080517f85462d6f00000000000000000000000000000000000000000000000000000000815290515f926001600160a01b0316916385462d6f9160048083019260209291908290030181865afa158015610c0c573d5f803e3d5ffd5b505050506040513d601f19601f82011682018060405250810190610c3091906132bb565b9050846001600160a01b0316866001600160a01b031603610c935760405162461bcd60e51b815260206004820152601a60248201527f43616e6e6f742073776170207468652073616d6520746f6b656e00000000000060448201526064016105b5565b5f8411610ce25760405162461bcd60e51b815260206004820181905260248201527f416d6f756e74206d7573742062652067726561746572207468616e207a65726f60448201526064016105b5565b5f610cee8787876109ed565b905080610cfa876116bc565b1015610d485760405162461bcd60e51b815260206004820152601660248201527f496e73756666696369656e74204c69717569646974790000000000000000000060448201526064016105b5565b5f612710610d568484613204565b610d6091906132d2565b9050610d6c81836131f1565b93505f8411610de35760405162461bcd60e51b815260206004820152602560248201527f416d6f756e7420746f2073656e64206d7573742062652067726561746572207460448201527f68616e203000000000000000000000000000000000000000000000000000000060648201526084016105b5565b866001600160a01b0316886001600160a01b0316866001600160a01b03167fcd3829a3813dc3cdd188fd3d01dcf3268c16be2fdd2dd21d0665418816e460628988604051610e3b929190918252602082015260400190565b60405180910390a4505050610e506001600555565b949350505050565b6060805f80610e65611dc3565b60065491935091508067ffffffffffffffff811115610e8657610e8661303e565b604051908082528060200260200182016040528015610eaf578160200160208202803683370190505b5094508067ffffffffffffffff811115610ecb57610ecb61303e565b604051908082528060200260200182016040528015610ef4578160200160208202803683370190505b5093505f5b8181101561100b575f84848381518110610f1557610f1561321b565b6020026020010151612710610f2a9190613204565b610f3491906132d2565b90505f60068381548110610f4a57610f4a61321b565b905f5260205f20906002020160010154905080821115610fb557610f6e81836131f1565b878481518110610f8057610f8061321b565b6020026020010181815250506001888481518110610fa057610fa061321b565b91151560209283029190910190910152611001565b610fbf82826131f1565b878481518110610fd157610fd161321b565b6020026020010181815250505f888481518110610ff057610ff061321b565b911515602092830291909101909101525b5050600101610ef9565b505050509091565b60605f600a5f9054906101000a90046001600160a01b03166001600160a01b0316631acb61416040518163ffffffff1660e01b8152600401602060405180830381865afa158015611066573d5f803e3d5ffd5b505050506040513d601f19601f8201168201806040525081019061108a91906131a2565b9050336001600160a01b038216146110e45760405162461bcd60e51b815260206004820152600e60248201527f4f6e6c792050657269706865727900000000000000000000000000000000000060448201526064016105b5565b600a54604080517f85462d6f00000000000000000000000000000000000000000000000000000000815290515f926001600160a01b0316916385462d6f9160048083019260209291908290030181865afa158015611144573d5f803e3d5ffd5b505050506040513d601f19601f8201168201806040525081019061116891906132bb565b90505f600a5f9054906101000a90046001600160a01b03166001600160a01b0316631acb61416040518163ffffffff1660e01b8152600401602060405180830381865afa1580156111bb573d5f803e3d5ffd5b505050506040513d601f19601f820116820180604052508101906111df91906131a2565b305f908152602081905260409020549091508061123e5760405162461bcd60e51b815260206004820152601c60248201527f5368617265206d7573742062652067726561746572207468616e20300000000060448201526064016105b5565b5f61124860025490565b90505f81116112995760405162461bcd60e51b815260206004820152600c60248201527f4e6f206c6971756964697479000000000000000000000000000000000000000060448201526064016105b5565b6006545f9067ffffffffffffffff8111156112b6576112b661303e565b6040519080825280602002602001820160405280156112df578160200160208202803683370190505b5090505f6127106112f08786613204565b6112fa91906132d2565b90505f61130782866131f1565b90505f5b60065481101561140b575f876001600160a01b031663a3e113fb30600685815481106113395761133961321b565b5f91825260209091206002909102015460405160e084901b7fffffffff000000000000000000000000000000000000000000000000000000001681526001600160a01b03928316600482015291166024820152604401602060405180830381865afa1580156113aa573d5f803e3d5ffd5b505050506040513d601f19601f820116820180604052508101906113ce91906132bb565b9050856113db8483613204565b6113e591906132d2565b8583815181106113f7576113f761321b565b60209081029190910101525060010161130b565b50305f9081526020819052604090205481111561146a5760405162461bcd60e51b815260206004820152601d60248201527f496e73756666696369656e742042414c554e49206c697175696469747900000060448201526064016105b5565b600a54604080517f3b19e84a00000000000000000000000000000000000000000000000000000000815290515f926001600160a01b031691633b19e84a9160048083019260209291908290030181865afa1580156114ca573d5f803e3d5ffd5b505050506040513d601f19601f820116820180604052508101906114ee91906131a2565b6040517fa9059cbb0000000000000000000000000000000000000000000000000000000081526001600160a01b0382166004820152602481018590529091505f90309063a9059cbb906044016020604051808303815f875af1158015611556573d5f803e3d5ffd5b505050506040513d601f19601f8201168201806040525081019061157a91906132f1565b9050806115c95760405162461bcd60e51b815260206004820152601360248201527f466565207472616e73666572206661696c65640000000000000000000000000060448201526064016105b5565b6115d330846122e9565b8b6001600160a01b03167fcc16f5dbb4873280815c1ee09dbd06736cffcc184412cf7a71a0fdb75d397ca58460405161160e91815260200190565b60405180910390a250929a9950505050505050505050565b5f805f611631610e58565b915091505f5b8151811015611697578281815181106116525761165261321b565b6020026020010151801561168057506007548282815181106116765761167661321b565b6020026020010151115b1561168f576001935050505090565b600101611637565b505f9250505090565b60606004805461046790613170565b5f336108f9818585612217565b5f80600a5f9054906101000a90046001600160a01b03166001600160a01b0316631acb61416040518163ffffffff1660e01b8152600401602060405180830381865afa15801561170e573d5f803e3d5ffd5b505050506040513d601f19601f8201168201806040525081019061173291906131a2565b6040517fa3e113fb0000000000000000000000000000000000000000000000000000000081523060048201526001600160a01b0385811660248301529192509082169063a3e113fb90604401602060405180830381865afa158015611799573d5f803e3d5ffd5b505050506040513d601f19601f820116820180604052508101906117bd91906132bb565b9392505050565b5f806117ce611dc3565b915050805183106118215760405162461bcd60e51b815260206004820152601360248201527f496e76616c696420617373657420696e6465780000000000000000000000000060448201526064016105b5565b8083815181106118335761183361321b565b6020026020010151915050919050565b60068181548110611852575f80fd5b5f918252602090912060029091020180546001909101546001600160a01b03909116915082565b5f80600a5f9054906101000a90046001600160a01b03166001600160a01b0316631acb61416040518163ffffffff1660e01b8152600401602060405180830381865afa1580156118cb573d5f803e3d5ffd5b505050506040513d601f19601f820116820180604052508101906118ef91906131a2565b9050336001600160a01b038216146119495760405162461bcd60e51b815260206004820152600e60248201527f4f6e6c792050657269706865727900000000000000000000000000000000000060448201526064016105b5565b5f61195360025490565b90505f8061195f6107eb565b8051600654919250146119b45760405162461bcd60e51b815260206004820152601760248201527f496e76616c6964207265736572766573206c656e67746800000000000000000060448201526064016105b5565b600654611a035760405162461bcd60e51b815260206004820152600960248201527f4e6f20617373657473000000000000000000000000000000000000000000000060448201526064016105b5565b5f5b600654811015611a7e575f60068281548110611a2357611a2361321b565b5f918252602082206002909102015489516001600160a01b039091169250611a669083908b9086908110611a5957611a5961321b565b6020026020010151612336565b9050611a728186613310565b94505050600101611a05565b505f8211611af45760405162461bcd60e51b815260206004820152602260248201527f546f74616c2076616c7565206d7573742062652067726561746572207468616e60448201527f203000000000000000000000000000000000000000000000000000000000000060648201526084016105b5565b5f835f03611b03575081611b9d565b5f611b0c611dc3565b5090505f8111611b845760405162461bcd60e51b815260206004820152602660248201527f546f74616c206c6971756964697479206d75737420626520677265617465722060448201527f7468616e2030000000000000000000000000000000000000000000000000000060648201526084016105b5565b80611b8f8686613204565b611b9991906132d2565b9150505b805f03611bec5760405162461bcd60e51b815260206004820152600d60248201527f4d696e742071747920697320300000000000000000000000000000000000000060448201526064016105b5565b611bf68882612101565b876001600160a01b03167f0f6798a560793a54c3bcfe86a93cde1e73087d944c0ea20544137d412139688582604051611c3191815260200190565b60405180910390a2979650505050505050565b5f80611c4e611dc3565b5090505f611c5b60025490565b9050805f03611c6c575f9250505090565b8060085483611c7b9190613204565b611c8591906132d2565b9250505090565b6060805f600a5f9054906101000a90046001600160a01b03166001600160a01b0316631acb61416040518163ffffffff1660e01b8152600401602060405180830381865afa158015611ce0573d5f803e3d5ffd5b505050506040513d601f19601f82011682018060405250810190611d0491906131a2565b9050336001600160a01b03821614611d5e5760405162461bcd60e51b815260206004820152600e60248201527f4f6e6c792050657269706865727900000000000000000000000000000000000060448201526064016105b5565b611d66611626565b611db25760405162461bcd60e51b815260206004820152601460248201527f526562616c616e6365206e6f74206e656564656400000000000000000000000060448201526064016105b5565b611dba612408565b92509250509091565b6006545f906060908067ffffffffffffffff811115611de457611de461303e565b604051908082528060200260200182016040528015611e0d578160200160208202803683370190505b5091505f5b81811015611eed575f60068281548110611e2e57611e2e61321b565b5f91825260208220600290910201546001600160a01b03169150611e51826116bc565b6009549091506001600160a01b0390811690831603611e8e5780858481518110611e7d57611e7d61321b565b602002602001018181525050611ebc565b5f611e998383612336565b905080868581518110611eae57611eae61321b565b602002602001018181525050505b848381518110611ece57611ece61321b565b602002602001015186611ee19190613310565b95505050600101611e12565b50509091565b60065460609067ffffffffffffffff811115611f1157611f1161303e565b604051908082528060200260200182016040528015611f3a578160200160208202803683370190505b5090505f5b60065481101561090f575f61271060068381548110611f6057611f6061321b565b905f5260205f2090600202016001015486611f7b9190613204565b611f8591906132d2565b905080848381518110611f9a57611f9a61321b565b60200260200101511015611fec57838281518110611fba57611fba61321b565b602002602001015181611fcd91906131f1565b838381518110611fdf57611fdf61321b565b6020026020010181815250505b50600101611f3f565b5f805b6006548110156107e5578281815181106120145761201461321b565b6020026020010151826120279190613310565b9150600101611ff8565b600954600680545f926001600160a01b03169190859081106120555761205561321b565b5f9182526020909120600290910201546001600160a01b03160361207a5750806108ff565b5f6120b0600685815481106120915761209161321b565b5f9182526020909120600290910201546001600160a01b031684612acb565b90505f81116117bd5760405162461bcd60e51b815260206004820152601b60248201527f496e76616c696420746f6b656e20616d6f756e7420746f20616464000000000060448201526064016105b5565b6001600160a01b038216612143576040517fec442f050000000000000000000000000000000000000000000000000000000081525f60048201526024016105b5565b61214e5f8383612b87565b5050565b61215f8383836001612cc6565b505050565b6001600160a01b038381165f908152600160209081526040808320938616835292905220547fffffffffffffffffffffffffffffffffffffffffffffffffffffffffffffffff81146122115781811015612203576040517ffb8f41b20000000000000000000000000000000000000000000000000000000081526001600160a01b038416600482015260248101829052604481018390526064016105b5565b61221184848484035f612cc6565b50505050565b6001600160a01b038316612259576040517f96c6fd1e0000000000000000000000000000000000000000000000000000000081525f60048201526024016105b5565b6001600160a01b03821661229b576040517fec442f050000000000000000000000000000000000000000000000000000000081525f60048201526024016105b5565b61215f838383612b87565b6002600554036122e2576040517f3ee5aeb500000000000000000000000000000000000000000000000000000000815260040160405180910390fd5b6002600555565b6001600160a01b03821661232b576040517f96c6fd1e0000000000000000000000000000000000000000000000000000000081525f60048201526024016105b5565b61214e825f83612b87565b5f80600a5f9054906101000a90046001600160a01b03166001600160a01b031663cff49d686040518163ffffffff1660e01b8152600401602060405180830381865afa158015612388573d5f803e3d5ffd5b505050506040513d601f19601f820116820180604052508101906123ac91906131a2565b60095460405163248391ff60e01b81526001600160a01b0387811660048301529182166024820152604481018690529192505f919083169063248391ff90606401602060405180830381865afa158015610abb573d5f803e3d5ffd5b6060805f600a5f9054906101000a90046001600160a01b03166001600160a01b0316631acb61416040518163ffffffff1660e01b8152600401602060405180830381865afa15801561245c573d5f803e3d5ffd5b505050506040513d601f19601f8201168201806040525081019061248091906131a2565b90505f600a5f9054906101000a90046001600160a01b03166001600160a01b031663cff49d686040518163ffffffff1660e01b8152600401602060405180830381865afa1580156124d3573d5f803e3d5ffd5b505050506040513d601f19601f820116820180604052508101906124f791906131a2565b6006549091505f9067ffffffffffffffff8111156125175761251761303e565b604051908082528060200260200182016040528015612540578160200160208202803683370190505b506006549091505f9067ffffffffffffffff8111156125615761256161303e565b60405190808252806020026020018201604052801561258a578160200160208202803683370190505b506006549091505f9067ffffffffffffffff8111156125ab576125ab61303e565b6040519080825280602002602001820160405280156125d4578160200160208202803683370190505b506006549091505f9067ffffffffffffffff8111156125f5576125f561303e565b60405190808252806020026020018201604052801561261e578160200160208202803683370190505b506006549091505f9067ffffffffffffffff81111561263f5761263f61303e565b604051908082528060200260200182016040528015612668578160200160208202803683370190505b506006549091505f9067ffffffffffffffff8111156126895761268961303e565b6040519080825280602002602001820160405280156126b2578160200160208202803683370190505b5090505f5b60065481101561282957600681815481106126d4576126d461321b565b5f91825260209091206002909102015487516001600160a01b03909116908890839081106127045761270461321b565b60200260200101906001600160a01b031690816001600160a01b031681525050600681815481106127375761273761321b565b905f5260205f209060020201600101548682815181106127595761275961321b565b6020026020010181815250508681815181106127775761277761321b565b60209081029190910101516040517f70a082310000000000000000000000000000000000000000000000000000000081526001600160a01b038b81166004830152909116906370a0823190602401602060405180830381865afa1580156127e0573d5f803e3d5ffd5b505050506040513d601f19601f8201168201806040525081019061280491906132bb565b8582815181106128165761281661321b565b60209081029190910101526001016126b7565b505f6128336107eb565b9050876001600160a01b031663f0bf77148289896007548e8f60095f9054906101000a90046001600160a01b03166040518863ffffffff1660e01b81526004016128839796959493929190613323565b5f604051808303815f87803b15801561289a575f80fd5b505af11580156128ac573d5f803e3d5ffd5b505050505f5b600654811015612a79578781815181106128ce576128ce61321b565b60209081029190910101516040517f70a082310000000000000000000000000000000000000000000000000000000081526001600160a01b038c81166004830152909116906370a0823190602401602060405180830381865afa158015612937573d5f803e3d5ffd5b505050506040513d601f19601f8201168201806040525081019061295b91906132bb565b85828151811061296d5761296d61321b565b60200260200101818152505085818151811061298b5761298b61321b565b60200260200101518582815181106129a5576129a561321b565b60200260200101511115612a14578581815181106129c5576129c561321b565b60200260200101518582815181106129df576129df61321b565b60200260200101516129f191906131f1565b848281518110612a0357612a0361321b565b602002602001018181525050612a71565b848181518110612a2657612a2661321b565b6020026020010151868281518110612a4057612a4061321b565b6020026020010151612a5291906131f1565b838281518110612a6457612a6461321b565b6020026020010181815250505b6001016128b2565b50336001600160a01b03167f279b343370f587af7fb675ae7c8578e9c8abcc373236ad02c501a4771fe7a7b888604051612ab39190612f35565b60405180910390a25090999098509650505050505050565b5f80600a5f9054906101000a90046001600160a01b03166001600160a01b031663cff49d686040518163ffffffff1660e01b8152600401602060405180830381865afa158015612b1d573d5f803e3d5ffd5b505050506040513d601f19601f82011682018060405250810190612b4191906131a2565b60095460405163248391ff60e01b81526001600160a01b0391821660048201528682166024820152604481018690529192505f919083169063248391ff90606401610aa0565b6001600160a01b038316612bb1578060025f828254612ba69190613310565b90915550612c3a9050565b6001600160a01b0383165f9081526020819052604090205481811015612c1c576040517fe450d38c0000000000000000000000000000000000000000000000000000000081526001600160a01b038516600482015260248101829052604481018390526064016105b5565b6001600160a01b0384165f9081526020819052604090209082900390555b6001600160a01b038216612c5657600280548290039055612c74565b6001600160a01b0382165f9081526020819052604090208054820190555b816001600160a01b0316836001600160a01b03167fddf252ad1be2c89b69c2b068fc378daa952ba7f163c4a11628f55a4df523b3ef83604051612cb991815260200190565b60405180910390a3505050565b6001600160a01b038416612d08576040517fe602df050000000000000000000000000000000000000000000000000000000081525f60048201526024016105b5565b6001600160a01b038316612d4a576040517f94280d620000000000000000000000000000000000000000000000000000000081525f60048201526024016105b5565b6001600160a01b038085165f908152600160209081526040808320938716835292905220829055801561221157826001600160a01b0316846001600160a01b03167f8c5be1e5ebec7d5bd14f71427d1e84f3dd0314c0f7b2291e5b200ac8c7c3b92584604051612dbc91815260200190565b60405180910390a350505050565b602081525f82518060208401528060208501604085015e5f604082850101526040601f19601f83011684010191505092915050565b6001600160a01b0381168114612e13575f80fd5b50565b5f60208284031215612e26575f80fd5b81356117bd81612dff565b5f815180845260208085019450602084015f5b83811015612e6057815187529582019590820190600101612e44565b509495945050505050565b602081525f6117bd6020830184612e31565b5f8060408385031215612e8e575f80fd5b8235612e9981612dff565b946020939093013593505050565b5f805f60608486031215612eb9575f80fd5b8335612ec481612dff565b92506020840135612ed481612dff565b929592945050506040919091013590565b828152604060208201525f610e506040830184612e31565b5f815180845260208085019450602084015f5b83811015612e605781516001600160a01b031687529582019590820190600101612f10565b602081525f6117bd6020830184612efd565b5f805f8060808587031215612f5a575f80fd5b8435612f6581612dff565b93506020850135612f7581612dff565b9250604085013591506060850135612f8c81612dff565b939692955090935050565b604080825283519082018190525f906020906060840190828701845b82811015612fd1578151151584529284019290840190600101612fb3565b5050508381036020850152612fe68186612e31565b9695505050505050565b5f60208284031215613000575f80fd5b5035919050565b5f8060408385031215613018575f80fd5b823561302381612dff565b9150602083013561303381612dff565b809150509250929050565b634e487b7160e01b5f52604160045260245ffd5b604051601f8201601f1916810167ffffffffffffffff8111828210171561307b5761307b61303e565b604052919050565b5f67ffffffffffffffff82111561309c5761309c61303e565b5060051b60200190565b5f80604083850312156130b7575f80fd5b82356130c281612dff565b915060208381013567ffffffffffffffff8111156130de575f80fd5b8401601f810186136130ee575f80fd5b80356131016130fc82613083565b613052565b81815260059190911b8201830190838101908883111561311f575f80fd5b928401925b8284101561313d57833582529284019290840190613124565b80955050505050509250929050565b604081525f61315e6040830185612e31565b8281036020840152610adf8185612e31565b600181811c9082168061318457607f821691505b6020821081036107e557634e487b7160e01b5f52602260045260245ffd5b5f602082840312156131b2575f80fd5b81516117bd81612dff565b5f602082840312156131cd575f80fd5b815160ff811681146117bd575f80fd5b634e487b7160e01b5f52601160045260245ffd5b818103818111156108ff576108ff6131dd565b80820281158282048414176108ff576108ff6131dd565b634e487b7160e01b5f52603260045260245ffd5b5f6020808385031215613240575f80fd5b825167ffffffffffffffff811115613256575f80fd5b8301601f81018513613266575f80fd5b80516132746130fc82613083565b81815260059190911b82018301908381019087831115613292575f80fd5b928401925b828410156132b057835182529284019290840190613297565b979650505050505050565b5f602082840312156132cb575f80fd5b5051919050565b5f826132ec57634e487b7160e01b5f52601260045260245ffd5b500490565b5f60208284031215613301575f80fd5b815180151581146117bd575f80fd5b808201808211156108ff576108ff6131dd565b60e081525f61333560e083018a612e31565b8281036020840152613347818a612efd565b9050828103604084015261335b8189612e31565b606084019790975250506001600160a01b03938416608082015291831660a083015290911660c090910152939250505056fea264697066735822122042b77b6a1d46abcc0fe6d9811b6ce57401ff23a1b825ecfe49dfbd097d2bcfb764736f6c63430008190033",
  "linkReferences": {},
  "deployedLinkReferences": {}
}