{
  "_format": "hh-sol-artifact-1",
  "contractName": "BaluniV1Pool",
  "sourceName": "contracts/BaluniV1Pool.sol",
  "abi": [
    {
      "inputs": [
        {
          "internalType": "address",
          "name": "_rebalancer",
          "type": "address"
        },
        {
          "internalType": "address[]",
          "name": "_assets",
          "type": "address[]"
        },
        {
          "internalType": "uint256[]",
          "name": "_weights",
          "type": "uint256[]"
        },
        {
          "internalType": "uint256",
          "name": "_trigger",
          "type": "uint256"
        },
        {
          "internalType": "address",
          "name": "_periphery",
          "type": "address"
        }
      ],
      "stateMutability": "nonpayable",
      "type": "constructor"
    },
    {
      "inputs": [
        {
          "internalType": "address",
          "name": "spender",
          "type": "address"
        },
        {
          "internalType": "uint256",
          "name": "allowance",
          "type": "uint256"
        },
        {
          "internalType": "uint256",
          "name": "needed",
          "type": "uint256"
        }
      ],
      "name": "ERC20InsufficientAllowance",
      "type": "error"
    },
    {
      "inputs": [
        {
          "internalType": "address",
          "name": "sender",
          "type": "address"
        },
        {
          "internalType": "uint256",
          "name": "balance",
          "type": "uint256"
        },
        {
          "internalType": "uint256",
          "name": "needed",
          "type": "uint256"
        }
      ],
      "name": "ERC20InsufficientBalance",
      "type": "error"
    },
    {
      "inputs": [
        {
          "internalType": "address",
          "name": "approver",
          "type": "address"
        }
      ],
      "name": "ERC20InvalidApprover",
      "type": "error"
    },
    {
      "inputs": [
        {
          "internalType": "address",
          "name": "receiver",
          "type": "address"
        }
      ],
      "name": "ERC20InvalidReceiver",
      "type": "error"
    },
    {
      "inputs": [
        {
          "internalType": "address",
          "name": "sender",
          "type": "address"
        }
      ],
      "name": "ERC20InvalidSender",
      "type": "error"
    },
    {
      "inputs": [
        {
          "internalType": "address",
          "name": "spender",
          "type": "address"
        }
      ],
      "name": "ERC20InvalidSpender",
      "type": "error"
    },
    {
      "inputs": [],
      "name": "ReentrancyGuardReentrantCall",
      "type": "error"
    },
    {
      "anonymous": false,
      "inputs": [
        {
          "indexed": true,
          "internalType": "address",
          "name": "owner",
          "type": "address"
        },
        {
          "indexed": true,
          "internalType": "address",
          "name": "spender",
          "type": "address"
        },
        {
          "indexed": false,
          "internalType": "uint256",
          "name": "value",
          "type": "uint256"
        }
      ],
      "name": "Approval",
      "type": "event"
    },
    {
      "anonymous": false,
      "inputs": [
        {
          "indexed": true,
          "internalType": "address",
          "name": "user",
          "type": "address"
        },
        {
          "indexed": false,
          "internalType": "uint256",
          "name": "sharesBurned",
          "type": "uint256"
        }
      ],
      "name": "Burn",
      "type": "event"
    },
    {
      "anonymous": false,
      "inputs": [
        {
          "indexed": true,
          "internalType": "address",
          "name": "to",
          "type": "address"
        },
        {
          "indexed": false,
          "internalType": "uint256",
          "name": "sharesMinted",
          "type": "uint256"
        }
      ],
      "name": "Mint",
      "type": "event"
    },
    {
      "anonymous": false,
      "inputs": [
        {
          "indexed": true,
          "internalType": "address",
          "name": "by",
          "type": "address"
        },
        {
          "indexed": false,
          "internalType": "address[]",
          "name": "assets",
          "type": "address[]"
        }
      ],
      "name": "RebalancePerformed",
      "type": "event"
    },
    {
      "anonymous": false,
      "inputs": [
        {
          "indexed": true,
          "internalType": "address",
          "name": "user",
          "type": "address"
        },
        {
          "indexed": true,
          "internalType": "address",
          "name": "fromToken",
          "type": "address"
        },
        {
          "indexed": true,
          "internalType": "address",
          "name": "toToken",
          "type": "address"
        },
        {
          "indexed": false,
          "internalType": "uint256",
          "name": "amountIn",
          "type": "uint256"
        },
        {
          "indexed": false,
          "internalType": "uint256",
          "name": "amountOut",
          "type": "uint256"
        }
      ],
      "name": "Swap",
      "type": "event"
    },
    {
      "anonymous": false,
      "inputs": [
        {
          "indexed": true,
          "internalType": "address",
          "name": "from",
          "type": "address"
        },
        {
          "indexed": true,
          "internalType": "address",
          "name": "to",
          "type": "address"
        },
        {
          "indexed": false,
          "internalType": "uint256",
          "name": "value",
          "type": "uint256"
        }
      ],
      "name": "Transfer",
      "type": "event"
    },
    {
      "anonymous": false,
      "inputs": [
        {
          "indexed": true,
          "internalType": "address",
          "name": "user",
          "type": "address"
        },
        {
          "indexed": false,
          "internalType": "uint256[]",
          "name": "amountsAdded",
          "type": "uint256[]"
        }
      ],
      "name": "WeightsRebalanced",
      "type": "event"
    },
    {
      "inputs": [],
      "name": "ONE",
      "outputs": [
        {
          "internalType": "uint256",
          "name": "",
          "type": "uint256"
        }
      ],
      "stateMutability": "view",
      "type": "function"
    },
    {
      "inputs": [],
      "name": "SWAP_FEE_BPS",
      "outputs": [
        {
          "internalType": "uint256",
          "name": "",
          "type": "uint256"
        }
      ],
      "stateMutability": "view",
      "type": "function"
    },
    {
      "inputs": [
        {
          "internalType": "address",
          "name": "owner",
          "type": "address"
        },
        {
          "internalType": "address",
          "name": "spender",
          "type": "address"
        }
      ],
      "name": "allowance",
      "outputs": [
        {
          "internalType": "uint256",
          "name": "",
          "type": "uint256"
        }
      ],
      "stateMutability": "view",
      "type": "function"
    },
    {
      "inputs": [
        {
          "internalType": "address",
          "name": "spender",
          "type": "address"
        },
        {
          "internalType": "uint256",
          "name": "value",
          "type": "uint256"
        }
      ],
      "name": "approve",
      "outputs": [
        {
          "internalType": "bool",
          "name": "",
          "type": "bool"
        }
      ],
      "stateMutability": "nonpayable",
      "type": "function"
    },
    {
      "inputs": [
        {
          "internalType": "uint256",
          "name": "",
          "type": "uint256"
        }
      ],
      "name": "assetInfos",
      "outputs": [
        {
          "internalType": "address",
          "name": "asset",
          "type": "address"
        },
        {
          "internalType": "uint256",
          "name": "weight",
          "type": "uint256"
        }
      ],
      "stateMutability": "view",
      "type": "function"
    },
    {
      "inputs": [
        {
          "internalType": "uint256",
          "name": "assetIndex",
          "type": "uint256"
        }
      ],
      "name": "assetLiquidity",
      "outputs": [
        {
          "internalType": "uint256",
          "name": "",
          "type": "uint256"
        }
      ],
      "stateMutability": "view",
      "type": "function"
    },
    {
      "inputs": [
        {
          "internalType": "address",
          "name": "account",
          "type": "address"
        }
      ],
      "name": "balanceOf",
      "outputs": [
        {
          "internalType": "uint256",
          "name": "",
          "type": "uint256"
        }
      ],
      "stateMutability": "view",
      "type": "function"
    },
    {
      "inputs": [],
      "name": "baseAsset",
      "outputs": [
        {
          "internalType": "address",
          "name": "",
          "type": "address"
        }
      ],
      "stateMutability": "view",
      "type": "function"
    },
    {
      "inputs": [
        {
          "internalType": "address",
          "name": "to",
          "type": "address"
        }
      ],
      "name": "burn",
      "outputs": [
        {
          "internalType": "uint256[]",
          "name": "",
          "type": "uint256[]"
        }
      ],
      "stateMutability": "nonpayable",
      "type": "function"
    },
    {
      "inputs": [],
      "name": "computeTotalValuation",
      "outputs": [
        {
          "internalType": "uint256",
          "name": "totalVal",
          "type": "uint256"
        },
        {
          "internalType": "uint256[]",
          "name": "valuations",
          "type": "uint256[]"
        }
      ],
      "stateMutability": "view",
      "type": "function"
    },
    {
      "inputs": [],
      "name": "decimals",
      "outputs": [
        {
          "internalType": "uint8",
          "name": "",
          "type": "uint8"
        }
      ],
      "stateMutability": "view",
      "type": "function"
    },
    {
      "inputs": [],
      "name": "factory",
      "outputs": [
        {
          "internalType": "address",
          "name": "",
          "type": "address"
        }
      ],
      "stateMutability": "view",
      "type": "function"
    },
    {
      "inputs": [
        {
          "internalType": "address",
          "name": "fromToken",
          "type": "address"
        },
        {
          "internalType": "address",
          "name": "toToken",
          "type": "address"
        },
        {
          "internalType": "uint256",
          "name": "amount",
          "type": "uint256"
        }
      ],
      "name": "getAmountOut",
      "outputs": [
        {
          "internalType": "uint256",
          "name": "",
          "type": "uint256"
        }
      ],
      "stateMutability": "view",
      "type": "function"
    },
    {
      "inputs": [
        {
          "internalType": "address",
          "name": "asset",
          "type": "address"
        }
      ],
      "name": "getAssetReserve",
      "outputs": [
        {
          "internalType": "uint256",
          "name": "",
          "type": "uint256"
        }
      ],
      "stateMutability": "view",
      "type": "function"
    },
    {
      "inputs": [],
      "name": "getAssets",
      "outputs": [
        {
          "internalType": "address[]",
          "name": "",
          "type": "address[]"
        }
      ],
      "stateMutability": "view",
      "type": "function"
    },
    {
      "inputs": [],
      "name": "getDeviation",
      "outputs": [
        {
          "internalType": "bool[]",
          "name": "directions",
          "type": "bool[]"
        },
        {
          "internalType": "uint256[]",
          "name": "deviations",
          "type": "uint256[]"
        }
      ],
      "stateMutability": "view",
      "type": "function"
    },
    {
      "inputs": [],
      "name": "getReserves",
      "outputs": [
        {
          "internalType": "uint256[]",
          "name": "",
          "type": "uint256[]"
        }
      ],
      "stateMutability": "view",
      "type": "function"
    },
    {
      "inputs": [],
      "name": "getWeights",
      "outputs": [
        {
          "internalType": "uint256[]",
          "name": "",
          "type": "uint256[]"
        }
      ],
      "stateMutability": "view",
      "type": "function"
    },
    {
      "inputs": [],
      "name": "isRebalanceNeeded",
      "outputs": [
        {
          "internalType": "bool",
          "name": "",
          "type": "bool"
        }
      ],
      "stateMutability": "view",
      "type": "function"
    },
    {
      "inputs": [],
      "name": "liquidity",
      "outputs": [
        {
          "internalType": "uint256",
          "name": "",
          "type": "uint256"
        }
      ],
      "stateMutability": "view",
      "type": "function"
    },
    {
      "inputs": [
        {
          "internalType": "address",
          "name": "to",
          "type": "address"
        },
        {
          "internalType": "uint256[]",
          "name": "amounts",
          "type": "uint256[]"
        }
      ],
      "name": "mint",
      "outputs": [
        {
          "internalType": "uint256",
          "name": "",
          "type": "uint256"
        }
      ],
      "stateMutability": "nonpayable",
      "type": "function"
    },
    {
      "inputs": [],
      "name": "name",
      "outputs": [
        {
          "internalType": "string",
          "name": "",
          "type": "string"
        }
      ],
      "stateMutability": "view",
      "type": "function"
    },
    {
      "inputs": [],
      "name": "performRebalanceIfNeeded",
      "outputs": [
        {
          "internalType": "uint256[]",
          "name": "amountsToAdd",
          "type": "uint256[]"
        },
        {
          "internalType": "uint256[]",
          "name": "amountsToRemove",
          "type": "uint256[]"
        }
      ],
      "stateMutability": "nonpayable",
      "type": "function"
    },
    {
      "inputs": [],
      "name": "periphery",
      "outputs": [
        {
          "internalType": "address",
          "name": "",
          "type": "address"
        }
      ],
      "stateMutability": "view",
      "type": "function"
    },
    {
      "inputs": [
        {
          "internalType": "address",
          "name": "receiver",
          "type": "address"
        }
      ],
      "name": "rebalanceWeights",
      "outputs": [
        {
          "internalType": "uint256[]",
          "name": "",
          "type": "uint256[]"
        }
      ],
      "stateMutability": "nonpayable",
      "type": "function"
    },
    {
      "inputs": [],
      "name": "rebalancer",
      "outputs": [
        {
          "internalType": "address",
          "name": "",
          "type": "address"
        }
      ],
      "stateMutability": "view",
      "type": "function"
    },
    {
      "inputs": [
        {
          "internalType": "address",
          "name": "fromToken",
          "type": "address"
        },
        {
          "internalType": "address",
          "name": "toToken",
          "type": "address"
        },
        {
          "internalType": "uint256",
          "name": "amount",
          "type": "uint256"
        },
        {
          "internalType": "address",
          "name": "receiver",
          "type": "address"
        }
      ],
      "name": "swap",
      "outputs": [
        {
          "internalType": "uint256",
          "name": "toSend",
          "type": "uint256"
        }
      ],
      "stateMutability": "nonpayable",
      "type": "function"
    },
    {
      "inputs": [],
      "name": "symbol",
      "outputs": [
        {
          "internalType": "string",
          "name": "",
          "type": "string"
        }
      ],
      "stateMutability": "view",
      "type": "function"
    },
    {
      "inputs": [],
      "name": "totalSupply",
      "outputs": [
        {
          "internalType": "uint256",
          "name": "",
          "type": "uint256"
        }
      ],
      "stateMutability": "view",
      "type": "function"
    },
    {
      "inputs": [
        {
          "internalType": "address",
          "name": "to",
          "type": "address"
        },
        {
          "internalType": "uint256",
          "name": "value",
          "type": "uint256"
        }
      ],
      "name": "transfer",
      "outputs": [
        {
          "internalType": "bool",
          "name": "",
          "type": "bool"
        }
      ],
      "stateMutability": "nonpayable",
      "type": "function"
    },
    {
      "inputs": [
        {
          "internalType": "address",
          "name": "from",
          "type": "address"
        },
        {
          "internalType": "address",
          "name": "to",
          "type": "address"
        },
        {
          "internalType": "uint256",
          "name": "value",
          "type": "uint256"
        }
      ],
      "name": "transferFrom",
      "outputs": [
        {
          "internalType": "bool",
          "name": "",
          "type": "bool"
        }
      ],
      "stateMutability": "nonpayable",
      "type": "function"
    },
    {
      "inputs": [],
      "name": "trigger",
      "outputs": [
        {
          "internalType": "uint256",
          "name": "",
          "type": "uint256"
        }
      ],
      "stateMutability": "view",
      "type": "function"
    },
    {
      "inputs": [],
      "name": "unitPrice",
      "outputs": [
        {
          "internalType": "uint256",
          "name": "",
          "type": "uint256"
        }
      ],
      "stateMutability": "view",
      "type": "function"
    }
  ],
  "bytecode": "0x6080806040523461043957612b1a803803809161001c82856108fe565b8339810160a0828203126104395761003382610921565b60208301519091906001600160401b0381116104395783019181601f840112156104395782519261006384610935565b9361007160405195866108fe565b80855260208086019160051b8301019184831161043957602001905b8282106108cb5750505060408401516001600160401b0381116104395784019180601f840112156104395782516100c381610935565b936100d160405195866108fe565b81855260208086019260051b82010192831161043957602001905b8282106108bb57505050610107608060608601519501610921565b604051610113816108e3565b6009815268042616c756e69204c560bc1b602082015260405190610136826108e3565b6009825268042414c554e492d4c560bc1b60208301528051906001600160401b0382116104965760035490600182811c921680156108b1575b60208310146107925781601f849311610843575b50602090601f83116001146107bb575f926107b0575b50508160011b915f199060031b1c1916176003555b8051906001600160401b0382116104965760045490600182811c921680156107a6575b60208310146107925781601f849311610724575b50602090601f83116001146106a0575f92610695575b50508160011b915f199060031b1c1916176004555b6001600555600980546001600160a01b03199081166001600160a01b0393841617909155600a8054821633179055600c8054909116918316919091179055670de0b6b3a76400006008558251825103610645575f5b8351811015610525576001600160a01b03610280828661094c565b5116156104e057610291818461094c565b51156104aa576001600160a01b036102a9828661094c565b51166102b5828561094c565b5160408051929083018084116001600160401b0390911117610496576040830160405282526020820152600654680100000000000000008110156104965760018101806006558110156104825760065f5281517ff652222313e28459528d920b65115c16c04f3efc82aaedc97be59f3f377c0d3f60019290921b91820180546001600160a01b039283166001600160a01b03199091161790556020909201517ff652222313e28459528d920b65115c16c04f3efc82aaedc97be59f3f377c0d4090910155610383828661094c565b511660018060a01b03600c5416604051636eb1769f60e11b8152306004820152816024820152602081604481865afa908115610445575f91610450575b50156103d1575b5050600101610265565b5f916044602092604051948593849263095ea7b360e01b84526004840152811960248401525af1801561044557610409575b806103c7565b6020813d60201161043d575b81610422602093836108fe565b81010312610439575180151503610439575f610403565b5f80fd5b3d9150610415565b6040513d5f823e3d90fd5b90506020813d60201161047a575b8161046b602093836108fe565b8101031261043957515f6103c0565b3d915061045e565b634e487b7160e01b5f52603260045260245ffd5b634e487b7160e01b5f52604160045260245ffd5b60405162461bcd60e51b815260206004820152600e60248201526d125b9d985b1a59081dd95a59da1d60921b6044820152606490fd5b60405162461bcd60e51b815260206004820152601560248201527f496e76616c6964206173736574206164647265737300000000000000000000006044820152606490fd5b5060078490556040516389a3027160e01b815290602090829060049082906001600160a01b03165afa908115610445575f9161060b575b50600b80546001600160a01b0319166001600160a01b03929092169190911790555f90815b81518310156105bd57610594838361094c565b5181018091116105a957600190920191610581565b634e487b7160e01b5f52601160045260245ffd5b612710036105d4576040516121b990816109618239f35b60405162461bcd60e51b815260206004820152600f60248201526e496e76616c6964207765696768747360881b6044820152606490fd5b90506020813d60201161063d575b81610626602093836108fe565b810103126104395761063790610921565b8261055c565b3d9150610619565b60405162461bcd60e51b815260206004820152602260248201527f41737365747320616e642077656967687473206c656e677468206d69736d61746044820152610c6d60f31b6064820152608490fd5b015190505f806101fb565b60045f9081527f8a35acfbc15ff81a39ae7d344fd709f28e8600b4aa8c65c6b64bfe7fe36bd19b9350601f198516905b81811061070c57509084600195949392106106f4575b505050811b01600455610210565b01515f1960f88460031b161c191690555f80806106e6565b929360206001819287860151815501950193016106d0565b60045f529091507f8a35acfbc15ff81a39ae7d344fd709f28e8600b4aa8c65c6b64bfe7fe36bd19b601f840160051c81019160208510610788575b90601f859493920160051c01905b81811061077a57506101e5565b5f815584935060010161076d565b909150819061075f565b634e487b7160e01b5f52602260045260245ffd5b91607f16916101d1565b015190505f80610199565b60035f90815293507fc2575a0e9e593c00f959f8c92f12db2869c3395a3b0502d05e2516446f71f85b91905b601f1984168510610828576001945083601f19811610610810575b505050811b016003556101ae565b01515f1960f88460031b161c191690555f8080610802565b818101518355602094850194600190930192909101906107e7565b60035f529091507fc2575a0e9e593c00f959f8c92f12db2869c3395a3b0502d05e2516446f71f85b601f840160051c810191602085106108a7575b90601f859493920160051c01905b8181106108995750610183565b5f815584935060010161088c565b909150819061087e565b91607f169161016f565b81518152602091820191016100ec565b602080916108d884610921565b81520191019061008d565b604081019081106001600160401b0382111761049657604052565b601f909101601f19168101906001600160401b0382119082101761049657604052565b51906001600160a01b038216820361043957565b6001600160401b0381116104965760051b60200190565b80518210156104825760209160051b01019056fe6080604081815260049182361015610015575f80fd5b5f905f3560e01c90816301d22ccd1461188e5750806306fdde03146117995780630723c9991461156f5780630902f1ac1461153f578063095ea7b31461149657806318160ddd146114785780631a6865021461145457806322acb867146113f757806323b872dd14611316578063313ce567146112fb57806336bf6e39146112c75780634aa06652146112ac57806367a6c4401461129157806367e4ac2c1461122e5780636e81221c1461101557806370a0823114610fdf57806377aace1a14610fb75780637fec8d3814610f9957806389ab353214610f2f57806389afcb4414610b055780638a77c8dc14610ae057806395d89b41146109e1578063a9059cbb146109b1578063b2b55d701461098c578063c2ee3a081461096e578063c45a015514610946578063cdf456e11461091e578063cf8fa764146108a6578063d14ef46d1461085a578063dd62ed3e14610811578063de836ebd14610547578063e73faa2d146105245763f47b45e81461018c575f80fd5b3461041f576003195f3682011261041f576009546001600160a01b0394908516916101b8338414611a45565b6101c86101c3611d9c565b611a82565b600654936101d585611af9565b936101df86611af9565b976101e987611af9565b926101f388611af9565b946101fd89611af9565b9a6102078a611af9565b995f5b81811061046b57505061021b611b3f565b84600c54169160075486600b5416843b1561041f578e51633c2fddc560e21b815260e0818e01528d99909687958695919061025a9060e4880190611907565b9b60249c828882030160248901526102719161196f565b9086820301604487015261028491611907565b92606485015280608485015260a484015260c483015203815a5f948591f1801561046157610434575b50600654600954909690831692825b888110610329578c8c6103258d8d7f279b343370f587af7fb675ae7c8578e9c8abcc373236ad02c501a4771fe7a7b8845160208152806103013394602083019061196f565b0390a26103178351948486958652850190611907565b908382036020850152611907565b0390f35b81610334828c611b2b565b51168c5180916370a0823160e01b82528786830152818960209485935afa91821561042a578f908a94938f91938d948a926103e9575b505094849160019661037c8487611b2b565b526103878386611b2b565b516103928484611b2b565b5110156103cc57506103be906103b7836103b0816103c49798611b2b565b5192611b2b565b5190611ac5565b92611b2b565b525b016102bc565b936103e393506103b7836103b0816103be95611b2b565b526103c6565b9450955050505082813d8311610423575b61040481836119f7565b8101031261041f57888e828a8f60019651919681935061036a565b5f80fd5b503d6103fa565b8e513d88823e3d90fd5b905067ffffffffffffffff811161044e5788525f806102ad565b604186634e487b7160e01b5f525260245ffd5b8a513d5f823e3d90fd5b85610475826119ab565b505416610482828d611b2b565b52600161048e826119ab565b50015461049b8285611b2b565b52856104a7828d611b2b565b5116908d5180926370a0823160e01b8252898d83015281602460209384935afa90811561051a575f916104eb575b50600192506104e4828b611b2b565b520161020a565b905082813d8311610513575b61050181836119f7565b8101031261041f57600191515f6104d5565b503d6104f7565b8f513d5f823e3d90fd5b823461041f575f36600319011261041f57602090610540611e37565b9051908152f35b50503461041f578060031936011261041f576105616118db565b9060249182359367ffffffffffffffff851161041f573660238601121561041f57848101359061059082611a2d565b9161059d855193846119f7565b808352602096868885019260051b8201019136831161041f5787899201905b8382106108025750506009546001600160a01b039492506105e1915084163314611a45565b6002545f916105ee611b3f565b90600654915182036107c057811561079257905f915b81831061075957505050811561070c57806106925750945b8515610660575050847f0f6798a560793a54c3bcfe86a93cde1e73087d944c0ea20544137d4121396885916106518685612008565b8451938685521692a251908152f35b845162461bcd60e51b8152918201879052600d908201526c04d696e7420717479206973203609c1b6044820152606490fd5b61069a611e62565b509182156106bb576106b592916106b091611ae6565b611c97565b9461061c565b865162461bcd60e51b81528085018a90526026818a01527f546f74616c206c6971756964697479206d75737420626520677265617465722060448201526507468616e20360d41b6064820152608490fd5b855162461bcd60e51b81528084018990526022818901527f546f74616c2076616c7565206d7573742062652067726561746572207468616e604482015261020360f41b6064820152608490fd5b9091936107896001916107838961076f896119ab565b50541661077c8987611b2b565b519061213f565b90611e2a565b94019190610604565b875162461bcd60e51b81528086018b90526009818b0152684e6f2061737365747360b81b6044820152606490fd5b875162461bcd60e51b81528086018b90526017818b01527f496e76616c6964207265736572766573206c656e6774680000000000000000006044820152606490fd5b813581529082019082016105bc565b823461041f578060031936011261041f5760209061082d6118db565b6108356118f1565b9060018060a01b038091165f5260018452825f2091165f528252805f20549051908152f35b82843461041f57602036600319011261041f573560065481101561041f57610881906119ab565b50805460019091015491516001600160a01b0390911681526020810191909152604090f35b82843461041f57602036600319011261041f578035906108c4611e62565b80929150518310156108e5576020846108dd8585611b2b565b519051908152f35b606490602085519162461bcd60e51b83528201526013602482015272092dcecc2d8d2c840c2e6e6cae840d2dcc8caf606b1b6044820152fd5b823461041f575f36600319011261041f57600b5490516001600160a01b039091168152602090f35b823461041f575f36600319011261041f57600a5490516001600160a01b039091168152602090f35b823461041f575f36600319011261041f576020906008549051908152f35b823461041f57602036600319011261041f576020906105406109ac6118db565b611df2565b823461041f578060031936011261041f576020906109da6109d06118db565b602435903361207d565b5160018152f35b50503461041f575f36600319011261041f578051905f9280549060018260011c9160018416938415610ad6575b6020948585108114610ac357848852908115610aa15750600114610a48575b6103258686610a3e828b03836119f7565b51918291826118b1565b5f9081529295507f8a35acfbc15ff81a39ae7d344fd709f28e8600b4aa8c65c6b64bfe7fe36bd19b5b828410610a8e575050508261032594610a3e92820101945f610a2d565b8054868501880152928601928101610a71565b60ff191687860152505050151560051b8301019250610a3e826103255f610a2d565b602283634e487b7160e01b5f525260245ffd5b92607f1692610a0e565b823461041f575f36600319011261041f57602090610afc611d9c565b90519015158152f35b50503461041f576020908160031936011261041f57610b226118db565b6009546001600160a01b0390811691610b3c338414611a45565b305f525f8552835f2054958615610eec57600254968715610eba57600654610b6381611af9565b98601e8302838104601e03610ea757612710610b8191048094611ac5565b965f5b838110610dec5750505050305f525f875284865f205410610da957818785600c54168851928380926361d027b360e01b82525afa908115610d9f579088915f91610d65575b50875163a9059cbb60e01b81526001600160a01b03909116848201908152602081019390935291829081906040015b03815f305af1908115610d5b575f91610d25575b5015610cec573015610cd657305f525f8652845f205490848210610cab575083927fcc16f5dbb4873280815c1ee09dbd06736cffcc184412cf7a71a0fdb75d397ca59261032596958893305f525f855203865f205584600254036002555f86518681527fddf252ad1be2c89b69c2b068fc378daa952ba7f163c4a11628f55a4df523b3ef853092a385519485521692a251928284938452830190611907565b855163391434e360e21b81523091810191825260208201929092526040810185905281906060010390fd5b6024905f865191634b637e8f60e11b8352820152fd5b845162461bcd60e51b81529081018690526013602482015272119959481d1c985b9cd9995c8819985a5b1959606a1b6044820152606490fd5b90508681813d8311610d54575b610d3c81836119f7565b8101031261041f5751801515810361041f575f610c0c565b503d610d32565b86513d5f823e3d90fd5b82819392503d8311610d98575b610d7c81836119f7565b8101031261041f5751848116810361041f578790610bf8610bc9565b503d610d72565b87513d5f823e3d90fd5b855162461bcd60e51b8152808301889052601d60248201527f496e73756666696369656e742042414c554e49206c69717569646974790000006044820152606490fd5b610e2e8b89610dfa846119ab565b50548d5163a3e113fb60e01b8152308b8201908152929091166001600160a01b031660208301529283918291604090910190565b0381865afa908115610e9d578a8593928f925f91610e63575b506103be6001956106b0610e5c948794611ae6565b5201610b84565b94505050508b82813d8311610e96575b610e7d81836119f7565b8101031261041f5790518391908d908b906103be610e47565b503d610e73565b8b513d5f823e3d90fd5b601185634e487b7160e01b5f525260245ffd5b855162461bcd60e51b8152808301889052600c60248201526b4e6f206c697175696469747960a01b6044820152606490fd5b845162461bcd60e51b8152908101869052601c60248201527f5368617265206d7573742062652067726561746572207468616e2030000000006044820152606490fd5b823461041f575f36600319011261041f57610f48611cb5565b8251928391818301918352835180925260608301916020809501945f5b828110610f8057858061032587878382036020850152611907565b8651151585529581019587955093810193600101610f65565b823461041f575f36600319011261041f576020906007549051908152f35b823461041f575f36600319011261041f5760095490516001600160a01b039091168152602090f35b823461041f57602036600319011261041f576020906001600160a01b036110046118db565b165f525f8252805f20549051908152f35b82843461041f57608036600319011261041f576110306118db565b916110396118f1565b604435936001600160a01b0391606435838116919082900361041f5760026005541461121e576002600555838116938316928484146111db5787156111985790611087888261108f94611c14565b918291611df2565b1061115c57601e8102818104601e148215171561114957906127106110b5920490611ac5565b9485156110f857507fcd3829a3813dc3cdd188fd3d01dcf3268c16be2fdd2dd21d0665418816e460628460209781519081528789820152a4600160055551908152f35b608490602086519162461bcd60e51b8352820152602560248201527f416d6f756e7420746f2073656e64206d75737420626520677265617465722074604482015264068616e20360dc1b6064820152fd5b601187634e487b7160e01b5f525260245ffd5b845162461bcd60e51b81526020818801526016602482015275496e73756666696369656e74204c697175696469747960501b6044820152606490fd5b855162461bcd60e51b8152602081890181905260248201527f416d6f756e74206d7573742062652067726561746572207468616e207a65726f6044820152606490fd5b855162461bcd60e51b8152602081890152601a60248201527f43616e6e6f742073776170207468652073616d6520746f6b656e0000000000006044820152606490fd5b8451633ee5aeb560e01b81528690fd5b823461041f575f36600319011261041f5760065461124b81611af9565b905f5b81811061126a578351602080825281906103259082018661196f565b806112766001926119ab565b50828060a01b0390541661128a8286611b2b565b520161124e565b823461041f575f36600319011261041f5760209051601e8152f35b823461041f576020906105406112c13661193a565b91611c14565b823461041f575f36600319011261041f576103256112e3611e62565b83929192519384938452806020850152830190611907565b823461041f575f36600319011261041f576020905160128152f35b82843461041f576113263661193a565b6001600160a01b0383165f81815260016020818152888320338452905290879020549295939493908301611363575b6020876109da88888861207d565b8583106113cb5781156113b557331561139f57505f908152600160209081528682203383528152908690209185900390915582906109da611355565b6024905f885191634a1406b160e11b8352820152fd5b6024905f88519163e602df0560e01b8352820152fd5b8651637dc7a0d960e11b8152339181019182526020820193909352604081018690528291506060010390fd5b823461041f575f36600319011261041f5760065461141481611af9565b905f5b8181106114335783516020808252819061032590820186611907565b80600161144081936119ab565b50015461144d8286611b2b565b5201611417565b823461041f575f36600319011261041f57602090611470611e62565b509051908152f35b823461041f575f36600319011261041f576020906002549051908152f35b50503461041f578060031936011261041f576114b06118db565b602435903315611529576001600160a01b03169081156115135760209350335f5260018452825f20825f52845280835f205582519081527f8c5be1e5ebec7d5bd14f71427d1e84f3dd0314c0f7b2291e5b200ac8c7c3b925843392a35160018152f35b8251634a1406b160e11b81525f81860152602490fd5b825163e602df0560e01b81525f81860152602490fd5b823461041f575f36600319011261041f576103259061155c611b3f565b9051918291602083526020830190611907565b50503461041f576020908160031936011261041f5761158c6118db565b9260018060a01b03926115a484600954163314611a45565b6115af6101c3611d9c565b6115b7611e62565b929094600654956115c787611af9565b945f5b8881106117445750505081835f925f5b89811061171d5750600b541687519485809263313ce56760e01b82525afa928315610d5b575f936116e4575b5060ff670de0b6b3a7640000931683039283116116d157506116319161162b91611ae6565b94611af9565b925f5b835181101561167a578061164a60019286611b2b565b51611656575b01611634565b61166a6116638287611b2b565b5182611ef6565b6116748288611b2b565b52611650565b50610325919261168a8688612008565b7fa95ad530009c6f929555e70a66aadbeae7231e45756c5b028ca77fbaa376e73e8251858152806116bf339488830190611907565b0390a251928284938452830190611907565b601190634e487b7160e01b5f525260245ffd5b9092508381813d8311611716575b6116fc81836119f7565b8101031261041f575160ff8116810361041f57915f611606565b503d6116f2565b93611739919350600192506117328589611b2b565b5190611e2a565b9201839185916115da565b80612710611760600161175781956119ab565b50015486611ae6565b048061176c8386611b2b565b511061177a575b50016115ca565b611788906103b78386611b2b565b611792828a611b2b565b525f611773565b50503461041f575f36600319011261041f578051905f9260035460018160011c91600181168015611884575b6020948585108214611871575083875290811561185157506001146117f7575b505050610a3e826103259403836119f7565b60035f9081529295507fc2575a0e9e593c00f959f8c92f12db2869c3395a3b0502d05e2516446f71f85b5b82841061183e575050508261032594610a3e92820101946117e5565b8054868501880152928601928101611822565b60ff1916868501525050151560051b8301019250610a3e826103256117e5565b602290634e487b7160e01b5f525260245ffd5b92607f16926117c5565b3461041f575f36600319011261041f57600c546001600160a01b03168152602090f35b602060409281835280519182918282860152018484015e5f828201840152601f01601f1916010190565b600435906001600160a01b038216820361041f57565b602435906001600160a01b038216820361041f57565b9081518082526020808093019301915f5b828110611926575050505090565b835185529381019392810192600101611918565b606090600319011261041f576001600160a01b0390600435828116810361041f5791602435908116810361041f579060443590565b9081518082526020808093019301915f5b82811061198e575050505090565b83516001600160a01b031685529381019392810192600101611980565b6006548110156119e35760065f5260011b7ff652222313e28459528d920b65115c16c04f3efc82aaedc97be59f3f377c0d3f01905f90565b634e487b7160e01b5f52603260045260245ffd5b90601f8019910116810190811067ffffffffffffffff821117611a1957604052565b634e487b7160e01b5f52604160045260245ffd5b67ffffffffffffffff8111611a195760051b60200190565b15611a4c57565b60405162461bcd60e51b815260206004820152600e60248201526d4f6e6c792050657269706865727960901b6044820152606490fd5b15611a8957565b60405162461bcd60e51b8152602060048201526014602482015273149958985b185b98d9481b9bdd081b995959195960621b6044820152606490fd5b91908203918211611ad257565b634e487b7160e01b5f52601160045260245ffd5b81810292918115918404141715611ad257565b90611b0382611a2d565b611b1060405191826119f7565b8281528092611b21601f1991611a2d565b0190602036910137565b80518210156119e35760209160051b010190565b600954604051630fa6707960e21b8152306004820152905f90829060249082906001600160a01b03165afa908115611c09575f91611b7b575090565b90503d805f833e611b8c81836119f7565b810190602090818184031261041f5780519067ffffffffffffffff821161041f57019180601f8401121561041f578251611bc581611a2d565b93611bd360405195866119f7565b818552838086019260051b82010192831161041f578301905b828210611bfa575050505090565b81518152908301908301611bec565b6040513d5f823e3d90fd5b600c5460405163248391ff60e01b81526001600160a01b0392831660048201529282166024840152604483019390935290916020918391168180606481015b03915afa908115611c09575f91611c68575090565b90506020813d602011611c8f575b81611c83602093836119f7565b8101031261041f575190565b3d9150611c76565b8115611ca1570490565b634e487b7160e01b5f52601260045260245ffd5b611cbd611e62565b919060065490611ccc82611a2d565b91611cda60405193846119f7565b808352601f19611ce982611a2d565b01366020850137611cf981611af9565b945f5b828110611d0b57505050509190565b611d158183611b2b565b519061271091828102928184041490151715611ad257611d3785600193611c97565b611d40826119ab565b50830154839181811115611d755790611d5891611ac5565b611d62838b611b2b565b52611d6d8288611b2b565b525b01611cfc565b90611d809250611ac5565b611d8a828a611b2b565b525f611d968288611b2b565b52611d6f565b611da4611cb5565b5f5b8151811015611deb57611db98184611b2b565b51151580611dd6575b611dce57600101611da6565b505050600190565b50611de18183611b2b565b5160075410611dc2565b5050505f90565b60095460405163a3e113fb60e01b81523060048201526001600160a01b03928316602482015291602091839116818060448101611c53565b91908201809211611ad257565b611e3f611e62565b506002548015611e5c576106b0611e599260085490611ae6565b90565b50505f90565b600654905f611e7083611af9565b600b5490935f916001600160a01b03908116905b828410611e9357505050509190565b90919293611ed260019183611ea7886119ab565b505416611eb381611df2565b90868103611edc5750611ec6888b611b2b565b525b611732878a611b2b565b9401929190611e84565b90611ee69161213f565b611ef0888b611b2b565b52611ec8565b611eff816119ab565b5054600b546001600160a01b0390811692909182168314612002579181611f6f9492611f2c6020956119ab565b50541690600c5416916040519586948593849363248391ff60e01b85526004850160409194939294606082019560018060a01b0380921683521660208201520152565b03915afa908115611c09575f91611fd0575b508015611f8b5790565b60405162461bcd60e51b815260206004820152601b60248201527f496e76616c696420746f6b656e20616d6f756e7420746f2061646400000000006044820152606490fd5b90506020813d602011611ffa575b81611feb602093836119f7565b8101031261041f57515f611f81565b3d9150611fde565b50505090565b6001600160a01b0316908115612065577fddf252ad1be2c89b69c2b068fc378daa952ba7f163c4a11628f55a4df523b3ef6020826120495f94600254611e2a565b60025584845283825260408420818154019055604051908152a3565b60405163ec442f0560e01b81525f6004820152602490fd5b916001600160a01b03808416928315612127571692831561206557825f525f60205260405f2054908282106120f55750817fddf252ad1be2c89b69c2b068fc378daa952ba7f163c4a11628f55a4df523b3ef92602092855f525f84520360405f2055845f5260405f20818154019055604051908152a3565b60405163391434e360e21b81526001600160a01b03919091166004820152602481019190915260448101829052606490fd5b604051634b637e8f60e11b81525f6004820152602490fd5b600c54600b5460405163248391ff60e01b81526001600160a01b03938416600482015290831660248201526044810193909352602091839116818060648101611c5356fea2646970667358221220184aa282213110066a9558ca1cae88e104122e88c8cc0a50dc05a3c65cc0fac464736f6c63430008190033",
  "linkReferences": {},
  "deployedLinkReferences": {}
}