{
  "_format": "hh-sol-artifact-1",
  "contractName": "BaluniV1Pool",
  "sourceName": "contracts/BaluniV1Pool.sol",
  "abi": [
    {
      "inputs": [
        {
          "internalType": "address",
          "name": "_rebalancer",
          "type": "address"
        },
        {
          "internalType": "address[]",
          "name": "_assets",
          "type": "address[]"
        },
        {
          "internalType": "uint256[]",
          "name": "_weights",
          "type": "uint256[]"
        },
        {
          "internalType": "uint256",
          "name": "_trigger",
          "type": "uint256"
        },
        {
          "internalType": "address",
          "name": "_periphery",
          "type": "address"
        }
      ],
      "stateMutability": "nonpayable",
      "type": "constructor"
    },
    {
      "inputs": [
        {
          "internalType": "address",
          "name": "spender",
          "type": "address"
        },
        {
          "internalType": "uint256",
          "name": "allowance",
          "type": "uint256"
        },
        {
          "internalType": "uint256",
          "name": "needed",
          "type": "uint256"
        }
      ],
      "name": "ERC20InsufficientAllowance",
      "type": "error"
    },
    {
      "inputs": [
        {
          "internalType": "address",
          "name": "sender",
          "type": "address"
        },
        {
          "internalType": "uint256",
          "name": "balance",
          "type": "uint256"
        },
        {
          "internalType": "uint256",
          "name": "needed",
          "type": "uint256"
        }
      ],
      "name": "ERC20InsufficientBalance",
      "type": "error"
    },
    {
      "inputs": [
        {
          "internalType": "address",
          "name": "approver",
          "type": "address"
        }
      ],
      "name": "ERC20InvalidApprover",
      "type": "error"
    },
    {
      "inputs": [
        {
          "internalType": "address",
          "name": "receiver",
          "type": "address"
        }
      ],
      "name": "ERC20InvalidReceiver",
      "type": "error"
    },
    {
      "inputs": [
        {
          "internalType": "address",
          "name": "sender",
          "type": "address"
        }
      ],
      "name": "ERC20InvalidSender",
      "type": "error"
    },
    {
      "inputs": [
        {
          "internalType": "address",
          "name": "spender",
          "type": "address"
        }
      ],
      "name": "ERC20InvalidSpender",
      "type": "error"
    },
    {
      "inputs": [],
      "name": "ReentrancyGuardReentrantCall",
      "type": "error"
    },
    {
      "anonymous": false,
      "inputs": [
        {
          "indexed": true,
          "internalType": "address",
          "name": "owner",
          "type": "address"
        },
        {
          "indexed": true,
          "internalType": "address",
          "name": "spender",
          "type": "address"
        },
        {
          "indexed": false,
          "internalType": "uint256",
          "name": "value",
          "type": "uint256"
        }
      ],
      "name": "Approval",
      "type": "event"
    },
    {
      "anonymous": false,
      "inputs": [
        {
          "indexed": true,
          "internalType": "address",
          "name": "user",
          "type": "address"
        },
        {
          "indexed": false,
          "internalType": "uint256",
          "name": "sharesBurned",
          "type": "uint256"
        }
      ],
      "name": "Burn",
      "type": "event"
    },
    {
      "anonymous": false,
      "inputs": [
        {
          "indexed": true,
          "internalType": "address",
          "name": "to",
          "type": "address"
        },
        {
          "indexed": false,
          "internalType": "uint256",
          "name": "sharesMinted",
          "type": "uint256"
        }
      ],
      "name": "Mint",
      "type": "event"
    },
    {
      "anonymous": false,
      "inputs": [
        {
          "indexed": true,
          "internalType": "address",
          "name": "by",
          "type": "address"
        },
        {
          "indexed": false,
          "internalType": "address[]",
          "name": "assets",
          "type": "address[]"
        }
      ],
      "name": "RebalancePerformed",
      "type": "event"
    },
    {
      "anonymous": false,
      "inputs": [
        {
          "indexed": true,
          "internalType": "address",
          "name": "user",
          "type": "address"
        },
        {
          "indexed": true,
          "internalType": "address",
          "name": "fromToken",
          "type": "address"
        },
        {
          "indexed": true,
          "internalType": "address",
          "name": "toToken",
          "type": "address"
        },
        {
          "indexed": false,
          "internalType": "uint256",
          "name": "amountIn",
          "type": "uint256"
        },
        {
          "indexed": false,
          "internalType": "uint256",
          "name": "amountOut",
          "type": "uint256"
        }
      ],
      "name": "Swap",
      "type": "event"
    },
    {
      "anonymous": false,
      "inputs": [
        {
          "indexed": true,
          "internalType": "address",
          "name": "from",
          "type": "address"
        },
        {
          "indexed": true,
          "internalType": "address",
          "name": "to",
          "type": "address"
        },
        {
          "indexed": false,
          "internalType": "uint256",
          "name": "value",
          "type": "uint256"
        }
      ],
      "name": "Transfer",
      "type": "event"
    },
    {
      "anonymous": false,
      "inputs": [
        {
          "indexed": true,
          "internalType": "address",
          "name": "user",
          "type": "address"
        },
        {
          "indexed": false,
          "internalType": "uint256[]",
          "name": "amountsAdded",
          "type": "uint256[]"
        }
      ],
      "name": "WeightsRebalanced",
      "type": "event"
    },
    {
      "inputs": [],
      "name": "BONE",
      "outputs": [
        {
          "internalType": "uint256",
          "name": "",
          "type": "uint256"
        }
      ],
      "stateMutability": "view",
      "type": "function"
    },
    {
      "inputs": [],
      "name": "BPOW_PRECISION",
      "outputs": [
        {
          "internalType": "uint256",
          "name": "",
          "type": "uint256"
        }
      ],
      "stateMutability": "view",
      "type": "function"
    },
    {
      "inputs": [],
      "name": "EXIT_FEE",
      "outputs": [
        {
          "internalType": "uint256",
          "name": "",
          "type": "uint256"
        }
      ],
      "stateMutability": "view",
      "type": "function"
    },
    {
      "inputs": [],
      "name": "INIT_POOL_SUPPLY",
      "outputs": [
        {
          "internalType": "uint256",
          "name": "",
          "type": "uint256"
        }
      ],
      "stateMutability": "view",
      "type": "function"
    },
    {
      "inputs": [],
      "name": "MAX_BOUND_TOKENS",
      "outputs": [
        {
          "internalType": "uint256",
          "name": "",
          "type": "uint256"
        }
      ],
      "stateMutability": "view",
      "type": "function"
    },
    {
      "inputs": [],
      "name": "MAX_BPOW_BASE",
      "outputs": [
        {
          "internalType": "uint256",
          "name": "",
          "type": "uint256"
        }
      ],
      "stateMutability": "view",
      "type": "function"
    },
    {
      "inputs": [],
      "name": "MAX_FEE",
      "outputs": [
        {
          "internalType": "uint256",
          "name": "",
          "type": "uint256"
        }
      ],
      "stateMutability": "view",
      "type": "function"
    },
    {
      "inputs": [],
      "name": "MAX_IN_RATIO",
      "outputs": [
        {
          "internalType": "uint256",
          "name": "",
          "type": "uint256"
        }
      ],
      "stateMutability": "view",
      "type": "function"
    },
    {
      "inputs": [],
      "name": "MAX_OUT_RATIO",
      "outputs": [
        {
          "internalType": "uint256",
          "name": "",
          "type": "uint256"
        }
      ],
      "stateMutability": "view",
      "type": "function"
    },
    {
      "inputs": [],
      "name": "MAX_TOTAL_WEIGHT",
      "outputs": [
        {
          "internalType": "uint256",
          "name": "",
          "type": "uint256"
        }
      ],
      "stateMutability": "view",
      "type": "function"
    },
    {
      "inputs": [],
      "name": "MAX_WEIGHT",
      "outputs": [
        {
          "internalType": "uint256",
          "name": "",
          "type": "uint256"
        }
      ],
      "stateMutability": "view",
      "type": "function"
    },
    {
      "inputs": [],
      "name": "MIN_BALANCE",
      "outputs": [
        {
          "internalType": "uint256",
          "name": "",
          "type": "uint256"
        }
      ],
      "stateMutability": "view",
      "type": "function"
    },
    {
      "inputs": [],
      "name": "MIN_BOUND_TOKENS",
      "outputs": [
        {
          "internalType": "uint256",
          "name": "",
          "type": "uint256"
        }
      ],
      "stateMutability": "view",
      "type": "function"
    },
    {
      "inputs": [],
      "name": "MIN_BPOW_BASE",
      "outputs": [
        {
          "internalType": "uint256",
          "name": "",
          "type": "uint256"
        }
      ],
      "stateMutability": "view",
      "type": "function"
    },
    {
      "inputs": [],
      "name": "MIN_FEE",
      "outputs": [
        {
          "internalType": "uint256",
          "name": "",
          "type": "uint256"
        }
      ],
      "stateMutability": "view",
      "type": "function"
    },
    {
      "inputs": [],
      "name": "MIN_WEIGHT",
      "outputs": [
        {
          "internalType": "uint256",
          "name": "",
          "type": "uint256"
        }
      ],
      "stateMutability": "view",
      "type": "function"
    },
    {
      "inputs": [],
      "name": "ONE",
      "outputs": [
        {
          "internalType": "uint256",
          "name": "",
          "type": "uint256"
        }
      ],
      "stateMutability": "view",
      "type": "function"
    },
    {
      "inputs": [],
      "name": "SWAP_FEE_BPS",
      "outputs": [
        {
          "internalType": "uint256",
          "name": "",
          "type": "uint256"
        }
      ],
      "stateMutability": "view",
      "type": "function"
    },
    {
      "inputs": [
        {
          "internalType": "address",
          "name": "owner",
          "type": "address"
        },
        {
          "internalType": "address",
          "name": "spender",
          "type": "address"
        }
      ],
      "name": "allowance",
      "outputs": [
        {
          "internalType": "uint256",
          "name": "",
          "type": "uint256"
        }
      ],
      "stateMutability": "view",
      "type": "function"
    },
    {
      "inputs": [
        {
          "internalType": "address",
          "name": "spender",
          "type": "address"
        },
        {
          "internalType": "uint256",
          "name": "value",
          "type": "uint256"
        }
      ],
      "name": "approve",
      "outputs": [
        {
          "internalType": "bool",
          "name": "",
          "type": "bool"
        }
      ],
      "stateMutability": "nonpayable",
      "type": "function"
    },
    {
      "inputs": [
        {
          "internalType": "uint256",
          "name": "",
          "type": "uint256"
        }
      ],
      "name": "assetInfos",
      "outputs": [
        {
          "internalType": "address",
          "name": "asset",
          "type": "address"
        },
        {
          "internalType": "uint256",
          "name": "weight",
          "type": "uint256"
        }
      ],
      "stateMutability": "view",
      "type": "function"
    },
    {
      "inputs": [
        {
          "internalType": "uint256",
          "name": "assetIndex",
          "type": "uint256"
        }
      ],
      "name": "assetLiquidity",
      "outputs": [
        {
          "internalType": "uint256",
          "name": "",
          "type": "uint256"
        }
      ],
      "stateMutability": "view",
      "type": "function"
    },
    {
      "inputs": [
        {
          "internalType": "address",
          "name": "account",
          "type": "address"
        }
      ],
      "name": "balanceOf",
      "outputs": [
        {
          "internalType": "uint256",
          "name": "",
          "type": "uint256"
        }
      ],
      "stateMutability": "view",
      "type": "function"
    },
    {
      "inputs": [],
      "name": "baseAsset",
      "outputs": [
        {
          "internalType": "address",
          "name": "",
          "type": "address"
        }
      ],
      "stateMutability": "view",
      "type": "function"
    },
    {
      "inputs": [
        {
          "internalType": "address",
          "name": "to",
          "type": "address"
        }
      ],
      "name": "burn",
      "outputs": [
        {
          "internalType": "uint256[]",
          "name": "",
          "type": "uint256[]"
        }
      ],
      "stateMutability": "nonpayable",
      "type": "function"
    },
    {
      "inputs": [
        {
          "internalType": "uint256",
          "name": "tokenBalanceIn",
          "type": "uint256"
        },
        {
          "internalType": "uint256",
          "name": "tokenWeightIn",
          "type": "uint256"
        },
        {
          "internalType": "uint256",
          "name": "tokenBalanceOut",
          "type": "uint256"
        },
        {
          "internalType": "uint256",
          "name": "tokenWeightOut",
          "type": "uint256"
        },
        {
          "internalType": "uint256",
          "name": "tokenAmountOut",
          "type": "uint256"
        },
        {
          "internalType": "uint256",
          "name": "swapFee",
          "type": "uint256"
        }
      ],
      "name": "calcInGivenOut",
      "outputs": [
        {
          "internalType": "uint256",
          "name": "tokenAmountIn",
          "type": "uint256"
        }
      ],
      "stateMutability": "pure",
      "type": "function"
    },
    {
      "inputs": [
        {
          "internalType": "address",
          "name": "fromToken",
          "type": "address"
        },
        {
          "internalType": "address",
          "name": "toToken",
          "type": "address"
        }
      ],
      "name": "calcOraclePrice",
      "outputs": [
        {
          "internalType": "uint256",
          "name": "",
          "type": "uint256"
        }
      ],
      "stateMutability": "view",
      "type": "function"
    },
    {
      "inputs": [
        {
          "internalType": "uint256",
          "name": "tokenBalanceIn",
          "type": "uint256"
        },
        {
          "internalType": "uint256",
          "name": "tokenWeightIn",
          "type": "uint256"
        },
        {
          "internalType": "uint256",
          "name": "tokenBalanceOut",
          "type": "uint256"
        },
        {
          "internalType": "uint256",
          "name": "tokenWeightOut",
          "type": "uint256"
        },
        {
          "internalType": "uint256",
          "name": "tokenAmountIn",
          "type": "uint256"
        },
        {
          "internalType": "uint256",
          "name": "swapFee",
          "type": "uint256"
        }
      ],
      "name": "calcOutGivenIn",
      "outputs": [
        {
          "internalType": "uint256",
          "name": "tokenAmountOut",
          "type": "uint256"
        }
      ],
      "stateMutability": "pure",
      "type": "function"
    },
    {
      "inputs": [
        {
          "internalType": "uint256",
          "name": "tokenBalanceOut",
          "type": "uint256"
        },
        {
          "internalType": "uint256",
          "name": "tokenWeightOut",
          "type": "uint256"
        },
        {
          "internalType": "uint256",
          "name": "poolSupply",
          "type": "uint256"
        },
        {
          "internalType": "uint256",
          "name": "totalWeight",
          "type": "uint256"
        },
        {
          "internalType": "uint256",
          "name": "tokenAmountOut",
          "type": "uint256"
        },
        {
          "internalType": "uint256",
          "name": "swapFee",
          "type": "uint256"
        }
      ],
      "name": "calcPoolInGivenSingleOut",
      "outputs": [
        {
          "internalType": "uint256",
          "name": "poolAmountIn",
          "type": "uint256"
        }
      ],
      "stateMutability": "pure",
      "type": "function"
    },
    {
      "inputs": [
        {
          "internalType": "uint256",
          "name": "tokenBalanceIn",
          "type": "uint256"
        },
        {
          "internalType": "uint256",
          "name": "tokenWeightIn",
          "type": "uint256"
        },
        {
          "internalType": "uint256",
          "name": "poolSupply",
          "type": "uint256"
        },
        {
          "internalType": "uint256",
          "name": "totalWeight",
          "type": "uint256"
        },
        {
          "internalType": "uint256",
          "name": "tokenAmountIn",
          "type": "uint256"
        },
        {
          "internalType": "uint256",
          "name": "swapFee",
          "type": "uint256"
        }
      ],
      "name": "calcPoolOutGivenSingleIn",
      "outputs": [
        {
          "internalType": "uint256",
          "name": "poolAmountOut",
          "type": "uint256"
        }
      ],
      "stateMutability": "pure",
      "type": "function"
    },
    {
      "inputs": [
        {
          "internalType": "uint256",
          "name": "tokenBalanceIn",
          "type": "uint256"
        },
        {
          "internalType": "uint256",
          "name": "tokenWeightIn",
          "type": "uint256"
        },
        {
          "internalType": "uint256",
          "name": "poolSupply",
          "type": "uint256"
        },
        {
          "internalType": "uint256",
          "name": "totalWeight",
          "type": "uint256"
        },
        {
          "internalType": "uint256",
          "name": "poolAmountOut",
          "type": "uint256"
        },
        {
          "internalType": "uint256",
          "name": "swapFee",
          "type": "uint256"
        }
      ],
      "name": "calcSingleInGivenPoolOut",
      "outputs": [
        {
          "internalType": "uint256",
          "name": "tokenAmountIn",
          "type": "uint256"
        }
      ],
      "stateMutability": "pure",
      "type": "function"
    },
    {
      "inputs": [
        {
          "internalType": "uint256",
          "name": "tokenBalanceOut",
          "type": "uint256"
        },
        {
          "internalType": "uint256",
          "name": "tokenWeightOut",
          "type": "uint256"
        },
        {
          "internalType": "uint256",
          "name": "poolSupply",
          "type": "uint256"
        },
        {
          "internalType": "uint256",
          "name": "totalWeight",
          "type": "uint256"
        },
        {
          "internalType": "uint256",
          "name": "poolAmountIn",
          "type": "uint256"
        },
        {
          "internalType": "uint256",
          "name": "swapFee",
          "type": "uint256"
        }
      ],
      "name": "calcSingleOutGivenPoolIn",
      "outputs": [
        {
          "internalType": "uint256",
          "name": "tokenAmountOut",
          "type": "uint256"
        }
      ],
      "stateMutability": "pure",
      "type": "function"
    },
    {
      "inputs": [
        {
          "internalType": "address",
          "name": "fromToken",
          "type": "address"
        },
        {
          "internalType": "address",
          "name": "toToken",
          "type": "address"
        }
      ],
      "name": "calcSpotPrice",
      "outputs": [
        {
          "internalType": "uint256",
          "name": "",
          "type": "uint256"
        }
      ],
      "stateMutability": "view",
      "type": "function"
    },
    {
      "inputs": [
        {
          "internalType": "uint256",
          "name": "tokenBalanceIn",
          "type": "uint256"
        },
        {
          "internalType": "uint256",
          "name": "tokenWeightIn",
          "type": "uint256"
        },
        {
          "internalType": "uint256",
          "name": "tokenBalanceOut",
          "type": "uint256"
        },
        {
          "internalType": "uint256",
          "name": "tokenWeightOut",
          "type": "uint256"
        },
        {
          "internalType": "uint256",
          "name": "swapFee",
          "type": "uint256"
        }
      ],
      "name": "calcSpotPrice",
      "outputs": [
        {
          "internalType": "uint256",
          "name": "spotPrice",
          "type": "uint256"
        }
      ],
      "stateMutability": "pure",
      "type": "function"
    },
    {
      "inputs": [],
      "name": "computeTotalValuation",
      "outputs": [
        {
          "internalType": "uint256",
          "name": "totalVal",
          "type": "uint256"
        },
        {
          "internalType": "uint256[]",
          "name": "valuations",
          "type": "uint256[]"
        }
      ],
      "stateMutability": "view",
      "type": "function"
    },
    {
      "inputs": [],
      "name": "decimals",
      "outputs": [
        {
          "internalType": "uint8",
          "name": "",
          "type": "uint8"
        }
      ],
      "stateMutability": "view",
      "type": "function"
    },
    {
      "inputs": [],
      "name": "factory",
      "outputs": [
        {
          "internalType": "address",
          "name": "",
          "type": "address"
        }
      ],
      "stateMutability": "view",
      "type": "function"
    },
    {
      "inputs": [
        {
          "internalType": "address",
          "name": "fromToken",
          "type": "address"
        },
        {
          "internalType": "address",
          "name": "toToken",
          "type": "address"
        },
        {
          "internalType": "uint256",
          "name": "amount",
          "type": "uint256"
        }
      ],
      "name": "getAmountOut",
      "outputs": [
        {
          "internalType": "uint256",
          "name": "",
          "type": "uint256"
        }
      ],
      "stateMutability": "view",
      "type": "function"
    },
    {
      "inputs": [
        {
          "internalType": "address",
          "name": "asset",
          "type": "address"
        }
      ],
      "name": "getAssetReserve",
      "outputs": [
        {
          "internalType": "uint256",
          "name": "",
          "type": "uint256"
        }
      ],
      "stateMutability": "view",
      "type": "function"
    },
    {
      "inputs": [],
      "name": "getAssets",
      "outputs": [
        {
          "internalType": "address[]",
          "name": "",
          "type": "address[]"
        }
      ],
      "stateMutability": "view",
      "type": "function"
    },
    {
      "inputs": [],
      "name": "getColor",
      "outputs": [
        {
          "internalType": "bytes32",
          "name": "",
          "type": "bytes32"
        }
      ],
      "stateMutability": "view",
      "type": "function"
    },
    {
      "inputs": [],
      "name": "getDeviation",
      "outputs": [
        {
          "internalType": "bool[]",
          "name": "directions",
          "type": "bool[]"
        },
        {
          "internalType": "uint256[]",
          "name": "deviations",
          "type": "uint256[]"
        }
      ],
      "stateMutability": "view",
      "type": "function"
    },
    {
      "inputs": [],
      "name": "getReserves",
      "outputs": [
        {
          "internalType": "uint256[]",
          "name": "",
          "type": "uint256[]"
        }
      ],
      "stateMutability": "view",
      "type": "function"
    },
    {
      "inputs": [],
      "name": "getWeights",
      "outputs": [
        {
          "internalType": "uint256[]",
          "name": "",
          "type": "uint256[]"
        }
      ],
      "stateMutability": "view",
      "type": "function"
    },
    {
      "inputs": [],
      "name": "isRebalanceNeeded",
      "outputs": [
        {
          "internalType": "bool",
          "name": "",
          "type": "bool"
        }
      ],
      "stateMutability": "view",
      "type": "function"
    },
    {
      "inputs": [],
      "name": "liquidity",
      "outputs": [
        {
          "internalType": "uint256",
          "name": "",
          "type": "uint256"
        }
      ],
      "stateMutability": "view",
      "type": "function"
    },
    {
      "inputs": [
        {
          "internalType": "address",
          "name": "to",
          "type": "address"
        },
        {
          "internalType": "uint256[]",
          "name": "amounts",
          "type": "uint256[]"
        }
      ],
      "name": "mint",
      "outputs": [
        {
          "internalType": "uint256",
          "name": "",
          "type": "uint256"
        }
      ],
      "stateMutability": "nonpayable",
      "type": "function"
    },
    {
      "inputs": [],
      "name": "name",
      "outputs": [
        {
          "internalType": "string",
          "name": "",
          "type": "string"
        }
      ],
      "stateMutability": "view",
      "type": "function"
    },
    {
      "inputs": [],
      "name": "performRebalanceIfNeeded",
      "outputs": [
        {
          "internalType": "uint256[]",
          "name": "amountsToAdd",
          "type": "uint256[]"
        },
        {
          "internalType": "uint256[]",
          "name": "amountsToRemove",
          "type": "uint256[]"
        }
      ],
      "stateMutability": "nonpayable",
      "type": "function"
    },
    {
      "inputs": [],
      "name": "periphery",
      "outputs": [
        {
          "internalType": "address",
          "name": "",
          "type": "address"
        }
      ],
      "stateMutability": "view",
      "type": "function"
    },
    {
      "inputs": [
        {
          "internalType": "address",
          "name": "receiver",
          "type": "address"
        }
      ],
      "name": "rebalanceWeights",
      "outputs": [
        {
          "internalType": "uint256[]",
          "name": "",
          "type": "uint256[]"
        }
      ],
      "stateMutability": "nonpayable",
      "type": "function"
    },
    {
      "inputs": [],
      "name": "rebalancer",
      "outputs": [
        {
          "internalType": "address",
          "name": "",
          "type": "address"
        }
      ],
      "stateMutability": "view",
      "type": "function"
    },
    {
      "inputs": [
        {
          "internalType": "address",
          "name": "fromToken",
          "type": "address"
        },
        {
          "internalType": "address",
          "name": "toToken",
          "type": "address"
        },
        {
          "internalType": "uint256",
          "name": "amount",
          "type": "uint256"
        },
        {
          "internalType": "address",
          "name": "receiver",
          "type": "address"
        }
      ],
      "name": "swap",
      "outputs": [
        {
          "internalType": "uint256",
          "name": "toSend",
          "type": "uint256"
        }
      ],
      "stateMutability": "nonpayable",
      "type": "function"
    },
    {
      "inputs": [],
      "name": "symbol",
      "outputs": [
        {
          "internalType": "string",
          "name": "",
          "type": "string"
        }
      ],
      "stateMutability": "view",
      "type": "function"
    },
    {
      "inputs": [],
      "name": "totalSupply",
      "outputs": [
        {
          "internalType": "uint256",
          "name": "",
          "type": "uint256"
        }
      ],
      "stateMutability": "view",
      "type": "function"
    },
    {
      "inputs": [
        {
          "internalType": "address",
          "name": "to",
          "type": "address"
        },
        {
          "internalType": "uint256",
          "name": "value",
          "type": "uint256"
        }
      ],
      "name": "transfer",
      "outputs": [
        {
          "internalType": "bool",
          "name": "",
          "type": "bool"
        }
      ],
      "stateMutability": "nonpayable",
      "type": "function"
    },
    {
      "inputs": [
        {
          "internalType": "address",
          "name": "from",
          "type": "address"
        },
        {
          "internalType": "address",
          "name": "to",
          "type": "address"
        },
        {
          "internalType": "uint256",
          "name": "value",
          "type": "uint256"
        }
      ],
      "name": "transferFrom",
      "outputs": [
        {
          "internalType": "bool",
          "name": "",
          "type": "bool"
        }
      ],
      "stateMutability": "nonpayable",
      "type": "function"
    },
    {
      "inputs": [],
      "name": "trigger",
      "outputs": [
        {
          "internalType": "uint256",
          "name": "",
          "type": "uint256"
        }
      ],
      "stateMutability": "view",
      "type": "function"
    },
    {
      "inputs": [],
      "name": "unitPrice",
      "outputs": [
        {
          "internalType": "uint256",
          "name": "",
          "type": "uint256"
        }
      ],
      "stateMutability": "view",
      "type": "function"
    }
  ],
  "bytecode": "0x6080806040523461043957613cd5803803809161001c82856108fe565b8339810160a0828203126104395761003382610921565b60208301519091906001600160401b0381116104395783019181601f840112156104395782519261006384610935565b9361007160405195866108fe565b80855260208086019160051b8301019184831161043957602001905b8282106108cb5750505060408401516001600160401b0381116104395784019180601f840112156104395782516100c381610935565b936100d160405195866108fe565b81855260208086019260051b82010192831161043957602001905b8282106108bb57505050610107608060608601519501610921565b604051610113816108e3565b6009815268042616c756e69204c560bc1b602082015260405190610136826108e3565b6009825268042414c554e492d4c560bc1b60208301528051906001600160401b0382116104965760035490600182811c921680156108b1575b60208310146107925781601f849311610843575b50602090601f83116001146107bb575f926107b0575b50508160011b915f199060031b1c1916176003555b8051906001600160401b0382116104965760045490600182811c921680156107a6575b60208310146107925781601f849311610724575b50602090601f83116001146106a0575f92610695575b50508160011b915f199060031b1c1916176004555b6001600555600980546001600160a01b03199081166001600160a01b0393841617909155600a8054821633179055600c8054909116918316919091179055670de0b6b3a76400006008558251825103610645575f5b8351811015610525576001600160a01b03610280828661094c565b5116156104e057610291818461094c565b51156104aa576001600160a01b036102a9828661094c565b51166102b5828561094c565b5160408051929083018084116001600160401b0390911117610496576040830160405282526020820152600654680100000000000000008110156104965760018101806006558110156104825760065f5281517ff652222313e28459528d920b65115c16c04f3efc82aaedc97be59f3f377c0d3f60019290921b91820180546001600160a01b039283166001600160a01b03199091161790556020909201517ff652222313e28459528d920b65115c16c04f3efc82aaedc97be59f3f377c0d4090910155610383828661094c565b511660018060a01b03600c5416604051636eb1769f60e11b8152306004820152816024820152602081604481865afa908115610445575f91610450575b50156103d1575b5050600101610265565b5f916044602092604051948593849263095ea7b360e01b84526004840152811960248401525af1801561044557610409575b806103c7565b6020813d60201161043d575b81610422602093836108fe565b81010312610439575180151503610439575f610403565b5f80fd5b3d9150610415565b6040513d5f823e3d90fd5b90506020813d60201161047a575b8161046b602093836108fe565b8101031261043957515f6103c0565b3d915061045e565b634e487b7160e01b5f52603260045260245ffd5b634e487b7160e01b5f52604160045260245ffd5b60405162461bcd60e51b815260206004820152600e60248201526d125b9d985b1a59081dd95a59da1d60921b6044820152606490fd5b60405162461bcd60e51b815260206004820152601560248201527f496e76616c6964206173736574206164647265737300000000000000000000006044820152606490fd5b5060078490556040516389a3027160e01b815290602090829060049082906001600160a01b03165afa908115610445575f9161060b575b50600b80546001600160a01b0319166001600160a01b03929092169190911790555f90815b81518310156105bd57610594838361094c565b5181018091116105a957600190920191610581565b634e487b7160e01b5f52601160045260245ffd5b612710036105d45760405161337490816109618239f35b60405162461bcd60e51b815260206004820152600f60248201526e496e76616c6964207765696768747360881b6044820152606490fd5b90506020813d60201161063d575b81610626602093836108fe565b810103126104395761063790610921565b8261055c565b3d9150610619565b60405162461bcd60e51b815260206004820152602260248201527f41737365747320616e642077656967687473206c656e677468206d69736d61746044820152610c6d60f31b6064820152608490fd5b015190505f806101fb565b60045f9081527f8a35acfbc15ff81a39ae7d344fd709f28e8600b4aa8c65c6b64bfe7fe36bd19b9350601f198516905b81811061070c57509084600195949392106106f4575b505050811b01600455610210565b01515f1960f88460031b161c191690555f80806106e6565b929360206001819287860151815501950193016106d0565b60045f529091507f8a35acfbc15ff81a39ae7d344fd709f28e8600b4aa8c65c6b64bfe7fe36bd19b601f840160051c81019160208510610788575b90601f859493920160051c01905b81811061077a57506101e5565b5f815584935060010161076d565b909150819061075f565b634e487b7160e01b5f52602260045260245ffd5b91607f16916101d1565b015190505f80610199565b60035f90815293507fc2575a0e9e593c00f959f8c92f12db2869c3395a3b0502d05e2516446f71f85b91905b601f1984168510610828576001945083601f19811610610810575b505050811b016003556101ae565b01515f1960f88460031b161c191690555f8080610802565b818101518355602094850194600190930192909101906107e7565b60035f529091507fc2575a0e9e593c00f959f8c92f12db2869c3395a3b0502d05e2516446f71f85b601f840160051c810191602085106108a7575b90601f859493920160051c01905b8181106108995750610183565b5f815584935060010161088c565b909150819061087e565b91607f169161016f565b81518152602091820191016100ec565b602080916108d884610921565b81520191019061008d565b604081019081106001600160401b0382111761049657604052565b601f909101601f19168101906001600160401b0382119082101761049657604052565b51906001600160a01b038216820361043957565b6001600160401b0381116104965760051b60200190565b80518210156104825760209160051b01019056fe6080604081815260049182361015610015575f80fd5b5f925f3560e01c91826301d22ccd1461258d5750816306fdde03146124995781630723c999146121d25781630902f1ac146121a2578163095ea7b3146120fa57816309a3bbe4146106ec5781630d0fa02914611f7957816318160ddd14611f5b578163189d00ca14611f3d5781631a68650214611f19578163218b538214610c3d57816322acb86714611ebc57816323b872dd14611ddb578163313ce56714611dc057816336bf6e3914611d8c5781634aa0665214611ce457816358d1969814611ba35781635c1bbaf714611b5c57816367a6c44014611b4157816367e4ac2c14611ade5781636e81221c1461168c57816370a082311461165657816376c7a3c71461163757816377aace1a1461160f5781637fec8d38146115f157816382f652ad146115515781638656b65314611506578163867378c5146114e957816389298012146113f557816389ab35321461138b57816389afcb4414610f6c5781638a77c8dc14610f475781639381cd2b14610f2457816395d89b4114610e26578163992e2a9214610e045781639a86139b14610de1578163a221ee4914610d98578163a9059cbb14610d68578163b0e0d13614610d4d578163b2b55d7014610d28578163b7b800a414610d0d578163ba019dab14610cf2578163ba9530a614610ca4578163bc063e1a14610c82578163bc694ea214610c60578163c2ee3a0814610c42578163c36596a614610c3d578163c45a015514610c15578163c6580d1214610bfb578163cdf456e114610bd3578163cf8fa76414610b5b578163d14ef46d14610b0f578163dd62ed3e14610ac6578163de836ebd146106f1578163e4a28a52146106ec578163e73faa2d146106d0578163ec093021146106ae578163f47b45e814610314575063f8d6aed4146102ab575f80fd5b34610310576020906103096102e86103046102ee6102fe6102f86102f36102e16102d4366126f8565b99949b9293909591612e60565b938261321b565b90612e60565b612f12565b613212565b916131c9565b926131aa565b612e60565b9051908152f35b5080fd5b8284346105a9576003195f368201126105a9576009546001600160a01b03949085169161034233841461280e565b61035261034d612aa9565b61284b565b6006549361035f856128a7565b93610369866128a7565b97610373876128a7565b9261037d886128a7565b94610387896128a7565b9a6103918a6128a7565b995f5b8181106105f55750506103a56128ed565b84600c54169160075486600b5416843b156105a9578e51633c2fddc560e21b815260e0818e01528d9990968795869591906103e49060e4880190612606565b9b60249c828882030160248901526103fb9161271e565b9086820301604487015261040e91612606565b92606485015280608485015260a484015260c483015203815a5f948591f180156105eb576105be575b50600654600954909690831692825b8881106104b3578c8c6104af8d8d7f279b343370f587af7fb675ae7c8578e9c8abcc373236ad02c501a4771fe7a7b88451602081528061048b3394602083019061271e565b0390a26104a18351948486958652850190612606565b908382036020850152612606565b0390f35b816104be828c6128d9565b51168c5180916370a0823160e01b82528786830152818960209485935afa9182156105b4578f908a94938f91938d948a92610573575b505094849160019661050684876128d9565b5261051183866128d9565b5161051c84846128d9565b5110156105565750610548906105418361053a8161054e97986128d9565b51926128d9565b5190612767565b926128d9565b525b01610446565b9361056d93506105418361053a81610548956128d9565b52610550565b9450955050505082813d83116105ad575b61058e81836127c0565b810103126105a957888e828a8f6001965191968193506104f4565b5f80fd5b503d610584565b8e513d88823e3d90fd5b905067ffffffffffffffff81116105d85788525f8a610437565b604186634e487b7160e01b5f525260245ffd5b8a513d5f823e3d90fd5b856105ff82612774565b50541661060c828d6128d9565b52600161061882612774565b50015461062582856128d9565b5285610631828d6128d9565b5116908d5180926370a0823160e01b8252898d83015281602460209384935afa9081156106a4575f91610675575b506001925061066e828b6128d9565b5201610394565b905082813d831161069d575b61068b81836127c0565b810103126105a957600191515f61065f565b503d610681565b8f513d5f823e3d90fd5b82346105a9575f3660031901126105a957602090516706f05b59d3b200008152f35b82346105a9575f3660031901126105a957602090610309612b77565b612660565b82346105a957806003193601126105a95761070a6125da565b9060249182359367ffffffffffffffff85116105a957366023860112156105a9578481013593610739856127f6565b94610746855196876127c0565b808652602096828888019260051b820101913683116105a95783899201905b838210610ab75750506009546001600160a01b0397925061078a91508716331461280e565b600254905f906107986128ed565b9060065491518203610a75578115610a4757905f915b818310610a0e5750505080156109c157838888600b541688519283809263313ce56760e01b82525afa9081156109b7579060ff915f9161098a575b501691806108ec5750670de0b6b3a7640000808202918204036108da579061081091612767565b945b85156108a8576108438691335f525f8952865f2054956108328482612c36565b1694855f525f8952865f2054612767565b036108785750507f0f6798a560793a54c3bcfe86a93cde1e73087d944c0ea20544137d4121396885848351858152a251908152f35b835162461bcd60e51b8152918201869052600b908201526a135a5b9d0811985a5b195960aa1b6044820152606490fd5b845162461bcd60e51b8152808401889052600d818401526c04d696e7420717479206973203609c1b6044820152606490fd5b82601185634e487b7160e01b5f52525ffd5b6108f4612ba2565b509182156109395761090f929161090a91612639565b612683565b670de0b6b3a7640000908181029181830414901517156108da579061093391612767565b94610812565b875162461bcd60e51b81528087018b90526026818701527f546f74616c206c6971756964697479206d75737420626520677265617465722060448201526507468616e20360d41b6064820152608490fd5b6109aa91508a3d8c116109b0575b6109a281836127c0565b81019061288e565b8a6107e9565b503d610998565b87513d5f823e3d90fd5b855162461bcd60e51b81528085018990526022818501527f546f74616c2076616c7565206d7573742062652067726561746572207468616e604482015261020360f41b6064820152608490fd5b909192610a3e600191610a388c610a2488612774565b505416610a3188876128d9565b5190613263565b9061275a565b930191906107ae565b875162461bcd60e51b81528087018b9052600981870152684e6f2061737365747360b81b6044820152606490fd5b875162461bcd60e51b81528087018b90526017818701527f496e76616c6964207265736572766573206c656e6774680000000000000000006044820152606490fd5b81358152908201908201610765565b82346105a957806003193601126105a957602090610ae26125da565b610aea6125f0565b9060018060a01b038091165f5260018452825f2091165f528252805f20549051908152f35b9050346105a95760203660031901126105a957356006548110156105a957610b3690612774565b50805460019091015491516001600160a01b0390911681526020810191909152604090f35b9050346105a95760203660031901126105a957803590610b79612ba2565b8092915051831015610b9a57602084610b9285856128d9565b519051908152f35b606490602085519162461bcd60e51b83528201526013602482015272092dcecc2d8d2c840c2e6e6cae840d2dcc8caf606b1b6044820152fd5b82346105a9575f3660031901126105a957600b5490516001600160a01b039091168152602090f35b82346105a9575f3660031901126105a957602090515f8152f35b82346105a9575f3660031901126105a957600a5490516001600160a01b039091168152602090f35b6126a1565b82346105a9575f3660031901126105a9576020906008549051908152f35b82346105a9575f3660031901126105a95760209051671bc16d674ec7ffff8152f35b82346105a9575f3660031901126105a9576020905167016345785d8a00008152f35b82346105a957602090610309610cdb610ce1610ced610ce76102ee610ce16102e8610cce366126f8565b989496929b919093612e60565b966131c9565b906131aa565b82612ec5565b6131c9565b82346105a9575f3660031901126105a9576020905160018152f35b82346105a9575f3660031901126105a9576020905160028152f35b82346105a95760203660031901126105a957602090610309610d486125da565b612aff565b82346105a9575f3660031901126105a9576020905160088152f35b82346105a957806003193601126105a957602090610d91610d876125da565b6024359033612cf8565b5160018152f35b82346105a95760a03660031901126105a957610309610dce610dc06020946024359035612e60565b6102e8606435604435612e60565b610ce1610ddc6084356131c9565b612df9565b82346105a9575f3660031901126105a957516542524f4e5a4560d01b8152602090f35b82346105a9575f3660031901126105a957602090516704a03ce68d2155568152f35b82346105a9575f3660031901126105a9578051905f9280549060018260011c9160018416938415610f1a575b6020948585108114610f0757848852908115610ee55750600114610e8c575b6104af8686610e82828b03836127c0565b51918291826125b0565b5f9081529295507f8a35acfbc15ff81a39ae7d344fd709f28e8600b4aa8c65c6b64bfe7fe36bd19b5b828410610ed257505050826104af94610e82928201019486610e71565b8054868501880152928601928101610eb5565b60ff191687860152505050151560051b8301019250610e82826104af86610e71565b602283634e487b7160e01b5f525260245ffd5b92607f1692610e52565b82346105a9575f3660031901126105a9576020905168056bc75e2d631000008152f35b82346105a9575f3660031901126105a957602090610f63612aa9565b90519015158152f35b82346105a957602090816003193601126105a957610f886125da565b6009546001600160a01b0390811691610fa233841461280e565b305f525f8552835f20549586156113485760025496871561131657600654610fc9816128a7565b98601e8302838104601e0361130357612710610fe791048094612767565b965f5b8381106112485750505050305f525f875284865f20541061120557818785600c54168851928380926361d027b360e01b82525afa9081156109b7579088915f916111cb575b50875163a9059cbb60e01b81526001600160a01b03909116848201908152602081019390935291829081906040015b03815f305af19081156111c1575f9161118b575b501561115257301561113c57305f525f8652845f205490848210611111575083927fcc16f5dbb4873280815c1ee09dbd06736cffcc184412cf7a71a0fdb75d397ca5926104af96958893305f525f855203865f205584600254036002555f86518681527fddf252ad1be2c89b69c2b068fc378daa952ba7f163c4a11628f55a4df523b3ef853092a385519485521692a251928284938452830190612606565b855163391434e360e21b81523091810191825260208201929092526040810185905281906060010390fd5b6024905f865191634b637e8f60e11b8352820152fd5b845162461bcd60e51b81529081018690526013602482015272119959481d1c985b9cd9995c8819985a5b1959606a1b6044820152606490fd5b90508681813d83116111ba575b6111a281836127c0565b810103126105a9575180151581036105a95788611072565b503d611198565b86513d5f823e3d90fd5b82819392503d83116111fe575b6111e281836127c0565b810103126105a9575184811681036105a957879061105e61102f565b503d6111d8565b855162461bcd60e51b8152808301889052601d60248201527f496e73756666696369656e742042414c554e49206c69717569646974790000006044820152606490fd5b61128a8b8961125684612774565b50548d5163a3e113fb60e01b8152308b8201908152929091166001600160a01b031660208301529283918291604090910190565b0381865afa9081156112f9578a8593928f925f916112bf575b5061054860019561090a6112b8948794612639565b5201610fea565b94505050508b82813d83116112f2575b6112d981836127c0565b810103126105a95790518391908d908b906105486112a3565b503d6112cf565b8b513d5f823e3d90fd5b601185634e487b7160e01b5f525260245ffd5b855162461bcd60e51b8152808301889052600c60248201526b4e6f206c697175696469747960a01b6044820152606490fd5b845162461bcd60e51b8152908101869052601c60248201527f5368617265206d7573742062652067726561746572207468616e2030000000006044820152606490fd5b82346105a9575f3660031901126105a9576113a46129c2565b8251928391818301918352835180925260608301916020809501945f5b8281106113dc5785806104af87878382036020850152612606565b86511515855295810195879550938101936001016113c1565b82346105a957611411611407366126f8565b9591909293612e60565b95670de0b6b3a7640000918281029080159080830485148217156114d65790846114439282156114c2575b50506130fe565b6706f05b59d3b200008101918282116114af57506114a9856114a360209a9761149e61148f610ce199610304610ced9a8a6103099f9b61149e9b6114889110156130fe565b048261321b565b6114988b612df9565b90612f12565b6131aa565b9061321b565b946131c9565b601190634e487b7160e01b5f525260245ffd5b6114ce91925084612683565b14848b61143c565b601184634e487b7160e01b5f525260245ffd5b82346105a9575f3660031901126105a95760209051620f42408152f35b82346105a957602090610309610ced61154c61154261149e610ce76102ee610ce1610304611533366126f8565b989496929c918d9b9194612e60565b9761149e896131c9565b61321b565b9050346105a957611582610ced6114a361154261149e61157c6102ee6102e8610304611533366126f8565b8261321b565b91670de0b6b3a7640000908184029380159080860484148217156113035790836115b49282156115dd575b5050612dba565b6706f05b59d3b200008401928385116114af57506115d6602094841015612dba565b5191048152f35b6115e991925087612683565b1483876115ad565b82346105a9575f3660031901126105a9576020906007549051908152f35b82346105a9575f3660031901126105a95760095490516001600160a01b039091168152602090f35b82346105a9575f3660031901126105a9576020905164e8d4a510008152f35b82346105a95760203660031901126105a9576020906001600160a01b0361167b6125da565b165f525f8252805f20549051908152f35b9050346105a95760803660031901126105a9576116a76125da565b916116b06125f0565b604435926001600160a01b03919060643583811691908290036105a957600260055414611ad057600260055583831693871692848414611a8d578615611a4a576116f981612aff565b9761170381612aff565b906103e8908161171282612cab565b049a670de0b6b3a76400009b8c8102908d8183041490151715611a37578c908461173b88612cab565b048281029281840414901517156119cb5761176c916102e86117606117679389612e60565b9185612e60565b61313d565b928c8161177885612cab565b048181029181830414901517156119cb578d908261179589612cab565b04828102928184041490151715611a2457906117b091612e60565b8c670de0b6b3a763ffe28082029182048103611a11576117db908f6117d59084612683565b146130fe565b6706f05b59d3b20000810190818111611a11578f926102ee611814611820958561180d610ced9661181a9810156130fe565b048b612ec5565b8a612e60565b836131aa565b94600186106119de57908061184c8f94938f6118408a9161184693612ec5565b9561321b565b95612cab565b048381029381850414901517156119cb57908d929161186a88612cab565b048381029381850414901517156119cb5761176785946102e86118a5956118986118af999661189e96612e60565b92612e60565b1015613225565b61189e838b612e60565b865163313ce56760e01b8152602099908a8186818b5afa9081156119c1579060ff915f916119a4575b5016900367ffffffffffffffff9081811161130357916118ff916119079594931690612683565b928391612aff565b1061196857601e820290828204601e14831517156114af57506119517fcd3829a3813dc3cdd188fd3d01dcf3268c16be2fdd2dd21d0665418816e460629261271088930490612767565b9681519081528789820152a4600160055551908152f35b855162461bcd60e51b81529081018890526016602482015275496e73756666696369656e74204c697175696469747960501b6044820152606490fd5b6119bb91508c8d3d106109b0576109a281836127c0565b8c6118d8565b89513d5f823e3d90fd5b601188634e487b7160e01b5f525260245ffd5b8b5162461bcd60e51b81526020818a0152600d60248201526c11549497d31253525517d3d555609a1b6044820152606490fd5b60118a634e487b7160e01b5f525260245ffd5b601189634e487b7160e01b5f525260245ffd5b601187634e487b7160e01b5f525260245ffd5b855162461bcd60e51b8152602081840181905260248201527f416d6f756e74206d7573742062652067726561746572207468616e207a65726f6044820152606490fd5b855162461bcd60e51b8152602081840152601a60248201527f43616e6e6f742073776170207468652073616d6520746f6b656e0000000000006044820152606490fd5b8451633ee5aeb560e01b8152fd5b82346105a9575f3660031901126105a957600654611afb816128a7565b905f5b818110611b1a578351602080825281906104af9082018661271e565b80611b26600192612774565b50828060a01b03905416611b3a82866128d9565b5201611afe565b82346105a9575f3660031901126105a95760209051601e8152f35b82346105a957602090610309611b9c6102e8610ced61149e61149e6114a961148f61154c610304611b8c366126f8565b9a949793918896929e919e612e60565b9c82612ec5565b9050346105a957816003193601126105a957611bbd6125da565b91611bc66125f0565b611bcf84612aff565b50611bd981612aff565b50815163313ce56760e01b81526020946001600160a01b0391868187818587165afa908115611cda579060ff915f91611cbd575b501691600c541691604d8111611caa57845163248391ff60e01b81526001600160a01b03928316968101968752939091166020860152600a0a60408501529092849184918290819060600103915afa918215611ca0575f92611c71575b5051908152f35b9091508281813d8311611c99575b611c8981836127c0565b810103126105a957519083611c6a565b503d611c7f565b50513d5f823e3d90fd5b601186634e487b7160e01b5f525260245ffd5b611cd49150883d8a116109b0576109a281836127c0565b88611c0d565b85513d5f823e3d90fd5b82346105a9576020611cf5366126c3565b600c54855163248391ff60e01b81526001600160a01b03948516978101978852928416602088015260408701919091529094859290839003606001918391165afa908115611d83575f91611d4e575b6020925051908152f35b90506020823d602011611d7b575b81611d69602093836127c0565b810103126105a9576020915190611d44565b3d9150611d5c565b513d5f823e3d90fd5b82346105a9575f3660031901126105a9576104af611da8612ba2565b83929192519384938452806020850152830190612606565b82346105a9575f3660031901126105a9576020905160128152f35b9050346105a957611deb366126c3565b6001600160a01b0383165f81815260016020818152888320338452905290879020549295939493908301611e28575b602087610d91888888612cf8565b858310611e90578115611e7a573315611e6457505f90815260016020908152868220338352815290869020918590039091558290610d91611e1a565b6024905f885191634a1406b160e11b8352820152fd5b6024905f88519163e602df0560e01b8352820152fd5b8651637dc7a0d960e11b8152339181019182526020820193909352604081018690528291506060010390fd5b82346105a9575f3660031901126105a957600654611ed9816128a7565b905f5b818110611ef8578351602080825281906104af90820186612606565b806001611f058193612774565b500154611f1282866128d9565b5201611edc565b82346105a9575f3660031901126105a957602090611f35612ba2565b509051908152f35b82346105a9575f3660031901126105a957602090516305f5e1008152f35b82346105a9575f3660031901126105a9576020906002549051908152f35b82346105a957806003193601126105a957611f926125da565b611f9a6125f0565b92611fa482612aff565b93611fae81612aff565b845163313ce56760e01b80825260209791946001600160a01b039390929091898785818b89165afa9687156119c157908a915f986120db575b50848a5180978193825289165afa9384156120d1575f946120b2575b50670de0b6b3a764000095868202918083048814901517156114d6579060ff61202d921690612767565b928582029180830487149015171561209f5761205c9160ff612050921690612767565b956103e8918291612cab565b04938585029480860487149015171561209f5761207890612cab565b048481029481860414901517156114af57506117679261189861030995936102e893612e60565b601183634e487b7160e01b5f525260245ffd5b6120ca919450893d8b116109b0576109a281836127c0565b9289612003565b88513d5f823e3d90fd5b6120f3919850823d84116109b0576109a281836127c0565b968b611fe7565b82346105a957806003193601126105a9576121136125da565b60243590331561218c576001600160a01b03169081156121765760209350335f5260018452825f20825f52845280835f205582519081527f8c5be1e5ebec7d5bd14f71427d1e84f3dd0314c0f7b2291e5b200ac8c7c3b925843392a35160018152f35b8251634a1406b160e11b81525f81860152602490fd5b825163e602df0560e01b81525f81860152602490fd5b82346105a9575f3660031901126105a9576104af906121bf6128ed565b9051918291602083526020830190612606565b9050346105a957602091826003193601126105a9576121ef6125da565b9160018060a01b03936122078560095416331461280e565b61221261034d612aa9565b61221a612ba2565b6006549491612228866128a7565b915f5b878110612444575050505f905f5b8681106124255750600b54835163313ce56760e01b81529089169285828881875afa918215611cda575f92612406575b5060ff670de0b6b3a764000092168203918211611a37576122939161228d91612639565b966128a7565b955f5b82518110156123ae576122a981846128d9565b516122b7575b600101612296565b6122c181846128d9565b51868b6122cd84612774565b5054600c54895163248391ff60e01b81526001600160a01b038a81168e830190815294909316909216602084015260408301949094529283918290036060019082908f165afa9081156111c1575f91612381575b50801561233e5790600191612336828b6128d9565b5290506122af565b855162461bcd60e51b8152808901889052601b60248201527f496e76616c696420746f6b656e20616d6f756e7420746f2061646400000000006044820152606490fd5b90508681813d83116123a7575b61239881836127c0565b810103126105a957518b612321565b503d61238e565b87866104af87866123bf878f612c36565b7fa95ad530009c6f929555e70a66aadbeae7231e45756c5b028ca77fbaa376e73e8251858152806123f4339488830190612606565b0390a251928284938452830190612606565b61241e919250863d88116109b0576109a281836127c0565b908a612269565b9161243d60019161243685856128d9565b519061275a565b9201612239565b8061271061246060016124578195612774565b50015486612639565b048061246c83866128d9565b511061247a575b500161222b565b6124889061054183866128d9565b61249282876128d9565b528b612473565b82346105a9575f3660031901126105a9578051905f9260035460018160011c91600181168015612583575b6020948585108214612570575083875290811561255057506001146124f6575b505050610e82826104af9403836127c0565b60035f9081529295507fc2575a0e9e593c00f959f8c92f12db2869c3395a3b0502d05e2516446f71f85b5b82841061253d57505050826104af94610e8292820101946124e4565b8054868501880152928601928101612521565b60ff1916868501525050151560051b8301019250610e82826104af6124e4565b602290634e487b7160e01b5f525260245ffd5b92607f16926124c4565b346105a9575f3660031901126105a957600c546001600160a01b03168152602090f35b602060409281835280519182918282860152018484015e5f828201840152601f01601f1916010190565b600435906001600160a01b03821682036105a957565b602435906001600160a01b03821682036105a957565b9081518082526020808093019301915f5b828110612625575050505090565b835185529381019392810192600101612617565b8181029291811591840414171561264c57565b634e487b7160e01b5f52601160045260245ffd5b346105a9575f3660031901126105a95760206040516802b5e3af16b18800008152f35b811561268d570490565b634e487b7160e01b5f52601260045260245ffd5b346105a9575f3660031901126105a9576020604051670de0b6b3a76400008152f35b60609060031901126105a9576001600160a01b039060043582811681036105a9579160243590811681036105a9579060443590565b60c09060031901126105a957600435906024359060443590606435906084359060a43590565b9081518082526020808093019301915f5b82811061273d575050505090565b83516001600160a01b03168552938101939281019260010161272f565b9190820180921161264c57565b9190820391821161264c57565b6006548110156127ac5760065f5260011b7ff652222313e28459528d920b65115c16c04f3efc82aaedc97be59f3f377c0d3f01905f90565b634e487b7160e01b5f52603260045260245ffd5b90601f8019910116810190811067ffffffffffffffff8211176127e257604052565b634e487b7160e01b5f52604160045260245ffd5b67ffffffffffffffff81116127e25760051b60200190565b1561281557565b60405162461bcd60e51b815260206004820152600e60248201526d4f6e6c792050657269706865727960901b6044820152606490fd5b1561285257565b60405162461bcd60e51b8152602060048201526014602482015273149958985b185b98d9481b9bdd081b995959195960621b6044820152606490fd5b908160209103126105a9575160ff811681036105a95790565b906128b1826127f6565b6128be60405191826127c0565b82815280926128cf601f19916127f6565b0190602036910137565b80518210156127ac5760209160051b010190565b600954604051630fa6707960e21b8152306004820152905f90829060249082906001600160a01b03165afa9081156129b7575f91612929575090565b90503d805f833e61293a81836127c0565b81019060209081818403126105a95780519067ffffffffffffffff82116105a957019180601f840112156105a9578251612973816127f6565b9361298160405195866127c0565b818552838086019260051b8201019283116105a9578301905b8282106129a8575050505090565b8151815290830190830161299a565b6040513d5f823e3d90fd5b6129ca612ba2565b9190600654906129d9826127f6565b916129e760405193846127c0565b808352601f196129f6826127f6565b01366020850137612a06816128a7565b945f5b828110612a1857505050509190565b612a2281836128d9565b51906127109182810292818404149015171561264c57612a4485600193612683565b612a4d82612774565b50830154839181811115612a825790612a6591612767565b612a6f838b6128d9565b52612a7a82886128d9565b525b01612a09565b90612a8d9250612767565b612a97828a6128d9565b525f612aa382886128d9565b52612a7c565b612ab16129c2565b5f5b8151811015612af857612ac681846128d9565b51151580612ae3575b612adb57600101612ab3565b505050600190565b50612aee81836128d9565b5160075410612acf565b5050505f90565b60095460405163a3e113fb60e01b81523060048201526001600160a01b039283166024820152916020918391168180604481015b03915afa9081156129b7575f91612b48575090565b90506020813d602011612b6f575b81612b63602093836127c0565b810103126105a9575190565b3d9150612b56565b612b7f612ba2565b506002548015612b9c5761090a612b999260085490612639565b90565b50505f90565b600654905f612bb0836128a7565b600b5490935f916001600160a01b03908116905b828410612bd357505050509190565b90919293612c1260019183612be788612774565b505416612bf381612aff565b90868103612c1c5750612c06888b6128d9565b525b612436878a6128d9565b9401929190612bc4565b90612c2691613263565b612c30888b6128d9565b52612c08565b6001600160a01b0316908115612c93577fddf252ad1be2c89b69c2b068fc378daa952ba7f163c4a11628f55a4df523b3ef602082612c775f9460025461275a565b60025584845283825260408420818154019055604051908152a3565b60405163ec442f0560e01b81525f6004820152602490fd5b600654905f5b828110612cbf575050505f90565b612cc881612774565b50546001600160a01b03838116911614612ce457600101612cb1565b60019250612cf29150612774565b50015490565b916001600160a01b03808416928315612da25716928315612c9357825f525f60205260405f205490828210612d705750817fddf252ad1be2c89b69c2b068fc378daa952ba7f163c4a11628f55a4df523b3ef92602092855f525f84520360405f2055845f5260405f20818154019055604051908152a3565b60405163391434e360e21b81526001600160a01b03919091166004820152602481019190915260448101829052606490fd5b604051634b637e8f60e11b81525f6004820152602490fd5b15612dc157565b60405162461bcd60e51b815260206004820152601060248201526f11549497d1125597d25395115493905360821b6044820152606490fd5b8015612e2c576ec097ce7bc90715b34b9f1000000000908060011c820180831161264c5761090a612b9993821015612dba565b60405162461bcd60e51b815260206004820152600c60248201526b4552525f4449565f5a45524f60a01b6044820152606490fd5b908015612e2c57670de0b6b3a764000091828102908015818304851481171561264c57612b9994612e98928215612eb1575050612dba565b61090a612ea88360011c8361275a565b91821015612dba565b612ebd91925084612683565b145f806115ad565b90612ed0908261275a565b908110612eda5790565b60405162461bcd60e51b815260206004820152601060248201526f4552525f4144445f4f564552464c4f5760801b6044820152606490fd5b91906001928381106130c157671bc16d674ec7ffff811161308357670de0b6b3a764000091828104908382029180830485149015171561264c57612f5782859261321b565b910491808684161561307d57815b93871c90815b613050575050811561304857612f83909391936132a7565b82949183915f9289955b6305f5e100821015612fac575b50505050505050612b999293506131aa565b909192939495978189029289840483148a15171561264c5783610304612fe992610ce1612fe2612fdc8b99613212565b8d613319565b98906131aa565b9283156130415784613039575b613031575b8286156130225761300b9161321b565b975b5f19811461264c578a01959493929190612f8d565b61302b91612ec5565b9761300d565b941594612ffb565b951595612ff6565b5097612f9a565b509093505050565b8061305a916131aa565b9087811661306c575b871c9081612f6b565b9381613077916131aa565b93613063565b84612f65565b60405162461bcd60e51b815260206004820152601660248201527508aa4a4be84a09eaebe8482a68abea89e9ebe90928e960531b6044820152606490fd5b60405162461bcd60e51b81526020600482015260156024820152744552525f42504f575f424153455f544f4f5f4c4f5760581b6044820152606490fd5b1561310557565b60405162461bcd60e51b815260206004820152601060248201526f4552525f4d554c5f4f564552464c4f5760801b6044820152606490fd5b670de0b6b3a764001e9081810291811590828404811482171561264c5761316b9282156131965750506130fe565b6706f05b59d3b20000810180821161264c57613192670de0b6b3a7640000928210156130fe565b0490565b6131a291925084612683565b145f8061143c565b61316b906131b88382612639565b9281159182156131965750506130fe565b6131d2906132e0565b6131d95790565b60405162461bcd60e51b81526020600482015260116024820152704552525f5355425f554e444552464c4f5760781b6044820152606490fd5b6131d2906132a7565b906131d291613319565b1561322c57565b60405162461bcd60e51b815260206004820152600f60248201526e08aa4a4be9a82a890be82a0a0a49eb608b1b6044820152606490fd5b600c54600b5460405163248391ff60e01b81526001600160a01b03938416600482015290831660248201526044810193909352602091839116818060648101612b33565b670de0b6b3a76400008082106132d05750670de0b6b3a763ffff19810190811161264c57905f90565b90810390811161264c5790600190565b670de0b6b3a7640000908082106132ff57810390811161264c57905f90565b670de0b6b3a763ffff1981019150811161264c5790600190565b81811061332f579061332a91612767565b905f90565b61333891612767565b9060019056fea2646970667358221220b71b02d2c9c67070abd5edd7aed54964fa1025337a855a655ba976286c7bc78b64736f6c63430008190033",
  "linkReferences": {},
  "deployedLinkReferences": {}
}