{
  "_format": "hh-sol-artifact-1",
  "contractName": "BaluniV1Pool",
  "sourceName": "contracts/BaluniV1Pool.sol",
  "abi": [
    {
      "inputs": [
        {
          "internalType": "address",
          "name": "target",
          "type": "address"
        }
      ],
      "name": "AddressEmptyCode",
      "type": "error"
    },
    {
      "inputs": [
        {
          "internalType": "address",
          "name": "implementation",
          "type": "address"
        }
      ],
      "name": "ERC1967InvalidImplementation",
      "type": "error"
    },
    {
      "inputs": [],
      "name": "ERC1967NonPayable",
      "type": "error"
    },
    {
      "inputs": [
        {
          "internalType": "address",
          "name": "spender",
          "type": "address"
        },
        {
          "internalType": "uint256",
          "name": "allowance",
          "type": "uint256"
        },
        {
          "internalType": "uint256",
          "name": "needed",
          "type": "uint256"
        }
      ],
      "name": "ERC20InsufficientAllowance",
      "type": "error"
    },
    {
      "inputs": [
        {
          "internalType": "address",
          "name": "sender",
          "type": "address"
        },
        {
          "internalType": "uint256",
          "name": "balance",
          "type": "uint256"
        },
        {
          "internalType": "uint256",
          "name": "needed",
          "type": "uint256"
        }
      ],
      "name": "ERC20InsufficientBalance",
      "type": "error"
    },
    {
      "inputs": [
        {
          "internalType": "address",
          "name": "approver",
          "type": "address"
        }
      ],
      "name": "ERC20InvalidApprover",
      "type": "error"
    },
    {
      "inputs": [
        {
          "internalType": "address",
          "name": "receiver",
          "type": "address"
        }
      ],
      "name": "ERC20InvalidReceiver",
      "type": "error"
    },
    {
      "inputs": [
        {
          "internalType": "address",
          "name": "sender",
          "type": "address"
        }
      ],
      "name": "ERC20InvalidSender",
      "type": "error"
    },
    {
      "inputs": [
        {
          "internalType": "address",
          "name": "spender",
          "type": "address"
        }
      ],
      "name": "ERC20InvalidSpender",
      "type": "error"
    },
    {
      "inputs": [],
      "name": "FailedInnerCall",
      "type": "error"
    },
    {
      "inputs": [],
      "name": "InvalidInitialization",
      "type": "error"
    },
    {
      "inputs": [],
      "name": "NotInitializing",
      "type": "error"
    },
    {
      "inputs": [
        {
          "internalType": "address",
          "name": "owner",
          "type": "address"
        }
      ],
      "name": "OwnableInvalidOwner",
      "type": "error"
    },
    {
      "inputs": [
        {
          "internalType": "address",
          "name": "account",
          "type": "address"
        }
      ],
      "name": "OwnableUnauthorizedAccount",
      "type": "error"
    },
    {
      "inputs": [],
      "name": "ReentrancyGuardReentrantCall",
      "type": "error"
    },
    {
      "inputs": [],
      "name": "UUPSUnauthorizedCallContext",
      "type": "error"
    },
    {
      "inputs": [
        {
          "internalType": "bytes32",
          "name": "slot",
          "type": "bytes32"
        }
      ],
      "name": "UUPSUnsupportedProxiableUUID",
      "type": "error"
    },
    {
      "anonymous": false,
      "inputs": [
        {
          "indexed": true,
          "internalType": "address",
          "name": "owner",
          "type": "address"
        },
        {
          "indexed": true,
          "internalType": "address",
          "name": "spender",
          "type": "address"
        },
        {
          "indexed": false,
          "internalType": "uint256",
          "name": "value",
          "type": "uint256"
        }
      ],
      "name": "Approval",
      "type": "event"
    },
    {
      "anonymous": false,
      "inputs": [
        {
          "indexed": true,
          "internalType": "address",
          "name": "user",
          "type": "address"
        },
        {
          "indexed": false,
          "internalType": "uint256",
          "name": "sharesBurned",
          "type": "uint256"
        }
      ],
      "name": "Burn",
      "type": "event"
    },
    {
      "anonymous": false,
      "inputs": [
        {
          "indexed": false,
          "internalType": "uint64",
          "name": "version",
          "type": "uint64"
        }
      ],
      "name": "Initialized",
      "type": "event"
    },
    {
      "anonymous": false,
      "inputs": [
        {
          "indexed": true,
          "internalType": "address",
          "name": "to",
          "type": "address"
        },
        {
          "indexed": false,
          "internalType": "uint256",
          "name": "sharesMinted",
          "type": "uint256"
        }
      ],
      "name": "Mint",
      "type": "event"
    },
    {
      "anonymous": false,
      "inputs": [
        {
          "indexed": true,
          "internalType": "address",
          "name": "previousOwner",
          "type": "address"
        },
        {
          "indexed": true,
          "internalType": "address",
          "name": "newOwner",
          "type": "address"
        }
      ],
      "name": "OwnershipTransferred",
      "type": "event"
    },
    {
      "anonymous": false,
      "inputs": [
        {
          "indexed": true,
          "internalType": "address",
          "name": "by",
          "type": "address"
        },
        {
          "indexed": false,
          "internalType": "address[]",
          "name": "assets",
          "type": "address[]"
        }
      ],
      "name": "RebalancePerformed",
      "type": "event"
    },
    {
      "anonymous": false,
      "inputs": [
        {
          "indexed": true,
          "internalType": "address",
          "name": "user",
          "type": "address"
        },
        {
          "indexed": true,
          "internalType": "address",
          "name": "fromToken",
          "type": "address"
        },
        {
          "indexed": true,
          "internalType": "address",
          "name": "toToken",
          "type": "address"
        },
        {
          "indexed": false,
          "internalType": "uint256",
          "name": "amountIn",
          "type": "uint256"
        },
        {
          "indexed": false,
          "internalType": "uint256",
          "name": "amountOut",
          "type": "uint256"
        }
      ],
      "name": "Swap",
      "type": "event"
    },
    {
      "anonymous": false,
      "inputs": [
        {
          "indexed": true,
          "internalType": "address",
          "name": "from",
          "type": "address"
        },
        {
          "indexed": true,
          "internalType": "address",
          "name": "to",
          "type": "address"
        },
        {
          "indexed": false,
          "internalType": "uint256",
          "name": "value",
          "type": "uint256"
        }
      ],
      "name": "Transfer",
      "type": "event"
    },
    {
      "anonymous": false,
      "inputs": [
        {
          "indexed": true,
          "internalType": "address",
          "name": "implementation",
          "type": "address"
        }
      ],
      "name": "Upgraded",
      "type": "event"
    },
    {
      "anonymous": false,
      "inputs": [
        {
          "indexed": true,
          "internalType": "address",
          "name": "user",
          "type": "address"
        },
        {
          "indexed": false,
          "internalType": "uint256[]",
          "name": "amountsAdded",
          "type": "uint256[]"
        }
      ],
      "name": "WeightsRebalanced",
      "type": "event"
    },
    {
      "inputs": [],
      "name": "ONE",
      "outputs": [
        {
          "internalType": "uint256",
          "name": "",
          "type": "uint256"
        }
      ],
      "stateMutability": "view",
      "type": "function"
    },
    {
      "inputs": [],
      "name": "UPGRADE_INTERFACE_VERSION",
      "outputs": [
        {
          "internalType": "string",
          "name": "",
          "type": "string"
        }
      ],
      "stateMutability": "view",
      "type": "function"
    },
    {
      "inputs": [
        {
          "internalType": "address",
          "name": "owner",
          "type": "address"
        },
        {
          "internalType": "address",
          "name": "spender",
          "type": "address"
        }
      ],
      "name": "allowance",
      "outputs": [
        {
          "internalType": "uint256",
          "name": "",
          "type": "uint256"
        }
      ],
      "stateMutability": "view",
      "type": "function"
    },
    {
      "inputs": [
        {
          "internalType": "address",
          "name": "spender",
          "type": "address"
        },
        {
          "internalType": "uint256",
          "name": "value",
          "type": "uint256"
        }
      ],
      "name": "approve",
      "outputs": [
        {
          "internalType": "bool",
          "name": "",
          "type": "bool"
        }
      ],
      "stateMutability": "nonpayable",
      "type": "function"
    },
    {
      "inputs": [
        {
          "internalType": "uint256",
          "name": "",
          "type": "uint256"
        }
      ],
      "name": "assetInfos",
      "outputs": [
        {
          "internalType": "address",
          "name": "asset",
          "type": "address"
        },
        {
          "internalType": "uint256",
          "name": "weight",
          "type": "uint256"
        },
        {
          "internalType": "uint256",
          "name": "slippage",
          "type": "uint256"
        }
      ],
      "stateMutability": "view",
      "type": "function"
    },
    {
      "inputs": [
        {
          "internalType": "uint256",
          "name": "assetIndex",
          "type": "uint256"
        }
      ],
      "name": "assetLiquidity",
      "outputs": [
        {
          "internalType": "uint256",
          "name": "",
          "type": "uint256"
        }
      ],
      "stateMutability": "view",
      "type": "function"
    },
    {
      "inputs": [
        {
          "internalType": "address",
          "name": "account",
          "type": "address"
        }
      ],
      "name": "balanceOf",
      "outputs": [
        {
          "internalType": "uint256",
          "name": "",
          "type": "uint256"
        }
      ],
      "stateMutability": "view",
      "type": "function"
    },
    {
      "inputs": [],
      "name": "baseAsset",
      "outputs": [
        {
          "internalType": "address",
          "name": "",
          "type": "address"
        }
      ],
      "stateMutability": "view",
      "type": "function"
    },
    {
      "inputs": [
        {
          "internalType": "address",
          "name": "to",
          "type": "address"
        }
      ],
      "name": "burn",
      "outputs": [
        {
          "internalType": "uint256[]",
          "name": "",
          "type": "uint256[]"
        }
      ],
      "stateMutability": "nonpayable",
      "type": "function"
    },
    {
      "inputs": [],
      "name": "computeTotalValuation",
      "outputs": [
        {
          "internalType": "uint256",
          "name": "totalVal",
          "type": "uint256"
        },
        {
          "internalType": "uint256[]",
          "name": "valuations",
          "type": "uint256[]"
        }
      ],
      "stateMutability": "view",
      "type": "function"
    },
    {
      "inputs": [],
      "name": "decimals",
      "outputs": [
        {
          "internalType": "uint8",
          "name": "",
          "type": "uint8"
        }
      ],
      "stateMutability": "view",
      "type": "function"
    },
    {
      "inputs": [
        {
          "internalType": "address",
          "name": "fromToken",
          "type": "address"
        },
        {
          "internalType": "address",
          "name": "toToken",
          "type": "address"
        },
        {
          "internalType": "uint256",
          "name": "amount",
          "type": "uint256"
        }
      ],
      "name": "getAmountOut",
      "outputs": [
        {
          "internalType": "uint256",
          "name": "",
          "type": "uint256"
        }
      ],
      "stateMutability": "view",
      "type": "function"
    },
    {
      "inputs": [
        {
          "internalType": "address",
          "name": "fromToken",
          "type": "address"
        },
        {
          "internalType": "address",
          "name": "toToken",
          "type": "address"
        },
        {
          "internalType": "uint256",
          "name": "amount",
          "type": "uint256"
        }
      ],
      "name": "getAmountOutWithSlippage",
      "outputs": [
        {
          "internalType": "uint256",
          "name": "",
          "type": "uint256"
        }
      ],
      "stateMutability": "view",
      "type": "function"
    },
    {
      "inputs": [
        {
          "internalType": "address",
          "name": "asset",
          "type": "address"
        }
      ],
      "name": "getAssetReserve",
      "outputs": [
        {
          "internalType": "uint256",
          "name": "",
          "type": "uint256"
        }
      ],
      "stateMutability": "view",
      "type": "function"
    },
    {
      "inputs": [],
      "name": "getAssets",
      "outputs": [
        {
          "internalType": "address[]",
          "name": "",
          "type": "address[]"
        }
      ],
      "stateMutability": "view",
      "type": "function"
    },
    {
      "inputs": [],
      "name": "getDeviation",
      "outputs": [
        {
          "internalType": "bool[]",
          "name": "directions",
          "type": "bool[]"
        },
        {
          "internalType": "uint256[]",
          "name": "deviations",
          "type": "uint256[]"
        }
      ],
      "stateMutability": "view",
      "type": "function"
    },
    {
      "inputs": [
        {
          "internalType": "address",
          "name": "token",
          "type": "address"
        }
      ],
      "name": "getDeviationForToken",
      "outputs": [
        {
          "internalType": "uint256",
          "name": "",
          "type": "uint256"
        }
      ],
      "stateMutability": "view",
      "type": "function"
    },
    {
      "inputs": [],
      "name": "getReserves",
      "outputs": [
        {
          "internalType": "uint256[]",
          "name": "",
          "type": "uint256[]"
        }
      ],
      "stateMutability": "view",
      "type": "function"
    },
    {
      "inputs": [
        {
          "internalType": "address",
          "name": "token",
          "type": "address"
        }
      ],
      "name": "getSlippage",
      "outputs": [
        {
          "internalType": "uint256",
          "name": "",
          "type": "uint256"
        }
      ],
      "stateMutability": "view",
      "type": "function"
    },
    {
      "inputs": [],
      "name": "getSlippages",
      "outputs": [
        {
          "internalType": "uint256[]",
          "name": "",
          "type": "uint256[]"
        }
      ],
      "stateMutability": "view",
      "type": "function"
    },
    {
      "inputs": [
        {
          "internalType": "address",
          "name": "token",
          "type": "address"
        }
      ],
      "name": "getTokenWeight",
      "outputs": [
        {
          "internalType": "uint256",
          "name": "",
          "type": "uint256"
        }
      ],
      "stateMutability": "view",
      "type": "function"
    },
    {
      "inputs": [],
      "name": "getWeights",
      "outputs": [
        {
          "internalType": "uint256[]",
          "name": "",
          "type": "uint256[]"
        }
      ],
      "stateMutability": "view",
      "type": "function"
    },
    {
      "inputs": [
        {
          "internalType": "address[]",
          "name": "_assets",
          "type": "address[]"
        },
        {
          "internalType": "uint256[]",
          "name": "_weights",
          "type": "uint256[]"
        },
        {
          "internalType": "uint256",
          "name": "_trigger",
          "type": "uint256"
        },
        {
          "internalType": "address",
          "name": "_registry",
          "type": "address"
        }
      ],
      "name": "initialize",
      "outputs": [],
      "stateMutability": "nonpayable",
      "type": "function"
    },
    {
      "inputs": [],
      "name": "isRebalanceNeeded",
      "outputs": [
        {
          "internalType": "bool",
          "name": "",
          "type": "bool"
        }
      ],
      "stateMutability": "view",
      "type": "function"
    },
    {
      "inputs": [],
      "name": "liquidity",
      "outputs": [
        {
          "internalType": "uint256",
          "name": "",
          "type": "uint256"
        }
      ],
      "stateMutability": "view",
      "type": "function"
    },
    {
      "inputs": [
        {
          "internalType": "address",
          "name": "to",
          "type": "address"
        },
        {
          "internalType": "uint256[]",
          "name": "amounts",
          "type": "uint256[]"
        }
      ],
      "name": "mint",
      "outputs": [
        {
          "internalType": "uint256",
          "name": "",
          "type": "uint256"
        }
      ],
      "stateMutability": "nonpayable",
      "type": "function"
    },
    {
      "inputs": [],
      "name": "name",
      "outputs": [
        {
          "internalType": "string",
          "name": "",
          "type": "string"
        }
      ],
      "stateMutability": "view",
      "type": "function"
    },
    {
      "inputs": [],
      "name": "owner",
      "outputs": [
        {
          "internalType": "address",
          "name": "",
          "type": "address"
        }
      ],
      "stateMutability": "view",
      "type": "function"
    },
    {
      "inputs": [],
      "name": "performRebalanceIfNeeded",
      "outputs": [
        {
          "internalType": "uint256[]",
          "name": "amountsToAdd",
          "type": "uint256[]"
        },
        {
          "internalType": "uint256[]",
          "name": "amountsToRemove",
          "type": "uint256[]"
        }
      ],
      "stateMutability": "nonpayable",
      "type": "function"
    },
    {
      "inputs": [],
      "name": "proxiableUUID",
      "outputs": [
        {
          "internalType": "bytes32",
          "name": "",
          "type": "bytes32"
        }
      ],
      "stateMutability": "view",
      "type": "function"
    },
    {
      "inputs": [
        {
          "internalType": "address",
          "name": "receiver",
          "type": "address"
        }
      ],
      "name": "rebalanceWeights",
      "outputs": [
        {
          "internalType": "uint256[]",
          "name": "",
          "type": "uint256[]"
        }
      ],
      "stateMutability": "nonpayable",
      "type": "function"
    },
    {
      "inputs": [],
      "name": "registry",
      "outputs": [
        {
          "internalType": "contract IBaluniV1Registry",
          "name": "",
          "type": "address"
        }
      ],
      "stateMutability": "view",
      "type": "function"
    },
    {
      "inputs": [],
      "name": "renounceOwnership",
      "outputs": [],
      "stateMutability": "nonpayable",
      "type": "function"
    },
    {
      "inputs": [
        {
          "internalType": "address",
          "name": "",
          "type": "address"
        }
      ],
      "name": "reserves",
      "outputs": [
        {
          "internalType": "uint256",
          "name": "",
          "type": "uint256"
        }
      ],
      "stateMutability": "view",
      "type": "function"
    },
    {
      "inputs": [
        {
          "internalType": "address",
          "name": "fromToken",
          "type": "address"
        },
        {
          "internalType": "address",
          "name": "toToken",
          "type": "address"
        },
        {
          "internalType": "uint256",
          "name": "amount",
          "type": "uint256"
        },
        {
          "internalType": "address",
          "name": "receiver",
          "type": "address"
        }
      ],
      "name": "swap",
      "outputs": [
        {
          "internalType": "uint256",
          "name": "amountOut",
          "type": "uint256"
        }
      ],
      "stateMutability": "nonpayable",
      "type": "function"
    },
    {
      "inputs": [],
      "name": "symbol",
      "outputs": [
        {
          "internalType": "string",
          "name": "",
          "type": "string"
        }
      ],
      "stateMutability": "view",
      "type": "function"
    },
    {
      "inputs": [],
      "name": "totalSupply",
      "outputs": [
        {
          "internalType": "uint256",
          "name": "",
          "type": "uint256"
        }
      ],
      "stateMutability": "view",
      "type": "function"
    },
    {
      "inputs": [
        {
          "internalType": "address",
          "name": "to",
          "type": "address"
        },
        {
          "internalType": "uint256",
          "name": "value",
          "type": "uint256"
        }
      ],
      "name": "transfer",
      "outputs": [
        {
          "internalType": "bool",
          "name": "",
          "type": "bool"
        }
      ],
      "stateMutability": "nonpayable",
      "type": "function"
    },
    {
      "inputs": [
        {
          "internalType": "address",
          "name": "from",
          "type": "address"
        },
        {
          "internalType": "address",
          "name": "to",
          "type": "address"
        },
        {
          "internalType": "uint256",
          "name": "value",
          "type": "uint256"
        }
      ],
      "name": "transferFrom",
      "outputs": [
        {
          "internalType": "bool",
          "name": "",
          "type": "bool"
        }
      ],
      "stateMutability": "nonpayable",
      "type": "function"
    },
    {
      "inputs": [
        {
          "internalType": "address",
          "name": "newOwner",
          "type": "address"
        }
      ],
      "name": "transferOwnership",
      "outputs": [],
      "stateMutability": "nonpayable",
      "type": "function"
    },
    {
      "inputs": [],
      "name": "trigger",
      "outputs": [
        {
          "internalType": "uint256",
          "name": "",
          "type": "uint256"
        }
      ],
      "stateMutability": "view",
      "type": "function"
    },
    {
      "inputs": [],
      "name": "unitPrice",
      "outputs": [
        {
          "internalType": "uint256",
          "name": "",
          "type": "uint256"
        }
      ],
      "stateMutability": "view",
      "type": "function"
    },
    {
      "inputs": [
        {
          "internalType": "address",
          "name": "newImplementation",
          "type": "address"
        },
        {
          "internalType": "bytes",
          "name": "data",
          "type": "bytes"
        }
      ],
      "name": "upgradeToAndCall",
      "outputs": [],
      "stateMutability": "payable",
      "type": "function"
    }
  ],
  "bytecode": "0x60a0604052306080523480156012575f80fd5b50608051614d0f6100395f395f81816134d80152818161350101526136400152614d0f5ff3fe608060405260043610610254575f3560e01c80637b1039991161013f578063b2b55d70116100b3578063d66bd52411610078578063d66bd52414610703578063dd62ed3e1461072e578063de836ebd1461074d578063e73faa2d1461076c578063f2fde38b14610780578063f47b45e81461079f575f80fd5b8063b2b55d701461064d578063c2ee3a081461066c578063cdf456e114610681578063cf8fa764146106a0578063d14ef46d146106bf575f80fd5b80638a77c8dc116101045780638a77c8dc1461057b5780638da5cb5b1461058f57806395d89b41146105cb578063a1f241cc146105df578063a9059cbb146105fe578063ad3cb1cc1461061d575f80fd5b80637b103999146104cf5780637fec8d381461050657806389ab35321461051b57806389afcb441461053d57806389b3179b1461055c575f80fd5b806323b872dd116101d65780634f1ef2861161019b5780634f1ef2861461043557806352d1902d1461044857806367e4ac2c1461045c5780636e81221c1461047d57806370a082311461049c578063715018a6146104bb575f80fd5b806323b872dd1461039b578063250aa683146103ba578063313ce567146103d957806336bf6e39146103f45780634aa0665214610416575f80fd5b806318160ddd1161021c57806318160ddd1461031e57806318904ea41461033e5780631a68650214610352578063228835ac1461036657806322acb86714610387575f80fd5b806306fdde03146102585780630723c999146102825780630902f1ac146102ae578063095ea7b3146102c257806312899068146102f1575b5f80fd5b348015610263575f80fd5b5061026c6107c1565b6040516102799190614307565b60405180910390f35b34801561028d575f80fd5b506102a161029c366004614360565b610881565b60405161027991906143b5565b3480156102b9575f80fd5b506102a1610acc565b3480156102cd575f80fd5b506102e16102dc3660046143c7565b610bb4565b6040519015158152602001610279565b3480156102fc575f80fd5b5061031061030b366004614360565b610bcd565b604051908152602001610279565b348015610329575f80fd5b505f80516020614c9a83398151915254610310565b348015610349575f80fd5b506102a1610c4d565b34801561035d575f80fd5b50610310610ce9565b348015610371575f80fd5b506103856103803660046144c3565b610cfa565b005b348015610392575f80fd5b506102a1611034565b3480156103a6575f80fd5b506102e16103b5366004614597565b6110d0565b3480156103c5575f80fd5b506103106103d4366004614360565b6110f5565b3480156103e4575f80fd5b5060405160128152602001610279565b3480156103ff575f80fd5b5061040861116d565b6040516102799291906145d5565b348015610421575f80fd5b50610310610430366004614597565b611181565b6103856104433660046145ed565b61134a565b348015610453575f80fd5b50610310611369565b348015610467575f80fd5b50610470611384565b60405161027991906146c6565b348015610488575f80fd5b506103106104973660046146d8565b61143b565b3480156104a7575f80fd5b506103106104b6366004614360565b611739565b3480156104c6575f80fd5b5061038561175f565b3480156104da575f80fd5b506005546104ee906001600160a01b031681565b6040516001600160a01b039091168152602001610279565b348015610511575f80fd5b5061031060015481565b348015610526575f80fd5b5061052f611772565b604051610279929190614728565b348015610548575f80fd5b506102a1610557366004614360565b611929565b348015610567575f80fd5b50610310610576366004614360565b611e95565b348015610586575f80fd5b506102e1611f1b565b34801561059a575f80fd5b507f9016d09d72d40fdae2fd8ceac6b6234c7706214fd39c1cd1e609a0528c199300546001600160a01b03166104ee565b3480156105d6575f80fd5b5061026c611f95565b3480156105ea575f80fd5b506103106105f9366004614597565b611fd3565b348015610609575f80fd5b506102e16106183660046143c7565b6120b1565b348015610628575f80fd5b5061026c604051806040016040528060058152602001640352e302e360dc1b81525081565b348015610658575f80fd5b50610310610667366004614360565b6120be565b348015610677575f80fd5b5061031060025481565b34801561068c575f80fd5b506003546104ee906001600160a01b031681565b3480156106ab575f80fd5b506103106106ba366004614777565b6121a6565b3480156106ca575f80fd5b506106de6106d9366004614777565b61221b565b604080516001600160a01b039094168452602084019290925290820152606001610279565b34801561070e575f80fd5b5061031061071d366004614360565b60066020525f908152604090205481565b348015610739575f80fd5b5061031061074836600461478e565b612255565b348015610758575f80fd5b506103106107673660046147c5565b61229e565b348015610777575f80fd5b5061031061263d565b34801561078b575f80fd5b5061038561079a366004614360565b612731565b3480156107aa575f80fd5b506107b361276e565b604051610279929190614811565b7f52c63247e1f47db19d5ce0460030c497f067ca4cebf71ba98eeadabe20bace0380546060915f80516020614c7a833981519152916107ff90614835565b80601f016020809104026020016040519081016040528092919081815260200182805461082b90614835565b80156108765780601f1061084d57610100808354040283529160200191610876565b820191905f5260205f20905b81548152906001019060200180831161085957829003601f168201915b505050505091505090565b60605f60055f9054906101000a90046001600160a01b03166001600160a01b0316631acb61416040518163ffffffff1660e01b8152600401602060405180830381865afa1580156108d4573d5f803e3d5ffd5b505050506040513d601f19601f820116820180604052508101906108f89190614867565b9050336001600160a01b0382161461092b5760405162461bcd60e51b815260040161092290614882565b60405180910390fd5b610933611f1b565b6109765760405162461bcd60e51b8152602060048201526014602482015273149958985b185b98d9481b9bdd081b995959195960621b6044820152606401610922565b5f8061098061286c565b915091505f61098f8383612998565b90505f61099b82612a96565b9050600454816109ab91906148be565b5f8054919250906001600160401b038111156109c9576109c96143f1565b6040519080825280602002602001820160405280156109f2578160200160208202803683370190505b5090505f5b8351811015610a6b575f848281518110610a1357610a136148d5565b60200260200101511115610a6357610a4481858381518110610a3757610a376148d5565b6020026020010151612ad1565b828281518110610a5657610a566148d5565b6020026020010181815250505b6001016109f7565b50610a768883612ba0565b610a7e612bd4565b336001600160a01b03167fa95ad530009c6f929555e70a66aadbeae7231e45756c5b028ca77fbaa376e73e84604051610ab791906143b5565b60405180910390a29550505050505b50919050565b60605f60055f9054906101000a90046001600160a01b03166001600160a01b0316631acb61416040518163ffffffff1660e01b8152600401602060405180830381865afa158015610b1f573d5f803e3d5ffd5b505050506040513d601f19601f82011682018060405250810190610b439190614867565b604051630fa6707960e21b81523060048201529091506001600160a01b03821690633e99c1e4906024015f60405180830381865afa158015610b87573d5f803e3d5ffd5b505050506040513d5f823e601f3d908101601f19168201604052610bae91908101906148e9565b91505090565b5f33610bc1818585612f94565b60019150505b92915050565b5f805b5f54811015610c4557826001600160a01b03165f8281548110610bf557610bf56148d5565b5f9182526020909120600390910201546001600160a01b031603610c3d575f8181548110610c2557610c256148d5565b905f5260205f20906003020160020154915050919050565b600101610bd0565b505f92915050565b5f8054606091906001600160401b03811115610c6b57610c6b6143f1565b604051908082528060200260200182016040528015610c94578160200160208202803683370190505b5090505f5b5f54811015610ac6575f8181548110610cb457610cb46148d5565b905f5260205f20906003020160020154828281518110610cd657610cd66148d5565b6020908102919091010152600101610c99565b5f80610cf361286c565b5092915050565b7ff0c57e16840df040f15088dc2f81fe391c3923bec73e23a9662efc9c229c6a008054600160401b810460ff1615906001600160401b03165f81158015610d3e5750825b90505f826001600160401b03166001148015610d595750303b155b905081158015610d67575080155b15610d855760405163f92ee8a960e01b815260040160405180910390fd5b845467ffffffffffffffff191660011785558315610daf57845460ff60401b1916600160401b1785555b610db833612fa6565b610e0460405180604001604052806009815260200168042616c756e69204c560bc1b81525060405180604001604052806009815260200168042414c554e492d4c560bc1b815250612fb7565b600580546001600160a01b0319166001600160a01b038816179055670de0b6b3a76400006002555f610e368a8a612fc9565b905080610e7d5760405162461bcd60e51b8152602060048201526015602482015274125b9a5d1a585b1a5e985d1a5bdb8819985a5b1959605a1b6044820152606401610922565b600188905560055460408051631bf01e9b60e01b815290516001600160a01b0390921691631bf01e9b916004808201926020929091908290030181865afa158015610eca573d5f803e3d5ffd5b505050506040513d601f19601f82011682018060405250810190610eee9190614867565b600380546001600160a01b0319166001600160a01b0392909216918217905564e8d4a51000600455610f625760405162461bcd60e51b815260206004820152601a60248201527f496e76616c6964206261736520617373657420616464726573730000000000006044820152606401610922565b5f805b8a51811015610f9d578a8181518110610f8057610f806148d5565b602002602001015182610f939190614974565b9150600101610f65565b508061271014610fe15760405162461bcd60e51b815260206004820152600f60248201526e496e76616c6964207765696768747360881b6044820152606401610922565b5050831561102957845460ff60401b19168555604051600181527fc7f505b2f371ae2175ee4913f4499e1f2633a7b5936321eed1cdaeb6115181d29060200160405180910390a15b505050505050505050565b5f8054606091906001600160401b03811115611052576110526143f1565b60405190808252806020026020018201604052801561107b578160200160208202803683370190505b5090505f5b5f54811015610ac6575f818154811061109b5761109b6148d5565b905f5260205f209060030201600101548282815181106110bd576110bd6148d5565b6020908102919091010152600101611080565b5f336110dd85828561340d565b6110e8858585613470565b60019150505b9392505050565b5f805b5f54811015610c4557826001600160a01b03165f828154811061111d5761111d6148d5565b5f9182526020909120600390910201546001600160a01b031603611165575f818154811061114d5761114d6148d5565b905f5260205f20906003020160010154915050919050565b6001016110f8565b5f606061117861286c565b90939092509050565b5f8060055f9054906101000a90046001600160a01b03166001600160a01b031663bb3ba04c6040518163ffffffff1660e01b8152600401602060405180830381865afa1580156111d3573d5f803e3d5ffd5b505050506040513d601f19601f820116820180604052508101906111f79190614867565b90505f6001600160a01b031660055f9054906101000a90046001600160a01b03166001600160a01b031663bb3ba04c6040518163ffffffff1660e01b8152600401602060405180830381865afa158015611253573d5f803e3d5ffd5b505050506040513d601f19601f820116820180604052508101906112779190614867565b6001600160a01b0316036112c65760405162461bcd60e51b8152602060048201526016602482015275496e76616c6964206f7261636c65206164647265737360501b6044820152606401610922565b60405163248391ff60e01b81526001600160a01b0386811660048301528581166024830152604482018590525f919083169063248391ff90606401602060405180830381865afa15801561131c573d5f803e3d5ffd5b505050506040513d601f19601f820116820180604052508101906113409190614987565b9695505050505050565b6113526134cd565b61135b82613571565b6113658282613579565b5050565b5f611372613635565b505f80516020614cba83398151915290565b5f8054606091906001600160401b038111156113a2576113a26143f1565b6040519080825280602002602001820160405280156113cb578160200160208202803683370190505b5090505f5b5f54811015610ac6575f81815481106113eb576113eb6148d5565b5f91825260209091206003909102015482516001600160a01b039091169083908390811061141b5761141b6148d5565b6001600160a01b03909216602092830291909101909101526001016113d0565b5f61144461367e565b600554604080516385462d6f60e01b815290515f926001600160a01b0316916385462d6f9160048083019260209291908290030181865afa15801561148b573d5f803e3d5ffd5b505050506040513d601f19601f820116820180604052508101906114af9190614987565b9050846001600160a01b0316866001600160a01b0316036115125760405162461bcd60e51b815260206004820152601a60248201527f43616e6e6f742073776170207468652073616d6520746f6b656e0000000000006044820152606401610922565b5f84116115615760405162461bcd60e51b815260206004820181905260248201527f416d6f756e74206d7573742062652067726561746572207468616e207a65726f6044820152606401610922565b6001600160a01b0386165f9081526006602052604081208054869290611588908490614974565b909155505f905061159a878787611fd3565b9050806115a6876120be565b10156115ed5760405162461bcd60e51b8152602060048201526016602482015275496e73756666696369656e74204c697175696469747960501b6044820152606401610922565b6001600160a01b0386165f9081526006602052604081208054839290611614908490614974565b909155505f905061271061162884846148be565b611632919061499e565b905061163e81836149bd565b93505f841161169d5760405162461bcd60e51b815260206004820152602560248201527f416d6f756e7420746f2073656e64206d75737420626520677265617465722074604482015264068616e20360dc1b6064820152608401610922565b6116a5612bd4565b866001600160a01b0316886001600160a01b0316866001600160a01b03167fcd3829a3813dc3cdd188fd3d01dcf3268c16be2fdd2dd21d0665418816e4606289886040516116fd929190918252602082015260400190565b60405180910390a450505061173160017f9b779b17422d0df92223018b32b4d1fa46e071723d6817e2486d003becc55f0055565b949350505050565b6001600160a01b03165f9081525f80516020614c7a833981519152602052604090205490565b6117676136c8565b6117705f613723565b565b6060805f8061177f61286c565b5f549193509150806001600160401b0381111561179e5761179e6143f1565b6040519080825280602002602001820160405280156117c7578160200160208202803683370190505b509450806001600160401b038111156117e2576117e26143f1565b60405190808252806020026020018201604052801561180b578160200160208202803683370190505b5093505f5b81811015611921575f8484838151811061182c5761182c6148d5565b602002602001015161271061184191906148be565b61184b919061499e565b90505f808381548110611860576118606148d5565b905f5260205f209060030201600101549050808211156118cb5761188481836149bd565b878481518110611896576118966148d5565b60200260200101818152505060018884815181106118b6576118b66148d5565b91151560209283029190910190910152611917565b6118d582826149bd565b8784815181106118e7576118e76148d5565b6020026020010181815250505f888481518110611906576119066148d5565b911515602092830291909101909101525b5050600101611810565b505050509091565b60605f60055f9054906101000a90046001600160a01b03166001600160a01b0316631acb61416040518163ffffffff1660e01b8152600401602060405180830381865afa15801561197c573d5f803e3d5ffd5b505050506040513d601f19601f820116820180604052508101906119a09190614867565b9050336001600160a01b038216146119ca5760405162461bcd60e51b815260040161092290614882565b600554604080516385462d6f60e01b815290515f926001600160a01b0316916385462d6f9160048083019260209291908290030181865afa158015611a11573d5f803e3d5ffd5b505050506040513d601f19601f82011682018060405250810190611a359190614987565b90505f60055f9054906101000a90046001600160a01b03166001600160a01b0316631acb61416040518163ffffffff1660e01b8152600401602060405180830381865afa158015611a88573d5f803e3d5ffd5b505050506040513d601f19601f82011682018060405250810190611aac9190614867565b90505f611ab830611739565b90505f8111611b095760405162461bcd60e51b815260206004820152601c60248201527f5368617265206d7573742062652067726561746572207468616e2030000000006044820152606401610922565b5f611b1f5f80516020614c9a8339815191525490565b90505f8111611b5f5760405162461bcd60e51b815260206004820152600c60248201526b4e6f206c697175696469747960a01b6044820152606401610922565b5f80546001600160401b03811115611b7957611b796143f1565b604051908082528060200260200182016040528015611ba2578160200160208202803683370190505b5090505f612710611bb387866148be565b611bbd919061499e565b90505f611bca82866149bd565b90505f5b5f54811015611cb4575f876001600160a01b031663a3e113fb305f8581548110611bfa57611bfa6148d5565b5f91825260209091206003909102015460405160e084901b6001600160e01b03191681526001600160a01b03928316600482015291166024820152604401602060405180830381865afa158015611c53573d5f803e3d5ffd5b505050506040513d601f19601f82011682018060405250810190611c779190614987565b905085611c8484836148be565b611c8e919061499e565b858381518110611ca057611ca06148d5565b602090810291909101015250600101611bce565b5080611cbf30611739565b1015611d0d5760405162461bcd60e51b815260206004820152601d60248201527f496e73756666696369656e742042414c554e49206c69717569646974790000006044820152606401610922565b60055460408051631d8cf42560e11b815290515f926001600160a01b031691633b19e84a9160048083019260209291908290030181865afa158015611d54573d5f803e3d5ffd5b505050506040513d601f19601f82011682018060405250810190611d789190614867565b60405163a9059cbb60e01b81526001600160a01b0382166004820152602481018590529091505f90309063a9059cbb906044016020604051808303815f875af1158015611dc7573d5f803e3d5ffd5b505050506040513d601f19601f82011682018060405250810190611deb91906149d0565b905080611e305760405162461bcd60e51b8152602060048201526013602482015272119959481d1c985b9cd9995c8819985a5b1959606a1b6044820152606401610922565b611e3a3084613793565b611e42612bd4565b8b6001600160a01b03167fcc16f5dbb4873280815c1ee09dbd06736cffcc184412cf7a71a0fdb75d397ca584604051611e7d91815260200190565b60405180910390a250929a9950505050505050505050565b5f80611e9f611772565b9150505f5b5f54811015611f1257836001600160a01b03165f8281548110611ec957611ec96148d5565b5f9182526020909120600390910201546001600160a01b031603611f0a57818181518110611ef957611ef96148d5565b602002602001015192505050919050565b600101611ea4565b505f9392505050565b5f805f611f26611772565b915091505f5b8151811015611f8c57828181518110611f4757611f476148d5565b60200260200101518015611f755750600154828281518110611f6b57611f6b6148d5565b6020026020010151115b15611f84576001935050505090565b600101611f2c565b505f9250505090565b7f52c63247e1f47db19d5ce0460030c497f067ca4cebf71ba98eeadabe20bace0480546060915f80516020614c7a833981519152916107ff90614835565b5f80611fe0858585611181565b90505f611fec86610bcd565b90505f611ff886610bcd565b90505f612004886110f5565b90505f612010886110f5565b90505f61271061202086886148be565b61202a919061499e565b90505f61271061203a86896148be565b612044919061499e565b905061204f8b611e95565b8411156120675761206082886149bd565b9650612074565b6120718288614974565b96505b61207d8a611e95565b8310156120955761208e8188614974565b96506120a2565b61209f81886149bd565b96505b50949998505050505050505050565b5f33610bc1818585613470565b5f8060055f9054906101000a90046001600160a01b03166001600160a01b0316631acb61416040518163ffffffff1660e01b8152600401602060405180830381865afa158015612110573d5f803e3d5ffd5b505050506040513d601f19601f820116820180604052508101906121349190614867565b60405163a3e113fb60e01b81523060048201526001600160a01b0385811660248301529192509082169063a3e113fb90604401602060405180830381865afa158015612182573d5f803e3d5ffd5b505050506040513d601f19601f820116820180604052508101906110ee9190614987565b5f806121b061286c565b915050805183106121f95760405162461bcd60e51b8152602060048201526013602482015272092dcecc2d8d2c840c2e6e6cae840d2dcc8caf606b1b6044820152606401610922565b80838151811061220b5761220b6148d5565b6020026020010151915050919050565b5f8181548110612229575f80fd5b5f9182526020909120600390910201805460018201546002909201546001600160a01b03909116925083565b6001600160a01b039182165f9081527f52c63247e1f47db19d5ce0460030c497f067ca4cebf71ba98eeadabe20bace016020908152604080832093909416825291909152205490565b5f8060055f9054906101000a90046001600160a01b03166001600160a01b0316631acb61416040518163ffffffff1660e01b8152600401602060405180830381865afa1580156122f0573d5f803e3d5ffd5b505050506040513d601f19601f820116820180604052508101906123149190614867565b9050336001600160a01b0382161461233e5760405162461bcd60e51b815260040161092290614882565b5f6123545f80516020614c9a8339815191525490565b90505f80612360610acc565b80515f54919250146123b45760405162461bcd60e51b815260206004820152601760248201527f496e76616c6964207265736572766573206c656e6774680000000000000000006044820152606401610922565b5f546123ee5760405162461bcd60e51b81526020600482015260096024820152684e6f2061737365747360b81b6044820152606401610922565b5f5b5f54811015612489575f80828154811061240c5761240c6148d5565b5f918252602082206003918202015490546001600160a01b03918216935016820361244d57888381518110612443576124436148d5565b5061248192505050565b612470828a8581518110612463576124636148d5565b60200260200101516137c7565b905061247c8186614974565b945050505b6001016123f0565b505f82116124e45760405162461bcd60e51b815260206004820152602260248201527f546f74616c2076616c7565206d7573742062652067726561746572207468616e604482015261020360f41b6064820152608401610922565b5f835f03612500576004546124f990846148be565b905061259e565b5f61250961286c565b5090505f811161256a5760405162461bcd60e51b815260206004820152602660248201527f546f74616c206c6971756964697479206d75737420626520677265617465722060448201526507468616e20360d41b6064820152608401610922565b60045461257790826148be565b856004548661258691906148be565b61259091906148be565b61259a919061499e565b9150505b805f036125dd5760405162461bcd60e51b815260206004820152600d60248201526c04d696e7420717479206973203609c1b6044820152606401610922565b6125e78882612ba0565b6125ef612bd4565b876001600160a01b03167f0f6798a560793a54c3bcfe86a93cde1e73087d944c0ea20544137d41213968858260405161262a91815260200190565b60405180910390a2979650505050505050565b5f8060035f9054906101000a90046001600160a01b03166001600160a01b031663313ce5676040518163ffffffff1660e01b8152600401602060405180830381865afa15801561268f573d5f803e3d5ffd5b505050506040513d601f19601f820116820180604052508101906126b391906149ef565b60ff1690505f6126c48260126149bd565b6126cf90600a614aef565b90505f6126da61286c565b5090505f6126f35f80516020614c9a8339815191525490565b9050805f03612706575f94505050505090565b6002548161271485856148be565b61271e919061499e565b61272891906148be565b94505050505090565b6127396136c8565b6001600160a01b03811661276257604051631e4fbdf760e01b81525f6004820152602401610922565b61276b81613723565b50565b6060805f60055f9054906101000a90046001600160a01b03166001600160a01b0316631acb61416040518163ffffffff1660e01b8152600401602060405180830381865afa1580156127c2573d5f803e3d5ffd5b505050506040513d601f19601f820116820180604052508101906127e69190614867565b9050336001600160a01b038216146128105760405162461bcd60e51b815260040161092290614882565b612818611f1b565b61285b5760405162461bcd60e51b8152602060048201526014602482015273149958985b185b98d9481b9bdd081b995959195960621b6044820152606401610922565b6128636137e1565b92509250509091565b5f8054606090806001600160401b0381111561288a5761288a6143f1565b6040519080825280602002602001820160405280156128b3578160200160208202803683370190505b5091505f5b81811015612992575f8082815481106128d3576128d36148d5565b5f91825260208220600390910201546001600160a01b031691506128f6826120be565b6003549091506001600160a01b03908116908316036129335780858481518110612922576129226148d5565b602002602001018181525050612961565b5f61293e83836137c7565b905080868581518110612953576129536148d5565b602002602001018181525050505b848381518110612973576129736148d5565b6020026020010151866129869190614974565b955050506001016128b8565b50509091565b5f546060906001600160401b038111156129b4576129b46143f1565b6040519080825280602002602001820160405280156129dd578160200160208202803683370190505b5090505f5b5f54811015610cf3575f6127105f8381548110612a0157612a016148d5565b905f5260205f2090600302016001015486612a1c91906148be565b612a26919061499e565b905080848381518110612a3b57612a3b6148d5565b60200260200101511015612a8d57838281518110612a5b57612a5b6148d5565b602002602001015181612a6e91906149bd565b838381518110612a8057612a806148d5565b6020026020010181815250505b506001016129e2565b5f805b5f54811015610ac657828181518110612ab457612ab46148d5565b602002602001015182612ac79190614974565b9150600101612a99565b6003545f805490916001600160a01b031690829085908110612af557612af56148d5565b5f9182526020909120600390910201546001600160a01b031603612b1a575080610bc7565b5f612b4f5f8581548110612b3057612b306148d5565b5f9182526020909120600390910201546001600160a01b031684613e62565b90505f81116110ee5760405162461bcd60e51b815260206004820152601b60248201527f496e76616c696420746f6b656e20616d6f756e7420746f2061646400000000006044820152606401610922565b6001600160a01b038216612bc95760405163ec442f0560e01b81525f6004820152602401610922565b6113655f8383613e7b565b5f80612bde611772565b915091505f60055f9054906101000a90046001600160a01b03166001600160a01b03166385462d6f6040518163ffffffff1660e01b8152600401602060405180830381865afa158015612c33573d5f803e3d5ffd5b505050506040513d601f19601f82011682018060405250810190612c579190614987565b9050606461012c5f5b5f54811015612f8c575f808281548110612c7c57612c7c6148d5565b905f5260205f20906003020160020154905083868381518110612ca157612ca16148d5565b602002602001015111612cda57835f8381548110612cc157612cc16148d5565b905f5260205f2090600302016002018190555050612f84565b868281518110612cec57612cec6148d5565b602002602001015115612dca5783868381518110612d0c57612d0c6148d5565b6020026020010151612d1e919061499e565b5f8381548110612d3057612d306148d5565b905f5260205f2090600302016002015f828254612d4d9190614974565b92505081905550805f8381548110612d6757612d676148d5565b905f5260205f209060030201600201541015612dc55760405162461bcd60e51b815260206004820152601e60248201527f4f766572666c6f7720696e6372656d656e74696e6720736c69707061676500006044820152606401610922565b612f32565b858281518110612ddc57612ddc6148d5565b60200260200101515f8381548110612df657612df66148d5565b905f5260205f209060030201600201541115612ed85783868381518110612e1f57612e1f6148d5565b6020026020010151612e31919061499e565b5f8381548110612e4357612e436148d5565b905f5260205f2090600302016002015f828254612e6091906149bd565b92505081905550805f8381548110612e7a57612e7a6148d5565b905f5260205f209060030201600201541115612dc55760405162461bcd60e51b815260206004820152601f60248201527f556e646572666c6f772064656372656d656e74696e6720736c697070616765006044820152606401610922565b83868381518110612eeb57612eeb6148d5565b6020026020010151612efd919061499e565b5f8381548110612f0f57612f0f6148d5565b905f5260205f2090600302016002015f828254612f2c9190614974565b90915550505b825f8381548110612f4557612f456148d5565b905f5260205f209060030201600201541115612f8257825f8381548110612f6e57612f6e6148d5565b905f5260205f209060030201600201819055505b505b600101612c60565b505050505050565b612fa18383836001613fb4565b505050565b612fae614098565b61276b816140e1565b612fbf614098565b61136582826140e9565b5f8060055f9054906101000a90046001600160a01b03166001600160a01b031663cff49d686040518163ffffffff1660e01b8152600401602060405180830381865afa15801561301b573d5f803e3d5ffd5b505050506040513d601f19601f8201168201806040525081019061303f9190614867565b90505f6001600160a01b031660055f9054906101000a90046001600160a01b03166001600160a01b031663cff49d686040518163ffffffff1660e01b8152600401602060405180830381865afa15801561309b573d5f803e3d5ffd5b505050506040513d601f19601f820116820180604052508101906130bf9190614867565b6001600160a01b0316036131155760405162461bcd60e51b815260206004820152601a60248201527f496e76616c696420726562616c616e63657220616464726573730000000000006044820152606401610922565b82518451146131715760405162461bcd60e51b815260206004820152602260248201527f41737365747320616e642077656967687473206c656e677468206d69736d61746044820152610c6d60f31b6064820152608401610922565b5f5b8451811015613402575f6001600160a01b0316858281518110613198576131986148d5565b60200260200101516001600160a01b0316036131ee5760405162461bcd60e51b8152602060048201526015602482015274496e76616c6964206173736574206164647265737360581b6044820152606401610922565b5f848281518110613201576132016148d5565b6020026020010151116132475760405162461bcd60e51b815260206004820152600e60248201526d125b9d985b1a59081dd95a59da1d60921b6044820152606401610922565b5f6040518060600160405280878481518110613265576132656148d5565b60200260200101516001600160a01b0316815260200186848151811061328d5761328d6148d5565b60209081029190910181015182525f918101829052835460018082018655948352818320845160039092020180546001600160a01b0319166001600160a01b0390921691909117815590830151938101939093556040909101516002909201919091558551869083908110613304576133046148d5565b6020908102919091010151604051636eb1769f60e11b81523060048201526001600160a01b0385811660248301529192509082169063dd62ed3e90604401602060405180830381865afa15801561335d573d5f803e3d5ffd5b505050506040513d601f19601f820116820180604052508101906133819190614987565b5f036133f95760405163095ea7b360e01b81526001600160a01b0384811660048301525f19602483015282169063095ea7b3906044016020604051808303815f875af11580156133d3573d5f803e3d5ffd5b505050506040513d601f19601f820116820180604052508101906133f791906149d0565b505b50600101613173565b506001949350505050565b5f6134188484612255565b90505f19811461346a578181101561345c57604051637dc7a0d960e11b81526001600160a01b03841660048201526024810182905260448101839052606401610922565b61346a84848484035f613fb4565b50505050565b6001600160a01b03831661349957604051634b637e8f60e11b81525f6004820152602401610922565b6001600160a01b0382166134c25760405163ec442f0560e01b81525f6004820152602401610922565b612fa1838383613e7b565b306001600160a01b037f000000000000000000000000000000000000000000000000000000000000000016148061355357507f00000000000000000000000000000000000000000000000000000000000000006001600160a01b03166135475f80516020614cba833981519152546001600160a01b031690565b6001600160a01b031614155b156117705760405163703e46dd60e11b815260040160405180910390fd5b61276b6136c8565b816001600160a01b03166352d1902d6040518163ffffffff1660e01b8152600401602060405180830381865afa9250505080156135d3575060408051601f3d908101601f191682019092526135d091810190614987565b60015b6135fb57604051634c9c8ce360e01b81526001600160a01b0383166004820152602401610922565b5f80516020614cba833981519152811461362b57604051632a87526960e21b815260048101829052602401610922565b612fa18383614139565b306001600160a01b037f000000000000000000000000000000000000000000000000000000000000000016146117705760405163703e46dd60e11b815260040160405180910390fd5b7f9b779b17422d0df92223018b32b4d1fa46e071723d6817e2486d003becc55f008054600119016136c257604051633ee5aeb560e01b815260040160405180910390fd5b60029055565b336136fa7f9016d09d72d40fdae2fd8ceac6b6234c7706214fd39c1cd1e609a0528c199300546001600160a01b031690565b6001600160a01b0316146117705760405163118cdaa760e01b8152336004820152602401610922565b7f9016d09d72d40fdae2fd8ceac6b6234c7706214fd39c1cd1e609a0528c19930080546001600160a01b031981166001600160a01b03848116918217845560405192169182907f8be0079c531659141344cd1fd0a4f28419497f9722a3daafe3b4186f6b6457e0905f90a3505050565b6001600160a01b0382166137bc57604051634b637e8f60e11b81525f6004820152602401610922565b611365825f83613e7b565b6003545f906110ee9084906001600160a01b031684611181565b6060805f60055f9054906101000a90046001600160a01b03166001600160a01b0316631acb61416040518163ffffffff1660e01b8152600401602060405180830381865afa158015613835573d5f803e3d5ffd5b505050506040513d601f19601f820116820180604052508101906138599190614867565b90505f60055f9054906101000a90046001600160a01b03166001600160a01b031663cff49d686040518163ffffffff1660e01b8152600401602060405180830381865afa1580156138ac573d5f803e3d5ffd5b505050506040513d601f19601f820116820180604052508101906138d09190614867565b5f8054919250906001600160401b038111156138ee576138ee6143f1565b604051908082528060200260200182016040528015613917578160200160208202803683370190505b505f8054919250906001600160401b03811115613936576139366143f1565b60405190808252806020026020018201604052801561395f578160200160208202803683370190505b505f8054919250906001600160401b0381111561397e5761397e6143f1565b6040519080825280602002602001820160405280156139a7578160200160208202803683370190505b505f8054919250906001600160401b038111156139c6576139c66143f1565b6040519080825280602002602001820160405280156139ef578160200160208202803683370190505b505f8054919250906001600160401b03811115613a0e57613a0e6143f1565b604051908082528060200260200182016040528015613a37578160200160208202803683370190505b505f8054919250906001600160401b03811115613a5657613a566143f1565b604051908082528060200260200182016040528015613a7f578160200160208202803683370190505b5090505f5b5f54811015613bda575f8181548110613a9f57613a9f6148d5565b5f91825260209091206003909102015487516001600160a01b0390911690889083908110613acf57613acf6148d5565b60200260200101906001600160a01b031690816001600160a01b0316815250505f8181548110613b0157613b016148d5565b905f5260205f20906003020160010154868281518110613b2357613b236148d5565b602002602001018181525050868181518110613b4157613b416148d5565b60209081029190910101516040516370a0823160e01b81526001600160a01b038b81166004830152909116906370a0823190602401602060405180830381865afa158015613b91573d5f803e3d5ffd5b505050506040513d601f19601f82011682018060405250810190613bb59190614987565b858281518110613bc757613bc76148d5565b6020908102919091010152600101613a84565b505f613be4610acc565b9050876001600160a01b031663f0bf77148289896001548e8f60035f9054906101000a90046001600160a01b03166040518863ffffffff1660e01b8152600401613c349796959493929190614afa565b5f604051808303815f87803b158015613c4b575f80fd5b505af1158015613c5d573d5f803e3d5ffd5b505050505f5b5f54811015613e1057878181518110613c7e57613c7e6148d5565b60209081029190910101516040516370a0823160e01b81526001600160a01b038c81166004830152909116906370a0823190602401602060405180830381865afa158015613cce573d5f803e3d5ffd5b505050506040513d601f19601f82011682018060405250810190613cf29190614987565b858281518110613d0457613d046148d5565b602002602001018181525050858181518110613d2257613d226148d5565b6020026020010151858281518110613d3c57613d3c6148d5565b60200260200101511115613dab57858181518110613d5c57613d5c6148d5565b6020026020010151858281518110613d7657613d766148d5565b6020026020010151613d8891906149bd565b848281518110613d9a57613d9a6148d5565b602002602001018181525050613e08565b848181518110613dbd57613dbd6148d5565b6020026020010151868281518110613dd757613dd76148d5565b6020026020010151613de991906149bd565b838281518110613dfb57613dfb6148d5565b6020026020010181815250505b600101613c63565b50336001600160a01b03167f279b343370f587af7fb675ae7c8578e9c8abcc373236ad02c501a4771fe7a7b888604051613e4a91906146c6565b60405180910390a25090999098509650505050505050565b6003545f906110ee906001600160a01b03168484611181565b5f80516020614c7a8339815191526001600160a01b038416613eb55781816002015f828254613eaa9190614974565b90915550613f259050565b6001600160a01b0384165f9081526020829052604090205482811015613f075760405163391434e360e21b81526001600160a01b03861660048201526024810182905260448101849052606401610922565b6001600160a01b0385165f9081526020839052604090209083900390555b6001600160a01b038316613f43576002810180548390039055613f61565b6001600160a01b0383165f9081526020829052604090208054830190555b826001600160a01b0316846001600160a01b03167fddf252ad1be2c89b69c2b068fc378daa952ba7f163c4a11628f55a4df523b3ef84604051613fa691815260200190565b60405180910390a350505050565b5f80516020614c7a8339815191526001600160a01b038516613feb5760405163e602df0560e01b81525f6004820152602401610922565b6001600160a01b03841661401457604051634a1406b160e11b81525f6004820152602401610922565b6001600160a01b038086165f9081526001830160209081526040808320938816835292905220839055811561409157836001600160a01b0316856001600160a01b03167f8c5be1e5ebec7d5bd14f71427d1e84f3dd0314c0f7b2291e5b200ac8c7c3b9258560405161408891815260200190565b60405180910390a35b5050505050565b7ff0c57e16840df040f15088dc2f81fe391c3923bec73e23a9662efc9c229c6a0054600160401b900460ff1661177057604051631afcd79f60e31b815260040160405180910390fd5b612739614098565b6140f1614098565b5f80516020614c7a8339815191527f52c63247e1f47db19d5ce0460030c497f067ca4cebf71ba98eeadabe20bace0361412a8482614ba8565b506004810161346a8382614ba8565b6141428261418e565b6040516001600160a01b038316907fbc7cd75a20ee27fd9adebab32041f755214dbc6bffa90cc0225b39da2e5c2d3b905f90a280511561418657612fa182826141f1565b611365614263565b806001600160a01b03163b5f036141c357604051634c9c8ce360e01b81526001600160a01b0382166004820152602401610922565b5f80516020614cba83398151915280546001600160a01b0319166001600160a01b0392909216919091179055565b60605f80846001600160a01b03168460405161420d9190614c63565b5f60405180830381855af49150503d805f8114614245576040519150601f19603f3d011682016040523d82523d5f602084013e61424a565b606091505b509150915061425a858383614282565b95945050505050565b34156117705760405163b398979f60e01b815260040160405180910390fd5b60608261429757614292826142de565b6110ee565b81511580156142ae57506001600160a01b0384163b155b156142d757604051639996b31560e01b81526001600160a01b0385166004820152602401610922565b50806110ee565b8051156142ee5780518082602001fd5b604051630a12f52160e11b815260040160405180910390fd5b602081525f82518060208401528060208501604085015e5f604082850101526040601f19601f83011684010191505092915050565b6001600160a01b038116811461276b575f80fd5b803561435b8161433c565b919050565b5f60208284031215614370575f80fd5b81356110ee8161433c565b5f815180845260208085019450602084015f5b838110156143aa5781518752958201959082019060010161438e565b509495945050505050565b602081525f6110ee602083018461437b565b5f80604083850312156143d8575f80fd5b82356143e38161433c565b946020939093013593505050565b634e487b7160e01b5f52604160045260245ffd5b604051601f8201601f191681016001600160401b038111828210171561442d5761442d6143f1565b604052919050565b5f6001600160401b0382111561444d5761444d6143f1565b5060051b60200190565b5f82601f830112614466575f80fd5b8135602061447b61447683614435565b614405565b8083825260208201915060208460051b87010193508684111561449c575f80fd5b602086015b848110156144b857803583529183019183016144a1565b509695505050505050565b5f805f80608085870312156144d6575f80fd5b84356001600160401b03808211156144ec575f80fd5b818701915087601f8301126144ff575f80fd5b8135602061450f61447683614435565b82815260059290921b8401810191818101908b84111561452d575f80fd5b948201945b838610156145545785356145458161433c565b82529482019490820190614532565b98505088013592505080821115614569575f80fd5b5061457687828801614457565b9350506040850135915061458c60608601614350565b905092959194509250565b5f805f606084860312156145a9575f80fd5b83356145b48161433c565b925060208401356145c48161433c565b929592945050506040919091013590565b828152604060208201525f611731604083018461437b565b5f80604083850312156145fe575f80fd5b82356146098161433c565b91506020838101356001600160401b0380821115614625575f80fd5b818601915086601f830112614638575f80fd5b81358181111561464a5761464a6143f1565b61465c601f8201601f19168501614405565b91508082528784828501011115614671575f80fd5b80848401858401375f848284010152508093505050509250929050565b5f815180845260208085019450602084015f5b838110156143aa5781516001600160a01b0316875295820195908201906001016146a1565b602081525f6110ee602083018461468e565b5f805f80608085870312156146eb575f80fd5b84356146f68161433c565b935060208501356147068161433c565b925060408501359150606085013561471d8161433c565b939692955090935050565b604080825283519082018190525f906020906060840190828701845b82811015614762578151151584529284019290840190600101614744565b5050508381036020850152611340818661437b565b5f60208284031215614787575f80fd5b5035919050565b5f806040838503121561479f575f80fd5b82356147aa8161433c565b915060208301356147ba8161433c565b809150509250929050565b5f80604083850312156147d6575f80fd5b82356147e18161433c565b915060208301356001600160401b038111156147fb575f80fd5b61480785828601614457565b9150509250929050565b604081525f614823604083018561437b565b828103602084015261425a818561437b565b600181811c9082168061484957607f821691505b602082108103610ac657634e487b7160e01b5f52602260045260245ffd5b5f60208284031215614877575f80fd5b81516110ee8161433c565b6020808252600e908201526d4f6e6c792050657269706865727960901b604082015260600190565b634e487b7160e01b5f52601160045260245ffd5b8082028115828204841417610bc757610bc76148aa565b634e487b7160e01b5f52603260045260245ffd5b5f60208083850312156148fa575f80fd5b82516001600160401b0381111561490f575f80fd5b8301601f8101851361491f575f80fd5b805161492d61447682614435565b81815260059190911b8201830190838101908783111561494b575f80fd5b928401925b8284101561496957835182529284019290840190614950565b979650505050505050565b80820180821115610bc757610bc76148aa565b5f60208284031215614997575f80fd5b5051919050565b5f826149b857634e487b7160e01b5f52601260045260245ffd5b500490565b81810381811115610bc757610bc76148aa565b5f602082840312156149e0575f80fd5b815180151581146110ee575f80fd5b5f602082840312156149ff575f80fd5b815160ff811681146110ee575f80fd5b600181815b80851115614a4957815f1904821115614a2f57614a2f6148aa565b80851615614a3c57918102915b93841c9390800290614a14565b509250929050565b5f82614a5f57506001610bc7565b81614a6b57505f610bc7565b8160018114614a815760028114614a8b57614aa7565b6001915050610bc7565b60ff841115614a9c57614a9c6148aa565b50506001821b610bc7565b5060208310610133831016604e8410600b8410161715614aca575081810a610bc7565b614ad48383614a0f565b805f1904821115614ae757614ae76148aa565b029392505050565b5f6110ee8383614a51565b60e081525f614b0c60e083018a61437b565b8281036020840152614b1e818a61468e565b90508281036040840152614b32818961437b565b606084019790975250506001600160a01b03938416608082015291831660a083015290911660c0909101529392505050565b601f821115612fa157805f5260205f20601f840160051c81016020851015614b895750805b601f840160051c820191505b81811015614091575f8155600101614b95565b81516001600160401b03811115614bc157614bc16143f1565b614bd581614bcf8454614835565b84614b64565b602080601f831160018114614c08575f8415614bf15750858301515b5f19600386901b1c1916600185901b178555612f8c565b5f85815260208120601f198616915b82811015614c3657888601518255948401946001909101908401614c17565b5085821015614c5357878501515f19600388901b60f8161c191681555b5050505050600190811b01905550565b5f82518060208501845e5f92019182525091905056fe52c63247e1f47db19d5ce0460030c497f067ca4cebf71ba98eeadabe20bace0052c63247e1f47db19d5ce0460030c497f067ca4cebf71ba98eeadabe20bace02360894a13ba1a3210667c828492db98dca3e2076cc3735a920a3ca505d382bbca2646970667358221220f67dfc6f38177f0d0b38e51449c292cc493ecd092d5c2787527f447945f35ac264736f6c63430008190033",
  "linkReferences": {},
  "deployedLinkReferences": {}
}