{
  "_format": "hh-sol-artifact-1",
  "contractName": "BaluniV1Registry",
  "sourceName": "contracts/BaluniV1Registry.sol",
  "abi": [
    {
      "inputs": [
        {
          "internalType": "address",
          "name": "target",
          "type": "address"
        }
      ],
      "name": "AddressEmptyCode",
      "type": "error"
    },
    {
      "inputs": [
        {
          "internalType": "address",
          "name": "implementation",
          "type": "address"
        }
      ],
      "name": "ERC1967InvalidImplementation",
      "type": "error"
    },
    {
      "inputs": [],
      "name": "ERC1967NonPayable",
      "type": "error"
    },
    {
      "inputs": [],
      "name": "FailedInnerCall",
      "type": "error"
    },
    {
      "inputs": [],
      "name": "InvalidInitialization",
      "type": "error"
    },
    {
      "inputs": [],
      "name": "NotInitializing",
      "type": "error"
    },
    {
      "inputs": [
        {
          "internalType": "address",
          "name": "owner",
          "type": "address"
        }
      ],
      "name": "OwnableInvalidOwner",
      "type": "error"
    },
    {
      "inputs": [
        {
          "internalType": "address",
          "name": "account",
          "type": "address"
        }
      ],
      "name": "OwnableUnauthorizedAccount",
      "type": "error"
    },
    {
      "inputs": [],
      "name": "UUPSUnauthorizedCallContext",
      "type": "error"
    },
    {
      "inputs": [
        {
          "internalType": "bytes32",
          "name": "slot",
          "type": "bytes32"
        }
      ],
      "name": "UUPSUnsupportedProxiableUUID",
      "type": "error"
    },
    {
      "anonymous": false,
      "inputs": [
        {
          "indexed": false,
          "internalType": "uint64",
          "name": "version",
          "type": "uint64"
        }
      ],
      "name": "Initialized",
      "type": "event"
    },
    {
      "anonymous": false,
      "inputs": [
        {
          "indexed": true,
          "internalType": "address",
          "name": "previousOwner",
          "type": "address"
        },
        {
          "indexed": true,
          "internalType": "address",
          "name": "newOwner",
          "type": "address"
        }
      ],
      "name": "OwnershipTransferred",
      "type": "event"
    },
    {
      "anonymous": false,
      "inputs": [
        {
          "indexed": true,
          "internalType": "address",
          "name": "implementation",
          "type": "address"
        }
      ],
      "name": "Upgraded",
      "type": "event"
    },
    {
      "inputs": [],
      "name": "UPGRADE_INTERFACE_VERSION",
      "outputs": [
        {
          "internalType": "string",
          "name": "",
          "type": "string"
        }
      ],
      "stateMutability": "view",
      "type": "function"
    },
    {
      "inputs": [],
      "name": "USDC",
      "outputs": [
        {
          "internalType": "address",
          "name": "",
          "type": "address"
        }
      ],
      "stateMutability": "view",
      "type": "function"
    },
    {
      "inputs": [],
      "name": "WNATIVE",
      "outputs": [
        {
          "internalType": "address",
          "name": "",
          "type": "address"
        }
      ],
      "stateMutability": "view",
      "type": "function"
    },
    {
      "inputs": [],
      "name": "_1inchSpotAgg",
      "outputs": [
        {
          "internalType": "address",
          "name": "",
          "type": "address"
        }
      ],
      "stateMutability": "view",
      "type": "function"
    },
    {
      "inputs": [],
      "name": "_BPS_BASE",
      "outputs": [
        {
          "internalType": "uint256",
          "name": "",
          "type": "uint256"
        }
      ],
      "stateMutability": "view",
      "type": "function"
    },
    {
      "inputs": [],
      "name": "_BPS_FEE",
      "outputs": [
        {
          "internalType": "uint256",
          "name": "",
          "type": "uint256"
        }
      ],
      "stateMutability": "view",
      "type": "function"
    },
    {
      "inputs": [],
      "name": "_MAX_BPS_FEE",
      "outputs": [
        {
          "internalType": "uint256",
          "name": "",
          "type": "uint256"
        }
      ],
      "stateMutability": "view",
      "type": "function"
    },
    {
      "inputs": [],
      "name": "baluniAgentFactory",
      "outputs": [
        {
          "internalType": "address",
          "name": "",
          "type": "address"
        }
      ],
      "stateMutability": "view",
      "type": "function"
    },
    {
      "inputs": [],
      "name": "baluniPoolFactory",
      "outputs": [
        {
          "internalType": "address",
          "name": "",
          "type": "address"
        }
      ],
      "stateMutability": "view",
      "type": "function"
    },
    {
      "inputs": [],
      "name": "baluniPoolPeriphery",
      "outputs": [
        {
          "internalType": "address",
          "name": "",
          "type": "address"
        }
      ],
      "stateMutability": "view",
      "type": "function"
    },
    {
      "inputs": [],
      "name": "baluniRebalancer",
      "outputs": [
        {
          "internalType": "address",
          "name": "",
          "type": "address"
        }
      ],
      "stateMutability": "view",
      "type": "function"
    },
    {
      "inputs": [],
      "name": "baluniRegistry",
      "outputs": [
        {
          "internalType": "address",
          "name": "",
          "type": "address"
        }
      ],
      "stateMutability": "view",
      "type": "function"
    },
    {
      "inputs": [],
      "name": "baluniRouter",
      "outputs": [
        {
          "internalType": "address",
          "name": "",
          "type": "address"
        }
      ],
      "stateMutability": "view",
      "type": "function"
    },
    {
      "inputs": [],
      "name": "get1inchSpotAgg",
      "outputs": [
        {
          "internalType": "address",
          "name": "",
          "type": "address"
        }
      ],
      "stateMutability": "view",
      "type": "function"
    },
    {
      "inputs": [],
      "name": "getBPS_BASE",
      "outputs": [
        {
          "internalType": "uint256",
          "name": "",
          "type": "uint256"
        }
      ],
      "stateMutability": "view",
      "type": "function"
    },
    {
      "inputs": [],
      "name": "getBPS_FEE",
      "outputs": [
        {
          "internalType": "uint256",
          "name": "",
          "type": "uint256"
        }
      ],
      "stateMutability": "view",
      "type": "function"
    },
    {
      "inputs": [],
      "name": "getBaluniAgentFactory",
      "outputs": [
        {
          "internalType": "address",
          "name": "",
          "type": "address"
        }
      ],
      "stateMutability": "view",
      "type": "function"
    },
    {
      "inputs": [],
      "name": "getBaluniPoolFactory",
      "outputs": [
        {
          "internalType": "address",
          "name": "",
          "type": "address"
        }
      ],
      "stateMutability": "view",
      "type": "function"
    },
    {
      "inputs": [],
      "name": "getBaluniPoolPeriphery",
      "outputs": [
        {
          "internalType": "address",
          "name": "",
          "type": "address"
        }
      ],
      "stateMutability": "view",
      "type": "function"
    },
    {
      "inputs": [],
      "name": "getBaluniRebalancer",
      "outputs": [
        {
          "internalType": "address",
          "name": "",
          "type": "address"
        }
      ],
      "stateMutability": "view",
      "type": "function"
    },
    {
      "inputs": [],
      "name": "getBaluniRegistry",
      "outputs": [
        {
          "internalType": "address",
          "name": "",
          "type": "address"
        }
      ],
      "stateMutability": "view",
      "type": "function"
    },
    {
      "inputs": [],
      "name": "getBaluniRouter",
      "outputs": [
        {
          "internalType": "address",
          "name": "",
          "type": "address"
        }
      ],
      "stateMutability": "view",
      "type": "function"
    },
    {
      "inputs": [],
      "name": "getMAX_BPS_FEE",
      "outputs": [
        {
          "internalType": "uint256",
          "name": "",
          "type": "uint256"
        }
      ],
      "stateMutability": "view",
      "type": "function"
    },
    {
      "inputs": [],
      "name": "getTreasury",
      "outputs": [
        {
          "internalType": "address",
          "name": "",
          "type": "address"
        }
      ],
      "stateMutability": "view",
      "type": "function"
    },
    {
      "inputs": [],
      "name": "getUSDC",
      "outputs": [
        {
          "internalType": "address",
          "name": "",
          "type": "address"
        }
      ],
      "stateMutability": "view",
      "type": "function"
    },
    {
      "inputs": [],
      "name": "getUniswapFactory",
      "outputs": [
        {
          "internalType": "address",
          "name": "",
          "type": "address"
        }
      ],
      "stateMutability": "view",
      "type": "function"
    },
    {
      "inputs": [],
      "name": "getUniswapRouter",
      "outputs": [
        {
          "internalType": "address",
          "name": "",
          "type": "address"
        }
      ],
      "stateMutability": "view",
      "type": "function"
    },
    {
      "inputs": [],
      "name": "getWNATIVE",
      "outputs": [
        {
          "internalType": "address",
          "name": "",
          "type": "address"
        }
      ],
      "stateMutability": "view",
      "type": "function"
    },
    {
      "inputs": [],
      "name": "initialize",
      "outputs": [],
      "stateMutability": "nonpayable",
      "type": "function"
    },
    {
      "inputs": [],
      "name": "owner",
      "outputs": [
        {
          "internalType": "address",
          "name": "",
          "type": "address"
        }
      ],
      "stateMutability": "view",
      "type": "function"
    },
    {
      "inputs": [],
      "name": "proxiableUUID",
      "outputs": [
        {
          "internalType": "bytes32",
          "name": "",
          "type": "bytes32"
        }
      ],
      "stateMutability": "view",
      "type": "function"
    },
    {
      "inputs": [],
      "name": "renounceOwnership",
      "outputs": [],
      "stateMutability": "nonpayable",
      "type": "function"
    },
    {
      "inputs": [
        {
          "internalType": "address",
          "name": "__1inchSpotAgg",
          "type": "address"
        }
      ],
      "name": "set1inchSpotAgg",
      "outputs": [],
      "stateMutability": "nonpayable",
      "type": "function"
    },
    {
      "inputs": [
        {
          "internalType": "uint256",
          "name": "__BPS_FEE",
          "type": "uint256"
        }
      ],
      "name": "setBPS_FEE",
      "outputs": [],
      "stateMutability": "nonpayable",
      "type": "function"
    },
    {
      "inputs": [
        {
          "internalType": "address",
          "name": "_baluniAgentFactory",
          "type": "address"
        }
      ],
      "name": "setBaluniAgentFactory",
      "outputs": [],
      "stateMutability": "nonpayable",
      "type": "function"
    },
    {
      "inputs": [
        {
          "internalType": "address",
          "name": "_baluniPoolFactory",
          "type": "address"
        }
      ],
      "name": "setBaluniPoolFactory",
      "outputs": [],
      "stateMutability": "nonpayable",
      "type": "function"
    },
    {
      "inputs": [
        {
          "internalType": "address",
          "name": "_baluniPoolPeriphery",
          "type": "address"
        }
      ],
      "name": "setBaluniPoolPeriphery",
      "outputs": [],
      "stateMutability": "nonpayable",
      "type": "function"
    },
    {
      "inputs": [
        {
          "internalType": "address",
          "name": "_baluniRebalancer",
          "type": "address"
        }
      ],
      "name": "setBaluniRebalancer",
      "outputs": [],
      "stateMutability": "nonpayable",
      "type": "function"
    },
    {
      "inputs": [
        {
          "internalType": "address",
          "name": "_baluniRegistry",
          "type": "address"
        }
      ],
      "name": "setBaluniRegistry",
      "outputs": [],
      "stateMutability": "nonpayable",
      "type": "function"
    },
    {
      "inputs": [
        {
          "internalType": "address",
          "name": "_baluniRouter",
          "type": "address"
        }
      ],
      "name": "setBaluniRouter",
      "outputs": [],
      "stateMutability": "nonpayable",
      "type": "function"
    },
    {
      "inputs": [
        {
          "internalType": "address",
          "name": "_treasury",
          "type": "address"
        }
      ],
      "name": "setTreasury",
      "outputs": [],
      "stateMutability": "nonpayable",
      "type": "function"
    },
    {
      "inputs": [
        {
          "internalType": "address",
          "name": "_USDC",
          "type": "address"
        }
      ],
      "name": "setUSDC",
      "outputs": [],
      "stateMutability": "nonpayable",
      "type": "function"
    },
    {
      "inputs": [
        {
          "internalType": "address",
          "name": "_uniswapFactory",
          "type": "address"
        }
      ],
      "name": "setUniswapFactory",
      "outputs": [],
      "stateMutability": "nonpayable",
      "type": "function"
    },
    {
      "inputs": [
        {
          "internalType": "address",
          "name": "_uniswapRouter",
          "type": "address"
        }
      ],
      "name": "setUniswapRouter",
      "outputs": [],
      "stateMutability": "nonpayable",
      "type": "function"
    },
    {
      "inputs": [
        {
          "internalType": "address",
          "name": "_WNATIVE",
          "type": "address"
        }
      ],
      "name": "setWNATIVE",
      "outputs": [],
      "stateMutability": "nonpayable",
      "type": "function"
    },
    {
      "inputs": [
        {
          "internalType": "address",
          "name": "newOwner",
          "type": "address"
        }
      ],
      "name": "transferOwnership",
      "outputs": [],
      "stateMutability": "nonpayable",
      "type": "function"
    },
    {
      "inputs": [],
      "name": "treasury",
      "outputs": [
        {
          "internalType": "address",
          "name": "",
          "type": "address"
        }
      ],
      "stateMutability": "view",
      "type": "function"
    },
    {
      "inputs": [],
      "name": "uniswapFactory",
      "outputs": [
        {
          "internalType": "address",
          "name": "",
          "type": "address"
        }
      ],
      "stateMutability": "view",
      "type": "function"
    },
    {
      "inputs": [],
      "name": "uniswapRouter",
      "outputs": [
        {
          "internalType": "address",
          "name": "",
          "type": "address"
        }
      ],
      "stateMutability": "view",
      "type": "function"
    },
    {
      "inputs": [
        {
          "internalType": "address",
          "name": "newImplementation",
          "type": "address"
        },
        {
          "internalType": "bytes",
          "name": "data",
          "type": "bytes"
        }
      ],
      "name": "upgradeToAndCall",
      "outputs": [],
      "stateMutability": "payable",
      "type": "function"
    }
  ],
  "bytecode": "0x60a0604052306080523480156012575f80fd5b506080516115096100395f395f8181610dc801528181610df10152610fa601526115095ff3fe608060405260043610610319575f3560e01c80638267c2c81161019c578063b691a419116100e7578063cff49d6811610092578063f0f442601161006d578063f0f44260146108a7578063f1dccde7146108c6578063f2fde38b146108e5578063f5d2d99814610904575f80fd5b8063cff49d681461084c578063e04b677f14610869578063e528ca1214610888575f80fd5b8063bea9849e116100c2578063bea9849e146107f1578063c08f786b14610810578063c9aba8ae1461082f575f80fd5b8063b691a4191461079e578063b6fe9cc7146107bd578063b9f5e617146107dc575f80fd5b80638e1c3a8a11610147578063ad3cb1cc11610122578063ad3cb1cc1461070b578063b381cf4014610760578063b3e089a21461077f575f80fd5b80638e1c3a8a146106bb5780639380fb6f146106d85780639e6453f8146106ec575f80fd5b806389a302711161017757806389a30271146106425780638bdb2afa146106615780638da5cb5b1461067f575f80fd5b80638267c2c8146105fa578063853771881461061957806385462d6f1461062e575f80fd5b80634f4608a2116102675780636c43274c11610212578063735de9f7116101ed578063735de9f71461058b578063782dd902146105aa5780637c6fd308146105c95780638129fc1c146105e6575f80fd5b80636c43274c1461053b5780636c9c00781461055a578063715018a614610577575f80fd5b8063588c5b7011610242578063588c5b70146104de57806358a67233146104fd57806361d027b31461051c575f80fd5b80634f4608a214610499578063524900b5146104ad57806352d1902d146104ca575f80fd5b806334decfc9116102c75780633e6dfa36116102a25780633e6dfa361461044b578063400fb668146104675780634f1ef28614610486575f80fd5b806334decfc9146103ec57806339b651401461040f5780633b19e84a1461042e575f80fd5b80631acb6141116102f75780631acb6141146103935780631bf01e9b146103b0578063219ce339146103cd575f80fd5b80630241bffa1461031d57806304cc73251461033e5780631292f02e14610374575b5f80fd5b348015610328575f80fd5b5061033c610337366004611358565b610921565b005b348015610349575f80fd5b506006546001600160a01b03165b6040516001600160a01b0390911681526020015b60405180910390f35b34801561037f575f80fd5b50600254610357906001600160a01b031681565b34801561039e575f80fd5b506003546001600160a01b0316610357565b3480156103bb575f80fd5b50600a546001600160a01b0316610357565b3480156103d8575f80fd5b50600454610357906001600160a01b031681565b3480156103f7575f80fd5b50610401600c5481565b60405190815260200161036b565b34801561041a575f80fd5b50600654610357906001600160a01b031681565b348015610439575f80fd5b506008546001600160a01b0316610357565b348015610456575f80fd5b505f546001600160a01b0316610357565b348015610472575f80fd5b5061033c610481366004611358565b61094b565b61033c61049436600461139e565b610975565b3480156104a4575f80fd5b50600e54610401565b3480156104b8575f80fd5b506001546001600160a01b0316610357565b3480156104d5575f80fd5b50610401610994565b3480156104e9575f80fd5b5061033c6104f8366004611358565b6109c2565b348015610508575f80fd5b50600354610357906001600160a01b031681565b348015610527575f80fd5b50600854610357906001600160a01b031681565b348015610546575f80fd5b5061033c610555366004611358565b6109ec565b348015610565575f80fd5b506009546001600160a01b0316610357565b348015610582575f80fd5b5061033c610a16565b348015610596575f80fd5b50600154610357906001600160a01b031681565b3480156105b5575f80fd5b50600b54610357906001600160a01b031681565b3480156105d4575f80fd5b506004546001600160a01b0316610357565b3480156105f1575f80fd5b5061033c610a29565b348015610605575f80fd5b5061033c610614366004611358565b610b92565b348015610624575f80fd5b50610401600e5481565b348015610639575f80fd5b50600d54610401565b34801561064d575f80fd5b50600a54610357906001600160a01b031681565b34801561066c575f80fd5b505f54610357906001600160a01b031681565b34801561068a575f80fd5b507f9016d09d72d40fdae2fd8ceac6b6234c7706214fd39c1cd1e609a0528c199300546001600160a01b0316610357565b3480156106c6575f80fd5b50600b546001600160a01b0316610357565b3480156106e3575f80fd5b50600c54610401565b3480156106f7575f80fd5b5061033c61070636600461145a565b610bbc565b348015610716575f80fd5b506107536040518060400160405280600581526020017f352e302e3000000000000000000000000000000000000000000000000000000081525081565b60405161036b9190611471565b34801561076b575f80fd5b50600954610357906001600160a01b031681565b34801561078a575f80fd5b5061033c610799366004611358565b610bc9565b3480156107a9575f80fd5b50600554610357906001600160a01b031681565b3480156107c8575f80fd5b5061033c6107d7366004611358565b610bf3565b3480156107e7575f80fd5b50610401600d5481565b3480156107fc575f80fd5b5061033c61080b366004611358565b610c1d565b34801561081b575f80fd5b5061033c61082a366004611358565b610c47565b34801561083a575f80fd5b506007546001600160a01b0316610357565b348015610857575f80fd5b506005546001600160a01b0316610357565b348015610874575f80fd5b5061033c610883366004611358565b610c71565b348015610893575f80fd5b50600754610357906001600160a01b031681565b3480156108b2575f80fd5b5061033c6108c1366004611358565b610c9a565b3480156108d1575f80fd5b5061033c6108e0366004611358565b610cc4565b3480156108f0575f80fd5b5061033c6108ff366004611358565b610cee565b34801561090f575f80fd5b506002546001600160a01b0316610357565b610929610d49565b600580546001600160a01b0319166001600160a01b0392909216919091179055565b610953610d49565b600680546001600160a01b0319166001600160a01b0392909216919091179055565b61097d610dbd565b61098682610e8d565b6109908282610e95565b5050565b5f61099d610f9b565b507f360894a13ba1a3210667c828492db98dca3e2076cc3735a920a3ca505d382bbc90565b6109ca610d49565b600380546001600160a01b0319166001600160a01b0392909216919091179055565b6109f4610d49565b600780546001600160a01b0319166001600160a01b0392909216919091179055565b610a1e610d49565b610a275f610ffd565b565b7ff0c57e16840df040f15088dc2f81fe391c3923bec73e23a9662efc9c229c6a00805468010000000000000000810460ff16159067ffffffffffffffff165f81158015610a735750825b90505f8267ffffffffffffffff166001148015610a8f5750303b155b905081158015610a9d575080155b15610ad4576040517ff92ee8a900000000000000000000000000000000000000000000000000000000815260040160405180910390fd5b84547fffffffffffffffffffffffffffffffffffffffffffffffff00000000000000001660011785558315610b1f57845468ff00000000000000001916680100000000000000001785555b610b283361106d565b610b3061107e565b6064600c55601e600d55612710600e558315610b8b57845468ff000000000000000019168555604051600181527fc7f505b2f371ae2175ee4913f4499e1f2633a7b5936321eed1cdaeb6115181d29060200160405180910390a15b5050505050565b610b9a610d49565b600480546001600160a01b0319166001600160a01b0392909216919091179055565b610bc4610d49565b600d55565b610bd1610d49565b600a80546001600160a01b0319166001600160a01b0392909216919091179055565b610bfb610d49565b600980546001600160a01b0319166001600160a01b0392909216919091179055565b610c25610d49565b600180546001600160a01b0319166001600160a01b0392909216919091179055565b610c4f610d49565b600b80546001600160a01b0319166001600160a01b0392909216919091179055565b610c79610d49565b5f80546001600160a01b0319166001600160a01b0392909216919091179055565b610ca2610d49565b600880546001600160a01b0319166001600160a01b0392909216919091179055565b610ccc610d49565b600280546001600160a01b0319166001600160a01b0392909216919091179055565b610cf6610d49565b6001600160a01b038116610d3d576040517f1e4fbdf70000000000000000000000000000000000000000000000000000000081525f60048201526024015b60405180910390fd5b610d4681610ffd565b50565b33610d7b7f9016d09d72d40fdae2fd8ceac6b6234c7706214fd39c1cd1e609a0528c199300546001600160a01b031690565b6001600160a01b031614610a27576040517f118cdaa7000000000000000000000000000000000000000000000000000000008152336004820152602401610d34565b306001600160a01b037f0000000000000000000000000000000000000000000000000000000000000000161480610e5657507f00000000000000000000000000000000000000000000000000000000000000006001600160a01b0316610e4a7f360894a13ba1a3210667c828492db98dca3e2076cc3735a920a3ca505d382bbc546001600160a01b031690565b6001600160a01b031614155b15610a27576040517fe07c8dba00000000000000000000000000000000000000000000000000000000815260040160405180910390fd5b610d46610d49565b816001600160a01b03166352d1902d6040518163ffffffff1660e01b8152600401602060405180830381865afa925050508015610eef575060408051601f3d908101601f19168201909252610eec918101906114a6565b60015b610f30576040517f4c9c8ce30000000000000000000000000000000000000000000000000000000081526001600160a01b0383166004820152602401610d34565b7f360894a13ba1a3210667c828492db98dca3e2076cc3735a920a3ca505d382bbc8114610f8c576040517faa1d49a400000000000000000000000000000000000000000000000000000000815260048101829052602401610d34565b610f968383611086565b505050565b306001600160a01b037f00000000000000000000000000000000000000000000000000000000000000001614610a27576040517fe07c8dba00000000000000000000000000000000000000000000000000000000815260040160405180910390fd5b7f9016d09d72d40fdae2fd8ceac6b6234c7706214fd39c1cd1e609a0528c19930080546001600160a01b031981166001600160a01b03848116918217845560405192169182907f8be0079c531659141344cd1fd0a4f28419497f9722a3daafe3b4186f6b6457e0905f90a3505050565b6110756110db565b610d4681611142565b610a276110db565b61108f8261114a565b6040516001600160a01b038316907fbc7cd75a20ee27fd9adebab32041f755214dbc6bffa90cc0225b39da2e5c2d3b905f90a28051156110d357610f9682826111d9565b61099061124b565b7ff0c57e16840df040f15088dc2f81fe391c3923bec73e23a9662efc9c229c6a005468010000000000000000900460ff16610a27576040517fd7e6bcf800000000000000000000000000000000000000000000000000000000815260040160405180910390fd5b610cf66110db565b806001600160a01b03163b5f03611198576040517f4c9c8ce30000000000000000000000000000000000000000000000000000000081526001600160a01b0382166004820152602401610d34565b7f360894a13ba1a3210667c828492db98dca3e2076cc3735a920a3ca505d382bbc80546001600160a01b0319166001600160a01b0392909216919091179055565b60605f80846001600160a01b0316846040516111f591906114bd565b5f60405180830381855af49150503d805f811461122d576040519150601f19603f3d011682016040523d82523d5f602084013e611232565b606091505b5091509150611242858383611283565b95945050505050565b3415610a27576040517fb398979f00000000000000000000000000000000000000000000000000000000815260040160405180910390fd5b60608261129857611293826112fb565b6112f4565b81511580156112af57506001600160a01b0384163b155b156112f1576040517f9996b3150000000000000000000000000000000000000000000000000000000081526001600160a01b0385166004820152602401610d34565b50805b9392505050565b80511561130b5780518082602001fd5b6040517f1425ea4200000000000000000000000000000000000000000000000000000000815260040160405180910390fd5b80356001600160a01b0381168114611353575f80fd5b919050565b5f60208284031215611368575f80fd5b6112f48261133d565b7f4e487b71000000000000000000000000000000000000000000000000000000005f52604160045260245ffd5b5f80604083850312156113af575f80fd5b6113b88361133d565b9150602083013567ffffffffffffffff808211156113d4575f80fd5b818501915085601f8301126113e7575f80fd5b8135818111156113f9576113f9611371565b604051601f8201601f19908116603f0116810190838211818310171561142157611421611371565b81604052828152886020848701011115611439575f80fd5b826020860160208301375f6020848301015280955050505050509250929050565b5f6020828403121561146a575f80fd5b5035919050565b602081525f82518060208401528060208501604085015e5f604082850101526040601f19601f83011684010191505092915050565b5f602082840312156114b6575f80fd5b5051919050565b5f82518060208501845e5f92019182525091905056fea2646970667358221220026abe67ddc872c4b57c76c29e8f574442b51be3dc637f4885a18dd699c24b1664736f6c63430008190033",
  "linkReferences": {},
  "deployedLinkReferences": {}
}