{
  "_format": "hh-sol-artifact-1",
  "contractName": "BBronze",
  "sourceName": "contracts/balancer/BColor.sol",
  "abi": [
    {
      "inputs": [],
      "name": "getColor",
      "outputs": [
        {
          "internalType": "bytes32",
          "name": "",
          "type": "bytes32"
        }
      ],
      "stateMutability": "view",
      "type": "function"
    }
  ],
  "bytecode": "0x60808060405234601357607c908160188239f35b5f80fdfe60808060405260043610156011575f80fd5b5f3560e01c639a86139b146023575f80fd5b346042575f3660031901126042576542524f4e5a4560d01b8152602090f35b5f80fdfea2646970667358221220e197f4d1a676911ee8ad38cdb1a5502a5970b5522d2fc327ad69babb1cb7aa8864736f6c63430008190033",
  "linkReferences": {},
  "deployedLinkReferences": {}
}