{
  "_format": "hh-sol-artifact-1",
  "contractName": "BaluniV1yVault",
  "sourceName": "contracts/vaults/BaluniV1yVault.sol",
  "abi": [
    {
      "inputs": [
        {
          "internalType": "address",
          "name": "target",
          "type": "address"
        }
      ],
      "name": "AddressEmptyCode",
      "type": "error"
    },
    {
      "inputs": [
        {
          "internalType": "address",
          "name": "implementation",
          "type": "address"
        }
      ],
      "name": "ERC1967InvalidImplementation",
      "type": "error"
    },
    {
      "inputs": [],
      "name": "ERC1967NonPayable",
      "type": "error"
    },
    {
      "inputs": [
        {
          "internalType": "address",
          "name": "spender",
          "type": "address"
        },
        {
          "internalType": "uint256",
          "name": "allowance",
          "type": "uint256"
        },
        {
          "internalType": "uint256",
          "name": "needed",
          "type": "uint256"
        }
      ],
      "name": "ERC20InsufficientAllowance",
      "type": "error"
    },
    {
      "inputs": [
        {
          "internalType": "address",
          "name": "sender",
          "type": "address"
        },
        {
          "internalType": "uint256",
          "name": "balance",
          "type": "uint256"
        },
        {
          "internalType": "uint256",
          "name": "needed",
          "type": "uint256"
        }
      ],
      "name": "ERC20InsufficientBalance",
      "type": "error"
    },
    {
      "inputs": [
        {
          "internalType": "address",
          "name": "approver",
          "type": "address"
        }
      ],
      "name": "ERC20InvalidApprover",
      "type": "error"
    },
    {
      "inputs": [
        {
          "internalType": "address",
          "name": "receiver",
          "type": "address"
        }
      ],
      "name": "ERC20InvalidReceiver",
      "type": "error"
    },
    {
      "inputs": [
        {
          "internalType": "address",
          "name": "sender",
          "type": "address"
        }
      ],
      "name": "ERC20InvalidSender",
      "type": "error"
    },
    {
      "inputs": [
        {
          "internalType": "address",
          "name": "spender",
          "type": "address"
        }
      ],
      "name": "ERC20InvalidSpender",
      "type": "error"
    },
    {
      "inputs": [],
      "name": "EnforcedPause",
      "type": "error"
    },
    {
      "inputs": [],
      "name": "ExpectedPause",
      "type": "error"
    },
    {
      "inputs": [],
      "name": "FailedInnerCall",
      "type": "error"
    },
    {
      "inputs": [],
      "name": "InvalidInitialization",
      "type": "error"
    },
    {
      "inputs": [],
      "name": "NotInitializing",
      "type": "error"
    },
    {
      "inputs": [
        {
          "internalType": "address",
          "name": "owner",
          "type": "address"
        }
      ],
      "name": "OwnableInvalidOwner",
      "type": "error"
    },
    {
      "inputs": [
        {
          "internalType": "address",
          "name": "account",
          "type": "address"
        }
      ],
      "name": "OwnableUnauthorizedAccount",
      "type": "error"
    },
    {
      "inputs": [],
      "name": "ReentrancyGuardReentrantCall",
      "type": "error"
    },
    {
      "inputs": [],
      "name": "UUPSUnauthorizedCallContext",
      "type": "error"
    },
    {
      "inputs": [
        {
          "internalType": "bytes32",
          "name": "slot",
          "type": "bytes32"
        }
      ],
      "name": "UUPSUnsupportedProxiableUUID",
      "type": "error"
    },
    {
      "anonymous": false,
      "inputs": [
        {
          "indexed": true,
          "internalType": "address",
          "name": "owner",
          "type": "address"
        },
        {
          "indexed": true,
          "internalType": "address",
          "name": "spender",
          "type": "address"
        },
        {
          "indexed": false,
          "internalType": "uint256",
          "name": "value",
          "type": "uint256"
        }
      ],
      "name": "Approval",
      "type": "event"
    },
    {
      "anonymous": false,
      "inputs": [
        {
          "indexed": true,
          "internalType": "address",
          "name": "sender",
          "type": "address"
        },
        {
          "indexed": false,
          "internalType": "uint256",
          "name": "amount",
          "type": "uint256"
        },
        {
          "indexed": false,
          "internalType": "uint256",
          "name": "interest",
          "type": "uint256"
        }
      ],
      "name": "Buy",
      "type": "event"
    },
    {
      "anonymous": false,
      "inputs": [
        {
          "indexed": false,
          "internalType": "uint64",
          "name": "version",
          "type": "uint64"
        }
      ],
      "name": "Initialized",
      "type": "event"
    },
    {
      "anonymous": false,
      "inputs": [
        {
          "indexed": true,
          "internalType": "address",
          "name": "previousOwner",
          "type": "address"
        },
        {
          "indexed": true,
          "internalType": "address",
          "name": "newOwner",
          "type": "address"
        }
      ],
      "name": "OwnershipTransferred",
      "type": "event"
    },
    {
      "anonymous": false,
      "inputs": [
        {
          "indexed": false,
          "internalType": "address",
          "name": "account",
          "type": "address"
        }
      ],
      "name": "Paused",
      "type": "event"
    },
    {
      "anonymous": false,
      "inputs": [
        {
          "indexed": true,
          "internalType": "address",
          "name": "from",
          "type": "address"
        },
        {
          "indexed": true,
          "internalType": "address",
          "name": "to",
          "type": "address"
        },
        {
          "indexed": false,
          "internalType": "uint256",
          "name": "value",
          "type": "uint256"
        }
      ],
      "name": "Transfer",
      "type": "event"
    },
    {
      "anonymous": false,
      "inputs": [
        {
          "indexed": false,
          "internalType": "address",
          "name": "account",
          "type": "address"
        }
      ],
      "name": "Unpaused",
      "type": "event"
    },
    {
      "anonymous": false,
      "inputs": [
        {
          "indexed": true,
          "internalType": "address",
          "name": "implementation",
          "type": "address"
        }
      ],
      "name": "Upgraded",
      "type": "event"
    },
    {
      "inputs": [],
      "name": "UPGRADE_INTERFACE_VERSION",
      "outputs": [
        {
          "internalType": "string",
          "name": "",
          "type": "string"
        }
      ],
      "stateMutability": "view",
      "type": "function"
    },
    {
      "inputs": [],
      "name": "accumulatedAssetB",
      "outputs": [
        {
          "internalType": "uint256",
          "name": "",
          "type": "uint256"
        }
      ],
      "stateMutability": "view",
      "type": "function"
    },
    {
      "inputs": [],
      "name": "allTimeInterest",
      "outputs": [
        {
          "internalType": "uint256",
          "name": "",
          "type": "uint256"
        }
      ],
      "stateMutability": "view",
      "type": "function"
    },
    {
      "inputs": [
        {
          "internalType": "address",
          "name": "owner",
          "type": "address"
        },
        {
          "internalType": "address",
          "name": "spender",
          "type": "address"
        }
      ],
      "name": "allowance",
      "outputs": [
        {
          "internalType": "uint256",
          "name": "",
          "type": "uint256"
        }
      ],
      "stateMutability": "view",
      "type": "function"
    },
    {
      "inputs": [
        {
          "internalType": "address",
          "name": "spender",
          "type": "address"
        },
        {
          "internalType": "uint256",
          "name": "value",
          "type": "uint256"
        }
      ],
      "name": "approve",
      "outputs": [
        {
          "internalType": "bool",
          "name": "",
          "type": "bool"
        }
      ],
      "stateMutability": "nonpayable",
      "type": "function"
    },
    {
      "inputs": [
        {
          "internalType": "address",
          "name": "account",
          "type": "address"
        }
      ],
      "name": "balanceOf",
      "outputs": [
        {
          "internalType": "uint256",
          "name": "",
          "type": "uint256"
        }
      ],
      "stateMutability": "view",
      "type": "function"
    },
    {
      "inputs": [],
      "name": "baseAsset",
      "outputs": [
        {
          "internalType": "address",
          "name": "",
          "type": "address"
        }
      ],
      "stateMutability": "view",
      "type": "function"
    },
    {
      "inputs": [],
      "name": "buy",
      "outputs": [],
      "stateMutability": "nonpayable",
      "type": "function"
    },
    {
      "inputs": [],
      "name": "decimals",
      "outputs": [
        {
          "internalType": "uint8",
          "name": "",
          "type": "uint8"
        }
      ],
      "stateMutability": "view",
      "type": "function"
    },
    {
      "inputs": [
        {
          "internalType": "uint256",
          "name": "amount",
          "type": "uint256"
        },
        {
          "internalType": "address",
          "name": "to",
          "type": "address"
        }
      ],
      "name": "deposit",
      "outputs": [],
      "stateMutability": "nonpayable",
      "type": "function"
    },
    {
      "inputs": [
        {
          "internalType": "string",
          "name": "_name",
          "type": "string"
        },
        {
          "internalType": "string",
          "name": "_symbol",
          "type": "string"
        },
        {
          "internalType": "address",
          "name": "_assetA",
          "type": "address"
        },
        {
          "internalType": "address",
          "name": "_yearnVaultAddress",
          "type": "address"
        },
        {
          "internalType": "address",
          "name": "_assetB",
          "type": "address"
        },
        {
          "internalType": "address",
          "name": "_registryAddress",
          "type": "address"
        }
      ],
      "name": "initialize",
      "outputs": [],
      "stateMutability": "nonpayable",
      "type": "function"
    },
    {
      "inputs": [],
      "name": "interestEarned",
      "outputs": [
        {
          "internalType": "uint256",
          "name": "",
          "type": "uint256"
        }
      ],
      "stateMutability": "view",
      "type": "function"
    },
    {
      "inputs": [],
      "name": "lastDeposit",
      "outputs": [
        {
          "internalType": "uint256",
          "name": "",
          "type": "uint256"
        }
      ],
      "stateMutability": "view",
      "type": "function"
    },
    {
      "inputs": [],
      "name": "name",
      "outputs": [
        {
          "internalType": "string",
          "name": "",
          "type": "string"
        }
      ],
      "stateMutability": "view",
      "type": "function"
    },
    {
      "inputs": [],
      "name": "owner",
      "outputs": [
        {
          "internalType": "address",
          "name": "",
          "type": "address"
        }
      ],
      "stateMutability": "view",
      "type": "function"
    },
    {
      "inputs": [],
      "name": "pause",
      "outputs": [],
      "stateMutability": "nonpayable",
      "type": "function"
    },
    {
      "inputs": [],
      "name": "paused",
      "outputs": [
        {
          "internalType": "bool",
          "name": "",
          "type": "bool"
        }
      ],
      "stateMutability": "view",
      "type": "function"
    },
    {
      "inputs": [],
      "name": "proxiableUUID",
      "outputs": [
        {
          "internalType": "bytes32",
          "name": "",
          "type": "bytes32"
        }
      ],
      "stateMutability": "view",
      "type": "function"
    },
    {
      "inputs": [],
      "name": "quoteAsset",
      "outputs": [
        {
          "internalType": "address",
          "name": "",
          "type": "address"
        }
      ],
      "stateMutability": "view",
      "type": "function"
    },
    {
      "inputs": [],
      "name": "registry",
      "outputs": [
        {
          "internalType": "address",
          "name": "",
          "type": "address"
        }
      ],
      "stateMutability": "view",
      "type": "function"
    },
    {
      "inputs": [],
      "name": "renounceOwnership",
      "outputs": [],
      "stateMutability": "nonpayable",
      "type": "function"
    },
    {
      "inputs": [],
      "name": "symbol",
      "outputs": [
        {
          "internalType": "string",
          "name": "",
          "type": "string"
        }
      ],
      "stateMutability": "view",
      "type": "function"
    },
    {
      "inputs": [],
      "name": "totalSupply",
      "outputs": [
        {
          "internalType": "uint256",
          "name": "",
          "type": "uint256"
        }
      ],
      "stateMutability": "view",
      "type": "function"
    },
    {
      "inputs": [],
      "name": "totalValuation",
      "outputs": [
        {
          "internalType": "uint256",
          "name": "",
          "type": "uint256"
        }
      ],
      "stateMutability": "view",
      "type": "function"
    },
    {
      "inputs": [
        {
          "internalType": "address",
          "name": "to",
          "type": "address"
        },
        {
          "internalType": "uint256",
          "name": "value",
          "type": "uint256"
        }
      ],
      "name": "transfer",
      "outputs": [
        {
          "internalType": "bool",
          "name": "",
          "type": "bool"
        }
      ],
      "stateMutability": "nonpayable",
      "type": "function"
    },
    {
      "inputs": [
        {
          "internalType": "address",
          "name": "from",
          "type": "address"
        },
        {
          "internalType": "address",
          "name": "to",
          "type": "address"
        },
        {
          "internalType": "uint256",
          "name": "value",
          "type": "uint256"
        }
      ],
      "name": "transferFrom",
      "outputs": [
        {
          "internalType": "bool",
          "name": "",
          "type": "bool"
        }
      ],
      "stateMutability": "nonpayable",
      "type": "function"
    },
    {
      "inputs": [
        {
          "internalType": "address",
          "name": "newOwner",
          "type": "address"
        }
      ],
      "name": "transferOwnership",
      "outputs": [],
      "stateMutability": "nonpayable",
      "type": "function"
    },
    {
      "inputs": [],
      "name": "unitPrice",
      "outputs": [
        {
          "internalType": "uint256",
          "name": "",
          "type": "uint256"
        }
      ],
      "stateMutability": "view",
      "type": "function"
    },
    {
      "inputs": [],
      "name": "unpause",
      "outputs": [],
      "stateMutability": "nonpayable",
      "type": "function"
    },
    {
      "inputs": [
        {
          "internalType": "address",
          "name": "newImplementation",
          "type": "address"
        },
        {
          "internalType": "bytes",
          "name": "data",
          "type": "bytes"
        }
      ],
      "name": "upgradeToAndCall",
      "outputs": [],
      "stateMutability": "payable",
      "type": "function"
    },
    {
      "inputs": [
        {
          "internalType": "uint256",
          "name": "shares",
          "type": "uint256"
        },
        {
          "internalType": "address",
          "name": "to",
          "type": "address"
        }
      ],
      "name": "withdraw",
      "outputs": [],
      "stateMutability": "nonpayable",
      "type": "function"
    },
    {
      "inputs": [],
      "name": "yearnVault",
      "outputs": [
        {
          "internalType": "address",
          "name": "",
          "type": "address"
        }
      ],
      "stateMutability": "view",
      "type": "function"
    }
  ],
  "bytecode": "0x60a0604052306080523480156012575f80fd5b50608051613d7f6100395f395f81816127580152818161278101526129310152613d7f5ff3fe6080604052600436106101da575f3560e01c8063715018a6116100fd578063ad3cb1cc11610092578063e73faa2d11610062578063e73faa2d146105e5578063f2fde38b146105f9578063f7fde10f14610618578063fdf262b71461062d575f80fd5b8063ad3cb1cc146104fd578063cdf456e114610545578063dd62ed3e14610563578063e56f2fe4146105c6575f80fd5b806395d89b41116100cd57806395d89b41146104995780639db5df46146104ad578063a6f2ae3a146104ca578063a9059cbb146104de575f80fd5b8063715018a6146104045780637b103999146104185780638456cb59146104495780638da5cb5b1461045d575f80fd5b8063374261ab116101735780635c975abb116101435780635c975abb146103475780636560bc801461037d5780636e553f651461039257806370a08231146103b1575f80fd5b8063374261ab146102f85780633f4ba83a1461030c5780634f1ef2861461032057806352d1902d14610333575f80fd5b806323b872dd116101ae57806323b872dd14610295578063295b9300146102b4578063313ce567146102c857806336b77107146102e3575f80fd5b8062f714ce146101de57806306fdde03146101ff578063095ea7b31461022957806318160ddd14610258575b5f80fd5b3480156101e9575f80fd5b506101fd6101f836600461374f565b61064c565b005b34801561020a575f80fd5b5061021361111d565b604051610220919061377d565b60405180910390f35b348015610234575f80fd5b506102486102433660046137b2565b6111f0565b6040519015158152602001610220565b348015610263575f80fd5b507f52c63247e1f47db19d5ce0460030c497f067ca4cebf71ba98eeadabe20bace02545b604051908152602001610220565b3480156102a0575f80fd5b506102486102af3660046137dc565b611209565b3480156102bf575f80fd5b5061028761122e565b3480156102d3575f80fd5b5060405160128152602001610220565b3480156102ee575f80fd5b5061028760055481565b348015610303575f80fd5b50610287611672565b348015610317575f80fd5b506101fd611764565b6101fd61032e3660046138a1565b611776565b34801561033e575f80fd5b50610287611791565b348015610352575f80fd5b507fcd5ed15c6e187e77e9aee88184c21f4f2182ab5827cb3b7e07fbedcd63f033005460ff16610248565b348015610388575f80fd5b5061028760065481565b34801561039d575f80fd5b506101fd6103ac36600461374f565b6117bf565b3480156103bc575f80fd5b506102876103cb366004613901565b6001600160a01b03165f9081527f52c63247e1f47db19d5ce0460030c497f067ca4cebf71ba98eeadabe20bace00602052604090205490565b34801561040f575f80fd5b506101fd611d8f565b348015610423575f80fd5b506003546001600160a01b03165b6040516001600160a01b039091168152602001610220565b348015610454575f80fd5b506101fd611da0565b348015610468575f80fd5b507f9016d09d72d40fdae2fd8ceac6b6234c7706214fd39c1cd1e609a0528c199300546001600160a01b0316610431565b3480156104a4575f80fd5b50610213611db0565b3480156104b8575f80fd5b506001546001600160a01b0316610431565b3480156104d5575f80fd5b506101fd611e01565b3480156104e9575f80fd5b506102486104f83660046137b2565b611e4a565b348015610508575f80fd5b506102136040518060400160405280600581526020017f352e302e3000000000000000000000000000000000000000000000000000000081525081565b348015610550575f80fd5b505f54610431906001600160a01b031681565b34801561056e575f80fd5b5061028761057d36600461391c565b6001600160a01b039182165f9081527f52c63247e1f47db19d5ce0460030c497f067ca4cebf71ba98eeadabe20bace016020908152604080832093909416825291909152205490565b3480156105d1575f80fd5b506101fd6105e0366004613966565b611e57565b3480156105f0575f80fd5b50610287612108565b348015610604575f80fd5b506101fd610613366004613901565b612261565b348015610623575f80fd5b5061028760045481565b348015610638575f80fd5b50600254610431906001600160a01b031681565b6106546122b7565b61065c612338565b5f82116106b05760405162461bcd60e51b815260206004820181905260248201527f536861726573206d7573742062652067726561746572207468616e207a65726f60448201526064015b60405180910390fd5b335f9081527f52c63247e1f47db19d5ce0460030c497f067ca4cebf71ba98eeadabe20bace00602052604090205482111561072d5760405162461bcd60e51b815260206004820152601460248201527f496e73756666696369656e742062616c616e636500000000000000000000000060448201526064016106a7565b600154604080517f313ce56700000000000000000000000000000000000000000000000000000000815290515f926001600160a01b03169163313ce5679160048083019260209291908290030181865afa15801561078d573d5f803e3d5ffd5b505050506040513d601f19601f820116820180604052508101906107b19190613a0f565b90505f60025f9054906101000a90046001600160a01b03166001600160a01b031663313ce5676040518163ffffffff1660e01b8152600401602060405180830381865afa158015610804573d5f803e3d5ffd5b505050506040513d601f19601f820116820180604052508101906108289190613a0f565b6001546040516370a0823160e01b81523060048201529192505f916001600160a01b03909116906370a0823190602401602060405180830381865afa158015610873573d5f803e3d5ffd5b505050506040513d601f19601f820116820180604052508101906108979190613a2f565b6002546040516370a0823160e01b81523060048201529192505f916001600160a01b03909116906370a0823190602401602060405180830381865afa1580156108e2573d5f803e3d5ffd5b505050506040513d601f19601f820116820180604052508101906109069190613a2f565b5f80546040516370a0823160e01b815230600482015292935090916001600160a01b03909116906370a0823190602401602060405180830381865afa158015610951573d5f803e3d5ffd5b505050506040513d601f19601f820116820180604052508101906109759190613a2f565b9050610982856012613a5a565b61098d90600a613b53565b6109979084613b61565b92506109a4846012613a5a565b6109af90600a613b53565b6109b99083613b61565b91505f6109e47f52c63247e1f47db19d5ce0460030c497f067ca4cebf71ba98eeadabe20bace025490565b6109ee858a613b61565b6109f89190613b78565b90505f610a237f52c63247e1f47db19d5ce0460030c497f067ca4cebf71ba98eeadabe20bace025490565b610a2d858b613b61565b610a379190613b78565b9050610a43338a612394565b610a4e876012613a5a565b610a5990600a613b53565b610a639083613b78565b9150610a70866012613a5a565b610a7b90600a613b53565b610a859082613b78565b6001546040517fba08765200000000000000000000000000000000000000000000000000000000815260048101859052306024820181905260448201529192506001600160a01b03169063ba087652906064016020604051808303815f875af1158015610af4573d5f803e3d5ffd5b505050506040513d601f19601f82011682018060405250810190610b189190613a2f565b505f80546040516370a0823160e01b81523060048201526001600160a01b03909116906370a0823190602401602060405180830381865afa158015610b5f573d5f803e3d5ffd5b505050506040513d601f19601f82011682018060405250810190610b839190613a2f565b90505f610b908583613b97565b90505f610b9c826123e1565b5f549091506001600160a01b031663a9059cbb8c610bba8486613b97565b6040517fffffffff0000000000000000000000000000000000000000000000000000000060e085901b1681526001600160a01b03909216600483015260248201526044016020604051808303815f875af1158015610c1a573d5f803e3d5ffd5b505050506040513d601f19601f82011682018060405250810190610c3e9190613baa565b505f610c49826123e1565b90505f60035f9054906101000a90046001600160a01b03166001600160a01b03166304cc73256040518163ffffffff1660e01b8152600401602060405180830381865afa158015610c9c573d5f803e3d5ffd5b505050506040513d601f19601f82011682018060405250810190610cc09190613bc9565b90505f60035f9054906101000a90046001600160a01b03166001600160a01b0316633b19e84a6040518163ffffffff1660e01b8152600401602060405180830381865afa158015610d13573d5f803e3d5ffd5b505050506040513d601f19601f82011682018060405250810190610d379190613bc9565b5f549091506001600160a01b031663a9059cbb83610d558688613b97565b6040517fffffffff0000000000000000000000000000000000000000000000000000000060e085901b1681526001600160a01b03909216600483015260248201526044016020604051808303815f875af1158015610db5573d5f803e3d5ffd5b505050506040513d601f19601f82011682018060405250810190610dd99190613baa565b505f5460405163a9059cbb60e01b81526001600160a01b038381166004830152602482018690529091169063a9059cbb906044016020604051808303815f875af1158015610e29573d5f803e3d5ffd5b505050506040513d601f19601f82011682018060405250810190610e4d9190613baa565b50610e57876123e1565b93508660045f828254610e6a9190613b97565b90915550506002546001600160a01b031663a9059cbb8f610e8b878b613b97565b6040517fffffffff0000000000000000000000000000000000000000000000000000000060e085901b1681526001600160a01b03909216600483015260248201526044016020604051808303815f875af1158015610eeb573d5f803e3d5ffd5b505050506040513d601f19601f82011682018060405250810190610f0f9190613baa565b50610f19846123e1565b5f549093506001600160a01b031663a9059cbb83610f378688613b97565b6040517fffffffff0000000000000000000000000000000000000000000000000000000060e085901b1681526001600160a01b03909216600483015260248201526044016020604051808303815f875af1158015610f97573d5f803e3d5ffd5b505050506040513d601f19601f82011682018060405250810190610fbb9190613baa565b505f5460405163a9059cbb60e01b81526001600160a01b038381166004830152602482018690529091169063a9059cbb906044016020604051808303815f875af115801561100b573d5f803e3d5ffd5b505050506040513d601f19601f8201168201806040525081019061102f9190613baa565b506001546040516370a0823160e01b81523060048201526001600160a01b03909116906307a2d13a9082906370a0823190602401602060405180830381865afa15801561107e573d5f803e3d5ffd5b505050506040513d601f19601f820116820180604052508101906110a29190613a2f565b6040518263ffffffff1660e01b81526004016110c091815260200190565b602060405180830381865afa1580156110db573d5f803e3d5ffd5b505050506040513d601f19601f820116820180604052508101906110ff9190613a2f565b600555506111199b506124ed9a5050505050505050505050565b5050565b7f52c63247e1f47db19d5ce0460030c497f067ca4cebf71ba98eeadabe20bace0380546060917f52c63247e1f47db19d5ce0460030c497f067ca4cebf71ba98eeadabe20bace009161116e90613be4565b80601f016020809104026020016040519081016040528092919081815260200182805461119a90613be4565b80156111e55780601f106111bc576101008083540402835291602001916111e5565b820191905f5260205f20905b8154815290600101906020018083116111c857829003601f168201915b505050505091505090565b5f336111fd818585612513565b60019150505b92915050565b5f33611216858285612525565b6112218585856125d8565b60019150505b9392505050565b5f8060035f9054906101000a90046001600160a01b03166001600160a01b031663bb3ba04c6040518163ffffffff1660e01b8152600401602060405180830381865afa158015611280573d5f803e3d5ffd5b505050506040513d601f19601f820116820180604052508101906112a49190613bc9565b90505f60035f9054906101000a90046001600160a01b03166001600160a01b0316631bf01e9b6040518163ffffffff1660e01b8152600401602060405180830381865afa1580156112f7573d5f803e3d5ffd5b505050506040513d601f19601f8201168201806040525081019061131b9190613bc9565b6001546040516370a0823160e01b81523060048201529192505f9182916001600160a01b0316906370a0823190602401602060405180830381865afa158015611366573d5f803e3d5ffd5b505050506040513d601f19601f8201168201806040525081019061138a9190613a2f565b6001546040517f07a2d13a000000000000000000000000000000000000000000000000000000008152600481018390529192505f916001600160a01b03909116906307a2d13a90602401602060405180830381865afa1580156113ef573d5f803e3d5ffd5b505050506040513d601f19601f820116820180604052508101906114139190613a2f565b6002546040516370a0823160e01b81523060048201529192505f916001600160a01b03909116906370a0823190602401602060405180830381865afa15801561145e573d5f803e3d5ffd5b505050506040513d601f19601f820116820180604052508101906114829190613a2f565b5f549091506001600160a01b03868116911614611520575f5460405163248391ff60e01b81526001600160a01b0391821660048201528682166024820152604481018490529087169063248391ff90606401602060405180830381865afa1580156114ef573d5f803e3d5ffd5b505050506040513d601f19601f820116820180604052508101906115139190613a2f565b61151d9085613c1c565b93505b6002545f5460405163248391ff60e01b81526001600160a01b0392831660048201529082166024820152604481018390529087169063248391ff90606401602060405180830381865afa158015611579573d5f803e3d5ffd5b505050506040513d601f19601f8201168201806040525081019061159d9190613a2f565b6115a79085613c1c565b93506115b38285613c1c565b93505f6115be611672565b5f549091506001600160a01b0387811691161461165c575f5460405163248391ff60e01b81526001600160a01b0391821660048201528782166024820152604481018390529088169063248391ff90606401602060405180830381865afa15801561162b573d5f803e3d5ffd5b505050506040513d601f19601f8201168201806040525081019061164f9190613a2f565b6116599086613c1c565b94505b6116668186613c1c565b98975050505050505050565b6001546040516370a0823160e01b81523060048201525f9182916001600160a01b03909116906307a2d13a9082906370a0823190602401602060405180830381865afa1580156116c4573d5f803e3d5ffd5b505050506040513d601f19601f820116820180604052508101906116e89190613a2f565b6040518263ffffffff1660e01b815260040161170691815260200190565b602060405180830381865afa158015611721573d5f803e3d5ffd5b505050506040513d601f19601f820116820180604052508101906117459190613a2f565b90505f6005548211611757575f611227565b6005546112279083613b97565b61176c612667565b6117746126db565b565b61177e61274d565b6117878261281d565b6111198282612825565b5f61179a612926565b507f360894a13ba1a3210667c828492db98dca3e2076cc3735a920a3ca505d382bbc90565b6117c76122b7565b6117cf612338565b5f821161181e5760405162461bcd60e51b815260206004820181905260248201527f416d6f756e74206d7573742062652067726561746572207468616e207a65726f60448201526064016106a7565b611826612988565b5f546040517f23b872dd000000000000000000000000000000000000000000000000000000008152336004820152306024820152604481018490526001600160a01b03909116906323b872dd906064016020604051808303815f875af1158015611892573d5f803e3d5ffd5b505050506040513d601f19601f820116820180604052508101906118b69190613baa565b50600354604080517f04cc732500000000000000000000000000000000000000000000000000000000815290515f926001600160a01b0316916304cc73259160048083019260209291908290030181865afa158015611917573d5f803e3d5ffd5b505050506040513d601f19601f8201168201806040525081019061193b9190613bc9565b90505f60035f9054906101000a90046001600160a01b03166001600160a01b0316633b19e84a6040518163ffffffff1660e01b8152600401602060405180830381865afa15801561198e573d5f803e3d5ffd5b505050506040513d601f19601f820116820180604052508101906119b29190613bc9565b90505f6119be856123e1565b90505f6119ca826123e1565b5f549091506001600160a01b031663a9059cbb856119e88486613b97565b6040517fffffffff0000000000000000000000000000000000000000000000000000000060e085901b1681526001600160a01b03909216600483015260248201526044016020604051808303815f875af1158015611a48573d5f803e3d5ffd5b505050506040513d601f19601f82011682018060405250810190611a6c9190613baa565b505f5460405163a9059cbb60e01b81526001600160a01b038581166004830152602482018490529091169063a9059cbb906044016020604051808303815f875af1158015611abc573d5f803e3d5ffd5b505050506040513d601f19601f82011682018060405250810190611ae09190613baa565b505f611aec8388613b97565b5f546001546040517f095ea7b30000000000000000000000000000000000000000000000000000000081526001600160a01b03918216600482015260248101849052929350169063095ea7b3906044016020604051808303815f875af1158015611b58573d5f803e3d5ffd5b505050506040513d601f19601f82011682018060405250810190611b7c9190613baa565b506001546040517f6e553f65000000000000000000000000000000000000000000000000000000008152600481018390523060248201526001600160a01b0390911690636e553f65906044016020604051808303815f875af1158015611be4573d5f803e3d5ffd5b505050506040513d601f19601f82011682018060405250810190611c089190613a2f565b505f805f9054906101000a90046001600160a01b03166001600160a01b031663313ce5676040518163ffffffff1660e01b8152600401602060405180830381865afa158015611c59573d5f803e3d5ffd5b505050506040513d601f19601f82011682018060405250810190611c7d9190613a0f565b90505f611c8b826012613a5a565b611c9690600a613b53565b611ca09084613b61565b9050611cac8882612b22565b6001546040516370a0823160e01b81523060048201526001600160a01b03909116906307a2d13a9082906370a0823190602401602060405180830381865afa158015611cfa573d5f803e3d5ffd5b505050506040513d601f19601f82011682018060405250810190611d1e9190613a2f565b6040518263ffffffff1660e01b8152600401611d3c91815260200190565b602060405180830381865afa158015611d57573d5f803e3d5ffd5b505050506040513d601f19601f82011682018060405250810190611d7b9190613a2f565b6005555061111995506124ed945050505050565b611d97612667565b6117745f612b6f565b611da8612667565b611774612bec565b7f52c63247e1f47db19d5ce0460030c497f067ca4cebf71ba98eeadabe20bace0480546060917f52c63247e1f47db19d5ce0460030c497f067ca4cebf71ba98eeadabe20bace009161116e90613be4565b611e096122b7565b611e11612667565b611e19612338565b611e21612c47565b61177460017f9b779b17422d0df92223018b32b4d1fa46e071723d6817e2486d003becc55f0055565b5f336111fd8185856125d8565b7ff0c57e16840df040f15088dc2f81fe391c3923bec73e23a9662efc9c229c6a00805468010000000000000000810460ff16159067ffffffffffffffff165f81158015611ea15750825b90505f8267ffffffffffffffff166001148015611ebd5750303b155b905081158015611ecb575080155b15611f02576040517ff92ee8a900000000000000000000000000000000000000000000000000000000815260040160405180910390fd5b84547fffffffffffffffffffffffffffffffffffffffffffffffff00000000000000001660011785558315611f4d57845468ff00000000000000001916680100000000000000001785555b611f563361310b565b611f608b8b61311c565b5f80546001600160a01b03808c1673ffffffffffffffffffffffffffffffffffffffff199283168117909355600180548c8316908416179055600280548b831690841617905560038054918a16919092161790556120005760405162461bcd60e51b815260206004820152601660248201527f496e76616c69642061737365744120616464726573730000000000000000000060448201526064016106a7565b6001546001600160a01b03166120585760405162461bcd60e51b815260206004820152601b60248201527f496e76616c696420596561726e205661756c742061646472657373000000000060448201526064016106a7565b6002546001600160a01b03166120b05760405162461bcd60e51b815260206004820152601660248201527f496e76616c69642061737365744220616464726573730000000000000000000060448201526064016106a7565b83156120fb57845468ff000000000000000019168555604051600181527fc7f505b2f371ae2175ee4913f4499e1f2633a7b5936321eed1cdaeb6115181d29060200160405180910390a15b5050505050505050505050565b5f8060035f9054906101000a90046001600160a01b03166001600160a01b0316631bf01e9b6040518163ffffffff1660e01b8152600401602060405180830381865afa15801561215a573d5f803e3d5ffd5b505050506040513d601f19601f8201168201806040525081019061217e9190613bc9565b90505f816001600160a01b031663313ce5676040518163ffffffff1660e01b8152600401602060405180830381865afa1580156121bd573d5f803e3d5ffd5b505050506040513d601f19601f820116820180604052508101906121e19190613a0f565b90505f6121ef826012613a5a565b6121fa90600a613b53565b90505f8161220661122e565b6122109190613b61565b90505f61223b7f52c63247e1f47db19d5ce0460030c497f067ca4cebf71ba98eeadabe20bace025490565b61224d83670de0b6b3a7640000613b61565b6122579190613b78565b9695505050505050565b612269612667565b6001600160a01b0381166122ab576040517f1e4fbdf70000000000000000000000000000000000000000000000000000000081525f60048201526024016106a7565b6122b481612b6f565b50565b7f9b779b17422d0df92223018b32b4d1fa46e071723d6817e2486d003becc55f0080547ffffffffffffffffffffffffffffffffffffffffffffffffffffffffffffffffe01612332576040517f3ee5aeb500000000000000000000000000000000000000000000000000000000815260040160405180910390fd5b60029055565b7fcd5ed15c6e187e77e9aee88184c21f4f2182ab5827cb3b7e07fbedcd63f033005460ff1615611774576040517fd93c066500000000000000000000000000000000000000000000000000000000815260040160405180910390fd5b6001600160a01b0382166123d6576040517f96c6fd1e0000000000000000000000000000000000000000000000000000000081525f60048201526024016106a7565b611119825f8361312e565b5f8060035f9054906101000a90046001600160a01b03166001600160a01b03166385462d6f6040518163ffffffff1660e01b8152600401602060405180830381865afa158015612433573d5f803e3d5ffd5b505050506040513d601f19601f820116820180604052508101906124579190613a2f565b90505f60035f9054906101000a90046001600160a01b03166001600160a01b0316634f4608a26040518163ffffffff1660e01b8152600401602060405180830381865afa1580156124aa573d5f803e3d5ffd5b505050506040513d601f19601f820116820180604052508101906124ce9190613a2f565b9050806124db8386613b61565b6124e59190613b78565b949350505050565b60017f9b779b17422d0df92223018b32b4d1fa46e071723d6817e2486d003becc55f0055565b6125208383836001613293565b505050565b6001600160a01b038381165f9081527f52c63247e1f47db19d5ce0460030c497f067ca4cebf71ba98eeadabe20bace0160209081526040808320938616835292905220545f1981146125d257818110156125c4576040517ffb8f41b20000000000000000000000000000000000000000000000000000000081526001600160a01b038416600482015260248101829052604481018390526064016106a7565b6125d284848484035f613293565b50505050565b6001600160a01b03831661261a576040517f96c6fd1e0000000000000000000000000000000000000000000000000000000081525f60048201526024016106a7565b6001600160a01b03821661265c576040517fec442f050000000000000000000000000000000000000000000000000000000081525f60048201526024016106a7565b61252083838361312e565b336126997f9016d09d72d40fdae2fd8ceac6b6234c7706214fd39c1cd1e609a0528c199300546001600160a01b031690565b6001600160a01b031614611774576040517f118cdaa70000000000000000000000000000000000000000000000000000000081523360048201526024016106a7565b6126e36133bc565b7fcd5ed15c6e187e77e9aee88184c21f4f2182ab5827cb3b7e07fbedcd63f03300805460ff191681557f5db9ee0a495bf2e6ff9c91a7834c1ba4fdd244a5e8aa4e537bd38aeae4b073aa335b6040516001600160a01b03909116815260200160405180910390a150565b306001600160a01b037f00000000000000000000000000000000000000000000000000000000000000001614806127e657507f00000000000000000000000000000000000000000000000000000000000000006001600160a01b03166127da7f360894a13ba1a3210667c828492db98dca3e2076cc3735a920a3ca505d382bbc546001600160a01b031690565b6001600160a01b031614155b15611774576040517fe07c8dba00000000000000000000000000000000000000000000000000000000815260040160405180910390fd5b6122b4612667565b816001600160a01b03166352d1902d6040518163ffffffff1660e01b8152600401602060405180830381865afa92505050801561287f575060408051601f3d908101601f1916820190925261287c91810190613a2f565b60015b6128c0576040517f4c9c8ce30000000000000000000000000000000000000000000000000000000081526001600160a01b03831660048201526024016106a7565b7f360894a13ba1a3210667c828492db98dca3e2076cc3735a920a3ca505d382bbc811461291c576040517faa1d49a4000000000000000000000000000000000000000000000000000000008152600481018290526024016106a7565b6125208383613417565b306001600160a01b037f00000000000000000000000000000000000000000000000000000000000000001614611774576040517fe07c8dba00000000000000000000000000000000000000000000000000000000815260040160405180910390fd5b6001546040516370a0823160e01b81523060048201525f916001600160a01b0316906307a2d13a9082906370a0823190602401602060405180830381865afa1580156129d6573d5f803e3d5ffd5b505050506040513d601f19601f820116820180604052508101906129fa9190613a2f565b6040518263ffffffff1660e01b8152600401612a1891815260200190565b602060405180830381865afa158015612a33573d5f803e3d5ffd5b505050506040513d601f19601f82011682018060405250810190612a579190613a2f565b90505f6005548211612a69575f612a76565b600554612a769083613b97565b90505f805f9054906101000a90046001600160a01b03166001600160a01b031663313ce5676040518163ffffffff1660e01b8152600401602060405180830381865afa158015612ac8573d5f803e3d5ffd5b505050506040513d601f19601f82011682018060405250810190612aec9190613a0f565b90505f612afa600283613a5a565b612b0590600a613b53565b612b10906001613b61565b9050808311156125d2576125d2612c47565b6001600160a01b038216612b64576040517fec442f050000000000000000000000000000000000000000000000000000000081525f60048201526024016106a7565b6111195f838361312e565b7f9016d09d72d40fdae2fd8ceac6b6234c7706214fd39c1cd1e609a0528c199300805473ffffffffffffffffffffffffffffffffffffffff1981166001600160a01b03848116918217845560405192169182907f8be0079c531659141344cd1fd0a4f28419497f9722a3daafe3b4186f6b6457e0905f90a3505050565b612bf4612338565b7fcd5ed15c6e187e77e9aee88184c21f4f2182ab5827cb3b7e07fbedcd63f03300805460ff191660011781557f62e78cea01bee320cd4e420270b5ea74000d11b0c9f74754ebdbfc544b05a2583361272f565b6001546040516370a0823160e01b81523060048201525f916001600160a01b0316906307a2d13a9082906370a0823190602401602060405180830381865afa158015612c95573d5f803e3d5ffd5b505050506040513d601f19601f82011682018060405250810190612cb99190613a2f565b6040518263ffffffff1660e01b8152600401612cd791815260200190565b602060405180830381865afa158015612cf2573d5f803e3d5ffd5b505050506040513d601f19601f82011682018060405250810190612d169190613a2f565b90505f6005548211612d28575f612d35565b600554612d359083613b97565b90505f8111612dac5760405162461bcd60e51b815260206004820152602560248201527f42616c756e695631795661756c743a204e6f20696e746572657374206176616960448201527f6c61626c6500000000000000000000000000000000000000000000000000000060648201526084016106a7565b6001546040517fc6e6f592000000000000000000000000000000000000000000000000000000008152600481018390525f916001600160a01b03169063c6e6f59290602401602060405180830381865afa158015612e0c573d5f803e3d5ffd5b505050506040513d601f19601f82011682018060405250810190612e309190613a2f565b6001546040517fba08765200000000000000000000000000000000000000000000000000000000815260048101839052306024820181905260448201529192505f916001600160a01b039091169063ba087652906064016020604051808303815f875af1158015612ea3573d5f803e3d5ffd5b505050506040513d601f19601f82011682018060405250810190612ec79190613a2f565b90505f8111612f185760405162461bcd60e51b815260206004820152601d60248201527f42616c756e695631795661756c743a2052656465656d204661696c656400000060448201526064016106a7565b600354604080517f82755ebb00000000000000000000000000000000000000000000000000000000815290515f926001600160a01b0316916382755ebb9160048083019260209291908290030181865afa158015612f78573d5f803e3d5ffd5b505050506040513d601f19601f82011682018060405250810190612f9c9190613bc9565b5f546040517f095ea7b30000000000000000000000000000000000000000000000000000000081526001600160a01b0380841660048301526024820186905292935091169063095ea7b3906044016020604051808303815f875af1158015613006573d5f803e3d5ffd5b505050506040513d601f19601f8201168201806040525081019061302a9190613baa565b505f546002546040517f2d6bc8ea0000000000000000000000000000000000000000000000000000000081526001600160a01b03928316600482015290821660248201526044810184905230606482015290821690632d6bc8ea906084016020604051808303815f875af11580156130a4573d5f803e3d5ffd5b505050506040513d601f19601f820116820180604052508101906130c89190613a2f565b50604080518381526020810186905233917f1cbc5ab135991bd2b6a4b034a04aa2aa086dac1371cb9b16b8b5e2ed6b036bed910160405180910390a25050505050565b61311361346c565b6122b4816134d3565b61312461346c565b61111982826134db565b7f52c63247e1f47db19d5ce0460030c497f067ca4cebf71ba98eeadabe20bace006001600160a01b03841661317b5781816002015f8282546131709190613c1c565b909155506132049050565b6001600160a01b0384165f90815260208290526040902054828110156131e6576040517fe450d38c0000000000000000000000000000000000000000000000000000000081526001600160a01b038616600482015260248101829052604481018490526064016106a7565b6001600160a01b0385165f9081526020839052604090209083900390555b6001600160a01b038316613222576002810180548390039055613240565b6001600160a01b0383165f9081526020829052604090208054830190555b826001600160a01b0316846001600160a01b03167fddf252ad1be2c89b69c2b068fc378daa952ba7f163c4a11628f55a4df523b3ef8460405161328591815260200190565b60405180910390a350505050565b7f52c63247e1f47db19d5ce0460030c497f067ca4cebf71ba98eeadabe20bace006001600160a01b0385166132f6576040517fe602df050000000000000000000000000000000000000000000000000000000081525f60048201526024016106a7565b6001600160a01b038416613338576040517f94280d620000000000000000000000000000000000000000000000000000000081525f60048201526024016106a7565b6001600160a01b038086165f908152600183016020908152604080832093881683529290522083905581156133b557836001600160a01b0316856001600160a01b03167f8c5be1e5ebec7d5bd14f71427d1e84f3dd0314c0f7b2291e5b200ac8c7c3b925856040516133ac91815260200190565b60405180910390a35b5050505050565b7fcd5ed15c6e187e77e9aee88184c21f4f2182ab5827cb3b7e07fbedcd63f033005460ff16611774576040517f8dfc202b00000000000000000000000000000000000000000000000000000000815260040160405180910390fd5b6134208261353e565b6040516001600160a01b038316907fbc7cd75a20ee27fd9adebab32041f755214dbc6bffa90cc0225b39da2e5c2d3b905f90a28051156134645761252082826135da565b61111961364c565b7ff0c57e16840df040f15088dc2f81fe391c3923bec73e23a9662efc9c229c6a005468010000000000000000900460ff16611774576040517fd7e6bcf800000000000000000000000000000000000000000000000000000000815260040160405180910390fd5b61226961346c565b6134e361346c565b7f52c63247e1f47db19d5ce0460030c497f067ca4cebf71ba98eeadabe20bace007f52c63247e1f47db19d5ce0460030c497f067ca4cebf71ba98eeadabe20bace0361352f8482613c73565b50600481016125d28382613c73565b806001600160a01b03163b5f0361358c576040517f4c9c8ce30000000000000000000000000000000000000000000000000000000081526001600160a01b03821660048201526024016106a7565b7f360894a13ba1a3210667c828492db98dca3e2076cc3735a920a3ca505d382bbc805473ffffffffffffffffffffffffffffffffffffffff19166001600160a01b0392909216919091179055565b60605f80846001600160a01b0316846040516135f69190613d33565b5f60405180830381855af49150503d805f811461362e576040519150601f19603f3d011682016040523d82523d5f602084013e613633565b606091505b5091509150613643858383613684565b95945050505050565b3415611774576040517fb398979f00000000000000000000000000000000000000000000000000000000815260040160405180910390fd5b60608261369957613694826136f9565b611227565b81511580156136b057506001600160a01b0384163b155b156136f2576040517f9996b3150000000000000000000000000000000000000000000000000000000081526001600160a01b03851660048201526024016106a7565b5080611227565b8051156137095780518082602001fd5b6040517f1425ea4200000000000000000000000000000000000000000000000000000000815260040160405180910390fd5b6001600160a01b03811681146122b4575f80fd5b5f8060408385031215613760575f80fd5b8235915060208301356137728161373b565b809150509250929050565b602081525f82518060208401528060208501604085015e5f604082850101526040601f19601f83011684010191505092915050565b5f80604083850312156137c3575f80fd5b82356137ce8161373b565b946020939093013593505050565b5f805f606084860312156137ee575f80fd5b83356137f98161373b565b925060208401356138098161373b565b929592945050506040919091013590565b634e487b7160e01b5f52604160045260245ffd5b5f67ffffffffffffffff808411156138485761384861381a565b604051601f8501601f19908116603f011681019082821181831017156138705761387061381a565b81604052809350858152868686011115613888575f80fd5b858560208301375f602087830101525050509392505050565b5f80604083850312156138b2575f80fd5b82356138bd8161373b565b9150602083013567ffffffffffffffff8111156138d8575f80fd5b8301601f810185136138e8575f80fd5b6138f78582356020840161382e565b9150509250929050565b5f60208284031215613911575f80fd5b81356112278161373b565b5f806040838503121561392d575f80fd5b82356139388161373b565b915060208301356137728161373b565b5f82601f830112613957575f80fd5b6112278383356020850161382e565b5f805f805f8060c0878903121561397b575f80fd5b863567ffffffffffffffff80821115613992575f80fd5b61399e8a838b01613948565b975060208901359150808211156139b3575f80fd5b506139c089828a01613948565b95505060408701356139d18161373b565b935060608701356139e18161373b565b925060808701356139f18161373b565b915060a0870135613a018161373b565b809150509295509295509295565b5f60208284031215613a1f575f80fd5b815160ff81168114611227575f80fd5b5f60208284031215613a3f575f80fd5b5051919050565b634e487b7160e01b5f52601160045260245ffd5b60ff828116828216039081111561120357611203613a46565b600181815b80851115613aad57815f1904821115613a9357613a93613a46565b80851615613aa057918102915b93841c9390800290613a78565b509250929050565b5f82613ac357506001611203565b81613acf57505f611203565b8160018114613ae55760028114613aef57613b0b565b6001915050611203565b60ff841115613b0057613b00613a46565b50506001821b611203565b5060208310610133831016604e8410600b8410161715613b2e575081810a611203565b613b388383613a73565b805f1904821115613b4b57613b4b613a46565b029392505050565b5f61122760ff841683613ab5565b808202811582820484141761120357611203613a46565b5f82613b9257634e487b7160e01b5f52601260045260245ffd5b500490565b8181038181111561120357611203613a46565b5f60208284031215613bba575f80fd5b81518015158114611227575f80fd5b5f60208284031215613bd9575f80fd5b81516112278161373b565b600181811c90821680613bf857607f821691505b602082108103613c1657634e487b7160e01b5f52602260045260245ffd5b50919050565b8082018082111561120357611203613a46565b601f82111561252057805f5260205f20601f840160051c81016020851015613c545750805b601f840160051c820191505b818110156133b5575f8155600101613c60565b815167ffffffffffffffff811115613c8d57613c8d61381a565b613ca181613c9b8454613be4565b84613c2f565b602080601f831160018114613cd4575f8415613cbd5750858301515b5f19600386901b1c1916600185901b178555613d2b565b5f85815260208120601f198616915b82811015613d0257888601518255948401946001909101908401613ce3565b5085821015613d1f57878501515f19600388901b60f8161c191681555b505060018460011b0185555b505050505050565b5f82518060208501845e5f92019182525091905056fea26469706673582212205006b891c99dd9ad884934712cdfe1055220f7f6d32af597a11369d4b4e1cf7464736f6c63430008190033",
  "linkReferences": {},
  "deployedLinkReferences": {}
}