{
  "_format": "hh-sol-artifact-1",
  "contractName": "BaluniV1yVault",
  "sourceName": "contracts/vaults/BaluniV1yVault.sol",
  "abi": [
    {
      "inputs": [
        {
          "internalType": "address",
          "name": "target",
          "type": "address"
        }
      ],
      "name": "AddressEmptyCode",
      "type": "error"
    },
    {
      "inputs": [
        {
          "internalType": "address",
          "name": "implementation",
          "type": "address"
        }
      ],
      "name": "ERC1967InvalidImplementation",
      "type": "error"
    },
    {
      "inputs": [],
      "name": "ERC1967NonPayable",
      "type": "error"
    },
    {
      "inputs": [
        {
          "internalType": "address",
          "name": "spender",
          "type": "address"
        },
        {
          "internalType": "uint256",
          "name": "allowance",
          "type": "uint256"
        },
        {
          "internalType": "uint256",
          "name": "needed",
          "type": "uint256"
        }
      ],
      "name": "ERC20InsufficientAllowance",
      "type": "error"
    },
    {
      "inputs": [
        {
          "internalType": "address",
          "name": "sender",
          "type": "address"
        },
        {
          "internalType": "uint256",
          "name": "balance",
          "type": "uint256"
        },
        {
          "internalType": "uint256",
          "name": "needed",
          "type": "uint256"
        }
      ],
      "name": "ERC20InsufficientBalance",
      "type": "error"
    },
    {
      "inputs": [
        {
          "internalType": "address",
          "name": "approver",
          "type": "address"
        }
      ],
      "name": "ERC20InvalidApprover",
      "type": "error"
    },
    {
      "inputs": [
        {
          "internalType": "address",
          "name": "receiver",
          "type": "address"
        }
      ],
      "name": "ERC20InvalidReceiver",
      "type": "error"
    },
    {
      "inputs": [
        {
          "internalType": "address",
          "name": "sender",
          "type": "address"
        }
      ],
      "name": "ERC20InvalidSender",
      "type": "error"
    },
    {
      "inputs": [
        {
          "internalType": "address",
          "name": "spender",
          "type": "address"
        }
      ],
      "name": "ERC20InvalidSpender",
      "type": "error"
    },
    {
      "inputs": [],
      "name": "EnforcedPause",
      "type": "error"
    },
    {
      "inputs": [],
      "name": "ExpectedPause",
      "type": "error"
    },
    {
      "inputs": [],
      "name": "FailedInnerCall",
      "type": "error"
    },
    {
      "inputs": [],
      "name": "InvalidInitialization",
      "type": "error"
    },
    {
      "inputs": [],
      "name": "NotInitializing",
      "type": "error"
    },
    {
      "inputs": [
        {
          "internalType": "address",
          "name": "owner",
          "type": "address"
        }
      ],
      "name": "OwnableInvalidOwner",
      "type": "error"
    },
    {
      "inputs": [
        {
          "internalType": "address",
          "name": "account",
          "type": "address"
        }
      ],
      "name": "OwnableUnauthorizedAccount",
      "type": "error"
    },
    {
      "inputs": [],
      "name": "ReentrancyGuardReentrantCall",
      "type": "error"
    },
    {
      "inputs": [],
      "name": "UUPSUnauthorizedCallContext",
      "type": "error"
    },
    {
      "inputs": [
        {
          "internalType": "bytes32",
          "name": "slot",
          "type": "bytes32"
        }
      ],
      "name": "UUPSUnsupportedProxiableUUID",
      "type": "error"
    },
    {
      "anonymous": false,
      "inputs": [
        {
          "indexed": true,
          "internalType": "address",
          "name": "owner",
          "type": "address"
        },
        {
          "indexed": true,
          "internalType": "address",
          "name": "spender",
          "type": "address"
        },
        {
          "indexed": false,
          "internalType": "uint256",
          "name": "value",
          "type": "uint256"
        }
      ],
      "name": "Approval",
      "type": "event"
    },
    {
      "anonymous": false,
      "inputs": [
        {
          "indexed": true,
          "internalType": "address",
          "name": "sender",
          "type": "address"
        },
        {
          "indexed": false,
          "internalType": "uint256",
          "name": "amount",
          "type": "uint256"
        },
        {
          "indexed": false,
          "internalType": "uint256",
          "name": "interest",
          "type": "uint256"
        }
      ],
      "name": "Buy",
      "type": "event"
    },
    {
      "anonymous": false,
      "inputs": [
        {
          "indexed": false,
          "internalType": "uint64",
          "name": "version",
          "type": "uint64"
        }
      ],
      "name": "Initialized",
      "type": "event"
    },
    {
      "anonymous": false,
      "inputs": [
        {
          "indexed": true,
          "internalType": "address",
          "name": "previousOwner",
          "type": "address"
        },
        {
          "indexed": true,
          "internalType": "address",
          "name": "newOwner",
          "type": "address"
        }
      ],
      "name": "OwnershipTransferred",
      "type": "event"
    },
    {
      "anonymous": false,
      "inputs": [
        {
          "indexed": false,
          "internalType": "address",
          "name": "account",
          "type": "address"
        }
      ],
      "name": "Paused",
      "type": "event"
    },
    {
      "anonymous": false,
      "inputs": [
        {
          "indexed": true,
          "internalType": "address",
          "name": "from",
          "type": "address"
        },
        {
          "indexed": true,
          "internalType": "address",
          "name": "to",
          "type": "address"
        },
        {
          "indexed": false,
          "internalType": "uint256",
          "name": "value",
          "type": "uint256"
        }
      ],
      "name": "Transfer",
      "type": "event"
    },
    {
      "anonymous": false,
      "inputs": [
        {
          "indexed": false,
          "internalType": "address",
          "name": "account",
          "type": "address"
        }
      ],
      "name": "Unpaused",
      "type": "event"
    },
    {
      "anonymous": false,
      "inputs": [
        {
          "indexed": true,
          "internalType": "address",
          "name": "implementation",
          "type": "address"
        }
      ],
      "name": "Upgraded",
      "type": "event"
    },
    {
      "inputs": [],
      "name": "UPGRADE_INTERFACE_VERSION",
      "outputs": [
        {
          "internalType": "string",
          "name": "",
          "type": "string"
        }
      ],
      "stateMutability": "view",
      "type": "function"
    },
    {
      "inputs": [],
      "name": "accumulatedAssetB",
      "outputs": [
        {
          "internalType": "uint256",
          "name": "",
          "type": "uint256"
        }
      ],
      "stateMutability": "view",
      "type": "function"
    },
    {
      "inputs": [],
      "name": "allTimeInterest",
      "outputs": [
        {
          "internalType": "uint256",
          "name": "",
          "type": "uint256"
        }
      ],
      "stateMutability": "view",
      "type": "function"
    },
    {
      "inputs": [
        {
          "internalType": "address",
          "name": "owner",
          "type": "address"
        },
        {
          "internalType": "address",
          "name": "spender",
          "type": "address"
        }
      ],
      "name": "allowance",
      "outputs": [
        {
          "internalType": "uint256",
          "name": "",
          "type": "uint256"
        }
      ],
      "stateMutability": "view",
      "type": "function"
    },
    {
      "inputs": [
        {
          "internalType": "address",
          "name": "spender",
          "type": "address"
        },
        {
          "internalType": "uint256",
          "name": "value",
          "type": "uint256"
        }
      ],
      "name": "approve",
      "outputs": [
        {
          "internalType": "bool",
          "name": "",
          "type": "bool"
        }
      ],
      "stateMutability": "nonpayable",
      "type": "function"
    },
    {
      "inputs": [
        {
          "internalType": "address",
          "name": "account",
          "type": "address"
        }
      ],
      "name": "balanceOf",
      "outputs": [
        {
          "internalType": "uint256",
          "name": "",
          "type": "uint256"
        }
      ],
      "stateMutability": "view",
      "type": "function"
    },
    {
      "inputs": [],
      "name": "baseAsset",
      "outputs": [
        {
          "internalType": "address",
          "name": "",
          "type": "address"
        }
      ],
      "stateMutability": "view",
      "type": "function"
    },
    {
      "inputs": [],
      "name": "buy",
      "outputs": [],
      "stateMutability": "nonpayable",
      "type": "function"
    },
    {
      "inputs": [],
      "name": "decimals",
      "outputs": [
        {
          "internalType": "uint8",
          "name": "",
          "type": "uint8"
        }
      ],
      "stateMutability": "view",
      "type": "function"
    },
    {
      "inputs": [
        {
          "internalType": "uint256",
          "name": "amount",
          "type": "uint256"
        },
        {
          "internalType": "address",
          "name": "to",
          "type": "address"
        }
      ],
      "name": "deposit",
      "outputs": [],
      "stateMutability": "nonpayable",
      "type": "function"
    },
    {
      "inputs": [
        {
          "internalType": "string",
          "name": "_name",
          "type": "string"
        },
        {
          "internalType": "string",
          "name": "_symbol",
          "type": "string"
        },
        {
          "internalType": "address",
          "name": "_assetA",
          "type": "address"
        },
        {
          "internalType": "address",
          "name": "_yearnVaultAddress",
          "type": "address"
        },
        {
          "internalType": "address",
          "name": "_assetB",
          "type": "address"
        },
        {
          "internalType": "address",
          "name": "_registryAddress",
          "type": "address"
        }
      ],
      "name": "initialize",
      "outputs": [],
      "stateMutability": "nonpayable",
      "type": "function"
    },
    {
      "inputs": [],
      "name": "interestEarned",
      "outputs": [
        {
          "internalType": "uint256",
          "name": "",
          "type": "uint256"
        }
      ],
      "stateMutability": "view",
      "type": "function"
    },
    {
      "inputs": [],
      "name": "lastDeposit",
      "outputs": [
        {
          "internalType": "uint256",
          "name": "",
          "type": "uint256"
        }
      ],
      "stateMutability": "view",
      "type": "function"
    },
    {
      "inputs": [],
      "name": "name",
      "outputs": [
        {
          "internalType": "string",
          "name": "",
          "type": "string"
        }
      ],
      "stateMutability": "view",
      "type": "function"
    },
    {
      "inputs": [],
      "name": "owner",
      "outputs": [
        {
          "internalType": "address",
          "name": "",
          "type": "address"
        }
      ],
      "stateMutability": "view",
      "type": "function"
    },
    {
      "inputs": [],
      "name": "pause",
      "outputs": [],
      "stateMutability": "nonpayable",
      "type": "function"
    },
    {
      "inputs": [],
      "name": "paused",
      "outputs": [
        {
          "internalType": "bool",
          "name": "",
          "type": "bool"
        }
      ],
      "stateMutability": "view",
      "type": "function"
    },
    {
      "inputs": [],
      "name": "proxiableUUID",
      "outputs": [
        {
          "internalType": "bytes32",
          "name": "",
          "type": "bytes32"
        }
      ],
      "stateMutability": "view",
      "type": "function"
    },
    {
      "inputs": [],
      "name": "quoteAsset",
      "outputs": [
        {
          "internalType": "address",
          "name": "",
          "type": "address"
        }
      ],
      "stateMutability": "view",
      "type": "function"
    },
    {
      "inputs": [],
      "name": "registry",
      "outputs": [
        {
          "internalType": "address",
          "name": "",
          "type": "address"
        }
      ],
      "stateMutability": "view",
      "type": "function"
    },
    {
      "inputs": [],
      "name": "renounceOwnership",
      "outputs": [],
      "stateMutability": "nonpayable",
      "type": "function"
    },
    {
      "inputs": [],
      "name": "symbol",
      "outputs": [
        {
          "internalType": "string",
          "name": "",
          "type": "string"
        }
      ],
      "stateMutability": "view",
      "type": "function"
    },
    {
      "inputs": [],
      "name": "totalSupply",
      "outputs": [
        {
          "internalType": "uint256",
          "name": "",
          "type": "uint256"
        }
      ],
      "stateMutability": "view",
      "type": "function"
    },
    {
      "inputs": [],
      "name": "totalValuation",
      "outputs": [
        {
          "internalType": "uint256",
          "name": "",
          "type": "uint256"
        }
      ],
      "stateMutability": "view",
      "type": "function"
    },
    {
      "inputs": [
        {
          "internalType": "address",
          "name": "to",
          "type": "address"
        },
        {
          "internalType": "uint256",
          "name": "value",
          "type": "uint256"
        }
      ],
      "name": "transfer",
      "outputs": [
        {
          "internalType": "bool",
          "name": "",
          "type": "bool"
        }
      ],
      "stateMutability": "nonpayable",
      "type": "function"
    },
    {
      "inputs": [
        {
          "internalType": "address",
          "name": "from",
          "type": "address"
        },
        {
          "internalType": "address",
          "name": "to",
          "type": "address"
        },
        {
          "internalType": "uint256",
          "name": "value",
          "type": "uint256"
        }
      ],
      "name": "transferFrom",
      "outputs": [
        {
          "internalType": "bool",
          "name": "",
          "type": "bool"
        }
      ],
      "stateMutability": "nonpayable",
      "type": "function"
    },
    {
      "inputs": [
        {
          "internalType": "address",
          "name": "newOwner",
          "type": "address"
        }
      ],
      "name": "transferOwnership",
      "outputs": [],
      "stateMutability": "nonpayable",
      "type": "function"
    },
    {
      "inputs": [],
      "name": "unitPrice",
      "outputs": [
        {
          "internalType": "uint256",
          "name": "",
          "type": "uint256"
        }
      ],
      "stateMutability": "view",
      "type": "function"
    },
    {
      "inputs": [],
      "name": "unpause",
      "outputs": [],
      "stateMutability": "nonpayable",
      "type": "function"
    },
    {
      "inputs": [
        {
          "internalType": "address",
          "name": "newImplementation",
          "type": "address"
        },
        {
          "internalType": "bytes",
          "name": "data",
          "type": "bytes"
        }
      ],
      "name": "upgradeToAndCall",
      "outputs": [],
      "stateMutability": "payable",
      "type": "function"
    },
    {
      "inputs": [
        {
          "internalType": "uint256",
          "name": "shares",
          "type": "uint256"
        },
        {
          "internalType": "address",
          "name": "to",
          "type": "address"
        }
      ],
      "name": "withdraw",
      "outputs": [],
      "stateMutability": "nonpayable",
      "type": "function"
    },
    {
      "inputs": [],
      "name": "yearnVault",
      "outputs": [
        {
          "internalType": "address",
          "name": "",
          "type": "address"
        }
      ],
      "stateMutability": "view",
      "type": "function"
    }
  ],
  "bytecode": "0x60a0604052306080523480156012575f80fd5b50608051613dfa6100395f395f81816127700152818161279901526129490152613dfa5ff3fe6080604052600436106101da575f3560e01c8063715018a6116100fd578063ad3cb1cc11610092578063e73faa2d11610062578063e73faa2d146105e5578063f2fde38b146105f9578063f7fde10f14610618578063fdf262b71461062d575f80fd5b8063ad3cb1cc146104fd578063cdf456e114610545578063dd62ed3e14610563578063e56f2fe4146105c6575f80fd5b806395d89b41116100cd57806395d89b41146104995780639db5df46146104ad578063a6f2ae3a146104ca578063a9059cbb146104de575f80fd5b8063715018a6146104045780637b103999146104185780638456cb59146104495780638da5cb5b1461045d575f80fd5b8063374261ab116101735780635c975abb116101435780635c975abb146103475780636560bc801461037d5780636e553f651461039257806370a08231146103b1575f80fd5b8063374261ab146102f85780633f4ba83a1461030c5780634f1ef2861461032057806352d1902d14610333575f80fd5b806323b872dd116101ae57806323b872dd14610295578063295b9300146102b4578063313ce567146102c857806336b77107146102e3575f80fd5b8062f714ce146101de57806306fdde03146101ff578063095ea7b31461022957806318160ddd14610258575b5f80fd5b3480156101e9575f80fd5b506101fd6101f83660046137ca565b61064c565b005b34801561020a575f80fd5b5061021361111d565b60405161022091906137f8565b60405180910390f35b348015610234575f80fd5b5061024861024336600461382d565b6111f0565b6040519015158152602001610220565b348015610263575f80fd5b507f52c63247e1f47db19d5ce0460030c497f067ca4cebf71ba98eeadabe20bace02545b604051908152602001610220565b3480156102a0575f80fd5b506102486102af366004613857565b611209565b3480156102bf575f80fd5b5061028761122e565b3480156102d3575f80fd5b5060405160128152602001610220565b3480156102ee575f80fd5b5061028760055481565b348015610303575f80fd5b50610287611672565b348015610317575f80fd5b506101fd611764565b6101fd61032e36600461391c565b611776565b34801561033e575f80fd5b50610287611791565b348015610352575f80fd5b507fcd5ed15c6e187e77e9aee88184c21f4f2182ab5827cb3b7e07fbedcd63f033005460ff16610248565b348015610388575f80fd5b5061028760065481565b34801561039d575f80fd5b506101fd6103ac3660046137ca565b6117bf565b3480156103bc575f80fd5b506102876103cb36600461397c565b6001600160a01b03165f9081527f52c63247e1f47db19d5ce0460030c497f067ca4cebf71ba98eeadabe20bace00602052604090205490565b34801561040f575f80fd5b506101fd611d8f565b348015610423575f80fd5b506003546001600160a01b03165b6040516001600160a01b039091168152602001610220565b348015610454575f80fd5b506101fd611da0565b348015610468575f80fd5b507f9016d09d72d40fdae2fd8ceac6b6234c7706214fd39c1cd1e609a0528c199300546001600160a01b0316610431565b3480156104a4575f80fd5b50610213611db0565b3480156104b8575f80fd5b506001546001600160a01b0316610431565b3480156104d5575f80fd5b506101fd611e01565b3480156104e9575f80fd5b506102486104f836600461382d565b611e4a565b348015610508575f80fd5b506102136040518060400160405280600581526020017f352e302e3000000000000000000000000000000000000000000000000000000081525081565b348015610550575f80fd5b505f54610431906001600160a01b031681565b34801561056e575f80fd5b5061028761057d366004613997565b6001600160a01b039182165f9081527f52c63247e1f47db19d5ce0460030c497f067ca4cebf71ba98eeadabe20bace016020908152604080832093909416825291909152205490565b3480156105d1575f80fd5b506101fd6105e03660046139e1565b611e57565b3480156105f0575f80fd5b50610287612120565b348015610604575f80fd5b506101fd61061336600461397c565b612279565b348015610623575f80fd5b5061028760045481565b348015610638575f80fd5b50600254610431906001600160a01b031681565b6106546122cf565b61065c612350565b5f82116106b05760405162461bcd60e51b815260206004820181905260248201527f536861726573206d7573742062652067726561746572207468616e207a65726f60448201526064015b60405180910390fd5b335f9081527f52c63247e1f47db19d5ce0460030c497f067ca4cebf71ba98eeadabe20bace00602052604090205482111561072d5760405162461bcd60e51b815260206004820152601460248201527f496e73756666696369656e742062616c616e636500000000000000000000000060448201526064016106a7565b600154604080517f313ce56700000000000000000000000000000000000000000000000000000000815290515f926001600160a01b03169163313ce5679160048083019260209291908290030181865afa15801561078d573d5f803e3d5ffd5b505050506040513d601f19601f820116820180604052508101906107b19190613a8a565b90505f60025f9054906101000a90046001600160a01b03166001600160a01b031663313ce5676040518163ffffffff1660e01b8152600401602060405180830381865afa158015610804573d5f803e3d5ffd5b505050506040513d601f19601f820116820180604052508101906108289190613a8a565b6001546040516370a0823160e01b81523060048201529192505f916001600160a01b03909116906370a0823190602401602060405180830381865afa158015610873573d5f803e3d5ffd5b505050506040513d601f19601f820116820180604052508101906108979190613aaa565b6002546040516370a0823160e01b81523060048201529192505f916001600160a01b03909116906370a0823190602401602060405180830381865afa1580156108e2573d5f803e3d5ffd5b505050506040513d601f19601f820116820180604052508101906109069190613aaa565b5f80546040516370a0823160e01b815230600482015292935090916001600160a01b03909116906370a0823190602401602060405180830381865afa158015610951573d5f803e3d5ffd5b505050506040513d601f19601f820116820180604052508101906109759190613aaa565b9050610982856012613ad5565b61098d90600a613bce565b6109979084613bdc565b92506109a4846012613ad5565b6109af90600a613bce565b6109b99083613bdc565b91505f6109e47f52c63247e1f47db19d5ce0460030c497f067ca4cebf71ba98eeadabe20bace025490565b6109ee858a613bdc565b6109f89190613bf3565b90505f610a237f52c63247e1f47db19d5ce0460030c497f067ca4cebf71ba98eeadabe20bace025490565b610a2d858b613bdc565b610a379190613bf3565b9050610a43338a6123ac565b610a4e876012613ad5565b610a5990600a613bce565b610a639083613bf3565b9150610a70866012613ad5565b610a7b90600a613bce565b610a859082613bf3565b6001546040517fba08765200000000000000000000000000000000000000000000000000000000815260048101859052306024820181905260448201529192506001600160a01b03169063ba087652906064016020604051808303815f875af1158015610af4573d5f803e3d5ffd5b505050506040513d601f19601f82011682018060405250810190610b189190613aaa565b505f80546040516370a0823160e01b81523060048201526001600160a01b03909116906370a0823190602401602060405180830381865afa158015610b5f573d5f803e3d5ffd5b505050506040513d601f19601f82011682018060405250810190610b839190613aaa565b90505f610b908583613c12565b90505f610b9c826123f9565b5f549091506001600160a01b031663a9059cbb8c610bba8486613c12565b6040517fffffffff0000000000000000000000000000000000000000000000000000000060e085901b1681526001600160a01b03909216600483015260248201526044016020604051808303815f875af1158015610c1a573d5f803e3d5ffd5b505050506040513d601f19601f82011682018060405250810190610c3e9190613c25565b505f610c49826123f9565b90505f60035f9054906101000a90046001600160a01b03166001600160a01b03166304cc73256040518163ffffffff1660e01b8152600401602060405180830381865afa158015610c9c573d5f803e3d5ffd5b505050506040513d601f19601f82011682018060405250810190610cc09190613c44565b90505f60035f9054906101000a90046001600160a01b03166001600160a01b0316633b19e84a6040518163ffffffff1660e01b8152600401602060405180830381865afa158015610d13573d5f803e3d5ffd5b505050506040513d601f19601f82011682018060405250810190610d379190613c44565b5f549091506001600160a01b031663a9059cbb83610d558688613c12565b6040517fffffffff0000000000000000000000000000000000000000000000000000000060e085901b1681526001600160a01b03909216600483015260248201526044016020604051808303815f875af1158015610db5573d5f803e3d5ffd5b505050506040513d601f19601f82011682018060405250810190610dd99190613c25565b505f5460405163a9059cbb60e01b81526001600160a01b038381166004830152602482018690529091169063a9059cbb906044016020604051808303815f875af1158015610e29573d5f803e3d5ffd5b505050506040513d601f19601f82011682018060405250810190610e4d9190613c25565b50610e57876123f9565b93508660045f828254610e6a9190613c12565b90915550506002546001600160a01b031663a9059cbb8f610e8b878b613c12565b6040517fffffffff0000000000000000000000000000000000000000000000000000000060e085901b1681526001600160a01b03909216600483015260248201526044016020604051808303815f875af1158015610eeb573d5f803e3d5ffd5b505050506040513d601f19601f82011682018060405250810190610f0f9190613c25565b50610f19846123f9565b5f549093506001600160a01b031663a9059cbb83610f378688613c12565b6040517fffffffff0000000000000000000000000000000000000000000000000000000060e085901b1681526001600160a01b03909216600483015260248201526044016020604051808303815f875af1158015610f97573d5f803e3d5ffd5b505050506040513d601f19601f82011682018060405250810190610fbb9190613c25565b505f5460405163a9059cbb60e01b81526001600160a01b038381166004830152602482018690529091169063a9059cbb906044016020604051808303815f875af115801561100b573d5f803e3d5ffd5b505050506040513d601f19601f8201168201806040525081019061102f9190613c25565b506001546040516370a0823160e01b81523060048201526001600160a01b03909116906307a2d13a9082906370a0823190602401602060405180830381865afa15801561107e573d5f803e3d5ffd5b505050506040513d601f19601f820116820180604052508101906110a29190613aaa565b6040518263ffffffff1660e01b81526004016110c091815260200190565b602060405180830381865afa1580156110db573d5f803e3d5ffd5b505050506040513d601f19601f820116820180604052508101906110ff9190613aaa565b600555506111199b506125059a5050505050505050505050565b5050565b7f52c63247e1f47db19d5ce0460030c497f067ca4cebf71ba98eeadabe20bace0380546060917f52c63247e1f47db19d5ce0460030c497f067ca4cebf71ba98eeadabe20bace009161116e90613c5f565b80601f016020809104026020016040519081016040528092919081815260200182805461119a90613c5f565b80156111e55780601f106111bc576101008083540402835291602001916111e5565b820191905f5260205f20905b8154815290600101906020018083116111c857829003601f168201915b505050505091505090565b5f336111fd81858561252b565b60019150505b92915050565b5f3361121685828561253d565b6112218585856125f0565b60019150505b9392505050565b5f8060035f9054906101000a90046001600160a01b03166001600160a01b031663bb3ba04c6040518163ffffffff1660e01b8152600401602060405180830381865afa158015611280573d5f803e3d5ffd5b505050506040513d601f19601f820116820180604052508101906112a49190613c44565b90505f60035f9054906101000a90046001600160a01b03166001600160a01b0316631bf01e9b6040518163ffffffff1660e01b8152600401602060405180830381865afa1580156112f7573d5f803e3d5ffd5b505050506040513d601f19601f8201168201806040525081019061131b9190613c44565b6001546040516370a0823160e01b81523060048201529192505f9182916001600160a01b0316906370a0823190602401602060405180830381865afa158015611366573d5f803e3d5ffd5b505050506040513d601f19601f8201168201806040525081019061138a9190613aaa565b6001546040517f07a2d13a000000000000000000000000000000000000000000000000000000008152600481018390529192505f916001600160a01b03909116906307a2d13a90602401602060405180830381865afa1580156113ef573d5f803e3d5ffd5b505050506040513d601f19601f820116820180604052508101906114139190613aaa565b6002546040516370a0823160e01b81523060048201529192505f916001600160a01b03909116906370a0823190602401602060405180830381865afa15801561145e573d5f803e3d5ffd5b505050506040513d601f19601f820116820180604052508101906114829190613aaa565b5f549091506001600160a01b03868116911614611520575f5460405163248391ff60e01b81526001600160a01b0391821660048201528682166024820152604481018490529087169063248391ff90606401602060405180830381865afa1580156114ef573d5f803e3d5ffd5b505050506040513d601f19601f820116820180604052508101906115139190613aaa565b61151d9085613c97565b93505b6002545f5460405163248391ff60e01b81526001600160a01b0392831660048201529082166024820152604481018390529087169063248391ff90606401602060405180830381865afa158015611579573d5f803e3d5ffd5b505050506040513d601f19601f8201168201806040525081019061159d9190613aaa565b6115a79085613c97565b93506115b38285613c97565b93505f6115be611672565b5f549091506001600160a01b0387811691161461165c575f5460405163248391ff60e01b81526001600160a01b0391821660048201528782166024820152604481018390529088169063248391ff90606401602060405180830381865afa15801561162b573d5f803e3d5ffd5b505050506040513d601f19601f8201168201806040525081019061164f9190613aaa565b6116599086613c97565b94505b6116668186613c97565b98975050505050505050565b6001546040516370a0823160e01b81523060048201525f9182916001600160a01b03909116906307a2d13a9082906370a0823190602401602060405180830381865afa1580156116c4573d5f803e3d5ffd5b505050506040513d601f19601f820116820180604052508101906116e89190613aaa565b6040518263ffffffff1660e01b815260040161170691815260200190565b602060405180830381865afa158015611721573d5f803e3d5ffd5b505050506040513d601f19601f820116820180604052508101906117459190613aaa565b90505f6005548211611757575f611227565b6005546112279083613c12565b61176c61267f565b6117746126f3565b565b61177e612765565b61178782612835565b611119828261283d565b5f61179a61293e565b507f360894a13ba1a3210667c828492db98dca3e2076cc3735a920a3ca505d382bbc90565b6117c76122cf565b6117cf612350565b5f821161181e5760405162461bcd60e51b815260206004820181905260248201527f416d6f756e74206d7573742062652067726561746572207468616e207a65726f60448201526064016106a7565b6118266129a0565b5f546040517f23b872dd000000000000000000000000000000000000000000000000000000008152336004820152306024820152604481018490526001600160a01b03909116906323b872dd906064016020604051808303815f875af1158015611892573d5f803e3d5ffd5b505050506040513d601f19601f820116820180604052508101906118b69190613c25565b50600354604080517f04cc732500000000000000000000000000000000000000000000000000000000815290515f926001600160a01b0316916304cc73259160048083019260209291908290030181865afa158015611917573d5f803e3d5ffd5b505050506040513d601f19601f8201168201806040525081019061193b9190613c44565b90505f60035f9054906101000a90046001600160a01b03166001600160a01b0316633b19e84a6040518163ffffffff1660e01b8152600401602060405180830381865afa15801561198e573d5f803e3d5ffd5b505050506040513d601f19601f820116820180604052508101906119b29190613c44565b90505f6119be856123f9565b90505f6119ca826123f9565b5f549091506001600160a01b031663a9059cbb856119e88486613c12565b6040517fffffffff0000000000000000000000000000000000000000000000000000000060e085901b1681526001600160a01b03909216600483015260248201526044016020604051808303815f875af1158015611a48573d5f803e3d5ffd5b505050506040513d601f19601f82011682018060405250810190611a6c9190613c25565b505f5460405163a9059cbb60e01b81526001600160a01b038581166004830152602482018490529091169063a9059cbb906044016020604051808303815f875af1158015611abc573d5f803e3d5ffd5b505050506040513d601f19601f82011682018060405250810190611ae09190613c25565b505f611aec8388613c12565b5f546001546040517f095ea7b30000000000000000000000000000000000000000000000000000000081526001600160a01b03918216600482015260248101849052929350169063095ea7b3906044016020604051808303815f875af1158015611b58573d5f803e3d5ffd5b505050506040513d601f19601f82011682018060405250810190611b7c9190613c25565b506001546040517f6e553f65000000000000000000000000000000000000000000000000000000008152600481018390523060248201526001600160a01b0390911690636e553f65906044016020604051808303815f875af1158015611be4573d5f803e3d5ffd5b505050506040513d601f19601f82011682018060405250810190611c089190613aaa565b505f805f9054906101000a90046001600160a01b03166001600160a01b031663313ce5676040518163ffffffff1660e01b8152600401602060405180830381865afa158015611c59573d5f803e3d5ffd5b505050506040513d601f19601f82011682018060405250810190611c7d9190613a8a565b90505f611c8b826012613ad5565b611c9690600a613bce565b611ca09084613bdc565b9050611cac8882612b3a565b6001546040516370a0823160e01b81523060048201526001600160a01b03909116906307a2d13a9082906370a0823190602401602060405180830381865afa158015611cfa573d5f803e3d5ffd5b505050506040513d601f19601f82011682018060405250810190611d1e9190613aaa565b6040518263ffffffff1660e01b8152600401611d3c91815260200190565b602060405180830381865afa158015611d57573d5f803e3d5ffd5b505050506040513d601f19601f82011682018060405250810190611d7b9190613aaa565b600555506111199550612505945050505050565b611d9761267f565b6117745f612b87565b611da861267f565b611774612c04565b7f52c63247e1f47db19d5ce0460030c497f067ca4cebf71ba98eeadabe20bace0480546060917f52c63247e1f47db19d5ce0460030c497f067ca4cebf71ba98eeadabe20bace009161116e90613c5f565b611e096122cf565b611e1161267f565b611e19612350565b611e21612c5f565b61177460017f9b779b17422d0df92223018b32b4d1fa46e071723d6817e2486d003becc55f0055565b5f336111fd8185856125f0565b7ff0c57e16840df040f15088dc2f81fe391c3923bec73e23a9662efc9c229c6a00805468010000000000000000810460ff16159067ffffffffffffffff165f81158015611ea15750825b90505f8267ffffffffffffffff166001148015611ebd5750303b155b905081158015611ecb575080155b15611f02576040517ff92ee8a900000000000000000000000000000000000000000000000000000000815260040160405180910390fd5b84547fffffffffffffffffffffffffffffffffffffffffffffffff00000000000000001660011785558315611f4d57845468ff00000000000000001916680100000000000000001785555b611f5633613123565b611f608b8b613134565b611f68613146565b611f7061314e565b611f7861315e565b5f80546001600160a01b03808c1673ffffffffffffffffffffffffffffffffffffffff199283168117909355600180548c8316908416179055600280548b831690841617905560038054918a16919092161790556120185760405162461bcd60e51b815260206004820152601660248201527f496e76616c69642061737365744120616464726573730000000000000000000060448201526064016106a7565b6001546001600160a01b03166120705760405162461bcd60e51b815260206004820152601b60248201527f496e76616c696420596561726e205661756c742061646472657373000000000060448201526064016106a7565b6002546001600160a01b03166120c85760405162461bcd60e51b815260206004820152601660248201527f496e76616c69642061737365744220616464726573730000000000000000000060448201526064016106a7565b831561211357845468ff000000000000000019168555604051600181527fc7f505b2f371ae2175ee4913f4499e1f2633a7b5936321eed1cdaeb6115181d29060200160405180910390a15b5050505050505050505050565b5f8060035f9054906101000a90046001600160a01b03166001600160a01b0316631bf01e9b6040518163ffffffff1660e01b8152600401602060405180830381865afa158015612172573d5f803e3d5ffd5b505050506040513d601f19601f820116820180604052508101906121969190613c44565b90505f816001600160a01b031663313ce5676040518163ffffffff1660e01b8152600401602060405180830381865afa1580156121d5573d5f803e3d5ffd5b505050506040513d601f19601f820116820180604052508101906121f99190613a8a565b90505f612207826012613ad5565b61221290600a613bce565b90505f8161221e61122e565b6122289190613bdc565b90505f6122537f52c63247e1f47db19d5ce0460030c497f067ca4cebf71ba98eeadabe20bace025490565b61226583670de0b6b3a7640000613bdc565b61226f9190613bf3565b9695505050505050565b61228161267f565b6001600160a01b0381166122c3576040517f1e4fbdf70000000000000000000000000000000000000000000000000000000081525f60048201526024016106a7565b6122cc81612b87565b50565b7f9b779b17422d0df92223018b32b4d1fa46e071723d6817e2486d003becc55f0080547ffffffffffffffffffffffffffffffffffffffffffffffffffffffffffffffffe0161234a576040517f3ee5aeb500000000000000000000000000000000000000000000000000000000815260040160405180910390fd5b60029055565b7fcd5ed15c6e187e77e9aee88184c21f4f2182ab5827cb3b7e07fbedcd63f033005460ff1615611774576040517fd93c066500000000000000000000000000000000000000000000000000000000815260040160405180910390fd5b6001600160a01b0382166123ee576040517f96c6fd1e0000000000000000000000000000000000000000000000000000000081525f60048201526024016106a7565b611119825f8361316e565b5f8060035f9054906101000a90046001600160a01b03166001600160a01b03166385462d6f6040518163ffffffff1660e01b8152600401602060405180830381865afa15801561244b573d5f803e3d5ffd5b505050506040513d601f19601f8201168201806040525081019061246f9190613aaa565b90505f60035f9054906101000a90046001600160a01b03166001600160a01b0316634f4608a26040518163ffffffff1660e01b8152600401602060405180830381865afa1580156124c2573d5f803e3d5ffd5b505050506040513d601f19601f820116820180604052508101906124e69190613aaa565b9050806124f38386613bdc565b6124fd9190613bf3565b949350505050565b60017f9b779b17422d0df92223018b32b4d1fa46e071723d6817e2486d003becc55f0055565b61253883838360016132d3565b505050565b6001600160a01b038381165f9081527f52c63247e1f47db19d5ce0460030c497f067ca4cebf71ba98eeadabe20bace0160209081526040808320938616835292905220545f1981146125ea57818110156125dc576040517ffb8f41b20000000000000000000000000000000000000000000000000000000081526001600160a01b038416600482015260248101829052604481018390526064016106a7565b6125ea84848484035f6132d3565b50505050565b6001600160a01b038316612632576040517f96c6fd1e0000000000000000000000000000000000000000000000000000000081525f60048201526024016106a7565b6001600160a01b038216612674576040517fec442f050000000000000000000000000000000000000000000000000000000081525f60048201526024016106a7565b61253883838361316e565b336126b17f9016d09d72d40fdae2fd8ceac6b6234c7706214fd39c1cd1e609a0528c199300546001600160a01b031690565b6001600160a01b031614611774576040517f118cdaa70000000000000000000000000000000000000000000000000000000081523360048201526024016106a7565b6126fb6133fc565b7fcd5ed15c6e187e77e9aee88184c21f4f2182ab5827cb3b7e07fbedcd63f03300805460ff191681557f5db9ee0a495bf2e6ff9c91a7834c1ba4fdd244a5e8aa4e537bd38aeae4b073aa335b6040516001600160a01b03909116815260200160405180910390a150565b306001600160a01b037f00000000000000000000000000000000000000000000000000000000000000001614806127fe57507f00000000000000000000000000000000000000000000000000000000000000006001600160a01b03166127f27f360894a13ba1a3210667c828492db98dca3e2076cc3735a920a3ca505d382bbc546001600160a01b031690565b6001600160a01b031614155b15611774576040517fe07c8dba00000000000000000000000000000000000000000000000000000000815260040160405180910390fd5b6122cc61267f565b816001600160a01b03166352d1902d6040518163ffffffff1660e01b8152600401602060405180830381865afa925050508015612897575060408051601f3d908101601f1916820190925261289491810190613aaa565b60015b6128d8576040517f4c9c8ce30000000000000000000000000000000000000000000000000000000081526001600160a01b03831660048201526024016106a7565b7f360894a13ba1a3210667c828492db98dca3e2076cc3735a920a3ca505d382bbc8114612934576040517faa1d49a4000000000000000000000000000000000000000000000000000000008152600481018290526024016106a7565b6125388383613457565b306001600160a01b037f00000000000000000000000000000000000000000000000000000000000000001614611774576040517fe07c8dba00000000000000000000000000000000000000000000000000000000815260040160405180910390fd5b6001546040516370a0823160e01b81523060048201525f916001600160a01b0316906307a2d13a9082906370a0823190602401602060405180830381865afa1580156129ee573d5f803e3d5ffd5b505050506040513d601f19601f82011682018060405250810190612a129190613aaa565b6040518263ffffffff1660e01b8152600401612a3091815260200190565b602060405180830381865afa158015612a4b573d5f803e3d5ffd5b505050506040513d601f19601f82011682018060405250810190612a6f9190613aaa565b90505f6005548211612a81575f612a8e565b600554612a8e9083613c12565b90505f805f9054906101000a90046001600160a01b03166001600160a01b031663313ce5676040518163ffffffff1660e01b8152600401602060405180830381865afa158015612ae0573d5f803e3d5ffd5b505050506040513d601f19601f82011682018060405250810190612b049190613a8a565b90505f612b12600283613ad5565b612b1d90600a613bce565b612b28906001613bdc565b9050808311156125ea576125ea612c5f565b6001600160a01b038216612b7c576040517fec442f050000000000000000000000000000000000000000000000000000000081525f60048201526024016106a7565b6111195f838361316e565b7f9016d09d72d40fdae2fd8ceac6b6234c7706214fd39c1cd1e609a0528c199300805473ffffffffffffffffffffffffffffffffffffffff1981166001600160a01b03848116918217845560405192169182907f8be0079c531659141344cd1fd0a4f28419497f9722a3daafe3b4186f6b6457e0905f90a3505050565b612c0c612350565b7fcd5ed15c6e187e77e9aee88184c21f4f2182ab5827cb3b7e07fbedcd63f03300805460ff191660011781557f62e78cea01bee320cd4e420270b5ea74000d11b0c9f74754ebdbfc544b05a25833612747565b6001546040516370a0823160e01b81523060048201525f916001600160a01b0316906307a2d13a9082906370a0823190602401602060405180830381865afa158015612cad573d5f803e3d5ffd5b505050506040513d601f19601f82011682018060405250810190612cd19190613aaa565b6040518263ffffffff1660e01b8152600401612cef91815260200190565b602060405180830381865afa158015612d0a573d5f803e3d5ffd5b505050506040513d601f19601f82011682018060405250810190612d2e9190613aaa565b90505f6005548211612d40575f612d4d565b600554612d4d9083613c12565b90505f8111612dc45760405162461bcd60e51b815260206004820152602560248201527f42616c756e695631795661756c743a204e6f20696e746572657374206176616960448201527f6c61626c6500000000000000000000000000000000000000000000000000000060648201526084016106a7565b6001546040517fc6e6f592000000000000000000000000000000000000000000000000000000008152600481018390525f916001600160a01b03169063c6e6f59290602401602060405180830381865afa158015612e24573d5f803e3d5ffd5b505050506040513d601f19601f82011682018060405250810190612e489190613aaa565b6001546040517fba08765200000000000000000000000000000000000000000000000000000000815260048101839052306024820181905260448201529192505f916001600160a01b039091169063ba087652906064016020604051808303815f875af1158015612ebb573d5f803e3d5ffd5b505050506040513d601f19601f82011682018060405250810190612edf9190613aaa565b90505f8111612f305760405162461bcd60e51b815260206004820152601d60248201527f42616c756e695631795661756c743a2052656465656d204661696c656400000060448201526064016106a7565b600354604080517f82755ebb00000000000000000000000000000000000000000000000000000000815290515f926001600160a01b0316916382755ebb9160048083019260209291908290030181865afa158015612f90573d5f803e3d5ffd5b505050506040513d601f19601f82011682018060405250810190612fb49190613c44565b5f546040517f095ea7b30000000000000000000000000000000000000000000000000000000081526001600160a01b0380841660048301526024820186905292935091169063095ea7b3906044016020604051808303815f875af115801561301e573d5f803e3d5ffd5b505050506040513d601f19601f820116820180604052508101906130429190613c25565b505f546002546040517f2d6bc8ea0000000000000000000000000000000000000000000000000000000081526001600160a01b03928316600482015290821660248201526044810184905230606482015290821690632d6bc8ea906084016020604051808303815f875af11580156130bc573d5f803e3d5ffd5b505050506040513d601f19601f820116820180604052508101906130e09190613aaa565b50604080518381526020810186905233917f1cbc5ab135991bd2b6a4b034a04aa2aa086dac1371cb9b16b8b5e2ed6b036bed910160405180910390a25050505050565b61312b6134ac565b6122cc81613513565b61313c6134ac565b611119828261351b565b6117746134ac565b6131566134ac565b61177461357e565b6131666134ac565b611774613586565b7f52c63247e1f47db19d5ce0460030c497f067ca4cebf71ba98eeadabe20bace006001600160a01b0384166131bb5781816002015f8282546131b09190613c97565b909155506132449050565b6001600160a01b0384165f9081526020829052604090205482811015613226576040517fe450d38c0000000000000000000000000000000000000000000000000000000081526001600160a01b038616600482015260248101829052604481018490526064016106a7565b6001600160a01b0385165f9081526020839052604090209083900390555b6001600160a01b038316613262576002810180548390039055613280565b6001600160a01b0383165f9081526020829052604090208054830190555b826001600160a01b0316846001600160a01b03167fddf252ad1be2c89b69c2b068fc378daa952ba7f163c4a11628f55a4df523b3ef846040516132c591815260200190565b60405180910390a350505050565b7f52c63247e1f47db19d5ce0460030c497f067ca4cebf71ba98eeadabe20bace006001600160a01b038516613336576040517fe602df050000000000000000000000000000000000000000000000000000000081525f60048201526024016106a7565b6001600160a01b038416613378576040517f94280d620000000000000000000000000000000000000000000000000000000081525f60048201526024016106a7565b6001600160a01b038086165f908152600183016020908152604080832093881683529290522083905581156133f557836001600160a01b0316856001600160a01b03167f8c5be1e5ebec7d5bd14f71427d1e84f3dd0314c0f7b2291e5b200ac8c7c3b925856040516133ec91815260200190565b60405180910390a35b5050505050565b7fcd5ed15c6e187e77e9aee88184c21f4f2182ab5827cb3b7e07fbedcd63f033005460ff16611774576040517f8dfc202b00000000000000000000000000000000000000000000000000000000815260040160405180910390fd5b613460826135b9565b6040516001600160a01b038316907fbc7cd75a20ee27fd9adebab32041f755214dbc6bffa90cc0225b39da2e5c2d3b905f90a28051156134a4576125388282613655565b6111196136c7565b7ff0c57e16840df040f15088dc2f81fe391c3923bec73e23a9662efc9c229c6a005468010000000000000000900460ff16611774576040517fd7e6bcf800000000000000000000000000000000000000000000000000000000815260040160405180910390fd5b6122816134ac565b6135236134ac565b7f52c63247e1f47db19d5ce0460030c497f067ca4cebf71ba98eeadabe20bace007f52c63247e1f47db19d5ce0460030c497f067ca4cebf71ba98eeadabe20bace0361356f8482613cee565b50600481016125ea8382613cee565b6125056134ac565b61358e6134ac565b7fcd5ed15c6e187e77e9aee88184c21f4f2182ab5827cb3b7e07fbedcd63f03300805460ff19169055565b806001600160a01b03163b5f03613607576040517f4c9c8ce30000000000000000000000000000000000000000000000000000000081526001600160a01b03821660048201526024016106a7565b7f360894a13ba1a3210667c828492db98dca3e2076cc3735a920a3ca505d382bbc805473ffffffffffffffffffffffffffffffffffffffff19166001600160a01b0392909216919091179055565b60605f80846001600160a01b0316846040516136719190613dae565b5f60405180830381855af49150503d805f81146136a9576040519150601f19603f3d011682016040523d82523d5f602084013e6136ae565b606091505b50915091506136be8583836136ff565b95945050505050565b3415611774576040517fb398979f00000000000000000000000000000000000000000000000000000000815260040160405180910390fd5b6060826137145761370f82613774565b611227565b815115801561372b57506001600160a01b0384163b155b1561376d576040517f9996b3150000000000000000000000000000000000000000000000000000000081526001600160a01b03851660048201526024016106a7565b5080611227565b8051156137845780518082602001fd5b6040517f1425ea4200000000000000000000000000000000000000000000000000000000815260040160405180910390fd5b6001600160a01b03811681146122cc575f80fd5b5f80604083850312156137db575f80fd5b8235915060208301356137ed816137b6565b809150509250929050565b602081525f82518060208401528060208501604085015e5f604082850101526040601f19601f83011684010191505092915050565b5f806040838503121561383e575f80fd5b8235613849816137b6565b946020939093013593505050565b5f805f60608486031215613869575f80fd5b8335613874816137b6565b92506020840135613884816137b6565b929592945050506040919091013590565b634e487b7160e01b5f52604160045260245ffd5b5f67ffffffffffffffff808411156138c3576138c3613895565b604051601f8501601f19908116603f011681019082821181831017156138eb576138eb613895565b81604052809350858152868686011115613903575f80fd5b858560208301375f602087830101525050509392505050565b5f806040838503121561392d575f80fd5b8235613938816137b6565b9150602083013567ffffffffffffffff811115613953575f80fd5b8301601f81018513613963575f80fd5b613972858235602084016138a9565b9150509250929050565b5f6020828403121561398c575f80fd5b8135611227816137b6565b5f80604083850312156139a8575f80fd5b82356139b3816137b6565b915060208301356137ed816137b6565b5f82601f8301126139d2575f80fd5b611227838335602085016138a9565b5f805f805f8060c087890312156139f6575f80fd5b863567ffffffffffffffff80821115613a0d575f80fd5b613a198a838b016139c3565b97506020890135915080821115613a2e575f80fd5b50613a3b89828a016139c3565b9550506040870135613a4c816137b6565b93506060870135613a5c816137b6565b92506080870135613a6c816137b6565b915060a0870135613a7c816137b6565b809150509295509295509295565b5f60208284031215613a9a575f80fd5b815160ff81168114611227575f80fd5b5f60208284031215613aba575f80fd5b5051919050565b634e487b7160e01b5f52601160045260245ffd5b60ff828116828216039081111561120357611203613ac1565b600181815b80851115613b2857815f1904821115613b0e57613b0e613ac1565b80851615613b1b57918102915b93841c9390800290613af3565b509250929050565b5f82613b3e57506001611203565b81613b4a57505f611203565b8160018114613b605760028114613b6a57613b86565b6001915050611203565b60ff841115613b7b57613b7b613ac1565b50506001821b611203565b5060208310610133831016604e8410600b8410161715613ba9575081810a611203565b613bb38383613aee565b805f1904821115613bc657613bc6613ac1565b029392505050565b5f61122760ff841683613b30565b808202811582820484141761120357611203613ac1565b5f82613c0d57634e487b7160e01b5f52601260045260245ffd5b500490565b8181038181111561120357611203613ac1565b5f60208284031215613c35575f80fd5b81518015158114611227575f80fd5b5f60208284031215613c54575f80fd5b8151611227816137b6565b600181811c90821680613c7357607f821691505b602082108103613c9157634e487b7160e01b5f52602260045260245ffd5b50919050565b8082018082111561120357611203613ac1565b601f82111561253857805f5260205f20601f840160051c81016020851015613ccf5750805b601f840160051c820191505b818110156133f5575f8155600101613cdb565b815167ffffffffffffffff811115613d0857613d08613895565b613d1c81613d168454613c5f565b84613caa565b602080601f831160018114613d4f575f8415613d385750858301515b5f19600386901b1c1916600185901b178555613da6565b5f85815260208120601f198616915b82811015613d7d57888601518255948401946001909101908401613d5e565b5085821015613d9a57878501515f19600388901b60f8161c191681555b505060018460011b0185555b505050505050565b5f82518060208501845e5f92019182525091905056fea26469706673582212202c7562fc974e6a67bbd7b68d5f4a93026b4e5cfd425f35f7cca5b17eff0ba2b464736f6c63430008190033",
  "linkReferences": {},
  "deployedLinkReferences": {}
}