{
  "_format": "hh-sol-artifact-1",
  "contractName": "BaluniV1yVault",
  "sourceName": "contracts/vaults/BaluniV1yVault.sol",
  "abi": [
    {
      "inputs": [
        {
          "internalType": "address",
          "name": "target",
          "type": "address"
        }
      ],
      "name": "AddressEmptyCode",
      "type": "error"
    },
    {
      "inputs": [
        {
          "internalType": "address",
          "name": "implementation",
          "type": "address"
        }
      ],
      "name": "ERC1967InvalidImplementation",
      "type": "error"
    },
    {
      "inputs": [],
      "name": "ERC1967NonPayable",
      "type": "error"
    },
    {
      "inputs": [
        {
          "internalType": "address",
          "name": "spender",
          "type": "address"
        },
        {
          "internalType": "uint256",
          "name": "allowance",
          "type": "uint256"
        },
        {
          "internalType": "uint256",
          "name": "needed",
          "type": "uint256"
        }
      ],
      "name": "ERC20InsufficientAllowance",
      "type": "error"
    },
    {
      "inputs": [
        {
          "internalType": "address",
          "name": "sender",
          "type": "address"
        },
        {
          "internalType": "uint256",
          "name": "balance",
          "type": "uint256"
        },
        {
          "internalType": "uint256",
          "name": "needed",
          "type": "uint256"
        }
      ],
      "name": "ERC20InsufficientBalance",
      "type": "error"
    },
    {
      "inputs": [
        {
          "internalType": "address",
          "name": "approver",
          "type": "address"
        }
      ],
      "name": "ERC20InvalidApprover",
      "type": "error"
    },
    {
      "inputs": [
        {
          "internalType": "address",
          "name": "receiver",
          "type": "address"
        }
      ],
      "name": "ERC20InvalidReceiver",
      "type": "error"
    },
    {
      "inputs": [
        {
          "internalType": "address",
          "name": "sender",
          "type": "address"
        }
      ],
      "name": "ERC20InvalidSender",
      "type": "error"
    },
    {
      "inputs": [
        {
          "internalType": "address",
          "name": "spender",
          "type": "address"
        }
      ],
      "name": "ERC20InvalidSpender",
      "type": "error"
    },
    {
      "inputs": [],
      "name": "EnforcedPause",
      "type": "error"
    },
    {
      "inputs": [],
      "name": "ExpectedPause",
      "type": "error"
    },
    {
      "inputs": [],
      "name": "FailedInnerCall",
      "type": "error"
    },
    {
      "inputs": [],
      "name": "InvalidInitialization",
      "type": "error"
    },
    {
      "inputs": [],
      "name": "NotInitializing",
      "type": "error"
    },
    {
      "inputs": [
        {
          "internalType": "address",
          "name": "owner",
          "type": "address"
        }
      ],
      "name": "OwnableInvalidOwner",
      "type": "error"
    },
    {
      "inputs": [
        {
          "internalType": "address",
          "name": "account",
          "type": "address"
        }
      ],
      "name": "OwnableUnauthorizedAccount",
      "type": "error"
    },
    {
      "inputs": [],
      "name": "ReentrancyGuardReentrantCall",
      "type": "error"
    },
    {
      "inputs": [],
      "name": "UUPSUnauthorizedCallContext",
      "type": "error"
    },
    {
      "inputs": [
        {
          "internalType": "bytes32",
          "name": "slot",
          "type": "bytes32"
        }
      ],
      "name": "UUPSUnsupportedProxiableUUID",
      "type": "error"
    },
    {
      "anonymous": false,
      "inputs": [
        {
          "indexed": true,
          "internalType": "address",
          "name": "owner",
          "type": "address"
        },
        {
          "indexed": true,
          "internalType": "address",
          "name": "spender",
          "type": "address"
        },
        {
          "indexed": false,
          "internalType": "uint256",
          "name": "value",
          "type": "uint256"
        }
      ],
      "name": "Approval",
      "type": "event"
    },
    {
      "anonymous": false,
      "inputs": [
        {
          "indexed": false,
          "internalType": "uint64",
          "name": "version",
          "type": "uint64"
        }
      ],
      "name": "Initialized",
      "type": "event"
    },
    {
      "anonymous": false,
      "inputs": [
        {
          "indexed": true,
          "internalType": "address",
          "name": "previousOwner",
          "type": "address"
        },
        {
          "indexed": true,
          "internalType": "address",
          "name": "newOwner",
          "type": "address"
        }
      ],
      "name": "OwnershipTransferred",
      "type": "event"
    },
    {
      "anonymous": false,
      "inputs": [
        {
          "indexed": false,
          "internalType": "address",
          "name": "account",
          "type": "address"
        }
      ],
      "name": "Paused",
      "type": "event"
    },
    {
      "anonymous": false,
      "inputs": [
        {
          "indexed": true,
          "internalType": "address",
          "name": "from",
          "type": "address"
        },
        {
          "indexed": true,
          "internalType": "address",
          "name": "to",
          "type": "address"
        },
        {
          "indexed": false,
          "internalType": "uint256",
          "name": "value",
          "type": "uint256"
        }
      ],
      "name": "Transfer",
      "type": "event"
    },
    {
      "anonymous": false,
      "inputs": [
        {
          "indexed": false,
          "internalType": "address",
          "name": "account",
          "type": "address"
        }
      ],
      "name": "Unpaused",
      "type": "event"
    },
    {
      "anonymous": false,
      "inputs": [
        {
          "indexed": true,
          "internalType": "address",
          "name": "implementation",
          "type": "address"
        }
      ],
      "name": "Upgraded",
      "type": "event"
    },
    {
      "inputs": [],
      "name": "UPGRADE_INTERFACE_VERSION",
      "outputs": [
        {
          "internalType": "string",
          "name": "",
          "type": "string"
        }
      ],
      "stateMutability": "view",
      "type": "function"
    },
    {
      "inputs": [],
      "name": "accumulatedAssetB",
      "outputs": [
        {
          "internalType": "uint256",
          "name": "",
          "type": "uint256"
        }
      ],
      "stateMutability": "view",
      "type": "function"
    },
    {
      "inputs": [
        {
          "internalType": "address",
          "name": "owner",
          "type": "address"
        },
        {
          "internalType": "address",
          "name": "spender",
          "type": "address"
        }
      ],
      "name": "allowance",
      "outputs": [
        {
          "internalType": "uint256",
          "name": "",
          "type": "uint256"
        }
      ],
      "stateMutability": "view",
      "type": "function"
    },
    {
      "inputs": [
        {
          "internalType": "address",
          "name": "spender",
          "type": "address"
        },
        {
          "internalType": "uint256",
          "name": "value",
          "type": "uint256"
        }
      ],
      "name": "approve",
      "outputs": [
        {
          "internalType": "bool",
          "name": "",
          "type": "bool"
        }
      ],
      "stateMutability": "nonpayable",
      "type": "function"
    },
    {
      "inputs": [
        {
          "internalType": "address",
          "name": "account",
          "type": "address"
        }
      ],
      "name": "balanceOf",
      "outputs": [
        {
          "internalType": "uint256",
          "name": "",
          "type": "uint256"
        }
      ],
      "stateMutability": "view",
      "type": "function"
    },
    {
      "inputs": [],
      "name": "baseAsset",
      "outputs": [
        {
          "internalType": "address",
          "name": "",
          "type": "address"
        }
      ],
      "stateMutability": "view",
      "type": "function"
    },
    {
      "inputs": [],
      "name": "buy",
      "outputs": [],
      "stateMutability": "nonpayable",
      "type": "function"
    },
    {
      "inputs": [],
      "name": "decimals",
      "outputs": [
        {
          "internalType": "uint8",
          "name": "",
          "type": "uint8"
        }
      ],
      "stateMutability": "view",
      "type": "function"
    },
    {
      "inputs": [
        {
          "internalType": "uint256",
          "name": "amount",
          "type": "uint256"
        },
        {
          "internalType": "address",
          "name": "to",
          "type": "address"
        }
      ],
      "name": "deposit",
      "outputs": [],
      "stateMutability": "nonpayable",
      "type": "function"
    },
    {
      "inputs": [
        {
          "internalType": "string",
          "name": "_name",
          "type": "string"
        },
        {
          "internalType": "string",
          "name": "_symbol",
          "type": "string"
        },
        {
          "internalType": "address",
          "name": "_assetA",
          "type": "address"
        },
        {
          "internalType": "address",
          "name": "_yearnVaultAddress",
          "type": "address"
        },
        {
          "internalType": "address",
          "name": "_assetB",
          "type": "address"
        },
        {
          "internalType": "address",
          "name": "_registryAddress",
          "type": "address"
        }
      ],
      "name": "initialize",
      "outputs": [],
      "stateMutability": "nonpayable",
      "type": "function"
    },
    {
      "inputs": [],
      "name": "name",
      "outputs": [
        {
          "internalType": "string",
          "name": "",
          "type": "string"
        }
      ],
      "stateMutability": "view",
      "type": "function"
    },
    {
      "inputs": [],
      "name": "owner",
      "outputs": [
        {
          "internalType": "address",
          "name": "",
          "type": "address"
        }
      ],
      "stateMutability": "view",
      "type": "function"
    },
    {
      "inputs": [],
      "name": "pause",
      "outputs": [],
      "stateMutability": "nonpayable",
      "type": "function"
    },
    {
      "inputs": [],
      "name": "paused",
      "outputs": [
        {
          "internalType": "bool",
          "name": "",
          "type": "bool"
        }
      ],
      "stateMutability": "view",
      "type": "function"
    },
    {
      "inputs": [],
      "name": "proxiableUUID",
      "outputs": [
        {
          "internalType": "bytes32",
          "name": "",
          "type": "bytes32"
        }
      ],
      "stateMutability": "view",
      "type": "function"
    },
    {
      "inputs": [],
      "name": "quoteAsset",
      "outputs": [
        {
          "internalType": "address",
          "name": "",
          "type": "address"
        }
      ],
      "stateMutability": "view",
      "type": "function"
    },
    {
      "inputs": [],
      "name": "registry",
      "outputs": [
        {
          "internalType": "address",
          "name": "",
          "type": "address"
        }
      ],
      "stateMutability": "view",
      "type": "function"
    },
    {
      "inputs": [],
      "name": "renounceOwnership",
      "outputs": [],
      "stateMutability": "nonpayable",
      "type": "function"
    },
    {
      "inputs": [],
      "name": "symbol",
      "outputs": [
        {
          "internalType": "string",
          "name": "",
          "type": "string"
        }
      ],
      "stateMutability": "view",
      "type": "function"
    },
    {
      "inputs": [],
      "name": "totalDeposits",
      "outputs": [
        {
          "internalType": "uint256",
          "name": "",
          "type": "uint256"
        }
      ],
      "stateMutability": "view",
      "type": "function"
    },
    {
      "inputs": [],
      "name": "totalSupply",
      "outputs": [
        {
          "internalType": "uint256",
          "name": "",
          "type": "uint256"
        }
      ],
      "stateMutability": "view",
      "type": "function"
    },
    {
      "inputs": [],
      "name": "totalValuation",
      "outputs": [
        {
          "internalType": "uint256",
          "name": "",
          "type": "uint256"
        }
      ],
      "stateMutability": "view",
      "type": "function"
    },
    {
      "inputs": [
        {
          "internalType": "address",
          "name": "to",
          "type": "address"
        },
        {
          "internalType": "uint256",
          "name": "value",
          "type": "uint256"
        }
      ],
      "name": "transfer",
      "outputs": [
        {
          "internalType": "bool",
          "name": "",
          "type": "bool"
        }
      ],
      "stateMutability": "nonpayable",
      "type": "function"
    },
    {
      "inputs": [
        {
          "internalType": "address",
          "name": "from",
          "type": "address"
        },
        {
          "internalType": "address",
          "name": "to",
          "type": "address"
        },
        {
          "internalType": "uint256",
          "name": "value",
          "type": "uint256"
        }
      ],
      "name": "transferFrom",
      "outputs": [
        {
          "internalType": "bool",
          "name": "",
          "type": "bool"
        }
      ],
      "stateMutability": "nonpayable",
      "type": "function"
    },
    {
      "inputs": [
        {
          "internalType": "address",
          "name": "newOwner",
          "type": "address"
        }
      ],
      "name": "transferOwnership",
      "outputs": [],
      "stateMutability": "nonpayable",
      "type": "function"
    },
    {
      "inputs": [],
      "name": "unitPrice",
      "outputs": [
        {
          "internalType": "uint256",
          "name": "",
          "type": "uint256"
        }
      ],
      "stateMutability": "view",
      "type": "function"
    },
    {
      "inputs": [],
      "name": "unpause",
      "outputs": [],
      "stateMutability": "nonpayable",
      "type": "function"
    },
    {
      "inputs": [
        {
          "internalType": "address",
          "name": "newImplementation",
          "type": "address"
        },
        {
          "internalType": "bytes",
          "name": "data",
          "type": "bytes"
        }
      ],
      "name": "upgradeToAndCall",
      "outputs": [],
      "stateMutability": "payable",
      "type": "function"
    },
    {
      "inputs": [
        {
          "internalType": "uint256",
          "name": "shares",
          "type": "uint256"
        },
        {
          "internalType": "address",
          "name": "to",
          "type": "address"
        }
      ],
      "name": "withdraw",
      "outputs": [],
      "stateMutability": "nonpayable",
      "type": "function"
    },
    {
      "inputs": [],
      "name": "yearnVault",
      "outputs": [
        {
          "internalType": "address",
          "name": "",
          "type": "address"
        }
      ],
      "stateMutability": "view",
      "type": "function"
    }
  ],
  "bytecode": "0x60a0604052306080523480156012575f80fd5b50608051612fdb6100395f395f8181611aed01528181611b160152611cc60152612fdb5ff3fe6080604052600436106101c4575f3560e01c80637d882097116100f2578063ad3cb1cc11610092578063e73faa2d11610062578063e73faa2d146105a6578063f2fde38b146105ba578063f7fde10f146105d9578063fdf262b7146105ee575f80fd5b8063ad3cb1cc146104be578063cdf456e114610506578063dd62ed3e14610524578063e56f2fe414610587575f80fd5b806395d89b41116100cd57806395d89b411461045a5780639db5df461461046e578063a6f2ae3a1461048b578063a9059cbb1461049f575f80fd5b80637d882097146103f55780638456cb591461040a5780638da5cb5b1461041e575f80fd5b80633f4ba83a116101685780636e553f65116101385780636e553f651461033e57806370a082311461035d578063715018a6146103b05780637b103999146103c4575f80fd5b80633f4ba83a146102cd5780634f1ef286146102e157806352d1902d146102f45780635c975abb14610308575f80fd5b806318160ddd116101a357806318160ddd1461024257806323b872dd1461027f578063295b93001461029e578063313ce567146102b2575f80fd5b8062f714ce146101c857806306fdde03146101e9578063095ea7b314610213575b5f80fd5b3480156101d3575f80fd5b506101e76101e23660046129ab565b61060d565b005b3480156101f4575f80fd5b506101fd610a0d565b60405161020a91906129d9565b60405180910390f35b34801561021e575f80fd5b5061023261022d366004612a0e565b610ae0565b604051901515815260200161020a565b34801561024d575f80fd5b507f52c63247e1f47db19d5ce0460030c497f067ca4cebf71ba98eeadabe20bace02545b60405190815260200161020a565b34801561028a575f80fd5b50610232610299366004612a38565b610af9565b3480156102a9575f80fd5b50610271610b1e565b3480156102bd575f80fd5b506040516012815260200161020a565b3480156102d8575f80fd5b506101e7610fa7565b6101e76102ef366004612afd565b610fb9565b3480156102ff575f80fd5b50610271610fd4565b348015610313575f80fd5b507fcd5ed15c6e187e77e9aee88184c21f4f2182ab5827cb3b7e07fbedcd63f033005460ff16610232565b348015610349575f80fd5b506101e76103583660046129ab565b611002565b348015610368575f80fd5b50610271610377366004612b5d565b6001600160a01b03165f9081527f52c63247e1f47db19d5ce0460030c497f067ca4cebf71ba98eeadabe20bace00602052604090205490565b3480156103bb575f80fd5b506101e761125d565b3480156103cf575f80fd5b506003546001600160a01b03165b6040516001600160a01b03909116815260200161020a565b348015610400575f80fd5b5061027160045481565b348015610415575f80fd5b506101e761126e565b348015610429575f80fd5b507f9016d09d72d40fdae2fd8ceac6b6234c7706214fd39c1cd1e609a0528c199300546001600160a01b03166103dd565b348015610465575f80fd5b506101fd61127e565b348015610479575f80fd5b506001546001600160a01b03166103dd565b348015610496575f80fd5b506101e76112cf565b3480156104aa575f80fd5b506102326104b9366004612a0e565b611318565b3480156104c9575f80fd5b506101fd6040518060400160405280600581526020017f352e302e3000000000000000000000000000000000000000000000000000000081525081565b348015610511575f80fd5b505f546103dd906001600160a01b031681565b34801561052f575f80fd5b5061027161053e366004612b78565b6001600160a01b039182165f9081527f52c63247e1f47db19d5ce0460030c497f067ca4cebf71ba98eeadabe20bace016020908152604080832093909416825291909152205490565b348015610592575f80fd5b506101e76105a1366004612bc2565b611325565b3480156105b1575f80fd5b506102716115d6565b3480156105c5575f80fd5b506101e76105d4366004612b5d565b611728565b3480156105e4575f80fd5b5061027160055481565b3480156105f9575f80fd5b506002546103dd906001600160a01b031681565b61061561177e565b61061d6117ff565b5f82116106715760405162461bcd60e51b815260206004820181905260248201527f536861726573206d7573742062652067726561746572207468616e207a65726f60448201526064015b60405180910390fd5b335f9081527f52c63247e1f47db19d5ce0460030c497f067ca4cebf71ba98eeadabe20bace0060205260409020548211156106ee5760405162461bcd60e51b815260206004820152601460248201527f496e73756666696369656e742062616c616e63650000000000000000000000006044820152606401610668565b5f6107177f52c63247e1f47db19d5ce0460030c497f067ca4cebf71ba98eeadabe20bace025490565b6004546107249085612c7f565b61072e9190612c96565b90505f6107597f52c63247e1f47db19d5ce0460030c497f067ca4cebf71ba98eeadabe20bace025490565b6005546107669086612c7f565b6107709190612c96565b905061077c338561185b565b8160045f82825461078d9190612cb5565b925050819055508060055f8282546107a59190612cb5565b90915550506001546040517fc6e6f592000000000000000000000000000000000000000000000000000000008152600481018490525f916001600160a01b03169063c6e6f59290602401602060405180830381865afa15801561080a573d5f803e3d5ffd5b505050506040513d601f19601f8201168201806040525081019061082e9190612cc8565b6001546040517fba08765200000000000000000000000000000000000000000000000000000000815260048101839052306024820181905260448201529192506001600160a01b03169063ba087652906064016020604051808303815f875af115801561089d573d5f803e3d5ffd5b505050506040513d601f19601f820116820180604052508101906108c19190612cc8565b505f546040517fa9059cbb0000000000000000000000000000000000000000000000000000000081526001600160a01b038681166004830152602482018690529091169063a9059cbb906044016020604051808303815f875af115801561092a573d5f803e3d5ffd5b505050506040513d601f19601f8201168201806040525081019061094e9190612cdf565b506002546040517fa9059cbb0000000000000000000000000000000000000000000000000000000081526001600160a01b038681166004830152602482018590529091169063a9059cbb906044016020604051808303815f875af11580156109b8573d5f803e3d5ffd5b505050506040513d601f19601f820116820180604052508101906109dc9190612cdf565b50505050610a0960017f9b779b17422d0df92223018b32b4d1fa46e071723d6817e2486d003becc55f0055565b5050565b7f52c63247e1f47db19d5ce0460030c497f067ca4cebf71ba98eeadabe20bace0380546060917f52c63247e1f47db19d5ce0460030c497f067ca4cebf71ba98eeadabe20bace0091610a5e90612cfe565b80601f0160208091040260200160405190810160405280929190818152602001828054610a8a90612cfe565b8015610ad55780601f10610aac57610100808354040283529160200191610ad5565b820191905f5260205f20905b815481529060010190602001808311610ab857829003601f168201915b505050505091505090565b5f33610aed8185856118a8565b60019150505b92915050565b5f33610b068582856118ba565b610b1185858561196d565b60019150505b9392505050565b5f8060035f9054906101000a90046001600160a01b03166001600160a01b031663bb3ba04c6040518163ffffffff1660e01b8152600401602060405180830381865afa158015610b70573d5f803e3d5ffd5b505050506040513d601f19601f82011682018060405250810190610b949190612d36565b90505f60035f9054906101000a90046001600160a01b03166001600160a01b0316631bf01e9b6040518163ffffffff1660e01b8152600401602060405180830381865afa158015610be7573d5f803e3d5ffd5b505050506040513d601f19601f82011682018060405250810190610c0b9190612d36565b5f80546040516370a0823160e01b8152306004820152929350909182916001600160a01b0316906370a0823190602401602060405180830381865afa158015610c56573d5f803e3d5ffd5b505050506040513d601f19601f82011682018060405250810190610c7a9190612cc8565b6001546040516370a0823160e01b81523060048201529192505f916001600160a01b03909116906370a0823190602401602060405180830381865afa158015610cc5573d5f803e3d5ffd5b505050506040513d601f19601f82011682018060405250810190610ce99190612cc8565b6001546040517f07a2d13a000000000000000000000000000000000000000000000000000000008152600481018390529192505f916001600160a01b03909116906307a2d13a90602401602060405180830381865afa158015610d4e573d5f803e3d5ffd5b505050506040513d601f19601f82011682018060405250810190610d729190612cc8565b6002546040516370a0823160e01b81523060048201529192505f916001600160a01b03909116906370a0823190602401602060405180830381865afa158015610dbd573d5f803e3d5ffd5b505050506040513d601f19601f82011682018060405250810190610de19190612cc8565b6002545f5460405163248391ff60e01b81526001600160a01b03928316600482015290821660248201526044810185905291925088169063248391ff90606401602060405180830381865afa158015610e3c573d5f803e3d5ffd5b505050506040513d601f19601f82011682018060405250810190610e609190612cc8565b610e6a9086612d51565b6002545f5460405163248391ff60e01b81526001600160a01b03928316600482015290821660248201526044810184905291965088169063248391ff90606401602060405180830381865afa158015610ec5573d5f803e3d5ffd5b505050506040513d601f19601f82011682018060405250810190610ee99190612cc8565b610ef39086612d51565b5f549095506001600160a01b03878116911614610f91575f5460405163248391ff60e01b81526001600160a01b0391821660048201528782166024820152604481018690529088169063248391ff90606401602060405180830381865afa158015610f60573d5f803e3d5ffd5b505050506040513d601f19601f82011682018060405250810190610f849190612cc8565b610f8e9086612d51565b94505b610f9b8486612d51565b98975050505050505050565b610faf6119fc565b610fb7611a70565b565b610fc1611ae2565b610fca82611bb2565b610a098282611bba565b5f610fdd611cbb565b507f360894a13ba1a3210667c828492db98dca3e2076cc3735a920a3ca505d382bbc90565b61100a61177e565b6110126117ff565b5f82116110615760405162461bcd60e51b815260206004820181905260248201527f416d6f756e74206d7573742062652067726561746572207468616e207a65726f6044820152606401610668565b611069611d1d565b5f546040517f23b872dd000000000000000000000000000000000000000000000000000000008152336004820152306024820152604481018490526001600160a01b03909116906323b872dd906064016020604051808303815f875af11580156110d5573d5f803e3d5ffd5b505050506040513d601f19601f820116820180604052508101906110f99190612cdf565b505f546001546040517f095ea7b30000000000000000000000000000000000000000000000000000000081526001600160a01b0391821660048201526024810185905291169063095ea7b3906044016020604051808303815f875af1158015611164573d5f803e3d5ffd5b505050506040513d601f19601f820116820180604052508101906111889190612cdf565b506001546040517f6e553f65000000000000000000000000000000000000000000000000000000008152600481018490523060248201526001600160a01b0390911690636e553f65906044016020604051808303815f875af11580156111f0573d5f803e3d5ffd5b505050506040513d601f19601f820116820180604052508101906112149190612cc8565b5061121f8183611e1b565b8160045f8282546112309190612d51565b909155505060017f9b779b17422d0df92223018b32b4d1fa46e071723d6817e2486d003becc55f00555050565b6112656119fc565b610fb75f611e68565b6112766119fc565b610fb7611ee5565b7f52c63247e1f47db19d5ce0460030c497f067ca4cebf71ba98eeadabe20bace0480546060917f52c63247e1f47db19d5ce0460030c497f067ca4cebf71ba98eeadabe20bace0091610a5e90612cfe565b6112d761177e565b6112df6119fc565b6112e76117ff565b6112ef611f40565b610fb760017f9b779b17422d0df92223018b32b4d1fa46e071723d6817e2486d003becc55f0055565b5f33610aed81858561196d565b7ff0c57e16840df040f15088dc2f81fe391c3923bec73e23a9662efc9c229c6a00805468010000000000000000810460ff16159067ffffffffffffffff165f8115801561136f5750825b90505f8267ffffffffffffffff16600114801561138b5750303b155b905081158015611399575080155b156113d0576040517ff92ee8a900000000000000000000000000000000000000000000000000000000815260040160405180910390fd5b84547fffffffffffffffffffffffffffffffffffffffffffffffff0000000000000000166001178555831561141b57845468ff00000000000000001916680100000000000000001785555b61142433612367565b61142e8b8b612378565b5f80546001600160a01b03808c1673ffffffffffffffffffffffffffffffffffffffff199283168117909355600180548c8316908416179055600280548b831690841617905560038054918a16919092161790556114ce5760405162461bcd60e51b815260206004820152601660248201527f496e76616c6964206173736574412061646472657373000000000000000000006044820152606401610668565b6001546001600160a01b03166115265760405162461bcd60e51b815260206004820152601b60248201527f496e76616c696420596561726e205661756c74206164647265737300000000006044820152606401610668565b6002546001600160a01b031661157e5760405162461bcd60e51b815260206004820152601660248201527f496e76616c6964206173736574422061646472657373000000000000000000006044820152606401610668565b83156115c957845468ff000000000000000019168555604051600181527fc7f505b2f371ae2175ee4913f4499e1f2633a7b5936321eed1cdaeb6115181d29060200160405180910390a15b5050505050505050505050565b5f8060035f9054906101000a90046001600160a01b03166001600160a01b0316631bf01e9b6040518163ffffffff1660e01b8152600401602060405180830381865afa158015611628573d5f803e3d5ffd5b505050506040513d601f19601f8201168201806040525081019061164c9190612d36565b90505f816001600160a01b031663313ce5676040518163ffffffff1660e01b8152600401602060405180830381865afa15801561168b573d5f803e3d5ffd5b505050506040513d601f19601f820116820180604052508101906116af9190612d64565b90505f6116bd826012612d84565b6116c890600a612e7d565b6116d0610b1e565b6116da9190612c7f565b90506117047f52c63247e1f47db19d5ce0460030c497f067ca4cebf71ba98eeadabe20bace025490565b61170e9082612c96565b61172090670de0b6b3a7640000612c7f565b935050505090565b6117306119fc565b6001600160a01b038116611772576040517f1e4fbdf70000000000000000000000000000000000000000000000000000000081525f6004820152602401610668565b61177b81611e68565b50565b7f9b779b17422d0df92223018b32b4d1fa46e071723d6817e2486d003becc55f0080547ffffffffffffffffffffffffffffffffffffffffffffffffffffffffffffffffe016117f9576040517f3ee5aeb500000000000000000000000000000000000000000000000000000000815260040160405180910390fd5b60029055565b7fcd5ed15c6e187e77e9aee88184c21f4f2182ab5827cb3b7e07fbedcd63f033005460ff1615610fb7576040517fd93c066500000000000000000000000000000000000000000000000000000000815260040160405180910390fd5b6001600160a01b03821661189d576040517f96c6fd1e0000000000000000000000000000000000000000000000000000000081525f6004820152602401610668565b610a09825f8361238a565b6118b583838360016124ef565b505050565b6001600160a01b038381165f9081527f52c63247e1f47db19d5ce0460030c497f067ca4cebf71ba98eeadabe20bace0160209081526040808320938616835292905220545f1981146119675781811015611959576040517ffb8f41b20000000000000000000000000000000000000000000000000000000081526001600160a01b03841660048201526024810182905260448101839052606401610668565b61196784848484035f6124ef565b50505050565b6001600160a01b0383166119af576040517f96c6fd1e0000000000000000000000000000000000000000000000000000000081525f6004820152602401610668565b6001600160a01b0382166119f1576040517fec442f050000000000000000000000000000000000000000000000000000000081525f6004820152602401610668565b6118b583838361238a565b33611a2e7f9016d09d72d40fdae2fd8ceac6b6234c7706214fd39c1cd1e609a0528c199300546001600160a01b031690565b6001600160a01b031614610fb7576040517f118cdaa7000000000000000000000000000000000000000000000000000000008152336004820152602401610668565b611a78612618565b7fcd5ed15c6e187e77e9aee88184c21f4f2182ab5827cb3b7e07fbedcd63f03300805460ff191681557f5db9ee0a495bf2e6ff9c91a7834c1ba4fdd244a5e8aa4e537bd38aeae4b073aa335b6040516001600160a01b03909116815260200160405180910390a150565b306001600160a01b037f0000000000000000000000000000000000000000000000000000000000000000161480611b7b57507f00000000000000000000000000000000000000000000000000000000000000006001600160a01b0316611b6f7f360894a13ba1a3210667c828492db98dca3e2076cc3735a920a3ca505d382bbc546001600160a01b031690565b6001600160a01b031614155b15610fb7576040517fe07c8dba00000000000000000000000000000000000000000000000000000000815260040160405180910390fd5b61177b6119fc565b816001600160a01b03166352d1902d6040518163ffffffff1660e01b8152600401602060405180830381865afa925050508015611c14575060408051601f3d908101601f19168201909252611c1191810190612cc8565b60015b611c55576040517f4c9c8ce30000000000000000000000000000000000000000000000000000000081526001600160a01b0383166004820152602401610668565b7f360894a13ba1a3210667c828492db98dca3e2076cc3735a920a3ca505d382bbc8114611cb1576040517faa1d49a400000000000000000000000000000000000000000000000000000000815260048101829052602401610668565b6118b58383612673565b306001600160a01b037f00000000000000000000000000000000000000000000000000000000000000001614610fb7576040517fe07c8dba00000000000000000000000000000000000000000000000000000000815260040160405180910390fd5b6001546040516370a0823160e01b81523060048201525f916001600160a01b0316906307a2d13a9082906370a0823190602401602060405180830381865afa158015611d6b573d5f803e3d5ffd5b505050506040513d601f19601f82011682018060405250810190611d8f9190612cc8565b6040518263ffffffff1660e01b8152600401611dad91815260200190565b602060405180830381865afa158015611dc8573d5f803e3d5ffd5b505050506040513d601f19601f82011682018060405250810190611dec9190612cc8565b90505f6004548211611dfe575f611e0b565b600454611e0b9083612cb5565b90508015610a0957610a09611f40565b6001600160a01b038216611e5d576040517fec442f050000000000000000000000000000000000000000000000000000000081525f6004820152602401610668565b610a095f838361238a565b7f9016d09d72d40fdae2fd8ceac6b6234c7706214fd39c1cd1e609a0528c199300805473ffffffffffffffffffffffffffffffffffffffff1981166001600160a01b03848116918217845560405192169182907f8be0079c531659141344cd1fd0a4f28419497f9722a3daafe3b4186f6b6457e0905f90a3505050565b611eed6117ff565b7fcd5ed15c6e187e77e9aee88184c21f4f2182ab5827cb3b7e07fbedcd63f03300805460ff191660011781557f62e78cea01bee320cd4e420270b5ea74000d11b0c9f74754ebdbfc544b05a25833611ac4565b6001546040516370a0823160e01b81523060048201525f916001600160a01b0316906307a2d13a9082906370a0823190602401602060405180830381865afa158015611f8e573d5f803e3d5ffd5b505050506040513d601f19601f82011682018060405250810190611fb29190612cc8565b6040518263ffffffff1660e01b8152600401611fd091815260200190565b602060405180830381865afa158015611feb573d5f803e3d5ffd5b505050506040513d601f19601f8201168201806040525081019061200f9190612cc8565b90505f6004548211612021575f61202e565b60045461202e9083612cb5565b90505f811161207f5760405162461bcd60e51b815260206004820152601560248201527f4e6f20696e74657265737420617661696c61626c6500000000000000000000006044820152606401610668565b6001546040517f0a28a477000000000000000000000000000000000000000000000000000000008152600481018390525f916001600160a01b031690630a28a47790602401602060405180830381865afa1580156120df573d5f803e3d5ffd5b505050506040513d601f19601f820116820180604052508101906121039190612cc8565b6001546040517fba08765200000000000000000000000000000000000000000000000000000000815260048101839052306024820181905260448201529192506001600160a01b03169063ba087652906064016020604051808303815f875af1158015612172573d5f803e3d5ffd5b505050506040513d601f19601f820116820180604052508101906121969190612cc8565b50600354604080517f82755ebb00000000000000000000000000000000000000000000000000000000815290515f926001600160a01b0316916382755ebb9160048083019260209291908290030181865afa1580156121f7573d5f803e3d5ffd5b505050506040513d601f19601f8201168201806040525081019061221b9190612d36565b5f546040517f095ea7b30000000000000000000000000000000000000000000000000000000081526001600160a01b0380841660048301526024820187905292935091169063095ea7b3906044016020604051808303815f875af1158015612285573d5f803e3d5ffd5b505050506040513d601f19601f820116820180604052508101906122a99190612cdf565b505f80546002546040517f2d6bc8ea0000000000000000000000000000000000000000000000000000000081526001600160a01b03928316600482015290821660248201526044810186905230606482015290831690632d6bc8ea906084016020604051808303815f875af1158015612324573d5f803e3d5ffd5b505050506040513d601f19601f820116820180604052508101906123489190612cc8565b90508060055f82825461235b9190612d51565b90915550505050505050565b61236f6126c8565b61177b8161272f565b6123806126c8565b610a098282612737565b7f52c63247e1f47db19d5ce0460030c497f067ca4cebf71ba98eeadabe20bace006001600160a01b0384166123d75781816002015f8282546123cc9190612d51565b909155506124609050565b6001600160a01b0384165f9081526020829052604090205482811015612442576040517fe450d38c0000000000000000000000000000000000000000000000000000000081526001600160a01b03861660048201526024810182905260448101849052606401610668565b6001600160a01b0385165f9081526020839052604090209083900390555b6001600160a01b03831661247e57600281018054839003905561249c565b6001600160a01b0383165f9081526020829052604090208054830190555b826001600160a01b0316846001600160a01b03167fddf252ad1be2c89b69c2b068fc378daa952ba7f163c4a11628f55a4df523b3ef846040516124e191815260200190565b60405180910390a350505050565b7f52c63247e1f47db19d5ce0460030c497f067ca4cebf71ba98eeadabe20bace006001600160a01b038516612552576040517fe602df050000000000000000000000000000000000000000000000000000000081525f6004820152602401610668565b6001600160a01b038416612594576040517f94280d620000000000000000000000000000000000000000000000000000000081525f6004820152602401610668565b6001600160a01b038086165f9081526001830160209081526040808320938816835292905220839055811561261157836001600160a01b0316856001600160a01b03167f8c5be1e5ebec7d5bd14f71427d1e84f3dd0314c0f7b2291e5b200ac8c7c3b9258560405161260891815260200190565b60405180910390a35b5050505050565b7fcd5ed15c6e187e77e9aee88184c21f4f2182ab5827cb3b7e07fbedcd63f033005460ff16610fb7576040517f8dfc202b00000000000000000000000000000000000000000000000000000000815260040160405180910390fd5b61267c8261279a565b6040516001600160a01b038316907fbc7cd75a20ee27fd9adebab32041f755214dbc6bffa90cc0225b39da2e5c2d3b905f90a28051156126c0576118b58282612836565b610a096128a8565b7ff0c57e16840df040f15088dc2f81fe391c3923bec73e23a9662efc9c229c6a005468010000000000000000900460ff16610fb7576040517fd7e6bcf800000000000000000000000000000000000000000000000000000000815260040160405180910390fd5b6117306126c8565b61273f6126c8565b7f52c63247e1f47db19d5ce0460030c497f067ca4cebf71ba98eeadabe20bace007f52c63247e1f47db19d5ce0460030c497f067ca4cebf71ba98eeadabe20bace0361278b8482612ecf565b50600481016119678382612ecf565b806001600160a01b03163b5f036127e8576040517f4c9c8ce30000000000000000000000000000000000000000000000000000000081526001600160a01b0382166004820152602401610668565b7f360894a13ba1a3210667c828492db98dca3e2076cc3735a920a3ca505d382bbc805473ffffffffffffffffffffffffffffffffffffffff19166001600160a01b0392909216919091179055565b60605f80846001600160a01b0316846040516128529190612f8f565b5f60405180830381855af49150503d805f811461288a576040519150601f19603f3d011682016040523d82523d5f602084013e61288f565b606091505b509150915061289f8583836128e0565b95945050505050565b3415610fb7576040517fb398979f00000000000000000000000000000000000000000000000000000000815260040160405180910390fd5b6060826128f5576128f082612955565b610b17565b815115801561290c57506001600160a01b0384163b155b1561294e576040517f9996b3150000000000000000000000000000000000000000000000000000000081526001600160a01b0385166004820152602401610668565b5080610b17565b8051156129655780518082602001fd5b6040517f1425ea4200000000000000000000000000000000000000000000000000000000815260040160405180910390fd5b6001600160a01b038116811461177b575f80fd5b5f80604083850312156129bc575f80fd5b8235915060208301356129ce81612997565b809150509250929050565b602081525f82518060208401528060208501604085015e5f604082850101526040601f19601f83011684010191505092915050565b5f8060408385031215612a1f575f80fd5b8235612a2a81612997565b946020939093013593505050565b5f805f60608486031215612a4a575f80fd5b8335612a5581612997565b92506020840135612a6581612997565b929592945050506040919091013590565b634e487b7160e01b5f52604160045260245ffd5b5f67ffffffffffffffff80841115612aa457612aa4612a76565b604051601f8501601f19908116603f01168101908282118183101715612acc57612acc612a76565b81604052809350858152868686011115612ae4575f80fd5b858560208301375f602087830101525050509392505050565b5f8060408385031215612b0e575f80fd5b8235612b1981612997565b9150602083013567ffffffffffffffff811115612b34575f80fd5b8301601f81018513612b44575f80fd5b612b5385823560208401612a8a565b9150509250929050565b5f60208284031215612b6d575f80fd5b8135610b1781612997565b5f8060408385031215612b89575f80fd5b8235612b9481612997565b915060208301356129ce81612997565b5f82601f830112612bb3575f80fd5b610b1783833560208501612a8a565b5f805f805f8060c08789031215612bd7575f80fd5b863567ffffffffffffffff80821115612bee575f80fd5b612bfa8a838b01612ba4565b97506020890135915080821115612c0f575f80fd5b50612c1c89828a01612ba4565b9550506040870135612c2d81612997565b93506060870135612c3d81612997565b92506080870135612c4d81612997565b915060a0870135612c5d81612997565b809150509295509295509295565b634e487b7160e01b5f52601160045260245ffd5b8082028115828204841417610af357610af3612c6b565b5f82612cb057634e487b7160e01b5f52601260045260245ffd5b500490565b81810381811115610af357610af3612c6b565b5f60208284031215612cd8575f80fd5b5051919050565b5f60208284031215612cef575f80fd5b81518015158114610b17575f80fd5b600181811c90821680612d1257607f821691505b602082108103612d3057634e487b7160e01b5f52602260045260245ffd5b50919050565b5f60208284031215612d46575f80fd5b8151610b1781612997565b80820180821115610af357610af3612c6b565b5f60208284031215612d74575f80fd5b815160ff81168114610b17575f80fd5b60ff8281168282160390811115610af357610af3612c6b565b600181815b80851115612dd757815f1904821115612dbd57612dbd612c6b565b80851615612dca57918102915b93841c9390800290612da2565b509250929050565b5f82612ded57506001610af3565b81612df957505f610af3565b8160018114612e0f5760028114612e1957612e35565b6001915050610af3565b60ff841115612e2a57612e2a612c6b565b50506001821b610af3565b5060208310610133831016604e8410600b8410161715612e58575081810a610af3565b612e628383612d9d565b805f1904821115612e7557612e75612c6b565b029392505050565b5f610b1760ff841683612ddf565b601f8211156118b557805f5260205f20601f840160051c81016020851015612eb05750805b601f840160051c820191505b81811015612611575f8155600101612ebc565b815167ffffffffffffffff811115612ee957612ee9612a76565b612efd81612ef78454612cfe565b84612e8b565b602080601f831160018114612f30575f8415612f195750858301515b5f19600386901b1c1916600185901b178555612f87565b5f85815260208120601f198616915b82811015612f5e57888601518255948401946001909101908401612f3f565b5085821015612f7b57878501515f19600388901b60f8161c191681555b505060018460011b0185555b505050505050565b5f82518060208501845e5f92019182525091905056fea26469706673582212200945596902d3783f43526c7cef1d344496a28ec01b08fc452791f16b0f4fa7ee64736f6c63430008190033",
  "linkReferences": {},
  "deployedLinkReferences": {}
}