{
  "_format": "hh-sol-artifact-1",
  "contractName": "BaluniV1yVault",
  "sourceName": "contracts/vaults/BaluniV1yVault.sol",
  "abi": [
    {
      "inputs": [
        {
          "internalType": "address",
          "name": "target",
          "type": "address"
        }
      ],
      "name": "AddressEmptyCode",
      "type": "error"
    },
    {
      "inputs": [
        {
          "internalType": "address",
          "name": "implementation",
          "type": "address"
        }
      ],
      "name": "ERC1967InvalidImplementation",
      "type": "error"
    },
    {
      "inputs": [],
      "name": "ERC1967NonPayable",
      "type": "error"
    },
    {
      "inputs": [
        {
          "internalType": "address",
          "name": "spender",
          "type": "address"
        },
        {
          "internalType": "uint256",
          "name": "allowance",
          "type": "uint256"
        },
        {
          "internalType": "uint256",
          "name": "needed",
          "type": "uint256"
        }
      ],
      "name": "ERC20InsufficientAllowance",
      "type": "error"
    },
    {
      "inputs": [
        {
          "internalType": "address",
          "name": "sender",
          "type": "address"
        },
        {
          "internalType": "uint256",
          "name": "balance",
          "type": "uint256"
        },
        {
          "internalType": "uint256",
          "name": "needed",
          "type": "uint256"
        }
      ],
      "name": "ERC20InsufficientBalance",
      "type": "error"
    },
    {
      "inputs": [
        {
          "internalType": "address",
          "name": "approver",
          "type": "address"
        }
      ],
      "name": "ERC20InvalidApprover",
      "type": "error"
    },
    {
      "inputs": [
        {
          "internalType": "address",
          "name": "receiver",
          "type": "address"
        }
      ],
      "name": "ERC20InvalidReceiver",
      "type": "error"
    },
    {
      "inputs": [
        {
          "internalType": "address",
          "name": "sender",
          "type": "address"
        }
      ],
      "name": "ERC20InvalidSender",
      "type": "error"
    },
    {
      "inputs": [
        {
          "internalType": "address",
          "name": "spender",
          "type": "address"
        }
      ],
      "name": "ERC20InvalidSpender",
      "type": "error"
    },
    {
      "inputs": [],
      "name": "EnforcedPause",
      "type": "error"
    },
    {
      "inputs": [],
      "name": "ExpectedPause",
      "type": "error"
    },
    {
      "inputs": [],
      "name": "FailedInnerCall",
      "type": "error"
    },
    {
      "inputs": [],
      "name": "InvalidInitialization",
      "type": "error"
    },
    {
      "inputs": [],
      "name": "NotInitializing",
      "type": "error"
    },
    {
      "inputs": [
        {
          "internalType": "address",
          "name": "owner",
          "type": "address"
        }
      ],
      "name": "OwnableInvalidOwner",
      "type": "error"
    },
    {
      "inputs": [
        {
          "internalType": "address",
          "name": "account",
          "type": "address"
        }
      ],
      "name": "OwnableUnauthorizedAccount",
      "type": "error"
    },
    {
      "inputs": [],
      "name": "ReentrancyGuardReentrantCall",
      "type": "error"
    },
    {
      "inputs": [],
      "name": "UUPSUnauthorizedCallContext",
      "type": "error"
    },
    {
      "inputs": [
        {
          "internalType": "bytes32",
          "name": "slot",
          "type": "bytes32"
        }
      ],
      "name": "UUPSUnsupportedProxiableUUID",
      "type": "error"
    },
    {
      "anonymous": false,
      "inputs": [
        {
          "indexed": true,
          "internalType": "address",
          "name": "owner",
          "type": "address"
        },
        {
          "indexed": true,
          "internalType": "address",
          "name": "spender",
          "type": "address"
        },
        {
          "indexed": false,
          "internalType": "uint256",
          "name": "value",
          "type": "uint256"
        }
      ],
      "name": "Approval",
      "type": "event"
    },
    {
      "anonymous": false,
      "inputs": [
        {
          "indexed": false,
          "internalType": "uint64",
          "name": "version",
          "type": "uint64"
        }
      ],
      "name": "Initialized",
      "type": "event"
    },
    {
      "anonymous": false,
      "inputs": [
        {
          "indexed": true,
          "internalType": "address",
          "name": "previousOwner",
          "type": "address"
        },
        {
          "indexed": true,
          "internalType": "address",
          "name": "newOwner",
          "type": "address"
        }
      ],
      "name": "OwnershipTransferred",
      "type": "event"
    },
    {
      "anonymous": false,
      "inputs": [
        {
          "indexed": false,
          "internalType": "address",
          "name": "account",
          "type": "address"
        }
      ],
      "name": "Paused",
      "type": "event"
    },
    {
      "anonymous": false,
      "inputs": [
        {
          "indexed": true,
          "internalType": "address",
          "name": "from",
          "type": "address"
        },
        {
          "indexed": true,
          "internalType": "address",
          "name": "to",
          "type": "address"
        },
        {
          "indexed": false,
          "internalType": "uint256",
          "name": "value",
          "type": "uint256"
        }
      ],
      "name": "Transfer",
      "type": "event"
    },
    {
      "anonymous": false,
      "inputs": [
        {
          "indexed": false,
          "internalType": "address",
          "name": "account",
          "type": "address"
        }
      ],
      "name": "Unpaused",
      "type": "event"
    },
    {
      "anonymous": false,
      "inputs": [
        {
          "indexed": true,
          "internalType": "address",
          "name": "implementation",
          "type": "address"
        }
      ],
      "name": "Upgraded",
      "type": "event"
    },
    {
      "inputs": [],
      "name": "UPGRADE_INTERFACE_VERSION",
      "outputs": [
        {
          "internalType": "string",
          "name": "",
          "type": "string"
        }
      ],
      "stateMutability": "view",
      "type": "function"
    },
    {
      "inputs": [],
      "name": "accumulatedAssetB",
      "outputs": [
        {
          "internalType": "uint256",
          "name": "",
          "type": "uint256"
        }
      ],
      "stateMutability": "view",
      "type": "function"
    },
    {
      "inputs": [
        {
          "internalType": "address",
          "name": "owner",
          "type": "address"
        },
        {
          "internalType": "address",
          "name": "spender",
          "type": "address"
        }
      ],
      "name": "allowance",
      "outputs": [
        {
          "internalType": "uint256",
          "name": "",
          "type": "uint256"
        }
      ],
      "stateMutability": "view",
      "type": "function"
    },
    {
      "inputs": [
        {
          "internalType": "address",
          "name": "spender",
          "type": "address"
        },
        {
          "internalType": "uint256",
          "name": "value",
          "type": "uint256"
        }
      ],
      "name": "approve",
      "outputs": [
        {
          "internalType": "bool",
          "name": "",
          "type": "bool"
        }
      ],
      "stateMutability": "nonpayable",
      "type": "function"
    },
    {
      "inputs": [
        {
          "internalType": "address",
          "name": "account",
          "type": "address"
        }
      ],
      "name": "balanceOf",
      "outputs": [
        {
          "internalType": "uint256",
          "name": "",
          "type": "uint256"
        }
      ],
      "stateMutability": "view",
      "type": "function"
    },
    {
      "inputs": [],
      "name": "baseAsset",
      "outputs": [
        {
          "internalType": "address",
          "name": "",
          "type": "address"
        }
      ],
      "stateMutability": "view",
      "type": "function"
    },
    {
      "inputs": [],
      "name": "buy",
      "outputs": [],
      "stateMutability": "nonpayable",
      "type": "function"
    },
    {
      "inputs": [],
      "name": "decimals",
      "outputs": [
        {
          "internalType": "uint8",
          "name": "",
          "type": "uint8"
        }
      ],
      "stateMutability": "view",
      "type": "function"
    },
    {
      "inputs": [
        {
          "internalType": "uint256",
          "name": "amount",
          "type": "uint256"
        },
        {
          "internalType": "address",
          "name": "to",
          "type": "address"
        }
      ],
      "name": "deposit",
      "outputs": [],
      "stateMutability": "nonpayable",
      "type": "function"
    },
    {
      "inputs": [
        {
          "internalType": "string",
          "name": "_name",
          "type": "string"
        },
        {
          "internalType": "string",
          "name": "_symbol",
          "type": "string"
        },
        {
          "internalType": "address",
          "name": "_assetA",
          "type": "address"
        },
        {
          "internalType": "address",
          "name": "_yearnVault",
          "type": "address"
        },
        {
          "internalType": "address",
          "name": "_assetB",
          "type": "address"
        },
        {
          "internalType": "address",
          "name": "_registry",
          "type": "address"
        }
      ],
      "name": "initialize",
      "outputs": [],
      "stateMutability": "nonpayable",
      "type": "function"
    },
    {
      "inputs": [],
      "name": "name",
      "outputs": [
        {
          "internalType": "string",
          "name": "",
          "type": "string"
        }
      ],
      "stateMutability": "view",
      "type": "function"
    },
    {
      "inputs": [],
      "name": "owner",
      "outputs": [
        {
          "internalType": "address",
          "name": "",
          "type": "address"
        }
      ],
      "stateMutability": "view",
      "type": "function"
    },
    {
      "inputs": [],
      "name": "pause",
      "outputs": [],
      "stateMutability": "nonpayable",
      "type": "function"
    },
    {
      "inputs": [],
      "name": "paused",
      "outputs": [
        {
          "internalType": "bool",
          "name": "",
          "type": "bool"
        }
      ],
      "stateMutability": "view",
      "type": "function"
    },
    {
      "inputs": [],
      "name": "proxiableUUID",
      "outputs": [
        {
          "internalType": "bytes32",
          "name": "",
          "type": "bytes32"
        }
      ],
      "stateMutability": "view",
      "type": "function"
    },
    {
      "inputs": [],
      "name": "quoteAsset",
      "outputs": [
        {
          "internalType": "address",
          "name": "",
          "type": "address"
        }
      ],
      "stateMutability": "view",
      "type": "function"
    },
    {
      "inputs": [],
      "name": "registry",
      "outputs": [
        {
          "internalType": "contract IBaluniV1Registry",
          "name": "",
          "type": "address"
        }
      ],
      "stateMutability": "view",
      "type": "function"
    },
    {
      "inputs": [],
      "name": "renounceOwnership",
      "outputs": [],
      "stateMutability": "nonpayable",
      "type": "function"
    },
    {
      "inputs": [],
      "name": "symbol",
      "outputs": [
        {
          "internalType": "string",
          "name": "",
          "type": "string"
        }
      ],
      "stateMutability": "view",
      "type": "function"
    },
    {
      "inputs": [],
      "name": "totalDeposits",
      "outputs": [
        {
          "internalType": "uint256",
          "name": "",
          "type": "uint256"
        }
      ],
      "stateMutability": "view",
      "type": "function"
    },
    {
      "inputs": [],
      "name": "totalSupply",
      "outputs": [
        {
          "internalType": "uint256",
          "name": "",
          "type": "uint256"
        }
      ],
      "stateMutability": "view",
      "type": "function"
    },
    {
      "inputs": [],
      "name": "totalValuation",
      "outputs": [
        {
          "internalType": "uint256",
          "name": "",
          "type": "uint256"
        }
      ],
      "stateMutability": "view",
      "type": "function"
    },
    {
      "inputs": [
        {
          "internalType": "address",
          "name": "to",
          "type": "address"
        },
        {
          "internalType": "uint256",
          "name": "value",
          "type": "uint256"
        }
      ],
      "name": "transfer",
      "outputs": [
        {
          "internalType": "bool",
          "name": "",
          "type": "bool"
        }
      ],
      "stateMutability": "nonpayable",
      "type": "function"
    },
    {
      "inputs": [
        {
          "internalType": "address",
          "name": "from",
          "type": "address"
        },
        {
          "internalType": "address",
          "name": "to",
          "type": "address"
        },
        {
          "internalType": "uint256",
          "name": "value",
          "type": "uint256"
        }
      ],
      "name": "transferFrom",
      "outputs": [
        {
          "internalType": "bool",
          "name": "",
          "type": "bool"
        }
      ],
      "stateMutability": "nonpayable",
      "type": "function"
    },
    {
      "inputs": [
        {
          "internalType": "address",
          "name": "newOwner",
          "type": "address"
        }
      ],
      "name": "transferOwnership",
      "outputs": [],
      "stateMutability": "nonpayable",
      "type": "function"
    },
    {
      "inputs": [],
      "name": "unitPrice",
      "outputs": [
        {
          "internalType": "uint256",
          "name": "",
          "type": "uint256"
        }
      ],
      "stateMutability": "view",
      "type": "function"
    },
    {
      "inputs": [],
      "name": "unpause",
      "outputs": [],
      "stateMutability": "nonpayable",
      "type": "function"
    },
    {
      "inputs": [
        {
          "internalType": "address",
          "name": "newImplementation",
          "type": "address"
        },
        {
          "internalType": "bytes",
          "name": "data",
          "type": "bytes"
        }
      ],
      "name": "upgradeToAndCall",
      "outputs": [],
      "stateMutability": "payable",
      "type": "function"
    },
    {
      "inputs": [
        {
          "internalType": "uint256",
          "name": "shares",
          "type": "uint256"
        },
        {
          "internalType": "address",
          "name": "to",
          "type": "address"
        }
      ],
      "name": "withdraw",
      "outputs": [],
      "stateMutability": "nonpayable",
      "type": "function"
    },
    {
      "inputs": [],
      "name": "yearnVault",
      "outputs": [
        {
          "internalType": "contract IYearnVault",
          "name": "",
          "type": "address"
        }
      ],
      "stateMutability": "view",
      "type": "function"
    }
  ],
  "bytecode": "0x60a0604052306080523480156012575f80fd5b50608051612fda6100395f395f8181611f1301528181611f3c01526120ec0152612fda5ff3fe6080604052600436106101c4575f3560e01c80637d882097116100f2578063ad3cb1cc11610092578063e73faa2d11610062578063e73faa2d146105ae578063f2fde38b146105c2578063f7fde10f146105e1578063fdf262b7146105f6575f80fd5b8063ad3cb1cc146104c6578063cdf456e11461050e578063dd62ed3e1461052c578063e56f2fe41461058f575f80fd5b806395d89b41116100cd57806395d89b41146104605780639db5df4614610474578063a6f2ae3a14610493578063a9059cbb146104a7575f80fd5b80637d882097146103fb5780638456cb59146104105780638da5cb5b14610424575f80fd5b80633f4ba83a116101685780636e553f65116101385780636e553f651461033e57806370a082311461035d578063715018a6146103b05780637b103999146103c4575f80fd5b80633f4ba83a146102cd5780634f1ef286146102e157806352d1902d146102f45780635c975abb14610308575f80fd5b806318160ddd116101a357806318160ddd1461024257806323b872dd1461027f578063295b93001461029e578063313ce567146102b2575f80fd5b8062f714ce146101c857806306fdde03146101e9578063095ea7b314610213575b5f80fd5b3480156101d3575f80fd5b506101e76101e23660046129aa565b610615565b005b3480156101f4575f80fd5b506101fd610a15565b60405161020a91906129d8565b60405180910390f35b34801561021e575f80fd5b5061023261022d366004612a0d565b610ae8565b604051901515815260200161020a565b34801561024d575f80fd5b507f52c63247e1f47db19d5ce0460030c497f067ca4cebf71ba98eeadabe20bace02545b60405190815260200161020a565b34801561028a575f80fd5b50610232610299366004612a37565b610b01565b3480156102a9575f80fd5b50610271610b26565b3480156102bd575f80fd5b506040516012815260200161020a565b3480156102d8575f80fd5b506101e7610faf565b6101e76102ef366004612afc565b610fc1565b3480156102ff575f80fd5b50610271610fdc565b348015610313575f80fd5b507fcd5ed15c6e187e77e9aee88184c21f4f2182ab5827cb3b7e07fbedcd63f033005460ff16610232565b348015610349575f80fd5b506101e76103583660046129aa565b61100a565b348015610368575f80fd5b50610271610377366004612b5c565b6001600160a01b03165f9081527f52c63247e1f47db19d5ce0460030c497f067ca4cebf71ba98eeadabe20bace00602052604090205490565b3480156103bb575f80fd5b506101e7611265565b3480156103cf575f80fd5b506003546103e3906001600160a01b031681565b6040516001600160a01b03909116815260200161020a565b348015610406575f80fd5b5061027160045481565b34801561041b575f80fd5b506101e7611276565b34801561042f575f80fd5b507f9016d09d72d40fdae2fd8ceac6b6234c7706214fd39c1cd1e609a0528c199300546001600160a01b03166103e3565b34801561046b575f80fd5b506101fd611286565b34801561047f575f80fd5b506001546103e3906001600160a01b031681565b34801561049e575f80fd5b506101e76112d7565b3480156104b2575f80fd5b506102326104c1366004612a0d565b61173e565b3480156104d1575f80fd5b506101fd6040518060400160405280600581526020017f352e302e3000000000000000000000000000000000000000000000000000000081525081565b348015610519575f80fd5b505f546103e3906001600160a01b031681565b348015610537575f80fd5b50610271610546366004612b77565b6001600160a01b039182165f9081527f52c63247e1f47db19d5ce0460030c497f067ca4cebf71ba98eeadabe20bace016020908152604080832093909416825291909152205490565b34801561059a575f80fd5b506101e76105a9366004612bc1565b61174b565b3480156105b9575f80fd5b506102716119fc565b3480156105cd575f80fd5b506101e76105dc366004612b5c565b611b4e565b3480156105ec575f80fd5b5061027160055481565b348015610601575f80fd5b506002546103e3906001600160a01b031681565b61061d611ba4565b610625611c25565b5f82116106795760405162461bcd60e51b815260206004820181905260248201527f536861726573206d7573742062652067726561746572207468616e207a65726f60448201526064015b60405180910390fd5b335f9081527f52c63247e1f47db19d5ce0460030c497f067ca4cebf71ba98eeadabe20bace0060205260409020548211156106f65760405162461bcd60e51b815260206004820152601460248201527f496e73756666696369656e742062616c616e63650000000000000000000000006044820152606401610670565b5f61071f7f52c63247e1f47db19d5ce0460030c497f067ca4cebf71ba98eeadabe20bace025490565b60045461072c9085612c7e565b6107369190612c95565b90505f6107617f52c63247e1f47db19d5ce0460030c497f067ca4cebf71ba98eeadabe20bace025490565b60055461076e9086612c7e565b6107789190612c95565b90506107843385611c81565b8160045f8282546107959190612cb4565b925050819055508060055f8282546107ad9190612cb4565b90915550506001546040517fc6e6f592000000000000000000000000000000000000000000000000000000008152600481018490525f916001600160a01b03169063c6e6f59290602401602060405180830381865afa158015610812573d5f803e3d5ffd5b505050506040513d601f19601f820116820180604052508101906108369190612cc7565b6001546040517fba08765200000000000000000000000000000000000000000000000000000000815260048101839052306024820181905260448201529192506001600160a01b03169063ba087652906064016020604051808303815f875af11580156108a5573d5f803e3d5ffd5b505050506040513d601f19601f820116820180604052508101906108c99190612cc7565b505f546040517fa9059cbb0000000000000000000000000000000000000000000000000000000081526001600160a01b038681166004830152602482018690529091169063a9059cbb906044016020604051808303815f875af1158015610932573d5f803e3d5ffd5b505050506040513d601f19601f820116820180604052508101906109569190612cde565b506002546040517fa9059cbb0000000000000000000000000000000000000000000000000000000081526001600160a01b038681166004830152602482018590529091169063a9059cbb906044016020604051808303815f875af11580156109c0573d5f803e3d5ffd5b505050506040513d601f19601f820116820180604052508101906109e49190612cde565b50505050610a1160017f9b779b17422d0df92223018b32b4d1fa46e071723d6817e2486d003becc55f0055565b5050565b7f52c63247e1f47db19d5ce0460030c497f067ca4cebf71ba98eeadabe20bace0380546060917f52c63247e1f47db19d5ce0460030c497f067ca4cebf71ba98eeadabe20bace0091610a6690612cfd565b80601f0160208091040260200160405190810160405280929190818152602001828054610a9290612cfd565b8015610add5780601f10610ab457610100808354040283529160200191610add565b820191905f5260205f20905b815481529060010190602001808311610ac057829003601f168201915b505050505091505090565b5f33610af5818585611cce565b60019150505b92915050565b5f33610b0e858285611ce0565b610b19858585611d93565b60019150505b9392505050565b5f8060035f9054906101000a90046001600160a01b03166001600160a01b031663bb3ba04c6040518163ffffffff1660e01b8152600401602060405180830381865afa158015610b78573d5f803e3d5ffd5b505050506040513d601f19601f82011682018060405250810190610b9c9190612d35565b90505f60035f9054906101000a90046001600160a01b03166001600160a01b0316631bf01e9b6040518163ffffffff1660e01b8152600401602060405180830381865afa158015610bef573d5f803e3d5ffd5b505050506040513d601f19601f82011682018060405250810190610c139190612d35565b5f80546040516370a0823160e01b8152306004820152929350909182916001600160a01b0316906370a0823190602401602060405180830381865afa158015610c5e573d5f803e3d5ffd5b505050506040513d601f19601f82011682018060405250810190610c829190612cc7565b6001546040516370a0823160e01b81523060048201529192505f916001600160a01b03909116906370a0823190602401602060405180830381865afa158015610ccd573d5f803e3d5ffd5b505050506040513d601f19601f82011682018060405250810190610cf19190612cc7565b6001546040517f07a2d13a000000000000000000000000000000000000000000000000000000008152600481018390529192505f916001600160a01b03909116906307a2d13a90602401602060405180830381865afa158015610d56573d5f803e3d5ffd5b505050506040513d601f19601f82011682018060405250810190610d7a9190612cc7565b6002546040516370a0823160e01b81523060048201529192505f916001600160a01b03909116906370a0823190602401602060405180830381865afa158015610dc5573d5f803e3d5ffd5b505050506040513d601f19601f82011682018060405250810190610de99190612cc7565b6002545f5460405163248391ff60e01b81526001600160a01b03928316600482015290821660248201526044810185905291925088169063248391ff90606401602060405180830381865afa158015610e44573d5f803e3d5ffd5b505050506040513d601f19601f82011682018060405250810190610e689190612cc7565b610e729086612d50565b6002545f5460405163248391ff60e01b81526001600160a01b03928316600482015290821660248201526044810184905291965088169063248391ff90606401602060405180830381865afa158015610ecd573d5f803e3d5ffd5b505050506040513d601f19601f82011682018060405250810190610ef19190612cc7565b610efb9086612d50565b5f549095506001600160a01b03878116911614610f99575f5460405163248391ff60e01b81526001600160a01b0391821660048201528782166024820152604481018690529088169063248391ff90606401602060405180830381865afa158015610f68573d5f803e3d5ffd5b505050506040513d601f19601f82011682018060405250810190610f8c9190612cc7565b610f969086612d50565b94505b610fa38486612d50565b98975050505050505050565b610fb7611e22565b610fbf611e96565b565b610fc9611f08565b610fd282611fd8565b610a118282611fe0565b5f610fe56120e1565b507f360894a13ba1a3210667c828492db98dca3e2076cc3735a920a3ca505d382bbc90565b611012611ba4565b61101a611c25565b5f82116110695760405162461bcd60e51b815260206004820181905260248201527f416d6f756e74206d7573742062652067726561746572207468616e207a65726f6044820152606401610670565b611071612143565b5f546040517f23b872dd000000000000000000000000000000000000000000000000000000008152336004820152306024820152604481018490526001600160a01b03909116906323b872dd906064016020604051808303815f875af11580156110dd573d5f803e3d5ffd5b505050506040513d601f19601f820116820180604052508101906111019190612cde565b505f546001546040517f095ea7b30000000000000000000000000000000000000000000000000000000081526001600160a01b0391821660048201526024810185905291169063095ea7b3906044016020604051808303815f875af115801561116c573d5f803e3d5ffd5b505050506040513d601f19601f820116820180604052508101906111909190612cde565b506001546040517f6e553f65000000000000000000000000000000000000000000000000000000008152600481018490523060248201526001600160a01b0390911690636e553f65906044016020604051808303815f875af11580156111f8573d5f803e3d5ffd5b505050506040513d601f19601f8201168201806040525081019061121c9190612cc7565b506112278183612241565b8160045f8282546112389190612d50565b909155505060017f9b779b17422d0df92223018b32b4d1fa46e071723d6817e2486d003becc55f00555050565b61126d611e22565b610fbf5f61228e565b61127e611e22565b610fbf61230b565b7f52c63247e1f47db19d5ce0460030c497f067ca4cebf71ba98eeadabe20bace0480546060917f52c63247e1f47db19d5ce0460030c497f067ca4cebf71ba98eeadabe20bace0091610a6690612cfd565b6112df611ba4565b6112e7611e22565b6112ef611c25565b6001546040516370a0823160e01b81523060048201525f916001600160a01b0316906307a2d13a9082906370a0823190602401602060405180830381865afa15801561133d573d5f803e3d5ffd5b505050506040513d601f19601f820116820180604052508101906113619190612cc7565b6040518263ffffffff1660e01b815260040161137f91815260200190565b602060405180830381865afa15801561139a573d5f803e3d5ffd5b505050506040513d601f19601f820116820180604052508101906113be9190612cc7565b90505f60045482116113d0575f6113dd565b6004546113dd9083612cb4565b90505f811161142e5760405162461bcd60e51b815260206004820152601560248201527f4e6f20696e74657265737420617661696c61626c6500000000000000000000006044820152606401610670565b6001546040517f0a28a477000000000000000000000000000000000000000000000000000000008152600481018390525f916001600160a01b031690630a28a47790602401602060405180830381865afa15801561148e573d5f803e3d5ffd5b505050506040513d601f19601f820116820180604052508101906114b29190612cc7565b6001546040517fba08765200000000000000000000000000000000000000000000000000000000815260048101839052306024820181905260448201529192506001600160a01b03169063ba087652906064016020604051808303815f875af1158015611521573d5f803e3d5ffd5b505050506040513d601f19601f820116820180604052508101906115459190612cc7565b50600354604080517f82755ebb00000000000000000000000000000000000000000000000000000000815290515f926001600160a01b0316916382755ebb9160048083019260209291908290030181865afa1580156115a6573d5f803e3d5ffd5b505050506040513d601f19601f820116820180604052508101906115ca9190612d35565b5f546040517f095ea7b30000000000000000000000000000000000000000000000000000000081526001600160a01b0380841660048301526024820187905292935091169063095ea7b3906044016020604051808303815f875af1158015611634573d5f803e3d5ffd5b505050506040513d601f19601f820116820180604052508101906116589190612cde565b505f80546002546040517f2d6bc8ea0000000000000000000000000000000000000000000000000000000081526001600160a01b03928316600482015290821660248201526044810186905230606482015290831690632d6bc8ea906084016020604051808303815f875af11580156116d3573d5f803e3d5ffd5b505050506040513d601f19601f820116820180604052508101906116f79190612cc7565b90508060055f82825461170a9190612d50565b909155505060017f9b779b17422d0df92223018b32b4d1fa46e071723d6817e2486d003becc55f005550610fbf9350505050565b5f33610af5818585611d93565b7ff0c57e16840df040f15088dc2f81fe391c3923bec73e23a9662efc9c229c6a00805468010000000000000000810460ff16159067ffffffffffffffff165f811580156117955750825b90505f8267ffffffffffffffff1660011480156117b15750303b155b9050811580156117bf575080155b156117f6576040517ff92ee8a900000000000000000000000000000000000000000000000000000000815260040160405180910390fd5b84547fffffffffffffffffffffffffffffffffffffffffffffffff0000000000000000166001178555831561184157845468ff00000000000000001916680100000000000000001785555b61184a33612366565b6118548b8b612377565b5f80546001600160a01b03808c1673ffffffffffffffffffffffffffffffffffffffff199283168117909355600180548c8316908416179055600280548b831690841617905560038054918a16919092161790556118f45760405162461bcd60e51b815260206004820152601660248201527f496e76616c6964206173736574412061646472657373000000000000000000006044820152606401610670565b6001546001600160a01b031661194c5760405162461bcd60e51b815260206004820152601b60248201527f496e76616c696420596561726e205661756c74206164647265737300000000006044820152606401610670565b6002546001600160a01b03166119a45760405162461bcd60e51b815260206004820152601660248201527f496e76616c6964206173736574422061646472657373000000000000000000006044820152606401610670565b83156119ef57845468ff000000000000000019168555604051600181527fc7f505b2f371ae2175ee4913f4499e1f2633a7b5936321eed1cdaeb6115181d29060200160405180910390a15b5050505050505050505050565b5f8060035f9054906101000a90046001600160a01b03166001600160a01b0316631bf01e9b6040518163ffffffff1660e01b8152600401602060405180830381865afa158015611a4e573d5f803e3d5ffd5b505050506040513d601f19601f82011682018060405250810190611a729190612d35565b90505f816001600160a01b031663313ce5676040518163ffffffff1660e01b8152600401602060405180830381865afa158015611ab1573d5f803e3d5ffd5b505050506040513d601f19601f82011682018060405250810190611ad59190612d63565b90505f611ae3826012612d83565b611aee90600a612e7c565b611af6610b26565b611b009190612c7e565b9050611b2a7f52c63247e1f47db19d5ce0460030c497f067ca4cebf71ba98eeadabe20bace025490565b611b349082612c95565b611b4690670de0b6b3a7640000612c7e565b935050505090565b611b56611e22565b6001600160a01b038116611b98576040517f1e4fbdf70000000000000000000000000000000000000000000000000000000081525f6004820152602401610670565b611ba18161228e565b50565b7f9b779b17422d0df92223018b32b4d1fa46e071723d6817e2486d003becc55f0080547ffffffffffffffffffffffffffffffffffffffffffffffffffffffffffffffffe01611c1f576040517f3ee5aeb500000000000000000000000000000000000000000000000000000000815260040160405180910390fd5b60029055565b7fcd5ed15c6e187e77e9aee88184c21f4f2182ab5827cb3b7e07fbedcd63f033005460ff1615610fbf576040517fd93c066500000000000000000000000000000000000000000000000000000000815260040160405180910390fd5b6001600160a01b038216611cc3576040517f96c6fd1e0000000000000000000000000000000000000000000000000000000081525f6004820152602401610670565b610a11825f83612389565b611cdb83838360016124ee565b505050565b6001600160a01b038381165f9081527f52c63247e1f47db19d5ce0460030c497f067ca4cebf71ba98eeadabe20bace0160209081526040808320938616835292905220545f198114611d8d5781811015611d7f576040517ffb8f41b20000000000000000000000000000000000000000000000000000000081526001600160a01b03841660048201526024810182905260448101839052606401610670565b611d8d84848484035f6124ee565b50505050565b6001600160a01b038316611dd5576040517f96c6fd1e0000000000000000000000000000000000000000000000000000000081525f6004820152602401610670565b6001600160a01b038216611e17576040517fec442f050000000000000000000000000000000000000000000000000000000081525f6004820152602401610670565b611cdb838383612389565b33611e547f9016d09d72d40fdae2fd8ceac6b6234c7706214fd39c1cd1e609a0528c199300546001600160a01b031690565b6001600160a01b031614610fbf576040517f118cdaa7000000000000000000000000000000000000000000000000000000008152336004820152602401610670565b611e9e612617565b7fcd5ed15c6e187e77e9aee88184c21f4f2182ab5827cb3b7e07fbedcd63f03300805460ff191681557f5db9ee0a495bf2e6ff9c91a7834c1ba4fdd244a5e8aa4e537bd38aeae4b073aa335b6040516001600160a01b03909116815260200160405180910390a150565b306001600160a01b037f0000000000000000000000000000000000000000000000000000000000000000161480611fa157507f00000000000000000000000000000000000000000000000000000000000000006001600160a01b0316611f957f360894a13ba1a3210667c828492db98dca3e2076cc3735a920a3ca505d382bbc546001600160a01b031690565b6001600160a01b031614155b15610fbf576040517fe07c8dba00000000000000000000000000000000000000000000000000000000815260040160405180910390fd5b611ba1611e22565b816001600160a01b03166352d1902d6040518163ffffffff1660e01b8152600401602060405180830381865afa92505050801561203a575060408051601f3d908101601f1916820190925261203791810190612cc7565b60015b61207b576040517f4c9c8ce30000000000000000000000000000000000000000000000000000000081526001600160a01b0383166004820152602401610670565b7f360894a13ba1a3210667c828492db98dca3e2076cc3735a920a3ca505d382bbc81146120d7576040517faa1d49a400000000000000000000000000000000000000000000000000000000815260048101829052602401610670565b611cdb8383612672565b306001600160a01b037f00000000000000000000000000000000000000000000000000000000000000001614610fbf576040517fe07c8dba00000000000000000000000000000000000000000000000000000000815260040160405180910390fd5b6001546040516370a0823160e01b81523060048201525f916001600160a01b0316906307a2d13a9082906370a0823190602401602060405180830381865afa158015612191573d5f803e3d5ffd5b505050506040513d601f19601f820116820180604052508101906121b59190612cc7565b6040518263ffffffff1660e01b81526004016121d391815260200190565b602060405180830381865afa1580156121ee573d5f803e3d5ffd5b505050506040513d601f19601f820116820180604052508101906122129190612cc7565b90505f6004548211612224575f612231565b6004546122319083612cb4565b90508015610a1157610a116112d7565b6001600160a01b038216612283576040517fec442f050000000000000000000000000000000000000000000000000000000081525f6004820152602401610670565b610a115f8383612389565b7f9016d09d72d40fdae2fd8ceac6b6234c7706214fd39c1cd1e609a0528c199300805473ffffffffffffffffffffffffffffffffffffffff1981166001600160a01b03848116918217845560405192169182907f8be0079c531659141344cd1fd0a4f28419497f9722a3daafe3b4186f6b6457e0905f90a3505050565b612313611c25565b7fcd5ed15c6e187e77e9aee88184c21f4f2182ab5827cb3b7e07fbedcd63f03300805460ff191660011781557f62e78cea01bee320cd4e420270b5ea74000d11b0c9f74754ebdbfc544b05a25833611eea565b61236e6126c7565b611ba18161272e565b61237f6126c7565b610a118282612736565b7f52c63247e1f47db19d5ce0460030c497f067ca4cebf71ba98eeadabe20bace006001600160a01b0384166123d65781816002015f8282546123cb9190612d50565b9091555061245f9050565b6001600160a01b0384165f9081526020829052604090205482811015612441576040517fe450d38c0000000000000000000000000000000000000000000000000000000081526001600160a01b03861660048201526024810182905260448101849052606401610670565b6001600160a01b0385165f9081526020839052604090209083900390555b6001600160a01b03831661247d57600281018054839003905561249b565b6001600160a01b0383165f9081526020829052604090208054830190555b826001600160a01b0316846001600160a01b03167fddf252ad1be2c89b69c2b068fc378daa952ba7f163c4a11628f55a4df523b3ef846040516124e091815260200190565b60405180910390a350505050565b7f52c63247e1f47db19d5ce0460030c497f067ca4cebf71ba98eeadabe20bace006001600160a01b038516612551576040517fe602df050000000000000000000000000000000000000000000000000000000081525f6004820152602401610670565b6001600160a01b038416612593576040517f94280d620000000000000000000000000000000000000000000000000000000081525f6004820152602401610670565b6001600160a01b038086165f9081526001830160209081526040808320938816835292905220839055811561261057836001600160a01b0316856001600160a01b03167f8c5be1e5ebec7d5bd14f71427d1e84f3dd0314c0f7b2291e5b200ac8c7c3b9258560405161260791815260200190565b60405180910390a35b5050505050565b7fcd5ed15c6e187e77e9aee88184c21f4f2182ab5827cb3b7e07fbedcd63f033005460ff16610fbf576040517f8dfc202b00000000000000000000000000000000000000000000000000000000815260040160405180910390fd5b61267b82612799565b6040516001600160a01b038316907fbc7cd75a20ee27fd9adebab32041f755214dbc6bffa90cc0225b39da2e5c2d3b905f90a28051156126bf57611cdb8282612835565b610a116128a7565b7ff0c57e16840df040f15088dc2f81fe391c3923bec73e23a9662efc9c229c6a005468010000000000000000900460ff16610fbf576040517fd7e6bcf800000000000000000000000000000000000000000000000000000000815260040160405180910390fd5b611b566126c7565b61273e6126c7565b7f52c63247e1f47db19d5ce0460030c497f067ca4cebf71ba98eeadabe20bace007f52c63247e1f47db19d5ce0460030c497f067ca4cebf71ba98eeadabe20bace0361278a8482612ece565b5060048101611d8d8382612ece565b806001600160a01b03163b5f036127e7576040517f4c9c8ce30000000000000000000000000000000000000000000000000000000081526001600160a01b0382166004820152602401610670565b7f360894a13ba1a3210667c828492db98dca3e2076cc3735a920a3ca505d382bbc805473ffffffffffffffffffffffffffffffffffffffff19166001600160a01b0392909216919091179055565b60605f80846001600160a01b0316846040516128519190612f8e565b5f60405180830381855af49150503d805f8114612889576040519150601f19603f3d011682016040523d82523d5f602084013e61288e565b606091505b509150915061289e8583836128df565b95945050505050565b3415610fbf576040517fb398979f00000000000000000000000000000000000000000000000000000000815260040160405180910390fd5b6060826128f4576128ef82612954565b610b1f565b815115801561290b57506001600160a01b0384163b155b1561294d576040517f9996b3150000000000000000000000000000000000000000000000000000000081526001600160a01b0385166004820152602401610670565b5080610b1f565b8051156129645780518082602001fd5b6040517f1425ea4200000000000000000000000000000000000000000000000000000000815260040160405180910390fd5b6001600160a01b0381168114611ba1575f80fd5b5f80604083850312156129bb575f80fd5b8235915060208301356129cd81612996565b809150509250929050565b602081525f82518060208401528060208501604085015e5f604082850101526040601f19601f83011684010191505092915050565b5f8060408385031215612a1e575f80fd5b8235612a2981612996565b946020939093013593505050565b5f805f60608486031215612a49575f80fd5b8335612a5481612996565b92506020840135612a6481612996565b929592945050506040919091013590565b634e487b7160e01b5f52604160045260245ffd5b5f67ffffffffffffffff80841115612aa357612aa3612a75565b604051601f8501601f19908116603f01168101908282118183101715612acb57612acb612a75565b81604052809350858152868686011115612ae3575f80fd5b858560208301375f602087830101525050509392505050565b5f8060408385031215612b0d575f80fd5b8235612b1881612996565b9150602083013567ffffffffffffffff811115612b33575f80fd5b8301601f81018513612b43575f80fd5b612b5285823560208401612a89565b9150509250929050565b5f60208284031215612b6c575f80fd5b8135610b1f81612996565b5f8060408385031215612b88575f80fd5b8235612b9381612996565b915060208301356129cd81612996565b5f82601f830112612bb2575f80fd5b610b1f83833560208501612a89565b5f805f805f8060c08789031215612bd6575f80fd5b863567ffffffffffffffff80821115612bed575f80fd5b612bf98a838b01612ba3565b97506020890135915080821115612c0e575f80fd5b50612c1b89828a01612ba3565b9550506040870135612c2c81612996565b93506060870135612c3c81612996565b92506080870135612c4c81612996565b915060a0870135612c5c81612996565b809150509295509295509295565b634e487b7160e01b5f52601160045260245ffd5b8082028115828204841417610afb57610afb612c6a565b5f82612caf57634e487b7160e01b5f52601260045260245ffd5b500490565b81810381811115610afb57610afb612c6a565b5f60208284031215612cd7575f80fd5b5051919050565b5f60208284031215612cee575f80fd5b81518015158114610b1f575f80fd5b600181811c90821680612d1157607f821691505b602082108103612d2f57634e487b7160e01b5f52602260045260245ffd5b50919050565b5f60208284031215612d45575f80fd5b8151610b1f81612996565b80820180821115610afb57610afb612c6a565b5f60208284031215612d73575f80fd5b815160ff81168114610b1f575f80fd5b60ff8281168282160390811115610afb57610afb612c6a565b600181815b80851115612dd657815f1904821115612dbc57612dbc612c6a565b80851615612dc957918102915b93841c9390800290612da1565b509250929050565b5f82612dec57506001610afb565b81612df857505f610afb565b8160018114612e0e5760028114612e1857612e34565b6001915050610afb565b60ff841115612e2957612e29612c6a565b50506001821b610afb565b5060208310610133831016604e8410600b8410161715612e57575081810a610afb565b612e618383612d9c565b805f1904821115612e7457612e74612c6a565b029392505050565b5f610b1f60ff841683612dde565b601f821115611cdb57805f5260205f20601f840160051c81016020851015612eaf5750805b601f840160051c820191505b81811015612610575f8155600101612ebb565b815167ffffffffffffffff811115612ee857612ee8612a75565b612efc81612ef68454612cfd565b84612e8a565b602080601f831160018114612f2f575f8415612f185750858301515b5f19600386901b1c1916600185901b178555612f86565b5f85815260208120601f198616915b82811015612f5d57888601518255948401946001909101908401612f3e565b5085821015612f7a57878501515f19600388901b60f8161c191681555b505060018460011b0185555b505050505050565b5f82518060208501845e5f92019182525091905056fea26469706673582212201b42797cbe9046766c2f75a4038e511698f7f07e3ae56a7875bc6a8db52f9c7864736f6c63430008190033",
  "linkReferences": {},
  "deployedLinkReferences": {}
}