{
  "_format": "hh-sol-artifact-1",
  "contractName": "BaluniV1yVault",
  "sourceName": "contracts/vaults/BaluniV1yVault.sol",
  "abi": [
    {
      "inputs": [
        {
          "internalType": "address",
          "name": "target",
          "type": "address"
        }
      ],
      "name": "AddressEmptyCode",
      "type": "error"
    },
    {
      "inputs": [
        {
          "internalType": "address",
          "name": "implementation",
          "type": "address"
        }
      ],
      "name": "ERC1967InvalidImplementation",
      "type": "error"
    },
    {
      "inputs": [],
      "name": "ERC1967NonPayable",
      "type": "error"
    },
    {
      "inputs": [
        {
          "internalType": "address",
          "name": "spender",
          "type": "address"
        },
        {
          "internalType": "uint256",
          "name": "allowance",
          "type": "uint256"
        },
        {
          "internalType": "uint256",
          "name": "needed",
          "type": "uint256"
        }
      ],
      "name": "ERC20InsufficientAllowance",
      "type": "error"
    },
    {
      "inputs": [
        {
          "internalType": "address",
          "name": "sender",
          "type": "address"
        },
        {
          "internalType": "uint256",
          "name": "balance",
          "type": "uint256"
        },
        {
          "internalType": "uint256",
          "name": "needed",
          "type": "uint256"
        }
      ],
      "name": "ERC20InsufficientBalance",
      "type": "error"
    },
    {
      "inputs": [
        {
          "internalType": "address",
          "name": "approver",
          "type": "address"
        }
      ],
      "name": "ERC20InvalidApprover",
      "type": "error"
    },
    {
      "inputs": [
        {
          "internalType": "address",
          "name": "receiver",
          "type": "address"
        }
      ],
      "name": "ERC20InvalidReceiver",
      "type": "error"
    },
    {
      "inputs": [
        {
          "internalType": "address",
          "name": "sender",
          "type": "address"
        }
      ],
      "name": "ERC20InvalidSender",
      "type": "error"
    },
    {
      "inputs": [
        {
          "internalType": "address",
          "name": "spender",
          "type": "address"
        }
      ],
      "name": "ERC20InvalidSpender",
      "type": "error"
    },
    {
      "inputs": [],
      "name": "EnforcedPause",
      "type": "error"
    },
    {
      "inputs": [],
      "name": "ExpectedPause",
      "type": "error"
    },
    {
      "inputs": [],
      "name": "FailedInnerCall",
      "type": "error"
    },
    {
      "inputs": [],
      "name": "InvalidInitialization",
      "type": "error"
    },
    {
      "inputs": [],
      "name": "NotInitializing",
      "type": "error"
    },
    {
      "inputs": [
        {
          "internalType": "address",
          "name": "owner",
          "type": "address"
        }
      ],
      "name": "OwnableInvalidOwner",
      "type": "error"
    },
    {
      "inputs": [
        {
          "internalType": "address",
          "name": "account",
          "type": "address"
        }
      ],
      "name": "OwnableUnauthorizedAccount",
      "type": "error"
    },
    {
      "inputs": [],
      "name": "ReentrancyGuardReentrantCall",
      "type": "error"
    },
    {
      "inputs": [],
      "name": "UUPSUnauthorizedCallContext",
      "type": "error"
    },
    {
      "inputs": [
        {
          "internalType": "bytes32",
          "name": "slot",
          "type": "bytes32"
        }
      ],
      "name": "UUPSUnsupportedProxiableUUID",
      "type": "error"
    },
    {
      "anonymous": false,
      "inputs": [
        {
          "indexed": true,
          "internalType": "address",
          "name": "owner",
          "type": "address"
        },
        {
          "indexed": true,
          "internalType": "address",
          "name": "spender",
          "type": "address"
        },
        {
          "indexed": false,
          "internalType": "uint256",
          "name": "value",
          "type": "uint256"
        }
      ],
      "name": "Approval",
      "type": "event"
    },
    {
      "anonymous": false,
      "inputs": [
        {
          "indexed": false,
          "internalType": "uint64",
          "name": "version",
          "type": "uint64"
        }
      ],
      "name": "Initialized",
      "type": "event"
    },
    {
      "anonymous": false,
      "inputs": [
        {
          "indexed": true,
          "internalType": "address",
          "name": "previousOwner",
          "type": "address"
        },
        {
          "indexed": true,
          "internalType": "address",
          "name": "newOwner",
          "type": "address"
        }
      ],
      "name": "OwnershipTransferred",
      "type": "event"
    },
    {
      "anonymous": false,
      "inputs": [
        {
          "indexed": false,
          "internalType": "address",
          "name": "account",
          "type": "address"
        }
      ],
      "name": "Paused",
      "type": "event"
    },
    {
      "anonymous": false,
      "inputs": [
        {
          "indexed": true,
          "internalType": "address",
          "name": "from",
          "type": "address"
        },
        {
          "indexed": true,
          "internalType": "address",
          "name": "to",
          "type": "address"
        },
        {
          "indexed": false,
          "internalType": "uint256",
          "name": "value",
          "type": "uint256"
        }
      ],
      "name": "Transfer",
      "type": "event"
    },
    {
      "anonymous": false,
      "inputs": [
        {
          "indexed": false,
          "internalType": "address",
          "name": "account",
          "type": "address"
        }
      ],
      "name": "Unpaused",
      "type": "event"
    },
    {
      "anonymous": false,
      "inputs": [
        {
          "indexed": true,
          "internalType": "address",
          "name": "implementation",
          "type": "address"
        }
      ],
      "name": "Upgraded",
      "type": "event"
    },
    {
      "inputs": [],
      "name": "UPGRADE_INTERFACE_VERSION",
      "outputs": [
        {
          "internalType": "string",
          "name": "",
          "type": "string"
        }
      ],
      "stateMutability": "view",
      "type": "function"
    },
    {
      "inputs": [],
      "name": "accumulatedAssetB",
      "outputs": [
        {
          "internalType": "uint256",
          "name": "",
          "type": "uint256"
        }
      ],
      "stateMutability": "view",
      "type": "function"
    },
    {
      "inputs": [
        {
          "internalType": "address",
          "name": "owner",
          "type": "address"
        },
        {
          "internalType": "address",
          "name": "spender",
          "type": "address"
        }
      ],
      "name": "allowance",
      "outputs": [
        {
          "internalType": "uint256",
          "name": "",
          "type": "uint256"
        }
      ],
      "stateMutability": "view",
      "type": "function"
    },
    {
      "inputs": [
        {
          "internalType": "address",
          "name": "spender",
          "type": "address"
        },
        {
          "internalType": "uint256",
          "name": "value",
          "type": "uint256"
        }
      ],
      "name": "approve",
      "outputs": [
        {
          "internalType": "bool",
          "name": "",
          "type": "bool"
        }
      ],
      "stateMutability": "nonpayable",
      "type": "function"
    },
    {
      "inputs": [
        {
          "internalType": "address",
          "name": "account",
          "type": "address"
        }
      ],
      "name": "balanceOf",
      "outputs": [
        {
          "internalType": "uint256",
          "name": "",
          "type": "uint256"
        }
      ],
      "stateMutability": "view",
      "type": "function"
    },
    {
      "inputs": [],
      "name": "baseAsset",
      "outputs": [
        {
          "internalType": "address",
          "name": "",
          "type": "address"
        }
      ],
      "stateMutability": "view",
      "type": "function"
    },
    {
      "inputs": [],
      "name": "buy",
      "outputs": [],
      "stateMutability": "nonpayable",
      "type": "function"
    },
    {
      "inputs": [],
      "name": "decimals",
      "outputs": [
        {
          "internalType": "uint8",
          "name": "",
          "type": "uint8"
        }
      ],
      "stateMutability": "view",
      "type": "function"
    },
    {
      "inputs": [
        {
          "internalType": "uint256",
          "name": "amount",
          "type": "uint256"
        },
        {
          "internalType": "address",
          "name": "to",
          "type": "address"
        }
      ],
      "name": "deposit",
      "outputs": [],
      "stateMutability": "nonpayable",
      "type": "function"
    },
    {
      "inputs": [
        {
          "internalType": "string",
          "name": "_name",
          "type": "string"
        },
        {
          "internalType": "string",
          "name": "_symbol",
          "type": "string"
        },
        {
          "internalType": "address",
          "name": "_assetA",
          "type": "address"
        },
        {
          "internalType": "address",
          "name": "_yearnVaultAddress",
          "type": "address"
        },
        {
          "internalType": "address",
          "name": "_assetB",
          "type": "address"
        },
        {
          "internalType": "address",
          "name": "_registryAddress",
          "type": "address"
        }
      ],
      "name": "initialize",
      "outputs": [],
      "stateMutability": "nonpayable",
      "type": "function"
    },
    {
      "inputs": [],
      "name": "lastDeposit",
      "outputs": [
        {
          "internalType": "uint256",
          "name": "",
          "type": "uint256"
        }
      ],
      "stateMutability": "view",
      "type": "function"
    },
    {
      "inputs": [],
      "name": "name",
      "outputs": [
        {
          "internalType": "string",
          "name": "",
          "type": "string"
        }
      ],
      "stateMutability": "view",
      "type": "function"
    },
    {
      "inputs": [],
      "name": "owner",
      "outputs": [
        {
          "internalType": "address",
          "name": "",
          "type": "address"
        }
      ],
      "stateMutability": "view",
      "type": "function"
    },
    {
      "inputs": [],
      "name": "pause",
      "outputs": [],
      "stateMutability": "nonpayable",
      "type": "function"
    },
    {
      "inputs": [],
      "name": "paused",
      "outputs": [
        {
          "internalType": "bool",
          "name": "",
          "type": "bool"
        }
      ],
      "stateMutability": "view",
      "type": "function"
    },
    {
      "inputs": [],
      "name": "proxiableUUID",
      "outputs": [
        {
          "internalType": "bytes32",
          "name": "",
          "type": "bytes32"
        }
      ],
      "stateMutability": "view",
      "type": "function"
    },
    {
      "inputs": [],
      "name": "quoteAsset",
      "outputs": [
        {
          "internalType": "address",
          "name": "",
          "type": "address"
        }
      ],
      "stateMutability": "view",
      "type": "function"
    },
    {
      "inputs": [],
      "name": "registry",
      "outputs": [
        {
          "internalType": "address",
          "name": "",
          "type": "address"
        }
      ],
      "stateMutability": "view",
      "type": "function"
    },
    {
      "inputs": [],
      "name": "renounceOwnership",
      "outputs": [],
      "stateMutability": "nonpayable",
      "type": "function"
    },
    {
      "inputs": [],
      "name": "symbol",
      "outputs": [
        {
          "internalType": "string",
          "name": "",
          "type": "string"
        }
      ],
      "stateMutability": "view",
      "type": "function"
    },
    {
      "inputs": [],
      "name": "totalSupply",
      "outputs": [
        {
          "internalType": "uint256",
          "name": "",
          "type": "uint256"
        }
      ],
      "stateMutability": "view",
      "type": "function"
    },
    {
      "inputs": [],
      "name": "totalValuation",
      "outputs": [
        {
          "internalType": "uint256",
          "name": "",
          "type": "uint256"
        }
      ],
      "stateMutability": "view",
      "type": "function"
    },
    {
      "inputs": [
        {
          "internalType": "address",
          "name": "to",
          "type": "address"
        },
        {
          "internalType": "uint256",
          "name": "value",
          "type": "uint256"
        }
      ],
      "name": "transfer",
      "outputs": [
        {
          "internalType": "bool",
          "name": "",
          "type": "bool"
        }
      ],
      "stateMutability": "nonpayable",
      "type": "function"
    },
    {
      "inputs": [
        {
          "internalType": "address",
          "name": "from",
          "type": "address"
        },
        {
          "internalType": "address",
          "name": "to",
          "type": "address"
        },
        {
          "internalType": "uint256",
          "name": "value",
          "type": "uint256"
        }
      ],
      "name": "transferFrom",
      "outputs": [
        {
          "internalType": "bool",
          "name": "",
          "type": "bool"
        }
      ],
      "stateMutability": "nonpayable",
      "type": "function"
    },
    {
      "inputs": [
        {
          "internalType": "address",
          "name": "newOwner",
          "type": "address"
        }
      ],
      "name": "transferOwnership",
      "outputs": [],
      "stateMutability": "nonpayable",
      "type": "function"
    },
    {
      "inputs": [],
      "name": "unitPrice",
      "outputs": [
        {
          "internalType": "uint256",
          "name": "",
          "type": "uint256"
        }
      ],
      "stateMutability": "view",
      "type": "function"
    },
    {
      "inputs": [],
      "name": "unpause",
      "outputs": [],
      "stateMutability": "nonpayable",
      "type": "function"
    },
    {
      "inputs": [
        {
          "internalType": "address",
          "name": "newImplementation",
          "type": "address"
        },
        {
          "internalType": "bytes",
          "name": "data",
          "type": "bytes"
        }
      ],
      "name": "upgradeToAndCall",
      "outputs": [],
      "stateMutability": "payable",
      "type": "function"
    },
    {
      "inputs": [
        {
          "internalType": "uint256",
          "name": "shares",
          "type": "uint256"
        },
        {
          "internalType": "address",
          "name": "to",
          "type": "address"
        }
      ],
      "name": "withdraw",
      "outputs": [],
      "stateMutability": "nonpayable",
      "type": "function"
    },
    {
      "inputs": [],
      "name": "yearnVault",
      "outputs": [
        {
          "internalType": "address",
          "name": "",
          "type": "address"
        }
      ],
      "stateMutability": "view",
      "type": "function"
    }
  ],
  "bytecode": "0x60a0604052306080523480156012575f80fd5b50608051613b3e6100395f395f81816126500152818161267901526128290152613b3e5ff3fe6080604052600436106101c4575f3560e01c80637b103999116100f2578063ad3cb1cc11610092578063e73faa2d11610062578063e73faa2d146105a6578063f2fde38b146105ba578063f7fde10f146105d9578063fdf262b7146105ee575f80fd5b8063ad3cb1cc146104be578063cdf456e114610506578063dd62ed3e14610524578063e56f2fe414610587575f80fd5b806395d89b41116100cd57806395d89b411461045a5780639db5df461461046e578063a6f2ae3a1461048b578063a9059cbb1461049f575f80fd5b80637b103999146103d95780638456cb591461040a5780638da5cb5b1461041e575f80fd5b806336b77107116101685780635c975abb116101385780635c975abb1461031d5780636e553f651461035357806370a0823114610372578063715018a6146103c5575f80fd5b806336b77107146102cd5780633f4ba83a146102e25780634f1ef286146102f657806352d1902d14610309575f80fd5b806318160ddd116101a357806318160ddd1461024257806323b872dd1461027f578063295b93001461029e578063313ce567146102b2575f80fd5b8062f714ce146101c857806306fdde03146101e9578063095ea7b314610213575b5f80fd5b3480156101d3575f80fd5b506101e76101e236600461350e565b61060d565b005b3480156101f4575f80fd5b506101fd6110c9565b60405161020a919061353c565b60405180910390f35b34801561021e575f80fd5b5061023261022d366004613571565b61119c565b604051901515815260200161020a565b34801561024d575f80fd5b507f52c63247e1f47db19d5ce0460030c497f067ca4cebf71ba98eeadabe20bace02545b60405190815260200161020a565b34801561028a575f80fd5b5061023261029936600461359b565b6111b5565b3480156102a9575f80fd5b506102716111da565b3480156102bd575f80fd5b506040516012815260200161020a565b3480156102d8575f80fd5b5061027160055481565b3480156102ed575f80fd5b506101e7611663565b6101e7610304366004613660565b611675565b348015610314575f80fd5b50610271611690565b348015610328575f80fd5b507fcd5ed15c6e187e77e9aee88184c21f4f2182ab5827cb3b7e07fbedcd63f033005460ff16610232565b34801561035e575f80fd5b506101e761036d36600461350e565b6116be565b34801561037d575f80fd5b5061027161038c3660046136c0565b6001600160a01b03165f9081527f52c63247e1f47db19d5ce0460030c497f067ca4cebf71ba98eeadabe20bace00602052604090205490565b3480156103d0575f80fd5b506101e7611c8e565b3480156103e4575f80fd5b506003546001600160a01b03165b6040516001600160a01b03909116815260200161020a565b348015610415575f80fd5b506101e7611c9f565b348015610429575f80fd5b507f9016d09d72d40fdae2fd8ceac6b6234c7706214fd39c1cd1e609a0528c199300546001600160a01b03166103f2565b348015610465575f80fd5b506101fd611caf565b348015610479575f80fd5b506001546001600160a01b03166103f2565b348015610496575f80fd5b506101e7611d00565b3480156104aa575f80fd5b506102326104b9366004613571565b611d49565b3480156104c9575f80fd5b506101fd6040518060400160405280600581526020017f352e302e3000000000000000000000000000000000000000000000000000000081525081565b348015610511575f80fd5b505f546103f2906001600160a01b031681565b34801561052f575f80fd5b5061027161053e3660046136db565b6001600160a01b039182165f9081527f52c63247e1f47db19d5ce0460030c497f067ca4cebf71ba98eeadabe20bace016020908152604080832093909416825291909152205490565b348015610592575f80fd5b506101e76105a1366004613725565b611d56565b3480156105b1575f80fd5b50610271612007565b3480156105c5575f80fd5b506101e76105d43660046136c0565b612159565b3480156105e4575f80fd5b5061027160045481565b3480156105f9575f80fd5b506002546103f2906001600160a01b031681565b6106156121af565b61061d612230565b5f82116106715760405162461bcd60e51b815260206004820181905260248201527f536861726573206d7573742062652067726561746572207468616e207a65726f60448201526064015b60405180910390fd5b335f9081527f52c63247e1f47db19d5ce0460030c497f067ca4cebf71ba98eeadabe20bace0060205260409020548211156106ee5760405162461bcd60e51b815260206004820152601460248201527f496e73756666696369656e742062616c616e63650000000000000000000000006044820152606401610668565b600154604080517f313ce56700000000000000000000000000000000000000000000000000000000815290515f926001600160a01b03169163313ce5679160048083019260209291908290030181865afa15801561074e573d5f803e3d5ffd5b505050506040513d601f19601f8201168201806040525081019061077291906137ce565b90505f60025f9054906101000a90046001600160a01b03166001600160a01b031663313ce5676040518163ffffffff1660e01b8152600401602060405180830381865afa1580156107c5573d5f803e3d5ffd5b505050506040513d601f19601f820116820180604052508101906107e991906137ce565b6001546040516370a0823160e01b81523060048201529192505f916001600160a01b03909116906370a0823190602401602060405180830381865afa158015610834573d5f803e3d5ffd5b505050506040513d601f19601f8201168201806040525081019061085891906137ee565b6002546040516370a0823160e01b81523060048201529192505f916001600160a01b03909116906370a0823190602401602060405180830381865afa1580156108a3573d5f803e3d5ffd5b505050506040513d601f19601f820116820180604052508101906108c791906137ee565b5f80546040516370a0823160e01b815230600482015292935090916001600160a01b03909116906370a0823190602401602060405180830381865afa158015610912573d5f803e3d5ffd5b505050506040513d601f19601f8201168201806040525081019061093691906137ee565b9050610943856012613819565b61094e90600a613912565b6109589084613920565b9250610965846012613819565b61097090600a613912565b61097a9083613920565b91505f6109a57f52c63247e1f47db19d5ce0460030c497f067ca4cebf71ba98eeadabe20bace025490565b6109af858a613920565b6109b99190613937565b90505f6109e47f52c63247e1f47db19d5ce0460030c497f067ca4cebf71ba98eeadabe20bace025490565b6109ee858b613920565b6109f89190613937565b9050610a04338a61228c565b610a0f876012613819565b610a1a90600a613912565b610a249083613937565b9150610a31866012613819565b610a3c90600a613912565b610a469082613937565b6001546040517fba08765200000000000000000000000000000000000000000000000000000000815260048101859052306024820181905260448201529192506001600160a01b03169063ba087652906064016020604051808303815f875af1158015610ab5573d5f803e3d5ffd5b505050506040513d601f19601f82011682018060405250810190610ad991906137ee565b505f80546040516370a0823160e01b81523060048201526001600160a01b03909116906370a0823190602401602060405180830381865afa158015610b20573d5f803e3d5ffd5b505050506040513d601f19601f82011682018060405250810190610b4491906137ee565b90505f610b518583613956565b90505f610b5d826122d9565b5f549091506001600160a01b031663a9059cbb8c610b7b8486613956565b6040517fffffffff0000000000000000000000000000000000000000000000000000000060e085901b1681526001600160a01b03909216600483015260248201526044016020604051808303815f875af1158015610bdb573d5f803e3d5ffd5b505050506040513d601f19601f82011682018060405250810190610bff9190613969565b505f610c0a826122d9565b90505f60035f9054906101000a90046001600160a01b03166001600160a01b03166304cc73256040518163ffffffff1660e01b8152600401602060405180830381865afa158015610c5d573d5f803e3d5ffd5b505050506040513d601f19601f82011682018060405250810190610c819190613988565b90505f60035f9054906101000a90046001600160a01b03166001600160a01b0316633b19e84a6040518163ffffffff1660e01b8152600401602060405180830381865afa158015610cd4573d5f803e3d5ffd5b505050506040513d601f19601f82011682018060405250810190610cf89190613988565b5f549091506001600160a01b031663a9059cbb83610d168688613956565b6040517fffffffff0000000000000000000000000000000000000000000000000000000060e085901b1681526001600160a01b03909216600483015260248201526044016020604051808303815f875af1158015610d76573d5f803e3d5ffd5b505050506040513d601f19601f82011682018060405250810190610d9a9190613969565b505f5460405163a9059cbb60e01b81526001600160a01b038381166004830152602482018690529091169063a9059cbb906044016020604051808303815f875af1158015610dea573d5f803e3d5ffd5b505050506040513d601f19601f82011682018060405250810190610e0e9190613969565b50610e18876122d9565b6002549094506001600160a01b031663a9059cbb8f610e37878b613956565b6040517fffffffff0000000000000000000000000000000000000000000000000000000060e085901b1681526001600160a01b03909216600483015260248201526044016020604051808303815f875af1158015610e97573d5f803e3d5ffd5b505050506040513d601f19601f82011682018060405250810190610ebb9190613969565b50610ec5846122d9565b5f549093506001600160a01b031663a9059cbb83610ee38688613956565b6040517fffffffff0000000000000000000000000000000000000000000000000000000060e085901b1681526001600160a01b03909216600483015260248201526044016020604051808303815f875af1158015610f43573d5f803e3d5ffd5b505050506040513d601f19601f82011682018060405250810190610f679190613969565b505f5460405163a9059cbb60e01b81526001600160a01b038381166004830152602482018690529091169063a9059cbb906044016020604051808303815f875af1158015610fb7573d5f803e3d5ffd5b505050506040513d601f19601f82011682018060405250810190610fdb9190613969565b506001546040516370a0823160e01b81523060048201526001600160a01b03909116906307a2d13a9082906370a0823190602401602060405180830381865afa15801561102a573d5f803e3d5ffd5b505050506040513d601f19601f8201168201806040525081019061104e91906137ee565b6040518263ffffffff1660e01b815260040161106c91815260200190565b602060405180830381865afa158015611087573d5f803e3d5ffd5b505050506040513d601f19601f820116820180604052508101906110ab91906137ee565b600555506110c59b506123e59a5050505050505050505050565b5050565b7f52c63247e1f47db19d5ce0460030c497f067ca4cebf71ba98eeadabe20bace0380546060917f52c63247e1f47db19d5ce0460030c497f067ca4cebf71ba98eeadabe20bace009161111a906139a3565b80601f0160208091040260200160405190810160405280929190818152602001828054611146906139a3565b80156111915780601f1061116857610100808354040283529160200191611191565b820191905f5260205f20905b81548152906001019060200180831161117457829003601f168201915b505050505091505090565b5f336111a981858561240b565b60019150505b92915050565b5f336111c285828561241d565b6111cd8585856124d0565b60019150505b9392505050565b5f8060035f9054906101000a90046001600160a01b03166001600160a01b031663bb3ba04c6040518163ffffffff1660e01b8152600401602060405180830381865afa15801561122c573d5f803e3d5ffd5b505050506040513d601f19601f820116820180604052508101906112509190613988565b90505f60035f9054906101000a90046001600160a01b03166001600160a01b0316631bf01e9b6040518163ffffffff1660e01b8152600401602060405180830381865afa1580156112a3573d5f803e3d5ffd5b505050506040513d601f19601f820116820180604052508101906112c79190613988565b5f80546040516370a0823160e01b8152306004820152929350909182916001600160a01b0316906370a0823190602401602060405180830381865afa158015611312573d5f803e3d5ffd5b505050506040513d601f19601f8201168201806040525081019061133691906137ee565b6001546040516370a0823160e01b81523060048201529192505f916001600160a01b03909116906370a0823190602401602060405180830381865afa158015611381573d5f803e3d5ffd5b505050506040513d601f19601f820116820180604052508101906113a591906137ee565b6001546040517f07a2d13a000000000000000000000000000000000000000000000000000000008152600481018390529192505f916001600160a01b03909116906307a2d13a90602401602060405180830381865afa15801561140a573d5f803e3d5ffd5b505050506040513d601f19601f8201168201806040525081019061142e91906137ee565b6002546040516370a0823160e01b81523060048201529192505f916001600160a01b03909116906370a0823190602401602060405180830381865afa158015611479573d5f803e3d5ffd5b505050506040513d601f19601f8201168201806040525081019061149d91906137ee565b6002545f5460405163248391ff60e01b81526001600160a01b03928316600482015290821660248201526044810185905291925088169063248391ff90606401602060405180830381865afa1580156114f8573d5f803e3d5ffd5b505050506040513d601f19601f8201168201806040525081019061151c91906137ee565b61152690866139db565b6002545f5460405163248391ff60e01b81526001600160a01b03928316600482015290821660248201526044810184905291965088169063248391ff90606401602060405180830381865afa158015611581573d5f803e3d5ffd5b505050506040513d601f19601f820116820180604052508101906115a591906137ee565b6115af90866139db565b5f549095506001600160a01b0387811691161461164d575f5460405163248391ff60e01b81526001600160a01b0391821660048201528782166024820152604481018690529088169063248391ff90606401602060405180830381865afa15801561161c573d5f803e3d5ffd5b505050506040513d601f19601f8201168201806040525081019061164091906137ee565b61164a90866139db565b94505b61165784866139db565b98975050505050505050565b61166b61255f565b6116736125d3565b565b61167d612645565b61168682612715565b6110c5828261271d565b5f61169961281e565b507f360894a13ba1a3210667c828492db98dca3e2076cc3735a920a3ca505d382bbc90565b6116c66121af565b6116ce612230565b5f821161171d5760405162461bcd60e51b815260206004820181905260248201527f416d6f756e74206d7573742062652067726561746572207468616e207a65726f6044820152606401610668565b611725612880565b5f546040517f23b872dd000000000000000000000000000000000000000000000000000000008152336004820152306024820152604481018490526001600160a01b03909116906323b872dd906064016020604051808303815f875af1158015611791573d5f803e3d5ffd5b505050506040513d601f19601f820116820180604052508101906117b59190613969565b50600354604080517f04cc732500000000000000000000000000000000000000000000000000000000815290515f926001600160a01b0316916304cc73259160048083019260209291908290030181865afa158015611816573d5f803e3d5ffd5b505050506040513d601f19601f8201168201806040525081019061183a9190613988565b90505f60035f9054906101000a90046001600160a01b03166001600160a01b0316633b19e84a6040518163ffffffff1660e01b8152600401602060405180830381865afa15801561188d573d5f803e3d5ffd5b505050506040513d601f19601f820116820180604052508101906118b19190613988565b90505f6118bd856122d9565b90505f6118c9826122d9565b5f549091506001600160a01b031663a9059cbb856118e78486613956565b6040517fffffffff0000000000000000000000000000000000000000000000000000000060e085901b1681526001600160a01b03909216600483015260248201526044016020604051808303815f875af1158015611947573d5f803e3d5ffd5b505050506040513d601f19601f8201168201806040525081019061196b9190613969565b505f5460405163a9059cbb60e01b81526001600160a01b038681166004830152602482018490529091169063a9059cbb906044016020604051808303815f875af11580156119bb573d5f803e3d5ffd5b505050506040513d601f19601f820116820180604052508101906119df9190613969565b505f6119eb8388613956565b5f546001546040517f095ea7b30000000000000000000000000000000000000000000000000000000081526001600160a01b03918216600482015260248101849052929350169063095ea7b3906044016020604051808303815f875af1158015611a57573d5f803e3d5ffd5b505050506040513d601f19601f82011682018060405250810190611a7b9190613969565b506001546040517f6e553f65000000000000000000000000000000000000000000000000000000008152600481018390523060248201526001600160a01b0390911690636e553f65906044016020604051808303815f875af1158015611ae3573d5f803e3d5ffd5b505050506040513d601f19601f82011682018060405250810190611b0791906137ee565b505f805f9054906101000a90046001600160a01b03166001600160a01b031663313ce5676040518163ffffffff1660e01b8152600401602060405180830381865afa158015611b58573d5f803e3d5ffd5b505050506040513d601f19601f82011682018060405250810190611b7c91906137ce565b90505f611b8a826012613819565b611b9590600a613912565b611b9f9084613920565b9050611bab888261297e565b6001546040516370a0823160e01b81523060048201526001600160a01b03909116906307a2d13a9082906370a0823190602401602060405180830381865afa158015611bf9573d5f803e3d5ffd5b505050506040513d601f19601f82011682018060405250810190611c1d91906137ee565b6040518263ffffffff1660e01b8152600401611c3b91815260200190565b602060405180830381865afa158015611c56573d5f803e3d5ffd5b505050506040513d601f19601f82011682018060405250810190611c7a91906137ee565b600555506110c595506123e5945050505050565b611c9661255f565b6116735f6129cb565b611ca761255f565b611673612a48565b7f52c63247e1f47db19d5ce0460030c497f067ca4cebf71ba98eeadabe20bace0480546060917f52c63247e1f47db19d5ce0460030c497f067ca4cebf71ba98eeadabe20bace009161111a906139a3565b611d086121af565b611d1061255f565b611d18612230565b611d20612aa3565b61167360017f9b779b17422d0df92223018b32b4d1fa46e071723d6817e2486d003becc55f0055565b5f336111a98185856124d0565b7ff0c57e16840df040f15088dc2f81fe391c3923bec73e23a9662efc9c229c6a00805468010000000000000000810460ff16159067ffffffffffffffff165f81158015611da05750825b90505f8267ffffffffffffffff166001148015611dbc5750303b155b905081158015611dca575080155b15611e01576040517ff92ee8a900000000000000000000000000000000000000000000000000000000815260040160405180910390fd5b84547fffffffffffffffffffffffffffffffffffffffffffffffff00000000000000001660011785558315611e4c57845468ff00000000000000001916680100000000000000001785555b611e5533612eca565b611e5f8b8b612edb565b5f80546001600160a01b03808c1673ffffffffffffffffffffffffffffffffffffffff199283168117909355600180548c8316908416179055600280548b831690841617905560038054918a1691909216179055611eff5760405162461bcd60e51b815260206004820152601660248201527f496e76616c6964206173736574412061646472657373000000000000000000006044820152606401610668565b6001546001600160a01b0316611f575760405162461bcd60e51b815260206004820152601b60248201527f496e76616c696420596561726e205661756c74206164647265737300000000006044820152606401610668565b6002546001600160a01b0316611faf5760405162461bcd60e51b815260206004820152601660248201527f496e76616c6964206173736574422061646472657373000000000000000000006044820152606401610668565b8315611ffa57845468ff000000000000000019168555604051600181527fc7f505b2f371ae2175ee4913f4499e1f2633a7b5936321eed1cdaeb6115181d29060200160405180910390a15b5050505050505050505050565b5f8060035f9054906101000a90046001600160a01b03166001600160a01b0316631bf01e9b6040518163ffffffff1660e01b8152600401602060405180830381865afa158015612059573d5f803e3d5ffd5b505050506040513d601f19601f8201168201806040525081019061207d9190613988565b90505f816001600160a01b031663313ce5676040518163ffffffff1660e01b8152600401602060405180830381865afa1580156120bc573d5f803e3d5ffd5b505050506040513d601f19601f820116820180604052508101906120e091906137ce565b90505f6120ee826012613819565b6120f990600a613912565b6121016111da565b61210b9190613920565b90506121357f52c63247e1f47db19d5ce0460030c497f067ca4cebf71ba98eeadabe20bace025490565b61213f9082613937565b61215190670de0b6b3a7640000613920565b935050505090565b61216161255f565b6001600160a01b0381166121a3576040517f1e4fbdf70000000000000000000000000000000000000000000000000000000081525f6004820152602401610668565b6121ac816129cb565b50565b7f9b779b17422d0df92223018b32b4d1fa46e071723d6817e2486d003becc55f0080547ffffffffffffffffffffffffffffffffffffffffffffffffffffffffffffffffe0161222a576040517f3ee5aeb500000000000000000000000000000000000000000000000000000000815260040160405180910390fd5b60029055565b7fcd5ed15c6e187e77e9aee88184c21f4f2182ab5827cb3b7e07fbedcd63f033005460ff1615611673576040517fd93c066500000000000000000000000000000000000000000000000000000000815260040160405180910390fd5b6001600160a01b0382166122ce576040517f96c6fd1e0000000000000000000000000000000000000000000000000000000081525f6004820152602401610668565b6110c5825f83612eed565b5f8060035f9054906101000a90046001600160a01b03166001600160a01b03166385462d6f6040518163ffffffff1660e01b8152600401602060405180830381865afa15801561232b573d5f803e3d5ffd5b505050506040513d601f19601f8201168201806040525081019061234f91906137ee565b90505f60035f9054906101000a90046001600160a01b03166001600160a01b0316634f4608a26040518163ffffffff1660e01b8152600401602060405180830381865afa1580156123a2573d5f803e3d5ffd5b505050506040513d601f19601f820116820180604052508101906123c691906137ee565b9050806123d38386613920565b6123dd9190613937565b949350505050565b60017f9b779b17422d0df92223018b32b4d1fa46e071723d6817e2486d003becc55f0055565b6124188383836001613052565b505050565b6001600160a01b038381165f9081527f52c63247e1f47db19d5ce0460030c497f067ca4cebf71ba98eeadabe20bace0160209081526040808320938616835292905220545f1981146124ca57818110156124bc576040517ffb8f41b20000000000000000000000000000000000000000000000000000000081526001600160a01b03841660048201526024810182905260448101839052606401610668565b6124ca84848484035f613052565b50505050565b6001600160a01b038316612512576040517f96c6fd1e0000000000000000000000000000000000000000000000000000000081525f6004820152602401610668565b6001600160a01b038216612554576040517fec442f050000000000000000000000000000000000000000000000000000000081525f6004820152602401610668565b612418838383612eed565b336125917f9016d09d72d40fdae2fd8ceac6b6234c7706214fd39c1cd1e609a0528c199300546001600160a01b031690565b6001600160a01b031614611673576040517f118cdaa7000000000000000000000000000000000000000000000000000000008152336004820152602401610668565b6125db61317b565b7fcd5ed15c6e187e77e9aee88184c21f4f2182ab5827cb3b7e07fbedcd63f03300805460ff191681557f5db9ee0a495bf2e6ff9c91a7834c1ba4fdd244a5e8aa4e537bd38aeae4b073aa335b6040516001600160a01b03909116815260200160405180910390a150565b306001600160a01b037f00000000000000000000000000000000000000000000000000000000000000001614806126de57507f00000000000000000000000000000000000000000000000000000000000000006001600160a01b03166126d27f360894a13ba1a3210667c828492db98dca3e2076cc3735a920a3ca505d382bbc546001600160a01b031690565b6001600160a01b031614155b15611673576040517fe07c8dba00000000000000000000000000000000000000000000000000000000815260040160405180910390fd5b6121ac61255f565b816001600160a01b03166352d1902d6040518163ffffffff1660e01b8152600401602060405180830381865afa925050508015612777575060408051601f3d908101601f19168201909252612774918101906137ee565b60015b6127b8576040517f4c9c8ce30000000000000000000000000000000000000000000000000000000081526001600160a01b0383166004820152602401610668565b7f360894a13ba1a3210667c828492db98dca3e2076cc3735a920a3ca505d382bbc8114612814576040517faa1d49a400000000000000000000000000000000000000000000000000000000815260048101829052602401610668565b61241883836131d6565b306001600160a01b037f00000000000000000000000000000000000000000000000000000000000000001614611673576040517fe07c8dba00000000000000000000000000000000000000000000000000000000815260040160405180910390fd5b6001546040516370a0823160e01b81523060048201525f916001600160a01b0316906307a2d13a9082906370a0823190602401602060405180830381865afa1580156128ce573d5f803e3d5ffd5b505050506040513d601f19601f820116820180604052508101906128f291906137ee565b6040518263ffffffff1660e01b815260040161291091815260200190565b602060405180830381865afa15801561292b573d5f803e3d5ffd5b505050506040513d601f19601f8201168201806040525081019061294f91906137ee565b90505f6005548211612961575f61296e565b60055461296e9083613956565b905080156110c5576110c5612aa3565b6001600160a01b0382166129c0576040517fec442f050000000000000000000000000000000000000000000000000000000081525f6004820152602401610668565b6110c55f8383612eed565b7f9016d09d72d40fdae2fd8ceac6b6234c7706214fd39c1cd1e609a0528c199300805473ffffffffffffffffffffffffffffffffffffffff1981166001600160a01b03848116918217845560405192169182907f8be0079c531659141344cd1fd0a4f28419497f9722a3daafe3b4186f6b6457e0905f90a3505050565b612a50612230565b7fcd5ed15c6e187e77e9aee88184c21f4f2182ab5827cb3b7e07fbedcd63f03300805460ff191660011781557f62e78cea01bee320cd4e420270b5ea74000d11b0c9f74754ebdbfc544b05a25833612627565b6001546040516370a0823160e01b81523060048201525f916001600160a01b0316906307a2d13a9082906370a0823190602401602060405180830381865afa158015612af1573d5f803e3d5ffd5b505050506040513d601f19601f82011682018060405250810190612b1591906137ee565b6040518263ffffffff1660e01b8152600401612b3391815260200190565b602060405180830381865afa158015612b4e573d5f803e3d5ffd5b505050506040513d601f19601f82011682018060405250810190612b7291906137ee565b90505f6005548211612b84575f612b91565b600554612b919083613956565b90505f8111612be25760405162461bcd60e51b815260206004820152601560248201527f4e6f20696e74657265737420617661696c61626c6500000000000000000000006044820152606401610668565b6001546040517f0a28a477000000000000000000000000000000000000000000000000000000008152600481018390525f916001600160a01b031690630a28a47790602401602060405180830381865afa158015612c42573d5f803e3d5ffd5b505050506040513d601f19601f82011682018060405250810190612c6691906137ee565b6001546040517fba08765200000000000000000000000000000000000000000000000000000000815260048101839052306024820181905260448201529192506001600160a01b03169063ba087652906064016020604051808303815f875af1158015612cd5573d5f803e3d5ffd5b505050506040513d601f19601f82011682018060405250810190612cf991906137ee565b50600354604080517f82755ebb00000000000000000000000000000000000000000000000000000000815290515f926001600160a01b0316916382755ebb9160048083019260209291908290030181865afa158015612d5a573d5f803e3d5ffd5b505050506040513d601f19601f82011682018060405250810190612d7e9190613988565b5f546040517f095ea7b30000000000000000000000000000000000000000000000000000000081526001600160a01b0380841660048301526024820187905292935091169063095ea7b3906044016020604051808303815f875af1158015612de8573d5f803e3d5ffd5b505050506040513d601f19601f82011682018060405250810190612e0c9190613969565b505f80546002546040517f2d6bc8ea0000000000000000000000000000000000000000000000000000000081526001600160a01b03928316600482015290821660248201526044810186905230606482015290831690632d6bc8ea906084016020604051808303815f875af1158015612e87573d5f803e3d5ffd5b505050506040513d601f19601f82011682018060405250810190612eab91906137ee565b90508060045f828254612ebe91906139db565b90915550505050505050565b612ed261322b565b6121ac81613292565b612ee361322b565b6110c5828261329a565b7f52c63247e1f47db19d5ce0460030c497f067ca4cebf71ba98eeadabe20bace006001600160a01b038416612f3a5781816002015f828254612f2f91906139db565b90915550612fc39050565b6001600160a01b0384165f9081526020829052604090205482811015612fa5576040517fe450d38c0000000000000000000000000000000000000000000000000000000081526001600160a01b03861660048201526024810182905260448101849052606401610668565b6001600160a01b0385165f9081526020839052604090209083900390555b6001600160a01b038316612fe1576002810180548390039055612fff565b6001600160a01b0383165f9081526020829052604090208054830190555b826001600160a01b0316846001600160a01b03167fddf252ad1be2c89b69c2b068fc378daa952ba7f163c4a11628f55a4df523b3ef8460405161304491815260200190565b60405180910390a350505050565b7f52c63247e1f47db19d5ce0460030c497f067ca4cebf71ba98eeadabe20bace006001600160a01b0385166130b5576040517fe602df050000000000000000000000000000000000000000000000000000000081525f6004820152602401610668565b6001600160a01b0384166130f7576040517f94280d620000000000000000000000000000000000000000000000000000000081525f6004820152602401610668565b6001600160a01b038086165f9081526001830160209081526040808320938816835292905220839055811561317457836001600160a01b0316856001600160a01b03167f8c5be1e5ebec7d5bd14f71427d1e84f3dd0314c0f7b2291e5b200ac8c7c3b9258560405161316b91815260200190565b60405180910390a35b5050505050565b7fcd5ed15c6e187e77e9aee88184c21f4f2182ab5827cb3b7e07fbedcd63f033005460ff16611673576040517f8dfc202b00000000000000000000000000000000000000000000000000000000815260040160405180910390fd5b6131df826132fd565b6040516001600160a01b038316907fbc7cd75a20ee27fd9adebab32041f755214dbc6bffa90cc0225b39da2e5c2d3b905f90a2805115613223576124188282613399565b6110c561340b565b7ff0c57e16840df040f15088dc2f81fe391c3923bec73e23a9662efc9c229c6a005468010000000000000000900460ff16611673576040517fd7e6bcf800000000000000000000000000000000000000000000000000000000815260040160405180910390fd5b61216161322b565b6132a261322b565b7f52c63247e1f47db19d5ce0460030c497f067ca4cebf71ba98eeadabe20bace007f52c63247e1f47db19d5ce0460030c497f067ca4cebf71ba98eeadabe20bace036132ee8482613a32565b50600481016124ca8382613a32565b806001600160a01b03163b5f0361334b576040517f4c9c8ce30000000000000000000000000000000000000000000000000000000081526001600160a01b0382166004820152602401610668565b7f360894a13ba1a3210667c828492db98dca3e2076cc3735a920a3ca505d382bbc805473ffffffffffffffffffffffffffffffffffffffff19166001600160a01b0392909216919091179055565b60605f80846001600160a01b0316846040516133b59190613af2565b5f60405180830381855af49150503d805f81146133ed576040519150601f19603f3d011682016040523d82523d5f602084013e6133f2565b606091505b5091509150613402858383613443565b95945050505050565b3415611673576040517fb398979f00000000000000000000000000000000000000000000000000000000815260040160405180910390fd5b60608261345857613453826134b8565b6111d3565b815115801561346f57506001600160a01b0384163b155b156134b1576040517f9996b3150000000000000000000000000000000000000000000000000000000081526001600160a01b0385166004820152602401610668565b50806111d3565b8051156134c85780518082602001fd5b6040517f1425ea4200000000000000000000000000000000000000000000000000000000815260040160405180910390fd5b6001600160a01b03811681146121ac575f80fd5b5f806040838503121561351f575f80fd5b823591506020830135613531816134fa565b809150509250929050565b602081525f82518060208401528060208501604085015e5f604082850101526040601f19601f83011684010191505092915050565b5f8060408385031215613582575f80fd5b823561358d816134fa565b946020939093013593505050565b5f805f606084860312156135ad575f80fd5b83356135b8816134fa565b925060208401356135c8816134fa565b929592945050506040919091013590565b634e487b7160e01b5f52604160045260245ffd5b5f67ffffffffffffffff80841115613607576136076135d9565b604051601f8501601f19908116603f0116810190828211818310171561362f5761362f6135d9565b81604052809350858152868686011115613647575f80fd5b858560208301375f602087830101525050509392505050565b5f8060408385031215613671575f80fd5b823561367c816134fa565b9150602083013567ffffffffffffffff811115613697575f80fd5b8301601f810185136136a7575f80fd5b6136b6858235602084016135ed565b9150509250929050565b5f602082840312156136d0575f80fd5b81356111d3816134fa565b5f80604083850312156136ec575f80fd5b82356136f7816134fa565b91506020830135613531816134fa565b5f82601f830112613716575f80fd5b6111d3838335602085016135ed565b5f805f805f8060c0878903121561373a575f80fd5b863567ffffffffffffffff80821115613751575f80fd5b61375d8a838b01613707565b97506020890135915080821115613772575f80fd5b5061377f89828a01613707565b9550506040870135613790816134fa565b935060608701356137a0816134fa565b925060808701356137b0816134fa565b915060a08701356137c0816134fa565b809150509295509295509295565b5f602082840312156137de575f80fd5b815160ff811681146111d3575f80fd5b5f602082840312156137fe575f80fd5b5051919050565b634e487b7160e01b5f52601160045260245ffd5b60ff82811682821603908111156111af576111af613805565b600181815b8085111561386c57815f190482111561385257613852613805565b8085161561385f57918102915b93841c9390800290613837565b509250929050565b5f82613882575060016111af565b8161388e57505f6111af565b81600181146138a457600281146138ae576138ca565b60019150506111af565b60ff8411156138bf576138bf613805565b50506001821b6111af565b5060208310610133831016604e8410600b84101617156138ed575081810a6111af565b6138f78383613832565b805f190482111561390a5761390a613805565b029392505050565b5f6111d360ff841683613874565b80820281158282048414176111af576111af613805565b5f8261395157634e487b7160e01b5f52601260045260245ffd5b500490565b818103818111156111af576111af613805565b5f60208284031215613979575f80fd5b815180151581146111d3575f80fd5b5f60208284031215613998575f80fd5b81516111d3816134fa565b600181811c908216806139b757607f821691505b6020821081036139d557634e487b7160e01b5f52602260045260245ffd5b50919050565b808201808211156111af576111af613805565b601f82111561241857805f5260205f20601f840160051c81016020851015613a135750805b601f840160051c820191505b81811015613174575f8155600101613a1f565b815167ffffffffffffffff811115613a4c57613a4c6135d9565b613a6081613a5a84546139a3565b846139ee565b602080601f831160018114613a93575f8415613a7c5750858301515b5f19600386901b1c1916600185901b178555613aea565b5f85815260208120601f198616915b82811015613ac157888601518255948401946001909101908401613aa2565b5085821015613ade57878501515f19600388901b60f8161c191681555b505060018460011b0185555b505050505050565b5f82518060208501845e5f92019182525091905056fea264697066735822122031a5b8de8035a6ab9859423c7b254cda8cd5951245ec65c9be575d8694c7752b64736f6c63430008190033",
  "linkReferences": {},
  "deployedLinkReferences": {}
}