{
  "_format": "hh-sol-artifact-1",
  "contractName": "BaluniV1yVault",
  "sourceName": "contracts/vaults/BaluniV1yVault.sol",
  "abi": [
    {
      "inputs": [
        {
          "internalType": "address",
          "name": "target",
          "type": "address"
        }
      ],
      "name": "AddressEmptyCode",
      "type": "error"
    },
    {
      "inputs": [
        {
          "internalType": "address",
          "name": "implementation",
          "type": "address"
        }
      ],
      "name": "ERC1967InvalidImplementation",
      "type": "error"
    },
    {
      "inputs": [],
      "name": "ERC1967NonPayable",
      "type": "error"
    },
    {
      "inputs": [
        {
          "internalType": "address",
          "name": "spender",
          "type": "address"
        },
        {
          "internalType": "uint256",
          "name": "allowance",
          "type": "uint256"
        },
        {
          "internalType": "uint256",
          "name": "needed",
          "type": "uint256"
        }
      ],
      "name": "ERC20InsufficientAllowance",
      "type": "error"
    },
    {
      "inputs": [
        {
          "internalType": "address",
          "name": "sender",
          "type": "address"
        },
        {
          "internalType": "uint256",
          "name": "balance",
          "type": "uint256"
        },
        {
          "internalType": "uint256",
          "name": "needed",
          "type": "uint256"
        }
      ],
      "name": "ERC20InsufficientBalance",
      "type": "error"
    },
    {
      "inputs": [
        {
          "internalType": "address",
          "name": "approver",
          "type": "address"
        }
      ],
      "name": "ERC20InvalidApprover",
      "type": "error"
    },
    {
      "inputs": [
        {
          "internalType": "address",
          "name": "receiver",
          "type": "address"
        }
      ],
      "name": "ERC20InvalidReceiver",
      "type": "error"
    },
    {
      "inputs": [
        {
          "internalType": "address",
          "name": "sender",
          "type": "address"
        }
      ],
      "name": "ERC20InvalidSender",
      "type": "error"
    },
    {
      "inputs": [
        {
          "internalType": "address",
          "name": "spender",
          "type": "address"
        }
      ],
      "name": "ERC20InvalidSpender",
      "type": "error"
    },
    {
      "inputs": [],
      "name": "EnforcedPause",
      "type": "error"
    },
    {
      "inputs": [],
      "name": "ExpectedPause",
      "type": "error"
    },
    {
      "inputs": [],
      "name": "FailedInnerCall",
      "type": "error"
    },
    {
      "inputs": [],
      "name": "InvalidInitialization",
      "type": "error"
    },
    {
      "inputs": [],
      "name": "NotInitializing",
      "type": "error"
    },
    {
      "inputs": [
        {
          "internalType": "address",
          "name": "owner",
          "type": "address"
        }
      ],
      "name": "OwnableInvalidOwner",
      "type": "error"
    },
    {
      "inputs": [
        {
          "internalType": "address",
          "name": "account",
          "type": "address"
        }
      ],
      "name": "OwnableUnauthorizedAccount",
      "type": "error"
    },
    {
      "inputs": [],
      "name": "ReentrancyGuardReentrantCall",
      "type": "error"
    },
    {
      "inputs": [],
      "name": "UUPSUnauthorizedCallContext",
      "type": "error"
    },
    {
      "inputs": [
        {
          "internalType": "bytes32",
          "name": "slot",
          "type": "bytes32"
        }
      ],
      "name": "UUPSUnsupportedProxiableUUID",
      "type": "error"
    },
    {
      "anonymous": false,
      "inputs": [
        {
          "indexed": true,
          "internalType": "address",
          "name": "owner",
          "type": "address"
        },
        {
          "indexed": true,
          "internalType": "address",
          "name": "spender",
          "type": "address"
        },
        {
          "indexed": false,
          "internalType": "uint256",
          "name": "value",
          "type": "uint256"
        }
      ],
      "name": "Approval",
      "type": "event"
    },
    {
      "anonymous": false,
      "inputs": [
        {
          "indexed": true,
          "internalType": "address",
          "name": "sender",
          "type": "address"
        },
        {
          "indexed": false,
          "internalType": "uint256",
          "name": "amount",
          "type": "uint256"
        },
        {
          "indexed": false,
          "internalType": "uint256",
          "name": "interest",
          "type": "uint256"
        }
      ],
      "name": "Buy",
      "type": "event"
    },
    {
      "anonymous": false,
      "inputs": [
        {
          "indexed": false,
          "internalType": "uint64",
          "name": "version",
          "type": "uint64"
        }
      ],
      "name": "Initialized",
      "type": "event"
    },
    {
      "anonymous": false,
      "inputs": [
        {
          "indexed": true,
          "internalType": "address",
          "name": "previousOwner",
          "type": "address"
        },
        {
          "indexed": true,
          "internalType": "address",
          "name": "newOwner",
          "type": "address"
        }
      ],
      "name": "OwnershipTransferred",
      "type": "event"
    },
    {
      "anonymous": false,
      "inputs": [
        {
          "indexed": false,
          "internalType": "address",
          "name": "account",
          "type": "address"
        }
      ],
      "name": "Paused",
      "type": "event"
    },
    {
      "anonymous": false,
      "inputs": [
        {
          "indexed": true,
          "internalType": "address",
          "name": "from",
          "type": "address"
        },
        {
          "indexed": true,
          "internalType": "address",
          "name": "to",
          "type": "address"
        },
        {
          "indexed": false,
          "internalType": "uint256",
          "name": "value",
          "type": "uint256"
        }
      ],
      "name": "Transfer",
      "type": "event"
    },
    {
      "anonymous": false,
      "inputs": [
        {
          "indexed": false,
          "internalType": "address",
          "name": "account",
          "type": "address"
        }
      ],
      "name": "Unpaused",
      "type": "event"
    },
    {
      "anonymous": false,
      "inputs": [
        {
          "indexed": true,
          "internalType": "address",
          "name": "implementation",
          "type": "address"
        }
      ],
      "name": "Upgraded",
      "type": "event"
    },
    {
      "inputs": [],
      "name": "UPGRADE_INTERFACE_VERSION",
      "outputs": [
        {
          "internalType": "string",
          "name": "",
          "type": "string"
        }
      ],
      "stateMutability": "view",
      "type": "function"
    },
    {
      "inputs": [],
      "name": "accumulatedAssetB",
      "outputs": [
        {
          "internalType": "uint256",
          "name": "",
          "type": "uint256"
        }
      ],
      "stateMutability": "view",
      "type": "function"
    },
    {
      "inputs": [
        {
          "internalType": "address",
          "name": "owner",
          "type": "address"
        },
        {
          "internalType": "address",
          "name": "spender",
          "type": "address"
        }
      ],
      "name": "allowance",
      "outputs": [
        {
          "internalType": "uint256",
          "name": "",
          "type": "uint256"
        }
      ],
      "stateMutability": "view",
      "type": "function"
    },
    {
      "inputs": [
        {
          "internalType": "address",
          "name": "spender",
          "type": "address"
        },
        {
          "internalType": "uint256",
          "name": "value",
          "type": "uint256"
        }
      ],
      "name": "approve",
      "outputs": [
        {
          "internalType": "bool",
          "name": "",
          "type": "bool"
        }
      ],
      "stateMutability": "nonpayable",
      "type": "function"
    },
    {
      "inputs": [
        {
          "internalType": "address",
          "name": "account",
          "type": "address"
        }
      ],
      "name": "balanceOf",
      "outputs": [
        {
          "internalType": "uint256",
          "name": "",
          "type": "uint256"
        }
      ],
      "stateMutability": "view",
      "type": "function"
    },
    {
      "inputs": [],
      "name": "baseAsset",
      "outputs": [
        {
          "internalType": "address",
          "name": "",
          "type": "address"
        }
      ],
      "stateMutability": "view",
      "type": "function"
    },
    {
      "inputs": [],
      "name": "buy",
      "outputs": [],
      "stateMutability": "nonpayable",
      "type": "function"
    },
    {
      "inputs": [],
      "name": "decimals",
      "outputs": [
        {
          "internalType": "uint8",
          "name": "",
          "type": "uint8"
        }
      ],
      "stateMutability": "view",
      "type": "function"
    },
    {
      "inputs": [
        {
          "internalType": "uint256",
          "name": "amount",
          "type": "uint256"
        },
        {
          "internalType": "address",
          "name": "to",
          "type": "address"
        }
      ],
      "name": "deposit",
      "outputs": [],
      "stateMutability": "nonpayable",
      "type": "function"
    },
    {
      "inputs": [
        {
          "internalType": "string",
          "name": "_name",
          "type": "string"
        },
        {
          "internalType": "string",
          "name": "_symbol",
          "type": "string"
        },
        {
          "internalType": "address",
          "name": "_assetA",
          "type": "address"
        },
        {
          "internalType": "address",
          "name": "_yearnVaultAddress",
          "type": "address"
        },
        {
          "internalType": "address",
          "name": "_assetB",
          "type": "address"
        },
        {
          "internalType": "address",
          "name": "_registryAddress",
          "type": "address"
        }
      ],
      "name": "initialize",
      "outputs": [],
      "stateMutability": "nonpayable",
      "type": "function"
    },
    {
      "inputs": [],
      "name": "interestEarned",
      "outputs": [
        {
          "internalType": "uint256",
          "name": "",
          "type": "uint256"
        }
      ],
      "stateMutability": "view",
      "type": "function"
    },
    {
      "inputs": [],
      "name": "lastDeposit",
      "outputs": [
        {
          "internalType": "uint256",
          "name": "",
          "type": "uint256"
        }
      ],
      "stateMutability": "view",
      "type": "function"
    },
    {
      "inputs": [],
      "name": "name",
      "outputs": [
        {
          "internalType": "string",
          "name": "",
          "type": "string"
        }
      ],
      "stateMutability": "view",
      "type": "function"
    },
    {
      "inputs": [],
      "name": "owner",
      "outputs": [
        {
          "internalType": "address",
          "name": "",
          "type": "address"
        }
      ],
      "stateMutability": "view",
      "type": "function"
    },
    {
      "inputs": [],
      "name": "pause",
      "outputs": [],
      "stateMutability": "nonpayable",
      "type": "function"
    },
    {
      "inputs": [],
      "name": "paused",
      "outputs": [
        {
          "internalType": "bool",
          "name": "",
          "type": "bool"
        }
      ],
      "stateMutability": "view",
      "type": "function"
    },
    {
      "inputs": [],
      "name": "proxiableUUID",
      "outputs": [
        {
          "internalType": "bytes32",
          "name": "",
          "type": "bytes32"
        }
      ],
      "stateMutability": "view",
      "type": "function"
    },
    {
      "inputs": [],
      "name": "quoteAsset",
      "outputs": [
        {
          "internalType": "address",
          "name": "",
          "type": "address"
        }
      ],
      "stateMutability": "view",
      "type": "function"
    },
    {
      "inputs": [],
      "name": "registry",
      "outputs": [
        {
          "internalType": "address",
          "name": "",
          "type": "address"
        }
      ],
      "stateMutability": "view",
      "type": "function"
    },
    {
      "inputs": [],
      "name": "renounceOwnership",
      "outputs": [],
      "stateMutability": "nonpayable",
      "type": "function"
    },
    {
      "inputs": [],
      "name": "symbol",
      "outputs": [
        {
          "internalType": "string",
          "name": "",
          "type": "string"
        }
      ],
      "stateMutability": "view",
      "type": "function"
    },
    {
      "inputs": [],
      "name": "totalSupply",
      "outputs": [
        {
          "internalType": "uint256",
          "name": "",
          "type": "uint256"
        }
      ],
      "stateMutability": "view",
      "type": "function"
    },
    {
      "inputs": [],
      "name": "totalValuation",
      "outputs": [
        {
          "internalType": "uint256",
          "name": "",
          "type": "uint256"
        }
      ],
      "stateMutability": "view",
      "type": "function"
    },
    {
      "inputs": [
        {
          "internalType": "address",
          "name": "to",
          "type": "address"
        },
        {
          "internalType": "uint256",
          "name": "value",
          "type": "uint256"
        }
      ],
      "name": "transfer",
      "outputs": [
        {
          "internalType": "bool",
          "name": "",
          "type": "bool"
        }
      ],
      "stateMutability": "nonpayable",
      "type": "function"
    },
    {
      "inputs": [
        {
          "internalType": "address",
          "name": "from",
          "type": "address"
        },
        {
          "internalType": "address",
          "name": "to",
          "type": "address"
        },
        {
          "internalType": "uint256",
          "name": "value",
          "type": "uint256"
        }
      ],
      "name": "transferFrom",
      "outputs": [
        {
          "internalType": "bool",
          "name": "",
          "type": "bool"
        }
      ],
      "stateMutability": "nonpayable",
      "type": "function"
    },
    {
      "inputs": [
        {
          "internalType": "address",
          "name": "newOwner",
          "type": "address"
        }
      ],
      "name": "transferOwnership",
      "outputs": [],
      "stateMutability": "nonpayable",
      "type": "function"
    },
    {
      "inputs": [],
      "name": "unitPrice",
      "outputs": [
        {
          "internalType": "uint256",
          "name": "",
          "type": "uint256"
        }
      ],
      "stateMutability": "view",
      "type": "function"
    },
    {
      "inputs": [],
      "name": "unpause",
      "outputs": [],
      "stateMutability": "nonpayable",
      "type": "function"
    },
    {
      "inputs": [
        {
          "internalType": "address",
          "name": "newImplementation",
          "type": "address"
        },
        {
          "internalType": "bytes",
          "name": "data",
          "type": "bytes"
        }
      ],
      "name": "upgradeToAndCall",
      "outputs": [],
      "stateMutability": "payable",
      "type": "function"
    },
    {
      "inputs": [
        {
          "internalType": "uint256",
          "name": "shares",
          "type": "uint256"
        },
        {
          "internalType": "address",
          "name": "to",
          "type": "address"
        }
      ],
      "name": "withdraw",
      "outputs": [],
      "stateMutability": "nonpayable",
      "type": "function"
    },
    {
      "inputs": [],
      "name": "yearnVault",
      "outputs": [
        {
          "internalType": "address",
          "name": "",
          "type": "address"
        }
      ],
      "stateMutability": "view",
      "type": "function"
    }
  ],
  "bytecode": "0x60a0604052306080523480156012575f80fd5b50608051613cd66100395f395f81816126af015281816126d801526128880152613cd65ff3fe6080604052600436106101cf575f3560e01c8063715018a6116100fd578063ad3cb1cc11610092578063e73faa2d11610062578063e73faa2d146105c5578063f2fde38b146105d9578063f7fde10f146105f8578063fdf262b71461060d575f80fd5b8063ad3cb1cc146104dd578063cdf456e114610525578063dd62ed3e14610543578063e56f2fe4146105a6575f80fd5b806395d89b41116100cd57806395d89b41146104795780639db5df461461048d578063a6f2ae3a146104aa578063a9059cbb146104be575f80fd5b8063715018a6146103e45780637b103999146103f85780638456cb59146104295780638da5cb5b1461043d575f80fd5b806336b771071161017357806352d1902d1161014357806352d1902d146103285780635c975abb1461033c5780636e553f651461037257806370a0823114610391575f80fd5b806336b77107146102d8578063374261ab146102ed5780633f4ba83a146103015780634f1ef28614610315575f80fd5b806318160ddd116101ae57806318160ddd1461024d57806323b872dd1461028a578063295b9300146102a9578063313ce567146102bd575f80fd5b8062f714ce146101d357806306fdde03146101f4578063095ea7b31461021e575b5f80fd5b3480156101de575f80fd5b506101f26101ed3660046136a6565b61062c565b005b3480156101ff575f80fd5b506102086110fd565b60405161021591906136d4565b60405180910390f35b348015610229575f80fd5b5061023d610238366004613709565b6111d0565b6040519015158152602001610215565b348015610258575f80fd5b507f52c63247e1f47db19d5ce0460030c497f067ca4cebf71ba98eeadabe20bace02545b604051908152602001610215565b348015610295575f80fd5b5061023d6102a4366004613733565b6111e9565b3480156102b4575f80fd5b5061027c61120e565b3480156102c8575f80fd5b5060405160128152602001610215565b3480156102e3575f80fd5b5061027c60055481565b3480156102f8575f80fd5b5061027c6115d0565b34801561030c575f80fd5b506101f26116c2565b6101f26103233660046137f8565b6116d4565b348015610333575f80fd5b5061027c6116ef565b348015610347575f80fd5b507fcd5ed15c6e187e77e9aee88184c21f4f2182ab5827cb3b7e07fbedcd63f033005460ff1661023d565b34801561037d575f80fd5b506101f261038c3660046136a6565b61171d565b34801561039c575f80fd5b5061027c6103ab366004613858565b6001600160a01b03165f9081527f52c63247e1f47db19d5ce0460030c497f067ca4cebf71ba98eeadabe20bace00602052604090205490565b3480156103ef575f80fd5b506101f2611ced565b348015610403575f80fd5b506003546001600160a01b03165b6040516001600160a01b039091168152602001610215565b348015610434575f80fd5b506101f2611cfe565b348015610448575f80fd5b507f9016d09d72d40fdae2fd8ceac6b6234c7706214fd39c1cd1e609a0528c199300546001600160a01b0316610411565b348015610484575f80fd5b50610208611d0e565b348015610498575f80fd5b506001546001600160a01b0316610411565b3480156104b5575f80fd5b506101f2611d5f565b3480156104c9575f80fd5b5061023d6104d8366004613709565b611da8565b3480156104e8575f80fd5b506102086040518060400160405280600581526020017f352e302e3000000000000000000000000000000000000000000000000000000081525081565b348015610530575f80fd5b505f54610411906001600160a01b031681565b34801561054e575f80fd5b5061027c61055d366004613873565b6001600160a01b039182165f9081527f52c63247e1f47db19d5ce0460030c497f067ca4cebf71ba98eeadabe20bace016020908152604080832093909416825291909152205490565b3480156105b1575f80fd5b506101f26105c03660046138bd565b611db5565b3480156105d0575f80fd5b5061027c612066565b3480156105e4575f80fd5b506101f26105f3366004613858565b6121b8565b348015610603575f80fd5b5061027c60045481565b348015610618575f80fd5b50600254610411906001600160a01b031681565b61063461220e565b61063c61228f565b5f82116106905760405162461bcd60e51b815260206004820181905260248201527f536861726573206d7573742062652067726561746572207468616e207a65726f60448201526064015b60405180910390fd5b335f9081527f52c63247e1f47db19d5ce0460030c497f067ca4cebf71ba98eeadabe20bace00602052604090205482111561070d5760405162461bcd60e51b815260206004820152601460248201527f496e73756666696369656e742062616c616e63650000000000000000000000006044820152606401610687565b600154604080517f313ce56700000000000000000000000000000000000000000000000000000000815290515f926001600160a01b03169163313ce5679160048083019260209291908290030181865afa15801561076d573d5f803e3d5ffd5b505050506040513d601f19601f820116820180604052508101906107919190613966565b90505f60025f9054906101000a90046001600160a01b03166001600160a01b031663313ce5676040518163ffffffff1660e01b8152600401602060405180830381865afa1580156107e4573d5f803e3d5ffd5b505050506040513d601f19601f820116820180604052508101906108089190613966565b6001546040516370a0823160e01b81523060048201529192505f916001600160a01b03909116906370a0823190602401602060405180830381865afa158015610853573d5f803e3d5ffd5b505050506040513d601f19601f820116820180604052508101906108779190613986565b6002546040516370a0823160e01b81523060048201529192505f916001600160a01b03909116906370a0823190602401602060405180830381865afa1580156108c2573d5f803e3d5ffd5b505050506040513d601f19601f820116820180604052508101906108e69190613986565b5f80546040516370a0823160e01b815230600482015292935090916001600160a01b03909116906370a0823190602401602060405180830381865afa158015610931573d5f803e3d5ffd5b505050506040513d601f19601f820116820180604052508101906109559190613986565b90506109628560126139b1565b61096d90600a613aaa565b6109779084613ab8565b92506109848460126139b1565b61098f90600a613aaa565b6109999083613ab8565b91505f6109c47f52c63247e1f47db19d5ce0460030c497f067ca4cebf71ba98eeadabe20bace025490565b6109ce858a613ab8565b6109d89190613acf565b90505f610a037f52c63247e1f47db19d5ce0460030c497f067ca4cebf71ba98eeadabe20bace025490565b610a0d858b613ab8565b610a179190613acf565b9050610a23338a6122eb565b610a2e8760126139b1565b610a3990600a613aaa565b610a439083613acf565b9150610a508660126139b1565b610a5b90600a613aaa565b610a659082613acf565b6001546040517fba08765200000000000000000000000000000000000000000000000000000000815260048101859052306024820181905260448201529192506001600160a01b03169063ba087652906064016020604051808303815f875af1158015610ad4573d5f803e3d5ffd5b505050506040513d601f19601f82011682018060405250810190610af89190613986565b505f80546040516370a0823160e01b81523060048201526001600160a01b03909116906370a0823190602401602060405180830381865afa158015610b3f573d5f803e3d5ffd5b505050506040513d601f19601f82011682018060405250810190610b639190613986565b90505f610b708583613aee565b90505f610b7c82612338565b5f549091506001600160a01b031663a9059cbb8c610b9a8486613aee565b6040517fffffffff0000000000000000000000000000000000000000000000000000000060e085901b1681526001600160a01b03909216600483015260248201526044016020604051808303815f875af1158015610bfa573d5f803e3d5ffd5b505050506040513d601f19601f82011682018060405250810190610c1e9190613b01565b505f610c2982612338565b90505f60035f9054906101000a90046001600160a01b03166001600160a01b03166304cc73256040518163ffffffff1660e01b8152600401602060405180830381865afa158015610c7c573d5f803e3d5ffd5b505050506040513d601f19601f82011682018060405250810190610ca09190613b20565b90505f60035f9054906101000a90046001600160a01b03166001600160a01b0316633b19e84a6040518163ffffffff1660e01b8152600401602060405180830381865afa158015610cf3573d5f803e3d5ffd5b505050506040513d601f19601f82011682018060405250810190610d179190613b20565b5f549091506001600160a01b031663a9059cbb83610d358688613aee565b6040517fffffffff0000000000000000000000000000000000000000000000000000000060e085901b1681526001600160a01b03909216600483015260248201526044016020604051808303815f875af1158015610d95573d5f803e3d5ffd5b505050506040513d601f19601f82011682018060405250810190610db99190613b01565b505f5460405163a9059cbb60e01b81526001600160a01b038381166004830152602482018690529091169063a9059cbb906044016020604051808303815f875af1158015610e09573d5f803e3d5ffd5b505050506040513d601f19601f82011682018060405250810190610e2d9190613b01565b50610e3787612338565b93508660045f828254610e4a9190613aee565b90915550506002546001600160a01b031663a9059cbb8f610e6b878b613aee565b6040517fffffffff0000000000000000000000000000000000000000000000000000000060e085901b1681526001600160a01b03909216600483015260248201526044016020604051808303815f875af1158015610ecb573d5f803e3d5ffd5b505050506040513d601f19601f82011682018060405250810190610eef9190613b01565b50610ef984612338565b5f549093506001600160a01b031663a9059cbb83610f178688613aee565b6040517fffffffff0000000000000000000000000000000000000000000000000000000060e085901b1681526001600160a01b03909216600483015260248201526044016020604051808303815f875af1158015610f77573d5f803e3d5ffd5b505050506040513d601f19601f82011682018060405250810190610f9b9190613b01565b505f5460405163a9059cbb60e01b81526001600160a01b038381166004830152602482018690529091169063a9059cbb906044016020604051808303815f875af1158015610feb573d5f803e3d5ffd5b505050506040513d601f19601f8201168201806040525081019061100f9190613b01565b506001546040516370a0823160e01b81523060048201526001600160a01b03909116906307a2d13a9082906370a0823190602401602060405180830381865afa15801561105e573d5f803e3d5ffd5b505050506040513d601f19601f820116820180604052508101906110829190613986565b6040518263ffffffff1660e01b81526004016110a091815260200190565b602060405180830381865afa1580156110bb573d5f803e3d5ffd5b505050506040513d601f19601f820116820180604052508101906110df9190613986565b600555506110f99b506124449a5050505050505050505050565b5050565b7f52c63247e1f47db19d5ce0460030c497f067ca4cebf71ba98eeadabe20bace0380546060917f52c63247e1f47db19d5ce0460030c497f067ca4cebf71ba98eeadabe20bace009161114e90613b3b565b80601f016020809104026020016040519081016040528092919081815260200182805461117a90613b3b565b80156111c55780601f1061119c576101008083540402835291602001916111c5565b820191905f5260205f20905b8154815290600101906020018083116111a857829003601f168201915b505050505091505090565b5f336111dd81858561246a565b60019150505b92915050565b5f336111f685828561247c565b61120185858561252f565b60019150505b9392505050565b5f8060035f9054906101000a90046001600160a01b03166001600160a01b031663bb3ba04c6040518163ffffffff1660e01b8152600401602060405180830381865afa158015611260573d5f803e3d5ffd5b505050506040513d601f19601f820116820180604052508101906112849190613b20565b90505f60035f9054906101000a90046001600160a01b03166001600160a01b0316631bf01e9b6040518163ffffffff1660e01b8152600401602060405180830381865afa1580156112d7573d5f803e3d5ffd5b505050506040513d601f19601f820116820180604052508101906112fb9190613b20565b6001546040516370a0823160e01b81523060048201529192505f9182916001600160a01b0316906370a0823190602401602060405180830381865afa158015611346573d5f803e3d5ffd5b505050506040513d601f19601f8201168201806040525081019061136a9190613986565b6001546040517f07a2d13a000000000000000000000000000000000000000000000000000000008152600481018390529192505f916001600160a01b03909116906307a2d13a90602401602060405180830381865afa1580156113cf573d5f803e3d5ffd5b505050506040513d601f19601f820116820180604052508101906113f39190613986565b6002546040516370a0823160e01b81523060048201529192505f916001600160a01b03909116906370a0823190602401602060405180830381865afa15801561143e573d5f803e3d5ffd5b505050506040513d601f19601f820116820180604052508101906114629190613986565b5f549091506001600160a01b03868116911614611519575f546040517f248391ff0000000000000000000000000000000000000000000000000000000081526001600160a01b0391821660048201528682166024820152604481018490529087169063248391ff90606401602060405180830381865afa1580156114e8573d5f803e3d5ffd5b505050506040513d601f19601f8201168201806040525081019061150c9190613986565b6115169085613b73565b93505b6002545f546040517f248391ff0000000000000000000000000000000000000000000000000000000081526001600160a01b0392831660048201529082166024820152604481018390529087169063248391ff90606401602060405180830381865afa15801561158b573d5f803e3d5ffd5b505050506040513d601f19601f820116820180604052508101906115af9190613986565b6115b99085613b73565b93506115c58285613b73565b979650505050505050565b6001546040516370a0823160e01b81523060048201525f9182916001600160a01b03909116906307a2d13a9082906370a0823190602401602060405180830381865afa158015611622573d5f803e3d5ffd5b505050506040513d601f19601f820116820180604052508101906116469190613986565b6040518263ffffffff1660e01b815260040161166491815260200190565b602060405180830381865afa15801561167f573d5f803e3d5ffd5b505050506040513d601f19601f820116820180604052508101906116a39190613986565b90505f60055482116116b5575f611207565b6005546112079083613aee565b6116ca6125be565b6116d2612632565b565b6116dc6126a4565b6116e582612774565b6110f9828261277c565b5f6116f861287d565b507f360894a13ba1a3210667c828492db98dca3e2076cc3735a920a3ca505d382bbc90565b61172561220e565b61172d61228f565b5f821161177c5760405162461bcd60e51b815260206004820181905260248201527f416d6f756e74206d7573742062652067726561746572207468616e207a65726f6044820152606401610687565b6117846128df565b5f546040517f23b872dd000000000000000000000000000000000000000000000000000000008152336004820152306024820152604481018490526001600160a01b03909116906323b872dd906064016020604051808303815f875af11580156117f0573d5f803e3d5ffd5b505050506040513d601f19601f820116820180604052508101906118149190613b01565b50600354604080517f04cc732500000000000000000000000000000000000000000000000000000000815290515f926001600160a01b0316916304cc73259160048083019260209291908290030181865afa158015611875573d5f803e3d5ffd5b505050506040513d601f19601f820116820180604052508101906118999190613b20565b90505f60035f9054906101000a90046001600160a01b03166001600160a01b0316633b19e84a6040518163ffffffff1660e01b8152600401602060405180830381865afa1580156118ec573d5f803e3d5ffd5b505050506040513d601f19601f820116820180604052508101906119109190613b20565b90505f61191c85612338565b90505f61192882612338565b5f549091506001600160a01b031663a9059cbb856119468486613aee565b6040517fffffffff0000000000000000000000000000000000000000000000000000000060e085901b1681526001600160a01b03909216600483015260248201526044016020604051808303815f875af11580156119a6573d5f803e3d5ffd5b505050506040513d601f19601f820116820180604052508101906119ca9190613b01565b505f5460405163a9059cbb60e01b81526001600160a01b038581166004830152602482018490529091169063a9059cbb906044016020604051808303815f875af1158015611a1a573d5f803e3d5ffd5b505050506040513d601f19601f82011682018060405250810190611a3e9190613b01565b505f611a4a8388613aee565b5f546001546040517f095ea7b30000000000000000000000000000000000000000000000000000000081526001600160a01b03918216600482015260248101849052929350169063095ea7b3906044016020604051808303815f875af1158015611ab6573d5f803e3d5ffd5b505050506040513d601f19601f82011682018060405250810190611ada9190613b01565b506001546040517f6e553f65000000000000000000000000000000000000000000000000000000008152600481018390523060248201526001600160a01b0390911690636e553f65906044016020604051808303815f875af1158015611b42573d5f803e3d5ffd5b505050506040513d601f19601f82011682018060405250810190611b669190613986565b505f805f9054906101000a90046001600160a01b03166001600160a01b031663313ce5676040518163ffffffff1660e01b8152600401602060405180830381865afa158015611bb7573d5f803e3d5ffd5b505050506040513d601f19601f82011682018060405250810190611bdb9190613966565b90505f611be98260126139b1565b611bf490600a613aaa565b611bfe9084613ab8565b9050611c0a8882612a79565b6001546040516370a0823160e01b81523060048201526001600160a01b03909116906307a2d13a9082906370a0823190602401602060405180830381865afa158015611c58573d5f803e3d5ffd5b505050506040513d601f19601f82011682018060405250810190611c7c9190613986565b6040518263ffffffff1660e01b8152600401611c9a91815260200190565b602060405180830381865afa158015611cb5573d5f803e3d5ffd5b505050506040513d601f19601f82011682018060405250810190611cd99190613986565b600555506110f99550612444945050505050565b611cf56125be565b6116d25f612ac6565b611d066125be565b6116d2612b43565b7f52c63247e1f47db19d5ce0460030c497f067ca4cebf71ba98eeadabe20bace0480546060917f52c63247e1f47db19d5ce0460030c497f067ca4cebf71ba98eeadabe20bace009161114e90613b3b565b611d6761220e565b611d6f6125be565b611d7761228f565b611d7f612b9e565b6116d260017f9b779b17422d0df92223018b32b4d1fa46e071723d6817e2486d003becc55f0055565b5f336111dd81858561252f565b7ff0c57e16840df040f15088dc2f81fe391c3923bec73e23a9662efc9c229c6a00805468010000000000000000810460ff16159067ffffffffffffffff165f81158015611dff5750825b90505f8267ffffffffffffffff166001148015611e1b5750303b155b905081158015611e29575080155b15611e60576040517ff92ee8a900000000000000000000000000000000000000000000000000000000815260040160405180910390fd5b84547fffffffffffffffffffffffffffffffffffffffffffffffff00000000000000001660011785558315611eab57845468ff00000000000000001916680100000000000000001785555b611eb433613062565b611ebe8b8b613073565b5f80546001600160a01b03808c1673ffffffffffffffffffffffffffffffffffffffff199283168117909355600180548c8316908416179055600280548b831690841617905560038054918a1691909216179055611f5e5760405162461bcd60e51b815260206004820152601660248201527f496e76616c6964206173736574412061646472657373000000000000000000006044820152606401610687565b6001546001600160a01b0316611fb65760405162461bcd60e51b815260206004820152601b60248201527f496e76616c696420596561726e205661756c74206164647265737300000000006044820152606401610687565b6002546001600160a01b031661200e5760405162461bcd60e51b815260206004820152601660248201527f496e76616c6964206173736574422061646472657373000000000000000000006044820152606401610687565b831561205957845468ff000000000000000019168555604051600181527fc7f505b2f371ae2175ee4913f4499e1f2633a7b5936321eed1cdaeb6115181d29060200160405180910390a15b5050505050505050505050565b5f8060035f9054906101000a90046001600160a01b03166001600160a01b0316631bf01e9b6040518163ffffffff1660e01b8152600401602060405180830381865afa1580156120b8573d5f803e3d5ffd5b505050506040513d601f19601f820116820180604052508101906120dc9190613b20565b90505f816001600160a01b031663313ce5676040518163ffffffff1660e01b8152600401602060405180830381865afa15801561211b573d5f803e3d5ffd5b505050506040513d601f19601f8201168201806040525081019061213f9190613966565b90505f61214d8260126139b1565b61215890600a613aaa565b61216061120e565b61216a9190613ab8565b90506121947f52c63247e1f47db19d5ce0460030c497f067ca4cebf71ba98eeadabe20bace025490565b61219e9082613acf565b6121b090670de0b6b3a7640000613ab8565b935050505090565b6121c06125be565b6001600160a01b038116612202576040517f1e4fbdf70000000000000000000000000000000000000000000000000000000081525f6004820152602401610687565b61220b81612ac6565b50565b7f9b779b17422d0df92223018b32b4d1fa46e071723d6817e2486d003becc55f0080547ffffffffffffffffffffffffffffffffffffffffffffffffffffffffffffffffe01612289576040517f3ee5aeb500000000000000000000000000000000000000000000000000000000815260040160405180910390fd5b60029055565b7fcd5ed15c6e187e77e9aee88184c21f4f2182ab5827cb3b7e07fbedcd63f033005460ff16156116d2576040517fd93c066500000000000000000000000000000000000000000000000000000000815260040160405180910390fd5b6001600160a01b03821661232d576040517f96c6fd1e0000000000000000000000000000000000000000000000000000000081525f6004820152602401610687565b6110f9825f83613085565b5f8060035f9054906101000a90046001600160a01b03166001600160a01b03166385462d6f6040518163ffffffff1660e01b8152600401602060405180830381865afa15801561238a573d5f803e3d5ffd5b505050506040513d601f19601f820116820180604052508101906123ae9190613986565b90505f60035f9054906101000a90046001600160a01b03166001600160a01b0316634f4608a26040518163ffffffff1660e01b8152600401602060405180830381865afa158015612401573d5f803e3d5ffd5b505050506040513d601f19601f820116820180604052508101906124259190613986565b9050806124328386613ab8565b61243c9190613acf565b949350505050565b60017f9b779b17422d0df92223018b32b4d1fa46e071723d6817e2486d003becc55f0055565b61247783838360016131ea565b505050565b6001600160a01b038381165f9081527f52c63247e1f47db19d5ce0460030c497f067ca4cebf71ba98eeadabe20bace0160209081526040808320938616835292905220545f198114612529578181101561251b576040517ffb8f41b20000000000000000000000000000000000000000000000000000000081526001600160a01b03841660048201526024810182905260448101839052606401610687565b61252984848484035f6131ea565b50505050565b6001600160a01b038316612571576040517f96c6fd1e0000000000000000000000000000000000000000000000000000000081525f6004820152602401610687565b6001600160a01b0382166125b3576040517fec442f050000000000000000000000000000000000000000000000000000000081525f6004820152602401610687565b612477838383613085565b336125f07f9016d09d72d40fdae2fd8ceac6b6234c7706214fd39c1cd1e609a0528c199300546001600160a01b031690565b6001600160a01b0316146116d2576040517f118cdaa7000000000000000000000000000000000000000000000000000000008152336004820152602401610687565b61263a613313565b7fcd5ed15c6e187e77e9aee88184c21f4f2182ab5827cb3b7e07fbedcd63f03300805460ff191681557f5db9ee0a495bf2e6ff9c91a7834c1ba4fdd244a5e8aa4e537bd38aeae4b073aa335b6040516001600160a01b03909116815260200160405180910390a150565b306001600160a01b037f000000000000000000000000000000000000000000000000000000000000000016148061273d57507f00000000000000000000000000000000000000000000000000000000000000006001600160a01b03166127317f360894a13ba1a3210667c828492db98dca3e2076cc3735a920a3ca505d382bbc546001600160a01b031690565b6001600160a01b031614155b156116d2576040517fe07c8dba00000000000000000000000000000000000000000000000000000000815260040160405180910390fd5b61220b6125be565b816001600160a01b03166352d1902d6040518163ffffffff1660e01b8152600401602060405180830381865afa9250505080156127d6575060408051601f3d908101601f191682019092526127d391810190613986565b60015b612817576040517f4c9c8ce30000000000000000000000000000000000000000000000000000000081526001600160a01b0383166004820152602401610687565b7f360894a13ba1a3210667c828492db98dca3e2076cc3735a920a3ca505d382bbc8114612873576040517faa1d49a400000000000000000000000000000000000000000000000000000000815260048101829052602401610687565b612477838361336e565b306001600160a01b037f000000000000000000000000000000000000000000000000000000000000000016146116d2576040517fe07c8dba00000000000000000000000000000000000000000000000000000000815260040160405180910390fd5b6001546040516370a0823160e01b81523060048201525f916001600160a01b0316906307a2d13a9082906370a0823190602401602060405180830381865afa15801561292d573d5f803e3d5ffd5b505050506040513d601f19601f820116820180604052508101906129519190613986565b6040518263ffffffff1660e01b815260040161296f91815260200190565b602060405180830381865afa15801561298a573d5f803e3d5ffd5b505050506040513d601f19601f820116820180604052508101906129ae9190613986565b90505f60055482116129c0575f6129cd565b6005546129cd9083613aee565b90505f805f9054906101000a90046001600160a01b03166001600160a01b031663313ce5676040518163ffffffff1660e01b8152600401602060405180830381865afa158015612a1f573d5f803e3d5ffd5b505050506040513d601f19601f82011682018060405250810190612a439190613966565b90505f612a516002836139b1565b612a5c90600a613aaa565b612a67906001613ab8565b90508083111561252957612529612b9e565b6001600160a01b038216612abb576040517fec442f050000000000000000000000000000000000000000000000000000000081525f6004820152602401610687565b6110f95f8383613085565b7f9016d09d72d40fdae2fd8ceac6b6234c7706214fd39c1cd1e609a0528c199300805473ffffffffffffffffffffffffffffffffffffffff1981166001600160a01b03848116918217845560405192169182907f8be0079c531659141344cd1fd0a4f28419497f9722a3daafe3b4186f6b6457e0905f90a3505050565b612b4b61228f565b7fcd5ed15c6e187e77e9aee88184c21f4f2182ab5827cb3b7e07fbedcd63f03300805460ff191660011781557f62e78cea01bee320cd4e420270b5ea74000d11b0c9f74754ebdbfc544b05a25833612686565b6001546040516370a0823160e01b81523060048201525f916001600160a01b0316906307a2d13a9082906370a0823190602401602060405180830381865afa158015612bec573d5f803e3d5ffd5b505050506040513d601f19601f82011682018060405250810190612c109190613986565b6040518263ffffffff1660e01b8152600401612c2e91815260200190565b602060405180830381865afa158015612c49573d5f803e3d5ffd5b505050506040513d601f19601f82011682018060405250810190612c6d9190613986565b90505f6005548211612c7f575f612c8c565b600554612c8c9083613aee565b90505f8111612d035760405162461bcd60e51b815260206004820152602560248201527f42616c756e695631795661756c743a204e6f20696e746572657374206176616960448201527f6c61626c650000000000000000000000000000000000000000000000000000006064820152608401610687565b6001546040517fc6e6f592000000000000000000000000000000000000000000000000000000008152600481018390525f916001600160a01b03169063c6e6f59290602401602060405180830381865afa158015612d63573d5f803e3d5ffd5b505050506040513d601f19601f82011682018060405250810190612d879190613986565b6001546040517fba08765200000000000000000000000000000000000000000000000000000000815260048101839052306024820181905260448201529192505f916001600160a01b039091169063ba087652906064016020604051808303815f875af1158015612dfa573d5f803e3d5ffd5b505050506040513d601f19601f82011682018060405250810190612e1e9190613986565b90505f8111612e6f5760405162461bcd60e51b815260206004820152601d60248201527f42616c756e695631795661756c743a2052656465656d204661696c65640000006044820152606401610687565b600354604080517f82755ebb00000000000000000000000000000000000000000000000000000000815290515f926001600160a01b0316916382755ebb9160048083019260209291908290030181865afa158015612ecf573d5f803e3d5ffd5b505050506040513d601f19601f82011682018060405250810190612ef39190613b20565b5f546040517f095ea7b30000000000000000000000000000000000000000000000000000000081526001600160a01b0380841660048301526024820186905292935091169063095ea7b3906044016020604051808303815f875af1158015612f5d573d5f803e3d5ffd5b505050506040513d601f19601f82011682018060405250810190612f819190613b01565b505f546002546040517f2d6bc8ea0000000000000000000000000000000000000000000000000000000081526001600160a01b03928316600482015290821660248201526044810184905230606482015290821690632d6bc8ea906084016020604051808303815f875af1158015612ffb573d5f803e3d5ffd5b505050506040513d601f19601f8201168201806040525081019061301f9190613986565b50604080518381526020810186905233917f1cbc5ab135991bd2b6a4b034a04aa2aa086dac1371cb9b16b8b5e2ed6b036bed910160405180910390a25050505050565b61306a6133c3565b61220b8161342a565b61307b6133c3565b6110f98282613432565b7f52c63247e1f47db19d5ce0460030c497f067ca4cebf71ba98eeadabe20bace006001600160a01b0384166130d25781816002015f8282546130c79190613b73565b9091555061315b9050565b6001600160a01b0384165f908152602082905260409020548281101561313d576040517fe450d38c0000000000000000000000000000000000000000000000000000000081526001600160a01b03861660048201526024810182905260448101849052606401610687565b6001600160a01b0385165f9081526020839052604090209083900390555b6001600160a01b038316613179576002810180548390039055613197565b6001600160a01b0383165f9081526020829052604090208054830190555b826001600160a01b0316846001600160a01b03167fddf252ad1be2c89b69c2b068fc378daa952ba7f163c4a11628f55a4df523b3ef846040516131dc91815260200190565b60405180910390a350505050565b7f52c63247e1f47db19d5ce0460030c497f067ca4cebf71ba98eeadabe20bace006001600160a01b03851661324d576040517fe602df050000000000000000000000000000000000000000000000000000000081525f6004820152602401610687565b6001600160a01b03841661328f576040517f94280d620000000000000000000000000000000000000000000000000000000081525f6004820152602401610687565b6001600160a01b038086165f9081526001830160209081526040808320938816835292905220839055811561330c57836001600160a01b0316856001600160a01b03167f8c5be1e5ebec7d5bd14f71427d1e84f3dd0314c0f7b2291e5b200ac8c7c3b9258560405161330391815260200190565b60405180910390a35b5050505050565b7fcd5ed15c6e187e77e9aee88184c21f4f2182ab5827cb3b7e07fbedcd63f033005460ff166116d2576040517f8dfc202b00000000000000000000000000000000000000000000000000000000815260040160405180910390fd5b61337782613495565b6040516001600160a01b038316907fbc7cd75a20ee27fd9adebab32041f755214dbc6bffa90cc0225b39da2e5c2d3b905f90a28051156133bb576124778282613531565b6110f96135a3565b7ff0c57e16840df040f15088dc2f81fe391c3923bec73e23a9662efc9c229c6a005468010000000000000000900460ff166116d2576040517fd7e6bcf800000000000000000000000000000000000000000000000000000000815260040160405180910390fd5b6121c06133c3565b61343a6133c3565b7f52c63247e1f47db19d5ce0460030c497f067ca4cebf71ba98eeadabe20bace007f52c63247e1f47db19d5ce0460030c497f067ca4cebf71ba98eeadabe20bace036134868482613bca565b50600481016125298382613bca565b806001600160a01b03163b5f036134e3576040517f4c9c8ce30000000000000000000000000000000000000000000000000000000081526001600160a01b0382166004820152602401610687565b7f360894a13ba1a3210667c828492db98dca3e2076cc3735a920a3ca505d382bbc805473ffffffffffffffffffffffffffffffffffffffff19166001600160a01b0392909216919091179055565b60605f80846001600160a01b03168460405161354d9190613c8a565b5f60405180830381855af49150503d805f8114613585576040519150601f19603f3d011682016040523d82523d5f602084013e61358a565b606091505b509150915061359a8583836135db565b95945050505050565b34156116d2576040517fb398979f00000000000000000000000000000000000000000000000000000000815260040160405180910390fd5b6060826135f0576135eb82613650565b611207565b815115801561360757506001600160a01b0384163b155b15613649576040517f9996b3150000000000000000000000000000000000000000000000000000000081526001600160a01b0385166004820152602401610687565b5080611207565b8051156136605780518082602001fd5b6040517f1425ea4200000000000000000000000000000000000000000000000000000000815260040160405180910390fd5b6001600160a01b038116811461220b575f80fd5b5f80604083850312156136b7575f80fd5b8235915060208301356136c981613692565b809150509250929050565b602081525f82518060208401528060208501604085015e5f604082850101526040601f19601f83011684010191505092915050565b5f806040838503121561371a575f80fd5b823561372581613692565b946020939093013593505050565b5f805f60608486031215613745575f80fd5b833561375081613692565b9250602084013561376081613692565b929592945050506040919091013590565b634e487b7160e01b5f52604160045260245ffd5b5f67ffffffffffffffff8084111561379f5761379f613771565b604051601f8501601f19908116603f011681019082821181831017156137c7576137c7613771565b816040528093508581528686860111156137df575f80fd5b858560208301375f602087830101525050509392505050565b5f8060408385031215613809575f80fd5b823561381481613692565b9150602083013567ffffffffffffffff81111561382f575f80fd5b8301601f8101851361383f575f80fd5b61384e85823560208401613785565b9150509250929050565b5f60208284031215613868575f80fd5b813561120781613692565b5f8060408385031215613884575f80fd5b823561388f81613692565b915060208301356136c981613692565b5f82601f8301126138ae575f80fd5b61120783833560208501613785565b5f805f805f8060c087890312156138d2575f80fd5b863567ffffffffffffffff808211156138e9575f80fd5b6138f58a838b0161389f565b9750602089013591508082111561390a575f80fd5b5061391789828a0161389f565b955050604087013561392881613692565b9350606087013561393881613692565b9250608087013561394881613692565b915060a087013561395881613692565b809150509295509295509295565b5f60208284031215613976575f80fd5b815160ff81168114611207575f80fd5b5f60208284031215613996575f80fd5b5051919050565b634e487b7160e01b5f52601160045260245ffd5b60ff82811682821603908111156111e3576111e361399d565b600181815b80851115613a0457815f19048211156139ea576139ea61399d565b808516156139f757918102915b93841c93908002906139cf565b509250929050565b5f82613a1a575060016111e3565b81613a2657505f6111e3565b8160018114613a3c5760028114613a4657613a62565b60019150506111e3565b60ff841115613a5757613a5761399d565b50506001821b6111e3565b5060208310610133831016604e8410600b8410161715613a85575081810a6111e3565b613a8f83836139ca565b805f1904821115613aa257613aa261399d565b029392505050565b5f61120760ff841683613a0c565b80820281158282048414176111e3576111e361399d565b5f82613ae957634e487b7160e01b5f52601260045260245ffd5b500490565b818103818111156111e3576111e361399d565b5f60208284031215613b11575f80fd5b81518015158114611207575f80fd5b5f60208284031215613b30575f80fd5b815161120781613692565b600181811c90821680613b4f57607f821691505b602082108103613b6d57634e487b7160e01b5f52602260045260245ffd5b50919050565b808201808211156111e3576111e361399d565b601f82111561247757805f5260205f20601f840160051c81016020851015613bab5750805b601f840160051c820191505b8181101561330c575f8155600101613bb7565b815167ffffffffffffffff811115613be457613be4613771565b613bf881613bf28454613b3b565b84613b86565b602080601f831160018114613c2b575f8415613c145750858301515b5f19600386901b1c1916600185901b178555613c82565b5f85815260208120601f198616915b82811015613c5957888601518255948401946001909101908401613c3a565b5085821015613c7657878501515f19600388901b60f8161c191681555b505060018460011b0185555b505050505050565b5f82518060208501845e5f92019182525091905056fea2646970667358221220ac26355b55b7fea8781760a137b45e75410ab9d6954315128d73d9e14d02663e64736f6c63430008190033",
  "linkReferences": {},
  "deployedLinkReferences": {}
}