{
  "_format": "hh-sol-artifact-1",
  "contractName": "BaluniV1DCAVault",
  "sourceName": "contracts/vaults/BaluniV1DCAVault.sol",
  "abi": [
    {
      "inputs": [
        {
          "internalType": "address",
          "name": "target",
          "type": "address"
        }
      ],
      "name": "AddressEmptyCode",
      "type": "error"
    },
    {
      "inputs": [
        {
          "internalType": "address",
          "name": "implementation",
          "type": "address"
        }
      ],
      "name": "ERC1967InvalidImplementation",
      "type": "error"
    },
    {
      "inputs": [],
      "name": "ERC1967NonPayable",
      "type": "error"
    },
    {
      "inputs": [
        {
          "internalType": "address",
          "name": "spender",
          "type": "address"
        },
        {
          "internalType": "uint256",
          "name": "allowance",
          "type": "uint256"
        },
        {
          "internalType": "uint256",
          "name": "needed",
          "type": "uint256"
        }
      ],
      "name": "ERC20InsufficientAllowance",
      "type": "error"
    },
    {
      "inputs": [
        {
          "internalType": "address",
          "name": "sender",
          "type": "address"
        },
        {
          "internalType": "uint256",
          "name": "balance",
          "type": "uint256"
        },
        {
          "internalType": "uint256",
          "name": "needed",
          "type": "uint256"
        }
      ],
      "name": "ERC20InsufficientBalance",
      "type": "error"
    },
    {
      "inputs": [
        {
          "internalType": "address",
          "name": "approver",
          "type": "address"
        }
      ],
      "name": "ERC20InvalidApprover",
      "type": "error"
    },
    {
      "inputs": [
        {
          "internalType": "address",
          "name": "receiver",
          "type": "address"
        }
      ],
      "name": "ERC20InvalidReceiver",
      "type": "error"
    },
    {
      "inputs": [
        {
          "internalType": "address",
          "name": "sender",
          "type": "address"
        }
      ],
      "name": "ERC20InvalidSender",
      "type": "error"
    },
    {
      "inputs": [
        {
          "internalType": "address",
          "name": "spender",
          "type": "address"
        }
      ],
      "name": "ERC20InvalidSpender",
      "type": "error"
    },
    {
      "inputs": [],
      "name": "EnforcedPause",
      "type": "error"
    },
    {
      "inputs": [],
      "name": "ExpectedPause",
      "type": "error"
    },
    {
      "inputs": [],
      "name": "FailedInnerCall",
      "type": "error"
    },
    {
      "inputs": [],
      "name": "InvalidInitialization",
      "type": "error"
    },
    {
      "inputs": [],
      "name": "NotInitializing",
      "type": "error"
    },
    {
      "inputs": [
        {
          "internalType": "address",
          "name": "owner",
          "type": "address"
        }
      ],
      "name": "OwnableInvalidOwner",
      "type": "error"
    },
    {
      "inputs": [
        {
          "internalType": "address",
          "name": "account",
          "type": "address"
        }
      ],
      "name": "OwnableUnauthorizedAccount",
      "type": "error"
    },
    {
      "inputs": [],
      "name": "ReentrancyGuardReentrantCall",
      "type": "error"
    },
    {
      "inputs": [],
      "name": "UUPSUnauthorizedCallContext",
      "type": "error"
    },
    {
      "inputs": [
        {
          "internalType": "bytes32",
          "name": "slot",
          "type": "bytes32"
        }
      ],
      "name": "UUPSUnsupportedProxiableUUID",
      "type": "error"
    },
    {
      "anonymous": false,
      "inputs": [
        {
          "indexed": true,
          "internalType": "address",
          "name": "owner",
          "type": "address"
        },
        {
          "indexed": true,
          "internalType": "address",
          "name": "spender",
          "type": "address"
        },
        {
          "indexed": false,
          "internalType": "uint256",
          "name": "value",
          "type": "uint256"
        }
      ],
      "name": "Approval",
      "type": "event"
    },
    {
      "anonymous": false,
      "inputs": [
        {
          "indexed": true,
          "internalType": "address",
          "name": "sender",
          "type": "address"
        },
        {
          "indexed": false,
          "internalType": "uint256",
          "name": "amountIn",
          "type": "uint256"
        },
        {
          "indexed": false,
          "internalType": "uint256",
          "name": "amountOut",
          "type": "uint256"
        }
      ],
      "name": "ExecuteTrade",
      "type": "event"
    },
    {
      "anonymous": false,
      "inputs": [
        {
          "indexed": false,
          "internalType": "uint64",
          "name": "version",
          "type": "uint64"
        }
      ],
      "name": "Initialized",
      "type": "event"
    },
    {
      "anonymous": false,
      "inputs": [
        {
          "indexed": true,
          "internalType": "address",
          "name": "previousOwner",
          "type": "address"
        },
        {
          "indexed": true,
          "internalType": "address",
          "name": "newOwner",
          "type": "address"
        }
      ],
      "name": "OwnershipTransferred",
      "type": "event"
    },
    {
      "anonymous": false,
      "inputs": [
        {
          "indexed": false,
          "internalType": "address",
          "name": "account",
          "type": "address"
        }
      ],
      "name": "Paused",
      "type": "event"
    },
    {
      "anonymous": false,
      "inputs": [
        {
          "indexed": true,
          "internalType": "address",
          "name": "from",
          "type": "address"
        },
        {
          "indexed": true,
          "internalType": "address",
          "name": "to",
          "type": "address"
        },
        {
          "indexed": false,
          "internalType": "uint256",
          "name": "value",
          "type": "uint256"
        }
      ],
      "name": "Transfer",
      "type": "event"
    },
    {
      "anonymous": false,
      "inputs": [
        {
          "indexed": false,
          "internalType": "address",
          "name": "account",
          "type": "address"
        }
      ],
      "name": "Unpaused",
      "type": "event"
    },
    {
      "anonymous": false,
      "inputs": [
        {
          "indexed": true,
          "internalType": "address",
          "name": "implementation",
          "type": "address"
        }
      ],
      "name": "Upgraded",
      "type": "event"
    },
    {
      "inputs": [],
      "name": "UPGRADE_INTERFACE_VERSION",
      "outputs": [
        {
          "internalType": "string",
          "name": "",
          "type": "string"
        }
      ],
      "stateMutability": "view",
      "type": "function"
    },
    {
      "inputs": [
        {
          "internalType": "address",
          "name": "owner",
          "type": "address"
        },
        {
          "internalType": "address",
          "name": "spender",
          "type": "address"
        }
      ],
      "name": "allowance",
      "outputs": [
        {
          "internalType": "uint256",
          "name": "",
          "type": "uint256"
        }
      ],
      "stateMutability": "view",
      "type": "function"
    },
    {
      "inputs": [
        {
          "internalType": "address",
          "name": "spender",
          "type": "address"
        },
        {
          "internalType": "uint256",
          "name": "value",
          "type": "uint256"
        }
      ],
      "name": "approve",
      "outputs": [
        {
          "internalType": "bool",
          "name": "",
          "type": "bool"
        }
      ],
      "stateMutability": "nonpayable",
      "type": "function"
    },
    {
      "inputs": [
        {
          "internalType": "address",
          "name": "account",
          "type": "address"
        }
      ],
      "name": "balanceOf",
      "outputs": [
        {
          "internalType": "uint256",
          "name": "",
          "type": "uint256"
        }
      ],
      "stateMutability": "view",
      "type": "function"
    },
    {
      "inputs": [],
      "name": "baseAsset",
      "outputs": [
        {
          "internalType": "address",
          "name": "",
          "type": "address"
        }
      ],
      "stateMutability": "view",
      "type": "function"
    },
    {
      "inputs": [],
      "name": "canSystemDeposit",
      "outputs": [
        {
          "internalType": "bool",
          "name": "",
          "type": "bool"
        }
      ],
      "stateMutability": "view",
      "type": "function"
    },
    {
      "inputs": [],
      "name": "decimals",
      "outputs": [
        {
          "internalType": "uint8",
          "name": "",
          "type": "uint8"
        }
      ],
      "stateMutability": "view",
      "type": "function"
    },
    {
      "inputs": [
        {
          "internalType": "uint256",
          "name": "amount",
          "type": "uint256"
        },
        {
          "internalType": "address",
          "name": "to",
          "type": "address"
        }
      ],
      "name": "deposit",
      "outputs": [],
      "stateMutability": "nonpayable",
      "type": "function"
    },
    {
      "inputs": [
        {
          "internalType": "address",
          "name": "",
          "type": "address"
        }
      ],
      "name": "executors",
      "outputs": [
        {
          "internalType": "bool",
          "name": "",
          "type": "bool"
        }
      ],
      "stateMutability": "view",
      "type": "function"
    },
    {
      "inputs": [],
      "name": "getAmountToSwap",
      "outputs": [
        {
          "internalType": "uint256",
          "name": "",
          "type": "uint256"
        }
      ],
      "stateMutability": "view",
      "type": "function"
    },
    {
      "inputs": [
        {
          "internalType": "string",
          "name": "_name",
          "type": "string"
        },
        {
          "internalType": "string",
          "name": "_symbol",
          "type": "string"
        },
        {
          "internalType": "address",
          "name": "_baseAsset",
          "type": "address"
        },
        {
          "internalType": "address",
          "name": "_quoteAsset",
          "type": "address"
        },
        {
          "internalType": "address",
          "name": "_registryAddress",
          "type": "address"
        },
        {
          "internalType": "uint256",
          "name": "_reinvestDuration",
          "type": "uint256"
        }
      ],
      "name": "initialize",
      "outputs": [],
      "stateMutability": "nonpayable",
      "type": "function"
    },
    {
      "inputs": [],
      "name": "lastDeposit",
      "outputs": [
        {
          "internalType": "uint256",
          "name": "",
          "type": "uint256"
        }
      ],
      "stateMutability": "view",
      "type": "function"
    },
    {
      "inputs": [],
      "name": "lastInvestedBlock",
      "outputs": [
        {
          "internalType": "uint256",
          "name": "",
          "type": "uint256"
        }
      ],
      "stateMutability": "view",
      "type": "function"
    },
    {
      "inputs": [],
      "name": "maxPerSwap",
      "outputs": [
        {
          "internalType": "uint256",
          "name": "",
          "type": "uint256"
        }
      ],
      "stateMutability": "view",
      "type": "function"
    },
    {
      "inputs": [],
      "name": "name",
      "outputs": [
        {
          "internalType": "string",
          "name": "",
          "type": "string"
        }
      ],
      "stateMutability": "view",
      "type": "function"
    },
    {
      "inputs": [],
      "name": "owner",
      "outputs": [
        {
          "internalType": "address",
          "name": "",
          "type": "address"
        }
      ],
      "stateMutability": "view",
      "type": "function"
    },
    {
      "inputs": [],
      "name": "pause",
      "outputs": [],
      "stateMutability": "nonpayable",
      "type": "function"
    },
    {
      "inputs": [],
      "name": "paused",
      "outputs": [
        {
          "internalType": "bool",
          "name": "",
          "type": "bool"
        }
      ],
      "stateMutability": "view",
      "type": "function"
    },
    {
      "inputs": [],
      "name": "proxiableUUID",
      "outputs": [
        {
          "internalType": "bytes32",
          "name": "",
          "type": "bytes32"
        }
      ],
      "stateMutability": "view",
      "type": "function"
    },
    {
      "inputs": [],
      "name": "quoteAsset",
      "outputs": [
        {
          "internalType": "address",
          "name": "",
          "type": "address"
        }
      ],
      "stateMutability": "view",
      "type": "function"
    },
    {
      "inputs": [],
      "name": "registry",
      "outputs": [
        {
          "internalType": "address",
          "name": "",
          "type": "address"
        }
      ],
      "stateMutability": "view",
      "type": "function"
    },
    {
      "inputs": [
        {
          "internalType": "string",
          "name": "_name",
          "type": "string"
        },
        {
          "internalType": "string",
          "name": "_symbol",
          "type": "string"
        },
        {
          "internalType": "address",
          "name": "_baseAsset",
          "type": "address"
        },
        {
          "internalType": "address",
          "name": "_quoteAsset",
          "type": "address"
        },
        {
          "internalType": "address",
          "name": "_registryAddress",
          "type": "address"
        },
        {
          "internalType": "uint256",
          "name": "_reinvestDuration",
          "type": "uint256"
        },
        {
          "internalType": "uint64",
          "name": "_version",
          "type": "uint64"
        }
      ],
      "name": "reinitialize",
      "outputs": [],
      "stateMutability": "nonpayable",
      "type": "function"
    },
    {
      "inputs": [],
      "name": "reinvestDuration",
      "outputs": [
        {
          "internalType": "uint256",
          "name": "",
          "type": "uint256"
        }
      ],
      "stateMutability": "view",
      "type": "function"
    },
    {
      "inputs": [],
      "name": "renounceOwnership",
      "outputs": [],
      "stateMutability": "nonpayable",
      "type": "function"
    },
    {
      "inputs": [
        {
          "internalType": "address",
          "name": "_wallet",
          "type": "address"
        },
        {
          "internalType": "bool",
          "name": "_allow",
          "type": "bool"
        }
      ],
      "name": "setExecutor",
      "outputs": [],
      "stateMutability": "nonpayable",
      "type": "function"
    },
    {
      "inputs": [],
      "name": "swapDuration",
      "outputs": [
        {
          "internalType": "uint256",
          "name": "",
          "type": "uint256"
        }
      ],
      "stateMutability": "view",
      "type": "function"
    },
    {
      "inputs": [],
      "name": "symbol",
      "outputs": [
        {
          "internalType": "string",
          "name": "",
          "type": "string"
        }
      ],
      "stateMutability": "view",
      "type": "function"
    },
    {
      "inputs": [],
      "name": "systemDeposit",
      "outputs": [],
      "stateMutability": "nonpayable",
      "type": "function"
    },
    {
      "inputs": [],
      "name": "totalSupply",
      "outputs": [
        {
          "internalType": "uint256",
          "name": "",
          "type": "uint256"
        }
      ],
      "stateMutability": "view",
      "type": "function"
    },
    {
      "inputs": [],
      "name": "totalValuation",
      "outputs": [
        {
          "internalType": "uint256",
          "name": "",
          "type": "uint256"
        }
      ],
      "stateMutability": "view",
      "type": "function"
    },
    {
      "inputs": [
        {
          "internalType": "address",
          "name": "to",
          "type": "address"
        },
        {
          "internalType": "uint256",
          "name": "value",
          "type": "uint256"
        }
      ],
      "name": "transfer",
      "outputs": [
        {
          "internalType": "bool",
          "name": "",
          "type": "bool"
        }
      ],
      "stateMutability": "nonpayable",
      "type": "function"
    },
    {
      "inputs": [
        {
          "internalType": "address",
          "name": "from",
          "type": "address"
        },
        {
          "internalType": "address",
          "name": "to",
          "type": "address"
        },
        {
          "internalType": "uint256",
          "name": "value",
          "type": "uint256"
        }
      ],
      "name": "transferFrom",
      "outputs": [
        {
          "internalType": "bool",
          "name": "",
          "type": "bool"
        }
      ],
      "stateMutability": "nonpayable",
      "type": "function"
    },
    {
      "inputs": [
        {
          "internalType": "address",
          "name": "newOwner",
          "type": "address"
        }
      ],
      "name": "transferOwnership",
      "outputs": [],
      "stateMutability": "nonpayable",
      "type": "function"
    },
    {
      "inputs": [],
      "name": "unitPrice",
      "outputs": [
        {
          "internalType": "uint256",
          "name": "",
          "type": "uint256"
        }
      ],
      "stateMutability": "view",
      "type": "function"
    },
    {
      "inputs": [],
      "name": "unpause",
      "outputs": [],
      "stateMutability": "nonpayable",
      "type": "function"
    },
    {
      "inputs": [
        {
          "internalType": "address",
          "name": "newImplementation",
          "type": "address"
        },
        {
          "internalType": "bytes",
          "name": "data",
          "type": "bytes"
        }
      ],
      "name": "upgradeToAndCall",
      "outputs": [],
      "stateMutability": "payable",
      "type": "function"
    },
    {
      "inputs": [
        {
          "internalType": "uint256",
          "name": "shares",
          "type": "uint256"
        },
        {
          "internalType": "address",
          "name": "to",
          "type": "address"
        }
      ],
      "name": "withdraw",
      "outputs": [],
      "stateMutability": "nonpayable",
      "type": "function"
    }
  ],
  "bytecode": "0x60a0604052306080523480156012575f80fd5b506080516138f36100395f395f81816127dd0152818161280601526129b601526138f35ff3fe60806040526004361061025c575f3560e01c80638456cb591161014b578063cdf456e1116100c6578063e73faa2d1161007c578063f267d91b11610062578063f267d91b14610709578063f2fde38b1461071d578063fdf262b71461073c575f80fd5b8063e73faa2d146106d6578063edf3e29e146106ea575f80fd5b8063d9d47d69116100ac578063d9d47d691461064a578063db48a5e31461065e578063dd62ed3e14610673575f80fd5b8063cdf456e114610618578063d53419a314610636575f80fd5b8063a9059cbb1161011b578063b3404efd11610101578063b3404efd146105cf578063bc4ba731146105e4578063c80b0baf146105f9575f80fd5b8063a9059cbb14610568578063ad3cb1cc14610587575f80fd5b80638456cb59146104d65780638da5cb5b146104ea57806395d89b41146105265780639ac2a0111461053a575f80fd5b80633f4ba83a116101db5780635c975abb116101ab57806370a082311161019157806370a082311461043e578063715018a6146104915780637b103999146104a5575f80fd5b80635c975abb146103e95780636e553f651461041f575f80fd5b80633f4ba83a146103995780634f1ef286146103ad5780634fe84c42146103c057806352d1902d146103d5575f80fd5b80631e1bff3f11610230578063295b930011610216578063295b930014610355578063313ce5671461036957806336b7710714610384575f80fd5b80631e1bff3f1461031757806323b872dd14610336575f80fd5b8062f714ce1461026057806306fdde0314610281578063095ea7b3146102ab57806318160ddd146102da575b5f80fd5b34801561026b575f80fd5b5061027f61027a3660046131d9565b61075b565b005b34801561028c575f80fd5b50610295610f2b565b6040516102a29190613207565b60405180910390f35b3480156102b6575f80fd5b506102ca6102c536600461323c565b610ffe565b60405190151581526020016102a2565b3480156102e5575f80fd5b507f52c63247e1f47db19d5ce0460030c497f067ca4cebf71ba98eeadabe20bace02545b6040519081526020016102a2565b348015610322575f80fd5b5061027f610331366004613273565b611017565b348015610341575f80fd5b506102ca61035036600461329f565b611049565b348015610360575f80fd5b5061030961106e565b348015610374575f80fd5b50604051601281526020016102a2565b34801561038f575f80fd5b5061030960035481565b3480156103a4575f80fd5b5061027f6113c1565b61027f6103bb366004613364565b6113d3565b3480156103cb575f80fd5b5061030960075481565b3480156103e0575f80fd5b506103096113ee565b3480156103f4575f80fd5b507fcd5ed15c6e187e77e9aee88184c21f4f2182ab5827cb3b7e07fbedcd63f033005460ff166102ca565b34801561042a575f80fd5b5061027f6104393660046131d9565b61141c565b348015610449575f80fd5b506103096104583660046133c4565b6001600160a01b03165f9081527f52c63247e1f47db19d5ce0460030c497f067ca4cebf71ba98eeadabe20bace00602052604090205490565b34801561049c575f80fd5b5061027f61182d565b3480156104b0575f80fd5b506002546001600160a01b03165b6040516001600160a01b0390911681526020016102a2565b3480156104e1575f80fd5b5061027f61183e565b3480156104f5575f80fd5b507f9016d09d72d40fdae2fd8ceac6b6234c7706214fd39c1cd1e609a0528c199300546001600160a01b03166104be565b348015610531575f80fd5b5061029561184e565b348015610545575f80fd5b506102ca6105543660046133c4565b60086020525f908152604090205460ff1681565b348015610573575f80fd5b506102ca61058236600461323c565b61189f565b348015610592575f80fd5b506102956040518060400160405280600581526020017f352e302e3000000000000000000000000000000000000000000000000000000081525081565b3480156105da575f80fd5b5061030960065481565b3480156105ef575f80fd5b5061030960045481565b348015610604575f80fd5b5061027f6106133660046133fd565b6118ac565b348015610623575f80fd5b505f546104be906001600160a01b031681565b348015610641575f80fd5b5061027f611ad3565b348015610655575f80fd5b50610309611e17565b348015610669575f80fd5b5061030960055481565b34801561067e575f80fd5b5061030961068d3660046134bb565b6001600160a01b039182165f9081527f52c63247e1f47db19d5ce0460030c497f067ca4cebf71ba98eeadabe20bace016020908152604080832093909416825291909152205490565b3480156106e1575f80fd5b50610309611ecb565b3480156106f5575f80fd5b5061027f6107043660046134e7565b61205c565b348015610714575f80fd5b506102ca6122b7565b348015610728575f80fd5b5061027f6107373660046133c4565b6122e6565b348015610747575f80fd5b506001546104be906001600160a01b031681565b61076361233c565b61076b6123bd565b5f82116107bf5760405162461bcd60e51b815260206004820181905260248201527f536861726573206d7573742062652067726561746572207468616e207a65726f60448201526064015b60405180910390fd5b335f9081527f52c63247e1f47db19d5ce0460030c497f067ca4cebf71ba98eeadabe20bace00602052604090205482111561083c5760405162461bcd60e51b815260206004820152601460248201527f496e73756666696369656e742062616c616e636500000000000000000000000060448201526064016107b6565b6001546040805163313ce56760e01b815290515f926001600160a01b03169163313ce5679160048083019260209291908290030181865afa158015610883573d5f803e3d5ffd5b505050506040513d601f19601f820116820180604052508101906108a79190613587565b6001546040516370a0823160e01b81523060048201529192505f916001600160a01b03909116906370a0823190602401602060405180830381865afa1580156108f2573d5f803e3d5ffd5b505050506040513d601f19601f8201168201806040525081019061091691906135a7565b5f80546040516370a0823160e01b815230600482015292935090916001600160a01b03909116906370a0823190602401602060405180830381865afa158015610961573d5f803e3d5ffd5b505050506040513d601f19601f8201168201806040525081019061098591906135a7565b90506109928360126135d2565b61099d90600a6136cb565b6109a790836136d9565b91505f6109d27f52c63247e1f47db19d5ce0460030c497f067ca4cebf71ba98eeadabe20bace025490565b6109dc83886136d9565b6109e691906136f0565b90505f610a117f52c63247e1f47db19d5ce0460030c497f067ca4cebf71ba98eeadabe20bace025490565b610a1b85896136d9565b610a2591906136f0565b9050610a313388612419565b610a3c8560126135d2565b610a4790600a6136cb565b610a5190826136f0565b9050815f610a5e82612466565b5f549091506001600160a01b031663a9059cbb89610a7c848661370f565b6040517fffffffff0000000000000000000000000000000000000000000000000000000060e085901b1681526001600160a01b03909216600483015260248201526044016020604051808303815f875af1158015610adc573d5f803e3d5ffd5b505050506040513d601f19601f82011682018060405250810190610b009190613722565b505f610b0b82612466565b90505f60025f9054906101000a90046001600160a01b03166001600160a01b03166304cc73256040518163ffffffff1660e01b8152600401602060405180830381865afa158015610b5e573d5f803e3d5ffd5b505050506040513d601f19601f82011682018060405250810190610b82919061373d565b90505f60025f9054906101000a90046001600160a01b03166001600160a01b0316633b19e84a6040518163ffffffff1660e01b8152600401602060405180830381865afa158015610bd5573d5f803e3d5ffd5b505050506040513d601f19601f82011682018060405250810190610bf9919061373d565b5f549091506001600160a01b031663a9059cbb83610c17868861370f565b6040517fffffffff0000000000000000000000000000000000000000000000000000000060e085901b1681526001600160a01b03909216600483015260248201526044016020604051808303815f875af1158015610c77573d5f803e3d5ffd5b505050506040513d601f19601f82011682018060405250810190610c9b9190613722565b505f5460405163a9059cbb60e01b81526001600160a01b038381166004830152602482018690529091169063a9059cbb906044016020604051808303815f875af1158015610ceb573d5f803e3d5ffd5b505050506040513d601f19601f82011682018060405250810190610d0f9190613722565b50610d1986612466565b6001549094506001600160a01b031663a9059cbb8c610d38878a61370f565b6040517fffffffff0000000000000000000000000000000000000000000000000000000060e085901b1681526001600160a01b03909216600483015260248201526044016020604051808303815f875af1158015610d98573d5f803e3d5ffd5b505050506040513d601f19601f82011682018060405250810190610dbc9190613722565b50610dc684612466565b5f549093506001600160a01b031663a9059cbb83610de4868861370f565b6040517fffffffff0000000000000000000000000000000000000000000000000000000060e085901b1681526001600160a01b03909216600483015260248201526044016020604051808303815f875af1158015610e44573d5f803e3d5ffd5b505050506040513d601f19601f82011682018060405250810190610e689190613722565b505f5460405163a9059cbb60e01b81526001600160a01b038381166004830152602482018690529091169063a9059cbb906044016020604051808303815f875af1158015610eb8573d5f803e3d5ffd5b505050506040513d601f19601f82011682018060405250810190610edc9190613722565b508460035f828254610eee919061370f565b909155505060017f9b779b17422d0df92223018b32b4d1fa46e071723d6817e2486d003becc55f005550610f2798505050505050505050565b5050565b7f52c63247e1f47db19d5ce0460030c497f067ca4cebf71ba98eeadabe20bace0380546060917f52c63247e1f47db19d5ce0460030c497f067ca4cebf71ba98eeadabe20bace0091610f7c90613758565b80601f0160208091040260200160405190810160405280929190818152602001828054610fa890613758565b8015610ff35780601f10610fca57610100808354040283529160200191610ff3565b820191905f5260205f20905b815481529060010190602001808311610fd657829003601f168201915b505050505091505090565b5f3361100b818585612598565b60019150505b92915050565b61101f6125aa565b6001600160a01b03919091165f908152600860205260409020805460ff1916911515919091179055565b5f3361105685828561261e565b6110618585856126d1565b60019150505b9392505050565b5f8060025f9054906101000a90046001600160a01b03166001600160a01b031663bb3ba04c6040518163ffffffff1660e01b8152600401602060405180830381865afa1580156110c0573d5f803e3d5ffd5b505050506040513d601f19601f820116820180604052508101906110e4919061373d565b90505f60025f9054906101000a90046001600160a01b03166001600160a01b0316631bf01e9b6040518163ffffffff1660e01b8152600401602060405180830381865afa158015611137573d5f803e3d5ffd5b505050506040513d601f19601f8201168201806040525081019061115b919061373d565b5f80546040516370a0823160e01b8152306004820152929350909182916001600160a01b0316906370a0823190602401602060405180830381865afa1580156111a6573d5f803e3d5ffd5b505050506040513d601f19601f820116820180604052508101906111ca91906135a7565b6001546040516370a0823160e01b81523060048201529192505f916001600160a01b03909116906370a0823190602401602060405180830381865afa158015611215573d5f803e3d5ffd5b505050506040513d601f19601f8201168201806040525081019061123991906135a7565b905081158015611247575080155b15611257575f9550505050505090565b5f546001600160a01b0385811691161461130b575f546040517f248391ff0000000000000000000000000000000000000000000000000000000081526001600160a01b0391821660048201528582166024820152604481018490529086169063248391ff90606401602060405180830381865afa1580156112da573d5f803e3d5ffd5b505050506040513d601f19601f820116820180604052508101906112fe91906135a7565b6113089084613790565b92505b6001545f546040517f248391ff0000000000000000000000000000000000000000000000000000000081526001600160a01b0392831660048201529082166024820152604481018390529086169063248391ff90606401602060405180830381865afa15801561137d573d5f803e3d5ffd5b505050506040513d601f19601f820116820180604052508101906113a191906135a7565b6113ab9084613790565b92506113b78284613790565b9695505050505050565b6113c96125aa565b6113d1612760565b565b6113db6127d2565b6113e4826128a2565b610f2782826128aa565b5f6113f76129ab565b507f360894a13ba1a3210667c828492db98dca3e2076cc3735a920a3ca505d382bbc90565b61142461233c565b61142c6123bd565b5f821161147b5760405162461bcd60e51b815260206004820181905260248201527f416d6f756e74206d7573742062652067726561746572207468616e207a65726f60448201526064016107b6565b5f546040517f23b872dd000000000000000000000000000000000000000000000000000000008152336004820152306024820152604481018490526001600160a01b03909116906323b872dd906064016020604051808303815f875af11580156114e7573d5f803e3d5ffd5b505050506040513d601f19601f8201168201806040525081019061150b9190613722565b50600254604080517f04cc732500000000000000000000000000000000000000000000000000000000815290515f926001600160a01b0316916304cc73259160048083019260209291908290030181865afa15801561156c573d5f803e3d5ffd5b505050506040513d601f19601f82011682018060405250810190611590919061373d565b90505f60025f9054906101000a90046001600160a01b03166001600160a01b0316633b19e84a6040518163ffffffff1660e01b8152600401602060405180830381865afa1580156115e3573d5f803e3d5ffd5b505050506040513d601f19601f82011682018060405250810190611607919061373d565b90505f61161385612466565b90505f61161f82612466565b5f549091506001600160a01b031663a9059cbb8561163d848661370f565b6040517fffffffff0000000000000000000000000000000000000000000000000000000060e085901b1681526001600160a01b03909216600483015260248201526044016020604051808303815f875af115801561169d573d5f803e3d5ffd5b505050506040513d601f19601f820116820180604052508101906116c19190613722565b505f5460405163a9059cbb60e01b81526001600160a01b038581166004830152602482018490529091169063a9059cbb906044016020604051808303815f875af1158015611711573d5f803e3d5ffd5b505050506040513d601f19601f820116820180604052508101906117359190613722565b505f611741838861370f565b90505f805f9054906101000a90046001600160a01b03166001600160a01b031663313ce5676040518163ffffffff1660e01b8152600401602060405180830381865afa158015611793573d5f803e3d5ffd5b505050506040513d601f19601f820116820180604052508101906117b79190613587565b90505f6117c58260126135d2565b6117d090600a6136cb565b6117da90846136d9565b90506117e68882612a0d565b8260035f8282546117f79190613790565b909155505060017f9b779b17422d0df92223018b32b4d1fa46e071723d6817e2486d003becc55f005550610f2795505050505050565b6118356125aa565b6113d15f612a5a565b6118466125aa565b6113d1612ad7565b7f52c63247e1f47db19d5ce0460030c497f067ca4cebf71ba98eeadabe20bace0480546060917f52c63247e1f47db19d5ce0460030c497f067ca4cebf71ba98eeadabe20bace0091610f7c90613758565b5f3361100b8185856126d1565b7ff0c57e16840df040f15088dc2f81fe391c3923bec73e23a9662efc9c229c6a00805482919068010000000000000000900460ff16806118fa5750805467ffffffffffffffff808416911610155b15611931576040517ff92ee8a900000000000000000000000000000000000000000000000000000000815260040160405180910390fd5b80547fffffffffffffffffffffffffffffffffffffffffffffff0000000000000000001667ffffffffffffffff8316176801000000000000000017815561197733612b32565b6119818989612b43565b611989612b55565b611991612b5d565b611999612b6d565b5f80546001600160a01b03808a1673ffffffffffffffffffffffffffffffffffffffff19928316179092556001805489841690831617905560028054928816929091169190911790556119ee846101686136d9565b60065560078490554360049081556040805163313ce56760e01b815290516001600160a01b038a169263313ce567928082019260209290918290030181865afa158015611a3d573d5f803e3d5ffd5b505050506040513d601f19601f82011682018060405250810190611a619190613587565b611a6c90600a6136cb565b611a78906127106136d9565b600555805468ff00000000000000001916815560405167ffffffffffffffff831681527fc7f505b2f371ae2175ee4913f4499e1f2633a7b5936321eed1cdaeb6115181d29060200160405180910390a1505050505050505050565b335f9081526008602052604090205460ff16611b315760405162461bcd60e51b815260206004820152600e60248201527f6578656375746f723a207775743f00000000000000000000000000000000000060448201526064016107b6565b611b3961233c565b611b416123bd565b600754600454611b51904361370f565b11611b9e5760405162461bcd60e51b815260206004820152601d60248201527f776169742074696c6c206e657874207265696e76657374206379636c6500000060448201526064016107b6565b5f611ba7611e17565b90505f8111611bf85760405162461bcd60e51b815260206004820152600f60248201527f4e6f7468696e6720746f2073776170000000000000000000000000000000000060448201526064016107b6565b600254604080517f82755ebb00000000000000000000000000000000000000000000000000000000815290515f926001600160a01b0316916382755ebb9160048083019260209291908290030181865afa158015611c58573d5f803e3d5ffd5b505050506040513d601f19601f82011682018060405250810190611c7c919061373d565b5f546040517f095ea7b30000000000000000000000000000000000000000000000000000000081526001600160a01b0380841660048301526024820186905292935091169063095ea7b3906044016020604051808303815f875af1158015611ce6573d5f803e3d5ffd5b505050506040513d601f19601f82011682018060405250810190611d0a9190613722565b505f80546001546040517f2d6bc8ea0000000000000000000000000000000000000000000000000000000081526001600160a01b03928316600482015290821660248201526044810185905230606482015290831690632d6bc8ea906084016020604051808303815f875af1158015611d85573d5f803e3d5ffd5b505050506040513d601f19601f82011682018060405250810190611da991906135a7565b43600455604080518581526020810183905291925033917f129ac658e77b551b004790e5bd957532cef552c50852a1ee0e38dd3e23fe85db910160405180910390a25050506113d160017f9b779b17422d0df92223018b32b4d1fa46e071723d6817e2486d003becc55f0055565b5f80546040516370a0823160e01b815230600482015282916001600160a01b0316906370a0823190602401602060405180830381865afa158015611e5d573d5f803e3d5ffd5b505050506040513d601f19601f82011682018060405250810190611e8191906135a7565b90505f60045443611e92919061370f565b90505f6006548284611ea491906136d9565b611eae91906136f0565b90506005548111611ebf5780611ec3565b6005545b935050505090565b5f611ef47f52c63247e1f47db19d5ce0460030c497f067ca4cebf71ba98eeadabe20bace025490565b5f03611eff57505f90565b600254604080517f1bf01e9b00000000000000000000000000000000000000000000000000000000815290515f926001600160a01b031691631bf01e9b9160048083019260209291908290030181865afa158015611f5f573d5f803e3d5ffd5b505050506040513d601f19601f82011682018060405250810190611f83919061373d565b90505f816001600160a01b031663313ce5676040518163ffffffff1660e01b8152600401602060405180830381865afa158015611fc2573d5f803e3d5ffd5b505050506040513d601f19601f82011682018060405250810190611fe69190613587565b90505f611ff48260126135d2565b611fff90600a6136cb565b90505f8161200b61106e565b61201591906136d9565b90505f6120407f52c63247e1f47db19d5ce0460030c497f067ca4cebf71ba98eeadabe20bace025490565b61205283670de0b6b3a76400006136d9565b6113b791906136f0565b7ff0c57e16840df040f15088dc2f81fe391c3923bec73e23a9662efc9c229c6a00805468010000000000000000810460ff16159067ffffffffffffffff165f811580156120a65750825b90505f8267ffffffffffffffff1660011480156120c25750303b155b9050811580156120d0575080155b15612107576040517ff92ee8a900000000000000000000000000000000000000000000000000000000815260040160405180910390fd5b84547fffffffffffffffffffffffffffffffffffffffffffffffff0000000000000000166001178555831561215257845468ff00000000000000001916680100000000000000001785555b61215b33612b32565b6121658b8b612b43565b61216d612b55565b612175612b5d565b61217d612b6d565b5f80546001600160a01b03808c1673ffffffffffffffffffffffffffffffffffffffff1992831617909255600180548b841690831617905560028054928a16929091169190911790556121d2866101686136d9565b60065560078690554360049081556040805163313ce56760e01b815290516001600160a01b038c169263313ce567928082019260209290918290030181865afa158015612221573d5f803e3d5ffd5b505050506040513d601f19601f820116820180604052508101906122459190613587565b61225090600a6136cb565b61225c906127106136d9565b60055583156122aa57845468ff000000000000000019168555604051600181527fc7f505b2f371ae2175ee4913f4499e1f2633a7b5936321eed1cdaeb6115181d29060200160405180910390a15b5050505050505050505050565b5f806122c1611e17565b9050600754600454436122d4919061370f565b1180156122e057505f81115b91505090565b6122ee6125aa565b6001600160a01b038116612330576040517f1e4fbdf70000000000000000000000000000000000000000000000000000000081525f60048201526024016107b6565b61233981612a5a565b50565b7f9b779b17422d0df92223018b32b4d1fa46e071723d6817e2486d003becc55f0080547ffffffffffffffffffffffffffffffffffffffffffffffffffffffffffffffffe016123b7576040517f3ee5aeb500000000000000000000000000000000000000000000000000000000815260040160405180910390fd5b60029055565b7fcd5ed15c6e187e77e9aee88184c21f4f2182ab5827cb3b7e07fbedcd63f033005460ff16156113d1576040517fd93c066500000000000000000000000000000000000000000000000000000000815260040160405180910390fd5b6001600160a01b03821661245b576040517f96c6fd1e0000000000000000000000000000000000000000000000000000000081525f60048201526024016107b6565b610f27825f83612b7d565b5f8060025f9054906101000a90046001600160a01b03166001600160a01b03166385462d6f6040518163ffffffff1660e01b8152600401602060405180830381865afa1580156124b8573d5f803e3d5ffd5b505050506040513d601f19601f820116820180604052508101906124dc91906135a7565b90505f60025f9054906101000a90046001600160a01b03166001600160a01b0316634f4608a26040518163ffffffff1660e01b8152600401602060405180830381865afa15801561252f573d5f803e3d5ffd5b505050506040513d601f19601f8201168201806040525081019061255391906135a7565b90508061256083866136d9565b61256a91906136f0565b949350505050565b60017f9b779b17422d0df92223018b32b4d1fa46e071723d6817e2486d003becc55f0055565b6125a58383836001612ce2565b505050565b336125dc7f9016d09d72d40fdae2fd8ceac6b6234c7706214fd39c1cd1e609a0528c199300546001600160a01b031690565b6001600160a01b0316146113d1576040517f118cdaa70000000000000000000000000000000000000000000000000000000081523360048201526024016107b6565b6001600160a01b038381165f9081527f52c63247e1f47db19d5ce0460030c497f067ca4cebf71ba98eeadabe20bace0160209081526040808320938616835292905220545f1981146126cb57818110156126bd576040517ffb8f41b20000000000000000000000000000000000000000000000000000000081526001600160a01b038416600482015260248101829052604481018390526064016107b6565b6126cb84848484035f612ce2565b50505050565b6001600160a01b038316612713576040517f96c6fd1e0000000000000000000000000000000000000000000000000000000081525f60048201526024016107b6565b6001600160a01b038216612755576040517fec442f050000000000000000000000000000000000000000000000000000000081525f60048201526024016107b6565b6125a5838383612b7d565b612768612e0b565b7fcd5ed15c6e187e77e9aee88184c21f4f2182ab5827cb3b7e07fbedcd63f03300805460ff191681557f5db9ee0a495bf2e6ff9c91a7834c1ba4fdd244a5e8aa4e537bd38aeae4b073aa335b6040516001600160a01b03909116815260200160405180910390a150565b306001600160a01b037f000000000000000000000000000000000000000000000000000000000000000016148061286b57507f00000000000000000000000000000000000000000000000000000000000000006001600160a01b031661285f7f360894a13ba1a3210667c828492db98dca3e2076cc3735a920a3ca505d382bbc546001600160a01b031690565b6001600160a01b031614155b156113d1576040517fe07c8dba00000000000000000000000000000000000000000000000000000000815260040160405180910390fd5b6123396125aa565b816001600160a01b03166352d1902d6040518163ffffffff1660e01b8152600401602060405180830381865afa925050508015612904575060408051601f3d908101601f19168201909252612901918101906135a7565b60015b612945576040517f4c9c8ce30000000000000000000000000000000000000000000000000000000081526001600160a01b03831660048201526024016107b6565b7f360894a13ba1a3210667c828492db98dca3e2076cc3735a920a3ca505d382bbc81146129a1576040517faa1d49a4000000000000000000000000000000000000000000000000000000008152600481018290526024016107b6565b6125a58383612e66565b306001600160a01b037f000000000000000000000000000000000000000000000000000000000000000016146113d1576040517fe07c8dba00000000000000000000000000000000000000000000000000000000815260040160405180910390fd5b6001600160a01b038216612a4f576040517fec442f050000000000000000000000000000000000000000000000000000000081525f60048201526024016107b6565b610f275f8383612b7d565b7f9016d09d72d40fdae2fd8ceac6b6234c7706214fd39c1cd1e609a0528c199300805473ffffffffffffffffffffffffffffffffffffffff1981166001600160a01b03848116918217845560405192169182907f8be0079c531659141344cd1fd0a4f28419497f9722a3daafe3b4186f6b6457e0905f90a3505050565b612adf6123bd565b7fcd5ed15c6e187e77e9aee88184c21f4f2182ab5827cb3b7e07fbedcd63f03300805460ff191660011781557f62e78cea01bee320cd4e420270b5ea74000d11b0c9f74754ebdbfc544b05a258336127b4565b612b3a612ebb565b61233981612f22565b612b4b612ebb565b610f278282612f2a565b6113d1612ebb565b612b65612ebb565b6113d1612f8d565b612b75612ebb565b6113d1612f95565b7f52c63247e1f47db19d5ce0460030c497f067ca4cebf71ba98eeadabe20bace006001600160a01b038416612bca5781816002015f828254612bbf9190613790565b90915550612c539050565b6001600160a01b0384165f9081526020829052604090205482811015612c35576040517fe450d38c0000000000000000000000000000000000000000000000000000000081526001600160a01b038616600482015260248101829052604481018490526064016107b6565b6001600160a01b0385165f9081526020839052604090209083900390555b6001600160a01b038316612c71576002810180548390039055612c8f565b6001600160a01b0383165f9081526020829052604090208054830190555b826001600160a01b0316846001600160a01b03167fddf252ad1be2c89b69c2b068fc378daa952ba7f163c4a11628f55a4df523b3ef84604051612cd491815260200190565b60405180910390a350505050565b7f52c63247e1f47db19d5ce0460030c497f067ca4cebf71ba98eeadabe20bace006001600160a01b038516612d45576040517fe602df050000000000000000000000000000000000000000000000000000000081525f60048201526024016107b6565b6001600160a01b038416612d87576040517f94280d620000000000000000000000000000000000000000000000000000000081525f60048201526024016107b6565b6001600160a01b038086165f90815260018301602090815260408083209388168352929052208390558115612e0457836001600160a01b0316856001600160a01b03167f8c5be1e5ebec7d5bd14f71427d1e84f3dd0314c0f7b2291e5b200ac8c7c3b92585604051612dfb91815260200190565b60405180910390a35b5050505050565b7fcd5ed15c6e187e77e9aee88184c21f4f2182ab5827cb3b7e07fbedcd63f033005460ff166113d1576040517f8dfc202b00000000000000000000000000000000000000000000000000000000815260040160405180910390fd5b612e6f82612fc8565b6040516001600160a01b038316907fbc7cd75a20ee27fd9adebab32041f755214dbc6bffa90cc0225b39da2e5c2d3b905f90a2805115612eb3576125a58282613064565b610f276130d6565b7ff0c57e16840df040f15088dc2f81fe391c3923bec73e23a9662efc9c229c6a005468010000000000000000900460ff166113d1576040517fd7e6bcf800000000000000000000000000000000000000000000000000000000815260040160405180910390fd5b6122ee612ebb565b612f32612ebb565b7f52c63247e1f47db19d5ce0460030c497f067ca4cebf71ba98eeadabe20bace007f52c63247e1f47db19d5ce0460030c497f067ca4cebf71ba98eeadabe20bace03612f7e84826137e7565b50600481016126cb83826137e7565b612572612ebb565b612f9d612ebb565b7fcd5ed15c6e187e77e9aee88184c21f4f2182ab5827cb3b7e07fbedcd63f03300805460ff19169055565b806001600160a01b03163b5f03613016576040517f4c9c8ce30000000000000000000000000000000000000000000000000000000081526001600160a01b03821660048201526024016107b6565b7f360894a13ba1a3210667c828492db98dca3e2076cc3735a920a3ca505d382bbc805473ffffffffffffffffffffffffffffffffffffffff19166001600160a01b0392909216919091179055565b60605f80846001600160a01b03168460405161308091906138a7565b5f60405180830381855af49150503d805f81146130b8576040519150601f19603f3d011682016040523d82523d5f602084013e6130bd565b606091505b50915091506130cd85838361310e565b95945050505050565b34156113d1576040517fb398979f00000000000000000000000000000000000000000000000000000000815260040160405180910390fd5b6060826131235761311e82613183565b611067565b815115801561313a57506001600160a01b0384163b155b1561317c576040517f9996b3150000000000000000000000000000000000000000000000000000000081526001600160a01b03851660048201526024016107b6565b5080611067565b8051156131935780518082602001fd5b6040517f1425ea4200000000000000000000000000000000000000000000000000000000815260040160405180910390fd5b6001600160a01b0381168114612339575f80fd5b5f80604083850312156131ea575f80fd5b8235915060208301356131fc816131c5565b809150509250929050565b602081525f82518060208401528060208501604085015e5f604082850101526040601f19601f83011684010191505092915050565b5f806040838503121561324d575f80fd5b8235613258816131c5565b946020939093013593505050565b8015158114612339575f80fd5b5f8060408385031215613284575f80fd5b823561328f816131c5565b915060208301356131fc81613266565b5f805f606084860312156132b1575f80fd5b83356132bc816131c5565b925060208401356132cc816131c5565b929592945050506040919091013590565b634e487b7160e01b5f52604160045260245ffd5b5f67ffffffffffffffff8084111561330b5761330b6132dd565b604051601f8501601f19908116603f01168101908282118183101715613333576133336132dd565b8160405280935085815286868601111561334b575f80fd5b858560208301375f602087830101525050509392505050565b5f8060408385031215613375575f80fd5b8235613380816131c5565b9150602083013567ffffffffffffffff81111561339b575f80fd5b8301601f810185136133ab575f80fd5b6133ba858235602084016132f1565b9150509250929050565b5f602082840312156133d4575f80fd5b8135611067816131c5565b5f82601f8301126133ee575f80fd5b611067838335602085016132f1565b5f805f805f805f60e0888a031215613413575f80fd5b873567ffffffffffffffff8082111561342a575f80fd5b6134368b838c016133df565b985060208a013591508082111561344b575f80fd5b6134578b838c016133df565b975060408a01359150613469826131c5565b90955060608901359061347b826131c5565b90945060808901359061348d826131c5565b90935060a0890135925060c08901359080821682146134aa575f80fd5b508091505092959891949750929550565b5f80604083850312156134cc575f80fd5b82356134d7816131c5565b915060208301356131fc816131c5565b5f805f805f8060c087890312156134fc575f80fd5b863567ffffffffffffffff80821115613513575f80fd5b61351f8a838b016133df565b97506020890135915080821115613534575f80fd5b5061354189828a016133df565b9550506040870135613552816131c5565b93506060870135613562816131c5565b92506080870135613572816131c5565b8092505060a087013590509295509295509295565b5f60208284031215613597575f80fd5b815160ff81168114611067575f80fd5b5f602082840312156135b7575f80fd5b5051919050565b634e487b7160e01b5f52601160045260245ffd5b60ff8281168282160390811115611011576110116135be565b600181815b8085111561362557815f190482111561360b5761360b6135be565b8085161561361857918102915b93841c93908002906135f0565b509250929050565b5f8261363b57506001611011565b8161364757505f611011565b816001811461365d576002811461366757613683565b6001915050611011565b60ff841115613678576136786135be565b50506001821b611011565b5060208310610133831016604e8410600b84101617156136a6575081810a611011565b6136b083836135eb565b805f19048211156136c3576136c36135be565b029392505050565b5f61106760ff84168361362d565b8082028115828204841417611011576110116135be565b5f8261370a57634e487b7160e01b5f52601260045260245ffd5b500490565b81810381811115611011576110116135be565b5f60208284031215613732575f80fd5b815161106781613266565b5f6020828403121561374d575f80fd5b8151611067816131c5565b600181811c9082168061376c57607f821691505b60208210810361378a57634e487b7160e01b5f52602260045260245ffd5b50919050565b80820180821115611011576110116135be565b601f8211156125a557805f5260205f20601f840160051c810160208510156137c85750805b601f840160051c820191505b81811015612e04575f81556001016137d4565b815167ffffffffffffffff811115613801576138016132dd565b6138158161380f8454613758565b846137a3565b602080601f831160018114613848575f84156138315750858301515b5f19600386901b1c1916600185901b17855561389f565b5f85815260208120601f198616915b8281101561387657888601518255948401946001909101908401613857565b508582101561389357878501515f19600388901b60f8161c191681555b505060018460011b0185555b505050505050565b5f82518060208501845e5f92019182525091905056fea26469706673582212200715022b3d313d9ee579f9e8d21d222032148be4058dd3dec566f2d41779abeb64736f6c63430008190033",
  "linkReferences": {},
  "deployedLinkReferences": {}
}