{
  "_format": "hh-sol-artifact-1",
  "contractName": "BaluniV1DCAVault",
  "sourceName": "contracts/vaults/BaluniV1DCAVault.sol",
  "abi": [
    {
      "inputs": [
        {
          "internalType": "address",
          "name": "target",
          "type": "address"
        }
      ],
      "name": "AddressEmptyCode",
      "type": "error"
    },
    {
      "inputs": [
        {
          "internalType": "address",
          "name": "implementation",
          "type": "address"
        }
      ],
      "name": "ERC1967InvalidImplementation",
      "type": "error"
    },
    {
      "inputs": [],
      "name": "ERC1967NonPayable",
      "type": "error"
    },
    {
      "inputs": [
        {
          "internalType": "address",
          "name": "spender",
          "type": "address"
        },
        {
          "internalType": "uint256",
          "name": "allowance",
          "type": "uint256"
        },
        {
          "internalType": "uint256",
          "name": "needed",
          "type": "uint256"
        }
      ],
      "name": "ERC20InsufficientAllowance",
      "type": "error"
    },
    {
      "inputs": [
        {
          "internalType": "address",
          "name": "sender",
          "type": "address"
        },
        {
          "internalType": "uint256",
          "name": "balance",
          "type": "uint256"
        },
        {
          "internalType": "uint256",
          "name": "needed",
          "type": "uint256"
        }
      ],
      "name": "ERC20InsufficientBalance",
      "type": "error"
    },
    {
      "inputs": [
        {
          "internalType": "address",
          "name": "approver",
          "type": "address"
        }
      ],
      "name": "ERC20InvalidApprover",
      "type": "error"
    },
    {
      "inputs": [
        {
          "internalType": "address",
          "name": "receiver",
          "type": "address"
        }
      ],
      "name": "ERC20InvalidReceiver",
      "type": "error"
    },
    {
      "inputs": [
        {
          "internalType": "address",
          "name": "sender",
          "type": "address"
        }
      ],
      "name": "ERC20InvalidSender",
      "type": "error"
    },
    {
      "inputs": [
        {
          "internalType": "address",
          "name": "spender",
          "type": "address"
        }
      ],
      "name": "ERC20InvalidSpender",
      "type": "error"
    },
    {
      "inputs": [],
      "name": "EnforcedPause",
      "type": "error"
    },
    {
      "inputs": [],
      "name": "ExpectedPause",
      "type": "error"
    },
    {
      "inputs": [],
      "name": "FailedInnerCall",
      "type": "error"
    },
    {
      "inputs": [],
      "name": "InvalidInitialization",
      "type": "error"
    },
    {
      "inputs": [],
      "name": "NotInitializing",
      "type": "error"
    },
    {
      "inputs": [
        {
          "internalType": "address",
          "name": "owner",
          "type": "address"
        }
      ],
      "name": "OwnableInvalidOwner",
      "type": "error"
    },
    {
      "inputs": [
        {
          "internalType": "address",
          "name": "account",
          "type": "address"
        }
      ],
      "name": "OwnableUnauthorizedAccount",
      "type": "error"
    },
    {
      "inputs": [],
      "name": "ReentrancyGuardReentrantCall",
      "type": "error"
    },
    {
      "inputs": [],
      "name": "UUPSUnauthorizedCallContext",
      "type": "error"
    },
    {
      "inputs": [
        {
          "internalType": "bytes32",
          "name": "slot",
          "type": "bytes32"
        }
      ],
      "name": "UUPSUnsupportedProxiableUUID",
      "type": "error"
    },
    {
      "anonymous": false,
      "inputs": [
        {
          "indexed": true,
          "internalType": "address",
          "name": "owner",
          "type": "address"
        },
        {
          "indexed": true,
          "internalType": "address",
          "name": "spender",
          "type": "address"
        },
        {
          "indexed": false,
          "internalType": "uint256",
          "name": "value",
          "type": "uint256"
        }
      ],
      "name": "Approval",
      "type": "event"
    },
    {
      "anonymous": false,
      "inputs": [
        {
          "indexed": true,
          "internalType": "address",
          "name": "sender",
          "type": "address"
        },
        {
          "indexed": false,
          "internalType": "uint256",
          "name": "amountIn",
          "type": "uint256"
        },
        {
          "indexed": false,
          "internalType": "uint256",
          "name": "amountOut",
          "type": "uint256"
        }
      ],
      "name": "ExecuteTrade",
      "type": "event"
    },
    {
      "anonymous": false,
      "inputs": [
        {
          "indexed": false,
          "internalType": "uint64",
          "name": "version",
          "type": "uint64"
        }
      ],
      "name": "Initialized",
      "type": "event"
    },
    {
      "anonymous": false,
      "inputs": [
        {
          "indexed": true,
          "internalType": "address",
          "name": "previousOwner",
          "type": "address"
        },
        {
          "indexed": true,
          "internalType": "address",
          "name": "newOwner",
          "type": "address"
        }
      ],
      "name": "OwnershipTransferred",
      "type": "event"
    },
    {
      "anonymous": false,
      "inputs": [
        {
          "indexed": false,
          "internalType": "address",
          "name": "account",
          "type": "address"
        }
      ],
      "name": "Paused",
      "type": "event"
    },
    {
      "anonymous": false,
      "inputs": [
        {
          "indexed": true,
          "internalType": "address",
          "name": "from",
          "type": "address"
        },
        {
          "indexed": true,
          "internalType": "address",
          "name": "to",
          "type": "address"
        },
        {
          "indexed": false,
          "internalType": "uint256",
          "name": "value",
          "type": "uint256"
        }
      ],
      "name": "Transfer",
      "type": "event"
    },
    {
      "anonymous": false,
      "inputs": [
        {
          "indexed": false,
          "internalType": "address",
          "name": "account",
          "type": "address"
        }
      ],
      "name": "Unpaused",
      "type": "event"
    },
    {
      "anonymous": false,
      "inputs": [
        {
          "indexed": true,
          "internalType": "address",
          "name": "implementation",
          "type": "address"
        }
      ],
      "name": "Upgraded",
      "type": "event"
    },
    {
      "inputs": [],
      "name": "UPGRADE_INTERFACE_VERSION",
      "outputs": [
        {
          "internalType": "string",
          "name": "",
          "type": "string"
        }
      ],
      "stateMutability": "view",
      "type": "function"
    },
    {
      "inputs": [],
      "name": "accumulatedAssetB",
      "outputs": [
        {
          "internalType": "uint256",
          "name": "",
          "type": "uint256"
        }
      ],
      "stateMutability": "view",
      "type": "function"
    },
    {
      "inputs": [
        {
          "internalType": "address",
          "name": "owner",
          "type": "address"
        },
        {
          "internalType": "address",
          "name": "spender",
          "type": "address"
        }
      ],
      "name": "allowance",
      "outputs": [
        {
          "internalType": "uint256",
          "name": "",
          "type": "uint256"
        }
      ],
      "stateMutability": "view",
      "type": "function"
    },
    {
      "inputs": [
        {
          "internalType": "address",
          "name": "spender",
          "type": "address"
        },
        {
          "internalType": "uint256",
          "name": "value",
          "type": "uint256"
        }
      ],
      "name": "approve",
      "outputs": [
        {
          "internalType": "bool",
          "name": "",
          "type": "bool"
        }
      ],
      "stateMutability": "nonpayable",
      "type": "function"
    },
    {
      "inputs": [
        {
          "internalType": "address",
          "name": "account",
          "type": "address"
        }
      ],
      "name": "balanceOf",
      "outputs": [
        {
          "internalType": "uint256",
          "name": "",
          "type": "uint256"
        }
      ],
      "stateMutability": "view",
      "type": "function"
    },
    {
      "inputs": [],
      "name": "baseAsset",
      "outputs": [
        {
          "internalType": "address",
          "name": "",
          "type": "address"
        }
      ],
      "stateMutability": "view",
      "type": "function"
    },
    {
      "inputs": [],
      "name": "canSystemDeposit",
      "outputs": [
        {
          "internalType": "bool",
          "name": "",
          "type": "bool"
        }
      ],
      "stateMutability": "view",
      "type": "function"
    },
    {
      "inputs": [
        {
          "internalType": "uint256",
          "name": "_reinvestDuration",
          "type": "uint256"
        }
      ],
      "name": "changeReinvestDuration",
      "outputs": [],
      "stateMutability": "nonpayable",
      "type": "function"
    },
    {
      "inputs": [],
      "name": "decimals",
      "outputs": [
        {
          "internalType": "uint8",
          "name": "",
          "type": "uint8"
        }
      ],
      "stateMutability": "view",
      "type": "function"
    },
    {
      "inputs": [
        {
          "internalType": "uint256",
          "name": "amount",
          "type": "uint256"
        },
        {
          "internalType": "address",
          "name": "to",
          "type": "address"
        }
      ],
      "name": "deposit",
      "outputs": [],
      "stateMutability": "nonpayable",
      "type": "function"
    },
    {
      "inputs": [
        {
          "internalType": "address",
          "name": "",
          "type": "address"
        }
      ],
      "name": "executors",
      "outputs": [
        {
          "internalType": "bool",
          "name": "",
          "type": "bool"
        }
      ],
      "stateMutability": "view",
      "type": "function"
    },
    {
      "inputs": [],
      "name": "getAmountToSwap",
      "outputs": [
        {
          "internalType": "uint256",
          "name": "",
          "type": "uint256"
        }
      ],
      "stateMutability": "view",
      "type": "function"
    },
    {
      "inputs": [
        {
          "internalType": "string",
          "name": "_name",
          "type": "string"
        },
        {
          "internalType": "string",
          "name": "_symbol",
          "type": "string"
        },
        {
          "internalType": "address",
          "name": "_baseAsset",
          "type": "address"
        },
        {
          "internalType": "address",
          "name": "_quoteAsset",
          "type": "address"
        },
        {
          "internalType": "address",
          "name": "_registryAddress",
          "type": "address"
        },
        {
          "internalType": "uint256",
          "name": "_reinvestDuration",
          "type": "uint256"
        }
      ],
      "name": "initialize",
      "outputs": [],
      "stateMutability": "nonpayable",
      "type": "function"
    },
    {
      "inputs": [],
      "name": "lastDeposit",
      "outputs": [
        {
          "internalType": "uint256",
          "name": "",
          "type": "uint256"
        }
      ],
      "stateMutability": "view",
      "type": "function"
    },
    {
      "inputs": [],
      "name": "lastInvestedBlock",
      "outputs": [
        {
          "internalType": "uint256",
          "name": "",
          "type": "uint256"
        }
      ],
      "stateMutability": "view",
      "type": "function"
    },
    {
      "inputs": [],
      "name": "maxPerSwap",
      "outputs": [
        {
          "internalType": "uint256",
          "name": "",
          "type": "uint256"
        }
      ],
      "stateMutability": "view",
      "type": "function"
    },
    {
      "inputs": [],
      "name": "name",
      "outputs": [
        {
          "internalType": "string",
          "name": "",
          "type": "string"
        }
      ],
      "stateMutability": "view",
      "type": "function"
    },
    {
      "inputs": [],
      "name": "owner",
      "outputs": [
        {
          "internalType": "address",
          "name": "",
          "type": "address"
        }
      ],
      "stateMutability": "view",
      "type": "function"
    },
    {
      "inputs": [],
      "name": "pause",
      "outputs": [],
      "stateMutability": "nonpayable",
      "type": "function"
    },
    {
      "inputs": [],
      "name": "paused",
      "outputs": [
        {
          "internalType": "bool",
          "name": "",
          "type": "bool"
        }
      ],
      "stateMutability": "view",
      "type": "function"
    },
    {
      "inputs": [],
      "name": "proxiableUUID",
      "outputs": [
        {
          "internalType": "bytes32",
          "name": "",
          "type": "bytes32"
        }
      ],
      "stateMutability": "view",
      "type": "function"
    },
    {
      "inputs": [],
      "name": "quoteAsset",
      "outputs": [
        {
          "internalType": "address",
          "name": "",
          "type": "address"
        }
      ],
      "stateMutability": "view",
      "type": "function"
    },
    {
      "inputs": [],
      "name": "registry",
      "outputs": [
        {
          "internalType": "address",
          "name": "",
          "type": "address"
        }
      ],
      "stateMutability": "view",
      "type": "function"
    },
    {
      "inputs": [
        {
          "internalType": "string",
          "name": "_name",
          "type": "string"
        },
        {
          "internalType": "string",
          "name": "_symbol",
          "type": "string"
        },
        {
          "internalType": "address",
          "name": "_baseAsset",
          "type": "address"
        },
        {
          "internalType": "address",
          "name": "_quoteAsset",
          "type": "address"
        },
        {
          "internalType": "address",
          "name": "_registryAddress",
          "type": "address"
        },
        {
          "internalType": "uint256",
          "name": "_reinvestDuration",
          "type": "uint256"
        },
        {
          "internalType": "uint64",
          "name": "_version",
          "type": "uint64"
        }
      ],
      "name": "reinitialize",
      "outputs": [],
      "stateMutability": "nonpayable",
      "type": "function"
    },
    {
      "inputs": [],
      "name": "reinvestDuration",
      "outputs": [
        {
          "internalType": "uint256",
          "name": "",
          "type": "uint256"
        }
      ],
      "stateMutability": "view",
      "type": "function"
    },
    {
      "inputs": [],
      "name": "renounceOwnership",
      "outputs": [],
      "stateMutability": "nonpayable",
      "type": "function"
    },
    {
      "inputs": [
        {
          "internalType": "address",
          "name": "_wallet",
          "type": "address"
        },
        {
          "internalType": "bool",
          "name": "_allow",
          "type": "bool"
        }
      ],
      "name": "setExecutor",
      "outputs": [],
      "stateMutability": "nonpayable",
      "type": "function"
    },
    {
      "inputs": [],
      "name": "swapDuration",
      "outputs": [
        {
          "internalType": "uint256",
          "name": "",
          "type": "uint256"
        }
      ],
      "stateMutability": "view",
      "type": "function"
    },
    {
      "inputs": [],
      "name": "symbol",
      "outputs": [
        {
          "internalType": "string",
          "name": "",
          "type": "string"
        }
      ],
      "stateMutability": "view",
      "type": "function"
    },
    {
      "inputs": [],
      "name": "systemDeposit",
      "outputs": [],
      "stateMutability": "nonpayable",
      "type": "function"
    },
    {
      "inputs": [],
      "name": "totalSupply",
      "outputs": [
        {
          "internalType": "uint256",
          "name": "",
          "type": "uint256"
        }
      ],
      "stateMutability": "view",
      "type": "function"
    },
    {
      "inputs": [],
      "name": "totalValuation",
      "outputs": [
        {
          "internalType": "uint256",
          "name": "",
          "type": "uint256"
        }
      ],
      "stateMutability": "view",
      "type": "function"
    },
    {
      "inputs": [
        {
          "internalType": "address",
          "name": "to",
          "type": "address"
        },
        {
          "internalType": "uint256",
          "name": "value",
          "type": "uint256"
        }
      ],
      "name": "transfer",
      "outputs": [
        {
          "internalType": "bool",
          "name": "",
          "type": "bool"
        }
      ],
      "stateMutability": "nonpayable",
      "type": "function"
    },
    {
      "inputs": [
        {
          "internalType": "address",
          "name": "from",
          "type": "address"
        },
        {
          "internalType": "address",
          "name": "to",
          "type": "address"
        },
        {
          "internalType": "uint256",
          "name": "value",
          "type": "uint256"
        }
      ],
      "name": "transferFrom",
      "outputs": [
        {
          "internalType": "bool",
          "name": "",
          "type": "bool"
        }
      ],
      "stateMutability": "nonpayable",
      "type": "function"
    },
    {
      "inputs": [
        {
          "internalType": "address",
          "name": "newOwner",
          "type": "address"
        }
      ],
      "name": "transferOwnership",
      "outputs": [],
      "stateMutability": "nonpayable",
      "type": "function"
    },
    {
      "inputs": [],
      "name": "unitPrice",
      "outputs": [
        {
          "internalType": "uint256",
          "name": "",
          "type": "uint256"
        }
      ],
      "stateMutability": "view",
      "type": "function"
    },
    {
      "inputs": [],
      "name": "unpause",
      "outputs": [],
      "stateMutability": "nonpayable",
      "type": "function"
    },
    {
      "inputs": [
        {
          "internalType": "address",
          "name": "newImplementation",
          "type": "address"
        },
        {
          "internalType": "bytes",
          "name": "data",
          "type": "bytes"
        }
      ],
      "name": "upgradeToAndCall",
      "outputs": [],
      "stateMutability": "payable",
      "type": "function"
    },
    {
      "inputs": [
        {
          "internalType": "uint256",
          "name": "shares",
          "type": "uint256"
        },
        {
          "internalType": "address",
          "name": "to",
          "type": "address"
        }
      ],
      "name": "withdraw",
      "outputs": [],
      "stateMutability": "nonpayable",
      "type": "function"
    }
  ],
  "bytecode": "0x60a08060405234602957306080526135d6908161002e8239608051818181611357015261143c0152f35b5f80fdfe604060808152600480361015610013575f80fd5b5f3560e01c908162f714ce14611c3657816306fdde0314611b70578163095ea7b314611a6657816318160ddd14611a295781631e1bff3f146119b657816323b872dd146117fa578163295b9300146117de578163313ce567146117c357816336b77107146117a75781633f4ba83a146116e85781634f1ef286146113ea5781634fe84c42146113cc57816352d1902d1461133c5781635c975abb146112fa5781636e553f6514610e8a57816370a0823114610e34578163715018a614610da35781637b10399914610d7c5781638456cb5914610ce65781638da5cb5b14610ca057816395d89b4114610b845781639ac2a01114610b48578163a9059cbb14610b18578163ad3cb1cc14610a83578163b3404efd14610a65578163bc4ba73114610a47578163c80b0baf146108d2578163cdf456e1146108ac578163d53419a31461057a578163d9d47d691461055e578163db48a5e314610540578163dd62ed3e146104c9578163e73faa2d146104a6578163edf3e29e146102e4578163f267d91b1461029d578163f2fde38b14610272578163f661af291461021157508063f7fde10f146101f35763fdf262b7146101c9575f80fd5b346101ef575f6003193601126101ef576020906001600160a01b03600154169051908152f35b5f80fd5b50346101ef575f6003193601126101ef576020906003549051908152f35b346101ef5760206003193601126101ef5780359061022d61330c565b8160085561016891808302928304036102465750600755005b6011907f4e487b71000000000000000000000000000000000000000000000000000000005f525260245ffd5b346101ef5760206003193601126101ef5761029b61028e612399565b61029661330c565b6130ae565b005b82346101ef575f6003193601126101ef576020906102b9612ec1565b906102c6600554436125e7565b6008541091826102da575b50519015158152f35b15159150836102d1565b82346101ef5760c06003193601126101ef5767ffffffffffffffff82358181116101ef576103159036908501612517565b906024358181116101ef5761032d9036908601612517565b916103366123af565b61033e6123c5565b6103466123db565b917ff0c57e16840df040f15088dc2f81fe391c3923bec73e23a9662efc9c229c6a0095865460ff818a1c16159681168015908161049e575b6001149081610494575b15908161048b575b5061046357866103d59798999a5060017fffffffffffffffffffffffffffffffffffffffffffffffff00000000000000008316178a5561042e575b5060a43594612999565b6103db57005b7fc7f505b2f371ae2175ee4913f4499e1f2633a7b5936321eed1cdaeb6115181d291817fffffffffffffffffffffffffffffffffffffffffffffff00ffffffffffffffff602093541690555160018152a1005b7fffffffffffffffffffffffffffffffffffffffffffffff0000000000000000001668010000000000000001178855896103cb565b8989517ff92ee8a9000000000000000000000000000000000000000000000000000000008152fd5b9050158b610390565b303b159150610388565b88915061037e565b82346101ef575f6003193601126101ef576020906104c2612f76565b9051908152f35b82346101ef57806003193601126101ef576020906104e5612399565b6001600160a01b0361052f6104f8612383565b926001600160a01b03165f527f52c63247e1f47db19d5ce0460030c497f067ca4cebf71ba98eeadabe20bace0160205260405f2090565b91165f528252805f20549051908152f35b82346101ef575f6003193601126101ef576020906006549051908152f35b82346101ef575f6003193601126101ef576020906104c2612ec1565b9050346101ef575f6003193601126101ef57610594613162565b61059c6131bc565b6105a8600554436125e7565b6008541015610850576105b9612ec1565b9182156107f3576001600160a01b03806002541690825180927f82755ebb000000000000000000000000000000000000000000000000000000008252818660209586935afa9081156107e9579082915f916107bc575b501693815f541683855180927f095ea7b3000000000000000000000000000000000000000000000000000000008252815f816106648d8d8a8401602090939291936001600160a01b0360408201951681520152565b03925af180156107b25791608491859493610785575b505f83815416936001541697875198899586947f2d6bc8ea00000000000000000000000000000000000000000000000000000000865285015260248401528960448401523060648401525af190811561077b575f9161072c575b7f129ac658e77b551b004790e5bd957532cef552c50852a1ee0e38dd3e23fe85db93504360055582519485528401523392a260017f9b779b17422d0df92223018b32b4d1fa46e071723d6817e2486d003becc55f0055005b80915083813d8311610774575b6107438183612439565b810103126101ef577f129ac658e77b551b004790e5bd957532cef552c50852a1ee0e38dd3e23fe85db9251906106d4565b503d610739565b82513d5f823e3d90fd5b6107a490853d87116107ab575b61079c8183612439565b8101906125f4565b505f61067a565b503d610792565b85513d5f823e3d90fd5b6107dc9150843d86116107e2575b6107d48183612439565b81019061260c565b5f61060f565b503d6107ca565b84513d5f823e3d90fd5b90602060649251917f08c379a0000000000000000000000000000000000000000000000000000000008352820152600f60248201527f4e6f7468696e6720746f207377617000000000000000000000000000000000006044820152fd5b602060649251917f08c379a0000000000000000000000000000000000000000000000000000000008352820152601d60248201527f776169742074696c6c206e657874207265696e76657374206379636c650000006044820152fd5b82346101ef575f6003193601126101ef576020906001600160a01b035f54169051908152f35b82346101ef5760e06003193601126101ef5767ffffffffffffffff9180358381116101ef576109049036908301612517565b6024358481116101ef5761091b9036908401612517565b6109236123af565b61092b6123c5565b906109346123db565b9260c435978089168099036101ef577ff0c57e16840df040f15088dc2f81fe391c3923bec73e23a9662efc9c229c6a00968754918a60ff848c1c16918215610a3a575b5050610a13577fc7f505b2f371ae2175ee4913f4499e1f2633a7b5936321eed1cdaeb6115181d260208b8b8b6109e68c8c8c8c8c68010000000000000000897fffffffffffffffffffffffffffffffffffffffffffffff0000000000000000008f161717875560a43594612999565b7fffffffffffffffffffffffffffffffffffffffffffffff00ffffffffffffffff815416905551908152a1005b88517ff92ee8a9000000000000000000000000000000000000000000000000000000008152fd5b8416101590508a8c610977565b82346101ef575f6003193601126101ef576020906005549051908152f35b82346101ef575f6003193601126101ef576020906007549051908152f35b82346101ef575f6003193601126101ef5780519080820182811067ffffffffffffffff821117610aec57610ae893508152600582527f352e302e30000000000000000000000000000000000000000000000000000000602083015251918291826123f1565b0390f35b6041847f4e487b71000000000000000000000000000000000000000000000000000000005f525260245ffd5b82346101ef57806003193601126101ef57602090610b41610b37612399565b602435903361336f565b5160018152f35b82346101ef5760206003193601126101ef576020906001600160a01b03610b6d612399565b165f526009825260ff815f20541690519015158152f35b82346101ef575f6003193601126101ef5780515f7f52c63247e1f47db19d5ce0460030c497f067ca4cebf71ba98eeadabe20bace04805490610bc58261262b565b80855291602091600191828116908115610c555750600114610bfd575b610ae88688610bf382890383612439565b51918291826123f1565b5f90815293507f46a2803e59a4de4e7a4c574b1243f25977ac4c77d5a1a4a609b5394cebb4a2aa5b838510610c4257505050508101602001610bf382610ae886610be2565b8054868601840152938201938101610c25565b610ae898965087945060209350610bf39592507fffffffffffffffffffffffffffffffffffffffffffffffffffffffffffffff0091501682840152151560051b820101929486610be2565b82346101ef575f6003193601126101ef576020906001600160a01b037f9016d09d72d40fdae2fd8ceac6b6234c7706214fd39c1cd1e609a0528c19930054169051908152f35b82346101ef575f6003193601126101ef5760207f62e78cea01bee320cd4e420270b5ea74000d11b0c9f74754ebdbfc544b05a25891610d2361330c565b610d2b6131bc565b7fcd5ed15c6e187e77e9aee88184c21f4f2182ab5827cb3b7e07fbedcd63f0330060017fffffffffffffffffffffffffffffffffffffffffffffffffffffffffffffff0082541617905551338152a1005b82346101ef575f6003193601126101ef576020906001600160a01b03600254169051908152f35b346101ef575f6003193601126101ef57610dbb61330c565b5f6001600160a01b037f9016d09d72d40fdae2fd8ceac6b6234c7706214fd39c1cd1e609a0528c1993008054907fffffffffffffffffffffffff000000000000000000000000000000000000000082169055167f8be0079c531659141344cd1fd0a4f28419497f9722a3daafe3b4186f6b6457e08280a3005b82346101ef5760206003193601126101ef576020906001600160a01b03610e59612399565b165f527f52c63247e1f47db19d5ce0460030c497f067ca4cebf71ba98eeadabe20bace008252805f20549051908152f35b9050346101ef57816003193601126101ef578035610ea6612383565b610eae613162565b610eb66131bc565b811561129d575f805485517f23b872dd0000000000000000000000000000000000000000000000000000000081523386820190815230602082810191909152604082018790526001600160a01b03969094909385928492918916918391829060600103925af180156111f457611280575b5083600254168651917f04cc732500000000000000000000000000000000000000000000000000000000835283838881855afa92831561121b57879285915f95611261575b508951938480927f3b19e84a0000000000000000000000000000000000000000000000000000000082525afa91821561121b575f92611242575b5086610fb182613211565b928961101b87610fc087613211565b978b5f5416610fcf8a8a6125e7565b915f86518096819582947fa9059cbb000000000000000000000000000000000000000000000000000000009c8d85528401602090939291936001600160a01b0360408201951681520152565b03925af1801561077b5788948c925f92611225575b506110608c8354169451998a968795869485528401602090939291936001600160a01b0360408201951681520152565b03925af192831561121b5761107a936111fe575b506125e7565b928482825f54168851928380927f313ce5670000000000000000000000000000000000000000000000000000000082525afa80156111f4576110ca6110cf916110d5935f916111c7575b5061254e565b61258c565b8561259d565b9216918215611198575f917fddf252ad1be2c89b69c2b068fc378daa952ba7f163c4a11628f55a4df523b3ef9161117096977f52c63247e1f47db19d5ce0460030c497f067ca4cebf71ba98eeadabe20bace0261113383825461267c565b90558585527f52c63247e1f47db19d5ce0460030c497f067ca4cebf71ba98eeadabe20bace00835280852082815401905551908152a3825461267c565b905560017f9b779b17422d0df92223018b32b4d1fa46e071723d6817e2486d003becc55f0055005b6024855f8851917fec442f05000000000000000000000000000000000000000000000000000000008352820152fd5b6111e79150863d88116111ed575b6111df8183612439565b810190612535565b5f6110c4565b503d6111d5565b87513d5f823e3d90fd5b61121490853d87116107ab5761079c8183612439565b505f611074565b88513d5f823e3d90fd5b61123b90873d89116107ab5761079c8183612439565b505f611030565b61125a919250843d86116107e2576107d48183612439565b905f610fa6565b611279919550823d84116107e2576107d48183612439565b935f610f6c565b61129690833d85116107ab5761079c8183612439565b505f610f27565b60648360208651917f08c379a0000000000000000000000000000000000000000000000000000000008352820152602060248201527f416d6f756e74206d7573742062652067726561746572207468616e207a65726f6044820152fd5b82346101ef575f6003193601126101ef5760209060ff7fcd5ed15c6e187e77e9aee88184c21f4f2182ab5827cb3b7e07fbedcd63f03300541690519015158152f35b82346101ef575f6003193601126101ef576001600160a01b037f00000000000000000000000000000000000000000000000000000000000000001630036113a657602090517f360894a13ba1a3210667c828492db98dca3e2076cc3735a920a3ca505d382bbc8152f35b517fe07c8dba000000000000000000000000000000000000000000000000000000008152fd5b82346101ef575f6003193601126101ef576020906008549051908152f35b9050816003193601126101ef576113ff612399565b9160243567ffffffffffffffff81116101ef57366023820112156101ef5761143090369060248186013591016124e1565b906001600160a01b03807f0000000000000000000000000000000000000000000000000000000000000000168030149081156116ba575b506116925761147461330c565b8416918151947f52d1902d00000000000000000000000000000000000000000000000000000000865260209081878781885afa5f9781611663575b506114e357602486868651917f4c9c8ce3000000000000000000000000000000000000000000000000000000008352820152fd5b919490937f360894a13ba1a3210667c828492db98dca3e2076cc3735a920a3ca505d382bbc877fc9f76b5ec45e5cdef99837d7b6d2467235c1df8933c8ca56df5c35afa2c7d44481016116345750833b1561160557817fffffffffffffffffffffffff00000000000000000000000000000000000000008254161790558351907fbc7cd75a20ee27fd9adebab32041f755214dbc6bffa90cc0225b39da2e5c2d3b5f80a28551156115d35750505f80858561029b97519101845af4913d156115c9573d6115bb6115b2826124a7565b92519283612439565b81525f81943d92013e61350d565b506060925061350d565b935093505050346115e057005b7fb398979f000000000000000000000000000000000000000000000000000000008152fd5b602483838751917f4c9c8ce3000000000000000000000000000000000000000000000000000000008352820152fd5b836024918751917faa1d49a4000000000000000000000000000000000000000000000000000000008352820152fd5b9097508281813d831161168b575b61167b8183612439565b810103126101ef5751965f6114af565b503d611671565b8382517fe07c8dba000000000000000000000000000000000000000000000000000000008152fd5b9050817f360894a13ba1a3210667c828492db98dca3e2076cc3735a920a3ca505d382bbc541614155f611467565b82346101ef575f6003193601126101ef5761170161330c565b7fcd5ed15c6e187e77e9aee88184c21f4f2182ab5827cb3b7e07fbedcd63f033009182549060ff821615611780577f5db9ee0a495bf2e6ff9c91a7834c1ba4fdd244a5e8aa4e537bd38aeae4b073aa602084867fffffffffffffffffffffffffffffffffffffffffffffffffffffffffffffff008616905551338152a1005b82517f8dfc202b000000000000000000000000000000000000000000000000000000008152fd5b82346101ef575f6003193601126101ef57602091549051908152f35b82346101ef575f6003193601126101ef576020905160128152f35b82346101ef575f6003193601126101ef576020906104c2612689565b9050346101ef5760606003193601126101ef57611815612399565b61181d612383565b906044359261185c826001600160a01b03165f527f52c63247e1f47db19d5ce0460030c497f067ca4cebf71ba98eeadabe20bace0160205260405f2090565b335f52602052845f2054907fffffffffffffffffffffffffffffffffffffffffffffffffffffffffffffffff820361189d575b602086610b4187878761336f565b848210611972576001600160a01b038316156119435733156119145750918184610b41946118ff60209897956001600160a01b03165f527f52c63247e1f47db19d5ce0460030c497f067ca4cebf71ba98eeadabe20bace0160205260405f2090565b335f52885203855f205591939481935061188f565b6024905f8751917f94280d62000000000000000000000000000000000000000000000000000000008352820152fd5b6024905f8751917fe602df05000000000000000000000000000000000000000000000000000000008352820152fd5b85517ffb8f41b20000000000000000000000000000000000000000000000000000000081523391810191825260208201929092526040810185905281906060010390fd5b82346101ef57806003193601126101ef576119cf612399565b90602435918215158093036101ef576001600160a01b03906119ef61330c565b165f5260096020525f209060ff7fffffffffffffffffffffffffffffffffffffffffffffffffffffffffffffff0083541691161790555f80f35b82346101ef575f6003193601126101ef576020907f52c63247e1f47db19d5ce0460030c497f067ca4cebf71ba98eeadabe20bace02549051908152f35b82346101ef57806003193601126101ef57611a7f612399565b602435903315611b41576001600160a01b0316908115611b125760209350611ad7336001600160a01b03165f527f52c63247e1f47db19d5ce0460030c497f067ca4cebf71ba98eeadabe20bace0160205260405f2090565b825f52845280835f205582519081527f8c5be1e5ebec7d5bd14f71427d1e84f3dd0314c0f7b2291e5b200ac8c7c3b925843392a35160018152f35b6024845f8551917f94280d62000000000000000000000000000000000000000000000000000000008352820152fd5b6024845f8551917fe602df05000000000000000000000000000000000000000000000000000000008352820152fd5b82346101ef575f6003193601126101ef5780515f7f52c63247e1f47db19d5ce0460030c497f067ca4cebf71ba98eeadabe20bace03805490611bb18261262b565b80855291602091600191828116908115610c555750600114611bde57610ae88688610bf382890383612439565b5f90815293507f2ae08a8e29253f69ac5d979a101956ab8f8d9d7ded63fa7a83b16fc47648eab05b838510611c2357505050508101602001610bf382610ae886610be2565b8054868601840152938201938101611c06565b9050346101ef57816003193601126101ef578035611c52612383565b611c5a613162565b611c626131bc565b811561232657335f527f52c63247e1f47db19d5ce0460030c497f067ca4cebf71ba98eeadabe20bace0060209181835283865f2054106122ca576001600160a01b03918260015416948751907f313ce567000000000000000000000000000000000000000000000000000000008252858289818a5afa9182156120fe575f926122ab575b50885186816024817f70a08231000000000000000000000000000000000000000000000000000000009b8c82528d30908301525afa9081156121ce575f9161227e575b5086865f54169860248c51809b819382528d30908301525afa9788156121ce575f9861224d575b50611d6a611d7191611d646110ca8661254e565b9061259d565b978261259d565b611db17f52c63247e1f47db19d5ce0460030c497f067ca4cebf71ba98eeadabe20bace0291611dac611da5845480936125b0565b9a8561259d565b6125b0565b93331561221e57335f528088528a5f2054908382106121d857836110ca938d611e1b96611e219998955f958e3388525203908420558181540390558c519081527fddf252ad1be2c89b69c2b068fc378daa952ba7f163c4a11628f55a4df523b3ef8a3392a361254e565b906125b0565b9085611e2c86613211565b5f86611e8a87835416611e3f858c6125e7565b8d519485809481938b7fa9059cbb000000000000000000000000000000000000000000000000000000009b8c85528401602090939291936001600160a01b0360408201951681520152565b03925af180156121ce576121b1575b50611ea381613211565b92898660025416948151957f04cc732500000000000000000000000000000000000000000000000000000000875289878d81845afa968715612169578c918b915f99612192575b508451928380927f3b19e84a0000000000000000000000000000000000000000000000000000000082525afa94851561216957878b918e935f98612173575b50611f38858d5f5416926125e7565b935f8a611f6689519788968795869485528401602090939291936001600160a01b0360408201951681520152565b03925af180156121695761214c575b508884895f54168d5f89611faa88519788968795869485528401602090939291936001600160a01b0360408201951681520152565b03925af1801561077b57612006978a928d9261212f575b50611fcb81613211565b945f611fdc878d60015416946125e7565b9386519b8c95869485938d85528401602090939291936001600160a01b0360408201951681520152565b03925af191821561212557612060968993612108575b5061202681613211565b955f8c612037898c845416956125e7565b9451998a95869485938b85528401602090939291936001600160a01b0360408201951681520152565b03925af180156120fe576120a59587955f926120e1575b50815416928a519687958694859384528c8401602090939291936001600160a01b0360408201951681520152565b03925af180156107b2576111709495506120c3575b505082546125e7565b816120d992903d106107ab5761079c8183612439565b505f806120ba565b6120f790873d89116107ab5761079c8183612439565b505f612077565b89513d5f823e3d90fd5b61211e90843d86116107ab5761079c8183612439565b505f61201c565b50513d5f823e3d90fd5b61214590843d86116107ab5761079c8183612439565b505f611fc1565b612162908a3d8c116107ab5761079c8183612439565b505f611f75565b83513d5f823e3d90fd5b61218b919850833d85116107e2576107d48183612439565b965f611f29565b6121aa919950823d84116107e2576107d48183612439565b975f611eea565b6121c790873d89116107ab5761079c8183612439565b505f611e99565b8a513d5f823e3d90fd5b508a517fe450d38c00000000000000000000000000000000000000000000000000000000815233818c019081526020810192909252604082018490529081906060010390fd5b60248a5f8d51917f96c6fd1e000000000000000000000000000000000000000000000000000000008352820152fd5b9097508681813d8311612277575b6122658183612439565b810103126101ef575196611d6a611d50565b503d61225b565b90508681813d83116122a4575b6122958183612439565b810103126101ef57515f611d29565b503d61228b565b6122c3919250863d88116111ed576111df8183612439565b905f611ce6565b606485848851917f08c379a0000000000000000000000000000000000000000000000000000000008352820152601460248201527f496e73756666696369656e742062616c616e63650000000000000000000000006044820152fd5b60648360208651917f08c379a0000000000000000000000000000000000000000000000000000000008352820152602060248201527f536861726573206d7573742062652067726561746572207468616e207a65726f6044820152fd5b602435906001600160a01b03821682036101ef57565b600435906001600160a01b03821682036101ef57565b604435906001600160a01b03821682036101ef57565b606435906001600160a01b03821682036101ef57565b608435906001600160a01b03821682036101ef57565b7fffffffffffffffffffffffffffffffffffffffffffffffffffffffffffffffe0601f602060409481855280519182918282880152018686015e5f8582860101520116010190565b90601f7fffffffffffffffffffffffffffffffffffffffffffffffffffffffffffffffe0910116810190811067ffffffffffffffff82111761247a57604052565b7f4e487b71000000000000000000000000000000000000000000000000000000005f52604160045260245ffd5b67ffffffffffffffff811161247a57601f017fffffffffffffffffffffffffffffffffffffffffffffffffffffffffffffffe01660200190565b9291926124ed826124a7565b916124fb6040519384612439565b8294818452818301116101ef578281602093845f960137010152565b9080601f830112156101ef57816020612532933591016124e1565b90565b908160209103126101ef575160ff811681036101ef5790565b60ff166012039060ff821161255f57565b7f4e487b71000000000000000000000000000000000000000000000000000000005f52601160045260245ffd5b60ff16604d811161255f57600a0a90565b8181029291811591840414171561255f57565b81156125ba570490565b7f4e487b71000000000000000000000000000000000000000000000000000000005f52601260045260245ffd5b9190820391821161255f57565b908160209103126101ef575180151581036101ef5790565b908160209103126101ef57516001600160a01b03811681036101ef5790565b90600182811c92168015612672575b602083101461264557565b7f4e487b71000000000000000000000000000000000000000000000000000000005f52602260045260245ffd5b91607f169161263a565b9190820180921161255f57565b6001600160a01b0380600254169060409081517fbb3ba04c00000000000000000000000000000000000000000000000000000000815260209260049184818481895afa90811561077b5784849287925f9161297c575b5016968351948580927f1bf01e9b0000000000000000000000000000000000000000000000000000000082525afa92831561077b575f9361295d575b50835f5416948251957f70a08231000000000000000000000000000000000000000000000000000000009788885230848901528288602481855afa9788156107b2575f9861292e575b508660015416938551998a5230818b0152838a602481885afa998a156128df575f9a6128ff575b508815806128f7575b6128e95785517f248391ff000000000000000000000000000000000000000000000000000000008082526001600160a01b039687168383019081529689166020880152604087019b909b52948490869081906060010381855afa9485156128df575f956128b0575b508497871683145f1461281a5750505050505050612532925061267c565b9193965091949761285785988796519a8b9687958695865285016040919493929460608201956001600160a01b0380921683521660208201520152565b03915afa9283156128a757505f92612875575b50612532925061267c565b90915082813d83116128a0575b61288c8183612439565b810103126101ef576125329151905f61286a565b503d612882565b513d5f823e3d90fd5b9094508381813d83116128d8575b6128c88183612439565b810103126101ef5751935f6127fc565b503d6128be565b86513d5f823e3d90fd5b505050505050505050505f90565b508915612794565b9099508381813d8311612927575b6129178183612439565b810103126101ef5751985f61278b565b503d61290d565b9097508281813d8311612956575b6129468183612439565b810103126101ef5751965f612764565b503d61293c565b612975919350853d87116107e2576107d48183612439565b915f61271b565b6129939150833d85116107e2576107d48183612439565b5f6126df565b6129a16134b4565b6129a96134b4565b6129b2336130ae565b6129ba6134b4565b6129c26134b4565b80519067ffffffffffffffff9182811161247a577f52c63247e1f47db19d5ce0460030c497f067ca4cebf71ba98eeadabe20bace039080612a03835461262b565b93601f94858111612e56575b50602090858311600114612d9a575f92612d8f575b50507fffffffffffffffffffffffffffffffffffffffffffffffffffffffffffffffff8260011b9260031b1c19161790555b825191821161247a5781907f52c63247e1f47db19d5ce0460030c497f067ca4cebf71ba98eeadabe20bace0493612a8d855461262b565b828111612d21575b506020918311600114612c65575f92612c5a575b50507fffffffffffffffffffffffffffffffffffffffffffffffffffffffffffffffff8260011b9260031b1c19161790555b612ae36134b4565b612aeb6134b4565b612af36134b4565b60017f9b779b17422d0df92223018b32b4d1fa46e071723d6817e2486d003becc55f0055612b1f6134b4565b612b276134b4565b7fcd5ed15c6e187e77e9aee88184c21f4f2182ab5827cb3b7e07fbedcd63f033007fffffffffffffffffffffffffffffffffffffffffffffffffffffffffffffff0081541690556001600160a01b0380911692817fffffffffffffffffffffffff00000000000000000000000000000000000000009385855f5416175f55168360015416176001551690600254161760025561016890828202918204830361255f5760049260209260075560085543600555604051928380927f313ce5670000000000000000000000000000000000000000000000000000000082525afa8015612c4f57612c1c915f91612c30575b5061258c565b612710908082029182040361255f57600655565b612c49915060203d6020116111ed576111df8183612439565b5f612c16565b6040513d5f823e3d90fd5b015190505f80612aa9565b5f8581527f46a2803e59a4de4e7a4c574b1243f25977ac4c77d5a1a4a609b5394cebb4a2aa937fffffffffffffffffffffffffffffffffffffffffffffffffffffffffffffffe016905b818110612d095750908460019594939210612cd2575b505050811b019055612adb565b01517fffffffffffffffffffffffffffffffffffffffffffffffffffffffffffffffff60f88460031b161c191690555f8080612cc5565b92936020600181928786015181550195019301612caf565b90919250845f527f46a2803e59a4de4e7a4c574b1243f25977ac4c77d5a1a4a609b5394cebb4a2aa8380860160051c82019260208710612d86575b94869594939291940160051c01905b818110612d785750612a95565b5f8155859450600101612d6b565b92508192612d5c565b015190505f80612a24565b5f8581527f2ae08a8e29253f69ac5d979a101956ab8f8d9d7ded63fa7a83b16fc47648eab0937fffffffffffffffffffffffffffffffffffffffffffffffffffffffffffffffe016905b818110612e3e5750908460019594939210612e07575b505050811b019055612a56565b01517fffffffffffffffffffffffffffffffffffffffffffffffffffffffffffffffff60f88460031b161c191690555f8080612dfa565b92936020600181928786015181550195019301612de4565b909150835f527f2ae08a8e29253f69ac5d979a101956ab8f8d9d7ded63fa7a83b16fc47648eab08580850160051c82019260208610612eb8575b9085949392910160051c01905b818110612eaa5750612a0f565b5f8155849350600101612e9d565b92508192612e90565b602460206001600160a01b035f5416604051928380927f70a082310000000000000000000000000000000000000000000000000000000082523060048301525afa908115612c4f575f91612f42575b50612f24612f2d91611d64600554436125e7565b600754906125b0565b6006549081811115612f3d575090565b905090565b90506020813d602011612f6e575b81612f5d60209383612439565b810103126101ef5751612f24612f10565b3d9150612f50565b7f52c63247e1f47db19d5ce0460030c497f067ca4cebf71ba98eeadabe20bace025480156130a9576001600160a01b0380600254169060405180927f1bf01e9b00000000000000000000000000000000000000000000000000000000825281600460209586935afa8015612c4f5783915f9161308c575b506004604051809481937f313ce567000000000000000000000000000000000000000000000000000000008352165afa918215612c4f5761304b9261303e926110ca925f9261306f575b505061254e565b613046612689565b61259d565b90670de0b6b3a76400009182810292818404149015171561255f57612532916125b0565b6130859250803d106111ed576111df8183612439565b5f80613037565b6130a39150823d84116107e2576107d48183612439565b5f612fed565b505f90565b6001600160a01b03809116908115613132577f9016d09d72d40fdae2fd8ceac6b6234c7706214fd39c1cd1e609a0528c199300805490837fffffffffffffffffffffffff00000000000000000000000000000000000000008316179055167f8be0079c531659141344cd1fd0a4f28419497f9722a3daafe3b4186f6b6457e05f80a3565b60246040517f1e4fbdf70000000000000000000000000000000000000000000000000000000081525f6004820152fd5b7f9b779b17422d0df92223018b32b4d1fa46e071723d6817e2486d003becc55f0060028154146131925760029055565b60046040517f3ee5aeb5000000000000000000000000000000000000000000000000000000008152fd5b60ff7fcd5ed15c6e187e77e9aee88184c21f4f2182ab5827cb3b7e07fbedcd63f0330054166131e757565b60046040517fd93c0665000000000000000000000000000000000000000000000000000000008152fd5b6001600160a01b0360025416604051917f85462d6f0000000000000000000000000000000000000000000000000000000083526020918284600481845afa938415612c4f575f946132dd575b5082600491604051928380927f4f4608a20000000000000000000000000000000000000000000000000000000082525afa928315612c4f575f936132ab575b505061253292611dac9161259d565b9080929350813d83116132d6575b6132c38183612439565b810103126101ef57519082611dac61329c565b503d6132b9565b9093508281813d8311613305575b6132f58183612439565b810103126101ef5751928261325d565b503d6132eb565b6001600160a01b037f9016d09d72d40fdae2fd8ceac6b6234c7706214fd39c1cd1e609a0528c1993005416330361333f57565b60246040517f118cdaa7000000000000000000000000000000000000000000000000000000008152336004820152fd5b916001600160a01b03808416928315613484571692831561345457825f527f52c63247e1f47db19d5ce0460030c497f067ca4cebf71ba98eeadabe20bace008060205260405f205491838310613408575091806020927fddf252ad1be2c89b69c2b068fc378daa952ba7f163c4a11628f55a4df523b3ef94865f5284520360405f2055845f5260405f20818154019055604051908152a3565b6040517fe450d38c0000000000000000000000000000000000000000000000000000000081526001600160a01b0391909116600482015260248101929092525060448101829052606490fd5b60246040517fec442f050000000000000000000000000000000000000000000000000000000081525f6004820152fd5b60246040517f96c6fd1e0000000000000000000000000000000000000000000000000000000081525f6004820152fd5b60ff7ff0c57e16840df040f15088dc2f81fe391c3923bec73e23a9662efc9c229c6a005460401c16156134e357565b60046040517fd7e6bcf8000000000000000000000000000000000000000000000000000000008152fd5b9061354c575080511561352257805190602001fd5b60046040517f1425ea42000000000000000000000000000000000000000000000000000000008152fd5b81511580613597575b61355d575090565b6024906001600160a01b03604051917f9996b315000000000000000000000000000000000000000000000000000000008352166004820152fd5b50803b1561355556fea264697066735822122030a2e456cb80e13d30bb3a9e1b451dd510494e2a522a2eb126b91ae802b3cfee64736f6c63430008190033",
  "linkReferences": {},
  "deployedLinkReferences": {}
}