{
  "_format": "hh-sol-artifact-1",
  "contractName": "BaluniV1DCAVault",
  "sourceName": "contracts/vaults/BaluniV1DCAVault.sol",
  "abi": [
    {
      "inputs": [
        {
          "internalType": "address",
          "name": "target",
          "type": "address"
        }
      ],
      "name": "AddressEmptyCode",
      "type": "error"
    },
    {
      "inputs": [
        {
          "internalType": "address",
          "name": "implementation",
          "type": "address"
        }
      ],
      "name": "ERC1967InvalidImplementation",
      "type": "error"
    },
    {
      "inputs": [],
      "name": "ERC1967NonPayable",
      "type": "error"
    },
    {
      "inputs": [
        {
          "internalType": "address",
          "name": "spender",
          "type": "address"
        },
        {
          "internalType": "uint256",
          "name": "allowance",
          "type": "uint256"
        },
        {
          "internalType": "uint256",
          "name": "needed",
          "type": "uint256"
        }
      ],
      "name": "ERC20InsufficientAllowance",
      "type": "error"
    },
    {
      "inputs": [
        {
          "internalType": "address",
          "name": "sender",
          "type": "address"
        },
        {
          "internalType": "uint256",
          "name": "balance",
          "type": "uint256"
        },
        {
          "internalType": "uint256",
          "name": "needed",
          "type": "uint256"
        }
      ],
      "name": "ERC20InsufficientBalance",
      "type": "error"
    },
    {
      "inputs": [
        {
          "internalType": "address",
          "name": "approver",
          "type": "address"
        }
      ],
      "name": "ERC20InvalidApprover",
      "type": "error"
    },
    {
      "inputs": [
        {
          "internalType": "address",
          "name": "receiver",
          "type": "address"
        }
      ],
      "name": "ERC20InvalidReceiver",
      "type": "error"
    },
    {
      "inputs": [
        {
          "internalType": "address",
          "name": "sender",
          "type": "address"
        }
      ],
      "name": "ERC20InvalidSender",
      "type": "error"
    },
    {
      "inputs": [
        {
          "internalType": "address",
          "name": "spender",
          "type": "address"
        }
      ],
      "name": "ERC20InvalidSpender",
      "type": "error"
    },
    {
      "inputs": [],
      "name": "EnforcedPause",
      "type": "error"
    },
    {
      "inputs": [],
      "name": "ExpectedPause",
      "type": "error"
    },
    {
      "inputs": [],
      "name": "FailedInnerCall",
      "type": "error"
    },
    {
      "inputs": [],
      "name": "InvalidInitialization",
      "type": "error"
    },
    {
      "inputs": [],
      "name": "NotInitializing",
      "type": "error"
    },
    {
      "inputs": [
        {
          "internalType": "address",
          "name": "owner",
          "type": "address"
        }
      ],
      "name": "OwnableInvalidOwner",
      "type": "error"
    },
    {
      "inputs": [
        {
          "internalType": "address",
          "name": "account",
          "type": "address"
        }
      ],
      "name": "OwnableUnauthorizedAccount",
      "type": "error"
    },
    {
      "inputs": [],
      "name": "ReentrancyGuardReentrantCall",
      "type": "error"
    },
    {
      "inputs": [],
      "name": "UUPSUnauthorizedCallContext",
      "type": "error"
    },
    {
      "inputs": [
        {
          "internalType": "bytes32",
          "name": "slot",
          "type": "bytes32"
        }
      ],
      "name": "UUPSUnsupportedProxiableUUID",
      "type": "error"
    },
    {
      "anonymous": false,
      "inputs": [
        {
          "indexed": true,
          "internalType": "address",
          "name": "owner",
          "type": "address"
        },
        {
          "indexed": true,
          "internalType": "address",
          "name": "spender",
          "type": "address"
        },
        {
          "indexed": false,
          "internalType": "uint256",
          "name": "value",
          "type": "uint256"
        }
      ],
      "name": "Approval",
      "type": "event"
    },
    {
      "anonymous": false,
      "inputs": [
        {
          "indexed": true,
          "internalType": "address",
          "name": "sender",
          "type": "address"
        },
        {
          "indexed": false,
          "internalType": "uint256",
          "name": "amountIn",
          "type": "uint256"
        },
        {
          "indexed": false,
          "internalType": "uint256",
          "name": "amountOut",
          "type": "uint256"
        }
      ],
      "name": "ExecuteTrade",
      "type": "event"
    },
    {
      "anonymous": false,
      "inputs": [
        {
          "indexed": false,
          "internalType": "uint64",
          "name": "version",
          "type": "uint64"
        }
      ],
      "name": "Initialized",
      "type": "event"
    },
    {
      "anonymous": false,
      "inputs": [
        {
          "indexed": true,
          "internalType": "address",
          "name": "previousOwner",
          "type": "address"
        },
        {
          "indexed": true,
          "internalType": "address",
          "name": "newOwner",
          "type": "address"
        }
      ],
      "name": "OwnershipTransferred",
      "type": "event"
    },
    {
      "anonymous": false,
      "inputs": [
        {
          "indexed": false,
          "internalType": "address",
          "name": "account",
          "type": "address"
        }
      ],
      "name": "Paused",
      "type": "event"
    },
    {
      "anonymous": false,
      "inputs": [
        {
          "indexed": true,
          "internalType": "address",
          "name": "from",
          "type": "address"
        },
        {
          "indexed": true,
          "internalType": "address",
          "name": "to",
          "type": "address"
        },
        {
          "indexed": false,
          "internalType": "uint256",
          "name": "value",
          "type": "uint256"
        }
      ],
      "name": "Transfer",
      "type": "event"
    },
    {
      "anonymous": false,
      "inputs": [
        {
          "indexed": false,
          "internalType": "address",
          "name": "account",
          "type": "address"
        }
      ],
      "name": "Unpaused",
      "type": "event"
    },
    {
      "anonymous": false,
      "inputs": [
        {
          "indexed": true,
          "internalType": "address",
          "name": "implementation",
          "type": "address"
        }
      ],
      "name": "Upgraded",
      "type": "event"
    },
    {
      "inputs": [],
      "name": "UPGRADE_INTERFACE_VERSION",
      "outputs": [
        {
          "internalType": "string",
          "name": "",
          "type": "string"
        }
      ],
      "stateMutability": "view",
      "type": "function"
    },
    {
      "inputs": [],
      "name": "accumulatedAssetB",
      "outputs": [
        {
          "internalType": "uint256",
          "name": "",
          "type": "uint256"
        }
      ],
      "stateMutability": "view",
      "type": "function"
    },
    {
      "inputs": [
        {
          "internalType": "address",
          "name": "owner",
          "type": "address"
        },
        {
          "internalType": "address",
          "name": "spender",
          "type": "address"
        }
      ],
      "name": "allowance",
      "outputs": [
        {
          "internalType": "uint256",
          "name": "",
          "type": "uint256"
        }
      ],
      "stateMutability": "view",
      "type": "function"
    },
    {
      "inputs": [
        {
          "internalType": "address",
          "name": "spender",
          "type": "address"
        },
        {
          "internalType": "uint256",
          "name": "value",
          "type": "uint256"
        }
      ],
      "name": "approve",
      "outputs": [
        {
          "internalType": "bool",
          "name": "",
          "type": "bool"
        }
      ],
      "stateMutability": "nonpayable",
      "type": "function"
    },
    {
      "inputs": [
        {
          "internalType": "address",
          "name": "account",
          "type": "address"
        }
      ],
      "name": "balanceOf",
      "outputs": [
        {
          "internalType": "uint256",
          "name": "",
          "type": "uint256"
        }
      ],
      "stateMutability": "view",
      "type": "function"
    },
    {
      "inputs": [],
      "name": "baseAsset",
      "outputs": [
        {
          "internalType": "address",
          "name": "",
          "type": "address"
        }
      ],
      "stateMutability": "view",
      "type": "function"
    },
    {
      "inputs": [],
      "name": "canSystemDeposit",
      "outputs": [
        {
          "internalType": "bool",
          "name": "",
          "type": "bool"
        }
      ],
      "stateMutability": "view",
      "type": "function"
    },
    {
      "inputs": [
        {
          "internalType": "uint256",
          "name": "_reinvestDuration",
          "type": "uint256"
        }
      ],
      "name": "changeReinvestDuration",
      "outputs": [],
      "stateMutability": "nonpayable",
      "type": "function"
    },
    {
      "inputs": [],
      "name": "decimals",
      "outputs": [
        {
          "internalType": "uint8",
          "name": "",
          "type": "uint8"
        }
      ],
      "stateMutability": "view",
      "type": "function"
    },
    {
      "inputs": [
        {
          "internalType": "uint256",
          "name": "amount",
          "type": "uint256"
        },
        {
          "internalType": "address",
          "name": "to",
          "type": "address"
        }
      ],
      "name": "deposit",
      "outputs": [],
      "stateMutability": "nonpayable",
      "type": "function"
    },
    {
      "inputs": [
        {
          "internalType": "address",
          "name": "",
          "type": "address"
        }
      ],
      "name": "executors",
      "outputs": [
        {
          "internalType": "bool",
          "name": "",
          "type": "bool"
        }
      ],
      "stateMutability": "view",
      "type": "function"
    },
    {
      "inputs": [],
      "name": "getAmountToSwap",
      "outputs": [
        {
          "internalType": "uint256",
          "name": "",
          "type": "uint256"
        }
      ],
      "stateMutability": "view",
      "type": "function"
    },
    {
      "inputs": [
        {
          "internalType": "string",
          "name": "_name",
          "type": "string"
        },
        {
          "internalType": "string",
          "name": "_symbol",
          "type": "string"
        },
        {
          "internalType": "address",
          "name": "_baseAsset",
          "type": "address"
        },
        {
          "internalType": "address",
          "name": "_quoteAsset",
          "type": "address"
        },
        {
          "internalType": "address",
          "name": "_registryAddress",
          "type": "address"
        },
        {
          "internalType": "uint256",
          "name": "_reinvestDuration",
          "type": "uint256"
        }
      ],
      "name": "initialize",
      "outputs": [],
      "stateMutability": "nonpayable",
      "type": "function"
    },
    {
      "inputs": [],
      "name": "lastDeposit",
      "outputs": [
        {
          "internalType": "uint256",
          "name": "",
          "type": "uint256"
        }
      ],
      "stateMutability": "view",
      "type": "function"
    },
    {
      "inputs": [],
      "name": "lastInvestedBlock",
      "outputs": [
        {
          "internalType": "uint256",
          "name": "",
          "type": "uint256"
        }
      ],
      "stateMutability": "view",
      "type": "function"
    },
    {
      "inputs": [],
      "name": "maxPerSwap",
      "outputs": [
        {
          "internalType": "uint256",
          "name": "",
          "type": "uint256"
        }
      ],
      "stateMutability": "view",
      "type": "function"
    },
    {
      "inputs": [],
      "name": "name",
      "outputs": [
        {
          "internalType": "string",
          "name": "",
          "type": "string"
        }
      ],
      "stateMutability": "view",
      "type": "function"
    },
    {
      "inputs": [],
      "name": "owner",
      "outputs": [
        {
          "internalType": "address",
          "name": "",
          "type": "address"
        }
      ],
      "stateMutability": "view",
      "type": "function"
    },
    {
      "inputs": [],
      "name": "pause",
      "outputs": [],
      "stateMutability": "nonpayable",
      "type": "function"
    },
    {
      "inputs": [],
      "name": "paused",
      "outputs": [
        {
          "internalType": "bool",
          "name": "",
          "type": "bool"
        }
      ],
      "stateMutability": "view",
      "type": "function"
    },
    {
      "inputs": [],
      "name": "proxiableUUID",
      "outputs": [
        {
          "internalType": "bytes32",
          "name": "",
          "type": "bytes32"
        }
      ],
      "stateMutability": "view",
      "type": "function"
    },
    {
      "inputs": [],
      "name": "quoteAsset",
      "outputs": [
        {
          "internalType": "address",
          "name": "",
          "type": "address"
        }
      ],
      "stateMutability": "view",
      "type": "function"
    },
    {
      "inputs": [],
      "name": "registry",
      "outputs": [
        {
          "internalType": "address",
          "name": "",
          "type": "address"
        }
      ],
      "stateMutability": "view",
      "type": "function"
    },
    {
      "inputs": [
        {
          "internalType": "string",
          "name": "_name",
          "type": "string"
        },
        {
          "internalType": "string",
          "name": "_symbol",
          "type": "string"
        },
        {
          "internalType": "address",
          "name": "_baseAsset",
          "type": "address"
        },
        {
          "internalType": "address",
          "name": "_quoteAsset",
          "type": "address"
        },
        {
          "internalType": "address",
          "name": "_registryAddress",
          "type": "address"
        },
        {
          "internalType": "uint256",
          "name": "_reinvestDuration",
          "type": "uint256"
        },
        {
          "internalType": "uint64",
          "name": "_version",
          "type": "uint64"
        }
      ],
      "name": "reinitialize",
      "outputs": [],
      "stateMutability": "nonpayable",
      "type": "function"
    },
    {
      "inputs": [],
      "name": "reinvestDuration",
      "outputs": [
        {
          "internalType": "uint256",
          "name": "",
          "type": "uint256"
        }
      ],
      "stateMutability": "view",
      "type": "function"
    },
    {
      "inputs": [],
      "name": "renounceOwnership",
      "outputs": [],
      "stateMutability": "nonpayable",
      "type": "function"
    },
    {
      "inputs": [
        {
          "internalType": "address",
          "name": "_wallet",
          "type": "address"
        },
        {
          "internalType": "bool",
          "name": "_allow",
          "type": "bool"
        }
      ],
      "name": "setExecutor",
      "outputs": [],
      "stateMutability": "nonpayable",
      "type": "function"
    },
    {
      "inputs": [],
      "name": "swapDuration",
      "outputs": [
        {
          "internalType": "uint256",
          "name": "",
          "type": "uint256"
        }
      ],
      "stateMutability": "view",
      "type": "function"
    },
    {
      "inputs": [],
      "name": "symbol",
      "outputs": [
        {
          "internalType": "string",
          "name": "",
          "type": "string"
        }
      ],
      "stateMutability": "view",
      "type": "function"
    },
    {
      "inputs": [],
      "name": "systemDeposit",
      "outputs": [],
      "stateMutability": "nonpayable",
      "type": "function"
    },
    {
      "inputs": [],
      "name": "totalSupply",
      "outputs": [
        {
          "internalType": "uint256",
          "name": "",
          "type": "uint256"
        }
      ],
      "stateMutability": "view",
      "type": "function"
    },
    {
      "inputs": [],
      "name": "totalValuation",
      "outputs": [
        {
          "internalType": "uint256",
          "name": "",
          "type": "uint256"
        }
      ],
      "stateMutability": "view",
      "type": "function"
    },
    {
      "inputs": [
        {
          "internalType": "address",
          "name": "to",
          "type": "address"
        },
        {
          "internalType": "uint256",
          "name": "value",
          "type": "uint256"
        }
      ],
      "name": "transfer",
      "outputs": [
        {
          "internalType": "bool",
          "name": "",
          "type": "bool"
        }
      ],
      "stateMutability": "nonpayable",
      "type": "function"
    },
    {
      "inputs": [
        {
          "internalType": "address",
          "name": "from",
          "type": "address"
        },
        {
          "internalType": "address",
          "name": "to",
          "type": "address"
        },
        {
          "internalType": "uint256",
          "name": "value",
          "type": "uint256"
        }
      ],
      "name": "transferFrom",
      "outputs": [
        {
          "internalType": "bool",
          "name": "",
          "type": "bool"
        }
      ],
      "stateMutability": "nonpayable",
      "type": "function"
    },
    {
      "inputs": [
        {
          "internalType": "address",
          "name": "newOwner",
          "type": "address"
        }
      ],
      "name": "transferOwnership",
      "outputs": [],
      "stateMutability": "nonpayable",
      "type": "function"
    },
    {
      "inputs": [],
      "name": "unitPrice",
      "outputs": [
        {
          "internalType": "uint256",
          "name": "",
          "type": "uint256"
        }
      ],
      "stateMutability": "view",
      "type": "function"
    },
    {
      "inputs": [],
      "name": "unpause",
      "outputs": [],
      "stateMutability": "nonpayable",
      "type": "function"
    },
    {
      "inputs": [
        {
          "internalType": "address",
          "name": "newImplementation",
          "type": "address"
        },
        {
          "internalType": "bytes",
          "name": "data",
          "type": "bytes"
        }
      ],
      "name": "upgradeToAndCall",
      "outputs": [],
      "stateMutability": "payable",
      "type": "function"
    },
    {
      "inputs": [
        {
          "internalType": "uint256",
          "name": "shares",
          "type": "uint256"
        },
        {
          "internalType": "address",
          "name": "to",
          "type": "address"
        }
      ],
      "name": "withdraw",
      "outputs": [],
      "stateMutability": "nonpayable",
      "type": "function"
    }
  ],
  "bytecode": "0x60a0806040523460295730608052613640908161002e82396080518181816113c101526114a60152f35b5f80fdfe604060808152600480361015610013575f80fd5b5f3560e01c908162f714ce14611ca057816306fdde0314611bda578163095ea7b314611ad057816318160ddd14611a935781631e1bff3f14611a2057816323b872dd14611864578163295b930014611848578163313ce5671461182d57816336b77107146118115781633f4ba83a146117525781634f1ef286146114545781634fe84c421461143657816352d1902d146113a65781635c975abb146113645781636e553f6514610ef457816370a0823114610e9e578163715018a614610e0d5781637b10399914610de65781638456cb5914610d505781638da5cb5b14610d0a57816395d89b4114610bee5781639ac2a01114610bb2578163a9059cbb14610b82578163ad3cb1cc14610aed578163b3404efd14610acf578163bc4ba73114610ab1578163c80b0baf1461093c578163cdf456e114610916578163d53419a31461057a578163d9d47d691461055e578163db48a5e314610540578163dd62ed3e146104c9578163e73faa2d146104a6578163edf3e29e146102e4578163f267d91b1461029d578163f2fde38b14610272578163f661af291461021157508063f7fde10f146101f35763fdf262b7146101c9575f80fd5b346101ef575f6003193601126101ef576020906001600160a01b03600154169051908152f35b5f80fd5b50346101ef575f6003193601126101ef576020906003549051908152f35b346101ef5760206003193601126101ef5780359061022d613376565b8160085561016891808302928304036102465750600755005b6011907f4e487b71000000000000000000000000000000000000000000000000000000005f525260245ffd5b346101ef5760206003193601126101ef5761029b61028e612403565b610296613376565b613118565b005b82346101ef575f6003193601126101ef576020906102b9612f2b565b906102c660055443612651565b6008541091826102da575b50519015158152f35b15159150836102d1565b82346101ef5760c06003193601126101ef5767ffffffffffffffff82358181116101ef576103159036908501612581565b906024358181116101ef5761032d9036908601612581565b91610336612419565b61033e61242f565b610346612445565b917ff0c57e16840df040f15088dc2f81fe391c3923bec73e23a9662efc9c229c6a0095865460ff818a1c16159681168015908161049e575b6001149081610494575b15908161048b575b5061046357866103d59798999a5060017fffffffffffffffffffffffffffffffffffffffffffffffff00000000000000008316178a5561042e575b5060a43594612a03565b6103db57005b7fc7f505b2f371ae2175ee4913f4499e1f2633a7b5936321eed1cdaeb6115181d291817fffffffffffffffffffffffffffffffffffffffffffffff00ffffffffffffffff602093541690555160018152a1005b7fffffffffffffffffffffffffffffffffffffffffffffff0000000000000000001668010000000000000001178855896103cb565b8989517ff92ee8a9000000000000000000000000000000000000000000000000000000008152fd5b9050158b610390565b303b159150610388565b88915061037e565b82346101ef575f6003193601126101ef576020906104c2612fe0565b9051908152f35b82346101ef57806003193601126101ef576020906104e5612403565b6001600160a01b0361052f6104f86123ed565b926001600160a01b03165f527f52c63247e1f47db19d5ce0460030c497f067ca4cebf71ba98eeadabe20bace0160205260405f2090565b91165f528252805f20549051908152f35b82346101ef575f6003193601126101ef576020906006549051908152f35b82346101ef575f6003193601126101ef576020906104c2612f2b565b9050346101ef575f6003193601126101ef57335f526020916009835260ff815f205416156108bb576105aa6131cc565b6105b2613226565b6105be60055443612651565b6008541015610860576105cf612f2b565b928315610805576001600160a01b03838282600254168551928380927f82755ebb0000000000000000000000000000000000000000000000000000000082525afa9081156107fb579082915f916107ce575b501693815f541683855180927f095ea7b3000000000000000000000000000000000000000000000000000000008252815f816106768d8d8a8401602090939291936001600160a01b0360408201951681520152565b03925af180156107c45791608491859493610797575b505f83815416936001541697875198899586947f2d6bc8ea00000000000000000000000000000000000000000000000000000000865285015260248401528960448401523060648401525af190811561078d575f9161073e575b7f129ac658e77b551b004790e5bd957532cef552c50852a1ee0e38dd3e23fe85db93504360055582519485528401523392a260017f9b779b17422d0df92223018b32b4d1fa46e071723d6817e2486d003becc55f0055005b80915083813d8311610786575b61075581836124a3565b810103126101ef577f129ac658e77b551b004790e5bd957532cef552c50852a1ee0e38dd3e23fe85db9251906106e6565b503d61074b565b82513d5f823e3d90fd5b6107b690853d87116107bd575b6107ae81836124a3565b81019061265e565b505f61068c565b503d6107a4565b85513d5f823e3d90fd5b6107ee9150843d86116107f4575b6107e681836124a3565b810190612676565b5f610621565b503d6107dc565b84513d5f823e3d90fd5b6064929151917f08c379a0000000000000000000000000000000000000000000000000000000008352820152600f60248201527f4e6f7468696e6720746f207377617000000000000000000000000000000000006044820152fd5b9160649251917f08c379a0000000000000000000000000000000000000000000000000000000008352820152601d60248201527f776169742074696c6c206e657874207265696e76657374206379636c650000006044820152fd5b9160649251917f08c379a0000000000000000000000000000000000000000000000000000000008352820152600e60248201527f6578656375746f723a207775743f0000000000000000000000000000000000006044820152fd5b82346101ef575f6003193601126101ef576020906001600160a01b035f54169051908152f35b82346101ef5760e06003193601126101ef5767ffffffffffffffff9180358381116101ef5761096e9036908301612581565b6024358481116101ef576109859036908401612581565b61098d612419565b61099561242f565b9061099e612445565b9260c435978089168099036101ef577ff0c57e16840df040f15088dc2f81fe391c3923bec73e23a9662efc9c229c6a00968754918a60ff848c1c16918215610aa4575b5050610a7d577fc7f505b2f371ae2175ee4913f4499e1f2633a7b5936321eed1cdaeb6115181d260208b8b8b610a508c8c8c8c8c68010000000000000000897fffffffffffffffffffffffffffffffffffffffffffffff0000000000000000008f161717875560a43594612a03565b7fffffffffffffffffffffffffffffffffffffffffffffff00ffffffffffffffff815416905551908152a1005b88517ff92ee8a9000000000000000000000000000000000000000000000000000000008152fd5b8416101590508a8c6109e1565b82346101ef575f6003193601126101ef576020906005549051908152f35b82346101ef575f6003193601126101ef576020906007549051908152f35b82346101ef575f6003193601126101ef5780519080820182811067ffffffffffffffff821117610b5657610b5293508152600582527f352e302e300000000000000000000000000000000000000000000000000000006020830152519182918261245b565b0390f35b6041847f4e487b71000000000000000000000000000000000000000000000000000000005f525260245ffd5b82346101ef57806003193601126101ef57602090610bab610ba1612403565b60243590336133d9565b5160018152f35b82346101ef5760206003193601126101ef576020906001600160a01b03610bd7612403565b165f526009825260ff815f20541690519015158152f35b82346101ef575f6003193601126101ef5780515f7f52c63247e1f47db19d5ce0460030c497f067ca4cebf71ba98eeadabe20bace04805490610c2f82612695565b80855291602091600191828116908115610cbf5750600114610c67575b610b528688610c5d828903836124a3565b519182918261245b565b5f90815293507f46a2803e59a4de4e7a4c574b1243f25977ac4c77d5a1a4a609b5394cebb4a2aa5b838510610cac57505050508101602001610c5d82610b5286610c4c565b8054868601840152938201938101610c8f565b610b5298965087945060209350610c5d9592507fffffffffffffffffffffffffffffffffffffffffffffffffffffffffffffff0091501682840152151560051b820101929486610c4c565b82346101ef575f6003193601126101ef576020906001600160a01b037f9016d09d72d40fdae2fd8ceac6b6234c7706214fd39c1cd1e609a0528c19930054169051908152f35b82346101ef575f6003193601126101ef5760207f62e78cea01bee320cd4e420270b5ea74000d11b0c9f74754ebdbfc544b05a25891610d8d613376565b610d95613226565b7fcd5ed15c6e187e77e9aee88184c21f4f2182ab5827cb3b7e07fbedcd63f0330060017fffffffffffffffffffffffffffffffffffffffffffffffffffffffffffffff0082541617905551338152a1005b82346101ef575f6003193601126101ef576020906001600160a01b03600254169051908152f35b346101ef575f6003193601126101ef57610e25613376565b5f6001600160a01b037f9016d09d72d40fdae2fd8ceac6b6234c7706214fd39c1cd1e609a0528c1993008054907fffffffffffffffffffffffff000000000000000000000000000000000000000082169055167f8be0079c531659141344cd1fd0a4f28419497f9722a3daafe3b4186f6b6457e08280a3005b82346101ef5760206003193601126101ef576020906001600160a01b03610ec3612403565b165f527f52c63247e1f47db19d5ce0460030c497f067ca4cebf71ba98eeadabe20bace008252805f20549051908152f35b9050346101ef57816003193601126101ef578035610f106123ed565b610f186131cc565b610f20613226565b8115611307575f805485517f23b872dd0000000000000000000000000000000000000000000000000000000081523386820190815230602082810191909152604082018790526001600160a01b03969094909385928492918916918391829060600103925af1801561125e576112ea575b5083600254168651917f04cc732500000000000000000000000000000000000000000000000000000000835283838881855afa92831561128557879285915f956112cb575b508951938480927f3b19e84a0000000000000000000000000000000000000000000000000000000082525afa918215611285575f926112ac575b508661101b8261327b565b92896110858761102a8761327b565b978b5f54166110398a8a612651565b915f86518096819582947fa9059cbb000000000000000000000000000000000000000000000000000000009c8d85528401602090939291936001600160a01b0360408201951681520152565b03925af1801561078d5788948c925f9261128f575b506110ca8c8354169451998a968795869485528401602090939291936001600160a01b0360408201951681520152565b03925af1928315611285576110e493611268575b50612651565b928482825f54168851928380927f313ce5670000000000000000000000000000000000000000000000000000000082525afa801561125e576111346111399161113f935f91611231575b506125b8565b6125f6565b85612607565b9216918215611202575f917fddf252ad1be2c89b69c2b068fc378daa952ba7f163c4a11628f55a4df523b3ef916111da96977f52c63247e1f47db19d5ce0460030c497f067ca4cebf71ba98eeadabe20bace0261119d8382546126e6565b90558585527f52c63247e1f47db19d5ce0460030c497f067ca4cebf71ba98eeadabe20bace00835280852082815401905551908152a382546126e6565b905560017f9b779b17422d0df92223018b32b4d1fa46e071723d6817e2486d003becc55f0055005b6024855f8851917fec442f05000000000000000000000000000000000000000000000000000000008352820152fd5b6112519150863d8811611257575b61124981836124a3565b81019061259f565b5f61112e565b503d61123f565b87513d5f823e3d90fd5b61127e90853d87116107bd576107ae81836124a3565b505f6110de565b88513d5f823e3d90fd5b6112a590873d89116107bd576107ae81836124a3565b505f61109a565b6112c4919250843d86116107f4576107e681836124a3565b905f611010565b6112e3919550823d84116107f4576107e681836124a3565b935f610fd6565b61130090833d85116107bd576107ae81836124a3565b505f610f91565b60648360208651917f08c379a0000000000000000000000000000000000000000000000000000000008352820152602060248201527f416d6f756e74206d7573742062652067726561746572207468616e207a65726f6044820152fd5b82346101ef575f6003193601126101ef5760209060ff7fcd5ed15c6e187e77e9aee88184c21f4f2182ab5827cb3b7e07fbedcd63f03300541690519015158152f35b82346101ef575f6003193601126101ef576001600160a01b037f000000000000000000000000000000000000000000000000000000000000000016300361141057602090517f360894a13ba1a3210667c828492db98dca3e2076cc3735a920a3ca505d382bbc8152f35b517fe07c8dba000000000000000000000000000000000000000000000000000000008152fd5b82346101ef575f6003193601126101ef576020906008549051908152f35b9050816003193601126101ef57611469612403565b9160243567ffffffffffffffff81116101ef57366023820112156101ef5761149a903690602481860135910161254b565b906001600160a01b03807f000000000000000000000000000000000000000000000000000000000000000016803014908115611724575b506116fc576114de613376565b8416918151947f52d1902d00000000000000000000000000000000000000000000000000000000865260209081878781885afa5f97816116cd575b5061154d57602486868651917f4c9c8ce3000000000000000000000000000000000000000000000000000000008352820152fd5b919490937f360894a13ba1a3210667c828492db98dca3e2076cc3735a920a3ca505d382bbc877fc9f76b5ec45e5cdef99837d7b6d2467235c1df8933c8ca56df5c35afa2c7d444810161169e5750833b1561166f57817fffffffffffffffffffffffff00000000000000000000000000000000000000008254161790558351907fbc7cd75a20ee27fd9adebab32041f755214dbc6bffa90cc0225b39da2e5c2d3b5f80a285511561163d5750505f80858561029b97519101845af4913d15611633573d61162561161c82612511565b925192836124a3565b81525f81943d92013e613577565b5060609250613577565b9350935050503461164a57005b7fb398979f000000000000000000000000000000000000000000000000000000008152fd5b602483838751917f4c9c8ce3000000000000000000000000000000000000000000000000000000008352820152fd5b836024918751917faa1d49a4000000000000000000000000000000000000000000000000000000008352820152fd5b9097508281813d83116116f5575b6116e581836124a3565b810103126101ef5751965f611519565b503d6116db565b8382517fe07c8dba000000000000000000000000000000000000000000000000000000008152fd5b9050817f360894a13ba1a3210667c828492db98dca3e2076cc3735a920a3ca505d382bbc541614155f6114d1565b82346101ef575f6003193601126101ef5761176b613376565b7fcd5ed15c6e187e77e9aee88184c21f4f2182ab5827cb3b7e07fbedcd63f033009182549060ff8216156117ea577f5db9ee0a495bf2e6ff9c91a7834c1ba4fdd244a5e8aa4e537bd38aeae4b073aa602084867fffffffffffffffffffffffffffffffffffffffffffffffffffffffffffffff008616905551338152a1005b82517f8dfc202b000000000000000000000000000000000000000000000000000000008152fd5b82346101ef575f6003193601126101ef57602091549051908152f35b82346101ef575f6003193601126101ef576020905160128152f35b82346101ef575f6003193601126101ef576020906104c26126f3565b9050346101ef5760606003193601126101ef5761187f612403565b6118876123ed565b90604435926118c6826001600160a01b03165f527f52c63247e1f47db19d5ce0460030c497f067ca4cebf71ba98eeadabe20bace0160205260405f2090565b335f52602052845f2054907fffffffffffffffffffffffffffffffffffffffffffffffffffffffffffffffff8203611907575b602086610bab8787876133d9565b8482106119dc576001600160a01b038316156119ad57331561197e5750918184610bab9461196960209897956001600160a01b03165f527f52c63247e1f47db19d5ce0460030c497f067ca4cebf71ba98eeadabe20bace0160205260405f2090565b335f52885203855f20559193948193506118f9565b6024905f8751917f94280d62000000000000000000000000000000000000000000000000000000008352820152fd5b6024905f8751917fe602df05000000000000000000000000000000000000000000000000000000008352820152fd5b85517ffb8f41b20000000000000000000000000000000000000000000000000000000081523391810191825260208201929092526040810185905281906060010390fd5b82346101ef57806003193601126101ef57611a39612403565b90602435918215158093036101ef576001600160a01b0390611a59613376565b165f5260096020525f209060ff7fffffffffffffffffffffffffffffffffffffffffffffffffffffffffffffff0083541691161790555f80f35b82346101ef575f6003193601126101ef576020907f52c63247e1f47db19d5ce0460030c497f067ca4cebf71ba98eeadabe20bace02549051908152f35b82346101ef57806003193601126101ef57611ae9612403565b602435903315611bab576001600160a01b0316908115611b7c5760209350611b41336001600160a01b03165f527f52c63247e1f47db19d5ce0460030c497f067ca4cebf71ba98eeadabe20bace0160205260405f2090565b825f52845280835f205582519081527f8c5be1e5ebec7d5bd14f71427d1e84f3dd0314c0f7b2291e5b200ac8c7c3b925843392a35160018152f35b6024845f8551917f94280d62000000000000000000000000000000000000000000000000000000008352820152fd5b6024845f8551917fe602df05000000000000000000000000000000000000000000000000000000008352820152fd5b82346101ef575f6003193601126101ef5780515f7f52c63247e1f47db19d5ce0460030c497f067ca4cebf71ba98eeadabe20bace03805490611c1b82612695565b80855291602091600191828116908115610cbf5750600114611c4857610b528688610c5d828903836124a3565b5f90815293507f2ae08a8e29253f69ac5d979a101956ab8f8d9d7ded63fa7a83b16fc47648eab05b838510611c8d57505050508101602001610c5d82610b5286610c4c565b8054868601840152938201938101611c70565b9050346101ef57816003193601126101ef578035611cbc6123ed565b611cc46131cc565b611ccc613226565b811561239057335f527f52c63247e1f47db19d5ce0460030c497f067ca4cebf71ba98eeadabe20bace0060209181835283865f205410612334576001600160a01b03918260015416948751907f313ce567000000000000000000000000000000000000000000000000000000008252858289818a5afa918215612168575f92612315575b50885186816024817f70a08231000000000000000000000000000000000000000000000000000000009b8c82528d30908301525afa908115612238575f916122e8575b5086865f54169860248c51809b819382528d30908301525afa978815612238575f986122b7575b50611dd4611ddb91611dce611134866125b8565b90612607565b9782612607565b611e1b7f52c63247e1f47db19d5ce0460030c497f067ca4cebf71ba98eeadabe20bace0291611e16611e0f8454809361261a565b9a85612607565b61261a565b93331561228857335f528088528a5f2054908382106122425783611134938d611e8596611e8b9998955f958e3388525203908420558181540390558c519081527fddf252ad1be2c89b69c2b068fc378daa952ba7f163c4a11628f55a4df523b3ef8a3392a36125b8565b9061261a565b9085611e968661327b565b5f86611ef487835416611ea9858c612651565b8d519485809481938b7fa9059cbb000000000000000000000000000000000000000000000000000000009b8c85528401602090939291936001600160a01b0360408201951681520152565b03925af180156122385761221b575b50611f0d8161327b565b92898660025416948151957f04cc732500000000000000000000000000000000000000000000000000000000875289878d81845afa9687156121d3578c918b915f996121fc575b508451928380927f3b19e84a0000000000000000000000000000000000000000000000000000000082525afa9485156121d357878b918e935f986121dd575b50611fa2858d5f541692612651565b935f8a611fd089519788968795869485528401602090939291936001600160a01b0360408201951681520152565b03925af180156121d3576121b6575b508884895f54168d5f8961201488519788968795869485528401602090939291936001600160a01b0360408201951681520152565b03925af1801561078d57612070978a928d92612199575b506120358161327b565b945f612046878d6001541694612651565b9386519b8c95869485938d85528401602090939291936001600160a01b0360408201951681520152565b03925af191821561218f576120ca968993612172575b506120908161327b565b955f8c6120a1898c84541695612651565b9451998a95869485938b85528401602090939291936001600160a01b0360408201951681520152565b03925af180156121685761210f9587955f9261214b575b50815416928a519687958694859384528c8401602090939291936001600160a01b0360408201951681520152565b03925af180156107c4576111da94955061212d575b50508254612651565b8161214392903d106107bd576107ae81836124a3565b505f80612124565b61216190873d89116107bd576107ae81836124a3565b505f6120e1565b89513d5f823e3d90fd5b61218890843d86116107bd576107ae81836124a3565b505f612086565b50513d5f823e3d90fd5b6121af90843d86116107bd576107ae81836124a3565b505f61202b565b6121cc908a3d8c116107bd576107ae81836124a3565b505f611fdf565b83513d5f823e3d90fd5b6121f5919850833d85116107f4576107e681836124a3565b965f611f93565b612214919950823d84116107f4576107e681836124a3565b975f611f54565b61223190873d89116107bd576107ae81836124a3565b505f611f03565b8a513d5f823e3d90fd5b508a517fe450d38c00000000000000000000000000000000000000000000000000000000815233818c019081526020810192909252604082018490529081906060010390fd5b60248a5f8d51917f96c6fd1e000000000000000000000000000000000000000000000000000000008352820152fd5b9097508681813d83116122e1575b6122cf81836124a3565b810103126101ef575196611dd4611dba565b503d6122c5565b90508681813d831161230e575b6122ff81836124a3565b810103126101ef57515f611d93565b503d6122f5565b61232d919250863d88116112575761124981836124a3565b905f611d50565b606485848851917f08c379a0000000000000000000000000000000000000000000000000000000008352820152601460248201527f496e73756666696369656e742062616c616e63650000000000000000000000006044820152fd5b60648360208651917f08c379a0000000000000000000000000000000000000000000000000000000008352820152602060248201527f536861726573206d7573742062652067726561746572207468616e207a65726f6044820152fd5b602435906001600160a01b03821682036101ef57565b600435906001600160a01b03821682036101ef57565b604435906001600160a01b03821682036101ef57565b606435906001600160a01b03821682036101ef57565b608435906001600160a01b03821682036101ef57565b7fffffffffffffffffffffffffffffffffffffffffffffffffffffffffffffffe0601f602060409481855280519182918282880152018686015e5f8582860101520116010190565b90601f7fffffffffffffffffffffffffffffffffffffffffffffffffffffffffffffffe0910116810190811067ffffffffffffffff8211176124e457604052565b7f4e487b71000000000000000000000000000000000000000000000000000000005f52604160045260245ffd5b67ffffffffffffffff81116124e457601f017fffffffffffffffffffffffffffffffffffffffffffffffffffffffffffffffe01660200190565b92919261255782612511565b9161256560405193846124a3565b8294818452818301116101ef578281602093845f960137010152565b9080601f830112156101ef5781602061259c9335910161254b565b90565b908160209103126101ef575160ff811681036101ef5790565b60ff166012039060ff82116125c957565b7f4e487b71000000000000000000000000000000000000000000000000000000005f52601160045260245ffd5b60ff16604d81116125c957600a0a90565b818102929181159184041417156125c957565b8115612624570490565b7f4e487b71000000000000000000000000000000000000000000000000000000005f52601260045260245ffd5b919082039182116125c957565b908160209103126101ef575180151581036101ef5790565b908160209103126101ef57516001600160a01b03811681036101ef5790565b90600182811c921680156126dc575b60208310146126af57565b7f4e487b71000000000000000000000000000000000000000000000000000000005f52602260045260245ffd5b91607f16916126a4565b919082018092116125c957565b6001600160a01b0380600254169060409081517fbb3ba04c00000000000000000000000000000000000000000000000000000000815260209260049184818481895afa90811561078d5784849287925f916129e6575b5016968351948580927f1bf01e9b0000000000000000000000000000000000000000000000000000000082525afa92831561078d575f936129c7575b50835f5416948251957f70a08231000000000000000000000000000000000000000000000000000000009788885230848901528288602481855afa9788156107c4575f98612998575b508660015416938551998a5230818b0152838a602481885afa998a15612949575f9a612969575b50881580612961575b6129535785517f248391ff000000000000000000000000000000000000000000000000000000008082526001600160a01b039687168383019081529689166020880152604087019b909b52948490869081906060010381855afa948515612949575f9561291a575b508497871683145f14612884575050505050505061259c92506126e6565b919396509194976128c185988796519a8b9687958695865285016040919493929460608201956001600160a01b0380921683521660208201520152565b03915afa92831561291157505f926128df575b5061259c92506126e6565b90915082813d831161290a575b6128f681836124a3565b810103126101ef5761259c9151905f6128d4565b503d6128ec565b513d5f823e3d90fd5b9094508381813d8311612942575b61293281836124a3565b810103126101ef5751935f612866565b503d612928565b86513d5f823e3d90fd5b505050505050505050505f90565b5089156127fe565b9099508381813d8311612991575b61298181836124a3565b810103126101ef5751985f6127f5565b503d612977565b9097508281813d83116129c0575b6129b081836124a3565b810103126101ef5751965f6127ce565b503d6129a6565b6129df919350853d87116107f4576107e681836124a3565b915f612785565b6129fd9150833d85116107f4576107e681836124a3565b5f612749565b612a0b61351e565b612a1361351e565b612a1c33613118565b612a2461351e565b612a2c61351e565b80519067ffffffffffffffff918281116124e4577f52c63247e1f47db19d5ce0460030c497f067ca4cebf71ba98eeadabe20bace039080612a6d8354612695565b93601f94858111612ec0575b50602090858311600114612e04575f92612df9575b50507fffffffffffffffffffffffffffffffffffffffffffffffffffffffffffffffff8260011b9260031b1c19161790555b82519182116124e45781907f52c63247e1f47db19d5ce0460030c497f067ca4cebf71ba98eeadabe20bace0493612af78554612695565b828111612d8b575b506020918311600114612ccf575f92612cc4575b50507fffffffffffffffffffffffffffffffffffffffffffffffffffffffffffffffff8260011b9260031b1c19161790555b612b4d61351e565b612b5561351e565b612b5d61351e565b60017f9b779b17422d0df92223018b32b4d1fa46e071723d6817e2486d003becc55f0055612b8961351e565b612b9161351e565b7fcd5ed15c6e187e77e9aee88184c21f4f2182ab5827cb3b7e07fbedcd63f033007fffffffffffffffffffffffffffffffffffffffffffffffffffffffffffffff0081541690556001600160a01b0380911692817fffffffffffffffffffffffff00000000000000000000000000000000000000009385855f5416175f5516836001541617600155169060025416176002556101689082820291820483036125c95760049260209260075560085543600555604051928380927f313ce5670000000000000000000000000000000000000000000000000000000082525afa8015612cb957612c86915f91612c9a575b506125f6565b61271090808202918204036125c957600655565b612cb3915060203d6020116112575761124981836124a3565b5f612c80565b6040513d5f823e3d90fd5b015190505f80612b13565b5f8581527f46a2803e59a4de4e7a4c574b1243f25977ac4c77d5a1a4a609b5394cebb4a2aa937fffffffffffffffffffffffffffffffffffffffffffffffffffffffffffffffe016905b818110612d735750908460019594939210612d3c575b505050811b019055612b45565b01517fffffffffffffffffffffffffffffffffffffffffffffffffffffffffffffffff60f88460031b161c191690555f8080612d2f565b92936020600181928786015181550195019301612d19565b90919250845f527f46a2803e59a4de4e7a4c574b1243f25977ac4c77d5a1a4a609b5394cebb4a2aa8380860160051c82019260208710612df0575b94869594939291940160051c01905b818110612de25750612aff565b5f8155859450600101612dd5565b92508192612dc6565b015190505f80612a8e565b5f8581527f2ae08a8e29253f69ac5d979a101956ab8f8d9d7ded63fa7a83b16fc47648eab0937fffffffffffffffffffffffffffffffffffffffffffffffffffffffffffffffe016905b818110612ea85750908460019594939210612e71575b505050811b019055612ac0565b01517fffffffffffffffffffffffffffffffffffffffffffffffffffffffffffffffff60f88460031b161c191690555f8080612e64565b92936020600181928786015181550195019301612e4e565b909150835f527f2ae08a8e29253f69ac5d979a101956ab8f8d9d7ded63fa7a83b16fc47648eab08580850160051c82019260208610612f22575b9085949392910160051c01905b818110612f145750612a79565b5f8155849350600101612f07565b92508192612efa565b602460206001600160a01b035f5416604051928380927f70a082310000000000000000000000000000000000000000000000000000000082523060048301525afa908115612cb9575f91612fac575b50612f8e612f9791611dce60055443612651565b6007549061261a565b6006549081811115612fa7575090565b905090565b90506020813d602011612fd8575b81612fc7602093836124a3565b810103126101ef5751612f8e612f7a565b3d9150612fba565b7f52c63247e1f47db19d5ce0460030c497f067ca4cebf71ba98eeadabe20bace02548015613113576001600160a01b0380600254169060405180927f1bf01e9b00000000000000000000000000000000000000000000000000000000825281600460209586935afa8015612cb95783915f916130f6575b506004604051809481937f313ce567000000000000000000000000000000000000000000000000000000008352165afa918215612cb9576130b5926130a892611134925f926130d9575b50506125b8565b6130b06126f3565b612607565b90670de0b6b3a7640000918281029281840414901517156125c95761259c9161261a565b6130ef9250803d106112575761124981836124a3565b5f806130a1565b61310d9150823d84116107f4576107e681836124a3565b5f613057565b505f90565b6001600160a01b0380911690811561319c577f9016d09d72d40fdae2fd8ceac6b6234c7706214fd39c1cd1e609a0528c199300805490837fffffffffffffffffffffffff00000000000000000000000000000000000000008316179055167f8be0079c531659141344cd1fd0a4f28419497f9722a3daafe3b4186f6b6457e05f80a3565b60246040517f1e4fbdf70000000000000000000000000000000000000000000000000000000081525f6004820152fd5b7f9b779b17422d0df92223018b32b4d1fa46e071723d6817e2486d003becc55f0060028154146131fc5760029055565b60046040517f3ee5aeb5000000000000000000000000000000000000000000000000000000008152fd5b60ff7fcd5ed15c6e187e77e9aee88184c21f4f2182ab5827cb3b7e07fbedcd63f03300541661325157565b60046040517fd93c0665000000000000000000000000000000000000000000000000000000008152fd5b6001600160a01b0360025416604051917f85462d6f0000000000000000000000000000000000000000000000000000000083526020918284600481845afa938415612cb9575f94613347575b5082600491604051928380927f4f4608a20000000000000000000000000000000000000000000000000000000082525afa928315612cb9575f93613315575b505061259c92611e1691612607565b9080929350813d8311613340575b61332d81836124a3565b810103126101ef57519082611e16613306565b503d613323565b9093508281813d831161336f575b61335f81836124a3565b810103126101ef575192826132c7565b503d613355565b6001600160a01b037f9016d09d72d40fdae2fd8ceac6b6234c7706214fd39c1cd1e609a0528c199300541633036133a957565b60246040517f118cdaa7000000000000000000000000000000000000000000000000000000008152336004820152fd5b916001600160a01b038084169283156134ee57169283156134be57825f527f52c63247e1f47db19d5ce0460030c497f067ca4cebf71ba98eeadabe20bace008060205260405f205491838310613472575091806020927fddf252ad1be2c89b69c2b068fc378daa952ba7f163c4a11628f55a4df523b3ef94865f5284520360405f2055845f5260405f20818154019055604051908152a3565b6040517fe450d38c0000000000000000000000000000000000000000000000000000000081526001600160a01b0391909116600482015260248101929092525060448101829052606490fd5b60246040517fec442f050000000000000000000000000000000000000000000000000000000081525f6004820152fd5b60246040517f96c6fd1e0000000000000000000000000000000000000000000000000000000081525f6004820152fd5b60ff7ff0c57e16840df040f15088dc2f81fe391c3923bec73e23a9662efc9c229c6a005460401c161561354d57565b60046040517fd7e6bcf8000000000000000000000000000000000000000000000000000000008152fd5b906135b6575080511561358c57805190602001fd5b60046040517f1425ea42000000000000000000000000000000000000000000000000000000008152fd5b81511580613601575b6135c7575090565b6024906001600160a01b03604051917f9996b315000000000000000000000000000000000000000000000000000000008352166004820152fd5b50803b156135bf56fea2646970667358221220956edda7bb8dcf1faa0dfa7ce180585ea48c8bb9964191df515a0a3d243c2d7164736f6c63430008190033",
  "linkReferences": {},
  "deployedLinkReferences": {}
}