{
  "_format": "hh-sol-artifact-1",
  "contractName": "BaluniV1Agent",
  "sourceName": "contracts/BaluniV1Agent.sol",
  "abi": [
    {
      "inputs": [
        {
          "internalType": "address",
          "name": "_factory",
          "type": "address"
        }
      ],
      "stateMutability": "nonpayable",
      "type": "constructor"
    },
    {
      "inputs": [
        {
          "components": [
            {
              "internalType": "address",
              "name": "to",
              "type": "address"
            },
            {
              "internalType": "uint256",
              "name": "value",
              "type": "uint256"
            },
            {
              "internalType": "bytes",
              "name": "data",
              "type": "bytes"
            }
          ],
          "internalType": "struct BaluniV1Agent.Call[]",
          "name": "calls",
          "type": "tuple[]"
        },
        {
          "internalType": "address[]",
          "name": "tokensReturn",
          "type": "address[]"
        }
      ],
      "name": "execute",
      "outputs": [],
      "stateMutability": "nonpayable",
      "type": "function"
    },
    {
      "inputs": [],
      "name": "getFactory",
      "outputs": [
        {
          "internalType": "address",
          "name": "",
          "type": "address"
        }
      ],
      "stateMutability": "view",
      "type": "function"
    },
    {
      "inputs": [],
      "name": "getRouter",
      "outputs": [
        {
          "internalType": "address",
          "name": "",
          "type": "address"
        }
      ],
      "stateMutability": "view",
      "type": "function"
    },
    {
      "inputs": [
        {
          "internalType": "address",
          "name": "_owner",
          "type": "address"
        },
        {
          "internalType": "address",
          "name": "_router",
          "type": "address"
        }
      ],
      "name": "initialize",
      "outputs": [],
      "stateMutability": "nonpayable",
      "type": "function"
    },
    {
      "inputs": [],
      "name": "owner",
      "outputs": [
        {
          "internalType": "address",
          "name": "",
          "type": "address"
        }
      ],
      "stateMutability": "view",
      "type": "function"
    }
  ],
  "bytecode": "0x608034607057601f6109cd38819003918201601f19168301916001600160401b03831184841017607457808492602094604052833981010312607057516001600160a01b03811690819003607057600280546001600160a01b03191691909117905560405161094490816100898239f35b5f80fd5b634e487b7160e01b5f52604160045260245ffdfe608060409080825260049081361015610016575f80fd5b5f3560e01c908163485cc9551461067b5750806388cc58e4146106535780638da5cb5b1461062c578063b0f479a1146106045763eedc3c5014610057575f80fd5b346102d157816003193601126102d15780359167ffffffffffffffff918284116102d157366023850112156102d15783810135906024926100978361076a565b956100a482519788610734565b838752602093858589019160051b830101913683116102d157868101915b838310610548575050505083359485116102d157366023860112156102d15784820135946100ef8661076a565b956100fc83519788610734565b808752858588019160051b830101913683116102d15786869101915b8383106105305750506001805490986001600160a01b039793509150861633036104f0575f885b610461575b5050828486895416845192838092630c2fe7ff60e11b82525afa908115610457579088915f91610426575b505f825b6102e6575b5050508551958661018557005b5f5b87811061019057005b808761019d8b938561079e565b511673eeeeeeeeeeeeeeeeeeeeeeeeeeeeeeeeeeeeeeee81036101da5750476101c7575b01610187565b6101d5885f54164790610834565b6101c1565b85516370a0823160e01b8152308882015291925087828681845afa9182156102dc579188918c94935f926102a3575b50600a821161021b575b5050506101c1565b5f8054895163a9059cbb60e01b8152908d166001600160a01b03168b820190815260208101949094529495508492839190829060400103925af1801561029957908a929161026c575b808891610213565b61028b90883d8a11610292575b6102838183610734565b81019061081c565b505f610264565b503d610279565b85513d5f823e3d90fd5b92839195508092503d83116102d5575b6102bd8183610734565b810103126102d1578a92889151905f610209565b5f80fd5b503d6102b3565b86513d5f823e3d90fd5b885181101561042157876102fa828b61079e565b511673eeeeeeeeeeeeeeeeeeeeeeeeeeeeeeeeeeeeeeee810361033b5750829061033461271061032a85476107f5565b048a845416610834565b0182610173565b85516370a0823160e01b81523088820152929350909187818681855afa9081156102dc57889185915f916103ec575b5061037c6103b39492612710926107f5565b04908a8d54165f8a8a519687958694859363a9059cbb60e01b8552840160209093929193604081019460018060a01b031681520152565b03925af1801561029957918a93929184926103cf575b50610334565b6103e590893d8b11610292576102838183610734565b505f6103c9565b928092508391503d831161041a575b6104058183610734565b810103126102d157518790849061037c61036a565b503d6103fb565b610178565b809250868092503d8311610450575b61043f8183610734565b810103126102d1578790515f61016f565b503d610435565b83513d5f823e3d90fd5b81518110156104eb575f8088610477848661079e565b51511688610485858761079e565b5101519087610494868861079e565b510151918a83519301915af16104a86107c6565b50156104b65788018861013f565b5050606493601192519362461bcd60e51b85528401528201527010985d18da0818d85b1b0819985a5b1959607a1b6044820152fd5b610144565b50606493601b92519362461bcd60e51b85528401528201527f43616c6c61626c65206f6e6c792062792074686520726f7574657200000000006044820152fd5b819061053b84610720565b8152019101908590610118565b82358981116102d1578201906060908160231984360301126102d15786519182018281108c8211176105f25787526105818a8401610720565b8252604492838101358a8401526064810135908c82116102d1570191366043840112156102d1578a830135926105b684610782565b906105c38a519283610734565b848252368686830101116102d1578b8581979682975f94018386013783010152888201528152019201916100c2565b8a60418a634e487b7160e01b5f52525ffd5b82346102d1575f3660031901126102d15760015490516001600160a01b039091168152602090f35b82346102d1575f3660031901126102d1575f5490516001600160a01b039091168152602090f35b82346102d1575f3660031901126102d15760025490516001600160a01b039091168152602090f35b8284346102d1573660031901126102d1576001600160a01b0391813583811691908290036102d157602435928484168094036102d1575f549485166106e95750506bffffffffffffffffffffffff60a01b809316175f55816001541617600155339060025416176002555f80f35b62461bcd60e51b82526020908201526013602482015272105b1c9958591e481a5b9a5d1a585b1a5e9959606a1b6044820152606490fd5b35906001600160a01b03821682036102d157565b90601f8019910116810190811067ffffffffffffffff82111761075657604052565b634e487b7160e01b5f52604160045260245ffd5b67ffffffffffffffff81116107565760051b60200190565b67ffffffffffffffff811161075657601f01601f191660200190565b80518210156107b25760209160051b010190565b634e487b7160e01b5f52603260045260245ffd5b3d156107f0573d906107d782610782565b916107e56040519384610734565b82523d5f602084013e565b606090565b8181029291811591840414171561080857565b634e487b7160e01b5f52601160045260245ffd5b908160209103126102d1575180151581036102d15790565b8147106108c9575f918291829182916001600160a01b03165af16108566107c6565b501561085e57565b60405162461bcd60e51b815260206004820152603a60248201527f416464726573733a20756e61626c6520746f2073656e642076616c75652c207260448201527f6563697069656e74206d617920686176652072657665727465640000000000006064820152608490fd5b60405162461bcd60e51b815260206004820152601d60248201527f416464726573733a20696e73756666696369656e742062616c616e63650000006044820152606490fdfea264697066735822122065fd76e4d8a212b7ddb2929996d39d95713a837f5abdc91b15d98dcd297be20b64736f6c63430008190033",
  "linkReferences": {},
  "deployedLinkReferences": {}
}