{
  "_format": "hh-sol-artifact-1",
  "contractName": "BaluniV1Agent",
  "sourceName": "contracts/BaluniV1Agent.sol",
  "abi": [
    {
      "inputs": [
        {
          "internalType": "address",
          "name": "_factory",
          "type": "address"
        }
      ],
      "stateMutability": "nonpayable",
      "type": "constructor"
    },
    {
      "inputs": [
        {
          "components": [
            {
              "internalType": "address",
              "name": "to",
              "type": "address"
            },
            {
              "internalType": "uint256",
              "name": "value",
              "type": "uint256"
            },
            {
              "internalType": "bytes",
              "name": "data",
              "type": "bytes"
            }
          ],
          "internalType": "struct BaluniV1Agent.Call[]",
          "name": "calls",
          "type": "tuple[]"
        },
        {
          "internalType": "address[]",
          "name": "tokensReturn",
          "type": "address[]"
        }
      ],
      "name": "execute",
      "outputs": [],
      "stateMutability": "nonpayable",
      "type": "function"
    },
    {
      "inputs": [],
      "name": "getFactory",
      "outputs": [
        {
          "internalType": "address",
          "name": "",
          "type": "address"
        }
      ],
      "stateMutability": "view",
      "type": "function"
    },
    {
      "inputs": [],
      "name": "getRouter",
      "outputs": [
        {
          "internalType": "address",
          "name": "",
          "type": "address"
        }
      ],
      "stateMutability": "view",
      "type": "function"
    },
    {
      "inputs": [
        {
          "internalType": "address",
          "name": "_owner",
          "type": "address"
        },
        {
          "internalType": "address",
          "name": "_registry",
          "type": "address"
        }
      ],
      "name": "initialize",
      "outputs": [],
      "stateMutability": "nonpayable",
      "type": "function"
    },
    {
      "inputs": [],
      "name": "owner",
      "outputs": [
        {
          "internalType": "address",
          "name": "",
          "type": "address"
        }
      ],
      "stateMutability": "view",
      "type": "function"
    },
    {
      "inputs": [],
      "name": "registry",
      "outputs": [
        {
          "internalType": "contract IBaluniV1Registry",
          "name": "",
          "type": "address"
        }
      ],
      "stateMutability": "view",
      "type": "function"
    }
  ],
  "bytecode": "0x6080604052348015600e575f80fd5b50604051610e1c380380610e1c833981016040819052602b91604f565b600180546001600160a01b0319166001600160a01b0392909216919091179055607a565b5f60208284031215605e575f80fd5b81516001600160a01b03811681146073575f80fd5b9392505050565b610d95806100875f395ff3fe608060405234801561000f575f80fd5b506004361061006f575f3560e01c80638da5cb5b1161004d5780638da5cb5b146100c8578063b0f479a1146100da578063eedc3c50146100e2575f80fd5b8063485cc955146100735780637b1039991461008857806388cc58e4146100b7575b5f80fd5b6100866100813660046109ec565b6100f5565b005b60025461009b906001600160a01b031681565b6040516001600160a01b03909116815260200160405180910390f35b6001546001600160a01b031661009b565b5f5461009b906001600160a01b031681565b61009b6101a1565b6100866100f0366004610b29565b610211565b5f546001600160a01b0316156101525760405162461bcd60e51b815260206004820152601360248201527f416c726561647920696e697469616c697a65640000000000000000000000000060448201526064015b60405180910390fd5b5f80546001600160a01b039384167fffffffffffffffffffffffff0000000000000000000000000000000000000000918216179091556001805482163317905560028054929093169116179055565b600254604080516304cc732560e01b815290515f926001600160a01b0316916304cc73259160048083019260209291908290030181865afa1580156101e8573d5f803e3d5ffd5b505050506040513d601f19601f8201168201806040525081019061020c9190610c95565b905090565b600254604080516304cc732560e01b815290515f926001600160a01b0316916304cc73259160048083019260209291908290030181865afa158015610258573d5f803e3d5ffd5b505050506040513d601f19601f8201168201806040525081019061027c9190610c95565b9050336001600160a01b038216146102d65760405162461bcd60e51b815260206004820152601b60248201527f43616c6c61626c65206f6e6c792062792074686520726f7574657200000000006044820152606401610149565b5f5b83518110156103ea575f8482815181106102f4576102f4610cb7565b60200260200101515f01516001600160a01b031685838151811061031a5761031a610cb7565b60200260200101516020015186848151811061033857610338610cb7565b6020026020010151604001516040516103519190610ccb565b5f6040518083038185875af1925050503d805f811461038b576040519150601f19603f3d011682016040523d82523d5f602084013e610390565b606091505b50509050806103e15760405162461bcd60e51b815260206004820152601160248201527f42617463682063616c6c206661696c65640000000000000000000000000000006044820152606401610149565b506001016102d8565b506103f482610402565b6103fd8261071b565b505050565b600254604080516304cc732560e01b815290515f926001600160a01b0316916304cc73259160048083019260209291908290030181865afa158015610449573d5f803e3d5ffd5b505050506040513d601f19601f8201168201806040525081019061046d9190610c95565b90505f8060025f9054906101000a90046001600160a01b03166001600160a01b03166385462d6f6040518163ffffffff1660e01b8152600401602060405180830381865afa1580156104c1573d5f803e3d5ffd5b505050506040513d601f19601f820116820180604052508101906104e59190610ce1565b90505f60025f9054906101000a90046001600160a01b03166001600160a01b0316634f4608a26040518163ffffffff1660e01b8152600401602060405180830381865afa158015610538573d5f803e3d5ffd5b505050506040513d601f19601f8201168201806040525081019061055c9190610ce1565b90505f5b8551811015610713575f86828151811061057c5761057c610cb7565b6020026020010151905073eeeeeeeeeeeeeeeeeeeeeeeeeeeeeeeeeeeeeeee6001600160a01b0316816001600160a01b0316036105e257826105be8547610cf8565b6105c89190610d21565b94506105dd6001600160a01b038716866108c0565b61070a565b6040517f70a082310000000000000000000000000000000000000000000000000000000081523060048201525f906001600160a01b038316906370a0823190602401602060405180830381865afa15801561063f573d5f803e3d5ffd5b505050506040513d601f19601f820116820180604052508101906106639190610ce1565b9050836106708683610cf8565b61067a9190610d21565b6040517fa9059cbb0000000000000000000000000000000000000000000000000000000081526001600160a01b038981166004830152602482018390529197509083169063a9059cbb906044016020604051808303815f875af11580156106e3573d5f803e3d5ffd5b505050506040513d601f19601f820116820180604052508101906107079190610d40565b50505b50600101610560565b505050505050565b805180156108bc575f5b818110156103fd575f83828151811061074057610740610cb7565b6020026020010151905073eeeeeeeeeeeeeeeeeeeeeeeeeeeeeeeeeeeeeeee6001600160a01b0316816001600160a01b031603610797574715610792575f54610792906001600160a01b0316476108c0565b6108b3565b6040517f70a082310000000000000000000000000000000000000000000000000000000081523060048201525f906001600160a01b038316906370a0823190602401602060405180830381865afa1580156107f4573d5f803e3d5ffd5b505050506040513d601f19601f820116820180604052508101906108189190610ce1565b9050600a8111156108b1575f546040517fa9059cbb0000000000000000000000000000000000000000000000000000000081526001600160a01b039182166004820152602481018390529083169063a9059cbb906044016020604051808303815f875af115801561088b573d5f803e3d5ffd5b505050506040513d601f19601f820116820180604052508101906108af9190610d40565b505b505b50600101610725565b5050565b804710156109105760405162461bcd60e51b815260206004820152601d60248201527f416464726573733a20696e73756666696369656e742062616c616e63650000006044820152606401610149565b5f826001600160a01b0316826040515f6040518083038185875af1925050503d805f8114610959576040519150601f19603f3d011682016040523d82523d5f602084013e61095e565b606091505b50509050806103fd5760405162461bcd60e51b815260206004820152603a60248201527f416464726573733a20756e61626c6520746f2073656e642076616c75652c207260448201527f6563697069656e74206d617920686176652072657665727465640000000000006064820152608401610149565b6001600160a01b03811681146109e9575f80fd5b50565b5f80604083850312156109fd575f80fd5b8235610a08816109d5565b91506020830135610a18816109d5565b809150509250929050565b634e487b7160e01b5f52604160045260245ffd5b6040516060810167ffffffffffffffff81118282101715610a5a57610a5a610a23565b60405290565b604051601f8201601f1916810167ffffffffffffffff81118282101715610a8957610a89610a23565b604052919050565b5f67ffffffffffffffff821115610aaa57610aaa610a23565b5060051b60200190565b5f82601f830112610ac3575f80fd5b81356020610ad8610ad383610a91565b610a60565b8083825260208201915060208460051b870101935086841115610af9575f80fd5b602086015b84811015610b1e578035610b11816109d5565b8352918301918301610afe565b509695505050505050565b5f8060408385031215610b3a575f80fd5b823567ffffffffffffffff80821115610b51575f80fd5b818501915085601f830112610b64575f80fd5b81356020610b74610ad383610a91565b82815260059290921b84018101918181019089841115610b92575f80fd5b8286015b84811015610c6857803586811115610bac575f80fd5b8701601f196060828e0382011215610bc2575f80fd5b610bca610a37565b86830135610bd7816109d5565b8152604083013587820152606083013589811115610bf3575f80fd5b8084019350508d603f840112610c07575f80fd5b8683013589811115610c1b57610c1b610a23565b610c2b8884601f84011601610a60565b92508083528e888983870101011115610c42575f80fd5b8060408501898501375f9083018801526040810191909152845250918301918301610b96565b5096505086013592505080821115610c7e575f80fd5b50610c8b85828601610ab4565b9150509250929050565b5f60208284031215610ca5575f80fd5b8151610cb0816109d5565b9392505050565b634e487b7160e01b5f52603260045260245ffd5b5f82518060208501845e5f920191825250919050565b5f60208284031215610cf1575f80fd5b5051919050565b8082028115828204841417610d1b57634e487b7160e01b5f52601160045260245ffd5b92915050565b5f82610d3b57634e487b7160e01b5f52601260045260245ffd5b500490565b5f60208284031215610d50575f80fd5b81518015158114610cb0575f80fdfea2646970667358221220e6b5cf0048b0aa4398539a88f4473f7cafab2dda90e84c9069701a295827c50864736f6c63430008190033",
  "linkReferences": {},
  "deployedLinkReferences": {}
}